{
  "contractName": "AssetRouter",
  "abi": [
    {
      "anonymous": false,
      "inputs": [
        {
          "indexed": false,
          "internalType": "uint8",
          "name": "version",
          "type": "uint8"
        }
      ],
      "name": "Initialized",
      "type": "event"
    },
    {
      "inputs": [],
      "name": "accessManager",
      "outputs": [
        {
          "internalType": "address",
          "name": "",
          "type": "address"
        }
      ],
      "stateMutability": "view",
      "type": "function"
    },
    {
      "inputs": [],
      "name": "factory",
      "outputs": [
        {
          "internalType": "address",
          "name": "",
          "type": "address"
        }
      ],
      "stateMutability": "view",
      "type": "function"
    },
    {
      "inputs": [
        {
          "internalType": "address",
          "name": "_accessManager",
          "type": "address"
        },
        {
          "internalType": "address",
          "name": "_factory",
          "type": "address"
        }
      ],
      "name": "initialize",
      "outputs": [],
      "stateMutability": "nonpayable",
      "type": "function"
    }
  ],
  "bytecode": "0x608060405234801561001057600080fd5b50610347806100206000396000f3fe608060405234801561001057600080fd5b50600436106100415760003560e01c8063485cc95514610046578063c45a01551461005b578063fdcb60681461008a575b600080fd5b610059610054366004610290565b6100a3565b005b60015461006e906001600160a01b031681565b6040516001600160a01b03909116815260200160405180910390f35b60005461006e906201000090046001600160a01b031681565b60006100af60016101ec565b905080156100c7576000805461ff0019166101001790555b6001600160a01b0383166101175760405162461bcd60e51b81526020600482015260126024820152712120a22fa0a1a1a2a9a9afa6a0a720a3a2a960711b60448201526064015b60405180910390fd5b6001600160a01b0382166101605760405162461bcd60e51b815260206004820152601060248201526f4241445f4641524d5f464143544f525960801b604482015260640161010e565b6000805462010000600160b01b031916620100006001600160a01b038681169190910291909117909155600180546001600160a01b03191691841691909117905580156101e7576000805461ff0019169055604051600181527f7f26b83ff96e1f2b6a682f133852f6798a09c465da95921460cefb38474024989060200160405180910390a15b505050565b60008054610100900460ff1615610233578160ff16600114801561020f5750303b155b61022b5760405162461bcd60e51b815260040161010e906102c3565b506000919050565b60005460ff80841691161061025a5760405162461bcd60e51b815260040161010e906102c3565b506000805460ff191660ff92909216919091179055600190565b919050565b80356001600160a01b038116811461027457600080fd5b600080604083850312156102a357600080fd5b6102ac83610279565b91506102ba60208401610279565b90509250929050565b6020808252602e908201527f496e697469616c697a61626c653a20636f6e747261637420697320616c72656160408201526d191e481a5b9a5d1a585b1a5e995960921b60608201526080019056fea26469706673582212200c586dee6158c9bceacd138e00f66e578bb35a7933ee991934657206698bc7e764736f6c63430008110033",
  "immutableReferences": {},
  "source": "// SPDX-License-Identifier: MIT\npragma solidity 0.8.17;\nimport \"@openzeppelin/contracts-upgradeable/proxy/utils/Initializable.sol\";\n\ncontract AssetRouter is Initializable {\n\taddress public accessManager;\n\taddress public factory;\n\n\tfunction initialize(address _accessManager, address _factory)\n\t\texternal\n\t\tinitializer\n\t{\n\t\trequire(_accessManager != address(0), \"BAD_ACCESS_MANAGER\");\n\t\trequire(_factory != address(0), \"BAD_FARM_FACTORY\");\n\n\t\taccessManager = _accessManager;\n\t\tfactory = _factory;\n\t}\n}\n",
  "sourcePath": "/home/ilau/projectWork/uno-contracts/contracts/test/assetRouter.sol",
  "compiler": {
    "name": "solc",
    "version": "0.8.17+commit.8df45f5f.Emscripten.clang"
  },
  "schemaVersion": "3.4.10",
  "updatedAt": "2022-10-06T15:14:00.440Z",
  "devdoc": {
    "kind": "dev",
    "methods": {},
    "version": 1
  },
  "userdoc": {
    "kind": "user",
    "methods": {},
    "version": 1
  }
}