{
  "contractName": "AssetRouter",
  "abi": [
    {
      "anonymous": false,
      "inputs": [
        {
          "indexed": false,
          "internalType": "uint8",
          "name": "version",
          "type": "uint8"
        }
      ],
      "name": "Initialized",
      "type": "event"
    },
    {
      "inputs": [],
      "name": "accessManager",
      "outputs": [
        {
          "internalType": "address",
          "name": "",
          "type": "address"
        }
      ],
      "stateMutability": "view",
      "type": "function"
    },
    {
      "inputs": [],
      "name": "factory",
      "outputs": [
        {
          "internalType": "address",
          "name": "",
          "type": "address"
        }
      ],
      "stateMutability": "view",
      "type": "function"
    },
    {
      "inputs": [
        {
          "internalType": "address",
          "name": "_accessManager",
          "type": "address"
        },
        {
          "internalType": "address",
          "name": "_factory",
          "type": "address"
        }
      ],
      "name": "initialize",
      "outputs": [],
      "stateMutability": "nonpayable",
      "type": "function"
    }
  ],
  "bytecode": "0x608060405234801561001057600080fd5b50610463806100206000396000f3fe608060405234801561001057600080fd5b50600436106100415760003560e01c8063485cc95514610046578063c45a01551461005b578063fdcb6068146100a4575b600080fd5b6100596100543660046103fa565b6100ca565b005b60015461007b9073ffffffffffffffffffffffffffffffffffffffff1681565b60405173ffffffffffffffffffffffffffffffffffffffff909116815260200160405180910390f35b60005461007b9062010000900473ffffffffffffffffffffffffffffffffffffffff1681565b600054610100900460ff16158080156100ea5750600054600160ff909116105b806101045750303b158015610104575060005460ff166001145b610195576040517f08c379a000000000000000000000000000000000000000000000000000000000815260206004820152602e60248201527f496e697469616c697a61626c653a20636f6e747261637420697320616c72656160448201527f647920696e697469616c697a656400000000000000000000000000000000000060648201526084015b60405180910390fd5b600080547fffffffffffffffffffffffffffffffffffffffffffffffffffffffffffffff0016600117905580156101f357600080547fffffffffffffffffffffffffffffffffffffffffffffffffffffffffffff00ff166101001790555b73ffffffffffffffffffffffffffffffffffffffff8316610270576040517f08c379a000000000000000000000000000000000000000000000000000000000815260206004820152601260248201527f4241445f4143434553535f4d414e414745520000000000000000000000000000604482015260640161018c565b73ffffffffffffffffffffffffffffffffffffffff82166102ed576040517f08c379a000000000000000000000000000000000000000000000000000000000815260206004820152601060248201527f4241445f4641524d5f464143544f525900000000000000000000000000000000604482015260640161018c565b600080547fffffffffffffffffffff0000000000000000000000000000000000000000ffff166201000073ffffffffffffffffffffffffffffffffffffffff8681169190910291909117909155600180547fffffffffffffffffffffffff00000000000000000000000000000000000000001691841691909117905580156103cc57600080547fffffffffffffffffffffffffffffffffffffffffffffffffffffffffffff00ff169055604051600181527f7f26b83ff96e1f2b6a682f133852f6798a09c465da95921460cefb38474024989060200160405180910390a15b505050565b803573ffffffffffffffffffffffffffffffffffffffff811681146103f557600080fd5b919050565b6000806040838503121561040d57600080fd5b610416836103d1565b9150610424602084016103d1565b9050925092905056fea2646970667358221220c605af5cfa528854efa3482bf3d8de9ea82118aab2000b4e0a07612eea95a2f964736f6c63430008130033",
  "immutableReferences": {},
  "source": "// SPDX-License-Identifier: MIT\r\npragma solidity 0.8.19;\r\nimport '@openzeppelin/contracts-upgradeable/proxy/utils/Initializable.sol';\r\n\r\ncontract AssetRouter is Initializable {\r\n    address public accessManager;\r\n    address public factory;\r\n\r\n    function initialize(address _accessManager, address _factory) external initializer {\r\n        require (_accessManager != address(0), 'BAD_ACCESS_MANAGER');\r\n        require (_factory != address(0), 'BAD_FARM_FACTORY');\r\n\r\n        accessManager = _accessManager;\r\n        factory = _factory;\r\n    }\r\n}\r\n",
  "sourcePath": "C:\\Users\\jugli\\Desktop\\uno\\uno-contracts\\contracts\\test\\assetRouter.sol",
  "compiler": {
    "name": "solc",
    "version": "0.8.19+commit.7dd6d404.Emscripten.clang"
  },
  "schemaVersion": "3.4.16",
  "updatedAt": "2023-09-29T14:59:48.591Z",
  "devdoc": {
    "events": {
      "Initialized(uint8)": {
        "details": "Triggered when the contract has been initialized or reinitialized."
      }
    },
    "kind": "dev",
    "methods": {},
    "version": 1
  },
  "userdoc": {
    "kind": "user",
    "methods": {},
    "version": 1
  }
}