{
  "contractName": "BalancerFarmUpgradeable",
  "abi": [
    {
      "anonymous": false,
      "inputs": [
        {
          "indexed": false,
          "internalType": "address",
          "name": "previousAdmin",
          "type": "address"
        },
        {
          "indexed": false,
          "internalType": "address",
          "name": "newAdmin",
          "type": "address"
        }
      ],
      "name": "AdminChanged",
      "type": "event"
    },
    {
      "anonymous": false,
      "inputs": [
        {
          "indexed": true,
          "internalType": "address",
          "name": "beacon",
          "type": "address"
        }
      ],
      "name": "BeaconUpgraded",
      "type": "event"
    },
    {
      "anonymous": false,
      "inputs": [
        {
          "indexed": true,
          "internalType": "address",
          "name": "implementation",
          "type": "address"
        }
      ],
      "name": "Upgraded",
      "type": "event"
    },
    {
      "inputs": [],
      "name": "lpPair",
      "outputs": [
        {
          "internalType": "address",
          "name": "",
          "type": "address"
        }
      ],
      "stateMutability": "view",
      "type": "function"
    },
    {
      "inputs": [],
      "name": "owner",
      "outputs": [
        {
          "internalType": "address",
          "name": "",
          "type": "address"
        }
      ],
      "stateMutability": "view",
      "type": "function"
    },
    {
      "inputs": [],
      "name": "poolId",
      "outputs": [
        {
          "internalType": "bytes32",
          "name": "",
          "type": "bytes32"
        }
      ],
      "stateMutability": "view",
      "type": "function"
    },
    {
      "inputs": [
        {
          "internalType": "address",
          "name": "newImplementation",
          "type": "address"
        }
      ],
      "name": "upgradeTo",
      "outputs": [],
      "stateMutability": "nonpayable",
      "type": "function"
    },
    {
      "inputs": [
        {
          "internalType": "address",
          "name": "newImplementation",
          "type": "address"
        },
        {
          "internalType": "bytes",
          "name": "data",
          "type": "bytes"
        }
      ],
      "name": "upgradeToAndCall",
      "outputs": [],
      "stateMutability": "payable",
      "type": "function"
    },
    {
      "inputs": [
        {
          "internalType": "address",
          "name": "_lpPair",
          "type": "address"
        }
      ],
      "name": "initialize",
      "outputs": [],
      "stateMutability": "nonpayable",
      "type": "function"
    },
    {
      "inputs": [
        {
          "internalType": "uint256[]",
          "name": "amounts",
          "type": "uint256[]"
        },
        {
          "internalType": "address[]",
          "name": "tokens",
          "type": "address[]"
        },
        {
          "internalType": "uint256",
          "name": "amountLP",
          "type": "uint256"
        },
        {
          "internalType": "address",
          "name": "recipient",
          "type": "address"
        }
      ],
      "name": "deposit",
      "outputs": [
        {
          "internalType": "uint256",
          "name": "liquidity",
          "type": "uint256"
        }
      ],
      "stateMutability": "nonpayable",
      "type": "function"
    },
    {
      "inputs": [
        {
          "internalType": "address",
          "name": "origin",
          "type": "address"
        },
        {
          "internalType": "uint256",
          "name": "amount",
          "type": "uint256"
        },
        {
          "internalType": "bool",
          "name": "withdrawLP",
          "type": "bool"
        },
        {
          "internalType": "address",
          "name": "recipient",
          "type": "address"
        }
      ],
      "name": "withdraw",
      "outputs": [],
      "stateMutability": "nonpayable",
      "type": "function"
    },
    {
      "inputs": [
        {
          "components": [
            {
              "internalType": "uint256",
              "name": "distributionId",
              "type": "uint256"
            },
            {
              "internalType": "uint256",
              "name": "balance",
              "type": "uint256"
            },
            {
              "internalType": "address",
              "name": "distributor",
              "type": "address"
            },
            {
              "internalType": "uint256",
              "name": "tokenIndex",
              "type": "uint256"
            },
            {
              "internalType": "bytes32[]",
              "name": "merkleProof",
              "type": "bytes32[]"
            }
          ],
          "internalType": "struct MerkleOrchard.Claim[]",
          "name": "claims",
          "type": "tuple[]"
        },
        {
          "internalType": "contract IERC20[]",
          "name": "rewardTokens",
          "type": "address[]"
        },
        {
          "components": [
            {
              "internalType": "bytes32",
              "name": "poolId",
              "type": "bytes32"
            },
            {
              "internalType": "uint256",
              "name": "assetInIndex",
              "type": "uint256"
            },
            {
              "internalType": "uint256",
              "name": "assetOutIndex",
              "type": "uint256"
            },
            {
              "internalType": "uint256",
              "name": "amount",
              "type": "uint256"
            },
            {
              "internalType": "bytes",
              "name": "userData",
              "type": "bytes"
            }
          ],
          "internalType": "struct IVault.BatchSwapStep[][]",
          "name": "swaps",
          "type": "tuple[][]"
        },
        {
          "internalType": "contract IAsset[][]",
          "name": "assets",
          "type": "address[][]"
        },
        {
          "components": [
            {
              "internalType": "address",
              "name": "sender",
              "type": "address"
            },
            {
              "internalType": "bool",
              "name": "fromInternalBalance",
              "type": "bool"
            },
            {
              "internalType": "address payable",
              "name": "recipient",
              "type": "address"
            },
            {
              "internalType": "bool",
              "name": "toInternalBalance",
              "type": "bool"
            }
          ],
          "internalType": "struct IVault.FundManagement[]",
          "name": "funds",
          "type": "tuple[]"
        },
        {
          "internalType": "int256[][]",
          "name": "limits",
          "type": "int256[][]"
        }
      ],
      "name": "distribute",
      "outputs": [],
      "stateMutability": "nonpayable",
      "type": "function"
    },
    {
      "inputs": [
        {
          "internalType": "address",
          "name": "_address",
          "type": "address"
        }
      ],
      "name": "userBalance",
      "outputs": [
        {
          "internalType": "uint256",
          "name": "",
          "type": "uint256"
        }
      ],
      "stateMutability": "view",
      "type": "function"
    },
    {
      "inputs": [],
      "name": "getTotalDeposits",
      "outputs": [
        {
          "internalType": "uint256",
          "name": "",
          "type": "uint256"
        }
      ],
      "stateMutability": "view",
      "type": "function"
    }
  ],
  "bytecode": "0x60a06040523060805234801561001457600080fd5b506001606555608051612d3261004a60003960008181610a5601528181610a9601528181610dcb0152610e0b0152612d326000f3fe60806040526004361061008c5760003560e01c80630103c92b14610091578063147b9348146100c4578063168a4822146100e65780633659cfe6146100fb5780633e0dc34e1461011b578063430004c114610131578063452ed4f1146101515780634f1ef2861461017e5780638da5cb5b14610191578063c4d66de8146101a6578063e00d2e6e146101c6575b600080fd5b34801561009d57600080fd5b506100b16100ac366004611b27565b6101e6565b6040519081526020015b60405180910390f35b3480156100d057600080fd5b506100e46100df366004612207565b610271565b005b3480156100f257600080fd5b506100b1610a15565b34801561010757600080fd5b506100e4610116366004611b27565b610a4b565b34801561012757600080fd5b506100b160675481565b34801561013d57600080fd5b506100e461014c3660046122fb565b610b14565b34801561015d57600080fd5b50606654610171906001600160a01b031681565b6040516100bb919061234e565b6100e461018c366004612362565b610dc0565b34801561019d57600080fd5b50610171610e7a565b3480156101b257600080fd5b506100e46101c1366004611b27565b610e89565b3480156101d257600080fd5b506100b16101e1366004612415565b611005565b6001600160a01b0381166000908152606b6020526040812054606954829161024491670de0b6b3a76400009161023e9161021f91611464565b6001600160a01b0387166000908152606a602052604090205490611470565b9061147c565b6001600160a01b0384166000908152606a602052604090205490915061026a9082611488565b9392505050565b3361027a610e7a565b6001600160a01b03161461028d57600080fd5b600260655414156102b95760405162461bcd60e51b81526004016102b0906124e7565b60405180910390fd5b600260655560685461031d5760405162461bcd60e51b815260206004820152602760248201527f54686572652073686f756c6420626520736f6d6520746f6b656e7320696e20746044820152661a19481c1bdbdb60ca1b60648201526084016102b0565b60405162ad8c0560e61b8152730f3e0c4218b7b0108a3643cfe9d3ec0d4f57c54e90632b630140906103579030908a908a90600401612562565b600060405180830381600087803b15801561037157600080fd5b505af1158015610385573d6000803e3d6000fd5b5050505060005b83518110156106955760005b8482815181106103aa576103aa612648565b60200260200101515181101561045c5760665485516001600160a01b03909116908690849081106103dd576103dd612648565b602002602001015182815181106103f6576103f6612648565b60200260200101516001600160a01b0316141561044a5760405162461bcd60e51b815260206004820152601260248201527121b0b73a1039bbb0b8102628103a37b5b2b760711b60448201526064016102b0565b8061045481612674565b915050610398565b50600084828151811061047157610471612648565b602002602001015160008151811061048b5761048b612648565b602002602001015190506000816001600160a01b03166370a08231306040518263ffffffff1660e01b81526004016104c3919061234e565b602060405180830381865afa1580156104e0573d6000803e3d6000fd5b505050506040513d601f19601f82011682018060405250810190610504919061268f565b905080156106805760405163095ea7b360e01b81526001600160a01b0383169063095ea7b39061054890600080516020612cdd8339815191529085906004016126a8565b6020604051808303816000875af1158015610567573d6000803e3d6000fd5b505050506040513d601f19601f8201168201806040525081019061058b91906126c1565b50600080516020612cdd8339815191526001600160a01b031663945bcec960008986815181106105bd576105bd612648565b60200260200101518987815181106105d7576105d7612648565b60200260200101518988815181106105f1576105f1612648565b602002602001015189898151811061060b5761060b612648565b60200260200101516000196040518763ffffffff1660e01b81526004016106379695949392919061276a565b6000604051808303816000875af1158015610656573d6000803e3d6000fd5b505050506040513d6000823e601f3d908101601f1916820160405261067e919081019061289a565b505b5050808061068d90612674565b91505061038c565b5060008060006106a3611494565b92509250925060005b835181101561081d578381815181106106c7576106c7612648565b60200260200101516001600160a01b03166370a08231306040518263ffffffff1660e01b81526004016106fa919061234e565b602060405180830381865afa158015610717573d6000803e3d6000fd5b505050506040513d601f19601f8201168201806040525081019061073b919061268f565b82828151811061074d5761074d612648565b60200260200101818152505083818151811061076b5761076b612648565b60200260200101516001600160a01b031663095ea7b3600080516020612cdd8339815191528484815181106107a2576107a2612648565b60200260200101516040518363ffffffff1660e01b81526004016107c79291906126a8565b6020604051808303816000875af11580156107e6573d6000803e3d6000fd5b505050506040513d601f19601f8201168201806040525081019061080a91906126c1565b508061081581612674565b9150506106ac565b506066546040516370a0823160e01b81526000916001600160a01b0316906370a082319061084f90309060040161234e565b602060405180830381865afa15801561086c573d6000803e3d6000fd5b505050506040513d601f19601f82011682018060405250810190610890919061268f565b9050600080516020612cdd8339815191526001600160a01b031663b95cac286067543030604051806080016040528089815260200188815260200160018960016040516020016108e29392919061292a565b6040516020818303038152906040528152602001600015158152506040518563ffffffff1660e01b815260040161091c94939291906129ba565b600060405180830381600087803b15801561093657600080fd5b505af115801561094a573d6000803e3d6000fd5b50506066546040516370a0823160e01b8152600093506001600160a01b0390911691506370a082319061098190309060040161234e565b602060405180830381865afa15801561099e573d6000803e3d6000fd5b505050506040513d601f19601f820116820180604052508101906109c2919061268f565b905060006109d08284611464565b90506109ff6109f660685461023e84670de0b6b3a764000061147090919063ffffffff16565b60695490611488565b6069555050600160655550505050505050505050565b6000610a46610a3d670de0b6b3a764000061023e60695460685461147090919063ffffffff16565b60685490611488565b905090565b306001600160a01b037f0000000000000000000000000000000000000000000000000000000000000000161415610a945760405162461bcd60e51b81526004016102b0906129ec565b7f00000000000000000000000000000000000000000000000000000000000000006001600160a01b0316610ac661160d565b6001600160a01b031614610aec5760405162461bcd60e51b81526004016102b090612a26565b610af581611629565b60408051600080825260208201909252610b1191839190611645565b50565b33610b1d610e7a565b6001600160a01b031614610b3057600080fd5b60026065541415610b535760405162461bcd60e51b81526004016102b0906124e7565b60026065556001600160a01b0384166000908152606a6020526040902054610bcd5760405162461bcd60e51b815260206004820152602760248201527f54686520616d6f756e74207374616b65642073686f756c64206265206d6f72656044820152660207468616e20360cc1b60648201526084016102b0565b6000610be284610bdc876101e6565b90611464565b6001600160a01b0386166000908152606a6020526040902054606854919250610c17918391610c119190611464565b90611488565b6068556001600160a01b0385166000908152606a602052604090208190558015610c58576069546001600160a01b0386166000908152606b60205260409020555b8215610cda5760665460405163a9059cbb60e01b81526001600160a01b039091169063a9059cbb90610c9090859088906004016126a8565b6020604051808303816000875af1158015610caf573d6000803e3d6000fd5b505050506040513d601f19601f82011682018060405250810190610cd391906126c1565b5050610db5565b600080610ce5611494565b9250925050600080516020612cdd8339815191526001600160a01b0316638bdb39136067543087604051806080016040528088815260200187815260200160018d604051602001610d4592919060ff929092168252602082015260400190565b6040516020818303038152906040528152602001600015158152506040518563ffffffff1660e01b8152600401610d7f94939291906129ba565b600060405180830381600087803b158015610d9957600080fd5b505af1158015610dad573d6000803e3d6000fd5b505050505050505b505060016065555050565b306001600160a01b037f0000000000000000000000000000000000000000000000000000000000000000161415610e095760405162461bcd60e51b81526004016102b0906129ec565b7f00000000000000000000000000000000000000000000000000000000000000006001600160a01b0316610e3b61160d565b6001600160a01b031614610e615760405162461bcd60e51b81526004016102b090612a26565b610e6a82611629565b610e7682826001611645565b5050565b6033546001600160a01b031690565b600054610100900460ff16610ea45760005460ff1615610ea8565b303b155b610ec45760405162461bcd60e51b81526004016102b090612a60565b600054610100900460ff16158015610ee6576000805461ffff19166101011790555b610eee61178c565b606680546001600160a01b0319166001600160a01b0384169081179091556040805163038fff2d60e41b815290516338fff2d0916004808201926020929091908290030181865afa158015610f47573d6000803e3d6000fd5b505050506040513d601f19601f82011682018060405250810190610f6b919061268f565b60675560405163095ea7b360e01b81526001600160a01b0383169063095ea7b390610fac90600080516020612cdd83398151915290600019906004016126a8565b6020604051808303816000875af1158015610fcb573d6000803e3d6000fd5b505050506040513d601f19601f82011682018060405250810190610fef91906126c1565b508015610e76576000805461ff00191690555050565b600033611010610e7a565b6001600160a01b03161461102357600080fd5b600260655414156110465760405162461bcd60e51b81526004016102b0906124e7565b6002606555600080611056611494565b50915091506000805b83518110156111f75783818151811061107a5761107a612648565b60200260200101516001600160a01b031688828151811061109d5761109d612648565b60200260200101516001600160a01b0316146111065760405162461bcd60e51b815260206004820152602260248201527f546f6b656e7320646f6e2774206d6174636820676574506f6f6c546f6b656e73604482015261282960f01b60648201526084016102b0565b600089828151811061111a5761111a612648565b602002602001015111156111e5578161113257600191505b83818151811061114457611144612648565b60200260200101516001600160a01b031663095ea7b3600080516020612cdd8339815191528b848151811061117b5761117b612648565b60200260200101516040518363ffffffff1660e01b81526004016111a09291906126a8565b6020604051808303816000875af11580156111bf573d6000803e3d6000fd5b505050506040513d601f19601f820116820180604052508101906111e391906126c1565b505b806111ef81612674565b91505061105f565b506066546040516370a0823160e01b81526000916001600160a01b0316906370a082319061122990309060040161234e565b602060405180830381865afa158015611246573d6000803e3d6000fd5b505050506040513d601f19601f8201168201806040525081019061126a919061268f565b9050811561133557600060405180608001604052808581526020018b815260200160018c60006040516020016112a29392919061292a565b6040516020818303038152906040528152602001600015158152509050600080516020612cdd8339815191526001600160a01b031663b95cac286067543030856040518563ffffffff1660e01b815260040161130194939291906129ba565b600060405180830381600087803b15801561131b57600080fd5b505af115801561132f573d6000803e3d6000fd5b50505050505b6066546040516370a0823160e01b81526000916001600160a01b0316906370a082319061136690309060040161234e565b602060405180830381865afa158015611383573d6000803e3d6000fd5b505050506040513d601f19601f820116820180604052508101906113a7919061268f565b90506113b788610c118385611464565b9550600086116114045760405162461bcd60e51b8152602060048201526018602482015277054686520616d6f756e742070726f766964656420697320360441b60448201526064016102b0565b5050611419611412866101e6565b8590611488565b6001600160a01b0386166000908152606a6020908152604080832093909355606954606b909152919020556068546114519085611488565b6068555050600160655550949350505050565b600061026a8284612aae565b600061026a8284612ac5565b600061026a8284612ae4565b600061026a8284612b06565b606754604051631f29a8cd60e31b815260609182918291600080516020612cdd8339815191529163f94d4668916114d19160040190815260200190565b600060405180830381865afa1580156114ee573d6000803e3d6000fd5b505050506040513d6000823e601f3d908101601f191682016040526115169190810190612b79565b505080519093506001600160401b0381111561153457611534611b44565b60405190808252806020026020018201604052801561155d578160200160208202803683370190505b50915082516001600160401b0381111561157957611579611b44565b6040519080825280602002602001820160405280156115a2578160200160208202803683370190505b50905060005b8351811015611607578381815181106115c3576115c3612648565b60200260200101518382815181106115dd576115dd612648565b6001600160a01b0390921660209283029190910190910152806115ff81612674565b9150506115a8565b50909192565b600080516020612c96833981519152546001600160a01b031690565b33611632610e7a565b6001600160a01b031614610b1157600080fd5b600061164f61160d565b905061165a8461180d565b6000835111806116675750815b156116785761167684846118a0565b505b7f4910fdfa16fed3260ed0e7147f7cc6da11a60208b5b9406d12a635614ffd9143805460ff1661178557805460ff191660011781556040516116f39086906116c490859060240161234e565b60408051601f198184030181529190526020810180516001600160e01b0316631b2ce7f360e11b1790526118a0565b50805460ff1916815561170461160d565b6001600160a01b0316826001600160a01b03161461177c5760405162461bcd60e51b815260206004820152602f60248201527f45524331393637557067726164653a207570677261646520627265616b73206660448201526e75727468657220757067726164657360881b60648201526084016102b0565b611785856118c5565b5050505050565b600054610100900460ff166117a75760005460ff16156117ab565b303b155b6117c75760405162461bcd60e51b81526004016102b090612a60565b600054610100900460ff161580156117e9576000805461ffff19166101011790555b6117f1611905565b6117f9611972565b8015610b11576000805461ff001916905550565b803b6118715760405162461bcd60e51b815260206004820152602d60248201527f455243313936373a206e657720696d706c656d656e746174696f6e206973206e60448201526c1bdd08184818dbdb9d1c9858dd609a1b60648201526084016102b0565b600080516020612c9683398151915280546001600160a01b0319166001600160a01b0392909216919091179055565b606061026a8383604051806060016040528060278152602001612cb6602791396119f5565b6118ce8161180d565b6040516001600160a01b038216907fbc7cd75a20ee27fd9adebab32041f755214dbc6bffa90cc0225b39da2e5c2d3b90600090a250565b600054610100900460ff166119705760405162461bcd60e51b815260206004820152602b60248201527f496e697469616c697a61626c653a20636f6e7472616374206973206e6f74206960448201526a6e697469616c697a696e6760a81b60648201526084016102b0565b565b600054610100900460ff1661198d5760005460ff1615611991565b303b155b6119ad5760405162461bcd60e51b81526004016102b090612a60565b600054610100900460ff161580156119cf576000805461ffff19166101011790555b603380546001600160a01b031916331790558015610b11576000805461ff001916905550565b6060833b611a545760405162461bcd60e51b815260206004820152602660248201527f416464726573733a2064656c65676174652063616c6c20746f206e6f6e2d636f6044820152651b9d1c9858dd60d21b60648201526084016102b0565b600080856001600160a01b031685604051611a6f9190612c46565b600060405180830381855af49150503d8060008114611aaa576040519150601f19603f3d011682016040523d82523d6000602084013e611aaf565b606091505b5091509150611abf828286611ac9565b9695505050505050565b60608315611ad857508161026a565b825115611ae85782518084602001fd5b8160405162461bcd60e51b81526004016102b09190612c62565b6001600160a01b0381168114610b1157600080fd5b8035611b2281611b02565b919050565b600060208284031215611b3957600080fd5b813561026a81611b02565b634e487b7160e01b600052604160045260246000fd5b60405160a081016001600160401b0381118282101715611b7c57611b7c611b44565b60405290565b604051608081016001600160401b0381118282101715611b7c57611b7c611b44565b604051601f8201601f191681016001600160401b0381118282101715611bcc57611bcc611b44565b604052919050565b60006001600160401b03821115611bed57611bed611b44565b5060051b60200190565b600082601f830112611c0857600080fd5b81356020611c1d611c1883611bd4565b611ba4565b828152600592831b8501820192828201919087851115611c3c57600080fd5b8387015b85811015611d3f5780356001600160401b0380821115611c605760008081fd5b9089019060a0828c03601f1901811315611c7a5760008081fd5b611c82611b5a565b8884013581526040808501358a830152606080860135611ca181611b02565b8383015260808681013582850152938601359385851115611cc457600091508182fd5b84870196508f603f880112611cdb57600095508586fd5b8b8701359550611ced611c1887611bd4565b86815295891b87018301958c8101955091508f861115611d0d5760008081fd5b958201955b85871015611d2b5786358552958b0195938b0193611d12565b830152508752505050928401928401611c40565b5090979650505050505050565b600082601f830112611d5d57600080fd5b81356020611d6d611c1883611bd4565b82815260059290921b84018101918181019086841115611d8c57600080fd5b8286015b84811015611db0578035611da381611b02565b8352918301918301611d90565b509695505050505050565b600082601f830112611dcc57600080fd5b81356001600160401b03811115611de557611de5611b44565b611df8601f8201601f1916602001611ba4565b818152846020838601011115611e0d57600080fd5b816020850160208301376000918101602001919091529392505050565b600082601f830112611e3b57600080fd5b611e48611c188335611bd4565b82358082526020808301929160051b850101851015611e6657600080fd5b602084015b6020853560051b860101811015611f87576001600160401b038135811015611e9257600080fd5b8135860187603f820112611ea557600080fd5b611eb5611c186020830135611bd4565b602082810135808352908201919060051b83016040018a811115611ed857600080fd5b604084015b81811015611f70578581351115611ef357600080fd5b8035850160a0818e03603f19011215611f0b57600080fd5b611f13611b5a565b60408201358152606082013560208201526080820135604082015260a082013560608201528760c08301351115611f4957600080fd5b611f5c8e604060c0850135850101611dbb565b608082015285525060209384019301611edd565b505086525050602093840193919091019050611e6b565b50949350505050565b600082601f830112611fa157600080fd5b81356020611fb1611c1883611bd4565b828152600592831b8501820192828201919087851115611fd057600080fd5b8387015b85811015611d3f5780356001600160401b03811115611ff35760008081fd5b8801603f81018a136120055760008081fd5b858101356040612017611c1883611bd4565b82815291851b8301810191888101908d8411156120345760008081fd5b938201935b8385101561205e578435925061204e83611b02565b8282529389019390890190612039565b885250505093850193508401611fd4565b8015158114610b1157600080fd5b600082601f83011261208e57600080fd5b8135602061209e611c1883611bd4565b82815260079290921b840181019181810190868411156120bd57600080fd5b8286015b84811015611db057608081890312156120da5760008081fd5b6120e2611b82565b81356120ed81611b02565b8152818501356120fc8161206f565b8186015260408281013561210f81611b02565b908201526060828101356121228161206f565b908201528352918301916080016120c1565b600082601f83011261214557600080fd5b81356020612155611c1883611bd4565b828152600592831b850182019282820191908785111561217457600080fd5b8387015b85811015611d3f5780356001600160401b038111156121975760008081fd5b8801603f81018a136121a95760008081fd5b8581013560406121bb611c1883611bd4565b82815291851b8301810191888101908d8411156121d85760008081fd5b938201935b838510156121f6578435825293890193908901906121dd565b885250505093850193508401612178565b60008060008060008060c0878903121561222057600080fd5b86356001600160401b038082111561223757600080fd5b6122438a838b01611bf7565b9750602089013591508082111561225957600080fd5b6122658a838b01611d4c565b9650604089013591508082111561227b57600080fd5b6122878a838b01611e2a565b9550606089013591508082111561229d57600080fd5b6122a98a838b01611f90565b945060808901359150808211156122bf57600080fd5b6122cb8a838b0161207d565b935060a08901359150808211156122e157600080fd5b506122ee89828a01612134565b9150509295509295509295565b6000806000806080858703121561231157600080fd5b843561231c81611b02565b93506020850135925060408501356123338161206f565b9150606085013561234381611b02565b939692955090935050565b6001600160a01b0391909116815260200190565b6000806040838503121561237557600080fd5b823561238081611b02565b915060208301356001600160401b0381111561239b57600080fd5b6123a785828601611dbb565b9150509250929050565b600082601f8301126123c257600080fd5b813560206123d2611c1883611bd4565b82815260059290921b840181019181810190868411156123f157600080fd5b8286015b84811015611db057803561240881611b02565b83529183019183016123f5565b6000806000806080858703121561242b57600080fd5b84356001600160401b038082111561244257600080fd5b818701915087601f83011261245657600080fd5b81356020612466611c1883611bd4565b82815260059290921b8401810191818101908b84111561248557600080fd5b948201945b838610156124a35785358252948201949082019061248a565b985050880135925050808211156124b957600080fd5b506124c6878288016123b1565b935050604085013591506124dc60608601611b17565b905092959194509250565b6020808252601f908201527f5265656e7472616e637947756172643a207265656e7472616e742063616c6c00604082015260600190565b600081518084526020808501945080840160005b838110156125575781516001600160a01b031687529582019590820190600101612532565b509495945050505050565b6001600160a01b038481168252606060208084018290528551848301819052600093608092909183870190600581901b880185018a840188805b84811015612623578b8403607f1901865282518051855287810151888601526040808201518a16908601528a8101518b86015289015160a08a860181905281519086018190529088019060c086019084905b8082101561260e5783518352928a0192918a0191600191909101906125ee565b5050968801969450509186019160010161259c565b50505088810360408a0152612638818b61251e565b9c9b505050505050505050505050565b634e487b7160e01b600052603260045260246000fd5b634e487b7160e01b600052601160045260246000fd5b60006000198214156126885761268861265e565b5060010190565b6000602082840312156126a157600080fd5b5051919050565b6001600160a01b03929092168252602082015260400190565b6000602082840312156126d357600080fd5b815161026a8161206f565b60005b838110156126f95781810151838201526020016126e1565b83811115612708576000848401525b50505050565b600081518084526127268160208601602086016126de565b601f01601f19169290920160200192915050565b600081518084526020808501945080840160005b838110156125575781518752958201959082019060010161274e565b600061012080830160028a1061279057634e487b7160e01b600052602160045260246000fd5b89845260208085019290925288519081905261014080850192600583901b8601909101918a820160005b8281101561281d5787850361013f190186528151805186528481015185870152604080820151908701526060808201519087015260809081015160a0918701829052906128098188018361270e565b9786019796505050908301906001016127ba565b505050508381036040850152612833818961251e565b915050612873606084018780516001600160a01b039081168352602080830151151590840152604080830151909116908301526060908101511515910152565b82810360e0840152612885818661273a565b91505082610100830152979650505050505050565b600060208083850312156128ad57600080fd5b82516001600160401b038111156128c357600080fd5b8301601f810185136128d457600080fd5b80516128e2611c1882611bd4565b81815260059190911b8201830190838101908783111561290157600080fd5b928401925b8284101561291f57835182529284019290840190612906565b979650505050505050565b60ff84168152606060208201526000612946606083018561273a565b905060ff83166040830152949350505050565b600081516080845261296e608085018261251e565b905060208301518482036020860152612987828261273a565b915050604083015184820360408601526129a1828261270e565b9150506060830151151560608501528091505092915050565b8481526001600160a01b03848116602083015283166040820152608060608201819052600090611abf90830184612959565b6020808252602c90820152600080516020612c7683398151915260408201526b19195b1959d85d1958d85b1b60a21b606082015260800190565b6020808252602c90820152600080516020612c7683398151915260408201526b6163746976652070726f787960a01b606082015260800190565b6020808252602e908201527f496e697469616c697a61626c653a20636f6e747261637420697320616c72656160408201526d191e481a5b9a5d1a585b1a5e995960921b606082015260800190565b600082821015612ac057612ac061265e565b500390565b6000816000190483118215151615612adf57612adf61265e565b500290565b600082612b0157634e487b7160e01b600052601260045260246000fd5b500490565b60008219821115612b1957612b1961265e565b500190565b600082601f830112612b2f57600080fd5b81516020612b3f611c1883611bd4565b82815260059290921b84018101918181019086841115612b5e57600080fd5b8286015b84811015611db05780518352918301918301612b62565b600080600060608486031215612b8e57600080fd5b83516001600160401b0380821115612ba557600080fd5b818601915086601f830112612bb957600080fd5b81516020612bc9611c1883611bd4565b82815260059290921b8401810191818101908a841115612be857600080fd5b948201945b83861015612c0f578551612c0081611b02565b82529482019490820190612bed565b91890151919750909350505080821115612c2857600080fd5b50612c3586828701612b1e565b925050604084015190509250925092565b60008251612c588184602087016126de565b9190910192915050565b60208152600061026a602083018461270e56fe46756e6374696f6e206d7573742062652063616c6c6564207468726f75676820360894a13ba1a3210667c828492db98dca3e2076cc3735a920a3ca505d382bbc416464726573733a206c6f772d6c6576656c2064656c65676174652063616c6c206661696c6564000000000000000000000000ba12222222228d8ba445958a75a0704d566bf2c8a2646970667358221220a3c892aed752eeaff707dcfd1f8b1413330b1a29b8d36c0cdfa27640a8ea0f6a64736f6c634300080a0033",
  "immutableReferences": {
    "1581": [
      {
        "length": 32,
        "start": 2646
      },
      {
        "length": 32,
        "start": 2710
      },
      {
        "length": 32,
        "start": 3531
      },
      {
        "length": 32,
        "start": 3595
      }
    ]
  },
  "source": "// SPDX-License-Identifier: MIT\r\npragma solidity 0.8.10;\r\n\r\nimport \"../interfaces/IVault.sol\";\r\nimport \"../interfaces/MerkleOrchard.sol\"; \r\nimport \"../interfaces/IBasePool.sol\";\r\nimport \"@openzeppelin/contracts/utils/math/SafeMath.sol\";\r\nimport \"../utils/OwnableUpgradeableNoTransfer.sol\";\r\nimport \"@openzeppelin/contracts/proxy/utils/UUPSUpgradeable.sol\";\r\nimport \"@openzeppelin/contracts/security/ReentrancyGuard.sol\";\r\n\r\ncontract BalancerFarmUpgradeable is UUPSUpgradeable, Initializable, OwnableUpgradeableNoTransfer, ReentrancyGuard {\r\n    using SafeMath for uint256; \r\n\r\n    /**\r\n     * @dev Third Party Contracts:\r\n     * {Vault} - the main Balancer contract used for pool exits/joins and swaps.\r\n     * {merkleOrchard} - The contract that distributes reward tokens.\r\n     */   \r\n    IVault constant private Vault = IVault(0xBA12222222228d8Ba445958a75a0704d566BF2C8);\r\n    MerkleOrchard constant private merkleOrchard = MerkleOrchard(0x0F3e0c4218b7b0108a3643cFe9D3ec0d4F57c54e);\r\n\r\n    /**\r\n     * @dev Contract Variables:\r\n     * {lpPair} - The pair and the pool.\r\n     * {poolId} - Bytes32 representation of the {lpPair}.\r\n     * \r\n     * The implementation of Scalable Reward Distribution on the Ethereum Blockchain paper by B. Batog, L. Boca and N. Johnson.\r\n     * {totalDeposits} - The sum of all active stake deposits | (T).\r\n     * {sumOfRewards} - The sum of (rewards)/(totalDeposits) | (S).\r\n     * {stakes} - All stakes made by users | (stake).\r\n     * {sumOfRewardsForUser} - A sumOfRewards for users at pool join time | (S0).\r\n     */\r\n    address public lpPair;\r\n    bytes32 public poolId;\r\n     \r\n    uint256 private totalDeposits;\r\n    uint256 private sumOfRewards;\r\n    mapping(address => uint256) private stakes;\r\n    mapping(address => uint256) private sumOfRewardsForUser;\r\n\r\n    // ============ Methods ============\r\n\r\n    function initialize(address _lpPair) external initializer {\r\n        __Ownable_init();\r\n        \r\n        lpPair = _lpPair;\r\n        poolId = IBasePool(_lpPair).getPoolId();\r\n        IERC20(_lpPair).approve(address(Vault), uint256(2**256 - 1));\r\n    }\r\n\r\n   /**\r\n     * @dev Function that makes the deposits.\r\n     * Deposits the {amounts} of {tokens} from this contract's balance to the {Vault}.\r\n     */\r\n    function deposit(uint256[] memory amounts, address[] memory tokens, uint256 amountLP, address recipient) external onlyOwner nonReentrant returns(uint256 liquidity){\r\n        (IERC20[] memory poolTokens, IAsset[] memory assets,) = getTokens();\r\n    \r\n        bool joinPool = false;\r\n        for (uint256 i = 0; i < poolTokens.length; i++) {\r\n            require (IERC20(tokens[i]) == poolTokens[i], \"Tokens don't match getPoolTokens()\");\r\n            if(amounts[i] > 0){\r\n                if(!joinPool){\r\n                    joinPool = true;\r\n                }\r\n                poolTokens[i].approve(address(Vault), amounts[i]);\r\n            }\r\n        }\r\n\r\n        {\r\n            uint256 amountBefore = IERC20(lpPair).balanceOf(address(this));\r\n            if(joinPool){\r\n                IVault.JoinPoolRequest memory joinPoolRequest = IVault.JoinPoolRequest(assets, amounts, abi.encode(1, amounts, 0), false);\r\n                Vault.joinPool(poolId, address(this), address(this), joinPoolRequest);\r\n            }\r\n            uint256 amountAfter = IERC20(lpPair).balanceOf(address(this));\r\n\r\n            liquidity = amountAfter.sub(amountBefore).add(amountLP); \r\n            require(liquidity > 0, 'The amount provided is 0');\r\n        }\r\n        \r\n        stakes[recipient] = liquidity.add(userBalance(recipient));\r\n        sumOfRewardsForUser[recipient] = sumOfRewards;\r\n        totalDeposits = totalDeposits.add(liquidity);\r\n    }\r\n\r\n    /**\r\n     * @dev Withdraws funds and sends them to the {recipient}.\r\n     */\r\n    function withdraw(address origin, uint256 amount, bool withdrawLP, address recipient) external onlyOwner nonReentrant{\r\n        require(stakes[origin] > 0, \"The amount staked should be more than 0\");\r\n        \r\n        uint256 depositAmount = userBalance(origin).sub(amount);\r\n        totalDeposits = totalDeposits.sub(stakes[origin]).add(depositAmount);\r\n        stakes[origin] = depositAmount;\r\n        if(depositAmount > 0) {\r\n            sumOfRewardsForUser[origin] = sumOfRewards;\r\n        }\r\n        \r\n        if(withdrawLP){\r\n            IERC20(lpPair).transfer(recipient, amount);\r\n            return;\r\n        }\r\n\r\n        (, IAsset[] memory assets, uint256[] memory amounts) = getTokens();\r\n        Vault.exitPool(poolId, address(this), payable(recipient), IVault.ExitPoolRequest(assets, amounts, abi.encode(1, amount), false));\r\n    }\r\n\r\n    /**\r\n     * @dev Core function of the strat, in charge of updating, collecting and re-investing rewards.\r\n     * 1. It claims rewards from the {merkleOrchard}.\r\n     * 2. It swaps the {rewardTokens} token for {assets}.\r\n     * 3. Then deposits the new tokens back to the {Vault}.\r\n     */\r\n    function distribute(\r\n        MerkleOrchard.Claim[] memory claims,\r\n        IERC20[] memory rewardTokens,\r\n        IVault.BatchSwapStep[][] memory swaps,\r\n        IAsset[][] memory assets,\r\n        IVault.FundManagement[] memory funds,\r\n        int256[][] memory limits\r\n    ) external onlyOwner nonReentrant{ \r\n        require(totalDeposits > 0, 'There should be some tokens in the pool');\r\n        merkleOrchard.claimDistributions(address(this), claims, rewardTokens);\r\n        for (uint256 i = 0; i < assets.length; i++) {\r\n            for (uint256 j = 0; j < assets[i].length; j++) {\r\n                require(address(assets[i][j]) != lpPair, 'Cant swap LP token');\r\n            }\r\n            IERC20 startingToken = IERC20(address(assets[i][0]));\r\n            uint256 balance = startingToken.balanceOf(address(this));\r\n            if (balance > 0) {\r\n                startingToken.approve(address(Vault), balance);\r\n                Vault.batchSwap(IVault.SwapKind.GIVEN_IN, swaps[i], assets[i], funds[i], limits[i], uint256(2**256 - 1));\r\n            }\r\n        }\r\n\r\n        (IERC20[] memory tokens, IAsset[] memory joinAssets, uint256[] memory joinAmounts) = getTokens();\r\n        for (uint256 i = 0; i < tokens.length; i++) {\r\n            joinAmounts[i] = tokens[i].balanceOf(address(this));\r\n            tokens[i].approve(address(Vault), joinAmounts[i]);\r\n        }\r\n        \r\n        uint256 amountBefore = IERC20(lpPair).balanceOf(address(this));\r\n        Vault.joinPool(poolId, address(this), address(this), IVault.JoinPoolRequest(joinAssets, joinAmounts, abi.encode(1, joinAmounts, 1), false));\r\n        uint256 amountAfter = IERC20(lpPair).balanceOf(address(this));\r\n\r\n        uint256 reward = amountAfter.sub(amountBefore);\r\n        sumOfRewards = sumOfRewards.add(uint256(1 ether).mul(reward).div(totalDeposits));\r\n    }\r\n\r\n    /**\r\n     * @dev Returns total funds staked by the {_address}.\r\n     */\r\n    function userBalance(address _address) public view returns (uint256){\r\n        uint256 reward = stakes[_address].mul(sumOfRewards.sub(sumOfRewardsForUser[_address])).div(uint256(1 ether));\r\n        return stakes[_address].add(reward);\r\n    }\r\n    \r\n    /**\r\n     * @dev Returns total amount locked in the pool.\r\n     */ \r\n    function getTotalDeposits() external view returns(uint256){\r\n       return totalDeposits.add(totalDeposits.mul(sumOfRewards).div(uint256(1 ether)));\r\n    }\r\n\r\n    /**\r\n     * @dev Utility function used to create IAsset array.\r\n     */ \r\n    function getTokens() internal view returns(IERC20[] memory tokens, IAsset[] memory assets, uint256[] memory amounts){\r\n        (tokens, , ) = Vault.getPoolTokens(poolId);\r\n        assets = new IAsset[](tokens.length);\r\n        amounts = new uint256[](tokens.length);\r\n        for (uint256 i = 0; i < tokens.length; i++) {\r\n            assets[i] = IAsset(address(tokens[i]));\r\n        }\r\n    }\r\n\r\n    function _authorizeUpgrade(address newImplementation) internal override onlyOwner {\r\n        \r\n    }\r\n}",
  "sourcePath": "C:\\Users\\jugli\\Desktop\\uno\\uno-contracts-branch\\contracts\\farms\\BalancerFarmUpgradeable.sol",
  "compiler": {
    "name": "solc",
    "version": "0.8.10+commit.fc410830.Emscripten.clang"
  },
  "schemaVersion": "3.4.7",
  "updatedAt": "2022-05-05T16:26:14.420Z",
  "devdoc": {
    "kind": "dev",
    "methods": {
      "deposit(uint256[],address[],uint256,address)": {
        "details": "Function that makes the deposits. Deposits the {amounts} of {tokens} from this contract's balance to the {Vault}."
      },
      "distribute((uint256,uint256,address,uint256,bytes32[])[],address[],(bytes32,uint256,uint256,uint256,bytes)[][],address[][],(address,bool,address,bool)[],int256[][])": {
        "details": "Core function of the strat, in charge of updating, collecting and re-investing rewards. 1. It claims rewards from the {merkleOrchard}. 2. It swaps the {rewardTokens} token for {assets}. 3. Then deposits the new tokens back to the {Vault}."
      },
      "getTotalDeposits()": {
        "details": "Returns total amount locked in the pool."
      },
      "owner()": {
        "details": "Returns the address of the current owner."
      },
      "upgradeTo(address)": {
        "details": "Upgrade the implementation of the proxy to `newImplementation`. Calls {_authorizeUpgrade}. Emits an {Upgraded} event."
      },
      "upgradeToAndCall(address,bytes)": {
        "details": "Upgrade the implementation of the proxy to `newImplementation`, and subsequently execute the function call encoded in `data`. Calls {_authorizeUpgrade}. Emits an {Upgraded} event."
      },
      "userBalance(address)": {
        "details": "Returns total funds staked by the {_address}."
      },
      "withdraw(address,uint256,bool,address)": {
        "details": "Withdraws funds and sends them to the {recipient}."
      }
    },
    "stateVariables": {
      "Vault": {
        "details": "Third Party Contracts: {Vault} - the main Balancer contract used for pool exits/joins and swaps. {merkleOrchard} - The contract that distributes reward tokens."
      },
      "lpPair": {
        "details": "Contract Variables: {lpPair} - The pair and the pool. {poolId} - Bytes32 representation of the {lpPair}.  The implementation of Scalable Reward Distribution on the Ethereum Blockchain paper by B. Batog, L. Boca and N. Johnson. {totalDeposits} - The sum of all active stake deposits | (T). {sumOfRewards} - The sum of (rewards)/(totalDeposits) | (S). {stakes} - All stakes made by users | (stake). {sumOfRewardsForUser} - A sumOfRewards for users at pool join time | (S0)."
      }
    },
    "version": 1
  },
  "userdoc": {
    "kind": "user",
    "methods": {},
    "version": 1
  }
}