{
  "contractName": "BalancerFarmUpgradeable",
  "abi": [
    {
      "anonymous": false,
      "inputs": [
        {
          "indexed": false,
          "internalType": "address",
          "name": "previousAdmin",
          "type": "address"
        },
        {
          "indexed": false,
          "internalType": "address",
          "name": "newAdmin",
          "type": "address"
        }
      ],
      "name": "AdminChanged",
      "type": "event"
    },
    {
      "anonymous": false,
      "inputs": [
        {
          "indexed": true,
          "internalType": "address",
          "name": "beacon",
          "type": "address"
        }
      ],
      "name": "BeaconUpgraded",
      "type": "event"
    },
    {
      "anonymous": false,
      "inputs": [
        {
          "indexed": true,
          "internalType": "address",
          "name": "previousOwner",
          "type": "address"
        },
        {
          "indexed": true,
          "internalType": "address",
          "name": "newOwner",
          "type": "address"
        }
      ],
      "name": "OwnershipTransferred",
      "type": "event"
    },
    {
      "anonymous": false,
      "inputs": [
        {
          "indexed": true,
          "internalType": "address",
          "name": "implementation",
          "type": "address"
        }
      ],
      "name": "Upgraded",
      "type": "event"
    },
    {
      "inputs": [],
      "name": "lpPair",
      "outputs": [
        {
          "internalType": "address",
          "name": "",
          "type": "address"
        }
      ],
      "stateMutability": "view",
      "type": "function"
    },
    {
      "inputs": [],
      "name": "owner",
      "outputs": [
        {
          "internalType": "address",
          "name": "",
          "type": "address"
        }
      ],
      "stateMutability": "view",
      "type": "function"
    },
    {
      "inputs": [],
      "name": "poolId",
      "outputs": [
        {
          "internalType": "bytes32",
          "name": "",
          "type": "bytes32"
        }
      ],
      "stateMutability": "view",
      "type": "function"
    },
    {
      "inputs": [],
      "name": "renounceOwnership",
      "outputs": [],
      "stateMutability": "nonpayable",
      "type": "function"
    },
    {
      "inputs": [
        {
          "internalType": "address",
          "name": "newOwner",
          "type": "address"
        }
      ],
      "name": "transferOwnership",
      "outputs": [],
      "stateMutability": "nonpayable",
      "type": "function"
    },
    {
      "inputs": [
        {
          "internalType": "address",
          "name": "newImplementation",
          "type": "address"
        }
      ],
      "name": "upgradeTo",
      "outputs": [],
      "stateMutability": "nonpayable",
      "type": "function"
    },
    {
      "inputs": [
        {
          "internalType": "address",
          "name": "newImplementation",
          "type": "address"
        },
        {
          "internalType": "bytes",
          "name": "data",
          "type": "bytes"
        }
      ],
      "name": "upgradeToAndCall",
      "outputs": [],
      "stateMutability": "payable",
      "type": "function"
    },
    {
      "inputs": [
        {
          "internalType": "address",
          "name": "_lpPair",
          "type": "address"
        },
        {
          "internalType": "address",
          "name": "owner",
          "type": "address"
        }
      ],
      "name": "initialize",
      "outputs": [],
      "stateMutability": "nonpayable",
      "type": "function"
    },
    {
      "inputs": [
        {
          "internalType": "uint256[]",
          "name": "amounts",
          "type": "uint256[]"
        },
        {
          "internalType": "contract IERC20[]",
          "name": "tokens",
          "type": "address[]"
        },
        {
          "internalType": "uint256",
          "name": "LPAmount",
          "type": "uint256"
        },
        {
          "internalType": "address",
          "name": "origin",
          "type": "address"
        }
      ],
      "name": "deposit",
      "outputs": [
        {
          "internalType": "uint256",
          "name": "",
          "type": "uint256"
        }
      ],
      "stateMutability": "nonpayable",
      "type": "function"
    },
    {
      "inputs": [
        {
          "internalType": "address",
          "name": "origin",
          "type": "address"
        },
        {
          "internalType": "bool",
          "name": "withdrawLP",
          "type": "bool"
        }
      ],
      "name": "withdraw",
      "outputs": [
        {
          "internalType": "uint256",
          "name": "",
          "type": "uint256"
        }
      ],
      "stateMutability": "nonpayable",
      "type": "function"
    },
    {
      "inputs": [
        {
          "components": [
            {
              "internalType": "uint256",
              "name": "distributionId",
              "type": "uint256"
            },
            {
              "internalType": "uint256",
              "name": "balance",
              "type": "uint256"
            },
            {
              "internalType": "address",
              "name": "distributor",
              "type": "address"
            },
            {
              "internalType": "uint256",
              "name": "tokenIndex",
              "type": "uint256"
            },
            {
              "internalType": "bytes32[]",
              "name": "merkleProof",
              "type": "bytes32[]"
            }
          ],
          "internalType": "struct MerkleOrchard.Claim[]",
          "name": "claims",
          "type": "tuple[]"
        },
        {
          "internalType": "contract IERC20[]",
          "name": "rewardTokens",
          "type": "address[]"
        },
        {
          "components": [
            {
              "internalType": "bytes32",
              "name": "poolId",
              "type": "bytes32"
            },
            {
              "internalType": "uint256",
              "name": "assetInIndex",
              "type": "uint256"
            },
            {
              "internalType": "uint256",
              "name": "assetOutIndex",
              "type": "uint256"
            },
            {
              "internalType": "uint256",
              "name": "amount",
              "type": "uint256"
            },
            {
              "internalType": "bytes",
              "name": "userData",
              "type": "bytes"
            }
          ],
          "internalType": "struct IVault.BatchSwapStep[][]",
          "name": "swaps",
          "type": "tuple[][]"
        },
        {
          "internalType": "contract IAsset[][]",
          "name": "assets",
          "type": "address[][]"
        },
        {
          "components": [
            {
              "internalType": "address",
              "name": "sender",
              "type": "address"
            },
            {
              "internalType": "bool",
              "name": "fromInternalBalance",
              "type": "bool"
            },
            {
              "internalType": "address payable",
              "name": "recipient",
              "type": "address"
            },
            {
              "internalType": "bool",
              "name": "toInternalBalance",
              "type": "bool"
            }
          ],
          "internalType": "struct IVault.FundManagement[]",
          "name": "funds",
          "type": "tuple[]"
        },
        {
          "internalType": "int256[][]",
          "name": "limits",
          "type": "int256[][]"
        }
      ],
      "name": "distribute",
      "outputs": [],
      "stateMutability": "nonpayable",
      "type": "function"
    },
    {
      "inputs": [
        {
          "internalType": "address",
          "name": "_address",
          "type": "address"
        }
      ],
      "name": "userBalance",
      "outputs": [
        {
          "internalType": "uint256",
          "name": "",
          "type": "uint256"
        }
      ],
      "stateMutability": "view",
      "type": "function"
    },
    {
      "inputs": [],
      "name": "getTotalDeposits",
      "outputs": [
        {
          "internalType": "uint256",
          "name": "",
          "type": "uint256"
        }
      ],
      "stateMutability": "view",
      "type": "function"
    }
  ],
  "bytecode": "0x60a06040523060805234801561001457600080fd5b506001606555608051612e4e61004a60003960008181610b0501528181610b4501528181610d540152610d940152612e4e6000f3fe6080604052600436106100c25760003560e01c8063485cc9551161007f578063715018a611610059578063715018a6146101f25780638da5cb5b14610207578063e00d2e6e14610225578063f2fde38b1461024557600080fd5b8063485cc9551461019f5780634f1ef286146101bf5780635437e401146101d257600080fd5b80630103c92b146100c7578063147b9348146100fa578063168a48221461011c5780633659cfe6146101315780633e0dc34e14610151578063452ed4f114610167575b600080fd5b3480156100d357600080fd5b506100e76100e2366004611cc7565b610265565b6040519081526020015b60405180910390f35b34801561010657600080fd5b5061011a6101153660046123a7565b6102f0565b005b34801561012857600080fd5b506100e7610ac4565b34801561013d57600080fd5b5061011a61014c366004611cc7565b610afa565b34801561015d57600080fd5b506100e760675481565b34801561017357600080fd5b50606654610187906001600160a01b031681565b6040516001600160a01b0390911681526020016100f1565b3480156101ab57600080fd5b5061011a6101ba36600461249b565b610bc3565b61011a6101cd3660046124d4565b610d49565b3480156101de57600080fd5b506100e76101ed366004612523565b610e03565b3480156101fe57600080fd5b5061011a611090565b34801561021357600080fd5b506033546001600160a01b0316610187565b34801561023157600080fd5b506100e7610240366004612551565b6110c6565b34801561025157600080fd5b5061011a610260366004611cc7565b61150a565b6001600160a01b0381166000908152606b602052604081205460695482916102c391670de0b6b3a7640000916102bd9161029e916115a2565b6001600160a01b0387166000908152606a6020526040902054906115ae565b906115ba565b6001600160a01b0384166000908152606a60205260409020549091506102e990826115c6565b9392505050565b6033546001600160a01b031633146103235760405162461bcd60e51b815260040161031a90612623565b60405180910390fd5b600260655414156103465760405162461bcd60e51b815260040161031a90612658565b60026065556068546103aa5760405162461bcd60e51b815260206004820152602760248201527f54686572652073686f756c6420626520736f6d6520746f6b656e7320696e20746044820152661a19481c1bdbdb60ca1b606482015260840161031a565b60405162ad8c0560e61b8152730f3e0c4218b7b0108a3643cfe9d3ec0d4f57c54e90632b630140906103e49030908a908a906004016126d3565b600060405180830381600087803b1580156103fe57600080fd5b505af1158015610412573d6000803e3d6000fd5b5050505060005b835181101561072e5760005b848281518110610437576104376127b9565b6020026020010151518110156104e95760665485516001600160a01b039091169086908490811061046a5761046a6127b9565b60200260200101518281518110610483576104836127b9565b60200260200101516001600160a01b031614156104d75760405162461bcd60e51b815260206004820152601260248201527121b0b73a1039bbb0b8102628103a37b5b2b760711b604482015260640161031a565b806104e1816127e5565b915050610425565b5060008482815181106104fe576104fe6127b9565b6020026020010151600081518110610518576105186127b9565b60209081029190910101516040516370a0823160e01b81523060048201529091506000906001600160a01b038316906370a0823190602401602060405180830381865afa15801561056d573d6000803e3d6000fd5b505050506040513d601f19601f820116820180604052508101906105919190612800565b905080156107195760405163095ea7b360e01b815273ba12222222228d8ba445958a75a0704d566bf2c86004820152602481018290526001600160a01b0383169063095ea7b3906044016020604051808303816000875af11580156105fa573d6000803e3d6000fd5b505050506040513d601f19601f8201168201806040525081019061061e9190612819565b5073ba12222222228d8ba445958a75a0704d566bf2c86001600160a01b031663945bcec96000898681518110610656576106566127b9565b6020026020010151898781518110610670576106706127b9565b602002602001015189888151811061068a5761068a6127b9565b60200260200101518989815181106106a4576106a46127b9565b60200260200101516000196040518763ffffffff1660e01b81526004016106d0969594939291906128c2565b6000604051808303816000875af11580156106ef573d6000803e3d6000fd5b505050506040513d6000823e601f3d908101601f1916820160405261071791908101906129f2565b505b50508080610726906127e5565b915050610419565b50600080600061073c6115d2565b92509250925060005b83518110156108d057838181518110610760576107606127b9565b60209081029190910101516040516370a0823160e01b81523060048201526001600160a01b03909116906370a0823190602401602060405180830381865afa1580156107b0573d6000803e3d6000fd5b505050506040513d601f19601f820116820180604052508101906107d49190612800565b8282815181106107e6576107e66127b9565b602002602001018181525050838181518110610804576108046127b9565b60200260200101516001600160a01b031663095ea7b373ba12222222228d8ba445958a75a0704d566bf2c8848481518110610841576108416127b9565b60200260200101516040518363ffffffff1660e01b815260040161087a9291906001600160a01b03929092168252602082015260400190565b6020604051808303816000875af1158015610899573d6000803e3d6000fd5b505050506040513d601f19601f820116820180604052508101906108bd9190612819565b50806108c8816127e5565b915050610745565b506066546040516370a0823160e01b81523060048201526000916001600160a01b0316906370a0823190602401602060405180830381865afa15801561091a573d6000803e3d6000fd5b505050506040513d601f19601f8201168201806040525081019061093e9190612800565b905073ba12222222228d8ba445958a75a0704d566bf2c86001600160a01b031663b95cac2860675430306040518060800160405280898152602001888152602001600189600160405160200161099693929190612a82565b6040516020818303038152906040528152602001600015158152506040518563ffffffff1660e01b81526004016109d09493929190612b12565b600060405180830381600087803b1580156109ea57600080fd5b505af11580156109fe573d6000803e3d6000fd5b50506066546040516370a0823160e01b8152306004820152600093506001600160a01b0390911691506370a0823190602401602060405180830381865afa158015610a4d573d6000803e3d6000fd5b505050506040513d601f19601f82011682018060405250810190610a719190612800565b90506000610a7f82846115a2565b9050610aae610aa56068546102bd84670de0b6b3a76400006115ae90919063ffffffff16565b606954906115c6565b6069555050600160655550505050505050505050565b6000610af5610aec670de0b6b3a76400006102bd6069546068546115ae90919063ffffffff16565b606854906115c6565b905090565b306001600160a01b037f0000000000000000000000000000000000000000000000000000000000000000161415610b435760405162461bcd60e51b815260040161031a90612b44565b7f00000000000000000000000000000000000000000000000000000000000000006001600160a01b0316610b75611751565b6001600160a01b031614610b9b5760405162461bcd60e51b815260040161031a90612b90565b610ba48161177f565b60408051600080825260208201909252610bc0918391906117a9565b50565b600054610100900460ff1680610bdc575060005460ff16155b610bf85760405162461bcd60e51b815260040161031a90612bdc565b600054610100900460ff16158015610c1a576000805461ffff19166101011790555b610c226118f4565b610c2b8261150a565b606680546001600160a01b0319166001600160a01b0385169081179091556040805163038fff2d60e41b815290516338fff2d0916004808201926020929091908290030181865afa158015610c84573d6000803e3d6000fd5b505050506040513d601f19601f82011682018060405250810190610ca89190612800565b60675560405163095ea7b360e01b815273ba12222222228d8ba445958a75a0704d566bf2c8600482015260001960248201526001600160a01b0384169063095ea7b3906044016020604051808303816000875af1158015610d0d573d6000803e3d6000fd5b505050506040513d601f19601f82011682018060405250810190610d319190612819565b508015610d44576000805461ff00191690555b505050565b306001600160a01b037f0000000000000000000000000000000000000000000000000000000000000000161415610d925760405162461bcd60e51b815260040161031a90612b44565b7f00000000000000000000000000000000000000000000000000000000000000006001600160a01b0316610dc4611751565b6001600160a01b031614610dea5760405162461bcd60e51b815260040161031a90612b90565b610df38261177f565b610dff828260016117a9565b5050565b6033546000906001600160a01b03163314610e305760405162461bcd60e51b815260040161031a90612623565b60026065541415610e535760405162461bcd60e51b815260040161031a90612658565b60026065556001600160a01b0383166000908152606a6020526040902054610ecd5760405162461bcd60e51b815260206004820152602760248201527f54686520616d6f756e74207374616b65642073686f756c64206265206d6f72656044820152660207468616e20360cc1b606482015260840161031a565b6000610ed884610265565b6001600160a01b0385166000908152606a6020526040902054606854919250610f0191906115a2565b6068556001600160a01b0384166000908152606a60205260408120558215610fa25760665460405163a9059cbb60e01b81526001600160a01b038681166004830152602482018490529091169063a9059cbb906044016020604051808303816000875af1158015610f76573d6000803e3d6000fd5b505050506040513d601f19601f82011682018060405250810190610f9a9190612819565b509050611085565b600080610fad6115d2565b925092505073ba12222222228d8ba445958a75a0704d566bf2c86001600160a01b0316638bdb39136067543089604051806080016040528088815260200187815260200160018a60405160200161101392919060ff929092168252602082015260400190565b6040516020818303038152906040528152602001600015158152506040518563ffffffff1660e01b815260040161104d9493929190612b12565b600060405180830381600087803b15801561106757600080fd5b505af115801561107b573d6000803e3d6000fd5b5094955050505050505b600160655592915050565b6033546001600160a01b031633146110ba5760405162461bcd60e51b815260040161031a90612623565b6110c4600061196f565b565b6033546000906001600160a01b031633146110f35760405162461bcd60e51b815260040161031a90612623565b600260655414156111165760405162461bcd60e51b815260040161031a90612658565b60026065556000806111266115d2565b50915091506000805b83518110156112e15783818151811061114a5761114a6127b9565b60200260200101516001600160a01b031688828151811061116d5761116d6127b9565b60200260200101516001600160a01b0316146111d65760405162461bcd60e51b815260206004820152602260248201527f546f6b656e7320646f6e2774206d6174636820676574506f6f6c546f6b656e73604482015261282960f01b606482015260840161031a565b60008982815181106111ea576111ea6127b9565b602002602001015111156112cf578161120257600191505b838181518110611214576112146127b9565b60200260200101516001600160a01b031663095ea7b373ba12222222228d8ba445958a75a0704d566bf2c88b8481518110611251576112516127b9565b60200260200101516040518363ffffffff1660e01b815260040161128a9291906001600160a01b03929092168252602082015260400190565b6020604051808303816000875af11580156112a9573d6000803e3d6000fd5b505050506040513d601f19601f820116820180604052508101906112cd9190612819565b505b806112d9816127e5565b91505061112f565b506066546040516370a0823160e01b815230600482015260009182916001600160a01b03909116906370a0823190602401602060405180830381865afa15801561132f573d6000803e3d6000fd5b505050506040513d601f19601f820116820180604052508101906113539190612800565b9050821561142457600060405180608001604052808681526020018c815260200160018d600060405160200161138b93929190612a82565b604051602081830303815290604052815260200160001515815250905073ba12222222228d8ba445958a75a0704d566bf2c86001600160a01b031663b95cac286067543030856040518563ffffffff1660e01b81526004016113f09493929190612b12565b600060405180830381600087803b15801561140a57600080fd5b505af115801561141e573d6000803e3d6000fd5b50505050505b6066546040516370a0823160e01b81523060048201526000916001600160a01b0316906370a0823190602401602060405180830381865afa15801561146d573d6000803e3d6000fd5b505050506040513d601f19601f820116820180604052508101906114919190612800565b90506114a7896114a183856115a2565b906115c6565b925050506114be6114b787610265565b82906115c6565b6001600160a01b0387166000908152606a6020908152604080832093909355606954606b909152919020556068546114f690826115c6565b606855600160655598975050505050505050565b6033546001600160a01b031633146115345760405162461bcd60e51b815260040161031a90612623565b6001600160a01b0381166115995760405162461bcd60e51b815260206004820152602660248201527f4f776e61626c653a206e6577206f776e657220697320746865207a65726f206160448201526564647265737360d01b606482015260840161031a565b610bc08161196f565b60006102e98284612c2a565b60006102e98284612c41565b60006102e98284612c60565b60006102e98284612c82565b606754604051631f29a8cd60e31b81526060918291829173ba12222222228d8ba445958a75a0704d566bf2c89163f94d4668916116159160040190815260200190565b600060405180830381865afa158015611632573d6000803e3d6000fd5b505050506040513d6000823e601f3d908101601f1916820160405261165a9190810190612cf5565b505080519093506001600160401b0381111561167857611678611ce4565b6040519080825280602002602001820160405280156116a1578160200160208202803683370190505b50915082516001600160401b038111156116bd576116bd611ce4565b6040519080825280602002602001820160405280156116e6578160200160208202803683370190505b50905060005b835181101561174b57838181518110611707576117076127b9565b6020026020010151838281518110611721576117216127b9565b6001600160a01b039092166020928302919091019091015280611743816127e5565b9150506116ec565b50909192565b7f360894a13ba1a3210667c828492db98dca3e2076cc3735a920a3ca505d382bbc546001600160a01b031690565b6033546001600160a01b03163314610bc05760405162461bcd60e51b815260040161031a90612623565b60006117b3611751565b90506117be846119c1565b6000835111806117cb5750815b156117dc576117da8484611a66565b505b7f4910fdfa16fed3260ed0e7147f7cc6da11a60208b5b9406d12a635614ffd9143805460ff166118ed57805460ff191660011781556040516001600160a01b038316602482015261185b90869060440160408051601f198184030181529190526020810180516001600160e01b0316631b2ce7f360e11b179052611a66565b50805460ff1916815561186c611751565b6001600160a01b0316826001600160a01b0316146118e45760405162461bcd60e51b815260206004820152602f60248201527f45524331393637557067726164653a207570677261646520627265616b73206660448201526e75727468657220757067726164657360881b606482015260840161031a565b6118ed85611a8b565b5050505050565b600054610100900460ff168061190d575060005460ff16155b6119295760405162461bcd60e51b815260040161031a90612bdc565b600054610100900460ff1615801561194b576000805461ffff19166101011790555b611953611acb565b61195b611b35565b8015610bc0576000805461ff001916905550565b603380546001600160a01b038381166001600160a01b0319831681179093556040519116919082907f8be0079c531659141344cd1fd0a4f28419497f9722a3daafe3b4186f6b6457e090600090a35050565b803b611a255760405162461bcd60e51b815260206004820152602d60248201527f455243313936373a206e657720696d706c656d656e746174696f6e206973206e60448201526c1bdd08184818dbdb9d1c9858dd609a1b606482015260840161031a565b7f360894a13ba1a3210667c828492db98dca3e2076cc3735a920a3ca505d382bbc80546001600160a01b0319166001600160a01b0392909216919091179055565b60606102e98383604051806060016040528060278152602001612df260279139611b95565b611a94816119c1565b6040516001600160a01b038216907fbc7cd75a20ee27fd9adebab32041f755214dbc6bffa90cc0225b39da2e5c2d3b90600090a250565b600054610100900460ff1680611ae4575060005460ff16155b611b005760405162461bcd60e51b815260040161031a90612bdc565b600054610100900460ff1615801561195b576000805461ffff19166101011790558015610bc0576000805461ff001916905550565b600054610100900460ff1680611b4e575060005460ff16155b611b6a5760405162461bcd60e51b815260040161031a90612bdc565b600054610100900460ff16158015611b8c576000805461ffff19166101011790555b61195b3361196f565b6060833b611bf45760405162461bcd60e51b815260206004820152602660248201527f416464726573733a2064656c65676174652063616c6c20746f206e6f6e2d636f6044820152651b9d1c9858dd60d21b606482015260840161031a565b600080856001600160a01b031685604051611c0f9190612dc2565b600060405180830381855af49150503d8060008114611c4a576040519150601f19603f3d011682016040523d82523d6000602084013e611c4f565b606091505b5091509150611c5f828286611c69565b9695505050505050565b60608315611c785750816102e9565b825115611c885782518084602001fd5b8160405162461bcd60e51b815260040161031a9190612dde565b6001600160a01b0381168114610bc057600080fd5b8035611cc281611ca2565b919050565b600060208284031215611cd957600080fd5b81356102e981611ca2565b634e487b7160e01b600052604160045260246000fd5b60405160a081016001600160401b0381118282101715611d1c57611d1c611ce4565b60405290565b604051608081016001600160401b0381118282101715611d1c57611d1c611ce4565b604051601f8201601f191681016001600160401b0381118282101715611d6c57611d6c611ce4565b604052919050565b60006001600160401b03821115611d8d57611d8d611ce4565b5060051b60200190565b600082601f830112611da857600080fd5b81356020611dbd611db883611d74565b611d44565b828152600592831b8501820192828201919087851115611ddc57600080fd5b8387015b85811015611edf5780356001600160401b0380821115611e005760008081fd5b9089019060a0828c03601f1901811315611e1a5760008081fd5b611e22611cfa565b8884013581526040808501358a830152606080860135611e4181611ca2565b8383015260808681013582850152938601359385851115611e6457600091508182fd5b84870196508f603f880112611e7b57600095508586fd5b8b8701359550611e8d611db887611d74565b86815295891b87018301958c8101955091508f861115611ead5760008081fd5b958201955b85871015611ecb5786358552958b0195938b0193611eb2565b830152508752505050928401928401611de0565b5090979650505050505050565b600082601f830112611efd57600080fd5b81356020611f0d611db883611d74565b82815260059290921b84018101918181019086841115611f2c57600080fd5b8286015b84811015611f50578035611f4381611ca2565b8352918301918301611f30565b509695505050505050565b600082601f830112611f6c57600080fd5b81356001600160401b03811115611f8557611f85611ce4565b611f98601f8201601f1916602001611d44565b818152846020838601011115611fad57600080fd5b816020850160208301376000918101602001919091529392505050565b600082601f830112611fdb57600080fd5b611fe8611db88335611d74565b82358082526020808301929160051b85010185101561200657600080fd5b602084015b6020853560051b860101811015612127576001600160401b03808235111561203257600080fd5b8135860187603f82011261204557600080fd5b612055611db86020830135611d74565b602082810135808352908201919060051b83016040018a81111561207857600080fd5b604084015b8181101561211057858135111561209357600080fd5b8035850160a0818e03603f190112156120ab57600080fd5b6120b3611cfa565b60408201358152606082013560208201526080820135604082015260a082013560608201528760c083013511156120e957600080fd5b6120fc8e604060c0850135850101611f5b565b60808201528552506020938401930161207d565b50508652505060209384019391909101905061200b565b50949350505050565b600082601f83011261214157600080fd5b81356020612151611db883611d74565b828152600592831b850182019282820191908785111561217057600080fd5b8387015b85811015611edf5780356001600160401b038111156121935760008081fd5b8801603f81018a136121a55760008081fd5b8581013560406121b7611db883611d74565b82815291851b8301810191888101908d8411156121d45760008081fd5b938201935b838510156121fe57843592506121ee83611ca2565b82825293890193908901906121d9565b885250505093850193508401612174565b8015158114610bc057600080fd5b600082601f83011261222e57600080fd5b8135602061223e611db883611d74565b82815260079290921b8401810191818101908684111561225d57600080fd5b8286015b84811015611f50576080818903121561227a5760008081fd5b612282611d22565b813561228d81611ca2565b81528185013561229c8161220f565b818601526040828101356122af81611ca2565b908201526060828101356122c28161220f565b90820152835291830191608001612261565b600082601f8301126122e557600080fd5b813560206122f5611db883611d74565b828152600592831b850182019282820191908785111561231457600080fd5b8387015b85811015611edf5780356001600160401b038111156123375760008081fd5b8801603f81018a136123495760008081fd5b85810135604061235b611db883611d74565b82815291851b8301810191888101908d8411156123785760008081fd5b938201935b838510156123965784358252938901939089019061237d565b885250505093850193508401612318565b60008060008060008060c087890312156123c057600080fd5b86356001600160401b03808211156123d757600080fd5b6123e38a838b01611d97565b975060208901359150808211156123f957600080fd5b6124058a838b01611eec565b9650604089013591508082111561241b57600080fd5b6124278a838b01611fca565b9550606089013591508082111561243d57600080fd5b6124498a838b01612130565b9450608089013591508082111561245f57600080fd5b61246b8a838b0161221d565b935060a089013591508082111561248157600080fd5b5061248e89828a016122d4565b9150509295509295509295565b600080604083850312156124ae57600080fd5b82356124b981611ca2565b915060208301356124c981611ca2565b809150509250929050565b600080604083850312156124e757600080fd5b82356124f281611ca2565b915060208301356001600160401b0381111561250d57600080fd5b61251985828601611f5b565b9150509250929050565b6000806040838503121561253657600080fd5b823561254181611ca2565b915060208301356124c98161220f565b6000806000806080858703121561256757600080fd5b84356001600160401b038082111561257e57600080fd5b818701915087601f83011261259257600080fd5b813560206125a2611db883611d74565b82815260059290921b8401810191818101908b8411156125c157600080fd5b948201945b838610156125df578535825294820194908201906125c6565b985050880135925050808211156125f557600080fd5b5061260287828801611eec565b9350506040850135915061261860608601611cb7565b905092959194509250565b6020808252818101527f4f776e61626c653a2063616c6c6572206973206e6f7420746865206f776e6572604082015260600190565b6020808252601f908201527f5265656e7472616e637947756172643a207265656e7472616e742063616c6c00604082015260600190565b600081518084526020808501945080840160005b838110156126c85781516001600160a01b0316875295820195908201906001016126a3565b509495945050505050565b6001600160a01b038481168252606060208084018290528551848301819052600093608092909183870190600581901b880185018a840188805b84811015612794578b8403607f1901865282518051855287810151888601526040808201518a16908601528a8101518b86015289015160a08a860181905281519086018190529088019060c086019084905b8082101561277f5783518352928a0192918a01916001919091019061275f565b5050968801969450509186019160010161270d565b50505088810360408a01526127a9818b61268f565b9c9b505050505050505050505050565b634e487b7160e01b600052603260045260246000fd5b634e487b7160e01b600052601160045260246000fd5b60006000198214156127f9576127f96127cf565b5060010190565b60006020828403121561281257600080fd5b5051919050565b60006020828403121561282b57600080fd5b81516102e98161220f565b60005b83811015612851578181015183820152602001612839565b83811115612860576000848401525b50505050565b6000815180845261287e816020860160208601612836565b601f01601f19169290920160200192915050565b600081518084526020808501945080840160005b838110156126c8578151875295820195908201906001016128a6565b600061012080830160028a106128e857634e487b7160e01b600052602160045260246000fd5b89845260208085019290925288519081905261014080850192600583901b8601909101918a820160005b828110156129755787850361013f190186528151805186528481015185870152604080820151908701526060808201519087015260809081015160a09187018290529061296181880183612866565b978601979650505090830190600101612912565b50505050838103604085015261298b818961268f565b9150506129cb606084018780516001600160a01b039081168352602080830151151590840152604080830151909116908301526060908101511515910152565b82810360e08401526129dd8186612892565b91505082610100830152979650505050505050565b60006020808385031215612a0557600080fd5b82516001600160401b03811115612a1b57600080fd5b8301601f81018513612a2c57600080fd5b8051612a3a611db882611d74565b81815260059190911b82018301908381019087831115612a5957600080fd5b928401925b82841015612a7757835182529284019290840190612a5e565b979650505050505050565b60ff84168152606060208201526000612a9e6060830185612892565b905060ff83166040830152949350505050565b6000815160808452612ac6608085018261268f565b905060208301518482036020860152612adf8282612892565b91505060408301518482036040860152612af98282612866565b9150506060830151151560608501528091505092915050565b8481526001600160a01b03848116602083015283166040820152608060608201819052600090611c5f90830184612ab1565b6020808252602c908201527f46756e6374696f6e206d7573742062652063616c6c6564207468726f7567682060408201526b19195b1959d85d1958d85b1b60a21b606082015260800190565b6020808252602c908201527f46756e6374696f6e206d7573742062652063616c6c6564207468726f7567682060408201526b6163746976652070726f787960a01b606082015260800190565b6020808252602e908201527f496e697469616c697a61626c653a20636f6e747261637420697320616c72656160408201526d191e481a5b9a5d1a585b1a5e995960921b606082015260800190565b600082821015612c3c57612c3c6127cf565b500390565b6000816000190483118215151615612c5b57612c5b6127cf565b500290565b600082612c7d57634e487b7160e01b600052601260045260246000fd5b500490565b60008219821115612c9557612c956127cf565b500190565b600082601f830112612cab57600080fd5b81516020612cbb611db883611d74565b82815260059290921b84018101918181019086841115612cda57600080fd5b8286015b84811015611f505780518352918301918301612cde565b600080600060608486031215612d0a57600080fd5b83516001600160401b0380821115612d2157600080fd5b818601915086601f830112612d3557600080fd5b81516020612d45611db883611d74565b82815260059290921b8401810191818101908a841115612d6457600080fd5b948201945b83861015612d8b578551612d7c81611ca2565b82529482019490820190612d69565b91890151919750909350505080821115612da457600080fd5b50612db186828701612c9a565b925050604084015190509250925092565b60008251612dd4818460208701612836565b9190910192915050565b6020815260006102e9602083018461286656fe416464726573733a206c6f772d6c6576656c2064656c65676174652063616c6c206661696c6564a2646970667358221220fc980fa29dcea1e67807d1d8dd3d0c765287e5c6b6ca02ecd883e846e0f8775164736f6c634300080a0033",
  "immutableReferences": {
    "901": [
      {
        "length": 32,
        "start": 2821
      },
      {
        "length": 32,
        "start": 2885
      },
      {
        "length": 32,
        "start": 3412
      },
      {
        "length": 32,
        "start": 3476
      }
    ]
  },
  "source": "// SPDX-License-Identifier: MIT\r\npragma solidity 0.8.10;\r\n\r\nimport \"../interfaces/IUniswapV2Pair.sol\";\r\nimport \"../interfaces/IUniswapV2Router.sol\";\r\nimport \"../interfaces/IVault.sol\";\r\nimport \"../interfaces/MerkleOrchard.sol\"; \r\nimport \"../interfaces/IBasePool.sol\";\r\nimport \"@openzeppelin/contracts/utils/math/SafeMath.sol\";\r\nimport \"../interfaces/IUniswapV2Factory.sol\";\r\nimport \"@openzeppelin/contracts-upgradeable/access/OwnableUpgradeable.sol\";\r\nimport \"@openzeppelin/contracts/proxy/utils/UUPSUpgradeable.sol\";\r\nimport \"@openzeppelin/contracts/security/ReentrancyGuard.sol\";\r\n\r\ncontract BalancerFarmUpgradeable is UUPSUpgradeable, Initializable, OwnableUpgradeable, ReentrancyGuard {\r\n    using SafeMath for uint256; \r\n\r\n    /**\r\n     * @dev Third Party Contracts:\r\n     * {Vault} - the main Balancer contract used for pool exits/joins and swaps\r\n     * {merkleOrchard} - The contract that distributes reward tokens\r\n     */   \r\n    IVault constant private Vault = IVault(0xBA12222222228d8Ba445958a75a0704d566BF2C8);\r\n    MerkleOrchard constant private merkleOrchard = MerkleOrchard(0x0F3e0c4218b7b0108a3643cFe9D3ec0d4F57c54e);\r\n    /**\r\n     * @dev Contract Variables:\r\n     *  {lpPair} - The pair and the pool\r\n     * {poolId} - Bytes32 representation of the {lpPair}\r\n     * \r\n     * The implementation of Scalable Reward Distribution on the Ethereum Blockchain paper by B. Batog, L. Boca and N. Johnson\r\n     * {totalDeposits} - The sum of all active stake deposits | (T)\r\n     * {sumOfRewards} - The sum of (rewards)/(totalDeposits) | (S)\r\n     * {stakes} - All stakes made by users | (stake)\r\n     * {sumOfRewardsForUser} - A sumOfRewards for users at pool join time | (S0)\r\n     */\r\n    address public lpPair;\r\n    bytes32 public poolId;\r\n     \r\n    uint256 private totalDeposits;\r\n    uint256 private sumOfRewards;\r\n    mapping(address => uint256) private stakes;\r\n    mapping(address => uint256) private sumOfRewardsForUser;\r\n\r\n    // ============ Methods ============\r\n\r\n    function initialize(address _lpPair, address owner) public initializer {\r\n        __Ownable_init();\r\n        transferOwnership(owner);\r\n        \r\n        lpPair = _lpPair;\r\n        poolId = IBasePool(_lpPair).getPoolId();\r\n        IERC20(_lpPair).approve(address(Vault), uint256(2**256 - 1));\r\n    }\r\n\r\n   /**\r\n     * @dev Function that makes the deposits\r\n     * Deposits all the tokens from this contract's balance to the {Vault}.\r\n     */\r\n    function deposit(uint256[] memory amounts, IERC20[] memory tokens, uint256 LPAmount, address origin) external onlyOwner nonReentrant returns(uint256){\r\n        (IERC20[] memory poolTokens, IAsset[] memory assets,) = getTokens();\r\n    \r\n        bool joinPool = false;\r\n        for (uint256 i = 0; i < poolTokens.length; i++) {\r\n            require (tokens[i] == poolTokens[i], \"Tokens don't match getPoolTokens()\");\r\n            if(amounts[i] > 0){\r\n                if(!joinPool){\r\n                    joinPool = true;\r\n                }\r\n                poolTokens[i].approve(address(Vault), amounts[i]);\r\n            }\r\n        }\r\n\r\n        uint256 depositAmount = 0;\r\n        {\r\n            uint256 amountBefore = IERC20(lpPair).balanceOf(address(this));\r\n            if(joinPool){\r\n                IVault.JoinPoolRequest memory joinPoolRequest = IVault.JoinPoolRequest(assets, amounts, abi.encode(1, amounts, 0), false);\r\n                Vault.joinPool(poolId, address(this), address(this), joinPoolRequest);\r\n            }\r\n            uint256 amountAfter = IERC20(lpPair).balanceOf(address(this));\r\n\r\n            depositAmount = amountAfter.sub(amountBefore).add(LPAmount); \r\n        }\r\n        \r\n        stakes[origin] = depositAmount.add(userBalance(origin));\r\n        sumOfRewardsForUser[origin] = sumOfRewards;\r\n        totalDeposits = totalDeposits.add(depositAmount);\r\n\r\n        return depositAmount;\r\n    }\r\n\r\n    /**\r\n     * @dev Withdraws funds and sends them to the {msg.sender}.\r\n     */\r\n    function withdraw(address origin, bool withdrawLP) external onlyOwner nonReentrant returns(uint256){\r\n        require(stakes[origin] > 0, \"The amount staked should be more than 0\");\r\n        \r\n        uint256 withdrawAmount = userBalance(origin);\r\n        totalDeposits = totalDeposits.sub(stakes[origin]);\r\n        stakes[origin] = 0;\r\n\r\n        if(withdrawLP){\r\n            IERC20(lpPair).transfer(origin, withdrawAmount);\r\n            return withdrawAmount;\r\n        }\r\n\r\n        (, IAsset[] memory assets, uint256[] memory amounts) = getTokens();\r\n        Vault.exitPool(poolId, address(this), payable(origin), IVault.ExitPoolRequest(assets, amounts, abi.encode(1, withdrawAmount), false));\r\n        return withdrawAmount;\r\n    }\r\n\r\n    /**\r\n     * @dev Core function of the strat, in charge of updating, collecting and re-investing rewards.\r\n     * 1. It claims rewards from the {merkleOrchard}.\r\n     * 2. It swaps the {rewardTokens} token for {assets}\r\n     * 3. Then deposits the new tokens back to the {Vault}.\r\n     */\r\n    function distribute(\r\n        MerkleOrchard.Claim[] memory claims,\r\n        IERC20[] memory rewardTokens,\r\n        IVault.BatchSwapStep[][] memory swaps,\r\n        IAsset[][] memory assets,\r\n        IVault.FundManagement[] memory funds,\r\n        int256[][] memory limits\r\n    ) external onlyOwner nonReentrant{ \r\n        require(totalDeposits > 0, 'There should be some tokens in the pool');\r\n        merkleOrchard.claimDistributions(address(this), claims, rewardTokens);\r\n        for (uint256 i = 0; i < assets.length; i++) {\r\n            for (uint256 j = 0; j < assets[i].length; j++) {\r\n                require(address(assets[i][j]) != lpPair, 'Cant swap LP token');\r\n            }\r\n            IERC20 startingToken = IERC20(address(assets[i][0]));\r\n            uint256 balance = startingToken.balanceOf(address(this));\r\n            if (balance > 0) {\r\n                startingToken.approve(address(Vault), balance);\r\n                Vault.batchSwap(IVault.SwapKind.GIVEN_IN, swaps[i], assets[i], funds[i], limits[i], uint256(2**256 - 1));\r\n            }\r\n        }\r\n\r\n        (IERC20[] memory tokens, IAsset[] memory joinAssets, uint256[] memory joinAmounts) = getTokens();\r\n        for (uint256 i = 0; i < tokens.length; i++) {\r\n            joinAmounts[i] = tokens[i].balanceOf(address(this));\r\n            tokens[i].approve(address(Vault), joinAmounts[i]);\r\n        }\r\n        \r\n        uint256 amountBefore = IERC20(lpPair).balanceOf(address(this));\r\n        Vault.joinPool(poolId, address(this), address(this), IVault.JoinPoolRequest(joinAssets, joinAmounts, abi.encode(1, joinAmounts, 1), false));\r\n        uint256 amountAfter = IERC20(lpPair).balanceOf(address(this));\r\n\r\n        uint256 reward = amountAfter.sub(amountBefore);\r\n        sumOfRewards = sumOfRewards.add(uint256(1 ether).mul(reward).div(totalDeposits));\r\n    }\r\n\r\n    /**\r\n     * @dev Returns total funds staked by the {_address} \r\n     */\r\n    function userBalance(address _address) public view returns (uint256){\r\n        uint256 reward = stakes[_address].mul(sumOfRewards.sub(sumOfRewardsForUser[_address])).div(uint256(1 ether));\r\n        return stakes[_address].add(reward);\r\n    }\r\n    \r\n    /**\r\n     * @dev Returns total amount locked in the pool.\r\n     */ \r\n    function getTotalDeposits() external view returns(uint256){\r\n       return totalDeposits.add(totalDeposits.mul(sumOfRewards).div(uint256(1 ether)));\r\n    }\r\n\r\n    /**\r\n     * @dev Returns (getPoolTokens(), IAsset(getPoolTokens()), new uint256[](tokens.length))\r\n     */ \r\n    function getTokens() internal view returns(IERC20[] memory tokens, IAsset[] memory assets, uint256[] memory amounts){\r\n        (tokens, , ) = Vault.getPoolTokens(poolId);\r\n        assets = new IAsset[](tokens.length);\r\n        amounts = new uint256[](tokens.length);\r\n        for (uint256 i = 0; i < tokens.length; i++) {\r\n            assets[i] = IAsset(address(tokens[i]));\r\n        }\r\n    }\r\n\r\n    function _authorizeUpgrade(address newImplementation) internal override onlyOwner {\r\n        \r\n    }\r\n}",
  "sourcePath": "C:\\Users\\jugli\\Desktop\\contracts\\contracts\\farms\\BalancerFarmUpgradeable.sol",
  "compiler": {
    "name": "solc",
    "version": "0.8.10+commit.fc410830.Emscripten.clang"
  },
  "schemaVersion": "3.4.3",
  "updatedAt": "2021-12-16T12:18:27.447Z",
  "devdoc": {
    "kind": "dev",
    "methods": {
      "deposit(uint256[],address[],uint256,address)": {
        "details": "Function that makes the deposits Deposits all the tokens from this contract's balance to the {Vault}."
      },
      "distribute((uint256,uint256,address,uint256,bytes32[])[],address[],(bytes32,uint256,uint256,uint256,bytes)[][],address[][],(address,bool,address,bool)[],int256[][])": {
        "details": "Core function of the strat, in charge of updating, collecting and re-investing rewards. 1. It claims rewards from the {merkleOrchard}. 2. It swaps the {rewardTokens} token for {assets} 3. Then deposits the new tokens back to the {Vault}."
      },
      "getTotalDeposits()": {
        "details": "Returns total amount locked in the pool."
      },
      "owner()": {
        "details": "Returns the address of the current owner."
      },
      "renounceOwnership()": {
        "details": "Leaves the contract without owner. It will not be possible to call `onlyOwner` functions anymore. Can only be called by the current owner. NOTE: Renouncing ownership will leave the contract without an owner, thereby removing any functionality that is only available to the owner."
      },
      "transferOwnership(address)": {
        "details": "Transfers ownership of the contract to a new account (`newOwner`). Can only be called by the current owner."
      },
      "upgradeTo(address)": {
        "details": "Upgrade the implementation of the proxy to `newImplementation`. Calls {_authorizeUpgrade}. Emits an {Upgraded} event."
      },
      "upgradeToAndCall(address,bytes)": {
        "details": "Upgrade the implementation of the proxy to `newImplementation`, and subsequently execute the function call encoded in `data`. Calls {_authorizeUpgrade}. Emits an {Upgraded} event."
      },
      "userBalance(address)": {
        "details": "Returns total funds staked by the {_address} "
      },
      "withdraw(address,bool)": {
        "details": "Withdraws funds and sends them to the {msg.sender}."
      }
    },
    "stateVariables": {
      "Vault": {
        "details": "Third Party Contracts: {Vault} - the main Balancer contract used for pool exits/joins and swaps {merkleOrchard} - The contract that distributes reward tokens"
      },
      "lpPair": {
        "details": "Contract Variables:  {lpPair} - The pair and the pool {poolId} - Bytes32 representation of the {lpPair}  The implementation of Scalable Reward Distribution on the Ethereum Blockchain paper by B. Batog, L. Boca and N. Johnson {totalDeposits} - The sum of all active stake deposits | (T) {sumOfRewards} - The sum of (rewards)/(totalDeposits) | (S) {stakes} - All stakes made by users | (stake) {sumOfRewardsForUser} - A sumOfRewards for users at pool join time | (S0)"
      }
    },
    "version": 1
  },
  "userdoc": {
    "kind": "user",
    "methods": {},
    "version": 1
  }
}