{
  "contractName": "BalancerFarmUpgradeable",
  "abi": [
    {
      "anonymous": false,
      "inputs": [
        {
          "indexed": false,
          "internalType": "address",
          "name": "previousAdmin",
          "type": "address"
        },
        {
          "indexed": false,
          "internalType": "address",
          "name": "newAdmin",
          "type": "address"
        }
      ],
      "name": "AdminChanged",
      "type": "event"
    },
    {
      "anonymous": false,
      "inputs": [
        {
          "indexed": true,
          "internalType": "address",
          "name": "beacon",
          "type": "address"
        }
      ],
      "name": "BeaconUpgraded",
      "type": "event"
    },
    {
      "anonymous": false,
      "inputs": [
        {
          "indexed": true,
          "internalType": "address",
          "name": "previousOwner",
          "type": "address"
        },
        {
          "indexed": true,
          "internalType": "address",
          "name": "newOwner",
          "type": "address"
        }
      ],
      "name": "OwnershipTransferred",
      "type": "event"
    },
    {
      "anonymous": false,
      "inputs": [
        {
          "indexed": true,
          "internalType": "address",
          "name": "implementation",
          "type": "address"
        }
      ],
      "name": "Upgraded",
      "type": "event"
    },
    {
      "inputs": [],
      "name": "lpPair",
      "outputs": [
        {
          "internalType": "address",
          "name": "",
          "type": "address"
        }
      ],
      "stateMutability": "view",
      "type": "function"
    },
    {
      "inputs": [],
      "name": "owner",
      "outputs": [
        {
          "internalType": "address",
          "name": "",
          "type": "address"
        }
      ],
      "stateMutability": "view",
      "type": "function"
    },
    {
      "inputs": [],
      "name": "poolId",
      "outputs": [
        {
          "internalType": "bytes32",
          "name": "",
          "type": "bytes32"
        }
      ],
      "stateMutability": "view",
      "type": "function"
    },
    {
      "inputs": [],
      "name": "proxiableUUID",
      "outputs": [
        {
          "internalType": "bytes32",
          "name": "",
          "type": "bytes32"
        }
      ],
      "stateMutability": "view",
      "type": "function"
    },
    {
      "inputs": [],
      "name": "renounceOwnership",
      "outputs": [],
      "stateMutability": "nonpayable",
      "type": "function"
    },
    {
      "inputs": [
        {
          "internalType": "address",
          "name": "newOwner",
          "type": "address"
        }
      ],
      "name": "transferOwnership",
      "outputs": [],
      "stateMutability": "nonpayable",
      "type": "function"
    },
    {
      "inputs": [
        {
          "internalType": "address",
          "name": "newImplementation",
          "type": "address"
        }
      ],
      "name": "upgradeTo",
      "outputs": [],
      "stateMutability": "nonpayable",
      "type": "function"
    },
    {
      "inputs": [
        {
          "internalType": "address",
          "name": "newImplementation",
          "type": "address"
        },
        {
          "internalType": "bytes",
          "name": "data",
          "type": "bytes"
        }
      ],
      "name": "upgradeToAndCall",
      "outputs": [],
      "stateMutability": "payable",
      "type": "function"
    },
    {
      "inputs": [
        {
          "internalType": "address",
          "name": "_lpPair",
          "type": "address"
        },
        {
          "internalType": "address",
          "name": "owner",
          "type": "address"
        }
      ],
      "name": "initialize",
      "outputs": [],
      "stateMutability": "nonpayable",
      "type": "function"
    },
    {
      "inputs": [
        {
          "internalType": "uint256[]",
          "name": "amounts",
          "type": "uint256[]"
        },
        {
          "internalType": "address[]",
          "name": "tokens",
          "type": "address[]"
        },
        {
          "internalType": "uint256",
          "name": "amountLP",
          "type": "uint256"
        },
        {
          "internalType": "address",
          "name": "recipient",
          "type": "address"
        }
      ],
      "name": "deposit",
      "outputs": [
        {
          "internalType": "uint256",
          "name": "liquidity",
          "type": "uint256"
        }
      ],
      "stateMutability": "nonpayable",
      "type": "function"
    },
    {
      "inputs": [
        {
          "internalType": "address",
          "name": "origin",
          "type": "address"
        },
        {
          "internalType": "uint256",
          "name": "amount",
          "type": "uint256"
        },
        {
          "internalType": "bool",
          "name": "withdrawLP",
          "type": "bool"
        },
        {
          "internalType": "address",
          "name": "recipient",
          "type": "address"
        }
      ],
      "name": "withdraw",
      "outputs": [],
      "stateMutability": "nonpayable",
      "type": "function"
    },
    {
      "inputs": [
        {
          "components": [
            {
              "internalType": "uint256",
              "name": "distributionId",
              "type": "uint256"
            },
            {
              "internalType": "uint256",
              "name": "balance",
              "type": "uint256"
            },
            {
              "internalType": "address",
              "name": "distributor",
              "type": "address"
            },
            {
              "internalType": "uint256",
              "name": "tokenIndex",
              "type": "uint256"
            },
            {
              "internalType": "bytes32[]",
              "name": "merkleProof",
              "type": "bytes32[]"
            }
          ],
          "internalType": "struct MerkleOrchard.Claim[]",
          "name": "claims",
          "type": "tuple[]"
        },
        {
          "internalType": "contract IERC20[]",
          "name": "rewardTokens",
          "type": "address[]"
        },
        {
          "components": [
            {
              "internalType": "bytes32",
              "name": "poolId",
              "type": "bytes32"
            },
            {
              "internalType": "uint256",
              "name": "assetInIndex",
              "type": "uint256"
            },
            {
              "internalType": "uint256",
              "name": "assetOutIndex",
              "type": "uint256"
            },
            {
              "internalType": "uint256",
              "name": "amount",
              "type": "uint256"
            },
            {
              "internalType": "bytes",
              "name": "userData",
              "type": "bytes"
            }
          ],
          "internalType": "struct IVault.BatchSwapStep[][]",
          "name": "swaps",
          "type": "tuple[][]"
        },
        {
          "internalType": "contract IAsset[][]",
          "name": "assets",
          "type": "address[][]"
        },
        {
          "components": [
            {
              "internalType": "address",
              "name": "sender",
              "type": "address"
            },
            {
              "internalType": "bool",
              "name": "fromInternalBalance",
              "type": "bool"
            },
            {
              "internalType": "address payable",
              "name": "recipient",
              "type": "address"
            },
            {
              "internalType": "bool",
              "name": "toInternalBalance",
              "type": "bool"
            }
          ],
          "internalType": "struct IVault.FundManagement[]",
          "name": "funds",
          "type": "tuple[]"
        },
        {
          "internalType": "int256[][]",
          "name": "limits",
          "type": "int256[][]"
        }
      ],
      "name": "distribute",
      "outputs": [],
      "stateMutability": "nonpayable",
      "type": "function"
    },
    {
      "inputs": [
        {
          "internalType": "address",
          "name": "_address",
          "type": "address"
        }
      ],
      "name": "userBalance",
      "outputs": [
        {
          "internalType": "uint256",
          "name": "",
          "type": "uint256"
        }
      ],
      "stateMutability": "view",
      "type": "function"
    },
    {
      "inputs": [],
      "name": "getTotalDeposits",
      "outputs": [
        {
          "internalType": "uint256",
          "name": "",
          "type": "uint256"
        }
      ],
      "stateMutability": "view",
      "type": "function"
    }
  ],
  "bytecode": "0x60a06040523060805234801561001457600080fd5b506001606555608051612ff961005160003960008181610b3501528181610b75015281816110a9015281816110e9015261117c0152612ff96000f3fe6080604052600436106100dd5760003560e01c8063485cc9551161007f578063715018a611610059578063715018a6146102225780638da5cb5b14610237578063e00d2e6e14610255578063f2fde38b1461027557600080fd5b8063485cc955146101da5780634f1ef286146101fa57806352d1902d1461020d57600080fd5b80633659cfe6116100bb5780633659cfe61461014c5780633e0dc34e1461016c578063430004c114610182578063452ed4f1146101a257600080fd5b80630103c92b146100e2578063147b934814610115578063168a482214610137575b600080fd5b3480156100ee57600080fd5b506101026100fd366004611dd0565b610295565b6040519081526020015b60405180910390f35b34801561012157600080fd5b506101356101303660046124b0565b610320565b005b34801561014357600080fd5b50610102610af4565b34801561015857600080fd5b50610135610167366004611dd0565b610b2a565b34801561017857600080fd5b5061010260685481565b34801561018e57600080fd5b5061013561019d3660046125a4565b610c0a565b3480156101ae57600080fd5b506067546101c2906001600160a01b031681565b6040516001600160a01b03909116815260200161010c565b3480156101e657600080fd5b506101356101f53660046125f7565b610ecb565b610135610208366004612630565b61109e565b34801561021957600080fd5b5061010261116f565b34801561022e57600080fd5b50610135611222565b34801561024357600080fd5b506033546001600160a01b03166101c2565b34801561026157600080fd5b506101026102703660046126e3565b611258565b34801561028157600080fd5b50610135610290366004611dd0565b6116e1565b6001600160a01b0381166000908152606c6020526040812054606a5482916102f391670de0b6b3a7640000916102ed916102ce91611779565b6001600160a01b0387166000908152606b602052604090205490611785565b90611791565b6001600160a01b0384166000908152606b6020526040902054909150610319908261179d565b9392505050565b6033546001600160a01b031633146103535760405162461bcd60e51b815260040161034a906127b5565b60405180910390fd5b600260655414156103765760405162461bcd60e51b815260040161034a906127ea565b60026065556069546103da5760405162461bcd60e51b815260206004820152602760248201527f54686572652073686f756c6420626520736f6d6520746f6b656e7320696e20746044820152661a19481c1bdbdb60ca1b606482015260840161034a565b60405162ad8c0560e61b8152730f3e0c4218b7b0108a3643cfe9d3ec0d4f57c54e90632b630140906104149030908a908a90600401612865565b600060405180830381600087803b15801561042e57600080fd5b505af1158015610442573d6000803e3d6000fd5b5050505060005b835181101561075e5760005b8482815181106104675761046761294b565b6020026020010151518110156105195760675485516001600160a01b039091169086908490811061049a5761049a61294b565b602002602001015182815181106104b3576104b361294b565b60200260200101516001600160a01b031614156105075760405162461bcd60e51b815260206004820152601260248201527121b0b73a1039bbb0b8102628103a37b5b2b760711b604482015260640161034a565b8061051181612977565b915050610455565b50600084828151811061052e5761052e61294b565b60200260200101516000815181106105485761054861294b565b60209081029190910101516040516370a0823160e01b81523060048201529091506000906001600160a01b038316906370a0823190602401602060405180830381865afa15801561059d573d6000803e3d6000fd5b505050506040513d601f19601f820116820180604052508101906105c19190612992565b905080156107495760405163095ea7b360e01b815273ba12222222228d8ba445958a75a0704d566bf2c86004820152602481018290526001600160a01b0383169063095ea7b3906044016020604051808303816000875af115801561062a573d6000803e3d6000fd5b505050506040513d601f19601f8201168201806040525081019061064e91906129ab565b5073ba12222222228d8ba445958a75a0704d566bf2c86001600160a01b031663945bcec960008986815181106106865761068661294b565b60200260200101518987815181106106a0576106a061294b565b60200260200101518988815181106106ba576106ba61294b565b60200260200101518989815181106106d4576106d461294b565b60200260200101516000196040518763ffffffff1660e01b815260040161070096959493929190612a50565b6000604051808303816000875af115801561071f573d6000803e3d6000fd5b505050506040513d6000823e601f3d908101601f191682016040526107479190810190612b80565b505b5050808061075690612977565b915050610449565b50600080600061076c6117a9565b92509250925060005b8351811015610900578381815181106107905761079061294b565b60209081029190910101516040516370a0823160e01b81523060048201526001600160a01b03909116906370a0823190602401602060405180830381865afa1580156107e0573d6000803e3d6000fd5b505050506040513d601f19601f820116820180604052508101906108049190612992565b8282815181106108165761081661294b565b6020026020010181815250508381815181106108345761083461294b565b60200260200101516001600160a01b031663095ea7b373ba12222222228d8ba445958a75a0704d566bf2c88484815181106108715761087161294b565b60200260200101516040518363ffffffff1660e01b81526004016108aa9291906001600160a01b03929092168252602082015260400190565b6020604051808303816000875af11580156108c9573d6000803e3d6000fd5b505050506040513d601f19601f820116820180604052508101906108ed91906129ab565b50806108f881612977565b915050610775565b506067546040516370a0823160e01b81523060048201526000916001600160a01b0316906370a0823190602401602060405180830381865afa15801561094a573d6000803e3d6000fd5b505050506040513d601f19601f8201168201806040525081019061096e9190612992565b905073ba12222222228d8ba445958a75a0704d566bf2c86001600160a01b031663b95cac286068543030604051806080016040528089815260200188815260200160018960016040516020016109c693929190612c10565b6040516020818303038152906040528152602001600015158152506040518563ffffffff1660e01b8152600401610a009493929190612ca0565b600060405180830381600087803b158015610a1a57600080fd5b505af1158015610a2e573d6000803e3d6000fd5b50506067546040516370a0823160e01b8152306004820152600093506001600160a01b0390911691506370a0823190602401602060405180830381865afa158015610a7d573d6000803e3d6000fd5b505050506040513d601f19601f82011682018060405250810190610aa19190612992565b90506000610aaf8284611779565b9050610ade610ad56069546102ed84670de0b6b3a764000061178590919063ffffffff16565b606a549061179d565b606a555050600160655550505050505050505050565b6000610b25610b1c670de0b6b3a76400006102ed606a5460695461178590919063ffffffff16565b6069549061179d565b905090565b306001600160a01b037f0000000000000000000000000000000000000000000000000000000000000000161415610b735760405162461bcd60e51b815260040161034a90612cd2565b7f00000000000000000000000000000000000000000000000000000000000000006001600160a01b0316610bbc600080516020612f7d833981519152546001600160a01b031690565b6001600160a01b031614610be25760405162461bcd60e51b815260040161034a90612d1e565b610beb81611928565b60408051600080825260208201909252610c0791839190611952565b50565b6033546001600160a01b03163314610c345760405162461bcd60e51b815260040161034a906127b5565b60026065541415610c575760405162461bcd60e51b815260040161034a906127ea565b60026065556001600160a01b0384166000908152606b6020526040902054610cd15760405162461bcd60e51b815260206004820152602760248201527f54686520616d6f756e74207374616b65642073686f756c64206265206d6f72656044820152660207468616e20360cc1b606482015260840161034a565b6000610ce684610ce087610295565b90611779565b6001600160a01b0386166000908152606b6020526040902054606954919250610d1b918391610d159190611779565b9061179d565b6069556001600160a01b0385166000908152606b602052604090208190558015610d5c57606a546001600160a01b0386166000908152606c60205260409020555b508115610de05760675460405163a9059cbb60e01b81526001600160a01b038381166004830152602482018690529091169063a9059cbb906044016020604051808303816000875af1158015610db6573d6000803e3d6000fd5b505050506040513d601f19601f82011682018060405250810190610dda91906129ab565b50610ec0565b600080610deb6117a9565b925092505073ba12222222228d8ba445958a75a0704d566bf2c86001600160a01b0316638bdb39136068543086604051806080016040528088815260200187815260200160018c604051602001610e5192919060ff929092168252602082015260400190565b6040516020818303038152906040528152602001600015158152506040518563ffffffff1660e01b8152600401610e8b9493929190612ca0565b600060405180830381600087803b158015610ea557600080fd5b505af1158015610eb9573d6000803e3d6000fd5b5050505050505b505060016065555050565b600054610100900460ff16610ee65760005460ff1615610eea565b303b155b610f4d5760405162461bcd60e51b815260206004820152602e60248201527f496e697469616c697a61626c653a20636f6e747261637420697320616c72656160448201526d191e481a5b9a5d1a585b1a5e995960921b606482015260840161034a565b600054610100900460ff16158015610f6f576000805461ffff19166101011790555b610f77611abd565b610f80826116e1565b606780546001600160a01b0319166001600160a01b0385169081179091556040805163038fff2d60e41b815290516338fff2d0916004808201926020929091908290030181865afa158015610fd9573d6000803e3d6000fd5b505050506040513d601f19601f82011682018060405250810190610ffd9190612992565b60685560405163095ea7b360e01b815273ba12222222228d8ba445958a75a0704d566bf2c8600482015260001960248201526001600160a01b0384169063095ea7b3906044016020604051808303816000875af1158015611062573d6000803e3d6000fd5b505050506040513d601f19601f8201168201806040525081019061108691906129ab565b508015611099576000805461ff00191690555b505050565b306001600160a01b037f00000000000000000000000000000000000000000000000000000000000000001614156110e75760405162461bcd60e51b815260040161034a90612cd2565b7f00000000000000000000000000000000000000000000000000000000000000006001600160a01b0316611130600080516020612f7d833981519152546001600160a01b031690565b6001600160a01b0316146111565760405162461bcd60e51b815260040161034a90612d1e565b61115f82611928565b61116b82826001611952565b5050565b6000306001600160a01b037f0000000000000000000000000000000000000000000000000000000000000000161461120f5760405162461bcd60e51b815260206004820152603860248201527f555550535570677261646561626c653a206d757374206e6f742062652063616c60448201527f6c6564207468726f7567682064656c656761746563616c6c0000000000000000606482015260840161034a565b50600080516020612f7d83398151915290565b6033546001600160a01b0316331461124c5760405162461bcd60e51b815260040161034a906127b5565b6112566000611aec565b565b6033546000906001600160a01b031633146112855760405162461bcd60e51b815260040161034a906127b5565b600260655414156112a85760405162461bcd60e51b815260040161034a906127ea565b60026065556000806112b86117a9565b50915091506000805b8351811015611473578381815181106112dc576112dc61294b565b60200260200101516001600160a01b03168882815181106112ff576112ff61294b565b60200260200101516001600160a01b0316146113685760405162461bcd60e51b815260206004820152602260248201527f546f6b656e7320646f6e2774206d6174636820676574506f6f6c546f6b656e73604482015261282960f01b606482015260840161034a565b600089828151811061137c5761137c61294b565b60200260200101511115611461578161139457600191505b8381815181106113a6576113a661294b565b60200260200101516001600160a01b031663095ea7b373ba12222222228d8ba445958a75a0704d566bf2c88b84815181106113e3576113e361294b565b60200260200101516040518363ffffffff1660e01b815260040161141c9291906001600160a01b03929092168252602082015260400190565b6020604051808303816000875af115801561143b573d6000803e3d6000fd5b505050506040513d601f19601f8201168201806040525081019061145f91906129ab565b505b8061146b81612977565b9150506112c1565b506067546040516370a0823160e01b81523060048201526000916001600160a01b0316906370a0823190602401602060405180830381865afa1580156114bd573d6000803e3d6000fd5b505050506040513d601f19601f820116820180604052508101906114e19190612992565b905081156115b257600060405180608001604052808581526020018b815260200160018c600060405160200161151993929190612c10565b604051602081830303815290604052815260200160001515815250905073ba12222222228d8ba445958a75a0704d566bf2c86001600160a01b031663b95cac286068543030856040518563ffffffff1660e01b815260040161157e9493929190612ca0565b600060405180830381600087803b15801561159857600080fd5b505af11580156115ac573d6000803e3d6000fd5b50505050505b6067546040516370a0823160e01b81523060048201526000916001600160a01b0316906370a0823190602401602060405180830381865afa1580156115fb573d6000803e3d6000fd5b505050506040513d601f19601f8201168201806040525081019061161f9190612992565b905061162f88610d158385611779565b9550600086116116815760405162461bcd60e51b815260206004820152601860248201527f54686520616d6f756e742070726f766964656420697320300000000000000000604482015260640161034a565b505061169661168f86610295565b859061179d565b6001600160a01b0386166000908152606b6020908152604080832093909355606a54606c909152919020556069546116ce908561179d565b6069555050600160655550949350505050565b6033546001600160a01b0316331461170b5760405162461bcd60e51b815260040161034a906127b5565b6001600160a01b0381166117705760405162461bcd60e51b815260206004820152602660248201527f4f776e61626c653a206e6577206f776e657220697320746865207a65726f206160448201526564647265737360d01b606482015260840161034a565b610c0781611aec565b60006103198284612d6a565b60006103198284612d81565b60006103198284612da0565b60006103198284612dc2565b606854604051631f29a8cd60e31b81526060918291829173ba12222222228d8ba445958a75a0704d566bf2c89163f94d4668916117ec9160040190815260200190565b600060405180830381865afa158015611809573d6000803e3d6000fd5b505050506040513d6000823e601f3d908101601f191682016040526118319190810190612e35565b505080519093506001600160401b0381111561184f5761184f611ded565b604051908082528060200260200182016040528015611878578160200160208202803683370190505b50915082516001600160401b0381111561189457611894611ded565b6040519080825280602002602001820160405280156118bd578160200160208202803683370190505b50905060005b8351811015611922578381815181106118de576118de61294b565b60200260200101518382815181106118f8576118f861294b565b6001600160a01b03909216602092830291909101909101528061191a81612977565b9150506118c3565b50909192565b6033546001600160a01b03163314610c075760405162461bcd60e51b815260040161034a906127b5565b7f4910fdfa16fed3260ed0e7147f7cc6da11a60208b5b9406d12a635614ffd91435460ff16156119855761109983611b3e565b826001600160a01b03166352d1902d6040518163ffffffff1660e01b8152600401602060405180830381865afa9250505080156119df575060408051601f3d908101601f191682019092526119dc91810190612992565b60015b611a425760405162461bcd60e51b815260206004820152602e60248201527f45524331393637557067726164653a206e657720696d706c656d656e7461746960448201526d6f6e206973206e6f74205555505360901b606482015260840161034a565b600080516020612f7d8339815191528114611ab15760405162461bcd60e51b815260206004820152602960248201527f45524331393637557067726164653a20756e737570706f727465642070726f786044820152681a58589b195555525160ba1b606482015260840161034a565b50611099838383611bda565b600054610100900460ff16611ae45760405162461bcd60e51b815260040161034a90612f02565b611256611c05565b603380546001600160a01b038381166001600160a01b0319831681179093556040519116919082907f8be0079c531659141344cd1fd0a4f28419497f9722a3daafe3b4186f6b6457e090600090a35050565b6001600160a01b0381163b611bab5760405162461bcd60e51b815260206004820152602d60248201527f455243313936373a206e657720696d706c656d656e746174696f6e206973206e60448201526c1bdd08184818dbdb9d1c9858dd609a1b606482015260840161034a565b600080516020612f7d83398151915280546001600160a01b0319166001600160a01b0392909216919091179055565b611be383611c35565b600082511180611bf05750805b1561109957611bff8383611c75565b50505050565b600054610100900460ff16611c2c5760405162461bcd60e51b815260040161034a90612f02565b61125633611aec565b611c3e81611b3e565b6040516001600160a01b038216907fbc7cd75a20ee27fd9adebab32041f755214dbc6bffa90cc0225b39da2e5c2d3b90600090a250565b60606103198383604051806060016040528060278152602001612f9d6027913960606001600160a01b0384163b611cfd5760405162461bcd60e51b815260206004820152602660248201527f416464726573733a2064656c65676174652063616c6c20746f206e6f6e2d636f6044820152651b9d1c9858dd60d21b606482015260840161034a565b600080856001600160a01b031685604051611d189190612f4d565b600060405180830381855af49150503d8060008114611d53576040519150601f19603f3d011682016040523d82523d6000602084013e611d58565b606091505b5091509150611d68828286611d72565b9695505050505050565b60608315611d81575081610319565b825115611d915782518084602001fd5b8160405162461bcd60e51b815260040161034a9190612f69565b6001600160a01b0381168114610c0757600080fd5b8035611dcb81611dab565b919050565b600060208284031215611de257600080fd5b813561031981611dab565b634e487b7160e01b600052604160045260246000fd5b60405160a081016001600160401b0381118282101715611e2557611e25611ded565b60405290565b604051608081016001600160401b0381118282101715611e2557611e25611ded565b604051601f8201601f191681016001600160401b0381118282101715611e7557611e75611ded565b604052919050565b60006001600160401b03821115611e9657611e96611ded565b5060051b60200190565b600082601f830112611eb157600080fd5b81356020611ec6611ec183611e7d565b611e4d565b828152600592831b8501820192828201919087851115611ee557600080fd5b8387015b85811015611fe85780356001600160401b0380821115611f095760008081fd5b9089019060a0828c03601f1901811315611f235760008081fd5b611f2b611e03565b8884013581526040808501358a830152606080860135611f4a81611dab565b8383015260808681013582850152938601359385851115611f6d57600091508182fd5b84870196508f603f880112611f8457600095508586fd5b8b8701359550611f96611ec187611e7d565b86815295891b87018301958c8101955091508f861115611fb65760008081fd5b958201955b85871015611fd45786358552958b0195938b0193611fbb565b830152508752505050928401928401611ee9565b5090979650505050505050565b600082601f83011261200657600080fd5b81356020612016611ec183611e7d565b82815260059290921b8401810191818101908684111561203557600080fd5b8286015b8481101561205957803561204c81611dab565b8352918301918301612039565b509695505050505050565b600082601f83011261207557600080fd5b81356001600160401b0381111561208e5761208e611ded565b6120a1601f8201601f1916602001611e4d565b8181528460208386010111156120b657600080fd5b816020850160208301376000918101602001919091529392505050565b600082601f8301126120e457600080fd5b6120f1611ec18335611e7d565b82358082526020808301929160051b85010185101561210f57600080fd5b602084015b6020853560051b860101811015612230576001600160401b03808235111561213b57600080fd5b8135860187603f82011261214e57600080fd5b61215e611ec16020830135611e7d565b602082810135808352908201919060051b83016040018a81111561218157600080fd5b604084015b8181101561221957858135111561219c57600080fd5b8035850160a0818e03603f190112156121b457600080fd5b6121bc611e03565b60408201358152606082013560208201526080820135604082015260a082013560608201528760c083013511156121f257600080fd5b6122058e604060c0850135850101612064565b608082015285525060209384019301612186565b505086525050602093840193919091019050612114565b50949350505050565b600082601f83011261224a57600080fd5b8135602061225a611ec183611e7d565b828152600592831b850182019282820191908785111561227957600080fd5b8387015b85811015611fe85780356001600160401b0381111561229c5760008081fd5b8801603f81018a136122ae5760008081fd5b8581013560406122c0611ec183611e7d565b82815291851b8301810191888101908d8411156122dd5760008081fd5b938201935b8385101561230757843592506122f783611dab565b82825293890193908901906122e2565b88525050509385019350840161227d565b8015158114610c0757600080fd5b600082601f83011261233757600080fd5b81356020612347611ec183611e7d565b82815260079290921b8401810191818101908684111561236657600080fd5b8286015b8481101561205957608081890312156123835760008081fd5b61238b611e2b565b813561239681611dab565b8152818501356123a581612318565b818601526040828101356123b881611dab565b908201526060828101356123cb81612318565b9082015283529183019160800161236a565b600082601f8301126123ee57600080fd5b813560206123fe611ec183611e7d565b828152600592831b850182019282820191908785111561241d57600080fd5b8387015b85811015611fe85780356001600160401b038111156124405760008081fd5b8801603f81018a136124525760008081fd5b858101356040612464611ec183611e7d565b82815291851b8301810191888101908d8411156124815760008081fd5b938201935b8385101561249f57843582529389019390890190612486565b885250505093850193508401612421565b60008060008060008060c087890312156124c957600080fd5b86356001600160401b03808211156124e057600080fd5b6124ec8a838b01611ea0565b9750602089013591508082111561250257600080fd5b61250e8a838b01611ff5565b9650604089013591508082111561252457600080fd5b6125308a838b016120d3565b9550606089013591508082111561254657600080fd5b6125528a838b01612239565b9450608089013591508082111561256857600080fd5b6125748a838b01612326565b935060a089013591508082111561258a57600080fd5b5061259789828a016123dd565b9150509295509295509295565b600080600080608085870312156125ba57600080fd5b84356125c581611dab565b93506020850135925060408501356125dc81612318565b915060608501356125ec81611dab565b939692955090935050565b6000806040838503121561260a57600080fd5b823561261581611dab565b9150602083013561262581611dab565b809150509250929050565b6000806040838503121561264357600080fd5b823561264e81611dab565b915060208301356001600160401b0381111561266957600080fd5b61267585828601612064565b9150509250929050565b600082601f83011261269057600080fd5b813560206126a0611ec183611e7d565b82815260059290921b840181019181810190868411156126bf57600080fd5b8286015b848110156120595780356126d681611dab565b83529183019183016126c3565b600080600080608085870312156126f957600080fd5b84356001600160401b038082111561271057600080fd5b818701915087601f83011261272457600080fd5b81356020612734611ec183611e7d565b82815260059290921b8401810191818101908b84111561275357600080fd5b948201945b8386101561277157853582529482019490820190612758565b9850508801359250508082111561278757600080fd5b506127948782880161267f565b935050604085013591506127aa60608601611dc0565b905092959194509250565b6020808252818101527f4f776e61626c653a2063616c6c6572206973206e6f7420746865206f776e6572604082015260600190565b6020808252601f908201527f5265656e7472616e637947756172643a207265656e7472616e742063616c6c00604082015260600190565b600081518084526020808501945080840160005b8381101561285a5781516001600160a01b031687529582019590820190600101612835565b509495945050505050565b6001600160a01b038481168252606060208084018290528551848301819052600093608092909183870190600581901b880185018a840188805b84811015612926578b8403607f1901865282518051855287810151888601526040808201518a16908601528a8101518b86015289015160a08a860181905281519086018190529088019060c086019084905b808210156129115783518352928a0192918a0191600191909101906128f1565b5050968801969450509186019160010161289f565b50505088810360408a015261293b818b612821565b9c9b505050505050505050505050565b634e487b7160e01b600052603260045260246000fd5b634e487b7160e01b600052601160045260246000fd5b600060001982141561298b5761298b612961565b5060010190565b6000602082840312156129a457600080fd5b5051919050565b6000602082840312156129bd57600080fd5b815161031981612318565b60005b838110156129e35781810151838201526020016129cb565b83811115611bff5750506000910152565b60008151808452612a0c8160208601602086016129c8565b601f01601f19169290920160200192915050565b600081518084526020808501945080840160005b8381101561285a57815187529582019590820190600101612a34565b600061012080830160028a10612a7657634e487b7160e01b600052602160045260246000fd5b89845260208085019290925288519081905261014080850192600583901b8601909101918a820160005b82811015612b035787850361013f190186528151805186528481015185870152604080820151908701526060808201519087015260809081015160a091870182905290612aef818801836129f4565b978601979650505090830190600101612aa0565b505050508381036040850152612b198189612821565b915050612b59606084018780516001600160a01b039081168352602080830151151590840152604080830151909116908301526060908101511515910152565b82810360e0840152612b6b8186612a20565b91505082610100830152979650505050505050565b60006020808385031215612b9357600080fd5b82516001600160401b03811115612ba957600080fd5b8301601f81018513612bba57600080fd5b8051612bc8611ec182611e7d565b81815260059190911b82018301908381019087831115612be757600080fd5b928401925b82841015612c0557835182529284019290840190612bec565b979650505050505050565b60ff84168152606060208201526000612c2c6060830185612a20565b905060ff83166040830152949350505050565b6000815160808452612c546080850182612821565b905060208301518482036020860152612c6d8282612a20565b91505060408301518482036040860152612c8782826129f4565b9150506060830151151560608501528091505092915050565b8481526001600160a01b03848116602083015283166040820152608060608201819052600090611d6890830184612c3f565b6020808252602c908201527f46756e6374696f6e206d7573742062652063616c6c6564207468726f7567682060408201526b19195b1959d85d1958d85b1b60a21b606082015260800190565b6020808252602c908201527f46756e6374696f6e206d7573742062652063616c6c6564207468726f7567682060408201526b6163746976652070726f787960a01b606082015260800190565b600082821015612d7c57612d7c612961565b500390565b6000816000190483118215151615612d9b57612d9b612961565b500290565b600082612dbd57634e487b7160e01b600052601260045260246000fd5b500490565b60008219821115612dd557612dd5612961565b500190565b600082601f830112612deb57600080fd5b81516020612dfb611ec183611e7d565b82815260059290921b84018101918181019086841115612e1a57600080fd5b8286015b848110156120595780518352918301918301612e1e565b600080600060608486031215612e4a57600080fd5b83516001600160401b0380821115612e6157600080fd5b818601915086601f830112612e7557600080fd5b81516020612e85611ec183611e7d565b82815260059290921b8401810191818101908a841115612ea457600080fd5b948201945b83861015612ecb578551612ebc81611dab565b82529482019490820190612ea9565b91890151919750909350505080821115612ee457600080fd5b50612ef186828701612dda565b925050604084015190509250925092565b6020808252602b908201527f496e697469616c697a61626c653a20636f6e7472616374206973206e6f74206960408201526a6e697469616c697a696e6760a81b606082015260800190565b60008251612f5f8184602087016129c8565b9190910192915050565b60208152600061031960208301846129f456fe360894a13ba1a3210667c828492db98dca3e2076cc3735a920a3ca505d382bbc416464726573733a206c6f772d6c6576656c2064656c65676174652063616c6c206661696c6564a26469706673582212205b10bc647cef5dc1e7f625fb39b0b28ccaa86d354b53cdc3ee5776d72618ab6264736f6c634300080a0033",
  "immutableReferences": {
    "1452": [
      {
        "length": 32,
        "start": 2869
      },
      {
        "length": 32,
        "start": 2933
      },
      {
        "length": 32,
        "start": 4265
      },
      {
        "length": 32,
        "start": 4329
      },
      {
        "length": 32,
        "start": 4476
      }
    ]
  },
  "source": "// SPDX-License-Identifier: MIT\r\npragma solidity 0.8.10;\r\n\r\nimport \"../interfaces/IVault.sol\";\r\nimport \"../interfaces/MerkleOrchard.sol\"; \r\nimport \"../interfaces/IBasePool.sol\";\r\nimport \"@openzeppelin/contracts/utils/math/SafeMath.sol\";\r\nimport \"@openzeppelin/contracts-upgradeable/access/OwnableUpgradeable.sol\";\r\nimport \"@openzeppelin/contracts/proxy/utils/UUPSUpgradeable.sol\";\r\nimport \"@openzeppelin/contracts/security/ReentrancyGuard.sol\";\r\nimport \"../utils/Cooldown.sol\";\r\n\r\ncontract BalancerFarmUpgradeable is UUPSUpgradeable, Initializable, OwnableUpgradeable, ReentrancyGuard, Cooldown {\r\n    using SafeMath for uint256; \r\n\r\n    /**\r\n     * @dev Third Party Contracts:\r\n     * {Vault} - the main Balancer contract used for pool exits/joins and swaps.\r\n     * {merkleOrchard} - The contract that distributes reward tokens.\r\n     */   \r\n    IVault constant private Vault = IVault(0xBA12222222228d8Ba445958a75a0704d566BF2C8);\r\n    MerkleOrchard constant private merkleOrchard = MerkleOrchard(0x0F3e0c4218b7b0108a3643cFe9D3ec0d4F57c54e);\r\n\r\n    /**\r\n     * @dev Contract Variables:\r\n     * {lpPair} - The pair and the pool.\r\n     * {poolId} - Bytes32 representation of the {lpPair}.\r\n     * \r\n     * The implementation of Scalable Reward Distribution on the Ethereum Blockchain paper by B. Batog, L. Boca and N. Johnson.\r\n     * {totalDeposits} - The sum of all active stake deposits | (T).\r\n     * {sumOfRewards} - The sum of (rewards)/(totalDeposits) | (S).\r\n     * {stakes} - All stakes made by users | (stake).\r\n     * {sumOfRewardsForUser} - A sumOfRewards for users at pool join time | (S0).\r\n     */\r\n    address public lpPair;\r\n    bytes32 public poolId;\r\n     \r\n    uint256 private totalDeposits;\r\n    uint256 private sumOfRewards;\r\n    mapping(address => uint256) private stakes;\r\n    mapping(address => uint256) private sumOfRewardsForUser;\r\n\r\n    // ============ Methods ============\r\n\r\n    function initialize(address _lpPair, address owner) public initializer {\r\n        __Ownable_init();\r\n        transferOwnership(owner);\r\n        \r\n        lpPair = _lpPair;\r\n        poolId = IBasePool(_lpPair).getPoolId();\r\n        IERC20(_lpPair).approve(address(Vault), uint256(2**256 - 1));\r\n    }\r\n\r\n   /**\r\n     * @dev Function that makes the deposits.\r\n     * Deposits the {amounts} of {tokens} from this contract's balance to the {Vault}.\r\n     */\r\n    function deposit(uint256[] memory amounts, address[] memory tokens, uint256 amountLP, address recipient) external onlyOwner nonReentrant returns(uint256 liquidity){\r\n        (IERC20[] memory poolTokens, IAsset[] memory assets,) = getTokens();\r\n    \r\n        bool joinPool = false;\r\n        for (uint256 i = 0; i < poolTokens.length; i++) {\r\n            require (IERC20(tokens[i]) == poolTokens[i], \"Tokens don't match getPoolTokens()\");\r\n            if(amounts[i] > 0){\r\n                if(!joinPool){\r\n                    joinPool = true;\r\n                }\r\n                poolTokens[i].approve(address(Vault), amounts[i]);\r\n            }\r\n        }\r\n\r\n        {\r\n            uint256 amountBefore = IERC20(lpPair).balanceOf(address(this));\r\n            if(joinPool){\r\n                IVault.JoinPoolRequest memory joinPoolRequest = IVault.JoinPoolRequest(assets, amounts, abi.encode(1, amounts, 0), false);\r\n                Vault.joinPool(poolId, address(this), address(this), joinPoolRequest);\r\n            }\r\n            uint256 amountAfter = IERC20(lpPair).balanceOf(address(this));\r\n\r\n            liquidity = amountAfter.sub(amountBefore).add(amountLP); \r\n            require(liquidity > 0, 'The amount provided is 0');\r\n        }\r\n        \r\n        stakes[recipient] = liquidity.add(userBalance(recipient));\r\n        sumOfRewardsForUser[recipient] = sumOfRewards;\r\n        totalDeposits = totalDeposits.add(liquidity);\r\n    }\r\n\r\n    /**\r\n     * @dev Withdraws funds and sends them to the {recipient}.\r\n     */\r\n    function withdraw(address origin, uint256 amount, bool withdrawLP, address recipient) external onlyOwner nonReentrant{\r\n        require(stakes[origin] > 0, \"The amount staked should be more than 0\");\r\n        {\r\n            uint256 depositAmount = userBalance(origin).sub(amount);\r\n            totalDeposits = totalDeposits.sub(stakes[origin]).add(depositAmount);\r\n            stakes[origin] = depositAmount;\r\n\r\n            if(depositAmount > 0) {\r\n                sumOfRewardsForUser[origin] = sumOfRewards;\r\n            }\r\n        }\r\n        if(withdrawLP){\r\n            IERC20(lpPair).transfer(recipient, amount);\r\n            return;\r\n        }\r\n\r\n        (, IAsset[] memory assets, uint256[] memory amounts) = getTokens();\r\n        Vault.exitPool(poolId, address(this), payable(recipient), IVault.ExitPoolRequest(assets, amounts, abi.encode(1, amount), false));\r\n    }\r\n\r\n    /**\r\n     * @dev Core function of the strat, in charge of updating, collecting and re-investing rewards.\r\n     * 1. It claims rewards from the {merkleOrchard}.\r\n     * 2. It swaps the {rewardTokens} token for {assets}.\r\n     * 3. Then deposits the new tokens back to the {Vault}.\r\n     */\r\n    function distribute(\r\n        MerkleOrchard.Claim[] memory claims,\r\n        IERC20[] memory rewardTokens,\r\n        IVault.BatchSwapStep[][] memory swaps,\r\n        IAsset[][] memory assets,\r\n        IVault.FundManagement[] memory funds,\r\n        int256[][] memory limits\r\n    ) external onlyOwner nonReentrant{ \r\n        require(totalDeposits > 0, 'There should be some tokens in the pool');\r\n        merkleOrchard.claimDistributions(address(this), claims, rewardTokens);\r\n        for (uint256 i = 0; i < assets.length; i++) {\r\n            for (uint256 j = 0; j < assets[i].length; j++) {\r\n                require(address(assets[i][j]) != lpPair, 'Cant swap LP token');\r\n            }\r\n            IERC20 startingToken = IERC20(address(assets[i][0]));\r\n            uint256 balance = startingToken.balanceOf(address(this));\r\n            if (balance > 0) {\r\n                startingToken.approve(address(Vault), balance);\r\n                Vault.batchSwap(IVault.SwapKind.GIVEN_IN, swaps[i], assets[i], funds[i], limits[i], uint256(2**256 - 1));\r\n            }\r\n        }\r\n\r\n        (IERC20[] memory tokens, IAsset[] memory joinAssets, uint256[] memory joinAmounts) = getTokens();\r\n        for (uint256 i = 0; i < tokens.length; i++) {\r\n            joinAmounts[i] = tokens[i].balanceOf(address(this));\r\n            tokens[i].approve(address(Vault), joinAmounts[i]);\r\n        }\r\n        \r\n        uint256 amountBefore = IERC20(lpPair).balanceOf(address(this));\r\n        Vault.joinPool(poolId, address(this), address(this), IVault.JoinPoolRequest(joinAssets, joinAmounts, abi.encode(1, joinAmounts, 1), false));\r\n        uint256 amountAfter = IERC20(lpPair).balanceOf(address(this));\r\n\r\n        uint256 reward = amountAfter.sub(amountBefore);\r\n        sumOfRewards = sumOfRewards.add(uint256(1 ether).mul(reward).div(totalDeposits));\r\n    }\r\n\r\n    /**\r\n     * @dev Returns total funds staked by the {_address}.\r\n     */\r\n    function userBalance(address _address) public view returns (uint256){\r\n        uint256 reward = stakes[_address].mul(sumOfRewards.sub(sumOfRewardsForUser[_address])).div(uint256(1 ether));\r\n        return stakes[_address].add(reward);\r\n    }\r\n    \r\n    /**\r\n     * @dev Returns total amount locked in the pool.\r\n     */ \r\n    function getTotalDeposits() external view returns(uint256){\r\n       return totalDeposits.add(totalDeposits.mul(sumOfRewards).div(uint256(1 ether)));\r\n    }\r\n\r\n    /**\r\n     * @dev Utility function used to create IAsset array.\r\n     */ \r\n    function getTokens() internal view returns(IERC20[] memory tokens, IAsset[] memory assets, uint256[] memory amounts){\r\n        (tokens, , ) = Vault.getPoolTokens(poolId);\r\n        assets = new IAsset[](tokens.length);\r\n        amounts = new uint256[](tokens.length);\r\n        for (uint256 i = 0; i < tokens.length; i++) {\r\n            assets[i] = IAsset(address(tokens[i]));\r\n        }\r\n    }\r\n\r\n    function _authorizeUpgrade(address newImplementation) internal override onlyOwner {\r\n        \r\n    }\r\n}",
  "sourcePath": "C:\\Users\\jugli\\Desktop\\uno\\uno-contracts\\contracts\\farms\\BalancerFarmUpgradeable.sol",
  "compiler": {
    "name": "solc",
    "version": "0.8.10+commit.fc410830.Emscripten.clang"
  },
  "schemaVersion": "3.4.7",
  "updatedAt": "2022-04-25T08:46:03.203Z",
  "devdoc": {
    "kind": "dev",
    "methods": {
      "deposit(uint256[],address[],uint256,address)": {
        "details": "Function that makes the deposits. Deposits the {amounts} of {tokens} from this contract's balance to the {Vault}."
      },
      "distribute((uint256,uint256,address,uint256,bytes32[])[],address[],(bytes32,uint256,uint256,uint256,bytes)[][],address[][],(address,bool,address,bool)[],int256[][])": {
        "details": "Core function of the strat, in charge of updating, collecting and re-investing rewards. 1. It claims rewards from the {merkleOrchard}. 2. It swaps the {rewardTokens} token for {assets}. 3. Then deposits the new tokens back to the {Vault}."
      },
      "getTotalDeposits()": {
        "details": "Returns total amount locked in the pool."
      },
      "owner()": {
        "details": "Returns the address of the current owner."
      },
      "proxiableUUID()": {
        "details": "Implementation of the ERC1822 {proxiableUUID} function. This returns the storage slot used by the implementation. It is used to validate that the this implementation remains valid after an upgrade. IMPORTANT: A proxy pointing at a proxiable contract should not be considered proxiable itself, because this risks bricking a proxy that upgrades to it, by delegating to itself until out of gas. Thus it is critical that this function revert if invoked through a proxy. This is guaranteed by the `notDelegated` modifier."
      },
      "renounceOwnership()": {
        "details": "Leaves the contract without owner. It will not be possible to call `onlyOwner` functions anymore. Can only be called by the current owner. NOTE: Renouncing ownership will leave the contract without an owner, thereby removing any functionality that is only available to the owner."
      },
      "transferOwnership(address)": {
        "details": "Transfers ownership of the contract to a new account (`newOwner`). Can only be called by the current owner."
      },
      "upgradeTo(address)": {
        "details": "Upgrade the implementation of the proxy to `newImplementation`. Calls {_authorizeUpgrade}. Emits an {Upgraded} event."
      },
      "upgradeToAndCall(address,bytes)": {
        "details": "Upgrade the implementation of the proxy to `newImplementation`, and subsequently execute the function call encoded in `data`. Calls {_authorizeUpgrade}. Emits an {Upgraded} event."
      },
      "userBalance(address)": {
        "details": "Returns total funds staked by the {_address}."
      },
      "withdraw(address,uint256,bool,address)": {
        "details": "Withdraws funds and sends them to the {recipient}."
      }
    },
    "stateVariables": {
      "Vault": {
        "details": "Third Party Contracts: {Vault} - the main Balancer contract used for pool exits/joins and swaps. {merkleOrchard} - The contract that distributes reward tokens."
      },
      "lpPair": {
        "details": "Contract Variables: {lpPair} - The pair and the pool. {poolId} - Bytes32 representation of the {lpPair}.  The implementation of Scalable Reward Distribution on the Ethereum Blockchain paper by B. Batog, L. Boca and N. Johnson. {totalDeposits} - The sum of all active stake deposits | (T). {sumOfRewards} - The sum of (rewards)/(totalDeposits) | (S). {stakes} - All stakes made by users | (stake). {sumOfRewardsForUser} - A sumOfRewards for users at pool join time | (S0)."
      }
    },
    "version": 1
  },
  "userdoc": {
    "kind": "user",
    "methods": {},
    "version": 1
  }
}