{
  "contractName": "Farm",
  "abi": [
    {
      "anonymous": false,
      "inputs": [
        {
          "indexed": false,
          "internalType": "uint8",
          "name": "version",
          "type": "uint8"
        }
      ],
      "name": "Initialized",
      "type": "event"
    },
    {
      "inputs": [],
      "name": "assetRouter",
      "outputs": [
        {
          "internalType": "address",
          "name": "",
          "type": "address"
        }
      ],
      "stateMutability": "view",
      "type": "function"
    },
    {
      "inputs": [],
      "name": "lpStakingPool",
      "outputs": [
        {
          "internalType": "address",
          "name": "",
          "type": "address"
        }
      ],
      "stateMutability": "view",
      "type": "function"
    },
    {
      "inputs": [],
      "name": "version",
      "outputs": [
        {
          "internalType": "uint256",
          "name": "",
          "type": "uint256"
        }
      ],
      "stateMutability": "view",
      "type": "function"
    },
    {
      "inputs": [
        {
          "internalType": "address",
          "name": "_lpStakingPool",
          "type": "address"
        },
        {
          "internalType": "address",
          "name": "_assetRouter",
          "type": "address"
        }
      ],
      "name": "initialize",
      "outputs": [],
      "stateMutability": "nonpayable",
      "type": "function"
    }
  ],
  "bytecode": "0x608060405234801561001057600080fd5b50610362806100206000396000f3fe608060405234801561001057600080fd5b506004361061004c5760003560e01c8063485cc9551461005157806354fd4d501461006657806394cc699e14610081578063bc0aac10146100b2575b600080fd5b61006461005f3660046102ab565b6100c5565b005b61006e600181565b6040519081526020015b60405180910390f35b60005461009a906201000090046001600160a01b031681565b6040516001600160a01b039091168152602001610078565b60015461009a906001600160a01b031681565b60006100d16001610207565b905080156100e9576000805461ff0019166101001790555b6001600160a01b0383166101325760405162461bcd60e51b815260206004820152600b60248201526a10905117d31417d413d3d360aa1b60448201526064015b60405180910390fd5b6001600160a01b03821661017b5760405162461bcd60e51b815260206004820152601060248201526f2120a22fa0a9a9a2aa2fa927aaaa22a960811b6044820152606401610129565b6000805462010000600160b01b031916620100006001600160a01b038681169190910291909117909155600180546001600160a01b0319169184169190911790558015610202576000805461ff0019169055604051600181527f7f26b83ff96e1f2b6a682f133852f6798a09c465da95921460cefb38474024989060200160405180910390a15b505050565b60008054610100900460ff161561024e578160ff16600114801561022a5750303b155b6102465760405162461bcd60e51b8152600401610129906102de565b506000919050565b60005460ff8084169116106102755760405162461bcd60e51b8152600401610129906102de565b506000805460ff191660ff92909216919091179055600190565b919050565b80356001600160a01b038116811461028f57600080fd5b600080604083850312156102be57600080fd5b6102c783610294565b91506102d560208401610294565b90509250929050565b6020808252602e908201527f496e697469616c697a61626c653a20636f6e747261637420697320616c72656160408201526d191e481a5b9a5d1a585b1a5e995960921b60608201526080019056fea26469706673582212204f8b730209fc7b1d05bf7e4aebc069024d27380cef01ccdd66dd86ec1743035264736f6c634300080a0033",
  "immutableReferences": {},
  "source": "// SPDX-License-Identifier: MIT\r\npragma solidity 0.8.10;\r\nimport '@openzeppelin/contracts-upgradeable/proxy/utils/Initializable.sol';\r\n\r\ncontract Farm is Initializable {\r\n    address public lpStakingPool;\r\n    address public assetRouter;\r\n    uint256 public constant version = 1;\r\n\r\n    function initialize(address _lpStakingPool, address _assetRouter) external initializer {\r\n        require (_lpStakingPool != address(0), 'BAD_LP_POOL');\r\n        require (_assetRouter != address(0), 'BAD_ASSET_ROUTER');\r\n\r\n        lpStakingPool = _lpStakingPool;\r\n        assetRouter = _assetRouter;\r\n    }\r\n}\r\n",
  "sourcePath": "C:\\Users\\nick_\\OneDrive\\\\UNO\\Solidity\\autostrats_balancer\\uno-contracts\\contracts\\test\\farm.sol",
  "compiler": {
    "name": "solc",
    "version": "0.8.10+commit.fc410830.Emscripten.clang"
  },
  "schemaVersion": "3.4.7",
  "updatedAt": "2022-09-15T13:34:43.992Z",
  "devdoc": {
    "kind": "dev",
    "methods": {},
    "version": 1
  },
  "userdoc": {
    "kind": "user",
    "methods": {},
    "version": 1
  }
}