{
  "contractName": "FarmV2",
  "abi": [
    {
      "anonymous": false,
      "inputs": [
        {
          "indexed": false,
          "internalType": "uint8",
          "name": "version",
          "type": "uint8"
        }
      ],
      "name": "Initialized",
      "type": "event"
    },
    {
      "inputs": [],
      "name": "assetRouter",
      "outputs": [
        {
          "internalType": "address",
          "name": "",
          "type": "address"
        }
      ],
      "stateMutability": "view",
      "type": "function"
    },
    {
      "inputs": [],
      "name": "lpStakingPool",
      "outputs": [
        {
          "internalType": "address",
          "name": "",
          "type": "address"
        }
      ],
      "stateMutability": "view",
      "type": "function"
    },
    {
      "inputs": [],
      "name": "version",
      "outputs": [
        {
          "internalType": "uint256",
          "name": "",
          "type": "uint256"
        }
      ],
      "stateMutability": "view",
      "type": "function"
    },
    {
      "inputs": [
        {
          "internalType": "address",
          "name": "_lpStakingPool",
          "type": "address"
        },
        {
          "internalType": "address",
          "name": "_assetRouter",
          "type": "address"
        }
      ],
      "name": "initialize",
      "outputs": [],
      "stateMutability": "nonpayable",
      "type": "function"
    }
  ],
  "bytecode": "0x608060405234801561001057600080fd5b506102d9806100206000396000f3fe608060405234801561001057600080fd5b506004361061004c5760003560e01c8063485cc9551461005157806354fd4d501461006657806394cc699e14610081578063bc0aac10146100b2575b600080fd5b61006461005f366004610222565b6100c5565b005b61006e600281565b6040519081526020015b60405180910390f35b60005461009a906201000090046001600160a01b031681565b6040516001600160a01b039091168152602001610078565b60015461009a906001600160a01b031681565b60006100d16001610175565b905080156100e9576000805461ff0019166101001790555b6000805462010000600160b01b031916620100006001600160a01b038681169190910291909117909155600180546001600160a01b0319169184169190911790558015610170576000805461ff0019169055604051600181527f7f26b83ff96e1f2b6a682f133852f6798a09c465da95921460cefb38474024989060200160405180910390a15b505050565b60008054610100900460ff16156101c5578160ff1660011480156101985750303b155b6101bd5760405162461bcd60e51b81526004016101b490610255565b60405180910390fd5b506000919050565b60005460ff8084169116106101ec5760405162461bcd60e51b81526004016101b490610255565b506000805460ff191660ff92909216919091179055600190565b919050565b80356001600160a01b038116811461020657600080fd5b6000806040838503121561023557600080fd5b61023e8361020b565b915061024c6020840161020b565b90509250929050565b6020808252602e908201527f496e697469616c697a61626c653a20636f6e747261637420697320616c72656160408201526d191e481a5b9a5d1a585b1a5e995960921b60608201526080019056fea26469706673582212209b79e6f817595f2e22d612747751fd67a0ed25cf847bfa6d671920f41a4e05d464736f6c634300080a0033",
  "immutableReferences": {},
  "source": "// SPDX-License-Identifier: MIT\npragma solidity 0.8.10;\nimport '@openzeppelin/contracts-upgradeable/proxy/utils/Initializable.sol';\n\ncontract FarmV2 is Initializable {\n    address public lpStakingPool;\n    address public assetRouter;\n    uint256 public constant version = 2;\n\n    function initialize(address _lpStakingPool, address _assetRouter) external initializer {\n        lpStakingPool = _lpStakingPool;\n        assetRouter = _assetRouter;\n    }\n}\n",
  "sourcePath": "/Users/antondementyev/Desktop/work-mycelium/uno/uno-contracts/contracts/test/farmV2.sol",
  "compiler": {
    "name": "solc",
    "version": "0.8.10+commit.fc410830.Emscripten.clang"
  },
  "schemaVersion": "3.4.7",
  "updatedAt": "2022-08-06T09:32:59.031Z",
  "devdoc": {
    "kind": "dev",
    "methods": {},
    "version": 1
  },
  "userdoc": {
    "kind": "user",
    "methods": {},
    "version": 1
  }
}