{
  "contractName": "QuickswapFarmFactoryBeacon",
  "abi": [
    {
      "anonymous": false,
      "inputs": [
        {
          "indexed": true,
          "internalType": "address",
          "name": "sender",
          "type": "address"
        },
        {
          "indexed": true,
          "internalType": "address",
          "name": "lpPool",
          "type": "address"
        },
        {
          "indexed": false,
          "internalType": "uint256",
          "name": "amount",
          "type": "uint256"
        }
      ],
      "name": "Deposit",
      "type": "event"
    },
    {
      "anonymous": false,
      "inputs": [
        {
          "indexed": true,
          "internalType": "address",
          "name": "lpPool",
          "type": "address"
        }
      ],
      "name": "Distribute",
      "type": "event"
    },
    {
      "anonymous": false,
      "inputs": [
        {
          "indexed": true,
          "internalType": "address",
          "name": "newDistributor",
          "type": "address"
        }
      ],
      "name": "DistributorChanged",
      "type": "event"
    },
    {
      "anonymous": false,
      "inputs": [
        {
          "indexed": true,
          "internalType": "address",
          "name": "farmAddress",
          "type": "address"
        }
      ],
      "name": "FarmDeployed",
      "type": "event"
    },
    {
      "anonymous": false,
      "inputs": [
        {
          "indexed": true,
          "internalType": "address",
          "name": "previousOwner",
          "type": "address"
        },
        {
          "indexed": true,
          "internalType": "address",
          "name": "newOwner",
          "type": "address"
        }
      ],
      "name": "OwnershipTransferred",
      "type": "event"
    },
    {
      "anonymous": false,
      "inputs": [
        {
          "indexed": false,
          "internalType": "address",
          "name": "account",
          "type": "address"
        }
      ],
      "name": "Paused",
      "type": "event"
    },
    {
      "anonymous": false,
      "inputs": [
        {
          "indexed": false,
          "internalType": "address",
          "name": "account",
          "type": "address"
        }
      ],
      "name": "Unpaused",
      "type": "event"
    },
    {
      "anonymous": false,
      "inputs": [
        {
          "indexed": true,
          "internalType": "address",
          "name": "sender",
          "type": "address"
        },
        {
          "indexed": true,
          "internalType": "address",
          "name": "lpPool",
          "type": "address"
        },
        {
          "indexed": false,
          "internalType": "uint256",
          "name": "amount",
          "type": "uint256"
        }
      ],
      "name": "Withdraw",
      "type": "event"
    },
    {
      "inputs": [
        {
          "internalType": "address",
          "name": "",
          "type": "address"
        }
      ],
      "name": "Farms",
      "outputs": [
        {
          "internalType": "contract QuickswapFarmUpgradeable",
          "name": "",
          "type": "address"
        }
      ],
      "stateMutability": "view",
      "type": "function"
    },
    {
      "inputs": [],
      "name": "distributor",
      "outputs": [
        {
          "internalType": "address",
          "name": "",
          "type": "address"
        }
      ],
      "stateMutability": "view",
      "type": "function"
    },
    {
      "inputs": [],
      "name": "farmBeacon",
      "outputs": [
        {
          "internalType": "address",
          "name": "",
          "type": "address"
        }
      ],
      "stateMutability": "view",
      "type": "function"
    },
    {
      "inputs": [
        {
          "internalType": "uint256",
          "name": "",
          "type": "uint256"
        }
      ],
      "name": "lpPools",
      "outputs": [
        {
          "internalType": "address",
          "name": "",
          "type": "address"
        }
      ],
      "stateMutability": "view",
      "type": "function"
    },
    {
      "inputs": [],
      "name": "owner",
      "outputs": [
        {
          "internalType": "address",
          "name": "",
          "type": "address"
        }
      ],
      "stateMutability": "view",
      "type": "function"
    },
    {
      "inputs": [],
      "name": "paused",
      "outputs": [
        {
          "internalType": "bool",
          "name": "",
          "type": "bool"
        }
      ],
      "stateMutability": "view",
      "type": "function"
    },
    {
      "inputs": [
        {
          "internalType": "address",
          "name": "upgrader",
          "type": "address"
        }
      ],
      "name": "initialize",
      "outputs": [],
      "stateMutability": "nonpayable",
      "type": "function"
    },
    {
      "inputs": [
        {
          "internalType": "uint256",
          "name": "amountA",
          "type": "uint256"
        },
        {
          "internalType": "uint256",
          "name": "amountB",
          "type": "uint256"
        },
        {
          "internalType": "uint256",
          "name": "amountLP",
          "type": "uint256"
        },
        {
          "internalType": "address",
          "name": "lpStakingPool",
          "type": "address"
        },
        {
          "internalType": "address",
          "name": "recipient",
          "type": "address"
        }
      ],
      "name": "deposit",
      "outputs": [
        {
          "internalType": "uint256",
          "name": "sentA",
          "type": "uint256"
        },
        {
          "internalType": "uint256",
          "name": "sentB",
          "type": "uint256"
        },
        {
          "internalType": "uint256",
          "name": "liquidity",
          "type": "uint256"
        }
      ],
      "stateMutability": "nonpayable",
      "type": "function"
    },
    {
      "inputs": [
        {
          "internalType": "address",
          "name": "lpStakingPool",
          "type": "address"
        },
        {
          "internalType": "uint256",
          "name": "amount",
          "type": "uint256"
        },
        {
          "internalType": "bool",
          "name": "withdrawLP",
          "type": "bool"
        },
        {
          "internalType": "address",
          "name": "recipient",
          "type": "address"
        }
      ],
      "name": "withdraw",
      "outputs": [
        {
          "internalType": "uint256",
          "name": "amountA",
          "type": "uint256"
        },
        {
          "internalType": "uint256",
          "name": "amountB",
          "type": "uint256"
        }
      ],
      "stateMutability": "nonpayable",
      "type": "function"
    },
    {
      "inputs": [
        {
          "internalType": "address",
          "name": "lpStakingPool",
          "type": "address"
        },
        {
          "internalType": "address[]",
          "name": "rewardTokenToTokenARoute",
          "type": "address[]"
        },
        {
          "internalType": "address[]",
          "name": "rewardTokenToTokenBRoute",
          "type": "address[]"
        }
      ],
      "name": "distribute",
      "outputs": [],
      "stateMutability": "nonpayable",
      "type": "function"
    },
    {
      "inputs": [
        {
          "internalType": "address",
          "name": "_address",
          "type": "address"
        },
        {
          "internalType": "address",
          "name": "lpStakingPool",
          "type": "address"
        }
      ],
      "name": "userStake",
      "outputs": [
        {
          "internalType": "uint256",
          "name": "stakeLP",
          "type": "uint256"
        },
        {
          "internalType": "uint256",
          "name": "stakeA",
          "type": "uint256"
        },
        {
          "internalType": "uint256",
          "name": "stakeB",
          "type": "uint256"
        }
      ],
      "stateMutability": "view",
      "type": "function"
    },
    {
      "inputs": [
        {
          "internalType": "address",
          "name": "lpStakingPool",
          "type": "address"
        }
      ],
      "name": "totalDeposits",
      "outputs": [
        {
          "internalType": "uint256",
          "name": "totalDepositsLP",
          "type": "uint256"
        },
        {
          "internalType": "uint256",
          "name": "totalDepositsA",
          "type": "uint256"
        },
        {
          "internalType": "uint256",
          "name": "totalDepositsB",
          "type": "uint256"
        }
      ],
      "stateMutability": "view",
      "type": "function"
    },
    {
      "inputs": [],
      "name": "poolLength",
      "outputs": [
        {
          "internalType": "uint256",
          "name": "",
          "type": "uint256"
        }
      ],
      "stateMutability": "view",
      "type": "function"
    },
    {
      "inputs": [
        {
          "internalType": "address",
          "name": "newDistributor",
          "type": "address"
        }
      ],
      "name": "transferDistributor",
      "outputs": [],
      "stateMutability": "nonpayable",
      "type": "function"
    },
    {
      "inputs": [
        {
          "internalType": "address",
          "name": "newOwner",
          "type": "address"
        }
      ],
      "name": "transferOwnership",
      "outputs": [],
      "stateMutability": "nonpayable",
      "type": "function"
    },
    {
      "inputs": [],
      "name": "renounceOwnership",
      "outputs": [],
      "stateMutability": "nonpayable",
      "type": "function"
    },
    {
      "inputs": [],
      "name": "pause",
      "outputs": [],
      "stateMutability": "nonpayable",
      "type": "function"
    },
    {
      "inputs": [],
      "name": "unpause",
      "outputs": [],
      "stateMutability": "nonpayable",
      "type": "function"
    }
  ],
  "bytecode": "0x608060405234801561001057600080fd5b50615090806100206000396000f3fe60806040523480156200001157600080fd5b5060043610620000fa5760003560e01c8063081e3eda14620000ff57806333b10b3c14620001155780633f4ba83a146200012e578063430004c1146200013857806351bdca3e14620001655780635c975abb1462000198578063715018a614620001af5780637c770aae14620001b95780638456cb5914620001d05780638da5cb5b14620001da578063bfe1092814620001f3578063c4d66de81462000207578063d95a4d93146200021e578063e23329081462000232578063e94032561462000249578063ecb039431462000260578063f2fde38b1462000277578063f9d9331d146200028e575b600080fd5b609a546040519081526020015b60405180910390f35b6200012c62000126366004620018e1565b620002ba565b005b6200012c6200042d565b6200014f620001493660046200197b565b6200046d565b604080519283526020830191909152016200010c565b6200017c62000176366004620019d5565b620005bb565b604080519384526020840192909252908201526060016200010c565b60335460ff1660405190151581526020016200010c565b6200012c62000682565b6200017c620001ca36600462001a13565b6200072e565b6200012c62000b04565b620001e462000b42565b6040516200010c919062001a6e565b609854620001e4906001600160a01b031681565b6200012c6200021836600462001a82565b62000b51565b609754620001e4906001600160a01b031681565b6200012c6200024336600462001a82565b62000cba565b6200017c6200025a36600462001a82565b62000d38565b620001e46200027136600462001aa2565b62000df7565b6200012c6200028836600462001a82565b62000e22565b620001e46200029f36600462001a82565b6099602052600090815260409020546001600160a01b031681565b6098546001600160a01b03163314620003185760405162461bcd60e51b815260206004820152601b60248201527a21b0b63632b91034b9903737ba1030903234b9ba3934b13aba37b960291b60448201526064015b60405180910390fd5b60335460ff16156200033e5760405162461bcd60e51b81526004016200030f9062001abc565b6001600160a01b0385811660009081526099602052604090205416620003785760405162461bcd60e51b81526004016200030f9062001ae6565b6001600160a01b038086166000908152609960205260409081902054905162fd125360e81b815291169063fd12530090620003be90879087908790879060040162001b68565b600060405180830381600087803b158015620003d957600080fd5b505af1158015620003ee573d6000803e3d6000fd5b50506040516001600160a01b03881692507f2ab0d312ec5eef312bf327c57a266c37191bf9c85aeea6c7d67c3a2db9f05bb79150600090a25050505050565b336200043862000b42565b6001600160a01b031614620004615760405162461bcd60e51b81526004016200030f9062001b93565b6200046b62000f31565b565b6000806200047d60335460ff1690565b156200049d5760405162461bcd60e51b81526004016200030f9062001abc565b6001600160a01b0386811660009081526099602052604090205416620004d75760405162461bcd60e51b81526004016200030f9062001ae6565b6001600160a01b038681166000908152609960205260409081902054905163430004c160e01b8152336004820152602481018890528615156044820152858316606482015291169063430004c19060840160408051808303816000875af115801562000547573d6000803e3d6000fd5b505050506040513d601f19601f820116820180604052508101906200056d919062001bc8565b60405187815291935091506001600160a01b0387169033907f9b1bfa7fa9ee420a16e124f794c35ac9f90472acc99140eb2f6447c714cad8eb9060200160405180910390a394509492505050565b6001600160a01b0381811660009081526099602052604081205490918291829116156200067b576001600160a01b0380851660009081526099602052604090819020549051630103c92b60e01b8152911690630103c92b906200062390889060040162001a6e565b602060405180830381865afa15801562000641573d6000803e3d6000fd5b505050506040513d601f19601f8201168201806040525081019062000667919062001bed565b925062000675848462000fc2565b90925090505b9250925092565b336200068d62000b42565b6001600160a01b031614620006b65760405162461bcd60e51b81526004016200030f9062001b93565b620006c26000620012ee565b609760009054906101000a90046001600160a01b03166001600160a01b031663715018a66040518163ffffffff1660e01b8152600401600060405180830381600087803b1580156200071357600080fd5b505af115801562000728573d6000803e3d6000fd5b50505050565b60008060006200074060335460ff1690565b15620007605760405162461bcd60e51b81526004016200030f9062001abc565b6001600160a01b0385811660009081526099602052604090205416620007f3576200078b8562001340565b6001600160a01b0380871660008181526099602052604081208054949093166001600160a01b031994851617909255609a805460018101825592527f44da158ba27f9252712a74ff6a55c5d531f69609f1f6e7f17c4443a8e2089be490910180549092161790555b8715620008a9576001600160a01b03808616600090815260996020908152604080832054815162fc63d160e41b8152915193941692630fc63d10926004808401939192918290030181865afa15801562000851573d6000803e3d6000fd5b505050506040513d601f19601f8201168201806040525081019062000877919062001c07565b6001600160a01b03808816600090815260996020526040902054919250620008a791818416913391168c62001417565b505b861562000960576001600160a01b038086166000908152609960209081526040808320548151635f64b55b60e01b8152915193941692635f64b55b926004808401939192918290030181865afa15801562000908573d6000803e3d6000fd5b505050506040513d601f19601f820116820180604052508101906200092e919062001c07565b6001600160a01b038088166000908152609960205260409020549192506200095e91818416913391168b62001417565b505b851562000a17576001600160a01b03808616600090815260996020908152604080832054815163452ed4f160e01b815291519394169263452ed4f1926004808401939192918290030181865afa158015620009bf573d6000803e3d6000fd5b505050506040513d601f19601f82011682018060405250810190620009e5919062001c07565b6001600160a01b0380881660009081526099602052604090205491925062000a1591818416913391168a62001417565b505b6001600160a01b038581166000908152609960205260409081902054905163fad3cc4b60e01b8152600481018b9052602481018a905260448101899052868316606482015291169063fad3cc4b906084016060604051808303816000875af115801562000a88573d6000803e3d6000fd5b505050506040513d601f19601f8201168201806040525081019062000aae919062001c27565b60405181815292955090935091506001600160a01b0380871691908616907f5548c837ab068cf56a2c2479df0882a4922fd203edb7517321831d95078c5f629060200160405180910390a3955095509592505050565b3362000b0f62000b42565b6001600160a01b03161462000b385760405162461bcd60e51b81526004016200030f9062001b93565b6200046b62001473565b6065546001600160a01b031690565b600054610100900460ff1662000b6e5760005460ff161562000b78565b62000b78620014cf565b62000bdd5760405162461bcd60e51b815260206004820152602e60248201527f496e697469616c697a61626c653a20636f6e747261637420697320616c72656160448201526d191e481a5b9a5d1a585b1a5e995960921b60648201526084016200030f565b600054610100900460ff1615801562000c00576000805461ffff19166101011790555b62000c0a620014e2565b62000c1462001516565b600060405162000c249062001857565b604051809103906000f08015801562000c41573d6000803e3d6000fd5b5060405162000c509062001865565b62000c5c919062001a6e565b604051809103906000f08015801562000c79573d6000803e3d6000fd5b50609780546001600160a01b0319166001600160a01b038316179055905062000ca28362000e22565b50801562000cb6576000805461ff00191690555b5050565b3362000cc562000b42565b6001600160a01b03161462000cee5760405162461bcd60e51b81526004016200030f9062001b93565b609880546001600160a01b0319166001600160a01b0383169081179091556040517fe37acc13f5ed9d0cc83c2842e093fe5a494d5b8fb5b1db06356b327081832f5290600090a250565b6001600160a01b03818116600090815260996020526040812054909182918291161562000df0576001600160a01b03808516600090815260996020908152604091829020548251630b45241160e11b8152925193169263168a48229260048082019392918290030181865afa15801562000db6573d6000803e3d6000fd5b505050506040513d601f19601f8201168201806040525081019062000ddc919062001bed565b925062000dea848462000fc2565b90925090505b9193909250565b609a818154811062000e0857600080fd5b6000918252602090912001546001600160a01b0316905081565b3362000e2d62000b42565b6001600160a01b03161462000e565760405162461bcd60e51b81526004016200030f9062001b93565b6001600160a01b03811662000ebd5760405162461bcd60e51b815260206004820152602660248201527f4f776e61626c653a206e6577206f776e657220697320746865207a65726f206160448201526564647265737360d01b60648201526084016200030f565b62000ec881620012ee565b60975460405163f2fde38b60e01b81526001600160a01b039091169063f2fde38b9062000efa90849060040162001a6e565b600060405180830381600087803b15801562000f1557600080fd5b505af115801562000f2a573d6000803e3d6000fd5b5050505050565b60335460ff1662000f7c5760405162461bcd60e51b815260206004820152601460248201527314185d5cd8589b194e881b9bdd081c185d5cd95960621b60448201526064016200030f565b6033805460ff191690557f5db9ee0a495bf2e6ff9c91a7834c1ba4fdd244a5e8aa4e537bd38aeae4b073aa335b60405162000fb8919062001a6e565b60405180910390a1565b6001600160a01b03828116600090815260996020526040812054909182911615620012e7576001600160a01b03808516600090815260996020908152604080832054815163452ed4f160e01b815291519394169263452ed4f1926004808401939192918290030181865afa1580156200103f573d6000803e3d6000fd5b505050506040513d601f19601f8201168201806040525081019062001065919062001c07565b90506000816001600160a01b03166318160ddd6040518163ffffffff1660e01b8152600401602060405180830381865afa158015620010a8573d6000803e3d6000fd5b505050506040513d601f19601f82011682018060405250810190620010ce919062001bed565b6001600160a01b03808816600090815260996020908152604080832054815162fc63d160e41b8152915195965092949290931692630fc63d1092600480830193928290030181865afa15801562001129573d6000803e3d6000fd5b505050506040513d601f19601f820116820180604052508101906200114f919062001c07565b6001600160a01b03166370a08231846040518263ffffffff1660e01b81526004016200117c919062001a6e565b602060405180830381865afa1580156200119a573d6000803e3d6000fd5b505050506040513d601f19601f82011682018060405250810190620011c0919062001bed565b9050620011da82620011d388846200154a565b906200155f565b6001600160a01b038089166000908152609960209081526040808320548151635f64b55b60e01b81529151959a5092949290931692635f64b55b92600480830193928290030181865afa15801562001236573d6000803e3d6000fd5b505050506040513d601f19601f820116820180604052508101906200125c919062001c07565b6001600160a01b03166370a08231856040518263ffffffff1660e01b815260040162001289919062001a6e565b602060405180830381865afa158015620012a7573d6000803e3d6000fd5b505050506040513d601f19601f82011682018060405250810190620012cd919062001bed565b9050620012e083620011d389846200154a565b9450505050505b9250929050565b606580546001600160a01b038381166001600160a01b0319831681179093556040519116919082907f8be0079c531659141344cd1fd0a4f28419497f9722a3daafe3b4186f6b6457e090600090a35050565b60975460405160009182916001600160a01b039091169063189acdbd60e31b906200137090869060240162001a6e565b60408051601f198184030181529181526020820180516001600160e01b03166001600160e01b0319909416939093179092529051620013af9062001873565b620013bc92919062001cb3565b604051809103906000f080158015620013d9573d6000803e3d6000fd5b506040519091506001600160a01b038216907f7fee2c251a158c3c3bcc28f8db26af3c4a0483735c8f254b9aa8a0b5e0b56d0890600090a292915050565b604080516001600160a01b0385811660248301528416604482015260648082018490528251808303909101815260849091019091526020810180516001600160e01b03166323b872dd60e01b179052620007289085906200156d565b60335460ff1615620014995760405162461bcd60e51b81526004016200030f9062001abc565b6033805460ff191660011790557f62e78cea01bee320cd4e420270b5ea74000d11b0c9f74754ebdbfc544b05a25862000fa93390565b6000620014dc306200164b565b15905090565b600054610100900460ff166200150c5760405162461bcd60e51b81526004016200030f9062001cd9565b6200046b6200165a565b600054610100900460ff16620015405760405162461bcd60e51b81526004016200030f9062001cd9565b6200046b62001690565b600062001558828462001d24565b9392505050565b600062001558828462001d52565b6000620015c4826040518060400160405280602081526020017f5361666545524332303a206c6f772d6c6576656c2063616c6c206661696c6564815250856001600160a01b0316620016c59092919063ffffffff16565b805190915015620016465780806020019051810190620015e5919062001d75565b620016465760405162461bcd60e51b815260206004820152602a60248201527f5361666545524332303a204552433230206f7065726174696f6e20646964206e6044820152691bdd081cdd58d8d9595960b21b60648201526084016200030f565b505050565b6001600160a01b03163b151590565b600054610100900460ff16620016845760405162461bcd60e51b81526004016200030f9062001cd9565b6033805460ff19169055565b600054610100900460ff16620016ba5760405162461bcd60e51b81526004016200030f9062001cd9565b6200046b33620012ee565b6060620016d68484600085620016de565b949350505050565b606082471015620017415760405162461bcd60e51b815260206004820152602660248201527f416464726573733a20696e73756666696369656e742062616c616e636520666f6044820152651c8818d85b1b60d21b60648201526084016200030f565b6200174c856200164b565b6200179a5760405162461bcd60e51b815260206004820152601d60248201527f416464726573733a2063616c6c20746f206e6f6e2d636f6e747261637400000060448201526064016200030f565b600080866001600160a01b03168587604051620017b8919062001d95565b60006040518083038185875af1925050503d8060008114620017f7576040519150601f19603f3d011682016040523d82523d6000602084013e620017fc565b606091505b50915091506200180e82828662001819565b979650505050505050565b606083156200182a57508162001558565b8251156200183b5782518084602001fd5b8160405162461bcd60e51b81526004016200030f919062001db3565b6124098062001dc983390190565b61052380620041d283390190565b61096680620046f583390190565b6001600160a01b03811681146200189757600080fd5b50565b60008083601f840112620018ad57600080fd5b5081356001600160401b03811115620018c557600080fd5b6020830191508360208260051b8501011115620012e757600080fd5b600080600080600060608688031215620018fa57600080fd5b8535620019078162001881565b945060208601356001600160401b03808211156200192457600080fd5b6200193289838a016200189a565b909650945060408801359150808211156200194c57600080fd5b506200195b888289016200189a565b969995985093965092949392505050565b80151581146200189757600080fd5b600080600080608085870312156200199257600080fd5b84356200199f8162001881565b9350602085013592506040850135620019b8816200196c565b91506060850135620019ca8162001881565b939692955090935050565b60008060408385031215620019e957600080fd5b8235620019f68162001881565b9150602083013562001a088162001881565b809150509250929050565b600080600080600060a0868803121562001a2c57600080fd5b853594506020860135935060408601359250606086013562001a4e8162001881565b9150608086013562001a608162001881565b809150509295509295909350565b6001600160a01b0391909116815260200190565b60006020828403121562001a9557600080fd5b8135620015588162001881565b60006020828403121562001ab557600080fd5b5035919050565b60208082526010908201526f14185d5cd8589b194e881c185d5cd95960821b604082015260600190565b6020808252601b908201527a151a194819da5d995b881c1bdbdb08191bd95cdb9d08195e1a5cdd602a1b604082015260600190565b8183526000602080850194508260005b8581101562001b5d57813562001b418162001881565b6001600160a01b03168752958201959082019060010162001b2b565b509495945050505050565b60408152600062001b7e60408301868862001b1b565b82810360208401526200180e81858762001b1b565b6020808252818101527f4f776e61626c653a2063616c6c6572206973206e6f7420746865206f776e6572604082015260600190565b6000806040838503121562001bdc57600080fd5b505080516020909101519092909150565b60006020828403121562001c0057600080fd5b5051919050565b60006020828403121562001c1a57600080fd5b8151620015588162001881565b60008060006060848603121562001c3d57600080fd5b8351925060208401519150604084015190509250925092565b60005b8381101562001c7357818101518382015260200162001c59565b83811115620007285750506000910152565b6000815180845262001c9f81602086016020860162001c56565b601f01601f19169290920160200192915050565b6001600160a01b0383168152604060208201819052600090620016d69083018462001c85565b6020808252602b908201527f496e697469616c697a61626c653a20636f6e7472616374206973206e6f74206960408201526a6e697469616c697a696e6760a81b606082015260800190565b600081600019048311821515161562001d4d57634e487b7160e01b600052601160045260246000fd5b500290565b60008262001d7057634e487b7160e01b600052601260045260246000fd5b500490565b60006020828403121562001d8857600080fd5b815162001558816200196c565b6000825162001da981846020870162001c56565b9190910192915050565b60208152600062001558602083018462001c8556fe60a06040523060805234801561001457600080fd5b5060016065556080516123bf61004a600039600081816103420152818161038b0152818161060e015261064e01526123bf6000f3fe6080604052600436106100a25760003560e01c80630103c92b146100a75780630fc63d10146100da578063168a4822146101075780633659cfe61461011c578063430004c11461013e578063452ed4f1146101735780634f1ef286146101935780635f64b55b146101a65780638da5cb5b146101c6578063c4d66de8146101db578063f7c618c1146101fb578063fad3cc4b1461021b578063fd12530014610256575b600080fd5b3480156100b357600080fd5b506100c76100c2366004611c7a565b610276565b6040519081526020015b60405180910390f35b3480156100e657600080fd5b506068546100fa906001600160a01b031681565b6040516100d19190611c97565b34801561011357600080fd5b506100c7610301565b34801561012857600080fd5b5061013c610137366004611c7a565b610337565b005b34801561014a57600080fd5b5061015e610159366004611cb9565b610409565b604080519283526020830191909152016100d1565b34801561017f57600080fd5b506067546100fa906001600160a01b031681565b61013c6101a1366004611d52565b610603565b3480156101b257600080fd5b506069546100fa906001600160a01b031681565b3480156101d257600080fd5b506100fa6106bd565b3480156101e757600080fd5b5061013c6101f6366004611c7a565b6106cc565b34801561020757600080fd5b506066546100fa906001600160a01b031681565b34801561022757600080fd5b5061023b610236366004611df9565b610bed565b604080519384526020840192909252908201526060016100d1565b34801561026257600080fd5b5061013c610271366004611e7a565b610dde565b6001600160a01b0381166000908152606e6020526040812054606c5482916102d491670de0b6b3a7640000916102ce916102af91611358565b6001600160a01b0387166000908152606d602052604090205490611364565b90611370565b6001600160a01b0384166000908152606d60205260409020549091506102fa908261137c565b9392505050565b6000610332610329670de0b6b3a76400006102ce606c54606b5461136490919063ffffffff16565b606b549061137c565b905090565b306001600160a01b037f00000000000000000000000000000000000000000000000000000000000000001614156103895760405162461bcd60e51b815260040161038090611ee5565b60405180910390fd5b7f00000000000000000000000000000000000000000000000000000000000000006001600160a01b03166103bb611388565b6001600160a01b0316146103e15760405162461bcd60e51b815260040161038090611f1f565b6103ea816113a4565b60408051600080825260208201909252610406918391906113c0565b50565b600080336104156106bd565b6001600160a01b03161461042857600080fd5b6002606554141561044b5760405162461bcd60e51b815260040161038090611f59565b60026065556001600160a01b0386166000908152606d60205260409020546104c55760405162461bcd60e51b815260206004820152602760248201527f54686520616d6f756e74207374616b65642073686f756c64206265206d6f72656044820152660207468616e20360cc1b6064820152608401610380565b60006104d087611507565b905060006104de8288611358565b905080156104f0576104f088826115b8565b851561051b5760675461050d906001600160a01b03168689611654565b6000809350935050506105f3565b60685460695460008051602061236a8339815191529163baa2abde916001600160a01b0391821691168a6000808b6105554261025861137c565b60405160e089901b6001600160e01b03191681526001600160a01b039788166004820152958716602487015260448601949094526064850192909252608484015290921660a482015260c481019190915260e40160408051808303816000875af11580156105c7573d6000803e3d6000fd5b505050506040513d601f19601f820116820180604052508101906105eb9190611f90565b909450925050505b6001606555909590945092505050565b306001600160a01b037f000000000000000000000000000000000000000000000000000000000000000016141561064c5760405162461bcd60e51b815260040161038090611ee5565b7f00000000000000000000000000000000000000000000000000000000000000006001600160a01b031661067e611388565b6001600160a01b0316146106a45760405162461bcd60e51b815260040161038090611f1f565b6106ad826113a4565b6106b9828260016113c0565b5050565b6033546001600160a01b031690565b600054610100900460ff166106e75760005460ff16156106ef565b6106ef6116af565b61070b5760405162461bcd60e51b815260040161038090611fb4565b600054610100900460ff1615801561072d576000805461ffff19166101011790555b6107356116c0565b606a80546001600160a01b0319166001600160a01b038416908117909155604080516372f702f360e01b815290516372f702f3916004808201926020929091908290030181865afa15801561078e573d6000803e3d6000fd5b505050506040513d601f19601f820116820180604052508101906107b29190612002565b606780546001600160a01b0319166001600160a01b03928316179055606a546040805163d1af0c7d60e01b81529051919092169163d1af0c7d9160048083019260209291908290030181865afa158015610810573d6000803e3d6000fd5b505050506040513d601f19601f820116820180604052508101906108349190612002565b606680546001600160a01b0319166001600160a01b0392831617905560675460408051630dfe168160e01b815290519190921691630dfe16819160048083019260209291908290030181865afa158015610892573d6000803e3d6000fd5b505050506040513d601f19601f820116820180604052508101906108b69190612002565b606880546001600160a01b0319166001600160a01b039283161790556067546040805163d21220a760e01b81529051919092169163d21220a79160048083019260209291908290030181865afa158015610914573d6000803e3d6000fd5b505050506040513d601f19601f820116820180604052508101906109389190612002565b606980546001600160a01b0319166001600160a01b0392831617905560675460405163095ea7b360e01b815260001992919091169063095ea7b390610983908690859060040161201f565b6020604051808303816000875af11580156109a2573d6000803e3d6000fd5b505050506040513d601f19601f820116820180604052508101906109c69190612038565b5060675460405163095ea7b360e01b81526001600160a01b039091169063095ea7b390610a079060008051602061236a83398151915290859060040161201f565b6020604051808303816000875af1158015610a26573d6000803e3d6000fd5b505050506040513d601f19601f82011682018060405250810190610a4a9190612038565b5060665460405163095ea7b360e01b81526001600160a01b039091169063095ea7b390610a8b9060008051602061236a83398151915290859060040161201f565b6020604051808303816000875af1158015610aaa573d6000803e3d6000fd5b505050506040513d601f19601f82011682018060405250810190610ace9190612038565b5060685460405163095ea7b360e01b81526001600160a01b039091169063095ea7b390610b0f9060008051602061236a83398151915290859060040161201f565b6020604051808303816000875af1158015610b2e573d6000803e3d6000fd5b505050506040513d601f19601f82011682018060405250810190610b529190612038565b5060695460405163095ea7b360e01b81526001600160a01b039091169063095ea7b390610b939060008051602061236a83398151915290859060040161201f565b6020604051808303816000875af1158015610bb2573d6000803e3d6000fd5b505050506040513d601f19601f82011682018060405250810190610bd69190612038565b505080156106b9576000805461ff00191690555050565b6000808033610bfa6106bd565b6001600160a01b031614610c0d57600080fd5b60026065541415610c305760405162461bcd60e51b815260040161038090611f59565b60026065556001600160a01b0384166000908152606d602052604081205415610c5f57610c5c85611507565b90505b60008089118015610c705750600088115b15610d1e5760685460695460008051602061236a8339815191529163e8e33700916001600160a01b0391821691168c8c60008030610cb04261025861137c565b6040518963ffffffff1660e01b8152600401610cd3989796959493929190612055565b6060604051808303816000875af1158015610cf2573d6000803e3d6000fd5b505050506040513d601f19601f82011682018060405250810190610d16919061209e565b919650945090505b610d28818861137c565b925060008311610d755760405162461bcd60e51b8152602060048201526018602482015277054686520616d6f756e742070726f766964656420697320360441b6044820152606401610380565b610d8886610d83858561137c565b6115b8565b610da986610d968b88611358565b6068546001600160a01b03169190611654565b610dca86610db78a87611358565b6069546001600160a01b03169190611654565b505060016065819055509450945094915050565b33610de76106bd565b6001600160a01b031614610dfa57600080fd5b60026065541415610e1d5760405162461bcd60e51b815260040161038090611f59565b6002606555606b54610e815760405162461bcd60e51b815260206004820152602760248201527f54686572652073686f756c6420626520736f6d6520746f6b656e7320696e20746044820152661a19481c1bdbdb60ca1b6064820152608401610380565b606a60009054906101000a90046001600160a01b03166001600160a01b0316633d18b9126040518163ffffffff1660e01b8152600401600060405180830381600087803b158015610ed157600080fd5b505af1158015610ee5573d6000803e3d6000fd5b50506066546040516370a0823160e01b815260009350610f6292506002916001600160a01b0316906370a0823190610f21903090600401611c97565b602060405180830381865afa158015610f3e573d6000803e3d6000fd5b505050506040513d601f19601f820116820180604052508101906102ce91906120cc565b6066546068549192506001600160a01b0391821691161461100d5760008051602061236a8339815191526338ed1739826000888830610fa34261025861137c565b6040518763ffffffff1660e01b8152600401610fc4969594939291906120e5565b6000604051808303816000875af1158015610fe3573d6000803e3d6000fd5b505050506040513d6000823e601f3d908101601f1916820160405261100b9190810190612158565b505b6066546069546001600160a01b039081169116146110b55760008051602061236a8339815191526338ed173982600086863061104b4261025861137c565b6040518763ffffffff1660e01b815260040161106c969594939291906120e5565b6000604051808303816000875af115801561108b573d6000803e3d6000fd5b505050506040513d6000823e601f3d908101601f191682016040526110b39190810190612158565b505b6068546040516370a0823160e01b81526000916001600160a01b0316906370a08231906110e6903090600401611c97565b602060405180830381865afa158015611103573d6000803e3d6000fd5b505050506040513d601f19601f8201168201806040525081019061112791906120cc565b6069546040516370a0823160e01b81529192506000916001600160a01b03909116906370a082319061115d903090600401611c97565b602060405180830381865afa15801561117a573d6000803e3d6000fd5b505050506040513d601f19601f8201168201806040525081019061119e91906120cc565b60685460695491925060008051602061236a8339815191529163e8e33700916001600160a01b0390811691168585600180306111dc4261025861137c565b6040518963ffffffff1660e01b81526004016111ff989796959493929190612055565b6060604051808303816000875af115801561121e573d6000803e3d6000fd5b505050506040513d601f19601f82011682018060405250810190611242919061209e565b50506067546040516370a0823160e01b8152600092506001600160a01b03909116906370a0823190611278903090600401611c97565b602060405180830381865afa158015611295573d6000803e3d6000fd5b505050506040513d601f19601f820116820180604052508101906112b991906120cc565b9050801561134957606b546112e7906112de906102ce670de0b6b3a764000085611364565b606c549061137c565b606c55606a5460405163534a7e1d60e11b8152600481018390526001600160a01b039091169063a694fc3a90602401600060405180830381600087803b15801561133057600080fd5b505af1158015611344573d6000803e3d6000fd5b505050505b50506001606555505050505050565b60006102fa8284612213565b60006102fa828461222a565b60006102fa8284612249565b60006102fa828461226b565b600080516020612323833981519152546001600160a01b031690565b336113ad6106bd565b6001600160a01b03161461040657600080fd5b60006113ca611388565b90506113d584611745565b6000835111806113e25750815b156113f3576113f184846117d8565b505b7f4910fdfa16fed3260ed0e7147f7cc6da11a60208b5b9406d12a635614ffd9143805460ff1661150057805460ff1916600117815560405161146e90869061143f908590602401611c97565b60408051601f198184030181529190526020810180516001600160e01b0316631b2ce7f360e11b1790526117d8565b50805460ff1916815561147f611388565b6001600160a01b0316826001600160a01b0316146114f75760405162461bcd60e51b815260206004820152602f60248201527f45524331393637557067726164653a207570677261646520627265616b73206660448201526e75727468657220757067726164657360881b6064820152608401610380565b611500856117fd565b5050505050565b60008061151383610276565b6001600160a01b0384166000908152606d6020526040902054606b5491925061153c9190611358565b606b556001600160a01b038381166000908152606d602052604080822091909155606a549051632e1a7d4d60e01b815260048101849052911690632e1a7d4d90602401600060405180830381600087803b15801561159957600080fd5b505af11580156115ad573d6000803e3d6000fd5b509295945050505050565b6001600160a01b0382166000908152606d60209081526040808320849055606c54606e90925290912055606b546115ef908261137c565b606b55606a5460405163534a7e1d60e11b8152600481018390526001600160a01b039091169063a694fc3a90602401600060405180830381600087803b15801561163857600080fd5b505af115801561164c573d6000803e3d6000fd5b505050505050565b6116aa8363a9059cbb60e01b848460405160240161167392919061201f565b60408051601f198184030181529190526020810180516001600160e01b03166001600160e01b03199093169290921790915261183d565b505050565b60006116ba3061190f565b15905090565b600054610100900460ff166116db5760005460ff16156116e3565b6116e36116af565b6116ff5760405162461bcd60e51b815260040161038090611fb4565b600054610100900460ff16158015611721576000805461ffff19166101011790555b61172961191e565b61173161198b565b8015610406576000805461ff001916905550565b803b6117a95760405162461bcd60e51b815260206004820152602d60248201527f455243313936373a206e657720696d706c656d656e746174696f6e206973206e60448201526c1bdd08184818dbdb9d1c9858dd609a1b6064820152608401610380565b60008051602061232383398151915280546001600160a01b0319166001600160a01b0392909216919091179055565b60606102fa838360405180606001604052806027815260200161234360279139611a12565b61180681611745565b6040516001600160a01b038216907fbc7cd75a20ee27fd9adebab32041f755214dbc6bffa90cc0225b39da2e5c2d3b90600090a250565b6000611892826040518060400160405280602081526020017f5361666545524332303a206c6f772d6c6576656c2063616c6c206661696c6564815250856001600160a01b0316611ae69092919063ffffffff16565b8051909150156116aa57808060200190518101906118b09190612038565b6116aa5760405162461bcd60e51b815260206004820152602a60248201527f5361666545524332303a204552433230206f7065726174696f6e20646964206e6044820152691bdd081cdd58d8d9595960b21b6064820152608401610380565b6001600160a01b03163b151590565b600054610100900460ff166119895760405162461bcd60e51b815260206004820152602b60248201527f496e697469616c697a61626c653a20636f6e7472616374206973206e6f74206960448201526a6e697469616c697a696e6760a81b6064820152608401610380565b565b600054610100900460ff166119a65760005460ff16156119ae565b6119ae6116af565b6119ca5760405162461bcd60e51b815260040161038090611fb4565b600054610100900460ff161580156119ec576000805461ffff19166101011790555b603380546001600160a01b031916331790558015610406576000805461ff001916905550565b6060833b611a715760405162461bcd60e51b815260206004820152602660248201527f416464726573733a2064656c65676174652063616c6c20746f206e6f6e2d636f6044820152651b9d1c9858dd60d21b6064820152608401610380565b600080856001600160a01b031685604051611a8c91906122b3565b600060405180830381855af49150503d8060008114611ac7576040519150601f19603f3d011682016040523d82523d6000602084013e611acc565b606091505b5091509150611adc828286611afd565b9695505050505050565b6060611af58484600085611b36565b949350505050565b60608315611b0c5750816102fa565b825115611b1c5782518084602001fd5b8160405162461bcd60e51b815260040161038091906122cf565b606082471015611b975760405162461bcd60e51b815260206004820152602660248201527f416464726573733a20696e73756666696369656e742062616c616e636520666f6044820152651c8818d85b1b60d21b6064820152608401610380565b611ba08561190f565b611bec5760405162461bcd60e51b815260206004820152601d60248201527f416464726573733a2063616c6c20746f206e6f6e2d636f6e74726163740000006044820152606401610380565b600080866001600160a01b03168587604051611c0891906122b3565b60006040518083038185875af1925050503d8060008114611c45576040519150601f19603f3d011682016040523d82523d6000602084013e611c4a565b606091505b5091509150611c5a828286611afd565b979650505050505050565b6001600160a01b038116811461040657600080fd5b600060208284031215611c8c57600080fd5b81356102fa81611c65565b6001600160a01b0391909116815260200190565b801515811461040657600080fd5b60008060008060808587031215611ccf57600080fd5b8435611cda81611c65565b9350602085013592506040850135611cf181611cab565b91506060850135611d0181611c65565b939692955090935050565b634e487b7160e01b600052604160045260246000fd5b604051601f8201601f191681016001600160401b0381118282101715611d4a57611d4a611d0c565b604052919050565b60008060408385031215611d6557600080fd5b8235611d7081611c65565b91506020838101356001600160401b0380821115611d8d57600080fd5b818601915086601f830112611da157600080fd5b813581811115611db357611db3611d0c565b611dc5601f8201601f19168501611d22565b91508082528784828501011115611ddb57600080fd5b80848401858401376000848284010152508093505050509250929050565b60008060008060808587031215611e0f57600080fd5b8435935060208501359250604085013591506060850135611d0181611c65565b60008083601f840112611e4157600080fd5b5081356001600160401b03811115611e5857600080fd5b6020830191508360208260051b8501011115611e7357600080fd5b9250929050565b60008060008060408587031215611e9057600080fd5b84356001600160401b0380821115611ea757600080fd5b611eb388838901611e2f565b90965094506020870135915080821115611ecc57600080fd5b50611ed987828801611e2f565b95989497509550505050565b6020808252602c9082015260008051602061230383398151915260408201526b19195b1959d85d1958d85b1b60a21b606082015260800190565b6020808252602c9082015260008051602061230383398151915260408201526b6163746976652070726f787960a01b606082015260800190565b6020808252601f908201527f5265656e7472616e637947756172643a207265656e7472616e742063616c6c00604082015260600190565b60008060408385031215611fa357600080fd5b505080516020909101519092909150565b6020808252602e908201527f496e697469616c697a61626c653a20636f6e747261637420697320616c72656160408201526d191e481a5b9a5d1a585b1a5e995960921b606082015260800190565b60006020828403121561201457600080fd5b81516102fa81611c65565b6001600160a01b03929092168252602082015260400190565b60006020828403121561204a57600080fd5b81516102fa81611cab565b6001600160a01b039889168152968816602088015260408701959095526060860193909352608085019190915260a084015290921660c082015260e08101919091526101000190565b6000806000606084860312156120b357600080fd5b8351925060208401519150604084015190509250925092565b6000602082840312156120de57600080fd5b5051919050565b868152602080820187905260a0604083018190528201859052600090869060c08401835b8881101561213757833561211c81611c65565b6001600160a01b031682529282019290820190600101612109565b506001600160a01b0396909616606085015250505060800152949350505050565b6000602080838503121561216b57600080fd5b82516001600160401b038082111561218257600080fd5b818501915085601f83011261219657600080fd5b8151818111156121a8576121a8611d0c565b8060051b91506121b9848301611d22565b81815291830184019184810190888411156121d357600080fd5b938501935b838510156121f1578451825293850193908501906121d8565b98975050505050505050565b634e487b7160e01b600052601160045260246000fd5b600082821015612225576122256121fd565b500390565b6000816000190483118215151615612244576122446121fd565b500290565b60008261226657634e487b7160e01b600052601260045260246000fd5b500490565b6000821982111561227e5761227e6121fd565b500190565b60005b8381101561229e578181015183820152602001612286565b838111156122ad576000848401525b50505050565b600082516122c5818460208701612283565b9190910192915050565b60208152600082518060208401526122ee816040850160208701612283565b601f01601f1916919091016040019291505056fe46756e6374696f6e206d7573742062652063616c6c6564207468726f75676820360894a13ba1a3210667c828492db98dca3e2076cc3735a920a3ca505d382bbc416464726573733a206c6f772d6c6576656c2064656c65676174652063616c6c206661696c6564000000000000000000000000a5e0829caced8ffdd4de3c43696c57f7d7a678ffa26469706673582212203ae1c1829b27772d2269e81366215c662d965b941e0efed12a758cbb81c4e4da64736f6c634300080a0033608060405234801561001057600080fd5b5060405161052338038061052383398101604081905261002f91610148565b61003833610047565b61004181610097565b50610178565b600080546001600160a01b038381166001600160a01b0319831681178455604051919092169283917f8be0079c531659141344cd1fd0a4f28419497f9722a3daafe3b4186f6b6457e09190a35050565b6100aa8161014260201b61021f1760201c565b6101205760405162461bcd60e51b815260206004820152603360248201527f5570677261646561626c65426561636f6e3a20696d706c656d656e746174696f60448201527f6e206973206e6f74206120636f6e747261637400000000000000000000000000606482015260840160405180910390fd5b600180546001600160a01b0319166001600160a01b0392909216919091179055565b3b151590565b60006020828403121561015a57600080fd5b81516001600160a01b038116811461017157600080fd5b9392505050565b61039c806101876000396000f3fe608060405234801561001057600080fd5b50600436106100575760003560e01c80633659cfe61461005c5780635c60da1b14610071578063715018a61461009a5780638da5cb5b146100a2578063f2fde38b146100aa575b600080fd5b61006f61006a366004610301565b6100bd565b005b6001546001600160a01b03165b6040516001600160a01b03909116815260200160405180910390f35b61006f610135565b61007e610170565b61006f6100b8366004610301565b61017f565b336100c6610170565b6001600160a01b0316146100f55760405162461bcd60e51b81526004016100ec90610331565b60405180910390fd5b6100fe81610225565b6040516001600160a01b038216907fbc7cd75a20ee27fd9adebab32041f755214dbc6bffa90cc0225b39da2e5c2d3b90600090a250565b3361013e610170565b6001600160a01b0316146101645760405162461bcd60e51b81526004016100ec90610331565b61016e60006102b1565b565b6000546001600160a01b031690565b33610188610170565b6001600160a01b0316146101ae5760405162461bcd60e51b81526004016100ec90610331565b6001600160a01b0381166102135760405162461bcd60e51b815260206004820152602660248201527f4f776e61626c653a206e6577206f776e657220697320746865207a65726f206160448201526564647265737360d01b60648201526084016100ec565b61021c816102b1565b50565b3b151590565b803b61028f5760405162461bcd60e51b815260206004820152603360248201527f5570677261646561626c65426561636f6e3a20696d706c656d656e746174696f6044820152721b881a5cc81b9bdd08184818dbdb9d1c9858dd606a1b60648201526084016100ec565b600180546001600160a01b0319166001600160a01b0392909216919091179055565b600080546001600160a01b038381166001600160a01b0319831681178455604051919092169283917f8be0079c531659141344cd1fd0a4f28419497f9722a3daafe3b4186f6b6457e09190a35050565b60006020828403121561031357600080fd5b81356001600160a01b038116811461032a57600080fd5b9392505050565b6020808252818101527f4f776e61626c653a2063616c6c6572206973206e6f7420746865206f776e657260408201526060019056fea2646970667358221220d3d4a860e145913f032ee28b0976994c159bea78f64580a84c890ece6cd002a064736f6c634300080a0033608060405260405161096638038061096683398101604081905261002291610479565b61004d60017fa3f0ad74e5423aebfd80d3ef4346578335a9a72aeaee59ff6cb3582b35133d51610539565b60008051602061091f833981519152146100695761006961055e565b6100758282600061007c565b50506105de565b61008583610147565b6040516001600160a01b038416907f1cf3b03a6cf19fa2baba4df148e9dcabedea7f8a5c07840e207e5c089be95d3e90600090a26000825111806100c65750805b1561014257610140836001600160a01b0316635c60da1b6040518163ffffffff1660e01b8152600401602060405180830381865afa15801561010c573d6000803e3d6000fd5b505050506040513d601f19601f820116820180604052508101906101309190610574565b836102d860201b6100291760201c565b505b505050565b61015a8161030460201b6100551760201c565b6101b95760405162461bcd60e51b815260206004820152602560248201527f455243313936373a206e657720626561636f6e206973206e6f74206120636f6e6044820152641d1c9858dd60da1b60648201526084015b60405180910390fd5b61022d816001600160a01b0316635c60da1b6040518163ffffffff1660e01b8152600401602060405180830381865afa1580156101fa573d6000803e3d6000fd5b505050506040513d601f19601f8201168201806040525081019061021e9190610574565b61030460201b6100551760201c565b6102925760405162461bcd60e51b815260206004820152603060248201527f455243313936373a20626561636f6e20696d706c656d656e746174696f6e206960448201526f1cc81b9bdd08184818dbdb9d1c9858dd60821b60648201526084016101b0565b806102b760008051602061091f83398151915260001b61030a60201b61005b1760201c565b80546001600160a01b0319166001600160a01b039290921691909117905550565b60606102fd838360405180606001604052806027815260200161093f6027913961030d565b9392505050565b3b151590565b90565b6060833b61036c5760405162461bcd60e51b815260206004820152602660248201527f416464726573733a2064656c65676174652063616c6c20746f206e6f6e2d636f6044820152651b9d1c9858dd60d21b60648201526084016101b0565b600080856001600160a01b031685604051610387919061058f565b600060405180830381855af49150503d80600081146103c2576040519150601f19603f3d011682016040523d82523d6000602084013e6103c7565b606091505b5090925090506103d88282866103e2565b9695505050505050565b606083156103f15750816102fd565b8251156104015782518084602001fd5b8160405162461bcd60e51b81526004016101b091906105ab565b80516001600160a01b038116811461043257600080fd5b919050565b634e487b7160e01b600052604160045260246000fd5b60005b83811015610468578181015183820152602001610450565b838111156101405750506000910152565b6000806040838503121561048c57600080fd5b6104958361041b565b60208401519092506001600160401b03808211156104b257600080fd5b818501915085601f8301126104c657600080fd5b8151818111156104d8576104d8610437565b604051601f8201601f19908116603f0116810190838211818310171561050057610500610437565b8160405282815288602084870101111561051957600080fd5b61052a83602083016020880161044d565b80955050505050509250929050565b60008282101561055957634e487b7160e01b600052601160045260246000fd5b500390565b634e487b7160e01b600052600160045260246000fd5b60006020828403121561058657600080fd5b6102fd8261041b565b600082516105a181846020870161044d565b9190910192915050565b60208152600082518060208401526105ca81604085016020870161044d565b601f01601f19169190910160400192915050565b610332806105ed6000396000f3fe60806040523661001357610011610017565b005b6100115b61002761002261005e565b6100f7565b565b606061004e83836040518060600160405280602781526020016102d66027913961011b565b9392505050565b3b151590565b90565b60006100917fa3f0ad74e5423aebfd80d3ef4346578335a9a72aeaee59ff6cb3582b35133d50546001600160a01b031690565b6001600160a01b0316635c60da1b6040518163ffffffff1660e01b8152600401602060405180830381865afa1580156100ce573d6000803e3d6000fd5b505050506040513d601f19601f820116820180604052508101906100f2919061022d565b905090565b3660008037600080366000845af43d6000803e808015610116573d6000f35b3d6000fd5b6060833b61017f5760405162461bcd60e51b815260206004820152602660248201527f416464726573733a2064656c65676174652063616c6c20746f206e6f6e2d636f6044820152651b9d1c9858dd60d21b60648201526084015b60405180910390fd5b600080856001600160a01b03168560405161019a9190610286565b600060405180830381855af49150503d80600081146101d5576040519150601f19603f3d011682016040523d82523d6000602084013e6101da565b606091505b50915091506101ea8282866101f4565b9695505050505050565b6060831561020357508161004e565b8251156102135782518084602001fd5b8160405162461bcd60e51b815260040161017691906102a2565b60006020828403121561023f57600080fd5b81516001600160a01b038116811461004e57600080fd5b60005b83811015610271578181015183820152602001610259565b83811115610280576000848401525b50505050565b60008251610298818460208701610256565b9190910192915050565b60208152600082518060208401526102c1816040850160208701610256565b601f01601f1916919091016040019291505056fe416464726573733a206c6f772d6c6576656c2064656c65676174652063616c6c206661696c6564a26469706673582212208258630b867c85c689d251b2a041426fe5ea464e3b306f1e4e2dfe296d3f9c3864736f6c634300080a0033a3f0ad74e5423aebfd80d3ef4346578335a9a72aeaee59ff6cb3582b35133d50416464726573733a206c6f772d6c6576656c2064656c65676174652063616c6c206661696c6564a264697066735822122082b8874da94dcb9b6e56b4e5fb261cadb41869ed62feb0a4d0cc9b784e6d5fd064736f6c634300080a0033",
  "immutableReferences": {},
  "source": "// SPDX-License-Identifier: MIT\r\npragma solidity 0.8.10;\r\npragma experimental ABIEncoderV2;\r\n\r\nimport {QuickswapFarmUpgradeable as Farm, SafeMath, IERC20, IERC20Upgradeable, SafeERC20Upgradeable, IUniswapV2Pair, Initializable} from \"./farms/QuickswapFarmUpgradeable.sol\";\r\n\r\nimport \"@openzeppelin/contracts/proxy/beacon/UpgradeableBeacon.sol\";\r\nimport \"@openzeppelin/contracts/proxy/beacon/BeaconProxy.sol\";\r\nimport \"@openzeppelin/contracts-upgradeable/security/PausableUpgradeable.sol\";\r\nimport \"@openzeppelin/contracts-upgradeable/access/OwnableUpgradeable.sol\";\r\n\r\ncontract QuickswapFarmFactoryBeacon is Initializable, PausableUpgradeable, OwnableUpgradeable{\r\n    using SafeMath for uint256; \r\n    using SafeERC20Upgradeable for IERC20Upgradeable;\r\n\r\n    /**\r\n     * @dev Contract Variables:\r\n     * farmBeacon - Farm contract implementation.\r\n     *\r\n     * distributor - Address authorized to make distributions.\r\n     * Farms - links {lpPools} to the deployed Farm contract.\r\n     * lpPools - list of pools that have corresponding deployed Farm contract.\r\n     */\r\n    address public farmBeacon;\r\n\r\n    address public distributor;\r\n    mapping(address => Farm) public Farms;\r\n    address[] public lpPools;\r\n\r\n    event FarmDeployed(address indexed farmAddress);\r\n    event Deposit(address indexed sender, address indexed lpPool, uint256 amount);\r\n    event Withdraw(address indexed sender, address indexed lpPool, uint256 amount);\r\n    event Distribute(address indexed lpPool);\r\n    event DistributorChanged(address indexed newDistributor);\r\n\r\n    modifier distributorOnly(){\r\n        require(msg.sender == distributor, 'Caller is not a distributor');\r\n        _;\r\n    }\r\n\r\n    // ============ Methods ============\r\n\r\n    function initialize(address upgrader) external initializer {\r\n        __Pausable_init();\r\n        __Ownable_init();\r\n        UpgradeableBeacon _farmBeacon = new UpgradeableBeacon(\r\n            address(new Farm())\r\n        );\r\n        farmBeacon = address(_farmBeacon);\r\n        transferOwnership(upgrader);\r\n    }\r\n\r\n    /**\r\n     * @dev Deposits tokens in the given pool. Creates new Farm contract if there isn't one deployed for the lpPair and deposits tokens.\r\n     * @param amountA  - Token A amount to deposit.\r\n     * @param amountB -  Token B amount to deposit.\r\n     * @param amountLP - LP Token amount to deposit.\r\n     * @param lpStakingPool - Address of the pool to deposit tokens in.\r\n     * @param recipient - Address which will recieve the deposit and leftover tokens.\r\n     \r\n     * @return sentA - Token A amount sent to the farm.\r\n     * @return sentB - Token B amount sent to the farm.\r\n     * @return liquidity - Total liquidity sent to the farm (in lpTokens).\r\n     */\r\n    function deposit(uint256 amountA, uint256 amountB, uint256 amountLP, address lpStakingPool, address recipient) external whenNotPaused returns(uint256 sentA, uint256 sentB, uint256 liquidity){\r\n        if(Farms[lpStakingPool] == Farm(address(0))){\r\n            Farms[lpStakingPool] = Farm(createFarm(lpStakingPool));\r\n            lpPools.push(lpStakingPool);\r\n        }\r\n\r\n        if(amountA > 0){\r\n            IERC20Upgradeable tokenA = IERC20Upgradeable(Farms[lpStakingPool].tokenA());\r\n            tokenA.safeTransferFrom(msg.sender, address(Farms[lpStakingPool]), amountA);\r\n        }\r\n        if(amountB > 0){\r\n            IERC20Upgradeable tokenB = IERC20Upgradeable(Farms[lpStakingPool].tokenB());\r\n            tokenB.safeTransferFrom(msg.sender, address(Farms[lpStakingPool]), amountB);\r\n        }\r\n        if(amountLP > 0){\r\n            IERC20Upgradeable lpPair = IERC20Upgradeable(Farms[lpStakingPool].lpPair()); \r\n            lpPair.safeTransferFrom(msg.sender, address(Farms[lpStakingPool]), amountLP);\r\n        }\r\n        \r\n       (sentA, sentB, liquidity) = Farms[lpStakingPool].deposit(amountA, amountB, amountLP, recipient); \r\n        emit Deposit(recipient, lpStakingPool, liquidity); \r\n    }\r\n\r\n    /** \r\n     * @dev Withdraws tokens from the given pool. \r\n     * @param lpStakingPool - LP pool to withdraw from.\r\n     * @param amount - LP amount to withdraw. \r\n     * @param withdrawLP - True: Withdraw in LP tokens, False: Withdraw in normal tokens.\r\n     * @param recipient - The address which will recieve tokens.\r\n\r\n     * @return amountA - Token A amount sent to the {recipient}, 0 if withdrawLP == false.\r\n     * @return amountB - Token B amount sent to the {recipient}, 0 if withdrawLP == false.\r\n     */ \r\n    function withdraw(address lpStakingPool, uint256 amount, bool withdrawLP, address recipient) external whenNotPaused returns(uint256 amountA, uint256 amountB){\r\n        require(Farms[lpStakingPool] != Farm(address(0)), 'The given pool doesnt exist');\r\n        (amountA, amountB) = Farms[lpStakingPool].withdraw(msg.sender, amount, withdrawLP, recipient); \r\n        emit Withdraw(msg.sender, lpStakingPool, amount);  \r\n    }\r\n\r\n    /**\r\n     * @dev Distributes tokens between users.\r\n     * @param lpStakingPool - LP pool to distribute tokens in.\r\n     * @param rewardTokenToTokenARoute An array of token addresses.\r\n     * @param rewardTokenToTokenBRoute An array of token addresses.\r\n     *\r\n     * Note: This function can only be called by the distributor.\r\n     */ \r\n    function distribute(\r\n        address lpStakingPool,\r\n        address[] calldata rewardTokenToTokenARoute, \r\n        address[] calldata rewardTokenToTokenBRoute\r\n    ) external distributorOnly whenNotPaused {\r\n        require(Farms[lpStakingPool] != Farm(address(0)), 'The given pool doesnt exist');\r\n\r\n        Farms[lpStakingPool].distribute(rewardTokenToTokenARoute, rewardTokenToTokenBRoute);\r\n        emit Distribute(lpStakingPool);\r\n    }\r\n\r\n    /**\r\n     * @dev Returns tokens staked by the {_address} for the given {lpPair}.\r\n     * @param _address - The address to check stakes for.\r\n     * @param lpStakingPool - LP pool to check stakes in.\r\n\r\n     * @return stakeLP - Total user stake(in LP tokens).\r\n     * @return stakeA - Token A stake.\r\n     * @return stakeB - Token B stake.\r\n     */\r\n    function userStake(address _address, address lpStakingPool) external view returns (uint256 stakeLP, uint256 stakeA, uint256 stakeB) {\r\n        if (Farms[lpStakingPool] != Farm(address(0))) {\r\n            stakeLP =  Farms[lpStakingPool].userBalance(_address);\r\n            (stakeA, stakeB) = getTokenStake(lpStakingPool, stakeLP);\r\n        }\r\n    }\r\n\r\n    /**\r\n     * @dev Returns total amount locked in the pool. Doesn't take pending rewards into account.\r\n     * @param lpStakingPool - LP pool to check total deposits in.\r\n\r\n     * @return totalDepositsLP - Total deposits (in LP tokens).\r\n     * @return totalDepositsA - Token A deposits.\r\n     * @return totalDepositsB - Token B deposits.\r\n     */  \r\n    function totalDeposits(address lpStakingPool) external view returns (uint256 totalDepositsLP, uint256 totalDepositsA, uint256 totalDepositsB) {\r\n        if (Farms[lpStakingPool] != Farm(address(0))) {\r\n            totalDepositsLP = Farms[lpStakingPool].getTotalDeposits();\r\n            (totalDepositsA, totalDepositsB) = getTokenStake(lpStakingPool, totalDepositsLP);\r\n        }\r\n    }\r\n\r\n    function poolLength() external view returns (uint256) {\r\n        return lpPools.length;\r\n    }\r\n\r\n    function transferDistributor(address newDistributor) external onlyOwner {\r\n        distributor = newDistributor;\r\n        emit DistributorChanged(newDistributor);\r\n    }\r\n\r\n    function transferOwnership(address newOwner) public override onlyOwner {\r\n        require(newOwner != address(0), \"Ownable: new owner is the zero address\");\r\n        _transferOwnership(newOwner);\r\n        UpgradeableBeacon(farmBeacon).transferOwnership(newOwner);\r\n    }\r\n\r\n    function renounceOwnership() public override onlyOwner {\r\n        _transferOwnership(address(0));\r\n        UpgradeableBeacon(farmBeacon).renounceOwnership();\r\n    }\r\n\r\n    function pause() external onlyOwner {\r\n        _pause();\r\n    }\r\n\r\n    function unpause() external onlyOwner {\r\n        _unpause();\r\n    }\r\n\r\n    /**\r\n     * @dev Converts LP tokens to normal tokens, value(amountA) == value(amountB) == 0.5*amountLP\r\n     * @param lpStakingPool - LP pool to check total deposits in.\r\n     * @param amountLP - Amount of LP tokens to convert.\r\n\r\n     * @return amountA - Token A amount.\r\n     * @return amountB - Token B amount.\r\n     */ \r\n    function getTokenStake(address lpStakingPool, uint256 amountLP) internal view returns (uint256 amountA, uint256 amountB) {\r\n        if (Farms[lpStakingPool] != Farm(address(0))) {\r\n            address lpPair = Farms[lpStakingPool].lpPair();\r\n            uint256 totalSupply = IERC20(lpPair).totalSupply();\r\n            uint256 totalTokenAAmount = IERC20(Farms[lpStakingPool].tokenA()).balanceOf(lpPair);\r\n            amountA = amountLP.mul(totalTokenAAmount).div(totalSupply);\r\n\r\n            uint256 totalTokenBAmount = IERC20(Farms[lpStakingPool].tokenB()).balanceOf(lpPair);\r\n            amountB = amountLP.mul(totalTokenBAmount).div(totalSupply);\r\n        }\r\n    }\r\n    \r\n    /**\r\n     * @dev Deploys new Farm contract and calls initialize on it.\r\n     */\r\n    function createFarm(address lpStakingPool) internal returns (address) {\r\n        BeaconProxy proxy = new BeaconProxy(\r\n            farmBeacon,\r\n            abi.encodeWithSelector(\r\n                Farm(address(0)).initialize.selector,\r\n                lpStakingPool\r\n            )\r\n        );\r\n        emit FarmDeployed(address(proxy));\r\n        return address(proxy);\r\n    }\r\n}\r\n",
  "sourcePath": "C:\\Users\\jugli\\Desktop\\uno\\uno-contracts-branch\\contracts\\QuickswapFarmFactoryBeacon.sol",
  "compiler": {
    "name": "solc",
    "version": "0.8.10+commit.fc410830.Emscripten.clang"
  },
  "schemaVersion": "3.4.7",
  "updatedAt": "2022-04-30T12:33:09.853Z",
  "devdoc": {
    "kind": "dev",
    "methods": {
      "deposit(uint256,uint256,uint256,address,address)": {
        "details": "Deposits tokens in the given pool. Creates new Farm contract if there isn't one deployed for the lpPair and deposits tokens.",
        "params": {
          "amountA": "- Token A amount to deposit.",
          "amountB": "-  Token B amount to deposit.",
          "amountLP": "- LP Token amount to deposit.",
          "lpStakingPool": "- Address of the pool to deposit tokens in.",
          "recipient": "- Address which will recieve the deposit and leftover tokens."
        },
        "returns": {
          "liquidity": "- Total liquidity sent to the farm (in lpTokens).",
          "sentA": "- Token A amount sent to the farm.",
          "sentB": "- Token B amount sent to the farm."
        }
      },
      "distribute(address,address[],address[])": {
        "details": "Distributes tokens between users.",
        "params": {
          "lpStakingPool": "- LP pool to distribute tokens in.",
          "rewardTokenToTokenARoute": "An array of token addresses.",
          "rewardTokenToTokenBRoute": "An array of token addresses. Note: This function can only be called by the distributor."
        }
      },
      "owner()": {
        "details": "Returns the address of the current owner."
      },
      "paused()": {
        "details": "Returns true if the contract is paused, and false otherwise."
      },
      "renounceOwnership()": {
        "details": "Leaves the contract without owner. It will not be possible to call `onlyOwner` functions anymore. Can only be called by the current owner. NOTE: Renouncing ownership will leave the contract without an owner, thereby removing any functionality that is only available to the owner."
      },
      "totalDeposits(address)": {
        "details": "Returns total amount locked in the pool. Doesn't take pending rewards into account.",
        "params": {
          "lpStakingPool": "- LP pool to check total deposits in."
        },
        "returns": {
          "totalDepositsA": "- Token A deposits.",
          "totalDepositsB": "- Token B deposits.",
          "totalDepositsLP": "- Total deposits (in LP tokens)."
        }
      },
      "transferOwnership(address)": {
        "details": "Transfers ownership of the contract to a new account (`newOwner`). Can only be called by the current owner."
      },
      "userStake(address,address)": {
        "details": "Returns tokens staked by the {_address} for the given {lpPair}.",
        "params": {
          "_address": "- The address to check stakes for.",
          "lpStakingPool": "- LP pool to check stakes in."
        },
        "returns": {
          "stakeA": "- Token A stake.",
          "stakeB": "- Token B stake.",
          "stakeLP": "- Total user stake(in LP tokens)."
        }
      },
      "withdraw(address,uint256,bool,address)": {
        "details": "Withdraws tokens from the given pool. ",
        "params": {
          "amount": "- LP amount to withdraw. ",
          "lpStakingPool": "- LP pool to withdraw from.",
          "recipient": "- The address which will recieve tokens.",
          "withdrawLP": "- True: Withdraw in LP tokens, False: Withdraw in normal tokens."
        },
        "returns": {
          "amountA": "- Token A amount sent to the {recipient}, 0 if withdrawLP == false.",
          "amountB": "- Token B amount sent to the {recipient}, 0 if withdrawLP == false."
        }
      }
    },
    "stateVariables": {
      "farmBeacon": {
        "details": "Contract Variables: farmBeacon - Farm contract implementation. distributor - Address authorized to make distributions. Farms - links {lpPools} to the deployed Farm contract. lpPools - list of pools that have corresponding deployed Farm contract."
      }
    },
    "version": 1
  },
  "userdoc": {
    "kind": "user",
    "methods": {},
    "version": 1
  }
}