{
  "contractName": "QuickswapFarmUpgradeable",
  "abi": [
    {
      "anonymous": false,
      "inputs": [
        {
          "indexed": false,
          "internalType": "address",
          "name": "previousAdmin",
          "type": "address"
        },
        {
          "indexed": false,
          "internalType": "address",
          "name": "newAdmin",
          "type": "address"
        }
      ],
      "name": "AdminChanged",
      "type": "event"
    },
    {
      "anonymous": false,
      "inputs": [
        {
          "indexed": true,
          "internalType": "address",
          "name": "owner",
          "type": "address"
        },
        {
          "indexed": true,
          "internalType": "address",
          "name": "spender",
          "type": "address"
        },
        {
          "indexed": false,
          "internalType": "uint256",
          "name": "value",
          "type": "uint256"
        }
      ],
      "name": "Approval",
      "type": "event"
    },
    {
      "anonymous": false,
      "inputs": [
        {
          "indexed": true,
          "internalType": "address",
          "name": "beacon",
          "type": "address"
        }
      ],
      "name": "BeaconUpgraded",
      "type": "event"
    },
    {
      "anonymous": false,
      "inputs": [
        {
          "indexed": true,
          "internalType": "address",
          "name": "from",
          "type": "address"
        },
        {
          "indexed": true,
          "internalType": "address",
          "name": "to",
          "type": "address"
        },
        {
          "indexed": false,
          "internalType": "uint256",
          "name": "value",
          "type": "uint256"
        }
      ],
      "name": "Transfer",
      "type": "event"
    },
    {
      "anonymous": false,
      "inputs": [
        {
          "indexed": true,
          "internalType": "address",
          "name": "implementation",
          "type": "address"
        }
      ],
      "name": "Upgraded",
      "type": "event"
    },
    {
      "inputs": [
        {
          "internalType": "address",
          "name": "",
          "type": "address"
        },
        {
          "internalType": "address",
          "name": "",
          "type": "address"
        }
      ],
      "name": "allowance",
      "outputs": [
        {
          "internalType": "uint256",
          "name": "",
          "type": "uint256"
        }
      ],
      "stateMutability": "view",
      "type": "function"
    },
    {
      "inputs": [
        {
          "internalType": "address",
          "name": "spender",
          "type": "address"
        },
        {
          "internalType": "uint256",
          "name": "value",
          "type": "uint256"
        }
      ],
      "name": "approve",
      "outputs": [
        {
          "internalType": "bool",
          "name": "",
          "type": "bool"
        }
      ],
      "stateMutability": "nonpayable",
      "type": "function"
    },
    {
      "inputs": [
        {
          "internalType": "address",
          "name": "",
          "type": "address"
        }
      ],
      "name": "balanceOf",
      "outputs": [
        {
          "internalType": "uint256",
          "name": "",
          "type": "uint256"
        }
      ],
      "stateMutability": "view",
      "type": "function"
    },
    {
      "inputs": [],
      "name": "decimals",
      "outputs": [
        {
          "internalType": "uint8",
          "name": "",
          "type": "uint8"
        }
      ],
      "stateMutability": "view",
      "type": "function"
    },
    {
      "inputs": [],
      "name": "lpPair",
      "outputs": [
        {
          "internalType": "address",
          "name": "",
          "type": "address"
        }
      ],
      "stateMutability": "view",
      "type": "function"
    },
    {
      "inputs": [],
      "name": "name",
      "outputs": [
        {
          "internalType": "string",
          "name": "",
          "type": "string"
        }
      ],
      "stateMutability": "view",
      "type": "function"
    },
    {
      "inputs": [],
      "name": "rewardToken",
      "outputs": [
        {
          "internalType": "address",
          "name": "",
          "type": "address"
        }
      ],
      "stateMutability": "view",
      "type": "function"
    },
    {
      "inputs": [],
      "name": "symbol",
      "outputs": [
        {
          "internalType": "string",
          "name": "",
          "type": "string"
        }
      ],
      "stateMutability": "view",
      "type": "function"
    },
    {
      "inputs": [],
      "name": "tokenA",
      "outputs": [
        {
          "internalType": "address",
          "name": "",
          "type": "address"
        }
      ],
      "stateMutability": "view",
      "type": "function"
    },
    {
      "inputs": [],
      "name": "tokenB",
      "outputs": [
        {
          "internalType": "address",
          "name": "",
          "type": "address"
        }
      ],
      "stateMutability": "view",
      "type": "function"
    },
    {
      "inputs": [],
      "name": "totalDeposits",
      "outputs": [
        {
          "internalType": "uint256",
          "name": "",
          "type": "uint256"
        }
      ],
      "stateMutability": "view",
      "type": "function"
    },
    {
      "inputs": [],
      "name": "totalSupply",
      "outputs": [
        {
          "internalType": "uint256",
          "name": "",
          "type": "uint256"
        }
      ],
      "stateMutability": "view",
      "type": "function"
    },
    {
      "inputs": [
        {
          "internalType": "address",
          "name": "to",
          "type": "address"
        },
        {
          "internalType": "uint256",
          "name": "value",
          "type": "uint256"
        }
      ],
      "name": "transfer",
      "outputs": [
        {
          "internalType": "bool",
          "name": "",
          "type": "bool"
        }
      ],
      "stateMutability": "nonpayable",
      "type": "function"
    },
    {
      "inputs": [
        {
          "internalType": "address",
          "name": "from",
          "type": "address"
        },
        {
          "internalType": "address",
          "name": "to",
          "type": "address"
        },
        {
          "internalType": "uint256",
          "name": "value",
          "type": "uint256"
        }
      ],
      "name": "transferFrom",
      "outputs": [
        {
          "internalType": "bool",
          "name": "",
          "type": "bool"
        }
      ],
      "stateMutability": "nonpayable",
      "type": "function"
    },
    {
      "inputs": [
        {
          "internalType": "address",
          "name": "newImplementation",
          "type": "address"
        }
      ],
      "name": "upgradeTo",
      "outputs": [],
      "stateMutability": "nonpayable",
      "type": "function"
    },
    {
      "inputs": [
        {
          "internalType": "address",
          "name": "newImplementation",
          "type": "address"
        },
        {
          "internalType": "bytes",
          "name": "data",
          "type": "bytes"
        }
      ],
      "name": "upgradeToAndCall",
      "outputs": [],
      "stateMutability": "payable",
      "type": "function"
    },
    {
      "inputs": [
        {
          "internalType": "address",
          "name": "_lpStakingPool",
          "type": "address"
        }
      ],
      "name": "initialize",
      "outputs": [],
      "stateMutability": "nonpayable",
      "type": "function"
    },
    {
      "inputs": [
        {
          "internalType": "uint256",
          "name": "amountA",
          "type": "uint256"
        },
        {
          "internalType": "uint256",
          "name": "amountB",
          "type": "uint256"
        },
        {
          "internalType": "uint256",
          "name": "amountLP",
          "type": "uint256"
        },
        {
          "internalType": "address",
          "name": "recipient",
          "type": "address"
        }
      ],
      "name": "deposit",
      "outputs": [
        {
          "internalType": "uint256",
          "name": "sentA",
          "type": "uint256"
        },
        {
          "internalType": "uint256",
          "name": "sentB",
          "type": "uint256"
        },
        {
          "internalType": "uint256",
          "name": "liquidity",
          "type": "uint256"
        }
      ],
      "stateMutability": "nonpayable",
      "type": "function"
    },
    {
      "inputs": [
        {
          "internalType": "address",
          "name": "origin",
          "type": "address"
        },
        {
          "internalType": "uint256",
          "name": "amount",
          "type": "uint256"
        },
        {
          "internalType": "bool",
          "name": "withdrawLP",
          "type": "bool"
        },
        {
          "internalType": "address",
          "name": "recipient",
          "type": "address"
        }
      ],
      "name": "withdraw",
      "outputs": [
        {
          "internalType": "uint256",
          "name": "amountA",
          "type": "uint256"
        },
        {
          "internalType": "uint256",
          "name": "amountB",
          "type": "uint256"
        }
      ],
      "stateMutability": "nonpayable",
      "type": "function"
    },
    {
      "inputs": [
        {
          "internalType": "address[]",
          "name": "rewardTokenToTokenARoute",
          "type": "address[]"
        },
        {
          "internalType": "address[]",
          "name": "rewardTokenToTokenBRoute",
          "type": "address[]"
        }
      ],
      "name": "distribute",
      "outputs": [],
      "stateMutability": "nonpayable",
      "type": "function"
    },
    {
      "inputs": [
        {
          "internalType": "uint256",
          "name": "_amount",
          "type": "uint256"
        },
        {
          "internalType": "uint256",
          "name": "_block",
          "type": "uint256"
        }
      ],
      "name": "setExpectedReward",
      "outputs": [],
      "stateMutability": "nonpayable",
      "type": "function"
    },
    {
      "inputs": [
        {
          "internalType": "address",
          "name": "_address",
          "type": "address"
        }
      ],
      "name": "userBalance",
      "outputs": [
        {
          "internalType": "uint256",
          "name": "",
          "type": "uint256"
        }
      ],
      "stateMutability": "view",
      "type": "function"
    }
  ],
  "bytecode": "0x60a06040523060805234801561001457600080fd5b506001606855608051612e2861004a600039600081816105ac015281816105f50152818161094b015261098b0152612e286000f3fe6080604052600436106101055760003560e01c80630103c92b1461010a57806306fdde031461013d578063095ea7b31461017c5780630fc63d10146101ac57806318160ddd146101d957806323b872dd146101ef578063313ce5671461020f5780633659cfe614610236578063430004c114610258578063452ed4f11461028d5780634f1ef286146102ad5780635f64b55b146102c057806370a08231146102e05780637d8820971461030d57806395d89b4114610323578063a9059cbb14610352578063c4d66de814610372578063dd62ed3e14610392578063e8da9d48146103ca578063f7c618c1146103ea578063fad3cc4b1461040a578063fd12530014610445575b600080fd5b34801561011657600080fd5b5061012a61012536600461250c565b610465565b6040519081526020015b60405180910390f35b34801561014957600080fd5b5061016f604051806040016040528060068152602001650556e6f2d4c560d41b81525081565b6040516101349190612555565b34801561018857600080fd5b5061019c610197366004612588565b6104f6565b6040519015158152602001610134565b3480156101b857600080fd5b50606b546101cc906001600160a01b031681565b60405161013491906125b4565b3480156101e557600080fd5b5061012a60005481565b3480156101fb57600080fd5b5061019c61020a3660046125c8565b61050c565b34801561021b57600080fd5b50610224601281565b60405160ff9091168152602001610134565b34801561024257600080fd5b5061025661025136600461250c565b6105a1565b005b34801561026457600080fd5b50610278610273366004612617565b610673565b60408051928352602083019190915201610134565b34801561029957600080fd5b50606a546101cc906001600160a01b031681565b6102566102bb3660046126b0565b610940565b3480156102cc57600080fd5b50606c546101cc906001600160a01b031681565b3480156102ec57600080fd5b5061012a6102fb36600461250c565b60016020526000908152604090205481565b34801561031957600080fd5b5061012a60765481565b34801561032f57600080fd5b5061016f604051806040016040528060038152602001620554c560ec1b81525081565b34801561035e57600080fd5b5061019c61036d366004612588565b6109fa565b34801561037e57600080fd5b5061025661038d36600461250c565b610a07565b34801561039e57600080fd5b5061012a6103ad366004612757565b600260209081526000928352604080842090915290825290205481565b3480156103d657600080fd5b506102566103e5366004612790565b610f33565b3480156103f657600080fd5b506069546101cc906001600160a01b031681565b34801561041657600080fd5b5061042a6104253660046127b2565b610f66565b60408051938452602084019290925290820152606001610134565b34801561045157600080fd5b50610256610460366004612833565b611228565b6001600160a01b0381166000908152607560209081526040808320607054845290915281205460ff16156104af57506001600160a01b031660009081526072602052604090205490565b6000546104be57506000919050565b600080546001600160a01b038416825260016020526040909120546076546104e691906128b4565b6104f091906128d3565b92915050565b6000610503338484611742565b50600192915050565b6001600160a01b03831660009081526002602090815260408083203384529091528120546000191461058b576001600160a01b038416600090815260026020908152604080832033845290915290205461056690836117a4565b6001600160a01b03851660009081526002602090815260408083203384529091529020555b6105968484846117b0565b5060015b9392505050565b306001600160a01b037f00000000000000000000000000000000000000000000000000000000000000001614156105f35760405162461bcd60e51b81526004016105ea906128f5565b60405180910390fd5b7f00000000000000000000000000000000000000000000000000000000000000006001600160a01b0316610625611844565b6001600160a01b03161461064b5760405162461bcd60e51b81526004016105ea9061292f565b61065481611860565b604080516000808252602082019092526106709183919061187c565b50565b6000803361067f6119c3565b6001600160a01b03161461069257600080fd5b600260685414156106b55760405162461bcd60e51b81526004016105ea90612969565b600260685584158015906106e057506001600160a01b03861660009081526072602052604090205415155b6106e957600080fd5b6106f2866119d2565b600043606e5411156107135743606e5461070c91906129a0565b9050610725565b600260715461072291906128d3565b90505b60006077548260765461073891906128b4565b61074291906129b7565b9050600061075083896128b4565b61075a90836129a0565b6001600160a01b038a16600090815260726020526040812080549293508a929091906107879084906129a0565b9250508190555087607660008282546107a091906129a0565b9091555050606f5482906107b59083906128b4565b6107bf91906128d3565b606f556107cd83828b611b62565b606d54604051632e1a7d4d60e01b8152600481018a90526001600160a01b0390911690632e1a7d4d90602401600060405180830381600087803b15801561081357600080fd5b505af1158015610827573d6000803e3d6000fd5b50505050861561085757606a54610848906001600160a01b0316878a611c69565b60008094509450505050610930565b606b54606c54600080516020612dd38339815191529163baa2abde916001600160a01b0391821691168b6000808c610891426102586129b7565b60405160e089901b6001600160e01b03191681526001600160a01b039788166004820152958716602487015260448601949094526064850192909252608484015290921660a482015260c481019190915260e40160408051808303816000875af1158015610903573d6000803e3d6000fd5b505050506040513d601f19601f8201168201806040525081019061092791906129cf565b90955093505050505b6001606855909590945092505050565b306001600160a01b037f00000000000000000000000000000000000000000000000000000000000000001614156109895760405162461bcd60e51b81526004016105ea906128f5565b7f00000000000000000000000000000000000000000000000000000000000000006001600160a01b03166109bb611844565b6001600160a01b0316146109e15760405162461bcd60e51b81526004016105ea9061292f565b6109ea82611860565b6109f68282600161187c565b5050565b60006105033384846117b0565b600354610100900460ff16610a225760035460ff1615610a2a565b610a2a611cbf565b610a465760405162461bcd60e51b81526004016105ea906129f3565b600354610100900460ff16158015610a68576003805461ffff19166101011790555b610a70611cd0565b606d80546001600160a01b0319166001600160a01b038416908117909155604080516372f702f360e01b815290516372f702f3916004808201926020929091908290030181865afa158015610ac9573d6000803e3d6000fd5b505050506040513d601f19601f82011682018060405250810190610aed9190612a41565b606a80546001600160a01b0319166001600160a01b03928316179055606d546040805163d1af0c7d60e01b81529051919092169163d1af0c7d9160048083019260209291908290030181865afa158015610b4b573d6000803e3d6000fd5b505050506040513d601f19601f82011682018060405250810190610b6f9190612a41565b606980546001600160a01b0319166001600160a01b03928316179055606a5460408051630dfe168160e01b815290519190921691630dfe16819160048083019260209291908290030181865afa158015610bcd573d6000803e3d6000fd5b505050506040513d601f19601f82011682018060405250810190610bf19190612a41565b606b80546001600160a01b0319166001600160a01b03928316179055606a546040805163d21220a760e01b81529051919092169163d21220a79160048083019260209291908290030181865afa158015610c4f573d6000803e3d6000fd5b505050506040513d601f19601f82011682018060405250810190610c739190612a41565b606c80546001600160a01b0319166001600160a01b03928316179055606a5460405163095ea7b360e01b815260001992919091169063095ea7b390610cbe9086908590600401612a5e565b6020604051808303816000875af1158015610cdd573d6000803e3d6000fd5b505050506040513d601f19601f82011682018060405250810190610d019190612a77565b50606a5460405163095ea7b360e01b81526001600160a01b039091169063095ea7b390610d4290600080516020612dd3833981519152908590600401612a5e565b6020604051808303816000875af1158015610d61573d6000803e3d6000fd5b505050506040513d601f19601f82011682018060405250810190610d859190612a77565b5060695460405163095ea7b360e01b81526001600160a01b039091169063095ea7b390610dc690600080516020612dd3833981519152908590600401612a5e565b6020604051808303816000875af1158015610de5573d6000803e3d6000fd5b505050506040513d601f19601f82011682018060405250810190610e099190612a77565b50606b5460405163095ea7b360e01b81526001600160a01b039091169063095ea7b390610e4a90600080516020612dd3833981519152908590600401612a5e565b6020604051808303816000875af1158015610e69573d6000803e3d6000fd5b505050506040513d601f19601f82011682018060405250810190610e8d9190612a77565b50606c5460405163095ea7b360e01b81526001600160a01b039091169063095ea7b390610ece90600080516020612dd3833981519152908590600401612a5e565b6020604051808303816000875af1158015610eed573d6000803e3d6000fd5b505050506040513d601f19601f82011682018060405250810190610f119190612a77565b50504360705562124f8060715580156109f6576003805461ff00191690555050565b33610f3c6119c3565b6001600160a01b031614610f4f57600080fd5b438111610f5b57600080fd5b606f91909155606e55565b6000808033610f736119c3565b6001600160a01b031614610f8657600080fd5b60026068541415610fa95760405162461bcd60e51b81526004016105ea90612969565b600260685560008715801590610fbf5750600087115b1561106d57606b54606c54600080516020612dd38339815191529163e8e33700916001600160a01b0391821691168b8b60008030610fff426102586129b7565b6040518963ffffffff1660e01b8152600401611022989796959493929190612a94565b6060604051808303816000875af1158015611041573d6000803e3d6000fd5b505050506040513d601f19601f820116820180604052508101906110659190612add565b919550935090505b61107786826129b7565b91506000821161108657600080fd5b61108f856119d2565b600043606e5411156110b05743606e546110a991906129a0565b90506110c2565b60026071546110bf91906128d3565b90505b6000607754826076546110d591906128b4565b6110df91906129b7565b90506000816110ee84876128b4565b6110f891906129b7565b6001600160a01b0389166000908152607260205260408120805492935087929091906111259084906129b7565b92505081905550846076600082825461113e91906129b7565b90915550508115611166578181606f5461115891906128b4565b61116291906128d3565b606f555b61117183828a611d55565b606d5460405163534a7e1d60e11b8152600481018790526001600160a01b039091169063a694fc3a90602401600060405180830381600087803b1580156111b757600080fd5b505af11580156111cb573d6000803e3d6000fd5b505050506111f288888d6111df91906129a0565b606b546001600160a01b03169190611c69565b61121388611200888d6129a0565b606c546001600160a01b03169190611c69565b50506001606855509297919650945092505050565b336112316119c3565b6001600160a01b03161461124457600080fd5b600260685414156112675760405162461bcd60e51b81526004016105ea90612969565b600260685560765461127857600080fd5b606d60009054906101000a90046001600160a01b03166001600160a01b0316633d18b9126040518163ffffffff1660e01b8152600401600060405180830381600087803b1580156112c857600080fd5b505af11580156112dc573d6000803e3d6000fd5b50506069546040516370a0823160e01b815260009350600292506001600160a01b03909116906370a08231906113169030906004016125b4565b602060405180830381865afa158015611333573d6000803e3d6000fd5b505050506040513d601f19601f820116820180604052508101906113579190612b0b565b61136191906128d3565b90506000611371426102586129b7565b606954606b549192506001600160a01b03918216911614611411576040516338ed173960e01b8152600080516020612dd3833981519152906338ed1739906113c89085906000908b908b9030908990600401612b24565b6000604051808303816000875af11580156113e7573d6000803e3d6000fd5b505050506040513d6000823e601f3d908101601f1916820160405261140f9190810190612b97565b505b606954606c546001600160a01b039081169116146114ae576040516338ed173960e01b8152600080516020612dd3833981519152906338ed1739906114659085906000908990899030908990600401612b24565b6000604051808303816000875af1158015611484573d6000803e3d6000fd5b505050506040513d6000823e601f3d908101601f191682016040526114ac9190810190612b97565b505b606b54606c546040516370a0823160e01b8152600080516020612dd38339815191529263e8e33700926001600160a01b039182169291169082906370a08231906114fc9030906004016125b4565b602060405180830381865afa158015611519573d6000803e3d6000fd5b505050506040513d601f19601f8201168201806040525081019061153d9190612b0b565b606c546040516370a0823160e01b81526001600160a01b03909116906370a082319061156d9030906004016125b4565b602060405180830381865afa15801561158a573d6000803e3d6000fd5b505050506040513d601f19601f820116820180604052508101906115ae9190612b0b565b60018030896040518963ffffffff1660e01b81526004016115d6989796959493929190612a94565b6060604051808303816000875af11580156115f5573d6000803e3d6000fd5b505050506040513d601f19601f820116820180604052508101906116199190612add565b5050606a546040516370a0823160e01b8152600092506001600160a01b03909116906370a082319061164f9030906004016125b4565b602060405180830381865afa15801561166c573d6000803e3d6000fd5b505050506040513d601f19601f820116820180604052508101906116909190612b0b565b9050801561170e5780607660008282546116aa91906129b7565b9091555050606d5460405163534a7e1d60e11b8152600481018390526001600160a01b039091169063a694fc3a90602401600060405180830381600087803b1580156116f557600080fd5b505af1158015611709573d6000803e3d6000fd5b505050505b60705461171b90436129a0565b6071819055611730908290610f5b90436129b7565b50504360705550506001606855505050565b6001600160a01b0383811660008181526002602090815260408083209487168084529482529182902085905590518481527f8c5be1e5ebec7d5bd14f71427d1e84f3dd0314c0f7b2291e5b200ac8c7c3b92591015b60405180910390a3505050565b600061059a82846129a0565b6001600160a01b0383166000908152600160205260409020546117d390826117a4565b6001600160a01b0380851660009081526001602052604080822093909355908416815220546118029082611e27565b6001600160a01b038084166000818152600160205260409081902093909355915190851690600080516020612db3833981519152906117979085815260200190565b600080516020612d6c833981519152546001600160a01b031690565b336118696119c3565b6001600160a01b03161461067057600080fd5b6000611886611844565b905061189184611e33565b60008351118061189e5750815b156118af576118ad8484611ec6565b505b7f4910fdfa16fed3260ed0e7147f7cc6da11a60208b5b9406d12a635614ffd9143805460ff166119bc57805460ff1916600117815560405161192a9086906118fb9085906024016125b4565b60408051601f198184030181529190526020810180516001600160e01b0316631b2ce7f360e11b179052611ec6565b50805460ff1916815561193b611844565b6001600160a01b0316826001600160a01b0316146119b35760405162461bcd60e51b815260206004820152602f60248201527f45524331393637557067726164653a207570677261646520627265616b73206660448201526e75727468657220757067726164657360881b60648201526084016105ea565b6119bc85611eeb565b5050505050565b6036546001600160a01b031690565b6001600160a01b0381166000908152607560209081526040808320607054845290915290205460ff1615611a6c576001600160a01b038116600090815260726020908152604080832054607490925290912054611a2f90436129a0565b611a3991906128b4565b6001600160a01b03821660009081526073602052604081208054909190611a619084906129b7565b90915550611ae19050565b611a7581610465565b6001600160a01b0382166000908152607260205260409020819055607054611a9d90436129a0565b611aa791906128b4565b6001600160a01b038216600090815260736020908152604080832093909355607581528282206070548352905220805460ff191660011790555b6070546078541115611b2357607654607854611afd90436129a0565b611b0791906128b4565b60776000828254611b1891906129b7565b90915550611b419050565b607654607054611b3390436129a0565b611b3d91906128b4565b6077555b6001600160a01b031660009081526074602052604090204390819055607855565b6001600160a01b038116600090815260726020526040902054611ba8576001600160a01b038116600090815260016020526040902054611ba3908290611f2b565b505050565b600080546001600160a01b038316825260016020526040909120541415611bce57505050565b6000611bdb848484611fab565b9050611c638282611bee6012600a612d20565b611bf891906129a0565b611c046012600a612d20565b600054611c1190866128b4565b611c1b91906128d3565b6001600160a01b038616600090815260016020526040902054611c3e91906129a0565b611c4a6012600a612d20565b611c5491906128b4565b611c5e91906128d3565b611f2b565b50505050565b611ba38363a9059cbb60e01b8484604051602401611c88929190612a5e565b60408051601f198184030181529190526020810180516001600160e01b03166001600160e01b03199093169290921790915261205e565b6000611cca30612130565b15905090565b600354610100900460ff16611ceb5760035460ff1615611cf3565b611cf3611cbf565b611d0f5760405162461bcd60e51b81526004016105ea906129f3565b600354610100900460ff16158015611d31576003805461ffff19166101011790555b611d3961213f565b611d416121ac565b8015610670576003805461ff001916905550565b600054611d7157611ba381611d6c6012600a612d20565b612233565b600080546001600160a01b038316825260016020526040909120541415611d9757505050565b6000611da4848484611fab565b9050611c638282611db76012600a612d20565b611dc191906129a0565b6001600160a01b038516600090815260016020526040902054611de66012600a612d20565b600054611df390876128b4565b611dfd91906128d3565b611e0791906129a0565b611e136012600a612d20565b611e1d91906128b4565b611d6c91906128d3565b600061059a82846129b7565b803b611e975760405162461bcd60e51b815260206004820152602d60248201527f455243313936373a206e657720696d706c656d656e746174696f6e206973206e60448201526c1bdd08184818dbdb9d1c9858dd609a1b60648201526084016105ea565b600080516020612d6c83398151915280546001600160a01b0319166001600160a01b0392909216919091179055565b606061059a8383604051806060016040528060278152602001612d8c602791396122a4565b611ef481611e33565b6040516001600160a01b038216907fbc7cd75a20ee27fd9adebab32041f755214dbc6bffa90cc0225b39da2e5c2d3b90600090a250565b6001600160a01b038216600090815260016020526040902054611f4e90826117a4565b6001600160a01b03831660009081526001602052604081209190915554611f7590826117a4565b60009081556040518281526001600160a01b03841690600080516020612db3833981519152906020015b60405180910390a35050565b6001600160a01b038116600090815260736020908152604080832054607290925282205482918591611fde9088906128b4565b611fe891906129b7565b606f54611ff591906128b4565b611fff91906128d3565b9050606f5460765461201191906129b7565b6001600160a01b0384166000908152607260205260409020546120359083906129b7565b6120416012600a612d20565b61204b91906128b4565b61205591906128d3565b95945050505050565b60006120b3826040518060400160405280602081526020017f5361666545524332303a206c6f772d6c6576656c2063616c6c206661696c6564815250856001600160a01b03166123789092919063ffffffff16565b805190915015611ba357808060200190518101906120d19190612a77565b611ba35760405162461bcd60e51b815260206004820152602a60248201527f5361666545524332303a204552433230206f7065726174696f6e20646964206e6044820152691bdd081cdd58d8d9595960b21b60648201526084016105ea565b6001600160a01b03163b151590565b600354610100900460ff166121aa5760405162461bcd60e51b815260206004820152602b60248201527f496e697469616c697a61626c653a20636f6e7472616374206973206e6f74206960448201526a6e697469616c697a696e6760a81b60648201526084016105ea565b565b600354610100900460ff166121c75760035460ff16156121cf565b6121cf611cbf565b6121eb5760405162461bcd60e51b81526004016105ea906129f3565b600354610100900460ff1615801561220d576003805461ffff19166101011790555b603680546001600160a01b031916331790558015610670576003805461ff001916905550565b6000546122409082611e27565b60009081556001600160a01b0383168152600160205260409020546122659082611e27565b6001600160a01b038316600081815260016020526040808220939093559151909190600080516020612db383398151915290611f9f9085815260200190565b6060833b6123035760405162461bcd60e51b815260206004820152602660248201527f416464726573733a2064656c65676174652063616c6c20746f206e6f6e2d636f6044820152651b9d1c9858dd60d21b60648201526084016105ea565b600080856001600160a01b03168560405161231e9190612d2f565b600060405180830381855af49150503d8060008114612359576040519150601f19603f3d011682016040523d82523d6000602084013e61235e565b606091505b509150915061236e82828661238f565b9695505050505050565b606061238784846000856123c8565b949350505050565b6060831561239e57508161059a565b8251156123ae5782518084602001fd5b8160405162461bcd60e51b81526004016105ea9190612555565b6060824710156124295760405162461bcd60e51b815260206004820152602660248201527f416464726573733a20696e73756666696369656e742062616c616e636520666f6044820152651c8818d85b1b60d21b60648201526084016105ea565b61243285612130565b61247e5760405162461bcd60e51b815260206004820152601d60248201527f416464726573733a2063616c6c20746f206e6f6e2d636f6e747261637400000060448201526064016105ea565b600080866001600160a01b0316858760405161249a9190612d2f565b60006040518083038185875af1925050503d80600081146124d7576040519150601f19603f3d011682016040523d82523d6000602084013e6124dc565b606091505b50915091506124ec82828661238f565b979650505050505050565b6001600160a01b038116811461067057600080fd5b60006020828403121561251e57600080fd5b813561059a816124f7565b60005b8381101561254457818101518382015260200161252c565b83811115611c635750506000910152565b6020815260008251806020840152612574816040850160208701612529565b601f01601f19169190910160400192915050565b6000806040838503121561259b57600080fd5b82356125a6816124f7565b946020939093013593505050565b6001600160a01b0391909116815260200190565b6000806000606084860312156125dd57600080fd5b83356125e8816124f7565b925060208401356125f8816124f7565b929592945050506040919091013590565b801515811461067057600080fd5b6000806000806080858703121561262d57600080fd5b8435612638816124f7565b935060208501359250604085013561264f81612609565b9150606085013561265f816124f7565b939692955090935050565b634e487b7160e01b600052604160045260246000fd5b604051601f8201601f191681016001600160401b03811182821017156126a8576126a861266a565b604052919050565b600080604083850312156126c357600080fd5b82356126ce816124f7565b91506020838101356001600160401b03808211156126eb57600080fd5b818601915086601f8301126126ff57600080fd5b8135818111156127115761271161266a565b612723601f8201601f19168501612680565b9150808252878482850101111561273957600080fd5b80848401858401376000848284010152508093505050509250929050565b6000806040838503121561276a57600080fd5b8235612775816124f7565b91506020830135612785816124f7565b809150509250929050565b600080604083850312156127a357600080fd5b50508035926020909101359150565b600080600080608085870312156127c857600080fd5b843593506020850135925060408501359150606085013561265f816124f7565b60008083601f8401126127fa57600080fd5b5081356001600160401b0381111561281157600080fd5b6020830191508360208260051b850101111561282c57600080fd5b9250929050565b6000806000806040858703121561284957600080fd5b84356001600160401b038082111561286057600080fd5b61286c888389016127e8565b9096509450602087013591508082111561288557600080fd5b50612892878288016127e8565b95989497509550505050565b634e487b7160e01b600052601160045260246000fd5b60008160001904831182151516156128ce576128ce61289e565b500290565b6000826128f057634e487b7160e01b600052601260045260246000fd5b500490565b6020808252602c90820152600080516020612d4c83398151915260408201526b19195b1959d85d1958d85b1b60a21b606082015260800190565b6020808252602c90820152600080516020612d4c83398151915260408201526b6163746976652070726f787960a01b606082015260800190565b6020808252601f908201527f5265656e7472616e637947756172643a207265656e7472616e742063616c6c00604082015260600190565b6000828210156129b2576129b261289e565b500390565b600082198211156129ca576129ca61289e565b500190565b600080604083850312156129e257600080fd5b505080516020909101519092909150565b6020808252602e908201527f496e697469616c697a61626c653a20636f6e747261637420697320616c72656160408201526d191e481a5b9a5d1a585b1a5e995960921b606082015260800190565b600060208284031215612a5357600080fd5b815161059a816124f7565b6001600160a01b03929092168252602082015260400190565b600060208284031215612a8957600080fd5b815161059a81612609565b6001600160a01b039889168152968816602088015260408701959095526060860193909352608085019190915260a084015290921660c082015260e08101919091526101000190565b600080600060608486031215612af257600080fd5b8351925060208401519150604084015190509250925092565b600060208284031215612b1d57600080fd5b5051919050565b868152602080820187905260a0604083018190528201859052600090869060c08401835b88811015612b76578335612b5b816124f7565b6001600160a01b031682529282019290820190600101612b48565b506001600160a01b0396909616606085015250505060800152949350505050565b60006020808385031215612baa57600080fd5b82516001600160401b0380821115612bc157600080fd5b818501915085601f830112612bd557600080fd5b815181811115612be757612be761266a565b8060051b9150612bf8848301612680565b8181529183018401918481019088841115612c1257600080fd5b938501935b83851015612c3057845182529385019390850190612c17565b98975050505050505050565b600181815b80851115612c77578160001904821115612c5d57612c5d61289e565b80851615612c6a57918102915b93841c9390800290612c41565b509250929050565b600082612c8e575060016104f0565b81612c9b575060006104f0565b8160018114612cb15760028114612cbb57612cd7565b60019150506104f0565b60ff841115612ccc57612ccc61289e565b50506001821b6104f0565b5060208310610133831016604e8410600b8410161715612cfa575081810a6104f0565b612d048383612c3c565b8060001904821115612d1857612d1861289e565b029392505050565b600061059a60ff841683612c7f565b60008251612d41818460208701612529565b919091019291505056fe46756e6374696f6e206d7573742062652063616c6c6564207468726f75676820360894a13ba1a3210667c828492db98dca3e2076cc3735a920a3ca505d382bbc416464726573733a206c6f772d6c6576656c2064656c65676174652063616c6c206661696c6564ddf252ad1be2c89b69c2b068fc378daa952ba7f163c4a11628f55a4df523b3ef000000000000000000000000a5e0829caced8ffdd4de3c43696c57f7d7a678ffa2646970667358221220acecb7c16010ccaa4bbbdc9805c7a4880a4b1a733d8064cde1baddd822526d5864736f6c634300080a0033",
  "immutableReferences": {
    "1581": [
      {
        "length": 32,
        "start": 1452
      },
      {
        "length": 32,
        "start": 1525
      },
      {
        "length": 32,
        "start": 2379
      },
      {
        "length": 32,
        "start": 2443
      }
    ]
  },
  "source": "// SPDX-License-Identifier: MIT\r\npragma solidity 0.8.10;\r\n\r\nimport \"../interfaces/IUniswapV2Pair.sol\";\r\nimport \"../interfaces/IUniswapV2Router.sol\";\r\nimport \"../interfaces/IStakingRewards.sol\";\r\nimport \"../utils/UniswapV2ERC20.sol\"; \r\nimport \"../utils/OwnableUpgradeableNoTransfer.sol\";\r\nimport \"@openzeppelin/contracts/proxy/utils/UUPSUpgradeable.sol\";\r\nimport \"@openzeppelin/contracts/security/ReentrancyGuard.sol\";\r\nimport \"@openzeppelin/contracts-upgradeable/token/ERC20/utils/SafeERC20Upgradeable.sol\";\r\nimport \"@openzeppelin/contracts-upgradeable/token/ERC20/IERC20Upgradeable.sol\";\r\n\r\ncontract QuickswapFarmUpgradeable is UniswapV2ERC20, UUPSUpgradeable, Initializable, OwnableUpgradeableNoTransfer, ReentrancyGuard {\r\n    using SafeERC20Upgradeable for IERC20Upgradeable;\r\n\r\n    /**\r\n     * @dev Tokens Used:\r\n     * {rewardToken} - Token generated by staking.\r\n     * {lpPair} - Token that the strategy maximizes. The same token that users deposit in the {lpStakingPool}.\r\n     * {tokenA, tokenB} - Tokens that the strategy maximizes.\r\n     */\r\n    address public rewardToken;\r\n    address public lpPair;\r\n    address public tokenA;\r\n    address public tokenB;\r\n\r\n    /**\r\n     * @dev Third Party Contracts:\r\n     * {quickswapRouter} - The contract that executes swaps.\r\n     * {lpStakingPool} - The contract that distibutes {rewardToken}.\r\n     */\r\n    IUniswapV2Router01 private constant quickswapRouter = IUniswapV2Router01(0xa5E0829CaCEd8fFDD4De3c43696c57F7D7A678ff); \r\n    IStakingRewards private lpStakingPool;\r\n\r\n    /**\r\n     * @dev Contract Variables:\r\n     *\r\n     *\r\n     */\r\n    uint256 private expectedRewardBlock;\r\n    uint256 private expectedReward;\r\n    uint256 private lastRewardBlock;\r\n    uint256 private lastRewardPeriod;\r\n\r\n    mapping(address => uint256) private userDeposit;\r\n    mapping(address => uint256) private userDepositAge;\r\n    mapping(address => uint256) private userDALastUpdated;\r\n    mapping(address => mapping(uint256 => bool)) private userDepositChanged;\r\n\r\n    uint256 public totalDeposits;\r\n    uint256 private totalDepositAge;\r\n    uint256 private totalDALastUpdated;\r\n\r\n    uint256 private constant fractionMultiplier = 10**decimals;\r\n\r\n    // ============ Methods ============\r\n\r\n    function initialize(address _lpStakingPool) external initializer {\r\n        __Ownable_init();\r\n\r\n        lpStakingPool = IStakingRewards(_lpStakingPool);\r\n        lpPair = address(lpStakingPool.stakingToken());\r\n\r\n        rewardToken = lpStakingPool.rewardsToken();\r\n\r\n        tokenA = IUniswapV2Pair(lpPair).token0();\r\n        tokenB = IUniswapV2Pair(lpPair).token1();\r\n\r\n        uint256 MAX_UINT = uint256(2**256 - 1);\r\n        IERC20(lpPair).approve(_lpStakingPool, MAX_UINT);\r\n        IERC20(lpPair).approve(address(quickswapRouter), MAX_UINT);\r\n        IERC20(rewardToken).approve(address(quickswapRouter), MAX_UINT);\r\n        IERC20(tokenA).approve(address(quickswapRouter), MAX_UINT);\r\n        IERC20(tokenB).approve(address(quickswapRouter), MAX_UINT);\r\n\r\n        lastRewardBlock = block.number;\r\n        lastRewardPeriod = 1200000; //this is somewhere around 1 month at the time of writing this contract\r\n    }\r\n\r\n    /**\r\n     * @dev Function that makes the deposits.\r\n     * If it's not the first deposit, withdraws {lpStakingPool} and deposits new tokens with the old ones.\r\n     */\r\n    function deposit(uint256 amountA, uint256 amountB, uint256 amountLP, address recipient) external onlyOwner nonReentrant returns(uint256 sentA, uint256 sentB, uint256 liquidity){\r\n        uint256 addedLiquidity;\r\n        if(amountA > 0 && amountB > 0){\r\n            (sentA, sentB, addedLiquidity) = quickswapRouter.addLiquidity(tokenA, tokenB, amountA, amountB, 0, 0, address(this), block.timestamp + 600);\r\n        }\r\n        liquidity = addedLiquidity + amountLP;\r\n        require(liquidity > 0);\r\n\r\n        _updateDeposit(recipient);\r\n\r\n        uint256 blocksTillReward;\r\n        if(expectedRewardBlock > block.number){\r\n            blocksTillReward = expectedRewardBlock - block.number;\r\n        }else{\r\n            blocksTillReward = lastRewardPeriod / 2;\r\n        }\r\n\r\n        uint256 totalExpectedDepositAgePrev = totalDeposits * blocksTillReward + totalDepositAge;\r\n        uint256 totalExpectedDepositAge = liquidity * blocksTillReward + totalExpectedDepositAgePrev;\r\n        // update deposit amounts\r\n        userDeposit[recipient] += liquidity;\r\n        totalDeposits += liquidity;\r\n        // expected reward will increase proportionally to the increase of total expected deposit age\r\n        if (totalExpectedDepositAgePrev > 0) {\r\n            expectedReward = expectedReward * totalExpectedDepositAge / totalExpectedDepositAgePrev;\r\n        }\r\n\r\n        _mintLP(blocksTillReward, totalExpectedDepositAge, recipient);\r\n            \r\n        lpStakingPool.stake(liquidity);\r\n        IERC20Upgradeable(tokenA).safeTransfer(recipient, amountA - sentA);\r\n        IERC20Upgradeable(tokenB).safeTransfer(recipient, amountB - sentB);\r\n    }\r\n\r\n    /**\r\n     * @dev Withdraws funds and sends them to the {recipient}.\r\n     */\r\n    function withdraw(address origin, uint256 amount, bool withdrawLP, address recipient) external onlyOwner nonReentrant returns(uint256 amountA, uint256 amountB){\r\n        require(amount > 0 && userDeposit[origin] > 0);\r\n\r\n        _updateDeposit(origin);\r\n\r\n        uint256 blocksTillReward;\r\n        if(expectedRewardBlock > block.number){\r\n            blocksTillReward = expectedRewardBlock - block.number;\r\n        }else{\r\n            blocksTillReward = lastRewardPeriod / 2;\r\n        }\r\n\r\n        uint256 totalExpectedDepositAgePrev = totalDeposits * blocksTillReward + totalDepositAge;\r\n        uint256 totalExpectedDepositAge = totalExpectedDepositAgePrev - amount * blocksTillReward;\r\n        // update deposit amounts\r\n        userDeposit[origin] -= amount;\r\n        totalDeposits -= amount;\r\n        // expected reward will decrease proportionally to the decrease of total expected deposit age\r\n        expectedReward = expectedReward * totalExpectedDepositAge / totalExpectedDepositAgePrev;\r\n\r\n        _burnLP(blocksTillReward, totalExpectedDepositAge, origin);\r\n\r\n        lpStakingPool.withdraw(amount);\r\n        if(withdrawLP){\r\n            IERC20Upgradeable(lpPair).safeTransfer(recipient, amount);\r\n            return (0, 0);\r\n        }\r\n        (amountA, amountB) = quickswapRouter.removeLiquidity(tokenA, tokenB, amount, 0, 0, recipient, block.timestamp + 600);\r\n    }\r\n\r\n    function _mintLP(uint256 blocksTillReward, uint256 totalExpectedDepositAge, address recipient) internal {\r\n        if (totalSupply == 0) {\r\n            _mint(recipient, fractionMultiplier);\r\n            return;\r\n        }\r\n        if (balanceOf[recipient] == totalSupply) {\r\n            return;\r\n        }\r\n        uint256 userNewShare = _calculateUserNewShare(blocksTillReward, totalExpectedDepositAge, recipient);\r\n        _mint(recipient, fractionMultiplier * (userNewShare * totalSupply / fractionMultiplier - balanceOf[recipient]) / (fractionMultiplier - userNewShare));\r\n    }\r\n\r\n    function _burnLP(uint256 blocksTillReward, uint256 totalExpectedDepositAge, address origin) internal{\r\n        if(userDeposit[origin] == 0){\r\n            _burn(origin, balanceOf[origin]);\r\n            return;\r\n        }\r\n        if (balanceOf[origin] == totalSupply) {\r\n            return;\r\n        }\r\n        uint256 userNewShare = _calculateUserNewShare(blocksTillReward, totalExpectedDepositAge, origin);\r\n        _burn(origin, fractionMultiplier * (balanceOf[origin] - userNewShare * totalSupply / fractionMultiplier) / (fractionMultiplier - userNewShare));\r\n    }\r\n\r\n    function _calculateUserNewShare (uint256 blocksTillReward, uint256 totalExpectedDepositAge, address _address) internal view returns(uint256) {\r\n        uint256 userExpectedReward = expectedReward * (userDeposit[_address] * blocksTillReward + userDepositAge[_address]) / totalExpectedDepositAge;\r\n        return fractionMultiplier * (userDeposit[_address] + userExpectedReward) / (totalDeposits + expectedReward);\r\n    }\r\n\r\n    function _updateDeposit(address _address) internal {\r\n        if (userDepositChanged[_address][lastRewardBlock]) {\r\n            userDepositAge[_address] += (block.number - userDALastUpdated[_address]) * userDeposit[_address];\r\n        } else {\r\n            // a reward has been distributed, update user deposit\r\n            userDeposit[_address] = userBalance(_address);\r\n            userDepositAge[_address] = (block.number - lastRewardBlock) * userDeposit[_address];\r\n            userDepositChanged[_address][lastRewardBlock] = true;\r\n        }\r\n\r\n        if (totalDALastUpdated > lastRewardBlock) {\r\n            totalDepositAge += (block.number - totalDALastUpdated) * totalDeposits;\r\n        } else {\r\n            totalDepositAge = (block.number - lastRewardBlock) * totalDeposits;\r\n        }\r\n\r\n        userDALastUpdated[_address] = block.number;\r\n        totalDALastUpdated = block.number;\r\n    }\r\n\r\n    /**\r\n     * @dev Core function of the strat, in charge of updating, collecting and re-investing rewards.\r\n     * 1. It claims rewards from the {lpStakingPool}.\r\n     * 2. It swaps the {rewardToken} token for {tokenA} & {tokenB}.\r\n     * 3. It deposits the new LP tokens back to the {lpStakingPool}.\r\n     */\r\n    function distribute(address[] calldata rewardTokenToTokenARoute, address[] calldata rewardTokenToTokenBRoute) external onlyOwner nonReentrant{\r\n        require(totalDeposits > 0);\r\n\r\n        lpStakingPool.getReward();\r\n        uint256 rewardTokenHalf = IERC20(rewardToken).balanceOf(address(this))/2;\r\n        uint256 deadline = block.timestamp + 600;\r\n\r\n        if (tokenA != rewardToken) {\r\n            quickswapRouter.swapExactTokensForTokens(rewardTokenHalf, 0, rewardTokenToTokenARoute, address(this), deadline);\r\n        }\r\n        if (tokenB != rewardToken) {\r\n            quickswapRouter.swapExactTokensForTokens(rewardTokenHalf, 0, rewardTokenToTokenBRoute, address(this), deadline);\r\n        }\r\n\r\n        quickswapRouter.addLiquidity(tokenA, tokenB, IERC20(tokenA).balanceOf(address(this)), IERC20(tokenB).balanceOf(address(this)), 1, 1, address(this), deadline);\r\n\r\n        uint256 reward = IERC20(lpPair).balanceOf(address(this));\r\n        if (reward > 0) {\r\n            totalDeposits += reward;\r\n            lpStakingPool.stake(reward);\r\n        }\r\n\r\n        lastRewardPeriod = block.number - lastRewardBlock;\r\n        _setExpectedReward(reward, block.number + lastRewardPeriod);\r\n        lastRewardBlock = block.number;\r\n    }\r\n\r\n    function setExpectedReward(uint256 _amount, uint256 _block) external onlyOwner{\r\n        require(_block > block.number);\r\n        _setExpectedReward(_amount, _block);\r\n    }\r\n\r\n    function _setExpectedReward(uint256 _amount, uint256 _block) internal {\r\n        expectedReward = _amount;\r\n        expectedRewardBlock = _block;\r\n    }\r\n\r\n    /**\r\n     * @dev Returns total funds staked by the {_address}.\r\n     */\r\n    function userBalance(address _address) public view returns (uint256) {\r\n        if (userDepositChanged[_address][lastRewardBlock]) {\r\n            return userDeposit[_address];\r\n        } else {\r\n            if (totalSupply == 0) {\r\n                return 0;\r\n            }\r\n            return totalDeposits * balanceOf[_address] / totalSupply;\r\n        }\r\n    }\r\n\r\n    function _authorizeUpgrade(address newImplementation) internal override onlyOwner {\r\n\r\n    }\r\n}\r\n",
  "sourcePath": "C:\\Users\\jugli\\Desktop\\uno\\uno-contracts-branch\\contracts\\farms\\QuickswapFarmUpgradeable.sol",
  "compiler": {
    "name": "solc",
    "version": "0.8.10+commit.fc410830.Emscripten.clang"
  },
  "schemaVersion": "3.4.7",
  "updatedAt": "2022-05-09T09:02:59.998Z",
  "devdoc": {
    "kind": "dev",
    "methods": {
      "deposit(uint256,uint256,uint256,address)": {
        "details": "Function that makes the deposits. If it's not the first deposit, withdraws {lpStakingPool} and deposits new tokens with the old ones."
      },
      "distribute(address[],address[])": {
        "details": "Core function of the strat, in charge of updating, collecting and re-investing rewards. 1. It claims rewards from the {lpStakingPool}. 2. It swaps the {rewardToken} token for {tokenA} & {tokenB}. 3. It deposits the new LP tokens back to the {lpStakingPool}."
      },
      "upgradeTo(address)": {
        "details": "Upgrade the implementation of the proxy to `newImplementation`. Calls {_authorizeUpgrade}. Emits an {Upgraded} event."
      },
      "upgradeToAndCall(address,bytes)": {
        "details": "Upgrade the implementation of the proxy to `newImplementation`, and subsequently execute the function call encoded in `data`. Calls {_authorizeUpgrade}. Emits an {Upgraded} event."
      },
      "userBalance(address)": {
        "details": "Returns total funds staked by the {_address}."
      },
      "withdraw(address,uint256,bool,address)": {
        "details": "Withdraws funds and sends them to the {recipient}."
      }
    },
    "stateVariables": {
      "expectedRewardBlock": {
        "details": "Contract Variables:"
      },
      "quickswapRouter": {
        "details": "Third Party Contracts: {quickswapRouter} - The contract that executes swaps. {lpStakingPool} - The contract that distibutes {rewardToken}."
      },
      "rewardToken": {
        "details": "Tokens Used: {rewardToken} - Token generated by staking. {lpPair} - Token that the strategy maximizes. The same token that users deposit in the {lpStakingPool}. {tokenA, tokenB} - Tokens that the strategy maximizes."
      }
    },
    "version": 1
  },
  "userdoc": {
    "kind": "user",
    "methods": {},
    "version": 1
  }
}