{
  "contractName": "QuickswapFarmUpgradeable",
  "abi": [
    {
      "anonymous": false,
      "inputs": [
        {
          "indexed": false,
          "internalType": "address",
          "name": "previousAdmin",
          "type": "address"
        },
        {
          "indexed": false,
          "internalType": "address",
          "name": "newAdmin",
          "type": "address"
        }
      ],
      "name": "AdminChanged",
      "type": "event"
    },
    {
      "anonymous": false,
      "inputs": [
        {
          "indexed": true,
          "internalType": "address",
          "name": "owner",
          "type": "address"
        },
        {
          "indexed": true,
          "internalType": "address",
          "name": "spender",
          "type": "address"
        },
        {
          "indexed": false,
          "internalType": "uint256",
          "name": "value",
          "type": "uint256"
        }
      ],
      "name": "Approval",
      "type": "event"
    },
    {
      "anonymous": false,
      "inputs": [
        {
          "indexed": true,
          "internalType": "address",
          "name": "beacon",
          "type": "address"
        }
      ],
      "name": "BeaconUpgraded",
      "type": "event"
    },
    {
      "anonymous": false,
      "inputs": [
        {
          "indexed": true,
          "internalType": "address",
          "name": "from",
          "type": "address"
        },
        {
          "indexed": true,
          "internalType": "address",
          "name": "to",
          "type": "address"
        },
        {
          "indexed": false,
          "internalType": "uint256",
          "name": "value",
          "type": "uint256"
        }
      ],
      "name": "Transfer",
      "type": "event"
    },
    {
      "anonymous": false,
      "inputs": [
        {
          "indexed": true,
          "internalType": "address",
          "name": "implementation",
          "type": "address"
        }
      ],
      "name": "Upgraded",
      "type": "event"
    },
    {
      "inputs": [
        {
          "internalType": "address",
          "name": "",
          "type": "address"
        },
        {
          "internalType": "address",
          "name": "",
          "type": "address"
        }
      ],
      "name": "allowance",
      "outputs": [
        {
          "internalType": "uint256",
          "name": "",
          "type": "uint256"
        }
      ],
      "stateMutability": "view",
      "type": "function",
      "constant": true
    },
    {
      "inputs": [
        {
          "internalType": "address",
          "name": "spender",
          "type": "address"
        },
        {
          "internalType": "uint256",
          "name": "value",
          "type": "uint256"
        }
      ],
      "name": "approve",
      "outputs": [
        {
          "internalType": "bool",
          "name": "",
          "type": "bool"
        }
      ],
      "stateMutability": "nonpayable",
      "type": "function"
    },
    {
      "inputs": [
        {
          "internalType": "address",
          "name": "",
          "type": "address"
        }
      ],
      "name": "balanceOf",
      "outputs": [
        {
          "internalType": "uint256",
          "name": "",
          "type": "uint256"
        }
      ],
      "stateMutability": "view",
      "type": "function",
      "constant": true
    },
    {
      "inputs": [],
      "name": "decimals",
      "outputs": [
        {
          "internalType": "uint8",
          "name": "",
          "type": "uint8"
        }
      ],
      "stateMutability": "view",
      "type": "function",
      "constant": true
    },
    {
      "inputs": [],
      "name": "lpPair",
      "outputs": [
        {
          "internalType": "address",
          "name": "",
          "type": "address"
        }
      ],
      "stateMutability": "view",
      "type": "function",
      "constant": true
    },
    {
      "inputs": [],
      "name": "name",
      "outputs": [
        {
          "internalType": "string",
          "name": "",
          "type": "string"
        }
      ],
      "stateMutability": "view",
      "type": "function",
      "constant": true
    },
    {
      "inputs": [],
      "name": "owner",
      "outputs": [
        {
          "internalType": "address",
          "name": "",
          "type": "address"
        }
      ],
      "stateMutability": "view",
      "type": "function",
      "constant": true
    },
    {
      "inputs": [],
      "name": "rewardToken",
      "outputs": [
        {
          "internalType": "address",
          "name": "",
          "type": "address"
        }
      ],
      "stateMutability": "view",
      "type": "function",
      "constant": true
    },
    {
      "inputs": [],
      "name": "symbol",
      "outputs": [
        {
          "internalType": "string",
          "name": "",
          "type": "string"
        }
      ],
      "stateMutability": "view",
      "type": "function",
      "constant": true
    },
    {
      "inputs": [],
      "name": "tokenA",
      "outputs": [
        {
          "internalType": "address",
          "name": "",
          "type": "address"
        }
      ],
      "stateMutability": "view",
      "type": "function",
      "constant": true
    },
    {
      "inputs": [],
      "name": "tokenB",
      "outputs": [
        {
          "internalType": "address",
          "name": "",
          "type": "address"
        }
      ],
      "stateMutability": "view",
      "type": "function",
      "constant": true
    },
    {
      "inputs": [],
      "name": "totalDeposits",
      "outputs": [
        {
          "internalType": "uint256",
          "name": "",
          "type": "uint256"
        }
      ],
      "stateMutability": "view",
      "type": "function",
      "constant": true
    },
    {
      "inputs": [],
      "name": "totalSupply",
      "outputs": [
        {
          "internalType": "uint256",
          "name": "",
          "type": "uint256"
        }
      ],
      "stateMutability": "view",
      "type": "function",
      "constant": true
    },
    {
      "inputs": [
        {
          "internalType": "address",
          "name": "to",
          "type": "address"
        },
        {
          "internalType": "uint256",
          "name": "value",
          "type": "uint256"
        }
      ],
      "name": "transfer",
      "outputs": [
        {
          "internalType": "bool",
          "name": "",
          "type": "bool"
        }
      ],
      "stateMutability": "nonpayable",
      "type": "function"
    },
    {
      "inputs": [
        {
          "internalType": "address",
          "name": "from",
          "type": "address"
        },
        {
          "internalType": "address",
          "name": "to",
          "type": "address"
        },
        {
          "internalType": "uint256",
          "name": "value",
          "type": "uint256"
        }
      ],
      "name": "transferFrom",
      "outputs": [
        {
          "internalType": "bool",
          "name": "",
          "type": "bool"
        }
      ],
      "stateMutability": "nonpayable",
      "type": "function"
    },
    {
      "inputs": [
        {
          "internalType": "address",
          "name": "newImplementation",
          "type": "address"
        }
      ],
      "name": "upgradeTo",
      "outputs": [],
      "stateMutability": "nonpayable",
      "type": "function"
    },
    {
      "inputs": [
        {
          "internalType": "address",
          "name": "newImplementation",
          "type": "address"
        },
        {
          "internalType": "bytes",
          "name": "data",
          "type": "bytes"
        }
      ],
      "name": "upgradeToAndCall",
      "outputs": [],
      "stateMutability": "payable",
      "type": "function",
      "payable": true
    },
    {
      "inputs": [
        {
          "internalType": "address",
          "name": "_lpStakingPool",
          "type": "address"
        }
      ],
      "name": "initialize",
      "outputs": [],
      "stateMutability": "nonpayable",
      "type": "function"
    },
    {
      "inputs": [
        {
          "internalType": "uint256",
          "name": "amountA",
          "type": "uint256"
        },
        {
          "internalType": "uint256",
          "name": "amountB",
          "type": "uint256"
        },
        {
          "internalType": "uint256",
          "name": "amountLP",
          "type": "uint256"
        },
        {
          "internalType": "address",
          "name": "recipient",
          "type": "address"
        }
      ],
      "name": "deposit",
      "outputs": [
        {
          "internalType": "uint256",
          "name": "sentA",
          "type": "uint256"
        },
        {
          "internalType": "uint256",
          "name": "sentB",
          "type": "uint256"
        },
        {
          "internalType": "uint256",
          "name": "liquidity",
          "type": "uint256"
        }
      ],
      "stateMutability": "nonpayable",
      "type": "function"
    },
    {
      "inputs": [
        {
          "internalType": "address",
          "name": "origin",
          "type": "address"
        },
        {
          "internalType": "uint256",
          "name": "amount",
          "type": "uint256"
        },
        {
          "internalType": "bool",
          "name": "withdrawLP",
          "type": "bool"
        },
        {
          "internalType": "address",
          "name": "recipient",
          "type": "address"
        }
      ],
      "name": "withdraw",
      "outputs": [
        {
          "internalType": "uint256",
          "name": "amountA",
          "type": "uint256"
        },
        {
          "internalType": "uint256",
          "name": "amountB",
          "type": "uint256"
        }
      ],
      "stateMutability": "nonpayable",
      "type": "function"
    },
    {
      "inputs": [
        {
          "internalType": "address[]",
          "name": "rewardTokenToTokenARoute",
          "type": "address[]"
        },
        {
          "internalType": "address[]",
          "name": "rewardTokenToTokenBRoute",
          "type": "address[]"
        }
      ],
      "name": "distribute",
      "outputs": [],
      "stateMutability": "nonpayable",
      "type": "function"
    },
    {
      "inputs": [
        {
          "internalType": "uint256",
          "name": "_amount",
          "type": "uint256"
        },
        {
          "internalType": "uint256",
          "name": "_block",
          "type": "uint256"
        }
      ],
      "name": "setExpectedReward",
      "outputs": [],
      "stateMutability": "nonpayable",
      "type": "function"
    },
    {
      "inputs": [
        {
          "internalType": "address",
          "name": "_address",
          "type": "address"
        }
      ],
      "name": "userBalance",
      "outputs": [
        {
          "internalType": "uint256",
          "name": "",
          "type": "uint256"
        }
      ],
      "stateMutability": "view",
      "type": "function",
      "constant": true
    }
  ],
  "bytecode": "0x60a06040523060805234801561001457600080fd5b506001606855608051612f7661004a600039600081816105f20152818161063b0152818161098501526109c50152612f766000f3fe6080604052600436106101105760003560e01c80630103c92b1461011557806306fdde0314610148578063095ea7b3146101875780630fc63d10146101b757806318160ddd146101e457806323b872dd146101fa578063313ce5671461021a5780633659cfe614610241578063430004c114610263578063452ed4f1146102985780634f1ef286146102b85780635f64b55b146102cb57806370a08231146102eb5780637d882097146103185780638da5cb5b1461032e57806395d89b4114610343578063a9059cbb14610372578063c4d66de814610392578063dd62ed3e146103b2578063e8da9d48146103ea578063f7c618c11461040a578063fad3cc4b1461042a578063fd12530014610465575b600080fd5b34801561012157600080fd5b5061013561013036600461265a565b610485565b6040519081526020015b60405180910390f35b34801561015457600080fd5b5061017a604051806040016040528060068152602001650556e6f2d4c560d41b81525081565b60405161013f91906126a3565b34801561019357600080fd5b506101a76101a23660046126d6565b61053c565b604051901515815260200161013f565b3480156101c357600080fd5b50606b546101d7906001600160a01b031681565b60405161013f9190612702565b3480156101f057600080fd5b5061013560005481565b34801561020657600080fd5b506101a7610215366004612716565b610552565b34801561022657600080fd5b5061022f601281565b60405160ff909116815260200161013f565b34801561024d57600080fd5b5061026161025c36600461265a565b6105e7565b005b34801561026f57600080fd5b5061028361027e366004612765565b6106b9565b6040805192835260208301919091520161013f565b3480156102a457600080fd5b50606a546101d7906001600160a01b031681565b6102616102c63660046127fe565b61097a565b3480156102d757600080fd5b50606c546101d7906001600160a01b031681565b3480156102f757600080fd5b5061013561030636600461265a565b60016020526000908152604090205481565b34801561032457600080fd5b5061013560765481565b34801561033a57600080fd5b506101d7610a34565b34801561034f57600080fd5b5061017a604051806040016040528060038152602001620554c560ec1b81525081565b34801561037e57600080fd5b506101a761038d3660046126d6565b610a43565b34801561039e57600080fd5b506102616103ad36600461265a565b610a50565b3480156103be57600080fd5b506101356103cd3660046128a5565b600260209081526000928352604080842090915290825290205481565b3480156103f657600080fd5b506102616104053660046128de565b610f7c565b34801561041657600080fd5b506069546101d7906001600160a01b031681565b34801561043657600080fd5b5061044a610445366004612900565b610fa3565b6040805193845260208401929092529082015260600161013f565b34801561047157600080fd5b50610261610480366004612981565b611266565b6070546001600160a01b038216600090815260746020526040812054909110806104d457506001600160a01b0382166000908152607560209081526040808320607054845290915290205460ff165b156104f557506001600160a01b031660009081526072602052604090205490565b60005461050457506000919050565b600080546001600160a01b0384168252600160205260409091205460765461052c9190612a02565b6105369190612a21565b92915050565b6000610549338484611796565b50600192915050565b6001600160a01b0383166000908152600260209081526040808320338452909152812054600019146105d1576001600160a01b03841660009081526002602090815260408083203384529091529020546105ac90836117f8565b6001600160a01b03851660009081526002602090815260408083203384529091529020555b6105dc848484611804565b5060015b9392505050565b306001600160a01b037f00000000000000000000000000000000000000000000000000000000000000001614156106395760405162461bcd60e51b815260040161063090612a43565b60405180910390fd5b7f00000000000000000000000000000000000000000000000000000000000000006001600160a01b031661066b611898565b6001600160a01b0316146106915760405162461bcd60e51b815260040161063090612a7d565b61069a816118b4565b604080516000808252602082019092526106b6918391906118d0565b50565b600080336106c5610a34565b6001600160a01b0316146106d857600080fd5b600260685414156106fb5760405162461bcd60e51b815260040161063090612ab7565b60026068556001600160a01b03861660009081526072602052604090205461072257600080fd5b61072b86611a17565b600043606e54111561074c5743606e546107459190612aee565b905061075e565b600260715461075b9190612a21565b90505b6000607754826076546107719190612a02565b61077b9190612b05565b905060006107898389612a02565b6107939083612aee565b6001600160a01b038a16600090815260726020526040812080549293508a929091906107c0908490612aee565b9250508190555087607660008282546107d99190612aee565b9091555050606f5482906107ee908390612a02565b6107f89190612a21565b606f5561080783828a8c611bca565b606d54604051632e1a7d4d60e01b8152600481018a90526001600160a01b0390911690632e1a7d4d90602401600060405180830381600087803b15801561084d57600080fd5b505af1158015610861573d6000803e3d6000fd5b50505050861561089157606a54610882906001600160a01b0316878a611d64565b6000809450945050505061096a565b606b54606c54600080516020612f218339815191529163baa2abde916001600160a01b0391821691168b6000808c6108cb42610258612b05565b60405160e089901b6001600160e01b03191681526001600160a01b039788166004820152958716602487015260448601949094526064850192909252608484015290921660a482015260c481019190915260e40160408051808303816000875af115801561093d573d6000803e3d6000fd5b505050506040513d601f19601f820116820180604052508101906109619190612b1d565b90955093505050505b6001606855909590945092505050565b306001600160a01b037f00000000000000000000000000000000000000000000000000000000000000001614156109c35760405162461bcd60e51b815260040161063090612a43565b7f00000000000000000000000000000000000000000000000000000000000000006001600160a01b03166109f5611898565b6001600160a01b031614610a1b5760405162461bcd60e51b815260040161063090612a7d565b610a24826118b4565b610a30828260016118d0565b5050565b6036546001600160a01b031690565b6000610549338484611804565b600354610100900460ff16610a6b5760035460ff1615610a73565b610a73611dbf565b610a8f5760405162461bcd60e51b815260040161063090612b41565b600354610100900460ff16158015610ab1576003805461ffff19166101011790555b610ab9611dd0565b606d80546001600160a01b0319166001600160a01b038416908117909155604080516372f702f360e01b815290516372f702f3916004808201926020929091908290030181865afa158015610b12573d6000803e3d6000fd5b505050506040513d601f19601f82011682018060405250810190610b369190612b8f565b606a80546001600160a01b0319166001600160a01b03928316179055606d546040805163d1af0c7d60e01b81529051919092169163d1af0c7d9160048083019260209291908290030181865afa158015610b94573d6000803e3d6000fd5b505050506040513d601f19601f82011682018060405250810190610bb89190612b8f565b606980546001600160a01b0319166001600160a01b03928316179055606a5460408051630dfe168160e01b815290519190921691630dfe16819160048083019260209291908290030181865afa158015610c16573d6000803e3d6000fd5b505050506040513d601f19601f82011682018060405250810190610c3a9190612b8f565b606b80546001600160a01b0319166001600160a01b03928316179055606a546040805163d21220a760e01b81529051919092169163d21220a79160048083019260209291908290030181865afa158015610c98573d6000803e3d6000fd5b505050506040513d601f19601f82011682018060405250810190610cbc9190612b8f565b606c80546001600160a01b0319166001600160a01b03928316179055606a5460405163095ea7b360e01b815260001992919091169063095ea7b390610d079086908590600401612bac565b6020604051808303816000875af1158015610d26573d6000803e3d6000fd5b505050506040513d601f19601f82011682018060405250810190610d4a9190612bc5565b50606a5460405163095ea7b360e01b81526001600160a01b039091169063095ea7b390610d8b90600080516020612f21833981519152908590600401612bac565b6020604051808303816000875af1158015610daa573d6000803e3d6000fd5b505050506040513d601f19601f82011682018060405250810190610dce9190612bc5565b5060695460405163095ea7b360e01b81526001600160a01b039091169063095ea7b390610e0f90600080516020612f21833981519152908590600401612bac565b6020604051808303816000875af1158015610e2e573d6000803e3d6000fd5b505050506040513d601f19601f82011682018060405250810190610e529190612bc5565b50606b5460405163095ea7b360e01b81526001600160a01b039091169063095ea7b390610e9390600080516020612f21833981519152908590600401612bac565b6020604051808303816000875af1158015610eb2573d6000803e3d6000fd5b505050506040513d601f19601f82011682018060405250810190610ed69190612bc5565b50606c5460405163095ea7b360e01b81526001600160a01b039091169063095ea7b390610f1790600080516020612f21833981519152908590600401612bac565b6020604051808303816000875af1158015610f36573d6000803e3d6000fd5b505050506040513d601f19601f82011682018060405250810190610f5a9190612bc5565b50504360705562124f806071558015610a30576003805461ff00191690555050565b33610f85610a34565b6001600160a01b031614610f9857600080fd5b606f91909155606e55565b6000808033610fb0610a34565b6001600160a01b031614610fc357600080fd5b60026068541415610fe65760405162461bcd60e51b815260040161063090612ab7565b600260685560008715801590610ffc5750600087115b156110aa57606b54606c54600080516020612f218339815191529163e8e33700916001600160a01b0391821691168b8b6000803061103c42610258612b05565b6040518963ffffffff1660e01b815260040161105f989796959493929190612be2565b6060604051808303816000875af115801561107e573d6000803e3d6000fd5b505050506040513d601f19601f820116820180604052508101906110a29190612c2b565b919550935090505b6110b48682612b05565b9150600082116110c357600080fd5b6110cc85611a17565b600043606e5411156110ed5743606e546110e69190612aee565b90506110ff565b60026071546110fc9190612a21565b90505b6000607754826076546111129190612a02565b61111c9190612b05565b905060008161112b8487612a02565b6111359190612b05565b6001600160a01b038916600090815260726020526040812080549293508792909190611162908490612b05565b92505081905550846076600082825461117b9190612b05565b909155505081156111a3578181606f546111959190612a02565b61119f9190612a21565b606f555b6111af8382878b611e55565b606d5460405163534a7e1d60e11b8152600481018790526001600160a01b039091169063a694fc3a90602401600060405180830381600087803b1580156111f557600080fd5b505af1158015611209573d6000803e3d6000fd5b5050505061123088888d61121d9190612aee565b606b546001600160a01b03169190611d64565b6112518861123e888d612aee565b606c546001600160a01b03169190611d64565b50506001606855509297919650945092505050565b3361126f610a34565b6001600160a01b03161461128257600080fd5b600260685414156112a55760405162461bcd60e51b815260040161063090612ab7565b60026068556076546112b657600080fd5b606d60009054906101000a90046001600160a01b03166001600160a01b0316633d18b9126040518163ffffffff1660e01b8152600401600060405180830381600087803b15801561130657600080fd5b505af115801561131a573d6000803e3d6000fd5b50506069546040516370a0823160e01b815260009350600292506001600160a01b03909116906370a0823190611354903090600401612702565b602060405180830381865afa158015611371573d6000803e3d6000fd5b505050506040513d601f19601f820116820180604052508101906113959190612c59565b61139f9190612a21565b905060006113af42610258612b05565b606954606b549192506001600160a01b0391821691161461144f576040516338ed173960e01b8152600080516020612f21833981519152906338ed1739906114069085906000908b908b9030908990600401612c72565b6000604051808303816000875af1158015611425573d6000803e3d6000fd5b505050506040513d6000823e601f3d908101601f1916820160405261144d9190810190612ce5565b505b606954606c546001600160a01b039081169116146114ec576040516338ed173960e01b8152600080516020612f21833981519152906338ed1739906114a39085906000908990899030908990600401612c72565b6000604051808303816000875af11580156114c2573d6000803e3d6000fd5b505050506040513d6000823e601f3d908101601f191682016040526114ea9190810190612ce5565b505b606b546040516370a0823160e01b81526000916001600160a01b0316906370a082319061151d903090600401612702565b602060405180830381865afa15801561153a573d6000803e3d6000fd5b505050506040513d601f19601f8201168201806040525081019061155e9190612c59565b606c546040516370a0823160e01b81529192506000916001600160a01b03909116906370a0823190611594903090600401612702565b602060405180830381865afa1580156115b1573d6000803e3d6000fd5b505050506040513d601f19601f820116820180604052508101906115d59190612c59565b606b54606c5460405162e8e33760e81b8152929350600080516020612f218339815191529263e8e3370092611628926001600160a01b039182169291169087908790600190819030908d90600401612be2565b6060604051808303816000875af1158015611647573d6000803e3d6000fd5b505050506040513d601f19601f8201168201806040525081019061166b9190612c2b565b5050606a546040516370a0823160e01b8152600092506001600160a01b03909116906370a08231906116a1903090600401612702565b602060405180830381865afa1580156116be573d6000803e3d6000fd5b505050506040513d601f19601f820116820180604052508101906116e29190612c59565b905080156117605780607660008282546116fc9190612b05565b9091555050606d5460405163534a7e1d60e11b8152600481018390526001600160a01b039091169063a694fc3a90602401600060405180830381600087803b15801561174757600080fd5b505af115801561175b573d6000803e3d6000fd5b505050505b60705461176d9043612aee565b6071819055611782908290610f989043612b05565b505043607055505060016068555050505050565b6001600160a01b0383811660008181526002602090815260408083209487168084529482529182902085905590518481527f8c5be1e5ebec7d5bd14f71427d1e84f3dd0314c0f7b2291e5b200ac8c7c3b92591015b60405180910390a3505050565b60006105e08284612aee565b6001600160a01b03831660009081526001602052604090205461182790826117f8565b6001600160a01b0380851660009081526001602052604080822093909355908416815220546118569082612028565b6001600160a01b038084166000818152600160205260409081902093909355915190851690600080516020612f01833981519152906117eb9085815260200190565b600080516020612eba833981519152546001600160a01b031690565b336118bd610a34565b6001600160a01b0316146106b657600080fd5b60006118da611898565b90506118e584612034565b6000835111806118f25750815b156119035761190184846120c7565b505b7f4910fdfa16fed3260ed0e7147f7cc6da11a60208b5b9406d12a635614ffd9143805460ff16611a1057805460ff1916600117815560405161197e90869061194f908590602401612702565b60408051601f198184030181529190526020810180516001600160e01b0316631b2ce7f360e11b1790526120c7565b50805460ff1916815561198f611898565b6001600160a01b0316826001600160a01b031614611a075760405162461bcd60e51b815260206004820152602f60248201527f45524331393637557067726164653a207570677261646520627265616b73206660448201526e75727468657220757067726164657360881b6064820152608401610630565b611a10856120ec565b5050505050565b6070546001600160a01b0382166000908152607460205260409020541180611a6457506001600160a01b0381166000908152607560209081526040808320607054845290915290205460ff165b15611ad5576001600160a01b038116600090815260726020908152604080832054607490925290912054611a989043612aee565b611aa29190612a02565b6001600160a01b03821660009081526073602052604081208054909190611aca908490612b05565b90915550611b2a9050565b611ade81610485565b6001600160a01b0382166000908152607260205260409020819055607054611b069043612aee565b611b109190612a02565b6001600160a01b0382166000908152607360205260409020555b6070546078541115611b6c57607654607854611b469043612aee565b611b509190612a02565b60776000828254611b619190612b05565b90915550611b8a9050565b607654607054611b7c9043612aee565b611b869190612a02565b6077555b6001600160a01b0316600090815260746020908152604080832043908190556078556075825280832060705484529091529020805460ff19166001179055565b600080546001600160a01b038316825260016020526040909120541415611c37576001600160a01b038116600090815260726020526040902054611c32908290611c15908590612b05565b84600054611c239190612a02565b611c2d9190612a21565b61212c565b611d5e565b6001600160a01b0381166000908152607360209081526040808320546072909252822054859190611c69908890612a02565b611c739190612b05565b606f54611c809190612a02565b611c8a9190612a21565b90506000606f54607654611c9e9190612b05565b6001600160a01b038416600090815260726020526040902054611cc2908490612b05565b611cce6012600a612e6e565b611cd89190612a02565b611ce29190612a21565b9050611d5b8382611cf56012600a612e6e565b611cff9190612aee565b611d0b6012600a612e6e565b600054611d189086612a02565b611d229190612a21565b6001600160a01b038716600090815260016020526040902054611d459190612aee565b611d516012600a612e6e565b611c239190612a02565b50505b50505050565b611dba8363a9059cbb60e01b8484604051602401611d83929190612bac565b60408051601f198184030181529190526020810180516001600160e01b03166001600160e01b0319909316929092179091526121ac565b505050565b6000611dca3061227e565b15905090565b600354610100900460ff16611deb5760035460ff1615611df3565b611df3611dbf565b611e0f5760405162461bcd60e51b815260040161063090612b41565b600354610100900460ff16158015611e31576003805461ffff19166101011790555b611e3961228d565b611e416122fa565b80156106b6576003805461ff001916905550565b600054611e7157611c3281611e6c6012600a612e6e565b612381565b6001600160a01b0381166000908152607360209081526040808320546072909252822054859190611ea3908890612a02565b611ead9190612b05565b606f54611eba9190612a02565b611ec49190612a21565b6001600160a01b03831660009081526072602052604081205491925090611eec908390612b05565b90506000606f54607654611f009190612b05565b905080821415611f7757600080546001600160a01b03861682526072602052604090912054611f6f918691611f36908990612aee565b6001600160a01b0388166000908152607260205260408120549054611f5b9190612a02565b611f659190612a21565b611e6c9190612aee565b505050611d5e565b60008183611f876012600a612e6e565b611f919190612a02565b611f9b9190612a21565b905061201e8582611fae6012600a612e6e565b611fb89190612aee565b6001600160a01b038816600090815260016020526040902054611fdd6012600a612e6e565b600054611fea9087612a02565b611ff49190612a21565b611ffe9190612aee565b61200a6012600a612e6e565b6120149190612a02565b611e6c9190612a21565b5050505050505050565b60006105e08284612b05565b803b6120985760405162461bcd60e51b815260206004820152602d60248201527f455243313936373a206e657720696d706c656d656e746174696f6e206973206e60448201526c1bdd08184818dbdb9d1c9858dd609a1b6064820152608401610630565b600080516020612eba83398151915280546001600160a01b0319166001600160a01b0392909216919091179055565b60606105e08383604051806060016040528060278152602001612eda602791396123f2565b6120f581612034565b6040516001600160a01b038216907fbc7cd75a20ee27fd9adebab32041f755214dbc6bffa90cc0225b39da2e5c2d3b90600090a250565b6001600160a01b03821660009081526001602052604090205461214f90826117f8565b6001600160a01b0383166000908152600160205260408120919091555461217690826117f8565b60009081556040518281526001600160a01b03841690600080516020612f01833981519152906020015b60405180910390a35050565b6000612201826040518060400160405280602081526020017f5361666545524332303a206c6f772d6c6576656c2063616c6c206661696c6564815250856001600160a01b03166124c69092919063ffffffff16565b805190915015611dba578080602001905181019061221f9190612bc5565b611dba5760405162461bcd60e51b815260206004820152602a60248201527f5361666545524332303a204552433230206f7065726174696f6e20646964206e6044820152691bdd081cdd58d8d9595960b21b6064820152608401610630565b6001600160a01b03163b151590565b600354610100900460ff166122f85760405162461bcd60e51b815260206004820152602b60248201527f496e697469616c697a61626c653a20636f6e7472616374206973206e6f74206960448201526a6e697469616c697a696e6760a81b6064820152608401610630565b565b600354610100900460ff166123155760035460ff161561231d565b61231d611dbf565b6123395760405162461bcd60e51b815260040161063090612b41565b600354610100900460ff1615801561235b576003805461ffff19166101011790555b603680546001600160a01b0319163317905580156106b6576003805461ff001916905550565b60005461238e9082612028565b60009081556001600160a01b0383168152600160205260409020546123b39082612028565b6001600160a01b038316600081815260016020526040808220939093559151909190600080516020612f01833981519152906121a09085815260200190565b6060833b6124515760405162461bcd60e51b815260206004820152602660248201527f416464726573733a2064656c65676174652063616c6c20746f206e6f6e2d636f6044820152651b9d1c9858dd60d21b6064820152608401610630565b600080856001600160a01b03168560405161246c9190612e7d565b600060405180830381855af49150503d80600081146124a7576040519150601f19603f3d011682016040523d82523d6000602084013e6124ac565b606091505b50915091506124bc8282866124dd565b9695505050505050565b60606124d58484600085612516565b949350505050565b606083156124ec5750816105e0565b8251156124fc5782518084602001fd5b8160405162461bcd60e51b815260040161063091906126a3565b6060824710156125775760405162461bcd60e51b815260206004820152602660248201527f416464726573733a20696e73756666696369656e742062616c616e636520666f6044820152651c8818d85b1b60d21b6064820152608401610630565b6125808561227e565b6125cc5760405162461bcd60e51b815260206004820152601d60248201527f416464726573733a2063616c6c20746f206e6f6e2d636f6e74726163740000006044820152606401610630565b600080866001600160a01b031685876040516125e89190612e7d565b60006040518083038185875af1925050503d8060008114612625576040519150601f19603f3d011682016040523d82523d6000602084013e61262a565b606091505b509150915061263a8282866124dd565b979650505050505050565b6001600160a01b03811681146106b657600080fd5b60006020828403121561266c57600080fd5b81356105e081612645565b60005b8381101561269257818101518382015260200161267a565b83811115611d5e5750506000910152565b60208152600082518060208401526126c2816040850160208701612677565b601f01601f19169190910160400192915050565b600080604083850312156126e957600080fd5b82356126f481612645565b946020939093013593505050565b6001600160a01b0391909116815260200190565b60008060006060848603121561272b57600080fd5b833561273681612645565b9250602084013561274681612645565b929592945050506040919091013590565b80151581146106b657600080fd5b6000806000806080858703121561277b57600080fd5b843561278681612645565b935060208501359250604085013561279d81612757565b915060608501356127ad81612645565b939692955090935050565b634e487b7160e01b600052604160045260246000fd5b604051601f8201601f191681016001600160401b03811182821017156127f6576127f66127b8565b604052919050565b6000806040838503121561281157600080fd5b823561281c81612645565b91506020838101356001600160401b038082111561283957600080fd5b818601915086601f83011261284d57600080fd5b81358181111561285f5761285f6127b8565b612871601f8201601f191685016127ce565b9150808252878482850101111561288757600080fd5b80848401858401376000848284010152508093505050509250929050565b600080604083850312156128b857600080fd5b82356128c381612645565b915060208301356128d381612645565b809150509250929050565b600080604083850312156128f157600080fd5b50508035926020909101359150565b6000806000806080858703121561291657600080fd5b84359350602085013592506040850135915060608501356127ad81612645565b60008083601f84011261294857600080fd5b5081356001600160401b0381111561295f57600080fd5b6020830191508360208260051b850101111561297a57600080fd5b9250929050565b6000806000806040858703121561299757600080fd5b84356001600160401b03808211156129ae57600080fd5b6129ba88838901612936565b909650945060208701359150808211156129d357600080fd5b506129e087828801612936565b95989497509550505050565b634e487b7160e01b600052601160045260246000fd5b6000816000190483118215151615612a1c57612a1c6129ec565b500290565b600082612a3e57634e487b7160e01b600052601260045260246000fd5b500490565b6020808252602c90820152600080516020612e9a83398151915260408201526b19195b1959d85d1958d85b1b60a21b606082015260800190565b6020808252602c90820152600080516020612e9a83398151915260408201526b6163746976652070726f787960a01b606082015260800190565b6020808252601f908201527f5265656e7472616e637947756172643a207265656e7472616e742063616c6c00604082015260600190565b600082821015612b0057612b006129ec565b500390565b60008219821115612b1857612b186129ec565b500190565b60008060408385031215612b3057600080fd5b505080516020909101519092909150565b6020808252602e908201527f496e697469616c697a61626c653a20636f6e747261637420697320616c72656160408201526d191e481a5b9a5d1a585b1a5e995960921b606082015260800190565b600060208284031215612ba157600080fd5b81516105e081612645565b6001600160a01b03929092168252602082015260400190565b600060208284031215612bd757600080fd5b81516105e081612757565b6001600160a01b039889168152968816602088015260408701959095526060860193909352608085019190915260a084015290921660c082015260e08101919091526101000190565b600080600060608486031215612c4057600080fd5b8351925060208401519150604084015190509250925092565b600060208284031215612c6b57600080fd5b5051919050565b868152602080820187905260a0604083018190528201859052600090869060c08401835b88811015612cc4578335612ca981612645565b6001600160a01b031682529282019290820190600101612c96565b506001600160a01b0396909616606085015250505060800152949350505050565b60006020808385031215612cf857600080fd5b82516001600160401b0380821115612d0f57600080fd5b818501915085601f830112612d2357600080fd5b815181811115612d3557612d356127b8565b8060051b9150612d468483016127ce565b8181529183018401918481019088841115612d6057600080fd5b938501935b83851015612d7e57845182529385019390850190612d65565b98975050505050505050565b600181815b80851115612dc5578160001904821115612dab57612dab6129ec565b80851615612db857918102915b93841c9390800290612d8f565b509250929050565b600082612ddc57506001610536565b81612de957506000610536565b8160018114612dff5760028114612e0957612e25565b6001915050610536565b60ff841115612e1a57612e1a6129ec565b50506001821b610536565b5060208310610133831016604e8410600b8410161715612e48575081810a610536565b612e528383612d8a565b8060001904821115612e6657612e666129ec565b029392505050565b60006105e060ff841683612dcd565b60008251612e8f818460208701612677565b919091019291505056fe46756e6374696f6e206d7573742062652063616c6c6564207468726f75676820360894a13ba1a3210667c828492db98dca3e2076cc3735a920a3ca505d382bbc416464726573733a206c6f772d6c6576656c2064656c65676174652063616c6c206661696c6564ddf252ad1be2c89b69c2b068fc378daa952ba7f163c4a11628f55a4df523b3ef000000000000000000000000a5e0829caced8ffdd4de3c43696c57f7d7a678ffa264697066735822122065643ba2639751ea874ae493160cca5269d9666572826b3ec728777948d20a1f64736f6c634300080a0033",
  "immutableReferences": {
    "1581": [
      {
        "length": 32,
        "start": 1522
      },
      {
        "length": 32,
        "start": 1595
      },
      {
        "length": 32,
        "start": 2437
      },
      {
        "length": 32,
        "start": 2501
      }
    ]
  },
  "source": "// SPDX-License-Identifier: MIT\r\npragma solidity 0.8.10;\r\n\r\nimport \"../interfaces/IUniswapV2Pair.sol\";\r\nimport \"../interfaces/IUniswapV2Router.sol\";\r\nimport \"../interfaces/IStakingRewards.sol\";\r\nimport \"../utils/UniswapV2ERC20.sol\"; \r\nimport \"../utils/OwnableUpgradeableNoTransfer.sol\";\r\nimport \"@openzeppelin/contracts/proxy/utils/UUPSUpgradeable.sol\";\r\nimport \"@openzeppelin/contracts/security/ReentrancyGuard.sol\";\r\nimport \"@openzeppelin/contracts-upgradeable/token/ERC20/utils/SafeERC20Upgradeable.sol\";\r\nimport \"@openzeppelin/contracts-upgradeable/token/ERC20/IERC20Upgradeable.sol\";\r\n\r\ncontract QuickswapFarmUpgradeable is UniswapV2ERC20, UUPSUpgradeable, Initializable, OwnableUpgradeableNoTransfer, ReentrancyGuard {\r\n    using SafeERC20Upgradeable for IERC20Upgradeable;\r\n\r\n    /**\r\n     * @dev Tokens Used:\r\n     * {rewardToken} - Token generated by staking.\r\n     * {lpPair} - Token that the strategy maximizes. The same token that users deposit in the {lpStakingPool}.\r\n     * {tokenA, tokenB} - Tokens that the strategy maximizes.\r\n     */\r\n    address public rewardToken;\r\n    address public lpPair;\r\n    address public tokenA;\r\n    address public tokenB;\r\n\r\n    /**\r\n     * @dev Third Party Contracts:\r\n     * {quickswapRouter} - The contract that executes swaps.\r\n     * {lpStakingPool} - The contract that distibutes {rewardToken}.\r\n     */\r\n    IUniswapV2Router01 private constant quickswapRouter = IUniswapV2Router01(0xa5E0829CaCEd8fFDD4De3c43696c57F7D7A678ff); \r\n    IStakingRewards private lpStakingPool;\r\n\r\n    /**\r\n     * @dev Contract Variables:\r\n     *\r\n     *\r\n     */\r\n    uint256 private expectedRewardBlock;\r\n    uint256 private expectedReward;\r\n    uint256 private lastRewardBlock;\r\n    uint256 private lastRewardPeriod;\r\n\r\n    mapping(address => uint256) private userDeposit;\r\n    mapping(address => uint256) private userDepositAge;\r\n    mapping(address => uint256) private userDALastUpdated;\r\n    mapping(address => mapping(uint256 => bool)) private userDepositChanged;\r\n\r\n    uint256 public totalDeposits;\r\n    uint256 private totalDepositAge;\r\n    uint256 private totalDALastUpdated;\r\n\r\n    uint256 private constant fractionMultiplier = 10**decimals;\r\n\r\n    // ============ Methods ============\r\n\r\n    function initialize(address _lpStakingPool) external initializer {\r\n        __Ownable_init();\r\n\r\n        lpStakingPool = IStakingRewards(_lpStakingPool);\r\n        lpPair = address(lpStakingPool.stakingToken());\r\n\r\n        rewardToken = lpStakingPool.rewardsToken();\r\n\r\n        tokenA = IUniswapV2Pair(lpPair).token0();\r\n        tokenB = IUniswapV2Pair(lpPair).token1();\r\n\r\n        uint256 MAX_UINT = uint256(2**256 - 1);\r\n        IERC20(lpPair).approve(_lpStakingPool, MAX_UINT);\r\n        IERC20(lpPair).approve(address(quickswapRouter), MAX_UINT);\r\n        IERC20(rewardToken).approve(address(quickswapRouter), MAX_UINT);\r\n        IERC20(tokenA).approve(address(quickswapRouter), MAX_UINT);\r\n        IERC20(tokenB).approve(address(quickswapRouter), MAX_UINT);\r\n\r\n        lastRewardBlock = block.number;\r\n        lastRewardPeriod = 1200000; //this is somewhere around 1 month at the time of writing this contract\r\n    }\r\n\r\n    /**\r\n     * @dev Function that makes the deposits.\r\n     * If it's not the first deposit, withdraws {lpStakingPool} and deposits new tokens with the old ones.\r\n     */\r\n    function deposit(uint256 amountA, uint256 amountB, uint256 amountLP, address recipient) external onlyOwner nonReentrant returns(uint256 sentA, uint256 sentB, uint256 liquidity){\r\n        uint256 addedLiquidity;\r\n        if(amountA > 0 && amountB > 0){\r\n            (sentA, sentB, addedLiquidity) = quickswapRouter.addLiquidity(tokenA, tokenB, amountA, amountB, 0, 0, address(this), block.timestamp + 600);\r\n        }\r\n        liquidity = addedLiquidity + amountLP;\r\n        require(liquidity > 0);\r\n\r\n        _updateDeposit(recipient);\r\n\r\n        uint256 blocksTillReward;\r\n        if(expectedRewardBlock > block.number){\r\n            blocksTillReward = expectedRewardBlock - block.number;\r\n        }else{\r\n            blocksTillReward = lastRewardPeriod / 2;\r\n        }\r\n\r\n        uint256 totalExpectedDepositAgePrev = totalDeposits * blocksTillReward + totalDepositAge;\r\n        uint256 totalExpectedDepositAge = liquidity * blocksTillReward + totalExpectedDepositAgePrev;\r\n        // update deposit amounts\r\n        userDeposit[recipient] += liquidity;\r\n        totalDeposits += liquidity;\r\n        // expected reward will increase proportionally to the increase of total expected deposit age\r\n        if (totalExpectedDepositAgePrev > 0) {\r\n            expectedReward = expectedReward * totalExpectedDepositAge / totalExpectedDepositAgePrev;\r\n        }\r\n\r\n        _mintLP(blocksTillReward, totalExpectedDepositAge, liquidity, recipient);\r\n            \r\n        lpStakingPool.stake(liquidity);\r\n        IERC20Upgradeable(tokenA).safeTransfer(recipient, amountA - sentA);\r\n        IERC20Upgradeable(tokenB).safeTransfer(recipient, amountB - sentB);\r\n    }\r\n\r\n    function _mintLP(uint256 blocksTillReward, uint256 totalExpectedDepositAge, uint256 liquidity, address recipient) internal {\r\n        if (totalSupply == 0) {\r\n            _mint(recipient, 10**decimals);\r\n            return;\r\n        }\r\n        uint256 userExpectedReward = expectedReward * (userDeposit[recipient] * blocksTillReward + userDepositAge[recipient]) / totalExpectedDepositAge;\r\n        uint256 userExpectedDeposit = userDeposit[recipient] + userExpectedReward;\r\n        uint256 expectedTotalDeposit = totalDeposits + expectedReward;\r\n        if (userExpectedDeposit == expectedTotalDeposit) {\r\n            _mint(recipient, totalSupply * userDeposit[recipient] / (userDeposit[recipient] - liquidity) - totalSupply);\r\n            return;\r\n        }\r\n        uint256 userNewShare = fractionMultiplier * userExpectedDeposit / expectedTotalDeposit;\r\n        _mint(recipient, fractionMultiplier * (userNewShare * totalSupply / fractionMultiplier - balanceOf[recipient]) / (fractionMultiplier - userNewShare));\r\n    }\r\n\r\n    /**\r\n     * @dev Withdraws funds and sends them to the {recipient}.\r\n     */\r\n    function withdraw(address origin, uint256 amount, bool withdrawLP, address recipient) external onlyOwner nonReentrant returns(uint256 amountA, uint256 amountB){\r\n        require(userDeposit[origin] > 0);\r\n\r\n        _updateDeposit(origin);\r\n\r\n        uint256 blocksTillReward;\r\n        if(expectedRewardBlock > block.number){\r\n            blocksTillReward = expectedRewardBlock - block.number;\r\n        }else{\r\n            blocksTillReward = lastRewardPeriod / 2;\r\n        }\r\n\r\n        uint256 totalExpectedDepositAgePrev = totalDeposits * blocksTillReward + totalDepositAge;\r\n        uint256 totalExpectedDepositAge = totalExpectedDepositAgePrev - amount * blocksTillReward;\r\n        // update deposit amounts\r\n        userDeposit[origin] -= amount;\r\n        totalDeposits -= amount;\r\n        // expected reward will decrease proportionally to the decrease of total expected deposit age\r\n        expectedReward = expectedReward * totalExpectedDepositAge / totalExpectedDepositAgePrev;\r\n\r\n        _burnLP(blocksTillReward, totalExpectedDepositAge, amount, origin);\r\n\r\n        lpStakingPool.withdraw(amount);\r\n        if(withdrawLP){\r\n            IERC20Upgradeable(lpPair).safeTransfer(recipient, amount);\r\n            return (0, 0);\r\n        }\r\n        (amountA, amountB) = quickswapRouter.removeLiquidity(tokenA, tokenB, amount, 0, 0, recipient, block.timestamp + 600);\r\n    }\r\n\r\n    function _burnLP(uint256 blocksTillReward, uint256 totalExpectedDepositAge, uint256 amount, address origin) internal{\r\n        if (balanceOf[origin] == totalSupply) {\r\n            _burn(origin, totalSupply * amount / (userDeposit[origin] + amount));\r\n            return;\r\n        }\r\n        uint256 userExpectedReward = expectedReward * (userDeposit[origin] * blocksTillReward + userDepositAge[origin]) / totalExpectedDepositAge;\r\n        uint256 userNewShare = fractionMultiplier * (userDeposit[origin] + userExpectedReward) / (totalDeposits + expectedReward);\r\n        _burn(origin, fractionMultiplier * (balanceOf[origin] - userNewShare * totalSupply / fractionMultiplier)/(fractionMultiplier - userNewShare));\r\n    }\r\n\r\n    function _updateDeposit(address _address) internal {\r\n        if (userDALastUpdated[_address] > lastRewardBlock || userDepositChanged[_address][lastRewardBlock]) {\r\n            // add deposit age from previous deposit age update till now\r\n            userDepositAge[_address] += (block.number - userDALastUpdated[_address]) * userDeposit[_address];\r\n        } else {\r\n            // a reward has been distributed, update user deposit\r\n            userDeposit[_address] = userBalance(_address);\r\n            // count fresh deposit age from that reward distribution till now\r\n            userDepositAge[_address] = (block.number - lastRewardBlock) * userDeposit[_address];\r\n        }\r\n\r\n        // same with total deposit age\r\n        if (totalDALastUpdated > lastRewardBlock) {\r\n            totalDepositAge += (block.number - totalDALastUpdated) * totalDeposits;\r\n        } else {\r\n            totalDepositAge = (block.number - lastRewardBlock) * totalDeposits;\r\n        }\r\n\r\n        userDALastUpdated[_address] = block.number;\r\n        totalDALastUpdated = block.number;\r\n        userDepositChanged[_address][lastRewardBlock] = true;\r\n    }\r\n\r\n    /**\r\n     * @dev Core function of the strat, in charge of updating, collecting and re-investing rewards.\r\n     * 1. It claims rewards from the {lpStakingPool}.\r\n     * 2. It swaps the {rewardToken} token for {tokenA} & {tokenB}.\r\n     * 3. It deposits the new LP tokens back to the {lpStakingPool}.\r\n     */\r\n    function distribute(address[] calldata rewardTokenToTokenARoute, address[] calldata rewardTokenToTokenBRoute) external onlyOwner nonReentrant{\r\n        require(totalDeposits > 0);\r\n\r\n        lpStakingPool.getReward();\r\n        uint256 rewardTokenHalf = IERC20(rewardToken).balanceOf(address(this))/2;\r\n        uint256 deadline = block.timestamp + 600;\r\n\r\n        if (tokenA != rewardToken) {\r\n            quickswapRouter.swapExactTokensForTokens(rewardTokenHalf, 0, rewardTokenToTokenARoute, address(this), deadline);\r\n        }\r\n        if (tokenB != rewardToken) {\r\n            quickswapRouter.swapExactTokensForTokens(rewardTokenHalf, 0, rewardTokenToTokenBRoute, address(this), deadline);\r\n        }\r\n\r\n        uint256 tokenABalance = IERC20(tokenA).balanceOf(address(this));\r\n        uint256 tokenBBalance = IERC20(tokenB).balanceOf(address(this));\r\n\r\n        quickswapRouter.addLiquidity(tokenA, tokenB, tokenABalance, tokenBBalance, 1, 1, address(this), deadline);\r\n\r\n        uint256 reward = IERC20(lpPair).balanceOf(address(this));\r\n        if (reward > 0) {\r\n            totalDeposits += reward;\r\n            lpStakingPool.stake(reward);\r\n        }\r\n\r\n        lastRewardPeriod = block.number - lastRewardBlock;\r\n        _setExpectedReward(reward, block.number + lastRewardPeriod);\r\n        lastRewardBlock = block.number;\r\n    }\r\n\r\n    function setExpectedReward(uint256 _amount, uint256 _block) external onlyOwner{\r\n       _setExpectedReward(_amount, _block);\r\n    }\r\n\r\n    function _setExpectedReward(uint256 _amount, uint256 _block) internal {\r\n        expectedReward = _amount;\r\n        expectedRewardBlock = _block;\r\n    }\r\n\r\n    /**\r\n     * @dev Returns total funds staked by the {_address}.\r\n     */\r\n    function userBalance(address _address) public view returns (uint256) {\r\n         if (userDALastUpdated[_address] > lastRewardBlock || userDepositChanged[_address][lastRewardBlock]) {\r\n            return userDeposit[_address];\r\n        } else {\r\n            if (totalSupply == 0) {\r\n                return 0;\r\n            }\r\n            return totalDeposits * balanceOf[_address] / totalSupply;\r\n        }\r\n    }\r\n\r\n    function _authorizeUpgrade(address newImplementation) internal override onlyOwner {\r\n\r\n    }\r\n}\r\n",
  "sourcePath": "C:\\Users\\jugli\\Desktop\\uno\\uno-contracts-branch\\contracts\\farms\\QuickswapFarmUpgradeable.sol",
  "compiler": {
    "name": "solc",
    "version": "0.8.10+commit.fc410830.Emscripten.clang"
  },
  "schemaVersion": "3.4.7",
  "updatedAt": "2022-05-04T15:19:15.756Z",
  "networkType": "ethereum",
  "devdoc": {
    "kind": "dev",
    "methods": {
      "deposit(uint256,uint256,uint256,address)": {
        "details": "Function that makes the deposits. If it's not the first deposit, withdraws {lpStakingPool} and deposits new tokens with the old ones."
      },
      "distribute(address[],address[])": {
        "details": "Core function of the strat, in charge of updating, collecting and re-investing rewards. 1. It claims rewards from the {lpStakingPool}. 2. It swaps the {rewardToken} token for {tokenA} & {tokenB}. 3. It deposits the new LP tokens back to the {lpStakingPool}."
      },
      "owner()": {
        "details": "Returns the address of the current owner."
      },
      "upgradeTo(address)": {
        "details": "Upgrade the implementation of the proxy to `newImplementation`. Calls {_authorizeUpgrade}. Emits an {Upgraded} event."
      },
      "upgradeToAndCall(address,bytes)": {
        "details": "Upgrade the implementation of the proxy to `newImplementation`, and subsequently execute the function call encoded in `data`. Calls {_authorizeUpgrade}. Emits an {Upgraded} event."
      },
      "userBalance(address)": {
        "details": "Returns total funds staked by the {_address}."
      },
      "withdraw(address,uint256,bool,address)": {
        "details": "Withdraws funds and sends them to the {recipient}."
      }
    },
    "stateVariables": {
      "expectedRewardBlock": {
        "details": "Contract Variables:"
      },
      "quickswapRouter": {
        "details": "Third Party Contracts: {quickswapRouter} - The contract that executes swaps. {lpStakingPool} - The contract that distibutes {rewardToken}."
      },
      "rewardToken": {
        "details": "Tokens Used: {rewardToken} - Token generated by staking. {lpPair} - Token that the strategy maximizes. The same token that users deposit in the {lpStakingPool}. {tokenA, tokenB} - Tokens that the strategy maximizes."
      }
    },
    "version": 1
  },
  "userdoc": {
    "kind": "user",
    "methods": {},
    "version": 1
  }
}