{
  "contractName": "QuickswapDualFarmUpgradeable",
  "abi": [
    {
      "anonymous": false,
      "inputs": [
        {
          "indexed": false,
          "internalType": "address",
          "name": "previousAdmin",
          "type": "address"
        },
        {
          "indexed": false,
          "internalType": "address",
          "name": "newAdmin",
          "type": "address"
        }
      ],
      "name": "AdminChanged",
      "type": "event"
    },
    {
      "anonymous": false,
      "inputs": [
        {
          "indexed": true,
          "internalType": "address",
          "name": "owner",
          "type": "address"
        },
        {
          "indexed": true,
          "internalType": "address",
          "name": "spender",
          "type": "address"
        },
        {
          "indexed": false,
          "internalType": "uint256",
          "name": "value",
          "type": "uint256"
        }
      ],
      "name": "Approval",
      "type": "event"
    },
    {
      "anonymous": false,
      "inputs": [
        {
          "indexed": true,
          "internalType": "address",
          "name": "beacon",
          "type": "address"
        }
      ],
      "name": "BeaconUpgraded",
      "type": "event"
    },
    {
      "anonymous": false,
      "inputs": [
        {
          "indexed": true,
          "internalType": "address",
          "name": "from",
          "type": "address"
        },
        {
          "indexed": true,
          "internalType": "address",
          "name": "to",
          "type": "address"
        },
        {
          "indexed": false,
          "internalType": "uint256",
          "name": "value",
          "type": "uint256"
        }
      ],
      "name": "Transfer",
      "type": "event"
    },
    {
      "anonymous": false,
      "inputs": [
        {
          "indexed": true,
          "internalType": "address",
          "name": "implementation",
          "type": "address"
        }
      ],
      "name": "Upgraded",
      "type": "event"
    },
    {
      "inputs": [
        {
          "internalType": "address",
          "name": "",
          "type": "address"
        },
        {
          "internalType": "address",
          "name": "",
          "type": "address"
        }
      ],
      "name": "allowance",
      "outputs": [
        {
          "internalType": "uint256",
          "name": "",
          "type": "uint256"
        }
      ],
      "stateMutability": "view",
      "type": "function"
    },
    {
      "inputs": [
        {
          "internalType": "address",
          "name": "spender",
          "type": "address"
        },
        {
          "internalType": "uint256",
          "name": "value",
          "type": "uint256"
        }
      ],
      "name": "approve",
      "outputs": [
        {
          "internalType": "bool",
          "name": "",
          "type": "bool"
        }
      ],
      "stateMutability": "nonpayable",
      "type": "function"
    },
    {
      "inputs": [
        {
          "internalType": "address",
          "name": "",
          "type": "address"
        }
      ],
      "name": "balanceOf",
      "outputs": [
        {
          "internalType": "uint256",
          "name": "",
          "type": "uint256"
        }
      ],
      "stateMutability": "view",
      "type": "function"
    },
    {
      "inputs": [],
      "name": "decimals",
      "outputs": [
        {
          "internalType": "uint8",
          "name": "",
          "type": "uint8"
        }
      ],
      "stateMutability": "view",
      "type": "function"
    },
    {
      "inputs": [],
      "name": "lpPair",
      "outputs": [
        {
          "internalType": "address",
          "name": "",
          "type": "address"
        }
      ],
      "stateMutability": "view",
      "type": "function"
    },
    {
      "inputs": [],
      "name": "name",
      "outputs": [
        {
          "internalType": "string",
          "name": "",
          "type": "string"
        }
      ],
      "stateMutability": "view",
      "type": "function"
    },
    {
      "inputs": [],
      "name": "owner",
      "outputs": [
        {
          "internalType": "address",
          "name": "",
          "type": "address"
        }
      ],
      "stateMutability": "view",
      "type": "function"
    },
    {
      "inputs": [],
      "name": "rewardTokenA",
      "outputs": [
        {
          "internalType": "address",
          "name": "",
          "type": "address"
        }
      ],
      "stateMutability": "view",
      "type": "function"
    },
    {
      "inputs": [],
      "name": "rewardTokenB",
      "outputs": [
        {
          "internalType": "address",
          "name": "",
          "type": "address"
        }
      ],
      "stateMutability": "view",
      "type": "function"
    },
    {
      "inputs": [],
      "name": "symbol",
      "outputs": [
        {
          "internalType": "string",
          "name": "",
          "type": "string"
        }
      ],
      "stateMutability": "view",
      "type": "function"
    },
    {
      "inputs": [],
      "name": "tokenA",
      "outputs": [
        {
          "internalType": "address",
          "name": "",
          "type": "address"
        }
      ],
      "stateMutability": "view",
      "type": "function"
    },
    {
      "inputs": [],
      "name": "tokenB",
      "outputs": [
        {
          "internalType": "address",
          "name": "",
          "type": "address"
        }
      ],
      "stateMutability": "view",
      "type": "function"
    },
    {
      "inputs": [],
      "name": "totalDeposits",
      "outputs": [
        {
          "internalType": "uint256",
          "name": "",
          "type": "uint256"
        }
      ],
      "stateMutability": "view",
      "type": "function"
    },
    {
      "inputs": [],
      "name": "totalSupply",
      "outputs": [
        {
          "internalType": "uint256",
          "name": "",
          "type": "uint256"
        }
      ],
      "stateMutability": "view",
      "type": "function"
    },
    {
      "inputs": [
        {
          "internalType": "address",
          "name": "to",
          "type": "address"
        },
        {
          "internalType": "uint256",
          "name": "value",
          "type": "uint256"
        }
      ],
      "name": "transfer",
      "outputs": [
        {
          "internalType": "bool",
          "name": "",
          "type": "bool"
        }
      ],
      "stateMutability": "nonpayable",
      "type": "function"
    },
    {
      "inputs": [
        {
          "internalType": "address",
          "name": "from",
          "type": "address"
        },
        {
          "internalType": "address",
          "name": "to",
          "type": "address"
        },
        {
          "internalType": "uint256",
          "name": "value",
          "type": "uint256"
        }
      ],
      "name": "transferFrom",
      "outputs": [
        {
          "internalType": "bool",
          "name": "",
          "type": "bool"
        }
      ],
      "stateMutability": "nonpayable",
      "type": "function"
    },
    {
      "inputs": [
        {
          "internalType": "address",
          "name": "newImplementation",
          "type": "address"
        }
      ],
      "name": "upgradeTo",
      "outputs": [],
      "stateMutability": "nonpayable",
      "type": "function"
    },
    {
      "inputs": [
        {
          "internalType": "address",
          "name": "newImplementation",
          "type": "address"
        },
        {
          "internalType": "bytes",
          "name": "data",
          "type": "bytes"
        }
      ],
      "name": "upgradeToAndCall",
      "outputs": [],
      "stateMutability": "payable",
      "type": "function"
    },
    {
      "inputs": [
        {
          "internalType": "address",
          "name": "_lpStakingPool",
          "type": "address"
        }
      ],
      "name": "initialize",
      "outputs": [],
      "stateMutability": "nonpayable",
      "type": "function"
    },
    {
      "inputs": [
        {
          "internalType": "uint256",
          "name": "amountA",
          "type": "uint256"
        },
        {
          "internalType": "uint256",
          "name": "amountB",
          "type": "uint256"
        },
        {
          "internalType": "uint256",
          "name": "amountLP",
          "type": "uint256"
        },
        {
          "internalType": "address",
          "name": "recipient",
          "type": "address"
        }
      ],
      "name": "deposit",
      "outputs": [
        {
          "internalType": "uint256",
          "name": "sentA",
          "type": "uint256"
        },
        {
          "internalType": "uint256",
          "name": "sentB",
          "type": "uint256"
        },
        {
          "internalType": "uint256",
          "name": "liquidity",
          "type": "uint256"
        }
      ],
      "stateMutability": "nonpayable",
      "type": "function"
    },
    {
      "inputs": [
        {
          "internalType": "address",
          "name": "origin",
          "type": "address"
        },
        {
          "internalType": "uint256",
          "name": "amount",
          "type": "uint256"
        },
        {
          "internalType": "bool",
          "name": "withdrawLP",
          "type": "bool"
        },
        {
          "internalType": "address",
          "name": "recipient",
          "type": "address"
        }
      ],
      "name": "withdraw",
      "outputs": [
        {
          "internalType": "uint256",
          "name": "amountA",
          "type": "uint256"
        },
        {
          "internalType": "uint256",
          "name": "amountB",
          "type": "uint256"
        }
      ],
      "stateMutability": "nonpayable",
      "type": "function"
    },
    {
      "inputs": [
        {
          "internalType": "address[]",
          "name": "rewardTokenAToTokenARoute",
          "type": "address[]"
        },
        {
          "internalType": "address[]",
          "name": "rewardTokenAToTokenBRoute",
          "type": "address[]"
        },
        {
          "internalType": "address[]",
          "name": "rewardTokenBToTokenARoute",
          "type": "address[]"
        },
        {
          "internalType": "address[]",
          "name": "rewardTokenBToTokenBRoute",
          "type": "address[]"
        }
      ],
      "name": "distribute",
      "outputs": [],
      "stateMutability": "nonpayable",
      "type": "function"
    },
    {
      "inputs": [
        {
          "internalType": "uint256",
          "name": "_amount",
          "type": "uint256"
        },
        {
          "internalType": "uint256",
          "name": "_block",
          "type": "uint256"
        }
      ],
      "name": "setExpectedReward",
      "outputs": [],
      "stateMutability": "nonpayable",
      "type": "function"
    },
    {
      "inputs": [
        {
          "internalType": "address",
          "name": "_address",
          "type": "address"
        }
      ],
      "name": "userBalance",
      "outputs": [
        {
          "internalType": "uint256",
          "name": "",
          "type": "uint256"
        }
      ],
      "stateMutability": "view",
      "type": "function"
    }
  ],
  "bytecode": "0x60a06040523060805234801561001457600080fd5b5060016068556080516132b561004a6000396000818161061d01528181610666015281816109a201526109e201526132b56000f3fe60806040526004361061011b5760003560e01c80630103c92b1461012057806306fdde0314610153578063095ea7b3146101925780630fc63d10146101c257806318160ddd146101ef57806323b872dd14610205578063313ce567146102255780633659cfe61461024c578063430004c11461026e578063452ed4f1146102a35780634f1ef286146102c35780635f64b55b146102d65780636b8ba92c146102f657806370a082311461031657806373ad67d7146103435780637d882097146103635780638da5cb5b1461037957806395d89b411461038e578063a9059cbb146103bd578063aa7b83e3146103dd578063c4d66de8146103fd578063dd62ed3e1461041d578063e8da9d4814610455578063fad3cc4b14610475575b600080fd5b34801561012c57600080fd5b5061014061013b366004612941565b6104b0565b6040519081526020015b60405180910390f35b34801561015f57600080fd5b50610185604051806040016040528060068152602001650556e6f2d4c560d41b81525081565b60405161014a919061298a565b34801561019e57600080fd5b506101b26101ad3660046129bd565b610567565b604051901515815260200161014a565b3480156101ce57600080fd5b50606c546101e2906001600160a01b031681565b60405161014a91906129e9565b3480156101fb57600080fd5b5061014060005481565b34801561021157600080fd5b506101b26102203660046129fd565b61057d565b34801561023157600080fd5b5061023a601281565b60405160ff909116815260200161014a565b34801561025857600080fd5b5061026c610267366004612941565b610612565b005b34801561027a57600080fd5b5061028e610289366004612a4c565b6106e4565b6040805192835260208301919091520161014a565b3480156102af57600080fd5b50606b546101e2906001600160a01b031681565b61026c6102d1366004612ae5565b610997565b3480156102e257600080fd5b50606d546101e2906001600160a01b031681565b34801561030257600080fd5b506069546101e2906001600160a01b031681565b34801561032257600080fd5b50610140610331366004612941565b60016020526000908152604090205481565b34801561034f57600080fd5b5061026c61035e366004612bd7565b610a51565b34801561036f57600080fd5b5061014060765481565b34801561038557600080fd5b506101e2611155565b34801561039a57600080fd5b50610185604051806040016040528060038152602001620554c560ec1b81525081565b3480156103c957600080fd5b506101b26103d83660046129bd565b611164565b3480156103e957600080fd5b50606a546101e2906001600160a01b031681565b34801561040957600080fd5b5061026c610418366004612941565b611171565b34801561042957600080fd5b50610140610438366004612c9a565b600260209081526000928352604080842090915290825290205481565b34801561046157600080fd5b5061026c610470366004612cd3565b6117ac565b34801561048157600080fd5b50610495610490366004612cf5565b6117c8565b6040805193845260208401929092529082015260600161014a565b6071546001600160a01b038216600090815260746020526040812054909110806104ff57506001600160a01b0382166000908152607560209081526040808320607154845290915290205460ff165b1561052057506001600160a01b031660009081526072602052604090205490565b60005461052f57506000919050565b600080546001600160a01b038416825260016020526040909120546076546105579190612d41565b6105619190612d60565b92915050565b6000610574338484611a7d565b50600192915050565b6001600160a01b0383166000908152600260209081526040808320338452909152812054600019146105fc576001600160a01b03841660009081526002602090815260408083203384529091529020546105d79083611adf565b6001600160a01b03851660009081526002602090815260408083203384529091529020555b610607848484611aeb565b5060015b9392505050565b306001600160a01b037f00000000000000000000000000000000000000000000000000000000000000001614156106645760405162461bcd60e51b815260040161065b90612d82565b60405180910390fd5b7f00000000000000000000000000000000000000000000000000000000000000006001600160a01b0316610696611b7f565b6001600160a01b0316146106bc5760405162461bcd60e51b815260040161065b90612dbc565b6106c581611b9b565b604080516000808252602082019092526106e191839190611bb7565b50565b600080336106f0611155565b6001600160a01b03161461070357600080fd5b600260685414156107265760405162461bcd60e51b815260040161065b90612df6565b60026068556001600160a01b03861660009081526072602052604090205461074d57600080fd5b61075686611cfe565b600043606f5411156107775743606f546107709190612e2d565b905061077b565b5060015b60006077548260765461078e9190612d41565b6107989190612e44565b905060006107a68389612d41565b6107b09083612e2d565b6001600160a01b038a16600090815260726020526040812080549293508a929091906107dd908490612e2d565b9250508190555087607660008282546107f69190612e2d565b9091555050607054829061080b908390612d41565b6108159190612d60565b60705561082483828a8c611eb1565b606e54604051632e1a7d4d60e01b8152600481018a90526001600160a01b0390911690632e1a7d4d90602401600060405180830381600087803b15801561086a57600080fd5b505af115801561087e573d6000803e3d6000fd5b5050505086156108ae57606b5461089f906001600160a01b0316878a61204b565b60008094509450505050610987565b606c54606d546000805160206132608339815191529163baa2abde916001600160a01b0391821691168b6000808c6108e842610258612e44565b60405160e089901b6001600160e01b03191681526001600160a01b039788166004820152958716602487015260448601949094526064850192909252608484015290921660a482015260c481019190915260e40160408051808303816000875af115801561095a573d6000803e3d6000fd5b505050506040513d601f19601f8201168201806040525081019061097e9190612e5c565b90955093505050505b6001606855909590945092505050565b306001600160a01b037f00000000000000000000000000000000000000000000000000000000000000001614156109e05760405162461bcd60e51b815260040161065b90612d82565b7f00000000000000000000000000000000000000000000000000000000000000006001600160a01b0316610a12611b7f565b6001600160a01b031614610a385760405162461bcd60e51b815260040161065b90612dbc565b610a4182611b9b565b610a4d82826001611bb7565b5050565b33610a5a611155565b6001600160a01b031614610a6d57600080fd5b60026068541415610a905760405162461bcd60e51b815260040161065b90612df6565b6002606855607654610aa157600080fd5b606e60009054906101000a90046001600160a01b03166001600160a01b0316633d18b9126040518163ffffffff1660e01b8152600401600060405180830381600087803b158015610af157600080fd5b505af1158015610b05573d6000803e3d6000fd5b50506069546040516370a0823160e01b815260009350600292506001600160a01b03909116906370a0823190610b3f9030906004016129e9565b602060405180830381865afa158015610b5c573d6000803e3d6000fd5b505050506040513d601f19601f82011682018060405250810190610b809190612e80565b610b8a9190612d60565b606a546040516370a0823160e01b81529192506000916002916001600160a01b0316906370a0823190610bc19030906004016129e9565b602060405180830381865afa158015610bde573d6000803e3d6000fd5b505050506040513d601f19601f82011682018060405250810190610c029190612e80565b610c0c9190612d60565b90506000610c1c42610258612e44565b606954606c549192506001600160a01b03918216911614610cc5576000805160206132608339815191526001600160a01b03166338ed17398460008e8e30876040518763ffffffff1660e01b8152600401610c7c96959493929190612e99565b6000604051808303816000875af1158015610c9b573d6000803e3d6000fd5b505050506040513d6000823e601f3d908101601f19168201604052610cc39190810190612f0c565b505b606954606d546001600160a01b03908116911614610d62576040516338ed173960e01b8152600080516020613260833981519152906338ed173990610d199086906000908e908e9030908990600401612e99565b6000604051808303816000875af1158015610d38573d6000803e3d6000fd5b505050506040513d6000823e601f3d908101601f19168201604052610d609190810190612f0c565b505b606a54606c546001600160a01b03908116911614610dff576040516338ed173960e01b8152600080516020613260833981519152906338ed173990610db69085906000908c908c9030908990600401612e99565b6000604051808303816000875af1158015610dd5573d6000803e3d6000fd5b505050506040513d6000823e601f3d908101601f19168201604052610dfd9190810190612f0c565b505b606a54606d546001600160a01b03908116911614610e9c576040516338ed173960e01b8152600080516020613260833981519152906338ed173990610e539085906000908a908a9030908990600401612e99565b6000604051808303816000875af1158015610e72573d6000803e3d6000fd5b505050506040513d6000823e601f3d908101601f19168201604052610e9a9190810190612f0c565b505b606c546040516370a0823160e01b81526000916001600160a01b0316906370a0823190610ecd9030906004016129e9565b602060405180830381865afa158015610eea573d6000803e3d6000fd5b505050506040513d601f19601f82011682018060405250810190610f0e9190612e80565b606d546040516370a0823160e01b81529192506000916001600160a01b03909116906370a0823190610f449030906004016129e9565b602060405180830381865afa158015610f61573d6000803e3d6000fd5b505050506040513d601f19601f82011682018060405250810190610f859190612e80565b606c54606d5460405162e8e33760e81b81529293506000805160206132608339815191529263e8e3370092610fd8926001600160a01b039182169291169087908790600190819030908d90600401612fb1565b6060604051808303816000875af1158015610ff7573d6000803e3d6000fd5b505050506040513d601f19601f8201168201806040525081019061101b9190612ffa565b5050606b546040516370a0823160e01b8152600092506001600160a01b03909116906370a08231906110519030906004016129e9565b602060405180830381865afa15801561106e573d6000803e3d6000fd5b505050506040513d601f19601f820116820180604052508101906110929190612e80565b905080156111105780607660008282546110ac9190612e44565b9091555050606e5460405163534a7e1d60e11b8152600481018390526001600160a01b039091169063a694fc3a90602401600060405180830381600087803b1580156110f757600080fd5b505af115801561110b573d6000803e3d6000fd5b505050505b6000607154436111209190612e2d565b905061113b826111308343612e44565b607091909155606f55565b505043607155505060016068555050505050505050505050565b6036546001600160a01b031690565b6000610574338484611aeb565b600354610100900460ff1661118c5760035460ff1615611194565b6111946120a6565b6111b05760405162461bcd60e51b815260040161065b90613028565b600354610100900460ff161580156111d2576003805461ffff19166101011790555b6111da6120b7565b606e80546001600160a01b0319166001600160a01b038416908117909155604080516372f702f360e01b815290516372f702f3916004808201926020929091908290030181865afa158015611233573d6000803e3d6000fd5b505050506040513d601f19601f820116820180604052508101906112579190613076565b606b80546001600160a01b0319166001600160a01b03928316179055606e54604080516317f4408360e21b815290519190921691635fd1020c9160048083019260209291908290030181865afa1580156112b5573d6000803e3d6000fd5b505050506040513d601f19601f820116820180604052508101906112d99190613076565b606980546001600160a01b0319166001600160a01b03928316179055606e5460408051634462633360e11b8152905191909216916388c4c6669160048083019260209291908290030181865afa158015611337573d6000803e3d6000fd5b505050506040513d601f19601f8201168201806040525081019061135b9190613076565b606a80546001600160a01b0319166001600160a01b03928316179055606b5460408051630dfe168160e01b815290519190921691630dfe16819160048083019260209291908290030181865afa1580156113b9573d6000803e3d6000fd5b505050506040513d601f19601f820116820180604052508101906113dd9190613076565b606c80546001600160a01b0319166001600160a01b03928316179055606b546040805163d21220a760e01b81529051919092169163d21220a79160048083019260209291908290030181865afa15801561143b573d6000803e3d6000fd5b505050506040513d601f19601f8201168201806040525081019061145f9190613076565b606d80546001600160a01b0319166001600160a01b03928316179055606b5460405163095ea7b360e01b815260001992919091169063095ea7b3906114aa9086908590600401613093565b6020604051808303816000875af11580156114c9573d6000803e3d6000fd5b505050506040513d601f19601f820116820180604052508101906114ed91906130ac565b50606b5460405163095ea7b360e01b81526001600160a01b039091169063095ea7b39061152e90600080516020613260833981519152908590600401613093565b6020604051808303816000875af115801561154d573d6000803e3d6000fd5b505050506040513d601f19601f8201168201806040525081019061157191906130ac565b5060695460405163095ea7b360e01b81526001600160a01b039091169063095ea7b3906115b290600080516020613260833981519152908590600401613093565b6020604051808303816000875af11580156115d1573d6000803e3d6000fd5b505050506040513d601f19601f820116820180604052508101906115f591906130ac565b50606a5460405163095ea7b360e01b81526001600160a01b039091169063095ea7b39061163690600080516020613260833981519152908590600401613093565b6020604051808303816000875af1158015611655573d6000803e3d6000fd5b505050506040513d601f19601f8201168201806040525081019061167991906130ac565b50606c5460405163095ea7b360e01b81526001600160a01b039091169063095ea7b3906116ba90600080516020613260833981519152908590600401613093565b6020604051808303816000875af11580156116d9573d6000803e3d6000fd5b505050506040513d601f19601f820116820180604052508101906116fd91906130ac565b50606d5460405163095ea7b360e01b81526001600160a01b039091169063095ea7b39061173e90600080516020613260833981519152908590600401613093565b6020604051808303816000875af115801561175d573d6000803e3d6000fd5b505050506040513d601f19601f8201168201806040525081019061178191906130ac565b50436071819055611793906002612d41565b606f55508015610a4d576003805461ff00191690555050565b336117b5611155565b6001600160a01b03161461113057600080fd5b60008080336117d5611155565b6001600160a01b0316146117e857600080fd5b6002606854141561180b5760405162461bcd60e51b815260040161065b90612df6565b6002606855600087158015906118215750600087115b156118cf57606c54606d546000805160206132608339815191529163e8e33700916001600160a01b0391821691168b8b6000803061186142610258612e44565b6040518963ffffffff1660e01b8152600401611884989796959493929190612fb1565b6060604051808303816000875af11580156118a3573d6000803e3d6000fd5b505050506040513d601f19601f820116820180604052508101906118c79190612ffa565b919550935090505b6118d98682612e44565b9150600082116118e857600080fd5b6118f185611cfe565b600043606f5411156119125743606f5461190b9190612e2d565b9050611916565b5060015b6000607754826076546119299190612d41565b6119339190612e44565b90506000816119428487612d41565b61194c9190612e44565b6001600160a01b038916600090815260726020526040812080549293508792909190611979908490612e44565b9250508190555084607660008282546119929190612e44565b909155505081156119ba5781816070546119ac9190612d41565b6119b69190612d60565b6070555b6119c68382878b61213c565b606e5460405163534a7e1d60e11b8152600481018790526001600160a01b039091169063a694fc3a90602401600060405180830381600087803b158015611a0c57600080fd5b505af1158015611a20573d6000803e3d6000fd5b50505050611a4788888d611a349190612e2d565b606c546001600160a01b0316919061204b565b611a6888611a55888d612e2d565b606d546001600160a01b0316919061204b565b50506001606855509297919650945092505050565b6001600160a01b0383811660008181526002602090815260408083209487168084529482529182902085905590518481527f8c5be1e5ebec7d5bd14f71427d1e84f3dd0314c0f7b2291e5b200ac8c7c3b92591015b60405180910390a3505050565b600061060b8284612e2d565b6001600160a01b038316600090815260016020526040902054611b0e9082611adf565b6001600160a01b038085166000908152600160205260408082209390935590841681522054611b3d908261230f565b6001600160a01b03808416600081815260016020526040908190209390935591519085169060008051602061324083398151915290611ad29085815260200190565b6000805160206131f9833981519152546001600160a01b031690565b33611ba4611155565b6001600160a01b0316146106e157600080fd5b6000611bc1611b7f565b9050611bcc8461231b565b600083511180611bd95750815b15611bea57611be884846123ae565b505b7f4910fdfa16fed3260ed0e7147f7cc6da11a60208b5b9406d12a635614ffd9143805460ff16611cf757805460ff19166001178155604051611c65908690611c369085906024016129e9565b60408051601f198184030181529190526020810180516001600160e01b0316631b2ce7f360e11b1790526123ae565b50805460ff19168155611c76611b7f565b6001600160a01b0316826001600160a01b031614611cee5760405162461bcd60e51b815260206004820152602f60248201527f45524331393637557067726164653a207570677261646520627265616b73206660448201526e75727468657220757067726164657360881b606482015260840161065b565b611cf7856123d3565b5050505050565b6071546001600160a01b0382166000908152607460205260409020541180611d4b57506001600160a01b0381166000908152607560209081526040808320607154845290915290205460ff165b15611dbc576001600160a01b038116600090815260726020908152604080832054607490925290912054611d7f9043612e2d565b611d899190612d41565b6001600160a01b03821660009081526073602052604081208054909190611db1908490612e44565b90915550611e119050565b611dc5816104b0565b6001600160a01b0382166000908152607260205260409020819055607154611ded9043612e2d565b611df79190612d41565b6001600160a01b0382166000908152607360205260409020555b6071546078541115611e5357607654607854611e2d9043612e2d565b611e379190612d41565b60776000828254611e489190612e44565b90915550611e719050565b607654607154611e639043612e2d565b611e6d9190612d41565b6077555b6001600160a01b0316600090815260746020908152604080832043908190556078556075825280832060715484529091529020805460ff19166001179055565b600080546001600160a01b038316825260016020526040909120541415611f1e576001600160a01b038116600090815260726020526040902054611f19908290611efc908590612e44565b84600054611f0a9190612d41565b611f149190612d60565b612413565b612045565b6001600160a01b0381166000908152607360209081526040808320546072909252822054859190611f50908890612d41565b611f5a9190612e44565b607054611f679190612d41565b611f719190612d60565b90506000607054607654611f859190612e44565b6001600160a01b038416600090815260726020526040902054611fa9908490612e44565b611fb56012600a6131ad565b611fbf9190612d41565b611fc99190612d60565b90506120428382611fdc6012600a6131ad565b611fe69190612e2d565b611ff26012600a6131ad565b607654611fff9086612d41565b6120099190612d60565b6001600160a01b03871660009081526001602052604090205461202c9190612e2d565b6120386012600a6131ad565b611f0a9190612d41565b50505b50505050565b6120a18363a9059cbb60e01b848460405160240161206a929190613093565b60408051601f198184030181529190526020810180516001600160e01b03166001600160e01b031990931692909217909152612493565b505050565b60006120b130612565565b15905090565b600354610100900460ff166120d25760035460ff16156120da565b6120da6120a6565b6120f65760405162461bcd60e51b815260040161065b90613028565b600354610100900460ff16158015612118576003805461ffff19166101011790555b612120612574565b6121286125e1565b80156106e1576003805461ff001916905550565b60005461215857611f19816121536012600a6131ad565b612668565b6001600160a01b038116600090815260736020908152604080832054607290925282205485919061218a908890612d41565b6121949190612e44565b6070546121a19190612d41565b6121ab9190612d60565b6001600160a01b038316600090815260726020526040812054919250906121d3908390612e44565b905060006070546076546121e79190612e44565b90508082141561225e57600080546001600160a01b0386168252607260205260409091205461225691869161221d908990612e2d565b6001600160a01b03881660009081526072602052604081205490546122429190612d41565b61224c9190612d60565b6121539190612e2d565b505050612045565b6000818361226e6012600a6131ad565b6122789190612d41565b6122829190612d60565b905061230585826122956012600a6131ad565b61229f9190612e2d565b6001600160a01b0388166000908152600160205260409020546122c46012600a6131ad565b6000546122d19087612d41565b6122db9190612d60565b6122e59190612e2d565b6122f16012600a6131ad565b6122fb9190612d41565b6121539190612d60565b5050505050505050565b600061060b8284612e44565b803b61237f5760405162461bcd60e51b815260206004820152602d60248201527f455243313936373a206e657720696d706c656d656e746174696f6e206973206e60448201526c1bdd08184818dbdb9d1c9858dd609a1b606482015260840161065b565b6000805160206131f983398151915280546001600160a01b0319166001600160a01b0392909216919091179055565b606061060b8383604051806060016040528060278152602001613219602791396126d9565b6123dc8161231b565b6040516001600160a01b038216907fbc7cd75a20ee27fd9adebab32041f755214dbc6bffa90cc0225b39da2e5c2d3b90600090a250565b6001600160a01b0382166000908152600160205260409020546124369082611adf565b6001600160a01b0383166000908152600160205260408120919091555461245d9082611adf565b60009081556040518281526001600160a01b03841690600080516020613240833981519152906020015b60405180910390a35050565b60006124e8826040518060400160405280602081526020017f5361666545524332303a206c6f772d6c6576656c2063616c6c206661696c6564815250856001600160a01b03166127ad9092919063ffffffff16565b8051909150156120a1578080602001905181019061250691906130ac565b6120a15760405162461bcd60e51b815260206004820152602a60248201527f5361666545524332303a204552433230206f7065726174696f6e20646964206e6044820152691bdd081cdd58d8d9595960b21b606482015260840161065b565b6001600160a01b03163b151590565b600354610100900460ff166125df5760405162461bcd60e51b815260206004820152602b60248201527f496e697469616c697a61626c653a20636f6e7472616374206973206e6f74206960448201526a6e697469616c697a696e6760a81b606482015260840161065b565b565b600354610100900460ff166125fc5760035460ff1615612604565b6126046120a6565b6126205760405162461bcd60e51b815260040161065b90613028565b600354610100900460ff16158015612642576003805461ffff19166101011790555b603680546001600160a01b0319163317905580156106e1576003805461ff001916905550565b600054612675908261230f565b60009081556001600160a01b03831681526001602052604090205461269a908261230f565b6001600160a01b038316600081815260016020526040808220939093559151909190600080516020613240833981519152906124879085815260200190565b6060833b6127385760405162461bcd60e51b815260206004820152602660248201527f416464726573733a2064656c65676174652063616c6c20746f206e6f6e2d636f6044820152651b9d1c9858dd60d21b606482015260840161065b565b600080856001600160a01b03168560405161275391906131bc565b600060405180830381855af49150503d806000811461278e576040519150601f19603f3d011682016040523d82523d6000602084013e612793565b606091505b50915091506127a38282866127c4565b9695505050505050565b60606127bc84846000856127fd565b949350505050565b606083156127d357508161060b565b8251156127e35782518084602001fd5b8160405162461bcd60e51b815260040161065b919061298a565b60608247101561285e5760405162461bcd60e51b815260206004820152602660248201527f416464726573733a20696e73756666696369656e742062616c616e636520666f6044820152651c8818d85b1b60d21b606482015260840161065b565b61286785612565565b6128b35760405162461bcd60e51b815260206004820152601d60248201527f416464726573733a2063616c6c20746f206e6f6e2d636f6e7472616374000000604482015260640161065b565b600080866001600160a01b031685876040516128cf91906131bc565b60006040518083038185875af1925050503d806000811461290c576040519150601f19603f3d011682016040523d82523d6000602084013e612911565b606091505b50915091506129218282866127c4565b979650505050505050565b6001600160a01b03811681146106e157600080fd5b60006020828403121561295357600080fd5b813561060b8161292c565b60005b83811015612979578181015183820152602001612961565b838111156120455750506000910152565b60208152600082518060208401526129a981604085016020870161295e565b601f01601f19169190910160400192915050565b600080604083850312156129d057600080fd5b82356129db8161292c565b946020939093013593505050565b6001600160a01b0391909116815260200190565b600080600060608486031215612a1257600080fd5b8335612a1d8161292c565b92506020840135612a2d8161292c565b929592945050506040919091013590565b80151581146106e157600080fd5b60008060008060808587031215612a6257600080fd5b8435612a6d8161292c565b9350602085013592506040850135612a8481612a3e565b91506060850135612a948161292c565b939692955090935050565b634e487b7160e01b600052604160045260246000fd5b604051601f8201601f191681016001600160401b0381118282101715612add57612add612a9f565b604052919050565b60008060408385031215612af857600080fd5b8235612b038161292c565b91506020838101356001600160401b0380821115612b2057600080fd5b818601915086601f830112612b3457600080fd5b813581811115612b4657612b46612a9f565b612b58601f8201601f19168501612ab5565b91508082528784828501011115612b6e57600080fd5b80848401858401376000848284010152508093505050509250929050565b60008083601f840112612b9e57600080fd5b5081356001600160401b03811115612bb557600080fd5b6020830191508360208260051b8501011115612bd057600080fd5b9250929050565b6000806000806000806000806080898b031215612bf357600080fd5b88356001600160401b0380821115612c0a57600080fd5b612c168c838d01612b8c565b909a50985060208b0135915080821115612c2f57600080fd5b612c3b8c838d01612b8c565b909850965060408b0135915080821115612c5457600080fd5b612c608c838d01612b8c565b909650945060608b0135915080821115612c7957600080fd5b50612c868b828c01612b8c565b999c989b5096995094979396929594505050565b60008060408385031215612cad57600080fd5b8235612cb88161292c565b91506020830135612cc88161292c565b809150509250929050565b60008060408385031215612ce657600080fd5b50508035926020909101359150565b60008060008060808587031215612d0b57600080fd5b8435935060208501359250604085013591506060850135612a948161292c565b634e487b7160e01b600052601160045260246000fd5b6000816000190483118215151615612d5b57612d5b612d2b565b500290565b600082612d7d57634e487b7160e01b600052601260045260246000fd5b500490565b6020808252602c908201526000805160206131d983398151915260408201526b19195b1959d85d1958d85b1b60a21b606082015260800190565b6020808252602c908201526000805160206131d983398151915260408201526b6163746976652070726f787960a01b606082015260800190565b6020808252601f908201527f5265656e7472616e637947756172643a207265656e7472616e742063616c6c00604082015260600190565b600082821015612e3f57612e3f612d2b565b500390565b60008219821115612e5757612e57612d2b565b500190565b60008060408385031215612e6f57600080fd5b505080516020909101519092909150565b600060208284031215612e9257600080fd5b5051919050565b868152602080820187905260a0604083018190528201859052600090869060c08401835b88811015612eeb578335612ed08161292c565b6001600160a01b031682529282019290820190600101612ebd565b506001600160a01b0396909616606085015250505060800152949350505050565b60006020808385031215612f1f57600080fd5b82516001600160401b0380821115612f3657600080fd5b818501915085601f830112612f4a57600080fd5b815181811115612f5c57612f5c612a9f565b8060051b9150612f6d848301612ab5565b8181529183018401918481019088841115612f8757600080fd5b938501935b83851015612fa557845182529385019390850190612f8c565b98975050505050505050565b6001600160a01b039889168152968816602088015260408701959095526060860193909352608085019190915260a084015290921660c082015260e08101919091526101000190565b60008060006060848603121561300f57600080fd5b8351925060208401519150604084015190509250925092565b6020808252602e908201527f496e697469616c697a61626c653a20636f6e747261637420697320616c72656160408201526d191e481a5b9a5d1a585b1a5e995960921b606082015260800190565b60006020828403121561308857600080fd5b815161060b8161292c565b6001600160a01b03929092168252602082015260400190565b6000602082840312156130be57600080fd5b815161060b81612a3e565b600181815b808511156131045781600019048211156130ea576130ea612d2b565b808516156130f757918102915b93841c93908002906130ce565b509250929050565b60008261311b57506001610561565b8161312857506000610561565b816001811461313e576002811461314857613164565b6001915050610561565b60ff84111561315957613159612d2b565b50506001821b610561565b5060208310610133831016604e8410600b8410161715613187575081810a610561565b61319183836130c9565b80600019048211156131a5576131a5612d2b565b029392505050565b600061060b60ff84168361310c565b600082516131ce81846020870161295e565b919091019291505056fe46756e6374696f6e206d7573742062652063616c6c6564207468726f75676820360894a13ba1a3210667c828492db98dca3e2076cc3735a920a3ca505d382bbc416464726573733a206c6f772d6c6576656c2064656c65676174652063616c6c206661696c6564ddf252ad1be2c89b69c2b068fc378daa952ba7f163c4a11628f55a4df523b3ef000000000000000000000000a5e0829caced8ffdd4de3c43696c57f7d7a678ffa2646970667358221220376a41f678b843c4574f6201cc4dfe75d4eead611cf96966b872e01451d7556a64736f6c634300080a0033",
  "immutableReferences": {
    "1581": [
      {
        "length": 32,
        "start": 1565
      },
      {
        "length": 32,
        "start": 1638
      },
      {
        "length": 32,
        "start": 2466
      },
      {
        "length": 32,
        "start": 2530
      }
    ]
  },
  "source": "// SPDX-License-Identifier: MIT\r\npragma solidity 0.8.10;\r\n\r\nimport \"../interfaces/IUniswapV2Pair.sol\";\r\nimport \"../interfaces/IUniswapV2Router.sol\";\r\nimport \"../interfaces/IStakingDualRewards.sol\";\r\nimport \"../utils/UniswapV2ERC20.sol\"; \r\nimport \"../utils/OwnableUpgradeableNoTransfer.sol\";\r\nimport \"@openzeppelin/contracts/proxy/utils/UUPSUpgradeable.sol\";\r\nimport \"@openzeppelin/contracts/security/ReentrancyGuard.sol\";\r\nimport \"@openzeppelin/contracts-upgradeable/token/ERC20/utils/SafeERC20Upgradeable.sol\";\r\nimport \"@openzeppelin/contracts-upgradeable/token/ERC20/IERC20Upgradeable.sol\";\r\n\r\ncontract QuickswapDualFarmUpgradeable is UniswapV2ERC20, UUPSUpgradeable, Initializable, OwnableUpgradeableNoTransfer, ReentrancyGuard {\r\n    using SafeERC20Upgradeable for IERC20Upgradeable;\r\n\r\n      /**\r\n     * @dev Tokens Used:\r\n     * {rewardTokenA, rewardTokenB} - Tokens generated by staking.\r\n     * {lpPair} - Token that the strategy maximizes. The same token that users deposit in the {lpStakingPool}.\r\n     * {tokenA, tokenB} - Tokens that the strategy maximizes.\r\n     */\r\n    address public rewardTokenA;\r\n    address public rewardTokenB;\r\n    address public lpPair;\r\n    address public tokenA;\r\n    address public tokenB;\r\n    \r\n    /**\r\n     * @dev Third Party Contracts:\r\n     * {quickswapRouter} - The contract that executes swaps.\r\n     * {lpStakingPool} - The contract that distibutes {rewardTokenA, rewardTokenB}.\r\n     */\r\n    IUniswapV2Router01 private constant quickswapRouter = IUniswapV2Router01(0xa5E0829CaCEd8fFDD4De3c43696c57F7D7A678ff);\r\n    IStakingDualRewards private lpStakingPool;\r\n    \r\n    /**\r\n     * @dev Contract Variables:\r\n     * \r\n     * \r\n     * \r\n     * \r\n     * \r\n     */\r\n    uint256 private expectedRewardBlock;\r\n    uint256 private expectedReward;\r\n    uint256 private lastRewardBlock;\r\n\r\n    mapping(address => uint256) private userDeposit;\r\n    mapping(address => uint256) private userDepositAge;\r\n    mapping(address => uint256) private userDALastUpdated;\r\n    mapping(address => mapping(uint256 => bool)) private userDepositChanged;\r\n\r\n    uint256 public totalDeposits;\r\n    uint256 private totalDepositAge;\r\n    uint256 private totalDALastUpdated;\r\n\r\n    uint256 private constant fractionMultiplier = 10**decimals;\r\n\r\n    // ============ Methods ============\r\n    \r\n    function initialize(address _lpStakingPool) external initializer {\r\n        __Ownable_init();\r\n\r\n        lpStakingPool = IStakingDualRewards(_lpStakingPool);\r\n        lpPair = address(lpStakingPool.stakingToken());\r\n        \r\n        rewardTokenA = lpStakingPool.rewardsTokenA();\r\n        rewardTokenB = lpStakingPool.rewardsTokenB();\r\n        \r\n        tokenA = IUniswapV2Pair(lpPair).token0();\r\n        tokenB = IUniswapV2Pair(lpPair).token1();\r\n        \r\n        uint256 MAX_UINT = uint256(2**256 - 1);\r\n        IERC20(lpPair).approve(_lpStakingPool, MAX_UINT);\r\n        IERC20(lpPair).approve(address(quickswapRouter), MAX_UINT);\r\n        IERC20(rewardTokenA).approve(address(quickswapRouter), MAX_UINT);\r\n        IERC20(rewardTokenB).approve(address(quickswapRouter), MAX_UINT);\r\n        IERC20(tokenA).approve(address(quickswapRouter), MAX_UINT);\r\n        IERC20(tokenB).approve(address(quickswapRouter), MAX_UINT);\r\n\r\n        lastRewardBlock = block.number;\r\n        expectedRewardBlock = 2*block.number;\r\n    }\r\n\r\n    /**\r\n     * @dev Function that makes the deposits.\r\n     * If it's not the first deposit, withdraws {lpStakingPool} and deposits new tokens with the old ones.\r\n     *\r\n     * note: user's actual fair reward may differ from these calculations because new deposits\r\n     * in the same reward interval will change the total expected deposit age, so there's no way\r\n     * to reliably & precisely predict the correct reward distribution, but this approach still\r\n     * provides results good enough and remains practical\r\n     */\r\n    function deposit(uint256 amountA, uint256 amountB, uint256 amountLP, address recipient) external onlyOwner nonReentrant returns(uint256 sentA, uint256 sentB, uint256 liquidity){\r\n        uint256 addedLiquidity;\r\n        if(amountA > 0 && amountB > 0) {\r\n            (sentA, sentB, addedLiquidity) = quickswapRouter.addLiquidity(tokenA, tokenB, amountA, amountB, 0, 0, address(this), block.timestamp + 600);\r\n        }\r\n        liquidity = addedLiquidity + amountLP;\r\n        require(liquidity > 0);\r\n\r\n        _updateDeposit(recipient);\r\n        \r\n        uint256 blocksTillReward;\r\n        if(expectedRewardBlock > block.number){\r\n            blocksTillReward = expectedRewardBlock - block.number;\r\n        }else{\r\n            blocksTillReward = 1;\r\n        }\r\n\r\n        uint256 totalExpectedDepositAgePrev = totalDeposits * blocksTillReward + totalDepositAge;\r\n        uint256 totalExpectedDepositAge = liquidity * blocksTillReward + totalExpectedDepositAgePrev;\r\n        // update deposit amounts\r\n        userDeposit[recipient] += liquidity;\r\n        totalDeposits += liquidity;\r\n        // expected reward will increase proportionally to the increase of total expected deposit age\r\n        if (totalExpectedDepositAgePrev > 0) {\r\n            expectedReward = expectedReward * totalExpectedDepositAge / totalExpectedDepositAgePrev;\r\n        }\r\n\r\n        _mintLP(blocksTillReward, totalExpectedDepositAge, liquidity, recipient);\r\n            \r\n        lpStakingPool.stake(liquidity);\r\n        IERC20Upgradeable(tokenA).safeTransfer(recipient, amountA - sentA);\r\n        IERC20Upgradeable(tokenB).safeTransfer(recipient, amountB - sentB);\r\n    }\r\n\r\n\r\n    function _mintLP(uint256 blocksTillReward, uint256 totalExpectedDepositAge, uint256 liquidity, address recipient) internal {\r\n        if (totalSupply == 0) {\r\n            _mint(recipient, 10**decimals);\r\n            return;\r\n        }\r\n        uint256 userExpectedReward = expectedReward * (userDeposit[recipient] * blocksTillReward + userDepositAge[recipient]) / totalExpectedDepositAge;\r\n        uint256 userExpectedDeposit = userDeposit[recipient] + userExpectedReward;\r\n        uint256 expectedTotalDeposit = totalDeposits + expectedReward;\r\n        if (userExpectedDeposit == expectedTotalDeposit) {\r\n            _mint(recipient, totalSupply * userDeposit[recipient] / (userDeposit[recipient] - liquidity) - totalSupply);\r\n            return;\r\n        }\r\n        uint256 userNewShare = fractionMultiplier * userExpectedDeposit / expectedTotalDeposit;\r\n        _mint(recipient, fractionMultiplier * (userNewShare * totalSupply / fractionMultiplier - balanceOf[recipient]) / (fractionMultiplier - userNewShare));\r\n    }\r\n\r\n     /**\r\n     * @dev Withdraws funds and sends them to the {recipient}.\r\n     */\r\n    function withdraw(address origin, uint256 amount, bool withdrawLP, address recipient) external onlyOwner nonReentrant returns(uint256 amountA, uint256 amountB){\r\n        require(userDeposit[origin] > 0);\r\n        \r\n        _updateDeposit(origin);\r\n\r\n        uint256 blocksTillReward;\r\n        if(expectedRewardBlock > block.number){\r\n            blocksTillReward = expectedRewardBlock - block.number;\r\n        }else{\r\n            blocksTillReward = 1;\r\n        }\r\n\r\n        uint256 totalExpectedDepositAgePrev = totalDeposits * blocksTillReward + totalDepositAge;\r\n        uint256 totalExpectedDepositAge = totalExpectedDepositAgePrev - amount * blocksTillReward;\r\n        // update deposit amounts\r\n        userDeposit[origin] -= amount;\r\n        totalDeposits -= amount;\r\n        // expected reward will decrease proportionally to the decrease of total expected deposit age\r\n        expectedReward = expectedReward * totalExpectedDepositAge / totalExpectedDepositAgePrev;\r\n\r\n        _burnLP(blocksTillReward, totalExpectedDepositAge, amount, origin);\r\n\r\n        lpStakingPool.withdraw(amount);\r\n        if(withdrawLP){\r\n            IERC20Upgradeable(lpPair).safeTransfer(recipient, amount);\r\n            return (0, 0);\r\n        }\r\n        (amountA, amountB) = quickswapRouter.removeLiquidity(tokenA, tokenB, amount, 0, 0, recipient, block.timestamp + 600);\r\n    }\r\n\r\n    function _burnLP(uint256 blocksTillReward, uint256 totalExpectedDepositAge, uint256 amount, address origin) internal{\r\n        if (balanceOf[origin] == totalSupply) {\r\n            _burn(origin, totalSupply * amount / (userDeposit[origin] + amount));\r\n            return;\r\n        }\r\n        uint256 userExpectedReward = expectedReward * (userDeposit[origin] * blocksTillReward + userDepositAge[origin]) / totalExpectedDepositAge;\r\n        uint256 userNewShare = fractionMultiplier * (userDeposit[origin] + userExpectedReward) / (totalDeposits + expectedReward);\r\n        _burn(origin, fractionMultiplier * (balanceOf[origin] - userNewShare * totalDeposits / fractionMultiplier)/(fractionMultiplier - userNewShare));\r\n    }\r\n\r\n    function _updateDeposit(address _address) internal {\r\n        if (userDALastUpdated[_address] > lastRewardBlock || userDepositChanged[_address][lastRewardBlock]) {\r\n            // add deposit age from previous deposit age update till now\r\n            userDepositAge[_address] += (block.number - userDALastUpdated[_address]) * userDeposit[_address];\r\n        } else {\r\n            // a reward has been distributed, update user deposit\r\n            userDeposit[_address] = userBalance(_address);\r\n            // count fresh deposit age from that reward distribution till now\r\n            userDepositAge[_address] = (block.number - lastRewardBlock) * userDeposit[_address];\r\n        }\r\n\r\n        // same with total deposit age\r\n        if (totalDALastUpdated > lastRewardBlock) {\r\n            totalDepositAge += (block.number - totalDALastUpdated) * totalDeposits;\r\n        } else {\r\n            totalDepositAge = (block.number - lastRewardBlock) * totalDeposits;\r\n        }\r\n        userDALastUpdated[_address] = block.number;\r\n        totalDALastUpdated = block.number;\r\n\r\n        userDepositChanged[_address][lastRewardBlock] = true;\r\n    }\r\n\r\n    /**\r\n     * @dev Core function of the strat, in charge of updating, collecting and re-investing rewards.\r\n     * 1. It claims rewards from the {lpStakingPool}.\r\n     * 2. It swaps the {rewardTokenA} & {rewardTokenB} tokens for {tokenA} & {tokenB}.\r\n     * 3. It deposits the new LP tokens back to the {lpStakingPool}.\r\n     */\r\n    function distribute(address[] calldata rewardTokenAToTokenARoute, address[] calldata rewardTokenAToTokenBRoute, address[] calldata rewardTokenBToTokenARoute, address[] calldata rewardTokenBToTokenBRoute) external onlyOwner nonReentrant{\r\n        require(totalDeposits > 0);\r\n                \r\n        lpStakingPool.getReward();\r\n        uint256 rewardTokenAHalf = IERC20(rewardTokenA).balanceOf(address(this))/2;\r\n        uint256 rewardTokenBHalf = IERC20(rewardTokenB).balanceOf(address(this))/2;\r\n\r\n        uint256 deadline = block.timestamp + 600;\r\n                \r\n        if (tokenA != rewardTokenA) {\r\n            quickswapRouter.swapExactTokensForTokens(rewardTokenAHalf, 0, rewardTokenAToTokenARoute, address(this), deadline);\r\n        }\r\n        \r\n        if (tokenB != rewardTokenA) {\r\n            quickswapRouter.swapExactTokensForTokens(rewardTokenAHalf, 0, rewardTokenAToTokenBRoute, address(this), deadline);\r\n        }\r\n        \r\n        if (tokenA != rewardTokenB) {\r\n            quickswapRouter.swapExactTokensForTokens(rewardTokenBHalf, 0, rewardTokenBToTokenARoute, address(this), deadline);\r\n        }\r\n        \r\n        if (tokenB != rewardTokenB) {\r\n            quickswapRouter.swapExactTokensForTokens(rewardTokenBHalf, 0, rewardTokenBToTokenBRoute, address(this), deadline);\r\n        }\r\n        \r\n        uint256 tokenABalance = IERC20(tokenA).balanceOf(address(this));\r\n        uint256 tokenBBalance = IERC20(tokenB).balanceOf(address(this));\r\n                \r\n        quickswapRouter.addLiquidity(tokenA, tokenB, tokenABalance, tokenBBalance, 1, 1, address(this), deadline);\r\n                \r\n        uint256 reward = IERC20(lpPair).balanceOf(address(this));\r\n        if (reward > 0) {\r\n            totalDeposits += reward;\r\n\r\n            lpStakingPool.stake(reward);\r\n        }\r\n        uint256 lastRewardPeriod = block.number - lastRewardBlock;\r\n        _setExpectedReward(reward, block.number + lastRewardPeriod);\r\n        lastRewardBlock = block.number;\r\n    }\r\n\r\n    function setExpectedReward(uint256 _amount, uint256 _block) external onlyOwner{\r\n       _setExpectedReward(_amount, _block);\r\n    }\r\n\r\n    function _setExpectedReward(uint256 _amount, uint256 _block) internal {\r\n        expectedReward = _amount;\r\n        expectedRewardBlock = _block;\r\n    }\r\n\r\n    /**\r\n     * @dev Returns total funds staked by the {_address}.\r\n     */\r\n    function userBalance(address _address) public view returns (uint256) {\r\n        if (userDALastUpdated[_address] > lastRewardBlock || userDepositChanged[_address][lastRewardBlock]) {\r\n            return userDeposit[_address];\r\n        } else {\r\n            if (totalSupply == 0) {\r\n                return 0;\r\n            }\r\n            return totalDeposits * balanceOf[_address] / totalSupply;\r\n        }\r\n    }\r\n\r\n    function _authorizeUpgrade(address newImplementation) internal override onlyOwner {\r\n\r\n    }\r\n}",
  "sourcePath": "C:\\Users\\jugli\\Desktop\\uno\\uno-contracts-branch\\contracts\\farms\\QuickswapDualFarmUpgradeable.sol",
  "compiler": {
    "name": "solc",
    "version": "0.8.10+commit.fc410830.Emscripten.clang"
  },
  "schemaVersion": "3.4.7",
  "updatedAt": "2022-04-30T12:33:09.921Z",
  "devdoc": {
    "kind": "dev",
    "methods": {
      "deposit(uint256,uint256,uint256,address)": {
        "details": "Function that makes the deposits. If it's not the first deposit, withdraws {lpStakingPool} and deposits new tokens with the old ones. note: user's actual fair reward may differ from these calculations because new deposits in the same reward interval will change the total expected deposit age, so there's no way to reliably & precisely predict the correct reward distribution, but this approach still provides results good enough and remains practical"
      },
      "distribute(address[],address[],address[],address[])": {
        "details": "Core function of the strat, in charge of updating, collecting and re-investing rewards. 1. It claims rewards from the {lpStakingPool}. 2. It swaps the {rewardTokenA} & {rewardTokenB} tokens for {tokenA} & {tokenB}. 3. It deposits the new LP tokens back to the {lpStakingPool}."
      },
      "owner()": {
        "details": "Returns the address of the current owner."
      },
      "upgradeTo(address)": {
        "details": "Upgrade the implementation of the proxy to `newImplementation`. Calls {_authorizeUpgrade}. Emits an {Upgraded} event."
      },
      "upgradeToAndCall(address,bytes)": {
        "details": "Upgrade the implementation of the proxy to `newImplementation`, and subsequently execute the function call encoded in `data`. Calls {_authorizeUpgrade}. Emits an {Upgraded} event."
      },
      "userBalance(address)": {
        "details": "Returns total funds staked by the {_address}."
      },
      "withdraw(address,uint256,bool,address)": {
        "details": "Withdraws funds and sends them to the {recipient}."
      }
    },
    "stateVariables": {
      "expectedRewardBlock": {
        "details": "Contract Variables:     "
      },
      "quickswapRouter": {
        "details": "Third Party Contracts: {quickswapRouter} - The contract that executes swaps. {lpStakingPool} - The contract that distibutes {rewardTokenA, rewardTokenB}."
      },
      "rewardTokenA": {
        "details": "Tokens Used: {rewardTokenA, rewardTokenB} - Tokens generated by staking. {lpPair} - Token that the strategy maximizes. The same token that users deposit in the {lpStakingPool}. {tokenA, tokenB} - Tokens that the strategy maximizes."
      }
    },
    "version": 1
  },
  "userdoc": {
    "kind": "user",
    "methods": {},
    "version": 1
  }
}