{
  "contractName": "QuickswapFarmUpgradeable",
  "abi": [
    {
      "anonymous": false,
      "inputs": [
        {
          "indexed": false,
          "internalType": "address",
          "name": "previousAdmin",
          "type": "address"
        },
        {
          "indexed": false,
          "internalType": "address",
          "name": "newAdmin",
          "type": "address"
        }
      ],
      "name": "AdminChanged",
      "type": "event"
    },
    {
      "anonymous": false,
      "inputs": [
        {
          "indexed": true,
          "internalType": "address",
          "name": "beacon",
          "type": "address"
        }
      ],
      "name": "BeaconUpgraded",
      "type": "event"
    },
    {
      "anonymous": false,
      "inputs": [
        {
          "indexed": true,
          "internalType": "address",
          "name": "implementation",
          "type": "address"
        }
      ],
      "name": "Upgraded",
      "type": "event"
    },
    {
      "inputs": [],
      "name": "lpPair",
      "outputs": [
        {
          "internalType": "address",
          "name": "",
          "type": "address"
        }
      ],
      "stateMutability": "view",
      "type": "function"
    },
    {
      "inputs": [],
      "name": "owner",
      "outputs": [
        {
          "internalType": "address",
          "name": "",
          "type": "address"
        }
      ],
      "stateMutability": "view",
      "type": "function"
    },
    {
      "inputs": [],
      "name": "rewardToken",
      "outputs": [
        {
          "internalType": "address",
          "name": "",
          "type": "address"
        }
      ],
      "stateMutability": "view",
      "type": "function"
    },
    {
      "inputs": [],
      "name": "tokenA",
      "outputs": [
        {
          "internalType": "address",
          "name": "",
          "type": "address"
        }
      ],
      "stateMutability": "view",
      "type": "function"
    },
    {
      "inputs": [],
      "name": "tokenB",
      "outputs": [
        {
          "internalType": "address",
          "name": "",
          "type": "address"
        }
      ],
      "stateMutability": "view",
      "type": "function"
    },
    {
      "inputs": [
        {
          "internalType": "address",
          "name": "newImplementation",
          "type": "address"
        }
      ],
      "name": "upgradeTo",
      "outputs": [],
      "stateMutability": "nonpayable",
      "type": "function"
    },
    {
      "inputs": [
        {
          "internalType": "address",
          "name": "newImplementation",
          "type": "address"
        },
        {
          "internalType": "bytes",
          "name": "data",
          "type": "bytes"
        }
      ],
      "name": "upgradeToAndCall",
      "outputs": [],
      "stateMutability": "payable",
      "type": "function"
    },
    {
      "inputs": [
        {
          "internalType": "address",
          "name": "_lpStakingPool",
          "type": "address"
        }
      ],
      "name": "initialize",
      "outputs": [],
      "stateMutability": "nonpayable",
      "type": "function"
    },
    {
      "inputs": [
        {
          "internalType": "uint256",
          "name": "amountA",
          "type": "uint256"
        },
        {
          "internalType": "uint256",
          "name": "amountB",
          "type": "uint256"
        },
        {
          "internalType": "uint256",
          "name": "amountLP",
          "type": "uint256"
        },
        {
          "internalType": "address",
          "name": "recipient",
          "type": "address"
        }
      ],
      "name": "deposit",
      "outputs": [
        {
          "internalType": "uint256",
          "name": "sentA",
          "type": "uint256"
        },
        {
          "internalType": "uint256",
          "name": "sentB",
          "type": "uint256"
        },
        {
          "internalType": "uint256",
          "name": "liquidity",
          "type": "uint256"
        }
      ],
      "stateMutability": "nonpayable",
      "type": "function"
    },
    {
      "inputs": [
        {
          "internalType": "address",
          "name": "origin",
          "type": "address"
        },
        {
          "internalType": "uint256",
          "name": "amount",
          "type": "uint256"
        },
        {
          "internalType": "bool",
          "name": "withdrawLP",
          "type": "bool"
        },
        {
          "internalType": "address",
          "name": "recipient",
          "type": "address"
        }
      ],
      "name": "withdraw",
      "outputs": [
        {
          "internalType": "uint256",
          "name": "amountA",
          "type": "uint256"
        },
        {
          "internalType": "uint256",
          "name": "amountB",
          "type": "uint256"
        }
      ],
      "stateMutability": "nonpayable",
      "type": "function"
    },
    {
      "inputs": [
        {
          "internalType": "address[]",
          "name": "_rewardTokenToTokenARoute",
          "type": "address[]"
        },
        {
          "internalType": "address[]",
          "name": "_rewardTokenToTokenBRoute",
          "type": "address[]"
        }
      ],
      "name": "distribute",
      "outputs": [],
      "stateMutability": "nonpayable",
      "type": "function"
    },
    {
      "inputs": [
        {
          "internalType": "address",
          "name": "_address",
          "type": "address"
        }
      ],
      "name": "userBalance",
      "outputs": [
        {
          "internalType": "uint256",
          "name": "",
          "type": "uint256"
        }
      ],
      "stateMutability": "view",
      "type": "function"
    },
    {
      "inputs": [],
      "name": "getTotalDeposits",
      "outputs": [
        {
          "internalType": "uint256",
          "name": "",
          "type": "uint256"
        }
      ],
      "stateMutability": "view",
      "type": "function"
    }
  ],
  "bytecode": "0x60a06040523060805234801561001457600080fd5b5060016065556080516123bf61004a600039600081816103420152818161038b0152818161060e015261064e01526123bf6000f3fe6080604052600436106100a25760003560e01c80630103c92b146100a75780630fc63d10146100da578063168a4822146101075780633659cfe61461011c578063430004c11461013e578063452ed4f1146101735780634f1ef286146101935780635f64b55b146101a65780638da5cb5b146101c6578063c4d66de8146101db578063f7c618c1146101fb578063fad3cc4b1461021b578063fd12530014610256575b600080fd5b3480156100b357600080fd5b506100c76100c2366004611c7a565b610276565b6040519081526020015b60405180910390f35b3480156100e657600080fd5b506068546100fa906001600160a01b031681565b6040516100d19190611c97565b34801561011357600080fd5b506100c7610301565b34801561012857600080fd5b5061013c610137366004611c7a565b610337565b005b34801561014a57600080fd5b5061015e610159366004611cb9565b610409565b604080519283526020830191909152016100d1565b34801561017f57600080fd5b506067546100fa906001600160a01b031681565b61013c6101a1366004611d52565b610603565b3480156101b257600080fd5b506069546100fa906001600160a01b031681565b3480156101d257600080fd5b506100fa6106bd565b3480156101e757600080fd5b5061013c6101f6366004611c7a565b6106cc565b34801561020757600080fd5b506066546100fa906001600160a01b031681565b34801561022757600080fd5b5061023b610236366004611df9565b610bed565b604080519384526020840192909252908201526060016100d1565b34801561026257600080fd5b5061013c610271366004611e7a565b610dde565b6001600160a01b0381166000908152606e6020526040812054606c5482916102d491670de0b6b3a7640000916102ce916102af91611358565b6001600160a01b0387166000908152606d602052604090205490611364565b90611370565b6001600160a01b0384166000908152606d60205260409020549091506102fa908261137c565b9392505050565b6000610332610329670de0b6b3a76400006102ce606c54606b5461136490919063ffffffff16565b606b549061137c565b905090565b306001600160a01b037f00000000000000000000000000000000000000000000000000000000000000001614156103895760405162461bcd60e51b815260040161038090611ee5565b60405180910390fd5b7f00000000000000000000000000000000000000000000000000000000000000006001600160a01b03166103bb611388565b6001600160a01b0316146103e15760405162461bcd60e51b815260040161038090611f1f565b6103ea816113a4565b60408051600080825260208201909252610406918391906113c0565b50565b600080336104156106bd565b6001600160a01b03161461042857600080fd5b6002606554141561044b5760405162461bcd60e51b815260040161038090611f59565b60026065556001600160a01b0386166000908152606d60205260409020546104c55760405162461bcd60e51b815260206004820152602760248201527f54686520616d6f756e74207374616b65642073686f756c64206265206d6f72656044820152660207468616e20360cc1b6064820152608401610380565b60006104d087611507565b905060006104de8288611358565b905080156104f0576104f088826115b8565b851561051b5760675461050d906001600160a01b03168689611654565b6000809350935050506105f3565b60685460695460008051602061236a8339815191529163baa2abde916001600160a01b0391821691168a6000808b6105554261025861137c565b60405160e089901b6001600160e01b03191681526001600160a01b039788166004820152958716602487015260448601949094526064850192909252608484015290921660a482015260c481019190915260e40160408051808303816000875af11580156105c7573d6000803e3d6000fd5b505050506040513d601f19601f820116820180604052508101906105eb9190611f90565b909450925050505b6001606555909590945092505050565b306001600160a01b037f000000000000000000000000000000000000000000000000000000000000000016141561064c5760405162461bcd60e51b815260040161038090611ee5565b7f00000000000000000000000000000000000000000000000000000000000000006001600160a01b031661067e611388565b6001600160a01b0316146106a45760405162461bcd60e51b815260040161038090611f1f565b6106ad826113a4565b6106b9828260016113c0565b5050565b6033546001600160a01b031690565b600054610100900460ff166106e75760005460ff16156106ef565b6106ef6116af565b61070b5760405162461bcd60e51b815260040161038090611fb4565b600054610100900460ff1615801561072d576000805461ffff19166101011790555b6107356116c0565b606a80546001600160a01b0319166001600160a01b038416908117909155604080516372f702f360e01b815290516372f702f3916004808201926020929091908290030181865afa15801561078e573d6000803e3d6000fd5b505050506040513d601f19601f820116820180604052508101906107b29190612002565b606780546001600160a01b0319166001600160a01b03928316179055606a546040805163d1af0c7d60e01b81529051919092169163d1af0c7d9160048083019260209291908290030181865afa158015610810573d6000803e3d6000fd5b505050506040513d601f19601f820116820180604052508101906108349190612002565b606680546001600160a01b0319166001600160a01b0392831617905560675460408051630dfe168160e01b815290519190921691630dfe16819160048083019260209291908290030181865afa158015610892573d6000803e3d6000fd5b505050506040513d601f19601f820116820180604052508101906108b69190612002565b606880546001600160a01b0319166001600160a01b039283161790556067546040805163d21220a760e01b81529051919092169163d21220a79160048083019260209291908290030181865afa158015610914573d6000803e3d6000fd5b505050506040513d601f19601f820116820180604052508101906109389190612002565b606980546001600160a01b0319166001600160a01b0392831617905560675460405163095ea7b360e01b815260001992919091169063095ea7b390610983908690859060040161201f565b6020604051808303816000875af11580156109a2573d6000803e3d6000fd5b505050506040513d601f19601f820116820180604052508101906109c69190612038565b5060675460405163095ea7b360e01b81526001600160a01b039091169063095ea7b390610a079060008051602061236a83398151915290859060040161201f565b6020604051808303816000875af1158015610a26573d6000803e3d6000fd5b505050506040513d601f19601f82011682018060405250810190610a4a9190612038565b5060665460405163095ea7b360e01b81526001600160a01b039091169063095ea7b390610a8b9060008051602061236a83398151915290859060040161201f565b6020604051808303816000875af1158015610aaa573d6000803e3d6000fd5b505050506040513d601f19601f82011682018060405250810190610ace9190612038565b5060685460405163095ea7b360e01b81526001600160a01b039091169063095ea7b390610b0f9060008051602061236a83398151915290859060040161201f565b6020604051808303816000875af1158015610b2e573d6000803e3d6000fd5b505050506040513d601f19601f82011682018060405250810190610b529190612038565b5060695460405163095ea7b360e01b81526001600160a01b039091169063095ea7b390610b939060008051602061236a83398151915290859060040161201f565b6020604051808303816000875af1158015610bb2573d6000803e3d6000fd5b505050506040513d601f19601f82011682018060405250810190610bd69190612038565b505080156106b9576000805461ff00191690555050565b6000808033610bfa6106bd565b6001600160a01b031614610c0d57600080fd5b60026065541415610c305760405162461bcd60e51b815260040161038090611f59565b60026065556001600160a01b0384166000908152606d602052604081205415610c5f57610c5c85611507565b90505b60008089118015610c705750600088115b15610d1e5760685460695460008051602061236a8339815191529163e8e33700916001600160a01b0391821691168c8c60008030610cb04261025861137c565b6040518963ffffffff1660e01b8152600401610cd3989796959493929190612055565b6060604051808303816000875af1158015610cf2573d6000803e3d6000fd5b505050506040513d601f19601f82011682018060405250810190610d16919061209e565b919650945090505b610d28818861137c565b925060008311610d755760405162461bcd60e51b8152602060048201526018602482015277054686520616d6f756e742070726f766964656420697320360441b6044820152606401610380565b610d8886610d83858561137c565b6115b8565b610da986610d968b88611358565b6068546001600160a01b03169190611654565b610dca86610db78a87611358565b6069546001600160a01b03169190611654565b505060016065819055509450945094915050565b33610de76106bd565b6001600160a01b031614610dfa57600080fd5b60026065541415610e1d5760405162461bcd60e51b815260040161038090611f59565b6002606555606b54610e815760405162461bcd60e51b815260206004820152602760248201527f54686572652073686f756c6420626520736f6d6520746f6b656e7320696e20746044820152661a19481c1bdbdb60ca1b6064820152608401610380565b606a60009054906101000a90046001600160a01b03166001600160a01b0316633d18b9126040518163ffffffff1660e01b8152600401600060405180830381600087803b158015610ed157600080fd5b505af1158015610ee5573d6000803e3d6000fd5b50506066546040516370a0823160e01b815260009350610f6292506002916001600160a01b0316906370a0823190610f21903090600401611c97565b602060405180830381865afa158015610f3e573d6000803e3d6000fd5b505050506040513d601f19601f820116820180604052508101906102ce91906120cc565b6066546068549192506001600160a01b0391821691161461100d5760008051602061236a8339815191526338ed1739826000888830610fa34261025861137c565b6040518763ffffffff1660e01b8152600401610fc4969594939291906120e5565b6000604051808303816000875af1158015610fe3573d6000803e3d6000fd5b505050506040513d6000823e601f3d908101601f1916820160405261100b9190810190612158565b505b6066546069546001600160a01b039081169116146110b55760008051602061236a8339815191526338ed173982600086863061104b4261025861137c565b6040518763ffffffff1660e01b815260040161106c969594939291906120e5565b6000604051808303816000875af115801561108b573d6000803e3d6000fd5b505050506040513d6000823e601f3d908101601f191682016040526110b39190810190612158565b505b6068546040516370a0823160e01b81526000916001600160a01b0316906370a08231906110e6903090600401611c97565b602060405180830381865afa158015611103573d6000803e3d6000fd5b505050506040513d601f19601f8201168201806040525081019061112791906120cc565b6069546040516370a0823160e01b81529192506000916001600160a01b03909116906370a082319061115d903090600401611c97565b602060405180830381865afa15801561117a573d6000803e3d6000fd5b505050506040513d601f19601f8201168201806040525081019061119e91906120cc565b60685460695491925060008051602061236a8339815191529163e8e33700916001600160a01b0390811691168585600180306111dc4261025861137c565b6040518963ffffffff1660e01b81526004016111ff989796959493929190612055565b6060604051808303816000875af115801561121e573d6000803e3d6000fd5b505050506040513d601f19601f82011682018060405250810190611242919061209e565b50506067546040516370a0823160e01b8152600092506001600160a01b03909116906370a0823190611278903090600401611c97565b602060405180830381865afa158015611295573d6000803e3d6000fd5b505050506040513d601f19601f820116820180604052508101906112b991906120cc565b9050801561134957606b546112e7906112de906102ce670de0b6b3a764000085611364565b606c549061137c565b606c55606a5460405163534a7e1d60e11b8152600481018390526001600160a01b039091169063a694fc3a90602401600060405180830381600087803b15801561133057600080fd5b505af1158015611344573d6000803e3d6000fd5b505050505b50506001606555505050505050565b60006102fa8284612213565b60006102fa828461222a565b60006102fa8284612249565b60006102fa828461226b565b600080516020612323833981519152546001600160a01b031690565b336113ad6106bd565b6001600160a01b03161461040657600080fd5b60006113ca611388565b90506113d584611745565b6000835111806113e25750815b156113f3576113f184846117d8565b505b7f4910fdfa16fed3260ed0e7147f7cc6da11a60208b5b9406d12a635614ffd9143805460ff1661150057805460ff1916600117815560405161146e90869061143f908590602401611c97565b60408051601f198184030181529190526020810180516001600160e01b0316631b2ce7f360e11b1790526117d8565b50805460ff1916815561147f611388565b6001600160a01b0316826001600160a01b0316146114f75760405162461bcd60e51b815260206004820152602f60248201527f45524331393637557067726164653a207570677261646520627265616b73206660448201526e75727468657220757067726164657360881b6064820152608401610380565b611500856117fd565b5050505050565b60008061151383610276565b6001600160a01b0384166000908152606d6020526040902054606b5491925061153c9190611358565b606b556001600160a01b038381166000908152606d602052604080822091909155606a549051632e1a7d4d60e01b815260048101849052911690632e1a7d4d90602401600060405180830381600087803b15801561159957600080fd5b505af11580156115ad573d6000803e3d6000fd5b509295945050505050565b6001600160a01b0382166000908152606d60209081526040808320849055606c54606e90925290912055606b546115ef908261137c565b606b55606a5460405163534a7e1d60e11b8152600481018390526001600160a01b039091169063a694fc3a90602401600060405180830381600087803b15801561163857600080fd5b505af115801561164c573d6000803e3d6000fd5b505050505050565b6116aa8363a9059cbb60e01b848460405160240161167392919061201f565b60408051601f198184030181529190526020810180516001600160e01b03166001600160e01b03199093169290921790915261183d565b505050565b60006116ba3061190f565b15905090565b600054610100900460ff166116db5760005460ff16156116e3565b6116e36116af565b6116ff5760405162461bcd60e51b815260040161038090611fb4565b600054610100900460ff16158015611721576000805461ffff19166101011790555b61172961191e565b61173161198b565b8015610406576000805461ff001916905550565b803b6117a95760405162461bcd60e51b815260206004820152602d60248201527f455243313936373a206e657720696d706c656d656e746174696f6e206973206e60448201526c1bdd08184818dbdb9d1c9858dd609a1b6064820152608401610380565b60008051602061232383398151915280546001600160a01b0319166001600160a01b0392909216919091179055565b60606102fa838360405180606001604052806027815260200161234360279139611a12565b61180681611745565b6040516001600160a01b038216907fbc7cd75a20ee27fd9adebab32041f755214dbc6bffa90cc0225b39da2e5c2d3b90600090a250565b6000611892826040518060400160405280602081526020017f5361666545524332303a206c6f772d6c6576656c2063616c6c206661696c6564815250856001600160a01b0316611ae69092919063ffffffff16565b8051909150156116aa57808060200190518101906118b09190612038565b6116aa5760405162461bcd60e51b815260206004820152602a60248201527f5361666545524332303a204552433230206f7065726174696f6e20646964206e6044820152691bdd081cdd58d8d9595960b21b6064820152608401610380565b6001600160a01b03163b151590565b600054610100900460ff166119895760405162461bcd60e51b815260206004820152602b60248201527f496e697469616c697a61626c653a20636f6e7472616374206973206e6f74206960448201526a6e697469616c697a696e6760a81b6064820152608401610380565b565b600054610100900460ff166119a65760005460ff16156119ae565b6119ae6116af565b6119ca5760405162461bcd60e51b815260040161038090611fb4565b600054610100900460ff161580156119ec576000805461ffff19166101011790555b603380546001600160a01b031916331790558015610406576000805461ff001916905550565b6060833b611a715760405162461bcd60e51b815260206004820152602660248201527f416464726573733a2064656c65676174652063616c6c20746f206e6f6e2d636f6044820152651b9d1c9858dd60d21b6064820152608401610380565b600080856001600160a01b031685604051611a8c91906122b3565b600060405180830381855af49150503d8060008114611ac7576040519150601f19603f3d011682016040523d82523d6000602084013e611acc565b606091505b5091509150611adc828286611afd565b9695505050505050565b6060611af58484600085611b36565b949350505050565b60608315611b0c5750816102fa565b825115611b1c5782518084602001fd5b8160405162461bcd60e51b815260040161038091906122cf565b606082471015611b975760405162461bcd60e51b815260206004820152602660248201527f416464726573733a20696e73756666696369656e742062616c616e636520666f6044820152651c8818d85b1b60d21b6064820152608401610380565b611ba08561190f565b611bec5760405162461bcd60e51b815260206004820152601d60248201527f416464726573733a2063616c6c20746f206e6f6e2d636f6e74726163740000006044820152606401610380565b600080866001600160a01b03168587604051611c0891906122b3565b60006040518083038185875af1925050503d8060008114611c45576040519150601f19603f3d011682016040523d82523d6000602084013e611c4a565b606091505b5091509150611c5a828286611afd565b979650505050505050565b6001600160a01b038116811461040657600080fd5b600060208284031215611c8c57600080fd5b81356102fa81611c65565b6001600160a01b0391909116815260200190565b801515811461040657600080fd5b60008060008060808587031215611ccf57600080fd5b8435611cda81611c65565b9350602085013592506040850135611cf181611cab565b91506060850135611d0181611c65565b939692955090935050565b634e487b7160e01b600052604160045260246000fd5b604051601f8201601f191681016001600160401b0381118282101715611d4a57611d4a611d0c565b604052919050565b60008060408385031215611d6557600080fd5b8235611d7081611c65565b91506020838101356001600160401b0380821115611d8d57600080fd5b818601915086601f830112611da157600080fd5b813581811115611db357611db3611d0c565b611dc5601f8201601f19168501611d22565b91508082528784828501011115611ddb57600080fd5b80848401858401376000848284010152508093505050509250929050565b60008060008060808587031215611e0f57600080fd5b8435935060208501359250604085013591506060850135611d0181611c65565b60008083601f840112611e4157600080fd5b5081356001600160401b03811115611e5857600080fd5b6020830191508360208260051b8501011115611e7357600080fd5b9250929050565b60008060008060408587031215611e9057600080fd5b84356001600160401b0380821115611ea757600080fd5b611eb388838901611e2f565b90965094506020870135915080821115611ecc57600080fd5b50611ed987828801611e2f565b95989497509550505050565b6020808252602c9082015260008051602061230383398151915260408201526b19195b1959d85d1958d85b1b60a21b606082015260800190565b6020808252602c9082015260008051602061230383398151915260408201526b6163746976652070726f787960a01b606082015260800190565b6020808252601f908201527f5265656e7472616e637947756172643a207265656e7472616e742063616c6c00604082015260600190565b60008060408385031215611fa357600080fd5b505080516020909101519092909150565b6020808252602e908201527f496e697469616c697a61626c653a20636f6e747261637420697320616c72656160408201526d191e481a5b9a5d1a585b1a5e995960921b606082015260800190565b60006020828403121561201457600080fd5b81516102fa81611c65565b6001600160a01b03929092168252602082015260400190565b60006020828403121561204a57600080fd5b81516102fa81611cab565b6001600160a01b039889168152968816602088015260408701959095526060860193909352608085019190915260a084015290921660c082015260e08101919091526101000190565b6000806000606084860312156120b357600080fd5b8351925060208401519150604084015190509250925092565b6000602082840312156120de57600080fd5b5051919050565b868152602080820187905260a0604083018190528201859052600090869060c08401835b8881101561213757833561211c81611c65565b6001600160a01b031682529282019290820190600101612109565b506001600160a01b0396909616606085015250505060800152949350505050565b6000602080838503121561216b57600080fd5b82516001600160401b038082111561218257600080fd5b818501915085601f83011261219657600080fd5b8151818111156121a8576121a8611d0c565b8060051b91506121b9848301611d22565b81815291830184019184810190888411156121d357600080fd5b938501935b838510156121f1578451825293850193908501906121d8565b98975050505050505050565b634e487b7160e01b600052601160045260246000fd5b600082821015612225576122256121fd565b500390565b6000816000190483118215151615612244576122446121fd565b500290565b60008261226657634e487b7160e01b600052601260045260246000fd5b500490565b6000821982111561227e5761227e6121fd565b500190565b60005b8381101561229e578181015183820152602001612286565b838111156122ad576000848401525b50505050565b600082516122c5818460208701612283565b9190910192915050565b60208152600082518060208401526122ee816040850160208701612283565b601f01601f1916919091016040019291505056fe46756e6374696f6e206d7573742062652063616c6c6564207468726f75676820360894a13ba1a3210667c828492db98dca3e2076cc3735a920a3ca505d382bbc416464726573733a206c6f772d6c6576656c2064656c65676174652063616c6c206661696c6564000000000000000000000000a5e0829caced8ffdd4de3c43696c57f7d7a678ffa26469706673582212203ae1c1829b27772d2269e81366215c662d965b941e0efed12a758cbb81c4e4da64736f6c634300080a0033",
  "immutableReferences": {
    "1581": [
      {
        "length": 32,
        "start": 834
      },
      {
        "length": 32,
        "start": 907
      },
      {
        "length": 32,
        "start": 1550
      },
      {
        "length": 32,
        "start": 1614
      }
    ]
  },
  "source": "// SPDX-License-Identifier: MIT\r\npragma solidity 0.8.10;\r\n\r\nimport \"../interfaces/IUniswapV2Pair.sol\";\r\nimport \"../interfaces/IUniswapV2Router.sol\";\r\nimport \"../interfaces/IStakingRewards.sol\";\r\nimport \"@openzeppelin/contracts/utils/math/SafeMath.sol\";\r\nimport \"../utils/OwnableUpgradeableNoTransfer.sol\";\r\nimport \"@openzeppelin/contracts/proxy/utils/UUPSUpgradeable.sol\";\r\nimport \"@openzeppelin/contracts/security/ReentrancyGuard.sol\";\r\nimport \"@openzeppelin/contracts-upgradeable/token/ERC20/utils/SafeERC20Upgradeable.sol\";\r\nimport \"@openzeppelin/contracts-upgradeable/token/ERC20/IERC20Upgradeable.sol\";\r\n\r\ncontract QuickswapFarmUpgradeable is UUPSUpgradeable, Initializable, OwnableUpgradeableNoTransfer, ReentrancyGuard {\r\n    using SafeMath for uint256;\r\n    using SafeERC20Upgradeable for IERC20Upgradeable;\r\n\r\n    /**\r\n     * @dev Tokens Used:\r\n     * {WETH} - WETH token address, used in routing.\r\n     * {QUICK} - QUICK token address, used as a fallback if [WETH - tokenA/tokenB] pair doesn't exist.\r\n     * {rewardToken} - Token generated by staking.\r\n     * {lpPair} - Token that the strategy maximizes. The same token that users deposit in the {lpStakingPool}.\r\n     * {tokenA, tokenB} - Tokens that the strategy maximizes.\r\n     */\r\n    address private constant WETH = address(0x7ceB23fD6bC0adD59E62ac25578270cFf1b9f619);//UNUSED\r\n    address private constant QUICK = address(0x831753DD7087CaC61aB5644b308642cc1c33Dc13);//UNUSED\r\n    address public rewardToken;\r\n    address public lpPair;\r\n    address public tokenA;\r\n    address public tokenB;\r\n\r\n    /**\r\n     * @dev Third Party Contracts:\r\n     * {quickswapRouter} - The contract that executes swaps.\r\n     * {lpStakingPool} - The contract that distibutes {rewardToken}.\r\n     */\r\n    IUniswapV2Router01 private constant quickswapRouter = IUniswapV2Router01(0xa5E0829CaCEd8fFDD4De3c43696c57F7D7A678ff); \r\n    IStakingRewards private lpStakingPool;\r\n\r\n    /**\r\n     * @dev Contract Variables:\r\n     * The implementation of Scalable Reward Distribution on the Ethereum Blockchain paper by B. Batog, L. Boca and N. Johnson.\r\n     * {totalDeposits} - The sum of all active stake deposits | (T).\r\n     * {sumOfRewards} - The sum of (rewards)/(totalDeposits) | (S).\r\n     * {stakes} - All stakes made by users | (stake).\r\n     * {sumOfRewardsForUser} - A sumOfRewards for users at pool join time | (S0).\r\n     */\r\n    uint256 private totalDeposits;\r\n    uint256 private sumOfRewards;\r\n    mapping(address => uint256) private stakes;\r\n    mapping(address => uint256) private sumOfRewardsForUser;\r\n\r\n    // ============ Methods ============\r\n\r\n    function initialize(address _lpStakingPool) external initializer {\r\n        __Ownable_init();\r\n\r\n        lpStakingPool = IStakingRewards(_lpStakingPool);\r\n        lpPair = address(lpStakingPool.stakingToken());\r\n\r\n        rewardToken = lpStakingPool.rewardsToken();\r\n\r\n        tokenA = IUniswapV2Pair(lpPair).token0();\r\n        tokenB = IUniswapV2Pair(lpPair).token1();\r\n\r\n        uint256 MAX_UINT = uint256(2**256 - 1);\r\n        IERC20(lpPair).approve(_lpStakingPool, MAX_UINT);\r\n        IERC20(lpPair).approve(address(quickswapRouter), MAX_UINT);\r\n        IERC20(rewardToken).approve(address(quickswapRouter), MAX_UINT);\r\n        IERC20(tokenA).approve(address(quickswapRouter), MAX_UINT);\r\n        IERC20(tokenB).approve(address(quickswapRouter), MAX_UINT);\r\n    }\r\n\r\n    /**\r\n     * @dev Function that makes the deposits.\r\n     * If it's not the first deposit, withdraws {lpStakingPool} and deposits new tokens with the old ones.\r\n     */\r\n    function deposit(uint256 amountA, uint256 amountB, uint256 amountLP, address recipient) external onlyOwner nonReentrant returns(uint256 sentA, uint256 sentB, uint256 liquidity){\r\n        uint256 withdrawAmount;\r\n        if (stakes[recipient] != 0) {\r\n            withdrawAmount = _withdraw(recipient);\r\n        }\r\n\r\n        uint256 addedLiquidity;\r\n        if(amountA > 0 && amountB > 0){\r\n            (sentA, sentB, addedLiquidity) = quickswapRouter.addLiquidity(tokenA, tokenB, amountA, amountB, 0, 0, address(this), block.timestamp.add(600));\r\n        }\r\n\r\n        liquidity = addedLiquidity.add(amountLP);\r\n        require(liquidity > 0, 'The amount provided is 0');\r\n        _deposit(recipient, liquidity.add(withdrawAmount));\r\n\r\n        IERC20Upgradeable(tokenA).safeTransfer(recipient, amountA.sub(sentA));\r\n        IERC20Upgradeable(tokenB).safeTransfer(recipient, amountB.sub(sentB)); \r\n    }\r\n\r\n    /**\r\n     * @dev Withdraws funds and sends them to the {recipient}.\r\n     */\r\n    function withdraw(address origin, uint256 amount, bool withdrawLP, address recipient) external onlyOwner nonReentrant returns(uint256 amountA, uint256 amountB){\r\n        require(stakes[origin] > 0, \"The amount staked should be more than 0\");\r\n        uint256 withdrawAmount = _withdraw(origin);\r\n\r\n        uint256 depositAmount = withdrawAmount.sub(amount);\r\n        if(depositAmount > 0) {\r\n            _deposit(origin, depositAmount);\r\n        }\r\n\r\n        if(withdrawLP){\r\n            IERC20Upgradeable(lpPair).safeTransfer(recipient, amount);\r\n            return (0, 0);\r\n        }\r\n        (amountA, amountB) = quickswapRouter.removeLiquidity(tokenA, tokenB, amount, 0, 0, recipient, block.timestamp.add(600));\r\n    }\r\n\r\n    /**\r\n     * @dev Withdraws funds to this contract.\r\n     * It withdraws {lpPair} from the {lpStakingPool} to this contract.\r\n     */\r\n    function _withdraw(address _address) internal returns(uint256){\r\n        uint256 withdrawAmount = userBalance(_address);\r\n        totalDeposits = totalDeposits.sub(stakes[_address]);\r\n        stakes[_address] = 0;\r\n\r\n        lpStakingPool.withdraw(withdrawAmount);\r\n        return withdrawAmount;\r\n    }\r\n        \r\n    /**\r\n     * @dev Deposits funds to lpStakingPool.\r\n     */\r\n    function _deposit(address _address, uint256 amount) internal {\r\n        stakes[_address] = amount;\r\n        sumOfRewardsForUser[_address] = sumOfRewards;\r\n        totalDeposits = totalDeposits.add(amount);\r\n\r\n        lpStakingPool.stake(amount);\r\n    }\r\n\r\n    /**\r\n     * @dev Core function of the strat, in charge of updating, collecting and re-investing rewards.\r\n     * 1. It claims rewards from the {lpStakingPool}.\r\n     * 2. It swaps the {rewardToken} token for {tokenA} & {tokenB}.\r\n     * 3. It deposits the new LP tokens back to the {lpStakingPool}.\r\n     */\r\n    function distribute(address[] calldata _rewardTokenToTokenARoute, address[] calldata _rewardTokenToTokenBRoute) external onlyOwner nonReentrant{\r\n        require(totalDeposits > 0, \"There should be some tokens in the pool\");\r\n\r\n        lpStakingPool.getReward();\r\n        uint256 rewardTokenHalf = IERC20(rewardToken).balanceOf(address(this)).div(2);\r\n\r\n        if (tokenA != rewardToken) {\r\n            quickswapRouter.swapExactTokensForTokens(rewardTokenHalf, 0, _rewardTokenToTokenARoute, address(this), block.timestamp.add(600));\r\n        }\r\n        if (tokenB != rewardToken) {\r\n            quickswapRouter.swapExactTokensForTokens(rewardTokenHalf, 0, _rewardTokenToTokenBRoute, address(this), block.timestamp.add(600));\r\n        }\r\n\r\n        uint256 tokenABalance = IERC20(tokenA).balanceOf(address(this));\r\n        uint256 tokenBBalance = IERC20(tokenB).balanceOf(address(this));\r\n\r\n        quickswapRouter.addLiquidity(tokenA, tokenB, tokenABalance, tokenBBalance, 1, 1, address(this), block.timestamp.add(600));\r\n\r\n        uint256 reward = IERC20(lpPair).balanceOf(address(this));\r\n        if (reward > 0) {\r\n            sumOfRewards = sumOfRewards.add(uint256(1 ether).mul(reward).div(totalDeposits));\r\n            lpStakingPool.stake(reward);\r\n        }\r\n    }\r\n\r\n    /**\r\n     * @dev Returns total funds staked by the {_address}.\r\n     */\r\n    function userBalance(address _address) public view returns (uint256) {\r\n        uint256 reward = stakes[_address].mul(sumOfRewards.sub(sumOfRewardsForUser[_address])).div(uint256(1 ether));\r\n        return stakes[_address].add(reward);\r\n    }\r\n\r\n    /**\r\n     * @dev Returns total amount locked in the pool.\r\n     */\r\n    function getTotalDeposits() external view returns (uint256) {\r\n        return totalDeposits.add(totalDeposits.mul(sumOfRewards).div(uint256(1 ether)));\r\n    }\r\n\r\n    function _authorizeUpgrade(address newImplementation) internal override onlyOwner {\r\n\r\n    }\r\n}\r\n",
  "sourcePath": "C:\\Users\\jugli\\Desktop\\uno\\uno-contracts-branch\\contracts\\farms\\QuickswapFarmUpgradeable.sol",
  "compiler": {
    "name": "solc",
    "version": "0.8.10+commit.fc410830.Emscripten.clang"
  },
  "schemaVersion": "3.4.7",
  "updatedAt": "2022-04-30T12:33:09.943Z",
  "devdoc": {
    "kind": "dev",
    "methods": {
      "deposit(uint256,uint256,uint256,address)": {
        "details": "Function that makes the deposits. If it's not the first deposit, withdraws {lpStakingPool} and deposits new tokens with the old ones."
      },
      "distribute(address[],address[])": {
        "details": "Core function of the strat, in charge of updating, collecting and re-investing rewards. 1. It claims rewards from the {lpStakingPool}. 2. It swaps the {rewardToken} token for {tokenA} & {tokenB}. 3. It deposits the new LP tokens back to the {lpStakingPool}."
      },
      "getTotalDeposits()": {
        "details": "Returns total amount locked in the pool."
      },
      "owner()": {
        "details": "Returns the address of the current owner."
      },
      "upgradeTo(address)": {
        "details": "Upgrade the implementation of the proxy to `newImplementation`. Calls {_authorizeUpgrade}. Emits an {Upgraded} event."
      },
      "upgradeToAndCall(address,bytes)": {
        "details": "Upgrade the implementation of the proxy to `newImplementation`, and subsequently execute the function call encoded in `data`. Calls {_authorizeUpgrade}. Emits an {Upgraded} event."
      },
      "userBalance(address)": {
        "details": "Returns total funds staked by the {_address}."
      },
      "withdraw(address,uint256,bool,address)": {
        "details": "Withdraws funds and sends them to the {recipient}."
      }
    },
    "stateVariables": {
      "WETH": {
        "details": "Tokens Used: {WETH} - WETH token address, used in routing. {QUICK} - QUICK token address, used as a fallback if [WETH - tokenA/tokenB] pair doesn't exist. {rewardToken} - Token generated by staking. {lpPair} - Token that the strategy maximizes. The same token that users deposit in the {lpStakingPool}. {tokenA, tokenB} - Tokens that the strategy maximizes."
      },
      "quickswapRouter": {
        "details": "Third Party Contracts: {quickswapRouter} - The contract that executes swaps. {lpStakingPool} - The contract that distibutes {rewardToken}."
      },
      "totalDeposits": {
        "details": "Contract Variables: The implementation of Scalable Reward Distribution on the Ethereum Blockchain paper by B. Batog, L. Boca and N. Johnson. {totalDeposits} - The sum of all active stake deposits | (T). {sumOfRewards} - The sum of (rewards)/(totalDeposits) | (S). {stakes} - All stakes made by users | (stake). {sumOfRewardsForUser} - A sumOfRewards for users at pool join time | (S0)."
      }
    },
    "version": 1
  },
  "userdoc": {
    "kind": "user",
    "methods": {},
    "version": 1
  }
}