{
  "contractName": "QuickswapFarmFactoryBeacon",
  "abi": [
    {
      "anonymous": false,
      "inputs": [
        {
          "indexed": true,
          "internalType": "address",
          "name": "sender",
          "type": "address"
        },
        {
          "indexed": true,
          "internalType": "address",
          "name": "lpPool",
          "type": "address"
        },
        {
          "indexed": false,
          "internalType": "uint256",
          "name": "amount",
          "type": "uint256"
        }
      ],
      "name": "Deposit",
      "type": "event"
    },
    {
      "anonymous": false,
      "inputs": [
        {
          "indexed": true,
          "internalType": "address",
          "name": "lpPool",
          "type": "address"
        }
      ],
      "name": "Distribute",
      "type": "event"
    },
    {
      "anonymous": false,
      "inputs": [
        {
          "indexed": true,
          "internalType": "address",
          "name": "newDistributor",
          "type": "address"
        }
      ],
      "name": "DistributorChanged",
      "type": "event"
    },
    {
      "anonymous": false,
      "inputs": [
        {
          "indexed": true,
          "internalType": "address",
          "name": "farmAddress",
          "type": "address"
        }
      ],
      "name": "FarmDeployed",
      "type": "event"
    },
    {
      "anonymous": false,
      "inputs": [
        {
          "indexed": true,
          "internalType": "address",
          "name": "previousOwner",
          "type": "address"
        },
        {
          "indexed": true,
          "internalType": "address",
          "name": "newOwner",
          "type": "address"
        }
      ],
      "name": "OwnershipTransferred",
      "type": "event"
    },
    {
      "anonymous": false,
      "inputs": [
        {
          "indexed": false,
          "internalType": "address",
          "name": "account",
          "type": "address"
        }
      ],
      "name": "Paused",
      "type": "event"
    },
    {
      "anonymous": false,
      "inputs": [
        {
          "indexed": false,
          "internalType": "address",
          "name": "account",
          "type": "address"
        }
      ],
      "name": "Unpaused",
      "type": "event"
    },
    {
      "anonymous": false,
      "inputs": [
        {
          "indexed": true,
          "internalType": "address",
          "name": "sender",
          "type": "address"
        },
        {
          "indexed": true,
          "internalType": "address",
          "name": "lpPool",
          "type": "address"
        },
        {
          "indexed": false,
          "internalType": "uint256",
          "name": "amount",
          "type": "uint256"
        }
      ],
      "name": "Withdraw",
      "type": "event"
    },
    {
      "inputs": [
        {
          "internalType": "address",
          "name": "",
          "type": "address"
        }
      ],
      "name": "Farms",
      "outputs": [
        {
          "internalType": "contract QuickswapFarmUpgradeable",
          "name": "",
          "type": "address"
        }
      ],
      "stateMutability": "view",
      "type": "function"
    },
    {
      "inputs": [],
      "name": "distributor",
      "outputs": [
        {
          "internalType": "address",
          "name": "",
          "type": "address"
        }
      ],
      "stateMutability": "view",
      "type": "function"
    },
    {
      "inputs": [],
      "name": "farmBeacon",
      "outputs": [
        {
          "internalType": "address",
          "name": "",
          "type": "address"
        }
      ],
      "stateMutability": "view",
      "type": "function"
    },
    {
      "inputs": [
        {
          "internalType": "uint256",
          "name": "",
          "type": "uint256"
        }
      ],
      "name": "lpPools",
      "outputs": [
        {
          "internalType": "address",
          "name": "",
          "type": "address"
        }
      ],
      "stateMutability": "view",
      "type": "function"
    },
    {
      "inputs": [],
      "name": "owner",
      "outputs": [
        {
          "internalType": "address",
          "name": "",
          "type": "address"
        }
      ],
      "stateMutability": "view",
      "type": "function"
    },
    {
      "inputs": [],
      "name": "paused",
      "outputs": [
        {
          "internalType": "bool",
          "name": "",
          "type": "bool"
        }
      ],
      "stateMutability": "view",
      "type": "function"
    },
    {
      "inputs": [],
      "name": "renounceOwnership",
      "outputs": [],
      "stateMutability": "nonpayable",
      "type": "function"
    },
    {
      "inputs": [
        {
          "internalType": "address",
          "name": "newOwner",
          "type": "address"
        }
      ],
      "name": "transferOwnership",
      "outputs": [],
      "stateMutability": "nonpayable",
      "type": "function"
    },
    {
      "inputs": [
        {
          "internalType": "address",
          "name": "upgrader",
          "type": "address"
        }
      ],
      "name": "initialize",
      "outputs": [],
      "stateMutability": "nonpayable",
      "type": "function"
    },
    {
      "inputs": [
        {
          "internalType": "uint256",
          "name": "amountA",
          "type": "uint256"
        },
        {
          "internalType": "uint256",
          "name": "amountB",
          "type": "uint256"
        },
        {
          "internalType": "uint256",
          "name": "amountLP",
          "type": "uint256"
        },
        {
          "internalType": "address",
          "name": "lpStakingPool",
          "type": "address"
        },
        {
          "internalType": "address",
          "name": "recipient",
          "type": "address"
        }
      ],
      "name": "deposit",
      "outputs": [
        {
          "internalType": "uint256",
          "name": "sentA",
          "type": "uint256"
        },
        {
          "internalType": "uint256",
          "name": "sentB",
          "type": "uint256"
        },
        {
          "internalType": "uint256",
          "name": "liquidity",
          "type": "uint256"
        }
      ],
      "stateMutability": "nonpayable",
      "type": "function"
    },
    {
      "inputs": [
        {
          "internalType": "address",
          "name": "lpStakingPool",
          "type": "address"
        },
        {
          "internalType": "uint256",
          "name": "amount",
          "type": "uint256"
        },
        {
          "internalType": "bool",
          "name": "withdrawLP",
          "type": "bool"
        },
        {
          "internalType": "address",
          "name": "recipient",
          "type": "address"
        }
      ],
      "name": "withdraw",
      "outputs": [
        {
          "internalType": "uint256",
          "name": "amountA",
          "type": "uint256"
        },
        {
          "internalType": "uint256",
          "name": "amountB",
          "type": "uint256"
        }
      ],
      "stateMutability": "nonpayable",
      "type": "function"
    },
    {
      "inputs": [
        {
          "internalType": "address",
          "name": "lpStakingPool",
          "type": "address"
        },
        {
          "internalType": "uint256",
          "name": "expectedReward",
          "type": "uint256"
        },
        {
          "internalType": "uint256",
          "name": "expectedRewardBlock",
          "type": "uint256"
        }
      ],
      "name": "setExpectedReward",
      "outputs": [],
      "stateMutability": "nonpayable",
      "type": "function"
    },
    {
      "inputs": [
        {
          "internalType": "address",
          "name": "lpStakingPool",
          "type": "address"
        },
        {
          "internalType": "address[]",
          "name": "rewardTokenToTokenARoute",
          "type": "address[]"
        },
        {
          "internalType": "address[]",
          "name": "rewardTokenToTokenBRoute",
          "type": "address[]"
        }
      ],
      "name": "distribute",
      "outputs": [],
      "stateMutability": "nonpayable",
      "type": "function"
    },
    {
      "inputs": [
        {
          "internalType": "address",
          "name": "_address",
          "type": "address"
        },
        {
          "internalType": "address",
          "name": "lpStakingPool",
          "type": "address"
        }
      ],
      "name": "userStake",
      "outputs": [
        {
          "internalType": "uint256",
          "name": "stakeLP",
          "type": "uint256"
        },
        {
          "internalType": "uint256",
          "name": "stakeA",
          "type": "uint256"
        },
        {
          "internalType": "uint256",
          "name": "stakeB",
          "type": "uint256"
        }
      ],
      "stateMutability": "view",
      "type": "function"
    },
    {
      "inputs": [
        {
          "internalType": "address",
          "name": "lpStakingPool",
          "type": "address"
        }
      ],
      "name": "totalDeposits",
      "outputs": [
        {
          "internalType": "uint256",
          "name": "totalDepositsLP",
          "type": "uint256"
        },
        {
          "internalType": "uint256",
          "name": "totalDepositsA",
          "type": "uint256"
        },
        {
          "internalType": "uint256",
          "name": "totalDepositsB",
          "type": "uint256"
        }
      ],
      "stateMutability": "view",
      "type": "function"
    },
    {
      "inputs": [],
      "name": "poolLength",
      "outputs": [
        {
          "internalType": "uint256",
          "name": "",
          "type": "uint256"
        }
      ],
      "stateMutability": "view",
      "type": "function"
    },
    {
      "inputs": [
        {
          "internalType": "address",
          "name": "newDistributor",
          "type": "address"
        }
      ],
      "name": "transferDistributor",
      "outputs": [],
      "stateMutability": "nonpayable",
      "type": "function"
    },
    {
      "inputs": [],
      "name": "pause",
      "outputs": [],
      "stateMutability": "nonpayable",
      "type": "function"
    },
    {
      "inputs": [],
      "name": "unpause",
      "outputs": [],
      "stateMutability": "nonpayable",
      "type": "function"
    }
  ],
  "bytecode": "0x608060405234801561001057600080fd5b50615a28806100206000396000f3fe60806040523480156200001157600080fd5b5060043610620001065760003560e01c8063081e3eda146200010b57806333b10b3c14620001215780633f4ba83a146200013a578063430004c1146200014457806351bdca3e14620001715780635c975abb14620001a4578063613c91af14620001bb578063715018a614620001d25780637c770aae14620001dc5780638456cb5914620001f35780638da5cb5b14620001fd578063bfe109281462000216578063c4d66de8146200022a578063d95a4d931462000241578063e23329081462000255578063e9403256146200026c578063ecb039431462000283578063f2fde38b146200029a578063f9d9331d14620002b1575b600080fd5b609a546040519081526020015b60405180910390f35b62000138620001323660046200180d565b620002dd565b005b62000138620003fe565b6200015b62000155366004620018a7565b6200043e565b6040805192835260208301919091520162000118565b620001886200018236600462001901565b62000577565b6040805193845260208401929092529082015260600162000118565b60335460ff16604051901515815260200162000118565b62000138620001cc3660046200193f565b6200063e565b62000138620006f6565b62000188620001ed36600462001977565b62000736565b6200013862000a5d565b6200020762000a9b565b604051620001189190620019d2565b60985462000207906001600160a01b031681565b620001386200023b366004620019e6565b62000aaa565b60975462000207906001600160a01b031681565b6200013862000266366004620019e6565b62000c69565b620001886200027d366004620019e6565b62000ce7565b620002076200029436600462001a06565b62000da6565b62000138620002ab366004620019e6565b62000dd1565b62000207620002c2366004620019e6565b6099602052600090815260409020546001600160a01b031681565b6098546001600160a01b03163314620002f557600080fd5b60335460ff1615620003245760405162461bcd60e51b81526004016200031b9062001a20565b60405180910390fd5b6001600160a01b03858116600090815260996020526040902054166200034957600080fd5b6001600160a01b038086166000908152609960205260409081902054905162fd125360e81b815291169063fd125300906200038f90879087908790879060040162001a97565b600060405180830381600087803b158015620003aa57600080fd5b505af1158015620003bf573d6000803e3d6000fd5b50506040516001600160a01b03881692507f2ab0d312ec5eef312bf327c57a266c37191bf9c85aeea6c7d67c3a2db9f05bb79150600090a25050505050565b336200040962000a9b565b6001600160a01b031614620004325760405162461bcd60e51b81526004016200031b9062001ac2565b6200043c62000e7a565b565b6000806200044e60335460ff1690565b156200046e5760405162461bcd60e51b81526004016200031b9062001a20565b6001600160a01b03868116600090815260996020526040902054166200049357600080fd5b6001600160a01b038681166000908152609960205260409081902054905163430004c160e01b8152336004820152602481018890528615156044820152858316606482015291169063430004c19060840160408051808303816000875af115801562000503573d6000803e3d6000fd5b505050506040513d601f19601f8201168201806040525081019062000529919062001af7565b60405187815291935091506001600160a01b0387169033907f9b1bfa7fa9ee420a16e124f794c35ac9f90472acc99140eb2f6447c714cad8eb9060200160405180910390a394509492505050565b6001600160a01b03818116600090815260996020526040812054909182918291161562000637576001600160a01b0380851660009081526099602052604090819020549051630103c92b60e01b8152911690630103c92b90620005df908890600401620019d2565b602060405180830381865afa158015620005fd573d6000803e3d6000fd5b505050506040513d601f19601f8201168201806040525081019062000623919062001b1c565b925062000631848462000f0b565b90925090505b9250925092565b6098546001600160a01b031633146200065657600080fd5b6001600160a01b03838116600090815260996020526040902054166200067b57600080fd5b6001600160a01b0383811660009081526099602052604090819020549051631d1b53a960e31b8152600481018590526024810184905291169063e8da9d4890604401600060405180830381600087803b158015620006d857600080fd5b505af1158015620006ed573d6000803e3d6000fd5b50505050505050565b336200070162000a9b565b6001600160a01b0316146200072a5760405162461bcd60e51b81526004016200031b9062001ac2565b6200043c600062001238565b60008060006200074860335460ff1690565b15620007685760405162461bcd60e51b81526004016200031b9062001a20565b6001600160a01b0385811660009081526099602052604090205416620007fb5762000793856200128a565b6001600160a01b0380871660008181526099602052604081208054949093166001600160a01b031994851617909255609a805460018101825592527f44da158ba27f9252712a74ff6a55c5d531f69609f1f6e7f17c4443a8e2089be490910180549092161790555b87156200089c576001600160a01b0380861660009081526099602090815260409182902054825162fc63d160e41b815292516200089c9433949216928d928492630fc63d10926004808401939192918290030181865afa15801562000864573d6000803e3d6000fd5b505050506040513d601f19601f820116820180604052508101906200088a919062001b36565b6001600160a01b031692919062001361565b861562000906576001600160a01b03808616600090815260996020908152604091829020548251635f64b55b60e01b81529251620009069433949216928c928492635f64b55b926004808401939192918290030181865afa15801562000864573d6000803e3d6000fd5b851562000970576001600160a01b0380861660009081526099602090815260409182902054825163452ed4f160e01b81529251620009709433949216928b92849263452ed4f1926004808401939192918290030181865afa15801562000864573d6000803e3d6000fd5b6001600160a01b038581166000908152609960205260409081902054905163fad3cc4b60e01b8152600481018b9052602481018a905260448101899052868316606482015291169063fad3cc4b906084016060604051808303816000875af1158015620009e1573d6000803e3d6000fd5b505050506040513d601f19601f8201168201806040525081019062000a07919062001b56565b60405181815292955090935091506001600160a01b0380871691908616907f5548c837ab068cf56a2c2479df0882a4922fd203edb7517321831d95078c5f629060200160405180910390a3955095509592505050565b3362000a6862000a9b565b6001600160a01b03161462000a915760405162461bcd60e51b81526004016200031b9062001ac2565b6200043c620013c3565b6065546001600160a01b031690565b600054610100900460ff1662000ac75760005460ff161562000ad1565b62000ad16200141f565b62000b365760405162461bcd60e51b815260206004820152602e60248201527f496e697469616c697a61626c653a20636f6e747261637420697320616c72656160448201526d191e481a5b9a5d1a585b1a5e995960921b60648201526084016200031b565b600054610100900460ff1615801562000b59576000805461ffff19166101011790555b62000b6362001432565b62000b6d62001466565b62000b788262001238565b60405162000b869062001786565b604051809103906000f08015801562000ba3573d6000803e3d6000fd5b5060405162000bb29062001794565b62000bbe9190620019d2565b604051809103906000f08015801562000bdb573d6000803e3d6000fd5b50609780546001600160a01b0319166001600160a01b0392909216918217905560405163f2fde38b60e01b815263f2fde38b9062000c1e908590600401620019d2565b600060405180830381600087803b15801562000c3957600080fd5b505af115801562000c4e573d6000803e3d6000fd5b50505050801562000c65576000805461ff00191690555b5050565b3362000c7462000a9b565b6001600160a01b03161462000c9d5760405162461bcd60e51b81526004016200031b9062001ac2565b609880546001600160a01b0319166001600160a01b0383169081179091556040517fe37acc13f5ed9d0cc83c2842e093fe5a494d5b8fb5b1db06356b327081832f5290600090a250565b6001600160a01b03818116600090815260996020526040812054909182918291161562000d9f576001600160a01b03808516600090815260996020908152604091829020548251637d88209760e01b81529251931692637d8820979260048082019392918290030181865afa15801562000d65573d6000803e3d6000fd5b505050506040513d601f19601f8201168201806040525081019062000d8b919062001b1c565b925062000d99848462000f0b565b90925090505b9193909250565b609a818154811062000db757600080fd5b6000918252602090912001546001600160a01b0316905081565b3362000ddc62000a9b565b6001600160a01b03161462000e055760405162461bcd60e51b81526004016200031b9062001ac2565b6001600160a01b03811662000e6c5760405162461bcd60e51b815260206004820152602660248201527f4f776e61626c653a206e6577206f776e657220697320746865207a65726f206160448201526564647265737360d01b60648201526084016200031b565b62000e778162001238565b50565b60335460ff1662000ec55760405162461bcd60e51b815260206004820152601460248201527314185d5cd8589b194e881b9bdd081c185d5cd95960621b60448201526064016200031b565b6033805460ff191690557f5db9ee0a495bf2e6ff9c91a7834c1ba4fdd244a5e8aa4e537bd38aeae4b073aa335b60405162000f019190620019d2565b60405180910390a1565b6001600160a01b0382811660009081526099602052604081205490918291161562001231576001600160a01b03808516600090815260996020908152604080832054815163452ed4f160e01b815291519394169263452ed4f1926004808401939192918290030181865afa15801562000f88573d6000803e3d6000fd5b505050506040513d601f19601f8201168201806040525081019062000fae919062001b36565b90506000816001600160a01b03166318160ddd6040518163ffffffff1660e01b8152600401602060405180830381865afa15801562000ff1573d6000803e3d6000fd5b505050506040513d601f19601f8201168201806040525081019062001017919062001b1c565b6001600160a01b0380881660009081526099602090815260409182902054825162fc63d160e41b815292519495508594931692630fc63d109260048082019392918290030181865afa15801562001072573d6000803e3d6000fd5b505050506040513d601f19601f8201168201806040525081019062001098919062001b36565b6001600160a01b03166370a08231846040518263ffffffff1660e01b8152600401620010c59190620019d2565b602060405180830381865afa158015620010e3573d6000803e3d6000fd5b505050506040513d601f19601f8201168201806040525081019062001109919062001b1c565b62001115908762001b85565b62001121919062001bb3565b6001600160a01b03808816600090815260996020908152604091829020548251635f64b55b60e01b815292519498508594931692635f64b55b9260048082019392918290030181865afa1580156200117d573d6000803e3d6000fd5b505050506040513d601f19601f82011682018060405250810190620011a3919062001b36565b6001600160a01b03166370a08231846040518263ffffffff1660e01b8152600401620011d09190620019d2565b602060405180830381865afa158015620011ee573d6000803e3d6000fd5b505050506040513d601f19601f8201168201806040525081019062001214919062001b1c565b62001220908762001b85565b6200122c919062001bb3565b925050505b9250929050565b606580546001600160a01b038381166001600160a01b0319831681179093556040519116919082907f8be0079c531659141344cd1fd0a4f28419497f9722a3daafe3b4186f6b6457e090600090a35050565b60975460405160009182916001600160a01b039091169063189acdbd60e31b90620012ba908690602401620019d2565b60408051601f198184030181529181526020820180516001600160e01b03166001600160e01b0319909416939093179092529051620012f990620017a2565b6200130692919062001c33565b604051809103906000f08015801562001323573d6000803e3d6000fd5b506040519091506001600160a01b038216907f7fee2c251a158c3c3bcc28f8db26af3c4a0483735c8f254b9aa8a0b5e0b56d0890600090a292915050565b604080516001600160a01b0385811660248301528416604482015260648082018490528251808303909101815260849091019091526020810180516001600160e01b03166323b872dd60e01b179052620013bd9085906200149a565b50505050565b60335460ff1615620013e95760405162461bcd60e51b81526004016200031b9062001a20565b6033805460ff191660011790557f62e78cea01bee320cd4e420270b5ea74000d11b0c9f74754ebdbfc544b05a25862000ef23390565b60006200142c3062001578565b15905090565b600054610100900460ff166200145c5760405162461bcd60e51b81526004016200031b9062001c59565b6200043c62001587565b600054610100900460ff16620014905760405162461bcd60e51b81526004016200031b9062001c59565b6200043c620015bd565b6000620014f1826040518060400160405280602081526020017f5361666545524332303a206c6f772d6c6576656c2063616c6c206661696c6564815250856001600160a01b0316620015f29092919063ffffffff16565b80519091501562001573578080602001905181019062001512919062001ca4565b620015735760405162461bcd60e51b815260206004820152602a60248201527f5361666545524332303a204552433230206f7065726174696f6e20646964206e6044820152691bdd081cdd58d8d9595960b21b60648201526084016200031b565b505050565b6001600160a01b03163b151590565b600054610100900460ff16620015b15760405162461bcd60e51b81526004016200031b9062001c59565b6033805460ff19169055565b600054610100900460ff16620015e75760405162461bcd60e51b81526004016200031b9062001c59565b6200043c3362001238565b60606200160384846000856200160d565b90505b9392505050565b606082471015620016705760405162461bcd60e51b815260206004820152602660248201527f416464726573733a20696e73756666696369656e742062616c616e636520666f6044820152651c8818d85b1b60d21b60648201526084016200031b565b6200167b8562001578565b620016c95760405162461bcd60e51b815260206004820152601d60248201527f416464726573733a2063616c6c20746f206e6f6e2d636f6e747261637400000060448201526064016200031b565b600080866001600160a01b03168587604051620016e7919062001cc4565b60006040518083038185875af1925050503d806000811462001726576040519150601f19603f3d011682016040523d82523d6000602084013e6200172b565b606091505b50915091506200173d82828662001748565b979650505050505050565b606083156200175957508162001606565b8251156200176a5782518084602001fd5b8160405162461bcd60e51b81526004016200031b919062001ce2565b612e728062001cf883390190565b6105238062004b6a83390190565b610966806200508d83390190565b6001600160a01b038116811462000e7757600080fd5b60008083601f840112620017d957600080fd5b5081356001600160401b03811115620017f157600080fd5b6020830191508360208260051b85010111156200123157600080fd5b6000806000806000606086880312156200182657600080fd5b85356200183381620017b0565b945060208601356001600160401b03808211156200185057600080fd5b6200185e89838a01620017c6565b909650945060408801359150808211156200187857600080fd5b506200188788828901620017c6565b969995985093965092949392505050565b801515811462000e7757600080fd5b60008060008060808587031215620018be57600080fd5b8435620018cb81620017b0565b9350602085013592506040850135620018e48162001898565b91506060850135620018f681620017b0565b939692955090935050565b600080604083850312156200191557600080fd5b82356200192281620017b0565b915060208301356200193481620017b0565b809150509250929050565b6000806000606084860312156200195557600080fd5b83356200196281620017b0565b95602085013595506040909401359392505050565b600080600080600060a086880312156200199057600080fd5b8535945060208601359350604086013592506060860135620019b281620017b0565b91506080860135620019c481620017b0565b809150509295509295909350565b6001600160a01b0391909116815260200190565b600060208284031215620019f957600080fd5b81356200160681620017b0565b60006020828403121562001a1957600080fd5b5035919050565b60208082526010908201526f14185d5cd8589b194e881c185d5cd95960821b604082015260600190565b8183526000602080850194508260005b8581101562001a8c57813562001a7081620017b0565b6001600160a01b03168752958201959082019060010162001a5a565b509495945050505050565b60408152600062001aad60408301868862001a4a565b82810360208401526200173d81858762001a4a565b6020808252818101527f4f776e61626c653a2063616c6c6572206973206e6f7420746865206f776e6572604082015260600190565b6000806040838503121562001b0b57600080fd5b505080516020909101519092909150565b60006020828403121562001b2f57600080fd5b5051919050565b60006020828403121562001b4957600080fd5b81516200160681620017b0565b60008060006060848603121562001b6c57600080fd5b8351925060208401519150604084015190509250925092565b600081600019048311821515161562001bae57634e487b7160e01b600052601160045260246000fd5b500290565b60008262001bd157634e487b7160e01b600052601260045260246000fd5b500490565b60005b8381101562001bf357818101518382015260200162001bd9565b83811115620013bd5750506000910152565b6000815180845262001c1f81602086016020860162001bd6565b601f01601f19169290920160200192915050565b6001600160a01b0383168152604060208201819052600090620016039083018462001c05565b6020808252602b908201527f496e697469616c697a61626c653a20636f6e7472616374206973206e6f74206960408201526a6e697469616c697a696e6760a81b606082015260800190565b60006020828403121562001cb757600080fd5b8151620016068162001898565b6000825162001cd881846020870162001bd6565b9190910192915050565b60208152600062001606602083018462001c0556fe60a06040523060805234801561001457600080fd5b506001606855608051612e2861004a600039600081816105ac015281816105f50152818161094b015261098b0152612e286000f3fe6080604052600436106101055760003560e01c80630103c92b1461010a57806306fdde031461013d578063095ea7b31461017c5780630fc63d10146101ac57806318160ddd146101d957806323b872dd146101ef578063313ce5671461020f5780633659cfe614610236578063430004c114610258578063452ed4f11461028d5780634f1ef286146102ad5780635f64b55b146102c057806370a08231146102e05780637d8820971461030d57806395d89b4114610323578063a9059cbb14610352578063c4d66de814610372578063dd62ed3e14610392578063e8da9d48146103ca578063f7c618c1146103ea578063fad3cc4b1461040a578063fd12530014610445575b600080fd5b34801561011657600080fd5b5061012a61012536600461250c565b610465565b6040519081526020015b60405180910390f35b34801561014957600080fd5b5061016f604051806040016040528060068152602001650556e6f2d4c560d41b81525081565b6040516101349190612555565b34801561018857600080fd5b5061019c610197366004612588565b6104f6565b6040519015158152602001610134565b3480156101b857600080fd5b50606b546101cc906001600160a01b031681565b60405161013491906125b4565b3480156101e557600080fd5b5061012a60005481565b3480156101fb57600080fd5b5061019c61020a3660046125c8565b61050c565b34801561021b57600080fd5b50610224601281565b60405160ff9091168152602001610134565b34801561024257600080fd5b5061025661025136600461250c565b6105a1565b005b34801561026457600080fd5b50610278610273366004612617565b610673565b60408051928352602083019190915201610134565b34801561029957600080fd5b50606a546101cc906001600160a01b031681565b6102566102bb3660046126b0565b610940565b3480156102cc57600080fd5b50606c546101cc906001600160a01b031681565b3480156102ec57600080fd5b5061012a6102fb36600461250c565b60016020526000908152604090205481565b34801561031957600080fd5b5061012a60765481565b34801561032f57600080fd5b5061016f604051806040016040528060038152602001620554c560ec1b81525081565b34801561035e57600080fd5b5061019c61036d366004612588565b6109fa565b34801561037e57600080fd5b5061025661038d36600461250c565b610a07565b34801561039e57600080fd5b5061012a6103ad366004612757565b600260209081526000928352604080842090915290825290205481565b3480156103d657600080fd5b506102566103e5366004612790565b610f33565b3480156103f657600080fd5b506069546101cc906001600160a01b031681565b34801561041657600080fd5b5061042a6104253660046127b2565b610f66565b60408051938452602084019290925290820152606001610134565b34801561045157600080fd5b50610256610460366004612833565b611228565b6001600160a01b0381166000908152607560209081526040808320607054845290915281205460ff16156104af57506001600160a01b031660009081526072602052604090205490565b6000546104be57506000919050565b600080546001600160a01b038416825260016020526040909120546076546104e691906128b4565b6104f091906128d3565b92915050565b6000610503338484611742565b50600192915050565b6001600160a01b03831660009081526002602090815260408083203384529091528120546000191461058b576001600160a01b038416600090815260026020908152604080832033845290915290205461056690836117a4565b6001600160a01b03851660009081526002602090815260408083203384529091529020555b6105968484846117b0565b5060015b9392505050565b306001600160a01b037f00000000000000000000000000000000000000000000000000000000000000001614156105f35760405162461bcd60e51b81526004016105ea906128f5565b60405180910390fd5b7f00000000000000000000000000000000000000000000000000000000000000006001600160a01b0316610625611844565b6001600160a01b03161461064b5760405162461bcd60e51b81526004016105ea9061292f565b61065481611860565b604080516000808252602082019092526106709183919061187c565b50565b6000803361067f6119c3565b6001600160a01b03161461069257600080fd5b600260685414156106b55760405162461bcd60e51b81526004016105ea90612969565b600260685584158015906106e057506001600160a01b03861660009081526072602052604090205415155b6106e957600080fd5b6106f2866119d2565b600043606e5411156107135743606e5461070c91906129a0565b9050610725565b600260715461072291906128d3565b90505b60006077548260765461073891906128b4565b61074291906129b7565b9050600061075083896128b4565b61075a90836129a0565b6001600160a01b038a16600090815260726020526040812080549293508a929091906107879084906129a0565b9250508190555087607660008282546107a091906129a0565b9091555050606f5482906107b59083906128b4565b6107bf91906128d3565b606f556107cd83828b611b62565b606d54604051632e1a7d4d60e01b8152600481018a90526001600160a01b0390911690632e1a7d4d90602401600060405180830381600087803b15801561081357600080fd5b505af1158015610827573d6000803e3d6000fd5b50505050861561085757606a54610848906001600160a01b0316878a611c69565b60008094509450505050610930565b606b54606c54600080516020612dd38339815191529163baa2abde916001600160a01b0391821691168b6000808c610891426102586129b7565b60405160e089901b6001600160e01b03191681526001600160a01b039788166004820152958716602487015260448601949094526064850192909252608484015290921660a482015260c481019190915260e40160408051808303816000875af1158015610903573d6000803e3d6000fd5b505050506040513d601f19601f8201168201806040525081019061092791906129cf565b90955093505050505b6001606855909590945092505050565b306001600160a01b037f00000000000000000000000000000000000000000000000000000000000000001614156109895760405162461bcd60e51b81526004016105ea906128f5565b7f00000000000000000000000000000000000000000000000000000000000000006001600160a01b03166109bb611844565b6001600160a01b0316146109e15760405162461bcd60e51b81526004016105ea9061292f565b6109ea82611860565b6109f68282600161187c565b5050565b60006105033384846117b0565b600354610100900460ff16610a225760035460ff1615610a2a565b610a2a611cbf565b610a465760405162461bcd60e51b81526004016105ea906129f3565b600354610100900460ff16158015610a68576003805461ffff19166101011790555b610a70611cd0565b606d80546001600160a01b0319166001600160a01b038416908117909155604080516372f702f360e01b815290516372f702f3916004808201926020929091908290030181865afa158015610ac9573d6000803e3d6000fd5b505050506040513d601f19601f82011682018060405250810190610aed9190612a41565b606a80546001600160a01b0319166001600160a01b03928316179055606d546040805163d1af0c7d60e01b81529051919092169163d1af0c7d9160048083019260209291908290030181865afa158015610b4b573d6000803e3d6000fd5b505050506040513d601f19601f82011682018060405250810190610b6f9190612a41565b606980546001600160a01b0319166001600160a01b03928316179055606a5460408051630dfe168160e01b815290519190921691630dfe16819160048083019260209291908290030181865afa158015610bcd573d6000803e3d6000fd5b505050506040513d601f19601f82011682018060405250810190610bf19190612a41565b606b80546001600160a01b0319166001600160a01b03928316179055606a546040805163d21220a760e01b81529051919092169163d21220a79160048083019260209291908290030181865afa158015610c4f573d6000803e3d6000fd5b505050506040513d601f19601f82011682018060405250810190610c739190612a41565b606c80546001600160a01b0319166001600160a01b03928316179055606a5460405163095ea7b360e01b815260001992919091169063095ea7b390610cbe9086908590600401612a5e565b6020604051808303816000875af1158015610cdd573d6000803e3d6000fd5b505050506040513d601f19601f82011682018060405250810190610d019190612a77565b50606a5460405163095ea7b360e01b81526001600160a01b039091169063095ea7b390610d4290600080516020612dd3833981519152908590600401612a5e565b6020604051808303816000875af1158015610d61573d6000803e3d6000fd5b505050506040513d601f19601f82011682018060405250810190610d859190612a77565b5060695460405163095ea7b360e01b81526001600160a01b039091169063095ea7b390610dc690600080516020612dd3833981519152908590600401612a5e565b6020604051808303816000875af1158015610de5573d6000803e3d6000fd5b505050506040513d601f19601f82011682018060405250810190610e099190612a77565b50606b5460405163095ea7b360e01b81526001600160a01b039091169063095ea7b390610e4a90600080516020612dd3833981519152908590600401612a5e565b6020604051808303816000875af1158015610e69573d6000803e3d6000fd5b505050506040513d601f19601f82011682018060405250810190610e8d9190612a77565b50606c5460405163095ea7b360e01b81526001600160a01b039091169063095ea7b390610ece90600080516020612dd3833981519152908590600401612a5e565b6020604051808303816000875af1158015610eed573d6000803e3d6000fd5b505050506040513d601f19601f82011682018060405250810190610f119190612a77565b50504360705562124f8060715580156109f6576003805461ff00191690555050565b33610f3c6119c3565b6001600160a01b031614610f4f57600080fd5b438111610f5b57600080fd5b606f91909155606e55565b6000808033610f736119c3565b6001600160a01b031614610f8657600080fd5b60026068541415610fa95760405162461bcd60e51b81526004016105ea90612969565b600260685560008715801590610fbf5750600087115b1561106d57606b54606c54600080516020612dd38339815191529163e8e33700916001600160a01b0391821691168b8b60008030610fff426102586129b7565b6040518963ffffffff1660e01b8152600401611022989796959493929190612a94565b6060604051808303816000875af1158015611041573d6000803e3d6000fd5b505050506040513d601f19601f820116820180604052508101906110659190612add565b919550935090505b61107786826129b7565b91506000821161108657600080fd5b61108f856119d2565b600043606e5411156110b05743606e546110a991906129a0565b90506110c2565b60026071546110bf91906128d3565b90505b6000607754826076546110d591906128b4565b6110df91906129b7565b90506000816110ee84876128b4565b6110f891906129b7565b6001600160a01b0389166000908152607260205260408120805492935087929091906111259084906129b7565b92505081905550846076600082825461113e91906129b7565b90915550508115611166578181606f5461115891906128b4565b61116291906128d3565b606f555b61117183828a611d55565b606d5460405163534a7e1d60e11b8152600481018790526001600160a01b039091169063a694fc3a90602401600060405180830381600087803b1580156111b757600080fd5b505af11580156111cb573d6000803e3d6000fd5b505050506111f288888d6111df91906129a0565b606b546001600160a01b03169190611c69565b61121388611200888d6129a0565b606c546001600160a01b03169190611c69565b50506001606855509297919650945092505050565b336112316119c3565b6001600160a01b03161461124457600080fd5b600260685414156112675760405162461bcd60e51b81526004016105ea90612969565b600260685560765461127857600080fd5b606d60009054906101000a90046001600160a01b03166001600160a01b0316633d18b9126040518163ffffffff1660e01b8152600401600060405180830381600087803b1580156112c857600080fd5b505af11580156112dc573d6000803e3d6000fd5b50506069546040516370a0823160e01b815260009350600292506001600160a01b03909116906370a08231906113169030906004016125b4565b602060405180830381865afa158015611333573d6000803e3d6000fd5b505050506040513d601f19601f820116820180604052508101906113579190612b0b565b61136191906128d3565b90506000611371426102586129b7565b606954606b549192506001600160a01b03918216911614611411576040516338ed173960e01b8152600080516020612dd3833981519152906338ed1739906113c89085906000908b908b9030908990600401612b24565b6000604051808303816000875af11580156113e7573d6000803e3d6000fd5b505050506040513d6000823e601f3d908101601f1916820160405261140f9190810190612b97565b505b606954606c546001600160a01b039081169116146114ae576040516338ed173960e01b8152600080516020612dd3833981519152906338ed1739906114659085906000908990899030908990600401612b24565b6000604051808303816000875af1158015611484573d6000803e3d6000fd5b505050506040513d6000823e601f3d908101601f191682016040526114ac9190810190612b97565b505b606b54606c546040516370a0823160e01b8152600080516020612dd38339815191529263e8e33700926001600160a01b039182169291169082906370a08231906114fc9030906004016125b4565b602060405180830381865afa158015611519573d6000803e3d6000fd5b505050506040513d601f19601f8201168201806040525081019061153d9190612b0b565b606c546040516370a0823160e01b81526001600160a01b03909116906370a082319061156d9030906004016125b4565b602060405180830381865afa15801561158a573d6000803e3d6000fd5b505050506040513d601f19601f820116820180604052508101906115ae9190612b0b565b60018030896040518963ffffffff1660e01b81526004016115d6989796959493929190612a94565b6060604051808303816000875af11580156115f5573d6000803e3d6000fd5b505050506040513d601f19601f820116820180604052508101906116199190612add565b5050606a546040516370a0823160e01b8152600092506001600160a01b03909116906370a082319061164f9030906004016125b4565b602060405180830381865afa15801561166c573d6000803e3d6000fd5b505050506040513d601f19601f820116820180604052508101906116909190612b0b565b9050801561170e5780607660008282546116aa91906129b7565b9091555050606d5460405163534a7e1d60e11b8152600481018390526001600160a01b039091169063a694fc3a90602401600060405180830381600087803b1580156116f557600080fd5b505af1158015611709573d6000803e3d6000fd5b505050505b60705461171b90436129a0565b6071819055611730908290610f5b90436129b7565b50504360705550506001606855505050565b6001600160a01b0383811660008181526002602090815260408083209487168084529482529182902085905590518481527f8c5be1e5ebec7d5bd14f71427d1e84f3dd0314c0f7b2291e5b200ac8c7c3b92591015b60405180910390a3505050565b600061059a82846129a0565b6001600160a01b0383166000908152600160205260409020546117d390826117a4565b6001600160a01b0380851660009081526001602052604080822093909355908416815220546118029082611e27565b6001600160a01b038084166000818152600160205260409081902093909355915190851690600080516020612db3833981519152906117979085815260200190565b600080516020612d6c833981519152546001600160a01b031690565b336118696119c3565b6001600160a01b03161461067057600080fd5b6000611886611844565b905061189184611e33565b60008351118061189e5750815b156118af576118ad8484611ec6565b505b7f4910fdfa16fed3260ed0e7147f7cc6da11a60208b5b9406d12a635614ffd9143805460ff166119bc57805460ff1916600117815560405161192a9086906118fb9085906024016125b4565b60408051601f198184030181529190526020810180516001600160e01b0316631b2ce7f360e11b179052611ec6565b50805460ff1916815561193b611844565b6001600160a01b0316826001600160a01b0316146119b35760405162461bcd60e51b815260206004820152602f60248201527f45524331393637557067726164653a207570677261646520627265616b73206660448201526e75727468657220757067726164657360881b60648201526084016105ea565b6119bc85611eeb565b5050505050565b6036546001600160a01b031690565b6001600160a01b0381166000908152607560209081526040808320607054845290915290205460ff1615611a6c576001600160a01b038116600090815260726020908152604080832054607490925290912054611a2f90436129a0565b611a3991906128b4565b6001600160a01b03821660009081526073602052604081208054909190611a619084906129b7565b90915550611ae19050565b611a7581610465565b6001600160a01b0382166000908152607260205260409020819055607054611a9d90436129a0565b611aa791906128b4565b6001600160a01b038216600090815260736020908152604080832093909355607581528282206070548352905220805460ff191660011790555b6070546078541115611b2357607654607854611afd90436129a0565b611b0791906128b4565b60776000828254611b1891906129b7565b90915550611b419050565b607654607054611b3390436129a0565b611b3d91906128b4565b6077555b6001600160a01b031660009081526074602052604090204390819055607855565b6001600160a01b038116600090815260726020526040902054611ba8576001600160a01b038116600090815260016020526040902054611ba3908290611f2b565b505050565b600080546001600160a01b038316825260016020526040909120541415611bce57505050565b6000611bdb848484611fab565b9050611c638282611bee6012600a612d20565b611bf891906129a0565b611c046012600a612d20565b600054611c1190866128b4565b611c1b91906128d3565b6001600160a01b038616600090815260016020526040902054611c3e91906129a0565b611c4a6012600a612d20565b611c5491906128b4565b611c5e91906128d3565b611f2b565b50505050565b611ba38363a9059cbb60e01b8484604051602401611c88929190612a5e565b60408051601f198184030181529190526020810180516001600160e01b03166001600160e01b03199093169290921790915261205e565b6000611cca30612130565b15905090565b600354610100900460ff16611ceb5760035460ff1615611cf3565b611cf3611cbf565b611d0f5760405162461bcd60e51b81526004016105ea906129f3565b600354610100900460ff16158015611d31576003805461ffff19166101011790555b611d3961213f565b611d416121ac565b8015610670576003805461ff001916905550565b600054611d7157611ba381611d6c6012600a612d20565b612233565b600080546001600160a01b038316825260016020526040909120541415611d9757505050565b6000611da4848484611fab565b9050611c638282611db76012600a612d20565b611dc191906129a0565b6001600160a01b038516600090815260016020526040902054611de66012600a612d20565b600054611df390876128b4565b611dfd91906128d3565b611e0791906129a0565b611e136012600a612d20565b611e1d91906128b4565b611d6c91906128d3565b600061059a82846129b7565b803b611e975760405162461bcd60e51b815260206004820152602d60248201527f455243313936373a206e657720696d706c656d656e746174696f6e206973206e60448201526c1bdd08184818dbdb9d1c9858dd609a1b60648201526084016105ea565b600080516020612d6c83398151915280546001600160a01b0319166001600160a01b0392909216919091179055565b606061059a8383604051806060016040528060278152602001612d8c602791396122a4565b611ef481611e33565b6040516001600160a01b038216907fbc7cd75a20ee27fd9adebab32041f755214dbc6bffa90cc0225b39da2e5c2d3b90600090a250565b6001600160a01b038216600090815260016020526040902054611f4e90826117a4565b6001600160a01b03831660009081526001602052604081209190915554611f7590826117a4565b60009081556040518281526001600160a01b03841690600080516020612db3833981519152906020015b60405180910390a35050565b6001600160a01b038116600090815260736020908152604080832054607290925282205482918591611fde9088906128b4565b611fe891906129b7565b606f54611ff591906128b4565b611fff91906128d3565b9050606f5460765461201191906129b7565b6001600160a01b0384166000908152607260205260409020546120359083906129b7565b6120416012600a612d20565b61204b91906128b4565b61205591906128d3565b95945050505050565b60006120b3826040518060400160405280602081526020017f5361666545524332303a206c6f772d6c6576656c2063616c6c206661696c6564815250856001600160a01b03166123789092919063ffffffff16565b805190915015611ba357808060200190518101906120d19190612a77565b611ba35760405162461bcd60e51b815260206004820152602a60248201527f5361666545524332303a204552433230206f7065726174696f6e20646964206e6044820152691bdd081cdd58d8d9595960b21b60648201526084016105ea565b6001600160a01b03163b151590565b600354610100900460ff166121aa5760405162461bcd60e51b815260206004820152602b60248201527f496e697469616c697a61626c653a20636f6e7472616374206973206e6f74206960448201526a6e697469616c697a696e6760a81b60648201526084016105ea565b565b600354610100900460ff166121c75760035460ff16156121cf565b6121cf611cbf565b6121eb5760405162461bcd60e51b81526004016105ea906129f3565b600354610100900460ff1615801561220d576003805461ffff19166101011790555b603680546001600160a01b031916331790558015610670576003805461ff001916905550565b6000546122409082611e27565b60009081556001600160a01b0383168152600160205260409020546122659082611e27565b6001600160a01b038316600081815260016020526040808220939093559151909190600080516020612db383398151915290611f9f9085815260200190565b6060833b6123035760405162461bcd60e51b815260206004820152602660248201527f416464726573733a2064656c65676174652063616c6c20746f206e6f6e2d636f6044820152651b9d1c9858dd60d21b60648201526084016105ea565b600080856001600160a01b03168560405161231e9190612d2f565b600060405180830381855af49150503d8060008114612359576040519150601f19603f3d011682016040523d82523d6000602084013e61235e565b606091505b509150915061236e82828661238f565b9695505050505050565b606061238784846000856123c8565b949350505050565b6060831561239e57508161059a565b8251156123ae5782518084602001fd5b8160405162461bcd60e51b81526004016105ea9190612555565b6060824710156124295760405162461bcd60e51b815260206004820152602660248201527f416464726573733a20696e73756666696369656e742062616c616e636520666f6044820152651c8818d85b1b60d21b60648201526084016105ea565b61243285612130565b61247e5760405162461bcd60e51b815260206004820152601d60248201527f416464726573733a2063616c6c20746f206e6f6e2d636f6e747261637400000060448201526064016105ea565b600080866001600160a01b0316858760405161249a9190612d2f565b60006040518083038185875af1925050503d80600081146124d7576040519150601f19603f3d011682016040523d82523d6000602084013e6124dc565b606091505b50915091506124ec82828661238f565b979650505050505050565b6001600160a01b038116811461067057600080fd5b60006020828403121561251e57600080fd5b813561059a816124f7565b60005b8381101561254457818101518382015260200161252c565b83811115611c635750506000910152565b6020815260008251806020840152612574816040850160208701612529565b601f01601f19169190910160400192915050565b6000806040838503121561259b57600080fd5b82356125a6816124f7565b946020939093013593505050565b6001600160a01b0391909116815260200190565b6000806000606084860312156125dd57600080fd5b83356125e8816124f7565b925060208401356125f8816124f7565b929592945050506040919091013590565b801515811461067057600080fd5b6000806000806080858703121561262d57600080fd5b8435612638816124f7565b935060208501359250604085013561264f81612609565b9150606085013561265f816124f7565b939692955090935050565b634e487b7160e01b600052604160045260246000fd5b604051601f8201601f191681016001600160401b03811182821017156126a8576126a861266a565b604052919050565b600080604083850312156126c357600080fd5b82356126ce816124f7565b91506020838101356001600160401b03808211156126eb57600080fd5b818601915086601f8301126126ff57600080fd5b8135818111156127115761271161266a565b612723601f8201601f19168501612680565b9150808252878482850101111561273957600080fd5b80848401858401376000848284010152508093505050509250929050565b6000806040838503121561276a57600080fd5b8235612775816124f7565b91506020830135612785816124f7565b809150509250929050565b600080604083850312156127a357600080fd5b50508035926020909101359150565b600080600080608085870312156127c857600080fd5b843593506020850135925060408501359150606085013561265f816124f7565b60008083601f8401126127fa57600080fd5b5081356001600160401b0381111561281157600080fd5b6020830191508360208260051b850101111561282c57600080fd5b9250929050565b6000806000806040858703121561284957600080fd5b84356001600160401b038082111561286057600080fd5b61286c888389016127e8565b9096509450602087013591508082111561288557600080fd5b50612892878288016127e8565b95989497509550505050565b634e487b7160e01b600052601160045260246000fd5b60008160001904831182151516156128ce576128ce61289e565b500290565b6000826128f057634e487b7160e01b600052601260045260246000fd5b500490565b6020808252602c90820152600080516020612d4c83398151915260408201526b19195b1959d85d1958d85b1b60a21b606082015260800190565b6020808252602c90820152600080516020612d4c83398151915260408201526b6163746976652070726f787960a01b606082015260800190565b6020808252601f908201527f5265656e7472616e637947756172643a207265656e7472616e742063616c6c00604082015260600190565b6000828210156129b2576129b261289e565b500390565b600082198211156129ca576129ca61289e565b500190565b600080604083850312156129e257600080fd5b505080516020909101519092909150565b6020808252602e908201527f496e697469616c697a61626c653a20636f6e747261637420697320616c72656160408201526d191e481a5b9a5d1a585b1a5e995960921b606082015260800190565b600060208284031215612a5357600080fd5b815161059a816124f7565b6001600160a01b03929092168252602082015260400190565b600060208284031215612a8957600080fd5b815161059a81612609565b6001600160a01b039889168152968816602088015260408701959095526060860193909352608085019190915260a084015290921660c082015260e08101919091526101000190565b600080600060608486031215612af257600080fd5b8351925060208401519150604084015190509250925092565b600060208284031215612b1d57600080fd5b5051919050565b868152602080820187905260a0604083018190528201859052600090869060c08401835b88811015612b76578335612b5b816124f7565b6001600160a01b031682529282019290820190600101612b48565b506001600160a01b0396909616606085015250505060800152949350505050565b60006020808385031215612baa57600080fd5b82516001600160401b0380821115612bc157600080fd5b818501915085601f830112612bd557600080fd5b815181811115612be757612be761266a565b8060051b9150612bf8848301612680565b8181529183018401918481019088841115612c1257600080fd5b938501935b83851015612c3057845182529385019390850190612c17565b98975050505050505050565b600181815b80851115612c77578160001904821115612c5d57612c5d61289e565b80851615612c6a57918102915b93841c9390800290612c41565b509250929050565b600082612c8e575060016104f0565b81612c9b575060006104f0565b8160018114612cb15760028114612cbb57612cd7565b60019150506104f0565b60ff841115612ccc57612ccc61289e565b50506001821b6104f0565b5060208310610133831016604e8410600b8410161715612cfa575081810a6104f0565b612d048383612c3c565b8060001904821115612d1857612d1861289e565b029392505050565b600061059a60ff841683612c7f565b60008251612d41818460208701612529565b919091019291505056fe46756e6374696f6e206d7573742062652063616c6c6564207468726f75676820360894a13ba1a3210667c828492db98dca3e2076cc3735a920a3ca505d382bbc416464726573733a206c6f772d6c6576656c2064656c65676174652063616c6c206661696c6564ddf252ad1be2c89b69c2b068fc378daa952ba7f163c4a11628f55a4df523b3ef000000000000000000000000a5e0829caced8ffdd4de3c43696c57f7d7a678ffa2646970667358221220acecb7c16010ccaa4bbbdc9805c7a4880a4b1a733d8064cde1baddd822526d5864736f6c634300080a0033608060405234801561001057600080fd5b5060405161052338038061052383398101604081905261002f91610148565b61003833610047565b61004181610097565b50610178565b600080546001600160a01b038381166001600160a01b0319831681178455604051919092169283917f8be0079c531659141344cd1fd0a4f28419497f9722a3daafe3b4186f6b6457e09190a35050565b6100aa8161014260201b61021f1760201c565b6101205760405162461bcd60e51b815260206004820152603360248201527f5570677261646561626c65426561636f6e3a20696d706c656d656e746174696f60448201527f6e206973206e6f74206120636f6e747261637400000000000000000000000000606482015260840160405180910390fd5b600180546001600160a01b0319166001600160a01b0392909216919091179055565b3b151590565b60006020828403121561015a57600080fd5b81516001600160a01b038116811461017157600080fd5b9392505050565b61039c806101876000396000f3fe608060405234801561001057600080fd5b50600436106100575760003560e01c80633659cfe61461005c5780635c60da1b14610071578063715018a61461009a5780638da5cb5b146100a2578063f2fde38b146100aa575b600080fd5b61006f61006a366004610301565b6100bd565b005b6001546001600160a01b03165b6040516001600160a01b03909116815260200160405180910390f35b61006f610135565b61007e610170565b61006f6100b8366004610301565b61017f565b336100c6610170565b6001600160a01b0316146100f55760405162461bcd60e51b81526004016100ec90610331565b60405180910390fd5b6100fe81610225565b6040516001600160a01b038216907fbc7cd75a20ee27fd9adebab32041f755214dbc6bffa90cc0225b39da2e5c2d3b90600090a250565b3361013e610170565b6001600160a01b0316146101645760405162461bcd60e51b81526004016100ec90610331565b61016e60006102b1565b565b6000546001600160a01b031690565b33610188610170565b6001600160a01b0316146101ae5760405162461bcd60e51b81526004016100ec90610331565b6001600160a01b0381166102135760405162461bcd60e51b815260206004820152602660248201527f4f776e61626c653a206e6577206f776e657220697320746865207a65726f206160448201526564647265737360d01b60648201526084016100ec565b61021c816102b1565b50565b3b151590565b803b61028f5760405162461bcd60e51b815260206004820152603360248201527f5570677261646561626c65426561636f6e3a20696d706c656d656e746174696f6044820152721b881a5cc81b9bdd08184818dbdb9d1c9858dd606a1b60648201526084016100ec565b600180546001600160a01b0319166001600160a01b0392909216919091179055565b600080546001600160a01b038381166001600160a01b0319831681178455604051919092169283917f8be0079c531659141344cd1fd0a4f28419497f9722a3daafe3b4186f6b6457e09190a35050565b60006020828403121561031357600080fd5b81356001600160a01b038116811461032a57600080fd5b9392505050565b6020808252818101527f4f776e61626c653a2063616c6c6572206973206e6f7420746865206f776e657260408201526060019056fea2646970667358221220d3d4a860e145913f032ee28b0976994c159bea78f64580a84c890ece6cd002a064736f6c634300080a0033608060405260405161096638038061096683398101604081905261002291610479565b61004d60017fa3f0ad74e5423aebfd80d3ef4346578335a9a72aeaee59ff6cb3582b35133d51610539565b60008051602061091f833981519152146100695761006961055e565b6100758282600061007c565b50506105de565b61008583610147565b6040516001600160a01b038416907f1cf3b03a6cf19fa2baba4df148e9dcabedea7f8a5c07840e207e5c089be95d3e90600090a26000825111806100c65750805b1561014257610140836001600160a01b0316635c60da1b6040518163ffffffff1660e01b8152600401602060405180830381865afa15801561010c573d6000803e3d6000fd5b505050506040513d601f19601f820116820180604052508101906101309190610574565b836102d860201b6100291760201c565b505b505050565b61015a8161030460201b6100551760201c565b6101b95760405162461bcd60e51b815260206004820152602560248201527f455243313936373a206e657720626561636f6e206973206e6f74206120636f6e6044820152641d1c9858dd60da1b60648201526084015b60405180910390fd5b61022d816001600160a01b0316635c60da1b6040518163ffffffff1660e01b8152600401602060405180830381865afa1580156101fa573d6000803e3d6000fd5b505050506040513d601f19601f8201168201806040525081019061021e9190610574565b61030460201b6100551760201c565b6102925760405162461bcd60e51b815260206004820152603060248201527f455243313936373a20626561636f6e20696d706c656d656e746174696f6e206960448201526f1cc81b9bdd08184818dbdb9d1c9858dd60821b60648201526084016101b0565b806102b760008051602061091f83398151915260001b61030a60201b61005b1760201c565b80546001600160a01b0319166001600160a01b039290921691909117905550565b60606102fd838360405180606001604052806027815260200161093f6027913961030d565b9392505050565b3b151590565b90565b6060833b61036c5760405162461bcd60e51b815260206004820152602660248201527f416464726573733a2064656c65676174652063616c6c20746f206e6f6e2d636f6044820152651b9d1c9858dd60d21b60648201526084016101b0565b600080856001600160a01b031685604051610387919061058f565b600060405180830381855af49150503d80600081146103c2576040519150601f19603f3d011682016040523d82523d6000602084013e6103c7565b606091505b5090925090506103d88282866103e2565b9695505050505050565b606083156103f15750816102fd565b8251156104015782518084602001fd5b8160405162461bcd60e51b81526004016101b091906105ab565b80516001600160a01b038116811461043257600080fd5b919050565b634e487b7160e01b600052604160045260246000fd5b60005b83811015610468578181015183820152602001610450565b838111156101405750506000910152565b6000806040838503121561048c57600080fd5b6104958361041b565b60208401519092506001600160401b03808211156104b257600080fd5b818501915085601f8301126104c657600080fd5b8151818111156104d8576104d8610437565b604051601f8201601f19908116603f0116810190838211818310171561050057610500610437565b8160405282815288602084870101111561051957600080fd5b61052a83602083016020880161044d565b80955050505050509250929050565b60008282101561055957634e487b7160e01b600052601160045260246000fd5b500390565b634e487b7160e01b600052600160045260246000fd5b60006020828403121561058657600080fd5b6102fd8261041b565b600082516105a181846020870161044d565b9190910192915050565b60208152600082518060208401526105ca81604085016020870161044d565b601f01601f19169190910160400192915050565b610332806105ed6000396000f3fe60806040523661001357610011610017565b005b6100115b61002761002261005e565b6100f7565b565b606061004e83836040518060600160405280602781526020016102d66027913961011b565b9392505050565b3b151590565b90565b60006100917fa3f0ad74e5423aebfd80d3ef4346578335a9a72aeaee59ff6cb3582b35133d50546001600160a01b031690565b6001600160a01b0316635c60da1b6040518163ffffffff1660e01b8152600401602060405180830381865afa1580156100ce573d6000803e3d6000fd5b505050506040513d601f19601f820116820180604052508101906100f2919061022d565b905090565b3660008037600080366000845af43d6000803e808015610116573d6000f35b3d6000fd5b6060833b61017f5760405162461bcd60e51b815260206004820152602660248201527f416464726573733a2064656c65676174652063616c6c20746f206e6f6e2d636f6044820152651b9d1c9858dd60d21b60648201526084015b60405180910390fd5b600080856001600160a01b03168560405161019a9190610286565b600060405180830381855af49150503d80600081146101d5576040519150601f19603f3d011682016040523d82523d6000602084013e6101da565b606091505b50915091506101ea8282866101f4565b9695505050505050565b6060831561020357508161004e565b8251156102135782518084602001fd5b8160405162461bcd60e51b815260040161017691906102a2565b60006020828403121561023f57600080fd5b81516001600160a01b038116811461004e57600080fd5b60005b83811015610271578181015183820152602001610259565b83811115610280576000848401525b50505050565b60008251610298818460208701610256565b9190910192915050565b60208152600082518060208401526102c1816040850160208701610256565b601f01601f1916919091016040019291505056fe416464726573733a206c6f772d6c6576656c2064656c65676174652063616c6c206661696c6564a26469706673582212208258630b867c85c689d251b2a041426fe5ea464e3b306f1e4e2dfe296d3f9c3864736f6c634300080a0033a3f0ad74e5423aebfd80d3ef4346578335a9a72aeaee59ff6cb3582b35133d50416464726573733a206c6f772d6c6576656c2064656c65676174652063616c6c206661696c6564a26469706673582212207a931010d16e93aebdd6d857185803f7e7ab8f3c33081867bc498f6bd7eecc2864736f6c634300080a0033",
  "immutableReferences": {},
  "source": "// SPDX-License-Identifier: MIT\r\npragma solidity 0.8.10;\r\npragma experimental ABIEncoderV2;\r\n\r\nimport {QuickswapFarmUpgradeable as Farm, IERC20, IERC20Upgradeable, SafeERC20Upgradeable, Initializable} from \"./farms/QuickswapFarmUpgradeable.sol\";\r\n\r\nimport \"@openzeppelin/contracts/proxy/beacon/UpgradeableBeacon.sol\";\r\nimport \"@openzeppelin/contracts/proxy/beacon/BeaconProxy.sol\";\r\nimport \"@openzeppelin/contracts-upgradeable/security/PausableUpgradeable.sol\";\r\nimport \"@openzeppelin/contracts-upgradeable/access/OwnableUpgradeable.sol\";\r\n\r\ncontract QuickswapFarmFactoryBeacon is Initializable, PausableUpgradeable, OwnableUpgradeable {\r\n    using SafeERC20Upgradeable for IERC20Upgradeable;\r\n\r\n    /**\r\n     * @dev Contract Variables:\r\n     * farmBeacon - Farm contract implementation.\r\n     *\r\n     * distributor - Address authorized to make distributions.\r\n     * Farms - links {lpPools} to the deployed Farm contract.\r\n     * lpPools - list of pools that have corresponding deployed Farm contract.\r\n     */\r\n    address public farmBeacon;\r\n\r\n    address public distributor;\r\n    mapping(address => Farm) public Farms;\r\n    address[] public lpPools;\r\n\r\n    event FarmDeployed(address indexed farmAddress);\r\n    event Deposit(address indexed sender, address indexed lpPool, uint256 amount);\r\n    event Withdraw(address indexed sender, address indexed lpPool, uint256 amount);\r\n    event Distribute(address indexed lpPool);\r\n    event DistributorChanged(address indexed newDistributor);\r\n\r\n    modifier distributorOnly(){\r\n        require(msg.sender == distributor);\r\n        _;\r\n    }\r\n\r\n    // ============ Methods ============\r\n\r\n    function initialize(address upgrader) external initializer {\r\n        __Pausable_init();\r\n        __Ownable_init();\r\n        _transferOwnership(upgrader);\r\n        farmBeacon = address(new UpgradeableBeacon(\r\n            address(new Farm())\r\n        ));\r\n        UpgradeableBeacon(farmBeacon).transferOwnership(upgrader);\r\n    }\r\n\r\n    /**\r\n     * @dev Deposits tokens in the given pool. Creates new Farm contract if there isn't one deployed for the lpPair and deposits tokens.\r\n     * @param amountA  - Token A amount to deposit.\r\n     * @param amountB -  Token B amount to deposit.\r\n     * @param amountLP - LP Token amount to deposit.\r\n     * @param lpStakingPool - Address of the pool to deposit tokens in.\r\n     * @param recipient - Address which will recieve the deposit and leftover tokens.\r\n     \r\n     * @return sentA - Token A amount sent to the farm.\r\n     * @return sentB - Token B amount sent to the farm.\r\n     * @return liquidity - Total liquidity sent to the farm (in lpTokens).\r\n     */\r\n    function deposit(uint256 amountA, uint256 amountB, uint256 amountLP, address lpStakingPool, address recipient) external whenNotPaused returns(uint256 sentA, uint256 sentB, uint256 liquidity){\r\n        if(Farms[lpStakingPool] == Farm(address(0))){\r\n            Farms[lpStakingPool] = Farm(createFarm(lpStakingPool));\r\n            lpPools.push(lpStakingPool);\r\n        }\r\n\r\n        if(amountA > 0){\r\n            IERC20Upgradeable(Farms[lpStakingPool].tokenA()).safeTransferFrom(msg.sender, address(Farms[lpStakingPool]), amountA);\r\n        }\r\n        if(amountB > 0){\r\n            IERC20Upgradeable(Farms[lpStakingPool].tokenB()).safeTransferFrom(msg.sender, address(Farms[lpStakingPool]), amountB);\r\n        }\r\n        if(amountLP > 0){\r\n            IERC20Upgradeable(Farms[lpStakingPool].lpPair()).safeTransferFrom(msg.sender, address(Farms[lpStakingPool]), amountLP);\r\n        }\r\n        \r\n       (sentA, sentB, liquidity) = Farms[lpStakingPool].deposit(amountA, amountB, amountLP, recipient); \r\n        emit Deposit(recipient, lpStakingPool, liquidity); \r\n    }\r\n\r\n    /** \r\n     * @dev Withdraws tokens from the given pool. \r\n     * @param lpStakingPool - LP pool to withdraw from.\r\n     * @param amount - LP amount to withdraw. \r\n     * @param withdrawLP - True: Withdraw in LP tokens, False: Withdraw in normal tokens.\r\n     * @param recipient - The address which will recieve tokens.\r\n\r\n     * @return amountA - Token A amount sent to the {recipient}, 0 if withdrawLP == false.\r\n     * @return amountB - Token B amount sent to the {recipient}, 0 if withdrawLP == false.\r\n     */ \r\n    function withdraw(address lpStakingPool, uint256 amount, bool withdrawLP, address recipient) external whenNotPaused returns(uint256 amountA, uint256 amountB){\r\n        require(Farms[lpStakingPool] != Farm(address(0)));\r\n        (amountA, amountB) = Farms[lpStakingPool].withdraw(msg.sender, amount, withdrawLP, recipient); \r\n        emit Withdraw(msg.sender, lpStakingPool, amount);  \r\n    }\r\n\r\n    /**\r\n     * @dev Sets expected reward amount and block for token distribution calculations.\r\n     * @param lpStakingPool - LP pool to check total deposits in.\r\n     * @param expectedReward - New reward amount.\r\n     * @param expectedRewardBlock - New reward block.\r\n     *\r\n     * Note: This function can only be called by the distributor.\r\n     */  \r\n    function setExpectedReward(address lpStakingPool, uint256 expectedReward, uint256 expectedRewardBlock) external distributorOnly {\r\n        require(Farms[lpStakingPool] != Farm(address(0)));\r\n        Farms[lpStakingPool].setExpectedReward(expectedReward, expectedRewardBlock); \r\n    }\r\n\r\n    /**\r\n     * @dev Distributes tokens between users.\r\n     * @param lpStakingPool - LP pool to distribute tokens in.\r\n     * @param rewardTokenToTokenARoute An array of token addresses.\r\n     * @param rewardTokenToTokenBRoute An array of token addresses.\r\n     *\r\n     * Note: This function can only be called by the distributor.\r\n     */ \r\n    function distribute(\r\n        address lpStakingPool,\r\n        address[] calldata rewardTokenToTokenARoute, \r\n        address[] calldata rewardTokenToTokenBRoute\r\n    ) external distributorOnly whenNotPaused {\r\n        require(Farms[lpStakingPool] != Farm(address(0)));\r\n\r\n        Farms[lpStakingPool].distribute(rewardTokenToTokenARoute, rewardTokenToTokenBRoute);\r\n        emit Distribute(lpStakingPool);\r\n    }\r\n\r\n    /**\r\n     * @dev Returns tokens staked by the {_address} for the given {lpPair}.\r\n     * @param _address - The address to check stakes for.\r\n     * @param lpStakingPool - LP pool to check stakes in.\r\n\r\n     * @return stakeLP - Total user stake(in LP tokens).\r\n     * @return stakeA - Token A stake.\r\n     * @return stakeB - Token B stake.\r\n     */\r\n    function userStake(address _address, address lpStakingPool) external view returns (uint256 stakeLP, uint256 stakeA, uint256 stakeB) {\r\n        if (Farms[lpStakingPool] != Farm(address(0))) {\r\n            stakeLP =  Farms[lpStakingPool].userBalance(_address);\r\n            (stakeA, stakeB) = getTokenStake(lpStakingPool, stakeLP);\r\n        }\r\n    }\r\n\r\n    /**\r\n     * @dev Returns total amount locked in the pool. Doesn't take pending rewards into account.\r\n     * @param lpStakingPool - LP pool to check total deposits in.\r\n\r\n     * @return totalDepositsLP - Total deposits (in LP tokens).\r\n     * @return totalDepositsA - Token A deposits.\r\n     * @return totalDepositsB - Token B deposits.\r\n     */  \r\n    function totalDeposits(address lpStakingPool) external view returns (uint256 totalDepositsLP, uint256 totalDepositsA, uint256 totalDepositsB) {\r\n        if (Farms[lpStakingPool] != Farm(address(0))) {\r\n            totalDepositsLP = Farms[lpStakingPool].totalDeposits();\r\n            (totalDepositsA, totalDepositsB) = getTokenStake(lpStakingPool, totalDepositsLP);\r\n        }\r\n    }\r\n\r\n    function poolLength() external view returns (uint256) {\r\n        return lpPools.length;\r\n    }\r\n\r\n    function transferDistributor(address newDistributor) external onlyOwner {\r\n        distributor = newDistributor;\r\n        emit DistributorChanged(newDistributor);\r\n    }\r\n\r\n    function pause() external onlyOwner {\r\n        _pause();\r\n    }\r\n\r\n    function unpause() external onlyOwner {\r\n        _unpause();\r\n    }\r\n\r\n    /**\r\n     * @dev Converts LP tokens to normal tokens, value(amountA) == value(amountB) == 0.5*amountLP\r\n     * @param lpStakingPool - LP pool to check total deposits in.\r\n     * @param amountLP - Amount of LP tokens to convert.\r\n\r\n     * @return amountA - Token A amount.\r\n     * @return amountB - Token B amount.\r\n     */ \r\n    function getTokenStake(address lpStakingPool, uint256 amountLP) internal view returns (uint256 amountA, uint256 amountB) {\r\n        if (Farms[lpStakingPool] != Farm(address(0))) {\r\n            address lpPair = Farms[lpStakingPool].lpPair();\r\n            uint256 totalSupply = IERC20(lpPair).totalSupply();\r\n            amountA = amountLP * IERC20(Farms[lpStakingPool].tokenA()).balanceOf(lpPair) / totalSupply;\r\n            amountB = amountLP * IERC20(Farms[lpStakingPool].tokenB()).balanceOf(lpPair) / totalSupply;\r\n        }\r\n    }\r\n    \r\n    /**\r\n     * @dev Deploys new Farm contract and calls initialize on it.\r\n     */\r\n    function createFarm(address lpStakingPool) internal returns (address) {\r\n        BeaconProxy proxy = new BeaconProxy(\r\n            farmBeacon,\r\n            abi.encodeWithSelector(\r\n                Farm(address(0)).initialize.selector,\r\n                lpStakingPool\r\n            )\r\n        );\r\n        emit FarmDeployed(address(proxy));\r\n        return address(proxy);\r\n    }\r\n}\r\n",
  "sourcePath": "C:\\Users\\jugli\\Desktop\\uno\\uno-contracts-branch\\contracts\\QuickswapFarmFactoryBeacon.sol",
  "compiler": {
    "name": "solc",
    "version": "0.8.10+commit.fc410830.Emscripten.clang"
  },
  "schemaVersion": "3.4.7",
  "updatedAt": "2022-05-09T09:02:59.738Z",
  "devdoc": {
    "kind": "dev",
    "methods": {
      "deposit(uint256,uint256,uint256,address,address)": {
        "details": "Deposits tokens in the given pool. Creates new Farm contract if there isn't one deployed for the lpPair and deposits tokens.",
        "params": {
          "amountA": "- Token A amount to deposit.",
          "amountB": "-  Token B amount to deposit.",
          "amountLP": "- LP Token amount to deposit.",
          "lpStakingPool": "- Address of the pool to deposit tokens in.",
          "recipient": "- Address which will recieve the deposit and leftover tokens."
        },
        "returns": {
          "liquidity": "- Total liquidity sent to the farm (in lpTokens).",
          "sentA": "- Token A amount sent to the farm.",
          "sentB": "- Token B amount sent to the farm."
        }
      },
      "distribute(address,address[],address[])": {
        "details": "Distributes tokens between users.",
        "params": {
          "lpStakingPool": "- LP pool to distribute tokens in.",
          "rewardTokenToTokenARoute": "An array of token addresses.",
          "rewardTokenToTokenBRoute": "An array of token addresses. Note: This function can only be called by the distributor."
        }
      },
      "owner()": {
        "details": "Returns the address of the current owner."
      },
      "paused()": {
        "details": "Returns true if the contract is paused, and false otherwise."
      },
      "renounceOwnership()": {
        "details": "Leaves the contract without owner. It will not be possible to call `onlyOwner` functions anymore. Can only be called by the current owner. NOTE: Renouncing ownership will leave the contract without an owner, thereby removing any functionality that is only available to the owner."
      },
      "setExpectedReward(address,uint256,uint256)": {
        "details": "Sets expected reward amount and block for token distribution calculations.",
        "params": {
          "expectedReward": "- New reward amount.",
          "expectedRewardBlock": "- New reward block. Note: This function can only be called by the distributor.",
          "lpStakingPool": "- LP pool to check total deposits in."
        }
      },
      "totalDeposits(address)": {
        "details": "Returns total amount locked in the pool. Doesn't take pending rewards into account.",
        "params": {
          "lpStakingPool": "- LP pool to check total deposits in."
        },
        "returns": {
          "totalDepositsA": "- Token A deposits.",
          "totalDepositsB": "- Token B deposits.",
          "totalDepositsLP": "- Total deposits (in LP tokens)."
        }
      },
      "transferOwnership(address)": {
        "details": "Transfers ownership of the contract to a new account (`newOwner`). Can only be called by the current owner."
      },
      "userStake(address,address)": {
        "details": "Returns tokens staked by the {_address} for the given {lpPair}.",
        "params": {
          "_address": "- The address to check stakes for.",
          "lpStakingPool": "- LP pool to check stakes in."
        },
        "returns": {
          "stakeA": "- Token A stake.",
          "stakeB": "- Token B stake.",
          "stakeLP": "- Total user stake(in LP tokens)."
        }
      },
      "withdraw(address,uint256,bool,address)": {
        "details": "Withdraws tokens from the given pool. ",
        "params": {
          "amount": "- LP amount to withdraw. ",
          "lpStakingPool": "- LP pool to withdraw from.",
          "recipient": "- The address which will recieve tokens.",
          "withdrawLP": "- True: Withdraw in LP tokens, False: Withdraw in normal tokens."
        },
        "returns": {
          "amountA": "- Token A amount sent to the {recipient}, 0 if withdrawLP == false.",
          "amountB": "- Token B amount sent to the {recipient}, 0 if withdrawLP == false."
        }
      }
    },
    "stateVariables": {
      "farmBeacon": {
        "details": "Contract Variables: farmBeacon - Farm contract implementation. distributor - Address authorized to make distributions. Farms - links {lpPools} to the deployed Farm contract. lpPools - list of pools that have corresponding deployed Farm contract."
      }
    },
    "version": 1
  },
  "userdoc": {
    "kind": "user",
    "methods": {},
    "version": 1
  }
}