{
  "contractName": "QuickswapDualFarmFactoryBeacon",
  "abi": [
    {
      "anonymous": false,
      "inputs": [
        {
          "indexed": false,
          "internalType": "address",
          "name": "sender",
          "type": "address"
        },
        {
          "indexed": false,
          "internalType": "address",
          "name": "lpPair",
          "type": "address"
        },
        {
          "indexed": false,
          "internalType": "uint256",
          "name": "amount",
          "type": "uint256"
        }
      ],
      "name": "Deposit",
      "type": "event"
    },
    {
      "anonymous": false,
      "inputs": [
        {
          "indexed": false,
          "internalType": "address",
          "name": "lpPair",
          "type": "address"
        }
      ],
      "name": "Distribute",
      "type": "event"
    },
    {
      "anonymous": false,
      "inputs": [
        {
          "indexed": false,
          "internalType": "address",
          "name": "farmAddress",
          "type": "address"
        }
      ],
      "name": "FarmDeployed",
      "type": "event"
    },
    {
      "anonymous": false,
      "inputs": [
        {
          "indexed": false,
          "internalType": "address",
          "name": "sender",
          "type": "address"
        },
        {
          "indexed": false,
          "internalType": "address",
          "name": "lpPair",
          "type": "address"
        },
        {
          "indexed": false,
          "internalType": "uint256",
          "name": "amount",
          "type": "uint256"
        }
      ],
      "name": "Withdraw",
      "type": "event"
    },
    {
      "inputs": [
        {
          "internalType": "address",
          "name": "",
          "type": "address"
        }
      ],
      "name": "Farms",
      "outputs": [
        {
          "internalType": "contract QuickswapDualFarmUpgradeable",
          "name": "",
          "type": "address"
        }
      ],
      "stateMutability": "view",
      "type": "function"
    },
    {
      "inputs": [],
      "name": "farmBeacon",
      "outputs": [
        {
          "internalType": "address",
          "name": "",
          "type": "address"
        }
      ],
      "stateMutability": "view",
      "type": "function"
    },
    {
      "inputs": [
        {
          "internalType": "uint256",
          "name": "",
          "type": "uint256"
        }
      ],
      "name": "lpStakingPools",
      "outputs": [
        {
          "internalType": "address",
          "name": "",
          "type": "address"
        }
      ],
      "stateMutability": "view",
      "type": "function"
    },
    {
      "inputs": [
        {
          "internalType": "address",
          "name": "upgrader",
          "type": "address"
        }
      ],
      "name": "initialize",
      "outputs": [],
      "stateMutability": "nonpayable",
      "type": "function"
    },
    {
      "inputs": [
        {
          "internalType": "uint256",
          "name": "amountA",
          "type": "uint256"
        },
        {
          "internalType": "uint256",
          "name": "amountB",
          "type": "uint256"
        },
        {
          "internalType": "uint256",
          "name": "amountLP",
          "type": "uint256"
        },
        {
          "internalType": "address",
          "name": "lpStakingPool",
          "type": "address"
        }
      ],
      "name": "deposit",
      "outputs": [],
      "stateMutability": "nonpayable",
      "type": "function"
    },
    {
      "inputs": [
        {
          "internalType": "address",
          "name": "lpStakingPool",
          "type": "address"
        },
        {
          "internalType": "bool",
          "name": "withdrawLP",
          "type": "bool"
        }
      ],
      "name": "withdraw",
      "outputs": [],
      "stateMutability": "nonpayable",
      "type": "function"
    },
    {
      "inputs": [
        {
          "internalType": "address",
          "name": "lpStakingPool",
          "type": "address"
        }
      ],
      "name": "distribute",
      "outputs": [],
      "stateMutability": "nonpayable",
      "type": "function"
    },
    {
      "inputs": [
        {
          "internalType": "address",
          "name": "_address",
          "type": "address"
        },
        {
          "internalType": "address",
          "name": "lpStakingPool",
          "type": "address"
        }
      ],
      "name": "userStake",
      "outputs": [
        {
          "internalType": "uint256",
          "name": "lpStake",
          "type": "uint256"
        },
        {
          "internalType": "uint256",
          "name": "token0Stake",
          "type": "uint256"
        },
        {
          "internalType": "uint256",
          "name": "token1Stake",
          "type": "uint256"
        }
      ],
      "stateMutability": "view",
      "type": "function"
    },
    {
      "inputs": [
        {
          "internalType": "address",
          "name": "lpStakingPool",
          "type": "address"
        }
      ],
      "name": "totalDeposits",
      "outputs": [
        {
          "internalType": "uint256",
          "name": "",
          "type": "uint256"
        }
      ],
      "stateMutability": "view",
      "type": "function"
    },
    {
      "inputs": [],
      "name": "poolLength",
      "outputs": [
        {
          "internalType": "uint256",
          "name": "",
          "type": "uint256"
        }
      ],
      "stateMutability": "view",
      "type": "function"
    }
  ],
  "bytecode": "0x608060405234801561001057600080fd5b50614fb2806100206000396000f3fe60806040523480156200001157600080fd5b5060043610620000ab5760003560e01c8063c4d66de8116200006e578063c4d66de8146200015a578063d95a4d931462000171578063e9403256146200018b578063f9d9331d14620001a2578063fad3cc4b14620001ce57600080fd5b8063081e3eda14620000b057806351bdca3e14620000c75780635437e40114620000fa57806363453ae11462000113578063c06027ee146200012a575b600080fd5b6002545b6040519081526020015b60405180910390f35b620000de620000d836600462001066565b620001e5565b60408051938452602084019290925290820152606001620000be565b620001116200010b366004620010b3565b620005a2565b005b6200011162000124366004620010e6565b620006db565b620001416200013b36600462001106565b620007ee565b6040516001600160a01b039091168152602001620000be565b620001116200016b366004620010e6565b62000819565b60005462000141906201000090046001600160a01b031681565b620000b46200019c366004620010e6565b620009c6565b62000141620001b3366004620010e6565b6001602052600090815260409020546001600160a01b031681565b62000111620001df36600462001120565b62000a74565b6001600160a01b03818116600090815260016020526040812054909182918291161562000591576001600160a01b0384811660009081526001602052604090819020549051630103c92b60e01b81528783166004820152911690630103c92b90602401602060405180830381865afa15801562000266573d6000803e3d6000fd5b505050506040513d601f19601f820116820180604052508101906200028c919062001164565b6001600160a01b03808616600090815260016020908152604080832054815163452ed4f160e01b815291519598509294929093169263452ed4f192600480830193928290030181865afa158015620002e8573d6000803e3d6000fd5b505050506040513d601f19601f820116820180604052508101906200030e91906200117e565b90506000816001600160a01b03166318160ddd6040518163ffffffff1660e01b8152600401602060405180830381865afa15801562000351573d6000803e3d6000fd5b505050506040513d601f19601f8201168201806040525081019062000377919062001164565b6001600160a01b03808816600090815260016020908152604080832054815162fc63d160e41b8152915195965092949290931692630fc63d1092600480830193928290030181865afa158015620003d2573d6000803e3d6000fd5b505050506040513d601f19601f82011682018060405250810190620003f891906200117e565b6040516370a0823160e01b81526001600160a01b03858116600483015291909116906370a0823190602401602060405180830381865afa15801562000441573d6000803e3d6000fd5b505050506040513d601f19601f8201168201806040525081019062000467919062001164565b905062000481826200047a888462000f2a565b9062000f3f565b6001600160a01b038089166000908152600160209081526040808320548151635f64b55b60e01b81529151959a5092949290931692635f64b55b92600480830193928290030181865afa158015620004dd573d6000803e3d6000fd5b505050506040513d601f19601f820116820180604052508101906200050391906200117e565b6040516370a0823160e01b81526001600160a01b03868116600483015291909116906370a0823190602401602060405180830381865afa1580156200054c573d6000803e3d6000fd5b505050506040513d601f19601f8201168201806040525081019062000572919062001164565b905062000585836200047a898462000f2a565b9450505050506200059b565b5060009150819050805b9250925092565b6001600160a01b03828116600090815260016020526040902054166200060f5760405162461bcd60e51b815260206004820152601b60248201527f54686520676976656e20706f6f6c20646f65736e74206578697374000000000060448201526064015b60405180910390fd5b6001600160a01b03828116600090815260016020526040808220549051635437e40160e01b8152336004820152841515602482015291921690635437e401906044016020604051808303816000875af115801562000671573d6000803e3d6000fd5b505050506040513d601f19601f8201168201806040525081019062000697919062001164565b90507f9b1bfa7fa9ee420a16e124f794c35ac9f90472acc99140eb2f6447c714cad8eb338483604051620006ce939291906200119e565b60405180910390a1505050565b6001600160a01b0381811660009081526001602052604090205416620007445760405162461bcd60e51b815260206004820152601b60248201527f54686520676976656e20706f6f6c20646f65736e742065786973740000000000604482015260640162000606565b6001600160a01b0380821660009081526001602052604080822054815163e4fc6b6d60e01b8152915193169263e4fc6b6d9260048084019391929182900301818387803b1580156200079557600080fd5b505af1158015620007aa573d6000803e3d6000fd5b50506040516001600160a01b03841681527f2ab0d312ec5eef312bf327c57a266c37191bf9c85aeea6c7d67c3a2db9f05bb79250602001905060405180910390a150565b60028181548110620007ff57600080fd5b6000918252602090912001546001600160a01b0316905081565b600054610100900460ff168062000833575060005460ff16155b620008985760405162461bcd60e51b815260206004820152602e60248201527f496e697469616c697a61626c653a20636f6e747261637420697320616c72656160448201526d191e481a5b9a5d1a585b1a5e995960921b606482015260840162000606565b600054610100900460ff16158015620008bb576000805461ffff19166101011790555b6000604051620008cb9062001023565b604051809103906000f080158015620008e8573d6000803e3d6000fd5b50604051620008f79062001031565b6001600160a01b039091168152602001604051809103906000f08015801562000924573d6000803e3d6000fd5b5060405163f2fde38b60e01b81526001600160a01b0385811660048301529192509082169063f2fde38b90602401600060405180830381600087803b1580156200096d57600080fd5b505af115801562000982573d6000803e3d6000fd5b5050600080546001600160a01b03909416620100000262010000600160b01b03199094169390931790925550508015620009c2576000805461ff00191690555b5050565b6001600160a01b038181166000908152600160205260408120549091161562000a6c576001600160a01b03808316600090815260016020908152604091829020548251630b45241160e11b8152925193169263168a48229260048082019392918290030181865afa15801562000a40573d6000803e3d6000fd5b505050506040513d601f19601f8201168201806040525081019062000a66919062001164565b92915050565b506000919050565b6001600160a01b038181166000908152600160205260409020541662000b085762000a9f8162000f4d565b6001600160a01b03808316600081815260016020819052604082208054959094166001600160a01b03199586161790935560028054938401815590527f405787fa12a823e0f2b7631cc41b3ba8828b3321ca811111fa75cd3aa3bb5ace90910180549092161790555b831562000c1f576001600160a01b03808216600090815260016020908152604080832054815162fc63d160e41b8152915193941692630fc63d10926004808401939192918290030181865afa15801562000b66573d6000803e3d6000fd5b505050506040513d601f19601f8201168201806040525081019062000b8c91906200117e565b6001600160a01b03838116600090815260016020526040908190205490516323b872dd60e01b8152929350818416926323b872dd9262000bd69233929116908a906004016200119e565b6020604051808303816000875af115801562000bf6573d6000803e3d6000fd5b505050506040513d601f19601f8201168201806040525081019062000c1c9190620011c2565b50505b821562000d37576001600160a01b038082166000908152600160209081526040808320548151635f64b55b60e01b8152915193941692635f64b55b926004808401939192918290030181865afa15801562000c7e573d6000803e3d6000fd5b505050506040513d601f19601f8201168201806040525081019062000ca491906200117e565b6001600160a01b03838116600090815260016020526040908190205490516323b872dd60e01b8152929350818416926323b872dd9262000cee92339291169089906004016200119e565b6020604051808303816000875af115801562000d0e573d6000803e3d6000fd5b505050506040513d601f19601f8201168201806040525081019062000d349190620011c2565b50505b811562000e4f576001600160a01b03808216600090815260016020908152604080832054815163452ed4f160e01b815291519394169263452ed4f1926004808401939192918290030181865afa15801562000d96573d6000803e3d6000fd5b505050506040513d601f19601f8201168201806040525081019062000dbc91906200117e565b6001600160a01b03838116600090815260016020526040908190205490516323b872dd60e01b8152929350818416926323b872dd9262000e0692339291169088906004016200119e565b6020604051808303816000875af115801562000e26573d6000803e3d6000fd5b505050506040513d601f19601f8201168201806040525081019062000e4c9190620011c2565b50505b6001600160a01b0381811660009081526001602052604080822054905163fad3cc4b60e01b81526004810188905260248101879052604481018690523360648201529192169063fad3cc4b906084016020604051808303816000875af115801562000ebe573d6000803e3d6000fd5b505050506040513d601f19601f8201168201806040525081019062000ee4919062001164565b90507f5548c837ab068cf56a2c2479df0882a4922fd203edb7517321831d95078c5f6233838360405162000f1b939291906200119e565b60405180910390a15050505050565b600062000f388284620011e2565b9392505050565b600062000f38828462001210565b60008054604080516001600160a01b0385811660248301523060448084019190915283518084039091018152606490920183526020820180516001600160e01b031663485cc95560e01b179052915184936201000090049092169162000fb3906200103f565b62000fc092919062001233565b604051809103906000f08015801562000fdd573d6000803e3d6000fd5b506040516001600160a01b03821681529091507f7fee2c251a158c3c3bcc28f8db26af3c4a0483735c8f254b9aa8a0b5e0b56d089060200160405180910390a192915050565b612e6d806200129c83390190565b61050e806200410983390190565b610966806200461783390190565b6001600160a01b03811681146200106357600080fd5b50565b600080604083850312156200107a57600080fd5b823562001087816200104d565b9150602083013562001099816200104d565b809150509250929050565b80151581146200106357600080fd5b60008060408385031215620010c757600080fd5b8235620010d4816200104d565b915060208301356200109981620010a4565b600060208284031215620010f957600080fd5b813562000f38816200104d565b6000602082840312156200111957600080fd5b5035919050565b600080600080608085870312156200113757600080fd5b843593506020850135925060408501359150606085013562001159816200104d565b939692955090935050565b6000602082840312156200117757600080fd5b5051919050565b6000602082840312156200119157600080fd5b815162000f38816200104d565b6001600160a01b039384168152919092166020820152604081019190915260600190565b600060208284031215620011d557600080fd5b815162000f3881620010a4565b60008160001904831182151516156200120b57634e487b7160e01b600052601160045260246000fd5b500290565b6000826200122e57634e487b7160e01b600052601260045260246000fd5b500490565b60018060a01b038316815260006020604081840152835180604085015260005b81811015620012715785810183015185820160600152820162001253565b8181111562001284576000606083870101525b50601f01601f19169290920160600194935050505056fe60a06040523060805234801561001457600080fd5b506001606555608051612e2361004a600039600081816103c10152818161040a015281816111c501526112050152612e236000f3fe6080604052600436106100f35760003560e01c80635f64b55b1161008a578063aa7b83e311610059578063aa7b83e314610280578063e4fc6b6d146102a0578063f2fde38b146102b5578063fad3cc4b146102d557600080fd5b80635f64b55b1461020d5780636b8ba92c1461022d578063715018a61461024d5780638da5cb5b1461026257600080fd5b8063452ed4f1116100c6578063452ed4f11461019a578063485cc955146101ba5780634f1ef286146101da5780635437e401146101ed57600080fd5b80630103c92b146100f85780630fc63d101461012b578063168a4822146101635780633659cfe614610178575b600080fd5b34801561010457600080fd5b50610118610113366004612783565b6102f5565b6040519081526020015b60405180910390f35b34801561013757600080fd5b50606a5461014b906001600160a01b031681565b6040516001600160a01b039091168152602001610122565b34801561016f57600080fd5b50610118610380565b34801561018457600080fd5b50610198610193366004612783565b6103b6565b005b3480156101a657600080fd5b5060695461014b906001600160a01b031681565b3480156101c657600080fd5b506101986101d53660046127a0565b610488565b6101986101e8366004612820565b6111ba565b3480156101f957600080fd5b506101186102083660046128d6565b611274565b34801561021957600080fd5b50606b5461014b906001600160a01b031681565b34801561023957600080fd5b5060675461014b906001600160a01b031681565b34801561025957600080fd5b50610198611546565b34801561026e57600080fd5b506033546001600160a01b031661014b565b34801561028c57600080fd5b5060685461014b906001600160a01b031681565b3480156102ac57600080fd5b5061019861157c565b3480156102c157600080fd5b506101986102d0366004612783565b611c95565b3480156102e157600080fd5b506101186102f0366004612904565b611d2d565b6001600160a01b038116600090815260746020526040812054607254829161035391670de0b6b3a76400009161034d9161032e916120be565b6001600160a01b038716600090815260736020526040902054906120ca565b906120d6565b6001600160a01b03841660009081526073602052604090205490915061037990826120e2565b9392505050565b60006103b16103a8670de0b6b3a764000061034d6072546071546120ca90919063ffffffff16565b607154906120e2565b905090565b306001600160a01b037f00000000000000000000000000000000000000000000000000000000000000001614156104085760405162461bcd60e51b81526004016103ff90612945565b60405180910390fd5b7f00000000000000000000000000000000000000000000000000000000000000006001600160a01b031661043a6120ee565b6001600160a01b0316146104605760405162461bcd60e51b81526004016103ff90612991565b6104698161211c565b6040805160008082526020820190925261048591839190612146565b50565b600054610100900460ff16806104a1575060005460ff16155b6104bd5760405162461bcd60e51b81526004016103ff906129dd565b600054610100900460ff161580156104df576000805461ffff19166101011790555b6104e7612291565b6104f082611c95565b606c80546001600160a01b0319166001600160a01b038516908117909155604080516372f702f360e01b815290516372f702f3916004808201926020929091908290030181865afa158015610549573d6000803e3d6000fd5b505050506040513d601f19601f8201168201806040525081019061056d9190612a2b565b606980546001600160a01b0319166001600160a01b03928316179055606c54604080516317f4408360e21b815290519190921691635fd1020c9160048083019260209291908290030181865afa1580156105cb573d6000803e3d6000fd5b505050506040513d601f19601f820116820180604052508101906105ef9190612a2b565b606780546001600160a01b0319166001600160a01b03928316179055606c5460408051634462633360e11b8152905191909216916388c4c6669160048083019260209291908290030181865afa15801561064d573d6000803e3d6000fd5b505050506040513d601f19601f820116820180604052508101906106719190612a2b565b606880546001600160a01b0319166001600160a01b0392831617905560695460408051630dfe168160e01b815290519190921691630dfe16819160048083019260209291908290030181865afa1580156106cf573d6000803e3d6000fd5b505050506040513d601f19601f820116820180604052508101906106f39190612a2b565b606a80546001600160a01b0319166001600160a01b039283161790556069546040805163d21220a760e01b81529051919092169163d21220a79160048083019260209291908290030181865afa158015610751573d6000803e3d6000fd5b505050506040513d601f19601f820116820180604052508101906107759190612a2b565b606b80546001600160a01b0319166001600160a01b03928316179055606a54600080516020612dce8339815191529116141561082657604080518082019091526067546001600160a01b03168152600080516020612dce83398151915260208201526107e590606d9060026126f4565b50604080518082019091526068546001600160a01b03168152600080516020612dce833981519152602082015261082090606f9060026126f4565b50610b00565b606754606a546001600160a01b0390811691161461099657606a5460405163e6a4390560e01b8152600080516020612dce83398151915260048201526001600160a01b039091166024820152600090735757371414417b8c6caad45baef941abc7d3ab329063e6a4390590604401602060405180830381865afa1580156108b1573d6000803e3d6000fd5b505050506040513d601f19601f820116820180604052508101906108d59190612a2b565b6001600160a01b0316141561094d57604080516080810182526067546001600160a01b039081168252600080516020612dce833981519152602083015273831753dd7087cac61ab5644b308642cc1c33dc1392820192909252606a54909116606082015261094790606d9060046126f4565b50610996565b604080516060810182526067546001600160a01b039081168252600080516020612dce8339815191526020830152606a54169181019190915261099490606d9060036126f4565b505b606854606a546001600160a01b03908116911614610b0057606a5460405163e6a4390560e01b8152600080516020612dce83398151915260048201526001600160a01b039091166024820152600090735757371414417b8c6caad45baef941abc7d3ab329063e6a4390590604401602060405180830381865afa158015610a21573d6000803e3d6000fd5b505050506040513d601f19601f82011682018060405250810190610a459190612a2b565b6001600160a01b03161415610ab757604080516080810182526068546001600160a01b039081168252600080516020612dce833981519152602083015273831753dd7087cac61ab5644b308642cc1c33dc1392820192909252606a54909116606082015261082090606f9060046126f4565b604080516060810182526068546001600160a01b039081168252600080516020612dce8339815191526020830152606a541691810191909152610afe90606f9060036126f4565b505b606b546001600160a01b0316600080516020612dce8339815191521415610b9c57604080518082019091526067546001600160a01b03168152600080516020612dce8339815191526020820152610b5b90606e9060026126f4565b50604080518082019091526068546001600160a01b03168152600080516020612dce8339815191526020820152610b969060709060026126f4565b50610e76565b606754606b546001600160a01b03908116911614610d0c57606b5460405163e6a4390560e01b8152600080516020612dce83398151915260048201526001600160a01b039091166024820152600090735757371414417b8c6caad45baef941abc7d3ab329063e6a4390590604401602060405180830381865afa158015610c27573d6000803e3d6000fd5b505050506040513d601f19601f82011682018060405250810190610c4b9190612a2b565b6001600160a01b03161415610cc357604080516080810182526067546001600160a01b039081168252600080516020612dce833981519152602083015273831753dd7087cac61ab5644b308642cc1c33dc1392820192909252606b549091166060820152610cbd90606e9060046126f4565b50610d0c565b604080516060810182526067546001600160a01b039081168252600080516020612dce8339815191526020830152606b541691810191909152610d0a90606e9060036126f4565b505b606854606b546001600160a01b03908116911614610e7657606b5460405163e6a4390560e01b8152600080516020612dce83398151915260048201526001600160a01b039091166024820152600090735757371414417b8c6caad45baef941abc7d3ab329063e6a4390590604401602060405180830381865afa158015610d97573d6000803e3d6000fd5b505050506040513d601f19601f82011682018060405250810190610dbb9190612a2b565b6001600160a01b03161415610e2d57604080516080810182526068546001600160a01b039081168252600080516020612dce833981519152602083015273831753dd7087cac61ab5644b308642cc1c33dc1392820192909252606b549091166060820152610b969060709060046126f4565b604080516060810182526068546001600160a01b039081168252600080516020612dce8339815191526020830152606b541691810191909152610e749060709060036126f4565b505b60695460405163095ea7b360e01b81526001600160a01b0385811660048301526000196024830181905292169063095ea7b3906044016020604051808303816000875af1158015610ecb573d6000803e3d6000fd5b505050506040513d601f19601f82011682018060405250810190610eef9190612a48565b5060695460405163095ea7b360e01b815273a5e0829caced8ffdd4de3c43696c57f7d7a678ff6004820152602481018390526001600160a01b039091169063095ea7b3906044016020604051808303816000875af1158015610f55573d6000803e3d6000fd5b505050506040513d601f19601f82011682018060405250810190610f799190612a48565b5060675460405163095ea7b360e01b815273a5e0829caced8ffdd4de3c43696c57f7d7a678ff6004820152602481018390526001600160a01b039091169063095ea7b3906044016020604051808303816000875af1158015610fdf573d6000803e3d6000fd5b505050506040513d601f19601f820116820180604052508101906110039190612a48565b5060685460405163095ea7b360e01b815273a5e0829caced8ffdd4de3c43696c57f7d7a678ff6004820152602481018390526001600160a01b039091169063095ea7b3906044016020604051808303816000875af1158015611069573d6000803e3d6000fd5b505050506040513d601f19601f8201168201806040525081019061108d9190612a48565b50606a5460405163095ea7b360e01b815273a5e0829caced8ffdd4de3c43696c57f7d7a678ff6004820152602481018390526001600160a01b039091169063095ea7b3906044016020604051808303816000875af11580156110f3573d6000803e3d6000fd5b505050506040513d601f19601f820116820180604052508101906111179190612a48565b50606b5460405163095ea7b360e01b815273a5e0829caced8ffdd4de3c43696c57f7d7a678ff6004820152602481018390526001600160a01b039091169063095ea7b3906044016020604051808303816000875af115801561117d573d6000803e3d6000fd5b505050506040513d601f19601f820116820180604052508101906111a19190612a48565b505080156111b5576000805461ff00191690555b505050565b306001600160a01b037f00000000000000000000000000000000000000000000000000000000000000001614156112035760405162461bcd60e51b81526004016103ff90612945565b7f00000000000000000000000000000000000000000000000000000000000000006001600160a01b03166112356120ee565b6001600160a01b03161461125b5760405162461bcd60e51b81526004016103ff90612991565b6112648261211c565b61127082826001612146565b5050565b6033546000906001600160a01b031633146112a15760405162461bcd60e51b81526004016103ff90612a65565b6001600160a01b038316600090815260666020526040902054839043811080156112ca57508015155b61132e5760405162461bcd60e51b815260206004820152602f60248201527f43616e27742063616c6c206d756c7469706c652066756e6374696f6e73206f6e60448201526e207468652073616d6520626c6f636b60881b60648201526084016103ff565b600260655414156113515760405162461bcd60e51b81526004016103ff90612a9a565b60026065556001600160a01b0385166000908152607360205260409020546113cb5760405162461bcd60e51b815260206004820152602760248201527f54686520616d6f756e74207374616b65642073686f756c64206265206d6f72656044820152660207468616e20360cc1b60648201526084016103ff565b60006113d68661230c565b9050841561145d5760695460405163a9059cbb60e01b81526001600160a01b038881166004830152602482018490529091169063a9059cbb906044016020604051808303816000875af1158015611431573d6000803e3d6000fd5b505050506040513d601f19601f820116820180604052508101906114559190612a48565b509250611539565b606a54606b5473a5e0829caced8ffdd4de3c43696c57f7d7a678ff9163baa2abde916001600160a01b039182169116846000808c61149d426102586120e2565b60405160e089901b6001600160e01b03191681526001600160a01b039788166004820152958716602487015260448601949094526064850192909252608484015290921660a482015260c481019190915260e40160408051808303816000875af115801561150f573d6000803e3d6000fd5b505050506040513d601f19601f820116820180604052508101906115339190612ad1565b50909350505b5050600160655592915050565b6033546001600160a01b031633146115705760405162461bcd60e51b81526004016103ff90612a65565b61157a60006123c1565b565b6033546001600160a01b031633146115a65760405162461bcd60e51b81526004016103ff90612a65565b600260655414156115c95760405162461bcd60e51b81526004016103ff90612a9a565b600260655560715461162d5760405162461bcd60e51b815260206004820152602760248201527f54686572652073686f756c6420626520736f6d6520746f6b656e7320696e20746044820152661a19481c1bdbdb60ca1b60648201526084016103ff565b606c60009054906101000a90046001600160a01b03166001600160a01b0316633d18b9126040518163ffffffff1660e01b8152600401600060405180830381600087803b15801561167d57600080fd5b505af1158015611691573d6000803e3d6000fd5b50506067546040516370a0823160e01b81523060048201526000935061170a92506002916001600160a01b0316906370a08231906024015b602060405180830381865afa1580156116e6573d6000803e3d6000fd5b505050506040513d601f19601f8201168201806040525081019061034d9190612af5565b6068546040516370a0823160e01b8152306004820152919250600091611747916002916001600160a01b03909116906370a08231906024016116c9565b606754606a549192506001600160a01b039182169116146117f75773a5e0829caced8ffdd4de3c43696c57f7d7a678ff6338ed1739836000606d3061178e426102586120e2565b6040518663ffffffff1660e01b81526004016117ae959493929190612b0e565b6000604051808303816000875af11580156117cd573d6000803e3d6000fd5b505050506040513d6000823e601f3d908101601f191682016040526117f59190810190612b84565b505b606754606b546001600160a01b039081169116146118a45773a5e0829caced8ffdd4de3c43696c57f7d7a678ff6338ed1739836000606e3061183b426102586120e2565b6040518663ffffffff1660e01b815260040161185b959493929190612b0e565b6000604051808303816000875af115801561187a573d6000803e3d6000fd5b505050506040513d6000823e601f3d908101601f191682016040526118a29190810190612b84565b505b606854606a546001600160a01b039081169116146119515773a5e0829caced8ffdd4de3c43696c57f7d7a678ff6338ed1739826000606f306118e8426102586120e2565b6040518663ffffffff1660e01b8152600401611908959493929190612b0e565b6000604051808303816000875af1158015611927573d6000803e3d6000fd5b505050506040513d6000823e601f3d908101601f1916820160405261194f9190810190612b84565b505b606854606b546001600160a01b039081169116146119fe5773a5e0829caced8ffdd4de3c43696c57f7d7a678ff6338ed1739826000607030611995426102586120e2565b6040518663ffffffff1660e01b81526004016119b5959493929190612b0e565b6000604051808303816000875af11580156119d4573d6000803e3d6000fd5b505050506040513d6000823e601f3d908101601f191682016040526119fc9190810190612b84565b505b606a546040516370a0823160e01b81523060048201526000916001600160a01b0316906370a0823190602401602060405180830381865afa158015611a47573d6000803e3d6000fd5b505050506040513d601f19601f82011682018060405250810190611a6b9190612af5565b606b546040516370a0823160e01b81523060048201529192506000916001600160a01b03909116906370a0823190602401602060405180830381865afa158015611ab9573d6000803e3d6000fd5b505050506040513d601f19601f82011682018060405250810190611add9190612af5565b606a54606b5491925073a5e0829caced8ffdd4de3c43696c57f7d7a678ff9163e8e33700916001600160a01b039081169116858560018030611b21426102586120e2565b6040518963ffffffff1660e01b8152600401611b44989796959493929190612c2a565b6060604051808303816000875af1158015611b63573d6000803e3d6000fd5b505050506040513d601f19601f82011682018060405250810190611b879190612c73565b50506069546040516370a0823160e01b8152306004820152600092506001600160a01b03909116906370a0823190602401602060405180830381865afa158015611bd5573d6000803e3d6000fd5b505050506040513d601f19601f82011682018060405250810190611bf99190612af5565b90508015611c8957607154611c2790611c1e9061034d670de0b6b3a7640000856120ca565b607254906120e2565b607255606c5460405163534a7e1d60e11b8152600481018390526001600160a01b039091169063a694fc3a90602401600060405180830381600087803b158015611c7057600080fd5b505af1158015611c84573d6000803e3d6000fd5b505050505b50506001606555505050565b6033546001600160a01b03163314611cbf5760405162461bcd60e51b81526004016103ff90612a65565b6001600160a01b038116611d245760405162461bcd60e51b815260206004820152602660248201527f4f776e61626c653a206e6577206f776e657220697320746865207a65726f206160448201526564647265737360d01b60648201526084016103ff565b610485816123c1565b6033546000906001600160a01b03163314611d5a5760405162461bcd60e51b81526004016103ff90612a65565b6001600160a01b0382166000908152606660205260409020439055606554829060021415611d9a5760405162461bcd60e51b81526004016103ff90612a9a565b60026065556001600160a01b03831660009081526073602052604081205415611dc957611dc68461230c565b90505b6000806000808a118015611ddd5750600089115b15611e9157606a54606b5473a5e0829caced8ffdd4de3c43696c57f7d7a678ff9163e8e33700916001600160a01b0391821691168d8d60008030611e23426102586120e2565b6040518963ffffffff1660e01b8152600401611e46989796959493929190612c2a565b6060604051808303816000875af1158015611e65573d6000803e3d6000fd5b505050506040513d601f19601f82011682018060405250810190611e899190612c73565b919450925090505b6000611ea789611ea184886120e2565b906120e2565b905060008111611ef95760405162461bcd60e51b815260206004820152601860248201527f54686520616d6f756e742070726f76696465642069732030000000000000000060448201526064016103ff565b6001600160a01b0388166000908152607360209081526040808320849055607254607490925290912055607154611f3090826120e2565b607155606c5460405163534a7e1d60e11b8152600481018390526001600160a01b039091169063a694fc3a90602401600060405180830381600087803b158015611f7957600080fd5b505af1158015611f8d573d6000803e3d6000fd5b5050606a546001600160a01b0316915063a9059cbb905089611faf8e886120be565b6040516001600160e01b031960e085901b1681526001600160a01b03909216600483015260248201526044016020604051808303816000875af1158015611ffa573d6000803e3d6000fd5b505050506040513d601f19601f8201168201806040525081019061201e9190612a48565b50606b546001600160a01b031663a9059cbb8961203b8d876120be565b6040516001600160e01b031960e085901b1681526001600160a01b03909216600483015260248201526044016020604051808303816000875af1158015612086573d6000803e3d6000fd5b505050506040513d601f19601f820116820180604052508101906120aa9190612a48565b5060016065559a9950505050505050505050565b60006103798284612cb7565b60006103798284612cce565b60006103798284612ced565b60006103798284612d0f565b7f360894a13ba1a3210667c828492db98dca3e2076cc3735a920a3ca505d382bbc546001600160a01b031690565b6033546001600160a01b031633146104855760405162461bcd60e51b81526004016103ff90612a65565b60006121506120ee565b905061215b84612413565b6000835111806121685750815b156121795761217784846124b8565b505b7f4910fdfa16fed3260ed0e7147f7cc6da11a60208b5b9406d12a635614ffd9143805460ff1661228a57805460ff191660011781556040516001600160a01b03831660248201526121f890869060440160408051601f198184030181529190526020810180516001600160e01b0316631b2ce7f360e11b1790526124b8565b50805460ff191681556122096120ee565b6001600160a01b0316826001600160a01b0316146122815760405162461bcd60e51b815260206004820152602f60248201527f45524331393637557067726164653a207570677261646520627265616b73206660448201526e75727468657220757067726164657360881b60648201526084016103ff565b61228a856124dd565b5050505050565b600054610100900460ff16806122aa575060005460ff16155b6122c65760405162461bcd60e51b81526004016103ff906129dd565b600054610100900460ff161580156122e8576000805461ffff19166101011790555b6122f061251d565b6122f8612587565b8015610485576000805461ff001916905550565b600080612318836102f5565b6001600160a01b03841660009081526073602052604090205460715491925061234191906120be565b607155606c54604051632e1a7d4d60e01b8152600481018390526001600160a01b0390911690632e1a7d4d90602401600060405180830381600087803b15801561238a57600080fd5b505af115801561239e573d6000803e3d6000fd5b5050506001600160a01b0390931660009081526073602052604081205592915050565b603380546001600160a01b038381166001600160a01b0319831681179093556040519116919082907f8be0079c531659141344cd1fd0a4f28419497f9722a3daafe3b4186f6b6457e090600090a35050565b803b6124775760405162461bcd60e51b815260206004820152602d60248201527f455243313936373a206e657720696d706c656d656e746174696f6e206973206e60448201526c1bdd08184818dbdb9d1c9858dd609a1b60648201526084016103ff565b7f360894a13ba1a3210667c828492db98dca3e2076cc3735a920a3ca505d382bbc80546001600160a01b0319166001600160a01b0392909216919091179055565b60606103798383604051806060016040528060278152602001612da7602791396125e7565b6124e681612413565b6040516001600160a01b038216907fbc7cd75a20ee27fd9adebab32041f755214dbc6bffa90cc0225b39da2e5c2d3b90600090a250565b600054610100900460ff1680612536575060005460ff16155b6125525760405162461bcd60e51b81526004016103ff906129dd565b600054610100900460ff161580156122f8576000805461ffff19166101011790558015610485576000805461ff001916905550565b600054610100900460ff16806125a0575060005460ff16155b6125bc5760405162461bcd60e51b81526004016103ff906129dd565b600054610100900460ff161580156125de576000805461ffff19166101011790555b6122f8336123c1565b6060833b6126465760405162461bcd60e51b815260206004820152602660248201527f416464726573733a2064656c65676174652063616c6c20746f206e6f6e2d636f6044820152651b9d1c9858dd60d21b60648201526084016103ff565b600080856001600160a01b0316856040516126619190612d57565b600060405180830381855af49150503d806000811461269c576040519150601f19603f3d011682016040523d82523d6000602084013e6126a1565b606091505b50915091506126b18282866126bb565b9695505050505050565b606083156126ca575081610379565b8251156126da5782518084602001fd5b8160405162461bcd60e51b81526004016103ff9190612d73565b828054828255906000526020600020908101928215612749579160200282015b8281111561274957825182546001600160a01b0319166001600160a01b03909116178255602090920191600190910190612714565b50612755929150612759565b5090565b5b80821115612755576000815560010161275a565b6001600160a01b038116811461048557600080fd5b60006020828403121561279557600080fd5b81356103798161276e565b600080604083850312156127b357600080fd5b82356127be8161276e565b915060208301356127ce8161276e565b809150509250929050565b634e487b7160e01b600052604160045260246000fd5b604051601f8201601f1916810167ffffffffffffffff81118282101715612818576128186127d9565b604052919050565b6000806040838503121561283357600080fd5b823561283e8161276e565b915060208381013567ffffffffffffffff8082111561285c57600080fd5b818601915086601f83011261287057600080fd5b813581811115612882576128826127d9565b612894601f8201601f191685016127ef565b915080825287848285010111156128aa57600080fd5b80848401858401376000848284010152508093505050509250929050565b801515811461048557600080fd5b600080604083850312156128e957600080fd5b82356128f48161276e565b915060208301356127ce816128c8565b6000806000806080858703121561291a57600080fd5b843593506020850135925060408501359150606085013561293a8161276e565b939692955090935050565b6020808252602c908201527f46756e6374696f6e206d7573742062652063616c6c6564207468726f7567682060408201526b19195b1959d85d1958d85b1b60a21b606082015260800190565b6020808252602c908201527f46756e6374696f6e206d7573742062652063616c6c6564207468726f7567682060408201526b6163746976652070726f787960a01b606082015260800190565b6020808252602e908201527f496e697469616c697a61626c653a20636f6e747261637420697320616c72656160408201526d191e481a5b9a5d1a585b1a5e995960921b606082015260800190565b600060208284031215612a3d57600080fd5b81516103798161276e565b600060208284031215612a5a57600080fd5b8151610379816128c8565b6020808252818101527f4f776e61626c653a2063616c6c6572206973206e6f7420746865206f776e6572604082015260600190565b6020808252601f908201527f5265656e7472616e637947756172643a207265656e7472616e742063616c6c00604082015260600190565b60008060408385031215612ae457600080fd5b505080516020909101519092909150565b600060208284031215612b0757600080fd5b5051919050565b600060a082018783526020878185015260a0604085015281875480845260c0860191508860005282600020935060005b81811015612b635784546001600160a01b031683526001948501949284019201612b3e565b50506001600160a01b03969096166060850152505050608001529392505050565b60006020808385031215612b9757600080fd5b825167ffffffffffffffff80821115612baf57600080fd5b818501915085601f830112612bc357600080fd5b815181811115612bd557612bd56127d9565b8060051b9150612be68483016127ef565b8181529183018401918481019088841115612c0057600080fd5b938501935b83851015612c1e57845182529385019390850190612c05565b98975050505050505050565b6001600160a01b039889168152968816602088015260408701959095526060860193909352608085019190915260a084015290921660c082015260e08101919091526101000190565b600080600060608486031215612c8857600080fd5b8351925060208401519150604084015190509250925092565b634e487b7160e01b600052601160045260246000fd5b600082821015612cc957612cc9612ca1565b500390565b6000816000190483118215151615612ce857612ce8612ca1565b500290565b600082612d0a57634e487b7160e01b600052601260045260246000fd5b500490565b60008219821115612d2257612d22612ca1565b500190565b60005b83811015612d42578181015183820152602001612d2a565b83811115612d51576000848401525b50505050565b60008251612d69818460208701612d27565b9190910192915050565b6020815260008251806020840152612d92816040850160208701612d27565b601f01601f1916919091016040019291505056fe416464726573733a206c6f772d6c6576656c2064656c65676174652063616c6c206661696c65640000000000000000000000007ceb23fd6bc0add59e62ac25578270cff1b9f619a264697066735822122044a4b6766a3e4d47f5ec5392822cc4f1be86ae100875950ce931c91a8afa08e964736f6c634300080a0033608060405234801561001057600080fd5b5060405161050e38038061050e83398101604081905261002f91610148565b61003833610047565b61004181610097565b50610178565b600080546001600160a01b038381166001600160a01b0319831681178455604051919092169283917f8be0079c531659141344cd1fd0a4f28419497f9722a3daafe3b4186f6b6457e09190a35050565b6100aa8161014260201b61020a1760201c565b6101205760405162461bcd60e51b815260206004820152603360248201527f5570677261646561626c65426561636f6e3a20696d706c656d656e746174696f60448201527f6e206973206e6f74206120636f6e747261637400000000000000000000000000606482015260840160405180910390fd5b600180546001600160a01b0319166001600160a01b0392909216919091179055565b3b151590565b60006020828403121561015a57600080fd5b81516001600160a01b038116811461017157600080fd5b9392505050565b610387806101876000396000f3fe608060405234801561001057600080fd5b50600436106100575760003560e01c80633659cfe61461005c5780635c60da1b14610071578063715018a61461009a5780638da5cb5b146100a2578063f2fde38b146100b3575b600080fd5b61006f61006a3660046102ec565b6100c6565b005b6001546001600160a01b03165b6040516001600160a01b03909116815260200160405180910390f35b61006f610139565b6000546001600160a01b031661007e565b61006f6100c13660046102ec565b61016f565b6000546001600160a01b031633146100f95760405162461bcd60e51b81526004016100f09061031c565b60405180910390fd5b61010281610210565b6040516001600160a01b038216907fbc7cd75a20ee27fd9adebab32041f755214dbc6bffa90cc0225b39da2e5c2d3b90600090a250565b6000546001600160a01b031633146101635760405162461bcd60e51b81526004016100f09061031c565b61016d600061029c565b565b6000546001600160a01b031633146101995760405162461bcd60e51b81526004016100f09061031c565b6001600160a01b0381166101fe5760405162461bcd60e51b815260206004820152602660248201527f4f776e61626c653a206e6577206f776e657220697320746865207a65726f206160448201526564647265737360d01b60648201526084016100f0565b6102078161029c565b50565b3b151590565b803b61027a5760405162461bcd60e51b815260206004820152603360248201527f5570677261646561626c65426561636f6e3a20696d706c656d656e746174696f6044820152721b881a5cc81b9bdd08184818dbdb9d1c9858dd606a1b60648201526084016100f0565b600180546001600160a01b0319166001600160a01b0392909216919091179055565b600080546001600160a01b038381166001600160a01b0319831681178455604051919092169283917f8be0079c531659141344cd1fd0a4f28419497f9722a3daafe3b4186f6b6457e09190a35050565b6000602082840312156102fe57600080fd5b81356001600160a01b038116811461031557600080fd5b9392505050565b6020808252818101527f4f776e61626c653a2063616c6c6572206973206e6f7420746865206f776e657260408201526060019056fea2646970667358221220f38851aee149f6cb40aeac6937079313f2718278a6a870226b9aa0f1154da6d064736f6c634300080a0033608060405260405161096638038061096683398101604081905261002291610479565b61004d60017fa3f0ad74e5423aebfd80d3ef4346578335a9a72aeaee59ff6cb3582b35133d51610539565b60008051602061091f833981519152146100695761006961055e565b6100758282600061007c565b50506105de565b61008583610147565b6040516001600160a01b038416907f1cf3b03a6cf19fa2baba4df148e9dcabedea7f8a5c07840e207e5c089be95d3e90600090a26000825111806100c65750805b1561014257610140836001600160a01b0316635c60da1b6040518163ffffffff1660e01b8152600401602060405180830381865afa15801561010c573d6000803e3d6000fd5b505050506040513d601f19601f820116820180604052508101906101309190610574565b836102d860201b6100291760201c565b505b505050565b61015a8161030460201b6100551760201c565b6101b95760405162461bcd60e51b815260206004820152602560248201527f455243313936373a206e657720626561636f6e206973206e6f74206120636f6e6044820152641d1c9858dd60da1b60648201526084015b60405180910390fd5b61022d816001600160a01b0316635c60da1b6040518163ffffffff1660e01b8152600401602060405180830381865afa1580156101fa573d6000803e3d6000fd5b505050506040513d601f19601f8201168201806040525081019061021e9190610574565b61030460201b6100551760201c565b6102925760405162461bcd60e51b815260206004820152603060248201527f455243313936373a20626561636f6e20696d706c656d656e746174696f6e206960448201526f1cc81b9bdd08184818dbdb9d1c9858dd60821b60648201526084016101b0565b806102b760008051602061091f83398151915260001b61030a60201b61005b1760201c565b80546001600160a01b0319166001600160a01b039290921691909117905550565b60606102fd838360405180606001604052806027815260200161093f6027913961030d565b9392505050565b3b151590565b90565b6060833b61036c5760405162461bcd60e51b815260206004820152602660248201527f416464726573733a2064656c65676174652063616c6c20746f206e6f6e2d636f6044820152651b9d1c9858dd60d21b60648201526084016101b0565b600080856001600160a01b031685604051610387919061058f565b600060405180830381855af49150503d80600081146103c2576040519150601f19603f3d011682016040523d82523d6000602084013e6103c7565b606091505b5090925090506103d88282866103e2565b9695505050505050565b606083156103f15750816102fd565b8251156104015782518084602001fd5b8160405162461bcd60e51b81526004016101b091906105ab565b80516001600160a01b038116811461043257600080fd5b919050565b634e487b7160e01b600052604160045260246000fd5b60005b83811015610468578181015183820152602001610450565b838111156101405750506000910152565b6000806040838503121561048c57600080fd5b6104958361041b565b60208401519092506001600160401b03808211156104b257600080fd5b818501915085601f8301126104c657600080fd5b8151818111156104d8576104d8610437565b604051601f8201601f19908116603f0116810190838211818310171561050057610500610437565b8160405282815288602084870101111561051957600080fd5b61052a83602083016020880161044d565b80955050505050509250929050565b60008282101561055957634e487b7160e01b600052601160045260246000fd5b500390565b634e487b7160e01b600052600160045260246000fd5b60006020828403121561058657600080fd5b6102fd8261041b565b600082516105a181846020870161044d565b9190910192915050565b60208152600082518060208401526105ca81604085016020870161044d565b601f01601f19169190910160400192915050565b610332806105ed6000396000f3fe60806040523661001357610011610017565b005b6100115b61002761002261005e565b6100f7565b565b606061004e83836040518060600160405280602781526020016102d66027913961011b565b9392505050565b3b151590565b90565b60006100917fa3f0ad74e5423aebfd80d3ef4346578335a9a72aeaee59ff6cb3582b35133d50546001600160a01b031690565b6001600160a01b0316635c60da1b6040518163ffffffff1660e01b8152600401602060405180830381865afa1580156100ce573d6000803e3d6000fd5b505050506040513d601f19601f820116820180604052508101906100f2919061022d565b905090565b3660008037600080366000845af43d6000803e808015610116573d6000f35b3d6000fd5b6060833b61017f5760405162461bcd60e51b815260206004820152602660248201527f416464726573733a2064656c65676174652063616c6c20746f206e6f6e2d636f6044820152651b9d1c9858dd60d21b60648201526084015b60405180910390fd5b600080856001600160a01b03168560405161019a9190610286565b600060405180830381855af49150503d80600081146101d5576040519150601f19603f3d011682016040523d82523d6000602084013e6101da565b606091505b50915091506101ea8282866101f4565b9695505050505050565b6060831561020357508161004e565b8251156102135782518084602001fd5b8160405162461bcd60e51b815260040161017691906102a2565b60006020828403121561023f57600080fd5b81516001600160a01b038116811461004e57600080fd5b60005b83811015610271578181015183820152602001610259565b83811115610280576000848401525b50505050565b60008251610298818460208701610256565b9190910192915050565b60208152600082518060208401526102c1816040850160208701610256565b601f01601f1916919091016040019291505056fe416464726573733a206c6f772d6c6576656c2064656c65676174652063616c6c206661696c6564a2646970667358221220290e359b41cd317860188e900ad787ed596340dd51e77de9300f9bed50952b1464736f6c634300080a0033a3f0ad74e5423aebfd80d3ef4346578335a9a72aeaee59ff6cb3582b35133d50416464726573733a206c6f772d6c6576656c2064656c65676174652063616c6c206661696c6564a26469706673582212209426da30ef93afd97171c402bfdb1e5415ad8ac8256b3659fd55211a6ae90aef64736f6c634300080a0033",
  "immutableReferences": {},
  "source": "// SPDX-License-Identifier: MIT\r\npragma solidity 0.8.10;\r\npragma experimental ABIEncoderV2;\r\n\r\nimport {QuickswapDualFarmUpgradeable as Farm, SafeMath, IERC20, IUniswapV2Pair, Initializable} from \"./farms/QuickswapDualFarmUpgradeable.sol\"; \r\n\r\nimport \"@openzeppelin/contracts/proxy/beacon/UpgradeableBeacon.sol\";\r\nimport \"@openzeppelin/contracts/proxy/beacon/BeaconProxy.sol\";\r\n\r\ncontract QuickswapDualFarmFactoryBeacon is Initializable{\r\n    using SafeMath for uint256; \r\n\r\n    address public farmBeacon;\r\n\r\n    /**\r\n     * @dev Contract Variables:\r\n     * {Farms} - links {lpStakingPools} to the deployed Farm contract.\r\n     * {lpStakingPools} - list of pools that have corresponding deployed Farm contract.\r\n     */\r\n    mapping(address => Farm) public Farms;\r\n    address[] public lpStakingPools;\r\n\r\n    event FarmDeployed(address farmAddress);\r\n    event Deposit(address sender, address lpPair, uint256 amount);\r\n    event Withdraw(address sender, address lpPair, uint256 amount);\r\n    event Distribute(address lpPair);\r\n\r\n    // ============ Methods ============\r\n\r\n    function initialize(address upgrader) public initializer {\r\n        UpgradeableBeacon _farmBeacon = new UpgradeableBeacon(\r\n            address(new Farm())\r\n        );\r\n        _farmBeacon.transferOwnership(upgrader);\r\n        farmBeacon = address(_farmBeacon);\r\n    }\r\n\r\n    /**\r\n     * @dev Creates a new contract if there isn't one and deposits LP tokens to the lpStakingPool.\r\n     * {amount} - the amount of LP tokens to deposit.\r\n     * {lpStakingPool} - LP pool to deposit tokens to. \r\n     */\r\n    function deposit(uint256 amountA, uint256 amountB, uint256 amountLP, address lpStakingPool) external {\r\n        if(Farms[lpStakingPool] == Farm(address(0))){\r\n            Farms[lpStakingPool] = Farm(createFarm(lpStakingPool));\r\n            lpStakingPools.push(lpStakingPool);\r\n        }\r\n\r\n        if(amountA > 0){\r\n            IERC20 tokenA = IERC20(Farms[lpStakingPool].tokenA());\r\n            tokenA.transferFrom(msg.sender, address(Farms[lpStakingPool]), amountA);\r\n        }\r\n        if(amountB > 0){\r\n            IERC20 tokenB = IERC20(Farms[lpStakingPool].tokenB());\r\n            tokenB.transferFrom(msg.sender, address(Farms[lpStakingPool]), amountB);\r\n        }\r\n        if(amountLP > 0){\r\n            IERC20 lpPair = IERC20(Farms[lpStakingPool].lpPair());\r\n            lpPair.transferFrom(msg.sender, address(Farms[lpStakingPool]), amountLP);\r\n        }\r\n        \r\n        uint256 depositedAmount = Farms[lpStakingPool].deposit(amountA, amountB, amountLP, msg.sender); \r\n        emit Deposit(msg.sender, lpStakingPool, depositedAmount); \r\n    }\r\n\r\n    /**\r\n     * @dev Withdraws tokens from the given pool. \r\n     * {lpStakingPool} - LP pool to withdraw from.\r\n     * {withdrawLP} - true: Withdraw in LP tokens, false: Withdraw in tokens.\r\n     */ \r\n    function withdraw(address lpStakingPool, bool withdrawLP) external {\r\n        require(Farms[lpStakingPool] != Farm(address(0)), 'The given pool doesnt exist');\r\n        uint256 withdrawAmount = Farms[lpStakingPool].withdraw(msg.sender, withdrawLP); \r\n        emit Withdraw(msg.sender, lpStakingPool, withdrawAmount);\r\n    }\r\n\r\n     /**\r\n     * @dev Distributes tokens between users for a single { Farms[lpStakingPool] }.\r\n     */ \r\n    function distribute(address lpStakingPool) external {\r\n        require(Farms[lpStakingPool] != Farm(address(0)), 'The given pool doesnt exist');\r\n        Farms[lpStakingPool].distribute();\r\n         emit Distribute(lpStakingPool);\r\n    }\r\n\r\n    /**\r\n     * @dev Returns token values staked by the user for the given {lpStakingPool}\r\n     */\r\n    function userStake(address _address, address lpStakingPool) external view returns (uint256 lpStake, uint256 token0Stake, uint256 token1Stake) {\r\n        if (Farms[lpStakingPool] != Farm(address(0))) {\r\n            lpStake = Farms[lpStakingPool].userBalance(_address);\r\n            address lpPair = Farms[lpStakingPool].lpPair();\r\n\r\n            uint256 totalSupply = IERC20(lpPair).totalSupply();\r\n            uint256 totalToken0Amount = IERC20(Farms[lpStakingPool].tokenA()).balanceOf(lpPair);\r\n            token0Stake = lpStake.mul(totalToken0Amount).div(totalSupply);\r\n\r\n            uint256 totalToken1Amount = IERC20(Farms[lpStakingPool].tokenB()).balanceOf(lpPair);\r\n            token1Stake = lpStake.mul(totalToken1Amount).div(totalSupply);\r\n        } else {\r\n            lpStake = 0;\r\n            token0Stake = 0;\r\n            token1Stake = 0;\r\n        }\r\n    }\r\n\r\n    /**\r\n     * @dev Returns total amount locked in the pool. Doesn't take rewards after last distribution into account.\r\n     */\r\n    function totalDeposits(address lpStakingPool) external view returns (uint256) {\r\n        if (Farms[lpStakingPool] != Farm(address(0))) {\r\n            return Farms[lpStakingPool].getTotalDeposits();\r\n        }\r\n        return 0;\r\n    }\r\n\r\n    /**\r\n     * @dev poolLength()\r\n     */\r\n    function poolLength() external view returns (uint256) {\r\n        return lpStakingPools.length;\r\n    }\r\n    \r\n    function createFarm(address lpStakingPool) internal returns (address) {\r\n        BeaconProxy proxy = new BeaconProxy(\r\n            farmBeacon,\r\n            abi.encodeWithSelector(\r\n                Farm(address(0)).initialize.selector,\r\n                lpStakingPool,\r\n                address(this)\r\n            )\r\n        );\r\n        emit FarmDeployed(address(proxy));\r\n        return address(proxy);\r\n    }\r\n}",
  "sourcePath": "C:\\Users\\jugli\\Desktop\\uno\\uno-contracts-branch\\contracts\\QuickswapDualFarmFactoryBeacon.sol",
  "compiler": {
    "name": "solc",
    "version": "0.8.10+commit.fc410830.Emscripten.clang"
  },
  "schemaVersion": "3.4.3",
  "updatedAt": "2021-12-16T18:12:10.888Z",
  "devdoc": {
    "kind": "dev",
    "methods": {
      "deposit(uint256,uint256,uint256,address)": {
        "details": "Creates a new contract if there isn't one and deposits LP tokens to the lpStakingPool. {amount} - the amount of LP tokens to deposit. {lpStakingPool} - LP pool to deposit tokens to. "
      },
      "distribute(address)": {
        "details": "Distributes tokens between users for a single { Farms[lpStakingPool] }."
      },
      "poolLength()": {
        "details": "poolLength()"
      },
      "totalDeposits(address)": {
        "details": "Returns total amount locked in the pool. Doesn't take rewards after last distribution into account."
      },
      "userStake(address,address)": {
        "details": "Returns token values staked by the user for the given {lpStakingPool}"
      },
      "withdraw(address,bool)": {
        "details": "Withdraws tokens from the given pool.  {lpStakingPool} - LP pool to withdraw from. {withdrawLP} - true: Withdraw in LP tokens, false: Withdraw in tokens."
      }
    },
    "stateVariables": {
      "Farms": {
        "details": "Contract Variables: {Farms} - links {lpStakingPools} to the deployed Farm contract. {lpStakingPools} - list of pools that have corresponding deployed Farm contract."
      }
    },
    "version": 1
  },
  "userdoc": {
    "kind": "user",
    "methods": {},
    "version": 1
  }
}