{
  "contractName": "SushiswapFarmUpgradeable",
  "abi": [
    {
      "anonymous": false,
      "inputs": [
        {
          "indexed": false,
          "internalType": "address",
          "name": "previousAdmin",
          "type": "address"
        },
        {
          "indexed": false,
          "internalType": "address",
          "name": "newAdmin",
          "type": "address"
        }
      ],
      "name": "AdminChanged",
      "type": "event"
    },
    {
      "anonymous": false,
      "inputs": [
        {
          "indexed": true,
          "internalType": "address",
          "name": "owner",
          "type": "address"
        },
        {
          "indexed": true,
          "internalType": "address",
          "name": "spender",
          "type": "address"
        },
        {
          "indexed": false,
          "internalType": "uint256",
          "name": "value",
          "type": "uint256"
        }
      ],
      "name": "Approval",
      "type": "event"
    },
    {
      "anonymous": false,
      "inputs": [
        {
          "indexed": true,
          "internalType": "address",
          "name": "beacon",
          "type": "address"
        }
      ],
      "name": "BeaconUpgraded",
      "type": "event"
    },
    {
      "anonymous": false,
      "inputs": [
        {
          "indexed": true,
          "internalType": "address",
          "name": "from",
          "type": "address"
        },
        {
          "indexed": true,
          "internalType": "address",
          "name": "to",
          "type": "address"
        },
        {
          "indexed": false,
          "internalType": "uint256",
          "name": "value",
          "type": "uint256"
        }
      ],
      "name": "Transfer",
      "type": "event"
    },
    {
      "anonymous": false,
      "inputs": [
        {
          "indexed": true,
          "internalType": "address",
          "name": "implementation",
          "type": "address"
        }
      ],
      "name": "Upgraded",
      "type": "event"
    },
    {
      "inputs": [
        {
          "internalType": "address",
          "name": "",
          "type": "address"
        },
        {
          "internalType": "address",
          "name": "",
          "type": "address"
        }
      ],
      "name": "allowance",
      "outputs": [
        {
          "internalType": "uint256",
          "name": "",
          "type": "uint256"
        }
      ],
      "stateMutability": "view",
      "type": "function"
    },
    {
      "inputs": [
        {
          "internalType": "address",
          "name": "spender",
          "type": "address"
        },
        {
          "internalType": "uint256",
          "name": "value",
          "type": "uint256"
        }
      ],
      "name": "approve",
      "outputs": [
        {
          "internalType": "bool",
          "name": "",
          "type": "bool"
        }
      ],
      "stateMutability": "nonpayable",
      "type": "function"
    },
    {
      "inputs": [
        {
          "internalType": "address",
          "name": "",
          "type": "address"
        }
      ],
      "name": "balanceOf",
      "outputs": [
        {
          "internalType": "uint256",
          "name": "",
          "type": "uint256"
        }
      ],
      "stateMutability": "view",
      "type": "function"
    },
    {
      "inputs": [],
      "name": "decimals",
      "outputs": [
        {
          "internalType": "uint8",
          "name": "",
          "type": "uint8"
        }
      ],
      "stateMutability": "view",
      "type": "function"
    },
    {
      "inputs": [],
      "name": "lpPair",
      "outputs": [
        {
          "internalType": "address",
          "name": "",
          "type": "address"
        }
      ],
      "stateMutability": "view",
      "type": "function"
    },
    {
      "inputs": [],
      "name": "name",
      "outputs": [
        {
          "internalType": "string",
          "name": "",
          "type": "string"
        }
      ],
      "stateMutability": "view",
      "type": "function"
    },
    {
      "inputs": [],
      "name": "rewardToken",
      "outputs": [
        {
          "internalType": "address",
          "name": "",
          "type": "address"
        }
      ],
      "stateMutability": "view",
      "type": "function"
    },
    {
      "inputs": [],
      "name": "rewarderToken",
      "outputs": [
        {
          "internalType": "address",
          "name": "",
          "type": "address"
        }
      ],
      "stateMutability": "view",
      "type": "function"
    },
    {
      "inputs": [],
      "name": "symbol",
      "outputs": [
        {
          "internalType": "string",
          "name": "",
          "type": "string"
        }
      ],
      "stateMutability": "view",
      "type": "function"
    },
    {
      "inputs": [],
      "name": "tokenA",
      "outputs": [
        {
          "internalType": "address",
          "name": "",
          "type": "address"
        }
      ],
      "stateMutability": "view",
      "type": "function"
    },
    {
      "inputs": [],
      "name": "tokenB",
      "outputs": [
        {
          "internalType": "address",
          "name": "",
          "type": "address"
        }
      ],
      "stateMutability": "view",
      "type": "function"
    },
    {
      "inputs": [],
      "name": "totalDeposits",
      "outputs": [
        {
          "internalType": "uint256",
          "name": "",
          "type": "uint256"
        }
      ],
      "stateMutability": "view",
      "type": "function"
    },
    {
      "inputs": [],
      "name": "totalSupply",
      "outputs": [
        {
          "internalType": "uint256",
          "name": "",
          "type": "uint256"
        }
      ],
      "stateMutability": "view",
      "type": "function"
    },
    {
      "inputs": [
        {
          "internalType": "address",
          "name": "to",
          "type": "address"
        },
        {
          "internalType": "uint256",
          "name": "value",
          "type": "uint256"
        }
      ],
      "name": "transfer",
      "outputs": [
        {
          "internalType": "bool",
          "name": "",
          "type": "bool"
        }
      ],
      "stateMutability": "nonpayable",
      "type": "function"
    },
    {
      "inputs": [
        {
          "internalType": "address",
          "name": "from",
          "type": "address"
        },
        {
          "internalType": "address",
          "name": "to",
          "type": "address"
        },
        {
          "internalType": "uint256",
          "name": "value",
          "type": "uint256"
        }
      ],
      "name": "transferFrom",
      "outputs": [
        {
          "internalType": "bool",
          "name": "",
          "type": "bool"
        }
      ],
      "stateMutability": "nonpayable",
      "type": "function"
    },
    {
      "inputs": [
        {
          "internalType": "address",
          "name": "newImplementation",
          "type": "address"
        }
      ],
      "name": "upgradeTo",
      "outputs": [],
      "stateMutability": "nonpayable",
      "type": "function"
    },
    {
      "inputs": [
        {
          "internalType": "address",
          "name": "newImplementation",
          "type": "address"
        },
        {
          "internalType": "bytes",
          "name": "data",
          "type": "bytes"
        }
      ],
      "name": "upgradeToAndCall",
      "outputs": [],
      "stateMutability": "payable",
      "type": "function"
    },
    {
      "inputs": [
        {
          "internalType": "address",
          "name": "_lpPair",
          "type": "address"
        }
      ],
      "name": "initialize",
      "outputs": [],
      "stateMutability": "nonpayable",
      "type": "function"
    },
    {
      "inputs": [
        {
          "internalType": "uint256",
          "name": "amountA",
          "type": "uint256"
        },
        {
          "internalType": "uint256",
          "name": "amountB",
          "type": "uint256"
        },
        {
          "internalType": "uint256",
          "name": "amountLP",
          "type": "uint256"
        },
        {
          "internalType": "address",
          "name": "recipient",
          "type": "address"
        }
      ],
      "name": "deposit",
      "outputs": [
        {
          "internalType": "uint256",
          "name": "sentA",
          "type": "uint256"
        },
        {
          "internalType": "uint256",
          "name": "sentB",
          "type": "uint256"
        },
        {
          "internalType": "uint256",
          "name": "liquidity",
          "type": "uint256"
        }
      ],
      "stateMutability": "nonpayable",
      "type": "function"
    },
    {
      "inputs": [
        {
          "internalType": "address",
          "name": "origin",
          "type": "address"
        },
        {
          "internalType": "uint256",
          "name": "amount",
          "type": "uint256"
        },
        {
          "internalType": "bool",
          "name": "withdrawLP",
          "type": "bool"
        },
        {
          "internalType": "address",
          "name": "recipient",
          "type": "address"
        }
      ],
      "name": "withdraw",
      "outputs": [
        {
          "internalType": "uint256",
          "name": "amountA",
          "type": "uint256"
        },
        {
          "internalType": "uint256",
          "name": "amountB",
          "type": "uint256"
        }
      ],
      "stateMutability": "nonpayable",
      "type": "function"
    },
    {
      "inputs": [
        {
          "internalType": "address[]",
          "name": "rewarderTokenToTokenARoute",
          "type": "address[]"
        },
        {
          "internalType": "address[]",
          "name": "rewarderTokenToTokenBRoute",
          "type": "address[]"
        },
        {
          "internalType": "address[]",
          "name": "rewardTokenToTokenARoute",
          "type": "address[]"
        },
        {
          "internalType": "address[]",
          "name": "rewardTokenToTokenBRoute",
          "type": "address[]"
        }
      ],
      "name": "distribute",
      "outputs": [],
      "stateMutability": "nonpayable",
      "type": "function"
    },
    {
      "inputs": [
        {
          "internalType": "uint256",
          "name": "_amount",
          "type": "uint256"
        },
        {
          "internalType": "uint256",
          "name": "_block",
          "type": "uint256"
        }
      ],
      "name": "setExpectedReward",
      "outputs": [],
      "stateMutability": "nonpayable",
      "type": "function"
    },
    {
      "inputs": [
        {
          "internalType": "address",
          "name": "_address",
          "type": "address"
        }
      ],
      "name": "userBalance",
      "outputs": [
        {
          "internalType": "uint256",
          "name": "",
          "type": "uint256"
        }
      ],
      "stateMutability": "view",
      "type": "function"
    }
  ],
  "bytecode": "0x60a06040523060805234801561001457600080fd5b50600160685560805161341361004a600039600081816105d7015281816106200152818161098101526109c101526134136000f3fe6080604052600436106101105760003560e01c80630103c92b1461011557806306fdde0314610148578063095ea7b3146101875780630fc63d10146101b757806318160ddd146101e457806323b872dd146101fa5780632a8dc1311461021a578063313ce5671461023a5780633659cfe614610261578063430004c114610283578063452ed4f1146102b85780634f1ef286146102d85780635f64b55b146102eb57806370a082311461030b57806373ad67d7146103385780637d8820971461035857806395d89b411461036e578063a9059cbb1461039d578063c4d66de8146103bd578063dd62ed3e146103dd578063e8da9d4814610415578063f7c618c114610435578063fad3cc4b14610455575b600080fd5b34801561012157600080fd5b50610135610130366004612969565b610490565b6040519081526020015b60405180910390f35b34801561015457600080fd5b5061017a604051806040016040528060068152602001650556e6f2d4c560d41b81525081565b60405161013f91906129b2565b34801561019357600080fd5b506101a76101a23660046129e5565b610521565b604051901515815260200161013f565b3480156101c357600080fd5b50606c546101d7906001600160a01b031681565b60405161013f9190612a11565b3480156101f057600080fd5b5061013560005481565b34801561020657600080fd5b506101a7610215366004612a25565b610537565b34801561022657600080fd5b50606a546101d7906001600160a01b031681565b34801561024657600080fd5b5061024f601281565b60405160ff909116815260200161013f565b34801561026d57600080fd5b5061028161027c366004612969565b6105cc565b005b34801561028f57600080fd5b506102a361029e366004612a74565b61069e565b6040805192835260208301919091520161013f565b3480156102c457600080fd5b50606b546101d7906001600160a01b031681565b6102816102e6366004612b0d565b610976565b3480156102f757600080fd5b50606d546101d7906001600160a01b031681565b34801561031757600080fd5b50610135610326366004612969565b60016020526000908152604090205481565b34801561034457600080fd5b50610281610353366004612bff565b610a30565b34801561036457600080fd5b5061013560775481565b34801561037a57600080fd5b5061017a604051806040016040528060038152602001620554c560ec1b81525081565b3480156103a957600080fd5b506101a76103b83660046129e5565b61112b565b3480156103c957600080fd5b506102816103d8366004612969565b611138565b3480156103e957600080fd5b506101356103f8366004612cc2565b600260209081526000928352604080842090915290825290205481565b34801561042157600080fd5b50610281610430366004612cfb565b6118aa565b34801561044157600080fd5b506069546101d7906001600160a01b031681565b34801561046157600080fd5b50610475610470366004612d1d565b6118d2565b6040805193845260208401929092529082015260600161013f565b6001600160a01b0381166000908152607660209081526040808320607154845290915281205460ff16156104da57506001600160a01b031660009081526073602052604090205490565b6000546104e957506000919050565b600080546001600160a01b038416825260016020526040909120546077546105119190612d69565b61051b9190612d88565b92915050565b600061052e338484611b9f565b50600192915050565b6001600160a01b0383166000908152600260209081526040808320338452909152812054600019146105b6576001600160a01b03841660009081526002602090815260408083203384529091529020546105919083611c01565b6001600160a01b03851660009081526002602090815260408083203384529091529020555b6105c1848484611c0d565b5060015b9392505050565b306001600160a01b037f000000000000000000000000000000000000000000000000000000000000000016141561061e5760405162461bcd60e51b815260040161061590612daa565b60405180910390fd5b7f00000000000000000000000000000000000000000000000000000000000000006001600160a01b0316610650611ca1565b6001600160a01b0316146106765760405162461bcd60e51b815260040161061590612de4565b61067f81611cbd565b6040805160008082526020820190925261069b91839190611cd9565b50565b600080336106aa611e20565b6001600160a01b0316146106bd57600080fd5b600260685414156106e05760405162461bcd60e51b815260040161061590612e1e565b6002606855841580159061070b57506001600160a01b03861660009081526073602052604090205415155b61071457600080fd5b61071d86611e2f565b600043606f54111561073e5743606f546107379190612e55565b9050610750565b600260725461074d9190612d88565b90505b6000607854826077546107639190612d69565b61076d9190612e6c565b9050600061077b8389612d69565b6107859083612e55565b6001600160a01b038a16600090815260736020526040812080549293508a929091906107b2908490612e55565b9250508190555087607760008282546107cb9190612e55565b909155505060705482906107e0908390612d69565b6107ea9190612d88565b6070556107f883828b611fbf565b606e54604051630ad58d2f60e01b815260008051602061337783398151915291630ad58d2f9161082f91908c903090600401612e84565b600060405180830381600087803b15801561084957600080fd5b505af115801561085d573d6000803e3d6000fd5b50505050861561088d57606b5461087e906001600160a01b0316878a6120c6565b60008094509450505050610966565b606c54606d546000805160206133178339815191529163baa2abde916001600160a01b0391821691168b6000808c6108c742610258612e6c565b60405160e089901b6001600160e01b03191681526001600160a01b039788166004820152958716602487015260448601949094526064850192909252608484015290921660a482015260c481019190915260e40160408051808303816000875af1158015610939573d6000803e3d6000fd5b505050506040513d601f19601f8201168201806040525081019061095d9190612ea3565b90955093505050505b6001606855909590945092505050565b306001600160a01b037f00000000000000000000000000000000000000000000000000000000000000001614156109bf5760405162461bcd60e51b815260040161061590612daa565b7f00000000000000000000000000000000000000000000000000000000000000006001600160a01b03166109f1611ca1565b6001600160a01b031614610a175760405162461bcd60e51b815260040161061590612de4565b610a2082611cbd565b610a2c82826001611cd9565b5050565b33610a39611e20565b6001600160a01b031614610a4c57600080fd5b60026068541415610a6f5760405162461bcd60e51b815260040161061590612e1e565b6002606855607754610a8057600080fd5b606e54604051630c7e663b60e11b81526004810191909152306024820152600080516020613377833981519152906318fccc7690604401600060405180830381600087803b158015610ad157600080fd5b505af1158015610ae5573d6000803e3d6000fd5b5050606a546040516370a0823160e01b815260009350600292506001600160a01b03909116906370a0823190610b1f903090600401612a11565b602060405180830381865afa158015610b3c573d6000803e3d6000fd5b505050506040513d601f19601f82011682018060405250810190610b609190612ec7565b610b6a9190612d88565b6069546040516370a0823160e01b81529192506000916002916001600160a01b0316906370a0823190610ba1903090600401612a11565b602060405180830381865afa158015610bbe573d6000803e3d6000fd5b505050506040513d601f19601f82011682018060405250810190610be29190612ec7565b610bec9190612d88565b90506000610bfc42610258612e6c565b606a54606c549192506001600160a01b03918216911614610ca5576000805160206133178339815191526001600160a01b03166338ed17398460008e8e30876040518763ffffffff1660e01b8152600401610c5c96959493929190612ee0565b6000604051808303816000875af1158015610c7b573d6000803e3d6000fd5b505050506040513d6000823e601f3d908101601f19168201604052610ca39190810190612fe1565b505b606a54606d546001600160a01b03908116911614610d42576040516338ed173960e01b8152600080516020613317833981519152906338ed173990610cf99086906000908e908e9030908990600401612ee0565b6000604051808303816000875af1158015610d18573d6000803e3d6000fd5b505050506040513d6000823e601f3d908101601f19168201604052610d409190810190612fe1565b505b606954606c546001600160a01b03908116911614610ddf576040516338ed173960e01b8152600080516020613317833981519152906338ed173990610d969085906000908c908c9030908990600401612ee0565b6000604051808303816000875af1158015610db5573d6000803e3d6000fd5b505050506040513d6000823e601f3d908101601f19168201604052610ddd9190810190612fe1565b505b606954606d546001600160a01b03908116911614610e7c576040516338ed173960e01b8152600080516020613317833981519152906338ed173990610e339085906000908a908a9030908990600401612ee0565b6000604051808303816000875af1158015610e52573d6000803e3d6000fd5b505050506040513d6000823e601f3d908101601f19168201604052610e7a9190810190612fe1565b505b606c54606d546040516370a0823160e01b81526000805160206133178339815191529263e8e33700926001600160a01b039182169291169082906370a0823190610eca903090600401612a11565b602060405180830381865afa158015610ee7573d6000803e3d6000fd5b505050506040513d601f19601f82011682018060405250810190610f0b9190612ec7565b606d546040516370a0823160e01b81526001600160a01b03909116906370a0823190610f3b903090600401612a11565b602060405180830381865afa158015610f58573d6000803e3d6000fd5b505050506040513d601f19601f82011682018060405250810190610f7c9190612ec7565b60018030896040518963ffffffff1660e01b8152600401610fa4989796959493929190613015565b6060604051808303816000875af1158015610fc3573d6000803e3d6000fd5b505050506040513d601f19601f82011682018060405250810190610fe7919061305e565b5050606b546040516370a0823160e01b8152600092506001600160a01b03909116906370a082319061101d903090600401612a11565b602060405180830381865afa15801561103a573d6000803e3d6000fd5b505050506040513d601f19601f8201168201806040525081019061105e9190612ec7565b905080156110e75780607760008282546110789190612e6c565b9091555050606e54604051638dbdbe6d60e01b815260008051602061337783398151915291638dbdbe6d916110b4919085903090600401612e84565b600060405180830381600087803b1580156110ce57600080fd5b505af11580156110e2573d6000803e3d6000fd5b505050505b6071546110f49043612e55565b60728190556111149082906111099043612e6c565b607091909155606f55565b505043607155505060016068555050505050505050565b600061052e338484611c0d565b600354610100900460ff166111535760035460ff161561115b565b61115b61211c565b6111775760405162461bcd60e51b81526004016106159061308c565b600354610100900460ff16158015611199576003805461ffff19166101011790555b6111a161212d565b6040516343b55f3560e01b815273bee6dbb6606bb65953a24c254945ca95aeb22671906343b55f35906111d8908590600401612a11565b602060405180830381865afa1580156111f5573d6000803e3d6000fd5b505050506040513d601f19601f820116820180604052508101906112199190612ec7565b606e819055506000805160206133778339815191526001600160a01b031663ab560e106040518163ffffffff1660e01b8152600401602060405180830381865afa15801561126b573d6000803e3d6000fd5b505050506040513d601f19601f8201168201806040525081019061128f91906130da565b606980546001600160a01b0319166001600160a01b0392909216919091179055606e5460405163c346253d60e01b815260048101919091526000906000805160206133778339815191529063c346253d90602401602060405180830381865afa158015611300573d6000803e3d6000fd5b505050506040513d601f19601f8201168201806040525081019061132491906130da565b606e5460405163d63b3c4960e01b8152600481019190915260006024820181905260448201526001600160a01b03919091169063d63b3c4990606401600060405180830381865afa15801561137d573d6000803e3d6000fd5b505050506040513d6000823e601f3d908101601f191682016040526113a591908101906130f7565b509050806000815181106113bb576113bb6131bb565b6020908102919091010151606a80546001600160a01b0319166001600160a01b03909216919091179055606e546040516378ed5d1f60e01b81526004810191909152600080516020613377833981519152906378ed5d1f90602401602060405180830381865afa158015611433573d6000803e3d6000fd5b505050506040513d601f19601f8201168201806040525081019061145791906130da565b606b80546001600160a01b0319166001600160a01b0392909216918217905560408051630dfe168160e01b81529051630dfe1681916004808201926020929091908290030181865afa1580156114b1573d6000803e3d6000fd5b505050506040513d601f19601f820116820180604052508101906114d591906130da565b606c80546001600160a01b0319166001600160a01b03928316179055606b546040805163d21220a760e01b81529051919092169163d21220a79160048083019260209291908290030181865afa158015611533573d6000803e3d6000fd5b505050506040513d601f19601f8201168201806040525081019061155791906130da565b606d80546001600160a01b0319166001600160a01b03928316179055606b5460405163095ea7b360e01b815260001992919091169063095ea7b3906115b0906000805160206133778339815191529085906004016131d1565b6020604051808303816000875af11580156115cf573d6000803e3d6000fd5b505050506040513d601f19601f820116820180604052508101906115f391906131ea565b50606b5460405163095ea7b360e01b81526001600160a01b039091169063095ea7b390611634906000805160206133178339815191529085906004016131d1565b6020604051808303816000875af1158015611653573d6000803e3d6000fd5b505050506040513d601f19601f8201168201806040525081019061167791906131ea565b5060695460405163095ea7b360e01b81526001600160a01b039091169063095ea7b3906116b8906000805160206133178339815191529085906004016131d1565b6020604051808303816000875af11580156116d7573d6000803e3d6000fd5b505050506040513d601f19601f820116820180604052508101906116fb91906131ea565b50606a5460405163095ea7b360e01b81526001600160a01b039091169063095ea7b39061173c906000805160206133178339815191529085906004016131d1565b6020604051808303816000875af115801561175b573d6000803e3d6000fd5b505050506040513d601f19601f8201168201806040525081019061177f91906131ea565b50606c5460405163095ea7b360e01b81526001600160a01b039091169063095ea7b3906117c0906000805160206133178339815191529085906004016131d1565b6020604051808303816000875af11580156117df573d6000803e3d6000fd5b505050506040513d601f19601f8201168201806040525081019061180391906131ea565b50606d5460405163095ea7b360e01b81526001600160a01b039091169063095ea7b390611844906000805160206133178339815191529085906004016131d1565b6020604051808303816000875af1158015611863573d6000803e3d6000fd5b505050506040513d601f19601f8201168201806040525081019061188791906131ea565b5050436071555062124f806072558015610a2c576003805461ff00191690555050565b336118b3611e20565b6001600160a01b0316146118c657600080fd5b43811161110957600080fd5b60008080336118df611e20565b6001600160a01b0316146118f257600080fd5b600260685414156119155760405162461bcd60e51b815260040161061590612e1e565b60026068556000871580159061192b5750600087115b156119d957606c54606d546000805160206133178339815191529163e8e33700916001600160a01b0391821691168b8b6000803061196b42610258612e6c565b6040518963ffffffff1660e01b815260040161198e989796959493929190613015565b6060604051808303816000875af11580156119ad573d6000803e3d6000fd5b505050506040513d601f19601f820116820180604052508101906119d1919061305e565b919550935090505b6119e38682612e6c565b9150600082116119f257600080fd5b6119fb85611e2f565b600043606f541115611a1c5743606f54611a159190612e55565b9050611a2e565b6002607254611a2b9190612d88565b90505b600060785482607754611a419190612d69565b611a4b9190612e6c565b9050600081611a5a8487612d69565b611a649190612e6c565b6001600160a01b038916600090815260736020526040812080549293508792909190611a91908490612e6c565b925050819055508460776000828254611aaa9190612e6c565b90915550508115611ad2578181607054611ac49190612d69565b611ace9190612d88565b6070555b611add83828a6121b2565b606e54604051638dbdbe6d60e01b815260008051602061337783398151915291638dbdbe6d91611b14919089903090600401612e84565b600060405180830381600087803b158015611b2e57600080fd5b505af1158015611b42573d6000803e3d6000fd5b50505050611b6988888d611b569190612e55565b606c546001600160a01b031691906120c6565b611b8a88611b77888d612e55565b606d546001600160a01b031691906120c6565b50506001606855509297919650945092505050565b6001600160a01b0383811660008181526002602090815260408083209487168084529482529182902085905590518481527f8c5be1e5ebec7d5bd14f71427d1e84f3dd0314c0f7b2291e5b200ac8c7c3b92591015b60405180910390a3505050565b60006105c58284612e55565b6001600160a01b038316600090815260016020526040902054611c309082611c01565b6001600160a01b038085166000908152600160205260408082209390935590841681522054611c5f9082612284565b6001600160a01b0380841660008181526001602052604090819020939093559151908516906000805160206133be83398151915290611bf49085815260200190565b600080516020613357833981519152546001600160a01b031690565b33611cc6611e20565b6001600160a01b03161461069b57600080fd5b6000611ce3611ca1565b9050611cee84612290565b600083511180611cfb5750815b15611d0c57611d0a8484612323565b505b7f4910fdfa16fed3260ed0e7147f7cc6da11a60208b5b9406d12a635614ffd9143805460ff16611e1957805460ff19166001178155604051611d87908690611d58908590602401612a11565b60408051601f198184030181529190526020810180516001600160e01b0316631b2ce7f360e11b179052612323565b50805460ff19168155611d98611ca1565b6001600160a01b0316826001600160a01b031614611e105760405162461bcd60e51b815260206004820152602f60248201527f45524331393637557067726164653a207570677261646520627265616b73206660448201526e75727468657220757067726164657360881b6064820152608401610615565b611e1985612348565b5050505050565b6036546001600160a01b031690565b6001600160a01b0381166000908152607660209081526040808320607154845290915290205460ff1615611ec9576001600160a01b038116600090815260736020908152604080832054607590925290912054611e8c9043612e55565b611e969190612d69565b6001600160a01b03821660009081526074602052604081208054909190611ebe908490612e6c565b90915550611f3e9050565b611ed281610490565b6001600160a01b0382166000908152607360205260409020819055607154611efa9043612e55565b611f049190612d69565b6001600160a01b038216600090815260746020908152604080832093909355607681528282206071548352905220805460ff191660011790555b6071546079541115611f8057607754607954611f5a9043612e55565b611f649190612d69565b60786000828254611f759190612e6c565b90915550611f9e9050565b607754607154611f909043612e55565b611f9a9190612d69565b6078555b6001600160a01b031660009081526075602052604090204390819055607955565b6001600160a01b038116600090815260736020526040902054612005576001600160a01b038116600090815260016020526040902054612000908290612388565b505050565b600080546001600160a01b03831682526001602052604090912054141561202b57505050565b6000612038848484612408565b90506120c0828261204b6012600a6132eb565b6120559190612e55565b6120616012600a6132eb565b60005461206e9086612d69565b6120789190612d88565b6001600160a01b03861660009081526001602052604090205461209b9190612e55565b6120a76012600a6132eb565b6120b19190612d69565b6120bb9190612d88565b612388565b50505050565b6120008363a9059cbb60e01b84846040516024016120e59291906131d1565b60408051601f198184030181529190526020810180516001600160e01b03166001600160e01b0319909316929092179091526124bb565b60006121273061258d565b15905090565b600354610100900460ff166121485760035460ff1615612150565b61215061211c565b61216c5760405162461bcd60e51b81526004016106159061308c565b600354610100900460ff1615801561218e576003805461ffff19166101011790555b61219661259c565b61219e612609565b801561069b576003805461ff001916905550565b6000546121ce57612000816121c96012600a6132eb565b612690565b600080546001600160a01b0383168252600160205260409091205414156121f457505050565b6000612201848484612408565b90506120c082826122146012600a6132eb565b61221e9190612e55565b6001600160a01b0385166000908152600160205260409020546122436012600a6132eb565b6000546122509087612d69565b61225a9190612d88565b6122649190612e55565b6122706012600a6132eb565b61227a9190612d69565b6121c99190612d88565b60006105c58284612e6c565b803b6122f45760405162461bcd60e51b815260206004820152602d60248201527f455243313936373a206e657720696d706c656d656e746174696f6e206973206e60448201526c1bdd08184818dbdb9d1c9858dd609a1b6064820152608401610615565b60008051602061335783398151915280546001600160a01b0319166001600160a01b0392909216919091179055565b60606105c5838360405180606001604052806027815260200161339760279139612701565b61235181612290565b6040516001600160a01b038216907fbc7cd75a20ee27fd9adebab32041f755214dbc6bffa90cc0225b39da2e5c2d3b90600090a250565b6001600160a01b0382166000908152600160205260409020546123ab9082611c01565b6001600160a01b038316600090815260016020526040812091909155546123d29082611c01565b60009081556040518281526001600160a01b038416906000805160206133be833981519152906020015b60405180910390a35050565b6001600160a01b03811660009081526074602090815260408083205460739092528220548291859161243b908890612d69565b6124459190612e6c565b6070546124529190612d69565b61245c9190612d88565b905060705460775461246e9190612e6c565b6001600160a01b038416600090815260736020526040902054612492908390612e6c565b61249e6012600a6132eb565b6124a89190612d69565b6124b29190612d88565b95945050505050565b6000612510826040518060400160405280602081526020017f5361666545524332303a206c6f772d6c6576656c2063616c6c206661696c6564815250856001600160a01b03166127d59092919063ffffffff16565b805190915015612000578080602001905181019061252e91906131ea565b6120005760405162461bcd60e51b815260206004820152602a60248201527f5361666545524332303a204552433230206f7065726174696f6e20646964206e6044820152691bdd081cdd58d8d9595960b21b6064820152608401610615565b6001600160a01b03163b151590565b600354610100900460ff166126075760405162461bcd60e51b815260206004820152602b60248201527f496e697469616c697a61626c653a20636f6e7472616374206973206e6f74206960448201526a6e697469616c697a696e6760a81b6064820152608401610615565b565b600354610100900460ff166126245760035460ff161561262c565b61262c61211c565b6126485760405162461bcd60e51b81526004016106159061308c565b600354610100900460ff1615801561266a576003805461ffff19166101011790555b603680546001600160a01b03191633179055801561069b576003805461ff001916905550565b60005461269d9082612284565b60009081556001600160a01b0383168152600160205260409020546126c29082612284565b6001600160a01b0383166000818152600160205260408082209390935591519091906000805160206133be833981519152906123fc9085815260200190565b6060833b6127605760405162461bcd60e51b815260206004820152602660248201527f416464726573733a2064656c65676174652063616c6c20746f206e6f6e2d636f6044820152651b9d1c9858dd60d21b6064820152608401610615565b600080856001600160a01b03168560405161277b91906132fa565b600060405180830381855af49150503d80600081146127b6576040519150601f19603f3d011682016040523d82523d6000602084013e6127bb565b606091505b50915091506127cb8282866127ec565b9695505050505050565b60606127e48484600085612825565b949350505050565b606083156127fb5750816105c5565b82511561280b5782518084602001fd5b8160405162461bcd60e51b815260040161061591906129b2565b6060824710156128865760405162461bcd60e51b815260206004820152602660248201527f416464726573733a20696e73756666696369656e742062616c616e636520666f6044820152651c8818d85b1b60d21b6064820152608401610615565b61288f8561258d565b6128db5760405162461bcd60e51b815260206004820152601d60248201527f416464726573733a2063616c6c20746f206e6f6e2d636f6e74726163740000006044820152606401610615565b600080866001600160a01b031685876040516128f791906132fa565b60006040518083038185875af1925050503d8060008114612934576040519150601f19603f3d011682016040523d82523d6000602084013e612939565b606091505b50915091506129498282866127ec565b979650505050505050565b6001600160a01b038116811461069b57600080fd5b60006020828403121561297b57600080fd5b81356105c581612954565b60005b838110156129a1578181015183820152602001612989565b838111156120c05750506000910152565b60208152600082518060208401526129d1816040850160208701612986565b601f01601f19169190910160400192915050565b600080604083850312156129f857600080fd5b8235612a0381612954565b946020939093013593505050565b6001600160a01b0391909116815260200190565b600080600060608486031215612a3a57600080fd5b8335612a4581612954565b92506020840135612a5581612954565b929592945050506040919091013590565b801515811461069b57600080fd5b60008060008060808587031215612a8a57600080fd5b8435612a9581612954565b9350602085013592506040850135612aac81612a66565b91506060850135612abc81612954565b939692955090935050565b634e487b7160e01b600052604160045260246000fd5b604051601f8201601f191681016001600160401b0381118282101715612b0557612b05612ac7565b604052919050565b60008060408385031215612b2057600080fd5b8235612b2b81612954565b91506020838101356001600160401b0380821115612b4857600080fd5b818601915086601f830112612b5c57600080fd5b813581811115612b6e57612b6e612ac7565b612b80601f8201601f19168501612add565b91508082528784828501011115612b9657600080fd5b80848401858401376000848284010152508093505050509250929050565b60008083601f840112612bc657600080fd5b5081356001600160401b03811115612bdd57600080fd5b6020830191508360208260051b8501011115612bf857600080fd5b9250929050565b6000806000806000806000806080898b031215612c1b57600080fd5b88356001600160401b0380821115612c3257600080fd5b612c3e8c838d01612bb4565b909a50985060208b0135915080821115612c5757600080fd5b612c638c838d01612bb4565b909850965060408b0135915080821115612c7c57600080fd5b612c888c838d01612bb4565b909650945060608b0135915080821115612ca157600080fd5b50612cae8b828c01612bb4565b999c989b5096995094979396929594505050565b60008060408385031215612cd557600080fd5b8235612ce081612954565b91506020830135612cf081612954565b809150509250929050565b60008060408385031215612d0e57600080fd5b50508035926020909101359150565b60008060008060808587031215612d3357600080fd5b8435935060208501359250604085013591506060850135612abc81612954565b634e487b7160e01b600052601160045260246000fd5b6000816000190483118215151615612d8357612d83612d53565b500290565b600082612da557634e487b7160e01b600052601260045260246000fd5b500490565b6020808252602c9082015260008051602061333783398151915260408201526b19195b1959d85d1958d85b1b60a21b606082015260800190565b6020808252602c9082015260008051602061333783398151915260408201526b6163746976652070726f787960a01b606082015260800190565b6020808252601f908201527f5265656e7472616e637947756172643a207265656e7472616e742063616c6c00604082015260600190565b600082821015612e6757612e67612d53565b500390565b60008219821115612e7f57612e7f612d53565b500190565b92835260208301919091526001600160a01b0316604082015260600190565b60008060408385031215612eb657600080fd5b505080516020909101519092909150565b600060208284031215612ed957600080fd5b5051919050565b868152602080820187905260a0604083018190528201859052600090869060c08401835b88811015612f32578335612f1781612954565b6001600160a01b031682529282019290820190600101612f04565b506001600160a01b0396909616606085015250505060800152949350505050565b60006001600160401b03821115612f6c57612f6c612ac7565b5060051b60200190565b600082601f830112612f8757600080fd5b81516020612f9c612f9783612f53565b612add565b82815260059290921b84018101918181019086841115612fbb57600080fd5b8286015b84811015612fd65780518352918301918301612fbf565b509695505050505050565b600060208284031215612ff357600080fd5b81516001600160401b0381111561300957600080fd5b6127e484828501612f76565b6001600160a01b039889168152968816602088015260408701959095526060860193909352608085019190915260a084015290921660c082015260e08101919091526101000190565b60008060006060848603121561307357600080fd5b8351925060208401519150604084015190509250925092565b6020808252602e908201527f496e697469616c697a61626c653a20636f6e747261637420697320616c72656160408201526d191e481a5b9a5d1a585b1a5e995960921b606082015260800190565b6000602082840312156130ec57600080fd5b81516105c581612954565b6000806040838503121561310a57600080fd5b82516001600160401b038082111561312157600080fd5b818501915085601f83011261313557600080fd5b81516020613145612f9783612f53565b82815260059290921b8401810191818101908984111561316457600080fd5b948201945b8386101561318b57855161317c81612954565b82529482019490820190613169565b918801519196509093505050808211156131a457600080fd5b506131b185828601612f76565b9150509250929050565b634e487b7160e01b600052603260045260246000fd5b6001600160a01b03929092168252602082015260400190565b6000602082840312156131fc57600080fd5b81516105c581612a66565b600181815b8085111561324257816000190482111561322857613228612d53565b8085161561323557918102915b93841c939080029061320c565b509250929050565b6000826132595750600161051b565b816132665750600061051b565b816001811461327c5760028114613286576132a2565b600191505061051b565b60ff84111561329757613297612d53565b50506001821b61051b565b5060208310610133831016604e8410600b84101617156132c5575081810a61051b565b6132cf8383613207565b80600019048211156132e3576132e3612d53565b029392505050565b60006105c560ff84168361324a565b6000825161330c818460208701612986565b919091019291505056fe0000000000000000000000001b02da8cb0d097eb8d57a175b88c7d8b4799750646756e6374696f6e206d7573742062652063616c6c6564207468726f75676820360894a13ba1a3210667c828492db98dca3e2076cc3735a920a3ca505d382bbc0000000000000000000000000769fd68dfb93167989c6f7254cd0d766fb2841f416464726573733a206c6f772d6c6576656c2064656c65676174652063616c6c206661696c6564ddf252ad1be2c89b69c2b068fc378daa952ba7f163c4a11628f55a4df523b3efa264697066735822122056c8777e7f48dfeb6a82968bf119cb7eda5491a7459d73c88195abe2e1dddd3464736f6c634300080a0033",
  "immutableReferences": {
    "1581": [
      {
        "length": 32,
        "start": 1495
      },
      {
        "length": 32,
        "start": 1568
      },
      {
        "length": 32,
        "start": 2433
      },
      {
        "length": 32,
        "start": 2497
      }
    ]
  },
  "source": "// SPDX-License-Identifier: MIT\r\npragma solidity 0.8.10;\r\n\r\nimport \"../interfaces/IUniswapV2Pair.sol\";\r\nimport \"../interfaces/IUniswapV2Router.sol\";\r\nimport \"../interfaces/IMiniChefV2.sol\";\r\nimport \"../interfaces/IRewarder.sol\";\r\nimport \"../interfaces/IMiniChefUtils.sol\";\r\nimport \"../utils/UniswapV2ERC20.sol\"; \r\nimport \"../utils/OwnableUpgradeableNoTransfer.sol\";\r\nimport \"@openzeppelin/contracts/proxy/utils/UUPSUpgradeable.sol\";\r\nimport \"@openzeppelin/contracts/security/ReentrancyGuard.sol\";\r\nimport \"@openzeppelin/contracts-upgradeable/token/ERC20/utils/SafeERC20Upgradeable.sol\";\r\nimport \"@openzeppelin/contracts-upgradeable/token/ERC20/IERC20Upgradeable.sol\";\r\n\r\ncontract SushiswapFarmUpgradeable is UniswapV2ERC20, UUPSUpgradeable, Initializable, OwnableUpgradeableNoTransfer, ReentrancyGuard {\r\n    using SafeERC20Upgradeable for IERC20Upgradeable;\r\n\r\n    /**\r\n     * @dev Tokens Used:\r\n     * {rewardToken} - Token generated by staking (SUSHI).\r\n     * {rewarderToken} - Token generated by ComplexRewarderTime contract.\r\n     * {lpPair} - Token that the strategy maximizes. The same token that users deposit in the {lpStakingPool}.\r\n     * {tokenA, tokenB} - Tokens that the strategy maximizes.\r\n     */\r\n    address public rewardToken;\r\n    address public rewarderToken;\r\n    address public lpPair;\r\n    address public tokenA;\r\n    address public tokenB;\r\n\r\n    /**\r\n     * @dev Third Party Contracts:\r\n     * {sushiswapRouter} - The contract that executes swaps.\r\n     * {MiniChef} -The contract that distibutes {rewardToken}.\r\n     */\r\n    IUniswapV2Router01 private constant sushiswapRouter = IUniswapV2Router01(0x1b02dA8Cb0d097eB8D57A175b88c7D8b47997506);\r\n    IMiniChefV2 private constant MiniChef = IMiniChefV2(0x0769fd68dFb93167989C6f7254cd0D766Fb2841F);\r\n    IMiniChefUtils private constant MiniChefUtils = IMiniChefUtils(0xBeE6dbb6606bb65953a24c254945cA95aEb22671);\r\n    \r\n    /**\r\n     * @dev Contract Variables:\r\n     *\r\n     *\r\n     *\r\n     */\r\n    uint256 private pid;\r\n\r\n    uint256 private expectedRewardBlock;\r\n    uint256 private expectedReward;\r\n    uint256 private lastRewardBlock;\r\n    uint256 private lastRewardPeriod;\r\n\r\n    mapping(address => uint256) private userDeposit;\r\n    mapping(address => uint256) private userDepositAge;\r\n    mapping(address => uint256) private userDALastUpdated;\r\n    mapping(address => mapping(uint256 => bool)) private userDepositChanged;\r\n\r\n    uint256 public totalDeposits;\r\n    uint256 private totalDepositAge;\r\n    uint256 private totalDALastUpdated;\r\n\r\n    uint256 private constant fractionMultiplier = 10**decimals;\r\n\r\n    // ============ Methods ============\r\n\r\n    function initialize(address _lpPair) external initializer {\r\n        __Ownable_init();\r\n\r\n        pid = MiniChefUtils.getPid(_lpPair);\r\n\r\n        rewardToken = MiniChef.SUSHI();\r\n        (IERC20[] memory rewarderTokenArray, ) = IRewarder(MiniChef.rewarder(pid)).pendingTokens(pid, address(0), 0);\r\n        rewarderToken = address(rewarderTokenArray[0]);\r\n\r\n        lpPair = MiniChef.lpToken(pid);\r\n\r\n        tokenA = IUniswapV2Pair(lpPair).token0();\r\n        tokenB = IUniswapV2Pair(lpPair).token1();\r\n\r\n        uint256 MAX_UINT = uint256(2**256 - 1);\r\n        IERC20(lpPair).approve(address(MiniChef), MAX_UINT);\r\n        IERC20(lpPair).approve(address(sushiswapRouter), MAX_UINT);\r\n        IERC20(rewardToken).approve(address(sushiswapRouter), MAX_UINT);\r\n        IERC20(rewarderToken).approve(address(sushiswapRouter), MAX_UINT);\r\n        IERC20(tokenA).approve(address(sushiswapRouter), MAX_UINT);\r\n        IERC20(tokenB).approve(address(sushiswapRouter), MAX_UINT);\r\n\r\n        lastRewardBlock = block.number;\r\n        lastRewardPeriod = 1200000; //this is somewhere around 1 month at the time of writing this contract\r\n    }\r\n\r\n    /**\r\n     * @dev Function that makes the deposits.95\r\n     * If it's not the first deposit, withdraws {lpStakingPool} and deposits new tokens with the old ones.\r\n     */\r\n    function deposit(uint256 amountA, uint256 amountB, uint256 amountLP, address recipient) external onlyOwner nonReentrant returns(uint256 sentA, uint256 sentB, uint256 liquidity){\r\n        uint256 addedLiquidity;\r\n        if(amountA > 0 && amountB > 0){\r\n            (sentA, sentB, addedLiquidity) = sushiswapRouter.addLiquidity(tokenA, tokenB, amountA, amountB, 0, 0, address(this), block.timestamp + 600);\r\n        }\r\n        liquidity = addedLiquidity + amountLP;\r\n        require(liquidity > 0);\r\n\r\n        _updateDeposit(recipient);\r\n\r\n        uint256 blocksTillReward;\r\n        if(expectedRewardBlock > block.number){\r\n            blocksTillReward = expectedRewardBlock - block.number;\r\n        }else{\r\n            blocksTillReward = lastRewardPeriod / 2;\r\n        }\r\n\r\n        uint256 totalExpectedDepositAgePrev = totalDeposits * blocksTillReward + totalDepositAge;\r\n        uint256 totalExpectedDepositAge = liquidity * blocksTillReward + totalExpectedDepositAgePrev;\r\n        // update deposit amounts\r\n        userDeposit[recipient] += liquidity;\r\n        totalDeposits += liquidity;\r\n        // expected reward will increase proportionally to the increase of total expected deposit age\r\n        if (totalExpectedDepositAgePrev > 0) {\r\n            expectedReward = expectedReward * totalExpectedDepositAge / totalExpectedDepositAgePrev;\r\n        }\r\n\r\n        _mintLP(blocksTillReward, totalExpectedDepositAge, recipient);\r\n\r\n        MiniChef.deposit(pid, liquidity, address(this));\r\n        IERC20Upgradeable(tokenA).safeTransfer(recipient, amountA - sentA);\r\n        IERC20Upgradeable(tokenB).safeTransfer(recipient, amountB - sentB);\r\n    }\r\n\r\n    /**\r\n     * @dev Withdraws funds and sends them to the {recipient}.\r\n     */\r\n    function withdraw(address origin, uint256 amount, bool withdrawLP, address recipient) external onlyOwner nonReentrant returns(uint256 amountA, uint256 amountB){\r\n        require(amount > 0 && userDeposit[origin] > 0);\r\n\r\n        _updateDeposit(origin);\r\n\r\n        uint256 blocksTillReward;\r\n        if(expectedRewardBlock > block.number){\r\n            blocksTillReward = expectedRewardBlock - block.number;\r\n        }else{\r\n            blocksTillReward = lastRewardPeriod / 2;\r\n        }\r\n\r\n        uint256 totalExpectedDepositAgePrev = totalDeposits * blocksTillReward + totalDepositAge;\r\n        uint256 totalExpectedDepositAge = totalExpectedDepositAgePrev - amount * blocksTillReward;\r\n        // update deposit amounts\r\n        userDeposit[origin] -= amount;\r\n        totalDeposits -= amount;\r\n        // expected reward will decrease proportionally to the decrease of total expected deposit age\r\n        expectedReward = expectedReward * totalExpectedDepositAge / totalExpectedDepositAgePrev;\r\n\r\n        _burnLP(blocksTillReward, totalExpectedDepositAge, origin);\r\n\r\n        MiniChef.withdraw(pid, amount, address(this));\r\n        if(withdrawLP){\r\n            IERC20Upgradeable(lpPair).safeTransfer(recipient, amount);\r\n            return (0, 0);\r\n        }\r\n        (amountA, amountB) = sushiswapRouter.removeLiquidity(tokenA, tokenB, amount, 0, 0, recipient, block.timestamp + 600);\r\n    }\r\n\r\n    function _mintLP(uint256 blocksTillReward, uint256 totalExpectedDepositAge, address recipient) internal {\r\n        if (totalSupply == 0) {\r\n            _mint(recipient, fractionMultiplier);\r\n            return;\r\n        }\r\n        if (balanceOf[recipient] == totalSupply) {\r\n            return;\r\n        }\r\n        uint256 userNewShare = _calculateUserNewShare(blocksTillReward, totalExpectedDepositAge, recipient);\r\n        _mint(recipient, fractionMultiplier * (userNewShare * totalSupply / fractionMultiplier - balanceOf[recipient]) / (fractionMultiplier - userNewShare));\r\n    }\r\n\r\n    function _burnLP(uint256 blocksTillReward, uint256 totalExpectedDepositAge, address origin) internal {\r\n        if(userDeposit[origin] == 0){\r\n            _burn(origin, balanceOf[origin]);\r\n            return;\r\n        }\r\n        if (balanceOf[origin] == totalSupply) {\r\n            return;\r\n        }\r\n        uint256 userNewShare = _calculateUserNewShare(blocksTillReward, totalExpectedDepositAge, origin);\r\n        _burn(origin, fractionMultiplier * (balanceOf[origin] - userNewShare * totalSupply / fractionMultiplier) / (fractionMultiplier - userNewShare));\r\n    }\r\n\r\n    function _calculateUserNewShare (uint256 blocksTillReward, uint256 totalExpectedDepositAge, address _address) internal view returns(uint256) {\r\n        uint256 userExpectedReward = expectedReward * (userDeposit[_address] * blocksTillReward + userDepositAge[_address]) / totalExpectedDepositAge;\r\n        return fractionMultiplier * (userDeposit[_address] + userExpectedReward) / (totalDeposits + expectedReward);\r\n    }\r\n\r\n    function _updateDeposit(address _address) internal {\r\n        if (userDepositChanged[_address][lastRewardBlock]) {\r\n            userDepositAge[_address] += (block.number - userDALastUpdated[_address]) * userDeposit[_address];\r\n        } else {\r\n            // a reward has been distributed, update user deposit\r\n            userDeposit[_address] = userBalance(_address);\r\n            userDepositAge[_address] = (block.number - lastRewardBlock) * userDeposit[_address];\r\n            userDepositChanged[_address][lastRewardBlock] = true;\r\n        }\r\n\r\n        if (totalDALastUpdated > lastRewardBlock) {\r\n            totalDepositAge += (block.number - totalDALastUpdated) * totalDeposits;\r\n        } else {\r\n            totalDepositAge = (block.number - lastRewardBlock) * totalDeposits;\r\n        }\r\n\r\n        userDALastUpdated[_address] = block.number;\r\n        totalDALastUpdated = block.number;\r\n    }\r\n\r\n    \r\n    /**\r\n     * @dev Core function of the strat, in charge of updating, collecting and re-investing rewards.\r\n     * 1. It claims rewards from the {lpStakingPool}.\r\n     * 2. It swaps the {rewardToken} & {rewarderToken} token for {tokenA} & {tokenB}.\r\n     * 3. It deposits the new LP tokens back in the {lpStakingPool}.\r\n     */\r\n    function distribute(address[] calldata rewarderTokenToTokenARoute, address[] calldata rewarderTokenToTokenBRoute, address[] calldata rewardTokenToTokenARoute, address[] calldata rewardTokenToTokenBRoute) external onlyOwner nonReentrant{\r\n        require(totalDeposits > 0);\r\n\r\n        MiniChef.harvest(pid, address(this));\r\n        uint256 rewarderTokenHalf = IERC20(rewarderToken).balanceOf(address(this)) / 2;\r\n        uint256 rewardTokenHalf = IERC20(rewardToken).balanceOf(address(this)) / 2;\r\n\r\n        uint256 deadline = block.timestamp + 600;\r\n        \r\n        if (tokenA != rewarderToken) {\r\n            sushiswapRouter.swapExactTokensForTokens(rewarderTokenHalf, 0, rewarderTokenToTokenARoute, address(this), deadline);\r\n        }\r\n\r\n        if (tokenB != rewarderToken) {\r\n            sushiswapRouter.swapExactTokensForTokens(rewarderTokenHalf, 0, rewarderTokenToTokenBRoute, address(this), deadline);\r\n        }\r\n\r\n        if (tokenA != rewardToken) {\r\n            sushiswapRouter.swapExactTokensForTokens(rewardTokenHalf, 0, rewardTokenToTokenARoute, address(this), deadline);\r\n        }\r\n\r\n        if (tokenB != rewardToken) {\r\n            sushiswapRouter.swapExactTokensForTokens(rewardTokenHalf, 0, rewardTokenToTokenBRoute, address(this), deadline);\r\n        }\r\n\r\n        sushiswapRouter.addLiquidity(tokenA, tokenB, IERC20(tokenA).balanceOf(address(this)), IERC20(tokenB).balanceOf(address(this)), 1, 1, address(this), deadline);\r\n\r\n        uint256 reward = IERC20(lpPair).balanceOf(address(this));\r\n        if (reward > 0) {\r\n            totalDeposits += reward;\r\n            MiniChef.deposit(pid, reward, address(this));\r\n        }\r\n\r\n        lastRewardPeriod = block.number - lastRewardBlock;\r\n        _setExpectedReward(reward, block.number + lastRewardPeriod);\r\n        lastRewardBlock = block.number;\r\n    }\r\n\r\n    function setExpectedReward(uint256 _amount, uint256 _block) external onlyOwner{\r\n        require(_block > block.number);\r\n        _setExpectedReward(_amount, _block);\r\n    }\r\n\r\n    function _setExpectedReward(uint256 _amount, uint256 _block) internal {\r\n        expectedReward = _amount;\r\n        expectedRewardBlock = _block;\r\n    }\r\n\r\n    /**\r\n     * @dev Returns total funds staked by the {_address}.\r\n     */\r\n    function userBalance(address _address) public view returns (uint256) {\r\n        if (userDepositChanged[_address][lastRewardBlock]) {\r\n            return userDeposit[_address];\r\n        } else {\r\n            if (totalSupply == 0) {\r\n                return 0;\r\n            }\r\n            return totalDeposits * balanceOf[_address] / totalSupply;\r\n        }\r\n    }\r\n\r\n    function _authorizeUpgrade(address newImplementation) internal override onlyOwner {\r\n\r\n    }\r\n}",
  "sourcePath": "C:\\Users\\jugli\\Desktop\\uno\\uno-contracts-branch\\contracts\\farms\\SushiswapFarmUpgradeable.sol",
  "compiler": {
    "name": "solc",
    "version": "0.8.10+commit.fc410830.Emscripten.clang"
  },
  "schemaVersion": "3.4.7",
  "updatedAt": "2022-05-09T09:03:00.034Z",
  "devdoc": {
    "kind": "dev",
    "methods": {
      "deposit(uint256,uint256,uint256,address)": {
        "details": "Function that makes the deposits.95 If it's not the first deposit, withdraws {lpStakingPool} and deposits new tokens with the old ones."
      },
      "distribute(address[],address[],address[],address[])": {
        "details": "Core function of the strat, in charge of updating, collecting and re-investing rewards. 1. It claims rewards from the {lpStakingPool}. 2. It swaps the {rewardToken} & {rewarderToken} token for {tokenA} & {tokenB}. 3. It deposits the new LP tokens back in the {lpStakingPool}."
      },
      "upgradeTo(address)": {
        "details": "Upgrade the implementation of the proxy to `newImplementation`. Calls {_authorizeUpgrade}. Emits an {Upgraded} event."
      },
      "upgradeToAndCall(address,bytes)": {
        "details": "Upgrade the implementation of the proxy to `newImplementation`, and subsequently execute the function call encoded in `data`. Calls {_authorizeUpgrade}. Emits an {Upgraded} event."
      },
      "userBalance(address)": {
        "details": "Returns total funds staked by the {_address}."
      },
      "withdraw(address,uint256,bool,address)": {
        "details": "Withdraws funds and sends them to the {recipient}."
      }
    },
    "stateVariables": {
      "pid": {
        "details": "Contract Variables:"
      },
      "rewardToken": {
        "details": "Tokens Used: {rewardToken} - Token generated by staking (SUSHI). {rewarderToken} - Token generated by ComplexRewarderTime contract. {lpPair} - Token that the strategy maximizes. The same token that users deposit in the {lpStakingPool}. {tokenA, tokenB} - Tokens that the strategy maximizes."
      },
      "sushiswapRouter": {
        "details": "Third Party Contracts: {sushiswapRouter} - The contract that executes swaps. {MiniChef} -The contract that distibutes {rewardToken}."
      }
    },
    "version": 1
  },
  "userdoc": {
    "kind": "user",
    "methods": {},
    "version": 1
  }
}