{
  "contractName": "SushiswapFarmUpgradeable",
  "abi": [
    {
      "anonymous": false,
      "inputs": [
        {
          "indexed": false,
          "internalType": "address",
          "name": "previousAdmin",
          "type": "address"
        },
        {
          "indexed": false,
          "internalType": "address",
          "name": "newAdmin",
          "type": "address"
        }
      ],
      "name": "AdminChanged",
      "type": "event"
    },
    {
      "anonymous": false,
      "inputs": [
        {
          "indexed": true,
          "internalType": "address",
          "name": "beacon",
          "type": "address"
        }
      ],
      "name": "BeaconUpgraded",
      "type": "event"
    },
    {
      "anonymous": false,
      "inputs": [
        {
          "indexed": true,
          "internalType": "address",
          "name": "implementation",
          "type": "address"
        }
      ],
      "name": "Upgraded",
      "type": "event"
    },
    {
      "inputs": [],
      "name": "lpPair",
      "outputs": [
        {
          "internalType": "address",
          "name": "",
          "type": "address"
        }
      ],
      "stateMutability": "view",
      "type": "function"
    },
    {
      "inputs": [],
      "name": "owner",
      "outputs": [
        {
          "internalType": "address",
          "name": "",
          "type": "address"
        }
      ],
      "stateMutability": "view",
      "type": "function"
    },
    {
      "inputs": [],
      "name": "pid",
      "outputs": [
        {
          "internalType": "uint256",
          "name": "",
          "type": "uint256"
        }
      ],
      "stateMutability": "view",
      "type": "function"
    },
    {
      "inputs": [],
      "name": "rewardToken",
      "outputs": [
        {
          "internalType": "address",
          "name": "",
          "type": "address"
        }
      ],
      "stateMutability": "view",
      "type": "function"
    },
    {
      "inputs": [],
      "name": "rewarderToken",
      "outputs": [
        {
          "internalType": "address",
          "name": "",
          "type": "address"
        }
      ],
      "stateMutability": "view",
      "type": "function"
    },
    {
      "inputs": [],
      "name": "tokenA",
      "outputs": [
        {
          "internalType": "address",
          "name": "",
          "type": "address"
        }
      ],
      "stateMutability": "view",
      "type": "function"
    },
    {
      "inputs": [],
      "name": "tokenB",
      "outputs": [
        {
          "internalType": "address",
          "name": "",
          "type": "address"
        }
      ],
      "stateMutability": "view",
      "type": "function"
    },
    {
      "inputs": [
        {
          "internalType": "address",
          "name": "newImplementation",
          "type": "address"
        }
      ],
      "name": "upgradeTo",
      "outputs": [],
      "stateMutability": "nonpayable",
      "type": "function"
    },
    {
      "inputs": [
        {
          "internalType": "address",
          "name": "newImplementation",
          "type": "address"
        },
        {
          "internalType": "bytes",
          "name": "data",
          "type": "bytes"
        }
      ],
      "name": "upgradeToAndCall",
      "outputs": [],
      "stateMutability": "payable",
      "type": "function"
    },
    {
      "inputs": [
        {
          "internalType": "address",
          "name": "_lpPair",
          "type": "address"
        }
      ],
      "name": "initialize",
      "outputs": [],
      "stateMutability": "nonpayable",
      "type": "function"
    },
    {
      "inputs": [
        {
          "internalType": "uint256",
          "name": "amountA",
          "type": "uint256"
        },
        {
          "internalType": "uint256",
          "name": "amountB",
          "type": "uint256"
        },
        {
          "internalType": "uint256",
          "name": "amountLP",
          "type": "uint256"
        },
        {
          "internalType": "address",
          "name": "recipient",
          "type": "address"
        }
      ],
      "name": "deposit",
      "outputs": [
        {
          "internalType": "uint256",
          "name": "sentA",
          "type": "uint256"
        },
        {
          "internalType": "uint256",
          "name": "sentB",
          "type": "uint256"
        },
        {
          "internalType": "uint256",
          "name": "liquidity",
          "type": "uint256"
        }
      ],
      "stateMutability": "nonpayable",
      "type": "function"
    },
    {
      "inputs": [
        {
          "internalType": "address",
          "name": "origin",
          "type": "address"
        },
        {
          "internalType": "uint256",
          "name": "amount",
          "type": "uint256"
        },
        {
          "internalType": "bool",
          "name": "withdrawLP",
          "type": "bool"
        },
        {
          "internalType": "address",
          "name": "recipient",
          "type": "address"
        }
      ],
      "name": "withdraw",
      "outputs": [
        {
          "internalType": "uint256",
          "name": "amountA",
          "type": "uint256"
        },
        {
          "internalType": "uint256",
          "name": "amountB",
          "type": "uint256"
        }
      ],
      "stateMutability": "nonpayable",
      "type": "function"
    },
    {
      "inputs": [
        {
          "internalType": "address[]",
          "name": "_rewarderTokenToTokenARoute",
          "type": "address[]"
        },
        {
          "internalType": "address[]",
          "name": "_rewarderTokenToTokenBRoute",
          "type": "address[]"
        },
        {
          "internalType": "address[]",
          "name": "_rewardTokenToTokenARoute",
          "type": "address[]"
        },
        {
          "internalType": "address[]",
          "name": "_rewardTokenToTokenBRoute",
          "type": "address[]"
        }
      ],
      "name": "distribute",
      "outputs": [],
      "stateMutability": "nonpayable",
      "type": "function"
    },
    {
      "inputs": [
        {
          "internalType": "address",
          "name": "_address",
          "type": "address"
        }
      ],
      "name": "userBalance",
      "outputs": [
        {
          "internalType": "uint256",
          "name": "",
          "type": "uint256"
        }
      ],
      "stateMutability": "view",
      "type": "function"
    },
    {
      "inputs": [],
      "name": "getTotalDeposits",
      "outputs": [
        {
          "internalType": "uint256",
          "name": "",
          "type": "uint256"
        }
      ],
      "stateMutability": "view",
      "type": "function"
    }
  ],
  "bytecode": "0x60a06040523060805234801561001457600080fd5b506001606555608051612b0f61004a6000396000818161038e015281816103d70152818161065a015261069a0152612b0f6000f3fe6080604052600436106100b85760003560e01c80630103c92b146100bd5780630fc63d10146100f0578063168a48221461011d5780632a8dc131146101325780633659cfe614610152578063430004c114610174578063452ed4f1146101a95780634f1ef286146101c95780635f64b55b146101dc57806373ad67d7146101fc5780638da5cb5b1461021c578063c4d66de814610231578063f106845414610251578063f7c618c114610267578063fad3cc4b14610287575b600080fd5b3480156100c957600080fd5b506100dd6100d8366004612221565b6102c2565b6040519081526020015b60405180910390f35b3480156100fc57600080fd5b50606954610110906001600160a01b031681565b6040516100e7919061223e565b34801561012957600080fd5b506100dd61034d565b34801561013e57600080fd5b50606754610110906001600160a01b031681565b34801561015e57600080fd5b5061017261016d366004612221565b610383565b005b34801561018057600080fd5b5061019461018f366004612260565b610455565b604080519283526020830191909152016100e7565b3480156101b557600080fd5b50606854610110906001600160a01b031681565b6101726101d73660046122f9565b61064f565b3480156101e857600080fd5b50606a54610110906001600160a01b031681565b34801561020857600080fd5b506101726102173660046123eb565b610709565b34801561022857600080fd5b50610110610e31565b34801561023d57600080fd5b5061017261024c366004612221565b610e40565b34801561025d57600080fd5b506100dd606b5481565b34801561027357600080fd5b50606654610110906001600160a01b031681565b34801561029357600080fd5b506102a76102a23660046124ae565b611561565b604080519384526020840192909252908201526060016100e7565b6001600160a01b038116600090815260706020526040812054606e54829161032091670de0b6b3a76400009161031a916102fb91611752565b6001600160a01b0387166000908152606f60205260409020549061175e565b9061176a565b6001600160a01b0384166000908152606f60205260409020549091506103469082611776565b9392505050565b600061037e610375670de0b6b3a764000061031a606e54606d5461175e90919063ffffffff16565b606d5490611776565b905090565b306001600160a01b037f00000000000000000000000000000000000000000000000000000000000000001614156103d55760405162461bcd60e51b81526004016103cc906124e4565b60405180910390fd5b7f00000000000000000000000000000000000000000000000000000000000000006001600160a01b0316610407611782565b6001600160a01b03161461042d5760405162461bcd60e51b81526004016103cc9061251e565b6104368161179e565b60408051600080825260208201909252610452918391906117ba565b50565b60008033610461610e31565b6001600160a01b03161461047457600080fd5b600260655414156104975760405162461bcd60e51b81526004016103cc90612558565b60026065556001600160a01b0386166000908152606f60205260409020546105115760405162461bcd60e51b815260206004820152602760248201527f54686520616d6f756e74207374616b65642073686f756c64206265206d6f72656044820152660207468616e20360cc1b60648201526084016103cc565b600061051c87611901565b9050600061052a8288611752565b9050801561053c5761053c88826119c5565b851561056757606854610559906001600160a01b03168689611a6c565b60008093509350505061063f565b606954606a54600080516020612a338339815191529163baa2abde916001600160a01b0391821691168a6000808b6105a142610258611776565b60405160e089901b6001600160e01b03191681526001600160a01b039788166004820152958716602487015260448601949094526064850192909252608484015290921660a482015260c481019190915260e40160408051808303816000875af1158015610613573d6000803e3d6000fd5b505050506040513d601f19601f82011682018060405250810190610637919061258f565b909450925050505b6001606555909590945092505050565b306001600160a01b037f00000000000000000000000000000000000000000000000000000000000000001614156106985760405162461bcd60e51b81526004016103cc906124e4565b7f00000000000000000000000000000000000000000000000000000000000000006001600160a01b03166106ca611782565b6001600160a01b0316146106f05760405162461bcd60e51b81526004016103cc9061251e565b6106f98261179e565b610705828260016117ba565b5050565b33610712610e31565b6001600160a01b03161461072557600080fd5b600260655414156107485760405162461bcd60e51b81526004016103cc90612558565b6002606555606d546107ac5760405162461bcd60e51b815260206004820152602760248201527f54686572652073686f756c6420626520736f6d6520746f6b656e7320696e20746044820152661a19481c1bdbdb60ca1b60648201526084016103cc565b606b54604051630c7e663b60e11b81526004810191909152306024820152600080516020612a93833981519152906318fccc7690604401600060405180830381600087803b1580156107fd57600080fd5b505af1158015610811573d6000803e3d6000fd5b50506066546040516370a0823160e01b81526000935061088e92506002916001600160a01b0316906370a082319061084d90309060040161223e565b602060405180830381865afa15801561086a573d6000803e3d6000fd5b505050506040513d601f19601f8201168201806040525081019061031a91906125b3565b606c549091506001600160a01b031615610a2f576067546040516370a0823160e01b81526000916108da916002916001600160a01b0316906370a082319061084d90309060040161223e565b6067546069549192506001600160a01b0391821691161461098557600080516020612a338339815191526338ed17398260008d8d3061091b42610258611776565b6040518763ffffffff1660e01b815260040161093c969594939291906125cc565b6000604051808303816000875af115801561095b573d6000803e3d6000fd5b505050506040513d6000823e601f3d908101601f1916820160405261098391908101906126cd565b505b606754606a546001600160a01b03908116911614610a2d57600080516020612a338339815191526338ed17398260008b8b306109c342610258611776565b6040518763ffffffff1660e01b81526004016109e4969594939291906125cc565b6000604051808303816000875af1158015610a03573d6000803e3d6000fd5b505050506040513d6000823e601f3d908101601f19168201604052610a2b91908101906126cd565b505b505b6066546069546001600160a01b03908116911614610ad757600080516020612a338339815191526338ed1739826000888830610a6d42610258611776565b6040518763ffffffff1660e01b8152600401610a8e969594939291906125cc565b6000604051808303816000875af1158015610aad573d6000803e3d6000fd5b505050506040513d6000823e601f3d908101601f19168201604052610ad591908101906126cd565b505b606654606a546001600160a01b03908116911614610b7f57600080516020612a338339815191526338ed1739826000868630610b1542610258611776565b6040518763ffffffff1660e01b8152600401610b36969594939291906125cc565b6000604051808303816000875af1158015610b55573d6000803e3d6000fd5b505050506040513d6000823e601f3d908101601f19168201604052610b7d91908101906126cd565b505b6069546040516370a0823160e01b81526000916001600160a01b0316906370a0823190610bb090309060040161223e565b602060405180830381865afa158015610bcd573d6000803e3d6000fd5b505050506040513d601f19601f82011682018060405250810190610bf191906125b3565b606a546040516370a0823160e01b81529192506000916001600160a01b03909116906370a0823190610c2790309060040161223e565b602060405180830381865afa158015610c44573d6000803e3d6000fd5b505050506040513d601f19601f82011682018060405250810190610c6891906125b3565b606954606a54919250600080516020612a338339815191529163e8e33700916001600160a01b039081169116858560018030610ca642610258611776565b6040518963ffffffff1660e01b8152600401610cc9989796959493929190612701565b6060604051808303816000875af1158015610ce8573d6000803e3d6000fd5b505050506040513d601f19601f82011682018060405250810190610d0c919061274a565b50506068546040516370a0823160e01b8152600092506001600160a01b03909116906370a0823190610d4290309060040161223e565b602060405180830381865afa158015610d5f573d6000803e3d6000fd5b505050506040513d601f19601f82011682018060405250810190610d8391906125b3565b90508015610e1e57606d54610db190610da89061031a670de0b6b3a76400008561175e565b606e5490611776565b606e55606b54604051638dbdbe6d60e01b8152600080516020612a9383398151915291638dbdbe6d91610deb919085903090600401612778565b600060405180830381600087803b158015610e0557600080fd5b505af1158015610e19573d6000803e3d6000fd5b505050505b5050600160655550505050505050505050565b6033546001600160a01b031690565b600054610100900460ff16610e5b5760005460ff1615610e63565b610e63611ac7565b610e7f5760405162461bcd60e51b81526004016103cc90612797565b600054610100900460ff16158015610ea1576000805461ffff19166101011790555b610ea9611ad8565b610eb282611b5d565b606b81905550600080516020612a938339815191526001600160a01b031663ab560e106040518163ffffffff1660e01b8152600401602060405180830381865afa158015610f04573d6000803e3d6000fd5b505050506040513d601f19601f82011682018060405250810190610f2891906127e5565b606680546001600160a01b0319166001600160a01b0392909216919091179055606b5460405163c346253d60e01b81526004810191909152600080516020612a938339815191529063c346253d90602401602060405180830381865afa158015610f96573d6000803e3d6000fd5b505050506040513d601f19601f82011682018060405250810190610fba91906127e5565b606c80546001600160a01b0319166001600160a01b03929092169182179055156110a857606c54606b5460405163d63b3c4960e01b8152600481019190915260006024820181905260448201819052916001600160a01b03169063d63b3c4990606401600060405180830381865afa15801561103a573d6000803e3d6000fd5b505050506040513d6000823e601f3d908101601f191682016040526110629190810190612802565b50905080600081518110611078576110786128c6565b6020026020010151606760006101000a8154816001600160a01b0302191690836001600160a01b03160217905550505b606b546040516378ed5d1f60e01b81526004810191909152600080516020612a93833981519152906378ed5d1f90602401602060405180830381865afa1580156110f6573d6000803e3d6000fd5b505050506040513d601f19601f8201168201806040525081019061111a91906127e5565b606880546001600160a01b0319166001600160a01b0392909216918217905560408051630dfe168160e01b81529051630dfe1681916004808201926020929091908290030181865afa158015611174573d6000803e3d6000fd5b505050506040513d601f19601f8201168201806040525081019061119891906127e5565b606980546001600160a01b0319166001600160a01b039283161790556068546040805163d21220a760e01b81529051919092169163d21220a79160048083019260209291908290030181865afa1580156111f6573d6000803e3d6000fd5b505050506040513d601f19601f8201168201806040525081019061121a91906127e5565b606a80546001600160a01b0319166001600160a01b0392831617905560685460405163095ea7b360e01b815260001992919091169063095ea7b39061127390600080516020612a938339815191529085906004016128dc565b6020604051808303816000875af1158015611292573d6000803e3d6000fd5b505050506040513d601f19601f820116820180604052508101906112b691906128f5565b5060685460405163095ea7b360e01b81526001600160a01b039091169063095ea7b3906112f790600080516020612a338339815191529085906004016128dc565b6020604051808303816000875af1158015611316573d6000803e3d6000fd5b505050506040513d601f19601f8201168201806040525081019061133a91906128f5565b5060665460405163095ea7b360e01b81526001600160a01b039091169063095ea7b39061137b90600080516020612a338339815191529085906004016128dc565b6020604051808303816000875af115801561139a573d6000803e3d6000fd5b505050506040513d601f19601f820116820180604052508101906113be91906128f5565b5060675460405163095ea7b360e01b81526001600160a01b039091169063095ea7b3906113ff90600080516020612a338339815191529085906004016128dc565b6020604051808303816000875af115801561141e573d6000803e3d6000fd5b505050506040513d601f19601f8201168201806040525081019061144291906128f5565b5060695460405163095ea7b360e01b81526001600160a01b039091169063095ea7b39061148390600080516020612a338339815191529085906004016128dc565b6020604051808303816000875af11580156114a2573d6000803e3d6000fd5b505050506040513d601f19601f820116820180604052508101906114c691906128f5565b50606a5460405163095ea7b360e01b81526001600160a01b039091169063095ea7b39061150790600080516020612a338339815191529085906004016128dc565b6020604051808303816000875af1158015611526573d6000803e3d6000fd5b505050506040513d601f19601f8201168201806040525081019061154a91906128f5565b50508015610705576000805461ff00191690555050565b600080803361156e610e31565b6001600160a01b03161461158157600080fd5b600260655414156115a45760405162461bcd60e51b81526004016103cc90612558565b60026065556001600160a01b0384166000908152606f6020526040812054156115d3576115d085611901565b90505b600080891180156115e45750600088115b1561169257606954606a54600080516020612a338339815191529163e8e33700916001600160a01b0391821691168c8c6000803061162442610258611776565b6040518963ffffffff1660e01b8152600401611647989796959493929190612701565b6060604051808303816000875af1158015611666573d6000803e3d6000fd5b505050506040513d601f19601f8201168201806040525081019061168a919061274a565b919650945090505b61169c8188611776565b9250600083116116e95760405162461bcd60e51b8152602060048201526018602482015277054686520616d6f756e742070726f766964656420697320360441b60448201526064016103cc565b6116fc866116f78585611776565b6119c5565b61171d8661170a8b88611752565b6069546001600160a01b03169190611a6c565b61173e8661172b8a87611752565b606a546001600160a01b03169190611a6c565b505060016065819055509450945094915050565b60006103468284612928565b6000610346828461293f565b6000610346828461295e565b60006103468284612980565b600080516020612a73833981519152546001600160a01b031690565b336117a7610e31565b6001600160a01b03161461045257600080fd5b60006117c4611782565b90506117cf84611cec565b6000835111806117dc5750815b156117ed576117eb8484611d7f565b505b7f4910fdfa16fed3260ed0e7147f7cc6da11a60208b5b9406d12a635614ffd9143805460ff166118fa57805460ff1916600117815560405161186890869061183990859060240161223e565b60408051601f198184030181529190526020810180516001600160e01b0316631b2ce7f360e11b179052611d7f565b50805460ff19168155611879611782565b6001600160a01b0316826001600160a01b0316146118f15760405162461bcd60e51b815260206004820152602f60248201527f45524331393637557067726164653a207570677261646520627265616b73206660448201526e75727468657220757067726164657360881b60648201526084016103cc565b6118fa85611da4565b5050505050565b60008061190d836102c2565b6001600160a01b0384166000908152606f6020526040902054606d549192506119369190611752565b606d556001600160a01b0383166000908152606f602052604080822091909155606b549051630ad58d2f60e01b8152600080516020612a9383398151915291630ad58d2f9161198c919085903090600401612778565b600060405180830381600087803b1580156119a657600080fd5b505af11580156119ba573d6000803e3d6000fd5b509295945050505050565b6001600160a01b0382166000908152606f60209081526040808320849055606e54607090925290912055606d546119fc9082611776565b606d55606b54604051638dbdbe6d60e01b8152600080516020612a9383398151915291638dbdbe6d91611a36919085903090600401612778565b600060405180830381600087803b158015611a5057600080fd5b505af1158015611a64573d6000803e3d6000fd5b505050505050565b611ac28363a9059cbb60e01b8484604051602401611a8b9291906128dc565b60408051601f198184030181529190526020810180516001600160e01b03166001600160e01b031990931692909217909152611de4565b505050565b6000611ad230611eb6565b15905090565b600054610100900460ff16611af35760005460ff1615611afb565b611afb611ac7565b611b175760405162461bcd60e51b81526004016103cc90612797565b600054610100900460ff16158015611b39576000805461ffff19166101011790555b611b41611ec5565b611b49611f32565b8015610452576000805461ff001916905550565b600080805b600080516020612a938339815191526001600160a01b031663081e3eda6040518163ffffffff1660e01b8152600401602060405180830381865afa158015611bae573d6000803e3d6000fd5b505050506040513d601f19601f82011682018060405250810190611bd291906125b3565b811015611c7f576040516378ed5d1f60e01b8152600481018290526001600160a01b03851690600080516020612a93833981519152906378ed5d1f90602401602060405180830381865afa158015611c2e573d6000803e3d6000fd5b505050506040513d601f19601f82011682018060405250810190611c5291906127e5565b6001600160a01b03161415611c6d5780925060019150611c7f565b80611c7781612998565b915050611b62565b5080611ce65760405162461bcd60e51b815260206004820152603060248201527f54686520706f6f6c20776974682074686520676976656e207061697220746f6b60448201526f195b88191bd95cdb89dd08195e1a5cdd60821b60648201526084016103cc565b50919050565b803b611d505760405162461bcd60e51b815260206004820152602d60248201527f455243313936373a206e657720696d706c656d656e746174696f6e206973206e60448201526c1bdd08184818dbdb9d1c9858dd609a1b60648201526084016103cc565b600080516020612a7383398151915280546001600160a01b0319166001600160a01b0392909216919091179055565b60606103468383604051806060016040528060278152602001612ab360279139611fb9565b611dad81611cec565b6040516001600160a01b038216907fbc7cd75a20ee27fd9adebab32041f755214dbc6bffa90cc0225b39da2e5c2d3b90600090a250565b6000611e39826040518060400160405280602081526020017f5361666545524332303a206c6f772d6c6576656c2063616c6c206661696c6564815250856001600160a01b031661208d9092919063ffffffff16565b805190915015611ac25780806020019051810190611e5791906128f5565b611ac25760405162461bcd60e51b815260206004820152602a60248201527f5361666545524332303a204552433230206f7065726174696f6e20646964206e6044820152691bdd081cdd58d8d9595960b21b60648201526084016103cc565b6001600160a01b03163b151590565b600054610100900460ff16611f305760405162461bcd60e51b815260206004820152602b60248201527f496e697469616c697a61626c653a20636f6e7472616374206973206e6f74206960448201526a6e697469616c697a696e6760a81b60648201526084016103cc565b565b600054610100900460ff16611f4d5760005460ff1615611f55565b611f55611ac7565b611f715760405162461bcd60e51b81526004016103cc90612797565b600054610100900460ff16158015611f93576000805461ffff19166101011790555b603380546001600160a01b031916331790558015610452576000805461ff001916905550565b6060833b6120185760405162461bcd60e51b815260206004820152602660248201527f416464726573733a2064656c65676174652063616c6c20746f206e6f6e2d636f6044820152651b9d1c9858dd60d21b60648201526084016103cc565b600080856001600160a01b03168560405161203391906129e3565b600060405180830381855af49150503d806000811461206e576040519150601f19603f3d011682016040523d82523d6000602084013e612073565b606091505b50915091506120838282866120a4565b9695505050505050565b606061209c84846000856120dd565b949350505050565b606083156120b3575081610346565b8251156120c35782518084602001fd5b8160405162461bcd60e51b81526004016103cc91906129ff565b60608247101561213e5760405162461bcd60e51b815260206004820152602660248201527f416464726573733a20696e73756666696369656e742062616c616e636520666f6044820152651c8818d85b1b60d21b60648201526084016103cc565b61214785611eb6565b6121935760405162461bcd60e51b815260206004820152601d60248201527f416464726573733a2063616c6c20746f206e6f6e2d636f6e747261637400000060448201526064016103cc565b600080866001600160a01b031685876040516121af91906129e3565b60006040518083038185875af1925050503d80600081146121ec576040519150601f19603f3d011682016040523d82523d6000602084013e6121f1565b606091505b50915091506122018282866120a4565b979650505050505050565b6001600160a01b038116811461045257600080fd5b60006020828403121561223357600080fd5b81356103468161220c565b6001600160a01b0391909116815260200190565b801515811461045257600080fd5b6000806000806080858703121561227657600080fd5b84356122818161220c565b935060208501359250604085013561229881612252565b915060608501356122a88161220c565b939692955090935050565b634e487b7160e01b600052604160045260246000fd5b604051601f8201601f191681016001600160401b03811182821017156122f1576122f16122b3565b604052919050565b6000806040838503121561230c57600080fd5b82356123178161220c565b91506020838101356001600160401b038082111561233457600080fd5b818601915086601f83011261234857600080fd5b81358181111561235a5761235a6122b3565b61236c601f8201601f191685016122c9565b9150808252878482850101111561238257600080fd5b80848401858401376000848284010152508093505050509250929050565b60008083601f8401126123b257600080fd5b5081356001600160401b038111156123c957600080fd5b6020830191508360208260051b85010111156123e457600080fd5b9250929050565b6000806000806000806000806080898b03121561240757600080fd5b88356001600160401b038082111561241e57600080fd5b61242a8c838d016123a0565b909a50985060208b013591508082111561244357600080fd5b61244f8c838d016123a0565b909850965060408b013591508082111561246857600080fd5b6124748c838d016123a0565b909650945060608b013591508082111561248d57600080fd5b5061249a8b828c016123a0565b999c989b5096995094979396929594505050565b600080600080608085870312156124c457600080fd5b84359350602085013592506040850135915060608501356122a88161220c565b6020808252602c90820152600080516020612a5383398151915260408201526b19195b1959d85d1958d85b1b60a21b606082015260800190565b6020808252602c90820152600080516020612a5383398151915260408201526b6163746976652070726f787960a01b606082015260800190565b6020808252601f908201527f5265656e7472616e637947756172643a207265656e7472616e742063616c6c00604082015260600190565b600080604083850312156125a257600080fd5b505080516020909101519092909150565b6000602082840312156125c557600080fd5b5051919050565b868152602080820187905260a0604083018190528201859052600090869060c08401835b8881101561261e5783356126038161220c565b6001600160a01b0316825292820192908201906001016125f0565b506001600160a01b0396909616606085015250505060800152949350505050565b60006001600160401b03821115612658576126586122b3565b5060051b60200190565b600082601f83011261267357600080fd5b815160206126886126838361263f565b6122c9565b82815260059290921b840181019181810190868411156126a757600080fd5b8286015b848110156126c257805183529183019183016126ab565b509695505050505050565b6000602082840312156126df57600080fd5b81516001600160401b038111156126f557600080fd5b61209c84828501612662565b6001600160a01b039889168152968816602088015260408701959095526060860193909352608085019190915260a084015290921660c082015260e08101919091526101000190565b60008060006060848603121561275f57600080fd5b8351925060208401519150604084015190509250925092565b92835260208301919091526001600160a01b0316604082015260600190565b6020808252602e908201527f496e697469616c697a61626c653a20636f6e747261637420697320616c72656160408201526d191e481a5b9a5d1a585b1a5e995960921b606082015260800190565b6000602082840312156127f757600080fd5b81516103468161220c565b6000806040838503121561281557600080fd5b82516001600160401b038082111561282c57600080fd5b818501915085601f83011261284057600080fd5b815160206128506126838361263f565b82815260059290921b8401810191818101908984111561286f57600080fd5b948201945b838610156128965785516128878161220c565b82529482019490820190612874565b918801519196509093505050808211156128af57600080fd5b506128bc85828601612662565b9150509250929050565b634e487b7160e01b600052603260045260246000fd5b6001600160a01b03929092168252602082015260400190565b60006020828403121561290757600080fd5b815161034681612252565b634e487b7160e01b600052601160045260246000fd5b60008282101561293a5761293a612912565b500390565b600081600019048311821515161561295957612959612912565b500290565b60008261297b57634e487b7160e01b600052601260045260246000fd5b500490565b6000821982111561299357612993612912565b500190565b60006000198214156129ac576129ac612912565b5060010190565b60005b838110156129ce5781810151838201526020016129b6565b838111156129dd576000848401525b50505050565b600082516129f58184602087016129b3565b9190910192915050565b6020815260008251806020840152612a1e8160408501602087016129b3565b601f01601f1916919091016040019291505056fe0000000000000000000000001b02da8cb0d097eb8d57a175b88c7d8b4799750646756e6374696f6e206d7573742062652063616c6c6564207468726f75676820360894a13ba1a3210667c828492db98dca3e2076cc3735a920a3ca505d382bbc0000000000000000000000000769fd68dfb93167989c6f7254cd0d766fb2841f416464726573733a206c6f772d6c6576656c2064656c65676174652063616c6c206661696c6564a264697066735822122003fc0d5887a9debbbeb1efc50e6804923eb4371c8565df775226aad6c2b979be64736f6c634300080a0033",
  "immutableReferences": {
    "1581": [
      {
        "length": 32,
        "start": 910
      },
      {
        "length": 32,
        "start": 983
      },
      {
        "length": 32,
        "start": 1626
      },
      {
        "length": 32,
        "start": 1690
      }
    ]
  },
  "source": "// SPDX-License-Identifier: MIT\r\npragma solidity 0.8.10;\r\n\r\nimport \"../interfaces/IUniswapV2Pair.sol\";\r\nimport \"../interfaces/IUniswapV2Router.sol\";\r\nimport \"../interfaces/IMiniChefV2.sol\";\r\nimport \"../interfaces/IRewarder.sol\";\r\nimport \"@openzeppelin/contracts/utils/math/SafeMath.sol\";\r\nimport \"../utils/OwnableUpgradeableNoTransfer.sol\";\r\nimport \"@openzeppelin/contracts/proxy/utils/UUPSUpgradeable.sol\";\r\nimport \"@openzeppelin/contracts/security/ReentrancyGuard.sol\";\r\nimport \"@openzeppelin/contracts-upgradeable/token/ERC20/utils/SafeERC20Upgradeable.sol\";\r\nimport \"@openzeppelin/contracts-upgradeable/token/ERC20/IERC20Upgradeable.sol\";\r\n\r\ncontract SushiswapFarmUpgradeable is UUPSUpgradeable, Initializable, OwnableUpgradeableNoTransfer, ReentrancyGuard {\r\n    using SafeMath for uint256;\r\n    using SafeERC20Upgradeable for IERC20Upgradeable;\r\n\r\n    /**\r\n     * @dev Tokens Used:\r\n     * {WMATIC} - WMATIC token address, used in routing.\r\n     * {rewardToken} - Token generated by staking (SUSHI).\r\n     * {rewarderToken} - Token generated by ComplexRewarderTime contract.\r\n     * {lpPair} - Token that the strategy maximizes. The same token that users deposit in the {lpStakingPool}.\r\n     * {tokenA, tokenB} - Tokens that the strategy maximizes.\r\n     * {pid} - Pool ID.\r\n     */\r\n    address private constant WMATIC = address(0x0d500B1d8E8eF31E21C99d1Db9A6444d3ADf1270);//UNUSED\r\n    address public rewardToken;\r\n    address public rewarderToken;\r\n    address public lpPair;\r\n    address public tokenA;\r\n    address public tokenB;\r\n    uint256 public pid;\r\n\r\n    /**\r\n     * @dev Third Party Contracts:\r\n     * {sushiswapRouter} - The contract that executes swaps.\r\n     * {MiniChef} -The contract that distibutes {rewardToken}.\r\n     * {ComplexRewarderTime} -The contract that distibutes {rewarderToken}.\r\n     */\r\n    IUniswapV2Router01 private constant sushiswapRouter = IUniswapV2Router01(0x1b02dA8Cb0d097eB8D57A175b88c7D8b47997506);\r\n    IMiniChefV2 private constant MiniChef = IMiniChefV2(0x0769fd68dFb93167989C6f7254cd0D766Fb2841F);\r\n    IRewarder private ComplexRewarderTime;\r\n    \r\n    /**\r\n     * @dev Contract Variables:\r\n     * The implementation of Scalable Reward Distribution on the Ethereum Blockchain paper by B. Batog, L. Boca and N. Johnson.\r\n     * {totalDeposits} - The sum of all active stake deposits | (T).\r\n     * {sumOfRewards} - The sum of (rewards)/(totalDeposits) | (S).\r\n     * {stakes} - All stakes made by users | (stake).\r\n     * {sumOfRewardsForUser} - A sumOfRewards for users at pool join time | (S0).\r\n     */\r\n    uint256 private totalDeposits;\r\n    uint256 private sumOfRewards;\r\n    mapping(address => uint256) private stakes;\r\n    mapping(address => uint256) private sumOfRewardsForUser;\r\n\r\n    // ============ Methods ============\r\n\r\n    function initialize(address _lpPair) external initializer {\r\n        __Ownable_init();\r\n\r\n        pid = getPid(_lpPair);\r\n\r\n        rewardToken = MiniChef.SUSHI();\r\n        ComplexRewarderTime = IRewarder(MiniChef.rewarder(pid));\r\n        if (address(ComplexRewarderTime) != address(0)) {\r\n            (IERC20[] memory rewarderTokenArray, ) = ComplexRewarderTime\r\n                .pendingTokens(pid, address(0), 0);\r\n            rewarderToken = address(rewarderTokenArray[0]);\r\n        }\r\n\r\n        lpPair = MiniChef.lpToken(pid);\r\n\r\n        tokenA = IUniswapV2Pair(lpPair).token0();\r\n        tokenB = IUniswapV2Pair(lpPair).token1();\r\n\r\n        uint256 MAX_UINT = uint256(2**256 - 1);\r\n        IERC20(lpPair).approve(address(MiniChef), MAX_UINT);\r\n        IERC20(lpPair).approve(address(sushiswapRouter), MAX_UINT);\r\n        IERC20(rewardToken).approve(address(sushiswapRouter), MAX_UINT);\r\n        IERC20(rewarderToken).approve(address(sushiswapRouter), MAX_UINT);\r\n        IERC20(tokenA).approve(address(sushiswapRouter), MAX_UINT);\r\n        IERC20(tokenB).approve(address(sushiswapRouter), MAX_UINT);\r\n    }\r\n\r\n    /**\r\n     * @dev Function that makes the deposits.\r\n     * If it's not the first deposit, withdraws {lpStakingPool} and deposits new tokens with the old ones.\r\n     */\r\n    function deposit(uint256 amountA, uint256 amountB, uint256 amountLP, address recipient) external onlyOwner nonReentrant returns(uint256 sentA, uint256 sentB, uint256 liquidity){\r\n        uint256 withdrawAmount = 0;\r\n        if (stakes[recipient] != 0) {\r\n            withdrawAmount = _withdraw(recipient);\r\n        }\r\n\r\n        uint256 addedLiquidity;\r\n        if(amountA > 0 && amountB > 0){\r\n            (sentA, sentB, addedLiquidity) = sushiswapRouter.addLiquidity(tokenA, tokenB, amountA, amountB, 0, 0, address(this), block.timestamp.add(600));\r\n        }\r\n\r\n        liquidity = addedLiquidity.add(amountLP);\r\n        require(liquidity > 0, 'The amount provided is 0');\r\n        _deposit(recipient, liquidity.add(withdrawAmount));\r\n\r\n        IERC20Upgradeable(tokenA).safeTransfer(recipient, amountA.sub(sentA));\r\n        IERC20Upgradeable(tokenB).safeTransfer(recipient, amountB.sub(sentB));\r\n    }\r\n\r\n    /**\r\n     * @dev Withdraws funds and sends them to the {recipient}.\r\n     */\r\n    function withdraw(address origin, uint256 amount, bool withdrawLP, address recipient) external onlyOwner nonReentrant returns(uint256 amountA, uint256 amountB){\r\n        require(stakes[origin] > 0, \"The amount staked should be more than 0\");\r\n        uint256 withdrawAmount = _withdraw(origin);\r\n\r\n        uint256 depositAmount = withdrawAmount.sub(amount);\r\n        if(depositAmount > 0) {\r\n            _deposit(origin, depositAmount);\r\n        }\r\n\r\n        if(withdrawLP){\r\n            IERC20Upgradeable(lpPair).safeTransfer(recipient, amount);\r\n            return (0, 0);\r\n        }\r\n        (amountA, amountB) = sushiswapRouter.removeLiquidity(tokenA, tokenB, amount, 0, 0, recipient, block.timestamp.add(600));\r\n    }\r\n\r\n    /**\r\n     * @dev Withdraws funds to this contract.\r\n     * It withdraws {lpPair} from the {lpStakingPool} to this contract.\r\n     */\r\n    function _withdraw(address _address) internal returns(uint256){\r\n        uint256 withdrawAmount = userBalance(_address);\r\n        totalDeposits = totalDeposits.sub(stakes[_address]);\r\n        stakes[_address] = 0;\r\n        \r\n        MiniChef.withdraw(pid, withdrawAmount, address(this));\r\n        return withdrawAmount;\r\n    }\r\n\r\n    /**\r\n     * @dev Deposits funds to lpStakingPool.\r\n     */\r\n    function _deposit(address _address, uint256 amount) internal {\r\n        stakes[_address] = amount;\r\n        sumOfRewardsForUser[_address] = sumOfRewards;\r\n        totalDeposits = totalDeposits.add(amount);\r\n\r\n        MiniChef.deposit(pid, amount, address(this));\r\n    }\r\n    \r\n    /**\r\n     * @dev Core function of the strat, in charge of updating, collecting and re-investing rewards.\r\n     * 1. It claims rewards from the {lpStakingPool}.\r\n     * 2. It swaps the {rewardToken} & {rewarderToken} token for {tokenA} & {tokenB}.\r\n     * 3. It deposits the new LP tokens back in the {lpStakingPool}.\r\n     */\r\n    function distribute(address[] calldata _rewarderTokenToTokenARoute, address[] calldata _rewarderTokenToTokenBRoute, address[] calldata _rewardTokenToTokenARoute, address[] calldata _rewardTokenToTokenBRoute) external onlyOwner nonReentrant{\r\n        require(totalDeposits > 0, \"There should be some tokens in the pool\");\r\n\r\n        MiniChef.harvest(pid, address(this));\r\n        uint256 rewardTokenHalf = IERC20(rewardToken).balanceOf(address(this)).div(2);\r\n\r\n        if (address(ComplexRewarderTime) != address(0)) {\r\n            uint256 rewarderTokenHalf = IERC20(rewarderToken).balanceOf(address(this)).div(2);\r\n            if (tokenA != rewarderToken) {\r\n                sushiswapRouter.swapExactTokensForTokens(rewarderTokenHalf, 0, _rewarderTokenToTokenARoute, address(this), block.timestamp.add(600));\r\n            }\r\n\r\n            if (tokenB != rewarderToken) {\r\n                sushiswapRouter.swapExactTokensForTokens(rewarderTokenHalf, 0, _rewarderTokenToTokenBRoute, address(this), block.timestamp.add(600));\r\n            }\r\n        }\r\n\r\n        if (tokenA != rewardToken) {\r\n            sushiswapRouter.swapExactTokensForTokens(rewardTokenHalf, 0, _rewardTokenToTokenARoute, address(this), block.timestamp.add(600));\r\n        }\r\n\r\n        if (tokenB != rewardToken) {\r\n            sushiswapRouter.swapExactTokensForTokens(rewardTokenHalf, 0, _rewardTokenToTokenBRoute, address(this), block.timestamp.add(600));\r\n        }\r\n\r\n        uint256 tokenABalance = IERC20(tokenA).balanceOf(address(this));\r\n        uint256 tokenBBalance = IERC20(tokenB).balanceOf(address(this));\r\n\r\n        sushiswapRouter.addLiquidity(tokenA, tokenB, tokenABalance, tokenBBalance, 1, 1, address(this), block.timestamp.add(600));\r\n\r\n        uint256 reward = IERC20(lpPair).balanceOf(address(this));\r\n        if (reward > 0) {\r\n            sumOfRewards = sumOfRewards.add(uint256(1 ether).mul(reward).div(totalDeposits));\r\n            MiniChef.deposit(pid, reward, address(this));\r\n        }\r\n    }\r\n\r\n    /**\r\n     * @dev Returns total funds staked by the {_address}.\r\n     */\r\n    function userBalance(address _address) public view returns (uint256) {\r\n        uint256 reward = stakes[_address].mul(sumOfRewards.sub(sumOfRewardsForUser[_address])).div(uint256(1 ether));\r\n        return stakes[_address].add(reward);\r\n    }\r\n\r\n    /**\r\n     * @dev Returns total amount locked in the pool.\r\n     */\r\n    function getTotalDeposits() external view returns (uint256) {\r\n        return totalDeposits.add(totalDeposits.mul(sumOfRewards).div(uint256(1 ether)));\r\n    }\r\n\r\n    /**\r\n     * @dev Get pid by iterating over all pools and comparing pids.\r\n     */\r\n    function getPid(address _lpPair) internal view returns (uint256 _pid) {\r\n        bool poolExists = false;\r\n        for (uint256 i = 0; i < MiniChef.poolLength(); i++) {\r\n            if (MiniChef.lpToken(i) == _lpPair) {\r\n                _pid = i;\r\n                poolExists = true;\r\n                break;\r\n            }\r\n        }\r\n        require(poolExists, \"The pool with the given pair token doesn't exist\");\r\n        return _pid;\r\n    }\r\n\r\n    function _authorizeUpgrade(address newImplementation) internal override onlyOwner {\r\n\r\n    }\r\n}",
  "sourcePath": "C:\\Users\\jugli\\Desktop\\uno\\uno-contracts-branch\\contracts\\farms\\SushiswapFarmUpgradeable.sol",
  "compiler": {
    "name": "solc",
    "version": "0.8.10+commit.fc410830.Emscripten.clang"
  },
  "schemaVersion": "3.4.7",
  "updatedAt": "2022-04-30T12:33:09.969Z",
  "devdoc": {
    "kind": "dev",
    "methods": {
      "deposit(uint256,uint256,uint256,address)": {
        "details": "Function that makes the deposits. If it's not the first deposit, withdraws {lpStakingPool} and deposits new tokens with the old ones."
      },
      "distribute(address[],address[],address[],address[])": {
        "details": "Core function of the strat, in charge of updating, collecting and re-investing rewards. 1. It claims rewards from the {lpStakingPool}. 2. It swaps the {rewardToken} & {rewarderToken} token for {tokenA} & {tokenB}. 3. It deposits the new LP tokens back in the {lpStakingPool}."
      },
      "getTotalDeposits()": {
        "details": "Returns total amount locked in the pool."
      },
      "owner()": {
        "details": "Returns the address of the current owner."
      },
      "upgradeTo(address)": {
        "details": "Upgrade the implementation of the proxy to `newImplementation`. Calls {_authorizeUpgrade}. Emits an {Upgraded} event."
      },
      "upgradeToAndCall(address,bytes)": {
        "details": "Upgrade the implementation of the proxy to `newImplementation`, and subsequently execute the function call encoded in `data`. Calls {_authorizeUpgrade}. Emits an {Upgraded} event."
      },
      "userBalance(address)": {
        "details": "Returns total funds staked by the {_address}."
      },
      "withdraw(address,uint256,bool,address)": {
        "details": "Withdraws funds and sends them to the {recipient}."
      }
    },
    "stateVariables": {
      "WMATIC": {
        "details": "Tokens Used: {WMATIC} - WMATIC token address, used in routing. {rewardToken} - Token generated by staking (SUSHI). {rewarderToken} - Token generated by ComplexRewarderTime contract. {lpPair} - Token that the strategy maximizes. The same token that users deposit in the {lpStakingPool}. {tokenA, tokenB} - Tokens that the strategy maximizes. {pid} - Pool ID."
      },
      "sushiswapRouter": {
        "details": "Third Party Contracts: {sushiswapRouter} - The contract that executes swaps. {MiniChef} -The contract that distibutes {rewardToken}. {ComplexRewarderTime} -The contract that distibutes {rewarderToken}."
      },
      "totalDeposits": {
        "details": "Contract Variables: The implementation of Scalable Reward Distribution on the Ethereum Blockchain paper by B. Batog, L. Boca and N. Johnson. {totalDeposits} - The sum of all active stake deposits | (T). {sumOfRewards} - The sum of (rewards)/(totalDeposits) | (S). {stakes} - All stakes made by users | (stake). {sumOfRewardsForUser} - A sumOfRewards for users at pool join time | (S0)."
      }
    },
    "version": 1
  },
  "userdoc": {
    "kind": "user",
    "methods": {},
    "version": 1
  }
}