{
  "contractName": "SushiswapFarmUpgradeable",
  "abi": [
    {
      "anonymous": false,
      "inputs": [
        {
          "indexed": false,
          "internalType": "address",
          "name": "previousAdmin",
          "type": "address"
        },
        {
          "indexed": false,
          "internalType": "address",
          "name": "newAdmin",
          "type": "address"
        }
      ],
      "name": "AdminChanged",
      "type": "event"
    },
    {
      "anonymous": false,
      "inputs": [
        {
          "indexed": true,
          "internalType": "address",
          "name": "beacon",
          "type": "address"
        }
      ],
      "name": "BeaconUpgraded",
      "type": "event"
    },
    {
      "anonymous": false,
      "inputs": [
        {
          "indexed": true,
          "internalType": "address",
          "name": "previousOwner",
          "type": "address"
        },
        {
          "indexed": true,
          "internalType": "address",
          "name": "newOwner",
          "type": "address"
        }
      ],
      "name": "OwnershipTransferred",
      "type": "event"
    },
    {
      "anonymous": false,
      "inputs": [
        {
          "indexed": true,
          "internalType": "address",
          "name": "implementation",
          "type": "address"
        }
      ],
      "name": "Upgraded",
      "type": "event"
    },
    {
      "inputs": [],
      "name": "lpPair",
      "outputs": [
        {
          "internalType": "address",
          "name": "",
          "type": "address"
        }
      ],
      "stateMutability": "view",
      "type": "function"
    },
    {
      "inputs": [],
      "name": "owner",
      "outputs": [
        {
          "internalType": "address",
          "name": "",
          "type": "address"
        }
      ],
      "stateMutability": "view",
      "type": "function"
    },
    {
      "inputs": [],
      "name": "pid",
      "outputs": [
        {
          "internalType": "uint256",
          "name": "",
          "type": "uint256"
        }
      ],
      "stateMutability": "view",
      "type": "function"
    },
    {
      "inputs": [],
      "name": "renounceOwnership",
      "outputs": [],
      "stateMutability": "nonpayable",
      "type": "function"
    },
    {
      "inputs": [],
      "name": "rewardToken",
      "outputs": [
        {
          "internalType": "address",
          "name": "",
          "type": "address"
        }
      ],
      "stateMutability": "view",
      "type": "function"
    },
    {
      "inputs": [],
      "name": "rewarderToken",
      "outputs": [
        {
          "internalType": "address",
          "name": "",
          "type": "address"
        }
      ],
      "stateMutability": "view",
      "type": "function"
    },
    {
      "inputs": [],
      "name": "tokenA",
      "outputs": [
        {
          "internalType": "address",
          "name": "",
          "type": "address"
        }
      ],
      "stateMutability": "view",
      "type": "function"
    },
    {
      "inputs": [],
      "name": "tokenB",
      "outputs": [
        {
          "internalType": "address",
          "name": "",
          "type": "address"
        }
      ],
      "stateMutability": "view",
      "type": "function"
    },
    {
      "inputs": [
        {
          "internalType": "address",
          "name": "newOwner",
          "type": "address"
        }
      ],
      "name": "transferOwnership",
      "outputs": [],
      "stateMutability": "nonpayable",
      "type": "function"
    },
    {
      "inputs": [
        {
          "internalType": "address",
          "name": "newImplementation",
          "type": "address"
        }
      ],
      "name": "upgradeTo",
      "outputs": [],
      "stateMutability": "nonpayable",
      "type": "function"
    },
    {
      "inputs": [
        {
          "internalType": "address",
          "name": "newImplementation",
          "type": "address"
        },
        {
          "internalType": "bytes",
          "name": "data",
          "type": "bytes"
        }
      ],
      "name": "upgradeToAndCall",
      "outputs": [],
      "stateMutability": "payable",
      "type": "function"
    },
    {
      "inputs": [
        {
          "internalType": "address",
          "name": "_lpPair",
          "type": "address"
        },
        {
          "internalType": "address",
          "name": "owner",
          "type": "address"
        }
      ],
      "name": "initialize",
      "outputs": [],
      "stateMutability": "nonpayable",
      "type": "function"
    },
    {
      "inputs": [
        {
          "internalType": "uint256",
          "name": "amountA",
          "type": "uint256"
        },
        {
          "internalType": "uint256",
          "name": "amountB",
          "type": "uint256"
        },
        {
          "internalType": "uint256",
          "name": "amountLP",
          "type": "uint256"
        },
        {
          "internalType": "address",
          "name": "origin",
          "type": "address"
        }
      ],
      "name": "deposit",
      "outputs": [
        {
          "internalType": "uint256",
          "name": "",
          "type": "uint256"
        }
      ],
      "stateMutability": "nonpayable",
      "type": "function"
    },
    {
      "inputs": [
        {
          "internalType": "address",
          "name": "origin",
          "type": "address"
        },
        {
          "internalType": "bool",
          "name": "withdrawLP",
          "type": "bool"
        }
      ],
      "name": "withdraw",
      "outputs": [
        {
          "internalType": "uint256",
          "name": "",
          "type": "uint256"
        }
      ],
      "stateMutability": "nonpayable",
      "type": "function"
    },
    {
      "inputs": [],
      "name": "distribute",
      "outputs": [],
      "stateMutability": "nonpayable",
      "type": "function"
    },
    {
      "inputs": [
        {
          "internalType": "address",
          "name": "_address",
          "type": "address"
        }
      ],
      "name": "userBalance",
      "outputs": [
        {
          "internalType": "uint256",
          "name": "",
          "type": "uint256"
        }
      ],
      "stateMutability": "view",
      "type": "function"
    },
    {
      "inputs": [],
      "name": "getTotalDeposits",
      "outputs": [
        {
          "internalType": "uint256",
          "name": "",
          "type": "uint256"
        }
      ],
      "stateMutability": "view",
      "type": "function"
    }
  ],
  "bytecode": "0x60a06040523060805234801561001457600080fd5b506001606555608051612ffb61004a600039600081816103e20152818161042b0152818161108701526110c70152612ffb6000f3fe6080604052600436106100fe5760003560e01c80635437e40111610095578063e4fc6b6d11610064578063e4fc6b6d1461028b578063f1068454146102a0578063f2fde38b146102b6578063f7c618c1146102d6578063fad3cc4b146102f657600080fd5b80635437e401146102185780635f64b55b14610238578063715018a6146102585780638da5cb5b1461026d57600080fd5b80633659cfe6116100d15780633659cfe6146101a3578063452ed4f1146101c5578063485cc955146101e55780634f1ef2861461020557600080fd5b80630103c92b146101035780630fc63d1014610136578063168a48221461016e5780632a8dc13114610183575b600080fd5b34801561010f57600080fd5b5061012361011e36600461283f565b610316565b6040519081526020015b60405180910390f35b34801561014257600080fd5b50606a54610156906001600160a01b031681565b6040516001600160a01b03909116815260200161012d565b34801561017a57600080fd5b506101236103a1565b34801561018f57600080fd5b50606854610156906001600160a01b031681565b3480156101af57600080fd5b506101c36101be36600461283f565b6103d7565b005b3480156101d157600080fd5b50606954610156906001600160a01b031681565b3480156101f157600080fd5b506101c361020036600461285c565b6104a9565b6101c36102133660046128dc565b61107c565b34801561022457600080fd5b50610123610233366004612992565b611136565b34801561024457600080fd5b50606b54610156906001600160a01b031681565b34801561026457600080fd5b506101c3611408565b34801561027957600080fd5b506033546001600160a01b0316610156565b34801561029757600080fd5b506101c361143e565b3480156102ac57600080fd5b50610123606c5481565b3480156102c257600080fd5b506101c36102d136600461283f565b611b86565b3480156102e257600080fd5b50606754610156906001600160a01b031681565b34801561030257600080fd5b506101236103113660046129c0565b611c1e565b6001600160a01b038116600090815260766020526040812054607454829161037491670de0b6b3a76400009161036e9161034f91611fc7565b6001600160a01b03871660009081526075602052604090205490611fd3565b90611fdf565b6001600160a01b03841660009081526075602052604090205490915061039a9082611feb565b9392505050565b60006103d26103c9670de0b6b3a764000061036e607454607354611fd390919063ffffffff16565b60735490611feb565b905090565b306001600160a01b037f00000000000000000000000000000000000000000000000000000000000000001614156104295760405162461bcd60e51b815260040161042090612a01565b60405180910390fd5b7f00000000000000000000000000000000000000000000000000000000000000006001600160a01b031661045b611ff7565b6001600160a01b0316146104815760405162461bcd60e51b815260040161042090612a4d565b61048a81612025565b604080516000808252602082019092526104a69183919061204f565b50565b600054610100900460ff16806104c2575060005460ff16155b6104de5760405162461bcd60e51b815260040161042090612a99565b600054610100900460ff16158015610500576000805461ffff19166101011790555b61050861219a565b61051182611b86565b61051a83612215565b606c81905550730769fd68dfb93167989c6f7254cd0d766fb2841f6001600160a01b031663ab560e106040518163ffffffff1660e01b8152600401602060405180830381865afa158015610572573d6000803e3d6000fd5b505050506040513d601f19601f820116820180604052508101906105969190612ae7565b606780546001600160a01b0319166001600160a01b0392909216919091179055606c5460405163c346253d60e01b81526004810191909152730769fd68dfb93167989c6f7254cd0d766fb2841f9063c346253d90602401602060405180830381865afa15801561060a573d6000803e3d6000fd5b505050506040513d601f19601f8201168201806040525081019061062e9190612ae7565b606d80546001600160a01b0319166001600160a01b039290921691821790551561071c57606d54606c5460405163d63b3c4960e01b8152600481019190915260006024820181905260448201819052916001600160a01b03169063d63b3c4990606401600060405180830381865afa1580156106ae573d6000803e3d6000fd5b505050506040513d6000823e601f3d908101601f191682016040526106d69190810190612b93565b509050806000815181106106ec576106ec612c58565b6020026020010151606860006101000a8154816001600160a01b0302191690836001600160a01b03160217905550505b606c546040516378ed5d1f60e01b81526004810191909152730769fd68dfb93167989c6f7254cd0d766fb2841f906378ed5d1f90602401602060405180830381865afa158015610770573d6000803e3d6000fd5b505050506040513d601f19601f820116820180604052508101906107949190612ae7565b606980546001600160a01b0319166001600160a01b0392909216918217905560408051630dfe168160e01b81529051630dfe1681916004808201926020929091908290030181865afa1580156107ee573d6000803e3d6000fd5b505050506040513d601f19601f820116820180604052508101906108129190612ae7565b606a80546001600160a01b0319166001600160a01b039283161790556069546040805163d21220a760e01b81529051919092169163d21220a79160048083019260209291908290030181865afa158015610870573d6000803e3d6000fd5b505050506040513d601f19601f820116820180604052508101906108949190612ae7565b606b80546001600160a01b0319166001600160a01b03928316179055606854600080516020612fa6833981519152911614156109c857606a546001600160a01b0316600080516020612fa68339815191521461091d57604080518082019091526068546001600160a01b039081168252606a5416602082015261091b9060709060026127b0565b505b606b546001600160a01b0316600080516020612fa68339815191521461097057604080518082019091526068546001600160a01b039081168252606b5416602082015261096e9060719060026127b0565b505b6067546001600160a01b0316600080516020612fa6833981519152146109c357604080518082019091526068546001600160a01b0390811682526067541660208201526109c19060729060026127b0565b505b610ba2565b606a546001600160a01b0316600080516020612fa683398151915214610a3557604080516060810182526068546001600160a01b039081168252600080516020612fa68339815191526020830152606a541691810191909152610a2f9060709060036127b0565b50610a68565b604080518082019091526068546001600160a01b039081168252606a54166020820152610a669060709060026127b0565b505b606b546001600160a01b0316600080516020612fa683398151915214610ad557604080516060810182526068546001600160a01b039081168252600080516020612fa68339815191526020830152606b541691810191909152610acf9060719060036127b0565b50610b08565b604080518082019091526068546001600160a01b039081168252606b54166020820152610b069060719060026127b0565b505b6067546001600160a01b0316600080516020612fa683398151915214610b6f57604080516060810182526068546001600160a01b039081168252600080516020612fa6833981519152602083015260675416918101919091526109c19060729060036127b0565b604080518082019091526068546001600160a01b039081168252606754166020820152610ba09060729060026127b0565b505b606a546001600160a01b0316600080516020612fa68339815191521415610c0357604080518082019091526067546001600160a01b03168152600080516020612fa68339815191526020820152610bfd90606e9060026127b0565b50610c64565b606754606a546001600160a01b03908116911614610c6457604080516060810182526067546001600160a01b039081168252600080516020612fa68339815191526020830152606a541691810191909152610c6290606e9060036127b0565b505b606b546001600160a01b0316600080516020612fa68339815191521415610cc557604080518082019091526067546001600160a01b03168152600080516020612fa68339815191526020820152610cbf90606f9060026127b0565b50610d26565b606754606b546001600160a01b03908116911614610d2657604080516060810182526067546001600160a01b039081168252600080516020612fa68339815191526020830152606b541691810191909152610d2490606f9060036127b0565b505b60695460405163095ea7b360e01b8152730769fd68dfb93167989c6f7254cd0d766fb2841f600482015260001960248201819052916001600160a01b03169063095ea7b3906044016020604051808303816000875af1158015610d8d573d6000803e3d6000fd5b505050506040513d601f19601f82011682018060405250810190610db19190612c6e565b5060695460405163095ea7b360e01b8152731b02da8cb0d097eb8d57a175b88c7d8b479975066004820152602481018390526001600160a01b039091169063095ea7b3906044016020604051808303816000875af1158015610e17573d6000803e3d6000fd5b505050506040513d601f19601f82011682018060405250810190610e3b9190612c6e565b5060675460405163095ea7b360e01b8152731b02da8cb0d097eb8d57a175b88c7d8b479975066004820152602481018390526001600160a01b039091169063095ea7b3906044016020604051808303816000875af1158015610ea1573d6000803e3d6000fd5b505050506040513d601f19601f82011682018060405250810190610ec59190612c6e565b5060685460405163095ea7b360e01b8152731b02da8cb0d097eb8d57a175b88c7d8b479975066004820152602481018390526001600160a01b039091169063095ea7b3906044016020604051808303816000875af1158015610f2b573d6000803e3d6000fd5b505050506040513d601f19601f82011682018060405250810190610f4f9190612c6e565b50606a5460405163095ea7b360e01b8152731b02da8cb0d097eb8d57a175b88c7d8b479975066004820152602481018390526001600160a01b039091169063095ea7b3906044016020604051808303816000875af1158015610fb5573d6000803e3d6000fd5b505050506040513d601f19601f82011682018060405250810190610fd99190612c6e565b50606b5460405163095ea7b360e01b8152731b02da8cb0d097eb8d57a175b88c7d8b479975066004820152602481018390526001600160a01b039091169063095ea7b3906044016020604051808303816000875af115801561103f573d6000803e3d6000fd5b505050506040513d601f19601f820116820180604052508101906110639190612c6e565b50508015611077576000805461ff00191690555b505050565b306001600160a01b037f00000000000000000000000000000000000000000000000000000000000000001614156110c55760405162461bcd60e51b815260040161042090612a01565b7f00000000000000000000000000000000000000000000000000000000000000006001600160a01b03166110f7611ff7565b6001600160a01b03161461111d5760405162461bcd60e51b815260040161042090612a4d565b61112682612025565b6111328282600161204f565b5050565b6033546000906001600160a01b031633146111635760405162461bcd60e51b815260040161042090612c8b565b6001600160a01b0383166000908152606660205260409020548390438110801561118c57508015155b6111f05760405162461bcd60e51b815260206004820152602f60248201527f43616e27742063616c6c206d756c7469706c652066756e6374696f6e73206f6e60448201526e207468652073616d6520626c6f636b60881b6064820152608401610420565b600260655414156112135760405162461bcd60e51b815260040161042090612cc0565b60026065556001600160a01b03851660009081526075602052604090205461128d5760405162461bcd60e51b815260206004820152602760248201527f54686520616d6f756e74207374616b65642073686f756c64206265206d6f72656044820152660207468616e20360cc1b6064820152608401610420565b6000611298866123b0565b9050841561131f5760695460405163a9059cbb60e01b81526001600160a01b038881166004830152602482018490529091169063a9059cbb906044016020604051808303816000875af11580156112f3573d6000803e3d6000fd5b505050506040513d601f19601f820116820180604052508101906113179190612c6e565b5092506113fb565b606a54606b54731b02da8cb0d097eb8d57a175b88c7d8b479975069163baa2abde916001600160a01b039182169116846000808c61135f42610258611feb565b60405160e089901b6001600160e01b03191681526001600160a01b039788166004820152958716602487015260448601949094526064850192909252608484015290921660a482015260c481019190915260e40160408051808303816000875af11580156113d1573d6000803e3d6000fd5b505050506040513d601f19601f820116820180604052508101906113f59190612cf7565b50909350505b5050600160655592915050565b6033546001600160a01b031633146114325760405162461bcd60e51b815260040161042090612c8b565b61143c600061247d565b565b6033546001600160a01b031633146114685760405162461bcd60e51b815260040161042090612c8b565b6002606554141561148b5760405162461bcd60e51b815260040161042090612cc0565b60026065556073546114ef5760405162461bcd60e51b815260206004820152602760248201527f54686572652073686f756c6420626520736f6d6520746f6b656e7320696e20746044820152661a19481c1bdbdb60ca1b6064820152608401610420565b606c54604051630c7e663b60e11b81526004810191909152306024820152730769fd68dfb93167989c6f7254cd0d766fb2841f906318fccc7690604401600060405180830381600087803b15801561154657600080fd5b505af115801561155a573d6000803e3d6000fd5b50506067546040516370a0823160e01b8152306004820152600093506115d392506002916001600160a01b0316906370a08231906024015b602060405180830381865afa1580156115af573d6000803e3d6000fd5b505050506040513d601f19601f8201168201806040525081019061036e9190612d1b565b606d549091506001600160a01b03161561177e576068546040516370a0823160e01b815230600482015260009161161f916002916001600160a01b0316906370a0823190602401611592565b606854606a549192506001600160a01b039182169116146116cf57731b02da8cb0d097eb8d57a175b88c7d8b479975066338ed173982600060703061166642610258611feb565b6040518663ffffffff1660e01b8152600401611686959493929190612d34565b6000604051808303816000875af11580156116a5573d6000803e3d6000fd5b505050506040513d6000823e601f3d908101601f191682016040526116cd9190810190612daa565b505b606854606b546001600160a01b0390811691161461177c57731b02da8cb0d097eb8d57a175b88c7d8b479975066338ed173982600060713061171342610258611feb565b6040518663ffffffff1660e01b8152600401611733959493929190612d34565b6000604051808303816000875af1158015611752573d6000803e3d6000fd5b505050506040513d6000823e601f3d908101601f1916820160405261177a9190810190612daa565b505b505b606754606a546001600160a01b0390811691161461182b57731b02da8cb0d097eb8d57a175b88c7d8b479975066338ed1739826000606e306117c242610258611feb565b6040518663ffffffff1660e01b81526004016117e2959493929190612d34565b6000604051808303816000875af1158015611801573d6000803e3d6000fd5b505050506040513d6000823e601f3d908101601f191682016040526118299190810190612daa565b505b606754606b546001600160a01b039081169116146118d857731b02da8cb0d097eb8d57a175b88c7d8b479975066338ed1739826000606f3061186f42610258611feb565b6040518663ffffffff1660e01b815260040161188f959493929190612d34565b6000604051808303816000875af11580156118ae573d6000803e3d6000fd5b505050506040513d6000823e601f3d908101601f191682016040526118d69190810190612daa565b505b606a546040516370a0823160e01b81523060048201526000916001600160a01b0316906370a0823190602401602060405180830381865afa158015611921573d6000803e3d6000fd5b505050506040513d601f19601f820116820180604052508101906119459190612d1b565b606b546040516370a0823160e01b81523060048201529192506000916001600160a01b03909116906370a0823190602401602060405180830381865afa158015611993573d6000803e3d6000fd5b505050506040513d601f19601f820116820180604052508101906119b79190612d1b565b606a54606b54919250731b02da8cb0d097eb8d57a175b88c7d8b479975069163e8e33700916001600160a01b0390811691168585600180306119fb42610258611feb565b6040518963ffffffff1660e01b8152600401611a1e989796959493929190612de7565b6060604051808303816000875af1158015611a3d573d6000803e3d6000fd5b505050506040513d601f19601f82011682018060405250810190611a619190612e30565b50506069546040516370a0823160e01b8152306004820152600092506001600160a01b03909116906370a0823190602401602060405180830381865afa158015611aaf573d6000803e3d6000fd5b505050506040513d601f19601f82011682018060405250810190611ad39190612d1b565b90508015611b7b57607354611b0190611af89061036e670de0b6b3a764000085611fd3565b60745490611feb565b607455606c54604051638dbdbe6d60e01b8152600481019190915260248101829052306044820152730769fd68dfb93167989c6f7254cd0d766fb2841f90638dbdbe6d90606401600060405180830381600087803b158015611b6257600080fd5b505af1158015611b76573d6000803e3d6000fd5b505050505b505060016065555050565b6033546001600160a01b03163314611bb05760405162461bcd60e51b815260040161042090612c8b565b6001600160a01b038116611c155760405162461bcd60e51b815260206004820152602660248201527f4f776e61626c653a206e6577206f776e657220697320746865207a65726f206160448201526564647265737360d01b6064820152608401610420565b6104a68161247d565b6033546000906001600160a01b03163314611c4b5760405162461bcd60e51b815260040161042090612c8b565b6001600160a01b0382166000908152606660205260409020439055606554829060021415611c8b5760405162461bcd60e51b815260040161042090612cc0565b60026065556001600160a01b03831660009081526075602052604081205415611cba57611cb7846123b0565b90505b6000806000808a118015611cce5750600089115b15611d8257606a54606b54731b02da8cb0d097eb8d57a175b88c7d8b479975069163e8e33700916001600160a01b0391821691168d8d60008030611d1442610258611feb565b6040518963ffffffff1660e01b8152600401611d37989796959493929190612de7565b6060604051808303816000875af1158015611d56573d6000803e3d6000fd5b505050506040513d601f19601f82011682018060405250810190611d7a9190612e30565b919450925090505b6000611d9889611d928488611feb565b90611feb565b905060008111611dea5760405162461bcd60e51b815260206004820152601860248201527f54686520616d6f756e742070726f7669646564206973203000000000000000006044820152606401610420565b6001600160a01b0388166000908152607560209081526040808320849055607454607690925290912055607354611e219082611feb565b607355606c54604051638dbdbe6d60e01b8152600481019190915260248101829052306044820152730769fd68dfb93167989c6f7254cd0d766fb2841f90638dbdbe6d90606401600060405180830381600087803b158015611e8257600080fd5b505af1158015611e96573d6000803e3d6000fd5b5050606a546001600160a01b0316915063a9059cbb905089611eb88e88611fc7565b6040516001600160e01b031960e085901b1681526001600160a01b03909216600483015260248201526044016020604051808303816000875af1158015611f03573d6000803e3d6000fd5b505050506040513d601f19601f82011682018060405250810190611f279190612c6e565b50606b546001600160a01b031663a9059cbb89611f448d87611fc7565b6040516001600160e01b031960e085901b1681526001600160a01b03909216600483015260248201526044016020604051808303816000875af1158015611f8f573d6000803e3d6000fd5b505050506040513d601f19601f82011682018060405250810190611fb39190612c6e565b5060016065559a9950505050505050505050565b600061039a8284612e74565b600061039a8284612e8b565b600061039a8284612eaa565b600061039a8284612ecc565b7f360894a13ba1a3210667c828492db98dca3e2076cc3735a920a3ca505d382bbc546001600160a01b031690565b6033546001600160a01b031633146104a65760405162461bcd60e51b815260040161042090612c8b565b6000612059611ff7565b9050612064846124cf565b6000835111806120715750815b15612082576120808484612574565b505b7f4910fdfa16fed3260ed0e7147f7cc6da11a60208b5b9406d12a635614ffd9143805460ff1661219357805460ff191660011781556040516001600160a01b038316602482015261210190869060440160408051601f198184030181529190526020810180516001600160e01b0316631b2ce7f360e11b179052612574565b50805460ff19168155612112611ff7565b6001600160a01b0316826001600160a01b03161461218a5760405162461bcd60e51b815260206004820152602f60248201527f45524331393637557067726164653a207570677261646520627265616b73206660448201526e75727468657220757067726164657360881b6064820152608401610420565b61219385612599565b5050505050565b600054610100900460ff16806121b3575060005460ff16155b6121cf5760405162461bcd60e51b815260040161042090612a99565b600054610100900460ff161580156121f1576000805461ffff19166101011790555b6121f96125d9565b612201612643565b80156104a6576000805461ff001916905550565b600080805b730769fd68dfb93167989c6f7254cd0d766fb2841f6001600160a01b031663081e3eda6040518163ffffffff1660e01b8152600401602060405180830381865afa15801561226c573d6000803e3d6000fd5b505050506040513d601f19601f820116820180604052508101906122909190612d1b565b811015612343576040516378ed5d1f60e01b8152600481018290526001600160a01b03851690730769fd68dfb93167989c6f7254cd0d766fb2841f906378ed5d1f90602401602060405180830381865afa1580156122f2573d6000803e3d6000fd5b505050506040513d601f19601f820116820180604052508101906123169190612ae7565b6001600160a01b031614156123315780925060019150612343565b8061233b81612ee4565b91505061221a565b50806123aa5760405162461bcd60e51b815260206004820152603060248201527f54686520706f6f6c20776974682074686520676976656e207061697220746f6b60448201526f195b88191bd95cdb89dd08195e1a5cdd60821b6064820152608401610420565b50919050565b6000806123bc83610316565b6001600160a01b0384166000908152607560205260409020546073549192506123e59190611fc7565b607355606c54604051630ad58d2f60e01b8152600481019190915260248101829052306044820152730769fd68dfb93167989c6f7254cd0d766fb2841f90630ad58d2f90606401600060405180830381600087803b15801561244657600080fd5b505af115801561245a573d6000803e3d6000fd5b5050506001600160a01b0390931660009081526075602052604081205592915050565b603380546001600160a01b038381166001600160a01b0319831681179093556040519116919082907f8be0079c531659141344cd1fd0a4f28419497f9722a3daafe3b4186f6b6457e090600090a35050565b803b6125335760405162461bcd60e51b815260206004820152602d60248201527f455243313936373a206e657720696d706c656d656e746174696f6e206973206e60448201526c1bdd08184818dbdb9d1c9858dd609a1b6064820152608401610420565b7f360894a13ba1a3210667c828492db98dca3e2076cc3735a920a3ca505d382bbc80546001600160a01b0319166001600160a01b0392909216919091179055565b606061039a8383604051806060016040528060278152602001612f7f602791396126a3565b6125a2816124cf565b6040516001600160a01b038216907fbc7cd75a20ee27fd9adebab32041f755214dbc6bffa90cc0225b39da2e5c2d3b90600090a250565b600054610100900460ff16806125f2575060005460ff16155b61260e5760405162461bcd60e51b815260040161042090612a99565b600054610100900460ff16158015612201576000805461ffff191661010117905580156104a6576000805461ff001916905550565b600054610100900460ff168061265c575060005460ff16155b6126785760405162461bcd60e51b815260040161042090612a99565b600054610100900460ff1615801561269a576000805461ffff19166101011790555b6122013361247d565b6060833b6127025760405162461bcd60e51b815260206004820152602660248201527f416464726573733a2064656c65676174652063616c6c20746f206e6f6e2d636f6044820152651b9d1c9858dd60d21b6064820152608401610420565b600080856001600160a01b03168560405161271d9190612f2f565b600060405180830381855af49150503d8060008114612758576040519150601f19603f3d011682016040523d82523d6000602084013e61275d565b606091505b509150915061276d828286612777565b9695505050505050565b6060831561278657508161039a565b8251156127965782518084602001fd5b8160405162461bcd60e51b81526004016104209190612f4b565b828054828255906000526020600020908101928215612805579160200282015b8281111561280557825182546001600160a01b0319166001600160a01b039091161782556020909201916001909101906127d0565b50612811929150612815565b5090565b5b808211156128115760008155600101612816565b6001600160a01b03811681146104a657600080fd5b60006020828403121561285157600080fd5b813561039a8161282a565b6000806040838503121561286f57600080fd5b823561287a8161282a565b9150602083013561288a8161282a565b809150509250929050565b634e487b7160e01b600052604160045260246000fd5b604051601f8201601f1916810167ffffffffffffffff811182821017156128d4576128d4612895565b604052919050565b600080604083850312156128ef57600080fd5b82356128fa8161282a565b915060208381013567ffffffffffffffff8082111561291857600080fd5b818601915086601f83011261292c57600080fd5b81358181111561293e5761293e612895565b612950601f8201601f191685016128ab565b9150808252878482850101111561296657600080fd5b80848401858401376000848284010152508093505050509250929050565b80151581146104a657600080fd5b600080604083850312156129a557600080fd5b82356129b08161282a565b9150602083013561288a81612984565b600080600080608085870312156129d657600080fd5b84359350602085013592506040850135915060608501356129f68161282a565b939692955090935050565b6020808252602c908201527f46756e6374696f6e206d7573742062652063616c6c6564207468726f7567682060408201526b19195b1959d85d1958d85b1b60a21b606082015260800190565b6020808252602c908201527f46756e6374696f6e206d7573742062652063616c6c6564207468726f7567682060408201526b6163746976652070726f787960a01b606082015260800190565b6020808252602e908201527f496e697469616c697a61626c653a20636f6e747261637420697320616c72656160408201526d191e481a5b9a5d1a585b1a5e995960921b606082015260800190565b600060208284031215612af957600080fd5b815161039a8161282a565b600067ffffffffffffffff821115612b1e57612b1e612895565b5060051b60200190565b600082601f830112612b3957600080fd5b81516020612b4e612b4983612b04565b6128ab565b82815260059290921b84018101918181019086841115612b6d57600080fd5b8286015b84811015612b885780518352918301918301612b71565b509695505050505050565b60008060408385031215612ba657600080fd5b825167ffffffffffffffff80821115612bbe57600080fd5b818501915085601f830112612bd257600080fd5b81516020612be2612b4983612b04565b82815260059290921b84018101918181019089841115612c0157600080fd5b948201945b83861015612c28578551612c198161282a565b82529482019490820190612c06565b91880151919650909350505080821115612c4157600080fd5b50612c4e85828601612b28565b9150509250929050565b634e487b7160e01b600052603260045260246000fd5b600060208284031215612c8057600080fd5b815161039a81612984565b6020808252818101527f4f776e61626c653a2063616c6c6572206973206e6f7420746865206f776e6572604082015260600190565b6020808252601f908201527f5265656e7472616e637947756172643a207265656e7472616e742063616c6c00604082015260600190565b60008060408385031215612d0a57600080fd5b505080516020909101519092909150565b600060208284031215612d2d57600080fd5b5051919050565b600060a082018783526020878185015260a0604085015281875480845260c0860191508860005282600020935060005b81811015612d895784546001600160a01b031683526001948501949284019201612d64565b50506001600160a01b03969096166060850152505050608001529392505050565b600060208284031215612dbc57600080fd5b815167ffffffffffffffff811115612dd357600080fd5b612ddf84828501612b28565b949350505050565b6001600160a01b039889168152968816602088015260408701959095526060860193909352608085019190915260a084015290921660c082015260e08101919091526101000190565b600080600060608486031215612e4557600080fd5b8351925060208401519150604084015190509250925092565b634e487b7160e01b600052601160045260246000fd5b600082821015612e8657612e86612e5e565b500390565b6000816000190483118215151615612ea557612ea5612e5e565b500290565b600082612ec757634e487b7160e01b600052601260045260246000fd5b500490565b60008219821115612edf57612edf612e5e565b500190565b6000600019821415612ef857612ef8612e5e565b5060010190565b60005b83811015612f1a578181015183820152602001612f02565b83811115612f29576000848401525b50505050565b60008251612f41818460208701612eff565b9190910192915050565b6020815260008251806020840152612f6a816040850160208701612eff565b601f01601f1916919091016040019291505056fe416464726573733a206c6f772d6c6576656c2064656c65676174652063616c6c206661696c65640000000000000000000000000d500b1d8e8ef31e21c99d1db9a6444d3adf1270a26469706673582212208db34519feeb366a931803700fcbb0d03e76cf6ffa9760f1367ea96a1c347d9164736f6c634300080a0033",
  "immutableReferences": {
    "901": [
      {
        "length": 32,
        "start": 994
      },
      {
        "length": 32,
        "start": 1067
      },
      {
        "length": 32,
        "start": 4231
      },
      {
        "length": 32,
        "start": 4295
      }
    ]
  },
  "source": "// SPDX-License-Identifier: MIT\r\npragma solidity 0.8.10;\r\n\r\nimport \"../interfaces/IUniswapV2Pair.sol\";\r\nimport \"../interfaces/IUniswapV2Router.sol\";\r\nimport \"../interfaces/IMiniChefV2.sol\";\r\nimport \"../interfaces/IRewarder.sol\";\r\nimport \"@openzeppelin/contracts/utils/math/SafeMath.sol\";\r\nimport \"../interfaces/IUniswapV2Factory.sol\";\r\nimport \"@openzeppelin/contracts-upgradeable/access/OwnableUpgradeable.sol\";\r\nimport \"@openzeppelin/contracts/proxy/utils/UUPSUpgradeable.sol\";\r\nimport \"@openzeppelin/contracts/security/ReentrancyGuard.sol\";\r\nimport \"../utils/Cooldown.sol\";\r\n\r\ncontract SushiswapFarmUpgradeable is UUPSUpgradeable, Initializable, OwnableUpgradeable, ReentrancyGuard, Cooldown {\r\n    using SafeMath for uint256;\r\n\r\n    /**\r\n     * @dev Tokens Used:\r\n     * {WMATIC} - WMATIC token address\r\n     * {rewardToken} - Token generated by staking our funds (SUSHI).\r\n     * {rewarderToken} - Token generated by ComplexRewarderTime contract (Second Reward token).\r\n     * {lpPair} - Token that the strategy maximizes. The same token that users deposit in the {lpStakingPool}.\r\n     * {lpToken0, lpToken1} - Tokens that the strategy maximizes.\r\n     * {pid} - Pool ID\r\n     */\r\n    address private constant WMATIC = address(0x0d500B1d8E8eF31E21C99d1Db9A6444d3ADf1270);\r\n    address public rewardToken;\r\n    address public rewarderToken;\r\n    address public lpPair;\r\n    address public tokenA;\r\n    address public tokenB;\r\n    uint256 public pid;\r\n\r\n    /**\r\n     * @dev Third Party Contracts:\r\n     * {sushiswapRouter} -  sushiswap router\r\n     * {MiniChef} -The contract that produces {rewardToken}\r\n     * {ComplexRewarderTime} -The contract that produces {rewarderToken}\r\n     */\r\n    IUniswapV2Router01 private constant sushiswapRouter = IUniswapV2Router01(0x1b02dA8Cb0d097eB8D57A175b88c7D8b47997506);\r\n    IMiniChefV2 private constant MiniChef = IMiniChefV2(0x0769fd68dFb93167989C6f7254cd0D766Fb2841F);\r\n    IRewarder private ComplexRewarderTime;\r\n\r\n    /**\r\n     * @dev Routes:\r\n     * {rewardTokenToTokenARoute, rewardTokenToTokenBRoute} - The routes to trade {rewardToken} with\r\n     * {rewarderTokenToTokenARoute, rewarderTokenToTokenBRoute} - The routes to trade {rewarderToken} with\r\n     * {rewarderTokenToRewardToken} - The route to convert {rewarderToken} to {rewardToken}\r\n     */\r\n    address[] private rewardTokenToTokenARoute;\r\n    address[] private rewardTokenToTokenBRoute;\r\n\r\n    address[] private rewarderTokenToTokenARoute;\r\n    address[] private rewarderTokenToTokenBRoute;\r\n\r\n    address[] private rewarderTokenToRewardToken;\r\n    \r\n    /**\r\n     * @dev Contract Variables:\r\n     * The implementation of Scalable Reward Distribution on the Ethereum Blockchain paper by B. Batog, L. Boca and N. Johnson\r\n     * {totalDeposits} - The sum of all active stake deposits | (T)\r\n     * {sumOfRewards} - The sum of (rewards)/(totalDeposits) | (S)\r\n     * {stakes} - All stakes made by users | (stake)\r\n     * {sumOfRewardsForUser} - A sumOfRewards for users at pool join time | (S0)\r\n     */\r\n    uint256 private totalDeposits;\r\n    uint256 private sumOfRewards;\r\n    mapping(address => uint256) private stakes;\r\n    mapping(address => uint256) private sumOfRewardsForUser;\r\n\r\n    // ============ Methods ============\r\n\r\n    function initialize(address _lpPair, address owner) public initializer {\r\n        __Ownable_init();\r\n        transferOwnership(owner);\r\n\r\n        pid = getPid(_lpPair);\r\n\r\n        rewardToken = MiniChef.SUSHI();\r\n        ComplexRewarderTime = IRewarder(MiniChef.rewarder(pid));\r\n        if (address(ComplexRewarderTime) != address(0)) {\r\n            (IERC20[] memory rewarderTokenArray, ) = ComplexRewarderTime\r\n                .pendingTokens(pid, address(0), 0);\r\n            rewarderToken = address(rewarderTokenArray[0]);\r\n        }\r\n\r\n        lpPair = MiniChef.lpToken(pid);\r\n\r\n        tokenA = IUniswapV2Pair(lpPair).token0();\r\n        tokenB = IUniswapV2Pair(lpPair).token1();\r\n\r\n        if (rewarderToken == WMATIC) {\r\n            if (tokenA != WMATIC) {\r\n                rewarderTokenToTokenARoute = [rewarderToken, tokenA];\r\n            }\r\n            if (tokenB != WMATIC) {\r\n                rewarderTokenToTokenBRoute = [rewarderToken, tokenB];\r\n            }\r\n            if (rewardToken != WMATIC) {\r\n                rewarderTokenToRewardToken = [rewarderToken, rewardToken];\r\n            }\r\n        } else {\r\n            if (tokenA != WMATIC) {\r\n                rewarderTokenToTokenARoute = [rewarderToken, WMATIC, tokenA];\r\n            } else {\r\n                rewarderTokenToTokenARoute = [rewarderToken, tokenA];\r\n            }\r\n\r\n            if (tokenB != WMATIC) {\r\n                rewarderTokenToTokenBRoute = [rewarderToken, WMATIC, tokenB];\r\n            } else {\r\n                rewarderTokenToTokenBRoute = [rewarderToken, tokenB];\r\n            }\r\n\r\n            if (rewardToken != WMATIC) {\r\n                rewarderTokenToRewardToken = [rewarderToken, WMATIC, rewardToken];\r\n            } else {\r\n                rewarderTokenToRewardToken = [rewarderToken, rewardToken];\r\n            }\r\n        }\r\n\r\n        if (tokenA == WMATIC) {\r\n            rewardTokenToTokenARoute = [rewardToken, WMATIC];\r\n        } else if (tokenA != rewardToken) {\r\n            rewardTokenToTokenARoute = [rewardToken, WMATIC, tokenA];\r\n        }\r\n\r\n        if (tokenB == WMATIC) {\r\n            rewardTokenToTokenBRoute = [rewardToken, WMATIC];\r\n        } else if (tokenB != rewardToken) {\r\n            rewardTokenToTokenBRoute = [rewardToken, WMATIC, tokenB];\r\n        }\r\n\r\n        uint256 MAX_UINT = uint256(2**256 - 1);\r\n        IERC20(lpPair).approve(address(MiniChef), MAX_UINT);\r\n        IERC20(lpPair).approve(address(sushiswapRouter), MAX_UINT);\r\n        IERC20(rewardToken).approve(address(sushiswapRouter), MAX_UINT);\r\n        IERC20(rewarderToken).approve(address(sushiswapRouter), MAX_UINT);\r\n        IERC20(tokenA).approve(address(sushiswapRouter), MAX_UINT);\r\n        IERC20(tokenB).approve(address(sushiswapRouter), MAX_UINT);\r\n    }\r\n\r\n    /**\r\n     * @dev Function that makes the deposits\r\n     * If it's not the first deposit, withdraws {lpStakingPool} and deposits new tokens with the old ones.\r\n     */\r\n    function deposit(uint256 amountA, uint256 amountB, uint256 amountLP, address origin) external onlyOwner startCooldown(origin) nonReentrant returns(uint256){\r\n        uint256 withdrawAmount = 0;\r\n        if (stakes[origin] != 0) {\r\n            withdrawAmount = withdrawToContract(origin);\r\n        }\r\n\r\n        uint256 sentA;\r\n        uint256 sentB;\r\n        uint256 addedLiquidity;\r\n        \r\n        if(amountA > 0 && amountB > 0){\r\n            (sentA, sentB, addedLiquidity) = sushiswapRouter.addLiquidity(tokenA, tokenB, amountA, amountB, 0, 0, address(this), block.timestamp.add(600));\r\n        }\r\n\r\n        uint256 depositAmount = addedLiquidity.add(withdrawAmount).add(amountLP);\r\n        require(depositAmount > 0, 'The amount provided is 0');\r\n\r\n        stakes[origin] = depositAmount;\r\n        sumOfRewardsForUser[origin] = sumOfRewards;\r\n        totalDeposits = totalDeposits.add(depositAmount);\r\n\r\n        MiniChef.deposit(pid, depositAmount, address(this));\r\n\r\n        IERC20(tokenA).transfer(origin, amountA.sub(sentA));\r\n        IERC20(tokenB).transfer(origin, amountB.sub(sentB)); \r\n\r\n        return depositAmount;\r\n    }\r\n\r\n    /**\r\n     * @dev Withdraws funds and sends them to the {{msg.sender}}.\r\n     */\r\n    function withdraw(address origin, bool withdrawLP) external onlyOwner checkCooldown(origin) nonReentrant returns(uint256){\r\n        require(stakes[origin] > 0, \"The amount staked should be more than 0\");\r\n        uint256 withdrawAmount = withdrawToContract(origin);\r\n\r\n        if(withdrawLP){\r\n            IERC20(lpPair).transfer(origin, withdrawAmount);\r\n            return withdrawAmount;\r\n        }\r\n        sushiswapRouter.removeLiquidity(tokenA, tokenB, withdrawAmount, 0, 0, origin, block.timestamp.add(600));\r\n        return withdrawAmount;\r\n    }\r\n\r\n    /**\r\n     * @dev Withdraws funds to this contract.\r\n     * It withdraws {lpPair} from the {lpStakingPool} to this contract.\r\n     */\r\n    function withdrawToContract(address origin) internal returns(uint256){\r\n        uint256 withdrawAmount = userBalance(origin);\r\n        totalDeposits = totalDeposits.sub(stakes[origin]);\r\n        MiniChef.withdraw(pid, withdrawAmount, address(this));\r\n        stakes[origin] = 0;\r\n        return withdrawAmount;\r\n    }\r\n\r\n    \r\n    /**\r\n     * @dev Core function of the strat, in charge of updating, collecting and re-investing rewards.\r\n     * 1. It claims rewards from the {lpStakingPool}.\r\n     * 2. It swaps the {rewardToken} token for {lpToken0} & {lpToken1}\r\n     * 3. It deposits the new LP tokens back in the {lpStakingPool}.\r\n     */\r\n    function distribute() external onlyOwner nonReentrant{\r\n        require(totalDeposits > 0, \"There should be some tokens in the pool\");\r\n\r\n        MiniChef.harvest(pid, address(this));\r\n        uint256 rewardTokenHalf = IERC20(rewardToken).balanceOf(address(this)).div(2);\r\n\r\n        if (address(ComplexRewarderTime) != address(0)) {\r\n            uint256 rewarderTokenHalf = IERC20(rewarderToken).balanceOf(address(this)).div(2);\r\n            if (tokenA != rewarderToken) {\r\n                sushiswapRouter.swapExactTokensForTokens(rewarderTokenHalf, 0, rewarderTokenToTokenARoute, address(this), block.timestamp.add(600));\r\n            }\r\n\r\n            if (tokenB != rewarderToken) {\r\n                sushiswapRouter.swapExactTokensForTokens(rewarderTokenHalf, 0, rewarderTokenToTokenBRoute, address(this), block.timestamp.add(600));\r\n            }\r\n        }\r\n\r\n        if (tokenA != rewardToken) {\r\n            sushiswapRouter.swapExactTokensForTokens(rewardTokenHalf, 0, rewardTokenToTokenARoute, address(this), block.timestamp.add(600));\r\n        }\r\n\r\n        if (tokenB != rewardToken) {\r\n            sushiswapRouter.swapExactTokensForTokens(rewardTokenHalf, 0, rewardTokenToTokenBRoute, address(this), block.timestamp.add(600));\r\n        }\r\n\r\n        uint256 tokenABalance = IERC20(tokenA).balanceOf(address(this));\r\n        uint256 tokenBBalance = IERC20(tokenB).balanceOf(address(this));\r\n\r\n        sushiswapRouter.addLiquidity(tokenA, tokenB, tokenABalance, tokenBBalance, 1, 1, address(this), block.timestamp.add(600));\r\n\r\n        uint256 reward = IERC20(lpPair).balanceOf(address(this));\r\n        if (reward > 0) {\r\n            sumOfRewards = sumOfRewards.add(uint256(1 ether).mul(reward).div(totalDeposits));\r\n            MiniChef.deposit(pid, reward, address(this));\r\n        }\r\n    }\r\n\r\n    /**\r\n     * @dev Returns total funds in the {_lpStakingPool} for an {_address}\r\n     */\r\n    function userBalance(address _address) public view returns (uint256) {\r\n        uint256 reward = stakes[_address].mul(sumOfRewards.sub(sumOfRewardsForUser[_address])).div(uint256(1 ether));\r\n        return stakes[_address].add(reward);\r\n    }\r\n\r\n    /**\r\n     * @dev Returns total amount locked in the pool.\r\n     */\r\n    function getTotalDeposits() external view returns (uint256) {\r\n        return totalDeposits.add(totalDeposits.mul(sumOfRewards).div(uint256(1 ether)));\r\n    }\r\n\r\n    /**\r\n     * @dev Get pid by iterating over all pools and comparing pids.\r\n     */\r\n    function getPid(address _lpPair) internal view returns (uint256 _pid) {\r\n        bool poolExists = false;\r\n        for (uint256 i = 0; i < MiniChef.poolLength(); i++) {\r\n            if (MiniChef.lpToken(i) == _lpPair) {\r\n                _pid = i;\r\n                poolExists = true;\r\n                break;\r\n            }\r\n        }\r\n        require(poolExists, \"The pool with the given pair token doesn't exist\");\r\n        return _pid;\r\n    }\r\n\r\n    function _authorizeUpgrade(address newImplementation) internal override onlyOwner {\r\n\r\n    }\r\n}",
  "sourcePath": "C:\\Users\\jugli\\Desktop\\uno\\uno-contracts-branch\\contracts\\farms\\SushiswapFarmUpgradeable.sol",
  "compiler": {
    "name": "solc",
    "version": "0.8.10+commit.fc410830.Emscripten.clang"
  },
  "schemaVersion": "3.4.3",
  "updatedAt": "2021-12-16T18:12:11.114Z",
  "devdoc": {
    "kind": "dev",
    "methods": {
      "deposit(uint256,uint256,uint256,address)": {
        "details": "Function that makes the deposits If it's not the first deposit, withdraws {lpStakingPool} and deposits new tokens with the old ones."
      },
      "distribute()": {
        "details": "Core function of the strat, in charge of updating, collecting and re-investing rewards. 1. It claims rewards from the {lpStakingPool}. 2. It swaps the {rewardToken} token for {lpToken0} & {lpToken1} 3. It deposits the new LP tokens back in the {lpStakingPool}."
      },
      "getTotalDeposits()": {
        "details": "Returns total amount locked in the pool."
      },
      "owner()": {
        "details": "Returns the address of the current owner."
      },
      "renounceOwnership()": {
        "details": "Leaves the contract without owner. It will not be possible to call `onlyOwner` functions anymore. Can only be called by the current owner. NOTE: Renouncing ownership will leave the contract without an owner, thereby removing any functionality that is only available to the owner."
      },
      "transferOwnership(address)": {
        "details": "Transfers ownership of the contract to a new account (`newOwner`). Can only be called by the current owner."
      },
      "upgradeTo(address)": {
        "details": "Upgrade the implementation of the proxy to `newImplementation`. Calls {_authorizeUpgrade}. Emits an {Upgraded} event."
      },
      "upgradeToAndCall(address,bytes)": {
        "details": "Upgrade the implementation of the proxy to `newImplementation`, and subsequently execute the function call encoded in `data`. Calls {_authorizeUpgrade}. Emits an {Upgraded} event."
      },
      "userBalance(address)": {
        "details": "Returns total funds in the {_lpStakingPool} for an {_address}"
      },
      "withdraw(address,bool)": {
        "details": "Withdraws funds and sends them to the {{msg.sender}}."
      }
    },
    "stateVariables": {
      "WMATIC": {
        "details": "Tokens Used: {WMATIC} - WMATIC token address {rewardToken} - Token generated by staking our funds (SUSHI). {rewarderToken} - Token generated by ComplexRewarderTime contract (Second Reward token). {lpPair} - Token that the strategy maximizes. The same token that users deposit in the {lpStakingPool}. {lpToken0, lpToken1} - Tokens that the strategy maximizes. {pid} - Pool ID"
      },
      "rewardTokenToTokenARoute": {
        "details": "Routes: {rewardTokenToTokenARoute, rewardTokenToTokenBRoute} - The routes to trade {rewardToken} with {rewarderTokenToTokenARoute, rewarderTokenToTokenBRoute} - The routes to trade {rewarderToken} with {rewarderTokenToRewardToken} - The route to convert {rewarderToken} to {rewardToken}"
      },
      "sushiswapRouter": {
        "details": "Third Party Contracts: {sushiswapRouter} -  sushiswap router {MiniChef} -The contract that produces {rewardToken} {ComplexRewarderTime} -The contract that produces {rewarderToken}"
      },
      "totalDeposits": {
        "details": "Contract Variables: The implementation of Scalable Reward Distribution on the Ethereum Blockchain paper by B. Batog, L. Boca and N. Johnson {totalDeposits} - The sum of all active stake deposits | (T) {sumOfRewards} - The sum of (rewards)/(totalDeposits) | (S) {stakes} - All stakes made by users | (stake) {sumOfRewardsForUser} - A sumOfRewards for users at pool join time | (S0)"
      }
    },
    "version": 1
  },
  "userdoc": {
    "kind": "user",
    "methods": {},
    "version": 1
  }
}