{
  "contractName": "SushiswapFarmFactoryBeacon",
  "abi": [
    {
      "anonymous": false,
      "inputs": [
        {
          "indexed": true,
          "internalType": "address",
          "name": "sender",
          "type": "address"
        },
        {
          "indexed": true,
          "internalType": "address",
          "name": "lpPool",
          "type": "address"
        },
        {
          "indexed": false,
          "internalType": "uint256",
          "name": "amount",
          "type": "uint256"
        }
      ],
      "name": "Deposit",
      "type": "event"
    },
    {
      "anonymous": false,
      "inputs": [
        {
          "indexed": true,
          "internalType": "address",
          "name": "lpPool",
          "type": "address"
        }
      ],
      "name": "Distribute",
      "type": "event"
    },
    {
      "anonymous": false,
      "inputs": [
        {
          "indexed": true,
          "internalType": "address",
          "name": "newDistributor",
          "type": "address"
        }
      ],
      "name": "DistributorChanged",
      "type": "event"
    },
    {
      "anonymous": false,
      "inputs": [
        {
          "indexed": true,
          "internalType": "address",
          "name": "farmAddress",
          "type": "address"
        }
      ],
      "name": "FarmDeployed",
      "type": "event"
    },
    {
      "anonymous": false,
      "inputs": [
        {
          "indexed": true,
          "internalType": "address",
          "name": "previousOwner",
          "type": "address"
        },
        {
          "indexed": true,
          "internalType": "address",
          "name": "newOwner",
          "type": "address"
        }
      ],
      "name": "OwnershipTransferred",
      "type": "event"
    },
    {
      "anonymous": false,
      "inputs": [
        {
          "indexed": false,
          "internalType": "address",
          "name": "account",
          "type": "address"
        }
      ],
      "name": "Paused",
      "type": "event"
    },
    {
      "anonymous": false,
      "inputs": [
        {
          "indexed": false,
          "internalType": "address",
          "name": "account",
          "type": "address"
        }
      ],
      "name": "Unpaused",
      "type": "event"
    },
    {
      "anonymous": false,
      "inputs": [
        {
          "indexed": true,
          "internalType": "address",
          "name": "sender",
          "type": "address"
        },
        {
          "indexed": true,
          "internalType": "address",
          "name": "lpPool",
          "type": "address"
        },
        {
          "indexed": false,
          "internalType": "uint256",
          "name": "amount",
          "type": "uint256"
        }
      ],
      "name": "Withdraw",
      "type": "event"
    },
    {
      "inputs": [
        {
          "internalType": "address",
          "name": "",
          "type": "address"
        }
      ],
      "name": "Farms",
      "outputs": [
        {
          "internalType": "contract SushiswapFarmUpgradeable",
          "name": "",
          "type": "address"
        }
      ],
      "stateMutability": "view",
      "type": "function"
    },
    {
      "inputs": [],
      "name": "distributor",
      "outputs": [
        {
          "internalType": "address",
          "name": "",
          "type": "address"
        }
      ],
      "stateMutability": "view",
      "type": "function"
    },
    {
      "inputs": [],
      "name": "farmBeacon",
      "outputs": [
        {
          "internalType": "address",
          "name": "",
          "type": "address"
        }
      ],
      "stateMutability": "view",
      "type": "function"
    },
    {
      "inputs": [
        {
          "internalType": "uint256",
          "name": "",
          "type": "uint256"
        }
      ],
      "name": "lpPools",
      "outputs": [
        {
          "internalType": "address",
          "name": "",
          "type": "address"
        }
      ],
      "stateMutability": "view",
      "type": "function"
    },
    {
      "inputs": [],
      "name": "owner",
      "outputs": [
        {
          "internalType": "address",
          "name": "",
          "type": "address"
        }
      ],
      "stateMutability": "view",
      "type": "function"
    },
    {
      "inputs": [],
      "name": "paused",
      "outputs": [
        {
          "internalType": "bool",
          "name": "",
          "type": "bool"
        }
      ],
      "stateMutability": "view",
      "type": "function"
    },
    {
      "inputs": [],
      "name": "renounceOwnership",
      "outputs": [],
      "stateMutability": "nonpayable",
      "type": "function"
    },
    {
      "inputs": [
        {
          "internalType": "address",
          "name": "newOwner",
          "type": "address"
        }
      ],
      "name": "transferOwnership",
      "outputs": [],
      "stateMutability": "nonpayable",
      "type": "function"
    },
    {
      "inputs": [
        {
          "internalType": "address",
          "name": "upgrader",
          "type": "address"
        }
      ],
      "name": "initialize",
      "outputs": [],
      "stateMutability": "nonpayable",
      "type": "function"
    },
    {
      "inputs": [
        {
          "internalType": "uint256",
          "name": "amountA",
          "type": "uint256"
        },
        {
          "internalType": "uint256",
          "name": "amountB",
          "type": "uint256"
        },
        {
          "internalType": "uint256",
          "name": "amountLP",
          "type": "uint256"
        },
        {
          "internalType": "address",
          "name": "lpPair",
          "type": "address"
        },
        {
          "internalType": "address",
          "name": "recipient",
          "type": "address"
        }
      ],
      "name": "deposit",
      "outputs": [
        {
          "internalType": "uint256",
          "name": "sentA",
          "type": "uint256"
        },
        {
          "internalType": "uint256",
          "name": "sentB",
          "type": "uint256"
        },
        {
          "internalType": "uint256",
          "name": "liquidity",
          "type": "uint256"
        }
      ],
      "stateMutability": "nonpayable",
      "type": "function"
    },
    {
      "inputs": [
        {
          "internalType": "address",
          "name": "lpPair",
          "type": "address"
        },
        {
          "internalType": "uint256",
          "name": "amount",
          "type": "uint256"
        },
        {
          "internalType": "bool",
          "name": "withdrawLP",
          "type": "bool"
        },
        {
          "internalType": "address",
          "name": "recipient",
          "type": "address"
        }
      ],
      "name": "withdraw",
      "outputs": [
        {
          "internalType": "uint256",
          "name": "amountA",
          "type": "uint256"
        },
        {
          "internalType": "uint256",
          "name": "amountB",
          "type": "uint256"
        }
      ],
      "stateMutability": "nonpayable",
      "type": "function"
    },
    {
      "inputs": [
        {
          "internalType": "address",
          "name": "lpPair",
          "type": "address"
        },
        {
          "internalType": "uint256",
          "name": "expectedReward",
          "type": "uint256"
        },
        {
          "internalType": "uint256",
          "name": "expectedRewardBlock",
          "type": "uint256"
        }
      ],
      "name": "setExpectedReward",
      "outputs": [],
      "stateMutability": "nonpayable",
      "type": "function"
    },
    {
      "inputs": [
        {
          "internalType": "address",
          "name": "lpPair",
          "type": "address"
        },
        {
          "internalType": "address[]",
          "name": "rewarderTokenToTokenARoute",
          "type": "address[]"
        },
        {
          "internalType": "address[]",
          "name": "rewarderTokenToTokenBRoute",
          "type": "address[]"
        },
        {
          "internalType": "address[]",
          "name": "rewardTokenToTokenARoute",
          "type": "address[]"
        },
        {
          "internalType": "address[]",
          "name": "rewardTokenToTokenBRoute",
          "type": "address[]"
        }
      ],
      "name": "distribute",
      "outputs": [],
      "stateMutability": "nonpayable",
      "type": "function"
    },
    {
      "inputs": [
        {
          "internalType": "address",
          "name": "_address",
          "type": "address"
        },
        {
          "internalType": "address",
          "name": "lpPair",
          "type": "address"
        }
      ],
      "name": "userStake",
      "outputs": [
        {
          "internalType": "uint256",
          "name": "stakeLP",
          "type": "uint256"
        },
        {
          "internalType": "uint256",
          "name": "stakeA",
          "type": "uint256"
        },
        {
          "internalType": "uint256",
          "name": "stakeB",
          "type": "uint256"
        }
      ],
      "stateMutability": "view",
      "type": "function"
    },
    {
      "inputs": [
        {
          "internalType": "address",
          "name": "lpPair",
          "type": "address"
        }
      ],
      "name": "totalDeposits",
      "outputs": [
        {
          "internalType": "uint256",
          "name": "totalDepositsLP",
          "type": "uint256"
        },
        {
          "internalType": "uint256",
          "name": "totalDepositsA",
          "type": "uint256"
        },
        {
          "internalType": "uint256",
          "name": "totalDepositsB",
          "type": "uint256"
        }
      ],
      "stateMutability": "view",
      "type": "function"
    },
    {
      "inputs": [],
      "name": "poolLength",
      "outputs": [
        {
          "internalType": "uint256",
          "name": "",
          "type": "uint256"
        }
      ],
      "stateMutability": "view",
      "type": "function"
    },
    {
      "inputs": [
        {
          "internalType": "address",
          "name": "newDistributor",
          "type": "address"
        }
      ],
      "name": "transferDistributor",
      "outputs": [],
      "stateMutability": "nonpayable",
      "type": "function"
    },
    {
      "inputs": [],
      "name": "pause",
      "outputs": [],
      "stateMutability": "nonpayable",
      "type": "function"
    },
    {
      "inputs": [],
      "name": "unpause",
      "outputs": [],
      "stateMutability": "nonpayable",
      "type": "function"
    }
  ],
  "bytecode": "0x608060405234801561001057600080fd5b50615ffe806100206000396000f3fe60806040523480156200001157600080fd5b5060043610620001065760003560e01c8063081e3eda146200010b5780633f4ba83a1462000121578063430004c1146200012d57806351bdca3e146200015a5780635c975abb146200018d578063613c91af14620001a4578063715018a614620001bb5780637c770aae14620001c55780638456cb5914620001dc5780638da5cb5b14620001e6578063bfe1092814620001ff578063c4d66de81462000213578063d2dd71ad146200022a578063d95a4d931462000241578063e23329081462000255578063e9403256146200026c578063ecb039431462000283578063f2fde38b146200029a578063f9d9331d14620002b1575b600080fd5b609a546040519081526020015b60405180910390f35b6200012b620002dd565b005b620001446200013e36600462001727565b62000326565b6040805192835260208301919091520162000118565b620001716200016b36600462001781565b6200045f565b6040805193845260208401929092529082015260600162000118565b60335460ff16604051901515815260200162000118565b6200012b620001b5366004620017bf565b62000526565b6200012b620005de565b62000171620001d6366004620017f7565b6200061e565b6200012b6200090b565b620001f062000949565b60405162000118919062001852565b609854620001f0906001600160a01b031681565b6200012b6200022436600462001866565b62000958565b6200012b6200023b366004620018cd565b62000b17565b609754620001f0906001600160a01b031681565b6200012b6200026636600462001866565b62000c3c565b620001716200027d36600462001866565b62000cba565b620001f062000294366004620019b4565b62000d79565b6200012b620002ab36600462001866565b62000da4565b620001f0620002c236600462001866565b6099602052600090815260409020546001600160a01b031681565b33620002e862000949565b6001600160a01b0316146200031a5760405162461bcd60e51b81526004016200031190620019ce565b60405180910390fd5b6200032462000e4d565b565b6000806200033660335460ff1690565b15620003565760405162461bcd60e51b8152600401620003119062001a03565b6001600160a01b03868116600090815260996020526040902054166200037b57600080fd5b6001600160a01b038681166000908152609960205260409081902054905163430004c160e01b8152336004820152602481018890528615156044820152858316606482015291169063430004c19060840160408051808303816000875af1158015620003eb573d6000803e3d6000fd5b505050506040513d601f19601f8201168201806040525081019062000411919062001a2d565b60405187815291935091506001600160a01b0387169033907f9b1bfa7fa9ee420a16e124f794c35ac9f90472acc99140eb2f6447c714cad8eb9060200160405180910390a394509492505050565b6001600160a01b0381811660009081526099602052604081205490918291829116156200051f576001600160a01b0380851660009081526099602052604090819020549051630103c92b60e01b8152911690630103c92b90620004c790889060040162001852565b602060405180830381865afa158015620004e5573d6000803e3d6000fd5b505050506040513d601f19601f820116820180604052508101906200050b919062001a52565b925062000519848462000ede565b90925090505b9250925092565b6098546001600160a01b031633146200053e57600080fd5b6001600160a01b03838116600090815260996020526040902054166200056357600080fd5b6001600160a01b0383811660009081526099602052604090819020549051631d1b53a960e31b8152600481018590526024810184905291169063e8da9d4890604401600060405180830381600087803b158015620005c057600080fd5b505af1158015620005d5573d6000803e3d6000fd5b50505050505050565b33620005e962000949565b6001600160a01b031614620006125760405162461bcd60e51b81526004016200031190620019ce565b6200032460006200118a565b60008060006200063060335460ff1690565b15620006505760405162461bcd60e51b8152600401620003119062001a03565b6001600160a01b0385811660009081526099602052604090205416620006e3576200067b85620011dc565b6001600160a01b0380871660008181526099602052604081208054949093166001600160a01b031994851617909255609a805460018101825592527f44da158ba27f9252712a74ff6a55c5d531f69609f1f6e7f17c4443a8e2089be490910180549092161790555b871562000784576001600160a01b0380861660009081526099602090815260409182902054825162fc63d160e41b81529251620007849433949216928d928492630fc63d10926004808401939192918290030181865afa1580156200074c573d6000803e3d6000fd5b505050506040513d601f19601f8201168201806040525081019062000772919062001a6c565b6001600160a01b0316929190620012b3565b8615620007ee576001600160a01b03808616600090815260996020908152604091829020548251635f64b55b60e01b81529251620007ee9433949216928c928492635f64b55b926004808401939192918290030181865afa1580156200074c573d6000803e3d6000fd5b85156200081e576001600160a01b038086166000818152609960205260409020546200081e9233911689620012b3565b6001600160a01b038581166000908152609960205260409081902054905163fad3cc4b60e01b8152600481018b9052602481018a905260448101899052868316606482015291169063fad3cc4b906084016060604051808303816000875af11580156200088f573d6000803e3d6000fd5b505050506040513d601f19601f82011682018060405250810190620008b5919062001a8c565b60405181815292955090935091506001600160a01b0380871691908616907f5548c837ab068cf56a2c2479df0882a4922fd203edb7517321831d95078c5f629060200160405180910390a3955095509592505050565b336200091662000949565b6001600160a01b0316146200093f5760405162461bcd60e51b81526004016200031190620019ce565b6200032462001315565b6065546001600160a01b031690565b600054610100900460ff16620009755760005460ff16156200097f565b6200097f62001371565b620009e45760405162461bcd60e51b815260206004820152602e60248201527f496e697469616c697a61626c653a20636f6e747261637420697320616c72656160448201526d191e481a5b9a5d1a585b1a5e995960921b606482015260840162000311565b600054610100900460ff1615801562000a07576000805461ffff19166101011790555b62000a1162001384565b62000a1b620013b8565b62000a26826200118a565b60405162000a3490620016d8565b604051809103906000f08015801562000a51573d6000803e3d6000fd5b5060405162000a6090620016e6565b62000a6c919062001852565b604051809103906000f08015801562000a89573d6000803e3d6000fd5b50609780546001600160a01b0319166001600160a01b0392909216918217905560405163f2fde38b60e01b815263f2fde38b9062000acc90859060040162001852565b600060405180830381600087803b15801562000ae757600080fd5b505af115801562000afc573d6000803e3d6000fd5b50505050801562000b13576000805461ff00191690555b5050565b6098546001600160a01b0316331462000b2f57600080fd5b60335460ff161562000b555760405162461bcd60e51b8152600401620003119062001a03565b6001600160a01b038981166000908152609960205260409020541662000b7a57600080fd5b6001600160a01b03808a16600090815260996020526040908190205490516373ad67d760e01b81529116906373ad67d79062000bc9908b908b908b908b908b908b908b908b9060040162001b08565b600060405180830381600087803b15801562000be457600080fd5b505af115801562000bf9573d6000803e3d6000fd5b50506040516001600160a01b038c1692507f2ab0d312ec5eef312bf327c57a266c37191bf9c85aeea6c7d67c3a2db9f05bb79150600090a2505050505050505050565b3362000c4762000949565b6001600160a01b03161462000c705760405162461bcd60e51b81526004016200031190620019ce565b609880546001600160a01b0319166001600160a01b0383169081179091556040517fe37acc13f5ed9d0cc83c2842e093fe5a494d5b8fb5b1db06356b327081832f5290600090a250565b6001600160a01b03818116600090815260996020526040812054909182918291161562000d72576001600160a01b03808516600090815260996020908152604091829020548251637d88209760e01b81529251931692637d8820979260048082019392918290030181865afa15801562000d38573d6000803e3d6000fd5b505050506040513d601f19601f8201168201806040525081019062000d5e919062001a52565b925062000d6c848462000ede565b90925090505b9193909250565b609a818154811062000d8a57600080fd5b6000918252602090912001546001600160a01b0316905081565b3362000daf62000949565b6001600160a01b03161462000dd85760405162461bcd60e51b81526004016200031190620019ce565b6001600160a01b03811662000e3f5760405162461bcd60e51b815260206004820152602660248201527f4f776e61626c653a206e6577206f776e657220697320746865207a65726f206160448201526564647265737360d01b606482015260840162000311565b62000e4a816200118a565b50565b60335460ff1662000e985760405162461bcd60e51b815260206004820152601460248201527314185d5cd8589b194e881b9bdd081c185d5cd95960621b604482015260640162000311565b6033805460ff191690557f5db9ee0a495bf2e6ff9c91a7834c1ba4fdd244a5e8aa4e537bd38aeae4b073aa335b60405162000ed4919062001852565b60405180910390a1565b6001600160a01b0382811660009081526099602052604081205490918291161562001183576000846001600160a01b03166318160ddd6040518163ffffffff1660e01b8152600401602060405180830381865afa15801562000f44573d6000803e3d6000fd5b505050506040513d601f19601f8201168201806040525081019062000f6a919062001a52565b6001600160a01b0380871660009081526099602090815260409182902054825162fc63d160e41b815292519495508594931692630fc63d109260048082019392918290030181865afa15801562000fc5573d6000803e3d6000fd5b505050506040513d601f19601f8201168201806040525081019062000feb919062001a6c565b6001600160a01b03166370a08231876040518263ffffffff1660e01b815260040162001018919062001852565b602060405180830381865afa15801562001036573d6000803e3d6000fd5b505050506040513d601f19601f820116820180604052508101906200105c919062001a52565b62001068908662001b70565b62001074919062001b9e565b6001600160a01b03808716600090815260996020908152604091829020548251635f64b55b60e01b815292519497508594931692635f64b55b9260048082019392918290030181865afa158015620010d0573d6000803e3d6000fd5b505050506040513d601f19601f82011682018060405250810190620010f6919062001a6c565b6001600160a01b03166370a08231876040518263ffffffff1660e01b815260040162001123919062001852565b602060405180830381865afa15801562001141573d6000803e3d6000fd5b505050506040513d601f19601f8201168201806040525081019062001167919062001a52565b62001173908662001b70565b6200117f919062001b9e565b9150505b9250929050565b606580546001600160a01b038381166001600160a01b0319831681179093556040519116919082907f8be0079c531659141344cd1fd0a4f28419497f9722a3daafe3b4186f6b6457e090600090a35050565b60975460405160009182916001600160a01b039091169063189acdbd60e31b906200120c90869060240162001852565b60408051601f198184030181529181526020820180516001600160e01b03166001600160e01b03199094169390931790925290516200124b90620016f4565b6200125892919062001c1e565b604051809103906000f08015801562001275573d6000803e3d6000fd5b506040519091506001600160a01b038216907f7fee2c251a158c3c3bcc28f8db26af3c4a0483735c8f254b9aa8a0b5e0b56d0890600090a292915050565b604080516001600160a01b0385811660248301528416604482015260648082018490528251808303909101815260849091019091526020810180516001600160e01b03166323b872dd60e01b1790526200130f908590620013ec565b50505050565b60335460ff16156200133b5760405162461bcd60e51b8152600401620003119062001a03565b6033805460ff191660011790557f62e78cea01bee320cd4e420270b5ea74000d11b0c9f74754ebdbfc544b05a25862000ec53390565b60006200137e30620014ca565b15905090565b600054610100900460ff16620013ae5760405162461bcd60e51b8152600401620003119062001c44565b62000324620014d9565b600054610100900460ff16620013e25760405162461bcd60e51b8152600401620003119062001c44565b620003246200150f565b600062001443826040518060400160405280602081526020017f5361666545524332303a206c6f772d6c6576656c2063616c6c206661696c6564815250856001600160a01b0316620015449092919063ffffffff16565b805190915015620014c5578080602001905181019062001464919062001c8f565b620014c55760405162461bcd60e51b815260206004820152602a60248201527f5361666545524332303a204552433230206f7065726174696f6e20646964206e6044820152691bdd081cdd58d8d9595960b21b606482015260840162000311565b505050565b6001600160a01b03163b151590565b600054610100900460ff16620015035760405162461bcd60e51b8152600401620003119062001c44565b6033805460ff19169055565b600054610100900460ff16620015395760405162461bcd60e51b8152600401620003119062001c44565b62000324336200118a565b60606200155584846000856200155f565b90505b9392505050565b606082471015620015c25760405162461bcd60e51b815260206004820152602660248201527f416464726573733a20696e73756666696369656e742062616c616e636520666f6044820152651c8818d85b1b60d21b606482015260840162000311565b620015cd85620014ca565b6200161b5760405162461bcd60e51b815260206004820152601d60248201527f416464726573733a2063616c6c20746f206e6f6e2d636f6e7472616374000000604482015260640162000311565b600080866001600160a01b0316858760405162001639919062001caf565b60006040518083038185875af1925050503d806000811462001678576040519150601f19603f3d011682016040523d82523d6000602084013e6200167d565b606091505b50915091506200168f8282866200169a565b979650505050505050565b60608315620016ab57508162001558565b825115620016bc5782518084602001fd5b8160405162461bcd60e51b815260040162000311919062001ccd565b61345d8062001ce383390190565b610523806200514083390190565b610966806200566383390190565b6001600160a01b038116811462000e4a57600080fd5b801515811462000e4a57600080fd5b600080600080608085870312156200173e57600080fd5b84356200174b8162001702565b9350602085013592506040850135620017648162001718565b91506060850135620017768162001702565b939692955090935050565b600080604083850312156200179557600080fd5b8235620017a28162001702565b91506020830135620017b48162001702565b809150509250929050565b600080600060608486031215620017d557600080fd5b8335620017e28162001702565b95602085013595506040909401359392505050565b600080600080600060a086880312156200181057600080fd5b8535945060208601359350604086013592506060860135620018328162001702565b91506080860135620018448162001702565b809150509295509295909350565b6001600160a01b0391909116815260200190565b6000602082840312156200187957600080fd5b8135620015588162001702565b60008083601f8401126200189957600080fd5b5081356001600160401b03811115620018b157600080fd5b6020830191508360208260051b85010111156200118357600080fd5b600080600080600080600080600060a08a8c031215620018ec57600080fd5b8935620018f98162001702565b985060208a01356001600160401b03808211156200191657600080fd5b620019248d838e0162001886565b909a50985060408c01359150808211156200193e57600080fd5b6200194c8d838e0162001886565b909850965060608c01359150808211156200196657600080fd5b620019748d838e0162001886565b909650945060808c01359150808211156200198e57600080fd5b506200199d8c828d0162001886565b915080935050809150509295985092959850929598565b600060208284031215620019c757600080fd5b5035919050565b6020808252818101527f4f776e61626c653a2063616c6c6572206973206e6f7420746865206f776e6572604082015260600190565b60208082526010908201526f14185d5cd8589b194e881c185d5cd95960821b604082015260600190565b6000806040838503121562001a4157600080fd5b505080516020909101519092909150565b60006020828403121562001a6557600080fd5b5051919050565b60006020828403121562001a7f57600080fd5b8151620015588162001702565b60008060006060848603121562001aa257600080fd5b8351925060208401519150604084015190509250925092565b8183526000602080850194508260005b8581101562001afd57813562001ae18162001702565b6001600160a01b03168752958201959082019060010162001acb565b509495945050505050565b60808152600062001b1e608083018a8c62001abb565b828103602084015262001b3381898b62001abb565b9050828103604084015262001b4a81878962001abb565b9050828103606084015262001b6181858762001abb565b9b9a5050505050505050505050565b600081600019048311821515161562001b9957634e487b7160e01b600052601160045260246000fd5b500290565b60008262001bbc57634e487b7160e01b600052601260045260246000fd5b500490565b60005b8381101562001bde57818101518382015260200162001bc4565b838111156200130f5750506000910152565b6000815180845262001c0a81602086016020860162001bc1565b601f01601f19169290920160200192915050565b6001600160a01b0383168152604060208201819052600090620015559083018462001bf0565b6020808252602b908201527f496e697469616c697a61626c653a20636f6e7472616374206973206e6f74206960408201526a6e697469616c697a696e6760a81b606082015260800190565b60006020828403121562001ca257600080fd5b8151620015588162001718565b6000825162001cc381846020870162001bc1565b9190910192915050565b60208152600062001558602083018462001bf056fe60a06040523060805234801561001457600080fd5b50600160685560805161341361004a600039600081816105d7015281816106200152818161098101526109c101526134136000f3fe6080604052600436106101105760003560e01c80630103c92b1461011557806306fdde0314610148578063095ea7b3146101875780630fc63d10146101b757806318160ddd146101e457806323b872dd146101fa5780632a8dc1311461021a578063313ce5671461023a5780633659cfe614610261578063430004c114610283578063452ed4f1146102b85780634f1ef286146102d85780635f64b55b146102eb57806370a082311461030b57806373ad67d7146103385780637d8820971461035857806395d89b411461036e578063a9059cbb1461039d578063c4d66de8146103bd578063dd62ed3e146103dd578063e8da9d4814610415578063f7c618c114610435578063fad3cc4b14610455575b600080fd5b34801561012157600080fd5b50610135610130366004612969565b610490565b6040519081526020015b60405180910390f35b34801561015457600080fd5b5061017a604051806040016040528060068152602001650556e6f2d4c560d41b81525081565b60405161013f91906129b2565b34801561019357600080fd5b506101a76101a23660046129e5565b610521565b604051901515815260200161013f565b3480156101c357600080fd5b50606c546101d7906001600160a01b031681565b60405161013f9190612a11565b3480156101f057600080fd5b5061013560005481565b34801561020657600080fd5b506101a7610215366004612a25565b610537565b34801561022657600080fd5b50606a546101d7906001600160a01b031681565b34801561024657600080fd5b5061024f601281565b60405160ff909116815260200161013f565b34801561026d57600080fd5b5061028161027c366004612969565b6105cc565b005b34801561028f57600080fd5b506102a361029e366004612a74565b61069e565b6040805192835260208301919091520161013f565b3480156102c457600080fd5b50606b546101d7906001600160a01b031681565b6102816102e6366004612b0d565b610976565b3480156102f757600080fd5b50606d546101d7906001600160a01b031681565b34801561031757600080fd5b50610135610326366004612969565b60016020526000908152604090205481565b34801561034457600080fd5b50610281610353366004612bff565b610a30565b34801561036457600080fd5b5061013560775481565b34801561037a57600080fd5b5061017a604051806040016040528060038152602001620554c560ec1b81525081565b3480156103a957600080fd5b506101a76103b83660046129e5565b61112b565b3480156103c957600080fd5b506102816103d8366004612969565b611138565b3480156103e957600080fd5b506101356103f8366004612cc2565b600260209081526000928352604080842090915290825290205481565b34801561042157600080fd5b50610281610430366004612cfb565b6118aa565b34801561044157600080fd5b506069546101d7906001600160a01b031681565b34801561046157600080fd5b50610475610470366004612d1d565b6118d2565b6040805193845260208401929092529082015260600161013f565b6001600160a01b0381166000908152607660209081526040808320607154845290915281205460ff16156104da57506001600160a01b031660009081526073602052604090205490565b6000546104e957506000919050565b600080546001600160a01b038416825260016020526040909120546077546105119190612d69565b61051b9190612d88565b92915050565b600061052e338484611b9f565b50600192915050565b6001600160a01b0383166000908152600260209081526040808320338452909152812054600019146105b6576001600160a01b03841660009081526002602090815260408083203384529091529020546105919083611c01565b6001600160a01b03851660009081526002602090815260408083203384529091529020555b6105c1848484611c0d565b5060015b9392505050565b306001600160a01b037f000000000000000000000000000000000000000000000000000000000000000016141561061e5760405162461bcd60e51b815260040161061590612daa565b60405180910390fd5b7f00000000000000000000000000000000000000000000000000000000000000006001600160a01b0316610650611ca1565b6001600160a01b0316146106765760405162461bcd60e51b815260040161061590612de4565b61067f81611cbd565b6040805160008082526020820190925261069b91839190611cd9565b50565b600080336106aa611e20565b6001600160a01b0316146106bd57600080fd5b600260685414156106e05760405162461bcd60e51b815260040161061590612e1e565b6002606855841580159061070b57506001600160a01b03861660009081526073602052604090205415155b61071457600080fd5b61071d86611e2f565b600043606f54111561073e5743606f546107379190612e55565b9050610750565b600260725461074d9190612d88565b90505b6000607854826077546107639190612d69565b61076d9190612e6c565b9050600061077b8389612d69565b6107859083612e55565b6001600160a01b038a16600090815260736020526040812080549293508a929091906107b2908490612e55565b9250508190555087607760008282546107cb9190612e55565b909155505060705482906107e0908390612d69565b6107ea9190612d88565b6070556107f883828b611fbf565b606e54604051630ad58d2f60e01b815260008051602061337783398151915291630ad58d2f9161082f91908c903090600401612e84565b600060405180830381600087803b15801561084957600080fd5b505af115801561085d573d6000803e3d6000fd5b50505050861561088d57606b5461087e906001600160a01b0316878a6120c6565b60008094509450505050610966565b606c54606d546000805160206133178339815191529163baa2abde916001600160a01b0391821691168b6000808c6108c742610258612e6c565b60405160e089901b6001600160e01b03191681526001600160a01b039788166004820152958716602487015260448601949094526064850192909252608484015290921660a482015260c481019190915260e40160408051808303816000875af1158015610939573d6000803e3d6000fd5b505050506040513d601f19601f8201168201806040525081019061095d9190612ea3565b90955093505050505b6001606855909590945092505050565b306001600160a01b037f00000000000000000000000000000000000000000000000000000000000000001614156109bf5760405162461bcd60e51b815260040161061590612daa565b7f00000000000000000000000000000000000000000000000000000000000000006001600160a01b03166109f1611ca1565b6001600160a01b031614610a175760405162461bcd60e51b815260040161061590612de4565b610a2082611cbd565b610a2c82826001611cd9565b5050565b33610a39611e20565b6001600160a01b031614610a4c57600080fd5b60026068541415610a6f5760405162461bcd60e51b815260040161061590612e1e565b6002606855607754610a8057600080fd5b606e54604051630c7e663b60e11b81526004810191909152306024820152600080516020613377833981519152906318fccc7690604401600060405180830381600087803b158015610ad157600080fd5b505af1158015610ae5573d6000803e3d6000fd5b5050606a546040516370a0823160e01b815260009350600292506001600160a01b03909116906370a0823190610b1f903090600401612a11565b602060405180830381865afa158015610b3c573d6000803e3d6000fd5b505050506040513d601f19601f82011682018060405250810190610b609190612ec7565b610b6a9190612d88565b6069546040516370a0823160e01b81529192506000916002916001600160a01b0316906370a0823190610ba1903090600401612a11565b602060405180830381865afa158015610bbe573d6000803e3d6000fd5b505050506040513d601f19601f82011682018060405250810190610be29190612ec7565b610bec9190612d88565b90506000610bfc42610258612e6c565b606a54606c549192506001600160a01b03918216911614610ca5576000805160206133178339815191526001600160a01b03166338ed17398460008e8e30876040518763ffffffff1660e01b8152600401610c5c96959493929190612ee0565b6000604051808303816000875af1158015610c7b573d6000803e3d6000fd5b505050506040513d6000823e601f3d908101601f19168201604052610ca39190810190612fe1565b505b606a54606d546001600160a01b03908116911614610d42576040516338ed173960e01b8152600080516020613317833981519152906338ed173990610cf99086906000908e908e9030908990600401612ee0565b6000604051808303816000875af1158015610d18573d6000803e3d6000fd5b505050506040513d6000823e601f3d908101601f19168201604052610d409190810190612fe1565b505b606954606c546001600160a01b03908116911614610ddf576040516338ed173960e01b8152600080516020613317833981519152906338ed173990610d969085906000908c908c9030908990600401612ee0565b6000604051808303816000875af1158015610db5573d6000803e3d6000fd5b505050506040513d6000823e601f3d908101601f19168201604052610ddd9190810190612fe1565b505b606954606d546001600160a01b03908116911614610e7c576040516338ed173960e01b8152600080516020613317833981519152906338ed173990610e339085906000908a908a9030908990600401612ee0565b6000604051808303816000875af1158015610e52573d6000803e3d6000fd5b505050506040513d6000823e601f3d908101601f19168201604052610e7a9190810190612fe1565b505b606c54606d546040516370a0823160e01b81526000805160206133178339815191529263e8e33700926001600160a01b039182169291169082906370a0823190610eca903090600401612a11565b602060405180830381865afa158015610ee7573d6000803e3d6000fd5b505050506040513d601f19601f82011682018060405250810190610f0b9190612ec7565b606d546040516370a0823160e01b81526001600160a01b03909116906370a0823190610f3b903090600401612a11565b602060405180830381865afa158015610f58573d6000803e3d6000fd5b505050506040513d601f19601f82011682018060405250810190610f7c9190612ec7565b60018030896040518963ffffffff1660e01b8152600401610fa4989796959493929190613015565b6060604051808303816000875af1158015610fc3573d6000803e3d6000fd5b505050506040513d601f19601f82011682018060405250810190610fe7919061305e565b5050606b546040516370a0823160e01b8152600092506001600160a01b03909116906370a082319061101d903090600401612a11565b602060405180830381865afa15801561103a573d6000803e3d6000fd5b505050506040513d601f19601f8201168201806040525081019061105e9190612ec7565b905080156110e75780607760008282546110789190612e6c565b9091555050606e54604051638dbdbe6d60e01b815260008051602061337783398151915291638dbdbe6d916110b4919085903090600401612e84565b600060405180830381600087803b1580156110ce57600080fd5b505af11580156110e2573d6000803e3d6000fd5b505050505b6071546110f49043612e55565b60728190556111149082906111099043612e6c565b607091909155606f55565b505043607155505060016068555050505050505050565b600061052e338484611c0d565b600354610100900460ff166111535760035460ff161561115b565b61115b61211c565b6111775760405162461bcd60e51b81526004016106159061308c565b600354610100900460ff16158015611199576003805461ffff19166101011790555b6111a161212d565b6040516343b55f3560e01b815273bee6dbb6606bb65953a24c254945ca95aeb22671906343b55f35906111d8908590600401612a11565b602060405180830381865afa1580156111f5573d6000803e3d6000fd5b505050506040513d601f19601f820116820180604052508101906112199190612ec7565b606e819055506000805160206133778339815191526001600160a01b031663ab560e106040518163ffffffff1660e01b8152600401602060405180830381865afa15801561126b573d6000803e3d6000fd5b505050506040513d601f19601f8201168201806040525081019061128f91906130da565b606980546001600160a01b0319166001600160a01b0392909216919091179055606e5460405163c346253d60e01b815260048101919091526000906000805160206133778339815191529063c346253d90602401602060405180830381865afa158015611300573d6000803e3d6000fd5b505050506040513d601f19601f8201168201806040525081019061132491906130da565b606e5460405163d63b3c4960e01b8152600481019190915260006024820181905260448201526001600160a01b03919091169063d63b3c4990606401600060405180830381865afa15801561137d573d6000803e3d6000fd5b505050506040513d6000823e601f3d908101601f191682016040526113a591908101906130f7565b509050806000815181106113bb576113bb6131bb565b6020908102919091010151606a80546001600160a01b0319166001600160a01b03909216919091179055606e546040516378ed5d1f60e01b81526004810191909152600080516020613377833981519152906378ed5d1f90602401602060405180830381865afa158015611433573d6000803e3d6000fd5b505050506040513d601f19601f8201168201806040525081019061145791906130da565b606b80546001600160a01b0319166001600160a01b0392909216918217905560408051630dfe168160e01b81529051630dfe1681916004808201926020929091908290030181865afa1580156114b1573d6000803e3d6000fd5b505050506040513d601f19601f820116820180604052508101906114d591906130da565b606c80546001600160a01b0319166001600160a01b03928316179055606b546040805163d21220a760e01b81529051919092169163d21220a79160048083019260209291908290030181865afa158015611533573d6000803e3d6000fd5b505050506040513d601f19601f8201168201806040525081019061155791906130da565b606d80546001600160a01b0319166001600160a01b03928316179055606b5460405163095ea7b360e01b815260001992919091169063095ea7b3906115b0906000805160206133778339815191529085906004016131d1565b6020604051808303816000875af11580156115cf573d6000803e3d6000fd5b505050506040513d601f19601f820116820180604052508101906115f391906131ea565b50606b5460405163095ea7b360e01b81526001600160a01b039091169063095ea7b390611634906000805160206133178339815191529085906004016131d1565b6020604051808303816000875af1158015611653573d6000803e3d6000fd5b505050506040513d601f19601f8201168201806040525081019061167791906131ea565b5060695460405163095ea7b360e01b81526001600160a01b039091169063095ea7b3906116b8906000805160206133178339815191529085906004016131d1565b6020604051808303816000875af11580156116d7573d6000803e3d6000fd5b505050506040513d601f19601f820116820180604052508101906116fb91906131ea565b50606a5460405163095ea7b360e01b81526001600160a01b039091169063095ea7b39061173c906000805160206133178339815191529085906004016131d1565b6020604051808303816000875af115801561175b573d6000803e3d6000fd5b505050506040513d601f19601f8201168201806040525081019061177f91906131ea565b50606c5460405163095ea7b360e01b81526001600160a01b039091169063095ea7b3906117c0906000805160206133178339815191529085906004016131d1565b6020604051808303816000875af11580156117df573d6000803e3d6000fd5b505050506040513d601f19601f8201168201806040525081019061180391906131ea565b50606d5460405163095ea7b360e01b81526001600160a01b039091169063095ea7b390611844906000805160206133178339815191529085906004016131d1565b6020604051808303816000875af1158015611863573d6000803e3d6000fd5b505050506040513d601f19601f8201168201806040525081019061188791906131ea565b5050436071555062124f806072558015610a2c576003805461ff00191690555050565b336118b3611e20565b6001600160a01b0316146118c657600080fd5b43811161110957600080fd5b60008080336118df611e20565b6001600160a01b0316146118f257600080fd5b600260685414156119155760405162461bcd60e51b815260040161061590612e1e565b60026068556000871580159061192b5750600087115b156119d957606c54606d546000805160206133178339815191529163e8e33700916001600160a01b0391821691168b8b6000803061196b42610258612e6c565b6040518963ffffffff1660e01b815260040161198e989796959493929190613015565b6060604051808303816000875af11580156119ad573d6000803e3d6000fd5b505050506040513d601f19601f820116820180604052508101906119d1919061305e565b919550935090505b6119e38682612e6c565b9150600082116119f257600080fd5b6119fb85611e2f565b600043606f541115611a1c5743606f54611a159190612e55565b9050611a2e565b6002607254611a2b9190612d88565b90505b600060785482607754611a419190612d69565b611a4b9190612e6c565b9050600081611a5a8487612d69565b611a649190612e6c565b6001600160a01b038916600090815260736020526040812080549293508792909190611a91908490612e6c565b925050819055508460776000828254611aaa9190612e6c565b90915550508115611ad2578181607054611ac49190612d69565b611ace9190612d88565b6070555b611add83828a6121b2565b606e54604051638dbdbe6d60e01b815260008051602061337783398151915291638dbdbe6d91611b14919089903090600401612e84565b600060405180830381600087803b158015611b2e57600080fd5b505af1158015611b42573d6000803e3d6000fd5b50505050611b6988888d611b569190612e55565b606c546001600160a01b031691906120c6565b611b8a88611b77888d612e55565b606d546001600160a01b031691906120c6565b50506001606855509297919650945092505050565b6001600160a01b0383811660008181526002602090815260408083209487168084529482529182902085905590518481527f8c5be1e5ebec7d5bd14f71427d1e84f3dd0314c0f7b2291e5b200ac8c7c3b92591015b60405180910390a3505050565b60006105c58284612e55565b6001600160a01b038316600090815260016020526040902054611c309082611c01565b6001600160a01b038085166000908152600160205260408082209390935590841681522054611c5f9082612284565b6001600160a01b0380841660008181526001602052604090819020939093559151908516906000805160206133be83398151915290611bf49085815260200190565b600080516020613357833981519152546001600160a01b031690565b33611cc6611e20565b6001600160a01b03161461069b57600080fd5b6000611ce3611ca1565b9050611cee84612290565b600083511180611cfb5750815b15611d0c57611d0a8484612323565b505b7f4910fdfa16fed3260ed0e7147f7cc6da11a60208b5b9406d12a635614ffd9143805460ff16611e1957805460ff19166001178155604051611d87908690611d58908590602401612a11565b60408051601f198184030181529190526020810180516001600160e01b0316631b2ce7f360e11b179052612323565b50805460ff19168155611d98611ca1565b6001600160a01b0316826001600160a01b031614611e105760405162461bcd60e51b815260206004820152602f60248201527f45524331393637557067726164653a207570677261646520627265616b73206660448201526e75727468657220757067726164657360881b6064820152608401610615565b611e1985612348565b5050505050565b6036546001600160a01b031690565b6001600160a01b0381166000908152607660209081526040808320607154845290915290205460ff1615611ec9576001600160a01b038116600090815260736020908152604080832054607590925290912054611e8c9043612e55565b611e969190612d69565b6001600160a01b03821660009081526074602052604081208054909190611ebe908490612e6c565b90915550611f3e9050565b611ed281610490565b6001600160a01b0382166000908152607360205260409020819055607154611efa9043612e55565b611f049190612d69565b6001600160a01b038216600090815260746020908152604080832093909355607681528282206071548352905220805460ff191660011790555b6071546079541115611f8057607754607954611f5a9043612e55565b611f649190612d69565b60786000828254611f759190612e6c565b90915550611f9e9050565b607754607154611f909043612e55565b611f9a9190612d69565b6078555b6001600160a01b031660009081526075602052604090204390819055607955565b6001600160a01b038116600090815260736020526040902054612005576001600160a01b038116600090815260016020526040902054612000908290612388565b505050565b600080546001600160a01b03831682526001602052604090912054141561202b57505050565b6000612038848484612408565b90506120c0828261204b6012600a6132eb565b6120559190612e55565b6120616012600a6132eb565b60005461206e9086612d69565b6120789190612d88565b6001600160a01b03861660009081526001602052604090205461209b9190612e55565b6120a76012600a6132eb565b6120b19190612d69565b6120bb9190612d88565b612388565b50505050565b6120008363a9059cbb60e01b84846040516024016120e59291906131d1565b60408051601f198184030181529190526020810180516001600160e01b03166001600160e01b0319909316929092179091526124bb565b60006121273061258d565b15905090565b600354610100900460ff166121485760035460ff1615612150565b61215061211c565b61216c5760405162461bcd60e51b81526004016106159061308c565b600354610100900460ff1615801561218e576003805461ffff19166101011790555b61219661259c565b61219e612609565b801561069b576003805461ff001916905550565b6000546121ce57612000816121c96012600a6132eb565b612690565b600080546001600160a01b0383168252600160205260409091205414156121f457505050565b6000612201848484612408565b90506120c082826122146012600a6132eb565b61221e9190612e55565b6001600160a01b0385166000908152600160205260409020546122436012600a6132eb565b6000546122509087612d69565b61225a9190612d88565b6122649190612e55565b6122706012600a6132eb565b61227a9190612d69565b6121c99190612d88565b60006105c58284612e6c565b803b6122f45760405162461bcd60e51b815260206004820152602d60248201527f455243313936373a206e657720696d706c656d656e746174696f6e206973206e60448201526c1bdd08184818dbdb9d1c9858dd609a1b6064820152608401610615565b60008051602061335783398151915280546001600160a01b0319166001600160a01b0392909216919091179055565b60606105c5838360405180606001604052806027815260200161339760279139612701565b61235181612290565b6040516001600160a01b038216907fbc7cd75a20ee27fd9adebab32041f755214dbc6bffa90cc0225b39da2e5c2d3b90600090a250565b6001600160a01b0382166000908152600160205260409020546123ab9082611c01565b6001600160a01b038316600090815260016020526040812091909155546123d29082611c01565b60009081556040518281526001600160a01b038416906000805160206133be833981519152906020015b60405180910390a35050565b6001600160a01b03811660009081526074602090815260408083205460739092528220548291859161243b908890612d69565b6124459190612e6c565b6070546124529190612d69565b61245c9190612d88565b905060705460775461246e9190612e6c565b6001600160a01b038416600090815260736020526040902054612492908390612e6c565b61249e6012600a6132eb565b6124a89190612d69565b6124b29190612d88565b95945050505050565b6000612510826040518060400160405280602081526020017f5361666545524332303a206c6f772d6c6576656c2063616c6c206661696c6564815250856001600160a01b03166127d59092919063ffffffff16565b805190915015612000578080602001905181019061252e91906131ea565b6120005760405162461bcd60e51b815260206004820152602a60248201527f5361666545524332303a204552433230206f7065726174696f6e20646964206e6044820152691bdd081cdd58d8d9595960b21b6064820152608401610615565b6001600160a01b03163b151590565b600354610100900460ff166126075760405162461bcd60e51b815260206004820152602b60248201527f496e697469616c697a61626c653a20636f6e7472616374206973206e6f74206960448201526a6e697469616c697a696e6760a81b6064820152608401610615565b565b600354610100900460ff166126245760035460ff161561262c565b61262c61211c565b6126485760405162461bcd60e51b81526004016106159061308c565b600354610100900460ff1615801561266a576003805461ffff19166101011790555b603680546001600160a01b03191633179055801561069b576003805461ff001916905550565b60005461269d9082612284565b60009081556001600160a01b0383168152600160205260409020546126c29082612284565b6001600160a01b0383166000818152600160205260408082209390935591519091906000805160206133be833981519152906123fc9085815260200190565b6060833b6127605760405162461bcd60e51b815260206004820152602660248201527f416464726573733a2064656c65676174652063616c6c20746f206e6f6e2d636f6044820152651b9d1c9858dd60d21b6064820152608401610615565b600080856001600160a01b03168560405161277b91906132fa565b600060405180830381855af49150503d80600081146127b6576040519150601f19603f3d011682016040523d82523d6000602084013e6127bb565b606091505b50915091506127cb8282866127ec565b9695505050505050565b60606127e48484600085612825565b949350505050565b606083156127fb5750816105c5565b82511561280b5782518084602001fd5b8160405162461bcd60e51b815260040161061591906129b2565b6060824710156128865760405162461bcd60e51b815260206004820152602660248201527f416464726573733a20696e73756666696369656e742062616c616e636520666f6044820152651c8818d85b1b60d21b6064820152608401610615565b61288f8561258d565b6128db5760405162461bcd60e51b815260206004820152601d60248201527f416464726573733a2063616c6c20746f206e6f6e2d636f6e74726163740000006044820152606401610615565b600080866001600160a01b031685876040516128f791906132fa565b60006040518083038185875af1925050503d8060008114612934576040519150601f19603f3d011682016040523d82523d6000602084013e612939565b606091505b50915091506129498282866127ec565b979650505050505050565b6001600160a01b038116811461069b57600080fd5b60006020828403121561297b57600080fd5b81356105c581612954565b60005b838110156129a1578181015183820152602001612989565b838111156120c05750506000910152565b60208152600082518060208401526129d1816040850160208701612986565b601f01601f19169190910160400192915050565b600080604083850312156129f857600080fd5b8235612a0381612954565b946020939093013593505050565b6001600160a01b0391909116815260200190565b600080600060608486031215612a3a57600080fd5b8335612a4581612954565b92506020840135612a5581612954565b929592945050506040919091013590565b801515811461069b57600080fd5b60008060008060808587031215612a8a57600080fd5b8435612a9581612954565b9350602085013592506040850135612aac81612a66565b91506060850135612abc81612954565b939692955090935050565b634e487b7160e01b600052604160045260246000fd5b604051601f8201601f191681016001600160401b0381118282101715612b0557612b05612ac7565b604052919050565b60008060408385031215612b2057600080fd5b8235612b2b81612954565b91506020838101356001600160401b0380821115612b4857600080fd5b818601915086601f830112612b5c57600080fd5b813581811115612b6e57612b6e612ac7565b612b80601f8201601f19168501612add565b91508082528784828501011115612b9657600080fd5b80848401858401376000848284010152508093505050509250929050565b60008083601f840112612bc657600080fd5b5081356001600160401b03811115612bdd57600080fd5b6020830191508360208260051b8501011115612bf857600080fd5b9250929050565b6000806000806000806000806080898b031215612c1b57600080fd5b88356001600160401b0380821115612c3257600080fd5b612c3e8c838d01612bb4565b909a50985060208b0135915080821115612c5757600080fd5b612c638c838d01612bb4565b909850965060408b0135915080821115612c7c57600080fd5b612c888c838d01612bb4565b909650945060608b0135915080821115612ca157600080fd5b50612cae8b828c01612bb4565b999c989b5096995094979396929594505050565b60008060408385031215612cd557600080fd5b8235612ce081612954565b91506020830135612cf081612954565b809150509250929050565b60008060408385031215612d0e57600080fd5b50508035926020909101359150565b60008060008060808587031215612d3357600080fd5b8435935060208501359250604085013591506060850135612abc81612954565b634e487b7160e01b600052601160045260246000fd5b6000816000190483118215151615612d8357612d83612d53565b500290565b600082612da557634e487b7160e01b600052601260045260246000fd5b500490565b6020808252602c9082015260008051602061333783398151915260408201526b19195b1959d85d1958d85b1b60a21b606082015260800190565b6020808252602c9082015260008051602061333783398151915260408201526b6163746976652070726f787960a01b606082015260800190565b6020808252601f908201527f5265656e7472616e637947756172643a207265656e7472616e742063616c6c00604082015260600190565b600082821015612e6757612e67612d53565b500390565b60008219821115612e7f57612e7f612d53565b500190565b92835260208301919091526001600160a01b0316604082015260600190565b60008060408385031215612eb657600080fd5b505080516020909101519092909150565b600060208284031215612ed957600080fd5b5051919050565b868152602080820187905260a0604083018190528201859052600090869060c08401835b88811015612f32578335612f1781612954565b6001600160a01b031682529282019290820190600101612f04565b506001600160a01b0396909616606085015250505060800152949350505050565b60006001600160401b03821115612f6c57612f6c612ac7565b5060051b60200190565b600082601f830112612f8757600080fd5b81516020612f9c612f9783612f53565b612add565b82815260059290921b84018101918181019086841115612fbb57600080fd5b8286015b84811015612fd65780518352918301918301612fbf565b509695505050505050565b600060208284031215612ff357600080fd5b81516001600160401b0381111561300957600080fd5b6127e484828501612f76565b6001600160a01b039889168152968816602088015260408701959095526060860193909352608085019190915260a084015290921660c082015260e08101919091526101000190565b60008060006060848603121561307357600080fd5b8351925060208401519150604084015190509250925092565b6020808252602e908201527f496e697469616c697a61626c653a20636f6e747261637420697320616c72656160408201526d191e481a5b9a5d1a585b1a5e995960921b606082015260800190565b6000602082840312156130ec57600080fd5b81516105c581612954565b6000806040838503121561310a57600080fd5b82516001600160401b038082111561312157600080fd5b818501915085601f83011261313557600080fd5b81516020613145612f9783612f53565b82815260059290921b8401810191818101908984111561316457600080fd5b948201945b8386101561318b57855161317c81612954565b82529482019490820190613169565b918801519196509093505050808211156131a457600080fd5b506131b185828601612f76565b9150509250929050565b634e487b7160e01b600052603260045260246000fd5b6001600160a01b03929092168252602082015260400190565b6000602082840312156131fc57600080fd5b81516105c581612a66565b600181815b8085111561324257816000190482111561322857613228612d53565b8085161561323557918102915b93841c939080029061320c565b509250929050565b6000826132595750600161051b565b816132665750600061051b565b816001811461327c5760028114613286576132a2565b600191505061051b565b60ff84111561329757613297612d53565b50506001821b61051b565b5060208310610133831016604e8410600b84101617156132c5575081810a61051b565b6132cf8383613207565b80600019048211156132e3576132e3612d53565b029392505050565b60006105c560ff84168361324a565b6000825161330c818460208701612986565b919091019291505056fe0000000000000000000000001b02da8cb0d097eb8d57a175b88c7d8b4799750646756e6374696f6e206d7573742062652063616c6c6564207468726f75676820360894a13ba1a3210667c828492db98dca3e2076cc3735a920a3ca505d382bbc0000000000000000000000000769fd68dfb93167989c6f7254cd0d766fb2841f416464726573733a206c6f772d6c6576656c2064656c65676174652063616c6c206661696c6564ddf252ad1be2c89b69c2b068fc378daa952ba7f163c4a11628f55a4df523b3efa264697066735822122056c8777e7f48dfeb6a82968bf119cb7eda5491a7459d73c88195abe2e1dddd3464736f6c634300080a0033608060405234801561001057600080fd5b5060405161052338038061052383398101604081905261002f91610148565b61003833610047565b61004181610097565b50610178565b600080546001600160a01b038381166001600160a01b0319831681178455604051919092169283917f8be0079c531659141344cd1fd0a4f28419497f9722a3daafe3b4186f6b6457e09190a35050565b6100aa8161014260201b61021f1760201c565b6101205760405162461bcd60e51b815260206004820152603360248201527f5570677261646561626c65426561636f6e3a20696d706c656d656e746174696f60448201527f6e206973206e6f74206120636f6e747261637400000000000000000000000000606482015260840160405180910390fd5b600180546001600160a01b0319166001600160a01b0392909216919091179055565b3b151590565b60006020828403121561015a57600080fd5b81516001600160a01b038116811461017157600080fd5b9392505050565b61039c806101876000396000f3fe608060405234801561001057600080fd5b50600436106100575760003560e01c80633659cfe61461005c5780635c60da1b14610071578063715018a61461009a5780638da5cb5b146100a2578063f2fde38b146100aa575b600080fd5b61006f61006a366004610301565b6100bd565b005b6001546001600160a01b03165b6040516001600160a01b03909116815260200160405180910390f35b61006f610135565b61007e610170565b61006f6100b8366004610301565b61017f565b336100c6610170565b6001600160a01b0316146100f55760405162461bcd60e51b81526004016100ec90610331565b60405180910390fd5b6100fe81610225565b6040516001600160a01b038216907fbc7cd75a20ee27fd9adebab32041f755214dbc6bffa90cc0225b39da2e5c2d3b90600090a250565b3361013e610170565b6001600160a01b0316146101645760405162461bcd60e51b81526004016100ec90610331565b61016e60006102b1565b565b6000546001600160a01b031690565b33610188610170565b6001600160a01b0316146101ae5760405162461bcd60e51b81526004016100ec90610331565b6001600160a01b0381166102135760405162461bcd60e51b815260206004820152602660248201527f4f776e61626c653a206e6577206f776e657220697320746865207a65726f206160448201526564647265737360d01b60648201526084016100ec565b61021c816102b1565b50565b3b151590565b803b61028f5760405162461bcd60e51b815260206004820152603360248201527f5570677261646561626c65426561636f6e3a20696d706c656d656e746174696f6044820152721b881a5cc81b9bdd08184818dbdb9d1c9858dd606a1b60648201526084016100ec565b600180546001600160a01b0319166001600160a01b0392909216919091179055565b600080546001600160a01b038381166001600160a01b0319831681178455604051919092169283917f8be0079c531659141344cd1fd0a4f28419497f9722a3daafe3b4186f6b6457e09190a35050565b60006020828403121561031357600080fd5b81356001600160a01b038116811461032a57600080fd5b9392505050565b6020808252818101527f4f776e61626c653a2063616c6c6572206973206e6f7420746865206f776e657260408201526060019056fea2646970667358221220d3d4a860e145913f032ee28b0976994c159bea78f64580a84c890ece6cd002a064736f6c634300080a0033608060405260405161096638038061096683398101604081905261002291610479565b61004d60017fa3f0ad74e5423aebfd80d3ef4346578335a9a72aeaee59ff6cb3582b35133d51610539565b60008051602061091f833981519152146100695761006961055e565b6100758282600061007c565b50506105de565b61008583610147565b6040516001600160a01b038416907f1cf3b03a6cf19fa2baba4df148e9dcabedea7f8a5c07840e207e5c089be95d3e90600090a26000825111806100c65750805b1561014257610140836001600160a01b0316635c60da1b6040518163ffffffff1660e01b8152600401602060405180830381865afa15801561010c573d6000803e3d6000fd5b505050506040513d601f19601f820116820180604052508101906101309190610574565b836102d860201b6100291760201c565b505b505050565b61015a8161030460201b6100551760201c565b6101b95760405162461bcd60e51b815260206004820152602560248201527f455243313936373a206e657720626561636f6e206973206e6f74206120636f6e6044820152641d1c9858dd60da1b60648201526084015b60405180910390fd5b61022d816001600160a01b0316635c60da1b6040518163ffffffff1660e01b8152600401602060405180830381865afa1580156101fa573d6000803e3d6000fd5b505050506040513d601f19601f8201168201806040525081019061021e9190610574565b61030460201b6100551760201c565b6102925760405162461bcd60e51b815260206004820152603060248201527f455243313936373a20626561636f6e20696d706c656d656e746174696f6e206960448201526f1cc81b9bdd08184818dbdb9d1c9858dd60821b60648201526084016101b0565b806102b760008051602061091f83398151915260001b61030a60201b61005b1760201c565b80546001600160a01b0319166001600160a01b039290921691909117905550565b60606102fd838360405180606001604052806027815260200161093f6027913961030d565b9392505050565b3b151590565b90565b6060833b61036c5760405162461bcd60e51b815260206004820152602660248201527f416464726573733a2064656c65676174652063616c6c20746f206e6f6e2d636f6044820152651b9d1c9858dd60d21b60648201526084016101b0565b600080856001600160a01b031685604051610387919061058f565b600060405180830381855af49150503d80600081146103c2576040519150601f19603f3d011682016040523d82523d6000602084013e6103c7565b606091505b5090925090506103d88282866103e2565b9695505050505050565b606083156103f15750816102fd565b8251156104015782518084602001fd5b8160405162461bcd60e51b81526004016101b091906105ab565b80516001600160a01b038116811461043257600080fd5b919050565b634e487b7160e01b600052604160045260246000fd5b60005b83811015610468578181015183820152602001610450565b838111156101405750506000910152565b6000806040838503121561048c57600080fd5b6104958361041b565b60208401519092506001600160401b03808211156104b257600080fd5b818501915085601f8301126104c657600080fd5b8151818111156104d8576104d8610437565b604051601f8201601f19908116603f0116810190838211818310171561050057610500610437565b8160405282815288602084870101111561051957600080fd5b61052a83602083016020880161044d565b80955050505050509250929050565b60008282101561055957634e487b7160e01b600052601160045260246000fd5b500390565b634e487b7160e01b600052600160045260246000fd5b60006020828403121561058657600080fd5b6102fd8261041b565b600082516105a181846020870161044d565b9190910192915050565b60208152600082518060208401526105ca81604085016020870161044d565b601f01601f19169190910160400192915050565b610332806105ed6000396000f3fe60806040523661001357610011610017565b005b6100115b61002761002261005e565b6100f7565b565b606061004e83836040518060600160405280602781526020016102d66027913961011b565b9392505050565b3b151590565b90565b60006100917fa3f0ad74e5423aebfd80d3ef4346578335a9a72aeaee59ff6cb3582b35133d50546001600160a01b031690565b6001600160a01b0316635c60da1b6040518163ffffffff1660e01b8152600401602060405180830381865afa1580156100ce573d6000803e3d6000fd5b505050506040513d601f19601f820116820180604052508101906100f2919061022d565b905090565b3660008037600080366000845af43d6000803e808015610116573d6000f35b3d6000fd5b6060833b61017f5760405162461bcd60e51b815260206004820152602660248201527f416464726573733a2064656c65676174652063616c6c20746f206e6f6e2d636f6044820152651b9d1c9858dd60d21b60648201526084015b60405180910390fd5b600080856001600160a01b03168560405161019a9190610286565b600060405180830381855af49150503d80600081146101d5576040519150601f19603f3d011682016040523d82523d6000602084013e6101da565b606091505b50915091506101ea8282866101f4565b9695505050505050565b6060831561020357508161004e565b8251156102135782518084602001fd5b8160405162461bcd60e51b815260040161017691906102a2565b60006020828403121561023f57600080fd5b81516001600160a01b038116811461004e57600080fd5b60005b83811015610271578181015183820152602001610259565b83811115610280576000848401525b50505050565b60008251610298818460208701610256565b9190910192915050565b60208152600082518060208401526102c1816040850160208701610256565b601f01601f1916919091016040019291505056fe416464726573733a206c6f772d6c6576656c2064656c65676174652063616c6c206661696c6564a26469706673582212208258630b867c85c689d251b2a041426fe5ea464e3b306f1e4e2dfe296d3f9c3864736f6c634300080a0033a3f0ad74e5423aebfd80d3ef4346578335a9a72aeaee59ff6cb3582b35133d50416464726573733a206c6f772d6c6576656c2064656c65676174652063616c6c206661696c6564a2646970667358221220d861676d7bb63d0f1dd273e1080d0ec0326b837131305df64cc789bf6cdca06964736f6c634300080a0033",
  "immutableReferences": {},
  "source": "// SPDX-License-Identifier: MIT\r\npragma solidity 0.8.10;\r\npragma experimental ABIEncoderV2;\r\n\r\nimport {SushiswapFarmUpgradeable as Farm, IERC20, IERC20Upgradeable, SafeERC20Upgradeable, Initializable} from \"./farms/SushiswapFarmUpgradeable.sol\"; \r\n \r\nimport \"@openzeppelin/contracts/proxy/beacon/UpgradeableBeacon.sol\";\r\nimport \"@openzeppelin/contracts/proxy/beacon/BeaconProxy.sol\";\r\nimport \"@openzeppelin/contracts-upgradeable/security/PausableUpgradeable.sol\";\r\nimport \"@openzeppelin/contracts-upgradeable/access/OwnableUpgradeable.sol\";\r\n\r\ncontract SushiswapFarmFactoryBeacon is Initializable, PausableUpgradeable, OwnableUpgradeable {\r\n    using SafeERC20Upgradeable for IERC20Upgradeable;\r\n\r\n    /**\r\n     * @dev Contract Variables:\r\n     * farmBeacon - Farm contract implementation.\r\n     *\r\n     * distributor - Address authorized to make distributions.\r\n     * Farms - Links {lpPools} to the deployed Farm contract.\r\n     * lpPools - List of pools that have corresponding deployed Farm contract.\r\n     */\r\n    address public farmBeacon;\r\n\r\n    address public distributor;\r\n    mapping(address => Farm) public Farms;\r\n    address[] public lpPools;\r\n\r\n    event FarmDeployed(address indexed farmAddress);\r\n    event Deposit(address indexed sender, address indexed lpPool, uint256 amount);\r\n    event Withdraw(address indexed sender, address indexed lpPool, uint256 amount);\r\n    event Distribute(address indexed lpPool);\r\n    event DistributorChanged(address indexed newDistributor);\r\n\r\n    modifier distributorOnly(){\r\n        require(msg.sender == distributor);\r\n        _;\r\n    }\r\n\r\n    // ============ Methods ============\r\n\r\n    function initialize(address upgrader) external initializer {\r\n        __Pausable_init();\r\n        __Ownable_init();\r\n        _transferOwnership(upgrader);\r\n        farmBeacon = address(new UpgradeableBeacon(\r\n            address(new Farm())\r\n        ));\r\n        UpgradeableBeacon(farmBeacon).transferOwnership(upgrader);\r\n    }\r\n\r\n    /**\r\n     * @dev Deposits tokens in the given pool. Creates new Farm contract if there isn't one deployed for the lpPair and deposits tokens.\r\n     * @param amountA  - Token A amount to deposit.\r\n     * @param amountB -  Token B amount to deposit.\r\n     * @param amountLP - LP Token amount to deposit.\r\n     * @param lpPair - Address of the pool to deposit tokens in.\r\n     * @param recipient - Address which will recieve the deposit and leftover tokens.\r\n     \r\n     * @return sentA - Token A amount sent to the farm.\r\n     * @return sentB - Token B amount sent to the farm.\r\n     * @return liquidity - Total liquidity sent to the farm (in lpTokens).\r\n     */\r\n    function deposit(uint256 amountA, uint256 amountB, uint256 amountLP, address lpPair, address recipient) external whenNotPaused returns(uint256 sentA, uint256 sentB, uint256 liquidity){\r\n        if(Farms[lpPair] == Farm(address(0))){\r\n            Farms[lpPair] = Farm(createFarm(lpPair));\r\n            lpPools.push(lpPair);\r\n        }\r\n\r\n        if(amountA > 0){\r\n            IERC20Upgradeable(Farms[lpPair].tokenA()).safeTransferFrom(msg.sender, address(Farms[lpPair]), amountA);\r\n        }\r\n        if(amountB > 0){\r\n            IERC20Upgradeable(Farms[lpPair].tokenB()).safeTransferFrom(msg.sender, address(Farms[lpPair]), amountB);\r\n        }\r\n        if(amountLP > 0){\r\n            IERC20Upgradeable(lpPair).safeTransferFrom(msg.sender, address(Farms[lpPair]), amountLP);\r\n        }\r\n\r\n        (sentA, sentB, liquidity) = Farms[lpPair].deposit(amountA, amountB, amountLP, recipient); \r\n        emit Deposit(recipient, lpPair, liquidity);\r\n    }\r\n\r\n    /** \r\n     * @dev Withdraws tokens from the given pool. \r\n     * @param lpPair - LP pool to withdraw from.\r\n     * @param amount - LP amount to withdraw. \r\n     * @param withdrawLP - True: Withdraw in LP tokens, False: Withdraw in normal tokens.\r\n     * @param recipient - The address which will recieve tokens.\r\n\r\n     * @return amountA - Token A amount sent to the {recipient}, 0 if withdrawLP == false.\r\n     * @return amountB - Token B amount sent to the {recipient}, 0 if withdrawLP == false.\r\n     */ \r\n    function withdraw(address lpPair, uint256 amount, bool withdrawLP, address recipient) external whenNotPaused returns(uint256 amountA, uint256 amountB){  \r\n        require(Farms[lpPair] != Farm(address(0)));\r\n        (amountA, amountB) = Farms[lpPair].withdraw(msg.sender, amount, withdrawLP, recipient);\r\n        emit Withdraw(msg.sender, lpPair, amount);\r\n    }\r\n\r\n    /**\r\n     * @dev Sets expected reward amount and block for token distribution calculations.\r\n     * @param lpPair - LP pool to check total deposits in.\r\n     * @param expectedReward - New reward amount.\r\n     * @param expectedRewardBlock - New reward block.\r\n     *\r\n     * Note: This function can only be called by the distributor.\r\n     */  \r\n    function setExpectedReward(address lpPair, uint256 expectedReward, uint256 expectedRewardBlock) external distributorOnly {\r\n        require(Farms[lpPair] != Farm(address(0)));\r\n        Farms[lpPair].setExpectedReward(expectedReward, expectedRewardBlock); \r\n    }\r\n\r\n    /**\r\n     * @dev Distributes tokens between users.\r\n     * @param lpPair - LP pool to distribute tokens in.\r\n     * @param rewarderTokenToTokenARoute An array of token addresses.\r\n     * @param rewarderTokenToTokenBRoute An array of token addresses.\r\n     * @param rewardTokenToTokenARoute An array of token addresses.\r\n     * @param rewardTokenToTokenBRoute An array of token addresses.\r\n     *\r\n     * Note: This function can only be called by the distributor.\r\n     */ \r\n    function distribute(\r\n        address lpPair,\r\n        address[] calldata rewarderTokenToTokenARoute,\r\n        address[] calldata rewarderTokenToTokenBRoute,\r\n        address[] calldata rewardTokenToTokenARoute,\r\n        address[] calldata rewardTokenToTokenBRoute\r\n    ) external distributorOnly whenNotPaused{\r\n        require(Farms[lpPair] != Farm(address(0))); \r\n        \r\n        Farms[lpPair].distribute(rewarderTokenToTokenARoute, rewarderTokenToTokenBRoute, rewardTokenToTokenARoute, rewardTokenToTokenBRoute);\r\n        emit Distribute(lpPair);\r\n    }\r\n\r\n    /**\r\n     * @dev Returns tokens staked by the {_address} for the given {lpPair}.\r\n     * @param _address - The address to check stakes for.\r\n     * @param lpPair - LP pool to check stakes in.\r\n\r\n     * @return stakeLP - Total user stake(in LP tokens).\r\n     * @return stakeA - Token A stake.\r\n     * @return stakeB - Token B stake.\r\n     */\r\n    function userStake(address _address, address lpPair) external view returns (uint256 stakeLP, uint256 stakeA, uint256 stakeB) {\r\n        if (Farms[lpPair] != Farm(address(0))) {\r\n            stakeLP = Farms[lpPair].userBalance(_address);\r\n            (stakeA, stakeB) = getTokenStake(lpPair, stakeLP);\r\n        }\r\n    }\r\n\r\n    /**\r\n     * @dev Returns total amount locked in the pool. Doesn't take pending rewards into account.\r\n     * @param lpPair - LP pool to check total deposits in.\r\n\r\n     * @return totalDepositsLP - Total deposits (in LP tokens).\r\n     * @return totalDepositsA - Token A deposits.\r\n     * @return totalDepositsB - Token B deposits.\r\n     */ \r\n    function totalDeposits(address lpPair) external view returns (uint256 totalDepositsLP, uint256 totalDepositsA, uint256 totalDepositsB) {\r\n        if (Farms[lpPair] != Farm(address(0))) {\r\n            totalDepositsLP = Farms[lpPair].totalDeposits();\r\n            (totalDepositsA, totalDepositsB) = getTokenStake(lpPair, totalDepositsLP);\r\n        }\r\n    }\r\n\r\n    function poolLength() external view returns (uint256) {\r\n        return lpPools.length;\r\n    }\r\n\r\n    function transferDistributor(address newDistributor) external onlyOwner {\r\n        distributor = newDistributor;\r\n        emit DistributorChanged(newDistributor);\r\n    }\r\n\r\n    function pause() external onlyOwner {\r\n        _pause();\r\n    }\r\n\r\n    function unpause() external onlyOwner {\r\n        _unpause();\r\n    }\r\n\r\n    /**\r\n     * @dev Converts LP tokens to normal tokens, value(amountA) == value(amountB) == 0.5*amountLP\r\n     * @param lpPair - LP pool to check total deposits in.\r\n     * @param amountLP - Amount of LP tokens to convert.\r\n\r\n     * @return amountA - Token A amount.\r\n     * @return amountB - Token B amount.\r\n     */ \r\n    function getTokenStake(address lpPair, uint256 amountLP) internal view returns (uint256 amountA, uint256 amountB) {\r\n        if (Farms[lpPair] != Farm(address(0))) {\r\n            uint256 totalSupply = IERC20(lpPair).totalSupply();\r\n            amountA = amountLP * IERC20(Farms[lpPair].tokenA()).balanceOf(lpPair) / totalSupply;\r\n            amountB = amountLP * IERC20(Farms[lpPair].tokenB()).balanceOf(lpPair) / totalSupply;\r\n        }\r\n    }\r\n\r\n    /**\r\n     * @dev Deploys new Farm contract and calls initialize on it.\r\n     */\r\n    function createFarm(address lpPair) internal returns (address) {\r\n        BeaconProxy proxy = new BeaconProxy(\r\n            farmBeacon,\r\n            abi.encodeWithSelector(\r\n                Farm(address(0)).initialize.selector,\r\n                lpPair\r\n            )\r\n        );\r\n        emit FarmDeployed(address(proxy));\r\n        return address(proxy);\r\n    }\r\n}",
  "sourcePath": "C:\\Users\\jugli\\Desktop\\uno\\uno-contracts-branch\\contracts\\SushiswapFarmFactoryBeacon.sol",
  "compiler": {
    "name": "solc",
    "version": "0.8.10+commit.fc410830.Emscripten.clang"
  },
  "schemaVersion": "3.4.7",
  "updatedAt": "2022-05-09T09:02:59.771Z",
  "devdoc": {
    "kind": "dev",
    "methods": {
      "deposit(uint256,uint256,uint256,address,address)": {
        "details": "Deposits tokens in the given pool. Creates new Farm contract if there isn't one deployed for the lpPair and deposits tokens.",
        "params": {
          "amountA": "- Token A amount to deposit.",
          "amountB": "-  Token B amount to deposit.",
          "amountLP": "- LP Token amount to deposit.",
          "lpPair": "- Address of the pool to deposit tokens in.",
          "recipient": "- Address which will recieve the deposit and leftover tokens."
        },
        "returns": {
          "liquidity": "- Total liquidity sent to the farm (in lpTokens).",
          "sentA": "- Token A amount sent to the farm.",
          "sentB": "- Token B amount sent to the farm."
        }
      },
      "distribute(address,address[],address[],address[],address[])": {
        "details": "Distributes tokens between users.",
        "params": {
          "lpPair": "- LP pool to distribute tokens in.",
          "rewardTokenToTokenARoute": "An array of token addresses.",
          "rewardTokenToTokenBRoute": "An array of token addresses. Note: This function can only be called by the distributor.",
          "rewarderTokenToTokenARoute": "An array of token addresses.",
          "rewarderTokenToTokenBRoute": "An array of token addresses."
        }
      },
      "owner()": {
        "details": "Returns the address of the current owner."
      },
      "paused()": {
        "details": "Returns true if the contract is paused, and false otherwise."
      },
      "renounceOwnership()": {
        "details": "Leaves the contract without owner. It will not be possible to call `onlyOwner` functions anymore. Can only be called by the current owner. NOTE: Renouncing ownership will leave the contract without an owner, thereby removing any functionality that is only available to the owner."
      },
      "setExpectedReward(address,uint256,uint256)": {
        "details": "Sets expected reward amount and block for token distribution calculations.",
        "params": {
          "expectedReward": "- New reward amount.",
          "expectedRewardBlock": "- New reward block. Note: This function can only be called by the distributor.",
          "lpPair": "- LP pool to check total deposits in."
        }
      },
      "totalDeposits(address)": {
        "details": "Returns total amount locked in the pool. Doesn't take pending rewards into account.",
        "params": {
          "lpPair": "- LP pool to check total deposits in."
        },
        "returns": {
          "totalDepositsA": "- Token A deposits.",
          "totalDepositsB": "- Token B deposits.",
          "totalDepositsLP": "- Total deposits (in LP tokens)."
        }
      },
      "transferOwnership(address)": {
        "details": "Transfers ownership of the contract to a new account (`newOwner`). Can only be called by the current owner."
      },
      "userStake(address,address)": {
        "details": "Returns tokens staked by the {_address} for the given {lpPair}.",
        "params": {
          "_address": "- The address to check stakes for.",
          "lpPair": "- LP pool to check stakes in."
        },
        "returns": {
          "stakeA": "- Token A stake.",
          "stakeB": "- Token B stake.",
          "stakeLP": "- Total user stake(in LP tokens)."
        }
      },
      "withdraw(address,uint256,bool,address)": {
        "details": "Withdraws tokens from the given pool. ",
        "params": {
          "amount": "- LP amount to withdraw. ",
          "lpPair": "- LP pool to withdraw from.",
          "recipient": "- The address which will recieve tokens.",
          "withdrawLP": "- True: Withdraw in LP tokens, False: Withdraw in normal tokens."
        },
        "returns": {
          "amountA": "- Token A amount sent to the {recipient}, 0 if withdrawLP == false.",
          "amountB": "- Token B amount sent to the {recipient}, 0 if withdrawLP == false."
        }
      }
    },
    "stateVariables": {
      "farmBeacon": {
        "details": "Contract Variables: farmBeacon - Farm contract implementation. distributor - Address authorized to make distributions. Farms - Links {lpPools} to the deployed Farm contract. lpPools - List of pools that have corresponding deployed Farm contract."
      }
    },
    "version": 1
  },
  "userdoc": {
    "kind": "user",
    "methods": {},
    "version": 1
  }
}