{
  "contractName": "UnoAssetRouterVelodromeV2",
  "abi": [
    {
      "inputs": [],
      "stateMutability": "nonpayable",
      "type": "constructor"
    },
    {
      "inputs": [],
      "name": "CALLER_NOT_AUTHORIZED",
      "type": "error"
    },
    {
      "inputs": [],
      "name": "ETH_DEPOSIT_REJECTED",
      "type": "error"
    },
    {
      "inputs": [],
      "name": "FARM_NOT_EXISTS",
      "type": "error"
    },
    {
      "inputs": [],
      "name": "INSUFFICIENT_AMOUNT",
      "type": "error"
    },
    {
      "inputs": [],
      "name": "INVALID_ACCESS_MANAGER",
      "type": "error"
    },
    {
      "inputs": [],
      "name": "INVALID_FARM_FACTORY",
      "type": "error"
    },
    {
      "inputs": [],
      "name": "INVALID_MSG_VALUE",
      "type": "error"
    },
    {
      "inputs": [],
      "name": "INVALID_SWAP_DESCRIPTION",
      "type": "error"
    },
    {
      "inputs": [
        {
          "internalType": "uint256",
          "name": "maxFee",
          "type": "uint256"
        }
      ],
      "name": "MAX_FEE_EXCEEDED",
      "type": "error"
    },
    {
      "inputs": [],
      "name": "NOT_ETH_FARM",
      "type": "error"
    },
    {
      "inputs": [],
      "name": "NO_TOKENS_SENT",
      "type": "error"
    },
    {
      "inputs": [],
      "name": "SWAP_NOT_SUCCESSFUL",
      "type": "error"
    },
    {
      "inputs": [],
      "name": "TRANSFER_NOT_SUCCESSFUL",
      "type": "error"
    },
    {
      "anonymous": false,
      "inputs": [
        {
          "indexed": false,
          "internalType": "address",
          "name": "previousAdmin",
          "type": "address"
        },
        {
          "indexed": false,
          "internalType": "address",
          "name": "newAdmin",
          "type": "address"
        }
      ],
      "name": "AdminChanged",
      "type": "event"
    },
    {
      "anonymous": false,
      "inputs": [
        {
          "indexed": true,
          "internalType": "address",
          "name": "beacon",
          "type": "address"
        }
      ],
      "name": "BeaconUpgraded",
      "type": "event"
    },
    {
      "anonymous": false,
      "inputs": [
        {
          "indexed": true,
          "internalType": "address",
          "name": "lpPool",
          "type": "address"
        },
        {
          "indexed": true,
          "internalType": "address",
          "name": "sender",
          "type": "address"
        },
        {
          "indexed": true,
          "internalType": "address",
          "name": "recipient",
          "type": "address"
        },
        {
          "indexed": false,
          "internalType": "uint256",
          "name": "amount",
          "type": "uint256"
        }
      ],
      "name": "Deposit",
      "type": "event"
    },
    {
      "anonymous": false,
      "inputs": [
        {
          "indexed": true,
          "internalType": "address",
          "name": "lpPool",
          "type": "address"
        },
        {
          "indexed": false,
          "internalType": "uint256",
          "name": "reward",
          "type": "uint256"
        }
      ],
      "name": "Distribute",
      "type": "event"
    },
    {
      "anonymous": false,
      "inputs": [
        {
          "indexed": false,
          "internalType": "uint256",
          "name": "previousFee",
          "type": "uint256"
        },
        {
          "indexed": false,
          "internalType": "uint256",
          "name": "newFee",
          "type": "uint256"
        }
      ],
      "name": "FeeChanged",
      "type": "event"
    },
    {
      "anonymous": false,
      "inputs": [
        {
          "indexed": false,
          "internalType": "uint8",
          "name": "version",
          "type": "uint8"
        }
      ],
      "name": "Initialized",
      "type": "event"
    },
    {
      "anonymous": false,
      "inputs": [
        {
          "indexed": false,
          "internalType": "address",
          "name": "account",
          "type": "address"
        }
      ],
      "name": "Paused",
      "type": "event"
    },
    {
      "anonymous": false,
      "inputs": [
        {
          "indexed": false,
          "internalType": "address",
          "name": "account",
          "type": "address"
        }
      ],
      "name": "Unpaused",
      "type": "event"
    },
    {
      "anonymous": false,
      "inputs": [
        {
          "indexed": true,
          "internalType": "address",
          "name": "implementation",
          "type": "address"
        }
      ],
      "name": "Upgraded",
      "type": "event"
    },
    {
      "anonymous": false,
      "inputs": [
        {
          "indexed": true,
          "internalType": "address",
          "name": "lpPool",
          "type": "address"
        },
        {
          "indexed": true,
          "internalType": "address",
          "name": "sender",
          "type": "address"
        },
        {
          "indexed": true,
          "internalType": "address",
          "name": "recipient",
          "type": "address"
        },
        {
          "indexed": false,
          "internalType": "uint256",
          "name": "amount",
          "type": "uint256"
        }
      ],
      "name": "Withdraw",
      "type": "event"
    },
    {
      "inputs": [],
      "name": "WETH",
      "outputs": [
        {
          "internalType": "address",
          "name": "",
          "type": "address"
        }
      ],
      "stateMutability": "view",
      "type": "function"
    },
    {
      "inputs": [],
      "name": "accessManager",
      "outputs": [
        {
          "internalType": "contract IUnoAccessManager",
          "name": "",
          "type": "address"
        }
      ],
      "stateMutability": "view",
      "type": "function"
    },
    {
      "inputs": [],
      "name": "farmFactory",
      "outputs": [
        {
          "internalType": "contract IUnoFarmFactory",
          "name": "",
          "type": "address"
        }
      ],
      "stateMutability": "view",
      "type": "function"
    },
    {
      "inputs": [],
      "name": "fee",
      "outputs": [
        {
          "internalType": "uint256",
          "name": "",
          "type": "uint256"
        }
      ],
      "stateMutability": "view",
      "type": "function"
    },
    {
      "inputs": [],
      "name": "paused",
      "outputs": [
        {
          "internalType": "bool",
          "name": "",
          "type": "bool"
        }
      ],
      "stateMutability": "view",
      "type": "function"
    },
    {
      "inputs": [],
      "name": "proxiableUUID",
      "outputs": [
        {
          "internalType": "bytes32",
          "name": "",
          "type": "bytes32"
        }
      ],
      "stateMutability": "view",
      "type": "function"
    },
    {
      "inputs": [
        {
          "internalType": "address",
          "name": "newImplementation",
          "type": "address"
        }
      ],
      "name": "upgradeTo",
      "outputs": [],
      "stateMutability": "nonpayable",
      "type": "function"
    },
    {
      "inputs": [
        {
          "internalType": "address",
          "name": "newImplementation",
          "type": "address"
        },
        {
          "internalType": "bytes",
          "name": "data",
          "type": "bytes"
        }
      ],
      "name": "upgradeToAndCall",
      "outputs": [],
      "stateMutability": "payable",
      "type": "function"
    },
    {
      "inputs": [],
      "name": "version",
      "outputs": [
        {
          "internalType": "uint256",
          "name": "",
          "type": "uint256"
        }
      ],
      "stateMutability": "view",
      "type": "function"
    },
    {
      "stateMutability": "payable",
      "type": "receive"
    },
    {
      "inputs": [
        {
          "internalType": "address",
          "name": "_accessManager",
          "type": "address"
        },
        {
          "internalType": "address",
          "name": "_farmFactory",
          "type": "address"
        }
      ],
      "name": "initialize",
      "outputs": [],
      "stateMutability": "nonpayable",
      "type": "function"
    },
    {
      "inputs": [
        {
          "internalType": "address",
          "name": "lpPair",
          "type": "address"
        },
        {
          "internalType": "uint256",
          "name": "amountA",
          "type": "uint256"
        },
        {
          "internalType": "uint256",
          "name": "amountB",
          "type": "uint256"
        },
        {
          "internalType": "uint256",
          "name": "amountAMin",
          "type": "uint256"
        },
        {
          "internalType": "uint256",
          "name": "amountBMin",
          "type": "uint256"
        },
        {
          "internalType": "address",
          "name": "recipient",
          "type": "address"
        }
      ],
      "name": "deposit",
      "outputs": [
        {
          "internalType": "uint256",
          "name": "sentA",
          "type": "uint256"
        },
        {
          "internalType": "uint256",
          "name": "sentB",
          "type": "uint256"
        },
        {
          "internalType": "uint256",
          "name": "liquidity",
          "type": "uint256"
        }
      ],
      "stateMutability": "nonpayable",
      "type": "function"
    },
    {
      "inputs": [
        {
          "internalType": "address",
          "name": "lpPair",
          "type": "address"
        },
        {
          "internalType": "uint256",
          "name": "amountToken",
          "type": "uint256"
        },
        {
          "internalType": "uint256",
          "name": "amountTokenMin",
          "type": "uint256"
        },
        {
          "internalType": "uint256",
          "name": "amountETHMin",
          "type": "uint256"
        },
        {
          "internalType": "address",
          "name": "recipient",
          "type": "address"
        }
      ],
      "name": "depositETH",
      "outputs": [
        {
          "internalType": "uint256",
          "name": "sentToken",
          "type": "uint256"
        },
        {
          "internalType": "uint256",
          "name": "sentETH",
          "type": "uint256"
        },
        {
          "internalType": "uint256",
          "name": "liquidity",
          "type": "uint256"
        }
      ],
      "stateMutability": "payable",
      "type": "function"
    },
    {
      "inputs": [
        {
          "internalType": "address",
          "name": "lpPair",
          "type": "address"
        },
        {
          "internalType": "bytes[2]",
          "name": "swapData",
          "type": "bytes[2]"
        },
        {
          "internalType": "address",
          "name": "recipient",
          "type": "address"
        }
      ],
      "name": "depositWithSwap",
      "outputs": [
        {
          "internalType": "uint256",
          "name": "sent0",
          "type": "uint256"
        },
        {
          "internalType": "uint256",
          "name": "sent1",
          "type": "uint256"
        },
        {
          "internalType": "uint256",
          "name": "dustA",
          "type": "uint256"
        },
        {
          "internalType": "uint256",
          "name": "dustB",
          "type": "uint256"
        },
        {
          "internalType": "uint256",
          "name": "liquidity",
          "type": "uint256"
        }
      ],
      "stateMutability": "payable",
      "type": "function"
    },
    {
      "inputs": [
        {
          "internalType": "address",
          "name": "lpPair",
          "type": "address"
        },
        {
          "internalType": "uint256",
          "name": "amount",
          "type": "uint256"
        },
        {
          "internalType": "address",
          "name": "recipient",
          "type": "address"
        }
      ],
      "name": "depositLP",
      "outputs": [],
      "stateMutability": "nonpayable",
      "type": "function"
    },
    {
      "inputs": [
        {
          "internalType": "address",
          "name": "lpPair",
          "type": "address"
        },
        {
          "internalType": "uint256",
          "name": "amount",
          "type": "uint256"
        },
        {
          "internalType": "uint256",
          "name": "amountAMin",
          "type": "uint256"
        },
        {
          "internalType": "uint256",
          "name": "amountBMin",
          "type": "uint256"
        },
        {
          "internalType": "address",
          "name": "recipient",
          "type": "address"
        }
      ],
      "name": "withdraw",
      "outputs": [
        {
          "internalType": "uint256",
          "name": "amountA",
          "type": "uint256"
        },
        {
          "internalType": "uint256",
          "name": "amountB",
          "type": "uint256"
        }
      ],
      "stateMutability": "nonpayable",
      "type": "function"
    },
    {
      "inputs": [
        {
          "internalType": "address",
          "name": "lpPair",
          "type": "address"
        },
        {
          "internalType": "uint256",
          "name": "amount",
          "type": "uint256"
        },
        {
          "internalType": "uint256",
          "name": "amountTokenMin",
          "type": "uint256"
        },
        {
          "internalType": "uint256",
          "name": "amountETHMin",
          "type": "uint256"
        },
        {
          "internalType": "address",
          "name": "recipient",
          "type": "address"
        }
      ],
      "name": "withdrawETH",
      "outputs": [
        {
          "internalType": "uint256",
          "name": "amountToken",
          "type": "uint256"
        },
        {
          "internalType": "uint256",
          "name": "amountETH",
          "type": "uint256"
        }
      ],
      "stateMutability": "nonpayable",
      "type": "function"
    },
    {
      "inputs": [
        {
          "internalType": "address",
          "name": "lpPair",
          "type": "address"
        },
        {
          "internalType": "uint256",
          "name": "amount",
          "type": "uint256"
        },
        {
          "internalType": "bytes[2]",
          "name": "swapData",
          "type": "bytes[2]"
        },
        {
          "internalType": "address",
          "name": "recipient",
          "type": "address"
        }
      ],
      "name": "withdrawWithSwap",
      "outputs": [
        {
          "internalType": "uint256",
          "name": "amount0",
          "type": "uint256"
        },
        {
          "internalType": "uint256",
          "name": "amount1",
          "type": "uint256"
        },
        {
          "internalType": "uint256",
          "name": "amountA",
          "type": "uint256"
        },
        {
          "internalType": "uint256",
          "name": "amountB",
          "type": "uint256"
        }
      ],
      "stateMutability": "nonpayable",
      "type": "function"
    },
    {
      "inputs": [
        {
          "internalType": "address",
          "name": "lpPair",
          "type": "address"
        },
        {
          "internalType": "uint256",
          "name": "amount",
          "type": "uint256"
        },
        {
          "internalType": "address",
          "name": "recipient",
          "type": "address"
        }
      ],
      "name": "withdrawLP",
      "outputs": [],
      "stateMutability": "nonpayable",
      "type": "function"
    },
    {
      "inputs": [
        {
          "internalType": "address",
          "name": "lpPair",
          "type": "address"
        },
        {
          "components": [
            {
              "internalType": "uint256",
              "name": "amount",
              "type": "uint256"
            },
            {
              "internalType": "uint256",
              "name": "amountOutMin",
              "type": "uint256"
            },
            {
              "components": [
                {
                  "internalType": "address",
                  "name": "from",
                  "type": "address"
                },
                {
                  "internalType": "address",
                  "name": "to",
                  "type": "address"
                },
                {
                  "internalType": "bool",
                  "name": "stable",
                  "type": "bool"
                },
                {
                  "internalType": "address",
                  "name": "factory",
                  "type": "address"
                }
              ],
              "internalType": "struct IRouter.Route[]",
              "name": "route",
              "type": "tuple[]"
            }
          ],
          "internalType": "struct IUnoFarmVelodrome.SwapInfo[2]",
          "name": "swapInfos",
          "type": "tuple[2]"
        },
        {
          "internalType": "address",
          "name": "feeTo",
          "type": "address"
        }
      ],
      "name": "distribute",
      "outputs": [
        {
          "internalType": "uint256",
          "name": "reward",
          "type": "uint256"
        }
      ],
      "stateMutability": "nonpayable",
      "type": "function"
    },
    {
      "inputs": [
        {
          "internalType": "address",
          "name": "_address",
          "type": "address"
        },
        {
          "internalType": "address",
          "name": "lpPair",
          "type": "address"
        }
      ],
      "name": "userStake",
      "outputs": [
        {
          "internalType": "uint256",
          "name": "stakeLP",
          "type": "uint256"
        },
        {
          "internalType": "uint256",
          "name": "stakeA",
          "type": "uint256"
        },
        {
          "internalType": "uint256",
          "name": "stakeB",
          "type": "uint256"
        }
      ],
      "stateMutability": "view",
      "type": "function"
    },
    {
      "inputs": [
        {
          "internalType": "address",
          "name": "lpPair",
          "type": "address"
        }
      ],
      "name": "totalDeposits",
      "outputs": [
        {
          "internalType": "uint256",
          "name": "totalDepositsLP",
          "type": "uint256"
        },
        {
          "internalType": "uint256",
          "name": "totalDepositsA",
          "type": "uint256"
        },
        {
          "internalType": "uint256",
          "name": "totalDepositsB",
          "type": "uint256"
        }
      ],
      "stateMutability": "view",
      "type": "function"
    },
    {
      "inputs": [
        {
          "internalType": "address",
          "name": "lpPair",
          "type": "address"
        }
      ],
      "name": "getTokens",
      "outputs": [
        {
          "internalType": "contract IERC20[]",
          "name": "tokens",
          "type": "address[]"
        }
      ],
      "stateMutability": "view",
      "type": "function"
    },
    {
      "inputs": [
        {
          "internalType": "uint256",
          "name": "_fee",
          "type": "uint256"
        }
      ],
      "name": "setFee",
      "outputs": [],
      "stateMutability": "nonpayable",
      "type": "function"
    },
    {
      "inputs": [],
      "name": "pause",
      "outputs": [],
      "stateMutability": "nonpayable",
      "type": "function"
    },
    {
      "inputs": [],
      "name": "unpause",
      "outputs": [],
      "stateMutability": "nonpayable",
      "type": "function"
    }
  ],
  "bytecode": "0x60a0604052306080523480156200001557600080fd5b506200002062000026565b620000e7565b600054610100900460ff1615620000935760405162461bcd60e51b815260206004820152602760248201527f496e697469616c697a61626c653a20636f6e747261637420697320696e697469604482015266616c697a696e6760c81b606482015260840160405180910390fd5b60005460ff90811614620000e5576000805460ff191660ff9081179091556040519081527f7f26b83ff96e1f2b6a682f133852f6798a09c465da95921460cefb38474024989060200160405180910390a15b565b60805161545b6200011f60003960008181610825015281816108c001528181611118015281816111ae01526113cc015261545b6000f3fe60806040526004361061019a5760003560e01c806369fe0e2d116100e1578063d84ff8421161008a578063e50e637111610064578063e50e6371146104ea578063e94032561461050a578063fdcb60681461052a578063fefa40941461054a57600080fd5b8063d84ff8421461047f578063ddca3f43146104b4578063deb03f4d146104ca57600080fd5b80638456cb59116100bb5780638456cb591461040757806399cd69de1461041c578063ad5c46481461045757600080fd5b806369fe0e2d1461038f5780636d25e175146103af5780637507a479146103e757600080fd5b80634f1ef2861161014357806354fd4d501161011d57806354fd4d50146103375780635c975abb1461034c5780636505e65e1461036f57600080fd5b80634f1ef286146102c657806351bdca3e146102d957806352d1902d1461031457600080fd5b8063450efe2111610174578063450efe211461025957806346dafa2f14610286578063485cc955146102a657600080fd5b80632a895ade146101df5780633659cfe6146102245780633f4ba83a1461024457600080fd5b366101da573233036101d8576040517fb4bc308200000000000000000000000000000000000000000000000000000000815260040160405180910390fd5b005b600080fd5b3480156101eb57600080fd5b506101ff6101fa366004614ae6565b61055d565b6040805194855260208501939093529183015260608201526080015b60405180910390f35b34801561023057600080fd5b506101d861023f366004614b52565b61081b565b34801561025057600080fd5b506101d86109bd565b34801561026557600080fd5b50610279610274366004614b52565b610aa7565b60405161021b9190614b6f565b34801561029257600080fd5b506101d86102a1366004614bbc565b610bf6565b3480156102b257600080fd5b506101d86102c1366004614bfe565b610e30565b6101d86102d4366004614d1c565b61110e565b3480156102e557600080fd5b506102f96102f4366004614bfe565b61129c565b6040805193845260208401929092529082015260600161021b565b34801561032057600080fd5b506103296113bf565b60405190815260200161021b565b34801561034357600080fd5b50610329600281565b34801561035857600080fd5b5060335460ff16604051901515815260200161021b565b34801561037b57600080fd5b506102f961038a366004614d62565b611484565b34801561039b57600080fd5b506101d86103aa366004614dc0565b61182f565b3480156103bb57600080fd5b5060c9546103cf906001600160a01b031681565b6040516001600160a01b03909116815260200161021b565b3480156103f357600080fd5b50610329610402366004614dd9565b61198b565b34801561041357600080fd5b506101d8611c15565b61042f61042a366004614dd9565b611cff565b604080519586526020860194909452928401919091526060830152608082015260a00161021b565b34801561046357600080fd5b506103cf73420000000000000000000000000000000000000681565b34801561048b57600080fd5b5061049f61049a366004614e32565b6120b9565b6040805192835260208301919091520161021b565b3480156104c057600080fd5b5061032960cc5481565b3480156104d657600080fd5b5061049f6104e5366004614e32565b612314565b3480156104f657600080fd5b506101d8610505366004614bbc565b612630565b34801561051657600080fd5b506102f9610525366004614b52565b6127b1565b34801561053657600080fd5b5060ca546103cf906001600160a01b031681565b6102f9610558366004614e32565b6128b3565b60c95460405163f9d9331d60e01b81526001600160a01b038681166004830152600092839283928392839291169063f9d9331d90602401602060405180830381865afa1580156105b1573d6000803e3d6000fd5b505050506040513d601f19601f820116820180604052508101906105d59190614e88565b90506001600160a01b038116610617576040517f663fb07e00000000000000000000000000000000000000000000000000000000815260040160405180910390fd5b6040517fb460af94000000000000000000000000000000000000000000000000000000008152600481018990523360248201523060448201526001600160a01b0382169063b460af9490606401600060405180830381600087803b15801561067e57600080fd5b505af1158015610692573d6000803e3d6000fd5b505050506000816001600160a01b0316630fc63d106040518163ffffffff1660e01b8152600401602060405180830381865afa1580156106d6573d6000803e3d6000fd5b505050506040513d601f19601f820116820180604052508101906106fa9190614e88565b90506000826001600160a01b0316635f64b55b6040518163ffffffff1660e01b8152600401602060405180830381865afa15801561073c573d6000803e3d6000fd5b505050506040513d601f19601f820116820180604052508101906107609190614e88565b90506000806107758d85858f60008030612d00565b909250905061078f6107878c80614ed4565b86858e612eef565b90995096506107ac6107a460208d018d614ed4565b85848e612eef565b8097508199505050896001600160a01b0316336001600160a01b03168e6001600160a01b03167f3115d1449a7b732c986cba18244e897a450f61e1bb8d589cd2e69e6c8924f9f78f60405161080391815260200190565b60405180910390a45050505050945094509450949050565b6001600160a01b037f00000000000000000000000000000000000000000000000000000000000000001630036108be5760405162461bcd60e51b815260206004820152602c60248201527f46756e6374696f6e206d7573742062652063616c6c6564207468726f7567682060448201527f64656c656761746563616c6c000000000000000000000000000000000000000060648201526084015b60405180910390fd5b7f00000000000000000000000000000000000000000000000000000000000000006001600160a01b03166109197f360894a13ba1a3210667c828492db98dca3e2076cc3735a920a3ca505d382bbc546001600160a01b031690565b6001600160a01b0316146109955760405162461bcd60e51b815260206004820152602c60248201527f46756e6374696f6e206d7573742062652063616c6c6564207468726f7567682060448201527f6163746976652070726f7879000000000000000000000000000000000000000060648201526084016108b5565b61099e8161321b565b604080516000808252602082019092526109ba918391906132e0565b50565b60ca546040517f91d148540000000000000000000000000000000000000000000000000000000081527f65d7a28e3265b37a6474929f336521b332c1681b933f6cb9f3376673440d862a60048201819052336024830152916001600160a01b0316906391d1485490604401602060405180830381865afa158015610a45573d6000803e3d6000fd5b505050506040513d601f19601f82011682018060405250810190610a699190614f4e565b610a9f576040517fcb783f0600000000000000000000000000000000000000000000000000000000815260040160405180910390fd5b6109ba613480565b6040805160028082526060808301845292602083019080368337019050509050816001600160a01b0316630dfe16816040518163ffffffff1660e01b8152600401602060405180830381865afa158015610b05573d6000803e3d6000fd5b505050506040513d601f19601f82011682018060405250810190610b299190614e88565b81600081518110610b3c57610b3c614ea5565b60200260200101906001600160a01b031690816001600160a01b031681525050816001600160a01b031663d21220a76040518163ffffffff1660e01b8152600401602060405180830381865afa158015610b9a573d6000803e3d6000fd5b505050506040513d601f19601f82011682018060405250810190610bbe9190614e88565b81600181518110610bd157610bd1614ea5565b60200260200101906001600160a01b031690816001600160a01b031681525050919050565b610bfe6134f0565b81600003610c38576040517fd7eb47e300000000000000000000000000000000000000000000000000000000815260040160405180910390fd5b60c95460405163f9d9331d60e01b81526001600160a01b038581166004830152600092169063f9d9331d90602401602060405180830381865afa158015610c83573d6000803e3d6000fd5b505050506040513d601f19601f82011682018060405250810190610ca79190614e88565b90506001600160a01b038116610d435760c9546040517f061278c00000000000000000000000000000000000000000000000000000000081526001600160a01b0386811660048301529091169063061278c0906024016020604051808303816000875af1158015610d1c573d6000803e3d6000fd5b505050506040513d601f19601f82011682018060405250810190610d409190614e88565b90505b610d586001600160a01b038516338386613545565b6040517f6e553f65000000000000000000000000000000000000000000000000000000008152600481018490526001600160a01b038381166024830152821690636e553f6590604401600060405180830381600087803b158015610dbb57600080fd5b505af1158015610dcf573d6000803e3d6000fd5b50505050816001600160a01b0316336001600160a01b0316856001600160a01b03167f7cfff908a4b583f36430b25d75964c458d8ede8a99bd61be750e97ee1b2f3a9686604051610e2291815260200190565b60405180910390a450505050565b600054610100900460ff1615808015610e505750600054600160ff909116105b80610e6a5750303b158015610e6a575060005460ff166001145b610edc5760405162461bcd60e51b815260206004820152602e60248201527f496e697469616c697a61626c653a20636f6e747261637420697320616c72656160448201527f647920696e697469616c697a656400000000000000000000000000000000000060648201526084016108b5565b600080547fffffffffffffffffffffffffffffffffffffffffffffffffffffffffffffff001660011790558015610f3a57600080547fffffffffffffffffffffffffffffffffffffffffffffffffffffffffffff00ff166101001790555b6001600160a01b038316610f7a576040517fe63be25200000000000000000000000000000000000000000000000000000000815260040160405180910390fd5b6001600160a01b038216610fba576040517f0322dff400000000000000000000000000000000000000000000000000000000815260040160405180910390fd5b610fc26135fc565b60ca80547fffffffffffffffffffffffff0000000000000000000000000000000000000000166001600160a01b038516908117909155604080517f75b238fc00000000000000000000000000000000000000000000000000000000815290516375b238fc916004808201926020929091908290030181865afa15801561104c573d6000803e3d6000fd5b505050506040513d601f19601f820116820180604052508101906110709190614f6b565b60cb5560c980547fffffffffffffffffffffffff0000000000000000000000000000000000000000166001600160a01b038416179055801561110957600080547fffffffffffffffffffffffffffffffffffffffffffffffffffffffffffff00ff169055604051600181527f7f26b83ff96e1f2b6a682f133852f6798a09c465da95921460cefb38474024989060200160405180910390a15b505050565b6001600160a01b037f00000000000000000000000000000000000000000000000000000000000000001630036111ac5760405162461bcd60e51b815260206004820152602c60248201527f46756e6374696f6e206d7573742062652063616c6c6564207468726f7567682060448201527f64656c656761746563616c6c000000000000000000000000000000000000000060648201526084016108b5565b7f00000000000000000000000000000000000000000000000000000000000000006001600160a01b03166112077f360894a13ba1a3210667c828492db98dca3e2076cc3735a920a3ca505d382bbc546001600160a01b031690565b6001600160a01b0316146112835760405162461bcd60e51b815260206004820152602c60248201527f46756e6374696f6e206d7573742062652063616c6c6564207468726f7567682060448201527f6163746976652070726f7879000000000000000000000000000000000000000060648201526084016108b5565b61128c8261321b565b611298828260016132e0565b5050565b60c95460405163f9d9331d60e01b81526001600160a01b038381166004830152600092839283928392169063f9d9331d90602401602060405180830381865afa1580156112ed573d6000803e3d6000fd5b505050506040513d601f19601f820116820180604052508101906113119190614e88565b90506001600160a01b038116156113b7576040517f0103c92b0000000000000000000000000000000000000000000000000000000081526001600160a01b038781166004830152821690630103c92b90602401602060405180830381865afa158015611381573d6000803e3d6000fd5b505050506040513d601f19601f820116820180604052508101906113a59190614f6b565b93506113b18585613681565b90935091505b509250925092565b6000306001600160a01b037f0000000000000000000000000000000000000000000000000000000000000000161461145f5760405162461bcd60e51b815260206004820152603860248201527f555550535570677261646561626c653a206d757374206e6f742062652063616c60448201527f6c6564207468726f7567682064656c656761746563616c6c000000000000000060648201526084016108b5565b507f360894a13ba1a3210667c828492db98dca3e2076cc3735a920a3ca505d382bbc90565b60008060006114916134f0565b87158061149c575086155b156114d3576040517fd7eb47e300000000000000000000000000000000000000000000000000000000815260040160405180910390fd5b60c95460405163f9d9331d60e01b81526001600160a01b038b81166004830152600092169063f9d9331d90602401602060405180830381865afa15801561151e573d6000803e3d6000fd5b505050506040513d601f19601f820116820180604052508101906115429190614e88565b90506001600160a01b0381166115de5760c9546040517f061278c00000000000000000000000000000000000000000000000000000000081526001600160a01b038c811660048301529091169063061278c0906024016020604051808303816000875af11580156115b7573d6000803e3d6000fd5b505050506040513d601f19601f820116820180604052508101906115db9190614e88565b90505b6000816001600160a01b0316630fc63d106040518163ffffffff1660e01b8152600401602060405180830381865afa15801561161e573d6000803e3d6000fd5b505050506040513d601f19601f820116820180604052508101906116429190614e88565b90506000826001600160a01b0316635f64b55b6040518163ffffffff1660e01b8152600401602060405180830381865afa158015611684573d6000803e3d6000fd5b505050506040513d601f19601f820116820180604052508101906116a89190614e88565b90506116bf6001600160a01b03831633308e613545565b6116d46001600160a01b03821633308d613545565b6117458282856001600160a01b03166309047bdd6040518163ffffffff1660e01b8152600401602060405180830381865afa158015611717573d6000803e3d6000fd5b505050506040513d601f19601f8201168201806040525081019061173b9190614f4e565b8e8e8e8e8a6138ee565b6040517f6e553f65000000000000000000000000000000000000000000000000000000008152600481018290526001600160a01b038b81166024830152939950919750955090841690636e553f6590604401600060405180830381600087803b1580156117b157600080fd5b505af11580156117c5573d6000803e3d6000fd5b50505050866001600160a01b0316336001600160a01b03168d6001600160a01b03167f7cfff908a4b583f36430b25d75964c458d8ede8a99bd61be750e97ee1b2f3a968760405161181891815260200190565b60405180910390a450505096509650969350505050565b60cb5460ca546040517f91d14854000000000000000000000000000000000000000000000000000000008152600481018390523360248201526001600160a01b03909116906391d1485490604401602060405180830381865afa15801561189a573d6000803e3d6000fd5b505050506040513d601f19601f820116820180604052508101906118be9190614f4e565b6118f4576040517fcb783f0600000000000000000000000000000000000000000000000000000000815260040160405180910390fd5b670de0b6b3a7640000821115611940576040517fe09129f6000000000000000000000000000000000000000000000000000000008152670de0b6b3a764000060048201526024016108b5565b8160cc54146112985760cc5460408051918252602082018490527f5fc463da23c1b063e66f9e352006a7fbe8db7223c455dc429e881a2dfe2f94f1910160405180910390a15060cc55565b60006119956134f0565b60ca546040517f91d148540000000000000000000000000000000000000000000000000000000081527ffbd454f36a7e1a388bd6fc3ab10d434aa4578f811acbbcf33afb1c697486313c60048201819052336024830152916001600160a01b0316906391d1485490604401602060405180830381865afa158015611a1d573d6000803e3d6000fd5b505050506040513d601f19601f82011682018060405250810190611a419190614f4e565b611a77576040517fcb783f0600000000000000000000000000000000000000000000000000000000815260040160405180910390fd5b60c95460405163f9d9331d60e01b81526001600160a01b038781166004830152600092169063f9d9331d90602401602060405180830381865afa158015611ac2573d6000803e3d6000fd5b505050506040513d601f19601f82011682018060405250810190611ae69190614e88565b90506001600160a01b038116611b28576040517f663fb07e00000000000000000000000000000000000000000000000000000000815260040160405180910390fd5b6040805180820182526001600160a01b03868116825260cc54602083015291517f57af2c9e000000000000000000000000000000000000000000000000000000008152918316916357af2c9e91611b8491899190600401614f84565b6020604051808303816000875af1158015611ba3573d6000803e3d6000fd5b505050506040513d601f19601f82011682018060405250810190611bc79190614f6b565b9250856001600160a01b03167fc1d32ad5cca423e7dda2123dbf8c482f8e77d00b631c06e903a47f2cec1334df84604051611c0491815260200190565b60405180910390a250509392505050565b60ca546040517f91d148540000000000000000000000000000000000000000000000000000000081527f65d7a28e3265b37a6474929f336521b332c1681b933f6cb9f3376673440d862a60048201819052336024830152916001600160a01b0316906391d1485490604401602060405180830381865afa158015611c9d573d6000803e3d6000fd5b505050506040513d601f19601f82011682018060405250810190611cc19190614f4e565b611cf7576040517fcb783f0600000000000000000000000000000000000000000000000000000000815260040160405180910390fd5b6109ba613b69565b6000806000806000611d0f6134f0565b60c95460405163f9d9331d60e01b81526001600160a01b038a81166004830152600092169063f9d9331d90602401602060405180830381865afa158015611d5a573d6000803e3d6000fd5b505050506040513d601f19601f82011682018060405250810190611d7e9190614e88565b90506001600160a01b038116611e1a5760c9546040517f061278c00000000000000000000000000000000000000000000000000000000081526001600160a01b038b811660048301529091169063061278c0906024016020604051808303816000875af1158015611df3573d6000803e3d6000fd5b505050506040513d601f19601f82011682018060405250810190611e179190614e88565b90505b611e2388613bc4565b6000816001600160a01b0316630fc63d106040518163ffffffff1660e01b8152600401602060405180830381865afa158015611e63573d6000803e3d6000fd5b505050506040513d601f19601f82011682018060405250810190611e879190614e88565b90506000826001600160a01b0316635f64b55b6040518163ffffffff1660e01b8152600401602060405180830381865afa158015611ec9573d6000803e3d6000fd5b505050506040513d601f19601f82011682018060405250810190611eed9190614e88565b90506000808080611f07611f018f80614ed4565b88613ce7565b909d509094509250611f2b8e6001602002810190611f259190614ed4565b87613ce7565b809350819d50829450505050611fa88686896001600160a01b03166309047bdd6040518163ffffffff1660e01b8152600401602060405180830381865afa158015611f7a573d6000803e3d6000fd5b505050506040513d601f19601f82011682018060405250810190611f9e9190614f4e565b878688878e6138ee565b809a50819350829550505050866001600160a01b0316636e553f65898f6040518363ffffffff1660e01b8152600401611ff49291909182526001600160a01b0316602082015260400190565b600060405180830381600087803b15801561200e57600080fd5b505af1158015612022573d6000803e3d6000fd5b505050508284111561203b576120388385615162565b99505b808211156120505761204d8183615162565b98505b505050505050866001600160a01b0316336001600160a01b03168a6001600160a01b03167f7cfff908a4b583f36430b25d75964c458d8ede8a99bd61be750e97ee1b2f3a96856040516120a591815260200190565b60405180910390a450939792965093509350565b60c95460405163f9d9331d60e01b81526001600160a01b038781166004830152600092839283929091169063f9d9331d90602401602060405180830381865afa15801561210a573d6000803e3d6000fd5b505050506040513d601f19601f8201168201806040525081019061212e9190614e88565b90506001600160a01b038116612170576040517f663fb07e00000000000000000000000000000000000000000000000000000000815260040160405180910390fd5b6040517fb460af94000000000000000000000000000000000000000000000000000000008152600481018890523360248201523060448201526001600160a01b0382169063b460af9490606401600060405180830381600087803b1580156121d757600080fd5b505af11580156121eb573d6000803e3d6000fd5b505050506122c088826001600160a01b0316630fc63d106040518163ffffffff1660e01b8152600401602060405180830381865afa158015612231573d6000803e3d6000fd5b505050506040513d601f19601f820116820180604052508101906122559190614e88565b836001600160a01b0316635f64b55b6040518163ffffffff1660e01b8152600401602060405180830381865afa158015612293573d6000803e3d6000fd5b505050506040513d601f19601f820116820180604052508101906122b79190614e88565b8a8a8a8a612d00565b60405189815291945092506001600160a01b038581169133918b16907f3115d1449a7b732c986cba18244e897a450f61e1bb8d589cd2e69e6c8924f9f79060200160405180910390a4509550959350505050565b60c95460405163f9d9331d60e01b81526001600160a01b038781166004830152600092839283929091169063f9d9331d90602401602060405180830381865afa158015612365573d6000803e3d6000fd5b505050506040513d601f19601f820116820180604052508101906123899190614e88565b90506001600160a01b0381166123cb576040517f663fb07e00000000000000000000000000000000000000000000000000000000815260040160405180910390fd5b6000816001600160a01b0316630fc63d106040518163ffffffff1660e01b8152600401602060405180830381865afa15801561240b573d6000803e3d6000fd5b505050506040513d601f19601f8201168201806040525081019061242f9190614e88565b90506000826001600160a01b0316635f64b55b6040518163ffffffff1660e01b8152600401602060405180830381865afa158015612471573d6000803e3d6000fd5b505050506040513d601f19601f820116820180604052508101906124959190614e88565b6040517fb460af94000000000000000000000000000000000000000000000000000000008152600481018b90523360248201523060448201529091506001600160a01b0384169063b460af9490606401600060405180830381600087803b1580156124ff57600080fd5b505af1158015612513573d6000803e3d6000fd5b505050507342000000000000000000000000000000000000066001600160a01b0316826001600160a01b03160361255c576125528a828b8b8b8b614141565b90955093506125cc565b7fffffffffffffffffffffffffbdfffffffffffffffffffffffffffffffffffffa6001600160a01b0382160161259a576125528a838b8b8b8b614141565b6040517faaf96e6100000000000000000000000000000000000000000000000000000000815260040160405180910390fd5b856001600160a01b0316336001600160a01b03168b6001600160a01b03167f3115d1449a7b732c986cba18244e897a450f61e1bb8d589cd2e69e6c8924f9f78c60405161261b91815260200190565b60405180910390a45050509550959350505050565b60c95460405163f9d9331d60e01b81526001600160a01b038581166004830152600092169063f9d9331d90602401602060405180830381865afa15801561267b573d6000803e3d6000fd5b505050506040513d601f19601f8201168201806040525081019061269f9190614e88565b90506001600160a01b0381166126e1576040517f663fb07e00000000000000000000000000000000000000000000000000000000815260040160405180910390fd5b6040517fb460af94000000000000000000000000000000000000000000000000000000008152600481018490523360248201526001600160a01b03838116604483015282169063b460af9490606401600060405180830381600087803b15801561274a57600080fd5b505af115801561275e573d6000803e3d6000fd5b50505050816001600160a01b0316336001600160a01b0316856001600160a01b03167f3115d1449a7b732c986cba18244e897a450f61e1bb8d589cd2e69e6c8924f9f786604051610e2291815260200190565b60c95460405163f9d9331d60e01b81526001600160a01b038381166004830152600092839283928392169063f9d9331d90602401602060405180830381865afa158015612802573d6000803e3d6000fd5b505050506040513d601f19601f820116820180604052508101906128269190614e88565b90506001600160a01b038116156128ab57806001600160a01b031663168a48226040518163ffffffff1660e01b8152600401602060405180830381865afa158015612875573d6000803e3d6000fd5b505050506040513d601f19601f820116820180604052508101906128999190614f6b565b93506128a58585613681565b90935091505b509193909250565b60008060006128c06134f0565b3415806128cb575086155b15612902576040517fd7eb47e300000000000000000000000000000000000000000000000000000000815260040160405180910390fd5b60c95460405163f9d9331d60e01b81526001600160a01b038a81166004830152600092169063f9d9331d90602401602060405180830381865afa15801561294d573d6000803e3d6000fd5b505050506040513d601f19601f820116820180604052508101906129719190614e88565b90506001600160a01b038116612a0d5760c9546040517f061278c00000000000000000000000000000000000000000000000000000000081526001600160a01b038b811660048301529091169063061278c0906024016020604051808303816000875af11580156129e6573d6000803e3d6000fd5b505050506040513d601f19601f82011682018060405250810190612a0a9190614e88565b90505b6000816001600160a01b0316630fc63d106040518163ffffffff1660e01b8152600401602060405180830381865afa158015612a4d573d6000803e3d6000fd5b505050506040513d601f19601f82011682018060405250810190612a719190614e88565b90506000826001600160a01b0316635f64b55b6040518163ffffffff1660e01b8152600401602060405180830381865afa158015612ab3573d6000803e3d6000fd5b505050506040513d601f19601f82011682018060405250810190612ad79190614e88565b90507fffffffffffffffffffffffffbdfffffffffffffffffffffffffffffffffffffa6001600160a01b03831601612b9957612b1e6001600160a01b03821633308d613545565b612b8d81846001600160a01b03166309047bdd6040518163ffffffff1660e01b8152600401602060405180830381865afa158015612b60573d6000803e3d6000fd5b505050506040513d601f19601f82011682018060405250810190612b849190614f4e565b8c8c8c88614326565b91975095509350612c20565b7fffffffffffffffffffffffffbdfffffffffffffffffffffffffffffffffffffa6001600160a01b0382160161259a57612bde6001600160a01b03831633308d613545565b612b8d82846001600160a01b03166309047bdd6040518163ffffffff1660e01b8152600401602060405180830381865afa158015612b60573d6000803e3d6000fd5b6040517f6e553f65000000000000000000000000000000000000000000000000000000008152600481018590526001600160a01b038881166024830152841690636e553f6590604401600060405180830381600087803b158015612c8357600080fd5b505af1158015612c97573d6000803e3d6000fd5b50505050866001600160a01b0316336001600160a01b03168c6001600160a01b03167f7cfff908a4b583f36430b25d75964c458d8ede8a99bd61be750e97ee1b2f3a9687604051612cea91815260200190565b60405180910390a4505050955095509592505050565b6040517f095ea7b300000000000000000000000000000000000000000000000000000000815273a062ae8a9c5e11aaa026fc2670b0d65ccc8b285860048201526024810185905260009081906001600160a01b038a169063095ea7b3906044016020604051808303816000875af1158015612d7f573d6000803e3d6000fd5b505050506040513d601f19601f82011682018060405250810190612da39190614f4e565b5073a062ae8a9c5e11aaa026fc2670b0d65ccc8b28586001600160a01b0316630dede6c489898c6001600160a01b03166322be3de16040518163ffffffff1660e01b8152600401602060405180830381865afa158015612e07573d6000803e3d6000fd5b505050506040513d601f19601f82011682018060405250810190612e2b9190614f4e565b6040517fffffffff0000000000000000000000000000000000000000000000000000000060e086901b1681526001600160a01b039384166004820152918316602483015215156044820152606481018a90526084810189905260a4810188905290861660c48201524260e48201526101040160408051808303816000875af1158015612ebb573d6000803e3d6000fd5b505050506040513d601f19601f82011682018060405250810190612edf9190615175565b909a909950975050505050505050565b60008080612f00876004818b615199565b810190612f0d91906151c3565b50915050856001600160a01b031681602001516001600160a01b031603612f4f57612f426001600160a01b038716858761450a565b8460009250925050613211565b7f12aa3caf00000000000000000000000000000000000000000000000000000000612f7e600460008a8c615199565b612f87916152a0565b7fffffffff0000000000000000000000000000000000000000000000000000000016141580612fcc5750856001600160a01b031681600001516001600160a01b031614155b80612fd957506080810151155b80612ffa5750836001600160a01b031681606001516001600160a01b031614155b15613031576040517f6ed4586400000000000000000000000000000000000000000000000000000000815260040160405180910390fd5b805160808201516040517f095ea7b3000000000000000000000000000000000000000000000000000000008152731111111254eeb25477b68fb85ed929f73a960582600482015260248101919091526001600160a01b039091169063095ea7b3906044016020604051808303816000875af11580156130b4573d6000803e3d6000fd5b505050506040513d601f19601f820116820180604052508101906130d89190614f4e565b50600080731111111254eeb25477b68fb85ed929f73a9605826001600160a01b03168a8a60405161310a9291906152e8565b6000604051808303816000865af19150503d8060008114613147576040519150601f19603f3d011682016040523d82523d6000602084013e61314c565b606091505b509150915081613188576040517fdbff5fe000000000000000000000000000000000000000000000000000000000815260040160405180910390fd5b60008180602001905181019061319e9190615175565b9096509050808811156131d3576131b58189615162565b84519095506131ce906001600160a01b0316888761450a565b61320c565b80881461320c576040517f2cd294cf00000000000000000000000000000000000000000000000000000000815260040160405180910390fd5b505050505b9550959350505050565b60cb5460ca546040517f91d14854000000000000000000000000000000000000000000000000000000008152600481018390523360248201526001600160a01b03909116906391d1485490604401602060405180830381865afa158015613286573d6000803e3d6000fd5b505050506040513d601f19601f820116820180604052508101906132aa9190614f4e565b611298576040517fcb783f0600000000000000000000000000000000000000000000000000000000815260040160405180910390fd5b7f4910fdfa16fed3260ed0e7147f7cc6da11a60208b5b9406d12a635614ffd91435460ff16156133135761110983614553565b826001600160a01b03166352d1902d6040518163ffffffff1660e01b8152600401602060405180830381865afa92505050801561336d575060408051601f3d908101601f1916820190925261336a91810190614f6b565b60015b6133df5760405162461bcd60e51b815260206004820152602e60248201527f45524331393637557067726164653a206e657720696d706c656d656e7461746960448201527f6f6e206973206e6f74205555505300000000000000000000000000000000000060648201526084016108b5565b7f360894a13ba1a3210667c828492db98dca3e2076cc3735a920a3ca505d382bbc81146134745760405162461bcd60e51b815260206004820152602960248201527f45524331393637557067726164653a20756e737570706f727465642070726f7860448201527f6961626c6555554944000000000000000000000000000000000000000000000060648201526084016108b5565b50611109838383614629565b61348861464e565b603380547fffffffffffffffffffffffffffffffffffffffffffffffffffffffffffffff001690557f5db9ee0a495bf2e6ff9c91a7834c1ba4fdd244a5e8aa4e537bd38aeae4b073aa335b6040516001600160a01b03909116815260200160405180910390a1565b60335460ff16156135435760405162461bcd60e51b815260206004820152601060248201527f5061757361626c653a207061757365640000000000000000000000000000000060448201526064016108b5565b565b6040516001600160a01b03808516602483015283166044820152606481018290526135f69085907f23b872dd00000000000000000000000000000000000000000000000000000000906084015b60408051601f198184030181529190526020810180517bffffffffffffffffffffffffffffffffffffffffffffffffffffffff167fffffffff00000000000000000000000000000000000000000000000000000000909316929092179091526146a0565b50505050565b600054610100900460ff166136795760405162461bcd60e51b815260206004820152602b60248201527f496e697469616c697a61626c653a20636f6e7472616374206973206e6f74206960448201527f6e697469616c697a696e6700000000000000000000000000000000000000000060648201526084016108b5565b613543614788565b6000806000846001600160a01b03166318160ddd6040518163ffffffff1660e01b8152600401602060405180830381865afa1580156136c4573d6000803e3d6000fd5b505050506040513d601f19601f820116820180604052508101906136e89190614f6b565b905080856001600160a01b0316630dfe16816040518163ffffffff1660e01b8152600401602060405180830381865afa158015613729573d6000803e3d6000fd5b505050506040513d601f19601f8201168201806040525081019061374d9190614e88565b6040517f70a082310000000000000000000000000000000000000000000000000000000081526001600160a01b03888116600483015291909116906370a0823190602401602060405180830381865afa1580156137ae573d6000803e3d6000fd5b505050506040513d601f19601f820116820180604052508101906137d29190614f6b565b6137dc90866152f8565b6137e6919061530f565b925080856001600160a01b031663d21220a76040518163ffffffff1660e01b8152600401602060405180830381865afa158015613827573d6000803e3d6000fd5b505050506040513d601f19601f8201168201806040525081019061384b9190614e88565b6040517f70a082310000000000000000000000000000000000000000000000000000000081526001600160a01b03888116600483015291909116906370a0823190602401602060405180830381865afa1580156138ac573d6000803e3d6000fd5b505050506040513d601f19601f820116820180604052508101906138d09190614f6b565b6138da90866152f8565b6138e4919061530f565b9150509250929050565b6040517f095ea7b300000000000000000000000000000000000000000000000000000000815273a062ae8a9c5e11aaa026fc2670b0d65ccc8b2858600482015260248101869052600090819081906001600160a01b038c169063095ea7b3906044016020604051808303816000875af115801561396f573d6000803e3d6000fd5b505050506040513d601f19601f820116820180604052508101906139939190614f4e565b506040517f095ea7b300000000000000000000000000000000000000000000000000000000815273a062ae8a9c5e11aaa026fc2670b0d65ccc8b28586004820152602481018890526001600160a01b038b169063095ea7b3906044016020604051808303816000875af1158015613a0e573d6000803e3d6000fd5b505050506040513d601f19601f82011682018060405250810190613a329190614f4e565b506040517f5a47ddc30000000000000000000000000000000000000000000000000000000081526001600160a01b03808d166004830152808c1660248301528a15156044830152606482018a90526084820189905260a4820188905260c48201879052851660e48201524261010482015273a062ae8a9c5e11aaa026fc2670b0d65ccc8b285890635a47ddc390610124016060604051808303816000875af1158015613ae2573d6000803e3d6000fd5b505050506040513d601f19601f82011682018060405250810190613b06919061534a565b9194509250905082881115613b3457613b3433613b23858b615162565b6001600160a01b038e16919061450a565b81871115613b5b57613b5b33613b4a848a615162565b6001600160a01b038d16919061450a565b985098509895505050505050565b613b716134f0565b603380547fffffffffffffffffffffffffffffffffffffffffffffffffffffffffffffff001660011790557f62e78cea01bee320cd4e420270b5ea74000d11b0c9f74754ebdbfc544b05a2586134d33390565b600080613bd18380614ed4565b613bdf916004908290615199565b810190613bec91906151c3565b5080519092506001600160a01b031615905080613c26575080516001600160a01b031673eeeeeeeeeeeeeeeeeeeeeeeeeeeeeeeeeeeeeeee145b15613c3357806080015191505b6000613c426020850185614ed4565b613c50916004908290615199565b810190613c5d91906151c3565b5080519092506001600160a01b031615905080613c97575080516001600160a01b031673eeeeeeeeeeeeeeeeeeeeeeeeeeeeeeeeeeeeeeee145b15613cae576080810151613cab9084615378565b92505b8234146135f6576040517f4918fa8400000000000000000000000000000000000000000000000000000000815260040160405180910390fd5b6000808080613cf9866004818a615199565b810190613d0691906151c3565b509150508060a001519150846001600160a01b031681600001516001600160a01b031603613d9a578060800151600003613d6c576040517f6ed4586400000000000000000000000000000000000000000000000000000000815260040160405180910390fd5b60808101518151613d8c916001600160a01b039091169033903090613545565b608001519250829150614138565b7f12aa3caf00000000000000000000000000000000000000000000000000000000613dc960046000898b615199565b613dd2916152a0565b7fffffffff0000000000000000000000000000000000000000000000000000000016141580613e175750846001600160a01b031681602001516001600160a01b031614155b80613e2457506080810151155b80613e3c575060608101516001600160a01b03163014155b15613e73576040517f6ed4586400000000000000000000000000000000000000000000000000000000815260040160405180910390fd5b80516000906001600160a01b03161580613eaa575081516001600160a01b031673eeeeeeeeeeeeeeeeeeeeeeeeeeeeeeeeeeeeeeee145b905080613f7a5760808201518251613ed1916001600160a01b039091169033903090613545565b815160808301516040517f095ea7b3000000000000000000000000000000000000000000000000000000008152731111111254eeb25477b68fb85ed929f73a960582600482015260248101919091526001600160a01b039091169063095ea7b3906044016020604051808303816000875af1158015613f54573d6000803e3d6000fd5b505050506040513d601f19601f82011682018060405250810190613f789190614f4e565b505b600081613f88576000613f8e565b82608001515b9050600080731111111254eeb25477b68fb85ed929f73a9605826001600160a01b0316838c8c604051613fc29291906152e8565b60006040518083038185875af1925050503d8060008114613fff576040519150601f19603f3d011682016040523d82523d6000602084013e614004565b606091505b509150915081614040576040517fdbff5fe000000000000000000000000000000000000000000000000000000000815260040160405180910390fd5b808060200190518101906140549190615175565b8098508199505050505050838260800151111561413557801561410f576000336001600160a01b031685846080015161408d9190615162565b604051600081818185875af1925050503d80600081146140c9576040519150601f19603f3d011682016040523d82523d6000602084013e6140ce565b606091505b5050905080614109576040517f125bf52700000000000000000000000000000000000000000000000000000000815260040160405180910390fd5b50614135565b614135338584608001516141239190615162565b84516001600160a01b0316919061450a565b50505b93509350939050565b6040517f095ea7b300000000000000000000000000000000000000000000000000000000815273a062ae8a9c5e11aaa026fc2670b0d65ccc8b285860048201526024810185905260009081906001600160a01b0389169063095ea7b3906044016020604051808303816000875af11580156141c0573d6000803e3d6000fd5b505050506040513d601f19601f820116820180604052508101906141e49190614f4e565b5073a062ae8a9c5e11aaa026fc2670b0d65ccc8b28586001600160a01b031663d7b0e0a5888a6001600160a01b03166322be3de16040518163ffffffff1660e01b8152600401602060405180830381865afa158015614247573d6000803e3d6000fd5b505050506040513d601f19601f8201168201806040525081019061426b9190614f4e565b6040517fffffffff0000000000000000000000000000000000000000000000000000000060e085901b1681526001600160a01b0392831660048201529015156024820152604481018a9052606481018990526084810188905290861660a48201524260c482015260e40160408051808303816000875af11580156142f3573d6000803e3d6000fd5b505050506040513d601f19601f820116820180604052508101906143179190615175565b90999098509650505050505050565b6040517f095ea7b300000000000000000000000000000000000000000000000000000000815273a062ae8a9c5e11aaa026fc2670b0d65ccc8b2858600482015260248101859052600090819081906001600160a01b038a169063095ea7b3906044016020604051808303816000875af11580156143a7573d6000803e3d6000fd5b505050506040513d601f19601f820116820180604052508101906143cb9190614f4e565b506040517fb7e0d4c00000000000000000000000000000000000000000000000000000000081526001600160a01b03808b1660048301528915156024830152604482018990526064820188905260848201879052851660a48201524260c482015273a062ae8a9c5e11aaa026fc2670b0d65ccc8b28589063b7e0d4c090349060e40160606040518083038185885af115801561446b573d6000803e3d6000fd5b50505050506040513d601f19601f82011682018060405250810190614490919061534a565b91945092509050828711156144be576144be336144ad858a615162565b6001600160a01b038c16919061450a565b813411156144fe57336108fc6144d48434615162565b6040518115909202916000818181858888f193505050501580156144fc573d6000803e3d6000fd5b505b96509650969350505050565b6040516001600160a01b0383166024820152604481018290526111099084907fa9059cbb0000000000000000000000000000000000000000000000000000000090606401613592565b6001600160a01b0381163b6145d05760405162461bcd60e51b815260206004820152602d60248201527f455243313936373a206e657720696d706c656d656e746174696f6e206973206e60448201527f6f74206120636f6e74726163740000000000000000000000000000000000000060648201526084016108b5565b7f360894a13ba1a3210667c828492db98dca3e2076cc3735a920a3ca505d382bbc80547fffffffffffffffffffffffff0000000000000000000000000000000000000000166001600160a01b0392909216919091179055565b6146328361482f565b60008251118061463f5750805b15611109576135f6838361486f565b60335460ff166135435760405162461bcd60e51b815260206004820152601460248201527f5061757361626c653a206e6f742070617573656400000000000000000000000060448201526064016108b5565b60006146f5826040518060400160405280602081526020017f5361666545524332303a206c6f772d6c6576656c2063616c6c206661696c6564815250856001600160a01b031661489d9092919063ffffffff16565b90508051600014806147165750808060200190518101906147169190614f4e565b6111095760405162461bcd60e51b815260206004820152602a60248201527f5361666545524332303a204552433230206f7065726174696f6e20646964206e60448201527f6f7420737563636565640000000000000000000000000000000000000000000060648201526084016108b5565b600054610100900460ff166148055760405162461bcd60e51b815260206004820152602b60248201527f496e697469616c697a61626c653a20636f6e7472616374206973206e6f74206960448201527f6e697469616c697a696e6700000000000000000000000000000000000000000060648201526084016108b5565b603380547fffffffffffffffffffffffffffffffffffffffffffffffffffffffffffffff00169055565b61483881614553565b6040516001600160a01b038216907fbc7cd75a20ee27fd9adebab32041f755214dbc6bffa90cc0225b39da2e5c2d3b90600090a250565b606061489483836040518060600160405280602781526020016153ff602791396148b6565b90505b92915050565b60606148ac848460008561492e565b90505b9392505050565b6060600080856001600160a01b0316856040516148d391906153af565b600060405180830381855af49150503d806000811461490e576040519150601f19603f3d011682016040523d82523d6000602084013e614913565b606091505b509150915061492486838387614a22565b9695505050505050565b6060824710156149a65760405162461bcd60e51b815260206004820152602660248201527f416464726573733a20696e73756666696369656e742062616c616e636520666f60448201527f722063616c6c000000000000000000000000000000000000000000000000000060648201526084016108b5565b600080866001600160a01b031685876040516149c291906153af565b60006040518083038185875af1925050503d80600081146149ff576040519150601f19603f3d011682016040523d82523d6000602084013e614a04565b606091505b5091509150614a1587838387614a22565b925050505b949350505050565b60608315614a91578251600003614a8a576001600160a01b0385163b614a8a5760405162461bcd60e51b815260206004820152601d60248201527f416464726573733a2063616c6c20746f206e6f6e2d636f6e747261637400000060448201526064016108b5565b5081614a1a565b614a1a8383815115614aa65781518083602001fd5b8060405162461bcd60e51b81526004016108b591906153cb565b6001600160a01b03811681146109ba57600080fd5b806040810183101561489757600080fd5b60008060008060808587031215614afc57600080fd5b8435614b0781614ac0565b935060208501359250604085013567ffffffffffffffff811115614b2a57600080fd5b614b3687828801614ad5565b9250506060850135614b4781614ac0565b939692955090935050565b600060208284031215614b6457600080fd5b81356148af81614ac0565b6020808252825182820181905260009190848201906040850190845b81811015614bb05783516001600160a01b031683529284019291840191600101614b8b565b50909695505050505050565b600080600060608486031215614bd157600080fd5b8335614bdc81614ac0565b9250602084013591506040840135614bf381614ac0565b809150509250925092565b60008060408385031215614c1157600080fd5b8235614c1c81614ac0565b91506020830135614c2c81614ac0565b809150509250929050565b7f4e487b7100000000000000000000000000000000000000000000000000000000600052604160045260246000fd5b60405160e0810167ffffffffffffffff81118282101715614c8957614c89614c37565b60405290565b600082601f830112614ca057600080fd5b813567ffffffffffffffff80821115614cbb57614cbb614c37565b604051601f8301601f19908116603f01168101908282118183101715614ce357614ce3614c37565b81604052838152866020858801011115614cfc57600080fd5b836020870160208301376000602085830101528094505050505092915050565b60008060408385031215614d2f57600080fd5b8235614d3a81614ac0565b9150602083013567ffffffffffffffff811115614d5657600080fd5b6138e485828601614c8f565b60008060008060008060c08789031215614d7b57600080fd5b8635614d8681614ac0565b95506020870135945060408701359350606087013592506080870135915060a0870135614db281614ac0565b809150509295509295509295565b600060208284031215614dd257600080fd5b5035919050565b600080600060608486031215614dee57600080fd5b8335614df981614ac0565b9250602084013567ffffffffffffffff811115614e1557600080fd5b614e2186828701614ad5565b9250506040840135614bf381614ac0565b600080600080600060a08688031215614e4a57600080fd5b8535614e5581614ac0565b94506020860135935060408601359250606086013591506080860135614e7a81614ac0565b809150509295509295909350565b600060208284031215614e9a57600080fd5b81516148af81614ac0565b7f4e487b7100000000000000000000000000000000000000000000000000000000600052603260045260246000fd5b60008083357fffffffffffffffffffffffffffffffffffffffffffffffffffffffffffffffe1843603018112614f0957600080fd5b83018035915067ffffffffffffffff821115614f2457600080fd5b602001915036819003821315614f3957600080fd5b9250929050565b80151581146109ba57600080fd5b600060208284031215614f6057600080fd5b81516148af81614f40565b600060208284031215614f7d57600080fd5b5051919050565b606080825260009060a0830183820186845b600281101561510b577fffffffffffffffffffffffffffffffffffffffffffffffffffffffffffffffa087850301835281357fffffffffffffffffffffffffffffffffffffffffffffffffffffffffffffffa18a3603018112614ff857600080fd5b8901803585526020808201358187015285870190604080840135368590037fffffffffffffffffffffffffffffffffffffffffffffffffffffffffffffffe101811261504357600080fd5b90930181810193903567ffffffffffffffff81111561506157600080fd5b8060071b360385131561507357600080fd5b8882018a90529283905260809283890160005b828110156150f357863561509981614ac0565b6001600160a01b03908116835287860135906150b482614ac0565b9081168387015287850135906150c982614f40565b90151583860152878d0135906150de82614ac0565b16828d01529585019590850190600101615086565b50985050509485019493909301925050600101614f96565b50505080925050506148af602083018480516001600160a01b03168252602090810151910152565b7f4e487b7100000000000000000000000000000000000000000000000000000000600052601160045260246000fd5b8181038181111561489757614897615133565b6000806040838503121561518857600080fd5b505080516020909101519092909150565b600080858511156151a957600080fd5b838611156151b657600080fd5b5050820193919092039150565b60008060008385036101208112156151da57600080fd5b84356151e581614ac0565b935060e0601f19820112156151f957600080fd5b50615202614c66565b602085013561521081614ac0565b8152604085013561522081614ac0565b6020820152606085013561523381614ac0565b6040820152608085013561524681614ac0565b8060608301525060a0850135608082015260c085013560a082015260e085013560c08201528092505061010084013567ffffffffffffffff81111561528a57600080fd5b61529686828701614c8f565b9150509250925092565b7fffffffff0000000000000000000000000000000000000000000000000000000081358181169160048510156152e05780818660040360031b1b83161692505b505092915050565b8183823760009101908152919050565b808202811582820484141761489757614897615133565b600082615345577f4e487b7100000000000000000000000000000000000000000000000000000000600052601260045260246000fd5b500490565b60008060006060848603121561535f57600080fd5b8351925060208401519150604084015190509250925092565b8082018082111561489757614897615133565b60005b838110156153a657818101518382015260200161538e565b50506000910152565b600082516153c181846020870161538b565b9190910192915050565b60208152600082518060208401526153ea81604085016020870161538b565b601f01601f1916919091016040019291505056fe416464726573733a206c6f772d6c6576656c2064656c65676174652063616c6c206661696c6564a2646970667358221220842b47f98c8e361dcc5c065592f2d2e912f2ca1470e73542fa7ab9e63b287a8664736f6c63430008130033",
  "immutableReferences": {
    "564": [
      {
        "length": 32,
        "start": 2085
      },
      {
        "length": 32,
        "start": 2240
      },
      {
        "length": 32,
        "start": 4376
      },
      {
        "length": 32,
        "start": 4526
      },
      {
        "length": 32,
        "start": 5068
      }
    ]
  },
  "source": "// SPDX-License-Identifier: MIT\r\npragma solidity 0.8.19;\r\n\r\nimport '../apps/velodrome/interfaces/IUnoAssetRouterVelodrome.sol'; \r\nimport '../interfaces/IUnoFarm.sol';\r\nimport \"../interfaces/IAggregationRouterV5.sol\";\r\nimport \"../interfaces/IRouter.sol\";\r\nimport \"../interfaces/IPool.sol\";\r\nimport \"@openzeppelin/contracts-upgradeable/proxy/utils/Initializable.sol\";\r\nimport \"@openzeppelin/contracts/token/ERC20/utils/SafeERC20.sol\";\r\nimport \"@openzeppelin/contracts-upgradeable/security/PausableUpgradeable.sol\";\r\nimport \"@openzeppelin/contracts-upgradeable/proxy/utils/UUPSUpgradeable.sol\";\r\n\r\ncontract UnoAssetRouterVelodromeV2 is Initializable, PausableUpgradeable, UUPSUpgradeable, IUnoAssetRouterVelodrome {\r\n\tusing SafeERC20 for IERC20;\r\n\r\n\t/**\r\n\t * @dev Contract Variables:\r\n\t * farmFactory - The contract that deploys new Farms and links them to {lpPair}s.\r\n\t * accessManager - Role manager contract.\r\n\t */\r\n\tIUnoFarmFactory public farmFactory;\r\n\tIUnoAccessManager public accessManager;\r\n\r\n\tbytes32 private constant DISTRIBUTOR_ROLE = keccak256(\"DISTRIBUTOR_ROLE\");\r\n\tbytes32 private constant PAUSER_ROLE = keccak256(\"PAUSER_ROLE\");\r\n\tbytes32 private ADMIN_ROLE;\r\n\r\n\tuint256 public fee;\r\n\r\n\taddress public constant WETH = 0x4200000000000000000000000000000000000006;\r\n\tIRouter private constant VelodromeRouter = IRouter(0xa062aE8A9c5e11aaA026fc2670B0D65cCc8B2858);\r\n    address private constant OneInchRouter = 0x1111111254EEB25477B68fb85Ed929f73A960582;\r\n\r\n    uint256 public constant version = 2;\r\n\r\n\tmodifier onlyRole(bytes32 role) {\r\n\t\tif(!accessManager.hasRole(role, msg.sender)) revert CALLER_NOT_AUTHORIZED();\r\n\t\t_;\r\n\t}\r\n\r\n\t// ============ Methods ============\r\n\r\n\t/// @custom:oz-upgrades-unsafe-allow constructor\r\n\tconstructor() {\r\n\t\t_disableInitializers();\r\n\t}\r\n\r\n\tfunction initialize(address _accessManager, address _farmFactory) external initializer {\r\n        if(_accessManager == address(0)) revert INVALID_ACCESS_MANAGER();\r\n        if(_farmFactory == address(0)) revert INVALID_FARM_FACTORY();\r\n\r\n\t\t__Pausable_init();\r\n\r\n\t\taccessManager = IUnoAccessManager(_accessManager);\r\n\t\tADMIN_ROLE = accessManager.ADMIN_ROLE();\r\n\t\tfarmFactory = IUnoFarmFactory(_farmFactory);\r\n\t}\r\n\r\n\treceive() external payable {\r\n\t\t//Reject deposits from EOA\r\n        if (msg.sender == tx.origin) revert ETH_DEPOSIT_REJECTED();\r\n\t}\r\n\r\n    /**\r\n     * @dev Deposits tokens in the given pool. Creates new Farm contract if there isn't one deployed for the {lpPair} and deposits tokens in it. Emits a {Deposit} event.\r\n     * @param lpPair - Address of the pool to deposit tokens in.\r\n     * @param amountA  - Token A amount to deposit.\r\n     * @param amountB -  Token B amount to deposit.\r\n     * @param amountAMin - Bounds the extent to which the B/A price can go up before the transaction reverts.\r\n     * @param amountBMin - Bounds the extent to which the A/B price can go up before the transaction reverts.\r\n     * @param recipient - Address which will receive the deposit.\r\n     \r\n     * @return sentA - Token A amount sent to the farm.\r\n     * @return sentB - Token B amount sent to the farm.\r\n     * @return liquidity - Total liquidity sent to the farm (in lpTokens).\r\n     */\r\n    function deposit(address lpPair, uint256 amountA, uint256 amountB, uint256 amountAMin, uint256 amountBMin, address recipient) external whenNotPaused returns(uint256 sentA, uint256 sentB, uint256 liquidity){\r\n        if(amountA == 0 || amountB == 0) revert NO_TOKENS_SENT();\r\n        Farm farm = Farm(farmFactory.Farms(lpPair));\r\n        if(farm == Farm(address(0))){\r\n            farm = Farm(farmFactory.createFarm(lpPair));\r\n        }\r\n\r\n        address tokenA = farm.tokenA();\r\n        address tokenB = farm.tokenB();\r\n        IERC20(tokenA).safeTransferFrom(msg.sender, address(this), amountA);\r\n        IERC20(tokenB).safeTransferFrom(msg.sender, address(this), amountB);\r\n\r\n        (sentA, sentB, liquidity) = _addLiquidity(tokenA, tokenB, farm.isStable(), amountA, amountB, amountAMin, amountBMin, address(farm));\r\n        farm.deposit(liquidity, recipient);\r\n\r\n        emit Deposit(lpPair, msg.sender, recipient, liquidity); \r\n    }\r\n\r\n    /**\r\n     * @dev Autoconverts MATIC into WAVAX and deposits tokens in the given pool. Creates new Farm contract if there isn't one deployed for the {lpStakingPool} and deposits tokens in it. Emits a {Deposit} event.\r\n     * @param lpPair - Address of the pool to deposit tokens in.\r\n     * @param amountToken  - Token amount to deposit.\r\n     * @param amountTokenMin - Bounds the extent to which the TOKEN/WAVAX price can go up before the transaction reverts.\r\n     * @param amountETHMin - Bounds the extent to which the WAVAX/TOKEN price can go up before the transaction reverts.\r\n     * @param recipient - Address which will receive the deposit.\r\n     \r\n     * @return sentToken - Token amount sent to the farm.\r\n     * @return sentETH - WAVAX amount sent to the farm.\r\n     * @return liquidity - Total liquidity sent to the farm (in lpTokens).\r\n     */\r\n    function depositETH(address lpPair, uint256 amountToken, uint256 amountTokenMin, uint256 amountETHMin, address recipient) external payable whenNotPaused returns(uint256 sentToken, uint256 sentETH, uint256 liquidity){\r\n        if(msg.value == 0 || amountToken == 0) revert NO_TOKENS_SENT();\r\n        Farm farm = Farm(farmFactory.Farms(lpPair));\r\n        if(farm == Farm(address(0))){\r\n            farm = Farm(farmFactory.createFarm(lpPair));\r\n        }\r\n\r\n        address tokenA = farm.tokenA();\r\n        address tokenB = farm.tokenB();\r\n        if (tokenA == WETH) {\r\n            IERC20(tokenB).safeTransferFrom(msg.sender, address(this), amountToken);\r\n            (sentToken, sentETH, liquidity) = _addLiquidityETH(tokenB, farm.isStable(), amountToken, amountTokenMin, amountETHMin, address(farm));\r\n        } else if (tokenB == WETH) {\r\n            IERC20(tokenA).safeTransferFrom(msg.sender, address(this), amountToken);\r\n            (sentToken, sentETH, liquidity) = _addLiquidityETH(tokenA, farm.isStable(), amountToken, amountTokenMin, amountETHMin, address(farm));\r\n        } else revert NOT_ETH_FARM();\r\n\r\n        farm.deposit(liquidity, recipient);\r\n\r\n        emit Deposit(lpPair, msg.sender, recipient, liquidity);\r\n    }\r\n\r\n    /**\r\n     * @dev Deposits any tokens in the given pool by swapping them using 1inch. Creates new Farm contract if there isn't one deployed for the {lpPair}, swaps {token} for pool tokens and deposits them. Emits a {Deposit} event.\r\n     * @param lpPair - Address of the pool to deposit tokens in.\r\n     * @param swapData - Parameters with which 1inch router is being called with.\r\n     * @param recipient - Address which will receive the deposit.\r\n     \r\n     * @return sent0 - Tokens sent to the farm from the {swapData[0]}.\r\n     * @return sent1 - Tokens sent to the farm from the {swapData[1]}.\r\n     * @return dustA - TokenA dust sent to the {msg.sender}.\r\n     * @return dustB - TokenB dust sent to the {msg.sender}.\r\n     * @return liquidity - Total liquidity sent to the farm (in lpTokens).\r\n     */\r\n    function depositWithSwap(address lpPair, bytes[2] calldata swapData, address recipient) external payable whenNotPaused returns(uint256 sent0, uint256 sent1, uint256 dustA, uint256 dustB, uint256 liquidity){\r\n        Farm farm = Farm(farmFactory.Farms(lpPair));\r\n        if(farm == Farm(address(0))){\r\n            farm = Farm(farmFactory.createFarm(lpPair));\r\n        }\r\n\r\n        _checkMsgValue(swapData);\r\n        \r\n        {\r\n        address tokenA = farm.tokenA();\r\n        address tokenB = farm.tokenB();\r\n\r\n        uint256 amountA; uint256 amountAMin;\r\n        uint256 amountB; uint256 amountBMin;\r\n        (amountA, sent0, amountAMin) = _swapDeposit(swapData[0], IERC20(tokenA));\r\n        (amountB, sent1, amountBMin) = _swapDeposit(swapData[1], IERC20(tokenB));\r\n\r\n        // Variable naming is not correct, however I have to do it this way to avoid Stack too deep error.\r\n        (amountAMin, amountBMin, liquidity) = _addLiquidity(tokenA, tokenB, farm.isStable(), amountA, amountB, amountAMin, amountBMin, address(farm));\r\n        farm.deposit(liquidity, recipient);\r\n        \r\n        if(amountA > amountAMin){\r\n            dustA = amountA - amountAMin;\r\n        }\r\n        if(amountB > amountBMin){\r\n            dustB = amountB - amountBMin;\r\n        }\r\n        }\r\n\r\n        emit Deposit(lpPair, msg.sender, recipient, liquidity);\r\n    }\r\n\r\n    /**\r\n     * @dev Deposits tokens in the given pool. Creates new Farm contract if there isn't one deployed for the {lpPair} and deposits tokens in it. Emits a {Deposit} event.\r\n     * @param lpPair - Address of the pool to deposit tokens in.\r\n     * @param amount - LP Token amount to deposit.\r\n     * @param recipient - Address which will receive the deposit.\r\n     */\r\n    function depositLP(address lpPair, uint256 amount, address recipient) external whenNotPaused{\r\n        if(amount == 0) revert NO_TOKENS_SENT();\r\n        Farm farm = Farm(farmFactory.Farms(lpPair));\r\n        if(farm == Farm(address(0))){\r\n            farm = Farm(farmFactory.createFarm(lpPair));\r\n        }\r\n\r\n        IERC20(lpPair).safeTransferFrom(msg.sender, address(farm), amount);\r\n        farm.deposit(amount, recipient);\r\n\r\n        emit Deposit(lpPair, msg.sender, recipient, amount); \r\n    }\r\n\r\n    /** \r\n     * @dev Withdraws a pair of tokens from the given pool. Emits a {Withdraw} event.\r\n     * @param lpPair - LP pool to withdraw from.\r\n     * @param amount - LP amount to withdraw. \r\n     * @param amountAMin - The minimum amount of tokenA that must be received for the transaction not to revert.\r\n     * @param amountBMin - The minimum amount of tokenB that must be received for the transaction not to revert.\r\n     * @param recipient - The address which will receive tokens.\r\n\r\n     * @return amountA - Token A amount sent to the {recipient}\r\n     * @return amountB - Token B amount sent to the {recipient}\r\n     */ \r\n    function withdraw(address lpPair, uint256 amount, uint256 amountAMin, uint256 amountBMin, address recipient) external returns(uint256 amountA, uint256 amountB){\r\n        Farm farm = Farm(farmFactory.Farms(lpPair));\r\n        if(farm == Farm(address(0))) revert FARM_NOT_EXISTS();\r\n\r\n        farm.withdraw(amount, msg.sender, address(this));\r\n        (amountA, amountB) = _removeLiquidity(lpPair, farm.tokenA(), farm.tokenB(), amount, amountAMin, amountBMin, recipient);\r\n        \r\n        emit Withdraw(lpPair, msg.sender, recipient, amount);  \r\n    }\r\n\r\n    /** \r\n     * @dev Autoconverts WAVAX into MATIC and withdraws tokens from the pool. Emits a {Withdraw} event.\r\n     * @param lpPair - LP pool to withdraw from.\r\n     * @param amount - LP amount to withdraw. \r\n     * @param amountTokenMin - The minimum amount of token that must be received for the transaction not to revert.\r\n     * @param amountETHMin - The minimum amount of MATIC that must be received for the transaction not to revert.\r\n     * @param recipient - The address which will receive tokens.\r\n\r\n     * @return amountToken - Token amount sent to the {recipient}.\r\n     * @return amountETH - MATIC amount sent to the {recipient}.\r\n     */ \r\n    function withdrawETH(address lpPair, uint256 amount, uint256 amountTokenMin, uint256 amountETHMin, address recipient) external returns(uint256 amountToken, uint256 amountETH){\r\n        Farm farm = Farm(farmFactory.Farms(lpPair));\r\n        if(farm == Farm(address(0))) revert FARM_NOT_EXISTS();\r\n\r\n        address tokenA = farm.tokenA();\r\n        address tokenB = farm.tokenB();\r\n\r\n        farm.withdraw(amount, msg.sender, address(this));\r\n        if (tokenA == WETH) {\r\n            (amountToken, amountETH) = _removeLiquidityETH(lpPair, tokenB, amount, amountTokenMin, amountETHMin, recipient);\r\n        } else if (tokenB == WETH) {\r\n            (amountToken, amountETH) = _removeLiquidityETH(lpPair, tokenA, amount, amountTokenMin, amountETHMin, recipient);\r\n        } else revert NOT_ETH_FARM();\r\n\r\n        emit Withdraw(lpPair, msg.sender, recipient, amount);\r\n    }\r\n\r\n    /**\r\n     * @dev Withdraws tokens from the given pool and swap them using 1inch. Emits a {Withdraw} event. Note: If there are any tokens left to be withdrawn after swaps they will be sent to the {{recipient}} in a respective token.\r\n     * @param lpPair - LP pool to withdraw from.\r\n     * @param amount - LP amount to withdraw. \r\n     * @param swapData - Parameters with which 1inch router is being called with.\r\n     * @param recipient - The address which will receive tokens.\r\n     \r\n     * @return amount0 - Tokens sent to the {recipient} from the {swapData[0]}.\r\n     * @return amount1 - Tokens sent to the {recipient} from the {swapData[1]}.\r\n     * @return amountA - TokenA dust sent to the {recipient}.\r\n     * @return amountB - TokenB dust to the {recipient}.\r\n     */\r\n    function withdrawWithSwap(address lpPair, uint256 amount, bytes[2] calldata swapData, address recipient) external returns(uint256 amount0, uint256 amount1, uint256 amountA, uint256 amountB){\r\n        Farm farm = Farm(farmFactory.Farms(lpPair));\r\n        if(farm == Farm(address(0))) revert FARM_NOT_EXISTS();\r\n\r\n        farm.withdraw(amount, msg.sender, address(this));\r\n\r\n        address tokenA = farm.tokenA();\r\n        address tokenB = farm.tokenB();\r\n        (uint256 _amountA, uint256 _amountB) = _removeLiquidity(lpPair, tokenA, tokenB, amount, 0, 0, address(this));\r\n        \r\n        (amount0, amountA) = _swapWithdraw(swapData[0], IERC20(tokenA), _amountA, recipient);\r\n        (amount1, amountB) = _swapWithdraw(swapData[1], IERC20(tokenB), _amountB, recipient);\r\n\r\n        emit Withdraw(lpPair, msg.sender, recipient, amount);\r\n    }\r\n\r\n    /** \r\n     * @dev Withdraws LP tokens from the given pool. Emits a {Withdraw} event.\r\n     * @param lpPair - LP pool to withdraw from.\r\n     * @param amount - LP amount to withdraw. \r\n     * @param recipient - The address which will receive tokens.\r\n     */ \r\n    function withdrawLP(address lpPair, uint256 amount, address recipient) external {\r\n        Farm farm = Farm(farmFactory.Farms(lpPair));\r\n        if(farm == Farm(address(0))) revert FARM_NOT_EXISTS();\r\n        \r\n        farm.withdraw(amount, msg.sender, recipient);\r\n        emit Withdraw(lpPair, msg.sender, recipient, amount);  \r\n    }\r\n\r\n    /**\r\n     * @dev Distributes tokens between users.\r\n     * @param lpPair - LP pool to distribute tokens in.\r\n     * @param swapInfos - Arrays of structs with token arrays describing swap routes (rewardTokenToTokenA, rewardTokenToTokenB, rewarderTokenToTokenA, rewarderTokenToTokenB) and minimum amounts of output tokens that must be received for the transaction not to revert.\r\n     * @param feeTo - Address to collect fees to.\r\n     *\r\n     * Note: This function can only be called by the distributor.\r\n     */ \r\n    function distribute(\r\n        address lpPair,\r\n        Farm.SwapInfo[2] calldata swapInfos,\r\n        address feeTo\r\n    ) external whenNotPaused onlyRole(DISTRIBUTOR_ROLE) returns(uint256 reward){\r\n        Farm farm = Farm(farmFactory.Farms(lpPair));\r\n        if(farm == Farm(address(0))) revert FARM_NOT_EXISTS();\r\n\r\n        //I don't understand why the definition for FeeInfo can not be imported from Farm\r\n        reward = farm.distribute(swapInfos, IUnoFarm.FeeInfo(feeTo, fee));\r\n        emit Distribute(lpPair, reward);\r\n    }\r\n\r\n    /**\r\n     * @dev Returns tokens staked by the {_address} for the given {lpPair}.\r\n     * @param _address - The address to check stakes for.\r\n     * @param lpPair - LP pool to check stakes in.\r\n\r\n     * @return stakeLP - Total user stake(in LP tokens).\r\n     * @return stakeA - Token A stake.\r\n     * @return stakeB - Token B stake.\r\n     */\r\n    function userStake(address _address, address lpPair) external view returns (uint256 stakeLP, uint256 stakeA, uint256 stakeB) {\r\n        Farm farm = Farm(farmFactory.Farms(lpPair));\r\n        if (farm != Farm(address(0))) {\r\n            stakeLP = farm.userBalance(_address);\r\n            (stakeA, stakeB) = _getTokenStake(lpPair, stakeLP);\r\n        }\r\n    }\r\n\r\n    /**\r\n     * @dev Returns total amount locked in the pool. Doesn't take pending rewards into account.\r\n     * @param lpPair - LP pool to check total deposits in.\r\n\r\n     * @return totalDepositsLP - Total deposits (in LP tokens).\r\n     * @return totalDepositsA - Token A deposits.\r\n     * @return totalDepositsB - Token B deposits.\r\n     */  \r\n    function totalDeposits(address lpPair) external view returns (uint256 totalDepositsLP, uint256 totalDepositsA, uint256 totalDepositsB) {\r\n        Farm farm = Farm(farmFactory.Farms(lpPair));\r\n        if (farm != Farm(address(0))) {\r\n            totalDepositsLP = farm.getTotalDeposits();\r\n            (totalDepositsA, totalDepositsB) = _getTokenStake(lpPair, totalDepositsLP);\r\n        }\r\n    }\r\n\r\n    /**\r\n     * @dev Returns addresses of tokens in {lpPair}.\r\n     * @param lpPair - LP pair to check tokens in.\r\n\r\n     * @return tokens - Tokens addresses.\r\n     */  \r\n    function getTokens(address lpPair) external view returns(IERC20[] memory tokens){\r\n        tokens = new IERC20[](2);\r\n        tokens[0] = IERC20(IPool(lpPair).token0());\r\n        tokens[1] = IERC20(IPool(lpPair).token1());\r\n    }\r\n\r\n    /**\r\n     * @dev Deposits assets to router & refunds dust.\r\n     */ \r\n    function _addLiquidity(\r\n        address tokenA,\r\n        address tokenB, \r\n        bool isStable,\r\n        uint256 amountA, \r\n        uint256 amountB, \r\n        uint256 amountAMin, \r\n        uint256 amountBMin, \r\n        address farm\r\n    ) internal returns(uint256 sentA, uint256 sentB, uint256 liquidity){\r\n        IERC20(tokenA).approve(address(VelodromeRouter), amountA);\r\n        IERC20(tokenB).approve(address(VelodromeRouter), amountB);\r\n\r\n        (sentA, sentB, liquidity) = VelodromeRouter.addLiquidity(tokenA, tokenB, isStable, amountA, amountB, amountAMin, amountBMin, farm, block.timestamp);\r\n        // Refund dust\r\n        if(amountA > sentA){\r\n            IERC20(tokenA).safeTransfer(msg.sender, amountA - sentA);\r\n        }\r\n        if(amountB > sentB){\r\n\t\t    IERC20(tokenB).safeTransfer(msg.sender, amountB - sentB);\r\n        }\r\n    }\r\n\r\n    /**\r\n     * @dev Deposits assets to router & refunds dust.\r\n     */ \r\n    function _addLiquidityETH(\r\n        address token,\r\n        bool isStable,\r\n        uint256 amount, \r\n        uint256 amountTokenMin, \r\n        uint256 amountETHMin, \r\n        address farm\r\n    ) internal returns(uint256 sentToken, uint256 sentETH, uint256 liquidity){\r\n        IERC20(token).approve(address(VelodromeRouter), amount);\r\n\r\n        (sentToken, sentETH, liquidity) = VelodromeRouter.addLiquidityETH{value: msg.value}(token, isStable, amount, amountTokenMin, amountETHMin, farm, block.timestamp);\r\n        // Refund dust\r\n        if(amount > sentToken){\r\n            IERC20(token).safeTransfer(msg.sender, amount - sentToken);\r\n        }\r\n        if(msg.value > sentETH){\r\n            payable(msg.sender).transfer(msg.value - sentETH);\r\n        }\r\n    }\r\n\r\n    /**\r\n     * @dev Withdraws assets from router.\r\n     */ \r\n    function _removeLiquidity(\r\n        address lpPair,\r\n        address tokenA,\r\n        address tokenB, \r\n        uint256 amount, \r\n        uint256 amountAMin, \r\n        uint256 amountBMin, \r\n        address recipient\r\n    ) internal returns(uint256 amountA, uint256 amountB){\r\n        IERC20(lpPair).approve(address(VelodromeRouter), amount);\r\n        (amountA, amountB) = VelodromeRouter.removeLiquidity(tokenA, tokenB, IPool(lpPair).stable(), amount, amountAMin, amountBMin, recipient, block.timestamp);\r\n    }\r\n\r\n    /**\r\n     * @dev Withdraws assets from router.\r\n     */ \r\n    function _removeLiquidityETH(\r\n        address lpPair,\r\n        address token,\r\n        uint256 amount, \r\n        uint256 amountTokenMin, \r\n        uint256 amountETHMin, \r\n        address recipient\r\n    ) internal returns(uint256 amountToken, uint256 amountETH){\r\n        IERC20(lpPair).approve(address(VelodromeRouter), amount);\r\n        (amountToken, amountETH) = VelodromeRouter.removeLiquidityETH(token, IPool(lpPair).stable(), amount, amountTokenMin, amountETHMin, recipient, block.timestamp);\r\n    }\r\n\r\n    function _swapDeposit(bytes calldata swapData, IERC20 toToken) internal returns(uint256 returnAmount, uint256 spentAmount, uint256 amountMin){\r\n        (,IAggregationRouterV5.SwapDescription memory desc,) = abi.decode(swapData[4:], (address, IAggregationRouterV5.SwapDescription, bytes));\r\n        \r\n        amountMin = desc.minReturnAmount;\r\n        if(desc.srcToken == toToken){\r\n            if(desc.amount == 0) revert INVALID_SWAP_DESCRIPTION();\r\n            desc.srcToken.safeTransferFrom(msg.sender, address(this), desc.amount);\r\n            return (desc.amount, desc.amount, amountMin);\r\n        }\r\n        \r\n        if(\r\n            bytes4(swapData[:4]) != IAggregationRouterV5.swap.selector || \r\n            desc.dstToken != toToken || \r\n            desc.amount == 0 ||\r\n            desc.dstReceiver != address(this)\r\n        ) revert INVALID_SWAP_DESCRIPTION();\r\n\r\n        bool isETH = (address(desc.srcToken) == address(0) || address(desc.srcToken) == address(0xEeeeeEeeeEeEeeEeEeEeeEEEeeeeEeeeeeeeEEeE));\r\n        if(!isETH){\r\n            desc.srcToken.safeTransferFrom(msg.sender, address(this), desc.amount);\r\n            desc.srcToken.approve(OneInchRouter, desc.amount);\r\n        }\r\n\r\n        {\r\n        uint256 value = isETH ? desc.amount : 0;\r\n        (bool success, bytes memory data) = OneInchRouter.call{value: value}(swapData);\r\n        if(!success) revert SWAP_NOT_SUCCESSFUL();\r\n        (returnAmount, spentAmount) = abi.decode(data, (uint256, uint256));\r\n        }\r\n\r\n        if(desc.amount > spentAmount){\r\n            if(isETH){\r\n                (bool success, ) = msg.sender.call{value: desc.amount - spentAmount}(\"\");\r\n                if(!success) revert TRANSFER_NOT_SUCCESSFUL();\r\n            }else{\r\n                desc.srcToken.safeTransfer(address(msg.sender), desc.amount - spentAmount);\r\n            }\r\n        }\r\n    }\r\n \r\n    function _swapWithdraw(bytes calldata swapData, IERC20 fromToken, uint256 maxAmount, address recipient) internal returns(uint256 returnAmount, uint256 dust){\r\n        (,IAggregationRouterV5.SwapDescription memory desc,) = abi.decode(swapData[4:], (address, IAggregationRouterV5.SwapDescription, bytes));\r\n        \r\n        if(desc.dstToken == fromToken){\r\n            fromToken.safeTransfer(recipient, maxAmount);\r\n            return (maxAmount, 0);\r\n        }\r\n        \r\n        if(\r\n            bytes4(swapData[:4]) != IAggregationRouterV5.swap.selector || \r\n            desc.srcToken != fromToken ||\r\n            desc.amount == 0 ||\r\n            desc.dstReceiver != recipient\r\n        ) revert INVALID_SWAP_DESCRIPTION();\r\n\r\n        desc.srcToken.approve(OneInchRouter, desc.amount);\r\n        (bool success, bytes memory data) = OneInchRouter.call(swapData);\r\n        if(!success) revert SWAP_NOT_SUCCESSFUL();\r\n        uint256 spentAmount;\r\n        (returnAmount, spentAmount) = abi.decode(data, (uint256, uint256));\r\n\r\n        if(maxAmount > spentAmount){\r\n            dust = maxAmount - spentAmount;\r\n            desc.srcToken.safeTransfer(recipient, dust);\r\n        } else if(maxAmount != spentAmount) revert INSUFFICIENT_AMOUNT();\r\n    }\r\n\r\n    function _checkMsgValue(bytes[2] calldata swapData) internal view {\r\n        uint256 value;\r\n\r\n        (,IAggregationRouterV5.SwapDescription memory desc0,) = abi.decode(swapData[0][4:], (address, IAggregationRouterV5.SwapDescription, bytes));\r\n        if(address(desc0.srcToken) == address(0) || address(desc0.srcToken) == address(0xEeeeeEeeeEeEeeEeEeEeeEEEeeeeEeeeeeeeEEeE)){\r\n            value = desc0.amount;\r\n        }\r\n\r\n        (,IAggregationRouterV5.SwapDescription memory desc1,) = abi.decode(swapData[1][4:], (address, IAggregationRouterV5.SwapDescription, bytes));\r\n        if(address(desc1.srcToken) == address(0) || address(desc1.srcToken) == address(0xEeeeeEeeeEeEeeEeEeEeeEEEeeeeEeeeeeeeEEeE)){\r\n            value += desc1.amount;\r\n        }\r\n\r\n        if(msg.value != value) revert INVALID_MSG_VALUE();\r\n    }\r\n\r\n    /**\r\n     * @dev Converts LP tokens to normal tokens, value(amountA) == value(amountB) == 0.5*amountLP\r\n     * @param lpPair - LP pair for conversion.\r\n     * @param amountLP - Amount of LP tokens to convert.\r\n\r\n     * @return amountA - Token A amount.\r\n     * @return amountB - Token B amount.\r\n     */ \r\n    function _getTokenStake(address lpPair, uint256 amountLP) internal view returns (uint256 amountA, uint256 amountB) {\r\n        uint256 totalSupply = IERC20(lpPair).totalSupply();\r\n        amountA = amountLP * IERC20(IPool(lpPair).token0()).balanceOf(lpPair) / totalSupply;\r\n        amountB = amountLP * IERC20(IPool(lpPair).token1()).balanceOf(lpPair) / totalSupply;\r\n    }\r\n\r\n    /**\r\n     * @dev Change fee amount.\r\n     * @param _fee -New fee to collect from farms. [10^18 == 100%]\r\n     *\r\n     * Note: This function can only be called by ADMIN_ROLE.\r\n     */ \r\n    function setFee(uint256 _fee) external onlyRole(ADMIN_ROLE){\r\n        if(_fee > 1 ether) revert MAX_FEE_EXCEEDED(1 ether);\r\n        if(fee != _fee){\r\n            emit FeeChanged(fee, _fee); \r\n            fee = _fee;\r\n        }\r\n    }\r\n \r\n    function pause() external onlyRole(PAUSER_ROLE) {\r\n        _pause();\r\n    }\r\n\r\n    function unpause() external onlyRole(PAUSER_ROLE) {\r\n        _unpause();\r\n    }\r\n\r\n    function _authorizeUpgrade(address) internal override onlyRole(ADMIN_ROLE) {\r\n\r\n    }\r\n}\r\n",
  "sourcePath": "C:\\Users\\jugli\\Desktop\\uno\\uno-contracts-optimism\\contracts\\test\\UnoAssetRouterVelodromeV2.sol",
  "compiler": {
    "name": "solc",
    "version": "0.8.19+commit.7dd6d404.Emscripten.clang"
  },
  "schemaVersion": "3.4.16",
  "updatedAt": "2023-09-29T15:40:25.758Z",
  "devdoc": {
    "events": {
      "AdminChanged(address,address)": {
        "details": "Emitted when the admin account has changed."
      },
      "BeaconUpgraded(address)": {
        "details": "Emitted when the beacon is changed."
      },
      "Initialized(uint8)": {
        "details": "Triggered when the contract has been initialized or reinitialized."
      },
      "Paused(address)": {
        "details": "Emitted when the pause is triggered by `account`."
      },
      "Unpaused(address)": {
        "details": "Emitted when the pause is lifted by `account`."
      },
      "Upgraded(address)": {
        "details": "Emitted when the implementation is upgraded."
      }
    },
    "kind": "dev",
    "methods": {
      "constructor": {
        "custom:oz-upgrades-unsafe-allow": "constructor"
      },
      "deposit(address,uint256,uint256,uint256,uint256,address)": {
        "details": "Deposits tokens in the given pool. Creates new Farm contract if there isn't one deployed for the {lpPair} and deposits tokens in it. Emits a {Deposit} event.",
        "params": {
          "amountA": "- Token A amount to deposit.",
          "amountAMin": "- Bounds the extent to which the B/A price can go up before the transaction reverts.",
          "amountB": "-  Token B amount to deposit.",
          "amountBMin": "- Bounds the extent to which the A/B price can go up before the transaction reverts.",
          "lpPair": "- Address of the pool to deposit tokens in.",
          "recipient": "- Address which will receive the deposit."
        },
        "returns": {
          "liquidity": "- Total liquidity sent to the farm (in lpTokens).",
          "sentA": "- Token A amount sent to the farm.",
          "sentB": "- Token B amount sent to the farm."
        }
      },
      "depositETH(address,uint256,uint256,uint256,address)": {
        "details": "Autoconverts MATIC into WAVAX and deposits tokens in the given pool. Creates new Farm contract if there isn't one deployed for the {lpStakingPool} and deposits tokens in it. Emits a {Deposit} event.",
        "params": {
          "amountETHMin": "- Bounds the extent to which the WAVAX/TOKEN price can go up before the transaction reverts.",
          "amountToken": "- Token amount to deposit.",
          "amountTokenMin": "- Bounds the extent to which the TOKEN/WAVAX price can go up before the transaction reverts.",
          "lpPair": "- Address of the pool to deposit tokens in.",
          "recipient": "- Address which will receive the deposit."
        },
        "returns": {
          "liquidity": "- Total liquidity sent to the farm (in lpTokens).",
          "sentETH": "- WAVAX amount sent to the farm.",
          "sentToken": "- Token amount sent to the farm."
        }
      },
      "depositLP(address,uint256,address)": {
        "details": "Deposits tokens in the given pool. Creates new Farm contract if there isn't one deployed for the {lpPair} and deposits tokens in it. Emits a {Deposit} event.",
        "params": {
          "amount": "- LP Token amount to deposit.",
          "lpPair": "- Address of the pool to deposit tokens in.",
          "recipient": "- Address which will receive the deposit."
        }
      },
      "depositWithSwap(address,bytes[2],address)": {
        "details": "Deposits any tokens in the given pool by swapping them using 1inch. Creates new Farm contract if there isn't one deployed for the {lpPair}, swaps {token} for pool tokens and deposits them. Emits a {Deposit} event.",
        "params": {
          "lpPair": "- Address of the pool to deposit tokens in.",
          "recipient": "- Address which will receive the deposit.",
          "swapData": "- Parameters with which 1inch router is being called with."
        },
        "returns": {
          "dustA": "- TokenA dust sent to the {msg.sender}.",
          "dustB": "- TokenB dust sent to the {msg.sender}.",
          "liquidity": "- Total liquidity sent to the farm (in lpTokens).",
          "sent0": "- Tokens sent to the farm from the {swapData[0]}.",
          "sent1": "- Tokens sent to the farm from the {swapData[1]}."
        }
      },
      "distribute(address,(uint256,uint256,(address,address,bool,address)[])[2],address)": {
        "details": "Distributes tokens between users.",
        "params": {
          "feeTo": "- Address to collect fees to. Note: This function can only be called by the distributor.",
          "lpPair": "- LP pool to distribute tokens in.",
          "swapInfos": "- Arrays of structs with token arrays describing swap routes (rewardTokenToTokenA, rewardTokenToTokenB, rewarderTokenToTokenA, rewarderTokenToTokenB) and minimum amounts of output tokens that must be received for the transaction not to revert."
        }
      },
      "getTokens(address)": {
        "details": "Returns addresses of tokens in {lpPair}.",
        "params": {
          "lpPair": "- LP pair to check tokens in."
        },
        "returns": {
          "tokens": "- Tokens addresses."
        }
      },
      "paused()": {
        "details": "Returns true if the contract is paused, and false otherwise."
      },
      "proxiableUUID()": {
        "details": "Implementation of the ERC1822 {proxiableUUID} function. This returns the storage slot used by the implementation. It is used to validate the implementation's compatibility when performing an upgrade. IMPORTANT: A proxy pointing at a proxiable contract should not be considered proxiable itself, because this risks bricking a proxy that upgrades to it, by delegating to itself until out of gas. Thus it is critical that this function revert if invoked through a proxy. This is guaranteed by the `notDelegated` modifier."
      },
      "setFee(uint256)": {
        "details": "Change fee amount.",
        "params": {
          "_fee": "-New fee to collect from farms. [10^18 == 100%] Note: This function can only be called by ADMIN_ROLE."
        }
      },
      "totalDeposits(address)": {
        "details": "Returns total amount locked in the pool. Doesn't take pending rewards into account.",
        "params": {
          "lpPair": "- LP pool to check total deposits in."
        },
        "returns": {
          "totalDepositsA": "- Token A deposits.",
          "totalDepositsB": "- Token B deposits.",
          "totalDepositsLP": "- Total deposits (in LP tokens)."
        }
      },
      "upgradeTo(address)": {
        "custom:oz-upgrades-unsafe-allow-reachable": "delegatecall",
        "details": "Upgrade the implementation of the proxy to `newImplementation`. Calls {_authorizeUpgrade}. Emits an {Upgraded} event."
      },
      "upgradeToAndCall(address,bytes)": {
        "custom:oz-upgrades-unsafe-allow-reachable": "delegatecall",
        "details": "Upgrade the implementation of the proxy to `newImplementation`, and subsequently execute the function call encoded in `data`. Calls {_authorizeUpgrade}. Emits an {Upgraded} event."
      },
      "userStake(address,address)": {
        "details": "Returns tokens staked by the {_address} for the given {lpPair}.",
        "params": {
          "_address": "- The address to check stakes for.",
          "lpPair": "- LP pool to check stakes in."
        },
        "returns": {
          "stakeA": "- Token A stake.",
          "stakeB": "- Token B stake.",
          "stakeLP": "- Total user stake(in LP tokens)."
        }
      },
      "withdraw(address,uint256,uint256,uint256,address)": {
        "details": "Withdraws a pair of tokens from the given pool. Emits a {Withdraw} event.",
        "params": {
          "amount": "- LP amount to withdraw. ",
          "amountAMin": "- The minimum amount of tokenA that must be received for the transaction not to revert.",
          "amountBMin": "- The minimum amount of tokenB that must be received for the transaction not to revert.",
          "lpPair": "- LP pool to withdraw from.",
          "recipient": "- The address which will receive tokens."
        },
        "returns": {
          "amountA": "- Token A amount sent to the {recipient}",
          "amountB": "- Token B amount sent to the {recipient}"
        }
      },
      "withdrawETH(address,uint256,uint256,uint256,address)": {
        "details": "Autoconverts WAVAX into MATIC and withdraws tokens from the pool. Emits a {Withdraw} event.",
        "params": {
          "amount": "- LP amount to withdraw. ",
          "amountETHMin": "- The minimum amount of MATIC that must be received for the transaction not to revert.",
          "amountTokenMin": "- The minimum amount of token that must be received for the transaction not to revert.",
          "lpPair": "- LP pool to withdraw from.",
          "recipient": "- The address which will receive tokens."
        },
        "returns": {
          "amountETH": "- MATIC amount sent to the {recipient}.",
          "amountToken": "- Token amount sent to the {recipient}."
        }
      },
      "withdrawLP(address,uint256,address)": {
        "details": "Withdraws LP tokens from the given pool. Emits a {Withdraw} event.",
        "params": {
          "amount": "- LP amount to withdraw. ",
          "lpPair": "- LP pool to withdraw from.",
          "recipient": "- The address which will receive tokens."
        }
      },
      "withdrawWithSwap(address,uint256,bytes[2],address)": {
        "details": "Withdraws tokens from the given pool and swap them using 1inch. Emits a {Withdraw} event. Note: If there are any tokens left to be withdrawn after swaps they will be sent to the {{recipient}} in a respective token.",
        "params": {
          "amount": "- LP amount to withdraw. ",
          "lpPair": "- LP pool to withdraw from.",
          "recipient": "- The address which will receive tokens.",
          "swapData": "- Parameters with which 1inch router is being called with."
        },
        "returns": {
          "amount0": "- Tokens sent to the {recipient} from the {swapData[0]}.",
          "amount1": "- Tokens sent to the {recipient} from the {swapData[1]}.",
          "amountA": "- TokenA dust sent to the {recipient}.",
          "amountB": "- TokenB dust to the {recipient}."
        }
      }
    },
    "stateVariables": {
      "farmFactory": {
        "details": "Contract Variables: farmFactory - The contract that deploys new Farms and links them to {lpPair}s. accessManager - Role manager contract."
      }
    },
    "version": 1
  },
  "userdoc": {
    "kind": "user",
    "methods": {},
    "version": 1
  }
}