{
  "contractName": "UnoAssetRouterApeswap",
  "abi": [
    {
      "inputs": [],
      "stateMutability": "nonpayable",
      "type": "constructor"
    },
    {
      "inputs": [],
      "name": "CALLER_NOT_AUTHORIZED",
      "type": "error"
    },
    {
      "inputs": [],
      "name": "ETH_DEPOSIT_REJECTED",
      "type": "error"
    },
    {
      "inputs": [],
      "name": "FARM_NOT_EXISTS",
      "type": "error"
    },
    {
      "inputs": [],
      "name": "INSUFFICIENT_AMOUNT",
      "type": "error"
    },
    {
      "inputs": [],
      "name": "INVALID_ACCESS_MANAGER",
      "type": "error"
    },
    {
      "inputs": [],
      "name": "INVALID_FARM_FACTORY",
      "type": "error"
    },
    {
      "inputs": [],
      "name": "INVALID_MSG_VALUE",
      "type": "error"
    },
    {
      "inputs": [],
      "name": "INVALID_SWAP_DESCRIPTION",
      "type": "error"
    },
    {
      "inputs": [
        {
          "internalType": "uint256",
          "name": "maxFee",
          "type": "uint256"
        }
      ],
      "name": "MAX_FEE_EXCEEDED",
      "type": "error"
    },
    {
      "inputs": [],
      "name": "NOT_ETH_FARM",
      "type": "error"
    },
    {
      "inputs": [],
      "name": "NO_TOKENS_SENT",
      "type": "error"
    },
    {
      "inputs": [],
      "name": "SWAP_NOT_SUCCESSFUL",
      "type": "error"
    },
    {
      "inputs": [],
      "name": "TRANSFER_NOT_SUCCESSFUL",
      "type": "error"
    },
    {
      "anonymous": false,
      "inputs": [
        {
          "indexed": false,
          "internalType": "address",
          "name": "previousAdmin",
          "type": "address"
        },
        {
          "indexed": false,
          "internalType": "address",
          "name": "newAdmin",
          "type": "address"
        }
      ],
      "name": "AdminChanged",
      "type": "event"
    },
    {
      "anonymous": false,
      "inputs": [
        {
          "indexed": true,
          "internalType": "address",
          "name": "beacon",
          "type": "address"
        }
      ],
      "name": "BeaconUpgraded",
      "type": "event"
    },
    {
      "anonymous": false,
      "inputs": [
        {
          "indexed": true,
          "internalType": "address",
          "name": "lpPool",
          "type": "address"
        },
        {
          "indexed": true,
          "internalType": "address",
          "name": "sender",
          "type": "address"
        },
        {
          "indexed": true,
          "internalType": "address",
          "name": "recipient",
          "type": "address"
        },
        {
          "indexed": false,
          "internalType": "uint256",
          "name": "amount",
          "type": "uint256"
        }
      ],
      "name": "Deposit",
      "type": "event"
    },
    {
      "anonymous": false,
      "inputs": [
        {
          "indexed": true,
          "internalType": "address",
          "name": "lpPool",
          "type": "address"
        },
        {
          "indexed": false,
          "internalType": "uint256",
          "name": "reward",
          "type": "uint256"
        }
      ],
      "name": "Distribute",
      "type": "event"
    },
    {
      "anonymous": false,
      "inputs": [
        {
          "indexed": false,
          "internalType": "uint256",
          "name": "previousFee",
          "type": "uint256"
        },
        {
          "indexed": false,
          "internalType": "uint256",
          "name": "newFee",
          "type": "uint256"
        }
      ],
      "name": "FeeChanged",
      "type": "event"
    },
    {
      "anonymous": false,
      "inputs": [
        {
          "indexed": false,
          "internalType": "uint8",
          "name": "version",
          "type": "uint8"
        }
      ],
      "name": "Initialized",
      "type": "event"
    },
    {
      "anonymous": false,
      "inputs": [
        {
          "indexed": false,
          "internalType": "address",
          "name": "account",
          "type": "address"
        }
      ],
      "name": "Paused",
      "type": "event"
    },
    {
      "anonymous": false,
      "inputs": [
        {
          "indexed": false,
          "internalType": "address",
          "name": "account",
          "type": "address"
        }
      ],
      "name": "Unpaused",
      "type": "event"
    },
    {
      "anonymous": false,
      "inputs": [
        {
          "indexed": true,
          "internalType": "address",
          "name": "implementation",
          "type": "address"
        }
      ],
      "name": "Upgraded",
      "type": "event"
    },
    {
      "anonymous": false,
      "inputs": [
        {
          "indexed": true,
          "internalType": "address",
          "name": "lpPool",
          "type": "address"
        },
        {
          "indexed": true,
          "internalType": "address",
          "name": "sender",
          "type": "address"
        },
        {
          "indexed": true,
          "internalType": "address",
          "name": "recipient",
          "type": "address"
        },
        {
          "indexed": false,
          "internalType": "uint256",
          "name": "amount",
          "type": "uint256"
        }
      ],
      "name": "Withdraw",
      "type": "event"
    },
    {
      "inputs": [],
      "name": "WMATIC",
      "outputs": [
        {
          "internalType": "address",
          "name": "",
          "type": "address"
        }
      ],
      "stateMutability": "view",
      "type": "function",
      "constant": true
    },
    {
      "inputs": [],
      "name": "accessManager",
      "outputs": [
        {
          "internalType": "contract IUnoAccessManager",
          "name": "",
          "type": "address"
        }
      ],
      "stateMutability": "view",
      "type": "function",
      "constant": true
    },
    {
      "inputs": [],
      "name": "farmFactory",
      "outputs": [
        {
          "internalType": "contract IUnoFarmFactory",
          "name": "",
          "type": "address"
        }
      ],
      "stateMutability": "view",
      "type": "function",
      "constant": true
    },
    {
      "inputs": [],
      "name": "fee",
      "outputs": [
        {
          "internalType": "uint256",
          "name": "",
          "type": "uint256"
        }
      ],
      "stateMutability": "view",
      "type": "function",
      "constant": true
    },
    {
      "inputs": [],
      "name": "paused",
      "outputs": [
        {
          "internalType": "bool",
          "name": "",
          "type": "bool"
        }
      ],
      "stateMutability": "view",
      "type": "function",
      "constant": true
    },
    {
      "inputs": [],
      "name": "proxiableUUID",
      "outputs": [
        {
          "internalType": "bytes32",
          "name": "",
          "type": "bytes32"
        }
      ],
      "stateMutability": "view",
      "type": "function",
      "constant": true
    },
    {
      "inputs": [
        {
          "internalType": "address",
          "name": "newImplementation",
          "type": "address"
        }
      ],
      "name": "upgradeTo",
      "outputs": [],
      "stateMutability": "nonpayable",
      "type": "function"
    },
    {
      "inputs": [
        {
          "internalType": "address",
          "name": "newImplementation",
          "type": "address"
        },
        {
          "internalType": "bytes",
          "name": "data",
          "type": "bytes"
        }
      ],
      "name": "upgradeToAndCall",
      "outputs": [],
      "stateMutability": "payable",
      "type": "function",
      "payable": true
    },
    {
      "stateMutability": "payable",
      "type": "receive",
      "payable": true
    },
    {
      "inputs": [
        {
          "internalType": "address",
          "name": "_accessManager",
          "type": "address"
        },
        {
          "internalType": "address",
          "name": "_farmFactory",
          "type": "address"
        }
      ],
      "name": "initialize",
      "outputs": [],
      "stateMutability": "nonpayable",
      "type": "function"
    },
    {
      "inputs": [
        {
          "internalType": "address",
          "name": "lpPair",
          "type": "address"
        },
        {
          "internalType": "uint256",
          "name": "amountA",
          "type": "uint256"
        },
        {
          "internalType": "uint256",
          "name": "amountB",
          "type": "uint256"
        },
        {
          "internalType": "uint256",
          "name": "amountAMin",
          "type": "uint256"
        },
        {
          "internalType": "uint256",
          "name": "amountBMin",
          "type": "uint256"
        },
        {
          "internalType": "address",
          "name": "recipient",
          "type": "address"
        }
      ],
      "name": "deposit",
      "outputs": [
        {
          "internalType": "uint256",
          "name": "sentA",
          "type": "uint256"
        },
        {
          "internalType": "uint256",
          "name": "sentB",
          "type": "uint256"
        },
        {
          "internalType": "uint256",
          "name": "liquidity",
          "type": "uint256"
        }
      ],
      "stateMutability": "nonpayable",
      "type": "function"
    },
    {
      "inputs": [
        {
          "internalType": "address",
          "name": "lpPair",
          "type": "address"
        },
        {
          "internalType": "uint256",
          "name": "amountToken",
          "type": "uint256"
        },
        {
          "internalType": "uint256",
          "name": "amountTokenMin",
          "type": "uint256"
        },
        {
          "internalType": "uint256",
          "name": "amountETHMin",
          "type": "uint256"
        },
        {
          "internalType": "address",
          "name": "recipient",
          "type": "address"
        }
      ],
      "name": "depositETH",
      "outputs": [
        {
          "internalType": "uint256",
          "name": "sentToken",
          "type": "uint256"
        },
        {
          "internalType": "uint256",
          "name": "sentETH",
          "type": "uint256"
        },
        {
          "internalType": "uint256",
          "name": "liquidity",
          "type": "uint256"
        }
      ],
      "stateMutability": "payable",
      "type": "function",
      "payable": true
    },
    {
      "inputs": [
        {
          "internalType": "address",
          "name": "lpPair",
          "type": "address"
        },
        {
          "internalType": "bytes[2]",
          "name": "swapData",
          "type": "bytes[2]"
        },
        {
          "internalType": "address",
          "name": "recipient",
          "type": "address"
        }
      ],
      "name": "depositWithSwap",
      "outputs": [
        {
          "internalType": "uint256",
          "name": "sent0",
          "type": "uint256"
        },
        {
          "internalType": "uint256",
          "name": "sent1",
          "type": "uint256"
        },
        {
          "internalType": "uint256",
          "name": "dustA",
          "type": "uint256"
        },
        {
          "internalType": "uint256",
          "name": "dustB",
          "type": "uint256"
        },
        {
          "internalType": "uint256",
          "name": "liquidity",
          "type": "uint256"
        }
      ],
      "stateMutability": "payable",
      "type": "function",
      "payable": true
    },
    {
      "inputs": [
        {
          "internalType": "address",
          "name": "lpPair",
          "type": "address"
        },
        {
          "internalType": "uint256",
          "name": "amount",
          "type": "uint256"
        },
        {
          "internalType": "address",
          "name": "recipient",
          "type": "address"
        }
      ],
      "name": "depositLP",
      "outputs": [],
      "stateMutability": "nonpayable",
      "type": "function"
    },
    {
      "inputs": [
        {
          "internalType": "address",
          "name": "lpPair",
          "type": "address"
        },
        {
          "internalType": "uint256",
          "name": "amount",
          "type": "uint256"
        },
        {
          "internalType": "uint256",
          "name": "amountAMin",
          "type": "uint256"
        },
        {
          "internalType": "uint256",
          "name": "amountBMin",
          "type": "uint256"
        },
        {
          "internalType": "address",
          "name": "recipient",
          "type": "address"
        }
      ],
      "name": "withdraw",
      "outputs": [
        {
          "internalType": "uint256",
          "name": "amountA",
          "type": "uint256"
        },
        {
          "internalType": "uint256",
          "name": "amountB",
          "type": "uint256"
        }
      ],
      "stateMutability": "nonpayable",
      "type": "function"
    },
    {
      "inputs": [
        {
          "internalType": "address",
          "name": "lpPair",
          "type": "address"
        },
        {
          "internalType": "uint256",
          "name": "amount",
          "type": "uint256"
        },
        {
          "internalType": "uint256",
          "name": "amountTokenMin",
          "type": "uint256"
        },
        {
          "internalType": "uint256",
          "name": "amountETHMin",
          "type": "uint256"
        },
        {
          "internalType": "address",
          "name": "recipient",
          "type": "address"
        }
      ],
      "name": "withdrawETH",
      "outputs": [
        {
          "internalType": "uint256",
          "name": "amountToken",
          "type": "uint256"
        },
        {
          "internalType": "uint256",
          "name": "amountETH",
          "type": "uint256"
        }
      ],
      "stateMutability": "nonpayable",
      "type": "function"
    },
    {
      "inputs": [
        {
          "internalType": "address",
          "name": "lpPair",
          "type": "address"
        },
        {
          "internalType": "uint256",
          "name": "amount",
          "type": "uint256"
        },
        {
          "internalType": "bytes[2]",
          "name": "swapData",
          "type": "bytes[2]"
        },
        {
          "internalType": "address",
          "name": "recipient",
          "type": "address"
        }
      ],
      "name": "withdrawWithSwap",
      "outputs": [
        {
          "internalType": "uint256",
          "name": "amount0",
          "type": "uint256"
        },
        {
          "internalType": "uint256",
          "name": "amount1",
          "type": "uint256"
        },
        {
          "internalType": "uint256",
          "name": "amountA",
          "type": "uint256"
        },
        {
          "internalType": "uint256",
          "name": "amountB",
          "type": "uint256"
        }
      ],
      "stateMutability": "nonpayable",
      "type": "function"
    },
    {
      "inputs": [
        {
          "internalType": "address",
          "name": "lpPair",
          "type": "address"
        },
        {
          "internalType": "uint256",
          "name": "amount",
          "type": "uint256"
        },
        {
          "internalType": "address",
          "name": "recipient",
          "type": "address"
        }
      ],
      "name": "withdrawLP",
      "outputs": [],
      "stateMutability": "nonpayable",
      "type": "function"
    },
    {
      "inputs": [
        {
          "internalType": "address",
          "name": "lpPair",
          "type": "address"
        },
        {
          "components": [
            {
              "internalType": "address[]",
              "name": "route",
              "type": "address[]"
            },
            {
              "internalType": "uint256",
              "name": "amountOutMin",
              "type": "uint256"
            }
          ],
          "internalType": "struct IUnoFarmApeswap.SwapInfo[4]",
          "name": "swapInfos",
          "type": "tuple[4]"
        },
        {
          "components": [
            {
              "internalType": "address[]",
              "name": "route",
              "type": "address[]"
            },
            {
              "internalType": "uint256",
              "name": "amountOutMin",
              "type": "uint256"
            }
          ],
          "internalType": "struct IUnoFarmApeswap.SwapInfo[2]",
          "name": "feeSwapInfos",
          "type": "tuple[2]"
        },
        {
          "internalType": "address",
          "name": "feeTo",
          "type": "address"
        }
      ],
      "name": "distribute",
      "outputs": [
        {
          "internalType": "uint256",
          "name": "reward",
          "type": "uint256"
        }
      ],
      "stateMutability": "nonpayable",
      "type": "function"
    },
    {
      "inputs": [
        {
          "internalType": "address",
          "name": "_address",
          "type": "address"
        },
        {
          "internalType": "address",
          "name": "lpPair",
          "type": "address"
        }
      ],
      "name": "userStake",
      "outputs": [
        {
          "internalType": "uint256",
          "name": "stakeLP",
          "type": "uint256"
        },
        {
          "internalType": "uint256",
          "name": "stakeA",
          "type": "uint256"
        },
        {
          "internalType": "uint256",
          "name": "stakeB",
          "type": "uint256"
        }
      ],
      "stateMutability": "view",
      "type": "function",
      "constant": true
    },
    {
      "inputs": [
        {
          "internalType": "address",
          "name": "lpPair",
          "type": "address"
        }
      ],
      "name": "totalDeposits",
      "outputs": [
        {
          "internalType": "uint256",
          "name": "totalDepositsLP",
          "type": "uint256"
        },
        {
          "internalType": "uint256",
          "name": "totalDepositsA",
          "type": "uint256"
        },
        {
          "internalType": "uint256",
          "name": "totalDepositsB",
          "type": "uint256"
        }
      ],
      "stateMutability": "view",
      "type": "function",
      "constant": true
    },
    {
      "inputs": [
        {
          "internalType": "address",
          "name": "lpPair",
          "type": "address"
        }
      ],
      "name": "getTokens",
      "outputs": [
        {
          "internalType": "contract IERC20[]",
          "name": "tokens",
          "type": "address[]"
        }
      ],
      "stateMutability": "view",
      "type": "function",
      "constant": true
    },
    {
      "inputs": [
        {
          "internalType": "uint256",
          "name": "_fee",
          "type": "uint256"
        }
      ],
      "name": "setFee",
      "outputs": [],
      "stateMutability": "nonpayable",
      "type": "function"
    },
    {
      "inputs": [],
      "name": "pause",
      "outputs": [],
      "stateMutability": "nonpayable",
      "type": "function"
    },
    {
      "inputs": [],
      "name": "unpause",
      "outputs": [],
      "stateMutability": "nonpayable",
      "type": "function"
    }
  ],
  "bytecode": "0x60a0604052306080523480156200001557600080fd5b506200002062000026565b62000156565b6200003260ff62000035565b50565b60008054610100900460ff1615620000ce578160ff1660011480156200006e57506200006c306200014760201b620025051760201c565b155b620000c65760405162461bcd60e51b815260206004820152602e602482015260008051602062004b3e83398151915260448201526d191e481a5b9a5d1a585b1a5e995960921b60648201526084015b60405180910390fd5b506000919050565b60005460ff8084169116106200012d5760405162461bcd60e51b815260206004820152602e602482015260008051602062004b3e83398151915260448201526d191e481a5b9a5d1a585b1a5e995960921b6064820152608401620000bd565b506000805460ff191660ff92909216919091179055600190565b6001600160a01b03163b151590565b6080516149b06200018e600039600081816109bc015281816109fc01528181610f8b01528181610fcb015261116801526149b06000f3fe60806040526004361061014f5760003560e01c80636505e65e116100b6578063ddca3f431161006f578063ddca3f431461043c578063deb03f4d14610452578063e50e637114610472578063e940325614610492578063fdcb6068146104b2578063fefa4094146104d257600080fd5b80636505e65e1461035757806369fe0e2d146103775780636d25e175146103975780638456cb59146103b757806399cd69de146103cc578063d84ff8421461040757600080fd5b8063485cc95511610108578063485cc955146102715780634d95cad9146102915780634f1ef286146102d157806351bdca3e146102e457806352d1902d1461031f5780635c975abb1461033457600080fd5b80631ad881801461017c5780632a895ade146101af5780633659cfe6146101ef5780633f4ba83a1461020f578063450efe211461022457806346dafa2f1461025157600080fd5b36610177573332141561017557604051635a5e184160e11b815260040160405180910390fd5b005b600080fd5b34801561018857600080fd5b5061019c610197366004613e09565b6104e5565b6040519081526020015b60405180910390f35b3480156101bb57600080fd5b506101cf6101ca366004613e9b565b610737565b6040805194855260208501939093529183015260608201526080016101a6565b3480156101fb57600080fd5b5061017561020a366004613eeb565b6109b1565b34801561021b57600080fd5b50610175610a91565b34801561023057600080fd5b5061024461023f366004613eeb565b610b49565b6040516101a69190613f08565b34801561025d57600080fd5b5061017561026c366004613f55565b610c98565b34801561027d57600080fd5b5061017561028c366004613f97565b610e8c565b34801561029d57600080fd5b506102b9730d500b1d8e8ef31e21c99d1db9a6444d3adf127081565b6040516001600160a01b0390911681526020016101a6565b6101756102df36600461409c565b610f80565b3480156102f057600080fd5b506103046102ff366004613f97565b611051565b604080519384526020840192909252908201526060016101a6565b34801561032b57600080fd5b5061019c61115b565b34801561034057600080fd5b5060335460ff1660405190151581526020016101a6565b34801561036357600080fd5b506103046103723660046140e2565b61120e565b34801561038357600080fd5b50610175610392366004614140565b61151a565b3480156103a357600080fd5b5060c9546102b9906001600160a01b031681565b3480156103c357600080fd5b5061017561169f565b6103df6103da366004614159565b611757565b604080519586526020860194909452928401919091526060830152608082015260a0016101a6565b34801561041357600080fd5b506104276104223660046141b2565b611aa0565b604080519283526020830191909152016101a6565b34801561044857600080fd5b5061019c60cb5481565b34801561045e57600080fd5b5061042761046d3660046141b2565b611cb7565b34801561047e57600080fd5b5061017561048d366004613f55565b611f63565b34801561049e57600080fd5b506103046104ad366004613eeb565b6120a0565b3480156104be57600080fd5b5060ca546102b9906001600160a01b031681565b6103046104e03660046141b2565b6121a2565b60006104f360335460ff1690565b156105195760405162461bcd60e51b815260040161051090614208565b60405180910390fd5b60ca54604051632474521560e21b81527ffbd454f36a7e1a388bd6fc3ab10d434aa4578f811acbbcf33afb1c697486313c60048201819052336024830152916001600160a01b0316906391d1485490604401602060405180830381865afa158015610588573d6000803e3d6000fd5b505050506040513d601f19601f820116820180604052508101906105ac9190614232565b6105c9576040516365bc1f8360e11b815260040160405180910390fd5b60c95460405163f9d9331d60e01b81526001600160a01b038881166004830152600092169063f9d9331d90602401602060405180830381865afa158015610614573d6000803e3d6000fd5b505050506040513d601f19601f820116820180604052508101906106389190614254565b90506001600160a01b0381166106615760405163331fd83f60e11b815260040160405180910390fd5b6040805180820182526001600160a01b03868116825260cb546020830152915163047f792560e11b8152918316916308fef24a916106a5918a918a9160040161435c565b6020604051808303816000875af11580156106c4573d6000803e3d6000fd5b505050506040513d601f19601f820116820180604052508101906106e89190614470565b9250866001600160a01b03167fc1d32ad5cca423e7dda2123dbf8c482f8e77d00b631c06e903a47f2cec1334df8460405161072591815260200190565b60405180910390a25050949350505050565b60c95460405163f9d9331d60e01b81526001600160a01b038681166004830152600092839283928392839291169063f9d9331d90602401602060405180830381865afa15801561078b573d6000803e3d6000fd5b505050506040513d601f19601f820116820180604052508101906107af9190614254565b90506001600160a01b0381166107d85760405163331fd83f60e11b815260040160405180910390fd5b604051632d182be560e21b8152600481018990523360248201523060448201526001600160a01b0382169063b460af9490606401600060405180830381600087803b15801561082657600080fd5b505af115801561083a573d6000803e3d6000fd5b505050506000816001600160a01b0316630fc63d106040518163ffffffff1660e01b8152600401602060405180830381865afa15801561087e573d6000803e3d6000fd5b505050506040513d601f19601f820116820180604052508101906108a29190614254565b90506000826001600160a01b0316635f64b55b6040518163ffffffff1660e01b8152600401602060405180830381865afa1580156108e4573d6000803e3d6000fd5b505050506040513d601f19601f820116820180604052508101906109089190614254565b905060008061091d8d85858f60008030612514565b909250905061093761092f8c8061449f565b86858e612657565b909950965061095461094c60208d018d61449f565b85848e612657565b8097508199505050896001600160a01b0316336001600160a01b03168e6001600160a01b03166000805160206148f48339815191528f60405161099991815260200190565b60405180910390a45050505050945094509450949050565b306001600160a01b037f00000000000000000000000000000000000000000000000000000000000000001614156109fa5760405162461bcd60e51b8152600401610510906144ed565b7f00000000000000000000000000000000000000000000000000000000000000006001600160a01b0316610a43600080516020614914833981519152546001600160a01b031690565b6001600160a01b031614610a695760405162461bcd60e51b815260040161051090614539565b610a72816128ef565b60408051600080825260208201909252610a8e918391906129f6565b50565b60ca54604051632474521560e21b81527f65d7a28e3265b37a6474929f336521b332c1681b933f6cb9f3376673440d862a60048201819052336024830152916001600160a01b0316906391d1485490604401602060405180830381865afa158015610b00573d6000803e3d6000fd5b505050506040513d601f19601f82011682018060405250810190610b249190614232565b610b41576040516365bc1f8360e11b815260040160405180910390fd5b610a8e612b61565b6040805160028082526060808301845292602083019080368337019050509050816001600160a01b0316630dfe16816040518163ffffffff1660e01b8152600401602060405180830381865afa158015610ba7573d6000803e3d6000fd5b505050506040513d601f19601f82011682018060405250810190610bcb9190614254565b81600081518110610bde57610bde614489565b60200260200101906001600160a01b031690816001600160a01b031681525050816001600160a01b031663d21220a76040518163ffffffff1660e01b8152600401602060405180830381865afa158015610c3c573d6000803e3d6000fd5b505050506040513d601f19601f82011682018060405250810190610c609190614254565b81600181518110610c7357610c73614489565b60200260200101906001600160a01b031690816001600160a01b031681525050919050565b60335460ff1615610cbb5760405162461bcd60e51b815260040161051090614208565b81610cd95760405163d7eb47e360e01b815260040160405180910390fd5b60c95460405163f9d9331d60e01b81526001600160a01b038581166004830152600092169063f9d9331d90602401602060405180830381865afa158015610d24573d6000803e3d6000fd5b505050506040513d601f19601f82011682018060405250810190610d489190614254565b90506001600160a01b038116610dca5760c954604051621849e360e61b81526001600160a01b0386811660048301529091169063061278c0906024016020604051808303816000875af1158015610da3573d6000803e3d6000fd5b505050506040513d601f19601f82011682018060405250810190610dc79190614254565b90505b610ddf6001600160a01b038516338386612bf4565b604051636e553f6560e01b8152600481018490526001600160a01b038381166024830152821690636e553f6590604401600060405180830381600087803b158015610e2957600080fd5b505af1158015610e3d573d6000803e3d6000fd5b50505050816001600160a01b0316336001600160a01b0316856001600160a01b031660008051602061493483398151915286604051610e7e91815260200190565b60405180910390a450505050565b6000610e986001612c65565b90508015610eb0576000805461ff0019166101001790555b6001600160a01b038316610ed75760405163731df12960e11b815260040160405180910390fd5b6001600160a01b038216610efd5760405162c8b7fd60e21b815260040160405180910390fd5b610f05612ced565b60ca80546001600160a01b038086166001600160a01b03199283161790925560c98054928516929091169190911790558015610f7b576000805461ff0019169055604051600181527f7f26b83ff96e1f2b6a682f133852f6798a09c465da95921460cefb38474024989060200160405180910390a15b505050565b306001600160a01b037f0000000000000000000000000000000000000000000000000000000000000000161415610fc95760405162461bcd60e51b8152600401610510906144ed565b7f00000000000000000000000000000000000000000000000000000000000000006001600160a01b0316611012600080516020614914833981519152546001600160a01b031690565b6001600160a01b0316146110385760405162461bcd60e51b815260040161051090614539565b611041826128ef565b61104d828260016129f6565b5050565b60c95460405163f9d9331d60e01b81526001600160a01b038381166004830152600092839283928392169063f9d9331d90602401602060405180830381865afa1580156110a2573d6000803e3d6000fd5b505050506040513d601f19601f820116820180604052508101906110c69190614254565b90506001600160a01b0381161561115357604051630103c92b60e01b81526001600160a01b038781166004830152821690630103c92b90602401602060405180830381865afa15801561111d573d6000803e3d6000fd5b505050506040513d601f19601f820116820180604052508101906111419190614470565b935061114d8585612d1e565b90935091505b509250925092565b6000306001600160a01b037f000000000000000000000000000000000000000000000000000000000000000016146111fb5760405162461bcd60e51b815260206004820152603860248201527f555550535570677261646561626c653a206d757374206e6f742062652063616c60448201527f6c6564207468726f7567682064656c656761746563616c6c00000000000000006064820152608401610510565b5060008051602061491483398151915290565b600080600061121f60335460ff1690565b1561123c5760405162461bcd60e51b815260040161051090614208565b871580611247575086155b156112655760405163d7eb47e360e01b815260040160405180910390fd5b60c95460405163f9d9331d60e01b81526001600160a01b038b81166004830152600092169063f9d9331d90602401602060405180830381865afa1580156112b0573d6000803e3d6000fd5b505050506040513d601f19601f820116820180604052508101906112d49190614254565b90506001600160a01b0381166113565760c954604051621849e360e61b81526001600160a01b038c811660048301529091169063061278c0906024016020604051808303816000875af115801561132f573d6000803e3d6000fd5b505050506040513d601f19601f820116820180604052508101906113539190614254565b90505b6000816001600160a01b0316630fc63d106040518163ffffffff1660e01b8152600401602060405180830381865afa158015611396573d6000803e3d6000fd5b505050506040513d601f19601f820116820180604052508101906113ba9190614254565b90506000826001600160a01b0316635f64b55b6040518163ffffffff1660e01b8152600401602060405180830381865afa1580156113fc573d6000803e3d6000fd5b505050506040513d601f19601f820116820180604052508101906114209190614254565b90506114376001600160a01b03831633308e612bf4565b61144c6001600160a01b03821633308d612bf4565b61145b82828d8d8d8d89612f59565b604051636e553f6560e01b8152600481018290526001600160a01b038b81166024830152939950919750955090841690636e553f6590604401600060405180830381600087803b1580156114ae57600080fd5b505af11580156114c2573d6000803e3d6000fd5b50505050866001600160a01b0316336001600160a01b03168d6001600160a01b03166000805160206149348339815191528760405161150391815260200190565b60405180910390a450505096509650969350505050565b60ca60009054906101000a90046001600160a01b03166001600160a01b03166375b238fc6040518163ffffffff1660e01b8152600401602060405180830381865afa15801561156d573d6000803e3d6000fd5b505050506040513d601f19601f820116820180604052508101906115919190614470565b60ca54604051632474521560e21b8152600481018390523360248201526001600160a01b03909116906391d1485490604401602060405180830381865afa1580156115e0573d6000803e3d6000fd5b505050506040513d601f19601f820116820180604052508101906116049190614232565b611621576040516365bc1f8360e11b815260040160405180910390fd5b670de0b6b3a76400008211156116545760405163704894fb60e11b8152670de0b6b3a76400006004820152602401610510565b8160cb541461104d5760cb5460408051918252602082018490527f5fc463da23c1b063e66f9e352006a7fbe8db7223c455dc429e881a2dfe2f94f1910160405180910390a15060cb55565b60ca54604051632474521560e21b81527f65d7a28e3265b37a6474929f336521b332c1681b933f6cb9f3376673440d862a60048201819052336024830152916001600160a01b0316906391d1485490604401602060405180830381865afa15801561170e573d6000803e3d6000fd5b505050506040513d601f19601f820116820180604052508101906117329190614232565b61174f576040516365bc1f8360e11b815260040160405180910390fd5b610a8e61317e565b600080600080600061176b60335460ff1690565b156117885760405162461bcd60e51b815260040161051090614208565b60c95460405163f9d9331d60e01b81526001600160a01b038a81166004830152600092169063f9d9331d90602401602060405180830381865afa1580156117d3573d6000803e3d6000fd5b505050506040513d601f19601f820116820180604052508101906117f79190614254565b90506001600160a01b0381166118795760c954604051621849e360e61b81526001600160a01b038b811660048301529091169063061278c0906024016020604051808303816000875af1158015611852573d6000803e3d6000fd5b505050506040513d601f19601f820116820180604052508101906118769190614254565b90505b611882886131d6565b6000816001600160a01b0316630fc63d106040518163ffffffff1660e01b8152600401602060405180830381865afa1580156118c2573d6000803e3d6000fd5b505050506040513d601f19601f820116820180604052508101906118e69190614254565b90506000826001600160a01b0316635f64b55b6040518163ffffffff1660e01b8152600401602060405180830381865afa158015611928573d6000803e3d6000fd5b505050506040513d601f19601f8201168201806040525081019061194c9190614254565b905060008080806119666119608f8061449f565b886132e0565b909d50909450925061198a8e6001602002810190611984919061449f565b876132e0565b909c5090925090506119a18686868587868d612f59565b809a50819350829550505050866001600160a01b0316636e553f65898f6040518363ffffffff1660e01b81526004016119ed9291909182526001600160a01b0316602082015260400190565b600060405180830381600087803b158015611a0757600080fd5b505af1158015611a1b573d6000803e3d6000fd5b5050505082841115611a3457611a31838561459b565b99505b80821115611a4957611a46818361459b565b98505b505050505050866001600160a01b0316336001600160a01b03168a6001600160a01b031660008051602061493483398151915285604051611a8c91815260200190565b60405180910390a450939792965093509350565b60c95460405163f9d9331d60e01b81526001600160a01b038781166004830152600092839283929091169063f9d9331d90602401602060405180830381865afa158015611af1573d6000803e3d6000fd5b505050506040513d601f19601f82011682018060405250810190611b159190614254565b90506001600160a01b038116611b3e5760405163331fd83f60e11b815260040160405180910390fd5b604051632d182be560e21b8152600481018890523360248201523060448201526001600160a01b0382169063b460af9490606401600060405180830381600087803b158015611b8c57600080fd5b505af1158015611ba0573d6000803e3d6000fd5b50505050611c7588826001600160a01b0316630fc63d106040518163ffffffff1660e01b8152600401602060405180830381865afa158015611be6573d6000803e3d6000fd5b505050506040513d601f19601f82011682018060405250810190611c0a9190614254565b836001600160a01b0316635f64b55b6040518163ffffffff1660e01b8152600401602060405180830381865afa158015611c48573d6000803e3d6000fd5b505050506040513d601f19601f82011682018060405250810190611c6c9190614254565b8a8a8a8a612514565b60405189815291945092506001600160a01b038581169133918b16906000805160206148f48339815191529060200160405180910390a4509550959350505050565b60c95460405163f9d9331d60e01b81526001600160a01b038781166004830152600092839283929091169063f9d9331d90602401602060405180830381865afa158015611d08573d6000803e3d6000fd5b505050506040513d601f19601f82011682018060405250810190611d2c9190614254565b90506001600160a01b038116611d555760405163331fd83f60e11b815260040160405180910390fd5b6000816001600160a01b0316630fc63d106040518163ffffffff1660e01b8152600401602060405180830381865afa158015611d95573d6000803e3d6000fd5b505050506040513d601f19601f82011682018060405250810190611db99190614254565b90506000826001600160a01b0316635f64b55b6040518163ffffffff1660e01b8152600401602060405180830381865afa158015611dfb573d6000803e3d6000fd5b505050506040513d601f19601f82011682018060405250810190611e1f9190614254565b604051632d182be560e21b8152600481018b90523360248201523060448201529091506001600160a01b0384169063b460af9490606401600060405180830381600087803b158015611e7057600080fd5b505af1158015611e84573d6000803e3d6000fd5b505050506001600160a01b038216730d500b1d8e8ef31e21c99d1db9a6444d3adf12701415611ec557611ebb8a828b8b8b8b61368a565b9095509350611f11565b6001600160a01b038116730d500b1d8e8ef31e21c99d1db9a6444d3adf12701415611ef857611ebb8a838b8b8b8b61368a565b60405163aaf96e6160e01b815260040160405180910390fd5b856001600160a01b0316336001600160a01b03168b6001600160a01b03166000805160206148f48339815191528c604051611f4e91815260200190565b60405180910390a45050509550959350505050565b60c95460405163f9d9331d60e01b81526001600160a01b038581166004830152600092169063f9d9331d90602401602060405180830381865afa158015611fae573d6000803e3d6000fd5b505050506040513d601f19601f82011682018060405250810190611fd29190614254565b90506001600160a01b038116611ffb5760405163331fd83f60e11b815260040160405180910390fd5b604051632d182be560e21b8152600481018490523360248201526001600160a01b03838116604483015282169063b460af9490606401600060405180830381600087803b15801561204b57600080fd5b505af115801561205f573d6000803e3d6000fd5b50505050816001600160a01b0316336001600160a01b0316856001600160a01b03166000805160206148f483398151915286604051610e7e91815260200190565b60c95460405163f9d9331d60e01b81526001600160a01b038381166004830152600092839283928392169063f9d9331d90602401602060405180830381865afa1580156120f1573d6000803e3d6000fd5b505050506040513d601f19601f820116820180604052508101906121159190614254565b90506001600160a01b0381161561219a57806001600160a01b031663168a48226040518163ffffffff1660e01b8152600401602060405180830381865afa158015612164573d6000803e3d6000fd5b505050506040513d601f19601f820116820180604052508101906121889190614470565b93506121948585612d1e565b90935091505b509193909250565b60008060006121b360335460ff1690565b156121d05760405162461bcd60e51b815260040161051090614208565b3415806121db575086155b156121f95760405163d7eb47e360e01b815260040160405180910390fd5b60c95460405163f9d9331d60e01b81526001600160a01b038a81166004830152600092169063f9d9331d90602401602060405180830381865afa158015612244573d6000803e3d6000fd5b505050506040513d601f19601f820116820180604052508101906122689190614254565b90506001600160a01b0381166122ea5760c954604051621849e360e61b81526001600160a01b038b811660048301529091169063061278c0906024016020604051808303816000875af11580156122c3573d6000803e3d6000fd5b505050506040513d601f19601f820116820180604052508101906122e79190614254565b90505b6000816001600160a01b0316630fc63d106040518163ffffffff1660e01b8152600401602060405180830381865afa15801561232a573d6000803e3d6000fd5b505050506040513d601f19601f8201168201806040525081019061234e9190614254565b90506000826001600160a01b0316635f64b55b6040518163ffffffff1660e01b8152600401602060405180830381865afa158015612390573d6000803e3d6000fd5b505050506040513d601f19601f820116820180604052508101906123b49190614254565b90506001600160a01b038216730d500b1d8e8ef31e21c99d1db9a6444d3adf12701415612409576123f06001600160a01b03821633308d612bf4565b6123fd818b8b8b876137a6565b91975095509350612450565b6001600160a01b038116730d500b1d8e8ef31e21c99d1db9a6444d3adf12701415611ef8576124436001600160a01b03831633308d612bf4565b6123fd828b8b8b876137a6565b604051636e553f6560e01b8152600481018590526001600160a01b038881166024830152841690636e553f6590604401600060405180830381600087803b15801561249a57600080fd5b505af11580156124ae573d6000803e3d6000fd5b50505050866001600160a01b0316336001600160a01b03168c6001600160a01b0316600080516020614934833981519152876040516124ef91815260200190565b60405180910390a4505050955095509592505050565b6001600160a01b03163b151590565b60405163095ea7b360e01b815273c0788a3ad43d79aa53b09c2eacc313a787d1d60760048201526024810185905260009081906001600160a01b038a169063095ea7b3906044016020604051808303816000875af115801561257a573d6000803e3d6000fd5b505050506040513d601f19601f8201168201806040525081019061259e9190614232565b50604051635d5155ef60e11b81526001600160a01b03808a1660048301528089166024830152604482018890526064820187905260848201869052841660a48201524260c482015273c0788a3ad43d79aa53b09c2eacc313a787d1d6079063baa2abde9060e40160408051808303816000875af1158015612623573d6000803e3d6000fd5b505050506040513d601f19601f8201168201806040525081019061264791906145b2565b909a909950975050505050505050565b60008080612668876004818b6145d6565b8101906126759190614600565b50915050856001600160a01b031681602001516001600160a01b031614156126b8576126ab6001600160a01b0387168587613932565b84600092509250506128e5565b6312aa3caf60e01b6126ce600460008a8c6145d6565b6126d7916146dd565b6001600160e01b0319161415806127045750856001600160a01b031681600001516001600160a01b031614155b8061271157506080810151155b806127325750836001600160a01b031681606001516001600160a01b031614155b1561275057604051631bb5161960e21b815260040160405180910390fd5b8051608082015160405163095ea7b360e01b8152731111111254eeb25477b68fb85ed929f73a960582600482015260248101919091526001600160a01b039091169063095ea7b3906044016020604051808303816000875af11580156127ba573d6000803e3d6000fd5b505050506040513d601f19601f820116820180604052508101906127de9190614232565b50600080731111111254eeb25477b68fb85ed929f73a9605826001600160a01b03168a8a60405161281092919061470d565b6000604051808303816000865af19150503d806000811461284d576040519150601f19603f3d011682016040523d82523d6000602084013e612852565b606091505b509150915081612875576040516306dffaff60e51b815260040160405180910390fd5b60008180602001905181019061288b91906145b2565b9096509050808811156128c0576128a2818961459b565b84519095506128bb906001600160a01b03168887613932565b6128e0565b8088146128e057604051632cd294cf60e01b815260040160405180910390fd5b505050505b9550959350505050565b60ca60009054906101000a90046001600160a01b03166001600160a01b03166375b238fc6040518163ffffffff1660e01b8152600401602060405180830381865afa158015612942573d6000803e3d6000fd5b505050506040513d601f19601f820116820180604052508101906129669190614470565b60ca54604051632474521560e21b8152600481018390523360248201526001600160a01b03909116906391d1485490604401602060405180830381865afa1580156129b5573d6000803e3d6000fd5b505050506040513d601f19601f820116820180604052508101906129d99190614232565b61104d576040516365bc1f8360e11b815260040160405180910390fd5b7f4910fdfa16fed3260ed0e7147f7cc6da11a60208b5b9406d12a635614ffd91435460ff1615612a2957610f7b83613962565b826001600160a01b03166352d1902d6040518163ffffffff1660e01b8152600401602060405180830381865afa925050508015612a83575060408051601f3d908101601f19168201909252612a8091810190614470565b60015b612ae65760405162461bcd60e51b815260206004820152602e60248201527f45524331393637557067726164653a206e657720696d706c656d656e7461746960448201526d6f6e206973206e6f74205555505360901b6064820152608401610510565b6000805160206149148339815191528114612b555760405162461bcd60e51b815260206004820152602960248201527f45524331393637557067726164653a20756e737570706f727465642070726f786044820152681a58589b195555525160ba1b6064820152608401610510565b50610f7b8383836139fe565b60335460ff16612baa5760405162461bcd60e51b815260206004820152601460248201527314185d5cd8589b194e881b9bdd081c185d5cd95960621b6044820152606401610510565b6033805460ff191690557f5db9ee0a495bf2e6ff9c91a7834c1ba4fdd244a5e8aa4e537bd38aeae4b073aa335b6040516001600160a01b03909116815260200160405180910390a1565b6040516001600160a01b0380851660248301528316604482015260648101829052612c5f9085906323b872dd60e01b906084015b60408051601f198184030181529190526020810180516001600160e01b03166001600160e01b031990931692909217909152613a23565b50505050565b60008054610100900460ff1615612cac578160ff166001148015612c885750303b155b612ca45760405162461bcd60e51b81526004016105109061471d565b506000919050565b60005460ff808416911610612cd35760405162461bcd60e51b81526004016105109061471d565b506000805460ff191660ff92909216919091179055600190565b600054610100900460ff16612d145760405162461bcd60e51b81526004016105109061476b565b612d1c613af5565b565b6000806000846001600160a01b03166318160ddd6040518163ffffffff1660e01b8152600401602060405180830381865afa158015612d61573d6000803e3d6000fd5b505050506040513d601f19601f82011682018060405250810190612d859190614470565b905080856001600160a01b0316630dfe16816040518163ffffffff1660e01b8152600401602060405180830381865afa158015612dc6573d6000803e3d6000fd5b505050506040513d601f19601f82011682018060405250810190612dea9190614254565b6040516370a0823160e01b81526001600160a01b03888116600483015291909116906370a0823190602401602060405180830381865afa158015612e32573d6000803e3d6000fd5b505050506040513d601f19601f82011682018060405250810190612e569190614470565b612e6090866147b6565b612e6a91906147d5565b925080856001600160a01b031663d21220a76040518163ffffffff1660e01b8152600401602060405180830381865afa158015612eab573d6000803e3d6000fd5b505050506040513d601f19601f82011682018060405250810190612ecf9190614254565b6040516370a0823160e01b81526001600160a01b03888116600483015291909116906370a0823190602401602060405180830381865afa158015612f17573d6000803e3d6000fd5b505050506040513d601f19601f82011682018060405250810190612f3b9190614470565b612f4590866147b6565b612f4f91906147d5565b9150509250929050565b60405163095ea7b360e01b815273c0788a3ad43d79aa53b09c2eacc313a787d1d607600482015260248101869052600090819081906001600160a01b038b169063095ea7b3906044016020604051808303816000875af1158015612fc1573d6000803e3d6000fd5b505050506040513d601f19601f82011682018060405250810190612fe59190614232565b5060405163095ea7b360e01b815273c0788a3ad43d79aa53b09c2eacc313a787d1d6076004820152602481018890526001600160a01b038a169063095ea7b3906044016020604051808303816000875af1158015613047573d6000803e3d6000fd5b505050506040513d601f19601f8201168201806040525081019061306b9190614232565b5060405162e8e33760e81b81526001600160a01b03808c166004830152808b166024830152604482018a9052606482018990526084820188905260a48201879052851660c48201524260e482015273c0788a3ad43d79aa53b09c2eacc313a787d1d6079063e8e3370090610104016060604051808303816000875af11580156130f8573d6000803e3d6000fd5b505050506040513d601f19601f8201168201806040525081019061311c91906147f7565b919450925090508288111561314a5761314a33613139858b61459b565b6001600160a01b038d169190613932565b818711156131715761317133613160848a61459b565b6001600160a01b038c169190613932565b9750975097945050505050565b60335460ff16156131a15760405162461bcd60e51b815260040161051090614208565b6033805460ff191660011790557f62e78cea01bee320cd4e420270b5ea74000d11b0c9f74754ebdbfc544b05a258612bd73390565b6000806131e3838061449f565b6131f19160049082906145d6565b8101906131fe9190614600565b5080519092506001600160a01b031615905080613238575080516001600160a01b031673eeeeeeeeeeeeeeeeeeeeeeeeeeeeeeeeeeeeeeee145b1561324557806080015191505b6000613254602085018561449f565b6132629160049082906145d6565b81019061326f9190614600565b5080519092506001600160a01b0316159050806132a9575080516001600160a01b031673eeeeeeeeeeeeeeeeeeeeeeeeeeeeeeeeeeeeeeee145b156132c05760808101516132bd9084614825565b92505b823414612c5f576040516312463ea160e21b815260040160405180910390fd5b60008080806132f2866004818a6145d6565b8101906132ff9190614600565b509150508060a001519150846001600160a01b031681600001516001600160a01b0316141561337857608081015161334a57604051631bb5161960e21b815260040160405180910390fd5b6080810151815161336a916001600160a01b039091169033903090612bf4565b608001519250829150613681565b6312aa3caf60e01b61338e60046000898b6145d6565b613397916146dd565b6001600160e01b0319161415806133c45750846001600160a01b031681602001516001600160a01b031614155b806133d157506080810151155b806133e9575060608101516001600160a01b03163014155b1561340757604051631bb5161960e21b815260040160405180910390fd5b80516000906001600160a01b0316158061343e575081516001600160a01b031673eeeeeeeeeeeeeeeeeeeeeeeeeeeeeeeeeeeeeeee145b9050806134f55760808201518251613465916001600160a01b039091169033903090612bf4565b8151608083015160405163095ea7b360e01b8152731111111254eeb25477b68fb85ed929f73a960582600482015260248101919091526001600160a01b039091169063095ea7b3906044016020604051808303816000875af11580156134cf573d6000803e3d6000fd5b505050506040513d601f19601f820116820180604052508101906134f39190614232565b505b600081613503576000613509565b82608001515b9050600080731111111254eeb25477b68fb85ed929f73a9605826001600160a01b0316838c8c60405161353d92919061470d565b60006040518083038185875af1925050503d806000811461357a576040519150601f19603f3d011682016040523d82523d6000602084013e61357f565b606091505b5091509150816135a2576040516306dffaff60e51b815260040160405180910390fd5b808060200190518101906135b691906145b2565b8098508199505050505050838260800151111561367e578015613658576000336001600160a01b03168584608001516135ef919061459b565b604051600081818185875af1925050503d806000811461362b576040519150601f19603f3d011682016040523d82523d6000602084013e613630565b606091505b50509050806136525760405163125bf52760e01b815260040160405180910390fd5b5061367e565b61367e3385846080015161366c919061459b565b84516001600160a01b03169190613932565b50505b93509350939050565b60405163095ea7b360e01b815273c0788a3ad43d79aa53b09c2eacc313a787d1d60760048201526024810185905260009081906001600160a01b0389169063095ea7b3906044016020604051808303816000875af11580156136f0573d6000803e3d6000fd5b505050506040513d601f19601f820116820180604052508101906137149190614232565b50604051629d473b60e21b815273c0788a3ad43d79aa53b09c2eacc313a787d1d607906302751cec90613755908a908a908a908a908a90429060040161483d565b60408051808303816000875af1158015613773573d6000803e3d6000fd5b505050506040513d601f19601f8201168201806040525081019061379791906145b2565b90999098509650505050505050565b60405163095ea7b360e01b815273c0788a3ad43d79aa53b09c2eacc313a787d1d607600482015260248101859052600090819081906001600160a01b0389169063095ea7b3906044016020604051808303816000875af115801561380e573d6000803e3d6000fd5b505050506040513d601f19601f820116820180604052508101906138329190614232565b5060405163f305d71960e01b815273c0788a3ad43d79aa53b09c2eacc313a787d1d6079063f305d719903490613876908c908c908c908c908c90429060040161483d565b60606040518083038185885af1158015613894573d6000803e3d6000fd5b50505050506040513d601f19601f820116820180604052508101906138b991906147f7565b91945092509050828711156138e7576138e7336138d6858a61459b565b6001600160a01b038b169190613932565b8134111561392757336108fc6138fd843461459b565b6040518115909202916000818181858888f19350505050158015613925573d6000803e3d6000fd5b505b955095509592505050565b6040516001600160a01b038316602482015260448101829052610f7b90849063a9059cbb60e01b90606401612c28565b6001600160a01b0381163b6139cf5760405162461bcd60e51b815260206004820152602d60248201527f455243313936373a206e657720696d706c656d656e746174696f6e206973206e60448201526c1bdd08184818dbdb9d1c9858dd609a1b6064820152608401610510565b60008051602061491483398151915280546001600160a01b0319166001600160a01b0392909216919091179055565b613a0783613b28565b600082511180613a145750805b15610f7b57612c5f8383613b68565b6000613a78826040518060400160405280602081526020017f5361666545524332303a206c6f772d6c6576656c2063616c6c206661696c6564815250856001600160a01b0316613c5e9092919063ffffffff16565b805190915015610f7b5780806020019051810190613a969190614232565b610f7b5760405162461bcd60e51b815260206004820152602a60248201527f5361666545524332303a204552433230206f7065726174696f6e20646964206e6044820152691bdd081cdd58d8d9595960b21b6064820152608401610510565b600054610100900460ff16613b1c5760405162461bcd60e51b81526004016105109061476b565b6033805460ff19169055565b613b3181613962565b6040516001600160a01b038216907fbc7cd75a20ee27fd9adebab32041f755214dbc6bffa90cc0225b39da2e5c2d3b90600090a250565b60606001600160a01b0383163b613bd05760405162461bcd60e51b815260206004820152602660248201527f416464726573733a2064656c65676174652063616c6c20746f206e6f6e2d636f6044820152651b9d1c9858dd60d21b6064820152608401610510565b600080846001600160a01b031684604051613beb91906148a4565b600060405180830381855af49150503d8060008114613c26576040519150601f19603f3d011682016040523d82523d6000602084013e613c2b565b606091505b5091509150613c53828260405180606001604052806027815260200161495460279139613c77565b925050505b92915050565b6060613c6d8484600085613cb0565b90505b9392505050565b60608315613c86575081613c70565b825115613c965782518084602001fd5b8160405162461bcd60e51b815260040161051091906148c0565b606082471015613d115760405162461bcd60e51b815260206004820152602660248201527f416464726573733a20696e73756666696369656e742062616c616e636520666f6044820152651c8818d85b1b60d21b6064820152608401610510565b6001600160a01b0385163b613d685760405162461bcd60e51b815260206004820152601d60248201527f416464726573733a2063616c6c20746f206e6f6e2d636f6e74726163740000006044820152606401610510565b600080866001600160a01b03168587604051613d8491906148a4565b60006040518083038185875af1925050503d8060008114613dc1576040519150601f19603f3d011682016040523d82523d6000602084013e613dc6565b606091505b5091509150613dd6828286613c77565b925050505b949350505050565b6001600160a01b0381168114610a8e57600080fd5b8060408101831015613c5857600080fd5b60008060008060808587031215613e1f57600080fd5b8435613e2a81613de3565b9350602085013567ffffffffffffffff80821115613e4757600080fd5b818701915087608083011115613e5c57600080fd5b90935060408601359080821115613e7257600080fd5b50613e7f87828801613df8565b9250506060850135613e9081613de3565b939692955090935050565b60008060008060808587031215613eb157600080fd5b8435613ebc81613de3565b935060208501359250604085013567ffffffffffffffff811115613edf57600080fd5b613e7f87828801613df8565b600060208284031215613efd57600080fd5b8135613c7081613de3565b6020808252825182820181905260009190848201906040850190845b81811015613f495783516001600160a01b031683529284019291840191600101613f24565b50909695505050505050565b600080600060608486031215613f6a57600080fd5b8335613f7581613de3565b9250602084013591506040840135613f8c81613de3565b809150509250925092565b60008060408385031215613faa57600080fd5b8235613fb581613de3565b91506020830135613fc581613de3565b809150509250929050565b634e487b7160e01b600052604160045260246000fd5b60405160e0810167ffffffffffffffff8111828210171561400957614009613fd0565b60405290565b600082601f83011261402057600080fd5b813567ffffffffffffffff8082111561403b5761403b613fd0565b604051601f8301601f19908116603f0116810190828211818310171561406357614063613fd0565b8160405283815286602085880101111561407c57600080fd5b836020870160208301376000602085830101528094505050505092915050565b600080604083850312156140af57600080fd5b82356140ba81613de3565b9150602083013567ffffffffffffffff8111156140d657600080fd5b612f4f8582860161400f565b60008060008060008060c087890312156140fb57600080fd5b863561410681613de3565b95506020870135945060408701359350606087013592506080870135915060a087013561413281613de3565b809150509295509295509295565b60006020828403121561415257600080fd5b5035919050565b60008060006060848603121561416e57600080fd5b833561417981613de3565b9250602084013567ffffffffffffffff81111561419557600080fd5b6141a186828701613df8565b9250506040840135613f8c81613de3565b600080600080600060a086880312156141ca57600080fd5b85356141d581613de3565b945060208601359350604086013592506060860135915060808601356141fa81613de3565b809150509295509295909350565b60208082526010908201526f14185d5cd8589b194e881c185d5cd95960821b604082015260600190565b60006020828403121561424457600080fd5b81518015158114613c7057600080fd5b60006020828403121561426657600080fd5b8151613c7081613de3565b60008235603e1983360301811261428757600080fd5b90910192915050565b60008260408082018460005b6002811015613f495784830388526142b48288614271565b8484018135601e198336030181126142cb57600080fd5b82018035602067ffffffffffffffff8211156142e657600080fd5b8160051b36038513156142f857600080fd5b888852928190529082019160009190606088015b8284101561433c57843561431f81613de3565b6001600160a01b031681529381019360019390930192810161430c565b94810135978101979097525050509783019792919091019060010161429c565b6080808252600090610100830190830186835b600481101561443857858403607f1901835261438b828a614271565b60408086018235601e198436030181126143a457600080fd5b83018035602067ffffffffffffffff8211156143bf57600080fd5b8160051b36038613156143d157600080fd5b938952918290526060880192908101916000915b818310156144175783356143f881613de3565b6001600160a01b031685529384019392830192600192909201916143e5565b9485013598850198909852509095505092830192919091019060010161436f565b505050828103602084015261444d8186614290565b84516001600160a01b03166040850152602085015160608501529150613ddb9050565b60006020828403121561448257600080fd5b5051919050565b634e487b7160e01b600052603260045260246000fd5b6000808335601e198436030181126144b657600080fd5b83018035915067ffffffffffffffff8211156144d157600080fd5b6020019150368190038213156144e657600080fd5b9250929050565b6020808252602c908201527f46756e6374696f6e206d7573742062652063616c6c6564207468726f7567682060408201526b19195b1959d85d1958d85b1b60a21b606082015260800190565b6020808252602c908201527f46756e6374696f6e206d7573742062652063616c6c6564207468726f7567682060408201526b6163746976652070726f787960a01b606082015260800190565b634e487b7160e01b600052601160045260246000fd5b6000828210156145ad576145ad614585565b500390565b600080604083850312156145c557600080fd5b505080516020909101519092909150565b600080858511156145e657600080fd5b838611156145f357600080fd5b5050820193919092039150565b600080600083850361012081121561461757600080fd5b843561462281613de3565b935060e0601f198201121561463657600080fd5b5061463f613fe6565b602085013561464d81613de3565b8152604085013561465d81613de3565b6020820152606085013561467081613de3565b6040820152608085013561468381613de3565b8060608301525060a0850135608082015260c085013560a082015260e085013560c08201528092505061010084013567ffffffffffffffff8111156146c757600080fd5b6146d38682870161400f565b9150509250925092565b6001600160e01b031981358181169160048510156147055780818660040360031b1b83161692505b505092915050565b8183823760009101908152919050565b6020808252602e908201527f496e697469616c697a61626c653a20636f6e747261637420697320616c72656160408201526d191e481a5b9a5d1a585b1a5e995960921b606082015260800190565b6020808252602b908201527f496e697469616c697a61626c653a20636f6e7472616374206973206e6f74206960408201526a6e697469616c697a696e6760a81b606082015260800190565b60008160001904831182151516156147d0576147d0614585565b500290565b6000826147f257634e487b7160e01b600052601260045260246000fd5b500490565b60008060006060848603121561480c57600080fd5b8351925060208401519150604084015190509250925092565b6000821982111561483857614838614585565b500190565b6001600160a01b039687168152602081019590955260408501939093526060840191909152909216608082015260a081019190915260c00190565b60005b8381101561489357818101518382015260200161487b565b83811115612c5f5750506000910152565b600082516148b6818460208701614878565b9190910192915050565b60208152600082518060208401526148df816040850160208701614878565b601f01601f1916919091016040019291505056fe3115d1449a7b732c986cba18244e897a450f61e1bb8d589cd2e69e6c8924f9f7360894a13ba1a3210667c828492db98dca3e2076cc3735a920a3ca505d382bbc7cfff908a4b583f36430b25d75964c458d8ede8a99bd61be750e97ee1b2f3a96416464726573733a206c6f772d6c6576656c2064656c65676174652063616c6c206661696c6564a26469706673582212204097a3d848a3e47cf5bdf9d9354ad2afb67470b6f881d28de46c4218665917db64736f6c634300080a0033496e697469616c697a61626c653a20636f6e747261637420697320616c726561",
  "immutableReferences": {
    "561": [
      {
        "length": 32,
        "start": 2492
      },
      {
        "length": 32,
        "start": 2556
      },
      {
        "length": 32,
        "start": 3979
      },
      {
        "length": 32,
        "start": 4043
      },
      {
        "length": 32,
        "start": 4456
      }
    ]
  },
  "source": "// SPDX-License-Identifier: MIT\r\npragma solidity 0.8.10;\r\n\r\nimport './interfaces/IUnoAssetRouterApeswap.sol'; \r\nimport '../../interfaces/IUnoFarm.sol';\r\nimport \"../../interfaces/IAggregationRouterV5.sol\";\r\nimport \"../../interfaces/IUniswapV2Pair.sol\";\r\nimport \"../../interfaces/IUniswapV2Router.sol\";\r\nimport '@openzeppelin/contracts/token/ERC20/utils/SafeERC20.sol';\r\nimport '@openzeppelin/contracts-upgradeable/proxy/utils/Initializable.sol';\r\nimport '@openzeppelin/contracts-upgradeable/security/PausableUpgradeable.sol';\r\nimport '@openzeppelin/contracts-upgradeable/proxy/utils/UUPSUpgradeable.sol';\r\n\r\ncontract UnoAssetRouterApeswap is Initializable, PausableUpgradeable, UUPSUpgradeable, IUnoAssetRouterApeswap {\r\n    using SafeERC20 for IERC20;\r\n\r\n    /**\r\n     * @dev Contract Variables:\r\n     * farmFactory - The contract that deploys new Farms and links them to {lpPair}s.\r\n     * accessManager - Role manager contract.\r\n     */\r\n    IUnoFarmFactory public farmFactory;\r\n    IUnoAccessManager public accessManager;\r\n\r\n    bytes32 private constant DISTRIBUTOR_ROLE = keccak256('DISTRIBUTOR_ROLE');\r\n    bytes32 private constant PAUSER_ROLE = keccak256('PAUSER_ROLE');\r\n\r\n    uint256 public fee;\r\n\r\n    address public constant WMATIC = 0x0d500B1d8E8eF31E21C99d1Db9A6444d3ADf1270;\r\n    IUniswapV2Router01 private constant ApeswapRouter = IUniswapV2Router01(0xC0788A3aD43d79aa53B09c2EaCc313A787d1d607);\r\n    address private constant OneInchRouter = 0x1111111254EEB25477B68fb85Ed929f73A960582;\r\n\r\n    modifier onlyRole(bytes32 role){\r\n        if(!accessManager.hasRole(role, msg.sender)) revert CALLER_NOT_AUTHORIZED();\r\n        _;\r\n    }\r\n\r\n    // ============ Methods ============\r\n\r\n    /// @custom:oz-upgrades-unsafe-allow constructor\r\n    constructor() {\r\n        _disableInitializers();\r\n    }\r\n\r\n    function initialize(address _accessManager, address _farmFactory) external initializer{\r\n        if(_accessManager == address(0)) revert INVALID_ACCESS_MANAGER();\r\n        if(_farmFactory == address(0)) revert INVALID_FARM_FACTORY();\r\n\r\n        __Pausable_init();\r\n        accessManager = IUnoAccessManager(_accessManager);\r\n        farmFactory = IUnoFarmFactory(_farmFactory);\r\n    }\r\n\r\n    receive() external payable {\r\n        //Reject deposits from EOA\r\n        if (msg.sender == tx.origin) revert ETH_DEPOSIT_REJECTED();\r\n    }\r\n\r\n    /**\r\n     * @dev Deposits tokens in the given pool. Creates new Farm contract if there isn't one deployed for the {lpPair} and deposits tokens in it. Emits a {Deposit} event.\r\n     * @param lpPair - Address of the pool to deposit tokens in.\r\n     * @param amountA  - Token A amount to deposit.\r\n     * @param amountB -  Token B amount to deposit.\r\n     * @param amountAMin - Bounds the extent to which the B/A price can go up before the transaction reverts.\r\n     * @param amountBMin - Bounds the extent to which the A/B price can go up before the transaction reverts.\r\n     * @param recipient - Address which will receive the deposit.\r\n     \r\n     * @return sentA - Token A amount sent to the farm.\r\n     * @return sentB - Token B amount sent to the farm.\r\n     * @return liquidity - Total liquidity sent to the farm (in lpTokens).\r\n     */\r\n    function deposit(address lpPair, uint256 amountA, uint256 amountB, uint256 amountAMin, uint256 amountBMin, address recipient) external whenNotPaused returns(uint256 sentA, uint256 sentB, uint256 liquidity){\r\n        if(amountA == 0 || amountB == 0) revert NO_TOKENS_SENT();\r\n        Farm farm = Farm(farmFactory.Farms(lpPair));\r\n        if(farm == Farm(address(0))){\r\n            farm = Farm(farmFactory.createFarm(lpPair));\r\n        }\r\n\r\n        address tokenA = farm.tokenA();\r\n        address tokenB = farm.tokenB();\r\n        IERC20(tokenA).safeTransferFrom(msg.sender, address(this), amountA);\r\n        IERC20(tokenB).safeTransferFrom(msg.sender, address(this), amountB);\r\n\r\n        (sentA, sentB, liquidity) = _addLiquidity(tokenA, tokenB, amountA, amountB, amountAMin, amountBMin, address(farm));\r\n        farm.deposit(liquidity, recipient);\r\n\r\n        emit Deposit(lpPair, msg.sender, recipient, liquidity); \r\n    }\r\n\r\n    /**\r\n     * @dev Autoconverts MATIC into WMATIC and deposits tokens in the given pool. Creates new Farm contract if there isn't one deployed for the {lpStakingPool} and deposits tokens in it. Emits a {Deposit} event.\r\n     * @param lpPair - Address of the pool to deposit tokens in.\r\n     * @param amountToken  - Token amount to deposit.\r\n     * @param amountTokenMin - Bounds the extent to which the TOKEN/WMATIC price can go up before the transaction reverts.\r\n     * @param amountETHMin - Bounds the extent to which the WMATIC/TOKEN price can go up before the transaction reverts.\r\n     * @param recipient - Address which will receive the deposit.\r\n     \r\n     * @return sentToken - Token amount sent to the farm.\r\n     * @return sentETH - WMATIC amount sent to the farm.\r\n     * @return liquidity - Total liquidity sent to the farm (in lpTokens).\r\n     */\r\n    function depositETH(address lpPair, uint256 amountToken, uint256 amountTokenMin, uint256 amountETHMin, address recipient) external payable whenNotPaused returns(uint256 sentToken, uint256 sentETH, uint256 liquidity){\r\n        if(msg.value == 0 || amountToken == 0) revert NO_TOKENS_SENT();\r\n        Farm farm = Farm(farmFactory.Farms(lpPair));\r\n        if(farm == Farm(address(0))){\r\n            farm = Farm(farmFactory.createFarm(lpPair));\r\n        }\r\n\r\n        address tokenA = farm.tokenA();\r\n        address tokenB = farm.tokenB();\r\n        if (tokenA == WMATIC) {\r\n            IERC20(tokenB).safeTransferFrom(msg.sender, address(this), amountToken);\r\n            (sentToken, sentETH, liquidity) = _addLiquidityETH(tokenB, amountToken, amountTokenMin, amountETHMin, address(farm));\r\n        } else if (tokenB == WMATIC) {\r\n            IERC20(tokenA).safeTransferFrom(msg.sender, address(this), amountToken);\r\n            (sentToken, sentETH, liquidity) = _addLiquidityETH(tokenA, amountToken, amountTokenMin, amountETHMin, address(farm));\r\n        } else revert NOT_ETH_FARM();\r\n\r\n        farm.deposit(liquidity, recipient);\r\n\r\n        emit Deposit(lpPair, msg.sender, recipient, liquidity);\r\n    }\r\n\r\n    /**\r\n     * @dev Deposits any tokens in the given pool by swapping them using 1inch. Creates new Farm contract if there isn't one deployed for the {lpPair}, swaps {token} for pool tokens and deposits them. Emits a {Deposit} event.\r\n     * @param lpPair - Address of the pool to deposit tokens in.\r\n     * @param swapData - Parameters with which 1inch router is being called with.\r\n     * @param recipient - Address which will receive the deposit.\r\n     \r\n     * @return sent0 - Tokens sent to the farm from the {swapData[0]}.\r\n     * @return sent1 - Tokens sent to the farm from the {swapData[1]}.\r\n     * @return dustA - TokenA dust sent to the {msg.sender}.\r\n     * @return dustB - TokenB dust sent to the {msg.sender}.\r\n     * @return liquidity - Total liquidity sent to the farm (in lpTokens).\r\n     */\r\n    function depositWithSwap(address lpPair, bytes[2] calldata swapData, address recipient) external payable whenNotPaused returns(uint256 sent0, uint256 sent1, uint256 dustA, uint256 dustB, uint256 liquidity){\r\n        Farm farm = Farm(farmFactory.Farms(lpPair));\r\n        if(farm == Farm(address(0))){\r\n            farm = Farm(farmFactory.createFarm(lpPair));\r\n        }\r\n\r\n        _checkMsgValue(swapData);\r\n        \r\n        {\r\n        address tokenA = farm.tokenA();\r\n        address tokenB = farm.tokenB();\r\n\r\n        uint256 amountA; uint256 amountAMin;\r\n        uint256 amountB; uint256 amountBMin;\r\n        (amountA, sent0, amountAMin) = _swapDeposit(swapData[0], IERC20(tokenA));\r\n        (amountB, sent1, amountBMin) = _swapDeposit(swapData[1], IERC20(tokenB));\r\n\r\n        // Variable naming is not correct, however I have to do it this way to avoid Stack too deep error.\r\n        (amountAMin, amountBMin, liquidity) = _addLiquidity(tokenA, tokenB, amountA, amountB, amountAMin, amountBMin, address(farm));\r\n        farm.deposit(liquidity, recipient);\r\n        \r\n        if(amountA > amountAMin){\r\n            dustA = amountA - amountAMin;\r\n        }\r\n        if(amountB > amountBMin){\r\n            dustB = amountB - amountBMin;\r\n        }\r\n        }\r\n\r\n        emit Deposit(lpPair, msg.sender, recipient, liquidity);\r\n    }\r\n\r\n    /**\r\n     * @dev Deposits tokens in the given pool. Creates new Farm contract if there isn't one deployed for the {lpPair} and deposits tokens in it. Emits a {Deposit} event.\r\n     * @param lpPair - Address of the pool to deposit tokens in.\r\n     * @param amount - LP Token amount to deposit.\r\n     * @param recipient - Address which will receive the deposit.\r\n     */\r\n    function depositLP(address lpPair, uint256 amount, address recipient) external whenNotPaused{\r\n        if(amount == 0) revert NO_TOKENS_SENT();\r\n        Farm farm = Farm(farmFactory.Farms(lpPair));\r\n        if(farm == Farm(address(0))){\r\n            farm = Farm(farmFactory.createFarm(lpPair));\r\n        }\r\n\r\n        IERC20(lpPair).safeTransferFrom(msg.sender, address(farm), amount);\r\n        farm.deposit(amount, recipient);\r\n\r\n        emit Deposit(lpPair, msg.sender, recipient, amount); \r\n    }\r\n\r\n    /** \r\n     * @dev Withdraws a pair of tokens from the given pool. Emits a {Withdraw} event.\r\n     * @param lpPair - LP pool to withdraw from.\r\n     * @param amount - LP amount to withdraw. \r\n     * @param amountAMin - The minimum amount of tokenA that must be received for the transaction not to revert.\r\n     * @param amountBMin - The minimum amount of tokenB that must be received for the transaction not to revert.\r\n     * @param recipient - The address which will receive tokens.\r\n\r\n     * @return amountA - Token A amount sent to the {recipient}\r\n     * @return amountB - Token B amount sent to the {recipient}\r\n     */ \r\n    function withdraw(address lpPair, uint256 amount, uint256 amountAMin, uint256 amountBMin, address recipient) external returns(uint256 amountA, uint256 amountB){\r\n        Farm farm = Farm(farmFactory.Farms(lpPair));\r\n        if(farm == Farm(address(0))) revert FARM_NOT_EXISTS();\r\n\r\n        farm.withdraw(amount, msg.sender, address(this));\r\n        (amountA, amountB) = _removeLiquidity(lpPair, farm.tokenA(), farm.tokenB(), amount, amountAMin, amountBMin, recipient);\r\n        \r\n        emit Withdraw(lpPair, msg.sender, recipient, amount);  \r\n    }\r\n\r\n    /** \r\n     * @dev Autoconverts WMATIC into MATIC and withdraws tokens from the pool. Emits a {Withdraw} event.\r\n     * @param lpPair - LP pool to withdraw from.\r\n     * @param amount - LP amount to withdraw. \r\n     * @param amountTokenMin - The minimum amount of token that must be received for the transaction not to revert.\r\n     * @param amountETHMin - The minimum amount of MATIC that must be received for the transaction not to revert.\r\n     * @param recipient - The address which will receive tokens.\r\n\r\n     * @return amountToken - Token amount sent to the {recipient}.\r\n     * @return amountETH - MATIC amount sent to the {recipient}.\r\n     */ \r\n    function withdrawETH(address lpPair, uint256 amount, uint256 amountTokenMin, uint256 amountETHMin, address recipient) external returns(uint256 amountToken, uint256 amountETH){\r\n        Farm farm = Farm(farmFactory.Farms(lpPair));\r\n        if(farm == Farm(address(0))) revert FARM_NOT_EXISTS();\r\n\r\n        address tokenA = farm.tokenA();\r\n        address tokenB = farm.tokenB();\r\n\r\n        farm.withdraw(amount, msg.sender, address(this));\r\n        if (tokenA == WMATIC) {\r\n            (amountToken, amountETH) = _removeLiquidityETH(lpPair, tokenB, amount, amountTokenMin, amountETHMin, recipient);\r\n        } else if (tokenB == WMATIC) {\r\n            (amountToken, amountETH) = _removeLiquidityETH(lpPair, tokenA, amount, amountTokenMin, amountETHMin, recipient);\r\n        } else revert NOT_ETH_FARM();\r\n\r\n        emit Withdraw(lpPair, msg.sender, recipient, amount);\r\n    }\r\n\r\n    /**\r\n     * @dev Withdraws tokens from the given pool and swap them using 1inch. Emits a {Withdraw} event. Note: If there are any tokens left to be withdrawn after swaps they will be sent to the {{recipient}} in a respective token.\r\n     * @param lpPair - LP pool to withdraw from.\r\n     * @param amount - LP amount to withdraw. \r\n     * @param swapData - Parameters with which 1inch router is being called with.\r\n     * @param recipient - The address which will receive tokens.\r\n     \r\n     * @return amount0 - Tokens sent to the {recipient} from the {swapData[0]}.\r\n     * @return amount1 - Tokens sent to the {recipient} from the {swapData[1]}.\r\n     * @return amountA - TokenA dust sent to the {recipient}.\r\n     * @return amountB - TokenB dust to the {recipient}.\r\n     */\r\n    function withdrawWithSwap(address lpPair, uint256 amount, bytes[2] calldata swapData, address recipient) external returns(uint256 amount0, uint256 amount1, uint256 amountA, uint256 amountB){\r\n        Farm farm = Farm(farmFactory.Farms(lpPair));\r\n        if(farm == Farm(address(0))) revert FARM_NOT_EXISTS();\r\n\r\n        farm.withdraw(amount, msg.sender, address(this));\r\n\r\n        address tokenA = farm.tokenA();\r\n        address tokenB = farm.tokenB();\r\n        (uint256 _amountA, uint256 _amountB) = _removeLiquidity(lpPair, tokenA, tokenB, amount, 0, 0, address(this));\r\n        \r\n        (amount0, amountA) = _swapWithdraw(swapData[0], IERC20(tokenA), _amountA, recipient);\r\n        (amount1, amountB) = _swapWithdraw(swapData[1], IERC20(tokenB), _amountB, recipient);\r\n\r\n        emit Withdraw(lpPair, msg.sender, recipient, amount);\r\n    }\r\n\r\n    /** \r\n     * @dev Withdraws LP tokens from the given pool. Emits a {Withdraw} event.\r\n     * @param lpPair - LP pool to withdraw from.\r\n     * @param amount - LP amount to withdraw. \r\n     * @param recipient - The address which will receive tokens.\r\n     */ \r\n    function withdrawLP(address lpPair, uint256 amount, address recipient) external {\r\n        Farm farm = Farm(farmFactory.Farms(lpPair));\r\n        if(farm == Farm(address(0))) revert FARM_NOT_EXISTS();\r\n        \r\n        farm.withdraw(amount, msg.sender, recipient);\r\n        emit Withdraw(lpPair, msg.sender, recipient, amount);  \r\n    }\r\n\r\n    /**\r\n     * @dev Distributes tokens between users.\r\n     * @param lpPair - LP pool to distribute tokens in.\r\n     * @param swapInfos - Arrays of structs with token arrays describing swap routes (rewardTokenToTokenA, rewardTokenToTokenB, rewarderTokenToTokenA, rewarderTokenToTokenB) and minimum amounts of output tokens that must be received for the transaction not to revert.\r\n     * @param feeSwapInfos - Arrays of structs with token arrays describing swap routes (rewardTokenToFeeToken, rewarderTokenToFeeToken) and minimum amounts of output tokens that must be received for the transaction not to revert.\r\n     * @param feeTo - Address to collect fees to.\r\n     *\r\n     * Note: This function can only be called by the distributor.\r\n     */ \r\n    function distribute(\r\n        address lpPair,\r\n        Farm.SwapInfo[4] calldata swapInfos,\r\n        Farm.SwapInfo[2] calldata feeSwapInfos,\r\n        address feeTo\r\n    ) external whenNotPaused onlyRole(DISTRIBUTOR_ROLE) returns(uint256 reward){\r\n        Farm farm = Farm(farmFactory.Farms(lpPair));\r\n        if(farm == Farm(address(0))) revert FARM_NOT_EXISTS();\r\n\r\n        //I don't understand why the definition for FeeInfo can not be imported from Farm\r\n        reward = farm.distribute(swapInfos, feeSwapInfos, IUnoFarm.FeeInfo(feeTo, fee));\r\n        emit Distribute(lpPair, reward);\r\n    }\r\n\r\n    /**\r\n     * @dev Returns tokens staked by the {_address} for the given {lpPair}.\r\n     * @param _address - The address to check stakes for.\r\n     * @param lpPair - LP pool to check stakes in.\r\n\r\n     * @return stakeLP - Total user stake(in LP tokens).\r\n     * @return stakeA - Token A stake.\r\n     * @return stakeB - Token B stake.\r\n     */\r\n    function userStake(address _address, address lpPair) external view returns (uint256 stakeLP, uint256 stakeA, uint256 stakeB) {\r\n        Farm farm = Farm(farmFactory.Farms(lpPair));\r\n        if (farm != Farm(address(0))) {\r\n            stakeLP = farm.userBalance(_address);\r\n            (stakeA, stakeB) = _getTokenStake(lpPair, stakeLP);\r\n        }\r\n    }\r\n\r\n    /**\r\n     * @dev Returns total amount locked in the pool. Doesn't take pending rewards into account.\r\n     * @param lpPair - LP pool to check total deposits in.\r\n\r\n     * @return totalDepositsLP - Total deposits (in LP tokens).\r\n     * @return totalDepositsA - Token A deposits.\r\n     * @return totalDepositsB - Token B deposits.\r\n     */  \r\n    function totalDeposits(address lpPair) external view returns (uint256 totalDepositsLP, uint256 totalDepositsA, uint256 totalDepositsB) {\r\n        Farm farm = Farm(farmFactory.Farms(lpPair));\r\n        if (farm != Farm(address(0))) {\r\n            totalDepositsLP = farm.getTotalDeposits(); \r\n            (totalDepositsA, totalDepositsB) = _getTokenStake(lpPair, totalDepositsLP);\r\n        }\r\n    }\r\n\r\n    /**\r\n     * @dev Returns addresses of tokens in {lpPair}.\r\n     * @param lpPair - LP pair to check tokens in.\r\n\r\n     * @return tokens - Tokens addresses.\r\n     */  \r\n    function getTokens(address lpPair) external view returns(IERC20[] memory tokens){\r\n        tokens = new IERC20[](2);\r\n        tokens[0] = IERC20(IUniswapV2Pair(lpPair).token0());\r\n        tokens[1] = IERC20(IUniswapV2Pair(lpPair).token1());\r\n    }\r\n\r\n    /**\r\n     * @dev Deposits assets to router & refunds dust.\r\n     */ \r\n    function _addLiquidity(\r\n        address tokenA,\r\n        address tokenB, \r\n        uint256 amountA, \r\n        uint256 amountB, \r\n        uint256 amountAMin, \r\n        uint256 amountBMin, \r\n        address farm\r\n    ) internal returns(uint256 sentA, uint256 sentB, uint256 liquidity){\r\n        IERC20(tokenA).approve(address(ApeswapRouter), amountA);\r\n        IERC20(tokenB).approve(address(ApeswapRouter), amountB);\r\n\r\n        (sentA, sentB, liquidity) = ApeswapRouter.addLiquidity(tokenA, tokenB, amountA, amountB, amountAMin, amountBMin, farm, block.timestamp);\r\n        // Refund dust\r\n        if(amountA > sentA){\r\n            IERC20(tokenA).safeTransfer(msg.sender, amountA - sentA);\r\n        }\r\n        if(amountB > sentB){\r\n\t\t    IERC20(tokenB).safeTransfer(msg.sender, amountB - sentB);\r\n        }\r\n    }\r\n\r\n    /**\r\n     * @dev Deposits assets to router & refunds dust.\r\n     */ \r\n    function _addLiquidityETH(\r\n        address token,\r\n        uint256 amount, \r\n        uint256 amountTokenMin, \r\n        uint256 amountETHMin, \r\n        address farm\r\n    ) internal returns(uint256 sentToken, uint256 sentETH, uint256 liquidity){\r\n        IERC20(token).approve(address(ApeswapRouter), amount);\r\n\r\n        (sentToken, sentETH, liquidity) = ApeswapRouter.addLiquidityETH{value: msg.value}(token, amount, amountTokenMin, amountETHMin, farm, block.timestamp);\r\n        // Refund dust\r\n        if(amount > sentToken){\r\n            IERC20(token).safeTransfer(msg.sender, amount - sentToken);\r\n        }\r\n        if(msg.value > sentETH){\r\n            payable(msg.sender).transfer(msg.value - sentETH);\r\n        }\r\n    }\r\n\r\n    /**\r\n     * @dev Withdraws assets from router.\r\n     */ \r\n    function _removeLiquidity(\r\n        address lpPair,\r\n        address tokenA,\r\n        address tokenB, \r\n        uint256 amount, \r\n        uint256 amountAMin, \r\n        uint256 amountBMin, \r\n        address recipient\r\n    ) internal returns(uint256 amountA, uint256 amountB){\r\n        IERC20(lpPair).approve(address(ApeswapRouter), amount);\r\n        (amountA, amountB) = ApeswapRouter.removeLiquidity(tokenA, tokenB, amount, amountAMin, amountBMin, recipient, block.timestamp);\r\n    }\r\n\r\n    /**\r\n     * @dev Withdraws assets from router.\r\n     */ \r\n    function _removeLiquidityETH(\r\n        address lpPair,\r\n        address token,\r\n        uint256 amount, \r\n        uint256 amountTokenMin, \r\n        uint256 amountETHMin, \r\n        address recipient\r\n    ) internal returns(uint256 amountToken, uint256 amountETH){\r\n        IERC20(lpPair).approve(address(ApeswapRouter), amount);\r\n        (amountToken, amountETH) = ApeswapRouter.removeLiquidityETH(token, amount, amountTokenMin, amountETHMin, recipient, block.timestamp);\r\n    }\r\n\r\n    function _swapDeposit(bytes calldata swapData, IERC20 toToken) internal returns(uint256 returnAmount, uint256 spentAmount, uint256 amountMin){\r\n        (,IAggregationRouterV5.SwapDescription memory desc,) = abi.decode(swapData[4:], (address, IAggregationRouterV5.SwapDescription, bytes));\r\n        \r\n        amountMin = desc.minReturnAmount;\r\n        if(desc.srcToken == toToken){\r\n            if(desc.amount == 0) revert INVALID_SWAP_DESCRIPTION();\r\n            desc.srcToken.safeTransferFrom(msg.sender, address(this), desc.amount);\r\n            return (desc.amount, desc.amount, amountMin);\r\n        }\r\n        \r\n        if(\r\n            bytes4(swapData[:4]) != IAggregationRouterV5.swap.selector || \r\n            desc.dstToken != toToken || \r\n            desc.amount == 0 ||\r\n            desc.dstReceiver != address(this)\r\n        ) revert INVALID_SWAP_DESCRIPTION();\r\n\r\n        bool isETH = (address(desc.srcToken) == address(0) || address(desc.srcToken) == address(0xEeeeeEeeeEeEeeEeEeEeeEEEeeeeEeeeeeeeEEeE));\r\n        if(!isETH){\r\n            desc.srcToken.safeTransferFrom(msg.sender, address(this), desc.amount);\r\n            desc.srcToken.approve(OneInchRouter, desc.amount);\r\n        }\r\n\r\n        {\r\n        uint256 value = isETH ? desc.amount : 0;\r\n        (bool success, bytes memory data) = OneInchRouter.call{value: value}(swapData);\r\n        if(!success) revert SWAP_NOT_SUCCESSFUL();\r\n        (returnAmount, spentAmount) = abi.decode(data, (uint256, uint256));\r\n        }\r\n\r\n        if(desc.amount > spentAmount){\r\n            if(isETH){\r\n                (bool success, ) = msg.sender.call{value: desc.amount - spentAmount}(\"\");\r\n                if(!success) revert TRANSFER_NOT_SUCCESSFUL();\r\n            }else{\r\n                desc.srcToken.safeTransfer(address(msg.sender), desc.amount - spentAmount);\r\n            }\r\n        }\r\n    }\r\n \r\n    function _swapWithdraw(bytes calldata swapData, IERC20 fromToken, uint256 maxAmount, address recipient) internal returns(uint256 returnAmount, uint256 dust){\r\n        (,IAggregationRouterV5.SwapDescription memory desc,) = abi.decode(swapData[4:], (address, IAggregationRouterV5.SwapDescription, bytes));\r\n        \r\n        if(desc.dstToken == fromToken){\r\n            fromToken.safeTransfer(recipient, maxAmount);\r\n            return (maxAmount, 0);\r\n        }\r\n        \r\n        if(\r\n            bytes4(swapData[:4]) != IAggregationRouterV5.swap.selector || \r\n            desc.srcToken != fromToken ||\r\n            desc.amount == 0 ||\r\n            desc.dstReceiver != recipient\r\n        ) revert INVALID_SWAP_DESCRIPTION();\r\n\r\n        desc.srcToken.approve(OneInchRouter, desc.amount);\r\n        (bool success, bytes memory data) = OneInchRouter.call(swapData);\r\n        if(!success) revert SWAP_NOT_SUCCESSFUL();\r\n        uint256 spentAmount;\r\n        (returnAmount, spentAmount) = abi.decode(data, (uint256, uint256));\r\n\r\n        if(maxAmount > spentAmount){\r\n            dust = maxAmount - spentAmount;\r\n            desc.srcToken.safeTransfer(recipient, dust);\r\n        } else if(maxAmount != spentAmount) revert INSUFFICIENT_AMOUNT();\r\n    }\r\n\r\n    function _checkMsgValue(bytes[2] calldata swapData) internal view {\r\n        uint256 value;\r\n\r\n        (,IAggregationRouterV5.SwapDescription memory desc0,) = abi.decode(swapData[0][4:], (address, IAggregationRouterV5.SwapDescription, bytes));\r\n        if(address(desc0.srcToken) == address(0) || address(desc0.srcToken) == address(0xEeeeeEeeeEeEeeEeEeEeeEEEeeeeEeeeeeeeEEeE)){\r\n            value = desc0.amount;\r\n        }\r\n\r\n        (,IAggregationRouterV5.SwapDescription memory desc1,) = abi.decode(swapData[1][4:], (address, IAggregationRouterV5.SwapDescription, bytes));\r\n        if(address(desc1.srcToken) == address(0) || address(desc1.srcToken) == address(0xEeeeeEeeeEeEeeEeEeEeeEEEeeeeEeeeeeeeEEeE)){\r\n            value += desc1.amount;\r\n        }\r\n\r\n        if(msg.value != value) revert INVALID_MSG_VALUE();\r\n    }\r\n\r\n    /**\r\n     * @dev Converts LP tokens to normal tokens, value(amountA) == value(amountB) == 0.5*amountLP\r\n     * @param lpPair - LP pair for conversion.\r\n     * @param amountLP - Amount of LP tokens to convert.\r\n\r\n     * @return amountA - Token A amount.\r\n     * @return amountB - Token B amount.\r\n     */ \r\n    function _getTokenStake(address lpPair, uint256 amountLP) internal view returns (uint256 amountA, uint256 amountB) {\r\n        uint256 totalSupply = IERC20(lpPair).totalSupply();\r\n        amountA = amountLP * IERC20(IUniswapV2Pair(lpPair).token0()).balanceOf(lpPair) / totalSupply;\r\n        amountB = amountLP * IERC20(IUniswapV2Pair(lpPair).token1()).balanceOf(lpPair) / totalSupply;\r\n    }\r\n\r\n    /**\r\n     * @dev Change fee amount.\r\n     * @param _fee -New fee to collect from farms. [10^18 == 100%]\r\n     *\r\n     * Note: This function can only be called by ADMIN_ROLE.\r\n     */ \r\n    function setFee(uint256 _fee) external onlyRole(accessManager.ADMIN_ROLE()){\r\n        if(_fee > 1 ether) revert MAX_FEE_EXCEEDED(1 ether);\r\n        if(fee != _fee){\r\n            emit FeeChanged(fee, _fee); \r\n            fee = _fee;\r\n        }\r\n    }\r\n \r\n    function pause() external onlyRole(PAUSER_ROLE) {\r\n        _pause();\r\n    }\r\n\r\n    function unpause() external onlyRole(PAUSER_ROLE) {\r\n        _unpause();\r\n    }\r\n\r\n    function _authorizeUpgrade(address) internal override onlyRole(accessManager.ADMIN_ROLE()) {\r\n\r\n    }\r\n}\r\n",
  "sourcePath": "C:\\Users\\jugli\\Desktop\\uno\\uno-contracts\\contracts\\apps\\apeswap\\UnoAssetRouterApeswap.sol",
  "compiler": {
    "name": "solc",
    "version": "0.8.10+commit.fc410830.Emscripten.clang"
  },
  "schemaVersion": "3.4.13",
  "updatedAt": "2023-06-12T06:59:35.432Z",
  "networkType": "ethereum",
  "devdoc": {
    "kind": "dev",
    "methods": {
      "constructor": {
        "custom:oz-upgrades-unsafe-allow": "constructor"
      },
      "deposit(address,uint256,uint256,uint256,uint256,address)": {
        "details": "Deposits tokens in the given pool. Creates new Farm contract if there isn't one deployed for the {lpPair} and deposits tokens in it. Emits a {Deposit} event.",
        "params": {
          "amountA": "- Token A amount to deposit.",
          "amountAMin": "- Bounds the extent to which the B/A price can go up before the transaction reverts.",
          "amountB": "-  Token B amount to deposit.",
          "amountBMin": "- Bounds the extent to which the A/B price can go up before the transaction reverts.",
          "lpPair": "- Address of the pool to deposit tokens in.",
          "recipient": "- Address which will receive the deposit."
        },
        "returns": {
          "liquidity": "- Total liquidity sent to the farm (in lpTokens).",
          "sentA": "- Token A amount sent to the farm.",
          "sentB": "- Token B amount sent to the farm."
        }
      },
      "depositETH(address,uint256,uint256,uint256,address)": {
        "details": "Autoconverts MATIC into WMATIC and deposits tokens in the given pool. Creates new Farm contract if there isn't one deployed for the {lpStakingPool} and deposits tokens in it. Emits a {Deposit} event.",
        "params": {
          "amountETHMin": "- Bounds the extent to which the WMATIC/TOKEN price can go up before the transaction reverts.",
          "amountToken": "- Token amount to deposit.",
          "amountTokenMin": "- Bounds the extent to which the TOKEN/WMATIC price can go up before the transaction reverts.",
          "lpPair": "- Address of the pool to deposit tokens in.",
          "recipient": "- Address which will receive the deposit."
        },
        "returns": {
          "liquidity": "- Total liquidity sent to the farm (in lpTokens).",
          "sentETH": "- WMATIC amount sent to the farm.",
          "sentToken": "- Token amount sent to the farm."
        }
      },
      "depositLP(address,uint256,address)": {
        "details": "Deposits tokens in the given pool. Creates new Farm contract if there isn't one deployed for the {lpPair} and deposits tokens in it. Emits a {Deposit} event.",
        "params": {
          "amount": "- LP Token amount to deposit.",
          "lpPair": "- Address of the pool to deposit tokens in.",
          "recipient": "- Address which will receive the deposit."
        }
      },
      "depositWithSwap(address,bytes[2],address)": {
        "details": "Deposits any tokens in the given pool by swapping them using 1inch. Creates new Farm contract if there isn't one deployed for the {lpPair}, swaps {token} for pool tokens and deposits them. Emits a {Deposit} event.",
        "params": {
          "lpPair": "- Address of the pool to deposit tokens in.",
          "recipient": "- Address which will receive the deposit.",
          "swapData": "- Parameters with which 1inch router is being called with."
        },
        "returns": {
          "dustA": "- TokenA dust sent to the {msg.sender}.",
          "dustB": "- TokenB dust sent to the {msg.sender}.",
          "liquidity": "- Total liquidity sent to the farm (in lpTokens).",
          "sent0": "- Tokens sent to the farm from the {swapData[0]}.",
          "sent1": "- Tokens sent to the farm from the {swapData[1]}."
        }
      },
      "distribute(address,(address[],uint256)[4],(address[],uint256)[2],address)": {
        "details": "Distributes tokens between users.",
        "params": {
          "feeSwapInfos": "- Arrays of structs with token arrays describing swap routes (rewardTokenToFeeToken, rewarderTokenToFeeToken) and minimum amounts of output tokens that must be received for the transaction not to revert.",
          "feeTo": "- Address to collect fees to. Note: This function can only be called by the distributor.",
          "lpPair": "- LP pool to distribute tokens in.",
          "swapInfos": "- Arrays of structs with token arrays describing swap routes (rewardTokenToTokenA, rewardTokenToTokenB, rewarderTokenToTokenA, rewarderTokenToTokenB) and minimum amounts of output tokens that must be received for the transaction not to revert."
        }
      },
      "getTokens(address)": {
        "details": "Returns addresses of tokens in {lpPair}.",
        "params": {
          "lpPair": "- LP pair to check tokens in."
        },
        "returns": {
          "tokens": "- Tokens addresses."
        }
      },
      "paused()": {
        "details": "Returns true if the contract is paused, and false otherwise."
      },
      "proxiableUUID()": {
        "details": "Implementation of the ERC1822 {proxiableUUID} function. This returns the storage slot used by the implementation. It is used to validate that the this implementation remains valid after an upgrade. IMPORTANT: A proxy pointing at a proxiable contract should not be considered proxiable itself, because this risks bricking a proxy that upgrades to it, by delegating to itself until out of gas. Thus it is critical that this function revert if invoked through a proxy. This is guaranteed by the `notDelegated` modifier."
      },
      "setFee(uint256)": {
        "details": "Change fee amount.",
        "params": {
          "_fee": "-New fee to collect from farms. [10^18 == 100%] Note: This function can only be called by ADMIN_ROLE."
        }
      },
      "totalDeposits(address)": {
        "details": "Returns total amount locked in the pool. Doesn't take pending rewards into account.",
        "params": {
          "lpPair": "- LP pool to check total deposits in."
        },
        "returns": {
          "totalDepositsA": "- Token A deposits.",
          "totalDepositsB": "- Token B deposits.",
          "totalDepositsLP": "- Total deposits (in LP tokens)."
        }
      },
      "upgradeTo(address)": {
        "details": "Upgrade the implementation of the proxy to `newImplementation`. Calls {_authorizeUpgrade}. Emits an {Upgraded} event."
      },
      "upgradeToAndCall(address,bytes)": {
        "details": "Upgrade the implementation of the proxy to `newImplementation`, and subsequently execute the function call encoded in `data`. Calls {_authorizeUpgrade}. Emits an {Upgraded} event."
      },
      "userStake(address,address)": {
        "details": "Returns tokens staked by the {_address} for the given {lpPair}.",
        "params": {
          "_address": "- The address to check stakes for.",
          "lpPair": "- LP pool to check stakes in."
        },
        "returns": {
          "stakeA": "- Token A stake.",
          "stakeB": "- Token B stake.",
          "stakeLP": "- Total user stake(in LP tokens)."
        }
      },
      "withdraw(address,uint256,uint256,uint256,address)": {
        "details": "Withdraws a pair of tokens from the given pool. Emits a {Withdraw} event.",
        "params": {
          "amount": "- LP amount to withdraw. ",
          "amountAMin": "- The minimum amount of tokenA that must be received for the transaction not to revert.",
          "amountBMin": "- The minimum amount of tokenB that must be received for the transaction not to revert.",
          "lpPair": "- LP pool to withdraw from.",
          "recipient": "- The address which will receive tokens."
        },
        "returns": {
          "amountA": "- Token A amount sent to the {recipient}",
          "amountB": "- Token B amount sent to the {recipient}"
        }
      },
      "withdrawETH(address,uint256,uint256,uint256,address)": {
        "details": "Autoconverts WMATIC into MATIC and withdraws tokens from the pool. Emits a {Withdraw} event.",
        "params": {
          "amount": "- LP amount to withdraw. ",
          "amountETHMin": "- The minimum amount of MATIC that must be received for the transaction not to revert.",
          "amountTokenMin": "- The minimum amount of token that must be received for the transaction not to revert.",
          "lpPair": "- LP pool to withdraw from.",
          "recipient": "- The address which will receive tokens."
        },
        "returns": {
          "amountETH": "- MATIC amount sent to the {recipient}.",
          "amountToken": "- Token amount sent to the {recipient}."
        }
      },
      "withdrawLP(address,uint256,address)": {
        "details": "Withdraws LP tokens from the given pool. Emits a {Withdraw} event.",
        "params": {
          "amount": "- LP amount to withdraw. ",
          "lpPair": "- LP pool to withdraw from.",
          "recipient": "- The address which will receive tokens."
        }
      },
      "withdrawWithSwap(address,uint256,bytes[2],address)": {
        "details": "Withdraws tokens from the given pool and swap them using 1inch. Emits a {Withdraw} event. Note: If there are any tokens left to be withdrawn after swaps they will be sent to the {{recipient}} in a respective token.",
        "params": {
          "amount": "- LP amount to withdraw. ",
          "lpPair": "- LP pool to withdraw from.",
          "recipient": "- The address which will receive tokens.",
          "swapData": "- Parameters with which 1inch router is being called with."
        },
        "returns": {
          "amount0": "- Tokens sent to the {recipient} from the {swapData[0]}.",
          "amount1": "- Tokens sent to the {recipient} from the {swapData[1]}.",
          "amountA": "- TokenA dust sent to the {recipient}.",
          "amountB": "- TokenB dust to the {recipient}."
        }
      }
    },
    "stateVariables": {
      "farmFactory": {
        "details": "Contract Variables: farmFactory - The contract that deploys new Farms and links them to {lpPair}s. accessManager - Role manager contract."
      }
    },
    "version": 1
  },
  "userdoc": {
    "kind": "user",
    "methods": {},
    "version": 1
  }
}