{
  "contractName": "UnoAssetRouterTraderjoe",
  "abi": [
    {
      "inputs": [],
      "stateMutability": "nonpayable",
      "type": "constructor"
    },
    {
      "anonymous": false,
      "inputs": [
        {
          "indexed": false,
          "internalType": "address",
          "name": "previousAdmin",
          "type": "address"
        },
        {
          "indexed": false,
          "internalType": "address",
          "name": "newAdmin",
          "type": "address"
        }
      ],
      "name": "AdminChanged",
      "type": "event"
    },
    {
      "anonymous": false,
      "inputs": [
        {
          "indexed": true,
          "internalType": "address",
          "name": "beacon",
          "type": "address"
        }
      ],
      "name": "BeaconUpgraded",
      "type": "event"
    },
    {
      "anonymous": false,
      "inputs": [
        {
          "indexed": true,
          "internalType": "address",
          "name": "lpPool",
          "type": "address"
        },
        {
          "indexed": true,
          "internalType": "address",
          "name": "sender",
          "type": "address"
        },
        {
          "indexed": true,
          "internalType": "address",
          "name": "recipient",
          "type": "address"
        },
        {
          "indexed": false,
          "internalType": "uint256",
          "name": "amount",
          "type": "uint256"
        }
      ],
      "name": "Deposit",
      "type": "event"
    },
    {
      "anonymous": false,
      "inputs": [
        {
          "indexed": true,
          "internalType": "address",
          "name": "lpPool",
          "type": "address"
        },
        {
          "indexed": false,
          "internalType": "uint256",
          "name": "reward",
          "type": "uint256"
        }
      ],
      "name": "Distribute",
      "type": "event"
    },
    {
      "anonymous": false,
      "inputs": [
        {
          "indexed": false,
          "internalType": "uint256",
          "name": "previousFee",
          "type": "uint256"
        },
        {
          "indexed": false,
          "internalType": "uint256",
          "name": "newFee",
          "type": "uint256"
        }
      ],
      "name": "FeeChanged",
      "type": "event"
    },
    {
      "anonymous": false,
      "inputs": [
        {
          "indexed": false,
          "internalType": "uint8",
          "name": "version",
          "type": "uint8"
        }
      ],
      "name": "Initialized",
      "type": "event"
    },
    {
      "anonymous": false,
      "inputs": [
        {
          "indexed": false,
          "internalType": "address",
          "name": "account",
          "type": "address"
        }
      ],
      "name": "Paused",
      "type": "event"
    },
    {
      "anonymous": false,
      "inputs": [
        {
          "indexed": false,
          "internalType": "address",
          "name": "account",
          "type": "address"
        }
      ],
      "name": "Unpaused",
      "type": "event"
    },
    {
      "anonymous": false,
      "inputs": [
        {
          "indexed": true,
          "internalType": "address",
          "name": "implementation",
          "type": "address"
        }
      ],
      "name": "Upgraded",
      "type": "event"
    },
    {
      "anonymous": false,
      "inputs": [
        {
          "indexed": true,
          "internalType": "address",
          "name": "lpPool",
          "type": "address"
        },
        {
          "indexed": true,
          "internalType": "address",
          "name": "sender",
          "type": "address"
        },
        {
          "indexed": true,
          "internalType": "address",
          "name": "recipient",
          "type": "address"
        },
        {
          "indexed": false,
          "internalType": "uint256",
          "name": "amount",
          "type": "uint256"
        }
      ],
      "name": "Withdraw",
      "type": "event"
    },
    {
      "inputs": [],
      "name": "WAVAX",
      "outputs": [
        {
          "internalType": "address",
          "name": "",
          "type": "address"
        }
      ],
      "stateMutability": "view",
      "type": "function"
    },
    {
      "inputs": [],
      "name": "accessManager",
      "outputs": [
        {
          "internalType": "contract IUnoAccessManager",
          "name": "",
          "type": "address"
        }
      ],
      "stateMutability": "view",
      "type": "function"
    },
    {
      "inputs": [],
      "name": "farmFactory",
      "outputs": [
        {
          "internalType": "contract IUnoFarmFactory",
          "name": "",
          "type": "address"
        }
      ],
      "stateMutability": "view",
      "type": "function"
    },
    {
      "inputs": [],
      "name": "fee",
      "outputs": [
        {
          "internalType": "uint256",
          "name": "",
          "type": "uint256"
        }
      ],
      "stateMutability": "view",
      "type": "function"
    },
    {
      "inputs": [],
      "name": "paused",
      "outputs": [
        {
          "internalType": "bool",
          "name": "",
          "type": "bool"
        }
      ],
      "stateMutability": "view",
      "type": "function"
    },
    {
      "inputs": [],
      "name": "proxiableUUID",
      "outputs": [
        {
          "internalType": "bytes32",
          "name": "",
          "type": "bytes32"
        }
      ],
      "stateMutability": "view",
      "type": "function"
    },
    {
      "inputs": [
        {
          "internalType": "address",
          "name": "newImplementation",
          "type": "address"
        }
      ],
      "name": "upgradeTo",
      "outputs": [],
      "stateMutability": "nonpayable",
      "type": "function"
    },
    {
      "inputs": [
        {
          "internalType": "address",
          "name": "newImplementation",
          "type": "address"
        },
        {
          "internalType": "bytes",
          "name": "data",
          "type": "bytes"
        }
      ],
      "name": "upgradeToAndCall",
      "outputs": [],
      "stateMutability": "payable",
      "type": "function"
    },
    {
      "stateMutability": "payable",
      "type": "receive"
    },
    {
      "inputs": [
        {
          "internalType": "address",
          "name": "_accessManager",
          "type": "address"
        },
        {
          "internalType": "address",
          "name": "_farmFactory",
          "type": "address"
        }
      ],
      "name": "initialize",
      "outputs": [],
      "stateMutability": "nonpayable",
      "type": "function"
    },
    {
      "inputs": [
        {
          "internalType": "address",
          "name": "lpPair",
          "type": "address"
        },
        {
          "internalType": "uint256",
          "name": "amountA",
          "type": "uint256"
        },
        {
          "internalType": "uint256",
          "name": "amountB",
          "type": "uint256"
        },
        {
          "internalType": "uint256",
          "name": "amountAMin",
          "type": "uint256"
        },
        {
          "internalType": "uint256",
          "name": "amountBMin",
          "type": "uint256"
        },
        {
          "internalType": "uint256",
          "name": "amountLP",
          "type": "uint256"
        },
        {
          "internalType": "address",
          "name": "recipient",
          "type": "address"
        }
      ],
      "name": "deposit",
      "outputs": [
        {
          "internalType": "uint256",
          "name": "sentA",
          "type": "uint256"
        },
        {
          "internalType": "uint256",
          "name": "sentB",
          "type": "uint256"
        },
        {
          "internalType": "uint256",
          "name": "liquidity",
          "type": "uint256"
        }
      ],
      "stateMutability": "nonpayable",
      "type": "function"
    },
    {
      "inputs": [
        {
          "internalType": "address",
          "name": "lpPair",
          "type": "address"
        },
        {
          "internalType": "uint256",
          "name": "amountToken",
          "type": "uint256"
        },
        {
          "internalType": "uint256",
          "name": "amountTokenMin",
          "type": "uint256"
        },
        {
          "internalType": "uint256",
          "name": "amountETHMin",
          "type": "uint256"
        },
        {
          "internalType": "uint256",
          "name": "amountLP",
          "type": "uint256"
        },
        {
          "internalType": "address",
          "name": "recipient",
          "type": "address"
        }
      ],
      "name": "depositETH",
      "outputs": [
        {
          "internalType": "uint256",
          "name": "sentToken",
          "type": "uint256"
        },
        {
          "internalType": "uint256",
          "name": "sentETH",
          "type": "uint256"
        },
        {
          "internalType": "uint256",
          "name": "liquidity",
          "type": "uint256"
        }
      ],
      "stateMutability": "payable",
      "type": "function"
    },
    {
      "inputs": [
        {
          "internalType": "address",
          "name": "lpPair",
          "type": "address"
        },
        {
          "internalType": "uint256",
          "name": "amount",
          "type": "uint256"
        },
        {
          "internalType": "uint256",
          "name": "amountAMin",
          "type": "uint256"
        },
        {
          "internalType": "uint256",
          "name": "amountBMin",
          "type": "uint256"
        },
        {
          "internalType": "bool",
          "name": "withdrawLP",
          "type": "bool"
        },
        {
          "internalType": "address",
          "name": "recipient",
          "type": "address"
        }
      ],
      "name": "withdraw",
      "outputs": [
        {
          "internalType": "uint256",
          "name": "amountA",
          "type": "uint256"
        },
        {
          "internalType": "uint256",
          "name": "amountB",
          "type": "uint256"
        }
      ],
      "stateMutability": "nonpayable",
      "type": "function"
    },
    {
      "inputs": [
        {
          "internalType": "address",
          "name": "lpPair",
          "type": "address"
        },
        {
          "internalType": "uint256",
          "name": "amount",
          "type": "uint256"
        },
        {
          "internalType": "uint256",
          "name": "amountTokenMin",
          "type": "uint256"
        },
        {
          "internalType": "uint256",
          "name": "amountETHMin",
          "type": "uint256"
        },
        {
          "internalType": "address",
          "name": "recipient",
          "type": "address"
        }
      ],
      "name": "withdrawETH",
      "outputs": [
        {
          "internalType": "uint256",
          "name": "amountToken",
          "type": "uint256"
        },
        {
          "internalType": "uint256",
          "name": "amountETH",
          "type": "uint256"
        }
      ],
      "stateMutability": "payable",
      "type": "function"
    },
    {
      "inputs": [
        {
          "internalType": "address",
          "name": "lpPair",
          "type": "address"
        },
        {
          "components": [
            {
              "internalType": "address[]",
              "name": "route",
              "type": "address[]"
            },
            {
              "internalType": "uint256",
              "name": "amountOutMin",
              "type": "uint256"
            }
          ],
          "internalType": "struct IUnoFarmTraderjoe.SwapInfo[4]",
          "name": "swapInfos",
          "type": "tuple[4]"
        },
        {
          "components": [
            {
              "internalType": "address[]",
              "name": "route",
              "type": "address[]"
            },
            {
              "internalType": "uint256",
              "name": "amountOutMin",
              "type": "uint256"
            }
          ],
          "internalType": "struct IUnoFarmTraderjoe.SwapInfo[2]",
          "name": "feeSwapInfo",
          "type": "tuple[2]"
        },
        {
          "internalType": "address",
          "name": "feeTo",
          "type": "address"
        }
      ],
      "name": "distribute",
      "outputs": [],
      "stateMutability": "nonpayable",
      "type": "function"
    },
    {
      "inputs": [
        {
          "internalType": "address",
          "name": "_address",
          "type": "address"
        },
        {
          "internalType": "address",
          "name": "lpPair",
          "type": "address"
        }
      ],
      "name": "userStake",
      "outputs": [
        {
          "internalType": "uint256",
          "name": "stakeLP",
          "type": "uint256"
        },
        {
          "internalType": "uint256",
          "name": "stakeA",
          "type": "uint256"
        },
        {
          "internalType": "uint256",
          "name": "stakeB",
          "type": "uint256"
        }
      ],
      "stateMutability": "view",
      "type": "function"
    },
    {
      "inputs": [
        {
          "internalType": "address",
          "name": "lpPair",
          "type": "address"
        }
      ],
      "name": "totalDeposits",
      "outputs": [
        {
          "internalType": "uint256",
          "name": "totalDepositsLP",
          "type": "uint256"
        },
        {
          "internalType": "uint256",
          "name": "totalDepositsA",
          "type": "uint256"
        },
        {
          "internalType": "uint256",
          "name": "totalDepositsB",
          "type": "uint256"
        }
      ],
      "stateMutability": "view",
      "type": "function"
    },
    {
      "inputs": [
        {
          "internalType": "address",
          "name": "lpPair",
          "type": "address"
        }
      ],
      "name": "getTokens",
      "outputs": [
        {
          "internalType": "contract IERC20Upgradeable[]",
          "name": "tokens",
          "type": "address[]"
        }
      ],
      "stateMutability": "view",
      "type": "function"
    },
    {
      "inputs": [
        {
          "internalType": "uint256",
          "name": "_fee",
          "type": "uint256"
        }
      ],
      "name": "setFee",
      "outputs": [],
      "stateMutability": "nonpayable",
      "type": "function"
    },
    {
      "inputs": [],
      "name": "pause",
      "outputs": [],
      "stateMutability": "nonpayable",
      "type": "function"
    },
    {
      "inputs": [],
      "name": "unpause",
      "outputs": [],
      "stateMutability": "nonpayable",
      "type": "function"
    }
  ],
  "bytecode": "0x60a0604052306080523480156200001557600080fd5b506200002062000026565b62000156565b6200003260ff62000035565b50565b60008054610100900460ff1615620000ce578160ff1660011480156200006e57506200006c306200014760201b62001ea01760201c565b155b620000c65760405162461bcd60e51b815260206004820152602e6024820152600080516020620035b883398151915260448201526d191e481a5b9a5d1a585b1a5e995960921b60648201526084015b60405180910390fd5b506000919050565b60005460ff8084169116106200012d5760405162461bcd60e51b815260206004820152602e6024820152600080516020620035b883398151915260448201526d191e481a5b9a5d1a585b1a5e995960921b6064820152608401620000bd565b506000805460ff191660ff92909216919091179055600190565b6001600160a01b03163b151590565b60805161342a6200018e600039600081816107e201528181610822015281816111e40152818161122401526113c1015261342a6000f3fe6080604052600436106101235760003560e01c80635c975abb116100a0578063ddca3f4311610064578063ddca3f43146103a3578063deb03f4d146103b9578063e9403256146103cc578063f441f73c146103ec578063fdcb60681461040c57600080fd5b80635c975abb146102eb57806369fe0e2d1461030e5780636d25e1751461032e57806373b295c2146103665780638456cb591461038e57600080fd5b80634743cdc7116100e75780634743cdc714610247578063485cc955146102755780634f1ef2861461029557806351bdca3e146102a857806352d1902d146102c857600080fd5b80631ad881801461018b5780631ec5aa3e146101ab5780633659cfe6146101e55780633f4ba83a14610205578063450efe211461021a57600080fd5b36610186573373b31f66aa3c1e785363f0875a1b74e27b85fd66c7146101845760405162461bcd60e51b815260206004820152601160248201527009e9c98b2be8286868aa0a8beae82ac82b607b1b60448201526064015b60405180910390fd5b005b600080fd5b34801561019757600080fd5b506101846101a6366004612a34565b61042c565b3480156101b757600080fd5b506101cb6101c6366004612ad9565b61066d565b604080519283526020830191909152015b60405180910390f35b3480156101f157600080fd5b50610184610200366004612b40565b6107d7565b34801561021157600080fd5b506101846108b7565b34801561022657600080fd5b5061023a610235366004612b40565b61096e565b6040516101dc9190612b5d565b61025a610255366004612baa565b610abd565b604080519384526020840192909252908201526060016101dc565b34801561028157600080fd5b50610184610290366004612bfa565b61109e565b6101846102a3366004612c49565b6111d9565b3480156102b457600080fd5b5061025a6102c3366004612bfa565b6112aa565b3480156102d457600080fd5b506102dd6113b4565b6040519081526020016101dc565b3480156102f757600080fd5b5060335460ff1660405190151581526020016101dc565b34801561031a57600080fd5b50610184610329366004612d0d565b611467565b34801561033a57600080fd5b5060c95461034e906001600160a01b031681565b6040516001600160a01b0390911681526020016101dc565b34801561037257600080fd5b5061034e73b31f66aa3c1e785363f0875a1b74e27b85fd66c781565b34801561039a57600080fd5b506101846115fa565b3480156103af57600080fd5b506102dd60cb5481565b6101cb6103c7366004612d26565b6116b1565b3480156103d857600080fd5b5061025a6103e7366004612b40565b611ac6565b3480156103f857600080fd5b5061025a610407366004612d7c565b611bc8565b34801561041857600080fd5b5060ca5461034e906001600160a01b031681565b60335460ff161561044f5760405162461bcd60e51b815260040161017b90612de5565b60ca54604051632474521560e21b81527ffbd454f36a7e1a388bd6fc3ab10d434aa4578f811acbbcf33afb1c697486313c60048201819052336024830152916001600160a01b0316906391d1485490604401602060405180830381865afa1580156104be573d6000803e3d6000fd5b505050506040513d601f19601f820116820180604052508101906104e29190612e0f565b6104fe5760405162461bcd60e51b815260040161017b90612e2c565b60c95460405163f9d9331d60e01b81526001600160a01b038781166004830152600092169063f9d9331d90602401602060405180830381865afa158015610549573d6000803e3d6000fd5b505050506040513d601f19601f8201168201806040525081019061056d9190612e5b565b90506001600160a01b0381166105955760405162461bcd60e51b815260040161017b90612e78565b6040805180820182526001600160a01b03858116825260cb546020830152915163047f792560e11b81526000928416916308fef24a916105dc918a918a9190600401612f8c565b6020604051808303816000875af11580156105fb573d6000803e3d6000fd5b505050506040513d601f19601f8201168201806040525081019061061f91906130a0565b9050866001600160a01b03167fc1d32ad5cca423e7dda2123dbf8c482f8e77d00b631c06e903a47f2cec1334df8260405161065c91815260200190565b60405180910390a250505050505050565b60c95460405163f9d9331d60e01b81526001600160a01b038881166004830152600092839283929091169063f9d9331d90602401602060405180830381865afa1580156106be573d6000803e3d6000fd5b505050506040513d601f19601f820116820180604052508101906106e29190612e5b565b90506001600160a01b03811661070a5760405162461bcd60e51b815260040161017b90612e78565b60405163d563468360e01b81526001600160a01b0382169063d563468390610740908b908b908b908b9033908c906004016130b9565b60408051808303816000875af115801561075e573d6000803e3d6000fd5b505050506040513d601f19601f8201168201806040525081019061078291906130ef565b6040518a815291945092506001600160a01b038581169133918c16907f3115d1449a7b732c986cba18244e897a450f61e1bb8d589cd2e69e6c8924f9f79060200160405180910390a450965096945050505050565b306001600160a01b037f00000000000000000000000000000000000000000000000000000000000000001614156108205760405162461bcd60e51b815260040161017b90613113565b7f00000000000000000000000000000000000000000000000000000000000000006001600160a01b03166108696000805160206133ae833981519152546001600160a01b031690565b6001600160a01b03161461088f5760405162461bcd60e51b815260040161017b9061315f565b61089881611eaf565b604080516000808252602082019092526108b491839190611fb5565b50565b60ca54604051632474521560e21b81527f65d7a28e3265b37a6474929f336521b332c1681b933f6cb9f3376673440d862a60048201819052336024830152916001600160a01b0316906391d1485490604401602060405180830381865afa158015610926573d6000803e3d6000fd5b505050506040513d601f19601f8201168201806040525081019061094a9190612e0f565b6109665760405162461bcd60e51b815260040161017b90612e2c565b6108b4612120565b6040805160028082526060808301845292602083019080368337019050509050816001600160a01b0316630dfe16816040518163ffffffff1660e01b8152600401602060405180830381865afa1580156109cc573d6000803e3d6000fd5b505050506040513d601f19601f820116820180604052508101906109f09190612e5b565b81600081518110610a0357610a036131ab565b60200260200101906001600160a01b031690816001600160a01b031681525050816001600160a01b031663d21220a76040518163ffffffff1660e01b8152600401602060405180830381865afa158015610a61573d6000803e3d6000fd5b505050506040513d601f19601f82011682018060405250810190610a859190612e5b565b81600181518110610a9857610a986131ab565b60200260200101906001600160a01b031690816001600160a01b031681525050919050565b6000806000610ace60335460ff1690565b15610aeb5760405162461bcd60e51b815260040161017b90612de5565b60003411610b2b5760405162461bcd60e51b815260206004820152600d60248201526c1393d7d350551250d7d4d15395609a1b604482015260640161017b565b60c95460405163f9d9331d60e01b81526001600160a01b038b81166004830152600092169063f9d9331d90602401602060405180830381865afa158015610b76573d6000803e3d6000fd5b505050506040513d601f19601f82011682018060405250810190610b9a9190612e5b565b90506001600160a01b038116610c1c5760c954604051621849e360e61b81526001600160a01b038c811660048301529091169063061278c0906024016020604051808303816000875af1158015610bf5573d6000803e3d6000fd5b505050506040513d601f19601f82011682018060405250810190610c199190612e5b565b90505b8515610c3757610c376001600160a01b038b163383896121b3565b6000816001600160a01b0316630fc63d106040518163ffffffff1660e01b8152600401602060405180830381865afa158015610c77573d6000803e3d6000fd5b505050506040513d601f19601f82011682018060405250810190610c9b9190612e5b565b90506000826001600160a01b0316635f64b55b6040518163ffffffff1660e01b8152600401602060405180830381865afa158015610cdd573d6000803e3d6000fd5b505050506040513d601f19601f82011682018060405250810190610d019190612e5b565b905073b31f66aa3c1e785363f0875a1b74e27b85fd66c76001600160a01b031663d0e30db0346040518263ffffffff1660e01b81526004016000604051808303818588803b158015610d5257600080fd5b505af1158015610d66573d6000803e3d6000fd5b50610d8e935073b31f66aa3c1e785363f0875a1b74e27b85fd66c79250869150349050612224565b6001600160a01b03821673b31f66aa3c1e785363f0875a1b74e27b85fd66c71415610e75578a15610dce57610dce6001600160a01b03821633858e6121b3565b826001600160a01b0316631666768a348d8c8e8d308e6040518863ffffffff1660e01b8152600401610e0697969594939291906131c1565b6060604051808303816000875af1158015610e25573d6000803e3d6000fd5b505050506040513d601f19601f82011682018060405250810190610e4991906131fd565b9097509095509350610e7033610e5f888e613241565b6001600160a01b0384169190612224565b610f8f565b6001600160a01b03811673b31f66aa3c1e785363f0875a1b74e27b85fd66c71415610f56578a15610eb557610eb56001600160a01b03831633858e6121b3565b826001600160a01b0316631666768a8c348d8d8d308e6040518863ffffffff1660e01b8152600401610eed97969594939291906131c1565b6060604051808303816000875af1158015610f0c573d6000803e3d6000fd5b505050506040513d601f19601f82011682018060405250810190610f3091906131fd565b91975095509350610e7033610f45888e613241565b6001600160a01b0385169190612224565b60405162461bcd60e51b815260206004820152600e60248201526d1393d517d5d055905617d413d3d360921b604482015260640161017b565b6000610f9b8634613241565b9050801561103757604051632e1a7d4d60e01b81526004810182905273b31f66aa3c1e785363f0875a1b74e27b85fd66c790632e1a7d4d90602401600060405180830381600087803b158015610ff057600080fd5b505af1158015611004573d6000803e3d6000fd5b505060405133925083156108fc02915083906000818181858888f19350505050158015611035573d6000803e3d6000fd5b505b876001600160a01b0316336001600160a01b03168e6001600160a01b03167f7cfff908a4b583f36430b25d75964c458d8ede8a99bd61be750e97ee1b2f3a968860405161108691815260200190565b60405180910390a45050505096509650969350505050565b60006110aa6001612254565b905080156110c2576000805461ff0019166101001790555b6001600160a01b03831661110d5760405162461bcd60e51b81526020600482015260126024820152712120a22fa0a1a1a2a9a9afa6a0a720a3a2a960711b604482015260640161017b565b6001600160a01b0382166111565760405162461bcd60e51b815260206004820152601060248201526f4241445f4641524d5f464143544f525960801b604482015260640161017b565b61115e6122dc565b60ca80546001600160a01b038086166001600160a01b03199283161790925560c980549285169290911691909117905580156111d4576000805461ff0019169055604051600181527f7f26b83ff96e1f2b6a682f133852f6798a09c465da95921460cefb38474024989060200160405180910390a15b505050565b306001600160a01b037f00000000000000000000000000000000000000000000000000000000000000001614156112225760405162461bcd60e51b815260040161017b90613113565b7f00000000000000000000000000000000000000000000000000000000000000006001600160a01b031661126b6000805160206133ae833981519152546001600160a01b031690565b6001600160a01b0316146112915760405162461bcd60e51b815260040161017b9061315f565b61129a82611eaf565b6112a682826001611fb5565b5050565b60c95460405163f9d9331d60e01b81526001600160a01b038381166004830152600092839283928392169063f9d9331d90602401602060405180830381865afa1580156112fb573d6000803e3d6000fd5b505050506040513d601f19601f8201168201806040525081019061131f9190612e5b565b90506001600160a01b038116156113ac57604051630103c92b60e01b81526001600160a01b038781166004830152821690630103c92b90602401602060405180830381865afa158015611376573d6000803e3d6000fd5b505050506040513d601f19601f8201168201806040525081019061139a91906130a0565b93506113a6858561230d565b90935091505b509250925092565b6000306001600160a01b037f000000000000000000000000000000000000000000000000000000000000000016146114545760405162461bcd60e51b815260206004820152603860248201527f555550535570677261646561626c653a206d757374206e6f742062652063616c60448201527f6c6564207468726f7567682064656c656761746563616c6c0000000000000000606482015260840161017b565b506000805160206133ae83398151915290565b60ca60009054906101000a90046001600160a01b03166001600160a01b03166375b238fc6040518163ffffffff1660e01b8152600401602060405180830381865afa1580156114ba573d6000803e3d6000fd5b505050506040513d601f19601f820116820180604052508101906114de91906130a0565b60ca54604051632474521560e21b8152600481018390523360248201526001600160a01b03909116906391d1485490604401602060405180830381865afa15801561152d573d6000803e3d6000fd5b505050506040513d601f19601f820116820180604052508101906115519190612e0f565b61156d5760405162461bcd60e51b815260040161017b90612e2c565b670de0b6b3a76400008211156115af5760405162461bcd60e51b81526020600482015260076024820152664241445f46454560c81b604482015260640161017b565b8160cb54146112a65760cb5460408051918252602082018490527f5fc463da23c1b063e66f9e352006a7fbe8db7223c455dc429e881a2dfe2f94f1910160405180910390a15060cb55565b60ca54604051632474521560e21b81527f65d7a28e3265b37a6474929f336521b332c1681b933f6cb9f3376673440d862a60048201819052336024830152916001600160a01b0316906391d1485490604401602060405180830381865afa158015611669573d6000803e3d6000fd5b505050506040513d601f19601f8201168201806040525081019061168d9190612e0f565b6116a95760405162461bcd60e51b815260040161017b90612e2c565b6108b4612548565b60c95460405163f9d9331d60e01b81526001600160a01b038781166004830152600092839283929091169063f9d9331d90602401602060405180830381865afa158015611702573d6000803e3d6000fd5b505050506040513d601f19601f820116820180604052508101906117269190612e5b565b90506001600160a01b03811661174e5760405162461bcd60e51b815260040161017b90612e78565b6000816001600160a01b0316630fc63d106040518163ffffffff1660e01b8152600401602060405180830381865afa15801561178e573d6000803e3d6000fd5b505050506040513d601f19601f820116820180604052508101906117b29190612e5b565b90506000826001600160a01b0316635f64b55b6040518163ffffffff1660e01b8152600401602060405180830381865afa1580156117f4573d6000803e3d6000fd5b505050506040513d601f19601f820116820180604052508101906118189190612e5b565b90506001600160a01b03821673b31f66aa3c1e785363f0875a1b74e27b85fd66c714156118d55760405163d563468360e01b81526001600160a01b0384169063d563468390611876908c908b908d90600090339030906004016130b9565b60408051808303816000875af1158015611894573d6000803e3d6000fd5b505050506040513d601f19601f820116820180604052508101906118b891906130ef565b955093506118d06001600160a01b0382168787612224565b6119c6565b6001600160a01b03811673b31f66aa3c1e785363f0875a1b74e27b85fd66c7141561198c5760405163d563468360e01b81526001600160a01b0384169063d563468390611931908c908c908c90600090339030906004016130b9565b60408051808303816000875af115801561194f573d6000803e3d6000fd5b505050506040513d601f19601f8201168201806040525081019061197391906130ef565b90955093506118d06001600160a01b0383168787612224565b60405162461bcd60e51b815260206004820152600f60248201526e1393d517d5d350551250d7d413d3d3608a1b604482015260640161017b565b604051632e1a7d4d60e01b81526004810185905273b31f66aa3c1e785363f0875a1b74e27b85fd66c790632e1a7d4d90602401600060405180830381600087803b158015611a1357600080fd5b505af1158015611a27573d6000803e3d6000fd5b50506040516001600160a01b038916925086156108fc02915086906000818181858888f19350505050158015611a61573d6000803e3d6000fd5b50856001600160a01b0316336001600160a01b03168b6001600160a01b03167f3115d1449a7b732c986cba18244e897a450f61e1bb8d589cd2e69e6c8924f9f78c604051611ab191815260200190565b60405180910390a45050509550959350505050565b60c95460405163f9d9331d60e01b81526001600160a01b038381166004830152600092839283928392169063f9d9331d90602401602060405180830381865afa158015611b17573d6000803e3d6000fd5b505050506040513d601f19601f82011682018060405250810190611b3b9190612e5b565b90506001600160a01b03811615611bc057806001600160a01b031663168a48226040518163ffffffff1660e01b8152600401602060405180830381865afa158015611b8a573d6000803e3d6000fd5b505050506040513d601f19601f82011682018060405250810190611bae91906130a0565b9350611bba858561230d565b90935091505b509193909250565b6000806000611bd960335460ff1690565b15611bf65760405162461bcd60e51b815260040161017b90612de5565b60c95460405163f9d9331d60e01b81526001600160a01b038c81166004830152600092169063f9d9331d90602401602060405180830381865afa158015611c41573d6000803e3d6000fd5b505050506040513d601f19601f82011682018060405250810190611c659190612e5b565b90506001600160a01b038116611ce75760c954604051621849e360e61b81526001600160a01b038d811660048301529091169063061278c0906024016020604051808303816000875af1158015611cc0573d6000803e3d6000fd5b505050506040513d601f19601f82011682018060405250810190611ce49190612e5b565b90505b8515611d0257611d026001600160a01b038c163383896121b3565b8915611d8157611d8133828c846001600160a01b0316630fc63d106040518163ffffffff1660e01b8152600401602060405180830381865afa158015611d4c573d6000803e3d6000fd5b505050506040513d601f19601f82011682018060405250810190611d709190612e5b565b6001600160a01b03169291906121b3565b8815611dcb57611dcb33828b846001600160a01b0316635f64b55b6040518163ffffffff1660e01b8152600401602060405180830381865afa158015611d4c573d6000803e3d6000fd5b604051630b333b4560e11b81526001600160a01b03821690631666768a90611e03908d908d908d908d908d9033908e906004016131c1565b6060604051808303816000875af1158015611e22573d6000803e3d6000fd5b505050506040513d601f19601f82011682018060405250810190611e4691906131fd565b60405181815292965090945092506001600160a01b038681169133918e16907f7cfff908a4b583f36430b25d75964c458d8ede8a99bd61be750e97ee1b2f3a969060200160405180910390a4509750975097945050505050565b6001600160a01b03163b151590565b60ca60009054906101000a90046001600160a01b03166001600160a01b03166375b238fc6040518163ffffffff1660e01b8152600401602060405180830381865afa158015611f02573d6000803e3d6000fd5b505050506040513d601f19601f82011682018060405250810190611f2691906130a0565b60ca54604051632474521560e21b8152600481018390523360248201526001600160a01b03909116906391d1485490604401602060405180830381865afa158015611f75573d6000803e3d6000fd5b505050506040513d601f19601f82011682018060405250810190611f999190612e0f565b6112a65760405162461bcd60e51b815260040161017b90612e2c565b7f4910fdfa16fed3260ed0e7147f7cc6da11a60208b5b9406d12a635614ffd91435460ff1615611fe8576111d4836125a0565b826001600160a01b03166352d1902d6040518163ffffffff1660e01b8152600401602060405180830381865afa925050508015612042575060408051601f3d908101601f1916820190925261203f918101906130a0565b60015b6120a55760405162461bcd60e51b815260206004820152602e60248201527f45524331393637557067726164653a206e657720696d706c656d656e7461746960448201526d6f6e206973206e6f74205555505360901b606482015260840161017b565b6000805160206133ae83398151915281146121145760405162461bcd60e51b815260206004820152602960248201527f45524331393637557067726164653a20756e737570706f727465642070726f786044820152681a58589b195555525160ba1b606482015260840161017b565b506111d483838361263c565b60335460ff166121695760405162461bcd60e51b815260206004820152601460248201527314185d5cd8589b194e881b9bdd081c185d5cd95960621b604482015260640161017b565b6033805460ff191690557f5db9ee0a495bf2e6ff9c91a7834c1ba4fdd244a5e8aa4e537bd38aeae4b073aa335b6040516001600160a01b03909116815260200160405180910390a1565b6040516001600160a01b038085166024830152831660448201526064810182905261221e9085906323b872dd60e01b906084015b60408051601f198184030181529190526020810180516001600160e01b03166001600160e01b031990931692909217909152612661565b50505050565b6040516001600160a01b0383166024820152604481018290526111d490849063a9059cbb60e01b906064016121e7565b60008054610100900460ff161561229b578160ff1660011480156122775750303b155b6122935760405162461bcd60e51b815260040161017b90613258565b506000919050565b60005460ff8084169116106122c25760405162461bcd60e51b815260040161017b90613258565b506000805460ff191660ff92909216919091179055600190565b600054610100900460ff166123035760405162461bcd60e51b815260040161017b906132a6565b61230b612733565b565b6000806000846001600160a01b03166318160ddd6040518163ffffffff1660e01b8152600401602060405180830381865afa158015612350573d6000803e3d6000fd5b505050506040513d601f19601f8201168201806040525081019061237491906130a0565b905080856001600160a01b0316630dfe16816040518163ffffffff1660e01b8152600401602060405180830381865afa1580156123b5573d6000803e3d6000fd5b505050506040513d601f19601f820116820180604052508101906123d99190612e5b565b6040516370a0823160e01b81526001600160a01b03888116600483015291909116906370a0823190602401602060405180830381865afa158015612421573d6000803e3d6000fd5b505050506040513d601f19601f8201168201806040525081019061244591906130a0565b61244f90866132f1565b6124599190613310565b925080856001600160a01b031663d21220a76040518163ffffffff1660e01b8152600401602060405180830381865afa15801561249a573d6000803e3d6000fd5b505050506040513d601f19601f820116820180604052508101906124be9190612e5b565b6040516370a0823160e01b81526001600160a01b03888116600483015291909116906370a0823190602401602060405180830381865afa158015612506573d6000803e3d6000fd5b505050506040513d601f19601f8201168201806040525081019061252a91906130a0565b61253490866132f1565b61253e9190613310565b9150509250929050565b60335460ff161561256b5760405162461bcd60e51b815260040161017b90612de5565b6033805460ff191660011790557f62e78cea01bee320cd4e420270b5ea74000d11b0c9f74754ebdbfc544b05a2586121963390565b6001600160a01b0381163b61260d5760405162461bcd60e51b815260206004820152602d60248201527f455243313936373a206e657720696d706c656d656e746174696f6e206973206e60448201526c1bdd08184818dbdb9d1c9858dd609a1b606482015260840161017b565b6000805160206133ae83398151915280546001600160a01b0319166001600160a01b0392909216919091179055565b61264583612766565b6000825111806126525750805b156111d45761221e83836127a6565b60006126b6826040518060400160405280602081526020017f5361666545524332303a206c6f772d6c6576656c2063616c6c206661696c6564815250856001600160a01b031661289a9092919063ffffffff16565b8051909150156111d457808060200190518101906126d49190612e0f565b6111d45760405162461bcd60e51b815260206004820152602a60248201527f5361666545524332303a204552433230206f7065726174696f6e20646964206e6044820152691bdd081cdd58d8d9595960b21b606482015260840161017b565b600054610100900460ff1661275a5760405162461bcd60e51b815260040161017b906132a6565b6033805460ff19169055565b61276f816125a0565b6040516001600160a01b038216907fbc7cd75a20ee27fd9adebab32041f755214dbc6bffa90cc0225b39da2e5c2d3b90600090a250565b60606001600160a01b0383163b61280e5760405162461bcd60e51b815260206004820152602660248201527f416464726573733a2064656c65676174652063616c6c20746f206e6f6e2d636f6044820152651b9d1c9858dd60d21b606482015260840161017b565b600080846001600160a01b031684604051612829919061335e565b600060405180830381855af49150503d8060008114612864576040519150601f19603f3d011682016040523d82523d6000602084013e612869565b606091505b509150915061289182826040518060600160405280602781526020016133ce602791396128b3565b95945050505050565b60606128a984846000856128ec565b90505b9392505050565b606083156128c25750816128ac565b8251156128d25782518084602001fd5b8160405162461bcd60e51b815260040161017b919061337a565b60608247101561294d5760405162461bcd60e51b815260206004820152602660248201527f416464726573733a20696e73756666696369656e742062616c616e636520666f6044820152651c8818d85b1b60d21b606482015260840161017b565b6001600160a01b0385163b6129a45760405162461bcd60e51b815260206004820152601d60248201527f416464726573733a2063616c6c20746f206e6f6e2d636f6e7472616374000000604482015260640161017b565b600080866001600160a01b031685876040516129c0919061335e565b60006040518083038185875af1925050503d80600081146129fd576040519150601f19603f3d011682016040523d82523d6000602084013e612a02565b606091505b5091509150612a128282866128b3565b925050505b949350505050565b6001600160a01b03811681146108b457600080fd5b60008060008060808587031215612a4a57600080fd5b8435612a5581612a1f565b9350602085013567ffffffffffffffff80821115612a7257600080fd5b818701915087608083011115612a8757600080fd5b90935060408601359080821115612a9d57600080fd5b50850160408101871015612ab057600080fd5b91506060850135612ac081612a1f565b939692955090935050565b80151581146108b457600080fd5b60008060008060008060c08789031215612af257600080fd5b8635612afd81612a1f565b95506020870135945060408701359350606087013592506080870135612b2281612acb565b915060a0870135612b3281612a1f565b809150509295509295509295565b600060208284031215612b5257600080fd5b81356128ac81612a1f565b6020808252825182820181905260009190848201906040850190845b81811015612b9e5783516001600160a01b031683529284019291840191600101612b79565b50909695505050505050565b60008060008060008060c08789031215612bc357600080fd5b8635612bce81612a1f565b95506020870135945060408701359350606087013592506080870135915060a0870135612b3281612a1f565b60008060408385031215612c0d57600080fd5b8235612c1881612a1f565b91506020830135612c2881612a1f565b809150509250929050565b634e487b7160e01b600052604160045260246000fd5b60008060408385031215612c5c57600080fd5b8235612c6781612a1f565b9150602083013567ffffffffffffffff80821115612c8457600080fd5b818501915085601f830112612c9857600080fd5b813581811115612caa57612caa612c33565b604051601f8201601f19908116603f01168101908382118183101715612cd257612cd2612c33565b81604052828152886020848701011115612ceb57600080fd5b8260208601602083013760006020848301015280955050505050509250929050565b600060208284031215612d1f57600080fd5b5035919050565b600080600080600060a08688031215612d3e57600080fd5b8535612d4981612a1f565b94506020860135935060408601359250606086013591506080860135612d6e81612a1f565b809150509295509295909350565b600080600080600080600060e0888a031215612d9757600080fd5b8735612da281612a1f565b96506020880135955060408801359450606088013593506080880135925060a0880135915060c0880135612dd581612a1f565b8091505092959891949750929550565b60208082526010908201526f14185d5cd8589b194e881c185d5cd95960821b604082015260600190565b600060208284031215612e2157600080fd5b81516128ac81612acb565b60208082526015908201527410d05313115497d393d517d055551213d492569151605a1b604082015260600190565b600060208284031215612e6d57600080fd5b81516128ac81612a1f565b6020808252600f908201526e4641524d5f4e4f545f45584953545360881b604082015260600190565b60008235603e19833603018112612eb757600080fd5b90910192915050565b60008260408082018460005b6002811015612b9e578483038852612ee48288612ea1565b8484018135601e19833603018112612efb57600080fd5b82018035602067ffffffffffffffff821115612f1657600080fd5b8160051b3603851315612f2857600080fd5b888852928190529082019160009190606088015b82841015612f6c578435612f4f81612a1f565b6001600160a01b0316815293810193600193909301928101612f3c565b948101359781019790975250505097830197929190910190600101612ecc565b6080808252600090610100830190830186835b600481101561306857858403607f19018352612fbb828a612ea1565b60408086018235601e19843603018112612fd457600080fd5b83018035602067ffffffffffffffff821115612fef57600080fd5b8160051b360386131561300157600080fd5b938952918290526060880192908101916000915b8183101561304757833561302881612a1f565b6001600160a01b03168552938401939283019260019290920191613015565b94850135988501989098525090955050928301929190910190600101612f9f565b505050828103602084015261307d8186612ec0565b84516001600160a01b03166040850152602085015160608501529150612a179050565b6000602082840312156130b257600080fd5b5051919050565b95865260208601949094526040850192909252151560608401526001600160a01b0390811660808401521660a082015260c00190565b6000806040838503121561310257600080fd5b505080516020909101519092909150565b6020808252602c908201527f46756e6374696f6e206d7573742062652063616c6c6564207468726f7567682060408201526b19195b1959d85d1958d85b1b60a21b606082015260800190565b6020808252602c908201527f46756e6374696f6e206d7573742062652063616c6c6564207468726f7567682060408201526b6163746976652070726f787960a01b606082015260800190565b634e487b7160e01b600052603260045260246000fd5b96875260208701959095526040860193909352606085019190915260808401526001600160a01b0390811660a08401521660c082015260e00190565b60008060006060848603121561321257600080fd5b8351925060208401519150604084015190509250925092565b634e487b7160e01b600052601160045260246000fd5b6000828210156132535761325361322b565b500390565b6020808252602e908201527f496e697469616c697a61626c653a20636f6e747261637420697320616c72656160408201526d191e481a5b9a5d1a585b1a5e995960921b606082015260800190565b6020808252602b908201527f496e697469616c697a61626c653a20636f6e7472616374206973206e6f74206960408201526a6e697469616c697a696e6760a81b606082015260800190565b600081600019048311821515161561330b5761330b61322b565b500290565b60008261332d57634e487b7160e01b600052601260045260246000fd5b500490565b60005b8381101561334d578181015183820152602001613335565b8381111561221e5750506000910152565b60008251613370818460208701613332565b9190910192915050565b6020815260008251806020840152613399816040850160208701613332565b601f01601f1916919091016040019291505056fe360894a13ba1a3210667c828492db98dca3e2076cc3735a920a3ca505d382bbc416464726573733a206c6f772d6c6576656c2064656c65676174652063616c6c206661696c6564a2646970667358221220b775f7c28a796c06818e35560feb7e2923677bf4d3b6be7b7f479ce53648535064736f6c634300080a0033496e697469616c697a61626c653a20636f6e747261637420697320616c726561",
  "immutableReferences": {
    "561": [
      {
        "length": 32,
        "start": 2018
      },
      {
        "length": 32,
        "start": 2082
      },
      {
        "length": 32,
        "start": 4580
      },
      {
        "length": 32,
        "start": 4644
      },
      {
        "length": 32,
        "start": 5057
      }
    ]
  },
  "source": "// SPDX-License-Identifier: MIT\npragma solidity 0.8.10;\n\nimport { IUnoFarmTraderjoe as Farm } from \"./interfaces/IUnoFarmTraderjoe.sol\";\nimport \"../../interfaces/IUnoFarmFactory.sol\";\nimport \"../../interfaces/IUnoAccessManager.sol\";\nimport \"../../interfaces/IUniswapV2Pair.sol\";\nimport \"../../interfaces/IWAVAX.sol\";\nimport \"@openzeppelin/contracts-upgradeable/proxy/utils/Initializable.sol\";\nimport \"@openzeppelin/contracts-upgradeable/token/ERC20/utils/SafeERC20Upgradeable.sol\";\nimport \"@openzeppelin/contracts-upgradeable/token/ERC20/IERC20Upgradeable.sol\";\nimport \"@openzeppelin/contracts-upgradeable/security/PausableUpgradeable.sol\";\nimport \"@openzeppelin/contracts-upgradeable/proxy/utils/UUPSUpgradeable.sol\";\n\ncontract UnoAssetRouterTraderjoe is\n\tInitializable,\n\tPausableUpgradeable,\n\tUUPSUpgradeable\n{\n\tusing SafeERC20Upgradeable for IERC20Upgradeable;\n\n\t/**\n\t * @dev Contract Variables:\n\t * farmFactory - The contract that deploys new Farms and links them to {lpPair}s.\n\t * accessManager - Role manager contract.\n\t */\n\tIUnoFarmFactory public farmFactory;\n\tIUnoAccessManager public accessManager;\n\n\tbytes32 private constant DISTRIBUTOR_ROLE = keccak256(\"DISTRIBUTOR_ROLE\");\n\tbytes32 private constant PAUSER_ROLE = keccak256(\"PAUSER_ROLE\");\n\n\tuint256 public fee;\n\n\taddress public constant WAVAX = 0xB31f66AA3C1e785363F0875A1B74E27b85FD66c7;\n\n\tevent Deposit(\n\t\taddress indexed lpPool,\n\t\taddress indexed sender,\n\t\taddress indexed recipient,\n\t\tuint256 amount\n\t);\n\tevent Withdraw(\n\t\taddress indexed lpPool,\n\t\taddress indexed sender,\n\t\taddress indexed recipient,\n\t\tuint256 amount\n\t);\n\tevent Distribute(address indexed lpPool, uint256 reward);\n\n\tevent FeeChanged(uint256 previousFee, uint256 newFee);\n\n\tmodifier onlyRole(bytes32 role) {\n\t\trequire(\n\t\t\taccessManager.hasRole(role, msg.sender),\n\t\t\t\"CALLER_NOT_AUTHORIZED\"\n\t\t);\n\t\t_;\n\t}\n\n\t// ============ Methods ============\n\n\t/// @custom:oz-upgrades-unsafe-allow constructor\n\tconstructor() {\n\t\t_disableInitializers();\n\t}\n\n\tfunction initialize(address _accessManager, address _farmFactory)\n\t\texternal\n\t\tinitializer\n\t{\n\t\trequire(_accessManager != address(0), \"BAD_ACCESS_MANAGER\");\n\t\trequire(_farmFactory != address(0), \"BAD_FARM_FACTORY\");\n\n\t\t__Pausable_init();\n\t\taccessManager = IUnoAccessManager(_accessManager);\n\t\tfarmFactory = IUnoFarmFactory(_farmFactory);\n\t}\n\n\treceive() external payable {\n\t\trequire(msg.sender == WAVAX, \"ONLY_ACCEPT_WAVAX\"); // only accept ETH via fallback from the WAVAX contract\n\t}\n\n\t/**\n     * @dev Deposits tokens in the given pool. Creates new Farm contract if there isn't one deployed for the {lpPair} and deposits tokens in it. Emits a {Deposit} event.\n     * @param lpPair - Address of the pool to deposit tokens in.\n     * @param amountA  - Token A amount to deposit.\n     * @param amountB -  Token B amount to deposit.\n     * @param amountAMin - Bounds the extent to which the B/A price can go up before the transaction reverts.\n     * @param amountBMin - Bounds the extent to which the A/B price can go up before the transaction reverts.\n     * @param amountLP - Additional LP Token amount to deposit.\n     * @param recipient - Address which will receive the deposit.\n     \n     * @return sentA - Token A amount sent to the farm.\n     * @return sentB - Token B amount sent to the farm.\n     * @return liquidity - Total liquidity sent to the farm (in lpTokens).\n     */\n\tfunction deposit(\n\t\taddress lpPair,\n\t\tuint256 amountA,\n\t\tuint256 amountB,\n\t\tuint256 amountAMin,\n\t\tuint256 amountBMin,\n\t\tuint256 amountLP,\n\t\taddress recipient\n\t)\n\t\texternal\n\t\twhenNotPaused\n\t\treturns (\n\t\t\tuint256 sentA,\n\t\t\tuint256 sentB,\n\t\t\tuint256 liquidity\n\t\t)\n\t{\n\t\tFarm farm = Farm(farmFactory.Farms(lpPair));\n\t\tif (farm == Farm(address(0))) {\n\t\t\tfarm = Farm(farmFactory.createFarm(lpPair));\n\t\t}\n\n\t\tif (amountLP > 0) {\n\t\t\tIERC20Upgradeable(lpPair).safeTransferFrom(\n\t\t\t\tmsg.sender,\n\t\t\t\taddress(farm),\n\t\t\t\tamountLP\n\t\t\t);\n\t\t}\n\t\tif (amountA > 0) {\n\t\t\tIERC20Upgradeable(farm.tokenA()).safeTransferFrom(\n\t\t\t\tmsg.sender,\n\t\t\t\taddress(farm),\n\t\t\t\tamountA\n\t\t\t);\n\t\t}\n\t\tif (amountB > 0) {\n\t\t\tIERC20Upgradeable(farm.tokenB()).safeTransferFrom(\n\t\t\t\tmsg.sender,\n\t\t\t\taddress(farm),\n\t\t\t\tamountB\n\t\t\t);\n\t\t}\n\n\t\t(sentA, sentB, liquidity) = farm.deposit(\n\t\t\tamountA,\n\t\t\tamountB,\n\t\t\tamountAMin,\n\t\t\tamountBMin,\n\t\t\tamountLP,\n\t\t\tmsg.sender,\n\t\t\trecipient\n\t\t);\n\t\temit Deposit(lpPair, msg.sender, recipient, liquidity);\n\t}\n\n\t/**\n     * @dev Autoconverts MATIC into WAVAX and deposits tokens in the given pool. Creates new Farm contract if there isn't one deployed for the {lpStakingPool} and deposits tokens in it. Emits a {Deposit} event.\n     * @param lpPair - Address of the pool to deposit tokens in.\n     * @param amountToken  - Token amount to deposit.\n     * @param amountTokenMin - Bounds the extent to which the TOKEN/WAVAX price can go up before the transaction reverts.\n     * @param amountETHMin - Bounds the extent to which the WAVAX/TOKEN price can go up before the transaction reverts.\n     * @param amountLP - Additional LP Token amount to deposit.\n     * @param recipient - Address which will receive the deposit.\n     \n     * @return sentToken - Token amount sent to the farm.\n     * @return sentETH - WAVAX amount sent to the farm.\n     * @return liquidity - Total liquidity sent to the farm (in lpTokens).\n     */\n\tfunction depositETH(\n\t\taddress lpPair,\n\t\tuint256 amountToken,\n\t\tuint256 amountTokenMin,\n\t\tuint256 amountETHMin,\n\t\tuint256 amountLP,\n\t\taddress recipient\n\t)\n\t\texternal\n\t\tpayable\n\t\twhenNotPaused\n\t\treturns (\n\t\t\tuint256 sentToken,\n\t\t\tuint256 sentETH,\n\t\t\tuint256 liquidity\n\t\t)\n\t{\n\t\trequire(msg.value > 0, \"NO_MATIC_SENT\");\n\t\tFarm farm = Farm(farmFactory.Farms(lpPair));\n\t\tif (farm == Farm(address(0))) {\n\t\t\tfarm = Farm(farmFactory.createFarm(lpPair));\n\t\t}\n\n\t\tif (amountLP > 0) {\n\t\t\tIERC20Upgradeable(lpPair).safeTransferFrom(\n\t\t\t\tmsg.sender,\n\t\t\t\taddress(farm),\n\t\t\t\tamountLP\n\t\t\t);\n\t\t}\n\n\t\taddress tokenA = farm.tokenA();\n\t\taddress tokenB = farm.tokenB();\n\n\t\tIWAVAX(WAVAX).deposit{ value: msg.value }();\n\t\tIERC20Upgradeable(WAVAX).safeTransfer(address(farm), msg.value);\n\t\tif (tokenA == WAVAX) {\n\t\t\tif (amountToken > 0) {\n\t\t\t\tIERC20Upgradeable(tokenB).safeTransferFrom(\n\t\t\t\t\tmsg.sender,\n\t\t\t\t\taddress(farm),\n\t\t\t\t\tamountToken\n\t\t\t\t);\n\t\t\t}\n\t\t\t(sentETH, sentToken, liquidity) = farm.deposit(\n\t\t\t\tmsg.value,\n\t\t\t\tamountToken,\n\t\t\t\tamountETHMin,\n\t\t\t\tamountTokenMin,\n\t\t\t\tamountLP,\n\t\t\t\taddress(this),\n\t\t\t\trecipient\n\t\t\t);\n\t\t\tIERC20Upgradeable(tokenB).safeTransfer(\n\t\t\t\tmsg.sender,\n\t\t\t\tamountToken - sentToken\n\t\t\t);\n\t\t} else if (tokenB == WAVAX) {\n\t\t\tif (amountToken > 0) {\n\t\t\t\tIERC20Upgradeable(tokenA).safeTransferFrom(\n\t\t\t\t\tmsg.sender,\n\t\t\t\t\taddress(farm),\n\t\t\t\t\tamountToken\n\t\t\t\t);\n\t\t\t}\n\t\t\t(sentToken, sentETH, liquidity) = farm.deposit(\n\t\t\t\tamountToken,\n\t\t\t\tmsg.value,\n\t\t\t\tamountTokenMin,\n\t\t\t\tamountETHMin,\n\t\t\t\tamountLP,\n\t\t\t\taddress(this),\n\t\t\t\trecipient\n\t\t\t);\n\t\t\tIERC20Upgradeable(tokenA).safeTransfer(\n\t\t\t\tmsg.sender,\n\t\t\t\tamountToken - sentToken\n\t\t\t);\n\t\t} else {\n\t\t\trevert(\"NOT_WAVAX_POOL\");\n\t\t}\n\n\t\tuint256 dust = msg.value - sentETH;\n\t\tif (dust > 0) {\n\t\t\tIWAVAX(WAVAX).withdraw(dust);\n\t\t\tpayable(msg.sender).transfer(dust);\n\t\t}\n\t\temit Deposit(lpPair, msg.sender, recipient, liquidity);\n\t}\n\n\t/** \n     * @dev Withdraws tokens from the given pool. Emits a {Withdraw} event.\n     * @param lpPair - LP pool to withdraw from.\n     * @param amount - LP amount to withdraw. \n     * @param amountAMin - The minimum amount of tokenA that must be received for the transaction not to revert.\n     * @param amountBMin - The minimum amount of tokenB that must be received for the transaction not to revert.\n     * @param withdrawLP - True: Withdraw in LP tokens, False: Withdraw in normal tokens.\n     * @param recipient - The address which will receive tokens.\n\n     * @return amountA - Token A amount sent to the {recipient}, 0 if withdrawLP == false.\n     * @return amountB - Token B amount sent to the {recipient}, 0 if withdrawLP == false.\n     */\n\tfunction withdraw(\n\t\taddress lpPair,\n\t\tuint256 amount,\n\t\tuint256 amountAMin,\n\t\tuint256 amountBMin,\n\t\tbool withdrawLP,\n\t\taddress recipient\n\t) external returns (uint256 amountA, uint256 amountB) {\n\t\tFarm farm = Farm(farmFactory.Farms(lpPair));\n\t\trequire(farm != Farm(address(0)), \"FARM_NOT_EXISTS\");\n\n\t\t(amountA, amountB) = farm.withdraw(\n\t\t\tamount,\n\t\t\tamountAMin,\n\t\t\tamountBMin,\n\t\t\twithdrawLP,\n\t\t\tmsg.sender,\n\t\t\trecipient\n\t\t);\n\t\temit Withdraw(lpPair, msg.sender, recipient, amount);\n\t}\n\n\t/** \n     * @dev Autoconverts WAVAX into MATIC and withdraws tokens from the pool. Emits a {Withdraw} event.\n     * @param lpPair - LP pool to withdraw from.\n     * @param amount - LP amount to withdraw. \n     * @param amountTokenMin - The minimum amount of token that must be received for the transaction not to revert.\n     * @param amountETHMin - The minimum amount of MATIC that must be received for the transaction not to revert.\n     * @param recipient - The address which will receive tokens.\n\n     * @return amountToken - Token amount sent to the {recipient}.\n     * @return amountETH - MATIC amount sent to the {recipient}.\n     */\n\tfunction withdrawETH(\n\t\taddress lpPair,\n\t\tuint256 amount,\n\t\tuint256 amountTokenMin,\n\t\tuint256 amountETHMin,\n\t\taddress recipient\n\t) external payable returns (uint256 amountToken, uint256 amountETH) {\n\t\tFarm farm = Farm(farmFactory.Farms(lpPair));\n\t\trequire(farm != Farm(address(0)), \"FARM_NOT_EXISTS\");\n\n\t\taddress tokenA = farm.tokenA();\n\t\taddress tokenB = farm.tokenB();\n\n\t\tif (tokenA == WAVAX) {\n\t\t\t(amountETH, amountToken) = farm.withdraw(\n\t\t\t\tamount,\n\t\t\t\tamountETHMin,\n\t\t\t\tamountTokenMin,\n\t\t\t\tfalse,\n\t\t\t\tmsg.sender,\n\t\t\t\taddress(this)\n\t\t\t);\n\t\t\tIERC20Upgradeable(tokenB).safeTransfer(recipient, amountToken);\n\t\t} else if (tokenB == WAVAX) {\n\t\t\t(amountToken, amountETH) = farm.withdraw(\n\t\t\t\tamount,\n\t\t\t\tamountTokenMin,\n\t\t\t\tamountETHMin,\n\t\t\t\tfalse,\n\t\t\t\tmsg.sender,\n\t\t\t\taddress(this)\n\t\t\t);\n\t\t\tIERC20Upgradeable(tokenA).safeTransfer(recipient, amountToken);\n\t\t} else {\n\t\t\trevert(\"NOT_WMATIC_POOL\");\n\t\t}\n\n\t\tIWAVAX(WAVAX).withdraw(amountETH);\n\t\tpayable(recipient).transfer(amountETH);\n\t\temit Withdraw(lpPair, msg.sender, recipient, amount);\n\t}\n\n\t/**\n\t * @dev Distributes tokens between users.\n\t * @param lpPair - LP pool to distribute tokens in.\n\t * @param swapInfos - Arrays of structs with token arrays describing swap routes (rewardTokenToTokenA, rewardTokenToTokenB, rewarderTokenToTokenA, rewarderTokenToTokenB) and minimum amounts of output tokens that must be received for the transaction not to revert.\n\t * @param feeSwapInfo - Struct with token arrays describing swap route (rewardTokenToFeeToken, rewarderTokenToFeeToken) and minimum amounts of output tokens that must be received for the transaction not to revert.\n\t * @param feeTo - Address to collect fees to.\n\t *\n\t * Note: This function can only be called by the distributor.\n\t */\n\tfunction distribute(\n\t\taddress lpPair,\n\t\tFarm.SwapInfo[4] calldata swapInfos,\n\t\tFarm.SwapInfo[2] calldata feeSwapInfo,\n\t\taddress feeTo\n\t) external whenNotPaused onlyRole(DISTRIBUTOR_ROLE) {\n\t\tFarm farm = Farm(farmFactory.Farms(lpPair));\n\t\trequire(farm != Farm(address(0)), \"FARM_NOT_EXISTS\");\n\n\t\tuint256 reward = farm.distribute(\n\t\t\tswapInfos,\n\t\t\tfeeSwapInfo,\n\t\t\tFarm.FeeInfo(feeTo, fee)\n\t\t);\n\t\temit Distribute(lpPair, reward);\n\t}\n\n\t/**\n     * @dev Returns tokens staked by the {_address} for the given {lpPair}.\n     * @param _address - The address to check stakes for.\n     * @param lpPair - LP pool to check stakes in.\n\n     * @return stakeLP - Total user stake(in LP tokens).\n     * @return stakeA - Token A stake.\n     * @return stakeB - Token B stake.\n     */\n\tfunction userStake(address _address, address lpPair)\n\t\texternal\n\t\tview\n\t\treturns (\n\t\t\tuint256 stakeLP,\n\t\t\tuint256 stakeA,\n\t\t\tuint256 stakeB\n\t\t)\n\t{\n\t\tFarm farm = Farm(farmFactory.Farms(lpPair));\n\t\tif (farm != Farm(address(0))) {\n\t\t\tstakeLP = farm.userBalance(_address);\n\t\t\t(stakeA, stakeB) = getTokenStake(lpPair, stakeLP);\n\t\t}\n\t}\n\n\t/**\n     * @dev Returns total amount locked in the pool. Doesn't take pending rewards into account.\n     * @param lpPair - LP pool to check total deposits in.\n\n     * @return totalDepositsLP - Total deposits (in LP tokens).\n     * @return totalDepositsA - Token A deposits.\n     * @return totalDepositsB - Token B deposits.\n     */\n\tfunction totalDeposits(address lpPair)\n\t\texternal\n\t\tview\n\t\treturns (\n\t\t\tuint256 totalDepositsLP,\n\t\t\tuint256 totalDepositsA,\n\t\t\tuint256 totalDepositsB\n\t\t)\n\t{\n\t\tFarm farm = Farm(farmFactory.Farms(lpPair));\n\t\tif (farm != Farm(address(0))) {\n\t\t\ttotalDepositsLP = farm.getTotalDeposits();\n\t\t\t(totalDepositsA, totalDepositsB) = getTokenStake(\n\t\t\t\tlpPair,\n\t\t\t\ttotalDepositsLP\n\t\t\t);\n\t\t}\n\t}\n\n\t/**\n     * @dev Returns addresses of tokens in {lpPair}.\n     * @param lpPair - LP pair to check tokens in.\n\n     * @return tokens - Tokens addresses.\n     */\n\tfunction getTokens(address lpPair)\n\t\texternal\n\t\tview\n\t\treturns (IERC20Upgradeable[] memory tokens)\n\t{\n\t\ttokens = new IERC20Upgradeable[](2);\n\t\ttokens[0] = IERC20Upgradeable(IUniswapV2Pair(lpPair).token0());\n\t\ttokens[1] = IERC20Upgradeable(IUniswapV2Pair(lpPair).token1());\n\t}\n\n\t/**\n     * @dev Converts LP tokens to normal tokens, value(amountA) == value(amountB) == 0.5*amountLP\n     * @param lpPair - LP pair for conversion.\n     * @param amountLP - Amount of LP tokens to convert.\n\n     * @return amountA - Token A amount.\n     * @return amountB - Token B amount.\n     */\n\tfunction getTokenStake(address lpPair, uint256 amountLP)\n\t\tinternal\n\t\tview\n\t\treturns (uint256 amountA, uint256 amountB)\n\t{\n\t\tuint256 totalSupply = IERC20Upgradeable(lpPair).totalSupply();\n\t\tamountA =\n\t\t\t(amountLP *\n\t\t\t\tIERC20Upgradeable(IUniswapV2Pair(lpPair).token0()).balanceOf(\n\t\t\t\t\tlpPair\n\t\t\t\t)) /\n\t\t\ttotalSupply;\n\t\tamountB =\n\t\t\t(amountLP *\n\t\t\t\tIERC20Upgradeable(IUniswapV2Pair(lpPair).token1()).balanceOf(\n\t\t\t\t\tlpPair\n\t\t\t\t)) /\n\t\t\ttotalSupply;\n\t}\n\n\t/**\n\t * @dev Change fee amount.\n\t * @param _fee -New fee to collect from farms. [10^18 == 100%]\n\t *\n\t * Note: This function can only be called by ADMIN_ROLE.\n\t */\n\tfunction setFee(uint256 _fee)\n\t\texternal\n\t\tonlyRole(accessManager.ADMIN_ROLE())\n\t{\n\t\trequire(_fee <= 1 ether, \"BAD_FEE\");\n\t\tif (fee != _fee) {\n\t\t\temit FeeChanged(fee, _fee);\n\t\t\tfee = _fee;\n\t\t}\n\t}\n\n\tfunction pause() external onlyRole(PAUSER_ROLE) {\n\t\t_pause();\n\t}\n\n\tfunction unpause() external onlyRole(PAUSER_ROLE) {\n\t\t_unpause();\n\t}\n\n\tfunction _authorizeUpgrade(address)\n\t\tinternal\n\t\toverride\n\t\tonlyRole(accessManager.ADMIN_ROLE())\n\t{}\n}\n",
  "sourcePath": "/home/ilau/projectWork/uno-contracts/contracts/apps/traderjoe/UnoAssetRouterTraderjoe.sol",
  "compiler": {
    "name": "solc",
    "version": "0.8.10+commit.fc410830.Emscripten.clang"
  },
  "schemaVersion": "3.4.10",
  "updatedAt": "2022-10-19T17:13:47.301Z",
  "devdoc": {
    "kind": "dev",
    "methods": {
      "constructor": {
        "custom:oz-upgrades-unsafe-allow": "constructor"
      },
      "deposit(address,uint256,uint256,uint256,uint256,uint256,address)": {
        "details": "Deposits tokens in the given pool. Creates new Farm contract if there isn't one deployed for the {lpPair} and deposits tokens in it. Emits a {Deposit} event.",
        "params": {
          "amountA": "- Token A amount to deposit.",
          "amountAMin": "- Bounds the extent to which the B/A price can go up before the transaction reverts.",
          "amountB": "-  Token B amount to deposit.",
          "amountBMin": "- Bounds the extent to which the A/B price can go up before the transaction reverts.",
          "amountLP": "- Additional LP Token amount to deposit.",
          "lpPair": "- Address of the pool to deposit tokens in.",
          "recipient": "- Address which will receive the deposit."
        },
        "returns": {
          "liquidity": "- Total liquidity sent to the farm (in lpTokens).",
          "sentA": "- Token A amount sent to the farm.",
          "sentB": "- Token B amount sent to the farm."
        }
      },
      "depositETH(address,uint256,uint256,uint256,uint256,address)": {
        "details": "Autoconverts MATIC into WAVAX and deposits tokens in the given pool. Creates new Farm contract if there isn't one deployed for the {lpStakingPool} and deposits tokens in it. Emits a {Deposit} event.",
        "params": {
          "amountETHMin": "- Bounds the extent to which the WAVAX/TOKEN price can go up before the transaction reverts.",
          "amountLP": "- Additional LP Token amount to deposit.",
          "amountToken": "- Token amount to deposit.",
          "amountTokenMin": "- Bounds the extent to which the TOKEN/WAVAX price can go up before the transaction reverts.",
          "lpPair": "- Address of the pool to deposit tokens in.",
          "recipient": "- Address which will receive the deposit."
        },
        "returns": {
          "liquidity": "- Total liquidity sent to the farm (in lpTokens).",
          "sentETH": "- WAVAX amount sent to the farm.",
          "sentToken": "- Token amount sent to the farm."
        }
      },
      "distribute(address,(address[],uint256)[4],(address[],uint256)[2],address)": {
        "details": "Distributes tokens between users.",
        "params": {
          "feeSwapInfo": "- Struct with token arrays describing swap route (rewardTokenToFeeToken, rewarderTokenToFeeToken) and minimum amounts of output tokens that must be received for the transaction not to revert.",
          "feeTo": "- Address to collect fees to. Note: This function can only be called by the distributor.",
          "lpPair": "- LP pool to distribute tokens in.",
          "swapInfos": "- Arrays of structs with token arrays describing swap routes (rewardTokenToTokenA, rewardTokenToTokenB, rewarderTokenToTokenA, rewarderTokenToTokenB) and minimum amounts of output tokens that must be received for the transaction not to revert."
        }
      },
      "getTokens(address)": {
        "details": "Returns addresses of tokens in {lpPair}.",
        "params": {
          "lpPair": "- LP pair to check tokens in."
        },
        "returns": {
          "tokens": "- Tokens addresses."
        }
      },
      "paused()": {
        "details": "Returns true if the contract is paused, and false otherwise."
      },
      "proxiableUUID()": {
        "details": "Implementation of the ERC1822 {proxiableUUID} function. This returns the storage slot used by the implementation. It is used to validate that the this implementation remains valid after an upgrade. IMPORTANT: A proxy pointing at a proxiable contract should not be considered proxiable itself, because this risks bricking a proxy that upgrades to it, by delegating to itself until out of gas. Thus it is critical that this function revert if invoked through a proxy. This is guaranteed by the `notDelegated` modifier."
      },
      "setFee(uint256)": {
        "details": "Change fee amount.",
        "params": {
          "_fee": "-New fee to collect from farms. [10^18 == 100%] Note: This function can only be called by ADMIN_ROLE."
        }
      },
      "totalDeposits(address)": {
        "details": "Returns total amount locked in the pool. Doesn't take pending rewards into account.",
        "params": {
          "lpPair": "- LP pool to check total deposits in."
        },
        "returns": {
          "totalDepositsA": "- Token A deposits.",
          "totalDepositsB": "- Token B deposits.",
          "totalDepositsLP": "- Total deposits (in LP tokens)."
        }
      },
      "upgradeTo(address)": {
        "details": "Upgrade the implementation of the proxy to `newImplementation`. Calls {_authorizeUpgrade}. Emits an {Upgraded} event."
      },
      "upgradeToAndCall(address,bytes)": {
        "details": "Upgrade the implementation of the proxy to `newImplementation`, and subsequently execute the function call encoded in `data`. Calls {_authorizeUpgrade}. Emits an {Upgraded} event."
      },
      "userStake(address,address)": {
        "details": "Returns tokens staked by the {_address} for the given {lpPair}.",
        "params": {
          "_address": "- The address to check stakes for.",
          "lpPair": "- LP pool to check stakes in."
        },
        "returns": {
          "stakeA": "- Token A stake.",
          "stakeB": "- Token B stake.",
          "stakeLP": "- Total user stake(in LP tokens)."
        }
      },
      "withdraw(address,uint256,uint256,uint256,bool,address)": {
        "details": "Withdraws tokens from the given pool. Emits a {Withdraw} event.",
        "params": {
          "amount": "- LP amount to withdraw. ",
          "amountAMin": "- The minimum amount of tokenA that must be received for the transaction not to revert.",
          "amountBMin": "- The minimum amount of tokenB that must be received for the transaction not to revert.",
          "lpPair": "- LP pool to withdraw from.",
          "recipient": "- The address which will receive tokens.",
          "withdrawLP": "- True: Withdraw in LP tokens, False: Withdraw in normal tokens."
        },
        "returns": {
          "amountA": "- Token A amount sent to the {recipient}, 0 if withdrawLP == false.",
          "amountB": "- Token B amount sent to the {recipient}, 0 if withdrawLP == false."
        }
      },
      "withdrawETH(address,uint256,uint256,uint256,address)": {
        "details": "Autoconverts WAVAX into MATIC and withdraws tokens from the pool. Emits a {Withdraw} event.",
        "params": {
          "amount": "- LP amount to withdraw. ",
          "amountETHMin": "- The minimum amount of MATIC that must be received for the transaction not to revert.",
          "amountTokenMin": "- The minimum amount of token that must be received for the transaction not to revert.",
          "lpPair": "- LP pool to withdraw from.",
          "recipient": "- The address which will receive tokens."
        },
        "returns": {
          "amountETH": "- MATIC amount sent to the {recipient}.",
          "amountToken": "- Token amount sent to the {recipient}."
        }
      }
    },
    "stateVariables": {
      "farmFactory": {
        "details": "Contract Variables: farmFactory - The contract that deploys new Farms and links them to {lpPair}s. accessManager - Role manager contract."
      }
    },
    "version": 1
  },
  "userdoc": {
    "kind": "user",
    "methods": {},
    "version": 1
  }
}