{
  "contractName": "UnoAssetRouterTrisolarisStable",
  "abi": [
    {
      "inputs": [],
      "stateMutability": "nonpayable",
      "type": "constructor"
    },
    {
      "inputs": [],
      "name": "CALLER_NOT_AUTHORIZED",
      "type": "error"
    },
    {
      "inputs": [],
      "name": "ETH_DEPOSIT_REJECTED",
      "type": "error"
    },
    {
      "inputs": [],
      "name": "FARM_NOT_EXISTS",
      "type": "error"
    },
    {
      "inputs": [],
      "name": "INSUFFICIENT_AMOUNT",
      "type": "error"
    },
    {
      "inputs": [],
      "name": "INVALID_ACCESS_MANAGER",
      "type": "error"
    },
    {
      "inputs": [
        {
          "internalType": "uint256",
          "name": "tokenLength",
          "type": "uint256"
        }
      ],
      "name": "INVALID_AMOUNT_LENGTH",
      "type": "error"
    },
    {
      "inputs": [],
      "name": "INVALID_FARM_FACTORY",
      "type": "error"
    },
    {
      "inputs": [
        {
          "internalType": "uint256",
          "name": "tokenLength",
          "type": "uint256"
        }
      ],
      "name": "INVALID_MIN_AMOUNTS_LENGTH",
      "type": "error"
    },
    {
      "inputs": [],
      "name": "INVALID_MSG_VALUE",
      "type": "error"
    },
    {
      "inputs": [
        {
          "internalType": "uint256",
          "name": "tokenLength",
          "type": "uint256"
        }
      ],
      "name": "INVALID_SWAP_DATA_LENGTH",
      "type": "error"
    },
    {
      "inputs": [],
      "name": "INVALID_SWAP_DESCRIPTION",
      "type": "error"
    },
    {
      "inputs": [
        {
          "internalType": "uint256",
          "name": "maxFee",
          "type": "uint256"
        }
      ],
      "name": "MAX_FEE_EXCEEDED",
      "type": "error"
    },
    {
      "inputs": [],
      "name": "NOT_ETH_FARM",
      "type": "error"
    },
    {
      "inputs": [],
      "name": "NO_LIQUIDITY_PROVIDED",
      "type": "error"
    },
    {
      "inputs": [],
      "name": "NO_TOKENS_IN_SWAP",
      "type": "error"
    },
    {
      "inputs": [],
      "name": "NO_TOKENS_SENT",
      "type": "error"
    },
    {
      "inputs": [],
      "name": "SWAP_NOT_SUCCESSFUL",
      "type": "error"
    },
    {
      "inputs": [],
      "name": "TRANSFER_NOT_SUCCESSFUL",
      "type": "error"
    },
    {
      "anonymous": false,
      "inputs": [
        {
          "indexed": false,
          "internalType": "address",
          "name": "previousAdmin",
          "type": "address"
        },
        {
          "indexed": false,
          "internalType": "address",
          "name": "newAdmin",
          "type": "address"
        }
      ],
      "name": "AdminChanged",
      "type": "event"
    },
    {
      "anonymous": false,
      "inputs": [
        {
          "indexed": true,
          "internalType": "address",
          "name": "beacon",
          "type": "address"
        }
      ],
      "name": "BeaconUpgraded",
      "type": "event"
    },
    {
      "anonymous": false,
      "inputs": [
        {
          "indexed": true,
          "internalType": "address",
          "name": "lpPool",
          "type": "address"
        },
        {
          "indexed": true,
          "internalType": "address",
          "name": "sender",
          "type": "address"
        },
        {
          "indexed": true,
          "internalType": "address",
          "name": "recipient",
          "type": "address"
        },
        {
          "indexed": false,
          "internalType": "uint256",
          "name": "amount",
          "type": "uint256"
        }
      ],
      "name": "Deposit",
      "type": "event"
    },
    {
      "anonymous": false,
      "inputs": [
        {
          "indexed": true,
          "internalType": "address",
          "name": "lpPool",
          "type": "address"
        },
        {
          "indexed": false,
          "internalType": "uint256",
          "name": "reward",
          "type": "uint256"
        }
      ],
      "name": "Distribute",
      "type": "event"
    },
    {
      "anonymous": false,
      "inputs": [
        {
          "indexed": false,
          "internalType": "uint256",
          "name": "previousFee",
          "type": "uint256"
        },
        {
          "indexed": false,
          "internalType": "uint256",
          "name": "newFee",
          "type": "uint256"
        }
      ],
      "name": "FeeChanged",
      "type": "event"
    },
    {
      "anonymous": false,
      "inputs": [
        {
          "indexed": false,
          "internalType": "uint8",
          "name": "version",
          "type": "uint8"
        }
      ],
      "name": "Initialized",
      "type": "event"
    },
    {
      "anonymous": false,
      "inputs": [
        {
          "indexed": false,
          "internalType": "address",
          "name": "account",
          "type": "address"
        }
      ],
      "name": "Paused",
      "type": "event"
    },
    {
      "anonymous": false,
      "inputs": [
        {
          "indexed": false,
          "internalType": "address",
          "name": "account",
          "type": "address"
        }
      ],
      "name": "Unpaused",
      "type": "event"
    },
    {
      "anonymous": false,
      "inputs": [
        {
          "indexed": true,
          "internalType": "address",
          "name": "implementation",
          "type": "address"
        }
      ],
      "name": "Upgraded",
      "type": "event"
    },
    {
      "anonymous": false,
      "inputs": [
        {
          "indexed": true,
          "internalType": "address",
          "name": "lpPool",
          "type": "address"
        },
        {
          "indexed": true,
          "internalType": "address",
          "name": "sender",
          "type": "address"
        },
        {
          "indexed": true,
          "internalType": "address",
          "name": "recipient",
          "type": "address"
        },
        {
          "indexed": false,
          "internalType": "uint256",
          "name": "amount",
          "type": "uint256"
        }
      ],
      "name": "Withdraw",
      "type": "event"
    },
    {
      "inputs": [],
      "name": "WETH",
      "outputs": [
        {
          "internalType": "address",
          "name": "",
          "type": "address"
        }
      ],
      "stateMutability": "view",
      "type": "function"
    },
    {
      "inputs": [],
      "name": "accessManager",
      "outputs": [
        {
          "internalType": "contract IUnoAccessManager",
          "name": "",
          "type": "address"
        }
      ],
      "stateMutability": "view",
      "type": "function"
    },
    {
      "inputs": [],
      "name": "farmFactory",
      "outputs": [
        {
          "internalType": "contract IUnoFarmFactory",
          "name": "",
          "type": "address"
        }
      ],
      "stateMutability": "view",
      "type": "function"
    },
    {
      "inputs": [],
      "name": "fee",
      "outputs": [
        {
          "internalType": "uint256",
          "name": "",
          "type": "uint256"
        }
      ],
      "stateMutability": "view",
      "type": "function"
    },
    {
      "inputs": [],
      "name": "paused",
      "outputs": [
        {
          "internalType": "bool",
          "name": "",
          "type": "bool"
        }
      ],
      "stateMutability": "view",
      "type": "function"
    },
    {
      "inputs": [],
      "name": "proxiableUUID",
      "outputs": [
        {
          "internalType": "bytes32",
          "name": "",
          "type": "bytes32"
        }
      ],
      "stateMutability": "view",
      "type": "function"
    },
    {
      "inputs": [
        {
          "internalType": "address",
          "name": "newImplementation",
          "type": "address"
        }
      ],
      "name": "upgradeTo",
      "outputs": [],
      "stateMutability": "nonpayable",
      "type": "function"
    },
    {
      "inputs": [
        {
          "internalType": "address",
          "name": "newImplementation",
          "type": "address"
        },
        {
          "internalType": "bytes",
          "name": "data",
          "type": "bytes"
        }
      ],
      "name": "upgradeToAndCall",
      "outputs": [],
      "stateMutability": "payable",
      "type": "function"
    },
    {
      "stateMutability": "payable",
      "type": "receive"
    },
    {
      "inputs": [
        {
          "internalType": "address",
          "name": "_accessManager",
          "type": "address"
        },
        {
          "internalType": "address",
          "name": "_farmFactory",
          "type": "address"
        }
      ],
      "name": "initialize",
      "outputs": [],
      "stateMutability": "nonpayable",
      "type": "function"
    },
    {
      "inputs": [
        {
          "internalType": "address",
          "name": "swap",
          "type": "address"
        },
        {
          "internalType": "uint256[]",
          "name": "amounts",
          "type": "uint256[]"
        },
        {
          "internalType": "uint256",
          "name": "minAmountLP",
          "type": "uint256"
        },
        {
          "internalType": "address",
          "name": "recipient",
          "type": "address"
        }
      ],
      "name": "deposit",
      "outputs": [
        {
          "internalType": "uint256",
          "name": "liquidity",
          "type": "uint256"
        }
      ],
      "stateMutability": "nonpayable",
      "type": "function"
    },
    {
      "inputs": [
        {
          "internalType": "address",
          "name": "swap",
          "type": "address"
        },
        {
          "internalType": "uint256[]",
          "name": "amounts",
          "type": "uint256[]"
        },
        {
          "internalType": "uint256",
          "name": "minAmountLP",
          "type": "uint256"
        },
        {
          "internalType": "address",
          "name": "recipient",
          "type": "address"
        }
      ],
      "name": "depositETH",
      "outputs": [
        {
          "internalType": "uint256",
          "name": "liquidity",
          "type": "uint256"
        }
      ],
      "stateMutability": "payable",
      "type": "function"
    },
    {
      "inputs": [
        {
          "internalType": "address",
          "name": "swap",
          "type": "address"
        },
        {
          "internalType": "bytes[]",
          "name": "swapData",
          "type": "bytes[]"
        },
        {
          "internalType": "uint256",
          "name": "minAmountLP",
          "type": "uint256"
        },
        {
          "internalType": "address",
          "name": "recipient",
          "type": "address"
        }
      ],
      "name": "depositWithSwap",
      "outputs": [
        {
          "internalType": "uint256[]",
          "name": "sent",
          "type": "uint256[]"
        },
        {
          "internalType": "uint256",
          "name": "liquidity",
          "type": "uint256"
        }
      ],
      "stateMutability": "payable",
      "type": "function"
    },
    {
      "inputs": [
        {
          "internalType": "address",
          "name": "swap",
          "type": "address"
        },
        {
          "internalType": "uint256",
          "name": "amount",
          "type": "uint256"
        },
        {
          "internalType": "address",
          "name": "recipient",
          "type": "address"
        }
      ],
      "name": "depositLP",
      "outputs": [],
      "stateMutability": "nonpayable",
      "type": "function"
    },
    {
      "inputs": [
        {
          "internalType": "address",
          "name": "swap",
          "type": "address"
        },
        {
          "internalType": "uint256",
          "name": "amount",
          "type": "uint256"
        },
        {
          "internalType": "uint256[]",
          "name": "minAmounts",
          "type": "uint256[]"
        },
        {
          "internalType": "address",
          "name": "recipient",
          "type": "address"
        }
      ],
      "name": "withdraw",
      "outputs": [
        {
          "internalType": "uint256[]",
          "name": "amounts",
          "type": "uint256[]"
        }
      ],
      "stateMutability": "nonpayable",
      "type": "function"
    },
    {
      "inputs": [
        {
          "internalType": "address",
          "name": "swap",
          "type": "address"
        },
        {
          "internalType": "uint256",
          "name": "amount",
          "type": "uint256"
        },
        {
          "internalType": "uint256[]",
          "name": "minAmounts",
          "type": "uint256[]"
        },
        {
          "internalType": "address",
          "name": "recipient",
          "type": "address"
        }
      ],
      "name": "withdrawETH",
      "outputs": [
        {
          "internalType": "uint256[]",
          "name": "amounts",
          "type": "uint256[]"
        }
      ],
      "stateMutability": "nonpayable",
      "type": "function"
    },
    {
      "inputs": [
        {
          "internalType": "address",
          "name": "swap",
          "type": "address"
        },
        {
          "internalType": "uint256",
          "name": "amount",
          "type": "uint256"
        },
        {
          "internalType": "bytes[]",
          "name": "swapData",
          "type": "bytes[]"
        },
        {
          "internalType": "address",
          "name": "recipient",
          "type": "address"
        }
      ],
      "name": "withdrawWithSwap",
      "outputs": [
        {
          "internalType": "uint256[]",
          "name": "amounts",
          "type": "uint256[]"
        },
        {
          "internalType": "uint256[]",
          "name": "dust",
          "type": "uint256[]"
        }
      ],
      "stateMutability": "nonpayable",
      "type": "function"
    },
    {
      "inputs": [
        {
          "internalType": "address",
          "name": "swap",
          "type": "address"
        },
        {
          "internalType": "uint256",
          "name": "amount",
          "type": "uint256"
        },
        {
          "internalType": "address",
          "name": "recipient",
          "type": "address"
        }
      ],
      "name": "withdrawLP",
      "outputs": [],
      "stateMutability": "nonpayable",
      "type": "function"
    },
    {
      "inputs": [
        {
          "internalType": "address",
          "name": "swap",
          "type": "address"
        },
        {
          "components": [
            {
              "internalType": "address[]",
              "name": "route",
              "type": "address[]"
            },
            {
              "internalType": "uint256",
              "name": "amountOutMin",
              "type": "uint256"
            }
          ],
          "internalType": "struct IUnoFarm.SwapInfo[]",
          "name": "rewardSwapInfos",
          "type": "tuple[]"
        },
        {
          "components": [
            {
              "internalType": "address[]",
              "name": "route",
              "type": "address[]"
            },
            {
              "internalType": "uint256",
              "name": "amountOutMin",
              "type": "uint256"
            }
          ],
          "internalType": "struct IUnoFarm.SwapInfo[]",
          "name": "rewarderSwapInfos",
          "type": "tuple[]"
        },
        {
          "components": [
            {
              "internalType": "address[]",
              "name": "route",
              "type": "address[]"
            },
            {
              "internalType": "uint256",
              "name": "amountOutMin",
              "type": "uint256"
            }
          ],
          "internalType": "struct IUnoFarm.SwapInfo[2]",
          "name": "feeSwapInfos",
          "type": "tuple[2]"
        },
        {
          "internalType": "address",
          "name": "feeTo",
          "type": "address"
        }
      ],
      "name": "distribute",
      "outputs": [
        {
          "internalType": "uint256",
          "name": "reward",
          "type": "uint256"
        }
      ],
      "stateMutability": "nonpayable",
      "type": "function"
    },
    {
      "inputs": [
        {
          "internalType": "address",
          "name": "_address",
          "type": "address"
        },
        {
          "internalType": "address",
          "name": "swap",
          "type": "address"
        }
      ],
      "name": "userStake",
      "outputs": [
        {
          "internalType": "uint256",
          "name": "stakeLP",
          "type": "uint256"
        }
      ],
      "stateMutability": "view",
      "type": "function"
    },
    {
      "inputs": [
        {
          "internalType": "address",
          "name": "swap",
          "type": "address"
        }
      ],
      "name": "totalDeposits",
      "outputs": [
        {
          "internalType": "uint256",
          "name": "totalDepositsLP",
          "type": "uint256"
        }
      ],
      "stateMutability": "view",
      "type": "function"
    },
    {
      "inputs": [
        {
          "internalType": "address",
          "name": "swap",
          "type": "address"
        }
      ],
      "name": "getTokens",
      "outputs": [
        {
          "internalType": "contract IERC20[]",
          "name": "tokens",
          "type": "address[]"
        }
      ],
      "stateMutability": "view",
      "type": "function"
    },
    {
      "inputs": [
        {
          "internalType": "uint256",
          "name": "_fee",
          "type": "uint256"
        }
      ],
      "name": "setFee",
      "outputs": [],
      "stateMutability": "nonpayable",
      "type": "function"
    },
    {
      "inputs": [],
      "name": "pause",
      "outputs": [],
      "stateMutability": "nonpayable",
      "type": "function"
    },
    {
      "inputs": [],
      "name": "unpause",
      "outputs": [],
      "stateMutability": "nonpayable",
      "type": "function"
    }
  ],
  "bytecode": "0x60a0604052306080523480156200001557600080fd5b506200002062000026565b620000e8565b600054610100900460ff1615620000935760405162461bcd60e51b815260206004820152602760248201527f496e697469616c697a61626c653a20636f6e747261637420697320696e697469604482015266616c697a696e6760c81b606482015260840160405180910390fd5b60005460ff9081161015620000e6576000805460ff191660ff9081179091556040519081527f7f26b83ff96e1f2b6a682f133852f6798a09c465da95921460cefb38474024989060200160405180910390a15b565b6080516147f162000120600039600081816104a5015281816104ee01528181610c7301528181610cb30152610e3d01526147f16000f3fe60806040526004361061014f5760003560e01c80636c0a8e67116100b6578063bf2033931161006f578063bf203393146103d5578063d9e3f92014610403578063ddca3f4314610424578063e50e63711461043a578063e94032561461045a578063fdcb60681461047a57600080fd5b80636c0a8e67146102f35780636d25e175146103205780636fe46039146103585780638456cb5914610378578063ad5c46481461038d578063bc570c48146103b557600080fd5b806351bdca3e1161010857806351bdca3e1461023a57806352d1902d146102685780635ad2cf8e1461027d5780635c975abb1461029057806369fe0e2d146102b35780636af5ccbd146102d357600080fd5b80633659cfe61461017c5780633f4ba83a1461019c578063450efe21146101b157806346dafa2f146101e7578063485cc955146102075780634f1ef2861461022757600080fd5b36610177573332141561017557604051635a5e184160e11b815260040160405180910390fd5b005b600080fd5b34801561018857600080fd5b50610175610197366004613ab9565b61049a565b3480156101a857600080fd5b50610175610583565b3480156101bd57600080fd5b506101d16101cc366004613ab9565b61063b565b6040516101de9190613ad6565b60405180910390f35b3480156101f357600080fd5b50610175610202366004613b23565b61083b565b34801561021357600080fd5b50610175610222366004613b65565b610a78565b610175610235366004613c7b565b610c68565b34801561024657600080fd5b5061025a610255366004613b65565b610d39565b6040519081526020016101de565b34801561027457600080fd5b5061025a610e30565b61025a61028b366004613ced565b610ee3565b34801561029c57600080fd5b5060335460ff1660405190151581526020016101de565b3480156102bf57600080fd5b506101756102ce366004613db0565b6112b3565b3480156102df57600080fd5b5061025a6102ee366004613ced565b6113c4565b3480156102ff57600080fd5b5061031361030e366004613e14565b611660565b6040516101de9190613ec2565b34801561032c57600080fd5b5060c954610340906001600160a01b031681565b6040516001600160a01b0390911681526020016101de565b34801561036457600080fd5b50610313610373366004613e14565b611806565b34801561038457600080fd5b50610175611b49565b34801561039957600080fd5b5061034073c9bdeed33cd01541e1eed10f90519d2c06fe3feb81565b3480156103c157600080fd5b5061025a6103d0366004613ed5565b611c01565b3480156103e157600080fd5b506103f56103f0366004613e14565b611e33565b6040516101de929190613f94565b610416610411366004613fb9565b612123565b6040516101de92919061401e565b34801561043057600080fd5b5061025a60cc5481565b34801561044657600080fd5b50610175610455366004613b23565b61245c565b34801561046657600080fd5b5061025a610475366004613ab9565b612599565b34801561048657600080fd5b5060ca54610340906001600160a01b031681565b306001600160a01b037f00000000000000000000000000000000000000000000000000000000000000001614156104ec5760405162461bcd60e51b81526004016104e390614040565b60405180910390fd5b7f00000000000000000000000000000000000000000000000000000000000000006001600160a01b0316610535600080516020614755833981519152546001600160a01b031690565b6001600160a01b03161461055b5760405162461bcd60e51b81526004016104e39061408c565b61056481612687565b604080516000808252602082019092526105809183919061271a565b50565b60ca54604051632474521560e21b81527f65d7a28e3265b37a6474929f336521b332c1681b933f6cb9f3376673440d862a60048201819052336024830152916001600160a01b0316906391d1485490604401602060405180830381865afa1580156105f2573d6000803e3d6000fd5b505050506040513d601f19601f8201168201806040525081019061061691906140d8565b610633576040516365bc1f8360e11b815260040160405180910390fd5b610580612885565b6040805160ff8082526120008201909252606091600091829160208201611fe08036833701905050905060005b60ff818116101561075d5760405162415c3360e91b815260ff821660048201526001600160a01b038616906382b8660090602401602060405180830381865afa9250505080156106d5575060408051601f3d908101601f191682019092526106d2918101906140fa565b60015b61070f573d808015610703576040519150601f19603f3d011682016040523d82523d6000602084013e610708565b606091505b505061075d565b80838360ff168151811061072557610725614117565b6001600160a01b03909216602092830291909101909101528361074781614143565b945050508061075581614143565b915050610668565b5060ff821661077f5760405163f529a35360e01b815260040160405180910390fd5b8160ff166001600160401b0381111561079a5761079a613b9e565b6040519080825280602002602001820160405280156107c3578160200160208202803683370190505b50925060005b8260ff168160ff16101561083357818160ff16815181106107ec576107ec614117565b6020026020010151848260ff168151811061080957610809614117565b6001600160a01b03909216602092830291909101909101528061082b81614143565b9150506107c9565b505050919050565b6108436128d7565b816108615760405163d7eb47e360e01b815260040160405180910390fd5b60c95460405163f9d9331d60e01b81526001600160a01b038581166004830152600092169063f9d9331d90602401602060405180830381865afa1580156108ac573d6000803e3d6000fd5b505050506040513d601f19601f820116820180604052508101906108d091906140fa565b90506001600160a01b0381166109525760c954604051621849e360e61b81526001600160a01b0386811660048301529091169063061278c0906024016020604051808303816000875af115801561092b573d6000803e3d6000fd5b505050506040513d601f19601f8201168201806040525081019061094f91906140fa565b90505b6109cb338285846001600160a01b0316633737bcb46040518163ffffffff1660e01b8152600401602060405180830381865afa158015610996573d6000803e3d6000fd5b505050506040513d601f19601f820116820180604052508101906109ba91906140fa565b6001600160a01b031692919061291f565b604051636e553f6560e01b8152600481018490526001600160a01b038381166024830152821690636e553f6590604401600060405180830381600087803b158015610a1557600080fd5b505af1158015610a29573d6000803e3d6000fd5b50505050816001600160a01b0316336001600160a01b0316856001600160a01b031660008051602061477583398151915286604051610a6a91815260200190565b60405180910390a450505050565b600054610100900460ff1615808015610a985750600054600160ff909116105b80610ab25750303b158015610ab2575060005460ff166001145b610b155760405162461bcd60e51b815260206004820152602e60248201527f496e697469616c697a61626c653a20636f6e747261637420697320616c72656160448201526d191e481a5b9a5d1a585b1a5e995960921b60648201526084016104e3565b6000805460ff191660011790558015610b38576000805461ff0019166101001790555b6001600160a01b038316610b5f5760405163731df12960e11b815260040160405180910390fd5b6001600160a01b038216610b855760405162c8b7fd60e21b815260040160405180910390fd5b610b8d612990565b60ca80546001600160a01b038086166001600160a01b0319928316811790935560c980549186169190921617905560408051631d6c8e3f60e21b815290516375b238fc916004808201926020929091908290030181865afa158015610bf6573d6000803e3d6000fd5b505050506040513d601f19601f82011682018060405250810190610c1a9190614163565b60cb558015610c63576000805461ff0019169055604051600181527f7f26b83ff96e1f2b6a682f133852f6798a09c465da95921460cefb38474024989060200160405180910390a15b505050565b306001600160a01b037f0000000000000000000000000000000000000000000000000000000000000000161415610cb15760405162461bcd60e51b81526004016104e390614040565b7f00000000000000000000000000000000000000000000000000000000000000006001600160a01b0316610cfa600080516020614755833981519152546001600160a01b031690565b6001600160a01b031614610d205760405162461bcd60e51b81526004016104e39061408c565b610d2982612687565b610d358282600161271a565b5050565b60c95460405163f9d9331d60e01b81526001600160a01b038381166004830152600092839291169063f9d9331d90602401602060405180830381865afa158015610d87573d6000803e3d6000fd5b505050506040513d601f19601f82011682018060405250810190610dab91906140fa565b90506001600160a01b03811615610e2957604051630103c92b60e01b81526001600160a01b038581166004830152821690630103c92b90602401602060405180830381865afa158015610e02573d6000803e3d6000fd5b505050506040513d601f19601f82011682018060405250810190610e269190614163565b91505b5092915050565b6000306001600160a01b037f00000000000000000000000000000000000000000000000000000000000000001614610ed05760405162461bcd60e51b815260206004820152603860248201527f555550535570677261646561626c653a206d757374206e6f742062652063616c60448201527f6c6564207468726f7567682064656c656761746563616c6c000000000000000060648201526084016104e3565b5060008051602061475583398151915290565b6000610eed6128d7565b34610f0b576040516312463ea160e21b815260040160405180910390fd5b6000610f168661063b565b90508051855114610f3f578051604051635afa4ebd60e11b81526004016104e391815260200190565b60c95460405163f9d9331d60e01b81526001600160a01b038881166004830152600092169063f9d9331d90602401602060405180830381865afa158015610f8a573d6000803e3d6000fd5b505050506040513d601f19601f82011682018060405250810190610fae91906140fa565b90506001600160a01b0381166110305760c954604051621849e360e61b81526001600160a01b0389811660048301529091169063061278c0906024016020604051808303816000875af1158015611009573d6000803e3d6000fd5b505050506040513d601f19601f8201168201806040525081019061102d91906140fa565b90505b600073c9bdeed33cd01541e1eed10f90519d2c06fe3feb6001600160a01b031663d0e30db0346040518263ffffffff1660e01b81526004016000604051808303818588803b15801561108157600080fd5b505af1158015611095573d6000803e3d6000fd5b505050505060005b87518110156111d1576040516327b2595f60e11b8152600481018290526000906001600160a01b03851690634f64b2be90602401602060405180830381865afa1580156110ee573d6000803e3d6000fd5b505050506040513d601f19601f8201168201806040525081019061111291906140fa565b90506001600160a01b03811673c9bdeed33cd01541e1eed10f90519d2c06fe3feb1415611162573489838151811061114c5761114c614117565b60200260200101818152505060019250506111bf565b600089838151811061117657611176614117565b602002602001015111156111bd576111bd33308b858151811061119b5761119b614117565b6020026020010151846001600160a01b031661291f909392919063ffffffff16565b505b806111c98161417c565b91505061109d565b50806111f05760405163aaf96e6160e01b815260040160405180910390fd5b6111fd88888589866129bf565b604051636e553f6560e01b8152600481018290526001600160a01b03878116602483015291955090831690636e553f6590604401600060405180830381600087803b15801561124b57600080fd5b505af115801561125f573d6000803e3d6000fd5b50505050846001600160a01b0316336001600160a01b0316896001600160a01b0316600080516020614775833981519152876040516112a091815260200190565b60405180910390a4505050949350505050565b60cb5460ca54604051632474521560e21b8152600481018390523360248201526001600160a01b03909116906391d1485490604401602060405180830381865afa158015611305573d6000803e3d6000fd5b505050506040513d601f19601f8201168201806040525081019061132991906140d8565b611346576040516365bc1f8360e11b815260040160405180910390fd5b670de0b6b3a76400008211156113795760405163704894fb60e11b8152670de0b6b3a764000060048201526024016104e3565b8160cc5414610d355760cc5460408051918252602082018490527f5fc463da23c1b063e66f9e352006a7fbe8db7223c455dc429e881a2dfe2f94f1910160405180910390a15060cc55565b60006113ce6128d7565b60006113d98661063b565b90508051855114611402578051604051635afa4ebd60e11b81526004016104e391815260200190565b60c95460405163f9d9331d60e01b81526001600160a01b038881166004830152600092169063f9d9331d90602401602060405180830381865afa15801561144d573d6000803e3d6000fd5b505050506040513d601f19601f8201168201806040525081019061147191906140fa565b90506001600160a01b0381166114f35760c954604051621849e360e61b81526001600160a01b0389811660048301529091169063061278c0906024016020604051808303816000875af11580156114cc573d6000803e3d6000fd5b505050506040513d601f19601f820116820180604052508101906114f091906140fa565b90505b60005b865181101561159d57600087828151811061151357611513614117565b6020026020010151111561158b5761158b333089848151811061153857611538614117565b6020026020010151856001600160a01b0316634f64b2be866040518263ffffffff1660e01b815260040161156e91815260200190565b602060405180830381865afa158015610996573d6000803e3d6000fd5b806115958161417c565b9150506114f6565b506115ab87878488856129bf565b604051636e553f6560e01b8152600481018290526001600160a01b03868116602483015291945090821690636e553f6590604401600060405180830381600087803b1580156115f957600080fd5b505af115801561160d573d6000803e3d6000fd5b50505050836001600160a01b0316336001600160a01b0316886001600160a01b03166000805160206147758339815191528660405161164e91815260200190565b60405180910390a45050949350505050565b60c95460405163f9d9331d60e01b81526001600160a01b03878116600483015260609260009291169063f9d9331d90602401602060405180830381865afa1580156116af573d6000803e3d6000fd5b505050506040513d601f19601f820116820180604052508101906116d391906140fa565b90506001600160a01b0381166116fc5760405163331fd83f60e11b815260040160405180910390fd5b604051632d182be560e21b8152600481018790523360248201523060448201526001600160a01b0382169063b460af9490606401600060405180830381600087803b15801561174a57600080fd5b505af115801561175e573d6000803e3d6000fd5b505050506117b587876117786117738b61063b565b612bda565b8888808060200260200160405190810160405280939291908181526020018383602002808284376000920191909152508a9250889150612c839050565b9150826001600160a01b0316336001600160a01b0316886001600160a01b0316600080516020614735833981519152896040516117f491815260200190565b60405180910390a45095945050505050565b60c95460405163f9d9331d60e01b81526001600160a01b03878116600483015260609260009291169063f9d9331d90602401602060405180830381865afa158015611855573d6000803e3d6000fd5b505050506040513d601f19601f8201168201806040525081019061187991906140fa565b90506001600160a01b0381166118a25760405163331fd83f60e11b815260040160405180910390fd5b60006118b06117738961063b565b604051632d182be560e21b8152600481018990523360248201523060448201529091506001600160a01b0383169063b460af9490606401600060405180830381600087803b15801561190157600080fd5b505af1158015611915573d6000803e3d6000fd5b5050505061195c888883898980806020026020016040519081016040528093929190818152602001838360200280828437600092019190915250309250899150612c839050565b925060005b8151811015611af85773c9bdeed33cd01541e1eed10f90519d2c06fe3feb6001600160a01b031682828151811061199a5761199a614117565b60200260200101516001600160a01b031614611a0557611a00858583815181106119c6576119c6614117565b60200260200101518484815181106119e0576119e0614117565b60200260200101516001600160a01b0316612e569092919063ffffffff16565b611ae6565b73c9bdeed33cd01541e1eed10f90519d2c06fe3feb6001600160a01b0316632e1a7d4d858381518110611a3a57611a3a614117565b60200260200101516040518263ffffffff1660e01b8152600401611a6091815260200190565b600060405180830381600087803b158015611a7a57600080fd5b505af1158015611a8e573d6000803e3d6000fd5b50505050846001600160a01b03166108fc858381518110611ab157611ab1614117565b60200260200101519081150290604051600060405180830381858888f19350505050158015611ae4573d6000803e3d6000fd5b505b80611af08161417c565b915050611961565b50836001600160a01b0316336001600160a01b0316896001600160a01b03166000805160206147358339815191528a604051611b3691815260200190565b60405180910390a4505095945050505050565b60ca54604051632474521560e21b81527f65d7a28e3265b37a6474929f336521b332c1681b933f6cb9f3376673440d862a60048201819052336024830152916001600160a01b0316906391d1485490604401602060405180830381865afa158015611bb8573d6000803e3d6000fd5b505050506040513d601f19601f82011682018060405250810190611bdc91906140d8565b611bf9576040516365bc1f8360e11b815260040160405180910390fd5b610580612e86565b6000611c0b6128d7565b60ca54604051632474521560e21b81527ffbd454f36a7e1a388bd6fc3ab10d434aa4578f811acbbcf33afb1c697486313c60048201819052336024830152916001600160a01b0316906391d1485490604401602060405180830381865afa158015611c7a573d6000803e3d6000fd5b505050506040513d601f19601f82011682018060405250810190611c9e91906140d8565b611cbb576040516365bc1f8360e11b815260040160405180910390fd5b60c95460405163f9d9331d60e01b81526001600160a01b038b81166004830152600092169063f9d9331d90602401602060405180830381865afa158015611d06573d6000803e3d6000fd5b505050506040513d601f19601f82011682018060405250810190611d2a91906140fa565b90506001600160a01b038116611d535760405163331fd83f60e11b815260040160405180910390fd5b6040805180820182526001600160a01b03868116825260cc5460208301529151636d94834360e11b81529183169163db29068691611d9e918d918d918d918d918d919060040161429c565b6020604051808303816000875af1158015611dbd573d6000803e3d6000fd5b505050506040513d601f19601f82011682018060405250810190611de19190614163565b9250896001600160a01b03167fc1d32ad5cca423e7dda2123dbf8c482f8e77d00b631c06e903a47f2cec1334df84604051611e1e91815260200190565b60405180910390a25050979650505050505050565b60c95460405163f9d9331d60e01b81526001600160a01b03878116600483015260609283926000929091169063f9d9331d90602401602060405180830381865afa158015611e85573d6000803e3d6000fd5b505050506040513d601f19601f82011682018060405250810190611ea991906140fa565b90506001600160a01b038116611ed25760405163331fd83f60e11b815260040160405180910390fd5b6000611ee06117738a61063b565b80519091508614611f0957805160405163d21b428b60e01b81526004016104e391815260200190565b80516001600160401b03811115611f2257611f22613b9e565b604051908082528060200260200182016040528015611f4b578160200160208202803683370190505b50925080516001600160401b03811115611f6757611f67613b9e565b604051908082528060200260200182016040528015611f90578160200160208202803683370190505b50604051632d182be560e21b8152600481018a90523360248201523060448201529094506001600160a01b0383169063b460af9490606401600060405180830381600087803b158015611fe257600080fd5b505af1158015611ff6573d6000803e3d6000fd5b50505050612008898983873087612c83565b935060005b81518110156120d15760008061207a8a8a8581811061202e5761202e614117565b905060200281019061204091906143bc565b86868151811061205257612052614117565b60200260200101518a878151811061206c5761206c614117565b60200260200101518c612ec3565b915091508187848151811061209157612091614117565b602002602001018181525050808684815181106120b0576120b0614117565b602002602001018181525050505080806120c99061417c565b91505061200d565b50846001600160a01b0316336001600160a01b03168a6001600160a01b03166000805160206147358339815191528b60405161210f91815260200190565b60405180910390a450509550959350505050565b6060600061212f6128d7565b600061213a8861063b565b8051909150861461216357805160405163d21b428b60e01b81526004016104e391815260200190565b60c95460405163f9d9331d60e01b81526001600160a01b038a81166004830152600092169063f9d9331d90602401602060405180830381865afa1580156121ae573d6000803e3d6000fd5b505050506040513d601f19601f820116820180604052508101906121d291906140fa565b90506001600160a01b0381166122545760c954604051621849e360e61b81526001600160a01b038b811660048301529091169063061278c0906024016020604051808303816000875af115801561222d573d6000803e3d6000fd5b505050506040513d601f19601f8201168201806040525081019061225191906140fa565b90505b61225e888861315b565b81516001600160401b0381111561227757612277613b9e565b6040519080825280602002602001820160405280156122a0578160200160208202803683370190505b509350600082516001600160401b038111156122be576122be613b9e565b6040519080825280602002602001820160405280156122e7578160200160208202803683370190505b50905060005b83518110156123965760008061233f8c8c8581811061230e5761230e614117565b905060200281019061232091906143bc565b88868151811061233257612332614117565b602002602001015161322d565b915091508184848151811061235657612356614117565b6020026020010181815250508088848151811061237557612375614117565b6020026020010181815250505050808061238e9061417c565b9150506122ed565b506123a48a82858a866129bf565b604051636e553f6560e01b8152600481018290526001600160a01b03888116602483015291955090831690636e553f6590604401600060405180830381600087803b1580156123f257600080fd5b505af1158015612406573d6000803e3d6000fd5b50505050856001600160a01b0316336001600160a01b03168b6001600160a01b03166000805160206147758339815191528760405161244791815260200190565b60405180910390a45050509550959350505050565b60c95460405163f9d9331d60e01b81526001600160a01b038581166004830152600092169063f9d9331d90602401602060405180830381865afa1580156124a7573d6000803e3d6000fd5b505050506040513d601f19601f820116820180604052508101906124cb91906140fa565b90506001600160a01b0381166124f45760405163331fd83f60e11b815260040160405180910390fd5b604051632d182be560e21b8152600481018490523360248201526001600160a01b03838116604483015282169063b460af9490606401600060405180830381600087803b15801561254457600080fd5b505af1158015612558573d6000803e3d6000fd5b50505050816001600160a01b0316336001600160a01b0316856001600160a01b031660008051602061473583398151915286604051610a6a91815260200190565b60c95460405163f9d9331d60e01b81526001600160a01b038381166004830152600092839291169063f9d9331d90602401602060405180830381865afa1580156125e7573d6000803e3d6000fd5b505050506040513d601f19601f8201168201806040525081019061260b91906140fa565b90506001600160a01b0381161561268157806001600160a01b031663168a48226040518163ffffffff1660e01b8152600401602060405180830381865afa15801561265a573d6000803e3d6000fd5b505050506040513d601f19601f8201168201806040525081019061267e9190614163565b91505b50919050565b60cb5460ca54604051632474521560e21b8152600481018390523360248201526001600160a01b03909116906391d1485490604401602060405180830381865afa1580156126d9573d6000803e3d6000fd5b505050506040513d601f19601f820116820180604052508101906126fd91906140d8565b610d35576040516365bc1f8360e11b815260040160405180910390fd5b7f4910fdfa16fed3260ed0e7147f7cc6da11a60208b5b9406d12a635614ffd91435460ff161561274d57610c63836135ce565b826001600160a01b03166352d1902d6040518163ffffffff1660e01b8152600401602060405180830381865afa9250505080156127a7575060408051601f3d908101601f191682019092526127a491810190614163565b60015b61280a5760405162461bcd60e51b815260206004820152602e60248201527f45524331393637557067726164653a206e657720696d706c656d656e7461746960448201526d6f6e206973206e6f74205555505360901b60648201526084016104e3565b60008051602061475583398151915281146128795760405162461bcd60e51b815260206004820152602960248201527f45524331393637557067726164653a20756e737570706f727465642070726f786044820152681a58589b195555525160ba1b60648201526084016104e3565b50610c6383838361366a565b61288d61368f565b6033805460ff191690557f5db9ee0a495bf2e6ff9c91a7834c1ba4fdd244a5e8aa4e537bd38aeae4b073aa335b6040516001600160a01b03909116815260200160405180910390a1565b60335460ff161561291d5760405162461bcd60e51b815260206004820152601060248201526f14185d5cd8589b194e881c185d5cd95960821b60448201526064016104e3565b565b6040516001600160a01b038085166024830152831660448201526064810182905261298a9085906323b872dd60e01b906084015b60408051601f198184030181529190526020810180516001600160e01b03166001600160e01b0319909316929092179091526136d8565b50505050565b600054610100900460ff166129b75760405162461bcd60e51b81526004016104e390614402565b61291d6137aa565b60008060005b8651811015612ac55760008782815181106129e2576129e2614117565b60200260200101511115612ab357816129fa57600191505b858181518110612a0c57612a0c614117565b60200260200101516001600160a01b031663095ea7b389898481518110612a3557612a35614117565b60200260200101516040518363ffffffff1660e01b8152600401612a6e9291906001600160a01b03929092168252602082015260400190565b6020604051808303816000875af1158015612a8d573d6000803e3d6000fd5b505050506040513d601f19601f82011682018060405250810190612ab191906140d8565b505b80612abd8161417c565b9150506129c5565b5080612ae4576040516378e321a560e01b815260040160405180910390fd5b604051634d49e87d60e01b81526001600160a01b03881690634d49e87d90612b149089908890429060040161444d565b6020604051808303816000875af1158015612b33573d6000803e3d6000fd5b505050506040513d601f19601f82011682018060405250810190612b579190614163565b9150612bd08383856001600160a01b0316633737bcb46040518163ffffffff1660e01b8152600401602060405180830381865afa158015612b9c573d6000803e3d6000fd5b505050506040513d601f19601f82011682018060405250810190612bc091906140fa565b6001600160a01b03169190612e56565b5095945050505050565b606081516001600160401b03811115612bf557612bf5613b9e565b604051908082528060200260200182016040528015612c1e578160200160208202803683370190505b50905060005b825181101561268157828181518110612c3f57612c3f614117565b6020026020010151828281518110612c5957612c59614117565b6001600160a01b039092166020928302919091019091015280612c7b8161417c565b915050612c24565b60608451845114612cac57845160405163359cbb8360e11b81526004016104e391815260200190565b816001600160a01b0316633737bcb46040518163ffffffff1660e01b8152600401602060405180830381865afa158015612cea573d6000803e3d6000fd5b505050506040513d601f19601f82011682018060405250810190612d0e91906140fa565b60405163095ea7b360e01b81526001600160a01b03898116600483015260248201899052919091169063095ea7b3906044016020604051808303816000875af1158015612d5f573d6000803e3d6000fd5b505050506040513d601f19601f82011682018060405250810190612d8391906140d8565b5060405163031cd52b60e41b81526001600160a01b038816906331cd52b090612db490899088904290600401614472565b6000604051808303816000875af1158015612dd3573d6000803e3d6000fd5b505050506040513d6000823e601f3d908101601f19168201604052612dfb919081019061449b565b905060005b8551811015612e4b57612e3984838381518110612e1f57612e1f614117565b60200260200101518884815181106119e0576119e0614117565b80612e438161417c565b915050612e00565b509695505050505050565b6040516001600160a01b038316602482015260448101829052610c6390849063a9059cbb60e01b90606401612953565b612e8e6128d7565b6033805460ff191660011790557f62e78cea01bee320cd4e420270b5ea74000d11b0c9f74754ebdbfc544b05a2586128ba3390565b60008080612ed4876004818b614520565b810190612ee1919061454a565b50915050856001600160a01b031681602001516001600160a01b03161415612f2457612f176001600160a01b0387168587612e56565b8460009250925050613151565b6312aa3caf60e01b612f3a600460008a8c614520565b612f4391614626565b6001600160e01b031916141580612f705750856001600160a01b031681600001516001600160a01b031614155b80612f7d57506080810151155b80612f9e5750836001600160a01b031681606001516001600160a01b031614155b15612fbc57604051631bb5161960e21b815260040160405180910390fd5b8051608082015160405163095ea7b360e01b8152731111111254eeb25477b68fb85ed929f73a960582600482015260248101919091526001600160a01b039091169063095ea7b3906044016020604051808303816000875af1158015613026573d6000803e3d6000fd5b505050506040513d601f19601f8201168201806040525081019061304a91906140d8565b50600080731111111254eeb25477b68fb85ed929f73a9605826001600160a01b03168a8a60405161307c929190614656565b6000604051808303816000865af19150503d80600081146130b9576040519150601f19603f3d011682016040523d82523d6000602084013e6130be565b606091505b5091509150816130e1576040516306dffaff60e51b815260040160405180910390fd5b6000818060200190518101906130f79190614666565b90965090508088111561312c5761310e818961468a565b8451909550613127906001600160a01b03168887612e56565b61314c565b80881461314c57604051632cd294cf60e01b815260040160405180910390fd5b505050505b9550959350505050565b6000805b8281101561320c57600084848381811061317b5761317b614117565b905060200281019061318d91906143bc565b61319b916004908290614520565b8101906131a8919061454a565b5080519092506001600160a01b0316159050806131e2575080516001600160a01b031673eeeeeeeeeeeeeeeeeeeeeeeeeeeeeeeeeeeeeeee145b156131f95760808101516131f690846146a1565b92505b50806132048161417c565b91505061315f565b50803414610c63576040516312463ea160e21b815260040160405180910390fd5b6000808061323e8560048189614520565b81019061324b919061454a565b50915050836001600160a01b031681600001516001600160a01b031614156132bd57608081015161328f57604051631bb5161960e21b815260040160405180910390fd5b608081015181516132af916001600160a01b03909116903390309061291f565b6080015191508190506135c6565b6312aa3caf60e01b6132d360046000888a614520565b6132dc91614626565b6001600160e01b0319161415806133095750836001600160a01b031681602001516001600160a01b031614155b8061331657506080810151155b8061332e575060608101516001600160a01b03163014155b1561334c57604051631bb5161960e21b815260040160405180910390fd5b80516000906001600160a01b03161580613383575081516001600160a01b031673eeeeeeeeeeeeeeeeeeeeeeeeeeeeeeeeeeeeeeee145b90508061343a57608082015182516133aa916001600160a01b03909116903390309061291f565b8151608083015160405163095ea7b360e01b8152731111111254eeb25477b68fb85ed929f73a960582600482015260248101919091526001600160a01b039091169063095ea7b3906044016020604051808303816000875af1158015613414573d6000803e3d6000fd5b505050506040513d601f19601f8201168201806040525081019061343891906140d8565b505b60008161344857600061344e565b82608001515b9050600080731111111254eeb25477b68fb85ed929f73a9605826001600160a01b0316838b8b604051613482929190614656565b60006040518083038185875af1925050503d80600081146134bf576040519150601f19603f3d011682016040523d82523d6000602084013e6134c4565b606091505b5091509150816134e7576040516306dffaff60e51b815260040160405180910390fd5b808060200190518101906134fb9190614666565b809750819850505050505082826080015111156135c357801561359d576000336001600160a01b0316848460800151613534919061468a565b604051600081818185875af1925050503d8060008114613570576040519150601f19603f3d011682016040523d82523d6000602084013e613575565b606091505b50509050806135975760405163125bf52760e01b815260040160405180910390fd5b506135c3565b6135c3338484608001516135b1919061468a565b84516001600160a01b03169190612e56565b50505b935093915050565b6001600160a01b0381163b61363b5760405162461bcd60e51b815260206004820152602d60248201527f455243313936373a206e657720696d706c656d656e746174696f6e206973206e60448201526c1bdd08184818dbdb9d1c9858dd609a1b60648201526084016104e3565b60008051602061475583398151915280546001600160a01b0319166001600160a01b0392909216919091179055565b613673836137dd565b6000825111806136805750805b15610c635761298a838361381d565b60335460ff1661291d5760405162461bcd60e51b815260206004820152601460248201527314185d5cd8589b194e881b9bdd081c185d5cd95960621b60448201526064016104e3565b600061372d826040518060400160405280602081526020017f5361666545524332303a206c6f772d6c6576656c2063616c6c206661696c6564815250856001600160a01b03166139119092919063ffffffff16565b805190915015610c63578080602001905181019061374b91906140d8565b610c635760405162461bcd60e51b815260206004820152602a60248201527f5361666545524332303a204552433230206f7065726174696f6e20646964206e6044820152691bdd081cdd58d8d9595960b21b60648201526084016104e3565b600054610100900460ff166137d15760405162461bcd60e51b81526004016104e390614402565b6033805460ff19169055565b6137e6816135ce565b6040516001600160a01b038216907fbc7cd75a20ee27fd9adebab32041f755214dbc6bffa90cc0225b39da2e5c2d3b90600090a250565b60606001600160a01b0383163b6138855760405162461bcd60e51b815260206004820152602660248201527f416464726573733a2064656c65676174652063616c6c20746f206e6f6e2d636f6044820152651b9d1c9858dd60d21b60648201526084016104e3565b600080846001600160a01b0316846040516138a091906146e5565b600060405180830381855af49150503d80600081146138db576040519150601f19603f3d011682016040523d82523d6000602084013e6138e0565b606091505b509150915061390882826040518060600160405280602781526020016147956027913961392a565b95945050505050565b60606139208484600085613963565b90505b9392505050565b60608315613939575081613923565b8251156139495782518084602001fd5b8160405162461bcd60e51b81526004016104e39190614701565b6060824710156139c45760405162461bcd60e51b815260206004820152602660248201527f416464726573733a20696e73756666696369656e742062616c616e636520666f6044820152651c8818d85b1b60d21b60648201526084016104e3565b6001600160a01b0385163b613a1b5760405162461bcd60e51b815260206004820152601d60248201527f416464726573733a2063616c6c20746f206e6f6e2d636f6e747261637400000060448201526064016104e3565b600080866001600160a01b03168587604051613a3791906146e5565b60006040518083038185875af1925050503d8060008114613a74576040519150601f19603f3d011682016040523d82523d6000602084013e613a79565b606091505b5091509150613a8982828661392a565b979650505050505050565b6001600160a01b038116811461058057600080fd5b8035613ab481613a94565b919050565b600060208284031215613acb57600080fd5b813561392381613a94565b6020808252825182820181905260009190848201906040850190845b81811015613b175783516001600160a01b031683529284019291840191600101613af2565b50909695505050505050565b600080600060608486031215613b3857600080fd5b8335613b4381613a94565b9250602084013591506040840135613b5a81613a94565b809150509250925092565b60008060408385031215613b7857600080fd5b8235613b8381613a94565b91506020830135613b9381613a94565b809150509250929050565b634e487b7160e01b600052604160045260246000fd5b60405160e081016001600160401b0381118282101715613bd657613bd6613b9e565b60405290565b604051601f8201601f191681016001600160401b0381118282101715613c0457613c04613b9e565b604052919050565b600082601f830112613c1d57600080fd5b81356001600160401b03811115613c3657613c36613b9e565b613c49601f8201601f1916602001613bdc565b818152846020838601011115613c5e57600080fd5b816020850160208301376000918101602001919091529392505050565b60008060408385031215613c8e57600080fd5b8235613c9981613a94565b915060208301356001600160401b03811115613cb457600080fd5b613cc085828601613c0c565b9150509250929050565b60006001600160401b03821115613ce357613ce3613b9e565b5060051b60200190565b60008060008060808587031215613d0357600080fd5b8435613d0e81613a94565b93506020858101356001600160401b03811115613d2a57600080fd5b8601601f81018813613d3b57600080fd5b8035613d4e613d4982613cca565b613bdc565b81815260059190911b8201830190838101908a831115613d6d57600080fd5b928401925b82841015613d8b57833582529284019290840190613d72565b965050505060408601359250613da5905060608601613aa9565b905092959194509250565b600060208284031215613dc257600080fd5b5035919050565b60008083601f840112613ddb57600080fd5b5081356001600160401b03811115613df257600080fd5b6020830191508360208260051b8501011115613e0d57600080fd5b9250929050565b600080600080600060808688031215613e2c57600080fd5b8535613e3781613a94565b94506020860135935060408601356001600160401b03811115613e5957600080fd5b613e6588828901613dc9565b9094509250506060860135613e7981613a94565b809150509295509295909350565b600081518084526020808501945080840160005b83811015613eb757815187529582019590820190600101613e9b565b509495945050505050565b6020815260006139236020830184613e87565b600080600080600080600060a0888a031215613ef057600080fd5b8735613efb81613a94565b965060208801356001600160401b0380821115613f1757600080fd5b613f238b838c01613dc9565b909850965060408a0135915080821115613f3c57600080fd5b613f488b838c01613dc9565b909650945060608a0135915080821115613f6157600080fd5b508801604081018a1015613f7457600080fd5b91506080880135613f8481613a94565b8091505092959891949750929550565b604081526000613fa76040830185613e87565b82810360208401526139088185613e87565b600080600080600060808688031215613fd157600080fd5b8535613fdc81613a94565b945060208601356001600160401b03811115613ff757600080fd5b61400388828901613dc9565b909550935050604086013591506060860135613e7981613a94565b6040815260006140316040830185613e87565b90508260208301529392505050565b6020808252602c908201527f46756e6374696f6e206d7573742062652063616c6c6564207468726f7567682060408201526b19195b1959d85d1958d85b1b60a21b606082015260800190565b6020808252602c908201527f46756e6374696f6e206d7573742062652063616c6c6564207468726f7567682060408201526b6163746976652070726f787960a01b606082015260800190565b6000602082840312156140ea57600080fd5b8151801515811461392357600080fd5b60006020828403121561410c57600080fd5b815161392381613a94565b634e487b7160e01b600052603260045260246000fd5b634e487b7160e01b600052601160045260246000fd5b600060ff821660ff81141561415a5761415a61412d565b60010192915050565b60006020828403121561417557600080fd5b5051919050565b60006000198214156141905761419061412d565b5060010190565b60008235603e198336030181126141ad57600080fd5b90910192915050565b81835260006020808501808196506005915085821b81018560005b8881101561428e578383038a526141e88289614197565b60408085018235601e1984360301811261420157600080fd5b830180356001600160401b0381111561421957600080fd5b808a1b360385131561422a57600080fd5b928752908290526060860191908901906000905b8082101561427057823561425181613a94565b6001600160a01b03168452928a0192918a01916001919091019061423e565b505050908701359387019390935298850198908501906001016141d1565b509098975050505050505050565b60a0815260006142b060a08301888a6141b6565b6020838203818501526142c482888a6141b6565b9150604084830381860152828390508184018860005b60028110156143945786830384526142f2828c614197565b8584018135601e1983360301811261430957600080fd5b820180356001600160401b0381111561432157600080fd5b8060051b360384131561433357600080fd5b88875291829052880190600090606087015b8183101561437557833561435881613a94565b6001600160a01b03168152928a0192600192909201918a01614345565b938a0135968a01969096525050938601939250908501906001016142da565b505087516001600160a01b03166060880152602088015160808801529450613a899350505050565b6000808335601e198436030181126143d357600080fd5b8301803591506001600160401b038211156143ed57600080fd5b602001915036819003821315613e0d57600080fd5b6020808252602b908201527f496e697469616c697a61626c653a20636f6e7472616374206973206e6f74206960408201526a6e697469616c697a696e6760a81b606082015260800190565b6060815260006144606060830186613e87565b60208301949094525060400152919050565b83815260606020820152600061448b6060830185613e87565b9050826040830152949350505050565b600060208083850312156144ae57600080fd5b82516001600160401b038111156144c457600080fd5b8301601f810185136144d557600080fd5b80516144e3613d4982613cca565b81815260059190911b8201830190838101908783111561450257600080fd5b928401925b82841015613a8957835182529284019290840190614507565b6000808585111561453057600080fd5b8386111561453d57600080fd5b5050820193919092039150565b600080600083850361012081121561456157600080fd5b843561456c81613a94565b935060e0601f198201121561458057600080fd5b50614589613bb4565b602085013561459781613a94565b815260408501356145a781613a94565b602082015260608501356145ba81613a94565b604082015260808501356145cd81613a94565b8060608301525060a0850135608082015260c085013560a082015260e085013560c0820152809250506101008401356001600160401b0381111561461057600080fd5b61461c86828701613c0c565b9150509250925092565b6001600160e01b0319813581811691600485101561464e5780818660040360031b1b83161692505b505092915050565b8183823760009101908152919050565b6000806040838503121561467957600080fd5b505080516020909101519092909150565b60008282101561469c5761469c61412d565b500390565b600082198211156146b4576146b461412d565b500190565b60005b838110156146d45781810151838201526020016146bc565b8381111561298a5750506000910152565b600082516146f78184602087016146b9565b9190910192915050565b60208152600082518060208401526147208160408501602087016146b9565b601f01601f1916919091016040019291505056fe3115d1449a7b732c986cba18244e897a450f61e1bb8d589cd2e69e6c8924f9f7360894a13ba1a3210667c828492db98dca3e2076cc3735a920a3ca505d382bbc7cfff908a4b583f36430b25d75964c458d8ede8a99bd61be750e97ee1b2f3a96416464726573733a206c6f772d6c6576656c2064656c65676174652063616c6c206661696c6564a26469706673582212204f287d5d40d6bd2b74a350a020742acb7b070a6dd28d288e26fe95c4908b378664736f6c634300080a0033",
  "immutableReferences": {
    "570": [
      {
        "length": 32,
        "start": 1189
      },
      {
        "length": 32,
        "start": 1262
      },
      {
        "length": 32,
        "start": 3187
      },
      {
        "length": 32,
        "start": 3251
      },
      {
        "length": 32,
        "start": 3645
      }
    ]
  },
  "source": "// SPDX-License-Identifier: MIT\r\npragma solidity 0.8.10;\r\n\r\nimport '../../interfaces/IUnoFarm.sol';\r\nimport \"../../interfaces/IAggregationRouterV5.sol\";\r\nimport './interfaces/IUnoAssetRouterTrisolarisStable.sol'; \r\nimport \"../../interfaces/IUnoFarmFactory.sol\";\r\nimport \"../../interfaces/IUnoAccessManager.sol\";\r\nimport \"../../interfaces/ISwap.sol\";\r\nimport '../../interfaces/IWETH.sol';\r\nimport \"@openzeppelin/contracts/token/ERC20/utils/SafeERC20.sol\";\r\nimport \"@openzeppelin/contracts-upgradeable/proxy/utils/Initializable.sol\";\r\nimport \"@openzeppelin/contracts-upgradeable/security/PausableUpgradeable.sol\";\r\nimport \"@openzeppelin/contracts-upgradeable/proxy/utils/UUPSUpgradeable.sol\";\r\n\r\ncontract UnoAssetRouterTrisolarisStable is Initializable, PausableUpgradeable, UUPSUpgradeable, IUnoAssetRouterTrisolarisStable {\r\n    using SafeERC20 for IERC20;\r\n\r\n    /**\r\n     * @dev Contract Variables:\r\n     * farmFactory - The contract that deploys new Farms and links them to {swap}s.\r\n     * accessManager - Role manager contract.\r\n     */\r\n    IUnoFarmFactory public farmFactory;\r\n    IUnoAccessManager public accessManager;\r\n\r\n    bytes32 private ADMIN_ROLE;\r\n    bytes32 private constant DISTRIBUTOR_ROLE = keccak256(\"DISTRIBUTOR_ROLE\");\r\n    bytes32 private constant PAUSER_ROLE = keccak256(\"PAUSER_ROLE\");\r\n\r\n    uint256 public fee;\r\n\r\n    address public constant WETH = 0xC9BdeEd33CD01541e1eeD10f90519d2C06Fe3feB;\r\n    address private constant OneInchRouter = 0x1111111254EEB25477B68fb85Ed929f73A960582;\r\n\r\n    modifier onlyRole(bytes32 role){\r\n        if(!accessManager.hasRole(role, msg.sender)) revert CALLER_NOT_AUTHORIZED();\r\n        _;\r\n    }\r\n\r\n    // ============ Methods ============\r\n\r\n    /// @custom:oz-upgrades-unsafe-allow constructor\r\n    constructor() {\r\n        _disableInitializers();\r\n    }\r\n\r\n    function initialize(address _accessManager, address _farmFactory) external initializer {\r\n        if(_accessManager == address(0)) revert INVALID_ACCESS_MANAGER();\r\n        if(_farmFactory == address(0)) revert INVALID_FARM_FACTORY();\r\n\r\n        __Pausable_init();\r\n        accessManager = IUnoAccessManager(_accessManager);\r\n        farmFactory = IUnoFarmFactory(_farmFactory);\r\n\r\n        ADMIN_ROLE = accessManager.ADMIN_ROLE();\r\n    }\r\n\r\n    receive() external payable {\r\n        if (msg.sender == tx.origin) revert ETH_DEPOSIT_REJECTED();\r\n    }\r\n\r\n    /**\r\n     * @dev Deposits tokens in the given pool. Creates new Farm contract if there isn't one deployed for the {swap} and deposits tokens in it. Emits a {Deposit} event.\r\n     * @param swap - Address of the Swap contract.\r\n     * @param amounts - Amounts of tokens to deposit.\r\n     * @param minAmountLP - Minimum LP the user will receive from {amounts} deposit.\r\n     * @param recipient - Address which will receive the deposit.\r\n\r\n     * @return liquidity - Total liquidity sent to the farm (in lpTokens).\r\n     */\r\n    function deposit(address swap, uint256[] memory amounts, uint256 minAmountLP, address recipient) external whenNotPaused returns (uint256 liquidity) {\r\n        IERC20[] memory tokens = getTokens(swap);\r\n        if (amounts.length != tokens.length) revert INVALID_AMOUNT_LENGTH(tokens.length);\r\n        Farm farm = Farm(farmFactory.Farms(swap));\r\n        if (farm == Farm(address(0))) {\r\n            farm = Farm(farmFactory.createFarm(swap));\r\n        }\r\n\r\n        for (uint256 i = 0; i < amounts.length; i++) { \r\n            if (amounts[i] > 0) {\r\n                IERC20(farm.tokens(i)).safeTransferFrom(msg.sender, address(this), amounts[i]); \r\n            }\r\n        }\r\n \r\n        liquidity = _addLiquidity(swap, amounts, tokens, minAmountLP, farm);\r\n        farm.deposit(liquidity, recipient);\r\n\r\n        emit Deposit(swap, msg.sender, recipient, liquidity);\r\n    }\r\n\r\n    /**\r\n     * @dev Autoconverts ETH into WETH and deposits tokens in the given pool. Creates new Farm contract if there isn't one deployed for the {swap} and deposits tokens in it.\r\n     * @param swap - Address of the Swap contract.\r\n     * @param amounts - Amounts of tokens to deposit.\r\n     * @param minAmountLP - Minimum LP the user will receive from {amounts} deposit.\r\n     * @param recipient - Address which will receive the deposit.\r\n\r\n     * @return liquidity - Total liquidity sent to the farm (in lpTokens).\r\n     */\r\n    function depositETH(address swap, uint256[] memory amounts, uint256 minAmountLP, address recipient) external payable whenNotPaused returns(uint256 liquidity){\r\n        if(msg.value == 0) revert INVALID_MSG_VALUE();\r\n        IERC20[] memory tokens = getTokens(swap);\r\n        if (amounts.length != tokens.length) revert INVALID_AMOUNT_LENGTH(tokens.length);\r\n\r\n        Farm farm = Farm(farmFactory.Farms(swap));\r\n        if (farm == Farm(address(0))) {\r\n            farm = Farm(farmFactory.createFarm(swap));\r\n        }\r\n\r\n        bool WETHInTokens;\r\n        IWETH(WETH).deposit{value: msg.value}();\r\n        for (uint256 i = 0; i < amounts.length; i++) {\r\n            address token = farm.tokens(i);\r\n            if(token == WETH){\r\n                amounts[i] = msg.value;\r\n                WETHInTokens = true;\r\n                continue;\r\n            }\r\n            if(amounts[i] > 0){\r\n                IERC20(token).safeTransferFrom(msg.sender, address(this), amounts[i]);\r\n            }\r\n        }\r\n        if(!WETHInTokens) revert NOT_ETH_FARM();\r\n        \r\n        liquidity = _addLiquidity(swap, amounts, tokens, minAmountLP, farm);\r\n        farm.deposit(liquidity, recipient);\r\n\r\n        emit Deposit(swap, msg.sender, recipient, liquidity); \r\n    }\r\n\r\n    /**\r\n     * @dev Deposits tokens in the given pool with swap. Creates new Farm contract if there isn't one deployed for the {swap}, swaps {token} for pool tokens and deposits them. Emits a {Deposit} event.\r\n     * @param swap - Address of the pool to deposit tokens in.\r\n     * @param swapData - Parameter with which 1inch router is being called with.\r\n     * @param minAmountLP - Minimum LP the user will receive from {tokens} deposit.\r\n     * @param recipient - Address which will receive the deposit.\r\n     \r\n     * @return sent - Total amount amount sent to the farm. \r\n     * @return liquidity - Total liquidity sent to the farm (in lpTokens).\r\n     */\r\n    function depositWithSwap(address swap, bytes[] calldata swapData, uint256 minAmountLP, address recipient) external payable whenNotPaused returns(uint256[] memory sent, uint256 liquidity){\r\n        IERC20[] memory tokens = getTokens(swap);\r\n        if (swapData.length != tokens.length) revert INVALID_SWAP_DATA_LENGTH(tokens.length);\r\n        \r\n        Farm farm = Farm(farmFactory.Farms(swap));\r\n        if(farm == Farm(address(0))){\r\n            farm = Farm(farmFactory.createFarm(swap));\r\n        }\r\n\r\n        _checkMsgValue(swapData);\r\n\r\n        sent = new uint256[](tokens.length);\r\n        uint256[] memory amounts = new uint256[](tokens.length);\r\n        for (uint256 i; i < tokens.length; i++) {\r\n            (uint256 _amount, uint256 _sent) = _swapDeposit(swapData[i], IERC20(tokens[i]));\r\n            amounts[i] = _amount;\r\n            sent[i] = _sent;\r\n        }\r\n\r\n        liquidity = _addLiquidity(swap, amounts, tokens, minAmountLP, farm);\r\n        farm.deposit(liquidity, recipient);\r\n\r\n        emit Deposit(swap, msg.sender, recipient, liquidity);\r\n    }\r\n\r\n    /**\r\n     * @dev Deposits tokens in the given pool. Creates new Farm contract if there isn't one deployed for the {lpPool} and deposits tokens in it. Emits a {Deposit} event.\r\n     * @param swap - Address of the pool to deposit tokens in.\r\n     * @param amount - LP Token amount to deposit.\r\n     * @param recipient - Address which will receive the deposit.\r\n     */\r\n    function depositLP(address swap, uint256 amount, address recipient) external whenNotPaused{\r\n        if(amount == 0) revert NO_TOKENS_SENT();\r\n        Farm farm = Farm(farmFactory.Farms(swap));\r\n        if(farm == Farm(address(0))){\r\n            farm = Farm(farmFactory.createFarm(swap));\r\n        }\r\n\r\n        IERC20(farm.lpPool()).safeTransferFrom(msg.sender, address(farm), amount);\r\n        farm.deposit(amount, recipient);\r\n\r\n        emit Deposit(swap, msg.sender, recipient, amount); \r\n    }\r\n\r\n    /** \r\n     * @dev Withdraws tokens from the given pool. Emits a {Withdraw} event.\r\n     * @param swap - Address of the Swap contract.\r\n     * @param amount - Amounts of LP tokens to withdraw.\r\n     * @param minAmounts - Minimum amounts of tokens sent to {recipient}.\r\n     * @param recipient - The address which will receive tokens.\r\n\r\n     * @return amounts - Token amounts sent to {recipient}, an array of zeros if withdrawLP == false.\r\n     */\r\n    function withdraw(\r\n        address swap,\r\n        uint256 amount,\r\n        uint256[] calldata minAmounts,\r\n        address recipient\r\n    ) external returns (uint256[] memory amounts) {\r\n        Farm farm = Farm(farmFactory.Farms(swap));\r\n        if(farm == Farm(address(0))) revert FARM_NOT_EXISTS();\r\n\r\n        farm.withdraw(amount, msg.sender, address(this));\r\n        amounts = _removeLiquidity(swap, amount, _convertToAddressArray(getTokens(swap)), minAmounts, recipient, farm);\r\n\r\n        emit Withdraw(swap, msg.sender, recipient, amount);\r\n    }\r\n\r\n        /** \r\n     * @dev Autoconverts WETH into ETH and withdraws tokens from the given pool. \r\n     * @param swap - LP pool to withdraw from.\r\n     * @param amount - LP amount to withdraw. \r\n     * @param minAmounts - Minimum token amounts the user will receive.\r\n     * @param recipient - The address which will receive tokens.\r\n\r\n     * @return amounts - Token amounts sent to the {recipient}\r\n     */ \r\n    function withdrawETH(address swap, uint256 amount, uint256[] calldata minAmounts, address recipient) external returns(uint256[] memory amounts){ \r\n        Farm farm = Farm(farmFactory.Farms(swap));\r\n        if(farm == Farm(address(0))) revert FARM_NOT_EXISTS();\r\n\r\n        address[] memory tokens = _convertToAddressArray(getTokens(swap));\r\n        farm.withdraw(amount, msg.sender, address(this));\r\n        amounts = _removeLiquidity(swap, amount, tokens, minAmounts, address(this), farm);\r\n\r\n        for (uint256 i = 0; i < tokens.length; i++) {\r\n            if (tokens[i] != WETH) {\r\n                IERC20(tokens[i]).safeTransfer(recipient, amounts[i]);\r\n                continue;\r\n            }\r\n            IWETH(WETH).withdraw(amounts[i]);\r\n            payable(recipient).transfer(amounts[i]);\r\n        } \r\n        emit Withdraw(swap, msg.sender, recipient, amount);  \r\n    }\r\n\r\n    /**\r\n     * @dev Withdraws single token from the given pool. Emits a {Withdraw} event. Note: If there are any tokens left to be withdrawn after swaps they will be sent to the {{recipient}} in a respective token (not in {token}).\r\n     * @param swap - LP pool to withdraw from.\r\n     * @param amount - LP amount to withdraw. \r\n     * @param swapData - Parameters with which 1inch router is being called with.\r\n     * @param recipient - Address which will receive the deposit.\r\n     \r\n     * @return amounts - Amounts sent to the {recipient} from swapData.\r\n     * @return dust - Dust amounts sent to the {recipient} left from swaps.\r\n     */\r\n    function withdrawWithSwap(address swap, uint256 amount, bytes[] calldata swapData, address recipient) external returns(uint256[] memory amounts, uint256[] memory dust){\r\n        Farm farm = Farm(farmFactory.Farms(swap));\r\n        if(farm == Farm(address(0))) revert FARM_NOT_EXISTS();\r\n\r\n        address[] memory tokens = _convertToAddressArray(getTokens(swap));\r\n        if (swapData.length != tokens.length) revert INVALID_SWAP_DATA_LENGTH(tokens.length);\r\n\r\n        dust = new uint256[](tokens.length);\r\n        amounts = new uint256[](tokens.length);\r\n\r\n        farm.withdraw(amount, msg.sender, address(this));\r\n        amounts = _removeLiquidity(swap, amount, tokens, amounts, address(this), farm);\r\n        for (uint256 i = 0; i < tokens.length; i++) {\r\n            (uint256 _amount, uint256 _dust) = _swapWithdraw(swapData[i], IERC20(tokens[i]), amounts[i], recipient);\r\n            amounts[i] = _amount;\r\n            dust[i] = _dust;\r\n        }\r\n\r\n        emit Withdraw(swap, msg.sender, recipient, amount);\r\n    }\r\n\r\n    /** \r\n     * @dev Withdraws LP tokens from the given pool. Emits a {Withdraw} event.\r\n     * @param swap - LP pool to withdraw from.\r\n     * @param amount - LP amount to withdraw. \r\n     * @param recipient - The address which will receive tokens.\r\n     */ \r\n    function withdrawLP(address swap, uint256 amount, address recipient) external {\r\n        Farm farm = Farm(farmFactory.Farms(swap));\r\n        if(farm == Farm(address(0))) revert FARM_NOT_EXISTS();\r\n        \r\n        farm.withdraw(amount, msg.sender, recipient);\r\n        emit Withdraw(swap, msg.sender, recipient, amount);  \r\n    }\r\n\r\n    /**\r\n     * @dev Distributes tokens between users.\r\n     * @param swap - Address of the Swap contract.\r\n\r\n     * @param rewardSwapInfos - Arrays of structs with token arrays describing swap routes from reward to tokens in {swap} and minimum amounts of output tokens that must be received for the transaction not to revert.\r\n     * @param rewarderSwapInfos - Arrays of structs with token arrays describing swap routes from rewarder to tokens in {swap} and minimum amounts of output tokens that must be received for the transaction not to revert.\r\n     * @param feeSwapInfos - Arrays of structs with token arrays describing swap routes (rewardTokenToFeeToken, rewarderTokenToFeeToken) and minimum amounts of output tokens that must be received for the transaction not to revert.\r\n     * @param feeTo - Address to collect fees to.\r\n     *\r\n     * Note: This function can only be called by the distributor.\r\n     */\r\n    function distribute(\r\n        address swap,\r\n        Farm.SwapInfo[] calldata rewardSwapInfos,\r\n        Farm.SwapInfo[] calldata rewarderSwapInfos,\r\n        Farm.SwapInfo[2] calldata feeSwapInfos,\r\n        address feeTo\r\n    ) external whenNotPaused onlyRole(DISTRIBUTOR_ROLE) returns(uint256 reward){\r\n        Farm farm = Farm(farmFactory.Farms(swap));\r\n        if(farm == Farm(address(0))) revert FARM_NOT_EXISTS();\r\n\r\n        //I don't understand why the definition for FeeInfo can not be imported from Farm\r\n        reward = farm.distribute(\r\n            rewardSwapInfos,\r\n            rewarderSwapInfos,\r\n            feeSwapInfos,\r\n            IUnoFarm.FeeInfo(feeTo, fee)\r\n        );\r\n        emit Distribute(swap, reward);\r\n    }\r\n\r\n    /**\r\n     * @dev Returns tokens staked by the {_address} for the given {swap}.\r\n     * @param _address - The address to check stakes for.\r\n     * @param swap - Address of the Swap contract.\r\n\r\n     * @return stakeLP - Total user stake(in LP tokens).\r\n     */\r\n    function userStake(address _address, address swap) external view returns (uint256 stakeLP) {\r\n        Farm farm = Farm(farmFactory.Farms(swap));\r\n        if (farm != Farm(address(0))) {\r\n            stakeLP = farm.userBalance(_address);\r\n        }\r\n    }\r\n\r\n    /**\r\n     * @dev Returns total amount locked in the pool. Doesn't take pending rewards into account.\r\n     * @param swap - Address of the Swap contract.\r\n\r\n     * @return totalDepositsLP - Total deposits (in LP tokens).\r\n     */\r\n    function totalDeposits(address swap) external view returns (uint256 totalDepositsLP) {\r\n        Farm farm = Farm(farmFactory.Farms(swap));\r\n        if (farm != Farm(address(0))) {\r\n            totalDepositsLP = farm.getTotalDeposits();\r\n        }\r\n    }\r\n\r\n    /**\r\n     * @dev Deposits assets to router\r\n     */ \r\n    function _addLiquidity(\r\n        address swap,\r\n        uint256[] memory amounts, \r\n        IERC20[] memory tokens,\r\n        uint256 minAmountLP,\r\n        Farm farm\r\n    ) internal returns(uint256 liquidity){\r\n        bool joinPool;\r\n        for (uint256 i = 0; i < amounts.length; i++) {\r\n            if(amounts[i] > 0){\r\n                if(!joinPool){\r\n                    joinPool = true;\r\n                }\r\n                tokens[i].approve(swap, amounts[i]);\r\n            }\r\n        }\r\n        if(!joinPool) revert NO_LIQUIDITY_PROVIDED();\r\n        liquidity = ISwap(swap).addLiquidity(amounts, minAmountLP, block.timestamp);\r\n        IERC20(farm.lpPool()).safeTransfer(address(farm), liquidity);\r\n    }\r\n\r\n    /**\r\n     * @dev Withdraws assets from router.\r\n     */ \r\n    function _removeLiquidity(\r\n        address swap,\r\n        uint256 amount, \r\n        address[] memory tokens,\r\n        uint256[] memory minAmounts,\r\n        address recipient,\r\n        Farm farm\r\n    ) internal returns(uint256[] memory amounts){\r\n        if(minAmounts.length != tokens.length) revert INVALID_MIN_AMOUNTS_LENGTH(tokens.length);\r\n\r\n        IERC20(farm.lpPool()).approve(swap, amount);\r\n        amounts = ISwap(swap).removeLiquidity(amount, minAmounts, block.timestamp);\r\n        for (uint256 i = 0; i < tokens.length; i++) {\r\n            IERC20(tokens[i]).safeTransfer(recipient, amounts[i]);\r\n        }\r\n    }\r\n\r\n    function _swapDeposit(bytes calldata swapData, IERC20 toToken) internal returns(uint256 returnAmount, uint256 spentAmount){\r\n        (,IAggregationRouterV5.SwapDescription memory desc,) = abi.decode(swapData[4:], (address, IAggregationRouterV5.SwapDescription, bytes));\r\n        \r\n        if(desc.srcToken == toToken){\r\n            if(desc.amount == 0) revert INVALID_SWAP_DESCRIPTION();\r\n            desc.srcToken.safeTransferFrom(msg.sender, address(this), desc.amount);\r\n            return (desc.amount, desc.amount);\r\n        }\r\n        \r\n        if(\r\n            bytes4(swapData[:4]) != IAggregationRouterV5.swap.selector || \r\n            desc.dstToken != toToken || \r\n            desc.amount == 0 ||\r\n            desc.dstReceiver != address(this)\r\n        ) revert INVALID_SWAP_DESCRIPTION();\r\n\r\n        bool isETH = (address(desc.srcToken) == address(0) || address(desc.srcToken) == address(0xEeeeeEeeeEeEeeEeEeEeeEEEeeeeEeeeeeeeEEeE));\r\n        if(!isETH){\r\n            desc.srcToken.safeTransferFrom(msg.sender, address(this), desc.amount);\r\n            desc.srcToken.approve(OneInchRouter, desc.amount);\r\n        }\r\n\r\n        {\r\n        uint256 value = isETH ? desc.amount : 0;\r\n        (bool success, bytes memory data) = OneInchRouter.call{value: value}(swapData);\r\n        if(!success) revert SWAP_NOT_SUCCESSFUL();\r\n        (returnAmount, spentAmount) = abi.decode(data, (uint256, uint256));\r\n        }\r\n\r\n        if(desc.amount > spentAmount){\r\n            if(isETH){\r\n                (bool success, ) = msg.sender.call{value: desc.amount - spentAmount}(\"\");\r\n                if(!success) revert TRANSFER_NOT_SUCCESSFUL();\r\n            }else{\r\n                desc.srcToken.safeTransfer(address(msg.sender), desc.amount - spentAmount);\r\n            }\r\n        }\r\n    }\r\n\r\n    function _swapWithdraw(bytes calldata swapData, IERC20 fromToken, uint256 maxAmount, address recipient) internal returns(uint256 returnAmount, uint256 dust){\r\n        (,IAggregationRouterV5.SwapDescription memory desc,) = abi.decode(swapData[4:], (address, IAggregationRouterV5.SwapDescription, bytes));\r\n        \r\n        if(desc.dstToken == fromToken){\r\n            fromToken.safeTransfer(recipient, maxAmount);\r\n            return (maxAmount, 0);\r\n        }\r\n        \r\n        if(\r\n            bytes4(swapData[:4]) != IAggregationRouterV5.swap.selector || \r\n            desc.srcToken != fromToken ||\r\n            desc.amount == 0 ||\r\n            desc.dstReceiver != recipient\r\n        ) revert INVALID_SWAP_DESCRIPTION();\r\n\r\n        desc.srcToken.approve(OneInchRouter, desc.amount);\r\n        (bool success, bytes memory data) = OneInchRouter.call(swapData);\r\n        if(!success) revert SWAP_NOT_SUCCESSFUL();\r\n        uint256 spentAmount;\r\n        (returnAmount, spentAmount) = abi.decode(data, (uint256, uint256));\r\n\r\n        if(maxAmount > spentAmount){\r\n            dust = maxAmount - spentAmount;\r\n            desc.srcToken.safeTransfer(recipient, dust);\r\n        } else if(maxAmount != spentAmount) revert INSUFFICIENT_AMOUNT();\r\n    }\r\n\r\n    function _checkMsgValue(bytes[] calldata swapData) internal view {\r\n        uint256 value;\r\n        for(uint256 i; i < swapData.length; i++){\r\n            (,IAggregationRouterV5.SwapDescription memory desc,) = abi.decode(swapData[i][4:], (address, IAggregationRouterV5.SwapDescription, bytes));\r\n            if(address(desc.srcToken) == address(0) || address(desc.srcToken) == address(0xEeeeeEeeeEeEeeEeEeEeeEEEeeeeEeeeeeeeEEeE)){\r\n                value += desc.amount;\r\n            }\r\n        }\r\n\r\n        if(msg.value != value) revert INVALID_MSG_VALUE();\r\n    }\r\n\r\n    function _convertToAddressArray(IERC20[] memory tokenArray) internal pure returns (address[] memory addresses) {\r\n        addresses = new address[](tokenArray.length);\r\n        for (uint256 i = 0; i < tokenArray.length; i++) {\r\n            addresses[i] = address(tokenArray[i]);\r\n        }\r\n    }\r\n\r\n    /**\r\n     * @dev Returns addresses of tokens in {swap}.\r\n     * @param swap - Swap to check tokens in.\r\n\r\n     * @return tokens - Array of token addresses.\r\n     */  \r\n    function getTokens(address swap) public view returns(IERC20[] memory tokens){\r\n        uint8 tokenCount;\r\n        address[] memory _tokens = new address[](type(uint8).max);\r\n        for (uint8 i = 0; i < type(uint8).max; i++) {\r\n            try ISwap(swap).getToken(i) returns (address token) {\r\n                _tokens[i] = token;\r\n                tokenCount++;\r\n            } catch (bytes memory /*lowLevelData*/) {\r\n                break;\r\n            }\r\n        }\r\n        if(tokenCount == 0) revert NO_TOKENS_IN_SWAP();\r\n\r\n        tokens = new IERC20[](tokenCount);\r\n        for (uint8 i = 0; i < tokenCount; i++) {\r\n            tokens[i] = IERC20(_tokens[i]);\r\n        }\r\n        return tokens;\r\n    }\r\n\r\n    /**\r\n     * @dev Change fee amount.\r\n     * @param _fee -New fee to collect from farms. [10^18 == 100%]\r\n     *\r\n     * Note: This function can only be called by ADMIN_ROLE.\r\n     */ \r\n    function setFee(uint256 _fee) external onlyRole(ADMIN_ROLE){\r\n        if(_fee > 1 ether) revert MAX_FEE_EXCEEDED(1 ether);\r\n        if(fee != _fee){\r\n            emit FeeChanged(fee, _fee); \r\n            fee = _fee;\r\n        }\r\n    }\r\n\r\n    function pause() external onlyRole(PAUSER_ROLE) {\r\n        _pause();\r\n    }\r\n\r\n    function unpause() external onlyRole(PAUSER_ROLE) {\r\n        _unpause();\r\n    }\r\n\r\n    function _authorizeUpgrade(address) internal override onlyRole(ADMIN_ROLE) {}\r\n}\r\n",
  "sourcePath": "C:\\Users\\jugli\\Desktop\\uno\\uno-contracts-aurora\\contracts\\apps\\trisolarisStable\\UnoAssetRouterTrisolarisStable.sol",
  "compiler": {
    "name": "solc",
    "version": "0.8.10+commit.fc410830.Emscripten.clang"
  },
  "schemaVersion": "3.4.10",
  "updatedAt": "2023-06-11T16:44:24.291Z",
  "devdoc": {
    "kind": "dev",
    "methods": {
      "constructor": {
        "custom:oz-upgrades-unsafe-allow": "constructor"
      },
      "deposit(address,uint256[],uint256,address)": {
        "details": "Deposits tokens in the given pool. Creates new Farm contract if there isn't one deployed for the {swap} and deposits tokens in it. Emits a {Deposit} event.",
        "params": {
          "amounts": "- Amounts of tokens to deposit.",
          "minAmountLP": "- Minimum LP the user will receive from {amounts} deposit.",
          "recipient": "- Address which will receive the deposit.",
          "swap": "- Address of the Swap contract."
        },
        "returns": {
          "liquidity": "- Total liquidity sent to the farm (in lpTokens)."
        }
      },
      "depositETH(address,uint256[],uint256,address)": {
        "details": "Autoconverts ETH into WETH and deposits tokens in the given pool. Creates new Farm contract if there isn't one deployed for the {swap} and deposits tokens in it.",
        "params": {
          "amounts": "- Amounts of tokens to deposit.",
          "minAmountLP": "- Minimum LP the user will receive from {amounts} deposit.",
          "recipient": "- Address which will receive the deposit.",
          "swap": "- Address of the Swap contract."
        },
        "returns": {
          "liquidity": "- Total liquidity sent to the farm (in lpTokens)."
        }
      },
      "depositLP(address,uint256,address)": {
        "details": "Deposits tokens in the given pool. Creates new Farm contract if there isn't one deployed for the {lpPool} and deposits tokens in it. Emits a {Deposit} event.",
        "params": {
          "amount": "- LP Token amount to deposit.",
          "recipient": "- Address which will receive the deposit.",
          "swap": "- Address of the pool to deposit tokens in."
        }
      },
      "depositWithSwap(address,bytes[],uint256,address)": {
        "details": "Deposits tokens in the given pool with swap. Creates new Farm contract if there isn't one deployed for the {swap}, swaps {token} for pool tokens and deposits them. Emits a {Deposit} event.",
        "params": {
          "minAmountLP": "- Minimum LP the user will receive from {tokens} deposit.",
          "recipient": "- Address which will receive the deposit.",
          "swap": "- Address of the pool to deposit tokens in.",
          "swapData": "- Parameter with which 1inch router is being called with."
        },
        "returns": {
          "liquidity": "- Total liquidity sent to the farm (in lpTokens).",
          "sent": "- Total amount amount sent to the farm. "
        }
      },
      "distribute(address,(address[],uint256)[],(address[],uint256)[],(address[],uint256)[2],address)": {
        "details": "Distributes tokens between users.",
        "params": {
          "feeSwapInfos": "- Arrays of structs with token arrays describing swap routes (rewardTokenToFeeToken, rewarderTokenToFeeToken) and minimum amounts of output tokens that must be received for the transaction not to revert.",
          "feeTo": "- Address to collect fees to. Note: This function can only be called by the distributor.",
          "rewardSwapInfos": "- Arrays of structs with token arrays describing swap routes from reward to tokens in {swap} and minimum amounts of output tokens that must be received for the transaction not to revert.",
          "rewarderSwapInfos": "- Arrays of structs with token arrays describing swap routes from rewarder to tokens in {swap} and minimum amounts of output tokens that must be received for the transaction not to revert.",
          "swap": "- Address of the Swap contract."
        }
      },
      "getTokens(address)": {
        "details": "Returns addresses of tokens in {swap}.",
        "params": {
          "swap": "- Swap to check tokens in."
        },
        "returns": {
          "tokens": "- Array of token addresses."
        }
      },
      "paused()": {
        "details": "Returns true if the contract is paused, and false otherwise."
      },
      "proxiableUUID()": {
        "details": "Implementation of the ERC1822 {proxiableUUID} function. This returns the storage slot used by the implementation. It is used to validate that the this implementation remains valid after an upgrade. IMPORTANT: A proxy pointing at a proxiable contract should not be considered proxiable itself, because this risks bricking a proxy that upgrades to it, by delegating to itself until out of gas. Thus it is critical that this function revert if invoked through a proxy. This is guaranteed by the `notDelegated` modifier."
      },
      "setFee(uint256)": {
        "details": "Change fee amount.",
        "params": {
          "_fee": "-New fee to collect from farms. [10^18 == 100%] Note: This function can only be called by ADMIN_ROLE."
        }
      },
      "totalDeposits(address)": {
        "details": "Returns total amount locked in the pool. Doesn't take pending rewards into account.",
        "params": {
          "swap": "- Address of the Swap contract."
        },
        "returns": {
          "totalDepositsLP": "- Total deposits (in LP tokens)."
        }
      },
      "upgradeTo(address)": {
        "details": "Upgrade the implementation of the proxy to `newImplementation`. Calls {_authorizeUpgrade}. Emits an {Upgraded} event."
      },
      "upgradeToAndCall(address,bytes)": {
        "details": "Upgrade the implementation of the proxy to `newImplementation`, and subsequently execute the function call encoded in `data`. Calls {_authorizeUpgrade}. Emits an {Upgraded} event."
      },
      "userStake(address,address)": {
        "details": "Returns tokens staked by the {_address} for the given {swap}.",
        "params": {
          "_address": "- The address to check stakes for.",
          "swap": "- Address of the Swap contract."
        },
        "returns": {
          "stakeLP": "- Total user stake(in LP tokens)."
        }
      },
      "withdraw(address,uint256,uint256[],address)": {
        "details": "Withdraws tokens from the given pool. Emits a {Withdraw} event.",
        "params": {
          "amount": "- Amounts of LP tokens to withdraw.",
          "minAmounts": "- Minimum amounts of tokens sent to {recipient}.",
          "recipient": "- The address which will receive tokens.",
          "swap": "- Address of the Swap contract."
        },
        "returns": {
          "amounts": "- Token amounts sent to {recipient}, an array of zeros if withdrawLP == false."
        }
      },
      "withdrawETH(address,uint256,uint256[],address)": {
        "details": "Autoconverts WETH into ETH and withdraws tokens from the given pool. ",
        "params": {
          "amount": "- LP amount to withdraw. ",
          "minAmounts": "- Minimum token amounts the user will receive.",
          "recipient": "- The address which will receive tokens.",
          "swap": "- LP pool to withdraw from."
        },
        "returns": {
          "amounts": "- Token amounts sent to the {recipient}"
        }
      },
      "withdrawLP(address,uint256,address)": {
        "details": "Withdraws LP tokens from the given pool. Emits a {Withdraw} event.",
        "params": {
          "amount": "- LP amount to withdraw. ",
          "recipient": "- The address which will receive tokens.",
          "swap": "- LP pool to withdraw from."
        }
      },
      "withdrawWithSwap(address,uint256,bytes[],address)": {
        "details": "Withdraws single token from the given pool. Emits a {Withdraw} event. Note: If there are any tokens left to be withdrawn after swaps they will be sent to the {{recipient}} in a respective token (not in {token}).",
        "params": {
          "amount": "- LP amount to withdraw. ",
          "recipient": "- Address which will receive the deposit.",
          "swap": "- LP pool to withdraw from.",
          "swapData": "- Parameters with which 1inch router is being called with."
        },
        "returns": {
          "amounts": "- Amounts sent to the {recipient} from swapData.",
          "dust": "- Dust amounts sent to the {recipient} left from swaps."
        }
      }
    },
    "stateVariables": {
      "farmFactory": {
        "details": "Contract Variables: farmFactory - The contract that deploys new Farms and links them to {swap}s. accessManager - Role manager contract."
      }
    },
    "version": 1
  },
  "userdoc": {
    "kind": "user",
    "methods": {},
    "version": 1
  }
}