{
  "contractName": "UnoAutoStrategyV0",
  "abi": [
    {
      "anonymous": false,
      "inputs": [
        {
          "indexed": true,
          "internalType": "address",
          "name": "owner",
          "type": "address"
        },
        {
          "indexed": true,
          "internalType": "address",
          "name": "spender",
          "type": "address"
        },
        {
          "indexed": false,
          "internalType": "uint256",
          "name": "value",
          "type": "uint256"
        }
      ],
      "name": "Approval",
      "type": "event"
    },
    {
      "anonymous": false,
      "inputs": [
        {
          "indexed": true,
          "internalType": "uint256",
          "name": "poolID",
          "type": "uint256"
        },
        {
          "indexed": true,
          "internalType": "address",
          "name": "from",
          "type": "address"
        },
        {
          "indexed": true,
          "internalType": "address",
          "name": "recipient",
          "type": "address"
        },
        {
          "indexed": false,
          "internalType": "uint256",
          "name": "amountLP",
          "type": "uint256"
        }
      ],
      "name": "Deposit",
      "type": "event"
    },
    {
      "anonymous": false,
      "inputs": [
        {
          "indexed": true,
          "internalType": "uint256",
          "name": "poolID",
          "type": "uint256"
        },
        {
          "indexed": false,
          "internalType": "uint256",
          "name": "amountA",
          "type": "uint256"
        },
        {
          "indexed": false,
          "internalType": "uint256",
          "name": "amountB",
          "type": "uint256"
        }
      ],
      "name": "DepositPairTokens",
      "type": "event"
    },
    {
      "anonymous": false,
      "inputs": [
        {
          "indexed": true,
          "internalType": "uint256",
          "name": "poolID",
          "type": "uint256"
        },
        {
          "indexed": false,
          "internalType": "uint256",
          "name": "amountToken",
          "type": "uint256"
        },
        {
          "indexed": false,
          "internalType": "uint256",
          "name": "amountETH",
          "type": "uint256"
        }
      ],
      "name": "DepositPairTokensETH",
      "type": "event"
    },
    {
      "anonymous": false,
      "inputs": [
        {
          "indexed": true,
          "internalType": "uint256",
          "name": "poolID",
          "type": "uint256"
        },
        {
          "indexed": false,
          "internalType": "uint256",
          "name": "amountETH",
          "type": "uint256"
        }
      ],
      "name": "DepositSingleETH",
      "type": "event"
    },
    {
      "anonymous": false,
      "inputs": [
        {
          "indexed": true,
          "internalType": "uint256",
          "name": "poolID",
          "type": "uint256"
        },
        {
          "indexed": true,
          "internalType": "address",
          "name": "token",
          "type": "address"
        },
        {
          "indexed": false,
          "internalType": "uint256",
          "name": "amount",
          "type": "uint256"
        }
      ],
      "name": "DepositSingleToken",
      "type": "event"
    },
    {
      "anonymous": false,
      "inputs": [
        {
          "indexed": false,
          "internalType": "uint8",
          "name": "version",
          "type": "uint8"
        }
      ],
      "name": "Initialized",
      "type": "event"
    },
    {
      "anonymous": false,
      "inputs": [
        {
          "indexed": true,
          "internalType": "uint256",
          "name": "previousPoolID",
          "type": "uint256"
        },
        {
          "indexed": true,
          "internalType": "uint256",
          "name": "nextPoolID",
          "type": "uint256"
        }
      ],
      "name": "MoveLiquidity",
      "type": "event"
    },
    {
      "anonymous": false,
      "inputs": [
        {
          "indexed": true,
          "internalType": "address",
          "name": "from",
          "type": "address"
        },
        {
          "indexed": true,
          "internalType": "address",
          "name": "to",
          "type": "address"
        },
        {
          "indexed": false,
          "internalType": "uint256",
          "name": "value",
          "type": "uint256"
        }
      ],
      "name": "Transfer",
      "type": "event"
    },
    {
      "anonymous": false,
      "inputs": [
        {
          "indexed": true,
          "internalType": "uint256",
          "name": "poolID",
          "type": "uint256"
        },
        {
          "indexed": true,
          "internalType": "address",
          "name": "from",
          "type": "address"
        },
        {
          "indexed": true,
          "internalType": "address",
          "name": "recipient",
          "type": "address"
        },
        {
          "indexed": false,
          "internalType": "uint256",
          "name": "amountLP",
          "type": "uint256"
        }
      ],
      "name": "Withdraw",
      "type": "event"
    },
    {
      "anonymous": false,
      "inputs": [
        {
          "indexed": true,
          "internalType": "uint256",
          "name": "poolID",
          "type": "uint256"
        },
        {
          "indexed": false,
          "internalType": "uint256",
          "name": "amountA",
          "type": "uint256"
        },
        {
          "indexed": false,
          "internalType": "uint256",
          "name": "amountB",
          "type": "uint256"
        }
      ],
      "name": "WithdrawPairTokens",
      "type": "event"
    },
    {
      "anonymous": false,
      "inputs": [
        {
          "indexed": true,
          "internalType": "uint256",
          "name": "poolID",
          "type": "uint256"
        },
        {
          "indexed": false,
          "internalType": "uint256",
          "name": "amountToken",
          "type": "uint256"
        },
        {
          "indexed": false,
          "internalType": "uint256",
          "name": "amountETH",
          "type": "uint256"
        }
      ],
      "name": "WithdrawPairTokensETH",
      "type": "event"
    },
    {
      "anonymous": false,
      "inputs": [
        {
          "indexed": true,
          "internalType": "uint256",
          "name": "poolID",
          "type": "uint256"
        },
        {
          "indexed": false,
          "internalType": "uint256",
          "name": "amountETH",
          "type": "uint256"
        },
        {
          "indexed": false,
          "internalType": "uint256",
          "name": "amountA",
          "type": "uint256"
        },
        {
          "indexed": false,
          "internalType": "uint256",
          "name": "amountB",
          "type": "uint256"
        }
      ],
      "name": "WithdrawSingleETH",
      "type": "event"
    },
    {
      "anonymous": false,
      "inputs": [
        {
          "indexed": true,
          "internalType": "uint256",
          "name": "poolID",
          "type": "uint256"
        },
        {
          "indexed": true,
          "internalType": "address",
          "name": "token",
          "type": "address"
        },
        {
          "indexed": false,
          "internalType": "uint256",
          "name": "amount",
          "type": "uint256"
        },
        {
          "indexed": false,
          "internalType": "uint256",
          "name": "amountA",
          "type": "uint256"
        },
        {
          "indexed": false,
          "internalType": "uint256",
          "name": "amountB",
          "type": "uint256"
        }
      ],
      "name": "WithdrawSingleToken",
      "type": "event"
    },
    {
      "inputs": [],
      "name": "WMATIC",
      "outputs": [
        {
          "internalType": "address",
          "name": "",
          "type": "address"
        }
      ],
      "stateMutability": "view",
      "type": "function"
    },
    {
      "inputs": [],
      "name": "accessManager",
      "outputs": [
        {
          "internalType": "contract IUnoAccessManager",
          "name": "",
          "type": "address"
        }
      ],
      "stateMutability": "view",
      "type": "function"
    },
    {
      "inputs": [
        {
          "internalType": "address",
          "name": "owner",
          "type": "address"
        },
        {
          "internalType": "address",
          "name": "spender",
          "type": "address"
        }
      ],
      "name": "allowance",
      "outputs": [
        {
          "internalType": "uint256",
          "name": "",
          "type": "uint256"
        }
      ],
      "stateMutability": "view",
      "type": "function"
    },
    {
      "inputs": [
        {
          "internalType": "address",
          "name": "spender",
          "type": "address"
        },
        {
          "internalType": "uint256",
          "name": "amount",
          "type": "uint256"
        }
      ],
      "name": "approve",
      "outputs": [
        {
          "internalType": "bool",
          "name": "",
          "type": "bool"
        }
      ],
      "stateMutability": "nonpayable",
      "type": "function"
    },
    {
      "inputs": [
        {
          "internalType": "address",
          "name": "account",
          "type": "address"
        }
      ],
      "name": "balanceOf",
      "outputs": [
        {
          "internalType": "uint256",
          "name": "",
          "type": "uint256"
        }
      ],
      "stateMutability": "view",
      "type": "function"
    },
    {
      "inputs": [],
      "name": "decimals",
      "outputs": [
        {
          "internalType": "uint8",
          "name": "",
          "type": "uint8"
        }
      ],
      "stateMutability": "view",
      "type": "function"
    },
    {
      "inputs": [
        {
          "internalType": "address",
          "name": "spender",
          "type": "address"
        },
        {
          "internalType": "uint256",
          "name": "subtractedValue",
          "type": "uint256"
        }
      ],
      "name": "decreaseAllowance",
      "outputs": [
        {
          "internalType": "bool",
          "name": "",
          "type": "bool"
        }
      ],
      "stateMutability": "nonpayable",
      "type": "function"
    },
    {
      "inputs": [],
      "name": "factory",
      "outputs": [
        {
          "internalType": "contract IUnoAutoStrategyFactory",
          "name": "",
          "type": "address"
        }
      ],
      "stateMutability": "view",
      "type": "function"
    },
    {
      "inputs": [
        {
          "internalType": "address",
          "name": "spender",
          "type": "address"
        },
        {
          "internalType": "uint256",
          "name": "addedValue",
          "type": "uint256"
        }
      ],
      "name": "increaseAllowance",
      "outputs": [
        {
          "internalType": "bool",
          "name": "",
          "type": "bool"
        }
      ],
      "stateMutability": "nonpayable",
      "type": "function"
    },
    {
      "inputs": [],
      "name": "name",
      "outputs": [
        {
          "internalType": "string",
          "name": "",
          "type": "string"
        }
      ],
      "stateMutability": "view",
      "type": "function"
    },
    {
      "inputs": [],
      "name": "poolID",
      "outputs": [
        {
          "internalType": "uint256",
          "name": "",
          "type": "uint256"
        }
      ],
      "stateMutability": "view",
      "type": "function"
    },
    {
      "inputs": [
        {
          "internalType": "uint256",
          "name": "",
          "type": "uint256"
        }
      ],
      "name": "pools",
      "outputs": [
        {
          "internalType": "address",
          "name": "pool",
          "type": "address"
        },
        {
          "internalType": "contract IUnoAssetRouter",
          "name": "assetRouter",
          "type": "address"
        },
        {
          "internalType": "contract IERC20Upgradeable",
          "name": "tokenA",
          "type": "address"
        },
        {
          "internalType": "contract IERC20Upgradeable",
          "name": "tokenB",
          "type": "address"
        }
      ],
      "stateMutability": "view",
      "type": "function"
    },
    {
      "inputs": [],
      "name": "symbol",
      "outputs": [
        {
          "internalType": "string",
          "name": "",
          "type": "string"
        }
      ],
      "stateMutability": "view",
      "type": "function"
    },
    {
      "inputs": [],
      "name": "totalSupply",
      "outputs": [
        {
          "internalType": "uint256",
          "name": "",
          "type": "uint256"
        }
      ],
      "stateMutability": "view",
      "type": "function"
    },
    {
      "inputs": [
        {
          "internalType": "address",
          "name": "to",
          "type": "address"
        },
        {
          "internalType": "uint256",
          "name": "amount",
          "type": "uint256"
        }
      ],
      "name": "transfer",
      "outputs": [
        {
          "internalType": "bool",
          "name": "",
          "type": "bool"
        }
      ],
      "stateMutability": "nonpayable",
      "type": "function"
    },
    {
      "inputs": [
        {
          "internalType": "address",
          "name": "from",
          "type": "address"
        },
        {
          "internalType": "address",
          "name": "to",
          "type": "address"
        },
        {
          "internalType": "uint256",
          "name": "amount",
          "type": "uint256"
        }
      ],
      "name": "transferFrom",
      "outputs": [
        {
          "internalType": "bool",
          "name": "",
          "type": "bool"
        }
      ],
      "stateMutability": "nonpayable",
      "type": "function"
    },
    {
      "stateMutability": "payable",
      "type": "receive"
    },
    {
      "inputs": [
        {
          "components": [
            {
              "internalType": "address",
              "name": "pool",
              "type": "address"
            },
            {
              "internalType": "contract IUnoAssetRouter",
              "name": "assetRouter",
              "type": "address"
            }
          ],
          "internalType": "struct UnoAutoStrategyV0._PoolInfo[]",
          "name": "poolInfos",
          "type": "tuple[]"
        },
        {
          "internalType": "contract IUnoAccessManager",
          "name": "_accessManager",
          "type": "address"
        }
      ],
      "name": "initialize",
      "outputs": [],
      "stateMutability": "nonpayable",
      "type": "function"
    },
    {
      "inputs": [
        {
          "internalType": "uint256",
          "name": "pid",
          "type": "uint256"
        },
        {
          "internalType": "uint256",
          "name": "amountA",
          "type": "uint256"
        },
        {
          "internalType": "uint256",
          "name": "amountB",
          "type": "uint256"
        },
        {
          "internalType": "uint256",
          "name": "amountAMin",
          "type": "uint256"
        },
        {
          "internalType": "uint256",
          "name": "amountBMin",
          "type": "uint256"
        },
        {
          "internalType": "address",
          "name": "recipient",
          "type": "address"
        }
      ],
      "name": "deposit",
      "outputs": [
        {
          "internalType": "uint256",
          "name": "sentA",
          "type": "uint256"
        },
        {
          "internalType": "uint256",
          "name": "sentB",
          "type": "uint256"
        },
        {
          "internalType": "uint256",
          "name": "liquidity",
          "type": "uint256"
        }
      ],
      "stateMutability": "nonpayable",
      "type": "function"
    },
    {
      "inputs": [
        {
          "internalType": "uint256",
          "name": "pid",
          "type": "uint256"
        },
        {
          "internalType": "uint256",
          "name": "amountToken",
          "type": "uint256"
        },
        {
          "internalType": "uint256",
          "name": "amountTokenMin",
          "type": "uint256"
        },
        {
          "internalType": "uint256",
          "name": "amountETHMin",
          "type": "uint256"
        },
        {
          "internalType": "address",
          "name": "recipient",
          "type": "address"
        }
      ],
      "name": "depositETH",
      "outputs": [
        {
          "internalType": "uint256",
          "name": "sentToken",
          "type": "uint256"
        },
        {
          "internalType": "uint256",
          "name": "sentETH",
          "type": "uint256"
        },
        {
          "internalType": "uint256",
          "name": "liquidity",
          "type": "uint256"
        }
      ],
      "stateMutability": "payable",
      "type": "function"
    },
    {
      "inputs": [
        {
          "internalType": "uint256",
          "name": "pid",
          "type": "uint256"
        },
        {
          "internalType": "uint256",
          "name": "liquidity",
          "type": "uint256"
        },
        {
          "internalType": "uint256",
          "name": "amountAMin",
          "type": "uint256"
        },
        {
          "internalType": "uint256",
          "name": "amountBMin",
          "type": "uint256"
        },
        {
          "internalType": "address",
          "name": "recipient",
          "type": "address"
        }
      ],
      "name": "withdraw",
      "outputs": [
        {
          "internalType": "uint256",
          "name": "amountA",
          "type": "uint256"
        },
        {
          "internalType": "uint256",
          "name": "amountB",
          "type": "uint256"
        }
      ],
      "stateMutability": "nonpayable",
      "type": "function"
    },
    {
      "inputs": [
        {
          "internalType": "uint256",
          "name": "pid",
          "type": "uint256"
        },
        {
          "internalType": "uint256",
          "name": "liquidity",
          "type": "uint256"
        },
        {
          "internalType": "uint256",
          "name": "amountTokenMin",
          "type": "uint256"
        },
        {
          "internalType": "uint256",
          "name": "amountETHMin",
          "type": "uint256"
        },
        {
          "internalType": "address",
          "name": "recipient",
          "type": "address"
        }
      ],
      "name": "withdrawETH",
      "outputs": [
        {
          "internalType": "uint256",
          "name": "amountToken",
          "type": "uint256"
        },
        {
          "internalType": "uint256",
          "name": "amountETH",
          "type": "uint256"
        }
      ],
      "stateMutability": "nonpayable",
      "type": "function"
    },
    {
      "inputs": [
        {
          "internalType": "address",
          "name": "_address",
          "type": "address"
        }
      ],
      "name": "userStake",
      "outputs": [
        {
          "internalType": "uint256",
          "name": "stakeA",
          "type": "uint256"
        },
        {
          "internalType": "uint256",
          "name": "stakeB",
          "type": "uint256"
        },
        {
          "internalType": "uint256",
          "name": "leftoverA",
          "type": "uint256"
        },
        {
          "internalType": "uint256",
          "name": "leftoverB",
          "type": "uint256"
        }
      ],
      "stateMutability": "view",
      "type": "function"
    },
    {
      "inputs": [],
      "name": "totalDeposits",
      "outputs": [
        {
          "internalType": "uint256",
          "name": "totalDepositsA",
          "type": "uint256"
        },
        {
          "internalType": "uint256",
          "name": "totalDepositsB",
          "type": "uint256"
        }
      ],
      "stateMutability": "view",
      "type": "function"
    },
    {
      "inputs": [],
      "name": "poolsLength",
      "outputs": [
        {
          "internalType": "uint256",
          "name": "",
          "type": "uint256"
        }
      ],
      "stateMutability": "view",
      "type": "function"
    },
    {
      "inputs": [],
      "name": "tokens",
      "outputs": [
        {
          "internalType": "address",
          "name": "",
          "type": "address"
        },
        {
          "internalType": "address",
          "name": "",
          "type": "address"
        }
      ],
      "stateMutability": "view",
      "type": "function"
    }
  ],
  "bytecode": "0x608060405234801561001057600080fd5b50613bf1806100206000396000f3fe60806040526004361061019a5760003560e01c806374552fb6116100e1578063a457c2d71161008a578063c45a015511610064578063c45a0155146104f4578063d473a65414610514578063dd62ed3e14610534578063fdcb60681461057a57600080fd5b8063a457c2d714610461578063a9059cbb14610481578063ac4afa38146104a157600080fd5b80639130700e116100bb5780639130700e146103f757806395d89b41146104175780639d63848a1461042c57600080fd5b806374552fb6146103aa5780637d882097146103cc5780638d934485146103e157600080fd5b80632716ae66116101435780634d95cad91161011d5780634d95cad9146102f457806368e5585d1461033457806370a082311461037457600080fd5b80632716ae66146102a3578063313ce567146102b857806339509351146102d457600080fd5b80631c723b82116101745780631c723b821461022057806322604f741461025557806323b872dd1461028357600080fd5b806306fdde03146101a6578063095ea7b3146101d157806318160ddd1461020157600080fd5b366101a157005b600080fd5b3480156101b257600080fd5b506101bb61059a565b6040516101c89190613567565b60405180910390f35b3480156101dd57600080fd5b506101f16101ec3660046135b2565b61062c565b60405190151581526020016101c8565b34801561020d57600080fd5b506035545b6040519081526020016101c8565b34801561022c57600080fd5b5061024061023b3660046135de565b610646565b604080519283526020830191909152016101c8565b6102686102633660046135de565b610a1c565b604080519384526020840192909252908201526060016101c8565b34801561028f57600080fd5b506101f161029e36600461362b565b610de6565b3480156102af57600080fd5b50609854610212565b3480156102c457600080fd5b50604051601281526020016101c8565b3480156102e057600080fd5b506101f16102ef3660046135b2565b610e0a565b34801561030057600080fd5b5061031c730d500b1d8e8ef31e21c99d1db9a6444d3adf127081565b6040516001600160a01b0390911681526020016101c8565b34801561034057600080fd5b5061035461034f36600461366c565b610e49565b6040805194855260208501939093529183015260608201526080016101c8565b34801561038057600080fd5b5061021261038f36600461366c565b6001600160a01b031660009081526033602052604090205490565b3480156103b657600080fd5b506103ca6103c5366004613690565b61107c565b005b3480156103d857600080fd5b506102406119a0565b3480156103ed57600080fd5b5061021260975481565b34801561040357600080fd5b50610268610412366004613716565b611bb8565b34801561042357600080fd5b506101bb611f1e565b34801561043857600080fd5b50610441611f2d565b604080516001600160a01b039384168152929091166020830152016101c8565b34801561046d57600080fd5b506101f161047c3660046135b2565b611fa7565b34801561048d57600080fd5b506101f161049c3660046135b2565b612051565b3480156104ad57600080fd5b506104c16104bc36600461376b565b61205f565b604080516001600160a01b03958616815293851660208501529184169183019190915290911660608201526080016101c8565b34801561050057600080fd5b5060a15461031c906001600160a01b031681565b34801561052057600080fd5b5061024061052f3660046135de565b6120a9565b34801561054057600080fd5b5061021261054f366004613784565b6001600160a01b03918216600090815260346020908152604080832093909416825291909152205490565b34801561058657600080fd5b5060a05461031c906001600160a01b031681565b6060603680546105a9906137bd565b80601f01602080910402602001604051908101604052809291908181526020018280546105d5906137bd565b80156106225780601f106105f757610100808354040283529160200191610622565b820191906000526020600020905b81548152906001019060200180831161060557829003601f168201915b5050505050905090565b60003361063a818585612350565b60019150505b92915050565b60008060a160009054906101000a90046001600160a01b03166001600160a01b0316635c975abb6040518163ffffffff1660e01b8152600401602060405180830381865afa15801561069c573d6000803e3d6000fd5b505050506040513d601f19601f820116820180604052508101906106c09190613810565b156107125760405162461bcd60e51b815260206004820152601060248201527f5041555341424c453a205041555345440000000000000000000000000000000060448201526064015b60405180910390fd5b61071a6124a8565b609754871461076b5760405162461bcd60e51b815260206004820152600b60248201527f4241445f504f4f4c5f49440000000000000000000000000000000000000000006044820152606401610709565b600060986097548154811061078257610782613832565b6000918252602080832060408051608081018252600490940290910180546001600160a01b03908116855260018201548116938501939093526002810154831691840191909152600301541660608201529150806107df86612501565b9150915060006107ee8a6126be565b602085015185516040517fdeb03f4d0000000000000000000000000000000000000000000000000000000081526001600160a01b03918216600482015260248101849052604481018d9052606481018c90528a82166084820152929350169063deb03f4d9060a40160408051808303816000875af1158015610874573d6000803e3d6000fd5b505050506040513d601f19601f820116820180604052508101906108989190613861565b604086015191975095506001600160a01b03167ffffffffffffffffffffffffff2aff4e271710ce1de3662e24659bbb2c520ed90016108ee576108db83866138b4565b94506108e782876138b4565b9550610984565b730d500b1d8e8ef31e21c99d1db9a6444d3adf12706001600160a01b031684606001516001600160a01b03160361093c5761092983876138b4565b955061093582866138b4565b9450610984565b60405162461bcd60e51b815260206004820152600f60248201527f4e4f545f574d415449435f504f4f4c00000000000000000000000000000000006044820152606401610709565b60975460408051888152602081018890527fec8ea790e053f644b6490a17d81267d813f466d779e36cd538c56166bfb650f991015b60405180910390a26097546040518281526001600160a01b0389169133917ffeb2000dca3e617cd6f3a8bbb63014bb54a124aac6ccbf73ee7229b4cd01f1209060200160405180910390a450505050610a126001606555565b9550959350505050565b600080600060a160009054906101000a90046001600160a01b03166001600160a01b0316635c975abb6040518163ffffffff1660e01b8152600401602060405180830381865afa158015610a74573d6000803e3d6000fd5b505050506040513d601f19601f82011682018060405250810190610a989190613810565b15610ae55760405162461bcd60e51b815260206004820152601060248201527f5041555341424c453a20504155534544000000000000000000000000000000006044820152606401610709565b610aed6124a8565b6097548814610b3e5760405162461bcd60e51b815260206004820152600b60248201527f4241445f504f4f4c5f49440000000000000000000000000000000000000000006044820152606401610709565b6000609860975481548110610b5557610b55613832565b6000918252602080832060408051608081018252600490940290910180546001600160a01b0390811685526001820154811693850193909352600281015483169184018290526003015490911660608301529092507ffffffffffffffffffffffffff2aff4e271710ce1de3662e24659bbb2c520ed9001610bdb57506060810151610c13565b730d500b1d8e8ef31e21c99d1db9a6444d3adf12706001600160a01b031682606001516001600160a01b03160361093c575060408101515b610c286001600160a01b03821633308c61283e565b602082015182516040517ffefa40940000000000000000000000000000000000000000000000000000000081526001600160a01b039182166004820152602481018c9052604481018b9052606481018a9052306084820152600092919091169063fefa409490349060a40160606040518083038185885af1158015610cb1573d6000803e3d6000fd5b50505050506040513d601f19601f82011682018060405250810190610cd691906138c7565b91975095509050610ce6876128ef565b9350858a1115610d0f57610d0f33610cfe888d6138f5565b6001600160a01b0385169190612aa0565b84341115610d4f57336108fc610d2587346138f5565b6040518115909202916000818181858888f19350505050158015610d4d573d6000803e3d6000fd5b505b60975460408051888152602081018890527f33ec26ffa0eadd23ca7311e5f8f35ce115ffaf52cfea3180a7fdc6a592b09039910160405180910390a26097546040518281526001600160a01b0389169133917f2c0f148b435140de488c1b34647f1511c646f7077e87007bacf22ef9977a16d89060200160405180910390a4505050610ddb6001606555565b955095509592505050565b600033610df4858285612aee565b610dff858585612b7a565b506001949350505050565b3360008181526034602090815260408083206001600160a01b038716845290915281205490919061063a9082908690610e449087906138b4565b612350565b6000806000806000609860975481548110610e6657610e66613832565b6000918252602080832060408051608081018252600494850290920180546001600160a01b0390811680855260018301548216958501869052600283015482168585015260039092015416606084015290517f51bdca3e00000000000000000000000000000000000000000000000000000000815230948101949094526024840152935082916351bdca3e90604401606060405180830381865afa158015610f12573d6000803e3d6000fd5b505050506040513d601f19601f82011682018060405250810190610f3691906138c7565b92509250506000610f5c896001600160a01b031660009081526033602052604090205490565b90508015611071576000610f6f60355490565b905080610f7c8584613908565b610f86919061391f565b985080610f938484613908565b610f9d919061391f565b336000908152609f60209081526040808320609d54845290915290205490985060ff16158015610fce5750609c5415155b1561106f57609c54609a546001600160a01b038c166000908152609e60209081526040808320609d54845290915290205461100990856138f5565b6110139190613908565b61101d919061391f565b609c54609b546001600160a01b038d166000908152609e60209081526040808320609d548452909152902054929950909161105890856138f5565b6110629190613908565b61106c919061391f565b95505b505b505050509193509193565b600054610100900460ff161580801561109c5750600054600160ff909116105b806110b65750303b1580156110b6575060005460ff166001145b6111285760405162461bcd60e51b815260206004820152602e60248201527f496e697469616c697a61626c653a20636f6e747261637420697320616c72656160448201527f647920696e697469616c697a65640000000000000000000000000000000000006064820152608401610709565b600080547fffffffffffffffffffffffffffffffffffffffffffffffffffffffffffffff00166001179055801561118657600080547fffffffffffffffffffffffffffffffffffffffffffffffffffffffffffff00ff166101001790555b60028310801590611198575060328311155b6111e45760405162461bcd60e51b815260206004820152600e60248201527f4241445f504f4f4c5f434f554e540000000000000000000000000000000000006044820152606401610709565b6112586040518060400160405280601081526020017f554e4f2d4175746f5374726174656779000000000000000000000000000000008152506040518060400160405280600681526020017f554e4f2d4c500000000000000000000000000000000000000000000000000000815250612d79565b611260612e04565b60005b838110156118f157600085858381811061127f5761127f613832565b9050604002016020016020810190611297919061366c565b6001600160a01b031663450efe218787858181106112b7576112b7613832565b6112cd926020604090920201908101915061366c565b6040517fffffffff0000000000000000000000000000000000000000000000000000000060e084901b1681526001600160a01b039091166004820152602401600060405180830381865afa158015611329573d6000803e3d6000fd5b505050506040513d6000823e601f3d908101601f191682016040526113519190810190613999565b90506000604051806080016040528088888681811061137257611372613832565b611388926020604090920201908101915061366c565b6001600160a01b031681526020018888868181106113a8576113a8613832565b90506040020160200160208101906113c0919061366c565b6001600160a01b03168152602001836000815181106113e1576113e1613832565b60200260200101516001600160a01b031681526020018360018151811061140a5761140a613832565b6020908102919091018101516001600160a01b0390811690925260988054600181018255600091909152835160049182027f2237a976fa961f5921fd19f2b03c925c725d77b20ce8f790c19709c03de4d814810180549286167fffffffffffffffffffffffff0000000000000000000000000000000000000000938416179055928501517f2237a976fa961f5921fd19f2b03c925c725d77b20ce8f790c19709c03de4d815840180548287169084161790556040808701517f2237a976fa961f5921fd19f2b03c925c725d77b20ce8f790c19709c03de4d816860180549188169185168217905560608801517f2237a976fa961f5921fd19f2b03c925c725d77b20ce8f790c19709c03de4d817909601805496909716959093169490941790945591517fdd62ed3e000000000000000000000000000000000000000000000000000000008152939450909263dd62ed3e9261157c923092016001600160a01b0392831681529116602082015260400190565b602060405180830381865afa158015611599573d6000803e3d6000fd5b505050506040513d601f19601f820116820180604052508101906115bd9190613a5e565b6000036117035760408082015190517f095ea7b300000000000000000000000000000000000000000000000000000000815273a32ee1c40594249eb3183c10792bcf573d4da47c600482015260001960248201526001600160a01b039091169063095ea7b3906044016020604051808303816000875af1158015611645573d6000803e3d6000fd5b505050506040513d601f19601f820116820180604052508101906116699190613810565b50604080820151602083015191517f095ea7b30000000000000000000000000000000000000000000000000000000081526001600160a01b039283166004820152600019602482015291169063095ea7b3906044016020604051808303816000875af11580156116dd573d6000803e3d6000fd5b505050506040513d601f19601f820116820180604052508101906117019190613810565b505b606081015160208201516040517fdd62ed3e0000000000000000000000000000000000000000000000000000000081523060048201526001600160a01b03918216602482015291169063dd62ed3e90604401602060405180830381865afa158015611772573d6000803e3d6000fd5b505050506040513d601f19601f820116820180604052508101906117969190613a5e565b6000036118dc5760608101516040517f095ea7b300000000000000000000000000000000000000000000000000000000815273a32ee1c40594249eb3183c10792bcf573d4da47c600482015260001960248201526001600160a01b039091169063095ea7b3906044016020604051808303816000875af115801561181e573d6000803e3d6000fd5b505050506040513d601f19601f820116820180604052508101906118429190613810565b50606081015160208201516040517f095ea7b30000000000000000000000000000000000000000000000000000000081526001600160a01b039182166004820152600019602482015291169063095ea7b3906044016020604051808303816000875af11580156118b6573d6000803e3d6000fd5b505050506040513d601f19601f820116820180604052508101906118da9190613810565b505b505080806118e990613a77565b915050611263565b5060a080546001600160a01b0384167fffffffffffffffffffffffff00000000000000000000000000000000000000009182161790915543609d5560a1805490911633179055801561199a57600080547fffffffffffffffffffffffffffffffffffffffffffffffffffffffffffff00ff169055604051600181527f7f26b83ff96e1f2b6a682f133852f6798a09c465da95921460cefb38474024989060200160405180910390a15b50505050565b60008060006098609754815481106119ba576119ba613832565b600091825260209182902060408051608081018252600493840290920180546001600160a01b0390811680855260018301548216968501879052600283015482168585015260039092015416606084015290517f51bdca3e0000000000000000000000000000000000000000000000000000000081523093810193909352602483015292506351bdca3e90604401606060405180830381865afa158015611a65573d6000803e3d6000fd5b505050506040513d601f19601f82011682018060405250810190611a8991906138c7565b60408481015190517f70a082310000000000000000000000000000000000000000000000000000000081523060048201529296509094506001600160a01b031691506370a0823190602401602060405180830381865afa158015611af1573d6000803e3d6000fd5b505050506040513d601f19601f82011682018060405250810190611b159190613a5e565b611b1f90846138b4565b60608201516040517f70a082310000000000000000000000000000000000000000000000000000000081523060048201529194506001600160a01b0316906370a0823190602401602060405180830381865afa158015611b83573d6000803e3d6000fd5b505050506040513d601f19601f82011682018060405250810190611ba79190613a5e565b611bb190836138b4565b9150509091565b600080600060a160009054906101000a90046001600160a01b03166001600160a01b0316635c975abb6040518163ffffffff1660e01b8152600401602060405180830381865afa158015611c10573d6000803e3d6000fd5b505050506040513d601f19601f82011682018060405250810190611c349190613810565b15611c815760405162461bcd60e51b815260206004820152601060248201527f5041555341424c453a20504155534544000000000000000000000000000000006044820152606401610709565b611c896124a8565b6097548914611cda5760405162461bcd60e51b815260206004820152600b60248201527f4241445f504f4f4c5f49440000000000000000000000000000000000000000006044820152606401610709565b6000609860975481548110611cf157611cf1613832565b600091825260209182902060408051608081018252600490930290910180546001600160a01b0390811684526001820154811694840194909452600281015484169183018290526003015490921660608201529150611d529033308c61283e565b6060810151611d6c906001600160a01b031633308b61283e565b602081015181516040517f6505e65e0000000000000000000000000000000000000000000000000000000081526001600160a01b039182166004820152602481018c9052604481018b9052606481018a9052608481018990523060a48201526000929190911690636505e65e9060c4016060604051808303816000875af1158015611dfb573d6000803e3d6000fd5b505050506040513d601f19601f82011682018060405250810190611e1f91906138c7565b91965094509050611e2f866128ef565b9250848a1115611e5c57611e5c33611e47878d6138f5565b60408501516001600160a01b03169190612aa0565b83891115611e8757611e8733611e72868c6138f5565b60608501516001600160a01b03169190612aa0565b60975460408051878152602081018790527fcf292c3ff7d54582b495c8f5feaf2d6a840141d3b45b762ce150ae9328c6a278910160405180910390a26097546040518281526001600160a01b0388169133917f2c0f148b435140de488c1b34647f1511c646f7077e87007bacf22ef9977a16d89060200160405180910390a45050611f126001606555565b96509650969350505050565b6060603780546105a9906137bd565b6000806000609860975481548110611f4757611f47613832565b600091825260209182902060408051608081018252600490930290910180546001600160a01b0390811684526001820154811694840194909452600281015484169183018290526003015490921660609091018190529094909350915050565b3360008181526034602090815260408083206001600160a01b0387168452909152812054909190838110156120445760405162461bcd60e51b815260206004820152602560248201527f45524332303a2064656372656173656420616c6c6f77616e63652062656c6f7760448201527f207a65726f0000000000000000000000000000000000000000000000000000006064820152608401610709565b610dff8286868403612350565b60003361063a818585612b7a565b6098818154811061206f57600080fd5b600091825260209091206004909102018054600182015460028301546003909301546001600160a01b039283169450908216928216911684565b60008060a160009054906101000a90046001600160a01b03166001600160a01b0316635c975abb6040518163ffffffff1660e01b8152600401602060405180830381865afa1580156120ff573d6000803e3d6000fd5b505050506040513d601f19601f820116820180604052508101906121239190613810565b156121705760405162461bcd60e51b815260206004820152601060248201527f5041555341424c453a20504155534544000000000000000000000000000000006044820152606401610709565b6121786124a8565b60975487146121c95760405162461bcd60e51b815260206004820152600b60248201527f4241445f504f4f4c5f49440000000000000000000000000000000000000000006044820152606401610709565b60006098609754815481106121e0576121e0613832565b6000918252602080832060408051608081018252600490940290910180546001600160a01b039081168552600182015481169385019390935260028101548316918401919091526003015416606082015291508061223d86612501565b91509150600061224c8a6126be565b602085015185516040517fd84ff8420000000000000000000000000000000000000000000000000000000081526001600160a01b03918216600482015260248101849052604481018d9052606481018c90528a82166084820152929350169063d84ff8429060a40160408051808303816000875af11580156122d2573d6000803e3d6000fd5b505050506040513d601f19601f820116820180604052508101906122f69190613861565b909650945061230583876138b4565b955061231182866138b4565b94506097547ff0ebf98d9ecd4f11114987b0de79d86c03a9b6e84e74d9503a38acabe0db862a87876040516109b9929190918252602082015260400190565b6001600160a01b0383166123cb5760405162461bcd60e51b8152602060048201526024808201527f45524332303a20617070726f76652066726f6d20746865207a65726f2061646460448201527f72657373000000000000000000000000000000000000000000000000000000006064820152608401610709565b6001600160a01b0382166124475760405162461bcd60e51b815260206004820152602260248201527f45524332303a20617070726f766520746f20746865207a65726f20616464726560448201527f73730000000000000000000000000000000000000000000000000000000000006064820152608401610709565b6001600160a01b0383811660008181526034602090815260408083209487168084529482529182902085905590518481527f8c5be1e5ebec7d5bd14f71427d1e84f3dd0314c0f7b2291e5b200ac8c7c3b925910160405180910390a3505050565b6002606554036124fa5760405162461bcd60e51b815260206004820152601f60248201527f5265656e7472616e637947756172643a207265656e7472616e742063616c6c006044820152606401610709565b6002606555565b336000908152609f60209081526040808320609d548452909152812054819060ff166126b957609c541561267357600060986097548154811061254657612546613832565b600091825260208083206040805160808101825260049490940290910180546001600160a01b03908116855260018201548116858501526002820154811685840152600390910154166060840152609c54609a5433808752609e8552838720609d54885285528387205490875260339094529190942054929450916125cb91906138f5565b6125d59190613908565b6125df919061391f565b609c54609b54336000818152609e60209081526040808320609d54845282528083205493835260339091529020549396509192909161261d916138f5565b6126279190613908565b612631919061391f565b91508215612652576040810151612652906001600160a01b03168585612aa0565b8115612671576060810151612671906001600160a01b03168584612aa0565b505b336000908152609f60209081526040808320609d548452909152902080547fffffffffffffffffffffffffffffffffffffffffffffffffffffffffffffff001660011790555b915091565b6000806098609754815481106126d6576126d6613832565b6000918252602080832060408051608081018252600494850290920180546001600160a01b0390811680855260018301548216958501869052600283015482168585015260039092015416606084015290517f51bdca3e000000000000000000000000000000000000000000000000000000008152309481019490945260248401529350906351bdca3e90604401606060405180830381865afa158015612781573d6000803e3d6000fd5b505050506040513d601f19601f820116820180604052508101906127a591906138c7565b505090506127b260355490565b6127bc8286613908565b6127c6919061391f565b9250600083116128185760405162461bcd60e51b815260206004820152601d60248201527f494e53554646494349454e545f4c49515549444954595f4255524e45440000006044820152606401610709565b6128223385612e8b565b61282c83826138f5565b609955509092915050565b6001606555565b6040516001600160a01b038085166024830152831660448201526064810182905261199a9085907f23b872dd00000000000000000000000000000000000000000000000000000000906084015b60408051601f198184030181529190526020810180517bffffffffffffffffffffffffffffffffffffffffffffffffffffffff167fffffffff0000000000000000000000000000000000000000000000000000000090931692909217909152613002565b60008060986097548154811061290757612907613832565b6000918252602080832060408051608081018252600494850290920180546001600160a01b0390811680855260018301548216958501869052600283015482168585015260039092015416606084015290517f51bdca3e000000000000000000000000000000000000000000000000000000008152309481019490945260248401529350906351bdca3e90604401606060405180830381865afa1580156129b2573d6000803e3d6000fd5b505050506040513d601f19601f820116820180604052508101906129d691906138c7565b505090506000609954826129ea91906138f5565b905060006129f760355490565b905080600003612a2157612a0d6103e8836138f5565b9450612a1c60016103e86130ea565b612a3b565b609954612a2e8284613908565b612a38919061391f565b94505b60008511612a8b5760405162461bcd60e51b815260206004820152601d60248201527f494e53554646494349454e545f4c49515549444954595f4d494e5445440000006044820152606401610709565b612a9586866130ea565b505060995550919050565b6040516001600160a01b038316602482015260448101829052612ae99084907fa9059cbb000000000000000000000000000000000000000000000000000000009060640161288b565b505050565b6001600160a01b03838116600090815260346020908152604080832093861683529290522054600019811461199a5781811015612b6d5760405162461bcd60e51b815260206004820152601d60248201527f45524332303a20696e73756666696369656e7420616c6c6f77616e63650000006044820152606401610709565b61199a8484848403612350565b6001600160a01b038316612bf65760405162461bcd60e51b815260206004820152602560248201527f45524332303a207472616e736665722066726f6d20746865207a65726f20616460448201527f64726573730000000000000000000000000000000000000000000000000000006064820152608401610709565b6001600160a01b038216612c725760405162461bcd60e51b815260206004820152602360248201527f45524332303a207472616e7366657220746f20746865207a65726f206164647260448201527f65737300000000000000000000000000000000000000000000000000000000006064820152608401610709565b612c7d8383836131b7565b6001600160a01b03831660009081526033602052604090205481811015612d0c5760405162461bcd60e51b815260206004820152602660248201527f45524332303a207472616e7366657220616d6f756e742065786365656473206260448201527f616c616e636500000000000000000000000000000000000000000000000000006064820152608401610709565b6001600160a01b0380851660008181526033602052604080822086860390559286168082529083902080548601905591517fddf252ad1be2c89b69c2b068fc378daa952ba7f163c4a11628f55a4df523b3ef90612d6c9086815260200190565b60405180910390a361199a565b600054610100900460ff16612df65760405162461bcd60e51b815260206004820152602b60248201527f496e697469616c697a61626c653a20636f6e7472616374206973206e6f74206960448201527f6e697469616c697a696e670000000000000000000000000000000000000000006064820152608401610709565b612e008282613289565b5050565b600054610100900460ff16612e815760405162461bcd60e51b815260206004820152602b60248201527f496e697469616c697a61626c653a20636f6e7472616374206973206e6f74206960448201527f6e697469616c697a696e670000000000000000000000000000000000000000006064820152608401610709565b612e8961331f565b565b6001600160a01b038216612f075760405162461bcd60e51b815260206004820152602160248201527f45524332303a206275726e2066726f6d20746865207a65726f2061646472657360448201527f73000000000000000000000000000000000000000000000000000000000000006064820152608401610709565b612f13826000836131b7565b6001600160a01b03821660009081526033602052604090205481811015612fa25760405162461bcd60e51b815260206004820152602260248201527f45524332303a206275726e20616d6f756e7420657863656564732062616c616e60448201527f63650000000000000000000000000000000000000000000000000000000000006064820152608401610709565b6001600160a01b03831660008181526033602090815260408083208686039055603580548790039055518581529192917fddf252ad1be2c89b69c2b068fc378daa952ba7f163c4a11628f55a4df523b3ef910160405180910390a3505050565b6000613057826040518060400160405280602081526020017f5361666545524332303a206c6f772d6c6576656c2063616c6c206661696c6564815250856001600160a01b031661339c9092919063ffffffff16565b90508051600014806130785750808060200190518101906130789190613810565b612ae95760405162461bcd60e51b815260206004820152602a60248201527f5361666545524332303a204552433230206f7065726174696f6e20646964206e60448201527f6f742073756363656564000000000000000000000000000000000000000000006064820152608401610709565b6001600160a01b0382166131405760405162461bcd60e51b815260206004820152601f60248201527f45524332303a206d696e7420746f20746865207a65726f2061646472657373006044820152606401610709565b61314c600083836131b7565b806035600082825461315e91906138b4565b90915550506001600160a01b0382166000818152603360209081526040808320805486019055518481527fddf252ad1be2c89b69c2b068fc378daa952ba7f163c4a11628f55a4df523b3ef910160405180910390a35050565b6001600160a01b0383166000908152609e60209081526040808320609d54845290915290205481111561320f576001600160a01b0383166000908152609e60209081526040808320609d54845290915281205561324a565b6001600160a01b0383166000908152609e60209081526040808320609d548452909152812080548392906132449084906138f5565b90915550505b6001600160a01b0382166000908152609e60209081526040808320609d5484529091528120805483929061327f9084906138b4565b9091555050505050565b600054610100900460ff166133065760405162461bcd60e51b815260206004820152602b60248201527f496e697469616c697a61626c653a20636f6e7472616374206973206e6f74206960448201527f6e697469616c697a696e670000000000000000000000000000000000000000006064820152608401610709565b60366133128382613adf565b506037612ae98282613adf565b600054610100900460ff166128375760405162461bcd60e51b815260206004820152602b60248201527f496e697469616c697a61626c653a20636f6e7472616374206973206e6f74206960448201527f6e697469616c697a696e670000000000000000000000000000000000000000006064820152608401610709565b60606133ab84846000856133b3565b949350505050565b60608247101561342b5760405162461bcd60e51b815260206004820152602660248201527f416464726573733a20696e73756666696369656e742062616c616e636520666f60448201527f722063616c6c00000000000000000000000000000000000000000000000000006064820152608401610709565b600080866001600160a01b031685876040516134479190613b9f565b60006040518083038185875af1925050503d8060008114613484576040519150601f19603f3d011682016040523d82523d6000602084013e613489565b606091505b509150915061349a878383876134a5565b979650505050505050565b6060831561351457825160000361350d576001600160a01b0385163b61350d5760405162461bcd60e51b815260206004820152601d60248201527f416464726573733a2063616c6c20746f206e6f6e2d636f6e74726163740000006044820152606401610709565b50816133ab565b6133ab83838151156135295781518083602001fd5b8060405162461bcd60e51b81526004016107099190613567565b60005b8381101561355e578181015183820152602001613546565b50506000910152565b6020815260008251806020840152613586816040850160208701613543565b601f01601f19169190910160400192915050565b6001600160a01b03811681146135af57600080fd5b50565b600080604083850312156135c557600080fd5b82356135d08161359a565b946020939093013593505050565b600080600080600060a086880312156135f657600080fd5b85359450602086013593506040860135925060608601359150608086013561361d8161359a565b809150509295509295909350565b60008060006060848603121561364057600080fd5b833561364b8161359a565b9250602084013561365b8161359a565b929592945050506040919091013590565b60006020828403121561367e57600080fd5b81356136898161359a565b9392505050565b6000806000604084860312156136a557600080fd5b833567ffffffffffffffff808211156136bd57600080fd5b818601915086601f8301126136d157600080fd5b8135818111156136e057600080fd5b8760208260061b85010111156136f557600080fd5b6020928301955093505084013561370b8161359a565b809150509250925092565b60008060008060008060c0878903121561372f57600080fd5b863595506020870135945060408701359350606087013592506080870135915060a087013561375d8161359a565b809150509295509295509295565b60006020828403121561377d57600080fd5b5035919050565b6000806040838503121561379757600080fd5b82356137a28161359a565b915060208301356137b28161359a565b809150509250929050565b600181811c908216806137d157607f821691505b60208210810361380a577f4e487b7100000000000000000000000000000000000000000000000000000000600052602260045260246000fd5b50919050565b60006020828403121561382257600080fd5b8151801515811461368957600080fd5b7f4e487b7100000000000000000000000000000000000000000000000000000000600052603260045260246000fd5b6000806040838503121561387457600080fd5b505080516020909101519092909150565b7f4e487b7100000000000000000000000000000000000000000000000000000000600052601160045260246000fd5b8082018082111561064057610640613885565b6000806000606084860312156138dc57600080fd5b8351925060208401519150604084015190509250925092565b8181038181111561064057610640613885565b808202811582820484141761064057610640613885565b600082613955577f4e487b7100000000000000000000000000000000000000000000000000000000600052601260045260246000fd5b500490565b7f4e487b7100000000000000000000000000000000000000000000000000000000600052604160045260246000fd5b80516139948161359a565b919050565b600060208083850312156139ac57600080fd5b825167ffffffffffffffff808211156139c457600080fd5b818501915085601f8301126139d857600080fd5b8151818111156139ea576139ea61395a565b8060051b604051601f19603f83011681018181108582111715613a0f57613a0f61395a565b604052918252848201925083810185019188831115613a2d57600080fd5b938501935b82851015613a5257613a4385613989565b84529385019392850192613a32565b98975050505050505050565b600060208284031215613a7057600080fd5b5051919050565b60006000198203613a8a57613a8a613885565b5060010190565b601f821115612ae957600081815260208120601f850160051c81016020861015613ab85750805b601f850160051c820191505b81811015613ad757828155600101613ac4565b505050505050565b815167ffffffffffffffff811115613af957613af961395a565b613b0d81613b0784546137bd565b84613a91565b602080601f831160018114613b425760008415613b2a5750858301515b600019600386901b1c1916600185901b178555613ad7565b600085815260208120601f198616915b82811015613b7157888601518255948401946001909101908401613b52565b5085821015613b8f5787850151600019600388901b60f8161c191681555b5050505050600190811b01905550565b60008251613bb1818460208701613543565b919091019291505056fea2646970667358221220576d39f311bf5f4b0b9e2faa0add23ca07e70b65bf0605c207211b15d16a7cb764736f6c63430008130033",
  "immutableReferences": {},
  "source": "// SPDX-License-Identifier: MIT\r\npragma solidity 0.8.19;\r\n\r\nimport \"../interfaces/IUnoAssetRouter.sol\";   \r\nimport \"../interfaces/IUnoAutoStrategyFactory.sol\";  \r\nimport '@openzeppelin/contracts-upgradeable/security/ReentrancyGuardUpgradeable.sol';\r\nimport '@openzeppelin/contracts-upgradeable/token/ERC20/ERC20Upgradeable.sol';\r\nimport '@openzeppelin/contracts-upgradeable/token/ERC20/utils/SafeERC20Upgradeable.sol';\r\n\r\ncontract UnoAutoStrategyV0 is Initializable, ERC20Upgradeable, ReentrancyGuardUpgradeable {\r\n    using SafeERC20Upgradeable for IERC20Upgradeable;\r\n    /**\r\n     * @dev PoolInfo:\r\n     * {assetRouter} - UnoAssetRouter contract.\r\n     * {pool} - Pool address. \r\n     * {tokenA} - Pool's first token address.\r\n     * {tokenB} - Pool's second token address.\r\n     */\r\n    struct _PoolInfo {\r\n        address pool;\r\n        IUnoAssetRouter assetRouter;\r\n    }\r\n\r\n    struct PoolInfo {\r\n        address pool;\r\n        IUnoAssetRouter assetRouter;\r\n        IERC20Upgradeable tokenA;\r\n        IERC20Upgradeable tokenB;\r\n    }\r\n\r\n    /**\r\n     * @dev MoveLiquidityInfo:\r\n     * {leftoverA} - TokenA leftovers after MoveLiquidity() call.\r\n     * {leftoverB} - TokenB leftovers after MoveLiquidity() call. \r\n     * {totalSupply} - totalSupply after MoveLiquidity() call.\r\n     * {block} - MoveLiquidity() call block.\r\n     */\r\n    struct MoveLiquidityInfo {\r\n        uint256 leftoverA;\r\n        uint256 leftoverB;\r\n        uint256 totalSupply;\r\n        uint256 block;\r\n    }\r\n    \r\n    /**\r\n     * @dev Contract Variables:\r\n     * {OdosRouter} - Contract that executes swaps.\r\n\r\n     * {poolID} - Current pool the strategy uses ({pools} index).\r\n     * {pools} - Pools this strategy can use and move liquidity to.\r\n\r\n     * {reserveLP} - LP token reserve.\r\n     * {lastMoveInfo} - Info on last MoveLiquidity() block.\r\n     * {blockedLiquidty} - User's blocked LP tokens. Prevents user from stealing leftover tokens by depositing and exiting before moveLiquidity() has been called.\r\n     * {leftoversCollected} - Flag that prevents leftover token collection if they were already collected this MoveLiquidity() cycle.\r\n\r\n     * {accessManager} - Role manager contract.\r\n     * {factory} - The address of AutoStrategyFactory this contract was deployed by.\r\n\r\n     * {MINIMUM_LIQUIDITY} - Ameliorates rounding errors.\r\n     */\r\n\r\n    address private constant OdosRouter = 0xa32EE1C40594249eb3183c10792BcF573D4Da47C;\r\n\r\n    uint256 public poolID;\r\n    PoolInfo[] public pools;\r\n\r\n    uint256 private reserveLP;\r\n    MoveLiquidityInfo private lastMoveInfo;\r\n    mapping(address => mapping(uint256 => uint256)) private blockedLiquidty;\r\n    mapping(address => mapping(uint256 => bool)) private leftoversCollected;\r\n\r\n    IUnoAccessManager public accessManager;\r\n    IUnoAutoStrategyFactory public factory;\r\n\r\n    uint256 private constant MINIMUM_LIQUIDITY = 10**3;\r\n    bytes32 private constant LIQUIDITY_MANAGER_ROLE = keccak256('LIQUIDITY_MANAGER_ROLE');\r\n    address public constant WMATIC = 0x0d500B1d8E8eF31E21C99d1Db9A6444d3ADf1270;\r\n\r\n    event DepositPairTokens(uint256 indexed poolID, uint256 amountA, uint256 amountB);\r\n    event DepositPairTokensETH(uint256 indexed poolID, uint256 amountToken, uint256 amountETH);\r\n    event DepositSingleToken(uint256 indexed poolID, address indexed token, uint256 amount);\r\n    event DepositSingleETH(uint256 indexed poolID, uint256 amountETH);\r\n    // Note: amountLP refers to LP tokens used in farms and staking pools, not UNO-LP this contract is.\r\n    // To get info for UNO-LP use mint/burn events\r\n    event Deposit(uint256 indexed poolID, address indexed from, address indexed recipient, uint256 amountLP);\r\n\r\n    event WithdrawPairTokens(uint256 indexed poolID, uint256 amountA, uint256 amountB);\r\n    event WithdrawPairTokensETH(uint256 indexed poolID, uint256 amountToken, uint256 amountETH);\r\n    event WithdrawSingleToken(uint256 indexed poolID, address indexed token, uint256 amount, uint256 amountA, uint256 amountB);\r\n    event WithdrawSingleETH(uint256 indexed poolID, uint256 amountETH, uint256 amountA, uint256 amountB);\r\n    // Note: amountLP refers to LP tokens used in farms and staking pools, not UNO-LP this contract is.\r\n    // To get info for UNO-LP use mint/burn events\r\n    event Withdraw(uint256 indexed poolID, address indexed from, address indexed recipient, uint256 amountLP);\r\n\r\n    event MoveLiquidity(uint256 indexed previousPoolID, uint256 indexed nextPoolID);\r\n\r\n    modifier whenNotPaused(){\r\n        require(factory.paused() == false, 'PAUSABLE: PAUSED');\r\n        _;\r\n    }\r\n\r\n    // ============ Methods ============\r\n\r\n    receive() external payable {}\r\n\r\n    function initialize(_PoolInfo[] calldata poolInfos, IUnoAccessManager _accessManager) external initializer {\r\n        require ((poolInfos.length >= 2) && (poolInfos.length <= 50), 'BAD_POOL_COUNT');\r\n\r\n        __ERC20_init(\"UNO-AutoStrategy\", \"UNO-LP\");\r\n        __ReentrancyGuard_init();\r\n        \r\n        for (uint256 i = 0; i < poolInfos.length; i++) {\r\n            IERC20[] memory _tokens = IUnoAssetRouter(poolInfos[i].assetRouter).getTokens(poolInfos[i].pool);\r\n            PoolInfo memory pool = PoolInfo({\r\n                pool: poolInfos[i].pool,\r\n                assetRouter: poolInfos[i].assetRouter,\r\n                tokenA: IERC20Upgradeable(address(_tokens[0])),\r\n                tokenB: IERC20Upgradeable(address(_tokens[1]))\r\n            });\r\n            pools.push(pool);\r\n\r\n            if (pool.tokenA.allowance(address(this), address(pool.assetRouter)) == 0) {\r\n                pool.tokenA.approve(address(OdosRouter), type(uint256).max);\r\n                pool.tokenA.approve(address(pool.assetRouter), type(uint256).max);\r\n            }\r\n            if (pool.tokenB.allowance(address(this), address(pool.assetRouter)) == 0) {\r\n                pool.tokenB.approve(address(OdosRouter), type(uint256).max);\r\n                pool.tokenB.approve(address(pool.assetRouter), type(uint256).max);\r\n            }\r\n        }\r\n\r\n        accessManager = _accessManager;\r\n        lastMoveInfo.block = block.number;\r\n        factory = IUnoAutoStrategyFactory(msg.sender);\r\n    }\r\n\r\n    /**\r\n     * @dev Deposits tokens in the pools[poolID] pool. Mints tokens representing user share. Emits {Deposit} event.\r\n     * @param pid - Current poolID. Throws revert if moveLiquidity() has been called before the transaction has been mined.\r\n     * @param amountA - Token A amount to deposit.\r\n     * @param amountB  - Token B amount to deposit.\r\n     * @param amountAMin - Bounds the extent to which the B/A price can go up before the transaction reverts.\r\n     * @param amountBMin - Bounds the extent to which the A/B price can go up before the transaction reverts.\r\n     * @param recipient - Address which will receive the deposit.\r\n     \r\n     * @return sentA - Deposited token A amount.\r\n     * @return sentB - Deposited token B amount.\r\n     * @return liquidity - Total liquidity minted for the {recipient}.\r\n     */\r\n    function deposit(uint256 pid, uint256 amountA, uint256 amountB, uint256 amountAMin, uint256 amountBMin, address recipient) whenNotPaused nonReentrant external returns (uint256 sentA, uint256 sentB, uint256 liquidity) {\r\n        require (pid == poolID, 'BAD_POOL_ID');\r\n        PoolInfo memory pool = pools[poolID];\r\n\r\n        pool.tokenA.safeTransferFrom(msg.sender, address(this), amountA);\r\n        pool.tokenB.safeTransferFrom(msg.sender, address(this), amountB);\r\n\r\n        uint256 amountLP;\r\n        (sentA, sentB, amountLP) = pool.assetRouter.deposit(pool.pool, amountA, amountB, amountAMin, amountBMin, address(this));\r\n        liquidity = mint(recipient);\r\n\r\n        if(amountA > sentA){\r\n            pool.tokenA.safeTransfer(msg.sender, amountA - sentA);\r\n        }\r\n        if(amountB > sentB){\r\n            pool.tokenB.safeTransfer(msg.sender, amountB - sentB);\r\n        }\r\n\r\n        emit DepositPairTokens(poolID, sentA, sentB);\r\n        emit Deposit(poolID, msg.sender, recipient, amountLP); \r\n    }\r\n\r\n    /**\r\n     * @dev Deposits tokens in the pools[poolID] pool. Mints tokens representing user share. Emits {Deposit} event.\r\n     * @param pid - Current poolID. Throws revert if moveLiquidity() has been called before the transaction has been mined.\r\n     * @param amountToken - Token amount to deposit.\r\n     * @param amountTokenMin - Bounds the extent to which the TOKEN/WMATIC price can go up before the transaction reverts.\r\n     * @param amountETHMin - Bounds the extent to which the WMATIC/TOKEN price can go up before the transaction reverts.\r\n     * @param recipient - Address which will receive the deposit.\r\n     \r\n     * @return sentToken - Deposited token amount.\r\n     * @return sentETH - Deposited ETH amount.\r\n     * @return liquidity - Total liquidity minted for the {recipient}.\r\n     */\r\n    function depositETH(uint256 pid, uint256 amountToken, uint256 amountTokenMin, uint256 amountETHMin, address recipient) whenNotPaused nonReentrant external payable returns (uint256 sentToken, uint256 sentETH, uint256 liquidity) {\r\n        require (pid == poolID, 'BAD_POOL_ID');\r\n        PoolInfo memory pool = pools[poolID];\r\n\r\n        IERC20Upgradeable token;\r\n        if (address(pool.tokenA) == WMATIC) {\r\n            token = pool.tokenB;\r\n        } else if (address(pool.tokenB) == WMATIC) {\r\n            token = pool.tokenA;\r\n        } else {\r\n            revert(\"NOT_WMATIC_POOL\");\r\n        }\r\n        token.safeTransferFrom(msg.sender, address(this), amountToken);\r\n\r\n        uint256 amountLP;\r\n        (sentToken, sentETH, amountLP) = pool.assetRouter.depositETH{value: msg.value}(pool.pool, amountToken, amountTokenMin, amountETHMin, address(this));\r\n        liquidity = mint(recipient);\r\n\r\n        if(amountToken > sentToken){\r\n            token.safeTransfer(msg.sender, amountToken - sentToken);\r\n        }\r\n        if(msg.value > sentETH){\r\n            payable(msg.sender).transfer(msg.value - sentETH);\r\n        }\r\n\r\n        emit DepositPairTokensETH(poolID, sentToken, sentETH);\r\n        emit Deposit(poolID, msg.sender, recipient, amountLP); \r\n    }\r\n\r\n    /**\r\n     * @dev Withdraws tokens from the {pools[poolID]} pool and sends them to the recipient. Burns tokens representing user share. Emits {Withdraw} event.\r\n     * @param pid - Current poolID. Throws revert if moveLiquidity() has been called before the transaction has been mined.\r\n     * @param liquidity - Liquidity to burn from this user.\r\n     * @param amountAMin - The minimum amount of tokenA that must be received from the pool for the transaction not to revert.\r\n     * @param amountBMin - The minimum amount of tokenB that must be received from the pool for the transaction not to revert.\r\n     * @param recipient - Address which will receive withdrawn tokens.\r\n     \r\n     * @return amountA - Token A amount sent to the {recipient}.\r\n     * @return amountB - Token B amount sent to the {recipient}.\r\n     */\r\n    function withdraw(uint256 pid, uint256 liquidity, uint256 amountAMin, uint256 amountBMin, address recipient) whenNotPaused nonReentrant external returns (uint256 amountA, uint256 amountB) {\r\n        require (pid == poolID, 'BAD_POOL_ID');\r\n        PoolInfo memory pool = pools[poolID];\r\n\r\n        (uint256 leftoverA, uint256 leftoverB) = collectLeftovers(recipient);\r\n\r\n        uint256 amountLP = burn(liquidity);\r\n        (amountA, amountB) = pool.assetRouter.withdraw(pool.pool, amountLP, amountAMin, amountBMin, recipient);\r\n\r\n        amountA += leftoverA;\r\n        amountB += leftoverB;\r\n\r\n        emit WithdrawPairTokens(poolID, amountA, amountB);\r\n        emit Withdraw(poolID, msg.sender, recipient, amountLP); \r\n    }\r\n\r\n    /**\r\n     * @dev Withdraws tokens from the {pools[poolID]} pool and sends them to the recipient. Burns tokens representing user share. Emits {Withdraw} event.\r\n     * @param pid - Current poolID. Throws revert if moveLiquidity() has been called before the transaction has been mined.\r\n     * @param liquidity - Liquidity to burn from this user.\r\n     * @param amountTokenMin - The minimum amount of tokenA that must be received from the pool for the transaction not to revert.\r\n     * @param amountETHMin - The minimum amount of tokenB that must be received from the pool for the transaction not to revert.\r\n     * @param recipient - Address which will receive withdrawn tokens.\r\n     \r\n     * @return amountToken - Token amount sent to the {recipient}.\r\n     * @return amountETH - MATIC amount sent to the {recipient}.\r\n     */\r\n    function withdrawETH(uint256 pid, uint256 liquidity, uint256 amountTokenMin, uint256 amountETHMin, address recipient) whenNotPaused nonReentrant external returns (uint256 amountToken, uint256 amountETH) {\r\n        require (pid == poolID, 'BAD_POOL_ID');\r\n        PoolInfo memory pool = pools[poolID];\r\n\r\n        (uint256 leftoverA, uint256 leftoverB) = collectLeftovers(recipient);\r\n\r\n        uint256 amountLP = burn(liquidity);\r\n        (amountToken, amountETH) = pool.assetRouter.withdrawETH(pool.pool, amountLP, amountTokenMin, amountETHMin, recipient);\r\n\r\n        if (address(pool.tokenA) == WMATIC) {\r\n            amountETH += leftoverA;\r\n            amountToken += leftoverB;\r\n        } else if (address(pool.tokenB) == WMATIC) {\r\n            amountToken += leftoverA;\r\n            amountETH += leftoverB;\r\n        } else {\r\n            revert(\"NOT_WMATIC_POOL\");\r\n        }\r\n\r\n        emit WithdrawPairTokensETH(poolID, amountToken, amountETH);\r\n        emit Withdraw(poolID, msg.sender, recipient, amountLP); \r\n    }\r\n\r\n    /**\r\n     * @dev Collects leftover tokens left from moveLiquidity() function.\r\n     * @param recipient - Address which will receive leftover tokens.\r\n     \r\n     * @return leftoverA - Token A amount sent to the {recipient}.\r\n     * @return leftoverB - Token B amount sent to the {recipient}.\r\n     */\r\n    function collectLeftovers(address recipient) internal returns (uint256 leftoverA, uint256 leftoverB){\r\n        if(!leftoversCollected[msg.sender][lastMoveInfo.block]){\r\n            if(lastMoveInfo.totalSupply != 0){\r\n                PoolInfo memory pool = pools[poolID];\r\n                leftoverA = (balanceOf(msg.sender) - blockedLiquidty[msg.sender][lastMoveInfo.block]) * lastMoveInfo.leftoverA / lastMoveInfo.totalSupply;\r\n                leftoverB = (balanceOf(msg.sender) - blockedLiquidty[msg.sender][lastMoveInfo.block]) * lastMoveInfo.leftoverB / lastMoveInfo.totalSupply;\r\n\r\n                if(leftoverA > 0){\r\n                    pool.tokenA.safeTransfer(recipient, leftoverA);\r\n                }\r\n                if(leftoverB > 0){\r\n                    pool.tokenB.safeTransfer(recipient, leftoverB);\r\n                }\r\n            }\r\n\r\n            leftoversCollected[msg.sender][lastMoveInfo.block] = true;\r\n        }\r\n    }\r\n\r\n    /**\r\n     * @dev Returns tokens staked by the {_address}. \r\n     * @param _address - The address to check stakes for.\r\n\r\n     * @return stakeA - Token A stake.\r\n     * @return stakeB - Token B stake.\r\n     * @return leftoverA - Token A Leftovers obligated to the {_address} after moveLiquidity() function call.\r\n     * @return leftoverB - Token B Leftovers obligated to the {_address} after moveLiquidity() function call.\r\n     */\r\n    function userStake(address _address) external view returns (uint256 stakeA, uint256 stakeB, uint256 leftoverA, uint256 leftoverB) {\r\n        PoolInfo memory pool = pools[poolID];\r\n        (, uint256 balanceA, uint256 balanceB) = pool.assetRouter.userStake(address(this), pool.pool);\r\n\r\n        uint256 _balance = balanceOf(_address);\r\n        if(_balance != 0){\r\n            uint256 _totalSupply = totalSupply();\r\n            stakeA = _balance * balanceA / _totalSupply; \r\n            stakeB = _balance * balanceB / _totalSupply; \r\n            if((!leftoversCollected[msg.sender][lastMoveInfo.block]) && (lastMoveInfo.totalSupply != 0)){\r\n                leftoverA = (_balance - blockedLiquidty[_address][lastMoveInfo.block]) * lastMoveInfo.leftoverA / lastMoveInfo.totalSupply;\r\n                leftoverB = (_balance - blockedLiquidty[_address][lastMoveInfo.block]) * lastMoveInfo.leftoverB / lastMoveInfo.totalSupply;\r\n            }\r\n        }\r\n    }\r\n        \r\n    /**\r\n     * @dev Returns total amount locked in the pool. \r\n     * @return totalDepositsA - Token A deposits.\r\n     * @return totalDepositsB - Token B deposits.\r\n     */     \r\n    function totalDeposits() external view returns(uint256 totalDepositsA, uint256 totalDepositsB){\r\n        PoolInfo memory pool = pools[poolID];\r\n        (, totalDepositsA, totalDepositsB) = pool.assetRouter.userStake(address(this), pool.pool);\r\n\r\n        // Add leftover tokens.\r\n        totalDepositsA += pool.tokenA.balanceOf(address(this));\r\n        totalDepositsB += pool.tokenB.balanceOf(address(this));\r\n    }\r\n\r\n    /**\r\n     * @dev Returns the number of pools in the strategy. \r\n     */\r\n    function poolsLength() external view returns(uint256){\r\n        return pools.length;\r\n    }\r\n\r\n    /**\r\n     * @dev Returns pair of tokens currently in use. \r\n     */\r\n    function tokens() external view returns(address, address){\r\n        PoolInfo memory pool = pools[poolID];\r\n        return (address(pool.tokenA), address(pool.tokenB));\r\n    }\r\n\r\n    function mint(address to) internal returns (uint256 liquidity){\r\n        PoolInfo memory pool = pools[poolID];\r\n        (uint256 balanceLP,,) = pool.assetRouter.userStake(address(this), pool.pool);\r\n        uint256 amountLP = balanceLP - reserveLP;\r\n\r\n        uint256 _totalSupply = totalSupply();\r\n        if (_totalSupply == 0) {\r\n            liquidity = amountLP - MINIMUM_LIQUIDITY;\r\n            _mint(address(1), MINIMUM_LIQUIDITY);\r\n        } else {\r\n            liquidity = amountLP * _totalSupply / reserveLP;\r\n        }\r\n\r\n        require(liquidity > 0, 'INSUFFICIENT_LIQUIDITY_MINTED');\r\n        _mint(to, liquidity);\r\n\r\n        reserveLP = balanceLP;\r\n    }\r\n\r\n    function burn(uint256 liquidity) internal returns (uint256 amountLP) {\r\n        PoolInfo memory pool = pools[poolID];\r\n        (uint256 balanceLP,,) = pool.assetRouter.userStake(address(this), pool.pool);\r\n\r\n        amountLP = liquidity * balanceLP / totalSupply(); \r\n        require(amountLP > 0, 'INSUFFICIENT_LIQUIDITY_BURNED');\r\n        _burn(msg.sender, liquidity);\r\n\r\n        reserveLP = balanceLP - amountLP;\r\n    }\r\n\r\n    function _beforeTokenTransfer(address from, address to, uint256 amount) internal virtual override {\r\n        super._beforeTokenTransfer(from, to, amount);\r\n\r\n        // Decrease blockedLiquidty from {from} address, but no less then 0.\r\n        if(amount > blockedLiquidty[from][lastMoveInfo.block]){\r\n            blockedLiquidty[from][lastMoveInfo.block] = 0;\r\n        } else {\r\n            blockedLiquidty[from][lastMoveInfo.block] -= amount;\r\n        }\r\n        // Block {to} address from withdrawing their share of leftover tokens immediately.\r\n        blockedLiquidty[to][lastMoveInfo.block] += amount;\r\n    }\r\n}",
  "sourcePath": "C:\\Users\\jugli\\Desktop\\uno\\uno-contracts-optimism\\contracts\\test\\UnoAutoStrategyV0.sol",
  "compiler": {
    "name": "solc",
    "version": "0.8.19+commit.7dd6d404.Emscripten.clang"
  },
  "schemaVersion": "3.4.16",
  "updatedAt": "2023-09-27T12:04:10.979Z",
  "devdoc": {
    "events": {
      "Approval(address,address,uint256)": {
        "details": "Emitted when the allowance of a `spender` for an `owner` is set by a call to {approve}. `value` is the new allowance."
      },
      "Initialized(uint8)": {
        "details": "Triggered when the contract has been initialized or reinitialized."
      },
      "Transfer(address,address,uint256)": {
        "details": "Emitted when `value` tokens are moved from one account (`from`) to another (`to`). Note that `value` may be zero."
      }
    },
    "kind": "dev",
    "methods": {
      "allowance(address,address)": {
        "details": "See {IERC20-allowance}."
      },
      "approve(address,uint256)": {
        "details": "See {IERC20-approve}. NOTE: If `amount` is the maximum `uint256`, the allowance is not updated on `transferFrom`. This is semantically equivalent to an infinite approval. Requirements: - `spender` cannot be the zero address."
      },
      "balanceOf(address)": {
        "details": "See {IERC20-balanceOf}."
      },
      "decimals()": {
        "details": "Returns the number of decimals used to get its user representation. For example, if `decimals` equals `2`, a balance of `505` tokens should be displayed to a user as `5.05` (`505 / 10 ** 2`). Tokens usually opt for a value of 18, imitating the relationship between Ether and Wei. This is the default value returned by this function, unless it's overridden. NOTE: This information is only used for _display_ purposes: it in no way affects any of the arithmetic of the contract, including {IERC20-balanceOf} and {IERC20-transfer}."
      },
      "decreaseAllowance(address,uint256)": {
        "details": "Atomically decreases the allowance granted to `spender` by the caller. This is an alternative to {approve} that can be used as a mitigation for problems described in {IERC20-approve}. Emits an {Approval} event indicating the updated allowance. Requirements: - `spender` cannot be the zero address. - `spender` must have allowance for the caller of at least `subtractedValue`."
      },
      "deposit(uint256,uint256,uint256,uint256,uint256,address)": {
        "details": "Deposits tokens in the pools[poolID] pool. Mints tokens representing user share. Emits {Deposit} event.",
        "params": {
          "amountA": "- Token A amount to deposit.",
          "amountAMin": "- Bounds the extent to which the B/A price can go up before the transaction reverts.",
          "amountB": "- Token B amount to deposit.",
          "amountBMin": "- Bounds the extent to which the A/B price can go up before the transaction reverts.",
          "pid": "- Current poolID. Throws revert if moveLiquidity() has been called before the transaction has been mined.",
          "recipient": "- Address which will receive the deposit."
        },
        "returns": {
          "liquidity": "- Total liquidity minted for the {recipient}.",
          "sentA": "- Deposited token A amount.",
          "sentB": "- Deposited token B amount."
        }
      },
      "depositETH(uint256,uint256,uint256,uint256,address)": {
        "details": "Deposits tokens in the pools[poolID] pool. Mints tokens representing user share. Emits {Deposit} event.",
        "params": {
          "amountETHMin": "- Bounds the extent to which the WMATIC/TOKEN price can go up before the transaction reverts.",
          "amountToken": "- Token amount to deposit.",
          "amountTokenMin": "- Bounds the extent to which the TOKEN/WMATIC price can go up before the transaction reverts.",
          "pid": "- Current poolID. Throws revert if moveLiquidity() has been called before the transaction has been mined.",
          "recipient": "- Address which will receive the deposit."
        },
        "returns": {
          "liquidity": "- Total liquidity minted for the {recipient}.",
          "sentETH": "- Deposited ETH amount.",
          "sentToken": "- Deposited token amount."
        }
      },
      "increaseAllowance(address,uint256)": {
        "details": "Atomically increases the allowance granted to `spender` by the caller. This is an alternative to {approve} that can be used as a mitigation for problems described in {IERC20-approve}. Emits an {Approval} event indicating the updated allowance. Requirements: - `spender` cannot be the zero address."
      },
      "name()": {
        "details": "Returns the name of the token."
      },
      "poolsLength()": {
        "details": "Returns the number of pools in the strategy. "
      },
      "symbol()": {
        "details": "Returns the symbol of the token, usually a shorter version of the name."
      },
      "tokens()": {
        "details": "Returns pair of tokens currently in use. "
      },
      "totalDeposits()": {
        "details": "Returns total amount locked in the pool. ",
        "returns": {
          "totalDepositsA": "- Token A deposits.",
          "totalDepositsB": "- Token B deposits."
        }
      },
      "totalSupply()": {
        "details": "See {IERC20-totalSupply}."
      },
      "transfer(address,uint256)": {
        "details": "See {IERC20-transfer}. Requirements: - `to` cannot be the zero address. - the caller must have a balance of at least `amount`."
      },
      "transferFrom(address,address,uint256)": {
        "details": "See {IERC20-transferFrom}. Emits an {Approval} event indicating the updated allowance. This is not required by the EIP. See the note at the beginning of {ERC20}. NOTE: Does not update the allowance if the current allowance is the maximum `uint256`. Requirements: - `from` and `to` cannot be the zero address. - `from` must have a balance of at least `amount`. - the caller must have allowance for ``from``'s tokens of at least `amount`."
      },
      "userStake(address)": {
        "details": "Returns tokens staked by the {_address}. ",
        "params": {
          "_address": "- The address to check stakes for."
        },
        "returns": {
          "leftoverA": "- Token A Leftovers obligated to the {_address} after moveLiquidity() function call.",
          "leftoverB": "- Token B Leftovers obligated to the {_address} after moveLiquidity() function call.",
          "stakeA": "- Token A stake.",
          "stakeB": "- Token B stake."
        }
      },
      "withdraw(uint256,uint256,uint256,uint256,address)": {
        "details": "Withdraws tokens from the {pools[poolID]} pool and sends them to the recipient. Burns tokens representing user share. Emits {Withdraw} event.",
        "params": {
          "amountAMin": "- The minimum amount of tokenA that must be received from the pool for the transaction not to revert.",
          "amountBMin": "- The minimum amount of tokenB that must be received from the pool for the transaction not to revert.",
          "liquidity": "- Liquidity to burn from this user.",
          "pid": "- Current poolID. Throws revert if moveLiquidity() has been called before the transaction has been mined.",
          "recipient": "- Address which will receive withdrawn tokens."
        },
        "returns": {
          "amountA": "- Token A amount sent to the {recipient}.",
          "amountB": "- Token B amount sent to the {recipient}."
        }
      },
      "withdrawETH(uint256,uint256,uint256,uint256,address)": {
        "details": "Withdraws tokens from the {pools[poolID]} pool and sends them to the recipient. Burns tokens representing user share. Emits {Withdraw} event.",
        "params": {
          "amountETHMin": "- The minimum amount of tokenB that must be received from the pool for the transaction not to revert.",
          "amountTokenMin": "- The minimum amount of tokenA that must be received from the pool for the transaction not to revert.",
          "liquidity": "- Liquidity to burn from this user.",
          "pid": "- Current poolID. Throws revert if moveLiquidity() has been called before the transaction has been mined.",
          "recipient": "- Address which will receive withdrawn tokens."
        },
        "returns": {
          "amountETH": "- MATIC amount sent to the {recipient}.",
          "amountToken": "- Token amount sent to the {recipient}."
        }
      }
    },
    "stateVariables": {
      "OdosRouter": {
        "details": "Contract Variables: {OdosRouter} - Contract that executes swaps. {poolID} - Current pool the strategy uses ({pools} index). {pools} - Pools this strategy can use and move liquidity to. {reserveLP} - LP token reserve. {lastMoveInfo} - Info on last MoveLiquidity() block. {blockedLiquidty} - User's blocked LP tokens. Prevents user from stealing leftover tokens by depositing and exiting before moveLiquidity() has been called. {leftoversCollected} - Flag that prevents leftover token collection if they were already collected this MoveLiquidity() cycle. {accessManager} - Role manager contract. {factory} - The address of AutoStrategyFactory this contract was deployed by. {MINIMUM_LIQUIDITY} - Ameliorates rounding errors."
      }
    },
    "version": 1
  },
  "userdoc": {
    "kind": "user",
    "methods": {},
    "version": 1
  }
}