{
  "contractName": "UnoAssetRouterQuickswapDualV2",
  "abi": [
    {
      "anonymous": false,
      "inputs": [
        {
          "indexed": false,
          "internalType": "address",
          "name": "previousAdmin",
          "type": "address"
        },
        {
          "indexed": false,
          "internalType": "address",
          "name": "newAdmin",
          "type": "address"
        }
      ],
      "name": "AdminChanged",
      "type": "event"
    },
    {
      "anonymous": false,
      "inputs": [
        {
          "indexed": true,
          "internalType": "address",
          "name": "beacon",
          "type": "address"
        }
      ],
      "name": "BeaconUpgraded",
      "type": "event"
    },
    {
      "anonymous": false,
      "inputs": [
        {
          "indexed": true,
          "internalType": "address",
          "name": "lpPool",
          "type": "address"
        },
        {
          "indexed": true,
          "internalType": "address",
          "name": "sender",
          "type": "address"
        },
        {
          "indexed": true,
          "internalType": "address",
          "name": "recipient",
          "type": "address"
        },
        {
          "indexed": false,
          "internalType": "uint256",
          "name": "amount",
          "type": "uint256"
        }
      ],
      "name": "Deposit",
      "type": "event"
    },
    {
      "anonymous": false,
      "inputs": [
        {
          "indexed": true,
          "internalType": "address",
          "name": "lpPool",
          "type": "address"
        },
        {
          "indexed": false,
          "internalType": "uint256",
          "name": "reward",
          "type": "uint256"
        }
      ],
      "name": "Distribute",
      "type": "event"
    },
    {
      "anonymous": false,
      "inputs": [
        {
          "indexed": false,
          "internalType": "uint8",
          "name": "version",
          "type": "uint8"
        }
      ],
      "name": "Initialized",
      "type": "event"
    },
    {
      "anonymous": false,
      "inputs": [
        {
          "indexed": false,
          "internalType": "address",
          "name": "account",
          "type": "address"
        }
      ],
      "name": "Paused",
      "type": "event"
    },
    {
      "anonymous": false,
      "inputs": [
        {
          "indexed": false,
          "internalType": "address",
          "name": "account",
          "type": "address"
        }
      ],
      "name": "Unpaused",
      "type": "event"
    },
    {
      "anonymous": false,
      "inputs": [
        {
          "indexed": true,
          "internalType": "address",
          "name": "implementation",
          "type": "address"
        }
      ],
      "name": "Upgraded",
      "type": "event"
    },
    {
      "anonymous": false,
      "inputs": [
        {
          "indexed": true,
          "internalType": "address",
          "name": "lpPool",
          "type": "address"
        },
        {
          "indexed": true,
          "internalType": "address",
          "name": "sender",
          "type": "address"
        },
        {
          "indexed": true,
          "internalType": "address",
          "name": "recipient",
          "type": "address"
        },
        {
          "indexed": false,
          "internalType": "uint256",
          "name": "amount",
          "type": "uint256"
        }
      ],
      "name": "Withdraw",
      "type": "event"
    },
    {
      "inputs": [],
      "name": "accessManager",
      "outputs": [
        {
          "internalType": "contract IUnoAccessManager",
          "name": "",
          "type": "address"
        }
      ],
      "stateMutability": "view",
      "type": "function"
    },
    {
      "inputs": [],
      "name": "farmFactory",
      "outputs": [
        {
          "internalType": "contract IUnoFarmFactory",
          "name": "",
          "type": "address"
        }
      ],
      "stateMutability": "view",
      "type": "function"
    },
    {
      "inputs": [],
      "name": "paused",
      "outputs": [
        {
          "internalType": "bool",
          "name": "",
          "type": "bool"
        }
      ],
      "stateMutability": "view",
      "type": "function"
    },
    {
      "inputs": [],
      "name": "proxiableUUID",
      "outputs": [
        {
          "internalType": "bytes32",
          "name": "",
          "type": "bytes32"
        }
      ],
      "stateMutability": "view",
      "type": "function"
    },
    {
      "inputs": [
        {
          "internalType": "address",
          "name": "newImplementation",
          "type": "address"
        }
      ],
      "name": "upgradeTo",
      "outputs": [],
      "stateMutability": "nonpayable",
      "type": "function"
    },
    {
      "inputs": [
        {
          "internalType": "address",
          "name": "newImplementation",
          "type": "address"
        },
        {
          "internalType": "bytes",
          "name": "data",
          "type": "bytes"
        }
      ],
      "name": "upgradeToAndCall",
      "outputs": [],
      "stateMutability": "payable",
      "type": "function"
    },
    {
      "inputs": [],
      "name": "version",
      "outputs": [
        {
          "internalType": "uint256",
          "name": "",
          "type": "uint256"
        }
      ],
      "stateMutability": "view",
      "type": "function"
    },
    {
      "inputs": [
        {
          "internalType": "address",
          "name": "_accessManager",
          "type": "address"
        },
        {
          "internalType": "address",
          "name": "_farmFactory",
          "type": "address"
        }
      ],
      "name": "initialize",
      "outputs": [],
      "stateMutability": "nonpayable",
      "type": "function"
    },
    {
      "inputs": [
        {
          "internalType": "address",
          "name": "lpStakingPool",
          "type": "address"
        },
        {
          "internalType": "uint256",
          "name": "amountA",
          "type": "uint256"
        },
        {
          "internalType": "uint256",
          "name": "amountB",
          "type": "uint256"
        },
        {
          "internalType": "uint256",
          "name": "amountAMin",
          "type": "uint256"
        },
        {
          "internalType": "uint256",
          "name": "amountBMin",
          "type": "uint256"
        },
        {
          "internalType": "uint256",
          "name": "amountLP",
          "type": "uint256"
        },
        {
          "internalType": "address",
          "name": "recipient",
          "type": "address"
        }
      ],
      "name": "deposit",
      "outputs": [
        {
          "internalType": "uint256",
          "name": "sentA",
          "type": "uint256"
        },
        {
          "internalType": "uint256",
          "name": "sentB",
          "type": "uint256"
        },
        {
          "internalType": "uint256",
          "name": "liquidity",
          "type": "uint256"
        }
      ],
      "stateMutability": "nonpayable",
      "type": "function"
    },
    {
      "inputs": [
        {
          "internalType": "address",
          "name": "lpStakingPool",
          "type": "address"
        },
        {
          "internalType": "uint256",
          "name": "amount",
          "type": "uint256"
        },
        {
          "internalType": "uint256",
          "name": "amountAMin",
          "type": "uint256"
        },
        {
          "internalType": "uint256",
          "name": "amountBMin",
          "type": "uint256"
        },
        {
          "internalType": "bool",
          "name": "withdrawLP",
          "type": "bool"
        },
        {
          "internalType": "address",
          "name": "recipient",
          "type": "address"
        }
      ],
      "name": "withdraw",
      "outputs": [
        {
          "internalType": "uint256",
          "name": "amountA",
          "type": "uint256"
        },
        {
          "internalType": "uint256",
          "name": "amountB",
          "type": "uint256"
        }
      ],
      "stateMutability": "nonpayable",
      "type": "function"
    },
    {
      "inputs": [
        {
          "internalType": "address",
          "name": "lpStakingPool",
          "type": "address"
        },
        {
          "internalType": "address[]",
          "name": "rewardTokenAToTokenARoute",
          "type": "address[]"
        },
        {
          "internalType": "address[]",
          "name": "rewardTokenAToTokenBRoute",
          "type": "address[]"
        },
        {
          "internalType": "address[]",
          "name": "rewardTokenBToTokenARoute",
          "type": "address[]"
        },
        {
          "internalType": "address[]",
          "name": "rewardTokenBToTokenBRoute",
          "type": "address[]"
        },
        {
          "internalType": "uint256[4]",
          "name": "amountsOutMin",
          "type": "uint256[4]"
        }
      ],
      "name": "distribute",
      "outputs": [],
      "stateMutability": "nonpayable",
      "type": "function"
    },
    {
      "inputs": [
        {
          "internalType": "address",
          "name": "_address",
          "type": "address"
        },
        {
          "internalType": "address",
          "name": "lpStakingPool",
          "type": "address"
        }
      ],
      "name": "userStake",
      "outputs": [
        {
          "internalType": "uint256",
          "name": "stakeLP",
          "type": "uint256"
        },
        {
          "internalType": "uint256",
          "name": "stakeA",
          "type": "uint256"
        },
        {
          "internalType": "uint256",
          "name": "stakeB",
          "type": "uint256"
        }
      ],
      "stateMutability": "view",
      "type": "function"
    },
    {
      "inputs": [
        {
          "internalType": "address",
          "name": "lpStakingPool",
          "type": "address"
        }
      ],
      "name": "totalDeposits",
      "outputs": [
        {
          "internalType": "uint256",
          "name": "totalDepositsLP",
          "type": "uint256"
        },
        {
          "internalType": "uint256",
          "name": "totalDepositsA",
          "type": "uint256"
        },
        {
          "internalType": "uint256",
          "name": "totalDepositsB",
          "type": "uint256"
        }
      ],
      "stateMutability": "view",
      "type": "function"
    },
    {
      "inputs": [
        {
          "internalType": "address",
          "name": "lpStakingPool",
          "type": "address"
        }
      ],
      "name": "getTokens",
      "outputs": [
        {
          "internalType": "address",
          "name": "tokenA",
          "type": "address"
        },
        {
          "internalType": "address",
          "name": "tokenB",
          "type": "address"
        }
      ],
      "stateMutability": "view",
      "type": "function"
    },
    {
      "inputs": [],
      "name": "pause",
      "outputs": [],
      "stateMutability": "nonpayable",
      "type": "function"
    },
    {
      "inputs": [],
      "name": "unpause",
      "outputs": [],
      "stateMutability": "nonpayable",
      "type": "function"
    }
  ],
  "bytecode": "0x60a06040523060805234801561001457600080fd5b506080516126d461004c6000396000818161051b0152818161055b015281816108b5015281816108f50152610af901526126d46000f3fe6080604052600436106100f35760003560e01c806354fd4d501161008a5780638540af57116100595780638540af57146102bf578063e9403256146102df578063f441f73c146102ff578063fdcb60681461031f57600080fd5b806354fd4d501461023a5780635c975abb1461024f5780636d25e175146102725780638456cb59146102aa57600080fd5b8063485cc955116100c6578063485cc955146101a95780634f1ef286146101c957806351bdca3e146101dc57806352d1902d1461021757600080fd5b80631ec5aa3e146100f85780633659cfe6146101325780633f4ba83a14610154578063450efe2114610169575b600080fd5b34801561010457600080fd5b50610118610113366004611efe565b61033f565b604080519283526020830191909152015b60405180910390f35b34801561013e57600080fd5b5061015261014d366004611f65565b610510565b005b34801561016057600080fd5b506101526105f0565b34801561017557600080fd5b50610189610184366004611f65565b6106cc565b604080516001600160a01b03938416815292909116602083015201610129565b3480156101b557600080fd5b506101526101c4366004611f82565b610803565b6101526101d7366004612002565b6108aa565b3480156101e857600080fd5b506101fc6101f7366004611f82565b61097b565b60408051938452602084019290925290820152606001610129565b34801561022357600080fd5b5061022c610aec565b604051908152602001610129565b34801561024657600080fd5b5061022c600281565b34801561025b57600080fd5b5060335460ff166040519015158152602001610129565b34801561027e57600080fd5b5060c954610292906001600160a01b031681565b6040516001600160a01b039091168152602001610129565b3480156102b657600080fd5b50610152610b9f565b3480156102cb57600080fd5b506101526102da366004612164565b610c79565b3480156102eb57600080fd5b506101fc6102fa366004611f65565b610f01565b34801561030b57600080fd5b506101fc61031a36600461224b565b61106a565b34801561032b57600080fd5b5060ca54610292906001600160a01b031681565b60008061034e60335460ff1690565b156103745760405162461bcd60e51b815260040161036b906122b4565b60405180910390fd5b60c95460405163f9d9331d60e01b81526001600160a01b038a81166004830152600092169063f9d9331d90602401602060405180830381865afa1580156103bf573d6000803e3d6000fd5b505050506040513d601f19601f820116820180604052508101906103e391906122de565b90506001600160a01b03811661042d5760405162461bcd60e51b815260206004820152600f60248201526e4641524d5f4e4f545f45584953545360881b604482015260640161036b565b60405163d563468360e01b815260048101899052602481018890526044810187905285151560648201523360848201526001600160a01b0385811660a483015282169063d56346839060c40160408051808303816000875af1158015610497573d6000803e3d6000fd5b505050506040513d601f19601f820116820180604052508101906104bb91906122fb565b6040518a815291945092506001600160a01b038581169133918c16907f3115d1449a7b732c986cba18244e897a450f61e1bb8d589cd2e69e6c8924f9f79060200160405180910390a450965096945050505050565b306001600160a01b037f00000000000000000000000000000000000000000000000000000000000000001614156105595760405162461bcd60e51b815260040161036b9061231f565b7f00000000000000000000000000000000000000000000000000000000000000006001600160a01b03166105a2600080516020612658833981519152546001600160a01b031690565b6001600160a01b0316146105c85760405162461bcd60e51b815260040161036b9061236b565b6105d18161138b565b604080516000808252602082019092526105ed918391906114a6565b50565b60ca54604051632474521560e21b81527f65d7a28e3265b37a6474929f336521b332c1681b933f6cb9f3376673440d862a60048201523360248201526001600160a01b03909116906391d1485490604401602060405180830381865afa15801561065e573d6000803e3d6000fd5b505050506040513d601f19601f8201168201806040525081019061068291906123b7565b6106c25760405162461bcd60e51b815260206004820152601160248201527021a0a62622a92fa727aa2fa820aaa9a2a960791b604482015260640161036b565b6106ca611611565b565b6000806000836001600160a01b03166372f702f36040518163ffffffff1660e01b8152600401602060405180830381865afa15801561070f573d6000803e3d6000fd5b505050506040513d601f19601f8201168201806040525081019061073391906122de565b9050806001600160a01b0316630dfe16816040518163ffffffff1660e01b8152600401602060405180830381865afa158015610773573d6000803e3d6000fd5b505050506040513d601f19601f8201168201806040525081019061079791906122de565b9250806001600160a01b031663d21220a76040518163ffffffff1660e01b8152600401602060405180830381865afa1580156107d7573d6000803e3d6000fd5b505050506040513d601f19601f820116820180604052508101906107fb91906122de565b915050915091565b600061080f60016116a4565b90508015610827576000805461ff0019166101001790555b61082f611731565b60ca80546001600160a01b038086166001600160a01b03199283161790925560c980549285169290911691909117905580156108a5576000805461ff0019169055604051600181527f7f26b83ff96e1f2b6a682f133852f6798a09c465da95921460cefb38474024989060200160405180910390a15b505050565b306001600160a01b037f00000000000000000000000000000000000000000000000000000000000000001614156108f35760405162461bcd60e51b815260040161036b9061231f565b7f00000000000000000000000000000000000000000000000000000000000000006001600160a01b031661093c600080516020612658833981519152546001600160a01b031690565b6001600160a01b0316146109625760405162461bcd60e51b815260040161036b9061236b565b61096b8261138b565b610977828260016114a6565b5050565b60c95460405163f9d9331d60e01b81526001600160a01b038381166004830152600092839283928392169063f9d9331d90602401602060405180830381865afa1580156109cc573d6000803e3d6000fd5b505050506040513d601f19601f820116820180604052508101906109f091906122de565b90506001600160a01b03811615610ae457604051630103c92b60e01b81526001600160a01b038781166004830152821690630103c92b90602401602060405180830381865afa158015610a47573d6000803e3d6000fd5b505050506040513d601f19601f82011682018060405250810190610a6b91906123d4565b93506000816001600160a01b031663452ed4f16040518163ffffffff1660e01b8152600401602060405180830381865afa158015610aad573d6000803e3d6000fd5b505050506040513d601f19601f82011682018060405250810190610ad191906122de565b9050610add8186611760565b9094509250505b509250925092565b6000306001600160a01b037f00000000000000000000000000000000000000000000000000000000000000001614610b8c5760405162461bcd60e51b815260206004820152603860248201527f555550535570677261646561626c653a206d757374206e6f742062652063616c60448201527f6c6564207468726f7567682064656c656761746563616c6c0000000000000000606482015260840161036b565b5060008051602061265883398151915290565b60ca54604051632474521560e21b81527f65d7a28e3265b37a6474929f336521b332c1681b933f6cb9f3376673440d862a60048201523360248201526001600160a01b03909116906391d1485490604401602060405180830381865afa158015610c0d573d6000803e3d6000fd5b505050506040513d601f19601f82011682018060405250810190610c3191906123b7565b610c715760405162461bcd60e51b815260206004820152601160248201527021a0a62622a92fa727aa2fa820aaa9a2a960791b604482015260640161036b565b6106ca61199b565b60335460ff1615610c9c5760405162461bcd60e51b815260040161036b906122b4565b60ca54604051632474521560e21b81527ffbd454f36a7e1a388bd6fc3ab10d434aa4578f811acbbcf33afb1c697486313c60048201523360248201526001600160a01b03909116906391d1485490604401602060405180830381865afa158015610d0a573d6000803e3d6000fd5b505050506040513d601f19601f82011682018060405250810190610d2e91906123b7565b610d735760405162461bcd60e51b815260206004820152601660248201527521a0a62622a92fa727aa2fa224a9aa2924a12aaa27a960511b604482015260640161036b565b60c95460405163f9d9331d60e01b81526001600160a01b038c81166004830152600092169063f9d9331d90602401602060405180830381865afa158015610dbe573d6000803e3d6000fd5b505050506040513d601f19601f82011682018060405250810190610de291906122de565b90506001600160a01b038116610e2c5760405162461bcd60e51b815260206004820152600f60248201526e4641524d5f4e4f545f45584953545360881b604482015260640161036b565b6040516384b9658560e01b81526000906001600160a01b038316906384b9658590610e6b908e908e908e908e908e908e908e908e908e90600401612436565b6020604051808303816000875af1158015610e8a573d6000803e3d6000fd5b505050506040513d601f19601f82011682018060405250810190610eae91906123d4565b90508b6001600160a01b03167fc1d32ad5cca423e7dda2123dbf8c482f8e77d00b631c06e903a47f2cec1334df82604051610eeb91815260200190565b60405180910390a2505050505050505050505050565b60c95460405163f9d9331d60e01b81526001600160a01b038381166004830152600092839283928392169063f9d9331d90602401602060405180830381865afa158015610f52573d6000803e3d6000fd5b505050506040513d601f19601f82011682018060405250810190610f7691906122de565b90506001600160a01b0381161561106257806001600160a01b031663168a48226040518163ffffffff1660e01b8152600401602060405180830381865afa158015610fc5573d6000803e3d6000fd5b505050506040513d601f19601f82011682018060405250810190610fe991906123d4565b93506000816001600160a01b031663452ed4f16040518163ffffffff1660e01b8152600401602060405180830381865afa15801561102b573d6000803e3d6000fd5b505050506040513d601f19601f8201168201806040525081019061104f91906122de565b905061105b8186611760565b9094509250505b509193909250565b600080600061107b60335460ff1690565b156110985760405162461bcd60e51b815260040161036b906122b4565b60c95460405163f9d9331d60e01b81526001600160a01b038c81166004830152600092169063f9d9331d90602401602060405180830381865afa1580156110e3573d6000803e3d6000fd5b505050506040513d601f19601f8201168201806040525081019061110791906122de565b90506001600160a01b0381166111895760c954604051621849e360e61b81526001600160a01b038d811660048301529091169063061278c0906024016020604051808303816000875af1158015611162573d6000803e3d6000fd5b505050506040513d601f19601f8201168201806040525081019061118691906122de565b90505b89156112085761120833828c846001600160a01b0316630fc63d106040518163ffffffff1660e01b8152600401602060405180830381865afa1580156111d3573d6000803e3d6000fd5b505050506040513d601f19601f820116820180604052508101906111f791906122de565b6001600160a01b03169291906119f3565b88156112525761125233828b846001600160a01b0316635f64b55b6040518163ffffffff1660e01b8152600401602060405180830381865afa1580156111d3573d6000803e3d6000fd5b851561129c5761129c338288846001600160a01b031663452ed4f16040518163ffffffff1660e01b8152600401602060405180830381865afa1580156111d3573d6000803e3d6000fd5b604051630b333b4560e11b8152600481018b9052602481018a90526044810189905260648101889052608481018790523360a48201526001600160a01b0386811660c4830152821690631666768a9060e4016060604051808303816000875af115801561130d573d6000803e3d6000fd5b505050506040513d601f19601f8201168201806040525081019061133191906124c6565b60405181815292965090945092506001600160a01b038681169133918e16907f7cfff908a4b583f36430b25d75964c458d8ede8a99bd61be750e97ee1b2f3a969060200160405180910390a4509750975097945050505050565b60ca5460408051631d6c8e3f60e21b815290516001600160a01b03909216916391d148549183916375b238fc916004808201926020929091908290030181865afa1580156113dd573d6000803e3d6000fd5b505050506040513d601f19601f8201168201806040525081019061140191906123d4565b6040516001600160e01b031960e084901b1681526004810191909152336024820152604401602060405180830381865afa158015611443573d6000803e3d6000fd5b505050506040513d601f19601f8201168201806040525081019061146791906123b7565b6105ed5760405162461bcd60e51b815260206004820152601060248201526f21a0a62622a92fa727aa2fa0a226a4a760811b604482015260640161036b565b7f4910fdfa16fed3260ed0e7147f7cc6da11a60208b5b9406d12a635614ffd91435460ff16156114d9576108a583611a53565b826001600160a01b03166352d1902d6040518163ffffffff1660e01b8152600401602060405180830381865afa925050508015611533575060408051601f3d908101601f19168201909252611530918101906123d4565b60015b6115965760405162461bcd60e51b815260206004820152602e60248201527f45524331393637557067726164653a206e657720696d706c656d656e7461746960448201526d6f6e206973206e6f74205555505360901b606482015260840161036b565b60008051602061265883398151915281146116055760405162461bcd60e51b815260206004820152602960248201527f45524331393637557067726164653a20756e737570706f727465642070726f786044820152681a58589b195555525160ba1b606482015260840161036b565b506108a5838383611aef565b60335460ff1661165a5760405162461bcd60e51b815260206004820152601460248201527314185d5cd8589b194e881b9bdd081c185d5cd95960621b604482015260640161036b565b6033805460ff191690557f5db9ee0a495bf2e6ff9c91a7834c1ba4fdd244a5e8aa4e537bd38aeae4b073aa335b6040516001600160a01b03909116815260200160405180910390a1565b60008054610100900460ff16156116eb578160ff1660011480156116c75750303b155b6116e35760405162461bcd60e51b815260040161036b906124f4565b506000919050565b60005460ff8084169116106117125760405162461bcd60e51b815260040161036b906124f4565b506000805460ff191660ff92909216919091179055600190565b919050565b600054610100900460ff166117585760405162461bcd60e51b815260040161036b90612542565b6106ca611b14565b6000806000846001600160a01b03166318160ddd6040518163ffffffff1660e01b8152600401602060405180830381865afa1580156117a3573d6000803e3d6000fd5b505050506040513d601f19601f820116820180604052508101906117c791906123d4565b905080856001600160a01b0316630dfe16816040518163ffffffff1660e01b8152600401602060405180830381865afa158015611808573d6000803e3d6000fd5b505050506040513d601f19601f8201168201806040525081019061182c91906122de565b6040516370a0823160e01b81526001600160a01b03888116600483015291909116906370a0823190602401602060405180830381865afa158015611874573d6000803e3d6000fd5b505050506040513d601f19601f8201168201806040525081019061189891906123d4565b6118a2908661258d565b6118ac91906125ba565b925080856001600160a01b031663d21220a76040518163ffffffff1660e01b8152600401602060405180830381865afa1580156118ed573d6000803e3d6000fd5b505050506040513d601f19601f8201168201806040525081019061191191906122de565b6040516370a0823160e01b81526001600160a01b03888116600483015291909116906370a0823190602401602060405180830381865afa158015611959573d6000803e3d6000fd5b505050506040513d601f19601f8201168201806040525081019061197d91906123d4565b611987908661258d565b61199191906125ba565b9150509250929050565b60335460ff16156119be5760405162461bcd60e51b815260040161036b906122b4565b6033805460ff191660011790557f62e78cea01bee320cd4e420270b5ea74000d11b0c9f74754ebdbfc544b05a2586116873390565b604080516001600160a01b0385811660248301528416604482015260648082018490528251808303909101815260849091019091526020810180516001600160e01b03166323b872dd60e01b179052611a4d908590611b47565b50505050565b6001600160a01b0381163b611ac05760405162461bcd60e51b815260206004820152602d60248201527f455243313936373a206e657720696d706c656d656e746174696f6e206973206e60448201526c1bdd08184818dbdb9d1c9858dd609a1b606482015260840161036b565b60008051602061265883398151915280546001600160a01b0319166001600160a01b0392909216919091179055565b611af883611c19565b600082511180611b055750805b156108a557611a4d8383611c59565b600054610100900460ff16611b3b5760405162461bcd60e51b815260040161036b90612542565b6033805460ff19169055565b6000611b9c826040518060400160405280602081526020017f5361666545524332303a206c6f772d6c6576656c2063616c6c206661696c6564815250856001600160a01b0316611d4d9092919063ffffffff16565b8051909150156108a55780806020019051810190611bba91906123b7565b6108a55760405162461bcd60e51b815260206004820152602a60248201527f5361666545524332303a204552433230206f7065726174696f6e20646964206e6044820152691bdd081cdd58d8d9595960b21b606482015260840161036b565b611c2281611a53565b6040516001600160a01b038216907fbc7cd75a20ee27fd9adebab32041f755214dbc6bffa90cc0225b39da2e5c2d3b90600090a250565b60606001600160a01b0383163b611cc15760405162461bcd60e51b815260206004820152602660248201527f416464726573733a2064656c65676174652063616c6c20746f206e6f6e2d636f6044820152651b9d1c9858dd60d21b606482015260840161036b565b600080846001600160a01b031684604051611cdc9190612608565b600060405180830381855af49150503d8060008114611d17576040519150601f19603f3d011682016040523d82523d6000602084013e611d1c565b606091505b5091509150611d44828260405180606001604052806027815260200161267860279139611d66565b95945050505050565b6060611d5c8484600085611d9f565b90505b9392505050565b60608315611d75575081611d5f565b825115611d855782518084602001fd5b8160405162461bcd60e51b815260040161036b9190612624565b606082471015611e005760405162461bcd60e51b815260206004820152602660248201527f416464726573733a20696e73756666696369656e742062616c616e636520666f6044820152651c8818d85b1b60d21b606482015260840161036b565b6001600160a01b0385163b611e575760405162461bcd60e51b815260206004820152601d60248201527f416464726573733a2063616c6c20746f206e6f6e2d636f6e7472616374000000604482015260640161036b565b600080866001600160a01b03168587604051611e739190612608565b60006040518083038185875af1925050503d8060008114611eb0576040519150601f19603f3d011682016040523d82523d6000602084013e611eb5565b606091505b5091509150611ec5828286611d66565b979650505050505050565b6001600160a01b03811681146105ed57600080fd5b803561172c81611ed0565b80151581146105ed57600080fd5b60008060008060008060c08789031215611f1757600080fd5b8635611f2281611ed0565b95506020870135945060408701359350606087013592506080870135611f4781611ef0565b915060a0870135611f5781611ed0565b809150509295509295509295565b600060208284031215611f7757600080fd5b8135611d5f81611ed0565b60008060408385031215611f9557600080fd5b8235611fa081611ed0565b91506020830135611fb081611ed0565b809150509250929050565b634e487b7160e01b600052604160045260246000fd5b604051601f8201601f1916810167ffffffffffffffff81118282101715611ffa57611ffa611fbb565b604052919050565b6000806040838503121561201557600080fd5b823561202081611ed0565b915060208381013567ffffffffffffffff8082111561203e57600080fd5b818601915086601f83011261205257600080fd5b81358181111561206457612064611fbb565b612076601f8201601f19168501611fd1565b9150808252878482850101111561208c57600080fd5b80848401858401376000848284010152508093505050509250929050565b60008083601f8401126120bc57600080fd5b50813567ffffffffffffffff8111156120d457600080fd5b6020830191508360208260051b85010111156120ef57600080fd5b9250929050565b600082601f83011261210757600080fd5b6040516080810181811067ffffffffffffffff8211171561212a5761212a611fbb565b60405280608084018581111561213f57600080fd5b845b81811015612159578035835260209283019201612141565b509195945050505050565b6000806000806000806000806000806101208b8d03121561218457600080fd5b61218d8b611ee5565b995060208b013567ffffffffffffffff808211156121aa57600080fd5b6121b68e838f016120aa565b909b50995060408d01359150808211156121cf57600080fd5b6121db8e838f016120aa565b909950975060608d01359150808211156121f457600080fd5b6122008e838f016120aa565b909750955060808d013591508082111561221957600080fd5b506122268d828e016120aa565b909450925061223a90508c60a08d016120f6565b90509295989b9194979a5092959850565b600080600080600080600060e0888a03121561226657600080fd5b873561227181611ed0565b96506020880135955060408801359450606088013593506080880135925060a0880135915060c08801356122a481611ed0565b8091505092959891949750929550565b60208082526010908201526f14185d5cd8589b194e881c185d5cd95960821b604082015260600190565b6000602082840312156122f057600080fd5b8151611d5f81611ed0565b6000806040838503121561230e57600080fd5b505080516020909101519092909150565b6020808252602c908201527f46756e6374696f6e206d7573742062652063616c6c6564207468726f7567682060408201526b19195b1959d85d1958d85b1b60a21b606082015260800190565b6020808252602c908201527f46756e6374696f6e206d7573742062652063616c6c6564207468726f7567682060408201526b6163746976652070726f787960a01b606082015260800190565b6000602082840312156123c957600080fd5b8151611d5f81611ef0565b6000602082840312156123e657600080fd5b5051919050565b8183526000602080850194508260005b8581101561242b57813561241081611ed0565b6001600160a01b0316875295820195908201906001016123fd565b509495945050505050565b600061010080835261244b8184018c8e6123ed565b9050602083820381850152612461828b8d6123ed565b9150838203604085015261247682898b6123ed565b9150838203606085015261248b8287896123ed565b92506080840191508460005b60048110156124b457815184529282019290820190600101612497565b505050509a9950505050505050505050565b6000806000606084860312156124db57600080fd5b8351925060208401519150604084015190509250925092565b6020808252602e908201527f496e697469616c697a61626c653a20636f6e747261637420697320616c72656160408201526d191e481a5b9a5d1a585b1a5e995960921b606082015260800190565b6020808252602b908201527f496e697469616c697a61626c653a20636f6e7472616374206973206e6f74206960408201526a6e697469616c697a696e6760a81b606082015260800190565b60008160001904831182151516156125b557634e487b7160e01b600052601160045260246000fd5b500290565b6000826125d757634e487b7160e01b600052601260045260246000fd5b500490565b60005b838110156125f75781810151838201526020016125df565b83811115611a4d5750506000910152565b6000825161261a8184602087016125dc565b9190910192915050565b60208152600082518060208401526126438160408501602087016125dc565b601f01601f1916919091016040019291505056fe360894a13ba1a3210667c828492db98dca3e2076cc3735a920a3ca505d382bbc416464726573733a206c6f772d6c6576656c2064656c65676174652063616c6c206661696c6564a2646970667358221220f87b8c933c93e4ffe587e0822162fd8418ae33af591058c0f9a9e80eee35501f64736f6c634300080a0033",
  "immutableReferences": {
    "561": [
      {
        "length": 32,
        "start": 1307
      },
      {
        "length": 32,
        "start": 1371
      },
      {
        "length": 32,
        "start": 2229
      },
      {
        "length": 32,
        "start": 2293
      },
      {
        "length": 32,
        "start": 2809
      }
    ]
  },
  "source": "// SPDX-License-Identifier: MIT\npragma solidity 0.8.10;\n\nimport {IUnoFarmQuickswapDual as Farm} from '../apps/quickswapDual/interfaces/IUnoFarmQuickswapDual.sol'; \nimport '../interfaces/IUnoFarmFactory.sol';\nimport '../interfaces/IUnoAccessManager.sol'; \nimport '../interfaces/IUniswapV2Pair.sol';\nimport '../interfaces/IStakingDualRewards.sol';\nimport '@openzeppelin/contracts-upgradeable/token/ERC20/IERC20Upgradeable.sol';\nimport '@openzeppelin/contracts-upgradeable/token/ERC20/utils/SafeERC20Upgradeable.sol';\nimport '@openzeppelin/contracts-upgradeable/proxy/utils/Initializable.sol';\nimport '@openzeppelin/contracts-upgradeable/security/PausableUpgradeable.sol';\nimport '@openzeppelin/contracts-upgradeable/proxy/utils/UUPSUpgradeable.sol';\n\ncontract UnoAssetRouterQuickswapDualV2 is Initializable, PausableUpgradeable, UUPSUpgradeable {\n    using SafeERC20Upgradeable for IERC20Upgradeable;\n\n    /**\n     * @dev Contract Variables:\n     * farmFactory - The contract that deploys new Farms and links them to {lpStakingPool}s.\n     * accessManager - Role manager contract.\n     */\n    IUnoFarmFactory public farmFactory;\n    IUnoAccessManager public accessManager;\n    bytes32 private constant DISTRIBUTOR_ROLE = keccak256('DISTRIBUTOR_ROLE');\n    bytes32 private constant PAUSER_ROLE = keccak256('PAUSER_ROLE');\n\n    uint256 public constant version = 2;\n\n    event Deposit(address indexed lpPool, address indexed sender, address indexed recipient, uint256 amount);\n    event Withdraw(address indexed lpPool, address indexed sender, address indexed recipient, uint256 amount);\n    event Distribute(address indexed lpPool, uint256 reward);\n\n    modifier onlyDistributor(){\n        require(accessManager.hasRole(DISTRIBUTOR_ROLE, msg.sender), 'CALLER_NOT_DISTRIBUTOR');\n        _;\n    }\n    modifier onlyPauser(){\n        require(accessManager.hasRole(PAUSER_ROLE, msg.sender), 'CALLER_NOT_PAUSER');\n        _;\n    }\n    modifier onlyAdmin(){\n        require(accessManager.hasRole(accessManager.ADMIN_ROLE(), msg.sender), 'CALLER_NOT_ADMIN');\n        _;\n    }\n\n    // ============ Methods ============\n\n    function initialize(address _accessManager, address _farmFactory) external initializer{\n        __Pausable_init();\n        accessManager = IUnoAccessManager(_accessManager);\n        farmFactory = IUnoFarmFactory(_farmFactory);\n    }\n\n    /**\n     * @dev Deposits tokens in the given pool. Creates new Farm contract if there isn't one deployed for the {lpStakingPool} and deposits tokens in it. Emits a {Deposit} event.\n     * @param lpStakingPool - Address of the pool to deposit tokens in.\n     * @param amountA  - Token A amount to deposit.\n     * @param amountB -  Token B amount to deposit.\n     * @param amountAMin - Bounds the extent to which the B/A price can go up before the transaction reverts.\n     * @param amountBMin - Bounds the extent to which the A/B price can go up before the transaction reverts.\n     * @param amountLP - Additional LP Token amount to deposit.\n     * @param recipient - Address which will recieve the deposit.\n     \n     * @return sentA - Token A amount sent to the farm.\n     * @return sentB - Token B amount sent to the farm.\n     * @return liquidity - Total liquidity sent to the farm (in lpTokens).\n     */\n    function deposit(address lpStakingPool, uint256 amountA, uint256 amountB, uint256 amountAMin, uint256 amountBMin, uint256 amountLP, address recipient) external whenNotPaused returns(uint256 sentA, uint256 sentB, uint256 liquidity){\n        Farm farm = Farm(farmFactory.Farms(lpStakingPool));\n        if(farm == Farm(address(0))){\n            farm = Farm(farmFactory.createFarm(lpStakingPool));\n        }\n\n        if(amountA > 0){\n            IERC20Upgradeable(farm.tokenA()).safeTransferFrom(msg.sender, address(farm), amountA);\n        }\n        if(amountB > 0){\n            IERC20Upgradeable(farm.tokenB()).safeTransferFrom(msg.sender, address(farm), amountB);\n        }\n        if(amountLP > 0){\n            IERC20Upgradeable(farm.lpPair()).safeTransferFrom(msg.sender, address(farm), amountLP);\n        }\n        \n        (sentA, sentB, liquidity) = farm.deposit(amountA, amountB, amountAMin, amountBMin, amountLP, msg.sender, recipient);\n        emit Deposit(lpStakingPool, msg.sender, recipient, liquidity); \n    }\n\n    /** \n     * @dev Withdraws tokens from the given pool. Emits a {Withdraw} event.\n     * @param lpStakingPool - LP pool to withdraw from.\n     * @param amount - LP amount to withdraw. \n     * @param amountAMin - The minimum amount of tokenA that must be received for the transaction not to revert.\n     * @param amountBMin - The minimum amount of tokenB that must be received for the transaction not to revert.\n     * @param withdrawLP - True: Withdraw in LP tokens, False: Withdraw in normal tokens.\n     * @param recipient - The address which will recieve tokens.\n\n     * @return amountA - Token A amount sent to the {recipient}, 0 if withdrawLP == false.\n     * @return amountB - Token B amount sent to the {recipient}, 0 if withdrawLP == false.\n     */ \n    function withdraw(address lpStakingPool, uint256 amount, uint256 amountAMin, uint256 amountBMin, bool withdrawLP, address recipient) external whenNotPaused returns(uint256 amountA, uint256 amountB){\n        Farm farm = Farm(farmFactory.Farms(lpStakingPool));\n        require(farm != Farm(address(0)),'FARM_NOT_EXISTS');\n        \n        (amountA, amountB) = farm.withdraw(amount, amountAMin, amountBMin, withdrawLP, msg.sender, recipient); \n        emit Withdraw(lpStakingPool, msg.sender, recipient, amount);  \n    }\n\n     /**\n     * @dev Distributes tokens between users.\n     * @param lpStakingPool - LP pool to distribute tokens in.\n     * @param rewardTokenAToTokenARoute An array of token addresses.\n     * @param rewardTokenAToTokenBRoute An array of token addresses.\n     * @param rewardTokenBToTokenARoute An array of token addresses.\n     * @param rewardTokenBToTokenBRoute An array of token addresses.\n     * @param amountsOutMin The minimum amount of output tokens that must be received for the transaction not to revert.\n     *\n     * Note: This function can only be called by the distributor.\n     */ \n    function distribute(\n        address lpStakingPool,\n        address[] calldata rewardTokenAToTokenARoute,\n        address[] calldata rewardTokenAToTokenBRoute,\n        address[] calldata rewardTokenBToTokenARoute,\n        address[] calldata rewardTokenBToTokenBRoute, \n        uint256[4] memory amountsOutMin\n    ) external whenNotPaused onlyDistributor {\n        Farm farm = Farm(farmFactory.Farms(lpStakingPool));\n        require(farm != Farm(address(0)), 'FARM_NOT_EXISTS');\n\n        uint256 reward = farm.distribute(rewardTokenAToTokenARoute, rewardTokenAToTokenBRoute, rewardTokenBToTokenARoute, rewardTokenBToTokenBRoute, amountsOutMin);\n        emit Distribute(lpStakingPool, reward);\n    }\n\n    /**\n     * @dev Returns tokens staked by the {_address} for the given {lpStakingPool}.\n     * @param _address - The address to check stakes for.\n     * @param lpStakingPool - LP pool to check stakes in.\n\n     * @return stakeLP - Total user stake(in LP tokens).\n     * @return stakeA - Token A stake.\n     * @return stakeB - Token B stake.\n     */\n    function userStake(address _address, address lpStakingPool) external view returns (uint256 stakeLP, uint256 stakeA, uint256 stakeB) {\n        Farm farm = Farm(farmFactory.Farms(lpStakingPool));\n        if (farm != Farm(address(0))) {\n            stakeLP = farm.userBalance(_address);\n            address lpPair = farm.lpPair();\n            (stakeA, stakeB) = getTokenStake(lpPair, stakeLP);\n        }\n    }\n\n    /**\n     * @dev Returns total amount locked in the pool. Doesn't take pending rewards into account.\n     * @param lpStakingPool - LP pool to check total deposits in.\n\n     * @return totalDepositsLP - Total deposits (in LP tokens).\n     * @return totalDepositsA - Token A deposits.\n     * @return totalDepositsB - Token B deposits.\n     */  \n    function totalDeposits(address lpStakingPool) external view returns (uint256 totalDepositsLP, uint256 totalDepositsA, uint256 totalDepositsB) {\n        Farm farm = Farm(farmFactory.Farms(lpStakingPool));\n        if (farm != Farm(address(0))) {\n            totalDepositsLP = farm.getTotalDeposits();\n            address lpPair = farm.lpPair();\n            (totalDepositsA, totalDepositsB) = getTokenStake(lpPair, totalDepositsLP);\n        }\n    }\n\n    /**\n     * @dev Returns addresses of pair of tokens in {lpStakingPool}.\n     * @param lpStakingPool - LP pool to check tokens in.\n\n     * @return tokenA - Token A address.\n     * @return tokenB - Token B address.\n     */  \n    function getTokens(address lpStakingPool) external view returns(address tokenA, address tokenB){\n        IUniswapV2Pair stakingToken = IUniswapV2Pair(address(IStakingDualRewards(lpStakingPool).stakingToken()));\n        tokenA = stakingToken.token0();\n        tokenB = stakingToken.token1();\n    }\n\n    /**\n     * @dev Converts LP tokens to normal tokens, value(amountA) == value(amountB) == 0.5*amountLP\n     * @param lpPair - LP pair for conversion.\n     * @param amountLP - Amount of LP tokens to convert.\n\n     * @return amountA - Token A amount.\n     * @return amountB - Token B amount.\n     */ \n    function getTokenStake(address lpPair, uint256 amountLP) internal view returns (uint256 amountA, uint256 amountB) {\n        uint256 totalSupply = IERC20Upgradeable(lpPair).totalSupply();\n        amountA = amountLP * IERC20Upgradeable(IUniswapV2Pair(lpPair).token0()).balanceOf(lpPair) / totalSupply;\n        amountB = amountLP * IERC20Upgradeable(IUniswapV2Pair(lpPair).token1()).balanceOf(lpPair) / totalSupply;\n    }\n \n    function pause() external onlyPauser {\n        _pause();\n    }\n\n    function unpause() external onlyPauser {\n        _unpause();\n    }\n\n    function _authorizeUpgrade(address) internal override onlyAdmin {\n\n    }\n}\n",
  "sourcePath": "/Users/antondementyev/Desktop/work-mycelium/uno/uno-contracts/contracts/test/UnoAssetRouterQuickswapDualV2.sol",
  "compiler": {
    "name": "solc",
    "version": "0.8.10+commit.fc410830.Emscripten.clang"
  },
  "schemaVersion": "3.4.7",
  "updatedAt": "2022-08-06T09:32:58.990Z",
  "devdoc": {
    "kind": "dev",
    "methods": {
      "deposit(address,uint256,uint256,uint256,uint256,uint256,address)": {
        "details": "Deposits tokens in the given pool. Creates new Farm contract if there isn't one deployed for the {lpStakingPool} and deposits tokens in it. Emits a {Deposit} event.",
        "params": {
          "amountA": "- Token A amount to deposit.",
          "amountAMin": "- Bounds the extent to which the B/A price can go up before the transaction reverts.",
          "amountB": "-  Token B amount to deposit.",
          "amountBMin": "- Bounds the extent to which the A/B price can go up before the transaction reverts.",
          "amountLP": "- Additional LP Token amount to deposit.",
          "lpStakingPool": "- Address of the pool to deposit tokens in.",
          "recipient": "- Address which will recieve the deposit."
        },
        "returns": {
          "liquidity": "- Total liquidity sent to the farm (in lpTokens).",
          "sentA": "- Token A amount sent to the farm.",
          "sentB": "- Token B amount sent to the farm."
        }
      },
      "distribute(address,address[],address[],address[],address[],uint256[4])": {
        "details": "Distributes tokens between users.",
        "params": {
          "amountsOutMin": "The minimum amount of output tokens that must be received for the transaction not to revert. Note: This function can only be called by the distributor.",
          "lpStakingPool": "- LP pool to distribute tokens in.",
          "rewardTokenAToTokenARoute": "An array of token addresses.",
          "rewardTokenAToTokenBRoute": "An array of token addresses.",
          "rewardTokenBToTokenARoute": "An array of token addresses.",
          "rewardTokenBToTokenBRoute": "An array of token addresses."
        }
      },
      "getTokens(address)": {
        "details": "Returns addresses of pair of tokens in {lpStakingPool}.",
        "params": {
          "lpStakingPool": "- LP pool to check tokens in."
        },
        "returns": {
          "tokenA": "- Token A address.",
          "tokenB": "- Token B address."
        }
      },
      "paused()": {
        "details": "Returns true if the contract is paused, and false otherwise."
      },
      "proxiableUUID()": {
        "details": "Implementation of the ERC1822 {proxiableUUID} function. This returns the storage slot used by the implementation. It is used to validate that the this implementation remains valid after an upgrade. IMPORTANT: A proxy pointing at a proxiable contract should not be considered proxiable itself, because this risks bricking a proxy that upgrades to it, by delegating to itself until out of gas. Thus it is critical that this function revert if invoked through a proxy. This is guaranteed by the `notDelegated` modifier."
      },
      "totalDeposits(address)": {
        "details": "Returns total amount locked in the pool. Doesn't take pending rewards into account.",
        "params": {
          "lpStakingPool": "- LP pool to check total deposits in."
        },
        "returns": {
          "totalDepositsA": "- Token A deposits.",
          "totalDepositsB": "- Token B deposits.",
          "totalDepositsLP": "- Total deposits (in LP tokens)."
        }
      },
      "upgradeTo(address)": {
        "details": "Upgrade the implementation of the proxy to `newImplementation`. Calls {_authorizeUpgrade}. Emits an {Upgraded} event."
      },
      "upgradeToAndCall(address,bytes)": {
        "details": "Upgrade the implementation of the proxy to `newImplementation`, and subsequently execute the function call encoded in `data`. Calls {_authorizeUpgrade}. Emits an {Upgraded} event."
      },
      "userStake(address,address)": {
        "details": "Returns tokens staked by the {_address} for the given {lpStakingPool}.",
        "params": {
          "_address": "- The address to check stakes for.",
          "lpStakingPool": "- LP pool to check stakes in."
        },
        "returns": {
          "stakeA": "- Token A stake.",
          "stakeB": "- Token B stake.",
          "stakeLP": "- Total user stake(in LP tokens)."
        }
      },
      "withdraw(address,uint256,uint256,uint256,bool,address)": {
        "details": "Withdraws tokens from the given pool. Emits a {Withdraw} event.",
        "params": {
          "amount": "- LP amount to withdraw. ",
          "amountAMin": "- The minimum amount of tokenA that must be received for the transaction not to revert.",
          "amountBMin": "- The minimum amount of tokenB that must be received for the transaction not to revert.",
          "lpStakingPool": "- LP pool to withdraw from.",
          "recipient": "- The address which will recieve tokens.",
          "withdrawLP": "- True: Withdraw in LP tokens, False: Withdraw in normal tokens."
        },
        "returns": {
          "amountA": "- Token A amount sent to the {recipient}, 0 if withdrawLP == false.",
          "amountB": "- Token B amount sent to the {recipient}, 0 if withdrawLP == false."
        }
      }
    },
    "stateVariables": {
      "farmFactory": {
        "details": "Contract Variables: farmFactory - The contract that deploys new Farms and links them to {lpStakingPool}s. accessManager - Role manager contract."
      }
    },
    "version": 1
  },
  "userdoc": {
    "kind": "user",
    "methods": {},
    "version": 1
  }
}