{
  "contractName": "UnoAssetRouterBalancer",
  "abi": [
    {
      "inputs": [],
      "stateMutability": "nonpayable",
      "type": "constructor"
    },
    {
      "anonymous": false,
      "inputs": [
        {
          "indexed": false,
          "internalType": "address",
          "name": "previousAdmin",
          "type": "address"
        },
        {
          "indexed": false,
          "internalType": "address",
          "name": "newAdmin",
          "type": "address"
        }
      ],
      "name": "AdminChanged",
      "type": "event"
    },
    {
      "anonymous": false,
      "inputs": [
        {
          "indexed": true,
          "internalType": "address",
          "name": "beacon",
          "type": "address"
        }
      ],
      "name": "BeaconUpgraded",
      "type": "event"
    },
    {
      "anonymous": false,
      "inputs": [
        {
          "indexed": true,
          "internalType": "address",
          "name": "lpPool",
          "type": "address"
        },
        {
          "indexed": true,
          "internalType": "address",
          "name": "sender",
          "type": "address"
        },
        {
          "indexed": true,
          "internalType": "address",
          "name": "recipient",
          "type": "address"
        },
        {
          "indexed": false,
          "internalType": "uint256",
          "name": "amount",
          "type": "uint256"
        }
      ],
      "name": "Deposit",
      "type": "event"
    },
    {
      "anonymous": false,
      "inputs": [
        {
          "indexed": true,
          "internalType": "address",
          "name": "lpPool",
          "type": "address"
        },
        {
          "indexed": false,
          "internalType": "uint256",
          "name": "reward",
          "type": "uint256"
        }
      ],
      "name": "Distribute",
      "type": "event"
    },
    {
      "anonymous": false,
      "inputs": [
        {
          "indexed": false,
          "internalType": "uint256",
          "name": "previousFee",
          "type": "uint256"
        },
        {
          "indexed": false,
          "internalType": "uint256",
          "name": "newFee",
          "type": "uint256"
        }
      ],
      "name": "FeeChanged",
      "type": "event"
    },
    {
      "anonymous": false,
      "inputs": [
        {
          "indexed": false,
          "internalType": "uint8",
          "name": "version",
          "type": "uint8"
        }
      ],
      "name": "Initialized",
      "type": "event"
    },
    {
      "anonymous": false,
      "inputs": [
        {
          "indexed": false,
          "internalType": "address",
          "name": "account",
          "type": "address"
        }
      ],
      "name": "Paused",
      "type": "event"
    },
    {
      "anonymous": false,
      "inputs": [
        {
          "indexed": false,
          "internalType": "address",
          "name": "account",
          "type": "address"
        }
      ],
      "name": "Unpaused",
      "type": "event"
    },
    {
      "anonymous": false,
      "inputs": [
        {
          "indexed": true,
          "internalType": "address",
          "name": "implementation",
          "type": "address"
        }
      ],
      "name": "Upgraded",
      "type": "event"
    },
    {
      "anonymous": false,
      "inputs": [
        {
          "indexed": true,
          "internalType": "address",
          "name": "lpPool",
          "type": "address"
        },
        {
          "indexed": true,
          "internalType": "address",
          "name": "sender",
          "type": "address"
        },
        {
          "indexed": true,
          "internalType": "address",
          "name": "recipient",
          "type": "address"
        },
        {
          "indexed": false,
          "internalType": "uint256",
          "name": "amount",
          "type": "uint256"
        }
      ],
      "name": "Withdraw",
      "type": "event"
    },
    {
      "inputs": [],
      "name": "WMATIC",
      "outputs": [
        {
          "internalType": "address",
          "name": "",
          "type": "address"
        }
      ],
      "stateMutability": "view",
      "type": "function"
    },
    {
      "inputs": [],
      "name": "accessManager",
      "outputs": [
        {
          "internalType": "contract IUnoAccessManager",
          "name": "",
          "type": "address"
        }
      ],
      "stateMutability": "view",
      "type": "function"
    },
    {
      "inputs": [],
      "name": "farmFactory",
      "outputs": [
        {
          "internalType": "contract IUnoFarmFactory",
          "name": "",
          "type": "address"
        }
      ],
      "stateMutability": "view",
      "type": "function"
    },
    {
      "inputs": [],
      "name": "fee",
      "outputs": [
        {
          "internalType": "uint256",
          "name": "",
          "type": "uint256"
        }
      ],
      "stateMutability": "view",
      "type": "function"
    },
    {
      "inputs": [],
      "name": "paused",
      "outputs": [
        {
          "internalType": "bool",
          "name": "",
          "type": "bool"
        }
      ],
      "stateMutability": "view",
      "type": "function"
    },
    {
      "inputs": [],
      "name": "proxiableUUID",
      "outputs": [
        {
          "internalType": "bytes32",
          "name": "",
          "type": "bytes32"
        }
      ],
      "stateMutability": "view",
      "type": "function"
    },
    {
      "inputs": [
        {
          "internalType": "address",
          "name": "newImplementation",
          "type": "address"
        }
      ],
      "name": "upgradeTo",
      "outputs": [],
      "stateMutability": "nonpayable",
      "type": "function"
    },
    {
      "inputs": [
        {
          "internalType": "address",
          "name": "newImplementation",
          "type": "address"
        },
        {
          "internalType": "bytes",
          "name": "data",
          "type": "bytes"
        }
      ],
      "name": "upgradeToAndCall",
      "outputs": [],
      "stateMutability": "payable",
      "type": "function"
    },
    {
      "stateMutability": "payable",
      "type": "receive"
    },
    {
      "inputs": [
        {
          "internalType": "address",
          "name": "_accessManager",
          "type": "address"
        },
        {
          "internalType": "address",
          "name": "_farmFactory",
          "type": "address"
        }
      ],
      "name": "initialize",
      "outputs": [],
      "stateMutability": "nonpayable",
      "type": "function"
    },
    {
      "inputs": [
        {
          "internalType": "address",
          "name": "lpPool",
          "type": "address"
        },
        {
          "internalType": "uint256[]",
          "name": "amounts",
          "type": "uint256[]"
        },
        {
          "internalType": "address[]",
          "name": "tokens",
          "type": "address[]"
        },
        {
          "internalType": "uint256",
          "name": "minAmountLP",
          "type": "uint256"
        },
        {
          "internalType": "uint256",
          "name": "amountLP",
          "type": "uint256"
        },
        {
          "internalType": "address",
          "name": "recipient",
          "type": "address"
        }
      ],
      "name": "deposit",
      "outputs": [
        {
          "internalType": "uint256",
          "name": "liquidity",
          "type": "uint256"
        }
      ],
      "stateMutability": "nonpayable",
      "type": "function"
    },
    {
      "inputs": [
        {
          "internalType": "address",
          "name": "lpPool",
          "type": "address"
        },
        {
          "internalType": "uint256[]",
          "name": "amounts",
          "type": "uint256[]"
        },
        {
          "internalType": "address[]",
          "name": "tokens",
          "type": "address[]"
        },
        {
          "internalType": "uint256",
          "name": "minAmountLP",
          "type": "uint256"
        },
        {
          "internalType": "uint256",
          "name": "amountLP",
          "type": "uint256"
        },
        {
          "internalType": "address",
          "name": "recipient",
          "type": "address"
        }
      ],
      "name": "depositETH",
      "outputs": [
        {
          "internalType": "uint256",
          "name": "liquidity",
          "type": "uint256"
        }
      ],
      "stateMutability": "payable",
      "type": "function"
    },
    {
      "inputs": [
        {
          "internalType": "address",
          "name": "lpPool",
          "type": "address"
        },
        {
          "internalType": "address",
          "name": "token",
          "type": "address"
        },
        {
          "internalType": "uint256",
          "name": "amount",
          "type": "uint256"
        },
        {
          "internalType": "bytes[]",
          "name": "swapData",
          "type": "bytes[]"
        },
        {
          "internalType": "address[]",
          "name": "tokens",
          "type": "address[]"
        },
        {
          "internalType": "uint256",
          "name": "minAmountLP",
          "type": "uint256"
        },
        {
          "internalType": "address",
          "name": "recipient",
          "type": "address"
        }
      ],
      "name": "depositSingleAsset",
      "outputs": [
        {
          "internalType": "uint256",
          "name": "sent",
          "type": "uint256"
        },
        {
          "internalType": "uint256",
          "name": "liquidity",
          "type": "uint256"
        }
      ],
      "stateMutability": "nonpayable",
      "type": "function"
    },
    {
      "inputs": [
        {
          "internalType": "address",
          "name": "lpPool",
          "type": "address"
        },
        {
          "internalType": "bytes[]",
          "name": "swapData",
          "type": "bytes[]"
        },
        {
          "internalType": "address[]",
          "name": "tokens",
          "type": "address[]"
        },
        {
          "internalType": "uint256",
          "name": "minAmountLP",
          "type": "uint256"
        },
        {
          "internalType": "address",
          "name": "recipient",
          "type": "address"
        }
      ],
      "name": "depositSingleETH",
      "outputs": [
        {
          "internalType": "uint256",
          "name": "sentETH",
          "type": "uint256"
        },
        {
          "internalType": "uint256",
          "name": "liquidity",
          "type": "uint256"
        }
      ],
      "stateMutability": "payable",
      "type": "function"
    },
    {
      "inputs": [
        {
          "internalType": "address",
          "name": "lpPool",
          "type": "address"
        },
        {
          "internalType": "bytes",
          "name": "userData",
          "type": "bytes"
        },
        {
          "internalType": "uint256[]",
          "name": "minAmountsOut",
          "type": "uint256[]"
        },
        {
          "internalType": "bool",
          "name": "withdrawLP",
          "type": "bool"
        },
        {
          "internalType": "address",
          "name": "recipient",
          "type": "address"
        }
      ],
      "name": "withdraw",
      "outputs": [
        {
          "internalType": "uint256[]",
          "name": "amounts",
          "type": "uint256[]"
        },
        {
          "internalType": "uint256",
          "name": "liquidity",
          "type": "uint256"
        }
      ],
      "stateMutability": "nonpayable",
      "type": "function"
    },
    {
      "inputs": [
        {
          "internalType": "address",
          "name": "lpPool",
          "type": "address"
        },
        {
          "internalType": "bytes",
          "name": "userData",
          "type": "bytes"
        },
        {
          "internalType": "uint256[]",
          "name": "minAmountsOut",
          "type": "uint256[]"
        },
        {
          "internalType": "address",
          "name": "recipient",
          "type": "address"
        }
      ],
      "name": "withdrawETH",
      "outputs": [
        {
          "internalType": "uint256[]",
          "name": "amounts",
          "type": "uint256[]"
        },
        {
          "internalType": "uint256",
          "name": "liquidity",
          "type": "uint256"
        }
      ],
      "stateMutability": "nonpayable",
      "type": "function"
    },
    {
      "inputs": [
        {
          "internalType": "address",
          "name": "lpPool",
          "type": "address"
        },
        {
          "components": [
            {
              "components": [
                {
                  "internalType": "bytes32",
                  "name": "poolId",
                  "type": "bytes32"
                },
                {
                  "internalType": "uint256",
                  "name": "assetInIndex",
                  "type": "uint256"
                },
                {
                  "internalType": "uint256",
                  "name": "assetOutIndex",
                  "type": "uint256"
                },
                {
                  "internalType": "uint256",
                  "name": "amount",
                  "type": "uint256"
                },
                {
                  "internalType": "bytes",
                  "name": "userData",
                  "type": "bytes"
                }
              ],
              "internalType": "struct IVault.BatchSwapStep[]",
              "name": "swaps",
              "type": "tuple[]"
            },
            {
              "internalType": "contract IERC20[]",
              "name": "assets",
              "type": "address[]"
            },
            {
              "internalType": "int256[]",
              "name": "limits",
              "type": "int256[]"
            }
          ],
          "internalType": "struct IUnoFarmBalancer.SwapInfo[]",
          "name": "swapInfos",
          "type": "tuple[]"
        },
        {
          "components": [
            {
              "components": [
                {
                  "internalType": "bytes32",
                  "name": "poolId",
                  "type": "bytes32"
                },
                {
                  "internalType": "uint256",
                  "name": "assetInIndex",
                  "type": "uint256"
                },
                {
                  "internalType": "uint256",
                  "name": "assetOutIndex",
                  "type": "uint256"
                },
                {
                  "internalType": "uint256",
                  "name": "amount",
                  "type": "uint256"
                },
                {
                  "internalType": "bytes",
                  "name": "userData",
                  "type": "bytes"
                }
              ],
              "internalType": "struct IVault.BatchSwapStep[]",
              "name": "swaps",
              "type": "tuple[]"
            },
            {
              "internalType": "contract IERC20[]",
              "name": "assets",
              "type": "address[]"
            },
            {
              "internalType": "int256[]",
              "name": "limits",
              "type": "int256[]"
            }
          ],
          "internalType": "struct IUnoFarmBalancer.SwapInfo[]",
          "name": "feeSwapInfos",
          "type": "tuple[]"
        },
        {
          "internalType": "address",
          "name": "feeTo",
          "type": "address"
        }
      ],
      "name": "distribute",
      "outputs": [],
      "stateMutability": "nonpayable",
      "type": "function"
    },
    {
      "inputs": [
        {
          "internalType": "address",
          "name": "_address",
          "type": "address"
        },
        {
          "internalType": "address",
          "name": "lpPool",
          "type": "address"
        }
      ],
      "name": "userStake",
      "outputs": [
        {
          "internalType": "uint256",
          "name": "",
          "type": "uint256"
        }
      ],
      "stateMutability": "view",
      "type": "function"
    },
    {
      "inputs": [
        {
          "internalType": "address",
          "name": "lpPool",
          "type": "address"
        }
      ],
      "name": "totalDeposits",
      "outputs": [
        {
          "internalType": "uint256",
          "name": "",
          "type": "uint256"
        }
      ],
      "stateMutability": "view",
      "type": "function"
    },
    {
      "inputs": [
        {
          "internalType": "address",
          "name": "lpPool",
          "type": "address"
        }
      ],
      "name": "getTokens",
      "outputs": [
        {
          "internalType": "contract IERC20[]",
          "name": "tokens",
          "type": "address[]"
        }
      ],
      "stateMutability": "view",
      "type": "function"
    },
    {
      "inputs": [
        {
          "internalType": "uint256",
          "name": "_fee",
          "type": "uint256"
        }
      ],
      "name": "setFee",
      "outputs": [],
      "stateMutability": "nonpayable",
      "type": "function"
    },
    {
      "inputs": [],
      "name": "pause",
      "outputs": [],
      "stateMutability": "nonpayable",
      "type": "function"
    },
    {
      "inputs": [],
      "name": "unpause",
      "outputs": [],
      "stateMutability": "nonpayable",
      "type": "function"
    }
  ],
  "bytecode": "0x60a0604052306080523480156200001557600080fd5b506200002062000026565b62000156565b6200003260ff62000035565b50565b60008054610100900460ff1615620000ce578160ff1660011480156200006e57506200006c306200014760201b620025e31760201c565b155b620000c65760405162461bcd60e51b815260206004820152602e6024820152600080516020620041af83398151915260448201526d191e481a5b9a5d1a585b1a5e995960921b60648201526084015b60405180910390fd5b506000919050565b60005460ff8084169116106200012d5760405162461bcd60e51b815260206004820152602e6024820152600080516020620041af83398151915260448201526d191e481a5b9a5d1a585b1a5e995960921b6064820152608401620000bd565b506000805460ff191660ff92909216919091179055600190565b6001600160a01b03163b151590565b6080516140216200018e60003960008181610481015281816104c101528181610f9f01528181610fdf01526116d601526140216000f3fe6080604052600436106101395760003560e01c80635bcb8a29116100ab578063d280b9411161006f578063d280b941146103b2578063ddca3f43146103d2578063e9403256146103e8578063e9b72ac714610408578063ef16ef7614610436578063fdcb60681461045657600080fd5b80635bcb8a29146103275780635c975abb1461033a57806369fe0e2d1461035d5780636d25e1751461037d5780638456cb591461039d57600080fd5b8063485cc955116100fd578063485cc9551461026c5780634d95cad91461028c5780634f1ef286146102cc5780634fc4cc39146102df57806351bdca3e146102f257806352d1902d1461031257600080fd5b80633659cfe6146101a25780633cffb266146101c25780633dbd3de3146101f55780633f4ba83a1461022a578063450efe211461023f57600080fd5b3661019d5733730d500b1d8e8ef31e21c99d1db9a6444d3adf12701461019b5760405162461bcd60e51b81526020600482015260126024820152714f4e4c595f4143434550545f574d4154494360701b60448201526064015b60405180910390fd5b005b600080fd5b3480156101ae57600080fd5b5061019b6101bd366004613027565b610476565b3480156101ce57600080fd5b506101e26101dd3660046130f8565b610556565b6040519081526020015b60405180910390f35b34801561020157600080fd5b506102156102103660046131f3565b610810565b604080519283526020830191909152016101ec565b34801561023657600080fd5b5061019b610cb7565b34801561024b57600080fd5b5061025f61025a366004613027565b610d6e565b6040516101ec91906132ad565b34801561027857600080fd5b5061019b6102873660046132fa565b610e59565b34801561029857600080fd5b506102b4730d500b1d8e8ef31e21c99d1db9a6444d3adf127081565b6040516001600160a01b0390911681526020016101ec565b61019b6102da366004613333565b610f94565b6102156102ed3660046133da565b611065565b3480156102fe57600080fd5b506101e261030d3660046132fa565b6115c8565b34801561031e57600080fd5b506101e26116c9565b6101e26103353660046130f8565b61177c565b34801561034657600080fd5b5060335460ff1660405190151581526020016101ec565b34801561036957600080fd5b5061019b610378366004613479565b611b94565b34801561038957600080fd5b5060c9546102b4906001600160a01b031681565b3480156103a957600080fd5b5061019b611d27565b3480156103be57600080fd5b5061019b6103cd366004613492565b611dde565b3480156103de57600080fd5b506101e260cb5481565b3480156103f457600080fd5b506101e2610403366004613027565b612025565b34801561041457600080fd5b50610428610423366004613567565b61211a565b6040516101ec9291906135ee565b34801561044257600080fd5b5061042861045136600461361e565b612470565b34801561046257600080fd5b5060ca546102b4906001600160a01b031681565b306001600160a01b037f00000000000000000000000000000000000000000000000000000000000000001614156104bf5760405162461bcd60e51b8152600401610192906136b6565b7f00000000000000000000000000000000000000000000000000000000000000006001600160a01b0316610508600080516020613f85833981519152546001600160a01b031690565b6001600160a01b03161461052e5760405162461bcd60e51b815260040161019290613702565b610537816125f2565b60408051600080825260208201909252610553918391906126f8565b50565b600061056460335460ff1690565b156105815760405162461bcd60e51b81526004016101929061374e565b865185146105a15760405162461bcd60e51b815260040161019290613778565b60c95460405163f9d9331d60e01b81526001600160a01b038a81166004830152600092169063f9d9331d90602401602060405180830381865afa1580156105ec573d6000803e3d6000fd5b505050506040513d601f19601f8201168201806040525081019061061091906137bc565b90506001600160a01b0381166106925760c954604051621849e360e61b81526001600160a01b038b811660048301529091169063061278c0906024016020604051808303816000875af115801561066b573d6000803e3d6000fd5b505050506040513d601f19601f8201168201806040525081019061068f91906137bc565b90505b60005b868110156107285760008982815181106106b1576106b16137d9565b602002602001015111156107165761071633838b84815181106106d6576106d66137d9565b60200260200101518b8b868181106106f0576106f06137d9565b90506020020160208101906107059190613027565b6001600160a01b0316929190612863565b8061072081613805565b915050610695565b508315610744576107446001600160a01b038a16338387612863565b604051632272658560e11b81526001600160a01b038216906344e4cb0a9061077a908b908b908b908b908b908b9060040161385e565b6020604051808303816000875af1158015610799573d6000803e3d6000fd5b505050506040513d601f19601f820116820180604052508101906107bd91906138ac565b9150826001600160a01b0316336001600160a01b03168a6001600160a01b0316600080516020613fa5833981519152856040516107fc91815260200190565b60405180910390a450979650505050505050565b60008061081f60335460ff1690565b1561083c5760405162461bcd60e51b81526004016101929061374e565b6000891161087c5760405162461bcd60e51b815260206004820152600d60248201526c1393d7d513d2d15397d4d15395609a1b6044820152606401610192565b86851461089b5760405162461bcd60e51b8152600401610192906138c5565b60c95460405163f9d9331d60e01b81526001600160a01b038d81166004830152600092169063f9d9331d90602401602060405180830381865afa1580156108e6573d6000803e3d6000fd5b505050506040513d601f19601f8201168201806040525081019061090a91906137bc565b90506001600160a01b03811661098c5760c954604051621849e360e61b81526001600160a01b038e811660048301529091169063061278c0906024016020604051808303816000875af1158015610965573d6000803e3d6000fd5b505050506040513d601f19601f8201168201806040525081019061098991906137bc565b90505b6109a16001600160a01b038c1633308d612863565b60405163095ea7b360e01b8152731111111254eeb25477b68fb85ed929f73a9605826004820152602481018b90526001600160a01b038c169063095ea7b3906044016020604051808303816000875af1158015610a02573d6000803e3d6000fd5b505050506040513d601f19601f82011682018060405250810190610a26919061390a565b508992506000866001600160401b03811115610a4457610a44613044565b604051908082528060200260200182016040528015610a6d578160200160208202803683370190505b50905060001960005b88811015610b7e578d6001600160a01b03168a8a83818110610a9a57610a9a6137d9565b9050602002016020810190610aaf9190613027565b6001600160a01b03161415610ac657809150610b6c565b600080610af58e8e85818110610ade57610ade6137d9565b9050602002810190610af09190613927565b6128d4565b90925090508115610b5b5781858481518110610b1357610b136137d9565b602002602001018181525050610b5b86838e8e87818110610b3657610b366137d9565b9050602002016020810190610b4b9190613027565b6001600160a01b031691906129b3565b808f610b67919061396d565b9e5050505b80610b7681613805565b915050610a76565b508060001914610bbf578b828281518110610b9b57610b9b6137d9565b6020908102919091010152610bba6001600160a01b038e16848e6129b3565b610be5565b8b15610be557610bcf8c8661396d565b9450610be56001600160a01b038e16338e6129b3565b50604051632272658560e11b81526001600160a01b038316906344e4cb0a90610c1d9084908c908c908c906000908d9060040161385e565b6020604051808303816000875af1158015610c3c573d6000803e3d6000fd5b505050506040513d601f19601f82011682018060405250810190610c6091906138ac565b9250846001600160a01b0316336001600160a01b03168e6001600160a01b0316600080516020613fa583398151915286604051610c9f91815260200190565b60405180910390a45050995099975050505050505050565b60ca54604051632474521560e21b81527f65d7a28e3265b37a6474929f336521b332c1681b933f6cb9f3376673440d862a60048201819052336024830152916001600160a01b0316906391d1485490604401602060405180830381865afa158015610d26573d6000803e3d6000fd5b505050506040513d601f19601f82011682018060405250810190610d4a919061390a565b610d665760405162461bcd60e51b815260040161019290613984565b6105536129e3565b60606000826001600160a01b03166338fff2d06040518163ffffffff1660e01b8152600401602060405180830381865afa158015610db0573d6000803e3d6000fd5b505050506040513d601f19601f82011682018060405250810190610dd491906138ac565b604051631f29a8cd60e31b81526004810182905290915073ba12222222228d8ba445958a75a0704d566bf2c89063f94d466890602401600060405180830381865afa158015610e27573d6000803e3d6000fd5b505050506040513d6000823e601f3d908101601f19168201604052610e4f9190810190613a19565b5090949350505050565b6000610e656001612a76565b90508015610e7d576000805461ff0019166101001790555b6001600160a01b038316610ec85760405162461bcd60e51b81526020600482015260126024820152712120a22fa0a1a1a2a9a9afa6a0a720a3a2a960711b6044820152606401610192565b6001600160a01b038216610f115760405162461bcd60e51b815260206004820152601060248201526f4241445f4641524d5f464143544f525960801b6044820152606401610192565b610f19612b03565b60ca80546001600160a01b038086166001600160a01b03199283161790925560c98054928516929091169190911790558015610f8f576000805461ff0019169055604051600181527f7f26b83ff96e1f2b6a682f133852f6798a09c465da95921460cefb38474024989060200160405180910390a15b505050565b306001600160a01b037f0000000000000000000000000000000000000000000000000000000000000000161415610fdd5760405162461bcd60e51b8152600401610192906136b6565b7f00000000000000000000000000000000000000000000000000000000000000006001600160a01b0316611026600080516020613f85833981519152546001600160a01b031690565b6001600160a01b03161461104c5760405162461bcd60e51b815260040161019290613702565b611055826125f2565b611061828260016126f8565b5050565b60008061107460335460ff1690565b156110915760405162461bcd60e51b81526004016101929061374e565b600034116110d15760405162461bcd60e51b815260206004820152600d60248201526c1393d7d350551250d7d4d15395609a1b6044820152606401610192565b8685146110f05760405162461bcd60e51b8152600401610192906138c5565b60c95460405163f9d9331d60e01b81526001600160a01b038b81166004830152600092169063f9d9331d90602401602060405180830381865afa15801561113b573d6000803e3d6000fd5b505050506040513d601f19601f8201168201806040525081019061115f91906137bc565b90506001600160a01b0381166111e15760c954604051621849e360e61b81526001600160a01b038c811660048301529091169063061278c0906024016020604051808303816000875af11580156111ba573d6000803e3d6000fd5b505050506040513d601f19601f820116820180604052508101906111de91906137bc565b90505b6000349050809350730d500b1d8e8ef31e21c99d1db9a6444d3adf12706001600160a01b031663d0e30db0826040518263ffffffff1660e01b81526004016000604051808303818588803b15801561123857600080fd5b505af115801561124c573d6000803e3d6000fd5b505060405163095ea7b360e01b8152731111111254eeb25477b68fb85ed929f73a960582600482015260248101859052730d500b1d8e8ef31e21c99d1db9a6444d3adf1270935063095ea7b3925060440190506020604051808303816000875af11580156112be573d6000803e3d6000fd5b505050506040513d601f19601f820116820180604052508101906112e2919061390a565b506000196000886001600160401b0381111561130057611300613044565b604051908082528060200260200182016040528015611329578160200160208202803683370190505b50905060005b8981101561140457730d500b1d8e8ef31e21c99d1db9a6444d3adf12708b8b8381811061135e5761135e6137d9565b90506020020160208101906113739190613027565b6001600160a01b0316141561138a578092506113f2565b6000806113a28f8f85818110610ade57610ade6137d9565b909250905081156113e357818484815181106113c0576113c06137d9565b6020026020010181815250506113e387838f8f87818110610b3657610b366137d9565b6113ed818761396d565b955050505b806113fc81613805565b91505061132f565b5081600019146114505782818381518110611421576114216137d9565b602090810291909101015261144b730d500b1d8e8ef31e21c99d1db9a6444d3adf127085856129b3565b6114f7565b82156114f757611460838761396d565b604051632e1a7d4d60e01b815260048101859052909650730d500b1d8e8ef31e21c99d1db9a6444d3adf127090632e1a7d4d90602401600060405180830381600087803b1580156114b057600080fd5b505af11580156114c4573d6000803e3d6000fd5b505060405133925085156108fc02915085906000818181858888f193505050501580156114f5573d6000803e3d6000fd5b505b604051632272658560e11b81526001600160a01b038516906344e4cb0a9061152e9084908e908e908e906000908f9060040161385e565b6020604051808303816000875af115801561154d573d6000803e3d6000fd5b505050506040513d601f19601f8201168201806040525081019061157191906138ac565b9450866001600160a01b0316336001600160a01b03168e6001600160a01b0316600080516020613fa5833981519152886040516115b091815260200190565b60405180910390a45050505097509795505050505050565b60c95460405163f9d9331d60e01b81526001600160a01b038381166004830152600092839291169063f9d9331d90602401602060405180830381865afa158015611616573d6000803e3d6000fd5b505050506040513d601f19601f8201168201806040525081019061163a91906137bc565b90506001600160a01b038116156116bd57604051630103c92b60e01b81526001600160a01b038581166004830152821690630103c92b90602401602060405180830381865afa158015611691573d6000803e3d6000fd5b505050506040513d601f19601f820116820180604052508101906116b591906138ac565b9150506116c3565b60009150505b92915050565b6000306001600160a01b037f000000000000000000000000000000000000000000000000000000000000000016146117695760405162461bcd60e51b815260206004820152603860248201527f555550535570677261646561626c653a206d757374206e6f742062652063616c60448201527f6c6564207468726f7567682064656c656761746563616c6c00000000000000006064820152608401610192565b50600080516020613f8583398151915290565b600061178a60335460ff1690565b156117a75760405162461bcd60e51b81526004016101929061374e565b600034116117e75760405162461bcd60e51b815260206004820152600d60248201526c1393d7d350551250d7d4d15395609a1b6044820152606401610192565b865185146118075760405162461bcd60e51b815260040161019290613778565b60c95460405163f9d9331d60e01b81526001600160a01b038a81166004830152600092169063f9d9331d90602401602060405180830381865afa158015611852573d6000803e3d6000fd5b505050506040513d601f19601f8201168201806040525081019061187691906137bc565b90506001600160a01b0381166118f85760c954604051621849e360e61b81526001600160a01b038b811660048301529091169063061278c0906024016020604051808303816000875af11580156118d1573d6000803e3d6000fd5b505050506040513d601f19601f820116820180604052508101906118f591906137bc565b90505b6000730d500b1d8e8ef31e21c99d1db9a6444d3adf12706001600160a01b031663d0e30db0346040518263ffffffff1660e01b81526004016000604051808303818588803b15801561194957600080fd5b505af115801561195d573d6000803e3d6000fd5b506119859350730d500b1d8e8ef31e21c99d1db9a6444d3adf127092508591503490506129b3565b60005b87811015611a6857730d500b1d8e8ef31e21c99d1db9a6444d3adf12708989838181106119b7576119b76137d9565b90506020020160208101906119cc9190613027565b6001600160a01b031614611a325760008a82815181106119ee576119ee6137d9565b60200260200101511115611a2d57611a2d33848c8481518110611a1357611a136137d9565b60200260200101518c8c868181106106f0576106f06137d9565b611a56565b348a8281518110611a4557611a456137d9565b602002602001018181525050600191505b80611a6081613805565b915050611988565b5080611aac5760405162461bcd60e51b81526020600482015260136024820152724e4f5f574d415449435f494e5f544f4b454e5360681b6044820152606401610192565b8415611ac757611ac76001600160a01b038b16338488612863565b604051632272658560e11b81526001600160a01b038316906344e4cb0a90611afd908c908c908c908c908c908c9060040161385e565b6020604051808303816000875af1158015611b1c573d6000803e3d6000fd5b505050506040513d601f19601f82011682018060405250810190611b4091906138ac565b9250836001600160a01b0316336001600160a01b03168b6001600160a01b0316600080516020613fa583398151915286604051611b7f91815260200190565b60405180910390a45050979650505050505050565b60ca60009054906101000a90046001600160a01b03166001600160a01b03166375b238fc6040518163ffffffff1660e01b8152600401602060405180830381865afa158015611be7573d6000803e3d6000fd5b505050506040513d601f19601f82011682018060405250810190611c0b91906138ac565b60ca54604051632474521560e21b8152600481018390523360248201526001600160a01b03909116906391d1485490604401602060405180830381865afa158015611c5a573d6000803e3d6000fd5b505050506040513d601f19601f82011682018060405250810190611c7e919061390a565b611c9a5760405162461bcd60e51b815260040161019290613984565b670de0b6b3a7640000821115611cdc5760405162461bcd60e51b81526020600482015260076024820152664241445f46454560c81b6044820152606401610192565b8160cb54146110615760cb5460408051918252602082018490527f5fc463da23c1b063e66f9e352006a7fbe8db7223c455dc429e881a2dfe2f94f1910160405180910390a15060cb55565b60ca54604051632474521560e21b81527f65d7a28e3265b37a6474929f336521b332c1681b933f6cb9f3376673440d862a60048201819052336024830152916001600160a01b0316906391d1485490604401602060405180830381865afa158015611d96573d6000803e3d6000fd5b505050506040513d601f19601f82011682018060405250810190611dba919061390a565b611dd65760405162461bcd60e51b815260040161019290613984565b610553612b34565b60335460ff1615611e015760405162461bcd60e51b81526004016101929061374e565b60ca54604051632474521560e21b81527ffbd454f36a7e1a388bd6fc3ab10d434aa4578f811acbbcf33afb1c697486313c60048201819052336024830152916001600160a01b0316906391d1485490604401602060405180830381865afa158015611e70573d6000803e3d6000fd5b505050506040513d601f19601f82011682018060405250810190611e94919061390a565b611eb05760405162461bcd60e51b815260040161019290613984565b60c95460405163f9d9331d60e01b81526001600160a01b038981166004830152600092169063f9d9331d90602401602060405180830381865afa158015611efb573d6000803e3d6000fd5b505050506040513d601f19601f82011682018060405250810190611f1f91906137bc565b90506001600160a01b038116611f475760405162461bcd60e51b815260040161019290613ae6565b6040805180820182526001600160a01b03858116825260cb5460208301529151630faa5a1f60e01b8152600092841691630faa5a1f91611f92918c918c918c918c9190600401613d34565b6020604051808303816000875af1158015611fb1573d6000803e3d6000fd5b505050506040513d601f19601f82011682018060405250810190611fd591906138ac565b9050886001600160a01b03167fc1d32ad5cca423e7dda2123dbf8c482f8e77d00b631c06e903a47f2cec1334df8260405161201291815260200190565b60405180910390a2505050505050505050565b60c95460405163f9d9331d60e01b81526001600160a01b038381166004830152600092839291169063f9d9331d90602401602060405180830381865afa158015612073573d6000803e3d6000fd5b505050506040513d601f19601f8201168201806040525081019061209791906137bc565b90506001600160a01b0381161561211157806001600160a01b031663168a48226040518163ffffffff1660e01b8152600401602060405180830381865afa1580156120e6573d6000803e3d6000fd5b505050506040513d601f19601f8201168201806040525081019061210a91906138ac565b9392505050565b50600092915050565b60c95460405163f9d9331d60e01b81526001600160a01b03888116600483015260609260009283929091169063f9d9331d90602401602060405180830381865afa15801561216c573d6000803e3d6000fd5b505050506040513d601f19601f8201168201806040525081019061219091906137bc565b90506001600160a01b0381166121b85760405162461bcd60e51b815260040161019290613ae6565b60405163174f832960e11b81526001600160a01b03821690632e9f0652906121f1908b908b908b908b9060009033903090600401613d85565b6000604051808303816000875af1158015612210573d6000803e3d6000fd5b505050506040513d6000823e601f3d908101601f191682016040526122389190810190613df6565b909350915060006122488a610d6e565b905060005b815181101561240b57848181518110612268576122686137d9565b60200260200101516000141561227d576123f9565b730d500b1d8e8ef31e21c99d1db9a6444d3adf12706001600160a01b03168282815181106122ad576122ad6137d9565b60200260200101516001600160a01b03161461231857612313868683815181106122d9576122d96137d9565b60200260200101518484815181106122f3576122f36137d9565b60200260200101516001600160a01b03166129b39092919063ffffffff16565b6123f9565b730d500b1d8e8ef31e21c99d1db9a6444d3adf12706001600160a01b0316632e1a7d4d86838151811061234d5761234d6137d9565b60200260200101516040518263ffffffff1660e01b815260040161237391815260200190565b600060405180830381600087803b15801561238d57600080fd5b505af11580156123a1573d6000803e3d6000fd5b50505050856001600160a01b03166108fc8683815181106123c4576123c46137d9565b60200260200101519081150290604051600060405180830381858888f193505050501580156123f7573d6000803e3d6000fd5b505b8061240381613805565b91505061224d565b50846001600160a01b0316336001600160a01b03168b6001600160a01b03167f3115d1449a7b732c986cba18244e897a450f61e1bb8d589cd2e69e6c8924f9f78660405161245b91815260200190565b60405180910390a45050965096945050505050565b60c95460405163f9d9331d60e01b81526001600160a01b03898116600483015260609260009283929091169063f9d9331d90602401602060405180830381865afa1580156124c2573d6000803e3d6000fd5b505050506040513d601f19601f820116820180604052508101906124e691906137bc565b90506001600160a01b03811661250e5760405162461bcd60e51b815260040161019290613ae6565b60405163174f832960e11b81526001600160a01b03821690632e9f065290612546908c908c908c908c908c9033908d90600401613d85565b6000604051808303816000875af1158015612565573d6000803e3d6000fd5b505050506040513d6000823e601f3d908101601f1916820160405261258d9190810190613df6565b60405181815291945092506001600160a01b038581169133918d16907f3115d1449a7b732c986cba18244e897a450f61e1bb8d589cd2e69e6c8924f9f79060200160405180910390a45097509795505050505050565b6001600160a01b03163b151590565b60ca60009054906101000a90046001600160a01b03166001600160a01b03166375b238fc6040518163ffffffff1660e01b8152600401602060405180830381865afa158015612645573d6000803e3d6000fd5b505050506040513d601f19601f8201168201806040525081019061266991906138ac565b60ca54604051632474521560e21b8152600481018390523360248201526001600160a01b03909116906391d1485490604401602060405180830381865afa1580156126b8573d6000803e3d6000fd5b505050506040513d601f19601f820116820180604052508101906126dc919061390a565b6110615760405162461bcd60e51b815260040161019290613984565b7f4910fdfa16fed3260ed0e7147f7cc6da11a60208b5b9406d12a635614ffd91435460ff161561272b57610f8f83612b8c565b826001600160a01b03166352d1902d6040518163ffffffff1660e01b8152600401602060405180830381865afa925050508015612785575060408051601f3d908101601f19168201909252612782918101906138ac565b60015b6127e85760405162461bcd60e51b815260206004820152602e60248201527f45524331393637557067726164653a206e657720696d706c656d656e7461746960448201526d6f6e206973206e6f74205555505360901b6064820152608401610192565b600080516020613f8583398151915281146128575760405162461bcd60e51b815260206004820152602960248201527f45524331393637557067726164653a20756e737570706f727465642070726f786044820152681a58589b195555525160ba1b6064820152608401610192565b50610f8f838383612c28565b6040516001600160a01b03808516602483015283166044820152606481018290526128ce9085906323b872dd60e01b906084015b60408051601f198184030181529190526020810180516001600160e01b03166001600160e01b031990931692909217909152612c4d565b50505050565b600080600080731111111254eeb25477b68fb85ed929f73a9605826001600160a01b03168686604051612908929190613e3c565b6000604051808303816000865af19150503d8060008114612945576040519150601f19603f3d011682016040523d82523d6000602084013e61294a565b606091505b5091509150816129925760405162461bcd60e51b815260206004820152601360248201527214d5d05417d393d517d4d550d0d154d4d19553606a1b6044820152606401610192565b808060200190518101906129a69190613e4c565b9097909650945050505050565b6040516001600160a01b038316602482015260448101829052610f8f90849063a9059cbb60e01b90606401612897565b60335460ff16612a2c5760405162461bcd60e51b815260206004820152601460248201527314185d5cd8589b194e881b9bdd081c185d5cd95960621b6044820152606401610192565b6033805460ff191690557f5db9ee0a495bf2e6ff9c91a7834c1ba4fdd244a5e8aa4e537bd38aeae4b073aa335b6040516001600160a01b03909116815260200160405180910390a1565b60008054610100900460ff1615612abd578160ff166001148015612a995750303b155b612ab55760405162461bcd60e51b815260040161019290613e70565b506000919050565b60005460ff808416911610612ae45760405162461bcd60e51b815260040161019290613e70565b506000805460ff191660ff92909216919091179055600190565b919050565b600054610100900460ff16612b2a5760405162461bcd60e51b815260040161019290613ebe565b612b32612d1f565b565b60335460ff1615612b575760405162461bcd60e51b81526004016101929061374e565b6033805460ff191660011790557f62e78cea01bee320cd4e420270b5ea74000d11b0c9f74754ebdbfc544b05a258612a593390565b6001600160a01b0381163b612bf95760405162461bcd60e51b815260206004820152602d60248201527f455243313936373a206e657720696d706c656d656e746174696f6e206973206e60448201526c1bdd08184818dbdb9d1c9858dd609a1b6064820152608401610192565b600080516020613f8583398151915280546001600160a01b0319166001600160a01b0392909216919091179055565b612c3183612d52565b600082511180612c3e5750805b15610f8f576128ce8383612d92565b6000612ca2826040518060400160405280602081526020017f5361666545524332303a206c6f772d6c6576656c2063616c6c206661696c6564815250856001600160a01b0316612e869092919063ffffffff16565b805190915015610f8f5780806020019051810190612cc0919061390a565b610f8f5760405162461bcd60e51b815260206004820152602a60248201527f5361666545524332303a204552433230206f7065726174696f6e20646964206e6044820152691bdd081cdd58d8d9595960b21b6064820152608401610192565b600054610100900460ff16612d465760405162461bcd60e51b815260040161019290613ebe565b6033805460ff19169055565b612d5b81612b8c565b6040516001600160a01b038216907fbc7cd75a20ee27fd9adebab32041f755214dbc6bffa90cc0225b39da2e5c2d3b90600090a250565b60606001600160a01b0383163b612dfa5760405162461bcd60e51b815260206004820152602660248201527f416464726573733a2064656c65676174652063616c6c20746f206e6f6e2d636f6044820152651b9d1c9858dd60d21b6064820152608401610192565b600080846001600160a01b031684604051612e159190613f35565b600060405180830381855af49150503d8060008114612e50576040519150601f19603f3d011682016040523d82523d6000602084013e612e55565b606091505b5091509150612e7d8282604051806060016040528060278152602001613fc560279139612e9d565b95945050505050565b6060612e958484600085612ed6565b949350505050565b60608315612eac57508161210a565b825115612ebc5782518084602001fd5b8160405162461bcd60e51b81526004016101929190613f51565b606082471015612f375760405162461bcd60e51b815260206004820152602660248201527f416464726573733a20696e73756666696369656e742062616c616e636520666f6044820152651c8818d85b1b60d21b6064820152608401610192565b6001600160a01b0385163b612f8e5760405162461bcd60e51b815260206004820152601d60248201527f416464726573733a2063616c6c20746f206e6f6e2d636f6e74726163740000006044820152606401610192565b600080866001600160a01b03168587604051612faa9190613f35565b60006040518083038185875af1925050503d8060008114612fe7576040519150601f19603f3d011682016040523d82523d6000602084013e612fec565b606091505b5091509150612ffc828286612e9d565b979650505050505050565b6001600160a01b038116811461055357600080fd5b8035612afe81613007565b60006020828403121561303957600080fd5b813561210a81613007565b634e487b7160e01b600052604160045260246000fd5b604051601f8201601f191681016001600160401b038111828210171561308257613082613044565b604052919050565b60006001600160401b038211156130a3576130a3613044565b5060051b60200190565b60008083601f8401126130bf57600080fd5b5081356001600160401b038111156130d657600080fd5b6020830191508360208260051b85010111156130f157600080fd5b9250929050565b600080600080600080600060c0888a03121561311357600080fd5b873561311e81613007565b96506020888101356001600160401b038082111561313b57600080fd5b818b0191508b601f83011261314f57600080fd5b813561316261315d8261308a565b61305a565b81815260059190911b8301840190848101908e83111561318157600080fd5b938501935b8285101561319f57843582529385019390850190613186565b9a50505060408b01359250808311156131b757600080fd5b50506131c58a828b016130ad565b90965094505060608801359250608088013591506131e560a0890161301c565b905092959891949750929550565b600080600080600080600080600060e08a8c03121561321157600080fd5b893561321c81613007565b985060208a013561322c81613007565b975060408a0135965060608a01356001600160401b038082111561324f57600080fd5b61325b8d838e016130ad565b909850965060808c013591508082111561327457600080fd5b506132818c828d016130ad565b90955093505060a08a0135915060c08a013561329c81613007565b809150509295985092959850929598565b6020808252825182820181905260009190848201906040850190845b818110156132ee5783516001600160a01b0316835292840192918401916001016132c9565b50909695505050505050565b6000806040838503121561330d57600080fd5b823561331881613007565b9150602083013561332881613007565b809150509250929050565b6000806040838503121561334657600080fd5b823561335181613007565b91506020838101356001600160401b038082111561336e57600080fd5b818601915086601f83011261338257600080fd5b81358181111561339457613394613044565b6133a6601f8201601f1916850161305a565b915080825287848285010111156133bc57600080fd5b80848401858401376000848284010152508093505050509250929050565b600080600080600080600060a0888a0312156133f557600080fd5b873561340081613007565b965060208801356001600160401b038082111561341c57600080fd5b6134288b838c016130ad565b909850965060408a013591508082111561344157600080fd5b5061344e8a828b016130ad565b90955093505060608801359150608088013561346981613007565b8091505092959891949750929550565b60006020828403121561348b57600080fd5b5035919050565b600080600080600080608087890312156134ab57600080fd5b86356134b681613007565b955060208701356001600160401b03808211156134d257600080fd5b6134de8a838b016130ad565b909750955060408901359150808211156134f757600080fd5b5061350489828a016130ad565b909450925050606087013561351881613007565b809150509295509295509295565b60008083601f84011261353857600080fd5b5081356001600160401b0381111561354f57600080fd5b6020830191508360208285010111156130f157600080fd5b6000806000806000806080878903121561358057600080fd5b863561358b81613007565b955060208701356001600160401b03808211156135a757600080fd5b6134de8a838b01613526565b600081518084526020808501945080840160005b838110156135e3578151875295820195908201906001016135c7565b509495945050505050565b60408152600061360160408301856135b3565b90508260208301529392505050565b801515811461055357600080fd5b600080600080600080600060a0888a03121561363957600080fd5b873561364481613007565b965060208801356001600160401b038082111561366057600080fd5b61366c8b838c01613526565b909850965060408a013591508082111561368557600080fd5b506136928a828b016130ad565b90955093505060608801356136a681613610565b9150608088013561346981613007565b6020808252602c908201527f46756e6374696f6e206d7573742062652063616c6c6564207468726f7567682060408201526b19195b1959d85d1958d85b1b60a21b606082015260800190565b6020808252602c908201527f46756e6374696f6e206d7573742062652063616c6c6564207468726f7567682060408201526b6163746976652070726f787960a01b606082015260800190565b60208082526010908201526f14185d5cd8589b194e881c185d5cd95960821b604082015260600190565b60208082526024908201527f414d4f554e54535f414e445f544f4b454e535f4c454e475448535f4e4f545f4d604082015263082a886960e31b606082015260800190565b6000602082840312156137ce57600080fd5b815161210a81613007565b634e487b7160e01b600052603260045260246000fd5b634e487b7160e01b600052601160045260246000fd5b6000600019821415613819576138196137ef565b5060010190565b8183526000602080850194508260005b858110156135e357813561384381613007565b6001600160a01b031687529582019590820190600101613830565b60a08152600061387160a08301896135b3565b828103602084015261388481888a613820565b6040840196909652505060608101929092526001600160a01b03166080909101529392505050565b6000602082840312156138be57600080fd5b5051919050565b60208082526025908201527f53574150444154415f414e445f544f4b454e535f4c454e474854535f4e4f545f60408201526409a82a886960db1b606082015260800190565b60006020828403121561391c57600080fd5b815161210a81613610565b6000808335601e1984360301811261393e57600080fd5b8301803591506001600160401b0382111561395857600080fd5b6020019150368190038213156130f157600080fd5b60008282101561397f5761397f6137ef565b500390565b60208082526015908201527410d05313115497d393d517d055551213d492569151605a1b604082015260600190565b600082601f8301126139c457600080fd5b815160206139d461315d8361308a565b82815260059290921b840181019181810190868411156139f357600080fd5b8286015b84811015613a0e57805183529183019183016139f7565b509695505050505050565b600080600060608486031215613a2e57600080fd5b83516001600160401b0380821115613a4557600080fd5b818601915086601f830112613a5957600080fd5b81516020613a6961315d8361308a565b82815260059290921b8401810191818101908a841115613a8857600080fd5b948201945b83861015613aaf578551613aa081613007565b82529482019490820190613a8d565b91890151919750909350505080821115613ac857600080fd5b50613ad5868287016139b3565b925050604084015190509250925092565b6020808252600f908201526e4641524d5f4e4f545f45584953545360881b604082015260600190565b6000808335601e19843603018112613b2657600080fd5b83016020810192503590506001600160401b03811115613b4557600080fd5b8060051b36038313156130f157600080fd5b81835281816020850137506000828201602090810191909152601f909101601f19169091010190565b8183526000602080850194508260005b858110156135e357813587529582019590820190600101613b90565b8183526000602084018094508360051b81018360005b868110156132ee578383038852605e1986360301823512613be257600080fd5b85823501613bf08182613b0f565b606086526060860181815260808701905060808260051b8801018360005b84811015613cce57898303607f1901845236869003609e1901823512613c3357600080fd5b85823501803584526020810135602085015260408101356040850152606081013560608501526080810135601e19823603018112613c7057600080fd5b6001600160401b03828201351115613c8757600080fd5b818101353603821315613c9957600080fd5b60a06080860152613cb660a0860183830135602085850101613b57565b60209687019690955093909301925050600101613c0e565b5050613cdd6020860186613b0f565b945092508781036020890152613cf4818585613820565b9350505050613d066040830183613b0f565b92508582036040870152613d1b828483613b80565b60209b8c019b9096509490940193505050600101613bc2565b608081526000613d48608083018789613bac565b8281036020840152613d5b818688613bac565b84516001600160a01b03166040850152602090940151606090930192909252509095945050505050565b60a081526000613d9960a08301898b613b57565b82810360208401528681526001600160fb1b03871115613db857600080fd5b8660051b80896020840137600091016020019081529415156040830152506001600160a01b0392831660608201529116608090910152949350505050565b60008060408385031215613e0957600080fd5b82516001600160401b03811115613e1f57600080fd5b613e2b858286016139b3565b925050602083015190509250929050565b8183823760009101908152919050565b60008060408385031215613e5f57600080fd5b505080516020909101519092909150565b6020808252602e908201527f496e697469616c697a61626c653a20636f6e747261637420697320616c72656160408201526d191e481a5b9a5d1a585b1a5e995960921b606082015260800190565b6020808252602b908201527f496e697469616c697a61626c653a20636f6e7472616374206973206e6f74206960408201526a6e697469616c697a696e6760a81b606082015260800190565b60005b83811015613f24578181015183820152602001613f0c565b838111156128ce5750506000910152565b60008251613f47818460208701613f09565b9190910192915050565b6020815260008251806020840152613f70816040850160208701613f09565b601f01601f1916919091016040019291505056fe360894a13ba1a3210667c828492db98dca3e2076cc3735a920a3ca505d382bbc7cfff908a4b583f36430b25d75964c458d8ede8a99bd61be750e97ee1b2f3a96416464726573733a206c6f772d6c6576656c2064656c65676174652063616c6c206661696c6564a2646970667358221220e0305863d4dc0a90aa30903a2107d20664698fdb954c074c3403cae175b2819a64736f6c634300080a0033496e697469616c697a61626c653a20636f6e747261637420697320616c726561",
  "immutableReferences": {
    "561": [
      {
        "length": 32,
        "start": 1153
      },
      {
        "length": 32,
        "start": 1217
      },
      {
        "length": 32,
        "start": 3999
      },
      {
        "length": 32,
        "start": 4063
      },
      {
        "length": 32,
        "start": 5846
      }
    ]
  },
  "source": "// SPDX-License-Identifier: MIT\r\npragma solidity 0.8.10;\r\n\r\nimport {IUnoFarmBalancer as Farm} from './interfaces/IUnoFarmBalancer.sol'; \r\nimport '../../interfaces/IUnoFarmFactory.sol';\r\nimport '../../interfaces/IUnoAccessManager.sol'; \r\nimport '../../interfaces/IVault.sol'; \r\nimport \"../../interfaces/IBasePool.sol\";\r\nimport '../../interfaces/IWMATIC.sol';\r\nimport '@openzeppelin/contracts-upgradeable/token/ERC20/IERC20Upgradeable.sol';\r\nimport '@openzeppelin/contracts-upgradeable/token/ERC20/utils/SafeERC20Upgradeable.sol';\r\nimport '@openzeppelin/contracts-upgradeable/proxy/utils/Initializable.sol';\r\nimport '@openzeppelin/contracts-upgradeable/security/PausableUpgradeable.sol';\r\nimport '@openzeppelin/contracts-upgradeable/proxy/utils/UUPSUpgradeable.sol';\r\n\r\ncontract UnoAssetRouterBalancer is Initializable, PausableUpgradeable, UUPSUpgradeable {\r\n    using SafeERC20Upgradeable for IERC20Upgradeable;\r\n\r\n    /**\r\n     * @dev Contract Variables:\r\n     * farmFactory - The contract that deploys new Farms and links them to {lpPool}s.\r\n     * accessManager - Role manager contract.\r\n     */\r\n    IUnoFarmFactory public farmFactory;\r\n    IUnoAccessManager public accessManager;\r\n\r\n    bytes32 private constant DISTRIBUTOR_ROLE = keccak256('DISTRIBUTOR_ROLE');\r\n    bytes32 private constant PAUSER_ROLE = keccak256('PAUSER_ROLE');\r\n\r\n    IVault constant private Vault = IVault(0xBA12222222228d8Ba445958a75a0704d566BF2C8);\r\n\r\n    uint256 public fee;\r\n\r\n    address public constant WMATIC = 0x0d500B1d8E8eF31E21C99d1Db9A6444d3ADf1270;\r\n    address private constant oneInchRouter = 0x1111111254EEB25477B68fb85Ed929f73A960582;\r\n\r\n    event Deposit(address indexed lpPool, address indexed sender, address indexed recipient, uint256 amount);\r\n    event Withdraw(address indexed lpPool, address indexed sender, address indexed recipient, uint256 amount);\r\n    event Distribute(address indexed lpPool, uint256 reward);\r\n\r\n    event FeeChanged(uint256 previousFee, uint256 newFee);\r\n\r\n    modifier onlyRole(bytes32 role){\r\n        require(accessManager.hasRole(role, msg.sender), 'CALLER_NOT_AUTHORIZED');\r\n        _;\r\n    }\r\n\r\n    // ============ Methods ============\r\n\r\n    /// @custom:oz-upgrades-unsafe-allow constructor\r\n    constructor() {\r\n        _disableInitializers();\r\n    }\r\n\r\n    function initialize(address _accessManager, address _farmFactory) external initializer{\r\n        require (_accessManager != address(0), 'BAD_ACCESS_MANAGER');\r\n        require (_farmFactory != address(0), 'BAD_FARM_FACTORY');\r\n\r\n        __Pausable_init();\r\n        accessManager = IUnoAccessManager(_accessManager);\r\n        farmFactory = IUnoFarmFactory(_farmFactory);\r\n    }\r\n\r\n    receive() external payable {\r\n        require(msg.sender == WMATIC, 'ONLY_ACCEPT_WMATIC'); // only accept ETH via fallback from the WMATIC contract\r\n    }\r\n\r\n    /**\r\n     * @dev Deposits tokens in the given pool. Creates new Farm contract if there isn't one deployed for the {lpPool} and deposits tokens in it.\r\n     * @param lpPool - Address of the pool to deposit tokens in.\r\n     * @param amounts - Amounts of tokens to deposit.\r\n     * @param tokens - Tokens to deposit.\r\n     * @param minAmountLP - Minimum LP the user will receive from {tokens} deposit.\r\n     * @param amountLP - Additional amount of LP tokens to deposit.\r\n     * @param recipient - Address which will receive the deposit.\r\n\r\n     * @return liquidity - Total liquidity sent to the farm (in lpTokens).\r\n     */\r\n    function deposit(address lpPool, uint256[] memory amounts, address[] calldata tokens, uint256 minAmountLP, uint256 amountLP, address recipient) external whenNotPaused returns(uint256 liquidity){\r\n        require (amounts.length == tokens.length, 'AMOUNTS_AND_TOKENS_LENGTHS_NOT_MATCH');\r\n        Farm farm = Farm(farmFactory.Farms(lpPool));\r\n        if(farm == Farm(address(0))){\r\n            farm = Farm(farmFactory.createFarm(lpPool));\r\n        }\r\n\r\n        for (uint256 i = 0; i < tokens.length; i++) {\r\n            if(amounts[i] > 0){\r\n                IERC20Upgradeable(tokens[i]).safeTransferFrom(msg.sender, address(farm), amounts[i]);\r\n            }\r\n        }\r\n        if(amountLP > 0){\r\n            IERC20Upgradeable(lpPool).safeTransferFrom(msg.sender, address(farm), amountLP);\r\n        }\r\n        \r\n        liquidity = farm.deposit(amounts, tokens, minAmountLP, amountLP, recipient);\r\n        emit Deposit(lpPool, msg.sender, recipient, liquidity); \r\n    }\r\n\r\n    /**\r\n     * @dev Autoconverts MATIC into WMATIC and deposits tokens in the given pool. Creates new Farm contract if there isn't one deployed for the {lpPool} and deposits tokens in it.\r\n     * @param lpPool - Address of the pool to deposit tokens in.\r\n     * @param amounts - Amounts of tokens to deposit.\r\n     * @param tokens - Tokens to deposit.\r\n     * @param minAmountLP - Minimum LP the user will receive from {tokens} deposit.\r\n     * @param amountLP - Additional amount of LP tokens to deposit.\r\n     * @param recipient - Address which will receive the deposit.\r\n\r\n     * @return liquidity - Total liquidity sent to the farm (in lpTokens).\r\n     */\r\n    function depositETH(address lpPool, uint256[] memory amounts, address[] calldata tokens, uint256 minAmountLP, uint256 amountLP, address recipient) external payable whenNotPaused returns(uint256 liquidity){\r\n        require(msg.value > 0, \"NO_MATIC_SENT\");\r\n        require (amounts.length == tokens.length, 'AMOUNTS_AND_TOKENS_LENGTHS_NOT_MATCH');\r\n\r\n        Farm farm = Farm(farmFactory.Farms(lpPool));\r\n        if(farm == Farm(address(0))){\r\n            farm = Farm(farmFactory.createFarm(lpPool));\r\n        }\r\n\r\n        bool WMATICInTokens;\r\n        IWMATIC(WMATIC).deposit{value: msg.value}();\r\n        IERC20Upgradeable(WMATIC).safeTransfer(address(farm), msg.value);\r\n        for (uint256 i = 0; i < tokens.length; i++) {\r\n            if(tokens[i] != WMATIC){\r\n                if(amounts[i] > 0){\r\n                    IERC20Upgradeable(tokens[i]).safeTransferFrom(msg.sender, address(farm), amounts[i]);\r\n                }\r\n                continue;\r\n            }\r\n            amounts[i] = msg.value;\r\n            WMATICInTokens = true;\r\n        }\r\n        require(WMATICInTokens, \"NO_WMATIC_IN_TOKENS\");\r\n\r\n        if(amountLP > 0){\r\n            IERC20Upgradeable(lpPool).safeTransferFrom(msg.sender, address(farm), amountLP);\r\n        }\r\n        \r\n        liquidity = farm.deposit(amounts, tokens, minAmountLP, amountLP, recipient);\r\n        emit Deposit(lpPool, msg.sender, recipient, liquidity); \r\n    }\r\n\r\n    /**\r\n     * @dev Deposits single token in the given pool. Creates new Farm contract if there isn't one deployed for the {lpPool}, swaps {token} for pool tokens and deposits them. Emits a {Deposit} event.\r\n     * @param lpPool - Address of the pool to deposit tokens in.\r\n     * @param token  - Address of a token to enter the pool.\r\n     * @param amount - Amount of token sent.\r\n     * @param swapData - Parameter with which 1inch router is being called with.\r\n     * @param tokens - Tokens to deposit.\r\n     * @param minAmountLP - Minimum LP the user will receive from {tokens} deposit.\r\n     * @param recipient - Address which will receive the deposit.\r\n     \r\n     * @return sent - Total {token} amount sent to the farm. \r\n     * @return liquidity - Total liquidity sent to the farm (in lpTokens).\r\n     */\r\n    function depositSingleAsset(address lpPool, address token, uint256 amount, bytes[] calldata swapData, address[] calldata tokens, uint256 minAmountLP, address recipient) external whenNotPaused returns(uint256 sent, uint256 liquidity){\r\n        require(amount > 0, \"NO_TOKEN_SENT\");\r\n        require (swapData.length == tokens.length, 'SWAPDATA_AND_TOKENS_LENGHTS_NOT_MATCH');\r\n\r\n        Farm farm = Farm(farmFactory.Farms(lpPool));\r\n        if(farm == Farm(address(0))){\r\n            farm = Farm(farmFactory.createFarm(lpPool));\r\n        }\r\n\r\n        IERC20Upgradeable(token).safeTransferFrom(msg.sender, address(this), amount);\r\n        IERC20Upgradeable(token).approve(oneInchRouter, amount);\r\n\r\n        sent = amount;\r\n        uint256[] memory amounts = new uint256[](tokens.length);\r\n        {\r\n        int256 tokenIndex = -1;\r\n        for (uint256 i = 0; i < tokens.length; i++) {\r\n            if (tokens[i] == token) {\r\n                tokenIndex = int(i);\r\n                continue;\r\n            }\r\n            (uint256 returnAmount, uint256 spentAmount) = _swap(swapData[i]);\r\n            if (returnAmount > 0) {\r\n                amounts[i] = returnAmount;\r\n                IERC20Upgradeable(tokens[i]).safeTransfer(address(farm), returnAmount);\r\n            }\r\n            amount -= spentAmount;\r\n        }\r\n\r\n        if (tokenIndex != -1) {\r\n            amounts[uint256(tokenIndex)] = amount;\r\n            IERC20Upgradeable(token).safeTransfer(address(farm), amount);\r\n        } else if (amount > 0) {\r\n            sent -= amount;\r\n            IERC20Upgradeable(token).safeTransfer(msg.sender, amount);\r\n        }\r\n        }\r\n\r\n        liquidity = farm.deposit(amounts, tokens, minAmountLP, 0, recipient);\r\n        emit Deposit(lpPool, msg.sender, recipient, liquidity);\r\n    }\r\n\r\n    /**\r\n     * @dev Deposits single MATIC in the given pool. Creates new Farm contract if there isn't one deployed for the {lpPool}, swaps MATIC for pool tokens and deposits them. Emits a {Deposit} event.\r\n     * @param lpPool - Address of the pool to deposit tokens in.\r\n     * @param swapData - Parameter with which 1inch router is being called with.\r\n     * @param tokens - Tokens to deposit.\r\n     * @param minAmountLP - Minimum LP the user will receive from {tokens} deposit.\r\n     * @param recipient - Address which will receive the deposit.\r\n     \r\n     * @return sentETH - Total MATIC amount sent to the farm. \r\n     * @return liquidity - Total liquidity sent to the farm (in lpTokens).\r\n     */\r\n    function depositSingleETH(address lpPool, bytes[] calldata swapData, address[] calldata tokens, uint256 minAmountLP, address recipient) external payable whenNotPaused returns(uint256 sentETH, uint256 liquidity){\r\n        require(msg.value > 0, \"NO_MATIC_SENT\");\r\n        require (swapData.length == tokens.length, 'SWAPDATA_AND_TOKENS_LENGHTS_NOT_MATCH');\r\n\r\n        Farm farm = Farm(farmFactory.Farms(lpPool));\r\n        if(farm == Farm(address(0))){\r\n            farm = Farm(farmFactory.createFarm(lpPool));\r\n        }\r\n\r\n        uint256 amount = msg.value;\r\n        sentETH = amount;\r\n        IWMATIC(WMATIC).deposit{value: amount}();\r\n        IERC20Upgradeable(WMATIC).approve(oneInchRouter, amount);\r\n\r\n        int256 wmaticIndex = -1;\r\n        uint256[] memory amounts = new uint256[](tokens.length);\r\n        for (uint256 i = 0; i < tokens.length; i++) {\r\n            if (tokens[i] == WMATIC) {\r\n                wmaticIndex = int(i);\r\n                continue;\r\n            }\r\n            (uint256 returnAmount, uint256 spentAmount) = _swap(swapData[i]);\r\n            if (returnAmount > 0) {\r\n                amounts[i] = returnAmount;\r\n                IERC20Upgradeable(tokens[i]).safeTransfer(address(farm), returnAmount);\r\n            }\r\n            amount -= spentAmount;\r\n        }\r\n\r\n        if (wmaticIndex != -1) {\r\n            amounts[uint(wmaticIndex)] = amount;\r\n            IERC20Upgradeable(WMATIC).safeTransfer(address(farm), amount);\r\n        } else if (amount > 0){\r\n            sentETH -= amount;\r\n            IWMATIC(WMATIC).withdraw(amount);\r\n            payable(msg.sender).transfer(amount);\r\n        }\r\n\r\n        liquidity = farm.deposit(amounts, tokens, minAmountLP, 0, recipient);\r\n        emit Deposit(lpPool, msg.sender, recipient, liquidity);\r\n    }\r\n\r\n    /** \r\n     * @dev Withdraws tokens from the given pool. \r\n     * @param lpPool - LP pool to withdraw from.\r\n     * @param userData - If withdrawLP provide LP amount to withdraw, else use Balancer pool exit userData.\r\n     * @param minAmountsOut - Minimum token amounts the user will receive.\r\n     * @param withdrawLP - True: Withdraw in LP tokens, False: Withdraw in normal tokens.\r\n     * @param recipient - The address which will receive tokens.\r\n\r\n     * @return amounts - Token amounts sent to the {recipient}.\r\n     * @return liquidity - Total liquidity sent to the user (in lpTokens).\r\n     */ \r\n    function withdraw(address lpPool, bytes calldata userData, uint256[] calldata minAmountsOut, bool withdrawLP, address recipient) external returns(uint256[] memory amounts, uint256 liquidity){ \r\n        Farm farm = Farm(farmFactory.Farms(lpPool));\r\n        require(farm != Farm(address(0)),'FARM_NOT_EXISTS');\r\n\r\n        (amounts, liquidity) = farm.withdraw(userData, minAmountsOut, withdrawLP, msg.sender, recipient);\r\n        emit Withdraw(lpPool, msg.sender, recipient, liquidity);\r\n    }\r\n\r\n    /** \r\n     * @dev Autoconverts WMATIC into MATIC and withdraws tokens from the given pool. \r\n     * @param lpPool - LP pool to withdraw from.\r\n     * @param userData -  Balancer pool exit userData.\r\n     * @param minAmountsOut - Minimum token amounts the user will receive.\r\n     * @param recipient - The address which will receive tokens.\r\n\r\n     * @return amounts - Token amounts sent to the {recipient}.\r\n     * @return liquidity - Total liquidity sent to the user (in lpTokens).\r\n     */ \r\n    function withdrawETH(address lpPool, bytes calldata userData, uint256[] calldata minAmountsOut, address recipient) external returns(uint256[] memory amounts, uint256 liquidity){ \r\n        Farm farm = Farm(farmFactory.Farms(lpPool));\r\n        require(farm != Farm(address(0)),'FARM_NOT_EXISTS');\r\n\r\n        (amounts, liquidity) = farm.withdraw(userData, minAmountsOut, false, msg.sender, address(this));\r\n\r\n        IERC20[] memory tokens = getTokens(lpPool);\r\n        for (uint256 i = 0; i < tokens.length; i++) {\r\n            if (amounts[i] == 0){\r\n                continue;\r\n            }\r\n            if (address(tokens[i]) != WMATIC) {\r\n                IERC20Upgradeable(address(tokens[i])).safeTransfer(recipient, amounts[i]);\r\n                continue;\r\n            }\r\n            IWMATIC(WMATIC).withdraw(amounts[i]);\r\n            payable(recipient).transfer(amounts[i]);\r\n        }\r\n        emit Withdraw(lpPool, msg.sender, recipient, liquidity);  \r\n    }\r\n\r\n    /**\r\n     * @dev Distributes tokens between users for a single {Farms[lpPool]}.\r\n     * @param lpPool - The pool to distribute. \r\n     * @param swapInfos - The data used to swap reward tokens for the needed tokens.\r\n     * @param feeSwapInfos - The data used to swap reward tokens for fees.\r\n     * @param feeTo - Address to collect fees to.\r\n     *\r\n     * Note: This function can only be called by the distributor.\r\n     */\r\n    function distribute(\r\n        address lpPool,\r\n        Farm.SwapInfo[] calldata swapInfos,\r\n        Farm.SwapInfo[] calldata feeSwapInfos,\r\n        address feeTo\r\n    ) external whenNotPaused onlyRole(DISTRIBUTOR_ROLE) {\r\n        Farm farm = Farm(farmFactory.Farms(lpPool));\r\n        require(farm != Farm(address(0)), 'FARM_NOT_EXISTS');\r\n\r\n        uint256 reward = farm.distribute(swapInfos, feeSwapInfos, Farm.FeeInfo(feeTo, fee));\r\n        emit Distribute(lpPool, reward);\r\n    }\r\n\r\n    /**\r\n     * @dev Returns LP tokens staked by the {_address} for the given {lpPool}.\r\n     * @param _address - The address to check stakes for.\r\n     * @param lpPool - LP pool to check stakes in.\r\n\r\n     * @return Total user stake(in LP tokens).\r\n     */\r\n   function userStake(address _address, address lpPool) external view returns(uint256){\r\n        Farm farm = Farm(farmFactory.Farms(lpPool));\r\n        if (farm != Farm(address(0))) {\r\n            return farm.userBalance(_address);\r\n        }\r\n        return 0;\r\n    }\r\n\r\n    /**\r\n     * @dev Returns total amount locked in the pool. Doesn't take pending rewards into account.\r\n     * @param lpPool - LP pool to check total deposits in.\r\n\r\n     * @return Total deposits (in LP tokens).\r\n     */\r\n    function totalDeposits(address lpPool) external view returns (uint256) {\r\n        Farm farm = Farm(farmFactory.Farms(lpPool));\r\n        if (farm != Farm(address(0))) {\r\n            return farm.getTotalDeposits();\r\n        }\r\n        return 0;\r\n    }\r\n\r\n    /**\r\n     * @dev Returns addresses of tokens in {lpPool}.\r\n     * @param lpPool - LP pool to check tokens in.\r\n\r\n     * @return tokens - Token addresses.\r\n     */  \r\n    function getTokens(address lpPool) public view returns(IERC20[] memory tokens){\r\n        bytes32 poolId = IBasePool(lpPool).getPoolId();\r\n        (tokens, , ) = Vault.getPoolTokens(poolId);\r\n    }\r\n\r\n    /**\r\n     * @dev Swaps assets using 1inch exchange.\r\n     */  \r\n    function _swap(bytes calldata swapData) internal returns(uint256 returnAmount, uint256 spentAmount){\r\n        (bool success, bytes memory data) = oneInchRouter.call(swapData);\r\n        require(success, \"SWAP_NOT_SUCCESSFUL\");\r\n        (returnAmount, spentAmount) = abi.decode(data, (uint256, uint256));\r\n    }\r\n\r\n    /**\r\n     * @dev Change fee amount.\r\n     * @param _fee -New fee to collect from farms. [10^18 == 100%]\r\n     *\r\n     * Note: This function can only be called by ADMIN_ROLE.\r\n     */ \r\n    function setFee(uint256 _fee) external onlyRole(accessManager.ADMIN_ROLE()){\r\n        require (_fee <= 1 ether, \"BAD_FEE\");\r\n        if(fee != _fee){\r\n            emit FeeChanged(fee, _fee); \r\n            fee = _fee;\r\n        }\r\n    }\r\n \r\n    function pause() external onlyRole(PAUSER_ROLE) {\r\n        _pause();\r\n    }\r\n \r\n    function unpause() external onlyRole(PAUSER_ROLE) {\r\n        _unpause();\r\n    }\r\n\r\n    function _authorizeUpgrade(address) internal override onlyRole(accessManager.ADMIN_ROLE()) {\r\n\r\n    }\r\n}\r\n",
  "sourcePath": "C:\\Users\\jugli\\Desktop\\uno\\uno-contracts-copy\\contracts\\apps\\balancer\\UnoAssetRouterBalancer.sol",
  "compiler": {
    "name": "solc",
    "version": "0.8.10+commit.fc410830.Emscripten.clang"
  },
  "schemaVersion": "3.4.11",
  "updatedAt": "2022-12-16T14:13:27.549Z",
  "devdoc": {
    "kind": "dev",
    "methods": {
      "constructor": {
        "custom:oz-upgrades-unsafe-allow": "constructor"
      },
      "deposit(address,uint256[],address[],uint256,uint256,address)": {
        "details": "Deposits tokens in the given pool. Creates new Farm contract if there isn't one deployed for the {lpPool} and deposits tokens in it.",
        "params": {
          "amountLP": "- Additional amount of LP tokens to deposit.",
          "amounts": "- Amounts of tokens to deposit.",
          "lpPool": "- Address of the pool to deposit tokens in.",
          "minAmountLP": "- Minimum LP the user will receive from {tokens} deposit.",
          "recipient": "- Address which will receive the deposit.",
          "tokens": "- Tokens to deposit."
        },
        "returns": {
          "liquidity": "- Total liquidity sent to the farm (in lpTokens)."
        }
      },
      "depositETH(address,uint256[],address[],uint256,uint256,address)": {
        "details": "Autoconverts MATIC into WMATIC and deposits tokens in the given pool. Creates new Farm contract if there isn't one deployed for the {lpPool} and deposits tokens in it.",
        "params": {
          "amountLP": "- Additional amount of LP tokens to deposit.",
          "amounts": "- Amounts of tokens to deposit.",
          "lpPool": "- Address of the pool to deposit tokens in.",
          "minAmountLP": "- Minimum LP the user will receive from {tokens} deposit.",
          "recipient": "- Address which will receive the deposit.",
          "tokens": "- Tokens to deposit."
        },
        "returns": {
          "liquidity": "- Total liquidity sent to the farm (in lpTokens)."
        }
      },
      "depositSingleAsset(address,address,uint256,bytes[],address[],uint256,address)": {
        "details": "Deposits single token in the given pool. Creates new Farm contract if there isn't one deployed for the {lpPool}, swaps {token} for pool tokens and deposits them. Emits a {Deposit} event.",
        "params": {
          "amount": "- Amount of token sent.",
          "lpPool": "- Address of the pool to deposit tokens in.",
          "minAmountLP": "- Minimum LP the user will receive from {tokens} deposit.",
          "recipient": "- Address which will receive the deposit.",
          "swapData": "- Parameter with which 1inch router is being called with.",
          "token": "- Address of a token to enter the pool.",
          "tokens": "- Tokens to deposit."
        },
        "returns": {
          "liquidity": "- Total liquidity sent to the farm (in lpTokens).",
          "sent": "- Total {token} amount sent to the farm. "
        }
      },
      "depositSingleETH(address,bytes[],address[],uint256,address)": {
        "details": "Deposits single MATIC in the given pool. Creates new Farm contract if there isn't one deployed for the {lpPool}, swaps MATIC for pool tokens and deposits them. Emits a {Deposit} event.",
        "params": {
          "lpPool": "- Address of the pool to deposit tokens in.",
          "minAmountLP": "- Minimum LP the user will receive from {tokens} deposit.",
          "recipient": "- Address which will receive the deposit.",
          "swapData": "- Parameter with which 1inch router is being called with.",
          "tokens": "- Tokens to deposit."
        },
        "returns": {
          "liquidity": "- Total liquidity sent to the farm (in lpTokens).",
          "sentETH": "- Total MATIC amount sent to the farm. "
        }
      },
      "distribute(address,((bytes32,uint256,uint256,uint256,bytes)[],address[],int256[])[],((bytes32,uint256,uint256,uint256,bytes)[],address[],int256[])[],address)": {
        "details": "Distributes tokens between users for a single {Farms[lpPool]}.",
        "params": {
          "feeSwapInfos": "- The data used to swap reward tokens for fees.",
          "feeTo": "- Address to collect fees to. Note: This function can only be called by the distributor.",
          "lpPool": "- The pool to distribute. ",
          "swapInfos": "- The data used to swap reward tokens for the needed tokens."
        }
      },
      "getTokens(address)": {
        "details": "Returns addresses of tokens in {lpPool}.",
        "params": {
          "lpPool": "- LP pool to check tokens in."
        },
        "returns": {
          "tokens": "- Token addresses."
        }
      },
      "paused()": {
        "details": "Returns true if the contract is paused, and false otherwise."
      },
      "proxiableUUID()": {
        "details": "Implementation of the ERC1822 {proxiableUUID} function. This returns the storage slot used by the implementation. It is used to validate that the this implementation remains valid after an upgrade. IMPORTANT: A proxy pointing at a proxiable contract should not be considered proxiable itself, because this risks bricking a proxy that upgrades to it, by delegating to itself until out of gas. Thus it is critical that this function revert if invoked through a proxy. This is guaranteed by the `notDelegated` modifier."
      },
      "setFee(uint256)": {
        "details": "Change fee amount.",
        "params": {
          "_fee": "-New fee to collect from farms. [10^18 == 100%] Note: This function can only be called by ADMIN_ROLE."
        }
      },
      "totalDeposits(address)": {
        "details": "Returns total amount locked in the pool. Doesn't take pending rewards into account.",
        "params": {
          "lpPool": "- LP pool to check total deposits in."
        },
        "returns": {
          "_0": "Total deposits (in LP tokens)."
        }
      },
      "upgradeTo(address)": {
        "details": "Upgrade the implementation of the proxy to `newImplementation`. Calls {_authorizeUpgrade}. Emits an {Upgraded} event."
      },
      "upgradeToAndCall(address,bytes)": {
        "details": "Upgrade the implementation of the proxy to `newImplementation`, and subsequently execute the function call encoded in `data`. Calls {_authorizeUpgrade}. Emits an {Upgraded} event."
      },
      "userStake(address,address)": {
        "details": "Returns LP tokens staked by the {_address} for the given {lpPool}.",
        "params": {
          "_address": "- The address to check stakes for.",
          "lpPool": "- LP pool to check stakes in."
        },
        "returns": {
          "_0": "Total user stake(in LP tokens)."
        }
      },
      "withdraw(address,bytes,uint256[],bool,address)": {
        "details": "Withdraws tokens from the given pool. ",
        "params": {
          "lpPool": "- LP pool to withdraw from.",
          "minAmountsOut": "- Minimum token amounts the user will receive.",
          "recipient": "- The address which will receive tokens.",
          "userData": "- If withdrawLP provide LP amount to withdraw, else use Balancer pool exit userData.",
          "withdrawLP": "- True: Withdraw in LP tokens, False: Withdraw in normal tokens."
        },
        "returns": {
          "amounts": "- Token amounts sent to the {recipient}.",
          "liquidity": "- Total liquidity sent to the user (in lpTokens)."
        }
      },
      "withdrawETH(address,bytes,uint256[],address)": {
        "details": "Autoconverts WMATIC into MATIC and withdraws tokens from the given pool. ",
        "params": {
          "lpPool": "- LP pool to withdraw from.",
          "minAmountsOut": "- Minimum token amounts the user will receive.",
          "recipient": "- The address which will receive tokens.",
          "userData": "-  Balancer pool exit userData."
        },
        "returns": {
          "amounts": "- Token amounts sent to the {recipient}.",
          "liquidity": "- Total liquidity sent to the user (in lpTokens)."
        }
      }
    },
    "stateVariables": {
      "farmFactory": {
        "details": "Contract Variables: farmFactory - The contract that deploys new Farms and links them to {lpPool}s. accessManager - Role manager contract."
      }
    },
    "version": 1
  },
  "userdoc": {
    "kind": "user",
    "methods": {},
    "version": 1
  }
}