{
  "contractName": "UnoAssetRouterQuickswapDualV2",
  "abi": [
    {
      "inputs": [],
      "stateMutability": "nonpayable",
      "type": "constructor"
    },
    {
      "anonymous": false,
      "inputs": [
        {
          "indexed": false,
          "internalType": "address",
          "name": "previousAdmin",
          "type": "address"
        },
        {
          "indexed": false,
          "internalType": "address",
          "name": "newAdmin",
          "type": "address"
        }
      ],
      "name": "AdminChanged",
      "type": "event"
    },
    {
      "anonymous": false,
      "inputs": [
        {
          "indexed": true,
          "internalType": "address",
          "name": "beacon",
          "type": "address"
        }
      ],
      "name": "BeaconUpgraded",
      "type": "event"
    },
    {
      "anonymous": false,
      "inputs": [
        {
          "indexed": true,
          "internalType": "address",
          "name": "lpPool",
          "type": "address"
        },
        {
          "indexed": true,
          "internalType": "address",
          "name": "sender",
          "type": "address"
        },
        {
          "indexed": true,
          "internalType": "address",
          "name": "recipient",
          "type": "address"
        },
        {
          "indexed": false,
          "internalType": "uint256",
          "name": "amount",
          "type": "uint256"
        }
      ],
      "name": "Deposit",
      "type": "event"
    },
    {
      "anonymous": false,
      "inputs": [
        {
          "indexed": true,
          "internalType": "address",
          "name": "lpPool",
          "type": "address"
        },
        {
          "indexed": false,
          "internalType": "uint256",
          "name": "reward",
          "type": "uint256"
        }
      ],
      "name": "Distribute",
      "type": "event"
    },
    {
      "anonymous": false,
      "inputs": [
        {
          "indexed": false,
          "internalType": "uint256",
          "name": "previousFee",
          "type": "uint256"
        },
        {
          "indexed": false,
          "internalType": "uint256",
          "name": "newFee",
          "type": "uint256"
        }
      ],
      "name": "FeeChanged",
      "type": "event"
    },
    {
      "anonymous": false,
      "inputs": [
        {
          "indexed": false,
          "internalType": "uint8",
          "name": "version",
          "type": "uint8"
        }
      ],
      "name": "Initialized",
      "type": "event"
    },
    {
      "anonymous": false,
      "inputs": [
        {
          "indexed": false,
          "internalType": "address",
          "name": "account",
          "type": "address"
        }
      ],
      "name": "Paused",
      "type": "event"
    },
    {
      "anonymous": false,
      "inputs": [
        {
          "indexed": false,
          "internalType": "address",
          "name": "account",
          "type": "address"
        }
      ],
      "name": "Unpaused",
      "type": "event"
    },
    {
      "anonymous": false,
      "inputs": [
        {
          "indexed": true,
          "internalType": "address",
          "name": "implementation",
          "type": "address"
        }
      ],
      "name": "Upgraded",
      "type": "event"
    },
    {
      "anonymous": false,
      "inputs": [
        {
          "indexed": true,
          "internalType": "address",
          "name": "lpPool",
          "type": "address"
        },
        {
          "indexed": true,
          "internalType": "address",
          "name": "sender",
          "type": "address"
        },
        {
          "indexed": true,
          "internalType": "address",
          "name": "recipient",
          "type": "address"
        },
        {
          "indexed": false,
          "internalType": "uint256",
          "name": "amount",
          "type": "uint256"
        }
      ],
      "name": "Withdraw",
      "type": "event"
    },
    {
      "inputs": [],
      "name": "WMATIC",
      "outputs": [
        {
          "internalType": "address",
          "name": "",
          "type": "address"
        }
      ],
      "stateMutability": "view",
      "type": "function"
    },
    {
      "inputs": [],
      "name": "accessManager",
      "outputs": [
        {
          "internalType": "contract IUnoAccessManager",
          "name": "",
          "type": "address"
        }
      ],
      "stateMutability": "view",
      "type": "function"
    },
    {
      "inputs": [],
      "name": "farmFactory",
      "outputs": [
        {
          "internalType": "contract IUnoFarmFactory",
          "name": "",
          "type": "address"
        }
      ],
      "stateMutability": "view",
      "type": "function"
    },
    {
      "inputs": [],
      "name": "fee",
      "outputs": [
        {
          "internalType": "uint256",
          "name": "",
          "type": "uint256"
        }
      ],
      "stateMutability": "view",
      "type": "function"
    },
    {
      "inputs": [],
      "name": "paused",
      "outputs": [
        {
          "internalType": "bool",
          "name": "",
          "type": "bool"
        }
      ],
      "stateMutability": "view",
      "type": "function"
    },
    {
      "inputs": [],
      "name": "proxiableUUID",
      "outputs": [
        {
          "internalType": "bytes32",
          "name": "",
          "type": "bytes32"
        }
      ],
      "stateMutability": "view",
      "type": "function"
    },
    {
      "inputs": [
        {
          "internalType": "address",
          "name": "newImplementation",
          "type": "address"
        }
      ],
      "name": "upgradeTo",
      "outputs": [],
      "stateMutability": "nonpayable",
      "type": "function"
    },
    {
      "inputs": [
        {
          "internalType": "address",
          "name": "newImplementation",
          "type": "address"
        },
        {
          "internalType": "bytes",
          "name": "data",
          "type": "bytes"
        }
      ],
      "name": "upgradeToAndCall",
      "outputs": [],
      "stateMutability": "payable",
      "type": "function"
    },
    {
      "inputs": [],
      "name": "version",
      "outputs": [
        {
          "internalType": "uint256",
          "name": "",
          "type": "uint256"
        }
      ],
      "stateMutability": "view",
      "type": "function"
    },
    {
      "stateMutability": "payable",
      "type": "receive"
    },
    {
      "inputs": [
        {
          "internalType": "address",
          "name": "_accessManager",
          "type": "address"
        },
        {
          "internalType": "address",
          "name": "_farmFactory",
          "type": "address"
        }
      ],
      "name": "initialize",
      "outputs": [],
      "stateMutability": "nonpayable",
      "type": "function"
    },
    {
      "inputs": [
        {
          "internalType": "address",
          "name": "lpStakingPool",
          "type": "address"
        },
        {
          "internalType": "uint256",
          "name": "amountA",
          "type": "uint256"
        },
        {
          "internalType": "uint256",
          "name": "amountB",
          "type": "uint256"
        },
        {
          "internalType": "uint256",
          "name": "amountAMin",
          "type": "uint256"
        },
        {
          "internalType": "uint256",
          "name": "amountBMin",
          "type": "uint256"
        },
        {
          "internalType": "address",
          "name": "recipient",
          "type": "address"
        }
      ],
      "name": "deposit",
      "outputs": [
        {
          "internalType": "uint256",
          "name": "sentA",
          "type": "uint256"
        },
        {
          "internalType": "uint256",
          "name": "sentB",
          "type": "uint256"
        },
        {
          "internalType": "uint256",
          "name": "liquidity",
          "type": "uint256"
        }
      ],
      "stateMutability": "nonpayable",
      "type": "function"
    },
    {
      "inputs": [
        {
          "internalType": "address",
          "name": "lpStakingPool",
          "type": "address"
        },
        {
          "internalType": "uint256",
          "name": "amountToken",
          "type": "uint256"
        },
        {
          "internalType": "uint256",
          "name": "amountTokenMin",
          "type": "uint256"
        },
        {
          "internalType": "uint256",
          "name": "amountETHMin",
          "type": "uint256"
        },
        {
          "internalType": "address",
          "name": "recipient",
          "type": "address"
        }
      ],
      "name": "depositETH",
      "outputs": [
        {
          "internalType": "uint256",
          "name": "sentToken",
          "type": "uint256"
        },
        {
          "internalType": "uint256",
          "name": "sentETH",
          "type": "uint256"
        },
        {
          "internalType": "uint256",
          "name": "liquidity",
          "type": "uint256"
        }
      ],
      "stateMutability": "payable",
      "type": "function"
    },
    {
      "inputs": [
        {
          "internalType": "address",
          "name": "lpStakingPool",
          "type": "address"
        },
        {
          "internalType": "address",
          "name": "token",
          "type": "address"
        },
        {
          "internalType": "uint256",
          "name": "amount",
          "type": "uint256"
        },
        {
          "internalType": "bytes[2]",
          "name": "swapData",
          "type": "bytes[2]"
        },
        {
          "internalType": "uint256",
          "name": "amountAMin",
          "type": "uint256"
        },
        {
          "internalType": "uint256",
          "name": "amountBMin",
          "type": "uint256"
        },
        {
          "internalType": "address",
          "name": "recipient",
          "type": "address"
        }
      ],
      "name": "depositSingleAsset",
      "outputs": [
        {
          "internalType": "uint256",
          "name": "sent",
          "type": "uint256"
        },
        {
          "internalType": "uint256",
          "name": "liquidity",
          "type": "uint256"
        }
      ],
      "stateMutability": "nonpayable",
      "type": "function"
    },
    {
      "inputs": [
        {
          "internalType": "address",
          "name": "lpStakingPool",
          "type": "address"
        },
        {
          "internalType": "bytes[2]",
          "name": "swapData",
          "type": "bytes[2]"
        },
        {
          "internalType": "uint256",
          "name": "amountAMin",
          "type": "uint256"
        },
        {
          "internalType": "uint256",
          "name": "amountBMin",
          "type": "uint256"
        },
        {
          "internalType": "address",
          "name": "recipient",
          "type": "address"
        }
      ],
      "name": "depositSingleETH",
      "outputs": [
        {
          "internalType": "uint256",
          "name": "sentETH",
          "type": "uint256"
        },
        {
          "internalType": "uint256",
          "name": "liquidity",
          "type": "uint256"
        }
      ],
      "stateMutability": "payable",
      "type": "function"
    },
    {
      "inputs": [
        {
          "internalType": "address",
          "name": "lpStakingPool",
          "type": "address"
        },
        {
          "internalType": "uint256",
          "name": "amount",
          "type": "uint256"
        },
        {
          "internalType": "address",
          "name": "recipient",
          "type": "address"
        }
      ],
      "name": "depositLP",
      "outputs": [],
      "stateMutability": "nonpayable",
      "type": "function"
    },
    {
      "inputs": [
        {
          "internalType": "address",
          "name": "lpStakingPool",
          "type": "address"
        },
        {
          "internalType": "uint256",
          "name": "amount",
          "type": "uint256"
        },
        {
          "internalType": "uint256",
          "name": "amountAMin",
          "type": "uint256"
        },
        {
          "internalType": "uint256",
          "name": "amountBMin",
          "type": "uint256"
        },
        {
          "internalType": "address",
          "name": "recipient",
          "type": "address"
        }
      ],
      "name": "withdraw",
      "outputs": [
        {
          "internalType": "uint256",
          "name": "amountA",
          "type": "uint256"
        },
        {
          "internalType": "uint256",
          "name": "amountB",
          "type": "uint256"
        }
      ],
      "stateMutability": "nonpayable",
      "type": "function"
    },
    {
      "inputs": [
        {
          "internalType": "address",
          "name": "lpStakingPool",
          "type": "address"
        },
        {
          "internalType": "uint256",
          "name": "amount",
          "type": "uint256"
        },
        {
          "internalType": "uint256",
          "name": "amountTokenMin",
          "type": "uint256"
        },
        {
          "internalType": "uint256",
          "name": "amountETHMin",
          "type": "uint256"
        },
        {
          "internalType": "address",
          "name": "recipient",
          "type": "address"
        }
      ],
      "name": "withdrawETH",
      "outputs": [
        {
          "internalType": "uint256",
          "name": "amountToken",
          "type": "uint256"
        },
        {
          "internalType": "uint256",
          "name": "amountETH",
          "type": "uint256"
        }
      ],
      "stateMutability": "nonpayable",
      "type": "function"
    },
    {
      "inputs": [
        {
          "internalType": "address",
          "name": "lpStakingPool",
          "type": "address"
        },
        {
          "internalType": "uint256",
          "name": "amount",
          "type": "uint256"
        },
        {
          "internalType": "address",
          "name": "token",
          "type": "address"
        },
        {
          "internalType": "bytes[2]",
          "name": "swapData",
          "type": "bytes[2]"
        },
        {
          "internalType": "address",
          "name": "recipient",
          "type": "address"
        }
      ],
      "name": "withdrawSingleAsset",
      "outputs": [
        {
          "internalType": "uint256",
          "name": "amountToken",
          "type": "uint256"
        },
        {
          "internalType": "uint256",
          "name": "amountA",
          "type": "uint256"
        },
        {
          "internalType": "uint256",
          "name": "amountB",
          "type": "uint256"
        }
      ],
      "stateMutability": "nonpayable",
      "type": "function"
    },
    {
      "inputs": [
        {
          "internalType": "address",
          "name": "lpStakingPool",
          "type": "address"
        },
        {
          "internalType": "uint256",
          "name": "amount",
          "type": "uint256"
        },
        {
          "internalType": "bytes[2]",
          "name": "swapData",
          "type": "bytes[2]"
        },
        {
          "internalType": "address",
          "name": "recipient",
          "type": "address"
        }
      ],
      "name": "withdrawSingleETH",
      "outputs": [
        {
          "internalType": "uint256",
          "name": "amountETH",
          "type": "uint256"
        },
        {
          "internalType": "uint256",
          "name": "amountA",
          "type": "uint256"
        },
        {
          "internalType": "uint256",
          "name": "amountB",
          "type": "uint256"
        }
      ],
      "stateMutability": "nonpayable",
      "type": "function"
    },
    {
      "inputs": [
        {
          "internalType": "address",
          "name": "lpStakingPool",
          "type": "address"
        },
        {
          "internalType": "uint256",
          "name": "amount",
          "type": "uint256"
        },
        {
          "internalType": "address",
          "name": "recipient",
          "type": "address"
        }
      ],
      "name": "withdrawLP",
      "outputs": [],
      "stateMutability": "nonpayable",
      "type": "function"
    },
    {
      "inputs": [
        {
          "internalType": "address",
          "name": "lpStakingPool",
          "type": "address"
        },
        {
          "components": [
            {
              "internalType": "address[]",
              "name": "route",
              "type": "address[]"
            },
            {
              "internalType": "uint256",
              "name": "amountOutMin",
              "type": "uint256"
            }
          ],
          "internalType": "struct IUnoFarmQuickswapDual.SwapInfo[4]",
          "name": "swapInfos",
          "type": "tuple[4]"
        },
        {
          "internalType": "address",
          "name": "feeTo",
          "type": "address"
        }
      ],
      "name": "distribute",
      "outputs": [],
      "stateMutability": "nonpayable",
      "type": "function"
    },
    {
      "inputs": [
        {
          "internalType": "address",
          "name": "_address",
          "type": "address"
        },
        {
          "internalType": "address",
          "name": "lpStakingPool",
          "type": "address"
        }
      ],
      "name": "userStake",
      "outputs": [
        {
          "internalType": "uint256",
          "name": "stakeLP",
          "type": "uint256"
        },
        {
          "internalType": "uint256",
          "name": "stakeA",
          "type": "uint256"
        },
        {
          "internalType": "uint256",
          "name": "stakeB",
          "type": "uint256"
        }
      ],
      "stateMutability": "view",
      "type": "function"
    },
    {
      "inputs": [
        {
          "internalType": "address",
          "name": "lpStakingPool",
          "type": "address"
        }
      ],
      "name": "totalDeposits",
      "outputs": [
        {
          "internalType": "uint256",
          "name": "totalDepositsLP",
          "type": "uint256"
        },
        {
          "internalType": "uint256",
          "name": "totalDepositsA",
          "type": "uint256"
        },
        {
          "internalType": "uint256",
          "name": "totalDepositsB",
          "type": "uint256"
        }
      ],
      "stateMutability": "view",
      "type": "function"
    },
    {
      "inputs": [
        {
          "internalType": "address",
          "name": "lpStakingPool",
          "type": "address"
        }
      ],
      "name": "getTokens",
      "outputs": [
        {
          "internalType": "contract IERC20[]",
          "name": "tokens",
          "type": "address[]"
        }
      ],
      "stateMutability": "view",
      "type": "function"
    },
    {
      "inputs": [
        {
          "internalType": "uint256",
          "name": "_fee",
          "type": "uint256"
        }
      ],
      "name": "setFee",
      "outputs": [],
      "stateMutability": "nonpayable",
      "type": "function"
    },
    {
      "inputs": [],
      "name": "pause",
      "outputs": [],
      "stateMutability": "nonpayable",
      "type": "function"
    },
    {
      "inputs": [],
      "name": "unpause",
      "outputs": [],
      "stateMutability": "nonpayable",
      "type": "function"
    }
  ],
  "bytecode": "0x60a0604052306080523480156200001557600080fd5b506200002062000026565b62000156565b6200003260ff62000035565b50565b60008054610100900460ff1615620000ce578160ff1660011480156200006e57506200006c306200014760201b620037071760201c565b155b620000c65760405162461bcd60e51b815260206004820152602e60248201526000805160206200576683398151915260448201526d191e481a5b9a5d1a585b1a5e995960921b60648201526084015b60405180910390fd5b506000919050565b60005460ff8084169116106200012d5760405162461bcd60e51b815260206004820152602e60248201526000805160206200576683398151915260448201526d191e481a5b9a5d1a585b1a5e995960921b6064820152608401620000bd565b506000805460ff191660ff92909216919091179055600190565b6001600160a01b03163b151590565b6080516155d86200018e60003960008181610a6601528181610aa60152818161114801528181611188015261138c01526155d86000f3fe6080604052600436106101a05760003560e01c806369fe0e2d116100ec578063d84ff8421161008a578063e50e637111610064578063e50e637114610529578063e940325614610549578063fdcb606814610569578063fefa40941461058957600080fd5b8063d84ff842146104d3578063ddca3f43146104f3578063deb03f4d1461050957600080fd5b80637d795628116100c65780637d7956281461046b5780638456cb591461047e578063a475626c14610493578063be548aeb146104b357600080fd5b806369fe0e2d146103f65780636c2b5517146104165780636d25e1751461044b57600080fd5b80634d95cad91161015957806352d1902d1161013357806352d1902d1461037b57806354fd4d501461039e5780635c975abb146103b35780636505e65e146103d657600080fd5b80634d95cad91461030e5780634f1ef2861461034857806351bdca3e1461035b57600080fd5b80632f2255cc1461022c5780633659cfe61461026c5780633f4ba83a1461028c578063450efe21146102a157806346dafa2f146102ce578063485cc955146102ee57600080fd5b36610227573360008051602061558383398151915214806101d457503373a5e0829caced8ffdd4de3c43696c57f7d7a678ff145b6102255760405162461bcd60e51b815260206004820152601c60248201527f4f4e4c595f4143434550545f574d415449435f4f525f524f555445520000000060448201526064015b60405180910390fd5b005b600080fd5b34801561023857600080fd5b5061024c610247366004614a90565b61059c565b604080519384526020840192909252908201526060015b60405180910390f35b34801561027857600080fd5b50610225610287366004614b11565b610a5b565b34801561029857600080fd5b50610225610b3b565b3480156102ad57600080fd5b506102c16102bc366004614b11565b610bf2565b6040516102639190614b2e565b3480156102da57600080fd5b506102256102e9366004614b7b565b610da8565b3480156102fa57600080fd5b50610225610309366004614bbd565b611002565b34801561031a57600080fd5b5061033060008051602061558383398151915281565b6040516001600160a01b039091168152602001610263565b610225610356366004614c0c565b61113d565b34801561036757600080fd5b5061024c610376366004614bbd565b61120e565b34801561038757600080fd5b5061039061137f565b604051908152602001610263565b3480156103aa57600080fd5b50610390600281565b3480156103bf57600080fd5b5060335460ff166040519015158152602001610263565b3480156103e257600080fd5b5061024c6103f1366004614cd0565b611432565b34801561040257600080fd5b50610225610411366004614d2e565b611741565b34801561042257600080fd5b50610436610431366004614d47565b6118d4565b60408051928352602083019190915201610263565b34801561045757600080fd5b5060c954610330906001600160a01b031681565b610436610479366004614ddb565b611d7d565b34801561048a57600080fd5b50610225612308565b34801561049f57600080fd5b5061024c6104ae366004614e45565b6123bf565b3480156104bf57600080fd5b506102256104ce366004614eb1565b61291d565b3480156104df57600080fd5b506104366104ee366004614f0f565b612b5a565b3480156104ff57600080fd5b5061039060cb5481565b34801561051557600080fd5b50610436610524366004614f0f565b612dcd565b34801561053557600080fd5b50610225610544366004614b7b565b6130f0565b34801561055557600080fd5b5061024c610564366004614b11565b613226565b34801561057557600080fd5b5060ca54610330906001600160a01b031681565b61024c610597366004614f0f565b61338f565b60008060006105ad60335460ff1690565b156105ca5760405162461bcd60e51b815260040161021c90614f57565b60c95460405163f9d9331d60e01b81526001600160a01b038a81166004830152600092169063f9d9331d90602401602060405180830381865afa158015610615573d6000803e3d6000fd5b505050506040513d601f19601f820116820180604052508101906106399190614f81565b90506001600160a01b0381166106615760405162461bcd60e51b815260040161021c90614f9e565b604051632d182be560e21b81526001600160a01b0382169063b460af9490610691908b9033903090600401614fc7565b600060405180830381600087803b1580156106ab57600080fd5b505af11580156106bf573d6000803e3d6000fd5b505050506000816001600160a01b0316630fc63d106040518163ffffffff1660e01b8152600401602060405180830381865afa158015610703573d6000803e3d6000fd5b505050506040513d601f19601f820116820180604052508101906107279190614f81565b90506000826001600160a01b0316635f64b55b6040518163ffffffff1660e01b8152600401602060405180830381865afa158015610769573d6000803e3d6000fd5b505050506040513d601f19601f8201168201806040525081019061078d9190614f81565b9050610800836001600160a01b0316633737bcb46040518163ffffffff1660e01b8152600401602060405180830381865afa1580156107d0573d6000803e3d6000fd5b505050506040513d601f19601f820116820180604052508101906107f49190614f81565b83838d60008030613716565b90955093506001600160a01b03828116908a16146108f55760405163095ea7b360e01b81526001600160a01b0383169063095ea7b39061085a90731111111254eeb25477b68fb85ed929f73a960582908990600401614fe6565b6020604051808303816000875af1158015610879573d6000803e3d6000fd5b505050506040513d601f19601f8201168201806040525081019061089d9190614fff565b506000806108bd8a825b6020028101906108b79190615037565b8d613857565b90925090506108cc828961509b565b97506108d881886150b3565b96506108ee6001600160a01b0385168a89613a61565b5050610902565b6108ff858761509b565b95505b886001600160a01b0316816001600160a01b0316146109e75760405163095ea7b360e01b81526001600160a01b0382169063095ea7b39061095d90731111111254eeb25477b68fb85ed929f73a960582908890600401614fe6565b6020604051808303816000875af115801561097c573d6000803e3d6000fd5b505050506040513d601f19601f820116820180604052508101906109a09190614fff565b506000806109af8a60016108a7565b90925090506109be828961509b565b97506109ca81876150b3565b95506109e06001600160a01b0384168a88613a61565b50506109f4565b6109f1848761509b565b95505b610a086001600160a01b038a168888613a61565b866001600160a01b0316336001600160a01b03168c6001600160a01b03166000805160206154fc8339815191528d604051610a4591815260200190565b60405180910390a4505050955095509592505050565b306001600160a01b037f0000000000000000000000000000000000000000000000000000000000000000161415610aa45760405162461bcd60e51b815260040161021c906150ca565b7f00000000000000000000000000000000000000000000000000000000000000006001600160a01b0316610aed60008051602061551c833981519152546001600160a01b031690565b6001600160a01b031614610b135760405162461bcd60e51b815260040161021c90615116565b610b1c81613ab7565b60408051600080825260208201909252610b3891839190613bbd565b50565b60ca54604051632474521560e21b81527f65d7a28e3265b37a6474929f336521b332c1681b933f6cb9f3376673440d862a60048201819052336024830152916001600160a01b0316906391d1485490604401602060405180830381865afa158015610baa573d6000803e3d6000fd5b505050506040513d601f19601f82011682018060405250810190610bce9190614fff565b610bea5760405162461bcd60e51b815260040161021c90615162565b610b38613d28565b60408051600280825260608083018452926020830190803683370190505090506000826001600160a01b03166372f702f36040518163ffffffff1660e01b8152600401602060405180830381865afa158015610c52573d6000803e3d6000fd5b505050506040513d601f19601f82011682018060405250810190610c769190614f81565b9050806001600160a01b0316630dfe16816040518163ffffffff1660e01b8152600401602060405180830381865afa158015610cb6573d6000803e3d6000fd5b505050506040513d601f19601f82011682018060405250810190610cda9190614f81565b82600081518110610ced57610ced615021565b60200260200101906001600160a01b031690816001600160a01b031681525050806001600160a01b031663d21220a76040518163ffffffff1660e01b8152600401602060405180830381865afa158015610d4b573d6000803e3d6000fd5b505050506040513d601f19601f82011682018060405250810190610d6f9190614f81565b82600181518110610d8257610d82615021565b60200260200101906001600160a01b031690816001600160a01b03168152505050919050565b60335460ff1615610dcb5760405162461bcd60e51b815260040161021c90614f57565b60008211610deb5760405162461bcd60e51b815260040161021c90615191565b60c95460405163f9d9331d60e01b81526001600160a01b038581166004830152600092169063f9d9331d90602401602060405180830381865afa158015610e36573d6000803e3d6000fd5b505050506040513d601f19601f82011682018060405250810190610e5a9190614f81565b90506001600160a01b038116610edc5760c954604051621849e360e61b81526001600160a01b0386811660048301529091169063061278c0906024016020604051808303816000875af1158015610eb5573d6000803e3d6000fd5b505050506040513d601f19601f82011682018060405250810190610ed99190614f81565b90505b610f55338285846001600160a01b0316633737bcb46040518163ffffffff1660e01b8152600401602060405180830381865afa158015610f20573d6000803e3d6000fd5b505050506040513d601f19601f82011682018060405250810190610f449190614f81565b6001600160a01b0316929190613dbb565b604051636e553f6560e01b8152600481018490526001600160a01b038381166024830152821690636e553f6590604401600060405180830381600087803b158015610f9f57600080fd5b505af1158015610fb3573d6000803e3d6000fd5b50505050816001600160a01b0316336001600160a01b0316856001600160a01b031660008051602061553c83398151915286604051610ff491815260200190565b60405180910390a450505050565b600061100e6001613df9565b90508015611026576000805461ff0019166101001790555b6001600160a01b0383166110715760405162461bcd60e51b81526020600482015260126024820152712120a22fa0a1a1a2a9a9afa6a0a720a3a2a960711b604482015260640161021c565b6001600160a01b0382166110ba5760405162461bcd60e51b815260206004820152601060248201526f4241445f4641524d5f464143544f525960801b604482015260640161021c565b6110c2613e81565b60ca80546001600160a01b038086166001600160a01b03199283161790925560c98054928516929091169190911790558015611138576000805461ff0019169055604051600181527f7f26b83ff96e1f2b6a682f133852f6798a09c465da95921460cefb38474024989060200160405180910390a15b505050565b306001600160a01b037f00000000000000000000000000000000000000000000000000000000000000001614156111865760405162461bcd60e51b815260040161021c906150ca565b7f00000000000000000000000000000000000000000000000000000000000000006001600160a01b03166111cf60008051602061551c833981519152546001600160a01b031690565b6001600160a01b0316146111f55760405162461bcd60e51b815260040161021c90615116565b6111fe82613ab7565b61120a82826001613bbd565b5050565b60c95460405163f9d9331d60e01b81526001600160a01b038381166004830152600092839283928392169063f9d9331d90602401602060405180830381865afa15801561125f573d6000803e3d6000fd5b505050506040513d601f19601f820116820180604052508101906112839190614f81565b90506001600160a01b0381161561137757604051630103c92b60e01b81526001600160a01b038781166004830152821690630103c92b90602401602060405180830381865afa1580156112da573d6000803e3d6000fd5b505050506040513d601f19601f820116820180604052508101906112fe91906151b8565b93506000816001600160a01b0316633737bcb46040518163ffffffff1660e01b8152600401602060405180830381865afa158015611340573d6000803e3d6000fd5b505050506040513d601f19601f820116820180604052508101906113649190614f81565b90506113708186613eb2565b9094509250505b509250925092565b6000306001600160a01b037f0000000000000000000000000000000000000000000000000000000000000000161461141f5760405162461bcd60e51b815260206004820152603860248201527f555550535570677261646561626c653a206d757374206e6f742062652063616c60448201527f6c6564207468726f7567682064656c656761746563616c6c0000000000000000606482015260840161021c565b5060008051602061551c83398151915290565b600080600061144360335460ff1690565b156114605760405162461bcd60e51b815260040161021c90614f57565b6000881180156114705750600087115b61148c5760405162461bcd60e51b815260040161021c906151d1565b60c95460405163f9d9331d60e01b81526001600160a01b038b81166004830152600092169063f9d9331d90602401602060405180830381865afa1580156114d7573d6000803e3d6000fd5b505050506040513d601f19601f820116820180604052508101906114fb9190614f81565b90506001600160a01b03811661157d5760c954604051621849e360e61b81526001600160a01b038c811660048301529091169063061278c0906024016020604051808303816000875af1158015611556573d6000803e3d6000fd5b505050506040513d601f19601f8201168201806040525081019061157a9190614f81565b90505b6000816001600160a01b0316630fc63d106040518163ffffffff1660e01b8152600401602060405180830381865afa1580156115bd573d6000803e3d6000fd5b505050506040513d601f19601f820116820180604052508101906115e19190614f81565b90506000826001600160a01b0316635f64b55b6040518163ffffffff1660e01b8152600401602060405180830381865afa158015611623573d6000803e3d6000fd5b505050506040513d601f19601f820116820180604052508101906116479190614f81565b905061165e6001600160a01b03831633308e613dbb565b6116736001600160a01b03821633308d613dbb565b61168282828d8d8d8d896140ed565b604051636e553f6560e01b8152600481018290526001600160a01b038b81166024830152939950919750955090841690636e553f6590604401600060405180830381600087803b1580156116d557600080fd5b505af11580156116e9573d6000803e3d6000fd5b50505050866001600160a01b0316336001600160a01b03168d6001600160a01b031660008051602061553c8339815191528760405161172a91815260200190565b60405180910390a450505096509650969350505050565b60ca60009054906101000a90046001600160a01b03166001600160a01b03166375b238fc6040518163ffffffff1660e01b8152600401602060405180830381865afa158015611794573d6000803e3d6000fd5b505050506040513d601f19601f820116820180604052508101906117b891906151b8565b60ca54604051632474521560e21b8152600481018390523360248201526001600160a01b03909116906391d1485490604401602060405180830381865afa158015611807573d6000803e3d6000fd5b505050506040513d601f19601f8201168201806040525081019061182b9190614fff565b6118475760405162461bcd60e51b815260040161021c90615162565b670de0b6b3a76400008211156118895760405162461bcd60e51b81526020600482015260076024820152664241445f46454560c81b604482015260640161021c565b8160cb541461120a5760cb5460408051918252602082018490527f5fc463da23c1b063e66f9e352006a7fbe8db7223c455dc429e881a2dfe2f94f1910160405180910390a15060cb55565b6000806118e360335460ff1690565b156119005760405162461bcd60e51b815260040161021c90614f57565b600087116119205760405162461bcd60e51b815260040161021c90615191565b60c95460405163f9d9331d60e01b81526001600160a01b038b81166004830152600092169063f9d9331d90602401602060405180830381865afa15801561196b573d6000803e3d6000fd5b505050506040513d601f19601f8201168201806040525081019061198f9190614f81565b90506001600160a01b038116611a115760c954604051621849e360e61b81526001600160a01b038c811660048301529091169063061278c0906024016020604051808303816000875af11580156119ea573d6000803e3d6000fd5b505050506040513d601f19601f82011682018060405250810190611a0e9190614f81565b90505b611a266001600160a01b038a1633308b613dbb565b60405163095ea7b360e01b81526001600160a01b038a169063095ea7b390611a6890731111111254eeb25477b68fb85ed929f73a960582908c90600401614fe6565b6020604051808303816000875af1158015611a87573d6000803e3d6000fd5b505050506040513d601f19601f82011682018060405250810190611aab9190614fff565b508792506000806000836001600160a01b0316630fc63d106040518163ffffffff1660e01b8152600401602060405180830381865afa158015611af2573d6000803e3d6000fd5b505050506040513d601f19601f82011682018060405250810190611b169190614f81565b90506000846001600160a01b0316635f64b55b6040518163ffffffff1660e01b8152600401602060405180830381865afa158015611b58573d6000803e3d6000fd5b505050506040513d601f19601f82011682018060405250810190611b7c9190614f81565b90508c6001600160a01b0316826001600160a01b031614611bcc57600080611bb68d825b602002810190611bb09190615037565b86613857565b9092509050611bc5818f6150b3565b9d50909450505b8c6001600160a01b0316816001600160a01b031614611c1a57600080611c048d825b602002810190611bfe9190615037565b85613857565b9092509050611c13818f6150b3565b9d50909350505b8c6001600160a01b0316826001600160a01b03161415611c3c578b9350611c84565b8c6001600160a01b0316816001600160a01b03161415611c5e578b9250611c84565b8b15611c8457611c6e8c886150b3565b9650611c846001600160a01b038e16338e613a61565b600084118015611c945750600083115b611cb05760405162461bcd60e51b815260040161021c906151d1565b611cbf828286868e8e8b6140ed565b604051636e553f6560e01b8152600481018290526001600160a01b038c811660248301529199509088169250636e553f659150604401600060405180830381600087803b158015611d0f57600080fd5b505af1158015611d23573d6000803e3d6000fd5b50505050876001600160a01b0316336001600160a01b03168f6001600160a01b031660008051602061553c83398151915289604051611d6491815260200190565b60405180910390a4505050505097509795505050505050565b600080611d8c60335460ff1690565b15611da95760405162461bcd60e51b815260040161021c90614f57565b60003411611de95760405162461bcd60e51b815260206004820152600d60248201526c1393d7d350551250d7d4d15395609a1b604482015260640161021c565b60c95460405163f9d9331d60e01b81526001600160a01b038981166004830152600092169063f9d9331d90602401602060405180830381865afa158015611e34573d6000803e3d6000fd5b505050506040513d601f19601f82011682018060405250810190611e589190614f81565b90506001600160a01b038116611eda5760c954604051621849e360e61b81526001600160a01b038a811660048301529091169063061278c0906024016020604051808303816000875af1158015611eb3573d6000803e3d6000fd5b505050506040513d601f19601f82011682018060405250810190611ed79190614f81565b90505b60003490506000805160206155838339815191526001600160a01b031663d0e30db0826040518263ffffffff1660e01b81526004016000604051808303818588803b158015611f2857600080fd5b505af1158015611f3c573d6000803e3d6000fd5b505060405163095ea7b360e01b8152600080516020615583833981519152935063095ea7b39250611f889150731111111254eeb25477b68fb85ed929f73a960582908590600401614fe6565b6020604051808303816000875af1158015611fa7573d6000803e3d6000fd5b505050506040513d601f19601f82011682018060405250810190611fcb9190614fff565b508093506000806000846001600160a01b0316630fc63d106040518163ffffffff1660e01b8152600401602060405180830381865afa158015612012573d6000803e3d6000fd5b505050506040513d601f19601f820116820180604052508101906120369190614f81565b90506000856001600160a01b0316635f64b55b6040518163ffffffff1660e01b8152600401602060405180830381865afa158015612078573d6000803e3d6000fd5b505050506040513d601f19601f8201168201806040525081019061209c9190614f81565b90506001600160a01b038216600080516020615583833981519152146120df576000806120c98e82611ba0565b90925090506120d881886150b3565b9650909450505b6001600160a01b038116600080516020615583833981519152146121215760008061210b8e6001611bee565b909250905061211a81886150b3565b9650909350505b6001600160a01b038216600080516020615583833981519152141561214857849350612210565b6001600160a01b038116600080516020615583833981519152141561216f57849250612210565b84156122105761217f85896150b3565b604051632e1a7d4d60e01b81526004810187905290985060008051602061558383398151915290632e1a7d4d90602401600060405180830381600087803b1580156121c957600080fd5b505af11580156121dd573d6000803e3d6000fd5b505060405133925087156108fc02915087906000818181858888f1935050505015801561220e573d6000803e3d6000fd5b505b6000841180156122205750600083115b61223c5760405162461bcd60e51b815260040161021c906151d1565b61224b828286868f8f8c6140ed565b604051636e553f6560e01b8152600481018290526001600160a01b038d81166024830152919a509089169250636e553f659150604401600060405180830381600087803b15801561229b57600080fd5b505af11580156122af573d6000803e3d6000fd5b50505050886001600160a01b0316336001600160a01b03168e6001600160a01b031660008051602061553c8339815191528a6040516122f091815260200190565b60405180910390a45050505050509550959350505050565b60ca54604051632474521560e21b81527f65d7a28e3265b37a6474929f336521b332c1681b933f6cb9f3376673440d862a60048201819052336024830152916001600160a01b0316906391d1485490604401602060405180830381865afa158015612377573d6000803e3d6000fd5b505050506040513d601f19601f8201168201806040525081019061239b9190614fff565b6123b75760405162461bcd60e51b815260040161021c90615162565b610b38614300565b60008060006123d060335460ff1690565b156123ed5760405162461bcd60e51b815260040161021c90614f57565b60c95460405163f9d9331d60e01b81526001600160a01b038981166004830152600092169063f9d9331d90602401602060405180830381865afa158015612438573d6000803e3d6000fd5b505050506040513d601f19601f8201168201806040525081019061245c9190614f81565b90506001600160a01b0381166124845760405162461bcd60e51b815260040161021c90614f9e565b604051632d182be560e21b81526001600160a01b0382169063b460af94906124b4908a9033903090600401614fc7565b600060405180830381600087803b1580156124ce57600080fd5b505af11580156124e2573d6000803e3d6000fd5b505050506000816001600160a01b0316630fc63d106040518163ffffffff1660e01b8152600401602060405180830381865afa158015612526573d6000803e3d6000fd5b505050506040513d601f19601f8201168201806040525081019061254a9190614f81565b90506000826001600160a01b0316635f64b55b6040518163ffffffff1660e01b8152600401602060405180830381865afa15801561258c573d6000803e3d6000fd5b505050506040513d601f19601f820116820180604052508101906125b09190614f81565b9050612623836001600160a01b0316633737bcb46040518163ffffffff1660e01b8152600401602060405180830381865afa1580156125f3573d6000803e3d6000fd5b505050506040513d601f19601f820116820180604052508101906126179190614f81565b83838c60008030613716565b90955093506001600160a01b038216600080516020615583833981519152146127315760405163095ea7b360e01b81526001600160a01b0383169063095ea7b39061268890731111111254eeb25477b68fb85ed929f73a960582908990600401614fe6565b6020604051808303816000875af11580156126a7573d6000803e3d6000fd5b505050506040513d601f19601f820116820180604052508101906126cb9190614fff565b506000806126f98a825b6020028101906126e59190615037565b600080516020615583833981519152613857565b9092509050612708828961509b565b975061271481886150b3565b965061272a6001600160a01b0385168a89613a61565b505061273e565b61273b858761509b565b95505b6001600160a01b038116600080516020615583833981519152146128285760405163095ea7b360e01b81526001600160a01b0382169063095ea7b39061279e90731111111254eeb25477b68fb85ed929f73a960582908890600401614fe6565b6020604051808303816000875af11580156127bd573d6000803e3d6000fd5b505050506040513d601f19601f820116820180604052508101906127e19190614fff565b506000806127f08a60016126d5565b90925090506127ff828961509b565b975061280b81876150b3565b95506128216001600160a01b0384168a88613a61565b5050612835565b612832848761509b565b95505b604051632e1a7d4d60e01b81526004810187905260008051602061558383398151915290632e1a7d4d90602401600060405180830381600087803b15801561287c57600080fd5b505af1158015612890573d6000803e3d6000fd5b50506040516001600160a01b038a16925088156108fc02915088906000818181858888f193505050501580156128ca573d6000803e3d6000fd5b50866001600160a01b0316336001600160a01b03168b6001600160a01b03166000805160206154fc8339815191528c60405161290891815260200190565b60405180910390a45050509450945094915050565b60335460ff16156129405760405162461bcd60e51b815260040161021c90614f57565b60ca54604051632474521560e21b81527ffbd454f36a7e1a388bd6fc3ab10d434aa4578f811acbbcf33afb1c697486313c60048201819052336024830152916001600160a01b0316906391d1485490604401602060405180830381865afa1580156129af573d6000803e3d6000fd5b505050506040513d601f19601f820116820180604052508101906129d39190614fff565b6129ef5760405162461bcd60e51b815260040161021c90615162565b60c95460405163f9d9331d60e01b81526001600160a01b038681166004830152600092169063f9d9331d90602401602060405180830381865afa158015612a3a573d6000803e3d6000fd5b505050506040513d601f19601f82011682018060405250810190612a5e9190614f81565b90506001600160a01b038116612a865760405162461bcd60e51b815260040161021c90614f9e565b6040805180820182526001600160a01b03858116825260cb5460208301529151636a30683b60e01b8152600092841691636a30683b91612aca9189916004016151f9565b6020604051808303816000875af1158015612ae9573d6000803e3d6000fd5b505050506040513d601f19601f82011682018060405250810190612b0d91906151b8565b9050856001600160a01b03167fc1d32ad5cca423e7dda2123dbf8c482f8e77d00b631c06e903a47f2cec1334df82604051612b4a91815260200190565b60405180910390a2505050505050565b60c95460405163f9d9331d60e01b81526001600160a01b038781166004830152600092839283929091169063f9d9331d90602401602060405180830381865afa158015612bab573d6000803e3d6000fd5b505050506040513d601f19601f82011682018060405250810190612bcf9190614f81565b90506001600160a01b038116612bf75760405162461bcd60e51b815260040161021c90614f9e565b604051632d182be560e21b81526001600160a01b0382169063b460af9490612c27908a9033903090600401614fc7565b600060405180830381600087803b158015612c4157600080fd5b505af1158015612c55573d6000803e3d6000fd5b50505050612d8b816001600160a01b0316633737bcb46040518163ffffffff1660e01b8152600401602060405180830381865afa158015612c9a573d6000803e3d6000fd5b505050506040513d601f19601f82011682018060405250810190612cbe9190614f81565b826001600160a01b0316630fc63d106040518163ffffffff1660e01b8152600401602060405180830381865afa158015612cfc573d6000803e3d6000fd5b505050506040513d601f19601f82011682018060405250810190612d209190614f81565b836001600160a01b0316635f64b55b6040518163ffffffff1660e01b8152600401602060405180830381865afa158015612d5e573d6000803e3d6000fd5b505050506040513d601f19601f82011682018060405250810190612d829190614f81565b8a8a8a8a613716565b60405189815291945092506001600160a01b038581169133918b16906000805160206154fc8339815191529060200160405180910390a4509550959350505050565b60c95460405163f9d9331d60e01b81526001600160a01b038781166004830152600092839283929091169063f9d9331d90602401602060405180830381865afa158015612e1e573d6000803e3d6000fd5b505050506040513d601f19601f82011682018060405250810190612e429190614f81565b90506001600160a01b038116612e6a5760405162461bcd60e51b815260040161021c90614f9e565b6000816001600160a01b0316630fc63d106040518163ffffffff1660e01b8152600401602060405180830381865afa158015612eaa573d6000803e3d6000fd5b505050506040513d601f19601f82011682018060405250810190612ece9190614f81565b90506000826001600160a01b0316635f64b55b6040518163ffffffff1660e01b8152600401602060405180830381865afa158015612f10573d6000803e3d6000fd5b505050506040513d601f19601f82011682018060405250810190612f349190614f81565b90506000836001600160a01b0316633737bcb46040518163ffffffff1660e01b8152600401602060405180830381865afa158015612f76573d6000803e3d6000fd5b505050506040513d601f19601f82011682018060405250810190612f9a9190614f81565b604051632d182be560e21b81529091506001600160a01b0385169063b460af9490612fcd908d9033903090600401614fc7565b600060405180830381600087803b158015612fe757600080fd5b505af1158015612ffb573d6000803e3d6000fd5b505050506001600160a01b03831660008051602061558383398151915214156130365761302c81838c8c8c8c614358565b909650945061309d565b6001600160a01b03821660008051602061558383398151915214156130635761302c81848c8c8c8c614358565b60405162461bcd60e51b815260206004820152600f60248201526e1393d517d5d350551250d7d413d3d3608a1b604482015260640161021c565b866001600160a01b0316336001600160a01b03168c6001600160a01b03166000805160206154fc8339815191528d6040516130da91815260200190565b60405180910390a4505050509550959350505050565b60c95460405163f9d9331d60e01b81526001600160a01b038581166004830152600092169063f9d9331d90602401602060405180830381865afa15801561313b573d6000803e3d6000fd5b505050506040513d601f19601f8201168201806040525081019061315f9190614f81565b90506001600160a01b0381166131875760405162461bcd60e51b815260040161021c90614f9e565b604051632d182be560e21b81526001600160a01b0382169063b460af94906131b790869033908790600401614fc7565b600060405180830381600087803b1580156131d157600080fd5b505af11580156131e5573d6000803e3d6000fd5b50505050816001600160a01b0316336001600160a01b0316856001600160a01b03166000805160206154fc83398151915286604051610ff491815260200190565b60c95460405163f9d9331d60e01b81526001600160a01b038381166004830152600092839283928392169063f9d9331d90602401602060405180830381865afa158015613277573d6000803e3d6000fd5b505050506040513d601f19601f8201168201806040525081019061329b9190614f81565b90506001600160a01b0381161561338757806001600160a01b031663168a48226040518163ffffffff1660e01b8152600401602060405180830381865afa1580156132ea573d6000803e3d6000fd5b505050506040513d601f19601f8201168201806040525081019061330e91906151b8565b93506000816001600160a01b0316633737bcb46040518163ffffffff1660e01b8152600401602060405180830381865afa158015613350573d6000803e3d6000fd5b505050506040513d601f19601f820116820180604052508101906133749190614f81565b90506133808186613eb2565b9094509250505b509193909250565b60008060006133a060335460ff1690565b156133bd5760405162461bcd60e51b815260040161021c90614f57565b600034116133fd5760405162461bcd60e51b815260206004820152600d60248201526c1393d7d350551250d7d4d15395609a1b604482015260640161021c565b6000871161341d5760405162461bcd60e51b815260040161021c90615191565b60c95460405163f9d9331d60e01b81526001600160a01b038a81166004830152600092169063f9d9331d90602401602060405180830381865afa158015613468573d6000803e3d6000fd5b505050506040513d601f19601f8201168201806040525081019061348c9190614f81565b90506001600160a01b03811661350e5760c954604051621849e360e61b81526001600160a01b038b811660048301529091169063061278c0906024016020604051808303816000875af11580156134e7573d6000803e3d6000fd5b505050506040513d601f19601f8201168201806040525081019061350b9190614f81565b90505b6000816001600160a01b0316630fc63d106040518163ffffffff1660e01b8152600401602060405180830381865afa15801561354e573d6000803e3d6000fd5b505050506040513d601f19601f820116820180604052508101906135729190614f81565b90506000826001600160a01b0316635f64b55b6040518163ffffffff1660e01b8152600401602060405180830381865afa1580156135b4573d6000803e3d6000fd5b505050506040513d601f19601f820116820180604052508101906135d89190614f81565b90506001600160a01b03821660008051602061558383398151915214156136275761360e6001600160a01b03821633308d613dbb565b61361b818b8b8b87614472565b91975095509350613668565b6001600160a01b03811660008051602061558383398151915214156130635761365b6001600160a01b03831633308d613dbb565b61361b828b8b8b87614472565b604051636e553f6560e01b8152600481018590526001600160a01b038881166024830152841690636e553f6590604401600060405180830381600087803b1580156136b257600080fd5b505af11580156136c6573d6000803e3d6000fd5b50505050866001600160a01b0316336001600160a01b03168c6001600160a01b031660008051602061553c83398151915287604051610a4591815260200190565b6001600160a01b03163b151590565b600080886001600160a01b031663095ea7b373a5e0829caced8ffdd4de3c43696c57f7d7a678ff886040518363ffffffff1660e01b815260040161375b929190614fe6565b6020604051808303816000875af115801561377a573d6000803e3d6000fd5b505050506040513d601f19601f8201168201806040525081019061379e9190614fff565b50604051635d5155ef60e11b81526001600160a01b03808a1660048301528089166024830152604482018890526064820187905260848201869052841660a48201524260c482015273a5e0829caced8ffdd4de3c43696c57f7d7a678ff9063baa2abde9060e40160408051808303816000875af1158015613823573d6000803e3d6000fd5b505050506040513d601f19601f820116820180604052508101906138479190615309565b909a909950975050505050505050565b6040516370a0823160e01b8152306004820152600090819081906001600160a01b038516906370a0823190602401602060405180830381865afa1580156138a2573d6000803e3d6000fd5b505050506040513d601f19601f820116820180604052508101906138c691906151b8565b9050600080731111111254eeb25477b68fb85ed929f73a9605826001600160a01b031688886040516138f992919061532d565b6000604051808303816000865af19150503d8060008114613936576040519150601f19603f3d011682016040523d82523d6000602084013e61393b565b606091505b5091509150816139835760405162461bcd60e51b815260206004820152601360248201527214d5d05417d393d517d4d550d0d154d4d19553606a1b604482015260640161021c565b808060200190518101906139979190615309565b6040516370a0823160e01b815230600482015291965094506000906001600160a01b038816906370a0823190602401602060405180830381865afa1580156139e3573d6000803e3d6000fd5b505050506040513d601f19601f82011682018060405250810190613a0791906151b8565b905085613a1485836150b3565b14613a555760405162461bcd60e51b815260206004820152601160248201527010905117d4915515549397d05353d55395607a1b604482015260640161021c565b50505050935093915050565b6111388363a9059cbb60e01b8484604051602401613a80929190614fe6565b60408051601f198184030181529190526020810180516001600160e01b03166001600160e01b0319909316929092179091526145eb565b60ca60009054906101000a90046001600160a01b03166001600160a01b03166375b238fc6040518163ffffffff1660e01b8152600401602060405180830381865afa158015613b0a573d6000803e3d6000fd5b505050506040513d601f19601f82011682018060405250810190613b2e91906151b8565b60ca54604051632474521560e21b8152600481018390523360248201526001600160a01b03909116906391d1485490604401602060405180830381865afa158015613b7d573d6000803e3d6000fd5b505050506040513d601f19601f82011682018060405250810190613ba19190614fff565b61120a5760405162461bcd60e51b815260040161021c90615162565b7f4910fdfa16fed3260ed0e7147f7cc6da11a60208b5b9406d12a635614ffd91435460ff1615613bf057611138836146bd565b826001600160a01b03166352d1902d6040518163ffffffff1660e01b8152600401602060405180830381865afa925050508015613c4a575060408051601f3d908101601f19168201909252613c47918101906151b8565b60015b613cad5760405162461bcd60e51b815260206004820152602e60248201527f45524331393637557067726164653a206e657720696d706c656d656e7461746960448201526d6f6e206973206e6f74205555505360901b606482015260840161021c565b60008051602061551c8339815191528114613d1c5760405162461bcd60e51b815260206004820152602960248201527f45524331393637557067726164653a20756e737570706f727465642070726f786044820152681a58589b195555525160ba1b606482015260840161021c565b50611138838383614759565b60335460ff16613d715760405162461bcd60e51b815260206004820152601460248201527314185d5cd8589b194e881b9bdd081c185d5cd95960621b604482015260640161021c565b6033805460ff191690557f5db9ee0a495bf2e6ff9c91a7834c1ba4fdd244a5e8aa4e537bd38aeae4b073aa335b6040516001600160a01b03909116815260200160405180910390a1565b6040516001600160a01b0380851660248301528316604482015260648101829052613df39085906323b872dd60e01b90608401613a80565b50505050565b60008054610100900460ff1615613e40578160ff166001148015613e1c5750303b155b613e385760405162461bcd60e51b815260040161021c9061533d565b506000919050565b60005460ff808416911610613e675760405162461bcd60e51b815260040161021c9061533d565b506000805460ff191660ff92909216919091179055600190565b600054610100900460ff16613ea85760405162461bcd60e51b815260040161021c9061538b565b613eb061477e565b565b6000806000846001600160a01b03166318160ddd6040518163ffffffff1660e01b8152600401602060405180830381865afa158015613ef5573d6000803e3d6000fd5b505050506040513d601f19601f82011682018060405250810190613f1991906151b8565b905080856001600160a01b0316630dfe16816040518163ffffffff1660e01b8152600401602060405180830381865afa158015613f5a573d6000803e3d6000fd5b505050506040513d601f19601f82011682018060405250810190613f7e9190614f81565b6040516370a0823160e01b81526001600160a01b03888116600483015291909116906370a0823190602401602060405180830381865afa158015613fc6573d6000803e3d6000fd5b505050506040513d601f19601f82011682018060405250810190613fea91906151b8565b613ff490866153d6565b613ffe91906153f5565b925080856001600160a01b031663d21220a76040518163ffffffff1660e01b8152600401602060405180830381865afa15801561403f573d6000803e3d6000fd5b505050506040513d601f19601f820116820180604052508101906140639190614f81565b6040516370a0823160e01b81526001600160a01b03888116600483015291909116906370a0823190602401602060405180830381865afa1580156140ab573d6000803e3d6000fd5b505050506040513d601f19601f820116820180604052508101906140cf91906151b8565b6140d990866153d6565b6140e391906153f5565b9150509250929050565b6000806000896001600160a01b031663095ea7b373a5e0829caced8ffdd4de3c43696c57f7d7a678ff8a6040518363ffffffff1660e01b8152600401614134929190614fe6565b6020604051808303816000875af1158015614153573d6000803e3d6000fd5b505050506040513d601f19601f820116820180604052508101906141779190614fff565b5060405163095ea7b360e01b81526001600160a01b038a169063095ea7b3906141ba9073a5e0829caced8ffdd4de3c43696c57f7d7a678ff908b90600401614fe6565b6020604051808303816000875af11580156141d9573d6000803e3d6000fd5b505050506040513d601f19601f820116820180604052508101906141fd9190614fff565b5060405162e8e33760e81b81526001600160a01b03808c166004830152808b166024830152604482018a9052606482018990526084820188905260a48201879052851660c48201524260e482015273a5e0829caced8ffdd4de3c43696c57f7d7a678ff9063e8e3370090610104016060604051808303816000875af115801561428a573d6000803e3d6000fd5b505050506040513d601f19601f820116820180604052508101906142ae9190615417565b919450925090506142d4336142c3858b6150b3565b6001600160a01b038d169190613a61565b6142f3336142e2848a6150b3565b6001600160a01b038c169190613a61565b9750975097945050505050565b60335460ff16156143235760405162461bcd60e51b815260040161021c90614f57565b6033805460ff191660011790557f62e78cea01bee320cd4e420270b5ea74000d11b0c9f74754ebdbfc544b05a258613d9e3390565b600080876001600160a01b031663095ea7b373a5e0829caced8ffdd4de3c43696c57f7d7a678ff886040518363ffffffff1660e01b815260040161439d929190614fe6565b6020604051808303816000875af11580156143bc573d6000803e3d6000fd5b505050506040513d601f19601f820116820180604052508101906143e09190614fff565b50604051629d473b60e21b815273a5e0829caced8ffdd4de3c43696c57f7d7a678ff906302751cec90614421908a908a908a908a908a904290600401615445565b60408051808303816000875af115801561443f573d6000803e3d6000fd5b505050506040513d601f19601f820116820180604052508101906144639190615309565b90999098509650505050505050565b6000806000876001600160a01b031663095ea7b373a5e0829caced8ffdd4de3c43696c57f7d7a678ff896040518363ffffffff1660e01b81526004016144b9929190614fe6565b6020604051808303816000875af11580156144d8573d6000803e3d6000fd5b505050506040513d601f19601f820116820180604052508101906144fc9190614fff565b5060405163f305d71960e01b815273a5e0829caced8ffdd4de3c43696c57f7d7a678ff9063f305d719903490614540908c908c908c908c908c904290600401615445565b60606040518083038185885af115801561455e573d6000803e3d6000fd5b50505050506040513d601f19601f820116820180604052508101906145839190615417565b919450925090506145a933614598858a6150b3565b6001600160a01b038b169190613a61565b336108fc6145b784346150b3565b6040518115909202916000818181858888f193505050501580156145df573d6000803e3d6000fd5b50955095509592505050565b6000614640826040518060400160405280602081526020017f5361666545524332303a206c6f772d6c6576656c2063616c6c206661696c6564815250856001600160a01b03166147b19092919063ffffffff16565b805190915015611138578080602001905181019061465e9190614fff565b6111385760405162461bcd60e51b815260206004820152602a60248201527f5361666545524332303a204552433230206f7065726174696f6e20646964206e6044820152691bdd081cdd58d8d9595960b21b606482015260840161021c565b6001600160a01b0381163b61472a5760405162461bcd60e51b815260206004820152602d60248201527f455243313936373a206e657720696d706c656d656e746174696f6e206973206e60448201526c1bdd08184818dbdb9d1c9858dd609a1b606482015260840161021c565b60008051602061551c83398151915280546001600160a01b0319166001600160a01b0392909216919091179055565b614762836147ca565b60008251118061476f5750805b1561113857613df3838361480a565b600054610100900460ff166147a55760405162461bcd60e51b815260040161021c9061538b565b6033805460ff19169055565b60606147c08484600085614900565b90505b9392505050565b6147d3816146bd565b6040516001600160a01b038216907fbc7cd75a20ee27fd9adebab32041f755214dbc6bffa90cc0225b39da2e5c2d3b90600090a250565b60606001600160a01b0383163b6148725760405162461bcd60e51b815260206004820152602660248201527f416464726573733a2064656c65676174652063616c6c20746f206e6f6e2d636f6044820152651b9d1c9858dd60d21b606482015260840161021c565b600080846001600160a01b03168460405161488d91906154ac565b600060405180830381855af49150503d80600081146148c8576040519150601f19603f3d011682016040523d82523d6000602084013e6148cd565b606091505b50915091506148f5828260405180606001604052806027815260200161555c60279139614a31565b925050505b92915050565b6060824710156149615760405162461bcd60e51b815260206004820152602660248201527f416464726573733a20696e73756666696369656e742062616c616e636520666f6044820152651c8818d85b1b60d21b606482015260840161021c565b6001600160a01b0385163b6149b85760405162461bcd60e51b815260206004820152601d60248201527f416464726573733a2063616c6c20746f206e6f6e2d636f6e7472616374000000604482015260640161021c565b600080866001600160a01b031685876040516149d491906154ac565b60006040518083038185875af1925050503d8060008114614a11576040519150601f19603f3d011682016040523d82523d6000602084013e614a16565b606091505b5091509150614a26828286614a31565b979650505050505050565b60608315614a405750816147c3565b825115614a505782518084602001fd5b8160405162461bcd60e51b815260040161021c91906154c8565b6001600160a01b0381168114610b3857600080fd5b80604081018310156148fa57600080fd5b600080600080600060a08688031215614aa857600080fd5b8535614ab381614a6a565b9450602086013593506040860135614aca81614a6a565b9250606086013567ffffffffffffffff811115614ae657600080fd5b614af288828901614a7f565b9250506080860135614b0381614a6a565b809150509295509295909350565b600060208284031215614b2357600080fd5b81356147c381614a6a565b6020808252825182820181905260009190848201906040850190845b81811015614b6f5783516001600160a01b031683529284019291840191600101614b4a565b50909695505050505050565b600080600060608486031215614b9057600080fd5b8335614b9b81614a6a565b9250602084013591506040840135614bb281614a6a565b809150509250925092565b60008060408385031215614bd057600080fd5b8235614bdb81614a6a565b91506020830135614beb81614a6a565b809150509250929050565b634e487b7160e01b600052604160045260246000fd5b60008060408385031215614c1f57600080fd5b8235614c2a81614a6a565b9150602083013567ffffffffffffffff80821115614c4757600080fd5b818501915085601f830112614c5b57600080fd5b813581811115614c6d57614c6d614bf6565b604051601f8201601f19908116603f01168101908382118183101715614c9557614c95614bf6565b81604052828152886020848701011115614cae57600080fd5b8260208601602083013760006020848301015280955050505050509250929050565b60008060008060008060c08789031215614ce957600080fd5b8635614cf481614a6a565b95506020870135945060408701359350606087013592506080870135915060a0870135614d2081614a6a565b809150509295509295509295565b600060208284031215614d4057600080fd5b5035919050565b600080600080600080600060e0888a031215614d6257600080fd5b8735614d6d81614a6a565b96506020880135614d7d81614a6a565b955060408801359450606088013567ffffffffffffffff811115614da057600080fd5b614dac8a828b01614a7f565b9450506080880135925060a0880135915060c0880135614dcb81614a6a565b8091505092959891949750929550565b600080600080600060a08688031215614df357600080fd5b8535614dfe81614a6a565b9450602086013567ffffffffffffffff811115614e1a57600080fd5b614e2688828901614a7f565b94505060408601359250606086013591506080860135614b0381614a6a565b60008060008060808587031215614e5b57600080fd5b8435614e6681614a6a565b935060208501359250604085013567ffffffffffffffff811115614e8957600080fd5b614e9587828801614a7f565b9250506060850135614ea681614a6a565b939692955090935050565b600080600060608486031215614ec657600080fd5b8335614ed181614a6a565b9250602084013567ffffffffffffffff811115614eed57600080fd5b840160808101861015614eff57600080fd5b91506040840135614bb281614a6a565b600080600080600060a08688031215614f2757600080fd5b8535614f3281614a6a565b94506020860135935060408601359250606086013591506080860135614b0381614a6a565b60208082526010908201526f14185d5cd8589b194e881c185d5cd95960821b604082015260600190565b600060208284031215614f9357600080fd5b81516147c381614a6a565b6020808252600f908201526e4641524d5f4e4f545f45584953545360881b604082015260600190565b9283526001600160a01b03918216602084015216604082015260600190565b6001600160a01b03929092168252602082015260400190565b60006020828403121561501157600080fd5b815180151581146147c357600080fd5b634e487b7160e01b600052603260045260246000fd5b6000808335601e1984360301811261504e57600080fd5b83018035915067ffffffffffffffff82111561506957600080fd5b60200191503681900382131561507e57600080fd5b9250929050565b634e487b7160e01b600052601160045260246000fd5b600082198211156150ae576150ae615085565b500190565b6000828210156150c5576150c5615085565b500390565b6020808252602c908201527f46756e6374696f6e206d7573742062652063616c6c6564207468726f7567682060408201526b19195b1959d85d1958d85b1b60a21b606082015260800190565b6020808252602c908201527f46756e6374696f6e206d7573742062652063616c6c6564207468726f7567682060408201526b6163746976652070726f787960a01b606082015260800190565b60208082526015908201527410d05313115497d393d517d055551213d492569151605a1b604082015260600190565b6020808252600d908201526c1393d7d513d2d15397d4d15395609a1b604082015260600190565b6000602082840312156151ca57600080fd5b5051919050565b6020808252600e908201526d1393d7d513d2d15394d7d4d1539560921b604082015260600190565b606080825260009060e0830183820186845b60048110156152e157868403605f190183528135368a9003603e1901811261523257600080fd5b89016040858101823536849003601e1901811261524e57600080fd5b83018035602067ffffffffffffffff82111561526957600080fd5b8160051b360386131561527b57600080fd5b9389529182905288880192908101916000915b818310156152c05783356152a181614a6a565b6001600160a01b0316855293840193928301926001929092019161528e565b9485013598850198909852509095505092830192919091019060010161520b565b50505080925050506147c3602083018480516001600160a01b03168252602090810151910152565b6000806040838503121561531c57600080fd5b505080516020909101519092909150565b8183823760009101908152919050565b6020808252602e908201527f496e697469616c697a61626c653a20636f6e747261637420697320616c72656160408201526d191e481a5b9a5d1a585b1a5e995960921b606082015260800190565b6020808252602b908201527f496e697469616c697a61626c653a20636f6e7472616374206973206e6f74206960408201526a6e697469616c697a696e6760a81b606082015260800190565b60008160001904831182151516156153f0576153f0615085565b500290565b60008261541257634e487b7160e01b600052601260045260246000fd5b500490565b60008060006060848603121561542c57600080fd5b8351925060208401519150604084015190509250925092565b6001600160a01b039687168152602081019590955260408501939093526060840191909152909216608082015260a081019190915260c00190565b60005b8381101561549b578181015183820152602001615483565b83811115613df35750506000910152565b600082516154be818460208701615480565b9190910192915050565b60208152600082518060208401526154e7816040850160208701615480565b601f01601f1916919091016040019291505056fe3115d1449a7b732c986cba18244e897a450f61e1bb8d589cd2e69e6c8924f9f7360894a13ba1a3210667c828492db98dca3e2076cc3735a920a3ca505d382bbc7cfff908a4b583f36430b25d75964c458d8ede8a99bd61be750e97ee1b2f3a96416464726573733a206c6f772d6c6576656c2064656c65676174652063616c6c206661696c65640000000000000000000000000d500b1d8e8ef31e21c99d1db9a6444d3adf1270a2646970667358221220449463c0226e2ae6398c8a158b906e3102af6a43864277e957d648dd4c5a214d64736f6c634300080a0033496e697469616c697a61626c653a20636f6e747261637420697320616c726561",
  "immutableReferences": {
    "561": [
      {
        "length": 32,
        "start": 2662
      },
      {
        "length": 32,
        "start": 2726
      },
      {
        "length": 32,
        "start": 4424
      },
      {
        "length": 32,
        "start": 4488
      },
      {
        "length": 32,
        "start": 5004
      }
    ]
  },
  "source": "// SPDX-License-Identifier: MIT\r\npragma solidity 0.8.10;\r\n\r\nimport {IUnoFarmQuickswapDual as Farm} from '../apps/quickswapDual/interfaces/IUnoFarmQuickswapDual.sol'; \r\nimport '../interfaces/IUnoFarm.sol';\r\nimport '../interfaces/IUniswapV2Router.sol';\r\nimport '../interfaces/IUnoFarmFactory.sol';\r\nimport '../interfaces/IUnoAccessManager.sol'; \r\nimport '../interfaces/IUniswapV2Pair.sol';\r\nimport '../interfaces/IStakingDualRewards.sol';\r\nimport '../interfaces/IWMATIC.sol';\r\nimport '@openzeppelin/contracts-upgradeable/token/ERC20/IERC20Upgradeable.sol';\r\nimport '@openzeppelin/contracts-upgradeable/token/ERC20/utils/SafeERC20Upgradeable.sol';\r\nimport '@openzeppelin/contracts-upgradeable/proxy/utils/Initializable.sol';\r\nimport '@openzeppelin/contracts-upgradeable/security/PausableUpgradeable.sol';\r\nimport '@openzeppelin/contracts-upgradeable/proxy/utils/UUPSUpgradeable.sol';\r\n\r\ncontract UnoAssetRouterQuickswapDualV2 is Initializable, PausableUpgradeable, UUPSUpgradeable {\r\n    using SafeERC20Upgradeable for IERC20Upgradeable;\r\n\r\n    /**\r\n     * @dev Contract Variables:\r\n     * farmFactory - The contract that deploys new Farms and links them to {lpStakingPool}s.\r\n     * accessManager - Role manager contract.\r\n     */\r\n    IUnoFarmFactory public farmFactory;\r\n    IUnoAccessManager public accessManager;\r\n\r\n    bytes32 private constant DISTRIBUTOR_ROLE = keccak256('DISTRIBUTOR_ROLE');\r\n    bytes32 private constant PAUSER_ROLE = keccak256('PAUSER_ROLE');\r\n\r\n    uint256 public fee;\r\n\r\n    address public constant WMATIC = 0x0d500B1d8E8eF31E21C99d1Db9A6444d3ADf1270;\r\n    IUniswapV2Router01 private constant QuickswapRouter = IUniswapV2Router01(0xa5E0829CaCEd8fFDD4De3c43696c57F7D7A678ff); \r\n    address private constant OneInchRouter = 0x1111111254EEB25477B68fb85Ed929f73A960582;\r\n\r\n    uint256 public constant version = 2;\r\n\r\n    event Deposit(address indexed lpPool, address indexed sender, address indexed recipient, uint256 amount);\r\n    event Withdraw(address indexed lpPool, address indexed sender, address indexed recipient, uint256 amount);\r\n    event Distribute(address indexed lpPool, uint256 reward);\r\n\r\n    event FeeChanged(uint256 previousFee, uint256 newFee);\r\n\r\n    modifier onlyRole(bytes32 role){\r\n        require(accessManager.hasRole(role, msg.sender), 'CALLER_NOT_AUTHORIZED');\r\n        _;\r\n    }\r\n\r\n    // ============ Methods ============\r\n\r\n    /// @custom:oz-upgrades-unsafe-allow constructor\r\n    constructor() {\r\n        _disableInitializers();\r\n    }\r\n\r\n    function initialize(address _accessManager, address _farmFactory) external initializer{\r\n        require (_accessManager != address(0), 'BAD_ACCESS_MANAGER');\r\n        require (_farmFactory != address(0), 'BAD_FARM_FACTORY');\r\n\r\n        __Pausable_init();\r\n        accessManager = IUnoAccessManager(_accessManager);\r\n        farmFactory = IUnoFarmFactory(_farmFactory);\r\n    }\r\n\r\n    receive() external payable {\r\n        require(msg.sender == WMATIC || msg.sender == address(QuickswapRouter), 'ONLY_ACCEPT_WMATIC_OR_ROUTER'); // only accept ETH via fallback from the WMATIC or router contract\r\n    }\r\n\r\n    /**\r\n     * @dev Deposits tokens in the given pool. Creates new Farm contract if there isn't one deployed for the {lpStakingPool} and deposits tokens in it. Emits a {Deposit} event.\r\n     * @param lpStakingPool - Address of the pool to deposit tokens in.\r\n     * @param amountA  - Token A amount to deposit.\r\n     * @param amountB -  Token B amount to deposit.\r\n     * @param amountAMin - Bounds the extent to which the B/A price can go up before the transaction reverts.\r\n     * @param amountBMin - Bounds the extent to which the A/B price can go up before the transaction reverts.\r\n     * @param recipient - Address which will receive the deposit.\r\n     \r\n     * @return sentA - Token A amount sent to the farm.\r\n     * @return sentB - Token B amount sent to the farm.\r\n     * @return liquidity - Total liquidity sent to the farm (in lpTokens).\r\n     */\r\n    function deposit(address lpStakingPool, uint256 amountA, uint256 amountB, uint256 amountAMin, uint256 amountBMin, address recipient) external whenNotPaused returns(uint256 sentA, uint256 sentB, uint256 liquidity){\r\n        require(amountA > 0 && amountB > 0, \"NO_TOKENS_SENT\");\r\n        Farm farm = Farm(farmFactory.Farms(lpStakingPool));\r\n        if(farm == Farm(address(0))){\r\n            farm = Farm(farmFactory.createFarm(lpStakingPool));\r\n        }\r\n\r\n        address tokenA = farm.tokenA();\r\n        address tokenB = farm.tokenB();\r\n        IERC20Upgradeable(tokenA).safeTransferFrom(msg.sender, address(this), amountA);\r\n        IERC20Upgradeable(tokenB).safeTransferFrom(msg.sender, address(this), amountB);\r\n\r\n        (sentA, sentB, liquidity) = _addLiquidity(tokenA, tokenB, amountA, amountB, amountAMin, amountBMin, address(farm));\r\n        farm.deposit(liquidity, recipient);\r\n\r\n        emit Deposit(lpStakingPool, msg.sender, recipient, liquidity); \r\n    }\r\n\r\n    /**\r\n     * @dev Autoconverts MATIC into WMATIC and deposits tokens in the given pool. Creates new Farm contract if there isn't one deployed for the {lpStakingPool} and deposits tokens in it. Emits a {Deposit} event.\r\n     * @param lpStakingPool - Address of the pool to deposit tokens in.\r\n     * @param amountToken  - Token amount to deposit.\r\n     * @param amountTokenMin - Bounds the extent to which the TOKEN/WMATIC price can go up before the transaction reverts.\r\n     * @param amountETHMin - Bounds the extent to which the WMATIC/TOKEN price can go up before the transaction reverts.\r\n     * @param recipient - Address which will receive the deposit.\r\n     \r\n     * @return sentToken - Token amount sent to the farm.\r\n     * @return sentETH - WMATIC amount sent to the farm.\r\n     * @return liquidity - Total liquidity sent to the farm (in lpTokens).\r\n     */\r\n    function depositETH(address lpStakingPool, uint256 amountToken, uint256 amountTokenMin, uint256 amountETHMin, address recipient) external payable whenNotPaused returns(uint256 sentToken, uint256 sentETH, uint256 liquidity){\r\n        require(msg.value > 0, \"NO_MATIC_SENT\");\r\n        require(amountToken > 0, \"NO_TOKEN_SENT\");\r\n        Farm farm = Farm(farmFactory.Farms(lpStakingPool));\r\n        if(farm == Farm(address(0))){\r\n            farm = Farm(farmFactory.createFarm(lpStakingPool));\r\n        }\r\n\r\n        address tokenA = farm.tokenA();\r\n        address tokenB = farm.tokenB();\r\n        if (tokenA == WMATIC) {\r\n            IERC20Upgradeable(tokenB).safeTransferFrom(msg.sender, address(this), amountToken);\r\n            (sentToken, sentETH, liquidity) = _addLiquidityETH(tokenB, amountToken, amountTokenMin, amountETHMin, address(farm));\r\n        } else if (tokenB == WMATIC) {\r\n            IERC20Upgradeable(tokenA).safeTransferFrom(msg.sender, address(this), amountToken);\r\n            (sentToken, sentETH, liquidity) = _addLiquidityETH(tokenA, amountToken, amountTokenMin, amountETHMin, address(farm));\r\n        } else {\r\n            revert(\"NOT_WMATIC_POOL\");\r\n        }\r\n        farm.deposit(liquidity, recipient);\r\n\r\n        emit Deposit(lpStakingPool, msg.sender, recipient, liquidity);\r\n    }\r\n\r\n    /**\r\n     * @dev Deposits single token in the given pool. Creates new Farm contract if there isn't one deployed for the {lpStakingPool}, swaps {token} for pool tokens and deposits them. Emits a {Deposit} event.\r\n     * @param lpStakingPool - Address of the pool to deposit tokens in.\r\n     * @param token  - Address of a token to enter the pool.\r\n     * @param amount - Amount of token sent.\r\n     * @param swapData - Parameter with which 1inch router is being called with.\r\n     * @param amountAMin - Bounds the extent to which the B/A price can go up before the transaction reverts.\r\n     * @param amountBMin - Bounds the extent to which the A/B price can go up before the transaction reverts.\r\n     * @param recipient - Address which will receive the deposit.\r\n     \r\n     * @return sent - Total {token} amount sent to the farm. NOTE: Returns dust left from swap in {token}, but if A/B amounts are not correct also returns dust in pool's tokens.\r\n     * @return liquidity - Total liquidity sent to the farm (in lpTokens).\r\n     */\r\n    function depositSingleAsset(address lpStakingPool, address token, uint256 amount, bytes[2] calldata swapData, uint256 amountAMin, uint256 amountBMin, address recipient) external whenNotPaused returns(uint256 sent, uint256 liquidity){\r\n        require(amount > 0, \"NO_TOKEN_SENT\");\r\n        Farm farm = Farm(farmFactory.Farms(lpStakingPool));\r\n        if(farm == Farm(address(0))){\r\n            farm = Farm(farmFactory.createFarm(lpStakingPool));\r\n        }\r\n\r\n        IERC20Upgradeable(token).safeTransferFrom(msg.sender, address(this), amount);\r\n        IERC20Upgradeable(token).approve(OneInchRouter, amount);\r\n\r\n        sent = amount;\r\n        uint256 amountA;\r\n        uint256 amountB;\r\n        address tokenA = farm.tokenA();\r\n        address tokenB = farm.tokenB();\r\n\r\n        if (tokenA != token) {\r\n            (uint256 returnAmount, uint256 spentAmount) = _swap(swapData[0], tokenA);\r\n            amount -= spentAmount;\r\n            amountA = returnAmount;\r\n        }\r\n        if (tokenB != token) {\r\n            (uint256 returnAmount, uint256 spentAmount) = _swap(swapData[0], tokenB);\r\n            amount -= spentAmount;\r\n            amountB = returnAmount;\r\n        }\r\n\r\n        if (tokenA == token) {\r\n            amountA = amount;\r\n        } else if (tokenB == token) {\r\n            amountB = amount;\r\n        } else if(amount > 0) {\r\n            sent -= amount;\r\n            IERC20Upgradeable(token).safeTransfer(msg.sender, amount);\r\n        }\r\n\r\n        require(amountA > 0 && amountB > 0, \"NO_TOKENS_SENT\");\r\n        (,,liquidity) = _addLiquidity(tokenA, tokenB, amountA, amountB, amountAMin, amountBMin, address(farm));\r\n        farm.deposit(liquidity, recipient);\r\n        \r\n        emit Deposit(lpStakingPool, msg.sender, recipient, liquidity);\r\n    }\r\n     \r\n    /**\r\n     * @dev Deposits single MATIC in the given pool. Creates new Farm contract if there isn't one deployed for the {lpStakingPool}, swaps MATIC for pool tokens and deposits them. Emits a {Deposit} event.\r\n     * @param lpStakingPool - Address of the pool to deposit tokens in.\r\n     * @param swapData - Parameter with which 1inch router is being called with. NOTE: Use WMATIC as toToken.\r\n     * @param amountAMin - Bounds the extent to which the B/A price can go up before the transaction reverts.\r\n     * @param amountBMin - Bounds the extent to which the A/B price can go up before the transaction reverts.\r\n     * @param recipient - Address which will receive the deposit.\r\n     \r\n     * @return sentETH - Total MATIC amount sent to the farm. NOTE: Returns dust left from swap in MATIC, but if A/B amount are not correct also returns dust in pool's tokens.\r\n     * @return liquidity - Total liquidity sent to the farm (in lpTokens).\r\n     */\r\n    function depositSingleETH(address lpStakingPool, bytes[2] calldata swapData, uint256 amountAMin, uint256 amountBMin, address recipient) external payable whenNotPaused returns(uint256 sentETH, uint256 liquidity){\r\n        require(msg.value > 0, \"NO_MATIC_SENT\");\r\n        Farm farm = Farm(farmFactory.Farms(lpStakingPool));\r\n        if(farm == Farm(address(0))){\r\n            farm = Farm(farmFactory.createFarm(lpStakingPool));\r\n        }\r\n\r\n        uint256 amount = msg.value;\r\n        IWMATIC(WMATIC).deposit{value: amount}();\r\n        IERC20Upgradeable(WMATIC).approve(OneInchRouter, amount);\r\n\r\n        sentETH = amount;\r\n        uint256 amountA;\r\n        uint256 amountB;\r\n        address tokenA = farm.tokenA();\r\n        address tokenB = farm.tokenB();\r\n\r\n        if (tokenA != WMATIC) {\r\n            (uint256 returnAmount, uint256 spentAmount) = _swap(swapData[0], tokenA);\r\n            amount -= spentAmount;\r\n            amountA = returnAmount;\r\n        }\r\n        if (tokenB != WMATIC) {\r\n            (uint256 returnAmount, uint256 spentAmount) = _swap(swapData[1], tokenB);\r\n            amount -= spentAmount;\r\n            amountB = returnAmount;\r\n        }\r\n\r\n        if (tokenA == WMATIC) {\r\n            amountA = amount;\r\n        } else if (tokenB == WMATIC) {\r\n            amountB = amount;\r\n        } else if (amount > 0) {\r\n            sentETH -= amount;\r\n            IWMATIC(WMATIC).withdraw(amount);\r\n            payable(msg.sender).transfer(amount);\r\n        }\r\n\r\n        require(amountA > 0 && amountB > 0, \"NO_TOKENS_SENT\");\r\n        (,,liquidity) = _addLiquidity(tokenA, tokenB, amountA, amountB, amountAMin, amountBMin, address(farm));\r\n        farm.deposit(liquidity, recipient);\r\n\r\n        emit Deposit(lpStakingPool, msg.sender, recipient, liquidity);\r\n    }\r\n\r\n    /**\r\n     * @dev Deposits tokens in the given pool. Creates new Farm contract if there isn't one deployed for the {lpStakingPool} and deposits tokens in it. Emits a {Deposit} event.\r\n     * @param lpStakingPool - Address of the pool to deposit tokens in.\r\n     * @param amount - LP Token amount to deposit.\r\n     * @param recipient - Address which will receive the deposit.\r\n     */\r\n    function depositLP(address lpStakingPool, uint256 amount, address recipient) external whenNotPaused{\r\n        require(amount > 0, \"NO_TOKEN_SENT\");\r\n        Farm farm = Farm(farmFactory.Farms(lpStakingPool));\r\n        if(farm == Farm(address(0))){\r\n            farm = Farm(farmFactory.createFarm(lpStakingPool));\r\n        }\r\n\r\n        IERC20Upgradeable(farm.lpPool()).safeTransferFrom(msg.sender, address(farm), amount);\r\n        farm.deposit(amount, recipient);\r\n\r\n        emit Deposit(lpStakingPool, msg.sender, recipient, amount); \r\n    }\r\n\r\n    /** \r\n     * @dev Withdraws tokens from the given pool. Emits a {Withdraw} event.\r\n     * @param lpStakingPool - LP pool to withdraw from.\r\n     * @param amount - LP amount to withdraw. \r\n     * @param amountAMin - The minimum amount of tokenA that must be received for the transaction not to revert.\r\n     * @param amountBMin - The minimum amount of tokenB that must be received for the transaction not to revert.\r\n     * @param recipient - The address which will receive tokens.\r\n\r\n     * @return amountA - Token A amount sent to the {recipient}.\r\n     * @return amountB - Token B amount sent to the {recipient}.\r\n     */ \r\n    function withdraw(address lpStakingPool, uint256 amount, uint256 amountAMin, uint256 amountBMin, address recipient) external returns(uint256 amountA, uint256 amountB){\r\n        Farm farm = Farm(farmFactory.Farms(lpStakingPool));\r\n        require(farm != Farm(address(0)),'FARM_NOT_EXISTS');\r\n        \r\n        farm.withdraw(amount, msg.sender, address(this));\r\n        (amountA, amountB) = _removeLiquidity(farm.lpPool(), farm.tokenA(), farm.tokenB(), amount, amountAMin, amountBMin, recipient);\r\n\r\n        emit Withdraw(lpStakingPool, msg.sender, recipient, amount);  \r\n    }\r\n\r\n    /** \r\n     * @dev Autoconverts WMATIC into MATIC and withdraws tokens from the pool. Emits a {Withdraw} event.\r\n     * @param lpStakingPool - LP pool to withdraw from.\r\n     * @param amount - LP amount to withdraw. \r\n     * @param amountTokenMin - The minimum amount of token that must be received for the transaction not to revert.\r\n     * @param amountETHMin - The minimum amount of MATIC that must be received for the transaction not to revert.\r\n     * @param recipient - The address which will receive tokens.\r\n\r\n     * @return amountToken - Token amount sent to the {recipient}.\r\n     * @return amountETH - MATIC amount sent to the {recipient}.\r\n     */ \r\n    function withdrawETH(address lpStakingPool, uint256 amount, uint256 amountTokenMin, uint256 amountETHMin, address recipient) external returns(uint256 amountToken, uint256 amountETH){\r\n        Farm farm = Farm(farmFactory.Farms(lpStakingPool));\r\n        require(farm != Farm(address(0)),'FARM_NOT_EXISTS');\r\n\r\n        address tokenA = farm.tokenA();\r\n        address tokenB = farm.tokenB();\r\n        address lpPair = farm.lpPool();\r\n\r\n        farm.withdraw(amount, msg.sender, address(this));\r\n        if (tokenA == WMATIC) {\r\n            (amountToken, amountETH) = _removeLiquidityETH(lpPair, tokenB, amount, amountTokenMin, amountETHMin, recipient);\r\n        } else if (tokenB == WMATIC) {\r\n            (amountToken, amountETH) = _removeLiquidityETH(lpPair, tokenA, amount, amountTokenMin, amountETHMin, recipient);\r\n        } else {\r\n            revert(\"NOT_WMATIC_POOL\");\r\n        }\r\n\r\n        emit Withdraw(lpStakingPool, msg.sender, recipient, amount);\r\n    }\r\n\r\n     /**\r\n     * @dev Withdraws single token from the given pool. Emits a {Withdraw} event. Note: If there are any tokens left to be withdrawn after swaps they will be sent to the {{recipient}} in a respective token (not in {token}).\r\n     * @param lpStakingPool - LP pool to withdraw from.\r\n     * @param amount - LP amount to withdraw. \r\n     * @param token  - Address of a token to exit the pool with.\r\n     * @param swapData - Parameter with which 1inch router is being called with.\r\n     * @param recipient - Address which will receive the deposit.\r\n     \r\n     * @return amountToken - {token} amount sent to the {recipient}.\r\n     * @return amountA - Token A dust sent to the {recipient}.\r\n     * @return amountB - Token B dust sent to the {recipient}.\r\n     */\r\n    function withdrawSingleAsset(address lpStakingPool, uint256 amount, address token, bytes[2] calldata swapData, address recipient) external whenNotPaused returns(uint256 amountToken, uint256 amountA, uint256 amountB){\r\n        Farm farm = Farm(farmFactory.Farms(lpStakingPool));\r\n        require(farm != Farm(address(0)),'FARM_NOT_EXISTS');\r\n\r\n        farm.withdraw(amount, msg.sender, address(this));\r\n\r\n        address tokenA = farm.tokenA();\r\n        address tokenB = farm.tokenB();\r\n        (amountA, amountB) = _removeLiquidity(farm.lpPool(), tokenA, tokenB, amount, 0, 0, address(this));\r\n\r\n        if (tokenA != token) {\r\n            IERC20Upgradeable(tokenA).approve(OneInchRouter, amountA);\r\n            (uint256 returnAmount, uint256 spentAmount) = _swap(swapData[0], token);\r\n            amountToken += returnAmount;\r\n\r\n            amountA = amountA - spentAmount;\r\n            IERC20Upgradeable(tokenA).safeTransfer(recipient, amountA);\r\n        } else {\r\n            amountToken += amountA;\r\n        }\r\n\r\n        if (tokenB != token) {\r\n            IERC20Upgradeable(tokenB).approve(OneInchRouter, amountB);\r\n            (uint256 returnAmount, uint256 spentAmount) = _swap(swapData[1], token);\r\n            amountToken += returnAmount;\r\n\r\n            amountB = amountB - spentAmount;\r\n            IERC20Upgradeable(tokenB).safeTransfer(recipient, amountB);\r\n        } else {\r\n            amountToken += amountB;\r\n        }\r\n\r\n        IERC20Upgradeable(token).safeTransfer(recipient, amountToken);\r\n\r\n        emit Withdraw(lpStakingPool, msg.sender, recipient, amount);\r\n    }\r\n     \r\n    /**\r\n     * @dev Withdraws single MATIC from the given pool. Emits a {Withdraw} event. Note: If there are any tokens left to be withdrawn after swaps they will be sent to the {{recipient}} in a respective token (not in MATIC).\r\n     * @param lpStakingPool - LP pool to withdraw from.\r\n     * @param amount - LP amount to withdraw. \r\n     * @param swapData - Parameter with which 1inch router is being called with.\r\n     * @param recipient - Address which will receive the deposit.\r\n     \r\n     * @return amountETH - MATIC amount sent to the {recipient}.\r\n     * @return amountA - Token A dust sent to the {recipient}.\r\n     * @return amountB - Token B dust sent to the {recipient}.\r\n     */\r\n    function withdrawSingleETH(address lpStakingPool,  uint256 amount, bytes[2] calldata swapData, address recipient) external whenNotPaused returns(uint256 amountETH, uint256 amountA, uint256 amountB){\r\n        Farm farm = Farm(farmFactory.Farms(lpStakingPool));\r\n        require(farm != Farm(address(0)),'FARM_NOT_EXISTS');\r\n\r\n        farm.withdraw(amount, msg.sender, address(this));\r\n\r\n        address tokenA = farm.tokenA();\r\n        address tokenB = farm.tokenB();\r\n        (amountA, amountB) = _removeLiquidity(farm.lpPool(), tokenA, tokenB, amount, 0, 0, address(this));\r\n\r\n        if (tokenA != WMATIC) {\r\n            IERC20Upgradeable(tokenA).approve(OneInchRouter, amountA);\r\n            (uint256 returnAmount, uint256 spentAmount) = _swap(swapData[0], WMATIC);\r\n            amountETH += returnAmount;\r\n\r\n            amountA = amountA - spentAmount;\r\n            IERC20Upgradeable(tokenA).safeTransfer(recipient, amountA);\r\n        } else {\r\n            amountETH += amountA;\r\n        }\r\n\r\n        if (tokenB != WMATIC) {\r\n            IERC20Upgradeable(tokenB).approve(OneInchRouter, amountB);\r\n            (uint256 returnAmount, uint256 spentAmount) = _swap(swapData[1], WMATIC);\r\n            amountETH += returnAmount;\r\n\r\n            amountB = amountB - spentAmount;\r\n            IERC20Upgradeable(tokenB).safeTransfer(recipient, amountB);\r\n        } else {\r\n            amountETH += amountB;\r\n        }\r\n\r\n        IWMATIC(WMATIC).withdraw(amountETH);\r\n        payable(recipient).transfer(amountETH);\r\n\r\n        emit Withdraw(lpStakingPool, msg.sender, recipient, amount);\r\n    }\r\n\r\n    /** \r\n     * @dev Withdraws LP tokens from the given pool. Emits a {Withdraw} event.\r\n     * @param lpStakingPool - LP pool to withdraw from.\r\n     * @param amount - LP amount to withdraw. \r\n     * @param recipient - The address which will receive tokens.\r\n     */ \r\n    function withdrawLP(address lpStakingPool, uint256 amount, address recipient) external {\r\n        Farm farm = Farm(farmFactory.Farms(lpStakingPool));\r\n        require(farm != Farm(address(0)),'FARM_NOT_EXISTS');\r\n        \r\n        farm.withdraw(amount, msg.sender, recipient);\r\n        emit Withdraw(lpStakingPool, msg.sender, recipient, amount);  \r\n    }\r\n\r\n     /**\r\n     * @dev Distributes tokens between users.\r\n     * @param lpStakingPool - LP pool to distribute tokens in.\r\n     * @param swapInfos - Arrays of structs with token arrays describing swap routes (rewardTokenAToTokenA, rewardTokenAToTokenB, rewardTokenBToTokenA, rewardTokenBToTokenB) and minimum amounts of output tokens that must be received for the transaction not to revert.\r\n     * @param feeTo - Address to collect fees to.\r\n     *\r\n     * Note: This function can only be called by the distributor.\r\n     */ \r\n    function distribute(\r\n        address lpStakingPool,\r\n        Farm.SwapInfo[4] calldata swapInfos,\r\n        address feeTo\r\n    ) external whenNotPaused onlyRole(DISTRIBUTOR_ROLE) {\r\n        Farm farm = Farm(farmFactory.Farms(lpStakingPool));\r\n        require(farm != Farm(address(0)), 'FARM_NOT_EXISTS');\r\n\r\n        uint256 reward = farm.distribute(swapInfos, IUnoFarm.FeeInfo(feeTo, fee));\r\n        emit Distribute(lpStakingPool, reward);\r\n    }\r\n\r\n    /**\r\n     * @dev Returns tokens staked by the {_address} for the given {lpStakingPool}.\r\n     * @param _address - The address to check stakes for.\r\n     * @param lpStakingPool - LP pool to check stakes in.\r\n\r\n     * @return stakeLP - Total user stake(in LP tokens).\r\n     * @return stakeA - Token A stake.\r\n     * @return stakeB - Token B stake.\r\n     */\r\n    function userStake(address _address, address lpStakingPool) external view returns (uint256 stakeLP, uint256 stakeA, uint256 stakeB) {\r\n        Farm farm = Farm(farmFactory.Farms(lpStakingPool));\r\n        if (farm != Farm(address(0))) {\r\n            stakeLP = farm.userBalance(_address);\r\n            address lpPair = farm.lpPool();\r\n            (stakeA, stakeB) = _getTokenStake(lpPair, stakeLP);\r\n        }\r\n    }\r\n\r\n    /**\r\n     * @dev Returns total amount locked in the pool. Doesn't take pending rewards into account.\r\n     * @param lpStakingPool - LP pool to check total deposits in.\r\n\r\n     * @return totalDepositsLP - Total deposits (in LP tokens).\r\n     * @return totalDepositsA - Token A deposits.\r\n     * @return totalDepositsB - Token B deposits.\r\n     */  \r\n    function totalDeposits(address lpStakingPool) external view returns (uint256 totalDepositsLP, uint256 totalDepositsA, uint256 totalDepositsB) {\r\n        Farm farm = Farm(farmFactory.Farms(lpStakingPool));\r\n        if (farm != Farm(address(0))) {\r\n            totalDepositsLP = farm.getTotalDeposits();\r\n            address lpPair = farm.lpPool();\r\n            (totalDepositsA, totalDepositsB) = _getTokenStake(lpPair, totalDepositsLP);\r\n        }\r\n    }\r\n\r\n    /**\r\n     * @dev Returns addresses of pair of tokens in {lpStakingPool}.\r\n     * @param lpStakingPool - LP pool to check tokens in.\r\n\r\n     * @return tokens - Tokens addresses.\r\n     */  \r\n    function getTokens(address lpStakingPool) external view returns(IERC20[] memory tokens){\r\n        tokens = new IERC20[](2);\r\n        IUniswapV2Pair stakingToken = IUniswapV2Pair(address(IStakingDualRewards(lpStakingPool).stakingToken()));\r\n        tokens[0] = IERC20(stakingToken.token0());\r\n        tokens[1] = IERC20(stakingToken.token1());\r\n    }\r\n\r\n    /**\r\n     * @dev Deposits assets to router & refunds dust.\r\n     */ \r\n    function _addLiquidity(\r\n        address tokenA,\r\n        address tokenB, \r\n        uint256 amountA, \r\n        uint256 amountB, \r\n        uint256 amountAMin, \r\n        uint256 amountBMin, \r\n        address farm\r\n    ) internal returns(uint256 sentA, uint256 sentB, uint256 liquidity){\r\n        IERC20Upgradeable(tokenA).approve(address(QuickswapRouter), amountA);\r\n        IERC20Upgradeable(tokenB).approve(address(QuickswapRouter), amountB);\r\n\r\n        (sentA, sentB, liquidity) = QuickswapRouter.addLiquidity(tokenA, tokenB, amountA, amountB, amountAMin, amountBMin, farm, block.timestamp);\r\n        // Refund dust\r\n        IERC20Upgradeable(tokenA).safeTransfer(msg.sender, amountA - sentA);\r\n\t\tIERC20Upgradeable(tokenB).safeTransfer(msg.sender, amountB - sentB);\r\n    }\r\n\r\n    /**\r\n     * @dev Deposits assets to router & refunds dust.\r\n     */ \r\n    function _addLiquidityETH(\r\n        address token,\r\n        uint256 amount, \r\n        uint256 amountTokenMin, \r\n        uint256 amountETHMin, \r\n        address farm\r\n    ) internal returns(uint256 sentToken, uint256 sentETH, uint256 liquidity){\r\n        IERC20Upgradeable(token).approve(address(QuickswapRouter), amount);\r\n\r\n        (sentToken, sentETH, liquidity) = QuickswapRouter.addLiquidityETH{value: msg.value}(token, amount, amountTokenMin, amountETHMin, farm, block.timestamp);\r\n        // Refund dust\r\n        IERC20Upgradeable(token).safeTransfer(msg.sender, amount - sentToken);\r\n        payable(msg.sender).transfer(msg.value - sentETH);\r\n    }\r\n\r\n    /**\r\n     * @dev Deposits assets to router & refunds dust.\r\n     */ \r\n    function _removeLiquidity(\r\n        address lpPair,\r\n        address tokenA,\r\n        address tokenB, \r\n        uint256 amount, \r\n        uint256 amountAMin, \r\n        uint256 amountBMin, \r\n        address recipient\r\n    ) internal returns(uint256 amountA, uint256 amountB){\r\n        IERC20Upgradeable(lpPair).approve(address(QuickswapRouter), amount);\r\n        (amountA, amountB) = QuickswapRouter.removeLiquidity(tokenA, tokenB, amount, amountAMin, amountBMin, recipient, block.timestamp);\r\n    }\r\n\r\n    /**\r\n     * @dev Deposits assets to router & refunds dust.\r\n     */ \r\n    function _removeLiquidityETH(\r\n        address lpPair,\r\n        address token,\r\n        uint256 amount, \r\n        uint256 amountTokenMin, \r\n        uint256 amountETHMin, \r\n        address recipient\r\n    ) internal returns(uint256 amountToken, uint256 amountETH){\r\n        IERC20Upgradeable(lpPair).approve(address(QuickswapRouter), amount);\r\n        (amountToken, amountETH) = QuickswapRouter.removeLiquidityETH(token, amount, amountTokenMin, amountETHMin, recipient, block.timestamp);\r\n    }\r\n\r\n    /**\r\n     * @dev Swaps assets using 1inch exchange.\r\n     */  \r\n    function _swap(bytes calldata swapData, address toToken) internal returns(uint256 returnAmount, uint256 spentAmount){\r\n        uint256 balanceBefore = IERC20Upgradeable(toToken).balanceOf(address(this));\r\n        (bool success, bytes memory data) = OneInchRouter.call(swapData);\r\n        require(success, \"SWAP_NOT_SUCCESSFUL\");\r\n\r\n        (returnAmount, spentAmount) = abi.decode(data, (uint256, uint256));\r\n        //checks if all {{toToken}}s from swap were transfered to this address\r\n        uint256 balanceAfter = IERC20Upgradeable(toToken).balanceOf(address(this));\r\n        require(balanceAfter - balanceBefore == returnAmount, \"BAD_RETURN_AMOUNT\");\r\n    }\r\n\r\n    /**\r\n     * @dev Converts LP tokens to normal tokens, value(amountA) == value(amountB) == 0.5*amountLP\r\n     * @param lpPair - LP pair for conversion.\r\n     * @param amountLP - Amount of LP tokens to convert.\r\n\r\n     * @return amountA - Token A amount.\r\n     * @return amountB - Token B amount.\r\n     */ \r\n    function _getTokenStake(address lpPair, uint256 amountLP) internal view returns (uint256 amountA, uint256 amountB) {\r\n        uint256 totalSupply = IERC20Upgradeable(lpPair).totalSupply();\r\n        amountA = amountLP * IERC20Upgradeable(IUniswapV2Pair(lpPair).token0()).balanceOf(lpPair) / totalSupply;\r\n        amountB = amountLP * IERC20Upgradeable(IUniswapV2Pair(lpPair).token1()).balanceOf(lpPair) / totalSupply;\r\n    }\r\n\r\n    /**\r\n     * @dev Change fee amount.\r\n     * @param _fee -New fee to collect from farms. [10^18 == 100%]\r\n     *\r\n     * Note: This function can only be called by ADMIN_ROLE.\r\n     */ \r\n    function setFee(uint256 _fee) external onlyRole(accessManager.ADMIN_ROLE()){\r\n        require (_fee <= 1 ether, \"BAD_FEE\");\r\n        if(fee != _fee){\r\n            emit FeeChanged(fee, _fee); \r\n            fee = _fee;\r\n        }\r\n    }\r\n\r\n    function pause() external onlyRole(PAUSER_ROLE) {\r\n        _pause();\r\n    }\r\n\r\n    function unpause() external onlyRole(PAUSER_ROLE) {\r\n        _unpause();\r\n    }\r\n\r\n    function _authorizeUpgrade(address) internal override onlyRole(accessManager.ADMIN_ROLE()) {\r\n\r\n    }\r\n}\r\n",
  "sourcePath": "C:\\Users\\jugli\\Desktop\\uno\\uno-contracts\\contracts\\test\\UnoAssetRouterQuickswapDualV2.sol",
  "compiler": {
    "name": "solc",
    "version": "0.8.10+commit.fc410830.Emscripten.clang"
  },
  "schemaVersion": "3.4.13",
  "updatedAt": "2023-06-19T11:50:07.477Z",
  "devdoc": {
    "kind": "dev",
    "methods": {
      "constructor": {
        "custom:oz-upgrades-unsafe-allow": "constructor"
      },
      "deposit(address,uint256,uint256,uint256,uint256,address)": {
        "details": "Deposits tokens in the given pool. Creates new Farm contract if there isn't one deployed for the {lpStakingPool} and deposits tokens in it. Emits a {Deposit} event.",
        "params": {
          "amountA": "- Token A amount to deposit.",
          "amountAMin": "- Bounds the extent to which the B/A price can go up before the transaction reverts.",
          "amountB": "-  Token B amount to deposit.",
          "amountBMin": "- Bounds the extent to which the A/B price can go up before the transaction reverts.",
          "lpStakingPool": "- Address of the pool to deposit tokens in.",
          "recipient": "- Address which will receive the deposit."
        },
        "returns": {
          "liquidity": "- Total liquidity sent to the farm (in lpTokens).",
          "sentA": "- Token A amount sent to the farm.",
          "sentB": "- Token B amount sent to the farm."
        }
      },
      "depositETH(address,uint256,uint256,uint256,address)": {
        "details": "Autoconverts MATIC into WMATIC and deposits tokens in the given pool. Creates new Farm contract if there isn't one deployed for the {lpStakingPool} and deposits tokens in it. Emits a {Deposit} event.",
        "params": {
          "amountETHMin": "- Bounds the extent to which the WMATIC/TOKEN price can go up before the transaction reverts.",
          "amountToken": "- Token amount to deposit.",
          "amountTokenMin": "- Bounds the extent to which the TOKEN/WMATIC price can go up before the transaction reverts.",
          "lpStakingPool": "- Address of the pool to deposit tokens in.",
          "recipient": "- Address which will receive the deposit."
        },
        "returns": {
          "liquidity": "- Total liquidity sent to the farm (in lpTokens).",
          "sentETH": "- WMATIC amount sent to the farm.",
          "sentToken": "- Token amount sent to the farm."
        }
      },
      "depositLP(address,uint256,address)": {
        "details": "Deposits tokens in the given pool. Creates new Farm contract if there isn't one deployed for the {lpStakingPool} and deposits tokens in it. Emits a {Deposit} event.",
        "params": {
          "amount": "- LP Token amount to deposit.",
          "lpStakingPool": "- Address of the pool to deposit tokens in.",
          "recipient": "- Address which will receive the deposit."
        }
      },
      "depositSingleAsset(address,address,uint256,bytes[2],uint256,uint256,address)": {
        "details": "Deposits single token in the given pool. Creates new Farm contract if there isn't one deployed for the {lpStakingPool}, swaps {token} for pool tokens and deposits them. Emits a {Deposit} event.",
        "params": {
          "amount": "- Amount of token sent.",
          "amountAMin": "- Bounds the extent to which the B/A price can go up before the transaction reverts.",
          "amountBMin": "- Bounds the extent to which the A/B price can go up before the transaction reverts.",
          "lpStakingPool": "- Address of the pool to deposit tokens in.",
          "recipient": "- Address which will receive the deposit.",
          "swapData": "- Parameter with which 1inch router is being called with.",
          "token": "- Address of a token to enter the pool."
        },
        "returns": {
          "liquidity": "- Total liquidity sent to the farm (in lpTokens).",
          "sent": "- Total {token} amount sent to the farm. NOTE: Returns dust left from swap in {token}, but if A/B amounts are not correct also returns dust in pool's tokens."
        }
      },
      "depositSingleETH(address,bytes[2],uint256,uint256,address)": {
        "details": "Deposits single MATIC in the given pool. Creates new Farm contract if there isn't one deployed for the {lpStakingPool}, swaps MATIC for pool tokens and deposits them. Emits a {Deposit} event.",
        "params": {
          "amountAMin": "- Bounds the extent to which the B/A price can go up before the transaction reverts.",
          "amountBMin": "- Bounds the extent to which the A/B price can go up before the transaction reverts.",
          "lpStakingPool": "- Address of the pool to deposit tokens in.",
          "recipient": "- Address which will receive the deposit.",
          "swapData": "- Parameter with which 1inch router is being called with. NOTE: Use WMATIC as toToken."
        },
        "returns": {
          "liquidity": "- Total liquidity sent to the farm (in lpTokens).",
          "sentETH": "- Total MATIC amount sent to the farm. NOTE: Returns dust left from swap in MATIC, but if A/B amount are not correct also returns dust in pool's tokens."
        }
      },
      "distribute(address,(address[],uint256)[4],address)": {
        "details": "Distributes tokens between users.",
        "params": {
          "feeTo": "- Address to collect fees to. Note: This function can only be called by the distributor.",
          "lpStakingPool": "- LP pool to distribute tokens in.",
          "swapInfos": "- Arrays of structs with token arrays describing swap routes (rewardTokenAToTokenA, rewardTokenAToTokenB, rewardTokenBToTokenA, rewardTokenBToTokenB) and minimum amounts of output tokens that must be received for the transaction not to revert."
        }
      },
      "getTokens(address)": {
        "details": "Returns addresses of pair of tokens in {lpStakingPool}.",
        "params": {
          "lpStakingPool": "- LP pool to check tokens in."
        },
        "returns": {
          "tokens": "- Tokens addresses."
        }
      },
      "paused()": {
        "details": "Returns true if the contract is paused, and false otherwise."
      },
      "proxiableUUID()": {
        "details": "Implementation of the ERC1822 {proxiableUUID} function. This returns the storage slot used by the implementation. It is used to validate that the this implementation remains valid after an upgrade. IMPORTANT: A proxy pointing at a proxiable contract should not be considered proxiable itself, because this risks bricking a proxy that upgrades to it, by delegating to itself until out of gas. Thus it is critical that this function revert if invoked through a proxy. This is guaranteed by the `notDelegated` modifier."
      },
      "setFee(uint256)": {
        "details": "Change fee amount.",
        "params": {
          "_fee": "-New fee to collect from farms. [10^18 == 100%] Note: This function can only be called by ADMIN_ROLE."
        }
      },
      "totalDeposits(address)": {
        "details": "Returns total amount locked in the pool. Doesn't take pending rewards into account.",
        "params": {
          "lpStakingPool": "- LP pool to check total deposits in."
        },
        "returns": {
          "totalDepositsA": "- Token A deposits.",
          "totalDepositsB": "- Token B deposits.",
          "totalDepositsLP": "- Total deposits (in LP tokens)."
        }
      },
      "upgradeTo(address)": {
        "details": "Upgrade the implementation of the proxy to `newImplementation`. Calls {_authorizeUpgrade}. Emits an {Upgraded} event."
      },
      "upgradeToAndCall(address,bytes)": {
        "details": "Upgrade the implementation of the proxy to `newImplementation`, and subsequently execute the function call encoded in `data`. Calls {_authorizeUpgrade}. Emits an {Upgraded} event."
      },
      "userStake(address,address)": {
        "details": "Returns tokens staked by the {_address} for the given {lpStakingPool}.",
        "params": {
          "_address": "- The address to check stakes for.",
          "lpStakingPool": "- LP pool to check stakes in."
        },
        "returns": {
          "stakeA": "- Token A stake.",
          "stakeB": "- Token B stake.",
          "stakeLP": "- Total user stake(in LP tokens)."
        }
      },
      "withdraw(address,uint256,uint256,uint256,address)": {
        "details": "Withdraws tokens from the given pool. Emits a {Withdraw} event.",
        "params": {
          "amount": "- LP amount to withdraw. ",
          "amountAMin": "- The minimum amount of tokenA that must be received for the transaction not to revert.",
          "amountBMin": "- The minimum amount of tokenB that must be received for the transaction not to revert.",
          "lpStakingPool": "- LP pool to withdraw from.",
          "recipient": "- The address which will receive tokens."
        },
        "returns": {
          "amountA": "- Token A amount sent to the {recipient}.",
          "amountB": "- Token B amount sent to the {recipient}."
        }
      },
      "withdrawETH(address,uint256,uint256,uint256,address)": {
        "details": "Autoconverts WMATIC into MATIC and withdraws tokens from the pool. Emits a {Withdraw} event.",
        "params": {
          "amount": "- LP amount to withdraw. ",
          "amountETHMin": "- The minimum amount of MATIC that must be received for the transaction not to revert.",
          "amountTokenMin": "- The minimum amount of token that must be received for the transaction not to revert.",
          "lpStakingPool": "- LP pool to withdraw from.",
          "recipient": "- The address which will receive tokens."
        },
        "returns": {
          "amountETH": "- MATIC amount sent to the {recipient}.",
          "amountToken": "- Token amount sent to the {recipient}."
        }
      },
      "withdrawLP(address,uint256,address)": {
        "details": "Withdraws LP tokens from the given pool. Emits a {Withdraw} event.",
        "params": {
          "amount": "- LP amount to withdraw. ",
          "lpStakingPool": "- LP pool to withdraw from.",
          "recipient": "- The address which will receive tokens."
        }
      },
      "withdrawSingleAsset(address,uint256,address,bytes[2],address)": {
        "details": "Withdraws single token from the given pool. Emits a {Withdraw} event. Note: If there are any tokens left to be withdrawn after swaps they will be sent to the {{recipient}} in a respective token (not in {token}).",
        "params": {
          "amount": "- LP amount to withdraw. ",
          "lpStakingPool": "- LP pool to withdraw from.",
          "recipient": "- Address which will receive the deposit.",
          "swapData": "- Parameter with which 1inch router is being called with.",
          "token": "- Address of a token to exit the pool with."
        },
        "returns": {
          "amountA": "- Token A dust sent to the {recipient}.",
          "amountB": "- Token B dust sent to the {recipient}.",
          "amountToken": "- {token} amount sent to the {recipient}."
        }
      },
      "withdrawSingleETH(address,uint256,bytes[2],address)": {
        "details": "Withdraws single MATIC from the given pool. Emits a {Withdraw} event. Note: If there are any tokens left to be withdrawn after swaps they will be sent to the {{recipient}} in a respective token (not in MATIC).",
        "params": {
          "amount": "- LP amount to withdraw. ",
          "lpStakingPool": "- LP pool to withdraw from.",
          "recipient": "- Address which will receive the deposit.",
          "swapData": "- Parameter with which 1inch router is being called with."
        },
        "returns": {
          "amountA": "- Token A dust sent to the {recipient}.",
          "amountB": "- Token B dust sent to the {recipient}.",
          "amountETH": "- MATIC amount sent to the {recipient}."
        }
      }
    },
    "stateVariables": {
      "farmFactory": {
        "details": "Contract Variables: farmFactory - The contract that deploys new Farms and links them to {lpStakingPool}s. accessManager - Role manager contract."
      }
    },
    "version": 1
  },
  "userdoc": {
    "kind": "user",
    "methods": {},
    "version": 1
  }
}