{
  "contractName": "UnoAssetRouterTrisolarisStable",
  "abi": [
    {
      "anonymous": false,
      "inputs": [
        {
          "indexed": false,
          "internalType": "address",
          "name": "previousAdmin",
          "type": "address"
        },
        {
          "indexed": false,
          "internalType": "address",
          "name": "newAdmin",
          "type": "address"
        }
      ],
      "name": "AdminChanged",
      "type": "event"
    },
    {
      "anonymous": false,
      "inputs": [
        {
          "indexed": true,
          "internalType": "address",
          "name": "beacon",
          "type": "address"
        }
      ],
      "name": "BeaconUpgraded",
      "type": "event"
    },
    {
      "anonymous": false,
      "inputs": [
        {
          "indexed": true,
          "internalType": "address",
          "name": "lpPool",
          "type": "address"
        },
        {
          "indexed": true,
          "internalType": "address",
          "name": "sender",
          "type": "address"
        },
        {
          "indexed": true,
          "internalType": "address",
          "name": "recipient",
          "type": "address"
        },
        {
          "indexed": false,
          "internalType": "uint256",
          "name": "amount",
          "type": "uint256"
        }
      ],
      "name": "Deposit",
      "type": "event"
    },
    {
      "anonymous": false,
      "inputs": [
        {
          "indexed": true,
          "internalType": "address",
          "name": "lpPool",
          "type": "address"
        },
        {
          "indexed": false,
          "internalType": "uint256",
          "name": "reward",
          "type": "uint256"
        }
      ],
      "name": "Distribute",
      "type": "event"
    },
    {
      "anonymous": false,
      "inputs": [
        {
          "indexed": false,
          "internalType": "uint8",
          "name": "version",
          "type": "uint8"
        }
      ],
      "name": "Initialized",
      "type": "event"
    },
    {
      "anonymous": false,
      "inputs": [
        {
          "indexed": false,
          "internalType": "address",
          "name": "account",
          "type": "address"
        }
      ],
      "name": "Paused",
      "type": "event"
    },
    {
      "anonymous": false,
      "inputs": [
        {
          "indexed": false,
          "internalType": "address",
          "name": "account",
          "type": "address"
        }
      ],
      "name": "Unpaused",
      "type": "event"
    },
    {
      "anonymous": false,
      "inputs": [
        {
          "indexed": true,
          "internalType": "address",
          "name": "implementation",
          "type": "address"
        }
      ],
      "name": "Upgraded",
      "type": "event"
    },
    {
      "anonymous": false,
      "inputs": [
        {
          "indexed": true,
          "internalType": "address",
          "name": "lpPool",
          "type": "address"
        },
        {
          "indexed": true,
          "internalType": "address",
          "name": "sender",
          "type": "address"
        },
        {
          "indexed": true,
          "internalType": "address",
          "name": "recipient",
          "type": "address"
        },
        {
          "indexed": false,
          "internalType": "uint256",
          "name": "amount",
          "type": "uint256"
        }
      ],
      "name": "Withdraw",
      "type": "event"
    },
    {
      "inputs": [],
      "name": "accessManager",
      "outputs": [
        {
          "internalType": "contract IUnoAccessManager",
          "name": "",
          "type": "address"
        }
      ],
      "stateMutability": "view",
      "type": "function",
      "constant": true
    },
    {
      "inputs": [],
      "name": "farmFactory",
      "outputs": [
        {
          "internalType": "contract IUnoFarmFactory",
          "name": "",
          "type": "address"
        }
      ],
      "stateMutability": "view",
      "type": "function",
      "constant": true
    },
    {
      "inputs": [],
      "name": "paused",
      "outputs": [
        {
          "internalType": "bool",
          "name": "",
          "type": "bool"
        }
      ],
      "stateMutability": "view",
      "type": "function",
      "constant": true
    },
    {
      "inputs": [],
      "name": "proxiableUUID",
      "outputs": [
        {
          "internalType": "bytes32",
          "name": "",
          "type": "bytes32"
        }
      ],
      "stateMutability": "view",
      "type": "function",
      "constant": true
    },
    {
      "inputs": [
        {
          "internalType": "address",
          "name": "newImplementation",
          "type": "address"
        }
      ],
      "name": "upgradeTo",
      "outputs": [],
      "stateMutability": "nonpayable",
      "type": "function"
    },
    {
      "inputs": [
        {
          "internalType": "address",
          "name": "newImplementation",
          "type": "address"
        },
        {
          "internalType": "bytes",
          "name": "data",
          "type": "bytes"
        }
      ],
      "name": "upgradeToAndCall",
      "outputs": [],
      "stateMutability": "payable",
      "type": "function",
      "payable": true
    },
    {
      "inputs": [
        {
          "internalType": "address",
          "name": "_accessManager",
          "type": "address"
        },
        {
          "internalType": "address",
          "name": "_farmFactory",
          "type": "address"
        }
      ],
      "name": "initialize",
      "outputs": [],
      "stateMutability": "nonpayable",
      "type": "function"
    },
    {
      "inputs": [
        {
          "internalType": "address",
          "name": "swap",
          "type": "address"
        },
        {
          "internalType": "uint256[]",
          "name": "amounts",
          "type": "uint256[]"
        },
        {
          "internalType": "uint256",
          "name": "minAmountLP",
          "type": "uint256"
        },
        {
          "internalType": "uint256",
          "name": "amountLP",
          "type": "uint256"
        },
        {
          "internalType": "address",
          "name": "recipient",
          "type": "address"
        }
      ],
      "name": "deposit",
      "outputs": [
        {
          "internalType": "uint256",
          "name": "liquidity",
          "type": "uint256"
        }
      ],
      "stateMutability": "nonpayable",
      "type": "function"
    },
    {
      "inputs": [
        {
          "internalType": "address",
          "name": "swap",
          "type": "address"
        },
        {
          "internalType": "uint256",
          "name": "amount",
          "type": "uint256"
        },
        {
          "internalType": "uint256[]",
          "name": "minAmounts",
          "type": "uint256[]"
        },
        {
          "internalType": "bool",
          "name": "withdrawLP",
          "type": "bool"
        },
        {
          "internalType": "address",
          "name": "recipient",
          "type": "address"
        }
      ],
      "name": "withdraw",
      "outputs": [
        {
          "internalType": "uint256[]",
          "name": "amounts",
          "type": "uint256[]"
        }
      ],
      "stateMutability": "nonpayable",
      "type": "function"
    },
    {
      "inputs": [
        {
          "internalType": "address",
          "name": "swap",
          "type": "address"
        },
        {
          "internalType": "address[][]",
          "name": "rewardTokenRoutes",
          "type": "address[][]"
        },
        {
          "internalType": "address[][]",
          "name": "rewarderTokenRoutes",
          "type": "address[][]"
        },
        {
          "internalType": "uint256[]",
          "name": "rewardAmountsOutMin",
          "type": "uint256[]"
        },
        {
          "internalType": "uint256[]",
          "name": "rewarderAmountsOutMin",
          "type": "uint256[]"
        }
      ],
      "name": "distribute",
      "outputs": [],
      "stateMutability": "nonpayable",
      "type": "function"
    },
    {
      "inputs": [
        {
          "internalType": "address",
          "name": "_address",
          "type": "address"
        },
        {
          "internalType": "address",
          "name": "swap",
          "type": "address"
        }
      ],
      "name": "userStake",
      "outputs": [
        {
          "internalType": "uint256",
          "name": "stakeLP",
          "type": "uint256"
        }
      ],
      "stateMutability": "view",
      "type": "function",
      "constant": true
    },
    {
      "inputs": [
        {
          "internalType": "address",
          "name": "swap",
          "type": "address"
        }
      ],
      "name": "totalDeposits",
      "outputs": [
        {
          "internalType": "uint256",
          "name": "totalDepositsLP",
          "type": "uint256"
        }
      ],
      "stateMutability": "view",
      "type": "function",
      "constant": true
    },
    {
      "inputs": [
        {
          "internalType": "address",
          "name": "swap",
          "type": "address"
        }
      ],
      "name": "getTokens",
      "outputs": [
        {
          "internalType": "address[]",
          "name": "tokens",
          "type": "address[]"
        }
      ],
      "stateMutability": "view",
      "type": "function",
      "constant": true
    },
    {
      "inputs": [],
      "name": "pause",
      "outputs": [],
      "stateMutability": "nonpayable",
      "type": "function"
    },
    {
      "inputs": [],
      "name": "unpause",
      "outputs": [],
      "stateMutability": "nonpayable",
      "type": "function"
    }
  ],
  "bytecode": "0x60a06040523060805234801561001457600080fd5b506080516125a361004c600039600081816102f801528181610341015281816108270152818161086701526109f101526125a36000f3fe6080604052600436106100e85760003560e01c806359c0e65e1161008a5780638456cb59116100595780638456cb591461026b578063947b916014610280578063e9403256146102ad578063fdcb6068146102cd57600080fd5b806359c0e65e146101d05780635c975abb146101f05780636d25e175146102135780637385bcb31461024b57600080fd5b8063485cc955116100c6578063485cc9551461015a5780634f1ef2861461017a57806351bdca3e1461018d57806352d1902d146101bb57600080fd5b80633659cfe6146100ed5780633f4ba83a1461010f578063450efe2114610124575b600080fd5b3480156100f957600080fd5b5061010d610108366004611c1a565b6102ed565b005b34801561011b57600080fd5b5061010d6103d6565b34801561013057600080fd5b5061014461013f366004611c1a565b6104b2565b6040516101519190611c37565b60405180910390f35b34801561016657600080fd5b5061010d610175366004611c84565b6106d9565b61010d610188366004611d04565b61081c565b34801561019957600080fd5b506101ad6101a8366004611c84565b6108ed565b604051908152602001610151565b3480156101c757600080fd5b506101ad6109e4565b3480156101dc57600080fd5b506101ad6101eb366004611e3b565b610a97565b3480156101fc57600080fd5b5060335460ff166040519015158152602001610151565b34801561021f57600080fd5b5060c954610233906001600160a01b031681565b6040516001600160a01b039091168152602001610151565b34801561025757600080fd5b5061010d610266366004611eff565b610d94565b34801561027757600080fd5b5061010d610ffe565b34801561028c57600080fd5b506102a061029b366004611fe6565b6110d8565b6040516101519190612094565b3480156102b957600080fd5b506101ad6102c8366004611c1a565b611267565b3480156102d957600080fd5b5060ca54610233906001600160a01b031681565b306001600160a01b037f000000000000000000000000000000000000000000000000000000000000000016141561033f5760405162461bcd60e51b8152600401610336906120a7565b60405180910390fd5b7f00000000000000000000000000000000000000000000000000000000000000006001600160a01b0316610388600080516020612527833981519152546001600160a01b031690565b6001600160a01b0316146103ae5760405162461bcd60e51b8152600401610336906120f3565b6103b781611355565b604080516000808252602082019092526103d391839190611470565b50565b60ca54604051632474521560e21b81527f65d7a28e3265b37a6474929f336521b332c1681b933f6cb9f3376673440d862a60048201523360248201526001600160a01b03909116906391d1485490604401602060405180830381865afa158015610444573d6000803e3d6000fd5b505050506040513d601f19601f82011682018060405250810190610468919061213f565b6104a85760405162461bcd60e51b815260206004820152601160248201527021a0a62622a92fa727aa2fa820aaa9a2a960791b6044820152606401610336565b6104b06115db565b565b6040805160ff8082526120008201909252606091600091829160208201611fe08036833701905050905060005b60ff81811610156105d45760405162415c3360e91b815260ff821660048201526001600160a01b038616906382b8660090602401602060405180830381865afa92505050801561054c575060408051601f3d908101601f191682019092526105499181019061215c565b60015b610586573d80801561057a576040519150601f19603f3d011682016040523d82523d6000602084013e61057f565b606091505b50506105d4565b80838360ff168151811061059c5761059c612179565b6001600160a01b0390921660209283029190910190910152836105be816121a5565b94505050806105cc816121a5565b9150506104df565b5060008260ff161161061c5760405162461bcd60e51b815260206004820152601160248201527004e4f5f544f4b454e535f494e5f5357415607c1b6044820152606401610336565b8160ff1667ffffffffffffffff81111561063857610638611cbd565b604051908082528060200260200182016040528015610661578160200160208202803683370190505b50925060005b8260ff168160ff1610156106d157818160ff168151811061068a5761068a612179565b6020026020010151848260ff16815181106106a7576106a7612179565b6001600160a01b0390921660209283029190910190910152806106c9816121a5565b915050610667565b505050919050565b600054610100900460ff16158080156106f95750600054600160ff909116105b806107135750303b158015610713575060005460ff166001145b6107765760405162461bcd60e51b815260206004820152602e60248201527f496e697469616c697a61626c653a20636f6e747261637420697320616c72656160448201526d191e481a5b9a5d1a585b1a5e995960921b6064820152608401610336565b6000805460ff191660011790558015610799576000805461ff0019166101001790555b6107a161162d565b60ca80546001600160a01b038086166001600160a01b03199283161790925560c98054928516929091169190911790558015610817576000805461ff0019169055604051600181527f7f26b83ff96e1f2b6a682f133852f6798a09c465da95921460cefb38474024989060200160405180910390a15b505050565b306001600160a01b037f00000000000000000000000000000000000000000000000000000000000000001614156108655760405162461bcd60e51b8152600401610336906120a7565b7f00000000000000000000000000000000000000000000000000000000000000006001600160a01b03166108ae600080516020612527833981519152546001600160a01b031690565b6001600160a01b0316146108d45760405162461bcd60e51b8152600401610336906120f3565b6108dd82611355565b6108e982826001611470565b5050565b60c95460405163f9d9331d60e01b81526001600160a01b038381166004830152600092839291169063f9d9331d90602401602060405180830381865afa15801561093b573d6000803e3d6000fd5b505050506040513d601f19601f8201168201806040525081019061095f919061215c565b90506001600160a01b038116156109dd57604051630103c92b60e01b81526001600160a01b038581166004830152821690630103c92b90602401602060405180830381865afa1580156109b6573d6000803e3d6000fd5b505050506040513d601f19601f820116820180604052508101906109da91906121c5565b91505b5092915050565b6000306001600160a01b037f00000000000000000000000000000000000000000000000000000000000000001614610a845760405162461bcd60e51b815260206004820152603860248201527f555550535570677261646561626c653a206d757374206e6f742062652063616c60448201527f6c6564207468726f7567682064656c656761746563616c6c00000000000000006064820152608401610336565b5060008051602061252783398151915290565b6000610aa161165c565b60c95460405163f9d9331d60e01b81526001600160a01b038881166004830152600092169063f9d9331d90602401602060405180830381865afa158015610aec573d6000803e3d6000fd5b505050506040513d601f19601f82011682018060405250810190610b10919061215c565b90506001600160a01b038116610b925760c954604051621849e360e61b81526001600160a01b0389811660048301529091169063061278c0906024016020604051808303816000875af1158015610b6b573d6000803e3d6000fd5b505050506040513d601f19601f82011682018060405250810190610b8f919061215c565b90505b60005b8651811015610c71576000878281518110610bb257610bb2612179565b60200260200101511115610c5f57610c5f3383898481518110610bd757610bd7612179565b6020026020010151856001600160a01b0316634f64b2be866040518263ffffffff1660e01b8152600401610c0d91815260200190565b602060405180830381865afa158015610c2a573d6000803e3d6000fd5b505050506040513d601f19601f82011682018060405250810190610c4e919061215c565b6001600160a01b03169291906116a2565b80610c69816121de565b915050610b95565b508315610cbc57610cbc338286846001600160a01b031663452ed4f16040518163ffffffff1660e01b8152600401602060405180830381865afa158015610c2a573d6000803e3d6000fd5b604051636f26ede360e11b81526001600160a01b0382169063de4ddbc690610cee9089908990899089906004016121f9565b6020604051808303816000875af1158015610d0d573d6000803e3d6000fd5b505050506040513d601f19601f82011682018060405250810190610d3191906121c5565b9150826001600160a01b0316336001600160a01b0316886001600160a01b03167f7cfff908a4b583f36430b25d75964c458d8ede8a99bd61be750e97ee1b2f3a9685604051610d8291815260200190565b60405180910390a45095945050505050565b610d9c61165c565b60ca54604051632474521560e21b81527ffbd454f36a7e1a388bd6fc3ab10d434aa4578f811acbbcf33afb1c697486313c60048201523360248201526001600160a01b03909116906391d1485490604401602060405180830381865afa158015610e0a573d6000803e3d6000fd5b505050506040513d601f19601f82011682018060405250810190610e2e919061213f565b610e735760405162461bcd60e51b815260206004820152601660248201527521a0a62622a92fa727aa2fa224a9aa2924a12aaa27a960511b6044820152606401610336565b60c95460405163f9d9331d60e01b81526001600160a01b038b81166004830152600092169063f9d9331d90602401602060405180830381865afa158015610ebe573d6000803e3d6000fd5b505050506040513d601f19601f82011682018060405250810190610ee2919061215c565b90506001600160a01b038116610f2c5760405162461bcd60e51b815260206004820152600f60248201526e4641524d5f4e4f545f45584953545360881b6044820152606401610336565b60405163127c565160e21b81526000906001600160a01b038316906349f1594490610f69908d908d908d908d908d908d908d908d9060040161233a565b6020604051808303816000875af1158015610f88573d6000803e3d6000fd5b505050506040513d601f19601f82011682018060405250810190610fac91906121c5565b90508a6001600160a01b03167fc1d32ad5cca423e7dda2123dbf8c482f8e77d00b631c06e903a47f2cec1334df82604051610fe991815260200190565b60405180910390a25050505050505050505050565b60ca54604051632474521560e21b81527f65d7a28e3265b37a6474929f336521b332c1681b933f6cb9f3376673440d862a60048201523360248201526001600160a01b03909116906391d1485490604401602060405180830381865afa15801561106c573d6000803e3d6000fd5b505050506040513d601f19601f82011682018060405250810190611090919061213f565b6110d05760405162461bcd60e51b815260206004820152601160248201527021a0a62622a92fa727aa2fa820aaa9a2a960791b6044820152606401610336565b6104b0611702565b60606110e261165c565b60c95460405163f9d9331d60e01b81526001600160a01b038881166004830152600092169063f9d9331d90602401602060405180830381865afa15801561112d573d6000803e3d6000fd5b505050506040513d601f19601f82011682018060405250810190611151919061215c565b90506001600160a01b03811661119b5760405162461bcd60e51b815260206004820152600f60248201526e4641524d5f4e4f545f45584953545360881b6044820152606401610336565b604051631f9e746960e11b81526001600160a01b03821690633f3ce8d2906111cf9089908990899033908a9060040161239a565b6000604051808303816000875af11580156111ee573d6000803e3d6000fd5b505050506040513d6000823e601f3d908101601f1916820160405261121691908101906123da565b9150826001600160a01b0316336001600160a01b0316886001600160a01b03167f3115d1449a7b732c986cba18244e897a450f61e1bb8d589cd2e69e6c8924f9f789604051610d8291815260200190565b60c95460405163f9d9331d60e01b81526001600160a01b038381166004830152600092839291169063f9d9331d90602401602060405180830381865afa1580156112b5573d6000803e3d6000fd5b505050506040513d601f19601f820116820180604052508101906112d9919061215c565b90506001600160a01b0381161561134f57806001600160a01b031663168a48226040518163ffffffff1660e01b8152600401602060405180830381865afa158015611328573d6000803e3d6000fd5b505050506040513d601f19601f8201168201806040525081019061134c91906121c5565b91505b50919050565b60ca5460408051631d6c8e3f60e21b815290516001600160a01b03909216916391d148549183916375b238fc916004808201926020929091908290030181865afa1580156113a7573d6000803e3d6000fd5b505050506040513d601f19601f820116820180604052508101906113cb91906121c5565b6040516001600160e01b031960e084901b1681526004810191909152336024820152604401602060405180830381865afa15801561140d573d6000803e3d6000fd5b505050506040513d601f19601f82011682018060405250810190611431919061213f565b6103d35760405162461bcd60e51b815260206004820152601060248201526f21a0a62622a92fa727aa2fa0a226a4a760811b6044820152606401610336565b7f4910fdfa16fed3260ed0e7147f7cc6da11a60208b5b9406d12a635614ffd91435460ff16156114a3576108178361173f565b826001600160a01b03166352d1902d6040518163ffffffff1660e01b8152600401602060405180830381865afa9250505080156114fd575060408051601f3d908101601f191682019092526114fa918101906121c5565b60015b6115605760405162461bcd60e51b815260206004820152602e60248201527f45524331393637557067726164653a206e657720696d706c656d656e7461746960448201526d6f6e206973206e6f74205555505360901b6064820152608401610336565b60008051602061252783398151915281146115cf5760405162461bcd60e51b815260206004820152602960248201527f45524331393637557067726164653a20756e737570706f727465642070726f786044820152681a58589b195555525160ba1b6064820152608401610336565b506108178383836117db565b6115e3611800565b6033805460ff191690557f5db9ee0a495bf2e6ff9c91a7834c1ba4fdd244a5e8aa4e537bd38aeae4b073aa335b6040516001600160a01b03909116815260200160405180910390a1565b600054610100900460ff166116545760405162461bcd60e51b815260040161033690612460565b6104b0611849565b60335460ff16156104b05760405162461bcd60e51b815260206004820152601060248201526f14185d5cd8589b194e881c185d5cd95960821b6044820152606401610336565b604080516001600160a01b0385811660248301528416604482015260648082018490528251808303909101815260849091019091526020810180516001600160e01b03166323b872dd60e01b1790526116fc90859061187c565b50505050565b61170a61165c565b6033805460ff191660011790557f62e78cea01bee320cd4e420270b5ea74000d11b0c9f74754ebdbfc544b05a2586116103390565b6001600160a01b0381163b6117ac5760405162461bcd60e51b815260206004820152602d60248201527f455243313936373a206e657720696d706c656d656e746174696f6e206973206e60448201526c1bdd08184818dbdb9d1c9858dd609a1b6064820152608401610336565b60008051602061252783398151915280546001600160a01b0319166001600160a01b0392909216919091179055565b6117e48361194e565b6000825111806117f15750805b15610817576116fc838361198e565b60335460ff166104b05760405162461bcd60e51b815260206004820152601460248201527314185d5cd8589b194e881b9bdd081c185d5cd95960621b6044820152606401610336565b600054610100900460ff166118705760405162461bcd60e51b815260040161033690612460565b6033805460ff19169055565b60006118d1826040518060400160405280602081526020017f5361666545524332303a206c6f772d6c6576656c2063616c6c206661696c6564815250856001600160a01b0316611a829092919063ffffffff16565b80519091501561081757808060200190518101906118ef919061213f565b6108175760405162461bcd60e51b815260206004820152602a60248201527f5361666545524332303a204552433230206f7065726174696f6e20646964206e6044820152691bdd081cdd58d8d9595960b21b6064820152608401610336565b6119578161173f565b6040516001600160a01b038216907fbc7cd75a20ee27fd9adebab32041f755214dbc6bffa90cc0225b39da2e5c2d3b90600090a250565b60606001600160a01b0383163b6119f65760405162461bcd60e51b815260206004820152602660248201527f416464726573733a2064656c65676174652063616c6c20746f206e6f6e2d636f6044820152651b9d1c9858dd60d21b6064820152608401610336565b600080846001600160a01b031684604051611a1191906124d7565b600060405180830381855af49150503d8060008114611a4c576040519150601f19603f3d011682016040523d82523d6000602084013e611a51565b606091505b5091509150611a79828260405180606001604052806027815260200161254760279139611a9b565b95945050505050565b6060611a918484600085611ad4565b90505b9392505050565b60608315611aaa575081611a94565b825115611aba5782518084602001fd5b8160405162461bcd60e51b815260040161033691906124f3565b606082471015611b355760405162461bcd60e51b815260206004820152602660248201527f416464726573733a20696e73756666696369656e742062616c616e636520666f6044820152651c8818d85b1b60d21b6064820152608401610336565b6001600160a01b0385163b611b8c5760405162461bcd60e51b815260206004820152601d60248201527f416464726573733a2063616c6c20746f206e6f6e2d636f6e74726163740000006044820152606401610336565b600080866001600160a01b03168587604051611ba891906124d7565b60006040518083038185875af1925050503d8060008114611be5576040519150601f19603f3d011682016040523d82523d6000602084013e611bea565b606091505b5091509150611bfa828286611a9b565b979650505050505050565b6001600160a01b03811681146103d357600080fd5b600060208284031215611c2c57600080fd5b8135611a9481611c05565b6020808252825182820181905260009190848201906040850190845b81811015611c785783516001600160a01b031683529284019291840191600101611c53565b50909695505050505050565b60008060408385031215611c9757600080fd5b8235611ca281611c05565b91506020830135611cb281611c05565b809150509250929050565b634e487b7160e01b600052604160045260246000fd5b604051601f8201601f1916810167ffffffffffffffff81118282101715611cfc57611cfc611cbd565b604052919050565b60008060408385031215611d1757600080fd5b8235611d2281611c05565b915060208381013567ffffffffffffffff80821115611d4057600080fd5b818601915086601f830112611d5457600080fd5b813581811115611d6657611d66611cbd565b611d78601f8201601f19168501611cd3565b91508082528784828501011115611d8e57600080fd5b80848401858401376000848284010152508093505050509250929050565b600067ffffffffffffffff821115611dc657611dc6611cbd565b5060051b60200190565b600082601f830112611de157600080fd5b81356020611df6611df183611dac565b611cd3565b82815260059290921b84018101918181019086841115611e1557600080fd5b8286015b84811015611e305780358352918301918301611e19565b509695505050505050565b600080600080600060a08688031215611e5357600080fd5b8535611e5e81611c05565b9450602086013567ffffffffffffffff811115611e7a57600080fd5b611e8688828901611dd0565b94505060408601359250606086013591506080860135611ea581611c05565b809150509295509295909350565b60008083601f840112611ec557600080fd5b50813567ffffffffffffffff811115611edd57600080fd5b6020830191508360208260051b8501011115611ef857600080fd5b9250929050565b600080600080600080600080600060a08a8c031215611f1d57600080fd5b8935611f2881611c05565b985060208a013567ffffffffffffffff80821115611f4557600080fd5b611f518d838e01611eb3565b909a50985060408c0135915080821115611f6a57600080fd5b611f768d838e01611eb3565b909850965060608c0135915080821115611f8f57600080fd5b611f9b8d838e01611eb3565b909650945060808c0135915080821115611fb457600080fd5b50611fc18c828d01611eb3565b915080935050809150509295985092959850929598565b80151581146103d357600080fd5b600080600080600060a08688031215611ffe57600080fd5b853561200981611c05565b945060208601359350604086013567ffffffffffffffff81111561202c57600080fd5b61203888828901611dd0565b935050606086013561204981611fd8565b91506080860135611ea581611c05565b600081518084526020808501945080840160005b838110156120895781518752958201959082019060010161206d565b509495945050505050565b602081526000611a946020830184612059565b6020808252602c908201527f46756e6374696f6e206d7573742062652063616c6c6564207468726f7567682060408201526b19195b1959d85d1958d85b1b60a21b606082015260800190565b6020808252602c908201527f46756e6374696f6e206d7573742062652063616c6c6564207468726f7567682060408201526b6163746976652070726f787960a01b606082015260800190565b60006020828403121561215157600080fd5b8151611a9481611fd8565b60006020828403121561216e57600080fd5b8151611a9481611c05565b634e487b7160e01b600052603260045260246000fd5b634e487b7160e01b600052601160045260246000fd5b600060ff821660ff8114156121bc576121bc61218f565b60010192915050565b6000602082840312156121d757600080fd5b5051919050565b60006000198214156121f2576121f261218f565b5060010190565b60808152600061220c6080830187612059565b60208301959095525060408101929092526001600160a01b0316606090910152919050565b8183526000602080850194508260005b8581101561208957813561225481611c05565b6001600160a01b031687529582019590820190600101612241565b81835260006020808501808196506005915085821b81018560005b888110156122f6578383038a528135601e198936030181126122ab57600080fd5b8801803567ffffffffffffffff8111156122c457600080fd5b80871b36038a13156122d557600080fd5b6122e285828a8501612231565b9b88019b945050509085019060010161228a565b509098975050505050505050565b81835260006001600160fb1b0383111561231d57600080fd5b8260051b8083602087013760009401602001938452509192915050565b60808152600061234e608083018a8c61226f565b828103602084015261236181898b61226f565b90508281036040840152612376818789612304565b9050828103606084015261238b818587612304565b9b9a5050505050505050505050565b85815260a0602082015260006123b360a0830187612059565b9415156040830152506001600160a01b039283166060820152911660809091015292915050565b600060208083850312156123ed57600080fd5b825167ffffffffffffffff81111561240457600080fd5b8301601f8101851361241557600080fd5b8051612423611df182611dac565b81815260059190911b8201830190838101908783111561244257600080fd5b928401925b82841015611bfa57835182529284019290840190612447565b6020808252602b908201527f496e697469616c697a61626c653a20636f6e7472616374206973206e6f74206960408201526a6e697469616c697a696e6760a81b606082015260800190565b60005b838110156124c65781810151838201526020016124ae565b838111156116fc5750506000910152565b600082516124e98184602087016124ab565b9190910192915050565b60208152600082518060208401526125128160408501602087016124ab565b601f01601f1916919091016040019291505056fe360894a13ba1a3210667c828492db98dca3e2076cc3735a920a3ca505d382bbc416464726573733a206c6f772d6c6576656c2064656c65676174652063616c6c206661696c6564a2646970667358221220308715439315d7af217ca49a53511be498f5d63753a6fb628e96072f774ca5a364736f6c634300080a0033",
  "immutableReferences": {
    "570": [
      {
        "length": 32,
        "start": 760
      },
      {
        "length": 32,
        "start": 833
      },
      {
        "length": 32,
        "start": 2087
      },
      {
        "length": 32,
        "start": 2151
      },
      {
        "length": 32,
        "start": 2545
      }
    ]
  },
  "source": "// SPDX-License-Identifier: MIT\r\npragma solidity 0.8.10;\r\n\r\nimport { IUnoFarmTrisolarisStable as Farm } from \"./interfaces/IUnoFarmTrisolarisStable.sol\";\r\nimport \"../../interfaces/IUnoFarmFactory.sol\";\r\nimport \"../../interfaces/IUnoAccessManager.sol\";\r\nimport \"../../interfaces/ISwap.sol\";\r\nimport \"@openzeppelin/contracts-upgradeable/token/ERC20/IERC20Upgradeable.sol\";\r\nimport \"@openzeppelin/contracts-upgradeable/token/ERC20/utils/SafeERC20Upgradeable.sol\";\r\nimport \"@openzeppelin/contracts-upgradeable/proxy/utils/Initializable.sol\";\r\nimport \"@openzeppelin/contracts-upgradeable/security/PausableUpgradeable.sol\";\r\nimport \"@openzeppelin/contracts-upgradeable/proxy/utils/UUPSUpgradeable.sol\";\r\n\r\ncontract UnoAssetRouterTrisolarisStable is Initializable, PausableUpgradeable, UUPSUpgradeable {\r\n    using SafeERC20Upgradeable for IERC20Upgradeable;\r\n\r\n    /**\r\n     * @dev Contract Variables:\r\n     * farmFactory - The contract that deploys new Farms and links them to {swap}s.\r\n     * accessManager - Role manager contract.\r\n     */\r\n    IUnoFarmFactory public farmFactory;\r\n    IUnoAccessManager public accessManager;\r\n    bytes32 private constant DISTRIBUTOR_ROLE = keccak256(\"DISTRIBUTOR_ROLE\");\r\n    bytes32 private constant PAUSER_ROLE = keccak256(\"PAUSER_ROLE\");\r\n\r\n    event Deposit(address indexed lpPool, address indexed sender, address indexed recipient, uint256 amount);\r\n    event Withdraw(address indexed lpPool, address indexed sender, address indexed recipient, uint256 amount);\r\n    event Distribute(address indexed lpPool, uint256 reward);\r\n\r\n    modifier onlyDistributor() {\r\n        require(accessManager.hasRole(DISTRIBUTOR_ROLE, msg.sender), \"CALLER_NOT_DISTRIBUTOR\");\r\n        _;\r\n    }\r\n    modifier onlyPauser() {\r\n        require(accessManager.hasRole(PAUSER_ROLE, msg.sender), \"CALLER_NOT_PAUSER\");\r\n        _;\r\n    }\r\n    modifier onlyAdmin() {\r\n        require(accessManager.hasRole(accessManager.ADMIN_ROLE(), msg.sender), \"CALLER_NOT_ADMIN\");\r\n        _;\r\n    }\r\n\r\n    // ============ Methods ============\r\n\r\n    function initialize(address _accessManager, address _farmFactory) external initializer {\r\n        __Pausable_init();\r\n        accessManager = IUnoAccessManager(_accessManager);\r\n        farmFactory = IUnoFarmFactory(_farmFactory);\r\n    }\r\n\r\n    /**\r\n     * @dev Deposits tokens in the given pool. Creates new Farm contract if there isn't one deployed for the {swap} and deposits tokens in it. Emits a {Deposit} event.\r\n     * @param swap - Address of the Swap contract.\r\n     * @param amounts - Amounts of tokens to deposit.\r\n     * @param minAmountLP - Minimum LP the user will receive from {{amounts}} deposit.\r\n     * @param amountLP - Amount of LP tokens to deposit.\r\n     * @param recipient - Address which will recieve the deposit.\r\n\r\n     * @return liquidity - Total liquidity sent to the farm (in lpTokens).\r\n     */\r\n    function deposit(\r\n        address swap,\r\n        uint256[] memory amounts,\r\n        uint256 minAmountLP,\r\n        uint256 amountLP,\r\n        address recipient\r\n    ) external whenNotPaused returns (uint256 liquidity) {\r\n        Farm farm = Farm(farmFactory.Farms(swap));\r\n        if (farm == Farm(address(0))) {\r\n            farm = Farm(farmFactory.createFarm(swap));\r\n        }\r\n\r\n        for (uint256 i = 0; i < amounts.length; i++) { \r\n            if (amounts[i] > 0) {\r\n                IERC20Upgradeable(farm.tokens(i)).safeTransferFrom(msg.sender, address(farm), amounts[i]); \r\n            }\r\n        }\r\n\r\n        if (amountLP > 0) {\r\n            IERC20Upgradeable(farm.lpPair()).safeTransferFrom(msg.sender, address(farm), amountLP);\r\n        }\r\n \r\n        liquidity = farm.deposit(amounts, minAmountLP, amountLP, recipient);\r\n        emit Deposit(swap, msg.sender, recipient, liquidity);\r\n    }\r\n\r\n    /** \r\n     * @dev Withdraws tokens from the given pool. Emits a {Withdraw} event.\r\n     * @param swap - Address of the Swap contract.\r\n     * @param amount - Amounts of LP tokens to withdraw.\r\n     * @param minAmounts - Minimum amounts of tokens sent to {recipient}.\r\n     * @param withdrawLP - Whether to withdraw or not to withdraw the deposits in LP tokens.\r\n     * @param recipient - The address which will recieve tokens.\r\n\r\n     * @return amounts - Token amounts sent to {recipient}, an array of zeros if withdrawLP == false.\r\n     */\r\n    function withdraw(\r\n        address swap,\r\n        uint256 amount,\r\n        uint256[] memory minAmounts,\r\n        bool withdrawLP,\r\n        address recipient\r\n    ) external whenNotPaused returns (uint256[] memory amounts) {\r\n        Farm farm = Farm(farmFactory.Farms(swap));\r\n        require(farm != Farm(address(0)), \"FARM_NOT_EXISTS\");\r\n\r\n        amounts = farm.withdraw(amount, minAmounts, withdrawLP, msg.sender, recipient);\r\n        emit Withdraw(swap, msg.sender, recipient, amount);\r\n    }\r\n\r\n    /**\r\n     * @dev Distributes tokens between users.\r\n     * @param swap - Address of the Swap contract.\r\n     * @param rewardTokenRoutes An array of reward token addresses.\r\n     * @param rewarderTokenRoutes An array of rewarder token addresses.\r\n     * @param rewardAmountsOutMin  An array of minimum amounts of reward tokens.\r\n     * @param rewarderAmountsOutMin An array of minimum amounts of rewarder tokens.\r\n     *\r\n     * Note: This function can only be called by the distributor.\r\n     */\r\n    function distribute(\r\n        address swap,\r\n        address[][] calldata rewardTokenRoutes,\r\n        address[][] calldata rewarderTokenRoutes,\r\n        uint256[] calldata rewardAmountsOutMin,\r\n        uint256[] calldata rewarderAmountsOutMin\r\n    ) external whenNotPaused onlyDistributor {\r\n        Farm farm = Farm(farmFactory.Farms(swap));\r\n        require(farm != Farm(address(0)), \"FARM_NOT_EXISTS\");\r\n\r\n        uint256 reward = farm.distribute(\r\n            rewardTokenRoutes,\r\n            rewarderTokenRoutes,\r\n            rewardAmountsOutMin,\r\n            rewarderAmountsOutMin\r\n        );\r\n        emit Distribute(swap, reward);\r\n    }\r\n\r\n    /**\r\n     * @dev Returns tokens staked by the {_address} for the given {swap}.\r\n     * @param _address - The address to check stakes for.\r\n     * @param swap - Address of the Swap contract.\r\n\r\n     * @return stakeLP - Total user stake(in LP tokens).\r\n     */\r\n    function userStake(address _address, address swap) external view returns (uint256 stakeLP) {\r\n        Farm farm = Farm(farmFactory.Farms(swap));\r\n        if (farm != Farm(address(0))) {\r\n            stakeLP = farm.userBalance(_address);\r\n        }\r\n    }\r\n\r\n    /**\r\n     * @dev Returns total amount locked in the pool. Doesn't take pending rewards into account.\r\n     * @param swap - Address of the Swap contract.\r\n\r\n     * @return totalDepositsLP - Total deposits (in LP tokens).\r\n     */\r\n    function totalDeposits(address swap) external view returns (uint256 totalDepositsLP) {\r\n        Farm farm = Farm(farmFactory.Farms(swap));\r\n        if (farm != Farm(address(0))) {\r\n            totalDepositsLP = farm.getTotalDeposits();\r\n        }\r\n    }\r\n\r\n    /**\r\n     * @dev Returns addresses of tokens in {swap}.\r\n     * @param swap - Swap to check tokens in.\r\n\r\n     * @return tokens - Array of token addresses.\r\n     */  \r\n    function getTokens(address swap) external view returns(address[] memory tokens){\r\n        uint8 tokenCount;\r\n        address[] memory _tokens = new address[](type(uint8).max);\r\n        for (uint8 i = 0; i < type(uint8).max; i++) {\r\n            try ISwap(swap).getToken(i) returns (address token) {\r\n                _tokens[i] = token;\r\n                tokenCount++;\r\n            } catch (bytes memory /*lowLevelData*/) {\r\n                break;\r\n            }\r\n        }\r\n        require(tokenCount > 0, \"NO_TOKENS_IN_SWAP\");\r\n\r\n        tokens = new address[](tokenCount);\r\n        for (uint8 i = 0; i < tokenCount; i++) {\r\n            tokens[i] = _tokens[i];\r\n        }\r\n        return tokens;\r\n    }\r\n\r\n    function pause() external onlyPauser {\r\n        _pause();\r\n    }\r\n\r\n    function unpause() external onlyPauser {\r\n        _unpause();\r\n    }\r\n\r\n    function _authorizeUpgrade(address) internal override onlyAdmin {}\r\n}\r\n",
  "sourcePath": "C:\\Users\\jugli\\Desktop\\uno\\uno-contracts\\contracts\\apps\\trisolarisStable\\UnoAssetRouterTrisolarisStable.sol",
  "compiler": {
    "name": "solc",
    "version": "0.8.10+commit.fc410830.Emscripten.clang"
  },
  "schemaVersion": "3.4.7",
  "updatedAt": "2022-07-23T15:32:07.425Z",
  "networkType": "ethereum",
  "devdoc": {
    "kind": "dev",
    "methods": {
      "deposit(address,uint256[],uint256,uint256,address)": {
        "details": "Deposits tokens in the given pool. Creates new Farm contract if there isn't one deployed for the {swap} and deposits tokens in it. Emits a {Deposit} event.",
        "params": {
          "amountLP": "- Amount of LP tokens to deposit.",
          "amounts": "- Amounts of tokens to deposit.",
          "minAmountLP": "- Minimum LP the user will receive from {{amounts}} deposit.",
          "recipient": "- Address which will recieve the deposit.",
          "swap": "- Address of the Swap contract."
        },
        "returns": {
          "liquidity": "- Total liquidity sent to the farm (in lpTokens)."
        }
      },
      "distribute(address,address[][],address[][],uint256[],uint256[])": {
        "details": "Distributes tokens between users.",
        "params": {
          "rewardAmountsOutMin": "An array of minimum amounts of reward tokens.",
          "rewardTokenRoutes": "An array of reward token addresses.",
          "rewarderAmountsOutMin": "An array of minimum amounts of rewarder tokens. Note: This function can only be called by the distributor.",
          "rewarderTokenRoutes": "An array of rewarder token addresses.",
          "swap": "- Address of the Swap contract."
        }
      },
      "getTokens(address)": {
        "details": "Returns addresses of tokens in {swap}.",
        "params": {
          "swap": "- Swap to check tokens in."
        },
        "returns": {
          "tokens": "- Array of token addresses."
        }
      },
      "paused()": {
        "details": "Returns true if the contract is paused, and false otherwise."
      },
      "proxiableUUID()": {
        "details": "Implementation of the ERC1822 {proxiableUUID} function. This returns the storage slot used by the implementation. It is used to validate that the this implementation remains valid after an upgrade. IMPORTANT: A proxy pointing at a proxiable contract should not be considered proxiable itself, because this risks bricking a proxy that upgrades to it, by delegating to itself until out of gas. Thus it is critical that this function revert if invoked through a proxy. This is guaranteed by the `notDelegated` modifier."
      },
      "totalDeposits(address)": {
        "details": "Returns total amount locked in the pool. Doesn't take pending rewards into account.",
        "params": {
          "swap": "- Address of the Swap contract."
        },
        "returns": {
          "totalDepositsLP": "- Total deposits (in LP tokens)."
        }
      },
      "upgradeTo(address)": {
        "details": "Upgrade the implementation of the proxy to `newImplementation`. Calls {_authorizeUpgrade}. Emits an {Upgraded} event."
      },
      "upgradeToAndCall(address,bytes)": {
        "details": "Upgrade the implementation of the proxy to `newImplementation`, and subsequently execute the function call encoded in `data`. Calls {_authorizeUpgrade}. Emits an {Upgraded} event."
      },
      "userStake(address,address)": {
        "details": "Returns tokens staked by the {_address} for the given {swap}.",
        "params": {
          "_address": "- The address to check stakes for.",
          "swap": "- Address of the Swap contract."
        },
        "returns": {
          "stakeLP": "- Total user stake(in LP tokens)."
        }
      },
      "withdraw(address,uint256,uint256[],bool,address)": {
        "details": "Withdraws tokens from the given pool. Emits a {Withdraw} event.",
        "params": {
          "amount": "- Amounts of LP tokens to withdraw.",
          "minAmounts": "- Minimum amounts of tokens sent to {recipient}.",
          "recipient": "- The address which will recieve tokens.",
          "swap": "- Address of the Swap contract.",
          "withdrawLP": "- Whether to withdraw or not to withdraw the deposits in LP tokens."
        },
        "returns": {
          "amounts": "- Token amounts sent to {recipient}, an array of zeros if withdrawLP == false."
        }
      }
    },
    "stateVariables": {
      "farmFactory": {
        "details": "Contract Variables: farmFactory - The contract that deploys new Farms and links them to {swap}s. accessManager - Role manager contract."
      }
    },
    "version": 1
  },
  "userdoc": {
    "kind": "user",
    "methods": {},
    "version": 1
  }
}