{
  "contractName": "UnoAutoStrategyFactory",
  "abi": [
    {
      "inputs": [
        {
          "internalType": "address",
          "name": "_implementation",
          "type": "address"
        },
        {
          "internalType": "address",
          "name": "_accessManager",
          "type": "address"
        }
      ],
      "stateMutability": "nonpayable",
      "type": "constructor"
    },
    {
      "anonymous": false,
      "inputs": [
        {
          "indexed": true,
          "internalType": "address",
          "name": "assetRouter",
          "type": "address"
        }
      ],
      "name": "AssetRouterApproved",
      "type": "event"
    },
    {
      "anonymous": false,
      "inputs": [
        {
          "indexed": true,
          "internalType": "address",
          "name": "assetRouter",
          "type": "address"
        }
      ],
      "name": "AssetRouterRevoked",
      "type": "event"
    },
    {
      "anonymous": false,
      "inputs": [
        {
          "indexed": true,
          "internalType": "address",
          "name": "autoStrategy",
          "type": "address"
        }
      ],
      "name": "AutoStrategyDeployed",
      "type": "event"
    },
    {
      "anonymous": false,
      "inputs": [
        {
          "indexed": false,
          "internalType": "address",
          "name": "account",
          "type": "address"
        }
      ],
      "name": "Paused",
      "type": "event"
    },
    {
      "anonymous": false,
      "inputs": [
        {
          "indexed": false,
          "internalType": "address",
          "name": "account",
          "type": "address"
        }
      ],
      "name": "Unpaused",
      "type": "event"
    },
    {
      "inputs": [],
      "name": "accessManager",
      "outputs": [
        {
          "internalType": "contract IUnoAccessManager",
          "name": "",
          "type": "address"
        }
      ],
      "stateMutability": "view",
      "type": "function"
    },
    {
      "inputs": [
        {
          "internalType": "address",
          "name": "",
          "type": "address"
        }
      ],
      "name": "assetRouterApproved",
      "outputs": [
        {
          "internalType": "bool",
          "name": "",
          "type": "bool"
        }
      ],
      "stateMutability": "view",
      "type": "function"
    },
    {
      "inputs": [
        {
          "internalType": "uint256",
          "name": "",
          "type": "uint256"
        }
      ],
      "name": "autoStrategies",
      "outputs": [
        {
          "internalType": "address",
          "name": "",
          "type": "address"
        }
      ],
      "stateMutability": "view",
      "type": "function"
    },
    {
      "inputs": [],
      "name": "autoStrategyBeacon",
      "outputs": [
        {
          "internalType": "address",
          "name": "",
          "type": "address"
        }
      ],
      "stateMutability": "view",
      "type": "function"
    },
    {
      "inputs": [],
      "name": "paused",
      "outputs": [
        {
          "internalType": "bool",
          "name": "",
          "type": "bool"
        }
      ],
      "stateMutability": "view",
      "type": "function"
    },
    {
      "inputs": [
        {
          "components": [
            {
              "internalType": "address",
              "name": "pool",
              "type": "address"
            },
            {
              "internalType": "address",
              "name": "assetRouter",
              "type": "address"
            }
          ],
          "internalType": "struct UnoAutoStrategyFactory.PoolInfo[]",
          "name": "poolInfos",
          "type": "tuple[]"
        }
      ],
      "name": "createStrategy",
      "outputs": [
        {
          "internalType": "address",
          "name": "",
          "type": "address"
        }
      ],
      "stateMutability": "nonpayable",
      "type": "function"
    },
    {
      "inputs": [
        {
          "internalType": "address",
          "name": "_assetRouter",
          "type": "address"
        }
      ],
      "name": "approveAssetRouter",
      "outputs": [],
      "stateMutability": "nonpayable",
      "type": "function"
    },
    {
      "inputs": [
        {
          "internalType": "address",
          "name": "_assetRouter",
          "type": "address"
        }
      ],
      "name": "revokeAssetRouter",
      "outputs": [],
      "stateMutability": "nonpayable",
      "type": "function"
    },
    {
      "inputs": [
        {
          "internalType": "address",
          "name": "newImplementation",
          "type": "address"
        }
      ],
      "name": "upgradeStrategies",
      "outputs": [],
      "stateMutability": "nonpayable",
      "type": "function"
    },
    {
      "inputs": [],
      "name": "autoStrategiesLength",
      "outputs": [
        {
          "internalType": "uint256",
          "name": "",
          "type": "uint256"
        }
      ],
      "stateMutability": "view",
      "type": "function"
    },
    {
      "inputs": [],
      "name": "pause",
      "outputs": [],
      "stateMutability": "nonpayable",
      "type": "function"
    },
    {
      "inputs": [],
      "name": "unpause",
      "outputs": [],
      "stateMutability": "nonpayable",
      "type": "function"
    }
  ],
  "bytecode": "0x60c06040523480156200001157600080fd5b5060405162001f6a38038062001f6a8339810160408190526200003491620001c7565b6000805460ff191690556001600160a01b0382166200008f5760405162461bcd60e51b81526020600482015260126024820152712120a22fa4a6a82622a6a2a72a20aa24a7a760711b60448201526064015b60405180910390fd5b6001600160a01b038116620000dc5760405162461bcd60e51b81526020600482015260126024820152712120a22fa0a1a1a2a9a9afa6a0a720a3a2a960711b604482015260640162000086565b81604051620000eb906200019c565b6001600160a01b039091168152602001604051809103906000f08015801562000118573d6000803e3d6000fd5b506001600160a01b0390811660a0528116608081905260408051631d6c8e3f60e21b815290516375b238fc916004808201926020929091908290030181865afa1580156200016a573d6000803e3d6000fd5b505050506040513d601f19601f82011682018060405250810190620001909190620001ff565b60035550620002199050565b6105298062001a4183390190565b80516001600160a01b0381168114620001c257600080fd5b919050565b60008060408385031215620001db57600080fd5b620001e683620001aa565b9150620001f660208401620001aa565b90509250929050565b6000602082840312156200021257600080fd5b5051919050565b60805160a0516117cb620002766000396000818160e4015281816103ca0152610a900152600081816101ec0152818161024c015281816103160152818161046a015281816105530152818161082d0152610ad401526117cb6000f3fe60806040523480156200001157600080fd5b5060043610620000c35760003560e01c8063a7cd8742116200007a578063a7cd87421462000164578063b4e0ef61146200018a578063b825acbe14620001a1578063c70558a714620001b8578063e4af371f14620001cf578063fdcb606814620001e657600080fd5b80630e78e33014620000c85780631882705014620000de5780633f4ba83a146200011f5780635c975abb146200012b57806364d34cfd14620001435780638456cb59146200015a575b600080fd5b6002546040519081526020015b60405180910390f35b620001067f000000000000000000000000000000000000000000000000000000000000000081565b6040516001600160a01b039091168152602001620000d5565b620001296200020e565b005b60005460ff165b6040519015158152602001620000d5565b620001296200015436600462000bda565b620002f7565b620001296200042c565b620001326200017536600462000bda565b60016020526000908152604090205460ff1681565b620001066200019b36600462000bff565b62000509565b62000129620001b236600462000bda565b62000534565b62000106620001c936600462000c19565b620006a3565b62000129620001e036600462000bda565b6200080e565b620001067f000000000000000000000000000000000000000000000000000000000000000081565b604051632474521560e21b81527f65d7a28e3265b37a6474929f336521b332c1681b933f6cb9f3376673440d862a60048201819052336024830152907f00000000000000000000000000000000000000000000000000000000000000006001600160a01b0316906391d1485490604401602060405180830381865afa1580156200029c573d6000803e3d6000fd5b505050506040513d601f19601f82011682018060405250810190620002c2919062000c93565b620002ea5760405162461bcd60e51b8152600401620002e19062000cb7565b60405180910390fd5b620002f462000978565b50565b600354604051632474521560e21b8152600481018290523360248201527f00000000000000000000000000000000000000000000000000000000000000006001600160a01b0316906391d1485490604401602060405180830381865afa15801562000366573d6000803e3d6000fd5b505050506040513d601f19601f820116820180604052508101906200038c919062000c93565b620003ab5760405162461bcd60e51b8152600401620002e19062000cb7565b604051631b2ce7f360e11b81526001600160a01b0383811660048301527f00000000000000000000000000000000000000000000000000000000000000001690633659cfe690602401600060405180830381600087803b1580156200040f57600080fd5b505af115801562000424573d6000803e3d6000fd5b505050505050565b604051632474521560e21b81527f65d7a28e3265b37a6474929f336521b332c1681b933f6cb9f3376673440d862a60048201819052336024830152907f00000000000000000000000000000000000000000000000000000000000000006001600160a01b0316906391d1485490604401602060405180830381865afa158015620004ba573d6000803e3d6000fd5b505050506040513d601f19601f82011682018060405250810190620004e0919062000c93565b620004ff5760405162461bcd60e51b8152600401620002e19062000cb7565b620002f462000a0d565b600281815481106200051a57600080fd5b6000918252602090912001546001600160a01b0316905081565b600354604051632474521560e21b8152600481018290523360248201527f00000000000000000000000000000000000000000000000000000000000000006001600160a01b0316906391d1485490604401602060405180830381865afa158015620005a3573d6000803e3d6000fd5b505050506040513d601f19601f82011682018060405250810190620005c9919062000c93565b620005e85760405162461bcd60e51b8152600401620002e19062000cb7565b6001600160a01b03821660009081526001602052604090205460ff1615620006535760405162461bcd60e51b815260206004820152601d60248201527f41535345545f524f555445525f414c52454144595f415050524f5645440000006044820152606401620002e1565b6001600160a01b0382166000818152600160208190526040808320805460ff1916909217909155517ffb4acedbbcf804b1c5baee0510fcde0fb8e72629e6118cbb3c4484f811d233699190a25050565b6000805460ff1615620006ec5760405162461bcd60e51b815260206004820152601060248201526f14185d5cd8589b194e881c185d5cd95960821b6044820152606401620002e1565b60005b82811015620007ac576001600085858481811062000711576200071162000ce6565b90506040020160200160208101906200072b919062000bda565b6001600160a01b0316815260208101919091526040016000205460ff161515600114620007975760405162461bcd60e51b81526020600482015260196024820152781054d4d15517d493d555115497d393d517d054141493d59151603a1b6044820152606401620002e1565b80620007a38162000cfc565b915050620006ef565b506000620007bb848462000a8b565b600280546001810182556000919091527f405787fa12a823e0f2b7631cc41b3ba8828b3321ca811111fa75cd3aa3bb5ace0180546001600160a01b0319166001600160a01b038316179055949350505050565b600354604051632474521560e21b8152600481018290523360248201527f00000000000000000000000000000000000000000000000000000000000000006001600160a01b0316906391d1485490604401602060405180830381865afa1580156200087d573d6000803e3d6000fd5b505050506040513d601f19601f82011682018060405250810190620008a3919062000c93565b620008c25760405162461bcd60e51b8152600401620002e19062000cb7565b6001600160a01b03821660009081526001602081905260409091205460ff161515146200092e5760405162461bcd60e51b81526020600482015260196024820152781054d4d15517d493d555115497d393d517d054141493d59151603a1b6044820152606401620002e1565b6001600160a01b038216600081815260016020526040808220805460ff19169055517fe9b0c2ff92f22d64fdb067d796fe9a1f505361c8670bdcbc11a6213f3afda27a9190a25050565b60005460ff16620009c35760405162461bcd60e51b815260206004820152601460248201527314185d5cd8589b194e881b9bdd081c185d5cd95960621b6044820152606401620002e1565b6000805460ff191690557f5db9ee0a495bf2e6ff9c91a7834c1ba4fdd244a5e8aa4e537bd38aeae4b073aa335b6040516001600160a01b03909116815260200160405180910390a1565b60005460ff161562000a555760405162461bcd60e51b815260206004820152601060248201526f14185d5cd8589b194e881c185d5cd95960821b6044820152606401620002e1565b6000805460ff191660011790557f62e78cea01bee320cd4e420270b5ea74000d11b0c9f74754ebdbfc544b05a258620009f03390565b6000807f00000000000000000000000000000000000000000000000000000000000000007f74552fb6d16919d69b7cf147441c3bccec038a2abefc6e012501911c41dc8e4a85857f000000000000000000000000000000000000000000000000000000000000000060405160240162000b079392919062000d26565b60408051601f198184030181529181526020820180516001600160e01b03166001600160e01b031990941693909317909252905162000b469062000baf565b62000b5392919062000da3565b604051809103906000f08015801562000b70573d6000803e3d6000fd5b506040519091506001600160a01b038216907f4cb27ee5c206cc4d6164f6385446f28b1d026461aa55d150739319366a49b8a190600090a29392505050565b61098a8062000e0c83390190565b80356001600160a01b038116811462000bd557600080fd5b919050565b60006020828403121562000bed57600080fd5b62000bf88262000bbd565b9392505050565b60006020828403121562000c1257600080fd5b5035919050565b6000806020838503121562000c2d57600080fd5b823567ffffffffffffffff8082111562000c4657600080fd5b818501915085601f83011262000c5b57600080fd5b81358181111562000c6b57600080fd5b8660208260061b850101111562000c8157600080fd5b60209290920196919550909350505050565b60006020828403121562000ca657600080fd5b8151801515811462000bf857600080fd5b60208082526015908201527410d05313115497d393d517d055551213d492569151605a1b604082015260600190565b634e487b7160e01b600052603260045260246000fd5b600060001982141562000d1f57634e487b7160e01b600052601160045260246000fd5b5060010190565b60408082528181018490526000908560608401835b8781101562000d82576001600160a01b038062000d588562000bbd565b16835260208162000d6b82870162000bbd565b169084015250918301919083019060010162000d3b565b506001600160a01b0395909516602094909401939093525091949350505050565b60018060a01b038316815260006020604081840152835180604085015260005b8181101562000de15785810183015185820160600152820162000dc3565b8181111562000df4576000606083870101525b50601f01601f19169290920160600194935050505056fe608060405260405161098a38038061098a8339810160408190526100229161048b565b61004d60017fa3f0ad74e5423aebfd80d3ef4346578335a9a72aeaee59ff6cb3582b35133d5161054b565b6000805160206109438339815191521461006957610069610570565b6100758282600061007c565b50506105f0565b61008583610147565b6040516001600160a01b038416907f1cf3b03a6cf19fa2baba4df148e9dcabedea7f8a5c07840e207e5c089be95d3e90600090a26000825111806100c65750805b1561014257610140836001600160a01b0316635c60da1b6040518163ffffffff1660e01b8152600401602060405180830381865afa15801561010c573d6000803e3d6000fd5b505050506040513d601f19601f820116820180604052508101906101309190610586565b836102d860201b6100291760201c565b505b505050565b61015a8161030460201b6100551760201c565b6101b95760405162461bcd60e51b815260206004820152602560248201527f455243313936373a206e657720626561636f6e206973206e6f74206120636f6e6044820152641d1c9858dd60da1b60648201526084015b60405180910390fd5b61022d816001600160a01b0316635c60da1b6040518163ffffffff1660e01b8152600401602060405180830381865afa1580156101fa573d6000803e3d6000fd5b505050506040513d601f19601f8201168201806040525081019061021e9190610586565b61030460201b6100551760201c565b6102925760405162461bcd60e51b815260206004820152603060248201527f455243313936373a20626561636f6e20696d706c656d656e746174696f6e206960448201526f1cc81b9bdd08184818dbdb9d1c9858dd60821b60648201526084016101b0565b806102b760008051602061094383398151915260001b61031360201b6100641760201c565b80546001600160a01b0319166001600160a01b039290921691909117905550565b60606102fd838360405180606001604052806027815260200161096360279139610316565b9392505050565b6001600160a01b03163b151590565b90565b60606001600160a01b0384163b61037e5760405162461bcd60e51b815260206004820152602660248201527f416464726573733a2064656c65676174652063616c6c20746f206e6f6e2d636f6044820152651b9d1c9858dd60d21b60648201526084016101b0565b600080856001600160a01b03168560405161039991906105a1565b600060405180830381855af49150503d80600081146103d4576040519150601f19603f3d011682016040523d82523d6000602084013e6103d9565b606091505b5090925090506103ea8282866103f4565b9695505050505050565b606083156104035750816102fd565b8251156104135782518084602001fd5b8160405162461bcd60e51b81526004016101b091906105bd565b80516001600160a01b038116811461044457600080fd5b919050565b634e487b7160e01b600052604160045260246000fd5b60005b8381101561047a578181015183820152602001610462565b838111156101405750506000910152565b6000806040838503121561049e57600080fd5b6104a78361042d565b60208401519092506001600160401b03808211156104c457600080fd5b818501915085601f8301126104d857600080fd5b8151818111156104ea576104ea610449565b604051601f8201601f19908116603f0116810190838211818310171561051257610512610449565b8160405282815288602084870101111561052b57600080fd5b61053c83602083016020880161045f565b80955050505050509250929050565b60008282101561056b57634e487b7160e01b600052601160045260246000fd5b500390565b634e487b7160e01b600052600160045260246000fd5b60006020828403121561059857600080fd5b6102fd8261042d565b600082516105b381846020870161045f565b9190910192915050565b60208152600082518060208401526105dc81604085016020870161045f565b601f01601f19169190910160400192915050565b610344806105ff6000396000f3fe60806040523661001357610011610017565b005b6100115b610027610022610067565b610100565b565b606061004e83836040518060600160405280602781526020016102e860279139610124565b9392505050565b6001600160a01b03163b151590565b90565b600061009a7fa3f0ad74e5423aebfd80d3ef4346578335a9a72aeaee59ff6cb3582b35133d50546001600160a01b031690565b6001600160a01b0316635c60da1b6040518163ffffffff1660e01b8152600401602060405180830381865afa1580156100d7573d6000803e3d6000fd5b505050506040513d601f19601f820116820180604052508101906100fb919061023f565b905090565b3660008037600080366000845af43d6000803e80801561011f573d6000f35b3d6000fd5b60606001600160a01b0384163b6101915760405162461bcd60e51b815260206004820152602660248201527f416464726573733a2064656c65676174652063616c6c20746f206e6f6e2d636f6044820152651b9d1c9858dd60d21b60648201526084015b60405180910390fd5b600080856001600160a01b0316856040516101ac9190610298565b600060405180830381855af49150503d80600081146101e7576040519150601f19603f3d011682016040523d82523d6000602084013e6101ec565b606091505b50915091506101fc828286610206565b9695505050505050565b6060831561021557508161004e565b8251156102255782518084602001fd5b8160405162461bcd60e51b815260040161018891906102b4565b60006020828403121561025157600080fd5b81516001600160a01b038116811461004e57600080fd5b60005b8381101561028357818101518382015260200161026b565b83811115610292576000848401525b50505050565b600082516102aa818460208701610268565b9190910192915050565b60208152600082518060208401526102d3816040850160208701610268565b601f01601f1916919091016040019291505056fe416464726573733a206c6f772d6c6576656c2064656c65676174652063616c6c206661696c6564a26469706673582212208c4b9fb777f6b291c744ce49d232757100e584678da2cff79ce1ef98db3618ec64736f6c634300080a0033a3f0ad74e5423aebfd80d3ef4346578335a9a72aeaee59ff6cb3582b35133d50416464726573733a206c6f772d6c6576656c2064656c65676174652063616c6c206661696c6564a264697066735822122095c99dd35ed2598bdeab4205b0da828275ec45f1a4b8f8923ee5434a926f764f64736f6c634300080a0033608060405234801561001057600080fd5b5060405161052938038061052983398101604081905261002f91610151565b61003833610047565b61004181610097565b50610181565b600080546001600160a01b038381166001600160a01b0319831681178455604051919092169283917f8be0079c531659141344cd1fd0a4f28419497f9722a3daafe3b4186f6b6457e09190a35050565b6100aa8161014260201b61020a1760201c565b6101205760405162461bcd60e51b815260206004820152603360248201527f5570677261646561626c65426561636f6e3a20696d706c656d656e746174696f60448201527f6e206973206e6f74206120636f6e747261637400000000000000000000000000606482015260840160405180910390fd5b600180546001600160a01b0319166001600160a01b0392909216919091179055565b6001600160a01b03163b151590565b60006020828403121561016357600080fd5b81516001600160a01b038116811461017a57600080fd5b9392505050565b610399806101906000396000f3fe608060405234801561001057600080fd5b50600436106100575760003560e01c80633659cfe61461005c5780635c60da1b14610071578063715018a61461009a5780638da5cb5b146100a2578063f2fde38b146100b3575b600080fd5b61006f61006a3660046102fe565b6100c6565b005b6001546001600160a01b03165b6040516001600160a01b03909116815260200160405180910390f35b61006f610139565b6000546001600160a01b031661007e565b61006f6100c13660046102fe565b61016f565b6000546001600160a01b031633146100f95760405162461bcd60e51b81526004016100f09061032e565b60405180910390fd5b61010281610219565b6040516001600160a01b038216907fbc7cd75a20ee27fd9adebab32041f755214dbc6bffa90cc0225b39da2e5c2d3b90600090a250565b6000546001600160a01b031633146101635760405162461bcd60e51b81526004016100f09061032e565b61016d60006102ae565b565b6000546001600160a01b031633146101995760405162461bcd60e51b81526004016100f09061032e565b6001600160a01b0381166101fe5760405162461bcd60e51b815260206004820152602660248201527f4f776e61626c653a206e6577206f776e657220697320746865207a65726f206160448201526564647265737360d01b60648201526084016100f0565b610207816102ae565b50565b6001600160a01b03163b151590565b6001600160a01b0381163b61028c5760405162461bcd60e51b815260206004820152603360248201527f5570677261646561626c65426561636f6e3a20696d706c656d656e746174696f6044820152721b881a5cc81b9bdd08184818dbdb9d1c9858dd606a1b60648201526084016100f0565b600180546001600160a01b0319166001600160a01b0392909216919091179055565b600080546001600160a01b038381166001600160a01b0319831681178455604051919092169283917f8be0079c531659141344cd1fd0a4f28419497f9722a3daafe3b4186f6b6457e09190a35050565b60006020828403121561031057600080fd5b81356001600160a01b038116811461032757600080fd5b9392505050565b6020808252818101527f4f776e61626c653a2063616c6c6572206973206e6f7420746865206f776e657260408201526060019056fea2646970667358221220f0a243b52461696fadf05325e53c8019325f72ee91b3a6ba2f983ff13a83604364736f6c634300080a0033",
  "immutableReferences": {
    "8113": [
      {
        "length": 32,
        "start": 492
      },
      {
        "length": 32,
        "start": 588
      },
      {
        "length": 32,
        "start": 790
      },
      {
        "length": 32,
        "start": 1130
      },
      {
        "length": 32,
        "start": 1363
      },
      {
        "length": 32,
        "start": 2093
      },
      {
        "length": 32,
        "start": 2772
      }
    ],
    "8115": [
      {
        "length": 32,
        "start": 228
      },
      {
        "length": 32,
        "start": 970
      },
      {
        "length": 32,
        "start": 2704
      }
    ]
  },
  "source": "// SPDX-License-Identifier: MIT\npragma solidity 0.8.10;\n\nimport \"@openzeppelin/contracts/proxy/beacon/UpgradeableBeacon.sol\";\nimport \"@openzeppelin/contracts/proxy/beacon/BeaconProxy.sol\";\nimport \"@openzeppelin/contracts/security/Pausable.sol\";\nimport \"../interfaces/IUnoAccessManager.sol\";\n\ncontract UnoAutoStrategyFactory is Pausable {\n\t/**\n\t * @dev PoolInfo:\n\t * {assetRouter} - UnoAssetRouter contract.\n\t * {pool} - Pool address.\n\t */\n\tstruct PoolInfo {\n\t\taddress pool;\n\t\taddress assetRouter;\n\t}\n\n\t/**\n     * @dev Contract Variables:\n     * assetRouterApproved - Approved UnoAssetRouter contracts.\n     \n     * accessManager - Role manager contract.\n     * autoStrategyBeacon - AutoStrategy contract implementation.\n     * autoStrategies - List of deployed AutoStrategy contracts.\n     */\n\tmapping(address => bool) public assetRouterApproved;\n\n\tIUnoAccessManager public immutable accessManager;\n\taddress public immutable autoStrategyBeacon;\n\taddress[] public autoStrategies;\n\n\tbytes32 private constant PAUSER_ROLE = keccak256(\"PAUSER_ROLE\");\n\tbytes32 private ADMIN_ROLE;\n\n\tevent AutoStrategyDeployed(address indexed autoStrategy);\n\tevent AssetRouterApproved(address indexed assetRouter);\n\tevent AssetRouterRevoked(address indexed assetRouter);\n\n\tmodifier onlyRole(bytes32 role) {\n\t\trequire(accessManager.hasRole(role, msg.sender), \"CALLER_NOT_AUTHORIZED\");\n\t\t_;\n\t}\n\n\t// ============ Methods ============\n\n\tconstructor(address _implementation, address _accessManager) {\n\t\trequire(_implementation != address(0), \"BAD_IMPLEMENTATION\");\n\t\trequire(_accessManager != address(0), \"BAD_ACCESS_MANAGER\");\n\n\t\tautoStrategyBeacon = address(new UpgradeableBeacon(_implementation));\n\t\taccessManager = IUnoAccessManager(_accessManager);\n\t\tADMIN_ROLE = accessManager.ADMIN_ROLE();\n\t}\n\n\t/**\n\t * @dev Checks if provided assetRouters are approved for use, then deploys new AutoStrategy contract.\n\t * @param poolInfos - An array of (assetRouter - pool) pairs. AssetRouter needs to be approved for PoolInfo to be valid. poolInfos.length must be >= 2.\n\t * @return autoStrategy - Deployed Auto Strategy contract address.\n\t */\n\tfunction createStrategy(PoolInfo[] calldata poolInfos) external whenNotPaused returns (address) {\n\t\tfor (uint256 i = 0; i < poolInfos.length; i++) {\n\t\t\trequire(assetRouterApproved[poolInfos[i].assetRouter] == true, \"ASSET_ROUTER_NOT_APPROVED\");\n\t\t}\n\t\taddress autoStrategy = _createStrategy(poolInfos);\n\t\tautoStrategies.push(autoStrategy);\n\t\treturn autoStrategy;\n\t}\n\n\t/**\n     * @dev Approves an address for use as an AssetRouter. Emits {AssetRouterApproved} event.\n     * @param _assetRouter - Asset router address to approve.\n\n     * Note: This function can only be called by ADMIN_ROLE.\n     */\n\tfunction approveAssetRouter(address _assetRouter) external onlyRole(ADMIN_ROLE) {\n\t\trequire(assetRouterApproved[_assetRouter] == false, \"ASSET_ROUTER_ALREADY_APPROVED\");\n\t\tassetRouterApproved[_assetRouter] = true;\n\t\temit AssetRouterApproved(_assetRouter);\n\t}\n\n\t/**\n     * @dev Revokes Asset Router approval from an address. Emits {AssetRouterRevoked} event.\n     * @param _assetRouter - Address to revoke approval from.\n\n     * Note: This function can only be called by ADMIN_ROLE.\n     */\n\tfunction revokeAssetRouter(address _assetRouter) external onlyRole(ADMIN_ROLE) {\n\t\trequire(assetRouterApproved[_assetRouter] == true, \"ASSET_ROUTER_NOT_APPROVED\");\n\t\tassetRouterApproved[_assetRouter] = false;\n\t\temit AssetRouterRevoked(_assetRouter);\n\t}\n\n\t/**\n     * @dev Upgrade all AutoStrategy contracts to a new implementation using Beacon Proxy.\n     * @param newImplementation - New AutoStrategy implementation.\n\n     * Note: This function can only be called by ADMIN_ROLE.\n     */\n\tfunction upgradeStrategies(address newImplementation) external onlyRole(ADMIN_ROLE) {\n\t\tUpgradeableBeacon(autoStrategyBeacon).upgradeTo(newImplementation);\n\t}\n\n\t/**\n\t * @dev Deploys new AutoStrategy contract and calls initialize() on it. Emits {AutoStrategyDeployed} event.\n\t */\n\tfunction _createStrategy(PoolInfo[] calldata poolInfos) internal returns (address) {\n\t\tBeaconProxy proxy = new BeaconProxy(autoStrategyBeacon, abi.encodeWithSelector(bytes4(keccak256(\"initialize((address,address)[],address)\")), poolInfos, accessManager));\n\t\temit AutoStrategyDeployed(address(proxy));\n\t\treturn address(proxy);\n\t}\n\n\tfunction autoStrategiesLength() external view returns (uint256) {\n\t\treturn autoStrategies.length;\n\t}\n\n\tfunction pause() external onlyRole(PAUSER_ROLE) {\n\t\t_pause();\n\t}\n\n\tfunction unpause() external onlyRole(PAUSER_ROLE) {\n\t\t_unpause();\n\t}\n}\n",
  "sourcePath": "/home/ilau/projectWork/uno-contracts/contracts/autostrategy/UnoAutoStrategyFactory.sol",
  "compiler": {
    "name": "solc",
    "version": "0.8.10+commit.fc410830.Emscripten.clang"
  },
  "schemaVersion": "3.4.10",
  "updatedAt": "2022-10-20T15:15:40.983Z",
  "devdoc": {
    "kind": "dev",
    "methods": {
      "approveAssetRouter(address)": {
        "details": "Approves an address for use as an AssetRouter. Emits {AssetRouterApproved} event.",
        "params": {
          "_assetRouter": "- Asset router address to approve. Note: This function can only be called by ADMIN_ROLE."
        }
      },
      "createStrategy((address,address)[])": {
        "details": "Checks if provided assetRouters are approved for use, then deploys new AutoStrategy contract.",
        "params": {
          "poolInfos": "- An array of (assetRouter - pool) pairs. AssetRouter needs to be approved for PoolInfo to be valid. poolInfos.length must be >= 2."
        },
        "returns": {
          "_0": "autoStrategy - Deployed Auto Strategy contract address."
        }
      },
      "paused()": {
        "details": "Returns true if the contract is paused, and false otherwise."
      },
      "revokeAssetRouter(address)": {
        "details": "Revokes Asset Router approval from an address. Emits {AssetRouterRevoked} event.",
        "params": {
          "_assetRouter": "- Address to revoke approval from. Note: This function can only be called by ADMIN_ROLE."
        }
      },
      "upgradeStrategies(address)": {
        "details": "Upgrade all AutoStrategy contracts to a new implementation using Beacon Proxy.",
        "params": {
          "newImplementation": "- New AutoStrategy implementation. Note: This function can only be called by ADMIN_ROLE."
        }
      }
    },
    "stateVariables": {
      "assetRouterApproved": {
        "details": "Contract Variables: assetRouterApproved - Approved UnoAssetRouter contracts. accessManager - Role manager contract. autoStrategyBeacon - AutoStrategy contract implementation. autoStrategies - List of deployed AutoStrategy contracts."
      }
    },
    "version": 1
  },
  "userdoc": {
    "kind": "user",
    "methods": {},
    "version": 1
  }
}