{
  "contractName": "UnoAssetRouterTrisolarisStandard",
  "abi": [
    {
      "inputs": [],
      "stateMutability": "nonpayable",
      "type": "constructor"
    },
    {
      "inputs": [],
      "name": "CALLER_NOT_AUTHORIZED",
      "type": "error"
    },
    {
      "inputs": [],
      "name": "ETH_DEPOSIT_REJECTED",
      "type": "error"
    },
    {
      "inputs": [],
      "name": "FARM_NOT_EXISTS",
      "type": "error"
    },
    {
      "inputs": [],
      "name": "INSUFFICIENT_AMOUNT",
      "type": "error"
    },
    {
      "inputs": [],
      "name": "INVALID_ACCESS_MANAGER",
      "type": "error"
    },
    {
      "inputs": [],
      "name": "INVALID_FARM_FACTORY",
      "type": "error"
    },
    {
      "inputs": [],
      "name": "INVALID_MSG_VALUE",
      "type": "error"
    },
    {
      "inputs": [],
      "name": "INVALID_SWAP_DESCRIPTION",
      "type": "error"
    },
    {
      "inputs": [
        {
          "internalType": "uint256",
          "name": "maxFee",
          "type": "uint256"
        }
      ],
      "name": "MAX_FEE_EXCEEDED",
      "type": "error"
    },
    {
      "inputs": [],
      "name": "NOT_ETH_FARM",
      "type": "error"
    },
    {
      "inputs": [],
      "name": "NO_TOKENS_SENT",
      "type": "error"
    },
    {
      "inputs": [],
      "name": "SWAP_NOT_SUCCESSFUL",
      "type": "error"
    },
    {
      "inputs": [],
      "name": "TRANSFER_NOT_SUCCESSFUL",
      "type": "error"
    },
    {
      "anonymous": false,
      "inputs": [
        {
          "indexed": false,
          "internalType": "address",
          "name": "previousAdmin",
          "type": "address"
        },
        {
          "indexed": false,
          "internalType": "address",
          "name": "newAdmin",
          "type": "address"
        }
      ],
      "name": "AdminChanged",
      "type": "event"
    },
    {
      "anonymous": false,
      "inputs": [
        {
          "indexed": true,
          "internalType": "address",
          "name": "beacon",
          "type": "address"
        }
      ],
      "name": "BeaconUpgraded",
      "type": "event"
    },
    {
      "anonymous": false,
      "inputs": [
        {
          "indexed": true,
          "internalType": "address",
          "name": "lpPool",
          "type": "address"
        },
        {
          "indexed": true,
          "internalType": "address",
          "name": "sender",
          "type": "address"
        },
        {
          "indexed": true,
          "internalType": "address",
          "name": "recipient",
          "type": "address"
        },
        {
          "indexed": false,
          "internalType": "uint256",
          "name": "amount",
          "type": "uint256"
        }
      ],
      "name": "Deposit",
      "type": "event"
    },
    {
      "anonymous": false,
      "inputs": [
        {
          "indexed": true,
          "internalType": "address",
          "name": "lpPool",
          "type": "address"
        },
        {
          "indexed": false,
          "internalType": "uint256",
          "name": "reward",
          "type": "uint256"
        }
      ],
      "name": "Distribute",
      "type": "event"
    },
    {
      "anonymous": false,
      "inputs": [
        {
          "indexed": false,
          "internalType": "uint256",
          "name": "previousFee",
          "type": "uint256"
        },
        {
          "indexed": false,
          "internalType": "uint256",
          "name": "newFee",
          "type": "uint256"
        }
      ],
      "name": "FeeChanged",
      "type": "event"
    },
    {
      "anonymous": false,
      "inputs": [
        {
          "indexed": false,
          "internalType": "uint8",
          "name": "version",
          "type": "uint8"
        }
      ],
      "name": "Initialized",
      "type": "event"
    },
    {
      "anonymous": false,
      "inputs": [
        {
          "indexed": false,
          "internalType": "address",
          "name": "account",
          "type": "address"
        }
      ],
      "name": "Paused",
      "type": "event"
    },
    {
      "anonymous": false,
      "inputs": [
        {
          "indexed": false,
          "internalType": "address",
          "name": "account",
          "type": "address"
        }
      ],
      "name": "Unpaused",
      "type": "event"
    },
    {
      "anonymous": false,
      "inputs": [
        {
          "indexed": true,
          "internalType": "address",
          "name": "implementation",
          "type": "address"
        }
      ],
      "name": "Upgraded",
      "type": "event"
    },
    {
      "anonymous": false,
      "inputs": [
        {
          "indexed": true,
          "internalType": "address",
          "name": "lpPool",
          "type": "address"
        },
        {
          "indexed": true,
          "internalType": "address",
          "name": "sender",
          "type": "address"
        },
        {
          "indexed": true,
          "internalType": "address",
          "name": "recipient",
          "type": "address"
        },
        {
          "indexed": false,
          "internalType": "uint256",
          "name": "amount",
          "type": "uint256"
        }
      ],
      "name": "Withdraw",
      "type": "event"
    },
    {
      "inputs": [],
      "name": "WETH",
      "outputs": [
        {
          "internalType": "address",
          "name": "",
          "type": "address"
        }
      ],
      "stateMutability": "view",
      "type": "function",
      "constant": true
    },
    {
      "inputs": [],
      "name": "accessManager",
      "outputs": [
        {
          "internalType": "contract IUnoAccessManager",
          "name": "",
          "type": "address"
        }
      ],
      "stateMutability": "view",
      "type": "function",
      "constant": true
    },
    {
      "inputs": [],
      "name": "farmFactory",
      "outputs": [
        {
          "internalType": "contract IUnoFarmFactory",
          "name": "",
          "type": "address"
        }
      ],
      "stateMutability": "view",
      "type": "function",
      "constant": true
    },
    {
      "inputs": [],
      "name": "fee",
      "outputs": [
        {
          "internalType": "uint256",
          "name": "",
          "type": "uint256"
        }
      ],
      "stateMutability": "view",
      "type": "function",
      "constant": true
    },
    {
      "inputs": [],
      "name": "paused",
      "outputs": [
        {
          "internalType": "bool",
          "name": "",
          "type": "bool"
        }
      ],
      "stateMutability": "view",
      "type": "function",
      "constant": true
    },
    {
      "inputs": [],
      "name": "proxiableUUID",
      "outputs": [
        {
          "internalType": "bytes32",
          "name": "",
          "type": "bytes32"
        }
      ],
      "stateMutability": "view",
      "type": "function",
      "constant": true
    },
    {
      "inputs": [
        {
          "internalType": "address",
          "name": "newImplementation",
          "type": "address"
        }
      ],
      "name": "upgradeTo",
      "outputs": [],
      "stateMutability": "nonpayable",
      "type": "function"
    },
    {
      "inputs": [
        {
          "internalType": "address",
          "name": "newImplementation",
          "type": "address"
        },
        {
          "internalType": "bytes",
          "name": "data",
          "type": "bytes"
        }
      ],
      "name": "upgradeToAndCall",
      "outputs": [],
      "stateMutability": "payable",
      "type": "function",
      "payable": true
    },
    {
      "stateMutability": "payable",
      "type": "receive",
      "payable": true
    },
    {
      "inputs": [
        {
          "internalType": "address",
          "name": "_accessManager",
          "type": "address"
        },
        {
          "internalType": "address",
          "name": "_farmFactory",
          "type": "address"
        }
      ],
      "name": "initialize",
      "outputs": [],
      "stateMutability": "nonpayable",
      "type": "function"
    },
    {
      "inputs": [
        {
          "internalType": "address",
          "name": "lpPair",
          "type": "address"
        },
        {
          "internalType": "uint256",
          "name": "amountA",
          "type": "uint256"
        },
        {
          "internalType": "uint256",
          "name": "amountB",
          "type": "uint256"
        },
        {
          "internalType": "uint256",
          "name": "amountAMin",
          "type": "uint256"
        },
        {
          "internalType": "uint256",
          "name": "amountBMin",
          "type": "uint256"
        },
        {
          "internalType": "address",
          "name": "recipient",
          "type": "address"
        }
      ],
      "name": "deposit",
      "outputs": [
        {
          "internalType": "uint256",
          "name": "sentA",
          "type": "uint256"
        },
        {
          "internalType": "uint256",
          "name": "sentB",
          "type": "uint256"
        },
        {
          "internalType": "uint256",
          "name": "liquidity",
          "type": "uint256"
        }
      ],
      "stateMutability": "nonpayable",
      "type": "function"
    },
    {
      "inputs": [
        {
          "internalType": "address",
          "name": "lpPair",
          "type": "address"
        },
        {
          "internalType": "uint256",
          "name": "amountToken",
          "type": "uint256"
        },
        {
          "internalType": "uint256",
          "name": "amountTokenMin",
          "type": "uint256"
        },
        {
          "internalType": "uint256",
          "name": "amountETHMin",
          "type": "uint256"
        },
        {
          "internalType": "address",
          "name": "recipient",
          "type": "address"
        }
      ],
      "name": "depositETH",
      "outputs": [
        {
          "internalType": "uint256",
          "name": "sentToken",
          "type": "uint256"
        },
        {
          "internalType": "uint256",
          "name": "sentETH",
          "type": "uint256"
        },
        {
          "internalType": "uint256",
          "name": "liquidity",
          "type": "uint256"
        }
      ],
      "stateMutability": "payable",
      "type": "function",
      "payable": true
    },
    {
      "inputs": [
        {
          "internalType": "address",
          "name": "lpPair",
          "type": "address"
        },
        {
          "internalType": "bytes[2]",
          "name": "swapData",
          "type": "bytes[2]"
        },
        {
          "internalType": "address",
          "name": "recipient",
          "type": "address"
        }
      ],
      "name": "depositWithSwap",
      "outputs": [
        {
          "internalType": "uint256",
          "name": "sent0",
          "type": "uint256"
        },
        {
          "internalType": "uint256",
          "name": "sent1",
          "type": "uint256"
        },
        {
          "internalType": "uint256",
          "name": "dustA",
          "type": "uint256"
        },
        {
          "internalType": "uint256",
          "name": "dustB",
          "type": "uint256"
        },
        {
          "internalType": "uint256",
          "name": "liquidity",
          "type": "uint256"
        }
      ],
      "stateMutability": "payable",
      "type": "function",
      "payable": true
    },
    {
      "inputs": [
        {
          "internalType": "address",
          "name": "lpPair",
          "type": "address"
        },
        {
          "internalType": "uint256",
          "name": "amount",
          "type": "uint256"
        },
        {
          "internalType": "address",
          "name": "recipient",
          "type": "address"
        }
      ],
      "name": "depositLP",
      "outputs": [],
      "stateMutability": "nonpayable",
      "type": "function"
    },
    {
      "inputs": [
        {
          "internalType": "address",
          "name": "lpPair",
          "type": "address"
        },
        {
          "internalType": "uint256",
          "name": "amount",
          "type": "uint256"
        },
        {
          "internalType": "uint256",
          "name": "amountAMin",
          "type": "uint256"
        },
        {
          "internalType": "uint256",
          "name": "amountBMin",
          "type": "uint256"
        },
        {
          "internalType": "address",
          "name": "recipient",
          "type": "address"
        }
      ],
      "name": "withdraw",
      "outputs": [
        {
          "internalType": "uint256",
          "name": "amountA",
          "type": "uint256"
        },
        {
          "internalType": "uint256",
          "name": "amountB",
          "type": "uint256"
        }
      ],
      "stateMutability": "nonpayable",
      "type": "function"
    },
    {
      "inputs": [
        {
          "internalType": "address",
          "name": "lpPair",
          "type": "address"
        },
        {
          "internalType": "uint256",
          "name": "amount",
          "type": "uint256"
        },
        {
          "internalType": "uint256",
          "name": "amountTokenMin",
          "type": "uint256"
        },
        {
          "internalType": "uint256",
          "name": "amountETHMin",
          "type": "uint256"
        },
        {
          "internalType": "address",
          "name": "recipient",
          "type": "address"
        }
      ],
      "name": "withdrawETH",
      "outputs": [
        {
          "internalType": "uint256",
          "name": "amountToken",
          "type": "uint256"
        },
        {
          "internalType": "uint256",
          "name": "amountETH",
          "type": "uint256"
        }
      ],
      "stateMutability": "nonpayable",
      "type": "function"
    },
    {
      "inputs": [
        {
          "internalType": "address",
          "name": "lpPair",
          "type": "address"
        },
        {
          "internalType": "uint256",
          "name": "amount",
          "type": "uint256"
        },
        {
          "internalType": "bytes[2]",
          "name": "swapData",
          "type": "bytes[2]"
        },
        {
          "internalType": "address",
          "name": "recipient",
          "type": "address"
        }
      ],
      "name": "withdrawWithSwap",
      "outputs": [
        {
          "internalType": "uint256",
          "name": "amount0",
          "type": "uint256"
        },
        {
          "internalType": "uint256",
          "name": "amount1",
          "type": "uint256"
        },
        {
          "internalType": "uint256",
          "name": "amountA",
          "type": "uint256"
        },
        {
          "internalType": "uint256",
          "name": "amountB",
          "type": "uint256"
        }
      ],
      "stateMutability": "nonpayable",
      "type": "function"
    },
    {
      "inputs": [
        {
          "internalType": "address",
          "name": "lpPair",
          "type": "address"
        },
        {
          "internalType": "uint256",
          "name": "amount",
          "type": "uint256"
        },
        {
          "internalType": "address",
          "name": "recipient",
          "type": "address"
        }
      ],
      "name": "withdrawLP",
      "outputs": [],
      "stateMutability": "nonpayable",
      "type": "function"
    },
    {
      "inputs": [
        {
          "internalType": "address",
          "name": "lpPair",
          "type": "address"
        },
        {
          "components": [
            {
              "internalType": "address[]",
              "name": "route",
              "type": "address[]"
            },
            {
              "internalType": "uint256",
              "name": "amountOutMin",
              "type": "uint256"
            }
          ],
          "internalType": "struct IUnoFarm.SwapInfo[4]",
          "name": "swapInfos",
          "type": "tuple[4]"
        },
        {
          "internalType": "address",
          "name": "feeTo",
          "type": "address"
        }
      ],
      "name": "distribute",
      "outputs": [
        {
          "internalType": "uint256",
          "name": "reward",
          "type": "uint256"
        }
      ],
      "stateMutability": "nonpayable",
      "type": "function"
    },
    {
      "inputs": [
        {
          "internalType": "address",
          "name": "_address",
          "type": "address"
        },
        {
          "internalType": "address",
          "name": "lpPair",
          "type": "address"
        }
      ],
      "name": "userStake",
      "outputs": [
        {
          "internalType": "uint256",
          "name": "stakeLP",
          "type": "uint256"
        },
        {
          "internalType": "uint256",
          "name": "stakeA",
          "type": "uint256"
        },
        {
          "internalType": "uint256",
          "name": "stakeB",
          "type": "uint256"
        }
      ],
      "stateMutability": "view",
      "type": "function",
      "constant": true
    },
    {
      "inputs": [
        {
          "internalType": "address",
          "name": "lpPair",
          "type": "address"
        }
      ],
      "name": "totalDeposits",
      "outputs": [
        {
          "internalType": "uint256",
          "name": "totalDepositsLP",
          "type": "uint256"
        },
        {
          "internalType": "uint256",
          "name": "totalDepositsA",
          "type": "uint256"
        },
        {
          "internalType": "uint256",
          "name": "totalDepositsB",
          "type": "uint256"
        }
      ],
      "stateMutability": "view",
      "type": "function",
      "constant": true
    },
    {
      "inputs": [
        {
          "internalType": "address",
          "name": "lpPair",
          "type": "address"
        }
      ],
      "name": "getTokens",
      "outputs": [
        {
          "internalType": "contract IERC20[]",
          "name": "tokens",
          "type": "address[]"
        }
      ],
      "stateMutability": "view",
      "type": "function",
      "constant": true
    },
    {
      "inputs": [
        {
          "internalType": "uint256",
          "name": "_fee",
          "type": "uint256"
        }
      ],
      "name": "setFee",
      "outputs": [],
      "stateMutability": "nonpayable",
      "type": "function"
    },
    {
      "inputs": [],
      "name": "pause",
      "outputs": [],
      "stateMutability": "nonpayable",
      "type": "function"
    },
    {
      "inputs": [],
      "name": "unpause",
      "outputs": [],
      "stateMutability": "nonpayable",
      "type": "function"
    }
  ],
  "bytecode": "0x60a0604052306080523480156200001557600080fd5b506200002062000026565b620000e8565b600054610100900460ff1615620000935760405162461bcd60e51b815260206004820152602760248201527f496e697469616c697a61626c653a20636f6e747261637420697320696e697469604482015266616c697a696e6760c81b606482015260840160405180910390fd5b60005460ff9081161015620000e6576000805460ff191660ff9081179091556040519081527f7f26b83ff96e1f2b6a682f133852f6798a09c465da95921460cefb38474024989060200160405180910390a15b565b60805161473e620001206000396000818161076a015281816107b301528181610e2301528181610e630152611000015261473e6000f3fe60806040526004361061014f5760003560e01c80636d25e175116100b6578063ddca3f431161006f578063ddca3f431461043c578063deb03f4d14610452578063e50e637114610472578063e940325614610492578063fdcb6068146104b2578063fefa4094146104d257600080fd5b80636d25e175146103375780638456cb591461036f57806399cd69de14610384578063ad5c4648146103bf578063be548aeb146103e7578063d84ff8421461040757600080fd5b80634f1ef286116101085780634f1ef2861461026357806351bdca3e1461027657806352d1902d146102b15780635c975abb146102d45780636505e65e146102f757806369fe0e2d1461031757600080fd5b80632a895ade1461017c5780633659cfe6146101c15780633f4ba83a146101e1578063450efe21146101f657806346dafa2f14610223578063485cc9551461024357600080fd5b36610177573332141561017557604051635a5e184160e11b815260040160405180910390fd5b005b600080fd5b34801561018857600080fd5b5061019c610197366004613d16565b6104e5565b6040805194855260208501939093529183015260608201526080015b60405180910390f35b3480156101cd57600080fd5b506101756101dc366004613d82565b61075f565b3480156101ed57600080fd5b50610175610848565b34801561020257600080fd5b50610216610211366004613d82565b610900565b6040516101b89190613d9f565b34801561022f57600080fd5b5061017561023e366004613dec565b610a4f565b34801561024f57600080fd5b5061017561025e366004613e2e565b610c28565b610175610271366004613f33565b610e18565b34801561028257600080fd5b50610296610291366004613e2e565b610ee9565b604080519384526020840192909252908201526060016101b8565b3480156102bd57600080fd5b506102c6610ff3565b6040519081526020016101b8565b3480156102e057600080fd5b5060335460ff1660405190151581526020016101b8565b34801561030357600080fd5b50610296610312366004613f79565b6110a6565b34801561032357600080fd5b50610175610332366004613fd7565b611391565b34801561034357600080fd5b5060c954610357906001600160a01b031681565b6040516001600160a01b0390911681526020016101b8565b34801561037b57600080fd5b506101756114a2565b610397610392366004613ff0565b61155a565b604080519586526020860194909452928401919091526060830152608082015260a0016101b8565b3480156103cb57600080fd5b5061035773c9bdeed33cd01541e1eed10f90519d2c06fe3feb81565b3480156103f357600080fd5b506102c6610402366004614049565b611882565b34801561041357600080fd5b506104276104223660046140a7565b611aa8565b604080519283526020830191909152016101b8565b34801561044857600080fd5b506102c660cc5481565b34801561045e57600080fd5b5061042761046d3660046140a7565b611cbf565b34801561047e57600080fd5b5061017561048d366004613dec565b611f6b565b34801561049e57600080fd5b506102966104ad366004613d82565b6120a8565b3480156104be57600080fd5b5060ca54610357906001600160a01b031681565b6102966104e03660046140a7565b6121aa565b60c95460405163f9d9331d60e01b81526001600160a01b038681166004830152600092839283928392839291169063f9d9331d90602401602060405180830381865afa158015610539573d6000803e3d6000fd5b505050506040513d601f19601f8201168201806040525081019061055d91906140fd565b90506001600160a01b0381166105865760405163331fd83f60e11b815260040160405180910390fd5b604051632d182be560e21b8152600481018990523360248201523060448201526001600160a01b0382169063b460af9490606401600060405180830381600087803b1580156105d457600080fd5b505af11580156105e8573d6000803e3d6000fd5b505050506000816001600160a01b0316630fc63d106040518163ffffffff1660e01b8152600401602060405180830381865afa15801561062c573d6000803e3d6000fd5b505050506040513d601f19601f8201168201806040525081019061065091906140fd565b90506000826001600160a01b0316635f64b55b6040518163ffffffff1660e01b8152600401602060405180830381865afa158015610692573d6000803e3d6000fd5b505050506040513d601f19601f820116820180604052508101906106b691906140fd565b90506000806106cb8d85858f600080306124ec565b90925090506106e56106dd8c80614130565b86858e61262f565b90995096506107026106fa60208d018d614130565b85848e61262f565b8097508199505050896001600160a01b0316336001600160a01b03168e6001600160a01b03166000805160206146828339815191528f60405161074791815260200190565b60405180910390a45050505050945094509450949050565b306001600160a01b037f00000000000000000000000000000000000000000000000000000000000000001614156107b15760405162461bcd60e51b81526004016107a89061417e565b60405180910390fd5b7f00000000000000000000000000000000000000000000000000000000000000006001600160a01b03166107fa6000805160206146a2833981519152546001600160a01b031690565b6001600160a01b0316146108205760405162461bcd60e51b81526004016107a8906141ca565b610829816128c7565b604080516000808252602082019092526108459183919061295a565b50565b60ca54604051632474521560e21b81527f65d7a28e3265b37a6474929f336521b332c1681b933f6cb9f3376673440d862a60048201819052336024830152916001600160a01b0316906391d1485490604401602060405180830381865afa1580156108b7573d6000803e3d6000fd5b505050506040513d601f19601f820116820180604052508101906108db9190614216565b6108f8576040516365bc1f8360e11b815260040160405180910390fd5b610845612ac5565b6040805160028082526060808301845292602083019080368337019050509050816001600160a01b0316630dfe16816040518163ffffffff1660e01b8152600401602060405180830381865afa15801561095e573d6000803e3d6000fd5b505050506040513d601f19601f8201168201806040525081019061098291906140fd565b816000815181106109955761099561411a565b60200260200101906001600160a01b031690816001600160a01b031681525050816001600160a01b031663d21220a76040518163ffffffff1660e01b8152600401602060405180830381865afa1580156109f3573d6000803e3d6000fd5b505050506040513d601f19601f82011682018060405250810190610a1791906140fd565b81600181518110610a2a57610a2a61411a565b60200260200101906001600160a01b031690816001600160a01b031681525050919050565b610a57612b17565b81610a755760405163d7eb47e360e01b815260040160405180910390fd5b60c95460405163f9d9331d60e01b81526001600160a01b038581166004830152600092169063f9d9331d90602401602060405180830381865afa158015610ac0573d6000803e3d6000fd5b505050506040513d601f19601f82011682018060405250810190610ae491906140fd565b90506001600160a01b038116610b665760c954604051621849e360e61b81526001600160a01b0386811660048301529091169063061278c0906024016020604051808303816000875af1158015610b3f573d6000803e3d6000fd5b505050506040513d601f19601f82011682018060405250810190610b6391906140fd565b90505b610b7b6001600160a01b038516338386612b5f565b604051636e553f6560e01b8152600481018490526001600160a01b038381166024830152821690636e553f6590604401600060405180830381600087803b158015610bc557600080fd5b505af1158015610bd9573d6000803e3d6000fd5b50505050816001600160a01b0316336001600160a01b0316856001600160a01b03166000805160206146c283398151915286604051610c1a91815260200190565b60405180910390a450505050565b600054610100900460ff1615808015610c485750600054600160ff909116105b80610c625750303b158015610c62575060005460ff166001145b610cc55760405162461bcd60e51b815260206004820152602e60248201527f496e697469616c697a61626c653a20636f6e747261637420697320616c72656160448201526d191e481a5b9a5d1a585b1a5e995960921b60648201526084016107a8565b6000805460ff191660011790558015610ce8576000805461ff0019166101001790555b6001600160a01b038316610d0f5760405163731df12960e11b815260040160405180910390fd5b6001600160a01b038216610d355760405162c8b7fd60e21b815260040160405180910390fd5b610d3d612bd0565b60ca80546001600160a01b038086166001600160a01b0319928316811790935560c980549186169190921617905560408051631d6c8e3f60e21b815290516375b238fc916004808201926020929091908290030181865afa158015610da6573d6000803e3d6000fd5b505050506040513d601f19601f82011682018060405250810190610dca9190614238565b60cb558015610e13576000805461ff0019169055604051600181527f7f26b83ff96e1f2b6a682f133852f6798a09c465da95921460cefb38474024989060200160405180910390a15b505050565b306001600160a01b037f0000000000000000000000000000000000000000000000000000000000000000161415610e615760405162461bcd60e51b81526004016107a89061417e565b7f00000000000000000000000000000000000000000000000000000000000000006001600160a01b0316610eaa6000805160206146a2833981519152546001600160a01b031690565b6001600160a01b031614610ed05760405162461bcd60e51b81526004016107a8906141ca565b610ed9826128c7565b610ee58282600161295a565b5050565b60c95460405163f9d9331d60e01b81526001600160a01b038381166004830152600092839283928392169063f9d9331d90602401602060405180830381865afa158015610f3a573d6000803e3d6000fd5b505050506040513d601f19601f82011682018060405250810190610f5e91906140fd565b90506001600160a01b03811615610feb57604051630103c92b60e01b81526001600160a01b038781166004830152821690630103c92b90602401602060405180830381865afa158015610fb5573d6000803e3d6000fd5b505050506040513d601f19601f82011682018060405250810190610fd99190614238565b9350610fe58585612bff565b90935091505b509250925092565b6000306001600160a01b037f000000000000000000000000000000000000000000000000000000000000000016146110935760405162461bcd60e51b815260206004820152603860248201527f555550535570677261646561626c653a206d757374206e6f742062652063616c60448201527f6c6564207468726f7567682064656c656761746563616c6c000000000000000060648201526084016107a8565b506000805160206146a283398151915290565b60008060006110b3612b17565b8715806110be575086155b156110dc5760405163d7eb47e360e01b815260040160405180910390fd5b60c95460405163f9d9331d60e01b81526001600160a01b038b81166004830152600092169063f9d9331d90602401602060405180830381865afa158015611127573d6000803e3d6000fd5b505050506040513d601f19601f8201168201806040525081019061114b91906140fd565b90506001600160a01b0381166111cd5760c954604051621849e360e61b81526001600160a01b038c811660048301529091169063061278c0906024016020604051808303816000875af11580156111a6573d6000803e3d6000fd5b505050506040513d601f19601f820116820180604052508101906111ca91906140fd565b90505b6000816001600160a01b0316630fc63d106040518163ffffffff1660e01b8152600401602060405180830381865afa15801561120d573d6000803e3d6000fd5b505050506040513d601f19601f8201168201806040525081019061123191906140fd565b90506000826001600160a01b0316635f64b55b6040518163ffffffff1660e01b8152600401602060405180830381865afa158015611273573d6000803e3d6000fd5b505050506040513d601f19601f8201168201806040525081019061129791906140fd565b90506112ae6001600160a01b03831633308e612b5f565b6112c36001600160a01b03821633308d612b5f565b6112d282828d8d8d8d89612e3a565b604051636e553f6560e01b8152600481018290526001600160a01b038b81166024830152939950919750955090841690636e553f6590604401600060405180830381600087803b15801561132557600080fd5b505af1158015611339573d6000803e3d6000fd5b50505050866001600160a01b0316336001600160a01b03168d6001600160a01b03166000805160206146c28339815191528760405161137a91815260200190565b60405180910390a450505096509650969350505050565b60cb5460ca54604051632474521560e21b8152600481018390523360248201526001600160a01b03909116906391d1485490604401602060405180830381865afa1580156113e3573d6000803e3d6000fd5b505050506040513d601f19601f820116820180604052508101906114079190614216565b611424576040516365bc1f8360e11b815260040160405180910390fd5b670de0b6b3a76400008211156114575760405163704894fb60e11b8152670de0b6b3a764000060048201526024016107a8565b8160cc5414610ee55760cc5460408051918252602082018490527f5fc463da23c1b063e66f9e352006a7fbe8db7223c455dc429e881a2dfe2f94f1910160405180910390a15060cc55565b60ca54604051632474521560e21b81527f65d7a28e3265b37a6474929f336521b332c1681b933f6cb9f3376673440d862a60048201819052336024830152916001600160a01b0316906391d1485490604401602060405180830381865afa158015611511573d6000803e3d6000fd5b505050506040513d601f19601f820116820180604052508101906115359190614216565b611552576040516365bc1f8360e11b815260040160405180910390fd5b61084561305f565b600080600080600061156a612b17565b60c95460405163f9d9331d60e01b81526001600160a01b038a81166004830152600092169063f9d9331d90602401602060405180830381865afa1580156115b5573d6000803e3d6000fd5b505050506040513d601f19601f820116820180604052508101906115d991906140fd565b90506001600160a01b03811661165b5760c954604051621849e360e61b81526001600160a01b038b811660048301529091169063061278c0906024016020604051808303816000875af1158015611634573d6000803e3d6000fd5b505050506040513d601f19601f8201168201806040525081019061165891906140fd565b90505b6116648861309c565b6000816001600160a01b0316630fc63d106040518163ffffffff1660e01b8152600401602060405180830381865afa1580156116a4573d6000803e3d6000fd5b505050506040513d601f19601f820116820180604052508101906116c891906140fd565b90506000826001600160a01b0316635f64b55b6040518163ffffffff1660e01b8152600401602060405180830381865afa15801561170a573d6000803e3d6000fd5b505050506040513d601f19601f8201168201806040525081019061172e91906140fd565b905060008080806117486117428f80614130565b886131a6565b909d50909450925061176c8e60016020028101906117669190614130565b876131a6565b909c5090925090506117838686868587868d612e3a565b809a50819350829550505050866001600160a01b0316636e553f65898f6040518363ffffffff1660e01b81526004016117cf9291909182526001600160a01b0316602082015260400190565b600060405180830381600087803b1580156117e957600080fd5b505af11580156117fd573d6000803e3d6000fd5b5050505082841115611816576118138385614267565b99505b8082111561182b576118288183614267565b98505b505050505050866001600160a01b0316336001600160a01b03168a6001600160a01b03166000805160206146c28339815191528560405161186e91815260200190565b60405180910390a450939792965093509350565b600061188c612b17565b60ca54604051632474521560e21b81527ffbd454f36a7e1a388bd6fc3ab10d434aa4578f811acbbcf33afb1c697486313c60048201819052336024830152916001600160a01b0316906391d1485490604401602060405180830381865afa1580156118fb573d6000803e3d6000fd5b505050506040513d601f19601f8201168201806040525081019061191f9190614216565b61193c576040516365bc1f8360e11b815260040160405180910390fd5b60c95460405163f9d9331d60e01b81526001600160a01b038781166004830152600092169063f9d9331d90602401602060405180830381865afa158015611987573d6000803e3d6000fd5b505050506040513d601f19601f820116820180604052508101906119ab91906140fd565b90506001600160a01b0381166119d45760405163331fd83f60e11b815260040160405180910390fd5b6040805180820182526001600160a01b03868116825260cc5460208301529151636a30683b60e01b815291831691636a30683b91611a179189919060040161427e565b6020604051808303816000875af1158015611a36573d6000803e3d6000fd5b505050506040513d601f19601f82011682018060405250810190611a5a9190614238565b9250856001600160a01b03167fc1d32ad5cca423e7dda2123dbf8c482f8e77d00b631c06e903a47f2cec1334df84604051611a9791815260200190565b60405180910390a250509392505050565b60c95460405163f9d9331d60e01b81526001600160a01b038781166004830152600092839283929091169063f9d9331d90602401602060405180830381865afa158015611af9573d6000803e3d6000fd5b505050506040513d601f19601f82011682018060405250810190611b1d91906140fd565b90506001600160a01b038116611b465760405163331fd83f60e11b815260040160405180910390fd5b604051632d182be560e21b8152600481018890523360248201523060448201526001600160a01b0382169063b460af9490606401600060405180830381600087803b158015611b9457600080fd5b505af1158015611ba8573d6000803e3d6000fd5b50505050611c7d88826001600160a01b0316630fc63d106040518163ffffffff1660e01b8152600401602060405180830381865afa158015611bee573d6000803e3d6000fd5b505050506040513d601f19601f82011682018060405250810190611c1291906140fd565b836001600160a01b0316635f64b55b6040518163ffffffff1660e01b8152600401602060405180830381865afa158015611c50573d6000803e3d6000fd5b505050506040513d601f19601f82011682018060405250810190611c7491906140fd565b8a8a8a8a6124ec565b60405189815291945092506001600160a01b038581169133918b16906000805160206146828339815191529060200160405180910390a4509550959350505050565b60c95460405163f9d9331d60e01b81526001600160a01b038781166004830152600092839283929091169063f9d9331d90602401602060405180830381865afa158015611d10573d6000803e3d6000fd5b505050506040513d601f19601f82011682018060405250810190611d3491906140fd565b90506001600160a01b038116611d5d5760405163331fd83f60e11b815260040160405180910390fd5b6000816001600160a01b0316630fc63d106040518163ffffffff1660e01b8152600401602060405180830381865afa158015611d9d573d6000803e3d6000fd5b505050506040513d601f19601f82011682018060405250810190611dc191906140fd565b90506000826001600160a01b0316635f64b55b6040518163ffffffff1660e01b8152600401602060405180830381865afa158015611e03573d6000803e3d6000fd5b505050506040513d601f19601f82011682018060405250810190611e2791906140fd565b604051632d182be560e21b8152600481018b90523360248201523060448201529091506001600160a01b0384169063b460af9490606401600060405180830381600087803b158015611e7857600080fd5b505af1158015611e8c573d6000803e3d6000fd5b505050506001600160a01b03821673c9bdeed33cd01541e1eed10f90519d2c06fe3feb1415611ecd57611ec38a828b8b8b8b613550565b9095509350611f19565b6001600160a01b03811673c9bdeed33cd01541e1eed10f90519d2c06fe3feb1415611f0057611ec38a838b8b8b8b613550565b60405163aaf96e6160e01b815260040160405180910390fd5b856001600160a01b0316336001600160a01b03168b6001600160a01b03166000805160206146828339815191528c604051611f5691815260200190565b60405180910390a45050509550959350505050565b60c95460405163f9d9331d60e01b81526001600160a01b038581166004830152600092169063f9d9331d90602401602060405180830381865afa158015611fb6573d6000803e3d6000fd5b505050506040513d601f19601f82011682018060405250810190611fda91906140fd565b90506001600160a01b0381166120035760405163331fd83f60e11b815260040160405180910390fd5b604051632d182be560e21b8152600481018490523360248201526001600160a01b03838116604483015282169063b460af9490606401600060405180830381600087803b15801561205357600080fd5b505af1158015612067573d6000803e3d6000fd5b50505050816001600160a01b0316336001600160a01b0316856001600160a01b031660008051602061468283398151915286604051610c1a91815260200190565b60c95460405163f9d9331d60e01b81526001600160a01b038381166004830152600092839283928392169063f9d9331d90602401602060405180830381865afa1580156120f9573d6000803e3d6000fd5b505050506040513d601f19601f8201168201806040525081019061211d91906140fd565b90506001600160a01b038116156121a257806001600160a01b031663168a48226040518163ffffffff1660e01b8152600401602060405180830381865afa15801561216c573d6000803e3d6000fd5b505050506040513d601f19601f820116820180604052508101906121909190614238565b935061219c8585612bff565b90935091505b509193909250565b60008060006121b7612b17565b3415806121c2575086155b156121e05760405163d7eb47e360e01b815260040160405180910390fd5b60c95460405163f9d9331d60e01b81526001600160a01b038a81166004830152600092169063f9d9331d90602401602060405180830381865afa15801561222b573d6000803e3d6000fd5b505050506040513d601f19601f8201168201806040525081019061224f91906140fd565b90506001600160a01b0381166122d15760c954604051621849e360e61b81526001600160a01b038b811660048301529091169063061278c0906024016020604051808303816000875af11580156122aa573d6000803e3d6000fd5b505050506040513d601f19601f820116820180604052508101906122ce91906140fd565b90505b6000816001600160a01b0316630fc63d106040518163ffffffff1660e01b8152600401602060405180830381865afa158015612311573d6000803e3d6000fd5b505050506040513d601f19601f8201168201806040525081019061233591906140fd565b90506000826001600160a01b0316635f64b55b6040518163ffffffff1660e01b8152600401602060405180830381865afa158015612377573d6000803e3d6000fd5b505050506040513d601f19601f8201168201806040525081019061239b91906140fd565b90506001600160a01b03821673c9bdeed33cd01541e1eed10f90519d2c06fe3feb14156123f0576123d76001600160a01b03821633308d612b5f565b6123e4818b8b8b8761366c565b91975095509350612437565b6001600160a01b03811673c9bdeed33cd01541e1eed10f90519d2c06fe3feb1415611f005761242a6001600160a01b03831633308d612b5f565b6123e4828b8b8b8761366c565b604051636e553f6560e01b8152600481018590526001600160a01b038881166024830152841690636e553f6590604401600060405180830381600087803b15801561248157600080fd5b505af1158015612495573d6000803e3d6000fd5b50505050866001600160a01b0316336001600160a01b03168c6001600160a01b03166000805160206146c2833981519152876040516124d691815260200190565b60405180910390a4505050955095509592505050565b60405163095ea7b360e01b8152732cb45edb4517d5947afde3beabf95a582506858b60048201526024810185905260009081906001600160a01b038a169063095ea7b3906044016020604051808303816000875af1158015612552573d6000803e3d6000fd5b505050506040513d601f19601f820116820180604052508101906125769190614216565b50604051635d5155ef60e11b81526001600160a01b03808a1660048301528089166024830152604482018890526064820187905260848201869052841660a48201524260c4820152732cb45edb4517d5947afde3beabf95a582506858b9063baa2abde9060e40160408051808303816000875af11580156125fb573d6000803e3d6000fd5b505050506040513d601f19601f8201168201806040525081019061261f919061438e565b909a909950975050505050505050565b60008080612640876004818b6143b2565b81019061264d91906143dc565b50915050856001600160a01b031681602001516001600160a01b03161415612690576126836001600160a01b03871685876137f8565b84600092509250506128bd565b6312aa3caf60e01b6126a6600460008a8c6143b2565b6126af916144b9565b6001600160e01b0319161415806126dc5750856001600160a01b031681600001516001600160a01b031614155b806126e957506080810151155b8061270a5750836001600160a01b031681606001516001600160a01b031614155b1561272857604051631bb5161960e21b815260040160405180910390fd5b8051608082015160405163095ea7b360e01b8152731111111254eeb25477b68fb85ed929f73a960582600482015260248101919091526001600160a01b039091169063095ea7b3906044016020604051808303816000875af1158015612792573d6000803e3d6000fd5b505050506040513d601f19601f820116820180604052508101906127b69190614216565b50600080731111111254eeb25477b68fb85ed929f73a9605826001600160a01b03168a8a6040516127e89291906144e9565b6000604051808303816000865af19150503d8060008114612825576040519150601f19603f3d011682016040523d82523d6000602084013e61282a565b606091505b50915091508161284d576040516306dffaff60e51b815260040160405180910390fd5b600081806020019051810190612863919061438e565b9096509050808811156128985761287a8189614267565b8451909550612893906001600160a01b031688876137f8565b6128b8565b8088146128b857604051632cd294cf60e01b815260040160405180910390fd5b505050505b9550959350505050565b60cb5460ca54604051632474521560e21b8152600481018390523360248201526001600160a01b03909116906391d1485490604401602060405180830381865afa158015612919573d6000803e3d6000fd5b505050506040513d601f19601f8201168201806040525081019061293d9190614216565b610ee5576040516365bc1f8360e11b815260040160405180910390fd5b7f4910fdfa16fed3260ed0e7147f7cc6da11a60208b5b9406d12a635614ffd91435460ff161561298d57610e1383613828565b826001600160a01b03166352d1902d6040518163ffffffff1660e01b8152600401602060405180830381865afa9250505080156129e7575060408051601f3d908101601f191682019092526129e491810190614238565b60015b612a4a5760405162461bcd60e51b815260206004820152602e60248201527f45524331393637557067726164653a206e657720696d706c656d656e7461746960448201526d6f6e206973206e6f74205555505360901b60648201526084016107a8565b6000805160206146a28339815191528114612ab95760405162461bcd60e51b815260206004820152602960248201527f45524331393637557067726164653a20756e737570706f727465642070726f786044820152681a58589b195555525160ba1b60648201526084016107a8565b50610e138383836138c4565b612acd6138e9565b6033805460ff191690557f5db9ee0a495bf2e6ff9c91a7834c1ba4fdd244a5e8aa4e537bd38aeae4b073aa335b6040516001600160a01b03909116815260200160405180910390a1565b60335460ff1615612b5d5760405162461bcd60e51b815260206004820152601060248201526f14185d5cd8589b194e881c185d5cd95960821b60448201526064016107a8565b565b6040516001600160a01b0380851660248301528316604482015260648101829052612bca9085906323b872dd60e01b906084015b60408051601f198184030181529190526020810180516001600160e01b03166001600160e01b031990931692909217909152613932565b50505050565b600054610100900460ff16612bf75760405162461bcd60e51b81526004016107a8906144f9565b612b5d613a04565b6000806000846001600160a01b03166318160ddd6040518163ffffffff1660e01b8152600401602060405180830381865afa158015612c42573d6000803e3d6000fd5b505050506040513d601f19601f82011682018060405250810190612c669190614238565b905080856001600160a01b0316630dfe16816040518163ffffffff1660e01b8152600401602060405180830381865afa158015612ca7573d6000803e3d6000fd5b505050506040513d601f19601f82011682018060405250810190612ccb91906140fd565b6040516370a0823160e01b81526001600160a01b03888116600483015291909116906370a0823190602401602060405180830381865afa158015612d13573d6000803e3d6000fd5b505050506040513d601f19601f82011682018060405250810190612d379190614238565b612d419086614544565b612d4b9190614563565b925080856001600160a01b031663d21220a76040518163ffffffff1660e01b8152600401602060405180830381865afa158015612d8c573d6000803e3d6000fd5b505050506040513d601f19601f82011682018060405250810190612db091906140fd565b6040516370a0823160e01b81526001600160a01b03888116600483015291909116906370a0823190602401602060405180830381865afa158015612df8573d6000803e3d6000fd5b505050506040513d601f19601f82011682018060405250810190612e1c9190614238565b612e269086614544565b612e309190614563565b9150509250929050565b60405163095ea7b360e01b8152732cb45edb4517d5947afde3beabf95a582506858b600482015260248101869052600090819081906001600160a01b038b169063095ea7b3906044016020604051808303816000875af1158015612ea2573d6000803e3d6000fd5b505050506040513d601f19601f82011682018060405250810190612ec69190614216565b5060405163095ea7b360e01b8152732cb45edb4517d5947afde3beabf95a582506858b6004820152602481018890526001600160a01b038a169063095ea7b3906044016020604051808303816000875af1158015612f28573d6000803e3d6000fd5b505050506040513d601f19601f82011682018060405250810190612f4c9190614216565b5060405162e8e33760e81b81526001600160a01b03808c166004830152808b166024830152604482018a9052606482018990526084820188905260a48201879052851660c48201524260e4820152732cb45edb4517d5947afde3beabf95a582506858b9063e8e3370090610104016060604051808303816000875af1158015612fd9573d6000803e3d6000fd5b505050506040513d601f19601f82011682018060405250810190612ffd9190614585565b919450925090508288111561302b5761302b3361301a858b614267565b6001600160a01b038d1691906137f8565b818711156130525761305233613041848a614267565b6001600160a01b038c1691906137f8565b9750975097945050505050565b613067612b17565b6033805460ff191660011790557f62e78cea01bee320cd4e420270b5ea74000d11b0c9f74754ebdbfc544b05a258612afa3390565b6000806130a98380614130565b6130b79160049082906143b2565b8101906130c491906143dc565b5080519092506001600160a01b0316159050806130fe575080516001600160a01b031673eeeeeeeeeeeeeeeeeeeeeeeeeeeeeeeeeeeeeeee145b1561310b57806080015191505b600061311a6020850185614130565b6131289160049082906143b2565b81019061313591906143dc565b5080519092506001600160a01b03161590508061316f575080516001600160a01b031673eeeeeeeeeeeeeeeeeeeeeeeeeeeeeeeeeeeeeeee145b1561318657608081015161318390846145b3565b92505b823414612bca576040516312463ea160e21b815260040160405180910390fd5b60008080806131b8866004818a6143b2565b8101906131c591906143dc565b509150508060a001519150846001600160a01b031681600001516001600160a01b0316141561323e57608081015161321057604051631bb5161960e21b815260040160405180910390fd5b60808101518151613230916001600160a01b039091169033903090612b5f565b608001519250829150613547565b6312aa3caf60e01b61325460046000898b6143b2565b61325d916144b9565b6001600160e01b03191614158061328a5750846001600160a01b031681602001516001600160a01b031614155b8061329757506080810151155b806132af575060608101516001600160a01b03163014155b156132cd57604051631bb5161960e21b815260040160405180910390fd5b80516000906001600160a01b03161580613304575081516001600160a01b031673eeeeeeeeeeeeeeeeeeeeeeeeeeeeeeeeeeeeeeee145b9050806133bb576080820151825161332b916001600160a01b039091169033903090612b5f565b8151608083015160405163095ea7b360e01b8152731111111254eeb25477b68fb85ed929f73a960582600482015260248101919091526001600160a01b039091169063095ea7b3906044016020604051808303816000875af1158015613395573d6000803e3d6000fd5b505050506040513d601f19601f820116820180604052508101906133b99190614216565b505b6000816133c95760006133cf565b82608001515b9050600080731111111254eeb25477b68fb85ed929f73a9605826001600160a01b0316838c8c6040516134039291906144e9565b60006040518083038185875af1925050503d8060008114613440576040519150601f19603f3d011682016040523d82523d6000602084013e613445565b606091505b509150915081613468576040516306dffaff60e51b815260040160405180910390fd5b8080602001905181019061347c919061438e565b8098508199505050505050838260800151111561354457801561351e576000336001600160a01b03168584608001516134b59190614267565b604051600081818185875af1925050503d80600081146134f1576040519150601f19603f3d011682016040523d82523d6000602084013e6134f6565b606091505b50509050806135185760405163125bf52760e01b815260040160405180910390fd5b50613544565b613544338584608001516135329190614267565b84516001600160a01b031691906137f8565b50505b93509350939050565b60405163095ea7b360e01b8152732cb45edb4517d5947afde3beabf95a582506858b60048201526024810185905260009081906001600160a01b0389169063095ea7b3906044016020604051808303816000875af11580156135b6573d6000803e3d6000fd5b505050506040513d601f19601f820116820180604052508101906135da9190614216565b50604051629d473b60e21b8152732cb45edb4517d5947afde3beabf95a582506858b906302751cec9061361b908a908a908a908a908a9042906004016145cb565b60408051808303816000875af1158015613639573d6000803e3d6000fd5b505050506040513d601f19601f8201168201806040525081019061365d919061438e565b90999098509650505050505050565b60405163095ea7b360e01b8152732cb45edb4517d5947afde3beabf95a582506858b600482015260248101859052600090819081906001600160a01b0389169063095ea7b3906044016020604051808303816000875af11580156136d4573d6000803e3d6000fd5b505050506040513d601f19601f820116820180604052508101906136f89190614216565b5060405163f305d71960e01b8152732cb45edb4517d5947afde3beabf95a582506858b9063f305d71990349061373c908c908c908c908c908c9042906004016145cb565b60606040518083038185885af115801561375a573d6000803e3d6000fd5b50505050506040513d601f19601f8201168201806040525081019061377f9190614585565b91945092509050828711156137ad576137ad3361379c858a614267565b6001600160a01b038b1691906137f8565b813411156137ed57336108fc6137c38434614267565b6040518115909202916000818181858888f193505050501580156137eb573d6000803e3d6000fd5b505b955095509592505050565b6040516001600160a01b038316602482015260448101829052610e1390849063a9059cbb60e01b90606401612b93565b6001600160a01b0381163b6138955760405162461bcd60e51b815260206004820152602d60248201527f455243313936373a206e657720696d706c656d656e746174696f6e206973206e60448201526c1bdd08184818dbdb9d1c9858dd609a1b60648201526084016107a8565b6000805160206146a283398151915280546001600160a01b0319166001600160a01b0392909216919091179055565b6138cd83613a37565b6000825111806138da5750805b15610e1357612bca8383613a77565b60335460ff16612b5d5760405162461bcd60e51b815260206004820152601460248201527314185d5cd8589b194e881b9bdd081c185d5cd95960621b60448201526064016107a8565b6000613987826040518060400160405280602081526020017f5361666545524332303a206c6f772d6c6576656c2063616c6c206661696c6564815250856001600160a01b0316613b6d9092919063ffffffff16565b805190915015610e1357808060200190518101906139a59190614216565b610e135760405162461bcd60e51b815260206004820152602a60248201527f5361666545524332303a204552433230206f7065726174696f6e20646964206e6044820152691bdd081cdd58d8d9595960b21b60648201526084016107a8565b600054610100900460ff16613a2b5760405162461bcd60e51b81526004016107a8906144f9565b6033805460ff19169055565b613a4081613828565b6040516001600160a01b038216907fbc7cd75a20ee27fd9adebab32041f755214dbc6bffa90cc0225b39da2e5c2d3b90600090a250565b60606001600160a01b0383163b613adf5760405162461bcd60e51b815260206004820152602660248201527f416464726573733a2064656c65676174652063616c6c20746f206e6f6e2d636f6044820152651b9d1c9858dd60d21b60648201526084016107a8565b600080846001600160a01b031684604051613afa9190614632565b600060405180830381855af49150503d8060008114613b35576040519150601f19603f3d011682016040523d82523d6000602084013e613b3a565b606091505b5091509150613b6282826040518060600160405280602781526020016146e260279139613b86565b925050505b92915050565b6060613b7c8484600085613bbf565b90505b9392505050565b60608315613b95575081613b7f565b825115613ba55782518084602001fd5b8160405162461bcd60e51b81526004016107a8919061464e565b606082471015613c205760405162461bcd60e51b815260206004820152602660248201527f416464726573733a20696e73756666696369656e742062616c616e636520666f6044820152651c8818d85b1b60d21b60648201526084016107a8565b6001600160a01b0385163b613c775760405162461bcd60e51b815260206004820152601d60248201527f416464726573733a2063616c6c20746f206e6f6e2d636f6e747261637400000060448201526064016107a8565b600080866001600160a01b03168587604051613c939190614632565b60006040518083038185875af1925050503d8060008114613cd0576040519150601f19603f3d011682016040523d82523d6000602084013e613cd5565b606091505b5091509150613ce5828286613b86565b979650505050505050565b6001600160a01b038116811461084557600080fd5b8060408101831015613b6757600080fd5b60008060008060808587031215613d2c57600080fd5b8435613d3781613cf0565b935060208501359250604085013567ffffffffffffffff811115613d5a57600080fd5b613d6687828801613d05565b9250506060850135613d7781613cf0565b939692955090935050565b600060208284031215613d9457600080fd5b8135613b7f81613cf0565b6020808252825182820181905260009190848201906040850190845b81811015613de05783516001600160a01b031683529284019291840191600101613dbb565b50909695505050505050565b600080600060608486031215613e0157600080fd5b8335613e0c81613cf0565b9250602084013591506040840135613e2381613cf0565b809150509250925092565b60008060408385031215613e4157600080fd5b8235613e4c81613cf0565b91506020830135613e5c81613cf0565b809150509250929050565b634e487b7160e01b600052604160045260246000fd5b60405160e0810167ffffffffffffffff81118282101715613ea057613ea0613e67565b60405290565b600082601f830112613eb757600080fd5b813567ffffffffffffffff80821115613ed257613ed2613e67565b604051601f8301601f19908116603f01168101908282118183101715613efa57613efa613e67565b81604052838152866020858801011115613f1357600080fd5b836020870160208301376000602085830101528094505050505092915050565b60008060408385031215613f4657600080fd5b8235613f5181613cf0565b9150602083013567ffffffffffffffff811115613f6d57600080fd5b612e3085828601613ea6565b60008060008060008060c08789031215613f9257600080fd5b8635613f9d81613cf0565b95506020870135945060408701359350606087013592506080870135915060a0870135613fc981613cf0565b809150509295509295509295565b600060208284031215613fe957600080fd5b5035919050565b60008060006060848603121561400557600080fd5b833561401081613cf0565b9250602084013567ffffffffffffffff81111561402c57600080fd5b61403886828701613d05565b9250506040840135613e2381613cf0565b60008060006060848603121561405e57600080fd5b833561406981613cf0565b9250602084013567ffffffffffffffff81111561408557600080fd5b84016080810186101561409757600080fd5b91506040840135613e2381613cf0565b600080600080600060a086880312156140bf57600080fd5b85356140ca81613cf0565b945060208601359350604086013592506060860135915060808601356140ef81613cf0565b809150509295509295909350565b60006020828403121561410f57600080fd5b8151613b7f81613cf0565b634e487b7160e01b600052603260045260246000fd5b6000808335601e1984360301811261414757600080fd5b83018035915067ffffffffffffffff82111561416257600080fd5b60200191503681900382131561417757600080fd5b9250929050565b6020808252602c908201527f46756e6374696f6e206d7573742062652063616c6c6564207468726f7567682060408201526b19195b1959d85d1958d85b1b60a21b606082015260800190565b6020808252602c908201527f46756e6374696f6e206d7573742062652063616c6c6564207468726f7567682060408201526b6163746976652070726f787960a01b606082015260800190565b60006020828403121561422857600080fd5b81518015158114613b7f57600080fd5b60006020828403121561424a57600080fd5b5051919050565b634e487b7160e01b600052601160045260246000fd5b60008282101561427957614279614251565b500390565b606080825260009060e0830183820186845b600481101561436657868403605f190183528135368a9003603e190181126142b757600080fd5b89016040858101823536849003601e190181126142d357600080fd5b83018035602067ffffffffffffffff8211156142ee57600080fd5b8160051b360386131561430057600080fd5b9389529182905288880192908101916000915b8183101561434557833561432681613cf0565b6001600160a01b03168552938401939283019260019290920191614313565b94850135988501989098525090955050928301929190910190600101614290565b5050508092505050613b7f602083018480516001600160a01b03168252602090810151910152565b600080604083850312156143a157600080fd5b505080516020909101519092909150565b600080858511156143c257600080fd5b838611156143cf57600080fd5b5050820193919092039150565b60008060008385036101208112156143f357600080fd5b84356143fe81613cf0565b935060e0601f198201121561441257600080fd5b5061441b613e7d565b602085013561442981613cf0565b8152604085013561443981613cf0565b6020820152606085013561444c81613cf0565b6040820152608085013561445f81613cf0565b8060608301525060a0850135608082015260c085013560a082015260e085013560c08201528092505061010084013567ffffffffffffffff8111156144a357600080fd5b6144af86828701613ea6565b9150509250925092565b6001600160e01b031981358181169160048510156144e15780818660040360031b1b83161692505b505092915050565b8183823760009101908152919050565b6020808252602b908201527f496e697469616c697a61626c653a20636f6e7472616374206973206e6f74206960408201526a6e697469616c697a696e6760a81b606082015260800190565b600081600019048311821515161561455e5761455e614251565b500290565b60008261458057634e487b7160e01b600052601260045260246000fd5b500490565b60008060006060848603121561459a57600080fd5b8351925060208401519150604084015190509250925092565b600082198211156145c6576145c6614251565b500190565b6001600160a01b039687168152602081019590955260408501939093526060840191909152909216608082015260a081019190915260c00190565b60005b83811015614621578181015183820152602001614609565b83811115612bca5750506000910152565b60008251614644818460208701614606565b9190910192915050565b602081526000825180602084015261466d816040850160208701614606565b601f01601f1916919091016040019291505056fe3115d1449a7b732c986cba18244e897a450f61e1bb8d589cd2e69e6c8924f9f7360894a13ba1a3210667c828492db98dca3e2076cc3735a920a3ca505d382bbc7cfff908a4b583f36430b25d75964c458d8ede8a99bd61be750e97ee1b2f3a96416464726573733a206c6f772d6c6576656c2064656c65676174652063616c6c206661696c6564a2646970667358221220c2108407759dea937dac7e4e4608866006657730943bfb9815220518b3c1941d64736f6c634300080a0033",
  "immutableReferences": {
    "570": [
      {
        "length": 32,
        "start": 1898
      },
      {
        "length": 32,
        "start": 1971
      },
      {
        "length": 32,
        "start": 3619
      },
      {
        "length": 32,
        "start": 3683
      },
      {
        "length": 32,
        "start": 4096
      }
    ]
  },
  "source": "// SPDX-License-Identifier: MIT\r\npragma solidity 0.8.10;\r\n\r\nimport \"../../interfaces/IAggregationRouterV5.sol\";\r\nimport './interfaces/IUnoAssetRouterTrisolarisStandard.sol'; \r\nimport '../../interfaces/IUnoFarm.sol';\r\nimport \"../../interfaces/IUniswapV2Router.sol\";\r\nimport \"../../interfaces/IUniswapV2Pair.sol\";\r\nimport \"@openzeppelin/contracts/token/ERC20/utils/SafeERC20.sol\";\r\nimport \"@openzeppelin/contracts-upgradeable/proxy/utils/Initializable.sol\";\r\nimport \"@openzeppelin/contracts-upgradeable/security/PausableUpgradeable.sol\";\r\nimport \"@openzeppelin/contracts-upgradeable/proxy/utils/UUPSUpgradeable.sol\";\r\n\r\ncontract UnoAssetRouterTrisolarisStandard is Initializable, PausableUpgradeable, UUPSUpgradeable, IUnoAssetRouterTrisolarisStandard {\r\n    using SafeERC20 for IERC20;\r\n\r\n    /**\r\n     * @dev Contract Variables:\r\n     * farmFactory - The contract that deploys new Farms and links them to {lpPair}s.\r\n     * accessManager - Role manager contract.\r\n     */\r\n    IUnoFarmFactory public farmFactory;\r\n    IUnoAccessManager public accessManager;\r\n\r\n    bytes32 private ADMIN_ROLE;\r\n    bytes32 private constant DISTRIBUTOR_ROLE = keccak256(\"DISTRIBUTOR_ROLE\");\r\n    bytes32 private constant PAUSER_ROLE = keccak256(\"PAUSER_ROLE\");\r\n\r\n    uint256 public fee;\r\n\r\n    address public constant WETH = 0xC9BdeEd33CD01541e1eeD10f90519d2C06Fe3feB;\r\n    IUniswapV2Router01 private constant TrisolarisRouter = IUniswapV2Router01(0x2CB45Edb4517d5947aFdE3BEAbF95A582506858B);\r\n    address private constant OneInchRouter = 0x1111111254EEB25477B68fb85Ed929f73A960582;\r\n\r\n    modifier onlyRole(bytes32 role){\r\n        if(!accessManager.hasRole(role, msg.sender)) revert CALLER_NOT_AUTHORIZED();\r\n        _;\r\n    }\r\n\r\n    // ============ Methods ============\r\n\r\n    /// @custom:oz-upgrades-unsafe-allow constructor\r\n    constructor() {\r\n        _disableInitializers();\r\n    }\r\n\r\n    function initialize(address _accessManager, address _farmFactory) external initializer {\r\n        if(_accessManager == address(0)) revert INVALID_ACCESS_MANAGER();\r\n        if(_farmFactory == address(0)) revert INVALID_FARM_FACTORY();\r\n\r\n        __Pausable_init();\r\n        accessManager = IUnoAccessManager(_accessManager);\r\n        farmFactory = IUnoFarmFactory(_farmFactory);\r\n                \r\n        ADMIN_ROLE = accessManager.ADMIN_ROLE();\r\n    }\r\n\r\n    receive() external payable {\r\n        if (msg.sender == tx.origin) revert ETH_DEPOSIT_REJECTED();\r\n    }\r\n\r\n    /**\r\n     * @dev Deposits tokens in the given pool. Creates new Farm contract if there isn't one deployed for the {lpPair} and deposits tokens in it. Emits a {Deposit} event.\r\n     * @param lpPair - Address of the pool to deposit tokens in.\r\n     * @param amountA  - Token A amount to deposit.\r\n     * @param amountB -  Token B amount to deposit.\r\n     * @param amountAMin - Bounds the extent to which the B/A price can go up before the transaction reverts.\r\n     * @param amountBMin - Bounds the extent to which the A/B price can go up before the transaction reverts.\r\n     * @param recipient - Address which will receive the deposit.\r\n     \r\n     * @return sentA - Token A amount sent to the farm.\r\n     * @return sentB - Token B amount sent to the farm.\r\n     * @return liquidity - Total liquidity sent to the farm (in lpTokens).\r\n     */\r\n    function deposit(address lpPair, uint256 amountA, uint256 amountB, uint256 amountAMin, uint256 amountBMin, address recipient) external whenNotPaused returns(uint256 sentA, uint256 sentB, uint256 liquidity){\r\n        if(amountA == 0 || amountB == 0) revert NO_TOKENS_SENT();\r\n        Farm farm = Farm(farmFactory.Farms(lpPair));\r\n        if(farm == Farm(address(0))){\r\n            farm = Farm(farmFactory.createFarm(lpPair));\r\n        }\r\n\r\n        address tokenA = farm.tokenA();\r\n        address tokenB = farm.tokenB();\r\n        IERC20(tokenA).safeTransferFrom(msg.sender, address(this), amountA);\r\n        IERC20(tokenB).safeTransferFrom(msg.sender, address(this), amountB);\r\n\r\n        (sentA, sentB, liquidity) = _addLiquidity(tokenA, tokenB, amountA, amountB, amountAMin, amountBMin, address(farm));\r\n        farm.deposit(liquidity, recipient);\r\n\r\n        emit Deposit(lpPair, msg.sender, recipient, liquidity); \r\n    }\r\n\r\n    /**\r\n     * @dev Autoconverts MATIC into WMATIC and deposits tokens in the given pool. Creates new Farm contract if there isn't one deployed for the {lpStakingPool} and deposits tokens in it. Emits a {Deposit} event.\r\n     * @param lpPair - Address of the pool to deposit tokens in.\r\n     * @param amountToken  - Token amount to deposit.\r\n     * @param amountTokenMin - Bounds the extent to which the TOKEN/WMATIC price can go up before the transaction reverts.\r\n     * @param amountETHMin - Bounds the extent to which the WMATIC/TOKEN price can go up before the transaction reverts.\r\n     * @param recipient - Address which will receive the deposit.\r\n     \r\n     * @return sentToken - Token amount sent to the farm.\r\n     * @return sentETH - WMATIC amount sent to the farm.\r\n     * @return liquidity - Total liquidity sent to the farm (in lpTokens).\r\n     */\r\n    function depositETH(address lpPair, uint256 amountToken, uint256 amountTokenMin, uint256 amountETHMin, address recipient) external payable whenNotPaused returns(uint256 sentToken, uint256 sentETH, uint256 liquidity){\r\n        if(msg.value == 0 || amountToken == 0) revert NO_TOKENS_SENT();\r\n        Farm farm = Farm(farmFactory.Farms(lpPair));\r\n        if(farm == Farm(address(0))){\r\n            farm = Farm(farmFactory.createFarm(lpPair));\r\n        }\r\n\r\n        address tokenA = farm.tokenA();\r\n        address tokenB = farm.tokenB();\r\n        if (tokenA == WETH) {\r\n            IERC20(tokenB).safeTransferFrom(msg.sender, address(this), amountToken);\r\n            (sentToken, sentETH, liquidity) = _addLiquidityETH(tokenB, amountToken, amountTokenMin, amountETHMin, address(farm));\r\n        } else if (tokenB == WETH) {\r\n            IERC20(tokenA).safeTransferFrom(msg.sender, address(this), amountToken);\r\n            (sentToken, sentETH, liquidity) = _addLiquidityETH(tokenA, amountToken, amountTokenMin, amountETHMin, address(farm));\r\n        } else revert NOT_ETH_FARM();\r\n\r\n        farm.deposit(liquidity, recipient);\r\n\r\n        emit Deposit(lpPair, msg.sender, recipient, liquidity);\r\n    }\r\n\r\n    /**\r\n     * @dev Deposits any tokens in the given pool by swapping them using 1inch. Creates new Farm contract if there isn't one deployed for the {lpPair}, swaps {token} for pool tokens and deposits them. Emits a {Deposit} event.\r\n     * @param lpPair - Address of the pool to deposit tokens in.\r\n     * @param swapData - Parameters with which 1inch router is being called with.\r\n     * @param recipient - Address which will receive the deposit.\r\n     \r\n     * @return sent0 - Tokens sent to the farm from the {swapData[0]}.\r\n     * @return sent1 - Tokens sent to the farm from the {swapData[1]}.\r\n     * @return dustA - TokenA dust sent to the {msg.sender}.\r\n     * @return dustB - TokenB dust sent to the {msg.sender}.\r\n     * @return liquidity - Total liquidity sent to the farm (in lpTokens).\r\n     */\r\n    function depositWithSwap(address lpPair, bytes[2] calldata swapData, address recipient) external payable whenNotPaused returns(uint256 sent0, uint256 sent1, uint256 dustA, uint256 dustB, uint256 liquidity){\r\n        Farm farm = Farm(farmFactory.Farms(lpPair));\r\n        if(farm == Farm(address(0))){\r\n            farm = Farm(farmFactory.createFarm(lpPair));\r\n        }\r\n\r\n        _checkMsgValue(swapData);\r\n        \r\n        {\r\n        address tokenA = farm.tokenA();\r\n        address tokenB = farm.tokenB();\r\n\r\n        uint256 amountA; uint256 amountAMin;\r\n        uint256 amountB; uint256 amountBMin;\r\n        (amountA, sent0, amountAMin) = _swapDeposit(swapData[0], IERC20(tokenA));\r\n        (amountB, sent1, amountBMin) = _swapDeposit(swapData[1], IERC20(tokenB));\r\n\r\n        // Variable naming is not correct, however I have to do it this way to avoid Stack too deep error.\r\n        (amountAMin, amountBMin, liquidity) = _addLiquidity(tokenA, tokenB, amountA, amountB, amountAMin, amountBMin, address(farm));\r\n        farm.deposit(liquidity, recipient);\r\n        \r\n        if(amountA > amountAMin){\r\n            dustA = amountA - amountAMin;\r\n        }\r\n        if(amountB > amountBMin){\r\n            dustB = amountB - amountBMin;\r\n        }\r\n        }\r\n\r\n        emit Deposit(lpPair, msg.sender, recipient, liquidity);\r\n    }\r\n\r\n    /**\r\n     * @dev Deposits tokens in the given pool. Creates new Farm contract if there isn't one deployed for the {lpPair} and deposits tokens in it. Emits a {Deposit} event.\r\n     * @param lpPair - Address of the pool to deposit tokens in.\r\n     * @param amount - LP Token amount to deposit.\r\n     * @param recipient - Address which will receive the deposit.\r\n     */\r\n    function depositLP(address lpPair, uint256 amount, address recipient) external whenNotPaused{\r\n        if(amount == 0) revert NO_TOKENS_SENT();\r\n        Farm farm = Farm(farmFactory.Farms(lpPair));\r\n        if(farm == Farm(address(0))){\r\n            farm = Farm(farmFactory.createFarm(lpPair));\r\n        }\r\n\r\n        IERC20(lpPair).safeTransferFrom(msg.sender, address(farm), amount);\r\n        farm.deposit(amount, recipient);\r\n\r\n        emit Deposit(lpPair, msg.sender, recipient, amount); \r\n    }\r\n\r\n    /** \r\n     * @dev Withdraws a pair of tokens from the given pool. Emits a {Withdraw} event.\r\n     * @param lpPair - LP pool to withdraw from.\r\n     * @param amount - LP amount to withdraw. \r\n     * @param amountAMin - The minimum amount of tokenA that must be received for the transaction not to revert.\r\n     * @param amountBMin - The minimum amount of tokenB that must be received for the transaction not to revert.\r\n     * @param recipient - The address which will receive tokens.\r\n\r\n     * @return amountA - Token A amount sent to the {recipient}\r\n     * @return amountB - Token B amount sent to the {recipient}\r\n     */ \r\n    function withdraw(address lpPair, uint256 amount, uint256 amountAMin, uint256 amountBMin, address recipient) external returns(uint256 amountA, uint256 amountB){\r\n        Farm farm = Farm(farmFactory.Farms(lpPair));\r\n        if(farm == Farm(address(0))) revert FARM_NOT_EXISTS();\r\n\r\n        farm.withdraw(amount, msg.sender, address(this));\r\n        (amountA, amountB) = _removeLiquidity(lpPair, farm.tokenA(), farm.tokenB(), amount, amountAMin, amountBMin, recipient);\r\n        \r\n        emit Withdraw(lpPair, msg.sender, recipient, amount);  \r\n    }\r\n\r\n    /** \r\n     * @dev Autoconverts WMATIC into MATIC and withdraws tokens from the pool. Emits a {Withdraw} event.\r\n     * @param lpPair - LP pool to withdraw from.\r\n     * @param amount - LP amount to withdraw. \r\n     * @param amountTokenMin - The minimum amount of token that must be received for the transaction not to revert.\r\n     * @param amountETHMin - The minimum amount of MATIC that must be received for the transaction not to revert.\r\n     * @param recipient - The address which will receive tokens.\r\n\r\n     * @return amountToken - Token amount sent to the {recipient}.\r\n     * @return amountETH - MATIC amount sent to the {recipient}.\r\n     */ \r\n    function withdrawETH(address lpPair, uint256 amount, uint256 amountTokenMin, uint256 amountETHMin, address recipient) external returns(uint256 amountToken, uint256 amountETH){\r\n        Farm farm = Farm(farmFactory.Farms(lpPair));\r\n        if(farm == Farm(address(0))) revert FARM_NOT_EXISTS();\r\n\r\n        address tokenA = farm.tokenA();\r\n        address tokenB = farm.tokenB();\r\n\r\n        farm.withdraw(amount, msg.sender, address(this));\r\n        if (tokenA == WETH) {\r\n            (amountToken, amountETH) = _removeLiquidityETH(lpPair, tokenB, amount, amountTokenMin, amountETHMin, recipient);\r\n        } else if (tokenB == WETH) {\r\n            (amountToken, amountETH) = _removeLiquidityETH(lpPair, tokenA, amount, amountTokenMin, amountETHMin, recipient);\r\n        } else revert NOT_ETH_FARM();\r\n\r\n        emit Withdraw(lpPair, msg.sender, recipient, amount);\r\n    }\r\n\r\n    /**\r\n     * @dev Withdraws tokens from the given pool and swap them using 1inch. Emits a {Withdraw} event. Note: If there are any tokens left to be withdrawn after swaps they will be sent to the {{recipient}} in a respective token.\r\n     * @param lpPair - LP pool to withdraw from.\r\n     * @param amount - LP amount to withdraw. \r\n     * @param swapData - Parameters with which 1inch router is being called with.\r\n     * @param recipient - The address which will receive tokens.\r\n     \r\n     * @return amount0 - Tokens sent to the {recipient} from the {swapData[0]}.\r\n     * @return amount1 - Tokens sent to the {recipient} from the {swapData[1]}.\r\n     * @return amountA - TokenA dust sent to the {recipient}.\r\n     * @return amountB - TokenB dust to the {recipient}.\r\n     */\r\n    function withdrawWithSwap(address lpPair, uint256 amount, bytes[2] calldata swapData, address recipient) external returns(uint256 amount0, uint256 amount1, uint256 amountA, uint256 amountB){\r\n        Farm farm = Farm(farmFactory.Farms(lpPair));\r\n        if(farm == Farm(address(0))) revert FARM_NOT_EXISTS();\r\n\r\n        farm.withdraw(amount, msg.sender, address(this));\r\n\r\n        address tokenA = farm.tokenA();\r\n        address tokenB = farm.tokenB();\r\n        (uint256 _amountA, uint256 _amountB) = _removeLiquidity(lpPair, tokenA, tokenB, amount, 0, 0, address(this));\r\n        \r\n        (amount0, amountA) = _swapWithdraw(swapData[0], IERC20(tokenA), _amountA, recipient);\r\n        (amount1, amountB) = _swapWithdraw(swapData[1], IERC20(tokenB), _amountB, recipient);\r\n\r\n        emit Withdraw(lpPair, msg.sender, recipient, amount);\r\n    }\r\n\r\n    /** \r\n     * @dev Withdraws LP tokens from the given pool. Emits a {Withdraw} event.\r\n     * @param lpPair - LP pool to withdraw from.\r\n     * @param amount - LP amount to withdraw. \r\n     * @param recipient - The address which will receive tokens.\r\n     */ \r\n    function withdrawLP(address lpPair, uint256 amount, address recipient) external {\r\n        Farm farm = Farm(farmFactory.Farms(lpPair));\r\n        if(farm == Farm(address(0))) revert FARM_NOT_EXISTS();\r\n        \r\n        farm.withdraw(amount, msg.sender, recipient);\r\n        emit Withdraw(lpPair, msg.sender, recipient, amount);  \r\n    }\r\n\r\n    /**\r\n     * @dev Distributes tokens between users.\r\n     * @param lpPair - LP pool to distribute tokens in.\r\n     * @param swapInfos - Arrays of structs with token arrays describing swap routes (rewardTokenToTokenA, rewardTokenToTokenB, rewarderTokenToTokenA, rewarderTokenToTokenB) and minimum amounts of output tokens that must be received for the transaction not to revert.\r\n     * @param feeTo - Address to collect fees to.\r\n     *\r\n     * Note: This function can only be called by the distributor.\r\n     */\r\n    function distribute(\r\n        address lpPair,\r\n        Farm.SwapInfo[4] calldata swapInfos,\r\n        address feeTo\r\n    ) external whenNotPaused onlyRole(DISTRIBUTOR_ROLE) returns(uint256 reward){\r\n        Farm farm = Farm(farmFactory.Farms(lpPair));\r\n        if(farm == Farm(address(0))) revert FARM_NOT_EXISTS();\r\n\r\n        //I don't understand why the definition for FeeInfo can not be imported from Farm\r\n        reward = farm.distribute(swapInfos, IUnoFarm.FeeInfo(feeTo, fee));\r\n        emit Distribute(lpPair, reward);\r\n    }\r\n\r\n    /**\r\n     * @dev Returns tokens staked by the {_address} for the given {lpPair}.\r\n     * @param _address - The address to check stakes for.\r\n     * @param lpPair - LP pool to check stakes in.\r\n\r\n     * @return stakeLP - Total user stake(in LP tokens).\r\n     * @return stakeA - Token A stake.\r\n     * @return stakeB - Token B stake.\r\n     */\r\n    function userStake(address _address, address lpPair) external view returns (uint256 stakeLP, uint256 stakeA, uint256 stakeB) {\r\n        Farm farm = Farm(farmFactory.Farms(lpPair));\r\n        if (farm != Farm(address(0))) {\r\n            stakeLP = farm.userBalance(_address);\r\n            (stakeA, stakeB) = _getTokenStake(lpPair, stakeLP);\r\n        }\r\n    }\r\n\r\n    /**\r\n     * @dev Returns total amount locked in the pool. Doesn't take pending rewards into account.\r\n     * @param lpPair - LP pool to check total deposits in.\r\n\r\n     * @return totalDepositsLP - Total deposits (in LP tokens).\r\n     * @return totalDepositsA - Token A deposits.\r\n     * @return totalDepositsB - Token B deposits.\r\n     */\r\n    function totalDeposits(address lpPair) external view returns (uint256 totalDepositsLP, uint256 totalDepositsA, uint256 totalDepositsB) {\r\n        Farm farm = Farm(farmFactory.Farms(lpPair));\r\n        if (farm != Farm(address(0))) {\r\n            totalDepositsLP = farm.getTotalDeposits();\r\n            (totalDepositsA, totalDepositsB) = _getTokenStake(lpPair, totalDepositsLP);\r\n        }\r\n    }\r\n\r\n    /**\r\n     * @dev Returns addresses of tokens in {lpPair}.\r\n     * @param lpPair - LP pair to check tokens in.\r\n\r\n     * @return tokens - Tokens addresses.\r\n     */\r\n    function getTokens(address lpPair) external view returns(IERC20[] memory tokens){\r\n        tokens = new IERC20[](2);\r\n        tokens[0] = IERC20(IUniswapV2Pair(lpPair).token0());\r\n        tokens[1] = IERC20(IUniswapV2Pair(lpPair).token1());\r\n    }\r\n\r\n    /**\r\n     * @dev Deposits assets to router & refunds dust.\r\n     */ \r\n    function _addLiquidity(\r\n        address tokenA,\r\n        address tokenB, \r\n        uint256 amountA, \r\n        uint256 amountB, \r\n        uint256 amountAMin, \r\n        uint256 amountBMin, \r\n        address farm\r\n    ) internal returns(uint256 sentA, uint256 sentB, uint256 liquidity){\r\n        IERC20(tokenA).approve(address(TrisolarisRouter), amountA);\r\n        IERC20(tokenB).approve(address(TrisolarisRouter), amountB);\r\n\r\n        (sentA, sentB, liquidity) = TrisolarisRouter.addLiquidity(tokenA, tokenB, amountA, amountB, amountAMin, amountBMin, farm, block.timestamp);\r\n        // Refund dust\r\n        if(amountA > sentA){\r\n            IERC20(tokenA).safeTransfer(msg.sender, amountA - sentA);\r\n        }\r\n        if(amountB > sentB){\r\n\t\t    IERC20(tokenB).safeTransfer(msg.sender, amountB - sentB);\r\n        }\r\n    }\r\n\r\n    /**\r\n     * @dev Deposits assets to router & refunds dust.\r\n     */ \r\n    function _addLiquidityETH(\r\n        address token,\r\n        uint256 amount, \r\n        uint256 amountTokenMin, \r\n        uint256 amountETHMin, \r\n        address farm\r\n    ) internal returns(uint256 sentToken, uint256 sentETH, uint256 liquidity){\r\n        IERC20(token).approve(address(TrisolarisRouter), amount);\r\n\r\n        (sentToken, sentETH, liquidity) = TrisolarisRouter.addLiquidityETH{value: msg.value}(token, amount, amountTokenMin, amountETHMin, farm, block.timestamp);\r\n        // Refund dust\r\n        if(amount > sentToken){\r\n            IERC20(token).safeTransfer(msg.sender, amount - sentToken);\r\n        }\r\n        if(msg.value > sentETH){\r\n            payable(msg.sender).transfer(msg.value - sentETH);\r\n        }\r\n    }\r\n\r\n    /**\r\n     * @dev Withdraws assets from router.\r\n     */ \r\n    function _removeLiquidity(\r\n        address lpPair,\r\n        address tokenA,\r\n        address tokenB, \r\n        uint256 amount, \r\n        uint256 amountAMin, \r\n        uint256 amountBMin, \r\n        address recipient\r\n    ) internal returns(uint256 amountA, uint256 amountB){\r\n        IERC20(lpPair).approve(address(TrisolarisRouter), amount);\r\n        (amountA, amountB) = TrisolarisRouter.removeLiquidity(tokenA, tokenB, amount, amountAMin, amountBMin, recipient, block.timestamp);\r\n    }\r\n\r\n    /**\r\n     * @dev Withdraws assets from router.\r\n     */ \r\n    function _removeLiquidityETH(\r\n        address lpPair,\r\n        address token,\r\n        uint256 amount, \r\n        uint256 amountTokenMin, \r\n        uint256 amountETHMin, \r\n        address recipient\r\n    ) internal returns(uint256 amountToken, uint256 amountETH){\r\n        IERC20(lpPair).approve(address(TrisolarisRouter), amount);\r\n        (amountToken, amountETH) = TrisolarisRouter.removeLiquidityETH(token, amount, amountTokenMin, amountETHMin, recipient, block.timestamp);\r\n    }\r\n\r\n    function _swapDeposit(bytes calldata swapData, IERC20 toToken) internal returns(uint256 returnAmount, uint256 spentAmount, uint256 amountMin){\r\n        (,IAggregationRouterV5.SwapDescription memory desc,) = abi.decode(swapData[4:], (address, IAggregationRouterV5.SwapDescription, bytes));\r\n        \r\n        amountMin = desc.minReturnAmount;\r\n        if(desc.srcToken == toToken){\r\n            if(desc.amount == 0) revert INVALID_SWAP_DESCRIPTION();\r\n            desc.srcToken.safeTransferFrom(msg.sender, address(this), desc.amount);\r\n            return (desc.amount, desc.amount, amountMin);\r\n        }\r\n        \r\n        if(\r\n            bytes4(swapData[:4]) != IAggregationRouterV5.swap.selector || \r\n            desc.dstToken != toToken || \r\n            desc.amount == 0 ||\r\n            desc.dstReceiver != address(this)\r\n        ) revert INVALID_SWAP_DESCRIPTION();\r\n\r\n        bool isETH = (address(desc.srcToken) == address(0) || address(desc.srcToken) == address(0xEeeeeEeeeEeEeeEeEeEeeEEEeeeeEeeeeeeeEEeE));\r\n        if(!isETH){\r\n            desc.srcToken.safeTransferFrom(msg.sender, address(this), desc.amount);\r\n            desc.srcToken.approve(OneInchRouter, desc.amount);\r\n        }\r\n\r\n        {\r\n        uint256 value = isETH ? desc.amount : 0;\r\n        (bool success, bytes memory data) = OneInchRouter.call{value: value}(swapData);\r\n        if(!success) revert SWAP_NOT_SUCCESSFUL();\r\n        (returnAmount, spentAmount) = abi.decode(data, (uint256, uint256));\r\n        }\r\n\r\n        if(desc.amount > spentAmount){\r\n            if(isETH){\r\n                (bool success, ) = msg.sender.call{value: desc.amount - spentAmount}(\"\");\r\n                if(!success) revert TRANSFER_NOT_SUCCESSFUL();\r\n            }else{\r\n                desc.srcToken.safeTransfer(address(msg.sender), desc.amount - spentAmount);\r\n            }\r\n        }\r\n    }\r\n \r\n    function _swapWithdraw(bytes calldata swapData, IERC20 fromToken, uint256 maxAmount, address recipient) internal returns(uint256 returnAmount, uint256 dust){\r\n        (,IAggregationRouterV5.SwapDescription memory desc,) = abi.decode(swapData[4:], (address, IAggregationRouterV5.SwapDescription, bytes));\r\n        \r\n        if(desc.dstToken == fromToken){\r\n            fromToken.safeTransfer(recipient, maxAmount);\r\n            return (maxAmount, 0);\r\n        }\r\n        \r\n        if(\r\n            bytes4(swapData[:4]) != IAggregationRouterV5.swap.selector || \r\n            desc.srcToken != fromToken ||\r\n            desc.amount == 0 ||\r\n            desc.dstReceiver != recipient\r\n        ) revert INVALID_SWAP_DESCRIPTION();\r\n\r\n        desc.srcToken.approve(OneInchRouter, desc.amount);\r\n        (bool success, bytes memory data) = OneInchRouter.call(swapData);\r\n        if(!success) revert SWAP_NOT_SUCCESSFUL();\r\n        uint256 spentAmount;\r\n        (returnAmount, spentAmount) = abi.decode(data, (uint256, uint256));\r\n\r\n        if(maxAmount > spentAmount){\r\n            dust = maxAmount - spentAmount;\r\n            desc.srcToken.safeTransfer(recipient, dust);\r\n        } else if(maxAmount != spentAmount) revert INSUFFICIENT_AMOUNT();\r\n    }\r\n\r\n    function _checkMsgValue(bytes[2] calldata swapData) internal view {\r\n        uint256 value;\r\n\r\n        (,IAggregationRouterV5.SwapDescription memory desc0,) = abi.decode(swapData[0][4:], (address, IAggregationRouterV5.SwapDescription, bytes));\r\n        if(address(desc0.srcToken) == address(0) || address(desc0.srcToken) == address(0xEeeeeEeeeEeEeeEeEeEeeEEEeeeeEeeeeeeeEEeE)){\r\n            value = desc0.amount;\r\n        }\r\n\r\n        (,IAggregationRouterV5.SwapDescription memory desc1,) = abi.decode(swapData[1][4:], (address, IAggregationRouterV5.SwapDescription, bytes));\r\n        if(address(desc1.srcToken) == address(0) || address(desc1.srcToken) == address(0xEeeeeEeeeEeEeeEeEeEeeEEEeeeeEeeeeeeeEEeE)){\r\n            value += desc1.amount;\r\n        }\r\n\r\n        if(msg.value != value) revert INVALID_MSG_VALUE();\r\n    }\r\n\r\n    /**\r\n     * @dev Converts LP tokens to normal tokens, value(amountA) == value(amountB) == 0.5*amountLP\r\n     * @param lpPair - LP pair for conversion.\r\n     * @param amountLP - Amount of LP tokens to convert.\r\n\r\n     * @return amountA - Token A amount.\r\n     * @return amountB - Token B amount.\r\n     */ \r\n    function _getTokenStake(address lpPair, uint256 amountLP) internal view returns (uint256 amountA, uint256 amountB) {\r\n        uint256 totalSupply = IERC20(lpPair).totalSupply();\r\n        amountA = amountLP * IERC20(IUniswapV2Pair(lpPair).token0()).balanceOf(lpPair) / totalSupply;\r\n        amountB = amountLP * IERC20(IUniswapV2Pair(lpPair).token1()).balanceOf(lpPair) / totalSupply;\r\n    }\r\n\r\n    /**\r\n     * @dev Change fee amount.\r\n     * @param _fee -New fee to collect from farms. [10^18 == 100%]\r\n     *\r\n     * Note: This function can only be called by ADMIN_ROLE.\r\n     */ \r\n    function setFee(uint256 _fee) external onlyRole(ADMIN_ROLE){\r\n        if(_fee > 1 ether) revert MAX_FEE_EXCEEDED(1 ether);\r\n        if(fee != _fee){\r\n            emit FeeChanged(fee, _fee); \r\n            fee = _fee;\r\n        }\r\n    }\r\n\r\n    function pause() external onlyRole(PAUSER_ROLE) {\r\n        _pause();\r\n    }\r\n\r\n    function unpause() external onlyRole(PAUSER_ROLE) {\r\n        _unpause();\r\n    }\r\n\r\n    function _authorizeUpgrade(address) internal override onlyRole(ADMIN_ROLE) {\r\n\r\n    }\r\n}\r\n",
  "sourcePath": "C:\\Users\\jugli\\Desktop\\uno\\uno-contracts-aurora\\contracts\\apps\\trisolarisStandard\\UnoAssetRouterTrisolarisStandard.sol",
  "compiler": {
    "name": "solc",
    "version": "0.8.10+commit.fc410830.Emscripten.clang"
  },
  "schemaVersion": "3.4.13",
  "updatedAt": "2023-06-21T10:40:21.872Z",
  "networkType": "ethereum",
  "devdoc": {
    "kind": "dev",
    "methods": {
      "constructor": {
        "custom:oz-upgrades-unsafe-allow": "constructor"
      },
      "deposit(address,uint256,uint256,uint256,uint256,address)": {
        "details": "Deposits tokens in the given pool. Creates new Farm contract if there isn't one deployed for the {lpPair} and deposits tokens in it. Emits a {Deposit} event.",
        "params": {
          "amountA": "- Token A amount to deposit.",
          "amountAMin": "- Bounds the extent to which the B/A price can go up before the transaction reverts.",
          "amountB": "-  Token B amount to deposit.",
          "amountBMin": "- Bounds the extent to which the A/B price can go up before the transaction reverts.",
          "lpPair": "- Address of the pool to deposit tokens in.",
          "recipient": "- Address which will receive the deposit."
        },
        "returns": {
          "liquidity": "- Total liquidity sent to the farm (in lpTokens).",
          "sentA": "- Token A amount sent to the farm.",
          "sentB": "- Token B amount sent to the farm."
        }
      },
      "depositETH(address,uint256,uint256,uint256,address)": {
        "details": "Autoconverts MATIC into WMATIC and deposits tokens in the given pool. Creates new Farm contract if there isn't one deployed for the {lpStakingPool} and deposits tokens in it. Emits a {Deposit} event.",
        "params": {
          "amountETHMin": "- Bounds the extent to which the WMATIC/TOKEN price can go up before the transaction reverts.",
          "amountToken": "- Token amount to deposit.",
          "amountTokenMin": "- Bounds the extent to which the TOKEN/WMATIC price can go up before the transaction reverts.",
          "lpPair": "- Address of the pool to deposit tokens in.",
          "recipient": "- Address which will receive the deposit."
        },
        "returns": {
          "liquidity": "- Total liquidity sent to the farm (in lpTokens).",
          "sentETH": "- WMATIC amount sent to the farm.",
          "sentToken": "- Token amount sent to the farm."
        }
      },
      "depositLP(address,uint256,address)": {
        "details": "Deposits tokens in the given pool. Creates new Farm contract if there isn't one deployed for the {lpPair} and deposits tokens in it. Emits a {Deposit} event.",
        "params": {
          "amount": "- LP Token amount to deposit.",
          "lpPair": "- Address of the pool to deposit tokens in.",
          "recipient": "- Address which will receive the deposit."
        }
      },
      "depositWithSwap(address,bytes[2],address)": {
        "details": "Deposits any tokens in the given pool by swapping them using 1inch. Creates new Farm contract if there isn't one deployed for the {lpPair}, swaps {token} for pool tokens and deposits them. Emits a {Deposit} event.",
        "params": {
          "lpPair": "- Address of the pool to deposit tokens in.",
          "recipient": "- Address which will receive the deposit.",
          "swapData": "- Parameters with which 1inch router is being called with."
        },
        "returns": {
          "dustA": "- TokenA dust sent to the {msg.sender}.",
          "dustB": "- TokenB dust sent to the {msg.sender}.",
          "liquidity": "- Total liquidity sent to the farm (in lpTokens).",
          "sent0": "- Tokens sent to the farm from the {swapData[0]}.",
          "sent1": "- Tokens sent to the farm from the {swapData[1]}."
        }
      },
      "distribute(address,(address[],uint256)[4],address)": {
        "details": "Distributes tokens between users.",
        "params": {
          "feeTo": "- Address to collect fees to. Note: This function can only be called by the distributor.",
          "lpPair": "- LP pool to distribute tokens in.",
          "swapInfos": "- Arrays of structs with token arrays describing swap routes (rewardTokenToTokenA, rewardTokenToTokenB, rewarderTokenToTokenA, rewarderTokenToTokenB) and minimum amounts of output tokens that must be received for the transaction not to revert."
        }
      },
      "getTokens(address)": {
        "details": "Returns addresses of tokens in {lpPair}.",
        "params": {
          "lpPair": "- LP pair to check tokens in."
        },
        "returns": {
          "tokens": "- Tokens addresses."
        }
      },
      "paused()": {
        "details": "Returns true if the contract is paused, and false otherwise."
      },
      "proxiableUUID()": {
        "details": "Implementation of the ERC1822 {proxiableUUID} function. This returns the storage slot used by the implementation. It is used to validate that the this implementation remains valid after an upgrade. IMPORTANT: A proxy pointing at a proxiable contract should not be considered proxiable itself, because this risks bricking a proxy that upgrades to it, by delegating to itself until out of gas. Thus it is critical that this function revert if invoked through a proxy. This is guaranteed by the `notDelegated` modifier."
      },
      "setFee(uint256)": {
        "details": "Change fee amount.",
        "params": {
          "_fee": "-New fee to collect from farms. [10^18 == 100%] Note: This function can only be called by ADMIN_ROLE."
        }
      },
      "totalDeposits(address)": {
        "details": "Returns total amount locked in the pool. Doesn't take pending rewards into account.",
        "params": {
          "lpPair": "- LP pool to check total deposits in."
        },
        "returns": {
          "totalDepositsA": "- Token A deposits.",
          "totalDepositsB": "- Token B deposits.",
          "totalDepositsLP": "- Total deposits (in LP tokens)."
        }
      },
      "upgradeTo(address)": {
        "details": "Upgrade the implementation of the proxy to `newImplementation`. Calls {_authorizeUpgrade}. Emits an {Upgraded} event."
      },
      "upgradeToAndCall(address,bytes)": {
        "details": "Upgrade the implementation of the proxy to `newImplementation`, and subsequently execute the function call encoded in `data`. Calls {_authorizeUpgrade}. Emits an {Upgraded} event."
      },
      "userStake(address,address)": {
        "details": "Returns tokens staked by the {_address} for the given {lpPair}.",
        "params": {
          "_address": "- The address to check stakes for.",
          "lpPair": "- LP pool to check stakes in."
        },
        "returns": {
          "stakeA": "- Token A stake.",
          "stakeB": "- Token B stake.",
          "stakeLP": "- Total user stake(in LP tokens)."
        }
      },
      "withdraw(address,uint256,uint256,uint256,address)": {
        "details": "Withdraws a pair of tokens from the given pool. Emits a {Withdraw} event.",
        "params": {
          "amount": "- LP amount to withdraw. ",
          "amountAMin": "- The minimum amount of tokenA that must be received for the transaction not to revert.",
          "amountBMin": "- The minimum amount of tokenB that must be received for the transaction not to revert.",
          "lpPair": "- LP pool to withdraw from.",
          "recipient": "- The address which will receive tokens."
        },
        "returns": {
          "amountA": "- Token A amount sent to the {recipient}",
          "amountB": "- Token B amount sent to the {recipient}"
        }
      },
      "withdrawETH(address,uint256,uint256,uint256,address)": {
        "details": "Autoconverts WMATIC into MATIC and withdraws tokens from the pool. Emits a {Withdraw} event.",
        "params": {
          "amount": "- LP amount to withdraw. ",
          "amountETHMin": "- The minimum amount of MATIC that must be received for the transaction not to revert.",
          "amountTokenMin": "- The minimum amount of token that must be received for the transaction not to revert.",
          "lpPair": "- LP pool to withdraw from.",
          "recipient": "- The address which will receive tokens."
        },
        "returns": {
          "amountETH": "- MATIC amount sent to the {recipient}.",
          "amountToken": "- Token amount sent to the {recipient}."
        }
      },
      "withdrawLP(address,uint256,address)": {
        "details": "Withdraws LP tokens from the given pool. Emits a {Withdraw} event.",
        "params": {
          "amount": "- LP amount to withdraw. ",
          "lpPair": "- LP pool to withdraw from.",
          "recipient": "- The address which will receive tokens."
        }
      },
      "withdrawWithSwap(address,uint256,bytes[2],address)": {
        "details": "Withdraws tokens from the given pool and swap them using 1inch. Emits a {Withdraw} event. Note: If there are any tokens left to be withdrawn after swaps they will be sent to the {{recipient}} in a respective token.",
        "params": {
          "amount": "- LP amount to withdraw. ",
          "lpPair": "- LP pool to withdraw from.",
          "recipient": "- The address which will receive tokens.",
          "swapData": "- Parameters with which 1inch router is being called with."
        },
        "returns": {
          "amount0": "- Tokens sent to the {recipient} from the {swapData[0]}.",
          "amount1": "- Tokens sent to the {recipient} from the {swapData[1]}.",
          "amountA": "- TokenA dust sent to the {recipient}.",
          "amountB": "- TokenB dust to the {recipient}."
        }
      }
    },
    "stateVariables": {
      "farmFactory": {
        "details": "Contract Variables: farmFactory - The contract that deploys new Farms and links them to {lpPair}s. accessManager - Role manager contract."
      }
    },
    "version": 1
  },
  "userdoc": {
    "kind": "user",
    "methods": {},
    "version": 1
  }
}