{
  "contractName": "UnoAutoStrategy",
  "abi": [
    {
      "anonymous": false,
      "inputs": [
        {
          "indexed": true,
          "internalType": "address",
          "name": "owner",
          "type": "address"
        },
        {
          "indexed": true,
          "internalType": "address",
          "name": "spender",
          "type": "address"
        },
        {
          "indexed": false,
          "internalType": "uint256",
          "name": "value",
          "type": "uint256"
        }
      ],
      "name": "Approval",
      "type": "event"
    },
    {
      "anonymous": false,
      "inputs": [
        {
          "indexed": true,
          "internalType": "uint256",
          "name": "poolID",
          "type": "uint256"
        },
        {
          "indexed": true,
          "internalType": "address",
          "name": "from",
          "type": "address"
        },
        {
          "indexed": true,
          "internalType": "address",
          "name": "recipient",
          "type": "address"
        },
        {
          "indexed": false,
          "internalType": "uint256",
          "name": "amountA",
          "type": "uint256"
        },
        {
          "indexed": false,
          "internalType": "uint256",
          "name": "amountB",
          "type": "uint256"
        }
      ],
      "name": "Deposit",
      "type": "event"
    },
    {
      "anonymous": false,
      "inputs": [
        {
          "indexed": false,
          "internalType": "uint8",
          "name": "version",
          "type": "uint8"
        }
      ],
      "name": "Initialized",
      "type": "event"
    },
    {
      "anonymous": false,
      "inputs": [
        {
          "indexed": true,
          "internalType": "uint256",
          "name": "previousPoolID",
          "type": "uint256"
        },
        {
          "indexed": true,
          "internalType": "uint256",
          "name": "nextPoolID",
          "type": "uint256"
        }
      ],
      "name": "MoveLiquidity",
      "type": "event"
    },
    {
      "anonymous": false,
      "inputs": [
        {
          "indexed": true,
          "internalType": "address",
          "name": "from",
          "type": "address"
        },
        {
          "indexed": true,
          "internalType": "address",
          "name": "to",
          "type": "address"
        },
        {
          "indexed": false,
          "internalType": "uint256",
          "name": "value",
          "type": "uint256"
        }
      ],
      "name": "Transfer",
      "type": "event"
    },
    {
      "anonymous": false,
      "inputs": [
        {
          "indexed": true,
          "internalType": "uint256",
          "name": "poolID",
          "type": "uint256"
        },
        {
          "indexed": true,
          "internalType": "address",
          "name": "from",
          "type": "address"
        },
        {
          "indexed": true,
          "internalType": "address",
          "name": "recipient",
          "type": "address"
        },
        {
          "indexed": false,
          "internalType": "uint256",
          "name": "amountA",
          "type": "uint256"
        },
        {
          "indexed": false,
          "internalType": "uint256",
          "name": "amountB",
          "type": "uint256"
        }
      ],
      "name": "Withdraw",
      "type": "event"
    },
    {
      "inputs": [],
      "name": "accessManager",
      "outputs": [
        {
          "internalType": "contract IUnoAccessManager",
          "name": "",
          "type": "address"
        }
      ],
      "stateMutability": "view",
      "type": "function"
    },
    {
      "inputs": [
        {
          "internalType": "address",
          "name": "owner",
          "type": "address"
        },
        {
          "internalType": "address",
          "name": "spender",
          "type": "address"
        }
      ],
      "name": "allowance",
      "outputs": [
        {
          "internalType": "uint256",
          "name": "",
          "type": "uint256"
        }
      ],
      "stateMutability": "view",
      "type": "function"
    },
    {
      "inputs": [
        {
          "internalType": "address",
          "name": "spender",
          "type": "address"
        },
        {
          "internalType": "uint256",
          "name": "amount",
          "type": "uint256"
        }
      ],
      "name": "approve",
      "outputs": [
        {
          "internalType": "bool",
          "name": "",
          "type": "bool"
        }
      ],
      "stateMutability": "nonpayable",
      "type": "function"
    },
    {
      "inputs": [
        {
          "internalType": "address",
          "name": "account",
          "type": "address"
        }
      ],
      "name": "balanceOf",
      "outputs": [
        {
          "internalType": "uint256",
          "name": "",
          "type": "uint256"
        }
      ],
      "stateMutability": "view",
      "type": "function"
    },
    {
      "inputs": [],
      "name": "decimals",
      "outputs": [
        {
          "internalType": "uint8",
          "name": "",
          "type": "uint8"
        }
      ],
      "stateMutability": "view",
      "type": "function"
    },
    {
      "inputs": [
        {
          "internalType": "address",
          "name": "spender",
          "type": "address"
        },
        {
          "internalType": "uint256",
          "name": "subtractedValue",
          "type": "uint256"
        }
      ],
      "name": "decreaseAllowance",
      "outputs": [
        {
          "internalType": "bool",
          "name": "",
          "type": "bool"
        }
      ],
      "stateMutability": "nonpayable",
      "type": "function"
    },
    {
      "inputs": [],
      "name": "factory",
      "outputs": [
        {
          "internalType": "contract IUnoAutoStrategyFactory",
          "name": "",
          "type": "address"
        }
      ],
      "stateMutability": "view",
      "type": "function"
    },
    {
      "inputs": [
        {
          "internalType": "address",
          "name": "spender",
          "type": "address"
        },
        {
          "internalType": "uint256",
          "name": "addedValue",
          "type": "uint256"
        }
      ],
      "name": "increaseAllowance",
      "outputs": [
        {
          "internalType": "bool",
          "name": "",
          "type": "bool"
        }
      ],
      "stateMutability": "nonpayable",
      "type": "function"
    },
    {
      "inputs": [],
      "name": "name",
      "outputs": [
        {
          "internalType": "string",
          "name": "",
          "type": "string"
        }
      ],
      "stateMutability": "view",
      "type": "function"
    },
    {
      "inputs": [],
      "name": "poolID",
      "outputs": [
        {
          "internalType": "uint256",
          "name": "",
          "type": "uint256"
        }
      ],
      "stateMutability": "view",
      "type": "function"
    },
    {
      "inputs": [
        {
          "internalType": "uint256",
          "name": "",
          "type": "uint256"
        }
      ],
      "name": "pools",
      "outputs": [
        {
          "internalType": "address",
          "name": "pool",
          "type": "address"
        },
        {
          "internalType": "contract IUnoAssetRouter",
          "name": "assetRouter",
          "type": "address"
        },
        {
          "internalType": "contract IERC20Upgradeable",
          "name": "tokenA",
          "type": "address"
        },
        {
          "internalType": "contract IERC20Upgradeable",
          "name": "tokenB",
          "type": "address"
        }
      ],
      "stateMutability": "view",
      "type": "function"
    },
    {
      "inputs": [],
      "name": "symbol",
      "outputs": [
        {
          "internalType": "string",
          "name": "",
          "type": "string"
        }
      ],
      "stateMutability": "view",
      "type": "function"
    },
    {
      "inputs": [],
      "name": "totalSupply",
      "outputs": [
        {
          "internalType": "uint256",
          "name": "",
          "type": "uint256"
        }
      ],
      "stateMutability": "view",
      "type": "function"
    },
    {
      "inputs": [
        {
          "internalType": "address",
          "name": "to",
          "type": "address"
        },
        {
          "internalType": "uint256",
          "name": "amount",
          "type": "uint256"
        }
      ],
      "name": "transfer",
      "outputs": [
        {
          "internalType": "bool",
          "name": "",
          "type": "bool"
        }
      ],
      "stateMutability": "nonpayable",
      "type": "function"
    },
    {
      "inputs": [
        {
          "internalType": "address",
          "name": "from",
          "type": "address"
        },
        {
          "internalType": "address",
          "name": "to",
          "type": "address"
        },
        {
          "internalType": "uint256",
          "name": "amount",
          "type": "uint256"
        }
      ],
      "name": "transferFrom",
      "outputs": [
        {
          "internalType": "bool",
          "name": "",
          "type": "bool"
        }
      ],
      "stateMutability": "nonpayable",
      "type": "function"
    },
    {
      "inputs": [
        {
          "components": [
            {
              "internalType": "address",
              "name": "pool",
              "type": "address"
            },
            {
              "internalType": "contract IUnoAssetRouter",
              "name": "assetRouter",
              "type": "address"
            }
          ],
          "internalType": "struct UnoAutoStrategy._PoolInfo[]",
          "name": "poolInfos",
          "type": "tuple[]"
        },
        {
          "internalType": "contract IUnoAccessManager",
          "name": "_accessManager",
          "type": "address"
        }
      ],
      "name": "initialize",
      "outputs": [],
      "stateMutability": "nonpayable",
      "type": "function"
    },
    {
      "inputs": [
        {
          "internalType": "uint256",
          "name": "pid",
          "type": "uint256"
        },
        {
          "internalType": "uint256",
          "name": "amountA",
          "type": "uint256"
        },
        {
          "internalType": "uint256",
          "name": "amountB",
          "type": "uint256"
        },
        {
          "internalType": "uint256",
          "name": "amountAMin",
          "type": "uint256"
        },
        {
          "internalType": "uint256",
          "name": "amountBMin",
          "type": "uint256"
        },
        {
          "internalType": "address",
          "name": "recipient",
          "type": "address"
        }
      ],
      "name": "deposit",
      "outputs": [
        {
          "internalType": "uint256",
          "name": "sentA",
          "type": "uint256"
        },
        {
          "internalType": "uint256",
          "name": "sentB",
          "type": "uint256"
        },
        {
          "internalType": "uint256",
          "name": "liquidity",
          "type": "uint256"
        }
      ],
      "stateMutability": "nonpayable",
      "type": "function"
    },
    {
      "inputs": [
        {
          "internalType": "uint256",
          "name": "pid",
          "type": "uint256"
        },
        {
          "internalType": "uint256",
          "name": "liquidity",
          "type": "uint256"
        },
        {
          "internalType": "uint256",
          "name": "amountAMin",
          "type": "uint256"
        },
        {
          "internalType": "uint256",
          "name": "amountBMin",
          "type": "uint256"
        },
        {
          "internalType": "address",
          "name": "recipient",
          "type": "address"
        }
      ],
      "name": "withdraw",
      "outputs": [
        {
          "internalType": "uint256",
          "name": "amountA",
          "type": "uint256"
        },
        {
          "internalType": "uint256",
          "name": "amountB",
          "type": "uint256"
        }
      ],
      "stateMutability": "nonpayable",
      "type": "function"
    },
    {
      "inputs": [
        {
          "internalType": "uint256",
          "name": "_poolID",
          "type": "uint256"
        },
        {
          "internalType": "bytes",
          "name": "swapAData",
          "type": "bytes"
        },
        {
          "internalType": "bytes",
          "name": "swapBData",
          "type": "bytes"
        },
        {
          "internalType": "uint256",
          "name": "amountAMin",
          "type": "uint256"
        },
        {
          "internalType": "uint256",
          "name": "amountBMin",
          "type": "uint256"
        }
      ],
      "name": "moveLiquidity",
      "outputs": [],
      "stateMutability": "nonpayable",
      "type": "function"
    },
    {
      "inputs": [
        {
          "internalType": "address",
          "name": "_address",
          "type": "address"
        }
      ],
      "name": "userStake",
      "outputs": [
        {
          "internalType": "uint256",
          "name": "stakeA",
          "type": "uint256"
        },
        {
          "internalType": "uint256",
          "name": "stakeB",
          "type": "uint256"
        },
        {
          "internalType": "uint256",
          "name": "leftoverA",
          "type": "uint256"
        },
        {
          "internalType": "uint256",
          "name": "leftoverB",
          "type": "uint256"
        }
      ],
      "stateMutability": "view",
      "type": "function"
    },
    {
      "inputs": [],
      "name": "totalDeposits",
      "outputs": [
        {
          "internalType": "uint256",
          "name": "totalDepositsA",
          "type": "uint256"
        },
        {
          "internalType": "uint256",
          "name": "totalDepositsB",
          "type": "uint256"
        }
      ],
      "stateMutability": "view",
      "type": "function"
    },
    {
      "inputs": [],
      "name": "poolsLength",
      "outputs": [
        {
          "internalType": "uint256",
          "name": "",
          "type": "uint256"
        }
      ],
      "stateMutability": "view",
      "type": "function"
    },
    {
      "inputs": [],
      "name": "tokens",
      "outputs": [
        {
          "internalType": "address",
          "name": "",
          "type": "address"
        },
        {
          "internalType": "address",
          "name": "",
          "type": "address"
        }
      ],
      "stateMutability": "view",
      "type": "function"
    }
  ],
  "bytecode": "0x608060405234801561001057600080fd5b50613fa3806100206000396000f3fe608060405234801561001057600080fd5b506004361061014d5760003560e01c80637d882097116100c3578063a9059cbb1161007c578063a9059cbb146102eb578063ac4afa38146102fe578063c45a015514610344578063d473a6541461036f578063dd62ed3e14610382578063fdcb60681461039557600080fd5b80637d882097146102665780638d934485146102835780639130700e1461028c57806395d89b41146102ba5780639d63848a146102c2578063a457c2d7146102d857600080fd5b8063313ce56711610115578063313ce567146101c057806339509351146101cf578063668393c7146101e257806368e5585d146101f757806370a082311461022a57806374552fb61461025357600080fd5b806306fdde0314610152578063095ea7b31461017057806318160ddd1461019357806323b872dd146101a55780632716ae66146101b8575b600080fd5b61015a6103a8565b604051610167919061330e565b60405180910390f35b61018361017e366004613339565b61043a565b6040519015158152602001610167565b6035545b604051908152602001610167565b6101836101b3366004613365565b610452565b609854610197565b60405160128152602001610167565b6101836101dd366004613339565b610478565b6101f56101f03660046133ee565b61049a565b005b61020a610205366004613476565b61112c565b604080519485526020850193909352918301526060820152608001610167565b610197610238366004613476565b6001600160a01b031660009081526033602052604090205490565b6101f5610261366004613493565b611345565b61026e611a37565b60408051928352602083019190915201610167565b61019760975481565b61029f61029a366004613518565b611c02565b60408051938452602084019290925290820152606001610167565b61015a611eaf565b6102ca611ebe565b60405161016792919061356d565b6101836102e6366004613339565b611f38565b6101836102f9366004613339565b611fbe565b61031161030c366004613587565b611fcc565b604080516001600160a01b0395861681529385166020850152918416918301919091529091166060820152608001610167565b60a154610357906001600160a01b031681565b6040516001600160a01b039091168152602001610167565b61026e61037d3660046135a0565b612016565b6101976103903660046135ed565b612278565b60a054610357906001600160a01b031681565b6060603680546103b790613626565b80601f01602080910402602001604051908101604052809291908181526020018280546103e390613626565b80156104305780601f1061040557610100808354040283529160200191610430565b820191906000526020600020905b81548152906001019060200180831161041357829003601f168201915b5050505050905090565b6000336104488185856122a3565b5060019392505050565b6000336104608582856123c7565b61046b85858561243b565b60019150505b9392505050565b60003361044881858561048b8383612278565b6104959190613677565b6122a3565b60a160009054906101000a90046001600160a01b03166001600160a01b0316635c975abb6040518163ffffffff1660e01b8152600401602060405180830381865afa1580156104ed573d6000803e3d6000fd5b505050506040513d601f19601f82011682018060405250810190610511919061368f565b156105375760405162461bcd60e51b815260040161052e906136b1565b60405180910390fd5b6002606554141561055a5760405162461bcd60e51b815260040161052e906136db565b600260655560a054604051632474521560e21b81527f77e60b99a50d27fb027f6912a507d956105b4148adab27a86d235c8bcca8fa2f60048201523360248201526001600160a01b03909116906391d1485490604401602060405180830381865afa1580156105cd573d6000803e3d6000fd5b505050506040513d601f19601f820116820180604052508101906105f1919061368f565b61063d5760405162461bcd60e51b815260206004820152601c60248201527f43414c4c45525f4e4f545f4c49515549444954595f4d414e4147455200000000604482015260640161052e565b60355461067b5760405162461bcd60e51b815260206004820152600c60248201526b4e4f5f4c495155494449545960a01b604482015260640161052e565b609d544314156106cd5760405162461bcd60e51b815260206004820152601b60248201527f43414e545f43414c4c5f4f4e5f5448455f53414d455f424c4f434b0000000000604482015260640161052e565b609854871080156106e057506097548714155b6106fc5760405162461bcd60e51b815260040161052e90613712565b600060986097548154811061071357610713613737565b6000918252602080832060408051608081018252600490940290910180546001600160a01b039081168552600182015481169385019390935260028101548316918401919091526003015416606082015260988054919350908a90811061077c5761077c613737565b6000918252602080832060408051608081018252600494850290920180546001600160a01b039081168452600182015481168486015260028201548116848401526003909101548116606084015292870151875191516328dee51f60e11b8152929650909216926351bdca3e926107f59230920161356d565b606060405180830381865afa158015610812573d6000803e3d6000fd5b505050506040513d601f19601f82011682018060405250810190610836919061374d565b505060208401518451604051630f62d51f60e11b81529293506001600160a01b0390911691631ec5aa3e9161087891859060009081908190309060040161377b565b60408051808303816000875af1158015610896573d6000803e3d6000fd5b505050506040513d601f19601f820116820180604052508101906108ba91906137b5565b505060408084015190516370a0823160e01b81523060048201526000916001600160a01b0316906370a0823190602401602060405180830381865afa158015610907573d6000803e3d6000fd5b505050506040513d601f19601f8201168201806040525081019061092b91906137d9565b60608501516040516370a0823160e01b81523060048201529192506000916001600160a01b03909116906370a0823190602401602060405180830381865afa15801561097b573d6000803e3d6000fd5b505050506040513d601f19601f8201168201806040525081019061099f91906137d9565b905083604001516001600160a01b031685604001516001600160a01b031614610c065760008060008060008f8f60049080926109dd939291906137f2565b8101906109ea91906139f4565b955095509550509450945084516001148015610a07575083516001145b610a535760405162461bcd60e51b815260206004820152601860248201527f4241445f535741505f415f544f4b454e535f4c454e4754480000000000000000604482015260640161052e565b89604001516001600160a01b031685600081518110610a7457610a74613737565b6020026020010151600001516001600160a01b031614610acf5760405162461bcd60e51b81526020600482015260166024820152752120a22fa9aba0a82fa0afa4a7282aaa2faa27a5a2a760511b604482015260640161052e565b88604001516001600160a01b031684600081518110610af057610af0613737565b6020026020010151600001516001600160a01b031614610b525760405162461bcd60e51b815260206004820152601760248201527f4241445f535741505f415f4f55545055545f544f4b454e000000000000000000604482015260640161052e565b8685600081518110610b6657610b66613737565b60209081029190910181015101526040516378bd22a360e11b815273a32ee1c40594249eb3183c10792bcf573d4da47c9063f17a454690610bb7908890889060001990899089908990600401613bfb565b6000604051808303816000875af1158015610bd6573d6000803e3d6000fd5b505050506040513d6000823e601f3d908101601f19168201604052610bfe9190810190613ce2565b505050505050505b83606001516001600160a01b031685606001516001600160a01b031614610e6b5760008060008060008d8d6004908092610c42939291906137f2565b810190610c4f91906139f4565b955095509550509450945084516001148015610c6c575083516001145b610cb85760405162461bcd60e51b815260206004820152601860248201527f4241445f535741505f425f544f4b454e535f4c454e4754480000000000000000604482015260640161052e565b89606001516001600160a01b031685600081518110610cd957610cd9613737565b6020026020010151600001516001600160a01b031614610d345760405162461bcd60e51b81526020600482015260166024820152752120a22fa9aba0a82fa12fa4a7282aaa2faa27a5a2a760511b604482015260640161052e565b88606001516001600160a01b031684600081518110610d5557610d55613737565b6020026020010151600001516001600160a01b031614610db75760405162461bcd60e51b815260206004820152601760248201527f4241445f535741505f425f4f55545055545f544f4b454e000000000000000000604482015260640161052e565b8585600081518110610dcb57610dcb613737565b60209081029190910181015101526040516378bd22a360e11b815273a32ee1c40594249eb3183c10792bcf573d4da47c9063f17a454690610e1c908890889060001990899089908990600401613bfb565b6000604051808303816000875af1158015610e3b573d6000803e3d6000fd5b505050506040513d6000823e601f3d908101601f19168201604052610e639190810190613ce2565b505050505050505b6020840151845160408087015190516370a0823160e01b81523060048201526001600160a01b039384169363f441f73c939216906370a0823190602401602060405180830381865afa158015610ec5573d6000803e3d6000fd5b505050506040513d601f19601f82011682018060405250810190610ee991906137d9565b60608801516040516370a0823160e01b81523060048201526001600160a01b03909116906370a0823190602401602060405180830381865afa158015610f33573d6000803e3d6000fd5b505050506040513d601f19601f82011682018060405250810190610f5791906137d9565b8b8b6000306040518863ffffffff1660e01b8152600401610f7e9796959493929190613d7a565b6060604051808303816000875af1158015610f9d573d6000803e3d6000fd5b505050506040513d601f19601f82011682018060405250810190610fc1919061374d565b60995550506040805160808101808352918601516370a0823160e01b9092523060848201529081906001600160a01b03166370a0823160a48301602060405180830381865afa158015611018573d6000803e3d6000fd5b505050506040513d601f19601f8201168201806040525081019061103c91906137d9565b815260608601516040516370a0823160e01b81523060048201526020909201916001600160a01b03909116906370a0823190602401602060405180830381865afa15801561108e573d6000803e3d6000fd5b505050506040513d601f19601f820116820180604052508101906110b291906137d9565b81526020016110c060355490565b8152436020918201528151609a55810151609b55604080820151609c55606090910151609d5560975490518d91907faf62d6e59ad2e54c778a490827e6cb28b1d30794092c7367fdbb261b11de033690600090a350505060979890985550506001606555505050505050565b600080600080600060986097548154811061114957611149613737565b6000918252602080832060408051608081018252600494850290920180546001600160a01b0390811680855260018301548216958501869052600283015482168585015260039092015416606084015290516328dee51f60e11b815291955084936351bdca3e926111be92309290910161356d565b606060405180830381865afa1580156111db573d6000803e3d6000fd5b505050506040513d601f19601f820116820180604052508101906111ff919061374d565b92509250506000611225896001600160a01b031660009081526033602052604090205490565b9050801561133a57600061123860355490565b9050806112458584613db7565b61124f9190613dd6565b98508061125c8484613db7565b6112669190613dd6565b336000908152609f60209081526040808320609d54845290915290205490985060ff161580156112975750609c5415155b1561133857609c54609a546001600160a01b038c166000908152609e60209081526040808320609d5484529091529020546112d29085613df8565b6112dc9190613db7565b6112e69190613dd6565b609c54609b546001600160a01b038d166000908152609e60209081526040808320609d54845290915290205492995090916113219085613df8565b61132b9190613db7565b6113359190613dd6565b95505b505b505050509193509193565b60006113516001612614565b90508015611369576000805461ff0019166101001790555b6002831080159061137b575060328311155b6113b85760405162461bcd60e51b815260206004820152600e60248201526d10905117d413d3d317d0d3d5539560921b604482015260640161052e565b6114086040518060400160405280601081526020016f554e4f2d4175746f537472617465677960801b815250604051806040016040528060068152602001650554e4f2d4c560d41b8152506126a1565b6114106126d6565b60005b838110156119bd57600085858381811061142f5761142f613737565b90506040020160200160208101906114479190613476565b6001600160a01b031663450efe2187878581811061146757611467613737565b61147d9260206040909202019081019150613476565b6040516001600160e01b031960e084901b1681526001600160a01b039091166004820152602401600060405180830381865afa1580156114c1573d6000803e3d6000fd5b505050506040513d6000823e601f3d908101601f191682016040526114e99190810190613e0f565b90506000604051806080016040528088888681811061150a5761150a613737565b6115209260206040909202019081019150613476565b6001600160a01b0316815260200188888681811061154057611540613737565b90506040020160200160208101906115589190613476565b6001600160a01b031681526020018360008151811061157957611579613737565b60200260200101516001600160a01b03168152602001836001815181106115a2576115a2613737565b6020908102919091018101516001600160a01b0390811690925260988054600181018255600091909152835160049182027f2237a976fa961f5921fd19f2b03c925c725d77b20ce8f790c19709c03de4d814810180549286166001600160a01b0319938416179055928501517f2237a976fa961f5921fd19f2b03c925c725d77b20ce8f790c19709c03de4d815840180548287169084161790556040808701517f2237a976fa961f5921fd19f2b03c925c725d77b20ce8f790c19709c03de4d816860180549188169185168217905560608801517f2237a976fa961f5921fd19f2b03c925c725d77b20ce8f790c19709c03de4d81790960180549690971695909316949094179094559151636eb1769f60e11b8152939450909263dd62ed3e926116ce9230920161356d565b602060405180830381865afa1580156116eb573d6000803e3d6000fd5b505050506040513d601f19601f8201168201806040525081019061170f91906137d9565b61182057604080820151905163095ea7b360e01b815273a32ee1c40594249eb3183c10792bcf573d4da47c600482015260001960248201526001600160a01b039091169063095ea7b3906044016020604051808303816000875af115801561177b573d6000803e3d6000fd5b505050506040513d601f19601f8201168201806040525081019061179f919061368f565b506040808201516020830151915163095ea7b360e01b81526001600160a01b039283166004820152600019602482015291169063095ea7b3906044016020604051808303816000875af11580156117fa573d6000803e3d6000fd5b505050506040513d601f19601f8201168201806040525081019061181e919061368f565b505b80606001516001600160a01b031663dd62ed3e3083602001516040518363ffffffff1660e01b815260040161185692919061356d565b602060405180830381865afa158015611873573d6000803e3d6000fd5b505050506040513d601f19601f8201168201806040525081019061189791906137d9565b6119a857606081015160405163095ea7b360e01b815273a32ee1c40594249eb3183c10792bcf573d4da47c600482015260001960248201526001600160a01b039091169063095ea7b3906044016020604051808303816000875af1158015611903573d6000803e3d6000fd5b505050506040513d601f19601f82011682018060405250810190611927919061368f565b506060810151602082015160405163095ea7b360e01b81526001600160a01b039182166004820152600019602482015291169063095ea7b3906044016020604051808303816000875af1158015611982573d6000803e3d6000fd5b505050506040513d601f19601f820116820180604052508101906119a6919061368f565b505b505080806119b590613e9d565b915050611413565b5060a080546001600160a01b0384166001600160a01b03199182161790915543609d5560a18054909116331790558015611a31576000805461ff0019169055604051600181527f7f26b83ff96e1f2b6a682f133852f6798a09c465da95921460cefb38474024989060200160405180910390a15b50505050565b6000806000609860975481548110611a5157611a51613737565b600091825260209182902060408051608081018252600493840290920180546001600160a01b0390811680855260018301548216968501879052600283015482168585015260039092015416606084015290516328dee51f60e11b81529194506351bdca3e92611ac4923092910161356d565b606060405180830381865afa158015611ae1573d6000803e3d6000fd5b505050506040513d601f19601f82011682018060405250810190611b05919061374d565b60408481015190516370a0823160e01b81523060048201529296509094506001600160a01b031691506370a0823190602401602060405180830381865afa158015611b54573d6000803e3d6000fd5b505050506040513d601f19601f82011682018060405250810190611b7891906137d9565b611b829084613677565b60608201516040516370a0823160e01b81523060048201529194506001600160a01b0316906370a0823190602401602060405180830381865afa158015611bcd573d6000803e3d6000fd5b505050506040513d601f19601f82011682018060405250810190611bf191906137d9565b611bfb9083613677565b9150509091565b600080600060a160009054906101000a90046001600160a01b03166001600160a01b0316635c975abb6040518163ffffffff1660e01b8152600401602060405180830381865afa158015611c5a573d6000803e3d6000fd5b505050506040513d601f19601f82011682018060405250810190611c7e919061368f565b15611c9b5760405162461bcd60e51b815260040161052e906136b1565b60026065541415611cbe5760405162461bcd60e51b815260040161052e906136db565b60026065556097548914611ce45760405162461bcd60e51b815260040161052e90613712565b6000609860975481548110611cfb57611cfb613737565b600091825260209182902060408051608081018252600490930290910180546001600160a01b0390811684526001820154811694840194909452600281015484169183018290526003015490921660608201529150611d5c9033308c612707565b6060810151611d76906001600160a01b031633308b612707565b60208101518151604051633d107dcf60e21b81526001600160a01b039092169163f441f73c91611db5918d908d908d908d906000903090600401613d7a565b6060604051808303816000875af1158015611dd4573d6000803e3d6000fd5b505050506040513d601f19601f82011682018060405250810190611df8919061374d565b509094509250611e0785612772565b9150611e2c33611e17868c613df8565b60408401516001600160a01b03169190612905565b611e4f33611e3a858b613df8565b60608401516001600160a01b03169190612905565b60975460408051868152602081018690526001600160a01b03881692339290917feb65d0f36862bbd8763c5e2c983c9d753267d223eee35a224d8d0a9d7ef433a2910160405180910390a450600160658190555096509650969350505050565b6060603780546103b790613626565b6000806000609860975481548110611ed857611ed8613737565b600091825260209182902060408051608081018252600490930290910180546001600160a01b0390811684526001820154811694840194909452600281015484169183018290526003015490921660609091018190529094909350915050565b60003381611f468286612278565b905083811015611fa65760405162461bcd60e51b815260206004820152602560248201527f45524332303a2064656372656173656420616c6c6f77616e63652062656c6f77604482015264207a65726f60d81b606482015260840161052e565b611fb382868684036122a3565b506001949350505050565b60003361044881858561243b565b60988181548110611fdc57600080fd5b600091825260209091206004909102018054600182015460028301546003909301546001600160a01b039283169450908216928216911684565b60008060a160009054906101000a90046001600160a01b03166001600160a01b0316635c975abb6040518163ffffffff1660e01b8152600401602060405180830381865afa15801561206c573d6000803e3d6000fd5b505050506040513d601f19601f82011682018060405250810190612090919061368f565b156120ad5760405162461bcd60e51b815260040161052e906136b1565b600260655414156120d05760405162461bcd60e51b815260040161052e906136db565b600260655560975487146120f65760405162461bcd60e51b815260040161052e90613712565b600060986097548154811061210d5761210d613737565b6000918252602080832060408051608081018252600490940290910180546001600160a01b039081168552600182015481169385019390935260028101548316918401919091526003015416606082015291508061216a8661293a565b9150915060006121798a612ad9565b60208501518551604051630f62d51f60e11b81529293506001600160a01b0390911691631ec5aa3e916121b99185908e908e906000908f9060040161377b565b60408051808303816000875af11580156121d7573d6000803e3d6000fd5b505050506040513d601f19601f820116820180604052508101906121fb91906137b5565b909650945061220a8387613677565b95506122168286613677565b60975460408051898152602081018490529297506001600160a01b038a16923392917ffe7813e2866053d5c3938554e517b554fce6666a6561bed9eaa7419b29fa9b68910160405180910390a450506001606555509197909650945050505050565b6001600160a01b03918216600090815260346020908152604080832093909416825291909152205490565b6001600160a01b0383166123055760405162461bcd60e51b8152602060048201526024808201527f45524332303a20617070726f76652066726f6d20746865207a65726f206164646044820152637265737360e01b606482015260840161052e565b6001600160a01b0382166123665760405162461bcd60e51b815260206004820152602260248201527f45524332303a20617070726f766520746f20746865207a65726f206164647265604482015261737360f01b606482015260840161052e565b6001600160a01b0383811660008181526034602090815260408083209487168084529482529182902085905590518481527f8c5be1e5ebec7d5bd14f71427d1e84f3dd0314c0f7b2291e5b200ac8c7c3b925910160405180910390a3505050565b60006123d38484612278565b90506000198114611a31578181101561242e5760405162461bcd60e51b815260206004820152601d60248201527f45524332303a20696e73756666696369656e7420616c6c6f77616e6365000000604482015260640161052e565b611a3184848484036122a3565b6001600160a01b03831661249f5760405162461bcd60e51b815260206004820152602560248201527f45524332303a207472616e736665722066726f6d20746865207a65726f206164604482015264647265737360d81b606482015260840161052e565b6001600160a01b0382166125015760405162461bcd60e51b815260206004820152602360248201527f45524332303a207472616e7366657220746f20746865207a65726f206164647260448201526265737360e81b606482015260840161052e565b61250c838383612c37565b6001600160a01b038316600090815260336020526040902054818110156125845760405162461bcd60e51b815260206004820152602660248201527f45524332303a207472616e7366657220616d6f756e7420657863656564732062604482015265616c616e636560d01b606482015260840161052e565b6001600160a01b038085166000908152603360205260408082208585039055918516815290812080548492906125bb908490613677565b92505081905550826001600160a01b0316846001600160a01b03167fddf252ad1be2c89b69c2b068fc378daa952ba7f163c4a11628f55a4df523b3ef8460405161260791815260200190565b60405180910390a3611a31565b60008054610100900460ff161561265b578160ff1660011480156126375750303b155b6126535760405162461bcd60e51b815260040161052e90613eb8565b506000919050565b60005460ff8084169116106126825760405162461bcd60e51b815260040161052e90613eb8565b506000805460ff191660ff92909216919091179055600190565b919050565b600054610100900460ff166126c85760405162461bcd60e51b815260040161052e90613f06565b6126d28282612d09565b5050565b600054610100900460ff166126fd5760405162461bcd60e51b815260040161052e90613f06565b612705612d57565b565b6040516001600160a01b0380851660248301528316604482015260648101829052611a319085906323b872dd60e01b906084015b60408051601f198184030181529190526020810180516001600160e01b03166001600160e01b031990931692909217909152612d85565b60008060986097548154811061278a5761278a613737565b6000918252602080832060408051608081018252600494850290920180546001600160a01b0390811680855260018301548216958501869052600283015482168585015260039092015416606084015290516328dee51f60e11b815291955091926351bdca3e926127fd9230920161356d565b606060405180830381865afa15801561281a573d6000803e3d6000fd5b505050506040513d601f19601f8201168201806040525081019061283e919061374d565b505090506000609954826128529190613df8565b9050600061285f60355490565b905080612886576128726103e883613df8565b945061288160016103e8612e57565b6128a0565b6099546128938284613db7565b61289d9190613dd6565b94505b600085116128f05760405162461bcd60e51b815260206004820152601d60248201527f494e53554646494349454e545f4c49515549444954595f4d494e544544000000604482015260640161052e565b6128fa8686612e57565b505060995550919050565b6040516001600160a01b03831660248201526044810182905261293590849063a9059cbb60e01b9060640161273b565b505050565b336000908152609f60209081526040808320609d548452909152812054819060ff16612ad457609c5415612aac57600060986097548154811061297f5761297f613737565b600091825260208083206040805160808101825260049490940290910180546001600160a01b03908116855260018201548116858501526002820154811685840152600390910154166060840152609c54609a5433808752609e8552838720609d5488528552838720549087526033909452919094205492945091612a049190613df8565b612a0e9190613db7565b612a189190613dd6565b609c54609b54336000818152609e60209081526040808320609d548452825280832054938352603390915290205493965091929091612a5691613df8565b612a609190613db7565b612a6a9190613dd6565b91508215612a8b576040810151612a8b906001600160a01b03168585612905565b8115612aaa576060810151612aaa906001600160a01b03168584612905565b505b336000908152609f60209081526040808320609d5484529091529020805460ff191660011790555b915091565b600080609860975481548110612af157612af1613737565b6000918252602080832060408051608081018252600494850290920180546001600160a01b0390811680855260018301548216958501869052600283015482168585015260039092015416606084015290516328dee51f60e11b815291955091926351bdca3e92612b649230920161356d565b606060405180830381865afa158015612b81573d6000803e3d6000fd5b505050506040513d601f19601f82011682018060405250810190612ba5919061374d565b50509050612bb260355490565b612bbc8286613db7565b612bc69190613dd6565b925060008311612c185760405162461bcd60e51b815260206004820152601d60248201527f494e53554646494349454e545f4c49515549444954595f4255524e4544000000604482015260640161052e565b612c223385612f42565b612c2c8382613df8565b609955509092915050565b6001600160a01b0383166000908152609e60209081526040808320609d548452909152902054811115612c8f576001600160a01b0383166000908152609e60209081526040808320609d548452909152812055612cca565b6001600160a01b0383166000908152609e60209081526040808320609d54845290915281208054839290612cc4908490613df8565b90915550505b6001600160a01b0382166000908152609e60209081526040808320609d54845290915281208054839290612cff908490613677565b9091555050505050565b600054610100900460ff16612d305760405162461bcd60e51b815260040161052e90613f06565b8151612d4390603690602085019061321d565b50805161293590603790602084019061321d565b600054610100900460ff16612d7e5760405162461bcd60e51b815260040161052e90613f06565b6001606555565b6000612dda826040518060400160405280602081526020017f5361666545524332303a206c6f772d6c6576656c2063616c6c206661696c6564815250856001600160a01b031661309c9092919063ffffffff16565b8051909150156129355780806020019051810190612df8919061368f565b6129355760405162461bcd60e51b815260206004820152602a60248201527f5361666545524332303a204552433230206f7065726174696f6e20646964206e6044820152691bdd081cdd58d8d9595960b21b606482015260840161052e565b6001600160a01b038216612ead5760405162461bcd60e51b815260206004820152601f60248201527f45524332303a206d696e7420746f20746865207a65726f206164647265737300604482015260640161052e565b612eb960008383612c37565b8060356000828254612ecb9190613677565b90915550506001600160a01b03821660009081526033602052604081208054839290612ef8908490613677565b90915550506040518181526001600160a01b038316906000907fddf252ad1be2c89b69c2b068fc378daa952ba7f163c4a11628f55a4df523b3ef9060200160405180910390a35050565b6001600160a01b038216612fa25760405162461bcd60e51b815260206004820152602160248201527f45524332303a206275726e2066726f6d20746865207a65726f206164647265736044820152607360f81b606482015260840161052e565b612fae82600083612c37565b6001600160a01b038216600090815260336020526040902054818110156130225760405162461bcd60e51b815260206004820152602260248201527f45524332303a206275726e20616d6f756e7420657863656564732062616c616e604482015261636560f01b606482015260840161052e565b6001600160a01b0383166000908152603360205260408120838303905560358054849290613051908490613df8565b90915550506040518281526000906001600160a01b038516907fddf252ad1be2c89b69c2b068fc378daa952ba7f163c4a11628f55a4df523b3ef9060200160405180910390a3505050565b60606130ab84846000856130b3565b949350505050565b6060824710156131145760405162461bcd60e51b815260206004820152602660248201527f416464726573733a20696e73756666696369656e742062616c616e636520666f6044820152651c8818d85b1b60d21b606482015260840161052e565b6001600160a01b0385163b61316b5760405162461bcd60e51b815260206004820152601d60248201527f416464726573733a2063616c6c20746f206e6f6e2d636f6e7472616374000000604482015260640161052e565b600080866001600160a01b031685876040516131879190613f51565b60006040518083038185875af1925050503d80600081146131c4576040519150601f19603f3d011682016040523d82523d6000602084013e6131c9565b606091505b50915091506131d98282866131e4565b979650505050505050565b606083156131f3575081610471565b8251156132035782518084602001fd5b8160405162461bcd60e51b815260040161052e919061330e565b82805461322990613626565b90600052602060002090601f01602090048101928261324b5760008555613291565b82601f1061326457805160ff1916838001178555613291565b82800160010185558215613291579182015b82811115613291578251825591602001919060010190613276565b5061329d9291506132a1565b5090565b5b8082111561329d57600081556001016132a2565b60005b838110156132d15781810151838201526020016132b9565b83811115611a315750506000910152565b600081518084526132fa8160208601602086016132b6565b601f01601f19169290920160200192915050565b60208152600061047160208301846132e2565b6001600160a01b038116811461333657600080fd5b50565b6000806040838503121561334c57600080fd5b823561335781613321565b946020939093013593505050565b60008060006060848603121561337a57600080fd5b833561338581613321565b9250602084013561339581613321565b929592945050506040919091013590565b60008083601f8401126133b857600080fd5b5081356001600160401b038111156133cf57600080fd5b6020830191508360208285010111156133e757600080fd5b9250929050565b600080600080600080600060a0888a03121561340957600080fd5b8735965060208801356001600160401b038082111561342757600080fd5b6134338b838c016133a6565b909850965060408a013591508082111561344c57600080fd5b506134598a828b016133a6565b989b979a5095989597966060870135966080013595509350505050565b60006020828403121561348857600080fd5b813561047181613321565b6000806000604084860312156134a857600080fd5b83356001600160401b03808211156134bf57600080fd5b818601915086601f8301126134d357600080fd5b8135818111156134e257600080fd5b8760208260061b85010111156134f757600080fd5b6020928301955093505084013561350d81613321565b809150509250925092565b60008060008060008060c0878903121561353157600080fd5b863595506020870135945060408701359350606087013592506080870135915060a087013561355f81613321565b809150509295509295509295565b6001600160a01b0392831681529116602082015260400190565b60006020828403121561359957600080fd5b5035919050565b600080600080600060a086880312156135b857600080fd5b8535945060208601359350604086013592506060860135915060808601356135df81613321565b809150509295509295909350565b6000806040838503121561360057600080fd5b823561360b81613321565b9150602083013561361b81613321565b809150509250929050565b600181811c9082168061363a57607f821691505b6020821081141561365b57634e487b7160e01b600052602260045260246000fd5b50919050565b634e487b7160e01b600052601160045260246000fd5b6000821982111561368a5761368a613661565b500190565b6000602082840312156136a157600080fd5b8151801515811461047157600080fd5b60208082526010908201526f14105554d05093114e8814105554d15160821b604082015260600190565b6020808252601f908201527f5265656e7472616e637947756172643a207265656e7472616e742063616c6c00604082015260600190565b6020808252600b908201526a10905117d413d3d317d25160aa1b604082015260600190565b634e487b7160e01b600052603260045260246000fd5b60008060006060848603121561376257600080fd5b8351925060208401519150604084015190509250925092565b6001600160a01b0396871681526020810195909552604085019390935260608401919091521515608083015290911660a082015260c00190565b600080604083850312156137c857600080fd5b505080516020909101519092909150565b6000602082840312156137eb57600080fd5b5051919050565b6000808585111561380257600080fd5b8386111561380f57600080fd5b5050820193919092039150565b634e487b7160e01b600052604160045260246000fd5b604051606081016001600160401b03811182821017156138545761385461381c565b60405290565b604051608081016001600160401b03811182821017156138545761385461381c565b604051601f8201601f191681016001600160401b03811182821017156138a4576138a461381c565b604052919050565b60006001600160401b038211156138c5576138c561381c565b5060051b60200190565b600082601f8301126138e057600080fd5b81356001600160401b038111156138f9576138f961381c565b61390c601f8201601f191660200161387c565b81815284602083860101111561392157600080fd5b816020850160208301376000918101602001919091529392505050565b600082601f83011261394f57600080fd5b8135602061396461395f836138ac565b61387c565b8281526060928302850182019282820191908785111561398357600080fd5b8387015b858110156139dc5781818a03121561399f5760008081fd5b6139a7613832565b81356139b281613321565b815281860135868201526040808301356139cb81613321565b908201528452928401928101613987565b5090979650505050505050565b803561269c81613321565b60008060008060008060c08789031215613a0d57600080fd5b6001600160401b0387351115613a2257600080fd5b8635870188601f820112613a3557600080fd5b613a4261395f82356138ac565b81358082526020808301929160051b8401018b1015613a6057600080fd5b602083015b6020843560051b850101811015613b1f576001600160401b0381351115613a8b57600080fd5b803584016080818e03601f19011215613aa357600080fd5b613aab61385a565b613ab86020830135613321565b6020820135815260408201356020820152613ad66060830135613321565b606082013560408201526001600160401b0360808301351115613af857600080fd5b613b0b8e602060808501358501016138cf565b606082015284525060209283019201613a65565b50975050506001600160401b0360208801351115613b3c57600080fd5b613b4c886020890135890161393e565b94506040870135935060608701359250613b68608088016139e9565b91506001600160401b0360a08801351115613b8257600080fd5b613b928860a089013589016138cf565b90509295509295509295565b600081518084526020808501945080840160005b83811015613bf057815180516001600160a01b03908116895284820151858a0152604091820151169088015260609096019590820190600101613bb2565b509495945050505050565b600060c0820160c0835280895180835260e08501915060e08160051b86010192506020808c0160005b83811015613c8a5787860360df19018552815180516001600160a01b039081168852848201518589015260408083015190911690880152606090810151608091880182905290613c76818901836132e2565b975050509382019390820190600101613c24565b505085840381870152505050613ca08189613b9e565b9050866040840152856060840152613cc360808401866001600160a01b03169052565b82810360a0840152613cd581856132e2565b9998505050505050505050565b60008060408385031215613cf557600080fd5b82516001600160401b03811115613d0b57600080fd5b8301601f81018513613d1c57600080fd5b80516020613d2c61395f836138ac565b82815260059290921b83018101918181019088841115613d4b57600080fd5b938201935b83851015613d6957845182529382019390820190613d50565b969091015195979596505050505050565b6001600160a01b039788168152602081019690965260408601949094526060850192909252608084015260a083015290911660c082015260e00190565b6000816000190483118215151615613dd157613dd1613661565b500290565b600082613df357634e487b7160e01b600052601260045260246000fd5b500490565b600082821015613e0a57613e0a613661565b500390565b60006020808385031215613e2257600080fd5b82516001600160401b03811115613e3857600080fd5b8301601f81018513613e4957600080fd5b8051613e5761395f826138ac565b81815260059190911b82018301908381019087831115613e7657600080fd5b928401925b828410156131d9578351613e8e81613321565b82529284019290840190613e7b565b6000600019821415613eb157613eb1613661565b5060010190565b6020808252602e908201527f496e697469616c697a61626c653a20636f6e747261637420697320616c72656160408201526d191e481a5b9a5d1a585b1a5e995960921b606082015260800190565b6020808252602b908201527f496e697469616c697a61626c653a20636f6e7472616374206973206e6f74206960408201526a6e697469616c697a696e6760a81b606082015260800190565b60008251613f638184602087016132b6565b919091019291505056fea26469706673582212209a985898b5b0e680e726730557e89c5f25f367096cd8ffa3f7fd5d5adee47b5064736f6c634300080a0033",
  "immutableReferences": {},
  "source": "// SPDX-License-Identifier: MIT\npragma solidity 0.8.10;\nimport \"../interfaces/IOdosRouter.sol\";\nimport \"../interfaces/IUnoAssetRouter.sol\";\nimport \"../interfaces/IUnoAutoStrategyFactory.sol\";\nimport \"@openzeppelin/contracts-upgradeable/security/ReentrancyGuardUpgradeable.sol\";\nimport \"@openzeppelin/contracts-upgradeable/token/ERC20/ERC20Upgradeable.sol\";\nimport \"@openzeppelin/contracts-upgradeable/token/ERC20/utils/SafeERC20Upgradeable.sol\";\n\ncontract UnoAutoStrategy is\n\tInitializable,\n\tERC20Upgradeable,\n\tReentrancyGuardUpgradeable\n{\n\tusing SafeERC20Upgradeable for IERC20Upgradeable;\n\t/**\n\t * @dev PoolInfo:\n\t * {assetRouter} - UnoAssetRouter contract.\n\t * {pool} - Pool address.\n\t * {tokenA} - Pool's first token address.\n\t * {tokenB} - Pool's second token address.\n\t */\n\tstruct _PoolInfo {\n\t\taddress pool;\n\t\tIUnoAssetRouter assetRouter;\n\t}\n\n\tstruct PoolInfo {\n\t\taddress pool;\n\t\tIUnoAssetRouter assetRouter;\n\t\tIERC20Upgradeable tokenA;\n\t\tIERC20Upgradeable tokenB;\n\t}\n\n\t/**\n\t * @dev MoveLiquidityInfo:\n\t * {leftoverA} - TokenA leftovers after MoveLiquidity() call.\n\t * {leftoverB} - TokenB leftovers after MoveLiquidity() call.\n\t * {totalSupply} - totalSupply after MoveLiquidity() call.\n\t * {block} - MoveLiquidity() call block.\n\t */\n\tstruct MoveLiquidityInfo {\n\t\tuint256 leftoverA;\n\t\tuint256 leftoverB;\n\t\tuint256 totalSupply;\n\t\tuint256 block;\n\t}\n\n\t/**\n     * @dev Contract Variables:\n     * {OdosRouter} - Contract that executes swaps.\n\n     * {poolID} - Current pool the strategy uses ({pools} index).\n     * {pools} - Pools this strategy can use and move liquidity to.\n\n     * {reserveLP} - LP token reserve.\n     * {lastMoveInfo} - Info on last MoveLiquidity() block.\n     * {blockedLiquidty} - User's blocked LP tokens. Prevents user from stealing leftover tokens by depositing and exiting before moveLiquidity() has been called.\n     * {leftoversCollected} - Flag that prevents leftover token collection if they were already collected this MoveLiquidity() cycle.\n\n     * {accessManager} - Role manager contract.\n     * {factory} - The address of AutoStrategyFactory this contract was deployed by.\n\n     * {MINIMUM_LIQUIDITY} - Ameliorates rounding errors.\n     */\n\n\tIOdosRouter private constant OdosRouter =\n\t\tIOdosRouter(0xa32EE1C40594249eb3183c10792BcF573D4Da47C);\n\n\tuint256 public poolID;\n\tPoolInfo[] public pools;\n\n\tuint256 private reserveLP;\n\tMoveLiquidityInfo private lastMoveInfo;\n\tmapping(address => mapping(uint256 => uint256)) private blockedLiquidty;\n\tmapping(address => mapping(uint256 => bool)) private leftoversCollected;\n\n\tIUnoAccessManager public accessManager;\n\tIUnoAutoStrategyFactory public factory;\n\n\tuint256 private constant MINIMUM_LIQUIDITY = 10**3;\n\tbytes32 private constant LIQUIDITY_MANAGER_ROLE =\n\t\tkeccak256(\"LIQUIDITY_MANAGER_ROLE\");\n\n\tevent Deposit(\n\t\tuint256 indexed poolID,\n\t\taddress indexed from,\n\t\taddress indexed recipient,\n\t\tuint256 amountA,\n\t\tuint256 amountB\n\t);\n\tevent Withdraw(\n\t\tuint256 indexed poolID,\n\t\taddress indexed from,\n\t\taddress indexed recipient,\n\t\tuint256 amountA,\n\t\tuint256 amountB\n\t);\n\tevent MoveLiquidity(\n\t\tuint256 indexed previousPoolID,\n\t\tuint256 indexed nextPoolID\n\t);\n\n\tmodifier whenNotPaused() {\n\t\trequire(factory.paused() == false, \"PAUSABLE: PAUSED\");\n\t\t_;\n\t}\n\n\t// ============ Methods ============\n\n\tfunction initialize(\n\t\t_PoolInfo[] calldata poolInfos,\n\t\tIUnoAccessManager _accessManager\n\t) external initializer {\n\t\trequire(\n\t\t\t(poolInfos.length >= 2) && (poolInfos.length <= 50),\n\t\t\t\"BAD_POOL_COUNT\"\n\t\t);\n\n\t\t__ERC20_init(\"UNO-AutoStrategy\", \"UNO-LP\");\n\t\t__ReentrancyGuard_init();\n\n\t\tfor (uint256 i = 0; i < poolInfos.length; i++) {\n\t\t\taddress[] memory _tokens = IUnoAssetRouter(poolInfos[i].assetRouter)\n\t\t\t\t.getTokens(poolInfos[i].pool);\n\t\t\tPoolInfo memory pool = PoolInfo({\n\t\t\t\tpool: poolInfos[i].pool,\n\t\t\t\tassetRouter: poolInfos[i].assetRouter,\n\t\t\t\ttokenA: IERC20Upgradeable(_tokens[0]),\n\t\t\t\ttokenB: IERC20Upgradeable(_tokens[1])\n\t\t\t});\n\t\t\tpools.push(pool);\n\n\t\t\tif (\n\t\t\t\tpool.tokenA.allowance(\n\t\t\t\t\taddress(this),\n\t\t\t\t\taddress(pool.assetRouter)\n\t\t\t\t) == 0\n\t\t\t) {\n\t\t\t\tpool.tokenA.approve(address(OdosRouter), type(uint256).max);\n\t\t\t\tpool.tokenA.approve(\n\t\t\t\t\taddress(pool.assetRouter),\n\t\t\t\t\ttype(uint256).max\n\t\t\t\t);\n\t\t\t}\n\t\t\tif (\n\t\t\t\tpool.tokenB.allowance(\n\t\t\t\t\taddress(this),\n\t\t\t\t\taddress(pool.assetRouter)\n\t\t\t\t) == 0\n\t\t\t) {\n\t\t\t\tpool.tokenB.approve(address(OdosRouter), type(uint256).max);\n\t\t\t\tpool.tokenB.approve(\n\t\t\t\t\taddress(pool.assetRouter),\n\t\t\t\t\ttype(uint256).max\n\t\t\t\t);\n\t\t\t}\n\t\t}\n\n\t\taccessManager = _accessManager;\n\t\tlastMoveInfo.block = block.number;\n\t\tfactory = IUnoAutoStrategyFactory(msg.sender);\n\t}\n\n\t/**\n     * @dev Deposits tokens in the pools[poolID] pool. Mints tokens representing user share. Emits {Deposit} event.\n     * @param pid - Current poolID. Throws revert if moveLiquidity() has been called before the transaction has been mined.\n     * @param amountA - Token A amount to deposit.\n     * @param amountB  - Token B amount to deposit.\n     * @param amountAMin - Bounds the extent to which the B/A price can go up before the transaction reverts.\n     * @param amountBMin - Bounds the extent to which the A/B price can go up before the transaction reverts.\n     * @param recipient - Address which will receive the deposit.\n     \n     * @return sentA - Deposited token A amount.\n     * @return sentB - Deposited token B amount.\n     * @return liquidity - Total liquidity minted for the {recipient}.\n     */\n\tfunction deposit(\n\t\tuint256 pid,\n\t\tuint256 amountA,\n\t\tuint256 amountB,\n\t\tuint256 amountAMin,\n\t\tuint256 amountBMin,\n\t\taddress recipient\n\t)\n\t\texternal\n\t\twhenNotPaused\n\t\tnonReentrant\n\t\treturns (\n\t\t\tuint256 sentA,\n\t\t\tuint256 sentB,\n\t\t\tuint256 liquidity\n\t\t)\n\t{\n\t\trequire(pid == poolID, \"BAD_POOL_ID\");\n\t\tPoolInfo memory pool = pools[poolID];\n\n\t\tpool.tokenA.safeTransferFrom(msg.sender, address(this), amountA);\n\t\tpool.tokenB.safeTransferFrom(msg.sender, address(this), amountB);\n\n\t\t(sentA, sentB, ) = pool.assetRouter.deposit(\n\t\t\tpool.pool,\n\t\t\tamountA,\n\t\t\tamountB,\n\t\t\tamountAMin,\n\t\t\tamountBMin,\n\t\t\t0,\n\t\t\taddress(this)\n\t\t);\n\t\tliquidity = mint(recipient);\n\n\t\tpool.tokenA.safeTransfer(msg.sender, amountA - sentA);\n\t\tpool.tokenB.safeTransfer(msg.sender, amountB - sentB);\n\n\t\temit Deposit(poolID, msg.sender, recipient, sentA, sentB);\n\t}\n\n\t/**\n     * @dev Withdraws tokens from the {pools[poolID]} pool and sends them to the recipient. Burns tokens representing user share. Emits {Withdraw} event.\n     * @param pid - Current poolID. Throws revert if moveLiquidity() has been called before the transaction has been mined.\n     * @param liquidity - Liquidity to burn from this user.\n     * @param amountAMin - The minimum amount of tokenA that must be received from the pool for the transaction not to revert.\n     * @param amountBMin - The minimum amount of tokenB that must be received from the pool for the transaction not to revert.\n     * @param recipient - Address which will receive withdrawn tokens.\n     \n     * @return amountA - Token A amount sent to the {recipient}.\n     * @return amountB - Token B amount sent to the {recipient}.\n     */\n\tfunction withdraw(\n\t\tuint256 pid,\n\t\tuint256 liquidity,\n\t\tuint256 amountAMin,\n\t\tuint256 amountBMin,\n\t\taddress recipient\n\t)\n\t\texternal\n\t\twhenNotPaused\n\t\tnonReentrant\n\t\treturns (uint256 amountA, uint256 amountB)\n\t{\n\t\trequire(pid == poolID, \"BAD_POOL_ID\");\n\t\tPoolInfo memory pool = pools[poolID];\n\n\t\t(uint256 leftoverA, uint256 leftoverB) = collectLeftovers(recipient);\n\n\t\tuint256 amountLP = burn(liquidity);\n\t\t(amountA, amountB) = pool.assetRouter.withdraw(\n\t\t\tpool.pool,\n\t\t\tamountLP,\n\t\t\tamountAMin,\n\t\t\tamountBMin,\n\t\t\tfalse,\n\t\t\trecipient\n\t\t);\n\n\t\tamountA += leftoverA;\n\t\tamountB += leftoverB;\n\n\t\temit Withdraw(poolID, msg.sender, recipient, amountA, amountB);\n\t}\n\n\t/**\n     * @dev Collects leftover tokens left from moveLiquidity() function.\n     * @param recipient - Address which will receive leftover tokens.\n     \n     * @return leftoverA - Token A amount sent to the {recipient}.\n     * @return leftoverB - Token B amount sent to the {recipient}.\n     */\n\tfunction collectLeftovers(address recipient)\n\t\tinternal\n\t\treturns (uint256 leftoverA, uint256 leftoverB)\n\t{\n\t\tif (!leftoversCollected[msg.sender][lastMoveInfo.block]) {\n\t\t\tif (lastMoveInfo.totalSupply != 0) {\n\t\t\t\tPoolInfo memory pool = pools[poolID];\n\t\t\t\tleftoverA =\n\t\t\t\t\t((balanceOf(msg.sender) -\n\t\t\t\t\t\tblockedLiquidty[msg.sender][lastMoveInfo.block]) *\n\t\t\t\t\t\tlastMoveInfo.leftoverA) /\n\t\t\t\t\tlastMoveInfo.totalSupply;\n\t\t\t\tleftoverB =\n\t\t\t\t\t((balanceOf(msg.sender) -\n\t\t\t\t\t\tblockedLiquidty[msg.sender][lastMoveInfo.block]) *\n\t\t\t\t\t\tlastMoveInfo.leftoverB) /\n\t\t\t\t\tlastMoveInfo.totalSupply;\n\n\t\t\t\tif (leftoverA > 0) {\n\t\t\t\t\tpool.tokenA.safeTransfer(recipient, leftoverA);\n\t\t\t\t}\n\t\t\t\tif (leftoverB > 0) {\n\t\t\t\t\tpool.tokenB.safeTransfer(recipient, leftoverB);\n\t\t\t\t}\n\t\t\t}\n\n\t\t\tleftoversCollected[msg.sender][lastMoveInfo.block] = true;\n\t\t}\n\t}\n\n\t/**\n\t * @dev Moves liquidity from {pools[poolID]} to {pools[_poolID]}. Emits {MoveLiquidity} event.\n\t * @param _poolID - Pool ID to move liquidity to.\n\t * @param swapAData - Data for tokenA swap.\n\t * @param swapBData - Data for tokenB swap.\n\t * @param amountAMin - The minimum amount of tokenA that must be deposited in {pools[_poolID]} for the transaction not to revert.\n\t * @param amountBMin - The minimum amount of tokenB that must be deposited in {pools[_poolID]} for the transaction not to revert.\n\t *\n\t * Note: This function can only be called by LiquidityManager.\n\t */\n\tfunction moveLiquidity(\n\t\tuint256 _poolID,\n\t\tbytes calldata swapAData,\n\t\tbytes calldata swapBData,\n\t\tuint256 amountAMin,\n\t\tuint256 amountBMin\n\t) external whenNotPaused nonReentrant {\n\t\trequire(\n\t\t\taccessManager.hasRole(LIQUIDITY_MANAGER_ROLE, msg.sender),\n\t\t\t\"CALLER_NOT_LIQUIDITY_MANAGER\"\n\t\t);\n\t\trequire(totalSupply() != 0, \"NO_LIQUIDITY\");\n\t\trequire(\n\t\t\tlastMoveInfo.block != block.number,\n\t\t\t\"CANT_CALL_ON_THE_SAME_BLOCK\"\n\t\t);\n\t\trequire((_poolID < pools.length) && (_poolID != poolID), \"BAD_POOL_ID\");\n\n\t\tPoolInfo memory currentPool = pools[poolID];\n\t\tPoolInfo memory newPool = pools[_poolID];\n\n\t\t(uint256 _totalDeposits, , ) = currentPool.assetRouter.userStake(\n\t\t\taddress(this),\n\t\t\tcurrentPool.pool\n\t\t);\n\t\tcurrentPool.assetRouter.withdraw(\n\t\t\tcurrentPool.pool,\n\t\t\t_totalDeposits,\n\t\t\t0,\n\t\t\t0,\n\t\t\tfalse,\n\t\t\taddress(this)\n\t\t);\n\n\t\tuint256 tokenABalance = currentPool.tokenA.balanceOf(address(this));\n\t\tuint256 tokenBBalance = currentPool.tokenB.balanceOf(address(this));\n\n\t\tif (currentPool.tokenA != newPool.tokenA) {\n\t\t\t(\n\t\t\t\tIOdosRouter.inputToken[] memory inputs,\n\t\t\t\tIOdosRouter.outputToken[] memory outputs,\n\t\t\t\t,\n\t\t\t\tuint256 valueOutMin,\n\t\t\t\taddress executor,\n\t\t\t\tbytes memory pathDefinition\n\t\t\t) = abi.decode(\n\t\t\t\t\tswapAData[4:],\n\t\t\t\t\t(\n\t\t\t\t\t\tIOdosRouter.inputToken[],\n\t\t\t\t\t\tIOdosRouter.outputToken[],\n\t\t\t\t\t\tuint256,\n\t\t\t\t\t\tuint256,\n\t\t\t\t\t\taddress,\n\t\t\t\t\t\tbytes\n\t\t\t\t\t)\n\t\t\t\t);\n\n\t\t\trequire(\n\t\t\t\t(inputs.length == 1) && (outputs.length == 1),\n\t\t\t\t\"BAD_SWAP_A_TOKENS_LENGTH\"\n\t\t\t);\n\t\t\trequire(\n\t\t\t\tinputs[0].tokenAddress == address(currentPool.tokenA),\n\t\t\t\t\"BAD_SWAP_A_INPUT_TOKEN\"\n\t\t\t);\n\t\t\trequire(\n\t\t\t\toutputs[0].tokenAddress == address(newPool.tokenA),\n\t\t\t\t\"BAD_SWAP_A_OUTPUT_TOKEN\"\n\t\t\t);\n\n\t\t\tinputs[0].amountIn = tokenABalance;\n\t\t\tOdosRouter.swap(\n\t\t\t\tinputs,\n\t\t\t\toutputs,\n\t\t\t\ttype(uint256).max,\n\t\t\t\tvalueOutMin,\n\t\t\t\texecutor,\n\t\t\t\tpathDefinition\n\t\t\t);\n\t\t}\n\n\t\tif (currentPool.tokenB != newPool.tokenB) {\n\t\t\t(\n\t\t\t\tIOdosRouter.inputToken[] memory inputs,\n\t\t\t\tIOdosRouter.outputToken[] memory outputs,\n\t\t\t\t,\n\t\t\t\tuint256 valueOutMin,\n\t\t\t\taddress executor,\n\t\t\t\tbytes memory pathDefinition\n\t\t\t) = abi.decode(\n\t\t\t\t\tswapBData[4:],\n\t\t\t\t\t(\n\t\t\t\t\t\tIOdosRouter.inputToken[],\n\t\t\t\t\t\tIOdosRouter.outputToken[],\n\t\t\t\t\t\tuint256,\n\t\t\t\t\t\tuint256,\n\t\t\t\t\t\taddress,\n\t\t\t\t\t\tbytes\n\t\t\t\t\t)\n\t\t\t\t);\n\n\t\t\trequire(\n\t\t\t\t(inputs.length == 1) && (outputs.length == 1),\n\t\t\t\t\"BAD_SWAP_B_TOKENS_LENGTH\"\n\t\t\t);\n\t\t\trequire(\n\t\t\t\tinputs[0].tokenAddress == address(currentPool.tokenB),\n\t\t\t\t\"BAD_SWAP_B_INPUT_TOKEN\"\n\t\t\t);\n\t\t\trequire(\n\t\t\t\toutputs[0].tokenAddress == address(newPool.tokenB),\n\t\t\t\t\"BAD_SWAP_B_OUTPUT_TOKEN\"\n\t\t\t);\n\n\t\t\tinputs[0].amountIn = tokenBBalance;\n\t\t\tOdosRouter.swap(\n\t\t\t\tinputs,\n\t\t\t\toutputs,\n\t\t\t\ttype(uint256).max,\n\t\t\t\tvalueOutMin,\n\t\t\t\texecutor,\n\t\t\t\tpathDefinition\n\t\t\t);\n\t\t}\n\n\t\t(, , reserveLP) = newPool.assetRouter.deposit(\n\t\t\tnewPool.pool,\n\t\t\tnewPool.tokenA.balanceOf(address(this)),\n\t\t\tnewPool.tokenB.balanceOf(address(this)),\n\t\t\tamountAMin,\n\t\t\tamountBMin,\n\t\t\t0,\n\t\t\taddress(this)\n\t\t);\n\n\t\tlastMoveInfo = MoveLiquidityInfo({\n\t\t\tleftoverA: newPool.tokenA.balanceOf(address(this)),\n\t\t\tleftoverB: newPool.tokenB.balanceOf(address(this)),\n\t\t\ttotalSupply: totalSupply(),\n\t\t\tblock: block.number\n\t\t});\n\n\t\temit MoveLiquidity(poolID, _poolID);\n\t\tpoolID = _poolID;\n\t}\n\n\t/**\n     * @dev Returns tokens staked by the {_address}. \n     * @param _address - The address to check stakes for.\n\n     * @return stakeA - Token A stake.\n     * @return stakeB - Token B stake.\n     * @return leftoverA - Token A Leftovers obligated to the {_address} after moveLiquidity() function call.\n     * @return leftoverB - Token B Leftovers obligated to the {_address} after moveLiquidity() function call.\n     */\n\tfunction userStake(address _address)\n\t\texternal\n\t\tview\n\t\treturns (\n\t\t\tuint256 stakeA,\n\t\t\tuint256 stakeB,\n\t\t\tuint256 leftoverA,\n\t\t\tuint256 leftoverB\n\t\t)\n\t{\n\t\tPoolInfo memory pool = pools[poolID];\n\t\t(, uint256 balanceA, uint256 balanceB) = pool.assetRouter.userStake(\n\t\t\taddress(this),\n\t\t\tpool.pool\n\t\t);\n\n\t\tuint256 _balance = balanceOf(_address);\n\t\tif (_balance != 0) {\n\t\t\tuint256 _totalSupply = totalSupply();\n\t\t\tstakeA = (_balance * balanceA) / _totalSupply;\n\t\t\tstakeB = (_balance * balanceB) / _totalSupply;\n\t\t\tif (\n\t\t\t\t(!leftoversCollected[msg.sender][lastMoveInfo.block]) &&\n\t\t\t\t(lastMoveInfo.totalSupply != 0)\n\t\t\t) {\n\t\t\t\tleftoverA =\n\t\t\t\t\t((_balance -\n\t\t\t\t\t\tblockedLiquidty[_address][lastMoveInfo.block]) *\n\t\t\t\t\t\tlastMoveInfo.leftoverA) /\n\t\t\t\t\tlastMoveInfo.totalSupply;\n\t\t\t\tleftoverB =\n\t\t\t\t\t((_balance -\n\t\t\t\t\t\tblockedLiquidty[_address][lastMoveInfo.block]) *\n\t\t\t\t\t\tlastMoveInfo.leftoverB) /\n\t\t\t\t\tlastMoveInfo.totalSupply;\n\t\t\t}\n\t\t}\n\t}\n\n\t/**\n\t * @dev Returns total amount locked in the pool.\n\t * @return totalDepositsA - Token A deposits.\n\t * @return totalDepositsB - Token B deposits.\n\t */\n\tfunction totalDeposits()\n\t\texternal\n\t\tview\n\t\treturns (uint256 totalDepositsA, uint256 totalDepositsB)\n\t{\n\t\tPoolInfo memory pool = pools[poolID];\n\t\t(, totalDepositsA, totalDepositsB) = pool.assetRouter.userStake(\n\t\t\taddress(this),\n\t\t\tpool.pool\n\t\t);\n\n\t\t// Add leftover tokens.\n\t\ttotalDepositsA += pool.tokenA.balanceOf(address(this));\n\t\ttotalDepositsB += pool.tokenB.balanceOf(address(this));\n\t}\n\n\t/**\n\t * @dev Returns the number of pools in the strategy.\n\t */\n\tfunction poolsLength() external view returns (uint256) {\n\t\treturn pools.length;\n\t}\n\n\t/**\n\t * @dev Returns pair of tokens currently in use.\n\t */\n\tfunction tokens() external view returns (address, address) {\n\t\tPoolInfo memory pool = pools[poolID];\n\t\treturn (address(pool.tokenA), address(pool.tokenB));\n\t}\n\n\tfunction mint(address to) internal returns (uint256 liquidity) {\n\t\tPoolInfo memory pool = pools[poolID];\n\t\t(uint256 balanceLP, , ) = pool.assetRouter.userStake(\n\t\t\taddress(this),\n\t\t\tpool.pool\n\t\t);\n\t\tuint256 amountLP = balanceLP - reserveLP;\n\n\t\tuint256 _totalSupply = totalSupply();\n\t\tif (_totalSupply == 0) {\n\t\t\tliquidity = amountLP - MINIMUM_LIQUIDITY;\n\t\t\t_mint(address(1), MINIMUM_LIQUIDITY);\n\t\t} else {\n\t\t\tliquidity = (amountLP * _totalSupply) / reserveLP;\n\t\t}\n\n\t\trequire(liquidity > 0, \"INSUFFICIENT_LIQUIDITY_MINTED\");\n\t\t_mint(to, liquidity);\n\n\t\treserveLP = balanceLP;\n\t}\n\n\tfunction burn(uint256 liquidity) internal returns (uint256 amountLP) {\n\t\tPoolInfo memory pool = pools[poolID];\n\t\t(uint256 balanceLP, , ) = pool.assetRouter.userStake(\n\t\t\taddress(this),\n\t\t\tpool.pool\n\t\t);\n\n\t\tamountLP = (liquidity * balanceLP) / totalSupply();\n\t\trequire(amountLP > 0, \"INSUFFICIENT_LIQUIDITY_BURNED\");\n\t\t_burn(msg.sender, liquidity);\n\n\t\treserveLP = balanceLP - amountLP;\n\t}\n\n\tfunction _beforeTokenTransfer(\n\t\taddress from,\n\t\taddress to,\n\t\tuint256 amount\n\t) internal virtual override {\n\t\tsuper._beforeTokenTransfer(from, to, amount);\n\n\t\t// Decrease blockedLiquidty from {from} address, but no less then 0.\n\t\tif (amount > blockedLiquidty[from][lastMoveInfo.block]) {\n\t\t\tblockedLiquidty[from][lastMoveInfo.block] = 0;\n\t\t} else {\n\t\t\tblockedLiquidty[from][lastMoveInfo.block] -= amount;\n\t\t}\n\t\t// Block {to} address from withdrawing their share of leftover tokens immediately.\n\t\tblockedLiquidty[to][lastMoveInfo.block] += amount;\n\t}\n}\n",
  "sourcePath": "/home/ilau/projectWork/uno-contracts/contracts/autostrategy/UnoAutoStrategy.sol",
  "compiler": {
    "name": "solc",
    "version": "0.8.10+commit.fc410830.Emscripten.clang"
  },
  "schemaVersion": "3.4.10",
  "updatedAt": "2022-10-19T17:13:47.330Z",
  "devdoc": {
    "kind": "dev",
    "methods": {
      "allowance(address,address)": {
        "details": "See {IERC20-allowance}."
      },
      "approve(address,uint256)": {
        "details": "See {IERC20-approve}. NOTE: If `amount` is the maximum `uint256`, the allowance is not updated on `transferFrom`. This is semantically equivalent to an infinite approval. Requirements: - `spender` cannot be the zero address."
      },
      "balanceOf(address)": {
        "details": "See {IERC20-balanceOf}."
      },
      "decimals()": {
        "details": "Returns the number of decimals used to get its user representation. For example, if `decimals` equals `2`, a balance of `505` tokens should be displayed to a user as `5.05` (`505 / 10 ** 2`). Tokens usually opt for a value of 18, imitating the relationship between Ether and Wei. This is the value {ERC20} uses, unless this function is overridden; NOTE: This information is only used for _display_ purposes: it in no way affects any of the arithmetic of the contract, including {IERC20-balanceOf} and {IERC20-transfer}."
      },
      "decreaseAllowance(address,uint256)": {
        "details": "Atomically decreases the allowance granted to `spender` by the caller. This is an alternative to {approve} that can be used as a mitigation for problems described in {IERC20-approve}. Emits an {Approval} event indicating the updated allowance. Requirements: - `spender` cannot be the zero address. - `spender` must have allowance for the caller of at least `subtractedValue`."
      },
      "deposit(uint256,uint256,uint256,uint256,uint256,address)": {
        "details": "Deposits tokens in the pools[poolID] pool. Mints tokens representing user share. Emits {Deposit} event.",
        "params": {
          "amountA": "- Token A amount to deposit.",
          "amountAMin": "- Bounds the extent to which the B/A price can go up before the transaction reverts.",
          "amountB": "- Token B amount to deposit.",
          "amountBMin": "- Bounds the extent to which the A/B price can go up before the transaction reverts.",
          "pid": "- Current poolID. Throws revert if moveLiquidity() has been called before the transaction has been mined.",
          "recipient": "- Address which will receive the deposit."
        },
        "returns": {
          "liquidity": "- Total liquidity minted for the {recipient}.",
          "sentA": "- Deposited token A amount.",
          "sentB": "- Deposited token B amount."
        }
      },
      "increaseAllowance(address,uint256)": {
        "details": "Atomically increases the allowance granted to `spender` by the caller. This is an alternative to {approve} that can be used as a mitigation for problems described in {IERC20-approve}. Emits an {Approval} event indicating the updated allowance. Requirements: - `spender` cannot be the zero address."
      },
      "moveLiquidity(uint256,bytes,bytes,uint256,uint256)": {
        "details": "Moves liquidity from {pools[poolID]} to {pools[_poolID]}. Emits {MoveLiquidity} event.",
        "params": {
          "_poolID": "- Pool ID to move liquidity to.",
          "amountAMin": "- The minimum amount of tokenA that must be deposited in {pools[_poolID]} for the transaction not to revert.",
          "amountBMin": "- The minimum amount of tokenB that must be deposited in {pools[_poolID]} for the transaction not to revert. Note: This function can only be called by LiquidityManager.",
          "swapAData": "- Data for tokenA swap.",
          "swapBData": "- Data for tokenB swap."
        }
      },
      "name()": {
        "details": "Returns the name of the token."
      },
      "poolsLength()": {
        "details": "Returns the number of pools in the strategy."
      },
      "symbol()": {
        "details": "Returns the symbol of the token, usually a shorter version of the name."
      },
      "tokens()": {
        "details": "Returns pair of tokens currently in use."
      },
      "totalDeposits()": {
        "details": "Returns total amount locked in the pool.",
        "returns": {
          "totalDepositsA": "- Token A deposits.",
          "totalDepositsB": "- Token B deposits."
        }
      },
      "totalSupply()": {
        "details": "See {IERC20-totalSupply}."
      },
      "transfer(address,uint256)": {
        "details": "See {IERC20-transfer}. Requirements: - `to` cannot be the zero address. - the caller must have a balance of at least `amount`."
      },
      "transferFrom(address,address,uint256)": {
        "details": "See {IERC20-transferFrom}. Emits an {Approval} event indicating the updated allowance. This is not required by the EIP. See the note at the beginning of {ERC20}. NOTE: Does not update the allowance if the current allowance is the maximum `uint256`. Requirements: - `from` and `to` cannot be the zero address. - `from` must have a balance of at least `amount`. - the caller must have allowance for ``from``'s tokens of at least `amount`."
      },
      "userStake(address)": {
        "details": "Returns tokens staked by the {_address}. ",
        "params": {
          "_address": "- The address to check stakes for."
        },
        "returns": {
          "leftoverA": "- Token A Leftovers obligated to the {_address} after moveLiquidity() function call.",
          "leftoverB": "- Token B Leftovers obligated to the {_address} after moveLiquidity() function call.",
          "stakeA": "- Token A stake.",
          "stakeB": "- Token B stake."
        }
      },
      "withdraw(uint256,uint256,uint256,uint256,address)": {
        "details": "Withdraws tokens from the {pools[poolID]} pool and sends them to the recipient. Burns tokens representing user share. Emits {Withdraw} event.",
        "params": {
          "amountAMin": "- The minimum amount of tokenA that must be received from the pool for the transaction not to revert.",
          "amountBMin": "- The minimum amount of tokenB that must be received from the pool for the transaction not to revert.",
          "liquidity": "- Liquidity to burn from this user.",
          "pid": "- Current poolID. Throws revert if moveLiquidity() has been called before the transaction has been mined.",
          "recipient": "- Address which will receive withdrawn tokens."
        },
        "returns": {
          "amountA": "- Token A amount sent to the {recipient}.",
          "amountB": "- Token B amount sent to the {recipient}."
        }
      }
    },
    "stateVariables": {
      "OdosRouter": {
        "details": "Contract Variables: {OdosRouter} - Contract that executes swaps. {poolID} - Current pool the strategy uses ({pools} index). {pools} - Pools this strategy can use and move liquidity to. {reserveLP} - LP token reserve. {lastMoveInfo} - Info on last MoveLiquidity() block. {blockedLiquidty} - User's blocked LP tokens. Prevents user from stealing leftover tokens by depositing and exiting before moveLiquidity() has been called. {leftoversCollected} - Flag that prevents leftover token collection if they were already collected this MoveLiquidity() cycle. {accessManager} - Role manager contract. {factory} - The address of AutoStrategyFactory this contract was deployed by. {MINIMUM_LIQUIDITY} - Ameliorates rounding errors."
      }
    },
    "version": 1
  },
  "userdoc": {
    "kind": "user",
    "methods": {},
    "version": 1
  }
}