{
  "contractName": "UnoAutoStrategyBanxe",
  "abi": [
    {
      "anonymous": false,
      "inputs": [
        {
          "indexed": true,
          "internalType": "address",
          "name": "owner",
          "type": "address"
        },
        {
          "indexed": true,
          "internalType": "address",
          "name": "spender",
          "type": "address"
        },
        {
          "indexed": false,
          "internalType": "uint256",
          "name": "value",
          "type": "uint256"
        }
      ],
      "name": "Approval",
      "type": "event"
    },
    {
      "anonymous": false,
      "inputs": [
        {
          "indexed": true,
          "internalType": "address",
          "name": "previousBanxe",
          "type": "address"
        },
        {
          "indexed": true,
          "internalType": "address",
          "name": "newBanxe",
          "type": "address"
        }
      ],
      "name": "BanxeTransferred",
      "type": "event"
    },
    {
      "anonymous": false,
      "inputs": [
        {
          "indexed": true,
          "internalType": "uint256",
          "name": "poolID",
          "type": "uint256"
        },
        {
          "indexed": true,
          "internalType": "address",
          "name": "from",
          "type": "address"
        },
        {
          "indexed": true,
          "internalType": "address",
          "name": "recipient",
          "type": "address"
        },
        {
          "indexed": false,
          "internalType": "uint256",
          "name": "amountA",
          "type": "uint256"
        },
        {
          "indexed": false,
          "internalType": "uint256",
          "name": "amountB",
          "type": "uint256"
        }
      ],
      "name": "Deposit",
      "type": "event"
    },
    {
      "anonymous": false,
      "inputs": [
        {
          "indexed": false,
          "internalType": "uint8",
          "name": "version",
          "type": "uint8"
        }
      ],
      "name": "Initialized",
      "type": "event"
    },
    {
      "anonymous": false,
      "inputs": [
        {
          "indexed": true,
          "internalType": "uint256",
          "name": "previousPoolID",
          "type": "uint256"
        },
        {
          "indexed": true,
          "internalType": "uint256",
          "name": "nextPoolID",
          "type": "uint256"
        }
      ],
      "name": "MoveLiquidity",
      "type": "event"
    },
    {
      "anonymous": false,
      "inputs": [
        {
          "indexed": true,
          "internalType": "address",
          "name": "from",
          "type": "address"
        },
        {
          "indexed": true,
          "internalType": "address",
          "name": "to",
          "type": "address"
        },
        {
          "indexed": false,
          "internalType": "uint256",
          "name": "value",
          "type": "uint256"
        }
      ],
      "name": "Transfer",
      "type": "event"
    },
    {
      "anonymous": false,
      "inputs": [
        {
          "indexed": true,
          "internalType": "uint256",
          "name": "poolID",
          "type": "uint256"
        },
        {
          "indexed": true,
          "internalType": "address",
          "name": "from",
          "type": "address"
        },
        {
          "indexed": true,
          "internalType": "address",
          "name": "recipient",
          "type": "address"
        },
        {
          "indexed": false,
          "internalType": "uint256",
          "name": "amountA",
          "type": "uint256"
        },
        {
          "indexed": false,
          "internalType": "uint256",
          "name": "amountB",
          "type": "uint256"
        }
      ],
      "name": "Withdraw",
      "type": "event"
    },
    {
      "inputs": [],
      "name": "accessManager",
      "outputs": [
        {
          "internalType": "contract IUnoAccessManager",
          "name": "",
          "type": "address"
        }
      ],
      "stateMutability": "view",
      "type": "function",
      "constant": true
    },
    {
      "inputs": [
        {
          "internalType": "address",
          "name": "owner",
          "type": "address"
        },
        {
          "internalType": "address",
          "name": "spender",
          "type": "address"
        }
      ],
      "name": "allowance",
      "outputs": [
        {
          "internalType": "uint256",
          "name": "",
          "type": "uint256"
        }
      ],
      "stateMutability": "view",
      "type": "function",
      "constant": true
    },
    {
      "inputs": [
        {
          "internalType": "address",
          "name": "spender",
          "type": "address"
        },
        {
          "internalType": "uint256",
          "name": "amount",
          "type": "uint256"
        }
      ],
      "name": "approve",
      "outputs": [
        {
          "internalType": "bool",
          "name": "",
          "type": "bool"
        }
      ],
      "stateMutability": "nonpayable",
      "type": "function"
    },
    {
      "inputs": [
        {
          "internalType": "address",
          "name": "account",
          "type": "address"
        }
      ],
      "name": "balanceOf",
      "outputs": [
        {
          "internalType": "uint256",
          "name": "",
          "type": "uint256"
        }
      ],
      "stateMutability": "view",
      "type": "function",
      "constant": true
    },
    {
      "inputs": [],
      "name": "banxe",
      "outputs": [
        {
          "internalType": "address",
          "name": "",
          "type": "address"
        }
      ],
      "stateMutability": "view",
      "type": "function",
      "constant": true
    },
    {
      "inputs": [],
      "name": "decimals",
      "outputs": [
        {
          "internalType": "uint8",
          "name": "",
          "type": "uint8"
        }
      ],
      "stateMutability": "view",
      "type": "function",
      "constant": true
    },
    {
      "inputs": [
        {
          "internalType": "address",
          "name": "spender",
          "type": "address"
        },
        {
          "internalType": "uint256",
          "name": "subtractedValue",
          "type": "uint256"
        }
      ],
      "name": "decreaseAllowance",
      "outputs": [
        {
          "internalType": "bool",
          "name": "",
          "type": "bool"
        }
      ],
      "stateMutability": "nonpayable",
      "type": "function"
    },
    {
      "inputs": [],
      "name": "factory",
      "outputs": [
        {
          "internalType": "contract IUnoAutoStrategyFactory",
          "name": "",
          "type": "address"
        }
      ],
      "stateMutability": "view",
      "type": "function",
      "constant": true
    },
    {
      "inputs": [
        {
          "internalType": "address",
          "name": "spender",
          "type": "address"
        },
        {
          "internalType": "uint256",
          "name": "addedValue",
          "type": "uint256"
        }
      ],
      "name": "increaseAllowance",
      "outputs": [
        {
          "internalType": "bool",
          "name": "",
          "type": "bool"
        }
      ],
      "stateMutability": "nonpayable",
      "type": "function"
    },
    {
      "inputs": [],
      "name": "name",
      "outputs": [
        {
          "internalType": "string",
          "name": "",
          "type": "string"
        }
      ],
      "stateMutability": "view",
      "type": "function",
      "constant": true
    },
    {
      "inputs": [],
      "name": "poolID",
      "outputs": [
        {
          "internalType": "uint256",
          "name": "",
          "type": "uint256"
        }
      ],
      "stateMutability": "view",
      "type": "function",
      "constant": true
    },
    {
      "inputs": [
        {
          "internalType": "uint256",
          "name": "",
          "type": "uint256"
        }
      ],
      "name": "pools",
      "outputs": [
        {
          "internalType": "address",
          "name": "pool",
          "type": "address"
        },
        {
          "internalType": "contract IUnoAssetRouter",
          "name": "assetRouter",
          "type": "address"
        },
        {
          "internalType": "contract IERC20Upgradeable",
          "name": "tokenA",
          "type": "address"
        },
        {
          "internalType": "contract IERC20Upgradeable",
          "name": "tokenB",
          "type": "address"
        }
      ],
      "stateMutability": "view",
      "type": "function",
      "constant": true
    },
    {
      "inputs": [],
      "name": "symbol",
      "outputs": [
        {
          "internalType": "string",
          "name": "",
          "type": "string"
        }
      ],
      "stateMutability": "view",
      "type": "function",
      "constant": true
    },
    {
      "inputs": [],
      "name": "totalSupply",
      "outputs": [
        {
          "internalType": "uint256",
          "name": "",
          "type": "uint256"
        }
      ],
      "stateMutability": "view",
      "type": "function",
      "constant": true
    },
    {
      "inputs": [
        {
          "internalType": "address",
          "name": "to",
          "type": "address"
        },
        {
          "internalType": "uint256",
          "name": "amount",
          "type": "uint256"
        }
      ],
      "name": "transfer",
      "outputs": [
        {
          "internalType": "bool",
          "name": "",
          "type": "bool"
        }
      ],
      "stateMutability": "nonpayable",
      "type": "function"
    },
    {
      "inputs": [
        {
          "internalType": "address",
          "name": "from",
          "type": "address"
        },
        {
          "internalType": "address",
          "name": "to",
          "type": "address"
        },
        {
          "internalType": "uint256",
          "name": "amount",
          "type": "uint256"
        }
      ],
      "name": "transferFrom",
      "outputs": [
        {
          "internalType": "bool",
          "name": "",
          "type": "bool"
        }
      ],
      "stateMutability": "nonpayable",
      "type": "function"
    },
    {
      "inputs": [
        {
          "components": [
            {
              "internalType": "address",
              "name": "pool",
              "type": "address"
            },
            {
              "internalType": "contract IUnoAssetRouter",
              "name": "assetRouter",
              "type": "address"
            }
          ],
          "internalType": "struct UnoAutoStrategyBanxe._PoolInfo[]",
          "name": "poolInfos",
          "type": "tuple[]"
        },
        {
          "internalType": "contract IUnoAccessManager",
          "name": "_accessManager",
          "type": "address"
        },
        {
          "internalType": "address",
          "name": "_banxe",
          "type": "address"
        }
      ],
      "name": "initialize",
      "outputs": [],
      "stateMutability": "nonpayable",
      "type": "function"
    },
    {
      "inputs": [
        {
          "internalType": "uint256",
          "name": "pid",
          "type": "uint256"
        },
        {
          "internalType": "uint256",
          "name": "amountA",
          "type": "uint256"
        },
        {
          "internalType": "uint256",
          "name": "amountB",
          "type": "uint256"
        },
        {
          "internalType": "uint256",
          "name": "amountAMin",
          "type": "uint256"
        },
        {
          "internalType": "uint256",
          "name": "amountBMin",
          "type": "uint256"
        },
        {
          "internalType": "address",
          "name": "recipient",
          "type": "address"
        }
      ],
      "name": "deposit",
      "outputs": [
        {
          "internalType": "uint256",
          "name": "sentA",
          "type": "uint256"
        },
        {
          "internalType": "uint256",
          "name": "sentB",
          "type": "uint256"
        },
        {
          "internalType": "uint256",
          "name": "liquidity",
          "type": "uint256"
        }
      ],
      "stateMutability": "nonpayable",
      "type": "function"
    },
    {
      "inputs": [
        {
          "internalType": "uint256",
          "name": "pid",
          "type": "uint256"
        },
        {
          "internalType": "uint256",
          "name": "liquidity",
          "type": "uint256"
        },
        {
          "internalType": "uint256",
          "name": "amountAMin",
          "type": "uint256"
        },
        {
          "internalType": "uint256",
          "name": "amountBMin",
          "type": "uint256"
        },
        {
          "internalType": "address",
          "name": "recipient",
          "type": "address"
        }
      ],
      "name": "withdraw",
      "outputs": [
        {
          "internalType": "uint256",
          "name": "amountA",
          "type": "uint256"
        },
        {
          "internalType": "uint256",
          "name": "amountB",
          "type": "uint256"
        }
      ],
      "stateMutability": "nonpayable",
      "type": "function"
    },
    {
      "inputs": [
        {
          "internalType": "uint256",
          "name": "_poolID",
          "type": "uint256"
        },
        {
          "internalType": "bytes",
          "name": "swapAData",
          "type": "bytes"
        },
        {
          "internalType": "bytes",
          "name": "swapBData",
          "type": "bytes"
        },
        {
          "internalType": "uint256",
          "name": "amountAMin",
          "type": "uint256"
        },
        {
          "internalType": "uint256",
          "name": "amountBMin",
          "type": "uint256"
        }
      ],
      "name": "moveLiquidity",
      "outputs": [],
      "stateMutability": "nonpayable",
      "type": "function"
    },
    {
      "inputs": [
        {
          "internalType": "address",
          "name": "_address",
          "type": "address"
        }
      ],
      "name": "userStake",
      "outputs": [
        {
          "internalType": "uint256",
          "name": "stakeA",
          "type": "uint256"
        },
        {
          "internalType": "uint256",
          "name": "stakeB",
          "type": "uint256"
        }
      ],
      "stateMutability": "view",
      "type": "function",
      "constant": true
    },
    {
      "inputs": [],
      "name": "totalDeposits",
      "outputs": [
        {
          "internalType": "uint256",
          "name": "totalDepositsA",
          "type": "uint256"
        },
        {
          "internalType": "uint256",
          "name": "totalDepositsB",
          "type": "uint256"
        }
      ],
      "stateMutability": "view",
      "type": "function",
      "constant": true
    },
    {
      "inputs": [],
      "name": "poolsLength",
      "outputs": [
        {
          "internalType": "uint256",
          "name": "",
          "type": "uint256"
        }
      ],
      "stateMutability": "view",
      "type": "function",
      "constant": true
    },
    {
      "inputs": [],
      "name": "tokens",
      "outputs": [
        {
          "internalType": "address",
          "name": "",
          "type": "address"
        },
        {
          "internalType": "address",
          "name": "",
          "type": "address"
        }
      ],
      "stateMutability": "view",
      "type": "function",
      "constant": true
    },
    {
      "inputs": [
        {
          "internalType": "address",
          "name": "_banxe",
          "type": "address"
        }
      ],
      "name": "transferBanxe",
      "outputs": [],
      "stateMutability": "nonpayable",
      "type": "function"
    }
  ],
  "bytecode": "0x608060405234801561001057600080fd5b506141d8806100206000396000f3fe608060405234801561001057600080fd5b50600436106101735760003560e01c80638d934485116100de578063ac4afa3811610097578063d473a65411610071578063d473a65414610388578063dd62ed3e1461039b578063e25212c9146103ae578063fdcb6068146103c157600080fd5b8063ac4afa381461031c578063b845f1c614610362578063c45a01551461037557600080fd5b80638d934485146102a15780639130700e146102aa57806395d89b41146102d85780639d63848a146102e0578063a457c2d7146102f6578063a9059cbb1461030957600080fd5b8063395093511161013057806339509351146101f5578063668393c71461020857806368e5585d1461021d57806370a082311461024557806376216f7b1461026e5780637d8820971461029957600080fd5b806306fdde0314610178578063095ea7b31461019657806318160ddd146101b957806323b872dd146101cb5780632716ae66146101de578063313ce567146101e6575b600080fd5b6101806103d4565b60405161018d9190613537565b60405180910390f35b6101a96101a4366004613562565b610466565b604051901515815260200161018d565b6035545b60405190815260200161018d565b6101a96101d936600461358e565b61047e565b6099546101bd565b6040516012815260200161018d565b6101a9610203366004613562565b6104a4565b61021b610216366004613617565b6104c6565b005b61023061022b36600461369f565b611155565b6040805192835260208301919091520161018d565b6101bd61025336600461369f565b6001600160a01b031660009081526033602052604090205490565b609754610281906001600160a01b031681565b6040516001600160a01b03909116815260200161018d565b61023061137d565b6101bd60985481565b6102bd6102b83660046136bc565b611548565b6040805193845260208401929092529082015260600161018d565b610180611841565b6102e8611850565b60405161018d929190613711565b6101a9610304366004613562565b6118ca565b6101a9610317366004613562565b611950565b61032f61032a36600461372b565b61195e565b604080516001600160a01b039586168152938516602085015291841691830191909152909116606082015260800161018d565b61021b610370366004613744565b6119a8565b60a254610281906001600160a01b031681565b6102306103963660046137da565b61213a565b6101bd6103a9366004613827565b61239c565b61021b6103bc36600461369f565b6123c7565b60a154610281906001600160a01b031681565b6060603680546103e390613860565b80601f016020809104026020016040519081016040528092919081815260200182805461040f90613860565b801561045c5780601f106104315761010080835404028352916020019161045c565b820191906000526020600020905b81548152906001019060200180831161043f57829003601f168201915b5050505050905090565b6000336104748185856124c6565b5060019392505050565b60003361048c8582856125ea565b610497858585612664565b60019150505b9392505050565b6000336104748185856104b7838361239c565b6104c191906138b1565b6124c6565b60a260009054906101000a90046001600160a01b03166001600160a01b0316635c975abb6040518163ffffffff1660e01b8152600401602060405180830381865afa158015610519573d6000803e3d6000fd5b505050506040513d601f19601f8201168201806040525081019061053d91906138c9565b156105635760405162461bcd60e51b815260040161055a906138eb565b60405180910390fd5b600260655414156105865760405162461bcd60e51b815260040161055a90613915565b600260655560a154604051632474521560e21b81527f77e60b99a50d27fb027f6912a507d956105b4148adab27a86d235c8bcca8fa2f60048201523360248201526001600160a01b03909116906391d1485490604401602060405180830381865afa1580156105f9573d6000803e3d6000fd5b505050506040513d601f19601f8201168201806040525081019061061d91906138c9565b6106695760405162461bcd60e51b815260206004820152601c60248201527f43414c4c45525f4e4f545f4c49515549444954595f4d414e4147455200000000604482015260640161055a565b6035546106a75760405162461bcd60e51b815260206004820152600c60248201526b4e4f5f4c495155494449545960a01b604482015260640161055a565b609e544314156106f95760405162461bcd60e51b815260206004820152601b60248201527f43414e545f43414c4c5f4f4e5f5448455f53414d455f424c4f434b0000000000604482015260640161055a565b6099548710801561070c57506098548714155b6107285760405162461bcd60e51b815260040161055a9061394c565b600060996098548154811061073f5761073f613971565b6000918252602080832060408051608081018252600490940290910180546001600160a01b039081168552600182015481169385019390935260028101548316918401919091526003015416606082015260998054919350908a9081106107a8576107a8613971565b6000918252602080832060408051608081018252600494850290920180546001600160a01b039081168452600182015481168486015260028201548116848401526003909101548116606084015292870151875191516328dee51f60e11b8152929650909216926351bdca3e9261082192309201613711565b606060405180830381865afa15801561083e573d6000803e3d6000fd5b505050506040513d601f19601f820116820180604052508101906108629190613987565b505060208401518451604051630f62d51f60e11b81529293506001600160a01b0390911691631ec5aa3e916108a49185906000908190819030906004016139b5565b60408051808303816000875af11580156108c2573d6000803e3d6000fd5b505050506040513d601f19601f820116820180604052508101906108e691906139ef565b505060408084015190516370a0823160e01b81523060048201526000916001600160a01b0316906370a0823190602401602060405180830381865afa158015610933573d6000803e3d6000fd5b505050506040513d601f19601f820116820180604052508101906109579190613a13565b60608501516040516370a0823160e01b81523060048201529192506000916001600160a01b03909116906370a0823190602401602060405180830381865afa1580156109a7573d6000803e3d6000fd5b505050506040513d601f19601f820116820180604052508101906109cb9190613a13565b905083604001516001600160a01b031685604001516001600160a01b031614610c325760008060008060008f8f6004908092610a0993929190613a2c565b810190610a169190613c2e565b955095509550509450945084516001148015610a33575083516001145b610a7f5760405162461bcd60e51b815260206004820152601860248201527f4241445f535741505f415f544f4b454e535f4c454e4754480000000000000000604482015260640161055a565b89604001516001600160a01b031685600081518110610aa057610aa0613971565b6020026020010151600001516001600160a01b031614610afb5760405162461bcd60e51b81526020600482015260166024820152752120a22fa9aba0a82fa0afa4a7282aaa2faa27a5a2a760511b604482015260640161055a565b88604001516001600160a01b031684600081518110610b1c57610b1c613971565b6020026020010151600001516001600160a01b031614610b7e5760405162461bcd60e51b815260206004820152601760248201527f4241445f535741505f415f4f55545055545f544f4b454e000000000000000000604482015260640161055a565b8685600081518110610b9257610b92613971565b60209081029190910181015101526040516378bd22a360e11b815273a32ee1c40594249eb3183c10792bcf573d4da47c9063f17a454690610be3908890889060001990899089908990600401613e35565b6000604051808303816000875af1158015610c02573d6000803e3d6000fd5b505050506040513d6000823e601f3d908101601f19168201604052610c2a9190810190613f1c565b505050505050505b83606001516001600160a01b031685606001516001600160a01b031614610e975760008060008060008d8d6004908092610c6e93929190613a2c565b810190610c7b9190613c2e565b955095509550509450945084516001148015610c98575083516001145b610ce45760405162461bcd60e51b815260206004820152601860248201527f4241445f535741505f425f544f4b454e535f4c454e4754480000000000000000604482015260640161055a565b89606001516001600160a01b031685600081518110610d0557610d05613971565b6020026020010151600001516001600160a01b031614610d605760405162461bcd60e51b81526020600482015260166024820152752120a22fa9aba0a82fa12fa4a7282aaa2faa27a5a2a760511b604482015260640161055a565b88606001516001600160a01b031684600081518110610d8157610d81613971565b6020026020010151600001516001600160a01b031614610de35760405162461bcd60e51b815260206004820152601760248201527f4241445f535741505f425f4f55545055545f544f4b454e000000000000000000604482015260640161055a565b8585600081518110610df757610df7613971565b60209081029190910181015101526040516378bd22a360e11b815273a32ee1c40594249eb3183c10792bcf573d4da47c9063f17a454690610e48908890889060001990899089908990600401613e35565b6000604051808303816000875af1158015610e67573d6000803e3d6000fd5b505050506040513d6000823e601f3d908101601f19168201604052610e8f9190810190613f1c565b505050505050505b6020840151845160408087015190516370a0823160e01b81523060048201526001600160a01b0393841693636505e65e939216906370a0823190602401602060405180830381865afa158015610ef1573d6000803e3d6000fd5b505050506040513d601f19601f82011682018060405250810190610f159190613a13565b60608801516040516370a0823160e01b81523060048201526001600160a01b03909116906370a0823190602401602060405180830381865afa158015610f5f573d6000803e3d6000fd5b505050506040513d601f19601f82011682018060405250810190610f839190613a13565b8b8b306040518763ffffffff1660e01b8152600401610fa796959493929190613fb4565b6060604051808303816000875af1158015610fc6573d6000803e3d6000fd5b505050506040513d601f19601f82011682018060405250810190610fea9190613987565b609a5550506040805160808101808352918601516370a0823160e01b9092523060848201529081906001600160a01b03166370a0823160a48301602060405180830381865afa158015611041573d6000803e3d6000fd5b505050506040513d601f19601f820116820180604052508101906110659190613a13565b815260608601516040516370a0823160e01b81523060048201526020909201916001600160a01b03909116906370a0823190602401602060405180830381865afa1580156110b7573d6000803e3d6000fd5b505050506040513d601f19601f820116820180604052508101906110db9190613a13565b81526020016110e960355490565b8152436020918201528151609b55810151609c55604080820151609d55606090910151609e5560985490518d91907faf62d6e59ad2e54c778a490827e6cb28b1d30794092c7367fdbb261b11de033690600090a350505060989890985550506001606555505050505050565b600080600060996098548154811061116f5761116f613971565b6000918252602080832060408051608081018252600494850290920180546001600160a01b0390811680855260018301548216958501869052600283015482168585015260039092015416606084015290516328dee51f60e11b815291955084936351bdca3e926111e4923092909101613711565b606060405180830381865afa158015611201573d6000803e3d6000fd5b505050506040513d601f19601f820116820180604052508101906112259190613987565b9250925050600061124b876001600160a01b031660009081526033602052604090205490565b9050801561137457600061125e60355490565b90508061126b8584613fec565b611275919061400b565b9650806112828484613fec565b61128c919061400b565b33600090815260a060209081526040808320609e54845290915290205490965060ff161580156112bd5750609d5415155b1561137257609d54609b546001600160a01b038a166000908152609f60209081526040808320609e5484529091529020546112f8908561402d565b6113029190613fec565b61130c919061400b565b61131690886138b1565b609d54609c546001600160a01b038b166000908152609f60209081526040808320609e5484529091529020549299509091611351908561402d565b61135b9190613fec565b611365919061400b565b61136f90876138b1565b95505b505b50505050915091565b600080600060996098548154811061139757611397613971565b600091825260209182902060408051608081018252600493840290920180546001600160a01b0390811680855260018301548216968501879052600283015482168585015260039092015416606084015290516328dee51f60e11b81529194506351bdca3e9261140a9230929101613711565b606060405180830381865afa158015611427573d6000803e3d6000fd5b505050506040513d601f19601f8201168201806040525081019061144b9190613987565b60408481015190516370a0823160e01b81523060048201529296509094506001600160a01b031691506370a0823190602401602060405180830381865afa15801561149a573d6000803e3d6000fd5b505050506040513d601f19601f820116820180604052508101906114be9190613a13565b6114c890846138b1565b60608201516040516370a0823160e01b81523060048201529194506001600160a01b0316906370a0823190602401602060405180830381865afa158015611513573d6000803e3d6000fd5b505050506040513d601f19601f820116820180604052508101906115379190613a13565b61154190836138b1565b9150509091565b609754600090819081906001600160a01b0316331461159c5760405162461bcd60e51b815260206004820152601060248201526f43414c4c45525f4e4f545f42414e584560801b604482015260640161055a565b60a260009054906101000a90046001600160a01b03166001600160a01b0316635c975abb6040518163ffffffff1660e01b8152600401602060405180830381865afa1580156115ef573d6000803e3d6000fd5b505050506040513d601f19601f8201168201806040525081019061161391906138c9565b156116305760405162461bcd60e51b815260040161055a906138eb565b600260655414156116535760405162461bcd60e51b815260040161055a90613915565b600260655560985489146116795760405162461bcd60e51b815260040161055a9061394c565b600060996098548154811061169057611690613971565b600091825260209182902060408051608081018252600490930290910180546001600160a01b03908116845260018201548116948401949094526002810154841691830182905260030154909216606082015291506116f19033308c61283d565b606081015161170b906001600160a01b031633308b61283d565b60208101518151604051633282f32f60e11b81526001600160a01b0390921691636505e65e91611747918d908d908d908d903090600401613fb4565b6060604051808303816000875af1158015611766573d6000803e3d6000fd5b505050506040513d601f19601f8201168201806040525081019061178a9190613987565b509094509250611799856128a8565b91506117be336117a9868c61402d565b60408401516001600160a01b03169190612a3b565b6117e1336117cc858b61402d565b60608401516001600160a01b03169190612a3b565b60985460408051868152602081018690526001600160a01b03881692339290917feb65d0f36862bbd8763c5e2c983c9d753267d223eee35a224d8d0a9d7ef433a2910160405180910390a450600160658190555096509650969350505050565b6060603780546103e390613860565b600080600060996098548154811061186a5761186a613971565b600091825260209182902060408051608081018252600490930290910180546001600160a01b0390811684526001820154811694840194909452600281015484169183018290526003015490921660609091018190529094909350915050565b600033816118d8828661239c565b9050838110156119385760405162461bcd60e51b815260206004820152602560248201527f45524332303a2064656372656173656420616c6c6f77616e63652062656c6f77604482015264207a65726f60d81b606482015260840161055a565b61194582868684036124c6565b506001949350505050565b600033610474818585612664565b6099818154811061196e57600080fd5b600091825260209091206004909102018054600182015460028301546003909301546001600160a01b039283169450908216928216911684565b60006119b46001612a70565b905080156119cc576000805461ff0019166101001790555b6001600160a01b038216611a165760405162461bcd60e51b81526020600482015260116024820152704241445f42414e58455f4144445245535360781b604482015260640161055a565b60028410801590611a28575060328411155b611a655760405162461bcd60e51b815260206004820152600e60248201526d10905117d413d3d317d0d3d5539560921b604482015260640161055a565b611ac160405180604001604052806016815260200175554e4f2d42616e78652d4175746f537472617465677960501b8152506040518060400160405280600c81526020016b0554e4f2d42414e58452d4c560a41b815250612afd565b611ac9612b32565b60005b84811015612076576000868683818110611ae857611ae8613971565b9050604002016020016020810190611b00919061369f565b6001600160a01b031663450efe21888885818110611b2057611b20613971565b611b36926020604090920201908101915061369f565b6040516001600160e01b031960e084901b1681526001600160a01b039091166004820152602401600060405180830381865afa158015611b7a573d6000803e3d6000fd5b505050506040513d6000823e601f3d908101601f19168201604052611ba29190810190614044565b905060006040518060800160405280898986818110611bc357611bc3613971565b611bd9926020604090920201908101915061369f565b6001600160a01b03168152602001898986818110611bf957611bf9613971565b9050604002016020016020810190611c11919061369f565b6001600160a01b0316815260200183600081518110611c3257611c32613971565b60200260200101516001600160a01b0316815260200183600181518110611c5b57611c5b613971565b6020908102919091018101516001600160a01b0390811690925260998054600181018255600091909152835160049182027f72a152ddfb8e864297c917af52ea6c1c68aead0fee1a62673fcc7e0c94979d00810180549286166001600160a01b0319938416179055928501517f72a152ddfb8e864297c917af52ea6c1c68aead0fee1a62673fcc7e0c94979d01840180548287169084161790556040808701517f72a152ddfb8e864297c917af52ea6c1c68aead0fee1a62673fcc7e0c94979d02860180549188169185168217905560608801517f72a152ddfb8e864297c917af52ea6c1c68aead0fee1a62673fcc7e0c94979d0390960180549690971695909316949094179094559151636eb1769f60e11b8152939450909263dd62ed3e92611d8792309201613711565b602060405180830381865afa158015611da4573d6000803e3d6000fd5b505050506040513d601f19601f82011682018060405250810190611dc89190613a13565b611ed957604080820151905163095ea7b360e01b815273a32ee1c40594249eb3183c10792bcf573d4da47c600482015260001960248201526001600160a01b039091169063095ea7b3906044016020604051808303816000875af1158015611e34573d6000803e3d6000fd5b505050506040513d601f19601f82011682018060405250810190611e5891906138c9565b506040808201516020830151915163095ea7b360e01b81526001600160a01b039283166004820152600019602482015291169063095ea7b3906044016020604051808303816000875af1158015611eb3573d6000803e3d6000fd5b505050506040513d601f19601f82011682018060405250810190611ed791906138c9565b505b80606001516001600160a01b031663dd62ed3e3083602001516040518363ffffffff1660e01b8152600401611f0f929190613711565b602060405180830381865afa158015611f2c573d6000803e3d6000fd5b505050506040513d601f19601f82011682018060405250810190611f509190613a13565b61206157606081015160405163095ea7b360e01b815273a32ee1c40594249eb3183c10792bcf573d4da47c600482015260001960248201526001600160a01b039091169063095ea7b3906044016020604051808303816000875af1158015611fbc573d6000803e3d6000fd5b505050506040513d601f19601f82011682018060405250810190611fe091906138c9565b506060810151602082015160405163095ea7b360e01b81526001600160a01b039182166004820152600019602482015291169063095ea7b3906044016020604051808303816000875af115801561203b573d6000803e3d6000fd5b505050506040513d601f19601f8201168201806040525081019061205f91906138c9565b505b5050808061206e906140d2565b915050611acc565b50609780546001600160a01b0319166001600160a01b0384169081179091556040516000907f4be5b0d7ef264079a52c66e913760fafaafd4f87f3a5a26e8ab0c1f70b1794c1908290a360a180546001600160a01b0385166001600160a01b03199182161790915543609e5560a28054909116331790558015612133576000805461ff0019169055604051600181527f7f26b83ff96e1f2b6a682f133852f6798a09c465da95921460cefb38474024989060200160405180910390a15b5050505050565b60008060a260009054906101000a90046001600160a01b03166001600160a01b0316635c975abb6040518163ffffffff1660e01b8152600401602060405180830381865afa158015612190573d6000803e3d6000fd5b505050506040513d601f19601f820116820180604052508101906121b491906138c9565b156121d15760405162461bcd60e51b815260040161055a906138eb565b600260655414156121f45760405162461bcd60e51b815260040161055a90613915565b6002606555609854871461221a5760405162461bcd60e51b815260040161055a9061394c565b600060996098548154811061223157612231613971565b6000918252602080832060408051608081018252600490940290910180546001600160a01b039081168552600182015481169385019390935260028101548316918401919091526003015416606082015291508061228e86612b63565b91509150600061229d8a612d02565b60208501518551604051630f62d51f60e11b81529293506001600160a01b0390911691631ec5aa3e916122dd9185908e908e906000908f906004016139b5565b60408051808303816000875af11580156122fb573d6000803e3d6000fd5b505050506040513d601f19601f8201168201806040525081019061231f91906139ef565b909650945061232e83876138b1565b955061233a82866138b1565b60985460408051898152602081018490529297506001600160a01b038a16923392917ffe7813e2866053d5c3938554e517b554fce6666a6561bed9eaa7419b29fa9b68910160405180910390a450506001606555509197909650945050505050565b6001600160a01b03918216600090815260346020908152604080832093909416825291909152205490565b6097546001600160a01b031633146124145760405162461bcd60e51b815260206004820152601060248201526f43414c4c45525f4e4f545f42414e584560801b604482015260640161055a565b6001600160a01b03811661246a5760405162461bcd60e51b815260206004820152601860248201527f5452414e534645525f544f5f5a45524f5f414444524553530000000000000000604482015260640161055a565b6097546040516001600160a01b038084169216907f4be5b0d7ef264079a52c66e913760fafaafd4f87f3a5a26e8ab0c1f70b1794c190600090a3609780546001600160a01b0319166001600160a01b0392909216919091179055565b6001600160a01b0383166125285760405162461bcd60e51b8152602060048201526024808201527f45524332303a20617070726f76652066726f6d20746865207a65726f206164646044820152637265737360e01b606482015260840161055a565b6001600160a01b0382166125895760405162461bcd60e51b815260206004820152602260248201527f45524332303a20617070726f766520746f20746865207a65726f206164647265604482015261737360f01b606482015260840161055a565b6001600160a01b0383811660008181526034602090815260408083209487168084529482529182902085905590518481527f8c5be1e5ebec7d5bd14f71427d1e84f3dd0314c0f7b2291e5b200ac8c7c3b925910160405180910390a3505050565b60006125f6848461239c565b9050600019811461265e57818110156126515760405162461bcd60e51b815260206004820152601d60248201527f45524332303a20696e73756666696369656e7420616c6c6f77616e6365000000604482015260640161055a565b61265e84848484036124c6565b50505050565b6001600160a01b0383166126c85760405162461bcd60e51b815260206004820152602560248201527f45524332303a207472616e736665722066726f6d20746865207a65726f206164604482015264647265737360d81b606482015260840161055a565b6001600160a01b03821661272a5760405162461bcd60e51b815260206004820152602360248201527f45524332303a207472616e7366657220746f20746865207a65726f206164647260448201526265737360e81b606482015260840161055a565b612735838383612e60565b6001600160a01b038316600090815260336020526040902054818110156127ad5760405162461bcd60e51b815260206004820152602660248201527f45524332303a207472616e7366657220616d6f756e7420657863656564732062604482015265616c616e636560d01b606482015260840161055a565b6001600160a01b038085166000908152603360205260408082208585039055918516815290812080548492906127e49084906138b1565b92505081905550826001600160a01b0316846001600160a01b03167fddf252ad1be2c89b69c2b068fc378daa952ba7f163c4a11628f55a4df523b3ef8460405161283091815260200190565b60405180910390a361265e565b6040516001600160a01b038085166024830152831660448201526064810182905261265e9085906323b872dd60e01b906084015b60408051601f198184030181529190526020810180516001600160e01b03166001600160e01b031990931692909217909152612f32565b6000806099609854815481106128c0576128c0613971565b6000918252602080832060408051608081018252600494850290920180546001600160a01b0390811680855260018301548216958501869052600283015482168585015260039092015416606084015290516328dee51f60e11b815291955091926351bdca3e9261293392309201613711565b606060405180830381865afa158015612950573d6000803e3d6000fd5b505050506040513d601f19601f820116820180604052508101906129749190613987565b505090506000609a5482612988919061402d565b9050600061299560355490565b9050806129bc576129a86103e88361402d565b94506129b760016103e8613004565b6129d6565b609a546129c98284613fec565b6129d3919061400b565b94505b60008511612a265760405162461bcd60e51b815260206004820152601d60248201527f494e53554646494349454e545f4c49515549444954595f4d494e544544000000604482015260640161055a565b612a308686613004565b5050609a5550919050565b6040516001600160a01b038316602482015260448101829052612a6b90849063a9059cbb60e01b90606401612871565b505050565b60008054610100900460ff1615612ab7578160ff166001148015612a935750303b155b612aaf5760405162461bcd60e51b815260040161055a906140ed565b506000919050565b60005460ff808416911610612ade5760405162461bcd60e51b815260040161055a906140ed565b506000805460ff191660ff92909216919091179055600190565b919050565b600054610100900460ff16612b245760405162461bcd60e51b815260040161055a9061413b565b612b2e82826130ef565b5050565b600054610100900460ff16612b595760405162461bcd60e51b815260040161055a9061413b565b612b6161313d565b565b33600090815260a060209081526040808320609e548452909152812054819060ff16612cfd57609d5415612cd5576000609960985481548110612ba857612ba8613971565b600091825260208083206040805160808101825260049490940290910180546001600160a01b03908116855260018201548116858501526002820154811685840152600390910154166060840152609d54609b5433808752609f8552838720609e5488528552838720549087526033909452919094205492945091612c2d919061402d565b612c379190613fec565b612c41919061400b565b609d54609c54336000818152609f60209081526040808320609e548452825280832054938352603390915290205493965091929091612c7f9161402d565b612c899190613fec565b612c93919061400b565b91508215612cb4576040810151612cb4906001600160a01b03168585612a3b565b8115612cd3576060810151612cd3906001600160a01b03168584612a3b565b505b33600090815260a060209081526040808320609e5484529091529020805460ff191660011790555b915091565b600080609960985481548110612d1a57612d1a613971565b6000918252602080832060408051608081018252600494850290920180546001600160a01b0390811680855260018301548216958501869052600283015482168585015260039092015416606084015290516328dee51f60e11b815291955091926351bdca3e92612d8d92309201613711565b606060405180830381865afa158015612daa573d6000803e3d6000fd5b505050506040513d601f19601f82011682018060405250810190612dce9190613987565b50509050612ddb60355490565b612de58286613fec565b612def919061400b565b925060008311612e415760405162461bcd60e51b815260206004820152601d60248201527f494e53554646494349454e545f4c49515549444954595f4255524e4544000000604482015260640161055a565b612e4b338561316b565b612e55838261402d565b609a55509092915050565b6001600160a01b0383166000908152609f60209081526040808320609e548452909152902054811115612eb8576001600160a01b0383166000908152609f60209081526040808320609e548452909152812055612ef3565b6001600160a01b0383166000908152609f60209081526040808320609e54845290915281208054839290612eed90849061402d565b90915550505b6001600160a01b0382166000908152609f60209081526040808320609e54845290915281208054839290612f289084906138b1565b9091555050505050565b6000612f87826040518060400160405280602081526020017f5361666545524332303a206c6f772d6c6576656c2063616c6c206661696c6564815250856001600160a01b03166132c59092919063ffffffff16565b805190915015612a6b5780806020019051810190612fa591906138c9565b612a6b5760405162461bcd60e51b815260206004820152602a60248201527f5361666545524332303a204552433230206f7065726174696f6e20646964206e6044820152691bdd081cdd58d8d9595960b21b606482015260840161055a565b6001600160a01b03821661305a5760405162461bcd60e51b815260206004820152601f60248201527f45524332303a206d696e7420746f20746865207a65726f206164647265737300604482015260640161055a565b61306660008383612e60565b806035600082825461307891906138b1565b90915550506001600160a01b038216600090815260336020526040812080548392906130a59084906138b1565b90915550506040518181526001600160a01b038316906000907fddf252ad1be2c89b69c2b068fc378daa952ba7f163c4a11628f55a4df523b3ef9060200160405180910390a35050565b600054610100900460ff166131165760405162461bcd60e51b815260040161055a9061413b565b8151613129906036906020850190613446565b508051612a6b906037906020840190613446565b600054610100900460ff166131645760405162461bcd60e51b815260040161055a9061413b565b6001606555565b6001600160a01b0382166131cb5760405162461bcd60e51b815260206004820152602160248201527f45524332303a206275726e2066726f6d20746865207a65726f206164647265736044820152607360f81b606482015260840161055a565b6131d782600083612e60565b6001600160a01b0382166000908152603360205260409020548181101561324b5760405162461bcd60e51b815260206004820152602260248201527f45524332303a206275726e20616d6f756e7420657863656564732062616c616e604482015261636560f01b606482015260840161055a565b6001600160a01b038316600090815260336020526040812083830390556035805484929061327a90849061402d565b90915550506040518281526000906001600160a01b038516907fddf252ad1be2c89b69c2b068fc378daa952ba7f163c4a11628f55a4df523b3ef9060200160405180910390a3505050565b60606132d484846000856132dc565b949350505050565b60608247101561333d5760405162461bcd60e51b815260206004820152602660248201527f416464726573733a20696e73756666696369656e742062616c616e636520666f6044820152651c8818d85b1b60d21b606482015260840161055a565b6001600160a01b0385163b6133945760405162461bcd60e51b815260206004820152601d60248201527f416464726573733a2063616c6c20746f206e6f6e2d636f6e7472616374000000604482015260640161055a565b600080866001600160a01b031685876040516133b09190614186565b60006040518083038185875af1925050503d80600081146133ed576040519150601f19603f3d011682016040523d82523d6000602084013e6133f2565b606091505b509150915061340282828661340d565b979650505050505050565b6060831561341c57508161049d565b82511561342c5782518084602001fd5b8160405162461bcd60e51b815260040161055a9190613537565b82805461345290613860565b90600052602060002090601f01602090048101928261347457600085556134ba565b82601f1061348d57805160ff19168380011785556134ba565b828001600101855582156134ba579182015b828111156134ba57825182559160200191906001019061349f565b506134c69291506134ca565b5090565b5b808211156134c657600081556001016134cb565b60005b838110156134fa5781810151838201526020016134e2565b8381111561265e5750506000910152565b600081518084526135238160208601602086016134df565b601f01601f19169290920160200192915050565b60208152600061049d602083018461350b565b6001600160a01b038116811461355f57600080fd5b50565b6000806040838503121561357557600080fd5b82356135808161354a565b946020939093013593505050565b6000806000606084860312156135a357600080fd5b83356135ae8161354a565b925060208401356135be8161354a565b929592945050506040919091013590565b60008083601f8401126135e157600080fd5b5081356001600160401b038111156135f857600080fd5b60208301915083602082850101111561361057600080fd5b9250929050565b600080600080600080600060a0888a03121561363257600080fd5b8735965060208801356001600160401b038082111561365057600080fd5b61365c8b838c016135cf565b909850965060408a013591508082111561367557600080fd5b506136828a828b016135cf565b989b979a5095989597966060870135966080013595509350505050565b6000602082840312156136b157600080fd5b813561049d8161354a565b60008060008060008060c087890312156136d557600080fd5b863595506020870135945060408701359350606087013592506080870135915060a08701356137038161354a565b809150509295509295509295565b6001600160a01b0392831681529116602082015260400190565b60006020828403121561373d57600080fd5b5035919050565b6000806000806060858703121561375a57600080fd5b84356001600160401b038082111561377157600080fd5b818701915087601f83011261378557600080fd5b81358181111561379457600080fd5b8860208260061b85010111156137a957600080fd5b602092830196509450508501356137bf8161354a565b915060408501356137cf8161354a565b939692955090935050565b600080600080600060a086880312156137f257600080fd5b8535945060208601359350604086013592506060860135915060808601356138198161354a565b809150509295509295909350565b6000806040838503121561383a57600080fd5b82356138458161354a565b915060208301356138558161354a565b809150509250929050565b600181811c9082168061387457607f821691505b6020821081141561389557634e487b7160e01b600052602260045260246000fd5b50919050565b634e487b7160e01b600052601160045260246000fd5b600082198211156138c4576138c461389b565b500190565b6000602082840312156138db57600080fd5b8151801515811461049d57600080fd5b60208082526010908201526f14105554d05093114e8814105554d15160821b604082015260600190565b6020808252601f908201527f5265656e7472616e637947756172643a207265656e7472616e742063616c6c00604082015260600190565b6020808252600b908201526a10905117d413d3d317d25160aa1b604082015260600190565b634e487b7160e01b600052603260045260246000fd5b60008060006060848603121561399c57600080fd5b8351925060208401519150604084015190509250925092565b6001600160a01b0396871681526020810195909552604085019390935260608401919091521515608083015290911660a082015260c00190565b60008060408385031215613a0257600080fd5b505080516020909101519092909150565b600060208284031215613a2557600080fd5b5051919050565b60008085851115613a3c57600080fd5b83861115613a4957600080fd5b5050820193919092039150565b634e487b7160e01b600052604160045260246000fd5b604051606081016001600160401b0381118282101715613a8e57613a8e613a56565b60405290565b604051608081016001600160401b0381118282101715613a8e57613a8e613a56565b604051601f8201601f191681016001600160401b0381118282101715613ade57613ade613a56565b604052919050565b60006001600160401b03821115613aff57613aff613a56565b5060051b60200190565b600082601f830112613b1a57600080fd5b81356001600160401b03811115613b3357613b33613a56565b613b46601f8201601f1916602001613ab6565b818152846020838601011115613b5b57600080fd5b816020850160208301376000918101602001919091529392505050565b600082601f830112613b8957600080fd5b81356020613b9e613b9983613ae6565b613ab6565b82815260609283028501820192828201919087851115613bbd57600080fd5b8387015b85811015613c165781818a031215613bd95760008081fd5b613be1613a6c565b8135613bec8161354a565b81528186013586820152604080830135613c058161354a565b908201528452928401928101613bc1565b5090979650505050505050565b8035612af88161354a565b60008060008060008060c08789031215613c4757600080fd5b6001600160401b0387351115613c5c57600080fd5b8635870188601f820112613c6f57600080fd5b613c7c613b998235613ae6565b81358082526020808301929160051b8401018b1015613c9a57600080fd5b602083015b6020843560051b850101811015613d59576001600160401b0381351115613cc557600080fd5b803584016080818e03601f19011215613cdd57600080fd5b613ce5613a94565b613cf2602083013561354a565b6020820135815260408201356020820152613d10606083013561354a565b606082013560408201526001600160401b0360808301351115613d3257600080fd5b613d458e60206080850135850101613b09565b606082015284525060209283019201613c9f565b50975050506001600160401b0360208801351115613d7657600080fd5b613d868860208901358901613b78565b94506040870135935060608701359250613da260808801613c23565b91506001600160401b0360a08801351115613dbc57600080fd5b613dcc8860a08901358901613b09565b90509295509295509295565b600081518084526020808501945080840160005b83811015613e2a57815180516001600160a01b03908116895284820151858a0152604091820151169088015260609096019590820190600101613dec565b509495945050505050565b600060c0820160c0835280895180835260e08501915060e08160051b86010192506020808c0160005b83811015613ec45787860360df19018552815180516001600160a01b039081168852848201518589015260408083015190911690880152606090810151608091880182905290613eb08189018361350b565b975050509382019390820190600101613e5e565b505085840381870152505050613eda8189613dd8565b9050866040840152856060840152613efd60808401866001600160a01b03169052565b82810360a0840152613f0f818561350b565b9998505050505050505050565b60008060408385031215613f2f57600080fd5b82516001600160401b03811115613f4557600080fd5b8301601f81018513613f5657600080fd5b80516020613f66613b9983613ae6565b82815260059290921b83018101918181019088841115613f8557600080fd5b938201935b83851015613fa357845182529382019390820190613f8a565b969091015195979596505050505050565b6001600160a01b039687168152602081019590955260408501939093526060840191909152608083015290911660a082015260c00190565b60008160001904831182151516156140065761400661389b565b500290565b60008261402857634e487b7160e01b600052601260045260246000fd5b500490565b60008282101561403f5761403f61389b565b500390565b6000602080838503121561405757600080fd5b82516001600160401b0381111561406d57600080fd5b8301601f8101851361407e57600080fd5b805161408c613b9982613ae6565b81815260059190911b820183019083810190878311156140ab57600080fd5b928401925b828410156134025783516140c38161354a565b825292840192908401906140b0565b60006000198214156140e6576140e661389b565b5060010190565b6020808252602e908201527f496e697469616c697a61626c653a20636f6e747261637420697320616c72656160408201526d191e481a5b9a5d1a585b1a5e995960921b606082015260800190565b6020808252602b908201527f496e697469616c697a61626c653a20636f6e7472616374206973206e6f74206960408201526a6e697469616c697a696e6760a81b606082015260800190565b600082516141988184602087016134df565b919091019291505056fea2646970667358221220061908aedf276a0da3c1dba19debd16ff1ff73de0d491852fc4e5167ea2a6fa364736f6c634300080a0033",
  "immutableReferences": {},
  "source": "// SPDX-License-Identifier: MIT\r\npragma solidity 0.8.10;\r\nimport \"../interfaces/IOdosRouter.sol\";\r\nimport \"../interfaces/IUnoAssetRouter.sol\";   \r\nimport \"../interfaces/IUnoAutoStrategyFactory.sol\";\r\nimport '@openzeppelin/contracts-upgradeable/security/ReentrancyGuardUpgradeable.sol';\r\nimport '@openzeppelin/contracts-upgradeable/token/ERC20/ERC20Upgradeable.sol';\r\nimport '@openzeppelin/contracts-upgradeable/token/ERC20/utils/SafeERC20Upgradeable.sol';\r\n\r\ncontract UnoAutoStrategyBanxe is Initializable, ERC20Upgradeable, ReentrancyGuardUpgradeable {\r\n    using SafeERC20Upgradeable for IERC20Upgradeable;\r\n    /**\r\n     * @dev PoolInfo:\r\n     * {assetRouter} - UnoAssetRouter contract.\r\n     * {pool} - Pool address. \r\n     * {tokenA} - Pool's first token address.\r\n     * {tokenB} - Pool's second token address.\r\n     */\r\n    struct _PoolInfo {\r\n        address pool;\r\n        IUnoAssetRouter assetRouter;\r\n    }\r\n\r\n    struct PoolInfo {\r\n        address pool;\r\n        IUnoAssetRouter assetRouter;\r\n        IERC20Upgradeable tokenA;\r\n        IERC20Upgradeable tokenB;\r\n    }\r\n\r\n    /**\r\n     * @dev MoveLiquidityInfo:\r\n     * {leftoverA} - TokenA leftovers after MoveLiquidity() call.\r\n     * {leftoverB} - TokenB leftovers after MoveLiquidity() call. \r\n     * {totalSupply} - totalSupply after MoveLiquidity() call.\r\n     * {block} - MoveLiquidity() call block.\r\n     */\r\n    struct MoveLiquidityInfo {\r\n        uint256 leftoverA;\r\n        uint256 leftoverB;\r\n        uint256 totalSupply;\r\n        uint256 block;\r\n    }\r\n    \r\n    /**\r\n     * @dev Contract Variables:\r\n     * banxe - Banxe account that can make deposits to autostrats.\r\n     * {OdosRouter} - Contract that executes swaps.\r\n\r\n     * {poolID} - Current pool the strategy uses ({pools} index).\r\n     * {pools} - Pools this strategy can use and move liquidity to.\r\n\r\n     * {reserveLP} - LP token reserve.\r\n     * {lastMoveInfo} - Info on last MoveLiquidity() block.\r\n     * {blockedLiquidty} - User's blocked LP tokens. Prevents user from stealing leftover tokens by depositing and exiting before moveLiquidity() has been called.\r\n     * {leftoversCollected} - Flag that prevents leftover token collection if they were already collected this MoveLiquidity() cycle.\r\n\r\n     * {accessManager} - Role manager contract.\r\n     * {factory} - The address of AutoStrategyFactory this contract was deployed by.\r\n\r\n     * {MINIMUM_LIQUIDITY} - Ameliorates rounding errors.\r\n     */\r\n\r\n    address public banxe;\r\n    IOdosRouter private constant OdosRouter = IOdosRouter(0xa32EE1C40594249eb3183c10792BcF573D4Da47C);\r\n\r\n    uint256 public poolID;\r\n    PoolInfo[] public pools;\r\n\r\n    uint256 private reserveLP;\r\n    MoveLiquidityInfo private lastMoveInfo;\r\n    mapping(address => mapping(uint256 => uint256)) private blockedLiquidty;\r\n    mapping(address => mapping(uint256 => bool)) private leftoversCollected;\r\n\r\n    IUnoAccessManager public accessManager;\r\n    IUnoAutoStrategyFactory public factory;\r\n\r\n    uint256 private constant MINIMUM_LIQUIDITY = 10**3;\r\n    bytes32 private constant LIQUIDITY_MANAGER_ROLE = keccak256('LIQUIDITY_MANAGER_ROLE');\r\n\r\n    event Deposit(uint256 indexed poolID, address indexed from, address indexed recipient, uint256 amountA, uint256 amountB);\r\n    event Withdraw(uint256 indexed poolID, address indexed from, address indexed recipient, uint256 amountA, uint256 amountB);\r\n    event MoveLiquidity(uint256 indexed previousPoolID, uint256 indexed nextPoolID);\r\n    event BanxeTransferred(address indexed previousBanxe, address indexed newBanxe);\r\n\r\n    modifier whenNotPaused(){\r\n        require(factory.paused() == false, 'PAUSABLE: PAUSED');\r\n        _;\r\n    }\r\n\r\n    modifier onlyBanxe(){\r\n        require(msg.sender == banxe, \"CALLER_NOT_BANXE\");\r\n        _;\r\n    }\r\n\r\n    // ============ Methods ============\r\n    function initialize(_PoolInfo[] calldata poolInfos, IUnoAccessManager _accessManager, address _banxe) external initializer {\r\n        require (_banxe != address(0), \"BAD_BANXE_ADDRESS\");\r\n        require ((poolInfos.length >= 2) && (poolInfos.length <= 50), 'BAD_POOL_COUNT');\r\n\r\n        __ERC20_init(\"UNO-Banxe-AutoStrategy\", \"UNO-BANXE-LP\");\r\n        __ReentrancyGuard_init();\r\n        \r\n        for (uint256 i = 0; i < poolInfos.length; i++) {\r\n            address[] memory _tokens = IUnoAssetRouter(poolInfos[i].assetRouter).getTokens(poolInfos[i].pool);\r\n            PoolInfo memory pool = PoolInfo({\r\n                pool: poolInfos[i].pool,\r\n                assetRouter: poolInfos[i].assetRouter,\r\n                tokenA: IERC20Upgradeable(_tokens[0]),\r\n                tokenB: IERC20Upgradeable(_tokens[1])\r\n            });\r\n            pools.push(pool);\r\n\r\n            if (pool.tokenA.allowance(address(this), address(pool.assetRouter)) == 0) {\r\n                pool.tokenA.approve(address(OdosRouter), type(uint256).max);\r\n                pool.tokenA.approve(address(pool.assetRouter), type(uint256).max);\r\n            }\r\n            if (pool.tokenB.allowance(address(this), address(pool.assetRouter)) == 0) {\r\n                pool.tokenB.approve(address(OdosRouter), type(uint256).max);\r\n                pool.tokenB.approve(address(pool.assetRouter), type(uint256).max);\r\n            }\r\n        }\r\n\r\n        banxe = _banxe;\r\n        emit BanxeTransferred(address(0), _banxe);\r\n\r\n        accessManager = _accessManager;\r\n        lastMoveInfo.block = block.number;\r\n        factory = IUnoAutoStrategyFactory(msg.sender);\r\n    }\r\n\r\n    /**\r\n     * @dev Deposits tokens in the pools[poolID] pool. Mints tokens representing user share. Emits {Deposit} event.\r\n     * @param pid - Current poolID. Throws revert if moveLiquidity() has been called before the transaction has been mined.\r\n     * @param amountA - Token A amount to deposit.\r\n     * @param amountB  - Token B amount to deposit.\r\n     * @param amountAMin - Bounds the extent to which the B/A price can go up before the transaction reverts.\r\n     * @param amountBMin - Bounds the extent to which the A/B price can go up before the transaction reverts.\r\n     * @param recipient - Address which will receive the deposit.\r\n     \r\n     * @return sentA - Deposited token A amount.\r\n     * @return sentB - Deposited token B amount.\r\n     * @return liquidity - Total liquidity minted for the {recipient}.\r\n     */\r\n    function deposit(uint256 pid, uint256 amountA, uint256 amountB, uint256 amountAMin, uint256 amountBMin, address recipient) onlyBanxe whenNotPaused nonReentrant external returns (uint256 sentA, uint256 sentB, uint256 liquidity) {\r\n        require (pid == poolID, 'BAD_POOL_ID');\r\n        PoolInfo memory pool = pools[poolID];\r\n\r\n        pool.tokenA.safeTransferFrom(msg.sender, address(this), amountA);\r\n        pool.tokenB.safeTransferFrom(msg.sender, address(this), amountB);\r\n\r\n        (sentA, sentB,) = pool.assetRouter.deposit(pool.pool, amountA, amountB, amountAMin, amountBMin, address(this));\r\n        liquidity = mint(recipient);\r\n\r\n        pool.tokenA.safeTransfer(msg.sender, amountA - sentA);\r\n        pool.tokenB.safeTransfer(msg.sender, amountB - sentB);\r\n\r\n        emit Deposit(poolID, msg.sender, recipient, sentA, sentB); \r\n    }\r\n\r\n    /**\r\n     * @dev Withdraws tokens from the {pools[poolID]} pool and sends them to the recipient. Burns tokens representing user share. Emits {Withdraw} event.\r\n     * @param pid - Current poolID. Throws revert if moveLiquidity() has been called before the transaction has been mined.\r\n     * @param liquidity - Liquidity to burn from this user.\r\n     * @param amountAMin - The minimum amount of tokenA that must be received from the pool for the transaction not to revert.\r\n     * @param amountBMin - The minimum amount of tokenB that must be received from the pool for the transaction not to revert.\r\n     * @param recipient - Address which will receive withdrawn tokens.\r\n     \r\n     * @return amountA - Token A amount sent to the {recipient}.\r\n     * @return amountB - Token B amount sent to the {recipient}.\r\n     */\r\n    function withdraw(uint256 pid, uint256 liquidity, uint256 amountAMin, uint256 amountBMin, address recipient) whenNotPaused nonReentrant external returns (uint256 amountA, uint256 amountB) {\r\n        require (pid == poolID, 'BAD_POOL_ID');\r\n        PoolInfo memory pool = pools[poolID];\r\n\r\n        (uint256 leftoverA, uint256 leftoverB) = collectLeftovers(recipient);\r\n\r\n        uint256 amountLP = burn(liquidity);\r\n        (amountA, amountB) = pool.assetRouter.withdraw(pool.pool, amountLP, amountAMin, amountBMin, false, recipient);\r\n\r\n        amountA += leftoverA;\r\n        amountB += leftoverB;\r\n\r\n        emit Withdraw(poolID, msg.sender, recipient, amountA, amountB);\r\n    }\r\n\r\n    /**\r\n     * @dev Collects leftover tokens left from moveLiquidity() function.\r\n     * @param recipient - Address which will receive leftover tokens.\r\n     \r\n     * @return leftoverA - Token A amount sent to the {recipient}.\r\n     * @return leftoverB - Token B amount sent to the {recipient}.\r\n     */\r\n    function collectLeftovers(address recipient) internal returns (uint256 leftoverA, uint256 leftoverB){\r\n        if(!leftoversCollected[msg.sender][lastMoveInfo.block]){\r\n            if(lastMoveInfo.totalSupply != 0){\r\n                PoolInfo memory pool = pools[poolID];\r\n                leftoverA = (balanceOf(msg.sender) - blockedLiquidty[msg.sender][lastMoveInfo.block]) * lastMoveInfo.leftoverA / lastMoveInfo.totalSupply;\r\n                leftoverB = (balanceOf(msg.sender) - blockedLiquidty[msg.sender][lastMoveInfo.block]) * lastMoveInfo.leftoverB / lastMoveInfo.totalSupply;\r\n\r\n                if(leftoverA > 0){\r\n                    pool.tokenA.safeTransfer(recipient, leftoverA);\r\n                }\r\n                if(leftoverB > 0){\r\n                    pool.tokenB.safeTransfer(recipient, leftoverB);\r\n                }\r\n            }\r\n\r\n            leftoversCollected[msg.sender][lastMoveInfo.block] = true;\r\n        }\r\n    }\r\n\r\n    /**\r\n     * @dev Moves liquidity from {pools[poolID]} to {pools[_poolID]}. Emits {MoveLiquidity} event.\r\n     * @param _poolID - Pool ID to move liquidity to.\r\n     * @param swapAData - Data for tokenA swap.\r\n     * @param swapBData - Data for tokenB swap.\r\n     * @param amountAMin - The minimum amount of tokenA that must be deposited in {pools[_poolID]} for the transaction not to revert.\r\n     * @param amountBMin - The minimum amount of tokenB that must be deposited in {pools[_poolID]} for the transaction not to revert.\r\n     *\r\n     * Note: This function can only be called by LiquidityManager.\r\n     */\r\n    function moveLiquidity(uint256 _poolID, bytes calldata swapAData, bytes calldata swapBData, uint256 amountAMin, uint256 amountBMin) whenNotPaused nonReentrant external {\r\n        require(accessManager.hasRole(LIQUIDITY_MANAGER_ROLE, msg.sender), 'CALLER_NOT_LIQUIDITY_MANAGER');\r\n        require(totalSupply() != 0, 'NO_LIQUIDITY');\r\n        require(lastMoveInfo.block != block.number, 'CANT_CALL_ON_THE_SAME_BLOCK');\r\n        require((_poolID < pools.length) && (_poolID != poolID), 'BAD_POOL_ID');\r\n\r\n        PoolInfo memory currentPool = pools[poolID];\r\n        PoolInfo memory newPool = pools[_poolID];\r\n\r\n        (uint256 _totalDeposits,,) = currentPool.assetRouter.userStake(address(this), currentPool.pool);\r\n        currentPool.assetRouter.withdraw(currentPool.pool, _totalDeposits, 0, 0, false, address(this));\r\n\r\n        uint256 tokenABalance = currentPool.tokenA.balanceOf(address(this));\r\n        uint256 tokenBBalance = currentPool.tokenB.balanceOf(address(this));\r\n\r\n        if(currentPool.tokenA != newPool.tokenA){\r\n            (\r\n                IOdosRouter.inputToken[] memory inputs, \r\n                IOdosRouter.outputToken[] memory outputs, \r\n                ,\r\n                uint256 valueOutMin,\r\n                address executor,\r\n                bytes memory pathDefinition\r\n            ) = abi.decode(swapAData[4:], (IOdosRouter.inputToken[],IOdosRouter.outputToken[],uint256,uint256,address,bytes));\r\n\r\n            require((inputs.length == 1) && (outputs.length == 1), 'BAD_SWAP_A_TOKENS_LENGTH');\r\n            require(inputs[0].tokenAddress == address(currentPool.tokenA), 'BAD_SWAP_A_INPUT_TOKEN');\r\n            require(outputs[0].tokenAddress == address(newPool.tokenA), 'BAD_SWAP_A_OUTPUT_TOKEN');\r\n\r\n            inputs[0].amountIn = tokenABalance;\r\n            OdosRouter.swap(inputs, outputs, type(uint256).max, valueOutMin, executor, pathDefinition);\r\n        }\r\n\r\n        if(currentPool.tokenB != newPool.tokenB){\r\n            (\r\n                IOdosRouter.inputToken[] memory inputs,\r\n                IOdosRouter.outputToken[] memory outputs,\r\n                ,\r\n                uint256 valueOutMin,\r\n                address executor,\r\n                bytes memory pathDefinition\r\n            ) = abi.decode(swapBData[4:], (IOdosRouter.inputToken[],IOdosRouter.outputToken[],uint256,uint256,address,bytes));\r\n\r\n            require((inputs.length == 1) && (outputs.length == 1), 'BAD_SWAP_B_TOKENS_LENGTH');\r\n            require(inputs[0].tokenAddress == address(currentPool.tokenB), 'BAD_SWAP_B_INPUT_TOKEN');\r\n            require(outputs[0].tokenAddress == address(newPool.tokenB), 'BAD_SWAP_B_OUTPUT_TOKEN');\r\n\r\n            inputs[0].amountIn = tokenBBalance;\r\n            OdosRouter.swap(inputs, outputs, type(uint256).max, valueOutMin, executor, pathDefinition);\r\n        }\r\n        \r\n        (,,reserveLP) = newPool.assetRouter.deposit(newPool.pool, newPool.tokenA.balanceOf(address(this)), newPool.tokenB.balanceOf(address(this)), amountAMin, amountBMin, address(this));\r\n       \r\n        lastMoveInfo = MoveLiquidityInfo({\r\n            leftoverA: newPool.tokenA.balanceOf(address(this)),\r\n            leftoverB: newPool.tokenB.balanceOf(address(this)),\r\n            totalSupply: totalSupply(),\r\n            block: block.number\r\n        });\r\n\r\n        emit MoveLiquidity(poolID, _poolID); \r\n        poolID = _poolID;\r\n    }\r\n\r\n    /**\r\n     * @dev Returns tokens staked by the {_address}. \r\n     * @param _address - The address to check stakes for.\r\n\r\n     * @return stakeA - Token A stake.\r\n     * @return stakeB - Token B stake.\r\n     */\r\n    function userStake(address _address) external view returns (uint256 stakeA, uint256 stakeB) {\r\n        PoolInfo memory pool = pools[poolID];\r\n        (, uint256 balanceA, uint256 balanceB) = pool.assetRouter.userStake(address(this), pool.pool);\r\n\r\n        uint256 _balance = balanceOf(_address);\r\n        if(_balance != 0){\r\n            uint256 _totalSupply = totalSupply();\r\n            stakeA = _balance * balanceA / _totalSupply; \r\n            stakeB = _balance * balanceB / _totalSupply; \r\n            if((!leftoversCollected[msg.sender][lastMoveInfo.block]) && (lastMoveInfo.totalSupply != 0)){\r\n                stakeA += (_balance - blockedLiquidty[_address][lastMoveInfo.block]) * lastMoveInfo.leftoverA / lastMoveInfo.totalSupply;\r\n                stakeB += (_balance - blockedLiquidty[_address][lastMoveInfo.block]) * lastMoveInfo.leftoverB / lastMoveInfo.totalSupply;\r\n            }\r\n        }\r\n    }\r\n        \r\n    /**\r\n     * @dev Returns total amount locked in the pool. \r\n     * @return totalDepositsA - Token A deposits.\r\n     * @return totalDepositsB - Token B deposits.\r\n     */     \r\n    function totalDeposits() external view returns(uint256 totalDepositsA, uint256 totalDepositsB){\r\n        PoolInfo memory pool = pools[poolID];\r\n        (, totalDepositsA, totalDepositsB) = pool.assetRouter.userStake(address(this), pool.pool);\r\n\r\n        // Add leftover tokens.\r\n        totalDepositsA += pool.tokenA.balanceOf(address(this));\r\n        totalDepositsB += pool.tokenB.balanceOf(address(this));\r\n    }\r\n\r\n    /**\r\n     * @dev Returns the number of pools in the strategy. \r\n     */\r\n    function poolsLength() external view returns(uint256){\r\n        return pools.length;\r\n    }\r\n\r\n    /**\r\n     * @dev Returns pair of tokens currently in use. \r\n     */\r\n    function tokens() external view returns(address, address){\r\n        PoolInfo memory pool = pools[poolID];\r\n        return (address(pool.tokenA), address(pool.tokenB));\r\n    }\r\n\r\n    function mint(address to) internal returns (uint256 liquidity){\r\n        PoolInfo memory pool = pools[poolID];\r\n        (uint256 balanceLP,,) = pool.assetRouter.userStake(address(this), pool.pool);\r\n        uint256 amountLP = balanceLP - reserveLP;\r\n\r\n        uint256 _totalSupply = totalSupply();\r\n        if (_totalSupply == 0) {\r\n            liquidity = amountLP - MINIMUM_LIQUIDITY;\r\n            _mint(address(1), MINIMUM_LIQUIDITY);\r\n        } else {\r\n            liquidity = amountLP * _totalSupply / reserveLP;\r\n        }\r\n\r\n        require(liquidity > 0, 'INSUFFICIENT_LIQUIDITY_MINTED');\r\n        _mint(to, liquidity);\r\n\r\n        reserveLP = balanceLP;\r\n    }\r\n\r\n    function burn(uint256 liquidity) internal returns (uint256 amountLP) {\r\n        PoolInfo memory pool = pools[poolID];\r\n        (uint256 balanceLP,,) = pool.assetRouter.userStake(address(this), pool.pool);\r\n\r\n        amountLP = liquidity * balanceLP / totalSupply(); \r\n        require(amountLP > 0, 'INSUFFICIENT_LIQUIDITY_BURNED');\r\n        _burn(msg.sender, liquidity);\r\n\r\n        reserveLP = balanceLP - amountLP;\r\n    }\r\n\r\n    function _beforeTokenTransfer(address from, address to, uint256 amount) internal virtual override {\r\n        super._beforeTokenTransfer(from, to, amount);\r\n\r\n        // Decrease blockedLiquidty from {from} address, but no less then 0.\r\n        if(amount > blockedLiquidty[from][lastMoveInfo.block]){\r\n            blockedLiquidty[from][lastMoveInfo.block] = 0;\r\n        } else {\r\n            blockedLiquidty[from][lastMoveInfo.block] -= amount;\r\n        }\r\n        // Block {to} address from withdrawing their share of leftover tokens immediately.\r\n        blockedLiquidty[to][lastMoveInfo.block] += amount;\r\n    }\r\n\r\n    /**\r\n     * @dev Transfers banxe rights of the contract to a new account (`_banxe`).\r\n     * @param _banxe - Address to transfer banxe rights to.\r\n\r\n     * Note: This function can only be called by Banxe.\r\n     */\r\n    function transferBanxe(address _banxe) external onlyBanxe {\r\n        require(_banxe != address(0), \"TRANSFER_TO_ZERO_ADDRESS\");\r\n        emit BanxeTransferred(banxe, _banxe);\r\n        banxe = _banxe;\r\n    }\r\n}",
  "sourcePath": "C:\\Users\\jugli\\Desktop\\uno\\uno-contracts\\contracts\\autostrategy\\UnoAutoStrategyBanxe.sol",
  "compiler": {
    "name": "solc",
    "version": "0.8.10+commit.fc410830.Emscripten.clang"
  },
  "schemaVersion": "3.4.11",
  "updatedAt": "2023-01-30T09:30:35.999Z",
  "networkType": "ethereum",
  "devdoc": {
    "kind": "dev",
    "methods": {
      "allowance(address,address)": {
        "details": "See {IERC20-allowance}."
      },
      "approve(address,uint256)": {
        "details": "See {IERC20-approve}. NOTE: If `amount` is the maximum `uint256`, the allowance is not updated on `transferFrom`. This is semantically equivalent to an infinite approval. Requirements: - `spender` cannot be the zero address."
      },
      "balanceOf(address)": {
        "details": "See {IERC20-balanceOf}."
      },
      "decimals()": {
        "details": "Returns the number of decimals used to get its user representation. For example, if `decimals` equals `2`, a balance of `505` tokens should be displayed to a user as `5.05` (`505 / 10 ** 2`). Tokens usually opt for a value of 18, imitating the relationship between Ether and Wei. This is the value {ERC20} uses, unless this function is overridden; NOTE: This information is only used for _display_ purposes: it in no way affects any of the arithmetic of the contract, including {IERC20-balanceOf} and {IERC20-transfer}."
      },
      "decreaseAllowance(address,uint256)": {
        "details": "Atomically decreases the allowance granted to `spender` by the caller. This is an alternative to {approve} that can be used as a mitigation for problems described in {IERC20-approve}. Emits an {Approval} event indicating the updated allowance. Requirements: - `spender` cannot be the zero address. - `spender` must have allowance for the caller of at least `subtractedValue`."
      },
      "deposit(uint256,uint256,uint256,uint256,uint256,address)": {
        "details": "Deposits tokens in the pools[poolID] pool. Mints tokens representing user share. Emits {Deposit} event.",
        "params": {
          "amountA": "- Token A amount to deposit.",
          "amountAMin": "- Bounds the extent to which the B/A price can go up before the transaction reverts.",
          "amountB": "- Token B amount to deposit.",
          "amountBMin": "- Bounds the extent to which the A/B price can go up before the transaction reverts.",
          "pid": "- Current poolID. Throws revert if moveLiquidity() has been called before the transaction has been mined.",
          "recipient": "- Address which will receive the deposit."
        },
        "returns": {
          "liquidity": "- Total liquidity minted for the {recipient}.",
          "sentA": "- Deposited token A amount.",
          "sentB": "- Deposited token B amount."
        }
      },
      "increaseAllowance(address,uint256)": {
        "details": "Atomically increases the allowance granted to `spender` by the caller. This is an alternative to {approve} that can be used as a mitigation for problems described in {IERC20-approve}. Emits an {Approval} event indicating the updated allowance. Requirements: - `spender` cannot be the zero address."
      },
      "moveLiquidity(uint256,bytes,bytes,uint256,uint256)": {
        "details": "Moves liquidity from {pools[poolID]} to {pools[_poolID]}. Emits {MoveLiquidity} event.",
        "params": {
          "_poolID": "- Pool ID to move liquidity to.",
          "amountAMin": "- The minimum amount of tokenA that must be deposited in {pools[_poolID]} for the transaction not to revert.",
          "amountBMin": "- The minimum amount of tokenB that must be deposited in {pools[_poolID]} for the transaction not to revert. Note: This function can only be called by LiquidityManager.",
          "swapAData": "- Data for tokenA swap.",
          "swapBData": "- Data for tokenB swap."
        }
      },
      "name()": {
        "details": "Returns the name of the token."
      },
      "poolsLength()": {
        "details": "Returns the number of pools in the strategy. "
      },
      "symbol()": {
        "details": "Returns the symbol of the token, usually a shorter version of the name."
      },
      "tokens()": {
        "details": "Returns pair of tokens currently in use. "
      },
      "totalDeposits()": {
        "details": "Returns total amount locked in the pool. ",
        "returns": {
          "totalDepositsA": "- Token A deposits.",
          "totalDepositsB": "- Token B deposits."
        }
      },
      "totalSupply()": {
        "details": "See {IERC20-totalSupply}."
      },
      "transfer(address,uint256)": {
        "details": "See {IERC20-transfer}. Requirements: - `to` cannot be the zero address. - the caller must have a balance of at least `amount`."
      },
      "transferBanxe(address)": {
        "details": "Transfers banxe rights of the contract to a new account (`_banxe`).",
        "params": {
          "_banxe": "- Address to transfer banxe rights to. Note: This function can only be called by Banxe."
        }
      },
      "transferFrom(address,address,uint256)": {
        "details": "See {IERC20-transferFrom}. Emits an {Approval} event indicating the updated allowance. This is not required by the EIP. See the note at the beginning of {ERC20}. NOTE: Does not update the allowance if the current allowance is the maximum `uint256`. Requirements: - `from` and `to` cannot be the zero address. - `from` must have a balance of at least `amount`. - the caller must have allowance for ``from``'s tokens of at least `amount`."
      },
      "userStake(address)": {
        "details": "Returns tokens staked by the {_address}. ",
        "params": {
          "_address": "- The address to check stakes for."
        },
        "returns": {
          "stakeA": "- Token A stake.",
          "stakeB": "- Token B stake."
        }
      },
      "withdraw(uint256,uint256,uint256,uint256,address)": {
        "details": "Withdraws tokens from the {pools[poolID]} pool and sends them to the recipient. Burns tokens representing user share. Emits {Withdraw} event.",
        "params": {
          "amountAMin": "- The minimum amount of tokenA that must be received from the pool for the transaction not to revert.",
          "amountBMin": "- The minimum amount of tokenB that must be received from the pool for the transaction not to revert.",
          "liquidity": "- Liquidity to burn from this user.",
          "pid": "- Current poolID. Throws revert if moveLiquidity() has been called before the transaction has been mined.",
          "recipient": "- Address which will receive withdrawn tokens."
        },
        "returns": {
          "amountA": "- Token A amount sent to the {recipient}.",
          "amountB": "- Token B amount sent to the {recipient}."
        }
      }
    },
    "stateVariables": {
      "banxe": {
        "details": "Contract Variables: banxe - Banxe account that can make deposits to autostrats. {OdosRouter} - Contract that executes swaps. {poolID} - Current pool the strategy uses ({pools} index). {pools} - Pools this strategy can use and move liquidity to. {reserveLP} - LP token reserve. {lastMoveInfo} - Info on last MoveLiquidity() block. {blockedLiquidty} - User's blocked LP tokens. Prevents user from stealing leftover tokens by depositing and exiting before moveLiquidity() has been called. {leftoversCollected} - Flag that prevents leftover token collection if they were already collected this MoveLiquidity() cycle. {accessManager} - Role manager contract. {factory} - The address of AutoStrategyFactory this contract was deployed by. {MINIMUM_LIQUIDITY} - Ameliorates rounding errors."
      }
    },
    "version": 1
  },
  "userdoc": {
    "kind": "user",
    "methods": {},
    "version": 1
  }
}