{
  "contractName": "UnoAssetRouterMeshswap",
  "abi": [
    {
      "inputs": [],
      "stateMutability": "nonpayable",
      "type": "constructor"
    },
    {
      "anonymous": false,
      "inputs": [
        {
          "indexed": false,
          "internalType": "address",
          "name": "previousAdmin",
          "type": "address"
        },
        {
          "indexed": false,
          "internalType": "address",
          "name": "newAdmin",
          "type": "address"
        }
      ],
      "name": "AdminChanged",
      "type": "event"
    },
    {
      "anonymous": false,
      "inputs": [
        {
          "indexed": true,
          "internalType": "address",
          "name": "beacon",
          "type": "address"
        }
      ],
      "name": "BeaconUpgraded",
      "type": "event"
    },
    {
      "anonymous": false,
      "inputs": [
        {
          "indexed": true,
          "internalType": "address",
          "name": "lpPool",
          "type": "address"
        },
        {
          "indexed": true,
          "internalType": "address",
          "name": "sender",
          "type": "address"
        },
        {
          "indexed": true,
          "internalType": "address",
          "name": "recipient",
          "type": "address"
        },
        {
          "indexed": false,
          "internalType": "uint256",
          "name": "amount",
          "type": "uint256"
        }
      ],
      "name": "Deposit",
      "type": "event"
    },
    {
      "anonymous": false,
      "inputs": [
        {
          "indexed": true,
          "internalType": "address",
          "name": "lpPool",
          "type": "address"
        },
        {
          "indexed": false,
          "internalType": "uint256",
          "name": "reward",
          "type": "uint256"
        }
      ],
      "name": "Distribute",
      "type": "event"
    },
    {
      "anonymous": false,
      "inputs": [
        {
          "indexed": false,
          "internalType": "uint256",
          "name": "previousFee",
          "type": "uint256"
        },
        {
          "indexed": false,
          "internalType": "uint256",
          "name": "newFee",
          "type": "uint256"
        }
      ],
      "name": "FeeChanged",
      "type": "event"
    },
    {
      "anonymous": false,
      "inputs": [
        {
          "indexed": false,
          "internalType": "uint8",
          "name": "version",
          "type": "uint8"
        }
      ],
      "name": "Initialized",
      "type": "event"
    },
    {
      "anonymous": false,
      "inputs": [
        {
          "indexed": false,
          "internalType": "address",
          "name": "account",
          "type": "address"
        }
      ],
      "name": "Paused",
      "type": "event"
    },
    {
      "anonymous": false,
      "inputs": [
        {
          "indexed": false,
          "internalType": "address",
          "name": "account",
          "type": "address"
        }
      ],
      "name": "Unpaused",
      "type": "event"
    },
    {
      "anonymous": false,
      "inputs": [
        {
          "indexed": true,
          "internalType": "address",
          "name": "implementation",
          "type": "address"
        }
      ],
      "name": "Upgraded",
      "type": "event"
    },
    {
      "anonymous": false,
      "inputs": [
        {
          "indexed": true,
          "internalType": "address",
          "name": "lpPool",
          "type": "address"
        },
        {
          "indexed": true,
          "internalType": "address",
          "name": "sender",
          "type": "address"
        },
        {
          "indexed": true,
          "internalType": "address",
          "name": "recipient",
          "type": "address"
        },
        {
          "indexed": false,
          "internalType": "uint256",
          "name": "amount",
          "type": "uint256"
        }
      ],
      "name": "Withdraw",
      "type": "event"
    },
    {
      "inputs": [],
      "name": "WMATIC",
      "outputs": [
        {
          "internalType": "address",
          "name": "",
          "type": "address"
        }
      ],
      "stateMutability": "view",
      "type": "function",
      "constant": true
    },
    {
      "inputs": [],
      "name": "accessManager",
      "outputs": [
        {
          "internalType": "contract IUnoAccessManager",
          "name": "",
          "type": "address"
        }
      ],
      "stateMutability": "view",
      "type": "function",
      "constant": true
    },
    {
      "inputs": [],
      "name": "farmFactory",
      "outputs": [
        {
          "internalType": "contract IUnoFarmFactory",
          "name": "",
          "type": "address"
        }
      ],
      "stateMutability": "view",
      "type": "function",
      "constant": true
    },
    {
      "inputs": [],
      "name": "fee",
      "outputs": [
        {
          "internalType": "uint256",
          "name": "",
          "type": "uint256"
        }
      ],
      "stateMutability": "view",
      "type": "function",
      "constant": true
    },
    {
      "inputs": [],
      "name": "paused",
      "outputs": [
        {
          "internalType": "bool",
          "name": "",
          "type": "bool"
        }
      ],
      "stateMutability": "view",
      "type": "function",
      "constant": true
    },
    {
      "inputs": [],
      "name": "proxiableUUID",
      "outputs": [
        {
          "internalType": "bytes32",
          "name": "",
          "type": "bytes32"
        }
      ],
      "stateMutability": "view",
      "type": "function",
      "constant": true
    },
    {
      "inputs": [
        {
          "internalType": "address",
          "name": "newImplementation",
          "type": "address"
        }
      ],
      "name": "upgradeTo",
      "outputs": [],
      "stateMutability": "nonpayable",
      "type": "function"
    },
    {
      "inputs": [
        {
          "internalType": "address",
          "name": "newImplementation",
          "type": "address"
        },
        {
          "internalType": "bytes",
          "name": "data",
          "type": "bytes"
        }
      ],
      "name": "upgradeToAndCall",
      "outputs": [],
      "stateMutability": "payable",
      "type": "function",
      "payable": true
    },
    {
      "stateMutability": "payable",
      "type": "receive",
      "payable": true
    },
    {
      "inputs": [
        {
          "internalType": "address",
          "name": "_accessManager",
          "type": "address"
        },
        {
          "internalType": "address",
          "name": "_farmFactory",
          "type": "address"
        }
      ],
      "name": "initialize",
      "outputs": [],
      "stateMutability": "nonpayable",
      "type": "function"
    },
    {
      "inputs": [
        {
          "internalType": "address",
          "name": "lpPair",
          "type": "address"
        },
        {
          "internalType": "uint256",
          "name": "amountA",
          "type": "uint256"
        },
        {
          "internalType": "uint256",
          "name": "amountB",
          "type": "uint256"
        },
        {
          "internalType": "uint256",
          "name": "amountAMin",
          "type": "uint256"
        },
        {
          "internalType": "uint256",
          "name": "amountBMin",
          "type": "uint256"
        },
        {
          "internalType": "uint256",
          "name": "amountLP",
          "type": "uint256"
        },
        {
          "internalType": "address",
          "name": "recipient",
          "type": "address"
        }
      ],
      "name": "deposit",
      "outputs": [
        {
          "internalType": "uint256",
          "name": "sentA",
          "type": "uint256"
        },
        {
          "internalType": "uint256",
          "name": "sentB",
          "type": "uint256"
        },
        {
          "internalType": "uint256",
          "name": "liquidity",
          "type": "uint256"
        }
      ],
      "stateMutability": "nonpayable",
      "type": "function"
    },
    {
      "inputs": [
        {
          "internalType": "address",
          "name": "lpPair",
          "type": "address"
        },
        {
          "internalType": "uint256",
          "name": "amountToken",
          "type": "uint256"
        },
        {
          "internalType": "uint256",
          "name": "amountTokenMin",
          "type": "uint256"
        },
        {
          "internalType": "uint256",
          "name": "amountETHMin",
          "type": "uint256"
        },
        {
          "internalType": "uint256",
          "name": "amountLP",
          "type": "uint256"
        },
        {
          "internalType": "address",
          "name": "recipient",
          "type": "address"
        }
      ],
      "name": "depositETH",
      "outputs": [
        {
          "internalType": "uint256",
          "name": "sentToken",
          "type": "uint256"
        },
        {
          "internalType": "uint256",
          "name": "sentETH",
          "type": "uint256"
        },
        {
          "internalType": "uint256",
          "name": "liquidity",
          "type": "uint256"
        }
      ],
      "stateMutability": "payable",
      "type": "function",
      "payable": true
    },
    {
      "inputs": [
        {
          "internalType": "address",
          "name": "lpPair",
          "type": "address"
        },
        {
          "internalType": "uint256",
          "name": "amount",
          "type": "uint256"
        },
        {
          "internalType": "uint256",
          "name": "amountAMin",
          "type": "uint256"
        },
        {
          "internalType": "uint256",
          "name": "amountBMin",
          "type": "uint256"
        },
        {
          "internalType": "bool",
          "name": "withdrawLP",
          "type": "bool"
        },
        {
          "internalType": "address",
          "name": "recipient",
          "type": "address"
        }
      ],
      "name": "withdraw",
      "outputs": [
        {
          "internalType": "uint256",
          "name": "amountA",
          "type": "uint256"
        },
        {
          "internalType": "uint256",
          "name": "amountB",
          "type": "uint256"
        }
      ],
      "stateMutability": "nonpayable",
      "type": "function"
    },
    {
      "inputs": [
        {
          "internalType": "address",
          "name": "lpPair",
          "type": "address"
        },
        {
          "internalType": "uint256",
          "name": "amount",
          "type": "uint256"
        },
        {
          "internalType": "uint256",
          "name": "amountTokenMin",
          "type": "uint256"
        },
        {
          "internalType": "uint256",
          "name": "amountETHMin",
          "type": "uint256"
        },
        {
          "internalType": "address",
          "name": "recipient",
          "type": "address"
        }
      ],
      "name": "withdrawETH",
      "outputs": [
        {
          "internalType": "uint256",
          "name": "amountToken",
          "type": "uint256"
        },
        {
          "internalType": "uint256",
          "name": "amountETH",
          "type": "uint256"
        }
      ],
      "stateMutability": "nonpayable",
      "type": "function"
    },
    {
      "inputs": [
        {
          "internalType": "address",
          "name": "lpPair",
          "type": "address"
        },
        {
          "components": [
            {
              "internalType": "address[]",
              "name": "route",
              "type": "address[]"
            },
            {
              "internalType": "uint256",
              "name": "amountOutMin",
              "type": "uint256"
            }
          ],
          "internalType": "struct IUnoFarmMeshswap.SwapInfo[2]",
          "name": "swapInfos",
          "type": "tuple[2]"
        },
        {
          "components": [
            {
              "internalType": "address[]",
              "name": "route",
              "type": "address[]"
            },
            {
              "internalType": "uint256",
              "name": "amountOutMin",
              "type": "uint256"
            }
          ],
          "internalType": "struct IUnoFarmMeshswap.SwapInfo",
          "name": "feeSwapInfo",
          "type": "tuple"
        },
        {
          "internalType": "address",
          "name": "feeTo",
          "type": "address"
        }
      ],
      "name": "distribute",
      "outputs": [],
      "stateMutability": "nonpayable",
      "type": "function"
    },
    {
      "inputs": [
        {
          "internalType": "address",
          "name": "_address",
          "type": "address"
        },
        {
          "internalType": "address",
          "name": "lpPair",
          "type": "address"
        }
      ],
      "name": "userStake",
      "outputs": [
        {
          "internalType": "uint256",
          "name": "stakeLP",
          "type": "uint256"
        },
        {
          "internalType": "uint256",
          "name": "stakeA",
          "type": "uint256"
        },
        {
          "internalType": "uint256",
          "name": "stakeB",
          "type": "uint256"
        }
      ],
      "stateMutability": "view",
      "type": "function",
      "constant": true
    },
    {
      "inputs": [
        {
          "internalType": "address",
          "name": "lpPair",
          "type": "address"
        }
      ],
      "name": "totalDeposits",
      "outputs": [
        {
          "internalType": "uint256",
          "name": "totalDepositsLP",
          "type": "uint256"
        },
        {
          "internalType": "uint256",
          "name": "totalDepositsA",
          "type": "uint256"
        },
        {
          "internalType": "uint256",
          "name": "totalDepositsB",
          "type": "uint256"
        }
      ],
      "stateMutability": "view",
      "type": "function",
      "constant": true
    },
    {
      "inputs": [
        {
          "internalType": "address",
          "name": "lpPair",
          "type": "address"
        }
      ],
      "name": "getTokens",
      "outputs": [
        {
          "internalType": "contract IERC20Upgradeable[]",
          "name": "tokens",
          "type": "address[]"
        }
      ],
      "stateMutability": "view",
      "type": "function",
      "constant": true
    },
    {
      "inputs": [
        {
          "internalType": "uint256",
          "name": "_fee",
          "type": "uint256"
        }
      ],
      "name": "setFee",
      "outputs": [],
      "stateMutability": "nonpayable",
      "type": "function"
    },
    {
      "inputs": [],
      "name": "pause",
      "outputs": [],
      "stateMutability": "nonpayable",
      "type": "function"
    },
    {
      "inputs": [],
      "name": "unpause",
      "outputs": [],
      "stateMutability": "nonpayable",
      "type": "function"
    }
  ],
  "bytecode": "0x60a0604052306080523480156200001557600080fd5b506200002062000026565b62000156565b6200003260ff62000035565b50565b60008054610100900460ff1615620000ce578160ff1660011480156200006e57506200006c306200014760201b62001e751760201c565b155b620000c65760405162461bcd60e51b815260206004820152602e6024820152600080516020620034c483398151915260448201526d191e481a5b9a5d1a585b1a5e995960921b60648201526084015b60405180910390fd5b506000919050565b60005460ff8084169116106200012d5760405162461bcd60e51b815260206004820152602e6024820152600080516020620034c483398151915260448201526d191e481a5b9a5d1a585b1a5e995960921b6064820152608401620000bd565b506000805460ff191660ff92909216919091179055600190565b6001600160a01b03163b151590565b6080516133366200018e600039600081816105af015281816105ef015281816111f30152818161123301526113d001526133366000f3fe6080604052600436106101235760003560e01c806352d1902d116100a0578063ddca3f4311610064578063ddca3f43146103a4578063deb03f4d146103ba578063e9403256146103da578063f441f73c146103fa578063fdcb60681461041a57600080fd5b806352d1902d146103095780635c975abb1461032c57806369fe0e2d1461034f5780636d25e1751461036f5780638456cb591461038f57600080fd5b8063485cc955116100e7578063485cc955146102565780634d95cad9146102765780634e816aa8146102b65780634f1ef286146102d657806351bdca3e146102e957600080fd5b80631ec5aa3e1461018c5780633659cfe6146101c65780633f4ba83a146101e6578063450efe21146101fb5780634743cdc71461022857600080fd5b366101875733730d500b1d8e8ef31e21c99d1db9a6444d3adf1270146101855760405162461bcd60e51b81526020600482015260126024820152714f4e4c595f4143434550545f574d4154494360701b60448201526064015b60405180910390fd5b005b600080fd5b34801561019857600080fd5b506101ac6101a7366004612a15565b61043a565b604080519283526020830191909152015b60405180910390f35b3480156101d257600080fd5b506101856101e1366004612a7c565b6105a4565b3480156101f257600080fd5b50610185610684565b34801561020757600080fd5b5061021b610216366004612a7c565b61073b565b6040516101bd9190612a99565b61023b610236366004612ae6565b61088a565b604080519384526020840192909252908201526060016101bd565b34801561026257600080fd5b50610185610271366004612b36565b610e6c565b34801561028257600080fd5b5061029e730d500b1d8e8ef31e21c99d1db9a6444d3adf127081565b6040516001600160a01b0390911681526020016101bd565b3480156102c257600080fd5b506101856102d1366004612b6f565b610fa7565b6101856102e4366004612c1c565b6111e8565b3480156102f557600080fd5b5061023b610304366004612b36565b6112b9565b34801561031557600080fd5b5061031e6113c3565b6040519081526020016101bd565b34801561033857600080fd5b5060335460ff1660405190151581526020016101bd565b34801561035b57600080fd5b5061018561036a366004612ce0565b611476565b34801561037b57600080fd5b5060c95461029e906001600160a01b031681565b34801561039b57600080fd5b50610185611609565b3480156103b057600080fd5b5061031e60cb5481565b3480156103c657600080fd5b506101ac6103d5366004612cf9565b6116c0565b3480156103e657600080fd5b5061023b6103f5366004612a7c565b611a9b565b34801561040657600080fd5b5061023b610415366004612d4f565b611b9d565b34801561042657600080fd5b5060ca5461029e906001600160a01b031681565b60c95460405163f9d9331d60e01b81526001600160a01b038881166004830152600092839283929091169063f9d9331d90602401602060405180830381865afa15801561048b573d6000803e3d6000fd5b505050506040513d601f19601f820116820180604052508101906104af9190612db8565b90506001600160a01b0381166104d75760405162461bcd60e51b815260040161017c90612dd5565b60405163d563468360e01b81526001600160a01b0382169063d56346839061050d908b908b908b908b9033908c90600401612dfe565b60408051808303816000875af115801561052b573d6000803e3d6000fd5b505050506040513d601f19601f8201168201806040525081019061054f9190612e34565b6040518a815291945092506001600160a01b038581169133918c16907f3115d1449a7b732c986cba18244e897a450f61e1bb8d589cd2e69e6c8924f9f79060200160405180910390a450965096945050505050565b306001600160a01b037f00000000000000000000000000000000000000000000000000000000000000001614156105ed5760405162461bcd60e51b815260040161017c90612e58565b7f00000000000000000000000000000000000000000000000000000000000000006001600160a01b03166106366000805160206132ba833981519152546001600160a01b031690565b6001600160a01b03161461065c5760405162461bcd60e51b815260040161017c90612ea4565b61066581611e84565b6040805160008082526020820190925261068191839190611f8a565b50565b60ca54604051632474521560e21b81527f65d7a28e3265b37a6474929f336521b332c1681b933f6cb9f3376673440d862a60048201819052336024830152916001600160a01b0316906391d1485490604401602060405180830381865afa1580156106f3573d6000803e3d6000fd5b505050506040513d601f19601f820116820180604052508101906107179190612ef0565b6107335760405162461bcd60e51b815260040161017c90612f0d565b6106816120f5565b6040805160028082526060808301845292602083019080368337019050509050816001600160a01b0316630dfe16816040518163ffffffff1660e01b8152600401602060405180830381865afa158015610799573d6000803e3d6000fd5b505050506040513d601f19601f820116820180604052508101906107bd9190612db8565b816000815181106107d0576107d0612f3c565b60200260200101906001600160a01b031690816001600160a01b031681525050816001600160a01b031663d21220a76040518163ffffffff1660e01b8152600401602060405180830381865afa15801561082e573d6000803e3d6000fd5b505050506040513d601f19601f820116820180604052508101906108529190612db8565b8160018151811061086557610865612f3c565b60200260200101906001600160a01b031690816001600160a01b031681525050919050565b600080600061089b60335460ff1690565b156108b85760405162461bcd60e51b815260040161017c90612f52565b600034116108f85760405162461bcd60e51b815260206004820152600d60248201526c1393d7d350551250d7d4d15395609a1b604482015260640161017c565b60c95460405163f9d9331d60e01b81526001600160a01b038b81166004830152600092169063f9d9331d90602401602060405180830381865afa158015610943573d6000803e3d6000fd5b505050506040513d601f19601f820116820180604052508101906109679190612db8565b90506001600160a01b0381166109e95760c954604051621849e360e61b81526001600160a01b038c811660048301529091169063061278c0906024016020604051808303816000875af11580156109c2573d6000803e3d6000fd5b505050506040513d601f19601f820116820180604052508101906109e69190612db8565b90505b8515610a0457610a046001600160a01b038b16338389612188565b6000816001600160a01b0316630fc63d106040518163ffffffff1660e01b8152600401602060405180830381865afa158015610a44573d6000803e3d6000fd5b505050506040513d601f19601f82011682018060405250810190610a689190612db8565b90506000826001600160a01b0316635f64b55b6040518163ffffffff1660e01b8152600401602060405180830381865afa158015610aaa573d6000803e3d6000fd5b505050506040513d601f19601f82011682018060405250810190610ace9190612db8565b9050730d500b1d8e8ef31e21c99d1db9a6444d3adf12706001600160a01b031663d0e30db0346040518263ffffffff1660e01b81526004016000604051808303818588803b158015610b1f57600080fd5b505af1158015610b33573d6000803e3d6000fd5b50610b5b9350730d500b1d8e8ef31e21c99d1db9a6444d3adf127092508691503490506121f9565b6001600160a01b038216730d500b1d8e8ef31e21c99d1db9a6444d3adf12701415610c42578a15610b9b57610b9b6001600160a01b03821633858e612188565b826001600160a01b0316631666768a348d8c8e8d308e6040518863ffffffff1660e01b8152600401610bd39796959493929190612f7c565b6060604051808303816000875af1158015610bf2573d6000803e3d6000fd5b505050506040513d601f19601f82011682018060405250810190610c169190612fb8565b9097509095509350610c3d33610c2c888e612ffc565b6001600160a01b03841691906121f9565b610d5d565b6001600160a01b038116730d500b1d8e8ef31e21c99d1db9a6444d3adf12701415610d23578a15610c8257610c826001600160a01b03831633858e612188565b826001600160a01b0316631666768a8c348d8d8d308e6040518863ffffffff1660e01b8152600401610cba9796959493929190612f7c565b6060604051808303816000875af1158015610cd9573d6000803e3d6000fd5b505050506040513d601f19601f82011682018060405250810190610cfd9190612fb8565b91975095509350610c3d33610d12888e612ffc565b6001600160a01b03851691906121f9565b60405162461bcd60e51b815260206004820152600f60248201526e1393d517d5d350551250d7d413d3d3608a1b604482015260640161017c565b6000610d698634612ffc565b90508015610e0557604051632e1a7d4d60e01b815260048101829052730d500b1d8e8ef31e21c99d1db9a6444d3adf127090632e1a7d4d90602401600060405180830381600087803b158015610dbe57600080fd5b505af1158015610dd2573d6000803e3d6000fd5b505060405133925083156108fc02915083906000818181858888f19350505050158015610e03573d6000803e3d6000fd5b505b876001600160a01b0316336001600160a01b03168e6001600160a01b03167f7cfff908a4b583f36430b25d75964c458d8ede8a99bd61be750e97ee1b2f3a9688604051610e5491815260200190565b60405180910390a45050505096509650969350505050565b6000610e786001612229565b90508015610e90576000805461ff0019166101001790555b6001600160a01b038316610edb5760405162461bcd60e51b81526020600482015260126024820152712120a22fa0a1a1a2a9a9afa6a0a720a3a2a960711b604482015260640161017c565b6001600160a01b038216610f245760405162461bcd60e51b815260206004820152601060248201526f4241445f4641524d5f464143544f525960801b604482015260640161017c565b610f2c6122b1565b60ca80546001600160a01b038086166001600160a01b03199283161790925560c98054928516929091169190911790558015610fa2576000805461ff0019169055604051600181527f7f26b83ff96e1f2b6a682f133852f6798a09c465da95921460cefb38474024989060200160405180910390a15b505050565b60335460ff1615610fca5760405162461bcd60e51b815260040161017c90612f52565b60ca54604051632474521560e21b81527ffbd454f36a7e1a388bd6fc3ab10d434aa4578f811acbbcf33afb1c697486313c60048201819052336024830152916001600160a01b0316906391d1485490604401602060405180830381865afa158015611039573d6000803e3d6000fd5b505050506040513d601f19601f8201168201806040525081019061105d9190612ef0565b6110795760405162461bcd60e51b815260040161017c90612f0d565b60c95460405163f9d9331d60e01b81526001600160a01b038781166004830152600092169063f9d9331d90602401602060405180830381865afa1580156110c4573d6000803e3d6000fd5b505050506040513d601f19601f820116820180604052508101906110e89190612db8565b90506001600160a01b0381166111105760405162461bcd60e51b815260040161017c90612dd5565b6040805180820182526001600160a01b03858116825260cb54602083015291516336eeb1dd60e01b81526000928416916336eeb1dd91611157918a918a91906004016130b2565b6020604051808303816000875af1158015611176573d6000803e3d6000fd5b505050506040513d601f19601f8201168201806040525081019061119a919061314b565b9050866001600160a01b03167fc1d32ad5cca423e7dda2123dbf8c482f8e77d00b631c06e903a47f2cec1334df826040516111d791815260200190565b60405180910390a250505050505050565b306001600160a01b037f00000000000000000000000000000000000000000000000000000000000000001614156112315760405162461bcd60e51b815260040161017c90612e58565b7f00000000000000000000000000000000000000000000000000000000000000006001600160a01b031661127a6000805160206132ba833981519152546001600160a01b031690565b6001600160a01b0316146112a05760405162461bcd60e51b815260040161017c90612ea4565b6112a982611e84565b6112b582826001611f8a565b5050565b60c95460405163f9d9331d60e01b81526001600160a01b038381166004830152600092839283928392169063f9d9331d90602401602060405180830381865afa15801561130a573d6000803e3d6000fd5b505050506040513d601f19601f8201168201806040525081019061132e9190612db8565b90506001600160a01b038116156113bb57604051630103c92b60e01b81526001600160a01b038781166004830152821690630103c92b90602401602060405180830381865afa158015611385573d6000803e3d6000fd5b505050506040513d601f19601f820116820180604052508101906113a9919061314b565b93506113b585856122e2565b90935091505b509250925092565b6000306001600160a01b037f000000000000000000000000000000000000000000000000000000000000000016146114635760405162461bcd60e51b815260206004820152603860248201527f555550535570677261646561626c653a206d757374206e6f742062652063616c60448201527f6c6564207468726f7567682064656c656761746563616c6c0000000000000000606482015260840161017c565b506000805160206132ba83398151915290565b60ca60009054906101000a90046001600160a01b03166001600160a01b03166375b238fc6040518163ffffffff1660e01b8152600401602060405180830381865afa1580156114c9573d6000803e3d6000fd5b505050506040513d601f19601f820116820180604052508101906114ed919061314b565b60ca54604051632474521560e21b8152600481018390523360248201526001600160a01b03909116906391d1485490604401602060405180830381865afa15801561153c573d6000803e3d6000fd5b505050506040513d601f19601f820116820180604052508101906115609190612ef0565b61157c5760405162461bcd60e51b815260040161017c90612f0d565b670de0b6b3a76400008211156115be5760405162461bcd60e51b81526020600482015260076024820152664241445f46454560c81b604482015260640161017c565b8160cb54146112b55760cb5460408051918252602082018490527f5fc463da23c1b063e66f9e352006a7fbe8db7223c455dc429e881a2dfe2f94f1910160405180910390a15060cb55565b60ca54604051632474521560e21b81527f65d7a28e3265b37a6474929f336521b332c1681b933f6cb9f3376673440d862a60048201819052336024830152916001600160a01b0316906391d1485490604401602060405180830381865afa158015611678573d6000803e3d6000fd5b505050506040513d601f19601f8201168201806040525081019061169c9190612ef0565b6116b85760405162461bcd60e51b815260040161017c90612f0d565b61068161251d565b60c95460405163f9d9331d60e01b81526001600160a01b038781166004830152600092839283929091169063f9d9331d90602401602060405180830381865afa158015611711573d6000803e3d6000fd5b505050506040513d601f19601f820116820180604052508101906117359190612db8565b90506001600160a01b03811661175d5760405162461bcd60e51b815260040161017c90612dd5565b6000816001600160a01b0316630fc63d106040518163ffffffff1660e01b8152600401602060405180830381865afa15801561179d573d6000803e3d6000fd5b505050506040513d601f19601f820116820180604052508101906117c19190612db8565b90506000826001600160a01b0316635f64b55b6040518163ffffffff1660e01b8152600401602060405180830381865afa158015611803573d6000803e3d6000fd5b505050506040513d601f19601f820116820180604052508101906118279190612db8565b90506001600160a01b038216730d500b1d8e8ef31e21c99d1db9a6444d3adf127014156118e45760405163d563468360e01b81526001600160a01b0384169063d563468390611885908c908b908d9060009033903090600401612dfe565b60408051808303816000875af11580156118a3573d6000803e3d6000fd5b505050506040513d601f19601f820116820180604052508101906118c79190612e34565b955093506118df6001600160a01b03821687876121f9565b61199b565b6001600160a01b038116730d500b1d8e8ef31e21c99d1db9a6444d3adf12701415610d235760405163d563468360e01b81526001600160a01b0384169063d563468390611940908c908c908c9060009033903090600401612dfe565b60408051808303816000875af115801561195e573d6000803e3d6000fd5b505050506040513d601f19601f820116820180604052508101906119829190612e34565b90955093506118df6001600160a01b03831687876121f9565b604051632e1a7d4d60e01b815260048101859052730d500b1d8e8ef31e21c99d1db9a6444d3adf127090632e1a7d4d90602401600060405180830381600087803b1580156119e857600080fd5b505af11580156119fc573d6000803e3d6000fd5b50506040516001600160a01b038916925086156108fc02915086906000818181858888f19350505050158015611a36573d6000803e3d6000fd5b50856001600160a01b0316336001600160a01b03168b6001600160a01b03167f3115d1449a7b732c986cba18244e897a450f61e1bb8d589cd2e69e6c8924f9f78c604051611a8691815260200190565b60405180910390a45050509550959350505050565b60c95460405163f9d9331d60e01b81526001600160a01b038381166004830152600092839283928392169063f9d9331d90602401602060405180830381865afa158015611aec573d6000803e3d6000fd5b505050506040513d601f19601f82011682018060405250810190611b109190612db8565b90506001600160a01b03811615611b9557806001600160a01b031663168a48226040518163ffffffff1660e01b8152600401602060405180830381865afa158015611b5f573d6000803e3d6000fd5b505050506040513d601f19601f82011682018060405250810190611b83919061314b565b9350611b8f85856122e2565b90935091505b509193909250565b6000806000611bae60335460ff1690565b15611bcb5760405162461bcd60e51b815260040161017c90612f52565b60c95460405163f9d9331d60e01b81526001600160a01b038c81166004830152600092169063f9d9331d90602401602060405180830381865afa158015611c16573d6000803e3d6000fd5b505050506040513d601f19601f82011682018060405250810190611c3a9190612db8565b90506001600160a01b038116611cbc5760c954604051621849e360e61b81526001600160a01b038d811660048301529091169063061278c0906024016020604051808303816000875af1158015611c95573d6000803e3d6000fd5b505050506040513d601f19601f82011682018060405250810190611cb99190612db8565b90505b8515611cd757611cd76001600160a01b038c16338389612188565b8915611d5657611d5633828c846001600160a01b0316630fc63d106040518163ffffffff1660e01b8152600401602060405180830381865afa158015611d21573d6000803e3d6000fd5b505050506040513d601f19601f82011682018060405250810190611d459190612db8565b6001600160a01b0316929190612188565b8815611da057611da033828b846001600160a01b0316635f64b55b6040518163ffffffff1660e01b8152600401602060405180830381865afa158015611d21573d6000803e3d6000fd5b604051630b333b4560e11b81526001600160a01b03821690631666768a90611dd8908d908d908d908d908d9033908e90600401612f7c565b6060604051808303816000875af1158015611df7573d6000803e3d6000fd5b505050506040513d601f19601f82011682018060405250810190611e1b9190612fb8565b60405181815292965090945092506001600160a01b038681169133918e16907f7cfff908a4b583f36430b25d75964c458d8ede8a99bd61be750e97ee1b2f3a969060200160405180910390a4509750975097945050505050565b6001600160a01b03163b151590565b60ca60009054906101000a90046001600160a01b03166001600160a01b03166375b238fc6040518163ffffffff1660e01b8152600401602060405180830381865afa158015611ed7573d6000803e3d6000fd5b505050506040513d601f19601f82011682018060405250810190611efb919061314b565b60ca54604051632474521560e21b8152600481018390523360248201526001600160a01b03909116906391d1485490604401602060405180830381865afa158015611f4a573d6000803e3d6000fd5b505050506040513d601f19601f82011682018060405250810190611f6e9190612ef0565b6112b55760405162461bcd60e51b815260040161017c90612f0d565b7f4910fdfa16fed3260ed0e7147f7cc6da11a60208b5b9406d12a635614ffd91435460ff1615611fbd57610fa283612575565b826001600160a01b03166352d1902d6040518163ffffffff1660e01b8152600401602060405180830381865afa925050508015612017575060408051601f3d908101601f191682019092526120149181019061314b565b60015b61207a5760405162461bcd60e51b815260206004820152602e60248201527f45524331393637557067726164653a206e657720696d706c656d656e7461746960448201526d6f6e206973206e6f74205555505360901b606482015260840161017c565b6000805160206132ba83398151915281146120e95760405162461bcd60e51b815260206004820152602960248201527f45524331393637557067726164653a20756e737570706f727465642070726f786044820152681a58589b195555525160ba1b606482015260840161017c565b50610fa2838383612611565b60335460ff1661213e5760405162461bcd60e51b815260206004820152601460248201527314185d5cd8589b194e881b9bdd081c185d5cd95960621b604482015260640161017c565b6033805460ff191690557f5db9ee0a495bf2e6ff9c91a7834c1ba4fdd244a5e8aa4e537bd38aeae4b073aa335b6040516001600160a01b03909116815260200160405180910390a1565b6040516001600160a01b03808516602483015283166044820152606481018290526121f39085906323b872dd60e01b906084015b60408051601f198184030181529190526020810180516001600160e01b03166001600160e01b031990931692909217909152612636565b50505050565b6040516001600160a01b038316602482015260448101829052610fa290849063a9059cbb60e01b906064016121bc565b60008054610100900460ff1615612270578160ff16600114801561224c5750303b155b6122685760405162461bcd60e51b815260040161017c90613164565b506000919050565b60005460ff8084169116106122975760405162461bcd60e51b815260040161017c90613164565b506000805460ff191660ff92909216919091179055600190565b600054610100900460ff166122d85760405162461bcd60e51b815260040161017c906131b2565b6122e0612708565b565b6000806000846001600160a01b03166318160ddd6040518163ffffffff1660e01b8152600401602060405180830381865afa158015612325573d6000803e3d6000fd5b505050506040513d601f19601f82011682018060405250810190612349919061314b565b905080856001600160a01b0316630dfe16816040518163ffffffff1660e01b8152600401602060405180830381865afa15801561238a573d6000803e3d6000fd5b505050506040513d601f19601f820116820180604052508101906123ae9190612db8565b6040516370a0823160e01b81526001600160a01b03888116600483015291909116906370a0823190602401602060405180830381865afa1580156123f6573d6000803e3d6000fd5b505050506040513d601f19601f8201168201806040525081019061241a919061314b565b61242490866131fd565b61242e919061321c565b925080856001600160a01b031663d21220a76040518163ffffffff1660e01b8152600401602060405180830381865afa15801561246f573d6000803e3d6000fd5b505050506040513d601f19601f820116820180604052508101906124939190612db8565b6040516370a0823160e01b81526001600160a01b03888116600483015291909116906370a0823190602401602060405180830381865afa1580156124db573d6000803e3d6000fd5b505050506040513d601f19601f820116820180604052508101906124ff919061314b565b61250990866131fd565b612513919061321c565b9150509250929050565b60335460ff16156125405760405162461bcd60e51b815260040161017c90612f52565b6033805460ff191660011790557f62e78cea01bee320cd4e420270b5ea74000d11b0c9f74754ebdbfc544b05a25861216b3390565b6001600160a01b0381163b6125e25760405162461bcd60e51b815260206004820152602d60248201527f455243313936373a206e657720696d706c656d656e746174696f6e206973206e60448201526c1bdd08184818dbdb9d1c9858dd609a1b606482015260840161017c565b6000805160206132ba83398151915280546001600160a01b0319166001600160a01b0392909216919091179055565b61261a8361273b565b6000825111806126275750805b15610fa2576121f3838361277b565b600061268b826040518060400160405280602081526020017f5361666545524332303a206c6f772d6c6576656c2063616c6c206661696c6564815250856001600160a01b031661286f9092919063ffffffff16565b805190915015610fa257808060200190518101906126a99190612ef0565b610fa25760405162461bcd60e51b815260206004820152602a60248201527f5361666545524332303a204552433230206f7065726174696f6e20646964206e6044820152691bdd081cdd58d8d9595960b21b606482015260840161017c565b600054610100900460ff1661272f5760405162461bcd60e51b815260040161017c906131b2565b6033805460ff19169055565b61274481612575565b6040516001600160a01b038216907fbc7cd75a20ee27fd9adebab32041f755214dbc6bffa90cc0225b39da2e5c2d3b90600090a250565b60606001600160a01b0383163b6127e35760405162461bcd60e51b815260206004820152602660248201527f416464726573733a2064656c65676174652063616c6c20746f206e6f6e2d636f6044820152651b9d1c9858dd60d21b606482015260840161017c565b600080846001600160a01b0316846040516127fe919061326a565b600060405180830381855af49150503d8060008114612839576040519150601f19603f3d011682016040523d82523d6000602084013e61283e565b606091505b509150915061286682826040518060600160405280602781526020016132da60279139612888565b95945050505050565b606061287e84846000856128c1565b90505b9392505050565b60608315612897575081612881565b8251156128a75782518084602001fd5b8160405162461bcd60e51b815260040161017c9190613286565b6060824710156129225760405162461bcd60e51b815260206004820152602660248201527f416464726573733a20696e73756666696369656e742062616c616e636520666f6044820152651c8818d85b1b60d21b606482015260840161017c565b6001600160a01b0385163b6129795760405162461bcd60e51b815260206004820152601d60248201527f416464726573733a2063616c6c20746f206e6f6e2d636f6e7472616374000000604482015260640161017c565b600080866001600160a01b03168587604051612995919061326a565b60006040518083038185875af1925050503d80600081146129d2576040519150601f19603f3d011682016040523d82523d6000602084013e6129d7565b606091505b50915091506129e7828286612888565b979650505050505050565b6001600160a01b038116811461068157600080fd5b801515811461068157600080fd5b60008060008060008060c08789031215612a2e57600080fd5b8635612a39816129f2565b95506020870135945060408701359350606087013592506080870135612a5e81612a07565b915060a0870135612a6e816129f2565b809150509295509295509295565b600060208284031215612a8e57600080fd5b8135612881816129f2565b6020808252825182820181905260009190848201906040850190845b81811015612ada5783516001600160a01b031683529284019291840191600101612ab5565b50909695505050505050565b60008060008060008060c08789031215612aff57600080fd5b8635612b0a816129f2565b95506020870135945060408701359350606087013592506080870135915060a0870135612a6e816129f2565b60008060408385031215612b4957600080fd5b8235612b54816129f2565b91506020830135612b64816129f2565b809150509250929050565b60008060008060808587031215612b8557600080fd5b8435612b90816129f2565b9350602085013567ffffffffffffffff80821115612bad57600080fd5b818701915087604083011115612bc257600080fd5b90935060408601359080821115612bd857600080fd5b50850160408188031215612beb57600080fd5b91506060850135612bfb816129f2565b939692955090935050565b634e487b7160e01b600052604160045260246000fd5b60008060408385031215612c2f57600080fd5b8235612c3a816129f2565b9150602083013567ffffffffffffffff80821115612c5757600080fd5b818501915085601f830112612c6b57600080fd5b813581811115612c7d57612c7d612c06565b604051601f8201601f19908116603f01168101908382118183101715612ca557612ca5612c06565b81604052828152886020848701011115612cbe57600080fd5b8260208601602083013760006020848301015280955050505050509250929050565b600060208284031215612cf257600080fd5b5035919050565b600080600080600060a08688031215612d1157600080fd5b8535612d1c816129f2565b94506020860135935060408601359250606086013591506080860135612d41816129f2565b809150509295509295909350565b600080600080600080600060e0888a031215612d6a57600080fd5b8735612d75816129f2565b96506020880135955060408801359450606088013593506080880135925060a0880135915060c0880135612da8816129f2565b8091505092959891949750929550565b600060208284031215612dca57600080fd5b8151612881816129f2565b6020808252600f908201526e4641524d5f4e4f545f45584953545360881b604082015260600190565b95865260208601949094526040850192909252151560608401526001600160a01b0390811660808401521660a082015260c00190565b60008060408385031215612e4757600080fd5b505080516020909101519092909150565b6020808252602c908201527f46756e6374696f6e206d7573742062652063616c6c6564207468726f7567682060408201526b19195b1959d85d1958d85b1b60a21b606082015260800190565b6020808252602c908201527f46756e6374696f6e206d7573742062652063616c6c6564207468726f7567682060408201526b6163746976652070726f787960a01b606082015260800190565b600060208284031215612f0257600080fd5b815161288181612a07565b60208082526015908201527410d05313115497d393d517d055551213d492569151605a1b604082015260600190565b634e487b7160e01b600052603260045260246000fd5b60208082526010908201526f14185d5cd8589b194e881c185d5cd95960821b604082015260600190565b96875260208701959095526040860193909352606085019190915260808401526001600160a01b0390811660a08401521660c082015260e00190565b600080600060608486031215612fcd57600080fd5b8351925060208401519150604084015190509250925092565b634e487b7160e01b600052601160045260246000fd5b60008282101561300e5761300e612fe6565b500390565b6000604083018235601e1984360301811261302d57600080fd5b83018035602067ffffffffffffffff82111561304857600080fd5b8160051b360386131561305a57600080fd5b60408752928190529082019160009190606087015b8284101561309f578435613082816129f2565b6001600160a01b031681529381019360019390930192810161306f565b9581013596019590955250919392505050565b608080825260009060c083019083018683805b600281101561310d57868503607f190184528235368b9003603e190181126130eb578283fd5b6130f7868c8301613013565b95505060209384019392909201916001016130c5565b5050505082810360208401526131238186613013565b84516001600160a01b0316604085015260209094015160609093019290925250909392505050565b60006020828403121561315d57600080fd5b5051919050565b6020808252602e908201527f496e697469616c697a61626c653a20636f6e747261637420697320616c72656160408201526d191e481a5b9a5d1a585b1a5e995960921b606082015260800190565b6020808252602b908201527f496e697469616c697a61626c653a20636f6e7472616374206973206e6f74206960408201526a6e697469616c697a696e6760a81b606082015260800190565b600081600019048311821515161561321757613217612fe6565b500290565b60008261323957634e487b7160e01b600052601260045260246000fd5b500490565b60005b83811015613259578181015183820152602001613241565b838111156121f35750506000910152565b6000825161327c81846020870161323e565b9190910192915050565b60208152600082518060208401526132a581604085016020870161323e565b601f01601f1916919091016040019291505056fe360894a13ba1a3210667c828492db98dca3e2076cc3735a920a3ca505d382bbc416464726573733a206c6f772d6c6576656c2064656c65676174652063616c6c206661696c6564a2646970667358221220a8de75debd8f3074f12a33d4ad8e26e9a88fb35913880a00ce203314ae1b7e3664736f6c634300080a0033496e697469616c697a61626c653a20636f6e747261637420697320616c726561",
  "immutableReferences": {
    "561": [
      {
        "length": 32,
        "start": 1455
      },
      {
        "length": 32,
        "start": 1519
      },
      {
        "length": 32,
        "start": 4595
      },
      {
        "length": 32,
        "start": 4659
      },
      {
        "length": 32,
        "start": 5072
      }
    ]
  },
  "source": "// SPDX-License-Identifier: MIT\r\npragma solidity 0.8.10;\r\n\r\nimport { IUnoFarmMeshswap as Farm } from \"./interfaces/IUnoFarmMeshswap.sol\";\r\nimport \"../../interfaces/IUnoFarmFactory.sol\";\r\nimport \"../../interfaces/IUnoAccessManager.sol\";\r\nimport \"../../interfaces/IUniswapV2Pair.sol\";\r\nimport \"../../interfaces/IWMATIC.sol\";\r\nimport \"@openzeppelin/contracts-upgradeable/proxy/utils/Initializable.sol\";\r\nimport \"@openzeppelin/contracts-upgradeable/token/ERC20/utils/SafeERC20Upgradeable.sol\";\r\nimport \"@openzeppelin/contracts-upgradeable/token/ERC20/IERC20Upgradeable.sol\";\r\nimport \"@openzeppelin/contracts-upgradeable/security/PausableUpgradeable.sol\";\r\nimport \"@openzeppelin/contracts-upgradeable/proxy/utils/UUPSUpgradeable.sol\";\r\n\r\ncontract UnoAssetRouterMeshswap is Initializable, PausableUpgradeable, UUPSUpgradeable {\r\n\tusing SafeERC20Upgradeable for IERC20Upgradeable;\r\n\r\n\t/**\r\n\t * @dev Contract Variables:\r\n\t * farmFactory - The contract that deploys new Farms and links them to {lpPair}s.\r\n\t * accessManager - Role manager contract.\r\n\t */\r\n\tIUnoFarmFactory public farmFactory;\r\n\tIUnoAccessManager public accessManager;\r\n\r\n\tbytes32 private constant DISTRIBUTOR_ROLE = keccak256(\"DISTRIBUTOR_ROLE\");\r\n\tbytes32 private constant PAUSER_ROLE = keccak256(\"PAUSER_ROLE\");\r\n\r\n\tuint256 public fee;\r\n\r\n\taddress public constant WMATIC = 0x0d500B1d8E8eF31E21C99d1Db9A6444d3ADf1270;\r\n\r\n\tevent Deposit(address indexed lpPool, address indexed sender, address indexed recipient, uint256 amount);\r\n\tevent Withdraw(address indexed lpPool, address indexed sender, address indexed recipient, uint256 amount);\r\n\tevent Distribute(address indexed lpPool, uint256 reward);\r\n\r\n\tevent FeeChanged(uint256 previousFee, uint256 newFee);\r\n\r\n\tmodifier onlyRole(bytes32 role) {\r\n\t\trequire(accessManager.hasRole(role, msg.sender), \"CALLER_NOT_AUTHORIZED\");\r\n\t\t_;\r\n\t}\r\n\r\n\t// ============ Methods ============\r\n\r\n\t/// @custom:oz-upgrades-unsafe-allow constructor\r\n\tconstructor() {\r\n\t\t_disableInitializers();\r\n\t}\r\n\r\n\tfunction initialize(address _accessManager, address _farmFactory) external initializer{\r\n\t\trequire(_accessManager != address(0), \"BAD_ACCESS_MANAGER\");\r\n\t\trequire(_farmFactory != address(0), \"BAD_FARM_FACTORY\");\r\n\r\n\t\t__Pausable_init();\r\n\t\taccessManager = IUnoAccessManager(_accessManager);\r\n\t\tfarmFactory = IUnoFarmFactory(_farmFactory);\r\n\t}\r\n\r\n\treceive() external payable {\r\n\t\trequire(msg.sender == WMATIC, \"ONLY_ACCEPT_WMATIC\"); // only accept ETH via fallback from the WMATIC contract\r\n\t}\r\n\r\n\t/**\r\n     * @dev Deposits tokens in the given pool. Creates new Farm contract if there isn't one deployed for the {lpPair} and deposits tokens in it. Emits a {Deposit} event.\r\n     * @param lpPair - Address of the pool to deposit tokens in.\r\n     * @param amountA  - Token A amount to deposit.\r\n     * @param amountB -  Token B amount to deposit.\r\n     * @param amountAMin - Bounds the extent to which the B/A price can go up before the transaction reverts.\r\n     * @param amountBMin - Bounds the extent to which the A/B price can go up before the transaction reverts.\r\n     * @param amountLP - Additional LP Token amount to deposit.\r\n     * @param recipient - Address which will receive the deposit.\r\n     \r\n     * @return sentA - Token A amount sent to the farm.\r\n     * @return sentB - Token B amount sent to the farm.\r\n     * @return liquidity - Total liquidity sent to the farm (in lpTokens).\r\n     */\r\n\tfunction deposit(address lpPair, uint256 amountA, uint256 amountB, uint256 amountAMin, uint256 amountBMin, uint256 amountLP, address recipient) external whenNotPaused returns (uint256 sentA, uint256 sentB, uint256 liquidity) {\r\n\t\tFarm farm = Farm(farmFactory.Farms(lpPair));\r\n\t\tif (farm == Farm(address(0))) {\r\n\t\t\tfarm = Farm(farmFactory.createFarm(lpPair));\r\n\t\t}\r\n\r\n\t\tif (amountLP > 0) {\r\n\t\t\tIERC20Upgradeable(lpPair).safeTransferFrom(msg.sender, address(farm), amountLP);\r\n\t\t}\r\n\t\tif (amountA > 0) {\r\n\t\t\tIERC20Upgradeable(farm.tokenA()).safeTransferFrom(msg.sender, address(farm), amountA);\r\n\t\t}\r\n\t\tif (amountB > 0) {\r\n\t\t\tIERC20Upgradeable(farm.tokenB()).safeTransferFrom(msg.sender, address(farm), amountB);\r\n\t\t}\r\n\r\n\t\t(sentA, sentB, liquidity) = farm.deposit(amountA, amountB, amountAMin, amountBMin, amountLP, msg.sender, recipient);\r\n\t\temit Deposit(lpPair, msg.sender, recipient, liquidity);\r\n\t}\r\n\r\n\t/**\r\n     * @dev Autoconverts MATIC into WMATIC and deposits tokens in the given pool. Creates new Farm contract if there isn't one deployed for the {lpStakingPool} and deposits tokens in it. Emits a {Deposit} event.\r\n     * @param lpPair - Address of the pool to deposit tokens in.\r\n     * @param amountToken  - Token amount to deposit.\r\n     * @param amountTokenMin - Bounds the extent to which the TOKEN/WMATIC price can go up before the transaction reverts.\r\n     * @param amountETHMin - Bounds the extent to which the WMATIC/TOKEN price can go up before the transaction reverts.\r\n     * @param amountLP - Additional LP Token amount to deposit.\r\n     * @param recipient - Address which will receive the deposit.\r\n     \r\n     * @return sentToken - Token amount sent to the farm.\r\n     * @return sentETH - WMATIC amount sent to the farm.\r\n     * @return liquidity - Total liquidity sent to the farm (in lpTokens).\r\n     */\r\n\tfunction depositETH(address lpPair, uint256 amountToken, uint256 amountTokenMin, uint256 amountETHMin, uint256 amountLP, address recipient) external payable whenNotPaused returns (uint256 sentToken, uint256 sentETH, uint256 liquidity){\r\n\t\trequire(msg.value > 0, \"NO_MATIC_SENT\");\r\n\t\tFarm farm = Farm(farmFactory.Farms(lpPair));\r\n\t\tif (farm == Farm(address(0))) {\r\n\t\t\tfarm = Farm(farmFactory.createFarm(lpPair));\r\n\t\t}\r\n\r\n\t\tif (amountLP > 0) {\r\n\t\t\tIERC20Upgradeable(lpPair).safeTransferFrom(msg.sender, address(farm), amountLP);\r\n\t\t}\r\n\r\n\t\taddress tokenA = farm.tokenA();\r\n\t\taddress tokenB = farm.tokenB();\r\n\r\n\t\tIWMATIC(WMATIC).deposit{ value: msg.value }();\r\n\t\tIERC20Upgradeable(WMATIC).safeTransfer(address(farm), msg.value);\r\n\t\tif (tokenA == WMATIC) {\r\n\t\t\tif (amountToken > 0) {\r\n\t\t\t\tIERC20Upgradeable(tokenB).safeTransferFrom(msg.sender, address(farm), amountToken);\r\n\t\t\t}\r\n\t\t\t(sentETH, sentToken, liquidity) = farm.deposit(msg.value, amountToken, amountETHMin, amountTokenMin, amountLP, address(this), recipient);\r\n\t\t\tIERC20Upgradeable(tokenB).safeTransfer(msg.sender, amountToken - sentToken);\r\n\t\t} else if (tokenB == WMATIC) {\r\n\t\t\tif (amountToken > 0) {\r\n\t\t\t\tIERC20Upgradeable(tokenA).safeTransferFrom(msg.sender, address(farm), amountToken);\r\n\t\t\t}\r\n\t\t\t(sentToken, sentETH, liquidity) = farm.deposit(amountToken, msg.value, amountTokenMin, amountETHMin, amountLP, address(this), recipient);\r\n\t\t\tIERC20Upgradeable(tokenA).safeTransfer(msg.sender, amountToken - sentToken);\r\n\t\t} else {\r\n\t\t\trevert(\"NOT_WMATIC_POOL\");\r\n\t\t}\r\n\r\n\t\tuint256 dust = msg.value - sentETH;\r\n\t\tif (dust > 0) {\r\n\t\t\tIWMATIC(WMATIC).withdraw(dust);\r\n\t\t\tpayable(msg.sender).transfer(dust);\r\n\t\t}\r\n\t\temit Deposit(lpPair, msg.sender, recipient, liquidity);\r\n\t}\r\n\r\n\t/** \r\n     * @dev Withdraws tokens from the given pool. Emits a {Withdraw} event.\r\n     * @param lpPair - LP pool to withdraw from.\r\n     * @param amount - LP amount to withdraw. \r\n     * @param amountAMin - The minimum amount of tokenA that must be received for the transaction not to revert.\r\n     * @param amountBMin - The minimum amount of tokenB that must be received for the transaction not to revert.\r\n     * @param withdrawLP - True: Withdraw in LP tokens, False: Withdraw in normal tokens.\r\n     * @param recipient - The address which will receive tokens.\r\n\r\n     * @return amountA - Token A amount sent to the {recipient}, 0 if withdrawLP == false.\r\n     * @return amountB - Token B amount sent to the {recipient}, 0 if withdrawLP == false.\r\n     */\r\n\tfunction withdraw(address lpPair, uint256 amount, uint256 amountAMin, uint256 amountBMin, bool withdrawLP, address recipient) external returns (uint256 amountA, uint256 amountB) {\r\n\t\tFarm farm = Farm(farmFactory.Farms(lpPair));\r\n\t\trequire(farm != Farm(address(0)), \"FARM_NOT_EXISTS\");\r\n\r\n\t\t(amountA, amountB) = farm.withdraw(amount, amountAMin, amountBMin, withdrawLP, msg.sender, recipient);\r\n\t\temit Withdraw(lpPair, msg.sender, recipient, amount);\r\n\t}\r\n\r\n\t/** \r\n     * @dev Autoconverts WMATIC into MATIC and withdraws tokens from the pool. Emits a {Withdraw} event.\r\n     * @param lpPair - LP pool to withdraw from.\r\n     * @param amount - LP amount to withdraw. \r\n     * @param amountTokenMin - The minimum amount of token that must be received for the transaction not to revert.\r\n     * @param amountETHMin - The minimum amount of MATIC that must be received for the transaction not to revert.\r\n     * @param recipient - The address which will receive tokens.\r\n\r\n     * @return amountToken - Token amount sent to the {recipient}.\r\n     * @return amountETH - MATIC amount sent to the {recipient}.\r\n     */\r\n\tfunction withdrawETH(address lpPair, uint256 amount, uint256 amountTokenMin, uint256 amountETHMin, address recipient) external returns (uint256 amountToken, uint256 amountETH) {\r\n\t\tFarm farm = Farm(farmFactory.Farms(lpPair));\r\n\t\trequire(farm != Farm(address(0)), \"FARM_NOT_EXISTS\");\r\n\r\n\t\taddress tokenA = farm.tokenA();\r\n\t\taddress tokenB = farm.tokenB();\r\n\r\n\t\tif (tokenA == WMATIC) {\r\n\t\t\t(amountETH, amountToken) = farm.withdraw(amount, amountETHMin, amountTokenMin, false, msg.sender, address(this));\r\n\t\t\tIERC20Upgradeable(tokenB).safeTransfer(recipient, amountToken);\r\n\t\t} else if (tokenB == WMATIC) {\r\n\t\t\t(amountToken, amountETH) = farm.withdraw(amount, amountTokenMin, amountETHMin, false, msg.sender, address(this));\r\n\t\t\tIERC20Upgradeable(tokenA).safeTransfer(recipient, amountToken);\r\n\t\t} else {\r\n\t\t\trevert(\"NOT_WMATIC_POOL\");\r\n\t\t}\r\n\r\n\t\tIWMATIC(WMATIC).withdraw(amountETH);\r\n\t\tpayable(recipient).transfer(amountETH);\r\n\t\temit Withdraw(lpPair, msg.sender, recipient, amount);\r\n\t}\r\n\r\n\t/**\r\n\t * @dev Distributes tokens between users.\r\n\t * @param lpPair - LP pool to distribute tokens in.\r\n\t * @param swapInfos - Arrays of structs with token arrays describing swap routes (rewardTokenToTokenA, rewardTokenToTokenB, rewarderTokenToTokenA, rewarderTokenToTokenB) and minimum amounts of output tokens that must be received for the transaction not to revert.\r\n\t * @param feeSwapInfo - Struct with token arrays describing swap route (rewardTokenToFeeToken, rewarderTokenToFeeToken) and minimum amounts of output tokens that must be received for the transaction not to revert.\r\n\t * @param feeTo - Address to collect fees to.\r\n\t *\r\n\t * Note: This function can only be called by the distributor.\r\n\t */\r\n\tfunction distribute(\r\n\t\taddress lpPair,\r\n\t\tFarm.SwapInfo[2] calldata swapInfos,\r\n\t\tFarm.SwapInfo calldata feeSwapInfo,\r\n\t\taddress feeTo\r\n\t) external whenNotPaused onlyRole(DISTRIBUTOR_ROLE) {\r\n\t\tFarm farm = Farm(farmFactory.Farms(lpPair));\r\n\t\trequire(farm != Farm(address(0)), \"FARM_NOT_EXISTS\");\r\n\r\n\t\tuint256 reward = farm.distribute(\r\n\t\t\tswapInfos,\r\n\t\t\tfeeSwapInfo,\r\n\t\t\tFarm.FeeInfo(feeTo, fee)\r\n\t\t);\r\n\t\temit Distribute(lpPair, reward);\r\n\t}\r\n\r\n\t/**\r\n     * @dev Returns tokens staked by the {_address} for the given {lpPair}.\r\n     * @param _address - The address to check stakes for.\r\n     * @param lpPair - LP pool to check stakes in.\r\n\r\n     * @return stakeLP - Total user stake(in LP tokens).\r\n     * @return stakeA - Token A stake.\r\n     * @return stakeB - Token B stake.\r\n     */\r\n\tfunction userStake(address _address, address lpPair) external view returns (uint256 stakeLP, uint256 stakeA, uint256 stakeB) {\r\n\t\tFarm farm = Farm(farmFactory.Farms(lpPair));\r\n\t\tif (farm != Farm(address(0))) {\r\n\t\t\tstakeLP = farm.userBalance(_address);\r\n\t\t\t(stakeA, stakeB) = getTokenStake(lpPair, stakeLP);\r\n\t\t}\r\n\t}\r\n\r\n\t/**\r\n     * @dev Returns total amount locked in the pool. Doesn't take pending rewards into account.\r\n     * @param lpPair - LP pool to check total deposits in.\r\n\r\n     * @return totalDepositsLP - Total deposits (in LP tokens).\r\n     * @return totalDepositsA - Token A deposits.\r\n     * @return totalDepositsB - Token B deposits.\r\n     */\r\n\tfunction totalDeposits(address lpPair) external view returns (uint256 totalDepositsLP, uint256 totalDepositsA, uint256 totalDepositsB) {\r\n\t\tFarm farm = Farm(farmFactory.Farms(lpPair));\r\n\t\tif (farm != Farm(address(0))) {\r\n\t\t\ttotalDepositsLP = farm.getTotalDeposits();\r\n\t\t\t(totalDepositsA, totalDepositsB) = getTokenStake(lpPair, totalDepositsLP);\r\n\t\t}\r\n\t}\r\n\r\n\t/**\r\n     * @dev Returns addresses of tokens in {lpPair}.\r\n     * @param lpPair - LP pair to check tokens in.\r\n\r\n     * @return tokens - Tokens addresses.\r\n     */\r\n\tfunction getTokens(address lpPair) external view returns (IERC20Upgradeable[] memory tokens) {\r\n\t\ttokens = new IERC20Upgradeable[](2);\r\n\t\ttokens[0] = IERC20Upgradeable(IUniswapV2Pair(lpPair).token0());\r\n\t\ttokens[1] = IERC20Upgradeable(IUniswapV2Pair(lpPair).token1());\r\n\t}\r\n\r\n\t/**\r\n     * @dev Converts LP tokens to normal tokens, value(amountA) == value(amountB) == 0.5*amountLP\r\n     * @param lpPair - LP pair for conversion.\r\n     * @param amountLP - Amount of LP tokens to convert.\r\n\r\n     * @return amountA - Token A amount.\r\n     * @return amountB - Token B amount.\r\n     */\r\n\tfunction getTokenStake(address lpPair, uint256 amountLP) internal view returns (uint256 amountA, uint256 amountB){\r\n\t\tuint256 totalSupply = IERC20Upgradeable(lpPair).totalSupply();\r\n\t\tamountA = (amountLP * IERC20Upgradeable(IUniswapV2Pair(lpPair).token0()).balanceOf(lpPair)) / totalSupply;\r\n\t\tamountB = (amountLP * IERC20Upgradeable(IUniswapV2Pair(lpPair).token1()).balanceOf(lpPair)) / totalSupply;\r\n\t}\r\n\r\n\t/**\r\n\t * @dev Change fee amount.\r\n\t * @param _fee -New fee to collect from farms. [10^18 == 100%]\r\n\t *\r\n\t * Note: This function can only be called by ADMIN_ROLE.\r\n\t */\r\n\tfunction setFee(uint256 _fee) external onlyRole(accessManager.ADMIN_ROLE()){\r\n\t\trequire(_fee <= 1 ether, \"BAD_FEE\");\r\n\t\tif (fee != _fee) {\r\n\t\t\temit FeeChanged(fee, _fee);\r\n\t\t\tfee = _fee;\r\n\t\t}\r\n\t}\r\n\r\n\tfunction pause() external onlyRole(PAUSER_ROLE) {\r\n\t\t_pause();\r\n\t}\r\n\r\n\tfunction unpause() external onlyRole(PAUSER_ROLE) {\r\n\t\t_unpause();\r\n\t}\r\n\r\n\tfunction _authorizeUpgrade(address) internal override onlyRole(accessManager.ADMIN_ROLE()){\r\n\r\n\t}\r\n}",
  "sourcePath": "C:\\Users\\jugli\\Desktop\\uno\\uno-contracts\\contracts\\apps\\meshswap\\UnoAssetRouterMeshswap.sol",
  "compiler": {
    "name": "solc",
    "version": "0.8.10+commit.fc410830.Emscripten.clang"
  },
  "schemaVersion": "3.4.10",
  "updatedAt": "2022-11-29T08:47:59.898Z",
  "networkType": "ethereum",
  "devdoc": {
    "kind": "dev",
    "methods": {
      "constructor": {
        "custom:oz-upgrades-unsafe-allow": "constructor"
      },
      "deposit(address,uint256,uint256,uint256,uint256,uint256,address)": {
        "details": "Deposits tokens in the given pool. Creates new Farm contract if there isn't one deployed for the {lpPair} and deposits tokens in it. Emits a {Deposit} event.",
        "params": {
          "amountA": "- Token A amount to deposit.",
          "amountAMin": "- Bounds the extent to which the B/A price can go up before the transaction reverts.",
          "amountB": "-  Token B amount to deposit.",
          "amountBMin": "- Bounds the extent to which the A/B price can go up before the transaction reverts.",
          "amountLP": "- Additional LP Token amount to deposit.",
          "lpPair": "- Address of the pool to deposit tokens in.",
          "recipient": "- Address which will receive the deposit."
        },
        "returns": {
          "liquidity": "- Total liquidity sent to the farm (in lpTokens).",
          "sentA": "- Token A amount sent to the farm.",
          "sentB": "- Token B amount sent to the farm."
        }
      },
      "depositETH(address,uint256,uint256,uint256,uint256,address)": {
        "details": "Autoconverts MATIC into WMATIC and deposits tokens in the given pool. Creates new Farm contract if there isn't one deployed for the {lpStakingPool} and deposits tokens in it. Emits a {Deposit} event.",
        "params": {
          "amountETHMin": "- Bounds the extent to which the WMATIC/TOKEN price can go up before the transaction reverts.",
          "amountLP": "- Additional LP Token amount to deposit.",
          "amountToken": "- Token amount to deposit.",
          "amountTokenMin": "- Bounds the extent to which the TOKEN/WMATIC price can go up before the transaction reverts.",
          "lpPair": "- Address of the pool to deposit tokens in.",
          "recipient": "- Address which will receive the deposit."
        },
        "returns": {
          "liquidity": "- Total liquidity sent to the farm (in lpTokens).",
          "sentETH": "- WMATIC amount sent to the farm.",
          "sentToken": "- Token amount sent to the farm."
        }
      },
      "distribute(address,(address[],uint256)[2],(address[],uint256),address)": {
        "details": "Distributes tokens between users.",
        "params": {
          "feeSwapInfo": "- Struct with token arrays describing swap route (rewardTokenToFeeToken, rewarderTokenToFeeToken) and minimum amounts of output tokens that must be received for the transaction not to revert.",
          "feeTo": "- Address to collect fees to. Note: This function can only be called by the distributor.",
          "lpPair": "- LP pool to distribute tokens in.",
          "swapInfos": "- Arrays of structs with token arrays describing swap routes (rewardTokenToTokenA, rewardTokenToTokenB, rewarderTokenToTokenA, rewarderTokenToTokenB) and minimum amounts of output tokens that must be received for the transaction not to revert."
        }
      },
      "getTokens(address)": {
        "details": "Returns addresses of tokens in {lpPair}.",
        "params": {
          "lpPair": "- LP pair to check tokens in."
        },
        "returns": {
          "tokens": "- Tokens addresses."
        }
      },
      "paused()": {
        "details": "Returns true if the contract is paused, and false otherwise."
      },
      "proxiableUUID()": {
        "details": "Implementation of the ERC1822 {proxiableUUID} function. This returns the storage slot used by the implementation. It is used to validate that the this implementation remains valid after an upgrade. IMPORTANT: A proxy pointing at a proxiable contract should not be considered proxiable itself, because this risks bricking a proxy that upgrades to it, by delegating to itself until out of gas. Thus it is critical that this function revert if invoked through a proxy. This is guaranteed by the `notDelegated` modifier."
      },
      "setFee(uint256)": {
        "details": "Change fee amount.",
        "params": {
          "_fee": "-New fee to collect from farms. [10^18 == 100%] Note: This function can only be called by ADMIN_ROLE."
        }
      },
      "totalDeposits(address)": {
        "details": "Returns total amount locked in the pool. Doesn't take pending rewards into account.",
        "params": {
          "lpPair": "- LP pool to check total deposits in."
        },
        "returns": {
          "totalDepositsA": "- Token A deposits.",
          "totalDepositsB": "- Token B deposits.",
          "totalDepositsLP": "- Total deposits (in LP tokens)."
        }
      },
      "upgradeTo(address)": {
        "details": "Upgrade the implementation of the proxy to `newImplementation`. Calls {_authorizeUpgrade}. Emits an {Upgraded} event."
      },
      "upgradeToAndCall(address,bytes)": {
        "details": "Upgrade the implementation of the proxy to `newImplementation`, and subsequently execute the function call encoded in `data`. Calls {_authorizeUpgrade}. Emits an {Upgraded} event."
      },
      "userStake(address,address)": {
        "details": "Returns tokens staked by the {_address} for the given {lpPair}.",
        "params": {
          "_address": "- The address to check stakes for.",
          "lpPair": "- LP pool to check stakes in."
        },
        "returns": {
          "stakeA": "- Token A stake.",
          "stakeB": "- Token B stake.",
          "stakeLP": "- Total user stake(in LP tokens)."
        }
      },
      "withdraw(address,uint256,uint256,uint256,bool,address)": {
        "details": "Withdraws tokens from the given pool. Emits a {Withdraw} event.",
        "params": {
          "amount": "- LP amount to withdraw. ",
          "amountAMin": "- The minimum amount of tokenA that must be received for the transaction not to revert.",
          "amountBMin": "- The minimum amount of tokenB that must be received for the transaction not to revert.",
          "lpPair": "- LP pool to withdraw from.",
          "recipient": "- The address which will receive tokens.",
          "withdrawLP": "- True: Withdraw in LP tokens, False: Withdraw in normal tokens."
        },
        "returns": {
          "amountA": "- Token A amount sent to the {recipient}, 0 if withdrawLP == false.",
          "amountB": "- Token B amount sent to the {recipient}, 0 if withdrawLP == false."
        }
      },
      "withdrawETH(address,uint256,uint256,uint256,address)": {
        "details": "Autoconverts WMATIC into MATIC and withdraws tokens from the pool. Emits a {Withdraw} event.",
        "params": {
          "amount": "- LP amount to withdraw. ",
          "amountETHMin": "- The minimum amount of MATIC that must be received for the transaction not to revert.",
          "amountTokenMin": "- The minimum amount of token that must be received for the transaction not to revert.",
          "lpPair": "- LP pool to withdraw from.",
          "recipient": "- The address which will receive tokens."
        },
        "returns": {
          "amountETH": "- MATIC amount sent to the {recipient}.",
          "amountToken": "- Token amount sent to the {recipient}."
        }
      }
    },
    "stateVariables": {
      "farmFactory": {
        "details": "Contract Variables: farmFactory - The contract that deploys new Farms and links them to {lpPair}s. accessManager - Role manager contract."
      }
    },
    "version": 1
  },
  "userdoc": {
    "kind": "user",
    "methods": {},
    "version": 1
  }
}