{
  "contractName": "UnoAutoStrategyFactoryV2",
  "abi": [
    {
      "inputs": [
        {
          "internalType": "address",
          "name": "_implementation",
          "type": "address"
        },
        {
          "internalType": "address",
          "name": "_accessManager",
          "type": "address"
        }
      ],
      "stateMutability": "nonpayable",
      "type": "constructor"
    },
    {
      "anonymous": false,
      "inputs": [
        {
          "indexed": true,
          "internalType": "address",
          "name": "assetRouter",
          "type": "address"
        }
      ],
      "name": "AssetRouterApproved",
      "type": "event"
    },
    {
      "anonymous": false,
      "inputs": [
        {
          "indexed": true,
          "internalType": "address",
          "name": "assetRouter",
          "type": "address"
        }
      ],
      "name": "AssetRouterRevoked",
      "type": "event"
    },
    {
      "anonymous": false,
      "inputs": [
        {
          "indexed": true,
          "internalType": "address",
          "name": "autoStrategy",
          "type": "address"
        }
      ],
      "name": "AutoStrategyDeployed",
      "type": "event"
    },
    {
      "anonymous": false,
      "inputs": [
        {
          "indexed": false,
          "internalType": "address",
          "name": "account",
          "type": "address"
        }
      ],
      "name": "Paused",
      "type": "event"
    },
    {
      "anonymous": false,
      "inputs": [
        {
          "indexed": false,
          "internalType": "address",
          "name": "account",
          "type": "address"
        }
      ],
      "name": "Unpaused",
      "type": "event"
    },
    {
      "inputs": [],
      "name": "accessManager",
      "outputs": [
        {
          "internalType": "contract IUnoAccessManager",
          "name": "",
          "type": "address"
        }
      ],
      "stateMutability": "view",
      "type": "function"
    },
    {
      "inputs": [
        {
          "internalType": "address",
          "name": "",
          "type": "address"
        }
      ],
      "name": "assetRouterApproved",
      "outputs": [
        {
          "internalType": "bool",
          "name": "",
          "type": "bool"
        }
      ],
      "stateMutability": "view",
      "type": "function"
    },
    {
      "inputs": [
        {
          "internalType": "uint256",
          "name": "",
          "type": "uint256"
        }
      ],
      "name": "autoStrategies",
      "outputs": [
        {
          "internalType": "address",
          "name": "",
          "type": "address"
        }
      ],
      "stateMutability": "view",
      "type": "function"
    },
    {
      "inputs": [],
      "name": "autoStrategyBeacon",
      "outputs": [
        {
          "internalType": "address",
          "name": "",
          "type": "address"
        }
      ],
      "stateMutability": "view",
      "type": "function"
    },
    {
      "inputs": [],
      "name": "paused",
      "outputs": [
        {
          "internalType": "bool",
          "name": "",
          "type": "bool"
        }
      ],
      "stateMutability": "view",
      "type": "function"
    },
    {
      "inputs": [],
      "name": "version",
      "outputs": [
        {
          "internalType": "uint256",
          "name": "",
          "type": "uint256"
        }
      ],
      "stateMutability": "view",
      "type": "function"
    },
    {
      "inputs": [
        {
          "components": [
            {
              "internalType": "address",
              "name": "pool",
              "type": "address"
            },
            {
              "internalType": "address",
              "name": "assetRouter",
              "type": "address"
            }
          ],
          "internalType": "struct UnoAutoStrategyFactoryV2.PoolInfo[]",
          "name": "poolInfos",
          "type": "tuple[]"
        }
      ],
      "name": "createStrategy",
      "outputs": [
        {
          "internalType": "address",
          "name": "",
          "type": "address"
        }
      ],
      "stateMutability": "nonpayable",
      "type": "function"
    },
    {
      "inputs": [
        {
          "internalType": "address",
          "name": "_assetRouter",
          "type": "address"
        }
      ],
      "name": "approveAssetRouter",
      "outputs": [],
      "stateMutability": "nonpayable",
      "type": "function"
    },
    {
      "inputs": [
        {
          "internalType": "address",
          "name": "_assetRouter",
          "type": "address"
        }
      ],
      "name": "revokeAssetRouter",
      "outputs": [],
      "stateMutability": "nonpayable",
      "type": "function"
    },
    {
      "inputs": [
        {
          "internalType": "address",
          "name": "newImplementation",
          "type": "address"
        }
      ],
      "name": "upgradeStrategies",
      "outputs": [],
      "stateMutability": "nonpayable",
      "type": "function"
    },
    {
      "inputs": [],
      "name": "autoStrategiesLength",
      "outputs": [
        {
          "internalType": "uint256",
          "name": "",
          "type": "uint256"
        }
      ],
      "stateMutability": "view",
      "type": "function"
    },
    {
      "inputs": [],
      "name": "pause",
      "outputs": [],
      "stateMutability": "nonpayable",
      "type": "function"
    },
    {
      "inputs": [],
      "name": "unpause",
      "outputs": [],
      "stateMutability": "nonpayable",
      "type": "function"
    }
  ],
  "bytecode": "0x608060405234801561001057600080fd5b50604051620020aa380380620020aa833981016040819052610031916100d5565b6000805460ff191690556040518290610049906100ab565b6001600160a01b039091168152602001604051809103906000f080158015610075573d6000803e3d6000fd5b50600380546001600160a01b039283166001600160a01b0319918216179091556002805493909216921691909117905550610108565b6105cb8062001adf83390190565b80516001600160a01b03811681146100d057600080fd5b919050565b600080604083850312156100e857600080fd5b6100f1836100b9565b91506100ff602084016100b9565b90509250929050565b6119c780620001186000396000f3fe60806040523480156200001157600080fd5b5060043610620000f15760003560e01c80638456cb591162000097578063b825acbe116200006e578063b825acbe14620001c5578063c70558a714620001dc578063e4af371f14620001f3578063fdcb6068146200020a57600080fd5b80638456cb59146200017e578063a7cd87421462000188578063b4e0ef6114620001ae57600080fd5b806354fd4d5011620000cc57806354fd4d5014620001465780635c975abb146200014f57806364d34cfd146200016757600080fd5b80630e78e33014620000f657806318827050146200010d5780633f4ba83a146200013a575b600080fd5b6004545b6040519081526020015b60405180910390f35b60035462000121906001600160a01b031681565b6040516001600160a01b03909116815260200162000104565b620001446200021e565b005b620000fa600281565b60005460ff165b604051901515815260200162000104565b620001446200017836600462000dd6565b62000311565b6200014462000498565b620001566200019936600462000dd6565b60016020526000908152604090205460ff1681565b62000121620001bf36600462000dfb565b62000585565b62000144620001d636600462000dd6565b620005b0565b62000121620001ed36600462000e15565b620007d5565b620001446200020436600462000dd6565b6200095c565b60025462000121906001600160a01b031681565b600254604051632474521560e21b81527f65d7a28e3265b37a6474929f336521b332c1681b933f6cb9f3376673440d862a60048201523360248201526001600160a01b03909116906391d1485490604401602060405180830381865afa1580156200028d573d6000803e3d6000fd5b505050506040513d601f19601f82011682018060405250810190620002b3919062000e8f565b620003055760405162461bcd60e51b815260206004820152601160248201527f43414c4c45525f4e4f545f50415553455200000000000000000000000000000060448201526064015b60405180910390fd5b6200030f62000b80565b565b60025460408051631d6c8e3f60e21b815290516001600160a01b03909216916391d148549183916375b238fc916004808201926020929091908290030181865afa15801562000364573d6000803e3d6000fd5b505050506040513d601f19601f820116820180604052508101906200038a919062000eb3565b6040516001600160e01b031960e084901b1681526004810191909152336024820152604401602060405180830381865afa158015620003cd573d6000803e3d6000fd5b505050506040513d601f19601f82011682018060405250810190620003f3919062000e8f565b620004345760405162461bcd60e51b815260206004820152601060248201526f21a0a62622a92fa727aa2fa0a226a4a760811b6044820152606401620002fc565b600354604051631b2ce7f360e11b81526001600160a01b03838116600483015290911690633659cfe690602401600060405180830381600087803b1580156200047c57600080fd5b505af115801562000491573d6000803e3d6000fd5b5050505050565b600254604051632474521560e21b81527f65d7a28e3265b37a6474929f336521b332c1681b933f6cb9f3376673440d862a60048201523360248201526001600160a01b03909116906391d1485490604401602060405180830381865afa15801562000507573d6000803e3d6000fd5b505050506040513d601f19601f820116820180604052508101906200052d919062000e8f565b6200057b5760405162461bcd60e51b815260206004820152601160248201527f43414c4c45525f4e4f545f5041555345520000000000000000000000000000006044820152606401620002fc565b6200030f62000c1e565b600481815481106200059657600080fd5b6000918252602090912001546001600160a01b0316905081565b60005460ff1615620005f85760405162461bcd60e51b815260206004820152601060248201526f14185d5cd8589b194e881c185d5cd95960821b6044820152606401620002fc565b60025460408051631d6c8e3f60e21b815290516001600160a01b03909216916391d148549183916375b238fc916004808201926020929091908290030181865afa1580156200064b573d6000803e3d6000fd5b505050506040513d601f19601f8201168201806040525081019062000671919062000eb3565b6040516001600160e01b031960e084901b1681526004810191909152336024820152604401602060405180830381865afa158015620006b4573d6000803e3d6000fd5b505050506040513d601f19601f82011682018060405250810190620006da919062000e8f565b6200071b5760405162461bcd60e51b815260206004820152601060248201526f21a0a62622a92fa727aa2fa0a226a4a760811b6044820152606401620002fc565b6001600160a01b03811660009081526001602052604090205460ff1615620007865760405162461bcd60e51b815260206004820152601d60248201527f41535345545f524f555445525f414c52454144595f415050524f5645440000006044820152606401620002fc565b6001600160a01b0381166000818152600160208190526040808320805460ff1916909217909155517ffb4acedbbcf804b1c5baee0510fcde0fb8e72629e6118cbb3c4484f811d233699190a250565b6000805460ff16156200081e5760405162461bcd60e51b815260206004820152601060248201526f14185d5cd8589b194e881c185d5cd95960821b6044820152606401620002fc565b60005b82811015620008e2576001600085858481811062000843576200084362000ecd565b90506040020160200160208101906200085d919062000dd6565b6001600160a01b0316815260208101919091526040016000205460ff161515600114620008cd5760405162461bcd60e51b815260206004820152601960248201527f41535345545f524f555445525f4e4f545f415050524f564544000000000000006044820152606401620002fc565b80620008d98162000ee3565b91505062000821565b506000620008f1848462000c9c565b600480546001810182556000919091527f8a35acfbc15ff81a39ae7d344fd709f28e8600b4aa8c65c6b64bfe7fe36bd19b0180547fffffffffffffffffffffffff0000000000000000000000000000000000000000166001600160a01b038316179055949350505050565b60005460ff1615620009a45760405162461bcd60e51b815260206004820152601060248201526f14185d5cd8589b194e881c185d5cd95960821b6044820152606401620002fc565b60025460408051631d6c8e3f60e21b815290516001600160a01b03909216916391d148549183916375b238fc916004808201926020929091908290030181865afa158015620009f7573d6000803e3d6000fd5b505050506040513d601f19601f8201168201806040525081019062000a1d919062000eb3565b6040516001600160e01b031960e084901b1681526004810191909152336024820152604401602060405180830381865afa15801562000a60573d6000803e3d6000fd5b505050506040513d601f19601f8201168201806040525081019062000a86919062000e8f565b62000ac75760405162461bcd60e51b815260206004820152601060248201526f21a0a62622a92fa727aa2fa0a226a4a760811b6044820152606401620002fc565b6001600160a01b03811660009081526001602081905260409091205460ff1615151462000b375760405162461bcd60e51b815260206004820152601960248201527f41535345545f524f555445525f4e4f545f415050524f564544000000000000006044820152606401620002fc565b6001600160a01b038116600081815260016020526040808220805460ff19169055517fe9b0c2ff92f22d64fdb067d796fe9a1f505361c8670bdcbc11a6213f3afda27a9190a250565b60005460ff1662000bd45760405162461bcd60e51b815260206004820152601460248201527f5061757361626c653a206e6f74207061757365640000000000000000000000006044820152606401620002fc565b6000805460ff191690557f5db9ee0a495bf2e6ff9c91a7834c1ba4fdd244a5e8aa4e537bd38aeae4b073aa335b6040516001600160a01b03909116815260200160405180910390a1565b60005460ff161562000c665760405162461bcd60e51b815260206004820152601060248201526f14185d5cd8589b194e881c185d5cd95960821b6044820152606401620002fc565b6000805460ff191660011790557f62e78cea01bee320cd4e420270b5ea74000d11b0c9f74754ebdbfc544b05a25862000c013390565b60035460025460405160009283926001600160a01b03918216927f74552fb6d16919d69b7cf147441c3bccec038a2abefc6e012501911c41dc8e4a9262000cee92899289929091169060240162000f0d565b60408051601f198184030181529181526020820180517bffffffffffffffffffffffffffffffffffffffffffffffffffffffff166001600160e01b031990941693909317909252905162000d429062000dab565b62000d4f92919062000f87565b604051809103906000f08015801562000d6c573d6000803e3d6000fd5b506040519091506001600160a01b038216907f4cb27ee5c206cc4d6164f6385446f28b1d026461aa55d150739319366a49b8a190600090a29392505050565b6109a18062000ff183390190565b80356001600160a01b038116811462000dd157600080fd5b919050565b60006020828403121562000de957600080fd5b62000df48262000db9565b9392505050565b60006020828403121562000e0e57600080fd5b5035919050565b6000806020838503121562000e2957600080fd5b823567ffffffffffffffff8082111562000e4257600080fd5b818501915085601f83011262000e5757600080fd5b81358181111562000e6757600080fd5b8660208260061b850101111562000e7d57600080fd5b60209290920196919550909350505050565b60006020828403121562000ea257600080fd5b8151801515811462000df457600080fd5b60006020828403121562000ec657600080fd5b5051919050565b634e487b7160e01b600052603260045260246000fd5b600060001982141562000f0657634e487b7160e01b600052601160045260246000fd5b5060010190565b60408082528181018490526000908560608401835b8781101562000f69576001600160a01b038062000f3f8562000db9565b16835260208162000f5282870162000db9565b169084015250918301919083019060010162000f22565b508093505050506001600160a01b0383166020830152949350505050565b6001600160a01b038316815260006020604081840152835180604085015260005b8181101562000fc65785810183015185820160600152820162000fa8565b8181111562000fd9576000606083870101525b50601f01601f19169290920160600194935050505056fe60806040526040516109a13803806109a18339810160408190526100229161048b565b61004d60017fa3f0ad74e5423aebfd80d3ef4346578335a9a72aeaee59ff6cb3582b35133d5161054b565b60008051602061095a8339815191521461006957610069610570565b6100758282600061007c565b50506105f0565b61008583610147565b6040516001600160a01b038416907f1cf3b03a6cf19fa2baba4df148e9dcabedea7f8a5c07840e207e5c089be95d3e90600090a26000825111806100c65750805b1561014257610140836001600160a01b0316635c60da1b6040518163ffffffff1660e01b8152600401602060405180830381865afa15801561010c573d6000803e3d6000fd5b505050506040513d601f19601f820116820180604052508101906101309190610586565b836102d860201b6100291760201c565b505b505050565b61015a8161030460201b6100551760201c565b6101b95760405162461bcd60e51b815260206004820152602560248201527f455243313936373a206e657720626561636f6e206973206e6f74206120636f6e6044820152641d1c9858dd60da1b60648201526084015b60405180910390fd5b61022d816001600160a01b0316635c60da1b6040518163ffffffff1660e01b8152600401602060405180830381865afa1580156101fa573d6000803e3d6000fd5b505050506040513d601f19601f8201168201806040525081019061021e9190610586565b61030460201b6100551760201c565b6102925760405162461bcd60e51b815260206004820152603060248201527f455243313936373a20626561636f6e20696d706c656d656e746174696f6e206960448201526f1cc81b9bdd08184818dbdb9d1c9858dd60821b60648201526084016101b0565b806102b760008051602061095a83398151915260001b61031360201b6100641760201c565b80546001600160a01b0319166001600160a01b039290921691909117905550565b60606102fd838360405180606001604052806027815260200161097a60279139610316565b9392505050565b6001600160a01b03163b151590565b90565b60606001600160a01b0384163b61037e5760405162461bcd60e51b815260206004820152602660248201527f416464726573733a2064656c65676174652063616c6c20746f206e6f6e2d636f6044820152651b9d1c9858dd60d21b60648201526084016101b0565b600080856001600160a01b03168560405161039991906105a1565b600060405180830381855af49150503d80600081146103d4576040519150601f19603f3d011682016040523d82523d6000602084013e6103d9565b606091505b5090925090506103ea8282866103f4565b9695505050505050565b606083156104035750816102fd565b8251156104135782518084602001fd5b8160405162461bcd60e51b81526004016101b091906105bd565b80516001600160a01b038116811461044457600080fd5b919050565b634e487b7160e01b600052604160045260246000fd5b60005b8381101561047a578181015183820152602001610462565b838111156101405750506000910152565b6000806040838503121561049e57600080fd5b6104a78361042d565b60208401519092506001600160401b03808211156104c457600080fd5b818501915085601f8301126104d857600080fd5b8151818111156104ea576104ea610449565b604051601f8201601f19908116603f0116810190838211818310171561051257610512610449565b8160405282815288602084870101111561052b57600080fd5b61053c83602083016020880161045f565b80955050505050509250929050565b60008282101561056b57634e487b7160e01b600052601160045260246000fd5b500390565b634e487b7160e01b600052600160045260246000fd5b60006020828403121561059857600080fd5b6102fd8261042d565b600082516105b381846020870161045f565b9190910192915050565b60208152600082518060208401526105dc81604085016020870161045f565b601f01601f19169190910160400192915050565b61035b806105ff6000396000f3fe60806040523661001357610011610017565b005b6100115b610027610022610067565b610100565b565b606061004e83836040518060600160405280602781526020016102ff60279139610124565b9392505050565b6001600160a01b03163b151590565b90565b600061009a7fa3f0ad74e5423aebfd80d3ef4346578335a9a72aeaee59ff6cb3582b35133d50546001600160a01b031690565b6001600160a01b0316635c60da1b6040518163ffffffff1660e01b8152600401602060405180830381865afa1580156100d7573d6000803e3d6000fd5b505050506040513d601f19601f820116820180604052508101906100fb9190610256565b905090565b3660008037600080366000845af43d6000803e80801561011f573d6000f35b3d6000fd5b60606001600160a01b0384163b6101a85760405162461bcd60e51b815260206004820152602660248201527f416464726573733a2064656c65676174652063616c6c20746f206e6f6e2d636f60448201527f6e7472616374000000000000000000000000000000000000000000000000000060648201526084015b60405180910390fd5b600080856001600160a01b0316856040516101c391906102af565b600060405180830381855af49150503d80600081146101fe576040519150601f19603f3d011682016040523d82523d6000602084013e610203565b606091505b509150915061021382828661021d565b9695505050505050565b6060831561022c57508161004e565b82511561023c5782518084602001fd5b8160405162461bcd60e51b815260040161019f91906102cb565b60006020828403121561026857600080fd5b81516001600160a01b038116811461004e57600080fd5b60005b8381101561029a578181015183820152602001610282565b838111156102a9576000848401525b50505050565b600082516102c181846020870161027f565b9190910192915050565b60208152600082518060208401526102ea81604085016020870161027f565b601f01601f1916919091016040019291505056fe416464726573733a206c6f772d6c6576656c2064656c65676174652063616c6c206661696c6564a2646970667358221220fd791bea4e54e5798591fcb8ebc398d69bcc2ec8e881b02276a57e5c0bf1e1ec64736f6c634300080a0033a3f0ad74e5423aebfd80d3ef4346578335a9a72aeaee59ff6cb3582b35133d50416464726573733a206c6f772d6c6576656c2064656c65676174652063616c6c206661696c6564a264697066735822122044a4f0f562dbc829b0ac0188266409bc8460345736180cdfe9c9c9de424848c264736f6c634300080a0033608060405234801561001057600080fd5b506040516105cb3803806105cb83398101604081905261002f91610151565b61003833610047565b61004181610097565b50610181565b600080546001600160a01b038381166001600160a01b0319831681178455604051919092169283917f8be0079c531659141344cd1fd0a4f28419497f9722a3daafe3b4186f6b6457e09190a35050565b6100aa8161014260201b6102bd1760201c565b6101205760405162461bcd60e51b815260206004820152603360248201527f5570677261646561626c65426561636f6e3a20696d706c656d656e746174696f60448201527f6e206973206e6f74206120636f6e747261637400000000000000000000000000606482015260840160405180910390fd5b600180546001600160a01b0319166001600160a01b0392909216919091179055565b6001600160a01b03163b151590565b60006020828403121561016357600080fd5b81516001600160a01b038116811461017a57600080fd5b9392505050565b61043b806101906000396000f3fe608060405234801561001057600080fd5b50600436106100675760003560e01c8063715018a611610050578063715018a6146100aa5780638da5cb5b146100b2578063f2fde38b146100c357600080fd5b80633659cfe61461006c5780635c60da1b14610081575b600080fd5b61007f61007a3660046103d5565b6100d6565b005b6001546001600160a01b03165b6040516001600160a01b03909116815260200160405180910390f35b61007f610175565b6000546001600160a01b031661008e565b61007f6100d13660046103d5565b6101db565b6000546001600160a01b031633146101355760405162461bcd60e51b815260206004820181905260248201527f4f776e61626c653a2063616c6c6572206973206e6f7420746865206f776e657260448201526064015b60405180910390fd5b61013e816102cc565b6040516001600160a01b038216907fbc7cd75a20ee27fd9adebab32041f755214dbc6bffa90cc0225b39da2e5c2d3b90600090a250565b6000546001600160a01b031633146101cf5760405162461bcd60e51b815260206004820181905260248201527f4f776e61626c653a2063616c6c6572206973206e6f7420746865206f776e6572604482015260640161012c565b6101d96000610378565b565b6000546001600160a01b031633146102355760405162461bcd60e51b815260206004820181905260248201527f4f776e61626c653a2063616c6c6572206973206e6f7420746865206f776e6572604482015260640161012c565b6001600160a01b0381166102b15760405162461bcd60e51b815260206004820152602660248201527f4f776e61626c653a206e6577206f776e657220697320746865207a65726f206160448201527f6464726573730000000000000000000000000000000000000000000000000000606482015260840161012c565b6102ba81610378565b50565b6001600160a01b03163b151590565b6001600160a01b0381163b6103495760405162461bcd60e51b815260206004820152603360248201527f5570677261646561626c65426561636f6e3a20696d706c656d656e746174696f60448201527f6e206973206e6f74206120636f6e747261637400000000000000000000000000606482015260840161012c565b6001805473ffffffffffffffffffffffffffffffffffffffff19166001600160a01b0392909216919091179055565b600080546001600160a01b0383811673ffffffffffffffffffffffffffffffffffffffff19831681178455604051919092169283917f8be0079c531659141344cd1fd0a4f28419497f9722a3daafe3b4186f6b6457e09190a35050565b6000602082840312156103e757600080fd5b81356001600160a01b03811681146103fe57600080fd5b939250505056fea26469706673582212208caf3fcc0f6242bb98c0a62e3d7f11a70d65b10d8b909de8fedb98a9fdf3a6ee64736f6c634300080a0033",
  "immutableReferences": {},
  "source": "// SPDX-License-Identifier: MIT\r\npragma solidity 0.8.10;\r\n\r\nimport '@openzeppelin/contracts/proxy/beacon/UpgradeableBeacon.sol';\r\nimport '@openzeppelin/contracts/proxy/beacon/BeaconProxy.sol';\r\nimport '@openzeppelin/contracts/security/Pausable.sol';\r\nimport '../interfaces/IUnoAccessManager.sol'; \r\n\r\ncontract UnoAutoStrategyFactoryV2 is Pausable {\r\n    /**\r\n     * @dev PoolInfo:\r\n     * {assetRouter} - UnoAssetRouter contract.\r\n     * {pool} - Pool address. \r\n     */\r\n    struct PoolInfo {\r\n        address pool;\r\n        address assetRouter;\r\n    }\r\n\r\n    /**\r\n     * @dev Contract Variables:\r\n     * assetRouterApproved - Approved UnoAssetRouter contracts.\r\n     \r\n     * accessManager - Role manager contract.\r\n     * autoStrategyBeacon - AutoStrategy contract implementation.\r\n     * autoStrategies - List of deployed AutoStrategy contracts.\r\n     */\r\n    mapping(address => bool) public assetRouterApproved;\r\n\r\n    IUnoAccessManager public accessManager;\r\n    address public autoStrategyBeacon;\r\n    address[] public autoStrategies;\r\n\r\n    bytes32 private constant PAUSER_ROLE = keccak256('PAUSER_ROLE');\r\n\r\n    uint256 public constant version = 2;\r\n    \r\n    event AutoStrategyDeployed(address indexed autoStrategy);\r\n    event AssetRouterApproved(address indexed assetRouter);\r\n    event AssetRouterRevoked(address indexed assetRouter);\r\n\r\n    modifier onlyAdmin(){\r\n        require(accessManager.hasRole(accessManager.ADMIN_ROLE(), msg.sender), 'CALLER_NOT_ADMIN');\r\n        _;\r\n    }\r\n    modifier onlyPauser(){\r\n        require(accessManager.hasRole(PAUSER_ROLE, msg.sender), 'CALLER_NOT_PAUSER');\r\n        _;\r\n    }\r\n\r\n    // ============ Methods ============\r\n\r\n    constructor (address _implementation, address _accessManager) {\r\n        autoStrategyBeacon = address(new UpgradeableBeacon(_implementation));\r\n        accessManager = IUnoAccessManager(_accessManager);\r\n    }\r\n\r\n    /**\r\n     * @dev Checks if provided assetRouters are approved for use, then deploys new AutoStrategy contract.\r\n     * @param poolInfos - An array of (assetRouter - pool) pairs. AssetRouter needs to be approved for PoolInfo to be valid. poolInfos.length must be >= 2.\r\n     * @return autoStrategy - Deployed Auto Strategy contract address.\r\n     */  \r\n    function createStrategy(PoolInfo[] calldata poolInfos) whenNotPaused external returns (address) {\r\n        for (uint256 i = 0; i < poolInfos.length; i++) {\r\n            require(assetRouterApproved[poolInfos[i].assetRouter] == true, 'ASSET_ROUTER_NOT_APPROVED');\r\n        }\r\n        address autoStrategy = _createStrategy(poolInfos);\r\n        autoStrategies.push(autoStrategy);\r\n        return autoStrategy;\r\n    }\r\n\r\n    /**\r\n     * @dev Approves an address for use as an AssetRouter. Emits {AssetRouterApproved} event.\r\n     * @param _assetRouter - Asset router address to approve.\r\n\r\n     * Note: This function can only be called by an admin.\r\n     */  \r\n    function approveAssetRouter(address _assetRouter) whenNotPaused external onlyAdmin {\r\n        require(assetRouterApproved[_assetRouter] == false, 'ASSET_ROUTER_ALREADY_APPROVED');\r\n        assetRouterApproved[_assetRouter] = true;\r\n        emit AssetRouterApproved(_assetRouter);\r\n    }\r\n\r\n    /**\r\n     * @dev Revokes Asset Router approval from an address. Emits {AssetRouterRevoked} event.\r\n     * @param _assetRouter - Address to revoke approval from.\r\n\r\n     * Note: This function can only be called by an admin.\r\n     */ \r\n    function revokeAssetRouter(address _assetRouter) whenNotPaused external onlyAdmin {\r\n        require(assetRouterApproved[_assetRouter] == true, 'ASSET_ROUTER_NOT_APPROVED');\r\n        assetRouterApproved[_assetRouter] = false;\r\n        emit AssetRouterRevoked(_assetRouter);\r\n    }\r\n\r\n    /**\r\n     * @dev Upgrade all AutoStrategy contracts to a new implementation using Beacon Proxy.\r\n     * @param newImplementation - New AutoStrategy implementation.\r\n\r\n     * Note: This function can only be called by an admin.\r\n     */ \r\n    function upgradeStrategies(address newImplementation) external onlyAdmin {\r\n        UpgradeableBeacon(autoStrategyBeacon).upgradeTo(newImplementation);\r\n    }\r\n\r\n    /**\r\n     * @dev Deploys new AutoStrategy contract and calls initialize() on it. Emits {AutoStrategyDeployed} event.\r\n     */\r\n    function _createStrategy(PoolInfo[] calldata poolInfos) internal returns (address) {\r\n        BeaconProxy proxy = new BeaconProxy(\r\n            autoStrategyBeacon,\r\n            abi.encodeWithSelector(\r\n                bytes4(keccak256('initialize((address,address)[],address)')),\r\n                poolInfos,\r\n                accessManager\r\n            )\r\n        );\r\n        emit AutoStrategyDeployed(address(proxy));\r\n        return address(proxy);\r\n    }\r\n\r\n    function autoStrategiesLength() external view returns (uint256) {\r\n        return autoStrategies.length;\r\n    }\r\n\r\n    function pause() external onlyPauser {\r\n        _pause();\r\n    }\r\n\r\n    function unpause() external onlyPauser {\r\n        _unpause();\r\n    }\r\n}\r\n",
  "sourcePath": "C:\\Users\\nick_\\OneDrive\\\\UNO\\Solidity\\autostrats_balancer\\uno-contracts\\contracts\\test\\UnoAutoStrategyFactoryV2.sol",
  "compiler": {
    "name": "solc",
    "version": "0.8.10+commit.fc410830.Emscripten.clang"
  },
  "schemaVersion": "3.4.7",
  "updatedAt": "2022-08-26T13:11:25.590Z",
  "devdoc": {
    "kind": "dev",
    "methods": {
      "approveAssetRouter(address)": {
        "details": "Approves an address for use as an AssetRouter. Emits {AssetRouterApproved} event.",
        "params": {
          "_assetRouter": "- Asset router address to approve. Note: This function can only be called by an admin."
        }
      },
      "createStrategy((address,address)[])": {
        "details": "Checks if provided assetRouters are approved for use, then deploys new AutoStrategy contract.",
        "params": {
          "poolInfos": "- An array of (assetRouter - pool) pairs. AssetRouter needs to be approved for PoolInfo to be valid. poolInfos.length must be >= 2."
        },
        "returns": {
          "_0": "autoStrategy - Deployed Auto Strategy contract address."
        }
      },
      "paused()": {
        "details": "Returns true if the contract is paused, and false otherwise."
      },
      "revokeAssetRouter(address)": {
        "details": "Revokes Asset Router approval from an address. Emits {AssetRouterRevoked} event.",
        "params": {
          "_assetRouter": "- Address to revoke approval from. Note: This function can only be called by an admin."
        }
      },
      "upgradeStrategies(address)": {
        "details": "Upgrade all AutoStrategy contracts to a new implementation using Beacon Proxy.",
        "params": {
          "newImplementation": "- New AutoStrategy implementation. Note: This function can only be called by an admin."
        }
      }
    },
    "stateVariables": {
      "assetRouterApproved": {
        "details": "Contract Variables: assetRouterApproved - Approved UnoAssetRouter contracts. accessManager - Role manager contract. autoStrategyBeacon - AutoStrategy contract implementation. autoStrategies - List of deployed AutoStrategy contracts."
      }
    },
    "version": 1
  },
  "userdoc": {
    "kind": "user",
    "methods": {},
    "version": 1
  }
}