{
  "contractName": "UnoAutoStrategy",
  "abi": [
    {
      "inputs": [],
      "name": "BAD_POOL_COUNT",
      "type": "error"
    },
    {
      "inputs": [],
      "name": "BAD_POOL_ID",
      "type": "error"
    },
    {
      "inputs": [],
      "name": "CALLER_NOT_LIQUIDITY_MANAGER",
      "type": "error"
    },
    {
      "inputs": [],
      "name": "CANT_CALL_ON_THE_SAME_BLOCK",
      "type": "error"
    },
    {
      "inputs": [],
      "name": "ETH_DEPOSIT_REJECTED",
      "type": "error"
    },
    {
      "inputs": [],
      "name": "INSUFFICIENT_LIQUIDITY",
      "type": "error"
    },
    {
      "inputs": [],
      "name": "NOT_ETH_POOL",
      "type": "error"
    },
    {
      "inputs": [],
      "name": "NO_LIQUIDITY",
      "type": "error"
    },
    {
      "inputs": [],
      "name": "PAUSED",
      "type": "error"
    },
    {
      "inputs": [],
      "name": "SWAP_NOT_SUCCESSFUL",
      "type": "error"
    },
    {
      "inputs": [],
      "name": "TOKEN_A_DUST_LEFT",
      "type": "error"
    },
    {
      "inputs": [],
      "name": "TOKEN_B_DUST_LEFT",
      "type": "error"
    },
    {
      "inputs": [],
      "name": "TRANSFER_NOT_SUCCESSFUL",
      "type": "error"
    },
    {
      "anonymous": false,
      "inputs": [
        {
          "indexed": true,
          "internalType": "address",
          "name": "owner",
          "type": "address"
        },
        {
          "indexed": true,
          "internalType": "address",
          "name": "spender",
          "type": "address"
        },
        {
          "indexed": false,
          "internalType": "uint256",
          "name": "value",
          "type": "uint256"
        }
      ],
      "name": "Approval",
      "type": "event"
    },
    {
      "anonymous": false,
      "inputs": [
        {
          "indexed": true,
          "internalType": "address",
          "name": "recipient",
          "type": "address"
        },
        {
          "indexed": false,
          "internalType": "uint256",
          "name": "fee",
          "type": "uint256"
        }
      ],
      "name": "CollectFee",
      "type": "event"
    },
    {
      "anonymous": false,
      "inputs": [
        {
          "indexed": true,
          "internalType": "uint256",
          "name": "poolID",
          "type": "uint256"
        },
        {
          "indexed": true,
          "internalType": "address",
          "name": "from",
          "type": "address"
        },
        {
          "indexed": true,
          "internalType": "address",
          "name": "recipient",
          "type": "address"
        },
        {
          "indexed": false,
          "internalType": "uint256",
          "name": "amountLP",
          "type": "uint256"
        }
      ],
      "name": "Deposit",
      "type": "event"
    },
    {
      "anonymous": false,
      "inputs": [
        {
          "indexed": true,
          "internalType": "uint256",
          "name": "poolID",
          "type": "uint256"
        },
        {
          "indexed": false,
          "internalType": "uint256",
          "name": "amountA",
          "type": "uint256"
        },
        {
          "indexed": false,
          "internalType": "uint256",
          "name": "amountB",
          "type": "uint256"
        }
      ],
      "name": "DepositPairTokens",
      "type": "event"
    },
    {
      "anonymous": false,
      "inputs": [
        {
          "indexed": true,
          "internalType": "uint256",
          "name": "poolID",
          "type": "uint256"
        },
        {
          "indexed": false,
          "internalType": "uint256",
          "name": "amountToken",
          "type": "uint256"
        },
        {
          "indexed": false,
          "internalType": "uint256",
          "name": "amountETH",
          "type": "uint256"
        }
      ],
      "name": "DepositPairTokensETH",
      "type": "event"
    },
    {
      "anonymous": false,
      "inputs": [
        {
          "indexed": true,
          "internalType": "uint256",
          "name": "poolID",
          "type": "uint256"
        },
        {
          "indexed": true,
          "internalType": "contract IERC20",
          "name": "token0",
          "type": "address"
        },
        {
          "indexed": true,
          "internalType": "contract IERC20",
          "name": "token1",
          "type": "address"
        },
        {
          "indexed": false,
          "internalType": "uint256",
          "name": "sent0",
          "type": "uint256"
        },
        {
          "indexed": false,
          "internalType": "uint256",
          "name": "sent1",
          "type": "uint256"
        }
      ],
      "name": "DepositTokensWithSwap",
      "type": "event"
    },
    {
      "anonymous": false,
      "inputs": [
        {
          "indexed": false,
          "internalType": "uint8",
          "name": "version",
          "type": "uint8"
        }
      ],
      "name": "Initialized",
      "type": "event"
    },
    {
      "anonymous": false,
      "inputs": [
        {
          "indexed": true,
          "internalType": "uint256",
          "name": "previousPoolID",
          "type": "uint256"
        },
        {
          "indexed": true,
          "internalType": "uint256",
          "name": "nextPoolID",
          "type": "uint256"
        }
      ],
      "name": "MoveLiquidity",
      "type": "event"
    },
    {
      "anonymous": false,
      "inputs": [
        {
          "indexed": true,
          "internalType": "address",
          "name": "from",
          "type": "address"
        },
        {
          "indexed": true,
          "internalType": "address",
          "name": "to",
          "type": "address"
        },
        {
          "indexed": false,
          "internalType": "uint256",
          "name": "value",
          "type": "uint256"
        }
      ],
      "name": "Transfer",
      "type": "event"
    },
    {
      "anonymous": false,
      "inputs": [
        {
          "indexed": true,
          "internalType": "uint256",
          "name": "poolID",
          "type": "uint256"
        },
        {
          "indexed": true,
          "internalType": "address",
          "name": "from",
          "type": "address"
        },
        {
          "indexed": true,
          "internalType": "address",
          "name": "recipient",
          "type": "address"
        },
        {
          "indexed": false,
          "internalType": "uint256",
          "name": "amountLP",
          "type": "uint256"
        }
      ],
      "name": "Withdraw",
      "type": "event"
    },
    {
      "anonymous": false,
      "inputs": [
        {
          "indexed": true,
          "internalType": "uint256",
          "name": "poolID",
          "type": "uint256"
        },
        {
          "indexed": false,
          "internalType": "uint256",
          "name": "amountA",
          "type": "uint256"
        },
        {
          "indexed": false,
          "internalType": "uint256",
          "name": "amountB",
          "type": "uint256"
        }
      ],
      "name": "WithdrawPairTokens",
      "type": "event"
    },
    {
      "anonymous": false,
      "inputs": [
        {
          "indexed": true,
          "internalType": "uint256",
          "name": "poolID",
          "type": "uint256"
        },
        {
          "indexed": false,
          "internalType": "uint256",
          "name": "amountToken",
          "type": "uint256"
        },
        {
          "indexed": false,
          "internalType": "uint256",
          "name": "amountETH",
          "type": "uint256"
        }
      ],
      "name": "WithdrawPairTokensETH",
      "type": "event"
    },
    {
      "anonymous": false,
      "inputs": [
        {
          "indexed": true,
          "internalType": "uint256",
          "name": "poolID",
          "type": "uint256"
        },
        {
          "indexed": true,
          "internalType": "contract IERC20",
          "name": "token0",
          "type": "address"
        },
        {
          "indexed": true,
          "internalType": "contract IERC20",
          "name": "token1",
          "type": "address"
        },
        {
          "indexed": false,
          "internalType": "uint256",
          "name": "amount0",
          "type": "uint256"
        },
        {
          "indexed": false,
          "internalType": "uint256",
          "name": "amount1",
          "type": "uint256"
        },
        {
          "indexed": false,
          "internalType": "uint256",
          "name": "amountA",
          "type": "uint256"
        },
        {
          "indexed": false,
          "internalType": "uint256",
          "name": "amountB",
          "type": "uint256"
        }
      ],
      "name": "WithdrawTokensWithSwap",
      "type": "event"
    },
    {
      "inputs": [],
      "name": "accessManager",
      "outputs": [
        {
          "internalType": "contract IUnoAccessManager",
          "name": "",
          "type": "address"
        }
      ],
      "stateMutability": "view",
      "type": "function"
    },
    {
      "inputs": [
        {
          "internalType": "address",
          "name": "owner",
          "type": "address"
        },
        {
          "internalType": "address",
          "name": "spender",
          "type": "address"
        }
      ],
      "name": "allowance",
      "outputs": [
        {
          "internalType": "uint256",
          "name": "",
          "type": "uint256"
        }
      ],
      "stateMutability": "view",
      "type": "function"
    },
    {
      "inputs": [
        {
          "internalType": "address",
          "name": "spender",
          "type": "address"
        },
        {
          "internalType": "uint256",
          "name": "amount",
          "type": "uint256"
        }
      ],
      "name": "approve",
      "outputs": [
        {
          "internalType": "bool",
          "name": "",
          "type": "bool"
        }
      ],
      "stateMutability": "nonpayable",
      "type": "function"
    },
    {
      "inputs": [
        {
          "internalType": "address",
          "name": "account",
          "type": "address"
        }
      ],
      "name": "balanceOf",
      "outputs": [
        {
          "internalType": "uint256",
          "name": "",
          "type": "uint256"
        }
      ],
      "stateMutability": "view",
      "type": "function"
    },
    {
      "inputs": [],
      "name": "decimals",
      "outputs": [
        {
          "internalType": "uint8",
          "name": "",
          "type": "uint8"
        }
      ],
      "stateMutability": "view",
      "type": "function"
    },
    {
      "inputs": [
        {
          "internalType": "address",
          "name": "spender",
          "type": "address"
        },
        {
          "internalType": "uint256",
          "name": "subtractedValue",
          "type": "uint256"
        }
      ],
      "name": "decreaseAllowance",
      "outputs": [
        {
          "internalType": "bool",
          "name": "",
          "type": "bool"
        }
      ],
      "stateMutability": "nonpayable",
      "type": "function"
    },
    {
      "inputs": [],
      "name": "factory",
      "outputs": [
        {
          "internalType": "contract IUnoAutoStrategyFactory",
          "name": "",
          "type": "address"
        }
      ],
      "stateMutability": "view",
      "type": "function"
    },
    {
      "inputs": [
        {
          "internalType": "address",
          "name": "spender",
          "type": "address"
        },
        {
          "internalType": "uint256",
          "name": "addedValue",
          "type": "uint256"
        }
      ],
      "name": "increaseAllowance",
      "outputs": [
        {
          "internalType": "bool",
          "name": "",
          "type": "bool"
        }
      ],
      "stateMutability": "nonpayable",
      "type": "function"
    },
    {
      "inputs": [],
      "name": "name",
      "outputs": [
        {
          "internalType": "string",
          "name": "",
          "type": "string"
        }
      ],
      "stateMutability": "view",
      "type": "function"
    },
    {
      "inputs": [],
      "name": "poolID",
      "outputs": [
        {
          "internalType": "uint256",
          "name": "",
          "type": "uint256"
        }
      ],
      "stateMutability": "view",
      "type": "function"
    },
    {
      "inputs": [
        {
          "internalType": "uint256",
          "name": "",
          "type": "uint256"
        }
      ],
      "name": "pools",
      "outputs": [
        {
          "internalType": "address",
          "name": "pool",
          "type": "address"
        },
        {
          "internalType": "contract IUnoAssetRouter",
          "name": "assetRouter",
          "type": "address"
        },
        {
          "internalType": "contract IERC20",
          "name": "tokenA",
          "type": "address"
        },
        {
          "internalType": "contract IERC20",
          "name": "tokenB",
          "type": "address"
        }
      ],
      "stateMutability": "view",
      "type": "function"
    },
    {
      "inputs": [],
      "name": "symbol",
      "outputs": [
        {
          "internalType": "string",
          "name": "",
          "type": "string"
        }
      ],
      "stateMutability": "view",
      "type": "function"
    },
    {
      "inputs": [
        {
          "internalType": "address",
          "name": "to",
          "type": "address"
        },
        {
          "internalType": "uint256",
          "name": "amount",
          "type": "uint256"
        }
      ],
      "name": "transfer",
      "outputs": [
        {
          "internalType": "bool",
          "name": "",
          "type": "bool"
        }
      ],
      "stateMutability": "nonpayable",
      "type": "function"
    },
    {
      "inputs": [
        {
          "internalType": "address",
          "name": "from",
          "type": "address"
        },
        {
          "internalType": "address",
          "name": "to",
          "type": "address"
        },
        {
          "internalType": "uint256",
          "name": "amount",
          "type": "uint256"
        }
      ],
      "name": "transferFrom",
      "outputs": [
        {
          "internalType": "bool",
          "name": "",
          "type": "bool"
        }
      ],
      "stateMutability": "nonpayable",
      "type": "function"
    },
    {
      "stateMutability": "payable",
      "type": "receive"
    },
    {
      "inputs": [
        {
          "components": [
            {
              "internalType": "address",
              "name": "pool",
              "type": "address"
            },
            {
              "internalType": "contract IUnoAssetRouter",
              "name": "assetRouter",
              "type": "address"
            }
          ],
          "internalType": "struct UnoAutoStrategy._PoolInfo[]",
          "name": "poolInfos",
          "type": "tuple[]"
        },
        {
          "internalType": "contract IUnoAccessManager",
          "name": "_accessManager",
          "type": "address"
        }
      ],
      "name": "initialize",
      "outputs": [],
      "stateMutability": "nonpayable",
      "type": "function"
    },
    {
      "inputs": [
        {
          "internalType": "uint256",
          "name": "pid",
          "type": "uint256"
        },
        {
          "internalType": "uint256",
          "name": "amountA",
          "type": "uint256"
        },
        {
          "internalType": "uint256",
          "name": "amountB",
          "type": "uint256"
        },
        {
          "internalType": "uint256",
          "name": "amountAMin",
          "type": "uint256"
        },
        {
          "internalType": "uint256",
          "name": "amountBMin",
          "type": "uint256"
        },
        {
          "internalType": "address",
          "name": "recipient",
          "type": "address"
        },
        {
          "internalType": "address",
          "name": "referrer",
          "type": "address"
        }
      ],
      "name": "deposit",
      "outputs": [
        {
          "internalType": "uint256",
          "name": "sentA",
          "type": "uint256"
        },
        {
          "internalType": "uint256",
          "name": "sentB",
          "type": "uint256"
        },
        {
          "internalType": "uint256",
          "name": "liquidity",
          "type": "uint256"
        }
      ],
      "stateMutability": "nonpayable",
      "type": "function"
    },
    {
      "inputs": [
        {
          "internalType": "uint256",
          "name": "pid",
          "type": "uint256"
        },
        {
          "internalType": "uint256",
          "name": "amountToken",
          "type": "uint256"
        },
        {
          "internalType": "uint256",
          "name": "amountTokenMin",
          "type": "uint256"
        },
        {
          "internalType": "uint256",
          "name": "amountETHMin",
          "type": "uint256"
        },
        {
          "internalType": "address",
          "name": "recipient",
          "type": "address"
        },
        {
          "internalType": "address",
          "name": "referrer",
          "type": "address"
        }
      ],
      "name": "depositETH",
      "outputs": [
        {
          "internalType": "uint256",
          "name": "sentToken",
          "type": "uint256"
        },
        {
          "internalType": "uint256",
          "name": "sentETH",
          "type": "uint256"
        },
        {
          "internalType": "uint256",
          "name": "liquidity",
          "type": "uint256"
        }
      ],
      "stateMutability": "payable",
      "type": "function"
    },
    {
      "inputs": [
        {
          "internalType": "uint256",
          "name": "pid",
          "type": "uint256"
        },
        {
          "internalType": "bytes[2]",
          "name": "swapData",
          "type": "bytes[2]"
        },
        {
          "internalType": "address",
          "name": "recipient",
          "type": "address"
        },
        {
          "internalType": "address",
          "name": "referrer",
          "type": "address"
        }
      ],
      "name": "depositWithSwap",
      "outputs": [
        {
          "internalType": "uint256",
          "name": "sent0",
          "type": "uint256"
        },
        {
          "internalType": "uint256",
          "name": "sent1",
          "type": "uint256"
        },
        {
          "internalType": "uint256",
          "name": "dustA",
          "type": "uint256"
        },
        {
          "internalType": "uint256",
          "name": "dustB",
          "type": "uint256"
        },
        {
          "internalType": "uint256",
          "name": "liquidity",
          "type": "uint256"
        }
      ],
      "stateMutability": "payable",
      "type": "function"
    },
    {
      "inputs": [
        {
          "internalType": "uint256",
          "name": "pid",
          "type": "uint256"
        },
        {
          "internalType": "uint256",
          "name": "liquidity",
          "type": "uint256"
        },
        {
          "internalType": "uint256",
          "name": "amountAMin",
          "type": "uint256"
        },
        {
          "internalType": "uint256",
          "name": "amountBMin",
          "type": "uint256"
        },
        {
          "internalType": "address",
          "name": "recipient",
          "type": "address"
        }
      ],
      "name": "withdraw",
      "outputs": [
        {
          "internalType": "uint256",
          "name": "amountA",
          "type": "uint256"
        },
        {
          "internalType": "uint256",
          "name": "amountB",
          "type": "uint256"
        }
      ],
      "stateMutability": "nonpayable",
      "type": "function"
    },
    {
      "inputs": [
        {
          "internalType": "uint256",
          "name": "pid",
          "type": "uint256"
        },
        {
          "internalType": "uint256",
          "name": "liquidity",
          "type": "uint256"
        },
        {
          "internalType": "uint256",
          "name": "amountTokenMin",
          "type": "uint256"
        },
        {
          "internalType": "uint256",
          "name": "amountETHMin",
          "type": "uint256"
        },
        {
          "internalType": "address",
          "name": "recipient",
          "type": "address"
        }
      ],
      "name": "withdrawETH",
      "outputs": [
        {
          "internalType": "uint256",
          "name": "amountToken",
          "type": "uint256"
        },
        {
          "internalType": "uint256",
          "name": "amountETH",
          "type": "uint256"
        }
      ],
      "stateMutability": "nonpayable",
      "type": "function"
    },
    {
      "inputs": [
        {
          "internalType": "uint256",
          "name": "pid",
          "type": "uint256"
        },
        {
          "internalType": "uint256",
          "name": "liquidity",
          "type": "uint256"
        },
        {
          "internalType": "bytes[2]",
          "name": "swapData",
          "type": "bytes[2]"
        },
        {
          "internalType": "address",
          "name": "recipient",
          "type": "address"
        }
      ],
      "name": "withdrawWithSwap",
      "outputs": [
        {
          "internalType": "uint256",
          "name": "amount0",
          "type": "uint256"
        },
        {
          "internalType": "uint256",
          "name": "amount1",
          "type": "uint256"
        },
        {
          "internalType": "uint256",
          "name": "amountA",
          "type": "uint256"
        },
        {
          "internalType": "uint256",
          "name": "amountB",
          "type": "uint256"
        }
      ],
      "stateMutability": "nonpayable",
      "type": "function"
    },
    {
      "inputs": [
        {
          "internalType": "uint256",
          "name": "_poolID",
          "type": "uint256"
        },
        {
          "internalType": "bytes",
          "name": "swapData",
          "type": "bytes"
        },
        {
          "internalType": "uint256",
          "name": "amountAMin",
          "type": "uint256"
        },
        {
          "internalType": "uint256",
          "name": "amountBMin",
          "type": "uint256"
        }
      ],
      "name": "moveLiquidity",
      "outputs": [],
      "stateMutability": "nonpayable",
      "type": "function"
    },
    {
      "inputs": [
        {
          "internalType": "address",
          "name": "_address",
          "type": "address"
        }
      ],
      "name": "userStake",
      "outputs": [
        {
          "internalType": "uint256",
          "name": "stakeA",
          "type": "uint256"
        },
        {
          "internalType": "uint256",
          "name": "stakeB",
          "type": "uint256"
        },
        {
          "internalType": "uint256",
          "name": "leftoverA",
          "type": "uint256"
        },
        {
          "internalType": "uint256",
          "name": "leftoverB",
          "type": "uint256"
        }
      ],
      "stateMutability": "view",
      "type": "function"
    },
    {
      "inputs": [],
      "name": "totalDeposits",
      "outputs": [
        {
          "internalType": "uint256",
          "name": "totalDepositsA",
          "type": "uint256"
        },
        {
          "internalType": "uint256",
          "name": "totalDepositsB",
          "type": "uint256"
        }
      ],
      "stateMutability": "view",
      "type": "function"
    },
    {
      "inputs": [],
      "name": "poolsLength",
      "outputs": [
        {
          "internalType": "uint256",
          "name": "",
          "type": "uint256"
        }
      ],
      "stateMutability": "view",
      "type": "function"
    },
    {
      "inputs": [],
      "name": "tokens",
      "outputs": [
        {
          "internalType": "address",
          "name": "",
          "type": "address"
        },
        {
          "internalType": "address",
          "name": "",
          "type": "address"
        }
      ],
      "stateMutability": "view",
      "type": "function"
    },
    {
      "inputs": [
        {
          "internalType": "address",
          "name": "referrer",
          "type": "address"
        }
      ],
      "name": "collectFee",
      "outputs": [
        {
          "internalType": "uint256",
          "name": "fee",
          "type": "uint256"
        }
      ],
      "stateMutability": "nonpayable",
      "type": "function"
    },
    {
      "inputs": [],
      "name": "totalSupply",
      "outputs": [
        {
          "internalType": "uint256",
          "name": "",
          "type": "uint256"
        }
      ],
      "stateMutability": "view",
      "type": "function"
    }
  ],
  "bytecode": "0x608060405234801561001057600080fd5b50615f2680620000216000396000f3fe6080604052600436106101bb5760003560e01c80637d882097116100ec578063ab500c291161008a578063d473a65411610064578063d473a654146105c3578063dd62ed3e146105e3578063e237f1eb14610629578063fdcb60681461064957600080fd5b8063ab500c2914610525578063ac4afa3814610538578063c45a01551461058b57600080fd5b806395d89b41116100c657806395d89b411461049b5780639d63848a146104b0578063a457c2d7146104e5578063a9059cbb1461050557600080fd5b80637d8820971461043557806388b9c7111461044a5780638d9344851461048557600080fd5b8063313ce5671161015957806368e5585d1161013357806368e5585d1461037f57806369b59e75146103bf57806370a08231146103df57806374552fb61461041557600080fd5b8063313ce56714610323578063395093511461033f57806360dfe6de1461035f57600080fd5b806318160ddd1161019557806318160ddd146102965780631c723b82146102b957806323b872dd146102ee5780632716ae661461030e57600080fd5b806306fdde0314610200578063095ea7b31461022b5780631666768a1461025b57600080fd5b366101fb573233036101f9576040517fb4bc308200000000000000000000000000000000000000000000000000000000815260040160405180910390fd5b005b600080fd5b34801561020c57600080fd5b50610215610669565b60405161022291906152b4565b60405180910390f35b34801561023757600080fd5b5061024b6102463660046152ff565b6106fb565b6040519015158152602001610222565b34801561026757600080fd5b5061027b61027636600461532b565b610715565b60408051938452602084019290925290820152606001610222565b3480156102a257600080fd5b506102ab610b7f565b604051908152602001610222565b3480156102c557600080fd5b506102d96102d4366004615394565b610ba9565b60408051928352602083019190915201610222565b3480156102fa57600080fd5b5061024b6103093660046153e1565b610f38565b34801561031a57600080fd5b506098546102ab565b34801561032f57600080fd5b5060405160128152602001610222565b34801561034b57600080fd5b5061024b61035a3660046152ff565b610f5c565b34801561036b57600080fd5b506101f961037a366004615422565b610f9b565b34801561038b57600080fd5b5061039f61039a3660046154ad565b611cfa565b604080519485526020850193909352918301526060820152608001610222565b3480156103cb57600080fd5b506102ab6103da3660046154ad565b6120ae565b3480156103eb57600080fd5b506102ab6103fa3660046154ad565b6001600160a01b031660009081526033602052604090205490565b34801561042157600080fd5b506101f96104303660046154d1565b61225f565b34801561044157600080fd5b506102d96127ec565b61045d610458366004615568565b6129d2565b604080519586526020860194909452928401919091526060830152608082015260a001610222565b34801561049157600080fd5b506102ab60975481565b3480156104a757600080fd5b50610215612e93565b3480156104bc57600080fd5b506104c5612ea2565b604080516001600160a01b03938416815292909116602083015201610222565b3480156104f157600080fd5b5061024b6105003660046152ff565b612f1c565b34801561051157600080fd5b5061024b6105203660046152ff565b612fc6565b61027b6105333660046155d4565b612fd4565b34801561054457600080fd5b50610558610553366004615632565b6133f6565b604080516001600160a01b0395861681529385166020850152918416918301919091529091166060820152608001610222565b34801561059757600080fd5b5060a1546105ab906001600160a01b031681565b6040516001600160a01b039091168152602001610222565b3480156105cf57600080fd5b506102d96105de366004615394565b613440565b3480156105ef57600080fd5b506102ab6105fe36600461564b565b6001600160a01b03918216600090815260346020908152604080832093909416825291909152205490565b34801561063557600080fd5b5061039f610644366004615684565b6136bb565b34801561065557600080fd5b5060a0546105ab906001600160a01b031681565b606060368054610678906156dc565b80601f01602080910402602001604051908101604052809291908181526020018280546106a4906156dc565b80156106f15780601f106106c6576101008083540402835291602001916106f1565b820191906000526020600020905b8154815290600101906020018083116106d457829003601f168201915b5050505050905090565b6000336107098185856139d2565b60019150505b92915050565b600080600060a160009054906101000a90046001600160a01b03166001600160a01b0316635c975abb6040518163ffffffff1660e01b8152600401602060405180830381865afa15801561076d573d6000803e3d6000fd5b505050506040513d601f19601f820116820180604052508101906107919190615729565b156107c8576040517fa9aad58c00000000000000000000000000000000000000000000000000000000815260040160405180910390fd5b6107d0613b2a565b6097548a1461080b576040517fd832ff5d00000000000000000000000000000000000000000000000000000000815260040160405180910390fd5b60006098609754815481106108225761082261574b565b600091825260209182902060408051608081018252600490930290910180546001600160a01b03908116845260018201548116948401949094526002810154841691830182905260030154909216606082015291506108839033308d613b83565b604080820151602083015191517f095ea7b30000000000000000000000000000000000000000000000000000000081526001600160a01b039283166004820152602481018d905291169063095ea7b3906044016020604051808303816000875af11580156108f5573d6000803e3d6000fd5b505050506040513d601f19601f820116820180604052508101906109199190615729565b506060810151610934906001600160a01b031633308c613b83565b606081015160208201516040517f095ea7b30000000000000000000000000000000000000000000000000000000081526001600160a01b039182166004820152602481018c905291169063095ea7b3906044016020604051808303816000875af11580156109a6573d6000803e3d6000fd5b505050506040513d601f19601f820116820180604052508101906109ca9190615729565b50602081015181516040517f6505e65e0000000000000000000000000000000000000000000000000000000081526001600160a01b039182166004820152602481018d9052604481018c9052606481018b9052608481018a90523060a48201526000929190911690636505e65e9060c4016060604051808303816000875af1158015610a5a573d6000803e3d6000fd5b505050506040513d601f19601f82011682018060405250810190610a7e919061577a565b91965094509050610a8f8787613c34565b9250848b1115610abc57610abc33610aa7878e6157d7565b60408501516001600160a01b03169190613ebd565b838a1115610ae757610ae733610ad2868d6157d7565b60608501516001600160a01b03169190613ebd565b60975460408051878152602081018790527fcf292c3ff7d54582b495c8f5feaf2d6a840141d3b45b762ce150ae9328c6a278910160405180910390a26097546040518281526001600160a01b0389169133917f2c0f148b435140de488c1b34647f1511c646f7077e87007bacf22ef9977a16d89060200160405180910390a45050610b726001606555565b9750975097945050505050565b6000670de0b6b3a764000060a454610b9791906157ea565b603554610ba49190615825565b905090565b60008060a160009054906101000a90046001600160a01b03166001600160a01b0316635c975abb6040518163ffffffff1660e01b8152600401602060405180830381865afa158015610bff573d6000803e3d6000fd5b505050506040513d601f19601f82011682018060405250810190610c239190615729565b15610c5a576040517fa9aad58c00000000000000000000000000000000000000000000000000000000815260040160405180910390fd5b610c62613b2a565b6097548714610c9d576040517fd832ff5d00000000000000000000000000000000000000000000000000000000815260040160405180910390fd5b6000609860975481548110610cb457610cb461574b565b6000918252602080832060408051608081018252600490940290910180546001600160a01b0390811685526001820154811693850193909352600281015483169184019190915260030154166060820152915080610d1186613f12565b915091506000610d208a6140cf565b602085015185516040517fdeb03f4d0000000000000000000000000000000000000000000000000000000081526001600160a01b03918216600482015260248101849052604481018d9052606481018c90528a82166084820152929350169063deb03f4d9060a40160408051808303816000875af1158015610da6573d6000803e3d6000fd5b505050506040513d601f19601f82011682018060405250810190610dca9190615838565b604086015191975095506001600160a01b03167ffffffffffffffffffffffffff2aff4e271710ce1de3662e24659bbb2c520ed9001610e2057610e0d8386615825565b9450610e198287615825565b9550610ea0565b730d500b1d8e8ef31e21c99d1db9a6444d3adf12706001600160a01b031684606001516001600160a01b031603610e6e57610e5b8387615825565b9550610e678286615825565b9450610ea0565b6040517fa37c2cc400000000000000000000000000000000000000000000000000000000815260040160405180910390fd5b60975460408051888152602081018890527fec8ea790e053f644b6490a17d81267d813f466d779e36cd538c56166bfb650f991015b60405180910390a26097546040518281526001600160a01b0389169133917ffeb2000dca3e617cd6f3a8bbb63014bb54a124aac6ccbf73ee7229b4cd01f1209060200160405180910390a450505050610f2e6001606555565b9550959350505050565b600033610f4685828561424c565b610f518585856142f6565b506001949350505050565b3360008181526034602090815260408083206001600160a01b03871684529091528120549091906107099082908690610f96908790615825565b6139d2565b60a160009054906101000a90046001600160a01b03166001600160a01b0316635c975abb6040518163ffffffff1660e01b8152600401602060405180830381865afa158015610fee573d6000803e3d6000fd5b505050506040513d601f19601f820116820180604052508101906110129190615729565b15611049576040517fa9aad58c00000000000000000000000000000000000000000000000000000000815260040160405180910390fd5b611051613b2a565b60a0546040517f91d148540000000000000000000000000000000000000000000000000000000081527f77e60b99a50d27fb027f6912a507d956105b4148adab27a86d235c8bcca8fa2f60048201523360248201526001600160a01b03909116906391d1485490604401602060405180830381865afa1580156110d8573d6000803e3d6000fd5b505050506040513d601f19601f820116820180604052508101906110fc9190615729565b611132576040517f8eeb529e00000000000000000000000000000000000000000000000000000000815260040160405180910390fd5b61113a610b7f565b600003611173576040517ff58c8f9100000000000000000000000000000000000000000000000000000000815260040160405180910390fd5b609d544390036111af576040517f975c763f00000000000000000000000000000000000000000000000000000000815260040160405180910390fd5b609854851015806111c1575060975485145b156111f8576040517fd832ff5d00000000000000000000000000000000000000000000000000000000815260040160405180910390fd5b600060986097548154811061120f5761120f61574b565b6000918252602080832060408051608081018252600490940290910180546001600160a01b03908116855260018201548116938501939093526002810154831691840191909152600301541660608201526098805491935090889081106112785761127861574b565b6000918252602080832060408051608081018252600494850290920180546001600160a01b039081168452600182015481168486015260028201548116848401526003909101548116606084015292870151875191517f51bdca3e0000000000000000000000000000000000000000000000000000000081523095810195909552908316602485015290945016906351bdca3e90604401606060405180830381865afa15801561132c573d6000803e3d6000fd5b505050506040513d601f19601f82011682018060405250810190611350919061577a565b5050602084015184516040517fd84ff8420000000000000000000000000000000000000000000000000000000081526001600160a01b039182166004820152602481018490526000604482018190526064820152306084820152929350169063d84ff8429060a40160408051808303816000875af11580156113d6573d6000803e3d6000fd5b505050506040513d601f19601f820116820180604052508101906113fa9190615838565b505081604001516001600160a01b031683604001516001600160a01b031614158061143f575081606001516001600160a01b031683606001516001600160a01b031614155b156118d05760408381015190516370a0823160e01b815230600482015273a32ee1c40594249eb3183c10792bcf573d4da47c916001600160a01b03169063095ea7b390839083906370a0823190602401602060405180830381865afa1580156114ac573d6000803e3d6000fd5b505050506040513d601f19601f820116820180604052508101906114d0919061585c565b6040517fffffffff0000000000000000000000000000000000000000000000000000000060e085901b1681526001600160a01b03909216600483015260248201526044016020604051808303816000875af1158015611533573d6000803e3d6000fd5b505050506040513d601f19601f820116820180604052508101906115579190615729565b5060608401516040516370a0823160e01b81523060048201526001600160a01b039091169063095ea7b390839083906370a0823190602401602060405180830381865afa1580156115ac573d6000803e3d6000fd5b505050506040513d601f19601f820116820180604052508101906115d0919061585c565b6040517fffffffff0000000000000000000000000000000000000000000000000000000060e085901b1681526001600160a01b03909216600483015260248201526044016020604051808303816000875af1158015611633573d6000803e3d6000fd5b505050506040513d601f19601f820116820180604052508101906116579190615729565b506000816001600160a01b03168989604051611674929190615875565b6000604051808303816000865af19150503d80600081146116b1576040519150601f19603f3d011682016040523d82523d6000602084013e6116b6565b606091505b50509050806116f1576040517fdbff5fe000000000000000000000000000000000000000000000000000000000815260040160405180910390fd5b83604001516001600160a01b031685604001516001600160a01b031614158015611735575083606001516001600160a01b031685604001516001600160a01b031614155b156117df5760408086015190516370a0823160e01b81523060048201526001600160a01b03909116906370a0823190602401602060405180830381865afa158015611784573d6000803e3d6000fd5b505050506040513d601f19601f820116820180604052508101906117a8919061585c565b156117df576040517f1a2185ff00000000000000000000000000000000000000000000000000000000815260040160405180910390fd5b83604001516001600160a01b031685606001516001600160a01b031614158015611823575083606001516001600160a01b031685606001516001600160a01b031614155b156118cd5760608501516040516370a0823160e01b81523060048201526001600160a01b03909116906370a0823190602401602060405180830381865afa158015611872573d6000803e3d6000fd5b505050506040513d601f19601f82011682018060405250810190611896919061585c565b156118cd576040517f540c44c300000000000000000000000000000000000000000000000000000000815260040160405180910390fd5b50505b60408083015190516370a0823160e01b81523060048201526000916001600160a01b0316906370a0823190602401602060405180830381865afa15801561191b573d6000803e3d6000fd5b505050506040513d601f19601f8201168201806040525081019061193f919061585c565b60608401516040516370a0823160e01b81523060048201529192506000916001600160a01b03909116906370a0823190602401602060405180830381865afa15801561198f573d6000803e3d6000fd5b505050506040513d601f19601f820116820180604052508101906119b3919061585c565b604085810151602087015191517f095ea7b30000000000000000000000000000000000000000000000000000000081526001600160a01b03928316600482015260248101869052929350169063095ea7b3906044016020604051808303816000875af1158015611a27573d6000803e3d6000fd5b505050506040513d601f19601f82011682018060405250810190611a4b9190615729565b50606084015160208501516040517f095ea7b30000000000000000000000000000000000000000000000000000000081526001600160a01b0391821660048201526024810184905291169063095ea7b3906044016020604051808303816000875af1158015611abe573d6000803e3d6000fd5b505050506040513d601f19601f82011682018060405250810190611ae29190615729565b50602084015184516040517f6505e65e0000000000000000000000000000000000000000000000000000000081526001600160a01b0391821660048201526024810185905260448101849052606481018a9052608481018990523060a4820152911690636505e65e9060c4016060604051808303816000875af1158015611b6d573d6000803e3d6000fd5b505050506040513d601f19601f82011682018060405250810190611b91919061577a565b60995550506040805160808101808352918601516370a0823160e01b9092523060848201529081906001600160a01b03166370a0823160a48301602060405180830381865afa158015611be8573d6000803e3d6000fd5b505050506040513d601f19601f82011682018060405250810190611c0c919061585c565b815260608601516040516370a0823160e01b81523060048201526020909201916001600160a01b03909116906370a0823190602401602060405180830381865afa158015611c5e573d6000803e3d6000fd5b505050506040513d601f19601f82011682018060405250810190611c82919061585c565b8152602001611c8f610b7f565b8152436020918201528151609a55810151609b55604080820151609c55606090910151609d5560975490518b91907faf62d6e59ad2e54c778a490827e6cb28b1d30794092c7367fdbb261b11de033690600090a35050506097879055505060016065555b5050505050565b6000808080806001600160a01b038616611d1357600080fd5b60a0546040517f91d148540000000000000000000000000000000000000000000000000000000081527f2dca0f5ce7e75a4b43fe2b0d6f5d0b7a2bf92ecf89f8f0aa17b8308b6703882160048201526001600160a01b038881166024830152909116906391d1485490604401602060405180830381865afa158015611d9c573d6000803e3d6000fd5b505050506040513d601f19601f82011682018060405250810190611dc09190615729565b15611e3d57670de0b6b3a7640000611dd860006144f5565b611de3906002615885565b6001600160a01b038816600090815260a26020526040902060020154611e099190615825565b611e1391906157ea565b6001600160a01b038716600090815260336020526040902054611e369190615825565b9050611ea5565b670de0b6b3a7640000611e4f876144f5565b6001600160a01b038816600090815260a26020526040902060020154611e759190615825565b611e7f91906157ea565b6001600160a01b038716600090815260336020526040902054611ea29190615825565b90505b80156120a6576000609860975481548110611ec257611ec261574b565b6000918252602080832060408051608081018252600494850290920180546001600160a01b0390811680855260018301548216958501869052600283015482168585015260039092015416606084015290517f51bdca3e00000000000000000000000000000000000000000000000000000000815230948101949094526024840152935082916351bdca3e90604401606060405180830381865afa158015611f6e573d6000803e3d6000fd5b505050506040513d601f19601f82011682018060405250810190611f92919061577a565b92509250506000611fa1610b7f565b905080611fae8487615885565b611fb891906157ea565b985080611fc58387615885565b611fcf91906157ea565b336000908152609f60209081526040808320609d54845290915290205490985060ff161580156120005750609c5415155b156120a157609c54609a546001600160a01b038c166000908152609e60209081526040808320609d54845290915290205461203b90886157d7565b6120459190615885565b61204f91906157ea565b609c54609b546001600160a01b038d166000908152609e60209081526040808320609d548452909152902054929950909161208a90886157d7565b6120949190615885565b61209e91906157ea565b95505b505050505b509193509193565b60006001600160a01b0382166120c657506000919050565b60a0546040517f91d148540000000000000000000000000000000000000000000000000000000081527f2dca0f5ce7e75a4b43fe2b0d6f5d0b7a2bf92ecf89f8f0aa17b8308b6703882160048201526001600160a01b038085166024830152849216906391d1485490604401602060405180830381865afa15801561214f573d6000803e3d6000fd5b505050506040513d601f19601f820116820180604052508101906121739190615729565b1561217d57600092505b61218683614568565b6001600160a01b038316600090815260a260205260409020600201546121b590670de0b6b3a7640000906157ea565b91508115612259576121c78183614711565b6001600160a01b038316600090815260a2602052604081206002015460a48054919290916121f69084906157d7565b90915550506001600160a01b03808416600090815260a260205260408082206002019190915551908216907fdfeef5879c25440d1418a79a16489f0e739d22ac040c8c76f7b998fc704edeb8906122509085815260200190565b60405180910390a25b50919050565b600054610100900460ff161580801561227f5750600054600160ff909116105b806122995750303b158015612299575060005460ff166001145b6123105760405162461bcd60e51b815260206004820152602e60248201527f496e697469616c697a61626c653a20636f6e747261637420697320616c72656160448201527f647920696e697469616c697a656400000000000000000000000000000000000060648201526084015b60405180910390fd5b600080547fffffffffffffffffffffffffffffffffffffffffffffffffffffffffffffff00166001179055801561236e57600080547fffffffffffffffffffffffffffffffffffffffffffffffffffffffffffff00ff166101001790555b600283108061237d5750603283115b156123b4576040517f13da281c00000000000000000000000000000000000000000000000000000000815260040160405180910390fd5b6124286040518060400160405280601081526020017f554e4f2d4175746f5374726174656779000000000000000000000000000000008152506040518060400160405280600681526020017f554e4f2d4c5000000000000000000000000000000000000000000000000000008152506147df565b612430614866565b60005b8381101561271257600085858381811061244f5761244f61574b565b905060400201602001602081019061246791906154ad565b6001600160a01b031663450efe218787858181106124875761248761574b565b61249d92602060409092020190810191506154ad565b6040517fffffffff0000000000000000000000000000000000000000000000000000000060e084901b1681526001600160a01b039091166004820152602401600060405180830381865afa1580156124f9573d6000803e3d6000fd5b505050506040513d6000823e601f3d908101601f191682016040526125219190810190615925565b9050600060405180608001604052808888868181106125425761254261574b565b61255892602060409092020190810191506154ad565b6001600160a01b031681526020018888868181106125785761257861574b565b905060400201602001602081019061259091906154ad565b6001600160a01b03168152602001836000815181106125b1576125b161574b565b60200260200101516001600160a01b03168152602001836001815181106125da576125da61574b565b6020908102919091018101516001600160a01b0390811690925260988054600181018255600091909152835160049091027f2237a976fa961f5921fd19f2b03c925c725d77b20ce8f790c19709c03de4d814810180549285167fffffffffffffffffffffffff0000000000000000000000000000000000000000938416179055918401517f2237a976fa961f5921fd19f2b03c925c725d77b20ce8f790c19709c03de4d8158301805491851691831691909117905560408401517f2237a976fa961f5921fd19f2b03c925c725d77b20ce8f790c19709c03de4d816830180549185169183169190911790556060909301517f2237a976fa961f5921fd19f2b03c925c725d77b20ce8f790c19709c03de4d81790910180549190921692169190911790555081905061270a816159d7565b915050612433565b5060a080546001600160a01b0384167fffffffffffffffffffffffff00000000000000000000000000000000000000009182161790915543609d5560a180549091163317905560a580547fffffffffffffffffffffffffffffffffffffffffffffffffffffffffffffff0016600117905580156127e657600080547fffffffffffffffffffffffffffffffffffffffffffffffffffffffffffff00ff169055604051600181527f7f26b83ff96e1f2b6a682f133852f6798a09c465da95921460cefb38474024989060200160405180910390a15b50505050565b60008060006098609754815481106128065761280661574b565b600091825260209182902060408051608081018252600493840290920180546001600160a01b0390811680855260018301548216968501879052600283015482168585015260039092015416606084015290517f51bdca3e0000000000000000000000000000000000000000000000000000000081523093810193909352602483015292506351bdca3e90604401606060405180830381865afa1580156128b1573d6000803e3d6000fd5b505050506040513d601f19601f820116820180604052508101906128d5919061577a565b60408481015190516370a0823160e01b81523060048201529296509094506001600160a01b031691506370a0823190602401602060405180830381865afa158015612924573d6000803e3d6000fd5b505050506040513d601f19601f82011682018060405250810190612948919061585c565b6129529084615825565b60608201516040516370a0823160e01b81523060048201529194506001600160a01b0316906370a0823190602401602060405180830381865afa15801561299d573d6000803e3d6000fd5b505050506040513d601f19601f820116820180604052508101906129c1919061585c565b6129cb9083615825565b9150509091565b600080600080600060a160009054906101000a90046001600160a01b03166001600160a01b0316635c975abb6040518163ffffffff1660e01b8152600401602060405180830381865afa158015612a2d573d6000803e3d6000fd5b505050506040513d601f19601f82011682018060405250810190612a519190615729565b15612a88576040517fa9aad58c00000000000000000000000000000000000000000000000000000000815260040160405180910390fd5b612a90613b2a565b6097548914612acb576040517fd832ff5d00000000000000000000000000000000000000000000000000000000815260040160405180910390fd5b6000609860975481548110612ae257612ae261574b565b600091825260209182902060408051608081018252600490930290910180546001600160a01b039081168452600182015481169484018590526002820154811692840192909252600301541660608201529150612b3f908a6148ed565b602081015181516040517f99cd69de0000000000000000000000000000000000000000000000000000000081526000926001600160a01b0316916399cd69de913491612b91918f903090600401615ac5565b60a06040518083038185885af1158015612baf573d6000803e3d6000fd5b50505050506040513d601f19601f82011682018060405250810190612bd49190615afb565b939a50919850965094509050612bea8989613c34565b6040830151909350612c06906001600160a01b03163387613ebd565b6060820151612c1f906001600160a01b03163386613ebd565b600080612c3d8c825b602002810190612c389190615b3b565b614bc6565b9092509050600080612c508e6001612c28565b915091508a831115612d1857612c6584614bfc565b15612cf957600033612c778d866157d7565b604051600081818185875af1925050503d8060008114612cb3576040519150601f19603f3d011682016040523d82523d6000602084013e612cb8565b606091505b5050905080612cf3576040517f125bf52700000000000000000000000000000000000000000000000000000000815260040160405180910390fd5b50612d18565b612d1833612d078d866157d7565b6001600160a01b0387169190613ebd565b89811115612ddc57612d2982614bfc565b15612dbd57600033612d3b8c846157d7565b604051600081818185875af1925050503d8060008114612d77576040519150601f19603f3d011682016040523d82523d6000602084013e612d7c565b606091505b5050905080612db7576040517f125bf52700000000000000000000000000000000000000000000000000000000815260040160405180910390fd5b50612ddc565b612ddc33612dcb8c846157d7565b6001600160a01b0385169190613ebd565b816001600160a01b0316846001600160a01b03166097547fa8aff30385906be11a40cbf544f385cb400068a2527d07b07a21fb2363c035278e8e604051612e2d929190918252602082015260400190565b60405180910390a46097546040518681526001600160a01b038f169133917f2c0f148b435140de488c1b34647f1511c646f7077e87007bacf22ef9977a16d89060200160405180910390a4505050505050612e886001606555565b945094509450945094565b606060378054610678906156dc565b6000806000609860975481548110612ebc57612ebc61574b565b600091825260209182902060408051608081018252600490930290910180546001600160a01b0390811684526001820154811694840194909452600281015484169183018290526003015490921660609091018190529094909350915050565b3360008181526034602090815260408083206001600160a01b038716845290915281205490919083811015612fb95760405162461bcd60e51b815260206004820152602560248201527f45524332303a2064656372656173656420616c6c6f77616e63652062656c6f7760448201527f207a65726f0000000000000000000000000000000000000000000000000000006064820152608401612307565b610f5182868684036139d2565b6000336107098185856142f6565b600080600060a160009054906101000a90046001600160a01b03166001600160a01b0316635c975abb6040518163ffffffff1660e01b8152600401602060405180830381865afa15801561302c573d6000803e3d6000fd5b505050506040513d601f19601f820116820180604052508101906130509190615729565b15613087576040517fa9aad58c00000000000000000000000000000000000000000000000000000000815260040160405180910390fd5b61308f613b2a565b60975489146130ca576040517fd832ff5d00000000000000000000000000000000000000000000000000000000815260040160405180910390fd5b60006098609754815481106130e1576130e161574b565b6000918252602080832060408051608081018252600490940290910180546001600160a01b0390811685526001820154811693850193909352600281015483169184018290526003015490911660608301529092507ffffffffffffffffffffffffff2aff4e271710ce1de3662e24659bbb2c520ed90016131675750606081015161319f565b730d500b1d8e8ef31e21c99d1db9a6444d3adf12706001600160a01b031682606001516001600160a01b031603610e6e575060408101515b6131b46001600160a01b03821633308d613b83565b60208201516040517f095ea7b30000000000000000000000000000000000000000000000000000000081526001600160a01b039182166004820152602481018c90529082169063095ea7b3906044016020604051808303816000875af1158015613222573d6000803e3d6000fd5b505050506040513d601f19601f820116820180604052508101906132469190615729565b50602082015182516040517ffefa40940000000000000000000000000000000000000000000000000000000081526001600160a01b039182166004820152602481018d9052604481018c9052606481018b9052306084820152600092919091169063fefa409490349060a40160606040518083038185885af11580156132d0573d6000803e3d6000fd5b50505050506040513d601f19601f820116820180604052508101906132f5919061577a565b919750955090506133068888613c34565b9350858b111561331e5761331e33612dcb888e6157d7565b8434111561335e57336108fc61333487346157d7565b6040518115909202916000818181858888f1935050505015801561335c573d6000803e3d6000fd5b505b60975460408051888152602081018890527f33ec26ffa0eadd23ca7311e5f8f35ce115ffaf52cfea3180a7fdc6a592b09039910160405180910390a26097546040518281526001600160a01b038a169133917f2c0f148b435140de488c1b34647f1511c646f7077e87007bacf22ef9977a16d89060200160405180910390a45050506133ea6001606555565b96509650969350505050565b6098818154811061340657600080fd5b600091825260209091206004909102018054600182015460028301546003909301546001600160a01b039283169450908216928216911684565b60008060a160009054906101000a90046001600160a01b03166001600160a01b0316635c975abb6040518163ffffffff1660e01b8152600401602060405180830381865afa158015613496573d6000803e3d6000fd5b505050506040513d601f19601f820116820180604052508101906134ba9190615729565b156134f1576040517fa9aad58c00000000000000000000000000000000000000000000000000000000815260040160405180910390fd5b6134f9613b2a565b6097548714613534576040517fd832ff5d00000000000000000000000000000000000000000000000000000000815260040160405180910390fd5b600060986097548154811061354b5761354b61574b565b6000918252602080832060408051608081018252600490940290910180546001600160a01b03908116855260018201548116938501939093526002810154831691840191909152600301541660608201529150806135a886613f12565b9150915060006135b78a6140cf565b602085015185516040517fd84ff8420000000000000000000000000000000000000000000000000000000081526001600160a01b03918216600482015260248101849052604481018d9052606481018c90528a82166084820152929350169063d84ff8429060a40160408051808303816000875af115801561363d573d6000803e3d6000fd5b505050506040513d601f19601f820116820180604052508101906136619190615838565b90965094506136708387615825565b955061367c8286615825565b94506097547ff0ebf98d9ecd4f11114987b0de79d86c03a9b6e84e74d9503a38acabe0db862a8787604051610ed5929190918252602082015260400190565b60008060008060a160009054906101000a90046001600160a01b03166001600160a01b0316635c975abb6040518163ffffffff1660e01b8152600401602060405180830381865afa158015613714573d6000803e3d6000fd5b505050506040513d601f19601f820116820180604052508101906137389190615729565b1561376f576040517fa9aad58c00000000000000000000000000000000000000000000000000000000815260040160405180910390fd5b613777613b2a565b60975488146137b2576040517fd832ff5d00000000000000000000000000000000000000000000000000000000815260040160405180910390fd5b60006098609754815481106137c9576137c961574b565b6000918252602080832060408051608081018252600490940290910180546001600160a01b039081168552600182015481169385019390935260028101548316918401919091526003015416606082015291508061382688613f12565b9150915060006138358b6140cf565b602085015185516040517f2a895ade0000000000000000000000000000000000000000000000000000000081529293506001600160a01b0390911691632a895ade916138899185908f908f90600401615ba0565b6080604051808303816000875af11580156138a8573d6000803e3d6000fd5b505050506040513d601f19601f820116820180604052508101906138cc9190615bdd565b929a50909850965094506138e08387615825565b95506138ec8286615825565b945061390a8a60015b6020028101906139059190615b3b565b614c35565b6001600160a01b031661391e8b60006138f5565b609754604080518c8152602081018c90529081018a9052606081018990526001600160a01b0392909216917f118754f73732546a16d53aae82ef571e79f458cadf2acdeb9b990d416936a0b89060800160405180910390a46097546040518281526001600160a01b038b169133917ffeb2000dca3e617cd6f3a8bbb63014bb54a124aac6ccbf73ee7229b4cd01f1209060200160405180910390a4505050506139c76001606555565b945094509450949050565b6001600160a01b038316613a4d5760405162461bcd60e51b8152602060048201526024808201527f45524332303a20617070726f76652066726f6d20746865207a65726f2061646460448201527f72657373000000000000000000000000000000000000000000000000000000006064820152608401612307565b6001600160a01b038216613ac95760405162461bcd60e51b815260206004820152602260248201527f45524332303a20617070726f766520746f20746865207a65726f20616464726560448201527f73730000000000000000000000000000000000000000000000000000000000006064820152608401612307565b6001600160a01b0383811660008181526034602090815260408083209487168084529482529182902085905590518481527f8c5be1e5ebec7d5bd14f71427d1e84f3dd0314c0f7b2291e5b200ac8c7c3b925910160405180910390a3505050565b600260655403613b7c5760405162461bcd60e51b815260206004820152601f60248201527f5265656e7472616e637947756172643a207265656e7472616e742063616c6c006044820152606401612307565b6002606555565b6040516001600160a01b03808516602483015283166044820152606481018290526127e69085907f23b872dd00000000000000000000000000000000000000000000000000000000906084015b60408051601f198184030181529190526020810180517bffffffffffffffffffffffffffffffffffffffffffffffffffffffff167fffffffff0000000000000000000000000000000000000000000000000000000090931692909217909152614c60565b600080609860975481548110613c4c57613c4c61574b565b6000918252602080832060408051608081018252600494850290920180546001600160a01b0390811680855260018301548216958501869052600283015482168585015260039092015416606084015290517f51bdca3e000000000000000000000000000000000000000000000000000000008152309481019490945260248401529350906351bdca3e90604401606060405180830381865afa158015613cf7573d6000803e3d6000fd5b505050506040513d601f19601f82011682018060405250810190613d1b919061577a565b50509050600060995482613d2f91906157d7565b90506000613d3b610b7f565b905080600003613d6557613d516103e8836157d7565b9450613d6060016103e8614711565b613d7f565b609954613d728284615885565b613d7c91906157ea565b94505b84600003613db9576040517f827e7b7f00000000000000000000000000000000000000000000000000000000815260040160405180910390fd5b33600090815260a360205260409020546001600160a01b039081169087168114613ea65733600090815260a36020908152604080832080547fffffffffffffffffffffffff0000000000000000000000000000000000000000166001600160a01b038c16179055603390915281205490508015613ea457613e3982614568565b6001600160a01b038216600090815260a2602052604081206001018054839290613e649084906157d7565b90915550613e73905088614568565b6001600160a01b038816600090815260a2602052604081206001018054839290613e9e908490615825565b90915550505b505b613eb08887614711565b5050506099555092915050565b6040516001600160a01b038316602482015260448101829052613f069084907fa9059cbb0000000000000000000000000000000000000000000000000000000090606401613bd0565b505050565b6001606555565b336000908152609f60209081526040808320609d548452909152812054819060ff166140ca57609c5415614084576000609860975481548110613f5757613f5761574b565b600091825260208083206040805160808101825260049490940290910180546001600160a01b03908116855260018201548116858501526002820154811685840152600390910154166060840152609c54609a5433808752609e8552838720609d5488528552838720549087526033909452919094205492945091613fdc91906157d7565b613fe69190615885565b613ff091906157ea565b609c54609b54336000818152609e60209081526040808320609d54845282528083205493835260339091529020549396509192909161402e916157d7565b6140389190615885565b61404291906157ea565b91508215614063576040810151614063906001600160a01b03168585613ebd565b8115614082576060810151614082906001600160a01b03168584613ebd565b505b336000908152609f60209081526040808320609d548452909152902080547fffffffffffffffffffffffffffffffffffffffffffffffffffffffffffffff001660011790555b915091565b6000806098609754815481106140e7576140e761574b565b6000918252602080832060408051608081018252600494850290920180546001600160a01b0390811680855260018301548216958501869052600283015482168585015260039092015416606084015290517f51bdca3e000000000000000000000000000000000000000000000000000000008152309481019490945260248401529350906351bdca3e90604401606060405180830381865afa158015614192573d6000803e3d6000fd5b505050506040513d601f19601f820116820180604052508101906141b6919061577a565b5050905060006141c4610b7f565b90506141cf336120ae565b6141d99086615825565b9450806141e68387615885565b6141f091906157ea565b93508360000361422c576040517f827e7b7f00000000000000000000000000000000000000000000000000000000815260040160405180910390fd5b6142363386614d48565b61424084836157d7565b60995550919392505050565b6001600160a01b038381166000908152603460209081526040808320938616835292905220547fffffffffffffffffffffffffffffffffffffffffffffffffffffffffffffffff81146127e657818110156142e95760405162461bcd60e51b815260206004820152601d60248201527f45524332303a20696e73756666696369656e7420616c6c6f77616e63650000006044820152606401612307565b6127e684848484036139d2565b6001600160a01b0383166143725760405162461bcd60e51b815260206004820152602560248201527f45524332303a207472616e736665722066726f6d20746865207a65726f20616460448201527f64726573730000000000000000000000000000000000000000000000000000006064820152608401612307565b6001600160a01b0382166143ee5760405162461bcd60e51b815260206004820152602360248201527f45524332303a207472616e7366657220746f20746865207a65726f206164647260448201527f65737300000000000000000000000000000000000000000000000000000000006064820152608401612307565b6143f9838383614ebf565b6001600160a01b038316600090815260336020526040902054818110156144885760405162461bcd60e51b815260206004820152602660248201527f45524332303a207472616e7366657220616d6f756e742065786365656473206260448201527f616c616e636500000000000000000000000000000000000000000000000000006064820152608401612307565b6001600160a01b0380851660008181526033602052604080822086860390559286168082529083902080548601905591517fddf252ad1be2c89b69c2b068fc378daa952ba7f163c4a11628f55a4df523b3ef906144e89086815260200190565b60405180910390a36127e6565b6001600160a01b038116600090815260a26020526040812060018101549054811580159061452257508015155b801561452e5750804214155b1561455e578161453e82426157d7565b61454c906312e687bf615885565b6145569190615885565b949350505050565b5060009392505050565b60a55460ff166145d15761457a610b7f565b6000805260a26020527f8fa6f0ecb9543d3381552e96aa43533c7f086066e38816919ea0cfae371b342b5560a580547fffffffffffffffffffffffffffffffffffffffffffffffffffffffffffffff001660011790555b60006145dc826144f5565b905080156146f4576001600160a01b038216614661576145fd600282615885565b600080805260a26020527f8fa6f0ecb9543d3381552e96aa43533c7f086066e38816919ea0cfae371b342c8054929350839290919061463d908490615825565b925050819055508060a460008282546146569190615825565b909155506146f49050565b6001600160a01b038216600090815260a260205260408120600201805483929061468c908490615825565b9091555050600080805260a26020527f8fa6f0ecb9543d3381552e96aa43533c7f086066e38816919ea0cfae371b342c80548392906146cc908490615825565b909155506146dd9050816002615885565b60a460008282546146ee9190615825565b90915550505b506001600160a01b0316600090815260a260205260409020429055565b6001600160a01b0382166147675760405162461bcd60e51b815260206004820152601f60248201527f45524332303a206d696e7420746f20746865207a65726f2061646472657373006044820152606401612307565b61477360008383614ebf565b80603560008282546147859190615825565b90915550506001600160a01b0382166000818152603360209081526040808320805486019055518481527fddf252ad1be2c89b69c2b068fc378daa952ba7f163c4a11628f55a4df523b3ef910160405180910390a35b5050565b600054610100900460ff1661485c5760405162461bcd60e51b815260206004820152602b60248201527f496e697469616c697a61626c653a20636f6e7472616374206973206e6f74206960448201527f6e697469616c697a696e670000000000000000000000000000000000000000006064820152608401612307565b6147db828261505a565b600054610100900460ff166148e35760405162461bcd60e51b815260206004820152602b60248201527f496e697469616c697a61626c653a20636f6e7472616374206973206e6f74206960448201527f6e697469616c697a696e670000000000000000000000000000000000000000006064820152608401612307565b6148eb6150f0565b565b60006148f98280615b3b565b614907916004908290615c13565b8101906149149190615cad565b509150600090506149286020840184615b3b565b614936916004908290615c13565b8101906149439190615cad565b5091505080600001516001600160a01b031682600001516001600160a01b031603614a3e57815161497390614bfc565b614a395760008160800151836080015161498d9190615825565b83519091506149a7906001600160a01b0316333084613b83565b82516040517f095ea7b30000000000000000000000000000000000000000000000000000000081526001600160a01b038781166004830152602482018490529091169063095ea7b3906044016020604051808303816000875af1158015614a12573d6000803e3d6000fd5b505050506040513d601f19601f82011682018060405250810190614a369190615729565b50505b6127e6565b8151614a4990614bfc565b614b035760808201518251614a6d916001600160a01b039091169033903090613b83565b815160808301516040517f095ea7b30000000000000000000000000000000000000000000000000000000081526001600160a01b038781166004830152602482019290925291169063095ea7b3906044016020604051808303816000875af1158015614add573d6000803e3d6000fd5b505050506040513d601f19601f82011682018060405250810190614b019190615729565b505b8051614b0e90614bfc565b6127e65760808101518151614b32916001600160a01b039091169033903090613b83565b805160808201516040517f095ea7b30000000000000000000000000000000000000000000000000000000081526001600160a01b038781166004830152602482019290925291169063095ea7b3906044016020604051808303816000875af1158015614ba2573d6000803e3d6000fd5b505050506040513d601f19601f82011682018060405250810190611cf39190615729565b60008080614bd78460048188615c13565b810190614be49190615cad565b508051608090910151909450925050505b9250929050565b60006001600160a01b038216158061070f57506001600160a01b03821673eeeeeeeeeeeeeeeeeeeeeeeeeeeeeeeeeeeeeeee1492915050565b600080614c458360048187615c13565b810190614c529190615cad565b506020015195945050505050565b6000614cb5826040518060400160405280602081526020017f5361666545524332303a206c6f772d6c6576656c2063616c6c206661696c6564815250856001600160a01b031661516d9092919063ffffffff16565b9050805160001480614cd6575080806020019051810190614cd69190615729565b613f065760405162461bcd60e51b815260206004820152602a60248201527f5361666545524332303a204552433230206f7065726174696f6e20646964206e60448201527f6f742073756363656564000000000000000000000000000000000000000000006064820152608401612307565b6001600160a01b038216614dc45760405162461bcd60e51b815260206004820152602160248201527f45524332303a206275726e2066726f6d20746865207a65726f2061646472657360448201527f73000000000000000000000000000000000000000000000000000000000000006064820152608401612307565b614dd082600083614ebf565b6001600160a01b03821660009081526033602052604090205481811015614e5f5760405162461bcd60e51b815260206004820152602260248201527f45524332303a206275726e20616d6f756e7420657863656564732062616c616e60448201527f63650000000000000000000000000000000000000000000000000000000000006064820152608401612307565b6001600160a01b03831660008181526033602090815260408083208686039055603580548790039055518581529192917fddf252ad1be2c89b69c2b068fc378daa952ba7f163c4a11628f55a4df523b3ef910160405180910390a3505050565b6001600160a01b0383166000908152609e60209081526040808320609d548452909152902054811115614f17576001600160a01b0383166000908152609e60209081526040808320609d548452909152812055614f52565b6001600160a01b0383166000908152609e60209081526040808320609d54845290915281208054839290614f4c9084906157d7565b90915550505b6001600160a01b0382166000908152609e60209081526040808320609d54845290915281208054839290614f87908490615825565b90915550506001600160a01b03831615614ff1576001600160a01b03808416600090815260a3602052604090205416614fbf81614568565b6001600160a01b038116600090815260a2602052604081206001018054849290614fea9084906157d7565b9091555050505b6001600160a01b03821615613f06576001600160a01b03808316600090815260a360205260409020541661502481614568565b6001600160a01b038116600090815260a260205260408120600101805484929061504f908490615825565b909155505050505050565b600054610100900460ff166150d75760405162461bcd60e51b815260206004820152602b60248201527f496e697469616c697a61626c653a20636f6e7472616374206973206e6f74206960448201527f6e697469616c697a696e670000000000000000000000000000000000000000006064820152608401612307565b60366150e38382615dd8565b506037613f068282615dd8565b600054610100900460ff16613f0b5760405162461bcd60e51b815260206004820152602b60248201527f496e697469616c697a61626c653a20636f6e7472616374206973206e6f74206960448201527f6e697469616c697a696e670000000000000000000000000000000000000000006064820152608401612307565b6060614556848460008585600080866001600160a01b031685876040516151949190615ed4565b60006040518083038185875af1925050503d80600081146151d1576040519150601f19603f3d011682016040523d82523d6000602084013e6151d6565b606091505b50915091506151e7878383876151f2565b979650505050505050565b6060831561526157825160000361525a576001600160a01b0385163b61525a5760405162461bcd60e51b815260206004820152601d60248201527f416464726573733a2063616c6c20746f206e6f6e2d636f6e74726163740000006044820152606401612307565b5081614556565b61455683838151156152765781518083602001fd5b8060405162461bcd60e51b815260040161230791906152b4565b60005b838110156152ab578181015183820152602001615293565b50506000910152565b60208152600082518060208401526152d3816040850160208701615290565b601f01601f19169190910160400192915050565b6001600160a01b03811681146152fc57600080fd5b50565b6000806040838503121561531257600080fd5b823561531d816152e7565b946020939093013593505050565b600080600080600080600060e0888a03121561534657600080fd5b873596506020880135955060408801359450606088013593506080880135925060a0880135615374816152e7565b915060c0880135615384816152e7565b8091505092959891949750929550565b600080600080600060a086880312156153ac57600080fd5b8535945060208601359350604086013592506060860135915060808601356153d3816152e7565b809150509295509295909350565b6000806000606084860312156153f657600080fd5b8335615401816152e7565b92506020840135615411816152e7565b929592945050506040919091013590565b60008060008060006080868803121561543a57600080fd5b85359450602086013567ffffffffffffffff8082111561545957600080fd5b818801915088601f83011261546d57600080fd5b81358181111561547c57600080fd5b89602082850101111561548e57600080fd5b9699602092909201985095966040810135965060600135945092505050565b6000602082840312156154bf57600080fd5b81356154ca816152e7565b9392505050565b6000806000604084860312156154e657600080fd5b833567ffffffffffffffff808211156154fe57600080fd5b818601915086601f83011261551257600080fd5b81358181111561552157600080fd5b8760208260061b850101111561553657600080fd5b6020928301955093505084013561554c816152e7565b809150509250925092565b806040810183101561070f57600080fd5b6000806000806080858703121561557e57600080fd5b84359350602085013567ffffffffffffffff81111561559c57600080fd5b6155a887828801615557565b93505060408501356155b9816152e7565b915060608501356155c9816152e7565b939692955090935050565b60008060008060008060c087890312156155ed57600080fd5b863595506020870135945060408701359350606087013592506080870135615614816152e7565b915060a0870135615624816152e7565b809150509295509295509295565b60006020828403121561564457600080fd5b5035919050565b6000806040838503121561565e57600080fd5b8235615669816152e7565b91506020830135615679816152e7565b809150509250929050565b6000806000806080858703121561569a57600080fd5b8435935060208501359250604085013567ffffffffffffffff8111156156bf57600080fd5b6156cb87828801615557565b92505060608501356155c9816152e7565b600181811c908216806156f057607f821691505b602082108103612259577f4e487b7100000000000000000000000000000000000000000000000000000000600052602260045260246000fd5b60006020828403121561573b57600080fd5b815180151581146154ca57600080fd5b7f4e487b7100000000000000000000000000000000000000000000000000000000600052603260045260246000fd5b60008060006060848603121561578f57600080fd5b8351925060208401519150604084015190509250925092565b7f4e487b7100000000000000000000000000000000000000000000000000000000600052601160045260246000fd5b8181038181111561070f5761070f6157a8565b600082615820577f4e487b7100000000000000000000000000000000000000000000000000000000600052601260045260246000fd5b500490565b8082018082111561070f5761070f6157a8565b6000806040838503121561584b57600080fd5b505080516020909101519092909150565b60006020828403121561586e57600080fd5b5051919050565b8183823760009101908152919050565b808202811582820484141761070f5761070f6157a8565b7f4e487b7100000000000000000000000000000000000000000000000000000000600052604160045260246000fd5b60405160e0810167ffffffffffffffff811182821017156158ee576158ee61589c565b60405290565b604051601f8201601f1916810167ffffffffffffffff8111828210171561591d5761591d61589c565b604052919050565b6000602080838503121561593857600080fd5b825167ffffffffffffffff8082111561595057600080fd5b818501915085601f83011261596457600080fd5b8151818111156159765761597661589c565b8060051b91506159878483016158f4565b81815291830184019184810190888411156159a157600080fd5b938501935b838510156159cb57845192506159bb836152e7565b82825293850193908501906159a6565b98975050505050505050565b60007fffffffffffffffffffffffffffffffffffffffffffffffffffffffffffffffff8203615a0857615a086157a8565b5060010190565b600082604081018360005b6002811015615aba57838303875281357fffffffffffffffffffffffffffffffffffffffffffffffffffffffffffffffe1873603018112615a5a57600080fd5b8601602081810191359067ffffffffffffffff821115615a7957600080fd5b813603831315615a8857600080fd5b818652818382880137600086830182015298890198601f909101601f1916909401840193929092019150600101615a1a565b509095945050505050565b60006001600160a01b03808616835260606020840152615ae86060840186615a0f565b9150808416604084015250949350505050565b600080600080600060a08688031215615b1357600080fd5b5050835160208501516040860151606087015160809097015192989197509594509092509050565b60008083357fffffffffffffffffffffffffffffffffffffffffffffffffffffffffffffffe1843603018112615b7057600080fd5b83018035915067ffffffffffffffff821115615b8b57600080fd5b602001915036819003821315614bf557600080fd5b60006001600160a01b03808716835285602084015260806040840152615bc96080840186615a0f565b915080841660608401525095945050505050565b60008060008060808587031215615bf357600080fd5b505082516020840151604085015160609095015191969095509092509050565b60008085851115615c2357600080fd5b83861115615c3057600080fd5b5050820193919092039150565b600082601f830112615c4e57600080fd5b813567ffffffffffffffff811115615c6857615c6861589c565b615c7b6020601f19601f840116016158f4565b818152846020838601011115615c9057600080fd5b816020850160208301376000918101602001919091529392505050565b6000806000838503610120811215615cc457600080fd5b8435615ccf816152e7565b935060e0601f1982011215615ce357600080fd5b50615cec6158cb565b6020850135615cfa816152e7565b81526040850135615d0a816152e7565b60208201526060850135615d1d816152e7565b60408201526080850135615d30816152e7565b8060608301525060a0850135608082015260c085013560a082015260e085013560c08201528092505061010084013567ffffffffffffffff811115615d7457600080fd5b615d8086828701615c3d565b9150509250925092565b601f821115613f0657600081815260208120601f850160051c81016020861015615db15750805b601f850160051c820191505b81811015615dd057828155600101615dbd565b505050505050565b815167ffffffffffffffff811115615df257615df261589c565b615e0681615e0084546156dc565b84615d8a565b602080601f831160018114615e595760008415615e235750858301515b7fffffffffffffffffffffffffffffffffffffffffffffffffffffffffffffffff600386901b1c1916600185901b178555615dd0565b600085815260208120601f198616915b82811015615e8857888601518255948401946001909101908401615e69565b5085821015615ec457878501517fffffffffffffffffffffffffffffffffffffffffffffffffffffffffffffffff600388901b60f8161c191681555b5050505050600190811b01905550565b60008251615ee6818460208701615290565b919091019291505056fea2646970667358221220f6556c90d8e2ff331467dcd5509e6da41952e59a5b10cf33c4539e2961615f5364736f6c63430008130033",
  "immutableReferences": {},
  "source": "// SPDX-License-Identifier: MIT\r\npragma solidity 0.8.19;\r\n\r\nimport \"../interfaces/IUnoAssetRouter.sol\";   \r\nimport \"../interfaces/IUnoAutoStrategyFactory.sol\";  \r\nimport \"../interfaces/IAggregationRouterV5.sol\";\r\nimport '@openzeppelin/contracts-upgradeable/security/ReentrancyGuardUpgradeable.sol';\r\nimport '@openzeppelin/contracts-upgradeable/token/ERC20/ERC20Upgradeable.sol';\r\nimport '@openzeppelin/contracts/token/ERC20/utils/SafeERC20.sol';\r\n\r\ncontract UnoAutoStrategy is Initializable, ERC20Upgradeable, ReentrancyGuardUpgradeable {\r\n    using SafeERC20 for IERC20;\r\n    /**\r\n     * @dev PoolInfo:\r\n     * {assetRouter} - UnoAssetRouter contract.\r\n     * {pool} - Pool address. \r\n     * {tokenA} - Pool's first token address.\r\n     * {tokenB} - Pool's second token address.\r\n     */\r\n    struct _PoolInfo {\r\n        address pool;\r\n        IUnoAssetRouter assetRouter;\r\n    }\r\n\r\n    struct PoolInfo {\r\n        address pool;\r\n        IUnoAssetRouter assetRouter;\r\n        IERC20 tokenA;\r\n        IERC20 tokenB;\r\n    }\r\n\r\n    /**\r\n     * @dev MoveLiquidityInfo:\r\n     * {leftoverA} - TokenA leftovers after MoveLiquidity() call.\r\n     * {leftoverB} - TokenB leftovers after MoveLiquidity() call. \r\n     * {totalSupply} - totalSupply after MoveLiquidity() call.\r\n     * {block} - MoveLiquidity() call block.\r\n     */\r\n    struct MoveLiquidityInfo {\r\n        uint256 leftoverA;\r\n        uint256 leftoverB;\r\n        uint256 totalSupply;\r\n        uint256 block;\r\n    }\r\n    \r\n    /**\r\n     * @dev Contract Variables:\r\n     * {OdosRouter} - Contract that executes swaps.\r\n\r\n     * {poolID} - Current pool the strategy uses ({pools} index).\r\n     * {pools} - Pools this strategy can use and move liquidity to.\r\n\r\n     * {reserveLP} - LP token reserve.\r\n     * {lastMoveInfo} - Info on last MoveLiquidity() block.\r\n     * {blockedLiquidty} - User's blocked LP tokens. Prevents user from stealing leftover tokens by depositing and exiting before moveLiquidity() has been called.\r\n     * {leftoversCollected} - Flag that prevents leftover token collection if they were already collected this MoveLiquidity() cycle.\r\n\r\n     * {accessManager} - Role manager contract.\r\n     * {factory} - The address of AutoStrategyFactory this contract was deployed by.\r\n\r\n     * {MINIMUM_LIQUIDITY} - Ameliorates rounding errors.\r\n     */\r\n\r\n    address private constant OdosRouter = 0xa32EE1C40594249eb3183c10792BcF573D4Da47C;\r\n\r\n    uint256 public poolID;\r\n    PoolInfo[] public pools;\r\n\r\n    uint256 private reserveLP;\r\n    MoveLiquidityInfo private lastMoveInfo;\r\n    mapping(address => mapping(uint256 => uint256)) private blockedLiquidty;\r\n    mapping(address => mapping(uint256 => bool)) private leftoversCollected;\r\n\r\n    IUnoAccessManager public accessManager;\r\n    IUnoAutoStrategyFactory public factory;\r\n\r\n    uint256 private constant MINIMUM_LIQUIDITY = 10**3;\r\n    bytes32 private constant LIQUIDITY_MANAGER_ROLE = keccak256('LIQUIDITY_MANAGER_ROLE');\r\n    address private constant WMATIC = 0x0d500B1d8E8eF31E21C99d1Db9A6444d3ADf1270;\r\n    bytes32 private constant FEE_COLLECTOR_ROLE = keccak256('FEE_COLLECTOR_ROLE');\r\n\r\n    struct ReferrerInfo {\r\n        uint256 lastFeeCollection;\r\n        uint256 deposits;\r\n        uint256 feeCollected;\r\n    }\r\n    /// @dev maps referrer address to referrer info\r\n    mapping(address => ReferrerInfo) private referrerInfo;\r\n    /// @dev maps referral to referrer\r\n    mapping(address => address) private referrers;\r\n    /// @dev This is added to totalSupply internaly to get rid of _mint() inside _collectFee() to avoid recursive fee collection.\r\n    uint256 private fantomTotalSupply;\r\n    bool private isInitialized;\r\n\r\n    event DepositPairTokens(uint256 indexed poolID, uint256 amountA, uint256 amountB);\r\n    event DepositPairTokensETH(uint256 indexed poolID, uint256 amountToken, uint256 amountETH);\r\n    event DepositTokensWithSwap(uint256 indexed poolID, IERC20 indexed token0, IERC20 indexed token1, uint256 sent0, uint256 sent1);\r\n    // Note: amountLP refers to LP tokens used in farms and staking pools, not UNO-LP this contract is.\r\n    // To get info for UNO-LP use mint/burn events\r\n    event Deposit(uint256 indexed poolID, address indexed from, address indexed recipient, uint256 amountLP);\r\n\r\n    event WithdrawPairTokens(uint256 indexed poolID, uint256 amountA, uint256 amountB);\r\n    event WithdrawPairTokensETH(uint256 indexed poolID, uint256 amountToken, uint256 amountETH);\r\n    event WithdrawTokensWithSwap(uint256 indexed poolID, IERC20 indexed token0, IERC20 indexed token1, uint256 amount0, uint256 amount1, uint256 amountA, uint256 amountB);\r\n    // Note: amountLP refers to LP tokens used in farms and staking pools, not UNO-LP this contract is.\r\n    // To get info for UNO-LP use mint/burn events\r\n    event Withdraw(uint256 indexed poolID, address indexed from, address indexed recipient, uint256 amountLP);\r\n\r\n    event MoveLiquidity(uint256 indexed previousPoolID, uint256 indexed nextPoolID);\r\n    event CollectFee(address indexed recipient, uint256 fee);\r\n\r\n    //To save contract size\r\n    error PAUSED();\r\n    error BAD_POOL_ID();\r\n    error BAD_POOL_COUNT();\r\n    error CALLER_NOT_LIQUIDITY_MANAGER();\r\n    error NO_LIQUIDITY();\r\n    error CANT_CALL_ON_THE_SAME_BLOCK();\r\n    error SWAP_NOT_SUCCESSFUL();\r\n    error TOKEN_A_DUST_LEFT();\r\n    error TOKEN_B_DUST_LEFT();\r\n    error INSUFFICIENT_LIQUIDITY();\r\n    error NOT_ETH_POOL();\r\n    error TRANSFER_NOT_SUCCESSFUL();\r\n    error ETH_DEPOSIT_REJECTED();\r\n\r\n    modifier whenNotPaused(){\r\n        if(factory.paused()) revert PAUSED();\r\n        _;\r\n    }\r\n\r\n    // ============ Methods ============\r\n\r\n    receive() external payable {\r\n        //Reject deposits from EOA\r\n        if (msg.sender == tx.origin) revert ETH_DEPOSIT_REJECTED();\r\n    }\r\n\r\n    function initialize(_PoolInfo[] calldata poolInfos, IUnoAccessManager _accessManager) external initializer {\r\n        if((poolInfos.length < 2) || (poolInfos.length > 50)) revert BAD_POOL_COUNT();\r\n\r\n        __ERC20_init(\"UNO-AutoStrategy\", \"UNO-LP\");\r\n        __ReentrancyGuard_init();\r\n        \r\n        for (uint256 i = 0; i < poolInfos.length; i++) {\r\n            IERC20[] memory _tokens = IUnoAssetRouter(poolInfos[i].assetRouter).getTokens(poolInfos[i].pool);\r\n            PoolInfo memory pool = PoolInfo({\r\n                pool: poolInfos[i].pool,\r\n                assetRouter: poolInfos[i].assetRouter,\r\n                tokenA: _tokens[0],\r\n                tokenB: _tokens[1]\r\n            });\r\n            pools.push(pool);\r\n        }\r\n\r\n        accessManager = _accessManager;\r\n        lastMoveInfo.block = block.number;\r\n        factory = IUnoAutoStrategyFactory(msg.sender);\r\n        isInitialized = true;\r\n    }\r\n\r\n    /**\r\n     * @dev Deposits tokens in the pools[poolID] pool. Mints tokens representing user share. Emits {Deposit} event.\r\n     * @param pid - Current poolID. Throws revert if moveLiquidity() has been called before the transaction has been mined.\r\n     * @param amountA - Token A amount to deposit.\r\n     * @param amountB  - Token B amount to deposit.\r\n     * @param amountAMin - Bounds the extent to which the B/A price can go up before the transaction reverts.\r\n     * @param amountBMin - Bounds the extent to which the A/B price can go up before the transaction reverts.\r\n     * @param recipient - Address which will receive the deposit.\r\n     * @param referrer - Address the fees from {msg.sender}'s liquidity will be collected to\r\n     \r\n     * @return sentA - Deposited token A amount.\r\n     * @return sentB - Deposited token B amount.\r\n     * @return liquidity - Total liquidity minted for the {recipient}.\r\n     */\r\n    function deposit(uint256 pid, uint256 amountA, uint256 amountB, uint256 amountAMin, uint256 amountBMin, address recipient, address referrer) whenNotPaused nonReentrant external returns (uint256 sentA, uint256 sentB, uint256 liquidity) {\r\n        if(pid != poolID) revert BAD_POOL_ID();\r\n        PoolInfo memory pool = pools[poolID];\r\n\r\n        pool.tokenA.safeTransferFrom(msg.sender, address(this), amountA);\r\n        pool.tokenA.approve(address(pool.assetRouter), amountA);\r\n\r\n        pool.tokenB.safeTransferFrom(msg.sender, address(this), amountB);\r\n        pool.tokenB.approve(address(pool.assetRouter), amountB);\r\n\r\n        uint256 amountLP;\r\n        (sentA, sentB, amountLP) = pool.assetRouter.deposit(pool.pool, amountA, amountB, amountAMin, amountBMin, address(this));\r\n        liquidity = mint(recipient, referrer);\r\n\r\n        if(amountA > sentA){\r\n            pool.tokenA.safeTransfer(msg.sender, amountA - sentA);\r\n        }\r\n        if(amountB > sentB){\r\n            pool.tokenB.safeTransfer(msg.sender, amountB - sentB);\r\n        }\r\n\r\n        emit DepositPairTokens(poolID, sentA, sentB);\r\n        emit Deposit(poolID, msg.sender, recipient, amountLP); \r\n    }\r\n\r\n    /**\r\n     * @dev Deposits tokens in the pools[poolID] pool. Mints tokens representing user share. Emits {Deposit} event.\r\n     * @param pid - Current poolID. Throws revert if moveLiquidity() has been called before the transaction has been mined.\r\n     * @param amountToken - Token amount to deposit.\r\n     * @param amountTokenMin - Bounds the extent to which the TOKEN/WMATIC price can go up before the transaction reverts.\r\n     * @param amountETHMin - Bounds the extent to which the WMATIC/TOKEN price can go up before the transaction reverts.\r\n     * @param recipient - Address which will receive the deposit.\r\n     * @param referrer - Address the fees from {msg.sender}'s liquidity will be collected to\r\n     \r\n     * @return sentToken - Deposited token amount.\r\n     * @return sentETH - Deposited ETH amount.\r\n     * @return liquidity - Total liquidity minted for the {recipient}.\r\n     */\r\n    function depositETH(uint256 pid, uint256 amountToken, uint256 amountTokenMin, uint256 amountETHMin, address recipient, address referrer) whenNotPaused nonReentrant external payable returns (uint256 sentToken, uint256 sentETH, uint256 liquidity) {\r\n        if(pid != poolID) revert BAD_POOL_ID();\r\n        PoolInfo memory pool = pools[poolID];\r\n\r\n        IERC20 token;\r\n        if (address(pool.tokenA) == WMATIC) {\r\n            token = pool.tokenB;\r\n        } else if (address(pool.tokenB) == WMATIC) {\r\n            token = pool.tokenA;\r\n        } else revert NOT_ETH_POOL();\r\n\r\n        token.safeTransferFrom(msg.sender, address(this), amountToken);\r\n        token.approve(address(pool.assetRouter), amountToken);\r\n\r\n        uint256 amountLP;\r\n        (sentToken, sentETH, amountLP) = pool.assetRouter.depositETH{value: msg.value}(pool.pool, amountToken, amountTokenMin, amountETHMin, address(this));\r\n        liquidity = mint(recipient, referrer);\r\n\r\n        if(amountToken > sentToken){\r\n            token.safeTransfer(msg.sender, amountToken - sentToken);\r\n        }\r\n        if(msg.value > sentETH){\r\n            payable(msg.sender).transfer(msg.value - sentETH);\r\n        }\r\n\r\n        emit DepositPairTokensETH(poolID, sentToken, sentETH);\r\n        emit Deposit(poolID, msg.sender, recipient, amountLP); \r\n    }\r\n\r\n    /**\r\n     * @dev Deposits tokens in the pools[poolID] pool. Mints tokens representing user share. Emits {Deposit} event.\r\n     * @param pid - Current poolID. Throws revert if moveLiquidity() has been called before the transaction has been mined.\r\n     * @param swapData - Parameter with which 1inch router is being called with.\r\n     * @param recipient - Address which will receive the deposit.\r\n     * @param referrer - Address the fees from {msg.sender}'s liquidity will be collected to\r\n     \r\n     * @return sent0 - Tokens sent to the farm from the {swapData[0]}.\r\n     * @return sent1 - Tokens sent to the farm from the {swapData[1]}.\r\n     * @return dustA - {pool.tokenA} dust sent to the {msg.sender}.\r\n     * @return dustB - {pool.tokenB} dust sent to the {msg.sender}.\r\n     * @return liquidity - Total liquidity minted for the {recipient}.\r\n     */\r\n    function depositWithSwap(uint256 pid, bytes[2] calldata swapData, address recipient, address referrer) whenNotPaused nonReentrant payable external returns (uint256 sent0, uint256 sent1, uint256 dustA, uint256 dustB, uint256 liquidity) {\r\n        if(pid != poolID) revert BAD_POOL_ID();\r\n        PoolInfo memory pool = pools[poolID];\r\n\r\n        _transferSwapTokens(address(pool.assetRouter), swapData);\r\n\r\n        uint256 amountLP;\r\n        (sent0, sent1, dustA, dustB, amountLP) = pool.assetRouter.depositWithSwap{value: msg.value}(pool.pool, swapData, address(this));\r\n        liquidity = mint(recipient, referrer);\r\n\r\n        pool.tokenA.safeTransfer(msg.sender, dustA);\r\n        pool.tokenB.safeTransfer(msg.sender, dustB);\r\n\r\n        (IERC20 token0, uint256 amount0) = _getSwapParams(swapData[0]);//Could have done it in _transferSwapTokens to save gas, but can't because of Stack too deep error\r\n        (IERC20 token1, uint256 amount1) = _getSwapParams(swapData[1]);//Could have done it in _transferSwapTokens to save gas, but can't because of Stack too deep error\r\n\r\n        if(amount0 > sent0){\r\n            if(_isETH(token0)){\r\n                (bool success, ) = msg.sender.call{value: amount0 - sent0}(\"\");\r\n                if(!success) revert TRANSFER_NOT_SUCCESSFUL();\r\n            }else{\r\n                token0.safeTransfer(msg.sender, amount0 - sent0);\r\n            }\r\n        }\r\n        if(amount1 > sent1){\r\n            if(_isETH(token1)){\r\n                (bool success, ) = msg.sender.call{value: amount1 - sent1}(\"\");\r\n                if(!success) revert TRANSFER_NOT_SUCCESSFUL();\r\n            }else{\r\n                token1.safeTransfer(msg.sender, amount1 - sent1);\r\n            }\r\n        }\r\n\r\n        emit DepositTokensWithSwap(poolID, token0, token1, sent0, sent1);\r\n        emit Deposit(poolID, msg.sender, recipient, amountLP);\r\n    }\r\n\r\n    /**\r\n     * @dev Withdraws tokens from the {pools[poolID]} pool and sends them to the recipient. Burns tokens representing user share. Emits {Withdraw} event.\r\n     * @param pid - Current poolID. Throws revert if moveLiquidity() has been called before the transaction has been mined.\r\n     * @param liquidity - Liquidity to burn from this user.\r\n     * @param amountAMin - The minimum amount of tokenA that must be received from the pool for the transaction not to revert.\r\n     * @param amountBMin - The minimum amount of tokenB that must be received from the pool for the transaction not to revert.\r\n     * @param recipient - Address which will receive withdrawn tokens.\r\n     \r\n     * @return amountA - Token A amount sent to the {recipient}.\r\n     * @return amountB - Token B amount sent to the {recipient}.\r\n     */\r\n    function withdraw(uint256 pid, uint256 liquidity, uint256 amountAMin, uint256 amountBMin, address recipient) whenNotPaused nonReentrant external returns (uint256 amountA, uint256 amountB) {\r\n        if(pid != poolID) revert BAD_POOL_ID();\r\n        PoolInfo memory pool = pools[poolID];\r\n\r\n        (uint256 leftoverA, uint256 leftoverB) = collectLeftovers(recipient);\r\n\r\n        uint256 amountLP = burn(liquidity);\r\n        (amountA, amountB) = pool.assetRouter.withdraw(pool.pool, amountLP, amountAMin, amountBMin, recipient);\r\n\r\n        amountA += leftoverA;\r\n        amountB += leftoverB;\r\n\r\n        emit WithdrawPairTokens(poolID, amountA, amountB);\r\n        emit Withdraw(poolID, msg.sender, recipient, amountLP); \r\n    }\r\n\r\n    /**\r\n     * @dev Withdraws tokens from the {pools[poolID]} pool and sends them to the recipient. Burns tokens representing user share. Emits {Withdraw} event.\r\n     * @param pid - Current poolID. Throws revert if moveLiquidity() has been called before the transaction has been mined.\r\n     * @param liquidity - Liquidity to burn from this user.\r\n     * @param amountTokenMin - The minimum amount of tokenA that must be received from the pool for the transaction not to revert.\r\n     * @param amountETHMin - The minimum amount of tokenB that must be received from the pool for the transaction not to revert.\r\n     * @param recipient - Address which will receive withdrawn tokens.\r\n     \r\n     * @return amountToken - Token amount sent to the {recipient}.\r\n     * @return amountETH - MATIC amount sent to the {recipient}.\r\n     */\r\n    function withdrawETH(uint256 pid, uint256 liquidity, uint256 amountTokenMin, uint256 amountETHMin, address recipient) whenNotPaused nonReentrant external returns (uint256 amountToken, uint256 amountETH) {\r\n        if(pid != poolID) revert BAD_POOL_ID();\r\n        PoolInfo memory pool = pools[poolID];\r\n\r\n        (uint256 leftoverA, uint256 leftoverB) = collectLeftovers(recipient);\r\n\r\n        uint256 amountLP = burn(liquidity);\r\n        (amountToken, amountETH) = pool.assetRouter.withdrawETH(pool.pool, amountLP, amountTokenMin, amountETHMin, recipient);\r\n\r\n        if (address(pool.tokenA) == WMATIC) {\r\n            amountETH += leftoverA;\r\n            amountToken += leftoverB;\r\n        } else if (address(pool.tokenB) == WMATIC) {\r\n            amountToken += leftoverA;\r\n            amountETH += leftoverB;\r\n        } else revert NOT_ETH_POOL();\r\n\r\n        emit WithdrawPairTokensETH(poolID, amountToken, amountETH);\r\n        emit Withdraw(poolID, msg.sender, recipient, amountLP); \r\n    }\r\n\r\n    /**\r\n     * @dev Withdraws tokens from the {pools[poolID]} pool and sends them to the recipient. Burns tokens representing user share. Emits {Withdraw} event.\r\n     * @param pid - Current poolID. Throws revert if moveLiquidity() has been called before the transaction has been mined.\r\n     * @param liquidity - Liquidity to burn from this user.\r\n     * @param swapData - Parameter with which 1inch router is being called with.\r\n     * @param recipient - Address which will receive withdrawn tokens.\r\n     \r\n     * @return amount0 - Amount sent to the {recipient} from swapData[0].\r\n     * @return amount1 - Amount sent to the {recipient} from swapData[1].\r\n     * @return amountA - Token A dust sent to the {recipient}.\r\n     * @return amountB - Token B dust sent to the {recipient}.\r\n     */\r\n    function withdrawWithSwap(uint256 pid, uint256 liquidity, bytes[2] calldata swapData, address recipient) whenNotPaused nonReentrant external returns (uint256 amount0, uint256 amount1, uint256 amountA, uint256 amountB) {\r\n        if(pid != poolID) revert BAD_POOL_ID();\r\n        PoolInfo memory pool = pools[poolID];\r\n\r\n        (uint256 leftoverA, uint256 leftoverB) = collectLeftovers(recipient);\r\n\r\n        uint256 amountLP = burn(liquidity);\r\n        (amount0, amount1, amountA, amountB) = pool.assetRouter.withdrawWithSwap(pool.pool, amountLP, swapData, recipient);\r\n\r\n        amountA += leftoverA;\r\n        amountB += leftoverB;\r\n\r\n        emit WithdrawTokensWithSwap(poolID, _getSwapDstToken(swapData[0]), _getSwapDstToken(swapData[1]), amount0, amount1, amountA, amountB);\r\n        emit Withdraw(poolID, msg.sender, recipient, amountLP); \r\n    }\r\n\r\n    /**\r\n     * @dev Collects leftover tokens left from moveLiquidity() function.\r\n     * @param recipient - Address which will receive leftover tokens.\r\n     \r\n     * @return leftoverA - Token A amount sent to the {recipient}.\r\n     * @return leftoverB - Token B amount sent to the {recipient}.\r\n     */\r\n    function collectLeftovers(address recipient) internal returns (uint256 leftoverA, uint256 leftoverB){\r\n        if(!leftoversCollected[msg.sender][lastMoveInfo.block]){\r\n            if(lastMoveInfo.totalSupply != 0){\r\n                PoolInfo memory pool = pools[poolID];\r\n                leftoverA = (balanceOf(msg.sender) - blockedLiquidty[msg.sender][lastMoveInfo.block]) * lastMoveInfo.leftoverA / lastMoveInfo.totalSupply;\r\n                leftoverB = (balanceOf(msg.sender) - blockedLiquidty[msg.sender][lastMoveInfo.block]) * lastMoveInfo.leftoverB / lastMoveInfo.totalSupply;\r\n\r\n                if(leftoverA > 0){\r\n                    pool.tokenA.safeTransfer(recipient, leftoverA);\r\n                }\r\n                if(leftoverB > 0){\r\n                    pool.tokenB.safeTransfer(recipient, leftoverB);\r\n                }\r\n            }\r\n\r\n            leftoversCollected[msg.sender][lastMoveInfo.block] = true;\r\n        }\r\n    }\r\n\r\n    /**\r\n     * @dev Moves liquidity from {pools[poolID]} to {pools[_poolID]}. Emits {MoveLiquidity} event.\r\n     * @param _poolID - Pool ID to move liquidity to.\r\n     * @param swapData - Data for tokens swap.\r\n     * @param amountAMin - The minimum amount of tokenA that must be deposited in {pools[_poolID]} for the transaction not to revert.\r\n     * @param amountBMin - The minimum amount of tokenB that must be deposited in {pools[_poolID]} for the transaction not to revert.\r\n     *\r\n     * Note: This function can only be called by LiquidityManager.\r\n     */\r\n    function moveLiquidity(uint256 _poolID, bytes calldata swapData, uint256 amountAMin, uint256 amountBMin) whenNotPaused nonReentrant external {\r\n        if(!accessManager.hasRole(LIQUIDITY_MANAGER_ROLE, msg.sender)) revert CALLER_NOT_LIQUIDITY_MANAGER();\r\n        if(totalSupply() == 0) revert NO_LIQUIDITY();\r\n        if(lastMoveInfo.block == block.number) revert CANT_CALL_ON_THE_SAME_BLOCK();\r\n        if((_poolID >= pools.length) || (_poolID == poolID)) revert BAD_POOL_ID();\r\n\r\n        PoolInfo memory currentPool = pools[poolID];\r\n        PoolInfo memory newPool = pools[_poolID];\r\n\r\n        (uint256 _totalDeposits,,) = currentPool.assetRouter.userStake(address(this), currentPool.pool);\r\n        currentPool.assetRouter.withdraw(currentPool.pool, _totalDeposits, 0, 0, address(this));\r\n\r\n        if(currentPool.tokenA != newPool.tokenA || currentPool.tokenB != newPool.tokenB){\r\n            address odosRouter = OdosRouter;\r\n            currentPool.tokenA.approve(odosRouter, currentPool.tokenA.balanceOf(address(this)));\r\n            currentPool.tokenB.approve(odosRouter, currentPool.tokenB.balanceOf(address(this)));\r\n            (bool success,) = odosRouter.call(swapData);\r\n            if(!success) revert SWAP_NOT_SUCCESSFUL();\r\n\r\n            if(currentPool.tokenA != newPool.tokenA && currentPool.tokenA != newPool.tokenB){\r\n                if(currentPool.tokenA.balanceOf(address(this)) != 0) revert TOKEN_A_DUST_LEFT();\r\n            }\r\n            if(currentPool.tokenB != newPool.tokenA && currentPool.tokenB != newPool.tokenB){\r\n                if(currentPool.tokenB.balanceOf(address(this)) != 0) revert TOKEN_B_DUST_LEFT();\r\n            }\r\n        }\r\n\r\n        uint256 newTokenABalance = newPool.tokenA.balanceOf(address(this));\r\n        uint256 newTokenBBalance = newPool.tokenB.balanceOf(address(this));\r\n        \r\n        newPool.tokenA.approve(address(newPool.assetRouter), newTokenABalance);\r\n        newPool.tokenB.approve(address(newPool.assetRouter), newTokenBBalance);\r\n        (,,reserveLP) = newPool.assetRouter.deposit(newPool.pool, newTokenABalance, newTokenBBalance, amountAMin, amountBMin, address(this));\r\n       \r\n        lastMoveInfo = MoveLiquidityInfo({\r\n            leftoverA: newPool.tokenA.balanceOf(address(this)),\r\n            leftoverB: newPool.tokenB.balanceOf(address(this)),\r\n            totalSupply: totalSupply(),\r\n            block: block.number\r\n        });\r\n\r\n        emit MoveLiquidity(poolID, _poolID); \r\n        poolID = _poolID;\r\n    }\r\n\r\n    /**\r\n     * @dev Returns tokens staked by the {_address}. \r\n     * @param _address - The address to check stakes for.\r\n\r\n     * @return stakeA - Token A stake.\r\n     * @return stakeB - Token B stake.\r\n     * @return leftoverA - Token A Leftovers obligated to the {_address} after moveLiquidity() function call.\r\n     * @return leftoverB - Token B Leftovers obligated to the {_address} after moveLiquidity() function call.\r\n     */\r\n    function userStake(address _address) external view returns (uint256 stakeA, uint256 stakeB, uint256 leftoverA, uint256 leftoverB) {\r\n        uint256 _balance;\r\n        if(_address == address(0)){\r\n            revert();\r\n        } else if(accessManager.hasRole(FEE_COLLECTOR_ROLE, _address)){\r\n            _balance = balanceOf(_address) + (referrerInfo[_address].feeCollected + _getReferrerFee(address(0)) * 2) / 1 ether;\r\n        } else {\r\n            _balance = balanceOf(_address) + (referrerInfo[_address].feeCollected + _getReferrerFee(_address)) / 1 ether;\r\n        }\r\n\r\n        if(_balance != 0){\r\n            PoolInfo memory pool = pools[poolID];\r\n            (, uint256 balanceA, uint256 balanceB) = pool.assetRouter.userStake(address(this), pool.pool);\r\n\r\n            uint256 _totalSupply = totalSupply();\r\n            stakeA = _balance * balanceA / _totalSupply; \r\n            stakeB = _balance * balanceB / _totalSupply; \r\n            if((!leftoversCollected[msg.sender][lastMoveInfo.block]) && (lastMoveInfo.totalSupply != 0)){\r\n                leftoverA = (_balance - blockedLiquidty[_address][lastMoveInfo.block]) * lastMoveInfo.leftoverA / lastMoveInfo.totalSupply;\r\n                leftoverB = (_balance - blockedLiquidty[_address][lastMoveInfo.block]) * lastMoveInfo.leftoverB / lastMoveInfo.totalSupply;\r\n            }\r\n        }\r\n    }\r\n        \r\n    /**\r\n     * @dev Returns total amount locked in the pool. \r\n     * @return totalDepositsA - Token A deposits.\r\n     * @return totalDepositsB - Token B deposits.\r\n     */     \r\n    function totalDeposits() external view returns(uint256 totalDepositsA, uint256 totalDepositsB){\r\n        PoolInfo memory pool = pools[poolID];\r\n        (, totalDepositsA, totalDepositsB) = pool.assetRouter.userStake(address(this), pool.pool);\r\n\r\n        // Add leftover tokens.\r\n        totalDepositsA += pool.tokenA.balanceOf(address(this));\r\n        totalDepositsB += pool.tokenB.balanceOf(address(this));\r\n    }\r\n\r\n    /**\r\n     * @dev Returns the number of pools in the strategy. \r\n     */\r\n    function poolsLength() external view returns(uint256){\r\n        return pools.length;\r\n    }\r\n\r\n    /**\t\r\n     * @dev Returns pair of tokens currently in use. \t\r\n     */\t\r\n    function tokens() external view returns(address, address){\t\r\n        PoolInfo memory pool = pools[poolID];\t\r\n        return (address(pool.tokenA), address(pool.tokenB));\t\r\n    }\r\n\r\n    function mint(address to, address referrer) internal returns (uint256 liquidity){\r\n        PoolInfo memory pool = pools[poolID];\r\n        (uint256 balanceLP,,) = pool.assetRouter.userStake(address(this), pool.pool);\r\n        uint256 amountLP = balanceLP - reserveLP;\r\n\r\n        uint256 _totalSupply = totalSupply();\r\n        if (_totalSupply == 0) {\r\n            liquidity = amountLP - MINIMUM_LIQUIDITY;\r\n            _mint(address(1), MINIMUM_LIQUIDITY);\r\n        } else {\r\n            liquidity = amountLP * _totalSupply / reserveLP;\r\n        }\r\n\r\n        if(liquidity == 0) revert INSUFFICIENT_LIQUIDITY();\r\n\r\n        address _referrer = referrers[msg.sender];\r\n        // Can change referrer only for sender\r\n        if(_referrer != referrer){\r\n            referrers[msg.sender] = referrer;\r\n            uint256 balance = balanceOf(msg.sender);\r\n            // If == 0, we don't need to call _collectFee\r\n            if(balance > 0){\r\n                // Update referrer fee & subtract balance from referrer's deposits\r\n                _collectFee(_referrer);\r\n                referrerInfo[_referrer].deposits -= balance;\r\n\r\n                // Add balance to new referrer's deposits\r\n                _collectFee(referrer);\r\n                referrerInfo[referrer].deposits += balance;\r\n            }\r\n        }\r\n\r\n        _mint(to, liquidity);\r\n        reserveLP = balanceLP;\r\n    }\r\n\r\n    function burn(uint256 liquidity) internal returns (uint256 amountLP) {\r\n        PoolInfo memory pool = pools[poolID];\r\n        (uint256 balanceLP,,) = pool.assetRouter.userStake(address(this), pool.pool);\r\n\r\n        uint256 _totalSupply = totalSupply();\r\n        // Collect fee for the caller to their address\r\n        liquidity += collectFee(msg.sender);\r\n        amountLP = liquidity * balanceLP / _totalSupply; \r\n        if(amountLP == 0) revert INSUFFICIENT_LIQUIDITY();\r\n        \r\n        _burn(msg.sender, liquidity);\r\n        reserveLP = balanceLP - amountLP;\r\n    }\r\n\r\n    /**\r\n      * @dev Collects fee and mints it to {referrer}.\r\n      * @param referrer - Address to collect fees for.\r\n      *\r\n      * @return fee - Fee collected.\r\n     */\r\n    function collectFee(address referrer) public returns (uint256 fee){\r\n        if(referrer == address(0)){\r\n            return 0;\r\n        }\r\n        \r\n        address recipient = referrer;\r\n        if(accessManager.hasRole(FEE_COLLECTOR_ROLE, referrer)){\r\n            referrer = address(0);\r\n        }\r\n\r\n        _collectFee(referrer);\r\n        fee = referrerInfo[referrer].feeCollected / 1 ether;\r\n        if(fee > 0){\r\n            _mint(recipient, fee);\r\n            fantomTotalSupply -= referrerInfo[referrer].feeCollected;\r\n            referrerInfo[referrer].feeCollected = 0;\r\n\r\n            emit CollectFee(recipient, fee);\r\n        }\r\n    }\r\n\r\n    function _getReferrerFee(address referrer) private view returns (uint256) {\r\n        uint256 deposits = referrerInfo[referrer].deposits;\r\n        uint256 lastFeeCollection = referrerInfo[referrer].lastFeeCollection;\r\n        if(deposits != 0 && lastFeeCollection != 0 && block.timestamp != lastFeeCollection){\r\n            // 60*60*24*365 = 31536000; 2% / 31536000 = 0.0000000634195839 % per second = 634195839 wei per second.\r\n            // Divide by 2 to mint equal amounts to feeCollector and to referrer.\r\n            return ((block.timestamp - lastFeeCollection) * 317097919 * deposits);\r\n        }\r\n        return 0;\r\n    }\r\n\r\n    function _collectFee(address referrer) private {\r\n        // Some autostrats were initialized before referral upgrade, so we initialize all liquidity as having address(0) as it's referrer here.\r\n        if(!isInitialized){\r\n            referrerInfo[address(0)].deposits = totalSupply();\r\n            isInitialized = true;\r\n        }\r\n\r\n        uint256 fee = _getReferrerFee(referrer);\r\n        if(fee > 0){\r\n            //referrer == address(0) is a special case for uno's fee collector.\r\n            if(referrer == address(0)){\r\n                fee *= 2;\r\n                referrerInfo[address(0)].feeCollected += fee;\r\n                fantomTotalSupply += fee;\r\n            } else {\r\n                referrerInfo[referrer].feeCollected += fee;\r\n                referrerInfo[address(0)].feeCollected += fee;\r\n                fantomTotalSupply += fee * 2;\r\n            }\r\n        }\r\n        \r\n        referrerInfo[referrer].lastFeeCollection = block.timestamp;\r\n    }\r\n\r\n    function _transferSwapTokens(address assetRouter, bytes[2] calldata swapData) internal {\r\n        (,IAggregationRouterV5.SwapDescription memory desc0,) = abi.decode(swapData[0][4:], (address, IAggregationRouterV5.SwapDescription, bytes));\r\n        (,IAggregationRouterV5.SwapDescription memory desc1,) = abi.decode(swapData[1][4:], (address, IAggregationRouterV5.SwapDescription, bytes));\r\n\r\n        if(desc0.srcToken == desc1.srcToken){\r\n            if(!_isETH(desc0.srcToken)){\r\n                uint256 amount = desc0.amount + desc1.amount;\r\n                desc0.srcToken.safeTransferFrom(msg.sender, address(this), amount);\r\n                desc0.srcToken.approve(assetRouter, amount);\r\n            }\r\n        }else{\r\n            if(!_isETH(desc0.srcToken)){\r\n                desc0.srcToken.safeTransferFrom(msg.sender, address(this), desc0.amount);\r\n                desc0.srcToken.approve(assetRouter, desc0.amount);\r\n            }\r\n            if(!_isETH(desc1.srcToken)){\r\n                desc1.srcToken.safeTransferFrom(msg.sender, address(this), desc1.amount);\r\n                desc1.srcToken.approve(assetRouter, desc1.amount);\r\n            }\r\n        }\r\n    }\r\n\r\n    function _getSwapParams(bytes calldata swapData) internal pure returns(IERC20, uint256){\r\n        (,IAggregationRouterV5.SwapDescription memory desc,) = abi.decode(swapData[4:], (address, IAggregationRouterV5.SwapDescription, bytes));\r\n        return (desc.srcToken, desc.amount);\r\n    }\r\n\r\n    function _isETH(IERC20 token) internal pure returns(bool){\r\n        return (address(token) == address(0) || address(token) == address(0xEeeeeEeeeEeEeeEeEeEeeEEEeeeeEeeeeeeeEEeE));\r\n    }\r\n\r\n    function _getSwapDstToken(bytes calldata swapData) internal pure returns(IERC20){\r\n        (,IAggregationRouterV5.SwapDescription memory desc,) = abi.decode(swapData[4:], (address, IAggregationRouterV5.SwapDescription, bytes));\r\n        return desc.dstToken;\r\n    }\r\n\r\n    function _beforeTokenTransfer(address from, address to, uint256 amount) internal virtual override {\r\n        super._beforeTokenTransfer(from, to, amount);\r\n\r\n        // Decrease blockedLiquidty from {from} address, but no less then 0.\r\n        if(amount > blockedLiquidty[from][lastMoveInfo.block]){\r\n            blockedLiquidty[from][lastMoveInfo.block] = 0;\r\n        } else {\r\n            blockedLiquidty[from][lastMoveInfo.block] -= amount;\r\n        }\r\n        // Block {to} address from withdrawing their share of leftover tokens immediately.\r\n        blockedLiquidty[to][lastMoveInfo.block] += amount;\r\n\r\n        if(from != address(0)){\r\n            //Decrease referralDeposits from {from}'s referrer\r\n            address referrer = referrers[from];\r\n            _collectFee(referrer);\r\n            referrerInfo[referrer].deposits -= amount;\r\n        }\r\n        if(to != address(0)){\r\n            //Add referralDeposits to {to}'s referrer\r\n            address referrer = referrers[to];\r\n            _collectFee(referrer);\r\n            referrerInfo[referrer].deposits += amount;\r\n        }\r\n    }\r\n\r\n    function totalSupply() public view override returns (uint256) {\r\n        return super.totalSupply() + (fantomTotalSupply / 1 ether);\r\n    }\r\n}",
  "sourcePath": "C:\\Users\\jugli\\Desktop\\uno\\uno-contracts\\contracts\\autostrategy\\UnoAutoStrategy.sol",
  "compiler": {
    "name": "solc",
    "version": "0.8.19+commit.7dd6d404.Emscripten.clang"
  },
  "schemaVersion": "3.4.16",
  "updatedAt": "2023-09-27T12:28:59.187Z",
  "devdoc": {
    "events": {
      "Approval(address,address,uint256)": {
        "details": "Emitted when the allowance of a `spender` for an `owner` is set by a call to {approve}. `value` is the new allowance."
      },
      "Initialized(uint8)": {
        "details": "Triggered when the contract has been initialized or reinitialized."
      },
      "Transfer(address,address,uint256)": {
        "details": "Emitted when `value` tokens are moved from one account (`from`) to another (`to`). Note that `value` may be zero."
      }
    },
    "kind": "dev",
    "methods": {
      "allowance(address,address)": {
        "details": "See {IERC20-allowance}."
      },
      "approve(address,uint256)": {
        "details": "See {IERC20-approve}. NOTE: If `amount` is the maximum `uint256`, the allowance is not updated on `transferFrom`. This is semantically equivalent to an infinite approval. Requirements: - `spender` cannot be the zero address."
      },
      "balanceOf(address)": {
        "details": "See {IERC20-balanceOf}."
      },
      "collectFee(address)": {
        "details": "Collects fee and mints it to {referrer}.",
        "params": {
          "referrer": "- Address to collect fees for."
        },
        "returns": {
          "fee": "- Fee collected."
        }
      },
      "decimals()": {
        "details": "Returns the number of decimals used to get its user representation. For example, if `decimals` equals `2`, a balance of `505` tokens should be displayed to a user as `5.05` (`505 / 10 ** 2`). Tokens usually opt for a value of 18, imitating the relationship between Ether and Wei. This is the default value returned by this function, unless it's overridden. NOTE: This information is only used for _display_ purposes: it in no way affects any of the arithmetic of the contract, including {IERC20-balanceOf} and {IERC20-transfer}."
      },
      "decreaseAllowance(address,uint256)": {
        "details": "Atomically decreases the allowance granted to `spender` by the caller. This is an alternative to {approve} that can be used as a mitigation for problems described in {IERC20-approve}. Emits an {Approval} event indicating the updated allowance. Requirements: - `spender` cannot be the zero address. - `spender` must have allowance for the caller of at least `subtractedValue`."
      },
      "deposit(uint256,uint256,uint256,uint256,uint256,address,address)": {
        "details": "Deposits tokens in the pools[poolID] pool. Mints tokens representing user share. Emits {Deposit} event.",
        "params": {
          "amountA": "- Token A amount to deposit.",
          "amountAMin": "- Bounds the extent to which the B/A price can go up before the transaction reverts.",
          "amountB": "- Token B amount to deposit.",
          "amountBMin": "- Bounds the extent to which the A/B price can go up before the transaction reverts.",
          "pid": "- Current poolID. Throws revert if moveLiquidity() has been called before the transaction has been mined.",
          "recipient": "- Address which will receive the deposit.",
          "referrer": "- Address the fees from {msg.sender}'s liquidity will be collected to"
        },
        "returns": {
          "liquidity": "- Total liquidity minted for the {recipient}.",
          "sentA": "- Deposited token A amount.",
          "sentB": "- Deposited token B amount."
        }
      },
      "depositETH(uint256,uint256,uint256,uint256,address,address)": {
        "details": "Deposits tokens in the pools[poolID] pool. Mints tokens representing user share. Emits {Deposit} event.",
        "params": {
          "amountETHMin": "- Bounds the extent to which the WMATIC/TOKEN price can go up before the transaction reverts.",
          "amountToken": "- Token amount to deposit.",
          "amountTokenMin": "- Bounds the extent to which the TOKEN/WMATIC price can go up before the transaction reverts.",
          "pid": "- Current poolID. Throws revert if moveLiquidity() has been called before the transaction has been mined.",
          "recipient": "- Address which will receive the deposit.",
          "referrer": "- Address the fees from {msg.sender}'s liquidity will be collected to"
        },
        "returns": {
          "liquidity": "- Total liquidity minted for the {recipient}.",
          "sentETH": "- Deposited ETH amount.",
          "sentToken": "- Deposited token amount."
        }
      },
      "depositWithSwap(uint256,bytes[2],address,address)": {
        "details": "Deposits tokens in the pools[poolID] pool. Mints tokens representing user share. Emits {Deposit} event.",
        "params": {
          "pid": "- Current poolID. Throws revert if moveLiquidity() has been called before the transaction has been mined.",
          "recipient": "- Address which will receive the deposit.",
          "referrer": "- Address the fees from {msg.sender}'s liquidity will be collected to",
          "swapData": "- Parameter with which 1inch router is being called with."
        },
        "returns": {
          "dustA": "- {pool.tokenA} dust sent to the {msg.sender}.",
          "dustB": "- {pool.tokenB} dust sent to the {msg.sender}.",
          "liquidity": "- Total liquidity minted for the {recipient}.",
          "sent0": "- Tokens sent to the farm from the {swapData[0]}.",
          "sent1": "- Tokens sent to the farm from the {swapData[1]}."
        }
      },
      "increaseAllowance(address,uint256)": {
        "details": "Atomically increases the allowance granted to `spender` by the caller. This is an alternative to {approve} that can be used as a mitigation for problems described in {IERC20-approve}. Emits an {Approval} event indicating the updated allowance. Requirements: - `spender` cannot be the zero address."
      },
      "moveLiquidity(uint256,bytes,uint256,uint256)": {
        "details": "Moves liquidity from {pools[poolID]} to {pools[_poolID]}. Emits {MoveLiquidity} event.",
        "params": {
          "_poolID": "- Pool ID to move liquidity to.",
          "amountAMin": "- The minimum amount of tokenA that must be deposited in {pools[_poolID]} for the transaction not to revert.",
          "amountBMin": "- The minimum amount of tokenB that must be deposited in {pools[_poolID]} for the transaction not to revert. Note: This function can only be called by LiquidityManager.",
          "swapData": "- Data for tokens swap."
        }
      },
      "name()": {
        "details": "Returns the name of the token."
      },
      "poolsLength()": {
        "details": "Returns the number of pools in the strategy. "
      },
      "symbol()": {
        "details": "Returns the symbol of the token, usually a shorter version of the name."
      },
      "tokens()": {
        "details": "Returns pair of tokens currently in use. \t"
      },
      "totalDeposits()": {
        "details": "Returns total amount locked in the pool. ",
        "returns": {
          "totalDepositsA": "- Token A deposits.",
          "totalDepositsB": "- Token B deposits."
        }
      },
      "totalSupply()": {
        "details": "See {IERC20-totalSupply}."
      },
      "transfer(address,uint256)": {
        "details": "See {IERC20-transfer}. Requirements: - `to` cannot be the zero address. - the caller must have a balance of at least `amount`."
      },
      "transferFrom(address,address,uint256)": {
        "details": "See {IERC20-transferFrom}. Emits an {Approval} event indicating the updated allowance. This is not required by the EIP. See the note at the beginning of {ERC20}. NOTE: Does not update the allowance if the current allowance is the maximum `uint256`. Requirements: - `from` and `to` cannot be the zero address. - `from` must have a balance of at least `amount`. - the caller must have allowance for ``from``'s tokens of at least `amount`."
      },
      "userStake(address)": {
        "details": "Returns tokens staked by the {_address}. ",
        "params": {
          "_address": "- The address to check stakes for."
        },
        "returns": {
          "leftoverA": "- Token A Leftovers obligated to the {_address} after moveLiquidity() function call.",
          "leftoverB": "- Token B Leftovers obligated to the {_address} after moveLiquidity() function call.",
          "stakeA": "- Token A stake.",
          "stakeB": "- Token B stake."
        }
      },
      "withdraw(uint256,uint256,uint256,uint256,address)": {
        "details": "Withdraws tokens from the {pools[poolID]} pool and sends them to the recipient. Burns tokens representing user share. Emits {Withdraw} event.",
        "params": {
          "amountAMin": "- The minimum amount of tokenA that must be received from the pool for the transaction not to revert.",
          "amountBMin": "- The minimum amount of tokenB that must be received from the pool for the transaction not to revert.",
          "liquidity": "- Liquidity to burn from this user.",
          "pid": "- Current poolID. Throws revert if moveLiquidity() has been called before the transaction has been mined.",
          "recipient": "- Address which will receive withdrawn tokens."
        },
        "returns": {
          "amountA": "- Token A amount sent to the {recipient}.",
          "amountB": "- Token B amount sent to the {recipient}."
        }
      },
      "withdrawETH(uint256,uint256,uint256,uint256,address)": {
        "details": "Withdraws tokens from the {pools[poolID]} pool and sends them to the recipient. Burns tokens representing user share. Emits {Withdraw} event.",
        "params": {
          "amountETHMin": "- The minimum amount of tokenB that must be received from the pool for the transaction not to revert.",
          "amountTokenMin": "- The minimum amount of tokenA that must be received from the pool for the transaction not to revert.",
          "liquidity": "- Liquidity to burn from this user.",
          "pid": "- Current poolID. Throws revert if moveLiquidity() has been called before the transaction has been mined.",
          "recipient": "- Address which will receive withdrawn tokens."
        },
        "returns": {
          "amountETH": "- MATIC amount sent to the {recipient}.",
          "amountToken": "- Token amount sent to the {recipient}."
        }
      },
      "withdrawWithSwap(uint256,uint256,bytes[2],address)": {
        "details": "Withdraws tokens from the {pools[poolID]} pool and sends them to the recipient. Burns tokens representing user share. Emits {Withdraw} event.",
        "params": {
          "liquidity": "- Liquidity to burn from this user.",
          "pid": "- Current poolID. Throws revert if moveLiquidity() has been called before the transaction has been mined.",
          "recipient": "- Address which will receive withdrawn tokens.",
          "swapData": "- Parameter with which 1inch router is being called with."
        },
        "returns": {
          "amount0": "- Amount sent to the {recipient} from swapData[0].",
          "amount1": "- Amount sent to the {recipient} from swapData[1].",
          "amountA": "- Token A dust sent to the {recipient}.",
          "amountB": "- Token B dust sent to the {recipient}."
        }
      }
    },
    "stateVariables": {
      "OdosRouter": {
        "details": "Contract Variables: {OdosRouter} - Contract that executes swaps. {poolID} - Current pool the strategy uses ({pools} index). {pools} - Pools this strategy can use and move liquidity to. {reserveLP} - LP token reserve. {lastMoveInfo} - Info on last MoveLiquidity() block. {blockedLiquidty} - User's blocked LP tokens. Prevents user from stealing leftover tokens by depositing and exiting before moveLiquidity() has been called. {leftoversCollected} - Flag that prevents leftover token collection if they were already collected this MoveLiquidity() cycle. {accessManager} - Role manager contract. {factory} - The address of AutoStrategyFactory this contract was deployed by. {MINIMUM_LIQUIDITY} - Ameliorates rounding errors."
      },
      "fantomTotalSupply": {
        "details": "This is added to totalSupply internaly to get rid of _mint() inside _collectFee() to avoid recursive fee collection."
      },
      "referrerInfo": {
        "details": "maps referrer address to referrer info"
      },
      "referrers": {
        "details": "maps referral to referrer"
      }
    },
    "version": 1
  },
  "userdoc": {
    "kind": "user",
    "methods": {},
    "version": 1
  }
}