{
  "contractName": "UnoAutoStrategyV2",
  "abi": [
    {
      "anonymous": false,
      "inputs": [
        {
          "indexed": true,
          "internalType": "address",
          "name": "owner",
          "type": "address"
        },
        {
          "indexed": true,
          "internalType": "address",
          "name": "spender",
          "type": "address"
        },
        {
          "indexed": false,
          "internalType": "uint256",
          "name": "value",
          "type": "uint256"
        }
      ],
      "name": "Approval",
      "type": "event"
    },
    {
      "anonymous": false,
      "inputs": [
        {
          "indexed": true,
          "internalType": "uint256",
          "name": "poolID",
          "type": "uint256"
        },
        {
          "indexed": true,
          "internalType": "address",
          "name": "from",
          "type": "address"
        },
        {
          "indexed": true,
          "internalType": "address",
          "name": "recipient",
          "type": "address"
        },
        {
          "indexed": false,
          "internalType": "uint256",
          "name": "amountA",
          "type": "uint256"
        },
        {
          "indexed": false,
          "internalType": "uint256",
          "name": "amountB",
          "type": "uint256"
        }
      ],
      "name": "Deposit",
      "type": "event"
    },
    {
      "anonymous": false,
      "inputs": [
        {
          "indexed": false,
          "internalType": "uint8",
          "name": "version",
          "type": "uint8"
        }
      ],
      "name": "Initialized",
      "type": "event"
    },
    {
      "anonymous": false,
      "inputs": [
        {
          "indexed": true,
          "internalType": "uint256",
          "name": "previousPoolID",
          "type": "uint256"
        },
        {
          "indexed": true,
          "internalType": "uint256",
          "name": "nextPoolID",
          "type": "uint256"
        }
      ],
      "name": "MoveLiquidity",
      "type": "event"
    },
    {
      "anonymous": false,
      "inputs": [
        {
          "indexed": true,
          "internalType": "address",
          "name": "from",
          "type": "address"
        },
        {
          "indexed": true,
          "internalType": "address",
          "name": "to",
          "type": "address"
        },
        {
          "indexed": false,
          "internalType": "uint256",
          "name": "value",
          "type": "uint256"
        }
      ],
      "name": "Transfer",
      "type": "event"
    },
    {
      "anonymous": false,
      "inputs": [
        {
          "indexed": true,
          "internalType": "uint256",
          "name": "poolID",
          "type": "uint256"
        },
        {
          "indexed": true,
          "internalType": "address",
          "name": "from",
          "type": "address"
        },
        {
          "indexed": true,
          "internalType": "address",
          "name": "recipient",
          "type": "address"
        },
        {
          "indexed": false,
          "internalType": "uint256",
          "name": "amountA",
          "type": "uint256"
        },
        {
          "indexed": false,
          "internalType": "uint256",
          "name": "amountB",
          "type": "uint256"
        }
      ],
      "name": "Withdraw",
      "type": "event"
    },
    {
      "inputs": [],
      "name": "accessManager",
      "outputs": [
        {
          "internalType": "contract IUnoAccessManager",
          "name": "",
          "type": "address"
        }
      ],
      "stateMutability": "view",
      "type": "function"
    },
    {
      "inputs": [
        {
          "internalType": "address",
          "name": "owner",
          "type": "address"
        },
        {
          "internalType": "address",
          "name": "spender",
          "type": "address"
        }
      ],
      "name": "allowance",
      "outputs": [
        {
          "internalType": "uint256",
          "name": "",
          "type": "uint256"
        }
      ],
      "stateMutability": "view",
      "type": "function"
    },
    {
      "inputs": [
        {
          "internalType": "address",
          "name": "spender",
          "type": "address"
        },
        {
          "internalType": "uint256",
          "name": "amount",
          "type": "uint256"
        }
      ],
      "name": "approve",
      "outputs": [
        {
          "internalType": "bool",
          "name": "",
          "type": "bool"
        }
      ],
      "stateMutability": "nonpayable",
      "type": "function"
    },
    {
      "inputs": [
        {
          "internalType": "address",
          "name": "account",
          "type": "address"
        }
      ],
      "name": "balanceOf",
      "outputs": [
        {
          "internalType": "uint256",
          "name": "",
          "type": "uint256"
        }
      ],
      "stateMutability": "view",
      "type": "function"
    },
    {
      "inputs": [],
      "name": "decimals",
      "outputs": [
        {
          "internalType": "uint8",
          "name": "",
          "type": "uint8"
        }
      ],
      "stateMutability": "view",
      "type": "function"
    },
    {
      "inputs": [
        {
          "internalType": "address",
          "name": "spender",
          "type": "address"
        },
        {
          "internalType": "uint256",
          "name": "subtractedValue",
          "type": "uint256"
        }
      ],
      "name": "decreaseAllowance",
      "outputs": [
        {
          "internalType": "bool",
          "name": "",
          "type": "bool"
        }
      ],
      "stateMutability": "nonpayable",
      "type": "function"
    },
    {
      "inputs": [],
      "name": "factory",
      "outputs": [
        {
          "internalType": "contract IUnoAutoStrategyFactory",
          "name": "",
          "type": "address"
        }
      ],
      "stateMutability": "view",
      "type": "function"
    },
    {
      "inputs": [
        {
          "internalType": "address",
          "name": "spender",
          "type": "address"
        },
        {
          "internalType": "uint256",
          "name": "addedValue",
          "type": "uint256"
        }
      ],
      "name": "increaseAllowance",
      "outputs": [
        {
          "internalType": "bool",
          "name": "",
          "type": "bool"
        }
      ],
      "stateMutability": "nonpayable",
      "type": "function"
    },
    {
      "inputs": [],
      "name": "name",
      "outputs": [
        {
          "internalType": "string",
          "name": "",
          "type": "string"
        }
      ],
      "stateMutability": "view",
      "type": "function"
    },
    {
      "inputs": [],
      "name": "poolID",
      "outputs": [
        {
          "internalType": "uint256",
          "name": "",
          "type": "uint256"
        }
      ],
      "stateMutability": "view",
      "type": "function"
    },
    {
      "inputs": [
        {
          "internalType": "uint256",
          "name": "",
          "type": "uint256"
        }
      ],
      "name": "pools",
      "outputs": [
        {
          "internalType": "address",
          "name": "pool",
          "type": "address"
        },
        {
          "internalType": "contract IUnoAssetRouter",
          "name": "assetRouter",
          "type": "address"
        },
        {
          "internalType": "contract IERC20Upgradeable",
          "name": "tokenA",
          "type": "address"
        },
        {
          "internalType": "contract IERC20Upgradeable",
          "name": "tokenB",
          "type": "address"
        }
      ],
      "stateMutability": "view",
      "type": "function"
    },
    {
      "inputs": [],
      "name": "symbol",
      "outputs": [
        {
          "internalType": "string",
          "name": "",
          "type": "string"
        }
      ],
      "stateMutability": "view",
      "type": "function"
    },
    {
      "inputs": [],
      "name": "totalSupply",
      "outputs": [
        {
          "internalType": "uint256",
          "name": "",
          "type": "uint256"
        }
      ],
      "stateMutability": "view",
      "type": "function"
    },
    {
      "inputs": [
        {
          "internalType": "address",
          "name": "to",
          "type": "address"
        },
        {
          "internalType": "uint256",
          "name": "amount",
          "type": "uint256"
        }
      ],
      "name": "transfer",
      "outputs": [
        {
          "internalType": "bool",
          "name": "",
          "type": "bool"
        }
      ],
      "stateMutability": "nonpayable",
      "type": "function"
    },
    {
      "inputs": [
        {
          "internalType": "address",
          "name": "from",
          "type": "address"
        },
        {
          "internalType": "address",
          "name": "to",
          "type": "address"
        },
        {
          "internalType": "uint256",
          "name": "amount",
          "type": "uint256"
        }
      ],
      "name": "transferFrom",
      "outputs": [
        {
          "internalType": "bool",
          "name": "",
          "type": "bool"
        }
      ],
      "stateMutability": "nonpayable",
      "type": "function"
    },
    {
      "inputs": [],
      "name": "version",
      "outputs": [
        {
          "internalType": "uint256",
          "name": "",
          "type": "uint256"
        }
      ],
      "stateMutability": "view",
      "type": "function"
    },
    {
      "inputs": [
        {
          "components": [
            {
              "internalType": "address",
              "name": "pool",
              "type": "address"
            },
            {
              "internalType": "contract IUnoAssetRouter",
              "name": "assetRouter",
              "type": "address"
            }
          ],
          "internalType": "struct UnoAutoStrategyV2._PoolInfo[]",
          "name": "poolInfos",
          "type": "tuple[]"
        },
        {
          "internalType": "contract IUnoAccessManager",
          "name": "_accessManager",
          "type": "address"
        }
      ],
      "name": "initialize",
      "outputs": [],
      "stateMutability": "nonpayable",
      "type": "function"
    },
    {
      "inputs": [
        {
          "internalType": "uint256",
          "name": "pid",
          "type": "uint256"
        },
        {
          "internalType": "uint256",
          "name": "amountA",
          "type": "uint256"
        },
        {
          "internalType": "uint256",
          "name": "amountB",
          "type": "uint256"
        },
        {
          "internalType": "uint256",
          "name": "amountAMin",
          "type": "uint256"
        },
        {
          "internalType": "uint256",
          "name": "amountBMin",
          "type": "uint256"
        },
        {
          "internalType": "address",
          "name": "recipient",
          "type": "address"
        }
      ],
      "name": "deposit",
      "outputs": [
        {
          "internalType": "uint256",
          "name": "sentA",
          "type": "uint256"
        },
        {
          "internalType": "uint256",
          "name": "sentB",
          "type": "uint256"
        },
        {
          "internalType": "uint256",
          "name": "liquidity",
          "type": "uint256"
        }
      ],
      "stateMutability": "nonpayable",
      "type": "function"
    },
    {
      "inputs": [
        {
          "internalType": "uint256",
          "name": "pid",
          "type": "uint256"
        },
        {
          "internalType": "uint256",
          "name": "liquidity",
          "type": "uint256"
        },
        {
          "internalType": "uint256",
          "name": "amountAMin",
          "type": "uint256"
        },
        {
          "internalType": "uint256",
          "name": "amountBMin",
          "type": "uint256"
        },
        {
          "internalType": "address",
          "name": "recipient",
          "type": "address"
        }
      ],
      "name": "withdraw",
      "outputs": [
        {
          "internalType": "uint256",
          "name": "amountA",
          "type": "uint256"
        },
        {
          "internalType": "uint256",
          "name": "amountB",
          "type": "uint256"
        }
      ],
      "stateMutability": "nonpayable",
      "type": "function"
    },
    {
      "inputs": [
        {
          "internalType": "uint256",
          "name": "_poolID",
          "type": "uint256"
        },
        {
          "internalType": "bytes",
          "name": "swapAData",
          "type": "bytes"
        },
        {
          "internalType": "bytes",
          "name": "swapBData",
          "type": "bytes"
        },
        {
          "internalType": "uint256",
          "name": "amountAMin",
          "type": "uint256"
        },
        {
          "internalType": "uint256",
          "name": "amountBMin",
          "type": "uint256"
        }
      ],
      "name": "moveLiquidity",
      "outputs": [],
      "stateMutability": "nonpayable",
      "type": "function"
    },
    {
      "inputs": [
        {
          "internalType": "address",
          "name": "_address",
          "type": "address"
        }
      ],
      "name": "userStake",
      "outputs": [
        {
          "internalType": "uint256",
          "name": "stakeA",
          "type": "uint256"
        },
        {
          "internalType": "uint256",
          "name": "stakeB",
          "type": "uint256"
        },
        {
          "internalType": "uint256",
          "name": "leftoverA",
          "type": "uint256"
        },
        {
          "internalType": "uint256",
          "name": "leftoverB",
          "type": "uint256"
        }
      ],
      "stateMutability": "view",
      "type": "function"
    },
    {
      "inputs": [],
      "name": "totalDeposits",
      "outputs": [
        {
          "internalType": "uint256",
          "name": "totalDepositsA",
          "type": "uint256"
        },
        {
          "internalType": "uint256",
          "name": "totalDepositsB",
          "type": "uint256"
        }
      ],
      "stateMutability": "view",
      "type": "function"
    },
    {
      "inputs": [],
      "name": "poolsLength",
      "outputs": [
        {
          "internalType": "uint256",
          "name": "",
          "type": "uint256"
        }
      ],
      "stateMutability": "view",
      "type": "function"
    },
    {
      "inputs": [],
      "name": "tokens",
      "outputs": [
        {
          "internalType": "address",
          "name": "",
          "type": "address"
        },
        {
          "internalType": "address",
          "name": "",
          "type": "address"
        }
      ],
      "stateMutability": "view",
      "type": "function"
    }
  ],
  "bytecode": "0x608060405234801561001057600080fd5b50613f14806100206000396000f3fe608060405234801561001057600080fd5b50600436106101585760003560e01c80637d882097116100c3578063a9059cbb1161007c578063a9059cbb146102fe578063ac4afa3814610311578063c45a015514610357578063d473a65414610382578063dd62ed3e14610395578063fdcb6068146103a857600080fd5b80637d882097146102795780638d934485146102965780639130700e1461029f57806395d89b41146102cd5780639d63848a146102d5578063a457c2d7146102eb57600080fd5b8063395093511161011557806339509351146101da57806354fd4d50146101ed578063668393c7146101f557806368e5585d1461020a57806370a082311461023d57806374552fb61461026657600080fd5b806306fdde031461015d578063095ea7b31461017b57806318160ddd1461019e57806323b872dd146101b05780632716ae66146101c3578063313ce567146101cb575b600080fd5b6101656103bb565b60405161017291906132de565b60405180910390f35b61018e610189366004613309565b61044d565b6040519015158152602001610172565b6035545b604051908152602001610172565b61018e6101be366004613335565b610465565b6098546101a2565b60405160128152602001610172565b61018e6101e8366004613309565b61048b565b6101a2600281565b6102086102033660046133be565b6104ad565b005b61021d610218366004613446565b61113f565b604080519485526020850193909352918301526060820152608001610172565b6101a261024b366004613446565b6001600160a01b031660009081526033602052604090205490565b610208610274366004613463565b611358565b610281611a07565b60408051928352602083019190915201610172565b6101a260975481565b6102b26102ad3660046134e8565b611bd2565b60408051938452602084019290925290820152606001610172565b610165611e7f565b6102dd611e8e565b60405161017292919061353d565b61018e6102f9366004613309565b611f08565b61018e61030c366004613309565b611f8e565b61032461031f366004613557565b611f9c565b604080516001600160a01b0395861681529385166020850152918416918301919091529091166060820152608001610172565b60a15461036a906001600160a01b031681565b6040516001600160a01b039091168152602001610172565b610281610390366004613570565b611fe6565b6101a26103a33660046135bd565b612248565b60a05461036a906001600160a01b031681565b6060603680546103ca906135f6565b80601f01602080910402602001604051908101604052809291908181526020018280546103f6906135f6565b80156104435780601f1061041857610100808354040283529160200191610443565b820191906000526020600020905b81548152906001019060200180831161042657829003601f168201915b5050505050905090565b60003361045b818585612273565b5060019392505050565b600033610473858285612397565b61047e85858561240b565b60019150505b9392505050565b60003361045b81858561049e8383612248565b6104a89190613647565b612273565b60a160009054906101000a90046001600160a01b03166001600160a01b0316635c975abb6040518163ffffffff1660e01b8152600401602060405180830381865afa158015610500573d6000803e3d6000fd5b505050506040513d601f19601f82011682018060405250810190610524919061365f565b1561054a5760405162461bcd60e51b815260040161054190613681565b60405180910390fd5b6002606554141561056d5760405162461bcd60e51b8152600401610541906136ab565b600260655560a054604051632474521560e21b81527f77e60b99a50d27fb027f6912a507d956105b4148adab27a86d235c8bcca8fa2f60048201523360248201526001600160a01b03909116906391d1485490604401602060405180830381865afa1580156105e0573d6000803e3d6000fd5b505050506040513d601f19601f82011682018060405250810190610604919061365f565b6106505760405162461bcd60e51b815260206004820152601c60248201527f43414c4c45525f4e4f545f4c49515549444954595f4d414e41474552000000006044820152606401610541565b60355461068e5760405162461bcd60e51b815260206004820152600c60248201526b4e4f5f4c495155494449545960a01b6044820152606401610541565b609d544314156106e05760405162461bcd60e51b815260206004820152601b60248201527f43414e545f43414c4c5f4f4e5f5448455f53414d455f424c4f434b00000000006044820152606401610541565b609854871080156106f357506097548714155b61070f5760405162461bcd60e51b8152600401610541906136e2565b600060986097548154811061072657610726613707565b6000918252602080832060408051608081018252600490940290910180546001600160a01b039081168552600182015481169385019390935260028101548316918401919091526003015416606082015260988054919350908a90811061078f5761078f613707565b6000918252602080832060408051608081018252600494850290920180546001600160a01b039081168452600182015481168486015260028201548116848401526003909101548116606084015292870151875191516328dee51f60e11b8152929650909216926351bdca3e926108089230920161353d565b606060405180830381865afa158015610825573d6000803e3d6000fd5b505050506040513d601f19601f82011682018060405250810190610849919061371d565b505060208401518451604051630f62d51f60e11b81529293506001600160a01b0390911691631ec5aa3e9161088b91859060009081908190309060040161374b565b60408051808303816000875af11580156108a9573d6000803e3d6000fd5b505050506040513d601f19601f820116820180604052508101906108cd9190613785565b505060408084015190516370a0823160e01b81523060048201526000916001600160a01b0316906370a0823190602401602060405180830381865afa15801561091a573d6000803e3d6000fd5b505050506040513d601f19601f8201168201806040525081019061093e91906137a9565b60608501516040516370a0823160e01b81523060048201529192506000916001600160a01b03909116906370a0823190602401602060405180830381865afa15801561098e573d6000803e3d6000fd5b505050506040513d601f19601f820116820180604052508101906109b291906137a9565b905083604001516001600160a01b031685604001516001600160a01b031614610c195760008060008060008f8f60049080926109f0939291906137c2565b8101906109fd91906139c4565b955095509550509450945084516001148015610a1a575083516001145b610a665760405162461bcd60e51b815260206004820152601860248201527f4241445f535741505f415f544f4b454e535f4c454e47544800000000000000006044820152606401610541565b89604001516001600160a01b031685600081518110610a8757610a87613707565b6020026020010151600001516001600160a01b031614610ae25760405162461bcd60e51b81526020600482015260166024820152752120a22fa9aba0a82fa0afa4a7282aaa2faa27a5a2a760511b6044820152606401610541565b88604001516001600160a01b031684600081518110610b0357610b03613707565b6020026020010151600001516001600160a01b031614610b655760405162461bcd60e51b815260206004820152601760248201527f4241445f535741505f415f4f55545055545f544f4b454e0000000000000000006044820152606401610541565b8685600081518110610b7957610b79613707565b60209081029190910181015101526040516378bd22a360e11b815273a32ee1c40594249eb3183c10792bcf573d4da47c9063f17a454690610bca908890889060001990899089908990600401613bcb565b6000604051808303816000875af1158015610be9573d6000803e3d6000fd5b505050506040513d6000823e601f3d908101601f19168201604052610c119190810190613cb2565b505050505050505b83606001516001600160a01b031685606001516001600160a01b031614610e7e5760008060008060008d8d6004908092610c55939291906137c2565b810190610c6291906139c4565b955095509550509450945084516001148015610c7f575083516001145b610ccb5760405162461bcd60e51b815260206004820152601860248201527f4241445f535741505f425f544f4b454e535f4c454e47544800000000000000006044820152606401610541565b89606001516001600160a01b031685600081518110610cec57610cec613707565b6020026020010151600001516001600160a01b031614610d475760405162461bcd60e51b81526020600482015260166024820152752120a22fa9aba0a82fa12fa4a7282aaa2faa27a5a2a760511b6044820152606401610541565b88606001516001600160a01b031684600081518110610d6857610d68613707565b6020026020010151600001516001600160a01b031614610dca5760405162461bcd60e51b815260206004820152601760248201527f4241445f535741505f425f4f55545055545f544f4b454e0000000000000000006044820152606401610541565b8585600081518110610dde57610dde613707565b60209081029190910181015101526040516378bd22a360e11b815273a32ee1c40594249eb3183c10792bcf573d4da47c9063f17a454690610e2f908890889060001990899089908990600401613bcb565b6000604051808303816000875af1158015610e4e573d6000803e3d6000fd5b505050506040513d6000823e601f3d908101601f19168201604052610e769190810190613cb2565b505050505050505b6020840151845160408087015190516370a0823160e01b81523060048201526001600160a01b039384169363f441f73c939216906370a0823190602401602060405180830381865afa158015610ed8573d6000803e3d6000fd5b505050506040513d601f19601f82011682018060405250810190610efc91906137a9565b60608801516040516370a0823160e01b81523060048201526001600160a01b03909116906370a0823190602401602060405180830381865afa158015610f46573d6000803e3d6000fd5b505050506040513d601f19601f82011682018060405250810190610f6a91906137a9565b8b8b6000306040518863ffffffff1660e01b8152600401610f919796959493929190613d4a565b6060604051808303816000875af1158015610fb0573d6000803e3d6000fd5b505050506040513d601f19601f82011682018060405250810190610fd4919061371d565b60995550506040805160808101808352918601516370a0823160e01b9092523060848201529081906001600160a01b03166370a0823160a48301602060405180830381865afa15801561102b573d6000803e3d6000fd5b505050506040513d601f19601f8201168201806040525081019061104f91906137a9565b815260608601516040516370a0823160e01b81523060048201526020909201916001600160a01b03909116906370a0823190602401602060405180830381865afa1580156110a1573d6000803e3d6000fd5b505050506040513d601f19601f820116820180604052508101906110c591906137a9565b81526020016110d360355490565b8152436020918201528151609a55810151609b55604080820151609c55606090910151609d5560975490518d91907faf62d6e59ad2e54c778a490827e6cb28b1d30794092c7367fdbb261b11de033690600090a350505060979890985550506001606555505050505050565b600080600080600060986097548154811061115c5761115c613707565b6000918252602080832060408051608081018252600494850290920180546001600160a01b0390811680855260018301548216958501869052600283015482168585015260039092015416606084015290516328dee51f60e11b815291955084936351bdca3e926111d192309290910161353d565b606060405180830381865afa1580156111ee573d6000803e3d6000fd5b505050506040513d601f19601f82011682018060405250810190611212919061371d565b92509250506000611238896001600160a01b031660009081526033602052604090205490565b9050801561134d57600061124b60355490565b9050806112588584613d87565b6112629190613da6565b98508061126f8484613d87565b6112799190613da6565b336000908152609f60209081526040808320609d54845290915290205490985060ff161580156112aa5750609c5415155b1561134b57609c54609a546001600160a01b038c166000908152609e60209081526040808320609d5484529091529020546112e59085613dc8565b6112ef9190613d87565b6112f99190613da6565b609c54609b546001600160a01b038d166000908152609e60209081526040808320609d54845290915290205492995090916113349085613dc8565b61133e9190613d87565b6113489190613da6565b95505b505b505050509193509193565b600061136460016125e4565b9050801561137c576000805461ff0019166101001790555b6002831080159061138e575060328311155b6113cb5760405162461bcd60e51b815260206004820152600e60248201526d10905117d413d3d317d0d3d5539560921b6044820152606401610541565b61141b6040518060400160405280601081526020016f554e4f2d4175746f537472617465677960801b815250604051806040016040528060068152602001650554e4f2d4c560d41b815250612671565b6114236126a6565b60005b8381101561198d5760008086868481811061144357611443613707565b905060400201602001602081019061145b9190613446565b6001600160a01b031663450efe2188888681811061147b5761147b613707565b6114919260206040909202019081019150613446565b6040516001600160e01b031960e084901b1681526001600160a01b0390911660048201526024016040805180830381865afa1580156114d4573d6000803e3d6000fd5b505050506040513d601f19601f820116820180604052508101906114f89190613ddf565b915091506000604051806080016040528089898781811061151b5761151b613707565b6115319260206040909202019081019150613446565b6001600160a01b0316815260200189898781811061155157611551613707565b90506040020160200160208101906115699190613446565b6001600160a01b03908116825285811660208084019190915285821660409384015260988054600181018255600091909152845160049182027f2237a976fa961f5921fd19f2b03c925c725d77b20ce8f790c19709c03de4d814810180549286166001600160a01b0319938416179055928601517f2237a976fa961f5921fd19f2b03c925c725d77b20ce8f790c19709c03de4d81584018054828716908416179055868601517f2237a976fa961f5921fd19f2b03c925c725d77b20ce8f790c19709c03de4d816850180549187169184168217905560608801517f2237a976fa961f5921fd19f2b03c925c725d77b20ce8f790c19709c03de4d81790950180549590961694909216939093179093559251636eb1769f60e11b8152939450909263dd62ed3e9261169d92309290910161353d565b602060405180830381865afa1580156116ba573d6000803e3d6000fd5b505050506040513d601f19601f820116820180604052508101906116de91906137a9565b6117ef57604080820151905163095ea7b360e01b815273a32ee1c40594249eb3183c10792bcf573d4da47c600482015260001960248201526001600160a01b039091169063095ea7b3906044016020604051808303816000875af115801561174a573d6000803e3d6000fd5b505050506040513d601f19601f8201168201806040525081019061176e919061365f565b506040808201516020830151915163095ea7b360e01b81526001600160a01b039283166004820152600019602482015291169063095ea7b3906044016020604051808303816000875af11580156117c9573d6000803e3d6000fd5b505050506040513d601f19601f820116820180604052508101906117ed919061365f565b505b80606001516001600160a01b031663dd62ed3e3083602001516040518363ffffffff1660e01b815260040161182592919061353d565b602060405180830381865afa158015611842573d6000803e3d6000fd5b505050506040513d601f19601f8201168201806040525081019061186691906137a9565b61197757606081015160405163095ea7b360e01b815273a32ee1c40594249eb3183c10792bcf573d4da47c600482015260001960248201526001600160a01b039091169063095ea7b3906044016020604051808303816000875af11580156118d2573d6000803e3d6000fd5b505050506040513d601f19601f820116820180604052508101906118f6919061365f565b506060810151602082015160405163095ea7b360e01b81526001600160a01b039182166004820152600019602482015291169063095ea7b3906044016020604051808303816000875af1158015611951573d6000803e3d6000fd5b505050506040513d601f19601f82011682018060405250810190611975919061365f565b505b505050808061198590613e0e565b915050611426565b5060a080546001600160a01b0384166001600160a01b03199182161790915543609d5560a18054909116331790558015611a01576000805461ff0019169055604051600181527f7f26b83ff96e1f2b6a682f133852f6798a09c465da95921460cefb38474024989060200160405180910390a15b50505050565b6000806000609860975481548110611a2157611a21613707565b600091825260209182902060408051608081018252600493840290920180546001600160a01b0390811680855260018301548216968501879052600283015482168585015260039092015416606084015290516328dee51f60e11b81529194506351bdca3e92611a94923092910161353d565b606060405180830381865afa158015611ab1573d6000803e3d6000fd5b505050506040513d601f19601f82011682018060405250810190611ad5919061371d565b60408481015190516370a0823160e01b81523060048201529296509094506001600160a01b031691506370a0823190602401602060405180830381865afa158015611b24573d6000803e3d6000fd5b505050506040513d601f19601f82011682018060405250810190611b4891906137a9565b611b529084613647565b60608201516040516370a0823160e01b81523060048201529194506001600160a01b0316906370a0823190602401602060405180830381865afa158015611b9d573d6000803e3d6000fd5b505050506040513d601f19601f82011682018060405250810190611bc191906137a9565b611bcb9083613647565b9150509091565b600080600060a160009054906101000a90046001600160a01b03166001600160a01b0316635c975abb6040518163ffffffff1660e01b8152600401602060405180830381865afa158015611c2a573d6000803e3d6000fd5b505050506040513d601f19601f82011682018060405250810190611c4e919061365f565b15611c6b5760405162461bcd60e51b815260040161054190613681565b60026065541415611c8e5760405162461bcd60e51b8152600401610541906136ab565b60026065556097548914611cb45760405162461bcd60e51b8152600401610541906136e2565b6000609860975481548110611ccb57611ccb613707565b600091825260209182902060408051608081018252600490930290910180546001600160a01b0390811684526001820154811694840194909452600281015484169183018290526003015490921660608201529150611d2c9033308c6126d7565b6060810151611d46906001600160a01b031633308b6126d7565b60208101518151604051633d107dcf60e21b81526001600160a01b039092169163f441f73c91611d85918d908d908d908d906000903090600401613d4a565b6060604051808303816000875af1158015611da4573d6000803e3d6000fd5b505050506040513d601f19601f82011682018060405250810190611dc8919061371d565b509094509250611dd785612742565b9150611dfc33611de7868c613dc8565b60408401516001600160a01b031691906128d5565b611e1f33611e0a858b613dc8565b60608401516001600160a01b031691906128d5565b60975460408051868152602081018690526001600160a01b03881692339290917feb65d0f36862bbd8763c5e2c983c9d753267d223eee35a224d8d0a9d7ef433a2910160405180910390a450600160658190555096509650969350505050565b6060603780546103ca906135f6565b6000806000609860975481548110611ea857611ea8613707565b600091825260209182902060408051608081018252600490930290910180546001600160a01b0390811684526001820154811694840194909452600281015484169183018290526003015490921660609091018190529094909350915050565b60003381611f168286612248565b905083811015611f765760405162461bcd60e51b815260206004820152602560248201527f45524332303a2064656372656173656420616c6c6f77616e63652062656c6f77604482015264207a65726f60d81b6064820152608401610541565b611f838286868403612273565b506001949350505050565b60003361045b81858561240b565b60988181548110611fac57600080fd5b600091825260209091206004909102018054600182015460028301546003909301546001600160a01b039283169450908216928216911684565b60008060a160009054906101000a90046001600160a01b03166001600160a01b0316635c975abb6040518163ffffffff1660e01b8152600401602060405180830381865afa15801561203c573d6000803e3d6000fd5b505050506040513d601f19601f82011682018060405250810190612060919061365f565b1561207d5760405162461bcd60e51b815260040161054190613681565b600260655414156120a05760405162461bcd60e51b8152600401610541906136ab565b600260655560975487146120c65760405162461bcd60e51b8152600401610541906136e2565b60006098609754815481106120dd576120dd613707565b6000918252602080832060408051608081018252600490940290910180546001600160a01b039081168552600182015481169385019390935260028101548316918401919091526003015416606082015291508061213a8661290a565b9150915060006121498a612aa9565b60208501518551604051630f62d51f60e11b81529293506001600160a01b0390911691631ec5aa3e916121899185908e908e906000908f9060040161374b565b60408051808303816000875af11580156121a7573d6000803e3d6000fd5b505050506040513d601f19601f820116820180604052508101906121cb9190613785565b90965094506121da8387613647565b95506121e68286613647565b60975460408051898152602081018490529297506001600160a01b038a16923392917ffe7813e2866053d5c3938554e517b554fce6666a6561bed9eaa7419b29fa9b68910160405180910390a450506001606555509197909650945050505050565b6001600160a01b03918216600090815260346020908152604080832093909416825291909152205490565b6001600160a01b0383166122d55760405162461bcd60e51b8152602060048201526024808201527f45524332303a20617070726f76652066726f6d20746865207a65726f206164646044820152637265737360e01b6064820152608401610541565b6001600160a01b0382166123365760405162461bcd60e51b815260206004820152602260248201527f45524332303a20617070726f766520746f20746865207a65726f206164647265604482015261737360f01b6064820152608401610541565b6001600160a01b0383811660008181526034602090815260408083209487168084529482529182902085905590518481527f8c5be1e5ebec7d5bd14f71427d1e84f3dd0314c0f7b2291e5b200ac8c7c3b925910160405180910390a3505050565b60006123a38484612248565b90506000198114611a0157818110156123fe5760405162461bcd60e51b815260206004820152601d60248201527f45524332303a20696e73756666696369656e7420616c6c6f77616e63650000006044820152606401610541565b611a018484848403612273565b6001600160a01b03831661246f5760405162461bcd60e51b815260206004820152602560248201527f45524332303a207472616e736665722066726f6d20746865207a65726f206164604482015264647265737360d81b6064820152608401610541565b6001600160a01b0382166124d15760405162461bcd60e51b815260206004820152602360248201527f45524332303a207472616e7366657220746f20746865207a65726f206164647260448201526265737360e81b6064820152608401610541565b6124dc838383612c07565b6001600160a01b038316600090815260336020526040902054818110156125545760405162461bcd60e51b815260206004820152602660248201527f45524332303a207472616e7366657220616d6f756e7420657863656564732062604482015265616c616e636560d01b6064820152608401610541565b6001600160a01b0380851660009081526033602052604080822085850390559185168152908120805484929061258b908490613647565b92505081905550826001600160a01b0316846001600160a01b03167fddf252ad1be2c89b69c2b068fc378daa952ba7f163c4a11628f55a4df523b3ef846040516125d791815260200190565b60405180910390a3611a01565b60008054610100900460ff161561262b578160ff1660011480156126075750303b155b6126235760405162461bcd60e51b815260040161054190613e29565b506000919050565b60005460ff8084169116106126525760405162461bcd60e51b815260040161054190613e29565b506000805460ff191660ff92909216919091179055600190565b919050565b600054610100900460ff166126985760405162461bcd60e51b815260040161054190613e77565b6126a28282612cd9565b5050565b600054610100900460ff166126cd5760405162461bcd60e51b815260040161054190613e77565b6126d5612d27565b565b6040516001600160a01b0380851660248301528316604482015260648101829052611a019085906323b872dd60e01b906084015b60408051601f198184030181529190526020810180516001600160e01b03166001600160e01b031990931692909217909152612d55565b60008060986097548154811061275a5761275a613707565b6000918252602080832060408051608081018252600494850290920180546001600160a01b0390811680855260018301548216958501869052600283015482168585015260039092015416606084015290516328dee51f60e11b815291955091926351bdca3e926127cd9230920161353d565b606060405180830381865afa1580156127ea573d6000803e3d6000fd5b505050506040513d601f19601f8201168201806040525081019061280e919061371d565b505090506000609954826128229190613dc8565b9050600061282f60355490565b905080612856576128426103e883613dc8565b945061285160016103e8612e27565b612870565b6099546128638284613d87565b61286d9190613da6565b94505b600085116128c05760405162461bcd60e51b815260206004820152601d60248201527f494e53554646494349454e545f4c49515549444954595f4d494e5445440000006044820152606401610541565b6128ca8686612e27565b505060995550919050565b6040516001600160a01b03831660248201526044810182905261290590849063a9059cbb60e01b9060640161270b565b505050565b336000908152609f60209081526040808320609d548452909152812054819060ff16612aa457609c5415612a7c57600060986097548154811061294f5761294f613707565b600091825260208083206040805160808101825260049490940290910180546001600160a01b03908116855260018201548116858501526002820154811685840152600390910154166060840152609c54609a5433808752609e8552838720609d54885285528387205490875260339094529190942054929450916129d49190613dc8565b6129de9190613d87565b6129e89190613da6565b609c54609b54336000818152609e60209081526040808320609d548452825280832054938352603390915290205493965091929091612a2691613dc8565b612a309190613d87565b612a3a9190613da6565b91508215612a5b576040810151612a5b906001600160a01b031685856128d5565b8115612a7a576060810151612a7a906001600160a01b031685846128d5565b505b336000908152609f60209081526040808320609d5484529091529020805460ff191660011790555b915091565b600080609860975481548110612ac157612ac1613707565b6000918252602080832060408051608081018252600494850290920180546001600160a01b0390811680855260018301548216958501869052600283015482168585015260039092015416606084015290516328dee51f60e11b815291955091926351bdca3e92612b349230920161353d565b606060405180830381865afa158015612b51573d6000803e3d6000fd5b505050506040513d601f19601f82011682018060405250810190612b75919061371d565b50509050612b8260355490565b612b8c8286613d87565b612b969190613da6565b925060008311612be85760405162461bcd60e51b815260206004820152601d60248201527f494e53554646494349454e545f4c49515549444954595f4255524e45440000006044820152606401610541565b612bf23385612f12565b612bfc8382613dc8565b609955509092915050565b6001600160a01b0383166000908152609e60209081526040808320609d548452909152902054811115612c5f576001600160a01b0383166000908152609e60209081526040808320609d548452909152812055612c9a565b6001600160a01b0383166000908152609e60209081526040808320609d54845290915281208054839290612c94908490613dc8565b90915550505b6001600160a01b0382166000908152609e60209081526040808320609d54845290915281208054839290612ccf908490613647565b9091555050505050565b600054610100900460ff16612d005760405162461bcd60e51b815260040161054190613e77565b8151612d139060369060208501906131ed565b5080516129059060379060208401906131ed565b600054610100900460ff16612d4e5760405162461bcd60e51b815260040161054190613e77565b6001606555565b6000612daa826040518060400160405280602081526020017f5361666545524332303a206c6f772d6c6576656c2063616c6c206661696c6564815250856001600160a01b031661306c9092919063ffffffff16565b8051909150156129055780806020019051810190612dc8919061365f565b6129055760405162461bcd60e51b815260206004820152602a60248201527f5361666545524332303a204552433230206f7065726174696f6e20646964206e6044820152691bdd081cdd58d8d9595960b21b6064820152608401610541565b6001600160a01b038216612e7d5760405162461bcd60e51b815260206004820152601f60248201527f45524332303a206d696e7420746f20746865207a65726f2061646472657373006044820152606401610541565b612e8960008383612c07565b8060356000828254612e9b9190613647565b90915550506001600160a01b03821660009081526033602052604081208054839290612ec8908490613647565b90915550506040518181526001600160a01b038316906000907fddf252ad1be2c89b69c2b068fc378daa952ba7f163c4a11628f55a4df523b3ef9060200160405180910390a35050565b6001600160a01b038216612f725760405162461bcd60e51b815260206004820152602160248201527f45524332303a206275726e2066726f6d20746865207a65726f206164647265736044820152607360f81b6064820152608401610541565b612f7e82600083612c07565b6001600160a01b03821660009081526033602052604090205481811015612ff25760405162461bcd60e51b815260206004820152602260248201527f45524332303a206275726e20616d6f756e7420657863656564732062616c616e604482015261636560f01b6064820152608401610541565b6001600160a01b0383166000908152603360205260408120838303905560358054849290613021908490613dc8565b90915550506040518281526000906001600160a01b038516907fddf252ad1be2c89b69c2b068fc378daa952ba7f163c4a11628f55a4df523b3ef9060200160405180910390a3505050565b606061307b8484600085613083565b949350505050565b6060824710156130e45760405162461bcd60e51b815260206004820152602660248201527f416464726573733a20696e73756666696369656e742062616c616e636520666f6044820152651c8818d85b1b60d21b6064820152608401610541565b6001600160a01b0385163b61313b5760405162461bcd60e51b815260206004820152601d60248201527f416464726573733a2063616c6c20746f206e6f6e2d636f6e74726163740000006044820152606401610541565b600080866001600160a01b031685876040516131579190613ec2565b60006040518083038185875af1925050503d8060008114613194576040519150601f19603f3d011682016040523d82523d6000602084013e613199565b606091505b50915091506131a98282866131b4565b979650505050505050565b606083156131c3575081610484565b8251156131d35782518084602001fd5b8160405162461bcd60e51b815260040161054191906132de565b8280546131f9906135f6565b90600052602060002090601f01602090048101928261321b5760008555613261565b82601f1061323457805160ff1916838001178555613261565b82800160010185558215613261579182015b82811115613261578251825591602001919060010190613246565b5061326d929150613271565b5090565b5b8082111561326d5760008155600101613272565b60005b838110156132a1578181015183820152602001613289565b83811115611a015750506000910152565b600081518084526132ca816020860160208601613286565b601f01601f19169290920160200192915050565b60208152600061048460208301846132b2565b6001600160a01b038116811461330657600080fd5b50565b6000806040838503121561331c57600080fd5b8235613327816132f1565b946020939093013593505050565b60008060006060848603121561334a57600080fd5b8335613355816132f1565b92506020840135613365816132f1565b929592945050506040919091013590565b60008083601f84011261338857600080fd5b5081356001600160401b0381111561339f57600080fd5b6020830191508360208285010111156133b757600080fd5b9250929050565b600080600080600080600060a0888a0312156133d957600080fd5b8735965060208801356001600160401b03808211156133f757600080fd5b6134038b838c01613376565b909850965060408a013591508082111561341c57600080fd5b506134298a828b01613376565b989b979a5095989597966060870135966080013595509350505050565b60006020828403121561345857600080fd5b8135610484816132f1565b60008060006040848603121561347857600080fd5b83356001600160401b038082111561348f57600080fd5b818601915086601f8301126134a357600080fd5b8135818111156134b257600080fd5b8760208260061b85010111156134c757600080fd5b602092830195509350508401356134dd816132f1565b809150509250925092565b60008060008060008060c0878903121561350157600080fd5b863595506020870135945060408701359350606087013592506080870135915060a087013561352f816132f1565b809150509295509295509295565b6001600160a01b0392831681529116602082015260400190565b60006020828403121561356957600080fd5b5035919050565b600080600080600060a0868803121561358857600080fd5b8535945060208601359350604086013592506060860135915060808601356135af816132f1565b809150509295509295909350565b600080604083850312156135d057600080fd5b82356135db816132f1565b915060208301356135eb816132f1565b809150509250929050565b600181811c9082168061360a57607f821691505b6020821081141561362b57634e487b7160e01b600052602260045260246000fd5b50919050565b634e487b7160e01b600052601160045260246000fd5b6000821982111561365a5761365a613631565b500190565b60006020828403121561367157600080fd5b8151801515811461048457600080fd5b60208082526010908201526f14105554d05093114e8814105554d15160821b604082015260600190565b6020808252601f908201527f5265656e7472616e637947756172643a207265656e7472616e742063616c6c00604082015260600190565b6020808252600b908201526a10905117d413d3d317d25160aa1b604082015260600190565b634e487b7160e01b600052603260045260246000fd5b60008060006060848603121561373257600080fd5b8351925060208401519150604084015190509250925092565b6001600160a01b0396871681526020810195909552604085019390935260608401919091521515608083015290911660a082015260c00190565b6000806040838503121561379857600080fd5b505080516020909101519092909150565b6000602082840312156137bb57600080fd5b5051919050565b600080858511156137d257600080fd5b838611156137df57600080fd5b5050820193919092039150565b634e487b7160e01b600052604160045260246000fd5b604051606081016001600160401b0381118282101715613824576138246137ec565b60405290565b604051608081016001600160401b0381118282101715613824576138246137ec565b604051601f8201601f191681016001600160401b0381118282101715613874576138746137ec565b604052919050565b60006001600160401b03821115613895576138956137ec565b5060051b60200190565b600082601f8301126138b057600080fd5b81356001600160401b038111156138c9576138c96137ec565b6138dc601f8201601f191660200161384c565b8181528460208386010111156138f157600080fd5b816020850160208301376000918101602001919091529392505050565b600082601f83011261391f57600080fd5b8135602061393461392f8361387c565b61384c565b8281526060928302850182019282820191908785111561395357600080fd5b8387015b858110156139ac5781818a03121561396f5760008081fd5b613977613802565b8135613982816132f1565b8152818601358682015260408083013561399b816132f1565b908201528452928401928101613957565b5090979650505050505050565b803561266c816132f1565b60008060008060008060c087890312156139dd57600080fd5b6001600160401b03873511156139f257600080fd5b8635870188601f820112613a0557600080fd5b613a1261392f823561387c565b81358082526020808301929160051b8401018b1015613a3057600080fd5b602083015b6020843560051b850101811015613aef576001600160401b0381351115613a5b57600080fd5b803584016080818e03601f19011215613a7357600080fd5b613a7b61382a565b613a8860208301356132f1565b6020820135815260408201356020820152613aa660608301356132f1565b606082013560408201526001600160401b0360808301351115613ac857600080fd5b613adb8e6020608085013585010161389f565b606082015284525060209283019201613a35565b50975050506001600160401b0360208801351115613b0c57600080fd5b613b1c886020890135890161390e565b94506040870135935060608701359250613b38608088016139b9565b91506001600160401b0360a08801351115613b5257600080fd5b613b628860a0890135890161389f565b90509295509295509295565b600081518084526020808501945080840160005b83811015613bc057815180516001600160a01b03908116895284820151858a0152604091820151169088015260609096019590820190600101613b82565b509495945050505050565b600060c0820160c0835280895180835260e08501915060e08160051b86010192506020808c0160005b83811015613c5a5787860360df19018552815180516001600160a01b039081168852848201518589015260408083015190911690880152606090810151608091880182905290613c46818901836132b2565b975050509382019390820190600101613bf4565b505085840381870152505050613c708189613b6e565b9050866040840152856060840152613c9360808401866001600160a01b03169052565b82810360a0840152613ca581856132b2565b9998505050505050505050565b60008060408385031215613cc557600080fd5b82516001600160401b03811115613cdb57600080fd5b8301601f81018513613cec57600080fd5b80516020613cfc61392f8361387c565b82815260059290921b83018101918181019088841115613d1b57600080fd5b938201935b83851015613d3957845182529382019390820190613d20565b969091015195979596505050505050565b6001600160a01b039788168152602081019690965260408601949094526060850192909252608084015260a083015290911660c082015260e00190565b6000816000190483118215151615613da157613da1613631565b500290565b600082613dc357634e487b7160e01b600052601260045260246000fd5b500490565b600082821015613dda57613dda613631565b500390565b60008060408385031215613df257600080fd5b8251613dfd816132f1565b60208401519092506135eb816132f1565b6000600019821415613e2257613e22613631565b5060010190565b6020808252602e908201527f496e697469616c697a61626c653a20636f6e747261637420697320616c72656160408201526d191e481a5b9a5d1a585b1a5e995960921b606082015260800190565b6020808252602b908201527f496e697469616c697a61626c653a20636f6e7472616374206973206e6f74206960408201526a6e697469616c697a696e6760a81b606082015260800190565b60008251613ed4818460208701613286565b919091019291505056fea26469706673582212206c531c5d27d1212a23c05572cb441292c6585075341d82f5ba842e73c53392e664736f6c634300080a0033",
  "immutableReferences": {},
  "source": "// SPDX-License-Identifier: MIT\r\npragma solidity 0.8.10;\r\nimport \"../interfaces/IOdosRouter.sol\";   \r\nimport \"../interfaces/IUnoAssetRouter.sol\";   \r\nimport \"../interfaces/IUnoAutoStrategyFactory.sol\";  \r\nimport '@openzeppelin/contracts-upgradeable/security/ReentrancyGuardUpgradeable.sol';\r\nimport '@openzeppelin/contracts-upgradeable/token/ERC20/ERC20Upgradeable.sol';\r\nimport '@openzeppelin/contracts-upgradeable/token/ERC20/utils/SafeERC20Upgradeable.sol';\r\n\r\ncontract UnoAutoStrategyV2 is Initializable, ERC20Upgradeable, ReentrancyGuardUpgradeable {\r\n    using SafeERC20Upgradeable for IERC20Upgradeable;\r\n    /**\r\n     * @dev PoolInfo:\r\n     * {assetRouter} - UnoAssetRouter contract.\r\n     * {pool} - Pool address. \r\n     * {tokenA} - Pool's first token address.\r\n     * {tokenB} - Pool's second token address.\r\n     */\r\n    struct _PoolInfo {\r\n        address pool;\r\n        IUnoAssetRouter assetRouter;\r\n    }\r\n\r\n    struct PoolInfo {\r\n        address pool;\r\n        IUnoAssetRouter assetRouter;\r\n        IERC20Upgradeable tokenA;\r\n        IERC20Upgradeable tokenB;\r\n    }\r\n\r\n    /**\r\n     * @dev MoveLiquidityInfo:\r\n     * {leftoverA} - TokenA leftovers after MoveLiquidity() call.\r\n     * {leftoverB} - TokenB leftovers after MoveLiquidity() call. \r\n     * {totalSupply} - totalSupply after MoveLiquidity() call.\r\n     * {block} - MoveLiquidity() call block.\r\n     */\r\n    struct MoveLiquidityInfo {\r\n        uint256 leftoverA;\r\n        uint256 leftoverB;\r\n        uint256 totalSupply;\r\n        uint256 block;\r\n    }\r\n    \r\n    /**\r\n     * @dev Contract Variables:\r\n     * {OdosRouter} - Contract that executes swaps.\r\n\r\n     * {poolID} - Current pool the strategy uses ({pools} index).\r\n     * {pools} - Pools this strategy can use and move liquidity to.\r\n\r\n     * {reserveLP} - LP token reserve.\r\n     * {lastMoveInfo} - Info on last MoveLiquidity() block.\r\n     * {blockedLiquidty} - User's blocked LP tokens. Prevents user from stealing leftover tokens by depositing and exiting before moveLiquidity() has been called.\r\n     * {leftoversCollected} - Flag that prevents leftover token collection if they were already collected this MoveLiquidity() cycle.\r\n\r\n     * {accessManager} - Role manager contract.\r\n     * {factory} - The address of AutoStrategyFactory this contract was deployed by.\r\n\r\n     * {MINIMUM_LIQUIDITY} - Ameliorates rounding errors.\r\n     */\r\n\r\n    IOdosRouter private constant OdosRouter = IOdosRouter(0xa32EE1C40594249eb3183c10792BcF573D4Da47C);\r\n\r\n    uint256 public poolID;\r\n    PoolInfo[] public pools;\r\n\r\n    uint256 private reserveLP;\r\n    MoveLiquidityInfo private lastMoveInfo;\r\n    mapping(address => mapping(uint256 => uint256)) private blockedLiquidty;\r\n    mapping(address => mapping(uint256 => bool)) private leftoversCollected;\r\n\r\n    IUnoAccessManager public accessManager;\r\n    IUnoAutoStrategyFactory public factory;\r\n\r\n    uint256 private constant MINIMUM_LIQUIDITY = 10**3;\r\n    bytes32 private constant LIQUIDITY_MANAGER_ROLE = keccak256('LIQUIDITY_MANAGER_ROLE');\r\n\r\n    uint256 public constant version = 2;\r\n\r\n    event Deposit(uint256 indexed poolID, address indexed from, address indexed recipient, uint256 amountA, uint256 amountB);\r\n    event Withdraw(uint256 indexed poolID, address indexed from, address indexed recipient, uint256 amountA, uint256 amountB);\r\n    event MoveLiquidity(uint256 indexed previousPoolID, uint256 indexed nextPoolID);\r\n\r\n    modifier whenNotPaused(){\r\n        require(factory.paused() == false, 'PAUSABLE: PAUSED');\r\n        _;\r\n    }\r\n\r\n    // ============ Methods ============\r\n\r\n    function initialize(_PoolInfo[] calldata poolInfos, IUnoAccessManager _accessManager) external initializer {\r\n        require ((poolInfos.length >= 2) && (poolInfos.length <= 50), 'BAD_POOL_COUNT');\r\n\r\n        __ERC20_init(\"UNO-AutoStrategy\", \"UNO-LP\");\r\n        __ReentrancyGuard_init();\r\n        \r\n        for (uint256 i = 0; i < poolInfos.length; i++) {\r\n            (address _tokenA, address _tokenB) = poolInfos[i].assetRouter.getTokens(poolInfos[i].pool);\r\n            PoolInfo memory pool = PoolInfo({\r\n                pool: poolInfos[i].pool,\r\n                assetRouter: poolInfos[i].assetRouter,\r\n                tokenA: IERC20Upgradeable(_tokenA),\r\n                tokenB: IERC20Upgradeable(_tokenB)\r\n            });\r\n            pools.push(pool);\r\n\r\n            if (pool.tokenA.allowance(address(this), address(pool.assetRouter)) == 0) {\r\n                pool.tokenA.approve(address(OdosRouter), type(uint256).max);\r\n                pool.tokenA.approve(address(pool.assetRouter), type(uint256).max);\r\n            }\r\n            if (pool.tokenB.allowance(address(this), address(pool.assetRouter)) == 0) {\r\n                pool.tokenB.approve(address(OdosRouter), type(uint256).max);\r\n                pool.tokenB.approve(address(pool.assetRouter), type(uint256).max);\r\n            }\r\n        }\r\n\r\n        accessManager = _accessManager;\r\n        lastMoveInfo.block = block.number;\r\n        factory = IUnoAutoStrategyFactory(msg.sender);\r\n    }\r\n\r\n    /**\r\n     * @dev Deposits tokens in the pools[poolID] pool. Mints tokens representing user share. Emits {Deposit} event.\r\n     * @param pid - Current poolID. Throws revert if moveLiquidity() has been called before the transaction has been mined.\r\n     * @param amountA - Token A amount to deposit.\r\n     * @param amountB  - Token B amount to deposit.\r\n     * @param amountAMin - Bounds the extent to which the B/A price can go up before the transaction reverts.\r\n     * @param amountBMin - Bounds the extent to which the A/B price can go up before the transaction reverts.\r\n     * @param recipient - Address which will receive the deposit.\r\n     \r\n     * @return sentA - Deposited token A amount.\r\n     * @return sentB - Deposited token B amount.\r\n     * @return liquidity - Total liquidity minted for the {recipient}.\r\n     */\r\n    function deposit(uint256 pid, uint256 amountA, uint256 amountB, uint256 amountAMin, uint256 amountBMin, address recipient) whenNotPaused nonReentrant external returns (uint256 sentA, uint256 sentB, uint256 liquidity) {\r\n        require (pid == poolID, 'BAD_POOL_ID');\r\n        PoolInfo memory pool = pools[poolID];\r\n\r\n        pool.tokenA.safeTransferFrom(msg.sender, address(this), amountA);\r\n        pool.tokenB.safeTransferFrom(msg.sender, address(this), amountB);\r\n\r\n        (sentA, sentB,) = pool.assetRouter.deposit(pool.pool, amountA, amountB, amountAMin, amountBMin, 0, address(this));\r\n        liquidity = mint(recipient);\r\n\r\n        pool.tokenA.safeTransfer(msg.sender, amountA - sentA);\r\n        pool.tokenB.safeTransfer(msg.sender, amountB - sentB);\r\n\r\n        emit Deposit(poolID, msg.sender, recipient, sentA, sentB); \r\n    }\r\n\r\n    /**\r\n     * @dev Withdraws tokens from the {pools[poolID]} pool and sends them to the recipient. Burns tokens representing user share. Emits {Withdraw} event.\r\n     * @param pid - Current poolID. Throws revert if moveLiquidity() has been called before the transaction has been mined.\r\n     * @param liquidity - Liquidity to burn from this user.\r\n     * @param amountAMin - The minimum amount of tokenA that must be received from the pool for the transaction not to revert.\r\n     * @param amountBMin - The minimum amount of tokenB that must be received from the pool for the transaction not to revert.\r\n     * @param recipient - Address which will receive withdrawn tokens.\r\n     \r\n     * @return amountA - Token A amount sent to the {recipient}.\r\n     * @return amountB - Token B amount sent to the {recipient}.\r\n     */\r\n    function withdraw(uint256 pid, uint256 liquidity, uint256 amountAMin, uint256 amountBMin, address recipient) whenNotPaused nonReentrant external returns (uint256 amountA, uint256 amountB) {\r\n        require (pid == poolID, 'BAD_POOL_ID');\r\n        PoolInfo memory pool = pools[poolID];\r\n\r\n        (uint256 leftoverA, uint256 leftoverB) = collectLeftovers(recipient);\r\n\r\n        uint256 amountLP = burn(liquidity);\r\n        (amountA, amountB) = pool.assetRouter.withdraw(pool.pool, amountLP, amountAMin, amountBMin, false, recipient);\r\n\r\n        amountA += leftoverA;\r\n        amountB += leftoverB;\r\n\r\n        emit Withdraw(poolID, msg.sender, recipient, amountA, amountB); \r\n    }\r\n\r\n    /**\r\n     * @dev Collects leftover tokens left from moveLiquidity() function.\r\n     * @param recipient - Address which will receive leftover tokens.\r\n     \r\n     * @return leftoverA - Token A amount sent to the {recipient}.\r\n     * @return leftoverB - Token B amount sent to the {recipient}.\r\n     */\r\n    function collectLeftovers(address recipient) internal returns (uint256 leftoverA, uint256 leftoverB){\r\n        if(!leftoversCollected[msg.sender][lastMoveInfo.block]){\r\n            if(lastMoveInfo.totalSupply != 0){\r\n                PoolInfo memory pool = pools[poolID];\r\n                leftoverA = (balanceOf(msg.sender) - blockedLiquidty[msg.sender][lastMoveInfo.block]) * lastMoveInfo.leftoverA / lastMoveInfo.totalSupply;\r\n                leftoverB = (balanceOf(msg.sender) - blockedLiquidty[msg.sender][lastMoveInfo.block]) * lastMoveInfo.leftoverB / lastMoveInfo.totalSupply;\r\n\r\n                if(leftoverA > 0){\r\n                    pool.tokenA.safeTransfer(recipient, leftoverA);\r\n                }\r\n                if(leftoverB > 0){\r\n                    pool.tokenB.safeTransfer(recipient, leftoverB);\r\n                }\r\n            }\r\n\r\n            leftoversCollected[msg.sender][lastMoveInfo.block] = true;\r\n        }\r\n    }\r\n\r\n    /**\r\n     * @dev Moves liquidity from {pools[poolID]} to {pools[_poolID]}. Emits {MoveLiquidity} event.\r\n     * @param _poolID - Pool ID to move liquidity to.\r\n     * @param swapAData - Data for tokenA swap.\r\n     * @param swapBData - Data for tokenB swap.\r\n     * @param amountAMin - The minimum amount of tokenA that must be deposited in {pools[_poolID]} for the transaction not to revert.\r\n     * @param amountBMin - The minimum amount of tokenB that must be deposited in {pools[_poolID]} for the transaction not to revert.\r\n     *\r\n     * Note: This function can only be called by LiquidityManager.\r\n     */\r\n    function moveLiquidity(uint256 _poolID, bytes calldata swapAData, bytes calldata swapBData, uint256 amountAMin, uint256 amountBMin) whenNotPaused nonReentrant external {\r\n        require(accessManager.hasRole(LIQUIDITY_MANAGER_ROLE, msg.sender), 'CALLER_NOT_LIQUIDITY_MANAGER');\r\n        require(totalSupply() != 0, 'NO_LIQUIDITY');\r\n        require(lastMoveInfo.block != block.number, 'CANT_CALL_ON_THE_SAME_BLOCK');\r\n        require((_poolID < pools.length) && (_poolID != poolID), 'BAD_POOL_ID');\r\n\r\n        PoolInfo memory currentPool = pools[poolID];\r\n        PoolInfo memory newPool = pools[_poolID];\r\n\r\n        (uint256 _totalDeposits,,) = currentPool.assetRouter.userStake(address(this), currentPool.pool);\r\n        currentPool.assetRouter.withdraw(currentPool.pool, _totalDeposits, 0, 0, false, address(this));\r\n\r\n        uint256 tokenABalance = currentPool.tokenA.balanceOf(address(this));\r\n        uint256 tokenBBalance = currentPool.tokenB.balanceOf(address(this));\r\n\r\n        if(currentPool.tokenA != newPool.tokenA){\r\n            (\r\n                IOdosRouter.inputToken[] memory inputs, \r\n                IOdosRouter.outputToken[] memory outputs, \r\n                ,\r\n                uint256 valueOutMin,\r\n                address executor,\r\n                bytes memory pathDefinition\r\n            ) = abi.decode(swapAData[4:], (IOdosRouter.inputToken[],IOdosRouter.outputToken[],uint256,uint256,address,bytes));\r\n\r\n            require((inputs.length == 1) && (outputs.length == 1), 'BAD_SWAP_A_TOKENS_LENGTH');\r\n            require(inputs[0].tokenAddress == address(currentPool.tokenA), 'BAD_SWAP_A_INPUT_TOKEN');\r\n            require(outputs[0].tokenAddress == address(newPool.tokenA), 'BAD_SWAP_A_OUTPUT_TOKEN');\r\n\r\n            inputs[0].amountIn = tokenABalance;\r\n            OdosRouter.swap(inputs, outputs, type(uint256).max, valueOutMin, executor, pathDefinition);\r\n        }\r\n\r\n        if(currentPool.tokenB != newPool.tokenB){\r\n            (\r\n                IOdosRouter.inputToken[] memory inputs,\r\n                IOdosRouter.outputToken[] memory outputs,\r\n                ,\r\n                uint256 valueOutMin,\r\n                address executor,\r\n                bytes memory pathDefinition\r\n            ) = abi.decode(swapBData[4:], (IOdosRouter.inputToken[],IOdosRouter.outputToken[],uint256,uint256,address,bytes));\r\n\r\n            require((inputs.length == 1) && (outputs.length == 1), 'BAD_SWAP_B_TOKENS_LENGTH');\r\n            require(inputs[0].tokenAddress == address(currentPool.tokenB), 'BAD_SWAP_B_INPUT_TOKEN');\r\n            require(outputs[0].tokenAddress == address(newPool.tokenB), 'BAD_SWAP_B_OUTPUT_TOKEN');\r\n\r\n            inputs[0].amountIn = tokenBBalance;\r\n            OdosRouter.swap(inputs, outputs, type(uint256).max, valueOutMin, executor, pathDefinition);\r\n        }\r\n        \r\n        (,,reserveLP) = newPool.assetRouter.deposit(newPool.pool, newPool.tokenA.balanceOf(address(this)), newPool.tokenB.balanceOf(address(this)), amountAMin, amountBMin, 0, address(this));\r\n       \r\n        lastMoveInfo = MoveLiquidityInfo({\r\n            leftoverA: newPool.tokenA.balanceOf(address(this)),\r\n            leftoverB: newPool.tokenB.balanceOf(address(this)),\r\n            totalSupply: totalSupply(),\r\n            block: block.number\r\n        });\r\n\r\n        emit MoveLiquidity(poolID, _poolID); \r\n        poolID = _poolID;\r\n    }\r\n\r\n    /**\r\n     * @dev Returns tokens staked by the {_address}. \r\n     * @param _address - The address to check stakes for.\r\n\r\n     * @return stakeA - Token A stake.\r\n     * @return stakeB - Token B stake.\r\n     * @return leftoverA - Token A Leftovers obligated to the {_address} after moveLiquidity() function call.\r\n     * @return leftoverB - Token B Leftovers obligated to the {_address} after moveLiquidity() function call.\r\n     */\r\n    function userStake(address _address) external view returns (uint256 stakeA, uint256 stakeB, uint256 leftoverA, uint256 leftoverB) {\r\n        PoolInfo memory pool = pools[poolID];\r\n        (, uint256 balanceA, uint256 balanceB) = pool.assetRouter.userStake(address(this), pool.pool);\r\n\r\n        uint256 _balance = balanceOf(_address);\r\n        if(_balance != 0){\r\n            uint256 _totalSupply = totalSupply();\r\n            stakeA = _balance * balanceA / _totalSupply; \r\n            stakeB = _balance * balanceB / _totalSupply; \r\n            if((!leftoversCollected[msg.sender][lastMoveInfo.block]) && (lastMoveInfo.totalSupply != 0)){\r\n                leftoverA = (_balance - blockedLiquidty[_address][lastMoveInfo.block]) * lastMoveInfo.leftoverA / lastMoveInfo.totalSupply;\r\n                leftoverB = (_balance - blockedLiquidty[_address][lastMoveInfo.block]) * lastMoveInfo.leftoverB / lastMoveInfo.totalSupply;\r\n            }\r\n        }\r\n    }\r\n        \r\n    /**\r\n     * @dev Returns total amount locked in the pool. \r\n     * @return totalDepositsA - Token A deposits.\r\n     * @return totalDepositsB - Token B deposits.\r\n     */     \r\n    function totalDeposits() external view returns(uint256 totalDepositsA, uint256 totalDepositsB){\r\n        PoolInfo memory pool = pools[poolID];\r\n        (, totalDepositsA, totalDepositsB) = pool.assetRouter.userStake(address(this), pool.pool);\r\n\r\n        // Add leftover tokens.\r\n        totalDepositsA += pool.tokenA.balanceOf(address(this));\r\n        totalDepositsB += pool.tokenB.balanceOf(address(this));\r\n    }\r\n\r\n    /**\r\n     * @dev Returns the number of pools in the strategy. \r\n     */\r\n    function poolsLength() external view returns(uint256){\r\n        return pools.length;\r\n    }\r\n\r\n    /**\r\n     * @dev Returns pair of tokens currently in use. \r\n     */\r\n    function tokens() external view returns(address, address){\r\n        PoolInfo memory pool = pools[poolID];\r\n        return (address(pool.tokenA), address(pool.tokenB));\r\n    }\r\n\r\n    function mint(address to) internal returns (uint256 liquidity){\r\n        PoolInfo memory pool = pools[poolID];\r\n        (uint256 balanceLP,,) = pool.assetRouter.userStake(address(this), pool.pool);\r\n        uint256 amountLP = balanceLP - reserveLP;\r\n\r\n        uint256 _totalSupply = totalSupply();\r\n        if (_totalSupply == 0) {\r\n            liquidity = amountLP - MINIMUM_LIQUIDITY;\r\n            _mint(address(1), MINIMUM_LIQUIDITY);\r\n        } else {\r\n            liquidity = amountLP * _totalSupply / reserveLP;\r\n        }\r\n\r\n        require(liquidity > 0, 'INSUFFICIENT_LIQUIDITY_MINTED');\r\n        _mint(to, liquidity);\r\n\r\n        reserveLP = balanceLP;\r\n    }\r\n\r\n    function burn(uint256 liquidity) internal returns (uint256 amountLP) {\r\n        PoolInfo memory pool = pools[poolID];\r\n        (uint256 balanceLP,,) = pool.assetRouter.userStake(address(this), pool.pool);\r\n\r\n        amountLP = liquidity * balanceLP / totalSupply(); \r\n        require(amountLP > 0, 'INSUFFICIENT_LIQUIDITY_BURNED');\r\n        _burn(msg.sender, liquidity);\r\n\r\n        reserveLP = balanceLP - amountLP;\r\n    }\r\n\r\n    function _beforeTokenTransfer(address from, address to, uint256 amount) internal virtual override {\r\n        super._beforeTokenTransfer(from, to, amount);\r\n\r\n        // Decrease blockedLiquidty from {from} address, but no less then 0.\r\n        if(amount > blockedLiquidty[from][lastMoveInfo.block]){\r\n            blockedLiquidty[from][lastMoveInfo.block] = 0;\r\n        } else {\r\n            blockedLiquidty[from][lastMoveInfo.block] -= amount;\r\n        }\r\n        // Block {to} address from withdrawing their share of leftover tokens immediately.\r\n        blockedLiquidty[to][lastMoveInfo.block] += amount;\r\n    }\r\n}",
  "sourcePath": "C:\\Users\\jugli\\Desktop\\uno\\uno-contracts-branch\\contracts\\test\\UnoAutoStrategyV2.sol",
  "compiler": {
    "name": "solc",
    "version": "0.8.10+commit.fc410830.Emscripten.clang"
  },
  "schemaVersion": "3.4.9",
  "updatedAt": "2022-09-07T16:52:04.290Z",
  "devdoc": {
    "kind": "dev",
    "methods": {
      "allowance(address,address)": {
        "details": "See {IERC20-allowance}."
      },
      "approve(address,uint256)": {
        "details": "See {IERC20-approve}. NOTE: If `amount` is the maximum `uint256`, the allowance is not updated on `transferFrom`. This is semantically equivalent to an infinite approval. Requirements: - `spender` cannot be the zero address."
      },
      "balanceOf(address)": {
        "details": "See {IERC20-balanceOf}."
      },
      "decimals()": {
        "details": "Returns the number of decimals used to get its user representation. For example, if `decimals` equals `2`, a balance of `505` tokens should be displayed to a user as `5.05` (`505 / 10 ** 2`). Tokens usually opt for a value of 18, imitating the relationship between Ether and Wei. This is the value {ERC20} uses, unless this function is overridden; NOTE: This information is only used for _display_ purposes: it in no way affects any of the arithmetic of the contract, including {IERC20-balanceOf} and {IERC20-transfer}."
      },
      "decreaseAllowance(address,uint256)": {
        "details": "Atomically decreases the allowance granted to `spender` by the caller. This is an alternative to {approve} that can be used as a mitigation for problems described in {IERC20-approve}. Emits an {Approval} event indicating the updated allowance. Requirements: - `spender` cannot be the zero address. - `spender` must have allowance for the caller of at least `subtractedValue`."
      },
      "deposit(uint256,uint256,uint256,uint256,uint256,address)": {
        "details": "Deposits tokens in the pools[poolID] pool. Mints tokens representing user share. Emits {Deposit} event.",
        "params": {
          "amountA": "- Token A amount to deposit.",
          "amountAMin": "- Bounds the extent to which the B/A price can go up before the transaction reverts.",
          "amountB": "- Token B amount to deposit.",
          "amountBMin": "- Bounds the extent to which the A/B price can go up before the transaction reverts.",
          "pid": "- Current poolID. Throws revert if moveLiquidity() has been called before the transaction has been mined.",
          "recipient": "- Address which will receive the deposit."
        },
        "returns": {
          "liquidity": "- Total liquidity minted for the {recipient}.",
          "sentA": "- Deposited token A amount.",
          "sentB": "- Deposited token B amount."
        }
      },
      "increaseAllowance(address,uint256)": {
        "details": "Atomically increases the allowance granted to `spender` by the caller. This is an alternative to {approve} that can be used as a mitigation for problems described in {IERC20-approve}. Emits an {Approval} event indicating the updated allowance. Requirements: - `spender` cannot be the zero address."
      },
      "moveLiquidity(uint256,bytes,bytes,uint256,uint256)": {
        "details": "Moves liquidity from {pools[poolID]} to {pools[_poolID]}. Emits {MoveLiquidity} event.",
        "params": {
          "_poolID": "- Pool ID to move liquidity to.",
          "amountAMin": "- The minimum amount of tokenA that must be deposited in {pools[_poolID]} for the transaction not to revert.",
          "amountBMin": "- The minimum amount of tokenB that must be deposited in {pools[_poolID]} for the transaction not to revert. Note: This function can only be called by LiquidityManager.",
          "swapAData": "- Data for tokenA swap.",
          "swapBData": "- Data for tokenB swap."
        }
      },
      "name()": {
        "details": "Returns the name of the token."
      },
      "poolsLength()": {
        "details": "Returns the number of pools in the strategy. "
      },
      "symbol()": {
        "details": "Returns the symbol of the token, usually a shorter version of the name."
      },
      "tokens()": {
        "details": "Returns pair of tokens currently in use. "
      },
      "totalDeposits()": {
        "details": "Returns total amount locked in the pool. ",
        "returns": {
          "totalDepositsA": "- Token A deposits.",
          "totalDepositsB": "- Token B deposits."
        }
      },
      "totalSupply()": {
        "details": "See {IERC20-totalSupply}."
      },
      "transfer(address,uint256)": {
        "details": "See {IERC20-transfer}. Requirements: - `to` cannot be the zero address. - the caller must have a balance of at least `amount`."
      },
      "transferFrom(address,address,uint256)": {
        "details": "See {IERC20-transferFrom}. Emits an {Approval} event indicating the updated allowance. This is not required by the EIP. See the note at the beginning of {ERC20}. NOTE: Does not update the allowance if the current allowance is the maximum `uint256`. Requirements: - `from` and `to` cannot be the zero address. - `from` must have a balance of at least `amount`. - the caller must have allowance for ``from``'s tokens of at least `amount`."
      },
      "userStake(address)": {
        "details": "Returns tokens staked by the {_address}. ",
        "params": {
          "_address": "- The address to check stakes for."
        },
        "returns": {
          "leftoverA": "- Token A Leftovers obligated to the {_address} after moveLiquidity() function call.",
          "leftoverB": "- Token B Leftovers obligated to the {_address} after moveLiquidity() function call.",
          "stakeA": "- Token A stake.",
          "stakeB": "- Token B stake."
        }
      },
      "withdraw(uint256,uint256,uint256,uint256,address)": {
        "details": "Withdraws tokens from the {pools[poolID]} pool and sends them to the recipient. Burns tokens representing user share. Emits {Withdraw} event.",
        "params": {
          "amountAMin": "- The minimum amount of tokenA that must be received from the pool for the transaction not to revert.",
          "amountBMin": "- The minimum amount of tokenB that must be received from the pool for the transaction not to revert.",
          "liquidity": "- Liquidity to burn from this user.",
          "pid": "- Current poolID. Throws revert if moveLiquidity() has been called before the transaction has been mined.",
          "recipient": "- Address which will receive withdrawn tokens."
        },
        "returns": {
          "amountA": "- Token A amount sent to the {recipient}.",
          "amountB": "- Token B amount sent to the {recipient}."
        }
      }
    },
    "stateVariables": {
      "OdosRouter": {
        "details": "Contract Variables: {OdosRouter} - Contract that executes swaps. {poolID} - Current pool the strategy uses ({pools} index). {pools} - Pools this strategy can use and move liquidity to. {reserveLP} - LP token reserve. {lastMoveInfo} - Info on last MoveLiquidity() block. {blockedLiquidty} - User's blocked LP tokens. Prevents user from stealing leftover tokens by depositing and exiting before moveLiquidity() has been called. {leftoversCollected} - Flag that prevents leftover token collection if they were already collected this MoveLiquidity() cycle. {accessManager} - Role manager contract. {factory} - The address of AutoStrategyFactory this contract was deployed by. {MINIMUM_LIQUIDITY} - Ameliorates rounding errors."
      }
    },
    "version": 1
  },
  "userdoc": {
    "kind": "user",
    "methods": {},
    "version": 1
  }
}