{
  "contractName": "UnoAssetRouterBalancerV2",
  "abi": [
    {
      "anonymous": false,
      "inputs": [
        {
          "indexed": false,
          "internalType": "address",
          "name": "previousAdmin",
          "type": "address"
        },
        {
          "indexed": false,
          "internalType": "address",
          "name": "newAdmin",
          "type": "address"
        }
      ],
      "name": "AdminChanged",
      "type": "event"
    },
    {
      "anonymous": false,
      "inputs": [
        {
          "indexed": true,
          "internalType": "address",
          "name": "beacon",
          "type": "address"
        }
      ],
      "name": "BeaconUpgraded",
      "type": "event"
    },
    {
      "anonymous": false,
      "inputs": [
        {
          "indexed": true,
          "internalType": "address",
          "name": "lpPool",
          "type": "address"
        },
        {
          "indexed": true,
          "internalType": "address",
          "name": "sender",
          "type": "address"
        },
        {
          "indexed": true,
          "internalType": "address",
          "name": "recipient",
          "type": "address"
        },
        {
          "indexed": false,
          "internalType": "uint256",
          "name": "amount",
          "type": "uint256"
        }
      ],
      "name": "Deposit",
      "type": "event"
    },
    {
      "anonymous": false,
      "inputs": [
        {
          "indexed": true,
          "internalType": "address",
          "name": "lpPool",
          "type": "address"
        },
        {
          "indexed": false,
          "internalType": "uint256",
          "name": "reward",
          "type": "uint256"
        }
      ],
      "name": "Distribute",
      "type": "event"
    },
    {
      "anonymous": false,
      "inputs": [
        {
          "indexed": false,
          "internalType": "uint8",
          "name": "version",
          "type": "uint8"
        }
      ],
      "name": "Initialized",
      "type": "event"
    },
    {
      "anonymous": false,
      "inputs": [
        {
          "indexed": false,
          "internalType": "address",
          "name": "account",
          "type": "address"
        }
      ],
      "name": "Paused",
      "type": "event"
    },
    {
      "anonymous": false,
      "inputs": [
        {
          "indexed": false,
          "internalType": "address",
          "name": "account",
          "type": "address"
        }
      ],
      "name": "Unpaused",
      "type": "event"
    },
    {
      "anonymous": false,
      "inputs": [
        {
          "indexed": true,
          "internalType": "address",
          "name": "implementation",
          "type": "address"
        }
      ],
      "name": "Upgraded",
      "type": "event"
    },
    {
      "anonymous": false,
      "inputs": [
        {
          "indexed": true,
          "internalType": "address",
          "name": "lpPool",
          "type": "address"
        },
        {
          "indexed": true,
          "internalType": "address",
          "name": "sender",
          "type": "address"
        },
        {
          "indexed": true,
          "internalType": "address",
          "name": "recipient",
          "type": "address"
        },
        {
          "indexed": false,
          "internalType": "uint256",
          "name": "amount",
          "type": "uint256"
        }
      ],
      "name": "Withdraw",
      "type": "event"
    },
    {
      "inputs": [],
      "name": "accessManager",
      "outputs": [
        {
          "internalType": "contract IUnoAccessManager",
          "name": "",
          "type": "address"
        }
      ],
      "stateMutability": "view",
      "type": "function"
    },
    {
      "inputs": [],
      "name": "farmFactory",
      "outputs": [
        {
          "internalType": "contract IUnoFarmFactory",
          "name": "",
          "type": "address"
        }
      ],
      "stateMutability": "view",
      "type": "function"
    },
    {
      "inputs": [],
      "name": "paused",
      "outputs": [
        {
          "internalType": "bool",
          "name": "",
          "type": "bool"
        }
      ],
      "stateMutability": "view",
      "type": "function"
    },
    {
      "inputs": [],
      "name": "proxiableUUID",
      "outputs": [
        {
          "internalType": "bytes32",
          "name": "",
          "type": "bytes32"
        }
      ],
      "stateMutability": "view",
      "type": "function"
    },
    {
      "inputs": [
        {
          "internalType": "address",
          "name": "newImplementation",
          "type": "address"
        }
      ],
      "name": "upgradeTo",
      "outputs": [],
      "stateMutability": "nonpayable",
      "type": "function"
    },
    {
      "inputs": [
        {
          "internalType": "address",
          "name": "newImplementation",
          "type": "address"
        },
        {
          "internalType": "bytes",
          "name": "data",
          "type": "bytes"
        }
      ],
      "name": "upgradeToAndCall",
      "outputs": [],
      "stateMutability": "payable",
      "type": "function"
    },
    {
      "inputs": [],
      "name": "version",
      "outputs": [
        {
          "internalType": "uint256",
          "name": "",
          "type": "uint256"
        }
      ],
      "stateMutability": "view",
      "type": "function"
    },
    {
      "inputs": [
        {
          "internalType": "address",
          "name": "_accessManager",
          "type": "address"
        },
        {
          "internalType": "address",
          "name": "_farmFactory",
          "type": "address"
        }
      ],
      "name": "initialize",
      "outputs": [],
      "stateMutability": "nonpayable",
      "type": "function"
    },
    {
      "inputs": [
        {
          "internalType": "address",
          "name": "lpPool",
          "type": "address"
        },
        {
          "internalType": "uint256[]",
          "name": "amounts",
          "type": "uint256[]"
        },
        {
          "internalType": "address[]",
          "name": "tokens",
          "type": "address[]"
        },
        {
          "internalType": "uint256",
          "name": "minAmountLP",
          "type": "uint256"
        },
        {
          "internalType": "uint256",
          "name": "amountLP",
          "type": "uint256"
        },
        {
          "internalType": "address",
          "name": "recipient",
          "type": "address"
        }
      ],
      "name": "deposit",
      "outputs": [
        {
          "internalType": "uint256",
          "name": "liquidity",
          "type": "uint256"
        }
      ],
      "stateMutability": "nonpayable",
      "type": "function"
    },
    {
      "inputs": [
        {
          "internalType": "address",
          "name": "lpPool",
          "type": "address"
        },
        {
          "internalType": "uint256",
          "name": "amount",
          "type": "uint256"
        },
        {
          "internalType": "uint256[]",
          "name": "minAmountsOut",
          "type": "uint256[]"
        },
        {
          "internalType": "bool",
          "name": "withdrawLP",
          "type": "bool"
        },
        {
          "internalType": "address",
          "name": "recipient",
          "type": "address"
        }
      ],
      "name": "withdraw",
      "outputs": [],
      "stateMutability": "nonpayable",
      "type": "function"
    },
    {
      "inputs": [
        {
          "internalType": "address",
          "name": "lpPool",
          "type": "address"
        },
        {
          "components": [
            {
              "internalType": "bytes32",
              "name": "poolId",
              "type": "bytes32"
            },
            {
              "internalType": "uint256",
              "name": "assetInIndex",
              "type": "uint256"
            },
            {
              "internalType": "uint256",
              "name": "assetOutIndex",
              "type": "uint256"
            },
            {
              "internalType": "uint256",
              "name": "amount",
              "type": "uint256"
            },
            {
              "internalType": "bytes",
              "name": "userData",
              "type": "bytes"
            }
          ],
          "internalType": "struct IVault.BatchSwapStep[][]",
          "name": "swaps",
          "type": "tuple[][]"
        },
        {
          "internalType": "contract IAsset[][]",
          "name": "assets",
          "type": "address[][]"
        },
        {
          "internalType": "int256[][]",
          "name": "limits",
          "type": "int256[][]"
        }
      ],
      "name": "distribute",
      "outputs": [],
      "stateMutability": "nonpayable",
      "type": "function"
    },
    {
      "inputs": [
        {
          "internalType": "address",
          "name": "_address",
          "type": "address"
        },
        {
          "internalType": "address",
          "name": "lpPool",
          "type": "address"
        }
      ],
      "name": "userStake",
      "outputs": [
        {
          "internalType": "uint256",
          "name": "",
          "type": "uint256"
        }
      ],
      "stateMutability": "view",
      "type": "function"
    },
    {
      "inputs": [
        {
          "internalType": "address",
          "name": "lpPool",
          "type": "address"
        }
      ],
      "name": "totalDeposits",
      "outputs": [
        {
          "internalType": "uint256",
          "name": "",
          "type": "uint256"
        }
      ],
      "stateMutability": "view",
      "type": "function"
    },
    {
      "inputs": [
        {
          "internalType": "address",
          "name": "lpPool",
          "type": "address"
        }
      ],
      "name": "getTokens",
      "outputs": [
        {
          "internalType": "contract IERC20[]",
          "name": "tokens",
          "type": "address[]"
        }
      ],
      "stateMutability": "view",
      "type": "function"
    },
    {
      "inputs": [],
      "name": "pause",
      "outputs": [],
      "stateMutability": "nonpayable",
      "type": "function"
    },
    {
      "inputs": [],
      "name": "unpause",
      "outputs": [],
      "stateMutability": "nonpayable",
      "type": "function"
    }
  ],
  "bytecode": "0x60a06040523060805234801561001457600080fd5b506080516129fb61004c600039600081816103070152818161035001528181610960015281816109a00152610b3401526129fb6000f3fe6080604052600436106100f35760003560e01c806354fd4d501161008a578063947b916011610059578063947b91601461027c57806398343fd01461029c578063e9403256146102bc578063fdcb6068146102dc57600080fd5b806354fd4d50146101f75780635c975abb1461020c5780636d25e1751461022f5780638456cb591461026757600080fd5b8063485cc955116100c6578063485cc9551461018f5780634f1ef286146101af57806351bdca3e146101c257806352d1902d146101e257600080fd5b80633659cfe6146100f85780633cffb2661461011a5780633f4ba83a1461014d578063450efe2114610162575b600080fd5b34801561010457600080fd5b50610118610113366004611aeb565b6102fc565b005b34801561012657600080fd5b5061013a610135366004611c0d565b6103e5565b6040519081526020015b60405180910390f35b34801561015957600080fd5b506101186106e7565b34801561016e57600080fd5b5061018261017d366004611aeb565b6107c3565b6040516101449190611cfc565b34801561019b57600080fd5b506101186101aa366004611d49565b6108ae565b6101186101bd366004611df1565b610955565b3480156101ce57600080fd5b5061013a6101dd366004611d49565b610a26565b3480156101ee57600080fd5b5061013a610b27565b34801561020357600080fd5b5061013a600281565b34801561021857600080fd5b5060335460ff166040519015158152602001610144565b34801561023b57600080fd5b5060c95461024f906001600160a01b031681565b6040516001600160a01b039091168152602001610144565b34801561027357600080fd5b50610118610bda565b34801561028857600080fd5b50610118610297366004611e59565b610cb4565b3480156102a857600080fd5b506101186102b73660046120bd565b610e58565b3480156102c857600080fd5b5061013a6102d7366004611aeb565b6110ce565b3480156102e857600080fd5b5060ca5461024f906001600160a01b031681565b306001600160a01b037f000000000000000000000000000000000000000000000000000000000000000016141561034e5760405162461bcd60e51b8152600401610345906122ee565b60405180910390fd5b7f00000000000000000000000000000000000000000000000000000000000000006001600160a01b031661039760008051602061297f833981519152546001600160a01b031690565b6001600160a01b0316146103bd5760405162461bcd60e51b81526004016103459061233a565b6103c6816111c3565b604080516000808252602082019092526103e2918391906112de565b50565b60006103f360335460ff1690565b156104105760405162461bcd60e51b815260040161034590612386565b845186511461046d5760405162461bcd60e51b8152602060048201526024808201527f414d4f554e54535f414e445f544f4b454e535f4c454e475448535f4e4f545f4d604482015263082a886960e31b6064820152608401610345565b60c95460405163f9d9331d60e01b81526001600160a01b038981166004830152600092169063f9d9331d90602401602060405180830381865afa1580156104b8573d6000803e3d6000fd5b505050506040513d601f19601f820116820180604052508101906104dc91906123b0565b90506001600160a01b03811661055e5760c954604051621849e360e61b81526001600160a01b038a811660048301529091169063061278c0906024016020604051808303816000875af1158015610537573d6000803e3d6000fd5b505050506040513d601f19601f8201168201806040525081019061055b91906123b0565b90505b60005b86518110156105f057600088828151811061057e5761057e6123cd565b602002602001015111156105de576105de33838a84815181106105a3576105a36123cd565b60200260200101518a85815181106105bd576105bd6123cd565b60200260200101516001600160a01b0316611449909392919063ffffffff16565b806105e8816123e3565b915050610561565b50831561060c5761060c6001600160a01b038916338387611449565b604051632272658560e11b81526001600160a01b038216906344e4cb0a90610640908a908a908a908a908a9060040161240c565b6020604051808303816000875af115801561065f573d6000803e3d6000fd5b505050506040513d601f19601f8201168201806040525081019061068391906124b6565b9150826001600160a01b0316336001600160a01b0316896001600160a01b03167f7cfff908a4b583f36430b25d75964c458d8ede8a99bd61be750e97ee1b2f3a96856040516106d491815260200190565b60405180910390a4509695505050505050565b60ca54604051632474521560e21b81527f65d7a28e3265b37a6474929f336521b332c1681b933f6cb9f3376673440d862a60048201523360248201526001600160a01b03909116906391d1485490604401602060405180830381865afa158015610755573d6000803e3d6000fd5b505050506040513d601f19601f8201168201806040525081019061077991906124cf565b6107b95760405162461bcd60e51b815260206004820152601160248201527021a0a62622a92fa727aa2fa820aaa9a2a960791b6044820152606401610345565b6107c16114a9565b565b60606000826001600160a01b03166338fff2d06040518163ffffffff1660e01b8152600401602060405180830381865afa158015610805573d6000803e3d6000fd5b505050506040513d601f19601f8201168201806040525081019061082991906124b6565b604051631f29a8cd60e31b81526004810182905290915073ba12222222228d8ba445958a75a0704d566bf2c89063f94d466890602401600060405180830381865afa15801561087c573d6000803e3d6000fd5b505050506040513d6000823e601f3d908101601f191682016040526108a49190810190612547565b5090949350505050565b60006108ba600161153c565b905080156108d2576000805461ff0019166101001790555b6108da6115c9565b60ca80546001600160a01b038086166001600160a01b03199283161790925560c98054928516929091169190911790558015610950576000805461ff0019169055604051600181527f7f26b83ff96e1f2b6a682f133852f6798a09c465da95921460cefb38474024989060200160405180910390a15b505050565b306001600160a01b037f000000000000000000000000000000000000000000000000000000000000000016141561099e5760405162461bcd60e51b8152600401610345906122ee565b7f00000000000000000000000000000000000000000000000000000000000000006001600160a01b03166109e760008051602061297f833981519152546001600160a01b031690565b6001600160a01b031614610a0d5760405162461bcd60e51b81526004016103459061233a565b610a16826111c3565b610a22828260016112de565b5050565b60c95460405163f9d9331d60e01b81526001600160a01b038381166004830152600092839291169063f9d9331d90602401602060405180830381865afa158015610a74573d6000803e3d6000fd5b505050506040513d601f19601f82011682018060405250810190610a9891906123b0565b90506001600160a01b03811615610b1b57604051630103c92b60e01b81526001600160a01b038581166004830152821690630103c92b90602401602060405180830381865afa158015610aef573d6000803e3d6000fd5b505050506040513d601f19601f82011682018060405250810190610b1391906124b6565b915050610b21565b60009150505b92915050565b6000306001600160a01b037f00000000000000000000000000000000000000000000000000000000000000001614610bc75760405162461bcd60e51b815260206004820152603860248201527f555550535570677261646561626c653a206d757374206e6f742062652063616c60448201527f6c6564207468726f7567682064656c656761746563616c6c00000000000000006064820152608401610345565b5060008051602061297f83398151915290565b60ca54604051632474521560e21b81527f65d7a28e3265b37a6474929f336521b332c1681b933f6cb9f3376673440d862a60048201523360248201526001600160a01b03909116906391d1485490604401602060405180830381865afa158015610c48573d6000803e3d6000fd5b505050506040513d601f19601f82011682018060405250810190610c6c91906124cf565b610cac5760405162461bcd60e51b815260206004820152601160248201527021a0a62622a92fa727aa2fa820aaa9a2a960791b6044820152606401610345565b6107c16115f8565b60335460ff1615610cd75760405162461bcd60e51b815260040161034590612386565b60c95460405163f9d9331d60e01b81526001600160a01b038881166004830152600092169063f9d9331d90602401602060405180830381865afa158015610d22573d6000803e3d6000fd5b505050506040513d601f19601f82011682018060405250810190610d4691906123b0565b90506001600160a01b038116610d905760405162461bcd60e51b815260206004820152600f60248201526e4641524d5f4e4f545f45584953545360881b6044820152606401610345565b604051631f9e746960e11b81526001600160a01b03821690633f3ce8d290610dc690899089908990899033908a90600401612614565b600060405180830381600087803b158015610de057600080fd5b505af1158015610df4573d6000803e3d6000fd5b50505050816001600160a01b0316336001600160a01b0316886001600160a01b03167f3115d1449a7b732c986cba18244e897a450f61e1bb8d589cd2e69e6c8924f9f789604051610e4791815260200190565b60405180910390a450505050505050565b60335460ff1615610e7b5760405162461bcd60e51b815260040161034590612386565b60ca54604051632474521560e21b81527ffbd454f36a7e1a388bd6fc3ab10d434aa4578f811acbbcf33afb1c697486313c60048201523360248201526001600160a01b03909116906391d1485490604401602060405180830381865afa158015610ee9573d6000803e3d6000fd5b505050506040513d601f19601f82011682018060405250810190610f0d91906124cf565b610f525760405162461bcd60e51b815260206004820152601660248201527521a0a62622a92fa727aa2fa224a9aa2924a12aaa27a960511b6044820152606401610345565b60c95460405163f9d9331d60e01b81526001600160a01b038681166004830152600092169063f9d9331d90602401602060405180830381865afa158015610f9d573d6000803e3d6000fd5b505050506040513d601f19601f82011682018060405250810190610fc191906123b0565b90506001600160a01b03811661100b5760405162461bcd60e51b815260206004820152600f60248201526e4641524d5f4e4f545f45584953545360881b6044820152606401610345565b60405163bedfe76f60e01b81526000906001600160a01b0383169063bedfe76f9061103e908890889088906004016127c4565b6020604051808303816000875af115801561105d573d6000803e3d6000fd5b505050506040513d601f19601f8201168201806040525081019061108191906124b6565b9050856001600160a01b03167fc1d32ad5cca423e7dda2123dbf8c482f8e77d00b631c06e903a47f2cec1334df826040516110be91815260200190565b60405180910390a2505050505050565b60c95460405163f9d9331d60e01b81526001600160a01b038381166004830152600092839291169063f9d9331d90602401602060405180830381865afa15801561111c573d6000803e3d6000fd5b505050506040513d601f19601f8201168201806040525081019061114091906123b0565b90506001600160a01b038116156111ba57806001600160a01b031663168a48226040518163ffffffff1660e01b8152600401602060405180830381865afa15801561118f573d6000803e3d6000fd5b505050506040513d601f19601f820116820180604052508101906111b391906124b6565b9392505050565b50600092915050565b60ca5460408051631d6c8e3f60e21b815290516001600160a01b03909216916391d148549183916375b238fc916004808201926020929091908290030181865afa158015611215573d6000803e3d6000fd5b505050506040513d601f19601f8201168201806040525081019061123991906124b6565b6040516001600160e01b031960e084901b1681526004810191909152336024820152604401602060405180830381865afa15801561127b573d6000803e3d6000fd5b505050506040513d601f19601f8201168201806040525081019061129f91906124cf565b6103e25760405162461bcd60e51b815260206004820152601060248201526f21a0a62622a92fa727aa2fa0a226a4a760811b6044820152606401610345565b7f4910fdfa16fed3260ed0e7147f7cc6da11a60208b5b9406d12a635614ffd91435460ff16156113115761095083611650565b826001600160a01b03166352d1902d6040518163ffffffff1660e01b8152600401602060405180830381865afa92505050801561136b575060408051601f3d908101601f19168201909252611368918101906124b6565b60015b6113ce5760405162461bcd60e51b815260206004820152602e60248201527f45524331393637557067726164653a206e657720696d706c656d656e7461746960448201526d6f6e206973206e6f74205555505360901b6064820152608401610345565b60008051602061297f833981519152811461143d5760405162461bcd60e51b815260206004820152602960248201527f45524331393637557067726164653a20756e737570706f727465642070726f786044820152681a58589b195555525160ba1b6064820152608401610345565b506109508383836116ec565b604080516001600160a01b0385811660248301528416604482015260648082018490528251808303909101815260849091019091526020810180516001600160e01b03166323b872dd60e01b1790526114a3908590611711565b50505050565b60335460ff166114f25760405162461bcd60e51b815260206004820152601460248201527314185d5cd8589b194e881b9bdd081c185d5cd95960621b6044820152606401610345565b6033805460ff191690557f5db9ee0a495bf2e6ff9c91a7834c1ba4fdd244a5e8aa4e537bd38aeae4b073aa335b6040516001600160a01b03909116815260200160405180910390a1565b60008054610100900460ff1615611583578160ff16600114801561155f5750303b155b61157b5760405162461bcd60e51b8152600401610345906128b6565b506000919050565b60005460ff8084169116106115aa5760405162461bcd60e51b8152600401610345906128b6565b506000805460ff191660ff92909216919091179055600190565b919050565b600054610100900460ff166115f05760405162461bcd60e51b815260040161034590612904565b6107c16117e3565b60335460ff161561161b5760405162461bcd60e51b815260040161034590612386565b6033805460ff191660011790557f62e78cea01bee320cd4e420270b5ea74000d11b0c9f74754ebdbfc544b05a25861151f3390565b6001600160a01b0381163b6116bd5760405162461bcd60e51b815260206004820152602d60248201527f455243313936373a206e657720696d706c656d656e746174696f6e206973206e60448201526c1bdd08184818dbdb9d1c9858dd609a1b6064820152608401610345565b60008051602061297f83398151915280546001600160a01b0319166001600160a01b0392909216919091179055565b6116f583611816565b6000825111806117025750805b15610950576114a38383611856565b6000611766826040518060400160405280602081526020017f5361666545524332303a206c6f772d6c6576656c2063616c6c206661696c6564815250856001600160a01b031661194a9092919063ffffffff16565b805190915015610950578080602001905181019061178491906124cf565b6109505760405162461bcd60e51b815260206004820152602a60248201527f5361666545524332303a204552433230206f7065726174696f6e20646964206e6044820152691bdd081cdd58d8d9595960b21b6064820152608401610345565b600054610100900460ff1661180a5760405162461bcd60e51b815260040161034590612904565b6033805460ff19169055565b61181f81611650565b6040516001600160a01b038216907fbc7cd75a20ee27fd9adebab32041f755214dbc6bffa90cc0225b39da2e5c2d3b90600090a250565b60606001600160a01b0383163b6118be5760405162461bcd60e51b815260206004820152602660248201527f416464726573733a2064656c65676174652063616c6c20746f206e6f6e2d636f6044820152651b9d1c9858dd60d21b6064820152608401610345565b600080846001600160a01b0316846040516118d9919061294f565b600060405180830381855af49150503d8060008114611914576040519150601f19603f3d011682016040523d82523d6000602084013e611919565b606091505b5091509150611941828260405180606001604052806027815260200161299f60279139611961565b95945050505050565b6060611959848460008561199a565b949350505050565b606083156119705750816111b3565b8251156119805782518084602001fd5b8160405162461bcd60e51b8152600401610345919061296b565b6060824710156119fb5760405162461bcd60e51b815260206004820152602660248201527f416464726573733a20696e73756666696369656e742062616c616e636520666f6044820152651c8818d85b1b60d21b6064820152608401610345565b6001600160a01b0385163b611a525760405162461bcd60e51b815260206004820152601d60248201527f416464726573733a2063616c6c20746f206e6f6e2d636f6e74726163740000006044820152606401610345565b600080866001600160a01b03168587604051611a6e919061294f565b60006040518083038185875af1925050503d8060008114611aab576040519150601f19603f3d011682016040523d82523d6000602084013e611ab0565b606091505b5091509150611ac0828286611961565b979650505050505050565b6001600160a01b03811681146103e257600080fd5b80356115c481611acb565b600060208284031215611afd57600080fd5b81356111b381611acb565b634e487b7160e01b600052604160045260246000fd5b60405160a081016001600160401b0381118282101715611b4057611b40611b08565b60405290565b604051601f8201601f191681016001600160401b0381118282101715611b6e57611b6e611b08565b604052919050565b60006001600160401b03821115611b8f57611b8f611b08565b5060051b60200190565b600082601f830112611baa57600080fd5b81356020611bbf611bba83611b76565b611b46565b82815260059290921b84018101918181019086841115611bde57600080fd5b8286015b84811015611c02578035611bf581611acb565b8352918301918301611be2565b509695505050505050565b60008060008060008060c08789031215611c2657600080fd5b8635611c3181611acb565b95506020878101356001600160401b0380821115611c4e57600080fd5b818a0191508a601f830112611c6257600080fd5b8135611c70611bba82611b76565b81815260059190911b8301840190848101908d831115611c8f57600080fd5b938501935b82851015611cad57843582529385019390850190611c94565b9950505060408a0135925080831115611cc557600080fd5b5050611cd389828a01611b99565b9450506060870135925060808701359150611cf060a08801611ae0565b90509295509295509295565b6020808252825182820181905260009190848201906040850190845b81811015611d3d5783516001600160a01b031683529284019291840191600101611d18565b50909695505050505050565b60008060408385031215611d5c57600080fd5b8235611d6781611acb565b91506020830135611d7781611acb565b809150509250929050565b600082601f830112611d9357600080fd5b81356001600160401b03811115611dac57611dac611b08565b611dbf601f8201601f1916602001611b46565b818152846020838601011115611dd457600080fd5b816020850160208301376000918101602001919091529392505050565b60008060408385031215611e0457600080fd5b8235611e0f81611acb565b915060208301356001600160401b03811115611e2a57600080fd5b611e3685828601611d82565b9150509250929050565b80151581146103e257600080fd5b80356115c481611e40565b60008060008060008060a08789031215611e7257600080fd5b8635611e7d81611acb565b95506020870135945060408701356001600160401b0380821115611ea057600080fd5b818901915089601f830112611eb457600080fd5b813581811115611ec357600080fd5b8a60208260051b8501011115611ed857600080fd5b602083019650809550505050611ef060608801611e4e565b9150611cf060808801611ae0565b600082601f830112611f0f57600080fd5b81356020611f1f611bba83611b76565b828152600592831b8501820192828201919087851115611f3e57600080fd5b8387015b85811015611fdd5780356001600160401b03811115611f615760008081fd5b8801603f81018a13611f735760008081fd5b858101356040611f85611bba83611b76565b82815291851b8301810191888101908d841115611fa25760008081fd5b938201935b83851015611fcc5784359250611fbc83611acb565b8282529389019390890190611fa7565b885250505093850193508401611f42565b5090979650505050505050565b600082601f830112611ffb57600080fd5b8135602061200b611bba83611b76565b828152600592831b850182019282820191908785111561202a57600080fd5b8387015b85811015611fdd5780356001600160401b0381111561204d5760008081fd5b8801603f81018a1361205f5760008081fd5b858101356040612071611bba83611b76565b82815291851b8301810191888101908d84111561208e5760008081fd5b938201935b838510156120ac57843582529389019390890190612093565b88525050509385019350840161202e565b600080600080608085870312156120d357600080fd5b6120dd8535611acb565b843593506001600160401b03602086013511156120f957600080fd5b6020850135850186601f82011261210f57600080fd5b61211c611bba8235611b76565b81358082526020808301929160051b84010189101561213a57600080fd5b602083015b6020843560051b85010181101561228c576001600160401b038135111561216557600080fd5b89603f82358601011261217757600080fd5b61218a611bba6020833587010135611b76565b81358501602081810135808452908301929160059190911b016040018c10156121b257600080fd5b604083358701015b83358701602081013560051b0160400181101561227c576001600160401b03813511156121e657600080fd5b60a0843588018235018e03603f1901121561220057600080fd5b612208611b1e565b843588018235016040818101358352606080830135602085015260808301359184019190915260a0820135908301526001600160401b0360c090910135111561225057600080fd5b6122698e86358a0184350160c081013501604001611d82565b60808201528352602092830192016121ba565b508452506020928301920161213f565b50945050506001600160401b03604086013511156122a957600080fd5b6122b98660408701358701611efe565b91506001600160401b03606086013511156122d357600080fd5b6122e38660608701358701611fea565b905092959194509250565b6020808252602c908201527f46756e6374696f6e206d7573742062652063616c6c6564207468726f7567682060408201526b19195b1959d85d1958d85b1b60a21b606082015260800190565b6020808252602c908201527f46756e6374696f6e206d7573742062652063616c6c6564207468726f7567682060408201526b6163746976652070726f787960a01b606082015260800190565b60208082526010908201526f14185d5cd8589b194e881c185d5cd95960821b604082015260600190565b6000602082840312156123c257600080fd5b81516111b381611acb565b634e487b7160e01b600052603260045260246000fd5b600060001982141561240557634e487b7160e01b600052601160045260246000fd5b5060010190565b60a0808252865190820181905260009060209060c0840190828a01845b8281101561244557815184529284019290840190600101612429565b5050508381038285015287518082528883019183019060005b818110156124835783516001600160a01b03168352928401929184019160010161245e565b50508093505050508460408301528360608301526124ac60808301846001600160a01b03169052565b9695505050505050565b6000602082840312156124c857600080fd5b5051919050565b6000602082840312156124e157600080fd5b81516111b381611e40565b600082601f8301126124fd57600080fd5b8151602061250d611bba83611b76565b82815260059290921b8401810191818101908684111561252c57600080fd5b8286015b84811015611c025780518352918301918301612530565b60008060006060848603121561255c57600080fd5b83516001600160401b038082111561257357600080fd5b818601915086601f83011261258757600080fd5b81516020612597611bba83611b76565b82815260059290921b8401810191818101908a8411156125b657600080fd5b948201945b838610156125dd5785516125ce81611acb565b825294820194908201906125bb565b918901519197509093505050808211156125f657600080fd5b50612603868287016124ec565b925050604084015190509250925092565b86815260a060208201819052810185905260006001600160fb1b0386111561263b57600080fd5b8560051b808860c0850137600090830160c0019081529415156040830152506001600160a01b03928316606082015291166080909101529392505050565b60005b8381101561269457818101518382015260200161267c565b838111156114a35750506000910152565b600081518084526126bd816020860160208601612679565b601f01601f19169290920160200192915050565b600081518084526020808501808196508360051b810191508286016000805b86811015612748578385038a52825180518087529087019087870190845b818110156127335783516001600160a01b03168352928901929189019160010161270e565b50509a87019a955050918501916001016126f0565b509298975050505050505050565b600081518084526020808501808196508360051b810191508286016000805b86811015612748578385038a52825180518087529087019087870190845b818110156127af57835183529289019291890191600101612793565b50509a87019a95505091850191600101612775565b60006060808301818452808751808352608092508286019150828160051b8701016020808b0160005b8481101561288b57898403607f19018652815180518086529084019084860190600581901b8701860160005b8281101561287557888203601f190184528451805183528881015189840152604080820151908401528d8101518e8401528c015160a08d8401819052612861818501836126a5565b968a0196958a019593505050600101612819565b50988601989650505091830191506001016127ed565b50508782039088015261289e818a6126d1565b94505050505082810360408401526124ac8185612756565b6020808252602e908201527f496e697469616c697a61626c653a20636f6e747261637420697320616c72656160408201526d191e481a5b9a5d1a585b1a5e995960921b606082015260800190565b6020808252602b908201527f496e697469616c697a61626c653a20636f6e7472616374206973206e6f74206960408201526a6e697469616c697a696e6760a81b606082015260800190565b60008251612961818460208701612679565b9190910192915050565b6020815260006111b360208301846126a556fe360894a13ba1a3210667c828492db98dca3e2076cc3735a920a3ca505d382bbc416464726573733a206c6f772d6c6576656c2064656c65676174652063616c6c206661696c6564a264697066735822122081b5c59b1a65d1accbb4dba3e6d87fd96470b1905766764397a3d3eb7df42d3064736f6c634300080a0033",
  "immutableReferences": {
    "561": [
      {
        "length": 32,
        "start": 775
      },
      {
        "length": 32,
        "start": 848
      },
      {
        "length": 32,
        "start": 2400
      },
      {
        "length": 32,
        "start": 2464
      },
      {
        "length": 32,
        "start": 2868
      }
    ]
  },
  "source": "// SPDX-License-Identifier: MIT\r\npragma solidity 0.8.10;\r\n\r\nimport {IUnoFarmBalancer as Farm} from '../apps/balancer/interfaces/IUnoFarmBalancer.sol'; \r\nimport '../interfaces/IUnoFarmFactory.sol';\r\nimport '../interfaces/IUnoAccessManager.sol'; \r\nimport '../interfaces/IVault.sol'; \r\nimport \"../interfaces/IBasePool.sol\";\r\nimport '@openzeppelin/contracts-upgradeable/token/ERC20/IERC20Upgradeable.sol';\r\nimport '@openzeppelin/contracts-upgradeable/token/ERC20/utils/SafeERC20Upgradeable.sol';\r\nimport '@openzeppelin/contracts-upgradeable/proxy/utils/Initializable.sol';\r\nimport '@openzeppelin/contracts-upgradeable/security/PausableUpgradeable.sol';\r\nimport '@openzeppelin/contracts-upgradeable/proxy/utils/UUPSUpgradeable.sol';\r\n\r\ncontract UnoAssetRouterBalancerV2 is Initializable, PausableUpgradeable, UUPSUpgradeable {\r\n    using SafeERC20Upgradeable for IERC20Upgradeable;\r\n\r\n    /**\r\n     * @dev Contract Variables:\r\n     * farmFactory - The contract that deploys new Farms and links them to {lpPool}s.\r\n     * accessManager - Role manager contract.\r\n     */\r\n    IUnoFarmFactory public farmFactory;\r\n    IUnoAccessManager public accessManager;\r\n    bytes32 private constant DISTRIBUTOR_ROLE = keccak256('DISTRIBUTOR_ROLE');\r\n    bytes32 private constant PAUSER_ROLE = keccak256('PAUSER_ROLE');\r\n    IVault constant private Vault = IVault(0xBA12222222228d8Ba445958a75a0704d566BF2C8);\r\n\r\n    uint256 public constant version = 2;\r\n\r\n    event Deposit(address indexed lpPool, address indexed sender, address indexed recipient, uint256 amount);\r\n    event Withdraw(address indexed lpPool, address indexed sender, address indexed recipient, uint256 amount);\r\n    event Distribute(address indexed lpPool, uint256 reward);\r\n\r\n    modifier onlyDistributor(){\r\n        require(accessManager.hasRole(DISTRIBUTOR_ROLE, msg.sender), 'CALLER_NOT_DISTRIBUTOR');\r\n        _;\r\n    }\r\n    modifier onlyPauser(){\r\n        require(accessManager.hasRole(PAUSER_ROLE, msg.sender), 'CALLER_NOT_PAUSER');\r\n        _;\r\n    }\r\n    modifier onlyAdmin(){\r\n        require(accessManager.hasRole(accessManager.ADMIN_ROLE(), msg.sender), 'CALLER_NOT_ADMIN');\r\n        _;\r\n    }\r\n\r\n    // ============ Methods ============\r\n\r\n    function initialize(address _accessManager, address _farmFactory) external initializer{\r\n        __Pausable_init();\r\n        accessManager = IUnoAccessManager(_accessManager);\r\n        farmFactory = IUnoFarmFactory(_farmFactory);\r\n    }\r\n\r\n    /**\r\n     * @dev Deposits tokens in the given pool. Creates new Farm contract if there isn't one deployed for the {lpPool} and deposits tokens in it.\r\n     * @param lpPool - Address of the pool to deposit tokens in.\r\n     * @param amounts - Amounts of tokens to deposit.\r\n     * @param tokens - Tokens to deposit.\r\n     * @param minAmountLP - Minimum LP the user will receive from {{tokens}} deposit.\r\n     * @param amountLP - Additional amount of LP tokens to deposit.\r\n     * @param recipient - Address which will recieve the deposit.\r\n\r\n     * @return liquidity - Total liquidity sent to the farm (in lpTokens).\r\n     */\r\n    function deposit(address lpPool, uint256[] memory amounts, address[] memory tokens, uint256 minAmountLP, uint256 amountLP, address recipient) external whenNotPaused returns(uint256 liquidity){\r\n        require (amounts.length == tokens.length, 'AMOUNTS_AND_TOKENS_LENGTHS_NOT_MATCH');\r\n\r\n        Farm farm = Farm(farmFactory.Farms(lpPool));\r\n        if(farm == Farm(address(0))){\r\n            farm = Farm(farmFactory.createFarm(lpPool));\r\n        }\r\n\r\n        for (uint256 i = 0; i < tokens.length; i++) {\r\n            if(amounts[i] > 0){\r\n                IERC20Upgradeable(tokens[i]).safeTransferFrom(msg.sender, address(farm), amounts[i]);\r\n            }\r\n        }\r\n        if(amountLP > 0){\r\n            IERC20Upgradeable(lpPool).safeTransferFrom(msg.sender, address(farm), amountLP);\r\n        }\r\n        \r\n        liquidity = farm.deposit(amounts, tokens, minAmountLP, amountLP, recipient);\r\n        emit Deposit(lpPool, msg.sender, recipient, liquidity); \r\n    }\r\n\r\n    /** \r\n     * @dev Withdraws tokens from the given pool. \r\n     * @param lpPool - LP pool to withdraw from.\r\n     * @param amount - LP amount to withdraw. \r\n     * @param minAmountsOut - Minimum token amounts the user will recieve.\r\n     * @param withdrawLP - True: Withdraw in LP tokens, False: Withdraw in normal tokens.\r\n     * @param recipient - The address which will recieve tokens.\r\n     */ \r\n    function withdraw(address lpPool, uint256 amount, uint256[] calldata minAmountsOut, bool withdrawLP, address recipient) external whenNotPaused { \r\n        Farm farm = Farm(farmFactory.Farms(lpPool));\r\n        require(farm != Farm(address(0)),'FARM_NOT_EXISTS');\r\n        \r\n        farm.withdraw(amount, minAmountsOut, withdrawLP, msg.sender, recipient); \r\n        emit Withdraw(lpPool, msg.sender, recipient, amount);  \r\n    }\r\n\r\n    /**\r\n     * @dev Distributes tokens between users for a single {Farms[lpPool]}.\r\n     * @param lpPool - The pool to distribute. \r\n     * @param swaps - The data used to swap reward tokens for the needed tokens.\r\n     * @param assets - The data used to swap reward tokens for the needed tokens.\r\n     * @param limits - The data used to swap reward tokens for the needed tokens.\r\n     *\r\n     * Note: This function can only be called by the distributor.\r\n     */\r\n    function distribute(\r\n        address lpPool,\r\n        IVault.BatchSwapStep[][] memory swaps,\r\n        IAsset[][] memory assets,\r\n        int256[][] memory limits\r\n    ) external whenNotPaused onlyDistributor {\r\n        Farm farm = Farm(farmFactory.Farms(lpPool));\r\n        require(farm != Farm(address(0)), 'FARM_NOT_EXISTS');\r\n\r\n        uint256 reward = farm.distribute(swaps, assets, limits);\r\n        emit Distribute(lpPool, reward);\r\n    }\r\n\r\n    /**\r\n     * @dev Returns LP tokens staked by the {_address} for the given {lpPool}.\r\n     * @param _address - The address to check stakes for.\r\n     * @param lpPool - LP pool to check stakes in.\r\n\r\n     * @return Total user stake(in LP tokens).\r\n     */\r\n   function userStake(address _address, address lpPool) external view returns(uint256){\r\n        Farm farm = Farm(farmFactory.Farms(lpPool));\r\n        if (farm != Farm(address(0))) {\r\n            return farm.userBalance(_address);\r\n        }\r\n        return 0;\r\n    }\r\n\r\n    /**\r\n     * @dev Returns total amount locked in the pool. Doesn't take pending rewards into account.\r\n     * @param lpPool - LP pool to check total deposits in.\r\n\r\n     * @return Total deposits (in LP tokens).\r\n     */\r\n    function totalDeposits(address lpPool) external view returns (uint256) {\r\n        Farm farm = Farm(farmFactory.Farms(lpPool));\r\n        if (farm != Farm(address(0))) {\r\n            return farm.getTotalDeposits();\r\n        }\r\n        return 0;\r\n    }\r\n\r\n    /**\r\n     * @dev Returns addresses of tokens in {lpPool}.\r\n     * @param lpPool - LP pool to check tokens in.\r\n\r\n     * @return tokens - Token address.\r\n     */  \r\n    function getTokens(address lpPool) external view returns(IERC20[] memory tokens){\r\n        bytes32 poolId = IBasePool(lpPool).getPoolId();\r\n        (tokens, , ) = Vault.getPoolTokens(poolId);\r\n    }\r\n \r\n    function pause() external onlyPauser {\r\n        _pause();\r\n    }\r\n \r\n    function unpause() external onlyPauser {\r\n        _unpause();\r\n    }\r\n\r\n    function _authorizeUpgrade(address) internal override onlyAdmin {\r\n\r\n    }\r\n}\r\n",
  "sourcePath": "C:\\Users\\jugli\\Desktop\\uno\\uno-contracts-branch\\contracts\\test\\UnoAssetRouterBalancerV2.sol",
  "compiler": {
    "name": "solc",
    "version": "0.8.10+commit.fc410830.Emscripten.clang"
  },
  "schemaVersion": "3.4.7",
  "updatedAt": "2022-07-30T09:44:10.494Z",
  "devdoc": {
    "kind": "dev",
    "methods": {
      "deposit(address,uint256[],address[],uint256,uint256,address)": {
        "details": "Deposits tokens in the given pool. Creates new Farm contract if there isn't one deployed for the {lpPool} and deposits tokens in it.",
        "params": {
          "amountLP": "- Additional amount of LP tokens to deposit.",
          "amounts": "- Amounts of tokens to deposit.",
          "lpPool": "- Address of the pool to deposit tokens in.",
          "minAmountLP": "- Minimum LP the user will receive from {{tokens}} deposit.",
          "recipient": "- Address which will recieve the deposit.",
          "tokens": "- Tokens to deposit."
        },
        "returns": {
          "liquidity": "- Total liquidity sent to the farm (in lpTokens)."
        }
      },
      "distribute(address,(bytes32,uint256,uint256,uint256,bytes)[][],address[][],int256[][])": {
        "details": "Distributes tokens between users for a single {Farms[lpPool]}.",
        "params": {
          "assets": "- The data used to swap reward tokens for the needed tokens.",
          "limits": "- The data used to swap reward tokens for the needed tokens. Note: This function can only be called by the distributor.",
          "lpPool": "- The pool to distribute. ",
          "swaps": "- The data used to swap reward tokens for the needed tokens."
        }
      },
      "getTokens(address)": {
        "details": "Returns addresses of tokens in {lpPool}.",
        "params": {
          "lpPool": "- LP pool to check tokens in."
        },
        "returns": {
          "tokens": "- Token address."
        }
      },
      "paused()": {
        "details": "Returns true if the contract is paused, and false otherwise."
      },
      "proxiableUUID()": {
        "details": "Implementation of the ERC1822 {proxiableUUID} function. This returns the storage slot used by the implementation. It is used to validate that the this implementation remains valid after an upgrade. IMPORTANT: A proxy pointing at a proxiable contract should not be considered proxiable itself, because this risks bricking a proxy that upgrades to it, by delegating to itself until out of gas. Thus it is critical that this function revert if invoked through a proxy. This is guaranteed by the `notDelegated` modifier."
      },
      "totalDeposits(address)": {
        "details": "Returns total amount locked in the pool. Doesn't take pending rewards into account.",
        "params": {
          "lpPool": "- LP pool to check total deposits in."
        },
        "returns": {
          "_0": "Total deposits (in LP tokens)."
        }
      },
      "upgradeTo(address)": {
        "details": "Upgrade the implementation of the proxy to `newImplementation`. Calls {_authorizeUpgrade}. Emits an {Upgraded} event."
      },
      "upgradeToAndCall(address,bytes)": {
        "details": "Upgrade the implementation of the proxy to `newImplementation`, and subsequently execute the function call encoded in `data`. Calls {_authorizeUpgrade}. Emits an {Upgraded} event."
      },
      "userStake(address,address)": {
        "details": "Returns LP tokens staked by the {_address} for the given {lpPool}.",
        "params": {
          "_address": "- The address to check stakes for.",
          "lpPool": "- LP pool to check stakes in."
        },
        "returns": {
          "_0": "Total user stake(in LP tokens)."
        }
      },
      "withdraw(address,uint256,uint256[],bool,address)": {
        "details": "Withdraws tokens from the given pool. ",
        "params": {
          "amount": "- LP amount to withdraw. ",
          "lpPool": "- LP pool to withdraw from.",
          "minAmountsOut": "- Minimum token amounts the user will recieve.",
          "recipient": "- The address which will recieve tokens.",
          "withdrawLP": "- True: Withdraw in LP tokens, False: Withdraw in normal tokens."
        }
      }
    },
    "stateVariables": {
      "farmFactory": {
        "details": "Contract Variables: farmFactory - The contract that deploys new Farms and links them to {lpPool}s. accessManager - Role manager contract."
      }
    },
    "version": 1
  },
  "userdoc": {
    "kind": "user",
    "methods": {},
    "version": 1
  }
}