{
  "contractName": "UnoAssetRouterMeshswap",
  "abi": [
    {
      "inputs": [],
      "stateMutability": "nonpayable",
      "type": "constructor"
    },
    {
      "inputs": [],
      "name": "CALLER_NOT_AUTHORIZED",
      "type": "error"
    },
    {
      "inputs": [],
      "name": "ETH_DEPOSIT_REJECTED",
      "type": "error"
    },
    {
      "inputs": [],
      "name": "FARM_NOT_EXISTS",
      "type": "error"
    },
    {
      "inputs": [],
      "name": "INSUFFICIENT_AMOUNT",
      "type": "error"
    },
    {
      "inputs": [],
      "name": "INVALID_ACCESS_MANAGER",
      "type": "error"
    },
    {
      "inputs": [],
      "name": "INVALID_FARM_FACTORY",
      "type": "error"
    },
    {
      "inputs": [],
      "name": "INVALID_MSG_VALUE",
      "type": "error"
    },
    {
      "inputs": [],
      "name": "INVALID_SWAP_DESCRIPTION",
      "type": "error"
    },
    {
      "inputs": [
        {
          "internalType": "uint256",
          "name": "maxFee",
          "type": "uint256"
        }
      ],
      "name": "MAX_FEE_EXCEEDED",
      "type": "error"
    },
    {
      "inputs": [],
      "name": "NOT_ETH_FARM",
      "type": "error"
    },
    {
      "inputs": [],
      "name": "NO_TOKENS_SENT",
      "type": "error"
    },
    {
      "inputs": [],
      "name": "SWAP_NOT_SUCCESSFUL",
      "type": "error"
    },
    {
      "inputs": [],
      "name": "TRANSFER_NOT_SUCCESSFUL",
      "type": "error"
    },
    {
      "anonymous": false,
      "inputs": [
        {
          "indexed": false,
          "internalType": "address",
          "name": "previousAdmin",
          "type": "address"
        },
        {
          "indexed": false,
          "internalType": "address",
          "name": "newAdmin",
          "type": "address"
        }
      ],
      "name": "AdminChanged",
      "type": "event"
    },
    {
      "anonymous": false,
      "inputs": [
        {
          "indexed": true,
          "internalType": "address",
          "name": "beacon",
          "type": "address"
        }
      ],
      "name": "BeaconUpgraded",
      "type": "event"
    },
    {
      "anonymous": false,
      "inputs": [
        {
          "indexed": true,
          "internalType": "address",
          "name": "lpPool",
          "type": "address"
        },
        {
          "indexed": true,
          "internalType": "address",
          "name": "sender",
          "type": "address"
        },
        {
          "indexed": true,
          "internalType": "address",
          "name": "recipient",
          "type": "address"
        },
        {
          "indexed": false,
          "internalType": "uint256",
          "name": "amount",
          "type": "uint256"
        }
      ],
      "name": "Deposit",
      "type": "event"
    },
    {
      "anonymous": false,
      "inputs": [
        {
          "indexed": true,
          "internalType": "address",
          "name": "lpPool",
          "type": "address"
        },
        {
          "indexed": false,
          "internalType": "uint256",
          "name": "reward",
          "type": "uint256"
        }
      ],
      "name": "Distribute",
      "type": "event"
    },
    {
      "anonymous": false,
      "inputs": [
        {
          "indexed": false,
          "internalType": "uint256",
          "name": "previousFee",
          "type": "uint256"
        },
        {
          "indexed": false,
          "internalType": "uint256",
          "name": "newFee",
          "type": "uint256"
        }
      ],
      "name": "FeeChanged",
      "type": "event"
    },
    {
      "anonymous": false,
      "inputs": [
        {
          "indexed": false,
          "internalType": "uint8",
          "name": "version",
          "type": "uint8"
        }
      ],
      "name": "Initialized",
      "type": "event"
    },
    {
      "anonymous": false,
      "inputs": [
        {
          "indexed": false,
          "internalType": "address",
          "name": "account",
          "type": "address"
        }
      ],
      "name": "Paused",
      "type": "event"
    },
    {
      "anonymous": false,
      "inputs": [
        {
          "indexed": false,
          "internalType": "address",
          "name": "account",
          "type": "address"
        }
      ],
      "name": "Unpaused",
      "type": "event"
    },
    {
      "anonymous": false,
      "inputs": [
        {
          "indexed": true,
          "internalType": "address",
          "name": "implementation",
          "type": "address"
        }
      ],
      "name": "Upgraded",
      "type": "event"
    },
    {
      "anonymous": false,
      "inputs": [
        {
          "indexed": true,
          "internalType": "address",
          "name": "lpPool",
          "type": "address"
        },
        {
          "indexed": true,
          "internalType": "address",
          "name": "sender",
          "type": "address"
        },
        {
          "indexed": true,
          "internalType": "address",
          "name": "recipient",
          "type": "address"
        },
        {
          "indexed": false,
          "internalType": "uint256",
          "name": "amount",
          "type": "uint256"
        }
      ],
      "name": "Withdraw",
      "type": "event"
    },
    {
      "inputs": [],
      "name": "WMATIC",
      "outputs": [
        {
          "internalType": "address",
          "name": "",
          "type": "address"
        }
      ],
      "stateMutability": "view",
      "type": "function"
    },
    {
      "inputs": [],
      "name": "accessManager",
      "outputs": [
        {
          "internalType": "contract IUnoAccessManager",
          "name": "",
          "type": "address"
        }
      ],
      "stateMutability": "view",
      "type": "function"
    },
    {
      "inputs": [],
      "name": "farmFactory",
      "outputs": [
        {
          "internalType": "contract IUnoFarmFactory",
          "name": "",
          "type": "address"
        }
      ],
      "stateMutability": "view",
      "type": "function"
    },
    {
      "inputs": [],
      "name": "fee",
      "outputs": [
        {
          "internalType": "uint256",
          "name": "",
          "type": "uint256"
        }
      ],
      "stateMutability": "view",
      "type": "function"
    },
    {
      "inputs": [],
      "name": "paused",
      "outputs": [
        {
          "internalType": "bool",
          "name": "",
          "type": "bool"
        }
      ],
      "stateMutability": "view",
      "type": "function"
    },
    {
      "inputs": [],
      "name": "proxiableUUID",
      "outputs": [
        {
          "internalType": "bytes32",
          "name": "",
          "type": "bytes32"
        }
      ],
      "stateMutability": "view",
      "type": "function"
    },
    {
      "inputs": [
        {
          "internalType": "address",
          "name": "newImplementation",
          "type": "address"
        }
      ],
      "name": "upgradeTo",
      "outputs": [],
      "stateMutability": "nonpayable",
      "type": "function"
    },
    {
      "inputs": [
        {
          "internalType": "address",
          "name": "newImplementation",
          "type": "address"
        },
        {
          "internalType": "bytes",
          "name": "data",
          "type": "bytes"
        }
      ],
      "name": "upgradeToAndCall",
      "outputs": [],
      "stateMutability": "payable",
      "type": "function"
    },
    {
      "stateMutability": "payable",
      "type": "receive"
    },
    {
      "inputs": [
        {
          "internalType": "address",
          "name": "_accessManager",
          "type": "address"
        },
        {
          "internalType": "address",
          "name": "_farmFactory",
          "type": "address"
        }
      ],
      "name": "initialize",
      "outputs": [],
      "stateMutability": "nonpayable",
      "type": "function"
    },
    {
      "inputs": [
        {
          "internalType": "address",
          "name": "lpPair",
          "type": "address"
        },
        {
          "internalType": "uint256",
          "name": "amountA",
          "type": "uint256"
        },
        {
          "internalType": "uint256",
          "name": "amountB",
          "type": "uint256"
        },
        {
          "internalType": "uint256",
          "name": "amountAMin",
          "type": "uint256"
        },
        {
          "internalType": "uint256",
          "name": "amountBMin",
          "type": "uint256"
        },
        {
          "internalType": "address",
          "name": "recipient",
          "type": "address"
        }
      ],
      "name": "deposit",
      "outputs": [
        {
          "internalType": "uint256",
          "name": "sentA",
          "type": "uint256"
        },
        {
          "internalType": "uint256",
          "name": "sentB",
          "type": "uint256"
        },
        {
          "internalType": "uint256",
          "name": "liquidity",
          "type": "uint256"
        }
      ],
      "stateMutability": "nonpayable",
      "type": "function"
    },
    {
      "inputs": [
        {
          "internalType": "address",
          "name": "lpPair",
          "type": "address"
        },
        {
          "internalType": "uint256",
          "name": "amountToken",
          "type": "uint256"
        },
        {
          "internalType": "uint256",
          "name": "amountTokenMin",
          "type": "uint256"
        },
        {
          "internalType": "uint256",
          "name": "amountETHMin",
          "type": "uint256"
        },
        {
          "internalType": "address",
          "name": "recipient",
          "type": "address"
        }
      ],
      "name": "depositETH",
      "outputs": [
        {
          "internalType": "uint256",
          "name": "sentToken",
          "type": "uint256"
        },
        {
          "internalType": "uint256",
          "name": "sentETH",
          "type": "uint256"
        },
        {
          "internalType": "uint256",
          "name": "liquidity",
          "type": "uint256"
        }
      ],
      "stateMutability": "payable",
      "type": "function"
    },
    {
      "inputs": [
        {
          "internalType": "address",
          "name": "lpPair",
          "type": "address"
        },
        {
          "internalType": "bytes[2]",
          "name": "swapData",
          "type": "bytes[2]"
        },
        {
          "internalType": "address",
          "name": "recipient",
          "type": "address"
        }
      ],
      "name": "depositWithSwap",
      "outputs": [
        {
          "internalType": "uint256",
          "name": "sent0",
          "type": "uint256"
        },
        {
          "internalType": "uint256",
          "name": "sent1",
          "type": "uint256"
        },
        {
          "internalType": "uint256",
          "name": "dustA",
          "type": "uint256"
        },
        {
          "internalType": "uint256",
          "name": "dustB",
          "type": "uint256"
        },
        {
          "internalType": "uint256",
          "name": "liquidity",
          "type": "uint256"
        }
      ],
      "stateMutability": "payable",
      "type": "function"
    },
    {
      "inputs": [
        {
          "internalType": "address",
          "name": "lpPair",
          "type": "address"
        },
        {
          "internalType": "uint256",
          "name": "amount",
          "type": "uint256"
        },
        {
          "internalType": "address",
          "name": "recipient",
          "type": "address"
        }
      ],
      "name": "depositLP",
      "outputs": [],
      "stateMutability": "nonpayable",
      "type": "function"
    },
    {
      "inputs": [
        {
          "internalType": "address",
          "name": "lpPair",
          "type": "address"
        },
        {
          "internalType": "uint256",
          "name": "amount",
          "type": "uint256"
        },
        {
          "internalType": "uint256",
          "name": "amountAMin",
          "type": "uint256"
        },
        {
          "internalType": "uint256",
          "name": "amountBMin",
          "type": "uint256"
        },
        {
          "internalType": "address",
          "name": "recipient",
          "type": "address"
        }
      ],
      "name": "withdraw",
      "outputs": [
        {
          "internalType": "uint256",
          "name": "amountA",
          "type": "uint256"
        },
        {
          "internalType": "uint256",
          "name": "amountB",
          "type": "uint256"
        }
      ],
      "stateMutability": "nonpayable",
      "type": "function"
    },
    {
      "inputs": [
        {
          "internalType": "address",
          "name": "lpPair",
          "type": "address"
        },
        {
          "internalType": "uint256",
          "name": "amount",
          "type": "uint256"
        },
        {
          "internalType": "uint256",
          "name": "amountTokenMin",
          "type": "uint256"
        },
        {
          "internalType": "uint256",
          "name": "amountETHMin",
          "type": "uint256"
        },
        {
          "internalType": "address",
          "name": "recipient",
          "type": "address"
        }
      ],
      "name": "withdrawETH",
      "outputs": [
        {
          "internalType": "uint256",
          "name": "amountToken",
          "type": "uint256"
        },
        {
          "internalType": "uint256",
          "name": "amountETH",
          "type": "uint256"
        }
      ],
      "stateMutability": "nonpayable",
      "type": "function"
    },
    {
      "inputs": [
        {
          "internalType": "address",
          "name": "lpPair",
          "type": "address"
        },
        {
          "internalType": "uint256",
          "name": "amount",
          "type": "uint256"
        },
        {
          "internalType": "bytes[2]",
          "name": "swapData",
          "type": "bytes[2]"
        },
        {
          "internalType": "address",
          "name": "recipient",
          "type": "address"
        }
      ],
      "name": "withdrawWithSwap",
      "outputs": [
        {
          "internalType": "uint256",
          "name": "amount0",
          "type": "uint256"
        },
        {
          "internalType": "uint256",
          "name": "amount1",
          "type": "uint256"
        },
        {
          "internalType": "uint256",
          "name": "amountA",
          "type": "uint256"
        },
        {
          "internalType": "uint256",
          "name": "amountB",
          "type": "uint256"
        }
      ],
      "stateMutability": "nonpayable",
      "type": "function"
    },
    {
      "inputs": [
        {
          "internalType": "address",
          "name": "lpPair",
          "type": "address"
        },
        {
          "internalType": "uint256",
          "name": "amount",
          "type": "uint256"
        },
        {
          "internalType": "address",
          "name": "recipient",
          "type": "address"
        }
      ],
      "name": "withdrawLP",
      "outputs": [],
      "stateMutability": "nonpayable",
      "type": "function"
    },
    {
      "inputs": [
        {
          "internalType": "address",
          "name": "lpPair",
          "type": "address"
        },
        {
          "components": [
            {
              "internalType": "address[]",
              "name": "route",
              "type": "address[]"
            },
            {
              "internalType": "uint256",
              "name": "amountOutMin",
              "type": "uint256"
            }
          ],
          "internalType": "struct IUnoFarm.SwapInfo[2]",
          "name": "swapInfos",
          "type": "tuple[2]"
        },
        {
          "components": [
            {
              "internalType": "address[]",
              "name": "route",
              "type": "address[]"
            },
            {
              "internalType": "uint256",
              "name": "amountOutMin",
              "type": "uint256"
            }
          ],
          "internalType": "struct IUnoFarm.SwapInfo",
          "name": "feeSwapInfo",
          "type": "tuple"
        },
        {
          "internalType": "address",
          "name": "feeTo",
          "type": "address"
        }
      ],
      "name": "distribute",
      "outputs": [
        {
          "internalType": "uint256",
          "name": "reward",
          "type": "uint256"
        }
      ],
      "stateMutability": "nonpayable",
      "type": "function"
    },
    {
      "inputs": [
        {
          "internalType": "address",
          "name": "_address",
          "type": "address"
        },
        {
          "internalType": "address",
          "name": "lpPair",
          "type": "address"
        }
      ],
      "name": "userStake",
      "outputs": [
        {
          "internalType": "uint256",
          "name": "stakeLP",
          "type": "uint256"
        },
        {
          "internalType": "uint256",
          "name": "stakeA",
          "type": "uint256"
        },
        {
          "internalType": "uint256",
          "name": "stakeB",
          "type": "uint256"
        }
      ],
      "stateMutability": "view",
      "type": "function"
    },
    {
      "inputs": [
        {
          "internalType": "address",
          "name": "lpPair",
          "type": "address"
        }
      ],
      "name": "totalDeposits",
      "outputs": [
        {
          "internalType": "uint256",
          "name": "totalDepositsLP",
          "type": "uint256"
        },
        {
          "internalType": "uint256",
          "name": "totalDepositsA",
          "type": "uint256"
        },
        {
          "internalType": "uint256",
          "name": "totalDepositsB",
          "type": "uint256"
        }
      ],
      "stateMutability": "view",
      "type": "function"
    },
    {
      "inputs": [
        {
          "internalType": "address",
          "name": "lpPair",
          "type": "address"
        }
      ],
      "name": "getTokens",
      "outputs": [
        {
          "internalType": "contract IERC20[]",
          "name": "tokens",
          "type": "address[]"
        }
      ],
      "stateMutability": "view",
      "type": "function"
    },
    {
      "inputs": [
        {
          "internalType": "uint256",
          "name": "_fee",
          "type": "uint256"
        }
      ],
      "name": "setFee",
      "outputs": [],
      "stateMutability": "nonpayable",
      "type": "function"
    },
    {
      "inputs": [],
      "name": "pause",
      "outputs": [],
      "stateMutability": "nonpayable",
      "type": "function"
    },
    {
      "inputs": [],
      "name": "unpause",
      "outputs": [],
      "stateMutability": "nonpayable",
      "type": "function"
    }
  ],
  "bytecode": "0x60a0604052306080523480156200001557600080fd5b506200002062000026565b62000156565b6200003260ff62000035565b50565b60008054610100900460ff1615620000ce578160ff1660011480156200006e57506200006c306200014760201b620025051760201c565b155b620000c65760405162461bcd60e51b815260206004820152602e602482015260008051602062004a7b83398151915260448201526d191e481a5b9a5d1a585b1a5e995960921b60648201526084015b60405180910390fd5b506000919050565b60005460ff8084169116106200012d5760405162461bcd60e51b815260206004820152602e602482015260008051602062004a7b83398151915260448201526d191e481a5b9a5d1a585b1a5e995960921b6064820152608401620000bd565b506000805460ff191660ff92909216919091179055600190565b6001600160a01b03163b151590565b6080516148ed6200018e6000396000818161076a015281816107b301528181610f8b01528181610fcb015261116801526148ed6000f3fe60806040526004361061014f5760003560e01c80636505e65e116100b6578063ddca3f431161006f578063ddca3f431461043c578063deb03f4d14610452578063e50e637114610472578063e940325614610492578063fdcb6068146104b2578063fefa4094146104d257600080fd5b80636505e65e1461035757806369fe0e2d146103775780636d25e175146103975780638456cb59146103b757806399cd69de146103cc578063d84ff8421461040757600080fd5b80634d95cad9116101085780634d95cad9146102635780634e816aa8146102a35780634f1ef286146102d157806351bdca3e146102e457806352d1902d1461031f5780635c975abb1461033457600080fd5b80632a895ade1461017c5780633659cfe6146101c15780633f4ba83a146101e1578063450efe21146101f657806346dafa2f14610223578063485cc9551461024357600080fd5b36610177573332141561017557604051635a5e184160e11b815260040160405180910390fd5b005b600080fd5b34801561018857600080fd5b5061019c610197366004613e00565b6104e5565b6040805194855260208501939093529183015260608201526080015b60405180910390f35b3480156101cd57600080fd5b506101756101dc366004613e6c565b61075f565b3480156101ed57600080fd5b50610175610848565b34801561020257600080fd5b50610216610211366004613e6c565b610900565b6040516101b89190613e89565b34801561022f57600080fd5b5061017561023e366004613ed6565b610a4f565b34801561024f57600080fd5b5061017561025e366004613f18565b610c43565b34801561026f57600080fd5b5061028b730d500b1d8e8ef31e21c99d1db9a6444d3adf127081565b6040516001600160a01b0390911681526020016101b8565b3480156102af57600080fd5b506102c36102be366004613f51565b610d37565b6040519081526020016101b8565b6101756102df3660046140a0565b610f80565b3480156102f057600080fd5b506103046102ff366004613f18565b611051565b604080519384526020840192909252908201526060016101b8565b34801561032b57600080fd5b506102c361115b565b34801561034057600080fd5b5060335460ff1660405190151581526020016101b8565b34801561036357600080fd5b506103046103723660046140e6565b61120e565b34801561038357600080fd5b50610175610392366004614144565b61151a565b3480156103a357600080fd5b5060c95461028b906001600160a01b031681565b3480156103c357600080fd5b5061017561169f565b6103df6103da36600461415d565b611757565b604080519586526020860194909452928401919091526060830152608082015260a0016101b8565b34801561041357600080fd5b506104276104223660046141b6565b611aa0565b604080519283526020830191909152016101b8565b34801561044857600080fd5b506102c360cb5481565b34801561045e57600080fd5b5061042761046d3660046141b6565b611cb7565b34801561047e57600080fd5b5061017561048d366004613ed6565b611f63565b34801561049e57600080fd5b506103046104ad366004613e6c565b6120a0565b3480156104be57600080fd5b5060ca5461028b906001600160a01b031681565b6103046104e03660046141b6565b6121a2565b60c95460405163f9d9331d60e01b81526001600160a01b038681166004830152600092839283928392839291169063f9d9331d90602401602060405180830381865afa158015610539573d6000803e3d6000fd5b505050506040513d601f19601f8201168201806040525081019061055d919061420c565b90506001600160a01b0381166105865760405163331fd83f60e11b815260040160405180910390fd5b604051632d182be560e21b8152600481018990523360248201523060448201526001600160a01b0382169063b460af9490606401600060405180830381600087803b1580156105d457600080fd5b505af11580156105e8573d6000803e3d6000fd5b505050506000816001600160a01b0316630fc63d106040518163ffffffff1660e01b8152600401602060405180830381865afa15801561062c573d6000803e3d6000fd5b505050506040513d601f19601f82011682018060405250810190610650919061420c565b90506000826001600160a01b0316635f64b55b6040518163ffffffff1660e01b8152600401602060405180830381865afa158015610692573d6000803e3d6000fd5b505050506040513d601f19601f820116820180604052508101906106b6919061420c565b90506000806106cb8d85858f60008030612514565b90925090506106e56106dd8c8061423f565b86858e612657565b90995096506107026106fa60208d018d61423f565b85848e612657565b8097508199505050896001600160a01b0316336001600160a01b03168e6001600160a01b03166000805160206148318339815191528f60405161074791815260200190565b60405180910390a45050505050945094509450949050565b306001600160a01b037f00000000000000000000000000000000000000000000000000000000000000001614156107b15760405162461bcd60e51b81526004016107a89061428d565b60405180910390fd5b7f00000000000000000000000000000000000000000000000000000000000000006001600160a01b03166107fa600080516020614851833981519152546001600160a01b031690565b6001600160a01b0316146108205760405162461bcd60e51b81526004016107a8906142d9565b610829816128e8565b60408051600080825260208201909252610845918391906129ef565b50565b60ca54604051632474521560e21b81527f65d7a28e3265b37a6474929f336521b332c1681b933f6cb9f3376673440d862a60048201819052336024830152916001600160a01b0316906391d1485490604401602060405180830381865afa1580156108b7573d6000803e3d6000fd5b505050506040513d601f19601f820116820180604052508101906108db9190614325565b6108f8576040516365bc1f8360e11b815260040160405180910390fd5b610845612b5a565b6040805160028082526060808301845292602083019080368337019050509050816001600160a01b0316630dfe16816040518163ffffffff1660e01b8152600401602060405180830381865afa15801561095e573d6000803e3d6000fd5b505050506040513d601f19601f82011682018060405250810190610982919061420c565b8160008151811061099557610995614229565b60200260200101906001600160a01b031690816001600160a01b031681525050816001600160a01b031663d21220a76040518163ffffffff1660e01b8152600401602060405180830381865afa1580156109f3573d6000803e3d6000fd5b505050506040513d601f19601f82011682018060405250810190610a17919061420c565b81600181518110610a2a57610a2a614229565b60200260200101906001600160a01b031690816001600160a01b031681525050919050565b60335460ff1615610a725760405162461bcd60e51b81526004016107a890614347565b81610a905760405163d7eb47e360e01b815260040160405180910390fd5b60c95460405163f9d9331d60e01b81526001600160a01b038581166004830152600092169063f9d9331d90602401602060405180830381865afa158015610adb573d6000803e3d6000fd5b505050506040513d601f19601f82011682018060405250810190610aff919061420c565b90506001600160a01b038116610b815760c954604051621849e360e61b81526001600160a01b0386811660048301529091169063061278c0906024016020604051808303816000875af1158015610b5a573d6000803e3d6000fd5b505050506040513d601f19601f82011682018060405250810190610b7e919061420c565b90505b610b966001600160a01b038516338386612bed565b604051636e553f6560e01b8152600481018490526001600160a01b038381166024830152821690636e553f6590604401600060405180830381600087803b158015610be057600080fd5b505af1158015610bf4573d6000803e3d6000fd5b50505050816001600160a01b0316336001600160a01b0316856001600160a01b031660008051602061487183398151915286604051610c3591815260200190565b60405180910390a450505050565b6000610c4f6001612c5e565b90508015610c67576000805461ff0019166101001790555b6001600160a01b038316610c8e5760405163731df12960e11b815260040160405180910390fd5b6001600160a01b038216610cb45760405162c8b7fd60e21b815260040160405180910390fd5b610cbc612ce6565b60ca80546001600160a01b038086166001600160a01b03199283161790925560c98054928516929091169190911790558015610d32576000805461ff0019169055604051600181527f7f26b83ff96e1f2b6a682f133852f6798a09c465da95921460cefb38474024989060200160405180910390a15b505050565b6000610d4560335460ff1690565b15610d625760405162461bcd60e51b81526004016107a890614347565b60ca54604051632474521560e21b81527ffbd454f36a7e1a388bd6fc3ab10d434aa4578f811acbbcf33afb1c697486313c60048201819052336024830152916001600160a01b0316906391d1485490604401602060405180830381865afa158015610dd1573d6000803e3d6000fd5b505050506040513d601f19601f82011682018060405250810190610df59190614325565b610e12576040516365bc1f8360e11b815260040160405180910390fd5b60c95460405163f9d9331d60e01b81526001600160a01b038881166004830152600092169063f9d9331d90602401602060405180830381865afa158015610e5d573d6000803e3d6000fd5b505050506040513d601f19601f82011682018060405250810190610e81919061420c565b90506001600160a01b038116610eaa5760405163331fd83f60e11b815260040160405180910390fd5b6040805180820182526001600160a01b03868116825260cb54602083015291516336eeb1dd60e01b8152918316916336eeb1dd91610eee918a918a91600401614410565b6020604051808303816000875af1158015610f0d573d6000803e3d6000fd5b505050506040513d601f19601f82011682018060405250810190610f3191906144a9565b9250866001600160a01b03167fc1d32ad5cca423e7dda2123dbf8c482f8e77d00b631c06e903a47f2cec1334df84604051610f6e91815260200190565b60405180910390a25050949350505050565b306001600160a01b037f0000000000000000000000000000000000000000000000000000000000000000161415610fc95760405162461bcd60e51b81526004016107a89061428d565b7f00000000000000000000000000000000000000000000000000000000000000006001600160a01b0316611012600080516020614851833981519152546001600160a01b031690565b6001600160a01b0316146110385760405162461bcd60e51b81526004016107a8906142d9565b611041826128e8565b61104d828260016129ef565b5050565b60c95460405163f9d9331d60e01b81526001600160a01b038381166004830152600092839283928392169063f9d9331d90602401602060405180830381865afa1580156110a2573d6000803e3d6000fd5b505050506040513d601f19601f820116820180604052508101906110c6919061420c565b90506001600160a01b0381161561115357604051630103c92b60e01b81526001600160a01b038781166004830152821690630103c92b90602401602060405180830381865afa15801561111d573d6000803e3d6000fd5b505050506040513d601f19601f8201168201806040525081019061114191906144a9565b935061114d8585612d17565b90935091505b509250925092565b6000306001600160a01b037f000000000000000000000000000000000000000000000000000000000000000016146111fb5760405162461bcd60e51b815260206004820152603860248201527f555550535570677261646561626c653a206d757374206e6f742062652063616c60448201527f6c6564207468726f7567682064656c656761746563616c6c000000000000000060648201526084016107a8565b5060008051602061485183398151915290565b600080600061121f60335460ff1690565b1561123c5760405162461bcd60e51b81526004016107a890614347565b871580611247575086155b156112655760405163d7eb47e360e01b815260040160405180910390fd5b60c95460405163f9d9331d60e01b81526001600160a01b038b81166004830152600092169063f9d9331d90602401602060405180830381865afa1580156112b0573d6000803e3d6000fd5b505050506040513d601f19601f820116820180604052508101906112d4919061420c565b90506001600160a01b0381166113565760c954604051621849e360e61b81526001600160a01b038c811660048301529091169063061278c0906024016020604051808303816000875af115801561132f573d6000803e3d6000fd5b505050506040513d601f19601f82011682018060405250810190611353919061420c565b90505b6000816001600160a01b0316630fc63d106040518163ffffffff1660e01b8152600401602060405180830381865afa158015611396573d6000803e3d6000fd5b505050506040513d601f19601f820116820180604052508101906113ba919061420c565b90506000826001600160a01b0316635f64b55b6040518163ffffffff1660e01b8152600401602060405180830381865afa1580156113fc573d6000803e3d6000fd5b505050506040513d601f19601f82011682018060405250810190611420919061420c565b90506114376001600160a01b03831633308e612bed565b61144c6001600160a01b03821633308d612bed565b61145b82828d8d8d8d89612f52565b604051636e553f6560e01b8152600481018290526001600160a01b038b81166024830152939950919750955090841690636e553f6590604401600060405180830381600087803b1580156114ae57600080fd5b505af11580156114c2573d6000803e3d6000fd5b50505050866001600160a01b0316336001600160a01b03168d6001600160a01b03166000805160206148718339815191528760405161150391815260200190565b60405180910390a450505096509650969350505050565b60ca60009054906101000a90046001600160a01b03166001600160a01b03166375b238fc6040518163ffffffff1660e01b8152600401602060405180830381865afa15801561156d573d6000803e3d6000fd5b505050506040513d601f19601f8201168201806040525081019061159191906144a9565b60ca54604051632474521560e21b8152600481018390523360248201526001600160a01b03909116906391d1485490604401602060405180830381865afa1580156115e0573d6000803e3d6000fd5b505050506040513d601f19601f820116820180604052508101906116049190614325565b611621576040516365bc1f8360e11b815260040160405180910390fd5b670de0b6b3a76400008211156116545760405163704894fb60e11b8152670de0b6b3a764000060048201526024016107a8565b8160cb541461104d5760cb5460408051918252602082018490527f5fc463da23c1b063e66f9e352006a7fbe8db7223c455dc429e881a2dfe2f94f1910160405180910390a15060cb55565b60ca54604051632474521560e21b81527f65d7a28e3265b37a6474929f336521b332c1681b933f6cb9f3376673440d862a60048201819052336024830152916001600160a01b0316906391d1485490604401602060405180830381865afa15801561170e573d6000803e3d6000fd5b505050506040513d601f19601f820116820180604052508101906117329190614325565b61174f576040516365bc1f8360e11b815260040160405180910390fd5b610845613177565b600080600080600061176b60335460ff1690565b156117885760405162461bcd60e51b81526004016107a890614347565b60c95460405163f9d9331d60e01b81526001600160a01b038a81166004830152600092169063f9d9331d90602401602060405180830381865afa1580156117d3573d6000803e3d6000fd5b505050506040513d601f19601f820116820180604052508101906117f7919061420c565b90506001600160a01b0381166118795760c954604051621849e360e61b81526001600160a01b038b811660048301529091169063061278c0906024016020604051808303816000875af1158015611852573d6000803e3d6000fd5b505050506040513d601f19601f82011682018060405250810190611876919061420c565b90505b611882886131cf565b6000816001600160a01b0316630fc63d106040518163ffffffff1660e01b8152600401602060405180830381865afa1580156118c2573d6000803e3d6000fd5b505050506040513d601f19601f820116820180604052508101906118e6919061420c565b90506000826001600160a01b0316635f64b55b6040518163ffffffff1660e01b8152600401602060405180830381865afa158015611928573d6000803e3d6000fd5b505050506040513d601f19601f8201168201806040525081019061194c919061420c565b905060008080806119666119608f8061423f565b886132d9565b909d50909450925061198a8e6001602002810190611984919061423f565b876132d9565b909c5090925090506119a18686868587868d612f52565b809a50819350829550505050866001600160a01b0316636e553f65898f6040518363ffffffff1660e01b81526004016119ed9291909182526001600160a01b0316602082015260400190565b600060405180830381600087803b158015611a0757600080fd5b505af1158015611a1b573d6000803e3d6000fd5b5050505082841115611a3457611a3183856144d8565b99505b80821115611a4957611a4681836144d8565b98505b505050505050866001600160a01b0316336001600160a01b03168a6001600160a01b031660008051602061487183398151915285604051611a8c91815260200190565b60405180910390a450939792965093509350565b60c95460405163f9d9331d60e01b81526001600160a01b038781166004830152600092839283929091169063f9d9331d90602401602060405180830381865afa158015611af1573d6000803e3d6000fd5b505050506040513d601f19601f82011682018060405250810190611b15919061420c565b90506001600160a01b038116611b3e5760405163331fd83f60e11b815260040160405180910390fd5b604051632d182be560e21b8152600481018890523360248201523060448201526001600160a01b0382169063b460af9490606401600060405180830381600087803b158015611b8c57600080fd5b505af1158015611ba0573d6000803e3d6000fd5b50505050611c7588826001600160a01b0316630fc63d106040518163ffffffff1660e01b8152600401602060405180830381865afa158015611be6573d6000803e3d6000fd5b505050506040513d601f19601f82011682018060405250810190611c0a919061420c565b836001600160a01b0316635f64b55b6040518163ffffffff1660e01b8152600401602060405180830381865afa158015611c48573d6000803e3d6000fd5b505050506040513d601f19601f82011682018060405250810190611c6c919061420c565b8a8a8a8a612514565b60405189815291945092506001600160a01b038581169133918b16906000805160206148318339815191529060200160405180910390a4509550959350505050565b60c95460405163f9d9331d60e01b81526001600160a01b038781166004830152600092839283929091169063f9d9331d90602401602060405180830381865afa158015611d08573d6000803e3d6000fd5b505050506040513d601f19601f82011682018060405250810190611d2c919061420c565b90506001600160a01b038116611d555760405163331fd83f60e11b815260040160405180910390fd5b6000816001600160a01b0316630fc63d106040518163ffffffff1660e01b8152600401602060405180830381865afa158015611d95573d6000803e3d6000fd5b505050506040513d601f19601f82011682018060405250810190611db9919061420c565b90506000826001600160a01b0316635f64b55b6040518163ffffffff1660e01b8152600401602060405180830381865afa158015611dfb573d6000803e3d6000fd5b505050506040513d601f19601f82011682018060405250810190611e1f919061420c565b604051632d182be560e21b8152600481018b90523360248201523060448201529091506001600160a01b0384169063b460af9490606401600060405180830381600087803b158015611e7057600080fd5b505af1158015611e84573d6000803e3d6000fd5b505050506001600160a01b038216730d500b1d8e8ef31e21c99d1db9a6444d3adf12701415611ec557611ebb8a828b8b8b8b613683565b9095509350611f11565b6001600160a01b038116730d500b1d8e8ef31e21c99d1db9a6444d3adf12701415611ef857611ebb8a838b8b8b8b613683565b60405163aaf96e6160e01b815260040160405180910390fd5b856001600160a01b0316336001600160a01b03168b6001600160a01b03166000805160206148318339815191528c604051611f4e91815260200190565b60405180910390a45050509550959350505050565b60c95460405163f9d9331d60e01b81526001600160a01b038581166004830152600092169063f9d9331d90602401602060405180830381865afa158015611fae573d6000803e3d6000fd5b505050506040513d601f19601f82011682018060405250810190611fd2919061420c565b90506001600160a01b038116611ffb5760405163331fd83f60e11b815260040160405180910390fd5b604051632d182be560e21b8152600481018490523360248201526001600160a01b03838116604483015282169063b460af9490606401600060405180830381600087803b15801561204b57600080fd5b505af115801561205f573d6000803e3d6000fd5b50505050816001600160a01b0316336001600160a01b0316856001600160a01b031660008051602061483183398151915286604051610c3591815260200190565b60c95460405163f9d9331d60e01b81526001600160a01b038381166004830152600092839283928392169063f9d9331d90602401602060405180830381865afa1580156120f1573d6000803e3d6000fd5b505050506040513d601f19601f82011682018060405250810190612115919061420c565b90506001600160a01b0381161561219a57806001600160a01b031663168a48226040518163ffffffff1660e01b8152600401602060405180830381865afa158015612164573d6000803e3d6000fd5b505050506040513d601f19601f8201168201806040525081019061218891906144a9565b93506121948585612d17565b90935091505b509193909250565b60008060006121b360335460ff1690565b156121d05760405162461bcd60e51b81526004016107a890614347565b3415806121db575086155b156121f95760405163d7eb47e360e01b815260040160405180910390fd5b60c95460405163f9d9331d60e01b81526001600160a01b038a81166004830152600092169063f9d9331d90602401602060405180830381865afa158015612244573d6000803e3d6000fd5b505050506040513d601f19601f82011682018060405250810190612268919061420c565b90506001600160a01b0381166122ea5760c954604051621849e360e61b81526001600160a01b038b811660048301529091169063061278c0906024016020604051808303816000875af11580156122c3573d6000803e3d6000fd5b505050506040513d601f19601f820116820180604052508101906122e7919061420c565b90505b6000816001600160a01b0316630fc63d106040518163ffffffff1660e01b8152600401602060405180830381865afa15801561232a573d6000803e3d6000fd5b505050506040513d601f19601f8201168201806040525081019061234e919061420c565b90506000826001600160a01b0316635f64b55b6040518163ffffffff1660e01b8152600401602060405180830381865afa158015612390573d6000803e3d6000fd5b505050506040513d601f19601f820116820180604052508101906123b4919061420c565b90506001600160a01b038216730d500b1d8e8ef31e21c99d1db9a6444d3adf12701415612409576123f06001600160a01b03821633308d612bed565b6123fd818b8b8b8761379f565b91975095509350612450565b6001600160a01b038116730d500b1d8e8ef31e21c99d1db9a6444d3adf12701415611ef8576124436001600160a01b03831633308d612bed565b6123fd828b8b8b8761379f565b604051636e553f6560e01b8152600481018590526001600160a01b038881166024830152841690636e553f6590604401600060405180830381600087803b15801561249a57600080fd5b505af11580156124ae573d6000803e3d6000fd5b50505050866001600160a01b0316336001600160a01b03168c6001600160a01b0316600080516020614871833981519152876040516124ef91815260200190565b60405180910390a4505050955095509592505050565b6001600160a01b03163b151590565b60405163095ea7b360e01b81527310f4a785f458bc144e370657592488995494663960048201526024810185905260009081906001600160a01b038a169063095ea7b3906044016020604051808303816000875af115801561257a573d6000803e3d6000fd5b505050506040513d601f19601f8201168201806040525081019061259e9190614325565b50604051635d5155ef60e11b81526001600160a01b03808a1660048301528089166024830152604482018890526064820187905260848201869052841660a48201524260c48201527310f4a785f458bc144e37065759248899549466399063baa2abde9060e40160408051808303816000875af1158015612623573d6000803e3d6000fd5b505050506040513d601f19601f8201168201806040525081019061264791906144ef565b909a909950975050505050505050565b60008080612668876004818b614513565b810190612675919061453d565b50915050856001600160a01b031681602001516001600160a01b031614156126b8576126ab6001600160a01b038716858761392b565b84600092509250506128de565b6312aa3caf60e01b6126ce600460008a8c614513565b6126d79161461a565b6001600160e01b0319161415806127045750856001600160a01b031681600001516001600160a01b031614155b8061271157506080810151155b806127325750836001600160a01b031681606001516001600160a01b031614155b1561275057604051631bb5161960e21b815260040160405180910390fd5b8051608082015160405163095ea7b360e01b8152731111111254eeb25477b68fb85ed929f73a960582600482015260248101919091526001600160a01b039091169063095ea7b3906044016020604051808303816000875af11580156127ba573d6000803e3d6000fd5b505050506040513d601f19601f820116820180604052508101906127de9190614325565b50600080731111111254eeb25477b68fb85ed929f73a9605826001600160a01b03168a8a60405161281092919061464a565b6000604051808303816000865af19150503d806000811461284d576040519150601f19603f3d011682016040523d82523d6000602084013e612852565b606091505b509150915081612875576040516306dffaff60e51b815260040160405180910390fd5b60008180602001905181019061288b91906144ef565b9096509050808811156128c0576128a281896144d8565b84519095506128bb906001600160a01b0316888761392b565b6128d9565b604051632cd294cf60e01b815260040160405180910390fd5b505050505b9550959350505050565b60ca60009054906101000a90046001600160a01b03166001600160a01b03166375b238fc6040518163ffffffff1660e01b8152600401602060405180830381865afa15801561293b573d6000803e3d6000fd5b505050506040513d601f19601f8201168201806040525081019061295f91906144a9565b60ca54604051632474521560e21b8152600481018390523360248201526001600160a01b03909116906391d1485490604401602060405180830381865afa1580156129ae573d6000803e3d6000fd5b505050506040513d601f19601f820116820180604052508101906129d29190614325565b61104d576040516365bc1f8360e11b815260040160405180910390fd5b7f4910fdfa16fed3260ed0e7147f7cc6da11a60208b5b9406d12a635614ffd91435460ff1615612a2257610d328361395b565b826001600160a01b03166352d1902d6040518163ffffffff1660e01b8152600401602060405180830381865afa925050508015612a7c575060408051601f3d908101601f19168201909252612a79918101906144a9565b60015b612adf5760405162461bcd60e51b815260206004820152602e60248201527f45524331393637557067726164653a206e657720696d706c656d656e7461746960448201526d6f6e206973206e6f74205555505360901b60648201526084016107a8565b6000805160206148518339815191528114612b4e5760405162461bcd60e51b815260206004820152602960248201527f45524331393637557067726164653a20756e737570706f727465642070726f786044820152681a58589b195555525160ba1b60648201526084016107a8565b50610d328383836139f7565b60335460ff16612ba35760405162461bcd60e51b815260206004820152601460248201527314185d5cd8589b194e881b9bdd081c185d5cd95960621b60448201526064016107a8565b6033805460ff191690557f5db9ee0a495bf2e6ff9c91a7834c1ba4fdd244a5e8aa4e537bd38aeae4b073aa335b6040516001600160a01b03909116815260200160405180910390a1565b6040516001600160a01b0380851660248301528316604482015260648101829052612c589085906323b872dd60e01b906084015b60408051601f198184030181529190526020810180516001600160e01b03166001600160e01b031990931692909217909152613a1c565b50505050565b60008054610100900460ff1615612ca5578160ff166001148015612c815750303b155b612c9d5760405162461bcd60e51b81526004016107a89061465a565b506000919050565b60005460ff808416911610612ccc5760405162461bcd60e51b81526004016107a89061465a565b506000805460ff191660ff92909216919091179055600190565b600054610100900460ff16612d0d5760405162461bcd60e51b81526004016107a8906146a8565b612d15613aee565b565b6000806000846001600160a01b03166318160ddd6040518163ffffffff1660e01b8152600401602060405180830381865afa158015612d5a573d6000803e3d6000fd5b505050506040513d601f19601f82011682018060405250810190612d7e91906144a9565b905080856001600160a01b0316630dfe16816040518163ffffffff1660e01b8152600401602060405180830381865afa158015612dbf573d6000803e3d6000fd5b505050506040513d601f19601f82011682018060405250810190612de3919061420c565b6040516370a0823160e01b81526001600160a01b03888116600483015291909116906370a0823190602401602060405180830381865afa158015612e2b573d6000803e3d6000fd5b505050506040513d601f19601f82011682018060405250810190612e4f91906144a9565b612e5990866146f3565b612e639190614712565b925080856001600160a01b031663d21220a76040518163ffffffff1660e01b8152600401602060405180830381865afa158015612ea4573d6000803e3d6000fd5b505050506040513d601f19601f82011682018060405250810190612ec8919061420c565b6040516370a0823160e01b81526001600160a01b03888116600483015291909116906370a0823190602401602060405180830381865afa158015612f10573d6000803e3d6000fd5b505050506040513d601f19601f82011682018060405250810190612f3491906144a9565b612f3e90866146f3565b612f489190614712565b9150509250929050565b60405163095ea7b360e01b81527310f4a785f458bc144e3706575924889954946639600482015260248101869052600090819081906001600160a01b038b169063095ea7b3906044016020604051808303816000875af1158015612fba573d6000803e3d6000fd5b505050506040513d601f19601f82011682018060405250810190612fde9190614325565b5060405163095ea7b360e01b81527310f4a785f458bc144e37065759248899549466396004820152602481018890526001600160a01b038a169063095ea7b3906044016020604051808303816000875af1158015613040573d6000803e3d6000fd5b505050506040513d601f19601f820116820180604052508101906130649190614325565b5060405162e8e33760e81b81526001600160a01b03808c166004830152808b166024830152604482018a9052606482018990526084820188905260a48201879052851660c48201524260e48201527310f4a785f458bc144e37065759248899549466399063e8e3370090610104016060604051808303816000875af11580156130f1573d6000803e3d6000fd5b505050506040513d601f19601f820116820180604052508101906131159190614734565b91945092509050828811156131435761314333613132858b6144d8565b6001600160a01b038d16919061392b565b8187111561316a5761316a33613159848a6144d8565b6001600160a01b038c16919061392b565b9750975097945050505050565b60335460ff161561319a5760405162461bcd60e51b81526004016107a890614347565b6033805460ff191660011790557f62e78cea01bee320cd4e420270b5ea74000d11b0c9f74754ebdbfc544b05a258612bd03390565b6000806131dc838061423f565b6131ea916004908290614513565b8101906131f7919061453d565b5080519092506001600160a01b031615905080613231575080516001600160a01b031673eeeeeeeeeeeeeeeeeeeeeeeeeeeeeeeeeeeeeeee145b1561323e57806080015191505b600061324d602085018561423f565b61325b916004908290614513565b810190613268919061453d565b5080519092506001600160a01b0316159050806132a2575080516001600160a01b031673eeeeeeeeeeeeeeeeeeeeeeeeeeeeeeeeeeeeeeee145b156132b95760808101516132b69084614762565b92505b823414612c58576040516312463ea160e21b815260040160405180910390fd5b60008080806132eb866004818a614513565b8101906132f8919061453d565b509150508060a001519150846001600160a01b031681600001516001600160a01b0316141561337157608081015161334357604051631bb5161960e21b815260040160405180910390fd5b60808101518151613363916001600160a01b039091169033903090612bed565b60800151925082915061367a565b6312aa3caf60e01b61338760046000898b614513565b6133909161461a565b6001600160e01b0319161415806133bd5750846001600160a01b031681602001516001600160a01b031614155b806133ca57506080810151155b806133e2575060608101516001600160a01b03163014155b1561340057604051631bb5161960e21b815260040160405180910390fd5b80516000906001600160a01b03161580613437575081516001600160a01b031673eeeeeeeeeeeeeeeeeeeeeeeeeeeeeeeeeeeeeeee145b9050806134ee576080820151825161345e916001600160a01b039091169033903090612bed565b8151608083015160405163095ea7b360e01b8152731111111254eeb25477b68fb85ed929f73a960582600482015260248101919091526001600160a01b039091169063095ea7b3906044016020604051808303816000875af11580156134c8573d6000803e3d6000fd5b505050506040513d601f19601f820116820180604052508101906134ec9190614325565b505b6000816134fc576000613502565b82608001515b9050600080731111111254eeb25477b68fb85ed929f73a9605826001600160a01b0316838c8c60405161353692919061464a565b60006040518083038185875af1925050503d8060008114613573576040519150601f19603f3d011682016040523d82523d6000602084013e613578565b606091505b50915091508161359b576040516306dffaff60e51b815260040160405180910390fd5b808060200190518101906135af91906144ef565b80985081995050505050508382608001511115613677578015613651576000336001600160a01b03168584608001516135e891906144d8565b604051600081818185875af1925050503d8060008114613624576040519150601f19603f3d011682016040523d82523d6000602084013e613629565b606091505b505090508061364b5760405163125bf52760e01b815260040160405180910390fd5b50613677565b6136773385846080015161366591906144d8565b84516001600160a01b0316919061392b565b50505b93509350939050565b60405163095ea7b360e01b81527310f4a785f458bc144e370657592488995494663960048201526024810185905260009081906001600160a01b0389169063095ea7b3906044016020604051808303816000875af11580156136e9573d6000803e3d6000fd5b505050506040513d601f19601f8201168201806040525081019061370d9190614325565b50604051629d473b60e21b81527310f4a785f458bc144e3706575924889954946639906302751cec9061374e908a908a908a908a908a90429060040161477a565b60408051808303816000875af115801561376c573d6000803e3d6000fd5b505050506040513d601f19601f8201168201806040525081019061379091906144ef565b90999098509650505050505050565b60405163095ea7b360e01b81527310f4a785f458bc144e3706575924889954946639600482015260248101859052600090819081906001600160a01b0389169063095ea7b3906044016020604051808303816000875af1158015613807573d6000803e3d6000fd5b505050506040513d601f19601f8201168201806040525081019061382b9190614325565b5060405163f305d71960e01b81527310f4a785f458bc144e37065759248899549466399063f305d71990349061386f908c908c908c908c908c90429060040161477a565b60606040518083038185885af115801561388d573d6000803e3d6000fd5b50505050506040513d601f19601f820116820180604052508101906138b29190614734565b91945092509050828711156138e0576138e0336138cf858a6144d8565b6001600160a01b038b16919061392b565b8134111561392057336108fc6138f684346144d8565b6040518115909202916000818181858888f1935050505015801561391e573d6000803e3d6000fd5b505b955095509592505050565b6040516001600160a01b038316602482015260448101829052610d3290849063a9059cbb60e01b90606401612c21565b6001600160a01b0381163b6139c85760405162461bcd60e51b815260206004820152602d60248201527f455243313936373a206e657720696d706c656d656e746174696f6e206973206e60448201526c1bdd08184818dbdb9d1c9858dd609a1b60648201526084016107a8565b60008051602061485183398151915280546001600160a01b0319166001600160a01b0392909216919091179055565b613a0083613b21565b600082511180613a0d5750805b15610d3257612c588383613b61565b6000613a71826040518060400160405280602081526020017f5361666545524332303a206c6f772d6c6576656c2063616c6c206661696c6564815250856001600160a01b0316613c579092919063ffffffff16565b805190915015610d325780806020019051810190613a8f9190614325565b610d325760405162461bcd60e51b815260206004820152602a60248201527f5361666545524332303a204552433230206f7065726174696f6e20646964206e6044820152691bdd081cdd58d8d9595960b21b60648201526084016107a8565b600054610100900460ff16613b155760405162461bcd60e51b81526004016107a8906146a8565b6033805460ff19169055565b613b2a8161395b565b6040516001600160a01b038216907fbc7cd75a20ee27fd9adebab32041f755214dbc6bffa90cc0225b39da2e5c2d3b90600090a250565b60606001600160a01b0383163b613bc95760405162461bcd60e51b815260206004820152602660248201527f416464726573733a2064656c65676174652063616c6c20746f206e6f6e2d636f6044820152651b9d1c9858dd60d21b60648201526084016107a8565b600080846001600160a01b031684604051613be491906147e1565b600060405180830381855af49150503d8060008114613c1f576040519150601f19603f3d011682016040523d82523d6000602084013e613c24565b606091505b5091509150613c4c828260405180606001604052806027815260200161489160279139613c70565b925050505b92915050565b6060613c668484600085613ca9565b90505b9392505050565b60608315613c7f575081613c69565b825115613c8f5782518084602001fd5b8160405162461bcd60e51b81526004016107a891906147fd565b606082471015613d0a5760405162461bcd60e51b815260206004820152602660248201527f416464726573733a20696e73756666696369656e742062616c616e636520666f6044820152651c8818d85b1b60d21b60648201526084016107a8565b6001600160a01b0385163b613d615760405162461bcd60e51b815260206004820152601d60248201527f416464726573733a2063616c6c20746f206e6f6e2d636f6e747261637400000060448201526064016107a8565b600080866001600160a01b03168587604051613d7d91906147e1565b60006040518083038185875af1925050503d8060008114613dba576040519150601f19603f3d011682016040523d82523d6000602084013e613dbf565b606091505b5091509150613dcf828286613c70565b979650505050505050565b6001600160a01b038116811461084557600080fd5b8060408101831015613c5157600080fd5b60008060008060808587031215613e1657600080fd5b8435613e2181613dda565b935060208501359250604085013567ffffffffffffffff811115613e4457600080fd5b613e5087828801613def565b9250506060850135613e6181613dda565b939692955090935050565b600060208284031215613e7e57600080fd5b8135613c6981613dda565b6020808252825182820181905260009190848201906040850190845b81811015613eca5783516001600160a01b031683529284019291840191600101613ea5565b50909695505050505050565b600080600060608486031215613eeb57600080fd5b8335613ef681613dda565b9250602084013591506040840135613f0d81613dda565b809150509250925092565b60008060408385031215613f2b57600080fd5b8235613f3681613dda565b91506020830135613f4681613dda565b809150509250929050565b60008060008060808587031215613f6757600080fd5b8435613f7281613dda565b9350602085013567ffffffffffffffff80821115613f8f57600080fd5b613f9b88838901613def565b94506040870135915080821115613fb157600080fd5b50850160408188031215613fc457600080fd5b91506060850135613e6181613dda565b634e487b7160e01b600052604160045260246000fd5b60405160e0810167ffffffffffffffff8111828210171561400d5761400d613fd4565b60405290565b600082601f83011261402457600080fd5b813567ffffffffffffffff8082111561403f5761403f613fd4565b604051601f8301601f19908116603f0116810190828211818310171561406757614067613fd4565b8160405283815286602085880101111561408057600080fd5b836020870160208301376000602085830101528094505050505092915050565b600080604083850312156140b357600080fd5b82356140be81613dda565b9150602083013567ffffffffffffffff8111156140da57600080fd5b612f4885828601614013565b60008060008060008060c087890312156140ff57600080fd5b863561410a81613dda565b95506020870135945060408701359350606087013592506080870135915060a087013561413681613dda565b809150509295509295509295565b60006020828403121561415657600080fd5b5035919050565b60008060006060848603121561417257600080fd5b833561417d81613dda565b9250602084013567ffffffffffffffff81111561419957600080fd5b6141a586828701613def565b9250506040840135613f0d81613dda565b600080600080600060a086880312156141ce57600080fd5b85356141d981613dda565b945060208601359350604086013592506060860135915060808601356141fe81613dda565b809150509295509295909350565b60006020828403121561421e57600080fd5b8151613c6981613dda565b634e487b7160e01b600052603260045260246000fd5b6000808335601e1984360301811261425657600080fd5b83018035915067ffffffffffffffff82111561427157600080fd5b60200191503681900382131561428657600080fd5b9250929050565b6020808252602c908201527f46756e6374696f6e206d7573742062652063616c6c6564207468726f7567682060408201526b19195b1959d85d1958d85b1b60a21b606082015260800190565b6020808252602c908201527f46756e6374696f6e206d7573742062652063616c6c6564207468726f7567682060408201526b6163746976652070726f787960a01b606082015260800190565b60006020828403121561433757600080fd5b81518015158114613c6957600080fd5b60208082526010908201526f14185d5cd8589b194e881c185d5cd95960821b604082015260600190565b6000604083018235601e1984360301811261438b57600080fd5b83018035602067ffffffffffffffff8211156143a657600080fd5b8160051b36038613156143b857600080fd5b60408752928190529082019160009190606087015b828410156143fd5784356143e081613dda565b6001600160a01b03168152938101936001939093019281016143cd565b9581013596019590955250919392505050565b608080825260009060c083019083018683805b600281101561446b57868503607f190184528235368b9003603e19018112614449578283fd5b614455868c8301614371565b9550506020938401939290920191600101614423565b5050505082810360208401526144818186614371565b84516001600160a01b0316604085015260209094015160609093019290925250909392505050565b6000602082840312156144bb57600080fd5b5051919050565b634e487b7160e01b600052601160045260246000fd5b6000828210156144ea576144ea6144c2565b500390565b6000806040838503121561450257600080fd5b505080516020909101519092909150565b6000808585111561452357600080fd5b8386111561453057600080fd5b5050820193919092039150565b600080600083850361012081121561455457600080fd5b843561455f81613dda565b935060e0601f198201121561457357600080fd5b5061457c613fea565b602085013561458a81613dda565b8152604085013561459a81613dda565b602082015260608501356145ad81613dda565b604082015260808501356145c081613dda565b8060608301525060a0850135608082015260c085013560a082015260e085013560c08201528092505061010084013567ffffffffffffffff81111561460457600080fd5b61461086828701614013565b9150509250925092565b6001600160e01b031981358181169160048510156146425780818660040360031b1b83161692505b505092915050565b8183823760009101908152919050565b6020808252602e908201527f496e697469616c697a61626c653a20636f6e747261637420697320616c72656160408201526d191e481a5b9a5d1a585b1a5e995960921b606082015260800190565b6020808252602b908201527f496e697469616c697a61626c653a20636f6e7472616374206973206e6f74206960408201526a6e697469616c697a696e6760a81b606082015260800190565b600081600019048311821515161561470d5761470d6144c2565b500290565b60008261472f57634e487b7160e01b600052601260045260246000fd5b500490565b60008060006060848603121561474957600080fd5b8351925060208401519150604084015190509250925092565b60008219821115614775576147756144c2565b500190565b6001600160a01b039687168152602081019590955260408501939093526060840191909152909216608082015260a081019190915260c00190565b60005b838110156147d05781810151838201526020016147b8565b83811115612c585750506000910152565b600082516147f38184602087016147b5565b9190910192915050565b602081526000825180602084015261481c8160408501602087016147b5565b601f01601f1916919091016040019291505056fe3115d1449a7b732c986cba18244e897a450f61e1bb8d589cd2e69e6c8924f9f7360894a13ba1a3210667c828492db98dca3e2076cc3735a920a3ca505d382bbc7cfff908a4b583f36430b25d75964c458d8ede8a99bd61be750e97ee1b2f3a96416464726573733a206c6f772d6c6576656c2064656c65676174652063616c6c206661696c6564a26469706673582212206bca9ddf2310612db8e3aa406da9acd3c269da695694242b41e85557e2bacd5364736f6c634300080a0033496e697469616c697a61626c653a20636f6e747261637420697320616c726561",
  "immutableReferences": {
    "561": [
      {
        "length": 32,
        "start": 1898
      },
      {
        "length": 32,
        "start": 1971
      },
      {
        "length": 32,
        "start": 3979
      },
      {
        "length": 32,
        "start": 4043
      },
      {
        "length": 32,
        "start": 4456
      }
    ]
  },
  "source": "// SPDX-License-Identifier: MIT\r\npragma solidity 0.8.10;\r\n\r\nimport './interfaces/IUnoAssetRouterMeshswap.sol'; \r\nimport '../../interfaces/IUnoFarm.sol';\r\nimport \"../../interfaces/IAggregationRouterV5.sol\";\r\nimport \"../../interfaces/IUniswapV2Pair.sol\";\r\nimport \"../../interfaces/IUniswapV2Router.sol\";\r\nimport \"@openzeppelin/contracts-upgradeable/proxy/utils/Initializable.sol\";\r\nimport '@openzeppelin/contracts/token/ERC20/utils/SafeERC20.sol';\r\nimport \"@openzeppelin/contracts-upgradeable/security/PausableUpgradeable.sol\";\r\nimport \"@openzeppelin/contracts-upgradeable/proxy/utils/UUPSUpgradeable.sol\";\r\n\r\ncontract UnoAssetRouterMeshswap is Initializable, PausableUpgradeable, UUPSUpgradeable, IUnoAssetRouterMeshswap {\r\n    using SafeERC20 for IERC20;\r\n\r\n\t/**\r\n\t * @dev Contract Variables:\r\n\t * farmFactory - The contract that deploys new Farms and links them to {lpPair}s.\r\n\t * accessManager - Role manager contract.\r\n\t */\r\n\tIUnoFarmFactory public farmFactory;\r\n\tIUnoAccessManager public accessManager;\r\n\r\n\tbytes32 private constant DISTRIBUTOR_ROLE = keccak256(\"DISTRIBUTOR_ROLE\");\r\n\tbytes32 private constant PAUSER_ROLE = keccak256(\"PAUSER_ROLE\");\r\n\r\n\tuint256 public fee;\r\n\r\n\taddress public constant WMATIC = 0x0d500B1d8E8eF31E21C99d1Db9A6444d3ADf1270;\r\n\tIUniswapV2Router01 private constant MeshswapRouter = IUniswapV2Router01(0x10f4A785F458Bc144e3706575924889954946639);\r\n\taddress private constant OneInchRouter = 0x1111111254EEB25477B68fb85Ed929f73A960582;\r\n\r\n\t    modifier onlyRole(bytes32 role){\r\n        if(!accessManager.hasRole(role, msg.sender)) revert CALLER_NOT_AUTHORIZED();\r\n        _;\r\n    }\r\n\r\n    // ============ Methods ============\r\n\r\n    /// @custom:oz-upgrades-unsafe-allow constructor\r\n    constructor() {\r\n        _disableInitializers();\r\n    }\r\n\r\n    function initialize(address _accessManager, address _farmFactory) external initializer{\r\n        if(_accessManager == address(0)) revert INVALID_ACCESS_MANAGER();\r\n        if(_farmFactory == address(0)) revert INVALID_FARM_FACTORY();\r\n\r\n        __Pausable_init();\r\n        accessManager = IUnoAccessManager(_accessManager);\r\n        farmFactory = IUnoFarmFactory(_farmFactory);\r\n    }\r\n\r\n    receive() external payable {\r\n        //Reject deposits from EOA\r\n        if (msg.sender == tx.origin) revert ETH_DEPOSIT_REJECTED();\r\n    }\r\n\r\n    /**\r\n     * @dev Deposits tokens in the given pool. Creates new Farm contract if there isn't one deployed for the {lpPair} and deposits tokens in it. Emits a {Deposit} event.\r\n     * @param lpPair - Address of the pool to deposit tokens in.\r\n     * @param amountA  - Token A amount to deposit.\r\n     * @param amountB -  Token B amount to deposit.\r\n     * @param amountAMin - Bounds the extent to which the B/A price can go up before the transaction reverts.\r\n     * @param amountBMin - Bounds the extent to which the A/B price can go up before the transaction reverts.\r\n     * @param recipient - Address which will receive the deposit.\r\n     \r\n     * @return sentA - Token A amount sent to the farm.\r\n     * @return sentB - Token B amount sent to the farm.\r\n     * @return liquidity - Total liquidity sent to the farm (in lpTokens).\r\n     */\r\n    function deposit(address lpPair, uint256 amountA, uint256 amountB, uint256 amountAMin, uint256 amountBMin, address recipient) external whenNotPaused returns(uint256 sentA, uint256 sentB, uint256 liquidity){\r\n        if(amountA == 0 || amountB == 0) revert NO_TOKENS_SENT();\r\n        Farm farm = Farm(farmFactory.Farms(lpPair));\r\n        if(farm == Farm(address(0))){\r\n            farm = Farm(farmFactory.createFarm(lpPair));\r\n        }\r\n\r\n        address tokenA = farm.tokenA();\r\n        address tokenB = farm.tokenB();\r\n        IERC20(tokenA).safeTransferFrom(msg.sender, address(this), amountA);\r\n        IERC20(tokenB).safeTransferFrom(msg.sender, address(this), amountB);\r\n\r\n        (sentA, sentB, liquidity) = _addLiquidity(tokenA, tokenB, amountA, amountB, amountAMin, amountBMin, address(farm));\r\n        farm.deposit(liquidity, recipient);\r\n\r\n        emit Deposit(lpPair, msg.sender, recipient, liquidity); \r\n    }\r\n\r\n    /**\r\n     * @dev Autoconverts MATIC into WMATIC and deposits tokens in the given pool. Creates new Farm contract if there isn't one deployed for the {lpStakingPool} and deposits tokens in it. Emits a {Deposit} event.\r\n     * @param lpPair - Address of the pool to deposit tokens in.\r\n     * @param amountToken  - Token amount to deposit.\r\n     * @param amountTokenMin - Bounds the extent to which the TOKEN/WMATIC price can go up before the transaction reverts.\r\n     * @param amountETHMin - Bounds the extent to which the WMATIC/TOKEN price can go up before the transaction reverts.\r\n     * @param recipient - Address which will receive the deposit.\r\n     \r\n     * @return sentToken - Token amount sent to the farm.\r\n     * @return sentETH - WMATIC amount sent to the farm.\r\n     * @return liquidity - Total liquidity sent to the farm (in lpTokens).\r\n     */\r\n    function depositETH(address lpPair, uint256 amountToken, uint256 amountTokenMin, uint256 amountETHMin, address recipient) external payable whenNotPaused returns(uint256 sentToken, uint256 sentETH, uint256 liquidity){\r\n        if(msg.value == 0 || amountToken == 0) revert NO_TOKENS_SENT();\r\n        Farm farm = Farm(farmFactory.Farms(lpPair));\r\n        if(farm == Farm(address(0))){\r\n            farm = Farm(farmFactory.createFarm(lpPair));\r\n        }\r\n\r\n        address tokenA = farm.tokenA();\r\n        address tokenB = farm.tokenB();\r\n        if (tokenA == WMATIC) {\r\n            IERC20(tokenB).safeTransferFrom(msg.sender, address(this), amountToken);\r\n            (sentToken, sentETH, liquidity) = _addLiquidityETH(tokenB, amountToken, amountTokenMin, amountETHMin, address(farm));\r\n        } else if (tokenB == WMATIC) {\r\n            IERC20(tokenA).safeTransferFrom(msg.sender, address(this), amountToken);\r\n            (sentToken, sentETH, liquidity) = _addLiquidityETH(tokenA, amountToken, amountTokenMin, amountETHMin, address(farm));\r\n        } else revert NOT_ETH_FARM();\r\n\r\n        farm.deposit(liquidity, recipient);\r\n\r\n        emit Deposit(lpPair, msg.sender, recipient, liquidity);\r\n    }\r\n\r\n    /**\r\n     * @dev Deposits any tokens in the given pool by swapping them using 1inch. Creates new Farm contract if there isn't one deployed for the {lpPair}, swaps {token} for pool tokens and deposits them. Emits a {Deposit} event.\r\n     * @param lpPair - Address of the pool to deposit tokens in.\r\n     * @param swapData - Parameters with which 1inch router is being called with.\r\n     * @param recipient - Address which will receive the deposit.\r\n     \r\n     * @return sent0 - Tokens sent to the farm from the {swapData[0]}.\r\n     * @return sent1 - Tokens sent to the farm from the {swapData[1]}.\r\n     * @return dustA - TokenA dust sent to the {msg.sender}.\r\n     * @return dustB - TokenB dust sent to the {msg.sender}.\r\n     * @return liquidity - Total liquidity sent to the farm (in lpTokens).\r\n     */\r\n    function depositWithSwap(address lpPair, bytes[2] calldata swapData, address recipient) external payable whenNotPaused returns(uint256 sent0, uint256 sent1, uint256 dustA, uint256 dustB, uint256 liquidity){\r\n        Farm farm = Farm(farmFactory.Farms(lpPair));\r\n        if(farm == Farm(address(0))){\r\n            farm = Farm(farmFactory.createFarm(lpPair));\r\n        }\r\n\r\n        _checkMsgValue(swapData);\r\n        \r\n        {\r\n        address tokenA = farm.tokenA();\r\n        address tokenB = farm.tokenB();\r\n\r\n        uint256 amountA; uint256 amountAMin;\r\n        uint256 amountB; uint256 amountBMin;\r\n        (amountA, sent0, amountAMin) = _swapDeposit(swapData[0], IERC20(tokenA));\r\n        (amountB, sent1, amountBMin) = _swapDeposit(swapData[1], IERC20(tokenB));\r\n\r\n        // Variable naming is not correct, however I have to do it this way to avoid Stack too deep error.\r\n        (amountAMin, amountBMin, liquidity) = _addLiquidity(tokenA, tokenB, amountA, amountB, amountAMin, amountBMin, address(farm));\r\n        farm.deposit(liquidity, recipient);\r\n        \r\n        if(amountA > amountAMin){\r\n            dustA = amountA - amountAMin;\r\n        }\r\n        if(amountB > amountBMin){\r\n            dustB = amountB - amountBMin;\r\n        }\r\n        }\r\n\r\n        emit Deposit(lpPair, msg.sender, recipient, liquidity);\r\n    }\r\n\r\n    /**\r\n     * @dev Deposits tokens in the given pool. Creates new Farm contract if there isn't one deployed for the {lpPair} and deposits tokens in it. Emits a {Deposit} event.\r\n     * @param lpPair - Address of the pool to deposit tokens in.\r\n     * @param amount - LP Token amount to deposit.\r\n     * @param recipient - Address which will receive the deposit.\r\n     */\r\n    function depositLP(address lpPair, uint256 amount, address recipient) external whenNotPaused{\r\n        if(amount == 0) revert NO_TOKENS_SENT();\r\n        Farm farm = Farm(farmFactory.Farms(lpPair));\r\n        if(farm == Farm(address(0))){\r\n            farm = Farm(farmFactory.createFarm(lpPair));\r\n        }\r\n\r\n        IERC20(lpPair).safeTransferFrom(msg.sender, address(farm), amount);\r\n        farm.deposit(amount, recipient);\r\n\r\n        emit Deposit(lpPair, msg.sender, recipient, amount); \r\n    }\r\n\r\n    /** \r\n     * @dev Withdraws a pair of tokens from the given pool. Emits a {Withdraw} event.\r\n     * @param lpPair - LP pool to withdraw from.\r\n     * @param amount - LP amount to withdraw. \r\n     * @param amountAMin - The minimum amount of tokenA that must be received for the transaction not to revert.\r\n     * @param amountBMin - The minimum amount of tokenB that must be received for the transaction not to revert.\r\n     * @param recipient - The address which will receive tokens.\r\n\r\n     * @return amountA - Token A amount sent to the {recipient}\r\n     * @return amountB - Token B amount sent to the {recipient}\r\n     */ \r\n    function withdraw(address lpPair, uint256 amount, uint256 amountAMin, uint256 amountBMin, address recipient) external returns(uint256 amountA, uint256 amountB){\r\n        Farm farm = Farm(farmFactory.Farms(lpPair));\r\n        if(farm == Farm(address(0))) revert FARM_NOT_EXISTS();\r\n\r\n        farm.withdraw(amount, msg.sender, address(this));\r\n        (amountA, amountB) = _removeLiquidity(lpPair, farm.tokenA(), farm.tokenB(), amount, amountAMin, amountBMin, recipient);\r\n        \r\n        emit Withdraw(lpPair, msg.sender, recipient, amount);  \r\n    }\r\n\r\n    /** \r\n     * @dev Autoconverts WMATIC into MATIC and withdraws tokens from the pool. Emits a {Withdraw} event.\r\n     * @param lpPair - LP pool to withdraw from.\r\n     * @param amount - LP amount to withdraw. \r\n     * @param amountTokenMin - The minimum amount of token that must be received for the transaction not to revert.\r\n     * @param amountETHMin - The minimum amount of MATIC that must be received for the transaction not to revert.\r\n     * @param recipient - The address which will receive tokens.\r\n\r\n     * @return amountToken - Token amount sent to the {recipient}.\r\n     * @return amountETH - MATIC amount sent to the {recipient}.\r\n     */ \r\n    function withdrawETH(address lpPair, uint256 amount, uint256 amountTokenMin, uint256 amountETHMin, address recipient) external returns(uint256 amountToken, uint256 amountETH){\r\n        Farm farm = Farm(farmFactory.Farms(lpPair));\r\n        if(farm == Farm(address(0))) revert FARM_NOT_EXISTS();\r\n\r\n        address tokenA = farm.tokenA();\r\n        address tokenB = farm.tokenB();\r\n\r\n        farm.withdraw(amount, msg.sender, address(this));\r\n        if (tokenA == WMATIC) {\r\n            (amountToken, amountETH) = _removeLiquidityETH(lpPair, tokenB, amount, amountTokenMin, amountETHMin, recipient);\r\n        } else if (tokenB == WMATIC) {\r\n            (amountToken, amountETH) = _removeLiquidityETH(lpPair, tokenA, amount, amountTokenMin, amountETHMin, recipient);\r\n        } else revert NOT_ETH_FARM();\r\n\r\n        emit Withdraw(lpPair, msg.sender, recipient, amount);\r\n    }\r\n\r\n    /**\r\n     * @dev Withdraws tokens from the given pool and swap them using 1inch. Emits a {Withdraw} event. Note: If there are any tokens left to be withdrawn after swaps they will be sent to the {{recipient}} in a respective token.\r\n     * @param lpPair - LP pool to withdraw from.\r\n     * @param amount - LP amount to withdraw. \r\n     * @param swapData - Parameters with which 1inch router is being called with.\r\n     * @param recipient - The address which will receive tokens.\r\n     \r\n     * @return amount0 - Tokens sent to the {recipient} from the {swapData[0]}.\r\n     * @return amount1 - Tokens sent to the {recipient} from the {swapData[1]}.\r\n     * @return amountA - TokenA dust sent to the {recipient}.\r\n     * @return amountB - TokenB dust to the {recipient}.\r\n     */\r\n    function withdrawWithSwap(address lpPair, uint256 amount, bytes[2] calldata swapData, address recipient) external returns(uint256 amount0, uint256 amount1, uint256 amountA, uint256 amountB){\r\n        Farm farm = Farm(farmFactory.Farms(lpPair));\r\n        if(farm == Farm(address(0))) revert FARM_NOT_EXISTS();\r\n\r\n        farm.withdraw(amount, msg.sender, address(this));\r\n\r\n        address tokenA = farm.tokenA();\r\n        address tokenB = farm.tokenB();\r\n        (uint256 _amountA, uint256 _amountB) = _removeLiquidity(lpPair, tokenA, tokenB, amount, 0, 0, address(this));\r\n        \r\n        (amount0, amountA) = _swapWithdraw(swapData[0], IERC20(tokenA), _amountA, recipient);\r\n        (amount1, amountB) = _swapWithdraw(swapData[1], IERC20(tokenB), _amountB, recipient);\r\n\r\n        emit Withdraw(lpPair, msg.sender, recipient, amount);\r\n    }\r\n\r\n    /** \r\n     * @dev Withdraws LP tokens from the given pool. Emits a {Withdraw} event.\r\n     * @param lpPair - LP pool to withdraw from.\r\n     * @param amount - LP amount to withdraw. \r\n     * @param recipient - The address which will receive tokens.\r\n     */ \r\n    function withdrawLP(address lpPair, uint256 amount, address recipient) external {\r\n        Farm farm = Farm(farmFactory.Farms(lpPair));\r\n        if(farm == Farm(address(0))) revert FARM_NOT_EXISTS();\r\n        \r\n        farm.withdraw(amount, msg.sender, recipient);\r\n        emit Withdraw(lpPair, msg.sender, recipient, amount);  \r\n    }\r\n\r\n\t/**\r\n\t * @dev Distributes tokens between users.\r\n\t * @param lpPair - LP pool to distribute tokens in.\r\n\t * @param swapInfos - Arrays of structs with token arrays describing swap routes (rewardTokenToTokenA, rewardTokenToTokenB, rewarderTokenToTokenA, rewarderTokenToTokenB) and minimum amounts of output tokens that must be received for the transaction not to revert.\r\n\t * @param feeSwapInfo - Struct with token arrays describing swap route (rewardTokenToFeeToken, rewarderTokenToFeeToken) and minimum amounts of output tokens that must be received for the transaction not to revert.\r\n\t * @param feeTo - Address to collect fees to.\r\n\t *\r\n\t * Note: This function can only be called by the distributor.\r\n\t */\r\n\tfunction distribute(\r\n\t\taddress lpPair,\r\n\t\tFarm.SwapInfo[2] calldata swapInfos,\r\n\t\tFarm.SwapInfo calldata feeSwapInfo,\r\n\t\taddress feeTo\r\n\t) external whenNotPaused onlyRole(DISTRIBUTOR_ROLE) returns(uint256 reward){\r\n\t\tFarm farm = Farm(farmFactory.Farms(lpPair));\r\n        if(farm == Farm(address(0))) revert FARM_NOT_EXISTS();\r\n\r\n        //I don't understand why the definition for FeeInfo can not be imported from Farm\r\n        reward = farm.distribute(swapInfos, feeSwapInfo, IUnoFarm.FeeInfo(feeTo, fee));\r\n\t\temit Distribute(lpPair, reward);\r\n\t}\r\n\r\n\t/**\r\n     * @dev Returns tokens staked by the {_address} for the given {lpPair}.\r\n     * @param _address - The address to check stakes for.\r\n     * @param lpPair - LP pool to check stakes in.\r\n\r\n     * @return stakeLP - Total user stake(in LP tokens).\r\n     * @return stakeA - Token A stake.\r\n     * @return stakeB - Token B stake.\r\n     */\r\n\tfunction userStake(address _address, address lpPair) external view returns (uint256 stakeLP, uint256 stakeA, uint256 stakeB) {\r\n\t\tFarm farm = Farm(farmFactory.Farms(lpPair));\r\n\t\tif (farm != Farm(address(0))) {\r\n\t\t\tstakeLP = farm.userBalance(_address);\r\n\t\t\t(stakeA, stakeB) = _getTokenStake(lpPair, stakeLP);\r\n\t\t}\r\n\t}\r\n\r\n\t/**\r\n     * @dev Returns total amount locked in the pool. Doesn't take pending rewards into account.\r\n     * @param lpPair - LP pool to check total deposits in.\r\n\r\n     * @return totalDepositsLP - Total deposits (in LP tokens).\r\n     * @return totalDepositsA - Token A deposits.\r\n     * @return totalDepositsB - Token B deposits.\r\n     */\r\n\tfunction totalDeposits(address lpPair) external view returns (uint256 totalDepositsLP, uint256 totalDepositsA, uint256 totalDepositsB) {\r\n\t\tFarm farm = Farm(farmFactory.Farms(lpPair));\r\n\t\tif (farm != Farm(address(0))) {\r\n\t\t\ttotalDepositsLP = farm.getTotalDeposits();\r\n\t\t\t(totalDepositsA, totalDepositsB) = _getTokenStake(lpPair, totalDepositsLP);\r\n\t\t}\r\n\t}\r\n\r\n\t/**\r\n     * @dev Returns addresses of tokens in {lpPair}.\r\n     * @param lpPair - LP pair to check tokens in.\r\n\r\n     * @return tokens - Tokens addresses.\r\n     */\r\n\tfunction getTokens(address lpPair) external view returns (IERC20[] memory tokens) {\r\n\t\ttokens = new IERC20[](2);\r\n\t\ttokens[0] = IERC20(IUniswapV2Pair(lpPair).token0());\r\n\t\ttokens[1] = IERC20(IUniswapV2Pair(lpPair).token1());\r\n\t}\r\n\r\n    /**\r\n     * @dev Deposits assets to router & refunds dust.\r\n     */ \r\n    function _addLiquidity(\r\n        address tokenA,\r\n        address tokenB, \r\n        uint256 amountA, \r\n        uint256 amountB, \r\n        uint256 amountAMin, \r\n        uint256 amountBMin, \r\n        address farm\r\n    ) internal returns(uint256 sentA, uint256 sentB, uint256 liquidity){\r\n        IERC20(tokenA).approve(address(MeshswapRouter), amountA);\r\n        IERC20(tokenB).approve(address(MeshswapRouter), amountB);\r\n\r\n        (sentA, sentB, liquidity) = MeshswapRouter.addLiquidity(tokenA, tokenB, amountA, amountB, amountAMin, amountBMin, farm, block.timestamp);\r\n        // Refund dust\r\n        if(amountA > sentA){\r\n            IERC20(tokenA).safeTransfer(msg.sender, amountA - sentA);\r\n        }\r\n        if(amountB > sentB){\r\n\t\t    IERC20(tokenB).safeTransfer(msg.sender, amountB - sentB);\r\n        }\r\n    }\r\n\r\n    /**\r\n     * @dev Deposits assets to router & refunds dust.\r\n     */ \r\n    function _addLiquidityETH(\r\n        address token,\r\n        uint256 amount, \r\n        uint256 amountTokenMin, \r\n        uint256 amountETHMin, \r\n        address farm\r\n    ) internal returns(uint256 sentToken, uint256 sentETH, uint256 liquidity){\r\n        IERC20(token).approve(address(MeshswapRouter), amount);\r\n\r\n        (sentToken, sentETH, liquidity) = MeshswapRouter.addLiquidityETH{value: msg.value}(token, amount, amountTokenMin, amountETHMin, farm, block.timestamp);\r\n        // Refund dust\r\n        if(amount > sentToken){\r\n            IERC20(token).safeTransfer(msg.sender, amount - sentToken);\r\n        }\r\n        if(msg.value > sentETH){\r\n            payable(msg.sender).transfer(msg.value - sentETH);\r\n        }\r\n    }\r\n\r\n    /**\r\n     * @dev Withdraws assets from router.\r\n     */ \r\n    function _removeLiquidity(\r\n        address lpPair,\r\n        address tokenA,\r\n        address tokenB, \r\n        uint256 amount, \r\n        uint256 amountAMin, \r\n        uint256 amountBMin, \r\n        address recipient\r\n    ) internal returns(uint256 amountA, uint256 amountB){\r\n        IERC20(lpPair).approve(address(MeshswapRouter), amount);\r\n        (amountA, amountB) = MeshswapRouter.removeLiquidity(tokenA, tokenB, amount, amountAMin, amountBMin, recipient, block.timestamp);\r\n    }\r\n\r\n    /**\r\n     * @dev Withdraws assets from router.\r\n     */ \r\n    function _removeLiquidityETH(\r\n        address lpPair,\r\n        address token,\r\n        uint256 amount, \r\n        uint256 amountTokenMin, \r\n        uint256 amountETHMin, \r\n        address recipient\r\n    ) internal returns(uint256 amountToken, uint256 amountETH){\r\n        IERC20(lpPair).approve(address(MeshswapRouter), amount);\r\n        (amountToken, amountETH) = MeshswapRouter.removeLiquidityETH(token, amount, amountTokenMin, amountETHMin, recipient, block.timestamp);\r\n    }\r\n\r\n    function _swapDeposit(bytes calldata swapData, IERC20 toToken) internal returns(uint256 returnAmount, uint256 spentAmount, uint256 amountMin){\r\n        (,IAggregationRouterV5.SwapDescription memory desc,) = abi.decode(swapData[4:], (address, IAggregationRouterV5.SwapDescription, bytes));\r\n        \r\n        amountMin = desc.minReturnAmount;\r\n        if(desc.srcToken == toToken){\r\n            if(desc.amount == 0) revert INVALID_SWAP_DESCRIPTION();\r\n            desc.srcToken.safeTransferFrom(msg.sender, address(this), desc.amount);\r\n            return (desc.amount, desc.amount, amountMin);\r\n        }\r\n        \r\n        if(\r\n            bytes4(swapData[:4]) != IAggregationRouterV5.swap.selector || \r\n            desc.dstToken != toToken || \r\n            desc.amount == 0 ||\r\n            desc.dstReceiver != address(this)\r\n        ) revert INVALID_SWAP_DESCRIPTION();\r\n\r\n        bool isETH = (address(desc.srcToken) == address(0) || address(desc.srcToken) == address(0xEeeeeEeeeEeEeeEeEeEeeEEEeeeeEeeeeeeeEEeE));\r\n        if(!isETH){\r\n            desc.srcToken.safeTransferFrom(msg.sender, address(this), desc.amount);\r\n            desc.srcToken.approve(OneInchRouter, desc.amount);\r\n        }\r\n\r\n        {\r\n        uint256 value = isETH ? desc.amount : 0;\r\n        (bool success, bytes memory data) = OneInchRouter.call{value: value}(swapData);\r\n        if(!success) revert SWAP_NOT_SUCCESSFUL();\r\n        (returnAmount, spentAmount) = abi.decode(data, (uint256, uint256));\r\n        }\r\n\r\n        if(desc.amount > spentAmount){\r\n            if(isETH){\r\n                (bool success, ) = msg.sender.call{value: desc.amount - spentAmount}(\"\");\r\n                if(!success) revert TRANSFER_NOT_SUCCESSFUL();\r\n            }else{\r\n                desc.srcToken.safeTransfer(address(msg.sender), desc.amount - spentAmount);\r\n            }\r\n        }\r\n    }\r\n \r\n    function _swapWithdraw(bytes calldata swapData, IERC20 fromToken, uint256 maxAmount, address recipient) internal returns(uint256 returnAmount, uint256 dust){\r\n        (,IAggregationRouterV5.SwapDescription memory desc,) = abi.decode(swapData[4:], (address, IAggregationRouterV5.SwapDescription, bytes));\r\n        \r\n        if(desc.dstToken == fromToken){\r\n            fromToken.safeTransfer(recipient, maxAmount);\r\n            return (maxAmount, 0);\r\n        }\r\n        \r\n        if(\r\n            bytes4(swapData[:4]) != IAggregationRouterV5.swap.selector || \r\n            desc.srcToken != fromToken ||\r\n            desc.amount == 0 ||\r\n            desc.dstReceiver != recipient\r\n        ) revert INVALID_SWAP_DESCRIPTION();\r\n\r\n        desc.srcToken.approve(OneInchRouter, desc.amount);\r\n        (bool success, bytes memory data) = OneInchRouter.call(swapData);\r\n        if(!success) revert SWAP_NOT_SUCCESSFUL();\r\n        uint256 spentAmount;\r\n        (returnAmount, spentAmount) = abi.decode(data, (uint256, uint256));\r\n\r\n        if(maxAmount > spentAmount){\r\n            dust = maxAmount - spentAmount;\r\n            desc.srcToken.safeTransfer(recipient, dust);\r\n        }else revert INSUFFICIENT_AMOUNT();\r\n    }\r\n\r\n    function _checkMsgValue(bytes[2] calldata swapData) internal view {\r\n        uint256 value;\r\n\r\n        (,IAggregationRouterV5.SwapDescription memory desc0,) = abi.decode(swapData[0][4:], (address, IAggregationRouterV5.SwapDescription, bytes));\r\n        if(address(desc0.srcToken) == address(0) || address(desc0.srcToken) == address(0xEeeeeEeeeEeEeeEeEeEeeEEEeeeeEeeeeeeeEEeE)){\r\n            value = desc0.amount;\r\n        }\r\n\r\n        (,IAggregationRouterV5.SwapDescription memory desc1,) = abi.decode(swapData[1][4:], (address, IAggregationRouterV5.SwapDescription, bytes));\r\n        if(address(desc1.srcToken) == address(0) || address(desc1.srcToken) == address(0xEeeeeEeeeEeEeeEeEeEeeEEEeeeeEeeeeeeeEEeE)){\r\n            value += desc1.amount;\r\n        }\r\n\r\n        if(msg.value != value) revert INVALID_MSG_VALUE();\r\n    }\r\n\r\n    /**\r\n     * @dev Converts LP tokens to normal tokens, value(amountA) == value(amountB) == 0.5*amountLP\r\n     * @param lpPair - LP pair for conversion.\r\n     * @param amountLP - Amount of LP tokens to convert.\r\n\r\n     * @return amountA - Token A amount.\r\n     * @return amountB - Token B amount.\r\n     */ \r\n    function _getTokenStake(address lpPair, uint256 amountLP) internal view returns (uint256 amountA, uint256 amountB) {\r\n        uint256 totalSupply = IERC20(lpPair).totalSupply();\r\n        amountA = amountLP * IERC20(IUniswapV2Pair(lpPair).token0()).balanceOf(lpPair) / totalSupply;\r\n        amountB = amountLP * IERC20(IUniswapV2Pair(lpPair).token1()).balanceOf(lpPair) / totalSupply;\r\n    }\r\n\r\n    /**\r\n     * @dev Change fee amount.\r\n     * @param _fee -New fee to collect from farms. [10^18 == 100%]\r\n     *\r\n     * Note: This function can only be called by ADMIN_ROLE.\r\n     */ \r\n    function setFee(uint256 _fee) external onlyRole(accessManager.ADMIN_ROLE()){\r\n        if(_fee > 1 ether) revert MAX_FEE_EXCEEDED(1 ether);\r\n        if(fee != _fee){\r\n            emit FeeChanged(fee, _fee); \r\n            fee = _fee;\r\n        }\r\n    }\r\n\r\n\tfunction pause() external onlyRole(PAUSER_ROLE) {\r\n\t\t_pause();\r\n\t}\r\n\r\n\tfunction unpause() external onlyRole(PAUSER_ROLE) {\r\n\t\t_unpause();\r\n\t}\r\n\r\n\tfunction _authorizeUpgrade(address) internal override onlyRole(accessManager.ADMIN_ROLE()){\r\n\r\n\t}\r\n}",
  "sourcePath": "C:\\Users\\jugli\\Desktop\\uno\\uno-contracts\\contracts\\apps\\meshswap\\UnoAssetRouterMeshswap.sol",
  "compiler": {
    "name": "solc",
    "version": "0.8.10+commit.fc410830.Emscripten.clang"
  },
  "schemaVersion": "3.4.13",
  "updatedAt": "2023-06-09T16:11:40.836Z",
  "devdoc": {
    "kind": "dev",
    "methods": {
      "constructor": {
        "custom:oz-upgrades-unsafe-allow": "constructor"
      },
      "deposit(address,uint256,uint256,uint256,uint256,address)": {
        "details": "Deposits tokens in the given pool. Creates new Farm contract if there isn't one deployed for the {lpPair} and deposits tokens in it. Emits a {Deposit} event.",
        "params": {
          "amountA": "- Token A amount to deposit.",
          "amountAMin": "- Bounds the extent to which the B/A price can go up before the transaction reverts.",
          "amountB": "-  Token B amount to deposit.",
          "amountBMin": "- Bounds the extent to which the A/B price can go up before the transaction reverts.",
          "lpPair": "- Address of the pool to deposit tokens in.",
          "recipient": "- Address which will receive the deposit."
        },
        "returns": {
          "liquidity": "- Total liquidity sent to the farm (in lpTokens).",
          "sentA": "- Token A amount sent to the farm.",
          "sentB": "- Token B amount sent to the farm."
        }
      },
      "depositETH(address,uint256,uint256,uint256,address)": {
        "details": "Autoconverts MATIC into WMATIC and deposits tokens in the given pool. Creates new Farm contract if there isn't one deployed for the {lpStakingPool} and deposits tokens in it. Emits a {Deposit} event.",
        "params": {
          "amountETHMin": "- Bounds the extent to which the WMATIC/TOKEN price can go up before the transaction reverts.",
          "amountToken": "- Token amount to deposit.",
          "amountTokenMin": "- Bounds the extent to which the TOKEN/WMATIC price can go up before the transaction reverts.",
          "lpPair": "- Address of the pool to deposit tokens in.",
          "recipient": "- Address which will receive the deposit."
        },
        "returns": {
          "liquidity": "- Total liquidity sent to the farm (in lpTokens).",
          "sentETH": "- WMATIC amount sent to the farm.",
          "sentToken": "- Token amount sent to the farm."
        }
      },
      "depositLP(address,uint256,address)": {
        "details": "Deposits tokens in the given pool. Creates new Farm contract if there isn't one deployed for the {lpPair} and deposits tokens in it. Emits a {Deposit} event.",
        "params": {
          "amount": "- LP Token amount to deposit.",
          "lpPair": "- Address of the pool to deposit tokens in.",
          "recipient": "- Address which will receive the deposit."
        }
      },
      "depositWithSwap(address,bytes[2],address)": {
        "details": "Deposits any tokens in the given pool by swapping them using 1inch. Creates new Farm contract if there isn't one deployed for the {lpPair}, swaps {token} for pool tokens and deposits them. Emits a {Deposit} event.",
        "params": {
          "lpPair": "- Address of the pool to deposit tokens in.",
          "recipient": "- Address which will receive the deposit.",
          "swapData": "- Parameters with which 1inch router is being called with."
        },
        "returns": {
          "dustA": "- TokenA dust sent to the {msg.sender}.",
          "dustB": "- TokenB dust sent to the {msg.sender}.",
          "liquidity": "- Total liquidity sent to the farm (in lpTokens).",
          "sent0": "- Tokens sent to the farm from the {swapData[0]}.",
          "sent1": "- Tokens sent to the farm from the {swapData[1]}."
        }
      },
      "distribute(address,(address[],uint256)[2],(address[],uint256),address)": {
        "details": "Distributes tokens between users.",
        "params": {
          "feeSwapInfo": "- Struct with token arrays describing swap route (rewardTokenToFeeToken, rewarderTokenToFeeToken) and minimum amounts of output tokens that must be received for the transaction not to revert.",
          "feeTo": "- Address to collect fees to. Note: This function can only be called by the distributor.",
          "lpPair": "- LP pool to distribute tokens in.",
          "swapInfos": "- Arrays of structs with token arrays describing swap routes (rewardTokenToTokenA, rewardTokenToTokenB, rewarderTokenToTokenA, rewarderTokenToTokenB) and minimum amounts of output tokens that must be received for the transaction not to revert."
        }
      },
      "getTokens(address)": {
        "details": "Returns addresses of tokens in {lpPair}.",
        "params": {
          "lpPair": "- LP pair to check tokens in."
        },
        "returns": {
          "tokens": "- Tokens addresses."
        }
      },
      "paused()": {
        "details": "Returns true if the contract is paused, and false otherwise."
      },
      "proxiableUUID()": {
        "details": "Implementation of the ERC1822 {proxiableUUID} function. This returns the storage slot used by the implementation. It is used to validate that the this implementation remains valid after an upgrade. IMPORTANT: A proxy pointing at a proxiable contract should not be considered proxiable itself, because this risks bricking a proxy that upgrades to it, by delegating to itself until out of gas. Thus it is critical that this function revert if invoked through a proxy. This is guaranteed by the `notDelegated` modifier."
      },
      "setFee(uint256)": {
        "details": "Change fee amount.",
        "params": {
          "_fee": "-New fee to collect from farms. [10^18 == 100%] Note: This function can only be called by ADMIN_ROLE."
        }
      },
      "totalDeposits(address)": {
        "details": "Returns total amount locked in the pool. Doesn't take pending rewards into account.",
        "params": {
          "lpPair": "- LP pool to check total deposits in."
        },
        "returns": {
          "totalDepositsA": "- Token A deposits.",
          "totalDepositsB": "- Token B deposits.",
          "totalDepositsLP": "- Total deposits (in LP tokens)."
        }
      },
      "upgradeTo(address)": {
        "details": "Upgrade the implementation of the proxy to `newImplementation`. Calls {_authorizeUpgrade}. Emits an {Upgraded} event."
      },
      "upgradeToAndCall(address,bytes)": {
        "details": "Upgrade the implementation of the proxy to `newImplementation`, and subsequently execute the function call encoded in `data`. Calls {_authorizeUpgrade}. Emits an {Upgraded} event."
      },
      "userStake(address,address)": {
        "details": "Returns tokens staked by the {_address} for the given {lpPair}.",
        "params": {
          "_address": "- The address to check stakes for.",
          "lpPair": "- LP pool to check stakes in."
        },
        "returns": {
          "stakeA": "- Token A stake.",
          "stakeB": "- Token B stake.",
          "stakeLP": "- Total user stake(in LP tokens)."
        }
      },
      "withdraw(address,uint256,uint256,uint256,address)": {
        "details": "Withdraws a pair of tokens from the given pool. Emits a {Withdraw} event.",
        "params": {
          "amount": "- LP amount to withdraw. ",
          "amountAMin": "- The minimum amount of tokenA that must be received for the transaction not to revert.",
          "amountBMin": "- The minimum amount of tokenB that must be received for the transaction not to revert.",
          "lpPair": "- LP pool to withdraw from.",
          "recipient": "- The address which will receive tokens."
        },
        "returns": {
          "amountA": "- Token A amount sent to the {recipient}",
          "amountB": "- Token B amount sent to the {recipient}"
        }
      },
      "withdrawETH(address,uint256,uint256,uint256,address)": {
        "details": "Autoconverts WMATIC into MATIC and withdraws tokens from the pool. Emits a {Withdraw} event.",
        "params": {
          "amount": "- LP amount to withdraw. ",
          "amountETHMin": "- The minimum amount of MATIC that must be received for the transaction not to revert.",
          "amountTokenMin": "- The minimum amount of token that must be received for the transaction not to revert.",
          "lpPair": "- LP pool to withdraw from.",
          "recipient": "- The address which will receive tokens."
        },
        "returns": {
          "amountETH": "- MATIC amount sent to the {recipient}.",
          "amountToken": "- Token amount sent to the {recipient}."
        }
      },
      "withdrawLP(address,uint256,address)": {
        "details": "Withdraws LP tokens from the given pool. Emits a {Withdraw} event.",
        "params": {
          "amount": "- LP amount to withdraw. ",
          "lpPair": "- LP pool to withdraw from.",
          "recipient": "- The address which will receive tokens."
        }
      },
      "withdrawWithSwap(address,uint256,bytes[2],address)": {
        "details": "Withdraws tokens from the given pool and swap them using 1inch. Emits a {Withdraw} event. Note: If there are any tokens left to be withdrawn after swaps they will be sent to the {{recipient}} in a respective token.",
        "params": {
          "amount": "- LP amount to withdraw. ",
          "lpPair": "- LP pool to withdraw from.",
          "recipient": "- The address which will receive tokens.",
          "swapData": "- Parameters with which 1inch router is being called with."
        },
        "returns": {
          "amount0": "- Tokens sent to the {recipient} from the {swapData[0]}.",
          "amount1": "- Tokens sent to the {recipient} from the {swapData[1]}.",
          "amountA": "- TokenA dust sent to the {recipient}.",
          "amountB": "- TokenB dust to the {recipient}."
        }
      }
    },
    "stateVariables": {
      "farmFactory": {
        "details": "Contract Variables: farmFactory - The contract that deploys new Farms and links them to {lpPair}s. accessManager - Role manager contract."
      }
    },
    "version": 1
  },
  "userdoc": {
    "kind": "user",
    "methods": {},
    "version": 1
  }
}