{
  "contractName": "UnoAutoStrategyBanxeDeprecated",
  "abi": [
    {
      "inputs": [],
      "stateMutability": "nonpayable",
      "type": "constructor"
    },
    {
      "anonymous": false,
      "inputs": [
        {
          "indexed": false,
          "internalType": "address",
          "name": "previousAdmin",
          "type": "address"
        },
        {
          "indexed": false,
          "internalType": "address",
          "name": "newAdmin",
          "type": "address"
        }
      ],
      "name": "AdminChanged",
      "type": "event"
    },
    {
      "anonymous": false,
      "inputs": [
        {
          "indexed": true,
          "internalType": "address",
          "name": "owner",
          "type": "address"
        },
        {
          "indexed": true,
          "internalType": "address",
          "name": "spender",
          "type": "address"
        },
        {
          "indexed": false,
          "internalType": "uint256",
          "name": "value",
          "type": "uint256"
        }
      ],
      "name": "Approval",
      "type": "event"
    },
    {
      "anonymous": false,
      "inputs": [
        {
          "indexed": true,
          "internalType": "address",
          "name": "previousBanxe",
          "type": "address"
        },
        {
          "indexed": true,
          "internalType": "address",
          "name": "newBanxe",
          "type": "address"
        }
      ],
      "name": "BanxeTransferred",
      "type": "event"
    },
    {
      "anonymous": false,
      "inputs": [
        {
          "indexed": true,
          "internalType": "address",
          "name": "beacon",
          "type": "address"
        }
      ],
      "name": "BeaconUpgraded",
      "type": "event"
    },
    {
      "anonymous": false,
      "inputs": [
        {
          "indexed": true,
          "internalType": "uint256",
          "name": "poolID",
          "type": "uint256"
        },
        {
          "indexed": true,
          "internalType": "address",
          "name": "from",
          "type": "address"
        },
        {
          "indexed": true,
          "internalType": "address",
          "name": "recipient",
          "type": "address"
        },
        {
          "indexed": false,
          "internalType": "uint256",
          "name": "amountA",
          "type": "uint256"
        },
        {
          "indexed": false,
          "internalType": "uint256",
          "name": "amountB",
          "type": "uint256"
        }
      ],
      "name": "Deposit",
      "type": "event"
    },
    {
      "anonymous": false,
      "inputs": [
        {
          "indexed": false,
          "internalType": "uint8",
          "name": "version",
          "type": "uint8"
        }
      ],
      "name": "Initialized",
      "type": "event"
    },
    {
      "anonymous": false,
      "inputs": [
        {
          "indexed": true,
          "internalType": "uint256",
          "name": "previousPoolID",
          "type": "uint256"
        },
        {
          "indexed": true,
          "internalType": "uint256",
          "name": "nextPoolID",
          "type": "uint256"
        }
      ],
      "name": "MoveLiquidity",
      "type": "event"
    },
    {
      "anonymous": false,
      "inputs": [
        {
          "indexed": false,
          "internalType": "address",
          "name": "account",
          "type": "address"
        }
      ],
      "name": "Paused",
      "type": "event"
    },
    {
      "anonymous": false,
      "inputs": [
        {
          "indexed": true,
          "internalType": "address",
          "name": "from",
          "type": "address"
        },
        {
          "indexed": true,
          "internalType": "address",
          "name": "to",
          "type": "address"
        },
        {
          "indexed": false,
          "internalType": "uint256",
          "name": "value",
          "type": "uint256"
        }
      ],
      "name": "Transfer",
      "type": "event"
    },
    {
      "anonymous": false,
      "inputs": [
        {
          "indexed": false,
          "internalType": "address",
          "name": "account",
          "type": "address"
        }
      ],
      "name": "Unpaused",
      "type": "event"
    },
    {
      "anonymous": false,
      "inputs": [
        {
          "indexed": true,
          "internalType": "address",
          "name": "implementation",
          "type": "address"
        }
      ],
      "name": "Upgraded",
      "type": "event"
    },
    {
      "anonymous": false,
      "inputs": [
        {
          "indexed": true,
          "internalType": "uint256",
          "name": "poolID",
          "type": "uint256"
        },
        {
          "indexed": true,
          "internalType": "address",
          "name": "from",
          "type": "address"
        },
        {
          "indexed": true,
          "internalType": "address",
          "name": "recipient",
          "type": "address"
        },
        {
          "indexed": false,
          "internalType": "uint256",
          "name": "amountA",
          "type": "uint256"
        },
        {
          "indexed": false,
          "internalType": "uint256",
          "name": "amountB",
          "type": "uint256"
        }
      ],
      "name": "Withdraw",
      "type": "event"
    },
    {
      "inputs": [],
      "name": "accessManager",
      "outputs": [
        {
          "internalType": "contract IUnoAccessManager",
          "name": "",
          "type": "address"
        }
      ],
      "stateMutability": "view",
      "type": "function"
    },
    {
      "inputs": [
        {
          "internalType": "address",
          "name": "owner",
          "type": "address"
        },
        {
          "internalType": "address",
          "name": "spender",
          "type": "address"
        }
      ],
      "name": "allowance",
      "outputs": [
        {
          "internalType": "uint256",
          "name": "",
          "type": "uint256"
        }
      ],
      "stateMutability": "view",
      "type": "function"
    },
    {
      "inputs": [
        {
          "internalType": "address",
          "name": "spender",
          "type": "address"
        },
        {
          "internalType": "uint256",
          "name": "amount",
          "type": "uint256"
        }
      ],
      "name": "approve",
      "outputs": [
        {
          "internalType": "bool",
          "name": "",
          "type": "bool"
        }
      ],
      "stateMutability": "nonpayable",
      "type": "function"
    },
    {
      "inputs": [
        {
          "internalType": "address",
          "name": "account",
          "type": "address"
        }
      ],
      "name": "balanceOf",
      "outputs": [
        {
          "internalType": "uint256",
          "name": "",
          "type": "uint256"
        }
      ],
      "stateMutability": "view",
      "type": "function"
    },
    {
      "inputs": [],
      "name": "banxe",
      "outputs": [
        {
          "internalType": "address",
          "name": "",
          "type": "address"
        }
      ],
      "stateMutability": "view",
      "type": "function"
    },
    {
      "inputs": [],
      "name": "decimals",
      "outputs": [
        {
          "internalType": "uint8",
          "name": "",
          "type": "uint8"
        }
      ],
      "stateMutability": "view",
      "type": "function"
    },
    {
      "inputs": [
        {
          "internalType": "address",
          "name": "spender",
          "type": "address"
        },
        {
          "internalType": "uint256",
          "name": "subtractedValue",
          "type": "uint256"
        }
      ],
      "name": "decreaseAllowance",
      "outputs": [
        {
          "internalType": "bool",
          "name": "",
          "type": "bool"
        }
      ],
      "stateMutability": "nonpayable",
      "type": "function"
    },
    {
      "inputs": [
        {
          "internalType": "address",
          "name": "spender",
          "type": "address"
        },
        {
          "internalType": "uint256",
          "name": "addedValue",
          "type": "uint256"
        }
      ],
      "name": "increaseAllowance",
      "outputs": [
        {
          "internalType": "bool",
          "name": "",
          "type": "bool"
        }
      ],
      "stateMutability": "nonpayable",
      "type": "function"
    },
    {
      "inputs": [],
      "name": "name",
      "outputs": [
        {
          "internalType": "string",
          "name": "",
          "type": "string"
        }
      ],
      "stateMutability": "view",
      "type": "function"
    },
    {
      "inputs": [],
      "name": "paused",
      "outputs": [
        {
          "internalType": "bool",
          "name": "",
          "type": "bool"
        }
      ],
      "stateMutability": "view",
      "type": "function"
    },
    {
      "inputs": [],
      "name": "poolID",
      "outputs": [
        {
          "internalType": "uint256",
          "name": "",
          "type": "uint256"
        }
      ],
      "stateMutability": "view",
      "type": "function"
    },
    {
      "inputs": [
        {
          "internalType": "uint256",
          "name": "",
          "type": "uint256"
        }
      ],
      "name": "pools",
      "outputs": [
        {
          "internalType": "address",
          "name": "pool",
          "type": "address"
        },
        {
          "internalType": "contract IUnoAssetRouter",
          "name": "assetRouter",
          "type": "address"
        }
      ],
      "stateMutability": "view",
      "type": "function"
    },
    {
      "inputs": [],
      "name": "proxiableUUID",
      "outputs": [
        {
          "internalType": "bytes32",
          "name": "",
          "type": "bytes32"
        }
      ],
      "stateMutability": "view",
      "type": "function"
    },
    {
      "inputs": [],
      "name": "symbol",
      "outputs": [
        {
          "internalType": "string",
          "name": "",
          "type": "string"
        }
      ],
      "stateMutability": "view",
      "type": "function"
    },
    {
      "inputs": [],
      "name": "tokenA",
      "outputs": [
        {
          "internalType": "contract IERC20Upgradeable",
          "name": "",
          "type": "address"
        }
      ],
      "stateMutability": "view",
      "type": "function"
    },
    {
      "inputs": [],
      "name": "tokenB",
      "outputs": [
        {
          "internalType": "contract IERC20Upgradeable",
          "name": "",
          "type": "address"
        }
      ],
      "stateMutability": "view",
      "type": "function"
    },
    {
      "inputs": [],
      "name": "totalSupply",
      "outputs": [
        {
          "internalType": "uint256",
          "name": "",
          "type": "uint256"
        }
      ],
      "stateMutability": "view",
      "type": "function"
    },
    {
      "inputs": [
        {
          "internalType": "address",
          "name": "to",
          "type": "address"
        },
        {
          "internalType": "uint256",
          "name": "amount",
          "type": "uint256"
        }
      ],
      "name": "transfer",
      "outputs": [
        {
          "internalType": "bool",
          "name": "",
          "type": "bool"
        }
      ],
      "stateMutability": "nonpayable",
      "type": "function"
    },
    {
      "inputs": [
        {
          "internalType": "address",
          "name": "from",
          "type": "address"
        },
        {
          "internalType": "address",
          "name": "to",
          "type": "address"
        },
        {
          "internalType": "uint256",
          "name": "amount",
          "type": "uint256"
        }
      ],
      "name": "transferFrom",
      "outputs": [
        {
          "internalType": "bool",
          "name": "",
          "type": "bool"
        }
      ],
      "stateMutability": "nonpayable",
      "type": "function"
    },
    {
      "inputs": [
        {
          "internalType": "address",
          "name": "newImplementation",
          "type": "address"
        }
      ],
      "name": "upgradeTo",
      "outputs": [],
      "stateMutability": "nonpayable",
      "type": "function"
    },
    {
      "inputs": [
        {
          "internalType": "address",
          "name": "newImplementation",
          "type": "address"
        },
        {
          "internalType": "bytes",
          "name": "data",
          "type": "bytes"
        }
      ],
      "name": "upgradeToAndCall",
      "outputs": [],
      "stateMutability": "payable",
      "type": "function"
    },
    {
      "inputs": [
        {
          "components": [
            {
              "internalType": "address",
              "name": "pool",
              "type": "address"
            },
            {
              "internalType": "contract IUnoAssetRouter",
              "name": "assetRouter",
              "type": "address"
            }
          ],
          "internalType": "struct UnoAutoStrategyBanxeDeprecated.PoolInfo[]",
          "name": "poolInfos",
          "type": "tuple[]"
        },
        {
          "internalType": "contract IUnoAccessManager",
          "name": "_accessManager",
          "type": "address"
        },
        {
          "internalType": "address",
          "name": "_banxe",
          "type": "address"
        }
      ],
      "name": "initialize",
      "outputs": [],
      "stateMutability": "nonpayable",
      "type": "function"
    },
    {
      "inputs": [
        {
          "internalType": "uint256",
          "name": "amountA",
          "type": "uint256"
        },
        {
          "internalType": "uint256",
          "name": "amountB",
          "type": "uint256"
        },
        {
          "internalType": "uint256",
          "name": "amountAMin",
          "type": "uint256"
        },
        {
          "internalType": "uint256",
          "name": "amountBMin",
          "type": "uint256"
        },
        {
          "internalType": "address",
          "name": "recipient",
          "type": "address"
        }
      ],
      "name": "deposit",
      "outputs": [
        {
          "internalType": "uint256",
          "name": "sentA",
          "type": "uint256"
        },
        {
          "internalType": "uint256",
          "name": "sentB",
          "type": "uint256"
        },
        {
          "internalType": "uint256",
          "name": "liquidity",
          "type": "uint256"
        }
      ],
      "stateMutability": "nonpayable",
      "type": "function"
    },
    {
      "inputs": [
        {
          "internalType": "uint256",
          "name": "liquidity",
          "type": "uint256"
        },
        {
          "internalType": "uint256",
          "name": "amountAMin",
          "type": "uint256"
        },
        {
          "internalType": "uint256",
          "name": "amountBMin",
          "type": "uint256"
        },
        {
          "internalType": "address",
          "name": "recipient",
          "type": "address"
        }
      ],
      "name": "withdraw",
      "outputs": [
        {
          "internalType": "uint256",
          "name": "amountA",
          "type": "uint256"
        },
        {
          "internalType": "uint256",
          "name": "amountB",
          "type": "uint256"
        }
      ],
      "stateMutability": "nonpayable",
      "type": "function"
    },
    {
      "inputs": [
        {
          "internalType": "uint256",
          "name": "_poolID",
          "type": "uint256"
        },
        {
          "internalType": "uint256",
          "name": "amountAMin",
          "type": "uint256"
        },
        {
          "internalType": "uint256",
          "name": "amountBMin",
          "type": "uint256"
        }
      ],
      "name": "moveLiquidity",
      "outputs": [],
      "stateMutability": "nonpayable",
      "type": "function"
    },
    {
      "inputs": [
        {
          "components": [
            {
              "internalType": "address",
              "name": "pool",
              "type": "address"
            },
            {
              "internalType": "contract IUnoAssetRouter",
              "name": "assetRouter",
              "type": "address"
            }
          ],
          "internalType": "struct UnoAutoStrategyBanxeDeprecated.PoolInfo",
          "name": "poolInfo",
          "type": "tuple"
        }
      ],
      "name": "addPool",
      "outputs": [],
      "stateMutability": "nonpayable",
      "type": "function"
    },
    {
      "inputs": [
        {
          "internalType": "address",
          "name": "_address",
          "type": "address"
        }
      ],
      "name": "userStake",
      "outputs": [
        {
          "internalType": "uint256",
          "name": "stakeA",
          "type": "uint256"
        },
        {
          "internalType": "uint256",
          "name": "stakeB",
          "type": "uint256"
        }
      ],
      "stateMutability": "view",
      "type": "function"
    },
    {
      "inputs": [],
      "name": "totalDeposits",
      "outputs": [
        {
          "internalType": "uint256",
          "name": "totalDepositsA",
          "type": "uint256"
        },
        {
          "internalType": "uint256",
          "name": "totalDepositsB",
          "type": "uint256"
        }
      ],
      "stateMutability": "view",
      "type": "function"
    },
    {
      "inputs": [],
      "name": "poolsLength",
      "outputs": [
        {
          "internalType": "uint256",
          "name": "",
          "type": "uint256"
        }
      ],
      "stateMutability": "view",
      "type": "function"
    },
    {
      "inputs": [],
      "name": "tokens",
      "outputs": [
        {
          "internalType": "address",
          "name": "",
          "type": "address"
        },
        {
          "internalType": "address",
          "name": "",
          "type": "address"
        }
      ],
      "stateMutability": "view",
      "type": "function"
    },
    {
      "inputs": [
        {
          "internalType": "address",
          "name": "_banxe",
          "type": "address"
        }
      ],
      "name": "transferBanxe",
      "outputs": [],
      "stateMutability": "nonpayable",
      "type": "function"
    },
    {
      "inputs": [],
      "name": "pause",
      "outputs": [],
      "stateMutability": "nonpayable",
      "type": "function"
    },
    {
      "inputs": [],
      "name": "unpause",
      "outputs": [],
      "stateMutability": "nonpayable",
      "type": "function"
    }
  ],
  "bytecode": "0x60a0604052306080523480156200001557600080fd5b506200002062000026565b6200013f565b6200003260ff62000035565b50565b60008054610100900460ff16156200009e578160ff1660011480156200006e57506200006c30620000e260201b620023fd1760201c565b155b620000965760405162461bcd60e51b81526004016200008d90620000f1565b60405180910390fd5b506000919050565b60005460ff808416911610620000c85760405162461bcd60e51b81526004016200008d90620000f1565b506000805460ff191660ff92909216919091179055600190565b6001600160a01b03163b151590565b6020808252602e908201527f496e697469616c697a61626c653a20636f6e747261637420697320616c72656160408201526d191e481a5b9a5d1a585b1a5e995960921b606082015260800190565b6080516144d56200017760003960008181610a4701528181610a8701528181610d4701528181610d870152610e0301526144d56000f3fe60806040526004361061017e5760003560e01c806306fdde0314610183578063095ea7b3146101ae5780630fc63d10146101de57806316b3514f1461020c57806318160ddd1461022e57806323b872dd1461024d5780632716ae661461026d578063313ce567146102835780633659cfe61461029f578063365d0ed7146102bf57806339509351146102fa5780633f4ba83a1461031a5780634f1ef2861461032f57806352d1902d146103425780635c975abb146103575780635f64b55b1461036f57806368e5585d1461039057806370a08231146103c557806376216f7b146103e55780637d882097146104065780638456cb591461041b5780638d9344851461043057806395d89b41146104475780639d63848a1461045c578063a457c2d71461048d578063a9059cbb146104ad578063ac4afa38146104cd578063b845f1c6146104ed578063d331bef71461050d578063d72ef07c1461052d578063dd62ed3e1461054d578063e25212c91461056d578063fdcb60681461058d575b600080fd5b34801561018f57600080fd5b506101986105ae565b6040516101a59190613abd565b60405180910390f35b3480156101ba57600080fd5b506101ce6101c9366004613b05565b610640565b60405190151581526020016101a5565b3480156101ea57600080fd5b50610130546101ff906001600160a01b031681565b6040516101a59190613b31565b34801561021857600080fd5b5061022c610227366004613b45565b610658565b005b34801561023a57600080fd5b506035545b6040519081526020016101a5565b34801561025957600080fd5b506101ce610268366004613b5d565b610a16565b34801561027957600080fd5b5061012f5461023f565b34801561028f57600080fd5b50604051601281526020016101a5565b3480156102ab57600080fd5b5061022c6102ba366004613b9e565b610a3c565b3480156102cb57600080fd5b506102df6102da366004613bbb565b610b05565b604080519384526020840192909252908201526060016101a5565b34801561030657600080fd5b506101ce610315366004613b05565b610c74565b34801561032657600080fd5b5061022c610c96565b61022c61033d366004613c4e565b610d3c565b34801561034e57600080fd5b5061023f610df6565b34801561036357600080fd5b5060975460ff166101ce565b34801561037b57600080fd5b50610131546101ff906001600160a01b031681565b34801561039c57600080fd5b506103b06103ab366004613b9e565b610ea4565b604080519283526020830191909152016101a5565b3480156103d157600080fd5b5061023f6103e0366004613b9e565b6111ff565b3480156103f157600080fd5b5061012d546101ff906001600160a01b031681565b34801561041257600080fd5b506103b061121a565b34801561042757600080fd5b5061022c611510565b34801561043c57600080fd5b5061023f61012e5481565b34801561045357600080fd5b506101986115b6565b34801561046857600080fd5b5061013054610131546001600160a01b0391821691165b6040516101a5929190613cf5565b34801561049957600080fd5b506101ce6104a8366004613b05565b6115c5565b3480156104b957600080fd5b506101ce6104c8366004613b05565b61164b565b3480156104d957600080fd5b5061047f6104e8366004613d0f565b611659565b3480156104f957600080fd5b5061022c610508366004613d28565b611693565b34801561051957600080fd5b506103b0610528366004613dbe565b611ce7565b34801561053957600080fd5b5061022c610548366004613df4565b611f42565b34801561055957600080fd5b5061023f610568366004613e20565b6122f8565b34801561057957600080fd5b5061022c610588366004613b9e565b612323565b34801561059957600080fd5b50610133546101ff906001600160a01b031681565b6060603680546105bd90613e59565b80601f01602080910402602001604051908101604052809291908181526020018280546105e990613e59565b80156106365780601f1061060b57610100808354040283529160200191610636565b820191906000526020600020905b81548152906001019060200180831161061957829003601f168201915b5050505050905090565b60003361064e81858561240c565b5060019392505050565b6101345461013354604051632474521560e21b81526001600160a01b03909116906391d148549061068f9084903390600401613e8e565b602060405180830381865afa1580156106ac573d6000803e3d6000fd5b505050506040513d601f19601f820116820180604052508101906106d09190613ea5565b6106f55760405162461bcd60e51b81526004016106ec90613ec7565b60405180910390fd5b60006107076040840160208501613b9e565b6001600160a01b031663450efe216107226020860186613b9e565b6040518263ffffffff1660e01b815260040161073e9190613b31565b600060405180830381865afa15801561075b573d6000803e3d6000fd5b505050506040513d6000823e601f3d908101601f191682016040526107839190810190613ef6565b6101305481519192506001600160a01b03169082906000906107a7576107a7613fa7565b60200260200101516001600160a01b03161480156107f857506101315481516001600160a01b0390911690829060019081106107e5576107e5613fa7565b60200260200101516001600160a01b0316145b8061087257506101315481516001600160a01b0390911690829060009061082157610821613fa7565b60200260200101516001600160a01b031614801561087257506101305481516001600160a01b03909116908290600190811061085f5761085f613fa7565b60200260200101516001600160a01b0316145b61088e5760405162461bcd60e51b81526004016106ec90613fbd565b61012f80546001810182556000919091528390600202600080516020614419833981519152016108be8282614008565b505061012f54603210156109055760405162461bcd60e51b815260206004820152600e60248201526d544f4f5f4d414e595f504f4f4c5360901b60448201526064016106ec565b610130546001600160a01b031663095ea7b36109276040860160208701613b9e565b6000196040518363ffffffff1660e01b8152600401610947929190614039565b6020604051808303816000875af1158015610966573d6000803e3d6000fd5b505050506040513d601f19601f8201168201806040525081019061098a9190613ea5565b50610131546001600160a01b031663095ea7b36109ad6040860160208701613b9e565b6000196040518363ffffffff1660e01b81526004016109cd929190614039565b6020604051808303816000875af11580156109ec573d6000803e3d6000fd5b505050506040513d601f19601f82011682018060405250810190610a109190613ea5565b50505050565b600033610a24858285612530565b610a2f8585856125a4565b60019150505b9392505050565b306001600160a01b037f0000000000000000000000000000000000000000000000000000000000000000161415610a855760405162461bcd60e51b81526004016106ec90614052565b7f00000000000000000000000000000000000000000000000000000000000000006001600160a01b0316610ab7612760565b6001600160a01b031614610add5760405162461bcd60e51b81526004016106ec9061408c565b610ae68161277c565b60408051600080825260208201909252610b0291839190612810565b50565b61012d54600090819081906001600160a01b03163314610b375760405162461bcd60e51b81526004016106ec906140c6565b60975460ff1615610b5a5760405162461bcd60e51b81526004016106ec906140f0565b60026065541415610b7d5760405162461bcd60e51b81526004016106ec9061411a565b600260655561013054610b9b906001600160a01b031633308b612980565b61013154610bb4906001600160a01b031633308a612980565b610bc0888888886129eb565b509093509150610bcf84612c02565b9050610bf333610bdf858b614167565b610130546001600160a01b03169190612d85565b610c1533610c01848a614167565b610131546001600160a01b03169190612d85565b61012e5460408051858152602081018590526001600160a01b03871692339290917feb65d0f36862bbd8763c5e2c983c9d753267d223eee35a224d8d0a9d7ef433a2910160405180910390a46001606581905550955095509592505050565b60003361064e818585610c8783836122f8565b610c91919061417e565b61240c565b61013354604051632474521560e21b8152600080516020614439833981519152916001600160a01b0316906391d1485490610cd79084903390600401613e8e565b602060405180830381865afa158015610cf4573d6000803e3d6000fd5b505050506040513d601f19601f82011682018060405250810190610d189190613ea5565b610d345760405162461bcd60e51b81526004016106ec90613ec7565b610b02612da4565b306001600160a01b037f0000000000000000000000000000000000000000000000000000000000000000161415610d855760405162461bcd60e51b81526004016106ec90614052565b7f00000000000000000000000000000000000000000000000000000000000000006001600160a01b0316610db7612760565b6001600160a01b031614610ddd5760405162461bcd60e51b81526004016106ec9061408c565b610de68261277c565b610df282826001612810565b5050565b6000306001600160a01b037f00000000000000000000000000000000000000000000000000000000000000001614610e915760405162461bcd60e51b815260206004820152603860248201527f555550535570677261646561626c653a206d757374206e6f742062652063616c6044820152771b1959081d1a1c9bdd59da0819195b1959d85d1958d85b1b60421b60648201526084016106ec565b506000805160206143f983398151915290565b600080600061012f61012e5481548110610ec057610ec0613fa7565b60009182526020808320604080518082018252600290940290910180546001600160a01b0390811680865260019092015416928401839052905163450efe2160e01b8152929450839283929163450efe2191610f1f9190600401613b31565b600060405180830381865afa158015610f3c573d6000803e3d6000fd5b505050506040513d6000823e601f3d908101601f19168201604052610f649190810190613ef6565b6101305481519192506001600160a01b0316908290600090610f8857610f88613fa7565b60200260200101516001600160a01b0316141561102157602084015184516040516328dee51f60e11b81526001600160a01b03909216916351bdca3e91610fd491309190600401613cf5565b606060405180830381865afa158015610ff1573d6000803e3d6000fd5b505050506040513d601f19601f820116820180604052508101906110159190614196565b909450925061109d9050565b602084015184516040516328dee51f60e11b81526001600160a01b03909216916351bdca3e9161105691309190600401613cf5565b606060405180830381865afa158015611073573d6000803e3d6000fd5b505050506040513d601f19601f820116820180604052508101906110979190614196565b94509250505b60006110a8886111ff565b905080156111f55760006110bb60355490565b610130546040516370a0823160e01b81529192506000916001600160a01b03909116906370a08231906110f2903090600401613b31565b602060405180830381865afa15801561110f573d6000803e3d6000fd5b505050506040513d601f19601f8201168201806040525081019061113391906141c4565b610131546040516370a0823160e01b81529192506000916001600160a01b03909116906370a082319061116a903090600401613b31565b602060405180830381865afa158015611187573d6000803e3d6000fd5b505050506040513d601f19601f820116820180604052508101906111ab91906141c4565b905081836111b989876141dd565b6111c391906141fc565b6111cd919061417e565b995080836111db88876141dd565b6111e591906141fc565b6111ef919061417e565b98505050505b5050505050915091565b6001600160a01b031660009081526033602052604090205490565b600080600061012f61012e548154811061123657611236613fa7565b60009182526020808320604080518082018252600290940290910180546001600160a01b0390811680865260019092015416928401839052905163450efe2160e01b8152929450909163450efe219161129191600401613b31565b600060405180830381865afa1580156112ae573d6000803e3d6000fd5b505050506040513d6000823e601f3d908101601f191682016040526112d69190810190613ef6565b6101305481519192506001600160a01b03169082906000906112fa576112fa613fa7565b60200260200101516001600160a01b0316141561139357602082015182516040516328dee51f60e11b81526001600160a01b03909216916351bdca3e9161134691309190600401613cf5565b606060405180830381865afa158015611363573d6000803e3d6000fd5b505050506040513d601f19601f820116820180604052508101906113879190614196565b909550935061140f9050565b602082015182516040516328dee51f60e11b81526001600160a01b03909216916351bdca3e916113c891309190600401613cf5565b606060405180830381865afa1580156113e5573d6000803e3d6000fd5b505050506040513d601f19601f820116820180604052508101906114099190614196565b95509350505b610130546040516370a0823160e01b81526001600160a01b03909116906370a0823190611440903090600401613b31565b602060405180830381865afa15801561145d573d6000803e3d6000fd5b505050506040513d601f19601f8201168201806040525081019061148191906141c4565b61148b908561417e565b610131546040516370a0823160e01b81529195506001600160a01b0316906370a08231906114bd903090600401613b31565b602060405180830381865afa1580156114da573d6000803e3d6000fd5b505050506040513d601f19601f820116820180604052508101906114fe91906141c4565b611508908461417e565b925050509091565b61013354604051632474521560e21b8152600080516020614439833981519152916001600160a01b0316906391d14854906115519084903390600401613e8e565b602060405180830381865afa15801561156e573d6000803e3d6000fd5b505050506040513d601f19601f820116820180604052508101906115929190613ea5565b6115ae5760405162461bcd60e51b81526004016106ec90613ec7565b610b02612e31565b6060603780546105bd90613e59565b600033816115d382866122f8565b9050838110156116335760405162461bcd60e51b815260206004820152602560248201527f45524332303a2064656372656173656420616c6c6f77616e63652062656c6f77604482015264207a65726f60d81b60648201526084016106ec565b611640828686840361240c565b506001949350505050565b60003361064e8185856125a4565b61012f818154811061166a57600080fd5b6000918252602090912060029091020180546001909101546001600160a01b0391821692501682565b600061169f6001612e89565b905080156116b7576000805461ff0019166101001790555b600284108015906116c9575060328411155b6117065760405162461bcd60e51b815260206004820152600e60248201526d10905117d413d3d317d0d3d5539560921b60448201526064016106ec565b61176260405180604001604052806016815260200175554e4f2d42616e78652d4175746f537472617465677960501b8152506040518060400160405280600c81526020016b0554e4f2d42414e58452d4c560a41b815250612f18565b61176a612f49565b611772612f7a565b60008585600081811061178757611787613fa7565b905060400201602001602081019061179f9190613b9e565b6001600160a01b031663450efe21878760008181106117c0576117c0613fa7565b6117d69260206040909202019081019150613b9e565b6040518263ffffffff1660e01b81526004016117f29190613b31565b600060405180830381865afa15801561180f573d6000803e3d6000fd5b505050506040513d6000823e601f3d908101601f191682016040526118379190810190613ef6565b90508060008151811061184c5761184c613fa7565b602002602001015161013060006101000a8154816001600160a01b0302191690836001600160a01b031602179055508060018151811061188e5761188e613fa7565b602002602001015161013160006101000a8154816001600160a01b0302191690836001600160a01b0316021790555060005b85811015611bfa5760008787838181106118dc576118dc613fa7565b9050604002018036038101906118f2919061421e565b90508115611a80576020810151815160405163450efe2160e01b81526000926001600160a01b03169163450efe219161192e9190600401613b31565b600060405180830381865afa15801561194b573d6000803e3d6000fd5b505050506040513d6000823e601f3d908101601f191682016040526119739190810190613ef6565b6101305481519192506001600160a01b031690829060009061199757611997613fa7565b60200260200101516001600160a01b03161480156119e857506101315481516001600160a01b0390911690829060019081106119d5576119d5613fa7565b60200260200101516001600160a01b0316145b80611a6257506101315481516001600160a01b03909116908290600090611a1157611a11613fa7565b60200260200101516001600160a01b0316148015611a6257506101305481516001600160a01b039091169082906001908110611a4f57611a4f613fa7565b60200260200101516001600160a01b0316145b611a7e5760405162461bcd60e51b81526004016106ec90613fbd565b505b61012f805460018101825560009190915281516002909102600080516020614419833981519152810180546001600160a01b039384166001600160a01b03199182161790915560208401517f232da9e50dad2971456a78fb5cd6ff6b75019984d6e918139ce990999420f97a909201805483851692169190911790556101305460405163095ea7b360e01b815292169163095ea7b391611b269160001990600401614039565b6020604051808303816000875af1158015611b45573d6000803e3d6000fd5b505050506040513d601f19601f82011682018060405250810190611b699190613ea5565b5061013154602082015160405163095ea7b360e01b81526001600160a01b039092169163095ea7b391611ba29160001990600401614039565b6020604051808303816000875af1158015611bc1573d6000803e3d6000fd5b505050506040513d601f19601f82011682018060405250810190611be59190613ea5565b50508080611bf29061427c565b9150506118c0565b5061013380546001600160a01b0319166001600160a01b03861690811790915560408051631d6c8e3f60e21b815290516375b238fc916004808201926020929091908290030181865afa158015611c55573d6000803e3d6000fd5b505050506040513d601f19601f82011682018060405250810190611c7991906141c4565b610134555061012d80546001600160a01b0319166001600160a01b0384161790558015611ce0576000805461ff0019169055604051600181527f7f26b83ff96e1f2b6a682f133852f6798a09c465da95921460cefb38474024989060200160405180910390a15b5050505050565b600080611cf660975460ff1690565b15611d135760405162461bcd60e51b81526004016106ec906140f0565b60026065541415611d365760405162461bcd60e51b81526004016106ec9061411a565b60026065556000611d4660355490565b610130546040516370a0823160e01b81526001600160a01b03909116906370a0823190611d77903090600401613b31565b602060405180830381865afa158015611d94573d6000803e3d6000fd5b505050506040513d601f19601f82011682018060405250810190611db891906141c4565b611dc290896141dd565b611dcc91906141fc565b90508015611df157610130549092508290611df1906001600160a01b03168583612d85565b6000611dfc60355490565b610131546040516370a0823160e01b81526001600160a01b03909116906370a0823190611e2d903090600401613b31565b602060405180830381865afa158015611e4a573d6000803e3d6000fd5b505050506040513d601f19601f82011682018060405250810190611e6e91906141c4565b611e78908a6141dd565b611e8291906141fc565b90508015611ea757610131549092508290611ea7906001600160a01b03168683612d85565b6000611eb289612fa9565b9050600080611ec3838b8b8b6130f5565b9092509050611ed2828861417e565b9650611ede818761417e565b61012e54604080518a8152602081018490529298506001600160a01b038b16923392917ffe7813e2866053d5c3938554e517b554fce6666a6561bed9eaa7419b29fa9b68910160405180910390a45050505050600160658190555094509492505050565b60975460ff1615611f655760405162461bcd60e51b81526004016106ec906140f0565b60026065541415611f885760405162461bcd60e51b81526004016106ec9061411a565b600260655561013354604051632474521560e21b81526001600160a01b03909116906391d1485490611fe0907f77e60b99a50d27fb027f6912a507d956105b4148adab27a86d235c8bcca8fa2f903390600401613e8e565b602060405180830381865afa158015611ffd573d6000803e3d6000fd5b505050506040513d601f19601f820116820180604052508101906120219190613ea5565b61206c5760405162461bcd60e51b815260206004820152601c60248201527b21a0a62622a92fa727aa2fa624a8aaa4a224aa2cafa6a0a720a3a2a960211b60448201526064016106ec565b6035546120aa5760405162461bcd60e51b815260206004820152600c60248201526b4e4f5f4c495155494449545960a01b60448201526064016106ec565b61012f54831080156120bf575061012e548314155b6120f95760405162461bcd60e51b815260206004820152600b60248201526a10905117d413d3d317d25160aa1b60448201526064016106ec565b600061012f61012e548154811061211257612112613fa7565b60009182526020808320604080518082018252600290940290910180546001600160a01b039081168086526001909201541692840183905290516328dee51f60e11b815292945090916351bdca3e9161217091309190600401613cf5565b606060405180830381865afa15801561218d573d6000803e3d6000fd5b505050506040513d601f19601f820116820180604052508101906121b19190614196565b505090506121c1818585306130f5565b505061012e546040518691907faf62d6e59ad2e54c778a490827e6cb28b1d30794092c7367fdbb261b11de033690600090a361012e859055610130546040516370a0823160e01b81526122e6916001600160a01b0316906370a082319061222c903090600401613b31565b602060405180830381865afa158015612249573d6000803e3d6000fd5b505050506040513d601f19601f8201168201806040525081019061226d91906141c4565b610131546040516370a0823160e01b81526001600160a01b03909116906370a082319061229e903090600401613b31565b602060405180830381865afa1580156122bb573d6000803e3d6000fd5b505050506040513d601f19601f820116820180604052508101906122df91906141c4565b86866129eb565b61013255505060016065555050505050565b6001600160a01b03918216600090815260346020908152604080832093909416825291909152205490565b61012d546001600160a01b0316331461234e5760405162461bcd60e51b81526004016106ec906140c6565b6001600160a01b03811661239f5760405162461bcd60e51b81526020600482015260186024820152775452414e534645525f544f5f5a45524f5f4144445245535360401b60448201526064016106ec565b61012d546040516001600160a01b038084169216907f4be5b0d7ef264079a52c66e913760fafaafd4f87f3a5a26e8ab0c1f70b1794c190600090a361012d80546001600160a01b0319166001600160a01b0392909216919091179055565b6001600160a01b03163b151590565b6001600160a01b03831661246e5760405162461bcd60e51b8152602060048201526024808201527f45524332303a20617070726f76652066726f6d20746865207a65726f206164646044820152637265737360e01b60648201526084016106ec565b6001600160a01b0382166124cf5760405162461bcd60e51b815260206004820152602260248201527f45524332303a20617070726f766520746f20746865207a65726f206164647265604482015261737360f01b60648201526084016106ec565b6001600160a01b0383811660008181526034602090815260408083209487168084529482529182902085905590518481527f8c5be1e5ebec7d5bd14f71427d1e84f3dd0314c0f7b2291e5b200ac8c7c3b925910160405180910390a3505050565b600061253c84846122f8565b90506000198114610a1057818110156125975760405162461bcd60e51b815260206004820152601d60248201527f45524332303a20696e73756666696369656e7420616c6c6f77616e636500000060448201526064016106ec565b610a10848484840361240c565b6001600160a01b0383166126085760405162461bcd60e51b815260206004820152602560248201527f45524332303a207472616e736665722066726f6d20746865207a65726f206164604482015264647265737360d81b60648201526084016106ec565b6001600160a01b03821661266a5760405162461bcd60e51b815260206004820152602360248201527f45524332303a207472616e7366657220746f20746865207a65726f206164647260448201526265737360e81b60648201526084016106ec565b6001600160a01b038316600090815260336020526040902054818110156126e25760405162461bcd60e51b815260206004820152602660248201527f45524332303a207472616e7366657220616d6f756e7420657863656564732062604482015265616c616e636560d01b60648201526084016106ec565b6001600160a01b0380851660009081526033602052604080822085850390559185168152908120805484929061271990849061417e565b92505081905550826001600160a01b0316846001600160a01b03166000805160206144808339815191528460405161275391815260200190565b60405180910390a3610a10565b6000805160206143f9833981519152546001600160a01b031690565b6101345461013354604051632474521560e21b81526001600160a01b03909116906391d14854906127b39084903390600401613e8e565b602060405180830381865afa1580156127d0573d6000803e3d6000fd5b505050506040513d601f19601f820116820180604052508101906127f49190613ea5565b610df25760405162461bcd60e51b81526004016106ec90613ec7565b7f4910fdfa16fed3260ed0e7147f7cc6da11a60208b5b9406d12a635614ffd91435460ff161561284857612843836132fe565b505050565b826001600160a01b03166352d1902d6040518163ffffffff1660e01b8152600401602060405180830381865afa9250505080156128a2575060408051601f3d908101601f1916820190925261289f918101906141c4565b60015b6129055760405162461bcd60e51b815260206004820152602e60248201527f45524331393637557067726164653a206e657720696d706c656d656e7461746960448201526d6f6e206973206e6f74205555505360901b60648201526084016106ec565b6000805160206143f983398151915281146129745760405162461bcd60e51b815260206004820152602960248201527f45524331393637557067726164653a20756e737570706f727465642070726f786044820152681a58589b195555525160ba1b60648201526084016106ec565b50612843838383613398565b6040516001600160a01b0380851660248301528316604482015260648101829052610a109085906323b872dd60e01b906084015b60408051601f198184030181529190526020810180516001600160e01b03166001600160e01b0319909316929092179091526133bd565b60008060008061012f61012e5481548110612a0857612a08613fa7565b60009182526020808320604080518082018252600290940290910180546001600160a01b0390811680865260019092015416928401839052905163450efe2160e01b8152929450909163450efe2191612a6391600401613b31565b600060405180830381865afa158015612a80573d6000803e3d6000fd5b505050506040513d6000823e601f3d908101601f19168201604052612aa89190810190613ef6565b6101305481519192506001600160a01b0316908290600090612acc57612acc613fa7565b60200260200101516001600160a01b03161415612b6e5760208201518251604051633282f32f60e11b81526001600160a01b0390921691636505e65e91612b1f918d908d908d908d903090600401614297565b6060604051808303816000875af1158015612b3e573d6000803e3d6000fd5b505050506040513d601f19601f82011682018060405250810190612b629190614196565b91965094509250612bf6565b60208201518251604051633282f32f60e11b81526001600160a01b0390921691636505e65e91612baa918c908e908c908e903090600401614297565b6060604051808303816000875af1158015612bc9573d6000803e3d6000fd5b505050506040513d601f19601f82011682018060405250810190612bed9190614196565b90965090945092505b50509450945094915050565b60008061012f61012e5481548110612c1c57612c1c613fa7565b60009182526020808320604080518082018252600290940290910180546001600160a01b039081168086526001909201541692840183905290516328dee51f60e11b815292945090916351bdca3e91612c7a91309190600401613cf5565b606060405180830381865afa158015612c97573d6000803e3d6000fd5b505050506040513d601f19601f82011682018060405250810190612cbb9190614196565b5050905060006101325482612cd09190614167565b90506000612cdd60355490565b905080612d0457612cf06103e883614167565b9450612cff60016103e861348f565b612d1f565b61013254612d1282846141dd565b612d1c91906141fc565b94505b60008511612d6f5760405162461bcd60e51b815260206004820152601d60248201527f494e53554646494349454e545f4c49515549444954595f4d494e54454400000060448201526064016106ec565b612d79868661348f565b50506101325550919050565b6128438363a9059cbb60e01b84846040516024016129b4929190614039565b60975460ff16612ded5760405162461bcd60e51b815260206004820152601460248201527314185d5cd8589b194e881b9bdd081c185d5cd95960621b60448201526064016106ec565b6097805460ff191690557f5db9ee0a495bf2e6ff9c91a7834c1ba4fdd244a5e8aa4e537bd38aeae4b073aa335b604051612e279190613b31565b60405180910390a1565b60975460ff1615612e545760405162461bcd60e51b81526004016106ec906140f0565b6097805460ff191660011790557f62e78cea01bee320cd4e420270b5ea74000d11b0c9f74754ebdbfc544b05a258612e1a3390565b60008054610100900460ff1615612ed7578160ff166001148015612eb35750612eb1306123fd565b155b612ecf5760405162461bcd60e51b81526004016106ec906142cf565b506000919050565b60005460ff808416911610612efe5760405162461bcd60e51b81526004016106ec906142cf565b506000805460ff191660ff92909216919091179055600190565b600054610100900460ff16612f3f5760405162461bcd60e51b81526004016106ec9061431d565b610df2828261355c565b600054610100900460ff16612f705760405162461bcd60e51b81526004016106ec9061431d565b612f786135aa565b565b600054610100900460ff16612fa15760405162461bcd60e51b81526004016106ec9061431d565b612f786135d8565b60008061012f61012e5481548110612fc357612fc3613fa7565b60009182526020808320604080518082018252600290940290910180546001600160a01b039081168086526001909201541692840183905290516328dee51f60e11b815292945090916351bdca3e9161302191309190600401613cf5565b606060405180830381865afa15801561303e573d6000803e3d6000fd5b505050506040513d601f19601f820116820180604052508101906130629190614196565b5050905061306f60355490565b61307982866141dd565b61308391906141fc565b9250600083116130d55760405162461bcd60e51b815260206004820152601d60248201527f494e53554646494349454e545f4c49515549444954595f4255524e454400000060448201526064016106ec565b6130df338561360b565b6130e98382614167565b61013255509092915050565b600080600061012f61012e548154811061311157613111613fa7565b60009182526020808320604080518082018252600290940290910180546001600160a01b0390811680865260019092015416928401839052905163450efe2160e01b8152929450909163450efe219161316c91600401613b31565b600060405180830381865afa158015613189573d6000803e3d6000fd5b505050506040513d6000823e601f3d908101601f191682016040526131b19190810190613ef6565b6101305481519192506001600160a01b03169082906000906131d5576131d5613fa7565b60200260200101516001600160a01b031614156132725760208201518251604051636c27fc2160e11b81526001600160a01b039092169163d84ff84291613226918c908c908c908c90600401614368565b60408051808303816000875af1158015613244573d6000803e3d6000fd5b505050506040513d601f19601f820116820180604052508101906132689190614398565b90945092506132f3565b60208201518251604051636c27fc2160e11b81526001600160a01b039092169163d84ff842916132ac918c908b908d908c90600401614368565b60408051808303816000875af11580156132ca573d6000803e3d6000fd5b505050506040513d601f19601f820116820180604052508101906132ee9190614398565b945092505b505094509492505050565b613307816123fd565b6133695760405162461bcd60e51b815260206004820152602d60248201527f455243313936373a206e657720696d706c656d656e746174696f6e206973206e60448201526c1bdd08184818dbdb9d1c9858dd609a1b60648201526084016106ec565b6000805160206143f983398151915280546001600160a01b0319166001600160a01b0392909216919091179055565b6133a183613747565b6000825111806133ae5750805b1561284357610a108383613787565b6000613412826040518060400160405280602081526020017f5361666545524332303a206c6f772d6c6576656c2063616c6c206661696c6564815250856001600160a01b03166138799092919063ffffffff16565b80519091501561284357808060200190518101906134309190613ea5565b6128435760405162461bcd60e51b815260206004820152602a60248201527f5361666545524332303a204552433230206f7065726174696f6e20646964206e6044820152691bdd081cdd58d8d9595960b21b60648201526084016106ec565b6001600160a01b0382166134e55760405162461bcd60e51b815260206004820152601f60248201527f45524332303a206d696e7420746f20746865207a65726f20616464726573730060448201526064016106ec565b80603560008282546134f7919061417e565b90915550506001600160a01b0382166000908152603360205260408120805483929061352490849061417e565b90915550506040518181526001600160a01b038316906000906000805160206144808339815191529060200160405180910390a35050565b600054610100900460ff166135835760405162461bcd60e51b81526004016106ec9061431d565b81516135969060369060208501906139f8565b5080516128439060379060208401906139f8565b600054610100900460ff166135d15760405162461bcd60e51b81526004016106ec9061431d565b6001606555565b600054610100900460ff166135ff5760405162461bcd60e51b81526004016106ec9061431d565b6097805460ff19169055565b6001600160a01b03821661366b5760405162461bcd60e51b815260206004820152602160248201527f45524332303a206275726e2066726f6d20746865207a65726f206164647265736044820152607360f81b60648201526084016106ec565b6001600160a01b038216600090815260336020526040902054818110156136df5760405162461bcd60e51b815260206004820152602260248201527f45524332303a206275726e20616d6f756e7420657863656564732062616c616e604482015261636560f01b60648201526084016106ec565b6001600160a01b038316600090815260336020526040812083830390556035805484929061370e908490614167565b90915550506040518281526000906001600160a01b038516906000805160206144808339815191529060200160405180910390a3505050565b613750816132fe565b6040516001600160a01b038216907fbc7cd75a20ee27fd9adebab32041f755214dbc6bffa90cc0225b39da2e5c2d3b90600090a250565b6060613792836123fd565b6137ed5760405162461bcd60e51b815260206004820152602660248201527f416464726573733a2064656c65676174652063616c6c20746f206e6f6e2d636f6044820152651b9d1c9858dd60d21b60648201526084016106ec565b600080846001600160a01b03168460405161380891906143bc565b600060405180830381855af49150503d8060008114613843576040519150601f19603f3d011682016040523d82523d6000602084013e613848565b606091505b5091509150613870828260405180606001604052806027815260200161445960279139613890565b95945050505050565b606061388884846000856138c9565b949350505050565b6060831561389f575081610a35565b8251156138af5782518084602001fd5b8160405162461bcd60e51b81526004016106ec9190613abd565b60608247101561392a5760405162461bcd60e51b815260206004820152602660248201527f416464726573733a20696e73756666696369656e742062616c616e636520666f6044820152651c8818d85b1b60d21b60648201526084016106ec565b613933856123fd565b61397f5760405162461bcd60e51b815260206004820152601d60248201527f416464726573733a2063616c6c20746f206e6f6e2d636f6e747261637400000060448201526064016106ec565b600080866001600160a01b0316858760405161399b91906143bc565b60006040518083038185875af1925050503d80600081146139d8576040519150601f19603f3d011682016040523d82523d6000602084013e6139dd565b606091505b50915091506139ed828286613890565b979650505050505050565b828054613a0490613e59565b90600052602060002090601f016020900481019282613a265760008555613a6c565b82601f10613a3f57805160ff1916838001178555613a6c565b82800160010185558215613a6c579182015b82811115613a6c578251825591602001919060010190613a51565b50613a78929150613a7c565b5090565b5b80821115613a785760008155600101613a7d565b60005b83811015613aac578181015183820152602001613a94565b83811115610a105750506000910152565b6020815260008251806020840152613adc816040850160208701613a91565b601f01601f19169190910160400192915050565b6001600160a01b0381168114610b0257600080fd5b60008060408385031215613b1857600080fd5b8235613b2381613af0565b946020939093013593505050565b6001600160a01b0391909116815260200190565b600060408284031215613b5757600080fd5b50919050565b600080600060608486031215613b7257600080fd5b8335613b7d81613af0565b92506020840135613b8d81613af0565b929592945050506040919091013590565b600060208284031215613bb057600080fd5b8135610a3581613af0565b600080600080600060a08688031215613bd357600080fd5b853594506020860135935060408601359250606086013591506080860135613bfa81613af0565b809150509295509295909350565b634e487b7160e01b600052604160045260246000fd5b604051601f8201601f191681016001600160401b0381118282101715613c4657613c46613c08565b604052919050565b60008060408385031215613c6157600080fd5b8235613c6c81613af0565b91506020838101356001600160401b0380821115613c8957600080fd5b818601915086601f830112613c9d57600080fd5b813581811115613caf57613caf613c08565b613cc1601f8201601f19168501613c1e565b91508082528784828501011115613cd757600080fd5b80848401858401376000848284010152508093505050509250929050565b6001600160a01b0392831681529116602082015260400190565b600060208284031215613d2157600080fd5b5035919050565b60008060008060608587031215613d3e57600080fd5b84356001600160401b0380821115613d5557600080fd5b818701915087601f830112613d6957600080fd5b813581811115613d7857600080fd5b8860208260061b8501011115613d8d57600080fd5b60209283019650945050850135613da381613af0565b91506040850135613db381613af0565b939692955090935050565b60008060008060808587031215613dd457600080fd5b8435935060208501359250604085013591506060850135613db381613af0565b600080600060608486031215613e0957600080fd5b505081359360208301359350604090920135919050565b60008060408385031215613e3357600080fd5b8235613e3e81613af0565b91506020830135613e4e81613af0565b809150509250929050565b600181811c90821680613e6d57607f821691505b60208210811415613b5757634e487b7160e01b600052602260045260246000fd5b9182526001600160a01b0316602082015260400190565b600060208284031215613eb757600080fd5b81518015158114610a3557600080fd5b60208082526015908201527410d05313115497d393d517d055551213d492569151605a1b604082015260600190565b60006020808385031215613f0957600080fd5b82516001600160401b0380821115613f2057600080fd5b818501915085601f830112613f3457600080fd5b815181811115613f4657613f46613c08565b8060051b9150613f57848301613c1e565b8181529183018401918481019088841115613f7157600080fd5b938501935b83851015613f9b5784519250613f8b83613af0565b8282529385019390850190613f76565b98975050505050505050565b634e487b7160e01b600052603260045260246000fd5b60208082526011908201527057524f4e475f504f4f4c5f544f4b454e5360781b604082015260600190565b80546001600160a01b0319166001600160a01b0392909216919091179055565b813561401381613af0565b61401d8183613fe8565b50602082013561402c81613af0565b6128438160018401613fe8565b6001600160a01b03929092168252602082015260400190565b6020808252602c908201526000805160206143d983398151915260408201526b19195b1959d85d1958d85b1b60a21b606082015260800190565b6020808252602c908201526000805160206143d983398151915260408201526b6163746976652070726f787960a01b606082015260800190565b60208082526010908201526f43414c4c45525f4e4f545f42414e584560801b604082015260600190565b60208082526010908201526f14185d5cd8589b194e881c185d5cd95960821b604082015260600190565b6020808252601f908201527f5265656e7472616e637947756172643a207265656e7472616e742063616c6c00604082015260600190565b634e487b7160e01b600052601160045260246000fd5b60008282101561417957614179614151565b500390565b6000821982111561419157614191614151565b500190565b6000806000606084860312156141ab57600080fd5b8351925060208401519150604084015190509250925092565b6000602082840312156141d657600080fd5b5051919050565b60008160001904831182151516156141f7576141f7614151565b500290565b60008261421957634e487b7160e01b600052601260045260246000fd5b500490565b60006040828403121561423057600080fd5b604080519081016001600160401b038111828210171561425257614252613c08565b604052823561426081613af0565b8152602083013561427081613af0565b60208201529392505050565b600060001982141561429057614290614151565b5060010190565b6001600160a01b039687168152602081019590955260408501939093526060840191909152608083015290911660a082015260c00190565b6020808252602e908201527f496e697469616c697a61626c653a20636f6e747261637420697320616c72656160408201526d191e481a5b9a5d1a585b1a5e995960921b606082015260800190565b6020808252602b908201527f496e697469616c697a61626c653a20636f6e7472616374206973206e6f74206960408201526a6e697469616c697a696e6760a81b606082015260800190565b6001600160a01b039586168152602081019490945260408401929092526060830152909116608082015260a00190565b600080604083850312156143ab57600080fd5b505080516020909101519092909150565b600082516143ce818460208701613a91565b919091019291505056fe46756e6374696f6e206d7573742062652063616c6c6564207468726f75676820360894a13ba1a3210667c828492db98dca3e2076cc3735a920a3ca505d382bbc232da9e50dad2971456a78fb5cd6ff6b75019984d6e918139ce990999420f97965d7a28e3265b37a6474929f336521b332c1681b933f6cb9f3376673440d862a416464726573733a206c6f772d6c6576656c2064656c65676174652063616c6c206661696c6564ddf252ad1be2c89b69c2b068fc378daa952ba7f163c4a11628f55a4df523b3efa26469706673582212208881d39a3e62f2fb3965c280b3a56da6fe53faffedfdf4b6997191423b1442df64736f6c634300080a0033",
  "immutableReferences": {
    "561": [
      {
        "length": 32,
        "start": 2631
      },
      {
        "length": 32,
        "start": 2695
      },
      {
        "length": 32,
        "start": 3399
      },
      {
        "length": 32,
        "start": 3463
      },
      {
        "length": 32,
        "start": 3587
      }
    ]
  },
  "source": "// SPDX-License-Identifier: MIT\r\npragma solidity 0.8.10;\r\nimport \"../interfaces/IUnoAssetRouter.sol\";   \r\nimport '@openzeppelin/contracts-upgradeable/security/ReentrancyGuardUpgradeable.sol';\r\nimport '@openzeppelin/contracts-upgradeable/token/ERC20/ERC20Upgradeable.sol';\r\nimport '@openzeppelin/contracts-upgradeable/token/ERC20/utils/SafeERC20Upgradeable.sol';\r\nimport '@openzeppelin/contracts-upgradeable/security/PausableUpgradeable.sol';\r\nimport '@openzeppelin/contracts-upgradeable/proxy/utils/UUPSUpgradeable.sol';\r\n\r\ncontract UnoAutoStrategyBanxeDeprecated is Initializable, ERC20Upgradeable, ReentrancyGuardUpgradeable, PausableUpgradeable, UUPSUpgradeable {\r\n    using SafeERC20Upgradeable for IERC20Upgradeable;\r\n    /**\r\n     * @dev PoolInfo:\r\n     * {assetRouter} - UnoAssetRouter contract.\r\n     * {pool} - Pool address. \r\n     */\r\n    struct PoolInfo {\r\n        address pool;\r\n        IUnoAssetRouter assetRouter;\r\n    }\r\n    \r\n    /**\r\n     * @dev Contract Variables:\r\n     * {banxe} - Banxe account that can make deposits to this autostrat.\r\n     * {poolID} - Current pool the strategy uses ({pools} index).\r\n     * {pools} - Pools this strategy can use and move liquidity to.\r\n     * {tokenA} - Pool's first token address.\r\n     * {tokenB} - Pool's second token address.\r\n     * {reserveLP} - LP token reserve.\r\n     * {MINIMUM_LIQUIDITY} - Ameliorates rounding errors.\r\n     * {accessManager} - Role manager contract.\r\n     */\r\n\r\n    address public banxe;\r\n\r\n    uint256 public poolID;\r\n    PoolInfo[] public pools;\r\n\r\n    IERC20Upgradeable public tokenA;\r\n    IERC20Upgradeable public tokenB;\r\n\r\n    uint256 private reserveLP;\r\n    uint256 private constant MINIMUM_LIQUIDITY = 10**3;\r\n\r\n    IUnoAccessManager public accessManager;\r\n    bytes32 private constant LIQUIDITY_MANAGER_ROLE = keccak256('LIQUIDITY_MANAGER_ROLE');\r\n    bytes32 private constant PAUSER_ROLE = keccak256('PAUSER_ROLE');\r\n    bytes32 private ADMIN_ROLE;\r\n\r\n    event Deposit(uint256 indexed poolID, address indexed from, address indexed recipient, uint256 amountA, uint256 amountB);\r\n    event Withdraw(uint256 indexed poolID, address indexed from, address indexed recipient, uint256 amountA, uint256 amountB);\r\n    event MoveLiquidity(uint256 indexed previousPoolID, uint256 indexed nextPoolID);\r\n    event BanxeTransferred(address indexed previousBanxe, address indexed newBanxe);\r\n\r\n    modifier onlyRole(bytes32 role){\r\n        require(accessManager.hasRole(role, msg.sender), 'CALLER_NOT_AUTHORIZED');\r\n        _;\r\n    }\r\n\r\n    modifier onlyBanxe(){\r\n        require(msg.sender == banxe, 'CALLER_NOT_BANXE');\r\n        _;\r\n    }\r\n\r\n    // ============ Methods ============\r\n\r\n    /// @custom:oz-upgrades-unsafe-allow constructor\r\n    constructor() {\r\n        _disableInitializers();\r\n    }\r\n\r\n    function initialize(PoolInfo[] calldata poolInfos, IUnoAccessManager _accessManager, address _banxe) external initializer {\r\n        require ((poolInfos.length >= 2) && (poolInfos.length <= 50), 'BAD_POOL_COUNT');\r\n\r\n        __ERC20_init(\"UNO-Banxe-AutoStrategy\", \"UNO-BANXE-LP\");\r\n        __ReentrancyGuard_init();\r\n        __Pausable_init();\r\n\r\n        address[] memory poolTokens = poolInfos[0].assetRouter.getTokens(poolInfos[0].pool);\r\n        tokenA = IERC20Upgradeable(poolTokens[0]);\r\n        tokenB = IERC20Upgradeable(poolTokens[1]);\r\n        \r\n        for (uint256 i = 0; i < poolInfos.length; i++) {\r\n            PoolInfo memory poolInfo = poolInfos[i];\r\n            if(i != 0){\r\n                address[] memory _tokens = poolInfo.assetRouter.getTokens(poolInfo.pool);\r\n                require(((_tokens[0] == address(tokenA)) && (_tokens[1] == address(tokenB))) || ((_tokens[0] == address(tokenB)) && (_tokens[1] == address(tokenA))), 'WRONG_POOL_TOKENS');\r\n            }\r\n            pools.push(poolInfo);\r\n\r\n            tokenA.approve(address(poolInfo.assetRouter), type(uint256).max);\r\n            tokenB.approve(address(poolInfo.assetRouter), type(uint256).max);\r\n        }\r\n\r\n        accessManager = _accessManager;\r\n        ADMIN_ROLE = accessManager.ADMIN_ROLE();\r\n\r\n        banxe = _banxe;\r\n    }\r\n\r\n    /**\r\n     * @dev Deposits tokens in the pools[poolID] pool. Mints tokens representing user share. Emits {Deposit} event.\r\n     * @param amountA - Token A amount to deposit.\r\n     * @param amountB  - Token B amount to deposit.\r\n     * @param amountAMin - Bounds the extent to which the B/A price can go up before the transaction reverts.\r\n     * @param amountBMin - Bounds the extent to which the A/B price can go up before the transaction reverts.\r\n     \r\n     * @return sentA - Deposited token A amount.\r\n     * @return sentB - Deposited token B amount.\r\n     * @return liquidity - Total liquidity minted for the {recipient}.\r\n     */\r\n    function deposit(uint256 amountA, uint256 amountB, uint256 amountAMin, uint256 amountBMin, address recipient) onlyBanxe whenNotPaused nonReentrant external returns (uint256 sentA, uint256 sentB, uint256 liquidity) {\r\n        tokenA.safeTransferFrom(msg.sender, address(this), amountA);\r\n        tokenB.safeTransferFrom(msg.sender, address(this), amountB);\r\n\r\n        (sentA, sentB,) = _deposit(amountA, amountB, amountAMin, amountBMin);\r\n        liquidity = mint(recipient);\r\n\r\n        tokenA.safeTransfer(msg.sender, amountA - sentA);\r\n        tokenB.safeTransfer(msg.sender, amountB - sentB);\r\n\r\n        emit Deposit(poolID, msg.sender, recipient, sentA, sentB); \r\n    }\r\n\r\n    /**\r\n     * @dev Withdraws tokens from the {pools[poolID]} pool and sends them to the recipient. Burns tokens representing user share. Emits {Withdraw} event.\r\n     * @param liquidity - Liquidity to burn from this user.\r\n     * @param amountAMin - The minimum amount of tokenA that must be received from the pool for the transaction not to revert.\r\n     * @param amountBMin - The minimum amount of tokenB that must be received from the pool for the transaction not to revert.\r\n     \r\n     * @return amountA - Token A amount sent to the {recipient}.\r\n     * @return amountB - Token B amount sent to the {recipient}.\r\n     */\r\n    function withdraw(uint256 liquidity, uint256 amountAMin, uint256 amountBMin, address recipient) whenNotPaused nonReentrant external returns (uint256 amountA, uint256 amountB) {\r\n        uint256 leftoverA = liquidity * tokenA.balanceOf(address(this)) / totalSupply();\r\n        if(leftoverA > 0){\r\n            amountA = leftoverA;\r\n            tokenA.safeTransfer(recipient, leftoverA);\r\n        }\r\n\r\n        uint256 leftoverB = liquidity * tokenB.balanceOf(address(this)) / totalSupply();\r\n        if(leftoverB > 0){\r\n            amountB = leftoverB;\r\n            tokenB.safeTransfer(recipient, leftoverB);\r\n        }\r\n        \r\n        uint256 amountLP = burn(liquidity);\r\n        \r\n        (uint256 _amountA, uint256 _amountB) = _withdraw(amountLP, amountAMin, amountBMin, recipient);\r\n        amountA += _amountA;\r\n        amountB += _amountB;\r\n\r\n        emit Withdraw(poolID, msg.sender, recipient, amountA, amountB);\r\n    }\r\n\r\n    /**\r\n     * @dev Moves liquidity from {pools[poolID]} to {pools[_poolID]}. Emits {MoveLiquidity} event.\r\n     * @param _poolID - Pool ID to move liquidity to.\r\n     * @param amountAMin - The minimum amount of tokenA that must be deposited in {pools[_poolID]} for the transaction not to revert.\r\n     * @param amountBMin - The minimum amount of tokenB that must be deposited in {pools[_poolID]} for the transaction not to revert.\r\n     *\r\n     * Note: This function can only be called by LiquidityManager.\r\n     */\r\n    function moveLiquidity(uint256 _poolID, uint256 amountAMin, uint256 amountBMin) whenNotPaused nonReentrant external {\r\n        require(accessManager.hasRole(LIQUIDITY_MANAGER_ROLE, msg.sender), 'CALLER_NOT_LIQUIDITY_MANAGER');\r\n        require(totalSupply() != 0, 'NO_LIQUIDITY');\r\n        require((_poolID < pools.length) && (_poolID != poolID), 'BAD_POOL_ID');\r\n\r\n        PoolInfo memory pool = pools[poolID];\r\n        (uint256 _totalDeposits,,) = pool.assetRouter.userStake(address(this), pool.pool);\r\n        _withdraw(_totalDeposits, amountAMin, amountBMin, address(this));\r\n\r\n        emit MoveLiquidity(poolID, _poolID); \r\n        poolID = _poolID;\r\n        (,,reserveLP) = _deposit(tokenA.balanceOf(address(this)), tokenB.balanceOf(address(this)), amountAMin, amountBMin);\r\n    }\r\n\r\n    /**\r\n     * @dev Adds new pool to the strat.\r\n     * @param poolInfo - New pool info to add.\r\n     * Note: This function can only be called by Admin.\r\n     */\r\n    function addPool(PoolInfo calldata poolInfo) external onlyRole(ADMIN_ROLE) {\r\n        address[] memory _tokens = poolInfo.assetRouter.getTokens(poolInfo.pool);\r\n        require(((_tokens[0] == address(tokenA)) && (_tokens[1] == address(tokenB))) || ((_tokens[0] == address(tokenB)) && (_tokens[1] == address(tokenA))), 'WRONG_POOL_TOKENS');\r\n        \r\n        pools.push(poolInfo);\r\n        require(pools.length <= 50, \"TOO_MANY_POOLS\");\r\n\r\n        tokenA.approve(address(poolInfo.assetRouter), type(uint256).max);\r\n        tokenB.approve(address(poolInfo.assetRouter), type(uint256).max);\r\n    }\r\n\r\n    /**\r\n     * @dev Returns tokens staked by the {_address}. \r\n     * @param _address - The address to check stakes for.\r\n     * @return stakeA - Token A stake.\r\n     * @return stakeB - Token B stake.\r\n     */\r\n    function userStake(address _address) external view returns (uint256 stakeA, uint256 stakeB) {\r\n        PoolInfo memory pool = pools[poolID];\r\n\r\n        uint256 balanceA;\r\n        uint256 balanceB;\r\n        address[] memory _tokens = pool.assetRouter.getTokens(pool.pool);\r\n        if(_tokens[0] == address(tokenA)){\r\n            (, balanceA, balanceB) = pool.assetRouter.userStake(address(this), pool.pool);\r\n        } else {\r\n            (, balanceB, balanceA) = pool.assetRouter.userStake(address(this), pool.pool);\r\n        }\r\n\r\n        uint256 _balance = balanceOf(_address);\r\n        if(_balance != 0){\r\n            uint256 _totalSupply = totalSupply();\r\n            uint256 leftoverA = tokenA.balanceOf(address(this));\r\n            uint256 leftoverB = tokenB.balanceOf(address(this));\r\n\r\n            stakeA = _balance * balanceA / _totalSupply + leftoverA;\r\n            stakeB = _balance * balanceB / _totalSupply + leftoverB;\r\n        }\r\n    }\r\n        \r\n    /**\r\n     * @dev Returns total amount locked in the pool. \r\n     * @return totalDepositsA - Token A deposits.\r\n     * @return totalDepositsB - Token B deposits.\r\n     */     \r\n    function totalDeposits() external view returns(uint256 totalDepositsA, uint256 totalDepositsB){\r\n        PoolInfo memory pool = pools[poolID];\r\n\r\n        address[] memory _tokens = pool.assetRouter.getTokens(pool.pool);\r\n        if(_tokens[0] == address(tokenA)){\r\n            (, totalDepositsA, totalDepositsB) = pool.assetRouter.userStake(address(this), pool.pool);\r\n        } else {\r\n            (, totalDepositsB, totalDepositsA) = pool.assetRouter.userStake(address(this), pool.pool);\r\n        }\r\n\r\n        // Add leftover tokens.\r\n        totalDepositsA += tokenA.balanceOf(address(this));\r\n        totalDepositsB += tokenB.balanceOf(address(this));\r\n    }\r\n\r\n    /**\r\n     * @dev Returns the number of pools in the strategy. \r\n     */\r\n    function poolsLength() external view returns(uint256){\r\n        return pools.length;\r\n    }\r\n\r\n    /**\r\n     * @dev Returns pair of tokens currently in use. \r\n     */\r\n    function tokens() external view returns(address, address){\r\n        return (address(tokenA), address(tokenB));\r\n    }\r\n\r\n    function mint(address to) internal returns (uint256 liquidity){\r\n        PoolInfo memory pool = pools[poolID];\r\n        (uint256 balanceLP,,) = pool.assetRouter.userStake(address(this), pool.pool);\r\n        uint256 amountLP = balanceLP - reserveLP;\r\n\r\n        uint256 _totalSupply = totalSupply();\r\n        if (_totalSupply == 0) {\r\n            liquidity = amountLP - MINIMUM_LIQUIDITY;\r\n            _mint(address(1), MINIMUM_LIQUIDITY);\r\n        } else {\r\n            liquidity = amountLP * _totalSupply / reserveLP;\r\n        }\r\n\r\n        require(liquidity > 0, 'INSUFFICIENT_LIQUIDITY_MINTED');\r\n        _mint(to, liquidity);\r\n\r\n        reserveLP = balanceLP;\r\n    }\r\n\r\n    function burn(uint256 liquidity) internal returns (uint256 amountLP) {\r\n        PoolInfo memory pool = pools[poolID];\r\n        (uint256 balanceLP,,) = pool.assetRouter.userStake(address(this), pool.pool);\r\n\r\n        amountLP = liquidity * balanceLP / totalSupply(); \r\n        require(amountLP > 0, 'INSUFFICIENT_LIQUIDITY_BURNED');\r\n        _burn(msg.sender, liquidity);\r\n\r\n        reserveLP = balanceLP - amountLP;\r\n    }\r\n\r\n    function _deposit(uint256 amountA, uint256 amountB, uint256 amountAMin, uint256 amountBMin) internal returns (uint256 sentA, uint256 sentB, uint256 liquidity){\r\n        PoolInfo memory pool = pools[poolID];\r\n        address[] memory _tokens = pool.assetRouter.getTokens(pool.pool);\r\n        if(_tokens[0] == address(tokenA)){\r\n            (sentA, sentB, liquidity) = pool.assetRouter.deposit(pool.pool, amountA, amountB, amountAMin, amountBMin, address(this));\r\n        } else {\r\n            (sentB, sentA, liquidity) = pool.assetRouter.deposit(pool.pool, amountB, amountA, amountBMin, amountAMin, address(this));\r\n        }\r\n    }\r\n\r\n    function _withdraw(uint256 amountLP, uint256 amountAMin, uint256 amountBMin, address recipient) internal returns (uint256 amountA, uint256 amountB){\r\n        PoolInfo memory pool = pools[poolID];\r\n        address[] memory _tokens = pool.assetRouter.getTokens(pool.pool);\r\n        if(_tokens[0] == address(tokenA)){\r\n            (amountA, amountB) = pool.assetRouter.withdraw(pool.pool, amountLP, amountAMin, amountBMin, recipient);\r\n        } else {\r\n            (amountB, amountA) = pool.assetRouter.withdraw(pool.pool, amountLP, amountBMin, amountAMin, recipient);\r\n        }\r\n    }\r\n\r\n    /**\r\n     * @dev Transfers banxe rights of the contract to a new account (`_banxe`).\r\n     * @param _banxe - Address to transfer banxe rights to.\r\n     * Note: This function can only be called by Banxe.\r\n     */\r\n    function transferBanxe(address _banxe) external onlyBanxe {\r\n        require(_banxe != address(0), \"TRANSFER_TO_ZERO_ADDRESS\");\r\n        emit BanxeTransferred(banxe, _banxe);\r\n        banxe = _banxe;\r\n    }\r\n\r\n    function pause() external onlyRole(PAUSER_ROLE) {\r\n        _pause();\r\n    }\r\n\r\n    function unpause() external onlyRole(PAUSER_ROLE) {\r\n        _unpause();\r\n    }\r\n\r\n    function _authorizeUpgrade(address) internal override onlyRole(ADMIN_ROLE) {\r\n\r\n    }\r\n}",
  "sourcePath": "C:\\Users\\jugli\\Desktop\\uno\\uno-contracts\\contracts\\autostrategy\\UnoAutoStrategyBanxeDeprecated.sol",
  "compiler": {
    "name": "solc",
    "version": "0.8.10+commit.fc410830.Emscripten.clang"
  },
  "schemaVersion": "3.4.13",
  "updatedAt": "2023-05-23T10:48:17.130Z",
  "devdoc": {
    "kind": "dev",
    "methods": {
      "addPool((address,address))": {
        "details": "Adds new pool to the strat.",
        "params": {
          "poolInfo": "- New pool info to add. Note: This function can only be called by Admin."
        }
      },
      "allowance(address,address)": {
        "details": "See {IERC20-allowance}."
      },
      "approve(address,uint256)": {
        "details": "See {IERC20-approve}. NOTE: If `amount` is the maximum `uint256`, the allowance is not updated on `transferFrom`. This is semantically equivalent to an infinite approval. Requirements: - `spender` cannot be the zero address."
      },
      "balanceOf(address)": {
        "details": "See {IERC20-balanceOf}."
      },
      "constructor": {
        "custom:oz-upgrades-unsafe-allow": "constructor"
      },
      "decimals()": {
        "details": "Returns the number of decimals used to get its user representation. For example, if `decimals` equals `2`, a balance of `505` tokens should be displayed to a user as `5.05` (`505 / 10 ** 2`). Tokens usually opt for a value of 18, imitating the relationship between Ether and Wei. This is the value {ERC20} uses, unless this function is overridden; NOTE: This information is only used for _display_ purposes: it in no way affects any of the arithmetic of the contract, including {IERC20-balanceOf} and {IERC20-transfer}."
      },
      "decreaseAllowance(address,uint256)": {
        "details": "Atomically decreases the allowance granted to `spender` by the caller. This is an alternative to {approve} that can be used as a mitigation for problems described in {IERC20-approve}. Emits an {Approval} event indicating the updated allowance. Requirements: - `spender` cannot be the zero address. - `spender` must have allowance for the caller of at least `subtractedValue`."
      },
      "deposit(uint256,uint256,uint256,uint256,address)": {
        "details": "Deposits tokens in the pools[poolID] pool. Mints tokens representing user share. Emits {Deposit} event.",
        "params": {
          "amountA": "- Token A amount to deposit.",
          "amountAMin": "- Bounds the extent to which the B/A price can go up before the transaction reverts.",
          "amountB": "- Token B amount to deposit.",
          "amountBMin": "- Bounds the extent to which the A/B price can go up before the transaction reverts."
        },
        "returns": {
          "liquidity": "- Total liquidity minted for the {recipient}.",
          "sentA": "- Deposited token A amount.",
          "sentB": "- Deposited token B amount."
        }
      },
      "increaseAllowance(address,uint256)": {
        "details": "Atomically increases the allowance granted to `spender` by the caller. This is an alternative to {approve} that can be used as a mitigation for problems described in {IERC20-approve}. Emits an {Approval} event indicating the updated allowance. Requirements: - `spender` cannot be the zero address."
      },
      "moveLiquidity(uint256,uint256,uint256)": {
        "details": "Moves liquidity from {pools[poolID]} to {pools[_poolID]}. Emits {MoveLiquidity} event.",
        "params": {
          "_poolID": "- Pool ID to move liquidity to.",
          "amountAMin": "- The minimum amount of tokenA that must be deposited in {pools[_poolID]} for the transaction not to revert.",
          "amountBMin": "- The minimum amount of tokenB that must be deposited in {pools[_poolID]} for the transaction not to revert. Note: This function can only be called by LiquidityManager."
        }
      },
      "name()": {
        "details": "Returns the name of the token."
      },
      "paused()": {
        "details": "Returns true if the contract is paused, and false otherwise."
      },
      "poolsLength()": {
        "details": "Returns the number of pools in the strategy. "
      },
      "proxiableUUID()": {
        "details": "Implementation of the ERC1822 {proxiableUUID} function. This returns the storage slot used by the implementation. It is used to validate that the this implementation remains valid after an upgrade. IMPORTANT: A proxy pointing at a proxiable contract should not be considered proxiable itself, because this risks bricking a proxy that upgrades to it, by delegating to itself until out of gas. Thus it is critical that this function revert if invoked through a proxy. This is guaranteed by the `notDelegated` modifier."
      },
      "symbol()": {
        "details": "Returns the symbol of the token, usually a shorter version of the name."
      },
      "tokens()": {
        "details": "Returns pair of tokens currently in use. "
      },
      "totalDeposits()": {
        "details": "Returns total amount locked in the pool. ",
        "returns": {
          "totalDepositsA": "- Token A deposits.",
          "totalDepositsB": "- Token B deposits."
        }
      },
      "totalSupply()": {
        "details": "See {IERC20-totalSupply}."
      },
      "transfer(address,uint256)": {
        "details": "See {IERC20-transfer}. Requirements: - `to` cannot be the zero address. - the caller must have a balance of at least `amount`."
      },
      "transferBanxe(address)": {
        "details": "Transfers banxe rights of the contract to a new account (`_banxe`).",
        "params": {
          "_banxe": "- Address to transfer banxe rights to. Note: This function can only be called by Banxe."
        }
      },
      "transferFrom(address,address,uint256)": {
        "details": "See {IERC20-transferFrom}. Emits an {Approval} event indicating the updated allowance. This is not required by the EIP. See the note at the beginning of {ERC20}. NOTE: Does not update the allowance if the current allowance is the maximum `uint256`. Requirements: - `from` and `to` cannot be the zero address. - `from` must have a balance of at least `amount`. - the caller must have allowance for ``from``'s tokens of at least `amount`."
      },
      "upgradeTo(address)": {
        "details": "Upgrade the implementation of the proxy to `newImplementation`. Calls {_authorizeUpgrade}. Emits an {Upgraded} event."
      },
      "upgradeToAndCall(address,bytes)": {
        "details": "Upgrade the implementation of the proxy to `newImplementation`, and subsequently execute the function call encoded in `data`. Calls {_authorizeUpgrade}. Emits an {Upgraded} event."
      },
      "userStake(address)": {
        "details": "Returns tokens staked by the {_address}. ",
        "params": {
          "_address": "- The address to check stakes for."
        },
        "returns": {
          "stakeA": "- Token A stake.",
          "stakeB": "- Token B stake."
        }
      },
      "withdraw(uint256,uint256,uint256,address)": {
        "details": "Withdraws tokens from the {pools[poolID]} pool and sends them to the recipient. Burns tokens representing user share. Emits {Withdraw} event.",
        "params": {
          "amountAMin": "- The minimum amount of tokenA that must be received from the pool for the transaction not to revert.",
          "amountBMin": "- The minimum amount of tokenB that must be received from the pool for the transaction not to revert.",
          "liquidity": "- Liquidity to burn from this user."
        },
        "returns": {
          "amountA": "- Token A amount sent to the {recipient}.",
          "amountB": "- Token B amount sent to the {recipient}."
        }
      }
    },
    "stateVariables": {
      "banxe": {
        "details": "Contract Variables: {banxe} - Banxe account that can make deposits to this autostrat. {poolID} - Current pool the strategy uses ({pools} index). {pools} - Pools this strategy can use and move liquidity to. {tokenA} - Pool's first token address. {tokenB} - Pool's second token address. {reserveLP} - LP token reserve. {MINIMUM_LIQUIDITY} - Ameliorates rounding errors. {accessManager} - Role manager contract."
      }
    },
    "version": 1
  },
  "userdoc": {
    "kind": "user",
    "methods": {},
    "version": 1
  }
}