{
  "contractName": "UnoAutoStrategyV0",
  "abi": [
    {
      "anonymous": false,
      "inputs": [
        {
          "indexed": true,
          "internalType": "address",
          "name": "owner",
          "type": "address"
        },
        {
          "indexed": true,
          "internalType": "address",
          "name": "spender",
          "type": "address"
        },
        {
          "indexed": false,
          "internalType": "uint256",
          "name": "value",
          "type": "uint256"
        }
      ],
      "name": "Approval",
      "type": "event"
    },
    {
      "anonymous": false,
      "inputs": [
        {
          "indexed": true,
          "internalType": "uint256",
          "name": "poolID",
          "type": "uint256"
        },
        {
          "indexed": true,
          "internalType": "address",
          "name": "from",
          "type": "address"
        },
        {
          "indexed": true,
          "internalType": "address",
          "name": "recipient",
          "type": "address"
        },
        {
          "indexed": false,
          "internalType": "uint256",
          "name": "amountLP",
          "type": "uint256"
        }
      ],
      "name": "Deposit",
      "type": "event"
    },
    {
      "anonymous": false,
      "inputs": [
        {
          "indexed": true,
          "internalType": "uint256",
          "name": "poolID",
          "type": "uint256"
        },
        {
          "indexed": false,
          "internalType": "uint256",
          "name": "amountA",
          "type": "uint256"
        },
        {
          "indexed": false,
          "internalType": "uint256",
          "name": "amountB",
          "type": "uint256"
        }
      ],
      "name": "DepositPairTokens",
      "type": "event"
    },
    {
      "anonymous": false,
      "inputs": [
        {
          "indexed": true,
          "internalType": "uint256",
          "name": "poolID",
          "type": "uint256"
        },
        {
          "indexed": false,
          "internalType": "uint256",
          "name": "amountToken",
          "type": "uint256"
        },
        {
          "indexed": false,
          "internalType": "uint256",
          "name": "amountETH",
          "type": "uint256"
        }
      ],
      "name": "DepositPairTokensETH",
      "type": "event"
    },
    {
      "anonymous": false,
      "inputs": [
        {
          "indexed": true,
          "internalType": "uint256",
          "name": "poolID",
          "type": "uint256"
        },
        {
          "indexed": false,
          "internalType": "uint256",
          "name": "amountETH",
          "type": "uint256"
        }
      ],
      "name": "DepositSingleETH",
      "type": "event"
    },
    {
      "anonymous": false,
      "inputs": [
        {
          "indexed": true,
          "internalType": "uint256",
          "name": "poolID",
          "type": "uint256"
        },
        {
          "indexed": true,
          "internalType": "address",
          "name": "token",
          "type": "address"
        },
        {
          "indexed": false,
          "internalType": "uint256",
          "name": "amount",
          "type": "uint256"
        }
      ],
      "name": "DepositSingleToken",
      "type": "event"
    },
    {
      "anonymous": false,
      "inputs": [
        {
          "indexed": false,
          "internalType": "uint8",
          "name": "version",
          "type": "uint8"
        }
      ],
      "name": "Initialized",
      "type": "event"
    },
    {
      "anonymous": false,
      "inputs": [
        {
          "indexed": true,
          "internalType": "uint256",
          "name": "previousPoolID",
          "type": "uint256"
        },
        {
          "indexed": true,
          "internalType": "uint256",
          "name": "nextPoolID",
          "type": "uint256"
        }
      ],
      "name": "MoveLiquidity",
      "type": "event"
    },
    {
      "anonymous": false,
      "inputs": [
        {
          "indexed": true,
          "internalType": "address",
          "name": "from",
          "type": "address"
        },
        {
          "indexed": true,
          "internalType": "address",
          "name": "to",
          "type": "address"
        },
        {
          "indexed": false,
          "internalType": "uint256",
          "name": "value",
          "type": "uint256"
        }
      ],
      "name": "Transfer",
      "type": "event"
    },
    {
      "anonymous": false,
      "inputs": [
        {
          "indexed": true,
          "internalType": "uint256",
          "name": "poolID",
          "type": "uint256"
        },
        {
          "indexed": true,
          "internalType": "address",
          "name": "from",
          "type": "address"
        },
        {
          "indexed": true,
          "internalType": "address",
          "name": "recipient",
          "type": "address"
        },
        {
          "indexed": false,
          "internalType": "uint256",
          "name": "amountLP",
          "type": "uint256"
        }
      ],
      "name": "Withdraw",
      "type": "event"
    },
    {
      "anonymous": false,
      "inputs": [
        {
          "indexed": true,
          "internalType": "uint256",
          "name": "poolID",
          "type": "uint256"
        },
        {
          "indexed": false,
          "internalType": "uint256",
          "name": "amountA",
          "type": "uint256"
        },
        {
          "indexed": false,
          "internalType": "uint256",
          "name": "amountB",
          "type": "uint256"
        }
      ],
      "name": "WithdrawPairTokens",
      "type": "event"
    },
    {
      "anonymous": false,
      "inputs": [
        {
          "indexed": true,
          "internalType": "uint256",
          "name": "poolID",
          "type": "uint256"
        },
        {
          "indexed": false,
          "internalType": "uint256",
          "name": "amountToken",
          "type": "uint256"
        },
        {
          "indexed": false,
          "internalType": "uint256",
          "name": "amountETH",
          "type": "uint256"
        }
      ],
      "name": "WithdrawPairTokensETH",
      "type": "event"
    },
    {
      "anonymous": false,
      "inputs": [
        {
          "indexed": true,
          "internalType": "uint256",
          "name": "poolID",
          "type": "uint256"
        },
        {
          "indexed": false,
          "internalType": "uint256",
          "name": "amountETH",
          "type": "uint256"
        },
        {
          "indexed": false,
          "internalType": "uint256",
          "name": "amountA",
          "type": "uint256"
        },
        {
          "indexed": false,
          "internalType": "uint256",
          "name": "amountB",
          "type": "uint256"
        }
      ],
      "name": "WithdrawSingleETH",
      "type": "event"
    },
    {
      "anonymous": false,
      "inputs": [
        {
          "indexed": true,
          "internalType": "uint256",
          "name": "poolID",
          "type": "uint256"
        },
        {
          "indexed": true,
          "internalType": "address",
          "name": "token",
          "type": "address"
        },
        {
          "indexed": false,
          "internalType": "uint256",
          "name": "amount",
          "type": "uint256"
        },
        {
          "indexed": false,
          "internalType": "uint256",
          "name": "amountA",
          "type": "uint256"
        },
        {
          "indexed": false,
          "internalType": "uint256",
          "name": "amountB",
          "type": "uint256"
        }
      ],
      "name": "WithdrawSingleToken",
      "type": "event"
    },
    {
      "inputs": [],
      "name": "WMATIC",
      "outputs": [
        {
          "internalType": "address",
          "name": "",
          "type": "address"
        }
      ],
      "stateMutability": "view",
      "type": "function"
    },
    {
      "inputs": [],
      "name": "accessManager",
      "outputs": [
        {
          "internalType": "contract IUnoAccessManager",
          "name": "",
          "type": "address"
        }
      ],
      "stateMutability": "view",
      "type": "function"
    },
    {
      "inputs": [
        {
          "internalType": "address",
          "name": "owner",
          "type": "address"
        },
        {
          "internalType": "address",
          "name": "spender",
          "type": "address"
        }
      ],
      "name": "allowance",
      "outputs": [
        {
          "internalType": "uint256",
          "name": "",
          "type": "uint256"
        }
      ],
      "stateMutability": "view",
      "type": "function"
    },
    {
      "inputs": [
        {
          "internalType": "address",
          "name": "spender",
          "type": "address"
        },
        {
          "internalType": "uint256",
          "name": "amount",
          "type": "uint256"
        }
      ],
      "name": "approve",
      "outputs": [
        {
          "internalType": "bool",
          "name": "",
          "type": "bool"
        }
      ],
      "stateMutability": "nonpayable",
      "type": "function"
    },
    {
      "inputs": [
        {
          "internalType": "address",
          "name": "account",
          "type": "address"
        }
      ],
      "name": "balanceOf",
      "outputs": [
        {
          "internalType": "uint256",
          "name": "",
          "type": "uint256"
        }
      ],
      "stateMutability": "view",
      "type": "function"
    },
    {
      "inputs": [],
      "name": "decimals",
      "outputs": [
        {
          "internalType": "uint8",
          "name": "",
          "type": "uint8"
        }
      ],
      "stateMutability": "view",
      "type": "function"
    },
    {
      "inputs": [
        {
          "internalType": "address",
          "name": "spender",
          "type": "address"
        },
        {
          "internalType": "uint256",
          "name": "subtractedValue",
          "type": "uint256"
        }
      ],
      "name": "decreaseAllowance",
      "outputs": [
        {
          "internalType": "bool",
          "name": "",
          "type": "bool"
        }
      ],
      "stateMutability": "nonpayable",
      "type": "function"
    },
    {
      "inputs": [],
      "name": "factory",
      "outputs": [
        {
          "internalType": "contract IUnoAutoStrategyFactory",
          "name": "",
          "type": "address"
        }
      ],
      "stateMutability": "view",
      "type": "function"
    },
    {
      "inputs": [
        {
          "internalType": "address",
          "name": "spender",
          "type": "address"
        },
        {
          "internalType": "uint256",
          "name": "addedValue",
          "type": "uint256"
        }
      ],
      "name": "increaseAllowance",
      "outputs": [
        {
          "internalType": "bool",
          "name": "",
          "type": "bool"
        }
      ],
      "stateMutability": "nonpayable",
      "type": "function"
    },
    {
      "inputs": [],
      "name": "name",
      "outputs": [
        {
          "internalType": "string",
          "name": "",
          "type": "string"
        }
      ],
      "stateMutability": "view",
      "type": "function"
    },
    {
      "inputs": [],
      "name": "poolID",
      "outputs": [
        {
          "internalType": "uint256",
          "name": "",
          "type": "uint256"
        }
      ],
      "stateMutability": "view",
      "type": "function"
    },
    {
      "inputs": [
        {
          "internalType": "uint256",
          "name": "",
          "type": "uint256"
        }
      ],
      "name": "pools",
      "outputs": [
        {
          "internalType": "address",
          "name": "pool",
          "type": "address"
        },
        {
          "internalType": "contract IUnoAssetRouter",
          "name": "assetRouter",
          "type": "address"
        },
        {
          "internalType": "contract IERC20Upgradeable",
          "name": "tokenA",
          "type": "address"
        },
        {
          "internalType": "contract IERC20Upgradeable",
          "name": "tokenB",
          "type": "address"
        }
      ],
      "stateMutability": "view",
      "type": "function"
    },
    {
      "inputs": [],
      "name": "symbol",
      "outputs": [
        {
          "internalType": "string",
          "name": "",
          "type": "string"
        }
      ],
      "stateMutability": "view",
      "type": "function"
    },
    {
      "inputs": [],
      "name": "totalSupply",
      "outputs": [
        {
          "internalType": "uint256",
          "name": "",
          "type": "uint256"
        }
      ],
      "stateMutability": "view",
      "type": "function"
    },
    {
      "inputs": [
        {
          "internalType": "address",
          "name": "to",
          "type": "address"
        },
        {
          "internalType": "uint256",
          "name": "amount",
          "type": "uint256"
        }
      ],
      "name": "transfer",
      "outputs": [
        {
          "internalType": "bool",
          "name": "",
          "type": "bool"
        }
      ],
      "stateMutability": "nonpayable",
      "type": "function"
    },
    {
      "inputs": [
        {
          "internalType": "address",
          "name": "from",
          "type": "address"
        },
        {
          "internalType": "address",
          "name": "to",
          "type": "address"
        },
        {
          "internalType": "uint256",
          "name": "amount",
          "type": "uint256"
        }
      ],
      "name": "transferFrom",
      "outputs": [
        {
          "internalType": "bool",
          "name": "",
          "type": "bool"
        }
      ],
      "stateMutability": "nonpayable",
      "type": "function"
    },
    {
      "stateMutability": "payable",
      "type": "receive"
    },
    {
      "inputs": [
        {
          "components": [
            {
              "internalType": "address",
              "name": "pool",
              "type": "address"
            },
            {
              "internalType": "contract IUnoAssetRouter",
              "name": "assetRouter",
              "type": "address"
            }
          ],
          "internalType": "struct UnoAutoStrategyV0._PoolInfo[]",
          "name": "poolInfos",
          "type": "tuple[]"
        },
        {
          "internalType": "contract IUnoAccessManager",
          "name": "_accessManager",
          "type": "address"
        }
      ],
      "name": "initialize",
      "outputs": [],
      "stateMutability": "nonpayable",
      "type": "function"
    },
    {
      "inputs": [
        {
          "internalType": "uint256",
          "name": "pid",
          "type": "uint256"
        },
        {
          "internalType": "uint256",
          "name": "amountA",
          "type": "uint256"
        },
        {
          "internalType": "uint256",
          "name": "amountB",
          "type": "uint256"
        },
        {
          "internalType": "uint256",
          "name": "amountAMin",
          "type": "uint256"
        },
        {
          "internalType": "uint256",
          "name": "amountBMin",
          "type": "uint256"
        },
        {
          "internalType": "address",
          "name": "recipient",
          "type": "address"
        }
      ],
      "name": "deposit",
      "outputs": [
        {
          "internalType": "uint256",
          "name": "sentA",
          "type": "uint256"
        },
        {
          "internalType": "uint256",
          "name": "sentB",
          "type": "uint256"
        },
        {
          "internalType": "uint256",
          "name": "liquidity",
          "type": "uint256"
        }
      ],
      "stateMutability": "nonpayable",
      "type": "function"
    },
    {
      "inputs": [
        {
          "internalType": "uint256",
          "name": "pid",
          "type": "uint256"
        },
        {
          "internalType": "uint256",
          "name": "amountToken",
          "type": "uint256"
        },
        {
          "internalType": "uint256",
          "name": "amountTokenMin",
          "type": "uint256"
        },
        {
          "internalType": "uint256",
          "name": "amountETHMin",
          "type": "uint256"
        },
        {
          "internalType": "address",
          "name": "recipient",
          "type": "address"
        }
      ],
      "name": "depositETH",
      "outputs": [
        {
          "internalType": "uint256",
          "name": "sentToken",
          "type": "uint256"
        },
        {
          "internalType": "uint256",
          "name": "sentETH",
          "type": "uint256"
        },
        {
          "internalType": "uint256",
          "name": "liquidity",
          "type": "uint256"
        }
      ],
      "stateMutability": "payable",
      "type": "function"
    },
    {
      "inputs": [
        {
          "internalType": "uint256",
          "name": "pid",
          "type": "uint256"
        },
        {
          "internalType": "uint256",
          "name": "liquidity",
          "type": "uint256"
        },
        {
          "internalType": "uint256",
          "name": "amountAMin",
          "type": "uint256"
        },
        {
          "internalType": "uint256",
          "name": "amountBMin",
          "type": "uint256"
        },
        {
          "internalType": "address",
          "name": "recipient",
          "type": "address"
        }
      ],
      "name": "withdraw",
      "outputs": [
        {
          "internalType": "uint256",
          "name": "amountA",
          "type": "uint256"
        },
        {
          "internalType": "uint256",
          "name": "amountB",
          "type": "uint256"
        }
      ],
      "stateMutability": "nonpayable",
      "type": "function"
    },
    {
      "inputs": [
        {
          "internalType": "uint256",
          "name": "pid",
          "type": "uint256"
        },
        {
          "internalType": "uint256",
          "name": "liquidity",
          "type": "uint256"
        },
        {
          "internalType": "uint256",
          "name": "amountTokenMin",
          "type": "uint256"
        },
        {
          "internalType": "uint256",
          "name": "amountETHMin",
          "type": "uint256"
        },
        {
          "internalType": "address",
          "name": "recipient",
          "type": "address"
        }
      ],
      "name": "withdrawETH",
      "outputs": [
        {
          "internalType": "uint256",
          "name": "amountToken",
          "type": "uint256"
        },
        {
          "internalType": "uint256",
          "name": "amountETH",
          "type": "uint256"
        }
      ],
      "stateMutability": "nonpayable",
      "type": "function"
    },
    {
      "inputs": [
        {
          "internalType": "uint256",
          "name": "_poolID",
          "type": "uint256"
        },
        {
          "internalType": "bytes",
          "name": "swapAData",
          "type": "bytes"
        },
        {
          "internalType": "bytes",
          "name": "swapBData",
          "type": "bytes"
        },
        {
          "internalType": "uint256",
          "name": "amountAMin",
          "type": "uint256"
        },
        {
          "internalType": "uint256",
          "name": "amountBMin",
          "type": "uint256"
        }
      ],
      "name": "moveLiquidity",
      "outputs": [],
      "stateMutability": "nonpayable",
      "type": "function"
    },
    {
      "inputs": [
        {
          "internalType": "address",
          "name": "_address",
          "type": "address"
        }
      ],
      "name": "userStake",
      "outputs": [
        {
          "internalType": "uint256",
          "name": "stakeA",
          "type": "uint256"
        },
        {
          "internalType": "uint256",
          "name": "stakeB",
          "type": "uint256"
        },
        {
          "internalType": "uint256",
          "name": "leftoverA",
          "type": "uint256"
        },
        {
          "internalType": "uint256",
          "name": "leftoverB",
          "type": "uint256"
        }
      ],
      "stateMutability": "view",
      "type": "function"
    },
    {
      "inputs": [],
      "name": "totalDeposits",
      "outputs": [
        {
          "internalType": "uint256",
          "name": "totalDepositsA",
          "type": "uint256"
        },
        {
          "internalType": "uint256",
          "name": "totalDepositsB",
          "type": "uint256"
        }
      ],
      "stateMutability": "view",
      "type": "function"
    },
    {
      "inputs": [],
      "name": "poolsLength",
      "outputs": [
        {
          "internalType": "uint256",
          "name": "",
          "type": "uint256"
        }
      ],
      "stateMutability": "view",
      "type": "function"
    },
    {
      "inputs": [],
      "name": "tokens",
      "outputs": [
        {
          "internalType": "address",
          "name": "",
          "type": "address"
        },
        {
          "internalType": "address",
          "name": "",
          "type": "address"
        }
      ],
      "stateMutability": "view",
      "type": "function"
    }
  ],
  "bytecode": "0x608060405234801561001057600080fd5b506147fc806100206000396000f3fe6080604052600436106101855760003560e01c806374552fb6116100d1578063a457c2d71161008a578063c45a015511610064578063c45a0155146104ed578063d473a6541461050d578063dd62ed3e1461052d578063fdcb60681461054d57600080fd5b8063a457c2d71461045a578063a9059cbb1461047a578063ac4afa381461049a57600080fd5b806374552fb6146103b75780637d882097146103d75780638d934485146103ec5780639130700e1461040257806395d89b41146104225780639d63848a1461043757600080fd5b80632716ae661161013e5780634d95cad9116101185780634d95cad9146102df578063668393c71461031f57806368e5585d1461034157806370a082311461038157600080fd5b80632716ae661461028e578063313ce567146102a357806339509351146102bf57600080fd5b806306fdde0314610191578063095ea7b3146101bc57806318160ddd146101ec5780631c723b821461020b57806322604f741461024057806323b872dd1461026e57600080fd5b3661018c57005b600080fd5b34801561019d57600080fd5b506101a661056d565b6040516101b39190613b76565b60405180910390f35b3480156101c857600080fd5b506101dc6101d7366004613ba1565b6105ff565b60405190151581526020016101b3565b3480156101f857600080fd5b506035545b6040519081526020016101b3565b34801561021757600080fd5b5061022b610226366004613bcd565b610617565b604080519283526020830191909152016101b3565b61025361024e366004613bcd565b610962565b604080519384526020840192909252908201526060016101b3565b34801561027a57600080fd5b506101dc610289366004613c1a565b610ca9565b34801561029a57600080fd5b506098546101fd565b3480156102af57600080fd5b50604051601281526020016101b3565b3480156102cb57600080fd5b506101dc6102da366004613ba1565b610ccf565b3480156102eb57600080fd5b50610307730d500b1d8e8ef31e21c99d1db9a6444d3adf127081565b6040516001600160a01b0390911681526020016101b3565b34801561032b57600080fd5b5061033f61033a366004613ca3565b610cf1565b005b34801561034d57600080fd5b5061036161035c366004613d2b565b611975565b6040805194855260208501939093529183015260608201526080016101b3565b34801561038d57600080fd5b506101fd61039c366004613d2b565b6001600160a01b031660009081526033602052604090205490565b3480156103c357600080fd5b5061033f6103d2366004613d48565b611b8e565b3480156103e357600080fd5b5061022b612280565b3480156103f857600080fd5b506101fd60975481565b34801561040e57600080fd5b5061025361041d366004613dcd565b61244b565b34801561042e57600080fd5b506101a661273d565b34801561044357600080fd5b5061044c61274c565b6040516101b3929190613e22565b34801561046657600080fd5b506101dc610475366004613ba1565b6127c6565b34801561048657600080fd5b506101dc610495366004613ba1565b61284c565b3480156104a657600080fd5b506104ba6104b5366004613e3c565b61285a565b604080516001600160a01b03958616815293851660208501529184169183019190915290911660608201526080016101b3565b3480156104f957600080fd5b5060a154610307906001600160a01b031681565b34801561051957600080fd5b5061022b610528366004613bcd565b6128a4565b34801561053957600080fd5b506101fd610548366004613e55565b612ae0565b34801561055957600080fd5b5060a054610307906001600160a01b031681565b60606036805461057c90613e8e565b80601f01602080910402602001604051908101604052809291908181526020018280546105a890613e8e565b80156105f55780601f106105ca576101008083540402835291602001916105f5565b820191906000526020600020905b8154815290600101906020018083116105d857829003601f168201915b5050505050905090565b60003361060d818585612b0b565b5060019392505050565b60008060a160009054906101000a90046001600160a01b03166001600160a01b0316635c975abb6040518163ffffffff1660e01b8152600401602060405180830381865afa15801561066d573d6000803e3d6000fd5b505050506040513d601f19601f820116820180604052508101906106919190613ec9565b156106b75760405162461bcd60e51b81526004016106ae90613eeb565b60405180910390fd5b600260655414156106da5760405162461bcd60e51b81526004016106ae90613f15565b600260655560975487146107005760405162461bcd60e51b81526004016106ae90613f4c565b600060986097548154811061071757610717613f71565b6000918252602080832060408051608081018252600490940290910180546001600160a01b039081168552600182015481169385019390935260028101548316918401919091526003015416606082015291508061077486612c2f565b9150915060006107838a612dce565b6020850151855160405163deb03f4d60e01b81529293506001600160a01b039091169163deb03f4d916107c09185908e908e908e90600401613f87565b60408051808303816000875af11580156107de573d6000803e3d6000fd5b505050506040513d601f19601f820116820180604052508101906108029190613fb7565b604086015191975095506001600160a01b0316730d500b1d8e8ef31e21c99d1db9a6444d3adf1270141561084d5761083a8386613ff1565b94506108468287613ff1565b95506108cd565b60608401516001600160a01b0316730d500b1d8e8ef31e21c99d1db9a6444d3adf12701415610893576108808387613ff1565b955061088c8286613ff1565b94506108cd565b60405162461bcd60e51b815260206004820152600f60248201526e1393d517d5d350551250d7d413d3d3608a1b60448201526064016106ae565b60975460408051888152602081018890527fec8ea790e053f644b6490a17d81267d813f466d779e36cd538c56166bfb650f991015b60405180910390a26097546040518281526001600160a01b0389169133917ffeb2000dca3e617cd6f3a8bbb63014bb54a124aac6ccbf73ee7229b4cd01f1209060200160405180910390a450506001606555509197909650945050505050565b600080600060a160009054906101000a90046001600160a01b03166001600160a01b0316635c975abb6040518163ffffffff1660e01b8152600401602060405180830381865afa1580156109ba573d6000803e3d6000fd5b505050506040513d601f19601f820116820180604052508101906109de9190613ec9565b156109fb5760405162461bcd60e51b81526004016106ae90613eeb565b60026065541415610a1e5760405162461bcd60e51b81526004016106ae90613f15565b60026065556097548814610a445760405162461bcd60e51b81526004016106ae90613f4c565b6000609860975481548110610a5b57610a5b613f71565b6000918252602080832060408051608081018252600490940290910180546001600160a01b039081168552600182015481169385019390935260028101548316918401829052600301549091166060830152909250730d500b1d8e8ef31e21c99d1db9a6444d3adf12701415610ad657506060810151610b06565b60608201516001600160a01b0316730d500b1d8e8ef31e21c99d1db9a6444d3adf12701415610893575060408101515b610b1b6001600160a01b03821633308c612f2c565b60208201518251604051633fbe902560e21b81526000926001600160a01b03169163fefa4094913491610b58918f908f908f903090600401613f87565b60606040518083038185885af1158015610b76573d6000803e3d6000fd5b50505050506040513d601f19601f82011682018060405250810190610b9b9190614009565b91975095509050610bab87612f97565b9350858a1115610bd457610bd433610bc3888d614037565b6001600160a01b038516919061312a565b84341115610c1457336108fc610bea8734614037565b6040518115909202916000818181858888f19350505050158015610c12573d6000803e3d6000fd5b505b60975460408051888152602081018890527f33ec26ffa0eadd23ca7311e5f8f35ce115ffaf52cfea3180a7fdc6a592b09039910160405180910390a26097546040518281526001600160a01b0389169133917f2c0f148b435140de488c1b34647f1511c646f7077e87007bacf22ef9977a16d89060200160405180910390a45050506001606581905550955095509592505050565b600033610cb785828561315f565b610cc28585856131d3565b60019150505b9392505050565b60003361060d818585610ce28383612ae0565b610cec9190613ff1565b612b0b565b60a160009054906101000a90046001600160a01b03166001600160a01b0316635c975abb6040518163ffffffff1660e01b8152600401602060405180830381865afa158015610d44573d6000803e3d6000fd5b505050506040513d601f19601f82011682018060405250810190610d689190613ec9565b15610d855760405162461bcd60e51b81526004016106ae90613eeb565b60026065541415610da85760405162461bcd60e51b81526004016106ae90613f15565b600260655560a054604051632474521560e21b81527f77e60b99a50d27fb027f6912a507d956105b4148adab27a86d235c8bcca8fa2f60048201523360248201526001600160a01b03909116906391d1485490604401602060405180830381865afa158015610e1b573d6000803e3d6000fd5b505050506040513d601f19601f82011682018060405250810190610e3f9190613ec9565b610e8b5760405162461bcd60e51b815260206004820152601c60248201527f43414c4c45525f4e4f545f4c49515549444954595f4d414e414745520000000060448201526064016106ae565b603554610ec95760405162461bcd60e51b815260206004820152600c60248201526b4e4f5f4c495155494449545960a01b60448201526064016106ae565b609d54431415610f1b5760405162461bcd60e51b815260206004820152601b60248201527f43414e545f43414c4c5f4f4e5f5448455f53414d455f424c4f434b000000000060448201526064016106ae565b60985487108015610f2e57506097548714155b610f4a5760405162461bcd60e51b81526004016106ae90613f4c565b6000609860975481548110610f6157610f61613f71565b6000918252602080832060408051608081018252600490940290910180546001600160a01b039081168552600182015481169385019390935260028101548316918401919091526003015416606082015260988054919350908a908110610fca57610fca613f71565b6000918252602080832060408051608081018252600494850290920180546001600160a01b039081168452600182015481168486015260028201548116848401526003909101548116606084015292870151875191516328dee51f60e11b8152929650909216926351bdca3e9261104392309201613e22565b606060405180830381865afa158015611060573d6000803e3d6000fd5b505050506040513d601f19601f820116820180604052508101906110849190614009565b505060208401518451604051636c27fc2160e11b81529293506001600160a01b039091169163d84ff842916110c491859060009081903090600401613f87565b60408051808303816000875af11580156110e2573d6000803e3d6000fd5b505050506040513d601f19601f820116820180604052508101906111069190613fb7565b505060408084015190516370a0823160e01b81523060048201526000916001600160a01b0316906370a0823190602401602060405180830381865afa158015611153573d6000803e3d6000fd5b505050506040513d601f19601f82011682018060405250810190611177919061404e565b60608501516040516370a0823160e01b81523060048201529192506000916001600160a01b03909116906370a0823190602401602060405180830381865afa1580156111c7573d6000803e3d6000fd5b505050506040513d601f19601f820116820180604052508101906111eb919061404e565b905083604001516001600160a01b031685604001516001600160a01b0316146114525760008060008060008f8f600490809261122993929190614067565b8101906112369190614269565b955095509550509450945084516001148015611253575083516001145b61129f5760405162461bcd60e51b815260206004820152601860248201527f4241445f535741505f415f544f4b454e535f4c454e475448000000000000000060448201526064016106ae565b89604001516001600160a01b0316856000815181106112c0576112c0613f71565b6020026020010151600001516001600160a01b03161461131b5760405162461bcd60e51b81526020600482015260166024820152752120a22fa9aba0a82fa0afa4a7282aaa2faa27a5a2a760511b60448201526064016106ae565b88604001516001600160a01b03168460008151811061133c5761133c613f71565b6020026020010151600001516001600160a01b03161461139e5760405162461bcd60e51b815260206004820152601760248201527f4241445f535741505f415f4f55545055545f544f4b454e00000000000000000060448201526064016106ae565b86856000815181106113b2576113b2613f71565b60209081029190910181015101526040516378bd22a360e11b815273a32ee1c40594249eb3183c10792bcf573d4da47c9063f17a454690611403908890889060001990899089908990600401614470565b6000604051808303816000875af1158015611422573d6000803e3d6000fd5b505050506040513d6000823e601f3d908101601f1916820160405261144a9190810190614557565b505050505050505b83606001516001600160a01b031685606001516001600160a01b0316146116b75760008060008060008d8d600490809261148e93929190614067565b81019061149b9190614269565b9550955095505094509450845160011480156114b8575083516001145b6115045760405162461bcd60e51b815260206004820152601860248201527f4241445f535741505f425f544f4b454e535f4c454e475448000000000000000060448201526064016106ae565b89606001516001600160a01b03168560008151811061152557611525613f71565b6020026020010151600001516001600160a01b0316146115805760405162461bcd60e51b81526020600482015260166024820152752120a22fa9aba0a82fa12fa4a7282aaa2faa27a5a2a760511b60448201526064016106ae565b88606001516001600160a01b0316846000815181106115a1576115a1613f71565b6020026020010151600001516001600160a01b0316146116035760405162461bcd60e51b815260206004820152601760248201527f4241445f535741505f425f4f55545055545f544f4b454e00000000000000000060448201526064016106ae565b858560008151811061161757611617613f71565b60209081029190910181015101526040516378bd22a360e11b815273a32ee1c40594249eb3183c10792bcf573d4da47c9063f17a454690611668908890889060001990899089908990600401614470565b6000604051808303816000875af1158015611687573d6000803e3d6000fd5b505050506040513d6000823e601f3d908101601f191682016040526116af9190810190614557565b505050505050505b6020840151845160408087015190516370a0823160e01b81523060048201526001600160a01b0393841693636505e65e939216906370a0823190602401602060405180830381865afa158015611711573d6000803e3d6000fd5b505050506040513d601f19601f82011682018060405250810190611735919061404e565b60608801516040516370a0823160e01b81523060048201526001600160a01b03909116906370a0823190602401602060405180830381865afa15801561177f573d6000803e3d6000fd5b505050506040513d601f19601f820116820180604052508101906117a3919061404e565b8b8b306040518763ffffffff1660e01b81526004016117c7969594939291906145ef565b6060604051808303816000875af11580156117e6573d6000803e3d6000fd5b505050506040513d601f19601f8201168201806040525081019061180a9190614009565b60995550506040805160808101808352918601516370a0823160e01b9092523060848201529081906001600160a01b03166370a0823160a48301602060405180830381865afa158015611861573d6000803e3d6000fd5b505050506040513d601f19601f82011682018060405250810190611885919061404e565b815260608601516040516370a0823160e01b81523060048201526020909201916001600160a01b03909116906370a0823190602401602060405180830381865afa1580156118d7573d6000803e3d6000fd5b505050506040513d601f19601f820116820180604052508101906118fb919061404e565b815260200161190960355490565b8152436020918201528151609a55810151609b55604080820151609c55606090910151609d5560975490518d91907faf62d6e59ad2e54c778a490827e6cb28b1d30794092c7367fdbb261b11de033690600090a350505060979890985550506001606555505050505050565b600080600080600060986097548154811061199257611992613f71565b6000918252602080832060408051608081018252600494850290920180546001600160a01b0390811680855260018301548216958501869052600283015482168585015260039092015416606084015290516328dee51f60e11b815291955084936351bdca3e92611a07923092909101613e22565b606060405180830381865afa158015611a24573d6000803e3d6000fd5b505050506040513d601f19601f82011682018060405250810190611a489190614009565b92509250506000611a6e896001600160a01b031660009081526033602052604090205490565b90508015611b83576000611a8160355490565b905080611a8e8584614627565b611a989190614646565b985080611aa58484614627565b611aaf9190614646565b336000908152609f60209081526040808320609d54845290915290205490985060ff16158015611ae05750609c5415155b15611b8157609c54609a546001600160a01b038c166000908152609e60209081526040808320609d548452909152902054611b1b9085614037565b611b259190614627565b611b2f9190614646565b609c54609b546001600160a01b038d166000908152609e60209081526040808320609d5484529091529020549299509091611b6a9085614037565b611b749190614627565b611b7e9190614646565b95505b505b505050509193509193565b6000611b9a60016133ac565b90508015611bb2576000805461ff0019166101001790555b60028310801590611bc4575060328311155b611c015760405162461bcd60e51b815260206004820152600e60248201526d10905117d413d3d317d0d3d5539560921b60448201526064016106ae565b611c516040518060400160405280601081526020016f554e4f2d4175746f537472617465677960801b815250604051806040016040528060068152602001650554e4f2d4c560d41b815250613439565b611c5961346e565b60005b83811015612206576000858583818110611c7857611c78613f71565b9050604002016020016020810190611c909190613d2b565b6001600160a01b031663450efe21878785818110611cb057611cb0613f71565b611cc69260206040909202019081019150613d2b565b6040516001600160e01b031960e084901b1681526001600160a01b039091166004820152602401600060405180830381865afa158015611d0a573d6000803e3d6000fd5b505050506040513d6000823e601f3d908101601f19168201604052611d329190810190614668565b905060006040518060800160405280888886818110611d5357611d53613f71565b611d699260206040909202019081019150613d2b565b6001600160a01b03168152602001888886818110611d8957611d89613f71565b9050604002016020016020810190611da19190613d2b565b6001600160a01b0316815260200183600081518110611dc257611dc2613f71565b60200260200101516001600160a01b0316815260200183600181518110611deb57611deb613f71565b6020908102919091018101516001600160a01b0390811690925260988054600181018255600091909152835160049182027f2237a976fa961f5921fd19f2b03c925c725d77b20ce8f790c19709c03de4d814810180549286166001600160a01b0319938416179055928501517f2237a976fa961f5921fd19f2b03c925c725d77b20ce8f790c19709c03de4d815840180548287169084161790556040808701517f2237a976fa961f5921fd19f2b03c925c725d77b20ce8f790c19709c03de4d816860180549188169185168217905560608801517f2237a976fa961f5921fd19f2b03c925c725d77b20ce8f790c19709c03de4d81790960180549690971695909316949094179094559151636eb1769f60e11b8152939450909263dd62ed3e92611f1792309201613e22565b602060405180830381865afa158015611f34573d6000803e3d6000fd5b505050506040513d601f19601f82011682018060405250810190611f58919061404e565b61206957604080820151905163095ea7b360e01b815273a32ee1c40594249eb3183c10792bcf573d4da47c600482015260001960248201526001600160a01b039091169063095ea7b3906044016020604051808303816000875af1158015611fc4573d6000803e3d6000fd5b505050506040513d601f19601f82011682018060405250810190611fe89190613ec9565b506040808201516020830151915163095ea7b360e01b81526001600160a01b039283166004820152600019602482015291169063095ea7b3906044016020604051808303816000875af1158015612043573d6000803e3d6000fd5b505050506040513d601f19601f820116820180604052508101906120679190613ec9565b505b80606001516001600160a01b031663dd62ed3e3083602001516040518363ffffffff1660e01b815260040161209f929190613e22565b602060405180830381865afa1580156120bc573d6000803e3d6000fd5b505050506040513d601f19601f820116820180604052508101906120e0919061404e565b6121f157606081015160405163095ea7b360e01b815273a32ee1c40594249eb3183c10792bcf573d4da47c600482015260001960248201526001600160a01b039091169063095ea7b3906044016020604051808303816000875af115801561214c573d6000803e3d6000fd5b505050506040513d601f19601f820116820180604052508101906121709190613ec9565b506060810151602082015160405163095ea7b360e01b81526001600160a01b039182166004820152600019602482015291169063095ea7b3906044016020604051808303816000875af11580156121cb573d6000803e3d6000fd5b505050506040513d601f19601f820116820180604052508101906121ef9190613ec9565b505b505080806121fe906146f6565b915050611c5c565b5060a080546001600160a01b0384166001600160a01b03199182161790915543609d5560a1805490911633179055801561227a576000805461ff0019169055604051600181527f7f26b83ff96e1f2b6a682f133852f6798a09c465da95921460cefb38474024989060200160405180910390a15b50505050565b600080600060986097548154811061229a5761229a613f71565b600091825260209182902060408051608081018252600493840290920180546001600160a01b0390811680855260018301548216968501879052600283015482168585015260039092015416606084015290516328dee51f60e11b81529194506351bdca3e9261230d9230929101613e22565b606060405180830381865afa15801561232a573d6000803e3d6000fd5b505050506040513d601f19601f8201168201806040525081019061234e9190614009565b60408481015190516370a0823160e01b81523060048201529296509094506001600160a01b031691506370a0823190602401602060405180830381865afa15801561239d573d6000803e3d6000fd5b505050506040513d601f19601f820116820180604052508101906123c1919061404e565b6123cb9084613ff1565b60608201516040516370a0823160e01b81523060048201529194506001600160a01b0316906370a0823190602401602060405180830381865afa158015612416573d6000803e3d6000fd5b505050506040513d601f19601f8201168201806040525081019061243a919061404e565b6124449083613ff1565b9150509091565b600080600060a160009054906101000a90046001600160a01b03166001600160a01b0316635c975abb6040518163ffffffff1660e01b8152600401602060405180830381865afa1580156124a3573d6000803e3d6000fd5b505050506040513d601f19601f820116820180604052508101906124c79190613ec9565b156124e45760405162461bcd60e51b81526004016106ae90613eeb565b600260655414156125075760405162461bcd60e51b81526004016106ae90613f15565b6002606555609754891461252d5760405162461bcd60e51b81526004016106ae90613f4c565b600060986097548154811061254457612544613f71565b600091825260209182902060408051608081018252600490930290910180546001600160a01b03908116845260018201548116948401949094526002810154841691830182905260030154909216606082015291506125a59033308c612f2c565b60608101516125bf906001600160a01b031633308b612f2c565b60208101518151604051633282f32f60e11b81526000926001600160a01b031691636505e65e916125fd91908e908e908e908e9030906004016145ef565b6060604051808303816000875af115801561261c573d6000803e3d6000fd5b505050506040513d601f19601f820116820180604052508101906126409190614009565b9196509450905061265086612f97565b9250848a111561267d5761267d33612668878d614037565b60408501516001600160a01b0316919061312a565b838911156126a8576126a833612693868c614037565b60608501516001600160a01b0316919061312a565b60975460408051878152602081018790527fcf292c3ff7d54582b495c8f5feaf2d6a840141d3b45b762ce150ae9328c6a278910160405180910390a26097546040518281526001600160a01b0388169133917f2c0f148b435140de488c1b34647f1511c646f7077e87007bacf22ef9977a16d89060200160405180910390a45050600160658190555096509650969350505050565b60606037805461057c90613e8e565b600080600060986097548154811061276657612766613f71565b600091825260209182902060408051608081018252600490930290910180546001600160a01b0390811684526001820154811694840194909452600281015484169183018290526003015490921660609091018190529094909350915050565b600033816127d48286612ae0565b9050838110156128345760405162461bcd60e51b815260206004820152602560248201527f45524332303a2064656372656173656420616c6c6f77616e63652062656c6f77604482015264207a65726f60d81b60648201526084016106ae565b6128418286868403612b0b565b506001949350505050565b60003361060d8185856131d3565b6098818154811061286a57600080fd5b600091825260209091206004909102018054600182015460028301546003909301546001600160a01b039283169450908216928216911684565b60008060a160009054906101000a90046001600160a01b03166001600160a01b0316635c975abb6040518163ffffffff1660e01b8152600401602060405180830381865afa1580156128fa573d6000803e3d6000fd5b505050506040513d601f19601f8201168201806040525081019061291e9190613ec9565b1561293b5760405162461bcd60e51b81526004016106ae90613eeb565b6002606554141561295e5760405162461bcd60e51b81526004016106ae90613f15565b600260655560975487146129845760405162461bcd60e51b81526004016106ae90613f4c565b600060986097548154811061299b5761299b613f71565b6000918252602080832060408051608081018252600490940290910180546001600160a01b03908116855260018201548116938501939093526002810154831691840191909152600301541660608201529150806129f886612c2f565b915091506000612a078a612dce565b60208501518551604051636c27fc2160e11b81529293506001600160a01b039091169163d84ff84291612a449185908e908e908e90600401613f87565b60408051808303816000875af1158015612a62573d6000803e3d6000fd5b505050506040513d601f19601f82011682018060405250810190612a869190613fb7565b9096509450612a958387613ff1565b9550612aa18286613ff1565b94506097547ff0ebf98d9ecd4f11114987b0de79d86c03a9b6e84e74d9503a38acabe0db862a8787604051610902929190918252602082015260400190565b6001600160a01b03918216600090815260346020908152604080832093909416825291909152205490565b6001600160a01b038316612b6d5760405162461bcd60e51b8152602060048201526024808201527f45524332303a20617070726f76652066726f6d20746865207a65726f206164646044820152637265737360e01b60648201526084016106ae565b6001600160a01b038216612bce5760405162461bcd60e51b815260206004820152602260248201527f45524332303a20617070726f766520746f20746865207a65726f206164647265604482015261737360f01b60648201526084016106ae565b6001600160a01b0383811660008181526034602090815260408083209487168084529482529182902085905590518481527f8c5be1e5ebec7d5bd14f71427d1e84f3dd0314c0f7b2291e5b200ac8c7c3b925910160405180910390a3505050565b336000908152609f60209081526040808320609d548452909152812054819060ff16612dc957609c5415612da1576000609860975481548110612c7457612c74613f71565b600091825260208083206040805160808101825260049490940290910180546001600160a01b03908116855260018201548116858501526002820154811685840152600390910154166060840152609c54609a5433808752609e8552838720609d5488528552838720549087526033909452919094205492945091612cf99190614037565b612d039190614627565b612d0d9190614646565b609c54609b54336000818152609e60209081526040808320609d548452825280832054938352603390915290205493965091929091612d4b91614037565b612d559190614627565b612d5f9190614646565b91508215612d80576040810151612d80906001600160a01b0316858561312a565b8115612d9f576060810151612d9f906001600160a01b0316858461312a565b505b336000908152609f60209081526040808320609d5484529091529020805460ff191660011790555b915091565b600080609860975481548110612de657612de6613f71565b6000918252602080832060408051608081018252600494850290920180546001600160a01b0390811680855260018301548216958501869052600283015482168585015260039092015416606084015290516328dee51f60e11b815291955091926351bdca3e92612e5992309201613e22565b606060405180830381865afa158015612e76573d6000803e3d6000fd5b505050506040513d601f19601f82011682018060405250810190612e9a9190614009565b50509050612ea760355490565b612eb18286614627565b612ebb9190614646565b925060008311612f0d5760405162461bcd60e51b815260206004820152601d60248201527f494e53554646494349454e545f4c49515549444954595f4255524e454400000060448201526064016106ae565b612f17338561349f565b612f218382614037565b609955509092915050565b6040516001600160a01b038085166024830152831660448201526064810182905261227a9085906323b872dd60e01b906084015b60408051601f198184030181529190526020810180516001600160e01b03166001600160e01b0319909316929092179091526135f9565b600080609860975481548110612faf57612faf613f71565b6000918252602080832060408051608081018252600494850290920180546001600160a01b0390811680855260018301548216958501869052600283015482168585015260039092015416606084015290516328dee51f60e11b815291955091926351bdca3e9261302292309201613e22565b606060405180830381865afa15801561303f573d6000803e3d6000fd5b505050506040513d601f19601f820116820180604052508101906130639190614009565b505090506000609954826130779190614037565b9050600061308460355490565b9050806130ab576130976103e883614037565b94506130a660016103e86136cb565b6130c5565b6099546130b88284614627565b6130c29190614646565b94505b600085116131155760405162461bcd60e51b815260206004820152601d60248201527f494e53554646494349454e545f4c49515549444954595f4d494e54454400000060448201526064016106ae565b61311f86866136cb565b505060995550919050565b6040516001600160a01b03831660248201526044810182905261315a90849063a9059cbb60e01b90606401612f60565b505050565b600061316b8484612ae0565b9050600019811461227a57818110156131c65760405162461bcd60e51b815260206004820152601d60248201527f45524332303a20696e73756666696369656e7420616c6c6f77616e636500000060448201526064016106ae565b61227a8484848403612b0b565b6001600160a01b0383166132375760405162461bcd60e51b815260206004820152602560248201527f45524332303a207472616e736665722066726f6d20746865207a65726f206164604482015264647265737360d81b60648201526084016106ae565b6001600160a01b0382166132995760405162461bcd60e51b815260206004820152602360248201527f45524332303a207472616e7366657220746f20746865207a65726f206164647260448201526265737360e81b60648201526084016106ae565b6132a48383836137b6565b6001600160a01b0383166000908152603360205260409020548181101561331c5760405162461bcd60e51b815260206004820152602660248201527f45524332303a207472616e7366657220616d6f756e7420657863656564732062604482015265616c616e636560d01b60648201526084016106ae565b6001600160a01b03808516600090815260336020526040808220858503905591851681529081208054849290613353908490613ff1565b92505081905550826001600160a01b0316846001600160a01b03167fddf252ad1be2c89b69c2b068fc378daa952ba7f163c4a11628f55a4df523b3ef8460405161339f91815260200190565b60405180910390a361227a565b60008054610100900460ff16156133f3578160ff1660011480156133cf5750303b155b6133eb5760405162461bcd60e51b81526004016106ae90614711565b506000919050565b60005460ff80841691161061341a5760405162461bcd60e51b81526004016106ae90614711565b506000805460ff191660ff92909216919091179055600190565b919050565b600054610100900460ff166134605760405162461bcd60e51b81526004016106ae9061475f565b61346a8282613888565b5050565b600054610100900460ff166134955760405162461bcd60e51b81526004016106ae9061475f565b61349d6138d6565b565b6001600160a01b0382166134ff5760405162461bcd60e51b815260206004820152602160248201527f45524332303a206275726e2066726f6d20746865207a65726f206164647265736044820152607360f81b60648201526084016106ae565b61350b826000836137b6565b6001600160a01b0382166000908152603360205260409020548181101561357f5760405162461bcd60e51b815260206004820152602260248201527f45524332303a206275726e20616d6f756e7420657863656564732062616c616e604482015261636560f01b60648201526084016106ae565b6001600160a01b03831660009081526033602052604081208383039055603580548492906135ae908490614037565b90915550506040518281526000906001600160a01b038516907fddf252ad1be2c89b69c2b068fc378daa952ba7f163c4a11628f55a4df523b3ef9060200160405180910390a3505050565b600061364e826040518060400160405280602081526020017f5361666545524332303a206c6f772d6c6576656c2063616c6c206661696c6564815250856001600160a01b03166139049092919063ffffffff16565b80519091501561315a578080602001905181019061366c9190613ec9565b61315a5760405162461bcd60e51b815260206004820152602a60248201527f5361666545524332303a204552433230206f7065726174696f6e20646964206e6044820152691bdd081cdd58d8d9595960b21b60648201526084016106ae565b6001600160a01b0382166137215760405162461bcd60e51b815260206004820152601f60248201527f45524332303a206d696e7420746f20746865207a65726f20616464726573730060448201526064016106ae565b61372d600083836137b6565b806035600082825461373f9190613ff1565b90915550506001600160a01b0382166000908152603360205260408120805483929061376c908490613ff1565b90915550506040518181526001600160a01b038316906000907fddf252ad1be2c89b69c2b068fc378daa952ba7f163c4a11628f55a4df523b3ef9060200160405180910390a35050565b6001600160a01b0383166000908152609e60209081526040808320609d54845290915290205481111561380e576001600160a01b0383166000908152609e60209081526040808320609d548452909152812055613849565b6001600160a01b0383166000908152609e60209081526040808320609d54845290915281208054839290613843908490614037565b90915550505b6001600160a01b0382166000908152609e60209081526040808320609d5484529091528120805483929061387e908490613ff1565b9091555050505050565b600054610100900460ff166138af5760405162461bcd60e51b81526004016106ae9061475f565b81516138c2906036906020850190613a85565b50805161315a906037906020840190613a85565b600054610100900460ff166138fd5760405162461bcd60e51b81526004016106ae9061475f565b6001606555565b6060613913848460008561391b565b949350505050565b60608247101561397c5760405162461bcd60e51b815260206004820152602660248201527f416464726573733a20696e73756666696369656e742062616c616e636520666f6044820152651c8818d85b1b60d21b60648201526084016106ae565b6001600160a01b0385163b6139d35760405162461bcd60e51b815260206004820152601d60248201527f416464726573733a2063616c6c20746f206e6f6e2d636f6e747261637400000060448201526064016106ae565b600080866001600160a01b031685876040516139ef91906147aa565b60006040518083038185875af1925050503d8060008114613a2c576040519150601f19603f3d011682016040523d82523d6000602084013e613a31565b606091505b5091509150613a41828286613a4c565b979650505050505050565b60608315613a5b575081610cc8565b825115613a6b5782518084602001fd5b8160405162461bcd60e51b81526004016106ae9190613b76565b828054613a9190613e8e565b90600052602060002090601f016020900481019282613ab35760008555613af9565b82601f10613acc57805160ff1916838001178555613af9565b82800160010185558215613af9579182015b82811115613af9578251825591602001919060010190613ade565b50613b05929150613b09565b5090565b5b80821115613b055760008155600101613b0a565b60005b83811015613b39578181015183820152602001613b21565b8381111561227a5750506000910152565b60008151808452613b62816020860160208601613b1e565b601f01601f19169290920160200192915050565b602081526000610cc86020830184613b4a565b6001600160a01b0381168114613b9e57600080fd5b50565b60008060408385031215613bb457600080fd5b8235613bbf81613b89565b946020939093013593505050565b600080600080600060a08688031215613be557600080fd5b853594506020860135935060408601359250606086013591506080860135613c0c81613b89565b809150509295509295909350565b600080600060608486031215613c2f57600080fd5b8335613c3a81613b89565b92506020840135613c4a81613b89565b929592945050506040919091013590565b60008083601f840112613c6d57600080fd5b5081356001600160401b03811115613c8457600080fd5b602083019150836020828501011115613c9c57600080fd5b9250929050565b600080600080600080600060a0888a031215613cbe57600080fd5b8735965060208801356001600160401b0380821115613cdc57600080fd5b613ce88b838c01613c5b565b909850965060408a0135915080821115613d0157600080fd5b50613d0e8a828b01613c5b565b989b979a5095989597966060870135966080013595509350505050565b600060208284031215613d3d57600080fd5b8135610cc881613b89565b600080600060408486031215613d5d57600080fd5b83356001600160401b0380821115613d7457600080fd5b818601915086601f830112613d8857600080fd5b813581811115613d9757600080fd5b8760208260061b8501011115613dac57600080fd5b60209283019550935050840135613dc281613b89565b809150509250925092565b60008060008060008060c08789031215613de657600080fd5b863595506020870135945060408701359350606087013592506080870135915060a0870135613e1481613b89565b809150509295509295509295565b6001600160a01b0392831681529116602082015260400190565b600060208284031215613e4e57600080fd5b5035919050565b60008060408385031215613e6857600080fd5b8235613e7381613b89565b91506020830135613e8381613b89565b809150509250929050565b600181811c90821680613ea257607f821691505b60208210811415613ec357634e487b7160e01b600052602260045260246000fd5b50919050565b600060208284031215613edb57600080fd5b81518015158114610cc857600080fd5b60208082526010908201526f14105554d05093114e8814105554d15160821b604082015260600190565b6020808252601f908201527f5265656e7472616e637947756172643a207265656e7472616e742063616c6c00604082015260600190565b6020808252600b908201526a10905117d413d3d317d25160aa1b604082015260600190565b634e487b7160e01b600052603260045260246000fd5b6001600160a01b039586168152602081019490945260408401929092526060830152909116608082015260a00190565b60008060408385031215613fca57600080fd5b505080516020909101519092909150565b634e487b7160e01b600052601160045260246000fd5b6000821982111561400457614004613fdb565b500190565b60008060006060848603121561401e57600080fd5b8351925060208401519150604084015190509250925092565b60008282101561404957614049613fdb565b500390565b60006020828403121561406057600080fd5b5051919050565b6000808585111561407757600080fd5b8386111561408457600080fd5b5050820193919092039150565b634e487b7160e01b600052604160045260246000fd5b604051606081016001600160401b03811182821017156140c9576140c9614091565b60405290565b604051608081016001600160401b03811182821017156140c9576140c9614091565b604051601f8201601f191681016001600160401b038111828210171561411957614119614091565b604052919050565b60006001600160401b0382111561413a5761413a614091565b5060051b60200190565b600082601f83011261415557600080fd5b81356001600160401b0381111561416e5761416e614091565b614181601f8201601f19166020016140f1565b81815284602083860101111561419657600080fd5b816020850160208301376000918101602001919091529392505050565b600082601f8301126141c457600080fd5b813560206141d96141d483614121565b6140f1565b828152606092830285018201928282019190878511156141f857600080fd5b8387015b858110156142515781818a0312156142145760008081fd5b61421c6140a7565b813561422781613b89565b8152818601358682015260408083013561424081613b89565b9082015284529284019281016141fc565b5090979650505050505050565b803561343481613b89565b60008060008060008060c0878903121561428257600080fd5b6001600160401b038735111561429757600080fd5b8635870188601f8201126142aa57600080fd5b6142b76141d48235614121565b81358082526020808301929160051b8401018b10156142d557600080fd5b602083015b6020843560051b850101811015614394576001600160401b038135111561430057600080fd5b803584016080818e03601f1901121561431857600080fd5b6143206140cf565b61432d6020830135613b89565b602082013581526040820135602082015261434b6060830135613b89565b606082013560408201526001600160401b036080830135111561436d57600080fd5b6143808e60206080850135850101614144565b6060820152845250602092830192016142da565b50975050506001600160401b03602088013511156143b157600080fd5b6143c188602089013589016141b3565b945060408701359350606087013592506143dd6080880161425e565b91506001600160401b0360a088013511156143f757600080fd5b6144078860a08901358901614144565b90509295509295509295565b600081518084526020808501945080840160005b8381101561446557815180516001600160a01b03908116895284820151858a0152604091820151169088015260609096019590820190600101614427565b509495945050505050565b600060c0820160c0835280895180835260e08501915060e08160051b86010192506020808c0160005b838110156144ff5787860360df19018552815180516001600160a01b0390811688528482015185890152604080830151909116908801526060908101516080918801829052906144eb81890183613b4a565b975050509382019390820190600101614499565b5050858403818701525050506145158189614413565b905086604084015285606084015261453860808401866001600160a01b03169052565b82810360a084015261454a8185613b4a565b9998505050505050505050565b6000806040838503121561456a57600080fd5b82516001600160401b0381111561458057600080fd5b8301601f8101851361459157600080fd5b805160206145a16141d483614121565b82815260059290921b830181019181810190888411156145c057600080fd5b938201935b838510156145de578451825293820193908201906145c5565b969091015195979596505050505050565b6001600160a01b039687168152602081019590955260408501939093526060840191909152608083015290911660a082015260c00190565b600081600019048311821515161561464157614641613fdb565b500290565b60008261466357634e487b7160e01b600052601260045260246000fd5b500490565b6000602080838503121561467b57600080fd5b82516001600160401b0381111561469157600080fd5b8301601f810185136146a257600080fd5b80516146b06141d482614121565b81815260059190911b820183019083810190878311156146cf57600080fd5b928401925b82841015613a415783516146e781613b89565b825292840192908401906146d4565b600060001982141561470a5761470a613fdb565b5060010190565b6020808252602e908201527f496e697469616c697a61626c653a20636f6e747261637420697320616c72656160408201526d191e481a5b9a5d1a585b1a5e995960921b606082015260800190565b6020808252602b908201527f496e697469616c697a61626c653a20636f6e7472616374206973206e6f74206960408201526a6e697469616c697a696e6760a81b606082015260800190565b600082516147bc818460208701613b1e565b919091019291505056fea2646970667358221220d78b4f879af89214e8913e2fce73b670f73627d79db1cbfec6015383f8a63f9264736f6c634300080a0033",
  "immutableReferences": {},
  "source": "// SPDX-License-Identifier: MIT\r\npragma solidity 0.8.10;\r\nimport \"../interfaces/IOdosRouter.sol\";   \r\nimport \"../interfaces/IUnoAssetRouter.sol\";   \r\nimport \"../interfaces/IUnoAutoStrategyFactory.sol\";  \r\nimport '@openzeppelin/contracts-upgradeable/security/ReentrancyGuardUpgradeable.sol';\r\nimport '@openzeppelin/contracts-upgradeable/token/ERC20/ERC20Upgradeable.sol';\r\nimport '@openzeppelin/contracts-upgradeable/token/ERC20/utils/SafeERC20Upgradeable.sol';\r\n\r\ncontract UnoAutoStrategyV0 is Initializable, ERC20Upgradeable, ReentrancyGuardUpgradeable {\r\n    using SafeERC20Upgradeable for IERC20Upgradeable;\r\n    /**\r\n     * @dev PoolInfo:\r\n     * {assetRouter} - UnoAssetRouter contract.\r\n     * {pool} - Pool address. \r\n     * {tokenA} - Pool's first token address.\r\n     * {tokenB} - Pool's second token address.\r\n     */\r\n    struct _PoolInfo {\r\n        address pool;\r\n        IUnoAssetRouter assetRouter;\r\n    }\r\n\r\n    struct PoolInfo {\r\n        address pool;\r\n        IUnoAssetRouter assetRouter;\r\n        IERC20Upgradeable tokenA;\r\n        IERC20Upgradeable tokenB;\r\n    }\r\n\r\n    /**\r\n     * @dev MoveLiquidityInfo:\r\n     * {leftoverA} - TokenA leftovers after MoveLiquidity() call.\r\n     * {leftoverB} - TokenB leftovers after MoveLiquidity() call. \r\n     * {totalSupply} - totalSupply after MoveLiquidity() call.\r\n     * {block} - MoveLiquidity() call block.\r\n     */\r\n    struct MoveLiquidityInfo {\r\n        uint256 leftoverA;\r\n        uint256 leftoverB;\r\n        uint256 totalSupply;\r\n        uint256 block;\r\n    }\r\n    \r\n    /**\r\n     * @dev Contract Variables:\r\n     * {OdosRouter} - Contract that executes swaps.\r\n\r\n     * {poolID} - Current pool the strategy uses ({pools} index).\r\n     * {pools} - Pools this strategy can use and move liquidity to.\r\n\r\n     * {reserveLP} - LP token reserve.\r\n     * {lastMoveInfo} - Info on last MoveLiquidity() block.\r\n     * {blockedLiquidty} - User's blocked LP tokens. Prevents user from stealing leftover tokens by depositing and exiting before moveLiquidity() has been called.\r\n     * {leftoversCollected} - Flag that prevents leftover token collection if they were already collected this MoveLiquidity() cycle.\r\n\r\n     * {accessManager} - Role manager contract.\r\n     * {factory} - The address of AutoStrategyFactory this contract was deployed by.\r\n\r\n     * {MINIMUM_LIQUIDITY} - Ameliorates rounding errors.\r\n     */\r\n\r\n    IOdosRouter private constant OdosRouter = IOdosRouter(0xa32EE1C40594249eb3183c10792BcF573D4Da47C);\r\n\r\n    uint256 public poolID;\r\n    PoolInfo[] public pools;\r\n\r\n    uint256 private reserveLP;\r\n    MoveLiquidityInfo private lastMoveInfo;\r\n    mapping(address => mapping(uint256 => uint256)) private blockedLiquidty;\r\n    mapping(address => mapping(uint256 => bool)) private leftoversCollected;\r\n\r\n    IUnoAccessManager public accessManager;\r\n    IUnoAutoStrategyFactory public factory;\r\n\r\n    uint256 private constant MINIMUM_LIQUIDITY = 10**3;\r\n    bytes32 private constant LIQUIDITY_MANAGER_ROLE = keccak256('LIQUIDITY_MANAGER_ROLE');\r\n    address public constant WMATIC = 0x0d500B1d8E8eF31E21C99d1Db9A6444d3ADf1270;\r\n\r\n    event DepositPairTokens(uint256 indexed poolID, uint256 amountA, uint256 amountB);\r\n    event DepositPairTokensETH(uint256 indexed poolID, uint256 amountToken, uint256 amountETH);\r\n    event DepositSingleToken(uint256 indexed poolID, address indexed token, uint256 amount);\r\n    event DepositSingleETH(uint256 indexed poolID, uint256 amountETH);\r\n    // Note: amountLP refers to LP tokens used in farms and staking pools, not UNO-LP this contract is.\r\n    // To get info for UNO-LP use mint/burn events\r\n    event Deposit(uint256 indexed poolID, address indexed from, address indexed recipient, uint256 amountLP);\r\n\r\n    event WithdrawPairTokens(uint256 indexed poolID, uint256 amountA, uint256 amountB);\r\n    event WithdrawPairTokensETH(uint256 indexed poolID, uint256 amountToken, uint256 amountETH);\r\n    event WithdrawSingleToken(uint256 indexed poolID, address indexed token, uint256 amount, uint256 amountA, uint256 amountB);\r\n    event WithdrawSingleETH(uint256 indexed poolID, uint256 amountETH, uint256 amountA, uint256 amountB);\r\n    // Note: amountLP refers to LP tokens used in farms and staking pools, not UNO-LP this contract is.\r\n    // To get info for UNO-LP use mint/burn events\r\n    event Withdraw(uint256 indexed poolID, address indexed from, address indexed recipient, uint256 amountLP);\r\n\r\n    event MoveLiquidity(uint256 indexed previousPoolID, uint256 indexed nextPoolID);\r\n\r\n    modifier whenNotPaused(){\r\n        require(factory.paused() == false, 'PAUSABLE: PAUSED');\r\n        _;\r\n    }\r\n\r\n    // ============ Methods ============\r\n\r\n    receive() external payable {}\r\n\r\n    function initialize(_PoolInfo[] calldata poolInfos, IUnoAccessManager _accessManager) external initializer {\r\n        require ((poolInfos.length >= 2) && (poolInfos.length <= 50), 'BAD_POOL_COUNT');\r\n\r\n        __ERC20_init(\"UNO-AutoStrategy\", \"UNO-LP\");\r\n        __ReentrancyGuard_init();\r\n        \r\n        for (uint256 i = 0; i < poolInfos.length; i++) {\r\n            IERC20[] memory _tokens = IUnoAssetRouter(poolInfos[i].assetRouter).getTokens(poolInfos[i].pool);\r\n            PoolInfo memory pool = PoolInfo({\r\n                pool: poolInfos[i].pool,\r\n                assetRouter: poolInfos[i].assetRouter,\r\n                tokenA: IERC20Upgradeable(address(_tokens[0])),\r\n                tokenB: IERC20Upgradeable(address(_tokens[1]))\r\n            });\r\n            pools.push(pool);\r\n\r\n            if (pool.tokenA.allowance(address(this), address(pool.assetRouter)) == 0) {\r\n                pool.tokenA.approve(address(OdosRouter), type(uint256).max);\r\n                pool.tokenA.approve(address(pool.assetRouter), type(uint256).max);\r\n            }\r\n            if (pool.tokenB.allowance(address(this), address(pool.assetRouter)) == 0) {\r\n                pool.tokenB.approve(address(OdosRouter), type(uint256).max);\r\n                pool.tokenB.approve(address(pool.assetRouter), type(uint256).max);\r\n            }\r\n        }\r\n\r\n        accessManager = _accessManager;\r\n        lastMoveInfo.block = block.number;\r\n        factory = IUnoAutoStrategyFactory(msg.sender);\r\n    }\r\n\r\n    /**\r\n     * @dev Deposits tokens in the pools[poolID] pool. Mints tokens representing user share. Emits {Deposit} event.\r\n     * @param pid - Current poolID. Throws revert if moveLiquidity() has been called before the transaction has been mined.\r\n     * @param amountA - Token A amount to deposit.\r\n     * @param amountB  - Token B amount to deposit.\r\n     * @param amountAMin - Bounds the extent to which the B/A price can go up before the transaction reverts.\r\n     * @param amountBMin - Bounds the extent to which the A/B price can go up before the transaction reverts.\r\n     * @param recipient - Address which will receive the deposit.\r\n     \r\n     * @return sentA - Deposited token A amount.\r\n     * @return sentB - Deposited token B amount.\r\n     * @return liquidity - Total liquidity minted for the {recipient}.\r\n     */\r\n    function deposit(uint256 pid, uint256 amountA, uint256 amountB, uint256 amountAMin, uint256 amountBMin, address recipient) whenNotPaused nonReentrant external returns (uint256 sentA, uint256 sentB, uint256 liquidity) {\r\n        require (pid == poolID, 'BAD_POOL_ID');\r\n        PoolInfo memory pool = pools[poolID];\r\n\r\n        pool.tokenA.safeTransferFrom(msg.sender, address(this), amountA);\r\n        pool.tokenB.safeTransferFrom(msg.sender, address(this), amountB);\r\n\r\n        uint256 amountLP;\r\n        (sentA, sentB, amountLP) = pool.assetRouter.deposit(pool.pool, amountA, amountB, amountAMin, amountBMin, address(this));\r\n        liquidity = mint(recipient);\r\n\r\n        if(amountA > sentA){\r\n            pool.tokenA.safeTransfer(msg.sender, amountA - sentA);\r\n        }\r\n        if(amountB > sentB){\r\n            pool.tokenB.safeTransfer(msg.sender, amountB - sentB);\r\n        }\r\n\r\n        emit DepositPairTokens(poolID, sentA, sentB);\r\n        emit Deposit(poolID, msg.sender, recipient, amountLP); \r\n    }\r\n\r\n    /**\r\n     * @dev Deposits tokens in the pools[poolID] pool. Mints tokens representing user share. Emits {Deposit} event.\r\n     * @param pid - Current poolID. Throws revert if moveLiquidity() has been called before the transaction has been mined.\r\n     * @param amountToken - Token amount to deposit.\r\n     * @param amountTokenMin - Bounds the extent to which the TOKEN/WMATIC price can go up before the transaction reverts.\r\n     * @param amountETHMin - Bounds the extent to which the WMATIC/TOKEN price can go up before the transaction reverts.\r\n     * @param recipient - Address which will receive the deposit.\r\n     \r\n     * @return sentToken - Deposited token amount.\r\n     * @return sentETH - Deposited ETH amount.\r\n     * @return liquidity - Total liquidity minted for the {recipient}.\r\n     */\r\n    function depositETH(uint256 pid, uint256 amountToken, uint256 amountTokenMin, uint256 amountETHMin, address recipient) whenNotPaused nonReentrant external payable returns (uint256 sentToken, uint256 sentETH, uint256 liquidity) {\r\n        require (pid == poolID, 'BAD_POOL_ID');\r\n        PoolInfo memory pool = pools[poolID];\r\n\r\n        IERC20Upgradeable token;\r\n        if (address(pool.tokenA) == WMATIC) {\r\n            token = pool.tokenB;\r\n        } else if (address(pool.tokenB) == WMATIC) {\r\n            token = pool.tokenA;\r\n        } else {\r\n            revert(\"NOT_WMATIC_POOL\");\r\n        }\r\n        token.safeTransferFrom(msg.sender, address(this), amountToken);\r\n\r\n        uint256 amountLP;\r\n        (sentToken, sentETH, amountLP) = pool.assetRouter.depositETH{value: msg.value}(pool.pool, amountToken, amountTokenMin, amountETHMin, address(this));\r\n        liquidity = mint(recipient);\r\n\r\n        if(amountToken > sentToken){\r\n            token.safeTransfer(msg.sender, amountToken - sentToken);\r\n        }\r\n        if(msg.value > sentETH){\r\n            payable(msg.sender).transfer(msg.value - sentETH);\r\n        }\r\n\r\n        emit DepositPairTokensETH(poolID, sentToken, sentETH);\r\n        emit Deposit(poolID, msg.sender, recipient, amountLP); \r\n    }\r\n\r\n    /**\r\n     * @dev Withdraws tokens from the {pools[poolID]} pool and sends them to the recipient. Burns tokens representing user share. Emits {Withdraw} event.\r\n     * @param pid - Current poolID. Throws revert if moveLiquidity() has been called before the transaction has been mined.\r\n     * @param liquidity - Liquidity to burn from this user.\r\n     * @param amountAMin - The minimum amount of tokenA that must be received from the pool for the transaction not to revert.\r\n     * @param amountBMin - The minimum amount of tokenB that must be received from the pool for the transaction not to revert.\r\n     * @param recipient - Address which will receive withdrawn tokens.\r\n     \r\n     * @return amountA - Token A amount sent to the {recipient}.\r\n     * @return amountB - Token B amount sent to the {recipient}.\r\n     */\r\n    function withdraw(uint256 pid, uint256 liquidity, uint256 amountAMin, uint256 amountBMin, address recipient) whenNotPaused nonReentrant external returns (uint256 amountA, uint256 amountB) {\r\n        require (pid == poolID, 'BAD_POOL_ID');\r\n        PoolInfo memory pool = pools[poolID];\r\n\r\n        (uint256 leftoverA, uint256 leftoverB) = collectLeftovers(recipient);\r\n\r\n        uint256 amountLP = burn(liquidity);\r\n        (amountA, amountB) = pool.assetRouter.withdraw(pool.pool, amountLP, amountAMin, amountBMin, recipient);\r\n\r\n        amountA += leftoverA;\r\n        amountB += leftoverB;\r\n\r\n        emit WithdrawPairTokens(poolID, amountA, amountB);\r\n        emit Withdraw(poolID, msg.sender, recipient, amountLP); \r\n    }\r\n\r\n    /**\r\n     * @dev Withdraws tokens from the {pools[poolID]} pool and sends them to the recipient. Burns tokens representing user share. Emits {Withdraw} event.\r\n     * @param pid - Current poolID. Throws revert if moveLiquidity() has been called before the transaction has been mined.\r\n     * @param liquidity - Liquidity to burn from this user.\r\n     * @param amountTokenMin - The minimum amount of tokenA that must be received from the pool for the transaction not to revert.\r\n     * @param amountETHMin - The minimum amount of tokenB that must be received from the pool for the transaction not to revert.\r\n     * @param recipient - Address which will receive withdrawn tokens.\r\n     \r\n     * @return amountToken - Token amount sent to the {recipient}.\r\n     * @return amountETH - MATIC amount sent to the {recipient}.\r\n     */\r\n    function withdrawETH(uint256 pid, uint256 liquidity, uint256 amountTokenMin, uint256 amountETHMin, address recipient) whenNotPaused nonReentrant external returns (uint256 amountToken, uint256 amountETH) {\r\n        require (pid == poolID, 'BAD_POOL_ID');\r\n        PoolInfo memory pool = pools[poolID];\r\n\r\n        (uint256 leftoverA, uint256 leftoverB) = collectLeftovers(recipient);\r\n\r\n        uint256 amountLP = burn(liquidity);\r\n        (amountToken, amountETH) = pool.assetRouter.withdrawETH(pool.pool, amountLP, amountTokenMin, amountETHMin, recipient);\r\n\r\n        if (address(pool.tokenA) == WMATIC) {\r\n            amountETH += leftoverA;\r\n            amountToken += leftoverB;\r\n        } else if (address(pool.tokenB) == WMATIC) {\r\n            amountToken += leftoverA;\r\n            amountETH += leftoverB;\r\n        } else {\r\n            revert(\"NOT_WMATIC_POOL\");\r\n        }\r\n\r\n        emit WithdrawPairTokensETH(poolID, amountToken, amountETH);\r\n        emit Withdraw(poolID, msg.sender, recipient, amountLP); \r\n    }\r\n\r\n    /**\r\n     * @dev Collects leftover tokens left from moveLiquidity() function.\r\n     * @param recipient - Address which will receive leftover tokens.\r\n     \r\n     * @return leftoverA - Token A amount sent to the {recipient}.\r\n     * @return leftoverB - Token B amount sent to the {recipient}.\r\n     */\r\n    function collectLeftovers(address recipient) internal returns (uint256 leftoverA, uint256 leftoverB){\r\n        if(!leftoversCollected[msg.sender][lastMoveInfo.block]){\r\n            if(lastMoveInfo.totalSupply != 0){\r\n                PoolInfo memory pool = pools[poolID];\r\n                leftoverA = (balanceOf(msg.sender) - blockedLiquidty[msg.sender][lastMoveInfo.block]) * lastMoveInfo.leftoverA / lastMoveInfo.totalSupply;\r\n                leftoverB = (balanceOf(msg.sender) - blockedLiquidty[msg.sender][lastMoveInfo.block]) * lastMoveInfo.leftoverB / lastMoveInfo.totalSupply;\r\n\r\n                if(leftoverA > 0){\r\n                    pool.tokenA.safeTransfer(recipient, leftoverA);\r\n                }\r\n                if(leftoverB > 0){\r\n                    pool.tokenB.safeTransfer(recipient, leftoverB);\r\n                }\r\n            }\r\n\r\n            leftoversCollected[msg.sender][lastMoveInfo.block] = true;\r\n        }\r\n    }\r\n\r\n    /**\r\n     * @dev Moves liquidity from {pools[poolID]} to {pools[_poolID]}. Emits {MoveLiquidity} event.\r\n     * @param _poolID - Pool ID to move liquidity to.\r\n     * @param swapAData - Data for tokenA swap.\r\n     * @param swapBData - Data for tokenB swap.\r\n     * @param amountAMin - The minimum amount of tokenA that must be deposited in {pools[_poolID]} for the transaction not to revert.\r\n     * @param amountBMin - The minimum amount of tokenB that must be deposited in {pools[_poolID]} for the transaction not to revert.\r\n     *\r\n     * Note: This function can only be called by LiquidityManager.\r\n     */\r\n    function moveLiquidity(uint256 _poolID, bytes calldata swapAData, bytes calldata swapBData, uint256 amountAMin, uint256 amountBMin) whenNotPaused nonReentrant external {\r\n        require(accessManager.hasRole(LIQUIDITY_MANAGER_ROLE, msg.sender), 'CALLER_NOT_LIQUIDITY_MANAGER');\r\n        require(totalSupply() != 0, 'NO_LIQUIDITY');\r\n        require(lastMoveInfo.block != block.number, 'CANT_CALL_ON_THE_SAME_BLOCK');\r\n        require((_poolID < pools.length) && (_poolID != poolID), 'BAD_POOL_ID');\r\n\r\n        PoolInfo memory currentPool = pools[poolID];\r\n        PoolInfo memory newPool = pools[_poolID];\r\n\r\n        (uint256 _totalDeposits,,) = currentPool.assetRouter.userStake(address(this), currentPool.pool);\r\n        currentPool.assetRouter.withdraw(currentPool.pool, _totalDeposits, 0, 0, address(this));\r\n\r\n        uint256 tokenABalance = currentPool.tokenA.balanceOf(address(this));\r\n        uint256 tokenBBalance = currentPool.tokenB.balanceOf(address(this));\r\n\r\n        if(currentPool.tokenA != newPool.tokenA){\r\n            (\r\n                IOdosRouter.inputToken[] memory inputs, \r\n                IOdosRouter.outputToken[] memory outputs, \r\n                ,\r\n                uint256 valueOutMin,\r\n                address executor,\r\n                bytes memory pathDefinition\r\n            ) = abi.decode(swapAData[4:], (IOdosRouter.inputToken[],IOdosRouter.outputToken[],uint256,uint256,address,bytes));\r\n\r\n            require((inputs.length == 1) && (outputs.length == 1), 'BAD_SWAP_A_TOKENS_LENGTH');\r\n            require(inputs[0].tokenAddress == address(currentPool.tokenA), 'BAD_SWAP_A_INPUT_TOKEN');\r\n            require(outputs[0].tokenAddress == address(newPool.tokenA), 'BAD_SWAP_A_OUTPUT_TOKEN');\r\n\r\n            inputs[0].amountIn = tokenABalance;\r\n            OdosRouter.swap(inputs, outputs, type(uint256).max, valueOutMin, executor, pathDefinition);\r\n        }\r\n\r\n        if(currentPool.tokenB != newPool.tokenB){\r\n            (\r\n                IOdosRouter.inputToken[] memory inputs,\r\n                IOdosRouter.outputToken[] memory outputs,\r\n                ,\r\n                uint256 valueOutMin,\r\n                address executor,\r\n                bytes memory pathDefinition\r\n            ) = abi.decode(swapBData[4:], (IOdosRouter.inputToken[],IOdosRouter.outputToken[],uint256,uint256,address,bytes));\r\n\r\n            require((inputs.length == 1) && (outputs.length == 1), 'BAD_SWAP_B_TOKENS_LENGTH');\r\n            require(inputs[0].tokenAddress == address(currentPool.tokenB), 'BAD_SWAP_B_INPUT_TOKEN');\r\n            require(outputs[0].tokenAddress == address(newPool.tokenB), 'BAD_SWAP_B_OUTPUT_TOKEN');\r\n\r\n            inputs[0].amountIn = tokenBBalance;\r\n            OdosRouter.swap(inputs, outputs, type(uint256).max, valueOutMin, executor, pathDefinition);\r\n        }\r\n        \r\n        (,,reserveLP) = newPool.assetRouter.deposit(newPool.pool, newPool.tokenA.balanceOf(address(this)), newPool.tokenB.balanceOf(address(this)), amountAMin, amountBMin, address(this));\r\n       \r\n        lastMoveInfo = MoveLiquidityInfo({\r\n            leftoverA: newPool.tokenA.balanceOf(address(this)),\r\n            leftoverB: newPool.tokenB.balanceOf(address(this)),\r\n            totalSupply: totalSupply(),\r\n            block: block.number\r\n        });\r\n\r\n        emit MoveLiquidity(poolID, _poolID); \r\n        poolID = _poolID;\r\n    }\r\n\r\n    /**\r\n     * @dev Returns tokens staked by the {_address}. \r\n     * @param _address - The address to check stakes for.\r\n\r\n     * @return stakeA - Token A stake.\r\n     * @return stakeB - Token B stake.\r\n     * @return leftoverA - Token A Leftovers obligated to the {_address} after moveLiquidity() function call.\r\n     * @return leftoverB - Token B Leftovers obligated to the {_address} after moveLiquidity() function call.\r\n     */\r\n    function userStake(address _address) external view returns (uint256 stakeA, uint256 stakeB, uint256 leftoverA, uint256 leftoverB) {\r\n        PoolInfo memory pool = pools[poolID];\r\n        (, uint256 balanceA, uint256 balanceB) = pool.assetRouter.userStake(address(this), pool.pool);\r\n\r\n        uint256 _balance = balanceOf(_address);\r\n        if(_balance != 0){\r\n            uint256 _totalSupply = totalSupply();\r\n            stakeA = _balance * balanceA / _totalSupply; \r\n            stakeB = _balance * balanceB / _totalSupply; \r\n            if((!leftoversCollected[msg.sender][lastMoveInfo.block]) && (lastMoveInfo.totalSupply != 0)){\r\n                leftoverA = (_balance - blockedLiquidty[_address][lastMoveInfo.block]) * lastMoveInfo.leftoverA / lastMoveInfo.totalSupply;\r\n                leftoverB = (_balance - blockedLiquidty[_address][lastMoveInfo.block]) * lastMoveInfo.leftoverB / lastMoveInfo.totalSupply;\r\n            }\r\n        }\r\n    }\r\n        \r\n    /**\r\n     * @dev Returns total amount locked in the pool. \r\n     * @return totalDepositsA - Token A deposits.\r\n     * @return totalDepositsB - Token B deposits.\r\n     */     \r\n    function totalDeposits() external view returns(uint256 totalDepositsA, uint256 totalDepositsB){\r\n        PoolInfo memory pool = pools[poolID];\r\n        (, totalDepositsA, totalDepositsB) = pool.assetRouter.userStake(address(this), pool.pool);\r\n\r\n        // Add leftover tokens.\r\n        totalDepositsA += pool.tokenA.balanceOf(address(this));\r\n        totalDepositsB += pool.tokenB.balanceOf(address(this));\r\n    }\r\n\r\n    /**\r\n     * @dev Returns the number of pools in the strategy. \r\n     */\r\n    function poolsLength() external view returns(uint256){\r\n        return pools.length;\r\n    }\r\n\r\n    /**\r\n     * @dev Returns pair of tokens currently in use. \r\n     */\r\n    function tokens() external view returns(address, address){\r\n        PoolInfo memory pool = pools[poolID];\r\n        return (address(pool.tokenA), address(pool.tokenB));\r\n    }\r\n\r\n    function mint(address to) internal returns (uint256 liquidity){\r\n        PoolInfo memory pool = pools[poolID];\r\n        (uint256 balanceLP,,) = pool.assetRouter.userStake(address(this), pool.pool);\r\n        uint256 amountLP = balanceLP - reserveLP;\r\n\r\n        uint256 _totalSupply = totalSupply();\r\n        if (_totalSupply == 0) {\r\n            liquidity = amountLP - MINIMUM_LIQUIDITY;\r\n            _mint(address(1), MINIMUM_LIQUIDITY);\r\n        } else {\r\n            liquidity = amountLP * _totalSupply / reserveLP;\r\n        }\r\n\r\n        require(liquidity > 0, 'INSUFFICIENT_LIQUIDITY_MINTED');\r\n        _mint(to, liquidity);\r\n\r\n        reserveLP = balanceLP;\r\n    }\r\n\r\n    function burn(uint256 liquidity) internal returns (uint256 amountLP) {\r\n        PoolInfo memory pool = pools[poolID];\r\n        (uint256 balanceLP,,) = pool.assetRouter.userStake(address(this), pool.pool);\r\n\r\n        amountLP = liquidity * balanceLP / totalSupply(); \r\n        require(amountLP > 0, 'INSUFFICIENT_LIQUIDITY_BURNED');\r\n        _burn(msg.sender, liquidity);\r\n\r\n        reserveLP = balanceLP - amountLP;\r\n    }\r\n\r\n    function _beforeTokenTransfer(address from, address to, uint256 amount) internal virtual override {\r\n        super._beforeTokenTransfer(from, to, amount);\r\n\r\n        // Decrease blockedLiquidty from {from} address, but no less then 0.\r\n        if(amount > blockedLiquidty[from][lastMoveInfo.block]){\r\n            blockedLiquidty[from][lastMoveInfo.block] = 0;\r\n        } else {\r\n            blockedLiquidty[from][lastMoveInfo.block] -= amount;\r\n        }\r\n        // Block {to} address from withdrawing their share of leftover tokens immediately.\r\n        blockedLiquidty[to][lastMoveInfo.block] += amount;\r\n    }\r\n}",
  "sourcePath": "C:\\Users\\jugli\\Desktop\\uno\\uno-contracts\\contracts\\test\\UnoAutoStrategyV0.sol",
  "compiler": {
    "name": "solc",
    "version": "0.8.10+commit.fc410830.Emscripten.clang"
  },
  "schemaVersion": "3.4.13",
  "updatedAt": "2023-06-07T13:25:26.499Z",
  "devdoc": {
    "kind": "dev",
    "methods": {
      "allowance(address,address)": {
        "details": "See {IERC20-allowance}."
      },
      "approve(address,uint256)": {
        "details": "See {IERC20-approve}. NOTE: If `amount` is the maximum `uint256`, the allowance is not updated on `transferFrom`. This is semantically equivalent to an infinite approval. Requirements: - `spender` cannot be the zero address."
      },
      "balanceOf(address)": {
        "details": "See {IERC20-balanceOf}."
      },
      "decimals()": {
        "details": "Returns the number of decimals used to get its user representation. For example, if `decimals` equals `2`, a balance of `505` tokens should be displayed to a user as `5.05` (`505 / 10 ** 2`). Tokens usually opt for a value of 18, imitating the relationship between Ether and Wei. This is the value {ERC20} uses, unless this function is overridden; NOTE: This information is only used for _display_ purposes: it in no way affects any of the arithmetic of the contract, including {IERC20-balanceOf} and {IERC20-transfer}."
      },
      "decreaseAllowance(address,uint256)": {
        "details": "Atomically decreases the allowance granted to `spender` by the caller. This is an alternative to {approve} that can be used as a mitigation for problems described in {IERC20-approve}. Emits an {Approval} event indicating the updated allowance. Requirements: - `spender` cannot be the zero address. - `spender` must have allowance for the caller of at least `subtractedValue`."
      },
      "deposit(uint256,uint256,uint256,uint256,uint256,address)": {
        "details": "Deposits tokens in the pools[poolID] pool. Mints tokens representing user share. Emits {Deposit} event.",
        "params": {
          "amountA": "- Token A amount to deposit.",
          "amountAMin": "- Bounds the extent to which the B/A price can go up before the transaction reverts.",
          "amountB": "- Token B amount to deposit.",
          "amountBMin": "- Bounds the extent to which the A/B price can go up before the transaction reverts.",
          "pid": "- Current poolID. Throws revert if moveLiquidity() has been called before the transaction has been mined.",
          "recipient": "- Address which will receive the deposit."
        },
        "returns": {
          "liquidity": "- Total liquidity minted for the {recipient}.",
          "sentA": "- Deposited token A amount.",
          "sentB": "- Deposited token B amount."
        }
      },
      "depositETH(uint256,uint256,uint256,uint256,address)": {
        "details": "Deposits tokens in the pools[poolID] pool. Mints tokens representing user share. Emits {Deposit} event.",
        "params": {
          "amountETHMin": "- Bounds the extent to which the WMATIC/TOKEN price can go up before the transaction reverts.",
          "amountToken": "- Token amount to deposit.",
          "amountTokenMin": "- Bounds the extent to which the TOKEN/WMATIC price can go up before the transaction reverts.",
          "pid": "- Current poolID. Throws revert if moveLiquidity() has been called before the transaction has been mined.",
          "recipient": "- Address which will receive the deposit."
        },
        "returns": {
          "liquidity": "- Total liquidity minted for the {recipient}.",
          "sentETH": "- Deposited ETH amount.",
          "sentToken": "- Deposited token amount."
        }
      },
      "increaseAllowance(address,uint256)": {
        "details": "Atomically increases the allowance granted to `spender` by the caller. This is an alternative to {approve} that can be used as a mitigation for problems described in {IERC20-approve}. Emits an {Approval} event indicating the updated allowance. Requirements: - `spender` cannot be the zero address."
      },
      "moveLiquidity(uint256,bytes,bytes,uint256,uint256)": {
        "details": "Moves liquidity from {pools[poolID]} to {pools[_poolID]}. Emits {MoveLiquidity} event.",
        "params": {
          "_poolID": "- Pool ID to move liquidity to.",
          "amountAMin": "- The minimum amount of tokenA that must be deposited in {pools[_poolID]} for the transaction not to revert.",
          "amountBMin": "- The minimum amount of tokenB that must be deposited in {pools[_poolID]} for the transaction not to revert. Note: This function can only be called by LiquidityManager.",
          "swapAData": "- Data for tokenA swap.",
          "swapBData": "- Data for tokenB swap."
        }
      },
      "name()": {
        "details": "Returns the name of the token."
      },
      "poolsLength()": {
        "details": "Returns the number of pools in the strategy. "
      },
      "symbol()": {
        "details": "Returns the symbol of the token, usually a shorter version of the name."
      },
      "tokens()": {
        "details": "Returns pair of tokens currently in use. "
      },
      "totalDeposits()": {
        "details": "Returns total amount locked in the pool. ",
        "returns": {
          "totalDepositsA": "- Token A deposits.",
          "totalDepositsB": "- Token B deposits."
        }
      },
      "totalSupply()": {
        "details": "See {IERC20-totalSupply}."
      },
      "transfer(address,uint256)": {
        "details": "See {IERC20-transfer}. Requirements: - `to` cannot be the zero address. - the caller must have a balance of at least `amount`."
      },
      "transferFrom(address,address,uint256)": {
        "details": "See {IERC20-transferFrom}. Emits an {Approval} event indicating the updated allowance. This is not required by the EIP. See the note at the beginning of {ERC20}. NOTE: Does not update the allowance if the current allowance is the maximum `uint256`. Requirements: - `from` and `to` cannot be the zero address. - `from` must have a balance of at least `amount`. - the caller must have allowance for ``from``'s tokens of at least `amount`."
      },
      "userStake(address)": {
        "details": "Returns tokens staked by the {_address}. ",
        "params": {
          "_address": "- The address to check stakes for."
        },
        "returns": {
          "leftoverA": "- Token A Leftovers obligated to the {_address} after moveLiquidity() function call.",
          "leftoverB": "- Token B Leftovers obligated to the {_address} after moveLiquidity() function call.",
          "stakeA": "- Token A stake.",
          "stakeB": "- Token B stake."
        }
      },
      "withdraw(uint256,uint256,uint256,uint256,address)": {
        "details": "Withdraws tokens from the {pools[poolID]} pool and sends them to the recipient. Burns tokens representing user share. Emits {Withdraw} event.",
        "params": {
          "amountAMin": "- The minimum amount of tokenA that must be received from the pool for the transaction not to revert.",
          "amountBMin": "- The minimum amount of tokenB that must be received from the pool for the transaction not to revert.",
          "liquidity": "- Liquidity to burn from this user.",
          "pid": "- Current poolID. Throws revert if moveLiquidity() has been called before the transaction has been mined.",
          "recipient": "- Address which will receive withdrawn tokens."
        },
        "returns": {
          "amountA": "- Token A amount sent to the {recipient}.",
          "amountB": "- Token B amount sent to the {recipient}."
        }
      },
      "withdrawETH(uint256,uint256,uint256,uint256,address)": {
        "details": "Withdraws tokens from the {pools[poolID]} pool and sends them to the recipient. Burns tokens representing user share. Emits {Withdraw} event.",
        "params": {
          "amountETHMin": "- The minimum amount of tokenB that must be received from the pool for the transaction not to revert.",
          "amountTokenMin": "- The minimum amount of tokenA that must be received from the pool for the transaction not to revert.",
          "liquidity": "- Liquidity to burn from this user.",
          "pid": "- Current poolID. Throws revert if moveLiquidity() has been called before the transaction has been mined.",
          "recipient": "- Address which will receive withdrawn tokens."
        },
        "returns": {
          "amountETH": "- MATIC amount sent to the {recipient}.",
          "amountToken": "- Token amount sent to the {recipient}."
        }
      }
    },
    "stateVariables": {
      "OdosRouter": {
        "details": "Contract Variables: {OdosRouter} - Contract that executes swaps. {poolID} - Current pool the strategy uses ({pools} index). {pools} - Pools this strategy can use and move liquidity to. {reserveLP} - LP token reserve. {lastMoveInfo} - Info on last MoveLiquidity() block. {blockedLiquidty} - User's blocked LP tokens. Prevents user from stealing leftover tokens by depositing and exiting before moveLiquidity() has been called. {leftoversCollected} - Flag that prevents leftover token collection if they were already collected this MoveLiquidity() cycle. {accessManager} - Role manager contract. {factory} - The address of AutoStrategyFactory this contract was deployed by. {MINIMUM_LIQUIDITY} - Ameliorates rounding errors."
      }
    },
    "version": 1
  },
  "userdoc": {
    "kind": "user",
    "methods": {},
    "version": 1
  }
}