{
  "contractName": "UnoAssetRouterTrisolarisStandard",
  "abi": [
    {
      "inputs": [],
      "stateMutability": "nonpayable",
      "type": "constructor"
    },
    {
      "anonymous": false,
      "inputs": [
        {
          "indexed": false,
          "internalType": "address",
          "name": "previousAdmin",
          "type": "address"
        },
        {
          "indexed": false,
          "internalType": "address",
          "name": "newAdmin",
          "type": "address"
        }
      ],
      "name": "AdminChanged",
      "type": "event"
    },
    {
      "anonymous": false,
      "inputs": [
        {
          "indexed": true,
          "internalType": "address",
          "name": "beacon",
          "type": "address"
        }
      ],
      "name": "BeaconUpgraded",
      "type": "event"
    },
    {
      "anonymous": false,
      "inputs": [
        {
          "indexed": true,
          "internalType": "address",
          "name": "lpPool",
          "type": "address"
        },
        {
          "indexed": true,
          "internalType": "address",
          "name": "sender",
          "type": "address"
        },
        {
          "indexed": true,
          "internalType": "address",
          "name": "recipient",
          "type": "address"
        },
        {
          "indexed": false,
          "internalType": "uint256",
          "name": "amount",
          "type": "uint256"
        }
      ],
      "name": "Deposit",
      "type": "event"
    },
    {
      "anonymous": false,
      "inputs": [
        {
          "indexed": true,
          "internalType": "address",
          "name": "lpPool",
          "type": "address"
        },
        {
          "indexed": false,
          "internalType": "uint256",
          "name": "reward",
          "type": "uint256"
        }
      ],
      "name": "Distribute",
      "type": "event"
    },
    {
      "anonymous": false,
      "inputs": [
        {
          "indexed": false,
          "internalType": "uint256",
          "name": "previousFee",
          "type": "uint256"
        },
        {
          "indexed": false,
          "internalType": "uint256",
          "name": "newFee",
          "type": "uint256"
        }
      ],
      "name": "FeeChanged",
      "type": "event"
    },
    {
      "anonymous": false,
      "inputs": [
        {
          "indexed": false,
          "internalType": "uint8",
          "name": "version",
          "type": "uint8"
        }
      ],
      "name": "Initialized",
      "type": "event"
    },
    {
      "anonymous": false,
      "inputs": [
        {
          "indexed": false,
          "internalType": "address",
          "name": "account",
          "type": "address"
        }
      ],
      "name": "Paused",
      "type": "event"
    },
    {
      "anonymous": false,
      "inputs": [
        {
          "indexed": false,
          "internalType": "address",
          "name": "account",
          "type": "address"
        }
      ],
      "name": "Unpaused",
      "type": "event"
    },
    {
      "anonymous": false,
      "inputs": [
        {
          "indexed": true,
          "internalType": "address",
          "name": "implementation",
          "type": "address"
        }
      ],
      "name": "Upgraded",
      "type": "event"
    },
    {
      "anonymous": false,
      "inputs": [
        {
          "indexed": true,
          "internalType": "address",
          "name": "lpPool",
          "type": "address"
        },
        {
          "indexed": true,
          "internalType": "address",
          "name": "sender",
          "type": "address"
        },
        {
          "indexed": true,
          "internalType": "address",
          "name": "recipient",
          "type": "address"
        },
        {
          "indexed": false,
          "internalType": "uint256",
          "name": "amount",
          "type": "uint256"
        }
      ],
      "name": "Withdraw",
      "type": "event"
    },
    {
      "inputs": [],
      "name": "WETH",
      "outputs": [
        {
          "internalType": "address",
          "name": "",
          "type": "address"
        }
      ],
      "stateMutability": "view",
      "type": "function",
      "constant": true
    },
    {
      "inputs": [],
      "name": "accessManager",
      "outputs": [
        {
          "internalType": "contract IUnoAccessManager",
          "name": "",
          "type": "address"
        }
      ],
      "stateMutability": "view",
      "type": "function",
      "constant": true
    },
    {
      "inputs": [],
      "name": "farmFactory",
      "outputs": [
        {
          "internalType": "contract IUnoFarmFactory",
          "name": "",
          "type": "address"
        }
      ],
      "stateMutability": "view",
      "type": "function",
      "constant": true
    },
    {
      "inputs": [],
      "name": "fee",
      "outputs": [
        {
          "internalType": "uint256",
          "name": "",
          "type": "uint256"
        }
      ],
      "stateMutability": "view",
      "type": "function",
      "constant": true
    },
    {
      "inputs": [],
      "name": "paused",
      "outputs": [
        {
          "internalType": "bool",
          "name": "",
          "type": "bool"
        }
      ],
      "stateMutability": "view",
      "type": "function",
      "constant": true
    },
    {
      "inputs": [],
      "name": "proxiableUUID",
      "outputs": [
        {
          "internalType": "bytes32",
          "name": "",
          "type": "bytes32"
        }
      ],
      "stateMutability": "view",
      "type": "function",
      "constant": true
    },
    {
      "inputs": [
        {
          "internalType": "address",
          "name": "newImplementation",
          "type": "address"
        }
      ],
      "name": "upgradeTo",
      "outputs": [],
      "stateMutability": "nonpayable",
      "type": "function"
    },
    {
      "inputs": [
        {
          "internalType": "address",
          "name": "newImplementation",
          "type": "address"
        },
        {
          "internalType": "bytes",
          "name": "data",
          "type": "bytes"
        }
      ],
      "name": "upgradeToAndCall",
      "outputs": [],
      "stateMutability": "payable",
      "type": "function",
      "payable": true
    },
    {
      "stateMutability": "payable",
      "type": "receive",
      "payable": true
    },
    {
      "inputs": [
        {
          "internalType": "address",
          "name": "_accessManager",
          "type": "address"
        },
        {
          "internalType": "address",
          "name": "_farmFactory",
          "type": "address"
        }
      ],
      "name": "initialize",
      "outputs": [],
      "stateMutability": "nonpayable",
      "type": "function"
    },
    {
      "inputs": [
        {
          "internalType": "address",
          "name": "lpPair",
          "type": "address"
        },
        {
          "internalType": "uint256",
          "name": "amountA",
          "type": "uint256"
        },
        {
          "internalType": "uint256",
          "name": "amountB",
          "type": "uint256"
        },
        {
          "internalType": "uint256",
          "name": "amountAMin",
          "type": "uint256"
        },
        {
          "internalType": "uint256",
          "name": "amountBMin",
          "type": "uint256"
        },
        {
          "internalType": "uint256",
          "name": "amountLP",
          "type": "uint256"
        },
        {
          "internalType": "address",
          "name": "recipient",
          "type": "address"
        }
      ],
      "name": "deposit",
      "outputs": [
        {
          "internalType": "uint256",
          "name": "sentA",
          "type": "uint256"
        },
        {
          "internalType": "uint256",
          "name": "sentB",
          "type": "uint256"
        },
        {
          "internalType": "uint256",
          "name": "liquidity",
          "type": "uint256"
        }
      ],
      "stateMutability": "nonpayable",
      "type": "function"
    },
    {
      "inputs": [
        {
          "internalType": "address",
          "name": "lpPair",
          "type": "address"
        },
        {
          "internalType": "uint256",
          "name": "amountToken",
          "type": "uint256"
        },
        {
          "internalType": "uint256",
          "name": "amountTokenMin",
          "type": "uint256"
        },
        {
          "internalType": "uint256",
          "name": "amountETHMin",
          "type": "uint256"
        },
        {
          "internalType": "uint256",
          "name": "amountLP",
          "type": "uint256"
        },
        {
          "internalType": "address",
          "name": "recipient",
          "type": "address"
        }
      ],
      "name": "depositETH",
      "outputs": [
        {
          "internalType": "uint256",
          "name": "sentToken",
          "type": "uint256"
        },
        {
          "internalType": "uint256",
          "name": "sentETH",
          "type": "uint256"
        },
        {
          "internalType": "uint256",
          "name": "liquidity",
          "type": "uint256"
        }
      ],
      "stateMutability": "payable",
      "type": "function",
      "payable": true
    },
    {
      "inputs": [
        {
          "internalType": "address",
          "name": "lpPair",
          "type": "address"
        },
        {
          "internalType": "uint256",
          "name": "amount",
          "type": "uint256"
        },
        {
          "internalType": "uint256",
          "name": "amountAMin",
          "type": "uint256"
        },
        {
          "internalType": "uint256",
          "name": "amountBMin",
          "type": "uint256"
        },
        {
          "internalType": "bool",
          "name": "withdrawLP",
          "type": "bool"
        },
        {
          "internalType": "address",
          "name": "recipient",
          "type": "address"
        }
      ],
      "name": "withdraw",
      "outputs": [
        {
          "internalType": "uint256",
          "name": "amountA",
          "type": "uint256"
        },
        {
          "internalType": "uint256",
          "name": "amountB",
          "type": "uint256"
        }
      ],
      "stateMutability": "nonpayable",
      "type": "function"
    },
    {
      "inputs": [
        {
          "internalType": "address",
          "name": "lpPair",
          "type": "address"
        },
        {
          "internalType": "uint256",
          "name": "amount",
          "type": "uint256"
        },
        {
          "internalType": "uint256",
          "name": "amountTokenMin",
          "type": "uint256"
        },
        {
          "internalType": "uint256",
          "name": "amountETHMin",
          "type": "uint256"
        },
        {
          "internalType": "address",
          "name": "recipient",
          "type": "address"
        }
      ],
      "name": "withdrawETH",
      "outputs": [
        {
          "internalType": "uint256",
          "name": "amountToken",
          "type": "uint256"
        },
        {
          "internalType": "uint256",
          "name": "amountETH",
          "type": "uint256"
        }
      ],
      "stateMutability": "nonpayable",
      "type": "function"
    },
    {
      "inputs": [
        {
          "internalType": "address",
          "name": "lpPair",
          "type": "address"
        },
        {
          "components": [
            {
              "internalType": "address[]",
              "name": "route",
              "type": "address[]"
            },
            {
              "internalType": "uint256",
              "name": "amountOutMin",
              "type": "uint256"
            }
          ],
          "internalType": "struct IUnoFarmTrisolarisStandard.SwapInfo[4]",
          "name": "swapInfos",
          "type": "tuple[4]"
        },
        {
          "components": [
            {
              "internalType": "address[]",
              "name": "route",
              "type": "address[]"
            },
            {
              "internalType": "uint256",
              "name": "amountOutMin",
              "type": "uint256"
            }
          ],
          "internalType": "struct IUnoFarmTrisolarisStandard.SwapInfo[2]",
          "name": "feeSwapInfos",
          "type": "tuple[2]"
        },
        {
          "internalType": "address",
          "name": "feeTo",
          "type": "address"
        }
      ],
      "name": "distribute",
      "outputs": [],
      "stateMutability": "nonpayable",
      "type": "function"
    },
    {
      "inputs": [
        {
          "internalType": "address",
          "name": "_address",
          "type": "address"
        },
        {
          "internalType": "address",
          "name": "lpPair",
          "type": "address"
        }
      ],
      "name": "userStake",
      "outputs": [
        {
          "internalType": "uint256",
          "name": "stakeLP",
          "type": "uint256"
        },
        {
          "internalType": "uint256",
          "name": "stakeA",
          "type": "uint256"
        },
        {
          "internalType": "uint256",
          "name": "stakeB",
          "type": "uint256"
        }
      ],
      "stateMutability": "view",
      "type": "function",
      "constant": true
    },
    {
      "inputs": [
        {
          "internalType": "address",
          "name": "lpPair",
          "type": "address"
        }
      ],
      "name": "totalDeposits",
      "outputs": [
        {
          "internalType": "uint256",
          "name": "totalDepositsLP",
          "type": "uint256"
        },
        {
          "internalType": "uint256",
          "name": "totalDepositsA",
          "type": "uint256"
        },
        {
          "internalType": "uint256",
          "name": "totalDepositsB",
          "type": "uint256"
        }
      ],
      "stateMutability": "view",
      "type": "function",
      "constant": true
    },
    {
      "inputs": [
        {
          "internalType": "address",
          "name": "lpPair",
          "type": "address"
        }
      ],
      "name": "getTokens",
      "outputs": [
        {
          "internalType": "contract IERC20[]",
          "name": "tokens",
          "type": "address[]"
        }
      ],
      "stateMutability": "view",
      "type": "function",
      "constant": true
    },
    {
      "inputs": [
        {
          "internalType": "uint256",
          "name": "_fee",
          "type": "uint256"
        }
      ],
      "name": "setFee",
      "outputs": [],
      "stateMutability": "nonpayable",
      "type": "function"
    },
    {
      "inputs": [],
      "name": "pause",
      "outputs": [],
      "stateMutability": "nonpayable",
      "type": "function"
    },
    {
      "inputs": [],
      "name": "unpause",
      "outputs": [],
      "stateMutability": "nonpayable",
      "type": "function"
    }
  ],
  "bytecode": "0x60a0604052306080523480156200001557600080fd5b506200002062000026565b620000e8565b600054610100900460ff1615620000935760405162461bcd60e51b815260206004820152602760248201527f496e697469616c697a61626c653a20636f6e747261637420697320696e697469604482015266616c697a696e6760c81b606482015260840160405180910390fd5b60005460ff9081161015620000e6576000805460ff191660ff9081179091556040519081527f7f26b83ff96e1f2b6a682f133852f6798a09c465da95921460cefb38474024989060200160405180910390a15b565b6080516132d462000120600039600081816107d301528181610813015281816112ad015281816112ed015261148a01526132d46000f3fe6080604052600436106101235760003560e01c80635c975abb116100a0578063ddca3f4311610064578063ddca3f43146103a2578063deb03f4d146103b8578063e9403256146103d8578063f441f73c146103f8578063fdcb60681461041857600080fd5b80635c975abb146102ea57806369fe0e2d1461030d5780636d25e1751461032d5780638456cb5914610365578063ad5c46481461037a57600080fd5b80634743cdc7116100e75780634743cdc714610246578063485cc955146102745780634f1ef2861461029457806351bdca3e146102a757806352d1902d146102c757600080fd5b80631ad881801461018a5780631ec5aa3e146101aa5780633659cfe6146101e45780633f4ba83a14610204578063450efe211461021957600080fd5b36610185573373c9bdeed33cd01541e1eed10f90519d2c06fe3feb146101835760405162461bcd60e51b815260206004820152601060248201526f09e9c98b2be8286868aa0a8beae8aa8960831b60448201526064015b60405180910390fd5b005b600080fd5b34801561019657600080fd5b506101836101a5366004612956565b610438565b3480156101b657600080fd5b506101ca6101c53660046129fb565b61065e565b604080519283526020830191909152015b60405180910390f35b3480156101f057600080fd5b506101836101ff366004612a62565b6107c8565b34801561021057600080fd5b506101836108a8565b34801561022557600080fd5b50610239610234366004612a62565b61095f565b6040516101db9190612a7f565b610259610254366004612acc565b610aae565b604080519384526020840192909252908201526060016101db565b34801561028057600080fd5b5061018361028f366004612b1c565b61106b565b6101836102a2366004612b6b565b6112a2565b3480156102b357600080fd5b506102596102c2366004612b1c565b611373565b3480156102d357600080fd5b506102dc61147d565b6040519081526020016101db565b3480156102f657600080fd5b5060335460ff1660405190151581526020016101db565b34801561031957600080fd5b50610183610328366004612c2f565b611530565b34801561033957600080fd5b5060c95461034d906001600160a01b031681565b6040516001600160a01b0390911681526020016101db565b34801561037157600080fd5b5061018361164f565b34801561038657600080fd5b5061034d73c9bdeed33cd01541e1eed10f90519d2c06fe3feb81565b3480156103ae57600080fd5b506102dc60cc5481565b3480156103c457600080fd5b506101ca6103d3366004612c48565b611706565b3480156103e457600080fd5b506102596103f3366004612a62565b611ae1565b34801561040457600080fd5b50610259610413366004612c9e565b611be3565b34801561042457600080fd5b5060ca5461034d906001600160a01b031681565b610440611e9a565b60ca54604051632474521560e21b81527ffbd454f36a7e1a388bd6fc3ab10d434aa4578f811acbbcf33afb1c697486313c60048201819052336024830152916001600160a01b0316906391d1485490604401602060405180830381865afa1580156104af573d6000803e3d6000fd5b505050506040513d601f19601f820116820180604052508101906104d39190612d07565b6104ef5760405162461bcd60e51b815260040161017a90612d24565b60c95460405163f9d9331d60e01b81526001600160a01b038781166004830152600092169063f9d9331d90602401602060405180830381865afa15801561053a573d6000803e3d6000fd5b505050506040513d601f19601f8201168201806040525081019061055e9190612d53565b90506001600160a01b0381166105865760405162461bcd60e51b815260040161017a90612d70565b6040805180820182526001600160a01b03858116825260cc546020830152915163047f792560e11b81526000928416916308fef24a916105cd918a918a9190600401612e84565b6020604051808303816000875af11580156105ec573d6000803e3d6000fd5b505050506040513d601f19601f820116820180604052508101906106109190612f98565b9050866001600160a01b03167fc1d32ad5cca423e7dda2123dbf8c482f8e77d00b631c06e903a47f2cec1334df8260405161064d91815260200190565b60405180910390a250505050505050565b60c95460405163f9d9331d60e01b81526001600160a01b038881166004830152600092839283929091169063f9d9331d90602401602060405180830381865afa1580156106af573d6000803e3d6000fd5b505050506040513d601f19601f820116820180604052508101906106d39190612d53565b90506001600160a01b0381166106fb5760405162461bcd60e51b815260040161017a90612d70565b60405163d563468360e01b81526001600160a01b0382169063d563468390610731908b908b908b908b9033908c90600401612fb1565b60408051808303816000875af115801561074f573d6000803e3d6000fd5b505050506040513d601f19601f820116820180604052508101906107739190612fe7565b6040518a815291945092506001600160a01b038581169133918c16907f3115d1449a7b732c986cba18244e897a450f61e1bb8d589cd2e69e6c8924f9f79060200160405180910390a450965096945050505050565b306001600160a01b037f00000000000000000000000000000000000000000000000000000000000000001614156108115760405162461bcd60e51b815260040161017a9061300b565b7f00000000000000000000000000000000000000000000000000000000000000006001600160a01b031661085a600080516020613258833981519152546001600160a01b031690565b6001600160a01b0316146108805760405162461bcd60e51b815260040161017a90613057565b61088981611ee2565b604080516000808252602082019092526108a591839190611f74565b50565b60ca54604051632474521560e21b81527f65d7a28e3265b37a6474929f336521b332c1681b933f6cb9f3376673440d862a60048201819052336024830152916001600160a01b0316906391d1485490604401602060405180830381865afa158015610917573d6000803e3d6000fd5b505050506040513d601f19601f8201168201806040525081019061093b9190612d07565b6109575760405162461bcd60e51b815260040161017a90612d24565b6108a56120df565b6040805160028082526060808301845292602083019080368337019050509050816001600160a01b0316630dfe16816040518163ffffffff1660e01b8152600401602060405180830381865afa1580156109bd573d6000803e3d6000fd5b505050506040513d601f19601f820116820180604052508101906109e19190612d53565b816000815181106109f4576109f46130a3565b60200260200101906001600160a01b031690816001600160a01b031681525050816001600160a01b031663d21220a76040518163ffffffff1660e01b8152600401602060405180830381865afa158015610a52573d6000803e3d6000fd5b505050506040513d601f19601f82011682018060405250810190610a769190612d53565b81600181518110610a8957610a896130a3565b60200260200101906001600160a01b031690816001600160a01b031681525050919050565b6000806000610abb611e9a565b60003411610af95760405162461bcd60e51b815260206004820152600b60248201526a1393d7d1551217d4d1539560aa1b604482015260640161017a565b60c95460405163f9d9331d60e01b81526001600160a01b038b81166004830152600092169063f9d9331d90602401602060405180830381865afa158015610b44573d6000803e3d6000fd5b505050506040513d601f19601f82011682018060405250810190610b689190612d53565b90506001600160a01b038116610bea5760c954604051621849e360e61b81526001600160a01b038c811660048301529091169063061278c0906024016020604051808303816000875af1158015610bc3573d6000803e3d6000fd5b505050506040513d601f19601f82011682018060405250810190610be79190612d53565b90505b8515610c0557610c056001600160a01b038b16338389612131565b6000816001600160a01b0316630fc63d106040518163ffffffff1660e01b8152600401602060405180830381865afa158015610c45573d6000803e3d6000fd5b505050506040513d601f19601f82011682018060405250810190610c699190612d53565b90506000826001600160a01b0316635f64b55b6040518163ffffffff1660e01b8152600401602060405180830381865afa158015610cab573d6000803e3d6000fd5b505050506040513d601f19601f82011682018060405250810190610ccf9190612d53565b905073c9bdeed33cd01541e1eed10f90519d2c06fe3feb6001600160a01b031663d0e30db0346040518263ffffffff1660e01b81526004016000604051808303818588803b158015610d2057600080fd5b505af1158015610d34573d6000803e3d6000fd5b50610d5c935073c9bdeed33cd01541e1eed10f90519d2c06fe3feb92508691503490506121a2565b6001600160a01b03821673c9bdeed33cd01541e1eed10f90519d2c06fe3feb1415610e43578a15610d9c57610d9c6001600160a01b03821633858e612131565b826001600160a01b0316631666768a348d8c8e8d308e6040518863ffffffff1660e01b8152600401610dd497969594939291906130b9565b6060604051808303816000875af1158015610df3573d6000803e3d6000fd5b505050506040513d601f19601f82011682018060405250810190610e1791906130f5565b9097509095509350610e3e33610e2d888e613139565b6001600160a01b03841691906121a2565b610f5c565b6001600160a01b03811673c9bdeed33cd01541e1eed10f90519d2c06fe3feb1415610f24578a15610e8357610e836001600160a01b03831633858e612131565b826001600160a01b0316631666768a8c348d8d8d308e6040518863ffffffff1660e01b8152600401610ebb97969594939291906130b9565b6060604051808303816000875af1158015610eda573d6000803e3d6000fd5b505050506040513d601f19601f82011682018060405250810190610efe91906130f5565b91975095509350610e3e33610f13888e613139565b6001600160a01b03851691906121a2565b60405162461bcd60e51b815260206004820152600d60248201526c1393d517d5d1551217d413d3d3609a1b604482015260640161017a565b6000610f688634613139565b9050801561100457604051632e1a7d4d60e01b81526004810182905273c9bdeed33cd01541e1eed10f90519d2c06fe3feb90632e1a7d4d90602401600060405180830381600087803b158015610fbd57600080fd5b505af1158015610fd1573d6000803e3d6000fd5b505060405133925083156108fc02915083906000818181858888f19350505050158015611002573d6000803e3d6000fd5b505b876001600160a01b0316336001600160a01b03168e6001600160a01b03167f7cfff908a4b583f36430b25d75964c458d8ede8a99bd61be750e97ee1b2f3a968860405161105391815260200190565b60405180910390a45050505096509650969350505050565b600054610100900460ff161580801561108b5750600054600160ff909116105b806110a55750303b1580156110a5575060005460ff166001145b6111085760405162461bcd60e51b815260206004820152602e60248201527f496e697469616c697a61626c653a20636f6e747261637420697320616c72656160448201526d191e481a5b9a5d1a585b1a5e995960921b606482015260840161017a565b6000805460ff19166001179055801561112b576000805461ff0019166101001790555b6001600160a01b0383166111765760405162461bcd60e51b81526020600482015260126024820152712120a22fa0a1a1a2a9a9afa6a0a720a3a2a960711b604482015260640161017a565b6001600160a01b0382166111bf5760405162461bcd60e51b815260206004820152601060248201526f4241445f4641524d5f464143544f525960801b604482015260640161017a565b6111c76121d2565b60ca80546001600160a01b038086166001600160a01b0319928316811790935560c980549186169190921617905560408051631d6c8e3f60e21b815290516375b238fc916004808201926020929091908290030181865afa158015611230573d6000803e3d6000fd5b505050506040513d601f19601f820116820180604052508101906112549190612f98565b60cb55801561129d576000805461ff0019169055604051600181527f7f26b83ff96e1f2b6a682f133852f6798a09c465da95921460cefb38474024989060200160405180910390a15b505050565b306001600160a01b037f00000000000000000000000000000000000000000000000000000000000000001614156112eb5760405162461bcd60e51b815260040161017a9061300b565b7f00000000000000000000000000000000000000000000000000000000000000006001600160a01b0316611334600080516020613258833981519152546001600160a01b031690565b6001600160a01b03161461135a5760405162461bcd60e51b815260040161017a90613057565b61136382611ee2565b61136f82826001611f74565b5050565b60c95460405163f9d9331d60e01b81526001600160a01b038381166004830152600092839283928392169063f9d9331d90602401602060405180830381865afa1580156113c4573d6000803e3d6000fd5b505050506040513d601f19601f820116820180604052508101906113e89190612d53565b90506001600160a01b0381161561147557604051630103c92b60e01b81526001600160a01b038781166004830152821690630103c92b90602401602060405180830381865afa15801561143f573d6000803e3d6000fd5b505050506040513d601f19601f820116820180604052508101906114639190612f98565b935061146f8585612201565b90935091505b509250925092565b6000306001600160a01b037f0000000000000000000000000000000000000000000000000000000000000000161461151d5760405162461bcd60e51b815260206004820152603860248201527f555550535570677261646561626c653a206d757374206e6f742062652063616c60448201527f6c6564207468726f7567682064656c656761746563616c6c0000000000000000606482015260840161017a565b5060008051602061325883398151915290565b60cb5460ca54604051632474521560e21b8152600481018390523360248201526001600160a01b03909116906391d1485490604401602060405180830381865afa158015611582573d6000803e3d6000fd5b505050506040513d601f19601f820116820180604052508101906115a69190612d07565b6115c25760405162461bcd60e51b815260040161017a90612d24565b670de0b6b3a76400008211156116045760405162461bcd60e51b81526020600482015260076024820152664241445f46454560c81b604482015260640161017a565b8160cc541461136f5760cc5460408051918252602082018490527f5fc463da23c1b063e66f9e352006a7fbe8db7223c455dc429e881a2dfe2f94f1910160405180910390a15060cc55565b60ca54604051632474521560e21b81527f65d7a28e3265b37a6474929f336521b332c1681b933f6cb9f3376673440d862a60048201819052336024830152916001600160a01b0316906391d1485490604401602060405180830381865afa1580156116be573d6000803e3d6000fd5b505050506040513d601f19601f820116820180604052508101906116e29190612d07565b6116fe5760405162461bcd60e51b815260040161017a90612d24565b6108a561243c565b60c95460405163f9d9331d60e01b81526001600160a01b038781166004830152600092839283929091169063f9d9331d90602401602060405180830381865afa158015611757573d6000803e3d6000fd5b505050506040513d601f19601f8201168201806040525081019061177b9190612d53565b90506001600160a01b0381166117a35760405162461bcd60e51b815260040161017a90612d70565b6000816001600160a01b0316630fc63d106040518163ffffffff1660e01b8152600401602060405180830381865afa1580156117e3573d6000803e3d6000fd5b505050506040513d601f19601f820116820180604052508101906118079190612d53565b90506000826001600160a01b0316635f64b55b6040518163ffffffff1660e01b8152600401602060405180830381865afa158015611849573d6000803e3d6000fd5b505050506040513d601f19601f8201168201806040525081019061186d9190612d53565b90506001600160a01b03821673c9bdeed33cd01541e1eed10f90519d2c06fe3feb141561192a5760405163d563468360e01b81526001600160a01b0384169063d5634683906118cb908c908b908d9060009033903090600401612fb1565b60408051808303816000875af11580156118e9573d6000803e3d6000fd5b505050506040513d601f19601f8201168201806040525081019061190d9190612fe7565b955093506119256001600160a01b03821687876121a2565b6119e1565b6001600160a01b03811673c9bdeed33cd01541e1eed10f90519d2c06fe3feb1415610f245760405163d563468360e01b81526001600160a01b0384169063d563468390611986908c908c908c9060009033903090600401612fb1565b60408051808303816000875af11580156119a4573d6000803e3d6000fd5b505050506040513d601f19601f820116820180604052508101906119c89190612fe7565b90955093506119256001600160a01b03831687876121a2565b604051632e1a7d4d60e01b81526004810185905273c9bdeed33cd01541e1eed10f90519d2c06fe3feb90632e1a7d4d90602401600060405180830381600087803b158015611a2e57600080fd5b505af1158015611a42573d6000803e3d6000fd5b50506040516001600160a01b038916925086156108fc02915086906000818181858888f19350505050158015611a7c573d6000803e3d6000fd5b50856001600160a01b0316336001600160a01b03168b6001600160a01b03167f3115d1449a7b732c986cba18244e897a450f61e1bb8d589cd2e69e6c8924f9f78c604051611acc91815260200190565b60405180910390a45050509550959350505050565b60c95460405163f9d9331d60e01b81526001600160a01b038381166004830152600092839283928392169063f9d9331d90602401602060405180830381865afa158015611b32573d6000803e3d6000fd5b505050506040513d601f19601f82011682018060405250810190611b569190612d53565b90506001600160a01b03811615611bdb57806001600160a01b031663168a48226040518163ffffffff1660e01b8152600401602060405180830381865afa158015611ba5573d6000803e3d6000fd5b505050506040513d601f19601f82011682018060405250810190611bc99190612f98565b9350611bd58585612201565b90935091505b509193909250565b6000806000611bf0611e9a565b60c95460405163f9d9331d60e01b81526001600160a01b038c81166004830152600092169063f9d9331d90602401602060405180830381865afa158015611c3b573d6000803e3d6000fd5b505050506040513d601f19601f82011682018060405250810190611c5f9190612d53565b90506001600160a01b038116611ce15760c954604051621849e360e61b81526001600160a01b038d811660048301529091169063061278c0906024016020604051808303816000875af1158015611cba573d6000803e3d6000fd5b505050506040513d601f19601f82011682018060405250810190611cde9190612d53565b90505b8515611cfc57611cfc6001600160a01b038c16338389612131565b8915611d7b57611d7b33828c846001600160a01b0316630fc63d106040518163ffffffff1660e01b8152600401602060405180830381865afa158015611d46573d6000803e3d6000fd5b505050506040513d601f19601f82011682018060405250810190611d6a9190612d53565b6001600160a01b0316929190612131565b8815611dc557611dc533828b846001600160a01b0316635f64b55b6040518163ffffffff1660e01b8152600401602060405180830381865afa158015611d46573d6000803e3d6000fd5b604051630b333b4560e11b81526001600160a01b03821690631666768a90611dfd908d908d908d908d908d9033908e906004016130b9565b6060604051808303816000875af1158015611e1c573d6000803e3d6000fd5b505050506040513d601f19601f82011682018060405250810190611e4091906130f5565b60405181815292965090945092506001600160a01b038681169133918e16907f7cfff908a4b583f36430b25d75964c458d8ede8a99bd61be750e97ee1b2f3a969060200160405180910390a4509750975097945050505050565b60335460ff1615611ee05760405162461bcd60e51b815260206004820152601060248201526f14185d5cd8589b194e881c185d5cd95960821b604482015260640161017a565b565b60cb5460ca54604051632474521560e21b8152600481018390523360248201526001600160a01b03909116906391d1485490604401602060405180830381865afa158015611f34573d6000803e3d6000fd5b505050506040513d601f19601f82011682018060405250810190611f589190612d07565b61136f5760405162461bcd60e51b815260040161017a90612d24565b7f4910fdfa16fed3260ed0e7147f7cc6da11a60208b5b9406d12a635614ffd91435460ff1615611fa75761129d83612479565b826001600160a01b03166352d1902d6040518163ffffffff1660e01b8152600401602060405180830381865afa925050508015612001575060408051601f3d908101601f19168201909252611ffe91810190612f98565b60015b6120645760405162461bcd60e51b815260206004820152602e60248201527f45524331393637557067726164653a206e657720696d706c656d656e7461746960448201526d6f6e206973206e6f74205555505360901b606482015260840161017a565b60008051602061325883398151915281146120d35760405162461bcd60e51b815260206004820152602960248201527f45524331393637557067726164653a20756e737570706f727465642070726f786044820152681a58589b195555525160ba1b606482015260840161017a565b5061129d838383612515565b6120e761253a565b6033805460ff191690557f5db9ee0a495bf2e6ff9c91a7834c1ba4fdd244a5e8aa4e537bd38aeae4b073aa335b6040516001600160a01b03909116815260200160405180910390a1565b6040516001600160a01b038085166024830152831660448201526064810182905261219c9085906323b872dd60e01b906084015b60408051601f198184030181529190526020810180516001600160e01b03166001600160e01b031990931692909217909152612583565b50505050565b6040516001600160a01b03831660248201526044810182905261129d90849063a9059cbb60e01b90606401612165565b600054610100900460ff166121f95760405162461bcd60e51b815260040161017a90613150565b611ee0612655565b6000806000846001600160a01b03166318160ddd6040518163ffffffff1660e01b8152600401602060405180830381865afa158015612244573d6000803e3d6000fd5b505050506040513d601f19601f820116820180604052508101906122689190612f98565b905080856001600160a01b0316630dfe16816040518163ffffffff1660e01b8152600401602060405180830381865afa1580156122a9573d6000803e3d6000fd5b505050506040513d601f19601f820116820180604052508101906122cd9190612d53565b6040516370a0823160e01b81526001600160a01b03888116600483015291909116906370a0823190602401602060405180830381865afa158015612315573d6000803e3d6000fd5b505050506040513d601f19601f820116820180604052508101906123399190612f98565b612343908661319b565b61234d91906131ba565b925080856001600160a01b031663d21220a76040518163ffffffff1660e01b8152600401602060405180830381865afa15801561238e573d6000803e3d6000fd5b505050506040513d601f19601f820116820180604052508101906123b29190612d53565b6040516370a0823160e01b81526001600160a01b03888116600483015291909116906370a0823190602401602060405180830381865afa1580156123fa573d6000803e3d6000fd5b505050506040513d601f19601f8201168201806040525081019061241e9190612f98565b612428908661319b565b61243291906131ba565b9150509250929050565b612444611e9a565b6033805460ff191660011790557f62e78cea01bee320cd4e420270b5ea74000d11b0c9f74754ebdbfc544b05a2586121143390565b6001600160a01b0381163b6124e65760405162461bcd60e51b815260206004820152602d60248201527f455243313936373a206e657720696d706c656d656e746174696f6e206973206e60448201526c1bdd08184818dbdb9d1c9858dd609a1b606482015260840161017a565b60008051602061325883398151915280546001600160a01b0319166001600160a01b0392909216919091179055565b61251e83612688565b60008251118061252b5750805b1561129d5761219c83836126c8565b60335460ff16611ee05760405162461bcd60e51b815260206004820152601460248201527314185d5cd8589b194e881b9bdd081c185d5cd95960621b604482015260640161017a565b60006125d8826040518060400160405280602081526020017f5361666545524332303a206c6f772d6c6576656c2063616c6c206661696c6564815250856001600160a01b03166127bc9092919063ffffffff16565b80519091501561129d57808060200190518101906125f69190612d07565b61129d5760405162461bcd60e51b815260206004820152602a60248201527f5361666545524332303a204552433230206f7065726174696f6e20646964206e6044820152691bdd081cdd58d8d9595960b21b606482015260840161017a565b600054610100900460ff1661267c5760405162461bcd60e51b815260040161017a90613150565b6033805460ff19169055565b61269181612479565b6040516001600160a01b038216907fbc7cd75a20ee27fd9adebab32041f755214dbc6bffa90cc0225b39da2e5c2d3b90600090a250565b60606001600160a01b0383163b6127305760405162461bcd60e51b815260206004820152602660248201527f416464726573733a2064656c65676174652063616c6c20746f206e6f6e2d636f6044820152651b9d1c9858dd60d21b606482015260840161017a565b600080846001600160a01b03168460405161274b9190613208565b600060405180830381855af49150503d8060008114612786576040519150601f19603f3d011682016040523d82523d6000602084013e61278b565b606091505b50915091506127b38282604051806060016040528060278152602001613278602791396127d5565b95945050505050565b60606127cb848460008561280e565b90505b9392505050565b606083156127e45750816127ce565b8251156127f45782518084602001fd5b8160405162461bcd60e51b815260040161017a9190613224565b60608247101561286f5760405162461bcd60e51b815260206004820152602660248201527f416464726573733a20696e73756666696369656e742062616c616e636520666f6044820152651c8818d85b1b60d21b606482015260840161017a565b6001600160a01b0385163b6128c65760405162461bcd60e51b815260206004820152601d60248201527f416464726573733a2063616c6c20746f206e6f6e2d636f6e7472616374000000604482015260640161017a565b600080866001600160a01b031685876040516128e29190613208565b60006040518083038185875af1925050503d806000811461291f576040519150601f19603f3d011682016040523d82523d6000602084013e612924565b606091505b50915091506129348282866127d5565b925050505b949350505050565b6001600160a01b03811681146108a557600080fd5b6000806000806080858703121561296c57600080fd5b843561297781612941565b9350602085013567ffffffffffffffff8082111561299457600080fd5b8187019150876080830111156129a957600080fd5b909350604086013590808211156129bf57600080fd5b508501604081018710156129d257600080fd5b915060608501356129e281612941565b939692955090935050565b80151581146108a557600080fd5b60008060008060008060c08789031215612a1457600080fd5b8635612a1f81612941565b95506020870135945060408701359350606087013592506080870135612a44816129ed565b915060a0870135612a5481612941565b809150509295509295509295565b600060208284031215612a7457600080fd5b81356127ce81612941565b6020808252825182820181905260009190848201906040850190845b81811015612ac05783516001600160a01b031683529284019291840191600101612a9b565b50909695505050505050565b60008060008060008060c08789031215612ae557600080fd5b8635612af081612941565b95506020870135945060408701359350606087013592506080870135915060a0870135612a5481612941565b60008060408385031215612b2f57600080fd5b8235612b3a81612941565b91506020830135612b4a81612941565b809150509250929050565b634e487b7160e01b600052604160045260246000fd5b60008060408385031215612b7e57600080fd5b8235612b8981612941565b9150602083013567ffffffffffffffff80821115612ba657600080fd5b818501915085601f830112612bba57600080fd5b813581811115612bcc57612bcc612b55565b604051601f8201601f19908116603f01168101908382118183101715612bf457612bf4612b55565b81604052828152886020848701011115612c0d57600080fd5b8260208601602083013760006020848301015280955050505050509250929050565b600060208284031215612c4157600080fd5b5035919050565b600080600080600060a08688031215612c6057600080fd5b8535612c6b81612941565b94506020860135935060408601359250606086013591506080860135612c9081612941565b809150509295509295909350565b600080600080600080600060e0888a031215612cb957600080fd5b8735612cc481612941565b96506020880135955060408801359450606088013593506080880135925060a0880135915060c0880135612cf781612941565b8091505092959891949750929550565b600060208284031215612d1957600080fd5b81516127ce816129ed565b60208082526015908201527410d05313115497d393d517d055551213d492569151605a1b604082015260600190565b600060208284031215612d6557600080fd5b81516127ce81612941565b6020808252600f908201526e4641524d5f4e4f545f45584953545360881b604082015260600190565b60008235603e19833603018112612daf57600080fd5b90910192915050565b60008260408082018460005b6002811015612ac0578483038852612ddc8288612d99565b8484018135601e19833603018112612df357600080fd5b82018035602067ffffffffffffffff821115612e0e57600080fd5b8160051b3603851315612e2057600080fd5b888852928190529082019160009190606088015b82841015612e64578435612e4781612941565b6001600160a01b0316815293810193600193909301928101612e34565b948101359781019790975250505097830197929190910190600101612dc4565b6080808252600090610100830190830186835b6004811015612f6057858403607f19018352612eb3828a612d99565b60408086018235601e19843603018112612ecc57600080fd5b83018035602067ffffffffffffffff821115612ee757600080fd5b8160051b3603861315612ef957600080fd5b938952918290526060880192908101916000915b81831015612f3f578335612f2081612941565b6001600160a01b03168552938401939283019260019290920191612f0d565b94850135988501989098525090955050928301929190910190600101612e97565b5050508281036020840152612f758186612db8565b84516001600160a01b031660408501526020850151606085015291506129399050565b600060208284031215612faa57600080fd5b5051919050565b95865260208601949094526040850192909252151560608401526001600160a01b0390811660808401521660a082015260c00190565b60008060408385031215612ffa57600080fd5b505080516020909101519092909150565b6020808252602c908201527f46756e6374696f6e206d7573742062652063616c6c6564207468726f7567682060408201526b19195b1959d85d1958d85b1b60a21b606082015260800190565b6020808252602c908201527f46756e6374696f6e206d7573742062652063616c6c6564207468726f7567682060408201526b6163746976652070726f787960a01b606082015260800190565b634e487b7160e01b600052603260045260246000fd5b96875260208701959095526040860193909352606085019190915260808401526001600160a01b0390811660a08401521660c082015260e00190565b60008060006060848603121561310a57600080fd5b8351925060208401519150604084015190509250925092565b634e487b7160e01b600052601160045260246000fd5b60008282101561314b5761314b613123565b500390565b6020808252602b908201527f496e697469616c697a61626c653a20636f6e7472616374206973206e6f74206960408201526a6e697469616c697a696e6760a81b606082015260800190565b60008160001904831182151516156131b5576131b5613123565b500290565b6000826131d757634e487b7160e01b600052601260045260246000fd5b500490565b60005b838110156131f75781810151838201526020016131df565b8381111561219c5750506000910152565b6000825161321a8184602087016131dc565b9190910192915050565b60208152600082518060208401526132438160408501602087016131dc565b601f01601f1916919091016040019291505056fe360894a13ba1a3210667c828492db98dca3e2076cc3735a920a3ca505d382bbc416464726573733a206c6f772d6c6576656c2064656c65676174652063616c6c206661696c6564a2646970667358221220797af36e99b9b8d2e0e64cdc6d4373bc19d408439f4fbe4621c12e0afa25317f64736f6c634300080a0033",
  "immutableReferences": {
    "570": [
      {
        "length": 32,
        "start": 2003
      },
      {
        "length": 32,
        "start": 2067
      },
      {
        "length": 32,
        "start": 4781
      },
      {
        "length": 32,
        "start": 4845
      },
      {
        "length": 32,
        "start": 5258
      }
    ]
  },
  "source": "// SPDX-License-Identifier: MIT\r\npragma solidity 0.8.10;\r\n\r\nimport { IUnoFarmTrisolarisStandard as Farm } from \"./interfaces/IUnoFarmTrisolarisStandard.sol\";\r\nimport \"../../interfaces/IUnoFarmFactory.sol\";\r\nimport \"../../interfaces/IUnoAccessManager.sol\";\r\nimport \"../../interfaces/IUniswapV2Pair.sol\";\r\nimport '../../interfaces/IWETH.sol';\r\nimport '@openzeppelin/contracts/token/ERC20/IERC20.sol';\r\nimport \"@openzeppelin/contracts-upgradeable/token/ERC20/IERC20Upgradeable.sol\";\r\nimport \"@openzeppelin/contracts-upgradeable/token/ERC20/utils/SafeERC20Upgradeable.sol\";\r\nimport \"@openzeppelin/contracts-upgradeable/proxy/utils/Initializable.sol\";\r\nimport \"@openzeppelin/contracts-upgradeable/security/PausableUpgradeable.sol\";\r\nimport \"@openzeppelin/contracts-upgradeable/proxy/utils/UUPSUpgradeable.sol\";\r\n\r\ncontract UnoAssetRouterTrisolarisStandard is Initializable, PausableUpgradeable, UUPSUpgradeable {\r\n    using SafeERC20Upgradeable for IERC20Upgradeable;\r\n\r\n    /**\r\n     * @dev Contract Variables:\r\n     * farmFactory - The contract that deploys new Farms and links them to {lpPair}s.\r\n     * accessManager - Role manager contract.\r\n     */\r\n    IUnoFarmFactory public farmFactory;\r\n    IUnoAccessManager public accessManager;\r\n\r\n    bytes32 private ADMIN_ROLE;\r\n    bytes32 private constant DISTRIBUTOR_ROLE = keccak256(\"DISTRIBUTOR_ROLE\");\r\n    bytes32 private constant PAUSER_ROLE = keccak256(\"PAUSER_ROLE\");\r\n\r\n    uint256 public fee;\r\n\r\n    address public constant WETH = 0xC9BdeEd33CD01541e1eeD10f90519d2C06Fe3feB;\r\n\r\n    event Deposit(address indexed lpPool, address indexed sender, address indexed recipient, uint256 amount);\r\n    event Withdraw(address indexed lpPool, address indexed sender, address indexed recipient, uint256 amount);\r\n    event Distribute(address indexed lpPool, uint256 reward);\r\n\r\n    event FeeChanged(uint256 previousFee, uint256 newFee);\r\n\r\n    modifier onlyRole(bytes32 role){\r\n        require(accessManager.hasRole(role, msg.sender), 'CALLER_NOT_AUTHORIZED');\r\n        _;\r\n    }\r\n\r\n    // ============ Methods ============\r\n\r\n    /// @custom:oz-upgrades-unsafe-allow constructor\r\n    constructor() {\r\n        _disableInitializers();\r\n    }\r\n\r\n    function initialize(address _accessManager, address _farmFactory) external initializer {\r\n        require (_accessManager != address(0), 'BAD_ACCESS_MANAGER');\r\n        require (_farmFactory != address(0), 'BAD_FARM_FACTORY');\r\n\r\n        __Pausable_init();\r\n        accessManager = IUnoAccessManager(_accessManager);\r\n        farmFactory = IUnoFarmFactory(_farmFactory);\r\n                \r\n        ADMIN_ROLE = accessManager.ADMIN_ROLE();\r\n    }\r\n\r\n    receive() external payable {\r\n        require(msg.sender == WETH, 'ONLY_ACCEPT_WETH'); // only accept ETH via fallback from the WETH contract\r\n    }\r\n\r\n    /**\r\n     * @dev Deposits tokens in the given pool. Creates new Farm contract if there isn't one deployed for the {lpPair} and deposits tokens in it. Emits a {Deposit} event.\r\n     * @param lpPair - Address of the pool to deposit tokens in.\r\n     * @param amountA  - Token A amount to deposit.\r\n     * @param amountB -  Token B amount to deposit.\r\n     * @param amountAMin - Bounds the extent to which the B/A price can go up before the transaction reverts.\r\n     * @param amountBMin - Bounds the extent to which the A/B price can go up before the transaction reverts.\r\n     * @param amountLP - Additional LP Token amount to deposit.\r\n     * @param recipient - Address which will receive the deposit.\r\n     \r\n     * @return sentA - Token A amount sent to the farm.\r\n     * @return sentB - Token B amount sent to the farm.\r\n     * @return liquidity - Total liquidity sent to the farm (in lpTokens).\r\n     */\r\n    function deposit(\r\n        address lpPair,\r\n        uint256 amountA,\r\n        uint256 amountB,\r\n        uint256 amountAMin,\r\n        uint256 amountBMin,\r\n        uint256 amountLP,\r\n        address recipient\r\n    ) external whenNotPaused returns (uint256 sentA, uint256 sentB, uint256 liquidity) {\r\n        Farm farm = Farm(farmFactory.Farms(lpPair));\r\n        if (farm == Farm(address(0))) {\r\n            farm = Farm(farmFactory.createFarm(lpPair));\r\n        }\r\n\r\n        if (amountLP > 0) {\r\n            IERC20Upgradeable(lpPair).safeTransferFrom(msg.sender, address(farm), amountLP);\r\n        }\r\n        if (amountA > 0) {\r\n            IERC20Upgradeable(farm.tokenA()).safeTransferFrom(msg.sender, address(farm), amountA);\r\n        }\r\n        if (amountB > 0) {\r\n            IERC20Upgradeable(farm.tokenB()).safeTransferFrom(msg.sender, address(farm), amountB);\r\n        }\r\n\r\n        (sentA, sentB, liquidity) = farm.deposit(\r\n            amountA,\r\n            amountB,\r\n            amountAMin,\r\n            amountBMin,\r\n            amountLP,\r\n            msg.sender,\r\n            recipient\r\n        );\r\n        emit Deposit(lpPair, msg.sender, recipient, liquidity);\r\n    }\r\n\r\n    /**\r\n     * @dev Autoconverts ETH into WETH and deposits tokens in the given pool. Creates new Farm contract if there isn't one deployed for the {lpStakingPool} and deposits tokens in it. Emits a {Deposit} event.\r\n     * @param lpPair - Address of the pool to deposit tokens in.\r\n     * @param amountToken  - Token amount to deposit.\r\n     * @param amountTokenMin - Bounds the extent to which the (TOKEN/WETH or TOKEN/WETH) price can go up before the transaction reverts.\r\n     * @param amountETHMin - Minimum amount of ETH to deposit.\r\n     * @param amountLP - Additional LP Token amount to deposit.\r\n     * @param recipient - Address which will receive the deposit.\r\n     \r\n     * @return sentToken - Token amount sent to the farm.\r\n     * @return sentETH - WETH amount sent to the farm.\r\n     * @return liquidity - Total liquidity sent to the farm (in lpTokens).\r\n     */\r\n    function depositETH(address lpPair, uint256 amountToken, uint256 amountTokenMin, uint256 amountETHMin, uint256 amountLP, address recipient) external payable whenNotPaused returns(uint256 sentToken, uint256 sentETH, uint256 liquidity){\r\n        require(msg.value > 0, \"NO_ETH_SENT\");\r\n        Farm farm = Farm(farmFactory.Farms(lpPair));\r\n        if(farm == Farm(address(0))){\r\n            farm = Farm(farmFactory.createFarm(lpPair));\r\n        }\r\n\r\n        if(amountLP > 0){\r\n            IERC20Upgradeable(lpPair).safeTransferFrom(msg.sender, address(farm), amountLP);\r\n        }\r\n\r\n        address tokenA = farm.tokenA();\r\n        address tokenB = farm.tokenB();\r\n\r\n        IWETH(WETH).deposit{value: msg.value}();\r\n        IERC20Upgradeable(WETH).safeTransfer(address(farm), msg.value);\r\n        if (tokenA == WETH) {\r\n            if (amountToken > 0) {\r\n                IERC20Upgradeable(tokenB).safeTransferFrom(msg.sender, address(farm), amountToken);\r\n            }\r\n            (sentETH, sentToken, liquidity) = farm.deposit(msg.value, amountToken, amountETHMin, amountTokenMin, amountLP, address(this), recipient);\r\n            IERC20Upgradeable(tokenB).safeTransfer(msg.sender, amountToken - sentToken);\r\n        } else if (tokenB == WETH) {\r\n            if (amountToken > 0) {\r\n                IERC20Upgradeable(tokenA).safeTransferFrom(msg.sender, address(farm), amountToken);\r\n            }\r\n            (sentToken, sentETH, liquidity) = farm.deposit(amountToken, msg.value, amountTokenMin, amountETHMin, amountLP, address(this), recipient);\r\n            IERC20Upgradeable(tokenA).safeTransfer(msg.sender, amountToken - sentToken);\r\n        } else {\r\n            revert(\"NOT_WETH_POOL\");\r\n        }\r\n\r\n        uint256 dust = msg.value - sentETH;\r\n        if (dust > 0){\r\n            IWETH(WETH).withdraw(dust);\r\n            payable(msg.sender).transfer(dust);\r\n        }\r\n        emit Deposit(lpPair, msg.sender, recipient, liquidity);\r\n    }\r\n\r\n    /** \r\n     * @dev Withdraws tokens from the given pool. Emits a {Withdraw} event.\r\n     * @param lpPair - LP pool to withdraw from.\r\n     * @param amount - LP amount to withdraw. \r\n     * @param amountAMin - The minimum amount of tokenA that must be received for the transaction not to revert.\r\n     * @param amountBMin - The minimum amount of tokenB that must be received for the transaction not to revert.\r\n     * @param withdrawLP - True: Withdraw in LP tokens, False: Withdraw in normal tokens.\r\n     * @param recipient - The address which will receive tokens.\r\n\r\n     * @return amountA - Token A amount sent to the {recipient}, 0 if withdrawLP == false.\r\n     * @return amountB - Token B amount sent to the {recipient}, 0 if withdrawLP == false.\r\n     */\r\n    function withdraw(\r\n        address lpPair,\r\n        uint256 amount,\r\n        uint256 amountAMin,\r\n        uint256 amountBMin,\r\n        bool withdrawLP,\r\n        address recipient\r\n    ) external returns (uint256 amountA, uint256 amountB) {\r\n        Farm farm = Farm(farmFactory.Farms(lpPair));\r\n        require(farm != Farm(address(0)), \"FARM_NOT_EXISTS\");\r\n\r\n        (amountA, amountB) = farm.withdraw(\r\n            amount,\r\n            amountAMin,\r\n            amountBMin,\r\n            withdrawLP,\r\n            msg.sender,\r\n            recipient\r\n        );\r\n        emit Withdraw(lpPair, msg.sender, recipient, amount);\r\n    }\r\n\r\n    /** \r\n     * @dev Autoconverts WETH into ETH and withdraws tokens from the pool. Emits a {Withdraw} event.\r\n     * @param lpPair - LP pool to withdraw from.\r\n     * @param amount - LP amount to withdraw. \r\n     * @param amountTokenMin - The minimum amount of token that must be received for the transaction not to revert.\r\n     * @param amountETHMin - The minimum amount of ETH that must be received for the transaction not to revert.\r\n     * @param recipient - The address which will receive tokens.\r\n\r\n     * @return amountToken - Token amount sent to the {recipient}.\r\n     * @return amountETH - ETH amount sent to the {recipient}.\r\n     */ \r\n    function withdrawETH(address lpPair, uint256 amount, uint256 amountTokenMin, uint256 amountETHMin, address recipient) external returns(uint256 amountToken, uint256 amountETH){\r\n        Farm farm = Farm(farmFactory.Farms(lpPair));\r\n        require(farm != Farm(address(0)),'FARM_NOT_EXISTS');\r\n\r\n        address tokenA = farm.tokenA();\r\n        address tokenB = farm.tokenB();\r\n\r\n        if (tokenA == WETH) {\r\n            (amountETH, amountToken) = farm.withdraw(amount, amountETHMin, amountTokenMin, false, msg.sender, address(this));\r\n            IERC20Upgradeable(tokenB).safeTransfer(recipient, amountToken);\r\n        } else if (tokenB == WETH) {\r\n            (amountToken, amountETH) = farm.withdraw(amount, amountTokenMin, amountETHMin, false, msg.sender, address(this)); \r\n            IERC20Upgradeable(tokenA).safeTransfer(recipient, amountToken);\r\n        } else {\r\n            revert(\"NOT_WETH_POOL\");\r\n        }\r\n\r\n        IWETH(WETH).withdraw(amountETH);\r\n        payable(recipient).transfer(amountETH);\r\n        emit Withdraw(lpPair, msg.sender, recipient, amount);\r\n    }\r\n\r\n    /**\r\n     * @dev Distributes tokens between users.\r\n     * @param lpPair - LP pool to distribute tokens in.\r\n     * @param swapInfos - Arrays of structs with token arrays describing swap routes (rewardTokenToTokenA, rewardTokenToTokenB, rewarderTokenToTokenA, rewarderTokenToTokenB) and minimum amounts of output tokens that must be received for the transaction not to revert.\r\n     * @param feeSwapInfos - Arrays of structs with token arrays describing swap routes (rewardTokenToFeeToken, rewarderTokenToFeeToken) and minimum amounts of output tokens that must be received for the transaction not to revert.\r\n     * @param feeTo - Address to collect fees to.\r\n     *\r\n     * Note: This function can only be called by the distributor.\r\n     */\r\n    function distribute(\r\n        address lpPair,\r\n        Farm.SwapInfo[4] calldata swapInfos,\r\n        Farm.SwapInfo[2] calldata feeSwapInfos,\r\n        address feeTo\r\n    ) external whenNotPaused onlyRole(DISTRIBUTOR_ROLE) {\r\n        Farm farm = Farm(farmFactory.Farms(lpPair));\r\n        require(farm != Farm(address(0)), \"FARM_NOT_EXISTS\");\r\n\r\n        uint256 reward = farm.distribute(swapInfos, feeSwapInfos, Farm.FeeInfo(feeTo, fee));\r\n        emit Distribute(lpPair, reward);\r\n    }\r\n\r\n    /**\r\n     * @dev Returns tokens staked by the {_address} for the given {lpPair}.\r\n     * @param _address - The address to check stakes for.\r\n     * @param lpPair - LP pool to check stakes in.\r\n\r\n     * @return stakeLP - Total user stake(in LP tokens).\r\n     * @return stakeA - Token A stake.\r\n     * @return stakeB - Token B stake.\r\n     */\r\n    function userStake(address _address, address lpPair) external view returns (uint256 stakeLP, uint256 stakeA, uint256 stakeB) {\r\n        Farm farm = Farm(farmFactory.Farms(lpPair));\r\n        if (farm != Farm(address(0))) {\r\n            stakeLP = farm.userBalance(_address);\r\n            (stakeA, stakeB) = getTokenStake(lpPair, stakeLP);\r\n        }\r\n    }\r\n\r\n    /**\r\n     * @dev Returns total amount locked in the pool. Doesn't take pending rewards into account.\r\n     * @param lpPair - LP pool to check total deposits in.\r\n\r\n     * @return totalDepositsLP - Total deposits (in LP tokens).\r\n     * @return totalDepositsA - Token A deposits.\r\n     * @return totalDepositsB - Token B deposits.\r\n     */\r\n    function totalDeposits(address lpPair) external view returns (uint256 totalDepositsLP, uint256 totalDepositsA, uint256 totalDepositsB) {\r\n        Farm farm = Farm(farmFactory.Farms(lpPair));\r\n        if (farm != Farm(address(0))) {\r\n            totalDepositsLP = farm.getTotalDeposits();\r\n            (totalDepositsA, totalDepositsB) = getTokenStake(lpPair, totalDepositsLP);\r\n        }\r\n    }\r\n\r\n    /**\r\n     * @dev Returns addresses of tokens in {lpPair}.\r\n     * @param lpPair - LP pair to check tokens in.\r\n\r\n     * @return tokens - Token addresses.\r\n     */\r\n    function getTokens(address lpPair) external view returns (IERC20[] memory tokens) {\r\n        tokens = new IERC20[](2);\r\n        tokens[0] = IERC20(IUniswapV2Pair(lpPair).token0());\r\n        tokens[1] = IERC20(IUniswapV2Pair(lpPair).token1());\r\n    }\r\n\r\n    /**\r\n     * @dev Converts LP tokens to normal tokens, value(amountA) == value(amountB) == 0.5*amountLP\r\n     * @param lpPair - LP pair for conversion.\r\n     * @param amountLP - Amount of LP tokens to convert.\r\n\r\n     * @return amountA - Token A amount.\r\n     * @return amountB - Token B amount.\r\n     */\r\n    function getTokenStake(address lpPair, uint256 amountLP) internal view returns (uint256 amountA, uint256 amountB) {\r\n        uint256 totalSupply = IERC20Upgradeable(lpPair).totalSupply();\r\n        amountA = amountLP * IERC20Upgradeable(IUniswapV2Pair(lpPair).token0()).balanceOf(lpPair) / totalSupply;\r\n        amountB = amountLP * IERC20Upgradeable(IUniswapV2Pair(lpPair).token1()).balanceOf(lpPair) / totalSupply;\r\n    }\r\n\r\n    /**\r\n     * @dev Change fee amount.\r\n     * @param _fee -New fee to collect from farms. [10^18 == 100%]\r\n     *\r\n     * Note: This function can only be called by ADMIN_ROLE.\r\n     */ \r\n    function setFee(uint256 _fee) external onlyRole(ADMIN_ROLE){\r\n        require (_fee <= 1 ether, \"BAD_FEE\");\r\n        if(fee != _fee){\r\n            emit FeeChanged(fee, _fee); \r\n            fee = _fee;\r\n        }\r\n    }\r\n\r\n    function pause() external onlyRole(PAUSER_ROLE) {\r\n        _pause();\r\n    }\r\n\r\n    function unpause() external onlyRole(PAUSER_ROLE) {\r\n        _unpause();\r\n    }\r\n\r\n    function _authorizeUpgrade(address) internal override onlyRole(ADMIN_ROLE) {\r\n        \r\n    }\r\n}\r\n",
  "sourcePath": "C:\\Users\\jugli\\Desktop\\uno\\uno-contracts-aurora\\contracts\\apps\\trisolarisStandard\\UnoAssetRouterTrisolarisStandard.sol",
  "compiler": {
    "name": "solc",
    "version": "0.8.10+commit.fc410830.Emscripten.clang"
  },
  "schemaVersion": "3.4.10",
  "updatedAt": "2022-12-10T20:07:15.380Z",
  "networkType": "ethereum",
  "devdoc": {
    "kind": "dev",
    "methods": {
      "constructor": {
        "custom:oz-upgrades-unsafe-allow": "constructor"
      },
      "deposit(address,uint256,uint256,uint256,uint256,uint256,address)": {
        "details": "Deposits tokens in the given pool. Creates new Farm contract if there isn't one deployed for the {lpPair} and deposits tokens in it. Emits a {Deposit} event.",
        "params": {
          "amountA": "- Token A amount to deposit.",
          "amountAMin": "- Bounds the extent to which the B/A price can go up before the transaction reverts.",
          "amountB": "-  Token B amount to deposit.",
          "amountBMin": "- Bounds the extent to which the A/B price can go up before the transaction reverts.",
          "amountLP": "- Additional LP Token amount to deposit.",
          "lpPair": "- Address of the pool to deposit tokens in.",
          "recipient": "- Address which will receive the deposit."
        },
        "returns": {
          "liquidity": "- Total liquidity sent to the farm (in lpTokens).",
          "sentA": "- Token A amount sent to the farm.",
          "sentB": "- Token B amount sent to the farm."
        }
      },
      "depositETH(address,uint256,uint256,uint256,uint256,address)": {
        "details": "Autoconverts ETH into WETH and deposits tokens in the given pool. Creates new Farm contract if there isn't one deployed for the {lpStakingPool} and deposits tokens in it. Emits a {Deposit} event.",
        "params": {
          "amountETHMin": "- Minimum amount of ETH to deposit.",
          "amountLP": "- Additional LP Token amount to deposit.",
          "amountToken": "- Token amount to deposit.",
          "amountTokenMin": "- Bounds the extent to which the (TOKEN/WETH or TOKEN/WETH) price can go up before the transaction reverts.",
          "lpPair": "- Address of the pool to deposit tokens in.",
          "recipient": "- Address which will receive the deposit."
        },
        "returns": {
          "liquidity": "- Total liquidity sent to the farm (in lpTokens).",
          "sentETH": "- WETH amount sent to the farm.",
          "sentToken": "- Token amount sent to the farm."
        }
      },
      "distribute(address,(address[],uint256)[4],(address[],uint256)[2],address)": {
        "details": "Distributes tokens between users.",
        "params": {
          "feeSwapInfos": "- Arrays of structs with token arrays describing swap routes (rewardTokenToFeeToken, rewarderTokenToFeeToken) and minimum amounts of output tokens that must be received for the transaction not to revert.",
          "feeTo": "- Address to collect fees to. Note: This function can only be called by the distributor.",
          "lpPair": "- LP pool to distribute tokens in.",
          "swapInfos": "- Arrays of structs with token arrays describing swap routes (rewardTokenToTokenA, rewardTokenToTokenB, rewarderTokenToTokenA, rewarderTokenToTokenB) and minimum amounts of output tokens that must be received for the transaction not to revert."
        }
      },
      "getTokens(address)": {
        "details": "Returns addresses of tokens in {lpPair}.",
        "params": {
          "lpPair": "- LP pair to check tokens in."
        },
        "returns": {
          "tokens": "- Token addresses."
        }
      },
      "paused()": {
        "details": "Returns true if the contract is paused, and false otherwise."
      },
      "proxiableUUID()": {
        "details": "Implementation of the ERC1822 {proxiableUUID} function. This returns the storage slot used by the implementation. It is used to validate that the this implementation remains valid after an upgrade. IMPORTANT: A proxy pointing at a proxiable contract should not be considered proxiable itself, because this risks bricking a proxy that upgrades to it, by delegating to itself until out of gas. Thus it is critical that this function revert if invoked through a proxy. This is guaranteed by the `notDelegated` modifier."
      },
      "setFee(uint256)": {
        "details": "Change fee amount.",
        "params": {
          "_fee": "-New fee to collect from farms. [10^18 == 100%] Note: This function can only be called by ADMIN_ROLE."
        }
      },
      "totalDeposits(address)": {
        "details": "Returns total amount locked in the pool. Doesn't take pending rewards into account.",
        "params": {
          "lpPair": "- LP pool to check total deposits in."
        },
        "returns": {
          "totalDepositsA": "- Token A deposits.",
          "totalDepositsB": "- Token B deposits.",
          "totalDepositsLP": "- Total deposits (in LP tokens)."
        }
      },
      "upgradeTo(address)": {
        "details": "Upgrade the implementation of the proxy to `newImplementation`. Calls {_authorizeUpgrade}. Emits an {Upgraded} event."
      },
      "upgradeToAndCall(address,bytes)": {
        "details": "Upgrade the implementation of the proxy to `newImplementation`, and subsequently execute the function call encoded in `data`. Calls {_authorizeUpgrade}. Emits an {Upgraded} event."
      },
      "userStake(address,address)": {
        "details": "Returns tokens staked by the {_address} for the given {lpPair}.",
        "params": {
          "_address": "- The address to check stakes for.",
          "lpPair": "- LP pool to check stakes in."
        },
        "returns": {
          "stakeA": "- Token A stake.",
          "stakeB": "- Token B stake.",
          "stakeLP": "- Total user stake(in LP tokens)."
        }
      },
      "withdraw(address,uint256,uint256,uint256,bool,address)": {
        "details": "Withdraws tokens from the given pool. Emits a {Withdraw} event.",
        "params": {
          "amount": "- LP amount to withdraw. ",
          "amountAMin": "- The minimum amount of tokenA that must be received for the transaction not to revert.",
          "amountBMin": "- The minimum amount of tokenB that must be received for the transaction not to revert.",
          "lpPair": "- LP pool to withdraw from.",
          "recipient": "- The address which will receive tokens.",
          "withdrawLP": "- True: Withdraw in LP tokens, False: Withdraw in normal tokens."
        },
        "returns": {
          "amountA": "- Token A amount sent to the {recipient}, 0 if withdrawLP == false.",
          "amountB": "- Token B amount sent to the {recipient}, 0 if withdrawLP == false."
        }
      },
      "withdrawETH(address,uint256,uint256,uint256,address)": {
        "details": "Autoconverts WETH into ETH and withdraws tokens from the pool. Emits a {Withdraw} event.",
        "params": {
          "amount": "- LP amount to withdraw. ",
          "amountETHMin": "- The minimum amount of ETH that must be received for the transaction not to revert.",
          "amountTokenMin": "- The minimum amount of token that must be received for the transaction not to revert.",
          "lpPair": "- LP pool to withdraw from.",
          "recipient": "- The address which will receive tokens."
        },
        "returns": {
          "amountETH": "- ETH amount sent to the {recipient}.",
          "amountToken": "- Token amount sent to the {recipient}."
        }
      }
    },
    "stateVariables": {
      "farmFactory": {
        "details": "Contract Variables: farmFactory - The contract that deploys new Farms and links them to {lpPair}s. accessManager - Role manager contract."
      }
    },
    "version": 1
  },
  "userdoc": {
    "kind": "user",
    "methods": {},
    "version": 1
  }
}