{
  "contractName": "UnoAssetRouterBalancer",
  "abi": [
    {
      "anonymous": false,
      "inputs": [
        {
          "indexed": false,
          "internalType": "address",
          "name": "previousAdmin",
          "type": "address"
        },
        {
          "indexed": false,
          "internalType": "address",
          "name": "newAdmin",
          "type": "address"
        }
      ],
      "name": "AdminChanged",
      "type": "event"
    },
    {
      "anonymous": false,
      "inputs": [
        {
          "indexed": true,
          "internalType": "address",
          "name": "beacon",
          "type": "address"
        }
      ],
      "name": "BeaconUpgraded",
      "type": "event"
    },
    {
      "anonymous": false,
      "inputs": [
        {
          "indexed": true,
          "internalType": "address",
          "name": "lpPool",
          "type": "address"
        },
        {
          "indexed": true,
          "internalType": "address",
          "name": "from",
          "type": "address"
        },
        {
          "indexed": true,
          "internalType": "address",
          "name": "recipient",
          "type": "address"
        },
        {
          "indexed": false,
          "internalType": "uint256",
          "name": "amount",
          "type": "uint256"
        }
      ],
      "name": "Deposit",
      "type": "event"
    },
    {
      "anonymous": false,
      "inputs": [
        {
          "indexed": true,
          "internalType": "address",
          "name": "lpPool",
          "type": "address"
        },
        {
          "indexed": false,
          "internalType": "uint256",
          "name": "reward",
          "type": "uint256"
        }
      ],
      "name": "Distribute",
      "type": "event"
    },
    {
      "anonymous": false,
      "inputs": [
        {
          "indexed": false,
          "internalType": "uint8",
          "name": "version",
          "type": "uint8"
        }
      ],
      "name": "Initialized",
      "type": "event"
    },
    {
      "anonymous": false,
      "inputs": [
        {
          "indexed": false,
          "internalType": "address",
          "name": "account",
          "type": "address"
        }
      ],
      "name": "Paused",
      "type": "event"
    },
    {
      "anonymous": false,
      "inputs": [
        {
          "indexed": false,
          "internalType": "address",
          "name": "account",
          "type": "address"
        }
      ],
      "name": "Unpaused",
      "type": "event"
    },
    {
      "anonymous": false,
      "inputs": [
        {
          "indexed": true,
          "internalType": "address",
          "name": "implementation",
          "type": "address"
        }
      ],
      "name": "Upgraded",
      "type": "event"
    },
    {
      "anonymous": false,
      "inputs": [
        {
          "indexed": true,
          "internalType": "address",
          "name": "lpPool",
          "type": "address"
        },
        {
          "indexed": true,
          "internalType": "address",
          "name": "from",
          "type": "address"
        },
        {
          "indexed": true,
          "internalType": "address",
          "name": "recipient",
          "type": "address"
        },
        {
          "indexed": false,
          "internalType": "uint256",
          "name": "amount",
          "type": "uint256"
        }
      ],
      "name": "Withdraw",
      "type": "event"
    },
    {
      "inputs": [],
      "name": "accessManager",
      "outputs": [
        {
          "internalType": "contract IUnoAccessManager",
          "name": "",
          "type": "address"
        }
      ],
      "stateMutability": "view",
      "type": "function"
    },
    {
      "inputs": [],
      "name": "farmFactory",
      "outputs": [
        {
          "internalType": "contract IUnoFarmFactory",
          "name": "",
          "type": "address"
        }
      ],
      "stateMutability": "view",
      "type": "function"
    },
    {
      "inputs": [],
      "name": "paused",
      "outputs": [
        {
          "internalType": "bool",
          "name": "",
          "type": "bool"
        }
      ],
      "stateMutability": "view",
      "type": "function"
    },
    {
      "inputs": [],
      "name": "proxiableUUID",
      "outputs": [
        {
          "internalType": "bytes32",
          "name": "",
          "type": "bytes32"
        }
      ],
      "stateMutability": "view",
      "type": "function"
    },
    {
      "inputs": [
        {
          "internalType": "address",
          "name": "newImplementation",
          "type": "address"
        }
      ],
      "name": "upgradeTo",
      "outputs": [],
      "stateMutability": "nonpayable",
      "type": "function"
    },
    {
      "inputs": [
        {
          "internalType": "address",
          "name": "newImplementation",
          "type": "address"
        },
        {
          "internalType": "bytes",
          "name": "data",
          "type": "bytes"
        }
      ],
      "name": "upgradeToAndCall",
      "outputs": [],
      "stateMutability": "payable",
      "type": "function"
    },
    {
      "inputs": [
        {
          "internalType": "address",
          "name": "_accessManager",
          "type": "address"
        },
        {
          "internalType": "address",
          "name": "_farmFactory",
          "type": "address"
        }
      ],
      "name": "initialize",
      "outputs": [],
      "stateMutability": "nonpayable",
      "type": "function"
    },
    {
      "inputs": [
        {
          "internalType": "address",
          "name": "lpPool",
          "type": "address"
        },
        {
          "internalType": "uint256[]",
          "name": "amounts",
          "type": "uint256[]"
        },
        {
          "internalType": "address[]",
          "name": "tokens",
          "type": "address[]"
        },
        {
          "internalType": "uint256",
          "name": "minAmountLP",
          "type": "uint256"
        },
        {
          "internalType": "uint256",
          "name": "amountLP",
          "type": "uint256"
        },
        {
          "internalType": "address",
          "name": "recipient",
          "type": "address"
        }
      ],
      "name": "deposit",
      "outputs": [
        {
          "internalType": "uint256",
          "name": "liquidity",
          "type": "uint256"
        }
      ],
      "stateMutability": "nonpayable",
      "type": "function"
    },
    {
      "inputs": [
        {
          "internalType": "address",
          "name": "lpPool",
          "type": "address"
        },
        {
          "internalType": "uint256",
          "name": "amount",
          "type": "uint256"
        },
        {
          "internalType": "uint256[]",
          "name": "minAmountsOut",
          "type": "uint256[]"
        },
        {
          "internalType": "bool",
          "name": "withdrawLP",
          "type": "bool"
        },
        {
          "internalType": "address",
          "name": "recipient",
          "type": "address"
        }
      ],
      "name": "withdraw",
      "outputs": [],
      "stateMutability": "nonpayable",
      "type": "function"
    },
    {
      "inputs": [
        {
          "internalType": "address",
          "name": "lpPool",
          "type": "address"
        },
        {
          "components": [
            {
              "internalType": "bytes32",
              "name": "poolId",
              "type": "bytes32"
            },
            {
              "internalType": "uint256",
              "name": "assetInIndex",
              "type": "uint256"
            },
            {
              "internalType": "uint256",
              "name": "assetOutIndex",
              "type": "uint256"
            },
            {
              "internalType": "uint256",
              "name": "amount",
              "type": "uint256"
            },
            {
              "internalType": "bytes",
              "name": "userData",
              "type": "bytes"
            }
          ],
          "internalType": "struct IVault.BatchSwapStep[][]",
          "name": "swaps",
          "type": "tuple[][]"
        },
        {
          "internalType": "contract IAsset[][]",
          "name": "assets",
          "type": "address[][]"
        },
        {
          "internalType": "int256[][]",
          "name": "limits",
          "type": "int256[][]"
        }
      ],
      "name": "distribute",
      "outputs": [],
      "stateMutability": "nonpayable",
      "type": "function"
    },
    {
      "inputs": [
        {
          "internalType": "address",
          "name": "_address",
          "type": "address"
        },
        {
          "internalType": "address",
          "name": "lpPool",
          "type": "address"
        }
      ],
      "name": "userStake",
      "outputs": [
        {
          "internalType": "uint256",
          "name": "",
          "type": "uint256"
        }
      ],
      "stateMutability": "view",
      "type": "function"
    },
    {
      "inputs": [
        {
          "internalType": "address",
          "name": "lpPool",
          "type": "address"
        }
      ],
      "name": "totalDeposits",
      "outputs": [
        {
          "internalType": "uint256",
          "name": "",
          "type": "uint256"
        }
      ],
      "stateMutability": "view",
      "type": "function"
    },
    {
      "inputs": [
        {
          "internalType": "address",
          "name": "lpPool",
          "type": "address"
        }
      ],
      "name": "getTokens",
      "outputs": [
        {
          "internalType": "contract IERC20[]",
          "name": "tokens",
          "type": "address[]"
        }
      ],
      "stateMutability": "view",
      "type": "function"
    },
    {
      "inputs": [],
      "name": "pause",
      "outputs": [],
      "stateMutability": "nonpayable",
      "type": "function"
    },
    {
      "inputs": [],
      "name": "unpause",
      "outputs": [],
      "stateMutability": "nonpayable",
      "type": "function"
    }
  ],
  "bytecode": "0x60a06040523060805234801561001457600080fd5b506080516129db61004c600039600081816102e70152818161033001528181610940015281816109800152610b1401526129db6000f3fe6080604052600436106100e85760003560e01c806352d1902d1161008a578063947b916011610059578063947b91601461025c57806398343fd01461027c578063e94032561461029c578063fdcb6068146102bc57600080fd5b806352d1902d146101d75780635c975abb146101ec5780636d25e1751461020f5780638456cb591461024757600080fd5b8063450efe21116100c6578063450efe2114610157578063485cc955146101845780634f1ef286146101a457806351bdca3e146101b757600080fd5b80633659cfe6146100ed5780633cffb2661461010f5780633f4ba83a14610142575b600080fd5b3480156100f957600080fd5b5061010d610108366004611acb565b6102dc565b005b34801561011b57600080fd5b5061012f61012a366004611bed565b6103c5565b6040519081526020015b60405180910390f35b34801561014e57600080fd5b5061010d6106c7565b34801561016357600080fd5b50610177610172366004611acb565b6107a3565b6040516101399190611cdc565b34801561019057600080fd5b5061010d61019f366004611d29565b61088e565b61010d6101b2366004611dd1565b610935565b3480156101c357600080fd5b5061012f6101d2366004611d29565b610a06565b3480156101e357600080fd5b5061012f610b07565b3480156101f857600080fd5b5060335460ff166040519015158152602001610139565b34801561021b57600080fd5b5060c95461022f906001600160a01b031681565b6040516001600160a01b039091168152602001610139565b34801561025357600080fd5b5061010d610bba565b34801561026857600080fd5b5061010d610277366004611e39565b610c94565b34801561028857600080fd5b5061010d61029736600461209d565b610e38565b3480156102a857600080fd5b5061012f6102b7366004611acb565b6110ae565b3480156102c857600080fd5b5060ca5461022f906001600160a01b031681565b306001600160a01b037f000000000000000000000000000000000000000000000000000000000000000016141561032e5760405162461bcd60e51b8152600401610325906122ce565b60405180910390fd5b7f00000000000000000000000000000000000000000000000000000000000000006001600160a01b031661037760008051602061295f833981519152546001600160a01b031690565b6001600160a01b03161461039d5760405162461bcd60e51b81526004016103259061231a565b6103a6816111a3565b604080516000808252602082019092526103c2918391906112be565b50565b60006103d360335460ff1690565b156103f05760405162461bcd60e51b815260040161032590612366565b845186511461044d5760405162461bcd60e51b8152602060048201526024808201527f414d4f554e54535f414e445f544f4b454e535f4c454e475448535f4e4f545f4d604482015263082a886960e31b6064820152608401610325565b60c95460405163f9d9331d60e01b81526001600160a01b038981166004830152600092169063f9d9331d90602401602060405180830381865afa158015610498573d6000803e3d6000fd5b505050506040513d601f19601f820116820180604052508101906104bc9190612390565b90506001600160a01b03811661053e5760c954604051621849e360e61b81526001600160a01b038a811660048301529091169063061278c0906024016020604051808303816000875af1158015610517573d6000803e3d6000fd5b505050506040513d601f19601f8201168201806040525081019061053b9190612390565b90505b60005b86518110156105d057600088828151811061055e5761055e6123ad565b602002602001015111156105be576105be33838a8481518110610583576105836123ad565b60200260200101518a858151811061059d5761059d6123ad565b60200260200101516001600160a01b0316611429909392919063ffffffff16565b806105c8816123c3565b915050610541565b5083156105ec576105ec6001600160a01b038916338387611429565b604051632272658560e11b81526001600160a01b038216906344e4cb0a90610620908a908a908a908a908a906004016123ec565b6020604051808303816000875af115801561063f573d6000803e3d6000fd5b505050506040513d601f19601f820116820180604052508101906106639190612496565b9150826001600160a01b0316336001600160a01b0316896001600160a01b03167f7cfff908a4b583f36430b25d75964c458d8ede8a99bd61be750e97ee1b2f3a96856040516106b491815260200190565b60405180910390a4509695505050505050565b60ca54604051632474521560e21b81527f65d7a28e3265b37a6474929f336521b332c1681b933f6cb9f3376673440d862a60048201523360248201526001600160a01b03909116906391d1485490604401602060405180830381865afa158015610735573d6000803e3d6000fd5b505050506040513d601f19601f8201168201806040525081019061075991906124af565b6107995760405162461bcd60e51b815260206004820152601160248201527021a0a62622a92fa727aa2fa820aaa9a2a960791b6044820152606401610325565b6107a1611489565b565b60606000826001600160a01b03166338fff2d06040518163ffffffff1660e01b8152600401602060405180830381865afa1580156107e5573d6000803e3d6000fd5b505050506040513d601f19601f820116820180604052508101906108099190612496565b604051631f29a8cd60e31b81526004810182905290915073ba12222222228d8ba445958a75a0704d566bf2c89063f94d466890602401600060405180830381865afa15801561085c573d6000803e3d6000fd5b505050506040513d6000823e601f3d908101601f191682016040526108849190810190612527565b5090949350505050565b600061089a600161151c565b905080156108b2576000805461ff0019166101001790555b6108ba6115a9565b60ca80546001600160a01b038086166001600160a01b03199283161790925560c98054928516929091169190911790558015610930576000805461ff0019169055604051600181527f7f26b83ff96e1f2b6a682f133852f6798a09c465da95921460cefb38474024989060200160405180910390a15b505050565b306001600160a01b037f000000000000000000000000000000000000000000000000000000000000000016141561097e5760405162461bcd60e51b8152600401610325906122ce565b7f00000000000000000000000000000000000000000000000000000000000000006001600160a01b03166109c760008051602061295f833981519152546001600160a01b031690565b6001600160a01b0316146109ed5760405162461bcd60e51b81526004016103259061231a565b6109f6826111a3565b610a02828260016112be565b5050565b60c95460405163f9d9331d60e01b81526001600160a01b038381166004830152600092839291169063f9d9331d90602401602060405180830381865afa158015610a54573d6000803e3d6000fd5b505050506040513d601f19601f82011682018060405250810190610a789190612390565b90506001600160a01b03811615610afb57604051630103c92b60e01b81526001600160a01b038581166004830152821690630103c92b90602401602060405180830381865afa158015610acf573d6000803e3d6000fd5b505050506040513d601f19601f82011682018060405250810190610af39190612496565b915050610b01565b60009150505b92915050565b6000306001600160a01b037f00000000000000000000000000000000000000000000000000000000000000001614610ba75760405162461bcd60e51b815260206004820152603860248201527f555550535570677261646561626c653a206d757374206e6f742062652063616c60448201527f6c6564207468726f7567682064656c656761746563616c6c00000000000000006064820152608401610325565b5060008051602061295f83398151915290565b60ca54604051632474521560e21b81527f65d7a28e3265b37a6474929f336521b332c1681b933f6cb9f3376673440d862a60048201523360248201526001600160a01b03909116906391d1485490604401602060405180830381865afa158015610c28573d6000803e3d6000fd5b505050506040513d601f19601f82011682018060405250810190610c4c91906124af565b610c8c5760405162461bcd60e51b815260206004820152601160248201527021a0a62622a92fa727aa2fa820aaa9a2a960791b6044820152606401610325565b6107a16115d8565b60335460ff1615610cb75760405162461bcd60e51b815260040161032590612366565b60c95460405163f9d9331d60e01b81526001600160a01b038881166004830152600092169063f9d9331d90602401602060405180830381865afa158015610d02573d6000803e3d6000fd5b505050506040513d601f19601f82011682018060405250810190610d269190612390565b90506001600160a01b038116610d705760405162461bcd60e51b815260206004820152600f60248201526e4641524d5f4e4f545f45584953545360881b6044820152606401610325565b604051631f9e746960e11b81526001600160a01b03821690633f3ce8d290610da690899089908990899033908a906004016125f4565b600060405180830381600087803b158015610dc057600080fd5b505af1158015610dd4573d6000803e3d6000fd5b50505050816001600160a01b0316336001600160a01b0316886001600160a01b03167f3115d1449a7b732c986cba18244e897a450f61e1bb8d589cd2e69e6c8924f9f789604051610e2791815260200190565b60405180910390a450505050505050565b60335460ff1615610e5b5760405162461bcd60e51b815260040161032590612366565b60ca54604051632474521560e21b81527ffbd454f36a7e1a388bd6fc3ab10d434aa4578f811acbbcf33afb1c697486313c60048201523360248201526001600160a01b03909116906391d1485490604401602060405180830381865afa158015610ec9573d6000803e3d6000fd5b505050506040513d601f19601f82011682018060405250810190610eed91906124af565b610f325760405162461bcd60e51b815260206004820152601660248201527521a0a62622a92fa727aa2fa224a9aa2924a12aaa27a960511b6044820152606401610325565b60c95460405163f9d9331d60e01b81526001600160a01b038681166004830152600092169063f9d9331d90602401602060405180830381865afa158015610f7d573d6000803e3d6000fd5b505050506040513d601f19601f82011682018060405250810190610fa19190612390565b90506001600160a01b038116610feb5760405162461bcd60e51b815260206004820152600f60248201526e4641524d5f4e4f545f45584953545360881b6044820152606401610325565b60405163bedfe76f60e01b81526000906001600160a01b0383169063bedfe76f9061101e908890889088906004016127a4565b6020604051808303816000875af115801561103d573d6000803e3d6000fd5b505050506040513d601f19601f820116820180604052508101906110619190612496565b9050856001600160a01b03167fc1d32ad5cca423e7dda2123dbf8c482f8e77d00b631c06e903a47f2cec1334df8260405161109e91815260200190565b60405180910390a2505050505050565b60c95460405163f9d9331d60e01b81526001600160a01b038381166004830152600092839291169063f9d9331d90602401602060405180830381865afa1580156110fc573d6000803e3d6000fd5b505050506040513d601f19601f820116820180604052508101906111209190612390565b90506001600160a01b0381161561119a57806001600160a01b031663168a48226040518163ffffffff1660e01b8152600401602060405180830381865afa15801561116f573d6000803e3d6000fd5b505050506040513d601f19601f820116820180604052508101906111939190612496565b9392505050565b50600092915050565b60ca5460408051631d6c8e3f60e21b815290516001600160a01b03909216916391d148549183916375b238fc916004808201926020929091908290030181865afa1580156111f5573d6000803e3d6000fd5b505050506040513d601f19601f820116820180604052508101906112199190612496565b6040516001600160e01b031960e084901b1681526004810191909152336024820152604401602060405180830381865afa15801561125b573d6000803e3d6000fd5b505050506040513d601f19601f8201168201806040525081019061127f91906124af565b6103c25760405162461bcd60e51b815260206004820152601060248201526f21a0a62622a92fa727aa2fa0a226a4a760811b6044820152606401610325565b7f4910fdfa16fed3260ed0e7147f7cc6da11a60208b5b9406d12a635614ffd91435460ff16156112f15761093083611630565b826001600160a01b03166352d1902d6040518163ffffffff1660e01b8152600401602060405180830381865afa92505050801561134b575060408051601f3d908101601f1916820190925261134891810190612496565b60015b6113ae5760405162461bcd60e51b815260206004820152602e60248201527f45524331393637557067726164653a206e657720696d706c656d656e7461746960448201526d6f6e206973206e6f74205555505360901b6064820152608401610325565b60008051602061295f833981519152811461141d5760405162461bcd60e51b815260206004820152602960248201527f45524331393637557067726164653a20756e737570706f727465642070726f786044820152681a58589b195555525160ba1b6064820152608401610325565b506109308383836116cc565b604080516001600160a01b0385811660248301528416604482015260648082018490528251808303909101815260849091019091526020810180516001600160e01b03166323b872dd60e01b1790526114839085906116f1565b50505050565b60335460ff166114d25760405162461bcd60e51b815260206004820152601460248201527314185d5cd8589b194e881b9bdd081c185d5cd95960621b6044820152606401610325565b6033805460ff191690557f5db9ee0a495bf2e6ff9c91a7834c1ba4fdd244a5e8aa4e537bd38aeae4b073aa335b6040516001600160a01b03909116815260200160405180910390a1565b60008054610100900460ff1615611563578160ff16600114801561153f5750303b155b61155b5760405162461bcd60e51b815260040161032590612896565b506000919050565b60005460ff80841691161061158a5760405162461bcd60e51b815260040161032590612896565b506000805460ff191660ff92909216919091179055600190565b919050565b600054610100900460ff166115d05760405162461bcd60e51b8152600401610325906128e4565b6107a16117c3565b60335460ff16156115fb5760405162461bcd60e51b815260040161032590612366565b6033805460ff191660011790557f62e78cea01bee320cd4e420270b5ea74000d11b0c9f74754ebdbfc544b05a2586114ff3390565b6001600160a01b0381163b61169d5760405162461bcd60e51b815260206004820152602d60248201527f455243313936373a206e657720696d706c656d656e746174696f6e206973206e60448201526c1bdd08184818dbdb9d1c9858dd609a1b6064820152608401610325565b60008051602061295f83398151915280546001600160a01b0319166001600160a01b0392909216919091179055565b6116d5836117f6565b6000825111806116e25750805b15610930576114838383611836565b6000611746826040518060400160405280602081526020017f5361666545524332303a206c6f772d6c6576656c2063616c6c206661696c6564815250856001600160a01b031661192a9092919063ffffffff16565b805190915015610930578080602001905181019061176491906124af565b6109305760405162461bcd60e51b815260206004820152602a60248201527f5361666545524332303a204552433230206f7065726174696f6e20646964206e6044820152691bdd081cdd58d8d9595960b21b6064820152608401610325565b600054610100900460ff166117ea5760405162461bcd60e51b8152600401610325906128e4565b6033805460ff19169055565b6117ff81611630565b6040516001600160a01b038216907fbc7cd75a20ee27fd9adebab32041f755214dbc6bffa90cc0225b39da2e5c2d3b90600090a250565b60606001600160a01b0383163b61189e5760405162461bcd60e51b815260206004820152602660248201527f416464726573733a2064656c65676174652063616c6c20746f206e6f6e2d636f6044820152651b9d1c9858dd60d21b6064820152608401610325565b600080846001600160a01b0316846040516118b9919061292f565b600060405180830381855af49150503d80600081146118f4576040519150601f19603f3d011682016040523d82523d6000602084013e6118f9565b606091505b5091509150611921828260405180606001604052806027815260200161297f60279139611941565b95945050505050565b6060611939848460008561197a565b949350505050565b60608315611950575081611193565b8251156119605782518084602001fd5b8160405162461bcd60e51b8152600401610325919061294b565b6060824710156119db5760405162461bcd60e51b815260206004820152602660248201527f416464726573733a20696e73756666696369656e742062616c616e636520666f6044820152651c8818d85b1b60d21b6064820152608401610325565b6001600160a01b0385163b611a325760405162461bcd60e51b815260206004820152601d60248201527f416464726573733a2063616c6c20746f206e6f6e2d636f6e74726163740000006044820152606401610325565b600080866001600160a01b03168587604051611a4e919061292f565b60006040518083038185875af1925050503d8060008114611a8b576040519150601f19603f3d011682016040523d82523d6000602084013e611a90565b606091505b5091509150611aa0828286611941565b979650505050505050565b6001600160a01b03811681146103c257600080fd5b80356115a481611aab565b600060208284031215611add57600080fd5b813561119381611aab565b634e487b7160e01b600052604160045260246000fd5b60405160a081016001600160401b0381118282101715611b2057611b20611ae8565b60405290565b604051601f8201601f191681016001600160401b0381118282101715611b4e57611b4e611ae8565b604052919050565b60006001600160401b03821115611b6f57611b6f611ae8565b5060051b60200190565b600082601f830112611b8a57600080fd5b81356020611b9f611b9a83611b56565b611b26565b82815260059290921b84018101918181019086841115611bbe57600080fd5b8286015b84811015611be2578035611bd581611aab565b8352918301918301611bc2565b509695505050505050565b60008060008060008060c08789031215611c0657600080fd5b8635611c1181611aab565b95506020878101356001600160401b0380821115611c2e57600080fd5b818a0191508a601f830112611c4257600080fd5b8135611c50611b9a82611b56565b81815260059190911b8301840190848101908d831115611c6f57600080fd5b938501935b82851015611c8d57843582529385019390850190611c74565b9950505060408a0135925080831115611ca557600080fd5b5050611cb389828a01611b79565b9450506060870135925060808701359150611cd060a08801611ac0565b90509295509295509295565b6020808252825182820181905260009190848201906040850190845b81811015611d1d5783516001600160a01b031683529284019291840191600101611cf8565b50909695505050505050565b60008060408385031215611d3c57600080fd5b8235611d4781611aab565b91506020830135611d5781611aab565b809150509250929050565b600082601f830112611d7357600080fd5b81356001600160401b03811115611d8c57611d8c611ae8565b611d9f601f8201601f1916602001611b26565b818152846020838601011115611db457600080fd5b816020850160208301376000918101602001919091529392505050565b60008060408385031215611de457600080fd5b8235611def81611aab565b915060208301356001600160401b03811115611e0a57600080fd5b611e1685828601611d62565b9150509250929050565b80151581146103c257600080fd5b80356115a481611e20565b60008060008060008060a08789031215611e5257600080fd5b8635611e5d81611aab565b95506020870135945060408701356001600160401b0380821115611e8057600080fd5b818901915089601f830112611e9457600080fd5b813581811115611ea357600080fd5b8a60208260051b8501011115611eb857600080fd5b602083019650809550505050611ed060608801611e2e565b9150611cd060808801611ac0565b600082601f830112611eef57600080fd5b81356020611eff611b9a83611b56565b828152600592831b8501820192828201919087851115611f1e57600080fd5b8387015b85811015611fbd5780356001600160401b03811115611f415760008081fd5b8801603f81018a13611f535760008081fd5b858101356040611f65611b9a83611b56565b82815291851b8301810191888101908d841115611f825760008081fd5b938201935b83851015611fac5784359250611f9c83611aab565b8282529389019390890190611f87565b885250505093850193508401611f22565b5090979650505050505050565b600082601f830112611fdb57600080fd5b81356020611feb611b9a83611b56565b828152600592831b850182019282820191908785111561200a57600080fd5b8387015b85811015611fbd5780356001600160401b0381111561202d5760008081fd5b8801603f81018a1361203f5760008081fd5b858101356040612051611b9a83611b56565b82815291851b8301810191888101908d84111561206e5760008081fd5b938201935b8385101561208c57843582529389019390890190612073565b88525050509385019350840161200e565b600080600080608085870312156120b357600080fd5b6120bd8535611aab565b843593506001600160401b03602086013511156120d957600080fd5b6020850135850186601f8201126120ef57600080fd5b6120fc611b9a8235611b56565b81358082526020808301929160051b84010189101561211a57600080fd5b602083015b6020843560051b85010181101561226c576001600160401b038135111561214557600080fd5b89603f82358601011261215757600080fd5b61216a611b9a6020833587010135611b56565b81358501602081810135808452908301929160059190911b016040018c101561219257600080fd5b604083358701015b83358701602081013560051b0160400181101561225c576001600160401b03813511156121c657600080fd5b60a0843588018235018e03603f190112156121e057600080fd5b6121e8611afe565b843588018235016040818101358352606080830135602085015260808301359184019190915260a0820135908301526001600160401b0360c090910135111561223057600080fd5b6122498e86358a0184350160c081013501604001611d62565b608082015283526020928301920161219a565b508452506020928301920161211f565b50945050506001600160401b036040860135111561228957600080fd5b6122998660408701358701611ede565b91506001600160401b03606086013511156122b357600080fd5b6122c38660608701358701611fca565b905092959194509250565b6020808252602c908201527f46756e6374696f6e206d7573742062652063616c6c6564207468726f7567682060408201526b19195b1959d85d1958d85b1b60a21b606082015260800190565b6020808252602c908201527f46756e6374696f6e206d7573742062652063616c6c6564207468726f7567682060408201526b6163746976652070726f787960a01b606082015260800190565b60208082526010908201526f14185d5cd8589b194e881c185d5cd95960821b604082015260600190565b6000602082840312156123a257600080fd5b815161119381611aab565b634e487b7160e01b600052603260045260246000fd5b60006000198214156123e557634e487b7160e01b600052601160045260246000fd5b5060010190565b60a0808252865190820181905260009060209060c0840190828a01845b8281101561242557815184529284019290840190600101612409565b5050508381038285015287518082528883019183019060005b818110156124635783516001600160a01b03168352928401929184019160010161243e565b505080935050505084604083015283606083015261248c60808301846001600160a01b03169052565b9695505050505050565b6000602082840312156124a857600080fd5b5051919050565b6000602082840312156124c157600080fd5b815161119381611e20565b600082601f8301126124dd57600080fd5b815160206124ed611b9a83611b56565b82815260059290921b8401810191818101908684111561250c57600080fd5b8286015b84811015611be25780518352918301918301612510565b60008060006060848603121561253c57600080fd5b83516001600160401b038082111561255357600080fd5b818601915086601f83011261256757600080fd5b81516020612577611b9a83611b56565b82815260059290921b8401810191818101908a84111561259657600080fd5b948201945b838610156125bd5785516125ae81611aab565b8252948201949082019061259b565b918901519197509093505050808211156125d657600080fd5b506125e3868287016124cc565b925050604084015190509250925092565b86815260a060208201819052810185905260006001600160fb1b0386111561261b57600080fd5b8560051b808860c0850137600090830160c0019081529415156040830152506001600160a01b03928316606082015291166080909101529392505050565b60005b8381101561267457818101518382015260200161265c565b838111156114835750506000910152565b6000815180845261269d816020860160208601612659565b601f01601f19169290920160200192915050565b600081518084526020808501808196508360051b810191508286016000805b86811015612728578385038a52825180518087529087019087870190845b818110156127135783516001600160a01b0316835292890192918901916001016126ee565b50509a87019a955050918501916001016126d0565b509298975050505050505050565b600081518084526020808501808196508360051b810191508286016000805b86811015612728578385038a52825180518087529087019087870190845b8181101561278f57835183529289019291890191600101612773565b50509a87019a95505091850191600101612755565b60006060808301818452808751808352608092508286019150828160051b8701016020808b0160005b8481101561286b57898403607f19018652815180518086529084019084860190600581901b8701860160005b8281101561285557888203601f190184528451805183528881015189840152604080820151908401528d8101518e8401528c015160a08d840181905261284181850183612685565b968a0196958a0195935050506001016127f9565b50988601989650505091830191506001016127cd565b50508782039088015261287e818a6126b1565b945050505050828103604084015261248c8185612736565b6020808252602e908201527f496e697469616c697a61626c653a20636f6e747261637420697320616c72656160408201526d191e481a5b9a5d1a585b1a5e995960921b606082015260800190565b6020808252602b908201527f496e697469616c697a61626c653a20636f6e7472616374206973206e6f74206960408201526a6e697469616c697a696e6760a81b606082015260800190565b60008251612941818460208701612659565b9190910192915050565b602081526000611193602083018461268556fe360894a13ba1a3210667c828492db98dca3e2076cc3735a920a3ca505d382bbc416464726573733a206c6f772d6c6576656c2064656c65676174652063616c6c206661696c6564a264697066735822122024c45cbdc60ab7c30ce4f757d3af4a1f6349fa5f0f5b5d99f164fd8daac6a70c64736f6c634300080a0033",
  "immutableReferences": {
    "561": [
      {
        "length": 32,
        "start": 743
      },
      {
        "length": 32,
        "start": 816
      },
      {
        "length": 32,
        "start": 2368
      },
      {
        "length": 32,
        "start": 2432
      },
      {
        "length": 32,
        "start": 2836
      }
    ]
  },
  "source": "// SPDX-License-Identifier: MIT\r\npragma solidity 0.8.10;\r\n\r\nimport {IUnoFarmBalancer as Farm} from './interfaces/IUnoFarmBalancer.sol'; \r\nimport '../../interfaces/IUnoFarmFactory.sol';\r\nimport '../../interfaces/IUnoAccessManager.sol'; \r\nimport '../../interfaces/IVault.sol'; \r\nimport \"../../interfaces/IBasePool.sol\";\r\nimport '@openzeppelin/contracts-upgradeable/token/ERC20/IERC20Upgradeable.sol';\r\nimport '@openzeppelin/contracts-upgradeable/token/ERC20/utils/SafeERC20Upgradeable.sol';\r\nimport '@openzeppelin/contracts-upgradeable/proxy/utils/Initializable.sol';\r\nimport '@openzeppelin/contracts-upgradeable/security/PausableUpgradeable.sol';\r\nimport '@openzeppelin/contracts-upgradeable/proxy/utils/UUPSUpgradeable.sol';\r\n\r\ncontract UnoAssetRouterBalancer is Initializable, PausableUpgradeable, UUPSUpgradeable {\r\n    using SafeERC20Upgradeable for IERC20Upgradeable;\r\n\r\n    /**\r\n     * @dev Contract Variables:\r\n     * farmFactory - The contract that deploys new Farms and links them to {lpPool}s.\r\n     * accessManager - Role manager contract.\r\n     */\r\n    IUnoFarmFactory public farmFactory;\r\n    IUnoAccessManager public accessManager;\r\n    bytes32 private constant DISTRIBUTOR_ROLE = keccak256('DISTRIBUTOR_ROLE');\r\n    bytes32 private constant PAUSER_ROLE = keccak256('PAUSER_ROLE');\r\n    IVault constant private Vault = IVault(0xBA12222222228d8Ba445958a75a0704d566BF2C8);\r\n\r\n    event Deposit(address indexed lpPool, address indexed from, address indexed recipient, uint256 amount);\r\n    event Withdraw(address indexed lpPool, address indexed from, address indexed recipient, uint256 amount);\r\n    event Distribute(address indexed lpPool, uint256 reward);\r\n\r\n    modifier onlyDistributor(){\r\n        require(accessManager.hasRole(DISTRIBUTOR_ROLE, msg.sender), 'CALLER_NOT_DISTRIBUTOR');\r\n        _;\r\n    }\r\n    modifier onlyPauser(){\r\n        require(accessManager.hasRole(PAUSER_ROLE, msg.sender), 'CALLER_NOT_PAUSER');\r\n        _;\r\n    }\r\n    modifier onlyAdmin(){\r\n        require(accessManager.hasRole(accessManager.ADMIN_ROLE(), msg.sender), 'CALLER_NOT_ADMIN');\r\n        _;\r\n    }\r\n\r\n    // ============ Methods ============\r\n\r\n    function initialize(address _accessManager, address _farmFactory) external initializer{\r\n        __Pausable_init();\r\n        accessManager = IUnoAccessManager(_accessManager);\r\n        farmFactory = IUnoFarmFactory(_farmFactory);\r\n    }\r\n\r\n    /**\r\n     * @dev Deposits tokens in the given pool. Creates new Farm contract if there isn't one deployed for the {lpPool} and deposits tokens in it.\r\n     * @param lpPool - Address of the pool to deposit tokens in.\r\n     * @param amounts - Amounts of tokens to deposit.\r\n     * @param tokens - Tokens to deposit.\r\n     * @param minAmountLP - Minimum LP the user will receive from {{tokens}} deposit.\r\n     * @param amountLP - Additional amount of LP tokens to deposit.\r\n     * @param recipient - Address which will recieve the deposit.\r\n\r\n     * @return liquidity - Total liquidity sent to the farm (in lpTokens).\r\n     */\r\n    function deposit(address lpPool, uint256[] memory amounts, address[] memory tokens, uint256 minAmountLP, uint256 amountLP, address recipient) external whenNotPaused returns(uint256 liquidity){\r\n        require (amounts.length == tokens.length, 'AMOUNTS_AND_TOKENS_LENGTHS_NOT_MATCH');\r\n\r\n        Farm farm = Farm(farmFactory.Farms(lpPool));\r\n        if(farm == Farm(address(0))){\r\n            farm = Farm(farmFactory.createFarm(lpPool));\r\n        }\r\n\r\n        for (uint256 i = 0; i < tokens.length; i++) {\r\n            if(amounts[i] > 0){\r\n                IERC20Upgradeable(tokens[i]).safeTransferFrom(msg.sender, address(farm), amounts[i]);\r\n            }\r\n        }\r\n        if(amountLP > 0){\r\n            IERC20Upgradeable(lpPool).safeTransferFrom(msg.sender, address(farm), amountLP);\r\n        }\r\n        \r\n        liquidity = farm.deposit(amounts, tokens, minAmountLP, amountLP, recipient);\r\n        emit Deposit(lpPool, msg.sender, recipient, liquidity); \r\n    }\r\n\r\n    /** \r\n     * @dev Withdraws tokens from the given pool. \r\n     * @param lpPool - LP pool to withdraw from.\r\n     * @param amount - LP amount to withdraw. \r\n     * @param minAmountsOut - Minimum token amounts the user will recieve.\r\n     * @param withdrawLP - True: Withdraw in LP tokens, False: Withdraw in normal tokens.\r\n     * @param recipient - The address which will recieve tokens.\r\n     */ \r\n    function withdraw(address lpPool, uint256 amount, uint256[] calldata minAmountsOut, bool withdrawLP, address recipient) external whenNotPaused { \r\n        Farm farm = Farm(farmFactory.Farms(lpPool));\r\n        require(farm != Farm(address(0)),'FARM_NOT_EXISTS');\r\n        \r\n        farm.withdraw(amount, minAmountsOut, withdrawLP, msg.sender, recipient); \r\n        emit Withdraw(lpPool, msg.sender, recipient, amount);  \r\n    }\r\n\r\n    /**\r\n     * @dev Distributes tokens between users for a single {Farms[lpPool]}.\r\n     * @param lpPool - The pool to distribute. \r\n     * @param swaps - The data used to swap reward tokens for the needed tokens.\r\n     * @param assets - The data used to swap reward tokens for the needed tokens.\r\n     * @param limits - The data used to swap reward tokens for the needed tokens.\r\n     *\r\n     * Note: This function can only be called by the distributor.\r\n     */\r\n    function distribute(\r\n        address lpPool,\r\n        IVault.BatchSwapStep[][] memory swaps,\r\n        IAsset[][] memory assets,\r\n        int256[][] memory limits\r\n    ) external whenNotPaused onlyDistributor {\r\n        Farm farm = Farm(farmFactory.Farms(lpPool));\r\n        require(farm != Farm(address(0)), 'FARM_NOT_EXISTS');\r\n\r\n        uint256 reward = farm.distribute(swaps, assets, limits);\r\n        emit Distribute(lpPool, reward);\r\n    }\r\n\r\n    /**\r\n     * @dev Returns LP tokens staked by the {_address} for the given {lpPool}.\r\n     * @param _address - The address to check stakes for.\r\n     * @param lpPool - LP pool to check stakes in.\r\n\r\n     * @return Total user stake(in LP tokens).\r\n     */\r\n   function userStake(address _address, address lpPool) external view returns(uint256){\r\n        Farm farm = Farm(farmFactory.Farms(lpPool));\r\n        if (farm != Farm(address(0))) {\r\n            return farm.userBalance(_address);\r\n        }\r\n        return 0;\r\n    }\r\n\r\n    /**\r\n     * @dev Returns total amount locked in the pool. Doesn't take pending rewards into account.\r\n     * @param lpPool - LP pool to check total deposits in.\r\n\r\n     * @return Total deposits (in LP tokens).\r\n     */\r\n    function totalDeposits(address lpPool) external view returns (uint256) {\r\n        Farm farm = Farm(farmFactory.Farms(lpPool));\r\n        if (farm != Farm(address(0))) {\r\n            return farm.getTotalDeposits();\r\n        }\r\n        return 0;\r\n    }\r\n\r\n    /**\r\n     * @dev Returns addresses of tokens in {lpPool}.\r\n     * @param lpPool - LP pool to check tokens in.\r\n\r\n     * @return tokens - Token address.\r\n     */  \r\n    function getTokens(address lpPool) external view returns(IERC20[] memory tokens){\r\n        bytes32 poolId = IBasePool(lpPool).getPoolId();\r\n        (tokens, , ) = Vault.getPoolTokens(poolId);\r\n    }\r\n \r\n    function pause() external onlyPauser {\r\n        _pause();\r\n    }\r\n \r\n    function unpause() external onlyPauser {\r\n        _unpause();\r\n    }\r\n\r\n    function _authorizeUpgrade(address) internal override onlyAdmin {\r\n\r\n    }\r\n}\r\n",
  "sourcePath": "C:\\Users\\jugli\\Desktop\\uno\\uno-contracts-branch\\contracts\\apps\\balancer\\UnoAssetRouterBalancer.sol",
  "compiler": {
    "name": "solc",
    "version": "0.8.10+commit.fc410830.Emscripten.clang"
  },
  "schemaVersion": "3.4.7",
  "updatedAt": "2022-06-15T11:50:45.179Z",
  "devdoc": {
    "kind": "dev",
    "methods": {
      "deposit(address,uint256[],address[],uint256,uint256,address)": {
        "details": "Deposits tokens in the given pool. Creates new Farm contract if there isn't one deployed for the {lpPool} and deposits tokens in it.",
        "params": {
          "amountLP": "- Additional amount of LP tokens to deposit.",
          "amounts": "- Amounts of tokens to deposit.",
          "lpPool": "- Address of the pool to deposit tokens in.",
          "minAmountLP": "- Minimum LP the user will receive from {{tokens}} deposit.",
          "recipient": "- Address which will recieve the deposit.",
          "tokens": "- Tokens to deposit."
        },
        "returns": {
          "liquidity": "- Total liquidity sent to the farm (in lpTokens)."
        }
      },
      "distribute(address,(bytes32,uint256,uint256,uint256,bytes)[][],address[][],int256[][])": {
        "details": "Distributes tokens between users for a single {Farms[lpPool]}.",
        "params": {
          "assets": "- The data used to swap reward tokens for the needed tokens.",
          "limits": "- The data used to swap reward tokens for the needed tokens. Note: This function can only be called by the distributor.",
          "lpPool": "- The pool to distribute. ",
          "swaps": "- The data used to swap reward tokens for the needed tokens."
        }
      },
      "getTokens(address)": {
        "details": "Returns addresses of tokens in {lpPool}.",
        "params": {
          "lpPool": "- LP pool to check tokens in."
        },
        "returns": {
          "tokens": "- Token address."
        }
      },
      "paused()": {
        "details": "Returns true if the contract is paused, and false otherwise."
      },
      "proxiableUUID()": {
        "details": "Implementation of the ERC1822 {proxiableUUID} function. This returns the storage slot used by the implementation. It is used to validate that the this implementation remains valid after an upgrade. IMPORTANT: A proxy pointing at a proxiable contract should not be considered proxiable itself, because this risks bricking a proxy that upgrades to it, by delegating to itself until out of gas. Thus it is critical that this function revert if invoked through a proxy. This is guaranteed by the `notDelegated` modifier."
      },
      "totalDeposits(address)": {
        "details": "Returns total amount locked in the pool. Doesn't take pending rewards into account.",
        "params": {
          "lpPool": "- LP pool to check total deposits in."
        },
        "returns": {
          "_0": "Total deposits (in LP tokens)."
        }
      },
      "upgradeTo(address)": {
        "details": "Upgrade the implementation of the proxy to `newImplementation`. Calls {_authorizeUpgrade}. Emits an {Upgraded} event."
      },
      "upgradeToAndCall(address,bytes)": {
        "details": "Upgrade the implementation of the proxy to `newImplementation`, and subsequently execute the function call encoded in `data`. Calls {_authorizeUpgrade}. Emits an {Upgraded} event."
      },
      "userStake(address,address)": {
        "details": "Returns LP tokens staked by the {_address} for the given {lpPool}.",
        "params": {
          "_address": "- The address to check stakes for.",
          "lpPool": "- LP pool to check stakes in."
        },
        "returns": {
          "_0": "Total user stake(in LP tokens)."
        }
      },
      "withdraw(address,uint256,uint256[],bool,address)": {
        "details": "Withdraws tokens from the given pool. ",
        "params": {
          "amount": "- LP amount to withdraw. ",
          "lpPool": "- LP pool to withdraw from.",
          "minAmountsOut": "- Minimum token amounts the user will recieve.",
          "recipient": "- The address which will recieve tokens.",
          "withdrawLP": "- True: Withdraw in LP tokens, False: Withdraw in normal tokens."
        }
      }
    },
    "stateVariables": {
      "farmFactory": {
        "details": "Contract Variables: farmFactory - The contract that deploys new Farms and links them to {lpPool}s. accessManager - Role manager contract."
      }
    },
    "version": 1
  },
  "userdoc": {
    "kind": "user",
    "methods": {},
    "version": 1
  }
}