{
  "contractName": "UnoAssetRouterQuickswapDual",
  "abi": [
    {
      "anonymous": false,
      "inputs": [
        {
          "indexed": false,
          "internalType": "address",
          "name": "previousAdmin",
          "type": "address"
        },
        {
          "indexed": false,
          "internalType": "address",
          "name": "newAdmin",
          "type": "address"
        }
      ],
      "name": "AdminChanged",
      "type": "event"
    },
    {
      "anonymous": false,
      "inputs": [
        {
          "indexed": true,
          "internalType": "address",
          "name": "beacon",
          "type": "address"
        }
      ],
      "name": "BeaconUpgraded",
      "type": "event"
    },
    {
      "anonymous": false,
      "inputs": [
        {
          "indexed": true,
          "internalType": "address",
          "name": "lpPool",
          "type": "address"
        },
        {
          "indexed": true,
          "internalType": "address",
          "name": "from",
          "type": "address"
        },
        {
          "indexed": true,
          "internalType": "address",
          "name": "recipient",
          "type": "address"
        },
        {
          "indexed": false,
          "internalType": "uint256",
          "name": "amount",
          "type": "uint256"
        }
      ],
      "name": "Deposit",
      "type": "event"
    },
    {
      "anonymous": false,
      "inputs": [
        {
          "indexed": true,
          "internalType": "address",
          "name": "lpPool",
          "type": "address"
        },
        {
          "indexed": false,
          "internalType": "uint256",
          "name": "reward",
          "type": "uint256"
        }
      ],
      "name": "Distribute",
      "type": "event"
    },
    {
      "anonymous": false,
      "inputs": [
        {
          "indexed": false,
          "internalType": "uint8",
          "name": "version",
          "type": "uint8"
        }
      ],
      "name": "Initialized",
      "type": "event"
    },
    {
      "anonymous": false,
      "inputs": [
        {
          "indexed": false,
          "internalType": "address",
          "name": "account",
          "type": "address"
        }
      ],
      "name": "Paused",
      "type": "event"
    },
    {
      "anonymous": false,
      "inputs": [
        {
          "indexed": false,
          "internalType": "address",
          "name": "account",
          "type": "address"
        }
      ],
      "name": "Unpaused",
      "type": "event"
    },
    {
      "anonymous": false,
      "inputs": [
        {
          "indexed": true,
          "internalType": "address",
          "name": "implementation",
          "type": "address"
        }
      ],
      "name": "Upgraded",
      "type": "event"
    },
    {
      "anonymous": false,
      "inputs": [
        {
          "indexed": true,
          "internalType": "address",
          "name": "lpPool",
          "type": "address"
        },
        {
          "indexed": true,
          "internalType": "address",
          "name": "from",
          "type": "address"
        },
        {
          "indexed": true,
          "internalType": "address",
          "name": "recipient",
          "type": "address"
        },
        {
          "indexed": false,
          "internalType": "uint256",
          "name": "amount",
          "type": "uint256"
        }
      ],
      "name": "Withdraw",
      "type": "event"
    },
    {
      "inputs": [],
      "name": "accessManager",
      "outputs": [
        {
          "internalType": "contract IUnoAccessManager",
          "name": "",
          "type": "address"
        }
      ],
      "stateMutability": "view",
      "type": "function"
    },
    {
      "inputs": [],
      "name": "farmFactory",
      "outputs": [
        {
          "internalType": "contract IUnoFarmFactory",
          "name": "",
          "type": "address"
        }
      ],
      "stateMutability": "view",
      "type": "function"
    },
    {
      "inputs": [],
      "name": "paused",
      "outputs": [
        {
          "internalType": "bool",
          "name": "",
          "type": "bool"
        }
      ],
      "stateMutability": "view",
      "type": "function"
    },
    {
      "inputs": [],
      "name": "proxiableUUID",
      "outputs": [
        {
          "internalType": "bytes32",
          "name": "",
          "type": "bytes32"
        }
      ],
      "stateMutability": "view",
      "type": "function"
    },
    {
      "inputs": [
        {
          "internalType": "address",
          "name": "newImplementation",
          "type": "address"
        }
      ],
      "name": "upgradeTo",
      "outputs": [],
      "stateMutability": "nonpayable",
      "type": "function"
    },
    {
      "inputs": [
        {
          "internalType": "address",
          "name": "newImplementation",
          "type": "address"
        },
        {
          "internalType": "bytes",
          "name": "data",
          "type": "bytes"
        }
      ],
      "name": "upgradeToAndCall",
      "outputs": [],
      "stateMutability": "payable",
      "type": "function"
    },
    {
      "inputs": [
        {
          "internalType": "address",
          "name": "_accessManager",
          "type": "address"
        },
        {
          "internalType": "address",
          "name": "_farmFactory",
          "type": "address"
        }
      ],
      "name": "initialize",
      "outputs": [],
      "stateMutability": "nonpayable",
      "type": "function"
    },
    {
      "inputs": [
        {
          "internalType": "uint256",
          "name": "amountA",
          "type": "uint256"
        },
        {
          "internalType": "uint256",
          "name": "amountB",
          "type": "uint256"
        },
        {
          "internalType": "uint256",
          "name": "amountAMin",
          "type": "uint256"
        },
        {
          "internalType": "uint256",
          "name": "amountBMin",
          "type": "uint256"
        },
        {
          "internalType": "uint256",
          "name": "amountLP",
          "type": "uint256"
        },
        {
          "internalType": "address",
          "name": "lpStakingPool",
          "type": "address"
        },
        {
          "internalType": "address",
          "name": "recipient",
          "type": "address"
        }
      ],
      "name": "deposit",
      "outputs": [
        {
          "internalType": "uint256",
          "name": "sentA",
          "type": "uint256"
        },
        {
          "internalType": "uint256",
          "name": "sentB",
          "type": "uint256"
        },
        {
          "internalType": "uint256",
          "name": "liquidity",
          "type": "uint256"
        }
      ],
      "stateMutability": "nonpayable",
      "type": "function"
    },
    {
      "inputs": [
        {
          "internalType": "address",
          "name": "lpStakingPool",
          "type": "address"
        },
        {
          "internalType": "uint256",
          "name": "amount",
          "type": "uint256"
        },
        {
          "internalType": "uint256",
          "name": "amountAMin",
          "type": "uint256"
        },
        {
          "internalType": "uint256",
          "name": "amountBMin",
          "type": "uint256"
        },
        {
          "internalType": "bool",
          "name": "withdrawLP",
          "type": "bool"
        },
        {
          "internalType": "address",
          "name": "recipient",
          "type": "address"
        }
      ],
      "name": "withdraw",
      "outputs": [
        {
          "internalType": "uint256",
          "name": "amountA",
          "type": "uint256"
        },
        {
          "internalType": "uint256",
          "name": "amountB",
          "type": "uint256"
        }
      ],
      "stateMutability": "nonpayable",
      "type": "function"
    },
    {
      "inputs": [
        {
          "internalType": "address",
          "name": "lpStakingPool",
          "type": "address"
        },
        {
          "internalType": "address[]",
          "name": "rewardTokenAToTokenARoute",
          "type": "address[]"
        },
        {
          "internalType": "address[]",
          "name": "rewardTokenAToTokenBRoute",
          "type": "address[]"
        },
        {
          "internalType": "address[]",
          "name": "rewardTokenBToTokenARoute",
          "type": "address[]"
        },
        {
          "internalType": "address[]",
          "name": "rewardTokenBToTokenBRoute",
          "type": "address[]"
        },
        {
          "internalType": "uint256[4]",
          "name": "amountsOutMin",
          "type": "uint256[4]"
        }
      ],
      "name": "distribute",
      "outputs": [],
      "stateMutability": "nonpayable",
      "type": "function"
    },
    {
      "inputs": [
        {
          "internalType": "address",
          "name": "_address",
          "type": "address"
        },
        {
          "internalType": "address",
          "name": "lpStakingPool",
          "type": "address"
        }
      ],
      "name": "userStake",
      "outputs": [
        {
          "internalType": "uint256",
          "name": "stakeLP",
          "type": "uint256"
        },
        {
          "internalType": "uint256",
          "name": "stakeA",
          "type": "uint256"
        },
        {
          "internalType": "uint256",
          "name": "stakeB",
          "type": "uint256"
        }
      ],
      "stateMutability": "view",
      "type": "function"
    },
    {
      "inputs": [
        {
          "internalType": "address",
          "name": "lpStakingPool",
          "type": "address"
        }
      ],
      "name": "totalDeposits",
      "outputs": [
        {
          "internalType": "uint256",
          "name": "totalDepositsLP",
          "type": "uint256"
        },
        {
          "internalType": "uint256",
          "name": "totalDepositsA",
          "type": "uint256"
        },
        {
          "internalType": "uint256",
          "name": "totalDepositsB",
          "type": "uint256"
        }
      ],
      "stateMutability": "view",
      "type": "function"
    },
    {
      "inputs": [],
      "name": "pause",
      "outputs": [],
      "stateMutability": "nonpayable",
      "type": "function"
    },
    {
      "inputs": [],
      "name": "unpause",
      "outputs": [],
      "stateMutability": "nonpayable",
      "type": "function"
    }
  ],
  "bytecode": "0x60a06040523060805234801561001457600080fd5b5060805161253261004c600039600081816107d10152818161081101528181610a3401528181610a740152610c7801526125326000f3fe6080604052600436106100dd5760003560e01c806352d1902d1161007f5780638456cb59116100595780638456cb591461025f5780638540af5714610274578063e940325614610294578063fdcb6068146102b457600080fd5b806352d1902d146101e15780635c975abb146102045780636d25e1751461022757600080fd5b80633f4ba83a116100bb5780633f4ba83a14610179578063485cc9551461018e5780634f1ef286146101ae57806351bdca3e146101c157600080fd5b80631666768a146100e25780631ec5aa3e146101225780633659cfe614610157575b600080fd5b3480156100ee57600080fd5b506101026100fd366004611d4e565b6102d4565b604080519384526020840192909252908201526060015b60405180910390f35b34801561012e57600080fd5b5061014261013d366004611dc5565b6105fe565b60408051928352602083019190915201610119565b34801561016357600080fd5b50610177610172366004611e2c565b6107c6565b005b34801561018557600080fd5b506101776108a6565b34801561019a57600080fd5b506101776101a9366004611e49565b610982565b6101776101bc366004611ec9565b610a29565b3480156101cd57600080fd5b506101026101dc366004611e49565b610afa565b3480156101ed57600080fd5b506101f6610c6b565b604051908152602001610119565b34801561021057600080fd5b5060335460ff166040519015158152602001610119565b34801561023357600080fd5b5060c954610247906001600160a01b031681565b6040516001600160a01b039091168152602001610119565b34801561026b57600080fd5b50610177610d1e565b34801561028057600080fd5b5061017761028f36600461202b565b610df8565b3480156102a057600080fd5b506101026102af366004611e2c565b611080565b3480156102c057600080fd5b5060ca54610247906001600160a01b031681565b60008060006102e560335460ff1690565b1561030b5760405162461bcd60e51b815260040161030290612112565b60405180910390fd5b60c95460405163f9d9331d60e01b81526001600160a01b038781166004830152600092169063f9d9331d90602401602060405180830381865afa158015610356573d6000803e3d6000fd5b505050506040513d601f19601f8201168201806040525081019061037a919061213c565b90506001600160a01b0381166103fc5760c954604051621849e360e61b81526001600160a01b0388811660048301529091169063061278c0906024016020604051808303816000875af11580156103d5573d6000803e3d6000fd5b505050506040513d601f19601f820116820180604052508101906103f9919061213c565b90505b8a1561047b5761047b33828d846001600160a01b0316630fc63d106040518163ffffffff1660e01b8152600401602060405180830381865afa158015610446573d6000803e3d6000fd5b505050506040513d601f19601f8201168201806040525081019061046a919061213c565b6001600160a01b03169291906111e9565b89156104c5576104c533828c846001600160a01b0316635f64b55b6040518163ffffffff1660e01b8152600401602060405180830381865afa158015610446573d6000803e3d6000fd5b861561050f5761050f338289846001600160a01b031663452ed4f16040518163ffffffff1660e01b8152600401602060405180830381865afa158015610446573d6000803e3d6000fd5b604051630b333b4560e11b8152600481018c9052602481018b9052604481018a905260648101899052608481018890523360a48201526001600160a01b0386811660c4830152821690631666768a9060e4016060604051808303816000875af1158015610580573d6000803e3d6000fd5b505050506040513d601f19601f820116820180604052508101906105a49190612159565b60405181815292965090945092506001600160a01b038681169133918916907f7cfff908a4b583f36430b25d75964c458d8ede8a99bd61be750e97ee1b2f3a969060200160405180910390a4509750975097945050505050565b60008061060d60335460ff1690565b1561062a5760405162461bcd60e51b815260040161030290612112565b60c95460405163f9d9331d60e01b81526001600160a01b038a81166004830152600092169063f9d9331d90602401602060405180830381865afa158015610675573d6000803e3d6000fd5b505050506040513d601f19601f82011682018060405250810190610699919061213c565b90506001600160a01b0381166106e35760405162461bcd60e51b815260206004820152600f60248201526e4641524d5f4e4f545f45584953545360881b6044820152606401610302565b604051630f62d51f60e11b815233600482015260248101899052604481018890526064810187905285151560848201526001600160a01b0385811660a4830152821690631ec5aa3e9060c40160408051808303816000875af115801561074d573d6000803e3d6000fd5b505050506040513d601f19601f820116820180604052508101906107719190612187565b6040518a815291945092506001600160a01b038581169133918c16907f3115d1449a7b732c986cba18244e897a450f61e1bb8d589cd2e69e6c8924f9f79060200160405180910390a450965096945050505050565b306001600160a01b037f000000000000000000000000000000000000000000000000000000000000000016141561080f5760405162461bcd60e51b8152600401610302906121ab565b7f00000000000000000000000000000000000000000000000000000000000000006001600160a01b03166108586000805160206124b6833981519152546001600160a01b031690565b6001600160a01b03161461087e5760405162461bcd60e51b8152600401610302906121f7565b61088781611249565b604080516000808252602082019092526108a391839190611364565b50565b60ca54604051632474521560e21b81527f65d7a28e3265b37a6474929f336521b332c1681b933f6cb9f3376673440d862a60048201523360248201526001600160a01b03909116906391d1485490604401602060405180830381865afa158015610914573d6000803e3d6000fd5b505050506040513d601f19601f820116820180604052508101906109389190612243565b6109785760405162461bcd60e51b815260206004820152601160248201527021a0a62622a92fa727aa2fa820aaa9a2a960791b6044820152606401610302565b6109806114cf565b565b600061098e6001611562565b905080156109a6576000805461ff0019166101001790555b6109ae6115ef565b60ca80546001600160a01b038086166001600160a01b03199283161790925560c98054928516929091169190911790558015610a24576000805461ff0019169055604051600181527f7f26b83ff96e1f2b6a682f133852f6798a09c465da95921460cefb38474024989060200160405180910390a15b505050565b306001600160a01b037f0000000000000000000000000000000000000000000000000000000000000000161415610a725760405162461bcd60e51b8152600401610302906121ab565b7f00000000000000000000000000000000000000000000000000000000000000006001600160a01b0316610abb6000805160206124b6833981519152546001600160a01b031690565b6001600160a01b031614610ae15760405162461bcd60e51b8152600401610302906121f7565b610aea82611249565b610af682826001611364565b5050565b60c95460405163f9d9331d60e01b81526001600160a01b038381166004830152600092839283928392169063f9d9331d90602401602060405180830381865afa158015610b4b573d6000803e3d6000fd5b505050506040513d601f19601f82011682018060405250810190610b6f919061213c565b90506001600160a01b03811615610c6357604051630103c92b60e01b81526001600160a01b038781166004830152821690630103c92b90602401602060405180830381865afa158015610bc6573d6000803e3d6000fd5b505050506040513d601f19601f82011682018060405250810190610bea9190612260565b93506000816001600160a01b031663452ed4f16040518163ffffffff1660e01b8152600401602060405180830381865afa158015610c2c573d6000803e3d6000fd5b505050506040513d601f19601f82011682018060405250810190610c50919061213c565b9050610c5c818661161e565b9094509250505b509250925092565b6000306001600160a01b037f00000000000000000000000000000000000000000000000000000000000000001614610d0b5760405162461bcd60e51b815260206004820152603860248201527f555550535570677261646561626c653a206d757374206e6f742062652063616c60448201527f6c6564207468726f7567682064656c656761746563616c6c00000000000000006064820152608401610302565b506000805160206124b683398151915290565b60ca54604051632474521560e21b81527f65d7a28e3265b37a6474929f336521b332c1681b933f6cb9f3376673440d862a60048201523360248201526001600160a01b03909116906391d1485490604401602060405180830381865afa158015610d8c573d6000803e3d6000fd5b505050506040513d601f19601f82011682018060405250810190610db09190612243565b610df05760405162461bcd60e51b815260206004820152601160248201527021a0a62622a92fa727aa2fa820aaa9a2a960791b6044820152606401610302565b610980611859565b60335460ff1615610e1b5760405162461bcd60e51b815260040161030290612112565b60ca54604051632474521560e21b81527ffbd454f36a7e1a388bd6fc3ab10d434aa4578f811acbbcf33afb1c697486313c60048201523360248201526001600160a01b03909116906391d1485490604401602060405180830381865afa158015610e89573d6000803e3d6000fd5b505050506040513d601f19601f82011682018060405250810190610ead9190612243565b610ef25760405162461bcd60e51b815260206004820152601660248201527521a0a62622a92fa727aa2fa224a9aa2924a12aaa27a960511b6044820152606401610302565b60c95460405163f9d9331d60e01b81526001600160a01b038c81166004830152600092169063f9d9331d90602401602060405180830381865afa158015610f3d573d6000803e3d6000fd5b505050506040513d601f19601f82011682018060405250810190610f61919061213c565b90506001600160a01b038116610fab5760405162461bcd60e51b815260206004820152600f60248201526e4641524d5f4e4f545f45584953545360881b6044820152606401610302565b6040516384b9658560e01b81526000906001600160a01b038316906384b9658590610fea908e908e908e908e908e908e908e908e908e906004016122c2565b6020604051808303816000875af1158015611009573d6000803e3d6000fd5b505050506040513d601f19601f8201168201806040525081019061102d9190612260565b90508b6001600160a01b03167fc1d32ad5cca423e7dda2123dbf8c482f8e77d00b631c06e903a47f2cec1334df8260405161106a91815260200190565b60405180910390a2505050505050505050505050565b60c95460405163f9d9331d60e01b81526001600160a01b038381166004830152600092839283928392169063f9d9331d90602401602060405180830381865afa1580156110d1573d6000803e3d6000fd5b505050506040513d601f19601f820116820180604052508101906110f5919061213c565b90506001600160a01b038116156111e157806001600160a01b031663168a48226040518163ffffffff1660e01b8152600401602060405180830381865afa158015611144573d6000803e3d6000fd5b505050506040513d601f19601f820116820180604052508101906111689190612260565b93506000816001600160a01b031663452ed4f16040518163ffffffff1660e01b8152600401602060405180830381865afa1580156111aa573d6000803e3d6000fd5b505050506040513d601f19601f820116820180604052508101906111ce919061213c565b90506111da818661161e565b9094509250505b509193909250565b604080516001600160a01b0385811660248301528416604482015260648082018490528251808303909101815260849091019091526020810180516001600160e01b03166323b872dd60e01b1790526112439085906118b1565b50505050565b60ca5460408051631d6c8e3f60e21b815290516001600160a01b03909216916391d148549183916375b238fc916004808201926020929091908290030181865afa15801561129b573d6000803e3d6000fd5b505050506040513d601f19601f820116820180604052508101906112bf9190612260565b6040516001600160e01b031960e084901b1681526004810191909152336024820152604401602060405180830381865afa158015611301573d6000803e3d6000fd5b505050506040513d601f19601f820116820180604052508101906113259190612243565b6108a35760405162461bcd60e51b815260206004820152601060248201526f21a0a62622a92fa727aa2fa0a226a4a760811b6044820152606401610302565b7f4910fdfa16fed3260ed0e7147f7cc6da11a60208b5b9406d12a635614ffd91435460ff161561139757610a2483611983565b826001600160a01b03166352d1902d6040518163ffffffff1660e01b8152600401602060405180830381865afa9250505080156113f1575060408051601f3d908101601f191682019092526113ee91810190612260565b60015b6114545760405162461bcd60e51b815260206004820152602e60248201527f45524331393637557067726164653a206e657720696d706c656d656e7461746960448201526d6f6e206973206e6f74205555505360901b6064820152608401610302565b6000805160206124b683398151915281146114c35760405162461bcd60e51b815260206004820152602960248201527f45524331393637557067726164653a20756e737570706f727465642070726f786044820152681a58589b195555525160ba1b6064820152608401610302565b50610a24838383611a1f565b60335460ff166115185760405162461bcd60e51b815260206004820152601460248201527314185d5cd8589b194e881b9bdd081c185d5cd95960621b6044820152606401610302565b6033805460ff191690557f5db9ee0a495bf2e6ff9c91a7834c1ba4fdd244a5e8aa4e537bd38aeae4b073aa335b6040516001600160a01b03909116815260200160405180910390a1565b60008054610100900460ff16156115a9578160ff1660011480156115855750303b155b6115a15760405162461bcd60e51b815260040161030290612352565b506000919050565b60005460ff8084169116106115d05760405162461bcd60e51b815260040161030290612352565b506000805460ff191660ff92909216919091179055600190565b919050565b600054610100900460ff166116165760405162461bcd60e51b8152600401610302906123a0565b610980611a44565b6000806000846001600160a01b03166318160ddd6040518163ffffffff1660e01b8152600401602060405180830381865afa158015611661573d6000803e3d6000fd5b505050506040513d601f19601f820116820180604052508101906116859190612260565b905080856001600160a01b0316630dfe16816040518163ffffffff1660e01b8152600401602060405180830381865afa1580156116c6573d6000803e3d6000fd5b505050506040513d601f19601f820116820180604052508101906116ea919061213c565b6040516370a0823160e01b81526001600160a01b03888116600483015291909116906370a0823190602401602060405180830381865afa158015611732573d6000803e3d6000fd5b505050506040513d601f19601f820116820180604052508101906117569190612260565b61176090866123eb565b61176a9190612418565b925080856001600160a01b031663d21220a76040518163ffffffff1660e01b8152600401602060405180830381865afa1580156117ab573d6000803e3d6000fd5b505050506040513d601f19601f820116820180604052508101906117cf919061213c565b6040516370a0823160e01b81526001600160a01b03888116600483015291909116906370a0823190602401602060405180830381865afa158015611817573d6000803e3d6000fd5b505050506040513d601f19601f8201168201806040525081019061183b9190612260565b61184590866123eb565b61184f9190612418565b9150509250929050565b60335460ff161561187c5760405162461bcd60e51b815260040161030290612112565b6033805460ff191660011790557f62e78cea01bee320cd4e420270b5ea74000d11b0c9f74754ebdbfc544b05a2586115453390565b6000611906826040518060400160405280602081526020017f5361666545524332303a206c6f772d6c6576656c2063616c6c206661696c6564815250856001600160a01b0316611a779092919063ffffffff16565b805190915015610a2457808060200190518101906119249190612243565b610a245760405162461bcd60e51b815260206004820152602a60248201527f5361666545524332303a204552433230206f7065726174696f6e20646964206e6044820152691bdd081cdd58d8d9595960b21b6064820152608401610302565b6001600160a01b0381163b6119f05760405162461bcd60e51b815260206004820152602d60248201527f455243313936373a206e657720696d706c656d656e746174696f6e206973206e60448201526c1bdd08184818dbdb9d1c9858dd609a1b6064820152608401610302565b6000805160206124b683398151915280546001600160a01b0319166001600160a01b0392909216919091179055565b611a2883611a90565b600082511180611a355750805b15610a24576112438383611ad0565b600054610100900460ff16611a6b5760405162461bcd60e51b8152600401610302906123a0565b6033805460ff19169055565b6060611a868484600085611bc4565b90505b9392505050565b611a9981611983565b6040516001600160a01b038216907fbc7cd75a20ee27fd9adebab32041f755214dbc6bffa90cc0225b39da2e5c2d3b90600090a250565b60606001600160a01b0383163b611b385760405162461bcd60e51b815260206004820152602660248201527f416464726573733a2064656c65676174652063616c6c20746f206e6f6e2d636f6044820152651b9d1c9858dd60d21b6064820152608401610302565b600080846001600160a01b031684604051611b539190612466565b600060405180830381855af49150503d8060008114611b8e576040519150601f19603f3d011682016040523d82523d6000602084013e611b93565b606091505b5091509150611bbb82826040518060600160405280602781526020016124d660279139611cf5565b95945050505050565b606082471015611c255760405162461bcd60e51b815260206004820152602660248201527f416464726573733a20696e73756666696369656e742062616c616e636520666f6044820152651c8818d85b1b60d21b6064820152608401610302565b6001600160a01b0385163b611c7c5760405162461bcd60e51b815260206004820152601d60248201527f416464726573733a2063616c6c20746f206e6f6e2d636f6e74726163740000006044820152606401610302565b600080866001600160a01b03168587604051611c989190612466565b60006040518083038185875af1925050503d8060008114611cd5576040519150601f19603f3d011682016040523d82523d6000602084013e611cda565b606091505b5091509150611cea828286611cf5565b979650505050505050565b60608315611d04575081611a89565b825115611d145782518084602001fd5b8160405162461bcd60e51b81526004016103029190612482565b6001600160a01b03811681146108a357600080fd5b80356115ea81611d2e565b600080600080600080600060e0888a031215611d6957600080fd5b873596506020880135955060408801359450606088013593506080880135925060a0880135611d9781611d2e565b915060c0880135611da781611d2e565b8091505092959891949750929550565b80151581146108a357600080fd5b60008060008060008060c08789031215611dde57600080fd5b8635611de981611d2e565b95506020870135945060408701359350606087013592506080870135611e0e81611db7565b915060a0870135611e1e81611d2e565b809150509295509295509295565b600060208284031215611e3e57600080fd5b8135611a8981611d2e565b60008060408385031215611e5c57600080fd5b8235611e6781611d2e565b91506020830135611e7781611d2e565b809150509250929050565b634e487b7160e01b600052604160045260246000fd5b604051601f8201601f1916810167ffffffffffffffff81118282101715611ec157611ec1611e82565b604052919050565b60008060408385031215611edc57600080fd5b8235611ee781611d2e565b915060208381013567ffffffffffffffff80821115611f0557600080fd5b818601915086601f830112611f1957600080fd5b813581811115611f2b57611f2b611e82565b611f3d601f8201601f19168501611e98565b91508082528784828501011115611f5357600080fd5b80848401858401376000848284010152508093505050509250929050565b60008083601f840112611f8357600080fd5b50813567ffffffffffffffff811115611f9b57600080fd5b6020830191508360208260051b8501011115611fb657600080fd5b9250929050565b600082601f830112611fce57600080fd5b6040516080810181811067ffffffffffffffff82111715611ff157611ff1611e82565b60405280608084018581111561200657600080fd5b845b81811015612020578035835260209283019201612008565b509195945050505050565b6000806000806000806000806000806101208b8d03121561204b57600080fd5b6120548b611d43565b995060208b013567ffffffffffffffff8082111561207157600080fd5b61207d8e838f01611f71565b909b50995060408d013591508082111561209657600080fd5b6120a28e838f01611f71565b909950975060608d01359150808211156120bb57600080fd5b6120c78e838f01611f71565b909750955060808d01359150808211156120e057600080fd5b506120ed8d828e01611f71565b909450925061210190508c60a08d01611fbd565b90509295989b9194979a5092959850565b60208082526010908201526f14185d5cd8589b194e881c185d5cd95960821b604082015260600190565b60006020828403121561214e57600080fd5b8151611a8981611d2e565b60008060006060848603121561216e57600080fd5b8351925060208401519150604084015190509250925092565b6000806040838503121561219a57600080fd5b505080516020909101519092909150565b6020808252602c908201527f46756e6374696f6e206d7573742062652063616c6c6564207468726f7567682060408201526b19195b1959d85d1958d85b1b60a21b606082015260800190565b6020808252602c908201527f46756e6374696f6e206d7573742062652063616c6c6564207468726f7567682060408201526b6163746976652070726f787960a01b606082015260800190565b60006020828403121561225557600080fd5b8151611a8981611db7565b60006020828403121561227257600080fd5b5051919050565b8183526000602080850194508260005b858110156122b757813561229c81611d2e565b6001600160a01b031687529582019590820190600101612289565b509495945050505050565b60006101008083526122d78184018c8e612279565b90506020838203818501526122ed828b8d612279565b9150838203604085015261230282898b612279565b91508382036060850152612317828789612279565b92506080840191508460005b600481101561234057815184529282019290820190600101612323565b505050509a9950505050505050505050565b6020808252602e908201527f496e697469616c697a61626c653a20636f6e747261637420697320616c72656160408201526d191e481a5b9a5d1a585b1a5e995960921b606082015260800190565b6020808252602b908201527f496e697469616c697a61626c653a20636f6e7472616374206973206e6f74206960408201526a6e697469616c697a696e6760a81b606082015260800190565b600081600019048311821515161561241357634e487b7160e01b600052601160045260246000fd5b500290565b60008261243557634e487b7160e01b600052601260045260246000fd5b500490565b60005b8381101561245557818101518382015260200161243d565b838111156112435750506000910152565b6000825161247881846020870161243a565b9190910192915050565b60208152600082518060208401526124a181604085016020870161243a565b601f01601f1916919091016040019291505056fe360894a13ba1a3210667c828492db98dca3e2076cc3735a920a3ca505d382bbc416464726573733a206c6f772d6c6576656c2064656c65676174652063616c6c206661696c6564a26469706673582212201eb3bc71d762f92fd8a4b13b833256ecab1ae148431091ff0460d39c2760881064736f6c634300080a0033",
  "immutableReferences": {
    "561": [
      {
        "length": 32,
        "start": 2001
      },
      {
        "length": 32,
        "start": 2065
      },
      {
        "length": 32,
        "start": 2612
      },
      {
        "length": 32,
        "start": 2676
      },
      {
        "length": 32,
        "start": 3192
      }
    ]
  },
  "source": "// SPDX-License-Identifier: MIT\r\npragma solidity 0.8.10;\r\n\r\nimport {IUnoFarmQuickswapDual as Farm} from './interfaces/IUnoFarmQuickswapDual.sol'; \r\nimport '../../interfaces/IUnoFarmFactory.sol';\r\nimport '../../interfaces/IUnoAccessManager.sol'; \r\nimport '../../interfaces/IUniswapV2Pair.sol';\r\nimport '@openzeppelin/contracts-upgradeable/token/ERC20/IERC20Upgradeable.sol';\r\nimport '@openzeppelin/contracts-upgradeable/token/ERC20/utils/SafeERC20Upgradeable.sol';\r\nimport '@openzeppelin/contracts-upgradeable/proxy/utils/Initializable.sol';\r\nimport '@openzeppelin/contracts-upgradeable/security/PausableUpgradeable.sol';\r\nimport '@openzeppelin/contracts-upgradeable/proxy/utils/UUPSUpgradeable.sol';\r\n\r\ncontract UnoAssetRouterQuickswapDual is Initializable, PausableUpgradeable, UUPSUpgradeable {\r\n    using SafeERC20Upgradeable for IERC20Upgradeable;\r\n\r\n    /**\r\n     * @dev Contract Variables:\r\n     * farmFactory - The contract that deploys new Farms and links them to {lpStakingPool}s.\r\n     * accessManager - Role manager contract.\r\n     */\r\n    IUnoFarmFactory public farmFactory;\r\n    IUnoAccessManager public accessManager;\r\n    bytes32 private constant DISTRIBUTOR_ROLE = keccak256('DISTRIBUTOR_ROLE');\r\n    bytes32 private constant PAUSER_ROLE = keccak256('PAUSER_ROLE');\r\n\r\n    event Deposit(address indexed lpPool, address indexed from, address indexed recipient, uint256 amount);\r\n    event Withdraw(address indexed lpPool, address indexed from, address indexed recipient, uint256 amount);\r\n    event Distribute(address indexed lpPool, uint256 reward);\r\n\r\n    modifier onlyDistributor(){\r\n        require(accessManager.hasRole(DISTRIBUTOR_ROLE, msg.sender), 'CALLER_NOT_DISTRIBUTOR');\r\n        _;\r\n    }\r\n    modifier onlyPauser(){\r\n        require(accessManager.hasRole(PAUSER_ROLE, msg.sender), 'CALLER_NOT_PAUSER');\r\n        _;\r\n    }\r\n    modifier onlyAdmin(){\r\n        require(accessManager.hasRole(accessManager.ADMIN_ROLE(), msg.sender), 'CALLER_NOT_ADMIN');\r\n        _;\r\n    }\r\n\r\n    // ============ Methods ============\r\n\r\n    function initialize(address _accessManager, address _farmFactory) external initializer{\r\n        __Pausable_init();\r\n        accessManager = IUnoAccessManager(_accessManager);\r\n        farmFactory = IUnoFarmFactory(_farmFactory);\r\n    }\r\n\r\n    /**\r\n     * @dev Deposits tokens in the given pool. Creates new Farm contract if there isn't one deployed for the {lpStakingPool} and deposits tokens in it. Emits a {Deposit} event.\r\n     * @param amountA  - Token A amount to deposit.\r\n     * @param amountB -  Token B amount to deposit.\r\n     * @param amountAMin - Bounds the extent to which the B/A price can go up before the transaction reverts.\r\n     * @param amountBMin - Bounds the extent to which the A/B price can go up before the transaction reverts.\r\n     * @param amountLP - LP Token amount to deposit.\r\n     * @param lpStakingPool - Address of the pool to deposit tokens in.\r\n     * @param recipient - Address which will recieve the deposit.\r\n     \r\n     * @return sentA - Token A amount sent to the farm.\r\n     * @return sentB - Token B amount sent to the farm.\r\n     * @return liquidity - Total liquidity sent to the farm (in lpTokens).\r\n     */\r\n    function deposit(uint256 amountA, uint256 amountB, uint256 amountAMin, uint256 amountBMin, uint256 amountLP, address lpStakingPool, address recipient) external whenNotPaused returns(uint256 sentA, uint256 sentB, uint256 liquidity){\r\n        Farm farm = Farm(farmFactory.Farms(lpStakingPool));\r\n        if(farm == Farm(address(0))){\r\n            farm = Farm(farmFactory.createFarm(lpStakingPool));\r\n        }\r\n\r\n        if(amountA > 0){\r\n            IERC20Upgradeable(farm.tokenA()).safeTransferFrom(msg.sender, address(farm), amountA);\r\n        }\r\n        if(amountB > 0){\r\n            IERC20Upgradeable(farm.tokenB()).safeTransferFrom(msg.sender, address(farm), amountB);\r\n        }\r\n        if(amountLP > 0){\r\n            IERC20Upgradeable(farm.lpPair()).safeTransferFrom(msg.sender, address(farm), amountLP);\r\n        }\r\n        \r\n        (sentA, sentB, liquidity) = farm.deposit(amountA, amountB, amountAMin, amountBMin, amountLP, msg.sender, recipient);\r\n        emit Deposit(lpStakingPool, msg.sender, recipient, liquidity); \r\n    }\r\n\r\n    /** \r\n     * @dev Withdraws tokens from the given pool. Emits a {Withdraw} event.\r\n     * @param lpStakingPool - LP pool to withdraw from.\r\n     * @param amount - LP amount to withdraw. \r\n     * @param amountAMin - The minimum amount of tokenA that must be received for the transaction not to revert.\r\n     * @param amountBMin - The minimum amount of tokenB that must be received for the transaction not to revert.\r\n     * @param withdrawLP - True: Withdraw in LP tokens, False: Withdraw in normal tokens.\r\n     * @param recipient - The address which will recieve tokens.\r\n\r\n     * @return amountA - Token A amount sent to the {recipient}, 0 if withdrawLP == false.\r\n     * @return amountB - Token B amount sent to the {recipient}, 0 if withdrawLP == false.\r\n     */ \r\n    function withdraw(address lpStakingPool, uint256 amount, uint256 amountAMin, uint256 amountBMin, bool withdrawLP, address recipient) external whenNotPaused returns(uint256 amountA, uint256 amountB){\r\n        Farm farm = Farm(farmFactory.Farms(lpStakingPool));\r\n        require(farm != Farm(address(0)),'FARM_NOT_EXISTS');\r\n        \r\n        (amountA, amountB) = farm.withdraw(msg.sender, amount, amountAMin, amountBMin, withdrawLP, recipient); \r\n        emit Withdraw(lpStakingPool, msg.sender, recipient, amount);  \r\n    }\r\n\r\n     /**\r\n     * @dev Distributes tokens between users.\r\n     * @param lpStakingPool - LP pool to distribute tokens in.\r\n     * @param rewardTokenAToTokenARoute An array of token addresses.\r\n     * @param rewardTokenAToTokenBRoute An array of token addresses.\r\n     * @param rewardTokenBToTokenARoute An array of token addresses.\r\n     * @param rewardTokenBToTokenBRoute An array of token addresses.\r\n     * @param amountsOutMin The minimum amount of output tokens that must be received for the transaction not to revert.\r\n     *\r\n     * Note: This function can only be called by the distributor.\r\n     */ \r\n    function distribute(\r\n        address lpStakingPool,\r\n        address[] calldata rewardTokenAToTokenARoute,\r\n        address[] calldata rewardTokenAToTokenBRoute,\r\n        address[] calldata rewardTokenBToTokenARoute,\r\n        address[] calldata rewardTokenBToTokenBRoute, \r\n        uint256[4] memory amountsOutMin\r\n    ) external whenNotPaused onlyDistributor {\r\n        Farm farm = Farm(farmFactory.Farms(lpStakingPool));\r\n        require(farm != Farm(address(0)), 'FARM_NOT_EXISTS');\r\n\r\n        uint256 reward = farm.distribute(rewardTokenAToTokenARoute, rewardTokenAToTokenBRoute, rewardTokenBToTokenARoute, rewardTokenBToTokenBRoute, amountsOutMin);\r\n        emit Distribute(lpStakingPool, reward);\r\n    }\r\n\r\n    /**\r\n     * @dev Returns tokens staked by the {_address} for the given {lpStakingPool}.\r\n     * @param _address - The address to check stakes for.\r\n     * @param lpStakingPool - LP pool to check stakes in.\r\n\r\n     * @return stakeLP - Total user stake(in LP tokens).\r\n     * @return stakeA - Token A stake.\r\n     * @return stakeB - Token B stake.\r\n     */\r\n    function userStake(address _address, address lpStakingPool) external view returns (uint256 stakeLP, uint256 stakeA, uint256 stakeB) {\r\n        Farm farm = Farm(farmFactory.Farms(lpStakingPool));\r\n        if (farm != Farm(address(0))) {\r\n            stakeLP = farm.userBalance(_address);\r\n            address lpPair = farm.lpPair();\r\n            (stakeA, stakeB) = getTokenStake(lpPair, stakeLP);\r\n        }\r\n    }\r\n\r\n    /**\r\n     * @dev Returns total amount locked in the pool. Doesn't take pending rewards into account.\r\n     * @param lpStakingPool - LP pool to check total deposits in.\r\n\r\n     * @return totalDepositsLP - Total deposits (in LP tokens).\r\n     * @return totalDepositsA - Token A deposits.\r\n     * @return totalDepositsB - Token B deposits.\r\n     */  \r\n    function totalDeposits(address lpStakingPool) external view returns (uint256 totalDepositsLP, uint256 totalDepositsA, uint256 totalDepositsB) {\r\n        Farm farm = Farm(farmFactory.Farms(lpStakingPool));\r\n        if (farm != Farm(address(0))) {\r\n            totalDepositsLP = farm.getTotalDeposits();\r\n            address lpPair = farm.lpPair();\r\n            (totalDepositsA, totalDepositsB) = getTokenStake(lpPair, totalDepositsLP);\r\n        }\r\n    }\r\n\r\n    /**\r\n     * @dev Converts LP tokens to normal tokens, value(amountA) == value(amountB) == 0.5*amountLP\r\n     * @param lpPair - LP pair for conversion.\r\n     * @param amountLP - Amount of LP tokens to convert.\r\n\r\n     * @return amountA - Token A amount.\r\n     * @return amountB - Token B amount.\r\n     */ \r\n    function getTokenStake(address lpPair, uint256 amountLP) internal view returns (uint256 amountA, uint256 amountB) {\r\n        uint256 totalSupply = IERC20Upgradeable(lpPair).totalSupply();\r\n        amountA = amountLP * IERC20Upgradeable(IUniswapV2Pair(lpPair).token0()).balanceOf(lpPair) / totalSupply;\r\n        amountB = amountLP * IERC20Upgradeable(IUniswapV2Pair(lpPair).token1()).balanceOf(lpPair) / totalSupply;\r\n    }\r\n \r\n    function pause() external onlyPauser {\r\n        _pause();\r\n    }\r\n\r\n    function unpause() external onlyPauser {\r\n        _unpause();\r\n    }\r\n\r\n    function _authorizeUpgrade(address) internal override onlyAdmin {\r\n\r\n    }\r\n}\r\n",
  "sourcePath": "C:\\Users\\jugli\\Desktop\\uno\\uno-contracts-autostrat\\contracts\\apps\\quickswapDual\\UnoAssetRouterQuickswapDual.sol",
  "compiler": {
    "name": "solc",
    "version": "0.8.10+commit.fc410830.Emscripten.clang"
  },
  "schemaVersion": "3.4.7",
  "updatedAt": "2022-06-02T12:03:01.849Z",
  "devdoc": {
    "kind": "dev",
    "methods": {
      "deposit(uint256,uint256,uint256,uint256,uint256,address,address)": {
        "details": "Deposits tokens in the given pool. Creates new Farm contract if there isn't one deployed for the {lpStakingPool} and deposits tokens in it. Emits a {Deposit} event.",
        "params": {
          "amountA": "- Token A amount to deposit.",
          "amountAMin": "- Bounds the extent to which the B/A price can go up before the transaction reverts.",
          "amountB": "-  Token B amount to deposit.",
          "amountBMin": "- Bounds the extent to which the A/B price can go up before the transaction reverts.",
          "amountLP": "- LP Token amount to deposit.",
          "lpStakingPool": "- Address of the pool to deposit tokens in.",
          "recipient": "- Address which will recieve the deposit."
        },
        "returns": {
          "liquidity": "- Total liquidity sent to the farm (in lpTokens).",
          "sentA": "- Token A amount sent to the farm.",
          "sentB": "- Token B amount sent to the farm."
        }
      },
      "distribute(address,address[],address[],address[],address[],uint256[4])": {
        "details": "Distributes tokens between users.",
        "params": {
          "amountsOutMin": "The minimum amount of output tokens that must be received for the transaction not to revert. Note: This function can only be called by the distributor.",
          "lpStakingPool": "- LP pool to distribute tokens in.",
          "rewardTokenAToTokenARoute": "An array of token addresses.",
          "rewardTokenAToTokenBRoute": "An array of token addresses.",
          "rewardTokenBToTokenARoute": "An array of token addresses.",
          "rewardTokenBToTokenBRoute": "An array of token addresses."
        }
      },
      "paused()": {
        "details": "Returns true if the contract is paused, and false otherwise."
      },
      "proxiableUUID()": {
        "details": "Implementation of the ERC1822 {proxiableUUID} function. This returns the storage slot used by the implementation. It is used to validate that the this implementation remains valid after an upgrade. IMPORTANT: A proxy pointing at a proxiable contract should not be considered proxiable itself, because this risks bricking a proxy that upgrades to it, by delegating to itself until out of gas. Thus it is critical that this function revert if invoked through a proxy. This is guaranteed by the `notDelegated` modifier."
      },
      "totalDeposits(address)": {
        "details": "Returns total amount locked in the pool. Doesn't take pending rewards into account.",
        "params": {
          "lpStakingPool": "- LP pool to check total deposits in."
        },
        "returns": {
          "totalDepositsA": "- Token A deposits.",
          "totalDepositsB": "- Token B deposits.",
          "totalDepositsLP": "- Total deposits (in LP tokens)."
        }
      },
      "upgradeTo(address)": {
        "details": "Upgrade the implementation of the proxy to `newImplementation`. Calls {_authorizeUpgrade}. Emits an {Upgraded} event."
      },
      "upgradeToAndCall(address,bytes)": {
        "details": "Upgrade the implementation of the proxy to `newImplementation`, and subsequently execute the function call encoded in `data`. Calls {_authorizeUpgrade}. Emits an {Upgraded} event."
      },
      "userStake(address,address)": {
        "details": "Returns tokens staked by the {_address} for the given {lpStakingPool}.",
        "params": {
          "_address": "- The address to check stakes for.",
          "lpStakingPool": "- LP pool to check stakes in."
        },
        "returns": {
          "stakeA": "- Token A stake.",
          "stakeB": "- Token B stake.",
          "stakeLP": "- Total user stake(in LP tokens)."
        }
      },
      "withdraw(address,uint256,uint256,uint256,bool,address)": {
        "details": "Withdraws tokens from the given pool. Emits a {Withdraw} event.",
        "params": {
          "amount": "- LP amount to withdraw. ",
          "amountAMin": "- The minimum amount of tokenA that must be received for the transaction not to revert.",
          "amountBMin": "- The minimum amount of tokenB that must be received for the transaction not to revert.",
          "lpStakingPool": "- LP pool to withdraw from.",
          "recipient": "- The address which will recieve tokens.",
          "withdrawLP": "- True: Withdraw in LP tokens, False: Withdraw in normal tokens."
        },
        "returns": {
          "amountA": "- Token A amount sent to the {recipient}, 0 if withdrawLP == false.",
          "amountB": "- Token B amount sent to the {recipient}, 0 if withdrawLP == false."
        }
      }
    },
    "stateVariables": {
      "farmFactory": {
        "details": "Contract Variables: farmFactory - The contract that deploys new Farms and links them to {lpStakingPool}s. accessManager - Role manager contract."
      }
    },
    "version": 1
  },
  "userdoc": {
    "kind": "user",
    "methods": {},
    "version": 1
  }
}