{
  "contractName": "UnoAutoStrategy",
  "abi": [
    {
      "inputs": [],
      "name": "BAD_POOL_COUNT",
      "type": "error"
    },
    {
      "inputs": [],
      "name": "BAD_POOL_ID",
      "type": "error"
    },
    {
      "inputs": [],
      "name": "BAD_SWAP_A",
      "type": "error"
    },
    {
      "inputs": [],
      "name": "BAD_SWAP_B",
      "type": "error"
    },
    {
      "inputs": [],
      "name": "CALLER_NOT_LIQUIDITY_MANAGER",
      "type": "error"
    },
    {
      "inputs": [],
      "name": "CANT_CALL_ON_THE_SAME_BLOCK",
      "type": "error"
    },
    {
      "inputs": [],
      "name": "ETH_DEPOSIT_REJECTED",
      "type": "error"
    },
    {
      "inputs": [],
      "name": "INSUFFICIENT_LIQUIDITY",
      "type": "error"
    },
    {
      "inputs": [],
      "name": "NOT_ETH_POOL",
      "type": "error"
    },
    {
      "inputs": [],
      "name": "NO_LIQUIDITY",
      "type": "error"
    },
    {
      "inputs": [],
      "name": "PAUSED",
      "type": "error"
    },
    {
      "inputs": [],
      "name": "TRANSFER_NOT_SUCCESSFUL",
      "type": "error"
    },
    {
      "anonymous": false,
      "inputs": [
        {
          "indexed": true,
          "internalType": "address",
          "name": "owner",
          "type": "address"
        },
        {
          "indexed": true,
          "internalType": "address",
          "name": "spender",
          "type": "address"
        },
        {
          "indexed": false,
          "internalType": "uint256",
          "name": "value",
          "type": "uint256"
        }
      ],
      "name": "Approval",
      "type": "event"
    },
    {
      "anonymous": false,
      "inputs": [
        {
          "indexed": true,
          "internalType": "address",
          "name": "recipient",
          "type": "address"
        },
        {
          "indexed": false,
          "internalType": "uint256",
          "name": "fee",
          "type": "uint256"
        }
      ],
      "name": "CollectFee",
      "type": "event"
    },
    {
      "anonymous": false,
      "inputs": [
        {
          "indexed": true,
          "internalType": "uint256",
          "name": "poolID",
          "type": "uint256"
        },
        {
          "indexed": true,
          "internalType": "address",
          "name": "from",
          "type": "address"
        },
        {
          "indexed": true,
          "internalType": "address",
          "name": "recipient",
          "type": "address"
        },
        {
          "indexed": false,
          "internalType": "uint256",
          "name": "amountLP",
          "type": "uint256"
        }
      ],
      "name": "Deposit",
      "type": "event"
    },
    {
      "anonymous": false,
      "inputs": [
        {
          "indexed": true,
          "internalType": "uint256",
          "name": "poolID",
          "type": "uint256"
        },
        {
          "indexed": false,
          "internalType": "uint256",
          "name": "amountA",
          "type": "uint256"
        },
        {
          "indexed": false,
          "internalType": "uint256",
          "name": "amountB",
          "type": "uint256"
        }
      ],
      "name": "DepositPairTokens",
      "type": "event"
    },
    {
      "anonymous": false,
      "inputs": [
        {
          "indexed": true,
          "internalType": "uint256",
          "name": "poolID",
          "type": "uint256"
        },
        {
          "indexed": false,
          "internalType": "uint256",
          "name": "amountToken",
          "type": "uint256"
        },
        {
          "indexed": false,
          "internalType": "uint256",
          "name": "amountETH",
          "type": "uint256"
        }
      ],
      "name": "DepositPairTokensETH",
      "type": "event"
    },
    {
      "anonymous": false,
      "inputs": [
        {
          "indexed": true,
          "internalType": "uint256",
          "name": "poolID",
          "type": "uint256"
        },
        {
          "indexed": true,
          "internalType": "contract IERC20",
          "name": "token0",
          "type": "address"
        },
        {
          "indexed": true,
          "internalType": "contract IERC20",
          "name": "token1",
          "type": "address"
        },
        {
          "indexed": false,
          "internalType": "uint256",
          "name": "sent0",
          "type": "uint256"
        },
        {
          "indexed": false,
          "internalType": "uint256",
          "name": "sent1",
          "type": "uint256"
        }
      ],
      "name": "DepositTokensWithSwap",
      "type": "event"
    },
    {
      "anonymous": false,
      "inputs": [
        {
          "indexed": false,
          "internalType": "uint8",
          "name": "version",
          "type": "uint8"
        }
      ],
      "name": "Initialized",
      "type": "event"
    },
    {
      "anonymous": false,
      "inputs": [
        {
          "indexed": true,
          "internalType": "uint256",
          "name": "previousPoolID",
          "type": "uint256"
        },
        {
          "indexed": true,
          "internalType": "uint256",
          "name": "nextPoolID",
          "type": "uint256"
        }
      ],
      "name": "MoveLiquidity",
      "type": "event"
    },
    {
      "anonymous": false,
      "inputs": [
        {
          "indexed": true,
          "internalType": "address",
          "name": "from",
          "type": "address"
        },
        {
          "indexed": true,
          "internalType": "address",
          "name": "to",
          "type": "address"
        },
        {
          "indexed": false,
          "internalType": "uint256",
          "name": "value",
          "type": "uint256"
        }
      ],
      "name": "Transfer",
      "type": "event"
    },
    {
      "anonymous": false,
      "inputs": [
        {
          "indexed": true,
          "internalType": "uint256",
          "name": "poolID",
          "type": "uint256"
        },
        {
          "indexed": true,
          "internalType": "address",
          "name": "from",
          "type": "address"
        },
        {
          "indexed": true,
          "internalType": "address",
          "name": "recipient",
          "type": "address"
        },
        {
          "indexed": false,
          "internalType": "uint256",
          "name": "amountLP",
          "type": "uint256"
        }
      ],
      "name": "Withdraw",
      "type": "event"
    },
    {
      "anonymous": false,
      "inputs": [
        {
          "indexed": true,
          "internalType": "uint256",
          "name": "poolID",
          "type": "uint256"
        },
        {
          "indexed": false,
          "internalType": "uint256",
          "name": "amountA",
          "type": "uint256"
        },
        {
          "indexed": false,
          "internalType": "uint256",
          "name": "amountB",
          "type": "uint256"
        }
      ],
      "name": "WithdrawPairTokens",
      "type": "event"
    },
    {
      "anonymous": false,
      "inputs": [
        {
          "indexed": true,
          "internalType": "uint256",
          "name": "poolID",
          "type": "uint256"
        },
        {
          "indexed": false,
          "internalType": "uint256",
          "name": "amountToken",
          "type": "uint256"
        },
        {
          "indexed": false,
          "internalType": "uint256",
          "name": "amountETH",
          "type": "uint256"
        }
      ],
      "name": "WithdrawPairTokensETH",
      "type": "event"
    },
    {
      "anonymous": false,
      "inputs": [
        {
          "indexed": true,
          "internalType": "uint256",
          "name": "poolID",
          "type": "uint256"
        },
        {
          "indexed": true,
          "internalType": "contract IERC20",
          "name": "token0",
          "type": "address"
        },
        {
          "indexed": true,
          "internalType": "contract IERC20",
          "name": "token1",
          "type": "address"
        },
        {
          "indexed": false,
          "internalType": "uint256",
          "name": "amount0",
          "type": "uint256"
        },
        {
          "indexed": false,
          "internalType": "uint256",
          "name": "amount1",
          "type": "uint256"
        },
        {
          "indexed": false,
          "internalType": "uint256",
          "name": "amountA",
          "type": "uint256"
        },
        {
          "indexed": false,
          "internalType": "uint256",
          "name": "amountB",
          "type": "uint256"
        }
      ],
      "name": "WithdrawTokensWithSwap",
      "type": "event"
    },
    {
      "inputs": [],
      "name": "accessManager",
      "outputs": [
        {
          "internalType": "contract IUnoAccessManager",
          "name": "",
          "type": "address"
        }
      ],
      "stateMutability": "view",
      "type": "function"
    },
    {
      "inputs": [
        {
          "internalType": "address",
          "name": "owner",
          "type": "address"
        },
        {
          "internalType": "address",
          "name": "spender",
          "type": "address"
        }
      ],
      "name": "allowance",
      "outputs": [
        {
          "internalType": "uint256",
          "name": "",
          "type": "uint256"
        }
      ],
      "stateMutability": "view",
      "type": "function"
    },
    {
      "inputs": [
        {
          "internalType": "address",
          "name": "spender",
          "type": "address"
        },
        {
          "internalType": "uint256",
          "name": "amount",
          "type": "uint256"
        }
      ],
      "name": "approve",
      "outputs": [
        {
          "internalType": "bool",
          "name": "",
          "type": "bool"
        }
      ],
      "stateMutability": "nonpayable",
      "type": "function"
    },
    {
      "inputs": [
        {
          "internalType": "address",
          "name": "account",
          "type": "address"
        }
      ],
      "name": "balanceOf",
      "outputs": [
        {
          "internalType": "uint256",
          "name": "",
          "type": "uint256"
        }
      ],
      "stateMutability": "view",
      "type": "function"
    },
    {
      "inputs": [],
      "name": "decimals",
      "outputs": [
        {
          "internalType": "uint8",
          "name": "",
          "type": "uint8"
        }
      ],
      "stateMutability": "view",
      "type": "function"
    },
    {
      "inputs": [
        {
          "internalType": "address",
          "name": "spender",
          "type": "address"
        },
        {
          "internalType": "uint256",
          "name": "subtractedValue",
          "type": "uint256"
        }
      ],
      "name": "decreaseAllowance",
      "outputs": [
        {
          "internalType": "bool",
          "name": "",
          "type": "bool"
        }
      ],
      "stateMutability": "nonpayable",
      "type": "function"
    },
    {
      "inputs": [],
      "name": "factory",
      "outputs": [
        {
          "internalType": "contract IUnoAutoStrategyFactory",
          "name": "",
          "type": "address"
        }
      ],
      "stateMutability": "view",
      "type": "function"
    },
    {
      "inputs": [
        {
          "internalType": "address",
          "name": "spender",
          "type": "address"
        },
        {
          "internalType": "uint256",
          "name": "addedValue",
          "type": "uint256"
        }
      ],
      "name": "increaseAllowance",
      "outputs": [
        {
          "internalType": "bool",
          "name": "",
          "type": "bool"
        }
      ],
      "stateMutability": "nonpayable",
      "type": "function"
    },
    {
      "inputs": [],
      "name": "name",
      "outputs": [
        {
          "internalType": "string",
          "name": "",
          "type": "string"
        }
      ],
      "stateMutability": "view",
      "type": "function"
    },
    {
      "inputs": [],
      "name": "poolID",
      "outputs": [
        {
          "internalType": "uint256",
          "name": "",
          "type": "uint256"
        }
      ],
      "stateMutability": "view",
      "type": "function"
    },
    {
      "inputs": [
        {
          "internalType": "uint256",
          "name": "",
          "type": "uint256"
        }
      ],
      "name": "pools",
      "outputs": [
        {
          "internalType": "address",
          "name": "pool",
          "type": "address"
        },
        {
          "internalType": "contract IUnoAssetRouter",
          "name": "assetRouter",
          "type": "address"
        },
        {
          "internalType": "contract IERC20",
          "name": "tokenA",
          "type": "address"
        },
        {
          "internalType": "contract IERC20",
          "name": "tokenB",
          "type": "address"
        }
      ],
      "stateMutability": "view",
      "type": "function"
    },
    {
      "inputs": [],
      "name": "symbol",
      "outputs": [
        {
          "internalType": "string",
          "name": "",
          "type": "string"
        }
      ],
      "stateMutability": "view",
      "type": "function"
    },
    {
      "inputs": [
        {
          "internalType": "address",
          "name": "to",
          "type": "address"
        },
        {
          "internalType": "uint256",
          "name": "amount",
          "type": "uint256"
        }
      ],
      "name": "transfer",
      "outputs": [
        {
          "internalType": "bool",
          "name": "",
          "type": "bool"
        }
      ],
      "stateMutability": "nonpayable",
      "type": "function"
    },
    {
      "inputs": [
        {
          "internalType": "address",
          "name": "from",
          "type": "address"
        },
        {
          "internalType": "address",
          "name": "to",
          "type": "address"
        },
        {
          "internalType": "uint256",
          "name": "amount",
          "type": "uint256"
        }
      ],
      "name": "transferFrom",
      "outputs": [
        {
          "internalType": "bool",
          "name": "",
          "type": "bool"
        }
      ],
      "stateMutability": "nonpayable",
      "type": "function"
    },
    {
      "stateMutability": "payable",
      "type": "receive"
    },
    {
      "inputs": [
        {
          "components": [
            {
              "internalType": "address",
              "name": "pool",
              "type": "address"
            },
            {
              "internalType": "contract IUnoAssetRouter",
              "name": "assetRouter",
              "type": "address"
            }
          ],
          "internalType": "struct UnoAutoStrategy._PoolInfo[]",
          "name": "poolInfos",
          "type": "tuple[]"
        },
        {
          "internalType": "contract IUnoAccessManager",
          "name": "_accessManager",
          "type": "address"
        }
      ],
      "name": "initialize",
      "outputs": [],
      "stateMutability": "nonpayable",
      "type": "function"
    },
    {
      "inputs": [
        {
          "internalType": "uint256",
          "name": "pid",
          "type": "uint256"
        },
        {
          "internalType": "uint256",
          "name": "amountA",
          "type": "uint256"
        },
        {
          "internalType": "uint256",
          "name": "amountB",
          "type": "uint256"
        },
        {
          "internalType": "uint256",
          "name": "amountAMin",
          "type": "uint256"
        },
        {
          "internalType": "uint256",
          "name": "amountBMin",
          "type": "uint256"
        },
        {
          "internalType": "address",
          "name": "recipient",
          "type": "address"
        },
        {
          "internalType": "address",
          "name": "referrer",
          "type": "address"
        }
      ],
      "name": "deposit",
      "outputs": [
        {
          "internalType": "uint256",
          "name": "sentA",
          "type": "uint256"
        },
        {
          "internalType": "uint256",
          "name": "sentB",
          "type": "uint256"
        },
        {
          "internalType": "uint256",
          "name": "liquidity",
          "type": "uint256"
        }
      ],
      "stateMutability": "nonpayable",
      "type": "function"
    },
    {
      "inputs": [
        {
          "internalType": "uint256",
          "name": "pid",
          "type": "uint256"
        },
        {
          "internalType": "uint256",
          "name": "amountToken",
          "type": "uint256"
        },
        {
          "internalType": "uint256",
          "name": "amountTokenMin",
          "type": "uint256"
        },
        {
          "internalType": "uint256",
          "name": "amountETHMin",
          "type": "uint256"
        },
        {
          "internalType": "address",
          "name": "recipient",
          "type": "address"
        },
        {
          "internalType": "address",
          "name": "referrer",
          "type": "address"
        }
      ],
      "name": "depositETH",
      "outputs": [
        {
          "internalType": "uint256",
          "name": "sentToken",
          "type": "uint256"
        },
        {
          "internalType": "uint256",
          "name": "sentETH",
          "type": "uint256"
        },
        {
          "internalType": "uint256",
          "name": "liquidity",
          "type": "uint256"
        }
      ],
      "stateMutability": "payable",
      "type": "function"
    },
    {
      "inputs": [
        {
          "internalType": "uint256",
          "name": "pid",
          "type": "uint256"
        },
        {
          "internalType": "bytes[2]",
          "name": "swapData",
          "type": "bytes[2]"
        },
        {
          "internalType": "address",
          "name": "recipient",
          "type": "address"
        },
        {
          "internalType": "address",
          "name": "referrer",
          "type": "address"
        }
      ],
      "name": "depositWithSwap",
      "outputs": [
        {
          "internalType": "uint256",
          "name": "sent0",
          "type": "uint256"
        },
        {
          "internalType": "uint256",
          "name": "sent1",
          "type": "uint256"
        },
        {
          "internalType": "uint256",
          "name": "dustA",
          "type": "uint256"
        },
        {
          "internalType": "uint256",
          "name": "dustB",
          "type": "uint256"
        },
        {
          "internalType": "uint256",
          "name": "liquidity",
          "type": "uint256"
        }
      ],
      "stateMutability": "payable",
      "type": "function"
    },
    {
      "inputs": [
        {
          "internalType": "uint256",
          "name": "pid",
          "type": "uint256"
        },
        {
          "internalType": "uint256",
          "name": "liquidity",
          "type": "uint256"
        },
        {
          "internalType": "uint256",
          "name": "amountAMin",
          "type": "uint256"
        },
        {
          "internalType": "uint256",
          "name": "amountBMin",
          "type": "uint256"
        },
        {
          "internalType": "address",
          "name": "recipient",
          "type": "address"
        }
      ],
      "name": "withdraw",
      "outputs": [
        {
          "internalType": "uint256",
          "name": "amountA",
          "type": "uint256"
        },
        {
          "internalType": "uint256",
          "name": "amountB",
          "type": "uint256"
        }
      ],
      "stateMutability": "nonpayable",
      "type": "function"
    },
    {
      "inputs": [
        {
          "internalType": "uint256",
          "name": "pid",
          "type": "uint256"
        },
        {
          "internalType": "uint256",
          "name": "liquidity",
          "type": "uint256"
        },
        {
          "internalType": "uint256",
          "name": "amountTokenMin",
          "type": "uint256"
        },
        {
          "internalType": "uint256",
          "name": "amountETHMin",
          "type": "uint256"
        },
        {
          "internalType": "address",
          "name": "recipient",
          "type": "address"
        }
      ],
      "name": "withdrawETH",
      "outputs": [
        {
          "internalType": "uint256",
          "name": "amountToken",
          "type": "uint256"
        },
        {
          "internalType": "uint256",
          "name": "amountETH",
          "type": "uint256"
        }
      ],
      "stateMutability": "nonpayable",
      "type": "function"
    },
    {
      "inputs": [
        {
          "internalType": "uint256",
          "name": "pid",
          "type": "uint256"
        },
        {
          "internalType": "uint256",
          "name": "liquidity",
          "type": "uint256"
        },
        {
          "internalType": "bytes[2]",
          "name": "swapData",
          "type": "bytes[2]"
        },
        {
          "internalType": "address",
          "name": "recipient",
          "type": "address"
        }
      ],
      "name": "withdrawWithSwap",
      "outputs": [
        {
          "internalType": "uint256",
          "name": "amount0",
          "type": "uint256"
        },
        {
          "internalType": "uint256",
          "name": "amount1",
          "type": "uint256"
        },
        {
          "internalType": "uint256",
          "name": "amountA",
          "type": "uint256"
        },
        {
          "internalType": "uint256",
          "name": "amountB",
          "type": "uint256"
        }
      ],
      "stateMutability": "nonpayable",
      "type": "function"
    },
    {
      "inputs": [
        {
          "internalType": "uint256",
          "name": "_poolID",
          "type": "uint256"
        },
        {
          "internalType": "bytes",
          "name": "swapAData",
          "type": "bytes"
        },
        {
          "internalType": "bytes",
          "name": "swapBData",
          "type": "bytes"
        },
        {
          "internalType": "uint256",
          "name": "amountAMin",
          "type": "uint256"
        },
        {
          "internalType": "uint256",
          "name": "amountBMin",
          "type": "uint256"
        }
      ],
      "name": "moveLiquidity",
      "outputs": [],
      "stateMutability": "nonpayable",
      "type": "function"
    },
    {
      "inputs": [
        {
          "internalType": "address",
          "name": "_address",
          "type": "address"
        }
      ],
      "name": "userStake",
      "outputs": [
        {
          "internalType": "uint256",
          "name": "stakeA",
          "type": "uint256"
        },
        {
          "internalType": "uint256",
          "name": "stakeB",
          "type": "uint256"
        },
        {
          "internalType": "uint256",
          "name": "leftoverA",
          "type": "uint256"
        },
        {
          "internalType": "uint256",
          "name": "leftoverB",
          "type": "uint256"
        }
      ],
      "stateMutability": "view",
      "type": "function"
    },
    {
      "inputs": [],
      "name": "totalDeposits",
      "outputs": [
        {
          "internalType": "uint256",
          "name": "totalDepositsA",
          "type": "uint256"
        },
        {
          "internalType": "uint256",
          "name": "totalDepositsB",
          "type": "uint256"
        }
      ],
      "stateMutability": "view",
      "type": "function"
    },
    {
      "inputs": [],
      "name": "poolsLength",
      "outputs": [
        {
          "internalType": "uint256",
          "name": "",
          "type": "uint256"
        }
      ],
      "stateMutability": "view",
      "type": "function"
    },
    {
      "inputs": [],
      "name": "tokens",
      "outputs": [
        {
          "internalType": "address",
          "name": "",
          "type": "address"
        },
        {
          "internalType": "address",
          "name": "",
          "type": "address"
        }
      ],
      "stateMutability": "view",
      "type": "function"
    },
    {
      "inputs": [
        {
          "internalType": "address",
          "name": "referrer",
          "type": "address"
        }
      ],
      "name": "collectFee",
      "outputs": [
        {
          "internalType": "uint256",
          "name": "fee",
          "type": "uint256"
        }
      ],
      "stateMutability": "nonpayable",
      "type": "function"
    },
    {
      "inputs": [],
      "name": "totalSupply",
      "outputs": [
        {
          "internalType": "uint256",
          "name": "",
          "type": "uint256"
        }
      ],
      "stateMutability": "view",
      "type": "function"
    }
  ],
  "bytecode": "0x608060405234801561001057600080fd5b50615b6480620000216000396000f3fe6080604052600436106101bb5760003560e01c80637d882097116100ec578063ab500c291161008a578063d473a65411610064578063d473a654146105ab578063dd62ed3e146105cb578063e237f1eb146105eb578063fdcb60681461060b57600080fd5b8063ab500c291461050d578063ac4afa3814610520578063c45a01551461057357600080fd5b806395d89b41116100c657806395d89b41146104835780639d63848a14610498578063a457c2d7146104cd578063a9059cbb146104ed57600080fd5b80637d8820971461041d57806388b9c711146104325780638d9344851461046d57600080fd5b8063313ce5671161015957806368e5585d1161013357806368e5585d1461036757806369b59e75146103a757806370a08231146103c757806374552fb6146103fd57600080fd5b8063313ce5671461030b5780633950935114610327578063668393c71461034757600080fd5b806318160ddd1161019557806318160ddd1461027e5780631c723b82146102a157806323b872dd146102d65780632716ae66146102f657600080fd5b806306fdde03146101e8578063095ea7b3146102135780631666768a1461024357600080fd5b366101e357333214156101e157604051635a5e184160e11b815260040160405180910390fd5b005b600080fd5b3480156101f457600080fd5b506101fd61062b565b60405161020a9190614b36565b60405180910390f35b34801561021f57600080fd5b5061023361022e366004614b61565b6106bd565b604051901515815260200161020a565b34801561024f57600080fd5b5061026361025e366004614b8d565b6106d7565b6040805193845260208401929092529082015260600161020a565b34801561028a57600080fd5b50610293610acb565b60405190815260200161020a565b3480156102ad57600080fd5b506102c16102bc366004614bf6565b610af5565b6040805192835260208301919091520161020a565b3480156102e257600080fd5b506102336102f1366004614c43565b610e18565b34801561030257600080fd5b50609854610293565b34801561031757600080fd5b506040516012815260200161020a565b34801561033357600080fd5b50610233610342366004614b61565b610e3e565b34801561035357600080fd5b506101e1610362366004614cc5565b610e60565b34801561037357600080fd5b50610387610382366004614d4d565b611b36565b60408051948552602085019390935291830152606082015260800161020a565b3480156103b357600080fd5b506102936103c2366004614d4d565b611eb8565b3480156103d357600080fd5b506102936103e2366004614d4d565b6001600160a01b031660009081526033602052604090205490565b34801561040957600080fd5b506101e1610418366004614d6a565b612050565b34801561042957600080fd5b506102c1612432565b610445610440366004614e00565b6125ff565b604080519586526020860194909452928401919091526060830152608082015260a00161020a565b34801561047957600080fd5b5061029360975481565b34801561048f57600080fd5b506101fd612a61565b3480156104a457600080fd5b506104ad612a70565b604080516001600160a01b0393841681529290911660208301520161020a565b3480156104d957600080fd5b506102336104e8366004614b61565b612aea565b3480156104f957600080fd5b50610233610508366004614b61565b612b70565b61026361051b366004614e6b565b612b7e565b34801561052c57600080fd5b5061054061053b366004614ec9565b612f30565b604080516001600160a01b039586168152938516602085015291841691830191909152909116606082015260800161020a565b34801561057f57600080fd5b5060a154610593906001600160a01b031681565b6040516001600160a01b03909116815260200161020a565b3480156105b757600080fd5b506102c16105c6366004614bf6565b612f7a565b3480156105d757600080fd5b506102936105e6366004614ee2565b6131b8565b3480156105f757600080fd5b50610387610606366004614f1b565b6131e3565b34801561061757600080fd5b5060a054610593906001600160a01b031681565b60606036805461063a90614f72565b80601f016020809104026020016040519081016040528092919081815260200182805461066690614f72565b80156106b35780601f10610688576101008083540402835291602001916106b3565b820191906000526020600020905b81548152906001019060200180831161069657829003601f168201915b5050505050905090565b6000336106cb8185856134cd565b60019150505b92915050565b600080600060a160009054906101000a90046001600160a01b03166001600160a01b0316635c975abb6040518163ffffffff1660e01b8152600401602060405180830381865afa15801561072f573d6000803e3d6000fd5b505050506040513d601f19601f820116820180604052508101906107539190614fa7565b1561077157604051632a6ab56360e21b815260040160405180910390fd5b6002606554141561079d5760405162461bcd60e51b815260040161079490614fc9565b60405180910390fd5b60026065556097548a146107c45760405163d832ff5d60e01b815260040160405180910390fd5b60006098609754815481106107db576107db615000565b600091825260209182902060408051608081018252600490930290910180546001600160a01b039081168452600182015481169484019490945260028101548416918301829052600301549092166060820152915061083c9033308d6135f1565b80604001516001600160a01b031663095ea7b382602001518c6040518363ffffffff1660e01b8152600401610872929190615016565b6020604051808303816000875af1158015610891573d6000803e3d6000fd5b505050506040513d601f19601f820116820180604052508101906108b59190614fa7565b5060608101516108d0906001600160a01b031633308c6135f1565b6060810151602082015160405163095ea7b360e01b81526001600160a01b039092169163095ea7b391610907918d90600401615016565b6020604051808303816000875af1158015610926573d6000803e3d6000fd5b505050506040513d601f19601f8201168201806040525081019061094a9190614fa7565b5060208101518151604051633282f32f60e11b81526000926001600160a01b031691636505e65e9161098991908f908f908f908f90309060040161502f565b6060604051808303816000875af11580156109a8573d6000803e3d6000fd5b505050506040513d601f19601f820116820180604052508101906109cc9190615067565b919650945090506109dd878761365c565b9250848b1115610a0a57610a0a336109f5878e6150ab565b60408501516001600160a01b03169190613895565b838a1115610a3557610a3533610a20868d6150ab565b60608501516001600160a01b03169190613895565b60975460408051878152602081018790527fcf292c3ff7d54582b495c8f5feaf2d6a840141d3b45b762ce150ae9328c6a278910160405180910390a26097546040518281526001600160a01b0389169133917f2c0f148b435140de488c1b34647f1511c646f7077e87007bacf22ef9977a16d89060200160405180910390a4505060016065819055509750975097945050505050565b6000670de0b6b3a764000060a454610ae391906150c2565b603554610af091906150e4565b905090565b60008060a160009054906101000a90046001600160a01b03166001600160a01b0316635c975abb6040518163ffffffff1660e01b8152600401602060405180830381865afa158015610b4b573d6000803e3d6000fd5b505050506040513d601f19601f82011682018060405250810190610b6f9190614fa7565b15610b8d57604051632a6ab56360e21b815260040160405180910390fd5b60026065541415610bb05760405162461bcd60e51b815260040161079490614fc9565b60026065556097548714610bd75760405163d832ff5d60e01b815260040160405180910390fd5b6000609860975481548110610bee57610bee615000565b6000918252602080832060408051608081018252600490940290910180546001600160a01b0390811685526001820154811693850193909352600281015483169184019190915260030154166060820152915080610c4b866138b9565b915091506000610c5a8a613a58565b6020850151855160405163deb03f4d60e01b81529293506001600160a01b039091169163deb03f4d91610c979185908e908e908e906004016150fc565b60408051808303816000875af1158015610cb5573d6000803e3d6000fd5b505050506040513d601f19601f82011682018060405250810190610cd9919061512c565b604086015191975095506001600160a01b031673bb4cdb9cbd36b01bd1cbaebf2de08d9173bc095c1415610d2457610d1183866150e4565b9450610d1d82876150e4565b9550610d83565b60608401516001600160a01b031673bb4cdb9cbd36b01bd1cbaebf2de08d9173bc095c1415610d6a57610d5783876150e4565b9550610d6382866150e4565b9450610d83565b6040516328df0b3160e21b815260040160405180910390fd5b60975460408051888152602081018890527fec8ea790e053f644b6490a17d81267d813f466d779e36cd538c56166bfb650f991015b60405180910390a26097546040518281526001600160a01b0389169133917ffeb2000dca3e617cd6f3a8bbb63014bb54a124aac6ccbf73ee7229b4cd01f1209060200160405180910390a450506001606555509197909650945050505050565b600033610e26858285613ba0565b610e31858585613c14565b60019150505b9392505050565b6000336106cb818585610e5183836131b8565b610e5b91906150e4565b6134cd565b60a160009054906101000a90046001600160a01b03166001600160a01b0316635c975abb6040518163ffffffff1660e01b8152600401602060405180830381865afa158015610eb3573d6000803e3d6000fd5b505050506040513d601f19601f82011682018060405250810190610ed79190614fa7565b15610ef557604051632a6ab56360e21b815260040160405180910390fd5b60026065541415610f185760405162461bcd60e51b815260040161079490614fc9565b600260655560a054604051632474521560e21b81527f77e60b99a50d27fb027f6912a507d956105b4148adab27a86d235c8bcca8fa2f60048201523360248201526001600160a01b03909116906391d1485490604401602060405180830381865afa158015610f8b573d6000803e3d6000fd5b505050506040513d601f19601f82011682018060405250810190610faf9190614fa7565b610fcc57604051634775a94f60e11b815260040160405180910390fd5b610fd4610acb565b610ff15760405163f58c8f9160e01b815260040160405180910390fd5b609d544314156110145760405163975c763f60e01b815260040160405180910390fd5b60985487101580611026575060975487145b156110445760405163d832ff5d60e01b815260040160405180910390fd5b600060986097548154811061105b5761105b615000565b6000918252602080832060408051608081018252600490940290910180546001600160a01b039081168552600182015481169385019390935260028101548316918401919091526003015416606082015260988054919350908a9081106110c4576110c4615000565b6000918252602080832060408051608081018252600494850290920180546001600160a01b039081168452600182015481168486015260028201548116848401526003909101548116606084015292870151875191516328dee51f60e11b81523095810195909552908316602485015290945016906351bdca3e90604401606060405180830381865afa15801561115f573d6000803e3d6000fd5b505050506040513d601f19601f820116820180604052508101906111839190615067565b505060208401518451604051636c27fc2160e11b81529293506001600160a01b039091169163d84ff842916111c3918590600090819030906004016150fc565b60408051808303816000875af11580156111e1573d6000803e3d6000fd5b505050506040513d601f19601f82011682018060405250810190611205919061512c565b505060408084015190516370a0823160e01b81523060048201526000916001600160a01b0316906370a0823190602401602060405180830381865afa158015611252573d6000803e3d6000fd5b505050506040513d601f19601f820116820180604052508101906112769190615150565b60608501516040516370a0823160e01b81523060048201529192506000916001600160a01b03909116906370a0823190602401602060405180830381865afa1580156112c6573d6000803e3d6000fd5b505050506040513d601f19601f820116820180604052508101906112ea9190615150565b905083604001516001600160a01b031685604001516001600160a01b03161461152f5760008060008060008f8f600490809261132893929190615169565b810190611335919061538d565b95509550955050945094508451600114158061135357508351600114155b80611392575089604001516001600160a01b03168560008151811061137a5761137a615000565b6020026020010151600001516001600160a01b031614155b806113d1575088604001516001600160a01b0316846000815181106113b9576113b9615000565b6020026020010151600001516001600160a01b031614155b156113ef5760405163994b1c7560e01b815260040160405180910390fd5b868560008151811061140357611403615000565b6020026020010151602001818152505089604001516001600160a01b031663095ea7b3739f138be5aa5cc442ea7cc7d18cd9e30593ed90b9896040518363ffffffff1660e01b8152600401611459929190615016565b6020604051808303816000875af1158015611478573d6000803e3d6000fd5b505050506040513d601f19601f8201168201806040525081019061149c9190614fa7565b506040516378bd22a360e11b8152739f138be5aa5cc442ea7cc7d18cd9e30593ed90b99063f17a4546906114e0908890889060001990899089908990600401615594565b6000604051808303816000875af11580156114ff573d6000803e3d6000fd5b505050506040513d6000823e601f3d908101601f19168201604052611527919081019061567b565b505050505050505b83606001516001600160a01b031685606001516001600160a01b0316146117725760008060008060008d8d600490809261156b93929190615169565b810190611578919061538d565b95509550955050945094508451600114158061159657508351600114155b806115d5575089606001516001600160a01b0316856000815181106115bd576115bd615000565b6020026020010151600001516001600160a01b031614155b80611614575088606001516001600160a01b0316846000815181106115fc576115fc615000565b6020026020010151600001516001600160a01b031614155b1561163257604051633a0357a960e21b815260040160405180910390fd5b858560008151811061164657611646615000565b6020026020010151602001818152505089606001516001600160a01b031663095ea7b3739f138be5aa5cc442ea7cc7d18cd9e30593ed90b9886040518363ffffffff1660e01b815260040161169c929190615016565b6020604051808303816000875af11580156116bb573d6000803e3d6000fd5b505050506040513d601f19601f820116820180604052508101906116df9190614fa7565b506040516378bd22a360e11b8152739f138be5aa5cc442ea7cc7d18cd9e30593ed90b99063f17a454690611723908890889060001990899089908990600401615594565b6000604051808303816000875af1158015611742573d6000803e3d6000fd5b505050506040513d6000823e601f3d908101601f1916820160405261176a919081019061567b565b505050505050505b60408085015190516370a0823160e01b81523060048201526000916001600160a01b0316906370a0823190602401602060405180830381865afa1580156117bd573d6000803e3d6000fd5b505050506040513d601f19601f820116820180604052508101906117e19190615150565b60608601516040516370a0823160e01b81523060048201529192506000916001600160a01b03909116906370a0823190602401602060405180830381865afa158015611831573d6000803e3d6000fd5b505050506040513d601f19601f820116820180604052508101906118559190615150565b905085606001516001600160a01b031663095ea7b38760200151836040518363ffffffff1660e01b815260040161188d929190615016565b6020604051808303816000875af11580156118ac573d6000803e3d6000fd5b505050506040513d601f19601f820116820180604052508101906118d09190614fa7565b5085604001516001600160a01b031663095ea7b38760200151846040518363ffffffff1660e01b8152600401611907929190615016565b6020604051808303816000875af1158015611926573d6000803e3d6000fd5b505050506040513d601f19601f8201168201806040525081019061194a9190614fa7565b5060208601518651604051633282f32f60e11b81526001600160a01b0390921691636505e65e9161198791869086908f908f90309060040161502f565b6060604051808303816000875af11580156119a6573d6000803e3d6000fd5b505050506040513d601f19601f820116820180604052508101906119ca9190615067565b60995550506040805160808101808352918801516370a0823160e01b9092523060848201529081906001600160a01b03166370a0823160a48301602060405180830381865afa158015611a21573d6000803e3d6000fd5b505050506040513d601f19601f82011682018060405250810190611a459190615150565b815260608801516040516370a0823160e01b81523060048201526020909201916001600160a01b03909116906370a0823190602401602060405180830381865afa158015611a97573d6000803e3d6000fd5b505050506040513d601f19601f82011682018060405250810190611abb9190615150565b8152602001611ac8610acb565b8152436020918201528151609a55810151609b55604080820151609c55606090910151609d5560975490518f91907faf62d6e59ad2e54c778a490827e6cb28b1d30794092c7367fdbb261b11de033690600090a350505060979a909a55505060016065555050505050505050565b6000808080806001600160a01b038616611b4f57600080fd5b60a054604051632474521560e21b81527f2dca0f5ce7e75a4b43fe2b0d6f5d0b7a2bf92ecf89f8f0aa17b8308b6703882160048201526001600160a01b038881166024830152909116906391d1485490604401602060405180830381865afa158015611bbf573d6000803e3d6000fd5b505050506040513d601f19601f82011682018060405250810190611be39190614fa7565b15611c6057670de0b6b3a7640000611bfb6000613ded565b611c06906002615713565b6001600160a01b038816600090815260a26020526040902060020154611c2c91906150e4565b611c3691906150c2565b6001600160a01b038716600090815260336020526040902054611c5991906150e4565b9050611cc8565b670de0b6b3a7640000611c7287613ded565b6001600160a01b038816600090815260a26020526040902060020154611c9891906150e4565b611ca291906150c2565b6001600160a01b038716600090815260336020526040902054611cc591906150e4565b90505b8015611eb0576000609860975481548110611ce557611ce5615000565b6000918252602080832060408051608081018252600494850290920180546001600160a01b0390811680855260018301548216958501869052600283015482168585015260039092015416606084015290516328dee51f60e11b815230948101949094526024840152935082916351bdca3e90604401606060405180830381865afa158015611d78573d6000803e3d6000fd5b505050506040513d601f19601f82011682018060405250810190611d9c9190615067565b92509250506000611dab610acb565b905080611db88487615713565b611dc291906150c2565b985080611dcf8387615713565b611dd991906150c2565b336000908152609f60209081526040808320609d54845290915290205490985060ff16158015611e0a5750609c5415155b15611eab57609c54609a546001600160a01b038c166000908152609e60209081526040808320609d548452909152902054611e4590886150ab565b611e4f9190615713565b611e5991906150c2565b609c54609b546001600160a01b038d166000908152609e60209081526040808320609d5484529091529020549299509091611e9490886150ab565b611e9e9190615713565b611ea891906150c2565b95505b505050505b509193509193565b60006001600160a01b038216611ed057506000919050565b60a054604051632474521560e21b81527f2dca0f5ce7e75a4b43fe2b0d6f5d0b7a2bf92ecf89f8f0aa17b8308b6703882160048201526001600160a01b038085166024830152849216906391d1485490604401602060405180830381865afa158015611f40573d6000803e3d6000fd5b505050506040513d601f19601f82011682018060405250810190611f649190614fa7565b15611f6e57600092505b611f7783613e60565b6001600160a01b038316600090815260a26020526040902060020154611fa690670de0b6b3a7640000906150c2565b9150811561204a57611fb88183613feb565b6001600160a01b038316600090815260a2602052604081206002015460a4805491929091611fe79084906150ab565b90915550506001600160a01b03808416600090815260a260205260408082206002019190915551908216907fdfeef5879c25440d1418a79a16489f0e739d22ac040c8c76f7b998fc704edeb8906120419085815260200190565b60405180910390a25b50919050565b600061205c60016140d7565b90508015612074576000805461ff0019166101001790555b60028310806120835750603283115b156120a1576040516304f68a0760e21b815260040160405180910390fd5b6120f16040518060400160405280601081526020016f554e4f2d4175746f537472617465677960801b815250604051806040016040528060068152602001650554e4f2d4c560d41b815250614164565b6120f9614195565b60005b838110156123ab57600085858381811061211857612118615000565b90506040020160200160208101906121309190614d4d565b6001600160a01b031663450efe2187878581811061215057612150615000565b6121669260206040909202019081019150614d4d565b6040516001600160e01b031960e084901b1681526001600160a01b039091166004820152602401600060405180830381865afa1580156121aa573d6000803e3d6000fd5b505050506040513d6000823e601f3d908101601f191682016040526121d29190810190615732565b9050600060405180608001604052808888868181106121f3576121f3615000565b6122099260206040909202019081019150614d4d565b6001600160a01b0316815260200188888681811061222957612229615000565b90506040020160200160208101906122419190614d4d565b6001600160a01b031681526020018360008151811061226257612262615000565b60200260200101516001600160a01b031681526020018360018151811061228b5761228b615000565b6020908102919091018101516001600160a01b0390811690925260988054600181018255600091909152835160049091027f2237a976fa961f5921fd19f2b03c925c725d77b20ce8f790c19709c03de4d814810180549285166001600160a01b0319938416179055918401517f2237a976fa961f5921fd19f2b03c925c725d77b20ce8f790c19709c03de4d8158301805491851691831691909117905560408401517f2237a976fa961f5921fd19f2b03c925c725d77b20ce8f790c19709c03de4d816830180549185169183169190911790556060909301517f2237a976fa961f5921fd19f2b03c925c725d77b20ce8f790c19709c03de4d8179091018054919092169216919091179055508190506123a3816157c0565b9150506120fc565b5060a080546001600160a01b0384166001600160a01b03199182161790915543609d5560a180549091163317905560a5805460ff19166001179055801561242c576000805461ff0019169055604051600181527f7f26b83ff96e1f2b6a682f133852f6798a09c465da95921460cefb38474024989060200160405180910390a15b50505050565b600080600060986097548154811061244c5761244c615000565b600091825260209182902060408051608081018252600493840290920180546001600160a01b0390811680855260018301548216968501879052600283015482168585015260039092015416606084015290516328dee51f60e11b81523093810193909352602483015292506351bdca3e90604401606060405180830381865afa1580156124de573d6000803e3d6000fd5b505050506040513d601f19601f820116820180604052508101906125029190615067565b60408481015190516370a0823160e01b81523060048201529296509094506001600160a01b031691506370a0823190602401602060405180830381865afa158015612551573d6000803e3d6000fd5b505050506040513d601f19601f820116820180604052508101906125759190615150565b61257f90846150e4565b60608201516040516370a0823160e01b81523060048201529194506001600160a01b0316906370a0823190602401602060405180830381865afa1580156125ca573d6000803e3d6000fd5b505050506040513d601f19601f820116820180604052508101906125ee9190615150565b6125f890836150e4565b9150509091565b600080600080600060a160009054906101000a90046001600160a01b03166001600160a01b0316635c975abb6040518163ffffffff1660e01b8152600401602060405180830381865afa15801561265a573d6000803e3d6000fd5b505050506040513d601f19601f8201168201806040525081019061267e9190614fa7565b1561269c57604051632a6ab56360e21b815260040160405180910390fd5b600260655414156126bf5760405162461bcd60e51b815260040161079490614fc9565b600260655560975489146126e65760405163d832ff5d60e01b815260040160405180910390fd5b60006098609754815481106126fd576126fd615000565b600091825260209182902060408051608081018252600490930290910180546001600160a01b03908116845260018201548116948401859052600282015481169284019290925260030154166060820152915061275a908a6141c6565b60208101518151604051634ce6b4ef60e11b81526000926001600160a01b0316916399cd69de913491612793918f903090600401615870565b60a06040518083038185885af11580156127b1573d6000803e3d6000fd5b50505050506040513d601f19601f820116820180604052508101906127d691906158a5565b939a509198509650945090506127ec898961365c565b6040830151909350612808906001600160a01b03163387613895565b6060820151612821906001600160a01b03163386613895565b60008061283f8c825b60200281019061283a91906158e5565b614454565b90925090506000806128528e600161282a565b915091508a831115612901576128678461448a565b156128e2576000336128798d866150ab565b604051600081818185875af1925050503d80600081146128b5576040519150601f19603f3d011682016040523d82523d6000602084013e6128ba565b606091505b50509050806128dc5760405163125bf52760e01b815260040160405180910390fd5b50612901565b612901336128f08d866150ab565b6001600160a01b0387169190613895565b898111156129ac576129128261448a565b1561298d576000336129248c846150ab565b604051600081818185875af1925050503d8060008114612960576040519150601f19603f3d011682016040523d82523d6000602084013e612965565b606091505b50509050806129875760405163125bf52760e01b815260040160405180910390fd5b506129ac565b6129ac3361299b8c846150ab565b6001600160a01b0385169190613895565b816001600160a01b0316846001600160a01b03166097547fa8aff30385906be11a40cbf544f385cb400068a2527d07b07a21fb2363c035278e8e6040516129fd929190918252602082015260400190565b60405180910390a46097546040518681526001600160a01b038f169133917f2c0f148b435140de488c1b34647f1511c646f7077e87007bacf22ef9977a16d89060200160405180910390a45050505050506001606581905550945094509450945094565b60606037805461063a90614f72565b6000806000609860975481548110612a8a57612a8a615000565b600091825260209182902060408051608081018252600490930290910180546001600160a01b0390811684526001820154811694840194909452600281015484169183018290526003015490921660609091018190529094909350915050565b60003381612af882866131b8565b905083811015612b585760405162461bcd60e51b815260206004820152602560248201527f45524332303a2064656372656173656420616c6c6f77616e63652062656c6f77604482015264207a65726f60d81b6064820152608401610794565b612b6582868684036134cd565b506001949350505050565b6000336106cb818585613c14565b600080600060a160009054906101000a90046001600160a01b03166001600160a01b0316635c975abb6040518163ffffffff1660e01b8152600401602060405180830381865afa158015612bd6573d6000803e3d6000fd5b505050506040513d601f19601f82011682018060405250810190612bfa9190614fa7565b15612c1857604051632a6ab56360e21b815260040160405180910390fd5b60026065541415612c3b5760405162461bcd60e51b815260040161079490614fc9565b60026065556097548914612c625760405163d832ff5d60e01b815260040160405180910390fd5b6000609860975481548110612c7957612c79615000565b6000918252602080832060408051608081018252600490940290910180546001600160a01b03908116855260018201548116938501939093526002810154831691840182905260030154909116606083015290925073bb4cdb9cbd36b01bd1cbaebf2de08d9173bc095c1415612cf457506060810151612d24565b60608201516001600160a01b031673bb4cdb9cbd36b01bd1cbaebf2de08d9173bc095c1415610d6a575060408101515b612d396001600160a01b03821633308d6135f1565b602082015160405163095ea7b360e01b81526001600160a01b0383169163095ea7b391612d6b91908e90600401615016565b6020604051808303816000875af1158015612d8a573d6000803e3d6000fd5b505050506040513d601f19601f82011682018060405250810190612dae9190614fa7565b50600082602001516001600160a01b031663fefa40943485600001518e8e8e306040518763ffffffff1660e01b8152600401612dee9594939291906150fc565b60606040518083038185885af1158015612e0c573d6000803e3d6000fd5b50505050506040513d601f19601f82011682018060405250810190612e319190615067565b91975095509050612e42888861365c565b9350858b1115612e5a57612e5a3361299b888e6150ab565b84341115612e9a57336108fc612e7087346150ab565b6040518115909202916000818181858888f19350505050158015612e98573d6000803e3d6000fd5b505b60975460408051888152602081018890527f33ec26ffa0eadd23ca7311e5f8f35ce115ffaf52cfea3180a7fdc6a592b09039910160405180910390a26097546040518281526001600160a01b038a169133917f2c0f148b435140de488c1b34647f1511c646f7077e87007bacf22ef9977a16d89060200160405180910390a4505050600160658190555096509650969350505050565b60988181548110612f4057600080fd5b600091825260209091206004909102018054600182015460028301546003909301546001600160a01b039283169450908216928216911684565b60008060a160009054906101000a90046001600160a01b03166001600160a01b0316635c975abb6040518163ffffffff1660e01b8152600401602060405180830381865afa158015612fd0573d6000803e3d6000fd5b505050506040513d601f19601f82011682018060405250810190612ff49190614fa7565b1561301257604051632a6ab56360e21b815260040160405180910390fd5b600260655414156130355760405162461bcd60e51b815260040161079490614fc9565b6002606555609754871461305c5760405163d832ff5d60e01b815260040160405180910390fd5b600060986097548154811061307357613073615000565b6000918252602080832060408051608081018252600490940290910180546001600160a01b03908116855260018201548116938501939093526002810154831691840191909152600301541660608201529150806130d0866138b9565b9150915060006130df8a613a58565b60208501518551604051636c27fc2160e11b81529293506001600160a01b039091169163d84ff8429161311c9185908e908e908e906004016150fc565b60408051808303816000875af115801561313a573d6000803e3d6000fd5b505050506040513d601f19601f8201168201806040525081019061315e919061512c565b909650945061316d83876150e4565b955061317982866150e4565b94506097547ff0ebf98d9ecd4f11114987b0de79d86c03a9b6e84e74d9503a38acabe0db862a8787604051610db8929190918252602082015260400190565b6001600160a01b03918216600090815260346020908152604080832093909416825291909152205490565b60008060008060a160009054906101000a90046001600160a01b03166001600160a01b0316635c975abb6040518163ffffffff1660e01b8152600401602060405180830381865afa15801561323c573d6000803e3d6000fd5b505050506040513d601f19601f820116820180604052508101906132609190614fa7565b1561327e57604051632a6ab56360e21b815260040160405180910390fd5b600260655414156132a15760405162461bcd60e51b815260040161079490614fc9565b600260655560975488146132c85760405163d832ff5d60e01b815260040160405180910390fd5b60006098609754815481106132df576132df615000565b6000918252602080832060408051608081018252600490940290910180546001600160a01b039081168552600182015481169385019390935260028101548316918401919091526003015416606082015291508061333c886138b9565b91509150600061334b8b613a58565b60208501518551604051631544ad6f60e11b81529293506001600160a01b0390911691632a895ade916133869185908f908f9060040161592b565b6080604051808303816000875af11580156133a5573d6000803e3d6000fd5b505050506040513d601f19601f820116820180604052508101906133c99190615967565b929a50909850965094506133dd83876150e4565b95506133e982866150e4565b94506134078a60015b60200281019061340291906158e5565b6144c3565b6001600160a01b031661341b8b60006133f2565b609754604080518c8152602081018c90529081018a9052606081018990526001600160a01b0392909216917f118754f73732546a16d53aae82ef571e79f458cadf2acdeb9b990d416936a0b89060800160405180910390a46097546040518281526001600160a01b038b169133917ffeb2000dca3e617cd6f3a8bbb63014bb54a124aac6ccbf73ee7229b4cd01f1209060200160405180910390a4505050506001606581905550945094509450949050565b6001600160a01b03831661352f5760405162461bcd60e51b8152602060048201526024808201527f45524332303a20617070726f76652066726f6d20746865207a65726f206164646044820152637265737360e01b6064820152608401610794565b6001600160a01b0382166135905760405162461bcd60e51b815260206004820152602260248201527f45524332303a20617070726f766520746f20746865207a65726f206164647265604482015261737360f01b6064820152608401610794565b6001600160a01b0383811660008181526034602090815260408083209487168084529482529182902085905590518481527f8c5be1e5ebec7d5bd14f71427d1e84f3dd0314c0f7b2291e5b200ac8c7c3b925910160405180910390a3505050565b6040516001600160a01b038085166024830152831660448201526064810182905261242c9085906323b872dd60e01b906084015b60408051601f198184030181529190526020810180516001600160e01b03166001600160e01b0319909316929092179091526144ee565b60008060986097548154811061367457613674615000565b6000918252602080832060408051608081018252600494850290920180546001600160a01b0390811680855260018301548216958501869052600283015482168585015260039092015416606084015290516328dee51f60e11b8152309481019490945260248401529350906351bdca3e90604401606060405180830381865afa158015613706573d6000803e3d6000fd5b505050506040513d601f19601f8201168201806040525081019061372a9190615067565b5050905060006099548261373e91906150ab565b9050600061374a610acb565b9050806137715761375d6103e8836150ab565b945061376c60016103e8613feb565b61378b565b60995461377e8284615713565b61378891906150c2565b94505b846137a95760405163827e7b7f60e01b815260040160405180910390fd5b33600090815260a360205260409020546001600160a01b03908116908716811461387e5733600090815260a36020908152604080832080546001600160a01b0319166001600160a01b038c1617905560339091528120549050801561387c5761381182613e60565b6001600160a01b038216600090815260a260205260408120600101805483929061383c9084906150ab565b9091555061384b905088613e60565b6001600160a01b038816600090815260a26020526040812060010180548392906138769084906150e4565b90915550505b505b6138888887613feb565b5050506099555092915050565b6138b48363a9059cbb60e01b8484604051602401613625929190615016565b505050565b336000908152609f60209081526040808320609d548452909152812054819060ff16613a5357609c5415613a2b5760006098609754815481106138fe576138fe615000565b600091825260208083206040805160808101825260049490940290910180546001600160a01b03908116855260018201548116858501526002820154811685840152600390910154166060840152609c54609a5433808752609e8552838720609d548852855283872054908752603390945291909420549294509161398391906150ab565b61398d9190615713565b61399791906150c2565b609c54609b54336000818152609e60209081526040808320609d5484528252808320549383526033909152902054939650919290916139d5916150ab565b6139df9190615713565b6139e991906150c2565b91508215613a0a576040810151613a0a906001600160a01b03168585613895565b8115613a29576060810151613a29906001600160a01b03168584613895565b505b336000908152609f60209081526040808320609d5484529091529020805460ff191660011790555b915091565b600080609860975481548110613a7057613a70615000565b6000918252602080832060408051608081018252600494850290920180546001600160a01b0390811680855260018301548216958501869052600283015482168585015260039092015416606084015290516328dee51f60e11b8152309481019490945260248401529350906351bdca3e90604401606060405180830381865afa158015613b02573d6000803e3d6000fd5b505050506040513d601f19601f82011682018060405250810190613b269190615067565b505090506000613b34610acb565b9050613b3f33611eb8565b613b4990866150e4565b945080613b568387615713565b613b6091906150c2565b935083613b805760405163827e7b7f60e01b815260040160405180910390fd5b613b8a33866145c0565b613b9484836150ab565b60995550919392505050565b6000613bac84846131b8565b9050600019811461242c5781811015613c075760405162461bcd60e51b815260206004820152601d60248201527f45524332303a20696e73756666696369656e7420616c6c6f77616e63650000006044820152606401610794565b61242c84848484036134cd565b6001600160a01b038316613c785760405162461bcd60e51b815260206004820152602560248201527f45524332303a207472616e736665722066726f6d20746865207a65726f206164604482015264647265737360d81b6064820152608401610794565b6001600160a01b038216613cda5760405162461bcd60e51b815260206004820152602360248201527f45524332303a207472616e7366657220746f20746865207a65726f206164647260448201526265737360e81b6064820152608401610794565b613ce583838361471a565b6001600160a01b03831660009081526033602052604090205481811015613d5d5760405162461bcd60e51b815260206004820152602660248201527f45524332303a207472616e7366657220616d6f756e7420657863656564732062604482015265616c616e636560d01b6064820152608401610794565b6001600160a01b03808516600090815260336020526040808220858503905591851681529081208054849290613d949084906150e4565b92505081905550826001600160a01b0316846001600160a01b03167fddf252ad1be2c89b69c2b068fc378daa952ba7f163c4a11628f55a4df523b3ef84604051613de091815260200190565b60405180910390a361242c565b6001600160a01b038116600090815260a260205260408120600181015490548115801590613e1a57508015155b8015613e265750804214155b15613e565781613e3682426150ab565b613e44906312e687bf615713565b613e4e9190615713565b949350505050565b5060009392505050565b60a55460ff16613eab57613e72610acb565b6000805260a26020527f8fa6f0ecb9543d3381552e96aa43533c7f086066e38816919ea0cfae371b342b5560a5805460ff191660011790555b6000613eb682613ded565b90508015613fce576001600160a01b038216613f3b57613ed7600282615713565b600080805260a26020527f8fa6f0ecb9543d3381552e96aa43533c7f086066e38816919ea0cfae371b342c80549293508392909190613f179084906150e4565b925050819055508060a46000828254613f3091906150e4565b90915550613fce9050565b6001600160a01b038216600090815260a2602052604081206002018054839290613f669084906150e4565b9091555050600080805260a26020527f8fa6f0ecb9543d3381552e96aa43533c7f086066e38816919ea0cfae371b342c8054839290613fa69084906150e4565b90915550613fb79050816002615713565b60a46000828254613fc891906150e4565b90915550505b506001600160a01b0316600090815260a260205260409020429055565b6001600160a01b0382166140415760405162461bcd60e51b815260206004820152601f60248201527f45524332303a206d696e7420746f20746865207a65726f2061646472657373006044820152606401610794565b61404d6000838361471a565b806035600082825461405f91906150e4565b90915550506001600160a01b0382166000908152603360205260408120805483929061408c9084906150e4565b90915550506040518181526001600160a01b038316906000907fddf252ad1be2c89b69c2b068fc378daa952ba7f163c4a11628f55a4df523b3ef9060200160405180910390a35b5050565b60008054610100900460ff161561411e578160ff1660011480156140fa5750303b155b6141165760405162461bcd60e51b81526004016107949061599d565b506000919050565b60005460ff8084169116106141455760405162461bcd60e51b81526004016107949061599d565b506000805460ff191660ff92909216919091179055600190565b919050565b600054610100900460ff1661418b5760405162461bcd60e51b8152600401610794906159eb565b6140d382826148b5565b600054610100900460ff166141bc5760405162461bcd60e51b8152600401610794906159eb565b6141c4614903565b565b60006141d282806158e5565b6141e0916004908290615169565b8101906141ed9190615a36565b5091506000905061420160208401846158e5565b61420f916004908290615169565b81019061421c9190615a36565b5091505080600001516001600160a01b031682600001516001600160a01b031614156142fd57815161424d9061448a565b6142f85760008160800151836080015161426791906150e4565b8351909150614281906001600160a01b03163330846135f1565b825160405163095ea7b360e01b81526001600160a01b039091169063095ea7b3906142b29088908590600401615016565b6020604051808303816000875af11580156142d1573d6000803e3d6000fd5b505050506040513d601f19601f820116820180604052508101906142f59190614fa7565b50505b61242c565b81516143089061448a565b6143a6576080820151825161432c916001600160a01b0390911690339030906135f1565b8151608083015160405163095ea7b360e01b81526001600160a01b039092169163095ea7b39161436191889190600401615016565b6020604051808303816000875af1158015614380573d6000803e3d6000fd5b505050506040513d601f19601f820116820180604052508101906143a49190614fa7565b505b80516143b19061448a565b61242c57608081015181516143d5916001600160a01b0390911690339030906135f1565b8051608082015160405163095ea7b360e01b81526001600160a01b039092169163095ea7b39161440a91889190600401615016565b6020604051808303816000875af1158015614429573d6000803e3d6000fd5b505050506040513d601f19601f8201168201806040525081019061444d9190614fa7565b5050505050565b600080806144658460048188615169565b8101906144729190615a36565b508051608090910151909450925050505b9250929050565b60006001600160a01b03821615806106d157506001600160a01b03821673eeeeeeeeeeeeeeeeeeeeeeeeeeeeeeeeeeeeeeee1492915050565b6000806144d38360048187615169565b8101906144e09190615a36565b506020015195945050505050565b6000614543826040518060400160405280602081526020017f5361666545524332303a206c6f772d6c6576656c2063616c6c206661696c6564815250856001600160a01b03166149319092919063ffffffff16565b8051909150156138b457808060200190518101906145619190614fa7565b6138b45760405162461bcd60e51b815260206004820152602a60248201527f5361666545524332303a204552433230206f7065726174696f6e20646964206e6044820152691bdd081cdd58d8d9595960b21b6064820152608401610794565b6001600160a01b0382166146205760405162461bcd60e51b815260206004820152602160248201527f45524332303a206275726e2066726f6d20746865207a65726f206164647265736044820152607360f81b6064820152608401610794565b61462c8260008361471a565b6001600160a01b038216600090815260336020526040902054818110156146a05760405162461bcd60e51b815260206004820152602260248201527f45524332303a206275726e20616d6f756e7420657863656564732062616c616e604482015261636560f01b6064820152608401610794565b6001600160a01b03831660009081526033602052604081208383039055603580548492906146cf9084906150ab565b90915550506040518281526000906001600160a01b038516907fddf252ad1be2c89b69c2b068fc378daa952ba7f163c4a11628f55a4df523b3ef9060200160405180910390a3505050565b6001600160a01b0383166000908152609e60209081526040808320609d548452909152902054811115614772576001600160a01b0383166000908152609e60209081526040808320609d5484529091528120556147ad565b6001600160a01b0383166000908152609e60209081526040808320609d548452909152812080548392906147a79084906150ab565b90915550505b6001600160a01b0382166000908152609e60209081526040808320609d548452909152812080548392906147e29084906150e4565b90915550506001600160a01b0383161561484c576001600160a01b03808416600090815260a360205260409020541661481a81613e60565b6001600160a01b038116600090815260a26020526040812060010180548492906148459084906150ab565b9091555050505b6001600160a01b038216156138b4576001600160a01b03808316600090815260a360205260409020541661487f81613e60565b6001600160a01b038116600090815260a26020526040812060010180548492906148aa9084906150e4565b909155505050505050565b600054610100900460ff166148dc5760405162461bcd60e51b8152600401610794906159eb565b81516148ef906036906020850190614a45565b5080516138b4906037906020840190614a45565b600054610100900460ff1661492a5760405162461bcd60e51b8152600401610794906159eb565b6001606555565b6060613e4e8484600085856001600160a01b0385163b6149935760405162461bcd60e51b815260206004820152601d60248201527f416464726573733a2063616c6c20746f206e6f6e2d636f6e74726163740000006044820152606401610794565b600080866001600160a01b031685876040516149af9190615b12565b60006040518083038185875af1925050503d80600081146149ec576040519150601f19603f3d011682016040523d82523d6000602084013e6149f1565b606091505b5091509150614a01828286614a0c565b979650505050505050565b60608315614a1b575081610e37565b825115614a2b5782518084602001fd5b8160405162461bcd60e51b81526004016107949190614b36565b828054614a5190614f72565b90600052602060002090601f016020900481019282614a735760008555614ab9565b82601f10614a8c57805160ff1916838001178555614ab9565b82800160010185558215614ab9579182015b82811115614ab9578251825591602001919060010190614a9e565b50614ac5929150614ac9565b5090565b5b80821115614ac55760008155600101614aca565b60005b83811015614af9578181015183820152602001614ae1565b8381111561242c5750506000910152565b60008151808452614b22816020860160208601614ade565b601f01601f19169290920160200192915050565b602081526000610e376020830184614b0a565b6001600160a01b0381168114614b5e57600080fd5b50565b60008060408385031215614b7457600080fd5b8235614b7f81614b49565b946020939093013593505050565b600080600080600080600060e0888a031215614ba857600080fd5b873596506020880135955060408801359450606088013593506080880135925060a0880135614bd681614b49565b915060c0880135614be681614b49565b8091505092959891949750929550565b600080600080600060a08688031215614c0e57600080fd5b853594506020860135935060408601359250606086013591506080860135614c3581614b49565b809150509295509295909350565b600080600060608486031215614c5857600080fd5b8335614c6381614b49565b92506020840135614c7381614b49565b929592945050506040919091013590565b60008083601f840112614c9657600080fd5b5081356001600160401b03811115614cad57600080fd5b60208301915083602082850101111561448357600080fd5b600080600080600080600060a0888a031215614ce057600080fd5b8735965060208801356001600160401b0380821115614cfe57600080fd5b614d0a8b838c01614c84565b909850965060408a0135915080821115614d2357600080fd5b50614d308a828b01614c84565b989b979a5095989597966060870135966080013595509350505050565b600060208284031215614d5f57600080fd5b8135610e3781614b49565b600080600060408486031215614d7f57600080fd5b83356001600160401b0380821115614d9657600080fd5b818601915086601f830112614daa57600080fd5b813581811115614db957600080fd5b8760208260061b8501011115614dce57600080fd5b60209283019550935050840135614de481614b49565b809150509250925092565b80604081018310156106d157600080fd5b60008060008060808587031215614e1657600080fd5b8435935060208501356001600160401b03811115614e3357600080fd5b614e3f87828801614def565b9350506040850135614e5081614b49565b91506060850135614e6081614b49565b939692955090935050565b60008060008060008060c08789031215614e8457600080fd5b863595506020870135945060408701359350606087013592506080870135614eab81614b49565b915060a0870135614ebb81614b49565b809150509295509295509295565b600060208284031215614edb57600080fd5b5035919050565b60008060408385031215614ef557600080fd5b8235614f0081614b49565b91506020830135614f1081614b49565b809150509250929050565b60008060008060808587031215614f3157600080fd5b843593506020850135925060408501356001600160401b03811115614f5557600080fd5b614f6187828801614def565b9250506060850135614e6081614b49565b600181811c90821680614f8657607f821691505b6020821081141561204a57634e487b7160e01b600052602260045260246000fd5b600060208284031215614fb957600080fd5b81518015158114610e3757600080fd5b6020808252601f908201527f5265656e7472616e637947756172643a207265656e7472616e742063616c6c00604082015260600190565b634e487b7160e01b600052603260045260246000fd5b6001600160a01b03929092168252602082015260400190565b6001600160a01b039687168152602081019590955260408501939093526060840191909152608083015290911660a082015260c00190565b60008060006060848603121561507c57600080fd5b8351925060208401519150604084015190509250925092565b634e487b7160e01b600052601160045260246000fd5b6000828210156150bd576150bd615095565b500390565b6000826150df57634e487b7160e01b600052601260045260246000fd5b500490565b600082198211156150f7576150f7615095565b500190565b6001600160a01b039586168152602081019490945260408401929092526060830152909116608082015260a00190565b6000806040838503121561513f57600080fd5b505080516020909101519092909150565b60006020828403121561516257600080fd5b5051919050565b6000808585111561517957600080fd5b8386111561518657600080fd5b5050820193919092039150565b634e487b7160e01b600052604160045260246000fd5b604051606081016001600160401b03811182821017156151cb576151cb615193565b60405290565b604051608081016001600160401b03811182821017156151cb576151cb615193565b60405160e081016001600160401b03811182821017156151cb576151cb615193565b604051601f8201601f191681016001600160401b038111828210171561523d5761523d615193565b604052919050565b60006001600160401b0382111561525e5761525e615193565b5060051b60200190565b600082601f83011261527957600080fd5b81356001600160401b0381111561529257615292615193565b6152a5601f8201601f1916602001615215565b8181528460208386010111156152ba57600080fd5b816020850160208301376000918101602001919091529392505050565b600082601f8301126152e857600080fd5b813560206152fd6152f883615245565b615215565b8281526060928302850182019282820191908785111561531c57600080fd5b8387015b858110156153755781818a0312156153385760008081fd5b6153406151a9565b813561534b81614b49565b8152818601358682015260408083013561536481614b49565b908201528452928401928101615320565b5090979650505050505050565b803561415f81614b49565b60008060008060008060c087890312156153a657600080fd5b6001600160401b03873511156153bb57600080fd5b8635870188601f8201126153ce57600080fd5b6153db6152f88235615245565b81358082526020808301929160051b8401018b10156153f957600080fd5b602083015b6020843560051b8501018110156154b8576001600160401b038135111561542457600080fd5b803584016080818e03601f1901121561543c57600080fd5b6154446151d1565b6154516020830135614b49565b602082013581526040820135602082015261546f6060830135614b49565b606082013560408201526001600160401b036080830135111561549157600080fd5b6154a48e60206080850135850101615268565b6060820152845250602092830192016153fe565b50975050506001600160401b03602088013511156154d557600080fd5b6154e588602089013589016152d7565b9450604087013593506060870135925061550160808801615382565b91506001600160401b0360a0880135111561551b57600080fd5b61552b8860a08901358901615268565b90509295509295509295565b600081518084526020808501945080840160005b8381101561558957815180516001600160a01b03908116895284820151858a015260409182015116908801526060909601959082019060010161554b565b509495945050505050565b600060c0820160c0835280895180835260e08501915060e08160051b86010192506020808c0160005b838110156156235787860360df19018552815180516001600160a01b03908116885284820151858901526040808301519091169088015260609081015160809188018290529061560f81890183614b0a565b9750505093820193908201906001016155bd565b5050858403818701525050506156398189615537565b905086604084015285606084015261565c60808401866001600160a01b03169052565b82810360a084015261566e8185614b0a565b9998505050505050505050565b6000806040838503121561568e57600080fd5b82516001600160401b038111156156a457600080fd5b8301601f810185136156b557600080fd5b805160206156c56152f883615245565b82815260059290921b830181019181810190888411156156e457600080fd5b938201935b83851015615702578451825293820193908201906156e9565b969091015195979596505050505050565b600081600019048311821515161561572d5761572d615095565b500290565b6000602080838503121561574557600080fd5b82516001600160401b0381111561575b57600080fd5b8301601f8101851361576c57600080fd5b805161577a6152f882615245565b81815260059190911b8201830190838101908783111561579957600080fd5b928401925b82841015614a015783516157b181614b49565b8252928401929084019061579e565b60006000198214156157d4576157d4615095565b5060010190565b600082604081018360005b60028110156158655783830387528135601e1987360301811261580857600080fd5b8601803560206001600160401b0382111561582257600080fd5b81360389131561583157600080fd5b8186528181840182880137600086830182015298890198601f909101601f19169094018401939290920191506001016157e6565b509095945050505050565b600060018060a01b0380861683526060602084015261589260608401866157db565b9150808416604084015250949350505050565b600080600080600060a086880312156158bd57600080fd5b5050835160208501516040860151606087015160809097015192989197509594509092509050565b6000808335601e198436030181126158fc57600080fd5b8301803591506001600160401b0382111561591657600080fd5b60200191503681900382131561448357600080fd5b600060018060a01b0380871683528560208401526080604084015261595360808401866157db565b915080841660608401525095945050505050565b6000806000806080858703121561597d57600080fd5b505082516020840151604085015160609095015191969095509092509050565b6020808252602e908201527f496e697469616c697a61626c653a20636f6e747261637420697320616c72656160408201526d191e481a5b9a5d1a585b1a5e995960921b606082015260800190565b6020808252602b908201527f496e697469616c697a61626c653a20636f6e7472616374206973206e6f74206960408201526a6e697469616c697a696e6760a81b606082015260800190565b6000806000838503610120811215615a4d57600080fd5b8435615a5881614b49565b935060e0601f1982011215615a6c57600080fd5b50615a756151f3565b6020850135615a8381614b49565b81526040850135615a9381614b49565b60208201526060850135615aa681614b49565b60408201526080850135615ab981614b49565b8060608301525060a0850135608082015260c085013560a082015260e085013560c0820152809250506101008401356001600160401b03811115615afc57600080fd5b615b0886828701615268565b9150509250925092565b60008251615b24818460208701614ade565b919091019291505056fea2646970667358221220aa25ee2b5364708e22c3fe70b34ddb676ab34ea08e07a3ddcdd4950f671e4af964736f6c634300080a0033",
  "immutableReferences": {},
  "source": "// SPDX-License-Identifier: MIT\r\npragma solidity 0.8.10;\r\n\r\nimport \"../interfaces/IOdosRouter.sol\";   \r\nimport \"../interfaces/IUnoAssetRouter.sol\";   \r\nimport \"../interfaces/IUnoAutoStrategyFactory.sol\";  \r\nimport \"../interfaces/IAggregationRouterV5.sol\";\r\nimport '@openzeppelin/contracts-upgradeable/security/ReentrancyGuardUpgradeable.sol';\r\nimport '@openzeppelin/contracts-upgradeable/token/ERC20/ERC20Upgradeable.sol';\r\nimport '@openzeppelin/contracts/token/ERC20/utils/SafeERC20.sol';\r\n\r\ncontract UnoAutoStrategy is Initializable, ERC20Upgradeable, ReentrancyGuardUpgradeable {\r\n    using SafeERC20 for IERC20;\r\n    /**\r\n     * @dev PoolInfo:\r\n     * {assetRouter} - UnoAssetRouter contract.\r\n     * {pool} - Pool address. \r\n     * {tokenA} - Pool's first token address.\r\n     * {tokenB} - Pool's second token address.\r\n     */\r\n    struct _PoolInfo {\r\n        address pool;\r\n        IUnoAssetRouter assetRouter;\r\n    }\r\n\r\n    struct PoolInfo {\r\n        address pool;\r\n        IUnoAssetRouter assetRouter;\r\n        IERC20 tokenA;\r\n        IERC20 tokenB;\r\n    }\r\n\r\n    /**\r\n     * @dev MoveLiquidityInfo:\r\n     * {leftoverA} - TokenA leftovers after MoveLiquidity() call.\r\n     * {leftoverB} - TokenB leftovers after MoveLiquidity() call. \r\n     * {totalSupply} - totalSupply after MoveLiquidity() call.\r\n     * {block} - MoveLiquidity() call block.\r\n     */\r\n    struct MoveLiquidityInfo {\r\n        uint256 leftoverA;\r\n        uint256 leftoverB;\r\n        uint256 totalSupply;\r\n        uint256 block;\r\n    }\r\n    \r\n    /**\r\n     * @dev Contract Variables:\r\n     * {OdosRouter} - Contract that executes swaps.\r\n\r\n     * {poolID} - Current pool the strategy uses ({pools} index).\r\n     * {pools} - Pools this strategy can use and move liquidity to.\r\n\r\n     * {reserveLP} - LP token reserve.\r\n     * {lastMoveInfo} - Info on last MoveLiquidity() block.\r\n     * {blockedLiquidty} - User's blocked LP tokens. Prevents user from stealing leftover tokens by depositing and exiting before moveLiquidity() has been called.\r\n     * {leftoversCollected} - Flag that prevents leftover token collection if they were already collected this MoveLiquidity() cycle.\r\n\r\n     * {accessManager} - Role manager contract.\r\n     * {factory} - The address of AutoStrategyFactory this contract was deployed by.\r\n\r\n     * {MINIMUM_LIQUIDITY} - Ameliorates rounding errors.\r\n     */\r\n\r\n    IOdosRouter private constant OdosRouter = IOdosRouter(0x9f138be5aA5cC442Ea7cC7D18cD9E30593ED90b9);\r\n\r\n    uint256 public poolID;\r\n    PoolInfo[] public pools;\r\n\r\n    uint256 private reserveLP;\r\n    MoveLiquidityInfo private lastMoveInfo;\r\n    mapping(address => mapping(uint256 => uint256)) private blockedLiquidty;\r\n    mapping(address => mapping(uint256 => bool)) private leftoversCollected;\r\n\r\n    IUnoAccessManager public accessManager;\r\n    IUnoAutoStrategyFactory public factory;\r\n\r\n    uint256 private constant MINIMUM_LIQUIDITY = 10**3;\r\n    bytes32 private constant LIQUIDITY_MANAGER_ROLE = keccak256('LIQUIDITY_MANAGER_ROLE');\r\n    address private constant WBNB = 0xbb4CdB9CBd36B01bD1cBaEBF2De08d9173bc095c;\r\n    bytes32 private constant FEE_COLLECTOR_ROLE = keccak256('FEE_COLLECTOR_ROLE');\r\n\r\n    struct ReferrerInfo {\r\n        uint256 lastFeeCollection;\r\n        uint256 deposits;\r\n        uint256 feeCollected;\r\n    }\r\n    /// @dev maps referrer address to referrer info\r\n    mapping(address => ReferrerInfo) private referrerInfo;\r\n    /// @dev maps referral to referrer\r\n    mapping(address => address) private referrers;\r\n    /// @dev This is added to totalSupply internaly to get rid of _mint() inside _collectFee() to avoid recursive fee collection.\r\n    uint256 private fantomTotalSupply;\r\n    bool private isInitialized;\r\n\r\n    event DepositPairTokens(uint256 indexed poolID, uint256 amountA, uint256 amountB);\r\n    event DepositPairTokensETH(uint256 indexed poolID, uint256 amountToken, uint256 amountETH);\r\n    event DepositTokensWithSwap(uint256 indexed poolID, IERC20 indexed token0, IERC20 indexed token1, uint256 sent0, uint256 sent1);\r\n    // Note: amountLP refers to LP tokens used in farms and staking pools, not UNO-LP this contract is.\r\n    // To get info for UNO-LP use mint/burn events\r\n    event Deposit(uint256 indexed poolID, address indexed from, address indexed recipient, uint256 amountLP);\r\n\r\n    event WithdrawPairTokens(uint256 indexed poolID, uint256 amountA, uint256 amountB);\r\n    event WithdrawPairTokensETH(uint256 indexed poolID, uint256 amountToken, uint256 amountETH);\r\n    event WithdrawTokensWithSwap(uint256 indexed poolID, IERC20 indexed token0, IERC20 indexed token1, uint256 amount0, uint256 amount1, uint256 amountA, uint256 amountB);\r\n    // Note: amountLP refers to LP tokens used in farms and staking pools, not UNO-LP this contract is.\r\n    // To get info for UNO-LP use mint/burn events\r\n    event Withdraw(uint256 indexed poolID, address indexed from, address indexed recipient, uint256 amountLP);\r\n\r\n    event MoveLiquidity(uint256 indexed previousPoolID, uint256 indexed nextPoolID);\r\n    event CollectFee(address indexed recipient, uint256 fee);\r\n\r\n    //To save contract size\r\n    error PAUSED();\r\n    error BAD_POOL_ID();\r\n    error BAD_POOL_COUNT();\r\n    error CALLER_NOT_LIQUIDITY_MANAGER();\r\n    error NO_LIQUIDITY();\r\n    error CANT_CALL_ON_THE_SAME_BLOCK();\r\n    error BAD_SWAP_A();\r\n    error BAD_SWAP_B();\r\n    error INSUFFICIENT_LIQUIDITY();\r\n    error NOT_ETH_POOL();\r\n    error TRANSFER_NOT_SUCCESSFUL();\r\n    error ETH_DEPOSIT_REJECTED();\r\n\r\n    modifier whenNotPaused(){\r\n        if(factory.paused()) revert PAUSED();\r\n        _;\r\n    }\r\n\r\n    // ============ Methods ============\r\n\r\n    receive() external payable {\r\n        //Reject deposits from EOA\r\n        if (msg.sender == tx.origin) revert ETH_DEPOSIT_REJECTED();\r\n    }\r\n\r\n    function initialize(_PoolInfo[] calldata poolInfos, IUnoAccessManager _accessManager) external initializer {\r\n        if((poolInfos.length < 2) || (poolInfos.length > 50)) revert BAD_POOL_COUNT();\r\n\r\n        __ERC20_init(\"UNO-AutoStrategy\", \"UNO-LP\");\r\n        __ReentrancyGuard_init();\r\n        \r\n        for (uint256 i = 0; i < poolInfos.length; i++) {\r\n            IERC20[] memory _tokens = IUnoAssetRouter(poolInfos[i].assetRouter).getTokens(poolInfos[i].pool);\r\n            PoolInfo memory pool = PoolInfo({\r\n                pool: poolInfos[i].pool,\r\n                assetRouter: poolInfos[i].assetRouter,\r\n                tokenA: _tokens[0],\r\n                tokenB: _tokens[1]\r\n            });\r\n            pools.push(pool);\r\n        }\r\n\r\n        accessManager = _accessManager;\r\n        lastMoveInfo.block = block.number;\r\n        factory = IUnoAutoStrategyFactory(msg.sender);\r\n        isInitialized = true;\r\n    }\r\n\r\n    /**\r\n     * @dev Deposits tokens in the pools[poolID] pool. Mints tokens representing user share. Emits {Deposit} event.\r\n     * @param pid - Current poolID. Throws revert if moveLiquidity() has been called before the transaction has been mined.\r\n     * @param amountA - Token A amount to deposit.\r\n     * @param amountB  - Token B amount to deposit.\r\n     * @param amountAMin - Bounds the extent to which the B/A price can go up before the transaction reverts.\r\n     * @param amountBMin - Bounds the extent to which the A/B price can go up before the transaction reverts.\r\n     * @param recipient - Address which will receive the deposit.\r\n     * @param referrer - Address the fees from {msg.sender}'s liquidity will be collected to\r\n     \r\n     * @return sentA - Deposited token A amount.\r\n     * @return sentB - Deposited token B amount.\r\n     * @return liquidity - Total liquidity minted for the {recipient}.\r\n     */\r\n    function deposit(uint256 pid, uint256 amountA, uint256 amountB, uint256 amountAMin, uint256 amountBMin, address recipient, address referrer) whenNotPaused nonReentrant external returns (uint256 sentA, uint256 sentB, uint256 liquidity) {\r\n        if(pid != poolID) revert BAD_POOL_ID();\r\n        PoolInfo memory pool = pools[poolID];\r\n\r\n        pool.tokenA.safeTransferFrom(msg.sender, address(this), amountA);\r\n        pool.tokenA.approve(address(pool.assetRouter), amountA);\r\n\r\n        pool.tokenB.safeTransferFrom(msg.sender, address(this), amountB);\r\n        pool.tokenB.approve(address(pool.assetRouter), amountB);\r\n\r\n        uint256 amountLP;\r\n        (sentA, sentB, amountLP) = pool.assetRouter.deposit(pool.pool, amountA, amountB, amountAMin, amountBMin, address(this));\r\n        liquidity = mint(recipient, referrer);\r\n\r\n        if(amountA > sentA){\r\n            pool.tokenA.safeTransfer(msg.sender, amountA - sentA);\r\n        }\r\n        if(amountB > sentB){\r\n            pool.tokenB.safeTransfer(msg.sender, amountB - sentB);\r\n        }\r\n\r\n        emit DepositPairTokens(poolID, sentA, sentB);\r\n        emit Deposit(poolID, msg.sender, recipient, amountLP); \r\n    }\r\n\r\n    /**\r\n     * @dev Deposits tokens in the pools[poolID] pool. Mints tokens representing user share. Emits {Deposit} event.\r\n     * @param pid - Current poolID. Throws revert if moveLiquidity() has been called before the transaction has been mined.\r\n     * @param amountToken - Token amount to deposit.\r\n     * @param amountTokenMin - Bounds the extent to which the TOKEN/WBNB price can go up before the transaction reverts.\r\n     * @param amountETHMin - Bounds the extent to which the WBNB/TOKEN price can go up before the transaction reverts.\r\n     * @param recipient - Address which will receive the deposit.\r\n     * @param referrer - Address the fees from {msg.sender}'s liquidity will be collected to\r\n     \r\n     * @return sentToken - Deposited token amount.\r\n     * @return sentETH - Deposited ETH amount.\r\n     * @return liquidity - Total liquidity minted for the {recipient}.\r\n     */\r\n    function depositETH(uint256 pid, uint256 amountToken, uint256 amountTokenMin, uint256 amountETHMin, address recipient, address referrer) whenNotPaused nonReentrant external payable returns (uint256 sentToken, uint256 sentETH, uint256 liquidity) {\r\n        if(pid != poolID) revert BAD_POOL_ID();\r\n        PoolInfo memory pool = pools[poolID];\r\n\r\n        IERC20 token;\r\n        if (address(pool.tokenA) == WBNB) {\r\n            token = pool.tokenB;\r\n        } else if (address(pool.tokenB) == WBNB) {\r\n            token = pool.tokenA;\r\n        } else revert NOT_ETH_POOL();\r\n\r\n        token.safeTransferFrom(msg.sender, address(this), amountToken);\r\n        token.approve(address(pool.assetRouter), amountToken);\r\n\r\n        uint256 amountLP;\r\n        (sentToken, sentETH, amountLP) = pool.assetRouter.depositETH{value: msg.value}(pool.pool, amountToken, amountTokenMin, amountETHMin, address(this));\r\n        liquidity = mint(recipient, referrer);\r\n\r\n        if(amountToken > sentToken){\r\n            token.safeTransfer(msg.sender, amountToken - sentToken);\r\n        }\r\n        if(msg.value > sentETH){\r\n            payable(msg.sender).transfer(msg.value - sentETH);\r\n        }\r\n\r\n        emit DepositPairTokensETH(poolID, sentToken, sentETH);\r\n        emit Deposit(poolID, msg.sender, recipient, amountLP); \r\n    }\r\n\r\n    /**\r\n     * @dev Deposits tokens in the pools[poolID] pool. Mints tokens representing user share. Emits {Deposit} event.\r\n     * @param pid - Current poolID. Throws revert if moveLiquidity() has been called before the transaction has been mined.\r\n     * @param swapData - Parameter with which 1inch router is being called with.\r\n     * @param recipient - Address which will receive the deposit.\r\n     * @param referrer - Address the fees from {msg.sender}'s liquidity will be collected to\r\n     \r\n     * @return sent0 - Tokens sent to the farm from the {swapData[0]}.\r\n     * @return sent1 - Tokens sent to the farm from the {swapData[1]}.\r\n     * @return dustA - {pool.tokenA} dust sent to the {msg.sender}.\r\n     * @return dustB - {pool.tokenB} dust sent to the {msg.sender}.\r\n     * @return liquidity - Total liquidity minted for the {recipient}.\r\n     */\r\n    function depositWithSwap(uint256 pid, bytes[2] calldata swapData, address recipient, address referrer) whenNotPaused nonReentrant payable external returns (uint256 sent0, uint256 sent1, uint256 dustA, uint256 dustB, uint256 liquidity) {\r\n        if(pid != poolID) revert BAD_POOL_ID();\r\n        PoolInfo memory pool = pools[poolID];\r\n\r\n        _transferSwapTokens(address(pool.assetRouter), swapData);\r\n\r\n        uint256 amountLP;\r\n        (sent0, sent1, dustA, dustB, amountLP) = pool.assetRouter.depositWithSwap{value: msg.value}(pool.pool, swapData, address(this));\r\n        liquidity = mint(recipient, referrer);\r\n\r\n        pool.tokenA.safeTransfer(msg.sender, dustA);\r\n        pool.tokenB.safeTransfer(msg.sender, dustB);\r\n\r\n        (IERC20 token0, uint256 amount0) = _getSwapParams(swapData[0]);//Could have done it in _transferSwapTokens to save gas, but can't because of Stack too deep error\r\n        (IERC20 token1, uint256 amount1) = _getSwapParams(swapData[1]);//Could have done it in _transferSwapTokens to save gas, but can't because of Stack too deep error\r\n\r\n        if(amount0 > sent0){\r\n            if(_isETH(token0)){\r\n                (bool success, ) = msg.sender.call{value: amount0 - sent0}(\"\");\r\n                if(!success) revert TRANSFER_NOT_SUCCESSFUL();\r\n            }else{\r\n                token0.safeTransfer(msg.sender, amount0 - sent0);\r\n            }\r\n        }\r\n        if(amount1 > sent1){\r\n            if(_isETH(token1)){\r\n                (bool success, ) = msg.sender.call{value: amount1 - sent1}(\"\");\r\n                if(!success) revert TRANSFER_NOT_SUCCESSFUL();\r\n            }else{\r\n                token1.safeTransfer(msg.sender, amount1 - sent1);\r\n            }\r\n        }\r\n\r\n        emit DepositTokensWithSwap(poolID, token0, token1, sent0, sent1);\r\n        emit Deposit(poolID, msg.sender, recipient, amountLP);\r\n    }\r\n\r\n    /**\r\n     * @dev Withdraws tokens from the {pools[poolID]} pool and sends them to the recipient. Burns tokens representing user share. Emits {Withdraw} event.\r\n     * @param pid - Current poolID. Throws revert if moveLiquidity() has been called before the transaction has been mined.\r\n     * @param liquidity - Liquidity to burn from this user.\r\n     * @param amountAMin - The minimum amount of tokenA that must be received from the pool for the transaction not to revert.\r\n     * @param amountBMin - The minimum amount of tokenB that must be received from the pool for the transaction not to revert.\r\n     * @param recipient - Address which will receive withdrawn tokens.\r\n     \r\n     * @return amountA - Token A amount sent to the {recipient}.\r\n     * @return amountB - Token B amount sent to the {recipient}.\r\n     */\r\n    function withdraw(uint256 pid, uint256 liquidity, uint256 amountAMin, uint256 amountBMin, address recipient) whenNotPaused nonReentrant external returns (uint256 amountA, uint256 amountB) {\r\n        if(pid != poolID) revert BAD_POOL_ID();\r\n        PoolInfo memory pool = pools[poolID];\r\n\r\n        (uint256 leftoverA, uint256 leftoverB) = collectLeftovers(recipient);\r\n\r\n        uint256 amountLP = burn(liquidity);\r\n        (amountA, amountB) = pool.assetRouter.withdraw(pool.pool, amountLP, amountAMin, amountBMin, recipient);\r\n\r\n        amountA += leftoverA;\r\n        amountB += leftoverB;\r\n\r\n        emit WithdrawPairTokens(poolID, amountA, amountB);\r\n        emit Withdraw(poolID, msg.sender, recipient, amountLP); \r\n    }\r\n\r\n    /**\r\n     * @dev Withdraws tokens from the {pools[poolID]} pool and sends them to the recipient. Burns tokens representing user share. Emits {Withdraw} event.\r\n     * @param pid - Current poolID. Throws revert if moveLiquidity() has been called before the transaction has been mined.\r\n     * @param liquidity - Liquidity to burn from this user.\r\n     * @param amountTokenMin - The minimum amount of tokenA that must be received from the pool for the transaction not to revert.\r\n     * @param amountETHMin - The minimum amount of tokenB that must be received from the pool for the transaction not to revert.\r\n     * @param recipient - Address which will receive withdrawn tokens.\r\n     \r\n     * @return amountToken - Token amount sent to the {recipient}.\r\n     * @return amountETH - MATIC amount sent to the {recipient}.\r\n     */\r\n    function withdrawETH(uint256 pid, uint256 liquidity, uint256 amountTokenMin, uint256 amountETHMin, address recipient) whenNotPaused nonReentrant external returns (uint256 amountToken, uint256 amountETH) {\r\n        if(pid != poolID) revert BAD_POOL_ID();\r\n        PoolInfo memory pool = pools[poolID];\r\n\r\n        (uint256 leftoverA, uint256 leftoverB) = collectLeftovers(recipient);\r\n\r\n        uint256 amountLP = burn(liquidity);\r\n        (amountToken, amountETH) = pool.assetRouter.withdrawETH(pool.pool, amountLP, amountTokenMin, amountETHMin, recipient);\r\n\r\n        if (address(pool.tokenA) == WBNB) {\r\n            amountETH += leftoverA;\r\n            amountToken += leftoverB;\r\n        } else if (address(pool.tokenB) == WBNB) {\r\n            amountToken += leftoverA;\r\n            amountETH += leftoverB;\r\n        } else revert NOT_ETH_POOL();\r\n\r\n        emit WithdrawPairTokensETH(poolID, amountToken, amountETH);\r\n        emit Withdraw(poolID, msg.sender, recipient, amountLP); \r\n    }\r\n\r\n    /**\r\n     * @dev Withdraws tokens from the {pools[poolID]} pool and sends them to the recipient. Burns tokens representing user share. Emits {Withdraw} event.\r\n     * @param pid - Current poolID. Throws revert if moveLiquidity() has been called before the transaction has been mined.\r\n     * @param liquidity - Liquidity to burn from this user.\r\n     * @param swapData - Parameter with which 1inch router is being called with.\r\n     * @param recipient - Address which will receive withdrawn tokens.\r\n     \r\n     * @return amount0 - Amount sent to the {recipient} from swapData[0].\r\n     * @return amount1 - Amount sent to the {recipient} from swapData[1].\r\n     * @return amountA - Token A dust sent to the {recipient}.\r\n     * @return amountB - Token B dust sent to the {recipient}.\r\n     */\r\n    function withdrawWithSwap(uint256 pid, uint256 liquidity, bytes[2] calldata swapData, address recipient) whenNotPaused nonReentrant external returns (uint256 amount0, uint256 amount1, uint256 amountA, uint256 amountB) {\r\n        if(pid != poolID) revert BAD_POOL_ID();\r\n        PoolInfo memory pool = pools[poolID];\r\n\r\n        (uint256 leftoverA, uint256 leftoverB) = collectLeftovers(recipient);\r\n\r\n        uint256 amountLP = burn(liquidity);\r\n        (amount0, amount1, amountA, amountB) = pool.assetRouter.withdrawWithSwap(pool.pool, amountLP, swapData, recipient);\r\n\r\n        amountA += leftoverA;\r\n        amountB += leftoverB;\r\n\r\n        emit WithdrawTokensWithSwap(poolID, _getSwapDstToken(swapData[0]), _getSwapDstToken(swapData[1]), amount0, amount1, amountA, amountB);\r\n        emit Withdraw(poolID, msg.sender, recipient, amountLP); \r\n    }\r\n\r\n    /**\r\n     * @dev Collects leftover tokens left from moveLiquidity() function.\r\n     * @param recipient - Address which will receive leftover tokens.\r\n     \r\n     * @return leftoverA - Token A amount sent to the {recipient}.\r\n     * @return leftoverB - Token B amount sent to the {recipient}.\r\n     */\r\n    function collectLeftovers(address recipient) internal returns (uint256 leftoverA, uint256 leftoverB){\r\n        if(!leftoversCollected[msg.sender][lastMoveInfo.block]){\r\n            if(lastMoveInfo.totalSupply != 0){\r\n                PoolInfo memory pool = pools[poolID];\r\n                leftoverA = (balanceOf(msg.sender) - blockedLiquidty[msg.sender][lastMoveInfo.block]) * lastMoveInfo.leftoverA / lastMoveInfo.totalSupply;\r\n                leftoverB = (balanceOf(msg.sender) - blockedLiquidty[msg.sender][lastMoveInfo.block]) * lastMoveInfo.leftoverB / lastMoveInfo.totalSupply;\r\n\r\n                if(leftoverA > 0){\r\n                    pool.tokenA.safeTransfer(recipient, leftoverA);\r\n                }\r\n                if(leftoverB > 0){\r\n                    pool.tokenB.safeTransfer(recipient, leftoverB);\r\n                }\r\n            }\r\n\r\n            leftoversCollected[msg.sender][lastMoveInfo.block] = true;\r\n        }\r\n    }\r\n\r\n    /**\r\n     * @dev Moves liquidity from {pools[poolID]} to {pools[_poolID]}. Emits {MoveLiquidity} event.\r\n     * @param _poolID - Pool ID to move liquidity to.\r\n     * @param swapAData - Data for tokenA swap.\r\n     * @param swapBData - Data for tokenB swap.\r\n     * @param amountAMin - The minimum amount of tokenA that must be deposited in {pools[_poolID]} for the transaction not to revert.\r\n     * @param amountBMin - The minimum amount of tokenB that must be deposited in {pools[_poolID]} for the transaction not to revert.\r\n     *\r\n     * Note: This function can only be called by LiquidityManager.\r\n     */\r\n    function moveLiquidity(uint256 _poolID, bytes calldata swapAData, bytes calldata swapBData, uint256 amountAMin, uint256 amountBMin) whenNotPaused nonReentrant external {\r\n        if(!accessManager.hasRole(LIQUIDITY_MANAGER_ROLE, msg.sender)) revert CALLER_NOT_LIQUIDITY_MANAGER();\r\n        if(totalSupply() == 0) revert NO_LIQUIDITY();\r\n        if(lastMoveInfo.block == block.number) revert CANT_CALL_ON_THE_SAME_BLOCK();\r\n        if((_poolID >= pools.length) || (_poolID == poolID)) revert BAD_POOL_ID();\r\n\r\n        PoolInfo memory currentPool = pools[poolID];\r\n        PoolInfo memory newPool = pools[_poolID];\r\n\r\n        (uint256 _totalDeposits,,) = currentPool.assetRouter.userStake(address(this), currentPool.pool);\r\n        currentPool.assetRouter.withdraw(currentPool.pool, _totalDeposits, 0, 0, address(this));\r\n\r\n        uint256 tokenABalance = currentPool.tokenA.balanceOf(address(this));\r\n        uint256 tokenBBalance = currentPool.tokenB.balanceOf(address(this));\r\n\r\n        if(currentPool.tokenA != newPool.tokenA){\r\n            (\r\n                IOdosRouter.inputToken[] memory inputs, \r\n                IOdosRouter.outputToken[] memory outputs, \r\n                ,\r\n                uint256 valueOutMin,\r\n                address executor,\r\n                bytes memory pathDefinition\r\n            ) = abi.decode(swapAData[4:], (IOdosRouter.inputToken[],IOdosRouter.outputToken[],uint256,uint256,address,bytes));\r\n\r\n            // More descriptive errors would be nice but our contract size is very limited\r\n            if(\r\n                ((inputs.length != 1) || (outputs.length != 1)) ||\r\n                (inputs[0].tokenAddress != address(currentPool.tokenA)) ||\r\n                (outputs[0].tokenAddress != address(newPool.tokenA))\r\n            ) revert BAD_SWAP_A();\r\n\r\n            inputs[0].amountIn = tokenABalance;\r\n            currentPool.tokenA.approve(address(OdosRouter), tokenABalance);\r\n            OdosRouter.swap(inputs, outputs, type(uint256).max, valueOutMin, executor, pathDefinition);\r\n        }\r\n\r\n        if(currentPool.tokenB != newPool.tokenB){\r\n            (\r\n                IOdosRouter.inputToken[] memory inputs,\r\n                IOdosRouter.outputToken[] memory outputs,\r\n                ,\r\n                uint256 valueOutMin,\r\n                address executor,\r\n                bytes memory pathDefinition\r\n            ) = abi.decode(swapBData[4:], (IOdosRouter.inputToken[],IOdosRouter.outputToken[],uint256,uint256,address,bytes));\r\n\r\n            // More descriptive errors would be nice but our contract size is very limited\r\n            if(\r\n                ((inputs.length != 1) || (outputs.length != 1)) ||\r\n                (inputs[0].tokenAddress != address(currentPool.tokenB)) ||\r\n                (outputs[0].tokenAddress != address(newPool.tokenB))\r\n            ) revert BAD_SWAP_B();\r\n\r\n            inputs[0].amountIn = tokenBBalance;\r\n            currentPool.tokenB.approve(address(OdosRouter), tokenBBalance);\r\n            OdosRouter.swap(inputs, outputs, type(uint256).max, valueOutMin, executor, pathDefinition);\r\n        }\r\n\r\n        uint256 newTokenABalance = newPool.tokenA.balanceOf(address(this));\r\n        uint256 newTokenBBalance = newPool.tokenB.balanceOf(address(this));\r\n        \r\n        newPool.tokenB.approve(address(newPool.assetRouter), newTokenBBalance);\r\n        newPool.tokenA.approve(address(newPool.assetRouter), newTokenABalance);\r\n        (,,reserveLP) = newPool.assetRouter.deposit(newPool.pool, newTokenABalance, newTokenBBalance, amountAMin, amountBMin, address(this));\r\n       \r\n        lastMoveInfo = MoveLiquidityInfo({\r\n            leftoverA: newPool.tokenA.balanceOf(address(this)),\r\n            leftoverB: newPool.tokenB.balanceOf(address(this)),\r\n            totalSupply: totalSupply(),\r\n            block: block.number\r\n        });\r\n\r\n        emit MoveLiquidity(poolID, _poolID); \r\n        poolID = _poolID;\r\n    }\r\n\r\n    /**\r\n     * @dev Returns tokens staked by the {_address}. \r\n     * @param _address - The address to check stakes for.\r\n\r\n     * @return stakeA - Token A stake.\r\n     * @return stakeB - Token B stake.\r\n     * @return leftoverA - Token A Leftovers obligated to the {_address} after moveLiquidity() function call.\r\n     * @return leftoverB - Token B Leftovers obligated to the {_address} after moveLiquidity() function call.\r\n     */\r\n    function userStake(address _address) external view returns (uint256 stakeA, uint256 stakeB, uint256 leftoverA, uint256 leftoverB) {\r\n        uint256 _balance;\r\n        if(_address == address(0)){\r\n            revert();\r\n        } else if(accessManager.hasRole(FEE_COLLECTOR_ROLE, _address)){\r\n            _balance = balanceOf(_address) + (referrerInfo[_address].feeCollected + _getReferrerFee(address(0)) * 2) / 1 ether;\r\n        } else {\r\n            _balance = balanceOf(_address) + (referrerInfo[_address].feeCollected + _getReferrerFee(_address)) / 1 ether;\r\n        }\r\n\r\n        if(_balance != 0){\r\n            PoolInfo memory pool = pools[poolID];\r\n            (, uint256 balanceA, uint256 balanceB) = pool.assetRouter.userStake(address(this), pool.pool);\r\n\r\n            uint256 _totalSupply = totalSupply();\r\n            stakeA = _balance * balanceA / _totalSupply; \r\n            stakeB = _balance * balanceB / _totalSupply; \r\n            if((!leftoversCollected[msg.sender][lastMoveInfo.block]) && (lastMoveInfo.totalSupply != 0)){\r\n                leftoverA = (_balance - blockedLiquidty[_address][lastMoveInfo.block]) * lastMoveInfo.leftoverA / lastMoveInfo.totalSupply;\r\n                leftoverB = (_balance - blockedLiquidty[_address][lastMoveInfo.block]) * lastMoveInfo.leftoverB / lastMoveInfo.totalSupply;\r\n            }\r\n        }\r\n    }\r\n        \r\n    /**\r\n     * @dev Returns total amount locked in the pool. \r\n     * @return totalDepositsA - Token A deposits.\r\n     * @return totalDepositsB - Token B deposits.\r\n     */     \r\n    function totalDeposits() external view returns(uint256 totalDepositsA, uint256 totalDepositsB){\r\n        PoolInfo memory pool = pools[poolID];\r\n        (, totalDepositsA, totalDepositsB) = pool.assetRouter.userStake(address(this), pool.pool);\r\n\r\n        // Add leftover tokens.\r\n        totalDepositsA += pool.tokenA.balanceOf(address(this));\r\n        totalDepositsB += pool.tokenB.balanceOf(address(this));\r\n    }\r\n\r\n    /**\r\n     * @dev Returns the number of pools in the strategy. \r\n     */\r\n    function poolsLength() external view returns(uint256){\r\n        return pools.length;\r\n    }\r\n\r\n    /**\t\r\n     * @dev Returns pair of tokens currently in use. \t\r\n     */\t\r\n    function tokens() external view returns(address, address){\t\r\n        PoolInfo memory pool = pools[poolID];\t\r\n        return (address(pool.tokenA), address(pool.tokenB));\t\r\n    }\r\n\r\n    function mint(address to, address referrer) internal returns (uint256 liquidity){\r\n        PoolInfo memory pool = pools[poolID];\r\n        (uint256 balanceLP,,) = pool.assetRouter.userStake(address(this), pool.pool);\r\n        uint256 amountLP = balanceLP - reserveLP;\r\n\r\n        uint256 _totalSupply = totalSupply();\r\n        if (_totalSupply == 0) {\r\n            liquidity = amountLP - MINIMUM_LIQUIDITY;\r\n            _mint(address(1), MINIMUM_LIQUIDITY);\r\n        } else {\r\n            liquidity = amountLP * _totalSupply / reserveLP;\r\n        }\r\n\r\n        if(liquidity == 0) revert INSUFFICIENT_LIQUIDITY();\r\n\r\n        address _referrer = referrers[msg.sender];\r\n        // Can change referrer only for sender\r\n        if(_referrer != referrer){\r\n            referrers[msg.sender] = referrer;\r\n            uint256 balance = balanceOf(msg.sender);\r\n            // If == 0, we don't need to call _collectFee\r\n            if(balance > 0){\r\n                // Update referrer fee & subtract balance from referrer's deposits\r\n                _collectFee(_referrer);\r\n                referrerInfo[_referrer].deposits -= balance;\r\n\r\n                // Add balance to new referrer's deposits\r\n                _collectFee(referrer);\r\n                referrerInfo[referrer].deposits += balance;\r\n            }\r\n        }\r\n\r\n        _mint(to, liquidity);\r\n        reserveLP = balanceLP;\r\n    }\r\n\r\n    function burn(uint256 liquidity) internal returns (uint256 amountLP) {\r\n        PoolInfo memory pool = pools[poolID];\r\n        (uint256 balanceLP,,) = pool.assetRouter.userStake(address(this), pool.pool);\r\n\r\n        uint256 _totalSupply = totalSupply();\r\n        // Collect fee for the caller to their address\r\n        liquidity += collectFee(msg.sender);\r\n        amountLP = liquidity * balanceLP / _totalSupply; \r\n        if(amountLP == 0) revert INSUFFICIENT_LIQUIDITY();\r\n        \r\n        _burn(msg.sender, liquidity);\r\n        reserveLP = balanceLP - amountLP;\r\n    }\r\n\r\n    /**\r\n      * @dev Collects fee and mints it to {referrer}.\r\n      * @param referrer - Address to collect fees for.\r\n      *\r\n      * @return fee - Fee collected.\r\n     */\r\n    function collectFee(address referrer) public returns (uint256 fee){\r\n        if(referrer == address(0)){\r\n            return 0;\r\n        }\r\n        \r\n        address recipient = referrer;\r\n        if(accessManager.hasRole(FEE_COLLECTOR_ROLE, referrer)){\r\n            referrer = address(0);\r\n        }\r\n\r\n        _collectFee(referrer);\r\n        fee = referrerInfo[referrer].feeCollected / 1 ether;\r\n        if(fee > 0){\r\n            _mint(recipient, fee);\r\n            fantomTotalSupply -= referrerInfo[referrer].feeCollected;\r\n            referrerInfo[referrer].feeCollected = 0;\r\n\r\n            emit CollectFee(recipient, fee);\r\n        }\r\n    }\r\n\r\n    function _getReferrerFee(address referrer) private view returns (uint256) {\r\n        uint256 deposits = referrerInfo[referrer].deposits;\r\n        uint256 lastFeeCollection = referrerInfo[referrer].lastFeeCollection;\r\n        if(deposits != 0 && lastFeeCollection != 0 && block.timestamp != lastFeeCollection){\r\n            // 60*60*24*365 = 31536000; 2% / 31536000 = 0.0000000634195839 % per second = 634195839 wei per second.\r\n            // Divide by 2 to mint equal amounts to feeCollector and to referrer.\r\n            return ((block.timestamp - lastFeeCollection) * 317097919 * deposits);\r\n        }\r\n        return 0;\r\n    }\r\n\r\n    function _collectFee(address referrer) private {\r\n        // Some autostrats were initialized before referral upgrade, so we initialize all liquidity as having address(0) as it's referrer here.\r\n        if(!isInitialized){\r\n            referrerInfo[address(0)].deposits = totalSupply();\r\n            isInitialized = true;\r\n        }\r\n\r\n        uint256 fee = _getReferrerFee(referrer);\r\n        if(fee > 0){\r\n            //referrer == address(0) is a special case for uno's fee collector.\r\n            if(referrer == address(0)){\r\n                fee *= 2;\r\n                referrerInfo[address(0)].feeCollected += fee;\r\n                fantomTotalSupply += fee;\r\n            } else {\r\n                referrerInfo[referrer].feeCollected += fee;\r\n                referrerInfo[address(0)].feeCollected += fee;\r\n                fantomTotalSupply += fee * 2;\r\n            }\r\n        }\r\n        \r\n        referrerInfo[referrer].lastFeeCollection = block.timestamp;\r\n    }\r\n\r\n    function _transferSwapTokens(address assetRouter, bytes[2] calldata swapData) internal {\r\n        (,IAggregationRouterV5.SwapDescription memory desc0,) = abi.decode(swapData[0][4:], (address, IAggregationRouterV5.SwapDescription, bytes));\r\n        (,IAggregationRouterV5.SwapDescription memory desc1,) = abi.decode(swapData[1][4:], (address, IAggregationRouterV5.SwapDescription, bytes));\r\n\r\n        if(desc0.srcToken == desc1.srcToken){\r\n            if(!_isETH(desc0.srcToken)){\r\n                uint256 amount = desc0.amount + desc1.amount;\r\n                desc0.srcToken.safeTransferFrom(msg.sender, address(this), amount);\r\n                desc0.srcToken.approve(assetRouter, amount);\r\n            }\r\n        }else{\r\n            if(!_isETH(desc0.srcToken)){\r\n                desc0.srcToken.safeTransferFrom(msg.sender, address(this), desc0.amount);\r\n                desc0.srcToken.approve(assetRouter, desc0.amount);\r\n            }\r\n            if(!_isETH(desc1.srcToken)){\r\n                desc1.srcToken.safeTransferFrom(msg.sender, address(this), desc1.amount);\r\n                desc1.srcToken.approve(assetRouter, desc1.amount);\r\n            }\r\n        }\r\n    }\r\n\r\n    function _getSwapParams(bytes calldata swapData) internal pure returns(IERC20, uint256){\r\n        (,IAggregationRouterV5.SwapDescription memory desc,) = abi.decode(swapData[4:], (address, IAggregationRouterV5.SwapDescription, bytes));\r\n        return (desc.srcToken, desc.amount);\r\n    }\r\n\r\n    function _isETH(IERC20 token) internal pure returns(bool){\r\n        return (address(token) == address(0) || address(token) == address(0xEeeeeEeeeEeEeeEeEeEeeEEEeeeeEeeeeeeeEEeE));\r\n    }\r\n\r\n    function _getSwapDstToken(bytes calldata swapData) internal pure returns(IERC20){\r\n        (,IAggregationRouterV5.SwapDescription memory desc,) = abi.decode(swapData[4:], (address, IAggregationRouterV5.SwapDescription, bytes));\r\n        return desc.dstToken;\r\n    }\r\n\r\n    function _beforeTokenTransfer(address from, address to, uint256 amount) internal virtual override {\r\n        super._beforeTokenTransfer(from, to, amount);\r\n\r\n        // Decrease blockedLiquidty from {from} address, but no less then 0.\r\n        if(amount > blockedLiquidty[from][lastMoveInfo.block]){\r\n            blockedLiquidty[from][lastMoveInfo.block] = 0;\r\n        } else {\r\n            blockedLiquidty[from][lastMoveInfo.block] -= amount;\r\n        }\r\n        // Block {to} address from withdrawing their share of leftover tokens immediately.\r\n        blockedLiquidty[to][lastMoveInfo.block] += amount;\r\n\r\n        if(from != address(0)){\r\n            //Decrease referralDeposits from {from}'s referrer\r\n            address referrer = referrers[from];\r\n            _collectFee(referrer);\r\n            referrerInfo[referrer].deposits -= amount;\r\n        }\r\n        if(to != address(0)){\r\n            //Add referralDeposits to {to}'s referrer\r\n            address referrer = referrers[to];\r\n            _collectFee(referrer);\r\n            referrerInfo[referrer].deposits += amount;\r\n        }\r\n    }\r\n\r\n    function totalSupply() public view override returns (uint256) {\r\n        return super.totalSupply() + (fantomTotalSupply / 1 ether);\r\n    }\r\n}",
  "sourcePath": "C:\\Users\\jugli\\Desktop\\uno\\uno-contracts-bsc\\contracts\\autostrategy\\UnoAutoStrategy.sol",
  "compiler": {
    "name": "solc",
    "version": "0.8.10+commit.fc410830.Emscripten.clang"
  },
  "schemaVersion": "3.4.13",
  "updatedAt": "2023-06-21T11:33:55.588Z",
  "devdoc": {
    "kind": "dev",
    "methods": {
      "allowance(address,address)": {
        "details": "See {IERC20-allowance}."
      },
      "approve(address,uint256)": {
        "details": "See {IERC20-approve}. NOTE: If `amount` is the maximum `uint256`, the allowance is not updated on `transferFrom`. This is semantically equivalent to an infinite approval. Requirements: - `spender` cannot be the zero address."
      },
      "balanceOf(address)": {
        "details": "See {IERC20-balanceOf}."
      },
      "collectFee(address)": {
        "details": "Collects fee and mints it to {referrer}.",
        "params": {
          "referrer": "- Address to collect fees for."
        },
        "returns": {
          "fee": "- Fee collected."
        }
      },
      "decimals()": {
        "details": "Returns the number of decimals used to get its user representation. For example, if `decimals` equals `2`, a balance of `505` tokens should be displayed to a user as `5.05` (`505 / 10 ** 2`). Tokens usually opt for a value of 18, imitating the relationship between Ether and Wei. This is the value {ERC20} uses, unless this function is overridden; NOTE: This information is only used for _display_ purposes: it in no way affects any of the arithmetic of the contract, including {IERC20-balanceOf} and {IERC20-transfer}."
      },
      "decreaseAllowance(address,uint256)": {
        "details": "Atomically decreases the allowance granted to `spender` by the caller. This is an alternative to {approve} that can be used as a mitigation for problems described in {IERC20-approve}. Emits an {Approval} event indicating the updated allowance. Requirements: - `spender` cannot be the zero address. - `spender` must have allowance for the caller of at least `subtractedValue`."
      },
      "deposit(uint256,uint256,uint256,uint256,uint256,address,address)": {
        "details": "Deposits tokens in the pools[poolID] pool. Mints tokens representing user share. Emits {Deposit} event.",
        "params": {
          "amountA": "- Token A amount to deposit.",
          "amountAMin": "- Bounds the extent to which the B/A price can go up before the transaction reverts.",
          "amountB": "- Token B amount to deposit.",
          "amountBMin": "- Bounds the extent to which the A/B price can go up before the transaction reverts.",
          "pid": "- Current poolID. Throws revert if moveLiquidity() has been called before the transaction has been mined.",
          "recipient": "- Address which will receive the deposit.",
          "referrer": "- Address the fees from {msg.sender}'s liquidity will be collected to"
        },
        "returns": {
          "liquidity": "- Total liquidity minted for the {recipient}.",
          "sentA": "- Deposited token A amount.",
          "sentB": "- Deposited token B amount."
        }
      },
      "depositETH(uint256,uint256,uint256,uint256,address,address)": {
        "details": "Deposits tokens in the pools[poolID] pool. Mints tokens representing user share. Emits {Deposit} event.",
        "params": {
          "amountETHMin": "- Bounds the extent to which the WBNB/TOKEN price can go up before the transaction reverts.",
          "amountToken": "- Token amount to deposit.",
          "amountTokenMin": "- Bounds the extent to which the TOKEN/WBNB price can go up before the transaction reverts.",
          "pid": "- Current poolID. Throws revert if moveLiquidity() has been called before the transaction has been mined.",
          "recipient": "- Address which will receive the deposit.",
          "referrer": "- Address the fees from {msg.sender}'s liquidity will be collected to"
        },
        "returns": {
          "liquidity": "- Total liquidity minted for the {recipient}.",
          "sentETH": "- Deposited ETH amount.",
          "sentToken": "- Deposited token amount."
        }
      },
      "depositWithSwap(uint256,bytes[2],address,address)": {
        "details": "Deposits tokens in the pools[poolID] pool. Mints tokens representing user share. Emits {Deposit} event.",
        "params": {
          "pid": "- Current poolID. Throws revert if moveLiquidity() has been called before the transaction has been mined.",
          "recipient": "- Address which will receive the deposit.",
          "referrer": "- Address the fees from {msg.sender}'s liquidity will be collected to",
          "swapData": "- Parameter with which 1inch router is being called with."
        },
        "returns": {
          "dustA": "- {pool.tokenA} dust sent to the {msg.sender}.",
          "dustB": "- {pool.tokenB} dust sent to the {msg.sender}.",
          "liquidity": "- Total liquidity minted for the {recipient}.",
          "sent0": "- Tokens sent to the farm from the {swapData[0]}.",
          "sent1": "- Tokens sent to the farm from the {swapData[1]}."
        }
      },
      "increaseAllowance(address,uint256)": {
        "details": "Atomically increases the allowance granted to `spender` by the caller. This is an alternative to {approve} that can be used as a mitigation for problems described in {IERC20-approve}. Emits an {Approval} event indicating the updated allowance. Requirements: - `spender` cannot be the zero address."
      },
      "moveLiquidity(uint256,bytes,bytes,uint256,uint256)": {
        "details": "Moves liquidity from {pools[poolID]} to {pools[_poolID]}. Emits {MoveLiquidity} event.",
        "params": {
          "_poolID": "- Pool ID to move liquidity to.",
          "amountAMin": "- The minimum amount of tokenA that must be deposited in {pools[_poolID]} for the transaction not to revert.",
          "amountBMin": "- The minimum amount of tokenB that must be deposited in {pools[_poolID]} for the transaction not to revert. Note: This function can only be called by LiquidityManager.",
          "swapAData": "- Data for tokenA swap.",
          "swapBData": "- Data for tokenB swap."
        }
      },
      "name()": {
        "details": "Returns the name of the token."
      },
      "poolsLength()": {
        "details": "Returns the number of pools in the strategy. "
      },
      "symbol()": {
        "details": "Returns the symbol of the token, usually a shorter version of the name."
      },
      "tokens()": {
        "details": "Returns pair of tokens currently in use. \t"
      },
      "totalDeposits()": {
        "details": "Returns total amount locked in the pool. ",
        "returns": {
          "totalDepositsA": "- Token A deposits.",
          "totalDepositsB": "- Token B deposits."
        }
      },
      "totalSupply()": {
        "details": "See {IERC20-totalSupply}."
      },
      "transfer(address,uint256)": {
        "details": "See {IERC20-transfer}. Requirements: - `to` cannot be the zero address. - the caller must have a balance of at least `amount`."
      },
      "transferFrom(address,address,uint256)": {
        "details": "See {IERC20-transferFrom}. Emits an {Approval} event indicating the updated allowance. This is not required by the EIP. See the note at the beginning of {ERC20}. NOTE: Does not update the allowance if the current allowance is the maximum `uint256`. Requirements: - `from` and `to` cannot be the zero address. - `from` must have a balance of at least `amount`. - the caller must have allowance for ``from``'s tokens of at least `amount`."
      },
      "userStake(address)": {
        "details": "Returns tokens staked by the {_address}. ",
        "params": {
          "_address": "- The address to check stakes for."
        },
        "returns": {
          "leftoverA": "- Token A Leftovers obligated to the {_address} after moveLiquidity() function call.",
          "leftoverB": "- Token B Leftovers obligated to the {_address} after moveLiquidity() function call.",
          "stakeA": "- Token A stake.",
          "stakeB": "- Token B stake."
        }
      },
      "withdraw(uint256,uint256,uint256,uint256,address)": {
        "details": "Withdraws tokens from the {pools[poolID]} pool and sends them to the recipient. Burns tokens representing user share. Emits {Withdraw} event.",
        "params": {
          "amountAMin": "- The minimum amount of tokenA that must be received from the pool for the transaction not to revert.",
          "amountBMin": "- The minimum amount of tokenB that must be received from the pool for the transaction not to revert.",
          "liquidity": "- Liquidity to burn from this user.",
          "pid": "- Current poolID. Throws revert if moveLiquidity() has been called before the transaction has been mined.",
          "recipient": "- Address which will receive withdrawn tokens."
        },
        "returns": {
          "amountA": "- Token A amount sent to the {recipient}.",
          "amountB": "- Token B amount sent to the {recipient}."
        }
      },
      "withdrawETH(uint256,uint256,uint256,uint256,address)": {
        "details": "Withdraws tokens from the {pools[poolID]} pool and sends them to the recipient. Burns tokens representing user share. Emits {Withdraw} event.",
        "params": {
          "amountETHMin": "- The minimum amount of tokenB that must be received from the pool for the transaction not to revert.",
          "amountTokenMin": "- The minimum amount of tokenA that must be received from the pool for the transaction not to revert.",
          "liquidity": "- Liquidity to burn from this user.",
          "pid": "- Current poolID. Throws revert if moveLiquidity() has been called before the transaction has been mined.",
          "recipient": "- Address which will receive withdrawn tokens."
        },
        "returns": {
          "amountETH": "- MATIC amount sent to the {recipient}.",
          "amountToken": "- Token amount sent to the {recipient}."
        }
      },
      "withdrawWithSwap(uint256,uint256,bytes[2],address)": {
        "details": "Withdraws tokens from the {pools[poolID]} pool and sends them to the recipient. Burns tokens representing user share. Emits {Withdraw} event.",
        "params": {
          "liquidity": "- Liquidity to burn from this user.",
          "pid": "- Current poolID. Throws revert if moveLiquidity() has been called before the transaction has been mined.",
          "recipient": "- Address which will receive withdrawn tokens.",
          "swapData": "- Parameter with which 1inch router is being called with."
        },
        "returns": {
          "amount0": "- Amount sent to the {recipient} from swapData[0].",
          "amount1": "- Amount sent to the {recipient} from swapData[1].",
          "amountA": "- Token A dust sent to the {recipient}.",
          "amountB": "- Token B dust sent to the {recipient}."
        }
      }
    },
    "stateVariables": {
      "OdosRouter": {
        "details": "Contract Variables: {OdosRouter} - Contract that executes swaps. {poolID} - Current pool the strategy uses ({pools} index). {pools} - Pools this strategy can use and move liquidity to. {reserveLP} - LP token reserve. {lastMoveInfo} - Info on last MoveLiquidity() block. {blockedLiquidty} - User's blocked LP tokens. Prevents user from stealing leftover tokens by depositing and exiting before moveLiquidity() has been called. {leftoversCollected} - Flag that prevents leftover token collection if they were already collected this MoveLiquidity() cycle. {accessManager} - Role manager contract. {factory} - The address of AutoStrategyFactory this contract was deployed by. {MINIMUM_LIQUIDITY} - Ameliorates rounding errors."
      },
      "fantomTotalSupply": {
        "details": "This is added to totalSupply internaly to get rid of _mint() inside _collectFee() to avoid recursive fee collection."
      },
      "referrerInfo": {
        "details": "maps referrer address to referrer info"
      },
      "referrers": {
        "details": "maps referral to referrer"
      }
    },
    "version": 1
  },
  "userdoc": {
    "kind": "user",
    "methods": {},
    "version": 1
  }
}