{
  "contractName": "UnoAccessManager",
  "abi": [
    {
      "inputs": [],
      "stateMutability": "nonpayable",
      "type": "constructor"
    },
    {
      "anonymous": false,
      "inputs": [
        {
          "indexed": true,
          "internalType": "bytes32",
          "name": "role",
          "type": "bytes32"
        },
        {
          "indexed": true,
          "internalType": "address",
          "name": "account",
          "type": "address"
        }
      ],
      "name": "RoleGranted",
      "type": "event"
    },
    {
      "anonymous": false,
      "inputs": [
        {
          "indexed": true,
          "internalType": "bytes32",
          "name": "role",
          "type": "bytes32"
        },
        {
          "indexed": true,
          "internalType": "address",
          "name": "account",
          "type": "address"
        }
      ],
      "name": "RoleRevoked",
      "type": "event"
    },
    {
      "inputs": [],
      "name": "ADMIN_ROLE",
      "outputs": [
        {
          "internalType": "bytes32",
          "name": "",
          "type": "bytes32"
        }
      ],
      "stateMutability": "view",
      "type": "function",
      "constant": true
    },
    {
      "inputs": [
        {
          "internalType": "bytes32",
          "name": "role",
          "type": "bytes32"
        },
        {
          "internalType": "address",
          "name": "account",
          "type": "address"
        }
      ],
      "name": "hasRole",
      "outputs": [
        {
          "internalType": "bool",
          "name": "",
          "type": "bool"
        }
      ],
      "stateMutability": "view",
      "type": "function",
      "constant": true
    },
    {
      "inputs": [
        {
          "internalType": "bytes32",
          "name": "role",
          "type": "bytes32"
        },
        {
          "internalType": "address",
          "name": "account",
          "type": "address"
        }
      ],
      "name": "grantRole",
      "outputs": [],
      "stateMutability": "nonpayable",
      "type": "function"
    },
    {
      "inputs": [
        {
          "internalType": "bytes32",
          "name": "role",
          "type": "bytes32"
        },
        {
          "internalType": "address",
          "name": "account",
          "type": "address"
        }
      ],
      "name": "revokeRole",
      "outputs": [],
      "stateMutability": "nonpayable",
      "type": "function"
    }
  ],
  "bytecode": "0x608060405234801561001057600080fd5b5061001c600033610021565b6100a3565b6000828152602081815260408083206001600160a01b038516845290915290205460ff1661009f576000828152602081815260408083206001600160a01b0385168085529252808320805460ff1916600117905551909184917f2ae6a113c0ed5b78a53413ffbb7679881f11145ccfba4fb92e863dfcd5a1d2f39190a35b5050565b6102cf806100b26000396000f3fe608060405234801561001057600080fd5b506004361061004c5760003560e01c80632f2ff15d1461005157806375b238fc1461006657806391d1485414610081578063d547741f146100a4575b600080fd5b61006461005f36600461025d565b6100b7565b005b61006e600081565b6040519081526020015b60405180910390f35b61009461008f36600461025d565b610114565b6040519015158152602001610078565b6100646100b236600461025d565b61013d565b6100c2600033610114565b6101065760405162461bcd60e51b815260206004820152601060248201526f21a0a62622a92fa727aa2fa0a226a4a760811b60448201526064015b60405180910390fd5b6101108282610191565b5050565b6000918252602082815260408084206001600160a01b0393909316845291905290205460ff1690565b610148600033610114565b6101875760405162461bcd60e51b815260206004820152601060248201526f21a0a62622a92fa727aa2fa0a226a4a760811b60448201526064016100fd565b61011082826101f8565b61019b8282610114565b610110576000828152602081815260408083206001600160a01b0385168085529252808320805460ff1916600117905551909184917f2ae6a113c0ed5b78a53413ffbb7679881f11145ccfba4fb92e863dfcd5a1d2f39190a35050565b6102028282610114565b15610110576000828152602081815260408083206001600160a01b0385168085529252808320805460ff1916905551909184917f155aaafb6329a2098580462df33ec4b7441b19729b9601c5fc17ae1cf99a8a529190a35050565b6000806040838503121561027057600080fd5b8235915060208301356001600160a01b038116811461028e57600080fd5b80915050925092905056fea2646970667358221220f6399e82438e097584cf74939cc29cff133a4a75753d2da18ff8c59ab182305064736f6c634300080a0033",
  "immutableReferences": {},
  "source": "// SPDX-License-Identifier: MIT\npragma solidity 0.8.10;\npragma experimental ABIEncoderV2;\n\ncontract UnoAccessManager {\n    bytes32 public constant ADMIN_ROLE = 0x00;\n    mapping(bytes32 => mapping(address => bool)) private _roles;\n\n    event RoleGranted(bytes32 indexed role, address indexed account);\n    event RoleRevoked(bytes32 indexed role, address indexed account);\n\n    /**\n     * @dev Modifier that checks that an account has {ADMIN_ROLE}.\n     */\n    modifier onlyAdmin() {\n        require(hasRole(ADMIN_ROLE, msg.sender), 'CALLER_NOT_ADMIN');\n        _;\n    }\n\n    constructor() {\n        _grantRole(ADMIN_ROLE, msg.sender);\n    }\n\n\n    /**\n     * @dev hasRole().\n     * @param role - Role to check.\n     * @param account - Account to check.\n\n     * @return true if {account} has been granted {role}.\n     */\n    function hasRole(bytes32 role, address account) public view returns (bool) {\n        return _roles[role][account];\n    }\n\n\n    /**\n     * @dev Grants {role} to {account}. If {account} had not been already granted {role}, emits a {RoleGranted} event.\n     * @param role - Role to grant.\n     * @param account - Account to grant role to.\n\n     * Note: This function can only be called by the admin.\n     */\n    function grantRole(bytes32 role, address account) public onlyAdmin {\n        _grantRole(role, account);\n    }\n\n    function _grantRole(bytes32 role, address account) internal {\n        if (!hasRole(role, account)) {\n            _roles[role][account] = true;\n            emit RoleGranted(role, account);\n        }\n    }\n\n    /**\n     * @dev Revokes {role} from {account}. If {account} had been granted {role}, emits a {RoleRevoked} event.\n     * @param role - Role to revoke.\n     * @param account - Account to revoke role from.\n\n     * Note: This function can only be called by the admin.\n     */\n    function revokeRole(bytes32 role, address account) public onlyAdmin {\n        _revokeRole(role, account);\n    }\n\n    function _revokeRole(bytes32 role, address account) internal {\n        if (hasRole(role, account)) {\n            _roles[role][account] = false;\n            emit RoleRevoked(role, account);\n        }\n    }\n}\n",
  "sourcePath": "/home/ilau/projectWork/uno-contracts/contracts/UnoAccessManager.sol",
  "compiler": {
    "name": "solc",
    "version": "0.8.10+commit.fc410830.Emscripten.clang"
  },
  "schemaVersion": "3.4.10",
  "updatedAt": "2022-11-01T11:45:09.623Z",
  "networkType": "ethereum",
  "devdoc": {
    "kind": "dev",
    "methods": {
      "grantRole(bytes32,address)": {
        "details": "Grants {role} to {account}. If {account} had not been already granted {role}, emits a {RoleGranted} event.",
        "params": {
          "account": "- Account to grant role to. Note: This function can only be called by the admin.",
          "role": "- Role to grant."
        }
      },
      "hasRole(bytes32,address)": {
        "details": "hasRole().",
        "params": {
          "account": "- Account to check.",
          "role": "- Role to check."
        },
        "returns": {
          "_0": "true if {account} has been granted {role}."
        }
      },
      "revokeRole(bytes32,address)": {
        "details": "Revokes {role} from {account}. If {account} had been granted {role}, emits a {RoleRevoked} event.",
        "params": {
          "account": "- Account to revoke role from. Note: This function can only be called by the admin.",
          "role": "- Role to revoke."
        }
      }
    },
    "version": 1
  },
  "userdoc": {
    "kind": "user",
    "methods": {},
    "version": 1
  }
}