{
  "contractName": "UnoAssetRouterQuickswapDual",
  "abi": [
    {
      "inputs": [],
      "stateMutability": "nonpayable",
      "type": "constructor"
    },
    {
      "anonymous": false,
      "inputs": [
        {
          "indexed": false,
          "internalType": "address",
          "name": "previousAdmin",
          "type": "address"
        },
        {
          "indexed": false,
          "internalType": "address",
          "name": "newAdmin",
          "type": "address"
        }
      ],
      "name": "AdminChanged",
      "type": "event"
    },
    {
      "anonymous": false,
      "inputs": [
        {
          "indexed": true,
          "internalType": "address",
          "name": "beacon",
          "type": "address"
        }
      ],
      "name": "BeaconUpgraded",
      "type": "event"
    },
    {
      "anonymous": false,
      "inputs": [
        {
          "indexed": true,
          "internalType": "address",
          "name": "lpPool",
          "type": "address"
        },
        {
          "indexed": true,
          "internalType": "address",
          "name": "sender",
          "type": "address"
        },
        {
          "indexed": true,
          "internalType": "address",
          "name": "recipient",
          "type": "address"
        },
        {
          "indexed": false,
          "internalType": "uint256",
          "name": "amount",
          "type": "uint256"
        }
      ],
      "name": "Deposit",
      "type": "event"
    },
    {
      "anonymous": false,
      "inputs": [
        {
          "indexed": true,
          "internalType": "address",
          "name": "lpPool",
          "type": "address"
        },
        {
          "indexed": false,
          "internalType": "uint256",
          "name": "reward",
          "type": "uint256"
        }
      ],
      "name": "Distribute",
      "type": "event"
    },
    {
      "anonymous": false,
      "inputs": [
        {
          "indexed": false,
          "internalType": "uint256",
          "name": "previousFee",
          "type": "uint256"
        },
        {
          "indexed": false,
          "internalType": "uint256",
          "name": "newFee",
          "type": "uint256"
        }
      ],
      "name": "FeeChanged",
      "type": "event"
    },
    {
      "anonymous": false,
      "inputs": [
        {
          "indexed": false,
          "internalType": "uint8",
          "name": "version",
          "type": "uint8"
        }
      ],
      "name": "Initialized",
      "type": "event"
    },
    {
      "anonymous": false,
      "inputs": [
        {
          "indexed": false,
          "internalType": "address",
          "name": "account",
          "type": "address"
        }
      ],
      "name": "Paused",
      "type": "event"
    },
    {
      "anonymous": false,
      "inputs": [
        {
          "indexed": false,
          "internalType": "address",
          "name": "account",
          "type": "address"
        }
      ],
      "name": "Unpaused",
      "type": "event"
    },
    {
      "anonymous": false,
      "inputs": [
        {
          "indexed": true,
          "internalType": "address",
          "name": "implementation",
          "type": "address"
        }
      ],
      "name": "Upgraded",
      "type": "event"
    },
    {
      "anonymous": false,
      "inputs": [
        {
          "indexed": true,
          "internalType": "address",
          "name": "lpPool",
          "type": "address"
        },
        {
          "indexed": true,
          "internalType": "address",
          "name": "sender",
          "type": "address"
        },
        {
          "indexed": true,
          "internalType": "address",
          "name": "recipient",
          "type": "address"
        },
        {
          "indexed": false,
          "internalType": "uint256",
          "name": "amount",
          "type": "uint256"
        }
      ],
      "name": "Withdraw",
      "type": "event"
    },
    {
      "inputs": [],
      "name": "WMATIC",
      "outputs": [
        {
          "internalType": "address",
          "name": "",
          "type": "address"
        }
      ],
      "stateMutability": "view",
      "type": "function"
    },
    {
      "inputs": [],
      "name": "accessManager",
      "outputs": [
        {
          "internalType": "contract IUnoAccessManager",
          "name": "",
          "type": "address"
        }
      ],
      "stateMutability": "view",
      "type": "function"
    },
    {
      "inputs": [],
      "name": "farmFactory",
      "outputs": [
        {
          "internalType": "contract IUnoFarmFactory",
          "name": "",
          "type": "address"
        }
      ],
      "stateMutability": "view",
      "type": "function"
    },
    {
      "inputs": [],
      "name": "fee",
      "outputs": [
        {
          "internalType": "uint256",
          "name": "",
          "type": "uint256"
        }
      ],
      "stateMutability": "view",
      "type": "function"
    },
    {
      "inputs": [],
      "name": "paused",
      "outputs": [
        {
          "internalType": "bool",
          "name": "",
          "type": "bool"
        }
      ],
      "stateMutability": "view",
      "type": "function"
    },
    {
      "inputs": [],
      "name": "proxiableUUID",
      "outputs": [
        {
          "internalType": "bytes32",
          "name": "",
          "type": "bytes32"
        }
      ],
      "stateMutability": "view",
      "type": "function"
    },
    {
      "inputs": [
        {
          "internalType": "address",
          "name": "newImplementation",
          "type": "address"
        }
      ],
      "name": "upgradeTo",
      "outputs": [],
      "stateMutability": "nonpayable",
      "type": "function"
    },
    {
      "inputs": [
        {
          "internalType": "address",
          "name": "newImplementation",
          "type": "address"
        },
        {
          "internalType": "bytes",
          "name": "data",
          "type": "bytes"
        }
      ],
      "name": "upgradeToAndCall",
      "outputs": [],
      "stateMutability": "payable",
      "type": "function"
    },
    {
      "stateMutability": "payable",
      "type": "receive"
    },
    {
      "inputs": [
        {
          "internalType": "address",
          "name": "_accessManager",
          "type": "address"
        },
        {
          "internalType": "address",
          "name": "_farmFactory",
          "type": "address"
        }
      ],
      "name": "initialize",
      "outputs": [],
      "stateMutability": "nonpayable",
      "type": "function"
    },
    {
      "inputs": [
        {
          "internalType": "address",
          "name": "lpStakingPool",
          "type": "address"
        },
        {
          "internalType": "uint256",
          "name": "amountA",
          "type": "uint256"
        },
        {
          "internalType": "uint256",
          "name": "amountB",
          "type": "uint256"
        },
        {
          "internalType": "uint256",
          "name": "amountAMin",
          "type": "uint256"
        },
        {
          "internalType": "uint256",
          "name": "amountBMin",
          "type": "uint256"
        },
        {
          "internalType": "uint256",
          "name": "amountLP",
          "type": "uint256"
        },
        {
          "internalType": "address",
          "name": "recipient",
          "type": "address"
        }
      ],
      "name": "deposit",
      "outputs": [
        {
          "internalType": "uint256",
          "name": "sentA",
          "type": "uint256"
        },
        {
          "internalType": "uint256",
          "name": "sentB",
          "type": "uint256"
        },
        {
          "internalType": "uint256",
          "name": "liquidity",
          "type": "uint256"
        }
      ],
      "stateMutability": "nonpayable",
      "type": "function"
    },
    {
      "inputs": [
        {
          "internalType": "address",
          "name": "lpStakingPool",
          "type": "address"
        },
        {
          "internalType": "uint256",
          "name": "amountToken",
          "type": "uint256"
        },
        {
          "internalType": "uint256",
          "name": "amountTokenMin",
          "type": "uint256"
        },
        {
          "internalType": "uint256",
          "name": "amountETHMin",
          "type": "uint256"
        },
        {
          "internalType": "uint256",
          "name": "amountLP",
          "type": "uint256"
        },
        {
          "internalType": "address",
          "name": "recipient",
          "type": "address"
        }
      ],
      "name": "depositETH",
      "outputs": [
        {
          "internalType": "uint256",
          "name": "sentToken",
          "type": "uint256"
        },
        {
          "internalType": "uint256",
          "name": "sentETH",
          "type": "uint256"
        },
        {
          "internalType": "uint256",
          "name": "liquidity",
          "type": "uint256"
        }
      ],
      "stateMutability": "payable",
      "type": "function"
    },
    {
      "inputs": [
        {
          "internalType": "address",
          "name": "lpStakingPool",
          "type": "address"
        },
        {
          "internalType": "address",
          "name": "token",
          "type": "address"
        },
        {
          "internalType": "uint256",
          "name": "amount",
          "type": "uint256"
        },
        {
          "internalType": "bytes[2]",
          "name": "swapData",
          "type": "bytes[2]"
        },
        {
          "internalType": "uint256",
          "name": "amountAMin",
          "type": "uint256"
        },
        {
          "internalType": "uint256",
          "name": "amountBMin",
          "type": "uint256"
        },
        {
          "internalType": "address",
          "name": "recipient",
          "type": "address"
        }
      ],
      "name": "depositSingleAsset",
      "outputs": [
        {
          "internalType": "uint256",
          "name": "sent",
          "type": "uint256"
        },
        {
          "internalType": "uint256",
          "name": "liquidity",
          "type": "uint256"
        }
      ],
      "stateMutability": "nonpayable",
      "type": "function"
    },
    {
      "inputs": [
        {
          "internalType": "address",
          "name": "lpStakingPool",
          "type": "address"
        },
        {
          "internalType": "bytes[2]",
          "name": "swapData",
          "type": "bytes[2]"
        },
        {
          "internalType": "uint256",
          "name": "amountAMin",
          "type": "uint256"
        },
        {
          "internalType": "uint256",
          "name": "amountBMin",
          "type": "uint256"
        },
        {
          "internalType": "address",
          "name": "recipient",
          "type": "address"
        }
      ],
      "name": "depositSingleETH",
      "outputs": [
        {
          "internalType": "uint256",
          "name": "sentETH",
          "type": "uint256"
        },
        {
          "internalType": "uint256",
          "name": "liquidity",
          "type": "uint256"
        }
      ],
      "stateMutability": "payable",
      "type": "function"
    },
    {
      "inputs": [
        {
          "internalType": "address",
          "name": "lpStakingPool",
          "type": "address"
        },
        {
          "internalType": "uint256",
          "name": "amount",
          "type": "uint256"
        },
        {
          "internalType": "uint256",
          "name": "amountAMin",
          "type": "uint256"
        },
        {
          "internalType": "uint256",
          "name": "amountBMin",
          "type": "uint256"
        },
        {
          "internalType": "bool",
          "name": "withdrawLP",
          "type": "bool"
        },
        {
          "internalType": "address",
          "name": "recipient",
          "type": "address"
        }
      ],
      "name": "withdraw",
      "outputs": [
        {
          "internalType": "uint256",
          "name": "amountA",
          "type": "uint256"
        },
        {
          "internalType": "uint256",
          "name": "amountB",
          "type": "uint256"
        }
      ],
      "stateMutability": "nonpayable",
      "type": "function"
    },
    {
      "inputs": [
        {
          "internalType": "address",
          "name": "lpStakingPool",
          "type": "address"
        },
        {
          "internalType": "uint256",
          "name": "amount",
          "type": "uint256"
        },
        {
          "internalType": "uint256",
          "name": "amountTokenMin",
          "type": "uint256"
        },
        {
          "internalType": "uint256",
          "name": "amountETHMin",
          "type": "uint256"
        },
        {
          "internalType": "address",
          "name": "recipient",
          "type": "address"
        }
      ],
      "name": "withdrawETH",
      "outputs": [
        {
          "internalType": "uint256",
          "name": "amountToken",
          "type": "uint256"
        },
        {
          "internalType": "uint256",
          "name": "amountETH",
          "type": "uint256"
        }
      ],
      "stateMutability": "nonpayable",
      "type": "function"
    },
    {
      "inputs": [
        {
          "internalType": "address",
          "name": "lpStakingPool",
          "type": "address"
        },
        {
          "components": [
            {
              "internalType": "address[]",
              "name": "route",
              "type": "address[]"
            },
            {
              "internalType": "uint256",
              "name": "amountOutMin",
              "type": "uint256"
            }
          ],
          "internalType": "struct IUnoFarmQuickswapDual.SwapInfo[4]",
          "name": "swapInfos",
          "type": "tuple[4]"
        },
        {
          "components": [
            {
              "internalType": "address[]",
              "name": "route",
              "type": "address[]"
            },
            {
              "internalType": "uint256",
              "name": "amountOutMin",
              "type": "uint256"
            }
          ],
          "internalType": "struct IUnoFarmQuickswapDual.SwapInfo[2]",
          "name": "feeSwapInfos",
          "type": "tuple[2]"
        },
        {
          "internalType": "address",
          "name": "feeTo",
          "type": "address"
        }
      ],
      "name": "distribute",
      "outputs": [],
      "stateMutability": "nonpayable",
      "type": "function"
    },
    {
      "inputs": [
        {
          "internalType": "address",
          "name": "_address",
          "type": "address"
        },
        {
          "internalType": "address",
          "name": "lpStakingPool",
          "type": "address"
        }
      ],
      "name": "userStake",
      "outputs": [
        {
          "internalType": "uint256",
          "name": "stakeLP",
          "type": "uint256"
        },
        {
          "internalType": "uint256",
          "name": "stakeA",
          "type": "uint256"
        },
        {
          "internalType": "uint256",
          "name": "stakeB",
          "type": "uint256"
        }
      ],
      "stateMutability": "view",
      "type": "function"
    },
    {
      "inputs": [
        {
          "internalType": "address",
          "name": "lpStakingPool",
          "type": "address"
        }
      ],
      "name": "totalDeposits",
      "outputs": [
        {
          "internalType": "uint256",
          "name": "totalDepositsLP",
          "type": "uint256"
        },
        {
          "internalType": "uint256",
          "name": "totalDepositsA",
          "type": "uint256"
        },
        {
          "internalType": "uint256",
          "name": "totalDepositsB",
          "type": "uint256"
        }
      ],
      "stateMutability": "view",
      "type": "function"
    },
    {
      "inputs": [
        {
          "internalType": "address",
          "name": "lpStakingPool",
          "type": "address"
        }
      ],
      "name": "getTokens",
      "outputs": [
        {
          "internalType": "contract IERC20[]",
          "name": "tokens",
          "type": "address[]"
        }
      ],
      "stateMutability": "view",
      "type": "function"
    },
    {
      "inputs": [
        {
          "internalType": "uint256",
          "name": "_fee",
          "type": "uint256"
        }
      ],
      "name": "setFee",
      "outputs": [],
      "stateMutability": "nonpayable",
      "type": "function"
    },
    {
      "inputs": [],
      "name": "pause",
      "outputs": [],
      "stateMutability": "nonpayable",
      "type": "function"
    },
    {
      "inputs": [],
      "name": "unpause",
      "outputs": [],
      "stateMutability": "nonpayable",
      "type": "function"
    }
  ],
  "bytecode": "0x60a0604052306080523480156200001557600080fd5b506200002062000026565b62000156565b6200003260ff62000035565b50565b60008054610100900460ff1615620000ce578160ff1660011480156200006e57506200006c306200014760201b62002a321760201c565b155b620000c65760405162461bcd60e51b815260206004820152602e6024820152600080516020620043c383398151915260448201526d191e481a5b9a5d1a585b1a5e995960921b60648201526084015b60405180910390fd5b506000919050565b60005460ff8084169116106200012d5760405162461bcd60e51b815260206004820152602e6024820152600080516020620043c383398151915260448201526d191e481a5b9a5d1a585b1a5e995960921b6064820152608401620000bd565b506000805460ff191660ff92909216919091179055600190565b6001600160a01b03163b151590565b6080516142356200018e6000396000818161082d0152818161086d015281816112cb0152818161130b015261150f01526142356000f3fe6080604052600436106101395760003560e01c80635c975abb116100ab5780638456cb591161006f5780638456cb59146103cc578063ddca3f43146103e1578063deb03f4d146103f7578063e940325614610417578063f441f73c14610437578063fdcb60681461045757600080fd5b80635c975abb1461033657806369fe0e2d146103595780636c2b5517146103795780636d25e175146103995780637d795628146103b957600080fd5b80634743cdc7116100fd5780634743cdc714610258578063485cc955146102865780634d95cad9146102a65780634f1ef286146102e057806351bdca3e146102f357806352d1902d1461031357600080fd5b80631ad881801461019c5780631ec5aa3e146101bc5780633659cfe6146101f65780633f4ba83a14610216578063450efe211461022b57600080fd5b3661019757336000805160206141e0833981519152146101955760405162461bcd60e51b81526020600482015260126024820152714f4e4c595f4143434550545f574d4154494360701b60448201526064015b60405180910390fd5b005b600080fd5b3480156101a857600080fd5b506101956101b73660046136b8565b610477565b3480156101c857600080fd5b506101dc6101d7366004613758565b6106b8565b604080519283526020830191909152015b60405180910390f35b34801561020257600080fd5b506101956102113660046137bf565b610822565b34801561022257600080fd5b50610195610902565b34801561023757600080fd5b5061024b6102463660046137bf565b6109b9565b6040516101ed91906137dc565b61026b610266366004613829565b610b6f565b604080519384526020840192909252908201526060016101ed565b34801561029257600080fd5b506101956102a1366004613879565b611185565b3480156102b257600080fd5b506102c86000805160206141e083398151915281565b6040516001600160a01b0390911681526020016101ed565b6101956102ee3660046138c8565b6112c0565b3480156102ff57600080fd5b5061026b61030e366004613879565b611391565b34801561031f57600080fd5b50610328611502565b6040519081526020016101ed565b34801561034257600080fd5b5060335460ff1660405190151581526020016101ed565b34801561036557600080fd5b5061019561037436600461398c565b6115b5565b34801561038557600080fd5b506101dc6103943660046139a5565b611748565b3480156103a557600080fd5b5060c9546102c8906001600160a01b031681565b6101dc6103c7366004613a39565b611bfe565b3480156103d857600080fd5b50610195612189565b3480156103ed57600080fd5b5061032860cb5481565b34801561040357600080fd5b506101dc610412366004613ab1565b612240565b34801561042357600080fd5b5061026b6104323660046137bf565b612609565b34801561044357600080fd5b5061026b610452366004613af9565b612772565b34801561046357600080fd5b5060ca546102c8906001600160a01b031681565b60335460ff161561049a5760405162461bcd60e51b815260040161018c90613b52565b60ca54604051632474521560e21b81527ffbd454f36a7e1a388bd6fc3ab10d434aa4578f811acbbcf33afb1c697486313c60048201819052336024830152916001600160a01b0316906391d1485490604401602060405180830381865afa158015610509573d6000803e3d6000fd5b505050506040513d601f19601f8201168201806040525081019061052d9190613b7c565b6105495760405162461bcd60e51b815260040161018c90613b99565b60c95460405163f9d9331d60e01b81526001600160a01b038781166004830152600092169063f9d9331d90602401602060405180830381865afa158015610594573d6000803e3d6000fd5b505050506040513d601f19601f820116820180604052508101906105b89190613bc8565b90506001600160a01b0381166105e05760405162461bcd60e51b815260040161018c90613be5565b6040805180820182526001600160a01b03858116825260cb546020830152915163047f792560e11b81526000928416916308fef24a91610627918a918a9190600401613cf9565b6020604051808303816000875af1158015610646573d6000803e3d6000fd5b505050506040513d601f19601f8201168201806040525081019061066a9190613e0d565b9050866001600160a01b03167fc1d32ad5cca423e7dda2123dbf8c482f8e77d00b631c06e903a47f2cec1334df826040516106a791815260200190565b60405180910390a250505050505050565b60c95460405163f9d9331d60e01b81526001600160a01b038881166004830152600092839283929091169063f9d9331d90602401602060405180830381865afa158015610709573d6000803e3d6000fd5b505050506040513d601f19601f8201168201806040525081019061072d9190613bc8565b90506001600160a01b0381166107555760405162461bcd60e51b815260040161018c90613be5565b60405163d563468360e01b81526001600160a01b0382169063d56346839061078b908b908b908b908b9033908c90600401613e26565b60408051808303816000875af11580156107a9573d6000803e3d6000fd5b505050506040513d601f19601f820116820180604052508101906107cd9190613e5c565b6040518a815291945092506001600160a01b038581169133918c16907f3115d1449a7b732c986cba18244e897a450f61e1bb8d589cd2e69e6c8924f9f79060200160405180910390a450965096945050505050565b306001600160a01b037f000000000000000000000000000000000000000000000000000000000000000016141561086b5760405162461bcd60e51b815260040161018c90613e80565b7f00000000000000000000000000000000000000000000000000000000000000006001600160a01b03166108b4600080516020614179833981519152546001600160a01b031690565b6001600160a01b0316146108da5760405162461bcd60e51b815260040161018c90613ecc565b6108e381612a41565b604080516000808252602082019092526108ff91839190612b47565b50565b60ca54604051632474521560e21b81527f65d7a28e3265b37a6474929f336521b332c1681b933f6cb9f3376673440d862a60048201819052336024830152916001600160a01b0316906391d1485490604401602060405180830381865afa158015610971573d6000803e3d6000fd5b505050506040513d601f19601f820116820180604052508101906109959190613b7c565b6109b15760405162461bcd60e51b815260040161018c90613b99565b6108ff612cb2565b60408051600280825260608083018452926020830190803683370190505090506000826001600160a01b03166372f702f36040518163ffffffff1660e01b8152600401602060405180830381865afa158015610a19573d6000803e3d6000fd5b505050506040513d601f19601f82011682018060405250810190610a3d9190613bc8565b9050806001600160a01b0316630dfe16816040518163ffffffff1660e01b8152600401602060405180830381865afa158015610a7d573d6000803e3d6000fd5b505050506040513d601f19601f82011682018060405250810190610aa19190613bc8565b82600081518110610ab457610ab4613f18565b60200260200101906001600160a01b031690816001600160a01b031681525050806001600160a01b031663d21220a76040518163ffffffff1660e01b8152600401602060405180830381865afa158015610b12573d6000803e3d6000fd5b505050506040513d601f19601f82011682018060405250810190610b369190613bc8565b82600181518110610b4957610b49613f18565b60200260200101906001600160a01b031690816001600160a01b03168152505050919050565b6000806000610b8060335460ff1690565b15610b9d5760405162461bcd60e51b815260040161018c90613b52565b60003411610bdd5760405162461bcd60e51b815260206004820152600d60248201526c1393d7d350551250d7d4d15395609a1b604482015260640161018c565b60c95460405163f9d9331d60e01b81526001600160a01b038b81166004830152600092169063f9d9331d90602401602060405180830381865afa158015610c28573d6000803e3d6000fd5b505050506040513d601f19601f82011682018060405250810190610c4c9190613bc8565b90506001600160a01b038116610cce5760c954604051621849e360e61b81526001600160a01b038c811660048301529091169063061278c0906024016020604051808303816000875af1158015610ca7573d6000803e3d6000fd5b505050506040513d601f19601f82011682018060405250810190610ccb9190613bc8565b90505b8515610d4d57610d4d338288846001600160a01b031663452ed4f16040518163ffffffff1660e01b8152600401602060405180830381865afa158015610d18573d6000803e3d6000fd5b505050506040513d601f19601f82011682018060405250810190610d3c9190613bc8565b6001600160a01b0316929190612d45565b6000816001600160a01b0316630fc63d106040518163ffffffff1660e01b8152600401602060405180830381865afa158015610d8d573d6000803e3d6000fd5b505050506040513d601f19601f82011682018060405250810190610db19190613bc8565b90506000826001600160a01b0316635f64b55b6040518163ffffffff1660e01b8152600401602060405180830381865afa158015610df3573d6000803e3d6000fd5b505050506040513d601f19601f82011682018060405250810190610e179190613bc8565b90506000805160206141e08339815191526001600160a01b031663d0e30db0346040518263ffffffff1660e01b81526004016000604051808303818588803b158015610e6257600080fd5b505af1158015610e76573d6000803e3d6000fd5b50610e9893506000805160206141e08339815191529250869150349050612db6565b6001600160a01b0382166000805160206141e08339815191521415610f79578a15610ed257610ed26001600160a01b03821633858e612d45565b826001600160a01b0316631666768a348d8c8e8d308e6040518863ffffffff1660e01b8152600401610f0a9796959493929190613f2e565b6060604051808303816000875af1158015610f29573d6000803e3d6000fd5b505050506040513d601f19601f82011682018060405250810190610f4d9190613f6a565b9097509095509350610f7433610f63888e613fae565b6001600160a01b0384169190612db6565b61108e565b6001600160a01b0381166000805160206141e08339815191521415611054578a15610fb357610fb36001600160a01b03831633858e612d45565b826001600160a01b0316631666768a8c348d8d8d308e6040518863ffffffff1660e01b8152600401610feb9796959493929190613f2e565b6060604051808303816000875af115801561100a573d6000803e3d6000fd5b505050506040513d601f19601f8201168201806040525081019061102e9190613f6a565b91975095509350610f7433611043888e613fae565b6001600160a01b0385169190612db6565b60405162461bcd60e51b815260206004820152600f60248201526e1393d517d5d350551250d7d413d3d3608a1b604482015260640161018c565b600061109a8634613fae565b9050801561113057604051632e1a7d4d60e01b8152600481018290526000805160206141e083398151915290632e1a7d4d90602401600060405180830381600087803b1580156110e957600080fd5b505af11580156110fd573d6000803e3d6000fd5b505060405133925083156108fc02915083906000818181858888f1935050505015801561112e573d6000803e3d6000fd5b505b876001600160a01b0316336001600160a01b03168e6001600160a01b03166000805160206141998339815191528860405161116d91815260200190565b60405180910390a45050505096509650969350505050565b60006111916001612de6565b905080156111a9576000805461ff0019166101001790555b6001600160a01b0383166111f45760405162461bcd60e51b81526020600482015260126024820152712120a22fa0a1a1a2a9a9afa6a0a720a3a2a960711b604482015260640161018c565b6001600160a01b03821661123d5760405162461bcd60e51b815260206004820152601060248201526f4241445f4641524d5f464143544f525960801b604482015260640161018c565b611245612e6e565b60ca80546001600160a01b038086166001600160a01b03199283161790925560c980549285169290911691909117905580156112bb576000805461ff0019169055604051600181527f7f26b83ff96e1f2b6a682f133852f6798a09c465da95921460cefb38474024989060200160405180910390a15b505050565b306001600160a01b037f00000000000000000000000000000000000000000000000000000000000000001614156113095760405162461bcd60e51b815260040161018c90613e80565b7f00000000000000000000000000000000000000000000000000000000000000006001600160a01b0316611352600080516020614179833981519152546001600160a01b031690565b6001600160a01b0316146113785760405162461bcd60e51b815260040161018c90613ecc565b61138182612a41565b61138d82826001612b47565b5050565b60c95460405163f9d9331d60e01b81526001600160a01b038381166004830152600092839283928392169063f9d9331d90602401602060405180830381865afa1580156113e2573d6000803e3d6000fd5b505050506040513d601f19601f820116820180604052508101906114069190613bc8565b90506001600160a01b038116156114fa57604051630103c92b60e01b81526001600160a01b038781166004830152821690630103c92b90602401602060405180830381865afa15801561145d573d6000803e3d6000fd5b505050506040513d601f19601f820116820180604052508101906114819190613e0d565b93506000816001600160a01b031663452ed4f16040518163ffffffff1660e01b8152600401602060405180830381865afa1580156114c3573d6000803e3d6000fd5b505050506040513d601f19601f820116820180604052508101906114e79190613bc8565b90506114f38186612e9f565b9094509250505b509250925092565b6000306001600160a01b037f000000000000000000000000000000000000000000000000000000000000000016146115a25760405162461bcd60e51b815260206004820152603860248201527f555550535570677261646561626c653a206d757374206e6f742062652063616c60448201527f6c6564207468726f7567682064656c656761746563616c6c0000000000000000606482015260840161018c565b5060008051602061417983398151915290565b60ca60009054906101000a90046001600160a01b03166001600160a01b03166375b238fc6040518163ffffffff1660e01b8152600401602060405180830381865afa158015611608573d6000803e3d6000fd5b505050506040513d601f19601f8201168201806040525081019061162c9190613e0d565b60ca54604051632474521560e21b8152600481018390523360248201526001600160a01b03909116906391d1485490604401602060405180830381865afa15801561167b573d6000803e3d6000fd5b505050506040513d601f19601f8201168201806040525081019061169f9190613b7c565b6116bb5760405162461bcd60e51b815260040161018c90613b99565b670de0b6b3a76400008211156116fd5760405162461bcd60e51b81526020600482015260076024820152664241445f46454560c81b604482015260640161018c565b8160cb541461138d5760cb5460408051918252602082018490527f5fc463da23c1b063e66f9e352006a7fbe8db7223c455dc429e881a2dfe2f94f1910160405180910390a15060cb55565b60008061175760335460ff1690565b156117745760405162461bcd60e51b815260040161018c90613b52565b600087116117b45760405162461bcd60e51b815260206004820152600d60248201526c1393d7d513d2d15397d4d15395609a1b604482015260640161018c565b60c95460405163f9d9331d60e01b81526001600160a01b038b81166004830152600092169063f9d9331d90602401602060405180830381865afa1580156117ff573d6000803e3d6000fd5b505050506040513d601f19601f820116820180604052508101906118239190613bc8565b90506001600160a01b0381166118a55760c954604051621849e360e61b81526001600160a01b038c811660048301529091169063061278c0906024016020604051808303816000875af115801561187e573d6000803e3d6000fd5b505050506040513d601f19601f820116820180604052508101906118a29190613bc8565b90505b6118ba6001600160a01b038a1633308b612d45565b60405163095ea7b360e01b8152731111111254eeb25477b68fb85ed929f73a9605826004820152602481018990526001600160a01b038a169063095ea7b3906044016020604051808303816000875af115801561191b573d6000803e3d6000fd5b505050506040513d601f19601f8201168201806040525081019061193f9190613b7c565b508792506000806000836001600160a01b0316630fc63d106040518163ffffffff1660e01b8152600401602060405180830381865afa158015611986573d6000803e3d6000fd5b505050506040513d601f19601f820116820180604052508101906119aa9190613bc8565b90506000846001600160a01b0316635f64b55b6040518163ffffffff1660e01b8152600401602060405180830381865afa1580156119ec573d6000803e3d6000fd5b505050506040513d601f19601f82011682018060405250810190611a109190613bc8565b90508c6001600160a01b0316826001600160a01b031614611a5f57600080611a498d825b602002810190611a449190613fc5565b6130da565b9092509050611a58818f613fae565b9d50909450505b8c6001600160a01b0316816001600160a01b031614611a9c57600080611a868d6001611a34565b9092509050611a95818f613fae565b9d50909350505b8c6001600160a01b0316826001600160a01b03161415611abe578b9350611b06565b8c6001600160a01b0316816001600160a01b03161415611ae0578b9250611b06565b8b15611b0657611af08c88613fae565b9650611b066001600160a01b038e16338e612db6565b8315611b2057611b206001600160a01b0383168686612db6565b8215611b3a57611b3a6001600160a01b0382168685612db6565b5050604051630b333b4560e11b81526001600160a01b03841690631666768a90611b7590859085908d908d9060009033908f90600401613f2e565b6060604051808303816000875af1158015611b94573d6000803e3d6000fd5b505050506040513d601f19601f82011682018060405250810190611bb89190613f6a565b6040518181529096506001600160a01b0389811693503392508f16906000805160206141998339815191529060200160405180910390a450505097509795505050505050565b600080611c0d60335460ff1690565b15611c2a5760405162461bcd60e51b815260040161018c90613b52565b60003411611c6a5760405162461bcd60e51b815260206004820152600d60248201526c1393d7d350551250d7d4d15395609a1b604482015260640161018c565b60c95460405163f9d9331d60e01b81526001600160a01b038981166004830152600092169063f9d9331d90602401602060405180830381865afa158015611cb5573d6000803e3d6000fd5b505050506040513d601f19601f82011682018060405250810190611cd99190613bc8565b90506001600160a01b038116611d5b5760c954604051621849e360e61b81526001600160a01b038a811660048301529091169063061278c0906024016020604051808303816000875af1158015611d34573d6000803e3d6000fd5b505050506040513d601f19601f82011682018060405250810190611d589190613bc8565b90505b60003490506000805160206141e08339815191526001600160a01b031663d0e30db0826040518263ffffffff1660e01b81526004016000604051808303818588803b158015611da957600080fd5b505af1158015611dbd573d6000803e3d6000fd5b505060405163095ea7b360e01b8152731111111254eeb25477b68fb85ed929f73a9605826004820152602481018590526000805160206141e0833981519152935063095ea7b3925060440190506020604051808303816000875af1158015611e29573d6000803e3d6000fd5b505050506040513d601f19601f82011682018060405250810190611e4d9190613b7c565b508093506000806000846001600160a01b0316630fc63d106040518163ffffffff1660e01b8152600401602060405180830381865afa158015611e94573d6000803e3d6000fd5b505050506040513d601f19601f82011682018060405250810190611eb89190613bc8565b90506000856001600160a01b0316635f64b55b6040518163ffffffff1660e01b8152600401602060405180830381865afa158015611efa573d6000803e3d6000fd5b505050506040513d601f19601f82011682018060405250810190611f1e9190613bc8565b90506001600160a01b0382166000805160206141e083398151915214611f6157600080611f4b8e82611a34565b9092509050611f5a8188613fae565b9650909450505b6001600160a01b0381166000805160206141e083398151915214611fa357600080611f8d8e6001611a34565b9092509050611f9c8188613fae565b9650909350505b6001600160a01b0382166000805160206141e08339815191521415611fca57849350612092565b6001600160a01b0381166000805160206141e08339815191521415611ff157849250612092565b8415612092576120018589613fae565b604051632e1a7d4d60e01b8152600481018790529098506000805160206141e083398151915290632e1a7d4d90602401600060405180830381600087803b15801561204b57600080fd5b505af115801561205f573d6000803e3d6000fd5b505060405133925087156108fc02915087906000818181858888f19350505050158015612090573d6000803e3d6000fd5b505b83156120ac576120ac6001600160a01b0383168786612db6565b82156120c6576120c66001600160a01b0382168785612db6565b5050836001600160a01b0316631666768a83838c8c6000338e6040518863ffffffff1660e01b81526004016121019796959493929190613f2e565b6060604051808303816000875af1158015612120573d6000803e3d6000fd5b505050506040513d601f19601f820116820180604052508101906121449190613f6a565b6040518181529097506001600160a01b038a811693503392508e16906000805160206141998339815191529060200160405180910390a4505050509550959350505050565b60ca54604051632474521560e21b81527f65d7a28e3265b37a6474929f336521b332c1681b933f6cb9f3376673440d862a60048201819052336024830152916001600160a01b0316906391d1485490604401602060405180830381865afa1580156121f8573d6000803e3d6000fd5b505050506040513d601f19601f8201168201806040525081019061221c9190613b7c565b6122385760405162461bcd60e51b815260040161018c90613b99565b6108ff6131b9565b60c95460405163f9d9331d60e01b81526001600160a01b038781166004830152600092839283929091169063f9d9331d90602401602060405180830381865afa158015612291573d6000803e3d6000fd5b505050506040513d601f19601f820116820180604052508101906122b59190613bc8565b90506001600160a01b0381166122dd5760405162461bcd60e51b815260040161018c90613be5565b6000816001600160a01b0316630fc63d106040518163ffffffff1660e01b8152600401602060405180830381865afa15801561231d573d6000803e3d6000fd5b505050506040513d601f19601f820116820180604052508101906123419190613bc8565b90506000826001600160a01b0316635f64b55b6040518163ffffffff1660e01b8152600401602060405180830381865afa158015612383573d6000803e3d6000fd5b505050506040513d601f19601f820116820180604052508101906123a79190613bc8565b90506001600160a01b0382166000805160206141e0833981519152141561245e5760405163d563468360e01b81526001600160a01b0384169063d5634683906123ff908c908b908d9060009033903090600401613e26565b60408051808303816000875af115801561241d573d6000803e3d6000fd5b505050506040513d601f19601f820116820180604052508101906124419190613e5c565b955093506124596001600160a01b0382168787612db6565b61250f565b6001600160a01b0381166000805160206141e083398151915214156110545760405163d563468360e01b81526001600160a01b0384169063d5634683906124b4908c908c908c9060009033903090600401613e26565b60408051808303816000875af11580156124d2573d6000803e3d6000fd5b505050506040513d601f19601f820116820180604052508101906124f69190613e5c565b90955093506124596001600160a01b0383168787612db6565b604051632e1a7d4d60e01b8152600481018590526000805160206141e083398151915290632e1a7d4d90602401600060405180830381600087803b15801561255657600080fd5b505af115801561256a573d6000803e3d6000fd5b50506040516001600160a01b038916925086156108fc02915086906000818181858888f193505050501580156125a4573d6000803e3d6000fd5b50856001600160a01b0316336001600160a01b03168b6001600160a01b03167f3115d1449a7b732c986cba18244e897a450f61e1bb8d589cd2e69e6c8924f9f78c6040516125f491815260200190565b60405180910390a45050509550959350505050565b60c95460405163f9d9331d60e01b81526001600160a01b038381166004830152600092839283928392169063f9d9331d90602401602060405180830381865afa15801561265a573d6000803e3d6000fd5b505050506040513d601f19601f8201168201806040525081019061267e9190613bc8565b90506001600160a01b0381161561276a57806001600160a01b031663168a48226040518163ffffffff1660e01b8152600401602060405180830381865afa1580156126cd573d6000803e3d6000fd5b505050506040513d601f19601f820116820180604052508101906126f19190613e0d565b93506000816001600160a01b031663452ed4f16040518163ffffffff1660e01b8152600401602060405180830381865afa158015612733573d6000803e3d6000fd5b505050506040513d601f19601f820116820180604052508101906127579190613bc8565b90506127638186612e9f565b9094509250505b509193909250565b600080600061278360335460ff1690565b156127a05760405162461bcd60e51b815260040161018c90613b52565b60c95460405163f9d9331d60e01b81526001600160a01b038c81166004830152600092169063f9d9331d90602401602060405180830381865afa1580156127eb573d6000803e3d6000fd5b505050506040513d601f19601f8201168201806040525081019061280f9190613bc8565b90506001600160a01b0381166128915760c954604051621849e360e61b81526001600160a01b038d811660048301529091169063061278c0906024016020604051808303816000875af115801561286a573d6000803e3d6000fd5b505050506040513d601f19601f8201168201806040525081019061288e9190613bc8565b90505b85156128db576128db338288846001600160a01b031663452ed4f16040518163ffffffff1660e01b8152600401602060405180830381865afa158015610d18573d6000803e3d6000fd5b89156129255761292533828c846001600160a01b0316630fc63d106040518163ffffffff1660e01b8152600401602060405180830381865afa158015610d18573d6000803e3d6000fd5b881561296f5761296f33828b846001600160a01b0316635f64b55b6040518163ffffffff1660e01b8152600401602060405180830381865afa158015610d18573d6000803e3d6000fd5b604051630b333b4560e11b81526001600160a01b03821690631666768a906129a7908d908d908d908d908d9033908e90600401613f2e565b6060604051808303816000875af11580156129c6573d6000803e3d6000fd5b505050506040513d601f19601f820116820180604052508101906129ea9190613f6a565b60405181815292965090945092506001600160a01b038681169133918e16906000805160206141998339815191529060200160405180910390a4509750975097945050505050565b6001600160a01b03163b151590565b60ca60009054906101000a90046001600160a01b03166001600160a01b03166375b238fc6040518163ffffffff1660e01b8152600401602060405180830381865afa158015612a94573d6000803e3d6000fd5b505050506040513d601f19601f82011682018060405250810190612ab89190613e0d565b60ca54604051632474521560e21b8152600481018390523360248201526001600160a01b03909116906391d1485490604401602060405180830381865afa158015612b07573d6000803e3d6000fd5b505050506040513d601f19601f82011682018060405250810190612b2b9190613b7c565b61138d5760405162461bcd60e51b815260040161018c90613b99565b7f4910fdfa16fed3260ed0e7147f7cc6da11a60208b5b9406d12a635614ffd91435460ff1615612b7a576112bb83613211565b826001600160a01b03166352d1902d6040518163ffffffff1660e01b8152600401602060405180830381865afa925050508015612bd4575060408051601f3d908101601f19168201909252612bd191810190613e0d565b60015b612c375760405162461bcd60e51b815260206004820152602e60248201527f45524331393637557067726164653a206e657720696d706c656d656e7461746960448201526d6f6e206973206e6f74205555505360901b606482015260840161018c565b6000805160206141798339815191528114612ca65760405162461bcd60e51b815260206004820152602960248201527f45524331393637557067726164653a20756e737570706f727465642070726f786044820152681a58589b195555525160ba1b606482015260840161018c565b506112bb8383836132ad565b60335460ff16612cfb5760405162461bcd60e51b815260206004820152601460248201527314185d5cd8589b194e881b9bdd081c185d5cd95960621b604482015260640161018c565b6033805460ff191690557f5db9ee0a495bf2e6ff9c91a7834c1ba4fdd244a5e8aa4e537bd38aeae4b073aa335b6040516001600160a01b03909116815260200160405180910390a1565b6040516001600160a01b0380851660248301528316604482015260648101829052612db09085906323b872dd60e01b906084015b60408051601f198184030181529190526020810180516001600160e01b03166001600160e01b0319909316929092179091526132d2565b50505050565b6040516001600160a01b0383166024820152604481018290526112bb90849063a9059cbb60e01b90606401612d79565b60008054610100900460ff1615612e2d578160ff166001148015612e095750303b155b612e255760405162461bcd60e51b815260040161018c90614013565b506000919050565b60005460ff808416911610612e545760405162461bcd60e51b815260040161018c90614013565b506000805460ff191660ff92909216919091179055600190565b600054610100900460ff16612e955760405162461bcd60e51b815260040161018c90614061565b612e9d6133a4565b565b6000806000846001600160a01b03166318160ddd6040518163ffffffff1660e01b8152600401602060405180830381865afa158015612ee2573d6000803e3d6000fd5b505050506040513d601f19601f82011682018060405250810190612f069190613e0d565b905080856001600160a01b0316630dfe16816040518163ffffffff1660e01b8152600401602060405180830381865afa158015612f47573d6000803e3d6000fd5b505050506040513d601f19601f82011682018060405250810190612f6b9190613bc8565b6040516370a0823160e01b81526001600160a01b03888116600483015291909116906370a0823190602401602060405180830381865afa158015612fb3573d6000803e3d6000fd5b505050506040513d601f19601f82011682018060405250810190612fd79190613e0d565b612fe190866140ac565b612feb91906140cb565b925080856001600160a01b031663d21220a76040518163ffffffff1660e01b8152600401602060405180830381865afa15801561302c573d6000803e3d6000fd5b505050506040513d601f19601f820116820180604052508101906130509190613bc8565b6040516370a0823160e01b81526001600160a01b03888116600483015291909116906370a0823190602401602060405180830381865afa158015613098573d6000803e3d6000fd5b505050506040513d601f19601f820116820180604052508101906130bc9190613e0d565b6130c690866140ac565b6130d091906140cb565b9150509250929050565b600080600080731111111254eeb25477b68fb85ed929f73a9605826001600160a01b0316868660405161310e9291906140ed565b6000604051808303816000865af19150503d806000811461314b576040519150601f19603f3d011682016040523d82523d6000602084013e613150565b606091505b5091509150816131985760405162461bcd60e51b815260206004820152601360248201527214d5d05417d393d517d4d550d0d154d4d19553606a1b604482015260640161018c565b808060200190518101906131ac9190613e5c565b9097909650945050505050565b60335460ff16156131dc5760405162461bcd60e51b815260040161018c90613b52565b6033805460ff191660011790557f62e78cea01bee320cd4e420270b5ea74000d11b0c9f74754ebdbfc544b05a258612d283390565b6001600160a01b0381163b61327e5760405162461bcd60e51b815260206004820152602d60248201527f455243313936373a206e657720696d706c656d656e746174696f6e206973206e60448201526c1bdd08184818dbdb9d1c9858dd609a1b606482015260840161018c565b60008051602061417983398151915280546001600160a01b0319166001600160a01b0392909216919091179055565b6132b6836133d7565b6000825111806132c35750805b156112bb57612db08383613417565b6000613327826040518060400160405280602081526020017f5361666545524332303a206c6f772d6c6576656c2063616c6c206661696c6564815250856001600160a01b031661350d9092919063ffffffff16565b8051909150156112bb57808060200190518101906133459190613b7c565b6112bb5760405162461bcd60e51b815260206004820152602a60248201527f5361666545524332303a204552433230206f7065726174696f6e20646964206e6044820152691bdd081cdd58d8d9595960b21b606482015260840161018c565b600054610100900460ff166133cb5760405162461bcd60e51b815260040161018c90614061565b6033805460ff19169055565b6133e081613211565b6040516001600160a01b038216907fbc7cd75a20ee27fd9adebab32041f755214dbc6bffa90cc0225b39da2e5c2d3b90600090a250565b60606001600160a01b0383163b61347f5760405162461bcd60e51b815260206004820152602660248201527f416464726573733a2064656c65676174652063616c6c20746f206e6f6e2d636f6044820152651b9d1c9858dd60d21b606482015260840161018c565b600080846001600160a01b03168460405161349a9190614129565b600060405180830381855af49150503d80600081146134d5576040519150601f19603f3d011682016040523d82523d6000602084013e6134da565b606091505b509150915061350282826040518060600160405280602781526020016141b960279139613526565b925050505b92915050565b606061351c848460008561355f565b90505b9392505050565b6060831561353557508161351f565b8251156135455782518084602001fd5b8160405162461bcd60e51b815260040161018c9190614145565b6060824710156135c05760405162461bcd60e51b815260206004820152602660248201527f416464726573733a20696e73756666696369656e742062616c616e636520666f6044820152651c8818d85b1b60d21b606482015260840161018c565b6001600160a01b0385163b6136175760405162461bcd60e51b815260206004820152601d60248201527f416464726573733a2063616c6c20746f206e6f6e2d636f6e7472616374000000604482015260640161018c565b600080866001600160a01b031685876040516136339190614129565b60006040518083038185875af1925050503d8060008114613670576040519150601f19603f3d011682016040523d82523d6000602084013e613675565b606091505b5091509150613685828286613526565b925050505b949350505050565b6001600160a01b03811681146108ff57600080fd5b806040810183101561350757600080fd5b600080600080608085870312156136ce57600080fd5b84356136d981613692565b9350602085013567ffffffffffffffff808211156136f657600080fd5b81870191508760808301111561370b57600080fd5b9093506040860135908082111561372157600080fd5b5061372e878288016136a7565b925050606085013561373f81613692565b939692955090935050565b80151581146108ff57600080fd5b60008060008060008060c0878903121561377157600080fd5b863561377c81613692565b955060208701359450604087013593506060870135925060808701356137a18161374a565b915060a08701356137b181613692565b809150509295509295509295565b6000602082840312156137d157600080fd5b813561351f81613692565b6020808252825182820181905260009190848201906040850190845b8181101561381d5783516001600160a01b0316835292840192918401916001016137f8565b50909695505050505050565b60008060008060008060c0878903121561384257600080fd5b863561384d81613692565b95506020870135945060408701359350606087013592506080870135915060a08701356137b181613692565b6000806040838503121561388c57600080fd5b823561389781613692565b915060208301356138a781613692565b809150509250929050565b634e487b7160e01b600052604160045260246000fd5b600080604083850312156138db57600080fd5b82356138e681613692565b9150602083013567ffffffffffffffff8082111561390357600080fd5b818501915085601f83011261391757600080fd5b813581811115613929576139296138b2565b604051601f8201601f19908116603f01168101908382118183101715613951576139516138b2565b8160405282815288602084870101111561396a57600080fd5b8260208601602083013760006020848301015280955050505050509250929050565b60006020828403121561399e57600080fd5b5035919050565b600080600080600080600060e0888a0312156139c057600080fd5b87356139cb81613692565b965060208801356139db81613692565b955060408801359450606088013567ffffffffffffffff8111156139fe57600080fd5b613a0a8a828b016136a7565b9450506080880135925060a0880135915060c0880135613a2981613692565b8091505092959891949750929550565b600080600080600060a08688031215613a5157600080fd5b8535613a5c81613692565b9450602086013567ffffffffffffffff811115613a7857600080fd5b613a84888289016136a7565b94505060408601359250606086013591506080860135613aa381613692565b809150509295509295909350565b600080600080600060a08688031215613ac957600080fd5b8535613ad481613692565b94506020860135935060408601359250606086013591506080860135613aa381613692565b600080600080600080600060e0888a031215613b1457600080fd5b8735613b1f81613692565b96506020880135955060408801359450606088013593506080880135925060a0880135915060c0880135613a2981613692565b60208082526010908201526f14185d5cd8589b194e881c185d5cd95960821b604082015260600190565b600060208284031215613b8e57600080fd5b815161351f8161374a565b60208082526015908201527410d05313115497d393d517d055551213d492569151605a1b604082015260600190565b600060208284031215613bda57600080fd5b815161351f81613692565b6020808252600f908201526e4641524d5f4e4f545f45584953545360881b604082015260600190565b60008235603e19833603018112613c2457600080fd5b90910192915050565b60008260408082018460005b600281101561381d578483038852613c518288613c0e565b8484018135601e19833603018112613c6857600080fd5b82018035602067ffffffffffffffff821115613c8357600080fd5b8160051b3603851315613c9557600080fd5b888852928190529082019160009190606088015b82841015613cd9578435613cbc81613692565b6001600160a01b0316815293810193600193909301928101613ca9565b948101359781019790975250505097830197929190910190600101613c39565b6080808252600090610100830190830186835b6004811015613dd557858403607f19018352613d28828a613c0e565b60408086018235601e19843603018112613d4157600080fd5b83018035602067ffffffffffffffff821115613d5c57600080fd5b8160051b3603861315613d6e57600080fd5b938952918290526060880192908101916000915b81831015613db4578335613d9581613692565b6001600160a01b03168552938401939283019260019290920191613d82565b94850135988501989098525090955050928301929190910190600101613d0c565b5050508281036020840152613dea8186613c2d565b84516001600160a01b0316604085015260208501516060850152915061368a9050565b600060208284031215613e1f57600080fd5b5051919050565b95865260208601949094526040850192909252151560608401526001600160a01b0390811660808401521660a082015260c00190565b60008060408385031215613e6f57600080fd5b505080516020909101519092909150565b6020808252602c908201527f46756e6374696f6e206d7573742062652063616c6c6564207468726f7567682060408201526b19195b1959d85d1958d85b1b60a21b606082015260800190565b6020808252602c908201527f46756e6374696f6e206d7573742062652063616c6c6564207468726f7567682060408201526b6163746976652070726f787960a01b606082015260800190565b634e487b7160e01b600052603260045260246000fd5b96875260208701959095526040860193909352606085019190915260808401526001600160a01b0390811660a08401521660c082015260e00190565b600080600060608486031215613f7f57600080fd5b8351925060208401519150604084015190509250925092565b634e487b7160e01b600052601160045260246000fd5b600082821015613fc057613fc0613f98565b500390565b6000808335601e19843603018112613fdc57600080fd5b83018035915067ffffffffffffffff821115613ff757600080fd5b60200191503681900382131561400c57600080fd5b9250929050565b6020808252602e908201527f496e697469616c697a61626c653a20636f6e747261637420697320616c72656160408201526d191e481a5b9a5d1a585b1a5e995960921b606082015260800190565b6020808252602b908201527f496e697469616c697a61626c653a20636f6e7472616374206973206e6f74206960408201526a6e697469616c697a696e6760a81b606082015260800190565b60008160001904831182151516156140c6576140c6613f98565b500290565b6000826140e857634e487b7160e01b600052601260045260246000fd5b500490565b8183823760009101908152919050565b60005b83811015614118578181015183820152602001614100565b83811115612db05750506000910152565b6000825161413b8184602087016140fd565b9190910192915050565b60208152600082518060208401526141648160408501602087016140fd565b601f01601f1916919091016040019291505056fe360894a13ba1a3210667c828492db98dca3e2076cc3735a920a3ca505d382bbc7cfff908a4b583f36430b25d75964c458d8ede8a99bd61be750e97ee1b2f3a96416464726573733a206c6f772d6c6576656c2064656c65676174652063616c6c206661696c65640000000000000000000000000d500b1d8e8ef31e21c99d1db9a6444d3adf1270a2646970667358221220f15b49dcd47dc6a2e6c420b1df6eb0ccacc046db0380f11b0a5330ccf219c85464736f6c634300080a0033496e697469616c697a61626c653a20636f6e747261637420697320616c726561",
  "immutableReferences": {
    "561": [
      {
        "length": 32,
        "start": 2093
      },
      {
        "length": 32,
        "start": 2157
      },
      {
        "length": 32,
        "start": 4811
      },
      {
        "length": 32,
        "start": 4875
      },
      {
        "length": 32,
        "start": 5391
      }
    ]
  },
  "source": "// SPDX-License-Identifier: MIT\r\npragma solidity 0.8.10;\r\n\r\nimport {IUnoFarmQuickswapDual as Farm} from './interfaces/IUnoFarmQuickswapDual.sol'; \r\nimport '../../interfaces/IUnoFarmFactory.sol';\r\nimport '../../interfaces/IUnoAccessManager.sol'; \r\nimport '../../interfaces/IUniswapV2Pair.sol';\r\nimport '../../interfaces/IStakingDualRewards.sol';\r\nimport '../../interfaces/IWMATIC.sol';\r\nimport '@openzeppelin/contracts-upgradeable/token/ERC20/IERC20Upgradeable.sol';\r\nimport '@openzeppelin/contracts/token/ERC20/IERC20.sol';\r\nimport '@openzeppelin/contracts-upgradeable/token/ERC20/utils/SafeERC20Upgradeable.sol';\r\nimport '@openzeppelin/contracts-upgradeable/proxy/utils/Initializable.sol';\r\nimport '@openzeppelin/contracts-upgradeable/security/PausableUpgradeable.sol';\r\nimport '@openzeppelin/contracts-upgradeable/proxy/utils/UUPSUpgradeable.sol';\r\n\r\ncontract UnoAssetRouterQuickswapDual is Initializable, PausableUpgradeable, UUPSUpgradeable {\r\n    using SafeERC20Upgradeable for IERC20Upgradeable;\r\n\r\n    /**\r\n     * @dev Contract Variables:\r\n     * farmFactory - The contract that deploys new Farms and links them to {lpStakingPool}s.\r\n     * accessManager - Role manager contract.\r\n     */\r\n    IUnoFarmFactory public farmFactory;\r\n    IUnoAccessManager public accessManager;\r\n\r\n    bytes32 private constant DISTRIBUTOR_ROLE = keccak256('DISTRIBUTOR_ROLE');\r\n    bytes32 private constant PAUSER_ROLE = keccak256('PAUSER_ROLE');\r\n\r\n    uint256 public fee;\r\n\r\n    address public constant WMATIC = 0x0d500B1d8E8eF31E21C99d1Db9A6444d3ADf1270;\r\n    address private constant oneInchRouter = 0x1111111254EEB25477B68fb85Ed929f73A960582;\r\n\r\n    event Deposit(address indexed lpPool, address indexed sender, address indexed recipient, uint256 amount);\r\n    event Withdraw(address indexed lpPool, address indexed sender, address indexed recipient, uint256 amount);\r\n    event Distribute(address indexed lpPool, uint256 reward);\r\n\r\n    event FeeChanged(uint256 previousFee, uint256 newFee);\r\n\r\n    modifier onlyRole(bytes32 role){\r\n        require(accessManager.hasRole(role, msg.sender), 'CALLER_NOT_AUTHORIZED');\r\n        _;\r\n    }\r\n\r\n    // ============ Methods ============\r\n\r\n    /// @custom:oz-upgrades-unsafe-allow constructor\r\n    constructor() {\r\n        _disableInitializers();\r\n    }\r\n\r\n    function initialize(address _accessManager, address _farmFactory) external initializer{\r\n        require (_accessManager != address(0), 'BAD_ACCESS_MANAGER');\r\n        require (_farmFactory != address(0), 'BAD_FARM_FACTORY');\r\n\r\n        __Pausable_init();\r\n        accessManager = IUnoAccessManager(_accessManager);\r\n        farmFactory = IUnoFarmFactory(_farmFactory);\r\n    }\r\n\r\n    receive() external payable {\r\n        require(msg.sender == WMATIC, 'ONLY_ACCEPT_WMATIC'); // only accept ETH via fallback from the WMATIC contract\r\n    }\r\n\r\n    /**\r\n     * @dev Deposits tokens in the given pool. Creates new Farm contract if there isn't one deployed for the {lpStakingPool} and deposits tokens in it. Emits a {Deposit} event.\r\n     * @param lpStakingPool - Address of the pool to deposit tokens in.\r\n     * @param amountA  - Token A amount to deposit.\r\n     * @param amountB -  Token B amount to deposit.\r\n     * @param amountAMin - Bounds the extent to which the B/A price can go up before the transaction reverts.\r\n     * @param amountBMin - Bounds the extent to which the A/B price can go up before the transaction reverts.\r\n     * @param amountLP - Additional LP Token amount to deposit.\r\n     * @param recipient - Address which will receive the deposit.\r\n     \r\n     * @return sentA - Token A amount sent to the farm.\r\n     * @return sentB - Token B amount sent to the farm.\r\n     * @return liquidity - Total liquidity sent to the farm (in lpTokens).\r\n     */\r\n    function deposit(address lpStakingPool, uint256 amountA, uint256 amountB, uint256 amountAMin, uint256 amountBMin, uint256 amountLP, address recipient) external whenNotPaused returns(uint256 sentA, uint256 sentB, uint256 liquidity){\r\n        Farm farm = Farm(farmFactory.Farms(lpStakingPool));\r\n        if(farm == Farm(address(0))){\r\n            farm = Farm(farmFactory.createFarm(lpStakingPool));\r\n        }\r\n\r\n        if(amountLP > 0){\r\n            IERC20Upgradeable(farm.lpPair()).safeTransferFrom(msg.sender, address(farm), amountLP);\r\n        } \r\n        if(amountA > 0){\r\n            IERC20Upgradeable(farm.tokenA()).safeTransferFrom(msg.sender, address(farm), amountA);\r\n        }\r\n        if(amountB > 0){\r\n            IERC20Upgradeable(farm.tokenB()).safeTransferFrom(msg.sender, address(farm), amountB);\r\n        }\r\n\r\n        (sentA, sentB, liquidity) = farm.deposit(amountA, amountB, amountAMin, amountBMin, amountLP, msg.sender, recipient);\r\n        emit Deposit(lpStakingPool, msg.sender, recipient, liquidity); \r\n    }\r\n\r\n    /**\r\n     * @dev Autoconverts MATIC into WMATIC and deposits tokens in the given pool. Creates new Farm contract if there isn't one deployed for the {lpStakingPool} and deposits tokens in it. Emits a {Deposit} event.\r\n     * @param lpStakingPool - Address of the pool to deposit tokens in.\r\n     * @param amountToken  - Token amount to deposit.\r\n     * @param amountTokenMin - Bounds the extent to which the TOKEN/WMATIC price can go up before the transaction reverts.\r\n     * @param amountETHMin - Bounds the extent to which the WMATIC/TOKEN price can go up before the transaction reverts.\r\n     * @param amountLP - Additional LP Token amount to deposit.\r\n     * @param recipient - Address which will receive the deposit.\r\n     \r\n     * @return sentToken - Token amount sent to the farm.\r\n     * @return sentETH - WMATIC amount sent to the farm.\r\n     * @return liquidity - Total liquidity sent to the farm (in lpTokens).\r\n     */\r\n    function depositETH(address lpStakingPool, uint256 amountToken, uint256 amountTokenMin, uint256 amountETHMin, uint256 amountLP, address recipient) external payable whenNotPaused returns(uint256 sentToken, uint256 sentETH, uint256 liquidity){\r\n        require(msg.value > 0, \"NO_MATIC_SENT\");\r\n        Farm farm = Farm(farmFactory.Farms(lpStakingPool));\r\n        if(farm == Farm(address(0))){\r\n            farm = Farm(farmFactory.createFarm(lpStakingPool));\r\n        }\r\n\r\n        if(amountLP > 0){\r\n            IERC20Upgradeable(farm.lpPair()).safeTransferFrom(msg.sender, address(farm), amountLP);\r\n        }\r\n\r\n        address tokenA = farm.tokenA();\r\n        address tokenB = farm.tokenB();\r\n\r\n        IWMATIC(WMATIC).deposit{value: msg.value}();\r\n        IERC20Upgradeable(WMATIC).safeTransfer(address(farm), msg.value);\r\n        if (tokenA == WMATIC) {\r\n            if (amountToken > 0) {\r\n                IERC20Upgradeable(tokenB).safeTransferFrom(msg.sender, address(farm), amountToken);\r\n            }\r\n            (sentETH, sentToken, liquidity) = farm.deposit(msg.value, amountToken, amountETHMin, amountTokenMin, amountLP, address(this), recipient);\r\n            IERC20Upgradeable(tokenB).safeTransfer(msg.sender, amountToken - sentToken);\r\n        } else if (tokenB == WMATIC) {\r\n            if (amountToken > 0) {\r\n                IERC20Upgradeable(tokenA).safeTransferFrom(msg.sender, address(farm), amountToken);\r\n            }\r\n            (sentToken, sentETH, liquidity) = farm.deposit(amountToken, msg.value, amountTokenMin, amountETHMin, amountLP, address(this), recipient);\r\n            IERC20Upgradeable(tokenA).safeTransfer(msg.sender, amountToken - sentToken);\r\n        } else {\r\n            revert(\"NOT_WMATIC_POOL\");\r\n        }\r\n\r\n        uint256 dust = msg.value - sentETH;\r\n        if (dust > 0){\r\n            IWMATIC(WMATIC).withdraw(dust);\r\n            payable(msg.sender).transfer(dust);\r\n        }\r\n        emit Deposit(lpStakingPool, msg.sender, recipient, liquidity);\r\n    }\r\n\r\n    /**\r\n     * @dev Deposits single token in the given pool. Creates new Farm contract if there isn't one deployed for the {lpStakingPool}, swaps {token} for pool tokens and deposits them. Emits a {Deposit} event.\r\n     * @param lpStakingPool - Address of the pool to deposit tokens in.\r\n     * @param token  - Address of a token to enter the pool.\r\n     * @param amount - Amount of token sent.\r\n     * @param swapData - Parameter with which 1inch router is being called with.\r\n     * @param amountAMin - Bounds the extent to which the B/A price can go up before the transaction reverts.\r\n     * @param amountBMin - Bounds the extent to which the A/B price can go up before the transaction reverts.\r\n     * @param recipient - Address which will receive the deposit.\r\n     \r\n     * @return sent - Total {token} amount sent to the farm. NOTE: Returns dust left from swap in {token}, but if A/B amounts are not correct also returns dust in pool's tokens.\r\n     * @return liquidity - Total liquidity sent to the farm (in lpTokens).\r\n     */\r\n    function depositSingleAsset(address lpStakingPool, address token, uint256 amount, bytes[2] calldata swapData, uint256 amountAMin, uint256 amountBMin, address recipient) external whenNotPaused returns(uint256 sent, uint256 liquidity){\r\n        require(amount > 0, \"NO_TOKEN_SENT\");\r\n        Farm farm = Farm(farmFactory.Farms(lpStakingPool));\r\n        if(farm == Farm(address(0))){\r\n            farm = Farm(farmFactory.createFarm(lpStakingPool));\r\n        }\r\n\r\n        IERC20Upgradeable(token).safeTransferFrom(msg.sender, address(this), amount);\r\n        IERC20Upgradeable(token).approve(oneInchRouter, amount);\r\n\r\n        sent = amount;\r\n        uint256 amountA;\r\n        uint256 amountB;\r\n        { // scope to avoid stack too deep errors\r\n        address tokenA = farm.tokenA();\r\n        address tokenB = farm.tokenB();\r\n\r\n        if (tokenA != token) {\r\n            (uint256 returnAmount, uint256 spentAmount) = _swap(swapData[0]);\r\n            amount -= spentAmount;\r\n            amountA = returnAmount;\r\n        }\r\n        if (tokenB != token) {\r\n            (uint256 returnAmount, uint256 spentAmount) = _swap(swapData[1]);\r\n            amount -= spentAmount;\r\n            amountB = returnAmount;\r\n        }\r\n\r\n        if (tokenA == token) {\r\n            amountA = amount;\r\n        } else if (tokenB == token) {\r\n            amountB = amount;\r\n        } else if(amount > 0) {\r\n            sent -= amount;\r\n            IERC20Upgradeable(token).safeTransfer(msg.sender, amount);\r\n        }\r\n\r\n        if(amountA > 0){\r\n            IERC20Upgradeable(tokenA).safeTransfer(address(farm), amountA);\r\n        }\r\n        if(amountB > 0){\r\n            IERC20Upgradeable(tokenB).safeTransfer(address(farm), amountB);\r\n        }\r\n        }\r\n\r\n        (,,liquidity) = farm.deposit(amountA, amountB, amountAMin, amountBMin, 0, msg.sender, recipient);\r\n        emit Deposit(lpStakingPool, msg.sender, recipient, liquidity);\r\n    }\r\n\r\n    /**\r\n     * @dev Deposits single MATIC in the given pool. Creates new Farm contract if there isn't one deployed for the {lpStakingPool}, swaps MATIC for pool tokens and deposits them. Emits a {Deposit} event.\r\n     * @param lpStakingPool - Address of the pool to deposit tokens in.\r\n     * @param swapData - Parameter with which 1inch router is being called with.\r\n     * @param amountAMin - Bounds the extent to which the B/A price can go up before the transaction reverts.\r\n     * @param amountBMin - Bounds the extent to which the A/B price can go up before the transaction reverts.\r\n     * @param recipient - Address which will receive the deposit.\r\n     \r\n     * @return sentETH - Total MATIC amount sent to the farm. NOTE: Returns dust left from swap in MATIC, but if A/B amount are not correct also returns dust in pool's tokens.\r\n     * @return liquidity - Total liquidity sent to the farm (in lpTokens).\r\n     */\r\n    function depositSingleETH(address lpStakingPool, bytes[2] calldata swapData, uint256 amountAMin, uint256 amountBMin, address recipient) external payable whenNotPaused returns(uint256 sentETH, uint256 liquidity){\r\n        require(msg.value > 0, \"NO_MATIC_SENT\");\r\n        Farm farm = Farm(farmFactory.Farms(lpStakingPool));\r\n        if(farm == Farm(address(0))){\r\n            farm = Farm(farmFactory.createFarm(lpStakingPool));\r\n        }\r\n\r\n        uint256 amount = msg.value;\r\n        IWMATIC(WMATIC).deposit{value: amount}();\r\n        IERC20Upgradeable(WMATIC).approve(oneInchRouter, amount);\r\n\r\n        sentETH = amount;\r\n        uint256 amountA;\r\n        uint256 amountB;\r\n        { // scope to avoid stack too deep errors\r\n        address tokenA = farm.tokenA();\r\n        address tokenB = farm.tokenB();\r\n\r\n        if (tokenA != WMATIC) {\r\n            (uint256 returnAmount, uint256 spentAmount) = _swap(swapData[0]);\r\n            amount -= spentAmount;\r\n            amountA = returnAmount;\r\n        }\r\n        if (tokenB != WMATIC) {\r\n            (uint256 returnAmount, uint256 spentAmount) = _swap(swapData[1]);\r\n            amount -= spentAmount;\r\n            amountB = returnAmount;\r\n        }\r\n\r\n        if (tokenA == WMATIC) {\r\n            amountA = amount;\r\n        } else if (tokenB == WMATIC) {\r\n            amountB = amount;\r\n        } else if (amount > 0) {\r\n            sentETH -= amount;\r\n            IWMATIC(WMATIC).withdraw(amount);\r\n            payable(msg.sender).transfer(amount);\r\n        }\r\n\r\n        if(amountA > 0){\r\n            IERC20Upgradeable(tokenA).safeTransfer(address(farm), amountA);\r\n        }\r\n        if(amountB > 0){\r\n            IERC20Upgradeable(tokenB).safeTransfer(address(farm), amountB);\r\n        }\r\n        }\r\n\r\n        (,,liquidity) = farm.deposit(amountA, amountB, amountAMin, amountBMin, 0, msg.sender, recipient);\r\n        emit Deposit(lpStakingPool, msg.sender, recipient, liquidity);\r\n    }\r\n\r\n    /** \r\n     * @dev Withdraws tokens from the given pool. Emits a {Withdraw} event.\r\n     * @param lpStakingPool - LP pool to withdraw from.\r\n     * @param amount - LP amount to withdraw. \r\n     * @param amountAMin - The minimum amount of tokenA that must be received for the transaction not to revert.\r\n     * @param amountBMin - The minimum amount of tokenB that must be received for the transaction not to revert.\r\n     * @param withdrawLP - True: Withdraw in LP tokens, False: Withdraw in normal tokens.\r\n     * @param recipient - The address which will receive tokens.\r\n\r\n     * @return amountA - Token A amount sent to the {recipient}, 0 if withdrawLP == false.\r\n     * @return amountB - Token B amount sent to the {recipient}, 0 if withdrawLP == false.\r\n     */ \r\n    function withdraw(address lpStakingPool, uint256 amount, uint256 amountAMin, uint256 amountBMin, bool withdrawLP, address recipient) external returns(uint256 amountA, uint256 amountB){\r\n        Farm farm = Farm(farmFactory.Farms(lpStakingPool));\r\n        require(farm != Farm(address(0)),'FARM_NOT_EXISTS');\r\n        \r\n        (amountA, amountB) = farm.withdraw(amount, amountAMin, amountBMin, withdrawLP, msg.sender, recipient); \r\n        emit Withdraw(lpStakingPool, msg.sender, recipient, amount);\r\n    }\r\n\r\n    /** \r\n     * @dev Autoconverts WMATIC into MATIC and withdraws tokens from the pool. Emits a {Withdraw} event.\r\n     * @param lpStakingPool - LP pool to withdraw from.\r\n     * @param amount - LP amount to withdraw. \r\n     * @param amountTokenMin - The minimum amount of token that must be received for the transaction not to revert.\r\n     * @param amountETHMin - The minimum amount of MATIC that must be received for the transaction not to revert.\r\n     * @param recipient - The address which will receive tokens.\r\n\r\n     * @return amountToken - Token amount sent to the {recipient}.\r\n     * @return amountETH - MATIC amount sent to the {recipient}.\r\n     */ \r\n    function withdrawETH(address lpStakingPool, uint256 amount, uint256 amountTokenMin, uint256 amountETHMin, address recipient) external returns(uint256 amountToken, uint256 amountETH){\r\n        Farm farm = Farm(farmFactory.Farms(lpStakingPool));\r\n        require(farm != Farm(address(0)),'FARM_NOT_EXISTS');\r\n\r\n        address tokenA = farm.tokenA();\r\n        address tokenB = farm.tokenB();\r\n\r\n        if (tokenA == WMATIC) {\r\n            (amountETH, amountToken) = farm.withdraw(amount, amountETHMin, amountTokenMin, false, msg.sender, address(this));\r\n            IERC20Upgradeable(tokenB).safeTransfer(recipient, amountToken);\r\n        } else if (tokenB == WMATIC) {\r\n            (amountToken, amountETH) = farm.withdraw(amount, amountTokenMin, amountETHMin, false, msg.sender, address(this)); \r\n            IERC20Upgradeable(tokenA).safeTransfer(recipient, amountToken);\r\n        } else {\r\n            revert(\"NOT_WMATIC_POOL\");\r\n        }\r\n\r\n        IWMATIC(WMATIC).withdraw(amountETH);\r\n        payable(recipient).transfer(amountETH);\r\n        emit Withdraw(lpStakingPool, msg.sender, recipient, amount);\r\n    }\r\n\r\n     /**\r\n     * @dev Distributes tokens between users.\r\n     * @param lpStakingPool - LP pool to distribute tokens in.\r\n     * @param swapInfos - Arrays of structs with token arrays describing swap routes (rewardTokenAToTokenA, rewardTokenAToTokenB, rewardTokenBToTokenA, rewardTokenBToTokenB) and minimum amounts of output tokens that must be received for the transaction not to revert.\r\n     * @param feeSwapInfos - Arrays of structs with token arrays describing swap routes (rewardTokenAToFeeToken, rewardTokenBToFeeToken) and minimum amounts of output tokens that must be received for the transaction not to revert.\r\n     * @param feeTo - Address to collect fees to.\r\n     *\r\n     * Note: This function can only be called by the distributor.\r\n     */ \r\n    function distribute(\r\n        address lpStakingPool,\r\n        Farm.SwapInfo[4] calldata swapInfos,\r\n        Farm.SwapInfo[2] calldata feeSwapInfos,\r\n        address feeTo\r\n    ) external whenNotPaused onlyRole(DISTRIBUTOR_ROLE) {\r\n        Farm farm = Farm(farmFactory.Farms(lpStakingPool));\r\n        require(farm != Farm(address(0)), 'FARM_NOT_EXISTS');\r\n\r\n        uint256 reward = farm.distribute(swapInfos, feeSwapInfos, Farm.FeeInfo(feeTo, fee));\r\n        emit Distribute(lpStakingPool, reward);\r\n    }\r\n\r\n    /**\r\n     * @dev Returns tokens staked by the {_address} for the given {lpStakingPool}.\r\n     * @param _address - The address to check stakes for.\r\n     * @param lpStakingPool - LP pool to check stakes in.\r\n\r\n     * @return stakeLP - Total user stake(in LP tokens).\r\n     * @return stakeA - Token A stake.\r\n     * @return stakeB - Token B stake.\r\n     */\r\n    function userStake(address _address, address lpStakingPool) external view returns (uint256 stakeLP, uint256 stakeA, uint256 stakeB) {\r\n        Farm farm = Farm(farmFactory.Farms(lpStakingPool));\r\n        if (farm != Farm(address(0))) {\r\n            stakeLP = farm.userBalance(_address);\r\n            address lpPair = farm.lpPair();\r\n            (stakeA, stakeB) = _getTokenStake(lpPair, stakeLP);\r\n        }\r\n    }\r\n\r\n    /**\r\n     * @dev Returns total amount locked in the pool. Doesn't take pending rewards into account.\r\n     * @param lpStakingPool - LP pool to check total deposits in.\r\n\r\n     * @return totalDepositsLP - Total deposits (in LP tokens).\r\n     * @return totalDepositsA - Token A deposits.\r\n     * @return totalDepositsB - Token B deposits.\r\n     */  \r\n    function totalDeposits(address lpStakingPool) external view returns (uint256 totalDepositsLP, uint256 totalDepositsA, uint256 totalDepositsB) {\r\n        Farm farm = Farm(farmFactory.Farms(lpStakingPool));\r\n        if (farm != Farm(address(0))) {\r\n            totalDepositsLP = farm.getTotalDeposits();\r\n            address lpPair = farm.lpPair();\r\n            (totalDepositsA, totalDepositsB) = _getTokenStake(lpPair, totalDepositsLP);\r\n        }\r\n    }\r\n\r\n    /**\r\n     * @dev Returns addresses of pair of tokens in {lpStakingPool}.\r\n     * @param lpStakingPool - LP pool to check tokens in.\r\n\r\n     * @return tokens - Tokens addresses.\r\n     */  \r\n    function getTokens(address lpStakingPool) external view returns(IERC20[] memory tokens){\r\n        tokens = new IERC20[](2);\r\n        IUniswapV2Pair stakingToken = IUniswapV2Pair(address(IStakingDualRewards(lpStakingPool).stakingToken()));\r\n        tokens[0] = IERC20(stakingToken.token0());\r\n        tokens[1] = IERC20(stakingToken.token1());\r\n    }\r\n\r\n    /**\r\n     * @dev Swaps assets using 1inch exchange.\r\n     */  \r\n    function _swap(bytes calldata swapData) internal returns(uint256 returnAmount, uint256 spentAmount){\r\n        (bool success, bytes memory data) = oneInchRouter.call(swapData);\r\n        require(success, \"SWAP_NOT_SUCCESSFUL\");\r\n        (returnAmount, spentAmount) = abi.decode(data, (uint256, uint256));\r\n    }\r\n\r\n    /**\r\n     * @dev Converts LP tokens to normal tokens, value(amountA) == value(amountB) == 0.5*amountLP\r\n     * @param lpPair - LP pair for conversion.\r\n     * @param amountLP - Amount of LP tokens to convert.\r\n\r\n     * @return amountA - Token A amount.\r\n     * @return amountB - Token B amount.\r\n     */ \r\n    function _getTokenStake(address lpPair, uint256 amountLP) internal view returns (uint256 amountA, uint256 amountB) {\r\n        uint256 totalSupply = IERC20Upgradeable(lpPair).totalSupply();\r\n        amountA = amountLP * IERC20Upgradeable(IUniswapV2Pair(lpPair).token0()).balanceOf(lpPair) / totalSupply;\r\n        amountB = amountLP * IERC20Upgradeable(IUniswapV2Pair(lpPair).token1()).balanceOf(lpPair) / totalSupply;\r\n    }\r\n\r\n    /**\r\n     * @dev Change fee amount.\r\n     * @param _fee -New fee to collect from farms. [10^18 == 100%]\r\n     *\r\n     * Note: This function can only be called by ADMIN_ROLE.\r\n     */ \r\n    function setFee(uint256 _fee) external onlyRole(accessManager.ADMIN_ROLE()){\r\n        require (_fee <= 1 ether, \"BAD_FEE\");\r\n        if(fee != _fee){\r\n            emit FeeChanged(fee, _fee); \r\n            fee = _fee;\r\n        }\r\n    }\r\n\r\n    function pause() external onlyRole(PAUSER_ROLE) {\r\n        _pause();\r\n    }\r\n\r\n    function unpause() external onlyRole(PAUSER_ROLE) {\r\n        _unpause();\r\n    }\r\n\r\n    function _authorizeUpgrade(address) internal override onlyRole(accessManager.ADMIN_ROLE()) {\r\n\r\n    }\r\n}\r\n",
  "sourcePath": "C:\\Users\\jugli\\Desktop\\uno\\uno-contracts-copy\\contracts\\apps\\quickswapDual\\UnoAssetRouterQuickswapDual.sol",
  "compiler": {
    "name": "solc",
    "version": "0.8.10+commit.fc410830.Emscripten.clang"
  },
  "schemaVersion": "3.4.11",
  "updatedAt": "2022-12-16T14:13:27.685Z",
  "devdoc": {
    "kind": "dev",
    "methods": {
      "constructor": {
        "custom:oz-upgrades-unsafe-allow": "constructor"
      },
      "deposit(address,uint256,uint256,uint256,uint256,uint256,address)": {
        "details": "Deposits tokens in the given pool. Creates new Farm contract if there isn't one deployed for the {lpStakingPool} and deposits tokens in it. Emits a {Deposit} event.",
        "params": {
          "amountA": "- Token A amount to deposit.",
          "amountAMin": "- Bounds the extent to which the B/A price can go up before the transaction reverts.",
          "amountB": "-  Token B amount to deposit.",
          "amountBMin": "- Bounds the extent to which the A/B price can go up before the transaction reverts.",
          "amountLP": "- Additional LP Token amount to deposit.",
          "lpStakingPool": "- Address of the pool to deposit tokens in.",
          "recipient": "- Address which will receive the deposit."
        },
        "returns": {
          "liquidity": "- Total liquidity sent to the farm (in lpTokens).",
          "sentA": "- Token A amount sent to the farm.",
          "sentB": "- Token B amount sent to the farm."
        }
      },
      "depositETH(address,uint256,uint256,uint256,uint256,address)": {
        "details": "Autoconverts MATIC into WMATIC and deposits tokens in the given pool. Creates new Farm contract if there isn't one deployed for the {lpStakingPool} and deposits tokens in it. Emits a {Deposit} event.",
        "params": {
          "amountETHMin": "- Bounds the extent to which the WMATIC/TOKEN price can go up before the transaction reverts.",
          "amountLP": "- Additional LP Token amount to deposit.",
          "amountToken": "- Token amount to deposit.",
          "amountTokenMin": "- Bounds the extent to which the TOKEN/WMATIC price can go up before the transaction reverts.",
          "lpStakingPool": "- Address of the pool to deposit tokens in.",
          "recipient": "- Address which will receive the deposit."
        },
        "returns": {
          "liquidity": "- Total liquidity sent to the farm (in lpTokens).",
          "sentETH": "- WMATIC amount sent to the farm.",
          "sentToken": "- Token amount sent to the farm."
        }
      },
      "depositSingleAsset(address,address,uint256,bytes[2],uint256,uint256,address)": {
        "details": "Deposits single token in the given pool. Creates new Farm contract if there isn't one deployed for the {lpStakingPool}, swaps {token} for pool tokens and deposits them. Emits a {Deposit} event.",
        "params": {
          "amount": "- Amount of token sent.",
          "amountAMin": "- Bounds the extent to which the B/A price can go up before the transaction reverts.",
          "amountBMin": "- Bounds the extent to which the A/B price can go up before the transaction reverts.",
          "lpStakingPool": "- Address of the pool to deposit tokens in.",
          "recipient": "- Address which will receive the deposit.",
          "swapData": "- Parameter with which 1inch router is being called with.",
          "token": "- Address of a token to enter the pool."
        },
        "returns": {
          "liquidity": "- Total liquidity sent to the farm (in lpTokens).",
          "sent": "- Total {token} amount sent to the farm. NOTE: Returns dust left from swap in {token}, but if A/B amounts are not correct also returns dust in pool's tokens."
        }
      },
      "depositSingleETH(address,bytes[2],uint256,uint256,address)": {
        "details": "Deposits single MATIC in the given pool. Creates new Farm contract if there isn't one deployed for the {lpStakingPool}, swaps MATIC for pool tokens and deposits them. Emits a {Deposit} event.",
        "params": {
          "amountAMin": "- Bounds the extent to which the B/A price can go up before the transaction reverts.",
          "amountBMin": "- Bounds the extent to which the A/B price can go up before the transaction reverts.",
          "lpStakingPool": "- Address of the pool to deposit tokens in.",
          "recipient": "- Address which will receive the deposit.",
          "swapData": "- Parameter with which 1inch router is being called with."
        },
        "returns": {
          "liquidity": "- Total liquidity sent to the farm (in lpTokens).",
          "sentETH": "- Total MATIC amount sent to the farm. NOTE: Returns dust left from swap in MATIC, but if A/B amount are not correct also returns dust in pool's tokens."
        }
      },
      "distribute(address,(address[],uint256)[4],(address[],uint256)[2],address)": {
        "details": "Distributes tokens between users.",
        "params": {
          "feeSwapInfos": "- Arrays of structs with token arrays describing swap routes (rewardTokenAToFeeToken, rewardTokenBToFeeToken) and minimum amounts of output tokens that must be received for the transaction not to revert.",
          "feeTo": "- Address to collect fees to. Note: This function can only be called by the distributor.",
          "lpStakingPool": "- LP pool to distribute tokens in.",
          "swapInfos": "- Arrays of structs with token arrays describing swap routes (rewardTokenAToTokenA, rewardTokenAToTokenB, rewardTokenBToTokenA, rewardTokenBToTokenB) and minimum amounts of output tokens that must be received for the transaction not to revert."
        }
      },
      "getTokens(address)": {
        "details": "Returns addresses of pair of tokens in {lpStakingPool}.",
        "params": {
          "lpStakingPool": "- LP pool to check tokens in."
        },
        "returns": {
          "tokens": "- Tokens addresses."
        }
      },
      "paused()": {
        "details": "Returns true if the contract is paused, and false otherwise."
      },
      "proxiableUUID()": {
        "details": "Implementation of the ERC1822 {proxiableUUID} function. This returns the storage slot used by the implementation. It is used to validate that the this implementation remains valid after an upgrade. IMPORTANT: A proxy pointing at a proxiable contract should not be considered proxiable itself, because this risks bricking a proxy that upgrades to it, by delegating to itself until out of gas. Thus it is critical that this function revert if invoked through a proxy. This is guaranteed by the `notDelegated` modifier."
      },
      "setFee(uint256)": {
        "details": "Change fee amount.",
        "params": {
          "_fee": "-New fee to collect from farms. [10^18 == 100%] Note: This function can only be called by ADMIN_ROLE."
        }
      },
      "totalDeposits(address)": {
        "details": "Returns total amount locked in the pool. Doesn't take pending rewards into account.",
        "params": {
          "lpStakingPool": "- LP pool to check total deposits in."
        },
        "returns": {
          "totalDepositsA": "- Token A deposits.",
          "totalDepositsB": "- Token B deposits.",
          "totalDepositsLP": "- Total deposits (in LP tokens)."
        }
      },
      "upgradeTo(address)": {
        "details": "Upgrade the implementation of the proxy to `newImplementation`. Calls {_authorizeUpgrade}. Emits an {Upgraded} event."
      },
      "upgradeToAndCall(address,bytes)": {
        "details": "Upgrade the implementation of the proxy to `newImplementation`, and subsequently execute the function call encoded in `data`. Calls {_authorizeUpgrade}. Emits an {Upgraded} event."
      },
      "userStake(address,address)": {
        "details": "Returns tokens staked by the {_address} for the given {lpStakingPool}.",
        "params": {
          "_address": "- The address to check stakes for.",
          "lpStakingPool": "- LP pool to check stakes in."
        },
        "returns": {
          "stakeA": "- Token A stake.",
          "stakeB": "- Token B stake.",
          "stakeLP": "- Total user stake(in LP tokens)."
        }
      },
      "withdraw(address,uint256,uint256,uint256,bool,address)": {
        "details": "Withdraws tokens from the given pool. Emits a {Withdraw} event.",
        "params": {
          "amount": "- LP amount to withdraw. ",
          "amountAMin": "- The minimum amount of tokenA that must be received for the transaction not to revert.",
          "amountBMin": "- The minimum amount of tokenB that must be received for the transaction not to revert.",
          "lpStakingPool": "- LP pool to withdraw from.",
          "recipient": "- The address which will receive tokens.",
          "withdrawLP": "- True: Withdraw in LP tokens, False: Withdraw in normal tokens."
        },
        "returns": {
          "amountA": "- Token A amount sent to the {recipient}, 0 if withdrawLP == false.",
          "amountB": "- Token B amount sent to the {recipient}, 0 if withdrawLP == false."
        }
      },
      "withdrawETH(address,uint256,uint256,uint256,address)": {
        "details": "Autoconverts WMATIC into MATIC and withdraws tokens from the pool. Emits a {Withdraw} event.",
        "params": {
          "amount": "- LP amount to withdraw. ",
          "amountETHMin": "- The minimum amount of MATIC that must be received for the transaction not to revert.",
          "amountTokenMin": "- The minimum amount of token that must be received for the transaction not to revert.",
          "lpStakingPool": "- LP pool to withdraw from.",
          "recipient": "- The address which will receive tokens."
        },
        "returns": {
          "amountETH": "- MATIC amount sent to the {recipient}.",
          "amountToken": "- Token amount sent to the {recipient}."
        }
      }
    },
    "stateVariables": {
      "farmFactory": {
        "details": "Contract Variables: farmFactory - The contract that deploys new Farms and links them to {lpStakingPool}s. accessManager - Role manager contract."
      }
    },
    "version": 1
  },
  "userdoc": {
    "kind": "user",
    "methods": {},
    "version": 1
  }
}