{
  "contractName": "UnoAssetRouterBalancerV2",
  "abi": [
    {
      "anonymous": false,
      "inputs": [
        {
          "indexed": false,
          "internalType": "address",
          "name": "previousAdmin",
          "type": "address"
        },
        {
          "indexed": false,
          "internalType": "address",
          "name": "newAdmin",
          "type": "address"
        }
      ],
      "name": "AdminChanged",
      "type": "event"
    },
    {
      "anonymous": false,
      "inputs": [
        {
          "indexed": true,
          "internalType": "address",
          "name": "beacon",
          "type": "address"
        }
      ],
      "name": "BeaconUpgraded",
      "type": "event"
    },
    {
      "anonymous": false,
      "inputs": [
        {
          "indexed": true,
          "internalType": "address",
          "name": "lpPool",
          "type": "address"
        },
        {
          "indexed": true,
          "internalType": "address",
          "name": "sender",
          "type": "address"
        },
        {
          "indexed": true,
          "internalType": "address",
          "name": "recipient",
          "type": "address"
        },
        {
          "indexed": false,
          "internalType": "uint256",
          "name": "amount",
          "type": "uint256"
        }
      ],
      "name": "Deposit",
      "type": "event"
    },
    {
      "anonymous": false,
      "inputs": [
        {
          "indexed": true,
          "internalType": "address",
          "name": "lpPool",
          "type": "address"
        },
        {
          "indexed": false,
          "internalType": "uint256",
          "name": "reward",
          "type": "uint256"
        }
      ],
      "name": "Distribute",
      "type": "event"
    },
    {
      "anonymous": false,
      "inputs": [
        {
          "indexed": false,
          "internalType": "uint8",
          "name": "version",
          "type": "uint8"
        }
      ],
      "name": "Initialized",
      "type": "event"
    },
    {
      "anonymous": false,
      "inputs": [
        {
          "indexed": false,
          "internalType": "address",
          "name": "account",
          "type": "address"
        }
      ],
      "name": "Paused",
      "type": "event"
    },
    {
      "anonymous": false,
      "inputs": [
        {
          "indexed": false,
          "internalType": "address",
          "name": "account",
          "type": "address"
        }
      ],
      "name": "Unpaused",
      "type": "event"
    },
    {
      "anonymous": false,
      "inputs": [
        {
          "indexed": true,
          "internalType": "address",
          "name": "implementation",
          "type": "address"
        }
      ],
      "name": "Upgraded",
      "type": "event"
    },
    {
      "anonymous": false,
      "inputs": [
        {
          "indexed": true,
          "internalType": "address",
          "name": "lpPool",
          "type": "address"
        },
        {
          "indexed": true,
          "internalType": "address",
          "name": "sender",
          "type": "address"
        },
        {
          "indexed": true,
          "internalType": "address",
          "name": "recipient",
          "type": "address"
        },
        {
          "indexed": false,
          "internalType": "uint256",
          "name": "amount",
          "type": "uint256"
        }
      ],
      "name": "Withdraw",
      "type": "event"
    },
    {
      "inputs": [],
      "name": "accessManager",
      "outputs": [
        {
          "internalType": "contract IUnoAccessManager",
          "name": "",
          "type": "address"
        }
      ],
      "stateMutability": "view",
      "type": "function"
    },
    {
      "inputs": [],
      "name": "farmFactory",
      "outputs": [
        {
          "internalType": "contract IUnoFarmFactory",
          "name": "",
          "type": "address"
        }
      ],
      "stateMutability": "view",
      "type": "function"
    },
    {
      "inputs": [],
      "name": "paused",
      "outputs": [
        {
          "internalType": "bool",
          "name": "",
          "type": "bool"
        }
      ],
      "stateMutability": "view",
      "type": "function"
    },
    {
      "inputs": [],
      "name": "proxiableUUID",
      "outputs": [
        {
          "internalType": "bytes32",
          "name": "",
          "type": "bytes32"
        }
      ],
      "stateMutability": "view",
      "type": "function"
    },
    {
      "inputs": [
        {
          "internalType": "address",
          "name": "newImplementation",
          "type": "address"
        }
      ],
      "name": "upgradeTo",
      "outputs": [],
      "stateMutability": "nonpayable",
      "type": "function"
    },
    {
      "inputs": [
        {
          "internalType": "address",
          "name": "newImplementation",
          "type": "address"
        },
        {
          "internalType": "bytes",
          "name": "data",
          "type": "bytes"
        }
      ],
      "name": "upgradeToAndCall",
      "outputs": [],
      "stateMutability": "payable",
      "type": "function"
    },
    {
      "inputs": [],
      "name": "version",
      "outputs": [
        {
          "internalType": "uint256",
          "name": "",
          "type": "uint256"
        }
      ],
      "stateMutability": "view",
      "type": "function"
    },
    {
      "inputs": [
        {
          "internalType": "address",
          "name": "_accessManager",
          "type": "address"
        },
        {
          "internalType": "address",
          "name": "_farmFactory",
          "type": "address"
        }
      ],
      "name": "initialize",
      "outputs": [],
      "stateMutability": "nonpayable",
      "type": "function"
    },
    {
      "inputs": [
        {
          "internalType": "address",
          "name": "lpPool",
          "type": "address"
        },
        {
          "internalType": "uint256[]",
          "name": "amounts",
          "type": "uint256[]"
        },
        {
          "internalType": "address[]",
          "name": "tokens",
          "type": "address[]"
        },
        {
          "internalType": "uint256",
          "name": "minAmountLP",
          "type": "uint256"
        },
        {
          "internalType": "uint256",
          "name": "amountLP",
          "type": "uint256"
        },
        {
          "internalType": "address",
          "name": "recipient",
          "type": "address"
        }
      ],
      "name": "deposit",
      "outputs": [
        {
          "internalType": "uint256",
          "name": "liquidity",
          "type": "uint256"
        }
      ],
      "stateMutability": "nonpayable",
      "type": "function"
    },
    {
      "inputs": [
        {
          "internalType": "address",
          "name": "lpPool",
          "type": "address"
        },
        {
          "internalType": "uint256",
          "name": "amount",
          "type": "uint256"
        },
        {
          "internalType": "uint256[]",
          "name": "minAmountsOut",
          "type": "uint256[]"
        },
        {
          "internalType": "bool",
          "name": "withdrawLP",
          "type": "bool"
        },
        {
          "internalType": "address",
          "name": "recipient",
          "type": "address"
        }
      ],
      "name": "withdraw",
      "outputs": [],
      "stateMutability": "nonpayable",
      "type": "function"
    },
    {
      "inputs": [
        {
          "internalType": "address",
          "name": "lpPool",
          "type": "address"
        },
        {
          "components": [
            {
              "internalType": "bytes32",
              "name": "poolId",
              "type": "bytes32"
            },
            {
              "internalType": "uint256",
              "name": "assetInIndex",
              "type": "uint256"
            },
            {
              "internalType": "uint256",
              "name": "assetOutIndex",
              "type": "uint256"
            },
            {
              "internalType": "uint256",
              "name": "amount",
              "type": "uint256"
            },
            {
              "internalType": "bytes",
              "name": "userData",
              "type": "bytes"
            }
          ],
          "internalType": "struct IVault.BatchSwapStep[][]",
          "name": "swaps",
          "type": "tuple[][]"
        },
        {
          "internalType": "contract IAsset[][]",
          "name": "assets",
          "type": "address[][]"
        },
        {
          "internalType": "int256[][]",
          "name": "limits",
          "type": "int256[][]"
        }
      ],
      "name": "distribute",
      "outputs": [],
      "stateMutability": "nonpayable",
      "type": "function"
    },
    {
      "inputs": [
        {
          "internalType": "address",
          "name": "_address",
          "type": "address"
        },
        {
          "internalType": "address",
          "name": "lpPool",
          "type": "address"
        }
      ],
      "name": "userStake",
      "outputs": [
        {
          "internalType": "uint256",
          "name": "",
          "type": "uint256"
        }
      ],
      "stateMutability": "view",
      "type": "function"
    },
    {
      "inputs": [
        {
          "internalType": "address",
          "name": "lpPool",
          "type": "address"
        }
      ],
      "name": "totalDeposits",
      "outputs": [
        {
          "internalType": "uint256",
          "name": "",
          "type": "uint256"
        }
      ],
      "stateMutability": "view",
      "type": "function"
    },
    {
      "inputs": [
        {
          "internalType": "address",
          "name": "lpPool",
          "type": "address"
        }
      ],
      "name": "getTokens",
      "outputs": [
        {
          "internalType": "contract IERC20[]",
          "name": "tokens",
          "type": "address[]"
        }
      ],
      "stateMutability": "view",
      "type": "function"
    },
    {
      "inputs": [],
      "name": "pause",
      "outputs": [],
      "stateMutability": "nonpayable",
      "type": "function"
    },
    {
      "inputs": [],
      "name": "unpause",
      "outputs": [],
      "stateMutability": "nonpayable",
      "type": "function"
    }
  ],
  "bytecode": "0x60a06040523060805234801561001457600080fd5b50608051612ca461004c600039600081816103070152818161039101528181610a3401528181610ab90152610ca40152612ca46000f3fe6080604052600436106100f35760003560e01c806354fd4d501161008a578063947b916011610059578063947b91601461027c57806398343fd01461029c578063e9403256146102bc578063fdcb6068146102dc57600080fd5b806354fd4d50146101f75780635c975abb1461020c5780636d25e1751461022f5780638456cb591461026757600080fd5b8063485cc955116100c6578063485cc9551461018f5780634f1ef286146101af57806351bdca3e146101c257806352d1902d146101e257600080fd5b80633659cfe6146100f85780633cffb2661461011a5780633f4ba83a1461014d578063450efe2114610162575b600080fd5b34801561010457600080fd5b50610118610113366004611ee7565b6102fc565b005b34801561012657600080fd5b5061013a61013536600461200c565b61047d565b6040519081526020015b60405180910390f35b34801561015957600080fd5b506101186107a2565b34801561016e57600080fd5b5061018261017d366004611ee7565b61088a565b60405161014491906120fc565b34801561019b57600080fd5b506101186101aa366004612149565b610975565b6101186101bd3660046121f2565b610a29565b3480156101ce57600080fd5b5061013a6101dd366004612149565b610b96565b3480156101ee57600080fd5b5061013a610c97565b34801561020357600080fd5b5061013a600281565b34801561021857600080fd5b5060335460ff166040519015158152602001610144565b34801561023b57600080fd5b5060c95461024f906001600160a01b031681565b6040516001600160a01b039091168152602001610144565b34801561027357600080fd5b50610118610d5c565b34801561028857600080fd5b5061011861029736600461225b565b610e42565b3480156102a857600080fd5b506101186102b73660046124c2565b611009565b3480156102c857600080fd5b5061013a6102d7366004611ee7565b6112a9565b3480156102e857600080fd5b5060ca5461024f906001600160a01b031681565b306001600160a01b037f000000000000000000000000000000000000000000000000000000000000000016141561038f5760405162461bcd60e51b815260206004820152602c60248201527f46756e6374696f6e206d7573742062652063616c6c6564207468726f7567682060448201526b19195b1959d85d1958d85b1b60a21b60648201526084015b60405180910390fd5b7f00000000000000000000000000000000000000000000000000000000000000006001600160a01b03166103ea7f360894a13ba1a3210667c828492db98dca3e2076cc3735a920a3ca505d382bbc546001600160a01b031690565b6001600160a01b0316146104555760405162461bcd60e51b815260206004820152602c60248201527f46756e6374696f6e206d7573742062652063616c6c6564207468726f7567682060448201526b6163746976652070726f787960a01b6064820152608401610386565b61045e8161139e565b6040805160008082526020820190925261047a918391906114de565b50565b600061048b60335460ff1690565b156104cb5760405162461bcd60e51b815260206004820152601060248201526f14185d5cd8589b194e881c185d5cd95960821b6044820152606401610386565b84518651146105285760405162461bcd60e51b8152602060048201526024808201527f414d4f554e54535f414e445f544f4b454e535f4c454e475448535f4e4f545f4d604482015263082a886960e31b6064820152608401610386565b60c95460405163f9d9331d60e01b81526001600160a01b038981166004830152600092169063f9d9331d90602401602060405180830381865afa158015610573573d6000803e3d6000fd5b505050506040513d601f19601f8201168201806040525081019061059791906126f9565b90506001600160a01b0381166106195760c954604051621849e360e61b81526001600160a01b038a811660048301529091169063061278c0906024016020604051808303816000875af11580156105f2573d6000803e3d6000fd5b505050506040513d601f19601f8201168201806040525081019061061691906126f9565b90505b60005b86518110156106ab57600088828151811061063957610639612716565b602002602001015111156106995761069933838a848151811061065e5761065e612716565b60200260200101518a858151811061067857610678612716565b60200260200101516001600160a01b031661167e909392919063ffffffff16565b806106a38161272c565b91505061061c565b5083156106c7576106c76001600160a01b03891633838761167e565b604051632272658560e11b81526001600160a01b038216906344e4cb0a906106fb908a908a908a908a908a90600401612755565b6020604051808303816000875af115801561071a573d6000803e3d6000fd5b505050506040513d601f19601f8201168201806040525081019061073e91906127ff565b9150826001600160a01b0316336001600160a01b0316896001600160a01b03167f7cfff908a4b583f36430b25d75964c458d8ede8a99bd61be750e97ee1b2f3a968560405161078f91815260200190565b60405180910390a4509695505050505050565b60ca54604051632474521560e21b81527f65d7a28e3265b37a6474929f336521b332c1681b933f6cb9f3376673440d862a60048201523360248201526001600160a01b03909116906391d1485490604401602060405180830381865afa158015610810573d6000803e3d6000fd5b505050506040513d601f19601f820116820180604052508101906108349190612818565b6108805760405162461bcd60e51b815260206004820152601160248201527f43414c4c45525f4e4f545f5041555345520000000000000000000000000000006044820152606401610386565b6108886116f3565b565b60606000826001600160a01b03166338fff2d06040518163ffffffff1660e01b8152600401602060405180830381865afa1580156108cc573d6000803e3d6000fd5b505050506040513d601f19601f820116820180604052508101906108f091906127ff565b604051631f29a8cd60e31b81526004810182905290915073ba12222222228d8ba445958a75a0704d566bf2c89063f94d466890602401600060405180830381865afa158015610943573d6000803e3d6000fd5b505050506040513d6000823e601f3d908101601f1916820160405261096b9190810190612890565b5090949350505050565b6000610981600161178f565b90508015610999576000805461ff0019166101001790555b6109a16118aa565b60ca80546001600160a01b0380861673ffffffffffffffffffffffffffffffffffffffff199283161790925560c98054928516929091169190911790558015610a24576000805461ff0019169055604051600181527f7f26b83ff96e1f2b6a682f133852f6798a09c465da95921460cefb38474024989060200160405180910390a15b505050565b306001600160a01b037f0000000000000000000000000000000000000000000000000000000000000000161415610ab75760405162461bcd60e51b815260206004820152602c60248201527f46756e6374696f6e206d7573742062652063616c6c6564207468726f7567682060448201526b19195b1959d85d1958d85b1b60a21b6064820152608401610386565b7f00000000000000000000000000000000000000000000000000000000000000006001600160a01b0316610b127f360894a13ba1a3210667c828492db98dca3e2076cc3735a920a3ca505d382bbc546001600160a01b031690565b6001600160a01b031614610b7d5760405162461bcd60e51b815260206004820152602c60248201527f46756e6374696f6e206d7573742062652063616c6c6564207468726f7567682060448201526b6163746976652070726f787960a01b6064820152608401610386565b610b868261139e565b610b92828260016114de565b5050565b60c95460405163f9d9331d60e01b81526001600160a01b038381166004830152600092839291169063f9d9331d90602401602060405180830381865afa158015610be4573d6000803e3d6000fd5b505050506040513d601f19601f82011682018060405250810190610c0891906126f9565b90506001600160a01b03811615610c8b57604051630103c92b60e01b81526001600160a01b038581166004830152821690630103c92b90602401602060405180830381865afa158015610c5f573d6000803e3d6000fd5b505050506040513d601f19601f82011682018060405250810190610c8391906127ff565b915050610c91565b60009150505b92915050565b6000306001600160a01b037f00000000000000000000000000000000000000000000000000000000000000001614610d375760405162461bcd60e51b815260206004820152603860248201527f555550535570677261646561626c653a206d757374206e6f742062652063616c60448201527f6c6564207468726f7567682064656c656761746563616c6c00000000000000006064820152608401610386565b507f360894a13ba1a3210667c828492db98dca3e2076cc3735a920a3ca505d382bbc90565b60ca54604051632474521560e21b81527f65d7a28e3265b37a6474929f336521b332c1681b933f6cb9f3376673440d862a60048201523360248201526001600160a01b03909116906391d1485490604401602060405180830381865afa158015610dca573d6000803e3d6000fd5b505050506040513d601f19601f82011682018060405250810190610dee9190612818565b610e3a5760405162461bcd60e51b815260206004820152601160248201527f43414c4c45525f4e4f545f5041555345520000000000000000000000000000006044820152606401610386565b61088861191d565b60335460ff1615610e885760405162461bcd60e51b815260206004820152601060248201526f14185d5cd8589b194e881c185d5cd95960821b6044820152606401610386565b60c95460405163f9d9331d60e01b81526001600160a01b038881166004830152600092169063f9d9331d90602401602060405180830381865afa158015610ed3573d6000803e3d6000fd5b505050506040513d601f19601f82011682018060405250810190610ef791906126f9565b90506001600160a01b038116610f415760405162461bcd60e51b815260206004820152600f60248201526e4641524d5f4e4f545f45584953545360881b6044820152606401610386565b604051631f9e746960e11b81526001600160a01b03821690633f3ce8d290610f7790899089908990899033908a9060040161295e565b600060405180830381600087803b158015610f9157600080fd5b505af1158015610fa5573d6000803e3d6000fd5b50505050816001600160a01b0316336001600160a01b0316886001600160a01b03167f3115d1449a7b732c986cba18244e897a450f61e1bb8d589cd2e69e6c8924f9f789604051610ff891815260200190565b60405180910390a450505050505050565b60335460ff161561104f5760405162461bcd60e51b815260206004820152601060248201526f14185d5cd8589b194e881c185d5cd95960821b6044820152606401610386565b60ca54604051632474521560e21b81527ffbd454f36a7e1a388bd6fc3ab10d434aa4578f811acbbcf33afb1c697486313c60048201523360248201526001600160a01b03909116906391d1485490604401602060405180830381865afa1580156110bd573d6000803e3d6000fd5b505050506040513d601f19601f820116820180604052508101906110e19190612818565b61112d5760405162461bcd60e51b815260206004820152601660248201527f43414c4c45525f4e4f545f4449535452494255544f52000000000000000000006044820152606401610386565b60c95460405163f9d9331d60e01b81526001600160a01b038681166004830152600092169063f9d9331d90602401602060405180830381865afa158015611178573d6000803e3d6000fd5b505050506040513d601f19601f8201168201806040525081019061119c91906126f9565b90506001600160a01b0381166111e65760405162461bcd60e51b815260206004820152600f60248201526e4641524d5f4e4f545f45584953545360881b6044820152606401610386565b60405163bedfe76f60e01b81526000906001600160a01b0383169063bedfe76f9061121990889088908890600401612b26565b6020604051808303816000875af1158015611238573d6000803e3d6000fd5b505050506040513d601f19601f8201168201806040525081019061125c91906127ff565b9050856001600160a01b03167fc1d32ad5cca423e7dda2123dbf8c482f8e77d00b631c06e903a47f2cec1334df8260405161129991815260200190565b60405180910390a2505050505050565b60c95460405163f9d9331d60e01b81526001600160a01b038381166004830152600092839291169063f9d9331d90602401602060405180830381865afa1580156112f7573d6000803e3d6000fd5b505050506040513d601f19601f8201168201806040525081019061131b91906126f9565b90506001600160a01b0381161561139557806001600160a01b031663168a48226040518163ffffffff1660e01b8152600401602060405180830381865afa15801561136a573d6000803e3d6000fd5b505050506040513d601f19601f8201168201806040525081019061138e91906127ff565b9392505050565b50600092915050565b60ca5460408051631d6c8e3f60e21b815290516001600160a01b03909216916391d148549183916375b238fc916004808201926020929091908290030181865afa1580156113f0573d6000803e3d6000fd5b505050506040513d601f19601f8201168201806040525081019061141491906127ff565b6040517fffffffff0000000000000000000000000000000000000000000000000000000060e084901b1681526004810191909152336024820152604401602060405180830381865afa15801561146e573d6000803e3d6000fd5b505050506040513d601f19601f820116820180604052508101906114929190612818565b61047a5760405162461bcd60e51b815260206004820152601060248201527f43414c4c45525f4e4f545f41444d494e000000000000000000000000000000006044820152606401610386565b7f4910fdfa16fed3260ed0e7147f7cc6da11a60208b5b9406d12a635614ffd91435460ff161561151157610a2483611998565b826001600160a01b03166352d1902d6040518163ffffffff1660e01b8152600401602060405180830381865afa92505050801561156b575060408051601f3d908101601f19168201909252611568918101906127ff565b60015b6115dd5760405162461bcd60e51b815260206004820152602e60248201527f45524331393637557067726164653a206e657720696d706c656d656e7461746960448201527f6f6e206973206e6f7420555550530000000000000000000000000000000000006064820152608401610386565b7f360894a13ba1a3210667c828492db98dca3e2076cc3735a920a3ca505d382bbc81146116725760405162461bcd60e51b815260206004820152602960248201527f45524331393637557067726164653a20756e737570706f727465642070726f7860448201527f6961626c655555494400000000000000000000000000000000000000000000006064820152608401610386565b50610a24838383611a63565b604080516001600160a01b0385811660248301528416604482015260648082018490528251808303909101815260849091019091526020810180517bffffffffffffffffffffffffffffffffffffffffffffffffffffffff166323b872dd60e01b1790526116ed908590611a88565b50505050565b60335460ff166117455760405162461bcd60e51b815260206004820152601460248201527f5061757361626c653a206e6f74207061757365640000000000000000000000006044820152606401610386565b6033805460ff191690557f5db9ee0a495bf2e6ff9c91a7834c1ba4fdd244a5e8aa4e537bd38aeae4b073aa335b6040516001600160a01b03909116815260200160405180910390a1565b60008054610100900460ff161561181d578160ff1660011480156117b25750303b155b6118155760405162461bcd60e51b815260206004820152602e60248201527f496e697469616c697a61626c653a20636f6e747261637420697320616c72656160448201526d191e481a5b9a5d1a585b1a5e995960921b6064820152608401610386565b506000919050565b60005460ff80841691161061188b5760405162461bcd60e51b815260206004820152602e60248201527f496e697469616c697a61626c653a20636f6e747261637420697320616c72656160448201526d191e481a5b9a5d1a585b1a5e995960921b6064820152608401610386565b506000805460ff191660ff92909216919091179055600190565b919050565b600054610100900460ff166119155760405162461bcd60e51b815260206004820152602b60248201527f496e697469616c697a61626c653a20636f6e7472616374206973206e6f74206960448201526a6e697469616c697a696e6760a81b6064820152608401610386565b610888611b6d565b60335460ff16156119635760405162461bcd60e51b815260206004820152601060248201526f14185d5cd8589b194e881c185d5cd95960821b6044820152606401610386565b6033805460ff191660011790557f62e78cea01bee320cd4e420270b5ea74000d11b0c9f74754ebdbfc544b05a2586117723390565b6001600160a01b0381163b611a155760405162461bcd60e51b815260206004820152602d60248201527f455243313936373a206e657720696d706c656d656e746174696f6e206973206e60448201527f6f74206120636f6e7472616374000000000000000000000000000000000000006064820152608401610386565b7f360894a13ba1a3210667c828492db98dca3e2076cc3735a920a3ca505d382bbc805473ffffffffffffffffffffffffffffffffffffffff19166001600160a01b0392909216919091179055565b611a6c83611be4565b600082511180611a795750805b15610a24576116ed8383611c24565b6000611add826040518060400160405280602081526020017f5361666545524332303a206c6f772d6c6576656c2063616c6c206661696c6564815250856001600160a01b0316611d2f9092919063ffffffff16565b805190915015610a245780806020019051810190611afb9190612818565b610a245760405162461bcd60e51b815260206004820152602a60248201527f5361666545524332303a204552433230206f7065726174696f6e20646964206e60448201527f6f742073756363656564000000000000000000000000000000000000000000006064820152608401610386565b600054610100900460ff16611bd85760405162461bcd60e51b815260206004820152602b60248201527f496e697469616c697a61626c653a20636f6e7472616374206973206e6f74206960448201526a6e697469616c697a696e6760a81b6064820152608401610386565b6033805460ff19169055565b611bed81611998565b6040516001600160a01b038216907fbc7cd75a20ee27fd9adebab32041f755214dbc6bffa90cc0225b39da2e5c2d3b90600090a250565b60606001600160a01b0383163b611ca35760405162461bcd60e51b815260206004820152602660248201527f416464726573733a2064656c65676174652063616c6c20746f206e6f6e2d636f60448201527f6e747261637400000000000000000000000000000000000000000000000000006064820152608401610386565b600080846001600160a01b031684604051611cbe9190612c18565b600060405180830381855af49150503d8060008114611cf9576040519150601f19603f3d011682016040523d82523d6000602084013e611cfe565b606091505b5091509150611d268282604051806060016040528060278152602001612c4860279139611d46565b95945050505050565b6060611d3e8484600085611d7f565b949350505050565b60608315611d5557508161138e565b825115611d655782518084602001fd5b8160405162461bcd60e51b81526004016103869190612c34565b606082471015611df75760405162461bcd60e51b815260206004820152602660248201527f416464726573733a20696e73756666696369656e742062616c616e636520666f60448201527f722063616c6c00000000000000000000000000000000000000000000000000006064820152608401610386565b6001600160a01b0385163b611e4e5760405162461bcd60e51b815260206004820152601d60248201527f416464726573733a2063616c6c20746f206e6f6e2d636f6e74726163740000006044820152606401610386565b600080866001600160a01b03168587604051611e6a9190612c18565b60006040518083038185875af1925050503d8060008114611ea7576040519150601f19603f3d011682016040523d82523d6000602084013e611eac565b606091505b5091509150611ebc828286611d46565b979650505050505050565b6001600160a01b038116811461047a57600080fd5b80356118a581611ec7565b600060208284031215611ef957600080fd5b813561138e81611ec7565b634e487b7160e01b600052604160045260246000fd5b60405160a0810167ffffffffffffffff81118282101715611f3d57611f3d611f04565b60405290565b604051601f8201601f1916810167ffffffffffffffff81118282101715611f6c57611f6c611f04565b604052919050565b600067ffffffffffffffff821115611f8e57611f8e611f04565b5060051b60200190565b600082601f830112611fa957600080fd5b81356020611fbe611fb983611f74565b611f43565b82815260059290921b84018101918181019086841115611fdd57600080fd5b8286015b84811015612001578035611ff481611ec7565b8352918301918301611fe1565b509695505050505050565b60008060008060008060c0878903121561202557600080fd5b863561203081611ec7565b955060208781013567ffffffffffffffff8082111561204e57600080fd5b818a0191508a601f83011261206257600080fd5b8135612070611fb982611f74565b81815260059190911b8301840190848101908d83111561208f57600080fd5b938501935b828510156120ad57843582529385019390850190612094565b9950505060408a01359250808311156120c557600080fd5b50506120d389828a01611f98565b94505060608701359250608087013591506120f060a08801611edc565b90509295509295509295565b6020808252825182820181905260009190848201906040850190845b8181101561213d5783516001600160a01b031683529284019291840191600101612118565b50909695505050505050565b6000806040838503121561215c57600080fd5b823561216781611ec7565b9150602083013561217781611ec7565b809150509250929050565b600082601f83011261219357600080fd5b813567ffffffffffffffff8111156121ad576121ad611f04565b6121c0601f8201601f1916602001611f43565b8181528460208386010111156121d557600080fd5b816020850160208301376000918101602001919091529392505050565b6000806040838503121561220557600080fd5b823561221081611ec7565b9150602083013567ffffffffffffffff81111561222c57600080fd5b61223885828601612182565b9150509250929050565b801515811461047a57600080fd5b80356118a581612242565b60008060008060008060a0878903121561227457600080fd5b863561227f81611ec7565b955060208701359450604087013567ffffffffffffffff808211156122a357600080fd5b818901915089601f8301126122b757600080fd5b8135818111156122c657600080fd5b8a60208260051b85010111156122db57600080fd5b6020830196508095505050506122f360608801612250565b91506120f060808801611edc565b600082601f83011261231257600080fd5b81356020612322611fb983611f74565b828152600592831b850182019282820191908785111561234157600080fd5b8387015b858110156123e157803567ffffffffffffffff8111156123655760008081fd5b8801603f81018a136123775760008081fd5b858101356040612389611fb983611f74565b82815291851b8301810191888101908d8411156123a65760008081fd5b938201935b838510156123d057843592506123c083611ec7565b82825293890193908901906123ab565b885250505093850193508401612345565b5090979650505050505050565b600082601f8301126123ff57600080fd5b8135602061240f611fb983611f74565b828152600592831b850182019282820191908785111561242e57600080fd5b8387015b858110156123e157803567ffffffffffffffff8111156124525760008081fd5b8801603f81018a136124645760008081fd5b858101356040612476611fb983611f74565b82815291851b8301810191888101908d8411156124935760008081fd5b938201935b838510156124b157843582529389019390890190612498565b885250505093850193508401612432565b600080600080608085870312156124d857600080fd5b6124e28535611ec7565b8435935067ffffffffffffffff602086013511156124ff57600080fd5b6020850135850186601f82011261251557600080fd5b612522611fb98235611f74565b81358082526020808301929160051b84010189101561254057600080fd5b602083015b6020843560051b8501018110156126955767ffffffffffffffff8135111561256c57600080fd5b89603f82358601011261257e57600080fd5b612591611fb96020833587010135611f74565b81358501602081810135808452908301929160059190911b016040018c10156125b957600080fd5b604083358701015b83358701602081013560051b016040018110156126855767ffffffffffffffff813511156125ee57600080fd5b60a0843588018235018e03603f1901121561260857600080fd5b612610611f1a565b843588018235016040818101358352606080830135602085015260808301359184019190915260a08201359083015267ffffffffffffffff60c090910135111561265957600080fd5b6126728e86358a0184350160c081013501604001612182565b60808201528352602092830192016125c1565b5084525060209283019201612545565b509450505067ffffffffffffffff604086013511156126b357600080fd5b6126c38660408701358701612301565b915067ffffffffffffffff606086013511156126de57600080fd5b6126ee86606087013587016123ee565b905092959194509250565b60006020828403121561270b57600080fd5b815161138e81611ec7565b634e487b7160e01b600052603260045260246000fd5b600060001982141561274e57634e487b7160e01b600052601160045260246000fd5b5060010190565b60a0808252865190820181905260009060209060c0840190828a01845b8281101561278e57815184529284019290840190600101612772565b5050508381038285015287518082528883019183019060005b818110156127cc5783516001600160a01b0316835292840192918401916001016127a7565b50508093505050508460408301528360608301526127f560808301846001600160a01b03169052565b9695505050505050565b60006020828403121561281157600080fd5b5051919050565b60006020828403121561282a57600080fd5b815161138e81612242565b600082601f83011261284657600080fd5b81516020612856611fb983611f74565b82815260059290921b8401810191818101908684111561287557600080fd5b8286015b848110156120015780518352918301918301612879565b6000806000606084860312156128a557600080fd5b835167ffffffffffffffff808211156128bd57600080fd5b818601915086601f8301126128d157600080fd5b815160206128e1611fb983611f74565b82815260059290921b8401810191818101908a84111561290057600080fd5b948201945b8386101561292757855161291881611ec7565b82529482019490820190612905565b9189015191975090935050508082111561294057600080fd5b5061294d86828701612835565b925050604084015190509250925092565b86815260a060208201528460a082015260007f07ffffffffffffffffffffffffffffffffffffffffffffffffffffffffffffff86111561299d57600080fd5b8560051b808860c0850137600090830160c0019081529415156040830152506001600160a01b03928316606082015291166080909101529392505050565b60005b838110156129f65781810151838201526020016129de565b838111156116ed5750506000910152565b60008151808452612a1f8160208601602086016129db565b601f01601f19169290920160200192915050565b600081518084526020808501808196508360051b810191508286016000805b86811015612aaa578385038a52825180518087529087019087870190845b81811015612a955783516001600160a01b031683529289019291890191600101612a70565b50509a87019a95505091850191600101612a52565b509298975050505050505050565b600081518084526020808501808196508360051b810191508286016000805b86811015612aaa578385038a52825180518087529087019087870190845b81811015612b1157835183529289019291890191600101612af5565b50509a87019a95505091850191600101612ad7565b60006060808301818452808751808352608092508286019150828160051b8701016020808b0160005b84811015612bed57898403607f19018652815180518086529084019084860190600581901b8701860160005b82811015612bd757888203601f190184528451805183528881015189840152604080820151908401528d8101518e8401528c015160a08d8401819052612bc381850183612a07565b968a0196958a019593505050600101612b7b565b5098860198965050509183019150600101612b4f565b505087820390880152612c00818a612a33565b94505050505082810360408401526127f58185612ab8565b60008251612c2a8184602087016129db565b9190910192915050565b60208152600061138e6020830184612a0756fe416464726573733a206c6f772d6c6576656c2064656c65676174652063616c6c206661696c6564a26469706673582212205eeb72cbf95351676c7a868631110d2ee770f4ab4c51c5c330eb06572ec66eaa64736f6c634300080a0033",
  "immutableReferences": {
    "561": [
      {
        "length": 32,
        "start": 775
      },
      {
        "length": 32,
        "start": 913
      },
      {
        "length": 32,
        "start": 2612
      },
      {
        "length": 32,
        "start": 2745
      },
      {
        "length": 32,
        "start": 3236
      }
    ]
  },
  "source": "// SPDX-License-Identifier: MIT\r\npragma solidity 0.8.10;\r\n\r\nimport {IUnoFarmBalancer as Farm} from '../apps/balancer/interfaces/IUnoFarmBalancer.sol'; \r\nimport '../interfaces/IUnoFarmFactory.sol';\r\nimport '../interfaces/IUnoAccessManager.sol'; \r\nimport '../interfaces/IVault.sol'; \r\nimport \"../interfaces/IBasePool.sol\";\r\nimport '@openzeppelin/contracts-upgradeable/token/ERC20/IERC20Upgradeable.sol';\r\nimport '@openzeppelin/contracts-upgradeable/token/ERC20/utils/SafeERC20Upgradeable.sol';\r\nimport '@openzeppelin/contracts-upgradeable/proxy/utils/Initializable.sol';\r\nimport '@openzeppelin/contracts-upgradeable/security/PausableUpgradeable.sol';\r\nimport '@openzeppelin/contracts-upgradeable/proxy/utils/UUPSUpgradeable.sol';\r\n\r\ncontract UnoAssetRouterBalancerV2 is Initializable, PausableUpgradeable, UUPSUpgradeable {\r\n    using SafeERC20Upgradeable for IERC20Upgradeable;\r\n\r\n    /**\r\n     * @dev Contract Variables:\r\n     * farmFactory - The contract that deploys new Farms and links them to {lpPool}s.\r\n     * accessManager - Role manager contract.\r\n     */\r\n    IUnoFarmFactory public farmFactory;\r\n    IUnoAccessManager public accessManager;\r\n    bytes32 private constant DISTRIBUTOR_ROLE = keccak256('DISTRIBUTOR_ROLE');\r\n    bytes32 private constant PAUSER_ROLE = keccak256('PAUSER_ROLE');\r\n    IVault constant private Vault = IVault(0xBA12222222228d8Ba445958a75a0704d566BF2C8);\r\n\r\n    uint256 public constant version = 2;\r\n\r\n    event Deposit(address indexed lpPool, address indexed sender, address indexed recipient, uint256 amount);\r\n    event Withdraw(address indexed lpPool, address indexed sender, address indexed recipient, uint256 amount);\r\n    event Distribute(address indexed lpPool, uint256 reward);\r\n\r\n    modifier onlyDistributor(){\r\n        require(accessManager.hasRole(DISTRIBUTOR_ROLE, msg.sender), 'CALLER_NOT_DISTRIBUTOR');\r\n        _;\r\n    }\r\n    modifier onlyPauser(){\r\n        require(accessManager.hasRole(PAUSER_ROLE, msg.sender), 'CALLER_NOT_PAUSER');\r\n        _;\r\n    }\r\n    modifier onlyAdmin(){\r\n        require(accessManager.hasRole(accessManager.ADMIN_ROLE(), msg.sender), 'CALLER_NOT_ADMIN');\r\n        _;\r\n    }\r\n\r\n    // ============ Methods ============\r\n\r\n    function initialize(address _accessManager, address _farmFactory) external initializer{\r\n        __Pausable_init();\r\n        accessManager = IUnoAccessManager(_accessManager);\r\n        farmFactory = IUnoFarmFactory(_farmFactory);\r\n    }\r\n\r\n    /**\r\n     * @dev Deposits tokens in the given pool. Creates new Farm contract if there isn't one deployed for the {lpPool} and deposits tokens in it.\r\n     * @param lpPool - Address of the pool to deposit tokens in.\r\n     * @param amounts - Amounts of tokens to deposit.\r\n     * @param tokens - Tokens to deposit.\r\n     * @param minAmountLP - Minimum LP the user will receive from {{tokens}} deposit.\r\n     * @param amountLP - Additional amount of LP tokens to deposit.\r\n     * @param recipient - Address which will recieve the deposit.\r\n\r\n     * @return liquidity - Total liquidity sent to the farm (in lpTokens).\r\n     */\r\n    function deposit(address lpPool, uint256[] memory amounts, address[] memory tokens, uint256 minAmountLP, uint256 amountLP, address recipient) external whenNotPaused returns(uint256 liquidity){\r\n        require (amounts.length == tokens.length, 'AMOUNTS_AND_TOKENS_LENGTHS_NOT_MATCH');\r\n\r\n        Farm farm = Farm(farmFactory.Farms(lpPool));\r\n        if(farm == Farm(address(0))){\r\n            farm = Farm(farmFactory.createFarm(lpPool));\r\n        }\r\n\r\n        for (uint256 i = 0; i < tokens.length; i++) {\r\n            if(amounts[i] > 0){\r\n                IERC20Upgradeable(tokens[i]).safeTransferFrom(msg.sender, address(farm), amounts[i]);\r\n            }\r\n        }\r\n        if(amountLP > 0){\r\n            IERC20Upgradeable(lpPool).safeTransferFrom(msg.sender, address(farm), amountLP);\r\n        }\r\n        \r\n        liquidity = farm.deposit(amounts, tokens, minAmountLP, amountLP, recipient);\r\n        emit Deposit(lpPool, msg.sender, recipient, liquidity); \r\n    }\r\n\r\n    /** \r\n     * @dev Withdraws tokens from the given pool. \r\n     * @param lpPool - LP pool to withdraw from.\r\n     * @param amount - LP amount to withdraw. \r\n     * @param minAmountsOut - Minimum token amounts the user will recieve.\r\n     * @param withdrawLP - True: Withdraw in LP tokens, False: Withdraw in normal tokens.\r\n     * @param recipient - The address which will recieve tokens.\r\n     */ \r\n    function withdraw(address lpPool, uint256 amount, uint256[] calldata minAmountsOut, bool withdrawLP, address recipient) external whenNotPaused { \r\n        Farm farm = Farm(farmFactory.Farms(lpPool));\r\n        require(farm != Farm(address(0)),'FARM_NOT_EXISTS');\r\n        \r\n        farm.withdraw(amount, minAmountsOut, withdrawLP, msg.sender, recipient); \r\n        emit Withdraw(lpPool, msg.sender, recipient, amount);  \r\n    }\r\n\r\n    /**\r\n     * @dev Distributes tokens between users for a single {Farms[lpPool]}.\r\n     * @param lpPool - The pool to distribute. \r\n     * @param swaps - The data used to swap reward tokens for the needed tokens.\r\n     * @param assets - The data used to swap reward tokens for the needed tokens.\r\n     * @param limits - The data used to swap reward tokens for the needed tokens.\r\n     *\r\n     * Note: This function can only be called by the distributor.\r\n     */\r\n    function distribute(\r\n        address lpPool,\r\n        IVault.BatchSwapStep[][] memory swaps,\r\n        IAsset[][] memory assets,\r\n        int256[][] memory limits\r\n    ) external whenNotPaused onlyDistributor {\r\n        Farm farm = Farm(farmFactory.Farms(lpPool));\r\n        require(farm != Farm(address(0)), 'FARM_NOT_EXISTS');\r\n\r\n        uint256 reward = farm.distribute(swaps, assets, limits);\r\n        emit Distribute(lpPool, reward);\r\n    }\r\n\r\n    /**\r\n     * @dev Returns LP tokens staked by the {_address} for the given {lpPool}.\r\n     * @param _address - The address to check stakes for.\r\n     * @param lpPool - LP pool to check stakes in.\r\n\r\n     * @return Total user stake(in LP tokens).\r\n     */\r\n   function userStake(address _address, address lpPool) external view returns(uint256){\r\n        Farm farm = Farm(farmFactory.Farms(lpPool));\r\n        if (farm != Farm(address(0))) {\r\n            return farm.userBalance(_address);\r\n        }\r\n        return 0;\r\n    }\r\n\r\n    /**\r\n     * @dev Returns total amount locked in the pool. Doesn't take pending rewards into account.\r\n     * @param lpPool - LP pool to check total deposits in.\r\n\r\n     * @return Total deposits (in LP tokens).\r\n     */\r\n    function totalDeposits(address lpPool) external view returns (uint256) {\r\n        Farm farm = Farm(farmFactory.Farms(lpPool));\r\n        if (farm != Farm(address(0))) {\r\n            return farm.getTotalDeposits();\r\n        }\r\n        return 0;\r\n    }\r\n\r\n    /**\r\n     * @dev Returns addresses of tokens in {lpPool}.\r\n     * @param lpPool - LP pool to check tokens in.\r\n\r\n     * @return tokens - Token address.\r\n     */  \r\n    function getTokens(address lpPool) external view returns(IERC20[] memory tokens){\r\n        bytes32 poolId = IBasePool(lpPool).getPoolId();\r\n        (tokens, , ) = Vault.getPoolTokens(poolId);\r\n    }\r\n \r\n    function pause() external onlyPauser {\r\n        _pause();\r\n    }\r\n \r\n    function unpause() external onlyPauser {\r\n        _unpause();\r\n    }\r\n\r\n    function _authorizeUpgrade(address) internal override onlyAdmin {\r\n\r\n    }\r\n}\r\n",
  "sourcePath": "C:\\Users\\nick_\\OneDrive\\\\UNO\\Solidity\\autostrats_balancer\\uno-contracts\\contracts\\test\\UnoAssetRouterBalancerV2.sol",
  "compiler": {
    "name": "solc",
    "version": "0.8.10+commit.fc410830.Emscripten.clang"
  },
  "schemaVersion": "3.4.7",
  "updatedAt": "2022-08-26T13:11:25.515Z",
  "devdoc": {
    "kind": "dev",
    "methods": {
      "deposit(address,uint256[],address[],uint256,uint256,address)": {
        "details": "Deposits tokens in the given pool. Creates new Farm contract if there isn't one deployed for the {lpPool} and deposits tokens in it.",
        "params": {
          "amountLP": "- Additional amount of LP tokens to deposit.",
          "amounts": "- Amounts of tokens to deposit.",
          "lpPool": "- Address of the pool to deposit tokens in.",
          "minAmountLP": "- Minimum LP the user will receive from {{tokens}} deposit.",
          "recipient": "- Address which will recieve the deposit.",
          "tokens": "- Tokens to deposit."
        },
        "returns": {
          "liquidity": "- Total liquidity sent to the farm (in lpTokens)."
        }
      },
      "distribute(address,(bytes32,uint256,uint256,uint256,bytes)[][],address[][],int256[][])": {
        "details": "Distributes tokens between users for a single {Farms[lpPool]}.",
        "params": {
          "assets": "- The data used to swap reward tokens for the needed tokens.",
          "limits": "- The data used to swap reward tokens for the needed tokens. Note: This function can only be called by the distributor.",
          "lpPool": "- The pool to distribute. ",
          "swaps": "- The data used to swap reward tokens for the needed tokens."
        }
      },
      "getTokens(address)": {
        "details": "Returns addresses of tokens in {lpPool}.",
        "params": {
          "lpPool": "- LP pool to check tokens in."
        },
        "returns": {
          "tokens": "- Token address."
        }
      },
      "paused()": {
        "details": "Returns true if the contract is paused, and false otherwise."
      },
      "proxiableUUID()": {
        "details": "Implementation of the ERC1822 {proxiableUUID} function. This returns the storage slot used by the implementation. It is used to validate that the this implementation remains valid after an upgrade. IMPORTANT: A proxy pointing at a proxiable contract should not be considered proxiable itself, because this risks bricking a proxy that upgrades to it, by delegating to itself until out of gas. Thus it is critical that this function revert if invoked through a proxy. This is guaranteed by the `notDelegated` modifier."
      },
      "totalDeposits(address)": {
        "details": "Returns total amount locked in the pool. Doesn't take pending rewards into account.",
        "params": {
          "lpPool": "- LP pool to check total deposits in."
        },
        "returns": {
          "_0": "Total deposits (in LP tokens)."
        }
      },
      "upgradeTo(address)": {
        "details": "Upgrade the implementation of the proxy to `newImplementation`. Calls {_authorizeUpgrade}. Emits an {Upgraded} event."
      },
      "upgradeToAndCall(address,bytes)": {
        "details": "Upgrade the implementation of the proxy to `newImplementation`, and subsequently execute the function call encoded in `data`. Calls {_authorizeUpgrade}. Emits an {Upgraded} event."
      },
      "userStake(address,address)": {
        "details": "Returns LP tokens staked by the {_address} for the given {lpPool}.",
        "params": {
          "_address": "- The address to check stakes for.",
          "lpPool": "- LP pool to check stakes in."
        },
        "returns": {
          "_0": "Total user stake(in LP tokens)."
        }
      },
      "withdraw(address,uint256,uint256[],bool,address)": {
        "details": "Withdraws tokens from the given pool. ",
        "params": {
          "amount": "- LP amount to withdraw. ",
          "lpPool": "- LP pool to withdraw from.",
          "minAmountsOut": "- Minimum token amounts the user will recieve.",
          "recipient": "- The address which will recieve tokens.",
          "withdrawLP": "- True: Withdraw in LP tokens, False: Withdraw in normal tokens."
        }
      }
    },
    "stateVariables": {
      "farmFactory": {
        "details": "Contract Variables: farmFactory - The contract that deploys new Farms and links them to {lpPool}s. accessManager - Role manager contract."
      }
    },
    "version": 1
  },
  "userdoc": {
    "kind": "user",
    "methods": {},
    "version": 1
  }
}