{
    "contractName": "UnoAssetRouterQuickswapDualV2",
    "abi": [
        {
            "inputs": [],
            "stateMutability": "nonpayable",
            "type": "constructor"
        },
        {
            "anonymous": false,
            "inputs": [
                {
                    "indexed": false,
                    "internalType": "address",
                    "name": "previousAdmin",
                    "type": "address"
                },
                {
                    "indexed": false,
                    "internalType": "address",
                    "name": "newAdmin",
                    "type": "address"
                }
            ],
            "name": "AdminChanged",
            "type": "event"
        },
        {
            "anonymous": false,
            "inputs": [
                {
                    "indexed": true,
                    "internalType": "address",
                    "name": "beacon",
                    "type": "address"
                }
            ],
            "name": "BeaconUpgraded",
            "type": "event"
        },
        {
            "anonymous": false,
            "inputs": [
                {
                    "indexed": true,
                    "internalType": "address",
                    "name": "lpPool",
                    "type": "address"
                },
                {
                    "indexed": true,
                    "internalType": "address",
                    "name": "sender",
                    "type": "address"
                },
                {
                    "indexed": true,
                    "internalType": "address",
                    "name": "recipient",
                    "type": "address"
                },
                {
                    "indexed": false,
                    "internalType": "uint256",
                    "name": "amount",
                    "type": "uint256"
                }
            ],
            "name": "Deposit",
            "type": "event"
        },
        {
            "anonymous": false,
            "inputs": [
                {
                    "indexed": true,
                    "internalType": "address",
                    "name": "lpPool",
                    "type": "address"
                },
                {
                    "indexed": false,
                    "internalType": "uint256",
                    "name": "reward",
                    "type": "uint256"
                }
            ],
            "name": "Distribute",
            "type": "event"
        },
        {
            "anonymous": false,
            "inputs": [
                {
                    "indexed": false,
                    "internalType": "uint256",
                    "name": "previousFee",
                    "type": "uint256"
                },
                {
                    "indexed": false,
                    "internalType": "uint256",
                    "name": "newFee",
                    "type": "uint256"
                }
            ],
            "name": "FeeChanged",
            "type": "event"
        },
        {
            "anonymous": false,
            "inputs": [
                {
                    "indexed": false,
                    "internalType": "uint8",
                    "name": "version",
                    "type": "uint8"
                }
            ],
            "name": "Initialized",
            "type": "event"
        },
        {
            "anonymous": false,
            "inputs": [
                {
                    "indexed": false,
                    "internalType": "address",
                    "name": "account",
                    "type": "address"
                }
            ],
            "name": "Paused",
            "type": "event"
        },
        {
            "anonymous": false,
            "inputs": [
                {
                    "indexed": false,
                    "internalType": "address",
                    "name": "account",
                    "type": "address"
                }
            ],
            "name": "Unpaused",
            "type": "event"
        },
        {
            "anonymous": false,
            "inputs": [
                {
                    "indexed": true,
                    "internalType": "address",
                    "name": "implementation",
                    "type": "address"
                }
            ],
            "name": "Upgraded",
            "type": "event"
        },
        {
            "anonymous": false,
            "inputs": [
                {
                    "indexed": true,
                    "internalType": "address",
                    "name": "lpPool",
                    "type": "address"
                },
                {
                    "indexed": true,
                    "internalType": "address",
                    "name": "sender",
                    "type": "address"
                },
                {
                    "indexed": true,
                    "internalType": "address",
                    "name": "recipient",
                    "type": "address"
                },
                {
                    "indexed": false,
                    "internalType": "uint256",
                    "name": "amount",
                    "type": "uint256"
                }
            ],
            "name": "Withdraw",
            "type": "event"
        },
        {
            "inputs": [],
            "name": "accessManager",
            "outputs": [
                {
                    "internalType": "contract IUnoAccessManager",
                    "name": "",
                    "type": "address"
                }
            ],
            "stateMutability": "view",
            "type": "function"
        },
        {
            "inputs": [],
            "name": "farmFactory",
            "outputs": [
                {
                    "internalType": "contract IUnoFarmFactory",
                    "name": "",
                    "type": "address"
                }
            ],
            "stateMutability": "view",
            "type": "function"
        },
        {
            "inputs": [],
            "name": "fee",
            "outputs": [
                {
                    "internalType": "uint256",
                    "name": "",
                    "type": "uint256"
                }
            ],
            "stateMutability": "view",
            "type": "function"
        },
        {
            "inputs": [],
            "name": "paused",
            "outputs": [
                {
                    "internalType": "bool",
                    "name": "",
                    "type": "bool"
                }
            ],
            "stateMutability": "view",
            "type": "function"
        },
        {
            "inputs": [],
            "name": "proxiableUUID",
            "outputs": [
                {
                    "internalType": "bytes32",
                    "name": "",
                    "type": "bytes32"
                }
            ],
            "stateMutability": "view",
            "type": "function"
        },
        {
            "inputs": [
                {
                    "internalType": "address",
                    "name": "newImplementation",
                    "type": "address"
                }
            ],
            "name": "upgradeTo",
            "outputs": [],
            "stateMutability": "nonpayable",
            "type": "function"
        },
        {
            "inputs": [
                {
                    "internalType": "address",
                    "name": "newImplementation",
                    "type": "address"
                },
                {
                    "internalType": "bytes",
                    "name": "data",
                    "type": "bytes"
                }
            ],
            "name": "upgradeToAndCall",
            "outputs": [],
            "stateMutability": "payable",
            "type": "function"
        },
        {
            "inputs": [],
            "name": "version",
            "outputs": [
                {
                    "internalType": "uint256",
                    "name": "",
                    "type": "uint256"
                }
            ],
            "stateMutability": "view",
            "type": "function"
        },
        {
            "inputs": [
                {
                    "internalType": "address",
                    "name": "_accessManager",
                    "type": "address"
                },
                {
                    "internalType": "address",
                    "name": "_farmFactory",
                    "type": "address"
                }
            ],
            "name": "initialize",
            "outputs": [],
            "stateMutability": "nonpayable",
            "type": "function"
        },
        {
            "inputs": [
                {
                    "internalType": "address",
                    "name": "lpStakingPool",
                    "type": "address"
                },
                {
                    "internalType": "uint256",
                    "name": "amountA",
                    "type": "uint256"
                },
                {
                    "internalType": "uint256",
                    "name": "amountB",
                    "type": "uint256"
                },
                {
                    "internalType": "uint256",
                    "name": "amountAMin",
                    "type": "uint256"
                },
                {
                    "internalType": "uint256",
                    "name": "amountBMin",
                    "type": "uint256"
                },
                {
                    "internalType": "uint256",
                    "name": "amountLP",
                    "type": "uint256"
                },
                {
                    "internalType": "address",
                    "name": "recipient",
                    "type": "address"
                }
            ],
            "name": "deposit",
            "outputs": [
                {
                    "internalType": "uint256",
                    "name": "sentA",
                    "type": "uint256"
                },
                {
                    "internalType": "uint256",
                    "name": "sentB",
                    "type": "uint256"
                },
                {
                    "internalType": "uint256",
                    "name": "liquidity",
                    "type": "uint256"
                }
            ],
            "stateMutability": "nonpayable",
            "type": "function"
        },
        {
            "inputs": [
                {
                    "internalType": "address",
                    "name": "lpStakingPool",
                    "type": "address"
                },
                {
                    "internalType": "uint256",
                    "name": "amount",
                    "type": "uint256"
                },
                {
                    "internalType": "uint256",
                    "name": "amountAMin",
                    "type": "uint256"
                },
                {
                    "internalType": "uint256",
                    "name": "amountBMin",
                    "type": "uint256"
                },
                {
                    "internalType": "bool",
                    "name": "withdrawLP",
                    "type": "bool"
                },
                {
                    "internalType": "address",
                    "name": "recipient",
                    "type": "address"
                }
            ],
            "name": "withdraw",
            "outputs": [
                {
                    "internalType": "uint256",
                    "name": "amountA",
                    "type": "uint256"
                },
                {
                    "internalType": "uint256",
                    "name": "amountB",
                    "type": "uint256"
                }
            ],
            "stateMutability": "nonpayable",
            "type": "function"
        },
        {
            "inputs": [
                {
                    "internalType": "address",
                    "name": "lpStakingPool",
                    "type": "address"
                },
                {
                    "components": [
                        {
                            "internalType": "address[]",
                            "name": "route",
                            "type": "address[]"
                        },
                        {
                            "internalType": "uint256",
                            "name": "amountOutMin",
                            "type": "uint256"
                        }
                    ],
                    "internalType": "struct IUnoFarmQuickswapDual.SwapInfo[4]",
                    "name": "swapInfos",
                    "type": "tuple[4]"
                },
                {
                    "components": [
                        {
                            "internalType": "address[]",
                            "name": "route",
                            "type": "address[]"
                        },
                        {
                            "internalType": "uint256",
                            "name": "amountOutMin",
                            "type": "uint256"
                        }
                    ],
                    "internalType": "struct IUnoFarmQuickswapDual.SwapInfo[2]",
                    "name": "feeSwapInfos",
                    "type": "tuple[2]"
                },
                {
                    "internalType": "address",
                    "name": "feeTo",
                    "type": "address"
                }
            ],
            "name": "distribute",
            "outputs": [],
            "stateMutability": "nonpayable",
            "type": "function"
        },
        {
            "inputs": [
                {
                    "internalType": "address",
                    "name": "_address",
                    "type": "address"
                },
                {
                    "internalType": "address",
                    "name": "lpStakingPool",
                    "type": "address"
                }
            ],
            "name": "userStake",
            "outputs": [
                {
                    "internalType": "uint256",
                    "name": "stakeLP",
                    "type": "uint256"
                },
                {
                    "internalType": "uint256",
                    "name": "stakeA",
                    "type": "uint256"
                },
                {
                    "internalType": "uint256",
                    "name": "stakeB",
                    "type": "uint256"
                }
            ],
            "stateMutability": "view",
            "type": "function"
        },
        {
            "inputs": [
                {
                    "internalType": "address",
                    "name": "lpStakingPool",
                    "type": "address"
                }
            ],
            "name": "totalDeposits",
            "outputs": [
                {
                    "internalType": "uint256",
                    "name": "totalDepositsLP",
                    "type": "uint256"
                },
                {
                    "internalType": "uint256",
                    "name": "totalDepositsA",
                    "type": "uint256"
                },
                {
                    "internalType": "uint256",
                    "name": "totalDepositsB",
                    "type": "uint256"
                }
            ],
            "stateMutability": "view",
            "type": "function"
        },
        {
            "inputs": [
                {
                    "internalType": "address",
                    "name": "lpStakingPool",
                    "type": "address"
                }
            ],
            "name": "getTokens",
            "outputs": [
                {
                    "internalType": "address",
                    "name": "tokenA",
                    "type": "address"
                },
                {
                    "internalType": "address",
                    "name": "tokenB",
                    "type": "address"
                }
            ],
            "stateMutability": "view",
            "type": "function"
        },
        {
            "inputs": [
                {
                    "internalType": "uint256",
                    "name": "_fee",
                    "type": "uint256"
                }
            ],
            "name": "setFee",
            "outputs": [],
            "stateMutability": "nonpayable",
            "type": "function"
        },
        {
            "inputs": [],
            "name": "pause",
            "outputs": [],
            "stateMutability": "nonpayable",
            "type": "function"
        },
        {
            "inputs": [],
            "name": "unpause",
            "outputs": [],
            "stateMutability": "nonpayable",
            "type": "function"
        }
    ],
    "bytecode": "0x60a0604052306080523480156200001557600080fd5b506200002062000026565b62000156565b6200003260ff62000035565b50565b60008054610100900460ff1615620000ce578160ff1660011480156200006e57506200006c306200014760201b6200156b1760201c565b155b620000c65760405162461bcd60e51b815260206004820152602e602482015260008051602062002a8b83398151915260448201526d191e481a5b9a5d1a585b1a5e995960921b60648201526084015b60405180910390fd5b506000919050565b60005460ff8084169116106200012d5760405162461bcd60e51b815260206004820152602e602482015260008051602062002a8b83398151915260448201526d191e481a5b9a5d1a585b1a5e995960921b6064820152608401620000bd565b506000805460ff191660ff92909216919091179055600190565b6001600160a01b03163b151590565b6080516128fd6200018e600039600081816107a4015281816107e401528181610bad01528181610bed0152610df101526128fd6000f3fe6080604052600436106101095760003560e01c806354fd4d50116100955780638456cb59116100645780638456cb5914610300578063ddca3f4314610315578063e94032561461032b578063f441f73c1461034b578063fdcb60681461036b57600080fd5b806354fd4d50146102705780635c975abb1461028557806369fe0e2d146102a85780636d25e175146102c857600080fd5b8063450efe21116100dc578063450efe211461019f578063485cc955146101df5780634f1ef286146101ff57806351bdca3e1461021257806352d1902d1461024d57600080fd5b80631ad881801461010e5780631ec5aa3e146101305780633659cfe61461016a5780633f4ba83a1461018a575b600080fd5b34801561011a57600080fd5b5061012e6101293660046120be565b61038b565b005b34801561013c57600080fd5b5061015061014b366004612163565b6105f7565b604080519283526020830191909152015b60405180910390f35b34801561017657600080fd5b5061012e6101853660046121ca565b610799565b34801561019657600080fd5b5061012e610879565b3480156101ab57600080fd5b506101bf6101ba3660046121ca565b610930565b604080516001600160a01b03938416815292909116602083015201610161565b3480156101eb57600080fd5b5061012e6101fa3660046121e7565b610a67565b61012e61020d366004612236565b610ba2565b34801561021e57600080fd5b5061023261022d3660046121e7565b610c73565b60408051938452602084019290925290820152606001610161565b34801561025957600080fd5b50610262610de4565b604051908152602001610161565b34801561027c57600080fd5b50610262600281565b34801561029157600080fd5b5060335460ff166040519015158152602001610161565b3480156102b457600080fd5b5061012e6102c33660046122fa565b610e97565b3480156102d457600080fd5b5060c9546102e8906001600160a01b031681565b6040516001600160a01b039091168152602001610161565b34801561030c57600080fd5b5061012e61102a565b34801561032157600080fd5b5061026260cb5481565b34801561033757600080fd5b506102326103463660046121ca565b6110e1565b34801561035757600080fd5b50610232610366366004612313565b61124a565b34801561037757600080fd5b5060ca546102e8906001600160a01b031681565b60335460ff16156103b75760405162461bcd60e51b81526004016103ae9061237c565b60405180910390fd5b60ca54604051632474521560e21b81527ffbd454f36a7e1a388bd6fc3ab10d434aa4578f811acbbcf33afb1c697486313c60048201819052336024830152916001600160a01b0316906391d1485490604401602060405180830381865afa158015610426573d6000803e3d6000fd5b505050506040513d601f19601f8201168201806040525081019061044a91906123a6565b6104665760405162461bcd60e51b81526004016103ae906123c3565b60c95460405163f9d9331d60e01b81526001600160a01b038781166004830152600092169063f9d9331d90602401602060405180830381865afa1580156104b1573d6000803e3d6000fd5b505050506040513d601f19601f820116820180604052508101906104d591906123f2565b90506001600160a01b03811661051f5760405162461bcd60e51b815260206004820152600f60248201526e4641524d5f4e4f545f45584953545360881b60448201526064016103ae565b6040805180820182526001600160a01b03858116825260cb546020830152915163047f792560e11b81526000928416916308fef24a91610566918a918a9190600401612506565b6020604051808303816000875af1158015610585573d6000803e3d6000fd5b505050506040513d601f19601f820116820180604052508101906105a9919061261a565b9050866001600160a01b03167fc1d32ad5cca423e7dda2123dbf8c482f8e77d00b631c06e903a47f2cec1334df826040516105e691815260200190565b60405180910390a250505050505050565b60c95460405163f9d9331d60e01b81526001600160a01b038881166004830152600092839283929091169063f9d9331d90602401602060405180830381865afa158015610648573d6000803e3d6000fd5b505050506040513d601f19601f8201168201806040525081019061066c91906123f2565b90506001600160a01b0381166106b65760405162461bcd60e51b815260206004820152600f60248201526e4641524d5f4e4f545f45584953545360881b60448201526064016103ae565b60405163d563468360e01b815260048101899052602481018890526044810187905285151560648201523360848201526001600160a01b0385811660a483015282169063d56346839060c40160408051808303816000875af1158015610720573d6000803e3d6000fd5b505050506040513d601f19601f820116820180604052508101906107449190612633565b6040518a815291945092506001600160a01b038581169133918c16907f3115d1449a7b732c986cba18244e897a450f61e1bb8d589cd2e69e6c8924f9f79060200160405180910390a450965096945050505050565b306001600160a01b037f00000000000000000000000000000000000000000000000000000000000000001614156107e25760405162461bcd60e51b81526004016103ae90612657565b7f00000000000000000000000000000000000000000000000000000000000000006001600160a01b031661082b600080516020612881833981519152546001600160a01b031690565b6001600160a01b0316146108515760405162461bcd60e51b81526004016103ae906126a3565b61085a8161157a565b6040805160008082526020820190925261087691839190611680565b50565b60ca54604051632474521560e21b81527f65d7a28e3265b37a6474929f336521b332c1681b933f6cb9f3376673440d862a60048201819052336024830152916001600160a01b0316906391d1485490604401602060405180830381865afa1580156108e8573d6000803e3d6000fd5b505050506040513d601f19601f8201168201806040525081019061090c91906123a6565b6109285760405162461bcd60e51b81526004016103ae906123c3565b6108766117eb565b6000806000836001600160a01b03166372f702f36040518163ffffffff1660e01b8152600401602060405180830381865afa158015610973573d6000803e3d6000fd5b505050506040513d601f19601f8201168201806040525081019061099791906123f2565b9050806001600160a01b0316630dfe16816040518163ffffffff1660e01b8152600401602060405180830381865afa1580156109d7573d6000803e3d6000fd5b505050506040513d601f19601f820116820180604052508101906109fb91906123f2565b9250806001600160a01b031663d21220a76040518163ffffffff1660e01b8152600401602060405180830381865afa158015610a3b573d6000803e3d6000fd5b505050506040513d601f19601f82011682018060405250810190610a5f91906123f2565b915050915091565b6000610a73600161187e565b90508015610a8b576000805461ff0019166101001790555b6001600160a01b038316610ad65760405162461bcd60e51b81526020600482015260126024820152712120a22fa0a1a1a2a9a9afa6a0a720a3a2a960711b60448201526064016103ae565b6001600160a01b038216610b1f5760405162461bcd60e51b815260206004820152601060248201526f4241445f4641524d5f464143544f525960801b60448201526064016103ae565b610b27611906565b60ca80546001600160a01b038086166001600160a01b03199283161790925560c98054928516929091169190911790558015610b9d576000805461ff0019169055604051600181527f7f26b83ff96e1f2b6a682f133852f6798a09c465da95921460cefb38474024989060200160405180910390a15b505050565b306001600160a01b037f0000000000000000000000000000000000000000000000000000000000000000161415610beb5760405162461bcd60e51b81526004016103ae90612657565b7f00000000000000000000000000000000000000000000000000000000000000006001600160a01b0316610c34600080516020612881833981519152546001600160a01b031690565b6001600160a01b031614610c5a5760405162461bcd60e51b81526004016103ae906126a3565b610c638261157a565b610c6f82826001611680565b5050565b60c95460405163f9d9331d60e01b81526001600160a01b038381166004830152600092839283928392169063f9d9331d90602401602060405180830381865afa158015610cc4573d6000803e3d6000fd5b505050506040513d601f19601f82011682018060405250810190610ce891906123f2565b90506001600160a01b03811615610ddc57604051630103c92b60e01b81526001600160a01b038781166004830152821690630103c92b90602401602060405180830381865afa158015610d3f573d6000803e3d6000fd5b505050506040513d601f19601f82011682018060405250810190610d63919061261a565b93506000816001600160a01b031663452ed4f16040518163ffffffff1660e01b8152600401602060405180830381865afa158015610da5573d6000803e3d6000fd5b505050506040513d601f19601f82011682018060405250810190610dc991906123f2565b9050610dd58186611937565b9094509250505b509250925092565b6000306001600160a01b037f00000000000000000000000000000000000000000000000000000000000000001614610e845760405162461bcd60e51b815260206004820152603860248201527f555550535570677261646561626c653a206d757374206e6f742062652063616c60448201527f6c6564207468726f7567682064656c656761746563616c6c000000000000000060648201526084016103ae565b5060008051602061288183398151915290565b60ca60009054906101000a90046001600160a01b03166001600160a01b03166375b238fc6040518163ffffffff1660e01b8152600401602060405180830381865afa158015610eea573d6000803e3d6000fd5b505050506040513d601f19601f82011682018060405250810190610f0e919061261a565b60ca54604051632474521560e21b8152600481018390523360248201526001600160a01b03909116906391d1485490604401602060405180830381865afa158015610f5d573d6000803e3d6000fd5b505050506040513d601f19601f82011682018060405250810190610f8191906123a6565b610f9d5760405162461bcd60e51b81526004016103ae906123c3565b670de0b6b3a7640000821115610fdf5760405162461bcd60e51b81526020600482015260076024820152664241445f46454560c81b60448201526064016103ae565b8160cb5414610c6f5760cb5460408051918252602082018490527f5fc463da23c1b063e66f9e352006a7fbe8db7223c455dc429e881a2dfe2f94f1910160405180910390a15060cb55565b60ca54604051632474521560e21b81527f65d7a28e3265b37a6474929f336521b332c1681b933f6cb9f3376673440d862a60048201819052336024830152916001600160a01b0316906391d1485490604401602060405180830381865afa158015611099573d6000803e3d6000fd5b505050506040513d601f19601f820116820180604052508101906110bd91906123a6565b6110d95760405162461bcd60e51b81526004016103ae906123c3565b610876611b72565b60c95460405163f9d9331d60e01b81526001600160a01b038381166004830152600092839283928392169063f9d9331d90602401602060405180830381865afa158015611132573d6000803e3d6000fd5b505050506040513d601f19601f8201168201806040525081019061115691906123f2565b90506001600160a01b0381161561124257806001600160a01b031663168a48226040518163ffffffff1660e01b8152600401602060405180830381865afa1580156111a5573d6000803e3d6000fd5b505050506040513d601f19601f820116820180604052508101906111c9919061261a565b93506000816001600160a01b031663452ed4f16040518163ffffffff1660e01b8152600401602060405180830381865afa15801561120b573d6000803e3d6000fd5b505050506040513d601f19601f8201168201806040525081019061122f91906123f2565b905061123b8186611937565b9094509250505b509193909250565b600080600061125b60335460ff1690565b156112785760405162461bcd60e51b81526004016103ae9061237c565b60c95460405163f9d9331d60e01b81526001600160a01b038c81166004830152600092169063f9d9331d90602401602060405180830381865afa1580156112c3573d6000803e3d6000fd5b505050506040513d601f19601f820116820180604052508101906112e791906123f2565b90506001600160a01b0381166113695760c954604051621849e360e61b81526001600160a01b038d811660048301529091169063061278c0906024016020604051808303816000875af1158015611342573d6000803e3d6000fd5b505050506040513d601f19601f8201168201806040525081019061136691906123f2565b90505b89156113e8576113e833828c846001600160a01b0316630fc63d106040518163ffffffff1660e01b8152600401602060405180830381865afa1580156113b3573d6000803e3d6000fd5b505050506040513d601f19601f820116820180604052508101906113d791906123f2565b6001600160a01b0316929190611bca565b88156114325761143233828b846001600160a01b0316635f64b55b6040518163ffffffff1660e01b8152600401602060405180830381865afa1580156113b3573d6000803e3d6000fd5b851561147c5761147c338288846001600160a01b031663452ed4f16040518163ffffffff1660e01b8152600401602060405180830381865afa1580156113b3573d6000803e3d6000fd5b604051630b333b4560e11b8152600481018b9052602481018a90526044810189905260648101889052608481018790523360a48201526001600160a01b0386811660c4830152821690631666768a9060e4016060604051808303816000875af11580156114ed573d6000803e3d6000fd5b505050506040513d601f19601f8201168201806040525081019061151191906126ef565b60405181815292965090945092506001600160a01b038681169133918e16907f7cfff908a4b583f36430b25d75964c458d8ede8a99bd61be750e97ee1b2f3a969060200160405180910390a4509750975097945050505050565b6001600160a01b03163b151590565b60ca60009054906101000a90046001600160a01b03166001600160a01b03166375b238fc6040518163ffffffff1660e01b8152600401602060405180830381865afa1580156115cd573d6000803e3d6000fd5b505050506040513d601f19601f820116820180604052508101906115f1919061261a565b60ca54604051632474521560e21b8152600481018390523360248201526001600160a01b03909116906391d1485490604401602060405180830381865afa158015611640573d6000803e3d6000fd5b505050506040513d601f19601f8201168201806040525081019061166491906123a6565b610c6f5760405162461bcd60e51b81526004016103ae906123c3565b7f4910fdfa16fed3260ed0e7147f7cc6da11a60208b5b9406d12a635614ffd91435460ff16156116b357610b9d83611c2a565b826001600160a01b03166352d1902d6040518163ffffffff1660e01b8152600401602060405180830381865afa92505050801561170d575060408051601f3d908101601f1916820190925261170a9181019061261a565b60015b6117705760405162461bcd60e51b815260206004820152602e60248201527f45524331393637557067726164653a206e657720696d706c656d656e7461746960448201526d6f6e206973206e6f74205555505360901b60648201526084016103ae565b60008051602061288183398151915281146117df5760405162461bcd60e51b815260206004820152602960248201527f45524331393637557067726164653a20756e737570706f727465642070726f786044820152681a58589b195555525160ba1b60648201526084016103ae565b50610b9d838383611cc6565b60335460ff166118345760405162461bcd60e51b815260206004820152601460248201527314185d5cd8589b194e881b9bdd081c185d5cd95960621b60448201526064016103ae565b6033805460ff191690557f5db9ee0a495bf2e6ff9c91a7834c1ba4fdd244a5e8aa4e537bd38aeae4b073aa335b6040516001600160a01b03909116815260200160405180910390a1565b60008054610100900460ff16156118c5578160ff1660011480156118a15750303b155b6118bd5760405162461bcd60e51b81526004016103ae9061271d565b506000919050565b60005460ff8084169116106118ec5760405162461bcd60e51b81526004016103ae9061271d565b506000805460ff191660ff92909216919091179055600190565b600054610100900460ff1661192d5760405162461bcd60e51b81526004016103ae9061276b565b611935611ceb565b565b6000806000846001600160a01b03166318160ddd6040518163ffffffff1660e01b8152600401602060405180830381865afa15801561197a573d6000803e3d6000fd5b505050506040513d601f19601f8201168201806040525081019061199e919061261a565b905080856001600160a01b0316630dfe16816040518163ffffffff1660e01b8152600401602060405180830381865afa1580156119df573d6000803e3d6000fd5b505050506040513d601f19601f82011682018060405250810190611a0391906123f2565b6040516370a0823160e01b81526001600160a01b03888116600483015291909116906370a0823190602401602060405180830381865afa158015611a4b573d6000803e3d6000fd5b505050506040513d601f19601f82011682018060405250810190611a6f919061261a565b611a7990866127b6565b611a8391906127e3565b925080856001600160a01b031663d21220a76040518163ffffffff1660e01b8152600401602060405180830381865afa158015611ac4573d6000803e3d6000fd5b505050506040513d601f19601f82011682018060405250810190611ae891906123f2565b6040516370a0823160e01b81526001600160a01b03888116600483015291909116906370a0823190602401602060405180830381865afa158015611b30573d6000803e3d6000fd5b505050506040513d601f19601f82011682018060405250810190611b54919061261a565b611b5e90866127b6565b611b6891906127e3565b9150509250929050565b60335460ff1615611b955760405162461bcd60e51b81526004016103ae9061237c565b6033805460ff191660011790557f62e78cea01bee320cd4e420270b5ea74000d11b0c9f74754ebdbfc544b05a2586118613390565b604080516001600160a01b0385811660248301528416604482015260648082018490528251808303909101815260849091019091526020810180516001600160e01b03166323b872dd60e01b179052611c24908590611d1e565b50505050565b6001600160a01b0381163b611c975760405162461bcd60e51b815260206004820152602d60248201527f455243313936373a206e657720696d706c656d656e746174696f6e206973206e60448201526c1bdd08184818dbdb9d1c9858dd609a1b60648201526084016103ae565b60008051602061288183398151915280546001600160a01b0319166001600160a01b0392909216919091179055565b611ccf83611df0565b600082511180611cdc5750805b15610b9d57611c248383611e30565b600054610100900460ff16611d125760405162461bcd60e51b81526004016103ae9061276b565b6033805460ff19169055565b6000611d73826040518060400160405280602081526020017f5361666545524332303a206c6f772d6c6576656c2063616c6c206661696c6564815250856001600160a01b0316611f249092919063ffffffff16565b805190915015610b9d5780806020019051810190611d9191906123a6565b610b9d5760405162461bcd60e51b815260206004820152602a60248201527f5361666545524332303a204552433230206f7065726174696f6e20646964206e6044820152691bdd081cdd58d8d9595960b21b60648201526084016103ae565b611df981611c2a565b6040516001600160a01b038216907fbc7cd75a20ee27fd9adebab32041f755214dbc6bffa90cc0225b39da2e5c2d3b90600090a250565b60606001600160a01b0383163b611e985760405162461bcd60e51b815260206004820152602660248201527f416464726573733a2064656c65676174652063616c6c20746f206e6f6e2d636f6044820152651b9d1c9858dd60d21b60648201526084016103ae565b600080846001600160a01b031684604051611eb39190612831565b600060405180830381855af49150503d8060008114611eee576040519150601f19603f3d011682016040523d82523d6000602084013e611ef3565b606091505b5091509150611f1b82826040518060600160405280602781526020016128a160279139611f3d565b95945050505050565b6060611f338484600085611f76565b90505b9392505050565b60608315611f4c575081611f36565b825115611f5c5782518084602001fd5b8160405162461bcd60e51b81526004016103ae919061284d565b606082471015611fd75760405162461bcd60e51b815260206004820152602660248201527f416464726573733a20696e73756666696369656e742062616c616e636520666f6044820152651c8818d85b1b60d21b60648201526084016103ae565b6001600160a01b0385163b61202e5760405162461bcd60e51b815260206004820152601d60248201527f416464726573733a2063616c6c20746f206e6f6e2d636f6e747261637400000060448201526064016103ae565b600080866001600160a01b0316858760405161204a9190612831565b60006040518083038185875af1925050503d8060008114612087576040519150601f19603f3d011682016040523d82523d6000602084013e61208c565b606091505b509150915061209c828286611f3d565b925050505b949350505050565b6001600160a01b038116811461087657600080fd5b600080600080608085870312156120d457600080fd5b84356120df816120a9565b9350602085013567ffffffffffffffff808211156120fc57600080fd5b81870191508760808301111561211157600080fd5b9093506040860135908082111561212757600080fd5b5085016040810187101561213a57600080fd5b9150606085013561214a816120a9565b939692955090935050565b801515811461087657600080fd5b60008060008060008060c0878903121561217c57600080fd5b8635612187816120a9565b955060208701359450604087013593506060870135925060808701356121ac81612155565b915060a08701356121bc816120a9565b809150509295509295509295565b6000602082840312156121dc57600080fd5b8135611f36816120a9565b600080604083850312156121fa57600080fd5b8235612205816120a9565b91506020830135612215816120a9565b809150509250929050565b634e487b7160e01b600052604160045260246000fd5b6000806040838503121561224957600080fd5b8235612254816120a9565b9150602083013567ffffffffffffffff8082111561227157600080fd5b818501915085601f83011261228557600080fd5b81358181111561229757612297612220565b604051601f8201601f19908116603f011681019083821181831017156122bf576122bf612220565b816040528281528860208487010111156122d857600080fd5b8260208601602083013760006020848301015280955050505050509250929050565b60006020828403121561230c57600080fd5b5035919050565b600080600080600080600060e0888a03121561232e57600080fd5b8735612339816120a9565b96506020880135955060408801359450606088013593506080880135925060a0880135915060c088013561236c816120a9565b8091505092959891949750929550565b60208082526010908201526f14185d5cd8589b194e881c185d5cd95960821b604082015260600190565b6000602082840312156123b857600080fd5b8151611f3681612155565b60208082526015908201527410d05313115497d393d517d055551213d492569151605a1b604082015260600190565b60006020828403121561240457600080fd5b8151611f36816120a9565b60008235603e1983360301811261242557600080fd5b90910192915050565b60008260408082018460005b60028110156124fa578483038852612452828861240f565b8484018135601e1983360301811261246957600080fd5b82018035602067ffffffffffffffff82111561248457600080fd5b8160051b360385131561249657600080fd5b888852928190529082019160009190606088015b828410156124da5784356124bd816120a9565b6001600160a01b03168152938101936001939093019281016124aa565b94810135978101979097525050509783019792919091019060010161243a565b50909695505050505050565b6080808252600090610100830190830186835b60048110156125e257858403607f19018352612535828a61240f565b60408086018235601e1984360301811261254e57600080fd5b83018035602067ffffffffffffffff82111561256957600080fd5b8160051b360386131561257b57600080fd5b938952918290526060880192908101916000915b818310156125c15783356125a2816120a9565b6001600160a01b0316855293840193928301926001929092019161258f565b94850135988501989098525090955050928301929190910190600101612519565b50505082810360208401526125f7818661242e565b84516001600160a01b031660408501526020850151606085015291506120a19050565b60006020828403121561262c57600080fd5b5051919050565b6000806040838503121561264657600080fd5b505080516020909101519092909150565b6020808252602c908201527f46756e6374696f6e206d7573742062652063616c6c6564207468726f7567682060408201526b19195b1959d85d1958d85b1b60a21b606082015260800190565b6020808252602c908201527f46756e6374696f6e206d7573742062652063616c6c6564207468726f7567682060408201526b6163746976652070726f787960a01b606082015260800190565b60008060006060848603121561270457600080fd5b8351925060208401519150604084015190509250925092565b6020808252602e908201527f496e697469616c697a61626c653a20636f6e747261637420697320616c72656160408201526d191e481a5b9a5d1a585b1a5e995960921b606082015260800190565b6020808252602b908201527f496e697469616c697a61626c653a20636f6e7472616374206973206e6f74206960408201526a6e697469616c697a696e6760a81b606082015260800190565b60008160001904831182151516156127de57634e487b7160e01b600052601160045260246000fd5b500290565b60008261280057634e487b7160e01b600052601260045260246000fd5b500490565b60005b83811015612820578181015183820152602001612808565b83811115611c245750506000910152565b60008251612843818460208701612805565b9190910192915050565b602081526000825180602084015261286c816040850160208701612805565b601f01601f1916919091016040019291505056fe360894a13ba1a3210667c828492db98dca3e2076cc3735a920a3ca505d382bbc416464726573733a206c6f772d6c6576656c2064656c65676174652063616c6c206661696c6564a26469706673582212208d92f9ed102f61808655dc3c480247baf3ce38a34b6ed4fffec033eea0fcb05b64736f6c634300080a0033496e697469616c697a61626c653a20636f6e747261637420697320616c726561",
    "immutableReferences": {
        "561": [
            {
                "length": 32,
                "start": 1956
            },
            {
                "length": 32,
                "start": 2020
            },
            {
                "length": 32,
                "start": 2989
            },
            {
                "length": 32,
                "start": 3053
            },
            {
                "length": 32,
                "start": 3569
            }
        ]
    },
    "source": "// SPDX-License-Identifier: MIT\r\npragma solidity 0.8.17;\r\n\r\nimport {IUnoFarmQuickswapDual as Farm} from '../apps/quickswapDual/interfaces/IUnoFarmQuickswapDual.sol'; \r\nimport '../interfaces/IUnoFarmFactory.sol';\r\nimport '../interfaces/IUnoAccessManager.sol'; \r\nimport '../interfaces/IUniswapV2Pair.sol';\r\nimport '../interfaces/IStakingDualRewards.sol';\r\nimport '@openzeppelin/contracts-upgradeable/token/ERC20/IERC20Upgradeable.sol';\r\nimport '@openzeppelin/contracts-upgradeable/token/ERC20/utils/SafeERC20Upgradeable.sol';\r\nimport '@openzeppelin/contracts-upgradeable/proxy/utils/Initializable.sol';\r\nimport '@openzeppelin/contracts-upgradeable/security/PausableUpgradeable.sol';\r\nimport '@openzeppelin/contracts-upgradeable/proxy/utils/UUPSUpgradeable.sol';\r\n\r\ncontract UnoAssetRouterQuickswapDualV2 is Initializable, PausableUpgradeable, UUPSUpgradeable {\r\n    using SafeERC20Upgradeable for IERC20Upgradeable;\r\n\r\n    /**\r\n     * @dev Contract Variables:\r\n     * farmFactory - The contract that deploys new Farms and links them to {lpStakingPool}s.\r\n     * accessManager - Role manager contract.\r\n     */\r\n    IUnoFarmFactory public farmFactory;\r\n    IUnoAccessManager public accessManager;\r\n\r\n    bytes32 private constant DISTRIBUTOR_ROLE = keccak256('DISTRIBUTOR_ROLE');\r\n    bytes32 private constant PAUSER_ROLE = keccak256('PAUSER_ROLE');\r\n\r\n    uint256 public fee;\r\n\r\n    uint256 public constant version = 2;\r\n\r\n    event Deposit(address indexed lpPool, address indexed sender, address indexed recipient, uint256 amount);\r\n    event Withdraw(address indexed lpPool, address indexed sender, address indexed recipient, uint256 amount);\r\n    event Distribute(address indexed lpPool, uint256 reward);\r\n\r\n    event FeeChanged(uint256 previousFee, uint256 newFee);\r\n\r\n    modifier onlyRole(bytes32 role){\r\n        require(accessManager.hasRole(role, msg.sender), 'CALLER_NOT_AUTHORIZED');\r\n        _;\r\n    }\r\n\r\n    // ============ Methods ============\r\n\r\n    /// @custom:oz-upgrades-unsafe-allow constructor\r\n    constructor() {\r\n        _disableInitializers();\r\n    }\r\n\r\n    function initialize(address _accessManager, address _farmFactory) external initializer{\r\n        require (_accessManager != address(0), 'BAD_ACCESS_MANAGER');\r\n        require (_farmFactory != address(0), 'BAD_FARM_FACTORY');\r\n\r\n        __Pausable_init();\r\n        accessManager = IUnoAccessManager(_accessManager);\r\n        farmFactory = IUnoFarmFactory(_farmFactory);\r\n    }\r\n\r\n    /**\r\n     * @dev Deposits tokens in the given pool. Creates new Farm contract if there isn't one deployed for the {lpStakingPool} and deposits tokens in it. Emits a {Deposit} event.\r\n     * @param lpStakingPool - Address of the pool to deposit tokens in.\r\n     * @param amountA  - Token A amount to deposit.\r\n     * @param amountB -  Token B amount to deposit.\r\n     * @param amountAMin - Bounds the extent to which the B/A price can go up before the transaction reverts.\r\n     * @param amountBMin - Bounds the extent to which the A/B price can go up before the transaction reverts.\r\n     * @param amountLP - Additional LP Token amount to deposit.\r\n     * @param recipient - Address which will receive the deposit.\r\n     \r\n     * @return sentA - Token A amount sent to the farm.\r\n     * @return sentB - Token B amount sent to the farm.\r\n     * @return liquidity - Total liquidity sent to the farm (in lpTokens).\r\n     */\r\n    function deposit(address lpStakingPool, uint256 amountA, uint256 amountB, uint256 amountAMin, uint256 amountBMin, uint256 amountLP, address recipient) external whenNotPaused returns(uint256 sentA, uint256 sentB, uint256 liquidity){\r\n        Farm farm = Farm(farmFactory.Farms(lpStakingPool));\r\n        if(farm == Farm(address(0))){\r\n            farm = Farm(farmFactory.createFarm(lpStakingPool));\r\n        }\r\n\r\n        if(amountA > 0){\r\n            IERC20Upgradeable(farm.tokenA()).safeTransferFrom(msg.sender, address(farm), amountA);\r\n        }\r\n        if(amountB > 0){\r\n            IERC20Upgradeable(farm.tokenB()).safeTransferFrom(msg.sender, address(farm), amountB);\r\n        }\r\n        if(amountLP > 0){\r\n            IERC20Upgradeable(farm.lpPair()).safeTransferFrom(msg.sender, address(farm), amountLP);\r\n        }\r\n        \r\n        (sentA, sentB, liquidity) = farm.deposit(amountA, amountB, amountAMin, amountBMin, amountLP, msg.sender, recipient);\r\n        emit Deposit(lpStakingPool, msg.sender, recipient, liquidity); \r\n    }\r\n\r\n    /** \r\n     * @dev Withdraws tokens from the given pool. Emits a {Withdraw} event.\r\n     * @param lpStakingPool - LP pool to withdraw from.\r\n     * @param amount - LP amount to withdraw. \r\n     * @param amountAMin - The minimum amount of tokenA that must be received for the transaction not to revert.\r\n     * @param amountBMin - The minimum amount of tokenB that must be received for the transaction not to revert.\r\n     * @param withdrawLP - True: Withdraw in LP tokens, False: Withdraw in normal tokens.\r\n     * @param recipient - The address which will receive tokens.\r\n\r\n     * @return amountA - Token A amount sent to the {recipient}, 0 if withdrawLP == false.\r\n     * @return amountB - Token B amount sent to the {recipient}, 0 if withdrawLP == false.\r\n     */ \r\n    function withdraw(address lpStakingPool, uint256 amount, uint256 amountAMin, uint256 amountBMin, bool withdrawLP, address recipient) external returns(uint256 amountA, uint256 amountB){\r\n        Farm farm = Farm(farmFactory.Farms(lpStakingPool));\r\n        require(farm != Farm(address(0)),'FARM_NOT_EXISTS');\r\n        \r\n        (amountA, amountB) = farm.withdraw(amount, amountAMin, amountBMin, withdrawLP, msg.sender, recipient); \r\n        emit Withdraw(lpStakingPool, msg.sender, recipient, amount);  \r\n    }\r\n\r\n     /**\r\n     * @dev Distributes tokens between users.\r\n     * @param lpStakingPool - LP pool to distribute tokens in.\r\n     * @param swapInfos - Arrays of structs with token arrays describing swap routes (rewardTokenAToTokenA, rewardTokenAToTokenB, rewardTokenBToTokenA, rewardTokenBToTokenB) and minimum amounts of output tokens that must be received for the transaction not to revert.\r\n     * @param feeSwapInfos - Arrays of structs with token arrays describing swap routes (rewardTokenAToFeeToken, rewardTokenBToFeeToken) and minimum amounts of output tokens that must be received for the transaction not to revert.\r\n     * @param feeTo - Address to collect fees to.\r\n     *\r\n     * Note: This function can only be called by the distributor.\r\n     */ \r\n    function distribute(\r\n        address lpStakingPool,\r\n        Farm.SwapInfo[4] calldata swapInfos,\r\n        Farm.SwapInfo[2] calldata feeSwapInfos,\r\n        address feeTo\r\n    ) external whenNotPaused onlyRole(DISTRIBUTOR_ROLE) {\r\n        Farm farm = Farm(farmFactory.Farms(lpStakingPool));\r\n        require(farm != Farm(address(0)), 'FARM_NOT_EXISTS');\r\n\r\n        uint256 reward = farm.distribute(swapInfos, feeSwapInfos, Farm.FeeInfo(feeTo, fee));\r\n        emit Distribute(lpStakingPool, reward);\r\n    }\r\n\r\n    /**\r\n     * @dev Returns tokens staked by the {_address} for the given {lpStakingPool}.\r\n     * @param _address - The address to check stakes for.\r\n     * @param lpStakingPool - LP pool to check stakes in.\r\n\r\n     * @return stakeLP - Total user stake(in LP tokens).\r\n     * @return stakeA - Token A stake.\r\n     * @return stakeB - Token B stake.\r\n     */\r\n    function userStake(address _address, address lpStakingPool) external view returns (uint256 stakeLP, uint256 stakeA, uint256 stakeB) {\r\n        Farm farm = Farm(farmFactory.Farms(lpStakingPool));\r\n        if (farm != Farm(address(0))) {\r\n            stakeLP = farm.userBalance(_address);\r\n            address lpPair = farm.lpPair();\r\n            (stakeA, stakeB) = getTokenStake(lpPair, stakeLP);\r\n        }\r\n    }\r\n\r\n    /**\r\n     * @dev Returns total amount locked in the pool. Doesn't take pending rewards into account.\r\n     * @param lpStakingPool - LP pool to check total deposits in.\r\n\r\n     * @return totalDepositsLP - Total deposits (in LP tokens).\r\n     * @return totalDepositsA - Token A deposits.\r\n     * @return totalDepositsB - Token B deposits.\r\n     */  \r\n    function totalDeposits(address lpStakingPool) external view returns (uint256 totalDepositsLP, uint256 totalDepositsA, uint256 totalDepositsB) {\r\n        Farm farm = Farm(farmFactory.Farms(lpStakingPool));\r\n        if (farm != Farm(address(0))) {\r\n            totalDepositsLP = farm.getTotalDeposits();\r\n            address lpPair = farm.lpPair();\r\n            (totalDepositsA, totalDepositsB) = getTokenStake(lpPair, totalDepositsLP);\r\n        }\r\n    }\r\n\r\n    /**\r\n     * @dev Returns addresses of pair of tokens in {lpStakingPool}.\r\n     * @param lpStakingPool - LP pool to check tokens in.\r\n\r\n     * @return tokenA - Token A address.\r\n     * @return tokenB - Token B address.\r\n     */  \r\n    function getTokens(address lpStakingPool) external view returns(address tokenA, address tokenB){\r\n        IUniswapV2Pair stakingToken = IUniswapV2Pair(address(IStakingDualRewards(lpStakingPool).stakingToken()));\r\n        tokenA = stakingToken.token0();\r\n        tokenB = stakingToken.token1();\r\n    }\r\n\r\n    /**\r\n     * @dev Converts LP tokens to normal tokens, value(amountA) == value(amountB) == 0.5*amountLP\r\n     * @param lpPair - LP pair for conversion.\r\n     * @param amountLP - Amount of LP tokens to convert.\r\n\r\n     * @return amountA - Token A amount.\r\n     * @return amountB - Token B amount.\r\n     */ \r\n    function getTokenStake(address lpPair, uint256 amountLP) internal view returns (uint256 amountA, uint256 amountB) {\r\n        uint256 totalSupply = IERC20Upgradeable(lpPair).totalSupply();\r\n        amountA = amountLP * IERC20Upgradeable(IUniswapV2Pair(lpPair).token0()).balanceOf(lpPair) / totalSupply;\r\n        amountB = amountLP * IERC20Upgradeable(IUniswapV2Pair(lpPair).token1()).balanceOf(lpPair) / totalSupply;\r\n    }\r\n\r\n    /**\r\n     * @dev Change fee amount.\r\n     * @param _fee -New fee to collect from farms. [10^18 == 100%]\r\n     *\r\n     * Note: This function can only be called by ADMIN_ROLE.\r\n     */ \r\n    function setFee(uint256 _fee) external onlyRole(accessManager.ADMIN_ROLE()){\r\n        require (_fee <= 1 ether, \"BAD_FEE\");\r\n        if(fee != _fee){\r\n            emit FeeChanged(fee, _fee); \r\n            fee = _fee;\r\n        }\r\n    }\r\n\r\n    function pause() external onlyRole(PAUSER_ROLE) {\r\n        _pause();\r\n    }\r\n\r\n    function unpause() external onlyRole(PAUSER_ROLE) {\r\n        _unpause();\r\n    }\r\n\r\n    function _authorizeUpgrade(address) internal override onlyRole(accessManager.ADMIN_ROLE()) {\r\n\r\n    }\r\n}\r\n",
    "sourcePath": "C:\\Users\\jugli\\Desktop\\uno\\uno-contracts-branch\\contracts\\test\\UnoAssetRouterQuickswapDualV2.sol",
    "compiler": {
        "name": "solc",
        "version": "0.8.10+commit.fc410830.Emscripten.clang"
    },
    "schemaVersion": "3.4.9",
    "updatedAt": "2022-09-26T15:41:49.107Z",
    "devdoc": {
        "kind": "dev",
        "methods": {
            "constructor": {
                "custom:oz-upgrades-unsafe-allow": "constructor"
            },
            "deposit(address,uint256,uint256,uint256,uint256,uint256,address)": {
                "details": "Deposits tokens in the given pool. Creates new Farm contract if there isn't one deployed for the {lpStakingPool} and deposits tokens in it. Emits a {Deposit} event.",
                "params": {
                    "amountA": "- Token A amount to deposit.",
                    "amountAMin": "- Bounds the extent to which the B/A price can go up before the transaction reverts.",
                    "amountB": "-  Token B amount to deposit.",
                    "amountBMin": "- Bounds the extent to which the A/B price can go up before the transaction reverts.",
                    "amountLP": "- Additional LP Token amount to deposit.",
                    "lpStakingPool": "- Address of the pool to deposit tokens in.",
                    "recipient": "- Address which will receive the deposit."
                },
                "returns": {
                    "liquidity": "- Total liquidity sent to the farm (in lpTokens).",
                    "sentA": "- Token A amount sent to the farm.",
                    "sentB": "- Token B amount sent to the farm."
                }
            },
            "distribute(address,(address[],uint256)[4],(address[],uint256)[2],address)": {
                "details": "Distributes tokens between users.",
                "params": {
                    "feeSwapInfos": "- Arrays of structs with token arrays describing swap routes (rewardTokenAToFeeToken, rewardTokenBToFeeToken) and minimum amounts of output tokens that must be received for the transaction not to revert.",
                    "feeTo": "- Address to collect fees to. Note: This function can only be called by the distributor.",
                    "lpStakingPool": "- LP pool to distribute tokens in.",
                    "swapInfos": "- Arrays of structs with token arrays describing swap routes (rewardTokenAToTokenA, rewardTokenAToTokenB, rewardTokenBToTokenA, rewardTokenBToTokenB) and minimum amounts of output tokens that must be received for the transaction not to revert."
                }
            },
            "getTokens(address)": {
                "details": "Returns addresses of pair of tokens in {lpStakingPool}.",
                "params": {
                    "lpStakingPool": "- LP pool to check tokens in."
                },
                "returns": {
                    "tokenA": "- Token A address.",
                    "tokenB": "- Token B address."
                }
            },
            "paused()": {
                "details": "Returns true if the contract is paused, and false otherwise."
            },
            "proxiableUUID()": {
                "details": "Implementation of the ERC1822 {proxiableUUID} function. This returns the storage slot used by the implementation. It is used to validate that the this implementation remains valid after an upgrade. IMPORTANT: A proxy pointing at a proxiable contract should not be considered proxiable itself, because this risks bricking a proxy that upgrades to it, by delegating to itself until out of gas. Thus it is critical that this function revert if invoked through a proxy. This is guaranteed by the `notDelegated` modifier."
            },
            "setFee(uint256)": {
                "details": "Change fee amount.",
                "params": {
                    "_fee": "-New fee to collect from farms. [10^18 == 100%] Note: This function can only be called by ADMIN_ROLE."
                }
            },
            "totalDeposits(address)": {
                "details": "Returns total amount locked in the pool. Doesn't take pending rewards into account.",
                "params": {
                    "lpStakingPool": "- LP pool to check total deposits in."
                },
                "returns": {
                    "totalDepositsA": "- Token A deposits.",
                    "totalDepositsB": "- Token B deposits.",
                    "totalDepositsLP": "- Total deposits (in LP tokens)."
                }
            },
            "upgradeTo(address)": {
                "details": "Upgrade the implementation of the proxy to `newImplementation`. Calls {_authorizeUpgrade}. Emits an {Upgraded} event."
            },
            "upgradeToAndCall(address,bytes)": {
                "details": "Upgrade the implementation of the proxy to `newImplementation`, and subsequently execute the function call encoded in `data`. Calls {_authorizeUpgrade}. Emits an {Upgraded} event."
            },
            "userStake(address,address)": {
                "details": "Returns tokens staked by the {_address} for the given {lpStakingPool}.",
                "params": {
                    "_address": "- The address to check stakes for.",
                    "lpStakingPool": "- LP pool to check stakes in."
                },
                "returns": {
                    "stakeA": "- Token A stake.",
                    "stakeB": "- Token B stake.",
                    "stakeLP": "- Total user stake(in LP tokens)."
                }
            },
            "withdraw(address,uint256,uint256,uint256,bool,address)": {
                "details": "Withdraws tokens from the given pool. Emits a {Withdraw} event.",
                "params": {
                    "amount": "- LP amount to withdraw. ",
                    "amountAMin": "- The minimum amount of tokenA that must be received for the transaction not to revert.",
                    "amountBMin": "- The minimum amount of tokenB that must be received for the transaction not to revert.",
                    "lpStakingPool": "- LP pool to withdraw from.",
                    "recipient": "- The address which will receive tokens.",
                    "withdrawLP": "- True: Withdraw in LP tokens, False: Withdraw in normal tokens."
                },
                "returns": {
                    "amountA": "- Token A amount sent to the {recipient}, 0 if withdrawLP == false.",
                    "amountB": "- Token B amount sent to the {recipient}, 0 if withdrawLP == false."
                }
            }
        },
        "stateVariables": {
            "farmFactory": {
                "details": "Contract Variables: farmFactory - The contract that deploys new Farms and links them to {lpStakingPool}s. accessManager - Role manager contract."
            }
        },
        "version": 1
    },
    "userdoc": {
        "kind": "user",
        "methods": {},
        "version": 1
    }
}