{
  "contractName": "UnoAssetRouterQuickswapDualV2",
  "abi": [
    {
      "inputs": [],
      "stateMutability": "nonpayable",
      "type": "constructor"
    },
    {
      "anonymous": false,
      "inputs": [
        {
          "indexed": false,
          "internalType": "address",
          "name": "previousAdmin",
          "type": "address"
        },
        {
          "indexed": false,
          "internalType": "address",
          "name": "newAdmin",
          "type": "address"
        }
      ],
      "name": "AdminChanged",
      "type": "event"
    },
    {
      "anonymous": false,
      "inputs": [
        {
          "indexed": true,
          "internalType": "address",
          "name": "beacon",
          "type": "address"
        }
      ],
      "name": "BeaconUpgraded",
      "type": "event"
    },
    {
      "anonymous": false,
      "inputs": [
        {
          "indexed": true,
          "internalType": "address",
          "name": "lpPool",
          "type": "address"
        },
        {
          "indexed": true,
          "internalType": "address",
          "name": "sender",
          "type": "address"
        },
        {
          "indexed": true,
          "internalType": "address",
          "name": "recipient",
          "type": "address"
        },
        {
          "indexed": false,
          "internalType": "uint256",
          "name": "amount",
          "type": "uint256"
        }
      ],
      "name": "Deposit",
      "type": "event"
    },
    {
      "anonymous": false,
      "inputs": [
        {
          "indexed": true,
          "internalType": "address",
          "name": "lpPool",
          "type": "address"
        },
        {
          "indexed": false,
          "internalType": "uint256",
          "name": "reward",
          "type": "uint256"
        }
      ],
      "name": "Distribute",
      "type": "event"
    },
    {
      "anonymous": false,
      "inputs": [
        {
          "indexed": false,
          "internalType": "uint256",
          "name": "previousFee",
          "type": "uint256"
        },
        {
          "indexed": false,
          "internalType": "uint256",
          "name": "newFee",
          "type": "uint256"
        }
      ],
      "name": "FeeChanged",
      "type": "event"
    },
    {
      "anonymous": false,
      "inputs": [
        {
          "indexed": false,
          "internalType": "uint8",
          "name": "version",
          "type": "uint8"
        }
      ],
      "name": "Initialized",
      "type": "event"
    },
    {
      "anonymous": false,
      "inputs": [
        {
          "indexed": false,
          "internalType": "address",
          "name": "account",
          "type": "address"
        }
      ],
      "name": "Paused",
      "type": "event"
    },
    {
      "anonymous": false,
      "inputs": [
        {
          "indexed": false,
          "internalType": "address",
          "name": "account",
          "type": "address"
        }
      ],
      "name": "Unpaused",
      "type": "event"
    },
    {
      "anonymous": false,
      "inputs": [
        {
          "indexed": true,
          "internalType": "address",
          "name": "implementation",
          "type": "address"
        }
      ],
      "name": "Upgraded",
      "type": "event"
    },
    {
      "anonymous": false,
      "inputs": [
        {
          "indexed": true,
          "internalType": "address",
          "name": "lpPool",
          "type": "address"
        },
        {
          "indexed": true,
          "internalType": "address",
          "name": "sender",
          "type": "address"
        },
        {
          "indexed": true,
          "internalType": "address",
          "name": "recipient",
          "type": "address"
        },
        {
          "indexed": false,
          "internalType": "uint256",
          "name": "amount",
          "type": "uint256"
        }
      ],
      "name": "Withdraw",
      "type": "event"
    },
    {
      "inputs": [],
      "name": "WMATIC",
      "outputs": [
        {
          "internalType": "address",
          "name": "",
          "type": "address"
        }
      ],
      "stateMutability": "view",
      "type": "function"
    },
    {
      "inputs": [],
      "name": "accessManager",
      "outputs": [
        {
          "internalType": "contract IUnoAccessManager",
          "name": "",
          "type": "address"
        }
      ],
      "stateMutability": "view",
      "type": "function"
    },
    {
      "inputs": [],
      "name": "farmFactory",
      "outputs": [
        {
          "internalType": "contract IUnoFarmFactory",
          "name": "",
          "type": "address"
        }
      ],
      "stateMutability": "view",
      "type": "function"
    },
    {
      "inputs": [],
      "name": "fee",
      "outputs": [
        {
          "internalType": "uint256",
          "name": "",
          "type": "uint256"
        }
      ],
      "stateMutability": "view",
      "type": "function"
    },
    {
      "inputs": [],
      "name": "paused",
      "outputs": [
        {
          "internalType": "bool",
          "name": "",
          "type": "bool"
        }
      ],
      "stateMutability": "view",
      "type": "function"
    },
    {
      "inputs": [],
      "name": "proxiableUUID",
      "outputs": [
        {
          "internalType": "bytes32",
          "name": "",
          "type": "bytes32"
        }
      ],
      "stateMutability": "view",
      "type": "function"
    },
    {
      "inputs": [
        {
          "internalType": "address",
          "name": "newImplementation",
          "type": "address"
        }
      ],
      "name": "upgradeTo",
      "outputs": [],
      "stateMutability": "nonpayable",
      "type": "function"
    },
    {
      "inputs": [
        {
          "internalType": "address",
          "name": "newImplementation",
          "type": "address"
        },
        {
          "internalType": "bytes",
          "name": "data",
          "type": "bytes"
        }
      ],
      "name": "upgradeToAndCall",
      "outputs": [],
      "stateMutability": "payable",
      "type": "function"
    },
    {
      "inputs": [],
      "name": "version",
      "outputs": [
        {
          "internalType": "uint256",
          "name": "",
          "type": "uint256"
        }
      ],
      "stateMutability": "view",
      "type": "function"
    },
    {
      "stateMutability": "payable",
      "type": "receive"
    },
    {
      "inputs": [
        {
          "internalType": "address",
          "name": "_accessManager",
          "type": "address"
        },
        {
          "internalType": "address",
          "name": "_farmFactory",
          "type": "address"
        }
      ],
      "name": "initialize",
      "outputs": [],
      "stateMutability": "nonpayable",
      "type": "function"
    },
    {
      "inputs": [
        {
          "internalType": "address",
          "name": "lpStakingPool",
          "type": "address"
        },
        {
          "internalType": "uint256",
          "name": "amountA",
          "type": "uint256"
        },
        {
          "internalType": "uint256",
          "name": "amountB",
          "type": "uint256"
        },
        {
          "internalType": "uint256",
          "name": "amountAMin",
          "type": "uint256"
        },
        {
          "internalType": "uint256",
          "name": "amountBMin",
          "type": "uint256"
        },
        {
          "internalType": "uint256",
          "name": "amountLP",
          "type": "uint256"
        },
        {
          "internalType": "address",
          "name": "recipient",
          "type": "address"
        }
      ],
      "name": "deposit",
      "outputs": [
        {
          "internalType": "uint256",
          "name": "sentA",
          "type": "uint256"
        },
        {
          "internalType": "uint256",
          "name": "sentB",
          "type": "uint256"
        },
        {
          "internalType": "uint256",
          "name": "liquidity",
          "type": "uint256"
        }
      ],
      "stateMutability": "nonpayable",
      "type": "function"
    },
    {
      "inputs": [
        {
          "internalType": "address",
          "name": "lpStakingPool",
          "type": "address"
        },
        {
          "internalType": "uint256",
          "name": "amountToken",
          "type": "uint256"
        },
        {
          "internalType": "uint256",
          "name": "amountTokenMin",
          "type": "uint256"
        },
        {
          "internalType": "uint256",
          "name": "amountETHMin",
          "type": "uint256"
        },
        {
          "internalType": "uint256",
          "name": "amountLP",
          "type": "uint256"
        },
        {
          "internalType": "address",
          "name": "recipient",
          "type": "address"
        }
      ],
      "name": "depositETH",
      "outputs": [
        {
          "internalType": "uint256",
          "name": "sentToken",
          "type": "uint256"
        },
        {
          "internalType": "uint256",
          "name": "sentETH",
          "type": "uint256"
        },
        {
          "internalType": "uint256",
          "name": "liquidity",
          "type": "uint256"
        }
      ],
      "stateMutability": "payable",
      "type": "function"
    },
    {
      "inputs": [
        {
          "internalType": "address",
          "name": "lpStakingPool",
          "type": "address"
        },
        {
          "internalType": "uint256",
          "name": "amount",
          "type": "uint256"
        },
        {
          "internalType": "uint256",
          "name": "amountAMin",
          "type": "uint256"
        },
        {
          "internalType": "uint256",
          "name": "amountBMin",
          "type": "uint256"
        },
        {
          "internalType": "bool",
          "name": "withdrawLP",
          "type": "bool"
        },
        {
          "internalType": "address",
          "name": "recipient",
          "type": "address"
        }
      ],
      "name": "withdraw",
      "outputs": [
        {
          "internalType": "uint256",
          "name": "amountA",
          "type": "uint256"
        },
        {
          "internalType": "uint256",
          "name": "amountB",
          "type": "uint256"
        }
      ],
      "stateMutability": "nonpayable",
      "type": "function"
    },
    {
      "inputs": [
        {
          "internalType": "address",
          "name": "lpStakingPool",
          "type": "address"
        },
        {
          "internalType": "uint256",
          "name": "amount",
          "type": "uint256"
        },
        {
          "internalType": "uint256",
          "name": "amountTokenMin",
          "type": "uint256"
        },
        {
          "internalType": "uint256",
          "name": "amountETHMin",
          "type": "uint256"
        },
        {
          "internalType": "address",
          "name": "recipient",
          "type": "address"
        }
      ],
      "name": "withdrawETH",
      "outputs": [
        {
          "internalType": "uint256",
          "name": "amountToken",
          "type": "uint256"
        },
        {
          "internalType": "uint256",
          "name": "amountETH",
          "type": "uint256"
        }
      ],
      "stateMutability": "payable",
      "type": "function"
    },
    {
      "inputs": [
        {
          "internalType": "address",
          "name": "lpStakingPool",
          "type": "address"
        },
        {
          "components": [
            {
              "internalType": "address[]",
              "name": "route",
              "type": "address[]"
            },
            {
              "internalType": "uint256",
              "name": "amountOutMin",
              "type": "uint256"
            }
          ],
          "internalType": "struct IUnoFarmQuickswapDual.SwapInfo[4]",
          "name": "swapInfos",
          "type": "tuple[4]"
        },
        {
          "components": [
            {
              "internalType": "address[]",
              "name": "route",
              "type": "address[]"
            },
            {
              "internalType": "uint256",
              "name": "amountOutMin",
              "type": "uint256"
            }
          ],
          "internalType": "struct IUnoFarmQuickswapDual.SwapInfo[2]",
          "name": "feeSwapInfos",
          "type": "tuple[2]"
        },
        {
          "internalType": "address",
          "name": "feeTo",
          "type": "address"
        }
      ],
      "name": "distribute",
      "outputs": [],
      "stateMutability": "nonpayable",
      "type": "function"
    },
    {
      "inputs": [
        {
          "internalType": "address",
          "name": "_address",
          "type": "address"
        },
        {
          "internalType": "address",
          "name": "lpStakingPool",
          "type": "address"
        }
      ],
      "name": "userStake",
      "outputs": [
        {
          "internalType": "uint256",
          "name": "stakeLP",
          "type": "uint256"
        },
        {
          "internalType": "uint256",
          "name": "stakeA",
          "type": "uint256"
        },
        {
          "internalType": "uint256",
          "name": "stakeB",
          "type": "uint256"
        }
      ],
      "stateMutability": "view",
      "type": "function"
    },
    {
      "inputs": [
        {
          "internalType": "address",
          "name": "lpStakingPool",
          "type": "address"
        }
      ],
      "name": "totalDeposits",
      "outputs": [
        {
          "internalType": "uint256",
          "name": "totalDepositsLP",
          "type": "uint256"
        },
        {
          "internalType": "uint256",
          "name": "totalDepositsA",
          "type": "uint256"
        },
        {
          "internalType": "uint256",
          "name": "totalDepositsB",
          "type": "uint256"
        }
      ],
      "stateMutability": "view",
      "type": "function"
    },
    {
      "inputs": [
        {
          "internalType": "address",
          "name": "lpStakingPool",
          "type": "address"
        }
      ],
      "name": "getTokens",
      "outputs": [
        {
          "internalType": "contract IERC20[]",
          "name": "tokens",
          "type": "address[]"
        }
      ],
      "stateMutability": "view",
      "type": "function"
    },
    {
      "inputs": [
        {
          "internalType": "uint256",
          "name": "_fee",
          "type": "uint256"
        }
      ],
      "name": "setFee",
      "outputs": [],
      "stateMutability": "nonpayable",
      "type": "function"
    },
    {
      "inputs": [],
      "name": "pause",
      "outputs": [],
      "stateMutability": "nonpayable",
      "type": "function"
    },
    {
      "inputs": [],
      "name": "unpause",
      "outputs": [],
      "stateMutability": "nonpayable",
      "type": "function"
    }
  ],
  "bytecode": "0x60a0604052306080523480156200001557600080fd5b506200002062000026565b62000156565b6200003260ff62000035565b50565b60008054610100900460ff1615620000ce578160ff1660011480156200006e57506200006c306200014760201b6200201b1760201c565b155b620000c65760405162461bcd60e51b815260206004820152602e60248201526000805160206200373383398151915260448201526d191e481a5b9a5d1a585b1a5e995960921b60648201526084015b60405180910390fd5b506000919050565b60005460ff8084169116106200012d5760405162461bcd60e51b815260206004820152602e60248201526000805160206200373383398151915260448201526d191e481a5b9a5d1a585b1a5e995960921b6064820152608401620000bd565b506000805460ff191660ff92909216919091179055600190565b6001600160a01b03163b151590565b6080516135a56200018e6000396000818161080301528181610843015281816112d101528181611311015261151501526135a56000f3fe60806040526004361061012e5760003560e01c806352d1902d116100ab5780638456cb591161006f5780638456cb59146103af578063ddca3f43146103c4578063deb03f4d146103da578063e9403256146103ed578063f441f73c1461040d578063fdcb60681461042d57600080fd5b806352d1902d1461031457806354fd4d50146103375780635c975abb1461034c57806369fe0e2d1461036f5780636d25e1751461038f57600080fd5b80634743cdc7116100f25780634743cdc714610253578063485cc955146102815780634d95cad9146102a15780634f1ef286146102e157806351bdca3e146102f457600080fd5b80631ad88180146101975780631ec5aa3e146101b75780633659cfe6146101f15780633f4ba83a14610211578063450efe211461022657600080fd5b366101925733730d500b1d8e8ef31e21c99d1db9a6444d3adf1270146101905760405162461bcd60e51b81526020600482015260126024820152714f4e4c595f4143434550545f574d4154494360701b60448201526064015b60405180910390fd5b005b600080fd5b3480156101a357600080fd5b506101906101b2366004612baf565b61044d565b3480156101c357600080fd5b506101d76101d2366004612c54565b61068e565b604080519283526020830191909152015b60405180910390f35b3480156101fd57600080fd5b5061019061020c366004612cbb565b6107f8565b34801561021d57600080fd5b506101906108d8565b34801561023257600080fd5b50610246610241366004612cbb565b61098f565b6040516101e89190612cd8565b610266610261366004612d25565b610b45565b604080519384526020840192909252908201526060016101e8565b34801561028d57600080fd5b5061019061029c366004612d75565b61118b565b3480156102ad57600080fd5b506102c9730d500b1d8e8ef31e21c99d1db9a6444d3adf127081565b6040516001600160a01b0390911681526020016101e8565b6101906102ef366004612dc4565b6112c6565b34801561030057600080fd5b5061026661030f366004612d75565b611397565b34801561032057600080fd5b50610329611508565b6040519081526020016101e8565b34801561034357600080fd5b50610329600281565b34801561035857600080fd5b5060335460ff1660405190151581526020016101e8565b34801561037b57600080fd5b5061019061038a366004612e88565b6115bb565b34801561039b57600080fd5b5060c9546102c9906001600160a01b031681565b3480156103bb57600080fd5b5061019061174e565b3480156103d057600080fd5b5061032960cb5481565b6101d76103e8366004612ea1565b611805565b3480156103f957600080fd5b50610266610408366004612cbb565b611be0565b34801561041957600080fd5b50610266610428366004612ef7565b611d49565b34801561043957600080fd5b5060ca546102c9906001600160a01b031681565b60335460ff16156104705760405162461bcd60e51b815260040161018790612f60565b60ca54604051632474521560e21b81527ffbd454f36a7e1a388bd6fc3ab10d434aa4578f811acbbcf33afb1c697486313c60048201819052336024830152916001600160a01b0316906391d1485490604401602060405180830381865afa1580156104df573d6000803e3d6000fd5b505050506040513d601f19601f820116820180604052508101906105039190612f8a565b61051f5760405162461bcd60e51b815260040161018790612fa7565b60c95460405163f9d9331d60e01b81526001600160a01b038781166004830152600092169063f9d9331d90602401602060405180830381865afa15801561056a573d6000803e3d6000fd5b505050506040513d601f19601f8201168201806040525081019061058e9190612fd6565b90506001600160a01b0381166105b65760405162461bcd60e51b815260040161018790612ff3565b6040805180820182526001600160a01b03858116825260cb546020830152915163047f792560e11b81526000928416916308fef24a916105fd918a918a9190600401613107565b6020604051808303816000875af115801561061c573d6000803e3d6000fd5b505050506040513d601f19601f82011682018060405250810190610640919061321b565b9050866001600160a01b03167fc1d32ad5cca423e7dda2123dbf8c482f8e77d00b631c06e903a47f2cec1334df8260405161067d91815260200190565b60405180910390a250505050505050565b60c95460405163f9d9331d60e01b81526001600160a01b038881166004830152600092839283929091169063f9d9331d90602401602060405180830381865afa1580156106df573d6000803e3d6000fd5b505050506040513d601f19601f820116820180604052508101906107039190612fd6565b90506001600160a01b03811661072b5760405162461bcd60e51b815260040161018790612ff3565b60405163d563468360e01b81526001600160a01b0382169063d563468390610761908b908b908b908b9033908c90600401613234565b60408051808303816000875af115801561077f573d6000803e3d6000fd5b505050506040513d601f19601f820116820180604052508101906107a3919061326a565b6040518a815291945092506001600160a01b038581169133918c16907f3115d1449a7b732c986cba18244e897a450f61e1bb8d589cd2e69e6c8924f9f79060200160405180910390a450965096945050505050565b306001600160a01b037f00000000000000000000000000000000000000000000000000000000000000001614156108415760405162461bcd60e51b81526004016101879061328e565b7f00000000000000000000000000000000000000000000000000000000000000006001600160a01b031661088a600080516020613529833981519152546001600160a01b031690565b6001600160a01b0316146108b05760405162461bcd60e51b8152600401610187906132da565b6108b98161202a565b604080516000808252602082019092526108d591839190612130565b50565b60ca54604051632474521560e21b81527f65d7a28e3265b37a6474929f336521b332c1681b933f6cb9f3376673440d862a60048201819052336024830152916001600160a01b0316906391d1485490604401602060405180830381865afa158015610947573d6000803e3d6000fd5b505050506040513d601f19601f8201168201806040525081019061096b9190612f8a565b6109875760405162461bcd60e51b815260040161018790612fa7565b6108d561229b565b60408051600280825260608083018452926020830190803683370190505090506000826001600160a01b03166372f702f36040518163ffffffff1660e01b8152600401602060405180830381865afa1580156109ef573d6000803e3d6000fd5b505050506040513d601f19601f82011682018060405250810190610a139190612fd6565b9050806001600160a01b0316630dfe16816040518163ffffffff1660e01b8152600401602060405180830381865afa158015610a53573d6000803e3d6000fd5b505050506040513d601f19601f82011682018060405250810190610a779190612fd6565b82600081518110610a8a57610a8a613326565b60200260200101906001600160a01b031690816001600160a01b031681525050806001600160a01b031663d21220a76040518163ffffffff1660e01b8152600401602060405180830381865afa158015610ae8573d6000803e3d6000fd5b505050506040513d601f19601f82011682018060405250810190610b0c9190612fd6565b82600181518110610b1f57610b1f613326565b60200260200101906001600160a01b031690816001600160a01b03168152505050919050565b6000806000610b5660335460ff1690565b15610b735760405162461bcd60e51b815260040161018790612f60565b60003411610bb35760405162461bcd60e51b815260206004820152600d60248201526c1393d7d350551250d7d4d15395609a1b6044820152606401610187565b60c95460405163f9d9331d60e01b81526001600160a01b038b81166004830152600092169063f9d9331d90602401602060405180830381865afa158015610bfe573d6000803e3d6000fd5b505050506040513d601f19601f82011682018060405250810190610c229190612fd6565b90506001600160a01b038116610ca45760c954604051621849e360e61b81526001600160a01b038c811660048301529091169063061278c0906024016020604051808303816000875af1158015610c7d573d6000803e3d6000fd5b505050506040513d601f19601f82011682018060405250810190610ca19190612fd6565b90505b8515610d2357610d23338288846001600160a01b031663452ed4f16040518163ffffffff1660e01b8152600401602060405180830381865afa158015610cee573d6000803e3d6000fd5b505050506040513d601f19601f82011682018060405250810190610d129190612fd6565b6001600160a01b031692919061232e565b6000816001600160a01b0316630fc63d106040518163ffffffff1660e01b8152600401602060405180830381865afa158015610d63573d6000803e3d6000fd5b505050506040513d601f19601f82011682018060405250810190610d879190612fd6565b90506000826001600160a01b0316635f64b55b6040518163ffffffff1660e01b8152600401602060405180830381865afa158015610dc9573d6000803e3d6000fd5b505050506040513d601f19601f82011682018060405250810190610ded9190612fd6565b9050730d500b1d8e8ef31e21c99d1db9a6444d3adf12706001600160a01b031663d0e30db0346040518263ffffffff1660e01b81526004016000604051808303818588803b158015610e3e57600080fd5b505af1158015610e52573d6000803e3d6000fd5b50610e7a9350730d500b1d8e8ef31e21c99d1db9a6444d3adf1270925086915034905061239f565b6001600160a01b038216730d500b1d8e8ef31e21c99d1db9a6444d3adf12701415610f61578a15610eba57610eba6001600160a01b03821633858e61232e565b826001600160a01b0316631666768a348d8c8e8d308e6040518863ffffffff1660e01b8152600401610ef2979695949392919061333c565b6060604051808303816000875af1158015610f11573d6000803e3d6000fd5b505050506040513d601f19601f82011682018060405250810190610f359190613378565b9097509095509350610f5c33610f4b888e6133bc565b6001600160a01b038416919061239f565b61107c565b6001600160a01b038116730d500b1d8e8ef31e21c99d1db9a6444d3adf12701415611042578a15610fa157610fa16001600160a01b03831633858e61232e565b826001600160a01b0316631666768a8c348d8d8d308e6040518863ffffffff1660e01b8152600401610fd9979695949392919061333c565b6060604051808303816000875af1158015610ff8573d6000803e3d6000fd5b505050506040513d601f19601f8201168201806040525081019061101c9190613378565b91975095509350610f5c33611031888e6133bc565b6001600160a01b038516919061239f565b60405162461bcd60e51b815260206004820152600f60248201526e1393d517d5d350551250d7d413d3d3608a1b6044820152606401610187565b600061108886346133bc565b9050801561112457604051632e1a7d4d60e01b815260048101829052730d500b1d8e8ef31e21c99d1db9a6444d3adf127090632e1a7d4d90602401600060405180830381600087803b1580156110dd57600080fd5b505af11580156110f1573d6000803e3d6000fd5b505060405133925083156108fc02915083906000818181858888f19350505050158015611122573d6000803e3d6000fd5b505b876001600160a01b0316336001600160a01b03168e6001600160a01b03167f7cfff908a4b583f36430b25d75964c458d8ede8a99bd61be750e97ee1b2f3a968860405161117391815260200190565b60405180910390a45050505096509650969350505050565b600061119760016123cf565b905080156111af576000805461ff0019166101001790555b6001600160a01b0383166111fa5760405162461bcd60e51b81526020600482015260126024820152712120a22fa0a1a1a2a9a9afa6a0a720a3a2a960711b6044820152606401610187565b6001600160a01b0382166112435760405162461bcd60e51b815260206004820152601060248201526f4241445f4641524d5f464143544f525960801b6044820152606401610187565b61124b612457565b60ca80546001600160a01b038086166001600160a01b03199283161790925560c980549285169290911691909117905580156112c1576000805461ff0019169055604051600181527f7f26b83ff96e1f2b6a682f133852f6798a09c465da95921460cefb38474024989060200160405180910390a15b505050565b306001600160a01b037f000000000000000000000000000000000000000000000000000000000000000016141561130f5760405162461bcd60e51b81526004016101879061328e565b7f00000000000000000000000000000000000000000000000000000000000000006001600160a01b0316611358600080516020613529833981519152546001600160a01b031690565b6001600160a01b03161461137e5760405162461bcd60e51b8152600401610187906132da565b6113878261202a565b61139382826001612130565b5050565b60c95460405163f9d9331d60e01b81526001600160a01b038381166004830152600092839283928392169063f9d9331d90602401602060405180830381865afa1580156113e8573d6000803e3d6000fd5b505050506040513d601f19601f8201168201806040525081019061140c9190612fd6565b90506001600160a01b0381161561150057604051630103c92b60e01b81526001600160a01b038781166004830152821690630103c92b90602401602060405180830381865afa158015611463573d6000803e3d6000fd5b505050506040513d601f19601f82011682018060405250810190611487919061321b565b93506000816001600160a01b031663452ed4f16040518163ffffffff1660e01b8152600401602060405180830381865afa1580156114c9573d6000803e3d6000fd5b505050506040513d601f19601f820116820180604052508101906114ed9190612fd6565b90506114f98186612488565b9094509250505b509250925092565b6000306001600160a01b037f000000000000000000000000000000000000000000000000000000000000000016146115a85760405162461bcd60e51b815260206004820152603860248201527f555550535570677261646561626c653a206d757374206e6f742062652063616c60448201527f6c6564207468726f7567682064656c656761746563616c6c00000000000000006064820152608401610187565b5060008051602061352983398151915290565b60ca60009054906101000a90046001600160a01b03166001600160a01b03166375b238fc6040518163ffffffff1660e01b8152600401602060405180830381865afa15801561160e573d6000803e3d6000fd5b505050506040513d601f19601f82011682018060405250810190611632919061321b565b60ca54604051632474521560e21b8152600481018390523360248201526001600160a01b03909116906391d1485490604401602060405180830381865afa158015611681573d6000803e3d6000fd5b505050506040513d601f19601f820116820180604052508101906116a59190612f8a565b6116c15760405162461bcd60e51b815260040161018790612fa7565b670de0b6b3a76400008211156117035760405162461bcd60e51b81526020600482015260076024820152664241445f46454560c81b6044820152606401610187565b8160cb54146113935760cb5460408051918252602082018490527f5fc463da23c1b063e66f9e352006a7fbe8db7223c455dc429e881a2dfe2f94f1910160405180910390a15060cb55565b60ca54604051632474521560e21b81527f65d7a28e3265b37a6474929f336521b332c1681b933f6cb9f3376673440d862a60048201819052336024830152916001600160a01b0316906391d1485490604401602060405180830381865afa1580156117bd573d6000803e3d6000fd5b505050506040513d601f19601f820116820180604052508101906117e19190612f8a565b6117fd5760405162461bcd60e51b815260040161018790612fa7565b6108d56126c3565b60c95460405163f9d9331d60e01b81526001600160a01b038781166004830152600092839283929091169063f9d9331d90602401602060405180830381865afa158015611856573d6000803e3d6000fd5b505050506040513d601f19601f8201168201806040525081019061187a9190612fd6565b90506001600160a01b0381166118a25760405162461bcd60e51b815260040161018790612ff3565b6000816001600160a01b0316630fc63d106040518163ffffffff1660e01b8152600401602060405180830381865afa1580156118e2573d6000803e3d6000fd5b505050506040513d601f19601f820116820180604052508101906119069190612fd6565b90506000826001600160a01b0316635f64b55b6040518163ffffffff1660e01b8152600401602060405180830381865afa158015611948573d6000803e3d6000fd5b505050506040513d601f19601f8201168201806040525081019061196c9190612fd6565b90506001600160a01b038216730d500b1d8e8ef31e21c99d1db9a6444d3adf12701415611a295760405163d563468360e01b81526001600160a01b0384169063d5634683906119ca908c908b908d9060009033903090600401613234565b60408051808303816000875af11580156119e8573d6000803e3d6000fd5b505050506040513d601f19601f82011682018060405250810190611a0c919061326a565b95509350611a246001600160a01b038216878761239f565b611ae0565b6001600160a01b038116730d500b1d8e8ef31e21c99d1db9a6444d3adf127014156110425760405163d563468360e01b81526001600160a01b0384169063d563468390611a85908c908c908c9060009033903090600401613234565b60408051808303816000875af1158015611aa3573d6000803e3d6000fd5b505050506040513d601f19601f82011682018060405250810190611ac7919061326a565b9095509350611a246001600160a01b038316878761239f565b604051632e1a7d4d60e01b815260048101859052730d500b1d8e8ef31e21c99d1db9a6444d3adf127090632e1a7d4d90602401600060405180830381600087803b158015611b2d57600080fd5b505af1158015611b41573d6000803e3d6000fd5b50506040516001600160a01b038916925086156108fc02915086906000818181858888f19350505050158015611b7b573d6000803e3d6000fd5b50856001600160a01b0316336001600160a01b03168b6001600160a01b03167f3115d1449a7b732c986cba18244e897a450f61e1bb8d589cd2e69e6c8924f9f78c604051611bcb91815260200190565b60405180910390a45050509550959350505050565b60c95460405163f9d9331d60e01b81526001600160a01b038381166004830152600092839283928392169063f9d9331d90602401602060405180830381865afa158015611c31573d6000803e3d6000fd5b505050506040513d601f19601f82011682018060405250810190611c559190612fd6565b90506001600160a01b03811615611d4157806001600160a01b031663168a48226040518163ffffffff1660e01b8152600401602060405180830381865afa158015611ca4573d6000803e3d6000fd5b505050506040513d601f19601f82011682018060405250810190611cc8919061321b565b93506000816001600160a01b031663452ed4f16040518163ffffffff1660e01b8152600401602060405180830381865afa158015611d0a573d6000803e3d6000fd5b505050506040513d601f19601f82011682018060405250810190611d2e9190612fd6565b9050611d3a8186612488565b9094509250505b509193909250565b6000806000611d5a60335460ff1690565b15611d775760405162461bcd60e51b815260040161018790612f60565b60c95460405163f9d9331d60e01b81526001600160a01b038c81166004830152600092169063f9d9331d90602401602060405180830381865afa158015611dc2573d6000803e3d6000fd5b505050506040513d601f19601f82011682018060405250810190611de69190612fd6565b90506001600160a01b038116611e685760c954604051621849e360e61b81526001600160a01b038d811660048301529091169063061278c0906024016020604051808303816000875af1158015611e41573d6000803e3d6000fd5b505050506040513d601f19601f82011682018060405250810190611e659190612fd6565b90505b8515611eb257611eb2338288846001600160a01b031663452ed4f16040518163ffffffff1660e01b8152600401602060405180830381865afa158015610cee573d6000803e3d6000fd5b8915611efc57611efc33828c846001600160a01b0316630fc63d106040518163ffffffff1660e01b8152600401602060405180830381865afa158015610cee573d6000803e3d6000fd5b8815611f4657611f4633828b846001600160a01b0316635f64b55b6040518163ffffffff1660e01b8152600401602060405180830381865afa158015610cee573d6000803e3d6000fd5b604051630b333b4560e11b81526001600160a01b03821690631666768a90611f7e908d908d908d908d908d9033908e9060040161333c565b6060604051808303816000875af1158015611f9d573d6000803e3d6000fd5b505050506040513d601f19601f82011682018060405250810190611fc19190613378565b60405181815292965090945092506001600160a01b038681169133918e16907f7cfff908a4b583f36430b25d75964c458d8ede8a99bd61be750e97ee1b2f3a969060200160405180910390a4509750975097945050505050565b6001600160a01b03163b151590565b60ca60009054906101000a90046001600160a01b03166001600160a01b03166375b238fc6040518163ffffffff1660e01b8152600401602060405180830381865afa15801561207d573d6000803e3d6000fd5b505050506040513d601f19601f820116820180604052508101906120a1919061321b565b60ca54604051632474521560e21b8152600481018390523360248201526001600160a01b03909116906391d1485490604401602060405180830381865afa1580156120f0573d6000803e3d6000fd5b505050506040513d601f19601f820116820180604052508101906121149190612f8a565b6113935760405162461bcd60e51b815260040161018790612fa7565b7f4910fdfa16fed3260ed0e7147f7cc6da11a60208b5b9406d12a635614ffd91435460ff1615612163576112c18361271b565b826001600160a01b03166352d1902d6040518163ffffffff1660e01b8152600401602060405180830381865afa9250505080156121bd575060408051601f3d908101601f191682019092526121ba9181019061321b565b60015b6122205760405162461bcd60e51b815260206004820152602e60248201527f45524331393637557067726164653a206e657720696d706c656d656e7461746960448201526d6f6e206973206e6f74205555505360901b6064820152608401610187565b600080516020613529833981519152811461228f5760405162461bcd60e51b815260206004820152602960248201527f45524331393637557067726164653a20756e737570706f727465642070726f786044820152681a58589b195555525160ba1b6064820152608401610187565b506112c18383836127b7565b60335460ff166122e45760405162461bcd60e51b815260206004820152601460248201527314185d5cd8589b194e881b9bdd081c185d5cd95960621b6044820152606401610187565b6033805460ff191690557f5db9ee0a495bf2e6ff9c91a7834c1ba4fdd244a5e8aa4e537bd38aeae4b073aa335b6040516001600160a01b03909116815260200160405180910390a1565b6040516001600160a01b03808516602483015283166044820152606481018290526123999085906323b872dd60e01b906084015b60408051601f198184030181529190526020810180516001600160e01b03166001600160e01b0319909316929092179091526127dc565b50505050565b6040516001600160a01b0383166024820152604481018290526112c190849063a9059cbb60e01b90606401612362565b60008054610100900460ff1615612416578160ff1660011480156123f25750303b155b61240e5760405162461bcd60e51b8152600401610187906133d3565b506000919050565b60005460ff80841691161061243d5760405162461bcd60e51b8152600401610187906133d3565b506000805460ff191660ff92909216919091179055600190565b600054610100900460ff1661247e5760405162461bcd60e51b815260040161018790613421565b6124866128ae565b565b6000806000846001600160a01b03166318160ddd6040518163ffffffff1660e01b8152600401602060405180830381865afa1580156124cb573d6000803e3d6000fd5b505050506040513d601f19601f820116820180604052508101906124ef919061321b565b905080856001600160a01b0316630dfe16816040518163ffffffff1660e01b8152600401602060405180830381865afa158015612530573d6000803e3d6000fd5b505050506040513d601f19601f820116820180604052508101906125549190612fd6565b6040516370a0823160e01b81526001600160a01b03888116600483015291909116906370a0823190602401602060405180830381865afa15801561259c573d6000803e3d6000fd5b505050506040513d601f19601f820116820180604052508101906125c0919061321b565b6125ca908661346c565b6125d4919061348b565b925080856001600160a01b031663d21220a76040518163ffffffff1660e01b8152600401602060405180830381865afa158015612615573d6000803e3d6000fd5b505050506040513d601f19601f820116820180604052508101906126399190612fd6565b6040516370a0823160e01b81526001600160a01b03888116600483015291909116906370a0823190602401602060405180830381865afa158015612681573d6000803e3d6000fd5b505050506040513d601f19601f820116820180604052508101906126a5919061321b565b6126af908661346c565b6126b9919061348b565b9150509250929050565b60335460ff16156126e65760405162461bcd60e51b815260040161018790612f60565b6033805460ff191660011790557f62e78cea01bee320cd4e420270b5ea74000d11b0c9f74754ebdbfc544b05a2586123113390565b6001600160a01b0381163b6127885760405162461bcd60e51b815260206004820152602d60248201527f455243313936373a206e657720696d706c656d656e746174696f6e206973206e60448201526c1bdd08184818dbdb9d1c9858dd609a1b6064820152608401610187565b60008051602061352983398151915280546001600160a01b0319166001600160a01b0392909216919091179055565b6127c0836128e1565b6000825111806127cd5750805b156112c1576123998383612921565b6000612831826040518060400160405280602081526020017f5361666545524332303a206c6f772d6c6576656c2063616c6c206661696c6564815250856001600160a01b0316612a159092919063ffffffff16565b8051909150156112c1578080602001905181019061284f9190612f8a565b6112c15760405162461bcd60e51b815260206004820152602a60248201527f5361666545524332303a204552433230206f7065726174696f6e20646964206e6044820152691bdd081cdd58d8d9595960b21b6064820152608401610187565b600054610100900460ff166128d55760405162461bcd60e51b815260040161018790613421565b6033805460ff19169055565b6128ea8161271b565b6040516001600160a01b038216907fbc7cd75a20ee27fd9adebab32041f755214dbc6bffa90cc0225b39da2e5c2d3b90600090a250565b60606001600160a01b0383163b6129895760405162461bcd60e51b815260206004820152602660248201527f416464726573733a2064656c65676174652063616c6c20746f206e6f6e2d636f6044820152651b9d1c9858dd60d21b6064820152608401610187565b600080846001600160a01b0316846040516129a491906134d9565b600060405180830381855af49150503d80600081146129df576040519150601f19603f3d011682016040523d82523d6000602084013e6129e4565b606091505b5091509150612a0c828260405180606001604052806027815260200161354960279139612a2e565b95945050505050565b6060612a248484600085612a67565b90505b9392505050565b60608315612a3d575081612a27565b825115612a4d5782518084602001fd5b8160405162461bcd60e51b815260040161018791906134f5565b606082471015612ac85760405162461bcd60e51b815260206004820152602660248201527f416464726573733a20696e73756666696369656e742062616c616e636520666f6044820152651c8818d85b1b60d21b6064820152608401610187565b6001600160a01b0385163b612b1f5760405162461bcd60e51b815260206004820152601d60248201527f416464726573733a2063616c6c20746f206e6f6e2d636f6e74726163740000006044820152606401610187565b600080866001600160a01b03168587604051612b3b91906134d9565b60006040518083038185875af1925050503d8060008114612b78576040519150601f19603f3d011682016040523d82523d6000602084013e612b7d565b606091505b5091509150612b8d828286612a2e565b925050505b949350505050565b6001600160a01b03811681146108d557600080fd5b60008060008060808587031215612bc557600080fd5b8435612bd081612b9a565b9350602085013567ffffffffffffffff80821115612bed57600080fd5b818701915087608083011115612c0257600080fd5b90935060408601359080821115612c1857600080fd5b50850160408101871015612c2b57600080fd5b91506060850135612c3b81612b9a565b939692955090935050565b80151581146108d557600080fd5b60008060008060008060c08789031215612c6d57600080fd5b8635612c7881612b9a565b95506020870135945060408701359350606087013592506080870135612c9d81612c46565b915060a0870135612cad81612b9a565b809150509295509295509295565b600060208284031215612ccd57600080fd5b8135612a2781612b9a565b6020808252825182820181905260009190848201906040850190845b81811015612d195783516001600160a01b031683529284019291840191600101612cf4565b50909695505050505050565b60008060008060008060c08789031215612d3e57600080fd5b8635612d4981612b9a565b95506020870135945060408701359350606087013592506080870135915060a0870135612cad81612b9a565b60008060408385031215612d8857600080fd5b8235612d9381612b9a565b91506020830135612da381612b9a565b809150509250929050565b634e487b7160e01b600052604160045260246000fd5b60008060408385031215612dd757600080fd5b8235612de281612b9a565b9150602083013567ffffffffffffffff80821115612dff57600080fd5b818501915085601f830112612e1357600080fd5b813581811115612e2557612e25612dae565b604051601f8201601f19908116603f01168101908382118183101715612e4d57612e4d612dae565b81604052828152886020848701011115612e6657600080fd5b8260208601602083013760006020848301015280955050505050509250929050565b600060208284031215612e9a57600080fd5b5035919050565b600080600080600060a08688031215612eb957600080fd5b8535612ec481612b9a565b94506020860135935060408601359250606086013591506080860135612ee981612b9a565b809150509295509295909350565b600080600080600080600060e0888a031215612f1257600080fd5b8735612f1d81612b9a565b96506020880135955060408801359450606088013593506080880135925060a0880135915060c0880135612f5081612b9a565b8091505092959891949750929550565b60208082526010908201526f14185d5cd8589b194e881c185d5cd95960821b604082015260600190565b600060208284031215612f9c57600080fd5b8151612a2781612c46565b60208082526015908201527410d05313115497d393d517d055551213d492569151605a1b604082015260600190565b600060208284031215612fe857600080fd5b8151612a2781612b9a565b6020808252600f908201526e4641524d5f4e4f545f45584953545360881b604082015260600190565b60008235603e1983360301811261303257600080fd5b90910192915050565b60008260408082018460005b6002811015612d1957848303885261305f828861301c565b8484018135601e1983360301811261307657600080fd5b82018035602067ffffffffffffffff82111561309157600080fd5b8160051b36038513156130a357600080fd5b888852928190529082019160009190606088015b828410156130e75784356130ca81612b9a565b6001600160a01b03168152938101936001939093019281016130b7565b948101359781019790975250505097830197929190910190600101613047565b6080808252600090610100830190830186835b60048110156131e357858403607f19018352613136828a61301c565b60408086018235601e1984360301811261314f57600080fd5b83018035602067ffffffffffffffff82111561316a57600080fd5b8160051b360386131561317c57600080fd5b938952918290526060880192908101916000915b818310156131c25783356131a381612b9a565b6001600160a01b03168552938401939283019260019290920191613190565b9485013598850198909852509095505092830192919091019060010161311a565b50505082810360208401526131f8818661303b565b84516001600160a01b03166040850152602085015160608501529150612b929050565b60006020828403121561322d57600080fd5b5051919050565b95865260208601949094526040850192909252151560608401526001600160a01b0390811660808401521660a082015260c00190565b6000806040838503121561327d57600080fd5b505080516020909101519092909150565b6020808252602c908201527f46756e6374696f6e206d7573742062652063616c6c6564207468726f7567682060408201526b19195b1959d85d1958d85b1b60a21b606082015260800190565b6020808252602c908201527f46756e6374696f6e206d7573742062652063616c6c6564207468726f7567682060408201526b6163746976652070726f787960a01b606082015260800190565b634e487b7160e01b600052603260045260246000fd5b96875260208701959095526040860193909352606085019190915260808401526001600160a01b0390811660a08401521660c082015260e00190565b60008060006060848603121561338d57600080fd5b8351925060208401519150604084015190509250925092565b634e487b7160e01b600052601160045260246000fd5b6000828210156133ce576133ce6133a6565b500390565b6020808252602e908201527f496e697469616c697a61626c653a20636f6e747261637420697320616c72656160408201526d191e481a5b9a5d1a585b1a5e995960921b606082015260800190565b6020808252602b908201527f496e697469616c697a61626c653a20636f6e7472616374206973206e6f74206960408201526a6e697469616c697a696e6760a81b606082015260800190565b6000816000190483118215151615613486576134866133a6565b500290565b6000826134a857634e487b7160e01b600052601260045260246000fd5b500490565b60005b838110156134c85781810151838201526020016134b0565b838111156123995750506000910152565b600082516134eb8184602087016134ad565b9190910192915050565b60208152600082518060208401526135148160408501602087016134ad565b601f01601f1916919091016040019291505056fe360894a13ba1a3210667c828492db98dca3e2076cc3735a920a3ca505d382bbc416464726573733a206c6f772d6c6576656c2064656c65676174652063616c6c206661696c6564a26469706673582212202f3432b54f6c81ee9a1433385d92cea904d7e5903155e6b76f97b75d38d0f79f64736f6c634300080a0033496e697469616c697a61626c653a20636f6e747261637420697320616c726561",
  "immutableReferences": {
    "561": [
      {
        "length": 32,
        "start": 2051
      },
      {
        "length": 32,
        "start": 2115
      },
      {
        "length": 32,
        "start": 4817
      },
      {
        "length": 32,
        "start": 4881
      },
      {
        "length": 32,
        "start": 5397
      }
    ]
  },
  "source": "// SPDX-License-Identifier: MIT\npragma solidity 0.8.10;\n\nimport {IUnoFarmQuickswapDual as Farm} from '../apps/quickswapDual/interfaces/IUnoFarmQuickswapDual.sol'; \nimport '../interfaces/IUnoFarmFactory.sol';\nimport '../interfaces/IUnoAccessManager.sol'; \nimport '../interfaces/IUniswapV2Pair.sol';\nimport '../interfaces/IStakingDualRewards.sol';\nimport '../interfaces/IWMATIC.sol';\nimport '@openzeppelin/contracts-upgradeable/token/ERC20/IERC20Upgradeable.sol';\nimport '@openzeppelin/contracts-upgradeable/token/ERC20/utils/SafeERC20Upgradeable.sol';\nimport '@openzeppelin/contracts-upgradeable/proxy/utils/Initializable.sol';\nimport '@openzeppelin/contracts-upgradeable/security/PausableUpgradeable.sol';\nimport '@openzeppelin/contracts-upgradeable/proxy/utils/UUPSUpgradeable.sol';\n\ncontract UnoAssetRouterQuickswapDualV2 is Initializable, PausableUpgradeable, UUPSUpgradeable {\n    using SafeERC20Upgradeable for IERC20Upgradeable;\n\n    /**\n     * @dev Contract Variables:\n     * farmFactory - The contract that deploys new Farms and links them to {lpStakingPool}s.\n     * accessManager - Role manager contract.\n     */\n    IUnoFarmFactory public farmFactory;\n    IUnoAccessManager public accessManager;\n\n    bytes32 private constant DISTRIBUTOR_ROLE = keccak256('DISTRIBUTOR_ROLE');\n    bytes32 private constant PAUSER_ROLE = keccak256('PAUSER_ROLE');\n\n    uint256 public fee;\n\n    address public constant WMATIC = 0x0d500B1d8E8eF31E21C99d1Db9A6444d3ADf1270;\n\n    uint256 public constant version = 2;\n\n    event Deposit(address indexed lpPool, address indexed sender, address indexed recipient, uint256 amount);\n    event Withdraw(address indexed lpPool, address indexed sender, address indexed recipient, uint256 amount);\n    event Distribute(address indexed lpPool, uint256 reward);\n\n    event FeeChanged(uint256 previousFee, uint256 newFee);\n\n    modifier onlyRole(bytes32 role){\n        require(accessManager.hasRole(role, msg.sender), 'CALLER_NOT_AUTHORIZED');\n        _;\n    }\n\n    // ============ Methods ============\n\n    /// @custom:oz-upgrades-unsafe-allow constructor\n    constructor() {\n        _disableInitializers();\n    }\n\n    function initialize(address _accessManager, address _farmFactory) external initializer{\n        require (_accessManager != address(0), 'BAD_ACCESS_MANAGER');\n        require (_farmFactory != address(0), 'BAD_FARM_FACTORY');\n\n        __Pausable_init();\n        accessManager = IUnoAccessManager(_accessManager);\n        farmFactory = IUnoFarmFactory(_farmFactory);\n    }\n\n    receive() external payable {\n        require(msg.sender == WMATIC, 'ONLY_ACCEPT_WMATIC'); // only accept ETH via fallback from the WMATIC contract\n    }\n\n    /**\n     * @dev Deposits tokens in the given pool. Creates new Farm contract if there isn't one deployed for the {lpStakingPool} and deposits tokens in it. Emits a {Deposit} event.\n     * @param lpStakingPool - Address of the pool to deposit tokens in.\n     * @param amountA  - Token A amount to deposit.\n     * @param amountB -  Token B amount to deposit.\n     * @param amountAMin - Bounds the extent to which the B/A price can go up before the transaction reverts.\n     * @param amountBMin - Bounds the extent to which the A/B price can go up before the transaction reverts.\n     * @param amountLP - Additional LP Token amount to deposit.\n     * @param recipient - Address which will receive the deposit.\n     \n     * @return sentA - Token A amount sent to the farm.\n     * @return sentB - Token B amount sent to the farm.\n     * @return liquidity - Total liquidity sent to the farm (in lpTokens).\n     */\n    function deposit(address lpStakingPool, uint256 amountA, uint256 amountB, uint256 amountAMin, uint256 amountBMin, uint256 amountLP, address recipient) external whenNotPaused returns(uint256 sentA, uint256 sentB, uint256 liquidity){\n        Farm farm = Farm(farmFactory.Farms(lpStakingPool));\n        if(farm == Farm(address(0))){\n            farm = Farm(farmFactory.createFarm(lpStakingPool));\n        }\n\n        if(amountLP > 0){\n            IERC20Upgradeable(farm.lpPair()).safeTransferFrom(msg.sender, address(farm), amountLP);\n        } \n        if(amountA > 0){\n            IERC20Upgradeable(farm.tokenA()).safeTransferFrom(msg.sender, address(farm), amountA);\n        }\n        if(amountB > 0){\n            IERC20Upgradeable(farm.tokenB()).safeTransferFrom(msg.sender, address(farm), amountB);\n        }\n\n        (sentA, sentB, liquidity) = farm.deposit(amountA, amountB, amountAMin, amountBMin, amountLP, msg.sender, recipient);\n        emit Deposit(lpStakingPool, msg.sender, recipient, liquidity); \n    }\n\n    /**\n     * @dev Autoconverts MATIC into WMATIC and deposits tokens in the given pool. Creates new Farm contract if there isn't one deployed for the {lpStakingPool} and deposits tokens in it. Emits a {Deposit} event.\n     * @param lpStakingPool - Address of the pool to deposit tokens in.\n     * @param amountToken  - Token amount to deposit.\n     * @param amountTokenMin - Bounds the extent to which the (TOKEN/WMATIC or TOKEN/WMATIC) price can go up before the transaction reverts.\n     * @param amountETHMin - Minimum amount of Matic to deposit.\n     * @param amountLP - Additional LP Token amount to deposit.\n     * @param recipient - Address which will receive the deposit.\n     \n     * @return sentToken - Token amount sent to the farm.\n     * @return sentETH - WMATIC amount sent to the farm.\n     * @return liquidity - Total liquidity sent to the farm (in lpTokens).\n     */\n    function depositETH(address lpStakingPool, uint256 amountToken, uint256 amountTokenMin, uint256 amountETHMin, uint256 amountLP, address recipient) external payable whenNotPaused returns(uint256 sentToken, uint256 sentETH, uint256 liquidity){\n        require(msg.value > 0, \"NO_MATIC_SENT\");\n        Farm farm = Farm(farmFactory.Farms(lpStakingPool));\n        if(farm == Farm(address(0))){\n            farm = Farm(farmFactory.createFarm(lpStakingPool));\n        }\n\n        if(amountLP > 0){\n            IERC20Upgradeable(farm.lpPair()).safeTransferFrom(msg.sender, address(farm), amountLP);\n        }\n\n        address tokenA = farm.tokenA();\n        address tokenB = farm.tokenB();\n\n        IWMATIC(WMATIC).deposit{value: msg.value}();\n        IERC20Upgradeable(WMATIC).safeTransfer(address(farm), msg.value);\n        if (tokenA == WMATIC) {\n            if (amountToken > 0) {\n                IERC20Upgradeable(tokenB).safeTransferFrom(msg.sender, address(farm), amountToken);\n            }\n            (sentETH, sentToken, liquidity) = farm.deposit(msg.value, amountToken, amountETHMin, amountTokenMin, amountLP, address(this), recipient);\n            IERC20Upgradeable(tokenB).safeTransfer(msg.sender, amountToken - sentToken);\n        } else if (tokenB == WMATIC) {\n            if (amountToken > 0) {\n                IERC20Upgradeable(tokenA).safeTransferFrom(msg.sender, address(farm), amountToken);\n            }\n            (sentToken, sentETH, liquidity) = farm.deposit(amountToken, msg.value, amountTokenMin, amountETHMin, amountLP, address(this), recipient);\n            IERC20Upgradeable(tokenA).safeTransfer(msg.sender, amountToken - sentToken);\n        } else {\n            revert(\"NOT_WMATIC_POOL\");\n        }\n\n        uint256 dust = msg.value - sentETH;\n        if (dust > 0){\n            IWMATIC(WMATIC).withdraw(dust);\n            payable(msg.sender).transfer(dust);\n        }\n        emit Deposit(lpStakingPool, msg.sender, recipient, liquidity);\n    }\n\n    /** \n     * @dev Withdraws tokens from the given pool. Emits a {Withdraw} event.\n     * @param lpStakingPool - LP pool to withdraw from.\n     * @param amount - LP amount to withdraw. \n     * @param amountAMin - The minimum amount of tokenA that must be received for the transaction not to revert.\n     * @param amountBMin - The minimum amount of tokenB that must be received for the transaction not to revert.\n     * @param withdrawLP - True: Withdraw in LP tokens, False: Withdraw in normal tokens.\n     * @param recipient - The address which will receive tokens.\n\n     * @return amountA - Token A amount sent to the {recipient}, 0 if withdrawLP == false.\n     * @return amountB - Token B amount sent to the {recipient}, 0 if withdrawLP == false.\n     */ \n    function withdraw(address lpStakingPool, uint256 amount, uint256 amountAMin, uint256 amountBMin, bool withdrawLP, address recipient) external returns(uint256 amountA, uint256 amountB){\n        Farm farm = Farm(farmFactory.Farms(lpStakingPool));\n        require(farm != Farm(address(0)),'FARM_NOT_EXISTS');\n        \n        (amountA, amountB) = farm.withdraw(amount, amountAMin, amountBMin, withdrawLP, msg.sender, recipient); \n        emit Withdraw(lpStakingPool, msg.sender, recipient, amount);\n    }\n\n    /** \n     * @dev Autoconverts WMATIC into MATIC and withdraws tokens from the pool. Emits a {Withdraw} event.\n     * @param lpStakingPool - LP pool to withdraw from.\n     * @param amount - LP amount to withdraw. \n     * @param amountTokenMin - The minimum amount of token that must be received for the transaction not to revert.\n     * @param amountETHMin - The minimum amount of MATIC that must be received for the transaction not to revert.\n     * @param recipient - The address which will receive tokens.\n\n     * @return amountToken - Token amount sent to the {recipient}.\n     * @return amountETH - MATIC amount sent to the {recipient}.\n     */ \n    function withdrawETH(address lpStakingPool, uint256 amount, uint256 amountTokenMin, uint256 amountETHMin, address recipient) external payable returns(uint256 amountToken, uint256 amountETH){\n        Farm farm = Farm(farmFactory.Farms(lpStakingPool));\n        require(farm != Farm(address(0)),'FARM_NOT_EXISTS');\n\n        address tokenA = farm.tokenA();\n        address tokenB = farm.tokenB();\n\n        if (tokenA == WMATIC) {\n            (amountETH, amountToken) = farm.withdraw(amount, amountETHMin, amountTokenMin, false, msg.sender, address(this));\n            IERC20Upgradeable(tokenB).safeTransfer(recipient, amountToken);\n        } else if (tokenB == WMATIC) {\n            (amountToken, amountETH) = farm.withdraw(amount, amountTokenMin, amountETHMin, false, msg.sender, address(this)); \n            IERC20Upgradeable(tokenA).safeTransfer(recipient, amountToken);\n        } else {\n            revert(\"NOT_WMATIC_POOL\");\n        }\n\n        IWMATIC(WMATIC).withdraw(amountETH);\n        payable(recipient).transfer(amountETH);\n        emit Withdraw(lpStakingPool, msg.sender, recipient, amount);\n    }\n\n     /**\n     * @dev Distributes tokens between users.\n     * @param lpStakingPool - LP pool to distribute tokens in.\n     * @param swapInfos - Arrays of structs with token arrays describing swap routes (rewardTokenAToTokenA, rewardTokenAToTokenB, rewardTokenBToTokenA, rewardTokenBToTokenB) and minimum amounts of output tokens that must be received for the transaction not to revert.\n     * @param feeSwapInfos - Arrays of structs with token arrays describing swap routes (rewardTokenAToFeeToken, rewardTokenBToFeeToken) and minimum amounts of output tokens that must be received for the transaction not to revert.\n     * @param feeTo - Address to collect fees to.\n     *\n     * Note: This function can only be called by the distributor.\n     */ \n    function distribute(\n        address lpStakingPool,\n        Farm.SwapInfo[4] calldata swapInfos,\n        Farm.SwapInfo[2] calldata feeSwapInfos,\n        address feeTo\n    ) external whenNotPaused onlyRole(DISTRIBUTOR_ROLE) {\n        Farm farm = Farm(farmFactory.Farms(lpStakingPool));\n        require(farm != Farm(address(0)), 'FARM_NOT_EXISTS');\n\n        uint256 reward = farm.distribute(swapInfos, feeSwapInfos, Farm.FeeInfo(feeTo, fee));\n        emit Distribute(lpStakingPool, reward);\n    }\n\n    /**\n     * @dev Returns tokens staked by the {_address} for the given {lpStakingPool}.\n     * @param _address - The address to check stakes for.\n     * @param lpStakingPool - LP pool to check stakes in.\n\n     * @return stakeLP - Total user stake(in LP tokens).\n     * @return stakeA - Token A stake.\n     * @return stakeB - Token B stake.\n     */\n    function userStake(address _address, address lpStakingPool) external view returns (uint256 stakeLP, uint256 stakeA, uint256 stakeB) {\n        Farm farm = Farm(farmFactory.Farms(lpStakingPool));\n        if (farm != Farm(address(0))) {\n            stakeLP = farm.userBalance(_address);\n            address lpPair = farm.lpPair();\n            (stakeA, stakeB) = getTokenStake(lpPair, stakeLP);\n        }\n    }\n\n    /**\n     * @dev Returns total amount locked in the pool. Doesn't take pending rewards into account.\n     * @param lpStakingPool - LP pool to check total deposits in.\n\n     * @return totalDepositsLP - Total deposits (in LP tokens).\n     * @return totalDepositsA - Token A deposits.\n     * @return totalDepositsB - Token B deposits.\n     */  \n    function totalDeposits(address lpStakingPool) external view returns (uint256 totalDepositsLP, uint256 totalDepositsA, uint256 totalDepositsB) {\n        Farm farm = Farm(farmFactory.Farms(lpStakingPool));\n        if (farm != Farm(address(0))) {\n            totalDepositsLP = farm.getTotalDeposits();\n            address lpPair = farm.lpPair();\n            (totalDepositsA, totalDepositsB) = getTokenStake(lpPair, totalDepositsLP);\n        }\n    }\n\n    /**\n     * @dev Returns addresses of pair of tokens in {lpStakingPool}.\n     * @param lpStakingPool - LP pool to check tokens in.\n\n     * @return tokens - Tokens addresses.\n     */  \n    function getTokens(address lpStakingPool) external view returns(IERC20[] memory tokens){\n        tokens = new IERC20[](2);\n        IUniswapV2Pair stakingToken = IUniswapV2Pair(address(IStakingDualRewards(lpStakingPool).stakingToken()));\n        tokens[0] = IERC20(stakingToken.token0());\n        tokens[1] = IERC20(stakingToken.token1());\n    }\n\n    /**\n     * @dev Converts LP tokens to normal tokens, value(amountA) == value(amountB) == 0.5*amountLP\n     * @param lpPair - LP pair for conversion.\n     * @param amountLP - Amount of LP tokens to convert.\n\n     * @return amountA - Token A amount.\n     * @return amountB - Token B amount.\n     */ \n    function getTokenStake(address lpPair, uint256 amountLP) internal view returns (uint256 amountA, uint256 amountB) {\n        uint256 totalSupply = IERC20Upgradeable(lpPair).totalSupply();\n        amountA = amountLP * IERC20Upgradeable(IUniswapV2Pair(lpPair).token0()).balanceOf(lpPair) / totalSupply;\n        amountB = amountLP * IERC20Upgradeable(IUniswapV2Pair(lpPair).token1()).balanceOf(lpPair) / totalSupply;\n    }\n\n    /**\n     * @dev Change fee amount.\n     * @param _fee -New fee to collect from farms. [10^18 == 100%]\n     *\n     * Note: This function can only be called by ADMIN_ROLE.\n     */ \n    function setFee(uint256 _fee) external onlyRole(accessManager.ADMIN_ROLE()){\n        require (_fee <= 1 ether, \"BAD_FEE\");\n        if(fee != _fee){\n            emit FeeChanged(fee, _fee); \n            fee = _fee;\n        }\n    }\n\n    function pause() external onlyRole(PAUSER_ROLE) {\n        _pause();\n    }\n\n    function unpause() external onlyRole(PAUSER_ROLE) {\n        _unpause();\n    }\n\n    function _authorizeUpgrade(address) internal override onlyRole(accessManager.ADMIN_ROLE()) {\n\n    }\n}\n",
  "sourcePath": "/home/ilau/projectWork/uno-contracts/contracts/test/UnoAssetRouterQuickswapDualV2.sol",
  "compiler": {
    "name": "solc",
    "version": "0.8.10+commit.fc410830.Emscripten.clang"
  },
  "schemaVersion": "3.4.10",
  "updatedAt": "2022-10-25T20:55:29.671Z",
  "devdoc": {
    "kind": "dev",
    "methods": {
      "constructor": {
        "custom:oz-upgrades-unsafe-allow": "constructor"
      },
      "deposit(address,uint256,uint256,uint256,uint256,uint256,address)": {
        "details": "Deposits tokens in the given pool. Creates new Farm contract if there isn't one deployed for the {lpStakingPool} and deposits tokens in it. Emits a {Deposit} event.",
        "params": {
          "amountA": "- Token A amount to deposit.",
          "amountAMin": "- Bounds the extent to which the B/A price can go up before the transaction reverts.",
          "amountB": "-  Token B amount to deposit.",
          "amountBMin": "- Bounds the extent to which the A/B price can go up before the transaction reverts.",
          "amountLP": "- Additional LP Token amount to deposit.",
          "lpStakingPool": "- Address of the pool to deposit tokens in.",
          "recipient": "- Address which will receive the deposit."
        },
        "returns": {
          "liquidity": "- Total liquidity sent to the farm (in lpTokens).",
          "sentA": "- Token A amount sent to the farm.",
          "sentB": "- Token B amount sent to the farm."
        }
      },
      "depositETH(address,uint256,uint256,uint256,uint256,address)": {
        "details": "Autoconverts MATIC into WMATIC and deposits tokens in the given pool. Creates new Farm contract if there isn't one deployed for the {lpStakingPool} and deposits tokens in it. Emits a {Deposit} event.",
        "params": {
          "amountETHMin": "- Minimum amount of Matic to deposit.",
          "amountLP": "- Additional LP Token amount to deposit.",
          "amountToken": "- Token amount to deposit.",
          "amountTokenMin": "- Bounds the extent to which the (TOKEN/WMATIC or TOKEN/WMATIC) price can go up before the transaction reverts.",
          "lpStakingPool": "- Address of the pool to deposit tokens in.",
          "recipient": "- Address which will receive the deposit."
        },
        "returns": {
          "liquidity": "- Total liquidity sent to the farm (in lpTokens).",
          "sentETH": "- WMATIC amount sent to the farm.",
          "sentToken": "- Token amount sent to the farm."
        }
      },
      "distribute(address,(address[],uint256)[4],(address[],uint256)[2],address)": {
        "details": "Distributes tokens between users.",
        "params": {
          "feeSwapInfos": "- Arrays of structs with token arrays describing swap routes (rewardTokenAToFeeToken, rewardTokenBToFeeToken) and minimum amounts of output tokens that must be received for the transaction not to revert.",
          "feeTo": "- Address to collect fees to. Note: This function can only be called by the distributor.",
          "lpStakingPool": "- LP pool to distribute tokens in.",
          "swapInfos": "- Arrays of structs with token arrays describing swap routes (rewardTokenAToTokenA, rewardTokenAToTokenB, rewardTokenBToTokenA, rewardTokenBToTokenB) and minimum amounts of output tokens that must be received for the transaction not to revert."
        }
      },
      "getTokens(address)": {
        "details": "Returns addresses of pair of tokens in {lpStakingPool}.",
        "params": {
          "lpStakingPool": "- LP pool to check tokens in."
        },
        "returns": {
          "tokens": "- Tokens addresses."
        }
      },
      "paused()": {
        "details": "Returns true if the contract is paused, and false otherwise."
      },
      "proxiableUUID()": {
        "details": "Implementation of the ERC1822 {proxiableUUID} function. This returns the storage slot used by the implementation. It is used to validate that the this implementation remains valid after an upgrade. IMPORTANT: A proxy pointing at a proxiable contract should not be considered proxiable itself, because this risks bricking a proxy that upgrades to it, by delegating to itself until out of gas. Thus it is critical that this function revert if invoked through a proxy. This is guaranteed by the `notDelegated` modifier."
      },
      "setFee(uint256)": {
        "details": "Change fee amount.",
        "params": {
          "_fee": "-New fee to collect from farms. [10^18 == 100%] Note: This function can only be called by ADMIN_ROLE."
        }
      },
      "totalDeposits(address)": {
        "details": "Returns total amount locked in the pool. Doesn't take pending rewards into account.",
        "params": {
          "lpStakingPool": "- LP pool to check total deposits in."
        },
        "returns": {
          "totalDepositsA": "- Token A deposits.",
          "totalDepositsB": "- Token B deposits.",
          "totalDepositsLP": "- Total deposits (in LP tokens)."
        }
      },
      "upgradeTo(address)": {
        "details": "Upgrade the implementation of the proxy to `newImplementation`. Calls {_authorizeUpgrade}. Emits an {Upgraded} event."
      },
      "upgradeToAndCall(address,bytes)": {
        "details": "Upgrade the implementation of the proxy to `newImplementation`, and subsequently execute the function call encoded in `data`. Calls {_authorizeUpgrade}. Emits an {Upgraded} event."
      },
      "userStake(address,address)": {
        "details": "Returns tokens staked by the {_address} for the given {lpStakingPool}.",
        "params": {
          "_address": "- The address to check stakes for.",
          "lpStakingPool": "- LP pool to check stakes in."
        },
        "returns": {
          "stakeA": "- Token A stake.",
          "stakeB": "- Token B stake.",
          "stakeLP": "- Total user stake(in LP tokens)."
        }
      },
      "withdraw(address,uint256,uint256,uint256,bool,address)": {
        "details": "Withdraws tokens from the given pool. Emits a {Withdraw} event.",
        "params": {
          "amount": "- LP amount to withdraw. ",
          "amountAMin": "- The minimum amount of tokenA that must be received for the transaction not to revert.",
          "amountBMin": "- The minimum amount of tokenB that must be received for the transaction not to revert.",
          "lpStakingPool": "- LP pool to withdraw from.",
          "recipient": "- The address which will receive tokens.",
          "withdrawLP": "- True: Withdraw in LP tokens, False: Withdraw in normal tokens."
        },
        "returns": {
          "amountA": "- Token A amount sent to the {recipient}, 0 if withdrawLP == false.",
          "amountB": "- Token B amount sent to the {recipient}, 0 if withdrawLP == false."
        }
      },
      "withdrawETH(address,uint256,uint256,uint256,address)": {
        "details": "Autoconverts WMATIC into MATIC and withdraws tokens from the pool. Emits a {Withdraw} event.",
        "params": {
          "amount": "- LP amount to withdraw. ",
          "amountETHMin": "- The minimum amount of MATIC that must be received for the transaction not to revert.",
          "amountTokenMin": "- The minimum amount of token that must be received for the transaction not to revert.",
          "lpStakingPool": "- LP pool to withdraw from.",
          "recipient": "- The address which will receive tokens."
        },
        "returns": {
          "amountETH": "- MATIC amount sent to the {recipient}.",
          "amountToken": "- Token amount sent to the {recipient}."
        }
      }
    },
    "stateVariables": {
      "farmFactory": {
        "details": "Contract Variables: farmFactory - The contract that deploys new Farms and links them to {lpStakingPool}s. accessManager - Role manager contract."
      }
    },
    "version": 1
  },
  "userdoc": {
    "kind": "user",
    "methods": {},
    "version": 1
  }
}