{
  "contractName": "UnoAssetRouterBalancer",
  "abi": [
    {
      "inputs": [],
      "stateMutability": "nonpayable",
      "type": "constructor"
    },
    {
      "inputs": [],
      "name": "CALLER_NOT_AUTHORIZED",
      "type": "error"
    },
    {
      "inputs": [],
      "name": "ETH_DEPOSIT_REJECTED",
      "type": "error"
    },
    {
      "inputs": [],
      "name": "FARM_NOT_EXISTS",
      "type": "error"
    },
    {
      "inputs": [],
      "name": "INPUT_PARAMS_LENGTHS_NOT_MATCH",
      "type": "error"
    },
    {
      "inputs": [],
      "name": "INSUFFICIENT_AMOUNT",
      "type": "error"
    },
    {
      "inputs": [],
      "name": "INVALID_ACCESS_MANAGER",
      "type": "error"
    },
    {
      "inputs": [],
      "name": "INVALID_FARM_FACTORY",
      "type": "error"
    },
    {
      "inputs": [],
      "name": "INVALID_MSG_VALUE",
      "type": "error"
    },
    {
      "inputs": [],
      "name": "INVALID_SWAP_DESCRIPTION",
      "type": "error"
    },
    {
      "inputs": [
        {
          "internalType": "uint256",
          "name": "correctTokensLength",
          "type": "uint256"
        }
      ],
      "name": "INVALID_TOKENS_LENGTH",
      "type": "error"
    },
    {
      "inputs": [
        {
          "internalType": "uint256",
          "name": "maxFee",
          "type": "uint256"
        }
      ],
      "name": "MAX_FEE_EXCEEDED",
      "type": "error"
    },
    {
      "inputs": [],
      "name": "NOT_ETH_FARM",
      "type": "error"
    },
    {
      "inputs": [],
      "name": "NO_LIQUIDITY_PROVIDED",
      "type": "error"
    },
    {
      "inputs": [],
      "name": "NO_TOKENS_SENT",
      "type": "error"
    },
    {
      "inputs": [],
      "name": "SWAP_NOT_SUCCESSFUL",
      "type": "error"
    },
    {
      "inputs": [
        {
          "internalType": "uint256",
          "name": "index",
          "type": "uint256"
        }
      ],
      "name": "TOKENS_NOT_MATCH_POOL_TOKENS",
      "type": "error"
    },
    {
      "inputs": [],
      "name": "TRANSFER_NOT_SUCCESSFUL",
      "type": "error"
    },
    {
      "anonymous": false,
      "inputs": [
        {
          "indexed": false,
          "internalType": "address",
          "name": "previousAdmin",
          "type": "address"
        },
        {
          "indexed": false,
          "internalType": "address",
          "name": "newAdmin",
          "type": "address"
        }
      ],
      "name": "AdminChanged",
      "type": "event"
    },
    {
      "anonymous": false,
      "inputs": [
        {
          "indexed": true,
          "internalType": "address",
          "name": "beacon",
          "type": "address"
        }
      ],
      "name": "BeaconUpgraded",
      "type": "event"
    },
    {
      "anonymous": false,
      "inputs": [
        {
          "indexed": true,
          "internalType": "address",
          "name": "lpPool",
          "type": "address"
        },
        {
          "indexed": true,
          "internalType": "address",
          "name": "sender",
          "type": "address"
        },
        {
          "indexed": true,
          "internalType": "address",
          "name": "recipient",
          "type": "address"
        },
        {
          "indexed": false,
          "internalType": "uint256",
          "name": "amount",
          "type": "uint256"
        }
      ],
      "name": "Deposit",
      "type": "event"
    },
    {
      "anonymous": false,
      "inputs": [
        {
          "indexed": true,
          "internalType": "address",
          "name": "lpPool",
          "type": "address"
        },
        {
          "indexed": false,
          "internalType": "uint256",
          "name": "reward",
          "type": "uint256"
        }
      ],
      "name": "Distribute",
      "type": "event"
    },
    {
      "anonymous": false,
      "inputs": [
        {
          "indexed": false,
          "internalType": "uint256",
          "name": "previousFee",
          "type": "uint256"
        },
        {
          "indexed": false,
          "internalType": "uint256",
          "name": "newFee",
          "type": "uint256"
        }
      ],
      "name": "FeeChanged",
      "type": "event"
    },
    {
      "anonymous": false,
      "inputs": [
        {
          "indexed": false,
          "internalType": "uint8",
          "name": "version",
          "type": "uint8"
        }
      ],
      "name": "Initialized",
      "type": "event"
    },
    {
      "anonymous": false,
      "inputs": [
        {
          "indexed": false,
          "internalType": "address",
          "name": "account",
          "type": "address"
        }
      ],
      "name": "Paused",
      "type": "event"
    },
    {
      "anonymous": false,
      "inputs": [
        {
          "indexed": false,
          "internalType": "address",
          "name": "account",
          "type": "address"
        }
      ],
      "name": "Unpaused",
      "type": "event"
    },
    {
      "anonymous": false,
      "inputs": [
        {
          "indexed": true,
          "internalType": "address",
          "name": "implementation",
          "type": "address"
        }
      ],
      "name": "Upgraded",
      "type": "event"
    },
    {
      "anonymous": false,
      "inputs": [
        {
          "indexed": true,
          "internalType": "address",
          "name": "lpPool",
          "type": "address"
        },
        {
          "indexed": true,
          "internalType": "address",
          "name": "sender",
          "type": "address"
        },
        {
          "indexed": true,
          "internalType": "address",
          "name": "recipient",
          "type": "address"
        },
        {
          "indexed": false,
          "internalType": "uint256",
          "name": "amount",
          "type": "uint256"
        }
      ],
      "name": "Withdraw",
      "type": "event"
    },
    {
      "inputs": [],
      "name": "WMATIC",
      "outputs": [
        {
          "internalType": "address",
          "name": "",
          "type": "address"
        }
      ],
      "stateMutability": "view",
      "type": "function",
      "constant": true
    },
    {
      "inputs": [],
      "name": "accessManager",
      "outputs": [
        {
          "internalType": "contract IUnoAccessManager",
          "name": "",
          "type": "address"
        }
      ],
      "stateMutability": "view",
      "type": "function",
      "constant": true
    },
    {
      "inputs": [],
      "name": "farmFactory",
      "outputs": [
        {
          "internalType": "contract IUnoFarmFactory",
          "name": "",
          "type": "address"
        }
      ],
      "stateMutability": "view",
      "type": "function",
      "constant": true
    },
    {
      "inputs": [],
      "name": "fee",
      "outputs": [
        {
          "internalType": "uint256",
          "name": "",
          "type": "uint256"
        }
      ],
      "stateMutability": "view",
      "type": "function",
      "constant": true
    },
    {
      "inputs": [],
      "name": "paused",
      "outputs": [
        {
          "internalType": "bool",
          "name": "",
          "type": "bool"
        }
      ],
      "stateMutability": "view",
      "type": "function",
      "constant": true
    },
    {
      "inputs": [],
      "name": "proxiableUUID",
      "outputs": [
        {
          "internalType": "bytes32",
          "name": "",
          "type": "bytes32"
        }
      ],
      "stateMutability": "view",
      "type": "function",
      "constant": true
    },
    {
      "inputs": [
        {
          "internalType": "address",
          "name": "newImplementation",
          "type": "address"
        }
      ],
      "name": "upgradeTo",
      "outputs": [],
      "stateMutability": "nonpayable",
      "type": "function"
    },
    {
      "inputs": [
        {
          "internalType": "address",
          "name": "newImplementation",
          "type": "address"
        },
        {
          "internalType": "bytes",
          "name": "data",
          "type": "bytes"
        }
      ],
      "name": "upgradeToAndCall",
      "outputs": [],
      "stateMutability": "payable",
      "type": "function",
      "payable": true
    },
    {
      "stateMutability": "payable",
      "type": "receive",
      "payable": true
    },
    {
      "inputs": [
        {
          "internalType": "address",
          "name": "_accessManager",
          "type": "address"
        },
        {
          "internalType": "address",
          "name": "_farmFactory",
          "type": "address"
        }
      ],
      "name": "initialize",
      "outputs": [],
      "stateMutability": "nonpayable",
      "type": "function"
    },
    {
      "inputs": [
        {
          "internalType": "address",
          "name": "lpPool",
          "type": "address"
        },
        {
          "internalType": "uint256[]",
          "name": "amounts",
          "type": "uint256[]"
        },
        {
          "internalType": "address[]",
          "name": "tokens",
          "type": "address[]"
        },
        {
          "internalType": "uint256",
          "name": "minAmountLP",
          "type": "uint256"
        },
        {
          "internalType": "address",
          "name": "recipient",
          "type": "address"
        }
      ],
      "name": "deposit",
      "outputs": [
        {
          "internalType": "uint256",
          "name": "liquidity",
          "type": "uint256"
        }
      ],
      "stateMutability": "nonpayable",
      "type": "function"
    },
    {
      "inputs": [
        {
          "internalType": "address",
          "name": "lpPool",
          "type": "address"
        },
        {
          "internalType": "uint256[]",
          "name": "amounts",
          "type": "uint256[]"
        },
        {
          "internalType": "address[]",
          "name": "tokens",
          "type": "address[]"
        },
        {
          "internalType": "uint256",
          "name": "minAmountLP",
          "type": "uint256"
        },
        {
          "internalType": "address",
          "name": "recipient",
          "type": "address"
        }
      ],
      "name": "depositETH",
      "outputs": [
        {
          "internalType": "uint256",
          "name": "liquidity",
          "type": "uint256"
        }
      ],
      "stateMutability": "payable",
      "type": "function",
      "payable": true
    },
    {
      "inputs": [
        {
          "internalType": "address",
          "name": "lpPool",
          "type": "address"
        },
        {
          "internalType": "bytes[]",
          "name": "swapData",
          "type": "bytes[]"
        },
        {
          "internalType": "uint256",
          "name": "minAmountLP",
          "type": "uint256"
        },
        {
          "internalType": "address",
          "name": "recipient",
          "type": "address"
        }
      ],
      "name": "depositWithSwap",
      "outputs": [
        {
          "internalType": "uint256[]",
          "name": "sent",
          "type": "uint256[]"
        },
        {
          "internalType": "uint256",
          "name": "liquidity",
          "type": "uint256"
        }
      ],
      "stateMutability": "payable",
      "type": "function",
      "payable": true
    },
    {
      "inputs": [
        {
          "internalType": "address",
          "name": "lpPool",
          "type": "address"
        },
        {
          "internalType": "uint256",
          "name": "amount",
          "type": "uint256"
        },
        {
          "internalType": "address",
          "name": "recipient",
          "type": "address"
        }
      ],
      "name": "depositLP",
      "outputs": [],
      "stateMutability": "nonpayable",
      "type": "function"
    },
    {
      "inputs": [
        {
          "internalType": "address",
          "name": "lpPool",
          "type": "address"
        },
        {
          "internalType": "bytes",
          "name": "userData",
          "type": "bytes"
        },
        {
          "internalType": "uint256[]",
          "name": "minAmountsOut",
          "type": "uint256[]"
        },
        {
          "internalType": "address",
          "name": "recipient",
          "type": "address"
        }
      ],
      "name": "withdraw",
      "outputs": [
        {
          "internalType": "uint256[]",
          "name": "amounts",
          "type": "uint256[]"
        },
        {
          "internalType": "uint256",
          "name": "liquidity",
          "type": "uint256"
        }
      ],
      "stateMutability": "nonpayable",
      "type": "function"
    },
    {
      "inputs": [
        {
          "internalType": "address",
          "name": "lpPool",
          "type": "address"
        },
        {
          "internalType": "bytes",
          "name": "userData",
          "type": "bytes"
        },
        {
          "internalType": "uint256[]",
          "name": "minAmountsOut",
          "type": "uint256[]"
        },
        {
          "internalType": "address",
          "name": "recipient",
          "type": "address"
        }
      ],
      "name": "withdrawETH",
      "outputs": [
        {
          "internalType": "uint256[]",
          "name": "amounts",
          "type": "uint256[]"
        },
        {
          "internalType": "uint256",
          "name": "liquidity",
          "type": "uint256"
        }
      ],
      "stateMutability": "nonpayable",
      "type": "function"
    },
    {
      "inputs": [
        {
          "internalType": "address",
          "name": "lpPool",
          "type": "address"
        },
        {
          "internalType": "bytes",
          "name": "userData",
          "type": "bytes"
        },
        {
          "internalType": "bytes[]",
          "name": "swapData",
          "type": "bytes[]"
        },
        {
          "internalType": "address",
          "name": "recipient",
          "type": "address"
        }
      ],
      "name": "withdrawWithSwap",
      "outputs": [
        {
          "internalType": "uint256[]",
          "name": "amounts",
          "type": "uint256[]"
        },
        {
          "internalType": "uint256[]",
          "name": "dust",
          "type": "uint256[]"
        },
        {
          "internalType": "uint256",
          "name": "liquidity",
          "type": "uint256"
        }
      ],
      "stateMutability": "nonpayable",
      "type": "function"
    },
    {
      "inputs": [
        {
          "internalType": "address",
          "name": "lpPool",
          "type": "address"
        },
        {
          "internalType": "uint256",
          "name": "amount",
          "type": "uint256"
        },
        {
          "internalType": "address",
          "name": "recipient",
          "type": "address"
        }
      ],
      "name": "withdrawLP",
      "outputs": [],
      "stateMutability": "nonpayable",
      "type": "function"
    },
    {
      "inputs": [
        {
          "internalType": "address",
          "name": "lpPool",
          "type": "address"
        },
        {
          "components": [
            {
              "components": [
                {
                  "internalType": "bytes32",
                  "name": "poolId",
                  "type": "bytes32"
                },
                {
                  "internalType": "uint256",
                  "name": "assetInIndex",
                  "type": "uint256"
                },
                {
                  "internalType": "uint256",
                  "name": "assetOutIndex",
                  "type": "uint256"
                },
                {
                  "internalType": "uint256",
                  "name": "amount",
                  "type": "uint256"
                },
                {
                  "internalType": "bytes",
                  "name": "userData",
                  "type": "bytes"
                }
              ],
              "internalType": "struct IVault.BatchSwapStep[]",
              "name": "swaps",
              "type": "tuple[]"
            },
            {
              "internalType": "contract IERC20[]",
              "name": "assets",
              "type": "address[]"
            },
            {
              "internalType": "int256[]",
              "name": "limits",
              "type": "int256[]"
            }
          ],
          "internalType": "struct IUnoFarmBalancer.SwapInfo[]",
          "name": "swapInfos",
          "type": "tuple[]"
        },
        {
          "components": [
            {
              "components": [
                {
                  "internalType": "bytes32",
                  "name": "poolId",
                  "type": "bytes32"
                },
                {
                  "internalType": "uint256",
                  "name": "assetInIndex",
                  "type": "uint256"
                },
                {
                  "internalType": "uint256",
                  "name": "assetOutIndex",
                  "type": "uint256"
                },
                {
                  "internalType": "uint256",
                  "name": "amount",
                  "type": "uint256"
                },
                {
                  "internalType": "bytes",
                  "name": "userData",
                  "type": "bytes"
                }
              ],
              "internalType": "struct IVault.BatchSwapStep[]",
              "name": "swaps",
              "type": "tuple[]"
            },
            {
              "internalType": "contract IERC20[]",
              "name": "assets",
              "type": "address[]"
            },
            {
              "internalType": "int256[]",
              "name": "limits",
              "type": "int256[]"
            }
          ],
          "internalType": "struct IUnoFarmBalancer.SwapInfo[]",
          "name": "feeSwapInfos",
          "type": "tuple[]"
        },
        {
          "internalType": "address",
          "name": "feeTo",
          "type": "address"
        }
      ],
      "name": "distribute",
      "outputs": [
        {
          "internalType": "uint256",
          "name": "reward",
          "type": "uint256"
        }
      ],
      "stateMutability": "nonpayable",
      "type": "function"
    },
    {
      "inputs": [
        {
          "internalType": "address",
          "name": "_address",
          "type": "address"
        },
        {
          "internalType": "address",
          "name": "lpPool",
          "type": "address"
        }
      ],
      "name": "userStake",
      "outputs": [
        {
          "internalType": "uint256",
          "name": "",
          "type": "uint256"
        }
      ],
      "stateMutability": "view",
      "type": "function",
      "constant": true
    },
    {
      "inputs": [
        {
          "internalType": "address",
          "name": "lpPool",
          "type": "address"
        }
      ],
      "name": "totalDeposits",
      "outputs": [
        {
          "internalType": "uint256",
          "name": "",
          "type": "uint256"
        }
      ],
      "stateMutability": "view",
      "type": "function",
      "constant": true
    },
    {
      "inputs": [
        {
          "internalType": "address",
          "name": "lpPool",
          "type": "address"
        }
      ],
      "name": "getTokens",
      "outputs": [
        {
          "internalType": "contract IERC20[]",
          "name": "tokens",
          "type": "address[]"
        }
      ],
      "stateMutability": "view",
      "type": "function",
      "constant": true
    },
    {
      "inputs": [
        {
          "internalType": "uint256",
          "name": "_fee",
          "type": "uint256"
        }
      ],
      "name": "setFee",
      "outputs": [],
      "stateMutability": "nonpayable",
      "type": "function"
    },
    {
      "inputs": [],
      "name": "pause",
      "outputs": [],
      "stateMutability": "nonpayable",
      "type": "function"
    },
    {
      "inputs": [],
      "name": "unpause",
      "outputs": [],
      "stateMutability": "nonpayable",
      "type": "function"
    }
  ],
  "bytecode": "0x60a0604052306080523480156200001557600080fd5b506200002062000026565b62000156565b6200003260ff62000035565b50565b60008054610100900460ff1615620000ce578160ff1660011480156200006e57506200006c306200014760201b620027211760201c565b155b620000c65760405162461bcd60e51b815260206004820152602e60248201526000805160206200501083398151915260448201526d191e481a5b9a5d1a585b1a5e995960921b60648201526084015b60405180910390fd5b506000919050565b60005460ff8084169116106200012d5760405162461bcd60e51b815260206004820152602e60248201526000805160206200501083398151915260448201526d191e481a5b9a5d1a585b1a5e995960921b6064820152608401620000bd565b506000805460ff191660ff92909216919091179055600190565b6001600160a01b03163b151590565b608051614e826200018e600039600081816107bc0152818161080501528181610d3001528181610d700152610f040152614e826000f3fe60806040526004361061014f5760003560e01c80636d25e175116100b6578063e50e63711161006f578063e50e6371146103db578063e9403256146103fb578063e9b72ac71461041b578063f1d446211461043b578063f597b3821461044e578063fdcb60681461046e57600080fd5b80636d25e1751461032f5780638456cb591461034f5780638463b4ce14610364578063d280b94114610384578063d9e3f920146103a4578063ddca3f43146103c557600080fd5b80634d95cad9116101085780634d95cad9146102565780634f1ef2861461029657806351bdca3e146102a957806352d1902d146102d75780635c975abb146102ec57806369fe0e2d1461030f57600080fd5b806323c3ea7f1461017c5780633659cfe6146101b45780633f4ba83a146101d4578063450efe21146101e957806346dafa2f14610216578063485cc9551461023657600080fd5b36610177573332141561017557604051635a5e184160e11b815260040160405180910390fd5b005b600080fd5b34801561018857600080fd5b5061019c610197366004613e73565b61048e565b6040516101ab93929190613f42565b60405180910390f35b3480156101c057600080fd5b506101756101cf366004613f78565b6107b1565b3480156101e057600080fd5b5061017561089a565b3480156101f557600080fd5b50610209610204366004613f78565b610952565b6040516101ab9190613f95565b34801561022257600080fd5b50610175610231366004613fe2565b610a3d565b34801561024257600080fd5b50610175610251366004614024565b610c31565b34801561026257600080fd5b5061027e730d500b1d8e8ef31e21c99d1db9a6444d3adf127081565b6040516001600160a01b0390911681526020016101ab565b6101756102a436600461413a565b610d25565b3480156102b557600080fd5b506102c96102c4366004614024565b610df6565b6040519081526020016101ab565b3480156102e357600080fd5b506102c9610ef7565b3480156102f857600080fd5b5060335460ff1660405190151581526020016101ab565b34801561031b57600080fd5b5061017561032a366004614189565b610faa565b34801561033b57600080fd5b5060c95461027e906001600160a01b031681565b34801561035b57600080fd5b5061017561112f565b34801561037057600080fd5b506102c961037f3660046141c5565b6111e7565b34801561039057600080fd5b506102c961039f3660046142b5565b611580565b6103b76103b2366004614301565b6117cf565b6040516101ab929190614374565b3480156103d157600080fd5b506102c960cb5481565b3480156103e757600080fd5b506101756103f6366004613fe2565b611bc1565b34801561040757600080fd5b506102c9610416366004613f78565b611cfe565b34801561042757600080fd5b506103b7610436366004613e73565b611df3565b6102c96104493660046141c5565b612135565b34801561045a57600080fd5b506103b7610469366004613e73565b6125c2565b34801561047a57600080fd5b5060ca5461027e906001600160a01b031681565b60c95460405163f9d9331d60e01b81526001600160a01b03888116600483015260609283926000928392169063f9d9331d90602401602060405180830381865afa1580156104e0573d6000803e3d6000fd5b505050506040513d601f19601f820116820180604052508101906105049190614396565b90506001600160a01b03811661052d5760405163331fd83f60e11b815260040160405180910390fd5b600061054061053b8c610952565b612730565b805190915087146105645760405163e496fd6160e01b815260040160405180910390fd5b80516001600160401b0381111561057d5761057d61405d565b6040519080825280602002602001820160405280156105a6578160200160208202803683370190505b50935080516001600160401b038111156105c2576105c261405d565b6040519080825280602002602001820160405280156105eb578160200160208202803683370190505b50604051630f1bcec360e41b81529095506001600160a01b0383169063f1bcec3090610623908d908d908a90339030906004016143dc565b6000604051808303816000875af1158015610642573d6000803e3d6000fd5b505050506040513d6000823e601f3d908101601f1916820160405261066a919081019061448e565b909550925060005b815181101561075d5785818151811061068d5761068d6144d4565b6020026020010151600014156106a25761074b565b6000806107068b8b858181106106ba576106ba6144d4565b90506020028101906106cc91906144ea565b8686815181106106de576106de6144d4565b60200260200101518b87815181106106f8576106f86144d4565b60200260200101518d6127df565b915091508188848151811061071d5761071d6144d4565b6020026020010181815250508087848151811061073c5761073c6144d4565b60200260200101818152505050505b8061075581614546565b915050610672565b50856001600160a01b0316336001600160a01b03168c6001600160a01b0316600080516020614dc68339815191528660405161079b91815260200190565b60405180910390a4505096509650969350505050565b306001600160a01b037f00000000000000000000000000000000000000000000000000000000000000001614156108035760405162461bcd60e51b81526004016107fa90614561565b60405180910390fd5b7f00000000000000000000000000000000000000000000000000000000000000006001600160a01b031661084c600080516020614de6833981519152546001600160a01b031690565b6001600160a01b0316146108725760405162461bcd60e51b81526004016107fa906145ad565b61087b81612a77565b6040805160008082526020820190925261089791839190612b7e565b50565b60ca54604051632474521560e21b81527f65d7a28e3265b37a6474929f336521b332c1681b933f6cb9f3376673440d862a60048201819052336024830152916001600160a01b0316906391d1485490604401602060405180830381865afa158015610909573d6000803e3d6000fd5b505050506040513d601f19601f8201168201806040525081019061092d91906145f9565b61094a576040516365bc1f8360e11b815260040160405180910390fd5b610897612ce9565b60606000826001600160a01b03166338fff2d06040518163ffffffff1660e01b8152600401602060405180830381865afa158015610994573d6000803e3d6000fd5b505050506040513d601f19601f820116820180604052508101906109b8919061461b565b604051631f29a8cd60e31b81526004810182905290915073ba12222222228d8ba445958a75a0704d566bf2c89063f94d466890602401600060405180830381865afa158015610a0b573d6000803e3d6000fd5b505050506040513d6000823e601f3d908101601f19168201604052610a339190810190614634565b5090949350505050565b60335460ff1615610a605760405162461bcd60e51b81526004016107fa90614701565b81610a7e5760405163d7eb47e360e01b815260040160405180910390fd5b60c95460405163f9d9331d60e01b81526001600160a01b038581166004830152600092169063f9d9331d90602401602060405180830381865afa158015610ac9573d6000803e3d6000fd5b505050506040513d601f19601f82011682018060405250810190610aed9190614396565b90506001600160a01b038116610b6f5760c954604051621849e360e61b81526001600160a01b0386811660048301529091169063061278c0906024016020604051808303816000875af1158015610b48573d6000803e3d6000fd5b505050506040513d601f19601f82011682018060405250810190610b6c9190614396565b90505b610b846001600160a01b038516338386612d7c565b604051636e553f6560e01b8152600481018490526001600160a01b038381166024830152821690636e553f6590604401600060405180830381600087803b158015610bce57600080fd5b505af1158015610be2573d6000803e3d6000fd5b50505050816001600160a01b0316336001600160a01b0316856001600160a01b0316600080516020614e0683398151915286604051610c2391815260200190565b60405180910390a450505050565b6000610c3d6001612ded565b90508015610c55576000805461ff0019166101001790555b6001600160a01b038316610c7c5760405163731df12960e11b815260040160405180910390fd5b6001600160a01b038216610ca25760405162c8b7fd60e21b815260040160405180910390fd5b610caa612e7a565b60ca80546001600160a01b038086166001600160a01b03199283161790925560c98054928516929091169190911790558015610d20576000805461ff0019169055604051600181527f7f26b83ff96e1f2b6a682f133852f6798a09c465da95921460cefb38474024989060200160405180910390a15b505050565b306001600160a01b037f0000000000000000000000000000000000000000000000000000000000000000161415610d6e5760405162461bcd60e51b81526004016107fa90614561565b7f00000000000000000000000000000000000000000000000000000000000000006001600160a01b0316610db7600080516020614de6833981519152546001600160a01b031690565b6001600160a01b031614610ddd5760405162461bcd60e51b81526004016107fa906145ad565b610de682612a77565b610df282826001612b7e565b5050565b60c95460405163f9d9331d60e01b81526001600160a01b038381166004830152600092839291169063f9d9331d90602401602060405180830381865afa158015610e44573d6000803e3d6000fd5b505050506040513d601f19601f82011682018060405250810190610e689190614396565b90506001600160a01b03811615610eeb57604051630103c92b60e01b81526001600160a01b038581166004830152821690630103c92b90602401602060405180830381865afa158015610ebf573d6000803e3d6000fd5b505050506040513d601f19601f82011682018060405250810190610ee3919061461b565b915050610ef1565b60009150505b92915050565b6000306001600160a01b037f00000000000000000000000000000000000000000000000000000000000000001614610f975760405162461bcd60e51b815260206004820152603860248201527f555550535570677261646561626c653a206d757374206e6f742062652063616c60448201527f6c6564207468726f7567682064656c656761746563616c6c000000000000000060648201526084016107fa565b50600080516020614de683398151915290565b60ca60009054906101000a90046001600160a01b03166001600160a01b03166375b238fc6040518163ffffffff1660e01b8152600401602060405180830381865afa158015610ffd573d6000803e3d6000fd5b505050506040513d601f19601f82011682018060405250810190611021919061461b565b60ca54604051632474521560e21b8152600481018390523360248201526001600160a01b03909116906391d1485490604401602060405180830381865afa158015611070573d6000803e3d6000fd5b505050506040513d601f19601f8201168201806040525081019061109491906145f9565b6110b1576040516365bc1f8360e11b815260040160405180910390fd5b670de0b6b3a76400008211156110e45760405163704894fb60e11b8152670de0b6b3a764000060048201526024016107fa565b8160cb5414610df25760cb5460408051918252602082018490527f5fc463da23c1b063e66f9e352006a7fbe8db7223c455dc429e881a2dfe2f94f1910160405180910390a15060cb55565b60ca54604051632474521560e21b81527f65d7a28e3265b37a6474929f336521b332c1681b933f6cb9f3376673440d862a60048201819052336024830152916001600160a01b0316906391d1485490604401602060405180830381865afa15801561119e573d6000803e3d6000fd5b505050506040513d601f19601f820116820180604052508101906111c291906145f9565b6111df576040516365bc1f8360e11b815260040160405180910390fd5b610897612eab565b60006111f560335460ff1690565b156112125760405162461bcd60e51b81526004016107fa90614701565b855184146112335760405163e496fd6160e01b815260040160405180910390fd5b60c95460405163f9d9331d60e01b81526001600160a01b038981166004830152600092169063f9d9331d90602401602060405180830381865afa15801561127e573d6000803e3d6000fd5b505050506040513d601f19601f820116820180604052508101906112a29190614396565b90506001600160a01b0381166113245760c954604051621849e360e61b81526001600160a01b038a811660048301529091169063061278c0906024016020604051808303816000875af11580156112fd573d6000803e3d6000fd5b505050506040513d601f19601f820116820180604052508101906113219190614396565b90505b6000816001600160a01b0316633e0dc34e6040518163ffffffff1660e01b8152600401602060405180830381865afa158015611364573d6000803e3d6000fd5b505050506040513d601f19601f82011682018060405250810190611388919061461b565b9050611395878783612f03565b60005b868110156114855760008982815181106113b4576113b46144d4565b6020026020010151111561147357896001600160a01b03168888838181106113de576113de6144d4565b90506020020160208101906113f39190613f78565b6001600160a01b0316141561141c57888181518110611414576114146144d4565b506114739050565b61147333308b8481518110611433576114336144d4565b60200260200101518b8b8681811061144d5761144d6144d4565b90506020020160208101906114629190613f78565b6001600160a01b0316929190612d7c565b8061147d81614546565b915050611398565b506114c9888888808060200260200160405190810160405280939291908181526020018383602002808284376000920191909152508a92508e915086905087613041565b604051636e553f6560e01b8152600481018290526001600160a01b03868116602483015291945090831690636e553f6590604401600060405180830381600087803b15801561151757600080fd5b505af115801561152b573d6000803e3d6000fd5b50505050836001600160a01b0316336001600160a01b03168a6001600160a01b0316600080516020614e068339815191528660405161156c91815260200190565b60405180910390a450509695505050505050565b600061158e60335460ff1690565b156115ab5760405162461bcd60e51b81526004016107fa90614701565b60ca54604051632474521560e21b81527ffbd454f36a7e1a388bd6fc3ab10d434aa4578f811acbbcf33afb1c697486313c60048201819052336024830152916001600160a01b0316906391d1485490604401602060405180830381865afa15801561161a573d6000803e3d6000fd5b505050506040513d601f19601f8201168201806040525081019061163e91906145f9565b61165b576040516365bc1f8360e11b815260040160405180910390fd5b60c95460405163f9d9331d60e01b81526001600160a01b038a81166004830152600092169063f9d9331d90602401602060405180830381865afa1580156116a6573d6000803e3d6000fd5b505050506040513d601f19601f820116820180604052508101906116ca9190614396565b90506001600160a01b0381166116f35760405163331fd83f60e11b815260040160405180910390fd5b6040805180820182526001600160a01b03868116825260cb5460208301529151630faa5a1f60e01b815291831691630faa5a1f9161173b918c918c918c918c91600401614965565b6020604051808303816000875af115801561175a573d6000803e3d6000fd5b505050506040513d601f19601f8201168201806040525081019061177e919061461b565b9250886001600160a01b03167fc1d32ad5cca423e7dda2123dbf8c482f8e77d00b631c06e903a47f2cec1334df846040516117bb91815260200190565b60405180910390a250509695505050505050565b606060006117df60335460ff1690565b156117fc5760405162461bcd60e51b81526004016107fa90614701565b600061180a61053b89610952565b8051909150861461182e5760405163e496fd6160e01b815260040160405180910390fd5b60c95460405163f9d9331d60e01b81526001600160a01b038a81166004830152600092169063f9d9331d90602401602060405180830381865afa158015611879573d6000803e3d6000fd5b505050506040513d601f19601f8201168201806040525081019061189d9190614396565b90506001600160a01b03811661191f5760c954604051621849e360e61b81526001600160a01b038b811660048301529091169063061278c0906024016020604051808303816000875af11580156118f8573d6000803e3d6000fd5b505050506040513d601f19601f8201168201806040525081019061191c9190614396565b90505b61192988886134a9565b81516001600160401b038111156119425761194261405d565b60405190808252806020026020018201604052801561196b578160200160208202803683370190505b509350600082516001600160401b038111156119895761198961405d565b6040519080825280602002602001820160405280156119b2578160200160208202803683370190505b50905060005b8351811015611a99578a6001600160a01b03168482815181106119dd576119dd6144d4565b60200260200101516001600160a01b031614156119f957611a87565b600080611a428c8c85818110611a1157611a116144d4565b9050602002810190611a2391906144ea565b888681518110611a3557611a356144d4565b602002602001015161357b565b9150915081848481518110611a5957611a596144d4565b60200260200101818152505080888481518110611a7857611a786144d4565b60200260200101818152505050505b80611a9181614546565b9150506119b8565b50611b098184898d866001600160a01b0316633e0dc34e6040518163ffffffff1660e01b8152600401602060405180830381865afa158015611adf573d6000803e3d6000fd5b505050506040513d601f19601f82011682018060405250810190611b03919061461b565b87613041565b604051636e553f6560e01b8152600481018290526001600160a01b03888116602483015291955090831690636e553f6590604401600060405180830381600087803b158015611b5757600080fd5b505af1158015611b6b573d6000803e3d6000fd5b50505050856001600160a01b0316336001600160a01b03168b6001600160a01b0316600080516020614e0683398151915287604051611bac91815260200190565b60405180910390a45050509550959350505050565b60c95460405163f9d9331d60e01b81526001600160a01b038581166004830152600092169063f9d9331d90602401602060405180830381865afa158015611c0c573d6000803e3d6000fd5b505050506040513d601f19601f82011682018060405250810190611c309190614396565b90506001600160a01b038116611c595760405163331fd83f60e11b815260040160405180910390fd5b604051632d182be560e21b8152600481018490523360248201526001600160a01b03838116604483015282169063b460af9490606401600060405180830381600087803b158015611ca957600080fd5b505af1158015611cbd573d6000803e3d6000fd5b50505050816001600160a01b0316336001600160a01b0316856001600160a01b0316600080516020614dc683398151915286604051610c2391815260200190565b60c95460405163f9d9331d60e01b81526001600160a01b038381166004830152600092839291169063f9d9331d90602401602060405180830381865afa158015611d4c573d6000803e3d6000fd5b505050506040513d601f19601f82011682018060405250810190611d709190614396565b90506001600160a01b03811615611dea57806001600160a01b031663168a48226040518163ffffffff1660e01b8152600401602060405180830381865afa158015611dbf573d6000803e3d6000fd5b505050506040513d601f19601f82011682018060405250810190611de3919061461b565b9392505050565b50600092915050565b60c95460405163f9d9331d60e01b81526001600160a01b03888116600483015260609260009283929091169063f9d9331d90602401602060405180830381865afa158015611e45573d6000803e3d6000fd5b505050506040513d601f19601f82011682018060405250810190611e699190614396565b90506001600160a01b038116611e925760405163331fd83f60e11b815260040160405180910390fd5b604051630f1bcec360e41b81526001600160a01b0382169063f1bcec3090611ec8908b908b908b908b90339030906004016149b6565b6000604051808303816000875af1158015611ee7573d6000803e3d6000fd5b505050506040513d6000823e601f3d908101601f19168201604052611f0f919081019061448e565b90935091506000611f1f8a610952565b905060005b81518110156120e257848181518110611f3f57611f3f6144d4565b602002602001015160001415611f54576120d0565b730d500b1d8e8ef31e21c99d1db9a6444d3adf12706001600160a01b0316828281518110611f8457611f846144d4565b60200260200101516001600160a01b031614611fef57611fea86868381518110611fb057611fb06144d4565b6020026020010151848481518110611fca57611fca6144d4565b60200260200101516001600160a01b031661391c9092919063ffffffff16565b6120d0565b730d500b1d8e8ef31e21c99d1db9a6444d3adf12706001600160a01b0316632e1a7d4d868381518110612024576120246144d4565b60200260200101516040518263ffffffff1660e01b815260040161204a91815260200190565b600060405180830381600087803b15801561206457600080fd5b505af1158015612078573d6000803e3d6000fd5b50505050856001600160a01b03166108fc86838151811061209b5761209b6144d4565b60200260200101519081150290604051600060405180830381858888f193505050501580156120ce573d6000803e3d6000fd5b505b806120da81614546565b915050611f24565b50846001600160a01b0316336001600160a01b03168b6001600160a01b0316600080516020614dc68339815191528660405161212091815260200190565b60405180910390a45050965096945050505050565b600061214360335460ff1690565b156121605760405162461bcd60e51b81526004016107fa90614701565b3461217e576040516312463ea160e21b815260040160405180910390fd5b8551841461219f5760405163e496fd6160e01b815260040160405180910390fd5b60c95460405163f9d9331d60e01b81526001600160a01b038981166004830152600092169063f9d9331d90602401602060405180830381865afa1580156121ea573d6000803e3d6000fd5b505050506040513d601f19601f8201168201806040525081019061220e9190614396565b90506001600160a01b0381166122905760c954604051621849e360e61b81526001600160a01b038a811660048301529091169063061278c0906024016020604051808303816000875af1158015612269573d6000803e3d6000fd5b505050506040513d601f19601f8201168201806040525081019061228d9190614396565b90505b6000816001600160a01b0316633e0dc34e6040518163ffffffff1660e01b8152600401602060405180830381865afa1580156122d0573d6000803e3d6000fd5b505050506040513d601f19601f820116820180604052508101906122f4919061461b565b9050612301878783612f03565b6000730d500b1d8e8ef31e21c99d1db9a6444d3adf12706001600160a01b031663d0e30db0346040518263ffffffff1660e01b81526004016000604051808303818588803b15801561235257600080fd5b505af1158015612366573d6000803e3d6000fd5b505050505060005b878110156124a8578a6001600160a01b0316898983818110612392576123926144d4565b90506020020160208101906123a79190613f78565b6001600160a01b031614156123d0578981815181106123c8576123c86144d4565b506124969050565b730d500b1d8e8ef31e21c99d1db9a6444d3adf12708989838181106123f7576123f76144d4565b905060200201602081019061240c9190613f78565b6001600160a01b0316141561244357348a828151811061242e5761242e6144d4565b60200260200101818152505060019150612496565b60008a8281518110612457576124576144d4565b602002602001015111156124965761249633308c848151811061247c5761247c6144d4565b60200260200101518c8c8681811061144d5761144d6144d4565b806124a081614546565b91505061236e565b50806124c75760405163aaf96e6160e01b815260040160405180910390fd5b61250a898989808060200260200160405190810160405280939291908181526020018383602002808284376000920191909152508b92508f915087905088613041565b604051636e553f6560e01b8152600481018290526001600160a01b03878116602483015291955090841690636e553f6590604401600060405180830381600087803b15801561255857600080fd5b505af115801561256c573d6000803e3d6000fd5b50505050846001600160a01b0316336001600160a01b03168b6001600160a01b0316600080516020614e06833981519152876040516125ad91815260200190565b60405180910390a45050509695505050505050565b60c95460405163f9d9331d60e01b81526001600160a01b03888116600483015260609260009283929091169063f9d9331d90602401602060405180830381865afa158015612614573d6000803e3d6000fd5b505050506040513d601f19601f820116820180604052508101906126389190614396565b90506001600160a01b0381166126615760405163331fd83f60e11b815260040160405180910390fd5b604051630f1bcec360e41b81526001600160a01b0382169063f1bcec3090612697908b908b908b908b9033908c906004016149b6565b6000604051808303816000875af11580156126b6573d6000803e3d6000fd5b505050506040513d6000823e601f3d908101601f191682016040526126de919081019061448e565b60405181815291945092506001600160a01b038581169133918c1690600080516020614dc68339815191529060200160405180910390a450965096945050505050565b6001600160a01b03163b151590565b606081516001600160401b0381111561274b5761274b61405d565b604051908082528060200260200182016040528015612774578160200160208202803683370190505b50905060005b82518110156127d957828181518110612795576127956144d4565b60200260200101518282815181106127af576127af6144d4565b6001600160a01b0390921660209283029190910190910152806127d181614546565b91505061277a565b50919050565b600080806127f0876004818b614a21565b8101906127fd9190614a4b565b50915050856001600160a01b031681602001516001600160a01b03161415612840576128336001600160a01b038716858761391c565b8460009250925050612a6d565b6312aa3caf60e01b612856600460008a8c614a21565b61285f91614b27565b6001600160e01b03191614158061288c5750856001600160a01b031681600001516001600160a01b031614155b8061289957506080810151155b806128ba5750836001600160a01b031681606001516001600160a01b031614155b156128d857604051631bb5161960e21b815260040160405180910390fd5b8051608082015160405163095ea7b360e01b8152731111111254eeb25477b68fb85ed929f73a960582600482015260248101919091526001600160a01b039091169063095ea7b3906044016020604051808303816000875af1158015612942573d6000803e3d6000fd5b505050506040513d601f19601f8201168201806040525081019061296691906145f9565b50600080731111111254eeb25477b68fb85ed929f73a9605826001600160a01b03168a8a604051612998929190614b57565b6000604051808303816000865af19150503d80600081146129d5576040519150601f19603f3d011682016040523d82523d6000602084013e6129da565b606091505b5091509150816129fd576040516306dffaff60e51b815260040160405180910390fd5b600081806020019051810190612a139190614b67565b909650905080881115612a4857612a2a8189614b8b565b8451909550612a43906001600160a01b0316888761391c565b612a68565b808814612a6857604051632cd294cf60e01b815260040160405180910390fd5b505050505b9550959350505050565b60ca60009054906101000a90046001600160a01b03166001600160a01b03166375b238fc6040518163ffffffff1660e01b8152600401602060405180830381865afa158015612aca573d6000803e3d6000fd5b505050506040513d601f19601f82011682018060405250810190612aee919061461b565b60ca54604051632474521560e21b8152600481018390523360248201526001600160a01b03909116906391d1485490604401602060405180830381865afa158015612b3d573d6000803e3d6000fd5b505050506040513d601f19601f82011682018060405250810190612b6191906145f9565b610df2576040516365bc1f8360e11b815260040160405180910390fd5b7f4910fdfa16fed3260ed0e7147f7cc6da11a60208b5b9406d12a635614ffd91435460ff1615612bb157610d208361394c565b826001600160a01b03166352d1902d6040518163ffffffff1660e01b8152600401602060405180830381865afa925050508015612c0b575060408051601f3d908101601f19168201909252612c089181019061461b565b60015b612c6e5760405162461bcd60e51b815260206004820152602e60248201527f45524331393637557067726164653a206e657720696d706c656d656e7461746960448201526d6f6e206973206e6f74205555505360901b60648201526084016107fa565b600080516020614de68339815191528114612cdd5760405162461bcd60e51b815260206004820152602960248201527f45524331393637557067726164653a20756e737570706f727465642070726f786044820152681a58589b195555525160ba1b60648201526084016107fa565b50610d208383836139e8565b60335460ff16612d325760405162461bcd60e51b815260206004820152601460248201527314185d5cd8589b194e881b9bdd081c185d5cd95960621b60448201526064016107fa565b6033805460ff191690557f5db9ee0a495bf2e6ff9c91a7834c1ba4fdd244a5e8aa4e537bd38aeae4b073aa335b6040516001600160a01b03909116815260200160405180910390a1565b6040516001600160a01b0380851660248301528316604482015260648101829052612de79085906323b872dd60e01b906084015b60408051601f198184030181529190526020810180516001600160e01b03166001600160e01b031990931692909217909152613a0d565b50505050565b60008054610100900460ff1615612e34578160ff166001148015612e105750303b155b612e2c5760405162461bcd60e51b81526004016107fa90614ba2565b506000919050565b60005460ff808416911610612e5b5760405162461bcd60e51b81526004016107fa90614ba2565b506000805460ff191660ff92909216919091179055600190565b919050565b600054610100900460ff16612ea15760405162461bcd60e51b81526004016107fa90614bf0565b612ea9613adf565b565b60335460ff1615612ece5760405162461bcd60e51b81526004016107fa90614701565b6033805460ff191660011790557f62e78cea01bee320cd4e420270b5ea74000d11b0c9f74754ebdbfc544b05a258612d5f3390565b604051631f29a8cd60e31b81526004810182905260009073ba12222222228d8ba445958a75a0704d566bf2c89063f94d466890602401600060405180830381865afa158015612f56573d6000803e3d6000fd5b505050506040513d6000823e601f3d908101601f19168201604052612f7e9190810190614634565b505080519091508314612fa9578051604051632e8dcf5760e11b81526004016107fa91815260200190565b60005b8381101561303a57818181518110612fc657612fc66144d4565b60200260200101516001600160a01b0316858583818110612fe957612fe96144d4565b9050602002016020810190612ffe9190613f78565b6001600160a01b03161461302857604051635473224f60e11b8152600481018290526024016107fa565b8061303281614546565b915050612fac565b5050505050565b60008060005b885181101561315b576000898281518110613064576130646144d4565b60200260200101511115613149578161307c57600191505b87818151811061308e5761308e6144d4565b60200260200101516001600160a01b031663095ea7b373ba12222222228d8ba445958a75a0704d566bf2c88b84815181106130cb576130cb6144d4565b60200260200101516040518363ffffffff1660e01b81526004016131049291906001600160a01b03929092168252602082015260400190565b6020604051808303816000875af1158015613123573d6000803e3d6000fd5b505050506040513d601f19601f8201168201806040525081019061314791906145f9565b505b8061315381614546565b915050613047565b508061317a576040516378e321a560e01b815260040160405180910390fd5b6060836001600160a01b0316636f0f68f26040518163ffffffff1660e01b8152600401602060405180830381865afa1580156131ba573d6000803e3d6000fd5b505050506040513d601f19601f820116820180604052508101906131de91906145f9565b156132fb57600060018a516131f39190614b8b565b6001600160401b0381111561320a5761320a61405d565b604051908082528060200260200182016040528015613233578160200160208202803683370190505b5090506000805b8a518110156132cc57886001600160a01b03168b828151811061325f5761325f6144d4565b60200260200101516001600160a01b0316146132ba578b8181518110613287576132876144d4565b60200260200101518383815181106132a1576132a16144d4565b60209081029190910101526132b7600183614c3b565b91505b806132c481614546565b91505061323a565b506001828a6040516020016132e393929190614c53565b60405160208183030381529060405292505050613323565b6001898860405160200161331193929190614c53565b60405160208183030381529060405290505b6040516370a0823160e01b81526001600160a01b038581166004830152600091908816906370a0823190602401602060405180830381865afa15801561336d573d6000803e3d6000fd5b505050506040513d601f19601f82011682018060405250810190613391919061461b565b604080516080810182528b8152602081018d905280820185905260006060820152905163172b958560e31b81529192509073ba12222222228d8ba445958a75a0704d566bf2c89063b95cac28906133f2908a9030908b908790600401614cd7565b600060405180830381600087803b15801561340c57600080fd5b505af1158015613420573d6000803e3d6000fd5b50506040516370a0823160e01b81526001600160a01b0389811660048301528593508b1691506370a0823190602401602060405180830381865afa15801561346c573d6000803e3d6000fd5b505050506040513d601f19601f82011682018060405250810190613490919061461b565b61349a9190614b8b565b9b9a5050505050505050505050565b6000805b8281101561355a5760008484838181106134c9576134c96144d4565b90506020028101906134db91906144ea565b6134e9916004908290614a21565b8101906134f69190614a4b565b5080519092506001600160a01b031615905080613530575080516001600160a01b031673eeeeeeeeeeeeeeeeeeeeeeeeeeeeeeeeeeeeeeee145b156135475760808101516135449084614c3b565b92505b508061355281614546565b9150506134ad565b50803414610d20576040516312463ea160e21b815260040160405180910390fd5b6000808061358c8560048189614a21565b8101906135999190614a4b565b50915050836001600160a01b031681600001516001600160a01b0316141561360b5760808101516135dd57604051631bb5161960e21b815260040160405180910390fd5b608081015181516135fd916001600160a01b039091169033903090612d7c565b608001519150819050613914565b6312aa3caf60e01b61362160046000888a614a21565b61362a91614b27565b6001600160e01b0319161415806136575750836001600160a01b031681602001516001600160a01b031614155b8061366457506080810151155b8061367c575060608101516001600160a01b03163014155b1561369a57604051631bb5161960e21b815260040160405180910390fd5b80516000906001600160a01b031615806136d1575081516001600160a01b031673eeeeeeeeeeeeeeeeeeeeeeeeeeeeeeeeeeeeeeee145b90508061378857608082015182516136f8916001600160a01b039091169033903090612d7c565b8151608083015160405163095ea7b360e01b8152731111111254eeb25477b68fb85ed929f73a960582600482015260248101919091526001600160a01b039091169063095ea7b3906044016020604051808303816000875af1158015613762573d6000803e3d6000fd5b505050506040513d601f19601f8201168201806040525081019061378691906145f9565b505b60008161379657600061379c565b82608001515b9050600080731111111254eeb25477b68fb85ed929f73a9605826001600160a01b0316838b8b6040516137d0929190614b57565b60006040518083038185875af1925050503d806000811461380d576040519150601f19603f3d011682016040523d82523d6000602084013e613812565b606091505b509150915081613835576040516306dffaff60e51b815260040160405180910390fd5b808060200190518101906138499190614b67565b809750819850505050505082826080015111156139115780156138eb576000336001600160a01b03168484608001516138829190614b8b565b604051600081818185875af1925050503d80600081146138be576040519150601f19603f3d011682016040523d82523d6000602084013e6138c3565b606091505b50509050806138e55760405163125bf52760e01b815260040160405180910390fd5b50613911565b613911338484608001516138ff9190614b8b565b84516001600160a01b0316919061391c565b50505b935093915050565b6040516001600160a01b038316602482015260448101829052610d2090849063a9059cbb60e01b90606401612db0565b6001600160a01b0381163b6139b95760405162461bcd60e51b815260206004820152602d60248201527f455243313936373a206e657720696d706c656d656e746174696f6e206973206e60448201526c1bdd08184818dbdb9d1c9858dd609a1b60648201526084016107fa565b600080516020614de683398151915280546001600160a01b0319166001600160a01b0392909216919091179055565b6139f183613b12565b6000825111806139fe5750805b15610d2057612de78383613b52565b6000613a62826040518060400160405280602081526020017f5361666545524332303a206c6f772d6c6576656c2063616c6c206661696c6564815250856001600160a01b0316613c469092919063ffffffff16565b805190915015610d205780806020019051810190613a8091906145f9565b610d205760405162461bcd60e51b815260206004820152602a60248201527f5361666545524332303a204552433230206f7065726174696f6e20646964206e6044820152691bdd081cdd58d8d9595960b21b60648201526084016107fa565b600054610100900460ff16613b065760405162461bcd60e51b81526004016107fa90614bf0565b6033805460ff19169055565b613b1b8161394c565b6040516001600160a01b038216907fbc7cd75a20ee27fd9adebab32041f755214dbc6bffa90cc0225b39da2e5c2d3b90600090a250565b60606001600160a01b0383163b613bba5760405162461bcd60e51b815260206004820152602660248201527f416464726573733a2064656c65676174652063616c6c20746f206e6f6e2d636f6044820152651b9d1c9858dd60d21b60648201526084016107fa565b600080846001600160a01b031684604051613bd59190614d96565b600060405180830381855af49150503d8060008114613c10576040519150601f19603f3d011682016040523d82523d6000602084013e613c15565b606091505b5091509150613c3d8282604051806060016040528060278152602001614e2660279139613c5d565b95945050505050565b6060613c558484600085613c96565b949350505050565b60608315613c6c575081611de3565b825115613c7c5782518084602001fd5b8160405162461bcd60e51b81526004016107fa9190614db2565b606082471015613cf75760405162461bcd60e51b815260206004820152602660248201527f416464726573733a20696e73756666696369656e742062616c616e636520666f6044820152651c8818d85b1b60d21b60648201526084016107fa565b6001600160a01b0385163b613d4e5760405162461bcd60e51b815260206004820152601d60248201527f416464726573733a2063616c6c20746f206e6f6e2d636f6e747261637400000060448201526064016107fa565b600080866001600160a01b03168587604051613d6a9190614d96565b60006040518083038185875af1925050503d8060008114613da7576040519150601f19603f3d011682016040523d82523d6000602084013e613dac565b606091505b5091509150613dbc828286613c5d565b979650505050505050565b6001600160a01b038116811461089757600080fd5b8035612e7581613dc7565b60008083601f840112613df957600080fd5b5081356001600160401b03811115613e1057600080fd5b602083019150836020828501011115613e2857600080fd5b9250929050565b60008083601f840112613e4157600080fd5b5081356001600160401b03811115613e5857600080fd5b6020830191508360208260051b8501011115613e2857600080fd5b60008060008060008060808789031215613e8c57600080fd5b8635613e9781613dc7565b955060208701356001600160401b0380821115613eb357600080fd5b613ebf8a838b01613de7565b90975095506040890135915080821115613ed857600080fd5b50613ee589828a01613e2f565b9094509250506060870135613ef981613dc7565b809150509295509295509295565b600081518084526020808501945080840160005b83811015613f3757815187529582019590820190600101613f1b565b509495945050505050565b606081526000613f556060830186613f07565b8281036020840152613f678186613f07565b915050826040830152949350505050565b600060208284031215613f8a57600080fd5b8135611de381613dc7565b6020808252825182820181905260009190848201906040850190845b81811015613fd65783516001600160a01b031683529284019291840191600101613fb1565b50909695505050505050565b600080600060608486031215613ff757600080fd5b833561400281613dc7565b925060208401359150604084013561401981613dc7565b809150509250925092565b6000806040838503121561403757600080fd5b823561404281613dc7565b9150602083013561405281613dc7565b809150509250929050565b634e487b7160e01b600052604160045260246000fd5b60405160e081016001600160401b03811182821017156140955761409561405d565b60405290565b604051601f8201601f191681016001600160401b03811182821017156140c3576140c361405d565b604052919050565b600082601f8301126140dc57600080fd5b81356001600160401b038111156140f5576140f561405d565b614108601f8201601f191660200161409b565b81815284602083860101111561411d57600080fd5b816020850160208301376000918101602001919091529392505050565b6000806040838503121561414d57600080fd5b823561415881613dc7565b915060208301356001600160401b0381111561417357600080fd5b61417f858286016140cb565b9150509250929050565b60006020828403121561419b57600080fd5b5035919050565b60006001600160401b038211156141bb576141bb61405d565b5060051b60200190565b60008060008060008060a087890312156141de57600080fd5b86356141e981613dc7565b95506020878101356001600160401b038082111561420657600080fd5b818a0191508a601f83011261421a57600080fd5b813561422d614228826141a2565b61409b565b81815260059190911b8301840190848101908d83111561424c57600080fd5b938501935b8285101561426a57843582529385019390850190614251565b9950505060408a013592508083111561428257600080fd5b505061429089828a01613e2f565b909550935050606087013591506142a960808801613ddc565b90509295509295509295565b600080600080600080608087890312156142ce57600080fd5b86356142d981613dc7565b955060208701356001600160401b03808211156142f557600080fd5b613ebf8a838b01613e2f565b60008060008060006080868803121561431957600080fd5b853561432481613dc7565b945060208601356001600160401b0381111561433f57600080fd5b61434b88828901613e2f565b90955093505060408601359150606086013561436681613dc7565b809150509295509295909350565b6040815260006143876040830185613f07565b90508260208301529392505050565b6000602082840312156143a857600080fd5b8151611de381613dc7565b81835281816020850137506000828201602090810191909152601f909101601f19169091010190565b6080815260006143f06080830187896143b3565b82810360208401526144028187613f07565b6001600160a01b0395861660408501529390941660609092019190915250949350505050565b600082601f83011261443957600080fd5b81516020614449614228836141a2565b82815260059290921b8401810191818101908684111561446857600080fd5b8286015b84811015614483578051835291830191830161446c565b509695505050505050565b600080604083850312156144a157600080fd5b82516001600160401b038111156144b757600080fd5b6144c385828601614428565b925050602083015190509250929050565b634e487b7160e01b600052603260045260246000fd5b6000808335601e1984360301811261450157600080fd5b8301803591506001600160401b0382111561451b57600080fd5b602001915036819003821315613e2857600080fd5b634e487b7160e01b600052601160045260246000fd5b600060001982141561455a5761455a614530565b5060010190565b6020808252602c908201527f46756e6374696f6e206d7573742062652063616c6c6564207468726f7567682060408201526b19195b1959d85d1958d85b1b60a21b606082015260800190565b6020808252602c908201527f46756e6374696f6e206d7573742062652063616c6c6564207468726f7567682060408201526b6163746976652070726f787960a01b606082015260800190565b60006020828403121561460b57600080fd5b81518015158114611de357600080fd5b60006020828403121561462d57600080fd5b5051919050565b60008060006060848603121561464957600080fd5b83516001600160401b038082111561466057600080fd5b818601915086601f83011261467457600080fd5b81516020614684614228836141a2565b82815260059290921b8401810191818101908a8411156146a357600080fd5b948201945b838610156146ca5785516146bb81613dc7565b825294820194908201906146a8565b918901519197509093505050808211156146e357600080fd5b506146f086828701614428565b925050604084015190509250925092565b60208082526010908201526f14185d5cd8589b194e881c185d5cd95960821b604082015260600190565b6000808335601e1984360301811261474257600080fd5b83016020810192503590506001600160401b0381111561476157600080fd5b8060051b3603831315613e2857600080fd5b8183526000602080850194508260005b85811015613f3757813561479681613dc7565b6001600160a01b031687529582019590820190600101614783565b8183526000602080850194508260005b85811015613f37578135875295820195908201906001016147c1565b8183526000602084018094508360051b81018360005b86811015613fd6578383038852605e198636030182351261481357600080fd5b85823501614821818261472b565b606086526060860181815260808701905060808260051b8801018360005b848110156148ff57898303607f1901845236869003609e190182351261486457600080fd5b85823501803584526020810135602085015260408101356040850152606081013560608501526080810135601e198236030181126148a157600080fd5b6001600160401b038282013511156148b857600080fd5b8181013536038213156148ca57600080fd5b60a060808601526148e760a08601838301356020858501016143b3565b6020968701969095509390930192505060010161483f565b505061490e602086018661472b565b945092508781036020890152614925818585614773565b9350505050614937604083018361472b565b9250858203604087015261494c8284836147b1565b60209b8c019b90965094909401935050506001016147f3565b6080815260006149796080830187896147dd565b828103602084015261498c8186886147dd565b84516001600160a01b03166040850152602090940151606090930192909252509095945050505050565b6080815260006149ca60808301888a6143b3565b82810360208401528581526001600160fb1b038611156149e957600080fd5b8560051b80886020840137600091016020019081526001600160a01b0394851660408401529290931660609091015295945050505050565b60008085851115614a3157600080fd5b83861115614a3e57600080fd5b5050820193919092039150565b6000806000838503610120811215614a6257600080fd5b8435614a6d81613dc7565b935060e0601f1982011215614a8157600080fd5b50614a8a614073565b6020850135614a9881613dc7565b81526040850135614aa881613dc7565b60208201526060850135614abb81613dc7565b60408201526080850135614ace81613dc7565b8060608301525060a0850135608082015260c085013560a082015260e085013560c0820152809250506101008401356001600160401b03811115614b1157600080fd5b614b1d868287016140cb565b9150509250925092565b6001600160e01b03198135818116916004851015614b4f5780818660040360031b1b83161692505b505092915050565b8183823760009101908152919050565b60008060408385031215614b7a57600080fd5b505080516020909101519092909150565b600082821015614b9d57614b9d614530565b500390565b6020808252602e908201527f496e697469616c697a61626c653a20636f6e747261637420697320616c72656160408201526d191e481a5b9a5d1a585b1a5e995960921b606082015260800190565b6020808252602b908201527f496e697469616c697a61626c653a20636f6e7472616374206973206e6f74206960408201526a6e697469616c697a696e6760a81b606082015260800190565b60008219821115614c4e57614c4e614530565b500190565b60ff84168152606060208201526000614c6f6060830185613f07565b9050826040830152949350505050565b60005b83811015614c9a578181015183820152602001614c82565b83811115612de75750506000910152565b60008151808452614cc3816020860160208601614c7f565b601f01601f19169290920160200192915050565b8481526000602060018060a01b038087168285015280861660408501526080606085015261010084018551608080870152818151808452610120880191508583019350600092505b80831015614d4157835185168252928501926001929092019190850190614d1f565b50848801519450607f199350838782030160a0880152614d618186613f07565b94505050506040850151818584030160c0860152614d7f8382614cab565b92505050606084015161448360e085018215159052565b60008251614da8818460208701614c7f565b9190910192915050565b602081526000611de36020830184614cab56fe3115d1449a7b732c986cba18244e897a450f61e1bb8d589cd2e69e6c8924f9f7360894a13ba1a3210667c828492db98dca3e2076cc3735a920a3ca505d382bbc7cfff908a4b583f36430b25d75964c458d8ede8a99bd61be750e97ee1b2f3a96416464726573733a206c6f772d6c6576656c2064656c65676174652063616c6c206661696c6564a26469706673582212204d065dbf8dfb54ce6851c440726c1234438b67d9df642040611da47f31d6881564736f6c634300080a0033496e697469616c697a61626c653a20636f6e747261637420697320616c726561",
  "immutableReferences": {
    "561": [
      {
        "length": 32,
        "start": 1980
      },
      {
        "length": 32,
        "start": 2053
      },
      {
        "length": 32,
        "start": 3376
      },
      {
        "length": 32,
        "start": 3440
      },
      {
        "length": 32,
        "start": 3844
      }
    ]
  },
  "source": "// SPDX-License-Identifier: MIT\r\npragma solidity 0.8.10;\r\n\r\nimport '../../interfaces/IUnoFarm.sol';\r\nimport './interfaces/IUnoAssetRouterBalancer.sol'; \r\nimport \"../../interfaces/IBasePool.sol\";\r\nimport '../../interfaces/IWMATIC.sol';\r\nimport \"../../interfaces/IAggregationRouterV5.sol\";\r\nimport '@openzeppelin/contracts/token/ERC20/utils/SafeERC20.sol';\r\nimport '@openzeppelin/contracts-upgradeable/proxy/utils/Initializable.sol';\r\nimport '@openzeppelin/contracts-upgradeable/security/PausableUpgradeable.sol';\r\nimport '@openzeppelin/contracts-upgradeable/proxy/utils/UUPSUpgradeable.sol';\r\n\r\ncontract UnoAssetRouterBalancer is Initializable, PausableUpgradeable, UUPSUpgradeable, IUnoAssetRouterBalancer {\r\n    using SafeERC20 for IERC20;\r\n\r\n    /**\r\n     * @dev Contract Variables:\r\n     * farmFactory - The contract that deploys new Farms and links them to {lpPool}s.\r\n     * accessManager - Role manager contract.\r\n     */\r\n    IUnoFarmFactory public farmFactory;\r\n    IUnoAccessManager public accessManager;\r\n\r\n    bytes32 private constant DISTRIBUTOR_ROLE = keccak256('DISTRIBUTOR_ROLE');\r\n    bytes32 private constant PAUSER_ROLE = keccak256('PAUSER_ROLE');\r\n\r\n    IVault constant private Vault = IVault(0xBA12222222228d8Ba445958a75a0704d566BF2C8);\r\n\r\n    uint256 public fee;\r\n\r\n    address public constant WMATIC = 0x0d500B1d8E8eF31E21C99d1Db9A6444d3ADf1270;\r\n    address private constant OneInchRouter = 0x1111111254EEB25477B68fb85Ed929f73A960582;\r\n\r\n    modifier onlyRole(bytes32 role){\r\n        if(!accessManager.hasRole(role, msg.sender)) revert CALLER_NOT_AUTHORIZED();\r\n        _;\r\n    }\r\n\r\n    // ============ Methods ============\r\n\r\n    /// @custom:oz-upgrades-unsafe-allow constructor\r\n    constructor() {\r\n        _disableInitializers();\r\n    }\r\n\r\n    function initialize(address _accessManager, address _farmFactory) external initializer{\r\n        if(_accessManager == address(0)) revert INVALID_ACCESS_MANAGER();\r\n        if(_farmFactory == address(0)) revert INVALID_FARM_FACTORY();\r\n\r\n        __Pausable_init();\r\n        accessManager = IUnoAccessManager(_accessManager);\r\n        farmFactory = IUnoFarmFactory(_farmFactory);\r\n    }\r\n\r\n    receive() external payable {\r\n        //Reject deposits from EOA\r\n        if (msg.sender == tx.origin) revert ETH_DEPOSIT_REJECTED();\r\n    }\r\n\r\n    /**\r\n     * @dev Deposits tokens in the given pool. Creates new Farm contract if there isn't one deployed for the {lpPool} and deposits tokens in it.\r\n     * @param lpPool - Address of the pool to deposit tokens in.\r\n     * @param amounts - Amounts of tokens to deposit.\r\n     * @param tokens - Tokens to deposit.\r\n     * @param minAmountLP - Minimum LP the user will receive from {tokens} deposit.\r\n     * @param recipient - Address which will receive the deposit.\r\n\r\n     * @return liquidity - Total liquidity sent to the farm (in lpTokens).\r\n     */\r\n    function deposit(address lpPool, uint256[] memory amounts, address[] calldata tokens, uint256 minAmountLP, address recipient) external whenNotPaused returns(uint256 liquidity){\r\n        if (amounts.length != tokens.length) revert INPUT_PARAMS_LENGTHS_NOT_MATCH();\r\n        Farm farm = Farm(farmFactory.Farms(lpPool));\r\n        if(farm == Farm(address(0))){\r\n            farm = Farm(farmFactory.createFarm(lpPool));\r\n        }\r\n\r\n        bytes32 poolId = farm.poolId();\r\n        _checkTokens(tokens, poolId);\r\n\r\n        for (uint256 i = 0; i < tokens.length; i++) {\r\n            if(amounts[i] > 0){\r\n                if(tokens[i] == lpPool){\r\n                    amounts[i] == 0;\r\n                    continue;\r\n                }\r\n                IERC20(tokens[i]).safeTransferFrom(msg.sender, address(this), amounts[i]);\r\n            }\r\n        }\r\n\r\n        liquidity = _addLiquidity(amounts, tokens, minAmountLP, lpPool, poolId, farm);\r\n        farm.deposit(liquidity, recipient);\r\n\r\n        emit Deposit(lpPool, msg.sender, recipient, liquidity); \r\n    }\r\n\r\n    /**\r\n     * @dev Autoconverts MATIC into WMATIC and deposits tokens in the given pool. Creates new Farm contract if there isn't one deployed for the {lpPool} and deposits tokens in it.\r\n     * @param lpPool - Address of the pool to deposit tokens in.\r\n     * @param amounts - Amounts of tokens to deposit.\r\n     * @param tokens - Tokens to deposit.\r\n     * @param minAmountLP - Minimum LP the user will receive from {tokens} deposit.\r\n     * @param recipient - Address which will receive the deposit.\r\n\r\n     * @return liquidity - Total liquidity sent to the farm (in lpTokens).\r\n     */\r\n    function depositETH(address lpPool, uint256[] memory amounts, address[] calldata tokens, uint256 minAmountLP, address recipient) external payable whenNotPaused returns(uint256 liquidity){\r\n        if(msg.value == 0) revert INVALID_MSG_VALUE();\r\n        if (amounts.length != tokens.length) revert INPUT_PARAMS_LENGTHS_NOT_MATCH();\r\n        Farm farm = Farm(farmFactory.Farms(lpPool));\r\n        if(farm == Farm(address(0))){\r\n            farm = Farm(farmFactory.createFarm(lpPool));\r\n        }\r\n\r\n        bytes32 poolId = farm.poolId();\r\n        _checkTokens(tokens, poolId);\r\n\r\n        bool WMATICInTokens;\r\n        IWMATIC(WMATIC).deposit{value: msg.value}();\r\n        for (uint256 i = 0; i < tokens.length; i++) {\r\n            if(tokens[i] == lpPool){\r\n                amounts[i] == 0;\r\n                continue;\r\n            }\r\n            if(tokens[i] == WMATIC){\r\n                amounts[i] = msg.value;\r\n                WMATICInTokens = true;\r\n                continue;\r\n            }\r\n            if(amounts[i] > 0){\r\n                IERC20(tokens[i]).safeTransferFrom(msg.sender, address(this), amounts[i]);\r\n            }\r\n        }\r\n        if(!WMATICInTokens) revert NOT_ETH_FARM();\r\n\r\n        liquidity = _addLiquidity(amounts, tokens, minAmountLP, lpPool, poolId, farm);\r\n        farm.deposit(liquidity, recipient);\r\n        \r\n        emit Deposit(lpPool, msg.sender, recipient, liquidity); \r\n    }\r\n\r\n    /**\r\n     * @dev Deposits tokens in the given pool with swap. Creates new Farm contract if there isn't one deployed for the {lpPool}, swaps {token} for pool tokens and deposits them. Emits a {Deposit} event.\r\n     * @param lpPool - Address of the pool to deposit tokens in.\r\n     * @param swapData - Parameter with which 1inch router is being called with.\r\n     * @param minAmountLP - Minimum LP the user will receive from {tokens} deposit.\r\n     * @param recipient - Address which will receive the deposit.\r\n     \r\n     * @return sent - Total amount sent to the farm. \r\n     * @return liquidity - Total liquidity sent to the farm (in lpTokens).\r\n     */\r\n    function depositWithSwap(address lpPool, bytes[] calldata swapData, uint256 minAmountLP, address recipient) external payable whenNotPaused returns(uint256[] memory sent, uint256 liquidity){\r\n        address[] memory tokens = _convertToAddressArray(getTokens(lpPool));\r\n        if (swapData.length != tokens.length) revert INPUT_PARAMS_LENGTHS_NOT_MATCH();\r\n\r\n        Farm farm = Farm(farmFactory.Farms(lpPool));\r\n        if(farm == Farm(address(0))){\r\n            farm = Farm(farmFactory.createFarm(lpPool));\r\n        }\r\n\r\n        _checkMsgValue(swapData);\r\n\r\n        sent = new uint256[](tokens.length);\r\n        uint256[] memory amounts = new uint256[](tokens.length);\r\n        for (uint256 i; i < tokens.length; i++) {\r\n            if (tokens[i] == lpPool) {\r\n                continue;\r\n            }\r\n            (uint256 _amount, uint256 _sent) = _swapDeposit(swapData[i], IERC20(tokens[i]));\r\n            amounts[i] = _amount;\r\n            sent[i] = _sent;\r\n        }\r\n\r\n        liquidity = _addLiquidity(amounts, tokens, minAmountLP, lpPool, farm.poolId(), farm);\r\n        farm.deposit(liquidity, recipient);\r\n\r\n        emit Deposit(lpPool, msg.sender, recipient, liquidity);\r\n    }\r\n\r\n    /**\r\n     * @dev Deposits tokens in the given pool. Creates new Farm contract if there isn't one deployed for the {lpPool} and deposits tokens in it. Emits a {Deposit} event.\r\n     * @param lpPool - Address of the pool to deposit tokens in.\r\n     * @param amount - LP Token amount to deposit.\r\n     * @param recipient - Address which will receive the deposit.\r\n     */\r\n    function depositLP(address lpPool, uint256 amount, address recipient) external whenNotPaused{\r\n        if(amount == 0) revert NO_TOKENS_SENT();\r\n        Farm farm = Farm(farmFactory.Farms(lpPool));\r\n        if(farm == Farm(address(0))){\r\n            farm = Farm(farmFactory.createFarm(lpPool));\r\n        }\r\n\r\n        IERC20(lpPool).safeTransferFrom(msg.sender, address(farm), amount);\r\n        farm.deposit(amount, recipient);\r\n\r\n        emit Deposit(lpPool, msg.sender, recipient, amount); \r\n    }\r\n\r\n    /** \r\n     * @dev Withdraws tokens from the given pool. \r\n     * @param lpPool - LP pool to withdraw from.\r\n     * @param userData - Balancer pool exit userData.\r\n     * @param minAmountsOut - Minimum token amounts the user will receive.\r\n     * @param recipient - The address which will receive tokens.\r\n\r\n     * @return amounts - Token amounts sent to the {recipient}.\r\n     * @return liquidity - Total liquidity sent to the user (in lpTokens).\r\n     */ \r\n    function withdraw(address lpPool, bytes calldata userData, uint256[] calldata minAmountsOut, address recipient) external returns(uint256[] memory amounts, uint256 liquidity){ \r\n        Farm farm = Farm(farmFactory.Farms(lpPool));\r\n        if(farm == Farm(address(0))) revert FARM_NOT_EXISTS();\r\n\r\n        (amounts, liquidity) = farm.withdrawTokens(userData, minAmountsOut, msg.sender, recipient);\r\n        emit Withdraw(lpPool, msg.sender, recipient, liquidity);\r\n    }\r\n\r\n    /** \r\n     * @dev Autoconverts WMATIC into MATIC and withdraws tokens from the given pool. \r\n     * @param lpPool - LP pool to withdraw from.\r\n     * @param userData -  Balancer pool exit userData.\r\n     * @param minAmountsOut - Minimum token amounts the user will receive.\r\n     * @param recipient - The address which will receive tokens.\r\n\r\n     * @return amounts - Token amounts sent to the {recipient}.\r\n     * @return liquidity - Total liquidity sent to the user (in lpTokens).\r\n     */ \r\n    function withdrawETH(address lpPool, bytes calldata userData, uint256[] calldata minAmountsOut, address recipient) external returns(uint256[] memory amounts, uint256 liquidity){ \r\n        Farm farm = Farm(farmFactory.Farms(lpPool));\r\n        if(farm == Farm(address(0))) revert FARM_NOT_EXISTS();\r\n\r\n        (amounts, liquidity) = farm.withdrawTokens(userData, minAmountsOut, msg.sender, address(this));\r\n\r\n        IERC20[] memory tokens = getTokens(lpPool);\r\n        for (uint256 i = 0; i < tokens.length; i++) {\r\n            if (amounts[i] == 0){\r\n                continue;\r\n            }\r\n            if (address(tokens[i]) != WMATIC) {\r\n                IERC20(address(tokens[i])).safeTransfer(recipient, amounts[i]);\r\n                continue;\r\n            }\r\n            IWMATIC(WMATIC).withdraw(amounts[i]);\r\n            payable(recipient).transfer(amounts[i]);\r\n        }\r\n\r\n        emit Withdraw(lpPool, msg.sender, recipient, liquidity);  \r\n    }\r\n\r\n    /**\r\n     * @dev Withdraws single token from the given pool. Emits a {Withdraw} event. Note: If there are any tokens left to be withdrawn after swaps they will be sent to the {{recipient}} in a respective token (not in {token}).\r\n     * @param lpPool - LP pool to withdraw from.\r\n     * @param userData - Balancer pool exit userData.\r\n     * @param swapData - Parameters with which 1inch router is being called with.\r\n     * @param recipient - Address which will receive the deposit.\r\n     \r\n     * @return amounts - Amounts sent to the {recipient} from swapData.\r\n     * @return dust - Dust amounts sent to the {recipient} left from swaps.\r\n     * @return liquidity - Total liquidity sent to the user (in lpTokens).\r\n     */\r\n    function withdrawWithSwap(address lpPool, bytes calldata userData, bytes[] calldata swapData, address recipient) external returns(uint256[] memory amounts, uint256[] memory dust, uint256 liquidity){\r\n        Farm farm = Farm(farmFactory.Farms(lpPool));\r\n        if(farm == Farm(address(0))) revert FARM_NOT_EXISTS();\r\n\r\n        address[] memory tokens = _convertToAddressArray(getTokens(lpPool));\r\n        if (swapData.length != tokens.length) revert INPUT_PARAMS_LENGTHS_NOT_MATCH();\r\n\r\n        dust = new uint256[](tokens.length);\r\n        amounts = new uint256[](tokens.length);\r\n        (amounts, liquidity) = farm.withdrawTokens(userData, amounts, msg.sender, address(this));\r\n        for (uint256 i = 0; i < tokens.length; i++) {\r\n            if(amounts[i] == 0){\r\n                continue;\r\n            }\r\n\r\n            (uint256 _amount, uint256 _dust) = _swapWithdraw(swapData[i], IERC20(tokens[i]), amounts[i], recipient);\r\n            amounts[i] = _amount;\r\n            dust[i] = _dust;\r\n        }\r\n\r\n        emit Withdraw(lpPool, msg.sender, recipient, liquidity);\r\n    }\r\n\r\n    /** \r\n     * @dev Withdraws LP tokens from the given pool. Emits a {Withdraw} event.\r\n     * @param lpPool - LP pool to withdraw from.\r\n     * @param amount - LP amount to withdraw. \r\n     * @param recipient - The address which will receive tokens.\r\n     */ \r\n    function withdrawLP(address lpPool, uint256 amount, address recipient) external {\r\n        Farm farm = Farm(farmFactory.Farms(lpPool));\r\n        if(farm == Farm(address(0))) revert FARM_NOT_EXISTS();\r\n        \r\n        farm.withdraw(amount, msg.sender, recipient);\r\n        emit Withdraw(lpPool, msg.sender, recipient, amount);  \r\n    }\r\n\r\n    /**\r\n     * @dev Distributes tokens between users for a single {Farms[lpPool]}.\r\n     * @param lpPool - The pool to distribute. \r\n     * @param swapInfos - The data used to swap reward tokens for the needed tokens.\r\n     * @param feeSwapInfos - The data used to swap reward tokens for fees.\r\n     * @param feeTo - Address to collect fees to.\r\n     *\r\n     * Note: This function can only be called by the distributor.\r\n     */\r\n    function distribute(\r\n        address lpPool,\r\n        Farm.SwapInfo[] calldata swapInfos,\r\n        Farm.SwapInfo[] calldata feeSwapInfos,\r\n        address feeTo\r\n    ) external whenNotPaused onlyRole(DISTRIBUTOR_ROLE) returns(uint256 reward){\r\n        Farm farm = Farm(farmFactory.Farms(lpPool));\r\n        if(farm == Farm(address(0))) revert FARM_NOT_EXISTS();\r\n\r\n        reward = farm.distribute(swapInfos, feeSwapInfos, IUnoFarm.FeeInfo(feeTo, fee));\r\n        emit Distribute(lpPool, reward);\r\n    }\r\n\r\n    /**\r\n     * @dev Returns LP tokens staked by the {_address} for the given {lpPool}.\r\n     * @param _address - The address to check stakes for.\r\n     * @param lpPool - LP pool to check stakes in.\r\n\r\n     * @return Total user stake(in LP tokens).\r\n     */\r\n   function userStake(address _address, address lpPool) external view returns(uint256){\r\n        Farm farm = Farm(farmFactory.Farms(lpPool));\r\n        if (farm != Farm(address(0))) {\r\n            return farm.userBalance(_address);\r\n        }\r\n        return 0;\r\n    }\r\n\r\n    /**\r\n     * @dev Returns total amount locked in the pool. Doesn't take pending rewards into account.\r\n     * @param lpPool - LP pool to check total deposits in.\r\n\r\n     * @return Total deposits (in LP tokens).\r\n     */\r\n    function totalDeposits(address lpPool) external view returns (uint256) {\r\n        Farm farm = Farm(farmFactory.Farms(lpPool));\r\n        if (farm != Farm(address(0))) {\r\n            return farm.getTotalDeposits();\r\n        }\r\n        return 0;\r\n    }\r\n\r\n    /**\r\n     * @dev Returns addresses of tokens in {lpPool}.\r\n     * @param lpPool - LP pool to check tokens in.\r\n\r\n     * @return tokens - Token addresses.\r\n     */  \r\n    function getTokens(address lpPool) public view returns(IERC20[] memory tokens){\r\n        bytes32 poolId = IBasePool(lpPool).getPoolId();\r\n        (tokens, , ) = Vault.getPoolTokens(poolId);\r\n    }\r\n\r\n    /**\r\n     * @dev Deposits assets to router\r\n     */ \r\n    function _addLiquidity(\r\n        uint256[] memory amounts, \r\n        address[] memory tokens,\r\n        uint256 minAmountLP,\r\n        address lpPool,\r\n        bytes32 poolId,\r\n        Farm farm\r\n    ) internal returns(uint256 liquidity){\r\n        bool joinPool;\r\n        for (uint256 i = 0; i < amounts.length; i++) {\r\n            if(amounts[i] > 0){\r\n                if(!joinPool){\r\n                    joinPool = true;\r\n                }\r\n                IERC20(tokens[i]).approve(address(Vault), amounts[i]);\r\n            }\r\n        }\r\n        if(!joinPool) revert NO_LIQUIDITY_PROVIDED();\r\n\r\n        bytes memory userData;\r\n        if(farm.isComposable()){\r\n            //If pool has pre-minted BPT then don't include those in userData.\r\n            uint256[] memory _amounts = new uint256[](amounts.length - 1);\r\n            uint256 _i = 0;\r\n            for (uint256 i = 0; i < tokens.length; i++) {\r\n                if(tokens[i] != lpPool){\r\n                    _amounts[_i] = amounts[i];\r\n                    _i += 1;\r\n                }\r\n            }\r\n            userData = abi.encode(1, _amounts, minAmountLP);\r\n        } else {\r\n            userData = abi.encode(1, amounts, minAmountLP);\r\n        }\r\n\r\n        uint256 amountBefore = IERC20(lpPool).balanceOf(address(farm));\r\n        IVault.JoinPoolRequest memory joinPoolRequest = IVault.JoinPoolRequest(tokens, amounts, userData, false);\r\n        Vault.joinPool(poolId, address(this), address(farm), joinPoolRequest);\r\n\r\n        liquidity = IERC20(lpPool).balanceOf(address(farm)) - amountBefore;\r\n    }\r\n\r\n    /**\r\n     * @dev Compares passed calldata tokens with real pool tokens\r\n     */ \r\n    function _checkTokens(\r\n        address[] calldata tokens,\r\n        bytes32 poolId\r\n    ) internal view {\r\n        (IERC20[] memory _tokens,,) = Vault.getPoolTokens(poolId);\r\n        if(tokens.length != _tokens.length) revert INVALID_TOKENS_LENGTH(_tokens.length);\r\n        for (uint256 i = 0; i < tokens.length; i++) {\r\n            if(tokens[i] != address(_tokens[i])) revert TOKENS_NOT_MATCH_POOL_TOKENS(i);\r\n        }\r\n    }\r\n\r\n    function _swapDeposit(bytes calldata swapData, IERC20 toToken) internal returns(uint256 returnAmount, uint256 spentAmount){\r\n        (,IAggregationRouterV5.SwapDescription memory desc,) = abi.decode(swapData[4:], (address, IAggregationRouterV5.SwapDescription, bytes));\r\n        \r\n        if(desc.srcToken == toToken){\r\n            if(desc.amount == 0) revert INVALID_SWAP_DESCRIPTION();\r\n            desc.srcToken.safeTransferFrom(msg.sender, address(this), desc.amount);\r\n            return (desc.amount, desc.amount);\r\n        }\r\n        \r\n        if(\r\n            bytes4(swapData[:4]) != IAggregationRouterV5.swap.selector || \r\n            desc.dstToken != toToken || \r\n            desc.amount == 0 ||\r\n            desc.dstReceiver != address(this)\r\n        ) revert INVALID_SWAP_DESCRIPTION();\r\n\r\n        bool isETH = (address(desc.srcToken) == address(0) || address(desc.srcToken) == address(0xEeeeeEeeeEeEeeEeEeEeeEEEeeeeEeeeeeeeEEeE));\r\n        if(!isETH){\r\n            desc.srcToken.safeTransferFrom(msg.sender, address(this), desc.amount);\r\n            desc.srcToken.approve(OneInchRouter, desc.amount);\r\n        }\r\n\r\n        {\r\n        uint256 value = isETH ? desc.amount : 0;\r\n        (bool success, bytes memory data) = OneInchRouter.call{value: value}(swapData);\r\n        if(!success) revert SWAP_NOT_SUCCESSFUL();\r\n        (returnAmount, spentAmount) = abi.decode(data, (uint256, uint256));\r\n        }\r\n\r\n        if(desc.amount > spentAmount){\r\n            if(isETH){\r\n                (bool success, ) = msg.sender.call{value: desc.amount - spentAmount}(\"\");\r\n                if(!success) revert TRANSFER_NOT_SUCCESSFUL();\r\n            }else{\r\n                desc.srcToken.safeTransfer(address(msg.sender), desc.amount - spentAmount);\r\n            }\r\n        }\r\n    }\r\n\r\n    function _swapWithdraw(bytes calldata swapData, IERC20 fromToken, uint256 maxAmount, address recipient) internal returns(uint256 returnAmount, uint256 dust){\r\n        (,IAggregationRouterV5.SwapDescription memory desc,) = abi.decode(swapData[4:], (address, IAggregationRouterV5.SwapDescription, bytes));\r\n        \r\n        if(desc.dstToken == fromToken){\r\n            fromToken.safeTransfer(recipient, maxAmount);\r\n            return (maxAmount, 0);\r\n        }\r\n        \r\n        if(\r\n            bytes4(swapData[:4]) != IAggregationRouterV5.swap.selector || \r\n            desc.srcToken != fromToken ||\r\n            desc.amount == 0 ||\r\n            desc.dstReceiver != recipient\r\n        ) revert INVALID_SWAP_DESCRIPTION();\r\n\r\n        desc.srcToken.approve(OneInchRouter, desc.amount);\r\n        (bool success, bytes memory data) = OneInchRouter.call(swapData);\r\n        if(!success) revert SWAP_NOT_SUCCESSFUL();\r\n        uint256 spentAmount;\r\n        (returnAmount, spentAmount) = abi.decode(data, (uint256, uint256));\r\n\r\n        if(maxAmount > spentAmount){\r\n            dust = maxAmount - spentAmount;\r\n            desc.srcToken.safeTransfer(recipient, dust);\r\n        } else if(maxAmount != spentAmount) revert INSUFFICIENT_AMOUNT();\r\n    }\r\n\r\n    function _checkMsgValue(bytes[] calldata swapData) internal view {\r\n        uint256 value;\r\n        for(uint256 i; i < swapData.length; i++){\r\n            (,IAggregationRouterV5.SwapDescription memory desc,) = abi.decode(swapData[i][4:], (address, IAggregationRouterV5.SwapDescription, bytes));\r\n            if(address(desc.srcToken) == address(0) || address(desc.srcToken) == address(0xEeeeeEeeeEeEeeEeEeEeeEEEeeeeEeeeeeeeEEeE)){\r\n                value += desc.amount;\r\n            }\r\n        }\r\n\r\n        if(msg.value != value) revert INVALID_MSG_VALUE();\r\n    }\r\n\r\n    function _convertToAddressArray(IERC20[] memory tokenArray) internal pure returns (address[] memory addresses) {\r\n        addresses = new address[](tokenArray.length);\r\n        for (uint256 i; i < tokenArray.length; i++) {\r\n            addresses[i] = address(tokenArray[i]);\r\n        }\r\n    }\r\n\r\n    /**\r\n     * @dev Change fee amount.\r\n     * @param _fee -New fee to collect from farms. [10^18 == 100%]\r\n     *\r\n     * Note: This function can only be called by ADMIN_ROLE.\r\n     */ \r\n    function setFee(uint256 _fee) external onlyRole(accessManager.ADMIN_ROLE()){\r\n        if(_fee > 1 ether) revert MAX_FEE_EXCEEDED(1 ether);\r\n        if(fee != _fee){\r\n            emit FeeChanged(fee, _fee); \r\n            fee = _fee;\r\n        }\r\n    }\r\n \r\n    function pause() external onlyRole(PAUSER_ROLE) {\r\n        _pause();\r\n    }\r\n \r\n    function unpause() external onlyRole(PAUSER_ROLE) {\r\n        _unpause();\r\n    }\r\n\r\n    function _authorizeUpgrade(address) internal override onlyRole(accessManager.ADMIN_ROLE()) {\r\n\r\n    }\r\n}\r\n",
  "sourcePath": "C:\\Users\\jugli\\Desktop\\uno\\uno-contracts\\contracts\\apps\\balancer\\UnoAssetRouterBalancer.sol",
  "compiler": {
    "name": "solc",
    "version": "0.8.10+commit.fc410830.Emscripten.clang"
  },
  "schemaVersion": "3.4.13",
  "updatedAt": "2023-06-12T06:57:49.042Z",
  "networkType": "ethereum",
  "devdoc": {
    "kind": "dev",
    "methods": {
      "constructor": {
        "custom:oz-upgrades-unsafe-allow": "constructor"
      },
      "deposit(address,uint256[],address[],uint256,address)": {
        "details": "Deposits tokens in the given pool. Creates new Farm contract if there isn't one deployed for the {lpPool} and deposits tokens in it.",
        "params": {
          "amounts": "- Amounts of tokens to deposit.",
          "lpPool": "- Address of the pool to deposit tokens in.",
          "minAmountLP": "- Minimum LP the user will receive from {tokens} deposit.",
          "recipient": "- Address which will receive the deposit.",
          "tokens": "- Tokens to deposit."
        },
        "returns": {
          "liquidity": "- Total liquidity sent to the farm (in lpTokens)."
        }
      },
      "depositETH(address,uint256[],address[],uint256,address)": {
        "details": "Autoconverts MATIC into WMATIC and deposits tokens in the given pool. Creates new Farm contract if there isn't one deployed for the {lpPool} and deposits tokens in it.",
        "params": {
          "amounts": "- Amounts of tokens to deposit.",
          "lpPool": "- Address of the pool to deposit tokens in.",
          "minAmountLP": "- Minimum LP the user will receive from {tokens} deposit.",
          "recipient": "- Address which will receive the deposit.",
          "tokens": "- Tokens to deposit."
        },
        "returns": {
          "liquidity": "- Total liquidity sent to the farm (in lpTokens)."
        }
      },
      "depositLP(address,uint256,address)": {
        "details": "Deposits tokens in the given pool. Creates new Farm contract if there isn't one deployed for the {lpPool} and deposits tokens in it. Emits a {Deposit} event.",
        "params": {
          "amount": "- LP Token amount to deposit.",
          "lpPool": "- Address of the pool to deposit tokens in.",
          "recipient": "- Address which will receive the deposit."
        }
      },
      "depositWithSwap(address,bytes[],uint256,address)": {
        "details": "Deposits tokens in the given pool with swap. Creates new Farm contract if there isn't one deployed for the {lpPool}, swaps {token} for pool tokens and deposits them. Emits a {Deposit} event.",
        "params": {
          "lpPool": "- Address of the pool to deposit tokens in.",
          "minAmountLP": "- Minimum LP the user will receive from {tokens} deposit.",
          "recipient": "- Address which will receive the deposit.",
          "swapData": "- Parameter with which 1inch router is being called with."
        },
        "returns": {
          "liquidity": "- Total liquidity sent to the farm (in lpTokens).",
          "sent": "- Total amount sent to the farm. "
        }
      },
      "distribute(address,((bytes32,uint256,uint256,uint256,bytes)[],address[],int256[])[],((bytes32,uint256,uint256,uint256,bytes)[],address[],int256[])[],address)": {
        "details": "Distributes tokens between users for a single {Farms[lpPool]}.",
        "params": {
          "feeSwapInfos": "- The data used to swap reward tokens for fees.",
          "feeTo": "- Address to collect fees to. Note: This function can only be called by the distributor.",
          "lpPool": "- The pool to distribute. ",
          "swapInfos": "- The data used to swap reward tokens for the needed tokens."
        }
      },
      "getTokens(address)": {
        "details": "Returns addresses of tokens in {lpPool}.",
        "params": {
          "lpPool": "- LP pool to check tokens in."
        },
        "returns": {
          "tokens": "- Token addresses."
        }
      },
      "paused()": {
        "details": "Returns true if the contract is paused, and false otherwise."
      },
      "proxiableUUID()": {
        "details": "Implementation of the ERC1822 {proxiableUUID} function. This returns the storage slot used by the implementation. It is used to validate that the this implementation remains valid after an upgrade. IMPORTANT: A proxy pointing at a proxiable contract should not be considered proxiable itself, because this risks bricking a proxy that upgrades to it, by delegating to itself until out of gas. Thus it is critical that this function revert if invoked through a proxy. This is guaranteed by the `notDelegated` modifier."
      },
      "setFee(uint256)": {
        "details": "Change fee amount.",
        "params": {
          "_fee": "-New fee to collect from farms. [10^18 == 100%] Note: This function can only be called by ADMIN_ROLE."
        }
      },
      "totalDeposits(address)": {
        "details": "Returns total amount locked in the pool. Doesn't take pending rewards into account.",
        "params": {
          "lpPool": "- LP pool to check total deposits in."
        },
        "returns": {
          "_0": "Total deposits (in LP tokens)."
        }
      },
      "upgradeTo(address)": {
        "details": "Upgrade the implementation of the proxy to `newImplementation`. Calls {_authorizeUpgrade}. Emits an {Upgraded} event."
      },
      "upgradeToAndCall(address,bytes)": {
        "details": "Upgrade the implementation of the proxy to `newImplementation`, and subsequently execute the function call encoded in `data`. Calls {_authorizeUpgrade}. Emits an {Upgraded} event."
      },
      "userStake(address,address)": {
        "details": "Returns LP tokens staked by the {_address} for the given {lpPool}.",
        "params": {
          "_address": "- The address to check stakes for.",
          "lpPool": "- LP pool to check stakes in."
        },
        "returns": {
          "_0": "Total user stake(in LP tokens)."
        }
      },
      "withdraw(address,bytes,uint256[],address)": {
        "details": "Withdraws tokens from the given pool. ",
        "params": {
          "lpPool": "- LP pool to withdraw from.",
          "minAmountsOut": "- Minimum token amounts the user will receive.",
          "recipient": "- The address which will receive tokens.",
          "userData": "- Balancer pool exit userData."
        },
        "returns": {
          "amounts": "- Token amounts sent to the {recipient}.",
          "liquidity": "- Total liquidity sent to the user (in lpTokens)."
        }
      },
      "withdrawETH(address,bytes,uint256[],address)": {
        "details": "Autoconverts WMATIC into MATIC and withdraws tokens from the given pool. ",
        "params": {
          "lpPool": "- LP pool to withdraw from.",
          "minAmountsOut": "- Minimum token amounts the user will receive.",
          "recipient": "- The address which will receive tokens.",
          "userData": "-  Balancer pool exit userData."
        },
        "returns": {
          "amounts": "- Token amounts sent to the {recipient}.",
          "liquidity": "- Total liquidity sent to the user (in lpTokens)."
        }
      },
      "withdrawLP(address,uint256,address)": {
        "details": "Withdraws LP tokens from the given pool. Emits a {Withdraw} event.",
        "params": {
          "amount": "- LP amount to withdraw. ",
          "lpPool": "- LP pool to withdraw from.",
          "recipient": "- The address which will receive tokens."
        }
      },
      "withdrawWithSwap(address,bytes,bytes[],address)": {
        "details": "Withdraws single token from the given pool. Emits a {Withdraw} event. Note: If there are any tokens left to be withdrawn after swaps they will be sent to the {{recipient}} in a respective token (not in {token}).",
        "params": {
          "lpPool": "- LP pool to withdraw from.",
          "recipient": "- Address which will receive the deposit.",
          "swapData": "- Parameters with which 1inch router is being called with.",
          "userData": "- Balancer pool exit userData."
        },
        "returns": {
          "amounts": "- Amounts sent to the {recipient} from swapData.",
          "dust": "- Dust amounts sent to the {recipient} left from swaps.",
          "liquidity": "- Total liquidity sent to the user (in lpTokens)."
        }
      }
    },
    "stateVariables": {
      "farmFactory": {
        "details": "Contract Variables: farmFactory - The contract that deploys new Farms and links them to {lpPool}s. accessManager - Role manager contract."
      }
    },
    "version": 1
  },
  "userdoc": {
    "kind": "user",
    "methods": {},
    "version": 1
  }
}