{
  "contractName": "UnoAssetRouterTrisolarisStableV2",
  "abi": [
    {
      "inputs": [],
      "stateMutability": "nonpayable",
      "type": "constructor"
    },
    {
      "anonymous": false,
      "inputs": [
        {
          "indexed": false,
          "internalType": "address",
          "name": "previousAdmin",
          "type": "address"
        },
        {
          "indexed": false,
          "internalType": "address",
          "name": "newAdmin",
          "type": "address"
        }
      ],
      "name": "AdminChanged",
      "type": "event"
    },
    {
      "anonymous": false,
      "inputs": [
        {
          "indexed": true,
          "internalType": "address",
          "name": "beacon",
          "type": "address"
        }
      ],
      "name": "BeaconUpgraded",
      "type": "event"
    },
    {
      "anonymous": false,
      "inputs": [
        {
          "indexed": true,
          "internalType": "address",
          "name": "lpPool",
          "type": "address"
        },
        {
          "indexed": true,
          "internalType": "address",
          "name": "sender",
          "type": "address"
        },
        {
          "indexed": true,
          "internalType": "address",
          "name": "recipient",
          "type": "address"
        },
        {
          "indexed": false,
          "internalType": "uint256",
          "name": "amount",
          "type": "uint256"
        }
      ],
      "name": "Deposit",
      "type": "event"
    },
    {
      "anonymous": false,
      "inputs": [
        {
          "indexed": true,
          "internalType": "address",
          "name": "lpPool",
          "type": "address"
        },
        {
          "indexed": false,
          "internalType": "uint256",
          "name": "reward",
          "type": "uint256"
        }
      ],
      "name": "Distribute",
      "type": "event"
    },
    {
      "anonymous": false,
      "inputs": [
        {
          "indexed": false,
          "internalType": "uint256",
          "name": "previousFee",
          "type": "uint256"
        },
        {
          "indexed": false,
          "internalType": "uint256",
          "name": "newFee",
          "type": "uint256"
        }
      ],
      "name": "FeeChanged",
      "type": "event"
    },
    {
      "anonymous": false,
      "inputs": [
        {
          "indexed": false,
          "internalType": "uint8",
          "name": "version",
          "type": "uint8"
        }
      ],
      "name": "Initialized",
      "type": "event"
    },
    {
      "anonymous": false,
      "inputs": [
        {
          "indexed": false,
          "internalType": "address",
          "name": "account",
          "type": "address"
        }
      ],
      "name": "Paused",
      "type": "event"
    },
    {
      "anonymous": false,
      "inputs": [
        {
          "indexed": false,
          "internalType": "address",
          "name": "account",
          "type": "address"
        }
      ],
      "name": "Unpaused",
      "type": "event"
    },
    {
      "anonymous": false,
      "inputs": [
        {
          "indexed": true,
          "internalType": "address",
          "name": "implementation",
          "type": "address"
        }
      ],
      "name": "Upgraded",
      "type": "event"
    },
    {
      "anonymous": false,
      "inputs": [
        {
          "indexed": true,
          "internalType": "address",
          "name": "lpPool",
          "type": "address"
        },
        {
          "indexed": true,
          "internalType": "address",
          "name": "sender",
          "type": "address"
        },
        {
          "indexed": true,
          "internalType": "address",
          "name": "recipient",
          "type": "address"
        },
        {
          "indexed": false,
          "internalType": "uint256",
          "name": "amount",
          "type": "uint256"
        }
      ],
      "name": "Withdraw",
      "type": "event"
    },
    {
      "inputs": [],
      "name": "WETH",
      "outputs": [
        {
          "internalType": "address",
          "name": "",
          "type": "address"
        }
      ],
      "stateMutability": "view",
      "type": "function"
    },
    {
      "inputs": [],
      "name": "accessManager",
      "outputs": [
        {
          "internalType": "contract IUnoAccessManager",
          "name": "",
          "type": "address"
        }
      ],
      "stateMutability": "view",
      "type": "function"
    },
    {
      "inputs": [],
      "name": "farmFactory",
      "outputs": [
        {
          "internalType": "contract IUnoFarmFactory",
          "name": "",
          "type": "address"
        }
      ],
      "stateMutability": "view",
      "type": "function"
    },
    {
      "inputs": [],
      "name": "fee",
      "outputs": [
        {
          "internalType": "uint256",
          "name": "",
          "type": "uint256"
        }
      ],
      "stateMutability": "view",
      "type": "function"
    },
    {
      "inputs": [],
      "name": "paused",
      "outputs": [
        {
          "internalType": "bool",
          "name": "",
          "type": "bool"
        }
      ],
      "stateMutability": "view",
      "type": "function"
    },
    {
      "inputs": [],
      "name": "proxiableUUID",
      "outputs": [
        {
          "internalType": "bytes32",
          "name": "",
          "type": "bytes32"
        }
      ],
      "stateMutability": "view",
      "type": "function"
    },
    {
      "inputs": [
        {
          "internalType": "address",
          "name": "newImplementation",
          "type": "address"
        }
      ],
      "name": "upgradeTo",
      "outputs": [],
      "stateMutability": "nonpayable",
      "type": "function"
    },
    {
      "inputs": [
        {
          "internalType": "address",
          "name": "newImplementation",
          "type": "address"
        },
        {
          "internalType": "bytes",
          "name": "data",
          "type": "bytes"
        }
      ],
      "name": "upgradeToAndCall",
      "outputs": [],
      "stateMutability": "payable",
      "type": "function"
    },
    {
      "inputs": [],
      "name": "version",
      "outputs": [
        {
          "internalType": "uint256",
          "name": "",
          "type": "uint256"
        }
      ],
      "stateMutability": "view",
      "type": "function"
    },
    {
      "stateMutability": "payable",
      "type": "receive"
    },
    {
      "inputs": [
        {
          "internalType": "address",
          "name": "_accessManager",
          "type": "address"
        },
        {
          "internalType": "address",
          "name": "_farmFactory",
          "type": "address"
        }
      ],
      "name": "initialize",
      "outputs": [],
      "stateMutability": "nonpayable",
      "type": "function"
    },
    {
      "inputs": [
        {
          "internalType": "address",
          "name": "swap",
          "type": "address"
        },
        {
          "internalType": "uint256[]",
          "name": "amounts",
          "type": "uint256[]"
        },
        {
          "internalType": "uint256",
          "name": "minAmountLP",
          "type": "uint256"
        },
        {
          "internalType": "address",
          "name": "recipient",
          "type": "address"
        }
      ],
      "name": "deposit",
      "outputs": [
        {
          "internalType": "uint256",
          "name": "liquidity",
          "type": "uint256"
        }
      ],
      "stateMutability": "nonpayable",
      "type": "function"
    },
    {
      "inputs": [
        {
          "internalType": "address",
          "name": "swap",
          "type": "address"
        },
        {
          "internalType": "uint256[]",
          "name": "amounts",
          "type": "uint256[]"
        },
        {
          "internalType": "uint256",
          "name": "minAmountLP",
          "type": "uint256"
        },
        {
          "internalType": "address",
          "name": "recipient",
          "type": "address"
        }
      ],
      "name": "depositETH",
      "outputs": [
        {
          "internalType": "uint256",
          "name": "liquidity",
          "type": "uint256"
        }
      ],
      "stateMutability": "payable",
      "type": "function"
    },
    {
      "inputs": [
        {
          "internalType": "address",
          "name": "swap",
          "type": "address"
        },
        {
          "internalType": "address",
          "name": "token",
          "type": "address"
        },
        {
          "internalType": "uint256",
          "name": "amount",
          "type": "uint256"
        },
        {
          "internalType": "bytes[]",
          "name": "swapData",
          "type": "bytes[]"
        },
        {
          "internalType": "uint256",
          "name": "minAmountLP",
          "type": "uint256"
        },
        {
          "internalType": "address",
          "name": "recipient",
          "type": "address"
        }
      ],
      "name": "depositSingleAsset",
      "outputs": [
        {
          "internalType": "uint256",
          "name": "sent",
          "type": "uint256"
        },
        {
          "internalType": "uint256",
          "name": "liquidity",
          "type": "uint256"
        }
      ],
      "stateMutability": "nonpayable",
      "type": "function"
    },
    {
      "inputs": [
        {
          "internalType": "address",
          "name": "swap",
          "type": "address"
        },
        {
          "internalType": "bytes[]",
          "name": "swapData",
          "type": "bytes[]"
        },
        {
          "internalType": "uint256",
          "name": "minAmountLP",
          "type": "uint256"
        },
        {
          "internalType": "address",
          "name": "recipient",
          "type": "address"
        }
      ],
      "name": "depositSingleETH",
      "outputs": [
        {
          "internalType": "uint256",
          "name": "sentETH",
          "type": "uint256"
        },
        {
          "internalType": "uint256",
          "name": "liquidity",
          "type": "uint256"
        }
      ],
      "stateMutability": "payable",
      "type": "function"
    },
    {
      "inputs": [
        {
          "internalType": "address",
          "name": "swap",
          "type": "address"
        },
        {
          "internalType": "uint256",
          "name": "amount",
          "type": "uint256"
        },
        {
          "internalType": "address",
          "name": "recipient",
          "type": "address"
        }
      ],
      "name": "depositLP",
      "outputs": [],
      "stateMutability": "nonpayable",
      "type": "function"
    },
    {
      "inputs": [
        {
          "internalType": "address",
          "name": "swap",
          "type": "address"
        },
        {
          "internalType": "uint256",
          "name": "amount",
          "type": "uint256"
        },
        {
          "internalType": "uint256[]",
          "name": "minAmounts",
          "type": "uint256[]"
        },
        {
          "internalType": "address",
          "name": "recipient",
          "type": "address"
        }
      ],
      "name": "withdraw",
      "outputs": [
        {
          "internalType": "uint256[]",
          "name": "amounts",
          "type": "uint256[]"
        }
      ],
      "stateMutability": "nonpayable",
      "type": "function"
    },
    {
      "inputs": [
        {
          "internalType": "address",
          "name": "swap",
          "type": "address"
        },
        {
          "internalType": "uint256",
          "name": "amount",
          "type": "uint256"
        },
        {
          "internalType": "uint256[]",
          "name": "minAmounts",
          "type": "uint256[]"
        },
        {
          "internalType": "address",
          "name": "recipient",
          "type": "address"
        }
      ],
      "name": "withdrawETH",
      "outputs": [
        {
          "internalType": "uint256[]",
          "name": "amounts",
          "type": "uint256[]"
        }
      ],
      "stateMutability": "nonpayable",
      "type": "function"
    },
    {
      "inputs": [
        {
          "internalType": "address",
          "name": "swap",
          "type": "address"
        },
        {
          "internalType": "uint256",
          "name": "amount",
          "type": "uint256"
        },
        {
          "internalType": "address",
          "name": "token",
          "type": "address"
        },
        {
          "internalType": "bytes[]",
          "name": "swapData",
          "type": "bytes[]"
        },
        {
          "internalType": "address",
          "name": "recipient",
          "type": "address"
        }
      ],
      "name": "withdrawSingleAsset",
      "outputs": [
        {
          "internalType": "uint256",
          "name": "amountToken",
          "type": "uint256"
        },
        {
          "internalType": "uint256[]",
          "name": "amounts",
          "type": "uint256[]"
        }
      ],
      "stateMutability": "nonpayable",
      "type": "function"
    },
    {
      "inputs": [
        {
          "internalType": "address",
          "name": "swap",
          "type": "address"
        },
        {
          "internalType": "uint256",
          "name": "amount",
          "type": "uint256"
        },
        {
          "internalType": "bytes[]",
          "name": "swapData",
          "type": "bytes[]"
        },
        {
          "internalType": "address",
          "name": "recipient",
          "type": "address"
        }
      ],
      "name": "withdrawSingleETH",
      "outputs": [
        {
          "internalType": "uint256",
          "name": "amountETH",
          "type": "uint256"
        },
        {
          "internalType": "uint256[]",
          "name": "amounts",
          "type": "uint256[]"
        }
      ],
      "stateMutability": "nonpayable",
      "type": "function"
    },
    {
      "inputs": [
        {
          "internalType": "address",
          "name": "swap",
          "type": "address"
        },
        {
          "internalType": "uint256",
          "name": "amount",
          "type": "uint256"
        },
        {
          "internalType": "address",
          "name": "recipient",
          "type": "address"
        }
      ],
      "name": "withdrawLP",
      "outputs": [],
      "stateMutability": "nonpayable",
      "type": "function"
    },
    {
      "inputs": [
        {
          "internalType": "address",
          "name": "swap",
          "type": "address"
        },
        {
          "components": [
            {
              "internalType": "address[]",
              "name": "route",
              "type": "address[]"
            },
            {
              "internalType": "uint256",
              "name": "amountOutMin",
              "type": "uint256"
            }
          ],
          "internalType": "struct IUnoFarmTrisolarisStable.SwapInfo[]",
          "name": "rewardSwapInfos",
          "type": "tuple[]"
        },
        {
          "components": [
            {
              "internalType": "address[]",
              "name": "route",
              "type": "address[]"
            },
            {
              "internalType": "uint256",
              "name": "amountOutMin",
              "type": "uint256"
            }
          ],
          "internalType": "struct IUnoFarmTrisolarisStable.SwapInfo[]",
          "name": "rewarderSwapInfos",
          "type": "tuple[]"
        },
        {
          "components": [
            {
              "internalType": "address[]",
              "name": "route",
              "type": "address[]"
            },
            {
              "internalType": "uint256",
              "name": "amountOutMin",
              "type": "uint256"
            }
          ],
          "internalType": "struct IUnoFarmTrisolarisStable.SwapInfo[2]",
          "name": "feeSwapInfos",
          "type": "tuple[2]"
        },
        {
          "internalType": "address",
          "name": "feeTo",
          "type": "address"
        }
      ],
      "name": "distribute",
      "outputs": [],
      "stateMutability": "nonpayable",
      "type": "function"
    },
    {
      "inputs": [
        {
          "internalType": "address",
          "name": "_address",
          "type": "address"
        },
        {
          "internalType": "address",
          "name": "swap",
          "type": "address"
        }
      ],
      "name": "userStake",
      "outputs": [
        {
          "internalType": "uint256",
          "name": "stakeLP",
          "type": "uint256"
        }
      ],
      "stateMutability": "view",
      "type": "function"
    },
    {
      "inputs": [
        {
          "internalType": "address",
          "name": "swap",
          "type": "address"
        }
      ],
      "name": "totalDeposits",
      "outputs": [
        {
          "internalType": "uint256",
          "name": "totalDepositsLP",
          "type": "uint256"
        }
      ],
      "stateMutability": "view",
      "type": "function"
    },
    {
      "inputs": [
        {
          "internalType": "address",
          "name": "swap",
          "type": "address"
        }
      ],
      "name": "getTokens",
      "outputs": [
        {
          "internalType": "contract IERC20[]",
          "name": "tokens",
          "type": "address[]"
        }
      ],
      "stateMutability": "view",
      "type": "function"
    },
    {
      "inputs": [
        {
          "internalType": "uint256",
          "name": "_fee",
          "type": "uint256"
        }
      ],
      "name": "setFee",
      "outputs": [],
      "stateMutability": "nonpayable",
      "type": "function"
    },
    {
      "inputs": [],
      "name": "pause",
      "outputs": [],
      "stateMutability": "nonpayable",
      "type": "function"
    },
    {
      "inputs": [],
      "name": "unpause",
      "outputs": [],
      "stateMutability": "nonpayable",
      "type": "function"
    }
  ],
  "bytecode": "0x60a0604052306080523480156200001557600080fd5b506200002062000026565b620000e8565b600054610100900460ff1615620000935760405162461bcd60e51b815260206004820152602760248201527f496e697469616c697a61626c653a20636f6e747261637420697320696e697469604482015266616c697a696e6760c81b606482015260840160405180910390fd5b60005460ff9081161015620000e6576000805460ff191660ff9081179091556040519081527f7f26b83ff96e1f2b6a682f133852f6798a09c465da95921460cefb38474024989060200160405180910390a15b565b60805161505c6200012060003960008181610580015281816105c001528181610dd301528181610e130152610f9d015261505c6000f3fe6080604052600436106101a05760003560e01c80636af5ccbd116100ec578063ad5c46481161008a578063ddca3f4311610064578063ddca3f43146104ff578063e50e637114610515578063e940325614610535578063fdcb60681461055557600080fd5b8063ad5c46481461049d578063b2858a77146104bf578063bc570c48146104df57600080fd5b80636fe46039116100c65780636fe460391461042757806376d18304146104475780638456cb59146104755780639a6595171461048a57600080fd5b80636af5ccbd146103a25780636c0a8e67146103c25780636d25e175146103ef57600080fd5b806351bdca3e116101595780635ad2cf8e116101335780635ad2cf8e146103175780635c975abb1461032a5780635eb5fa3e1461034d57806369fe0e2d1461038257600080fd5b806351bdca3e146102bf57806352d1902d146102ed57806354fd4d501461030257600080fd5b80633659cfe6146102015780633f4ba83a14610221578063450efe211461023657806346dafa2f1461026c578063485cc9551461028c5780634f1ef286146102ac57600080fd5b366101fc5733600080516020614f80833981519152146101fa5760405162461bcd60e51b815260206004820152601060248201526f09e9c98b2be8286868aa0a8beae8aa8960831b60448201526064015b60405180910390fd5b005b600080fd5b34801561020d57600080fd5b506101fa61021c36600461432d565b610575565b34801561022d57600080fd5b506101fa610655565b34801561024257600080fd5b5061025661025136600461432d565b61070c565b604051610263919061434a565b60405180910390f35b34801561027857600080fd5b506101fa610287366004614397565b610932565b34801561029857600080fd5b506101fa6102a73660046143d9565b610b91565b6101fa6102ba366004614458565b610dc8565b3480156102cb57600080fd5b506102df6102da3660046143d9565b610e99565b604051908152602001610263565b3480156102f957600080fd5b506102df610f90565b34801561030e57600080fd5b506102df600281565b6102df610325366004614522565b611043565b34801561033657600080fd5b5060335460ff166040519015158152602001610263565b34801561035957600080fd5b5061036d610368366004614630565b611465565b60408051928352602083019190915201610263565b34801561038e57600080fd5b506101fa61039d3660046146bf565b6118cd565b3480156103ae57600080fd5b506102df6103bd366004614522565b6119ec565b3480156103ce57600080fd5b506103e26103dd3660046146d8565b611ca7565b6040516102639190614786565b3480156103fb57600080fd5b5060c95461040f906001600160a01b031681565b6040516001600160a01b039091168152602001610263565b34801561043357600080fd5b506103e26104423660046146d8565b611e46565b34801561045357600080fd5b50610467610462366004614799565b612176565b60405161026392919061481d565b34801561048157600080fd5b506101fa61259e565b61036d610498366004614836565b612655565b3480156104a957600080fd5b5061040f600080516020614f8083398151915281565b3480156104cb57600080fd5b506104676104da3660046146d8565b612b99565b3480156104eb57600080fd5b506101fa6104fa36600461489b565b613044565b34801561050b57600080fd5b506102df60cc5481565b34801561052157600080fd5b506101fa610530366004614397565b613272565b34801561054157600080fd5b506102df61055036600461432d565b6133a8565b34801561056157600080fd5b5060ca5461040f906001600160a01b031681565b306001600160a01b037f00000000000000000000000000000000000000000000000000000000000000001614156105be5760405162461bcd60e51b81526004016101f19061494a565b7f00000000000000000000000000000000000000000000000000000000000000006001600160a01b0316610607600080516020614fc0833981519152546001600160a01b031690565b6001600160a01b03161461062d5760405162461bcd60e51b81526004016101f190614996565b61063681613496565b6040805160008082526020820190925261065291839190613528565b50565b60ca54604051632474521560e21b81527f65d7a28e3265b37a6474929f336521b332c1681b933f6cb9f3376673440d862a60048201819052336024830152916001600160a01b0316906391d1485490604401602060405180830381865afa1580156106c4573d6000803e3d6000fd5b505050506040513d601f19601f820116820180604052508101906106e891906149e2565b6107045760405162461bcd60e51b81526004016101f190614a04565b610652613693565b6040805160ff8082526120008201909252606091600091829160208201611fe08036833701905050905060005b60ff818116101561082e5760405162415c3360e91b815260ff821660048201526001600160a01b038616906382b8660090602401602060405180830381865afa9250505080156107a6575060408051601f3d908101601f191682019092526107a391810190614a33565b60015b6107e0573d8080156107d4576040519150601f19603f3d011682016040523d82523d6000602084013e6107d9565b606091505b505061082e565b80838360ff16815181106107f6576107f6614a50565b6001600160a01b03909216602092830291909101909101528361081881614a7c565b945050508061082681614a7c565b915050610739565b5060008260ff16116108765760405162461bcd60e51b815260206004820152601160248201527004e4f5f544f4b454e535f494e5f5357415607c1b60448201526064016101f1565b8160ff166001600160401b0381111561089157610891614412565b6040519080825280602002602001820160405280156108ba578160200160208202803683370190505b50925060005b8260ff168160ff16101561092a57818160ff16815181106108e3576108e3614a50565b6020026020010151848260ff168151811061090057610900614a50565b6001600160a01b03909216602092830291909101909101528061092281614a7c565b9150506108c0565b505050919050565b61093a6136e5565b6000821161097a5760405162461bcd60e51b815260206004820152600d60248201526c1393d7d513d2d15397d4d15395609a1b60448201526064016101f1565b60c95460405163f9d9331d60e01b81526001600160a01b038581166004830152600092169063f9d9331d90602401602060405180830381865afa1580156109c5573d6000803e3d6000fd5b505050506040513d601f19601f820116820180604052508101906109e99190614a33565b90506001600160a01b038116610a6b5760c954604051621849e360e61b81526001600160a01b0386811660048301529091169063061278c0906024016020604051808303816000875af1158015610a44573d6000803e3d6000fd5b505050506040513d601f19601f82011682018060405250810190610a689190614a33565b90505b610ae4338285846001600160a01b031663452ed4f16040518163ffffffff1660e01b8152600401602060405180830381865afa158015610aaf573d6000803e3d6000fd5b505050506040513d601f19601f82011682018060405250810190610ad39190614a33565b6001600160a01b031692919061372d565b604051636e553f6560e01b8152600481018490526001600160a01b038381166024830152821690636e553f6590604401600060405180830381600087803b158015610b2e57600080fd5b505af1158015610b42573d6000803e3d6000fd5b50505050816001600160a01b0316336001600160a01b0316856001600160a01b0316600080516020614fe083398151915286604051610b8391815260200190565b60405180910390a450505050565b600054610100900460ff1615808015610bb15750600054600160ff909116105b80610bcb5750303b158015610bcb575060005460ff166001145b610c2e5760405162461bcd60e51b815260206004820152602e60248201527f496e697469616c697a61626c653a20636f6e747261637420697320616c72656160448201526d191e481a5b9a5d1a585b1a5e995960921b60648201526084016101f1565b6000805460ff191660011790558015610c51576000805461ff0019166101001790555b6001600160a01b038316610c9c5760405162461bcd60e51b81526020600482015260126024820152712120a22fa0a1a1a2a9a9afa6a0a720a3a2a960711b60448201526064016101f1565b6001600160a01b038216610ce55760405162461bcd60e51b815260206004820152601060248201526f4241445f4641524d5f464143544f525960801b60448201526064016101f1565b610ced61379e565b60ca80546001600160a01b038086166001600160a01b0319928316811790935560c980549186169190921617905560408051631d6c8e3f60e21b815290516375b238fc916004808201926020929091908290030181865afa158015610d56573d6000803e3d6000fd5b505050506040513d601f19601f82011682018060405250810190610d7a9190614a9c565b60cb558015610dc3576000805461ff0019169055604051600181527f7f26b83ff96e1f2b6a682f133852f6798a09c465da95921460cefb38474024989060200160405180910390a15b505050565b306001600160a01b037f0000000000000000000000000000000000000000000000000000000000000000161415610e115760405162461bcd60e51b81526004016101f19061494a565b7f00000000000000000000000000000000000000000000000000000000000000006001600160a01b0316610e5a600080516020614fc0833981519152546001600160a01b031690565b6001600160a01b031614610e805760405162461bcd60e51b81526004016101f190614996565b610e8982613496565b610e9582826001613528565b5050565b60c95460405163f9d9331d60e01b81526001600160a01b038381166004830152600092839291169063f9d9331d90602401602060405180830381865afa158015610ee7573d6000803e3d6000fd5b505050506040513d601f19601f82011682018060405250810190610f0b9190614a33565b90506001600160a01b03811615610f8957604051630103c92b60e01b81526001600160a01b038581166004830152821690630103c92b90602401602060405180830381865afa158015610f62573d6000803e3d6000fd5b505050506040513d601f19601f82011682018060405250810190610f869190614a9c565b91505b5092915050565b6000306001600160a01b037f000000000000000000000000000000000000000000000000000000000000000016146110305760405162461bcd60e51b815260206004820152603860248201527f555550535570677261646561626c653a206d757374206e6f742062652063616c60448201527f6c6564207468726f7567682064656c656761746563616c6c000000000000000060648201526084016101f1565b50600080516020614fc083398151915290565b600061104d6136e5565b6000341161108b5760405162461bcd60e51b815260206004820152600b60248201526a1393d7d1551217d4d1539560aa1b60448201526064016101f1565b60006110968661070c565b905080518551146110de5760405162461bcd60e51b81526020600482015260126024820152710848288be829a9eaa9ca8a6be988a9c8ea8960731b60448201526064016101f1565b60c95460405163f9d9331d60e01b81526001600160a01b038881166004830152600092169063f9d9331d90602401602060405180830381865afa158015611129573d6000803e3d6000fd5b505050506040513d601f19601f8201168201806040525081019061114d9190614a33565b90506001600160a01b0381166111cf5760c954604051621849e360e61b81526001600160a01b0389811660048301529091169063061278c0906024016020604051808303816000875af11580156111a8573d6000803e3d6000fd5b505050506040513d601f19601f820116820180604052508101906111cc9190614a33565b90505b6000600080516020614f808339815191526001600160a01b031663d0e30db0346040518263ffffffff1660e01b81526004016000604051808303818588803b15801561121a57600080fd5b505af115801561122e573d6000803e3d6000fd5b505050505060005b8751811015611364576040516327b2595f60e11b8152600481018290526000906001600160a01b03851690634f64b2be90602401602060405180830381865afa158015611287573d6000803e3d6000fd5b505050506040513d601f19601f820116820180604052508101906112ab9190614a33565b90506001600160a01b038116600080516020614f8083398151915214156112f557348983815181106112df576112df614a50565b6020026020010181815250506001925050611352565b600089838151811061130957611309614a50565b602002602001015111156113505761135033308b858151811061132e5761132e614a50565b6020026020010151846001600160a01b031661372d909392919063ffffffff16565b505b8061135c81614ab5565b915050611236565b50806113a25760405162461bcd60e51b815260206004820152600d60248201526c1393d517d5d1551217d413d3d3609a1b60448201526064016101f1565b6113af88888589866137cd565b604051636e553f6560e01b8152600481018290526001600160a01b03878116602483015291955090831690636e553f6590604401600060405180830381600087803b1580156113fd57600080fd5b505af1158015611411573d6000803e3d6000fd5b50505050846001600160a01b0316336001600160a01b0316896001600160a01b0316600080516020614fe08339815191528760405161145291815260200190565b60405180910390a4505050949350505050565b6000806114706136e5565b600087116114b05760405162461bcd60e51b815260206004820152600d60248201526c1393d7d513d2d15397d4d15395609a1b60448201526064016101f1565b60006114bb8a61070c565b805190915086146115055760405162461bcd60e51b81526020600482015260146024820152730848288bea6ae82a0be8882a882be988a9c8ea8960631b60448201526064016101f1565b60c95460405163f9d9331d60e01b81526001600160a01b038c81166004830152600092169063f9d9331d90602401602060405180830381865afa158015611550573d6000803e3d6000fd5b505050506040513d601f19601f820116820180604052508101906115749190614a33565b90506001600160a01b0381166115f65760c954604051621849e360e61b81526001600160a01b038d811660048301529091169063061278c0906024016020604051808303816000875af11580156115cf573d6000803e3d6000fd5b505050506040513d601f19601f820116820180604052508101906115f39190614a33565b90505b61160b6001600160a01b038b1633308c61372d565b60405163095ea7b360e01b8152731111111254eeb25477b68fb85ed929f73a9605826004820152602481018a90526001600160a01b038b169063095ea7b3906044016020604051808303816000875af115801561166c573d6000803e3d6000fd5b505050506040513d601f19601f8201168201806040525081019061169091906149e2565b50600082516001600160401b038111156116ac576116ac614412565b6040519080825280602002602001820160405280156116d5578160200160208202803683370190505b508a9550905060001960005b84518110156117b1578c6001600160a01b031685828151811061170657611706614a50565b60200260200101516001600160a01b031614156117255780915061179f565b60008061176e8d8d8581811061173d5761173d614a50565b905060200281019061174f9190614ad0565b89868151811061176157611761614a50565b6020026020010151613a0f565b915091508185848151811061178557611785614a50565b602090810291909101015261179a818f614b16565b9d5050505b806117a981614ab5565b9150506116e1565b5080600019146117df578a8282815181106117ce576117ce614a50565b602002602001018181525050611805565b8a15611805576117ef8b87614b16565b95506118056001600160a01b038d16338d613c19565b506118138c82858a866137cd565b604051636e553f6560e01b8152600481018290526001600160a01b03888116602483015291955090831690636e553f6590604401600060405180830381600087803b15801561186157600080fd5b505af1158015611875573d6000803e3d6000fd5b50505050856001600160a01b0316336001600160a01b03168d6001600160a01b0316600080516020614fe0833981519152876040516118b691815260200190565b60405180910390a450505097509795505050505050565b60cb5460ca54604051632474521560e21b8152600481018390523360248201526001600160a01b03909116906391d1485490604401602060405180830381865afa15801561191f573d6000803e3d6000fd5b505050506040513d601f19601f8201168201806040525081019061194391906149e2565b61195f5760405162461bcd60e51b81526004016101f190614a04565b670de0b6b3a76400008211156119a15760405162461bcd60e51b81526020600482015260076024820152664241445f46454560c81b60448201526064016101f1565b8160cc5414610e955760cc5460408051918252602082018490527f5fc463da23c1b063e66f9e352006a7fbe8db7223c455dc429e881a2dfe2f94f1910160405180910390a15060cc55565b60006119f66136e5565b6000611a018661070c565b90508051855114611a495760405162461bcd60e51b81526020600482015260126024820152710848288be829a9eaa9ca8a6be988a9c8ea8960731b60448201526064016101f1565b60c95460405163f9d9331d60e01b81526001600160a01b038881166004830152600092169063f9d9331d90602401602060405180830381865afa158015611a94573d6000803e3d6000fd5b505050506040513d601f19601f82011682018060405250810190611ab89190614a33565b90506001600160a01b038116611b3a5760c954604051621849e360e61b81526001600160a01b0389811660048301529091169063061278c0906024016020604051808303816000875af1158015611b13573d6000803e3d6000fd5b505050506040513d601f19601f82011682018060405250810190611b379190614a33565b90505b60005b8651811015611be4576000878281518110611b5a57611b5a614a50565b60200260200101511115611bd257611bd23330898481518110611b7f57611b7f614a50565b6020026020010151856001600160a01b0316634f64b2be866040518263ffffffff1660e01b8152600401611bb591815260200190565b602060405180830381865afa158015610aaf573d6000803e3d6000fd5b80611bdc81614ab5565b915050611b3d565b50611bf287878488856137cd565b604051636e553f6560e01b8152600481018290526001600160a01b03868116602483015291945090821690636e553f6590604401600060405180830381600087803b158015611c4057600080fd5b505af1158015611c54573d6000803e3d6000fd5b50505050836001600160a01b0316336001600160a01b0316886001600160a01b0316600080516020614fe083398151915286604051611c9591815260200190565b60405180910390a45050949350505050565b60c95460405163f9d9331d60e01b81526001600160a01b03878116600483015260609260009291169063f9d9331d90602401602060405180830381865afa158015611cf6573d6000803e3d6000fd5b505050506040513d601f19601f82011682018060405250810190611d1a9190614a33565b90506001600160a01b038116611d425760405162461bcd60e51b81526004016101f190614b2d565b604051632d182be560e21b81526001600160a01b0382169063b460af9490611d7290899033903090600401614b56565b600060405180830381600087803b158015611d8c57600080fd5b505af1158015611da0573d6000803e3d6000fd5b50505050611df58787611dba611db58b61070c565b613c49565b8888808060200260200160405190810160405280939291908181526020018383602002808284376000920191909152508a9250613cf2915050565b9150826001600160a01b0316336001600160a01b0316886001600160a01b0316600080516020614fa083398151915289604051611e3491815260200190565b60405180910390a45095945050505050565b60c95460405163f9d9331d60e01b81526001600160a01b03878116600483015260609260009291169063f9d9331d90602401602060405180830381865afa158015611e95573d6000803e3d6000fd5b505050506040513d601f19601f82011682018060405250810190611eb99190614a33565b90506001600160a01b038116611ee15760405162461bcd60e51b81526004016101f190614b2d565b6000611eef611db58961070c565b604051632d182be560e21b81529091506001600160a01b0383169063b460af9490611f22908a9033903090600401614b56565b600060405180830381600087803b158015611f3c57600080fd5b505af1158015611f50573d6000803e3d6000fd5b50505050611f95888883898980806020026020016040519081016040528093929190818152602001838360200280828437600092019190915250309250613cf2915050565b925060005b815181101561212557600080516020614f808339815191526001600160a01b0316828281518110611fcd57611fcd614a50565b60200260200101516001600160a01b0316146120385761203385858381518110611ff957611ff9614a50565b602002602001015184848151811061201357612013614a50565b60200260200101516001600160a01b0316613c199092919063ffffffff16565b612113565b600080516020614f808339815191526001600160a01b0316632e1a7d4d85838151811061206757612067614a50565b60200260200101516040518263ffffffff1660e01b815260040161208d91815260200190565b600060405180830381600087803b1580156120a757600080fd5b505af11580156120bb573d6000803e3d6000fd5b50505050846001600160a01b03166108fc8583815181106120de576120de614a50565b60200260200101519081150290604051600060405180830381858888f19350505050158015612111573d6000803e3d6000fd5b505b8061211d81614ab5565b915050611f9a565b50836001600160a01b0316336001600160a01b0316896001600160a01b0316600080516020614fa08339815191528a60405161216391815260200190565b60405180910390a4505095945050505050565b60c95460405163f9d9331d60e01b81526001600160a01b03888116600483015260009260609284929091169063f9d9331d90602401602060405180830381865afa1580156121c8573d6000803e3d6000fd5b505050506040513d601f19601f820116820180604052508101906121ec9190614a33565b90506001600160a01b0381166122145760405162461bcd60e51b81526004016101f190614b2d565b6000612222611db58b61070c565b805190915086146122755760405162461bcd60e51b815260206004820152601e60248201527f494e5055545f504152414d535f4c454e475448535f4e4f545f4d41544348000060448201526064016101f1565b80516001600160401b0381111561228e5761228e614412565b6040519080825280602002602001820160405280156122b7578160200160208202803683370190505b50604051632d182be560e21b81529093506001600160a01b0383169063b460af94906122eb908c9033903090600401614b56565b600060405180830381600087803b15801561230557600080fd5b505af1158015612319573d6000803e3d6000fd5b5050505061232a8a8a838630613cf2565b925060005b815181101561253757886001600160a01b031682828151811061235457612354614a50565b60200260200101516001600160a01b031614156123b75783818151811061237d5761237d614a50565b6020026020010151856123909190614b75565b945060008482815181106123a6576123a6614a50565b602002602001018181525050612525565b8181815181106123c9576123c9614a50565b60200260200101516001600160a01b031663095ea7b3731111111254eeb25477b68fb85ed929f73a96058286848151811061240657612406614a50565b60200260200101516040518363ffffffff1660e01b815260040161243f9291906001600160a01b03929092168252602082015260400190565b6020604051808303816000875af115801561245e573d6000803e3d6000fd5b505050506040513d601f19601f8201168201806040525081019061248291906149e2565b506000806124b38a8a8581811061249b5761249b614a50565b90506020028101906124ad9190614ad0565b8d613a0f565b90925090506124c28288614b75565b9650808684815181106124d7576124d7614a50565b602002602001018181516124eb9190614b16565b915081815250506125228887858151811061250857612508614a50565b602002602001015186868151811061201357612013614a50565b50505b8061252f81614ab5565b91505061232f565b5061254c6001600160a01b0389168686613c19565b846001600160a01b0316336001600160a01b03168b6001600160a01b0316600080516020614fa08339815191528c60405161258991815260200190565b60405180910390a45050965096945050505050565b60ca54604051632474521560e21b81527f65d7a28e3265b37a6474929f336521b332c1681b933f6cb9f3376673440d862a60048201819052336024830152916001600160a01b0316906391d1485490604401602060405180830381865afa15801561260d573d6000803e3d6000fd5b505050506040513d601f19601f8201168201806040525081019061263191906149e2565b61264d5760405162461bcd60e51b81526004016101f190614a04565b610652613e05565b6000806126606136e5565b6000341161269e5760405162461bcd60e51b815260206004820152600b60248201526a1393d7d1551217d4d1539560aa1b60448201526064016101f1565b60006126a98861070c565b805190915086146126f35760405162461bcd60e51b81526020600482015260146024820152730848288bea6ae82a0be8882a882be988a9c8ea8960631b60448201526064016101f1565b60c95460405163f9d9331d60e01b81526001600160a01b038a81166004830152600092169063f9d9331d90602401602060405180830381865afa15801561273e573d6000803e3d6000fd5b505050506040513d601f19601f820116820180604052508101906127629190614a33565b90506001600160a01b0381166127e45760c954604051621849e360e61b81526001600160a01b038b811660048301529091169063061278c0906024016020604051808303816000875af11580156127bd573d6000803e3d6000fd5b505050506040513d601f19601f820116820180604052508101906127e19190614a33565b90505b6000349050600080516020614f808339815191526001600160a01b031663d0e30db0826040518263ffffffff1660e01b81526004016000604051808303818588803b15801561283257600080fd5b505af1158015612846573d6000803e3d6000fd5b505060405163095ea7b360e01b8152731111111254eeb25477b68fb85ed929f73a960582600482015260248101859052600080516020614f80833981519152935063095ea7b3925060440190506020604051808303816000875af11580156128b2573d6000803e3d6000fd5b505050506040513d601f19601f820116820180604052508101906128d691906149e2565b50600083516001600160401b038111156128f2576128f2614412565b60405190808252806020026020018201604052801561291b578160200160208202803683370190505b509195508591905060001960005b8551811015612a0357600080516020614f808339815191526001600160a01b031686828151811061295c5761295c614a50565b60200260200101516001600160a01b0316141561297b578091506129f1565b6000806129b78e8e8581811061299357612993614a50565b90506020028101906129a59190614ad0565b8a868151811061176157611761614a50565b909250905081156129e257818584815181106129d5576129d5614a50565b6020026020010181815250505b6129ec8187614b16565b955050505b806129fb81614ab5565b915050612929565b508060001914612a315782828281518110612a2057612a20614a50565b602002602001018181525050612ad2565b8215612ad257612a418388614b16565b604051632e1a7d4d60e01b815260048101859052909750600080516020614f8083398151915290632e1a7d4d90602401600060405180830381600087803b158015612a8b57600080fd5b505af1158015612a9f573d6000803e3d6000fd5b505060405133925085156108fc02915085906000818181858888f19350505050158015612ad0573d6000803e3d6000fd5b505b50612ae08b82868b876137cd565b604051636e553f6560e01b8152600481018290526001600160a01b03898116602483015291965090841690636e553f6590604401600060405180830381600087803b158015612b2e57600080fd5b505af1158015612b42573d6000803e3d6000fd5b50505050866001600160a01b0316336001600160a01b03168c6001600160a01b0316600080516020614fe083398151915288604051612b8391815260200190565b60405180910390a4505050509550959350505050565b60c95460405163f9d9331d60e01b81526001600160a01b03878116600483015260009260609284929091169063f9d9331d90602401602060405180830381865afa158015612beb573d6000803e3d6000fd5b505050506040513d601f19601f82011682018060405250810190612c0f9190614a33565b90506001600160a01b038116612c375760405162461bcd60e51b81526004016101f190614b2d565b6000612c45611db58a61070c565b80519091508614612c985760405162461bcd60e51b815260206004820152601e60248201527f494e5055545f504152414d535f4c454e475448535f4e4f545f4d41544348000060448201526064016101f1565b80516001600160401b03811115612cb157612cb1614412565b604051908082528060200260200182016040528015612cda578160200160208202803683370190505b50604051632d182be560e21b81529093506001600160a01b0383169063b460af9490612d0e908b9033903090600401614b56565b600060405180830381600087803b158015612d2857600080fd5b505af1158015612d3c573d6000803e3d6000fd5b50505050612d4d8989838630613cf2565b925060005b8151811015612f5c57600080516020614f808339815191526001600160a01b0316828281518110612d8557612d85614a50565b60200260200101516001600160a01b03161415612de857838181518110612dae57612dae614a50565b602002602001015185612dc19190614b75565b94506000848281518110612dd757612dd7614a50565b602002602001018181525050612f4a565b818181518110612dfa57612dfa614a50565b60200260200101516001600160a01b031663095ea7b3731111111254eeb25477b68fb85ed929f73a960582868481518110612e3757612e37614a50565b60200260200101516040518363ffffffff1660e01b8152600401612e709291906001600160a01b03929092168252602082015260400190565b6020604051808303816000875af1158015612e8f573d6000803e3d6000fd5b505050506040513d601f19601f82011682018060405250810190612eb391906149e2565b50600080612ef28a8a85818110612ecc57612ecc614a50565b9050602002810190612ede9190614ad0565b600080516020614f80833981519152613a0f565b9092509050612f018288614b75565b965080868481518110612f1657612f16614a50565b60200260200101818151612f2a9190614b16565b91508181525050612f478887858151811061250857612508614a50565b50505b80612f5481614ab5565b915050612d52565b50604051632e1a7d4d60e01b815260048101859052600080516020614f8083398151915290632e1a7d4d90602401600060405180830381600087803b158015612fa457600080fd5b505af1158015612fb8573d6000803e3d6000fd5b50506040516001600160a01b038816925086156108fc02915086906000818181858888f19350505050158015612ff2573d6000803e3d6000fd5b50846001600160a01b0316336001600160a01b03168a6001600160a01b0316600080516020614fa08339815191528b60405161303091815260200190565b60405180910390a450509550959350505050565b61304c6136e5565b60ca54604051632474521560e21b81527ffbd454f36a7e1a388bd6fc3ab10d434aa4578f811acbbcf33afb1c697486313c60048201819052336024830152916001600160a01b0316906391d1485490604401602060405180830381865afa1580156130bb573d6000803e3d6000fd5b505050506040513d601f19601f820116820180604052508101906130df91906149e2565b6130fb5760405162461bcd60e51b81526004016101f190614a04565b60c95460405163f9d9331d60e01b81526001600160a01b038a81166004830152600092169063f9d9331d90602401602060405180830381865afa158015613146573d6000803e3d6000fd5b505050506040513d601f19601f8201168201806040525081019061316a9190614a33565b90506001600160a01b0381166131925760405162461bcd60e51b81526004016101f190614b2d565b6040805180820182526001600160a01b03858116825260cc5460208301529151636d94834360e11b815260009284169163db290686916131de918d918d918d918d918d91600401614c92565b6020604051808303816000875af11580156131fd573d6000803e3d6000fd5b505050506040513d601f19601f820116820180604052508101906132219190614a9c565b9050896001600160a01b03167fc1d32ad5cca423e7dda2123dbf8c482f8e77d00b631c06e903a47f2cec1334df8260405161325e91815260200190565b60405180910390a250505050505050505050565b60c95460405163f9d9331d60e01b81526001600160a01b038581166004830152600092169063f9d9331d90602401602060405180830381865afa1580156132bd573d6000803e3d6000fd5b505050506040513d601f19601f820116820180604052508101906132e19190614a33565b90506001600160a01b0381166133095760405162461bcd60e51b81526004016101f190614b2d565b604051632d182be560e21b81526001600160a01b0382169063b460af949061333990869033908790600401614b56565b600060405180830381600087803b15801561335357600080fd5b505af1158015613367573d6000803e3d6000fd5b50505050816001600160a01b0316336001600160a01b0316856001600160a01b0316600080516020614fa083398151915286604051610b8391815260200190565b60c95460405163f9d9331d60e01b81526001600160a01b038381166004830152600092839291169063f9d9331d90602401602060405180830381865afa1580156133f6573d6000803e3d6000fd5b505050506040513d601f19601f8201168201806040525081019061341a9190614a33565b90506001600160a01b0381161561349057806001600160a01b031663168a48226040518163ffffffff1660e01b8152600401602060405180830381865afa158015613469573d6000803e3d6000fd5b505050506040513d601f19601f8201168201806040525081019061348d9190614a9c565b91505b50919050565b60cb5460ca54604051632474521560e21b8152600481018390523360248201526001600160a01b03909116906391d1485490604401602060405180830381865afa1580156134e8573d6000803e3d6000fd5b505050506040513d601f19601f8201168201806040525081019061350c91906149e2565b610e955760405162461bcd60e51b81526004016101f190614a04565b7f4910fdfa16fed3260ed0e7147f7cc6da11a60208b5b9406d12a635614ffd91435460ff161561355b57610dc383613e42565b826001600160a01b03166352d1902d6040518163ffffffff1660e01b8152600401602060405180830381865afa9250505080156135b5575060408051601f3d908101601f191682019092526135b291810190614a9c565b60015b6136185760405162461bcd60e51b815260206004820152602e60248201527f45524331393637557067726164653a206e657720696d706c656d656e7461746960448201526d6f6e206973206e6f74205555505360901b60648201526084016101f1565b600080516020614fc083398151915281146136875760405162461bcd60e51b815260206004820152602960248201527f45524331393637557067726164653a20756e737570706f727465642070726f786044820152681a58589b195555525160ba1b60648201526084016101f1565b50610dc3838383613ede565b61369b613f03565b6033805460ff191690557f5db9ee0a495bf2e6ff9c91a7834c1ba4fdd244a5e8aa4e537bd38aeae4b073aa335b6040516001600160a01b03909116815260200160405180910390a1565b60335460ff161561372b5760405162461bcd60e51b815260206004820152601060248201526f14185d5cd8589b194e881c185d5cd95960821b60448201526064016101f1565b565b6040516001600160a01b03808516602483015283166044820152606481018290526137989085906323b872dd60e01b906084015b60408051601f198184030181529190526020810180516001600160e01b03166001600160e01b031990931692909217909152613f4c565b50505050565b600054610100900460ff166137c55760405162461bcd60e51b81526004016101f190614db2565b61372b61401e565b60008060005b86518110156138d35760008782815181106137f0576137f0614a50565b602002602001015111156138c1578161380857600191505b85818151811061381a5761381a614a50565b60200260200101516001600160a01b031663095ea7b38989848151811061384357613843614a50565b60200260200101516040518363ffffffff1660e01b815260040161387c9291906001600160a01b03929092168252602082015260400190565b6020604051808303816000875af115801561389b573d6000803e3d6000fd5b505050506040513d601f19601f820116820180604052508101906138bf91906149e2565b505b806138cb81614ab5565b9150506137d3565b50806139195760405162461bcd60e51b81526020600482015260156024820152741393d7d3125455525112551657d41493d592511151605a1b60448201526064016101f1565b604051634d49e87d60e01b81526001600160a01b03881690634d49e87d9061394990899088904290600401614dfd565b6020604051808303816000875af1158015613968573d6000803e3d6000fd5b505050506040513d601f19601f8201168201806040525081019061398c9190614a9c565b9150613a058383856001600160a01b031663452ed4f16040518163ffffffff1660e01b8152600401602060405180830381865afa1580156139d1573d6000803e3d6000fd5b505050506040513d601f19601f820116820180604052508101906139f59190614a33565b6001600160a01b03169190613c19565b5095945050505050565b6040516370a0823160e01b8152306004820152600090819081906001600160a01b038516906370a0823190602401602060405180830381865afa158015613a5a573d6000803e3d6000fd5b505050506040513d601f19601f82011682018060405250810190613a7e9190614a9c565b9050600080731111111254eeb25477b68fb85ed929f73a9605826001600160a01b03168888604051613ab1929190614e22565b6000604051808303816000865af19150503d8060008114613aee576040519150601f19603f3d011682016040523d82523d6000602084013e613af3565b606091505b509150915081613b3b5760405162461bcd60e51b815260206004820152601360248201527214d5d05417d393d517d4d550d0d154d4d19553606a1b60448201526064016101f1565b80806020019051810190613b4f9190614e32565b6040516370a0823160e01b815230600482015291965094506000906001600160a01b038816906370a0823190602401602060405180830381865afa158015613b9b573d6000803e3d6000fd5b505050506040513d601f19601f82011682018060405250810190613bbf9190614a9c565b905085613bcc8583614b16565b14613c0d5760405162461bcd60e51b815260206004820152601160248201527010905117d4915515549397d05353d55395607a1b60448201526064016101f1565b50505050935093915050565b6040516001600160a01b038316602482015260448101829052610dc390849063a9059cbb60e01b90606401613761565b606081516001600160401b03811115613c6457613c64614412565b604051908082528060200260200182016040528015613c8d578160200160208202803683370190505b50905060005b825181101561349057828181518110613cae57613cae614a50565b6020026020010151828281518110613cc857613cc8614a50565b6001600160a01b039092166020928302919091019091015280613cea81614ab5565b915050613c93565b60608351835114613d3e5760405162461bcd60e51b81526020600482015260166024820152750848288be9a929cbe829a9eaa9ca8a6be988a9c8ea8960531b60448201526064016101f1565b60405163031cd52b60e41b81526001600160a01b038716906331cd52b090613d6e90889087904290600401614e56565b6000604051808303816000875af1158015613d8d573d6000803e3d6000fd5b505050506040513d6000823e601f3d908101601f19168201604052613db59190810190614e7f565b905060005b8451811015613a0557613df383838381518110613dd957613dd9614a50565b602002602001015187848151811061201357612013614a50565b80613dfd81614ab5565b915050613dba565b613e0d6136e5565b6033805460ff191660011790557f62e78cea01bee320cd4e420270b5ea74000d11b0c9f74754ebdbfc544b05a2586136c83390565b6001600160a01b0381163b613eaf5760405162461bcd60e51b815260206004820152602d60248201527f455243313936373a206e657720696d706c656d656e746174696f6e206973206e60448201526c1bdd08184818dbdb9d1c9858dd609a1b60648201526084016101f1565b600080516020614fc083398151915280546001600160a01b0319166001600160a01b0392909216919091179055565b613ee783614051565b600082511180613ef45750805b15610dc3576137988383614091565b60335460ff1661372b5760405162461bcd60e51b815260206004820152601460248201527314185d5cd8589b194e881b9bdd081c185d5cd95960621b60448201526064016101f1565b6000613fa1826040518060400160405280602081526020017f5361666545524332303a206c6f772d6c6576656c2063616c6c206661696c6564815250856001600160a01b03166141859092919063ffffffff16565b805190915015610dc35780806020019051810190613fbf91906149e2565b610dc35760405162461bcd60e51b815260206004820152602a60248201527f5361666545524332303a204552433230206f7065726174696f6e20646964206e6044820152691bdd081cdd58d8d9595960b21b60648201526084016101f1565b600054610100900460ff166140455760405162461bcd60e51b81526004016101f190614db2565b6033805460ff19169055565b61405a81613e42565b6040516001600160a01b038216907fbc7cd75a20ee27fd9adebab32041f755214dbc6bffa90cc0225b39da2e5c2d3b90600090a250565b60606001600160a01b0383163b6140f95760405162461bcd60e51b815260206004820152602660248201527f416464726573733a2064656c65676174652063616c6c20746f206e6f6e2d636f6044820152651b9d1c9858dd60d21b60648201526084016101f1565b600080846001600160a01b0316846040516141149190614f30565b600060405180830381855af49150503d806000811461414f576040519150601f19603f3d011682016040523d82523d6000602084013e614154565b606091505b509150915061417c82826040518060600160405280602781526020016150006027913961419e565b95945050505050565b606061419484846000856141d7565b90505b9392505050565b606083156141ad575081614197565b8251156141bd5782518084602001fd5b8160405162461bcd60e51b81526004016101f19190614f4c565b6060824710156142385760405162461bcd60e51b815260206004820152602660248201527f416464726573733a20696e73756666696369656e742062616c616e636520666f6044820152651c8818d85b1b60d21b60648201526084016101f1565b6001600160a01b0385163b61428f5760405162461bcd60e51b815260206004820152601d60248201527f416464726573733a2063616c6c20746f206e6f6e2d636f6e747261637400000060448201526064016101f1565b600080866001600160a01b031685876040516142ab9190614f30565b60006040518083038185875af1925050503d80600081146142e8576040519150601f19603f3d011682016040523d82523d6000602084013e6142ed565b606091505b50915091506142fd82828661419e565b979650505050505050565b6001600160a01b038116811461065257600080fd5b803561432881614308565b919050565b60006020828403121561433f57600080fd5b813561419781614308565b6020808252825182820181905260009190848201906040850190845b8181101561438b5783516001600160a01b031683529284019291840191600101614366565b50909695505050505050565b6000806000606084860312156143ac57600080fd5b83356143b781614308565b92506020840135915060408401356143ce81614308565b809150509250925092565b600080604083850312156143ec57600080fd5b82356143f781614308565b9150602083013561440781614308565b809150509250929050565b634e487b7160e01b600052604160045260246000fd5b604051601f8201601f191681016001600160401b038111828210171561445057614450614412565b604052919050565b6000806040838503121561446b57600080fd5b823561447681614308565b91506020838101356001600160401b038082111561449357600080fd5b818601915086601f8301126144a757600080fd5b8135818111156144b9576144b9614412565b6144cb601f8201601f19168501614428565b915080825287848285010111156144e157600080fd5b80848401858401376000848284010152508093505050509250929050565b60006001600160401b0382111561451857614518614412565b5060051b60200190565b6000806000806080858703121561453857600080fd5b843561454381614308565b93506020858101356001600160401b0381111561455f57600080fd5b8601601f8101881361457057600080fd5b803561458361457e826144ff565b614428565b81815260059190911b8201830190838101908a8311156145a257600080fd5b928401925b828410156145c0578335825292840192908401906145a7565b9650505050604086013592506145da90506060860161431d565b905092959194509250565b60008083601f8401126145f757600080fd5b5081356001600160401b0381111561460e57600080fd5b6020830191508360208260051b850101111561462957600080fd5b9250929050565b600080600080600080600060c0888a03121561464b57600080fd5b873561465681614308565b9650602088013561466681614308565b95506040880135945060608801356001600160401b0381111561468857600080fd5b6146948a828b016145e5565b9095509350506080880135915060a08801356146af81614308565b8091505092959891949750929550565b6000602082840312156146d157600080fd5b5035919050565b6000806000806000608086880312156146f057600080fd5b85356146fb81614308565b94506020860135935060408601356001600160401b0381111561471d57600080fd5b614729888289016145e5565b909450925050606086013561473d81614308565b809150509295509295909350565b600081518084526020808501945080840160005b8381101561477b5781518752958201959082019060010161475f565b509495945050505050565b602081526000614197602083018461474b565b60008060008060008060a087890312156147b257600080fd5b86356147bd81614308565b95506020870135945060408701356147d481614308565b935060608701356001600160401b038111156147ef57600080fd5b6147fb89828a016145e5565b909450925050608087013561480f81614308565b809150509295509295509295565b828152604060208201526000614194604083018461474b565b60008060008060006080868803121561484e57600080fd5b853561485981614308565b945060208601356001600160401b0381111561487457600080fd5b614880888289016145e5565b90955093505060408601359150606086013561473d81614308565b600080600080600080600060a0888a0312156148b657600080fd5b87356148c181614308565b965060208801356001600160401b03808211156148dd57600080fd5b6148e98b838c016145e5565b909850965060408a013591508082111561490257600080fd5b61490e8b838c016145e5565b909650945060608a013591508082111561492757600080fd5b508801604081018a101561493a57600080fd5b915060808801356146af81614308565b6020808252602c908201527f46756e6374696f6e206d7573742062652063616c6c6564207468726f7567682060408201526b19195b1959d85d1958d85b1b60a21b606082015260800190565b6020808252602c908201527f46756e6374696f6e206d7573742062652063616c6c6564207468726f7567682060408201526b6163746976652070726f787960a01b606082015260800190565b6000602082840312156149f457600080fd5b8151801515811461419757600080fd5b60208082526015908201527410d05313115497d393d517d055551213d492569151605a1b604082015260600190565b600060208284031215614a4557600080fd5b815161419781614308565b634e487b7160e01b600052603260045260246000fd5b634e487b7160e01b600052601160045260246000fd5b600060ff821660ff811415614a9357614a93614a66565b60010192915050565b600060208284031215614aae57600080fd5b5051919050565b6000600019821415614ac957614ac9614a66565b5060010190565b6000808335601e19843603018112614ae757600080fd5b8301803591506001600160401b03821115614b0157600080fd5b60200191503681900382131561462957600080fd5b600082821015614b2857614b28614a66565b500390565b6020808252600f908201526e4641524d5f4e4f545f45584953545360881b604082015260600190565b9283526001600160a01b03918216602084015216604082015260600190565b60008219821115614b8857614b88614a66565b500190565b60008235603e19833603018112614ba357600080fd5b90910192915050565b81835260006020808501808196506005915085821b81018560005b88811015614c84578383038a52614bde8289614b8d565b60408085018235601e19843603018112614bf757600080fd5b830180356001600160401b03811115614c0f57600080fd5b808a1b3603851315614c2057600080fd5b928752908290526060860191908901906000905b80821015614c66578235614c4781614308565b6001600160a01b03168452928a0192918a019160019190910190614c34565b50505090870135938701939093529885019890850190600101614bc7565b509098975050505050505050565b60a081526000614ca660a08301888a614bac565b602083820381850152614cba82888a614bac565b9150604084830381860152828390508184018860005b6002811015614d8a578683038452614ce8828c614b8d565b8584018135601e19833603018112614cff57600080fd5b820180356001600160401b03811115614d1757600080fd5b8060051b3603841315614d2957600080fd5b88875291829052880190600090606087015b81831015614d6b578335614d4e81614308565b6001600160a01b03168152928a0192600192909201918a01614d3b565b938a0135968a0196909652505093860193925090850190600101614cd0565b505087516001600160a01b031660608801526020880151608088015294506142fd9350505050565b6020808252602b908201527f496e697469616c697a61626c653a20636f6e7472616374206973206e6f74206960408201526a6e697469616c697a696e6760a81b606082015260800190565b606081526000614e10606083018661474b565b60208301949094525060400152919050565b8183823760009101908152919050565b60008060408385031215614e4557600080fd5b505080516020909101519092909150565b838152606060208201526000614e6f606083018561474b565b9050826040830152949350505050565b60006020808385031215614e9257600080fd5b82516001600160401b03811115614ea857600080fd5b8301601f81018513614eb957600080fd5b8051614ec761457e826144ff565b81815260059190911b82018301908381019087831115614ee657600080fd5b928401925b828410156142fd57835182529284019290840190614eeb565b60005b83811015614f1f578181015183820152602001614f07565b838111156137985750506000910152565b60008251614f42818460208701614f04565b9190910192915050565b6020815260008251806020840152614f6b816040850160208701614f04565b601f01601f1916919091016040019291505056fe000000000000000000000000c9bdeed33cd01541e1eed10f90519d2c06fe3feb3115d1449a7b732c986cba18244e897a450f61e1bb8d589cd2e69e6c8924f9f7360894a13ba1a3210667c828492db98dca3e2076cc3735a920a3ca505d382bbc7cfff908a4b583f36430b25d75964c458d8ede8a99bd61be750e97ee1b2f3a96416464726573733a206c6f772d6c6576656c2064656c65676174652063616c6c206661696c6564a2646970667358221220dea29fda64951924225b93f7794f795611a90804ff9e66a7fcff223c274c1cc564736f6c634300080a0033",
  "immutableReferences": {
    "570": [
      {
        "length": 32,
        "start": 1408
      },
      {
        "length": 32,
        "start": 1472
      },
      {
        "length": 32,
        "start": 3539
      },
      {
        "length": 32,
        "start": 3603
      },
      {
        "length": 32,
        "start": 3997
      }
    ]
  },
  "source": "// SPDX-License-Identifier: MIT\r\npragma solidity 0.8.10;\r\n\r\nimport { IUnoFarmTrisolarisStable as Farm } from \"../interfaces/IUnoFarmTrisolarisStable.sol\";\r\nimport \"../../../interfaces/IUnoFarmFactory.sol\";\r\nimport \"../../../interfaces/IUnoAccessManager.sol\";\r\nimport \"../../../interfaces/ISwap.sol\";\r\nimport '../../../interfaces/IWETH.sol';\r\nimport \"@openzeppelin/contracts-upgradeable/token/ERC20/IERC20Upgradeable.sol\";\r\nimport \"@openzeppelin/contracts-upgradeable/token/ERC20/utils/SafeERC20Upgradeable.sol\";\r\nimport \"@openzeppelin/contracts-upgradeable/proxy/utils/Initializable.sol\";\r\nimport \"@openzeppelin/contracts-upgradeable/security/PausableUpgradeable.sol\";\r\nimport \"@openzeppelin/contracts-upgradeable/proxy/utils/UUPSUpgradeable.sol\";\r\n\r\ncontract UnoAssetRouterTrisolarisStableV2 is Initializable, PausableUpgradeable, UUPSUpgradeable {\r\n    using SafeERC20Upgradeable for IERC20Upgradeable;\r\n\r\n    /**\r\n     * @dev Contract Variables:\r\n     * farmFactory - The contract that deploys new Farms and links them to {swap}s.\r\n     * accessManager - Role manager contract.\r\n     */\r\n    IUnoFarmFactory public farmFactory;\r\n    IUnoAccessManager public accessManager;\r\n\r\n    bytes32 private ADMIN_ROLE;\r\n    bytes32 private constant DISTRIBUTOR_ROLE = keccak256(\"DISTRIBUTOR_ROLE\");\r\n    bytes32 private constant PAUSER_ROLE = keccak256(\"PAUSER_ROLE\");\r\n\r\n    uint256 public fee;\r\n\r\n    address public constant WETH = 0xC9BdeEd33CD01541e1eeD10f90519d2C06Fe3feB;\r\n    address private constant OneInchRouter = 0x1111111254EEB25477B68fb85Ed929f73A960582;\r\n\r\n    uint256 public constant version = 2;\r\n\r\n    event Deposit(address indexed lpPool, address indexed sender, address indexed recipient, uint256 amount);\r\n    event Withdraw(address indexed lpPool, address indexed sender, address indexed recipient, uint256 amount);\r\n    event Distribute(address indexed lpPool, uint256 reward);\r\n\r\n    event FeeChanged(uint256 previousFee, uint256 newFee);\r\n\r\n    modifier onlyRole(bytes32 role){\r\n        require(accessManager.hasRole(role, msg.sender), 'CALLER_NOT_AUTHORIZED');\r\n        _;\r\n    }\r\n\r\n    // ============ Methods ============\r\n\r\n    /// @custom:oz-upgrades-unsafe-allow constructor\r\n    constructor() {\r\n        _disableInitializers();\r\n    }\r\n\r\n    function initialize(address _accessManager, address _farmFactory) external initializer {\r\n        require (_accessManager != address(0), 'BAD_ACCESS_MANAGER');\r\n        require (_farmFactory != address(0), 'BAD_FARM_FACTORY');\r\n\r\n        __Pausable_init();\r\n        accessManager = IUnoAccessManager(_accessManager);\r\n        farmFactory = IUnoFarmFactory(_farmFactory);\r\n\r\n        ADMIN_ROLE = accessManager.ADMIN_ROLE();\r\n    }\r\n\r\n    receive() external payable {\r\n        require(msg.sender == WETH, 'ONLY_ACCEPT_WETH'); // only accept ETH via fallback from the WETH contract\r\n    }\r\n\r\n    /**\r\n     * @dev Deposits tokens in the given pool. Creates new Farm contract if there isn't one deployed for the {swap} and deposits tokens in it. Emits a {Deposit} event.\r\n     * @param swap - Address of the Swap contract.\r\n     * @param amounts - Amounts of tokens to deposit.\r\n     * @param minAmountLP - Minimum LP the user will receive from {amounts} deposit.\r\n     * @param recipient - Address which will receive the deposit.\r\n\r\n     * @return liquidity - Total liquidity sent to the farm (in lpTokens).\r\n     */\r\n    function deposit(address swap, uint256[] memory amounts, uint256 minAmountLP, address recipient) external whenNotPaused returns (uint256 liquidity) {\r\n        IERC20[] memory tokens = getTokens(swap);\r\n        require(amounts.length == tokens.length, \"BAD_AMOUNTS_LENGTH\");\r\n        Farm farm = Farm(farmFactory.Farms(swap));\r\n        if (farm == Farm(address(0))) {\r\n            farm = Farm(farmFactory.createFarm(swap));\r\n        }\r\n\r\n        for (uint256 i = 0; i < amounts.length; i++) { \r\n            if (amounts[i] > 0) {\r\n                IERC20Upgradeable(farm.tokens(i)).safeTransferFrom(msg.sender, address(this), amounts[i]); \r\n            }\r\n        }\r\n \r\n        liquidity = _addLiquidity(swap, amounts, tokens, minAmountLP, farm);\r\n        farm.deposit(liquidity, recipient);\r\n\r\n        emit Deposit(swap, msg.sender, recipient, liquidity);\r\n    }\r\n\r\n    /**\r\n     * @dev Autoconverts ETH into WETH and deposits tokens in the given pool. Creates new Farm contract if there isn't one deployed for the {swap} and deposits tokens in it.\r\n     * @param swap - Address of the Swap contract.\r\n     * @param amounts - Amounts of tokens to deposit.\r\n     * @param minAmountLP - Minimum LP the user will receive from {amounts} deposit.\r\n     * @param recipient - Address which will receive the deposit.\r\n\r\n     * @return liquidity - Total liquidity sent to the farm (in lpTokens).\r\n     */\r\n    function depositETH(address swap, uint256[] memory amounts, uint256 minAmountLP, address recipient) external payable whenNotPaused returns(uint256 liquidity){\r\n        require(msg.value > 0, \"NO_ETH_SENT\");\r\n        IERC20[] memory tokens = getTokens(swap);\r\n        require(amounts.length == tokens.length, \"BAD_AMOUNTS_LENGTH\");\r\n\r\n        Farm farm = Farm(farmFactory.Farms(swap));\r\n        if (farm == Farm(address(0))) {\r\n            farm = Farm(farmFactory.createFarm(swap));\r\n        }\r\n\r\n        bool WETHInTokens;\r\n        IWETH(WETH).deposit{value: msg.value}();\r\n        for (uint256 i = 0; i < amounts.length; i++) {\r\n            address token = farm.tokens(i);\r\n            if(token == WETH){\r\n                amounts[i] = msg.value;\r\n                WETHInTokens = true;\r\n                continue;\r\n            }\r\n            if(amounts[i] > 0){\r\n                IERC20Upgradeable(token).safeTransferFrom(msg.sender, address(this), amounts[i]);\r\n            }\r\n        }\r\n        require(WETHInTokens, \"NOT_WETH_POOL\");\r\n        \r\n        liquidity = _addLiquidity(swap, amounts, tokens, minAmountLP, farm);\r\n        farm.deposit(liquidity, recipient);\r\n\r\n        emit Deposit(swap, msg.sender, recipient, liquidity); \r\n    }\r\n\r\n    /**\r\n     * @dev Deposits single token in the given pool. Creates new Farm contract if there isn't one deployed for the {swap}, swaps {token} for pool tokens and deposits them. Emits a {Deposit} event.\r\n     * @param swap - Address of the pool to deposit tokens in.\r\n     * @param token  - Address of a token to enter the pool.\r\n     * @param amount - Amount of token sent.\r\n     * @param swapData - Parameter with which 1inch router is being called with.\r\n     * @param minAmountLP - Minimum LP the user will receive from {tokens} deposit.\r\n     * @param recipient - Address which will receive the deposit.\r\n     \r\n     * @return sent - Total {token} amount sent to the farm. \r\n     * @return liquidity - Total liquidity sent to the farm (in lpTokens).\r\n     */\r\n    function depositSingleAsset(address swap, address token, uint256 amount, bytes[] calldata swapData, uint256 minAmountLP, address recipient) external whenNotPaused returns(uint256 sent, uint256 liquidity){\r\n        require (amount > 0, \"NO_TOKEN_SENT\");\r\n        IERC20[] memory tokens = getTokens(swap);\r\n        require (swapData.length == tokens.length, 'BAD_SWAP_DATA_LENGTH');\r\n        \r\n        Farm farm = Farm(farmFactory.Farms(swap));\r\n        if(farm == Farm(address(0))){\r\n            farm = Farm(farmFactory.createFarm(swap));\r\n        }\r\n\r\n        IERC20Upgradeable(token).safeTransferFrom(msg.sender, address(this), amount);\r\n        IERC20Upgradeable(token).approve(OneInchRouter, amount);\r\n\r\n        uint256[] memory amounts = new uint256[](tokens.length);\r\n        {\r\n        sent = amount;\r\n        int256 tokenIndex = -1;\r\n        for (uint256 i = 0; i < tokens.length; i++) {\r\n            if (address(tokens[i]) == token) {\r\n                tokenIndex = int(i);\r\n                continue;\r\n            }\r\n            (uint256 returnAmount, uint256 spentAmount) = _swap(swapData[i], address(tokens[i]));\r\n            amounts[i] = returnAmount;\r\n            amount -= spentAmount;\r\n        }\r\n\r\n        if (tokenIndex != -1) {\r\n            amounts[uint256(tokenIndex)] = amount;\r\n        } else if (amount > 0) {\r\n            sent -= amount;\r\n            IERC20Upgradeable(token).safeTransfer(msg.sender, amount);\r\n        }\r\n        }\r\n\r\n        liquidity = _addLiquidity(swap, amounts, tokens, minAmountLP, farm);\r\n        farm.deposit(liquidity, recipient);\r\n\r\n        emit Deposit(swap, msg.sender, recipient, liquidity);\r\n    }\r\n\r\n    /**\r\n     * @dev Deposits single ETH in the given pool. Creates new Farm contract if there isn't one deployed for the {swap}, swaps ETH for pool tokens and deposits them. Emits a {Deposit} event.\r\n     * @param swap - Address of the pool to deposit tokens in.\r\n     * @param swapData - Parameter with which 1inch router is being called with.\r\n     * @param minAmountLP - Minimum LP the user will receive from {tokens} deposit.\r\n     * @param recipient - Address which will receive the deposit.\r\n     \r\n     * @return sentETH - Total ETH amount sent to the farm. \r\n     * @return liquidity - Total liquidity sent to the farm (in lpTokens).\r\n     */\r\n    function depositSingleETH(address swap, bytes[] calldata swapData, uint256 minAmountLP, address recipient) external payable whenNotPaused returns(uint256 sentETH, uint256 liquidity){\r\n        require (msg.value > 0, \"NO_ETH_SENT\");\r\n        IERC20[] memory tokens = getTokens(swap);\r\n        require (swapData.length == tokens.length, 'BAD_SWAP_DATA_LENGTH');\r\n        \r\n        Farm farm = Farm(farmFactory.Farms(swap));\r\n        if(farm == Farm(address(0))){\r\n            farm = Farm(farmFactory.createFarm(swap));\r\n        }\r\n\r\n        uint256 amount = msg.value;\r\n        IWETH(WETH).deposit{value: amount}();\r\n        IERC20Upgradeable(WETH).approve(OneInchRouter, amount);\r\n\r\n        uint256[] memory amounts = new uint256[](tokens.length);\r\n        {\r\n        sentETH = amount;\r\n        int256 wethIndex = -1;\r\n        for (uint256 i = 0; i < tokens.length; i++) {\r\n            if (address(tokens[i]) == WETH) {\r\n                wethIndex = int(i);\r\n                continue;\r\n            }\r\n            (uint256 returnAmount, uint256 spentAmount) = _swap(swapData[i], address(tokens[i]));\r\n            if (returnAmount > 0) {\r\n                amounts[i] = returnAmount;\r\n            }\r\n            amount -= spentAmount;\r\n        }\r\n\r\n        if (wethIndex != -1) {\r\n            amounts[uint(wethIndex)] = amount;\r\n        } else if (amount > 0){\r\n            sentETH -= amount;\r\n            IWETH(WETH).withdraw(amount);\r\n            payable(msg.sender).transfer(amount);\r\n        }\r\n        }\r\n\r\n        liquidity = _addLiquidity(swap, amounts, tokens, minAmountLP, farm);\r\n        farm.deposit(liquidity, recipient);\r\n\r\n        emit Deposit(swap, msg.sender, recipient, liquidity);\r\n    }\r\n\r\n    /**\r\n     * @dev Deposits tokens in the given pool. Creates new Farm contract if there isn't one deployed for the {lpPair} and deposits tokens in it. Emits a {Deposit} event.\r\n     * @param swap - Address of the pool to deposit tokens in.\r\n     * @param amount - LP Token amount to deposit.\r\n     * @param recipient - Address which will receive the deposit.\r\n     */\r\n    function depositLP(address swap, uint256 amount, address recipient) external whenNotPaused{\r\n        require(amount > 0, \"NO_TOKEN_SENT\");\r\n        Farm farm = Farm(farmFactory.Farms(swap));\r\n        if(farm == Farm(address(0))){\r\n            farm = Farm(farmFactory.createFarm(swap));\r\n        }\r\n\r\n        IERC20Upgradeable(farm.lpPair()).safeTransferFrom(msg.sender, address(farm), amount);\r\n        farm.deposit(amount, recipient);\r\n\r\n        emit Deposit(swap, msg.sender, recipient, amount); \r\n    }\r\n\r\n    /** \r\n     * @dev Withdraws tokens from the given pool. Emits a {Withdraw} event.\r\n     * @param swap - Address of the Swap contract.\r\n     * @param amount - Amounts of LP tokens to withdraw.\r\n     * @param minAmounts - Minimum amounts of tokens sent to {recipient}.\r\n     * @param recipient - The address which will receive tokens.\r\n\r\n     * @return amounts - Token amounts sent to {recipient}, an array of zeros if withdrawLP == false.\r\n     */\r\n    function withdraw(\r\n        address swap,\r\n        uint256 amount,\r\n        uint256[] calldata minAmounts,\r\n        address recipient\r\n    ) external returns (uint256[] memory amounts) {\r\n        Farm farm = Farm(farmFactory.Farms(swap));\r\n        require(farm != Farm(address(0)), \"FARM_NOT_EXISTS\");\r\n\r\n        farm.withdraw(amount, msg.sender, address(this));\r\n        amounts = _removeLiquidity(swap, amount, _convertToAddressArray(getTokens(swap)), minAmounts, recipient);\r\n\r\n        emit Withdraw(swap, msg.sender, recipient, amount);\r\n    }\r\n\r\n        /** \r\n     * @dev Autoconverts WETH into ETH and withdraws tokens from the given pool. \r\n     * @param swap - LP pool to withdraw from.\r\n     * @param amount - LP amount to withdraw. \r\n     * @param minAmounts - Minimum token amounts the user will receive.\r\n     * @param recipient - The address which will receive tokens.\r\n\r\n     * @return amounts - Token amounts sent to the {recipient}\r\n     */ \r\n    function withdrawETH(address swap, uint256 amount, uint256[] calldata minAmounts, address recipient) external returns(uint256[] memory amounts){ \r\n        Farm farm = Farm(farmFactory.Farms(swap));\r\n        require(farm != Farm(address(0)), \"FARM_NOT_EXISTS\");\r\n\r\n        address[] memory tokens = _convertToAddressArray(getTokens(swap));\r\n        farm.withdraw(amount, msg.sender, address(this));\r\n        amounts = _removeLiquidity(swap, amount, tokens, minAmounts, address(this));\r\n\r\n        for (uint256 i = 0; i < tokens.length; i++) {\r\n            if (tokens[i] != WETH) {\r\n                IERC20Upgradeable(tokens[i]).safeTransfer(recipient, amounts[i]);\r\n                continue;\r\n            }\r\n            IWETH(WETH).withdraw(amounts[i]);\r\n            payable(recipient).transfer(amounts[i]);\r\n        } \r\n        emit Withdraw(swap, msg.sender, recipient, amount);  \r\n    }\r\n\r\n    /**\r\n     * @dev Withdraws single token from the given pool. Emits a {Withdraw} event. Note: If there are any tokens left to be withdrawn after swaps they will be sent to the {{recipient}} in a respective token (not in {token}).\r\n     * @param swap - LP pool to withdraw from.\r\n     * @param amount - LP amount to withdraw. \r\n     * @param token  - Address of a token to exit the pool with.\r\n     * @param swapData - Parameters with which 1inch router is being called with.\r\n     * @param recipient - Address which will receive the deposit.\r\n     \r\n     * @return amountToken - {token} amount sent to the {recipient}.\r\n     * @return amounts - Dust amounts sent to the {recipient}.\r\n     */\r\n    function withdrawSingleAsset(address swap, uint256 amount, address token, bytes[] calldata swapData, address recipient) external returns(uint256 amountToken, uint256[] memory amounts){\r\n        Farm farm = Farm(farmFactory.Farms(swap));\r\n        require(farm != Farm(address(0)),'FARM_NOT_EXISTS');\r\n\r\n        address[] memory tokens = _convertToAddressArray(getTokens(swap));\r\n        require (swapData.length == tokens.length, 'INPUT_PARAMS_LENGTHS_NOT_MATCH');\r\n\r\n        amounts = new uint256[](tokens.length);\r\n        farm.withdraw(amount, msg.sender, address(this));\r\n        amounts = _removeLiquidity(swap, amount, tokens, amounts, address(this));\r\n\r\n        for (uint256 i = 0; i < tokens.length; i++) {\r\n            if (tokens[i] == token) {\r\n                amountToken += amounts[i];\r\n                amounts[i] = 0;\r\n                continue;\r\n            }\r\n            IERC20(tokens[i]).approve(OneInchRouter, amounts[i]);\r\n            (uint256 returnAmount, uint256 spentAmount) = _swap(swapData[i], token);\r\n            amountToken += returnAmount;\r\n            // Dust\r\n            amounts[i] -= spentAmount;\r\n            IERC20Upgradeable(tokens[i]).safeTransfer(recipient, amounts[i]);\r\n        }\r\n        \r\n        IERC20Upgradeable(token).safeTransfer(recipient, amountToken);\r\n\r\n        emit Withdraw(swap, msg.sender, recipient, amount);\r\n    }\r\n     \r\n    /**\r\n     * @dev Withdraws single ETH from the given pool. Emits a {Withdraw} event. Note: If there are any tokens left to be withdrawn after swaps they will be sent to the {{recipient}} in a respective token (not in ETH).\r\n     * @param swap - LP pool to withdraw from.\r\n     * @param amount - LP amount to withdraw. \r\n     * @param swapData - Parameters with which 1inch router is being called with.\r\n     * @param recipient - Address which will receive the deposit.\r\n     \r\n     * @return amountETH - ETH amount sent to the {recipient}.\r\n     * @return amounts - Dust amounts sent to the {recipient}.\r\n     */\r\n    function withdrawSingleETH(address swap, uint256 amount, bytes[] calldata swapData, address recipient) external returns(uint256 amountETH, uint256[] memory amounts){\r\n        Farm farm = Farm(farmFactory.Farms(swap));\r\n        require(farm != Farm(address(0)),'FARM_NOT_EXISTS');\r\n\r\n        address[] memory tokens = _convertToAddressArray(getTokens(swap));\r\n        require (swapData.length == tokens.length, 'INPUT_PARAMS_LENGTHS_NOT_MATCH');\r\n\r\n        amounts = new uint256[](tokens.length);\r\n        farm.withdraw(amount, msg.sender, address(this));\r\n        amounts = _removeLiquidity(swap, amount, tokens, amounts, address(this));\r\n\r\n        for (uint256 i = 0; i < tokens.length; i++) {\r\n            if (tokens[i] == WETH) {\r\n                amountETH += amounts[i];\r\n                amounts[i] = 0;\r\n                continue;\r\n            }\r\n            IERC20(tokens[i]).approve(OneInchRouter, amounts[i]);\r\n            (uint256 returnAmount, uint256 spentAmount) = _swap(swapData[i], WETH);\r\n            amountETH += returnAmount;\r\n            // Dust\r\n            amounts[i] -= spentAmount;\r\n            IERC20Upgradeable(tokens[i]).safeTransfer(recipient, amounts[i]);\r\n        }\r\n\r\n        IWETH(WETH).withdraw(amountETH);\r\n        payable(recipient).transfer(amountETH);\r\n\r\n        emit Withdraw(swap, msg.sender, recipient, amount);\r\n    }\r\n\r\n    /** \r\n     * @dev Withdraws LP tokens from the given pool. Emits a {Withdraw} event.\r\n     * @param swap - LP pool to withdraw from.\r\n     * @param amount - LP amount to withdraw. \r\n     * @param recipient - The address which will receive tokens.\r\n     */ \r\n    function withdrawLP(address swap, uint256 amount, address recipient) external {\r\n        Farm farm = Farm(farmFactory.Farms(swap));\r\n        require(farm != Farm(address(0)),'FARM_NOT_EXISTS');\r\n        \r\n        farm.withdraw(amount, msg.sender, recipient);\r\n        emit Withdraw(swap, msg.sender, recipient, amount);  \r\n    }\r\n\r\n    /**\r\n     * @dev Distributes tokens between users.\r\n     * @param swap - Address of the Swap contract.\r\n\r\n     * @param rewardSwapInfos - Arrays of structs with token arrays describing swap routes from reward to tokens in {swap} and minimum amounts of output tokens that must be received for the transaction not to revert.\r\n     * @param rewarderSwapInfos - Arrays of structs with token arrays describing swap routes from rewarder to tokens in {swap} and minimum amounts of output tokens that must be received for the transaction not to revert.\r\n     * @param feeSwapInfos - Arrays of structs with token arrays describing swap routes (rewardTokenToFeeToken, rewarderTokenToFeeToken) and minimum amounts of output tokens that must be received for the transaction not to revert.\r\n     * @param feeTo - Address to collect fees to.\r\n     *\r\n     * Note: This function can only be called by the distributor.\r\n     */\r\n    function distribute(\r\n        address swap,\r\n        Farm.SwapInfo[] calldata rewardSwapInfos,\r\n        Farm.SwapInfo[] calldata rewarderSwapInfos,\r\n        Farm.SwapInfo[2] calldata feeSwapInfos,\r\n        address feeTo\r\n    ) external whenNotPaused onlyRole(DISTRIBUTOR_ROLE) {\r\n        Farm farm = Farm(farmFactory.Farms(swap));\r\n        require(farm != Farm(address(0)), \"FARM_NOT_EXISTS\");\r\n\r\n        uint256 reward = farm.distribute(\r\n            rewardSwapInfos,\r\n            rewarderSwapInfos,\r\n            feeSwapInfos,\r\n            Farm.FeeInfo(feeTo, fee)\r\n        );\r\n        emit Distribute(swap, reward);\r\n    }\r\n\r\n    /**\r\n     * @dev Returns tokens staked by the {_address} for the given {swap}.\r\n     * @param _address - The address to check stakes for.\r\n     * @param swap - Address of the Swap contract.\r\n\r\n     * @return stakeLP - Total user stake(in LP tokens).\r\n     */\r\n    function userStake(address _address, address swap) external view returns (uint256 stakeLP) {\r\n        Farm farm = Farm(farmFactory.Farms(swap));\r\n        if (farm != Farm(address(0))) {\r\n            stakeLP = farm.userBalance(_address);\r\n        }\r\n    }\r\n\r\n    /**\r\n     * @dev Returns total amount locked in the pool. Doesn't take pending rewards into account.\r\n     * @param swap - Address of the Swap contract.\r\n\r\n     * @return totalDepositsLP - Total deposits (in LP tokens).\r\n     */\r\n    function totalDeposits(address swap) external view returns (uint256 totalDepositsLP) {\r\n        Farm farm = Farm(farmFactory.Farms(swap));\r\n        if (farm != Farm(address(0))) {\r\n            totalDepositsLP = farm.getTotalDeposits();\r\n        }\r\n    }\r\n\r\n    /**\r\n     * @dev Deposits assets to router\r\n     */ \r\n    function _addLiquidity(\r\n        address swap,\r\n        uint256[] memory amounts, \r\n        IERC20[] memory tokens,\r\n        uint256 minAmountLP,\r\n        Farm farm\r\n    ) internal returns(uint256 liquidity){\r\n        bool joinPool;\r\n        for (uint256 i = 0; i < amounts.length; i++) {\r\n            if(amounts[i] > 0){\r\n                if(!joinPool){\r\n                    joinPool = true;\r\n                }\r\n                tokens[i].approve(address(swap), amounts[i]);\r\n            }\r\n        }\r\n        require (joinPool, 'NO_LIQUIDITY_PROVIDED');\r\n        liquidity = ISwap(swap).addLiquidity(amounts, minAmountLP, block.timestamp);\r\n        IERC20Upgradeable(farm.lpPair()).safeTransfer(address(farm), liquidity);\r\n    }\r\n\r\n    /**\r\n     * @dev Withdraws assets from router.\r\n     */ \r\n    function _removeLiquidity(\r\n        address swap,\r\n        uint256 amount, \r\n        address[] memory tokens,\r\n        uint256[] memory minAmounts,\r\n        address recipient\r\n    ) internal returns(uint256[] memory amounts){\r\n        require(minAmounts.length == tokens.length, \"BAD_MIN_AMOUNTS_LENGTH\");\r\n        amounts = ISwap(swap).removeLiquidity(amount, minAmounts, block.timestamp);\r\n        for (uint256 i = 0; i < tokens.length; i++) {\r\n            IERC20Upgradeable(tokens[i]).safeTransfer(recipient, amounts[i]);\r\n        }\r\n    }\r\n\r\n    /**\r\n     * @dev Swaps assets using 1inch exchange.\r\n     */  \r\n    function _swap(bytes calldata swapData, address toToken) internal returns(uint256 returnAmount, uint256 spentAmount){\r\n        uint256 balanceBefore = IERC20Upgradeable(toToken).balanceOf(address(this));\r\n        (bool success, bytes memory data) = OneInchRouter.call(swapData);\r\n        require(success, \"SWAP_NOT_SUCCESSFUL\");\r\n\r\n        (returnAmount, spentAmount) = abi.decode(data, (uint256, uint256));\r\n        //checks if all {{toToken}}s from swap were transfered to this address\r\n        uint256 balanceAfter = IERC20Upgradeable(toToken).balanceOf(address(this));\r\n        require(balanceAfter - balanceBefore == returnAmount, \"BAD_RETURN_AMOUNT\");\r\n    }\r\n\r\n    function _convertToAddressArray(IERC20[] memory tokenArray) internal pure returns (address[] memory addresses) {\r\n        addresses = new address[](tokenArray.length);\r\n        for (uint256 i = 0; i < tokenArray.length; i++) {\r\n            addresses[i] = address(tokenArray[i]);\r\n        }\r\n    }\r\n\r\n    /**\r\n     * @dev Returns addresses of tokens in {swap}.\r\n     * @param swap - Swap to check tokens in.\r\n\r\n     * @return tokens - Array of token addresses.\r\n     */  \r\n    function getTokens(address swap) public view returns(IERC20[] memory tokens){\r\n        uint8 tokenCount;\r\n        address[] memory _tokens = new address[](type(uint8).max);\r\n        for (uint8 i = 0; i < type(uint8).max; i++) {\r\n            try ISwap(swap).getToken(i) returns (address token) {\r\n                _tokens[i] = token;\r\n                tokenCount++;\r\n            } catch (bytes memory /*lowLevelData*/) {\r\n                break;\r\n            }\r\n        }\r\n        require(tokenCount > 0, \"NO_TOKENS_IN_SWAP\");\r\n\r\n        tokens = new IERC20[](tokenCount);\r\n        for (uint8 i = 0; i < tokenCount; i++) {\r\n            tokens[i] = IERC20(_tokens[i]);\r\n        }\r\n        return tokens;\r\n    }\r\n\r\n    /**\r\n     * @dev Change fee amount.\r\n     * @param _fee -New fee to collect from farms. [10^18 == 100%]\r\n     *\r\n     * Note: This function can only be called by ADMIN_ROLE.\r\n     */ \r\n    function setFee(uint256 _fee) external onlyRole(ADMIN_ROLE){\r\n        require (_fee <= 1 ether, \"BAD_FEE\");\r\n        if(fee != _fee){\r\n            emit FeeChanged(fee, _fee); \r\n            fee = _fee;\r\n        }\r\n    }\r\n\r\n    function pause() external onlyRole(PAUSER_ROLE) {\r\n        _pause();\r\n    }\r\n\r\n    function unpause() external onlyRole(PAUSER_ROLE) {\r\n        _unpause();\r\n    }\r\n\r\n    function _authorizeUpgrade(address) internal override onlyRole(ADMIN_ROLE) {}\r\n}\r\n",
  "sourcePath": "C:\\Users\\jugli\\Desktop\\uno\\uno-contracts-aurora\\contracts\\apps\\trisolarisStable\\test\\UnoAssetRouterTrisolarisStableV2.sol",
  "compiler": {
    "name": "solc",
    "version": "0.8.10+commit.fc410830.Emscripten.clang"
  },
  "schemaVersion": "3.4.10",
  "updatedAt": "2023-02-07T18:46:18.824Z",
  "devdoc": {
    "kind": "dev",
    "methods": {
      "constructor": {
        "custom:oz-upgrades-unsafe-allow": "constructor"
      },
      "deposit(address,uint256[],uint256,address)": {
        "details": "Deposits tokens in the given pool. Creates new Farm contract if there isn't one deployed for the {swap} and deposits tokens in it. Emits a {Deposit} event.",
        "params": {
          "amounts": "- Amounts of tokens to deposit.",
          "minAmountLP": "- Minimum LP the user will receive from {amounts} deposit.",
          "recipient": "- Address which will receive the deposit.",
          "swap": "- Address of the Swap contract."
        },
        "returns": {
          "liquidity": "- Total liquidity sent to the farm (in lpTokens)."
        }
      },
      "depositETH(address,uint256[],uint256,address)": {
        "details": "Autoconverts ETH into WETH and deposits tokens in the given pool. Creates new Farm contract if there isn't one deployed for the {swap} and deposits tokens in it.",
        "params": {
          "amounts": "- Amounts of tokens to deposit.",
          "minAmountLP": "- Minimum LP the user will receive from {amounts} deposit.",
          "recipient": "- Address which will receive the deposit.",
          "swap": "- Address of the Swap contract."
        },
        "returns": {
          "liquidity": "- Total liquidity sent to the farm (in lpTokens)."
        }
      },
      "depositLP(address,uint256,address)": {
        "details": "Deposits tokens in the given pool. Creates new Farm contract if there isn't one deployed for the {lpPair} and deposits tokens in it. Emits a {Deposit} event.",
        "params": {
          "amount": "- LP Token amount to deposit.",
          "recipient": "- Address which will receive the deposit.",
          "swap": "- Address of the pool to deposit tokens in."
        }
      },
      "depositSingleAsset(address,address,uint256,bytes[],uint256,address)": {
        "details": "Deposits single token in the given pool. Creates new Farm contract if there isn't one deployed for the {swap}, swaps {token} for pool tokens and deposits them. Emits a {Deposit} event.",
        "params": {
          "amount": "- Amount of token sent.",
          "minAmountLP": "- Minimum LP the user will receive from {tokens} deposit.",
          "recipient": "- Address which will receive the deposit.",
          "swap": "- Address of the pool to deposit tokens in.",
          "swapData": "- Parameter with which 1inch router is being called with.",
          "token": "- Address of a token to enter the pool."
        },
        "returns": {
          "liquidity": "- Total liquidity sent to the farm (in lpTokens).",
          "sent": "- Total {token} amount sent to the farm. "
        }
      },
      "depositSingleETH(address,bytes[],uint256,address)": {
        "details": "Deposits single ETH in the given pool. Creates new Farm contract if there isn't one deployed for the {swap}, swaps ETH for pool tokens and deposits them. Emits a {Deposit} event.",
        "params": {
          "minAmountLP": "- Minimum LP the user will receive from {tokens} deposit.",
          "recipient": "- Address which will receive the deposit.",
          "swap": "- Address of the pool to deposit tokens in.",
          "swapData": "- Parameter with which 1inch router is being called with."
        },
        "returns": {
          "liquidity": "- Total liquidity sent to the farm (in lpTokens).",
          "sentETH": "- Total ETH amount sent to the farm. "
        }
      },
      "distribute(address,(address[],uint256)[],(address[],uint256)[],(address[],uint256)[2],address)": {
        "details": "Distributes tokens between users.",
        "params": {
          "feeSwapInfos": "- Arrays of structs with token arrays describing swap routes (rewardTokenToFeeToken, rewarderTokenToFeeToken) and minimum amounts of output tokens that must be received for the transaction not to revert.",
          "feeTo": "- Address to collect fees to. Note: This function can only be called by the distributor.",
          "rewardSwapInfos": "- Arrays of structs with token arrays describing swap routes from reward to tokens in {swap} and minimum amounts of output tokens that must be received for the transaction not to revert.",
          "rewarderSwapInfos": "- Arrays of structs with token arrays describing swap routes from rewarder to tokens in {swap} and minimum amounts of output tokens that must be received for the transaction not to revert.",
          "swap": "- Address of the Swap contract."
        }
      },
      "getTokens(address)": {
        "details": "Returns addresses of tokens in {swap}.",
        "params": {
          "swap": "- Swap to check tokens in."
        },
        "returns": {
          "tokens": "- Array of token addresses."
        }
      },
      "paused()": {
        "details": "Returns true if the contract is paused, and false otherwise."
      },
      "proxiableUUID()": {
        "details": "Implementation of the ERC1822 {proxiableUUID} function. This returns the storage slot used by the implementation. It is used to validate that the this implementation remains valid after an upgrade. IMPORTANT: A proxy pointing at a proxiable contract should not be considered proxiable itself, because this risks bricking a proxy that upgrades to it, by delegating to itself until out of gas. Thus it is critical that this function revert if invoked through a proxy. This is guaranteed by the `notDelegated` modifier."
      },
      "setFee(uint256)": {
        "details": "Change fee amount.",
        "params": {
          "_fee": "-New fee to collect from farms. [10^18 == 100%] Note: This function can only be called by ADMIN_ROLE."
        }
      },
      "totalDeposits(address)": {
        "details": "Returns total amount locked in the pool. Doesn't take pending rewards into account.",
        "params": {
          "swap": "- Address of the Swap contract."
        },
        "returns": {
          "totalDepositsLP": "- Total deposits (in LP tokens)."
        }
      },
      "upgradeTo(address)": {
        "details": "Upgrade the implementation of the proxy to `newImplementation`. Calls {_authorizeUpgrade}. Emits an {Upgraded} event."
      },
      "upgradeToAndCall(address,bytes)": {
        "details": "Upgrade the implementation of the proxy to `newImplementation`, and subsequently execute the function call encoded in `data`. Calls {_authorizeUpgrade}. Emits an {Upgraded} event."
      },
      "userStake(address,address)": {
        "details": "Returns tokens staked by the {_address} for the given {swap}.",
        "params": {
          "_address": "- The address to check stakes for.",
          "swap": "- Address of the Swap contract."
        },
        "returns": {
          "stakeLP": "- Total user stake(in LP tokens)."
        }
      },
      "withdraw(address,uint256,uint256[],address)": {
        "details": "Withdraws tokens from the given pool. Emits a {Withdraw} event.",
        "params": {
          "amount": "- Amounts of LP tokens to withdraw.",
          "minAmounts": "- Minimum amounts of tokens sent to {recipient}.",
          "recipient": "- The address which will receive tokens.",
          "swap": "- Address of the Swap contract."
        },
        "returns": {
          "amounts": "- Token amounts sent to {recipient}, an array of zeros if withdrawLP == false."
        }
      },
      "withdrawETH(address,uint256,uint256[],address)": {
        "details": "Autoconverts WETH into ETH and withdraws tokens from the given pool. ",
        "params": {
          "amount": "- LP amount to withdraw. ",
          "minAmounts": "- Minimum token amounts the user will receive.",
          "recipient": "- The address which will receive tokens.",
          "swap": "- LP pool to withdraw from."
        },
        "returns": {
          "amounts": "- Token amounts sent to the {recipient}"
        }
      },
      "withdrawLP(address,uint256,address)": {
        "details": "Withdraws LP tokens from the given pool. Emits a {Withdraw} event.",
        "params": {
          "amount": "- LP amount to withdraw. ",
          "recipient": "- The address which will receive tokens.",
          "swap": "- LP pool to withdraw from."
        }
      },
      "withdrawSingleAsset(address,uint256,address,bytes[],address)": {
        "details": "Withdraws single token from the given pool. Emits a {Withdraw} event. Note: If there are any tokens left to be withdrawn after swaps they will be sent to the {{recipient}} in a respective token (not in {token}).",
        "params": {
          "amount": "- LP amount to withdraw. ",
          "recipient": "- Address which will receive the deposit.",
          "swap": "- LP pool to withdraw from.",
          "swapData": "- Parameters with which 1inch router is being called with.",
          "token": "- Address of a token to exit the pool with."
        },
        "returns": {
          "amountToken": "- {token} amount sent to the {recipient}.",
          "amounts": "- Dust amounts sent to the {recipient}."
        }
      },
      "withdrawSingleETH(address,uint256,bytes[],address)": {
        "details": "Withdraws single ETH from the given pool. Emits a {Withdraw} event. Note: If there are any tokens left to be withdrawn after swaps they will be sent to the {{recipient}} in a respective token (not in ETH).",
        "params": {
          "amount": "- LP amount to withdraw. ",
          "recipient": "- Address which will receive the deposit.",
          "swap": "- LP pool to withdraw from.",
          "swapData": "- Parameters with which 1inch router is being called with."
        },
        "returns": {
          "amountETH": "- ETH amount sent to the {recipient}.",
          "amounts": "- Dust amounts sent to the {recipient}."
        }
      }
    },
    "stateVariables": {
      "farmFactory": {
        "details": "Contract Variables: farmFactory - The contract that deploys new Farms and links them to {swap}s. accessManager - Role manager contract."
      }
    },
    "version": 1
  },
  "userdoc": {
    "kind": "user",
    "methods": {},
    "version": 1
  }
}