{
  "contractName": "UnoAssetRouterMeshswap",
  "abi": [
    {
      "inputs": [],
      "stateMutability": "nonpayable",
      "type": "constructor"
    },
    {
      "anonymous": false,
      "inputs": [
        {
          "indexed": false,
          "internalType": "address",
          "name": "previousAdmin",
          "type": "address"
        },
        {
          "indexed": false,
          "internalType": "address",
          "name": "newAdmin",
          "type": "address"
        }
      ],
      "name": "AdminChanged",
      "type": "event"
    },
    {
      "anonymous": false,
      "inputs": [
        {
          "indexed": true,
          "internalType": "address",
          "name": "beacon",
          "type": "address"
        }
      ],
      "name": "BeaconUpgraded",
      "type": "event"
    },
    {
      "anonymous": false,
      "inputs": [
        {
          "indexed": true,
          "internalType": "address",
          "name": "lpPool",
          "type": "address"
        },
        {
          "indexed": true,
          "internalType": "address",
          "name": "sender",
          "type": "address"
        },
        {
          "indexed": true,
          "internalType": "address",
          "name": "recipient",
          "type": "address"
        },
        {
          "indexed": false,
          "internalType": "uint256",
          "name": "amount",
          "type": "uint256"
        }
      ],
      "name": "Deposit",
      "type": "event"
    },
    {
      "anonymous": false,
      "inputs": [
        {
          "indexed": true,
          "internalType": "address",
          "name": "lpPool",
          "type": "address"
        },
        {
          "indexed": false,
          "internalType": "uint256",
          "name": "reward",
          "type": "uint256"
        }
      ],
      "name": "Distribute",
      "type": "event"
    },
    {
      "anonymous": false,
      "inputs": [
        {
          "indexed": false,
          "internalType": "uint256",
          "name": "previousFee",
          "type": "uint256"
        },
        {
          "indexed": false,
          "internalType": "uint256",
          "name": "newFee",
          "type": "uint256"
        }
      ],
      "name": "FeeChanged",
      "type": "event"
    },
    {
      "anonymous": false,
      "inputs": [
        {
          "indexed": false,
          "internalType": "uint8",
          "name": "version",
          "type": "uint8"
        }
      ],
      "name": "Initialized",
      "type": "event"
    },
    {
      "anonymous": false,
      "inputs": [
        {
          "indexed": false,
          "internalType": "address",
          "name": "account",
          "type": "address"
        }
      ],
      "name": "Paused",
      "type": "event"
    },
    {
      "anonymous": false,
      "inputs": [
        {
          "indexed": false,
          "internalType": "address",
          "name": "account",
          "type": "address"
        }
      ],
      "name": "Unpaused",
      "type": "event"
    },
    {
      "anonymous": false,
      "inputs": [
        {
          "indexed": true,
          "internalType": "address",
          "name": "implementation",
          "type": "address"
        }
      ],
      "name": "Upgraded",
      "type": "event"
    },
    {
      "anonymous": false,
      "inputs": [
        {
          "indexed": true,
          "internalType": "address",
          "name": "lpPool",
          "type": "address"
        },
        {
          "indexed": true,
          "internalType": "address",
          "name": "sender",
          "type": "address"
        },
        {
          "indexed": true,
          "internalType": "address",
          "name": "recipient",
          "type": "address"
        },
        {
          "indexed": false,
          "internalType": "uint256",
          "name": "amount",
          "type": "uint256"
        }
      ],
      "name": "Withdraw",
      "type": "event"
    },
    {
      "inputs": [],
      "name": "MeshswapRouter",
      "outputs": [
        {
          "internalType": "contract IUniswapV2Router01",
          "name": "",
          "type": "address"
        }
      ],
      "stateMutability": "view",
      "type": "function"
    },
    {
      "inputs": [],
      "name": "WMATIC",
      "outputs": [
        {
          "internalType": "address",
          "name": "",
          "type": "address"
        }
      ],
      "stateMutability": "view",
      "type": "function"
    },
    {
      "inputs": [],
      "name": "accessManager",
      "outputs": [
        {
          "internalType": "contract IUnoAccessManager",
          "name": "",
          "type": "address"
        }
      ],
      "stateMutability": "view",
      "type": "function"
    },
    {
      "inputs": [],
      "name": "farmFactory",
      "outputs": [
        {
          "internalType": "contract IUnoFarmFactory",
          "name": "",
          "type": "address"
        }
      ],
      "stateMutability": "view",
      "type": "function"
    },
    {
      "inputs": [],
      "name": "fee",
      "outputs": [
        {
          "internalType": "uint256",
          "name": "",
          "type": "uint256"
        }
      ],
      "stateMutability": "view",
      "type": "function"
    },
    {
      "inputs": [],
      "name": "paused",
      "outputs": [
        {
          "internalType": "bool",
          "name": "",
          "type": "bool"
        }
      ],
      "stateMutability": "view",
      "type": "function"
    },
    {
      "inputs": [],
      "name": "proxiableUUID",
      "outputs": [
        {
          "internalType": "bytes32",
          "name": "",
          "type": "bytes32"
        }
      ],
      "stateMutability": "view",
      "type": "function"
    },
    {
      "inputs": [
        {
          "internalType": "address",
          "name": "newImplementation",
          "type": "address"
        }
      ],
      "name": "upgradeTo",
      "outputs": [],
      "stateMutability": "nonpayable",
      "type": "function"
    },
    {
      "inputs": [
        {
          "internalType": "address",
          "name": "newImplementation",
          "type": "address"
        },
        {
          "internalType": "bytes",
          "name": "data",
          "type": "bytes"
        }
      ],
      "name": "upgradeToAndCall",
      "outputs": [],
      "stateMutability": "payable",
      "type": "function"
    },
    {
      "stateMutability": "payable",
      "type": "receive"
    },
    {
      "inputs": [
        {
          "internalType": "address",
          "name": "_accessManager",
          "type": "address"
        },
        {
          "internalType": "address",
          "name": "_farmFactory",
          "type": "address"
        }
      ],
      "name": "initialize",
      "outputs": [],
      "stateMutability": "nonpayable",
      "type": "function"
    },
    {
      "inputs": [
        {
          "internalType": "address",
          "name": "lpPair",
          "type": "address"
        },
        {
          "internalType": "uint256",
          "name": "amountA",
          "type": "uint256"
        },
        {
          "internalType": "uint256",
          "name": "amountB",
          "type": "uint256"
        },
        {
          "internalType": "uint256",
          "name": "amountAMin",
          "type": "uint256"
        },
        {
          "internalType": "uint256",
          "name": "amountBMin",
          "type": "uint256"
        },
        {
          "internalType": "address",
          "name": "recipient",
          "type": "address"
        }
      ],
      "name": "deposit",
      "outputs": [
        {
          "internalType": "uint256",
          "name": "sentA",
          "type": "uint256"
        },
        {
          "internalType": "uint256",
          "name": "sentB",
          "type": "uint256"
        },
        {
          "internalType": "uint256",
          "name": "liquidity",
          "type": "uint256"
        }
      ],
      "stateMutability": "nonpayable",
      "type": "function"
    },
    {
      "inputs": [
        {
          "internalType": "address",
          "name": "lpPair",
          "type": "address"
        },
        {
          "internalType": "uint256",
          "name": "amountToken",
          "type": "uint256"
        },
        {
          "internalType": "uint256",
          "name": "amountTokenMin",
          "type": "uint256"
        },
        {
          "internalType": "uint256",
          "name": "amountETHMin",
          "type": "uint256"
        },
        {
          "internalType": "address",
          "name": "recipient",
          "type": "address"
        }
      ],
      "name": "depositETH",
      "outputs": [
        {
          "internalType": "uint256",
          "name": "sentToken",
          "type": "uint256"
        },
        {
          "internalType": "uint256",
          "name": "sentETH",
          "type": "uint256"
        },
        {
          "internalType": "uint256",
          "name": "liquidity",
          "type": "uint256"
        }
      ],
      "stateMutability": "payable",
      "type": "function"
    },
    {
      "inputs": [
        {
          "internalType": "address",
          "name": "lpPair",
          "type": "address"
        },
        {
          "internalType": "address",
          "name": "token",
          "type": "address"
        },
        {
          "internalType": "uint256",
          "name": "amount",
          "type": "uint256"
        },
        {
          "internalType": "bytes[2]",
          "name": "swapData",
          "type": "bytes[2]"
        },
        {
          "internalType": "uint256",
          "name": "amountAMin",
          "type": "uint256"
        },
        {
          "internalType": "uint256",
          "name": "amountBMin",
          "type": "uint256"
        },
        {
          "internalType": "address",
          "name": "recipient",
          "type": "address"
        }
      ],
      "name": "depositSingleAsset",
      "outputs": [
        {
          "internalType": "uint256",
          "name": "sent",
          "type": "uint256"
        },
        {
          "internalType": "uint256",
          "name": "liquidity",
          "type": "uint256"
        }
      ],
      "stateMutability": "nonpayable",
      "type": "function"
    },
    {
      "inputs": [
        {
          "internalType": "address",
          "name": "lpPair",
          "type": "address"
        },
        {
          "internalType": "bytes[2]",
          "name": "swapData",
          "type": "bytes[2]"
        },
        {
          "internalType": "uint256",
          "name": "amountAMin",
          "type": "uint256"
        },
        {
          "internalType": "uint256",
          "name": "amountBMin",
          "type": "uint256"
        },
        {
          "internalType": "address",
          "name": "recipient",
          "type": "address"
        }
      ],
      "name": "depositSingleETH",
      "outputs": [
        {
          "internalType": "uint256",
          "name": "sentETH",
          "type": "uint256"
        },
        {
          "internalType": "uint256",
          "name": "liquidity",
          "type": "uint256"
        }
      ],
      "stateMutability": "payable",
      "type": "function"
    },
    {
      "inputs": [
        {
          "internalType": "address",
          "name": "lpPair",
          "type": "address"
        },
        {
          "internalType": "uint256",
          "name": "amount",
          "type": "uint256"
        },
        {
          "internalType": "address",
          "name": "recipient",
          "type": "address"
        }
      ],
      "name": "depositLP",
      "outputs": [],
      "stateMutability": "nonpayable",
      "type": "function"
    },
    {
      "inputs": [
        {
          "internalType": "address",
          "name": "lpPair",
          "type": "address"
        },
        {
          "internalType": "uint256",
          "name": "amount",
          "type": "uint256"
        },
        {
          "internalType": "uint256",
          "name": "amountAMin",
          "type": "uint256"
        },
        {
          "internalType": "uint256",
          "name": "amountBMin",
          "type": "uint256"
        },
        {
          "internalType": "address",
          "name": "recipient",
          "type": "address"
        }
      ],
      "name": "withdraw",
      "outputs": [
        {
          "internalType": "uint256",
          "name": "amountA",
          "type": "uint256"
        },
        {
          "internalType": "uint256",
          "name": "amountB",
          "type": "uint256"
        }
      ],
      "stateMutability": "nonpayable",
      "type": "function"
    },
    {
      "inputs": [
        {
          "internalType": "address",
          "name": "lpPair",
          "type": "address"
        },
        {
          "internalType": "uint256",
          "name": "amount",
          "type": "uint256"
        },
        {
          "internalType": "uint256",
          "name": "amountTokenMin",
          "type": "uint256"
        },
        {
          "internalType": "uint256",
          "name": "amountETHMin",
          "type": "uint256"
        },
        {
          "internalType": "address",
          "name": "recipient",
          "type": "address"
        }
      ],
      "name": "withdrawETH",
      "outputs": [
        {
          "internalType": "uint256",
          "name": "amountToken",
          "type": "uint256"
        },
        {
          "internalType": "uint256",
          "name": "amountETH",
          "type": "uint256"
        }
      ],
      "stateMutability": "nonpayable",
      "type": "function"
    },
    {
      "inputs": [
        {
          "internalType": "address",
          "name": "lpPair",
          "type": "address"
        },
        {
          "internalType": "uint256",
          "name": "amount",
          "type": "uint256"
        },
        {
          "internalType": "address",
          "name": "token",
          "type": "address"
        },
        {
          "internalType": "bytes[2]",
          "name": "swapData",
          "type": "bytes[2]"
        },
        {
          "internalType": "address",
          "name": "recipient",
          "type": "address"
        }
      ],
      "name": "withdrawSingleAsset",
      "outputs": [
        {
          "internalType": "uint256",
          "name": "amountToken",
          "type": "uint256"
        },
        {
          "internalType": "uint256",
          "name": "amountA",
          "type": "uint256"
        },
        {
          "internalType": "uint256",
          "name": "amountB",
          "type": "uint256"
        }
      ],
      "stateMutability": "nonpayable",
      "type": "function"
    },
    {
      "inputs": [
        {
          "internalType": "address",
          "name": "lpPair",
          "type": "address"
        },
        {
          "internalType": "uint256",
          "name": "amount",
          "type": "uint256"
        },
        {
          "internalType": "bytes[2]",
          "name": "swapData",
          "type": "bytes[2]"
        },
        {
          "internalType": "address",
          "name": "recipient",
          "type": "address"
        }
      ],
      "name": "withdrawSingleETH",
      "outputs": [
        {
          "internalType": "uint256",
          "name": "amountETH",
          "type": "uint256"
        },
        {
          "internalType": "uint256",
          "name": "amountA",
          "type": "uint256"
        },
        {
          "internalType": "uint256",
          "name": "amountB",
          "type": "uint256"
        }
      ],
      "stateMutability": "nonpayable",
      "type": "function"
    },
    {
      "inputs": [
        {
          "internalType": "address",
          "name": "lpPair",
          "type": "address"
        },
        {
          "internalType": "uint256",
          "name": "amount",
          "type": "uint256"
        },
        {
          "internalType": "address",
          "name": "recipient",
          "type": "address"
        }
      ],
      "name": "withdrawLP",
      "outputs": [],
      "stateMutability": "nonpayable",
      "type": "function"
    },
    {
      "inputs": [
        {
          "internalType": "address",
          "name": "lpPair",
          "type": "address"
        },
        {
          "components": [
            {
              "internalType": "address[]",
              "name": "route",
              "type": "address[]"
            },
            {
              "internalType": "uint256",
              "name": "amountOutMin",
              "type": "uint256"
            }
          ],
          "internalType": "struct IUnoFarmMeshswap.SwapInfo[2]",
          "name": "swapInfos",
          "type": "tuple[2]"
        },
        {
          "components": [
            {
              "internalType": "address[]",
              "name": "route",
              "type": "address[]"
            },
            {
              "internalType": "uint256",
              "name": "amountOutMin",
              "type": "uint256"
            }
          ],
          "internalType": "struct IUnoFarmMeshswap.SwapInfo",
          "name": "feeSwapInfo",
          "type": "tuple"
        },
        {
          "internalType": "address",
          "name": "feeTo",
          "type": "address"
        }
      ],
      "name": "distribute",
      "outputs": [],
      "stateMutability": "nonpayable",
      "type": "function"
    },
    {
      "inputs": [
        {
          "internalType": "address",
          "name": "_address",
          "type": "address"
        },
        {
          "internalType": "address",
          "name": "lpPair",
          "type": "address"
        }
      ],
      "name": "userStake",
      "outputs": [
        {
          "internalType": "uint256",
          "name": "stakeLP",
          "type": "uint256"
        },
        {
          "internalType": "uint256",
          "name": "stakeA",
          "type": "uint256"
        },
        {
          "internalType": "uint256",
          "name": "stakeB",
          "type": "uint256"
        }
      ],
      "stateMutability": "view",
      "type": "function"
    },
    {
      "inputs": [
        {
          "internalType": "address",
          "name": "lpPair",
          "type": "address"
        }
      ],
      "name": "totalDeposits",
      "outputs": [
        {
          "internalType": "uint256",
          "name": "totalDepositsLP",
          "type": "uint256"
        },
        {
          "internalType": "uint256",
          "name": "totalDepositsA",
          "type": "uint256"
        },
        {
          "internalType": "uint256",
          "name": "totalDepositsB",
          "type": "uint256"
        }
      ],
      "stateMutability": "view",
      "type": "function"
    },
    {
      "inputs": [
        {
          "internalType": "address",
          "name": "lpPair",
          "type": "address"
        }
      ],
      "name": "getTokens",
      "outputs": [
        {
          "internalType": "contract IERC20Upgradeable[]",
          "name": "tokens",
          "type": "address[]"
        }
      ],
      "stateMutability": "view",
      "type": "function"
    },
    {
      "inputs": [
        {
          "internalType": "uint256",
          "name": "_fee",
          "type": "uint256"
        }
      ],
      "name": "setFee",
      "outputs": [],
      "stateMutability": "nonpayable",
      "type": "function"
    },
    {
      "inputs": [],
      "name": "pause",
      "outputs": [],
      "stateMutability": "nonpayable",
      "type": "function"
    },
    {
      "inputs": [],
      "name": "unpause",
      "outputs": [],
      "stateMutability": "nonpayable",
      "type": "function"
    }
  ],
  "bytecode": "0x60a0604052306080523480156200001557600080fd5b506200002062000026565b62000156565b6200003260ff62000035565b50565b60008054610100900460ff1615620000ce578160ff1660011480156200006e57506200006c306200014760201b620033d41760201c565b155b620000c65760405162461bcd60e51b815260206004820152602e6024820152600080516020620054a183398151915260448201526d191e481a5b9a5d1a585b1a5e995960921b60648201526084015b60405180910390fd5b506000919050565b60005460ff8084169116106200012d5760405162461bcd60e51b815260206004820152602e6024820152600080516020620054a183398151915260448201526d191e481a5b9a5d1a585b1a5e995960921b6064820152608401620000bd565b506000805460ff191660ff92909216919091179055600190565b6001600160a01b03163b151590565b6080516153136200018e60003960008181610a0401528181610a440152818161125c0152818161129c015261143901526153136000f3fe6080604052600436106101a05760003560e01c80636505e65e116100ec578063d84ff8421161008a578063e50e637111610064578063e50e63711461053c578063e94032561461055c578063fdcb60681461057c578063fefa40941461059c57600080fd5b8063d84ff842146104e6578063ddca3f4314610506578063deb03f4d1461051c57600080fd5b80636d25e175116100c65780636d25e1751461047e5780637d7956281461049e5780638456cb59146104b1578063a475626c146104c657600080fd5b80636505e65e1461040957806369fe0e2d146104295780636c2b55171461044957600080fd5b8063485cc955116101595780634f1ef286116101335780634f1ef2861461039057806351bdca3e146103a357806352d1902d146103c35780635c975abb146103e657600080fd5b8063485cc9551461032e5780634d95cad91461034e5780634e816aa81461037057600080fd5b80632f2255cc1461022c5780633659cfe61461026c5780633f4ba83a1461028c57806343dd1e64146102a1578063450efe21146102e157806346dafa2f1461030e57600080fd5b3661022757336000805160206152be83398151915214806101d45750337310f4a785f458bc144e3706575924889954946639145b6102255760405162461bcd60e51b815260206004820152601c60248201527f4f4e4c595f4143434550545f574d415449435f4f525f524f555445520000000060448201526064015b60405180910390fd5b005b600080fd5b34801561023857600080fd5b5061024c61024736600461477e565b6105af565b604080519384526020840192909252908201526060015b60405180910390f35b34801561027857600080fd5b506102256102873660046147ff565b6109f9565b34801561029857600080fd5b50610225610ad9565b3480156102ad57600080fd5b506102c97310f4a785f458bc144e370657592488995494663981565b6040516001600160a01b039091168152602001610263565b3480156102ed57600080fd5b506103016102fc3660046147ff565b610b90565b604051610263919061481c565b34801561031a57600080fd5b50610225610329366004614869565b610cdf565b34801561033a57600080fd5b506102256103493660046148ab565b610ed5565b34801561035a57600080fd5b506102c96000805160206152be83398151915281565b34801561037c57600080fd5b5061022561038b3660046148e4565b611010565b61022561039e366004614988565b611251565b3480156103af57600080fd5b5061024c6103be3660046148ab565b611322565b3480156103cf57600080fd5b506103d861142c565b604051908152602001610263565b3480156103f257600080fd5b5060335460ff166040519015158152602001610263565b34801561041557600080fd5b5061024c610424366004614a4c565b6114df565b34801561043557600080fd5b50610225610444366004614aaa565b6117ee565b34801561045557600080fd5b50610469610464366004614ac3565b611981565b60408051928352602083019190915201610263565b34801561048a57600080fd5b5060c9546102c9906001600160a01b031681565b6104696104ac366004614b57565b611e2b565b3480156104bd57600080fd5b506102256123b6565b3480156104d257600080fd5b5061024c6104e1366004614bc1565b61246d565b3480156104f257600080fd5b50610469610501366004614c22565b612956565b34801561051257600080fd5b506103d860cb5481565b34801561052857600080fd5b50610469610537366004614c22565b612b68565b34801561054857600080fd5b50610225610557366004614869565b612e24565b34801561056857600080fd5b5061024c6105773660046147ff565b612f5a565b34801561058857600080fd5b5060ca546102c9906001600160a01b031681565b61024c6105aa366004614c22565b61305c565b60c95460405163f9d9331d60e01b81526001600160a01b038781166004830152600092839283928392169063f9d9331d90602401602060405180830381865afa158015610600573d6000803e3d6000fd5b505050506040513d601f19601f820116820180604052508101906106249190614c6a565b90506001600160a01b03811661064c5760405162461bcd60e51b815260040161021c90614c87565b604051632d182be560e21b81526001600160a01b0382169063b460af949061067c908b9033903090600401614cb0565b600060405180830381600087803b15801561069657600080fd5b505af11580156106aa573d6000803e3d6000fd5b505050506000816001600160a01b0316630fc63d106040518163ffffffff1660e01b8152600401602060405180830381865afa1580156106ee573d6000803e3d6000fd5b505050506040513d601f19601f820116820180604052508101906107129190614c6a565b90506000826001600160a01b0316635f64b55b6040518163ffffffff1660e01b8152600401602060405180830381865afa158015610754573d6000803e3d6000fd5b505050506040513d601f19601f820116820180604052508101906107789190614c6a565b905061078a8b83838d600080306133e3565b90955093506001600160a01b03828116908a16146108855760405163095ea7b360e01b81526001600160a01b0383169063095ea7b3906107e490731111111254eeb25477b68fb85ed929f73a960582908990600401614ccf565b6020604051808303816000875af1158015610803573d6000803e3d6000fd5b505050506040513d601f19601f820116820180604052508101906108279190614ce8565b506000806108478a825b6020028101906108419190614d20565b8d613524565b90925090506108568289614d84565b97506108628188614d9c565b9650861561087e5761087e6001600160a01b0385168a8961372e565b5050610896565b61088f8587614d84565b9550600094505b886001600160a01b0316816001600160a01b0316146109815760405163095ea7b360e01b81526001600160a01b0382169063095ea7b3906108f190731111111254eeb25477b68fb85ed929f73a960582908890600401614ccf565b6020604051808303816000875af1158015610910573d6000803e3d6000fd5b505050506040513d601f19601f820116820180604052508101906109349190614ce8565b506000806109438a6001610831565b90925090506109528289614d84565b975061095e8187614d9c565b9550851561097a5761097a6001600160a01b0384168a8861372e565b5050610992565b61098b8487614d84565b9550600093505b6109a66001600160a01b038a16888861372e565b866001600160a01b0316336001600160a01b03168c6001600160a01b03166000805160206152378339815191528d6040516109e391815260200190565b60405180910390a4505050955095509592505050565b306001600160a01b037f0000000000000000000000000000000000000000000000000000000000000000161415610a425760405162461bcd60e51b815260040161021c90614db3565b7f00000000000000000000000000000000000000000000000000000000000000006001600160a01b0316610a8b600080516020615257833981519152546001600160a01b031690565b6001600160a01b031614610ab15760405162461bcd60e51b815260040161021c90614dff565b610aba81613784565b60408051600080825260208201909252610ad69183919061388a565b50565b60ca54604051632474521560e21b81527f65d7a28e3265b37a6474929f336521b332c1681b933f6cb9f3376673440d862a60048201819052336024830152916001600160a01b0316906391d1485490604401602060405180830381865afa158015610b48573d6000803e3d6000fd5b505050506040513d601f19601f82011682018060405250810190610b6c9190614ce8565b610b885760405162461bcd60e51b815260040161021c90614e4b565b610ad66139f5565b6040805160028082526060808301845292602083019080368337019050509050816001600160a01b0316630dfe16816040518163ffffffff1660e01b8152600401602060405180830381865afa158015610bee573d6000803e3d6000fd5b505050506040513d601f19601f82011682018060405250810190610c129190614c6a565b81600081518110610c2557610c25614d0a565b60200260200101906001600160a01b031690816001600160a01b031681525050816001600160a01b031663d21220a76040518163ffffffff1660e01b8152600401602060405180830381865afa158015610c83573d6000803e3d6000fd5b505050506040513d601f19601f82011682018060405250810190610ca79190614c6a565b81600181518110610cba57610cba614d0a565b60200260200101906001600160a01b031690816001600160a01b031681525050919050565b60335460ff1615610d025760405162461bcd60e51b815260040161021c90614e7a565b60008211610d225760405162461bcd60e51b815260040161021c90614ea4565b60c95460405163f9d9331d60e01b81526001600160a01b038581166004830152600092169063f9d9331d90602401602060405180830381865afa158015610d6d573d6000803e3d6000fd5b505050506040513d601f19601f82011682018060405250810190610d919190614c6a565b90506001600160a01b038116610e135760c954604051621849e360e61b81526001600160a01b0386811660048301529091169063061278c0906024016020604051808303816000875af1158015610dec573d6000803e3d6000fd5b505050506040513d601f19601f82011682018060405250810190610e109190614c6a565b90505b610e286001600160a01b038516338386613a88565b604051636e553f6560e01b8152600481018490526001600160a01b038381166024830152821690636e553f6590604401600060405180830381600087803b158015610e7257600080fd5b505af1158015610e86573d6000803e3d6000fd5b50505050816001600160a01b0316336001600160a01b0316856001600160a01b031660008051602061527783398151915286604051610ec791815260200190565b60405180910390a450505050565b6000610ee16001613ac6565b90508015610ef9576000805461ff0019166101001790555b6001600160a01b038316610f445760405162461bcd60e51b81526020600482015260126024820152712120a22fa0a1a1a2a9a9afa6a0a720a3a2a960711b604482015260640161021c565b6001600160a01b038216610f8d5760405162461bcd60e51b815260206004820152601060248201526f4241445f4641524d5f464143544f525960801b604482015260640161021c565b610f95613b4e565b60ca80546001600160a01b038086166001600160a01b03199283161790925560c9805492851692909116919091179055801561100b576000805461ff0019169055604051600181527f7f26b83ff96e1f2b6a682f133852f6798a09c465da95921460cefb38474024989060200160405180910390a15b505050565b60335460ff16156110335760405162461bcd60e51b815260040161021c90614e7a565b60ca54604051632474521560e21b81527ffbd454f36a7e1a388bd6fc3ab10d434aa4578f811acbbcf33afb1c697486313c60048201819052336024830152916001600160a01b0316906391d1485490604401602060405180830381865afa1580156110a2573d6000803e3d6000fd5b505050506040513d601f19601f820116820180604052508101906110c69190614ce8565b6110e25760405162461bcd60e51b815260040161021c90614e4b565b60c95460405163f9d9331d60e01b81526001600160a01b038781166004830152600092169063f9d9331d90602401602060405180830381865afa15801561112d573d6000803e3d6000fd5b505050506040513d601f19601f820116820180604052508101906111519190614c6a565b90506001600160a01b0381166111795760405162461bcd60e51b815260040161021c90614c87565b6040805180820182526001600160a01b03858116825260cb54602083015291516336eeb1dd60e01b81526000928416916336eeb1dd916111c0918a918a9190600401614f6a565b6020604051808303816000875af11580156111df573d6000803e3d6000fd5b505050506040513d601f19601f820116820180604052508101906112039190615003565b9050866001600160a01b03167fc1d32ad5cca423e7dda2123dbf8c482f8e77d00b631c06e903a47f2cec1334df8260405161124091815260200190565b60405180910390a250505050505050565b306001600160a01b037f000000000000000000000000000000000000000000000000000000000000000016141561129a5760405162461bcd60e51b815260040161021c90614db3565b7f00000000000000000000000000000000000000000000000000000000000000006001600160a01b03166112e3600080516020615257833981519152546001600160a01b031690565b6001600160a01b0316146113095760405162461bcd60e51b815260040161021c90614dff565b61131282613784565b61131e8282600161388a565b5050565b60c95460405163f9d9331d60e01b81526001600160a01b038381166004830152600092839283928392169063f9d9331d90602401602060405180830381865afa158015611373573d6000803e3d6000fd5b505050506040513d601f19601f820116820180604052508101906113979190614c6a565b90506001600160a01b0381161561142457604051630103c92b60e01b81526001600160a01b038781166004830152821690630103c92b90602401602060405180830381865afa1580156113ee573d6000803e3d6000fd5b505050506040513d601f19601f820116820180604052508101906114129190615003565b935061141e8585613b7f565b90935091505b509250925092565b6000306001600160a01b037f000000000000000000000000000000000000000000000000000000000000000016146114cc5760405162461bcd60e51b815260206004820152603860248201527f555550535570677261646561626c653a206d757374206e6f742062652063616c60448201527f6c6564207468726f7567682064656c656761746563616c6c0000000000000000606482015260840161021c565b5060008051602061525783398151915290565b60008060006114f060335460ff1690565b1561150d5760405162461bcd60e51b815260040161021c90614e7a565b60008811801561151d5750600087115b6115395760405162461bcd60e51b815260040161021c9061501c565b60c95460405163f9d9331d60e01b81526001600160a01b038b81166004830152600092169063f9d9331d90602401602060405180830381865afa158015611584573d6000803e3d6000fd5b505050506040513d601f19601f820116820180604052508101906115a89190614c6a565b90506001600160a01b03811661162a5760c954604051621849e360e61b81526001600160a01b038c811660048301529091169063061278c0906024016020604051808303816000875af1158015611603573d6000803e3d6000fd5b505050506040513d601f19601f820116820180604052508101906116279190614c6a565b90505b6000816001600160a01b0316630fc63d106040518163ffffffff1660e01b8152600401602060405180830381865afa15801561166a573d6000803e3d6000fd5b505050506040513d601f19601f8201168201806040525081019061168e9190614c6a565b90506000826001600160a01b0316635f64b55b6040518163ffffffff1660e01b8152600401602060405180830381865afa1580156116d0573d6000803e3d6000fd5b505050506040513d601f19601f820116820180604052508101906116f49190614c6a565b905061170b6001600160a01b03831633308e613a88565b6117206001600160a01b03821633308d613a88565b61172f82828d8d8d8d89613dba565b604051636e553f6560e01b8152600481018290526001600160a01b038b81166024830152939950919750955090841690636e553f6590604401600060405180830381600087803b15801561178257600080fd5b505af1158015611796573d6000803e3d6000fd5b50505050866001600160a01b0316336001600160a01b03168d6001600160a01b0316600080516020615277833981519152876040516117d791815260200190565b60405180910390a450505096509650969350505050565b60ca60009054906101000a90046001600160a01b03166001600160a01b03166375b238fc6040518163ffffffff1660e01b8152600401602060405180830381865afa158015611841573d6000803e3d6000fd5b505050506040513d601f19601f820116820180604052508101906118659190615003565b60ca54604051632474521560e21b8152600481018390523360248201526001600160a01b03909116906391d1485490604401602060405180830381865afa1580156118b4573d6000803e3d6000fd5b505050506040513d601f19601f820116820180604052508101906118d89190614ce8565b6118f45760405162461bcd60e51b815260040161021c90614e4b565b670de0b6b3a76400008211156119365760405162461bcd60e51b81526020600482015260076024820152664241445f46454560c81b604482015260640161021c565b8160cb541461131e5760cb5460408051918252602082018490527f5fc463da23c1b063e66f9e352006a7fbe8db7223c455dc429e881a2dfe2f94f1910160405180910390a15060cb55565b60008061199060335460ff1690565b156119ad5760405162461bcd60e51b815260040161021c90614e7a565b600087116119cd5760405162461bcd60e51b815260040161021c90614ea4565b60c95460405163f9d9331d60e01b81526001600160a01b038b81166004830152600092169063f9d9331d90602401602060405180830381865afa158015611a18573d6000803e3d6000fd5b505050506040513d601f19601f82011682018060405250810190611a3c9190614c6a565b90506001600160a01b038116611abe5760c954604051621849e360e61b81526001600160a01b038c811660048301529091169063061278c0906024016020604051808303816000875af1158015611a97573d6000803e3d6000fd5b505050506040513d601f19601f82011682018060405250810190611abb9190614c6a565b90505b611ad36001600160a01b038a1633308b613a88565b60405163095ea7b360e01b81526001600160a01b038a169063095ea7b390611b1590731111111254eeb25477b68fb85ed929f73a960582908c90600401614ccf565b6020604051808303816000875af1158015611b34573d6000803e3d6000fd5b505050506040513d601f19601f82011682018060405250810190611b589190614ce8565b508792506000806000836001600160a01b0316630fc63d106040518163ffffffff1660e01b8152600401602060405180830381865afa158015611b9f573d6000803e3d6000fd5b505050506040513d601f19601f82011682018060405250810190611bc39190614c6a565b90506000846001600160a01b0316635f64b55b6040518163ffffffff1660e01b8152600401602060405180830381865afa158015611c05573d6000803e3d6000fd5b505050506040513d601f19601f82011682018060405250810190611c299190614c6a565b90508c6001600160a01b0316826001600160a01b031614611c7957600080611c638d825b602002810190611c5d9190614d20565b86613524565b9092509050611c72818f614d9c565b9d50909450505b8c6001600160a01b0316816001600160a01b031614611cc857600080611cb28d60015b602002810190611cac9190614d20565b85613524565b9092509050611cc1818f614d9c565b9d50909350505b8c6001600160a01b0316826001600160a01b03161415611cea578b9350611d32565b8c6001600160a01b0316816001600160a01b03161415611d0c578b9250611d32565b8b15611d3257611d1c8c88614d9c565b9650611d326001600160a01b038e16338e61372e565b600084118015611d425750600083115b611d5e5760405162461bcd60e51b815260040161021c9061501c565b611d6d828286868e8e8b613dba565b604051636e553f6560e01b8152600481018290526001600160a01b038c811660248301529199509088169250636e553f659150604401600060405180830381600087803b158015611dbd57600080fd5b505af1158015611dd1573d6000803e3d6000fd5b50505050876001600160a01b0316336001600160a01b03168f6001600160a01b031660008051602061527783398151915289604051611e1291815260200190565b60405180910390a4505050505097509795505050505050565b600080611e3a60335460ff1690565b15611e575760405162461bcd60e51b815260040161021c90614e7a565b60003411611e975760405162461bcd60e51b815260206004820152600d60248201526c1393d7d350551250d7d4d15395609a1b604482015260640161021c565b60c95460405163f9d9331d60e01b81526001600160a01b038981166004830152600092169063f9d9331d90602401602060405180830381865afa158015611ee2573d6000803e3d6000fd5b505050506040513d601f19601f82011682018060405250810190611f069190614c6a565b90506001600160a01b038116611f885760c954604051621849e360e61b81526001600160a01b038a811660048301529091169063061278c0906024016020604051808303816000875af1158015611f61573d6000803e3d6000fd5b505050506040513d601f19601f82011682018060405250810190611f859190614c6a565b90505b60003490506000805160206152be8339815191526001600160a01b031663d0e30db0826040518263ffffffff1660e01b81526004016000604051808303818588803b158015611fd657600080fd5b505af1158015611fea573d6000803e3d6000fd5b505060405163095ea7b360e01b81526000805160206152be833981519152935063095ea7b392506120369150731111111254eeb25477b68fb85ed929f73a960582908590600401614ccf565b6020604051808303816000875af1158015612055573d6000803e3d6000fd5b505050506040513d601f19601f820116820180604052508101906120799190614ce8565b508093506000806000846001600160a01b0316630fc63d106040518163ffffffff1660e01b8152600401602060405180830381865afa1580156120c0573d6000803e3d6000fd5b505050506040513d601f19601f820116820180604052508101906120e49190614c6a565b90506000856001600160a01b0316635f64b55b6040518163ffffffff1660e01b8152600401602060405180830381865afa158015612126573d6000803e3d6000fd5b505050506040513d601f19601f8201168201806040525081019061214a9190614c6a565b90506001600160a01b0382166000805160206152be8339815191521461218d576000806121778e82611c4d565b90925090506121868188614d9c565b9650909450505b6001600160a01b0381166000805160206152be833981519152146121cf576000806121b98e6001611c9c565b90925090506121c88188614d9c565b9650909350505b6001600160a01b0382166000805160206152be83398151915214156121f6578493506122be565b6001600160a01b0381166000805160206152be833981519152141561221d578492506122be565b84156122be5761222d8589614d9c565b604051632e1a7d4d60e01b8152600481018790529098506000805160206152be83398151915290632e1a7d4d90602401600060405180830381600087803b15801561227757600080fd5b505af115801561228b573d6000803e3d6000fd5b505060405133925087156108fc02915087906000818181858888f193505050501580156122bc573d6000803e3d6000fd5b505b6000841180156122ce5750600083115b6122ea5760405162461bcd60e51b815260040161021c9061501c565b6122f9828286868f8f8c613dba565b604051636e553f6560e01b8152600481018290526001600160a01b038d81166024830152919a509089169250636e553f659150604401600060405180830381600087803b15801561234957600080fd5b505af115801561235d573d6000803e3d6000fd5b50505050886001600160a01b0316336001600160a01b03168e6001600160a01b03166000805160206152778339815191528a60405161239e91815260200190565b60405180910390a45050505050509550959350505050565b60ca54604051632474521560e21b81527f65d7a28e3265b37a6474929f336521b332c1681b933f6cb9f3376673440d862a60048201819052336024830152916001600160a01b0316906391d1485490604401602060405180830381865afa158015612425573d6000803e3d6000fd5b505050506040513d601f19601f820116820180604052508101906124499190614ce8565b6124655760405162461bcd60e51b815260040161021c90614e4b565b610ad6613fdd565b60c95460405163f9d9331d60e01b81526001600160a01b038681166004830152600092839283928392169063f9d9331d90602401602060405180830381865afa1580156124be573d6000803e3d6000fd5b505050506040513d601f19601f820116820180604052508101906124e29190614c6a565b90506001600160a01b03811661250a5760405162461bcd60e51b815260040161021c90614c87565b604051632d182be560e21b81526001600160a01b0382169063b460af949061253a908a9033903090600401614cb0565b600060405180830381600087803b15801561255457600080fd5b505af1158015612568573d6000803e3d6000fd5b505050506000816001600160a01b0316630fc63d106040518163ffffffff1660e01b8152600401602060405180830381865afa1580156125ac573d6000803e3d6000fd5b505050506040513d601f19601f820116820180604052508101906125d09190614c6a565b90506000826001600160a01b0316635f64b55b6040518163ffffffff1660e01b8152600401602060405180830381865afa158015612612573d6000803e3d6000fd5b505050506040513d601f19601f820116820180604052508101906126369190614c6a565b90506126488a83838c600080306133e3565b90955093506001600160a01b0382166000805160206152be8339815191521461275c5760405163095ea7b360e01b81526001600160a01b0383169063095ea7b3906126ad90731111111254eeb25477b68fb85ed929f73a960582908990600401614ccf565b6020604051808303816000875af11580156126cc573d6000803e3d6000fd5b505050506040513d601f19601f820116820180604052508101906126f09190614ce8565b5060008061271e8a825b60200281019061270a9190614d20565b6000805160206152be833981519152613524565b909250905061272d8289614d84565b97506127398188614d9c565b96508615612755576127556001600160a01b0385168a8961372e565b505061276d565b6127668587614d84565b9550600094505b6001600160a01b0381166000805160206152be8339815191521461285d5760405163095ea7b360e01b81526001600160a01b0382169063095ea7b3906127cd90731111111254eeb25477b68fb85ed929f73a960582908890600401614ccf565b6020604051808303816000875af11580156127ec573d6000803e3d6000fd5b505050506040513d601f19601f820116820180604052508101906128109190614ce8565b5060008061281f8a60016126fa565b909250905061282e8289614d84565b975061283a8187614d9c565b95508515612856576128566001600160a01b0384168a8861372e565b505061286e565b6128678487614d84565b9550600093505b604051632e1a7d4d60e01b8152600481018790526000805160206152be83398151915290632e1a7d4d90602401600060405180830381600087803b1580156128b557600080fd5b505af11580156128c9573d6000803e3d6000fd5b50506040516001600160a01b038a16925088156108fc02915088906000818181858888f19350505050158015612903573d6000803e3d6000fd5b50866001600160a01b0316336001600160a01b03168b6001600160a01b03166000805160206152378339815191528c60405161294191815260200190565b60405180910390a45050509450945094915050565b60c95460405163f9d9331d60e01b81526001600160a01b038781166004830152600092839283929091169063f9d9331d90602401602060405180830381865afa1580156129a7573d6000803e3d6000fd5b505050506040513d601f19601f820116820180604052508101906129cb9190614c6a565b90506001600160a01b0381166129f35760405162461bcd60e51b815260040161021c90614c87565b604051632d182be560e21b81526001600160a01b0382169063b460af9490612a23908a9033903090600401614cb0565b600060405180830381600087803b158015612a3d57600080fd5b505af1158015612a51573d6000803e3d6000fd5b50505050612b2688826001600160a01b0316630fc63d106040518163ffffffff1660e01b8152600401602060405180830381865afa158015612a97573d6000803e3d6000fd5b505050506040513d601f19601f82011682018060405250810190612abb9190614c6a565b836001600160a01b0316635f64b55b6040518163ffffffff1660e01b8152600401602060405180830381865afa158015612af9573d6000803e3d6000fd5b505050506040513d601f19601f82011682018060405250810190612b1d9190614c6a565b8a8a8a8a6133e3565b60405189815291945092506001600160a01b038581169133918b16906000805160206152378339815191529060200160405180910390a4509550959350505050565b60c95460405163f9d9331d60e01b81526001600160a01b038781166004830152600092839283929091169063f9d9331d90602401602060405180830381865afa158015612bb9573d6000803e3d6000fd5b505050506040513d601f19601f82011682018060405250810190612bdd9190614c6a565b90506001600160a01b038116612c055760405162461bcd60e51b815260040161021c90614c87565b6000816001600160a01b0316630fc63d106040518163ffffffff1660e01b8152600401602060405180830381865afa158015612c45573d6000803e3d6000fd5b505050506040513d601f19601f82011682018060405250810190612c699190614c6a565b90506000826001600160a01b0316635f64b55b6040518163ffffffff1660e01b8152600401602060405180830381865afa158015612cab573d6000803e3d6000fd5b505050506040513d601f19601f82011682018060405250810190612ccf9190614c6a565b604051632d182be560e21b81529091506001600160a01b0384169063b460af9490612d02908c9033903090600401614cb0565b600060405180830381600087803b158015612d1c57600080fd5b505af1158015612d30573d6000803e3d6000fd5b505050506001600160a01b0382166000805160206152be8339815191521415612d6b57612d618a828b8b8b8b614035565b9095509350612dd2565b6001600160a01b0381166000805160206152be8339815191521415612d9857612d618a838b8b8b8b614035565b60405162461bcd60e51b815260206004820152600f60248201526e1393d517d5d350551250d7d413d3d3608a1b604482015260640161021c565b856001600160a01b0316336001600160a01b03168b6001600160a01b03166000805160206152378339815191528c604051612e0f91815260200190565b60405180910390a45050509550959350505050565b60c95460405163f9d9331d60e01b81526001600160a01b038581166004830152600092169063f9d9331d90602401602060405180830381865afa158015612e6f573d6000803e3d6000fd5b505050506040513d601f19601f82011682018060405250810190612e939190614c6a565b90506001600160a01b038116612ebb5760405162461bcd60e51b815260040161021c90614c87565b604051632d182be560e21b81526001600160a01b0382169063b460af9490612eeb90869033908790600401614cb0565b600060405180830381600087803b158015612f0557600080fd5b505af1158015612f19573d6000803e3d6000fd5b50505050816001600160a01b0316336001600160a01b0316856001600160a01b031660008051602061523783398151915286604051610ec791815260200190565b60c95460405163f9d9331d60e01b81526001600160a01b038381166004830152600092839283928392169063f9d9331d90602401602060405180830381865afa158015612fab573d6000803e3d6000fd5b505050506040513d601f19601f82011682018060405250810190612fcf9190614c6a565b90506001600160a01b0381161561305457806001600160a01b031663168a48226040518163ffffffff1660e01b8152600401602060405180830381865afa15801561301e573d6000803e3d6000fd5b505050506040513d601f19601f820116820180604052508101906130429190615003565b935061304e8585613b7f565b90935091505b509193909250565b600080600061306d60335460ff1690565b1561308a5760405162461bcd60e51b815260040161021c90614e7a565b600034116130ca5760405162461bcd60e51b815260206004820152600d60248201526c1393d7d350551250d7d4d15395609a1b604482015260640161021c565b600087116130ea5760405162461bcd60e51b815260040161021c90614ea4565b60c95460405163f9d9331d60e01b81526001600160a01b038a81166004830152600092169063f9d9331d90602401602060405180830381865afa158015613135573d6000803e3d6000fd5b505050506040513d601f19601f820116820180604052508101906131599190614c6a565b90506001600160a01b0381166131db5760c954604051621849e360e61b81526001600160a01b038b811660048301529091169063061278c0906024016020604051808303816000875af11580156131b4573d6000803e3d6000fd5b505050506040513d601f19601f820116820180604052508101906131d89190614c6a565b90505b6000816001600160a01b0316630fc63d106040518163ffffffff1660e01b8152600401602060405180830381865afa15801561321b573d6000803e3d6000fd5b505050506040513d601f19601f8201168201806040525081019061323f9190614c6a565b90506000826001600160a01b0316635f64b55b6040518163ffffffff1660e01b8152600401602060405180830381865afa158015613281573d6000803e3d6000fd5b505050506040513d601f19601f820116820180604052508101906132a59190614c6a565b90506001600160a01b0382166000805160206152be83398151915214156132f4576132db6001600160a01b03821633308d613a88565b6132e8818b8b8b8761414f565b91975095509350613335565b6001600160a01b0381166000805160206152be8339815191521415612d98576133286001600160a01b03831633308d613a88565b6132e8828b8b8b8761414f565b604051636e553f6560e01b8152600481018590526001600160a01b038881166024830152841690636e553f6590604401600060405180830381600087803b15801561337f57600080fd5b505af1158015613393573d6000803e3d6000fd5b50505050866001600160a01b0316336001600160a01b03168c6001600160a01b0316600080516020615277833981519152876040516109e391815260200190565b6001600160a01b03163b151590565b600080886001600160a01b031663095ea7b37310f4a785f458bc144e3706575924889954946639886040518363ffffffff1660e01b8152600401613428929190614ccf565b6020604051808303816000875af1158015613447573d6000803e3d6000fd5b505050506040513d601f19601f8201168201806040525081019061346b9190614ce8565b50604051635d5155ef60e11b81526001600160a01b03808a1660048301528089166024830152604482018890526064820187905260848201869052841660a48201524260c48201527310f4a785f458bc144e37065759248899549466399063baa2abde9060e40160408051808303816000875af11580156134f0573d6000803e3d6000fd5b505050506040513d601f19601f820116820180604052508101906135149190615044565b909a909950975050505050505050565b6040516370a0823160e01b8152306004820152600090819081906001600160a01b038516906370a0823190602401602060405180830381865afa15801561356f573d6000803e3d6000fd5b505050506040513d601f19601f820116820180604052508101906135939190615003565b9050600080731111111254eeb25477b68fb85ed929f73a9605826001600160a01b031688886040516135c6929190615068565b6000604051808303816000865af19150503d8060008114613603576040519150601f19603f3d011682016040523d82523d6000602084013e613608565b606091505b5091509150816136505760405162461bcd60e51b815260206004820152601360248201527214d5d05417d393d517d4d550d0d154d4d19553606a1b604482015260640161021c565b808060200190518101906136649190615044565b6040516370a0823160e01b815230600482015291965094506000906001600160a01b038816906370a0823190602401602060405180830381865afa1580156136b0573d6000803e3d6000fd5b505050506040513d601f19601f820116820180604052508101906136d49190615003565b9050856136e18583614d9c565b146137225760405162461bcd60e51b815260206004820152601160248201527010905117d4915515549397d05353d55395607a1b604482015260640161021c565b50505050935093915050565b61100b8363a9059cbb60e01b848460405160240161374d929190614ccf565b60408051601f198184030181529190526020810180516001600160e01b03166001600160e01b0319909316929092179091526142d9565b60ca60009054906101000a90046001600160a01b03166001600160a01b03166375b238fc6040518163ffffffff1660e01b8152600401602060405180830381865afa1580156137d7573d6000803e3d6000fd5b505050506040513d601f19601f820116820180604052508101906137fb9190615003565b60ca54604051632474521560e21b8152600481018390523360248201526001600160a01b03909116906391d1485490604401602060405180830381865afa15801561384a573d6000803e3d6000fd5b505050506040513d601f19601f8201168201806040525081019061386e9190614ce8565b61131e5760405162461bcd60e51b815260040161021c90614e4b565b7f4910fdfa16fed3260ed0e7147f7cc6da11a60208b5b9406d12a635614ffd91435460ff16156138bd5761100b836143ab565b826001600160a01b03166352d1902d6040518163ffffffff1660e01b8152600401602060405180830381865afa925050508015613917575060408051601f3d908101601f1916820190925261391491810190615003565b60015b61397a5760405162461bcd60e51b815260206004820152602e60248201527f45524331393637557067726164653a206e657720696d706c656d656e7461746960448201526d6f6e206973206e6f74205555505360901b606482015260840161021c565b60008051602061525783398151915281146139e95760405162461bcd60e51b815260206004820152602960248201527f45524331393637557067726164653a20756e737570706f727465642070726f786044820152681a58589b195555525160ba1b606482015260840161021c565b5061100b838383614447565b60335460ff16613a3e5760405162461bcd60e51b815260206004820152601460248201527314185d5cd8589b194e881b9bdd081c185d5cd95960621b604482015260640161021c565b6033805460ff191690557f5db9ee0a495bf2e6ff9c91a7834c1ba4fdd244a5e8aa4e537bd38aeae4b073aa335b6040516001600160a01b03909116815260200160405180910390a1565b6040516001600160a01b0380851660248301528316604482015260648101829052613ac09085906323b872dd60e01b9060840161374d565b50505050565b60008054610100900460ff1615613b0d578160ff166001148015613ae95750303b155b613b055760405162461bcd60e51b815260040161021c90615078565b506000919050565b60005460ff808416911610613b345760405162461bcd60e51b815260040161021c90615078565b506000805460ff191660ff92909216919091179055600190565b600054610100900460ff16613b755760405162461bcd60e51b815260040161021c906150c6565b613b7d61446c565b565b6000806000846001600160a01b03166318160ddd6040518163ffffffff1660e01b8152600401602060405180830381865afa158015613bc2573d6000803e3d6000fd5b505050506040513d601f19601f82011682018060405250810190613be69190615003565b905080856001600160a01b0316630dfe16816040518163ffffffff1660e01b8152600401602060405180830381865afa158015613c27573d6000803e3d6000fd5b505050506040513d601f19601f82011682018060405250810190613c4b9190614c6a565b6040516370a0823160e01b81526001600160a01b03888116600483015291909116906370a0823190602401602060405180830381865afa158015613c93573d6000803e3d6000fd5b505050506040513d601f19601f82011682018060405250810190613cb79190615003565b613cc19086615111565b613ccb9190615130565b925080856001600160a01b031663d21220a76040518163ffffffff1660e01b8152600401602060405180830381865afa158015613d0c573d6000803e3d6000fd5b505050506040513d601f19601f82011682018060405250810190613d309190614c6a565b6040516370a0823160e01b81526001600160a01b03888116600483015291909116906370a0823190602401602060405180830381865afa158015613d78573d6000803e3d6000fd5b505050506040513d601f19601f82011682018060405250810190613d9c9190615003565b613da69086615111565b613db09190615130565b9150509250929050565b6000806000896001600160a01b031663095ea7b37310f4a785f458bc144e37065759248899549466398a6040518363ffffffff1660e01b8152600401613e01929190614ccf565b6020604051808303816000875af1158015613e20573d6000803e3d6000fd5b505050506040513d601f19601f82011682018060405250810190613e449190614ce8565b5060405163095ea7b360e01b81526001600160a01b038a169063095ea7b390613e87907310f4a785f458bc144e3706575924889954946639908b90600401614ccf565b6020604051808303816000875af1158015613ea6573d6000803e3d6000fd5b505050506040513d601f19601f82011682018060405250810190613eca9190614ce8565b5060405162e8e33760e81b81526001600160a01b03808c166004830152808b166024830152604482018a9052606482018990526084820188905260a48201879052851660c48201524260e48201527310f4a785f458bc144e37065759248899549466399063e8e3370090610104016060604051808303816000875af1158015613f57573d6000803e3d6000fd5b505050506040513d601f19601f82011682018060405250810190613f7b9190615152565b9194509250905082881115613fa957613fa933613f98858b614d9c565b6001600160a01b038d16919061372e565b81871115613fd057613fd033613fbf848a614d9c565b6001600160a01b038c16919061372e565b9750975097945050505050565b60335460ff16156140005760405162461bcd60e51b815260040161021c90614e7a565b6033805460ff191660011790557f62e78cea01bee320cd4e420270b5ea74000d11b0c9f74754ebdbfc544b05a258613a6b3390565b600080876001600160a01b031663095ea7b37310f4a785f458bc144e3706575924889954946639886040518363ffffffff1660e01b815260040161407a929190614ccf565b6020604051808303816000875af1158015614099573d6000803e3d6000fd5b505050506040513d601f19601f820116820180604052508101906140bd9190614ce8565b50604051629d473b60e21b81527310f4a785f458bc144e3706575924889954946639906302751cec906140fe908a908a908a908a908a904290600401615180565b60408051808303816000875af115801561411c573d6000803e3d6000fd5b505050506040513d601f19601f820116820180604052508101906141409190615044565b90999098509650505050505050565b6000806000876001600160a01b031663095ea7b37310f4a785f458bc144e3706575924889954946639896040518363ffffffff1660e01b8152600401614196929190614ccf565b6020604051808303816000875af11580156141b5573d6000803e3d6000fd5b505050506040513d601f19601f820116820180604052508101906141d99190614ce8565b5060405163f305d71960e01b81527310f4a785f458bc144e37065759248899549466399063f305d71990349061421d908c908c908c908c908c904290600401615180565b60606040518083038185885af115801561423b573d6000803e3d6000fd5b50505050506040513d601f19601f820116820180604052508101906142609190615152565b919450925090508287111561428e5761428e3361427d858a614d9c565b6001600160a01b038b16919061372e565b813411156142ce57336108fc6142a48434614d9c565b6040518115909202916000818181858888f193505050501580156142cc573d6000803e3d6000fd5b505b955095509592505050565b600061432e826040518060400160405280602081526020017f5361666545524332303a206c6f772d6c6576656c2063616c6c206661696c6564815250856001600160a01b031661449f9092919063ffffffff16565b80519091501561100b578080602001905181019061434c9190614ce8565b61100b5760405162461bcd60e51b815260206004820152602a60248201527f5361666545524332303a204552433230206f7065726174696f6e20646964206e6044820152691bdd081cdd58d8d9595960b21b606482015260840161021c565b6001600160a01b0381163b6144185760405162461bcd60e51b815260206004820152602d60248201527f455243313936373a206e657720696d706c656d656e746174696f6e206973206e60448201526c1bdd08184818dbdb9d1c9858dd609a1b606482015260840161021c565b60008051602061525783398151915280546001600160a01b0319166001600160a01b0392909216919091179055565b614450836144b8565b60008251118061445d5750805b1561100b57613ac083836144f8565b600054610100900460ff166144935760405162461bcd60e51b815260040161021c906150c6565b6033805460ff19169055565b60606144ae84846000856145ee565b90505b9392505050565b6144c1816143ab565b6040516001600160a01b038216907fbc7cd75a20ee27fd9adebab32041f755214dbc6bffa90cc0225b39da2e5c2d3b90600090a250565b60606001600160a01b0383163b6145605760405162461bcd60e51b815260206004820152602660248201527f416464726573733a2064656c65676174652063616c6c20746f206e6f6e2d636f6044820152651b9d1c9858dd60d21b606482015260840161021c565b600080846001600160a01b03168460405161457b91906151e7565b600060405180830381855af49150503d80600081146145b6576040519150601f19603f3d011682016040523d82523d6000602084013e6145bb565b606091505b50915091506145e382826040518060600160405280602781526020016152976027913961471f565b925050505b92915050565b60608247101561464f5760405162461bcd60e51b815260206004820152602660248201527f416464726573733a20696e73756666696369656e742062616c616e636520666f6044820152651c8818d85b1b60d21b606482015260840161021c565b6001600160a01b0385163b6146a65760405162461bcd60e51b815260206004820152601d60248201527f416464726573733a2063616c6c20746f206e6f6e2d636f6e7472616374000000604482015260640161021c565b600080866001600160a01b031685876040516146c291906151e7565b60006040518083038185875af1925050503d80600081146146ff576040519150601f19603f3d011682016040523d82523d6000602084013e614704565b606091505b509150915061471482828661471f565b979650505050505050565b6060831561472e5750816144b1565b82511561473e5782518084602001fd5b8160405162461bcd60e51b815260040161021c9190615203565b6001600160a01b0381168114610ad657600080fd5b80604081018310156145e857600080fd5b600080600080600060a0868803121561479657600080fd5b85356147a181614758565b94506020860135935060408601356147b881614758565b9250606086013567ffffffffffffffff8111156147d457600080fd5b6147e08882890161476d565b92505060808601356147f181614758565b809150509295509295909350565b60006020828403121561481157600080fd5b81356144b181614758565b6020808252825182820181905260009190848201906040850190845b8181101561485d5783516001600160a01b031683529284019291840191600101614838565b50909695505050505050565b60008060006060848603121561487e57600080fd5b833561488981614758565b92506020840135915060408401356148a081614758565b809150509250925092565b600080604083850312156148be57600080fd5b82356148c981614758565b915060208301356148d981614758565b809150509250929050565b600080600080608085870312156148fa57600080fd5b843561490581614758565b9350602085013567ffffffffffffffff8082111561492257600080fd5b61492e8883890161476d565b9450604087013591508082111561494457600080fd5b5085016040818803121561495757600080fd5b9150606085013561496781614758565b939692955090935050565b634e487b7160e01b600052604160045260246000fd5b6000806040838503121561499b57600080fd5b82356149a681614758565b9150602083013567ffffffffffffffff808211156149c357600080fd5b818501915085601f8301126149d757600080fd5b8135818111156149e9576149e9614972565b604051601f8201601f19908116603f01168101908382118183101715614a1157614a11614972565b81604052828152886020848701011115614a2a57600080fd5b8260208601602083013760006020848301015280955050505050509250929050565b60008060008060008060c08789031215614a6557600080fd5b8635614a7081614758565b95506020870135945060408701359350606087013592506080870135915060a0870135614a9c81614758565b809150509295509295509295565b600060208284031215614abc57600080fd5b5035919050565b600080600080600080600060e0888a031215614ade57600080fd5b8735614ae981614758565b96506020880135614af981614758565b955060408801359450606088013567ffffffffffffffff811115614b1c57600080fd5b614b288a828b0161476d565b9450506080880135925060a0880135915060c0880135614b4781614758565b8091505092959891949750929550565b600080600080600060a08688031215614b6f57600080fd5b8535614b7a81614758565b9450602086013567ffffffffffffffff811115614b9657600080fd5b614ba28882890161476d565b945050604086013592506060860135915060808601356147f181614758565b60008060008060808587031215614bd757600080fd5b8435614be281614758565b935060208501359250604085013567ffffffffffffffff811115614c0557600080fd5b614c118782880161476d565b925050606085013561496781614758565b600080600080600060a08688031215614c3a57600080fd5b8535614c4581614758565b945060208601359350604086013592506060860135915060808601356147f181614758565b600060208284031215614c7c57600080fd5b81516144b181614758565b6020808252600f908201526e4641524d5f4e4f545f45584953545360881b604082015260600190565b9283526001600160a01b03918216602084015216604082015260600190565b6001600160a01b03929092168252602082015260400190565b600060208284031215614cfa57600080fd5b815180151581146144b157600080fd5b634e487b7160e01b600052603260045260246000fd5b6000808335601e19843603018112614d3757600080fd5b83018035915067ffffffffffffffff821115614d5257600080fd5b602001915036819003821315614d6757600080fd5b9250929050565b634e487b7160e01b600052601160045260246000fd5b60008219821115614d9757614d97614d6e565b500190565b600082821015614dae57614dae614d6e565b500390565b6020808252602c908201527f46756e6374696f6e206d7573742062652063616c6c6564207468726f7567682060408201526b19195b1959d85d1958d85b1b60a21b606082015260800190565b6020808252602c908201527f46756e6374696f6e206d7573742062652063616c6c6564207468726f7567682060408201526b6163746976652070726f787960a01b606082015260800190565b60208082526015908201527410d05313115497d393d517d055551213d492569151605a1b604082015260600190565b60208082526010908201526f14185d5cd8589b194e881c185d5cd95960821b604082015260600190565b6020808252600d908201526c1393d7d513d2d15397d4d15395609a1b604082015260600190565b6000604083018235601e19843603018112614ee557600080fd5b83018035602067ffffffffffffffff821115614f0057600080fd5b8160051b3603861315614f1257600080fd5b60408752928190529082019160009190606087015b82841015614f57578435614f3a81614758565b6001600160a01b0316815293810193600193909301928101614f27565b9581013596019590955250919392505050565b608080825260009060c083019083018683805b6002811015614fc557868503607f190184528235368b9003603e19018112614fa3578283fd5b614faf868c8301614ecb565b9550506020938401939290920191600101614f7d565b505050508281036020840152614fdb8186614ecb565b84516001600160a01b0316604085015260209094015160609093019290925250909392505050565b60006020828403121561501557600080fd5b5051919050565b6020808252600e908201526d1393d7d513d2d15394d7d4d1539560921b604082015260600190565b6000806040838503121561505757600080fd5b505080516020909101519092909150565b8183823760009101908152919050565b6020808252602e908201527f496e697469616c697a61626c653a20636f6e747261637420697320616c72656160408201526d191e481a5b9a5d1a585b1a5e995960921b606082015260800190565b6020808252602b908201527f496e697469616c697a61626c653a20636f6e7472616374206973206e6f74206960408201526a6e697469616c697a696e6760a81b606082015260800190565b600081600019048311821515161561512b5761512b614d6e565b500290565b60008261514d57634e487b7160e01b600052601260045260246000fd5b500490565b60008060006060848603121561516757600080fd5b8351925060208401519150604084015190509250925092565b6001600160a01b039687168152602081019590955260408501939093526060840191909152909216608082015260a081019190915260c00190565b60005b838110156151d65781810151838201526020016151be565b83811115613ac05750506000910152565b600082516151f98184602087016151bb565b9190910192915050565b60208152600082518060208401526152228160408501602087016151bb565b601f01601f1916919091016040019291505056fe3115d1449a7b732c986cba18244e897a450f61e1bb8d589cd2e69e6c8924f9f7360894a13ba1a3210667c828492db98dca3e2076cc3735a920a3ca505d382bbc7cfff908a4b583f36430b25d75964c458d8ede8a99bd61be750e97ee1b2f3a96416464726573733a206c6f772d6c6576656c2064656c65676174652063616c6c206661696c65640000000000000000000000000d500b1d8e8ef31e21c99d1db9a6444d3adf1270a264697066735822122013d4d5e1c22d6093bdc7fa7f1b2c934572c1ec7d985267773803aa930c07b35464736f6c634300080a0033496e697469616c697a61626c653a20636f6e747261637420697320616c726561",
  "immutableReferences": {
    "561": [
      {
        "length": 32,
        "start": 2564
      },
      {
        "length": 32,
        "start": 2628
      },
      {
        "length": 32,
        "start": 4700
      },
      {
        "length": 32,
        "start": 4764
      },
      {
        "length": 32,
        "start": 5177
      }
    ]
  },
  "source": "// SPDX-License-Identifier: MIT\r\npragma solidity 0.8.10;\r\n\r\nimport { IUnoFarmMeshswap as Farm } from \"./interfaces/IUnoFarmMeshswap.sol\";\r\nimport \"../../interfaces/IUniswapV2Router.sol\";\r\nimport \"../../interfaces/IUnoFarmFactory.sol\";\r\nimport \"../../interfaces/IUnoAccessManager.sol\";\r\nimport \"../../interfaces/IUniswapV2Pair.sol\";\r\nimport \"../../interfaces/IWMATIC.sol\";\r\nimport \"@openzeppelin/contracts-upgradeable/proxy/utils/Initializable.sol\";\r\nimport \"@openzeppelin/contracts-upgradeable/token/ERC20/utils/SafeERC20Upgradeable.sol\";\r\nimport \"@openzeppelin/contracts-upgradeable/token/ERC20/IERC20Upgradeable.sol\";\r\nimport \"@openzeppelin/contracts-upgradeable/security/PausableUpgradeable.sol\";\r\nimport \"@openzeppelin/contracts-upgradeable/proxy/utils/UUPSUpgradeable.sol\";\r\n\r\ncontract UnoAssetRouterMeshswap is Initializable, PausableUpgradeable, UUPSUpgradeable {\r\n\tusing SafeERC20Upgradeable for IERC20Upgradeable;\r\n\r\n\t/**\r\n\t * @dev Contract Variables:\r\n\t * farmFactory - The contract that deploys new Farms and links them to {lpPair}s.\r\n\t * accessManager - Role manager contract.\r\n\t */\r\n\tIUnoFarmFactory public farmFactory;\r\n\tIUnoAccessManager public accessManager;\r\n\r\n\tbytes32 private constant DISTRIBUTOR_ROLE = keccak256(\"DISTRIBUTOR_ROLE\");\r\n\tbytes32 private constant PAUSER_ROLE = keccak256(\"PAUSER_ROLE\");\r\n\r\n\tuint256 public fee;\r\n\r\n\taddress public constant WMATIC = 0x0d500B1d8E8eF31E21C99d1Db9A6444d3ADf1270;\r\n\tIUniswapV2Router01 public constant MeshswapRouter = IUniswapV2Router01(0x10f4A785F458Bc144e3706575924889954946639);\r\n\taddress private constant OneInchRouter = 0x1111111254EEB25477B68fb85Ed929f73A960582;\r\n\r\n\tevent Deposit(address indexed lpPool, address indexed sender, address indexed recipient, uint256 amount);\r\n\tevent Withdraw(address indexed lpPool, address indexed sender, address indexed recipient, uint256 amount);\r\n\tevent Distribute(address indexed lpPool, uint256 reward);\r\n\r\n\tevent FeeChanged(uint256 previousFee, uint256 newFee);\r\n\r\n\tmodifier onlyRole(bytes32 role) {\r\n\t\trequire(accessManager.hasRole(role, msg.sender), \"CALLER_NOT_AUTHORIZED\");\r\n\t\t_;\r\n\t}\r\n\r\n\t// ============ Methods ============\r\n\r\n\t/// @custom:oz-upgrades-unsafe-allow constructor\r\n\tconstructor() {\r\n\t\t_disableInitializers();\r\n\t}\r\n\r\n\tfunction initialize(address _accessManager, address _farmFactory) external initializer{\r\n\t\trequire(_accessManager != address(0), \"BAD_ACCESS_MANAGER\");\r\n\t\trequire(_farmFactory != address(0), \"BAD_FARM_FACTORY\");\r\n\r\n\t\t__Pausable_init();\r\n\t\taccessManager = IUnoAccessManager(_accessManager);\r\n\t\tfarmFactory = IUnoFarmFactory(_farmFactory);\r\n\t}\r\n\r\n\treceive() external payable {\r\n        require(msg.sender == WMATIC || msg.sender == address(MeshswapRouter), 'ONLY_ACCEPT_WMATIC_OR_ROUTER'); // only accept ETH via fallback from the WMATIC or router contract\r\n\t}\r\n\r\n\t/**\r\n     * @dev Deposits tokens in the given pool. Creates new Farm contract if there isn't one deployed for the {lpPair} and deposits tokens in it. Emits a {Deposit} event.\r\n     * @param lpPair - Address of the pool to deposit tokens in.\r\n     * @param amountA  - Token A amount to deposit.\r\n     * @param amountB -  Token B amount to deposit.\r\n     * @param amountAMin - Bounds the extent to which the B/A price can go up before the transaction reverts.\r\n     * @param amountBMin - Bounds the extent to which the A/B price can go up before the transaction reverts.\r\n     * @param recipient - Address which will receive the deposit.\r\n     \r\n     * @return sentA - Token A amount sent to the farm.\r\n     * @return sentB - Token B amount sent to the farm.\r\n     * @return liquidity - Total liquidity sent to the farm (in lpTokens).\r\n     */\r\n    function deposit(address lpPair, uint256 amountA, uint256 amountB, uint256 amountAMin, uint256 amountBMin, address recipient) external whenNotPaused returns(uint256 sentA, uint256 sentB, uint256 liquidity){\r\n        require(amountA > 0 && amountB > 0, \"NO_TOKENS_SENT\");\r\n        Farm farm = Farm(farmFactory.Farms(lpPair));\r\n        if(farm == Farm(address(0))){\r\n            farm = Farm(farmFactory.createFarm(lpPair));\r\n        }\r\n\r\n        address tokenA = farm.tokenA();\r\n        address tokenB = farm.tokenB();\r\n        IERC20Upgradeable(tokenA).safeTransferFrom(msg.sender, address(this), amountA);\r\n        IERC20Upgradeable(tokenB).safeTransferFrom(msg.sender, address(this), amountB);\r\n\r\n        (sentA, sentB, liquidity) = _addLiquidity(tokenA, tokenB, amountA, amountB, amountAMin, amountBMin, address(farm));\r\n        farm.deposit(liquidity, recipient);\r\n\r\n        emit Deposit(lpPair, msg.sender, recipient, liquidity); \r\n    }\r\n\r\n    /**\r\n     * @dev Autoconverts MATIC into WMATIC and deposits tokens in the given pool. Creates new Farm contract if there isn't one deployed for the {lpStakingPool} and deposits tokens in it. Emits a {Deposit} event.\r\n     * @param lpPair - Address of the pool to deposit tokens in.\r\n     * @param amountToken  - Token amount to deposit.\r\n     * @param amountTokenMin - Bounds the extent to which the TOKEN/WMATIC price can go up before the transaction reverts.\r\n     * @param amountETHMin - Bounds the extent to which the WMATIC/TOKEN price can go up before the transaction reverts.\r\n     * @param recipient - Address which will receive the deposit.\r\n     \r\n     * @return sentToken - Token amount sent to the farm.\r\n     * @return sentETH - WMATIC amount sent to the farm.\r\n     * @return liquidity - Total liquidity sent to the farm (in lpTokens).\r\n     */\r\n    function depositETH(address lpPair, uint256 amountToken, uint256 amountTokenMin, uint256 amountETHMin, address recipient) external payable whenNotPaused returns(uint256 sentToken, uint256 sentETH, uint256 liquidity){\r\n        require(msg.value > 0, \"NO_MATIC_SENT\");\r\n        require(amountToken > 0, \"NO_TOKEN_SENT\");\r\n        Farm farm = Farm(farmFactory.Farms(lpPair));\r\n        if(farm == Farm(address(0))){\r\n            farm = Farm(farmFactory.createFarm(lpPair));\r\n        }\r\n\r\n        address tokenA = farm.tokenA();\r\n        address tokenB = farm.tokenB();\r\n        if (tokenA == WMATIC) {\r\n            IERC20Upgradeable(tokenB).safeTransferFrom(msg.sender, address(this), amountToken);\r\n            (sentToken, sentETH, liquidity) = _addLiquidityETH(tokenB, amountToken, amountTokenMin, amountETHMin, address(farm));\r\n        } else if (tokenB == WMATIC) {\r\n            IERC20Upgradeable(tokenA).safeTransferFrom(msg.sender, address(this), amountToken);\r\n            (sentToken, sentETH, liquidity) = _addLiquidityETH(tokenA, amountToken, amountTokenMin, amountETHMin, address(farm));\r\n        } else {\r\n            revert(\"NOT_WMATIC_POOL\");\r\n        }\r\n        farm.deposit(liquidity, recipient);\r\n\r\n        emit Deposit(lpPair, msg.sender, recipient, liquidity);\r\n    }\r\n\r\n    /**\r\n     * @dev Deposits single token in the given pool. Creates new Farm contract if there isn't one deployed for the {lpPair}, swaps {token} for pool tokens and deposits them. Emits a {Deposit} event.\r\n     * @param lpPair - Address of the pool to deposit tokens in.\r\n     * @param token  - Address of a token to enter the pool.\r\n     * @param amount - Amount of token sent.\r\n     * @param swapData - Parameter with which 1inch router is being called with.\r\n     * @param amountAMin - Bounds the extent to which the B/A price can go up before the transaction reverts.\r\n     * @param amountBMin - Bounds the extent to which the A/B price can go up before the transaction reverts.\r\n     * @param recipient - Address which will receive the deposit.\r\n     \r\n     * @return sent - Total {token} amount sent to the farm. NOTE: Returns dust left from swap in {token}, but if A/B amounts are not correct also returns dust in pool's tokens.\r\n     * @return liquidity - Total liquidity sent to the farm (in lpTokens).\r\n     */\r\n    function depositSingleAsset(address lpPair, address token, uint256 amount, bytes[2] calldata swapData, uint256 amountAMin, uint256 amountBMin, address recipient) external whenNotPaused returns(uint256 sent, uint256 liquidity){\r\n        require(amount > 0, \"NO_TOKEN_SENT\");\r\n        Farm farm = Farm(farmFactory.Farms(lpPair));\r\n        if(farm == Farm(address(0))){\r\n            farm = Farm(farmFactory.createFarm(lpPair));\r\n        }\r\n\r\n        IERC20Upgradeable(token).safeTransferFrom(msg.sender, address(this), amount);\r\n        IERC20Upgradeable(token).approve(OneInchRouter, amount);\r\n\r\n        sent = amount;\r\n        uint256 amountA;\r\n        uint256 amountB;\r\n        address tokenA = farm.tokenA();\r\n        address tokenB = farm.tokenB();\r\n\r\n        if (tokenA != token) {\r\n            (uint256 returnAmount, uint256 spentAmount) = _swap(swapData[0], tokenA);\r\n            amount -= spentAmount;\r\n            amountA = returnAmount;\r\n        }\r\n        if (tokenB != token) {\r\n            (uint256 returnAmount, uint256 spentAmount) = _swap(swapData[1], tokenB);\r\n            amount -= spentAmount;\r\n            amountB = returnAmount;\r\n        }\r\n\r\n        if (tokenA == token) {\r\n            amountA = amount;\r\n        } else if (tokenB == token) {\r\n            amountB = amount;\r\n        } else if(amount > 0) {\r\n            sent -= amount;\r\n            IERC20Upgradeable(token).safeTransfer(msg.sender, amount);\r\n        }\r\n\r\n        require(amountA > 0 && amountB > 0, \"NO_TOKENS_SENT\");\r\n        (,,liquidity) = _addLiquidity(tokenA, tokenB, amountA, amountB, amountAMin, amountBMin, address(farm));\r\n        farm.deposit(liquidity, recipient);\r\n        \r\n        emit Deposit(lpPair, msg.sender, recipient, liquidity);\r\n    }\r\n     \r\n    /**\r\n     * @dev Deposits single MATIC in the given pool. Creates new Farm contract if there isn't one deployed for the {lpPair}, swaps MATIC for pool tokens and deposits them. Emits a {Deposit} event.\r\n     * @param lpPair - Address of the pool to deposit tokens in.\r\n     * @param swapData - Parameter with which 1inch router is being called with. NOTE: Use WMATIC as toToken.\r\n     * @param amountAMin - Bounds the extent to which the B/A price can go up before the transaction reverts.\r\n     * @param amountBMin - Bounds the extent to which the A/B price can go up before the transaction reverts.\r\n     * @param recipient - Address which will receive the deposit.\r\n     \r\n     * @return sentETH - Total MATIC amount sent to the farm. NOTE: Returns dust left from swap in MATIC, but if A/B amount are not correct also returns dust in pool's tokens.\r\n     * @return liquidity - Total liquidity sent to the farm (in lpTokens).\r\n     */\r\n    function depositSingleETH(address lpPair, bytes[2] calldata swapData, uint256 amountAMin, uint256 amountBMin, address recipient) external payable whenNotPaused returns(uint256 sentETH, uint256 liquidity){\r\n        require(msg.value > 0, \"NO_MATIC_SENT\");\r\n        Farm farm = Farm(farmFactory.Farms(lpPair));\r\n        if(farm == Farm(address(0))){\r\n            farm = Farm(farmFactory.createFarm(lpPair));\r\n        }\r\n\r\n        uint256 amount = msg.value;\r\n        IWMATIC(WMATIC).deposit{value: amount}();\r\n        IERC20Upgradeable(WMATIC).approve(OneInchRouter, amount);\r\n\r\n        sentETH = amount;\r\n        uint256 amountA;\r\n        uint256 amountB;\r\n        address tokenA = farm.tokenA();\r\n        address tokenB = farm.tokenB();\r\n\r\n        if (tokenA != WMATIC) {\r\n            (uint256 returnAmount, uint256 spentAmount) = _swap(swapData[0], tokenA);\r\n            amount -= spentAmount;\r\n            amountA = returnAmount;\r\n        }\r\n        if (tokenB != WMATIC) {\r\n            (uint256 returnAmount, uint256 spentAmount) = _swap(swapData[1], tokenB);\r\n            amount -= spentAmount;\r\n            amountB = returnAmount;\r\n        }\r\n\r\n        if (tokenA == WMATIC) {\r\n            amountA = amount;\r\n        } else if (tokenB == WMATIC) {\r\n            amountB = amount;\r\n        } else if (amount > 0) {\r\n            sentETH -= amount;\r\n            IWMATIC(WMATIC).withdraw(amount);\r\n            payable(msg.sender).transfer(amount);\r\n        }\r\n\r\n        require(amountA > 0 && amountB > 0, \"NO_TOKENS_SENT\");\r\n        (,,liquidity) = _addLiquidity(tokenA, tokenB, amountA, amountB, amountAMin, amountBMin, address(farm));\r\n        farm.deposit(liquidity, recipient);\r\n\r\n        emit Deposit(lpPair, msg.sender, recipient, liquidity);\r\n    }\r\n\r\n    /**\r\n     * @dev Deposits tokens in the given pool. Creates new Farm contract if there isn't one deployed for the {lpPair} and deposits tokens in it. Emits a {Deposit} event.\r\n     * @param lpPair - Address of the pool to deposit tokens in.\r\n     * @param amount - LP Token amount to deposit.\r\n     * @param recipient - Address which will receive the deposit.\r\n     */\r\n    function depositLP(address lpPair, uint256 amount, address recipient) external whenNotPaused{\r\n        require(amount > 0, \"NO_TOKEN_SENT\");\r\n        Farm farm = Farm(farmFactory.Farms(lpPair));\r\n        if(farm == Farm(address(0))){\r\n            farm = Farm(farmFactory.createFarm(lpPair));\r\n        }\r\n\r\n        IERC20Upgradeable(lpPair).safeTransferFrom(msg.sender, address(farm), amount);\r\n        farm.deposit(amount, recipient);\r\n\r\n        emit Deposit(lpPair, msg.sender, recipient, amount); \r\n    }\r\n\r\n\t/** \r\n     * @dev Withdraws a pair of tokens from the given pool. Emits a {Withdraw} event.\r\n     * @param lpPair - LP pool to withdraw from.\r\n     * @param amount - LP amount to withdraw. \r\n     * @param amountAMin - The minimum amount of tokenA that must be received for the transaction not to revert.\r\n     * @param amountBMin - The minimum amount of tokenB that must be received for the transaction not to revert.\r\n     * @param recipient - The address which will receive tokens.\r\n\r\n     * @return amountA - Token A amount sent to the {recipient}\r\n     * @return amountB - Token B amount sent to the {recipient}\r\n     */\r\n    function withdraw(address lpPair, uint256 amount, uint256 amountAMin, uint256 amountBMin, address recipient) external returns(uint256 amountA, uint256 amountB){\r\n        Farm farm = Farm(farmFactory.Farms(lpPair));\r\n        require(farm != Farm(address(0)),'FARM_NOT_EXISTS');\r\n\r\n        farm.withdraw(amount, msg.sender, address(this));\r\n        (amountA, amountB) = _removeLiquidity(lpPair, farm.tokenA(), farm.tokenB(), amount, amountAMin, amountBMin, recipient);\r\n        \r\n        emit Withdraw(lpPair, msg.sender, recipient, amount);  \r\n    }\r\n\r\n\t/** \r\n     * @dev Autoconverts WMATIC into MATIC and withdraws tokens from the pool. Emits a {Withdraw} event.\r\n     * @param lpPair - LP pool to withdraw from.\r\n     * @param amount - LP amount to withdraw. \r\n     * @param amountTokenMin - The minimum amount of token that must be received for the transaction not to revert.\r\n     * @param amountETHMin - The minimum amount of MATIC that must be received for the transaction not to revert.\r\n     * @param recipient - The address which will receive tokens.\r\n\r\n     * @return amountToken - Token amount sent to the {recipient}.\r\n     * @return amountETH - MATIC amount sent to the {recipient}.\r\n     */\r\n    function withdrawETH(address lpPair, uint256 amount, uint256 amountTokenMin, uint256 amountETHMin, address recipient) external returns(uint256 amountToken, uint256 amountETH){\r\n        Farm farm = Farm(farmFactory.Farms(lpPair));\r\n        require(farm != Farm(address(0)),'FARM_NOT_EXISTS');\r\n\r\n        address tokenA = farm.tokenA();\r\n        address tokenB = farm.tokenB();\r\n\r\n        farm.withdraw(amount, msg.sender, address(this));\r\n        if (tokenA == WMATIC) {\r\n            (amountToken, amountETH) = _removeLiquidityETH(lpPair, tokenB, amount, amountTokenMin, amountETHMin, recipient);\r\n        } else if (tokenB == WMATIC) {\r\n            (amountToken, amountETH) = _removeLiquidityETH(lpPair, tokenA, amount, amountTokenMin, amountETHMin, recipient);\r\n        } else {\r\n            revert(\"NOT_WMATIC_POOL\");\r\n        }\r\n\r\n        emit Withdraw(lpPair, msg.sender, recipient, amount);\r\n    }\r\n\r\n    /**\r\n     * @dev Withdraws single token from the given pool. Emits a {Withdraw} event. Note: If there are any tokens left to be withdrawn after swaps they will be sent to the {{recipient}} in a respective token (not in {token}).\r\n     * @param lpPair - LP pool to withdraw from.\r\n     * @param amount - LP amount to withdraw. \r\n     * @param token  - Address of a token to exit the pool with.\r\n     * @param swapData - Parameter with which 1inch router is being called with.\r\n     * @param recipient - Address which will receive the deposit.\r\n     \r\n     * @return amountToken - {token} amount sent to the {recipient}.\r\n     * @return amountA - Token A dust sent to the {recipient}.\r\n     * @return amountB - Token B dust sent to the {recipient}.\r\n     */\r\n    function withdrawSingleAsset(address lpPair, uint256 amount, address token, bytes[2] calldata swapData, address recipient) external returns(uint256 amountToken, uint256 amountA, uint256 amountB){\r\n        Farm farm = Farm(farmFactory.Farms(lpPair));\r\n        require(farm != Farm(address(0)),'FARM_NOT_EXISTS');\r\n\r\n        farm.withdraw(amount, msg.sender, address(this));\r\n\r\n        address tokenA = farm.tokenA();\r\n        address tokenB = farm.tokenB();\r\n        (amountA, amountB) = _removeLiquidity(lpPair, tokenA, tokenB, amount, 0, 0, address(this));\r\n\r\n        if (tokenA != token) {\r\n            IERC20Upgradeable(tokenA).approve(OneInchRouter, amountA);\r\n            (uint256 returnAmount, uint256 spentAmount) = _swap(swapData[0], token);\r\n            amountToken += returnAmount;\r\n\r\n            amountA = amountA - spentAmount;\r\n            if(amountA > 0){\r\n                IERC20Upgradeable(tokenA).safeTransfer(recipient, amountA);\r\n            }\r\n        } else {\r\n            amountToken += amountA;\r\n            amountA = 0;\r\n        }\r\n\r\n        if (tokenB != token) {\r\n            IERC20Upgradeable(tokenB).approve(OneInchRouter, amountB);\r\n            (uint256 returnAmount, uint256 spentAmount) = _swap(swapData[1], token);\r\n            amountToken += returnAmount;\r\n\r\n            amountB = amountB - spentAmount;\r\n            if(amountB > 0){\r\n                IERC20Upgradeable(tokenB).safeTransfer(recipient, amountB);\r\n            }\r\n        } else {\r\n            amountToken += amountB;\r\n            amountB = 0;\r\n        }\r\n\r\n        IERC20Upgradeable(token).safeTransfer(recipient, amountToken);\r\n\r\n        emit Withdraw(lpPair, msg.sender, recipient, amount);\r\n    }\r\n     \r\n    /**\r\n     * @dev Withdraws single MATIC from the given pool. Emits a {Withdraw} event. Note: If there are any tokens left to be withdrawn after swaps they will be sent to the {{recipient}} in a respective token (not in MATIC).\r\n     * @param lpPair - LP pool to withdraw from.\r\n     * @param amount - LP amount to withdraw. \r\n     * @param swapData - Parameter with which 1inch router is being called with.\r\n     * @param recipient - Address which will receive the deposit.\r\n     \r\n     * @return amountETH - MATIC amount sent to the {recipient}.\r\n     * @return amountA - Token A dust sent to the {recipient}.\r\n     * @return amountB - Token B dust sent to the {recipient}.\r\n     */\r\n    function withdrawSingleETH(address lpPair,  uint256 amount, bytes[2] calldata swapData, address recipient) external returns(uint256 amountETH, uint256 amountA, uint256 amountB){\r\n        Farm farm = Farm(farmFactory.Farms(lpPair));\r\n        require(farm != Farm(address(0)),'FARM_NOT_EXISTS');\r\n\r\n        farm.withdraw(amount, msg.sender, address(this));\r\n\r\n        address tokenA = farm.tokenA();\r\n        address tokenB = farm.tokenB();\r\n        (amountA, amountB) = _removeLiquidity(lpPair, tokenA, tokenB, amount, 0, 0, address(this));\r\n\r\n        if (tokenA != WMATIC) {\r\n            IERC20Upgradeable(tokenA).approve(OneInchRouter, amountA);\r\n            (uint256 returnAmount, uint256 spentAmount) = _swap(swapData[0], WMATIC);\r\n            amountETH += returnAmount;\r\n\r\n            amountA = amountA - spentAmount;\r\n            if(amountA > 0){\r\n                IERC20Upgradeable(tokenA).safeTransfer(recipient, amountA);\r\n            }\r\n        } else {\r\n            amountETH += amountA;\r\n            amountA = 0;\r\n        }\r\n\r\n        if (tokenB != WMATIC) {\r\n            IERC20Upgradeable(tokenB).approve(OneInchRouter, amountB);\r\n            (uint256 returnAmount, uint256 spentAmount) = _swap(swapData[1], WMATIC);\r\n            amountETH += returnAmount;\r\n\r\n            amountB = amountB - spentAmount;\r\n            if(amountB > 0){\r\n                IERC20Upgradeable(tokenB).safeTransfer(recipient, amountB);\r\n            }\r\n        } else {\r\n            amountETH += amountB;\r\n            amountB = 0;\r\n        }\r\n\r\n        IWMATIC(WMATIC).withdraw(amountETH);\r\n        payable(recipient).transfer(amountETH);\r\n\r\n        emit Withdraw(lpPair, msg.sender, recipient, amount);\r\n    }\r\n\r\n    /** \r\n     * @dev Withdraws LP tokens from the given pool. Emits a {Withdraw} event.\r\n     * @param lpPair - LP pool to withdraw from.\r\n     * @param amount - LP amount to withdraw. \r\n     * @param recipient - The address which will receive tokens.\r\n     */ \r\n    function withdrawLP(address lpPair, uint256 amount, address recipient) external {\r\n        Farm farm = Farm(farmFactory.Farms(lpPair));\r\n        require(farm != Farm(address(0)),'FARM_NOT_EXISTS');\r\n        \r\n        farm.withdraw(amount, msg.sender, recipient);\r\n        emit Withdraw(lpPair, msg.sender, recipient, amount);  \r\n    }\r\n\r\n\t/**\r\n\t * @dev Distributes tokens between users.\r\n\t * @param lpPair - LP pool to distribute tokens in.\r\n\t * @param swapInfos - Arrays of structs with token arrays describing swap routes (rewardTokenToTokenA, rewardTokenToTokenB, rewarderTokenToTokenA, rewarderTokenToTokenB) and minimum amounts of output tokens that must be received for the transaction not to revert.\r\n\t * @param feeSwapInfo - Struct with token arrays describing swap route (rewardTokenToFeeToken, rewarderTokenToFeeToken) and minimum amounts of output tokens that must be received for the transaction not to revert.\r\n\t * @param feeTo - Address to collect fees to.\r\n\t *\r\n\t * Note: This function can only be called by the distributor.\r\n\t */\r\n\tfunction distribute(\r\n\t\taddress lpPair,\r\n\t\tFarm.SwapInfo[2] calldata swapInfos,\r\n\t\tFarm.SwapInfo calldata feeSwapInfo,\r\n\t\taddress feeTo\r\n\t) external whenNotPaused onlyRole(DISTRIBUTOR_ROLE) {\r\n\t\tFarm farm = Farm(farmFactory.Farms(lpPair));\r\n\t\trequire(farm != Farm(address(0)), \"FARM_NOT_EXISTS\");\r\n\r\n\t\tuint256 reward = farm.distribute(\r\n\t\t\tswapInfos,\r\n\t\t\tfeeSwapInfo,\r\n\t\t\tFarm.FeeInfo(feeTo, fee)\r\n\t\t);\r\n\t\temit Distribute(lpPair, reward);\r\n\t}\r\n\r\n\t/**\r\n     * @dev Returns tokens staked by the {_address} for the given {lpPair}.\r\n     * @param _address - The address to check stakes for.\r\n     * @param lpPair - LP pool to check stakes in.\r\n\r\n     * @return stakeLP - Total user stake(in LP tokens).\r\n     * @return stakeA - Token A stake.\r\n     * @return stakeB - Token B stake.\r\n     */\r\n\tfunction userStake(address _address, address lpPair) external view returns (uint256 stakeLP, uint256 stakeA, uint256 stakeB) {\r\n\t\tFarm farm = Farm(farmFactory.Farms(lpPair));\r\n\t\tif (farm != Farm(address(0))) {\r\n\t\t\tstakeLP = farm.userBalance(_address);\r\n\t\t\t(stakeA, stakeB) = _getTokenStake(lpPair, stakeLP);\r\n\t\t}\r\n\t}\r\n\r\n\t/**\r\n     * @dev Returns total amount locked in the pool. Doesn't take pending rewards into account.\r\n     * @param lpPair - LP pool to check total deposits in.\r\n\r\n     * @return totalDepositsLP - Total deposits (in LP tokens).\r\n     * @return totalDepositsA - Token A deposits.\r\n     * @return totalDepositsB - Token B deposits.\r\n     */\r\n\tfunction totalDeposits(address lpPair) external view returns (uint256 totalDepositsLP, uint256 totalDepositsA, uint256 totalDepositsB) {\r\n\t\tFarm farm = Farm(farmFactory.Farms(lpPair));\r\n\t\tif (farm != Farm(address(0))) {\r\n\t\t\ttotalDepositsLP = farm.getTotalDeposits();\r\n\t\t\t(totalDepositsA, totalDepositsB) = _getTokenStake(lpPair, totalDepositsLP);\r\n\t\t}\r\n\t}\r\n\r\n\t/**\r\n     * @dev Returns addresses of tokens in {lpPair}.\r\n     * @param lpPair - LP pair to check tokens in.\r\n\r\n     * @return tokens - Tokens addresses.\r\n     */\r\n\tfunction getTokens(address lpPair) external view returns (IERC20Upgradeable[] memory tokens) {\r\n\t\ttokens = new IERC20Upgradeable[](2);\r\n\t\ttokens[0] = IERC20Upgradeable(IUniswapV2Pair(lpPair).token0());\r\n\t\ttokens[1] = IERC20Upgradeable(IUniswapV2Pair(lpPair).token1());\r\n\t}\r\n\r\n\t/**\r\n     * @dev Deposits assets to router & refunds dust.\r\n     */ \r\n    function _addLiquidity(\r\n        address tokenA,\r\n        address tokenB, \r\n        uint256 amountA, \r\n        uint256 amountB, \r\n        uint256 amountAMin, \r\n        uint256 amountBMin, \r\n        address farm\r\n    ) internal returns(uint256 sentA, uint256 sentB, uint256 liquidity){\r\n        IERC20Upgradeable(tokenA).approve(address(MeshswapRouter), amountA);\r\n        IERC20Upgradeable(tokenB).approve(address(MeshswapRouter), amountB);\r\n\r\n        (sentA, sentB, liquidity) = MeshswapRouter.addLiquidity(tokenA, tokenB, amountA, amountB, amountAMin, amountBMin, farm, block.timestamp);\r\n        // Refund dust\r\n        if(amountA > sentA){\r\n            IERC20Upgradeable(tokenA).safeTransfer(msg.sender, amountA - sentA);\r\n        }\r\n        if(amountB > sentB){\r\n\t\t    IERC20Upgradeable(tokenB).safeTransfer(msg.sender, amountB - sentB);\r\n        }\r\n    }\r\n\r\n    /**\r\n     * @dev Deposits assets to router & refunds dust.\r\n     */ \r\n    function _addLiquidityETH(\r\n        address token,\r\n        uint256 amount, \r\n        uint256 amountTokenMin, \r\n        uint256 amountETHMin, \r\n        address farm\r\n    ) internal returns(uint256 sentToken, uint256 sentETH, uint256 liquidity){\r\n        IERC20Upgradeable(token).approve(address(MeshswapRouter), amount);\r\n\r\n        (sentToken, sentETH, liquidity) = MeshswapRouter.addLiquidityETH{value: msg.value}(token, amount, amountTokenMin, amountETHMin, farm, block.timestamp);\r\n        // Refund dust\r\n        if(amount > sentToken){\r\n            IERC20Upgradeable(token).safeTransfer(msg.sender, amount - sentToken);\r\n        }\r\n        if(msg.value > sentETH){\r\n            payable(msg.sender).transfer(msg.value - sentETH);\r\n        }\r\n    }\r\n    \r\n    /**\r\n     * @dev Withdraws assets from router.\r\n     */ \r\n    function _removeLiquidity(\r\n        address lpPair,\r\n        address tokenA,\r\n        address tokenB, \r\n        uint256 amount, \r\n        uint256 amountAMin, \r\n        uint256 amountBMin, \r\n        address recipient\r\n    ) internal returns(uint256 amountA, uint256 amountB){\r\n        IERC20Upgradeable(lpPair).approve(address(MeshswapRouter), amount);\r\n        (amountA, amountB) = MeshswapRouter.removeLiquidity(tokenA, tokenB, amount, amountAMin, amountBMin, recipient, block.timestamp);\r\n    }\r\n\r\n    /**\r\n     * @dev Withdraws assets from router.\r\n     */ \r\n    function _removeLiquidityETH(\r\n        address lpPair,\r\n        address token,\r\n        uint256 amount, \r\n        uint256 amountTokenMin, \r\n        uint256 amountETHMin, \r\n        address recipient\r\n    ) internal returns(uint256 amountToken, uint256 amountETH){\r\n        IERC20Upgradeable(lpPair).approve(address(MeshswapRouter), amount);\r\n        (amountToken, amountETH) = MeshswapRouter.removeLiquidityETH(token, amount, amountTokenMin, amountETHMin, recipient, block.timestamp);\r\n    }\r\n\r\n    /**\r\n     * @dev Swaps assets using 1inch exchange.\r\n     */  \r\n    function _swap(bytes calldata swapData, address toToken) internal returns(uint256 returnAmount, uint256 spentAmount){\r\n        uint256 balanceBefore = IERC20Upgradeable(toToken).balanceOf(address(this));\r\n        (bool success, bytes memory data) = OneInchRouter.call(swapData);\r\n        require(success, \"SWAP_NOT_SUCCESSFUL\");\r\n\r\n        (returnAmount, spentAmount) = abi.decode(data, (uint256, uint256));\r\n        //checks if all {{toToken}}s from swap were transfered to this address\r\n        uint256 balanceAfter = IERC20Upgradeable(toToken).balanceOf(address(this));\r\n        require(balanceAfter - balanceBefore == returnAmount, \"BAD_RETURN_AMOUNT\");\r\n    }\r\n\r\n\t/**\r\n     * @dev Converts LP tokens to normal tokens, value(amountA) == value(amountB) == 0.5*amountLP\r\n     * @param lpPair - LP pair for conversion.\r\n     * @param amountLP - Amount of LP tokens to convert.\r\n\r\n     * @return amountA - Token A amount.\r\n     * @return amountB - Token B amount.\r\n     */\r\n\tfunction _getTokenStake(address lpPair, uint256 amountLP) internal view returns (uint256 amountA, uint256 amountB){\r\n\t\tuint256 totalSupply = IERC20Upgradeable(lpPair).totalSupply();\r\n\t\tamountA = (amountLP * IERC20Upgradeable(IUniswapV2Pair(lpPair).token0()).balanceOf(lpPair)) / totalSupply;\r\n\t\tamountB = (amountLP * IERC20Upgradeable(IUniswapV2Pair(lpPair).token1()).balanceOf(lpPair)) / totalSupply;\r\n\t}\r\n\r\n\t/**\r\n\t * @dev Change fee amount.\r\n\t * @param _fee -New fee to collect from farms. [10^18 == 100%]\r\n\t *\r\n\t * Note: This function can only be called by ADMIN_ROLE.\r\n\t */\r\n\tfunction setFee(uint256 _fee) external onlyRole(accessManager.ADMIN_ROLE()){\r\n\t\trequire(_fee <= 1 ether, \"BAD_FEE\");\r\n\t\tif (fee != _fee) {\r\n\t\t\temit FeeChanged(fee, _fee);\r\n\t\t\tfee = _fee;\r\n\t\t}\r\n\t}\r\n\r\n\tfunction pause() external onlyRole(PAUSER_ROLE) {\r\n\t\t_pause();\r\n\t}\r\n\r\n\tfunction unpause() external onlyRole(PAUSER_ROLE) {\r\n\t\t_unpause();\r\n\t}\r\n\r\n\tfunction _authorizeUpgrade(address) internal override onlyRole(accessManager.ADMIN_ROLE()){\r\n\r\n\t}\r\n}",
  "sourcePath": "C:\\Users\\jugli\\Desktop\\uno\\uno-contracts\\contracts\\apps\\meshswap\\UnoAssetRouterMeshswap.sol",
  "compiler": {
    "name": "solc",
    "version": "0.8.10+commit.fc410830.Emscripten.clang"
  },
  "schemaVersion": "3.4.13",
  "updatedAt": "2023-06-07T12:43:23.183Z",
  "devdoc": {
    "kind": "dev",
    "methods": {
      "constructor": {
        "custom:oz-upgrades-unsafe-allow": "constructor"
      },
      "deposit(address,uint256,uint256,uint256,uint256,address)": {
        "details": "Deposits tokens in the given pool. Creates new Farm contract if there isn't one deployed for the {lpPair} and deposits tokens in it. Emits a {Deposit} event.",
        "params": {
          "amountA": "- Token A amount to deposit.",
          "amountAMin": "- Bounds the extent to which the B/A price can go up before the transaction reverts.",
          "amountB": "-  Token B amount to deposit.",
          "amountBMin": "- Bounds the extent to which the A/B price can go up before the transaction reverts.",
          "lpPair": "- Address of the pool to deposit tokens in.",
          "recipient": "- Address which will receive the deposit."
        },
        "returns": {
          "liquidity": "- Total liquidity sent to the farm (in lpTokens).",
          "sentA": "- Token A amount sent to the farm.",
          "sentB": "- Token B amount sent to the farm."
        }
      },
      "depositETH(address,uint256,uint256,uint256,address)": {
        "details": "Autoconverts MATIC into WMATIC and deposits tokens in the given pool. Creates new Farm contract if there isn't one deployed for the {lpStakingPool} and deposits tokens in it. Emits a {Deposit} event.",
        "params": {
          "amountETHMin": "- Bounds the extent to which the WMATIC/TOKEN price can go up before the transaction reverts.",
          "amountToken": "- Token amount to deposit.",
          "amountTokenMin": "- Bounds the extent to which the TOKEN/WMATIC price can go up before the transaction reverts.",
          "lpPair": "- Address of the pool to deposit tokens in.",
          "recipient": "- Address which will receive the deposit."
        },
        "returns": {
          "liquidity": "- Total liquidity sent to the farm (in lpTokens).",
          "sentETH": "- WMATIC amount sent to the farm.",
          "sentToken": "- Token amount sent to the farm."
        }
      },
      "depositLP(address,uint256,address)": {
        "details": "Deposits tokens in the given pool. Creates new Farm contract if there isn't one deployed for the {lpPair} and deposits tokens in it. Emits a {Deposit} event.",
        "params": {
          "amount": "- LP Token amount to deposit.",
          "lpPair": "- Address of the pool to deposit tokens in.",
          "recipient": "- Address which will receive the deposit."
        }
      },
      "depositSingleAsset(address,address,uint256,bytes[2],uint256,uint256,address)": {
        "details": "Deposits single token in the given pool. Creates new Farm contract if there isn't one deployed for the {lpPair}, swaps {token} for pool tokens and deposits them. Emits a {Deposit} event.",
        "params": {
          "amount": "- Amount of token sent.",
          "amountAMin": "- Bounds the extent to which the B/A price can go up before the transaction reverts.",
          "amountBMin": "- Bounds the extent to which the A/B price can go up before the transaction reverts.",
          "lpPair": "- Address of the pool to deposit tokens in.",
          "recipient": "- Address which will receive the deposit.",
          "swapData": "- Parameter with which 1inch router is being called with.",
          "token": "- Address of a token to enter the pool."
        },
        "returns": {
          "liquidity": "- Total liquidity sent to the farm (in lpTokens).",
          "sent": "- Total {token} amount sent to the farm. NOTE: Returns dust left from swap in {token}, but if A/B amounts are not correct also returns dust in pool's tokens."
        }
      },
      "depositSingleETH(address,bytes[2],uint256,uint256,address)": {
        "details": "Deposits single MATIC in the given pool. Creates new Farm contract if there isn't one deployed for the {lpPair}, swaps MATIC for pool tokens and deposits them. Emits a {Deposit} event.",
        "params": {
          "amountAMin": "- Bounds the extent to which the B/A price can go up before the transaction reverts.",
          "amountBMin": "- Bounds the extent to which the A/B price can go up before the transaction reverts.",
          "lpPair": "- Address of the pool to deposit tokens in.",
          "recipient": "- Address which will receive the deposit.",
          "swapData": "- Parameter with which 1inch router is being called with. NOTE: Use WMATIC as toToken."
        },
        "returns": {
          "liquidity": "- Total liquidity sent to the farm (in lpTokens).",
          "sentETH": "- Total MATIC amount sent to the farm. NOTE: Returns dust left from swap in MATIC, but if A/B amount are not correct also returns dust in pool's tokens."
        }
      },
      "distribute(address,(address[],uint256)[2],(address[],uint256),address)": {
        "details": "Distributes tokens between users.",
        "params": {
          "feeSwapInfo": "- Struct with token arrays describing swap route (rewardTokenToFeeToken, rewarderTokenToFeeToken) and minimum amounts of output tokens that must be received for the transaction not to revert.",
          "feeTo": "- Address to collect fees to. Note: This function can only be called by the distributor.",
          "lpPair": "- LP pool to distribute tokens in.",
          "swapInfos": "- Arrays of structs with token arrays describing swap routes (rewardTokenToTokenA, rewardTokenToTokenB, rewarderTokenToTokenA, rewarderTokenToTokenB) and minimum amounts of output tokens that must be received for the transaction not to revert."
        }
      },
      "getTokens(address)": {
        "details": "Returns addresses of tokens in {lpPair}.",
        "params": {
          "lpPair": "- LP pair to check tokens in."
        },
        "returns": {
          "tokens": "- Tokens addresses."
        }
      },
      "paused()": {
        "details": "Returns true if the contract is paused, and false otherwise."
      },
      "proxiableUUID()": {
        "details": "Implementation of the ERC1822 {proxiableUUID} function. This returns the storage slot used by the implementation. It is used to validate that the this implementation remains valid after an upgrade. IMPORTANT: A proxy pointing at a proxiable contract should not be considered proxiable itself, because this risks bricking a proxy that upgrades to it, by delegating to itself until out of gas. Thus it is critical that this function revert if invoked through a proxy. This is guaranteed by the `notDelegated` modifier."
      },
      "setFee(uint256)": {
        "details": "Change fee amount.",
        "params": {
          "_fee": "-New fee to collect from farms. [10^18 == 100%] Note: This function can only be called by ADMIN_ROLE."
        }
      },
      "totalDeposits(address)": {
        "details": "Returns total amount locked in the pool. Doesn't take pending rewards into account.",
        "params": {
          "lpPair": "- LP pool to check total deposits in."
        },
        "returns": {
          "totalDepositsA": "- Token A deposits.",
          "totalDepositsB": "- Token B deposits.",
          "totalDepositsLP": "- Total deposits (in LP tokens)."
        }
      },
      "upgradeTo(address)": {
        "details": "Upgrade the implementation of the proxy to `newImplementation`. Calls {_authorizeUpgrade}. Emits an {Upgraded} event."
      },
      "upgradeToAndCall(address,bytes)": {
        "details": "Upgrade the implementation of the proxy to `newImplementation`, and subsequently execute the function call encoded in `data`. Calls {_authorizeUpgrade}. Emits an {Upgraded} event."
      },
      "userStake(address,address)": {
        "details": "Returns tokens staked by the {_address} for the given {lpPair}.",
        "params": {
          "_address": "- The address to check stakes for.",
          "lpPair": "- LP pool to check stakes in."
        },
        "returns": {
          "stakeA": "- Token A stake.",
          "stakeB": "- Token B stake.",
          "stakeLP": "- Total user stake(in LP tokens)."
        }
      },
      "withdraw(address,uint256,uint256,uint256,address)": {
        "details": "Withdraws a pair of tokens from the given pool. Emits a {Withdraw} event.",
        "params": {
          "amount": "- LP amount to withdraw. ",
          "amountAMin": "- The minimum amount of tokenA that must be received for the transaction not to revert.",
          "amountBMin": "- The minimum amount of tokenB that must be received for the transaction not to revert.",
          "lpPair": "- LP pool to withdraw from.",
          "recipient": "- The address which will receive tokens."
        },
        "returns": {
          "amountA": "- Token A amount sent to the {recipient}",
          "amountB": "- Token B amount sent to the {recipient}"
        }
      },
      "withdrawETH(address,uint256,uint256,uint256,address)": {
        "details": "Autoconverts WMATIC into MATIC and withdraws tokens from the pool. Emits a {Withdraw} event.",
        "params": {
          "amount": "- LP amount to withdraw. ",
          "amountETHMin": "- The minimum amount of MATIC that must be received for the transaction not to revert.",
          "amountTokenMin": "- The minimum amount of token that must be received for the transaction not to revert.",
          "lpPair": "- LP pool to withdraw from.",
          "recipient": "- The address which will receive tokens."
        },
        "returns": {
          "amountETH": "- MATIC amount sent to the {recipient}.",
          "amountToken": "- Token amount sent to the {recipient}."
        }
      },
      "withdrawLP(address,uint256,address)": {
        "details": "Withdraws LP tokens from the given pool. Emits a {Withdraw} event.",
        "params": {
          "amount": "- LP amount to withdraw. ",
          "lpPair": "- LP pool to withdraw from.",
          "recipient": "- The address which will receive tokens."
        }
      },
      "withdrawSingleAsset(address,uint256,address,bytes[2],address)": {
        "details": "Withdraws single token from the given pool. Emits a {Withdraw} event. Note: If there are any tokens left to be withdrawn after swaps they will be sent to the {{recipient}} in a respective token (not in {token}).",
        "params": {
          "amount": "- LP amount to withdraw. ",
          "lpPair": "- LP pool to withdraw from.",
          "recipient": "- Address which will receive the deposit.",
          "swapData": "- Parameter with which 1inch router is being called with.",
          "token": "- Address of a token to exit the pool with."
        },
        "returns": {
          "amountA": "- Token A dust sent to the {recipient}.",
          "amountB": "- Token B dust sent to the {recipient}.",
          "amountToken": "- {token} amount sent to the {recipient}."
        }
      },
      "withdrawSingleETH(address,uint256,bytes[2],address)": {
        "details": "Withdraws single MATIC from the given pool. Emits a {Withdraw} event. Note: If there are any tokens left to be withdrawn after swaps they will be sent to the {{recipient}} in a respective token (not in MATIC).",
        "params": {
          "amount": "- LP amount to withdraw. ",
          "lpPair": "- LP pool to withdraw from.",
          "recipient": "- Address which will receive the deposit.",
          "swapData": "- Parameter with which 1inch router is being called with."
        },
        "returns": {
          "amountA": "- Token A dust sent to the {recipient}.",
          "amountB": "- Token B dust sent to the {recipient}.",
          "amountETH": "- MATIC amount sent to the {recipient}."
        }
      }
    },
    "stateVariables": {
      "farmFactory": {
        "details": "Contract Variables: farmFactory - The contract that deploys new Farms and links them to {lpPair}s. accessManager - Role manager contract."
      }
    },
    "version": 1
  },
  "userdoc": {
    "kind": "user",
    "methods": {},
    "version": 1
  }
}