{
  "contractName": "UnoAccessManager",
  "abi": [
    {
      "inputs": [],
      "stateMutability": "nonpayable",
      "type": "constructor"
    },
    {
      "anonymous": false,
      "inputs": [
        {
          "indexed": true,
          "internalType": "bytes32",
          "name": "role",
          "type": "bytes32"
        },
        {
          "indexed": true,
          "internalType": "address",
          "name": "account",
          "type": "address"
        }
      ],
      "name": "RoleGranted",
      "type": "event"
    },
    {
      "anonymous": false,
      "inputs": [
        {
          "indexed": true,
          "internalType": "bytes32",
          "name": "role",
          "type": "bytes32"
        },
        {
          "indexed": true,
          "internalType": "address",
          "name": "account",
          "type": "address"
        }
      ],
      "name": "RoleRevoked",
      "type": "event"
    },
    {
      "inputs": [],
      "name": "ADMIN_ROLE",
      "outputs": [
        {
          "internalType": "bytes32",
          "name": "",
          "type": "bytes32"
        }
      ],
      "stateMutability": "view",
      "type": "function"
    },
    {
      "inputs": [
        {
          "internalType": "bytes32",
          "name": "role",
          "type": "bytes32"
        },
        {
          "internalType": "address",
          "name": "account",
          "type": "address"
        }
      ],
      "name": "hasRole",
      "outputs": [
        {
          "internalType": "bool",
          "name": "",
          "type": "bool"
        }
      ],
      "stateMutability": "view",
      "type": "function"
    },
    {
      "inputs": [
        {
          "internalType": "bytes32",
          "name": "role",
          "type": "bytes32"
        },
        {
          "internalType": "address",
          "name": "account",
          "type": "address"
        }
      ],
      "name": "grantRole",
      "outputs": [],
      "stateMutability": "nonpayable",
      "type": "function"
    },
    {
      "inputs": [
        {
          "internalType": "bytes32",
          "name": "role",
          "type": "bytes32"
        },
        {
          "internalType": "address",
          "name": "account",
          "type": "address"
        }
      ],
      "name": "revokeRole",
      "outputs": [],
      "stateMutability": "nonpayable",
      "type": "function"
    }
  ],
  "bytecode": "0x608060405234801561001057600080fd5b5061001c600033610021565b6100a3565b6000828152602081815260408083206001600160a01b038516845290915290205460ff1661009f576000828152602081815260408083206001600160a01b0385168085529252808320805460ff1916600117905551909184917f2ae6a113c0ed5b78a53413ffbb7679881f11145ccfba4fb92e863dfcd5a1d2f39190a35b5050565b6102cf806100b26000396000f3fe608060405234801561001057600080fd5b506004361061004c5760003560e01c80632f2ff15d1461005157806375b238fc1461006657806391d1485414610081578063d547741f146100a4575b600080fd5b61006461005f36600461025d565b6100b7565b005b61006e600081565b6040519081526020015b60405180910390f35b61009461008f36600461025d565b610114565b6040519015158152602001610078565b6100646100b236600461025d565b61013d565b6100c2600033610114565b6101065760405162461bcd60e51b815260206004820152601060248201526f21a0a62622a92fa727aa2fa0a226a4a760811b60448201526064015b60405180910390fd5b6101108282610191565b5050565b6000918252602082815260408084206001600160a01b0393909316845291905290205460ff1690565b610148600033610114565b6101875760405162461bcd60e51b815260206004820152601060248201526f21a0a62622a92fa727aa2fa0a226a4a760811b60448201526064016100fd565b61011082826101f8565b61019b8282610114565b610110576000828152602081815260408083206001600160a01b0385168085529252808320805460ff1916600117905551909184917f2ae6a113c0ed5b78a53413ffbb7679881f11145ccfba4fb92e863dfcd5a1d2f39190a35050565b6102028282610114565b15610110576000828152602081815260408083206001600160a01b0385168085529252808320805460ff1916905551909184917f155aaafb6329a2098580462df33ec4b7441b19729b9601c5fc17ae1cf99a8a529190a35050565b6000806040838503121561027057600080fd5b8235915060208301356001600160a01b038116811461028e57600080fd5b80915050925092905056fea26469706673582212200554ad96d9902951a104b662a0b5f08e41ed960d7acaf9b787e7173704716e6464736f6c634300080a0033",
  "immutableReferences": {},
  "source": "// SPDX-License-Identifier: MIT\r\npragma solidity 0.8.10;\r\npragma experimental ABIEncoderV2;\r\n\r\ncontract UnoAccessManager {\r\n    bytes32 public constant ADMIN_ROLE = 0x00;\r\n    mapping(bytes32 => mapping(address => bool)) private _roles;\r\n\r\n    event RoleGranted(bytes32 indexed role, address indexed account);\r\n    event RoleRevoked(bytes32 indexed role, address indexed account);\r\n\r\n    /**\r\n     * @dev Modifier that checks that an account has {ADMIN_ROLE}.\r\n     */\r\n    modifier onlyAdmin() {\r\n        require(hasRole(ADMIN_ROLE, msg.sender), 'CALLER_NOT_ADMIN');\r\n        _;\r\n    }\r\n\r\n    constructor() {\r\n        _grantRole(ADMIN_ROLE, msg.sender);\r\n    }\r\n\r\n\r\n    /**\r\n     * @dev hasRole().\r\n     * @param role - Role to check.\r\n     * @param account - Account to check.\r\n\r\n     * @return true if {account} has been granted {role}.\r\n     */\r\n    function hasRole(bytes32 role, address account) public view returns (bool) {\r\n        return _roles[role][account];\r\n    }\r\n\r\n\r\n    /**\r\n     * @dev Grants {role} to {account}. If {account} had not been already granted {role}, emits a {RoleGranted} event.\r\n     * @param role - Role to grant.\r\n     * @param account - Account to grant role to.\r\n\r\n     * Note: This function can only be called by the admin.\r\n     */\r\n    function grantRole(bytes32 role, address account) public onlyAdmin {\r\n        _grantRole(role, account);\r\n    }\r\n\r\n    function _grantRole(bytes32 role, address account) internal {\r\n        if (!hasRole(role, account)) {\r\n            _roles[role][account] = true;\r\n            emit RoleGranted(role, account);\r\n        }\r\n    }\r\n\r\n    /**\r\n     * @dev Revokes {role} from {account}. If {account} had been granted {role}, emits a {RoleRevoked} event.\r\n     * @param role - Role to revoke.\r\n     * @param account - Account to revoke role from.\r\n\r\n     * Note: This function can only be called by the admin.\r\n     */\r\n    function revokeRole(bytes32 role, address account) public onlyAdmin {\r\n        _revokeRole(role, account);\r\n    }\r\n\r\n    function _revokeRole(bytes32 role, address account) internal {\r\n        if (hasRole(role, account)) {\r\n            _roles[role][account] = false;\r\n            emit RoleRevoked(role, account);\r\n        }\r\n    }\r\n}\r\n",
  "sourcePath": "C:\\Users\\nick_\\OneDrive\\Документы\\UNO\\Solidity\\autostrats_balancer\\uno-contracts\\contracts\\UnoAccessManager.sol",
  "compiler": {
    "name": "solc",
    "version": "0.8.10+commit.fc410830.Emscripten.clang"
  },
  "schemaVersion": "3.4.10",
  "updatedAt": "2022-10-09T12:07:00.333Z",
  "devdoc": {
    "kind": "dev",
    "methods": {
      "grantRole(bytes32,address)": {
        "details": "Grants {role} to {account}. If {account} had not been already granted {role}, emits a {RoleGranted} event.",
        "params": {
          "account": "- Account to grant role to. Note: This function can only be called by the admin.",
          "role": "- Role to grant."
        }
      },
      "hasRole(bytes32,address)": {
        "details": "hasRole().",
        "params": {
          "account": "- Account to check.",
          "role": "- Role to check."
        },
        "returns": {
          "_0": "true if {account} has been granted {role}."
        }
      },
      "revokeRole(bytes32,address)": {
        "details": "Revokes {role} from {account}. If {account} had been granted {role}, emits a {RoleRevoked} event.",
        "params": {
          "account": "- Account to revoke role from. Note: This function can only be called by the admin.",
          "role": "- Role to revoke."
        }
      }
    },
    "version": 1
  },
  "userdoc": {
    "kind": "user",
    "methods": {},
    "version": 1
  }
}