{
  "contractName": "UnoAssetRouterPancakeswapV2",
  "abi": [
    {
      "inputs": [],
      "stateMutability": "nonpayable",
      "type": "constructor"
    },
    {
      "anonymous": false,
      "inputs": [
        {
          "indexed": false,
          "internalType": "address",
          "name": "previousAdmin",
          "type": "address"
        },
        {
          "indexed": false,
          "internalType": "address",
          "name": "newAdmin",
          "type": "address"
        }
      ],
      "name": "AdminChanged",
      "type": "event"
    },
    {
      "anonymous": false,
      "inputs": [
        {
          "indexed": true,
          "internalType": "address",
          "name": "beacon",
          "type": "address"
        }
      ],
      "name": "BeaconUpgraded",
      "type": "event"
    },
    {
      "anonymous": false,
      "inputs": [
        {
          "indexed": true,
          "internalType": "address",
          "name": "lpPool",
          "type": "address"
        },
        {
          "indexed": true,
          "internalType": "address",
          "name": "sender",
          "type": "address"
        },
        {
          "indexed": true,
          "internalType": "address",
          "name": "recipient",
          "type": "address"
        },
        {
          "indexed": false,
          "internalType": "uint256",
          "name": "amount",
          "type": "uint256"
        }
      ],
      "name": "Deposit",
      "type": "event"
    },
    {
      "anonymous": false,
      "inputs": [
        {
          "indexed": true,
          "internalType": "address",
          "name": "lpPool",
          "type": "address"
        },
        {
          "indexed": false,
          "internalType": "uint256",
          "name": "reward",
          "type": "uint256"
        }
      ],
      "name": "Distribute",
      "type": "event"
    },
    {
      "anonymous": false,
      "inputs": [
        {
          "indexed": false,
          "internalType": "uint256",
          "name": "previousFee",
          "type": "uint256"
        },
        {
          "indexed": false,
          "internalType": "uint256",
          "name": "newFee",
          "type": "uint256"
        }
      ],
      "name": "FeeChanged",
      "type": "event"
    },
    {
      "anonymous": false,
      "inputs": [
        {
          "indexed": false,
          "internalType": "uint8",
          "name": "version",
          "type": "uint8"
        }
      ],
      "name": "Initialized",
      "type": "event"
    },
    {
      "anonymous": false,
      "inputs": [
        {
          "indexed": false,
          "internalType": "address",
          "name": "account",
          "type": "address"
        }
      ],
      "name": "Paused",
      "type": "event"
    },
    {
      "anonymous": false,
      "inputs": [
        {
          "indexed": false,
          "internalType": "address",
          "name": "account",
          "type": "address"
        }
      ],
      "name": "Unpaused",
      "type": "event"
    },
    {
      "anonymous": false,
      "inputs": [
        {
          "indexed": true,
          "internalType": "address",
          "name": "implementation",
          "type": "address"
        }
      ],
      "name": "Upgraded",
      "type": "event"
    },
    {
      "anonymous": false,
      "inputs": [
        {
          "indexed": true,
          "internalType": "address",
          "name": "lpPool",
          "type": "address"
        },
        {
          "indexed": true,
          "internalType": "address",
          "name": "sender",
          "type": "address"
        },
        {
          "indexed": true,
          "internalType": "address",
          "name": "recipient",
          "type": "address"
        },
        {
          "indexed": false,
          "internalType": "uint256",
          "name": "amount",
          "type": "uint256"
        }
      ],
      "name": "Withdraw",
      "type": "event"
    },
    {
      "inputs": [],
      "name": "PancakeswapRouter",
      "outputs": [
        {
          "internalType": "contract IUniswapV2Router01",
          "name": "",
          "type": "address"
        }
      ],
      "stateMutability": "view",
      "type": "function"
    },
    {
      "inputs": [],
      "name": "WBNB",
      "outputs": [
        {
          "internalType": "address",
          "name": "",
          "type": "address"
        }
      ],
      "stateMutability": "view",
      "type": "function"
    },
    {
      "inputs": [],
      "name": "accessManager",
      "outputs": [
        {
          "internalType": "contract IUnoAccessManager",
          "name": "",
          "type": "address"
        }
      ],
      "stateMutability": "view",
      "type": "function"
    },
    {
      "inputs": [],
      "name": "farmFactory",
      "outputs": [
        {
          "internalType": "contract IUnoFarmFactory",
          "name": "",
          "type": "address"
        }
      ],
      "stateMutability": "view",
      "type": "function"
    },
    {
      "inputs": [],
      "name": "fee",
      "outputs": [
        {
          "internalType": "uint256",
          "name": "",
          "type": "uint256"
        }
      ],
      "stateMutability": "view",
      "type": "function"
    },
    {
      "inputs": [],
      "name": "paused",
      "outputs": [
        {
          "internalType": "bool",
          "name": "",
          "type": "bool"
        }
      ],
      "stateMutability": "view",
      "type": "function"
    },
    {
      "inputs": [],
      "name": "proxiableUUID",
      "outputs": [
        {
          "internalType": "bytes32",
          "name": "",
          "type": "bytes32"
        }
      ],
      "stateMutability": "view",
      "type": "function"
    },
    {
      "inputs": [
        {
          "internalType": "address",
          "name": "newImplementation",
          "type": "address"
        }
      ],
      "name": "upgradeTo",
      "outputs": [],
      "stateMutability": "nonpayable",
      "type": "function"
    },
    {
      "inputs": [
        {
          "internalType": "address",
          "name": "newImplementation",
          "type": "address"
        },
        {
          "internalType": "bytes",
          "name": "data",
          "type": "bytes"
        }
      ],
      "name": "upgradeToAndCall",
      "outputs": [],
      "stateMutability": "payable",
      "type": "function"
    },
    {
      "inputs": [],
      "name": "version",
      "outputs": [
        {
          "internalType": "uint256",
          "name": "",
          "type": "uint256"
        }
      ],
      "stateMutability": "view",
      "type": "function"
    },
    {
      "stateMutability": "payable",
      "type": "receive"
    },
    {
      "inputs": [
        {
          "internalType": "address",
          "name": "_accessManager",
          "type": "address"
        },
        {
          "internalType": "address",
          "name": "_farmFactory",
          "type": "address"
        }
      ],
      "name": "initialize",
      "outputs": [],
      "stateMutability": "nonpayable",
      "type": "function"
    },
    {
      "inputs": [
        {
          "internalType": "address",
          "name": "lpPair",
          "type": "address"
        },
        {
          "internalType": "uint256",
          "name": "amountA",
          "type": "uint256"
        },
        {
          "internalType": "uint256",
          "name": "amountB",
          "type": "uint256"
        },
        {
          "internalType": "uint256",
          "name": "amountAMin",
          "type": "uint256"
        },
        {
          "internalType": "uint256",
          "name": "amountBMin",
          "type": "uint256"
        },
        {
          "internalType": "address",
          "name": "recipient",
          "type": "address"
        }
      ],
      "name": "deposit",
      "outputs": [
        {
          "internalType": "uint256",
          "name": "sentA",
          "type": "uint256"
        },
        {
          "internalType": "uint256",
          "name": "sentB",
          "type": "uint256"
        },
        {
          "internalType": "uint256",
          "name": "liquidity",
          "type": "uint256"
        }
      ],
      "stateMutability": "nonpayable",
      "type": "function"
    },
    {
      "inputs": [
        {
          "internalType": "address",
          "name": "lpPair",
          "type": "address"
        },
        {
          "internalType": "uint256",
          "name": "amountToken",
          "type": "uint256"
        },
        {
          "internalType": "uint256",
          "name": "amountTokenMin",
          "type": "uint256"
        },
        {
          "internalType": "uint256",
          "name": "amountETHMin",
          "type": "uint256"
        },
        {
          "internalType": "address",
          "name": "recipient",
          "type": "address"
        }
      ],
      "name": "depositETH",
      "outputs": [
        {
          "internalType": "uint256",
          "name": "sentToken",
          "type": "uint256"
        },
        {
          "internalType": "uint256",
          "name": "sentETH",
          "type": "uint256"
        },
        {
          "internalType": "uint256",
          "name": "liquidity",
          "type": "uint256"
        }
      ],
      "stateMutability": "payable",
      "type": "function"
    },
    {
      "inputs": [
        {
          "internalType": "address",
          "name": "lpPair",
          "type": "address"
        },
        {
          "internalType": "address",
          "name": "token",
          "type": "address"
        },
        {
          "internalType": "uint256",
          "name": "amount",
          "type": "uint256"
        },
        {
          "internalType": "bytes[2]",
          "name": "swapData",
          "type": "bytes[2]"
        },
        {
          "internalType": "uint256",
          "name": "amountAMin",
          "type": "uint256"
        },
        {
          "internalType": "uint256",
          "name": "amountBMin",
          "type": "uint256"
        },
        {
          "internalType": "address",
          "name": "recipient",
          "type": "address"
        }
      ],
      "name": "depositSingleAsset",
      "outputs": [
        {
          "internalType": "uint256",
          "name": "sent",
          "type": "uint256"
        },
        {
          "internalType": "uint256",
          "name": "liquidity",
          "type": "uint256"
        }
      ],
      "stateMutability": "nonpayable",
      "type": "function"
    },
    {
      "inputs": [
        {
          "internalType": "address",
          "name": "lpPair",
          "type": "address"
        },
        {
          "internalType": "bytes[2]",
          "name": "swapData",
          "type": "bytes[2]"
        },
        {
          "internalType": "uint256",
          "name": "amountAMin",
          "type": "uint256"
        },
        {
          "internalType": "uint256",
          "name": "amountBMin",
          "type": "uint256"
        },
        {
          "internalType": "address",
          "name": "recipient",
          "type": "address"
        }
      ],
      "name": "depositSingleETH",
      "outputs": [
        {
          "internalType": "uint256",
          "name": "sentETH",
          "type": "uint256"
        },
        {
          "internalType": "uint256",
          "name": "liquidity",
          "type": "uint256"
        }
      ],
      "stateMutability": "payable",
      "type": "function"
    },
    {
      "inputs": [
        {
          "internalType": "address",
          "name": "lpPair",
          "type": "address"
        },
        {
          "internalType": "uint256",
          "name": "amount",
          "type": "uint256"
        },
        {
          "internalType": "address",
          "name": "recipient",
          "type": "address"
        }
      ],
      "name": "depositLP",
      "outputs": [],
      "stateMutability": "nonpayable",
      "type": "function"
    },
    {
      "inputs": [
        {
          "internalType": "address",
          "name": "lpPair",
          "type": "address"
        },
        {
          "internalType": "uint256",
          "name": "amount",
          "type": "uint256"
        },
        {
          "internalType": "uint256",
          "name": "amountAMin",
          "type": "uint256"
        },
        {
          "internalType": "uint256",
          "name": "amountBMin",
          "type": "uint256"
        },
        {
          "internalType": "bool",
          "name": "withdrawLP",
          "type": "bool"
        },
        {
          "internalType": "address",
          "name": "recipient",
          "type": "address"
        }
      ],
      "name": "withdraw",
      "outputs": [
        {
          "internalType": "uint256",
          "name": "amountA",
          "type": "uint256"
        },
        {
          "internalType": "uint256",
          "name": "amountB",
          "type": "uint256"
        }
      ],
      "stateMutability": "nonpayable",
      "type": "function"
    },
    {
      "inputs": [
        {
          "internalType": "address",
          "name": "lpPair",
          "type": "address"
        },
        {
          "internalType": "uint256",
          "name": "amount",
          "type": "uint256"
        },
        {
          "internalType": "uint256",
          "name": "amountTokenMin",
          "type": "uint256"
        },
        {
          "internalType": "uint256",
          "name": "amountETHMin",
          "type": "uint256"
        },
        {
          "internalType": "address",
          "name": "recipient",
          "type": "address"
        }
      ],
      "name": "withdrawETH",
      "outputs": [
        {
          "internalType": "uint256",
          "name": "amountToken",
          "type": "uint256"
        },
        {
          "internalType": "uint256",
          "name": "amountETH",
          "type": "uint256"
        }
      ],
      "stateMutability": "nonpayable",
      "type": "function"
    },
    {
      "inputs": [
        {
          "internalType": "address",
          "name": "lpPair",
          "type": "address"
        },
        {
          "components": [
            {
              "internalType": "address[]",
              "name": "route",
              "type": "address[]"
            },
            {
              "internalType": "uint256",
              "name": "amountOutMin",
              "type": "uint256"
            }
          ],
          "internalType": "struct IUnoFarmPancakeswap.SwapInfo[2]",
          "name": "swapInfos",
          "type": "tuple[2]"
        },
        {
          "components": [
            {
              "internalType": "address[]",
              "name": "route",
              "type": "address[]"
            },
            {
              "internalType": "uint256",
              "name": "amountOutMin",
              "type": "uint256"
            }
          ],
          "internalType": "struct IUnoFarmPancakeswap.SwapInfo",
          "name": "feeSwapInfo",
          "type": "tuple"
        },
        {
          "internalType": "address",
          "name": "feeTo",
          "type": "address"
        }
      ],
      "name": "distribute",
      "outputs": [],
      "stateMutability": "nonpayable",
      "type": "function"
    },
    {
      "inputs": [
        {
          "internalType": "address",
          "name": "_address",
          "type": "address"
        },
        {
          "internalType": "address",
          "name": "lpPair",
          "type": "address"
        }
      ],
      "name": "userStake",
      "outputs": [
        {
          "internalType": "uint256",
          "name": "stakeLP",
          "type": "uint256"
        },
        {
          "internalType": "uint256",
          "name": "stakeA",
          "type": "uint256"
        },
        {
          "internalType": "uint256",
          "name": "stakeB",
          "type": "uint256"
        }
      ],
      "stateMutability": "view",
      "type": "function"
    },
    {
      "inputs": [
        {
          "internalType": "address",
          "name": "lpPair",
          "type": "address"
        }
      ],
      "name": "totalDeposits",
      "outputs": [
        {
          "internalType": "uint256",
          "name": "totalDepositsLP",
          "type": "uint256"
        },
        {
          "internalType": "uint256",
          "name": "totalDepositsA",
          "type": "uint256"
        },
        {
          "internalType": "uint256",
          "name": "totalDepositsB",
          "type": "uint256"
        }
      ],
      "stateMutability": "view",
      "type": "function"
    },
    {
      "inputs": [
        {
          "internalType": "address",
          "name": "lpPair",
          "type": "address"
        }
      ],
      "name": "getTokens",
      "outputs": [
        {
          "internalType": "contract IBEP20[]",
          "name": "tokens",
          "type": "address[]"
        }
      ],
      "stateMutability": "view",
      "type": "function"
    },
    {
      "inputs": [
        {
          "internalType": "uint256",
          "name": "_fee",
          "type": "uint256"
        }
      ],
      "name": "setFee",
      "outputs": [],
      "stateMutability": "nonpayable",
      "type": "function"
    },
    {
      "inputs": [],
      "name": "pause",
      "outputs": [],
      "stateMutability": "nonpayable",
      "type": "function"
    },
    {
      "inputs": [],
      "name": "unpause",
      "outputs": [],
      "stateMutability": "nonpayable",
      "type": "function"
    }
  ],
  "bytecode": "0x60a0604052306080523480156200001557600080fd5b506200002062000026565b62000156565b6200003260ff62000035565b50565b60008054610100900460ff1615620000ce578160ff1660011480156200006e57506200006c306200014760201b6200297e1760201c565b155b620000c65760405162461bcd60e51b815260206004820152602e6024820152600080516020620045eb83398151915260448201526d191e481a5b9a5d1a585b1a5e995960921b60648201526084015b60405180910390fd5b506000919050565b60005460ff8084169116106200012d5760405162461bcd60e51b815260206004820152602e6024820152600080516020620045eb83398151915260448201526d191e481a5b9a5d1a585b1a5e995960921b6064820152608401620000bd565b506000805460ff191660ff92909216919091179055600190565b6001600160a01b03163b151590565b60805161445d6200018e60003960008181610696015281816106d601528181610eee01528181610f2e01526110cb015261445d6000f3fe60806040526004361061016a5760003560e01c80636505e65e116100d15780638dd950021161008a578063deb03f4d11610064578063deb03f4d146104ae578063e9403256146104ce578063fdcb6068146104ee578063fefa40941461050e57600080fd5b80638dd950021461044e578063ba024c5614610470578063ddca3f431461049857600080fd5b80636505e65e1461038e57806369fe0e2d146103ae5780636c2b5517146103ce5780636d25e175146103ee5780637d795628146104265780638456cb591461043957600080fd5b80634e816aa8116101235780634e816aa8146102c55780634f1ef286146102e557806351bdca3e146102f857806352d1902d1461033357806354fd4d50146103565780635c975abb1461036b57600080fd5b80631ec5aa3e146101e95780633659cfe6146102235780633f4ba83a14610243578063450efe211461025857806346dafa2f14610285578063485cc955146102a557600080fd5b366101e457336000805160206143a1833981519152148061019e5750337310ed43c718714eb63d5aa57b78b54704e256024e145b6101e25760405162461bcd60e51b815260206004820152601060248201526f27a7262cafa0a1a1a2a82a2faba1272160811b60448201526064015b60405180910390fd5b005b600080fd5b3480156101f557600080fd5b506102096102043660046139ac565b610521565b604080519283526020830191909152015b60405180910390f35b34801561022f57600080fd5b506101e261023e366004613a13565b61068b565b34801561024f57600080fd5b506101e261076b565b34801561026457600080fd5b50610278610273366004613a13565b610822565b60405161021a9190613a30565b34801561029157600080fd5b506101e26102a0366004613a7d565b610971565b3480156102b157600080fd5b506101e26102c0366004613abf565b610b67565b3480156102d157600080fd5b506101e26102e0366004613b09565b610ca2565b6101e26102f3366004613bad565b610ee3565b34801561030457600080fd5b50610318610313366004613abf565b610fb4565b6040805193845260208401929092529082015260600161021a565b34801561033f57600080fd5b506103486110be565b60405190815260200161021a565b34801561036257600080fd5b50610348600281565b34801561037757600080fd5b5060335460ff16604051901515815260200161021a565b34801561039a57600080fd5b506103186103a9366004613c71565b611171565b3480156103ba57600080fd5b506101e26103c9366004613cc1565b611480565b3480156103da57600080fd5b506102096103e9366004613cda565b611613565b3480156103fa57600080fd5b5060c95461040e906001600160a01b031681565b6040516001600160a01b03909116815260200161021a565b610209610434366004613d6e565b611aaa565b34801561044557600080fd5b506101e2612036565b34801561045a57600080fd5b5061040e6000805160206143a183398151915281565b34801561047c57600080fd5b5061040e7310ed43c718714eb63d5aa57b78b54704e256024e81565b3480156104a457600080fd5b5061034860cb5481565b3480156104ba57600080fd5b506102096104c9366004613de6565b6120ed565b3480156104da57600080fd5b506103186104e9366004613a13565b6124ee565b3480156104fa57600080fd5b5060ca5461040e906001600160a01b031681565b61031861051c366004613de6565b6125f0565b60c95460405163f9d9331d60e01b81526001600160a01b038881166004830152600092839283929091169063f9d9331d90602401602060405180830381865afa158015610572573d6000803e3d6000fd5b505050506040513d601f19601f820116820180604052508101906105969190613e2e565b90506001600160a01b0381166105be5760405162461bcd60e51b81526004016101d990613e4b565b60405163d563468360e01b81526001600160a01b0382169063d5634683906105f4908b908b908b908b9033908c90600401613e74565b60408051808303816000875af1158015610612573d6000803e3d6000fd5b505050506040513d601f19601f820116820180604052508101906106369190613eaa565b6040518a815291945092506001600160a01b038581169133918c16907f3115d1449a7b732c986cba18244e897a450f61e1bb8d589cd2e69e6c8924f9f79060200160405180910390a450965096945050505050565b306001600160a01b037f00000000000000000000000000000000000000000000000000000000000000001614156106d45760405162461bcd60e51b81526004016101d990613ece565b7f00000000000000000000000000000000000000000000000000000000000000006001600160a01b031661071d6000805160206143c1833981519152546001600160a01b031690565b6001600160a01b0316146107435760405162461bcd60e51b81526004016101d990613f1a565b61074c8161298d565b6040805160008082526020820190925261076891839190612a93565b50565b60ca54604051632474521560e21b81527f65d7a28e3265b37a6474929f336521b332c1681b933f6cb9f3376673440d862a60048201819052336024830152916001600160a01b0316906391d1485490604401602060405180830381865afa1580156107da573d6000803e3d6000fd5b505050506040513d601f19601f820116820180604052508101906107fe9190613f66565b61081a5760405162461bcd60e51b81526004016101d990613f83565b610768612bfe565b6040805160028082526060808301845292602083019080368337019050509050816001600160a01b0316630dfe16816040518163ffffffff1660e01b8152600401602060405180830381865afa158015610880573d6000803e3d6000fd5b505050506040513d601f19601f820116820180604052508101906108a49190613e2e565b816000815181106108b7576108b7613fb2565b60200260200101906001600160a01b031690816001600160a01b031681525050816001600160a01b031663d21220a76040518163ffffffff1660e01b8152600401602060405180830381865afa158015610915573d6000803e3d6000fd5b505050506040513d601f19601f820116820180604052508101906109399190613e2e565b8160018151811061094c5761094c613fb2565b60200260200101906001600160a01b031690816001600160a01b031681525050919050565b60335460ff16156109945760405162461bcd60e51b81526004016101d990613fc8565b600082116109b45760405162461bcd60e51b81526004016101d990613ff2565b60c95460405163f9d9331d60e01b81526001600160a01b038581166004830152600092169063f9d9331d90602401602060405180830381865afa1580156109ff573d6000803e3d6000fd5b505050506040513d601f19601f82011682018060405250810190610a239190613e2e565b90506001600160a01b038116610aa55760c954604051621849e360e61b81526001600160a01b0386811660048301529091169063061278c0906024016020604051808303816000875af1158015610a7e573d6000803e3d6000fd5b505050506040513d601f19601f82011682018060405250810190610aa29190613e2e565b90505b610aba6001600160a01b038516338386612c91565b604051636e553f6560e01b8152600481018490526001600160a01b038381166024830152821690636e553f6590604401600060405180830381600087803b158015610b0457600080fd5b505af1158015610b18573d6000803e3d6000fd5b50505050816001600160a01b0316336001600160a01b0316856001600160a01b03166000805160206143e183398151915286604051610b5991815260200190565b60405180910390a450505050565b6000610b736001612d02565b90508015610b8b576000805461ff0019166101001790555b6001600160a01b038316610bd65760405162461bcd60e51b81526020600482015260126024820152712120a22fa0a1a1a2a9a9afa6a0a720a3a2a960711b60448201526064016101d9565b6001600160a01b038216610c1f5760405162461bcd60e51b815260206004820152601060248201526f4241445f4641524d5f464143544f525960801b60448201526064016101d9565b610c27612d8a565b60ca80546001600160a01b038086166001600160a01b03199283161790925560c98054928516929091169190911790558015610c9d576000805461ff0019169055604051600181527f7f26b83ff96e1f2b6a682f133852f6798a09c465da95921460cefb38474024989060200160405180910390a15b505050565b60335460ff1615610cc55760405162461bcd60e51b81526004016101d990613fc8565b60ca54604051632474521560e21b81527ffbd454f36a7e1a388bd6fc3ab10d434aa4578f811acbbcf33afb1c697486313c60048201819052336024830152916001600160a01b0316906391d1485490604401602060405180830381865afa158015610d34573d6000803e3d6000fd5b505050506040513d601f19601f82011682018060405250810190610d589190613f66565b610d745760405162461bcd60e51b81526004016101d990613f83565b60c95460405163f9d9331d60e01b81526001600160a01b038781166004830152600092169063f9d9331d90602401602060405180830381865afa158015610dbf573d6000803e3d6000fd5b505050506040513d601f19601f82011682018060405250810190610de39190613e2e565b90506001600160a01b038116610e0b5760405162461bcd60e51b81526004016101d990613e4b565b6040805180820182526001600160a01b03858116825260cb54602083015291516336eeb1dd60e01b81526000928416916336eeb1dd91610e52918a918a91906004016140b8565b6020604051808303816000875af1158015610e71573d6000803e3d6000fd5b505050506040513d601f19601f82011682018060405250810190610e959190614151565b9050866001600160a01b03167fc1d32ad5cca423e7dda2123dbf8c482f8e77d00b631c06e903a47f2cec1334df82604051610ed291815260200190565b60405180910390a250505050505050565b306001600160a01b037f0000000000000000000000000000000000000000000000000000000000000000161415610f2c5760405162461bcd60e51b81526004016101d990613ece565b7f00000000000000000000000000000000000000000000000000000000000000006001600160a01b0316610f756000805160206143c1833981519152546001600160a01b031690565b6001600160a01b031614610f9b5760405162461bcd60e51b81526004016101d990613f1a565b610fa48261298d565b610fb082826001612a93565b5050565b60c95460405163f9d9331d60e01b81526001600160a01b038381166004830152600092839283928392169063f9d9331d90602401602060405180830381865afa158015611005573d6000803e3d6000fd5b505050506040513d601f19601f820116820180604052508101906110299190613e2e565b90506001600160a01b038116156110b657604051630103c92b60e01b81526001600160a01b038781166004830152821690630103c92b90602401602060405180830381865afa158015611080573d6000803e3d6000fd5b505050506040513d601f19601f820116820180604052508101906110a49190614151565b93506110b08585612dbb565b90935091505b509250925092565b6000306001600160a01b037f0000000000000000000000000000000000000000000000000000000000000000161461115e5760405162461bcd60e51b815260206004820152603860248201527f555550535570677261646561626c653a206d757374206e6f742062652063616c60448201527f6c6564207468726f7567682064656c656761746563616c6c000000000000000060648201526084016101d9565b506000805160206143c183398151915290565b600080600061118260335460ff1690565b1561119f5760405162461bcd60e51b81526004016101d990613fc8565b6000881180156111af5750600087115b6111cb5760405162461bcd60e51b81526004016101d99061416a565b60c95460405163f9d9331d60e01b81526001600160a01b038b81166004830152600092169063f9d9331d90602401602060405180830381865afa158015611216573d6000803e3d6000fd5b505050506040513d601f19601f8201168201806040525081019061123a9190613e2e565b90506001600160a01b0381166112bc5760c954604051621849e360e61b81526001600160a01b038c811660048301529091169063061278c0906024016020604051808303816000875af1158015611295573d6000803e3d6000fd5b505050506040513d601f19601f820116820180604052508101906112b99190613e2e565b90505b6000816001600160a01b0316630fc63d106040518163ffffffff1660e01b8152600401602060405180830381865afa1580156112fc573d6000803e3d6000fd5b505050506040513d601f19601f820116820180604052508101906113209190613e2e565b90506000826001600160a01b0316635f64b55b6040518163ffffffff1660e01b8152600401602060405180830381865afa158015611362573d6000803e3d6000fd5b505050506040513d601f19601f820116820180604052508101906113869190613e2e565b905061139d6001600160a01b03831633308e612c91565b6113b26001600160a01b03821633308d612c91565b6113c182828d8d8d8d89612ff6565b604051636e553f6560e01b8152600481018290526001600160a01b038b81166024830152939950919750955090841690636e553f6590604401600060405180830381600087803b15801561141457600080fd5b505af1158015611428573d6000803e3d6000fd5b50505050866001600160a01b0316336001600160a01b03168d6001600160a01b03166000805160206143e18339815191528760405161146991815260200190565b60405180910390a450505096509650969350505050565b60ca60009054906101000a90046001600160a01b03166001600160a01b03166375b238fc6040518163ffffffff1660e01b8152600401602060405180830381865afa1580156114d3573d6000803e3d6000fd5b505050506040513d601f19601f820116820180604052508101906114f79190614151565b60ca54604051632474521560e21b8152600481018390523360248201526001600160a01b03909116906391d1485490604401602060405180830381865afa158015611546573d6000803e3d6000fd5b505050506040513d601f19601f8201168201806040525081019061156a9190613f66565b6115865760405162461bcd60e51b81526004016101d990613f83565b670de0b6b3a76400008211156115c85760405162461bcd60e51b81526020600482015260076024820152664241445f46454560c81b60448201526064016101d9565b8160cb5414610fb05760cb5460408051918252602082018490527f5fc463da23c1b063e66f9e352006a7fbe8db7223c455dc429e881a2dfe2f94f1910160405180910390a15060cb55565b60008061162260335460ff1690565b1561163f5760405162461bcd60e51b81526004016101d990613fc8565b6000871161165f5760405162461bcd60e51b81526004016101d990613ff2565b60c95460405163f9d9331d60e01b81526001600160a01b038b81166004830152600092169063f9d9331d90602401602060405180830381865afa1580156116aa573d6000803e3d6000fd5b505050506040513d601f19601f820116820180604052508101906116ce9190613e2e565b90506001600160a01b0381166117505760c954604051621849e360e61b81526001600160a01b038c811660048301529091169063061278c0906024016020604051808303816000875af1158015611729573d6000803e3d6000fd5b505050506040513d601f19601f8201168201806040525081019061174d9190613e2e565b90505b6117656001600160a01b038a1633308b612c91565b60405163095ea7b360e01b8152731111111254eeb25477b68fb85ed929f73a9605826004820152602481018990526001600160a01b038a169063095ea7b3906044016020604051808303816000875af11580156117c6573d6000803e3d6000fd5b505050506040513d601f19601f820116820180604052508101906117ea9190613f66565b508792506000806000836001600160a01b0316630fc63d106040518163ffffffff1660e01b8152600401602060405180830381865afa158015611831573d6000803e3d6000fd5b505050506040513d601f19601f820116820180604052508101906118559190613e2e565b90506000846001600160a01b0316635f64b55b6040518163ffffffff1660e01b8152600401602060405180830381865afa158015611897573d6000803e3d6000fd5b505050506040513d601f19601f820116820180604052508101906118bb9190613e2e565b90508c6001600160a01b0316826001600160a01b03161461190a576000806118f48d825b6020028101906118ef9190614192565b61320b565b9092509050611903818f6141f6565b9d50909450505b8c6001600160a01b0316816001600160a01b031614611947576000806119318d60016118df565b9092509050611940818f6141f6565b9d50909350505b8c6001600160a01b0316826001600160a01b03161415611969578b93506119b1565b8c6001600160a01b0316816001600160a01b0316141561198b578b92506119b1565b8b156119b15761199b8c886141f6565b96506119b16001600160a01b038e16338e6132ea565b6000841180156119c15750600083115b6119dd5760405162461bcd60e51b81526004016101d99061416a565b6119ec828286868e8e8b612ff6565b604051636e553f6560e01b8152600481018290526001600160a01b038c811660248301529199509088169250636e553f659150604401600060405180830381600087803b158015611a3c57600080fd5b505af1158015611a50573d6000803e3d6000fd5b50505050876001600160a01b0316336001600160a01b03168f6001600160a01b03166000805160206143e183398151915289604051611a9191815260200190565b60405180910390a4505050505097509795505050505050565b600080611ab960335460ff1690565b15611ad65760405162461bcd60e51b81526004016101d990613fc8565b60003411611b165760405162461bcd60e51b815260206004820152600d60248201526c1393d7d350551250d7d4d15395609a1b60448201526064016101d9565b60c95460405163f9d9331d60e01b81526001600160a01b038981166004830152600092169063f9d9331d90602401602060405180830381865afa158015611b61573d6000803e3d6000fd5b505050506040513d601f19601f82011682018060405250810190611b859190613e2e565b90506001600160a01b038116611c075760c954604051621849e360e61b81526001600160a01b038a811660048301529091169063061278c0906024016020604051808303816000875af1158015611be0573d6000803e3d6000fd5b505050506040513d601f19601f82011682018060405250810190611c049190613e2e565b90505b60003490506000805160206143a18339815191526001600160a01b031663d0e30db0826040518263ffffffff1660e01b81526004016000604051808303818588803b158015611c5557600080fd5b505af1158015611c69573d6000803e3d6000fd5b505060405163095ea7b360e01b8152731111111254eeb25477b68fb85ed929f73a9605826004820152602481018590526000805160206143a1833981519152935063095ea7b3925060440190506020604051808303816000875af1158015611cd5573d6000803e3d6000fd5b505050506040513d601f19601f82011682018060405250810190611cf99190613f66565b508093506000806000846001600160a01b0316630fc63d106040518163ffffffff1660e01b8152600401602060405180830381865afa158015611d40573d6000803e3d6000fd5b505050506040513d601f19601f82011682018060405250810190611d649190613e2e565b90506000856001600160a01b0316635f64b55b6040518163ffffffff1660e01b8152600401602060405180830381865afa158015611da6573d6000803e3d6000fd5b505050506040513d601f19601f82011682018060405250810190611dca9190613e2e565b90506001600160a01b0382166000805160206143a183398151915214611e0d57600080611df78e826118df565b9092509050611e0681886141f6565b9650909450505b6001600160a01b0381166000805160206143a183398151915214611e4f57600080611e398e60016118df565b9092509050611e4881886141f6565b9650909350505b6001600160a01b0382166000805160206143a18339815191521415611e7657849350611f3e565b6001600160a01b0381166000805160206143a18339815191521415611e9d57849250611f3e565b8415611f3e57611ead85896141f6565b604051632e1a7d4d60e01b8152600481018790529098506000805160206143a183398151915290632e1a7d4d90602401600060405180830381600087803b158015611ef757600080fd5b505af1158015611f0b573d6000803e3d6000fd5b505060405133925087156108fc02915087906000818181858888f19350505050158015611f3c573d6000803e3d6000fd5b505b600084118015611f4e5750600083115b611f6a5760405162461bcd60e51b81526004016101d99061416a565b611f79828286868f8f8c612ff6565b604051636e553f6560e01b8152600481018290526001600160a01b038d81166024830152919a509089169250636e553f659150604401600060405180830381600087803b158015611fc957600080fd5b505af1158015611fdd573d6000803e3d6000fd5b50505050886001600160a01b0316336001600160a01b03168e6001600160a01b03166000805160206143e18339815191528a60405161201e91815260200190565b60405180910390a45050505050509550959350505050565b60ca54604051632474521560e21b81527f65d7a28e3265b37a6474929f336521b332c1681b933f6cb9f3376673440d862a60048201819052336024830152916001600160a01b0316906391d1485490604401602060405180830381865afa1580156120a5573d6000803e3d6000fd5b505050506040513d601f19601f820116820180604052508101906120c99190613f66565b6120e55760405162461bcd60e51b81526004016101d990613f83565b61076861331a565b60c95460405163f9d9331d60e01b81526001600160a01b038781166004830152600092839283929091169063f9d9331d90602401602060405180830381865afa15801561213e573d6000803e3d6000fd5b505050506040513d601f19601f820116820180604052508101906121629190613e2e565b90506001600160a01b03811661218a5760405162461bcd60e51b81526004016101d990613e4b565b6000816001600160a01b0316630fc63d106040518163ffffffff1660e01b8152600401602060405180830381865afa1580156121ca573d6000803e3d6000fd5b505050506040513d601f19601f820116820180604052508101906121ee9190613e2e565b90506000826001600160a01b0316635f64b55b6040518163ffffffff1660e01b8152600401602060405180830381865afa158015612230573d6000803e3d6000fd5b505050506040513d601f19601f820116820180604052508101906122549190613e2e565b90506001600160a01b0382166000805160206143a1833981519152141561230b5760405163d563468360e01b81526001600160a01b0384169063d5634683906122ac908c908b908d9060009033903090600401613e74565b60408051808303816000875af11580156122ca573d6000803e3d6000fd5b505050506040513d601f19601f820116820180604052508101906122ee9190613eaa565b955093506123066001600160a01b03821687876132ea565b6123f4565b6001600160a01b0381166000805160206143a183398151915214156123bc5760405163d563468360e01b81526001600160a01b0384169063d563468390612361908c908c908c9060009033903090600401613e74565b60408051808303816000875af115801561237f573d6000803e3d6000fd5b505050506040513d601f19601f820116820180604052508101906123a39190613eaa565b90955093506123066001600160a01b03831687876132ea565b60405162461bcd60e51b815260206004820152600d60248201526c1393d517d5d0939097d413d3d3609a1b60448201526064016101d9565b604051632e1a7d4d60e01b8152600481018590526000805160206143a183398151915290632e1a7d4d90602401600060405180830381600087803b15801561243b57600080fd5b505af115801561244f573d6000803e3d6000fd5b50506040516001600160a01b038916925086156108fc02915086906000818181858888f19350505050158015612489573d6000803e3d6000fd5b50856001600160a01b0316336001600160a01b03168b6001600160a01b03167f3115d1449a7b732c986cba18244e897a450f61e1bb8d589cd2e69e6c8924f9f78c6040516124d991815260200190565b60405180910390a45050509550959350505050565b60c95460405163f9d9331d60e01b81526001600160a01b038381166004830152600092839283928392169063f9d9331d90602401602060405180830381865afa15801561253f573d6000803e3d6000fd5b505050506040513d601f19601f820116820180604052508101906125639190613e2e565b90506001600160a01b038116156125e857806001600160a01b031663168a48226040518163ffffffff1660e01b8152600401602060405180830381865afa1580156125b2573d6000803e3d6000fd5b505050506040513d601f19601f820116820180604052508101906125d69190614151565b93506125e28585612dbb565b90935091505b509193909250565b600080600061260160335460ff1690565b1561261e5760405162461bcd60e51b81526004016101d990613fc8565b6000341161265e5760405162461bcd60e51b815260206004820152600d60248201526c1393d7d350551250d7d4d15395609a1b60448201526064016101d9565b6000871161267e5760405162461bcd60e51b81526004016101d990613ff2565b60c95460405163f9d9331d60e01b81526001600160a01b038a81166004830152600092169063f9d9331d90602401602060405180830381865afa1580156126c9573d6000803e3d6000fd5b505050506040513d601f19601f820116820180604052508101906126ed9190613e2e565b90506001600160a01b03811661276f5760c954604051621849e360e61b81526001600160a01b038b811660048301529091169063061278c0906024016020604051808303816000875af1158015612748573d6000803e3d6000fd5b505050506040513d601f19601f8201168201806040525081019061276c9190613e2e565b90505b6000816001600160a01b0316630fc63d106040518163ffffffff1660e01b8152600401602060405180830381865afa1580156127af573d6000803e3d6000fd5b505050506040513d601f19601f820116820180604052508101906127d39190613e2e565b90506000826001600160a01b0316635f64b55b6040518163ffffffff1660e01b8152600401602060405180830381865afa158015612815573d6000803e3d6000fd5b505050506040513d601f19601f820116820180604052508101906128399190613e2e565b90506001600160a01b0382166000805160206143a183398151915214156128885761286f6001600160a01b03821633308d612c91565b61287c818b8b8b87613372565b919750955093506128c9565b6001600160a01b0381166000805160206143a183398151915214156123bc576128bc6001600160a01b03831633308d612c91565b61287c828b8b8b87613372565b604051636e553f6560e01b8152600481018590526001600160a01b038881166024830152841690636e553f6590604401600060405180830381600087803b15801561291357600080fd5b505af1158015612927573d6000803e3d6000fd5b50505050866001600160a01b0316336001600160a01b03168c6001600160a01b03166000805160206143e18339815191528760405161296891815260200190565b60405180910390a4505050955095509592505050565b6001600160a01b03163b151590565b60ca60009054906101000a90046001600160a01b03166001600160a01b03166375b238fc6040518163ffffffff1660e01b8152600401602060405180830381865afa1580156129e0573d6000803e3d6000fd5b505050506040513d601f19601f82011682018060405250810190612a049190614151565b60ca54604051632474521560e21b8152600481018390523360248201526001600160a01b03909116906391d1485490604401602060405180830381865afa158015612a53573d6000803e3d6000fd5b505050506040513d601f19601f82011682018060405250810190612a779190613f66565b610fb05760405162461bcd60e51b81526004016101d990613f83565b7f4910fdfa16fed3260ed0e7147f7cc6da11a60208b5b9406d12a635614ffd91435460ff1615612ac657610c9d8361350a565b826001600160a01b03166352d1902d6040518163ffffffff1660e01b8152600401602060405180830381865afa925050508015612b20575060408051601f3d908101601f19168201909252612b1d91810190614151565b60015b612b835760405162461bcd60e51b815260206004820152602e60248201527f45524331393637557067726164653a206e657720696d706c656d656e7461746960448201526d6f6e206973206e6f74205555505360901b60648201526084016101d9565b6000805160206143c18339815191528114612bf25760405162461bcd60e51b815260206004820152602960248201527f45524331393637557067726164653a20756e737570706f727465642070726f786044820152681a58589b195555525160ba1b60648201526084016101d9565b50610c9d8383836135a6565b60335460ff16612c475760405162461bcd60e51b815260206004820152601460248201527314185d5cd8589b194e881b9bdd081c185d5cd95960621b60448201526064016101d9565b6033805460ff191690557f5db9ee0a495bf2e6ff9c91a7834c1ba4fdd244a5e8aa4e537bd38aeae4b073aa335b6040516001600160a01b03909116815260200160405180910390a1565b6040516001600160a01b0380851660248301528316604482015260648101829052612cfc9085906323b872dd60e01b906084015b60408051601f198184030181529190526020810180516001600160e01b03166001600160e01b0319909316929092179091526135cb565b50505050565b60008054610100900460ff1615612d49578160ff166001148015612d255750303b155b612d415760405162461bcd60e51b81526004016101d99061420d565b506000919050565b60005460ff808416911610612d705760405162461bcd60e51b81526004016101d99061420d565b506000805460ff191660ff92909216919091179055600190565b600054610100900460ff16612db15760405162461bcd60e51b81526004016101d99061425b565b612db961369d565b565b6000806000846001600160a01b03166318160ddd6040518163ffffffff1660e01b8152600401602060405180830381865afa158015612dfe573d6000803e3d6000fd5b505050506040513d601f19601f82011682018060405250810190612e229190614151565b905080856001600160a01b0316630dfe16816040518163ffffffff1660e01b8152600401602060405180830381865afa158015612e63573d6000803e3d6000fd5b505050506040513d601f19601f82011682018060405250810190612e879190613e2e565b6040516370a0823160e01b81526001600160a01b03888116600483015291909116906370a0823190602401602060405180830381865afa158015612ecf573d6000803e3d6000fd5b505050506040513d601f19601f82011682018060405250810190612ef39190614151565b612efd90866142a6565b612f0791906142c5565b925080856001600160a01b031663d21220a76040518163ffffffff1660e01b8152600401602060405180830381865afa158015612f48573d6000803e3d6000fd5b505050506040513d601f19601f82011682018060405250810190612f6c9190613e2e565b6040516370a0823160e01b81526001600160a01b03888116600483015291909116906370a0823190602401602060405180830381865afa158015612fb4573d6000803e3d6000fd5b505050506040513d601f19601f82011682018060405250810190612fd89190614151565b612fe290866142a6565b612fec91906142c5565b9150509250929050565b60405163095ea7b360e01b81527310ed43c718714eb63d5aa57b78b54704e256024e600482015260248101869052600090819081906001600160a01b038b169063095ea7b3906044016020604051808303816000875af115801561305e573d6000803e3d6000fd5b505050506040513d601f19601f820116820180604052508101906130829190613f66565b5060405163095ea7b360e01b81527310ed43c718714eb63d5aa57b78b54704e256024e6004820152602481018890526001600160a01b038a169063095ea7b3906044016020604051808303816000875af11580156130e4573d6000803e3d6000fd5b505050506040513d601f19601f820116820180604052508101906131089190613f66565b5060405162e8e33760e81b81526001600160a01b03808c166004830152808b166024830152604482018a9052606482018990526084820188905260a48201879052851660c48201524260e48201527310ed43c718714eb63d5aa57b78b54704e256024e9063e8e3370090610104016060604051808303816000875af1158015613195573d6000803e3d6000fd5b505050506040513d601f19601f820116820180604052508101906131b991906142e7565b919450925090506131df336131ce858b6141f6565b6001600160a01b038d1691906132ea565b6131fe336131ed848a6141f6565b6001600160a01b038c1691906132ea565b9750975097945050505050565b600080600080731111111254eeb25477b68fb85ed929f73a9605826001600160a01b0316868660405161323f929190614315565b6000604051808303816000865af19150503d806000811461327c576040519150601f19603f3d011682016040523d82523d6000602084013e613281565b606091505b5091509150816132c95760405162461bcd60e51b815260206004820152601360248201527214d5d05417d393d517d4d550d0d154d4d19553606a1b60448201526064016101d9565b808060200190518101906132dd9190613eaa565b9097909650945050505050565b6040516001600160a01b038316602482015260448101829052610c9d90849063a9059cbb60e01b90606401612cc5565b60335460ff161561333d5760405162461bcd60e51b81526004016101d990613fc8565b6033805460ff191660011790557f62e78cea01bee320cd4e420270b5ea74000d11b0c9f74754ebdbfc544b05a258612c743390565b60405163095ea7b360e01b81527310ed43c718714eb63d5aa57b78b54704e256024e600482015260248101859052600090819081906001600160a01b0389169063095ea7b3906044016020604051808303816000875af11580156133da573d6000803e3d6000fd5b505050506040513d601f19601f820116820180604052508101906133fe9190613f66565b5060405163f305d71960e01b81526001600160a01b03808a166004830152602482018990526044820188905260648201879052851660848201524260a48201527310ed43c718714eb63d5aa57b78b54704e256024e9063f305d71990349060c40160606040518083038185885af115801561347d573d6000803e3d6000fd5b50505050506040513d601f19601f820116820180604052508101906134a291906142e7565b919450925090506134c8336134b7858a6141f6565b6001600160a01b038b1691906132ea565b336108fc6134d684346141f6565b6040518115909202916000818181858888f193505050501580156134fe573d6000803e3d6000fd5b50955095509592505050565b6001600160a01b0381163b6135775760405162461bcd60e51b815260206004820152602d60248201527f455243313936373a206e657720696d706c656d656e746174696f6e206973206e60448201526c1bdd08184818dbdb9d1c9858dd609a1b60648201526084016101d9565b6000805160206143c183398151915280546001600160a01b0319166001600160a01b0392909216919091179055565b6135af836136d0565b6000825111806135bc5750805b15610c9d57612cfc8383613710565b6000613620826040518060400160405280602081526020017f5361666542455032303a206c6f772d6c6576656c2063616c6c206661696c6564815250856001600160a01b03166138069092919063ffffffff16565b805190915015610c9d578080602001905181019061363e9190613f66565b610c9d5760405162461bcd60e51b815260206004820152602a60248201527f5361666542455032303a204245503230206f7065726174696f6e20646964206e6044820152691bdd081cdd58d8d9595960b21b60648201526084016101d9565b600054610100900460ff166136c45760405162461bcd60e51b81526004016101d99061425b565b6033805460ff19169055565b6136d98161350a565b6040516001600160a01b038216907fbc7cd75a20ee27fd9adebab32041f755214dbc6bffa90cc0225b39da2e5c2d3b90600090a250565b60606001600160a01b0383163b6137785760405162461bcd60e51b815260206004820152602660248201527f416464726573733a2064656c65676174652063616c6c20746f206e6f6e2d636f6044820152651b9d1c9858dd60d21b60648201526084016101d9565b600080846001600160a01b0316846040516137939190614351565b600060405180830381855af49150503d80600081146137ce576040519150601f19603f3d011682016040523d82523d6000602084013e6137d3565b606091505b50915091506137fb82826040518060600160405280602781526020016144016027913961381f565b925050505b92915050565b60606138158484600085613858565b90505b9392505050565b6060831561382e575081613818565b82511561383e5782518084602001fd5b8160405162461bcd60e51b81526004016101d9919061436d565b6060824710156138b95760405162461bcd60e51b815260206004820152602660248201527f416464726573733a20696e73756666696369656e742062616c616e636520666f6044820152651c8818d85b1b60d21b60648201526084016101d9565b6001600160a01b0385163b6139105760405162461bcd60e51b815260206004820152601d60248201527f416464726573733a2063616c6c20746f206e6f6e2d636f6e747261637400000060448201526064016101d9565b600080866001600160a01b0316858760405161392c9190614351565b60006040518083038185875af1925050503d8060008114613969576040519150601f19603f3d011682016040523d82523d6000602084013e61396e565b606091505b509150915061397e82828661381f565b979650505050505050565b6001600160a01b038116811461076857600080fd5b801515811461076857600080fd5b60008060008060008060c087890312156139c557600080fd5b86356139d081613989565b955060208701359450604087013593506060870135925060808701356139f58161399e565b915060a0870135613a0581613989565b809150509295509295509295565b600060208284031215613a2557600080fd5b813561381881613989565b6020808252825182820181905260009190848201906040850190845b81811015613a715783516001600160a01b031683529284019291840191600101613a4c565b50909695505050505050565b600080600060608486031215613a9257600080fd5b8335613a9d81613989565b9250602084013591506040840135613ab481613989565b809150509250925092565b60008060408385031215613ad257600080fd5b8235613add81613989565b91506020830135613aed81613989565b809150509250929050565b806040810183101561380057600080fd5b60008060008060808587031215613b1f57600080fd5b8435613b2a81613989565b9350602085013567ffffffffffffffff80821115613b4757600080fd5b613b5388838901613af8565b94506040870135915080821115613b6957600080fd5b50850160408188031215613b7c57600080fd5b91506060850135613b8c81613989565b939692955090935050565b634e487b7160e01b600052604160045260246000fd5b60008060408385031215613bc057600080fd5b8235613bcb81613989565b9150602083013567ffffffffffffffff80821115613be857600080fd5b818501915085601f830112613bfc57600080fd5b813581811115613c0e57613c0e613b97565b604051601f8201601f19908116603f01168101908382118183101715613c3657613c36613b97565b81604052828152886020848701011115613c4f57600080fd5b8260208601602083013760006020848301015280955050505050509250929050565b60008060008060008060c08789031215613c8a57600080fd5b8635613c9581613989565b95506020870135945060408701359350606087013592506080870135915060a0870135613a0581613989565b600060208284031215613cd357600080fd5b5035919050565b600080600080600080600060e0888a031215613cf557600080fd5b8735613d0081613989565b96506020880135613d1081613989565b955060408801359450606088013567ffffffffffffffff811115613d3357600080fd5b613d3f8a828b01613af8565b9450506080880135925060a0880135915060c0880135613d5e81613989565b8091505092959891949750929550565b600080600080600060a08688031215613d8657600080fd5b8535613d9181613989565b9450602086013567ffffffffffffffff811115613dad57600080fd5b613db988828901613af8565b94505060408601359250606086013591506080860135613dd881613989565b809150509295509295909350565b600080600080600060a08688031215613dfe57600080fd5b8535613e0981613989565b94506020860135935060408601359250606086013591506080860135613dd881613989565b600060208284031215613e4057600080fd5b815161381881613989565b6020808252600f908201526e4641524d5f4e4f545f45584953545360881b604082015260600190565b95865260208601949094526040850192909252151560608401526001600160a01b0390811660808401521660a082015260c00190565b60008060408385031215613ebd57600080fd5b505080516020909101519092909150565b6020808252602c908201527f46756e6374696f6e206d7573742062652063616c6c6564207468726f7567682060408201526b19195b1959d85d1958d85b1b60a21b606082015260800190565b6020808252602c908201527f46756e6374696f6e206d7573742062652063616c6c6564207468726f7567682060408201526b6163746976652070726f787960a01b606082015260800190565b600060208284031215613f7857600080fd5b81516138188161399e565b60208082526015908201527410d05313115497d393d517d055551213d492569151605a1b604082015260600190565b634e487b7160e01b600052603260045260246000fd5b60208082526010908201526f14185d5cd8589b194e881c185d5cd95960821b604082015260600190565b6020808252600d908201526c1393d7d513d2d15397d4d15395609a1b604082015260600190565b6000604083018235601e1984360301811261403357600080fd5b83018035602067ffffffffffffffff82111561404e57600080fd5b8160051b360386131561406057600080fd5b60408752928190529082019160009190606087015b828410156140a557843561408881613989565b6001600160a01b0316815293810193600193909301928101614075565b9581013596019590955250919392505050565b608080825260009060c083019083018683805b600281101561411357868503607f190184528235368b9003603e190181126140f1578283fd5b6140fd868c8301614019565b95505060209384019392909201916001016140cb565b5050505082810360208401526141298186614019565b84516001600160a01b0316604085015260209094015160609093019290925250909392505050565b60006020828403121561416357600080fd5b5051919050565b6020808252600e908201526d1393d7d513d2d15394d7d4d1539560921b604082015260600190565b6000808335601e198436030181126141a957600080fd5b83018035915067ffffffffffffffff8211156141c457600080fd5b6020019150368190038213156141d957600080fd5b9250929050565b634e487b7160e01b600052601160045260246000fd5b600082821015614208576142086141e0565b500390565b6020808252602e908201527f496e697469616c697a61626c653a20636f6e747261637420697320616c72656160408201526d191e481a5b9a5d1a585b1a5e995960921b606082015260800190565b6020808252602b908201527f496e697469616c697a61626c653a20636f6e7472616374206973206e6f74206960408201526a6e697469616c697a696e6760a81b606082015260800190565b60008160001904831182151516156142c0576142c06141e0565b500290565b6000826142e257634e487b7160e01b600052601260045260246000fd5b500490565b6000806000606084860312156142fc57600080fd5b8351925060208401519150604084015190509250925092565b8183823760009101908152919050565b60005b83811015614340578181015183820152602001614328565b83811115612cfc5750506000910152565b60008251614363818460208701614325565b9190910192915050565b602081526000825180602084015261438c816040850160208701614325565b601f01601f1916919091016040019291505056fe000000000000000000000000bb4cdb9cbd36b01bd1cbaebf2de08d9173bc095c360894a13ba1a3210667c828492db98dca3e2076cc3735a920a3ca505d382bbc7cfff908a4b583f36430b25d75964c458d8ede8a99bd61be750e97ee1b2f3a96416464726573733a206c6f772d6c6576656c2064656c65676174652063616c6c206661696c6564a2646970667358221220efff8ad7f100267edc444e7e3d0d910e51683fc901adde163d03721e9432d17a64736f6c634300080a0033496e697469616c697a61626c653a20636f6e747261637420697320616c726561",
  "immutableReferences": {
    "561": [
      {
        "length": 32,
        "start": 1686
      },
      {
        "length": 32,
        "start": 1750
      },
      {
        "length": 32,
        "start": 3822
      },
      {
        "length": 32,
        "start": 3886
      },
      {
        "length": 32,
        "start": 4299
      }
    ]
  },
  "source": "// SPDX-License-Identifier: MIT\r\npragma solidity 0.8.10;\r\n\r\nimport {IUnoFarmPancakeswap as Farm} from '../apps/pancakeswap/interfaces/IUnoFarmPancakeswap.sol'; \r\nimport '../interfaces/IUniswapV2Router.sol';\r\nimport '../interfaces/IUnoFarmFactory.sol';\r\nimport '../interfaces/IUnoAccessManager.sol'; \r\nimport '../interfaces/IUniswapV2Pair.sol';\r\nimport '../interfaces/IWBNB.sol';\r\nimport '../libs/SafeBEP20.sol';\r\nimport '@openzeppelin/contracts-upgradeable/proxy/utils/Initializable.sol';\r\nimport '@pancakeswap/pancake-swap-lib/contracts/token/BEP20/IBEP20.sol';\r\nimport '@openzeppelin/contracts-upgradeable/security/PausableUpgradeable.sol';\r\nimport '@openzeppelin/contracts-upgradeable/proxy/utils/UUPSUpgradeable.sol';\r\n\r\ncontract UnoAssetRouterPancakeswapV2 is Initializable, PausableUpgradeable, UUPSUpgradeable {\r\n    using SafeBEP20 for IBEP20;\r\n\r\n    /**\r\n     * @dev Contract Variables:\r\n     * farmFactory - The contract that deploys new Farms and links them to {lpPair}s.\r\n     * accessManager - Role manager contract.\r\n     */\r\n    IUnoFarmFactory public farmFactory;\r\n    IUnoAccessManager public accessManager;\r\n\r\n    bytes32 private constant DISTRIBUTOR_ROLE = keccak256('DISTRIBUTOR_ROLE');\r\n    bytes32 private constant PAUSER_ROLE = keccak256('PAUSER_ROLE');\r\n\r\n    uint256 public fee;\r\n\r\n    address public constant WBNB = 0xbb4CdB9CBd36B01bD1cBaEBF2De08d9173bc095c;\r\n    IUniswapV2Router01 public constant PancakeswapRouter = IUniswapV2Router01(0x10ED43C718714eb63d5aA57B78B54704E256024E);\r\n    address private constant OneInchRouter = 0x1111111254EEB25477B68fb85Ed929f73A960582;\r\n\r\n    uint256 public constant version = 2;\r\n\r\n    event Deposit(address indexed lpPool, address indexed sender, address indexed recipient, uint256 amount);\r\n    event Withdraw(address indexed lpPool, address indexed sender, address indexed recipient, uint256 amount);\r\n    event Distribute(address indexed lpPool, uint256 reward);\r\n    \r\n    event FeeChanged(uint256 previousFee, uint256 newFee);\r\n\r\n    modifier onlyRole(bytes32 role){\r\n        require(accessManager.hasRole(role, msg.sender), 'CALLER_NOT_AUTHORIZED');\r\n        _;\r\n    }\r\n\r\n    // ============ Methods ============\r\n\r\n    /// @custom:oz-upgrades-unsafe-allow constructor\r\n    constructor() {\r\n        _disableInitializers();\r\n    }\r\n\r\n    function initialize(address _accessManager, address _farmFactory) external initializer{\r\n        require (_accessManager != address(0), 'BAD_ACCESS_MANAGER');\r\n        require (_farmFactory != address(0), 'BAD_FARM_FACTORY');\r\n\r\n        __Pausable_init();\r\n        accessManager = IUnoAccessManager(_accessManager);\r\n        farmFactory = IUnoFarmFactory(_farmFactory);\r\n    }\r\n\r\n    receive() external payable {\r\n        require(msg.sender == WBNB || msg.sender == address(PancakeswapRouter), 'ONLY_ACCEPT_WBNB'); // only accept ETH via fallback from the WBNB or router contract\r\n    }\r\n\r\n    /**\r\n     * @dev Deposits tokens in the given pool. Creates new Farm contract if there isn't one deployed for the {lpPair} and deposits tokens in it. Emits a {Deposit} event.\r\n     * @param lpPair - Address of the pool to deposit tokens in.\r\n     * @param amountA  - Token A amount to deposit.\r\n     * @param amountB -  Token B amount to deposit.\r\n     * @param amountAMin - Bounds the extent to which the B/A price can go up before the transaction reverts.\r\n     * @param amountBMin - Bounds the extent to which the A/B price can go up before the transaction reverts.\r\n     * @param recipient - Address which will receive the deposit.\r\n     \r\n     * @return sentA - Token A amount sent to the farm.\r\n     * @return sentB - Token B amount sent to the farm.\r\n     * @return liquidity - Total liquidity sent to the farm (in lpTokens).\r\n     */\r\n    function deposit(address lpPair, uint256 amountA, uint256 amountB, uint256 amountAMin, uint256 amountBMin, address recipient) external whenNotPaused returns(uint256 sentA, uint256 sentB, uint256 liquidity){\r\n        require(amountA > 0 && amountB > 0, \"NO_TOKENS_SENT\");\r\n        Farm farm = Farm(farmFactory.Farms(lpPair));\r\n        if(farm == Farm(address(0))){\r\n            farm = Farm(farmFactory.createFarm(lpPair));\r\n        }\r\n\r\n        address tokenA = farm.tokenA();\r\n        address tokenB = farm.tokenB();\r\n        IBEP20(tokenA).safeTransferFrom(msg.sender, address(this), amountA);\r\n        IBEP20(tokenB).safeTransferFrom(msg.sender, address(this), amountB);\r\n\r\n        (sentA, sentB, liquidity) = _addLiquidity(tokenA, tokenB, amountA, amountB, amountAMin, amountBMin, address(farm));\r\n        farm.deposit(liquidity, recipient);\r\n\r\n        emit Deposit(lpPair, msg.sender, recipient, liquidity); \r\n    }\r\n\r\n    /**\r\n     * @dev Autoconverts BNB into WBNB and deposits tokens in the given pool. Creates new Farm contract if there isn't one deployed for the {lpStakingPool} and deposits tokens in it. Emits a {Deposit} event.\r\n     * @param lpPair - Address of the pool to deposit tokens in.\r\n     * @param amountToken  - Token amount to deposit.\r\n     * @param amountTokenMin - Bounds the extent to which the TOKEN/WBNB price can go up before the transaction reverts.\r\n     * @param amountETHMin - Bounds the extent to which the WBNB/TOKEN price can go up before the transaction reverts.\r\n     * @param recipient - Address which will receive the deposit.\r\n     \r\n     * @return sentToken - Token amount sent to the farm.\r\n     * @return sentETH - WBNB amount sent to the farm.\r\n     * @return liquidity - Total liquidity sent to the farm (in lpTokens).\r\n     */\r\n    function depositETH(address lpPair, uint256 amountToken, uint256 amountTokenMin, uint256 amountETHMin, address recipient) external payable whenNotPaused returns(uint256 sentToken, uint256 sentETH, uint256 liquidity){\r\n        require(msg.value > 0, \"NO_MATIC_SENT\");\r\n        require(amountToken > 0, \"NO_TOKEN_SENT\");\r\n        Farm farm = Farm(farmFactory.Farms(lpPair));\r\n        if(farm == Farm(address(0))){\r\n            farm = Farm(farmFactory.createFarm(lpPair));\r\n        }\r\n\r\n        address tokenA = farm.tokenA();\r\n        address tokenB = farm.tokenB();\r\n        if (tokenA == WBNB) {\r\n            IBEP20(tokenB).safeTransferFrom(msg.sender, address(this), amountToken);\r\n            (sentToken, sentETH, liquidity) = _addLiquidityETH(tokenB, amountToken, amountTokenMin, amountETHMin, address(farm));\r\n        } else if (tokenB == WBNB) {\r\n            IBEP20(tokenA).safeTransferFrom(msg.sender, address(this), amountToken);\r\n            (sentToken, sentETH, liquidity) = _addLiquidityETH(tokenA, amountToken, amountTokenMin, amountETHMin, address(farm));\r\n        } else {\r\n            revert(\"NOT_WBNB_POOL\");\r\n        }\r\n        farm.deposit(liquidity, recipient);\r\n\r\n        emit Deposit(lpPair, msg.sender, recipient, liquidity);\r\n    }\r\n\r\n    /**\r\n     * @dev Deposits single token in the given pool. Creates new Farm contract if there isn't one deployed for the {lpPair}, swaps {token} for pool tokens and deposits them. Emits a {Deposit} event.\r\n     * @param lpPair - Address of the pool to deposit tokens in.\r\n     * @param token  - Address of a token to enter the pool.\r\n     * @param amount - Amount of token sent.\r\n     * @param swapData - Parameter with which 1inch router is being called with.\r\n     * @param amountAMin - Bounds the extent to which the B/A price can go up before the transaction reverts.\r\n     * @param amountBMin - Bounds the extent to which the A/B price can go up before the transaction reverts.\r\n     * @param recipient - Address which will receive the deposit.\r\n     \r\n     * @return sent - Total {token} amount sent to the farm. NOTE: Returns dust left from swap in {token}, but if A/B amounts are not correct also returns dust in pool's tokens.\r\n     * @return liquidity - Total liquidity sent to the farm (in lpTokens).\r\n     */\r\n    function depositSingleAsset(address lpPair, address token, uint256 amount, bytes[2] calldata swapData, uint256 amountAMin, uint256 amountBMin, address recipient) external whenNotPaused returns(uint256 sent, uint256 liquidity){\r\n        require(amount > 0, \"NO_TOKEN_SENT\");\r\n        Farm farm = Farm(farmFactory.Farms(lpPair));\r\n        if(farm == Farm(address(0))){\r\n            farm = Farm(farmFactory.createFarm(lpPair));\r\n        }\r\n\r\n        IBEP20(token).safeTransferFrom(msg.sender, address(this), amount);\r\n        IBEP20(token).approve(OneInchRouter, amount);\r\n\r\n        sent = amount;\r\n        uint256 amountA;\r\n        uint256 amountB;\r\n        address tokenA = farm.tokenA();\r\n        address tokenB = farm.tokenB();\r\n\r\n        if (tokenA != token) {\r\n            (uint256 returnAmount, uint256 spentAmount) = _swap(swapData[0]);\r\n            amount -= spentAmount;\r\n            amountA = returnAmount;\r\n        }\r\n        if (tokenB != token) {\r\n            (uint256 returnAmount, uint256 spentAmount) = _swap(swapData[1]);\r\n            amount -= spentAmount;\r\n            amountB = returnAmount;\r\n        }\r\n\r\n        if (tokenA == token) {\r\n            amountA = amount;\r\n        } else if (tokenB == token) {\r\n            amountB = amount;\r\n        } else if(amount > 0) {\r\n            sent -= amount;\r\n            IBEP20(token).safeTransfer(msg.sender, amount);\r\n        }\r\n\r\n        require(amountA > 0 && amountB > 0, \"NO_TOKENS_SENT\");\r\n        (,,liquidity) = _addLiquidity(tokenA, tokenB, amountA, amountB, amountAMin, amountBMin, address(farm));\r\n        farm.deposit(liquidity, recipient);\r\n        \r\n        emit Deposit(lpPair, msg.sender, recipient, liquidity);\r\n    }\r\n     \r\n    /**\r\n     * @dev Deposits single MATIC in the given pool. Creates new Farm contract if there isn't one deployed for the {lpPair}, swaps MATIC for pool tokens and deposits them. Emits a {Deposit} event.\r\n     * @param lpPair - Address of the pool to deposit tokens in.\r\n     * @param swapData - Parameter with which 1inch router is being called with.\r\n     * @param amountAMin - Bounds the extent to which the B/A price can go up before the transaction reverts.\r\n     * @param amountBMin - Bounds the extent to which the A/B price can go up before the transaction reverts.\r\n     * @param recipient - Address which will receive the deposit.\r\n     \r\n     * @return sentETH - Total MATIC amount sent to the farm. NOTE: Returns dust left from swap in MATIC, but if A/B amount are not correct also returns dust in pool's tokens.\r\n     * @return liquidity - Total liquidity sent to the farm (in lpTokens).\r\n     */\r\n    function depositSingleETH(address lpPair, bytes[2] calldata swapData, uint256 amountAMin, uint256 amountBMin, address recipient) external payable whenNotPaused returns(uint256 sentETH, uint256 liquidity){\r\n        require(msg.value > 0, \"NO_MATIC_SENT\");\r\n        Farm farm = Farm(farmFactory.Farms(lpPair));\r\n        if(farm == Farm(address(0))){\r\n            farm = Farm(farmFactory.createFarm(lpPair));\r\n        }\r\n\r\n        uint256 amount = msg.value;\r\n        IWBNB(WBNB).deposit{value: amount}();\r\n        IBEP20(WBNB).approve(OneInchRouter, amount);\r\n\r\n        sentETH = amount;\r\n        uint256 amountA;\r\n        uint256 amountB;\r\n        address tokenA = farm.tokenA();\r\n        address tokenB = farm.tokenB();\r\n\r\n        if (tokenA != WBNB) {\r\n            (uint256 returnAmount, uint256 spentAmount) = _swap(swapData[0]);\r\n            amount -= spentAmount;\r\n            amountA = returnAmount;\r\n        }\r\n        if (tokenB != WBNB) {\r\n            (uint256 returnAmount, uint256 spentAmount) = _swap(swapData[1]);\r\n            amount -= spentAmount;\r\n            amountB = returnAmount;\r\n        }\r\n\r\n        if (tokenA == WBNB) {\r\n            amountA = amount;\r\n        } else if (tokenB == WBNB) {\r\n            amountB = amount;\r\n        } else if (amount > 0) {\r\n            sentETH -= amount;\r\n            IWBNB(WBNB).withdraw(amount);\r\n            payable(msg.sender).transfer(amount);\r\n        }\r\n\r\n        require(amountA > 0 && amountB > 0, \"NO_TOKENS_SENT\");\r\n        (,,liquidity) = _addLiquidity(tokenA, tokenB, amountA, amountB, amountAMin, amountBMin, address(farm));\r\n        farm.deposit(liquidity, recipient);\r\n\r\n        emit Deposit(lpPair, msg.sender, recipient, liquidity);\r\n    }\r\n\r\n    /**\r\n     * @dev Deposits tokens in the given pool. Creates new Farm contract if there isn't one deployed for the {lpPair} and deposits tokens in it. Emits a {Deposit} event.\r\n     * @param lpPair - Address of the pool to deposit tokens in.\r\n     * @param amount - LP Token amount to deposit.\r\n     * @param recipient - Address which will receive the deposit.\r\n     */\r\n    function depositLP(address lpPair, uint256 amount, address recipient) external whenNotPaused{\r\n        require(amount > 0, \"NO_TOKEN_SENT\");\r\n        Farm farm = Farm(farmFactory.Farms(lpPair));\r\n        if(farm == Farm(address(0))){\r\n            farm = Farm(farmFactory.createFarm(lpPair));\r\n        }\r\n\r\n        IBEP20(lpPair).safeTransferFrom(msg.sender, address(farm), amount);\r\n        farm.deposit(amount, recipient);\r\n\r\n        emit Deposit(lpPair, msg.sender, recipient, amount); \r\n    }\r\n\r\n    /** \r\n     * @dev Withdraws tokens from the given pool. Emits a {Withdraw} event.\r\n     * @param lpPair - LP pool to withdraw from.\r\n     * @param amount - LP amount to withdraw. \r\n     * @param amountAMin - The minimum amount of tokenA that must be received for the transaction not to revert.\r\n     * @param amountBMin - The minimum amount of tokenB that must be received for the transaction not to revert.\r\n     * @param withdrawLP - True: Withdraw in LP tokens, False: Withdraw in normal tokens.\r\n     * @param recipient - The address which will receive tokens.\r\n\r\n     * @return amountA - Token A amount sent to the {recipient}, 0 if withdrawLP == false.\r\n     * @return amountB - Token B amount sent to the {recipient}, 0 if withdrawLP == false.\r\n     */ \r\n    function withdraw(address lpPair, uint256 amount, uint256 amountAMin, uint256 amountBMin, bool withdrawLP, address recipient) external returns(uint256 amountA, uint256 amountB){\r\n        Farm farm = Farm(farmFactory.Farms(lpPair));\r\n        require(farm != Farm(address(0)),'FARM_NOT_EXISTS');\r\n        \r\n        (amountA, amountB) = farm.withdraw(amount, amountAMin, amountBMin, withdrawLP, msg.sender, recipient);\r\n        emit Withdraw(lpPair, msg.sender, recipient, amount);  \r\n    }\r\n\r\n    /** \r\n     * @dev Autoconverts WBNB into BNB and withdraws tokens from the pool. Emits a {Withdraw} event.\r\n     * @param lpPair - LP pool to withdraw from.\r\n     * @param amount - LP amount to withdraw. \r\n     * @param amountTokenMin - The minimum amount of token that must be received for the transaction not to revert.\r\n     * @param amountETHMin - The minimum amount of BNB that must be received for the transaction not to revert.\r\n     * @param recipient - The address which will receive tokens.\r\n\r\n     * @return amountToken - Token amount sent to the {recipient}.\r\n     * @return amountETH - BNB amount sent to the {recipient}.\r\n     */ \r\n    function withdrawETH(address lpPair, uint256 amount, uint256 amountTokenMin, uint256 amountETHMin, address recipient) external returns(uint256 amountToken, uint256 amountETH){\r\n        Farm farm = Farm(farmFactory.Farms(lpPair));\r\n        require(farm != Farm(address(0)),'FARM_NOT_EXISTS');\r\n\r\n        address tokenA = farm.tokenA();\r\n        address tokenB = farm.tokenB();\r\n\r\n        if (tokenA == WBNB) {\r\n            (amountETH, amountToken) = farm.withdraw(amount, amountETHMin, amountTokenMin, false, msg.sender, address(this));\r\n            IBEP20(tokenB).safeTransfer(recipient, amountToken);\r\n        } else if (tokenB == WBNB) {\r\n            (amountToken, amountETH) = farm.withdraw(amount, amountTokenMin, amountETHMin, false, msg.sender, address(this)); \r\n            IBEP20(tokenA).safeTransfer(recipient, amountToken);\r\n        } else {\r\n            revert(\"NOT_WBNB_POOL\");\r\n        }\r\n\r\n        IWBNB(WBNB).withdraw(amountETH);\r\n        payable(recipient).transfer(amountETH);\r\n        emit Withdraw(lpPair, msg.sender, recipient, amount);\r\n    }\r\n\r\n    /**\r\n     * @dev Distributes tokens between users.\r\n     * @param lpPair - LP pool to distribute tokens in.\r\n     * @param swapInfos - Arrays of structs with token arrays describing swap routes (rewardTokenToTokenA, rewardTokenToTokenB, rewarderTokenToTokenA, rewarderTokenToTokenB) and minimum amounts of output tokens that must be received for the transaction not to revert.\r\n     * @param feeSwapInfo - Struct with token arrays describing swap route (rewardTokenToFeeToken, rewarderTokenToFeeToken) and minimum amounts of output tokens that must be received for the transaction not to revert.\r\n     * @param feeTo - Address to collect fees to.\r\n     *\r\n     * Note: This function can only be called by the distributor.\r\n     */ \r\n    function distribute(\r\n        address lpPair,\r\n        Farm.SwapInfo[2] calldata swapInfos,\r\n        Farm.SwapInfo calldata feeSwapInfo,\r\n        address feeTo\r\n    ) external whenNotPaused onlyRole(DISTRIBUTOR_ROLE) {\r\n        Farm farm = Farm(farmFactory.Farms(lpPair));\r\n        require(farm != Farm(address(0)), 'FARM_NOT_EXISTS');\r\n\r\n        uint256 reward = farm.distribute(swapInfos, feeSwapInfo, Farm.FeeInfo(feeTo, fee));\r\n        emit Distribute(lpPair, reward);\r\n    }\r\n\r\n    /**\r\n     * @dev Returns tokens staked by the {_address} for the given {lpPair}.\r\n     * @param _address - The address to check stakes for.\r\n     * @param lpPair - LP pool to check stakes in.\r\n\r\n     * @return stakeLP - Total user stake(in LP tokens).\r\n     * @return stakeA - Token A stake.\r\n     * @return stakeB - Token B stake.\r\n     */\r\n    function userStake(address _address, address lpPair) external view returns (uint256 stakeLP, uint256 stakeA, uint256 stakeB) {\r\n        Farm farm = Farm(farmFactory.Farms(lpPair));\r\n        if (farm != Farm(address(0))) {\r\n            stakeLP = farm.userBalance(_address);\r\n            (stakeA, stakeB) = _getTokenStake(lpPair, stakeLP);\r\n        }\r\n    }\r\n\r\n    /**\r\n     * @dev Returns total amount locked in the pool. Doesn't take pending rewards into account.\r\n     * @param lpPair - LP pool to check total deposits in.\r\n\r\n     * @return totalDepositsLP - Total deposits (in LP tokens).\r\n     * @return totalDepositsA - Token A deposits.\r\n     * @return totalDepositsB - Token B deposits.\r\n     */  \r\n    function totalDeposits(address lpPair) external view returns (uint256 totalDepositsLP, uint256 totalDepositsA, uint256 totalDepositsB) {\r\n        Farm farm = Farm(farmFactory.Farms(lpPair));\r\n        if (farm != Farm(address(0))) {\r\n            totalDepositsLP = farm.getTotalDeposits(); \r\n            (totalDepositsA, totalDepositsB) = _getTokenStake(lpPair, totalDepositsLP);\r\n        }\r\n    }\r\n\r\n    /**\r\n     * @dev Returns addresses of tokens in {lpPair}.\r\n     * @param lpPair - LP pair to check tokens in.\r\n\r\n     * @return tokens - Tokens addresses.\r\n     */  \r\n    function getTokens(address lpPair) external view returns(IBEP20[] memory tokens){\r\n        tokens = new IBEP20[](2);\r\n        tokens[0] = IBEP20(IUniswapV2Pair(lpPair).token0());\r\n        tokens[1] = IBEP20(IUniswapV2Pair(lpPair).token1());\r\n    }\r\n\r\n    /**\r\n     * @dev Deposits assets to router & refunds dust.\r\n     */ \r\n    function _addLiquidity(\r\n        address tokenA,\r\n        address tokenB, \r\n        uint256 amountA, \r\n        uint256 amountB, \r\n        uint256 amountAMin, \r\n        uint256 amountBMin, \r\n        address farm\r\n    ) internal returns(uint256 sentA, uint256 sentB, uint256 liquidity){\r\n        IBEP20(tokenA).approve(address(PancakeswapRouter), amountA);\r\n        IBEP20(tokenB).approve(address(PancakeswapRouter), amountB);\r\n\r\n        (sentA, sentB, liquidity) = PancakeswapRouter.addLiquidity(tokenA, tokenB, amountA, amountB, amountAMin, amountBMin, farm, block.timestamp);\r\n        // Refund dust\r\n        IBEP20(tokenA).safeTransfer(msg.sender, amountA - sentA);\r\n\t\tIBEP20(tokenB).safeTransfer(msg.sender, amountB - sentB);\r\n    }\r\n\r\n    /**\r\n     * @dev Deposits assets to router & refunds dust.\r\n     */ \r\n    function _addLiquidityETH(\r\n        address token,\r\n        uint256 amount, \r\n        uint256 amountTokenMin, \r\n        uint256 amountETHMin, \r\n        address farm\r\n    ) internal returns(uint256 sentToken, uint256 sentETH, uint256 liquidity){\r\n        IBEP20(token).approve(address(PancakeswapRouter), amount);\r\n\r\n        (sentToken, sentETH, liquidity) = PancakeswapRouter.addLiquidityETH{value: msg.value}(token, amount, amountTokenMin, amountETHMin, farm, block.timestamp);\r\n        // Refund dust\r\n        IBEP20(token).safeTransfer(msg.sender, amount - sentToken);\r\n        payable(msg.sender).transfer(msg.value - sentETH);\r\n    }\r\n\r\n    /**\r\n     * @dev Swaps assets using 1inch exchange.\r\n     */  \r\n    function _swap(bytes calldata swapData) internal returns(uint256 returnAmount, uint256 spentAmount){\r\n        (bool success, bytes memory data) = OneInchRouter.call(swapData);\r\n        require(success, \"SWAP_NOT_SUCCESSFUL\");\r\n        (returnAmount, spentAmount) = abi.decode(data, (uint256, uint256));\r\n    }\r\n\r\n    /**\r\n     * @dev Converts LP tokens to normal tokens, value(amountA) == value(amountB) == 0.5*amountLP\r\n     * @param lpPair - LP pair for conversion.\r\n     * @param amountLP - Amount of LP tokens to convert.\r\n\r\n     * @return amountA - Token A amount.\r\n     * @return amountB - Token B amount.\r\n     */ \r\n    function _getTokenStake(address lpPair, uint256 amountLP) internal view returns (uint256 amountA, uint256 amountB) {\r\n        uint256 totalSupply = IBEP20(lpPair).totalSupply();\r\n        amountA = amountLP * IBEP20(IUniswapV2Pair(lpPair).token0()).balanceOf(lpPair) / totalSupply;\r\n        amountB = amountLP * IBEP20(IUniswapV2Pair(lpPair).token1()).balanceOf(lpPair) / totalSupply;\r\n    }\r\n\r\n    /**\r\n     * @dev Change fee amount.\r\n     * @param _fee -New fee to collect from farms. [10^18 == 100%]\r\n     *\r\n     * Note: This function can only be called by ADMIN_ROLE.\r\n     */ \r\n    function setFee(uint256 _fee) external onlyRole(accessManager.ADMIN_ROLE()){\r\n        require (_fee <= 1 ether, \"BAD_FEE\");\r\n        if(fee != _fee){\r\n            emit FeeChanged(fee, _fee); \r\n            fee = _fee;\r\n        }\r\n    }\r\n \r\n    function pause() external onlyRole(PAUSER_ROLE) {\r\n        _pause();\r\n    }\r\n\r\n    function unpause() external onlyRole(PAUSER_ROLE) {\r\n        _unpause();\r\n    }\r\n\r\n    function _authorizeUpgrade(address) internal override onlyRole(accessManager.ADMIN_ROLE()) {\r\n\r\n    }\r\n}\r\n",
  "sourcePath": "C:\\Users\\jugli\\Desktop\\uno\\uno-contracts-bsc\\contracts\\test\\UnoAssetRouterPancakeswapV2.sol",
  "compiler": {
    "name": "solc",
    "version": "0.8.10+commit.fc410830.Emscripten.clang"
  },
  "schemaVersion": "3.4.11",
  "updatedAt": "2022-12-21T15:16:30.516Z",
  "devdoc": {
    "kind": "dev",
    "methods": {
      "constructor": {
        "custom:oz-upgrades-unsafe-allow": "constructor"
      },
      "deposit(address,uint256,uint256,uint256,uint256,address)": {
        "details": "Deposits tokens in the given pool. Creates new Farm contract if there isn't one deployed for the {lpPair} and deposits tokens in it. Emits a {Deposit} event.",
        "params": {
          "amountA": "- Token A amount to deposit.",
          "amountAMin": "- Bounds the extent to which the B/A price can go up before the transaction reverts.",
          "amountB": "-  Token B amount to deposit.",
          "amountBMin": "- Bounds the extent to which the A/B price can go up before the transaction reverts.",
          "lpPair": "- Address of the pool to deposit tokens in.",
          "recipient": "- Address which will receive the deposit."
        },
        "returns": {
          "liquidity": "- Total liquidity sent to the farm (in lpTokens).",
          "sentA": "- Token A amount sent to the farm.",
          "sentB": "- Token B amount sent to the farm."
        }
      },
      "depositETH(address,uint256,uint256,uint256,address)": {
        "details": "Autoconverts BNB into WBNB and deposits tokens in the given pool. Creates new Farm contract if there isn't one deployed for the {lpStakingPool} and deposits tokens in it. Emits a {Deposit} event.",
        "params": {
          "amountETHMin": "- Bounds the extent to which the WBNB/TOKEN price can go up before the transaction reverts.",
          "amountToken": "- Token amount to deposit.",
          "amountTokenMin": "- Bounds the extent to which the TOKEN/WBNB price can go up before the transaction reverts.",
          "lpPair": "- Address of the pool to deposit tokens in.",
          "recipient": "- Address which will receive the deposit."
        },
        "returns": {
          "liquidity": "- Total liquidity sent to the farm (in lpTokens).",
          "sentETH": "- WBNB amount sent to the farm.",
          "sentToken": "- Token amount sent to the farm."
        }
      },
      "depositLP(address,uint256,address)": {
        "details": "Deposits tokens in the given pool. Creates new Farm contract if there isn't one deployed for the {lpPair} and deposits tokens in it. Emits a {Deposit} event.",
        "params": {
          "amount": "- LP Token amount to deposit.",
          "lpPair": "- Address of the pool to deposit tokens in.",
          "recipient": "- Address which will receive the deposit."
        }
      },
      "depositSingleAsset(address,address,uint256,bytes[2],uint256,uint256,address)": {
        "details": "Deposits single token in the given pool. Creates new Farm contract if there isn't one deployed for the {lpPair}, swaps {token} for pool tokens and deposits them. Emits a {Deposit} event.",
        "params": {
          "amount": "- Amount of token sent.",
          "amountAMin": "- Bounds the extent to which the B/A price can go up before the transaction reverts.",
          "amountBMin": "- Bounds the extent to which the A/B price can go up before the transaction reverts.",
          "lpPair": "- Address of the pool to deposit tokens in.",
          "recipient": "- Address which will receive the deposit.",
          "swapData": "- Parameter with which 1inch router is being called with.",
          "token": "- Address of a token to enter the pool."
        },
        "returns": {
          "liquidity": "- Total liquidity sent to the farm (in lpTokens).",
          "sent": "- Total {token} amount sent to the farm. NOTE: Returns dust left from swap in {token}, but if A/B amounts are not correct also returns dust in pool's tokens."
        }
      },
      "depositSingleETH(address,bytes[2],uint256,uint256,address)": {
        "details": "Deposits single MATIC in the given pool. Creates new Farm contract if there isn't one deployed for the {lpPair}, swaps MATIC for pool tokens and deposits them. Emits a {Deposit} event.",
        "params": {
          "amountAMin": "- Bounds the extent to which the B/A price can go up before the transaction reverts.",
          "amountBMin": "- Bounds the extent to which the A/B price can go up before the transaction reverts.",
          "lpPair": "- Address of the pool to deposit tokens in.",
          "recipient": "- Address which will receive the deposit.",
          "swapData": "- Parameter with which 1inch router is being called with."
        },
        "returns": {
          "liquidity": "- Total liquidity sent to the farm (in lpTokens).",
          "sentETH": "- Total MATIC amount sent to the farm. NOTE: Returns dust left from swap in MATIC, but if A/B amount are not correct also returns dust in pool's tokens."
        }
      },
      "distribute(address,(address[],uint256)[2],(address[],uint256),address)": {
        "details": "Distributes tokens between users.",
        "params": {
          "feeSwapInfo": "- Struct with token arrays describing swap route (rewardTokenToFeeToken, rewarderTokenToFeeToken) and minimum amounts of output tokens that must be received for the transaction not to revert.",
          "feeTo": "- Address to collect fees to. Note: This function can only be called by the distributor.",
          "lpPair": "- LP pool to distribute tokens in.",
          "swapInfos": "- Arrays of structs with token arrays describing swap routes (rewardTokenToTokenA, rewardTokenToTokenB, rewarderTokenToTokenA, rewarderTokenToTokenB) and minimum amounts of output tokens that must be received for the transaction not to revert."
        }
      },
      "getTokens(address)": {
        "details": "Returns addresses of tokens in {lpPair}.",
        "params": {
          "lpPair": "- LP pair to check tokens in."
        },
        "returns": {
          "tokens": "- Tokens addresses."
        }
      },
      "paused()": {
        "details": "Returns true if the contract is paused, and false otherwise."
      },
      "proxiableUUID()": {
        "details": "Implementation of the ERC1822 {proxiableUUID} function. This returns the storage slot used by the implementation. It is used to validate that the this implementation remains valid after an upgrade. IMPORTANT: A proxy pointing at a proxiable contract should not be considered proxiable itself, because this risks bricking a proxy that upgrades to it, by delegating to itself until out of gas. Thus it is critical that this function revert if invoked through a proxy. This is guaranteed by the `notDelegated` modifier."
      },
      "setFee(uint256)": {
        "details": "Change fee amount.",
        "params": {
          "_fee": "-New fee to collect from farms. [10^18 == 100%] Note: This function can only be called by ADMIN_ROLE."
        }
      },
      "totalDeposits(address)": {
        "details": "Returns total amount locked in the pool. Doesn't take pending rewards into account.",
        "params": {
          "lpPair": "- LP pool to check total deposits in."
        },
        "returns": {
          "totalDepositsA": "- Token A deposits.",
          "totalDepositsB": "- Token B deposits.",
          "totalDepositsLP": "- Total deposits (in LP tokens)."
        }
      },
      "upgradeTo(address)": {
        "details": "Upgrade the implementation of the proxy to `newImplementation`. Calls {_authorizeUpgrade}. Emits an {Upgraded} event."
      },
      "upgradeToAndCall(address,bytes)": {
        "details": "Upgrade the implementation of the proxy to `newImplementation`, and subsequently execute the function call encoded in `data`. Calls {_authorizeUpgrade}. Emits an {Upgraded} event."
      },
      "userStake(address,address)": {
        "details": "Returns tokens staked by the {_address} for the given {lpPair}.",
        "params": {
          "_address": "- The address to check stakes for.",
          "lpPair": "- LP pool to check stakes in."
        },
        "returns": {
          "stakeA": "- Token A stake.",
          "stakeB": "- Token B stake.",
          "stakeLP": "- Total user stake(in LP tokens)."
        }
      },
      "withdraw(address,uint256,uint256,uint256,bool,address)": {
        "details": "Withdraws tokens from the given pool. Emits a {Withdraw} event.",
        "params": {
          "amount": "- LP amount to withdraw. ",
          "amountAMin": "- The minimum amount of tokenA that must be received for the transaction not to revert.",
          "amountBMin": "- The minimum amount of tokenB that must be received for the transaction not to revert.",
          "lpPair": "- LP pool to withdraw from.",
          "recipient": "- The address which will receive tokens.",
          "withdrawLP": "- True: Withdraw in LP tokens, False: Withdraw in normal tokens."
        },
        "returns": {
          "amountA": "- Token A amount sent to the {recipient}, 0 if withdrawLP == false.",
          "amountB": "- Token B amount sent to the {recipient}, 0 if withdrawLP == false."
        }
      },
      "withdrawETH(address,uint256,uint256,uint256,address)": {
        "details": "Autoconverts WBNB into BNB and withdraws tokens from the pool. Emits a {Withdraw} event.",
        "params": {
          "amount": "- LP amount to withdraw. ",
          "amountETHMin": "- The minimum amount of BNB that must be received for the transaction not to revert.",
          "amountTokenMin": "- The minimum amount of token that must be received for the transaction not to revert.",
          "lpPair": "- LP pool to withdraw from.",
          "recipient": "- The address which will receive tokens."
        },
        "returns": {
          "amountETH": "- BNB amount sent to the {recipient}.",
          "amountToken": "- Token amount sent to the {recipient}."
        }
      }
    },
    "stateVariables": {
      "farmFactory": {
        "details": "Contract Variables: farmFactory - The contract that deploys new Farms and links them to {lpPair}s. accessManager - Role manager contract."
      }
    },
    "version": 1
  },
  "userdoc": {
    "kind": "user",
    "methods": {},
    "version": 1
  }
}