{
  "contractName": "UnoAutoStrategy",
  "abi": [
    {
      "anonymous": false,
      "inputs": [
        {
          "indexed": true,
          "internalType": "address",
          "name": "owner",
          "type": "address"
        },
        {
          "indexed": true,
          "internalType": "address",
          "name": "spender",
          "type": "address"
        },
        {
          "indexed": false,
          "internalType": "uint256",
          "name": "value",
          "type": "uint256"
        }
      ],
      "name": "Approval",
      "type": "event"
    },
    {
      "anonymous": false,
      "inputs": [
        {
          "indexed": true,
          "internalType": "uint256",
          "name": "poolID",
          "type": "uint256"
        },
        {
          "indexed": true,
          "internalType": "address",
          "name": "from",
          "type": "address"
        },
        {
          "indexed": true,
          "internalType": "address",
          "name": "recipient",
          "type": "address"
        },
        {
          "indexed": false,
          "internalType": "uint256",
          "name": "amountLP",
          "type": "uint256"
        }
      ],
      "name": "Deposit",
      "type": "event"
    },
    {
      "anonymous": false,
      "inputs": [
        {
          "indexed": false,
          "internalType": "uint8",
          "name": "version",
          "type": "uint8"
        }
      ],
      "name": "Initialized",
      "type": "event"
    },
    {
      "anonymous": false,
      "inputs": [
        {
          "indexed": true,
          "internalType": "uint256",
          "name": "previousPoolID",
          "type": "uint256"
        },
        {
          "indexed": true,
          "internalType": "uint256",
          "name": "nextPoolID",
          "type": "uint256"
        }
      ],
      "name": "MoveLiquidity",
      "type": "event"
    },
    {
      "anonymous": false,
      "inputs": [
        {
          "indexed": true,
          "internalType": "address",
          "name": "from",
          "type": "address"
        },
        {
          "indexed": true,
          "internalType": "address",
          "name": "to",
          "type": "address"
        },
        {
          "indexed": false,
          "internalType": "uint256",
          "name": "value",
          "type": "uint256"
        }
      ],
      "name": "Transfer",
      "type": "event"
    },
    {
      "anonymous": false,
      "inputs": [
        {
          "indexed": true,
          "internalType": "uint256",
          "name": "poolID",
          "type": "uint256"
        },
        {
          "indexed": true,
          "internalType": "address",
          "name": "from",
          "type": "address"
        },
        {
          "indexed": true,
          "internalType": "address",
          "name": "recipient",
          "type": "address"
        },
        {
          "indexed": false,
          "internalType": "uint256",
          "name": "amountLP",
          "type": "uint256"
        }
      ],
      "name": "Withdraw",
      "type": "event"
    },
    {
      "inputs": [],
      "name": "WMATIC",
      "outputs": [
        {
          "internalType": "address",
          "name": "",
          "type": "address"
        }
      ],
      "stateMutability": "view",
      "type": "function"
    },
    {
      "inputs": [],
      "name": "accessManager",
      "outputs": [
        {
          "internalType": "contract IUnoAccessManager",
          "name": "",
          "type": "address"
        }
      ],
      "stateMutability": "view",
      "type": "function"
    },
    {
      "inputs": [
        {
          "internalType": "address",
          "name": "owner",
          "type": "address"
        },
        {
          "internalType": "address",
          "name": "spender",
          "type": "address"
        }
      ],
      "name": "allowance",
      "outputs": [
        {
          "internalType": "uint256",
          "name": "",
          "type": "uint256"
        }
      ],
      "stateMutability": "view",
      "type": "function"
    },
    {
      "inputs": [
        {
          "internalType": "address",
          "name": "spender",
          "type": "address"
        },
        {
          "internalType": "uint256",
          "name": "amount",
          "type": "uint256"
        }
      ],
      "name": "approve",
      "outputs": [
        {
          "internalType": "bool",
          "name": "",
          "type": "bool"
        }
      ],
      "stateMutability": "nonpayable",
      "type": "function"
    },
    {
      "inputs": [
        {
          "internalType": "address",
          "name": "account",
          "type": "address"
        }
      ],
      "name": "balanceOf",
      "outputs": [
        {
          "internalType": "uint256",
          "name": "",
          "type": "uint256"
        }
      ],
      "stateMutability": "view",
      "type": "function"
    },
    {
      "inputs": [],
      "name": "decimals",
      "outputs": [
        {
          "internalType": "uint8",
          "name": "",
          "type": "uint8"
        }
      ],
      "stateMutability": "view",
      "type": "function"
    },
    {
      "inputs": [
        {
          "internalType": "address",
          "name": "spender",
          "type": "address"
        },
        {
          "internalType": "uint256",
          "name": "subtractedValue",
          "type": "uint256"
        }
      ],
      "name": "decreaseAllowance",
      "outputs": [
        {
          "internalType": "bool",
          "name": "",
          "type": "bool"
        }
      ],
      "stateMutability": "nonpayable",
      "type": "function"
    },
    {
      "inputs": [],
      "name": "factory",
      "outputs": [
        {
          "internalType": "contract IUnoAutoStrategyFactory",
          "name": "",
          "type": "address"
        }
      ],
      "stateMutability": "view",
      "type": "function"
    },
    {
      "inputs": [
        {
          "internalType": "address",
          "name": "spender",
          "type": "address"
        },
        {
          "internalType": "uint256",
          "name": "addedValue",
          "type": "uint256"
        }
      ],
      "name": "increaseAllowance",
      "outputs": [
        {
          "internalType": "bool",
          "name": "",
          "type": "bool"
        }
      ],
      "stateMutability": "nonpayable",
      "type": "function"
    },
    {
      "inputs": [],
      "name": "name",
      "outputs": [
        {
          "internalType": "string",
          "name": "",
          "type": "string"
        }
      ],
      "stateMutability": "view",
      "type": "function"
    },
    {
      "inputs": [],
      "name": "poolID",
      "outputs": [
        {
          "internalType": "uint256",
          "name": "",
          "type": "uint256"
        }
      ],
      "stateMutability": "view",
      "type": "function"
    },
    {
      "inputs": [
        {
          "internalType": "uint256",
          "name": "",
          "type": "uint256"
        }
      ],
      "name": "pools",
      "outputs": [
        {
          "internalType": "address",
          "name": "pool",
          "type": "address"
        },
        {
          "internalType": "contract IUnoAssetRouter",
          "name": "assetRouter",
          "type": "address"
        },
        {
          "internalType": "contract IERC20Upgradeable",
          "name": "tokenA",
          "type": "address"
        },
        {
          "internalType": "contract IERC20Upgradeable",
          "name": "tokenB",
          "type": "address"
        }
      ],
      "stateMutability": "view",
      "type": "function"
    },
    {
      "inputs": [],
      "name": "symbol",
      "outputs": [
        {
          "internalType": "string",
          "name": "",
          "type": "string"
        }
      ],
      "stateMutability": "view",
      "type": "function"
    },
    {
      "inputs": [],
      "name": "totalSupply",
      "outputs": [
        {
          "internalType": "uint256",
          "name": "",
          "type": "uint256"
        }
      ],
      "stateMutability": "view",
      "type": "function"
    },
    {
      "inputs": [
        {
          "internalType": "address",
          "name": "to",
          "type": "address"
        },
        {
          "internalType": "uint256",
          "name": "amount",
          "type": "uint256"
        }
      ],
      "name": "transfer",
      "outputs": [
        {
          "internalType": "bool",
          "name": "",
          "type": "bool"
        }
      ],
      "stateMutability": "nonpayable",
      "type": "function"
    },
    {
      "inputs": [
        {
          "internalType": "address",
          "name": "from",
          "type": "address"
        },
        {
          "internalType": "address",
          "name": "to",
          "type": "address"
        },
        {
          "internalType": "uint256",
          "name": "amount",
          "type": "uint256"
        }
      ],
      "name": "transferFrom",
      "outputs": [
        {
          "internalType": "bool",
          "name": "",
          "type": "bool"
        }
      ],
      "stateMutability": "nonpayable",
      "type": "function"
    },
    {
      "stateMutability": "payable",
      "type": "receive"
    },
    {
      "inputs": [
        {
          "components": [
            {
              "internalType": "address",
              "name": "pool",
              "type": "address"
            },
            {
              "internalType": "contract IUnoAssetRouter",
              "name": "assetRouter",
              "type": "address"
            }
          ],
          "internalType": "struct UnoAutoStrategy._PoolInfo[]",
          "name": "poolInfos",
          "type": "tuple[]"
        },
        {
          "internalType": "contract IUnoAccessManager",
          "name": "_accessManager",
          "type": "address"
        }
      ],
      "name": "initialize",
      "outputs": [],
      "stateMutability": "nonpayable",
      "type": "function"
    },
    {
      "inputs": [
        {
          "internalType": "uint256",
          "name": "pid",
          "type": "uint256"
        },
        {
          "internalType": "uint256",
          "name": "amountA",
          "type": "uint256"
        },
        {
          "internalType": "uint256",
          "name": "amountB",
          "type": "uint256"
        },
        {
          "internalType": "uint256",
          "name": "amountAMin",
          "type": "uint256"
        },
        {
          "internalType": "uint256",
          "name": "amountBMin",
          "type": "uint256"
        },
        {
          "internalType": "address",
          "name": "recipient",
          "type": "address"
        }
      ],
      "name": "deposit",
      "outputs": [
        {
          "internalType": "uint256",
          "name": "sentA",
          "type": "uint256"
        },
        {
          "internalType": "uint256",
          "name": "sentB",
          "type": "uint256"
        },
        {
          "internalType": "uint256",
          "name": "liquidity",
          "type": "uint256"
        }
      ],
      "stateMutability": "nonpayable",
      "type": "function"
    },
    {
      "inputs": [
        {
          "internalType": "uint256",
          "name": "pid",
          "type": "uint256"
        },
        {
          "internalType": "uint256",
          "name": "amountToken",
          "type": "uint256"
        },
        {
          "internalType": "uint256",
          "name": "amountTokenMin",
          "type": "uint256"
        },
        {
          "internalType": "uint256",
          "name": "amountETHMin",
          "type": "uint256"
        },
        {
          "internalType": "address",
          "name": "recipient",
          "type": "address"
        }
      ],
      "name": "depositETH",
      "outputs": [
        {
          "internalType": "uint256",
          "name": "sentToken",
          "type": "uint256"
        },
        {
          "internalType": "uint256",
          "name": "sentETH",
          "type": "uint256"
        },
        {
          "internalType": "uint256",
          "name": "liquidity",
          "type": "uint256"
        }
      ],
      "stateMutability": "payable",
      "type": "function"
    },
    {
      "inputs": [
        {
          "internalType": "uint256",
          "name": "pid",
          "type": "uint256"
        },
        {
          "internalType": "address",
          "name": "token",
          "type": "address"
        },
        {
          "internalType": "uint256",
          "name": "amount",
          "type": "uint256"
        },
        {
          "internalType": "bytes[2]",
          "name": "swapData",
          "type": "bytes[2]"
        },
        {
          "internalType": "uint256",
          "name": "amountAMin",
          "type": "uint256"
        },
        {
          "internalType": "uint256",
          "name": "amountBMin",
          "type": "uint256"
        },
        {
          "internalType": "address",
          "name": "recipient",
          "type": "address"
        }
      ],
      "name": "depositSingleAsset",
      "outputs": [
        {
          "internalType": "uint256",
          "name": "sent",
          "type": "uint256"
        },
        {
          "internalType": "uint256",
          "name": "liquidity",
          "type": "uint256"
        }
      ],
      "stateMutability": "nonpayable",
      "type": "function"
    },
    {
      "inputs": [
        {
          "internalType": "uint256",
          "name": "pid",
          "type": "uint256"
        },
        {
          "internalType": "bytes[2]",
          "name": "swapData",
          "type": "bytes[2]"
        },
        {
          "internalType": "uint256",
          "name": "amountAMin",
          "type": "uint256"
        },
        {
          "internalType": "uint256",
          "name": "amountBMin",
          "type": "uint256"
        },
        {
          "internalType": "address",
          "name": "recipient",
          "type": "address"
        }
      ],
      "name": "depositSingleETH",
      "outputs": [
        {
          "internalType": "uint256",
          "name": "sentETH",
          "type": "uint256"
        },
        {
          "internalType": "uint256",
          "name": "liquidity",
          "type": "uint256"
        }
      ],
      "stateMutability": "payable",
      "type": "function"
    },
    {
      "inputs": [
        {
          "internalType": "uint256",
          "name": "pid",
          "type": "uint256"
        },
        {
          "internalType": "uint256",
          "name": "liquidity",
          "type": "uint256"
        },
        {
          "internalType": "uint256",
          "name": "amountAMin",
          "type": "uint256"
        },
        {
          "internalType": "uint256",
          "name": "amountBMin",
          "type": "uint256"
        },
        {
          "internalType": "address",
          "name": "recipient",
          "type": "address"
        }
      ],
      "name": "withdraw",
      "outputs": [
        {
          "internalType": "uint256",
          "name": "amountA",
          "type": "uint256"
        },
        {
          "internalType": "uint256",
          "name": "amountB",
          "type": "uint256"
        }
      ],
      "stateMutability": "nonpayable",
      "type": "function"
    },
    {
      "inputs": [
        {
          "internalType": "uint256",
          "name": "pid",
          "type": "uint256"
        },
        {
          "internalType": "uint256",
          "name": "liquidity",
          "type": "uint256"
        },
        {
          "internalType": "uint256",
          "name": "amountTokenMin",
          "type": "uint256"
        },
        {
          "internalType": "uint256",
          "name": "amountETHMin",
          "type": "uint256"
        },
        {
          "internalType": "address",
          "name": "recipient",
          "type": "address"
        }
      ],
      "name": "withdrawETH",
      "outputs": [
        {
          "internalType": "uint256",
          "name": "amountToken",
          "type": "uint256"
        },
        {
          "internalType": "uint256",
          "name": "amountETH",
          "type": "uint256"
        }
      ],
      "stateMutability": "nonpayable",
      "type": "function"
    },
    {
      "inputs": [
        {
          "internalType": "uint256",
          "name": "pid",
          "type": "uint256"
        },
        {
          "internalType": "uint256",
          "name": "liquidity",
          "type": "uint256"
        },
        {
          "internalType": "address",
          "name": "token",
          "type": "address"
        },
        {
          "internalType": "bytes[2]",
          "name": "swapData",
          "type": "bytes[2]"
        },
        {
          "internalType": "address",
          "name": "recipient",
          "type": "address"
        }
      ],
      "name": "withdrawSingleAsset",
      "outputs": [
        {
          "internalType": "uint256",
          "name": "amountToken",
          "type": "uint256"
        },
        {
          "internalType": "uint256",
          "name": "amountA",
          "type": "uint256"
        },
        {
          "internalType": "uint256",
          "name": "amountB",
          "type": "uint256"
        }
      ],
      "stateMutability": "nonpayable",
      "type": "function"
    },
    {
      "inputs": [
        {
          "internalType": "uint256",
          "name": "pid",
          "type": "uint256"
        },
        {
          "internalType": "uint256",
          "name": "liquidity",
          "type": "uint256"
        },
        {
          "internalType": "bytes[2]",
          "name": "swapData",
          "type": "bytes[2]"
        },
        {
          "internalType": "address",
          "name": "recipient",
          "type": "address"
        }
      ],
      "name": "withdrawSingleETH",
      "outputs": [
        {
          "internalType": "uint256",
          "name": "amountETH",
          "type": "uint256"
        },
        {
          "internalType": "uint256",
          "name": "amountA",
          "type": "uint256"
        },
        {
          "internalType": "uint256",
          "name": "amountB",
          "type": "uint256"
        }
      ],
      "stateMutability": "nonpayable",
      "type": "function"
    },
    {
      "inputs": [
        {
          "internalType": "uint256",
          "name": "_poolID",
          "type": "uint256"
        },
        {
          "internalType": "bytes",
          "name": "swapAData",
          "type": "bytes"
        },
        {
          "internalType": "bytes",
          "name": "swapBData",
          "type": "bytes"
        },
        {
          "internalType": "uint256",
          "name": "amountAMin",
          "type": "uint256"
        },
        {
          "internalType": "uint256",
          "name": "amountBMin",
          "type": "uint256"
        }
      ],
      "name": "moveLiquidity",
      "outputs": [],
      "stateMutability": "nonpayable",
      "type": "function"
    },
    {
      "inputs": [
        {
          "internalType": "address",
          "name": "_address",
          "type": "address"
        }
      ],
      "name": "userStake",
      "outputs": [
        {
          "internalType": "uint256",
          "name": "stakeA",
          "type": "uint256"
        },
        {
          "internalType": "uint256",
          "name": "stakeB",
          "type": "uint256"
        },
        {
          "internalType": "uint256",
          "name": "leftoverA",
          "type": "uint256"
        },
        {
          "internalType": "uint256",
          "name": "leftoverB",
          "type": "uint256"
        }
      ],
      "stateMutability": "view",
      "type": "function"
    },
    {
      "inputs": [],
      "name": "totalDeposits",
      "outputs": [
        {
          "internalType": "uint256",
          "name": "totalDepositsA",
          "type": "uint256"
        },
        {
          "internalType": "uint256",
          "name": "totalDepositsB",
          "type": "uint256"
        }
      ],
      "stateMutability": "view",
      "type": "function"
    },
    {
      "inputs": [],
      "name": "poolsLength",
      "outputs": [
        {
          "internalType": "uint256",
          "name": "",
          "type": "uint256"
        }
      ],
      "stateMutability": "view",
      "type": "function"
    },
    {
      "inputs": [],
      "name": "tokens",
      "outputs": [
        {
          "internalType": "address",
          "name": "",
          "type": "address"
        },
        {
          "internalType": "address",
          "name": "",
          "type": "address"
        }
      ],
      "stateMutability": "view",
      "type": "function"
    }
  ],
  "bytecode": "0x608060405234801561001057600080fd5b5061595380620000216000396000f3fe6080604052600436106101d15760003560e01c806370a08231116100f7578063a457c2d711610095578063c94af0b311610064578063c94af0b3146105ac578063d473a654146105cc578063dd62ed3e146105ec578063fdcb60681461060c57600080fd5b8063a457c2d7146104f9578063a9059cbb14610519578063ac4afa3814610539578063c45a01551461058c57600080fd5b80638d934485116100d15780638d9344851461048b5780639130700e146104a157806395d89b41146104c15780639d63848a146104d657600080fd5b806370a082311461042057806374552fb6146104565780637d8820971461047657600080fd5b8063274679d51161016f5780634d95cad91161013e5780634d95cad91461035e5780634f68aa121461039e578063668393c7146103be57806368e5585d146103e057600080fd5b8063274679d5146102ef578063313ce56714610302578063395093511461031e5780634c55999f1461033e57600080fd5b80631c723b82116101ab5780631c723b821461025757806322604f741461028c57806323b872dd146102ba5780632716ae66146102da57600080fd5b806306fdde03146101dd578063095ea7b31461020857806318160ddd1461023857600080fd5b366101d857005b600080fd5b3480156101e957600080fd5b506101f261062c565b6040516101ff919061491f565b60405180910390f35b34801561021457600080fd5b5061022861022336600461494a565b6106be565b60405190151581526020016101ff565b34801561024457600080fd5b506035545b6040519081526020016101ff565b34801561026357600080fd5b50610277610272366004614976565b6106d8565b604080519283526020830191909152016101ff565b61029f61029a366004614976565b6109d5565b604080519384526020840192909252908201526060016101ff565b3480156102c657600080fd5b506102286102d53660046149c3565b610cce565b3480156102e657600080fd5b50609854610249565b6102776102fd366004614a15565b610cf4565b34801561030e57600080fd5b50604051601281526020016101ff565b34801561032a57600080fd5b5061022861033936600461494a565b611161565b34801561034a57600080fd5b5061029f610359366004614a75565b611183565b34801561036a57600080fd5b50610386730d500b1d8e8ef31e21c99d1db9a6444d3adf127081565b6040516001600160a01b0390911681526020016101ff565b3480156103aa57600080fd5b5061029f6103b9366004614ade565b6113db565b3480156103ca57600080fd5b506103de6103d9366004614b88565b611630565b005b3480156103ec57600080fd5b506104006103fb366004614c10565b6122b4565b6040805194855260208501939093529183015260608201526080016101ff565b34801561042c57600080fd5b5061024961043b366004614c10565b6001600160a01b031660009081526033602052604090205490565b34801561046257600080fd5b506103de610471366004614c2d565b6124cd565b34801561048257600080fd5b50610277612bbf565b34801561049757600080fd5b5061024960975481565b3480156104ad57600080fd5b5061029f6104bc366004614cb2565b612d8a565b3480156104cd57600080fd5b506101f261302e565b3480156104e257600080fd5b506104eb61303d565b6040516101ff929190614d07565b34801561050557600080fd5b5061022861051436600461494a565b6130b7565b34801561052557600080fd5b5061022861053436600461494a565b61313d565b34801561054557600080fd5b50610559610554366004614d21565b61314b565b604080516001600160a01b03958616815293851660208501529184169183019190915290911660608201526080016101ff565b34801561059857600080fd5b5060a154610386906001600160a01b031681565b3480156105b857600080fd5b506102776105c7366004614d3a565b613195565b3480156105d857600080fd5b506102776105e7366004614976565b613654565b3480156105f857600080fd5b50610249610607366004614dc4565b613889565b34801561061857600080fd5b5060a054610386906001600160a01b031681565b60606036805461063b90614dfd565b80601f016020809104026020016040519081016040528092919081815260200182805461066790614dfd565b80156106b45780601f10610689576101008083540402835291602001916106b4565b820191906000526020600020905b81548152906001019060200180831161069757829003601f168201915b5050505050905090565b6000336106cc8185856138b4565b60019150505b92915050565b60008060a160009054906101000a90046001600160a01b03166001600160a01b0316635c975abb6040518163ffffffff1660e01b8152600401602060405180830381865afa15801561072e573d6000803e3d6000fd5b505050506040513d601f19601f820116820180604052508101906107529190614e38565b156107785760405162461bcd60e51b815260040161076f90614e5a565b60405180910390fd5b6002606554141561079b5760405162461bcd60e51b815260040161076f90614e84565b600260655560975487146107c15760405162461bcd60e51b815260040161076f90614ebb565b60006098609754815481106107d8576107d8614ee0565b6000918252602080832060408051608081018252600490940290910180546001600160a01b0390811685526001820154811693850193909352600281015483169184019190915260030154166060820152915080610835866139d8565b9150915060006108448a613b77565b6020850151855160405163deb03f4d60e01b81529293506001600160a01b039091169163deb03f4d916108819185908e908e908e90600401614ef6565b60408051808303816000875af115801561089f573d6000803e3d6000fd5b505050506040513d601f19601f820116820180604052508101906108c39190614f26565b604086015191975095506001600160a01b0316730d500b1d8e8ef31e21c99d1db9a6444d3adf1270141561090e576108fb8386614f60565b94506109078287614f60565b955061098e565b60608401516001600160a01b0316730d500b1d8e8ef31e21c99d1db9a6444d3adf12701415610954576109418387614f60565b955061094d8286614f60565b945061098e565b60405162461bcd60e51b815260206004820152600f60248201526e1393d517d5d350551250d7d413d3d3608a1b604482015260640161076f565b6097546040518281526001600160a01b0389169133916000805160206158de833981519152906020015b60405180910390a450506001606555509197909650945050505050565b600080600060a160009054906101000a90046001600160a01b03166001600160a01b0316635c975abb6040518163ffffffff1660e01b8152600401602060405180830381865afa158015610a2d573d6000803e3d6000fd5b505050506040513d601f19601f82011682018060405250810190610a519190614e38565b15610a6e5760405162461bcd60e51b815260040161076f90614e5a565b60026065541415610a915760405162461bcd60e51b815260040161076f90614e84565b60026065556097548814610ab75760405162461bcd60e51b815260040161076f90614ebb565b6000609860975481548110610ace57610ace614ee0565b6000918252602080832060408051608081018252600490940290910180546001600160a01b039081168552600182015481169385019390935260028101548316918401829052600301549091166060830152909250730d500b1d8e8ef31e21c99d1db9a6444d3adf12701415610b4957506060810151610b79565b60608201516001600160a01b0316730d500b1d8e8ef31e21c99d1db9a6444d3adf12701415610954575060408101515b610b8e6001600160a01b03821633308c613cd5565b60208201518251604051633fbe902560e21b81526000926001600160a01b03169163fefa4094913491610bcb918f908f908f903090600401614ef6565b60606040518083038185885af1158015610be9573d6000803e3d6000fd5b50505050506040513d601f19601f82011682018060405250810190610c0e9190614f78565b91975095509050610c1e87613d40565b9350858a1115610c4757610c4733610c36888d614fa6565b6001600160a01b0385169190613ed3565b84341115610c8757336108fc610c5d8734614fa6565b6040518115909202916000818181858888f19350505050158015610c85573d6000803e3d6000fd5b505b6097546040518281526001600160a01b0389169133916000805160206158fe8339815191529060200160405180910390a45050506001606581905550955095509592505050565b600033610cdc858285613f08565b610ce7858585613f7c565b60019150505b9392505050565b60008060a160009054906101000a90046001600160a01b03166001600160a01b0316635c975abb6040518163ffffffff1660e01b8152600401602060405180830381865afa158015610d4a573d6000803e3d6000fd5b505050506040513d601f19601f82011682018060405250810190610d6e9190614e38565b15610d8b5760405162461bcd60e51b815260040161076f90614e5a565b60026065541415610dae5760405162461bcd60e51b815260040161076f90614e84565b60026065556097548714610dd45760405162461bcd60e51b815260040161076f90614ebb565b6000609860975481548110610deb57610deb614ee0565b6000918252602080832060408051608081018252600494850290920180546001600160a01b0390811684526001820154811694840194909452600281015484168383018190526003909101549093166060830152516370a0823160e01b815230938101939093529350906370a0823190602401602060405180830381865afa158015610e7b573d6000803e3d6000fd5b505050506040513d601f19601f82011682018060405250810190610e9f9190614fbd565b60608301516040516370a0823160e01b81523060048201529192506000916001600160a01b03909116906370a0823190602401602060405180830381865afa158015610eef573d6000803e3d6000fd5b505050506040513d601f19601f82011682018060405250810190610f139190614fbd565b9050600083602001516001600160a01b0316637d7956283486600001518d8d8d306040518763ffffffff1660e01b8152600401610f5495949392919061506b565b604080518083038185885af1158015610f71573d6000803e3d6000fd5b50505050506040513d601f19601f82011682018060405250810190610f969190614f26565b9096509050610fa487613d40565b9450336108fc610fb48834614fa6565b6040518115909202916000818181858888f19350505050158015610fdc573d6000803e3d6000fd5b5060408085015190516370a0823160e01b81523060048201526000916001600160a01b0316906370a0823190602401602060405180830381865afa158015611028573d6000803e3d6000fd5b505050506040513d601f19601f8201168201806040525081019061104c9190614fbd565b60608601516040516370a0823160e01b81523060048201529192506000916001600160a01b03909116906370a0823190602401602060405180830381865afa15801561109c573d6000803e3d6000fd5b505050506040513d601f19601f820116820180604052508101906110c09190614fbd565b9050848211156110ed576110ed336110d88785614fa6565b60408901516001600160a01b03169190613ed3565b8381111561111857611118336111038684614fa6565b60608901516001600160a01b03169190613ed3565b6097546040518481526001600160a01b038b169133916000805160206158fe8339815191529060200160405180910390a450505050505060016065819055509550959350505050565b6000336106cc8185856111748383613889565b61117e9190614f60565b6138b4565b600080600060a160009054906101000a90046001600160a01b03166001600160a01b0316635c975abb6040518163ffffffff1660e01b8152600401602060405180830381865afa1580156111db573d6000803e3d6000fd5b505050506040513d601f19601f820116820180604052508101906111ff9190614e38565b1561121c5760405162461bcd60e51b815260040161076f90614e5a565b6002606554141561123f5760405162461bcd60e51b815260040161076f90614e84565b600260655560975488146112655760405162461bcd60e51b815260040161076f90614ebb565b600060986097548154811061127c5761127c614ee0565b6000918252602080832060408051608081018252600490940290910180546001600160a01b03908116855260018201548116938501939093526002810154831691840191909152600301541660608201529150806112d9876139d8565b9150915060006112e88b613b77565b60208501518551604051630bc8957360e21b81529293506001600160a01b0390911691632f2255cc916113259185908f908f908f906004016150ac565b6060604051808303816000875af1158015611344573d6000803e3d6000fd5b505050506040513d601f19601f820116820180604052508101906113689190614f78565b919850965094506113798387614f60565b95506113858286614f60565b9450876001600160a01b0316336001600160a01b03166097546000805160206158de833981519152846040516113bd91815260200190565b60405180910390a45050600160655550929891975095509350505050565b600080600060a160009054906101000a90046001600160a01b03166001600160a01b0316635c975abb6040518163ffffffff1660e01b8152600401602060405180830381865afa158015611433573d6000803e3d6000fd5b505050506040513d601f19601f820116820180604052508101906114579190614e38565b156114745760405162461bcd60e51b815260040161076f90614e5a565b600260655414156114975760405162461bcd60e51b815260040161076f90614e84565b600260655560975487146114bd5760405162461bcd60e51b815260040161076f90614ebb565b60006098609754815481106114d4576114d4614ee0565b6000918252602080832060408051608081018252600490940290910180546001600160a01b0390811685526001820154811693850193909352600281015483169184019190915260030154166060820152915080611531876139d8565b9150915060006115408a613b77565b6020850151855160405163291d589b60e21b81529293506001600160a01b039091169163a475626c9161157b9185908e908e906004016150f1565b6060604051808303816000875af115801561159a573d6000803e3d6000fd5b505050506040513d601f19601f820116820180604052508101906115be9190614f78565b919850965094506115cf8387614f60565b95506115db8286614f60565b9450876001600160a01b0316336001600160a01b03166097546000805160206158de8339815191528460405161161391815260200190565b60405180910390a450506001606555509297919650945092505050565b60a160009054906101000a90046001600160a01b03166001600160a01b0316635c975abb6040518163ffffffff1660e01b8152600401602060405180830381865afa158015611683573d6000803e3d6000fd5b505050506040513d601f19601f820116820180604052508101906116a79190614e38565b156116c45760405162461bcd60e51b815260040161076f90614e5a565b600260655414156116e75760405162461bcd60e51b815260040161076f90614e84565b600260655560a054604051632474521560e21b81527f77e60b99a50d27fb027f6912a507d956105b4148adab27a86d235c8bcca8fa2f60048201523360248201526001600160a01b03909116906391d1485490604401602060405180830381865afa15801561175a573d6000803e3d6000fd5b505050506040513d601f19601f8201168201806040525081019061177e9190614e38565b6117ca5760405162461bcd60e51b815260206004820152601c60248201527f43414c4c45525f4e4f545f4c49515549444954595f4d414e4147455200000000604482015260640161076f565b6035546118085760405162461bcd60e51b815260206004820152600c60248201526b4e4f5f4c495155494449545960a01b604482015260640161076f565b609d5443141561185a5760405162461bcd60e51b815260206004820152601b60248201527f43414e545f43414c4c5f4f4e5f5448455f53414d455f424c4f434b0000000000604482015260640161076f565b6098548710801561186d57506097548714155b6118895760405162461bcd60e51b815260040161076f90614ebb565b60006098609754815481106118a0576118a0614ee0565b6000918252602080832060408051608081018252600490940290910180546001600160a01b039081168552600182015481169385019390935260028101548316918401919091526003015416606082015260988054919350908a90811061190957611909614ee0565b6000918252602080832060408051608081018252600494850290920180546001600160a01b039081168452600182015481168486015260028201548116848401526003909101548116606084015292870151875191516328dee51f60e11b8152929650909216926351bdca3e9261198292309201614d07565b606060405180830381865afa15801561199f573d6000803e3d6000fd5b505050506040513d601f19601f820116820180604052508101906119c39190614f78565b505060208401518451604051636c27fc2160e11b81529293506001600160a01b039091169163d84ff84291611a0391859060009081903090600401614ef6565b60408051808303816000875af1158015611a21573d6000803e3d6000fd5b505050506040513d601f19601f82011682018060405250810190611a459190614f26565b505060408084015190516370a0823160e01b81523060048201526000916001600160a01b0316906370a0823190602401602060405180830381865afa158015611a92573d6000803e3d6000fd5b505050506040513d601f19601f82011682018060405250810190611ab69190614fbd565b60608501516040516370a0823160e01b81523060048201529192506000916001600160a01b03909116906370a0823190602401602060405180830381865afa158015611b06573d6000803e3d6000fd5b505050506040513d601f19601f82011682018060405250810190611b2a9190614fbd565b905083604001516001600160a01b031685604001516001600160a01b031614611d915760008060008060008f8f6004908092611b689392919061512d565b810190611b75919061532f565b955095509550509450945084516001148015611b92575083516001145b611bde5760405162461bcd60e51b815260206004820152601860248201527f4241445f535741505f415f544f4b454e535f4c454e4754480000000000000000604482015260640161076f565b89604001516001600160a01b031685600081518110611bff57611bff614ee0565b6020026020010151600001516001600160a01b031614611c5a5760405162461bcd60e51b81526020600482015260166024820152752120a22fa9aba0a82fa0afa4a7282aaa2faa27a5a2a760511b604482015260640161076f565b88604001516001600160a01b031684600081518110611c7b57611c7b614ee0565b6020026020010151600001516001600160a01b031614611cdd5760405162461bcd60e51b815260206004820152601760248201527f4241445f535741505f415f4f55545055545f544f4b454e000000000000000000604482015260640161076f565b8685600081518110611cf157611cf1614ee0565b60209081029190910181015101526040516378bd22a360e11b815273a32ee1c40594249eb3183c10792bcf573d4da47c9063f17a454690611d42908890889060001990899089908990600401615536565b6000604051808303816000875af1158015611d61573d6000803e3d6000fd5b505050506040513d6000823e601f3d908101601f19168201604052611d89919081019061561d565b505050505050505b83606001516001600160a01b031685606001516001600160a01b031614611ff65760008060008060008d8d6004908092611dcd9392919061512d565b810190611dda919061532f565b955095509550509450945084516001148015611df7575083516001145b611e435760405162461bcd60e51b815260206004820152601860248201527f4241445f535741505f425f544f4b454e535f4c454e4754480000000000000000604482015260640161076f565b89606001516001600160a01b031685600081518110611e6457611e64614ee0565b6020026020010151600001516001600160a01b031614611ebf5760405162461bcd60e51b81526020600482015260166024820152752120a22fa9aba0a82fa12fa4a7282aaa2faa27a5a2a760511b604482015260640161076f565b88606001516001600160a01b031684600081518110611ee057611ee0614ee0565b6020026020010151600001516001600160a01b031614611f425760405162461bcd60e51b815260206004820152601760248201527f4241445f535741505f425f4f55545055545f544f4b454e000000000000000000604482015260640161076f565b8585600081518110611f5657611f56614ee0565b60209081029190910181015101526040516378bd22a360e11b815273a32ee1c40594249eb3183c10792bcf573d4da47c9063f17a454690611fa7908890889060001990899089908990600401615536565b6000604051808303816000875af1158015611fc6573d6000803e3d6000fd5b505050506040513d6000823e601f3d908101601f19168201604052611fee919081019061561d565b505050505050505b6020840151845160408087015190516370a0823160e01b81523060048201526001600160a01b0393841693636505e65e939216906370a0823190602401602060405180830381865afa158015612050573d6000803e3d6000fd5b505050506040513d601f19601f820116820180604052508101906120749190614fbd565b60608801516040516370a0823160e01b81523060048201526001600160a01b03909116906370a0823190602401602060405180830381865afa1580156120be573d6000803e3d6000fd5b505050506040513d601f19601f820116820180604052508101906120e29190614fbd565b8b8b306040518763ffffffff1660e01b8152600401612106969594939291906156b5565b6060604051808303816000875af1158015612125573d6000803e3d6000fd5b505050506040513d601f19601f820116820180604052508101906121499190614f78565b60995550506040805160808101808352918601516370a0823160e01b9092523060848201529081906001600160a01b03166370a0823160a48301602060405180830381865afa1580156121a0573d6000803e3d6000fd5b505050506040513d601f19601f820116820180604052508101906121c49190614fbd565b815260608601516040516370a0823160e01b81523060048201526020909201916001600160a01b03909116906370a0823190602401602060405180830381865afa158015612216573d6000803e3d6000fd5b505050506040513d601f19601f8201168201806040525081019061223a9190614fbd565b815260200161224860355490565b8152436020918201528151609a55810151609b55604080820151609c55606090910151609d5560975490518d91907faf62d6e59ad2e54c778a490827e6cb28b1d30794092c7367fdbb261b11de033690600090a350505060979890985550506001606555505050505050565b60008060008060006098609754815481106122d1576122d1614ee0565b6000918252602080832060408051608081018252600494850290920180546001600160a01b0390811680855260018301548216958501869052600283015482168585015260039092015416606084015290516328dee51f60e11b815291955084936351bdca3e92612346923092909101614d07565b606060405180830381865afa158015612363573d6000803e3d6000fd5b505050506040513d601f19601f820116820180604052508101906123879190614f78565b925092505060006123ad896001600160a01b031660009081526033602052604090205490565b905080156124c25760006123c060355490565b9050806123cd85846156ed565b6123d7919061570c565b9850806123e484846156ed565b6123ee919061570c565b336000908152609f60209081526040808320609d54845290915290205490985060ff1615801561241f5750609c5415155b156124c057609c54609a546001600160a01b038c166000908152609e60209081526040808320609d54845290915290205461245a9085614fa6565b61246491906156ed565b61246e919061570c565b609c54609b546001600160a01b038d166000908152609e60209081526040808320609d54845290915290205492995090916124a99085614fa6565b6124b391906156ed565b6124bd919061570c565b95505b505b505050509193509193565b60006124d96001614155565b905080156124f1576000805461ff0019166101001790555b60028310801590612503575060328311155b6125405760405162461bcd60e51b815260206004820152600e60248201526d10905117d413d3d317d0d3d5539560921b604482015260640161076f565b6125906040518060400160405280601081526020016f554e4f2d4175746f537472617465677960801b815250604051806040016040528060068152602001650554e4f2d4c560d41b8152506141e2565b612598614217565b60005b83811015612b455760008585838181106125b7576125b7614ee0565b90506040020160200160208101906125cf9190614c10565b6001600160a01b031663450efe218787858181106125ef576125ef614ee0565b6126059260206040909202019081019150614c10565b6040516001600160e01b031960e084901b1681526001600160a01b039091166004820152602401600060405180830381865afa158015612649573d6000803e3d6000fd5b505050506040513d6000823e601f3d908101601f19168201604052612671919081019061572e565b90506000604051806080016040528088888681811061269257612692614ee0565b6126a89260206040909202019081019150614c10565b6001600160a01b031681526020018888868181106126c8576126c8614ee0565b90506040020160200160208101906126e09190614c10565b6001600160a01b031681526020018360008151811061270157612701614ee0565b60200260200101516001600160a01b031681526020018360018151811061272a5761272a614ee0565b6020908102919091018101516001600160a01b0390811690925260988054600181018255600091909152835160049182027f2237a976fa961f5921fd19f2b03c925c725d77b20ce8f790c19709c03de4d814810180549286166001600160a01b0319938416179055928501517f2237a976fa961f5921fd19f2b03c925c725d77b20ce8f790c19709c03de4d815840180548287169084161790556040808701517f2237a976fa961f5921fd19f2b03c925c725d77b20ce8f790c19709c03de4d816860180549188169185168217905560608801517f2237a976fa961f5921fd19f2b03c925c725d77b20ce8f790c19709c03de4d81790960180549690971695909316949094179094559151636eb1769f60e11b8152939450909263dd62ed3e9261285692309201614d07565b602060405180830381865afa158015612873573d6000803e3d6000fd5b505050506040513d601f19601f820116820180604052508101906128979190614fbd565b6129a857604080820151905163095ea7b360e01b815273a32ee1c40594249eb3183c10792bcf573d4da47c600482015260001960248201526001600160a01b039091169063095ea7b3906044016020604051808303816000875af1158015612903573d6000803e3d6000fd5b505050506040513d601f19601f820116820180604052508101906129279190614e38565b506040808201516020830151915163095ea7b360e01b81526001600160a01b039283166004820152600019602482015291169063095ea7b3906044016020604051808303816000875af1158015612982573d6000803e3d6000fd5b505050506040513d601f19601f820116820180604052508101906129a69190614e38565b505b80606001516001600160a01b031663dd62ed3e3083602001516040518363ffffffff1660e01b81526004016129de929190614d07565b602060405180830381865afa1580156129fb573d6000803e3d6000fd5b505050506040513d601f19601f82011682018060405250810190612a1f9190614fbd565b612b3057606081015160405163095ea7b360e01b815273a32ee1c40594249eb3183c10792bcf573d4da47c600482015260001960248201526001600160a01b039091169063095ea7b3906044016020604051808303816000875af1158015612a8b573d6000803e3d6000fd5b505050506040513d601f19601f82011682018060405250810190612aaf9190614e38565b506060810151602082015160405163095ea7b360e01b81526001600160a01b039182166004820152600019602482015291169063095ea7b3906044016020604051808303816000875af1158015612b0a573d6000803e3d6000fd5b505050506040513d601f19601f82011682018060405250810190612b2e9190614e38565b505b50508080612b3d906157bc565b91505061259b565b5060a080546001600160a01b0384166001600160a01b03199182161790915543609d5560a18054909116331790558015612bb9576000805461ff0019169055604051600181527f7f26b83ff96e1f2b6a682f133852f6798a09c465da95921460cefb38474024989060200160405180910390a15b50505050565b6000806000609860975481548110612bd957612bd9614ee0565b600091825260209182902060408051608081018252600493840290920180546001600160a01b0390811680855260018301548216968501879052600283015482168585015260039092015416606084015290516328dee51f60e11b81529194506351bdca3e92612c4c9230929101614d07565b606060405180830381865afa158015612c69573d6000803e3d6000fd5b505050506040513d601f19601f82011682018060405250810190612c8d9190614f78565b60408481015190516370a0823160e01b81523060048201529296509094506001600160a01b031691506370a0823190602401602060405180830381865afa158015612cdc573d6000803e3d6000fd5b505050506040513d601f19601f82011682018060405250810190612d009190614fbd565b612d0a9084614f60565b60608201516040516370a0823160e01b81523060048201529194506001600160a01b0316906370a0823190602401602060405180830381865afa158015612d55573d6000803e3d6000fd5b505050506040513d601f19601f82011682018060405250810190612d799190614fbd565b612d839083614f60565b9150509091565b600080600060a160009054906101000a90046001600160a01b03166001600160a01b0316635c975abb6040518163ffffffff1660e01b8152600401602060405180830381865afa158015612de2573d6000803e3d6000fd5b505050506040513d601f19601f82011682018060405250810190612e069190614e38565b15612e235760405162461bcd60e51b815260040161076f90614e5a565b60026065541415612e465760405162461bcd60e51b815260040161076f90614e84565b60026065556097548914612e6c5760405162461bcd60e51b815260040161076f90614ebb565b6000609860975481548110612e8357612e83614ee0565b600091825260209182902060408051608081018252600490930290910180546001600160a01b0390811684526001820154811694840194909452600281015484169183018290526003015490921660608201529150612ee49033308c613cd5565b6060810151612efe906001600160a01b031633308b613cd5565b60208101518151604051633282f32f60e11b81526000926001600160a01b031691636505e65e91612f3c91908e908e908e908e9030906004016156b5565b6060604051808303816000875af1158015612f5b573d6000803e3d6000fd5b505050506040513d601f19601f82011682018060405250810190612f7f9190614f78565b91965094509050612f8f86613d40565b9250848a1115612fbc57612fbc33612fa7878d614fa6565b60408501516001600160a01b03169190613ed3565b83891115612fe757612fe733612fd2868c614fa6565b60608501516001600160a01b03169190613ed3565b6097546040518281526001600160a01b0388169133916000805160206158fe8339815191529060200160405180910390a45050600160658190555096509650969350505050565b60606037805461063b90614dfd565b600080600060986097548154811061305757613057614ee0565b600091825260209182902060408051608081018252600490930290910180546001600160a01b0390811684526001820154811694840194909452600281015484169183018290526003015490921660609091018190529094909350915050565b600033816130c58286613889565b9050838110156131255760405162461bcd60e51b815260206004820152602560248201527f45524332303a2064656372656173656420616c6c6f77616e63652062656c6f77604482015264207a65726f60d81b606482015260840161076f565b61313282868684036138b4565b506001949350505050565b6000336106cc818585613f7c565b6098818154811061315b57600080fd5b600091825260209091206004909102018054600182015460028301546003909301546001600160a01b039283169450908216928216911684565b60008060a160009054906101000a90046001600160a01b03166001600160a01b0316635c975abb6040518163ffffffff1660e01b8152600401602060405180830381865afa1580156131eb573d6000803e3d6000fd5b505050506040513d601f19601f8201168201806040525081019061320f9190614e38565b1561322c5760405162461bcd60e51b815260040161076f90614e5a565b6002606554141561324f5760405162461bcd60e51b815260040161076f90614e84565b600260655560975489146132755760405162461bcd60e51b815260040161076f90614ebb565b600060986097548154811061328c5761328c614ee0565b6000918252602080832060408051608081018252600494850290920180546001600160a01b0390811684526001820154811694840194909452600281015484168383018190526003909101549093166060830152516370a0823160e01b815230938101939093529350906370a0823190602401602060405180830381865afa15801561331c573d6000803e3d6000fd5b505050506040513d601f19601f820116820180604052508101906133409190614fbd565b60608301516040516370a0823160e01b81523060048201529192506000916001600160a01b03909116906370a0823190602401602060405180830381865afa158015613390573d6000803e3d6000fd5b505050506040513d601f19601f820116820180604052508101906133b49190614fbd565b90506133cb6001600160a01b038c1633308d613cd5565b602083015160405163095ea7b360e01b81526001600160a01b039182166004820152602481018c9052908c169063095ea7b3906044016020604051808303816000875af1158015613420573d6000803e3d6000fd5b505050506040513d601f19601f820116820180604052508101906134449190614e38565b50600083602001516001600160a01b0316636c2b551785600001518e8e8e8e8e306040518863ffffffff1660e01b815260040161348797969594939291906157d7565b60408051808303816000875af11580156134a5573d6000803e3d6000fd5b505050506040513d601f19601f820116820180604052508101906134c99190614f26565b90965090506134d787613d40565b94506134f8336134e7888e614fa6565b6001600160a01b038f169190613ed3565b60408085015190516370a0823160e01b81523060048201526000916001600160a01b0316906370a0823190602401602060405180830381865afa158015613543573d6000803e3d6000fd5b505050506040513d601f19601f820116820180604052508101906135679190614fbd565b60608601516040516370a0823160e01b81523060048201529192506000916001600160a01b03909116906370a0823190602401602060405180830381865afa1580156135b7573d6000803e3d6000fd5b505050506040513d601f19601f820116820180604052508101906135db9190614fbd565b9050848211156135f3576135f3336110d88785614fa6565b8381111561360957613609336111038684614fa6565b6097546040518481526001600160a01b038b169133916000805160206158fe8339815191529060200160405180910390a4505050505050600160658190555097509795505050505050565b60008060a160009054906101000a90046001600160a01b03166001600160a01b0316635c975abb6040518163ffffffff1660e01b8152600401602060405180830381865afa1580156136aa573d6000803e3d6000fd5b505050506040513d601f19601f820116820180604052508101906136ce9190614e38565b156136eb5760405162461bcd60e51b815260040161076f90614e5a565b6002606554141561370e5760405162461bcd60e51b815260040161076f90614e84565b600260655560975487146137345760405162461bcd60e51b815260040161076f90614ebb565b600060986097548154811061374b5761374b614ee0565b6000918252602080832060408051608081018252600490940290910180546001600160a01b03908116855260018201548116938501939093526002810154831691840191909152600301541660608201529150806137a8866139d8565b9150915060006137b78a613b77565b60208501518551604051636c27fc2160e11b81529293506001600160a01b039091169163d84ff842916137f49185908e908e908e90600401614ef6565b60408051808303816000875af1158015613812573d6000803e3d6000fd5b505050506040513d601f19601f820116820180604052508101906138369190614f26565b90965094506138458387614f60565b95506138518286614f60565b9450866001600160a01b0316336001600160a01b03166097546000805160206158de833981519152846040516109b891815260200190565b6001600160a01b03918216600090815260346020908152604080832093909416825291909152205490565b6001600160a01b0383166139165760405162461bcd60e51b8152602060048201526024808201527f45524332303a20617070726f76652066726f6d20746865207a65726f206164646044820152637265737360e01b606482015260840161076f565b6001600160a01b0382166139775760405162461bcd60e51b815260206004820152602260248201527f45524332303a20617070726f766520746f20746865207a65726f206164647265604482015261737360f01b606482015260840161076f565b6001600160a01b0383811660008181526034602090815260408083209487168084529482529182902085905590518481527f8c5be1e5ebec7d5bd14f71427d1e84f3dd0314c0f7b2291e5b200ac8c7c3b925910160405180910390a3505050565b336000908152609f60209081526040808320609d548452909152812054819060ff16613b7257609c5415613b4a576000609860975481548110613a1d57613a1d614ee0565b600091825260208083206040805160808101825260049490940290910180546001600160a01b03908116855260018201548116858501526002820154811685840152600390910154166060840152609c54609a5433808752609e8552838720609d5488528552838720549087526033909452919094205492945091613aa29190614fa6565b613aac91906156ed565b613ab6919061570c565b609c54609b54336000818152609e60209081526040808320609d548452825280832054938352603390915290205493965091929091613af491614fa6565b613afe91906156ed565b613b08919061570c565b91508215613b29576040810151613b29906001600160a01b03168585613ed3565b8115613b48576060810151613b48906001600160a01b03168584613ed3565b505b336000908152609f60209081526040808320609d5484529091529020805460ff191660011790555b915091565b600080609860975481548110613b8f57613b8f614ee0565b6000918252602080832060408051608081018252600494850290920180546001600160a01b0390811680855260018301548216958501869052600283015482168585015260039092015416606084015290516328dee51f60e11b815291955091926351bdca3e92613c0292309201614d07565b606060405180830381865afa158015613c1f573d6000803e3d6000fd5b505050506040513d601f19601f82011682018060405250810190613c439190614f78565b50509050613c5060355490565b613c5a82866156ed565b613c64919061570c565b925060008311613cb65760405162461bcd60e51b815260206004820152601d60248201527f494e53554646494349454e545f4c49515549444954595f4255524e4544000000604482015260640161076f565b613cc03385614248565b613cca8382614fa6565b609955509092915050565b6040516001600160a01b0380851660248301528316604482015260648101829052612bb99085906323b872dd60e01b906084015b60408051601f198184030181529190526020810180516001600160e01b03166001600160e01b0319909316929092179091526143a2565b600080609860975481548110613d5857613d58614ee0565b6000918252602080832060408051608081018252600494850290920180546001600160a01b0390811680855260018301548216958501869052600283015482168585015260039092015416606084015290516328dee51f60e11b815291955091926351bdca3e92613dcb92309201614d07565b606060405180830381865afa158015613de8573d6000803e3d6000fd5b505050506040513d601f19601f82011682018060405250810190613e0c9190614f78565b50509050600060995482613e209190614fa6565b90506000613e2d60355490565b905080613e5457613e406103e883614fa6565b9450613e4f60016103e8614474565b613e6e565b609954613e6182846156ed565b613e6b919061570c565b94505b60008511613ebe5760405162461bcd60e51b815260206004820152601d60248201527f494e53554646494349454e545f4c49515549444954595f4d494e544544000000604482015260640161076f565b613ec88686614474565b505060995550919050565b6040516001600160a01b038316602482015260448101829052613f0390849063a9059cbb60e01b90606401613d09565b505050565b6000613f148484613889565b90506000198114612bb95781811015613f6f5760405162461bcd60e51b815260206004820152601d60248201527f45524332303a20696e73756666696369656e7420616c6c6f77616e6365000000604482015260640161076f565b612bb984848484036138b4565b6001600160a01b038316613fe05760405162461bcd60e51b815260206004820152602560248201527f45524332303a207472616e736665722066726f6d20746865207a65726f206164604482015264647265737360d81b606482015260840161076f565b6001600160a01b0382166140425760405162461bcd60e51b815260206004820152602360248201527f45524332303a207472616e7366657220746f20746865207a65726f206164647260448201526265737360e81b606482015260840161076f565b61404d83838361455f565b6001600160a01b038316600090815260336020526040902054818110156140c55760405162461bcd60e51b815260206004820152602660248201527f45524332303a207472616e7366657220616d6f756e7420657863656564732062604482015265616c616e636560d01b606482015260840161076f565b6001600160a01b038085166000908152603360205260408082208585039055918516815290812080548492906140fc908490614f60565b92505081905550826001600160a01b0316846001600160a01b03167fddf252ad1be2c89b69c2b068fc378daa952ba7f163c4a11628f55a4df523b3ef8460405161414891815260200190565b60405180910390a3612bb9565b60008054610100900460ff161561419c578160ff1660011480156141785750303b155b6141945760405162461bcd60e51b815260040161076f90615828565b506000919050565b60005460ff8084169116106141c35760405162461bcd60e51b815260040161076f90615828565b506000805460ff191660ff92909216919091179055600190565b919050565b600054610100900460ff166142095760405162461bcd60e51b815260040161076f90615876565b6142138282614631565b5050565b600054610100900460ff1661423e5760405162461bcd60e51b815260040161076f90615876565b61424661467f565b565b6001600160a01b0382166142a85760405162461bcd60e51b815260206004820152602160248201527f45524332303a206275726e2066726f6d20746865207a65726f206164647265736044820152607360f81b606482015260840161076f565b6142b48260008361455f565b6001600160a01b038216600090815260336020526040902054818110156143285760405162461bcd60e51b815260206004820152602260248201527f45524332303a206275726e20616d6f756e7420657863656564732062616c616e604482015261636560f01b606482015260840161076f565b6001600160a01b0383166000908152603360205260408120838303905560358054849290614357908490614fa6565b90915550506040518281526000906001600160a01b038516907fddf252ad1be2c89b69c2b068fc378daa952ba7f163c4a11628f55a4df523b3ef9060200160405180910390a3505050565b60006143f7826040518060400160405280602081526020017f5361666545524332303a206c6f772d6c6576656c2063616c6c206661696c6564815250856001600160a01b03166146ad9092919063ffffffff16565b805190915015613f0357808060200190518101906144159190614e38565b613f035760405162461bcd60e51b815260206004820152602a60248201527f5361666545524332303a204552433230206f7065726174696f6e20646964206e6044820152691bdd081cdd58d8d9595960b21b606482015260840161076f565b6001600160a01b0382166144ca5760405162461bcd60e51b815260206004820152601f60248201527f45524332303a206d696e7420746f20746865207a65726f206164647265737300604482015260640161076f565b6144d66000838361455f565b80603560008282546144e89190614f60565b90915550506001600160a01b03821660009081526033602052604081208054839290614515908490614f60565b90915550506040518181526001600160a01b038316906000907fddf252ad1be2c89b69c2b068fc378daa952ba7f163c4a11628f55a4df523b3ef9060200160405180910390a35050565b6001600160a01b0383166000908152609e60209081526040808320609d5484529091529020548111156145b7576001600160a01b0383166000908152609e60209081526040808320609d5484529091528120556145f2565b6001600160a01b0383166000908152609e60209081526040808320609d548452909152812080548392906145ec908490614fa6565b90915550505b6001600160a01b0382166000908152609e60209081526040808320609d54845290915281208054839290614627908490614f60565b9091555050505050565b600054610100900460ff166146585760405162461bcd60e51b815260040161076f90615876565b815161466b90603690602085019061482e565b508051613f0390603790602084019061482e565b600054610100900460ff166146a65760405162461bcd60e51b815260040161076f90615876565b6001606555565b60606146bc84846000856146c4565b949350505050565b6060824710156147255760405162461bcd60e51b815260206004820152602660248201527f416464726573733a20696e73756666696369656e742062616c616e636520666f6044820152651c8818d85b1b60d21b606482015260840161076f565b6001600160a01b0385163b61477c5760405162461bcd60e51b815260206004820152601d60248201527f416464726573733a2063616c6c20746f206e6f6e2d636f6e7472616374000000604482015260640161076f565b600080866001600160a01b0316858760405161479891906158c1565b60006040518083038185875af1925050503d80600081146147d5576040519150601f19603f3d011682016040523d82523d6000602084013e6147da565b606091505b50915091506147ea8282866147f5565b979650505050505050565b60608315614804575081610ced565b8251156148145782518084602001fd5b8160405162461bcd60e51b815260040161076f919061491f565b82805461483a90614dfd565b90600052602060002090601f01602090048101928261485c57600085556148a2565b82601f1061487557805160ff19168380011785556148a2565b828001600101855582156148a2579182015b828111156148a2578251825591602001919060010190614887565b506148ae9291506148b2565b5090565b5b808211156148ae57600081556001016148b3565b60005b838110156148e25781810151838201526020016148ca565b83811115612bb95750506000910152565b6000815180845261490b8160208601602086016148c7565b601f01601f19169290920160200192915050565b602081526000610ced60208301846148f3565b6001600160a01b038116811461494757600080fd5b50565b6000806040838503121561495d57600080fd5b823561496881614932565b946020939093013593505050565b600080600080600060a0868803121561498e57600080fd5b8535945060208601359350604086013592506060860135915060808601356149b581614932565b809150509295509295909350565b6000806000606084860312156149d857600080fd5b83356149e381614932565b925060208401356149f381614932565b929592945050506040919091013590565b80604081018310156106d257600080fd5b600080600080600060a08688031215614a2d57600080fd5b8535945060208601356001600160401b03811115614a4a57600080fd5b614a5688828901614a04565b945050604086013592506060860135915060808601356149b581614932565b600080600080600060a08688031215614a8d57600080fd5b85359450602086013593506040860135614aa681614932565b925060608601356001600160401b03811115614ac157600080fd5b614acd88828901614a04565b92505060808601356149b581614932565b60008060008060808587031215614af457600080fd5b843593506020850135925060408501356001600160401b03811115614b1857600080fd5b614b2487828801614a04565b9250506060850135614b3581614932565b939692955090935050565b60008083601f840112614b5257600080fd5b5081356001600160401b03811115614b6957600080fd5b602083019150836020828501011115614b8157600080fd5b9250929050565b600080600080600080600060a0888a031215614ba357600080fd5b8735965060208801356001600160401b0380821115614bc157600080fd5b614bcd8b838c01614b40565b909850965060408a0135915080821115614be657600080fd5b50614bf38a828b01614b40565b989b979a5095989597966060870135966080013595509350505050565b600060208284031215614c2257600080fd5b8135610ced81614932565b600080600060408486031215614c4257600080fd5b83356001600160401b0380821115614c5957600080fd5b818601915086601f830112614c6d57600080fd5b813581811115614c7c57600080fd5b8760208260061b8501011115614c9157600080fd5b60209283019550935050840135614ca781614932565b809150509250925092565b60008060008060008060c08789031215614ccb57600080fd5b863595506020870135945060408701359350606087013592506080870135915060a0870135614cf981614932565b809150509295509295509295565b6001600160a01b0392831681529116602082015260400190565b600060208284031215614d3357600080fd5b5035919050565b600080600080600080600060e0888a031215614d5557600080fd5b873596506020880135614d6781614932565b95506040880135945060608801356001600160401b03811115614d8957600080fd5b614d958a828b01614a04565b9450506080880135925060a0880135915060c0880135614db481614932565b8091505092959891949750929550565b60008060408385031215614dd757600080fd5b8235614de281614932565b91506020830135614df281614932565b809150509250929050565b600181811c90821680614e1157607f821691505b60208210811415614e3257634e487b7160e01b600052602260045260246000fd5b50919050565b600060208284031215614e4a57600080fd5b81518015158114610ced57600080fd5b60208082526010908201526f14105554d05093114e8814105554d15160821b604082015260600190565b6020808252601f908201527f5265656e7472616e637947756172643a207265656e7472616e742063616c6c00604082015260600190565b6020808252600b908201526a10905117d413d3d317d25160aa1b604082015260600190565b634e487b7160e01b600052603260045260246000fd5b6001600160a01b039586168152602081019490945260408401929092526060830152909116608082015260a00190565b60008060408385031215614f3957600080fd5b505080516020909101519092909150565b634e487b7160e01b600052601160045260246000fd5b60008219821115614f7357614f73614f4a565b500190565b600080600060608486031215614f8d57600080fd5b8351925060208401519150604084015190509250925092565b600082821015614fb857614fb8614f4a565b500390565b600060208284031215614fcf57600080fd5b5051919050565b600082604081018360005b60028110156150605783830387528135601e1987360301811261500357600080fd5b8601803560206001600160401b0382111561501d57600080fd5b81360389131561502c57600080fd5b8186528181840182880137600086830182015298890198601f909101601f1916909401840193929092019150600101614fe1565b509095945050505050565b600060018060a01b03808816835260a0602084015261508d60a0840188614fd6565b6040840196909652606083019490945250911660809091015292915050565b600060018060a01b038088168352866020840152808616604084015260a060608401526150dc60a0840186614fd6565b91508084166080840152509695505050505050565b600060018060a01b038087168352856020840152608060408401526151196080840186614fd6565b915080841660608401525095945050505050565b6000808585111561513d57600080fd5b8386111561514a57600080fd5b5050820193919092039150565b634e487b7160e01b600052604160045260246000fd5b604051606081016001600160401b038111828210171561518f5761518f615157565b60405290565b604051608081016001600160401b038111828210171561518f5761518f615157565b604051601f8201601f191681016001600160401b03811182821017156151df576151df615157565b604052919050565b60006001600160401b0382111561520057615200615157565b5060051b60200190565b600082601f83011261521b57600080fd5b81356001600160401b0381111561523457615234615157565b615247601f8201601f19166020016151b7565b81815284602083860101111561525c57600080fd5b816020850160208301376000918101602001919091529392505050565b600082601f83011261528a57600080fd5b8135602061529f61529a836151e7565b6151b7565b828152606092830285018201928282019190878511156152be57600080fd5b8387015b858110156153175781818a0312156152da5760008081fd5b6152e261516d565b81356152ed81614932565b8152818601358682015260408083013561530681614932565b9082015284529284019281016152c2565b5090979650505050505050565b80356141dd81614932565b60008060008060008060c0878903121561534857600080fd5b6001600160401b038735111561535d57600080fd5b8635870188601f82011261537057600080fd5b61537d61529a82356151e7565b81358082526020808301929160051b8401018b101561539b57600080fd5b602083015b6020843560051b85010181101561545a576001600160401b03813511156153c657600080fd5b803584016080818e03601f190112156153de57600080fd5b6153e6615195565b6153f36020830135614932565b60208201358152604082013560208201526154116060830135614932565b606082013560408201526001600160401b036080830135111561543357600080fd5b6154468e6020608085013585010161520a565b6060820152845250602092830192016153a0565b50975050506001600160401b036020880135111561547757600080fd5b6154878860208901358901615279565b945060408701359350606087013592506154a360808801615324565b91506001600160401b0360a088013511156154bd57600080fd5b6154cd8860a0890135890161520a565b90509295509295509295565b600081518084526020808501945080840160005b8381101561552b57815180516001600160a01b03908116895284820151858a01526040918201511690880152606090960195908201906001016154ed565b509495945050505050565b600060c0820160c0835280895180835260e08501915060e08160051b86010192506020808c0160005b838110156155c55787860360df19018552815180516001600160a01b0390811688528482015185890152604080830151909116908801526060908101516080918801829052906155b1818901836148f3565b97505050938201939082019060010161555f565b5050858403818701525050506155db81896154d9565b90508660408401528560608401526155fe60808401866001600160a01b03169052565b82810360a084015261561081856148f3565b9998505050505050505050565b6000806040838503121561563057600080fd5b82516001600160401b0381111561564657600080fd5b8301601f8101851361565757600080fd5b8051602061566761529a836151e7565b82815260059290921b8301810191818101908884111561568657600080fd5b938201935b838510156156a45784518252938201939082019061568b565b969091015195979596505050505050565b6001600160a01b039687168152602081019590955260408501939093526060840191909152608083015290911660a082015260c00190565b600081600019048311821515161561570757615707614f4a565b500290565b60008261572957634e487b7160e01b600052601260045260246000fd5b500490565b6000602080838503121561574157600080fd5b82516001600160401b0381111561575757600080fd5b8301601f8101851361576857600080fd5b805161577661529a826151e7565b81815260059190911b8201830190838101908783111561579557600080fd5b928401925b828410156147ea5783516157ad81614932565b8252928401929084019061579a565b60006000198214156157d0576157d0614f4a565b5060010190565b600060018060a01b03808a168352808916602084015287604084015260e0606084015261580760e0840188614fd6565b608084019690965260a083019490945250911660c090910152949350505050565b6020808252602e908201527f496e697469616c697a61626c653a20636f6e747261637420697320616c72656160408201526d191e481a5b9a5d1a585b1a5e995960921b606082015260800190565b6020808252602b908201527f496e697469616c697a61626c653a20636f6e7472616374206973206e6f74206960408201526a6e697469616c697a696e6760a81b606082015260800190565b600082516158d38184602087016148c7565b919091019291505056fefeb2000dca3e617cd6f3a8bbb63014bb54a124aac6ccbf73ee7229b4cd01f1202c0f148b435140de488c1b34647f1511c646f7077e87007bacf22ef9977a16d8a264697066735822122098b1cf1995eb3bfa9a4d71b7e72e04bedd723b333e9eb64192eeae60e0838a6864736f6c634300080a0033",
  "immutableReferences": {},
  "source": "// SPDX-License-Identifier: MIT\r\npragma solidity 0.8.10;\r\nimport \"../interfaces/IOdosRouter.sol\";   \r\nimport \"../interfaces/IUnoAssetRouter.sol\";   \r\nimport \"../interfaces/IUnoAutoStrategyFactory.sol\";  \r\nimport '@openzeppelin/contracts-upgradeable/security/ReentrancyGuardUpgradeable.sol';\r\nimport '@openzeppelin/contracts-upgradeable/token/ERC20/ERC20Upgradeable.sol';\r\nimport '@openzeppelin/contracts-upgradeable/token/ERC20/utils/SafeERC20Upgradeable.sol';\r\n\r\ncontract UnoAutoStrategy is Initializable, ERC20Upgradeable, ReentrancyGuardUpgradeable {\r\n    using SafeERC20Upgradeable for IERC20Upgradeable;\r\n    /**\r\n     * @dev PoolInfo:\r\n     * {assetRouter} - UnoAssetRouter contract.\r\n     * {pool} - Pool address. \r\n     * {tokenA} - Pool's first token address.\r\n     * {tokenB} - Pool's second token address.\r\n     */\r\n    struct _PoolInfo {\r\n        address pool;\r\n        IUnoAssetRouter assetRouter;\r\n    }\r\n\r\n    struct PoolInfo {\r\n        address pool;\r\n        IUnoAssetRouter assetRouter;\r\n        IERC20Upgradeable tokenA;\r\n        IERC20Upgradeable tokenB;\r\n    }\r\n\r\n    /**\r\n     * @dev MoveLiquidityInfo:\r\n     * {leftoverA} - TokenA leftovers after MoveLiquidity() call.\r\n     * {leftoverB} - TokenB leftovers after MoveLiquidity() call. \r\n     * {totalSupply} - totalSupply after MoveLiquidity() call.\r\n     * {block} - MoveLiquidity() call block.\r\n     */\r\n    struct MoveLiquidityInfo {\r\n        uint256 leftoverA;\r\n        uint256 leftoverB;\r\n        uint256 totalSupply;\r\n        uint256 block;\r\n    }\r\n    \r\n    /**\r\n     * @dev Contract Variables:\r\n     * {OdosRouter} - Contract that executes swaps.\r\n\r\n     * {poolID} - Current pool the strategy uses ({pools} index).\r\n     * {pools} - Pools this strategy can use and move liquidity to.\r\n\r\n     * {reserveLP} - LP token reserve.\r\n     * {lastMoveInfo} - Info on last MoveLiquidity() block.\r\n     * {blockedLiquidty} - User's blocked LP tokens. Prevents user from stealing leftover tokens by depositing and exiting before moveLiquidity() has been called.\r\n     * {leftoversCollected} - Flag that prevents leftover token collection if they were already collected this MoveLiquidity() cycle.\r\n\r\n     * {accessManager} - Role manager contract.\r\n     * {factory} - The address of AutoStrategyFactory this contract was deployed by.\r\n\r\n     * {MINIMUM_LIQUIDITY} - Ameliorates rounding errors.\r\n     */\r\n\r\n    IOdosRouter private constant OdosRouter = IOdosRouter(0xa32EE1C40594249eb3183c10792BcF573D4Da47C);\r\n\r\n    uint256 public poolID;\r\n    PoolInfo[] public pools;\r\n\r\n    uint256 private reserveLP;\r\n    MoveLiquidityInfo private lastMoveInfo;\r\n    mapping(address => mapping(uint256 => uint256)) private blockedLiquidty;\r\n    mapping(address => mapping(uint256 => bool)) private leftoversCollected;\r\n\r\n    IUnoAccessManager public accessManager;\r\n    IUnoAutoStrategyFactory public factory;\r\n\r\n    uint256 private constant MINIMUM_LIQUIDITY = 10**3;\r\n    bytes32 private constant LIQUIDITY_MANAGER_ROLE = keccak256('LIQUIDITY_MANAGER_ROLE');\r\n    address public constant WMATIC = 0x0d500B1d8E8eF31E21C99d1Db9A6444d3ADf1270;\r\n\r\n    // Note: amountLP refers to LP tokens used in farms and staking pools, not UNO-LP this contract is.\r\n    // To get info for UNO-LP use mint/burn events\r\n    event Deposit(uint256 indexed poolID, address indexed from, address indexed recipient, uint256 amountLP);\r\n    event Withdraw(uint256 indexed poolID, address indexed from, address indexed recipient, uint256 amountLP);\r\n    event MoveLiquidity(uint256 indexed previousPoolID, uint256 indexed nextPoolID);\r\n\r\n    modifier whenNotPaused(){\r\n        require(factory.paused() == false, 'PAUSABLE: PAUSED');\r\n        _;\r\n    }\r\n\r\n    // ============ Methods ============\r\n\r\n    receive() external payable {}\r\n\r\n    function initialize(_PoolInfo[] calldata poolInfos, IUnoAccessManager _accessManager) external initializer {\r\n        require ((poolInfos.length >= 2) && (poolInfos.length <= 50), 'BAD_POOL_COUNT');\r\n\r\n        __ERC20_init(\"UNO-AutoStrategy\", \"UNO-LP\");\r\n        __ReentrancyGuard_init();\r\n        \r\n        for (uint256 i = 0; i < poolInfos.length; i++) {\r\n            address[] memory _tokens = IUnoAssetRouter(poolInfos[i].assetRouter).getTokens(poolInfos[i].pool);\r\n            PoolInfo memory pool = PoolInfo({\r\n                pool: poolInfos[i].pool,\r\n                assetRouter: poolInfos[i].assetRouter,\r\n                tokenA: IERC20Upgradeable(_tokens[0]),\r\n                tokenB: IERC20Upgradeable(_tokens[1])\r\n            });\r\n            pools.push(pool);\r\n\r\n            if (pool.tokenA.allowance(address(this), address(pool.assetRouter)) == 0) {\r\n                pool.tokenA.approve(address(OdosRouter), type(uint256).max);\r\n                pool.tokenA.approve(address(pool.assetRouter), type(uint256).max);\r\n            }\r\n            if (pool.tokenB.allowance(address(this), address(pool.assetRouter)) == 0) {\r\n                pool.tokenB.approve(address(OdosRouter), type(uint256).max);\r\n                pool.tokenB.approve(address(pool.assetRouter), type(uint256).max);\r\n            }\r\n        }\r\n\r\n        accessManager = _accessManager;\r\n        lastMoveInfo.block = block.number;\r\n        factory = IUnoAutoStrategyFactory(msg.sender);\r\n    }\r\n\r\n    /**\r\n     * @dev Deposits tokens in the pools[poolID] pool. Mints tokens representing user share. Emits {Deposit} event.\r\n     * @param pid - Current poolID. Throws revert if moveLiquidity() has been called before the transaction has been mined.\r\n     * @param amountA - Token A amount to deposit.\r\n     * @param amountB  - Token B amount to deposit.\r\n     * @param amountAMin - Bounds the extent to which the B/A price can go up before the transaction reverts.\r\n     * @param amountBMin - Bounds the extent to which the A/B price can go up before the transaction reverts.\r\n     * @param recipient - Address which will receive the deposit.\r\n     \r\n     * @return sentA - Deposited token A amount.\r\n     * @return sentB - Deposited token B amount.\r\n     * @return liquidity - Total liquidity minted for the {recipient}.\r\n     */\r\n    function deposit(uint256 pid, uint256 amountA, uint256 amountB, uint256 amountAMin, uint256 amountBMin, address recipient) whenNotPaused nonReentrant external returns (uint256 sentA, uint256 sentB, uint256 liquidity) {\r\n        require (pid == poolID, 'BAD_POOL_ID');\r\n        PoolInfo memory pool = pools[poolID];\r\n\r\n        pool.tokenA.safeTransferFrom(msg.sender, address(this), amountA);\r\n        pool.tokenB.safeTransferFrom(msg.sender, address(this), amountB);\r\n\r\n        uint256 amountLP;\r\n        (sentA, sentB, amountLP) = pool.assetRouter.deposit(pool.pool, amountA, amountB, amountAMin, amountBMin, address(this));\r\n        liquidity = mint(recipient);\r\n\r\n        if(amountA > sentA){\r\n            pool.tokenA.safeTransfer(msg.sender, amountA - sentA);\r\n        }\r\n        if(amountB > sentB){\r\n            pool.tokenB.safeTransfer(msg.sender, amountB - sentB);\r\n        }\r\n\r\n        emit Deposit(poolID, msg.sender, recipient, amountLP); \r\n    }\r\n\r\n    /**\r\n     * @dev Deposits tokens in the pools[poolID] pool. Mints tokens representing user share. Emits {Deposit} event.\r\n     * @param pid - Current poolID. Throws revert if moveLiquidity() has been called before the transaction has been mined.\r\n     * @param amountToken - Token amount to deposit.\r\n     * @param amountTokenMin - Bounds the extent to which the TOKEN/WMATIC price can go up before the transaction reverts.\r\n     * @param amountETHMin - Bounds the extent to which the WMATIC/TOKEN price can go up before the transaction reverts.\r\n     * @param recipient - Address which will receive the deposit.\r\n     \r\n     * @return sentToken - Deposited token amount.\r\n     * @return sentETH - Deposited ETH amount.\r\n     * @return liquidity - Total liquidity minted for the {recipient}.\r\n     */\r\n    function depositETH(uint256 pid, uint256 amountToken, uint256 amountTokenMin, uint256 amountETHMin, address recipient) whenNotPaused nonReentrant external payable returns (uint256 sentToken, uint256 sentETH, uint256 liquidity) {\r\n        require (pid == poolID, 'BAD_POOL_ID');\r\n        PoolInfo memory pool = pools[poolID];\r\n\r\n        IERC20Upgradeable token;\r\n        if (address(pool.tokenA) == WMATIC) {\r\n            token = pool.tokenB;\r\n        } else if (address(pool.tokenB) == WMATIC) {\r\n            token = pool.tokenA;\r\n        } else {\r\n            revert(\"NOT_WMATIC_POOL\");\r\n        }\r\n        token.safeTransferFrom(msg.sender, address(this), amountToken);\r\n\r\n        uint256 amountLP;\r\n        (sentToken, sentETH, amountLP) = pool.assetRouter.depositETH{value: msg.value}(pool.pool, amountToken, amountTokenMin, amountETHMin, address(this));\r\n        liquidity = mint(recipient);\r\n\r\n        if(amountToken > sentToken){\r\n            token.safeTransfer(msg.sender, amountToken - sentToken);\r\n        }\r\n        if(msg.value > sentETH){\r\n            payable(msg.sender).transfer(msg.value - sentETH);\r\n        }\r\n        emit Deposit(poolID, msg.sender, recipient, amountLP); \r\n    }\r\n\r\n    /**\r\n     * @dev Deposits tokens in the pools[poolID] pool. Mints tokens representing user share. Emits {Deposit} event.\r\n     * @param pid - Current poolID. Throws revert if moveLiquidity() has been called before the transaction has been mined.\r\n     * @param token - Token to deposit.\r\n     * @param amount - {token} amount to deposit.\r\n     * @param swapData - Parameter with which 1inch router is being called with.\r\n     * @param amountAMin - Bounds the extent to which the B/A price can go up before the transaction reverts.\r\n     * @param amountBMin - Bounds the extent to which the A/B price can go up before the transaction reverts.\r\n     * @param recipient - Address which will receive the deposit.\r\n     \r\n     * @return sent - Total {token} amount sent to the farm. NOTE: Returns dust left from swap in {token}, but if A/B amounts are not correct also returns dust in pool's tokens.\r\n     * @return liquidity - Total liquidity minted for the {recipient}.\r\n     */\r\n    function depositSingleAsset(uint256 pid, address token, uint256 amount, bytes[2] calldata swapData, uint256 amountAMin, uint256 amountBMin, address recipient) whenNotPaused nonReentrant external returns (uint256 sent, uint256 liquidity) {\r\n        require (pid == poolID, 'BAD_POOL_ID');\r\n        PoolInfo memory pool = pools[poolID];\r\n\r\n        uint256 balanceA = pool.tokenA.balanceOf(address(this));\r\n        uint256 balanceB = pool.tokenB.balanceOf(address(this));\r\n\r\n        IERC20Upgradeable(token).safeTransferFrom(msg.sender, address(this), amount);\r\n        IERC20Upgradeable(token).approve(address(pool.assetRouter), amount);\r\n\r\n        uint256 amountLP;\r\n        (sent, amountLP) = pool.assetRouter.depositSingleAsset(pool.pool, token, amount, swapData, amountAMin, amountBMin, address(this));\r\n        liquidity = mint(recipient);\r\n\r\n        IERC20Upgradeable(token).safeTransfer(msg.sender, amount - sent);\r\n        uint256 _balanceA = pool.tokenA.balanceOf(address(this));\r\n        uint256 _balanceB = pool.tokenB.balanceOf(address(this));\r\n        if(_balanceA > balanceA){\r\n            pool.tokenA.safeTransfer(msg.sender, _balanceA - balanceA);\r\n        }\r\n        if(_balanceB > balanceB){\r\n            pool.tokenB.safeTransfer(msg.sender, _balanceB - balanceB);\r\n        }\r\n\r\n        emit Deposit(poolID, msg.sender, recipient, amountLP);\r\n    }\r\n\r\n    /**\r\n     * @dev Deposits tokens in the pools[poolID] pool. Mints tokens representing user share. Emits {Deposit} event.\r\n     * @param pid - Current poolID. Throws revert if moveLiquidity() has been called before the transaction has been mined.\r\n     * @param swapData - Parameter with which 1inch router is being called with. NOTE: Use WMATIC as toToken.\r\n     * @param amountAMin - Bounds the extent to which the B/A price can go up before the transaction reverts.\r\n     * @param amountBMin - Bounds the extent to which the A/B price can go up before the transaction reverts.\r\n     * @param recipient - Address which will receive the deposit.\r\n     \r\n     * @return sentETH - Total MATIC amount sent to the farm. NOTE: Returns dust left from swap in MATIC, but if A/B amount are not correct also returns dust in pool's tokens.\r\n     * @return liquidity - Total liquidity minted for the {recipient}.\r\n     */\r\n    function depositSingleETH(uint256 pid, bytes[2] calldata swapData, uint256 amountAMin, uint256 amountBMin, address recipient) whenNotPaused nonReentrant external payable returns (uint256 sentETH, uint256 liquidity) {\r\n        require (pid == poolID, 'BAD_POOL_ID');\r\n        PoolInfo memory pool = pools[poolID];\r\n\r\n        uint256 balanceA = pool.tokenA.balanceOf(address(this));\r\n        uint256 balanceB = pool.tokenB.balanceOf(address(this));\r\n\r\n        uint256 amountLP;\r\n        (sentETH, amountLP) = pool.assetRouter.depositSingleETH{value: msg.value}(pool.pool, swapData, amountAMin, amountBMin, address(this));\r\n        liquidity = mint(recipient);\r\n\r\n        payable(msg.sender).transfer(msg.value - sentETH);\r\n        uint256 _balanceA = pool.tokenA.balanceOf(address(this));\r\n        uint256 _balanceB = pool.tokenB.balanceOf(address(this));\r\n        if(_balanceA > balanceA){\r\n            pool.tokenA.safeTransfer(msg.sender, _balanceA - balanceA);\r\n        }\r\n        if(_balanceB > balanceB){\r\n            pool.tokenB.safeTransfer(msg.sender, _balanceB - balanceB);\r\n        }\r\n\r\n        emit Deposit(poolID, msg.sender, recipient, amountLP); \r\n    }\r\n\r\n    /**\r\n     * @dev Withdraws tokens from the {pools[poolID]} pool and sends them to the recipient. Burns tokens representing user share. Emits {Withdraw} event.\r\n     * @param pid - Current poolID. Throws revert if moveLiquidity() has been called before the transaction has been mined.\r\n     * @param liquidity - Liquidity to burn from this user.\r\n     * @param amountAMin - The minimum amount of tokenA that must be received from the pool for the transaction not to revert.\r\n     * @param amountBMin - The minimum amount of tokenB that must be received from the pool for the transaction not to revert.\r\n     * @param recipient - Address which will receive withdrawn tokens.\r\n     \r\n     * @return amountA - Token A amount sent to the {recipient}.\r\n     * @return amountB - Token B amount sent to the {recipient}.\r\n     */\r\n    function withdraw(uint256 pid, uint256 liquidity, uint256 amountAMin, uint256 amountBMin, address recipient) whenNotPaused nonReentrant external returns (uint256 amountA, uint256 amountB) {\r\n        require (pid == poolID, 'BAD_POOL_ID');\r\n        PoolInfo memory pool = pools[poolID];\r\n\r\n        (uint256 leftoverA, uint256 leftoverB) = collectLeftovers(recipient);\r\n\r\n        uint256 amountLP = burn(liquidity);\r\n        (amountA, amountB) = pool.assetRouter.withdraw(pool.pool, amountLP, amountAMin, amountBMin, recipient);\r\n\r\n        amountA += leftoverA;\r\n        amountB += leftoverB;\r\n\r\n        emit Withdraw(poolID, msg.sender, recipient, amountLP); \r\n    }\r\n\r\n    /**\r\n     * @dev Withdraws tokens from the {pools[poolID]} pool and sends them to the recipient. Burns tokens representing user share. Emits {Withdraw} event.\r\n     * @param pid - Current poolID. Throws revert if moveLiquidity() has been called before the transaction has been mined.\r\n     * @param liquidity - Liquidity to burn from this user.\r\n     * @param amountTokenMin - The minimum amount of tokenA that must be received from the pool for the transaction not to revert.\r\n     * @param amountETHMin - The minimum amount of tokenB that must be received from the pool for the transaction not to revert.\r\n     * @param recipient - Address which will receive withdrawn tokens.\r\n     \r\n     * @return amountToken - Token amount sent to the {recipient}.\r\n     * @return amountETH - MATIC amount sent to the {recipient}.\r\n     */\r\n    function withdrawETH(uint256 pid, uint256 liquidity, uint256 amountTokenMin, uint256 amountETHMin, address recipient) whenNotPaused nonReentrant external returns (uint256 amountToken, uint256 amountETH) {\r\n        require (pid == poolID, 'BAD_POOL_ID');\r\n        PoolInfo memory pool = pools[poolID];\r\n\r\n        (uint256 leftoverA, uint256 leftoverB) = collectLeftovers(recipient);\r\n\r\n        uint256 amountLP = burn(liquidity);\r\n        (amountToken, amountETH) = pool.assetRouter.withdrawETH(pool.pool, amountLP, amountTokenMin, amountETHMin, recipient);\r\n\r\n        if (address(pool.tokenA) == WMATIC) {\r\n            amountETH += leftoverA;\r\n            amountToken += leftoverB;\r\n        } else if (address(pool.tokenB) == WMATIC) {\r\n            amountToken += leftoverA;\r\n            amountETH += leftoverB;\r\n        } else {\r\n            revert(\"NOT_WMATIC_POOL\");\r\n        }\r\n        emit Withdraw(poolID, msg.sender, recipient, amountLP); \r\n    }\r\n\r\n    /**\r\n     * @dev Withdraws tokens from the {pools[poolID]} pool and sends them to the recipient. Burns tokens representing user share. Emits {Withdraw} event.\r\n     * @param pid - Current poolID. Throws revert if moveLiquidity() has been called before the transaction has been mined.\r\n     * @param liquidity - Liquidity to burn from this user.\r\n     * @param token - Address of a token to exit the pool with.\r\n     * @param swapData - Parameter with which 1inch router is being called with.\r\n     * @param recipient - Address which will receive withdrawn tokens.\r\n     \r\n     * @return amountToken - {token} amount sent to the {recipient}.\r\n     * @return amountA - Token A dust sent to the {recipient}.\r\n     * @return amountB - Token B dust sent to the {recipient}.\r\n     */\r\n    function withdrawSingleAsset(uint256 pid, uint256 liquidity, address token, bytes[2] calldata swapData, address recipient) whenNotPaused nonReentrant external returns (uint256 amountToken, uint256 amountA, uint256 amountB) {\r\n        require (pid == poolID, 'BAD_POOL_ID');\r\n        PoolInfo memory pool = pools[poolID];\r\n\r\n        (uint256 leftoverA, uint256 leftoverB) = collectLeftovers(recipient);\r\n\r\n        uint256 amountLP = burn(liquidity);\r\n        (amountToken, amountA, amountB) = pool.assetRouter.withdrawSingleAsset(pool.pool, amountLP, token, swapData, recipient);\r\n\r\n        amountA += leftoverA;\r\n        amountB += leftoverB;\r\n\r\n        emit Withdraw(poolID, msg.sender, recipient, amountLP); \r\n    }\r\n\r\n    /**\r\n     * @dev Withdraws tokens from the {pools[poolID]} pool and sends them to the recipient. Burns tokens representing user share. Emits {Withdraw} event.\r\n     * @param pid - Current poolID. Throws revert if moveLiquidity() has been called before the transaction has been mined.\r\n     * @param liquidity - Liquidity to burn from this user.\r\n     * @param swapData - Parameter with which 1inch router is being called with.\r\n     * @param recipient - Address which will receive withdrawn tokens.\r\n     \r\n     * @return amountETH - MATIC amount sent to the {recipient}.\r\n     * @return amountA - Token A dust sent to the {recipient}.\r\n     * @return amountB - Token B dust sent to the {recipient}.\r\n     */\r\n    function withdrawSingleETH(uint256 pid, uint256 liquidity, bytes[2] calldata swapData, address recipient) whenNotPaused nonReentrant external returns (uint256 amountETH, uint256 amountA, uint256 amountB) {\r\n        require (pid == poolID, 'BAD_POOL_ID');\r\n        PoolInfo memory pool = pools[poolID];\r\n\r\n        (uint256 leftoverA, uint256 leftoverB) = collectLeftovers(recipient);\r\n\r\n        uint256 amountLP = burn(liquidity);\r\n        (amountETH, amountA, amountB) = pool.assetRouter.withdrawSingleETH(pool.pool, amountLP, swapData, recipient);\r\n\r\n        amountA += leftoverA;\r\n        amountB += leftoverB;\r\n\r\n        emit Withdraw(poolID, msg.sender, recipient, amountLP); \r\n    }\r\n\r\n    /**\r\n     * @dev Collects leftover tokens left from moveLiquidity() function.\r\n     * @param recipient - Address which will receive leftover tokens.\r\n     \r\n     * @return leftoverA - Token A amount sent to the {recipient}.\r\n     * @return leftoverB - Token B amount sent to the {recipient}.\r\n     */\r\n    function collectLeftovers(address recipient) internal returns (uint256 leftoverA, uint256 leftoverB){\r\n        if(!leftoversCollected[msg.sender][lastMoveInfo.block]){\r\n            if(lastMoveInfo.totalSupply != 0){\r\n                PoolInfo memory pool = pools[poolID];\r\n                leftoverA = (balanceOf(msg.sender) - blockedLiquidty[msg.sender][lastMoveInfo.block]) * lastMoveInfo.leftoverA / lastMoveInfo.totalSupply;\r\n                leftoverB = (balanceOf(msg.sender) - blockedLiquidty[msg.sender][lastMoveInfo.block]) * lastMoveInfo.leftoverB / lastMoveInfo.totalSupply;\r\n\r\n                if(leftoverA > 0){\r\n                    pool.tokenA.safeTransfer(recipient, leftoverA);\r\n                }\r\n                if(leftoverB > 0){\r\n                    pool.tokenB.safeTransfer(recipient, leftoverB);\r\n                }\r\n            }\r\n\r\n            leftoversCollected[msg.sender][lastMoveInfo.block] = true;\r\n        }\r\n    }\r\n\r\n    /**\r\n     * @dev Moves liquidity from {pools[poolID]} to {pools[_poolID]}. Emits {MoveLiquidity} event.\r\n     * @param _poolID - Pool ID to move liquidity to.\r\n     * @param swapAData - Data for tokenA swap.\r\n     * @param swapBData - Data for tokenB swap.\r\n     * @param amountAMin - The minimum amount of tokenA that must be deposited in {pools[_poolID]} for the transaction not to revert.\r\n     * @param amountBMin - The minimum amount of tokenB that must be deposited in {pools[_poolID]} for the transaction not to revert.\r\n     *\r\n     * Note: This function can only be called by LiquidityManager.\r\n     */\r\n    function moveLiquidity(uint256 _poolID, bytes calldata swapAData, bytes calldata swapBData, uint256 amountAMin, uint256 amountBMin) whenNotPaused nonReentrant external {\r\n        require(accessManager.hasRole(LIQUIDITY_MANAGER_ROLE, msg.sender), 'CALLER_NOT_LIQUIDITY_MANAGER');\r\n        require(totalSupply() != 0, 'NO_LIQUIDITY');\r\n        require(lastMoveInfo.block != block.number, 'CANT_CALL_ON_THE_SAME_BLOCK');\r\n        require((_poolID < pools.length) && (_poolID != poolID), 'BAD_POOL_ID');\r\n\r\n        PoolInfo memory currentPool = pools[poolID];\r\n        PoolInfo memory newPool = pools[_poolID];\r\n\r\n        (uint256 _totalDeposits,,) = currentPool.assetRouter.userStake(address(this), currentPool.pool);\r\n        currentPool.assetRouter.withdraw(currentPool.pool, _totalDeposits, 0, 0, address(this));\r\n\r\n        uint256 tokenABalance = currentPool.tokenA.balanceOf(address(this));\r\n        uint256 tokenBBalance = currentPool.tokenB.balanceOf(address(this));\r\n\r\n        if(currentPool.tokenA != newPool.tokenA){\r\n            (\r\n                IOdosRouter.inputToken[] memory inputs, \r\n                IOdosRouter.outputToken[] memory outputs, \r\n                ,\r\n                uint256 valueOutMin,\r\n                address executor,\r\n                bytes memory pathDefinition\r\n            ) = abi.decode(swapAData[4:], (IOdosRouter.inputToken[],IOdosRouter.outputToken[],uint256,uint256,address,bytes));\r\n\r\n            require((inputs.length == 1) && (outputs.length == 1), 'BAD_SWAP_A_TOKENS_LENGTH');\r\n            require(inputs[0].tokenAddress == address(currentPool.tokenA), 'BAD_SWAP_A_INPUT_TOKEN');\r\n            require(outputs[0].tokenAddress == address(newPool.tokenA), 'BAD_SWAP_A_OUTPUT_TOKEN');\r\n\r\n            inputs[0].amountIn = tokenABalance;\r\n            OdosRouter.swap(inputs, outputs, type(uint256).max, valueOutMin, executor, pathDefinition);\r\n        }\r\n\r\n        if(currentPool.tokenB != newPool.tokenB){\r\n            (\r\n                IOdosRouter.inputToken[] memory inputs,\r\n                IOdosRouter.outputToken[] memory outputs,\r\n                ,\r\n                uint256 valueOutMin,\r\n                address executor,\r\n                bytes memory pathDefinition\r\n            ) = abi.decode(swapBData[4:], (IOdosRouter.inputToken[],IOdosRouter.outputToken[],uint256,uint256,address,bytes));\r\n\r\n            require((inputs.length == 1) && (outputs.length == 1), 'BAD_SWAP_B_TOKENS_LENGTH');\r\n            require(inputs[0].tokenAddress == address(currentPool.tokenB), 'BAD_SWAP_B_INPUT_TOKEN');\r\n            require(outputs[0].tokenAddress == address(newPool.tokenB), 'BAD_SWAP_B_OUTPUT_TOKEN');\r\n\r\n            inputs[0].amountIn = tokenBBalance;\r\n            OdosRouter.swap(inputs, outputs, type(uint256).max, valueOutMin, executor, pathDefinition);\r\n        }\r\n        \r\n        (,,reserveLP) = newPool.assetRouter.deposit(newPool.pool, newPool.tokenA.balanceOf(address(this)), newPool.tokenB.balanceOf(address(this)), amountAMin, amountBMin, address(this));\r\n       \r\n        lastMoveInfo = MoveLiquidityInfo({\r\n            leftoverA: newPool.tokenA.balanceOf(address(this)),\r\n            leftoverB: newPool.tokenB.balanceOf(address(this)),\r\n            totalSupply: totalSupply(),\r\n            block: block.number\r\n        });\r\n\r\n        emit MoveLiquidity(poolID, _poolID); \r\n        poolID = _poolID;\r\n    }\r\n\r\n    /**\r\n     * @dev Returns tokens staked by the {_address}. \r\n     * @param _address - The address to check stakes for.\r\n\r\n     * @return stakeA - Token A stake.\r\n     * @return stakeB - Token B stake.\r\n     * @return leftoverA - Token A Leftovers obligated to the {_address} after moveLiquidity() function call.\r\n     * @return leftoverB - Token B Leftovers obligated to the {_address} after moveLiquidity() function call.\r\n     */\r\n    function userStake(address _address) external view returns (uint256 stakeA, uint256 stakeB, uint256 leftoverA, uint256 leftoverB) {\r\n        PoolInfo memory pool = pools[poolID];\r\n        (, uint256 balanceA, uint256 balanceB) = pool.assetRouter.userStake(address(this), pool.pool);\r\n\r\n        uint256 _balance = balanceOf(_address);\r\n        if(_balance != 0){\r\n            uint256 _totalSupply = totalSupply();\r\n            stakeA = _balance * balanceA / _totalSupply; \r\n            stakeB = _balance * balanceB / _totalSupply; \r\n            if((!leftoversCollected[msg.sender][lastMoveInfo.block]) && (lastMoveInfo.totalSupply != 0)){\r\n                leftoverA = (_balance - blockedLiquidty[_address][lastMoveInfo.block]) * lastMoveInfo.leftoverA / lastMoveInfo.totalSupply;\r\n                leftoverB = (_balance - blockedLiquidty[_address][lastMoveInfo.block]) * lastMoveInfo.leftoverB / lastMoveInfo.totalSupply;\r\n            }\r\n        }\r\n    }\r\n        \r\n    /**\r\n     * @dev Returns total amount locked in the pool. \r\n     * @return totalDepositsA - Token A deposits.\r\n     * @return totalDepositsB - Token B deposits.\r\n     */     \r\n    function totalDeposits() external view returns(uint256 totalDepositsA, uint256 totalDepositsB){\r\n        PoolInfo memory pool = pools[poolID];\r\n        (, totalDepositsA, totalDepositsB) = pool.assetRouter.userStake(address(this), pool.pool);\r\n\r\n        // Add leftover tokens.\r\n        totalDepositsA += pool.tokenA.balanceOf(address(this));\r\n        totalDepositsB += pool.tokenB.balanceOf(address(this));\r\n    }\r\n\r\n    /**\r\n     * @dev Returns the number of pools in the strategy. \r\n     */\r\n    function poolsLength() external view returns(uint256){\r\n        return pools.length;\r\n    }\r\n\r\n    /**\r\n     * @dev Returns pair of tokens currently in use. \r\n     */\r\n    function tokens() external view returns(address, address){\r\n        PoolInfo memory pool = pools[poolID];\r\n        return (address(pool.tokenA), address(pool.tokenB));\r\n    }\r\n\r\n    function mint(address to) internal returns (uint256 liquidity){\r\n        PoolInfo memory pool = pools[poolID];\r\n        (uint256 balanceLP,,) = pool.assetRouter.userStake(address(this), pool.pool);\r\n        uint256 amountLP = balanceLP - reserveLP;\r\n\r\n        uint256 _totalSupply = totalSupply();\r\n        if (_totalSupply == 0) {\r\n            liquidity = amountLP - MINIMUM_LIQUIDITY;\r\n            _mint(address(1), MINIMUM_LIQUIDITY);\r\n        } else {\r\n            liquidity = amountLP * _totalSupply / reserveLP;\r\n        }\r\n\r\n        require(liquidity > 0, 'INSUFFICIENT_LIQUIDITY_MINTED');\r\n        _mint(to, liquidity);\r\n\r\n        reserveLP = balanceLP;\r\n    }\r\n\r\n    function burn(uint256 liquidity) internal returns (uint256 amountLP) {\r\n        PoolInfo memory pool = pools[poolID];\r\n        (uint256 balanceLP,,) = pool.assetRouter.userStake(address(this), pool.pool);\r\n\r\n        amountLP = liquidity * balanceLP / totalSupply(); \r\n        require(amountLP > 0, 'INSUFFICIENT_LIQUIDITY_BURNED');\r\n        _burn(msg.sender, liquidity);\r\n\r\n        reserveLP = balanceLP - amountLP;\r\n    }\r\n\r\n    function _beforeTokenTransfer(address from, address to, uint256 amount) internal virtual override {\r\n        super._beforeTokenTransfer(from, to, amount);\r\n\r\n        // Decrease blockedLiquidty from {from} address, but no less then 0.\r\n        if(amount > blockedLiquidty[from][lastMoveInfo.block]){\r\n            blockedLiquidty[from][lastMoveInfo.block] = 0;\r\n        } else {\r\n            blockedLiquidty[from][lastMoveInfo.block] -= amount;\r\n        }\r\n        // Block {to} address from withdrawing their share of leftover tokens immediately.\r\n        blockedLiquidty[to][lastMoveInfo.block] += amount;\r\n    }\r\n}",
  "sourcePath": "C:\\Users\\jugli\\Desktop\\uno\\uno-contracts\\contracts\\autostrategy\\UnoAutoStrategy.sol",
  "compiler": {
    "name": "solc",
    "version": "0.8.10+commit.fc410830.Emscripten.clang"
  },
  "schemaVersion": "3.4.11",
  "updatedAt": "2023-03-27T08:30:44.777Z",
  "devdoc": {
    "kind": "dev",
    "methods": {
      "allowance(address,address)": {
        "details": "See {IERC20-allowance}."
      },
      "approve(address,uint256)": {
        "details": "See {IERC20-approve}. NOTE: If `amount` is the maximum `uint256`, the allowance is not updated on `transferFrom`. This is semantically equivalent to an infinite approval. Requirements: - `spender` cannot be the zero address."
      },
      "balanceOf(address)": {
        "details": "See {IERC20-balanceOf}."
      },
      "decimals()": {
        "details": "Returns the number of decimals used to get its user representation. For example, if `decimals` equals `2`, a balance of `505` tokens should be displayed to a user as `5.05` (`505 / 10 ** 2`). Tokens usually opt for a value of 18, imitating the relationship between Ether and Wei. This is the value {ERC20} uses, unless this function is overridden; NOTE: This information is only used for _display_ purposes: it in no way affects any of the arithmetic of the contract, including {IERC20-balanceOf} and {IERC20-transfer}."
      },
      "decreaseAllowance(address,uint256)": {
        "details": "Atomically decreases the allowance granted to `spender` by the caller. This is an alternative to {approve} that can be used as a mitigation for problems described in {IERC20-approve}. Emits an {Approval} event indicating the updated allowance. Requirements: - `spender` cannot be the zero address. - `spender` must have allowance for the caller of at least `subtractedValue`."
      },
      "deposit(uint256,uint256,uint256,uint256,uint256,address)": {
        "details": "Deposits tokens in the pools[poolID] pool. Mints tokens representing user share. Emits {Deposit} event.",
        "params": {
          "amountA": "- Token A amount to deposit.",
          "amountAMin": "- Bounds the extent to which the B/A price can go up before the transaction reverts.",
          "amountB": "- Token B amount to deposit.",
          "amountBMin": "- Bounds the extent to which the A/B price can go up before the transaction reverts.",
          "pid": "- Current poolID. Throws revert if moveLiquidity() has been called before the transaction has been mined.",
          "recipient": "- Address which will receive the deposit."
        },
        "returns": {
          "liquidity": "- Total liquidity minted for the {recipient}.",
          "sentA": "- Deposited token A amount.",
          "sentB": "- Deposited token B amount."
        }
      },
      "depositETH(uint256,uint256,uint256,uint256,address)": {
        "details": "Deposits tokens in the pools[poolID] pool. Mints tokens representing user share. Emits {Deposit} event.",
        "params": {
          "amountETHMin": "- Bounds the extent to which the WMATIC/TOKEN price can go up before the transaction reverts.",
          "amountToken": "- Token amount to deposit.",
          "amountTokenMin": "- Bounds the extent to which the TOKEN/WMATIC price can go up before the transaction reverts.",
          "pid": "- Current poolID. Throws revert if moveLiquidity() has been called before the transaction has been mined.",
          "recipient": "- Address which will receive the deposit."
        },
        "returns": {
          "liquidity": "- Total liquidity minted for the {recipient}.",
          "sentETH": "- Deposited ETH amount.",
          "sentToken": "- Deposited token amount."
        }
      },
      "depositSingleAsset(uint256,address,uint256,bytes[2],uint256,uint256,address)": {
        "details": "Deposits tokens in the pools[poolID] pool. Mints tokens representing user share. Emits {Deposit} event.",
        "params": {
          "amount": "- {token} amount to deposit.",
          "amountAMin": "- Bounds the extent to which the B/A price can go up before the transaction reverts.",
          "amountBMin": "- Bounds the extent to which the A/B price can go up before the transaction reverts.",
          "pid": "- Current poolID. Throws revert if moveLiquidity() has been called before the transaction has been mined.",
          "recipient": "- Address which will receive the deposit.",
          "swapData": "- Parameter with which 1inch router is being called with.",
          "token": "- Token to deposit."
        },
        "returns": {
          "liquidity": "- Total liquidity minted for the {recipient}.",
          "sent": "- Total {token} amount sent to the farm. NOTE: Returns dust left from swap in {token}, but if A/B amounts are not correct also returns dust in pool's tokens."
        }
      },
      "depositSingleETH(uint256,bytes[2],uint256,uint256,address)": {
        "details": "Deposits tokens in the pools[poolID] pool. Mints tokens representing user share. Emits {Deposit} event.",
        "params": {
          "amountAMin": "- Bounds the extent to which the B/A price can go up before the transaction reverts.",
          "amountBMin": "- Bounds the extent to which the A/B price can go up before the transaction reverts.",
          "pid": "- Current poolID. Throws revert if moveLiquidity() has been called before the transaction has been mined.",
          "recipient": "- Address which will receive the deposit.",
          "swapData": "- Parameter with which 1inch router is being called with. NOTE: Use WMATIC as toToken."
        },
        "returns": {
          "liquidity": "- Total liquidity minted for the {recipient}.",
          "sentETH": "- Total MATIC amount sent to the farm. NOTE: Returns dust left from swap in MATIC, but if A/B amount are not correct also returns dust in pool's tokens."
        }
      },
      "increaseAllowance(address,uint256)": {
        "details": "Atomically increases the allowance granted to `spender` by the caller. This is an alternative to {approve} that can be used as a mitigation for problems described in {IERC20-approve}. Emits an {Approval} event indicating the updated allowance. Requirements: - `spender` cannot be the zero address."
      },
      "moveLiquidity(uint256,bytes,bytes,uint256,uint256)": {
        "details": "Moves liquidity from {pools[poolID]} to {pools[_poolID]}. Emits {MoveLiquidity} event.",
        "params": {
          "_poolID": "- Pool ID to move liquidity to.",
          "amountAMin": "- The minimum amount of tokenA that must be deposited in {pools[_poolID]} for the transaction not to revert.",
          "amountBMin": "- The minimum amount of tokenB that must be deposited in {pools[_poolID]} for the transaction not to revert. Note: This function can only be called by LiquidityManager.",
          "swapAData": "- Data for tokenA swap.",
          "swapBData": "- Data for tokenB swap."
        }
      },
      "name()": {
        "details": "Returns the name of the token."
      },
      "poolsLength()": {
        "details": "Returns the number of pools in the strategy. "
      },
      "symbol()": {
        "details": "Returns the symbol of the token, usually a shorter version of the name."
      },
      "tokens()": {
        "details": "Returns pair of tokens currently in use. "
      },
      "totalDeposits()": {
        "details": "Returns total amount locked in the pool. ",
        "returns": {
          "totalDepositsA": "- Token A deposits.",
          "totalDepositsB": "- Token B deposits."
        }
      },
      "totalSupply()": {
        "details": "See {IERC20-totalSupply}."
      },
      "transfer(address,uint256)": {
        "details": "See {IERC20-transfer}. Requirements: - `to` cannot be the zero address. - the caller must have a balance of at least `amount`."
      },
      "transferFrom(address,address,uint256)": {
        "details": "See {IERC20-transferFrom}. Emits an {Approval} event indicating the updated allowance. This is not required by the EIP. See the note at the beginning of {ERC20}. NOTE: Does not update the allowance if the current allowance is the maximum `uint256`. Requirements: - `from` and `to` cannot be the zero address. - `from` must have a balance of at least `amount`. - the caller must have allowance for ``from``'s tokens of at least `amount`."
      },
      "userStake(address)": {
        "details": "Returns tokens staked by the {_address}. ",
        "params": {
          "_address": "- The address to check stakes for."
        },
        "returns": {
          "leftoverA": "- Token A Leftovers obligated to the {_address} after moveLiquidity() function call.",
          "leftoverB": "- Token B Leftovers obligated to the {_address} after moveLiquidity() function call.",
          "stakeA": "- Token A stake.",
          "stakeB": "- Token B stake."
        }
      },
      "withdraw(uint256,uint256,uint256,uint256,address)": {
        "details": "Withdraws tokens from the {pools[poolID]} pool and sends them to the recipient. Burns tokens representing user share. Emits {Withdraw} event.",
        "params": {
          "amountAMin": "- The minimum amount of tokenA that must be received from the pool for the transaction not to revert.",
          "amountBMin": "- The minimum amount of tokenB that must be received from the pool for the transaction not to revert.",
          "liquidity": "- Liquidity to burn from this user.",
          "pid": "- Current poolID. Throws revert if moveLiquidity() has been called before the transaction has been mined.",
          "recipient": "- Address which will receive withdrawn tokens."
        },
        "returns": {
          "amountA": "- Token A amount sent to the {recipient}.",
          "amountB": "- Token B amount sent to the {recipient}."
        }
      },
      "withdrawETH(uint256,uint256,uint256,uint256,address)": {
        "details": "Withdraws tokens from the {pools[poolID]} pool and sends them to the recipient. Burns tokens representing user share. Emits {Withdraw} event.",
        "params": {
          "amountETHMin": "- The minimum amount of tokenB that must be received from the pool for the transaction not to revert.",
          "amountTokenMin": "- The minimum amount of tokenA that must be received from the pool for the transaction not to revert.",
          "liquidity": "- Liquidity to burn from this user.",
          "pid": "- Current poolID. Throws revert if moveLiquidity() has been called before the transaction has been mined.",
          "recipient": "- Address which will receive withdrawn tokens."
        },
        "returns": {
          "amountETH": "- MATIC amount sent to the {recipient}.",
          "amountToken": "- Token amount sent to the {recipient}."
        }
      },
      "withdrawSingleAsset(uint256,uint256,address,bytes[2],address)": {
        "details": "Withdraws tokens from the {pools[poolID]} pool and sends them to the recipient. Burns tokens representing user share. Emits {Withdraw} event.",
        "params": {
          "liquidity": "- Liquidity to burn from this user.",
          "pid": "- Current poolID. Throws revert if moveLiquidity() has been called before the transaction has been mined.",
          "recipient": "- Address which will receive withdrawn tokens.",
          "swapData": "- Parameter with which 1inch router is being called with.",
          "token": "- Address of a token to exit the pool with."
        },
        "returns": {
          "amountA": "- Token A dust sent to the {recipient}.",
          "amountB": "- Token B dust sent to the {recipient}.",
          "amountToken": "- {token} amount sent to the {recipient}."
        }
      },
      "withdrawSingleETH(uint256,uint256,bytes[2],address)": {
        "details": "Withdraws tokens from the {pools[poolID]} pool and sends them to the recipient. Burns tokens representing user share. Emits {Withdraw} event.",
        "params": {
          "liquidity": "- Liquidity to burn from this user.",
          "pid": "- Current poolID. Throws revert if moveLiquidity() has been called before the transaction has been mined.",
          "recipient": "- Address which will receive withdrawn tokens.",
          "swapData": "- Parameter with which 1inch router is being called with."
        },
        "returns": {
          "amountA": "- Token A dust sent to the {recipient}.",
          "amountB": "- Token B dust sent to the {recipient}.",
          "amountETH": "- MATIC amount sent to the {recipient}."
        }
      }
    },
    "stateVariables": {
      "OdosRouter": {
        "details": "Contract Variables: {OdosRouter} - Contract that executes swaps. {poolID} - Current pool the strategy uses ({pools} index). {pools} - Pools this strategy can use and move liquidity to. {reserveLP} - LP token reserve. {lastMoveInfo} - Info on last MoveLiquidity() block. {blockedLiquidty} - User's blocked LP tokens. Prevents user from stealing leftover tokens by depositing and exiting before moveLiquidity() has been called. {leftoversCollected} - Flag that prevents leftover token collection if they were already collected this MoveLiquidity() cycle. {accessManager} - Role manager contract. {factory} - The address of AutoStrategyFactory this contract was deployed by. {MINIMUM_LIQUIDITY} - Ameliorates rounding errors."
      }
    },
    "version": 1
  },
  "userdoc": {
    "kind": "user",
    "methods": {},
    "version": 1
  }
}