{
  "contractName": "UnoAssetRouterBalancerV2",
  "abi": [
    {
      "inputs": [],
      "stateMutability": "nonpayable",
      "type": "constructor"
    },
    {
      "anonymous": false,
      "inputs": [
        {
          "indexed": false,
          "internalType": "address",
          "name": "previousAdmin",
          "type": "address"
        },
        {
          "indexed": false,
          "internalType": "address",
          "name": "newAdmin",
          "type": "address"
        }
      ],
      "name": "AdminChanged",
      "type": "event"
    },
    {
      "anonymous": false,
      "inputs": [
        {
          "indexed": true,
          "internalType": "address",
          "name": "beacon",
          "type": "address"
        }
      ],
      "name": "BeaconUpgraded",
      "type": "event"
    },
    {
      "anonymous": false,
      "inputs": [
        {
          "indexed": true,
          "internalType": "address",
          "name": "lpPool",
          "type": "address"
        },
        {
          "indexed": true,
          "internalType": "address",
          "name": "sender",
          "type": "address"
        },
        {
          "indexed": true,
          "internalType": "address",
          "name": "recipient",
          "type": "address"
        },
        {
          "indexed": false,
          "internalType": "uint256",
          "name": "amount",
          "type": "uint256"
        }
      ],
      "name": "Deposit",
      "type": "event"
    },
    {
      "anonymous": false,
      "inputs": [
        {
          "indexed": true,
          "internalType": "address",
          "name": "lpPool",
          "type": "address"
        },
        {
          "indexed": false,
          "internalType": "uint256",
          "name": "reward",
          "type": "uint256"
        }
      ],
      "name": "Distribute",
      "type": "event"
    },
    {
      "anonymous": false,
      "inputs": [
        {
          "indexed": false,
          "internalType": "uint256",
          "name": "previousFee",
          "type": "uint256"
        },
        {
          "indexed": false,
          "internalType": "uint256",
          "name": "newFee",
          "type": "uint256"
        }
      ],
      "name": "FeeChanged",
      "type": "event"
    },
    {
      "anonymous": false,
      "inputs": [
        {
          "indexed": false,
          "internalType": "uint8",
          "name": "version",
          "type": "uint8"
        }
      ],
      "name": "Initialized",
      "type": "event"
    },
    {
      "anonymous": false,
      "inputs": [
        {
          "indexed": false,
          "internalType": "address",
          "name": "account",
          "type": "address"
        }
      ],
      "name": "Paused",
      "type": "event"
    },
    {
      "anonymous": false,
      "inputs": [
        {
          "indexed": false,
          "internalType": "address",
          "name": "account",
          "type": "address"
        }
      ],
      "name": "Unpaused",
      "type": "event"
    },
    {
      "anonymous": false,
      "inputs": [
        {
          "indexed": true,
          "internalType": "address",
          "name": "implementation",
          "type": "address"
        }
      ],
      "name": "Upgraded",
      "type": "event"
    },
    {
      "anonymous": false,
      "inputs": [
        {
          "indexed": true,
          "internalType": "address",
          "name": "lpPool",
          "type": "address"
        },
        {
          "indexed": true,
          "internalType": "address",
          "name": "sender",
          "type": "address"
        },
        {
          "indexed": true,
          "internalType": "address",
          "name": "recipient",
          "type": "address"
        },
        {
          "indexed": false,
          "internalType": "uint256",
          "name": "amount",
          "type": "uint256"
        }
      ],
      "name": "Withdraw",
      "type": "event"
    },
    {
      "inputs": [],
      "name": "WMATIC",
      "outputs": [
        {
          "internalType": "address",
          "name": "",
          "type": "address"
        }
      ],
      "stateMutability": "view",
      "type": "function"
    },
    {
      "inputs": [],
      "name": "accessManager",
      "outputs": [
        {
          "internalType": "contract IUnoAccessManager",
          "name": "",
          "type": "address"
        }
      ],
      "stateMutability": "view",
      "type": "function"
    },
    {
      "inputs": [],
      "name": "farmFactory",
      "outputs": [
        {
          "internalType": "contract IUnoFarmFactory",
          "name": "",
          "type": "address"
        }
      ],
      "stateMutability": "view",
      "type": "function"
    },
    {
      "inputs": [],
      "name": "fee",
      "outputs": [
        {
          "internalType": "uint256",
          "name": "",
          "type": "uint256"
        }
      ],
      "stateMutability": "view",
      "type": "function"
    },
    {
      "inputs": [],
      "name": "paused",
      "outputs": [
        {
          "internalType": "bool",
          "name": "",
          "type": "bool"
        }
      ],
      "stateMutability": "view",
      "type": "function"
    },
    {
      "inputs": [],
      "name": "proxiableUUID",
      "outputs": [
        {
          "internalType": "bytes32",
          "name": "",
          "type": "bytes32"
        }
      ],
      "stateMutability": "view",
      "type": "function"
    },
    {
      "inputs": [
        {
          "internalType": "address",
          "name": "newImplementation",
          "type": "address"
        }
      ],
      "name": "upgradeTo",
      "outputs": [],
      "stateMutability": "nonpayable",
      "type": "function"
    },
    {
      "inputs": [
        {
          "internalType": "address",
          "name": "newImplementation",
          "type": "address"
        },
        {
          "internalType": "bytes",
          "name": "data",
          "type": "bytes"
        }
      ],
      "name": "upgradeToAndCall",
      "outputs": [],
      "stateMutability": "payable",
      "type": "function"
    },
    {
      "inputs": [],
      "name": "version",
      "outputs": [
        {
          "internalType": "uint256",
          "name": "",
          "type": "uint256"
        }
      ],
      "stateMutability": "view",
      "type": "function"
    },
    {
      "stateMutability": "payable",
      "type": "receive"
    },
    {
      "inputs": [
        {
          "internalType": "address",
          "name": "_accessManager",
          "type": "address"
        },
        {
          "internalType": "address",
          "name": "_farmFactory",
          "type": "address"
        }
      ],
      "name": "initialize",
      "outputs": [],
      "stateMutability": "nonpayable",
      "type": "function"
    },
    {
      "inputs": [
        {
          "internalType": "address",
          "name": "lpPool",
          "type": "address"
        },
        {
          "internalType": "uint256[]",
          "name": "amounts",
          "type": "uint256[]"
        },
        {
          "internalType": "address[]",
          "name": "tokens",
          "type": "address[]"
        },
        {
          "internalType": "uint256",
          "name": "minAmountLP",
          "type": "uint256"
        },
        {
          "internalType": "address",
          "name": "recipient",
          "type": "address"
        }
      ],
      "name": "deposit",
      "outputs": [
        {
          "internalType": "uint256",
          "name": "liquidity",
          "type": "uint256"
        }
      ],
      "stateMutability": "nonpayable",
      "type": "function"
    },
    {
      "inputs": [
        {
          "internalType": "address",
          "name": "lpPool",
          "type": "address"
        },
        {
          "internalType": "uint256[]",
          "name": "amounts",
          "type": "uint256[]"
        },
        {
          "internalType": "address[]",
          "name": "tokens",
          "type": "address[]"
        },
        {
          "internalType": "uint256",
          "name": "minAmountLP",
          "type": "uint256"
        },
        {
          "internalType": "address",
          "name": "recipient",
          "type": "address"
        }
      ],
      "name": "depositETH",
      "outputs": [
        {
          "internalType": "uint256",
          "name": "liquidity",
          "type": "uint256"
        }
      ],
      "stateMutability": "payable",
      "type": "function"
    },
    {
      "inputs": [
        {
          "internalType": "address",
          "name": "lpPool",
          "type": "address"
        },
        {
          "internalType": "address",
          "name": "token",
          "type": "address"
        },
        {
          "internalType": "uint256",
          "name": "amount",
          "type": "uint256"
        },
        {
          "internalType": "bytes[]",
          "name": "swapData",
          "type": "bytes[]"
        },
        {
          "internalType": "uint256",
          "name": "minAmountLP",
          "type": "uint256"
        },
        {
          "internalType": "address",
          "name": "recipient",
          "type": "address"
        }
      ],
      "name": "depositSingleAsset",
      "outputs": [
        {
          "internalType": "uint256",
          "name": "sent",
          "type": "uint256"
        },
        {
          "internalType": "uint256",
          "name": "liquidity",
          "type": "uint256"
        }
      ],
      "stateMutability": "nonpayable",
      "type": "function"
    },
    {
      "inputs": [
        {
          "internalType": "address",
          "name": "lpPool",
          "type": "address"
        },
        {
          "internalType": "bytes[]",
          "name": "swapData",
          "type": "bytes[]"
        },
        {
          "internalType": "uint256",
          "name": "minAmountLP",
          "type": "uint256"
        },
        {
          "internalType": "address",
          "name": "recipient",
          "type": "address"
        }
      ],
      "name": "depositSingleETH",
      "outputs": [
        {
          "internalType": "uint256",
          "name": "sentETH",
          "type": "uint256"
        },
        {
          "internalType": "uint256",
          "name": "liquidity",
          "type": "uint256"
        }
      ],
      "stateMutability": "payable",
      "type": "function"
    },
    {
      "inputs": [
        {
          "internalType": "address",
          "name": "lpPool",
          "type": "address"
        },
        {
          "internalType": "uint256",
          "name": "amount",
          "type": "uint256"
        },
        {
          "internalType": "address",
          "name": "recipient",
          "type": "address"
        }
      ],
      "name": "depositLP",
      "outputs": [],
      "stateMutability": "nonpayable",
      "type": "function"
    },
    {
      "inputs": [
        {
          "internalType": "address",
          "name": "lpPool",
          "type": "address"
        },
        {
          "internalType": "bytes",
          "name": "userData",
          "type": "bytes"
        },
        {
          "internalType": "uint256[]",
          "name": "minAmountsOut",
          "type": "uint256[]"
        },
        {
          "internalType": "address",
          "name": "recipient",
          "type": "address"
        }
      ],
      "name": "withdraw",
      "outputs": [
        {
          "internalType": "uint256[]",
          "name": "amounts",
          "type": "uint256[]"
        },
        {
          "internalType": "uint256",
          "name": "liquidity",
          "type": "uint256"
        }
      ],
      "stateMutability": "nonpayable",
      "type": "function"
    },
    {
      "inputs": [
        {
          "internalType": "address",
          "name": "lpPool",
          "type": "address"
        },
        {
          "internalType": "bytes",
          "name": "userData",
          "type": "bytes"
        },
        {
          "internalType": "uint256[]",
          "name": "minAmountsOut",
          "type": "uint256[]"
        },
        {
          "internalType": "address",
          "name": "recipient",
          "type": "address"
        }
      ],
      "name": "withdrawETH",
      "outputs": [
        {
          "internalType": "uint256[]",
          "name": "amounts",
          "type": "uint256[]"
        },
        {
          "internalType": "uint256",
          "name": "liquidity",
          "type": "uint256"
        }
      ],
      "stateMutability": "nonpayable",
      "type": "function"
    },
    {
      "inputs": [
        {
          "internalType": "address",
          "name": "lpPool",
          "type": "address"
        },
        {
          "internalType": "address",
          "name": "token",
          "type": "address"
        },
        {
          "internalType": "bytes",
          "name": "userData",
          "type": "bytes"
        },
        {
          "internalType": "bytes[]",
          "name": "swapData",
          "type": "bytes[]"
        },
        {
          "internalType": "address",
          "name": "recipient",
          "type": "address"
        }
      ],
      "name": "withdrawSingleAsset",
      "outputs": [
        {
          "internalType": "uint256",
          "name": "amount",
          "type": "uint256"
        },
        {
          "internalType": "uint256",
          "name": "liquidity",
          "type": "uint256"
        }
      ],
      "stateMutability": "nonpayable",
      "type": "function"
    },
    {
      "inputs": [
        {
          "internalType": "address",
          "name": "lpPool",
          "type": "address"
        },
        {
          "internalType": "bytes",
          "name": "userData",
          "type": "bytes"
        },
        {
          "internalType": "bytes[]",
          "name": "swapData",
          "type": "bytes[]"
        },
        {
          "internalType": "address",
          "name": "recipient",
          "type": "address"
        }
      ],
      "name": "withdrawSingleETH",
      "outputs": [
        {
          "internalType": "uint256",
          "name": "amountETH",
          "type": "uint256"
        },
        {
          "internalType": "uint256",
          "name": "liquidity",
          "type": "uint256"
        }
      ],
      "stateMutability": "nonpayable",
      "type": "function"
    },
    {
      "inputs": [
        {
          "internalType": "address",
          "name": "lpPool",
          "type": "address"
        },
        {
          "internalType": "uint256",
          "name": "amount",
          "type": "uint256"
        },
        {
          "internalType": "address",
          "name": "recipient",
          "type": "address"
        }
      ],
      "name": "withdrawLP",
      "outputs": [],
      "stateMutability": "nonpayable",
      "type": "function"
    },
    {
      "inputs": [
        {
          "internalType": "address",
          "name": "lpPool",
          "type": "address"
        },
        {
          "components": [
            {
              "components": [
                {
                  "internalType": "bytes32",
                  "name": "poolId",
                  "type": "bytes32"
                },
                {
                  "internalType": "uint256",
                  "name": "assetInIndex",
                  "type": "uint256"
                },
                {
                  "internalType": "uint256",
                  "name": "assetOutIndex",
                  "type": "uint256"
                },
                {
                  "internalType": "uint256",
                  "name": "amount",
                  "type": "uint256"
                },
                {
                  "internalType": "bytes",
                  "name": "userData",
                  "type": "bytes"
                }
              ],
              "internalType": "struct IVault.BatchSwapStep[]",
              "name": "swaps",
              "type": "tuple[]"
            },
            {
              "internalType": "contract IERC20[]",
              "name": "assets",
              "type": "address[]"
            },
            {
              "internalType": "int256[]",
              "name": "limits",
              "type": "int256[]"
            }
          ],
          "internalType": "struct IUnoFarmBalancer.SwapInfo[]",
          "name": "swapInfos",
          "type": "tuple[]"
        },
        {
          "components": [
            {
              "components": [
                {
                  "internalType": "bytes32",
                  "name": "poolId",
                  "type": "bytes32"
                },
                {
                  "internalType": "uint256",
                  "name": "assetInIndex",
                  "type": "uint256"
                },
                {
                  "internalType": "uint256",
                  "name": "assetOutIndex",
                  "type": "uint256"
                },
                {
                  "internalType": "uint256",
                  "name": "amount",
                  "type": "uint256"
                },
                {
                  "internalType": "bytes",
                  "name": "userData",
                  "type": "bytes"
                }
              ],
              "internalType": "struct IVault.BatchSwapStep[]",
              "name": "swaps",
              "type": "tuple[]"
            },
            {
              "internalType": "contract IERC20[]",
              "name": "assets",
              "type": "address[]"
            },
            {
              "internalType": "int256[]",
              "name": "limits",
              "type": "int256[]"
            }
          ],
          "internalType": "struct IUnoFarmBalancer.SwapInfo[]",
          "name": "feeSwapInfos",
          "type": "tuple[]"
        },
        {
          "internalType": "address",
          "name": "feeTo",
          "type": "address"
        }
      ],
      "name": "distribute",
      "outputs": [],
      "stateMutability": "nonpayable",
      "type": "function"
    },
    {
      "inputs": [
        {
          "internalType": "address",
          "name": "_address",
          "type": "address"
        },
        {
          "internalType": "address",
          "name": "lpPool",
          "type": "address"
        }
      ],
      "name": "userStake",
      "outputs": [
        {
          "internalType": "uint256",
          "name": "",
          "type": "uint256"
        }
      ],
      "stateMutability": "view",
      "type": "function"
    },
    {
      "inputs": [
        {
          "internalType": "address",
          "name": "lpPool",
          "type": "address"
        }
      ],
      "name": "totalDeposits",
      "outputs": [
        {
          "internalType": "uint256",
          "name": "",
          "type": "uint256"
        }
      ],
      "stateMutability": "view",
      "type": "function"
    },
    {
      "inputs": [
        {
          "internalType": "address",
          "name": "lpPool",
          "type": "address"
        }
      ],
      "name": "getTokens",
      "outputs": [
        {
          "internalType": "contract IERC20[]",
          "name": "tokens",
          "type": "address[]"
        }
      ],
      "stateMutability": "view",
      "type": "function"
    },
    {
      "inputs": [
        {
          "internalType": "uint256",
          "name": "_fee",
          "type": "uint256"
        }
      ],
      "name": "setFee",
      "outputs": [],
      "stateMutability": "nonpayable",
      "type": "function"
    },
    {
      "inputs": [],
      "name": "pause",
      "outputs": [],
      "stateMutability": "nonpayable",
      "type": "function"
    },
    {
      "inputs": [],
      "name": "unpause",
      "outputs": [],
      "stateMutability": "nonpayable",
      "type": "function"
    }
  ],
  "bytecode": "0x60a0604052306080523480156200001557600080fd5b506200002062000026565b6200013f565b6200003260ff62000035565b50565b60008054610100900460ff16156200009e578160ff1660011480156200006e57506200006c30620000e260201b620036491760201c565b155b620000965760405162461bcd60e51b81526004016200008d90620000f1565b60405180910390fd5b506000919050565b60005460ff808416911610620000c85760405162461bcd60e51b81526004016200008d90620000f1565b506000805460ff191660ff92909216919091179055600190565b6001600160a01b03163b151590565b6020808252602e908201527f496e697469616c697a61626c653a20636f6e747261637420697320616c72656160408201526d191e481a5b9a5d1a585b1a5e995960921b606082015260800190565b6080516159f062000177600039600081816105060152818161054601528181610fa001528181610fe0015261116401526159f06000f3fe6080604052600436106101405760003560e01c80633659cfe6146101a35780633b06ee30146101c35780633f4ba83a146101fd578063450efe211461021257806346dafa2f1461023f578063485cc9551461025f5780634d95cad91461027f5780634f1ef286146102ae57806351bdca3e146102c157806352d1902d146102ef57806354fd4d50146103045780635c975abb146103195780635eb5fa3e1461033c57806369fe0e2d1461035c5780636d25e1751461037c5780638456cb591461039c5780638463b4ce146103b15780638bff9472146103d15780639a659517146103f1578063d280b94114610404578063ddca3f4314610424578063e50e63711461043a578063e94032561461045a578063e9b72ac71461047a578063f1d44621146104a8578063f597b382146104bb578063fdcb6068146104db57600080fd5b3661019e573360008051602061599b8339815191521461019c5760405162461bcd60e51b81526020600482015260126024820152714f4e4c595f4143434550545f574d4154494360701b60448201526064015b60405180910390fd5b005b600080fd5b3480156101af57600080fd5b5061019c6101be36600461487c565b6104fb565b3480156101cf57600080fd5b506101e36101de366004614925565b6105c4565b604080519283526020830191909152015b60405180910390f35b34801561020957600080fd5b5061019c610ad0565b34801561021e57600080fd5b5061023261022d36600461487c565b610b75565b6040516101f491906149cd565b34801561024b57600080fd5b5061019c61025a366004614a1a565b610c60565b34801561026b57600080fd5b5061019c61027a366004614a5c565b610e5a565b34801561028b57600080fd5b506102a160008051602061599b83398151915281565b6040516101f49190614a95565b61019c6102bc366004614aef565b610f95565b3480156102cd57600080fd5b506102e16102dc366004614a5c565b61104f565b6040519081526020016101f4565b3480156102fb57600080fd5b506102e1611157565b34801561031057600080fd5b506102e1600281565b34801561032557600080fd5b5060335460ff1660405190151581526020016101f4565b34801561034857600080fd5b506101e3610357366004614b96565b611205565b34801561036857600080fd5b5061019c610377366004614c15565b611764565b34801561038857600080fd5b5060c9546102a1906001600160a01b031681565b3480156103a857600080fd5b5061019c6118f7565b3480156103bd57600080fd5b506102e16103cc366004614c51565b61199c565b3480156103dd57600080fd5b506101e36103ec366004614d41565b611d37565b6101e36103ff366004614dd5565b61224f565b34801561041057600080fd5b5061019c61041f366004614e48565b612888565b34801561043057600080fd5b506102e160cb5481565b34801561044657600080fd5b5061019c610455366004614a1a565b612ad2565b34801561046657600080fd5b506102e161047536600461487c565b612c11565b34801561048657600080fd5b5061049a610495366004614d41565b612d0a565b6040516101f4929190614ecf565b6102e16104b6366004614c51565b613040565b3480156104c757600080fd5b5061049a6104d6366004614d41565b6134ea565b3480156104e757600080fd5b5060ca546102a1906001600160a01b031681565b306001600160a01b037f00000000000000000000000000000000000000000000000000000000000000001614156105445760405162461bcd60e51b815260040161019390614ef1565b7f00000000000000000000000000000000000000000000000000000000000000006001600160a01b0316610576613658565b6001600160a01b03161461059c5760405162461bcd60e51b815260040161019390614f2b565b6105a581613674565b604080516000808252602082019092526105c19183919061377a565b50565b6000806105d360335460ff1690565b156105f05760405162461bcd60e51b815260040161019390614f65565b60c95460405163f9d9331d60e01b81526000916001600160a01b03169063f9d9331d90610621908d90600401614a95565b602060405180830381865afa15801561063e573d6000803e3d6000fd5b505050506040513d601f19601f820116820180604052508101906106629190614f8f565b90506001600160a01b03811661068a5760405162461bcd60e51b815260040161019390614fac565b600061069d6106988c610b75565b6138e5565b9050600081516001600160401b038111156106ba576106ba614aa9565b6040519080825280602002602001820160405280156106e3578160200160208202803683370190505b50604051630f1bcec360e41b81529091506001600160a01b0384169063f1bcec309061071b908d908d90869033903090600401614ffe565b6000604051808303816000875af115801561073a573d6000803e3d6000fd5b505050506040513d6000823e601f3d908101601f1916820160405261076291908101906150b0565b9450905060005b8251811015610922578b6001600160a01b031683828151811061078e5761078e6150f6565b60200260200101516001600160a01b031614156107d1578181815181106107b7576107b76150f6565b6020026020010151866107ca9190615122565b9550610910565b8281815181106107e3576107e36150f6565b60200260200101516001600160a01b031663095ea7b3731111111254eeb25477b68fb85ed929f73a960582848481518110610820576108206150f6565b60200260200101516040518363ffffffff1660e01b815260040161084592919061513a565b6020604051808303816000875af1158015610864573d6000803e3d6000fd5b505050506040513d601f19601f820116820180604052508101906108889190615153565b5060006108b88a8a848181106108a0576108a06150f6565b90506020028101906108b29190615175565b8f613994565b9050600080828060200190518101906108d191906151bb565b90925090506108e0828a615122565b9850808585815181106108f5576108f56150f6565b6020026020010181815161090991906151df565b9052505050505b8061091a816151f6565b915050610769565b506109376001600160a01b038c168787613ba2565b6000610a0a82846000876001600160a01b0316633737bcb46040518163ffffffff1660e01b8152600401602060405180830381865afa15801561097e573d6000803e3d6000fd5b505050506040513d601f19601f820116820180604052508101906109a29190614f8f565b886001600160a01b0316633e0dc34e6040518163ffffffff1660e01b8152600401602060405180830381865afa1580156109e0573d6000803e3d6000fd5b505050506040513d601f19601f82011682018060405250810190610a049190615211565b89613bf8565b604051636e553f6560e01b81529091506001600160a01b03851690636e553f6590610a3b908490339060040161522a565b600060405180830381600087803b158015610a5557600080fd5b505af1158015610a69573d6000803e3d6000fd5b505050508085610a7991906151df565b9450866001600160a01b0316336001600160a01b03168e6001600160a01b03166000805160206158d483398151915288604051610ab891815260200190565b60405180910390a45050505097509795505050505050565b60ca54604051632474521560e21b8152600080516020615954833981519152916001600160a01b0316906391d1485490610b10908490339060040161522a565b602060405180830381865afa158015610b2d573d6000803e3d6000fd5b505050506040513d601f19601f82011682018060405250810190610b519190615153565b610b6d5760405162461bcd60e51b815260040161019390615241565b6105c1614078565b60606000826001600160a01b03166338fff2d06040518163ffffffff1660e01b8152600401602060405180830381865afa158015610bb7573d6000803e3d6000fd5b505050506040513d601f19601f82011682018060405250810190610bdb9190615211565b604051631f29a8cd60e31b81526004810182905290915073ba12222222228d8ba445958a75a0704d566bf2c89063f94d466890602401600060405180830381865afa158015610c2e573d6000803e3d6000fd5b505050506040513d6000823e601f3d908101601f19168201604052610c569190810190615270565b5090949350505050565b60335460ff1615610c835760405162461bcd60e51b815260040161019390614f65565b60008211610ca35760405162461bcd60e51b81526004016101939061533d565b60c95460405163f9d9331d60e01b81526000916001600160a01b03169063f9d9331d90610cd4908790600401614a95565b602060405180830381865afa158015610cf1573d6000803e3d6000fd5b505050506040513d601f19601f82011682018060405250810190610d159190614f8f565b90506001600160a01b038116610d9a5760c954604051621849e360e61b81526001600160a01b039091169063061278c090610d54908790600401614a95565b6020604051808303816000875af1158015610d73573d6000803e3d6000fd5b505050506040513d601f19601f82011682018060405250810190610d979190614f8f565b90505b610daf6001600160a01b038516338386614105565b604051636e553f6560e01b81526001600160a01b03821690636e553f6590610ddd908690869060040161522a565b600060405180830381600087803b158015610df757600080fd5b505af1158015610e0b573d6000803e3d6000fd5b50505050816001600160a01b0316336001600160a01b0316856001600160a01b031660008051602061593483398151915286604051610e4c91815260200190565b60405180910390a450505050565b6000610e666001614143565b90508015610e7e576000805461ff0019166101001790555b6001600160a01b038316610ec95760405162461bcd60e51b81526020600482015260126024820152712120a22fa0a1a1a2a9a9afa6a0a720a3a2a960711b6044820152606401610193565b6001600160a01b038216610f125760405162461bcd60e51b815260206004820152601060248201526f4241445f4641524d5f464143544f525960801b6044820152606401610193565b610f1a6141d7565b60ca80546001600160a01b038086166001600160a01b03199283161790925560c98054928516929091169190911790558015610f90576000805461ff0019169055604051600181527f7f26b83ff96e1f2b6a682f133852f6798a09c465da95921460cefb38474024989060200160405180910390a15b505050565b306001600160a01b037f0000000000000000000000000000000000000000000000000000000000000000161415610fde5760405162461bcd60e51b815260040161019390614ef1565b7f00000000000000000000000000000000000000000000000000000000000000006001600160a01b0316611010613658565b6001600160a01b0316146110365760405162461bcd60e51b815260040161019390614f2b565b61103f82613674565b61104b8282600161377a565b5050565b60c95460405163f9d9331d60e01b815260009182916001600160a01b039091169063f9d9331d90611084908690600401614a95565b602060405180830381865afa1580156110a1573d6000803e3d6000fd5b505050506040513d601f19601f820116820180604052508101906110c59190614f8f565b90506001600160a01b0381161561114b57604051630103c92b60e01b81526001600160a01b03821690630103c92b90611102908790600401614a95565b602060405180830381865afa15801561111f573d6000803e3d6000fd5b505050506040513d601f19601f820116820180604052508101906111439190615211565b915050611151565b60009150505b92915050565b6000306001600160a01b037f000000000000000000000000000000000000000000000000000000000000000016146111f25760405162461bcd60e51b815260206004820152603860248201527f555550535570677261646561626c653a206d757374206e6f742062652063616c6044820152771b1959081d1a1c9bdd59da0819195b1959d85d1958d85b1b60421b6064820152608401610193565b5060008051602061591483398151915290565b60008061121460335460ff1690565b156112315760405162461bcd60e51b815260040161019390614f65565b600087116112515760405162461bcd60e51b81526004016101939061533d565b600061125f6106988b610b75565b805190915086146112825760405162461bcd60e51b815260040161019390615364565b60c95460405163f9d9331d60e01b81526000916001600160a01b03169063f9d9331d906112b3908e90600401614a95565b602060405180830381865afa1580156112d0573d6000803e3d6000fd5b505050506040513d601f19601f820116820180604052508101906112f49190614f8f565b90506001600160a01b0381166113795760c954604051621849e360e61b81526001600160a01b039091169063061278c090611333908e90600401614a95565b6020604051808303816000875af1158015611352573d6000803e3d6000fd5b505050506040513d601f19601f820116820180604052508101906113769190614f8f565b90505b61138e6001600160a01b038b1633308c614105565b60405163095ea7b360e01b81526001600160a01b038b169063095ea7b3906113d090731111111254eeb25477b68fb85ed929f73a960582908d9060040161513a565b6020604051808303816000875af11580156113ef573d6000803e3d6000fd5b505050506040513d601f19601f820116820180604052508101906114139190615153565b50600082516001600160401b0381111561142f5761142f614aa9565b604051908082528060200260200182016040528015611458578160200160208202803683370190505b508a9550905060001960005b8451811015611588578d6001600160a01b0316858281518110611489576114896150f6565b60200260200101516001600160a01b031614156114a557611576565b8c6001600160a01b03168582815181106114c1576114c16150f6565b60200260200101516001600160a01b031614156114e057809150611576565b60006115288c8c848181106114f7576114f76150f6565b90506020028101906115099190615175565b88858151811061151b5761151b6150f6565b6020026020010151613994565b90506000808280602001905181019061154191906151bb565b9150915081868581518110611558576115586150f6565b602002602001018181525050808f61157091906151df565b9e505050505b80611580816151f6565b915050611464565b5080600019146115b6578a8282815181106115a5576115a56150f6565b6020026020010181815250506115dc565b8a156115dc576115c68b876151df565b95506115dc6001600160a01b038d16338d613ba2565b506116ad818489856001600160a01b0316633737bcb46040518163ffffffff1660e01b8152600401602060405180830381865afa158015611621573d6000803e3d6000fd5b505050506040513d601f19601f820116820180604052508101906116459190614f8f565b866001600160a01b0316633e0dc34e6040518163ffffffff1660e01b8152600401602060405180830381865afa158015611683573d6000803e3d6000fd5b505050506040513d601f19601f820116820180604052508101906116a79190615211565b87613bf8565b604051636e553f6560e01b81529094506001600160a01b03831690636e553f65906116de9087908a9060040161522a565b600060405180830381600087803b1580156116f857600080fd5b505af115801561170c573d6000803e3d6000fd5b50505050856001600160a01b0316336001600160a01b03168d6001600160a01b03166000805160206159348339815191528760405161174d91815260200190565b60405180910390a450505097509795505050505050565b60ca60009054906101000a90046001600160a01b03166001600160a01b03166375b238fc6040518163ffffffff1660e01b8152600401602060405180830381865afa1580156117b7573d6000803e3d6000fd5b505050506040513d601f19601f820116820180604052508101906117db9190615211565b60ca54604051632474521560e21b81526001600160a01b03909116906391d148549061180d908490339060040161522a565b602060405180830381865afa15801561182a573d6000803e3d6000fd5b505050506040513d601f19601f8201168201806040525081019061184e9190615153565b61186a5760405162461bcd60e51b815260040161019390615241565b670de0b6b3a76400008211156118ac5760405162461bcd60e51b81526020600482015260076024820152664241445f46454560c81b6044820152606401610193565b8160cb541461104b5760cb5460408051918252602082018490527f5fc463da23c1b063e66f9e352006a7fbe8db7223c455dc429e881a2dfe2f94f1910160405180910390a15060cb55565b60ca54604051632474521560e21b8152600080516020615954833981519152916001600160a01b0316906391d1485490611937908490339060040161522a565b602060405180830381865afa158015611954573d6000803e3d6000fd5b505050506040513d601f19601f820116820180604052508101906119789190615153565b6119945760405162461bcd60e51b815260040161019390615241565b6105c1614208565b60006119aa60335460ff1690565b156119c75760405162461bcd60e51b815260040161019390614f65565b855184146119e75760405162461bcd60e51b815260040161019390615364565b60c95460405163f9d9331d60e01b81526000916001600160a01b03169063f9d9331d90611a18908b90600401614a95565b602060405180830381865afa158015611a35573d6000803e3d6000fd5b505050506040513d601f19601f82011682018060405250810190611a599190614f8f565b90506001600160a01b038116611ade5760c954604051621849e360e61b81526001600160a01b039091169063061278c090611a98908b90600401614a95565b6020604051808303816000875af1158015611ab7573d6000803e3d6000fd5b505050506040513d601f19601f82011682018060405250810190611adb9190614f8f565b90505b6000816001600160a01b0316633e0dc34e6040518163ffffffff1660e01b8152600401602060405180830381865afa158015611b1e573d6000803e3d6000fd5b505050506040513d601f19601f82011682018060405250810190611b429190615211565b9050611b4f878783614260565b60005b86811015611c3f576000898281518110611b6e57611b6e6150f6565b60200260200101511115611c2d57896001600160a01b0316888883818110611b9857611b986150f6565b9050602002016020810190611bad919061487c565b6001600160a01b03161415611bd657888181518110611bce57611bce6150f6565b50611c2d9050565b611c2d33308b8481518110611bed57611bed6150f6565b60200260200101518b8b86818110611c0757611c076150f6565b9050602002016020810190611c1c919061487c565b6001600160a01b0316929190614105565b80611c37816151f6565b915050611b52565b50611c83888888808060200260200160405190810160405280939291908181526020018383602002808284376000920191909152508a92508e915086905087613bf8565b604051636e553f6560e01b81529093506001600160a01b03831690636e553f6590611cb4908690889060040161522a565b600060405180830381600087803b158015611cce57600080fd5b505af1158015611ce2573d6000803e3d6000fd5b50505050836001600160a01b0316336001600160a01b03168a6001600160a01b031660008051602061593483398151915286604051611d2391815260200190565b60405180910390a450509695505050505050565b600080611d4660335460ff1690565b15611d635760405162461bcd60e51b815260040161019390614f65565b60c95460405163f9d9331d60e01b81526000916001600160a01b03169063f9d9331d90611d94908c90600401614a95565b602060405180830381865afa158015611db1573d6000803e3d6000fd5b505050506040513d601f19601f82011682018060405250810190611dd59190614f8f565b90506001600160a01b038116611dfd5760405162461bcd60e51b815260040161019390614fac565b6000611e0b6106988b610b75565b9050600081516001600160401b03811115611e2857611e28614aa9565b604051908082528060200260200182016040528015611e51578160200160208202803683370190505b50604051630f1bcec360e41b81529091506001600160a01b0384169063f1bcec3090611e89908d908d90869033903090600401614ffe565b6000604051808303816000875af1158015611ea8573d6000803e3d6000fd5b505050506040513d6000823e601f3d908101601f19168201604052611ed091908101906150b0565b9450905060005b82518110156120ac5760008051602061599b8339815191526001600160a01b0316838281518110611f0a57611f0a6150f6565b60200260200101516001600160a01b03161415611f4d57818181518110611f3357611f336150f6565b602002602001015186611f469190615122565b955061209a565b828181518110611f5f57611f5f6150f6565b60200260200101516001600160a01b031663095ea7b3731111111254eeb25477b68fb85ed929f73a960582848481518110611f9c57611f9c6150f6565b60200260200101516040518363ffffffff1660e01b8152600401611fc192919061513a565b6020604051808303816000875af1158015611fe0573d6000803e3d6000fd5b505050506040513d601f19601f820116820180604052508101906120049190615153565b5060006120428a8a8481811061201c5761201c6150f6565b905060200281019061202e9190615175565b60008051602061599b833981519152613994565b90506000808280602001905181019061205b91906151bb565b909250905061206a828a615122565b98508085858151811061207f5761207f6150f6565b6020026020010181815161209391906151df565b9052505050505b806120a4816151f6565b915050611ed7565b50604051632e1a7d4d60e01b81526004810186905260008051602061599b83398151915290632e1a7d4d90602401600060405180830381600087803b1580156120f457600080fd5b505af1158015612108573d6000803e3d6000fd5b50506040516001600160a01b038916925087156108fc02915087906000818181858888f19350505050158015612142573d6000803e3d6000fd5b50600061218a82846000876001600160a01b0316633737bcb46040518163ffffffff1660e01b8152600401602060405180830381865afa15801561097e573d6000803e3d6000fd5b604051636e553f6560e01b81529091506001600160a01b03851690636e553f65906121bb908490339060040161522a565b600060405180830381600087803b1580156121d557600080fd5b505af11580156121e9573d6000803e3d6000fd5b5050505080856121f991906151df565b9450866001600160a01b0316336001600160a01b03168d6001600160a01b03166000805160206158d48339815191528860405161223891815260200190565b60405180910390a450505050965096945050505050565b60008061225e60335460ff1690565b1561227b5760405162461bcd60e51b815260040161019390614f65565b6000341161229b5760405162461bcd60e51b81526004016101939061539b565b60006122a961069889610b75565b805190915086146122cc5760405162461bcd60e51b815260040161019390615364565b60c95460405163f9d9331d60e01b81526000916001600160a01b03169063f9d9331d906122fd908c90600401614a95565b602060405180830381865afa15801561231a573d6000803e3d6000fd5b505050506040513d601f19601f8201168201806040525081019061233e9190614f8f565b90506001600160a01b0381166123c35760c954604051621849e360e61b81526001600160a01b039091169063061278c09061237d908c90600401614a95565b6020604051808303816000875af115801561239c573d6000803e3d6000fd5b505050506040513d601f19601f820116820180604052508101906123c09190614f8f565b90505b600034905060008051602061599b8339815191526001600160a01b031663d0e30db0826040518263ffffffff1660e01b81526004016000604051808303818588803b15801561241157600080fd5b505af1158015612425573d6000803e3d6000fd5b505060405163095ea7b360e01b815260008051602061599b833981519152935063095ea7b392506124719150731111111254eeb25477b68fb85ed929f73a96058290859060040161513a565b6020604051808303816000875af1158015612490573d6000803e3d6000fd5b505050506040513d601f19601f820116820180604052508101906124b49190615153565b50600083516001600160401b038111156124d0576124d0614aa9565b6040519080825280602002602001820160405280156124f9578160200160208202803683370190505b509195508591905060001960005b8551811015612632578c6001600160a01b031686828151811061252c5761252c6150f6565b60200260200101516001600160a01b0316141561254857612620565b60008051602061599b8339815191526001600160a01b0316868281518110612572576125726150f6565b60200260200101516001600160a01b0316141561259157809150612620565b60006125cc8d8d848181106125a8576125a86150f6565b90506020028101906125ba9190615175565b89858151811061151b5761151b6150f6565b9050600080828060200190518101906125e591906151bb565b909250905081156126105781868581518110612603576126036150f6565b6020026020010181815250505b61261a81886151df565b96505050505b8061262a816151f6565b915050612507565b508060001914612660578282828151811061264f5761264f6150f6565b602002602001018181525050612701565b82156127015761267083886151df565b604051632e1a7d4d60e01b81526004810185905290975060008051602061599b83398151915290632e1a7d4d90602401600060405180830381600087803b1580156126ba57600080fd5b505af11580156126ce573d6000803e3d6000fd5b505060405133925085156108fc02915085906000818181858888f193505050501580156126ff573d6000803e3d6000fd5b505b506127d281858a866001600160a01b0316633737bcb46040518163ffffffff1660e01b8152600401602060405180830381865afa158015612746573d6000803e3d6000fd5b505050506040513d601f19601f8201168201806040525081019061276a9190614f8f565b876001600160a01b0316633e0dc34e6040518163ffffffff1660e01b8152600401602060405180830381865afa1580156127a8573d6000803e3d6000fd5b505050506040513d601f19601f820116820180604052508101906127cc9190615211565b88613bf8565b604051636e553f6560e01b81529095506001600160a01b03841690636e553f65906128039088908b9060040161522a565b600060405180830381600087803b15801561281d57600080fd5b505af1158015612831573d6000803e3d6000fd5b50505050866001600160a01b0316336001600160a01b03168c6001600160a01b03166000805160206159348339815191528860405161287291815260200190565b60405180910390a4505050509550959350505050565b60335460ff16156128ab5760405162461bcd60e51b815260040161019390614f65565b60ca54604051632474521560e21b81527ffbd454f36a7e1a388bd6fc3ab10d434aa4578f811acbbcf33afb1c697486313c916001600160a01b0316906391d14854906128fd908490339060040161522a565b602060405180830381865afa15801561291a573d6000803e3d6000fd5b505050506040513d601f19601f8201168201806040525081019061293e9190615153565b61295a5760405162461bcd60e51b815260040161019390615241565b60c95460405163f9d9331d60e01b81526000916001600160a01b03169063f9d9331d9061298b908b90600401614a95565b602060405180830381865afa1580156129a8573d6000803e3d6000fd5b505050506040513d601f19601f820116820180604052508101906129cc9190614f8f565b90506001600160a01b0381166129f45760405162461bcd60e51b815260040161019390614fac565b6040805180820182526001600160a01b03858116825260cb5460208301529151630faa5a1f60e01b8152600092841691630faa5a1f91612a3f918c918c918c918c91906004016155fc565b6020604051808303816000875af1158015612a5e573d6000803e3d6000fd5b505050506040513d601f19601f82011682018060405250810190612a829190615211565b9050886001600160a01b03167fc1d32ad5cca423e7dda2123dbf8c482f8e77d00b631c06e903a47f2cec1334df82604051612abf91815260200190565b60405180910390a2505050505050505050565b60c95460405163f9d9331d60e01b81526000916001600160a01b03169063f9d9331d90612b03908790600401614a95565b602060405180830381865afa158015612b20573d6000803e3d6000fd5b505050506040513d601f19601f82011682018060405250810190612b449190614f8f565b90506001600160a01b038116612b6c5760405162461bcd60e51b815260040161019390614fac565b604051632d182be560e21b8152600481018490523360248201526001600160a01b03838116604483015282169063b460af9490606401600060405180830381600087803b158015612bbc57600080fd5b505af1158015612bd0573d6000803e3d6000fd5b50505050816001600160a01b0316336001600160a01b0316856001600160a01b03166000805160206158d483398151915286604051610e4c91815260200190565b60c95460405163f9d9331d60e01b815260009182916001600160a01b039091169063f9d9331d90612c46908690600401614a95565b602060405180830381865afa158015612c63573d6000803e3d6000fd5b505050506040513d601f19601f82011682018060405250810190612c879190614f8f565b90506001600160a01b03811615612d0157806001600160a01b031663168a48226040518163ffffffff1660e01b8152600401602060405180830381865afa158015612cd6573d6000803e3d6000fd5b505050506040513d601f19601f82011682018060405250810190612cfa9190615211565b9392505050565b50600092915050565b60c95460405163f9d9331d60e01b815260609160009182916001600160a01b03169063f9d9331d90612d40908c90600401614a95565b602060405180830381865afa158015612d5d573d6000803e3d6000fd5b505050506040513d601f19601f82011682018060405250810190612d819190614f8f565b90506001600160a01b038116612da95760405162461bcd60e51b815260040161019390614fac565b604051630f1bcec360e41b81526001600160a01b0382169063f1bcec3090612ddf908b908b908b908b903390309060040161564d565b6000604051808303816000875af1158015612dfe573d6000803e3d6000fd5b505050506040513d6000823e601f3d908101601f19168201604052612e2691908101906150b0565b90935091506000612e368a610b75565b905060005b8151811015612fed57848181518110612e5657612e566150f6565b602002602001015160001415612e6b57612fdb565b60008051602061599b8339815191526001600160a01b0316828281518110612e9557612e956150f6565b60200260200101516001600160a01b031614612f0057612efb86868381518110612ec157612ec16150f6565b6020026020010151848481518110612edb57612edb6150f6565b60200260200101516001600160a01b0316613ba29092919063ffffffff16565b612fdb565b60008051602061599b8339815191526001600160a01b0316632e1a7d4d868381518110612f2f57612f2f6150f6565b60200260200101516040518263ffffffff1660e01b8152600401612f5591815260200190565b600060405180830381600087803b158015612f6f57600080fd5b505af1158015612f83573d6000803e3d6000fd5b50505050856001600160a01b03166108fc868381518110612fa657612fa66150f6565b60200260200101519081150290604051600060405180830381858888f19350505050158015612fd9573d6000803e3d6000fd5b505b80612fe5816151f6565b915050612e3b565b50846001600160a01b0316336001600160a01b03168b6001600160a01b03166000805160206158d48339815191528660405161302b91815260200190565b60405180910390a45050965096945050505050565b600061304e60335460ff1690565b1561306b5760405162461bcd60e51b815260040161019390614f65565b6000341161308b5760405162461bcd60e51b81526004016101939061539b565b855184146130ab5760405162461bcd60e51b815260040161019390615364565b60c95460405163f9d9331d60e01b81526000916001600160a01b03169063f9d9331d906130dc908b90600401614a95565b602060405180830381865afa1580156130f9573d6000803e3d6000fd5b505050506040513d601f19601f8201168201806040525081019061311d9190614f8f565b90506001600160a01b0381166131a25760c954604051621849e360e61b81526001600160a01b039091169063061278c09061315c908b90600401614a95565b6020604051808303816000875af115801561317b573d6000803e3d6000fd5b505050506040513d601f19601f8201168201806040525081019061319f9190614f8f565b90505b6000816001600160a01b0316633e0dc34e6040518163ffffffff1660e01b8152600401602060405180830381865afa1580156131e2573d6000803e3d6000fd5b505050506040513d601f19601f820116820180604052508101906132069190615211565b9050613213878783614260565b600060008051602061599b8339815191526001600160a01b031663d0e30db0346040518263ffffffff1660e01b81526004016000604051808303818588803b15801561325e57600080fd5b505af1158015613272573d6000803e3d6000fd5b505050505060005b878110156133ae578a6001600160a01b031689898381811061329e5761329e6150f6565b90506020020160208101906132b3919061487c565b6001600160a01b031614156132dc578981815181106132d4576132d46150f6565b5061339c9050565b60008051602061599b8339815191528989838181106132fd576132fd6150f6565b9050602002016020810190613312919061487c565b6001600160a01b0316141561334957348a8281518110613334576133346150f6565b6020026020010181815250506001915061339c565b60008a828151811061335d5761335d6150f6565b6020026020010151111561339c5761339c33308c8481518110613382576133826150f6565b60200260200101518c8c86818110611c0757611c076150f6565b806133a6816151f6565b91505061327a565b50806133f25760405162461bcd60e51b81526020600482015260136024820152724e4f5f574d415449435f494e5f544f4b454e5360681b6044820152606401610193565b613435898989808060200260200160405190810160405280939291908181526020018383602002808284376000920191909152508b92508f915087905088613bf8565b604051636e553f6560e01b81529094506001600160a01b03841690636e553f6590613466908790899060040161522a565b600060405180830381600087803b15801561348057600080fd5b505af1158015613494573d6000803e3d6000fd5b50505050846001600160a01b0316336001600160a01b03168b6001600160a01b0316600080516020615934833981519152876040516134d591815260200190565b60405180910390a45050509695505050505050565b60c95460405163f9d9331d60e01b815260609160009182916001600160a01b03169063f9d9331d90613520908c90600401614a95565b602060405180830381865afa15801561353d573d6000803e3d6000fd5b505050506040513d601f19601f820116820180604052508101906135619190614f8f565b90506001600160a01b0381166135895760405162461bcd60e51b815260040161019390614fac565b604051630f1bcec360e41b81526001600160a01b0382169063f1bcec30906135bf908b908b908b908b9033908c9060040161564d565b6000604051808303816000875af11580156135de573d6000803e3d6000fd5b505050506040513d6000823e601f3d908101601f1916820160405261360691908101906150b0565b60405181815291945092506001600160a01b038581169133918c16906000805160206158d48339815191529060200160405180910390a450965096945050505050565b6001600160a01b03163b151590565b600080516020615914833981519152546001600160a01b031690565b60ca60009054906101000a90046001600160a01b03166001600160a01b03166375b238fc6040518163ffffffff1660e01b8152600401602060405180830381865afa1580156136c7573d6000803e3d6000fd5b505050506040513d601f19601f820116820180604052508101906136eb9190615211565b60ca54604051632474521560e21b81526001600160a01b03909116906391d148549061371d908490339060040161522a565b602060405180830381865afa15801561373a573d6000803e3d6000fd5b505050506040513d601f19601f8201168201806040525081019061375e9190615153565b61104b5760405162461bcd60e51b815260040161019390615241565b7f4910fdfa16fed3260ed0e7147f7cc6da11a60208b5b9406d12a635614ffd91435460ff16156137ad57610f90836143e7565b826001600160a01b03166352d1902d6040518163ffffffff1660e01b8152600401602060405180830381865afa925050508015613807575060408051601f3d908101601f1916820190925261380491810190615211565b60015b61386a5760405162461bcd60e51b815260206004820152602e60248201527f45524331393637557067726164653a206e657720696d706c656d656e7461746960448201526d6f6e206973206e6f74205555505360901b6064820152608401610193565b60008051602061591483398151915281146138d95760405162461bcd60e51b815260206004820152602960248201527f45524331393637557067726164653a20756e737570706f727465642070726f786044820152681a58589b195555525160ba1b6064820152608401610193565b50610f90838383614481565b606081516001600160401b0381111561390057613900614aa9565b604051908082528060200260200182016040528015613929578160200160208202803683370190505b50905060005b825181101561398e5782818151811061394a5761394a6150f6565b6020026020010151828281518110613964576139646150f6565b6001600160a01b039092166020928302919091019091015280613986816151f6565b91505061392f565b50919050565b60606000826001600160a01b03166370a08231306040518263ffffffff1660e01b81526004016139c49190614a95565b602060405180830381865afa1580156139e1573d6000803e3d6000fd5b505050506040513d601f19601f82011682018060405250810190613a059190615211565b90506000731111111254eeb25477b68fb85ed929f73a9605826001600160a01b03168686604051613a379291906156b8565b6000604051808303816000865af19150503d8060008114613a74576040519150601f19603f3d011682016040523d82523d6000602084013e613a79565b606091505b509350905080613ac15760405162461bcd60e51b815260206004820152601360248201527214d5d05417d393d517d4d550d0d154d4d19553606a1b6044820152606401610193565b600083806020019051810190613ad791906151bb565b5090506000856001600160a01b03166370a08231306040518263ffffffff1660e01b8152600401613b089190614a95565b602060405180830381865afa158015613b25573d6000803e3d6000fd5b505050506040513d601f19601f82011682018060405250810190613b499190615211565b905081613b5685836151df565b14613b975760405162461bcd60e51b815260206004820152601160248201527010905117d4915515549397d05353d55395607a1b6044820152606401610193565b505050509392505050565b610f908363a9059cbb60e01b8484604051602401613bc192919061513a565b60408051601f198184030181529190526020810180516001600160e01b03166001600160e01b0319909316929092179091526144a6565b60008060005b8851811015613cfe576000898281518110613c1b57613c1b6150f6565b60200260200101511115613cec5781613c3357600191505b878181518110613c4557613c456150f6565b60200260200101516001600160a01b031663095ea7b373ba12222222228d8ba445958a75a0704d566bf2c88b8481518110613c8257613c826150f6565b60200260200101516040518363ffffffff1660e01b8152600401613ca792919061513a565b6020604051808303816000875af1158015613cc6573d6000803e3d6000fd5b505050506040513d601f19601f82011682018060405250810190613cea9190615153565b505b80613cf6816151f6565b915050613bfe565b5080613d445760405162461bcd60e51b81526020600482015260156024820152741393d7d3125455525112551657d41493d592511151605a1b6044820152606401610193565b6060836001600160a01b0316636f0f68f26040518163ffffffff1660e01b8152600401602060405180830381865afa158015613d84573d6000803e3d6000fd5b505050506040513d601f19601f82011682018060405250810190613da89190615153565b15613ec557600060018a51613dbd91906151df565b6001600160401b03811115613dd457613dd4614aa9565b604051908082528060200260200182016040528015613dfd578160200160208202803683370190505b5090506000805b8a51811015613e9657886001600160a01b03168b8281518110613e2957613e296150f6565b60200260200101516001600160a01b031614613e84578b8181518110613e5157613e516150f6565b6020026020010151838381518110613e6b57613e6b6150f6565b6020908102919091010152613e81600183615122565b91505b80613e8e816151f6565b915050613e04565b506001828a604051602001613ead939291906156c8565b60405160208183030381529060405292505050613eed565b60018988604051602001613edb939291906156c8565b60405160208183030381529060405290505b6040516370a0823160e01b81526000906001600160a01b038816906370a0823190613f1c908890600401614a95565b602060405180830381865afa158015613f39573d6000803e3d6000fd5b505050506040513d601f19601f82011682018060405250810190613f5d9190615211565b604080516080810182528b8152602081018d905280820185905260006060820152905163172b958560e31b81529192509073ba12222222228d8ba445958a75a0704d566bf2c89063b95cac2890613fbe908a9030908b90879060040161574c565b600060405180830381600087803b158015613fd857600080fd5b505af1158015613fec573d6000803e3d6000fd5b50506040516370a0823160e01b81528492506001600160a01b038b1691506370a082319061401e908a90600401614a95565b602060405180830381865afa15801561403b573d6000803e3d6000fd5b505050506040513d601f19601f8201168201806040525081019061405f9190615211565b61406991906151df565b9b9a5050505050505050505050565b60335460ff166140c15760405162461bcd60e51b815260206004820152601460248201527314185d5cd8589b194e881b9bdd081c185d5cd95960621b6044820152606401610193565b6033805460ff191690557f5db9ee0a495bf2e6ff9c91a7834c1ba4fdd244a5e8aa4e537bd38aeae4b073aa335b6040516140fb9190614a95565b60405180910390a1565b6040516001600160a01b038085166024830152831660448201526064810182905261413d9085906323b872dd60e01b90608401613bc1565b50505050565b60008054610100900460ff1615614191578160ff16600114801561416d575061416b30613649565b155b6141895760405162461bcd60e51b81526004016101939061580b565b506000919050565b60005460ff8084169116106141b85760405162461bcd60e51b81526004016101939061580b565b506000805460ff191660ff92909216919091179055600190565b919050565b600054610100900460ff166141fe5760405162461bcd60e51b815260040161019390615859565b614206614578565b565b60335460ff161561422b5760405162461bcd60e51b815260040161019390614f65565b6033805460ff191660011790557f62e78cea01bee320cd4e420270b5ea74000d11b0c9f74754ebdbfc544b05a2586140ee3390565b604051631f29a8cd60e31b81526004810182905260009073ba12222222228d8ba445958a75a0704d566bf2c89063f94d466890602401600060405180830381865afa1580156142b3573d6000803e3d6000fd5b505050506040513d6000823e601f3d908101601f191682016040526142db9190810190615270565b5050805190915083146143245760405162461bcd60e51b81526020600482015260116024820152700848288bea89e968a9ca6be988a9c8ea89607b1b6044820152606401610193565b60005b838110156143e057818181518110614341576143416150f6565b60200260200101516001600160a01b0316858583818110614364576143646150f6565b9050602002016020810190614379919061487c565b6001600160a01b0316146143ce5760405162461bcd60e51b815260206004820152601c60248201527b544f4b454e535f4e4f545f4d415443485f504f4f4c5f544f4b454e5360201b6044820152606401610193565b806143d8816151f6565b915050614327565b5050505050565b6143f081613649565b6144525760405162461bcd60e51b815260206004820152602d60248201527f455243313936373a206e657720696d706c656d656e746174696f6e206973206e60448201526c1bdd08184818dbdb9d1c9858dd609a1b6064820152608401610193565b60008051602061591483398151915280546001600160a01b0319166001600160a01b0392909216919091179055565b61448a836145ab565b6000825111806144975750805b15610f905761413d83836145eb565b60006144fb826040518060400160405280602081526020017f5361666545524332303a206c6f772d6c6576656c2063616c6c206661696c6564815250856001600160a01b03166146dd9092919063ffffffff16565b805190915015610f9057808060200190518101906145199190615153565b610f905760405162461bcd60e51b815260206004820152602a60248201527f5361666545524332303a204552433230206f7065726174696f6e20646964206e6044820152691bdd081cdd58d8d9595960b21b6064820152608401610193565b600054610100900460ff1661459f5760405162461bcd60e51b815260040161019390615859565b6033805460ff19169055565b6145b4816143e7565b6040516001600160a01b038216907fbc7cd75a20ee27fd9adebab32041f755214dbc6bffa90cc0225b39da2e5c2d3b90600090a250565b60606145f683613649565b6146515760405162461bcd60e51b815260206004820152602660248201527f416464726573733a2064656c65676174652063616c6c20746f206e6f6e2d636f6044820152651b9d1c9858dd60d21b6064820152608401610193565b600080846001600160a01b03168460405161466c91906158a4565b600060405180830381855af49150503d80600081146146a7576040519150601f19603f3d011682016040523d82523d6000602084013e6146ac565b606091505b50915091506146d48282604051806060016040528060278152602001615974602791396146f4565b95945050505050565b60606146ec848460008561472d565b949350505050565b60608315614703575081612cfa565b8251156147135782518084602001fd5b8160405162461bcd60e51b815260040161019391906158c0565b60608247101561478e5760405162461bcd60e51b815260206004820152602660248201527f416464726573733a20696e73756666696369656e742062616c616e636520666f6044820152651c8818d85b1b60d21b6064820152608401610193565b61479785613649565b6147e35760405162461bcd60e51b815260206004820152601d60248201527f416464726573733a2063616c6c20746f206e6f6e2d636f6e74726163740000006044820152606401610193565b600080866001600160a01b031685876040516147ff91906158a4565b60006040518083038185875af1925050503d806000811461483c576040519150601f19603f3d011682016040523d82523d6000602084013e614841565b606091505b50915091506148518282866146f4565b979650505050505050565b6001600160a01b03811681146105c157600080fd5b80356141d28161485c565b60006020828403121561488e57600080fd5b8135612cfa8161485c565b60008083601f8401126148ab57600080fd5b5081356001600160401b038111156148c257600080fd5b6020830191508360208285010111156148da57600080fd5b9250929050565b60008083601f8401126148f357600080fd5b5081356001600160401b0381111561490a57600080fd5b6020830191508360208260051b85010111156148da57600080fd5b600080600080600080600060a0888a03121561494057600080fd5b873561494b8161485c565b9650602088013561495b8161485c565b955060408801356001600160401b038082111561497757600080fd5b6149838b838c01614899565b909750955060608a013591508082111561499c57600080fd5b506149a98a828b016148e1565b90945092505060808801356149bd8161485c565b8091505092959891949750929550565b6020808252825182820181905260009190848201906040850190845b81811015614a0e5783516001600160a01b0316835292840192918401916001016149e9565b50909695505050505050565b600080600060608486031215614a2f57600080fd5b8335614a3a8161485c565b9250602084013591506040840135614a518161485c565b809150509250925092565b60008060408385031215614a6f57600080fd5b8235614a7a8161485c565b91506020830135614a8a8161485c565b809150509250929050565b6001600160a01b0391909116815260200190565b634e487b7160e01b600052604160045260246000fd5b604051601f8201601f191681016001600160401b0381118282101715614ae757614ae7614aa9565b604052919050565b60008060408385031215614b0257600080fd5b8235614b0d8161485c565b91506020838101356001600160401b0380821115614b2a57600080fd5b818601915086601f830112614b3e57600080fd5b813581811115614b5057614b50614aa9565b614b62601f8201601f19168501614abf565b91508082528784828501011115614b7857600080fd5b80848401858401376000848284010152508093505050509250929050565b600080600080600080600060c0888a031215614bb157600080fd5b8735614bbc8161485c565b96506020880135614bcc8161485c565b95506040880135945060608801356001600160401b03811115614bee57600080fd5b614bfa8a828b016148e1565b9095509350506080880135915060a08801356149bd8161485c565b600060208284031215614c2757600080fd5b5035919050565b60006001600160401b03821115614c4757614c47614aa9565b5060051b60200190565b60008060008060008060a08789031215614c6a57600080fd5b8635614c758161485c565b95506020878101356001600160401b0380821115614c9257600080fd5b818a0191508a601f830112614ca657600080fd5b8135614cb9614cb482614c2e565b614abf565b81815260059190911b8301840190848101908d831115614cd857600080fd5b938501935b82851015614cf657843582529385019390850190614cdd565b9950505060408a0135925080831115614d0e57600080fd5b5050614d1c89828a016148e1565b90955093505060608701359150614d3560808801614871565b90509295509295509295565b60008060008060008060808789031215614d5a57600080fd5b8635614d658161485c565b955060208701356001600160401b0380821115614d8157600080fd5b614d8d8a838b01614899565b90975095506040890135915080821115614da657600080fd5b50614db389828a016148e1565b9094509250506060870135614dc78161485c565b809150509295509295509295565b600080600080600060808688031215614ded57600080fd5b8535614df88161485c565b945060208601356001600160401b03811115614e1357600080fd5b614e1f888289016148e1565b909550935050604086013591506060860135614e3a8161485c565b809150509295509295909350565b60008060008060008060808789031215614e6157600080fd5b8635614e6c8161485c565b955060208701356001600160401b0380821115614e8857600080fd5b614d8d8a838b016148e1565b600081518084526020808501945080840160005b83811015614ec457815187529582019590820190600101614ea8565b509495945050505050565b604081526000614ee26040830185614e94565b90508260208301529392505050565b6020808252602c908201526000805160206158f483398151915260408201526b19195b1959d85d1958d85b1b60a21b606082015260800190565b6020808252602c908201526000805160206158f483398151915260408201526b6163746976652070726f787960a01b606082015260800190565b60208082526010908201526f14185d5cd8589b194e881c185d5cd95960821b604082015260600190565b600060208284031215614fa157600080fd5b8151612cfa8161485c565b6020808252600f908201526e4641524d5f4e4f545f45584953545360881b604082015260600190565b81835281816020850137506000828201602090810191909152601f909101601f19169091010190565b608081526000615012608083018789614fd5565b82810360208401526150248187614e94565b6001600160a01b0395861660408501529390941660609092019190915250949350505050565b600082601f83011261505b57600080fd5b8151602061506b614cb483614c2e565b82815260059290921b8401810191818101908684111561508a57600080fd5b8286015b848110156150a5578051835291830191830161508e565b509695505050505050565b600080604083850312156150c357600080fd5b82516001600160401b038111156150d957600080fd5b6150e58582860161504a565b925050602083015190509250929050565b634e487b7160e01b600052603260045260246000fd5b634e487b7160e01b600052601160045260246000fd5b600082198211156151355761513561510c565b500190565b6001600160a01b03929092168252602082015260400190565b60006020828403121561516557600080fd5b81518015158114612cfa57600080fd5b6000808335601e1984360301811261518c57600080fd5b8301803591506001600160401b038211156151a657600080fd5b6020019150368190038213156148da57600080fd5b600080604083850312156151ce57600080fd5b505080516020909101519092909150565b6000828210156151f1576151f161510c565b500390565b600060001982141561520a5761520a61510c565b5060010190565b60006020828403121561522357600080fd5b5051919050565b9182526001600160a01b0316602082015260400190565b60208082526015908201527410d05313115497d393d517d055551213d492569151605a1b604082015260600190565b60008060006060848603121561528557600080fd5b83516001600160401b038082111561529c57600080fd5b818601915086601f8301126152b057600080fd5b815160206152c0614cb483614c2e565b82815260059290921b8401810191818101908a8411156152df57600080fd5b948201945b838610156153065785516152f78161485c565b825294820194908201906152e4565b9189015191975090935050508082111561531f57600080fd5b5061532c8682870161504a565b925050604084015190509250925092565b6020808252600d908201526c1393d7d513d2d15397d4d15395609a1b604082015260600190565b6020808252601e908201527f494e5055545f504152414d535f4c454e475448535f4e4f545f4d415443480000604082015260600190565b6020808252600d908201526c1393d7d350551250d7d4d15395609a1b604082015260600190565b6000808335601e198436030181126153d957600080fd5b83016020810192503590506001600160401b038111156153f857600080fd5b8060051b36038313156148da57600080fd5b8183526000602080850194508260005b85811015614ec457813561542d8161485c565b6001600160a01b03168752958201959082019060010161541a565b8183526000602080850194508260005b85811015614ec457813587529582019590820190600101615458565b8183526000602084018094508360051b81018360005b86811015614a0e578383038852605e19863603018235126154aa57600080fd5b858235016154b881826153c2565b606086526060860181815260808701905060808260051b8801018360005b8481101561559657898303607f1901845236869003609e19018235126154fb57600080fd5b85823501803584526020810135602085015260408101356040850152606081013560608501526080810135601e1982360301811261553857600080fd5b6001600160401b0381830135111561554f57600080fd5b81810135360382131561556157600080fd5b60a0608086015261557e60a0860183830135602085850101614fd5565b602096870196909550939093019250506001016154d6565b50506155a560208601866153c2565b9450925087810360208901526155bc81858561540a565b93505050506155ce60408301836153c2565b925085820360408701526155e3828483615448565b60209b8c019b909650949094019350505060010161548a565b608081526000615610608083018789615474565b8281036020840152615623818688615474565b84516001600160a01b03166040850152602090940151606090930192909252509095945050505050565b60808152600061566160808301888a614fd5565b82810360208401528581526001600160fb1b0386111561568057600080fd5b8560051b80886020840137600091016020019081526001600160a01b0394851660408401529290931660609091015295945050505050565b8183823760009101908152919050565b60ff841681526060602082015260006156e46060830185614e94565b9050826040830152949350505050565b60005b8381101561570f5781810151838201526020016156f7565b8381111561413d5750506000910152565b600081518084526157388160208601602086016156f4565b601f01601f19169290920160200192915050565b8481526000602060018060a01b038087168285015280861660408501526080606085015261010084018551608080870152818151808452610120880191508583019350600092505b808310156157b657835185168252928501926001929092019190850190615794565b50848801519450607f199350838782030160a08801526157d68186614e94565b94505050506040850151818584030160c08601526157f48382615720565b9250505060608401516150a560e085018215159052565b6020808252602e908201527f496e697469616c697a61626c653a20636f6e747261637420697320616c72656160408201526d191e481a5b9a5d1a585b1a5e995960921b606082015260800190565b6020808252602b908201527f496e697469616c697a61626c653a20636f6e7472616374206973206e6f74206960408201526a6e697469616c697a696e6760a81b606082015260800190565b600082516158b68184602087016156f4565b9190910192915050565b602081526000612cfa602083018461572056fe3115d1449a7b732c986cba18244e897a450f61e1bb8d589cd2e69e6c8924f9f746756e6374696f6e206d7573742062652063616c6c6564207468726f75676820360894a13ba1a3210667c828492db98dca3e2076cc3735a920a3ca505d382bbc7cfff908a4b583f36430b25d75964c458d8ede8a99bd61be750e97ee1b2f3a9665d7a28e3265b37a6474929f336521b332c1681b933f6cb9f3376673440d862a416464726573733a206c6f772d6c6576656c2064656c65676174652063616c6c206661696c65640000000000000000000000000d500b1d8e8ef31e21c99d1db9a6444d3adf1270a26469706673582212203466024e0ec2ed5825ef125f49fe578855a0da00546769e5ceb17a20bae3ac1064736f6c634300080a0033",
  "immutableReferences": {
    "561": [
      {
        "length": 32,
        "start": 1286
      },
      {
        "length": 32,
        "start": 1350
      },
      {
        "length": 32,
        "start": 4000
      },
      {
        "length": 32,
        "start": 4064
      },
      {
        "length": 32,
        "start": 4452
      }
    ]
  },
  "source": "// SPDX-License-Identifier: MIT\r\npragma solidity 0.8.10;\r\n\r\nimport {IUnoFarmBalancer as Farm} from '../apps/balancer/interfaces/IUnoFarmBalancer.sol'; \r\nimport '../interfaces/IUnoFarmFactory.sol';\r\nimport '../interfaces/IUnoAccessManager.sol'; \r\nimport '../interfaces/IVault.sol'; \r\nimport \"../interfaces/IBasePool.sol\";\r\nimport '../interfaces/IWMATIC.sol';\r\nimport '@openzeppelin/contracts-upgradeable/token/ERC20/IERC20Upgradeable.sol';\r\nimport '@openzeppelin/contracts-upgradeable/token/ERC20/utils/SafeERC20Upgradeable.sol';\r\nimport '@openzeppelin/contracts-upgradeable/proxy/utils/Initializable.sol';\r\nimport '@openzeppelin/contracts-upgradeable/security/PausableUpgradeable.sol';\r\nimport '@openzeppelin/contracts-upgradeable/proxy/utils/UUPSUpgradeable.sol';\r\n\r\ncontract UnoAssetRouterBalancerV2 is Initializable, PausableUpgradeable, UUPSUpgradeable {\r\n    using SafeERC20Upgradeable for IERC20Upgradeable;\r\n\r\n    /**\r\n     * @dev Contract Variables:\r\n     * farmFactory - The contract that deploys new Farms and links them to {lpPool}s.\r\n     * accessManager - Role manager contract.\r\n     */\r\n    IUnoFarmFactory public farmFactory;\r\n    IUnoAccessManager public accessManager;\r\n\r\n    bytes32 private constant DISTRIBUTOR_ROLE = keccak256('DISTRIBUTOR_ROLE');\r\n    bytes32 private constant PAUSER_ROLE = keccak256('PAUSER_ROLE');\r\n\r\n    IVault constant private Vault = IVault(0xBA12222222228d8Ba445958a75a0704d566BF2C8);\r\n\r\n    uint256 public fee;\r\n\r\n    address public constant WMATIC = 0x0d500B1d8E8eF31E21C99d1Db9A6444d3ADf1270;\r\n    address private constant OneInchRouter = 0x1111111254EEB25477B68fb85Ed929f73A960582;\r\n\r\n    uint256 public constant version = 2;\r\n\r\n    event Deposit(address indexed lpPool, address indexed sender, address indexed recipient, uint256 amount);\r\n    event Withdraw(address indexed lpPool, address indexed sender, address indexed recipient, uint256 amount);\r\n    event Distribute(address indexed lpPool, uint256 reward);\r\n\r\n    event FeeChanged(uint256 previousFee, uint256 newFee);\r\n\r\n    modifier onlyRole(bytes32 role){\r\n        require(accessManager.hasRole(role, msg.sender), 'CALLER_NOT_AUTHORIZED');\r\n        _;\r\n    }\r\n\r\n    // ============ Methods ============\r\n\r\n    /// @custom:oz-upgrades-unsafe-allow constructor\r\n    constructor() {\r\n        _disableInitializers();\r\n    }\r\n\r\n    function initialize(address _accessManager, address _farmFactory) external initializer{\r\n        require (_accessManager != address(0), 'BAD_ACCESS_MANAGER');\r\n        require (_farmFactory != address(0), 'BAD_FARM_FACTORY');\r\n\r\n        __Pausable_init();\r\n        accessManager = IUnoAccessManager(_accessManager);\r\n        farmFactory = IUnoFarmFactory(_farmFactory);\r\n    }\r\n\r\n    receive() external payable {\r\n        require(msg.sender == WMATIC, 'ONLY_ACCEPT_WMATIC'); // only accept ETH via fallback from the WMATIC contract\r\n    }\r\n\r\n    /**\r\n     * @dev Deposits tokens in the given pool. Creates new Farm contract if there isn't one deployed for the {lpPool} and deposits tokens in it.\r\n     * @param lpPool - Address of the pool to deposit tokens in.\r\n     * @param amounts - Amounts of tokens to deposit.\r\n     * @param tokens - Tokens to deposit.\r\n     * @param minAmountLP - Minimum LP the user will receive from {tokens} deposit.\r\n     * @param recipient - Address which will receive the deposit.\r\n\r\n     * @return liquidity - Total liquidity sent to the farm (in lpTokens).\r\n     */\r\n    function deposit(address lpPool, uint256[] memory amounts, address[] calldata tokens, uint256 minAmountLP, address recipient) external whenNotPaused returns(uint256 liquidity){\r\n        require (amounts.length == tokens.length, 'INPUT_PARAMS_LENGTHS_NOT_MATCH');\r\n        Farm farm = Farm(farmFactory.Farms(lpPool));\r\n        if(farm == Farm(address(0))){\r\n            farm = Farm(farmFactory.createFarm(lpPool));\r\n        }\r\n\r\n        bytes32 poolId = farm.poolId();\r\n        _checkTokens(tokens, poolId);\r\n\r\n        for (uint256 i = 0; i < tokens.length; i++) {\r\n            if(amounts[i] > 0){\r\n                if(tokens[i] == lpPool){\r\n                    amounts[i] == 0;\r\n                    continue;\r\n                }\r\n                IERC20Upgradeable(tokens[i]).safeTransferFrom(msg.sender, address(this), amounts[i]);\r\n            }\r\n        }\r\n\r\n        liquidity = _addLiquidity(amounts, tokens, minAmountLP, lpPool, poolId, farm);\r\n        farm.deposit(liquidity, recipient);\r\n\r\n        emit Deposit(lpPool, msg.sender, recipient, liquidity); \r\n    }\r\n\r\n    /**\r\n     * @dev Autoconverts MATIC into WMATIC and deposits tokens in the given pool. Creates new Farm contract if there isn't one deployed for the {lpPool} and deposits tokens in it.\r\n     * @param lpPool - Address of the pool to deposit tokens in.\r\n     * @param amounts - Amounts of tokens to deposit.\r\n     * @param tokens - Tokens to deposit.\r\n     * @param minAmountLP - Minimum LP the user will receive from {tokens} deposit.\r\n     * @param recipient - Address which will receive the deposit.\r\n\r\n     * @return liquidity - Total liquidity sent to the farm (in lpTokens).\r\n     */\r\n    function depositETH(address lpPool, uint256[] memory amounts, address[] calldata tokens, uint256 minAmountLP, address recipient) external payable whenNotPaused returns(uint256 liquidity){\r\n        require (msg.value > 0, \"NO_MATIC_SENT\");\r\n        require (amounts.length == tokens.length, 'INPUT_PARAMS_LENGTHS_NOT_MATCH');\r\n        Farm farm = Farm(farmFactory.Farms(lpPool));\r\n        if(farm == Farm(address(0))){\r\n            farm = Farm(farmFactory.createFarm(lpPool));\r\n        }\r\n\r\n        bytes32 poolId = farm.poolId();\r\n        _checkTokens(tokens, poolId);\r\n\r\n        bool WMATICInTokens;\r\n        IWMATIC(WMATIC).deposit{value: msg.value}();\r\n        for (uint256 i = 0; i < tokens.length; i++) {\r\n            if(tokens[i] == lpPool){\r\n                amounts[i] == 0;\r\n                continue;\r\n            }\r\n            if(tokens[i] == WMATIC){\r\n                amounts[i] = msg.value;\r\n                WMATICInTokens = true;\r\n                continue;\r\n            }\r\n            if(amounts[i] > 0){\r\n                IERC20Upgradeable(tokens[i]).safeTransferFrom(msg.sender, address(this), amounts[i]);\r\n            }\r\n        }\r\n        require(WMATICInTokens, \"NO_WMATIC_IN_TOKENS\");\r\n\r\n        liquidity = _addLiquidity(amounts, tokens, minAmountLP, lpPool, poolId, farm);\r\n        farm.deposit(liquidity, recipient);\r\n        \r\n        emit Deposit(lpPool, msg.sender, recipient, liquidity); \r\n    }\r\n\r\n    /**\r\n     * @dev Deposits single token in the given pool. Creates new Farm contract if there isn't one deployed for the {lpPool}, swaps {token} for pool tokens and deposits them. Emits a {Deposit} event.\r\n     * @param lpPool - Address of the pool to deposit tokens in.\r\n     * @param token  - Address of a token to enter the pool.\r\n     * @param amount - Amount of token sent.\r\n     * @param swapData - Parameter with which 1inch router is being called with.\r\n     * @param minAmountLP - Minimum LP the user will receive from {tokens} deposit.\r\n     * @param recipient - Address which will receive the deposit.\r\n     \r\n     * @return sent - Total {token} amount sent to the farm. \r\n     * @return liquidity - Total liquidity sent to the farm (in lpTokens).\r\n     */\r\n    function depositSingleAsset(address lpPool, address token, uint256 amount, bytes[] calldata swapData, uint256 minAmountLP, address recipient) external whenNotPaused returns(uint256 sent, uint256 liquidity){\r\n        require (amount > 0, \"NO_TOKEN_SENT\");\r\n        address[] memory tokens = _convertToAddressArray(getTokens(lpPool));\r\n        require (swapData.length == tokens.length, 'INPUT_PARAMS_LENGTHS_NOT_MATCH');\r\n\r\n        Farm farm = Farm(farmFactory.Farms(lpPool));\r\n        if(farm == Farm(address(0))){\r\n            farm = Farm(farmFactory.createFarm(lpPool));\r\n        }\r\n\r\n        IERC20Upgradeable(token).safeTransferFrom(msg.sender, address(this), amount);\r\n        IERC20Upgradeable(token).approve(OneInchRouter, amount);\r\n\r\n        uint256[] memory amounts = new uint256[](tokens.length);\r\n        {\r\n        sent = amount;\r\n        int256 tokenIndex = -1;\r\n        for (uint256 i = 0; i < tokens.length; i++) {\r\n            if (tokens[i] == lpPool) {\r\n                continue;\r\n            }\r\n            if (tokens[i] == token) {\r\n                tokenIndex = int(i);\r\n                continue;\r\n            }\r\n            bytes memory data = _swap(swapData[i], tokens[i]);\r\n            (uint256 returnAmount, uint256 spentAmount) = abi.decode(data, (uint256, uint256));\r\n            amounts[i] = returnAmount;\r\n            amount -= spentAmount;\r\n        }\r\n\r\n        if (tokenIndex != -1) {\r\n            amounts[uint256(tokenIndex)] = amount;\r\n        } else if (amount > 0) {\r\n            sent -= amount;\r\n            IERC20Upgradeable(token).safeTransfer(msg.sender, amount);\r\n        }\r\n        }\r\n        \r\n        liquidity = _addLiquidity(amounts, tokens, minAmountLP, farm.lpPool(), farm.poolId(), farm);//Have to use farm.lpPool() instead of lpPool to avoid stack too deep error\r\n        farm.deposit(liquidity, recipient);\r\n\r\n        emit Deposit(lpPool, msg.sender, recipient, liquidity);\r\n    }\r\n\r\n    /**\r\n     * @dev Deposits single MATIC in the given pool. Creates new Farm contract if there isn't one deployed for the {lpPool}, swaps MATIC for pool tokens and deposits them. Emits a {Deposit} event.\r\n     * @param lpPool - Address of the pool to deposit tokens in.\r\n     * @param swapData - Parameter with which 1inch router is being called with.\r\n     * @param minAmountLP - Minimum LP the user will receive from {tokens} deposit.\r\n     * @param recipient - Address which will receive the deposit.\r\n     \r\n     * @return sentETH - Total MATIC amount sent to the farm. \r\n     * @return liquidity - Total liquidity sent to the farm (in lpTokens).\r\n     */\r\n    function depositSingleETH(address lpPool, bytes[] calldata swapData, uint256 minAmountLP, address recipient) external payable whenNotPaused returns(uint256 sentETH, uint256 liquidity){\r\n        require (msg.value > 0, \"NO_MATIC_SENT\");\r\n        address[] memory tokens = _convertToAddressArray(getTokens(lpPool));\r\n        require (swapData.length == tokens.length, 'INPUT_PARAMS_LENGTHS_NOT_MATCH');\r\n\r\n        Farm farm = Farm(farmFactory.Farms(lpPool));\r\n        if(farm == Farm(address(0))){\r\n            farm = Farm(farmFactory.createFarm(lpPool));\r\n        }\r\n\r\n        uint256 amount = msg.value;\r\n        IWMATIC(WMATIC).deposit{value: amount}();\r\n        IERC20Upgradeable(WMATIC).approve(OneInchRouter, amount);\r\n\r\n        uint256[] memory amounts = new uint256[](tokens.length);\r\n        {\r\n        sentETH = amount;\r\n        int256 wmaticIndex = -1;\r\n        for (uint256 i = 0; i < tokens.length; i++) {\r\n            if (tokens[i] == lpPool) {\r\n                continue;\r\n            }\r\n            if (tokens[i] == WMATIC) {\r\n                wmaticIndex = int(i);\r\n                continue;\r\n            }\r\n            bytes memory data = _swap(swapData[i], tokens[i]);\r\n            (uint256 returnAmount, uint256 spentAmount) = abi.decode(data, (uint256, uint256));\r\n            if (returnAmount > 0) {\r\n                amounts[i] = returnAmount;\r\n            }\r\n            amount -= spentAmount;\r\n        }\r\n\r\n        if (wmaticIndex != -1) {\r\n            amounts[uint(wmaticIndex)] = amount;\r\n        } else if (amount > 0){\r\n            sentETH -= amount;\r\n            IWMATIC(WMATIC).withdraw(amount);\r\n            payable(msg.sender).transfer(amount);\r\n        }\r\n        }\r\n\r\n        liquidity = _addLiquidity(amounts, tokens, minAmountLP, farm.lpPool(), farm.poolId(), farm);//Have to use farm.lpPool() instead of lpPool to avoid stack too deep error\r\n        farm.deposit(liquidity, recipient);\r\n\r\n        emit Deposit(lpPool, msg.sender, recipient, liquidity);\r\n    }\r\n\r\n    /**\r\n     * @dev Deposits tokens in the given pool. Creates new Farm contract if there isn't one deployed for the {lpPool} and deposits tokens in it. Emits a {Deposit} event.\r\n     * @param lpPool - Address of the pool to deposit tokens in.\r\n     * @param amount - LP Token amount to deposit.\r\n     * @param recipient - Address which will receive the deposit.\r\n     */\r\n    function depositLP(address lpPool, uint256 amount, address recipient) external whenNotPaused{\r\n        require(amount > 0, \"NO_TOKEN_SENT\");\r\n        Farm farm = Farm(farmFactory.Farms(lpPool));\r\n        if(farm == Farm(address(0))){\r\n            farm = Farm(farmFactory.createFarm(lpPool));\r\n        }\r\n\r\n        IERC20Upgradeable(lpPool).safeTransferFrom(msg.sender, address(farm), amount);\r\n        farm.deposit(amount, recipient);\r\n\r\n        emit Deposit(lpPool, msg.sender, recipient, amount); \r\n    }\r\n\r\n    /** \r\n     * @dev Withdraws tokens from the given pool. \r\n     * @param lpPool - LP pool to withdraw from.\r\n     * @param userData - Balancer pool exit userData.\r\n     * @param minAmountsOut - Minimum token amounts the user will receive.\r\n     * @param recipient - The address which will receive tokens.\r\n\r\n     * @return amounts - Token amounts sent to the {recipient}.\r\n     * @return liquidity - Total liquidity sent to the user (in lpTokens).\r\n     */ \r\n    function withdraw(address lpPool, bytes calldata userData, uint256[] calldata minAmountsOut, address recipient) external returns(uint256[] memory amounts, uint256 liquidity){ \r\n        Farm farm = Farm(farmFactory.Farms(lpPool));\r\n        require(farm != Farm(address(0)),'FARM_NOT_EXISTS');\r\n\r\n        (amounts, liquidity) = farm.withdrawTokens(userData, minAmountsOut, msg.sender, recipient);\r\n        emit Withdraw(lpPool, msg.sender, recipient, liquidity);\r\n    }\r\n\r\n    /** \r\n     * @dev Autoconverts WMATIC into MATIC and withdraws tokens from the given pool. \r\n     * @param lpPool - LP pool to withdraw from.\r\n     * @param userData -  Balancer pool exit userData.\r\n     * @param minAmountsOut - Minimum token amounts the user will receive.\r\n     * @param recipient - The address which will receive tokens.\r\n\r\n     * @return amounts - Token amounts sent to the {recipient}.\r\n     * @return liquidity - Total liquidity sent to the user (in lpTokens).\r\n     */ \r\n    function withdrawETH(address lpPool, bytes calldata userData, uint256[] calldata minAmountsOut, address recipient) external returns(uint256[] memory amounts, uint256 liquidity){ \r\n        Farm farm = Farm(farmFactory.Farms(lpPool));\r\n        require(farm != Farm(address(0)),'FARM_NOT_EXISTS');\r\n\r\n        (amounts, liquidity) = farm.withdrawTokens(userData, minAmountsOut, msg.sender, address(this));\r\n\r\n        IERC20[] memory tokens = getTokens(lpPool);\r\n        for (uint256 i = 0; i < tokens.length; i++) {\r\n            if (amounts[i] == 0){\r\n                continue;\r\n            }\r\n            if (address(tokens[i]) != WMATIC) {\r\n                IERC20Upgradeable(address(tokens[i])).safeTransfer(recipient, amounts[i]);\r\n                continue;\r\n            }\r\n            IWMATIC(WMATIC).withdraw(amounts[i]);\r\n            payable(recipient).transfer(amounts[i]);\r\n        }\r\n\r\n        emit Withdraw(lpPool, msg.sender, recipient, liquidity);  \r\n    }\r\n\r\n    /**\r\n     * @dev Withdraws single token from the given pool. Emits a {Withdraw} event. Note: If there are any tokens left to be withdrawn after swaps they will be sent to the {{recipient}} in a respective token (not in {token}).\r\n     * @param lpPool - LP pool to withdraw from.\r\n     * @param token  - Address of a token to exit the pool with.\r\n     * @param userData - Balancer pool exit userData.\r\n     * @param swapData - Parameters with which 1inch router is being called with.\r\n     * @param recipient - Address which will receive the deposit.\r\n     \r\n     * @return amount - {token} amount sent to the {recipient}.\r\n     * @return liquidity - Total liquidity sent to the user (in lpTokens).\r\n     */\r\n    function withdrawSingleAsset(address lpPool, address token, bytes calldata userData, bytes[] calldata swapData, address recipient) external whenNotPaused returns(uint256 amount, uint256 liquidity){\r\n        Farm farm = Farm(farmFactory.Farms(lpPool));\r\n        require(farm != Farm(address(0)),'FARM_NOT_EXISTS');\r\n\r\n        address[] memory tokens = _convertToAddressArray(getTokens(lpPool));\r\n        uint256[] memory amounts = new uint256[](tokens.length);\r\n        (amounts, liquidity) = farm.withdrawTokens(userData, amounts, msg.sender, address(this));\r\n\r\n        for (uint256 i = 0; i < tokens.length; i++) {\r\n            if (tokens[i] == token) {\r\n                amount += amounts[i];\r\n                continue;\r\n            }\r\n            IERC20(tokens[i]).approve(OneInchRouter, amounts[i]);\r\n            bytes memory data = _swap(swapData[i], token);\r\n            (uint256 returnAmount, uint256 spentAmount) = abi.decode(data, (uint256, uint256));\r\n            amount += returnAmount;\r\n            // Dust\r\n            amounts[i] -= spentAmount;\r\n        }\r\n        \r\n        IERC20Upgradeable(token).safeTransfer(recipient, amount);\r\n\r\n        // Not important to have minAmountLP here because we add back dust to the pool which should be very small if correct {swapData} is provided\r\n        uint256 liquidityReturned = _addLiquidity(amounts, tokens, 0, farm.lpPool(), farm.poolId(), farm);\r\n        farm.deposit(liquidityReturned, msg.sender);\r\n        liquidity -= liquidityReturned;\r\n\r\n        emit Withdraw(lpPool, msg.sender, recipient, liquidity);\r\n    }\r\n     \r\n    /**\r\n     * @dev Withdraws single MATIC from the given pool. Emits a {Withdraw} event. Note: If there are any tokens left to be withdrawn after swaps they will be sent to the {{recipient}} in a respective token (not in MATIC).\r\n     * @param lpPool - LP pool to withdraw from.\r\n     * @param userData - Balancer pool exit userData.\r\n     * @param swapData - Parameters with which 1inch router is being called with.\r\n     * @param recipient - Address which will receive the deposit.\r\n     \r\n     * @return amountETH - MATIC amount sent to the {recipient}.\r\n     * @return liquidity - Total liquidity sent to the user (in lpTokens).\r\n     */\r\n    function withdrawSingleETH(address lpPool, bytes calldata userData, bytes[] calldata swapData, address recipient) external whenNotPaused returns(uint256 amountETH, uint256 liquidity){\r\n        Farm farm = Farm(farmFactory.Farms(lpPool));\r\n        require(farm != Farm(address(0)),'FARM_NOT_EXISTS');\r\n\r\n        address[] memory tokens = _convertToAddressArray(getTokens(lpPool));\r\n        uint256[] memory amounts = new uint256[](tokens.length);\r\n        (amounts, liquidity) = farm.withdrawTokens(userData, amounts, msg.sender, address(this));\r\n\r\n        for (uint256 i = 0; i < tokens.length; i++) {\r\n            if (tokens[i] == WMATIC) {\r\n                amountETH += amounts[i];\r\n                continue;\r\n            }\r\n            IERC20(tokens[i]).approve(OneInchRouter, amounts[i]);\r\n            bytes memory data = _swap(swapData[i], WMATIC);\r\n            (uint256 returnAmount, uint256 spentAmount) = abi.decode(data, (uint256, uint256));\r\n            amountETH += returnAmount;\r\n            // Dust\r\n            amounts[i] -= spentAmount;\r\n        }\r\n\r\n        IWMATIC(WMATIC).withdraw(amountETH);\r\n        payable(recipient).transfer(amountETH);\r\n        \r\n        // Not important to have minAmountLP here because we add back dust to the pool which should be very small if correct {swapData} is provided\r\n        uint256 liquidityReturned = _addLiquidity(amounts, tokens, 0, farm.lpPool(), farm.poolId(), farm);\r\n        farm.deposit(liquidityReturned, msg.sender);\r\n        liquidity -= liquidityReturned;\r\n\r\n        emit Withdraw(lpPool, msg.sender, recipient, liquidity);\r\n    }\r\n\r\n    /** \r\n     * @dev Withdraws LP tokens from the given pool. Emits a {Withdraw} event.\r\n     * @param lpPool - LP pool to withdraw from.\r\n     * @param amount - LP amount to withdraw. \r\n     * @param recipient - The address which will receive tokens.\r\n     */ \r\n    function withdrawLP(address lpPool, uint256 amount, address recipient) external {\r\n        Farm farm = Farm(farmFactory.Farms(lpPool));\r\n        require(farm != Farm(address(0)),'FARM_NOT_EXISTS');\r\n        \r\n        farm.withdraw(amount, msg.sender, recipient);\r\n        emit Withdraw(lpPool, msg.sender, recipient, amount);  \r\n    }\r\n\r\n    /**\r\n     * @dev Distributes tokens between users for a single {Farms[lpPool]}.\r\n     * @param lpPool - The pool to distribute. \r\n     * @param swapInfos - The data used to swap reward tokens for the needed tokens.\r\n     * @param feeSwapInfos - The data used to swap reward tokens for fees.\r\n     * @param feeTo - Address to collect fees to.\r\n     *\r\n     * Note: This function can only be called by the distributor.\r\n     */\r\n    function distribute(\r\n        address lpPool,\r\n        Farm.SwapInfo[] calldata swapInfos,\r\n        Farm.SwapInfo[] calldata feeSwapInfos,\r\n        address feeTo\r\n    ) external whenNotPaused onlyRole(DISTRIBUTOR_ROLE) {\r\n        Farm farm = Farm(farmFactory.Farms(lpPool));\r\n        require(farm != Farm(address(0)), 'FARM_NOT_EXISTS');\r\n\r\n        uint256 reward = farm.distribute(swapInfos, feeSwapInfos, Farm.FeeInfo(feeTo, fee));\r\n        emit Distribute(lpPool, reward);\r\n    }\r\n\r\n    /**\r\n     * @dev Returns LP tokens staked by the {_address} for the given {lpPool}.\r\n     * @param _address - The address to check stakes for.\r\n     * @param lpPool - LP pool to check stakes in.\r\n\r\n     * @return Total user stake(in LP tokens).\r\n     */\r\n   function userStake(address _address, address lpPool) external view returns(uint256){\r\n        Farm farm = Farm(farmFactory.Farms(lpPool));\r\n        if (farm != Farm(address(0))) {\r\n            return farm.userBalance(_address);\r\n        }\r\n        return 0;\r\n    }\r\n\r\n    /**\r\n     * @dev Returns total amount locked in the pool. Doesn't take pending rewards into account.\r\n     * @param lpPool - LP pool to check total deposits in.\r\n\r\n     * @return Total deposits (in LP tokens).\r\n     */\r\n    function totalDeposits(address lpPool) external view returns (uint256) {\r\n        Farm farm = Farm(farmFactory.Farms(lpPool));\r\n        if (farm != Farm(address(0))) {\r\n            return farm.getTotalDeposits();\r\n        }\r\n        return 0;\r\n    }\r\n\r\n    /**\r\n     * @dev Returns addresses of tokens in {lpPool}.\r\n     * @param lpPool - LP pool to check tokens in.\r\n\r\n     * @return tokens - Token addresses.\r\n     */  \r\n    function getTokens(address lpPool) public view returns(IERC20[] memory tokens){\r\n        bytes32 poolId = IBasePool(lpPool).getPoolId();\r\n        (tokens, , ) = Vault.getPoolTokens(poolId);\r\n    }\r\n\r\n    /**\r\n     * @dev Deposits assets to router\r\n     */ \r\n    function _addLiquidity(\r\n        uint256[] memory amounts, \r\n        address[] memory tokens,\r\n        uint256 minAmountLP,\r\n        address lpPool,\r\n        bytes32 poolId,\r\n        Farm farm\r\n    ) internal returns(uint256 liquidity){\r\n        bool joinPool;\r\n        for (uint256 i = 0; i < amounts.length; i++) {\r\n            if(amounts[i] > 0){\r\n                if(!joinPool){\r\n                    joinPool = true;\r\n                }\r\n                IERC20Upgradeable(tokens[i]).approve(address(Vault), amounts[i]);\r\n            }\r\n        }\r\n        require (joinPool, 'NO_LIQUIDITY_PROVIDED');\r\n\r\n        bytes memory userData;\r\n        if(farm.isComposable()){\r\n            //If pool has pre-minted BPT then don't include those in userData.\r\n            uint256[] memory _amounts = new uint256[](amounts.length - 1);\r\n            uint256 _i = 0;\r\n            for (uint256 i = 0; i < tokens.length; i++) {\r\n                if(tokens[i] != lpPool){\r\n                    _amounts[_i] = amounts[i];\r\n                    _i += 1;\r\n                }\r\n            }\r\n            userData = abi.encode(1, _amounts, minAmountLP);\r\n        } else {\r\n            userData = abi.encode(1, amounts, minAmountLP);\r\n        }\r\n\r\n        uint256 amountBefore = IERC20(lpPool).balanceOf(address(farm));\r\n        IVault.JoinPoolRequest memory joinPoolRequest = IVault.JoinPoolRequest(tokens, amounts, userData, false);\r\n        Vault.joinPool(poolId, address(this), address(farm), joinPoolRequest);\r\n\r\n        liquidity = IERC20(lpPool).balanceOf(address(farm)) - amountBefore;\r\n    }\r\n\r\n    /**\r\n     * @dev Compares passed calldata tokens with real pool tokens\r\n     */ \r\n    function _checkTokens(\r\n        address[] calldata tokens,\r\n        bytes32 poolId\r\n    ) internal view {\r\n        (IERC20[] memory _tokens,,) = Vault.getPoolTokens(poolId);\r\n        require (tokens.length == _tokens.length, 'BAD_TOKENS_LENGTH');\r\n        for (uint256 i = 0; i < tokens.length; i++) {\r\n            require (tokens[i] == address(_tokens[i]), 'TOKENS_NOT_MATCH_POOL_TOKENS');\r\n        }\r\n    }\r\n\r\n    /**\r\n     * @dev Swaps assets using 1inch exchange.\r\n     */  \r\n    function _swap(bytes calldata swapData, address toToken) internal returns(bytes memory data){\r\n        uint256 balanceBefore = IERC20Upgradeable(toToken).balanceOf(address(this));\r\n        bool success;\r\n        (success, data) = OneInchRouter.call(swapData);\r\n        require(success, \"SWAP_NOT_SUCCESSFUL\");\r\n\r\n        //not return returnAmount with spentAmount to avoid stack too deep errors\r\n        (uint256 returnAmount,) = abi.decode(data, (uint256, uint256));\r\n        //checks if all {{toToken}}s from swap were transfered to this address\r\n        uint256 balanceAfter = IERC20Upgradeable(toToken).balanceOf(address(this));\r\n        require(balanceAfter - balanceBefore == returnAmount, \"BAD_RETURN_AMOUNT\");\r\n    }\r\n\r\n    function _convertToAddressArray(IERC20[] memory tokenArray) internal pure returns (address[] memory addresses) {\r\n        addresses = new address[](tokenArray.length);\r\n        for (uint256 i = 0; i < tokenArray.length; i++) {\r\n            addresses[i] = address(tokenArray[i]);\r\n        }\r\n    }\r\n\r\n    /**\r\n     * @dev Change fee amount.\r\n     * @param _fee -New fee to collect from farms. [10^18 == 100%]\r\n     *\r\n     * Note: This function can only be called by ADMIN_ROLE.\r\n     */ \r\n    function setFee(uint256 _fee) external onlyRole(accessManager.ADMIN_ROLE()){\r\n        require (_fee <= 1 ether, \"BAD_FEE\");\r\n        if(fee != _fee){\r\n            emit FeeChanged(fee, _fee); \r\n            fee = _fee;\r\n        }\r\n    }\r\n \r\n    function pause() external onlyRole(PAUSER_ROLE) {\r\n        _pause();\r\n    }\r\n \r\n    function unpause() external onlyRole(PAUSER_ROLE) {\r\n        _unpause();\r\n    }\r\n\r\n    function _authorizeUpgrade(address) internal override onlyRole(accessManager.ADMIN_ROLE()) {\r\n\r\n    }\r\n}\r\n",
  "sourcePath": "C:\\Users\\jugli\\Desktop\\uno\\uno-contracts\\contracts\\test\\UnoAssetRouterBalancerV2.sol",
  "compiler": {
    "name": "solc",
    "version": "0.8.10+commit.fc410830.Emscripten.clang"
  },
  "schemaVersion": "3.4.13",
  "updatedAt": "2023-05-23T10:48:17.379Z",
  "devdoc": {
    "kind": "dev",
    "methods": {
      "constructor": {
        "custom:oz-upgrades-unsafe-allow": "constructor"
      },
      "deposit(address,uint256[],address[],uint256,address)": {
        "details": "Deposits tokens in the given pool. Creates new Farm contract if there isn't one deployed for the {lpPool} and deposits tokens in it.",
        "params": {
          "amounts": "- Amounts of tokens to deposit.",
          "lpPool": "- Address of the pool to deposit tokens in.",
          "minAmountLP": "- Minimum LP the user will receive from {tokens} deposit.",
          "recipient": "- Address which will receive the deposit.",
          "tokens": "- Tokens to deposit."
        },
        "returns": {
          "liquidity": "- Total liquidity sent to the farm (in lpTokens)."
        }
      },
      "depositETH(address,uint256[],address[],uint256,address)": {
        "details": "Autoconverts MATIC into WMATIC and deposits tokens in the given pool. Creates new Farm contract if there isn't one deployed for the {lpPool} and deposits tokens in it.",
        "params": {
          "amounts": "- Amounts of tokens to deposit.",
          "lpPool": "- Address of the pool to deposit tokens in.",
          "minAmountLP": "- Minimum LP the user will receive from {tokens} deposit.",
          "recipient": "- Address which will receive the deposit.",
          "tokens": "- Tokens to deposit."
        },
        "returns": {
          "liquidity": "- Total liquidity sent to the farm (in lpTokens)."
        }
      },
      "depositLP(address,uint256,address)": {
        "details": "Deposits tokens in the given pool. Creates new Farm contract if there isn't one deployed for the {lpPool} and deposits tokens in it. Emits a {Deposit} event.",
        "params": {
          "amount": "- LP Token amount to deposit.",
          "lpPool": "- Address of the pool to deposit tokens in.",
          "recipient": "- Address which will receive the deposit."
        }
      },
      "depositSingleAsset(address,address,uint256,bytes[],uint256,address)": {
        "details": "Deposits single token in the given pool. Creates new Farm contract if there isn't one deployed for the {lpPool}, swaps {token} for pool tokens and deposits them. Emits a {Deposit} event.",
        "params": {
          "amount": "- Amount of token sent.",
          "lpPool": "- Address of the pool to deposit tokens in.",
          "minAmountLP": "- Minimum LP the user will receive from {tokens} deposit.",
          "recipient": "- Address which will receive the deposit.",
          "swapData": "- Parameter with which 1inch router is being called with.",
          "token": "- Address of a token to enter the pool."
        },
        "returns": {
          "liquidity": "- Total liquidity sent to the farm (in lpTokens).",
          "sent": "- Total {token} amount sent to the farm. "
        }
      },
      "depositSingleETH(address,bytes[],uint256,address)": {
        "details": "Deposits single MATIC in the given pool. Creates new Farm contract if there isn't one deployed for the {lpPool}, swaps MATIC for pool tokens and deposits them. Emits a {Deposit} event.",
        "params": {
          "lpPool": "- Address of the pool to deposit tokens in.",
          "minAmountLP": "- Minimum LP the user will receive from {tokens} deposit.",
          "recipient": "- Address which will receive the deposit.",
          "swapData": "- Parameter with which 1inch router is being called with."
        },
        "returns": {
          "liquidity": "- Total liquidity sent to the farm (in lpTokens).",
          "sentETH": "- Total MATIC amount sent to the farm. "
        }
      },
      "distribute(address,((bytes32,uint256,uint256,uint256,bytes)[],address[],int256[])[],((bytes32,uint256,uint256,uint256,bytes)[],address[],int256[])[],address)": {
        "details": "Distributes tokens between users for a single {Farms[lpPool]}.",
        "params": {
          "feeSwapInfos": "- The data used to swap reward tokens for fees.",
          "feeTo": "- Address to collect fees to. Note: This function can only be called by the distributor.",
          "lpPool": "- The pool to distribute. ",
          "swapInfos": "- The data used to swap reward tokens for the needed tokens."
        }
      },
      "getTokens(address)": {
        "details": "Returns addresses of tokens in {lpPool}.",
        "params": {
          "lpPool": "- LP pool to check tokens in."
        },
        "returns": {
          "tokens": "- Token addresses."
        }
      },
      "paused()": {
        "details": "Returns true if the contract is paused, and false otherwise."
      },
      "proxiableUUID()": {
        "details": "Implementation of the ERC1822 {proxiableUUID} function. This returns the storage slot used by the implementation. It is used to validate that the this implementation remains valid after an upgrade. IMPORTANT: A proxy pointing at a proxiable contract should not be considered proxiable itself, because this risks bricking a proxy that upgrades to it, by delegating to itself until out of gas. Thus it is critical that this function revert if invoked through a proxy. This is guaranteed by the `notDelegated` modifier."
      },
      "setFee(uint256)": {
        "details": "Change fee amount.",
        "params": {
          "_fee": "-New fee to collect from farms. [10^18 == 100%] Note: This function can only be called by ADMIN_ROLE."
        }
      },
      "totalDeposits(address)": {
        "details": "Returns total amount locked in the pool. Doesn't take pending rewards into account.",
        "params": {
          "lpPool": "- LP pool to check total deposits in."
        },
        "returns": {
          "_0": "Total deposits (in LP tokens)."
        }
      },
      "upgradeTo(address)": {
        "details": "Upgrade the implementation of the proxy to `newImplementation`. Calls {_authorizeUpgrade}. Emits an {Upgraded} event."
      },
      "upgradeToAndCall(address,bytes)": {
        "details": "Upgrade the implementation of the proxy to `newImplementation`, and subsequently execute the function call encoded in `data`. Calls {_authorizeUpgrade}. Emits an {Upgraded} event."
      },
      "userStake(address,address)": {
        "details": "Returns LP tokens staked by the {_address} for the given {lpPool}.",
        "params": {
          "_address": "- The address to check stakes for.",
          "lpPool": "- LP pool to check stakes in."
        },
        "returns": {
          "_0": "Total user stake(in LP tokens)."
        }
      },
      "withdraw(address,bytes,uint256[],address)": {
        "details": "Withdraws tokens from the given pool. ",
        "params": {
          "lpPool": "- LP pool to withdraw from.",
          "minAmountsOut": "- Minimum token amounts the user will receive.",
          "recipient": "- The address which will receive tokens.",
          "userData": "- Balancer pool exit userData."
        },
        "returns": {
          "amounts": "- Token amounts sent to the {recipient}.",
          "liquidity": "- Total liquidity sent to the user (in lpTokens)."
        }
      },
      "withdrawETH(address,bytes,uint256[],address)": {
        "details": "Autoconverts WMATIC into MATIC and withdraws tokens from the given pool. ",
        "params": {
          "lpPool": "- LP pool to withdraw from.",
          "minAmountsOut": "- Minimum token amounts the user will receive.",
          "recipient": "- The address which will receive tokens.",
          "userData": "-  Balancer pool exit userData."
        },
        "returns": {
          "amounts": "- Token amounts sent to the {recipient}.",
          "liquidity": "- Total liquidity sent to the user (in lpTokens)."
        }
      },
      "withdrawLP(address,uint256,address)": {
        "details": "Withdraws LP tokens from the given pool. Emits a {Withdraw} event.",
        "params": {
          "amount": "- LP amount to withdraw. ",
          "lpPool": "- LP pool to withdraw from.",
          "recipient": "- The address which will receive tokens."
        }
      },
      "withdrawSingleAsset(address,address,bytes,bytes[],address)": {
        "details": "Withdraws single token from the given pool. Emits a {Withdraw} event. Note: If there are any tokens left to be withdrawn after swaps they will be sent to the {{recipient}} in a respective token (not in {token}).",
        "params": {
          "lpPool": "- LP pool to withdraw from.",
          "recipient": "- Address which will receive the deposit.",
          "swapData": "- Parameters with which 1inch router is being called with.",
          "token": "- Address of a token to exit the pool with.",
          "userData": "- Balancer pool exit userData."
        },
        "returns": {
          "amount": "- {token} amount sent to the {recipient}.",
          "liquidity": "- Total liquidity sent to the user (in lpTokens)."
        }
      },
      "withdrawSingleETH(address,bytes,bytes[],address)": {
        "details": "Withdraws single MATIC from the given pool. Emits a {Withdraw} event. Note: If there are any tokens left to be withdrawn after swaps they will be sent to the {{recipient}} in a respective token (not in MATIC).",
        "params": {
          "lpPool": "- LP pool to withdraw from.",
          "recipient": "- Address which will receive the deposit.",
          "swapData": "- Parameters with which 1inch router is being called with.",
          "userData": "- Balancer pool exit userData."
        },
        "returns": {
          "amountETH": "- MATIC amount sent to the {recipient}.",
          "liquidity": "- Total liquidity sent to the user (in lpTokens)."
        }
      }
    },
    "stateVariables": {
      "farmFactory": {
        "details": "Contract Variables: farmFactory - The contract that deploys new Farms and links them to {lpPool}s. accessManager - Role manager contract."
      }
    },
    "version": 1
  },
  "userdoc": {
    "kind": "user",
    "methods": {},
    "version": 1
  }
}