{
  "contractName": "UnoAssetRouterQuickswap",
  "abi": [
    {
      "inputs": [],
      "stateMutability": "nonpayable",
      "type": "constructor"
    },
    {
      "anonymous": false,
      "inputs": [
        {
          "indexed": false,
          "internalType": "address",
          "name": "previousAdmin",
          "type": "address"
        },
        {
          "indexed": false,
          "internalType": "address",
          "name": "newAdmin",
          "type": "address"
        }
      ],
      "name": "AdminChanged",
      "type": "event"
    },
    {
      "anonymous": false,
      "inputs": [
        {
          "indexed": true,
          "internalType": "address",
          "name": "beacon",
          "type": "address"
        }
      ],
      "name": "BeaconUpgraded",
      "type": "event"
    },
    {
      "anonymous": false,
      "inputs": [
        {
          "indexed": true,
          "internalType": "address",
          "name": "lpPool",
          "type": "address"
        },
        {
          "indexed": true,
          "internalType": "address",
          "name": "sender",
          "type": "address"
        },
        {
          "indexed": true,
          "internalType": "address",
          "name": "recipient",
          "type": "address"
        },
        {
          "indexed": false,
          "internalType": "uint256",
          "name": "amount",
          "type": "uint256"
        }
      ],
      "name": "Deposit",
      "type": "event"
    },
    {
      "anonymous": false,
      "inputs": [
        {
          "indexed": true,
          "internalType": "address",
          "name": "lpPool",
          "type": "address"
        },
        {
          "indexed": false,
          "internalType": "uint256",
          "name": "reward",
          "type": "uint256"
        }
      ],
      "name": "Distribute",
      "type": "event"
    },
    {
      "anonymous": false,
      "inputs": [
        {
          "indexed": false,
          "internalType": "uint8",
          "name": "version",
          "type": "uint8"
        }
      ],
      "name": "Initialized",
      "type": "event"
    },
    {
      "anonymous": false,
      "inputs": [
        {
          "indexed": false,
          "internalType": "address",
          "name": "account",
          "type": "address"
        }
      ],
      "name": "Paused",
      "type": "event"
    },
    {
      "anonymous": false,
      "inputs": [
        {
          "indexed": false,
          "internalType": "address",
          "name": "account",
          "type": "address"
        }
      ],
      "name": "Unpaused",
      "type": "event"
    },
    {
      "anonymous": false,
      "inputs": [
        {
          "indexed": true,
          "internalType": "address",
          "name": "implementation",
          "type": "address"
        }
      ],
      "name": "Upgraded",
      "type": "event"
    },
    {
      "anonymous": false,
      "inputs": [
        {
          "indexed": true,
          "internalType": "address",
          "name": "lpPool",
          "type": "address"
        },
        {
          "indexed": true,
          "internalType": "address",
          "name": "sender",
          "type": "address"
        },
        {
          "indexed": true,
          "internalType": "address",
          "name": "recipient",
          "type": "address"
        },
        {
          "indexed": false,
          "internalType": "uint256",
          "name": "amount",
          "type": "uint256"
        }
      ],
      "name": "Withdraw",
      "type": "event"
    },
    {
      "inputs": [],
      "name": "WMATIC",
      "outputs": [
        {
          "internalType": "address",
          "name": "",
          "type": "address"
        }
      ],
      "stateMutability": "view",
      "type": "function"
    },
    {
      "inputs": [],
      "name": "accessManager",
      "outputs": [
        {
          "internalType": "contract IUnoAccessManager",
          "name": "",
          "type": "address"
        }
      ],
      "stateMutability": "view",
      "type": "function"
    },
    {
      "inputs": [],
      "name": "farmFactory",
      "outputs": [
        {
          "internalType": "contract IUnoFarmFactory",
          "name": "",
          "type": "address"
        }
      ],
      "stateMutability": "view",
      "type": "function"
    },
    {
      "inputs": [],
      "name": "paused",
      "outputs": [
        {
          "internalType": "bool",
          "name": "",
          "type": "bool"
        }
      ],
      "stateMutability": "view",
      "type": "function"
    },
    {
      "inputs": [],
      "name": "proxiableUUID",
      "outputs": [
        {
          "internalType": "bytes32",
          "name": "",
          "type": "bytes32"
        }
      ],
      "stateMutability": "view",
      "type": "function"
    },
    {
      "inputs": [
        {
          "internalType": "address",
          "name": "newImplementation",
          "type": "address"
        }
      ],
      "name": "upgradeTo",
      "outputs": [],
      "stateMutability": "nonpayable",
      "type": "function"
    },
    {
      "inputs": [
        {
          "internalType": "address",
          "name": "newImplementation",
          "type": "address"
        },
        {
          "internalType": "bytes",
          "name": "data",
          "type": "bytes"
        }
      ],
      "name": "upgradeToAndCall",
      "outputs": [],
      "stateMutability": "payable",
      "type": "function"
    },
    {
      "stateMutability": "payable",
      "type": "receive"
    },
    {
      "inputs": [
        {
          "internalType": "address",
          "name": "_accessManager",
          "type": "address"
        },
        {
          "internalType": "address",
          "name": "_farmFactory",
          "type": "address"
        }
      ],
      "name": "initialize",
      "outputs": [],
      "stateMutability": "nonpayable",
      "type": "function"
    },
    {
      "inputs": [
        {
          "internalType": "address",
          "name": "lpStakingPool",
          "type": "address"
        },
        {
          "internalType": "uint256",
          "name": "amountToken",
          "type": "uint256"
        },
        {
          "internalType": "uint256",
          "name": "amountTokenMin",
          "type": "uint256"
        },
        {
          "internalType": "uint256",
          "name": "amountETHMin",
          "type": "uint256"
        },
        {
          "internalType": "uint256",
          "name": "amountLP",
          "type": "uint256"
        },
        {
          "internalType": "address",
          "name": "recipient",
          "type": "address"
        }
      ],
      "name": "depositETH",
      "outputs": [
        {
          "internalType": "uint256",
          "name": "sentETH",
          "type": "uint256"
        },
        {
          "internalType": "uint256",
          "name": "sentToken",
          "type": "uint256"
        },
        {
          "internalType": "uint256",
          "name": "liquidity",
          "type": "uint256"
        }
      ],
      "stateMutability": "payable",
      "type": "function"
    },
    {
      "inputs": [
        {
          "internalType": "address",
          "name": "lpStakingPool",
          "type": "address"
        },
        {
          "internalType": "uint256",
          "name": "amountA",
          "type": "uint256"
        },
        {
          "internalType": "uint256",
          "name": "amountB",
          "type": "uint256"
        },
        {
          "internalType": "uint256",
          "name": "amountAMin",
          "type": "uint256"
        },
        {
          "internalType": "uint256",
          "name": "amountBMin",
          "type": "uint256"
        },
        {
          "internalType": "uint256",
          "name": "amountLP",
          "type": "uint256"
        },
        {
          "internalType": "address",
          "name": "recipient",
          "type": "address"
        }
      ],
      "name": "deposit",
      "outputs": [
        {
          "internalType": "uint256",
          "name": "sentA",
          "type": "uint256"
        },
        {
          "internalType": "uint256",
          "name": "sentB",
          "type": "uint256"
        },
        {
          "internalType": "uint256",
          "name": "liquidity",
          "type": "uint256"
        }
      ],
      "stateMutability": "nonpayable",
      "type": "function"
    },
    {
      "inputs": [
        {
          "internalType": "address",
          "name": "lpStakingPool",
          "type": "address"
        },
        {
          "internalType": "uint256",
          "name": "amount",
          "type": "uint256"
        },
        {
          "internalType": "uint256",
          "name": "amountTokenMin",
          "type": "uint256"
        },
        {
          "internalType": "uint256",
          "name": "amountETHMin",
          "type": "uint256"
        },
        {
          "internalType": "address",
          "name": "recipient",
          "type": "address"
        }
      ],
      "name": "withdrawETH",
      "outputs": [
        {
          "internalType": "uint256",
          "name": "amountETH",
          "type": "uint256"
        },
        {
          "internalType": "uint256",
          "name": "amountToken",
          "type": "uint256"
        }
      ],
      "stateMutability": "payable",
      "type": "function"
    },
    {
      "inputs": [
        {
          "internalType": "address",
          "name": "lpStakingPool",
          "type": "address"
        },
        {
          "internalType": "uint256",
          "name": "amount",
          "type": "uint256"
        },
        {
          "internalType": "uint256",
          "name": "amountAMin",
          "type": "uint256"
        },
        {
          "internalType": "uint256",
          "name": "amountBMin",
          "type": "uint256"
        },
        {
          "internalType": "bool",
          "name": "withdrawLP",
          "type": "bool"
        },
        {
          "internalType": "address",
          "name": "recipient",
          "type": "address"
        }
      ],
      "name": "withdraw",
      "outputs": [
        {
          "internalType": "uint256",
          "name": "amountA",
          "type": "uint256"
        },
        {
          "internalType": "uint256",
          "name": "amountB",
          "type": "uint256"
        }
      ],
      "stateMutability": "nonpayable",
      "type": "function"
    },
    {
      "inputs": [
        {
          "internalType": "address",
          "name": "lpStakingPool",
          "type": "address"
        },
        {
          "internalType": "address[][2]",
          "name": "swapRoutes",
          "type": "address[][2]"
        },
        {
          "internalType": "uint256[2]",
          "name": "amountsOutMin",
          "type": "uint256[2]"
        }
      ],
      "name": "distribute",
      "outputs": [],
      "stateMutability": "nonpayable",
      "type": "function"
    },
    {
      "inputs": [
        {
          "internalType": "address",
          "name": "_address",
          "type": "address"
        },
        {
          "internalType": "address",
          "name": "lpStakingPool",
          "type": "address"
        }
      ],
      "name": "userStake",
      "outputs": [
        {
          "internalType": "uint256",
          "name": "stakeLP",
          "type": "uint256"
        },
        {
          "internalType": "uint256",
          "name": "stakeA",
          "type": "uint256"
        },
        {
          "internalType": "uint256",
          "name": "stakeB",
          "type": "uint256"
        }
      ],
      "stateMutability": "view",
      "type": "function"
    },
    {
      "inputs": [
        {
          "internalType": "address",
          "name": "lpStakingPool",
          "type": "address"
        }
      ],
      "name": "totalDeposits",
      "outputs": [
        {
          "internalType": "uint256",
          "name": "totalDepositsLP",
          "type": "uint256"
        },
        {
          "internalType": "uint256",
          "name": "totalDepositsA",
          "type": "uint256"
        },
        {
          "internalType": "uint256",
          "name": "totalDepositsB",
          "type": "uint256"
        }
      ],
      "stateMutability": "view",
      "type": "function"
    },
    {
      "inputs": [
        {
          "internalType": "address",
          "name": "lpStakingPool",
          "type": "address"
        }
      ],
      "name": "getTokens",
      "outputs": [
        {
          "internalType": "address",
          "name": "tokenA",
          "type": "address"
        },
        {
          "internalType": "address",
          "name": "tokenB",
          "type": "address"
        }
      ],
      "stateMutability": "view",
      "type": "function"
    },
    {
      "inputs": [],
      "name": "pause",
      "outputs": [],
      "stateMutability": "nonpayable",
      "type": "function"
    },
    {
      "inputs": [],
      "name": "unpause",
      "outputs": [],
      "stateMutability": "nonpayable",
      "type": "function"
    }
  ],
  "bytecode": "0x60a0604052306080523480156200001557600080fd5b506200002062000026565b62000156565b6200003260ff62000035565b50565b60008054610100900460ff1615620000ce578160ff1660011480156200006e57506200006c306200014760201b62001d4d1760201c565b155b620000c65760405162461bcd60e51b815260206004820152602e60248201526000805160206200351c83398151915260448201526d191e481a5b9a5d1a585b1a5e995960921b60648201526084015b60405180910390fd5b506000919050565b60005460ff8084169116106200012d5760405162461bcd60e51b815260206004820152602e60248201526000805160206200351c83398151915260448201526d191e481a5b9a5d1a585b1a5e995960921b6064820152608401620000bd565b506000805460ff191660ff92909216919091179055600190565b6001600160a01b03163b151590565b60805161338e6200018e600039600081816104bd015281816104fd01528181610fad01528181610fed01526111f1015261338e6000f3fe60806040526004361061010d5760003560e01c806352d1902d11610095578063deb03f4d11610064578063deb03f4d14610316578063e940325614610329578063ee0c541f14610349578063f441f73c14610369578063fdcb60681461038957600080fd5b806352d1902d1461029b5780635c975abb146102be5780636d25e175146102e15780638456cb591461030157600080fd5b80634743cdc7116100dc5780634743cdc7146101e2578063485cc955146102105780634d95cad9146102305780634f1ef2861461026857806351bdca3e1461027b57600080fd5b80631ec5aa3e146101335780633659cfe61461016d5780633f4ba83a1461018d578063450efe21146101a257600080fd5b3661012e5760cb546001600160a01b0316331461012c5761012c612b06565b005b600080fd5b34801561013f57600080fd5b5061015361014e366004612b3f565b6103a9565b604080519283526020830191909152015b60405180910390f35b34801561017957600080fd5b5061012c610188366004612ba6565b6104b2565b34801561019957600080fd5b5061012c610592565b3480156101ae57600080fd5b506101c26101bd366004612ba6565b610649565b604080516001600160a01b03938416815292909116602083015201610164565b6101f56101f0366004612bc3565b610780565b60408051938452602084019290925290820152606001610164565b34801561021c57600080fd5b5061012c61022b366004612c13565b610e48565b34801561023c57600080fd5b5060cb54610250906001600160a01b031681565b6040516001600160a01b039091168152602001610164565b61012c610276366004612cbc565b610fa2565b34801561028757600080fd5b506101f5610296366004612c13565b611073565b3480156102a757600080fd5b506102b06111e4565b604051908152602001610164565b3480156102ca57600080fd5b5060335460ff166040519015158152602001610164565b3480156102ed57600080fd5b5060c954610250906001600160a01b031681565b34801561030d57600080fd5b5061012c611297565b610153610324366004612d64565b61134e565b34801561033557600080fd5b506101f5610344366004612ba6565b611753565b34801561035557600080fd5b5061012c610364366004612dba565b6118bc565b34801561037557600080fd5b506101f5610384366004612e5f565b611ae6565b34801561039557600080fd5b5060ca54610250906001600160a01b031681565b60c95460405163f9d9331d60e01b81526001600160a01b038881166004830152600092839283929091169063f9d9331d90602401602060405180830381865afa1580156103fa573d6000803e3d6000fd5b505050506040513d601f19601f8201168201806040525081019061041e9190612ec8565b90506001600160a01b03811661044f5760405162461bcd60e51b815260040161044690612ee5565b60405180910390fd5b61045d898989898989611d5c565b6040518a815291945092506001600160a01b038581169133918c16907f3115d1449a7b732c986cba18244e897a450f61e1bb8d589cd2e69e6c8924f9f79060200160405180910390a450965096945050505050565b306001600160a01b037f00000000000000000000000000000000000000000000000000000000000000001614156104fb5760405162461bcd60e51b815260040161044690612f0e565b7f00000000000000000000000000000000000000000000000000000000000000006001600160a01b0316610544600080516020613312833981519152546001600160a01b031690565b6001600160a01b03161461056a5760405162461bcd60e51b815260040161044690612f5a565b61057381611e73565b6040805160008082526020820190925261058f91839190611f79565b50565b60ca54604051632474521560e21b81527f65d7a28e3265b37a6474929f336521b332c1681b933f6cb9f3376673440d862a60048201819052336024830152916001600160a01b0316906391d1485490604401602060405180830381865afa158015610601573d6000803e3d6000fd5b505050506040513d601f19601f820116820180604052508101906106259190612fa6565b6106415760405162461bcd60e51b815260040161044690612fc3565b61058f6120e4565b6000806000836001600160a01b03166372f702f36040518163ffffffff1660e01b8152600401602060405180830381865afa15801561068c573d6000803e3d6000fd5b505050506040513d601f19601f820116820180604052508101906106b09190612ec8565b9050806001600160a01b0316630dfe16816040518163ffffffff1660e01b8152600401602060405180830381865afa1580156106f0573d6000803e3d6000fd5b505050506040513d601f19601f820116820180604052508101906107149190612ec8565b9250806001600160a01b031663d21220a76040518163ffffffff1660e01b8152600401602060405180830381865afa158015610754573d6000803e3d6000fd5b505050506040513d601f19601f820116820180604052508101906107789190612ec8565b915050915091565b600080600061079160335460ff1690565b156107ae5760405162461bcd60e51b815260040161044690612ff2565b60c95460405163f9d9331d60e01b81526001600160a01b038b81166004830152600092169063f9d9331d90602401602060405180830381865afa1580156107f9573d6000803e3d6000fd5b505050506040513d601f19601f8201168201806040525081019061081d9190612ec8565b90506001600160a01b03811661089f5760c954604051621849e360e61b81526001600160a01b038c811660048301529091169063061278c0906024016020604051808303816000875af1158015610878573d6000803e3d6000fd5b505050506040513d601f19601f8201168201806040525081019061089c9190612ec8565b90505b60cb546040805162fc63d160e41b815290516001600160a01b0392831692841691630fc63d109160048083019260209291908290030181865afa1580156108ea573d6000803e3d6000fd5b505050506040513d601f19601f8201168201806040525081019061090e9190612ec8565b6001600160a01b03161480610999575060cb5460408051635f64b55b60e01b815290516001600160a01b0392831692841691635f64b55b9160048083019260209291908290030181865afa15801561096a573d6000803e3d6000fd5b505050506040513d601f19601f8201168201806040525081019061098e9190612ec8565b6001600160a01b0316145b6109d95760405162461bcd60e51b81526020600482015260116024820152701393d7d5d350551250d7d25397d413d3d3607a1b6044820152606401610446565b60003411610a195760405162461bcd60e51b815260206004820152600d60248201526c1393d7d350551250d7d4d15395609a1b6044820152606401610446565b60cb60009054906101000a90046001600160a01b03166001600160a01b031663d0e30db0346040518263ffffffff1660e01b81526004016000604051808303818588803b158015610a6957600080fd5b505af1158015610a7d573d6000803e3d6000fd5b505060cb54610a9b93506001600160a01b0316915083905034612177565b8515610b1a57610b1a338288846001600160a01b031663452ed4f16040518163ffffffff1660e01b8152600401602060405180830381865afa158015610ae5573d6000803e3d6000fd5b505050506040513d601f19601f82011682018060405250810190610b099190612ec8565b6001600160a01b03169291906121da565b60cb546040805162fc63d160e41b815290516001600160a01b0392831692841691630fc63d109160048083019260209291908290030181865afa158015610b65573d6000803e3d6000fd5b505050506040513d601f19601f82011682018060405250810190610b899190612ec8565b6001600160a01b03161415610c7e578815610be257610be233828b846001600160a01b0316635f64b55b6040518163ffffffff1660e01b8152600401602060405180830381865afa158015610ae5573d6000803e3d6000fd5b610bf28a348b8a8c8b308c612218565b91955093509150610c7933610c07858c613032565b836001600160a01b0316635f64b55b6040518163ffffffff1660e01b8152600401602060405180830381865afa158015610c45573d6000803e3d6000fd5b505050506040513d601f19601f82011682018060405250810190610c699190612ec8565b6001600160a01b03169190612177565b610d2c565b8815610cc857610cc833828b846001600160a01b0316630fc63d106040518163ffffffff1660e01b8152600401602060405180830381865afa158015610ae5573d6000803e3d6000fd5b610cd88a8a348b8b8b308c612218565b9095509093509150610d2c33610cee858c613032565b836001600160a01b0316630fc63d106040518163ffffffff1660e01b8152600401602060405180830381865afa158015610c45573d6000803e3d6000fd5b6000610d388534613032565b1115610de45760cb546001600160a01b0316632e1a7d4d610d598634613032565b6040518263ffffffff1660e01b8152600401610d7791815260200190565b600060405180830381600087803b158015610d9157600080fd5b505af1158015610da5573d6000803e3d6000fd5b503392506108fc9150610dba90508634613032565b6040518115909202916000818181858888f19350505050158015610de2573d6000803e3d6000fd5b505b846001600160a01b0316336001600160a01b03168b6001600160a01b03167f7cfff908a4b583f36430b25d75964c458d8ede8a99bd61be750e97ee1b2f3a9685604051610e3391815260200190565b60405180910390a45096509650969350505050565b6000610e54600161233d565b90508015610e6c576000805461ff0019166101001790555b6001600160a01b038316610eb75760405162461bcd60e51b81526020600482015260126024820152712120a22fa0a1a1a2a9a9afa6a0a720a3a2a960711b6044820152606401610446565b6001600160a01b038216610f005760405162461bcd60e51b815260206004820152601060248201526f4241445f4641524d5f464143544f525960801b6044820152606401610446565b610f086123c5565b60ca80546001600160a01b038086166001600160a01b03199283161790925560c980549285169282169290921790915560cb8054909116730d500b1d8e8ef31e21c99d1db9a6444d3adf12701790558015610f9d576000805461ff0019169055604051600181527f7f26b83ff96e1f2b6a682f133852f6798a09c465da95921460cefb38474024989060200160405180910390a15b505050565b306001600160a01b037f0000000000000000000000000000000000000000000000000000000000000000161415610feb5760405162461bcd60e51b815260040161044690612f0e565b7f00000000000000000000000000000000000000000000000000000000000000006001600160a01b0316611034600080516020613312833981519152546001600160a01b031690565b6001600160a01b03161461105a5760405162461bcd60e51b815260040161044690612f5a565b61106382611e73565b61106f82826001611f79565b5050565b60c95460405163f9d9331d60e01b81526001600160a01b038381166004830152600092839283928392169063f9d9331d90602401602060405180830381865afa1580156110c4573d6000803e3d6000fd5b505050506040513d601f19601f820116820180604052508101906110e89190612ec8565b90506001600160a01b038116156111dc57604051630103c92b60e01b81526001600160a01b038781166004830152821690630103c92b90602401602060405180830381865afa15801561113f573d6000803e3d6000fd5b505050506040513d601f19601f820116820180604052508101906111639190613049565b93506000816001600160a01b031663452ed4f16040518163ffffffff1660e01b8152600401602060405180830381865afa1580156111a5573d6000803e3d6000fd5b505050506040513d601f19601f820116820180604052508101906111c99190612ec8565b90506111d581866123f6565b9094509250505b509250925092565b6000306001600160a01b037f000000000000000000000000000000000000000000000000000000000000000016146112845760405162461bcd60e51b815260206004820152603860248201527f555550535570677261646561626c653a206d757374206e6f742062652063616c60448201527f6c6564207468726f7567682064656c656761746563616c6c00000000000000006064820152608401610446565b5060008051602061331283398151915290565b60ca54604051632474521560e21b81527f65d7a28e3265b37a6474929f336521b332c1681b933f6cb9f3376673440d862a60048201819052336024830152916001600160a01b0316906391d1485490604401602060405180830381865afa158015611306573d6000803e3d6000fd5b505050506040513d601f19601f8201168201806040525081019061132a9190612fa6565b6113465760405162461bcd60e51b815260040161044690612fc3565b61058f612631565b60c95460405163f9d9331d60e01b81526001600160a01b038781166004830152600092839283929091169063f9d9331d90602401602060405180830381865afa15801561139f573d6000803e3d6000fd5b505050506040513d601f19601f820116820180604052508101906113c39190612ec8565b90506001600160a01b0381166113eb5760405162461bcd60e51b815260040161044690612ee5565b60cb546040805162fc63d160e41b815290516001600160a01b0392831692841691630fc63d109160048083019260209291908290030181865afa158015611436573d6000803e3d6000fd5b505050506040513d601f19601f8201168201806040525081019061145a9190612ec8565b6001600160a01b031614806114e5575060cb5460408051635f64b55b60e01b815290516001600160a01b0392831692841691635f64b55b9160048083019260209291908290030181865afa1580156114b6573d6000803e3d6000fd5b505050506040513d601f19601f820116820180604052508101906114da9190612ec8565b6001600160a01b0316145b6115255760405162461bcd60e51b81526020600482015260116024820152701393d7d5d350551250d7d25397d413d3d3607a1b6044820152606401610446565b60cb546040805162fc63d160e41b815290516001600160a01b0392831692841691630fc63d109160048083019260209291908290030181865afa158015611570573d6000803e3d6000fd5b505050506040513d601f19601f820116820180604052508101906115949190612ec8565b6001600160a01b03161415611602576115b288888789600030611d5c565b80935081945050506115fd8483836001600160a01b0316635f64b55b6040518163ffffffff1660e01b8152600401602060405180830381865afa158015610c45573d6000803e3d6000fd5b61165c565b61161188888888600030611d5c565b809450819350505061165c8483836001600160a01b0316630fc63d106040518163ffffffff1660e01b8152600401602060405180830381865afa158015610c45573d6000803e3d6000fd5b60cb54604051632e1a7d4d60e01b8152600481018590526001600160a01b0390911690632e1a7d4d90602401600060405180830381600087803b1580156116a257600080fd5b505af11580156116b6573d6000803e3d6000fd5b50506040516001600160a01b038716925085156108fc02915085906000818181858888f193505050501580156116f0573d6000803e3d6000fd5b50836001600160a01b0316336001600160a01b0316896001600160a01b03167f3115d1449a7b732c986cba18244e897a450f61e1bb8d589cd2e69e6c8924f9f78a60405161174091815260200190565b60405180910390a4509550959350505050565b60c95460405163f9d9331d60e01b81526001600160a01b038381166004830152600092839283928392169063f9d9331d90602401602060405180830381865afa1580156117a4573d6000803e3d6000fd5b505050506040513d601f19601f820116820180604052508101906117c89190612ec8565b90506001600160a01b038116156118b457806001600160a01b031663168a48226040518163ffffffff1660e01b8152600401602060405180830381865afa158015611817573d6000803e3d6000fd5b505050506040513d601f19601f8201168201806040525081019061183b9190613049565b93506000816001600160a01b031663452ed4f16040518163ffffffff1660e01b8152600401602060405180830381865afa15801561187d573d6000803e3d6000fd5b505050506040513d601f19601f820116820180604052508101906118a19190612ec8565b90506118ad81866123f6565b9094509250505b509193909250565b60335460ff16156118df5760405162461bcd60e51b815260040161044690612ff2565b60ca54604051632474521560e21b81527ffbd454f36a7e1a388bd6fc3ab10d434aa4578f811acbbcf33afb1c697486313c60048201819052336024830152916001600160a01b0316906391d1485490604401602060405180830381865afa15801561194e573d6000803e3d6000fd5b505050506040513d601f19601f820116820180604052508101906119729190612fa6565b61198e5760405162461bcd60e51b815260040161044690612fc3565b60c95460405163f9d9331d60e01b81526001600160a01b038681166004830152600092169063f9d9331d90602401602060405180830381865afa1580156119d9573d6000803e3d6000fd5b505050506040513d601f19601f820116820180604052508101906119fd9190612ec8565b90506001600160a01b038116611a255760405162461bcd60e51b815260040161044690612ee5565b6040516394c323f760e01b81526000906001600160a01b038316906394c323f790611a5690889088906004016130ce565b6020604051808303816000875af1158015611a75573d6000803e3d6000fd5b505050506040513d601f19601f82011682018060405250810190611a999190613049565b9050856001600160a01b03167fc1d32ad5cca423e7dda2123dbf8c482f8e77d00b631c06e903a47f2cec1334df82604051611ad691815260200190565b60405180910390a2505050505050565b6000806000611af760335460ff1690565b15611b145760405162461bcd60e51b815260040161044690612ff2565b60c95460405163f9d9331d60e01b81526001600160a01b038c81166004830152600092169063f9d9331d90602401602060405180830381865afa158015611b5f573d6000803e3d6000fd5b505050506040513d601f19601f82011682018060405250810190611b839190612ec8565b90506001600160a01b038116611c055760c954604051621849e360e61b81526001600160a01b038d811660048301529091169063061278c0906024016020604051808303816000875af1158015611bde573d6000803e3d6000fd5b505050506040513d601f19601f82011682018060405250810190611c029190612ec8565b90505b8915611c4f57611c4f33828c846001600160a01b0316630fc63d106040518163ffffffff1660e01b8152600401602060405180830381865afa158015610ae5573d6000803e3d6000fd5b8815611c9957611c9933828b846001600160a01b0316635f64b55b6040518163ffffffff1660e01b8152600401602060405180830381865afa158015610ae5573d6000803e3d6000fd5b8515611ce357611ce3338288846001600160a01b031663452ed4f16040518163ffffffff1660e01b8152600401602060405180830381865afa158015610ae5573d6000803e3d6000fd5b611cf38b8b8b8b8b8b338c612218565b60405181815292965090945092506001600160a01b038681169133918e16907f7cfff908a4b583f36430b25d75964c458d8ede8a99bd61be750e97ee1b2f3a969060200160405180910390a4509750975097945050505050565b6001600160a01b03163b151590565b60c95460405163f9d9331d60e01b81526001600160a01b038881166004830152600092839283929091169063f9d9331d90602401602060405180830381865afa158015611dad573d6000803e3d6000fd5b505050506040513d601f19601f82011682018060405250810190611dd19190612ec8565b60405163d563468360e01b8152600481018a9052602481018990526044810188905286151560648201523360848201526001600160a01b0386811660a48301529192509082169063d56346839060c40160408051808303816000875af1158015611e3f573d6000803e3d6000fd5b505050506040513d601f19601f82011682018060405250810190611e63919061316a565b909a909950975050505050505050565b60ca60009054906101000a90046001600160a01b03166001600160a01b03166375b238fc6040518163ffffffff1660e01b8152600401602060405180830381865afa158015611ec6573d6000803e3d6000fd5b505050506040513d601f19601f82011682018060405250810190611eea9190613049565b60ca54604051632474521560e21b8152600481018390523360248201526001600160a01b03909116906391d1485490604401602060405180830381865afa158015611f39573d6000803e3d6000fd5b505050506040513d601f19601f82011682018060405250810190611f5d9190612fa6565b61106f5760405162461bcd60e51b815260040161044690612fc3565b7f4910fdfa16fed3260ed0e7147f7cc6da11a60208b5b9406d12a635614ffd91435460ff1615611fac57610f9d83612689565b826001600160a01b03166352d1902d6040518163ffffffff1660e01b8152600401602060405180830381865afa925050508015612006575060408051601f3d908101601f1916820190925261200391810190613049565b60015b6120695760405162461bcd60e51b815260206004820152602e60248201527f45524331393637557067726164653a206e657720696d706c656d656e7461746960448201526d6f6e206973206e6f74205555505360901b6064820152608401610446565b60008051602061331283398151915281146120d85760405162461bcd60e51b815260206004820152602960248201527f45524331393637557067726164653a20756e737570706f727465642070726f786044820152681a58589b195555525160ba1b6064820152608401610446565b50610f9d838383612725565b60335460ff1661212d5760405162461bcd60e51b815260206004820152601460248201527314185d5cd8589b194e881b9bdd081c185d5cd95960621b6044820152606401610446565b6033805460ff191690557f5db9ee0a495bf2e6ff9c91a7834c1ba4fdd244a5e8aa4e537bd38aeae4b073aa335b6040516001600160a01b03909116815260200160405180910390a1565b6040516001600160a01b038316602482015260448101829052610f9d90849063a9059cbb60e01b906064015b60408051601f198184030181529190526020810180516001600160e01b03166001600160e01b03199093169290921790915261274a565b6040516001600160a01b03808516602483015283166044820152606481018290526122129085906323b872dd60e01b906084016121a3565b50505050565b60c95460405163f9d9331d60e01b81526001600160a01b038a81166004830152600092839283928392169063f9d9331d90602401602060405180830381865afa158015612269573d6000803e3d6000fd5b505050506040513d601f19601f8201168201806040525081019061228d9190612ec8565b604051630b333b4560e11b8152600481018d9052602481018c9052604481018b9052606481018a9052608481018990526001600160a01b0388811660a483015287811660c483015291925090821690631666768a9060e4016060604051808303816000875af1158015612304573d6000803e3d6000fd5b505050506040513d601f19601f82011682018060405250810190612328919061318e565b919e909d50909b509950505050505050505050565b60008054610100900460ff1615612384578160ff1660011480156123605750303b155b61237c5760405162461bcd60e51b8152600401610446906131bc565b506000919050565b60005460ff8084169116106123ab5760405162461bcd60e51b8152600401610446906131bc565b506000805460ff191660ff92909216919091179055600190565b600054610100900460ff166123ec5760405162461bcd60e51b81526004016104469061320a565b6123f461281c565b565b6000806000846001600160a01b03166318160ddd6040518163ffffffff1660e01b8152600401602060405180830381865afa158015612439573d6000803e3d6000fd5b505050506040513d601f19601f8201168201806040525081019061245d9190613049565b905080856001600160a01b0316630dfe16816040518163ffffffff1660e01b8152600401602060405180830381865afa15801561249e573d6000803e3d6000fd5b505050506040513d601f19601f820116820180604052508101906124c29190612ec8565b6040516370a0823160e01b81526001600160a01b03888116600483015291909116906370a0823190602401602060405180830381865afa15801561250a573d6000803e3d6000fd5b505050506040513d601f19601f8201168201806040525081019061252e9190613049565b6125389086613255565b6125429190613274565b925080856001600160a01b031663d21220a76040518163ffffffff1660e01b8152600401602060405180830381865afa158015612583573d6000803e3d6000fd5b505050506040513d601f19601f820116820180604052508101906125a79190612ec8565b6040516370a0823160e01b81526001600160a01b03888116600483015291909116906370a0823190602401602060405180830381865afa1580156125ef573d6000803e3d6000fd5b505050506040513d601f19601f820116820180604052508101906126139190613049565b61261d9086613255565b6126279190613274565b9150509250929050565b60335460ff16156126545760405162461bcd60e51b815260040161044690612ff2565b6033805460ff191660011790557f62e78cea01bee320cd4e420270b5ea74000d11b0c9f74754ebdbfc544b05a25861215a3390565b6001600160a01b0381163b6126f65760405162461bcd60e51b815260206004820152602d60248201527f455243313936373a206e657720696d706c656d656e746174696f6e206973206e60448201526c1bdd08184818dbdb9d1c9858dd609a1b6064820152608401610446565b60008051602061331283398151915280546001600160a01b0319166001600160a01b0392909216919091179055565b61272e8361284f565b60008251118061273b5750805b15610f9d57612212838361288f565b600061279f826040518060400160405280602081526020017f5361666545524332303a206c6f772d6c6576656c2063616c6c206661696c6564815250856001600160a01b03166129839092919063ffffffff16565b805190915015610f9d57808060200190518101906127bd9190612fa6565b610f9d5760405162461bcd60e51b815260206004820152602a60248201527f5361666545524332303a204552433230206f7065726174696f6e20646964206e6044820152691bdd081cdd58d8d9595960b21b6064820152608401610446565b600054610100900460ff166128435760405162461bcd60e51b81526004016104469061320a565b6033805460ff19169055565b61285881612689565b6040516001600160a01b038216907fbc7cd75a20ee27fd9adebab32041f755214dbc6bffa90cc0225b39da2e5c2d3b90600090a250565b60606001600160a01b0383163b6128f75760405162461bcd60e51b815260206004820152602660248201527f416464726573733a2064656c65676174652063616c6c20746f206e6f6e2d636f6044820152651b9d1c9858dd60d21b6064820152608401610446565b600080846001600160a01b03168460405161291291906132c2565b600060405180830381855af49150503d806000811461294d576040519150601f19603f3d011682016040523d82523d6000602084013e612952565b606091505b509150915061297a82826040518060600160405280602781526020016133326027913961299c565b95945050505050565b606061299284846000856129d5565b90505b9392505050565b606083156129ab575081612995565b8251156129bb5782518084602001fd5b8160405162461bcd60e51b815260040161044691906132de565b606082471015612a365760405162461bcd60e51b815260206004820152602660248201527f416464726573733a20696e73756666696369656e742062616c616e636520666f6044820152651c8818d85b1b60d21b6064820152608401610446565b6001600160a01b0385163b612a8d5760405162461bcd60e51b815260206004820152601d60248201527f416464726573733a2063616c6c20746f206e6f6e2d636f6e74726163740000006044820152606401610446565b600080866001600160a01b03168587604051612aa991906132c2565b60006040518083038185875af1925050503d8060008114612ae6576040519150601f19603f3d011682016040523d82523d6000602084013e612aeb565b606091505b5091509150612afb82828661299c565b979650505050505050565b634e487b7160e01b600052600160045260246000fd5b6001600160a01b038116811461058f57600080fd5b801515811461058f57600080fd5b60008060008060008060c08789031215612b5857600080fd5b8635612b6381612b1c565b95506020870135945060408701359350606087013592506080870135612b8881612b31565b915060a0870135612b9881612b1c565b809150509295509295509295565b600060208284031215612bb857600080fd5b813561299581612b1c565b60008060008060008060c08789031215612bdc57600080fd5b8635612be781612b1c565b95506020870135945060408701359350606087013592506080870135915060a0870135612b9881612b1c565b60008060408385031215612c2657600080fd5b8235612c3181612b1c565b91506020830135612c4181612b1c565b809150509250929050565b634e487b7160e01b600052604160045260246000fd5b6040805190810167ffffffffffffffff81118282101715612c8557612c85612c4c565b60405290565b604051601f8201601f1916810167ffffffffffffffff81118282101715612cb457612cb4612c4c565b604052919050565b60008060408385031215612ccf57600080fd5b8235612cda81612b1c565b915060208381013567ffffffffffffffff80821115612cf857600080fd5b818601915086601f830112612d0c57600080fd5b813581811115612d1e57612d1e612c4c565b612d30601f8201601f19168501612c8b565b91508082528784828501011115612d4657600080fd5b80848401858401376000848284010152508093505050509250929050565b600080600080600060a08688031215612d7c57600080fd5b8535612d8781612b1c565b94506020860135935060408601359250606086013591506080860135612dac81612b1c565b809150509295509295909350565b600080600060808486031215612dcf57600080fd5b8335612dda81612b1c565b925060208481013567ffffffffffffffff811115612df757600080fd5b850160408101871015612e0957600080fd5b9250605f85018613612e1a57600080fd5b612e22612c62565b806080870188811115612e3457600080fd5b604088015b81811015612e505780358452928401928401612e39565b50508093505050509250925092565b600080600080600080600060e0888a031215612e7a57600080fd5b8735612e8581612b1c565b96506020880135955060408801359450606088013593506080880135925060a0880135915060c0880135612eb881612b1c565b8091505092959891949750929550565b600060208284031215612eda57600080fd5b815161299581612b1c565b6020808252600f908201526e4641524d5f4e4f545f45584953545360881b604082015260600190565b6020808252602c908201527f46756e6374696f6e206d7573742062652063616c6c6564207468726f7567682060408201526b19195b1959d85d1958d85b1b60a21b606082015260800190565b6020808252602c908201527f46756e6374696f6e206d7573742062652063616c6c6564207468726f7567682060408201526b6163746976652070726f787960a01b606082015260800190565b600060208284031215612fb857600080fd5b815161299581612b31565b60208082526015908201527410d05313115497d393d517d055551213d492569151605a1b604082015260600190565b60208082526010908201526f14185d5cd8589b194e881c185d5cd95960821b604082015260600190565b634e487b7160e01b600052601160045260246000fd5b6000828210156130445761304461301c565b500390565b60006020828403121561305b57600080fd5b5051919050565b8183526000602080850194508260005b858110156130a057813561308581612b1c565b6001600160a01b031687529582019590820190600101613072565b509495945050505050565b8060005b60028110156122125781518452602093840193909101906001016130af565b606080825260009060a0830190830185835b600281101561315657858403605f19018352813536899003601e1901811261310757600080fd5b88018035602067ffffffffffffffff82111561312257600080fd5b8160051b36038b131561313457600080fd5b6131418783838601613062565b965094850194939093019250506001016130e0565b5050508091505061299560208301846130ab565b6000806040838503121561317d57600080fd5b505080516020909101519092909150565b6000806000606084860312156131a357600080fd5b8351925060208401519150604084015190509250925092565b6020808252602e908201527f496e697469616c697a61626c653a20636f6e747261637420697320616c72656160408201526d191e481a5b9a5d1a585b1a5e995960921b606082015260800190565b6020808252602b908201527f496e697469616c697a61626c653a20636f6e7472616374206973206e6f74206960408201526a6e697469616c697a696e6760a81b606082015260800190565b600081600019048311821515161561326f5761326f61301c565b500290565b60008261329157634e487b7160e01b600052601260045260246000fd5b500490565b60005b838110156132b1578181015183820152602001613299565b838111156122125750506000910152565b600082516132d4818460208701613296565b9190910192915050565b60208152600082518060208401526132fd816040850160208701613296565b601f01601f1916919091016040019291505056fe360894a13ba1a3210667c828492db98dca3e2076cc3735a920a3ca505d382bbc416464726573733a206c6f772d6c6576656c2064656c65676174652063616c6c206661696c6564a2646970667358221220927cef32e2463d6c0e91720d487747c6d46d6d2d2cbd065e9d443969bd9509a664736f6c634300080a0033496e697469616c697a61626c653a20636f6e747261637420697320616c726561",
  "immutableReferences": {
    "561": [
      {
        "length": 32,
        "start": 1213
      },
      {
        "length": 32,
        "start": 1277
      },
      {
        "length": 32,
        "start": 4013
      },
      {
        "length": 32,
        "start": 4077
      },
      {
        "length": 32,
        "start": 4593
      }
    ]
  },
  "source": "// SPDX-License-Identifier: MIT\r\npragma solidity 0.8.10;\r\n\r\nimport {IUnoFarmQuickswap as Farm} from './interfaces/IUnoFarmQuickswap.sol'; \r\nimport '../../interfaces/IUnoFarmFactory.sol';\r\nimport '../../interfaces/IUnoAccessManager.sol'; \r\nimport '../../interfaces/IUniswapV2Pair.sol';\r\nimport '../../interfaces/IStakingRewards.sol';\r\nimport '../../interfaces/IWMATIC.sol';\r\nimport '@openzeppelin/contracts-upgradeable/token/ERC20/IERC20Upgradeable.sol';\r\nimport '@openzeppelin/contracts-upgradeable/token/ERC20/utils/SafeERC20Upgradeable.sol';\r\nimport '@openzeppelin/contracts-upgradeable/proxy/utils/Initializable.sol';\r\nimport '@openzeppelin/contracts-upgradeable/security/PausableUpgradeable.sol';\r\nimport '@openzeppelin/contracts-upgradeable/proxy/utils/UUPSUpgradeable.sol';\r\n\r\ncontract UnoAssetRouterQuickswap is Initializable, PausableUpgradeable, UUPSUpgradeable {\r\n    using SafeERC20Upgradeable for IERC20Upgradeable;\r\n\r\n    /**\r\n     * @dev Contract Variables:\r\n     * farmFactory - The contract that deploys new Farms and links them to {lpStakingPool}s.\r\n     * accessManager - Role manager contract.\r\n     */\r\n    IUnoFarmFactory public farmFactory;\r\n    IUnoAccessManager public accessManager;\r\n\r\n    bytes32 private constant DISTRIBUTOR_ROLE = keccak256('DISTRIBUTOR_ROLE');\r\n    bytes32 private constant PAUSER_ROLE = keccak256('PAUSER_ROLE');\r\n\r\n    address public WMATIC;\r\n\r\n    event Deposit(address indexed lpPool, address indexed sender, address indexed recipient, uint256 amount);\r\n    event Withdraw(address indexed lpPool, address indexed sender, address indexed recipient, uint256 amount);\r\n    event Distribute(address indexed lpPool, uint256 reward);\r\n\r\n    modifier onlyRole(bytes32 role){\r\n        require(accessManager.hasRole(role, msg.sender), 'CALLER_NOT_AUTHORIZED');\r\n        _;\r\n    }\r\n\r\n    // ============ Methods ============\r\n\r\n    /// @custom:oz-upgrades-unsafe-allow constructor\r\n    constructor() {\r\n        _disableInitializers();\r\n    }\r\n\r\n    function initialize(address _accessManager, address _farmFactory) external initializer{\r\n        require (_accessManager != address(0), 'BAD_ACCESS_MANAGER');\r\n        require (_farmFactory != address(0), 'BAD_FARM_FACTORY');\r\n\r\n        __Pausable_init();\r\n        accessManager = IUnoAccessManager(_accessManager);\r\n        farmFactory = IUnoFarmFactory(_farmFactory);\r\n        WMATIC = 0x0d500B1d8E8eF31E21C99d1Db9A6444d3ADf1270;\r\n    }\r\n\r\n    receive() external payable {\r\n        assert(msg.sender == WMATIC); // only accept ETH via fallback from the WMATIC contract\r\n    }\r\n    \r\n    /**\r\n     * @dev Autoconverts MATIC into WMATIC and deposits tokens in the given pool. Creates new Farm contract if there isn't one deployed for the {lpStakingPool} and deposits tokens in it. Emits a {Deposit} event.\r\n     * @param lpStakingPool - Address of the pool to deposit tokens in.\r\n     * @param amountToken  - Token amount to deposit.\r\n     * @param amountTokenMin - Bounds the extent to which the (TOKEN/WMATIC or TOKEN/WMATIC) price can go up before the transaction reverts.\r\n     * @param amountETHMin - Minimum amount of Matic to deposit.\r\n     * @param amountLP - Additional LP Token amount to deposit.\r\n     * @param recipient - Address which will receive the deposit.\r\n     \r\n     * @return sentETH - WMATIC amount sent to the farm.\r\n     * @return sentToken - Token amount sent to the farm.\r\n     * @return liquidity - Total liquidity sent to the farm (in lpTokens).\r\n     */\r\n    function depositETH(address lpStakingPool, uint256 amountToken, uint256 amountTokenMin, uint256 amountETHMin, uint256 amountLP, address recipient) external payable whenNotPaused returns(uint256 sentETH, uint256 sentToken, uint256 liquidity){\r\n        Farm farm = Farm(farmFactory.Farms(lpStakingPool));\r\n        if(farm == Farm(address(0))){\r\n            farm = Farm(farmFactory.createFarm(lpStakingPool));\r\n        }\r\n        \r\n        require(farm.tokenA() == WMATIC || farm.tokenB() == WMATIC, \"NO_WMATIC_IN_POOL\");\r\n        require(msg.value > 0, \"NO_MATIC_SENT\");\r\n\r\n        IWMATIC(WMATIC).deposit{value: msg.value}();\r\n        IERC20Upgradeable(WMATIC).safeTransfer(address(farm), msg.value);\r\n\r\n        if(amountLP > 0){\r\n            IERC20Upgradeable(farm.lpPair()).safeTransferFrom(msg.sender, address(farm), amountLP);\r\n        }\r\n\r\n        if (farm.tokenA() == WMATIC) {\r\n            if (amountToken > 0) {\r\n                IERC20Upgradeable(farm.tokenB()).safeTransferFrom(msg.sender, address(farm), amountToken);\r\n            }\r\n            (sentETH, sentToken, liquidity) = _deposit(lpStakingPool, msg.value, amountToken, amountETHMin, amountTokenMin, amountLP, address(this), recipient);\r\n            IERC20Upgradeable(farm.tokenB()).safeTransfer(msg.sender, amountToken - sentToken);\r\n        } else {\r\n            if (amountToken > 0) {\r\n                IERC20Upgradeable(farm.tokenA()).safeTransferFrom(msg.sender, address(farm), amountToken);\r\n            }\r\n            (sentToken, sentETH, liquidity) = _deposit(lpStakingPool, amountToken, msg.value, amountTokenMin, amountETHMin, amountLP, address(this), recipient);\r\n            IERC20Upgradeable(farm.tokenA()).safeTransfer(msg.sender, amountToken - sentToken);\r\n        }\r\n\r\n        if (msg.value - sentETH > 0){\r\n            IWMATIC(WMATIC).withdraw(msg.value - sentETH);\r\n            payable(msg.sender).transfer(msg.value - sentETH);\r\n        }\r\n        emit Deposit(lpStakingPool, msg.sender, recipient, liquidity);\r\n    }\r\n\r\n    /**\r\n     * @dev Deposits tokens in the given pool. Creates new Farm contract if there isn't one deployed for the {lpStakingPool} and deposits tokens in it. Emits a {Deposit} event.\r\n     * @param lpStakingPool - Address of the pool to deposit tokens in.\r\n     * @param amountA  - Token A amount to deposit.\r\n     * @param amountB - Token B amount to deposit.\r\n     * @param amountAMin - Bounds the extent to which the B/A price can go up before the transaction reverts.\r\n     * @param amountBMin - Bounds the extent to which the A/B price can go up before the transaction reverts.\r\n     * @param amountLP - Additional LP Token amount to deposit.\r\n     * @param recipient - Address which will receive the deposit.\r\n     \r\n     * @return sentA - Token A amount sent to the farm.\r\n     * @return sentB - Token B amount sent to the farm.\r\n     * @return liquidity - Total liquidity sent to the farm (in lpTokens).\r\n     */\r\n    function deposit(address lpStakingPool, uint256 amountA, uint256 amountB, uint256 amountAMin, uint256 amountBMin, uint256 amountLP, address recipient) external whenNotPaused returns(uint256 sentA, uint256 sentB, uint256 liquidity){\r\n        Farm farm = Farm(farmFactory.Farms(lpStakingPool));\r\n        if(farm == Farm(address(0))){\r\n            farm = Farm(farmFactory.createFarm(lpStakingPool));\r\n        }\r\n\r\n        if(amountA > 0){\r\n            IERC20Upgradeable(farm.tokenA()).safeTransferFrom(msg.sender, address(farm), amountA);\r\n        }\r\n        if(amountB > 0){\r\n            IERC20Upgradeable(farm.tokenB()).safeTransferFrom(msg.sender, address(farm), amountB);\r\n        }\r\n        if(amountLP > 0){\r\n            IERC20Upgradeable(farm.lpPair()).safeTransferFrom(msg.sender, address(farm), amountLP);\r\n        } \r\n\r\n        (sentA, sentB, liquidity) = _deposit(lpStakingPool, amountA, amountB, amountAMin, amountBMin, amountLP, msg.sender, recipient);\r\n        emit Deposit(lpStakingPool, msg.sender, recipient, liquidity);\r\n    }\r\n\r\n    /** \r\n     * @dev Autoconverts WMATIC into MATIC and withdraws tokens from the pool. Emits a {Withdraw} event.\r\n     * @param lpStakingPool - LP pool to withdraw from.\r\n     * @param amount - LP amount to withdraw. \r\n     * @param amountTokenMin - The minimum amount of token that must be received for the transaction not to revert.\r\n     * @param amountETHMin - The minimum amount of MATIC that must be received for the transaction not to revert.\r\n     * @param recipient - The address which will receive tokens.\r\n\r\n     * @return amountETH - MATIC amount sent to the {recipient}.\r\n     * @return amountToken - Token amount sent to the {recipient}.\r\n     */ \r\n    function withdrawETH(address lpStakingPool, uint256 amount, uint256 amountTokenMin, uint256 amountETHMin, address recipient) external payable returns(uint256 amountETH, uint256 amountToken){\r\n        Farm farm = Farm(farmFactory.Farms(lpStakingPool));\r\n        require(farm != Farm(address(0)),'FARM_NOT_EXISTS');\r\n\r\n        require(farm.tokenA() == address(WMATIC) || farm.tokenB() == address(WMATIC), \"NO_WMATIC_IN_POOL\");\r\n\r\n        if (farm.tokenA() == address(WMATIC)) {\r\n            (amountETH, amountToken) = _withdraw(lpStakingPool, amount, amountETHMin, amountTokenMin, false, address(this));\r\n            IERC20Upgradeable(farm.tokenB()).safeTransfer(recipient, amountToken);\r\n        } else {\r\n            (amountToken, amountETH) = _withdraw(lpStakingPool, amount, amountTokenMin, amountETHMin, false, address(this));\r\n            IERC20Upgradeable(farm.tokenA()).safeTransfer(recipient, amountToken);\r\n            \r\n        } \r\n\r\n        IWMATIC(WMATIC).withdraw(amountETH);\r\n        payable(recipient).transfer(amountETH);\r\n        emit Withdraw(lpStakingPool, msg.sender, recipient, amount);\r\n    }\r\n\r\n    /** \r\n     * @dev Withdraws tokens from the given pool. Emits a {Withdraw} event.\r\n     * @param lpStakingPool - LP pool to withdraw from.\r\n     * @param amount - LP amount to withdraw. \r\n     * @param amountAMin - The minimum amount of tokenA that must be received for the transaction not to revert.\r\n     * @param amountBMin - The minimum amount of tokenB that must be received for the transaction not to revert.\r\n     * @param withdrawLP - True: Withdraw in LP tokens, False: Withdraw in normal tokens.\r\n     * @param recipient - The address which will receive tokens.\r\n\r\n     * @return amountA - Token A amount sent to the {recipient}, 0 if withdrawLP == false.\r\n     * @return amountB - Token B amount sent to the {recipient}, 0 if withdrawLP == false.\r\n     */ \r\n    function withdraw(address lpStakingPool, uint256 amount, uint256 amountAMin, uint256 amountBMin, bool withdrawLP, address recipient) external returns(uint256 amountA, uint256 amountB){\r\n        Farm farm = Farm(farmFactory.Farms(lpStakingPool));\r\n        require(farm != Farm(address(0)),'FARM_NOT_EXISTS');\r\n        \r\n        (amountA, amountB) = _withdraw(lpStakingPool, amount, amountAMin, amountBMin, withdrawLP, recipient);\r\n        emit Withdraw(lpStakingPool, msg.sender, recipient, amount);  \r\n    }\r\n\r\n    /**\r\n     * @dev Distributes tokens between users. Emits a {Distribute} event.\r\n     * @param lpStakingPool - LP pool to distribute tokens in.\r\n     * @param swapRoutes - Arrays of token addresses describing swap routes. [rewardTokenToTokenARoute, rewardTokenToTokenBRoute].\r\n     * @param amountsOutMin The minimum amount of output tokens that must be received for the transaction not to revert.\r\n     *\r\n     * Note: This function can only be called by the distributor.\r\n     */ \r\n    function distribute(\r\n        address lpStakingPool,\r\n        address[][2] calldata swapRoutes,\r\n        uint256[2] memory amountsOutMin\r\n    ) external whenNotPaused onlyRole(DISTRIBUTOR_ROLE) {\r\n        Farm farm = Farm(farmFactory.Farms(lpStakingPool));\r\n        require(farm != Farm(address(0)), 'FARM_NOT_EXISTS');\r\n\r\n        uint256 reward = farm.distribute(swapRoutes, amountsOutMin);\r\n        emit Distribute(lpStakingPool, reward);\r\n    }\r\n\r\n    function _deposit(address lpStakingPool, uint256 amountA, uint256 amountB, uint256 amountAMin, uint256 amountBMin, uint256 amountLP, address origin, address recipient) internal returns (uint256 sentA, uint256 sentB, uint256 liquidity) {\r\n        Farm farm = Farm(farmFactory.Farms(lpStakingPool));\r\n\r\n        (sentA, sentB, liquidity) = farm.deposit(amountA, amountB, amountAMin, amountBMin, amountLP, origin, recipient);\r\n    }\r\n\r\n    function _withdraw(address lpStakingPool, uint256 amount, uint256 amountAMin, uint256 amountBMin, bool withdrawLP, address recipient) internal returns(uint256 amountA, uint256 amountB) {\r\n        Farm farm = Farm(farmFactory.Farms(lpStakingPool));\r\n\r\n        (amountA, amountB) = farm.withdraw(amount, amountAMin, amountBMin, withdrawLP, msg.sender, recipient); \r\n    }\r\n\r\n    /**\r\n     * @dev Returns tokens staked by the {_address} for the given {lpStakingPool}.\r\n     * @param _address - The address to check stakes for.\r\n     * @param lpStakingPool - LP pool to check stakes in.\r\n\r\n     * @return stakeLP - Total user stake(in LP tokens).\r\n     * @return stakeA - Token A stake.\r\n     * @return stakeB - Token B stake.\r\n     */\r\n    function userStake(address _address, address lpStakingPool) external view returns (uint256 stakeLP, uint256 stakeA, uint256 stakeB) {\r\n        Farm farm = Farm(farmFactory.Farms(lpStakingPool));\r\n        if (farm != Farm(address(0))) {\r\n            stakeLP = farm.userBalance(_address);\r\n            address lpPair = farm.lpPair();\r\n            (stakeA, stakeB) = getTokenStake(lpPair, stakeLP);\r\n        }\r\n    }\r\n\r\n    /**\r\n     * @dev Returns total amount locked in the pool. Doesn't take pending rewards into account.\r\n     * @param lpStakingPool - LP pool to check total deposits in.\r\n\r\n     * @return totalDepositsLP - Total deposits (in LP tokens).\r\n     * @return totalDepositsA - Token A deposits.\r\n     * @return totalDepositsB - Token B deposits.\r\n     */  \r\n    function totalDeposits(address lpStakingPool) external view returns (uint256 totalDepositsLP, uint256 totalDepositsA, uint256 totalDepositsB) {\r\n        Farm farm = Farm(farmFactory.Farms(lpStakingPool));\r\n        if (farm != Farm(address(0))) {\r\n            totalDepositsLP = farm.getTotalDeposits();\r\n            address lpPair = farm.lpPair();\r\n            (totalDepositsA, totalDepositsB) = getTokenStake(lpPair, totalDepositsLP);\r\n        }\r\n    }\r\n\r\n    /**\r\n     * @dev Returns addresses of pair of tokens in {lpStakingPool}.\r\n     * @param lpStakingPool - LP pool to check tokens in.\r\n\r\n     * @return tokenA - Token A address.\r\n     * @return tokenB - Token B address.\r\n     */  \r\n    function getTokens(address lpStakingPool) external view returns(address tokenA, address tokenB){\r\n        IUniswapV2Pair stakingToken = IUniswapV2Pair(address(IStakingRewards(lpStakingPool).stakingToken()));\r\n        tokenA = stakingToken.token0();\r\n        tokenB = stakingToken.token1();\r\n    }\r\n\r\n\r\n    /**\r\n     * @dev Converts LP tokens to normal tokens, value(amountA) == value(amountB) == 0.5*amountLP\r\n     * @param lpPair - LP pair for conversion.\r\n     * @param amountLP - Amount of LP tokens to convert.\r\n\r\n     * @return amountA - Token A amount.\r\n     * @return amountB - Token B amount.\r\n     */ \r\n    function getTokenStake(address lpPair, uint256 amountLP) internal view returns (uint256 amountA, uint256 amountB) {\r\n        uint256 totalSupply = IERC20Upgradeable(lpPair).totalSupply();\r\n        amountA = amountLP * IERC20Upgradeable(IUniswapV2Pair(lpPair).token0()).balanceOf(lpPair) / totalSupply;\r\n        amountB = amountLP * IERC20Upgradeable(IUniswapV2Pair(lpPair).token1()).balanceOf(lpPair) / totalSupply;\r\n    }\r\n \r\n    function pause() external onlyRole(PAUSER_ROLE) {\r\n        _pause();\r\n    }\r\n\r\n    function unpause() external onlyRole(PAUSER_ROLE) {\r\n        _unpause();\r\n    }\r\n\r\n    function _authorizeUpgrade(address) internal override onlyRole(accessManager.ADMIN_ROLE()) {\r\n\r\n    }\r\n}\r\n",
  "sourcePath": "C:\\Users\\nick_\\OneDrive\\\\UNO\\Solidity\\autostrats_balancer\\uno-contracts\\contracts\\apps\\quickswap\\UnoAssetRouterQuickswap.sol",
  "compiler": {
    "name": "solc",
    "version": "0.8.10+commit.fc410830.Emscripten.clang"
  },
  "schemaVersion": "3.4.7",
  "updatedAt": "2022-09-16T13:19:05.454Z",
  "devdoc": {
    "kind": "dev",
    "methods": {
      "constructor": {
        "custom:oz-upgrades-unsafe-allow": "constructor"
      },
      "deposit(address,uint256,uint256,uint256,uint256,uint256,address)": {
        "details": "Deposits tokens in the given pool. Creates new Farm contract if there isn't one deployed for the {lpStakingPool} and deposits tokens in it. Emits a {Deposit} event.",
        "params": {
          "amountA": "- Token A amount to deposit.",
          "amountAMin": "- Bounds the extent to which the B/A price can go up before the transaction reverts.",
          "amountB": "- Token B amount to deposit.",
          "amountBMin": "- Bounds the extent to which the A/B price can go up before the transaction reverts.",
          "amountLP": "- Additional LP Token amount to deposit.",
          "lpStakingPool": "- Address of the pool to deposit tokens in.",
          "recipient": "- Address which will receive the deposit."
        },
        "returns": {
          "liquidity": "- Total liquidity sent to the farm (in lpTokens).",
          "sentA": "- Token A amount sent to the farm.",
          "sentB": "- Token B amount sent to the farm."
        }
      },
      "depositETH(address,uint256,uint256,uint256,uint256,address)": {
        "details": "Autoconverts MATIC into WMATIC and deposits tokens in the given pool. Creates new Farm contract if there isn't one deployed for the {lpStakingPool} and deposits tokens in it. Emits a {Deposit} event.",
        "params": {
          "amountETHMin": "- Minimum amount of Matic to deposit.",
          "amountLP": "- Additional LP Token amount to deposit.",
          "amountToken": "- Token amount to deposit.",
          "amountTokenMin": "- Bounds the extent to which the (TOKEN/WMATIC or TOKEN/WMATIC) price can go up before the transaction reverts.",
          "lpStakingPool": "- Address of the pool to deposit tokens in.",
          "recipient": "- Address which will receive the deposit."
        },
        "returns": {
          "liquidity": "- Total liquidity sent to the farm (in lpTokens).",
          "sentETH": "- WMATIC amount sent to the farm.",
          "sentToken": "- Token amount sent to the farm."
        }
      },
      "distribute(address,address[][2],uint256[2])": {
        "details": "Distributes tokens between users. Emits a {Distribute} event.",
        "params": {
          "amountsOutMin": "The minimum amount of output tokens that must be received for the transaction not to revert. Note: This function can only be called by the distributor.",
          "lpStakingPool": "- LP pool to distribute tokens in.",
          "swapRoutes": "- Arrays of token addresses describing swap routes. [rewardTokenToTokenARoute, rewardTokenToTokenBRoute]."
        }
      },
      "getTokens(address)": {
        "details": "Returns addresses of pair of tokens in {lpStakingPool}.",
        "params": {
          "lpStakingPool": "- LP pool to check tokens in."
        },
        "returns": {
          "tokenA": "- Token A address.",
          "tokenB": "- Token B address."
        }
      },
      "paused()": {
        "details": "Returns true if the contract is paused, and false otherwise."
      },
      "proxiableUUID()": {
        "details": "Implementation of the ERC1822 {proxiableUUID} function. This returns the storage slot used by the implementation. It is used to validate that the this implementation remains valid after an upgrade. IMPORTANT: A proxy pointing at a proxiable contract should not be considered proxiable itself, because this risks bricking a proxy that upgrades to it, by delegating to itself until out of gas. Thus it is critical that this function revert if invoked through a proxy. This is guaranteed by the `notDelegated` modifier."
      },
      "totalDeposits(address)": {
        "details": "Returns total amount locked in the pool. Doesn't take pending rewards into account.",
        "params": {
          "lpStakingPool": "- LP pool to check total deposits in."
        },
        "returns": {
          "totalDepositsA": "- Token A deposits.",
          "totalDepositsB": "- Token B deposits.",
          "totalDepositsLP": "- Total deposits (in LP tokens)."
        }
      },
      "upgradeTo(address)": {
        "details": "Upgrade the implementation of the proxy to `newImplementation`. Calls {_authorizeUpgrade}. Emits an {Upgraded} event."
      },
      "upgradeToAndCall(address,bytes)": {
        "details": "Upgrade the implementation of the proxy to `newImplementation`, and subsequently execute the function call encoded in `data`. Calls {_authorizeUpgrade}. Emits an {Upgraded} event."
      },
      "userStake(address,address)": {
        "details": "Returns tokens staked by the {_address} for the given {lpStakingPool}.",
        "params": {
          "_address": "- The address to check stakes for.",
          "lpStakingPool": "- LP pool to check stakes in."
        },
        "returns": {
          "stakeA": "- Token A stake.",
          "stakeB": "- Token B stake.",
          "stakeLP": "- Total user stake(in LP tokens)."
        }
      },
      "withdraw(address,uint256,uint256,uint256,bool,address)": {
        "details": "Withdraws tokens from the given pool. Emits a {Withdraw} event.",
        "params": {
          "amount": "- LP amount to withdraw. ",
          "amountAMin": "- The minimum amount of tokenA that must be received for the transaction not to revert.",
          "amountBMin": "- The minimum amount of tokenB that must be received for the transaction not to revert.",
          "lpStakingPool": "- LP pool to withdraw from.",
          "recipient": "- The address which will receive tokens.",
          "withdrawLP": "- True: Withdraw in LP tokens, False: Withdraw in normal tokens."
        },
        "returns": {
          "amountA": "- Token A amount sent to the {recipient}, 0 if withdrawLP == false.",
          "amountB": "- Token B amount sent to the {recipient}, 0 if withdrawLP == false."
        }
      },
      "withdrawETH(address,uint256,uint256,uint256,address)": {
        "details": "Autoconverts WMATIC into MATIC and withdraws tokens from the pool. Emits a {Withdraw} event.",
        "params": {
          "amount": "- LP amount to withdraw. ",
          "amountETHMin": "- The minimum amount of MATIC that must be received for the transaction not to revert.",
          "amountTokenMin": "- The minimum amount of token that must be received for the transaction not to revert.",
          "lpStakingPool": "- LP pool to withdraw from.",
          "recipient": "- The address which will receive tokens."
        },
        "returns": {
          "amountETH": "- MATIC amount sent to the {recipient}.",
          "amountToken": "- Token amount sent to the {recipient}."
        }
      }
    },
    "stateVariables": {
      "farmFactory": {
        "details": "Contract Variables: farmFactory - The contract that deploys new Farms and links them to {lpStakingPool}s. accessManager - Role manager contract."
      }
    },
    "version": 1
  },
  "userdoc": {
    "kind": "user",
    "methods": {},
    "version": 1
  }
}