{
  "contractName": "UnoAssetRouterBalancer",
  "abi": [
    {
      "inputs": [],
      "stateMutability": "nonpayable",
      "type": "constructor"
    },
    {
      "anonymous": false,
      "inputs": [
        {
          "indexed": false,
          "internalType": "address",
          "name": "previousAdmin",
          "type": "address"
        },
        {
          "indexed": false,
          "internalType": "address",
          "name": "newAdmin",
          "type": "address"
        }
      ],
      "name": "AdminChanged",
      "type": "event"
    },
    {
      "anonymous": false,
      "inputs": [
        {
          "indexed": true,
          "internalType": "address",
          "name": "beacon",
          "type": "address"
        }
      ],
      "name": "BeaconUpgraded",
      "type": "event"
    },
    {
      "anonymous": false,
      "inputs": [
        {
          "indexed": true,
          "internalType": "address",
          "name": "lpPool",
          "type": "address"
        },
        {
          "indexed": true,
          "internalType": "address",
          "name": "sender",
          "type": "address"
        },
        {
          "indexed": true,
          "internalType": "address",
          "name": "recipient",
          "type": "address"
        },
        {
          "indexed": false,
          "internalType": "uint256",
          "name": "amount",
          "type": "uint256"
        }
      ],
      "name": "Deposit",
      "type": "event"
    },
    {
      "anonymous": false,
      "inputs": [
        {
          "indexed": true,
          "internalType": "address",
          "name": "lpPool",
          "type": "address"
        },
        {
          "indexed": false,
          "internalType": "uint256",
          "name": "reward",
          "type": "uint256"
        }
      ],
      "name": "Distribute",
      "type": "event"
    },
    {
      "anonymous": false,
      "inputs": [
        {
          "indexed": false,
          "internalType": "uint256",
          "name": "previousFee",
          "type": "uint256"
        },
        {
          "indexed": false,
          "internalType": "uint256",
          "name": "newFee",
          "type": "uint256"
        }
      ],
      "name": "FeeChanged",
      "type": "event"
    },
    {
      "anonymous": false,
      "inputs": [
        {
          "indexed": false,
          "internalType": "uint8",
          "name": "version",
          "type": "uint8"
        }
      ],
      "name": "Initialized",
      "type": "event"
    },
    {
      "anonymous": false,
      "inputs": [
        {
          "indexed": false,
          "internalType": "address",
          "name": "account",
          "type": "address"
        }
      ],
      "name": "Paused",
      "type": "event"
    },
    {
      "anonymous": false,
      "inputs": [
        {
          "indexed": false,
          "internalType": "address",
          "name": "account",
          "type": "address"
        }
      ],
      "name": "Unpaused",
      "type": "event"
    },
    {
      "anonymous": false,
      "inputs": [
        {
          "indexed": true,
          "internalType": "address",
          "name": "implementation",
          "type": "address"
        }
      ],
      "name": "Upgraded",
      "type": "event"
    },
    {
      "anonymous": false,
      "inputs": [
        {
          "indexed": true,
          "internalType": "address",
          "name": "lpPool",
          "type": "address"
        },
        {
          "indexed": true,
          "internalType": "address",
          "name": "sender",
          "type": "address"
        },
        {
          "indexed": true,
          "internalType": "address",
          "name": "recipient",
          "type": "address"
        },
        {
          "indexed": false,
          "internalType": "uint256",
          "name": "amount",
          "type": "uint256"
        }
      ],
      "name": "Withdraw",
      "type": "event"
    },
    {
      "inputs": [],
      "name": "WMATIC",
      "outputs": [
        {
          "internalType": "address",
          "name": "",
          "type": "address"
        }
      ],
      "stateMutability": "view",
      "type": "function",
      "constant": true
    },
    {
      "inputs": [],
      "name": "accessManager",
      "outputs": [
        {
          "internalType": "contract IUnoAccessManager",
          "name": "",
          "type": "address"
        }
      ],
      "stateMutability": "view",
      "type": "function",
      "constant": true
    },
    {
      "inputs": [],
      "name": "farmFactory",
      "outputs": [
        {
          "internalType": "contract IUnoFarmFactory",
          "name": "",
          "type": "address"
        }
      ],
      "stateMutability": "view",
      "type": "function",
      "constant": true
    },
    {
      "inputs": [],
      "name": "fee",
      "outputs": [
        {
          "internalType": "uint256",
          "name": "",
          "type": "uint256"
        }
      ],
      "stateMutability": "view",
      "type": "function",
      "constant": true
    },
    {
      "inputs": [],
      "name": "paused",
      "outputs": [
        {
          "internalType": "bool",
          "name": "",
          "type": "bool"
        }
      ],
      "stateMutability": "view",
      "type": "function",
      "constant": true
    },
    {
      "inputs": [],
      "name": "proxiableUUID",
      "outputs": [
        {
          "internalType": "bytes32",
          "name": "",
          "type": "bytes32"
        }
      ],
      "stateMutability": "view",
      "type": "function",
      "constant": true
    },
    {
      "inputs": [
        {
          "internalType": "address",
          "name": "newImplementation",
          "type": "address"
        }
      ],
      "name": "upgradeTo",
      "outputs": [],
      "stateMutability": "nonpayable",
      "type": "function"
    },
    {
      "inputs": [
        {
          "internalType": "address",
          "name": "newImplementation",
          "type": "address"
        },
        {
          "internalType": "bytes",
          "name": "data",
          "type": "bytes"
        }
      ],
      "name": "upgradeToAndCall",
      "outputs": [],
      "stateMutability": "payable",
      "type": "function",
      "payable": true
    },
    {
      "stateMutability": "payable",
      "type": "receive",
      "payable": true
    },
    {
      "inputs": [
        {
          "internalType": "address",
          "name": "_accessManager",
          "type": "address"
        },
        {
          "internalType": "address",
          "name": "_farmFactory",
          "type": "address"
        }
      ],
      "name": "initialize",
      "outputs": [],
      "stateMutability": "nonpayable",
      "type": "function"
    },
    {
      "inputs": [
        {
          "internalType": "address",
          "name": "lpPool",
          "type": "address"
        },
        {
          "internalType": "uint256[]",
          "name": "amounts",
          "type": "uint256[]"
        },
        {
          "internalType": "address[]",
          "name": "tokens",
          "type": "address[]"
        },
        {
          "internalType": "uint256",
          "name": "minAmountLP",
          "type": "uint256"
        },
        {
          "internalType": "uint256",
          "name": "amountLP",
          "type": "uint256"
        },
        {
          "internalType": "address",
          "name": "recipient",
          "type": "address"
        }
      ],
      "name": "deposit",
      "outputs": [
        {
          "internalType": "uint256",
          "name": "liquidity",
          "type": "uint256"
        }
      ],
      "stateMutability": "nonpayable",
      "type": "function"
    },
    {
      "inputs": [
        {
          "internalType": "address",
          "name": "lpPool",
          "type": "address"
        },
        {
          "internalType": "uint256[]",
          "name": "amounts",
          "type": "uint256[]"
        },
        {
          "internalType": "address[]",
          "name": "tokens",
          "type": "address[]"
        },
        {
          "internalType": "uint256",
          "name": "minAmountLP",
          "type": "uint256"
        },
        {
          "internalType": "uint256",
          "name": "amountLP",
          "type": "uint256"
        },
        {
          "internalType": "address",
          "name": "recipient",
          "type": "address"
        }
      ],
      "name": "depositETH",
      "outputs": [
        {
          "internalType": "uint256",
          "name": "liquidity",
          "type": "uint256"
        }
      ],
      "stateMutability": "payable",
      "type": "function",
      "payable": true
    },
    {
      "inputs": [
        {
          "internalType": "address",
          "name": "lpPool",
          "type": "address"
        },
        {
          "internalType": "uint256",
          "name": "amount",
          "type": "uint256"
        },
        {
          "internalType": "uint256[]",
          "name": "minAmountsOut",
          "type": "uint256[]"
        },
        {
          "internalType": "bool",
          "name": "withdrawLP",
          "type": "bool"
        },
        {
          "internalType": "address",
          "name": "recipient",
          "type": "address"
        }
      ],
      "name": "withdraw",
      "outputs": [
        {
          "internalType": "uint256[]",
          "name": "amounts",
          "type": "uint256[]"
        }
      ],
      "stateMutability": "nonpayable",
      "type": "function"
    },
    {
      "inputs": [
        {
          "internalType": "address",
          "name": "lpPool",
          "type": "address"
        },
        {
          "internalType": "uint256",
          "name": "amount",
          "type": "uint256"
        },
        {
          "internalType": "uint256[]",
          "name": "minAmountsOut",
          "type": "uint256[]"
        },
        {
          "internalType": "address",
          "name": "recipient",
          "type": "address"
        }
      ],
      "name": "withdrawETH",
      "outputs": [
        {
          "internalType": "uint256[]",
          "name": "amounts",
          "type": "uint256[]"
        }
      ],
      "stateMutability": "nonpayable",
      "type": "function"
    },
    {
      "inputs": [
        {
          "internalType": "address",
          "name": "lpPool",
          "type": "address"
        },
        {
          "components": [
            {
              "components": [
                {
                  "internalType": "bytes32",
                  "name": "poolId",
                  "type": "bytes32"
                },
                {
                  "internalType": "uint256",
                  "name": "assetInIndex",
                  "type": "uint256"
                },
                {
                  "internalType": "uint256",
                  "name": "assetOutIndex",
                  "type": "uint256"
                },
                {
                  "internalType": "uint256",
                  "name": "amount",
                  "type": "uint256"
                },
                {
                  "internalType": "bytes",
                  "name": "userData",
                  "type": "bytes"
                }
              ],
              "internalType": "struct IVault.BatchSwapStep[]",
              "name": "swaps",
              "type": "tuple[]"
            },
            {
              "internalType": "contract IERC20[]",
              "name": "assets",
              "type": "address[]"
            },
            {
              "internalType": "int256[]",
              "name": "limits",
              "type": "int256[]"
            }
          ],
          "internalType": "struct IUnoFarmBalancer.SwapInfo[]",
          "name": "swapInfos",
          "type": "tuple[]"
        },
        {
          "components": [
            {
              "components": [
                {
                  "internalType": "bytes32",
                  "name": "poolId",
                  "type": "bytes32"
                },
                {
                  "internalType": "uint256",
                  "name": "assetInIndex",
                  "type": "uint256"
                },
                {
                  "internalType": "uint256",
                  "name": "assetOutIndex",
                  "type": "uint256"
                },
                {
                  "internalType": "uint256",
                  "name": "amount",
                  "type": "uint256"
                },
                {
                  "internalType": "bytes",
                  "name": "userData",
                  "type": "bytes"
                }
              ],
              "internalType": "struct IVault.BatchSwapStep[]",
              "name": "swaps",
              "type": "tuple[]"
            },
            {
              "internalType": "contract IERC20[]",
              "name": "assets",
              "type": "address[]"
            },
            {
              "internalType": "int256[]",
              "name": "limits",
              "type": "int256[]"
            }
          ],
          "internalType": "struct IUnoFarmBalancer.SwapInfo[]",
          "name": "feeSwapInfos",
          "type": "tuple[]"
        },
        {
          "internalType": "address",
          "name": "feeTo",
          "type": "address"
        }
      ],
      "name": "distribute",
      "outputs": [],
      "stateMutability": "nonpayable",
      "type": "function"
    },
    {
      "inputs": [
        {
          "internalType": "address",
          "name": "_address",
          "type": "address"
        },
        {
          "internalType": "address",
          "name": "lpPool",
          "type": "address"
        }
      ],
      "name": "userStake",
      "outputs": [
        {
          "internalType": "uint256",
          "name": "",
          "type": "uint256"
        }
      ],
      "stateMutability": "view",
      "type": "function",
      "constant": true
    },
    {
      "inputs": [
        {
          "internalType": "address",
          "name": "lpPool",
          "type": "address"
        }
      ],
      "name": "totalDeposits",
      "outputs": [
        {
          "internalType": "uint256",
          "name": "",
          "type": "uint256"
        }
      ],
      "stateMutability": "view",
      "type": "function",
      "constant": true
    },
    {
      "inputs": [
        {
          "internalType": "address",
          "name": "lpPool",
          "type": "address"
        }
      ],
      "name": "getTokens",
      "outputs": [
        {
          "internalType": "contract IERC20[]",
          "name": "tokens",
          "type": "address[]"
        }
      ],
      "stateMutability": "view",
      "type": "function",
      "constant": true
    },
    {
      "inputs": [
        {
          "internalType": "uint256",
          "name": "_fee",
          "type": "uint256"
        }
      ],
      "name": "setFee",
      "outputs": [],
      "stateMutability": "nonpayable",
      "type": "function"
    },
    {
      "inputs": [],
      "name": "pause",
      "outputs": [],
      "stateMutability": "nonpayable",
      "type": "function"
    },
    {
      "inputs": [],
      "name": "unpause",
      "outputs": [],
      "stateMutability": "nonpayable",
      "type": "function"
    }
  ],
  "bytecode": "0x60a0604052306080523480156200001557600080fd5b506200002062000026565b62000156565b6200003260ff62000035565b50565b60008054610100900460ff1615620000ce578160ff1660011480156200006e57506200006c306200014760201b62001b581760201c565b155b620000c65760405162461bcd60e51b815260206004820152602e60248201526000805160206200341d83398151915260448201526d191e481a5b9a5d1a585b1a5e995960921b60648201526084015b60405180910390fd5b506000919050565b60005460ff8084169116106200012d5760405162461bcd60e51b815260206004820152602e60248201526000805160206200341d83398151915260448201526d191e481a5b9a5d1a585b1a5e995960921b6064820152608401620000bd565b506000805460ff191660ff92909216919091179055600190565b6001600160a01b03163b151590565b60805161328f6200018e600039600081816104220152818161046201528181610aa501528181610ae50152610c79015261328f6000f3fe6080604052600436106101235760003560e01c80635c975abb116100a0578063947b916011610064578063947b916014610381578063d280b941146103a1578063ddca3f43146103c1578063e9403256146103d7578063fdcb6068146103f757600080fd5b80635c975abb146102dc57806369fe0e2d146102ff5780636d25e1751461031f5780636fe460391461033f5780638456cb591461036c57600080fd5b80634d95cad9116100e75780634d95cad9146102415780634f1ef2861461028157806351bdca3e1461029457806352d1902d146102b45780635bcb8a29146102c957600080fd5b80633659cfe61461018c5780633cffb266146101ac5780633f4ba83a146101df578063450efe21146101f4578063485cc9551461022157600080fd5b366101875733730d500b1d8e8ef31e21c99d1db9a6444d3adf1270146101855760405162461bcd60e51b81526020600482015260126024820152714f4e4c595f4143434550545f574d4154494360701b60448201526064015b60405180910390fd5b005b600080fd5b34801561019857600080fd5b506101856101a73660046124bd565b610417565b3480156101b857600080fd5b506101cc6101c73660046125b9565b6104f7565b6040519081526020015b60405180910390f35b3480156101eb57600080fd5b506101856107bd565b34801561020057600080fd5b5061021461020f3660046124bd565b610874565b6040516101d691906126a9565b34801561022d57600080fd5b5061018561023c3660046126f6565b61095f565b34801561024d57600080fd5b50610269730d500b1d8e8ef31e21c99d1db9a6444d3adf127081565b6040516001600160a01b0390911681526020016101d6565b61018561028f36600461272f565b610a9a565b3480156102a057600080fd5b506101cc6102af3660046126f6565b610b6b565b3480156102c057600080fd5b506101cc610c6c565b6101cc6102d73660046125b9565b610d1f565b3480156102e857600080fd5b5060335460ff1660405190151581526020016101d6565b34801561030b57600080fd5b5061018561031a3660046127d7565b611144565b34801561032b57600080fd5b5060c954610269906001600160a01b031681565b34801561034b57600080fd5b5061035f61035a36600461283c565b6112d7565b6040516101d691906128eb565b34801561037857600080fd5b506101856115fc565b34801561038d57600080fd5b5061035f61039c36600461290c565b6116b3565b3480156103ad57600080fd5b506101856103bc366004612991565b61181c565b3480156103cd57600080fd5b506101cc60cb5481565b3480156103e357600080fd5b506101cc6103f23660046124bd565b611a63565b34801561040357600080fd5b5060ca54610269906001600160a01b031681565b306001600160a01b037f00000000000000000000000000000000000000000000000000000000000000001614156104605760405162461bcd60e51b815260040161017c90612a18565b7f00000000000000000000000000000000000000000000000000000000000000006001600160a01b03166104a9600080516020613213833981519152546001600160a01b031690565b6001600160a01b0316146104cf5760405162461bcd60e51b815260040161017c90612a64565b6104d881611b67565b604080516000808252602082019092526104f491839190611c6d565b50565b600061050560335460ff1690565b156105225760405162461bcd60e51b815260040161017c90612ab0565b84518651146105435760405162461bcd60e51b815260040161017c90612ada565b60c95460405163f9d9331d60e01b81526001600160a01b038981166004830152600092169063f9d9331d90602401602060405180830381865afa15801561058e573d6000803e3d6000fd5b505050506040513d601f19601f820116820180604052508101906105b29190612b1e565b90506001600160a01b0381166106345760c954604051621849e360e61b81526001600160a01b038a811660048301529091169063061278c0906024016020604051808303816000875af115801561060d573d6000803e3d6000fd5b505050506040513d601f19601f820116820180604052508101906106319190612b1e565b90505b60005b86518110156106c657600088828151811061065457610654612b3b565b602002602001015111156106b4576106b433838a848151811061067957610679612b3b565b60200260200101518a858151811061069357610693612b3b565b60200260200101516001600160a01b0316611dd8909392919063ffffffff16565b806106be81612b51565b915050610637565b5083156106e2576106e26001600160a01b038916338387611dd8565b604051632272658560e11b81526001600160a01b038216906344e4cb0a90610716908a908a908a908a908a90600401612b7a565b6020604051808303816000875af1158015610735573d6000803e3d6000fd5b505050506040513d601f19601f820116820180604052508101906107599190612bf7565b9150826001600160a01b0316336001600160a01b0316896001600160a01b03167f7cfff908a4b583f36430b25d75964c458d8ede8a99bd61be750e97ee1b2f3a96856040516107aa91815260200190565b60405180910390a4509695505050505050565b60ca54604051632474521560e21b81527f65d7a28e3265b37a6474929f336521b332c1681b933f6cb9f3376673440d862a60048201819052336024830152916001600160a01b0316906391d1485490604401602060405180830381865afa15801561082c573d6000803e3d6000fd5b505050506040513d601f19601f820116820180604052508101906108509190612c10565b61086c5760405162461bcd60e51b815260040161017c90612c2d565b6104f4611e49565b60606000826001600160a01b03166338fff2d06040518163ffffffff1660e01b8152600401602060405180830381865afa1580156108b6573d6000803e3d6000fd5b505050506040513d601f19601f820116820180604052508101906108da9190612bf7565b604051631f29a8cd60e31b81526004810182905290915073ba12222222228d8ba445958a75a0704d566bf2c89063f94d466890602401600060405180830381865afa15801561092d573d6000803e3d6000fd5b505050506040513d6000823e601f3d908101601f191682016040526109559190810190612cb7565b5090949350505050565b600061096b6001611edc565b90508015610983576000805461ff0019166101001790555b6001600160a01b0383166109ce5760405162461bcd60e51b81526020600482015260126024820152712120a22fa0a1a1a2a9a9afa6a0a720a3a2a960711b604482015260640161017c565b6001600160a01b038216610a175760405162461bcd60e51b815260206004820152601060248201526f4241445f4641524d5f464143544f525960801b604482015260640161017c565b610a1f611f69565b60ca80546001600160a01b038086166001600160a01b03199283161790925560c98054928516929091169190911790558015610a95576000805461ff0019169055604051600181527f7f26b83ff96e1f2b6a682f133852f6798a09c465da95921460cefb38474024989060200160405180910390a15b505050565b306001600160a01b037f0000000000000000000000000000000000000000000000000000000000000000161415610ae35760405162461bcd60e51b815260040161017c90612a18565b7f00000000000000000000000000000000000000000000000000000000000000006001600160a01b0316610b2c600080516020613213833981519152546001600160a01b031690565b6001600160a01b031614610b525760405162461bcd60e51b815260040161017c90612a64565b610b5b82611b67565b610b6782826001611c6d565b5050565b60c95460405163f9d9331d60e01b81526001600160a01b038381166004830152600092839291169063f9d9331d90602401602060405180830381865afa158015610bb9573d6000803e3d6000fd5b505050506040513d601f19601f82011682018060405250810190610bdd9190612b1e565b90506001600160a01b03811615610c6057604051630103c92b60e01b81526001600160a01b038581166004830152821690630103c92b90602401602060405180830381865afa158015610c34573d6000803e3d6000fd5b505050506040513d601f19601f82011682018060405250810190610c589190612bf7565b915050610c66565b60009150505b92915050565b6000306001600160a01b037f00000000000000000000000000000000000000000000000000000000000000001614610d0c5760405162461bcd60e51b815260206004820152603860248201527f555550535570677261646561626c653a206d757374206e6f742062652063616c60448201527f6c6564207468726f7567682064656c656761746563616c6c0000000000000000606482015260840161017c565b5060008051602061321383398151915290565b6000610d2d60335460ff1690565b15610d4a5760405162461bcd60e51b815260040161017c90612ab0565b60003411610d8a5760405162461bcd60e51b815260206004820152600d60248201526c1393d7d350551250d7d4d15395609a1b604482015260640161017c565b8451865114610dab5760405162461bcd60e51b815260040161017c90612ada565b60c95460405163f9d9331d60e01b81526001600160a01b038981166004830152600092169063f9d9331d90602401602060405180830381865afa158015610df6573d6000803e3d6000fd5b505050506040513d601f19601f82011682018060405250810190610e1a9190612b1e565b90506001600160a01b038116610e9c5760c954604051621849e360e61b81526001600160a01b038a811660048301529091169063061278c0906024016020604051808303816000875af1158015610e75573d6000803e3d6000fd5b505050506040513d601f19601f82011682018060405250810190610e999190612b1e565b90505b6000730d500b1d8e8ef31e21c99d1db9a6444d3adf12706001600160a01b031663d0e30db0346040518263ffffffff1660e01b81526004016000604051808303818588803b158015610eed57600080fd5b505af1158015610f01573d6000803e3d6000fd5b50610f299350730d500b1d8e8ef31e21c99d1db9a6444d3adf12709250859150349050611f9a565b60005b875181101561100957730d500b1d8e8ef31e21c99d1db9a6444d3adf12706001600160a01b0316888281518110610f6557610f65612b3b565b60200260200101516001600160a01b031614610fd3576000898281518110610f8f57610f8f612b3b565b60200260200101511115610fce57610fce33848b8481518110610fb457610fb4612b3b565b60200260200101518b858151811061069357610693612b3b565b610ff7565b34898281518110610fe657610fe6612b3b565b602002602001018181525050600191505b8061100181612b51565b915050610f2c565b508061104d5760405162461bcd60e51b81526020600482015260136024820152724e4f5f574d415449435f494e5f544f4b454e5360681b604482015260640161017c565b8415611068576110686001600160a01b038a16338488611dd8565b604051632272658560e11b81526001600160a01b038316906344e4cb0a9061109c908b908b908b908b908b90600401612b7a565b6020604051808303816000875af11580156110bb573d6000803e3d6000fd5b505050506040513d601f19601f820116820180604052508101906110df9190612bf7565b9250836001600160a01b0316336001600160a01b03168a6001600160a01b03167f7cfff908a4b583f36430b25d75964c458d8ede8a99bd61be750e97ee1b2f3a968660405161113091815260200190565b60405180910390a450509695505050505050565b60ca60009054906101000a90046001600160a01b03166001600160a01b03166375b238fc6040518163ffffffff1660e01b8152600401602060405180830381865afa158015611197573d6000803e3d6000fd5b505050506040513d601f19601f820116820180604052508101906111bb9190612bf7565b60ca54604051632474521560e21b8152600481018390523360248201526001600160a01b03909116906391d1485490604401602060405180830381865afa15801561120a573d6000803e3d6000fd5b505050506040513d601f19601f8201168201806040525081019061122e9190612c10565b61124a5760405162461bcd60e51b815260040161017c90612c2d565b670de0b6b3a764000082111561128c5760405162461bcd60e51b81526020600482015260076024820152664241445f46454560c81b604482015260640161017c565b8160cb5414610b675760cb5460408051918252602082018490527f5fc463da23c1b063e66f9e352006a7fbe8db7223c455dc429e881a2dfe2f94f1910160405180910390a15060cb55565b60c95460405163f9d9331d60e01b81526001600160a01b03878116600483015260609260009291169063f9d9331d90602401602060405180830381865afa158015611326573d6000803e3d6000fd5b505050506040513d601f19601f8201168201806040525081019061134a9190612b1e565b90506001600160a01b0381166113725760405162461bcd60e51b815260040161017c90612d85565b604051631f9e746960e11b81526001600160a01b03821690633f3ce8d2906113a99089908990899060009033903090600401612dae565b6000604051808303816000875af11580156113c8573d6000803e3d6000fd5b505050506040513d6000823e601f3d908101601f191682016040526113f09190810190612e13565b915060006113fd88610874565b905060005b815181101561159957730d500b1d8e8ef31e21c99d1db9a6444d3adf12706001600160a01b031682828151811061143b5761143b612b3b565b60200260200101516001600160a01b0316146114a6576114a18585838151811061146757611467612b3b565b602002602001015184848151811061148157611481612b3b565b60200260200101516001600160a01b0316611f9a9092919063ffffffff16565b611587565b730d500b1d8e8ef31e21c99d1db9a6444d3adf12706001600160a01b0316632e1a7d4d8583815181106114db576114db612b3b565b60200260200101516040518263ffffffff1660e01b815260040161150191815260200190565b600060405180830381600087803b15801561151b57600080fd5b505af115801561152f573d6000803e3d6000fd5b50505050846001600160a01b03166108fc85838151811061155257611552612b3b565b60200260200101519081150290604051600060405180830381858888f19350505050158015611585573d6000803e3d6000fd5b505b8061159181612b51565b915050611402565b50836001600160a01b0316336001600160a01b0316896001600160a01b03167f3115d1449a7b732c986cba18244e897a450f61e1bb8d589cd2e69e6c8924f9f78a6040516115e991815260200190565b60405180910390a4505095945050505050565b60ca54604051632474521560e21b81527f65d7a28e3265b37a6474929f336521b332c1681b933f6cb9f3376673440d862a60048201819052336024830152916001600160a01b0316906391d1485490604401602060405180830381865afa15801561166b573d6000803e3d6000fd5b505050506040513d601f19601f8201168201806040525081019061168f9190612c10565b6116ab5760405162461bcd60e51b815260040161017c90612c2d565b6104f4611fca565b60c95460405163f9d9331d60e01b81526001600160a01b03888116600483015260609260009291169063f9d9331d90602401602060405180830381865afa158015611702573d6000803e3d6000fd5b505050506040513d601f19601f820116820180604052508101906117269190612b1e565b90506001600160a01b03811661174e5760405162461bcd60e51b815260040161017c90612d85565b604051631f9e746960e11b81526001600160a01b03821690633f3ce8d290611784908a908a908a908a9033908b90600401612dae565b6000604051808303816000875af11580156117a3573d6000803e3d6000fd5b505050506040513d6000823e601f3d908101601f191682016040526117cb9190810190612e13565b9150826001600160a01b0316336001600160a01b0316896001600160a01b03167f3115d1449a7b732c986cba18244e897a450f61e1bb8d589cd2e69e6c8924f9f78a6040516107aa91815260200190565b60335460ff161561183f5760405162461bcd60e51b815260040161017c90612ab0565b60ca54604051632474521560e21b81527ffbd454f36a7e1a388bd6fc3ab10d434aa4578f811acbbcf33afb1c697486313c60048201819052336024830152916001600160a01b0316906391d1485490604401602060405180830381865afa1580156118ae573d6000803e3d6000fd5b505050506040513d601f19601f820116820180604052508101906118d29190612c10565b6118ee5760405162461bcd60e51b815260040161017c90612c2d565b60c95460405163f9d9331d60e01b81526001600160a01b038981166004830152600092169063f9d9331d90602401602060405180830381865afa158015611939573d6000803e3d6000fd5b505050506040513d601f19601f8201168201806040525081019061195d9190612b1e565b90506001600160a01b0381166119855760405162461bcd60e51b815260040161017c90612d85565b6040805180820182526001600160a01b03858116825260cb5460208301529151630faa5a1f60e01b8152600092841691630faa5a1f916119d0918c918c918c918c91906004016130ad565b6020604051808303816000875af11580156119ef573d6000803e3d6000fd5b505050506040513d601f19601f82011682018060405250810190611a139190612bf7565b9050886001600160a01b03167fc1d32ad5cca423e7dda2123dbf8c482f8e77d00b631c06e903a47f2cec1334df82604051611a5091815260200190565b60405180910390a2505050505050505050565b60c95460405163f9d9331d60e01b81526001600160a01b038381166004830152600092839291169063f9d9331d90602401602060405180830381865afa158015611ab1573d6000803e3d6000fd5b505050506040513d601f19601f82011682018060405250810190611ad59190612b1e565b90506001600160a01b03811615611b4f57806001600160a01b031663168a48226040518163ffffffff1660e01b8152600401602060405180830381865afa158015611b24573d6000803e3d6000fd5b505050506040513d601f19601f82011682018060405250810190611b489190612bf7565b9392505050565b50600092915050565b6001600160a01b03163b151590565b60ca60009054906101000a90046001600160a01b03166001600160a01b03166375b238fc6040518163ffffffff1660e01b8152600401602060405180830381865afa158015611bba573d6000803e3d6000fd5b505050506040513d601f19601f82011682018060405250810190611bde9190612bf7565b60ca54604051632474521560e21b8152600481018390523360248201526001600160a01b03909116906391d1485490604401602060405180830381865afa158015611c2d573d6000803e3d6000fd5b505050506040513d601f19601f82011682018060405250810190611c519190612c10565b610b675760405162461bcd60e51b815260040161017c90612c2d565b7f4910fdfa16fed3260ed0e7147f7cc6da11a60208b5b9406d12a635614ffd91435460ff1615611ca057610a9583612022565b826001600160a01b03166352d1902d6040518163ffffffff1660e01b8152600401602060405180830381865afa925050508015611cfa575060408051601f3d908101601f19168201909252611cf791810190612bf7565b60015b611d5d5760405162461bcd60e51b815260206004820152602e60248201527f45524331393637557067726164653a206e657720696d706c656d656e7461746960448201526d6f6e206973206e6f74205555505360901b606482015260840161017c565b6000805160206132138339815191528114611dcc5760405162461bcd60e51b815260206004820152602960248201527f45524331393637557067726164653a20756e737570706f727465642070726f786044820152681a58589b195555525160ba1b606482015260840161017c565b50610a958383836120be565b6040516001600160a01b0380851660248301528316604482015260648101829052611e439085906323b872dd60e01b906084015b60408051601f198184030181529190526020810180516001600160e01b03166001600160e01b0319909316929092179091526120e3565b50505050565b60335460ff16611e925760405162461bcd60e51b815260206004820152601460248201527314185d5cd8589b194e881b9bdd081c185d5cd95960621b604482015260640161017c565b6033805460ff191690557f5db9ee0a495bf2e6ff9c91a7834c1ba4fdd244a5e8aa4e537bd38aeae4b073aa335b6040516001600160a01b03909116815260200160405180910390a1565b60008054610100900460ff1615611f23578160ff166001148015611eff5750303b155b611f1b5760405162461bcd60e51b815260040161017c906130fe565b506000919050565b60005460ff808416911610611f4a5760405162461bcd60e51b815260040161017c906130fe565b506000805460ff191660ff92909216919091179055600190565b919050565b600054610100900460ff16611f905760405162461bcd60e51b815260040161017c9061314c565b611f986121b5565b565b6040516001600160a01b038316602482015260448101829052610a9590849063a9059cbb60e01b90606401611e0c565b60335460ff1615611fed5760405162461bcd60e51b815260040161017c90612ab0565b6033805460ff191660011790557f62e78cea01bee320cd4e420270b5ea74000d11b0c9f74754ebdbfc544b05a258611ebf3390565b6001600160a01b0381163b61208f5760405162461bcd60e51b815260206004820152602d60248201527f455243313936373a206e657720696d706c656d656e746174696f6e206973206e60448201526c1bdd08184818dbdb9d1c9858dd609a1b606482015260840161017c565b60008051602061321383398151915280546001600160a01b0319166001600160a01b0392909216919091179055565b6120c7836121e8565b6000825111806120d45750805b15610a9557611e438383612228565b6000612138826040518060400160405280602081526020017f5361666545524332303a206c6f772d6c6576656c2063616c6c206661696c6564815250856001600160a01b031661231c9092919063ffffffff16565b805190915015610a9557808060200190518101906121569190612c10565b610a955760405162461bcd60e51b815260206004820152602a60248201527f5361666545524332303a204552433230206f7065726174696f6e20646964206e6044820152691bdd081cdd58d8d9595960b21b606482015260840161017c565b600054610100900460ff166121dc5760405162461bcd60e51b815260040161017c9061314c565b6033805460ff19169055565b6121f181612022565b6040516001600160a01b038216907fbc7cd75a20ee27fd9adebab32041f755214dbc6bffa90cc0225b39da2e5c2d3b90600090a250565b60606001600160a01b0383163b6122905760405162461bcd60e51b815260206004820152602660248201527f416464726573733a2064656c65676174652063616c6c20746f206e6f6e2d636f6044820152651b9d1c9858dd60d21b606482015260840161017c565b600080846001600160a01b0316846040516122ab91906131c3565b600060405180830381855af49150503d80600081146122e6576040519150601f19603f3d011682016040523d82523d6000602084013e6122eb565b606091505b5091509150612313828260405180606001604052806027815260200161323360279139612333565b95945050505050565b606061232b848460008561236c565b949350505050565b60608315612342575081611b48565b8251156123525782518084602001fd5b8160405162461bcd60e51b815260040161017c91906131df565b6060824710156123cd5760405162461bcd60e51b815260206004820152602660248201527f416464726573733a20696e73756666696369656e742062616c616e636520666f6044820152651c8818d85b1b60d21b606482015260840161017c565b6001600160a01b0385163b6124245760405162461bcd60e51b815260206004820152601d60248201527f416464726573733a2063616c6c20746f206e6f6e2d636f6e7472616374000000604482015260640161017c565b600080866001600160a01b0316858760405161244091906131c3565b60006040518083038185875af1925050503d806000811461247d576040519150601f19603f3d011682016040523d82523d6000602084013e612482565b606091505b5091509150612492828286612333565b979650505050505050565b6001600160a01b03811681146104f457600080fd5b8035611f648161249d565b6000602082840312156124cf57600080fd5b8135611b488161249d565b634e487b7160e01b600052604160045260246000fd5b604051601f8201601f1916810167ffffffffffffffff81118282101715612519576125196124da565b604052919050565b600067ffffffffffffffff82111561253b5761253b6124da565b5060051b60200190565b600082601f83011261255657600080fd5b8135602061256b61256683612521565b6124f0565b82815260059290921b8401810191818101908684111561258a57600080fd5b8286015b848110156125ae5780356125a18161249d565b835291830191830161258e565b509695505050505050565b60008060008060008060c087890312156125d257600080fd5b86356125dd8161249d565b955060208781013567ffffffffffffffff808211156125fb57600080fd5b818a0191508a601f83011261260f57600080fd5b813561261d61256682612521565b81815260059190911b8301840190848101908d83111561263c57600080fd5b938501935b8285101561265a57843582529385019390850190612641565b9950505060408a013592508083111561267257600080fd5b505061268089828a01612545565b945050606087013592506080870135915061269d60a088016124b2565b90509295509295509295565b6020808252825182820181905260009190848201906040850190845b818110156126ea5783516001600160a01b0316835292840192918401916001016126c5565b50909695505050505050565b6000806040838503121561270957600080fd5b82356127148161249d565b915060208301356127248161249d565b809150509250929050565b6000806040838503121561274257600080fd5b823561274d8161249d565b915060208381013567ffffffffffffffff8082111561276b57600080fd5b818601915086601f83011261277f57600080fd5b813581811115612791576127916124da565b6127a3601f8201601f191685016124f0565b915080825287848285010111156127b957600080fd5b80848401858401376000848284010152508093505050509250929050565b6000602082840312156127e957600080fd5b5035919050565b60008083601f84011261280257600080fd5b50813567ffffffffffffffff81111561281a57600080fd5b6020830191508360208260051b850101111561283557600080fd5b9250929050565b60008060008060006080868803121561285457600080fd5b853561285f8161249d565b945060208601359350604086013567ffffffffffffffff81111561288257600080fd5b61288e888289016127f0565b90945092505060608601356128a28161249d565b809150509295509295909350565b600081518084526020808501945080840160005b838110156128e0578151875295820195908201906001016128c4565b509495945050505050565b602081526000611b4860208301846128b0565b80151581146104f457600080fd5b60008060008060008060a0878903121561292557600080fd5b86356129308161249d565b955060208701359450604087013567ffffffffffffffff81111561295357600080fd5b61295f89828a016127f0565b9095509350506060870135612973816128fe565b915060808701356129838161249d565b809150509295509295509295565b600080600080600080608087890312156129aa57600080fd5b86356129b58161249d565b9550602087013567ffffffffffffffff808211156129d257600080fd5b6129de8a838b016127f0565b909750955060408901359150808211156129f757600080fd5b50612a0489828a016127f0565b90945092505060608701356129838161249d565b6020808252602c908201527f46756e6374696f6e206d7573742062652063616c6c6564207468726f7567682060408201526b19195b1959d85d1958d85b1b60a21b606082015260800190565b6020808252602c908201527f46756e6374696f6e206d7573742062652063616c6c6564207468726f7567682060408201526b6163746976652070726f787960a01b606082015260800190565b60208082526010908201526f14185d5cd8589b194e881c185d5cd95960821b604082015260600190565b60208082526024908201527f414d4f554e54535f414e445f544f4b454e535f4c454e475448535f4e4f545f4d604082015263082a886960e31b606082015260800190565b600060208284031215612b3057600080fd5b8151611b488161249d565b634e487b7160e01b600052603260045260246000fd5b6000600019821415612b7357634e487b7160e01b600052601160045260246000fd5b5060010190565b60a081526000612b8d60a08301886128b0565b82810360208481019190915287518083528882019282019060005b81811015612bcd5784516001600160a01b031683529383019391830191600101612ba8565b5050604085019790975250505060608101929092526001600160a01b031660809091015292915050565b600060208284031215612c0957600080fd5b5051919050565b600060208284031215612c2257600080fd5b8151611b48816128fe565b60208082526015908201527410d05313115497d393d517d055551213d492569151605a1b604082015260600190565b600082601f830112612c6d57600080fd5b81516020612c7d61256683612521565b82815260059290921b84018101918181019086841115612c9c57600080fd5b8286015b848110156125ae5780518352918301918301612ca0565b600080600060608486031215612ccc57600080fd5b835167ffffffffffffffff80821115612ce457600080fd5b818601915086601f830112612cf857600080fd5b81516020612d0861256683612521565b82815260059290921b8401810191818101908a841115612d2757600080fd5b948201945b83861015612d4e578551612d3f8161249d565b82529482019490820190612d2c565b91890151919750909350505080821115612d6757600080fd5b50612d7486828701612c5c565b925050604084015190509250925092565b6020808252600f908201526e4641524d5f4e4f545f45584953545360881b604082015260600190565b86815260a060208201819052810185905260006001600160fb1b03861115612dd557600080fd5b8560051b808860c0850137600090830160c0019081529415156040830152506001600160a01b03928316606082015291166080909101529392505050565b600060208284031215612e2557600080fd5b815167ffffffffffffffff811115612e3c57600080fd5b61232b84828501612c5c565b6000808335601e19843603018112612e5f57600080fd5b830160208101925035905067ffffffffffffffff811115612e7f57600080fd5b8060051b360383131561283557600080fd5b81835281816020850137506000828201602090810191909152601f909101601f19169091010190565b8183526000602080850194508260005b858110156128e0578135612edd8161249d565b6001600160a01b031687529582019590820190600101612eca565b8183526000602080850194508260005b858110156128e057813587529582019590820190600101612f08565b8183526000602084018094508360051b81018360005b868110156126ea578383038852605e1986360301823512612f5a57600080fd5b85823501612f688182612e48565b606086526060860181815260808701905060808260051b8801018360005b8481101561304757898303607f1901845236869003609e1901823512612fab57600080fd5b85823501803584526020810135602085015260408101356040850152606081013560608501526080810135601e19823603018112612fe857600080fd5b67ffffffffffffffff82820135111561300057600080fd5b81810135360382131561301257600080fd5b60a0608086015261302f60a0860183830135602085850101612e91565b60209687019690955093909301925050600101612f86565b50506130566020860186612e48565b94509250878103602089015261306d818585612eba565b935050505061307f6040830183612e48565b92508582036040870152613094828483612ef8565b60209b8c019b9096509490940193505050600101612f3a565b6080815260006130c1608083018789612f24565b82810360208401526130d4818688612f24565b84516001600160a01b03166040850152602090940151606090930192909252509095945050505050565b6020808252602e908201527f496e697469616c697a61626c653a20636f6e747261637420697320616c72656160408201526d191e481a5b9a5d1a585b1a5e995960921b606082015260800190565b6020808252602b908201527f496e697469616c697a61626c653a20636f6e7472616374206973206e6f74206960408201526a6e697469616c697a696e6760a81b606082015260800190565b60005b838110156131b257818101518382015260200161319a565b83811115611e435750506000910152565b600082516131d5818460208701613197565b9190910192915050565b60208152600082518060208401526131fe816040850160208701613197565b601f01601f1916919091016040019291505056fe360894a13ba1a3210667c828492db98dca3e2076cc3735a920a3ca505d382bbc416464726573733a206c6f772d6c6576656c2064656c65676174652063616c6c206661696c6564a2646970667358221220a44e507163d54ae6bebe767079883bd9b6397daa314d8c1a84780f712c46f61464736f6c634300080a0033496e697469616c697a61626c653a20636f6e747261637420697320616c726561",
  "immutableReferences": {
    "561": [
      {
        "length": 32,
        "start": 1058
      },
      {
        "length": 32,
        "start": 1122
      },
      {
        "length": 32,
        "start": 2725
      },
      {
        "length": 32,
        "start": 2789
      },
      {
        "length": 32,
        "start": 3193
      }
    ]
  },
  "source": "// SPDX-License-Identifier: MIT\r\npragma solidity 0.8.10;\r\n\r\nimport {IUnoFarmBalancer as Farm} from './interfaces/IUnoFarmBalancer.sol'; \r\nimport '../../interfaces/IUnoFarmFactory.sol';\r\nimport '../../interfaces/IUnoAccessManager.sol'; \r\nimport '../../interfaces/IVault.sol'; \r\nimport \"../../interfaces/IBasePool.sol\";\r\nimport '../../interfaces/IWMATIC.sol';\r\nimport '@openzeppelin/contracts-upgradeable/token/ERC20/IERC20Upgradeable.sol';\r\nimport '@openzeppelin/contracts-upgradeable/token/ERC20/utils/SafeERC20Upgradeable.sol';\r\nimport '@openzeppelin/contracts-upgradeable/proxy/utils/Initializable.sol';\r\nimport '@openzeppelin/contracts-upgradeable/security/PausableUpgradeable.sol';\r\nimport '@openzeppelin/contracts-upgradeable/proxy/utils/UUPSUpgradeable.sol';\r\n\r\ncontract UnoAssetRouterBalancer is Initializable, PausableUpgradeable, UUPSUpgradeable {\r\n    using SafeERC20Upgradeable for IERC20Upgradeable;\r\n\r\n    /**\r\n     * @dev Contract Variables:\r\n     * farmFactory - The contract that deploys new Farms and links them to {lpPool}s.\r\n     * accessManager - Role manager contract.\r\n     */\r\n    IUnoFarmFactory public farmFactory;\r\n    IUnoAccessManager public accessManager;\r\n\r\n    bytes32 private constant DISTRIBUTOR_ROLE = keccak256('DISTRIBUTOR_ROLE');\r\n    bytes32 private constant PAUSER_ROLE = keccak256('PAUSER_ROLE');\r\n\r\n    IVault constant private Vault = IVault(0xBA12222222228d8Ba445958a75a0704d566BF2C8);\r\n\r\n    uint256 public fee;\r\n\r\n    address public constant WMATIC = 0x0d500B1d8E8eF31E21C99d1Db9A6444d3ADf1270;\r\n\r\n    event Deposit(address indexed lpPool, address indexed sender, address indexed recipient, uint256 amount);\r\n    event Withdraw(address indexed lpPool, address indexed sender, address indexed recipient, uint256 amount);\r\n    event Distribute(address indexed lpPool, uint256 reward);\r\n\r\n    event FeeChanged(uint256 previousFee, uint256 newFee);\r\n\r\n    modifier onlyRole(bytes32 role){\r\n        require(accessManager.hasRole(role, msg.sender), 'CALLER_NOT_AUTHORIZED');\r\n        _;\r\n    }\r\n\r\n    // ============ Methods ============\r\n\r\n    /// @custom:oz-upgrades-unsafe-allow constructor\r\n    constructor() {\r\n        _disableInitializers();\r\n    }\r\n\r\n    function initialize(address _accessManager, address _farmFactory) external initializer{\r\n        require (_accessManager != address(0), 'BAD_ACCESS_MANAGER');\r\n        require (_farmFactory != address(0), 'BAD_FARM_FACTORY');\r\n\r\n        __Pausable_init();\r\n        accessManager = IUnoAccessManager(_accessManager);\r\n        farmFactory = IUnoFarmFactory(_farmFactory);\r\n    }\r\n\r\n    receive() external payable {\r\n        require(msg.sender == WMATIC, 'ONLY_ACCEPT_WMATIC'); // only accept ETH via fallback from the WMATIC contract\r\n    }\r\n\r\n    /**\r\n     * @dev Deposits tokens in the given pool. Creates new Farm contract if there isn't one deployed for the {lpPool} and deposits tokens in it.\r\n     * @param lpPool - Address of the pool to deposit tokens in.\r\n     * @param amounts - Amounts of tokens to deposit.\r\n     * @param tokens - Tokens to deposit.\r\n     * @param minAmountLP - Minimum LP the user will receive from {tokens} deposit.\r\n     * @param amountLP - Additional amount of LP tokens to deposit.\r\n     * @param recipient - Address which will receive the deposit.\r\n\r\n     * @return liquidity - Total liquidity sent to the farm (in lpTokens).\r\n     */\r\n    function deposit(address lpPool, uint256[] memory amounts, address[] memory tokens, uint256 minAmountLP, uint256 amountLP, address recipient) external whenNotPaused returns(uint256 liquidity){\r\n        require (amounts.length == tokens.length, 'AMOUNTS_AND_TOKENS_LENGTHS_NOT_MATCH');\r\n        Farm farm = Farm(farmFactory.Farms(lpPool));\r\n        if(farm == Farm(address(0))){\r\n            farm = Farm(farmFactory.createFarm(lpPool));\r\n        }\r\n\r\n        for (uint256 i = 0; i < tokens.length; i++) {\r\n            if(amounts[i] > 0){\r\n                IERC20Upgradeable(tokens[i]).safeTransferFrom(msg.sender, address(farm), amounts[i]);\r\n            }\r\n        }\r\n        if(amountLP > 0){\r\n            IERC20Upgradeable(lpPool).safeTransferFrom(msg.sender, address(farm), amountLP);\r\n        }\r\n        \r\n        liquidity = farm.deposit(amounts, tokens, minAmountLP, amountLP, recipient);\r\n        emit Deposit(lpPool, msg.sender, recipient, liquidity); \r\n    }\r\n\r\n        /**\r\n     * @dev Autoconverts MATIC into WMATIC and deposits tokens in the given pool. Creates new Farm contract if there isn't one deployed for the {lpPool} and deposits tokens in it.\r\n     * @param lpPool - Address of the pool to deposit tokens in.\r\n     * @param amounts - Amounts of tokens to deposit.\r\n     * @param tokens - Tokens to deposit.\r\n     * @param minAmountLP - Minimum LP the user will receive from {tokens} deposit.\r\n     * @param amountLP - Additional amount of LP tokens to deposit.\r\n     * @param recipient - Address which will receive the deposit.\r\n\r\n     * @return liquidity - Total liquidity sent to the farm (in lpTokens).\r\n     */\r\n    function depositETH(address lpPool, uint256[] memory amounts, address[] memory tokens, uint256 minAmountLP, uint256 amountLP, address recipient) external payable whenNotPaused returns(uint256 liquidity){\r\n        require(msg.value > 0, \"NO_MATIC_SENT\");\r\n        require (amounts.length == tokens.length, 'AMOUNTS_AND_TOKENS_LENGTHS_NOT_MATCH');\r\n\r\n        Farm farm = Farm(farmFactory.Farms(lpPool));\r\n        if(farm == Farm(address(0))){\r\n            farm = Farm(farmFactory.createFarm(lpPool));\r\n        }\r\n\r\n        bool WMATICInTokens;\r\n        IWMATIC(WMATIC).deposit{value: msg.value}();\r\n        IERC20Upgradeable(WMATIC).safeTransfer(address(farm), msg.value);\r\n        for (uint256 i = 0; i < tokens.length; i++) {\r\n            if(tokens[i] != WMATIC){\r\n                if(amounts[i] > 0){\r\n                    IERC20Upgradeable(tokens[i]).safeTransferFrom(msg.sender, address(farm), amounts[i]);\r\n                }\r\n                continue;\r\n            }\r\n            amounts[i] = msg.value;\r\n            WMATICInTokens = true;\r\n        }\r\n        require(WMATICInTokens, \"NO_WMATIC_IN_TOKENS\");\r\n\r\n        if(amountLP > 0){\r\n            IERC20Upgradeable(lpPool).safeTransferFrom(msg.sender, address(farm), amountLP);\r\n        }\r\n        \r\n        liquidity = farm.deposit(amounts, tokens, minAmountLP, amountLP, recipient);\r\n        emit Deposit(lpPool, msg.sender, recipient, liquidity); \r\n    }\r\n\r\n    /** \r\n     * @dev Withdraws tokens from the given pool. \r\n     * @param lpPool - LP pool to withdraw from.\r\n     * @param amount - LP amount to withdraw. \r\n     * @param minAmountsOut - Minimum token amounts the user will receive.\r\n     * @param withdrawLP - True: Withdraw in LP tokens, False: Withdraw in normal tokens.\r\n     * @param recipient - The address which will receive tokens.\r\n\r\n     * @return amounts - Token amounts sent to the {recipient}\r\n     */ \r\n    function withdraw(address lpPool, uint256 amount, uint256[] calldata minAmountsOut, bool withdrawLP, address recipient) external returns(uint256[] memory amounts){ \r\n        Farm farm = Farm(farmFactory.Farms(lpPool));\r\n        require(farm != Farm(address(0)),'FARM_NOT_EXISTS');\r\n\r\n        amounts = farm.withdraw(amount, minAmountsOut, withdrawLP, msg.sender, recipient);\r\n        emit Withdraw(lpPool, msg.sender, recipient, amount);  \r\n    }\r\n\r\n    /** \r\n     * @dev Autoconverts WMATIC into MATIC and withdraws tokens from the given pool. \r\n     * @param lpPool - LP pool to withdraw from.\r\n     * @param amount - LP amount to withdraw. \r\n     * @param minAmountsOut - Minimum token amounts the user will receive.\r\n     * @param recipient - The address which will receive tokens.\r\n\r\n     * @return amounts - Token amounts sent to the {recipient}\r\n     */ \r\n    function withdrawETH(address lpPool, uint256 amount, uint256[] calldata minAmountsOut, address recipient) external returns(uint256[] memory amounts){ \r\n        Farm farm = Farm(farmFactory.Farms(lpPool));\r\n        require(farm != Farm(address(0)),'FARM_NOT_EXISTS');\r\n\r\n        amounts = farm.withdraw(amount, minAmountsOut, false, msg.sender, address(this));\r\n\r\n        IERC20[] memory tokens = getTokens(lpPool);\r\n        for (uint256 i = 0; i < tokens.length; i++) {\r\n            if (address(tokens[i]) != WMATIC) {\r\n                IERC20Upgradeable(address(tokens[i])).safeTransfer(recipient, amounts[i]);\r\n                continue;\r\n            }\r\n            IWMATIC(WMATIC).withdraw(amounts[i]);\r\n            payable(recipient).transfer(amounts[i]);\r\n        } \r\n        emit Withdraw(lpPool, msg.sender, recipient, amount);  \r\n    }\r\n\r\n    /**\r\n     * @dev Distributes tokens between users for a single {Farms[lpPool]}.\r\n     * @param lpPool - The pool to distribute. \r\n     * @param swapInfos - The data used to swap reward tokens for the needed tokens.\r\n     * @param feeSwapInfos - The data used to swap reward tokens for fees.\r\n     * @param feeTo - Address to collect fees to.\r\n     *\r\n     * Note: This function can only be called by the distributor.\r\n     */\r\n    function distribute(\r\n        address lpPool,\r\n        Farm.SwapInfo[] calldata swapInfos,\r\n        Farm.SwapInfo[] calldata feeSwapInfos,\r\n        address feeTo\r\n    ) external whenNotPaused onlyRole(DISTRIBUTOR_ROLE) {\r\n        Farm farm = Farm(farmFactory.Farms(lpPool));\r\n        require(farm != Farm(address(0)), 'FARM_NOT_EXISTS');\r\n\r\n        uint256 reward = farm.distribute(swapInfos, feeSwapInfos, Farm.FeeInfo(feeTo, fee));\r\n        emit Distribute(lpPool, reward);\r\n    }\r\n\r\n    /**\r\n     * @dev Returns LP tokens staked by the {_address} for the given {lpPool}.\r\n     * @param _address - The address to check stakes for.\r\n     * @param lpPool - LP pool to check stakes in.\r\n\r\n     * @return Total user stake(in LP tokens).\r\n     */\r\n   function userStake(address _address, address lpPool) external view returns(uint256){\r\n        Farm farm = Farm(farmFactory.Farms(lpPool));\r\n        if (farm != Farm(address(0))) {\r\n            return farm.userBalance(_address);\r\n        }\r\n        return 0;\r\n    }\r\n\r\n    /**\r\n     * @dev Returns total amount locked in the pool. Doesn't take pending rewards into account.\r\n     * @param lpPool - LP pool to check total deposits in.\r\n\r\n     * @return Total deposits (in LP tokens).\r\n     */\r\n    function totalDeposits(address lpPool) external view returns (uint256) {\r\n        Farm farm = Farm(farmFactory.Farms(lpPool));\r\n        if (farm != Farm(address(0))) {\r\n            return farm.getTotalDeposits();\r\n        }\r\n        return 0;\r\n    }\r\n\r\n    /**\r\n     * @dev Returns addresses of tokens in {lpPool}.\r\n     * @param lpPool - LP pool to check tokens in.\r\n\r\n     * @return tokens - Token addresses.\r\n     */  \r\n    function getTokens(address lpPool) public view returns(IERC20[] memory tokens){\r\n        bytes32 poolId = IBasePool(lpPool).getPoolId();\r\n        (tokens, , ) = Vault.getPoolTokens(poolId);\r\n    }\r\n\r\n    /**\r\n     * @dev Change fee amount.\r\n     * @param _fee -New fee to collect from farms. [10^18 == 100%]\r\n     *\r\n     * Note: This function can only be called by ADMIN_ROLE.\r\n     */ \r\n    function setFee(uint256 _fee) external onlyRole(accessManager.ADMIN_ROLE()){\r\n        require (_fee <= 1 ether, \"BAD_FEE\");\r\n        if(fee != _fee){\r\n            emit FeeChanged(fee, _fee); \r\n            fee = _fee;\r\n        }\r\n    }\r\n \r\n    function pause() external onlyRole(PAUSER_ROLE) {\r\n        _pause();\r\n    }\r\n \r\n    function unpause() external onlyRole(PAUSER_ROLE) {\r\n        _unpause();\r\n    }\r\n\r\n    function _authorizeUpgrade(address) internal override onlyRole(accessManager.ADMIN_ROLE()) {\r\n\r\n    }\r\n}\r\n",
  "sourcePath": "C:\\Users\\jugli\\Desktop\\uno\\uno-contracts\\contracts\\apps\\balancer\\UnoAssetRouterBalancer.sol",
  "compiler": {
    "name": "solc",
    "version": "0.8.10+commit.fc410830.Emscripten.clang"
  },
  "schemaVersion": "3.4.10",
  "updatedAt": "2022-10-01T12:27:33.867Z",
  "networkType": "ethereum",
  "devdoc": {
    "kind": "dev",
    "methods": {
      "constructor": {
        "custom:oz-upgrades-unsafe-allow": "constructor"
      },
      "deposit(address,uint256[],address[],uint256,uint256,address)": {
        "details": "Deposits tokens in the given pool. Creates new Farm contract if there isn't one deployed for the {lpPool} and deposits tokens in it.",
        "params": {
          "amountLP": "- Additional amount of LP tokens to deposit.",
          "amounts": "- Amounts of tokens to deposit.",
          "lpPool": "- Address of the pool to deposit tokens in.",
          "minAmountLP": "- Minimum LP the user will receive from {tokens} deposit.",
          "recipient": "- Address which will receive the deposit.",
          "tokens": "- Tokens to deposit."
        },
        "returns": {
          "liquidity": "- Total liquidity sent to the farm (in lpTokens)."
        }
      },
      "depositETH(address,uint256[],address[],uint256,uint256,address)": {
        "details": "Autoconverts MATIC into WMATIC and deposits tokens in the given pool. Creates new Farm contract if there isn't one deployed for the {lpPool} and deposits tokens in it.",
        "params": {
          "amountLP": "- Additional amount of LP tokens to deposit.",
          "amounts": "- Amounts of tokens to deposit.",
          "lpPool": "- Address of the pool to deposit tokens in.",
          "minAmountLP": "- Minimum LP the user will receive from {tokens} deposit.",
          "recipient": "- Address which will receive the deposit.",
          "tokens": "- Tokens to deposit."
        },
        "returns": {
          "liquidity": "- Total liquidity sent to the farm (in lpTokens)."
        }
      },
      "distribute(address,((bytes32,uint256,uint256,uint256,bytes)[],address[],int256[])[],((bytes32,uint256,uint256,uint256,bytes)[],address[],int256[])[],address)": {
        "details": "Distributes tokens between users for a single {Farms[lpPool]}.",
        "params": {
          "feeSwapInfos": "- The data used to swap reward tokens for fees.",
          "feeTo": "- Address to collect fees to. Note: This function can only be called by the distributor.",
          "lpPool": "- The pool to distribute. ",
          "swapInfos": "- The data used to swap reward tokens for the needed tokens."
        }
      },
      "getTokens(address)": {
        "details": "Returns addresses of tokens in {lpPool}.",
        "params": {
          "lpPool": "- LP pool to check tokens in."
        },
        "returns": {
          "tokens": "- Token addresses."
        }
      },
      "paused()": {
        "details": "Returns true if the contract is paused, and false otherwise."
      },
      "proxiableUUID()": {
        "details": "Implementation of the ERC1822 {proxiableUUID} function. This returns the storage slot used by the implementation. It is used to validate that the this implementation remains valid after an upgrade. IMPORTANT: A proxy pointing at a proxiable contract should not be considered proxiable itself, because this risks bricking a proxy that upgrades to it, by delegating to itself until out of gas. Thus it is critical that this function revert if invoked through a proxy. This is guaranteed by the `notDelegated` modifier."
      },
      "setFee(uint256)": {
        "details": "Change fee amount.",
        "params": {
          "_fee": "-New fee to collect from farms. [10^18 == 100%] Note: This function can only be called by ADMIN_ROLE."
        }
      },
      "totalDeposits(address)": {
        "details": "Returns total amount locked in the pool. Doesn't take pending rewards into account.",
        "params": {
          "lpPool": "- LP pool to check total deposits in."
        },
        "returns": {
          "_0": "Total deposits (in LP tokens)."
        }
      },
      "upgradeTo(address)": {
        "details": "Upgrade the implementation of the proxy to `newImplementation`. Calls {_authorizeUpgrade}. Emits an {Upgraded} event."
      },
      "upgradeToAndCall(address,bytes)": {
        "details": "Upgrade the implementation of the proxy to `newImplementation`, and subsequently execute the function call encoded in `data`. Calls {_authorizeUpgrade}. Emits an {Upgraded} event."
      },
      "userStake(address,address)": {
        "details": "Returns LP tokens staked by the {_address} for the given {lpPool}.",
        "params": {
          "_address": "- The address to check stakes for.",
          "lpPool": "- LP pool to check stakes in."
        },
        "returns": {
          "_0": "Total user stake(in LP tokens)."
        }
      },
      "withdraw(address,uint256,uint256[],bool,address)": {
        "details": "Withdraws tokens from the given pool. ",
        "params": {
          "amount": "- LP amount to withdraw. ",
          "lpPool": "- LP pool to withdraw from.",
          "minAmountsOut": "- Minimum token amounts the user will receive.",
          "recipient": "- The address which will receive tokens.",
          "withdrawLP": "- True: Withdraw in LP tokens, False: Withdraw in normal tokens."
        },
        "returns": {
          "amounts": "- Token amounts sent to the {recipient}"
        }
      },
      "withdrawETH(address,uint256,uint256[],address)": {
        "details": "Autoconverts WMATIC into MATIC and withdraws tokens from the given pool. ",
        "params": {
          "amount": "- LP amount to withdraw. ",
          "lpPool": "- LP pool to withdraw from.",
          "minAmountsOut": "- Minimum token amounts the user will receive.",
          "recipient": "- The address which will receive tokens."
        },
        "returns": {
          "amounts": "- Token amounts sent to the {recipient}"
        }
      }
    },
    "stateVariables": {
      "farmFactory": {
        "details": "Contract Variables: farmFactory - The contract that deploys new Farms and links them to {lpPool}s. accessManager - Role manager contract."
      }
    },
    "version": 1
  },
  "userdoc": {
    "kind": "user",
    "methods": {},
    "version": 1
  }
}