{
  "contractName": "UnoAssetRouterBalancerV2",
  "abi": [
    {
      "inputs": [],
      "stateMutability": "nonpayable",
      "type": "constructor"
    },
    {
      "anonymous": false,
      "inputs": [
        {
          "indexed": false,
          "internalType": "address",
          "name": "previousAdmin",
          "type": "address"
        },
        {
          "indexed": false,
          "internalType": "address",
          "name": "newAdmin",
          "type": "address"
        }
      ],
      "name": "AdminChanged",
      "type": "event"
    },
    {
      "anonymous": false,
      "inputs": [
        {
          "indexed": true,
          "internalType": "address",
          "name": "beacon",
          "type": "address"
        }
      ],
      "name": "BeaconUpgraded",
      "type": "event"
    },
    {
      "anonymous": false,
      "inputs": [
        {
          "indexed": true,
          "internalType": "address",
          "name": "lpPool",
          "type": "address"
        },
        {
          "indexed": true,
          "internalType": "address",
          "name": "sender",
          "type": "address"
        },
        {
          "indexed": true,
          "internalType": "address",
          "name": "recipient",
          "type": "address"
        },
        {
          "indexed": false,
          "internalType": "uint256",
          "name": "amount",
          "type": "uint256"
        }
      ],
      "name": "Deposit",
      "type": "event"
    },
    {
      "anonymous": false,
      "inputs": [
        {
          "indexed": true,
          "internalType": "address",
          "name": "lpPool",
          "type": "address"
        },
        {
          "indexed": false,
          "internalType": "uint256",
          "name": "reward",
          "type": "uint256"
        }
      ],
      "name": "Distribute",
      "type": "event"
    },
    {
      "anonymous": false,
      "inputs": [
        {
          "indexed": false,
          "internalType": "uint256",
          "name": "previousFee",
          "type": "uint256"
        },
        {
          "indexed": false,
          "internalType": "uint256",
          "name": "newFee",
          "type": "uint256"
        }
      ],
      "name": "FeeChanged",
      "type": "event"
    },
    {
      "anonymous": false,
      "inputs": [
        {
          "indexed": false,
          "internalType": "uint8",
          "name": "version",
          "type": "uint8"
        }
      ],
      "name": "Initialized",
      "type": "event"
    },
    {
      "anonymous": false,
      "inputs": [
        {
          "indexed": false,
          "internalType": "address",
          "name": "account",
          "type": "address"
        }
      ],
      "name": "Paused",
      "type": "event"
    },
    {
      "anonymous": false,
      "inputs": [
        {
          "indexed": false,
          "internalType": "address",
          "name": "account",
          "type": "address"
        }
      ],
      "name": "Unpaused",
      "type": "event"
    },
    {
      "anonymous": false,
      "inputs": [
        {
          "indexed": true,
          "internalType": "address",
          "name": "implementation",
          "type": "address"
        }
      ],
      "name": "Upgraded",
      "type": "event"
    },
    {
      "anonymous": false,
      "inputs": [
        {
          "indexed": true,
          "internalType": "address",
          "name": "lpPool",
          "type": "address"
        },
        {
          "indexed": true,
          "internalType": "address",
          "name": "sender",
          "type": "address"
        },
        {
          "indexed": true,
          "internalType": "address",
          "name": "recipient",
          "type": "address"
        },
        {
          "indexed": false,
          "internalType": "uint256",
          "name": "amount",
          "type": "uint256"
        }
      ],
      "name": "Withdraw",
      "type": "event"
    },
    {
      "inputs": [],
      "name": "WMATIC",
      "outputs": [
        {
          "internalType": "address",
          "name": "",
          "type": "address"
        }
      ],
      "stateMutability": "view",
      "type": "function"
    },
    {
      "inputs": [],
      "name": "accessManager",
      "outputs": [
        {
          "internalType": "contract IUnoAccessManager",
          "name": "",
          "type": "address"
        }
      ],
      "stateMutability": "view",
      "type": "function"
    },
    {
      "inputs": [],
      "name": "farmFactory",
      "outputs": [
        {
          "internalType": "contract IUnoFarmFactory",
          "name": "",
          "type": "address"
        }
      ],
      "stateMutability": "view",
      "type": "function"
    },
    {
      "inputs": [],
      "name": "fee",
      "outputs": [
        {
          "internalType": "uint256",
          "name": "",
          "type": "uint256"
        }
      ],
      "stateMutability": "view",
      "type": "function"
    },
    {
      "inputs": [],
      "name": "paused",
      "outputs": [
        {
          "internalType": "bool",
          "name": "",
          "type": "bool"
        }
      ],
      "stateMutability": "view",
      "type": "function"
    },
    {
      "inputs": [],
      "name": "proxiableUUID",
      "outputs": [
        {
          "internalType": "bytes32",
          "name": "",
          "type": "bytes32"
        }
      ],
      "stateMutability": "view",
      "type": "function"
    },
    {
      "inputs": [
        {
          "internalType": "address",
          "name": "newImplementation",
          "type": "address"
        }
      ],
      "name": "upgradeTo",
      "outputs": [],
      "stateMutability": "nonpayable",
      "type": "function"
    },
    {
      "inputs": [
        {
          "internalType": "address",
          "name": "newImplementation",
          "type": "address"
        },
        {
          "internalType": "bytes",
          "name": "data",
          "type": "bytes"
        }
      ],
      "name": "upgradeToAndCall",
      "outputs": [],
      "stateMutability": "payable",
      "type": "function"
    },
    {
      "inputs": [],
      "name": "version",
      "outputs": [
        {
          "internalType": "uint256",
          "name": "",
          "type": "uint256"
        }
      ],
      "stateMutability": "view",
      "type": "function"
    },
    {
      "stateMutability": "payable",
      "type": "receive"
    },
    {
      "inputs": [
        {
          "internalType": "address",
          "name": "_accessManager",
          "type": "address"
        },
        {
          "internalType": "address",
          "name": "_farmFactory",
          "type": "address"
        }
      ],
      "name": "initialize",
      "outputs": [],
      "stateMutability": "nonpayable",
      "type": "function"
    },
    {
      "inputs": [
        {
          "internalType": "address",
          "name": "lpPool",
          "type": "address"
        },
        {
          "internalType": "uint256[]",
          "name": "amounts",
          "type": "uint256[]"
        },
        {
          "internalType": "address[]",
          "name": "tokens",
          "type": "address[]"
        },
        {
          "internalType": "uint256",
          "name": "minAmountLP",
          "type": "uint256"
        },
        {
          "internalType": "uint256",
          "name": "amountLP",
          "type": "uint256"
        },
        {
          "internalType": "address",
          "name": "recipient",
          "type": "address"
        }
      ],
      "name": "deposit",
      "outputs": [
        {
          "internalType": "uint256",
          "name": "liquidity",
          "type": "uint256"
        }
      ],
      "stateMutability": "nonpayable",
      "type": "function"
    },
    {
      "inputs": [
        {
          "internalType": "address",
          "name": "lpPool",
          "type": "address"
        },
        {
          "internalType": "uint256[]",
          "name": "amounts",
          "type": "uint256[]"
        },
        {
          "internalType": "address[]",
          "name": "tokens",
          "type": "address[]"
        },
        {
          "internalType": "uint256",
          "name": "minAmountLP",
          "type": "uint256"
        },
        {
          "internalType": "uint256",
          "name": "amountLP",
          "type": "uint256"
        },
        {
          "internalType": "address",
          "name": "recipient",
          "type": "address"
        }
      ],
      "name": "depositETH",
      "outputs": [
        {
          "internalType": "uint256",
          "name": "liquidity",
          "type": "uint256"
        }
      ],
      "stateMutability": "payable",
      "type": "function"
    },
    {
      "inputs": [
        {
          "internalType": "address",
          "name": "lpPool",
          "type": "address"
        },
        {
          "internalType": "bytes",
          "name": "userData",
          "type": "bytes"
        },
        {
          "internalType": "uint256[]",
          "name": "minAmountsOut",
          "type": "uint256[]"
        },
        {
          "internalType": "bool",
          "name": "withdrawLP",
          "type": "bool"
        },
        {
          "internalType": "address",
          "name": "recipient",
          "type": "address"
        }
      ],
      "name": "withdraw",
      "outputs": [
        {
          "internalType": "uint256[]",
          "name": "amounts",
          "type": "uint256[]"
        },
        {
          "internalType": "uint256",
          "name": "liquidity",
          "type": "uint256"
        }
      ],
      "stateMutability": "nonpayable",
      "type": "function"
    },
    {
      "inputs": [
        {
          "internalType": "address",
          "name": "lpPool",
          "type": "address"
        },
        {
          "internalType": "bytes",
          "name": "userData",
          "type": "bytes"
        },
        {
          "internalType": "uint256[]",
          "name": "minAmountsOut",
          "type": "uint256[]"
        },
        {
          "internalType": "address",
          "name": "recipient",
          "type": "address"
        }
      ],
      "name": "withdrawETH",
      "outputs": [
        {
          "internalType": "uint256[]",
          "name": "amounts",
          "type": "uint256[]"
        },
        {
          "internalType": "uint256",
          "name": "liquidity",
          "type": "uint256"
        }
      ],
      "stateMutability": "nonpayable",
      "type": "function"
    },
    {
      "inputs": [
        {
          "internalType": "address",
          "name": "lpPool",
          "type": "address"
        },
        {
          "components": [
            {
              "components": [
                {
                  "internalType": "bytes32",
                  "name": "poolId",
                  "type": "bytes32"
                },
                {
                  "internalType": "uint256",
                  "name": "assetInIndex",
                  "type": "uint256"
                },
                {
                  "internalType": "uint256",
                  "name": "assetOutIndex",
                  "type": "uint256"
                },
                {
                  "internalType": "uint256",
                  "name": "amount",
                  "type": "uint256"
                },
                {
                  "internalType": "bytes",
                  "name": "userData",
                  "type": "bytes"
                }
              ],
              "internalType": "struct IVault.BatchSwapStep[]",
              "name": "swaps",
              "type": "tuple[]"
            },
            {
              "internalType": "contract IERC20[]",
              "name": "assets",
              "type": "address[]"
            },
            {
              "internalType": "int256[]",
              "name": "limits",
              "type": "int256[]"
            }
          ],
          "internalType": "struct IUnoFarmBalancer.SwapInfo[]",
          "name": "swapInfos",
          "type": "tuple[]"
        },
        {
          "components": [
            {
              "components": [
                {
                  "internalType": "bytes32",
                  "name": "poolId",
                  "type": "bytes32"
                },
                {
                  "internalType": "uint256",
                  "name": "assetInIndex",
                  "type": "uint256"
                },
                {
                  "internalType": "uint256",
                  "name": "assetOutIndex",
                  "type": "uint256"
                },
                {
                  "internalType": "uint256",
                  "name": "amount",
                  "type": "uint256"
                },
                {
                  "internalType": "bytes",
                  "name": "userData",
                  "type": "bytes"
                }
              ],
              "internalType": "struct IVault.BatchSwapStep[]",
              "name": "swaps",
              "type": "tuple[]"
            },
            {
              "internalType": "contract IERC20[]",
              "name": "assets",
              "type": "address[]"
            },
            {
              "internalType": "int256[]",
              "name": "limits",
              "type": "int256[]"
            }
          ],
          "internalType": "struct IUnoFarmBalancer.SwapInfo[]",
          "name": "feeSwapInfos",
          "type": "tuple[]"
        },
        {
          "internalType": "address",
          "name": "feeTo",
          "type": "address"
        }
      ],
      "name": "distribute",
      "outputs": [],
      "stateMutability": "nonpayable",
      "type": "function"
    },
    {
      "inputs": [
        {
          "internalType": "address",
          "name": "_address",
          "type": "address"
        },
        {
          "internalType": "address",
          "name": "lpPool",
          "type": "address"
        }
      ],
      "name": "userStake",
      "outputs": [
        {
          "internalType": "uint256",
          "name": "",
          "type": "uint256"
        }
      ],
      "stateMutability": "view",
      "type": "function"
    },
    {
      "inputs": [
        {
          "internalType": "address",
          "name": "lpPool",
          "type": "address"
        }
      ],
      "name": "totalDeposits",
      "outputs": [
        {
          "internalType": "uint256",
          "name": "",
          "type": "uint256"
        }
      ],
      "stateMutability": "view",
      "type": "function"
    },
    {
      "inputs": [
        {
          "internalType": "address",
          "name": "lpPool",
          "type": "address"
        }
      ],
      "name": "getTokens",
      "outputs": [
        {
          "internalType": "contract IERC20[]",
          "name": "tokens",
          "type": "address[]"
        }
      ],
      "stateMutability": "view",
      "type": "function"
    },
    {
      "inputs": [
        {
          "internalType": "uint256",
          "name": "_fee",
          "type": "uint256"
        }
      ],
      "name": "setFee",
      "outputs": [],
      "stateMutability": "nonpayable",
      "type": "function"
    },
    {
      "inputs": [],
      "name": "pause",
      "outputs": [],
      "stateMutability": "nonpayable",
      "type": "function"
    },
    {
      "inputs": [],
      "name": "unpause",
      "outputs": [],
      "stateMutability": "nonpayable",
      "type": "function"
    }
  ],
  "bytecode": "0x60a0604052306080523480156200001557600080fd5b506200002062000026565b62000156565b6200003260ff62000035565b50565b60008054610100900460ff1615620000ce578160ff1660011480156200006e57506200006c306200014760201b62001bb41760201c565b155b620000c65760405162461bcd60e51b815260206004820152602e6024820152600080516020620034e683398151915260448201526d191e481a5b9a5d1a585b1a5e995960921b60648201526084015b60405180910390fd5b506000919050565b60005460ff8084169116106200012d5760405162461bcd60e51b815260206004820152602e6024820152600080516020620034e683398151915260448201526d191e481a5b9a5d1a585b1a5e995960921b6064820152608401620000bd565b506000805460ff191660ff92909216919091179055600190565b6001600160a01b03163b151590565b6080516133586200018e600039600081816104430152818161048301528181610ac601528181610b060152610c9a01526133586000f3fe60806040526004361061012e5760003560e01c80635bcb8a29116100ab578063d280b9411161006f578063d280b94114610374578063ddca3f4314610394578063e9403256146103aa578063e9b72ac7146103ca578063ef16ef76146103f8578063fdcb60681461041857600080fd5b80635bcb8a29146102e95780635c975abb146102fc57806369fe0e2d1461031f5780636d25e1751461033f5780638456cb591461035f57600080fd5b80634d95cad9116100f25780634d95cad91461024c5780634f1ef2861461028c57806351bdca3e1461029f57806352d1902d146102bf57806354fd4d50146102d457600080fd5b80633659cfe6146101975780633cffb266146101b75780633f4ba83a146101ea578063450efe21146101ff578063485cc9551461022c57600080fd5b366101925733730d500b1d8e8ef31e21c99d1db9a6444d3adf1270146101905760405162461bcd60e51b81526020600482015260126024820152714f4e4c595f4143434550545f574d4154494360701b60448201526064015b60405180910390fd5b005b600080fd5b3480156101a357600080fd5b506101906101b2366004612519565b610438565b3480156101c357600080fd5b506101d76101d2366004612613565b610518565b6040519081526020015b60405180910390f35b3480156101f657600080fd5b506101906107de565b34801561020b57600080fd5b5061021f61021a366004612519565b610895565b6040516101e19190612702565b34801561023857600080fd5b5061019061024736600461274f565b610980565b34801561025857600080fd5b50610274730d500b1d8e8ef31e21c99d1db9a6444d3adf127081565b6040516001600160a01b0390911681526020016101e1565b61019061029a366004612788565b610abb565b3480156102ab57600080fd5b506101d76102ba36600461274f565b610b8c565b3480156102cb57600080fd5b506101d7610c8d565b3480156102e057600080fd5b506101d7600281565b6101d76102f7366004612613565b610d40565b34801561030857600080fd5b5060335460ff1660405190151581526020016101e1565b34801561032b57600080fd5b5061019061033a36600461282f565b611165565b34801561034b57600080fd5b5060c954610274906001600160a01b031681565b34801561036b57600080fd5b506101906112f8565b34801561038057600080fd5b5061019061038f366004612893565b6113af565b3480156103a057600080fd5b506101d760cb5481565b3480156103b657600080fd5b506101d76103c5366004612519565b6115f6565b3480156103d657600080fd5b506103ea6103e5366004612968565b6116eb565b6040516101e19291906129ef565b34801561040457600080fd5b506103ea610413366004612a1f565b611a41565b34801561042457600080fd5b5060ca54610274906001600160a01b031681565b306001600160a01b037f00000000000000000000000000000000000000000000000000000000000000001614156104815760405162461bcd60e51b815260040161018790612ac7565b7f00000000000000000000000000000000000000000000000000000000000000006001600160a01b03166104ca6000805160206132dc833981519152546001600160a01b031690565b6001600160a01b0316146104f05760405162461bcd60e51b815260040161018790612b13565b6104f981611bc3565b6040805160008082526020820190925261051591839190611cc9565b50565b600061052660335460ff1690565b156105435760405162461bcd60e51b815260040161018790612b5f565b84518651146105645760405162461bcd60e51b815260040161018790612b89565b60c95460405163f9d9331d60e01b81526001600160a01b038981166004830152600092169063f9d9331d90602401602060405180830381865afa1580156105af573d6000803e3d6000fd5b505050506040513d601f19601f820116820180604052508101906105d39190612bcd565b90506001600160a01b0381166106555760c954604051621849e360e61b81526001600160a01b038a811660048301529091169063061278c0906024016020604051808303816000875af115801561062e573d6000803e3d6000fd5b505050506040513d601f19601f820116820180604052508101906106529190612bcd565b90505b60005b86518110156106e757600088828151811061067557610675612bea565b602002602001015111156106d5576106d533838a848151811061069a5761069a612bea565b60200260200101518a85815181106106b4576106b4612bea565b60200260200101516001600160a01b0316611e34909392919063ffffffff16565b806106df81612c00565b915050610658565b508315610703576107036001600160a01b038916338387611e34565b604051632272658560e11b81526001600160a01b038216906344e4cb0a90610737908a908a908a908a908a90600401612c29565b6020604051808303816000875af1158015610756573d6000803e3d6000fd5b505050506040513d601f19601f8201168201806040525081019061077a9190612ca6565b9150826001600160a01b0316336001600160a01b0316896001600160a01b03167f7cfff908a4b583f36430b25d75964c458d8ede8a99bd61be750e97ee1b2f3a96856040516107cb91815260200190565b60405180910390a4509695505050505050565b60ca54604051632474521560e21b81527f65d7a28e3265b37a6474929f336521b332c1681b933f6cb9f3376673440d862a60048201819052336024830152916001600160a01b0316906391d1485490604401602060405180830381865afa15801561084d573d6000803e3d6000fd5b505050506040513d601f19601f820116820180604052508101906108719190612cbf565b61088d5760405162461bcd60e51b815260040161018790612cdc565b610515611ea5565b60606000826001600160a01b03166338fff2d06040518163ffffffff1660e01b8152600401602060405180830381865afa1580156108d7573d6000803e3d6000fd5b505050506040513d601f19601f820116820180604052508101906108fb9190612ca6565b604051631f29a8cd60e31b81526004810182905290915073ba12222222228d8ba445958a75a0704d566bf2c89063f94d466890602401600060405180830381865afa15801561094e573d6000803e3d6000fd5b505050506040513d6000823e601f3d908101601f191682016040526109769190810190612d66565b5090949350505050565b600061098c6001611f38565b905080156109a4576000805461ff0019166101001790555b6001600160a01b0383166109ef5760405162461bcd60e51b81526020600482015260126024820152712120a22fa0a1a1a2a9a9afa6a0a720a3a2a960711b6044820152606401610187565b6001600160a01b038216610a385760405162461bcd60e51b815260206004820152601060248201526f4241445f4641524d5f464143544f525960801b6044820152606401610187565b610a40611fc5565b60ca80546001600160a01b038086166001600160a01b03199283161790925560c98054928516929091169190911790558015610ab6576000805461ff0019169055604051600181527f7f26b83ff96e1f2b6a682f133852f6798a09c465da95921460cefb38474024989060200160405180910390a15b505050565b306001600160a01b037f0000000000000000000000000000000000000000000000000000000000000000161415610b045760405162461bcd60e51b815260040161018790612ac7565b7f00000000000000000000000000000000000000000000000000000000000000006001600160a01b0316610b4d6000805160206132dc833981519152546001600160a01b031690565b6001600160a01b031614610b735760405162461bcd60e51b815260040161018790612b13565b610b7c82611bc3565b610b8882826001611cc9565b5050565b60c95460405163f9d9331d60e01b81526001600160a01b038381166004830152600092839291169063f9d9331d90602401602060405180830381865afa158015610bda573d6000803e3d6000fd5b505050506040513d601f19601f82011682018060405250810190610bfe9190612bcd565b90506001600160a01b03811615610c8157604051630103c92b60e01b81526001600160a01b038581166004830152821690630103c92b90602401602060405180830381865afa158015610c55573d6000803e3d6000fd5b505050506040513d601f19601f82011682018060405250810190610c799190612ca6565b915050610c87565b60009150505b92915050565b6000306001600160a01b037f00000000000000000000000000000000000000000000000000000000000000001614610d2d5760405162461bcd60e51b815260206004820152603860248201527f555550535570677261646561626c653a206d757374206e6f742062652063616c60448201527f6c6564207468726f7567682064656c656761746563616c6c00000000000000006064820152608401610187565b506000805160206132dc83398151915290565b6000610d4e60335460ff1690565b15610d6b5760405162461bcd60e51b815260040161018790612b5f565b60003411610dab5760405162461bcd60e51b815260206004820152600d60248201526c1393d7d350551250d7d4d15395609a1b6044820152606401610187565b8451865114610dcc5760405162461bcd60e51b815260040161018790612b89565b60c95460405163f9d9331d60e01b81526001600160a01b038981166004830152600092169063f9d9331d90602401602060405180830381865afa158015610e17573d6000803e3d6000fd5b505050506040513d601f19601f82011682018060405250810190610e3b9190612bcd565b90506001600160a01b038116610ebd5760c954604051621849e360e61b81526001600160a01b038a811660048301529091169063061278c0906024016020604051808303816000875af1158015610e96573d6000803e3d6000fd5b505050506040513d601f19601f82011682018060405250810190610eba9190612bcd565b90505b6000730d500b1d8e8ef31e21c99d1db9a6444d3adf12706001600160a01b031663d0e30db0346040518263ffffffff1660e01b81526004016000604051808303818588803b158015610f0e57600080fd5b505af1158015610f22573d6000803e3d6000fd5b50610f4a9350730d500b1d8e8ef31e21c99d1db9a6444d3adf12709250859150349050611ff6565b60005b875181101561102a57730d500b1d8e8ef31e21c99d1db9a6444d3adf12706001600160a01b0316888281518110610f8657610f86612bea565b60200260200101516001600160a01b031614610ff4576000898281518110610fb057610fb0612bea565b60200260200101511115610fef57610fef33848b8481518110610fd557610fd5612bea565b60200260200101518b85815181106106b4576106b4612bea565b611018565b3489828151811061100757611007612bea565b602002602001018181525050600191505b8061102281612c00565b915050610f4d565b508061106e5760405162461bcd60e51b81526020600482015260136024820152724e4f5f574d415449435f494e5f544f4b454e5360681b6044820152606401610187565b8415611089576110896001600160a01b038a16338488611e34565b604051632272658560e11b81526001600160a01b038316906344e4cb0a906110bd908b908b908b908b908b90600401612c29565b6020604051808303816000875af11580156110dc573d6000803e3d6000fd5b505050506040513d601f19601f820116820180604052508101906111009190612ca6565b9250836001600160a01b0316336001600160a01b03168a6001600160a01b03167f7cfff908a4b583f36430b25d75964c458d8ede8a99bd61be750e97ee1b2f3a968660405161115191815260200190565b60405180910390a450509695505050505050565b60ca60009054906101000a90046001600160a01b03166001600160a01b03166375b238fc6040518163ffffffff1660e01b8152600401602060405180830381865afa1580156111b8573d6000803e3d6000fd5b505050506040513d601f19601f820116820180604052508101906111dc9190612ca6565b60ca54604051632474521560e21b8152600481018390523360248201526001600160a01b03909116906391d1485490604401602060405180830381865afa15801561122b573d6000803e3d6000fd5b505050506040513d601f19601f8201168201806040525081019061124f9190612cbf565b61126b5760405162461bcd60e51b815260040161018790612cdc565b670de0b6b3a76400008211156112ad5760405162461bcd60e51b81526020600482015260076024820152664241445f46454560c81b6044820152606401610187565b8160cb5414610b885760cb5460408051918252602082018490527f5fc463da23c1b063e66f9e352006a7fbe8db7223c455dc429e881a2dfe2f94f1910160405180910390a15060cb55565b60ca54604051632474521560e21b81527f65d7a28e3265b37a6474929f336521b332c1681b933f6cb9f3376673440d862a60048201819052336024830152916001600160a01b0316906391d1485490604401602060405180830381865afa158015611367573d6000803e3d6000fd5b505050506040513d601f19601f8201168201806040525081019061138b9190612cbf565b6113a75760405162461bcd60e51b815260040161018790612cdc565b610515612026565b60335460ff16156113d25760405162461bcd60e51b815260040161018790612b5f565b60ca54604051632474521560e21b81527ffbd454f36a7e1a388bd6fc3ab10d434aa4578f811acbbcf33afb1c697486313c60048201819052336024830152916001600160a01b0316906391d1485490604401602060405180830381865afa158015611441573d6000803e3d6000fd5b505050506040513d601f19601f820116820180604052508101906114659190612cbf565b6114815760405162461bcd60e51b815260040161018790612cdc565b60c95460405163f9d9331d60e01b81526001600160a01b038981166004830152600092169063f9d9331d90602401602060405180830381865afa1580156114cc573d6000803e3d6000fd5b505050506040513d601f19601f820116820180604052508101906114f09190612bcd565b90506001600160a01b0381166115185760405162461bcd60e51b815260040161018790612e33565b6040805180820182526001600160a01b03858116825260cb5460208301529151630faa5a1f60e01b8152600092841691630faa5a1f91611563918c918c918c918c91906004016130bf565b6020604051808303816000875af1158015611582573d6000803e3d6000fd5b505050506040513d601f19601f820116820180604052508101906115a69190612ca6565b9050886001600160a01b03167fc1d32ad5cca423e7dda2123dbf8c482f8e77d00b631c06e903a47f2cec1334df826040516115e391815260200190565b60405180910390a2505050505050505050565b60c95460405163f9d9331d60e01b81526001600160a01b038381166004830152600092839291169063f9d9331d90602401602060405180830381865afa158015611644573d6000803e3d6000fd5b505050506040513d601f19601f820116820180604052508101906116689190612bcd565b90506001600160a01b038116156116e257806001600160a01b031663168a48226040518163ffffffff1660e01b8152600401602060405180830381865afa1580156116b7573d6000803e3d6000fd5b505050506040513d601f19601f820116820180604052508101906116db9190612ca6565b9392505050565b50600092915050565b60c95460405163f9d9331d60e01b81526001600160a01b03888116600483015260609260009283929091169063f9d9331d90602401602060405180830381865afa15801561173d573d6000803e3d6000fd5b505050506040513d601f19601f820116820180604052508101906117619190612bcd565b90506001600160a01b0381166117895760405162461bcd60e51b815260040161018790612e33565b60405163174f832960e11b81526001600160a01b03821690632e9f0652906117c2908b908b908b908b9060009033903090600401613110565b6000604051808303816000875af11580156117e1573d6000803e3d6000fd5b505050506040513d6000823e601f3d908101601f191682016040526118099190810190613181565b909350915060006118198a610895565b905060005b81518110156119dc5784818151811061183957611839612bea565b60200260200101516000141561184e576119ca565b730d500b1d8e8ef31e21c99d1db9a6444d3adf12706001600160a01b031682828151811061187e5761187e612bea565b60200260200101516001600160a01b0316146118e9576118e4868683815181106118aa576118aa612bea565b60200260200101518484815181106118c4576118c4612bea565b60200260200101516001600160a01b0316611ff69092919063ffffffff16565b6119ca565b730d500b1d8e8ef31e21c99d1db9a6444d3adf12706001600160a01b0316632e1a7d4d86838151811061191e5761191e612bea565b60200260200101516040518263ffffffff1660e01b815260040161194491815260200190565b600060405180830381600087803b15801561195e57600080fd5b505af1158015611972573d6000803e3d6000fd5b50505050856001600160a01b03166108fc86838151811061199557611995612bea565b60200260200101519081150290604051600060405180830381858888f193505050501580156119c8573d6000803e3d6000fd5b505b806119d481612c00565b91505061181e565b50846001600160a01b0316336001600160a01b03168b6001600160a01b03167f3115d1449a7b732c986cba18244e897a450f61e1bb8d589cd2e69e6c8924f9f786604051611a2c91815260200190565b60405180910390a45050965096945050505050565b60c95460405163f9d9331d60e01b81526001600160a01b03898116600483015260609260009283929091169063f9d9331d90602401602060405180830381865afa158015611a93573d6000803e3d6000fd5b505050506040513d601f19601f82011682018060405250810190611ab79190612bcd565b90506001600160a01b038116611adf5760405162461bcd60e51b815260040161018790612e33565b60405163174f832960e11b81526001600160a01b03821690632e9f065290611b17908c908c908c908c908c9033908d90600401613110565b6000604051808303816000875af1158015611b36573d6000803e3d6000fd5b505050506040513d6000823e601f3d908101601f19168201604052611b5e9190810190613181565b60405181815291945092506001600160a01b038581169133918d16907f3115d1449a7b732c986cba18244e897a450f61e1bb8d589cd2e69e6c8924f9f79060200160405180910390a45097509795505050505050565b6001600160a01b03163b151590565b60ca60009054906101000a90046001600160a01b03166001600160a01b03166375b238fc6040518163ffffffff1660e01b8152600401602060405180830381865afa158015611c16573d6000803e3d6000fd5b505050506040513d601f19601f82011682018060405250810190611c3a9190612ca6565b60ca54604051632474521560e21b8152600481018390523360248201526001600160a01b03909116906391d1485490604401602060405180830381865afa158015611c89573d6000803e3d6000fd5b505050506040513d601f19601f82011682018060405250810190611cad9190612cbf565b610b885760405162461bcd60e51b815260040161018790612cdc565b7f4910fdfa16fed3260ed0e7147f7cc6da11a60208b5b9406d12a635614ffd91435460ff1615611cfc57610ab68361207e565b826001600160a01b03166352d1902d6040518163ffffffff1660e01b8152600401602060405180830381865afa925050508015611d56575060408051601f3d908101601f19168201909252611d5391810190612ca6565b60015b611db95760405162461bcd60e51b815260206004820152602e60248201527f45524331393637557067726164653a206e657720696d706c656d656e7461746960448201526d6f6e206973206e6f74205555505360901b6064820152608401610187565b6000805160206132dc8339815191528114611e285760405162461bcd60e51b815260206004820152602960248201527f45524331393637557067726164653a20756e737570706f727465642070726f786044820152681a58589b195555525160ba1b6064820152608401610187565b50610ab683838361211a565b6040516001600160a01b0380851660248301528316604482015260648101829052611e9f9085906323b872dd60e01b906084015b60408051601f198184030181529190526020810180516001600160e01b03166001600160e01b03199093169290921790915261213f565b50505050565b60335460ff16611eee5760405162461bcd60e51b815260206004820152601460248201527314185d5cd8589b194e881b9bdd081c185d5cd95960621b6044820152606401610187565b6033805460ff191690557f5db9ee0a495bf2e6ff9c91a7834c1ba4fdd244a5e8aa4e537bd38aeae4b073aa335b6040516001600160a01b03909116815260200160405180910390a1565b60008054610100900460ff1615611f7f578160ff166001148015611f5b5750303b155b611f775760405162461bcd60e51b8152600401610187906131c7565b506000919050565b60005460ff808416911610611fa65760405162461bcd60e51b8152600401610187906131c7565b506000805460ff191660ff92909216919091179055600190565b919050565b600054610100900460ff16611fec5760405162461bcd60e51b815260040161018790613215565b611ff4612211565b565b6040516001600160a01b038316602482015260448101829052610ab690849063a9059cbb60e01b90606401611e68565b60335460ff16156120495760405162461bcd60e51b815260040161018790612b5f565b6033805460ff191660011790557f62e78cea01bee320cd4e420270b5ea74000d11b0c9f74754ebdbfc544b05a258611f1b3390565b6001600160a01b0381163b6120eb5760405162461bcd60e51b815260206004820152602d60248201527f455243313936373a206e657720696d706c656d656e746174696f6e206973206e60448201526c1bdd08184818dbdb9d1c9858dd609a1b6064820152608401610187565b6000805160206132dc83398151915280546001600160a01b0319166001600160a01b0392909216919091179055565b61212383612244565b6000825111806121305750805b15610ab657611e9f8383612284565b6000612194826040518060400160405280602081526020017f5361666545524332303a206c6f772d6c6576656c2063616c6c206661696c6564815250856001600160a01b03166123789092919063ffffffff16565b805190915015610ab657808060200190518101906121b29190612cbf565b610ab65760405162461bcd60e51b815260206004820152602a60248201527f5361666545524332303a204552433230206f7065726174696f6e20646964206e6044820152691bdd081cdd58d8d9595960b21b6064820152608401610187565b600054610100900460ff166122385760405162461bcd60e51b815260040161018790613215565b6033805460ff19169055565b61224d8161207e565b6040516001600160a01b038216907fbc7cd75a20ee27fd9adebab32041f755214dbc6bffa90cc0225b39da2e5c2d3b90600090a250565b60606001600160a01b0383163b6122ec5760405162461bcd60e51b815260206004820152602660248201527f416464726573733a2064656c65676174652063616c6c20746f206e6f6e2d636f6044820152651b9d1c9858dd60d21b6064820152608401610187565b600080846001600160a01b031684604051612307919061328c565b600060405180830381855af49150503d8060008114612342576040519150601f19603f3d011682016040523d82523d6000602084013e612347565b606091505b509150915061236f82826040518060600160405280602781526020016132fc6027913961238f565b95945050505050565b606061238784846000856123c8565b949350505050565b6060831561239e5750816116db565b8251156123ae5782518084602001fd5b8160405162461bcd60e51b815260040161018791906132a8565b6060824710156124295760405162461bcd60e51b815260206004820152602660248201527f416464726573733a20696e73756666696369656e742062616c616e636520666f6044820152651c8818d85b1b60d21b6064820152608401610187565b6001600160a01b0385163b6124805760405162461bcd60e51b815260206004820152601d60248201527f416464726573733a2063616c6c20746f206e6f6e2d636f6e74726163740000006044820152606401610187565b600080866001600160a01b0316858760405161249c919061328c565b60006040518083038185875af1925050503d80600081146124d9576040519150601f19603f3d011682016040523d82523d6000602084013e6124de565b606091505b50915091506124ee82828661238f565b979650505050505050565b6001600160a01b038116811461051557600080fd5b8035611fc0816124f9565b60006020828403121561252b57600080fd5b81356116db816124f9565b634e487b7160e01b600052604160045260246000fd5b604051601f8201601f191681016001600160401b038111828210171561257457612574612536565b604052919050565b60006001600160401b0382111561259557612595612536565b5060051b60200190565b600082601f8301126125b057600080fd5b813560206125c56125c08361257c565b61254c565b82815260059290921b840181019181810190868411156125e457600080fd5b8286015b848110156126085780356125fb816124f9565b83529183019183016125e8565b509695505050505050565b60008060008060008060c0878903121561262c57600080fd5b8635612637816124f9565b95506020878101356001600160401b038082111561265457600080fd5b818a0191508a601f83011261266857600080fd5b81356126766125c08261257c565b81815260059190911b8301840190848101908d83111561269557600080fd5b938501935b828510156126b35784358252938501939085019061269a565b9950505060408a01359250808311156126cb57600080fd5b50506126d989828a0161259f565b94505060608701359250608087013591506126f660a0880161250e565b90509295509295509295565b6020808252825182820181905260009190848201906040850190845b818110156127435783516001600160a01b03168352928401929184019160010161271e565b50909695505050505050565b6000806040838503121561276257600080fd5b823561276d816124f9565b9150602083013561277d816124f9565b809150509250929050565b6000806040838503121561279b57600080fd5b82356127a6816124f9565b91506020838101356001600160401b03808211156127c357600080fd5b818601915086601f8301126127d757600080fd5b8135818111156127e9576127e9612536565b6127fb601f8201601f1916850161254c565b9150808252878482850101111561281157600080fd5b80848401858401376000848284010152508093505050509250929050565b60006020828403121561284157600080fd5b5035919050565b60008083601f84011261285a57600080fd5b5081356001600160401b0381111561287157600080fd5b6020830191508360208260051b850101111561288c57600080fd5b9250929050565b600080600080600080608087890312156128ac57600080fd5b86356128b7816124f9565b955060208701356001600160401b03808211156128d357600080fd5b6128df8a838b01612848565b909750955060408901359150808211156128f857600080fd5b5061290589828a01612848565b9094509250506060870135612919816124f9565b809150509295509295509295565b60008083601f84011261293957600080fd5b5081356001600160401b0381111561295057600080fd5b60208301915083602082850101111561288c57600080fd5b6000806000806000806080878903121561298157600080fd5b863561298c816124f9565b955060208701356001600160401b03808211156129a857600080fd5b6128df8a838b01612927565b600081518084526020808501945080840160005b838110156129e4578151875295820195908201906001016129c8565b509495945050505050565b604081526000612a0260408301856129b4565b90508260208301529392505050565b801515811461051557600080fd5b600080600080600080600060a0888a031215612a3a57600080fd5b8735612a45816124f9565b965060208801356001600160401b0380821115612a6157600080fd5b612a6d8b838c01612927565b909850965060408a0135915080821115612a8657600080fd5b50612a938a828b01612848565b9095509350506060880135612aa781612a11565b91506080880135612ab7816124f9565b8091505092959891949750929550565b6020808252602c908201527f46756e6374696f6e206d7573742062652063616c6c6564207468726f7567682060408201526b19195b1959d85d1958d85b1b60a21b606082015260800190565b6020808252602c908201527f46756e6374696f6e206d7573742062652063616c6c6564207468726f7567682060408201526b6163746976652070726f787960a01b606082015260800190565b60208082526010908201526f14185d5cd8589b194e881c185d5cd95960821b604082015260600190565b60208082526024908201527f414d4f554e54535f414e445f544f4b454e535f4c454e475448535f4e4f545f4d604082015263082a886960e31b606082015260800190565b600060208284031215612bdf57600080fd5b81516116db816124f9565b634e487b7160e01b600052603260045260246000fd5b6000600019821415612c2257634e487b7160e01b600052601160045260246000fd5b5060010190565b60a081526000612c3c60a08301886129b4565b82810360208481019190915287518083528882019282019060005b81811015612c7c5784516001600160a01b031683529383019391830191600101612c57565b5050604085019790975250505060608101929092526001600160a01b031660809091015292915050565b600060208284031215612cb857600080fd5b5051919050565b600060208284031215612cd157600080fd5b81516116db81612a11565b60208082526015908201527410d05313115497d393d517d055551213d492569151605a1b604082015260600190565b600082601f830112612d1c57600080fd5b81516020612d2c6125c08361257c565b82815260059290921b84018101918181019086841115612d4b57600080fd5b8286015b848110156126085780518352918301918301612d4f565b600080600060608486031215612d7b57600080fd5b83516001600160401b0380821115612d9257600080fd5b818601915086601f830112612da657600080fd5b81516020612db66125c08361257c565b82815260059290921b8401810191818101908a841115612dd557600080fd5b948201945b83861015612dfc578551612ded816124f9565b82529482019490820190612dda565b91890151919750909350505080821115612e1557600080fd5b50612e2286828701612d0b565b925050604084015190509250925092565b6020808252600f908201526e4641524d5f4e4f545f45584953545360881b604082015260600190565b6000808335601e19843603018112612e7357600080fd5b83016020810192503590506001600160401b03811115612e9257600080fd5b8060051b360383131561288c57600080fd5b81835281816020850137506000828201602090810191909152601f909101601f19169091010190565b8183526000602080850194508260005b858110156129e4578135612ef0816124f9565b6001600160a01b031687529582019590820190600101612edd565b8183526000602080850194508260005b858110156129e457813587529582019590820190600101612f1b565b8183526000602084018094508360051b81018360005b86811015612743578383038852605e1986360301823512612f6d57600080fd5b85823501612f7b8182612e5c565b606086526060860181815260808701905060808260051b8801018360005b8481101561305957898303607f1901845236869003609e1901823512612fbe57600080fd5b85823501803584526020810135602085015260408101356040850152606081013560608501526080810135601e19823603018112612ffb57600080fd5b6001600160401b0382820135111561301257600080fd5b81810135360382131561302457600080fd5b60a0608086015261304160a0860183830135602085850101612ea4565b60209687019690955093909301925050600101612f99565b50506130686020860186612e5c565b94509250878103602089015261307f818585612ecd565b93505050506130916040830183612e5c565b925085820360408701526130a6828483612f0b565b60209b8c019b9096509490940193505050600101612f4d565b6080815260006130d3608083018789612f37565b82810360208401526130e6818688612f37565b84516001600160a01b03166040850152602090940151606090930192909252509095945050505050565b60a08152600061312460a08301898b612ea4565b82810360208401528681526001600160fb1b0387111561314357600080fd5b8660051b80896020840137600091016020019081529415156040830152506001600160a01b0392831660608201529116608090910152949350505050565b6000806040838503121561319457600080fd5b82516001600160401b038111156131aa57600080fd5b6131b685828601612d0b565b925050602083015190509250929050565b6020808252602e908201527f496e697469616c697a61626c653a20636f6e747261637420697320616c72656160408201526d191e481a5b9a5d1a585b1a5e995960921b606082015260800190565b6020808252602b908201527f496e697469616c697a61626c653a20636f6e7472616374206973206e6f74206960408201526a6e697469616c697a696e6760a81b606082015260800190565b60005b8381101561327b578181015183820152602001613263565b83811115611e9f5750506000910152565b6000825161329e818460208701613260565b9190910192915050565b60208152600082518060208401526132c7816040850160208701613260565b601f01601f1916919091016040019291505056fe360894a13ba1a3210667c828492db98dca3e2076cc3735a920a3ca505d382bbc416464726573733a206c6f772d6c6576656c2064656c65676174652063616c6c206661696c6564a26469706673582212204352c5ec1ba5d6ef080ca35491bd304494c524954ee067725415287d434bd66564736f6c634300080a0033496e697469616c697a61626c653a20636f6e747261637420697320616c726561",
  "immutableReferences": {
    "561": [
      {
        "length": 32,
        "start": 1091
      },
      {
        "length": 32,
        "start": 1155
      },
      {
        "length": 32,
        "start": 2758
      },
      {
        "length": 32,
        "start": 2822
      },
      {
        "length": 32,
        "start": 3226
      }
    ]
  },
  "source": "// SPDX-License-Identifier: MIT\r\npragma solidity 0.8.10;\r\n\r\nimport {IUnoFarmBalancer as Farm} from '../apps/balancer/interfaces/IUnoFarmBalancer.sol'; \r\nimport '../interfaces/IUnoFarmFactory.sol';\r\nimport '../interfaces/IUnoAccessManager.sol'; \r\nimport '../interfaces/IVault.sol'; \r\nimport \"../interfaces/IBasePool.sol\";\r\nimport '../interfaces/IWMATIC.sol';\r\nimport '@openzeppelin/contracts-upgradeable/token/ERC20/IERC20Upgradeable.sol';\r\nimport '@openzeppelin/contracts-upgradeable/token/ERC20/utils/SafeERC20Upgradeable.sol';\r\nimport '@openzeppelin/contracts-upgradeable/proxy/utils/Initializable.sol';\r\nimport '@openzeppelin/contracts-upgradeable/security/PausableUpgradeable.sol';\r\nimport '@openzeppelin/contracts-upgradeable/proxy/utils/UUPSUpgradeable.sol';\r\n\r\ncontract UnoAssetRouterBalancerV2 is Initializable, PausableUpgradeable, UUPSUpgradeable {\r\n    using SafeERC20Upgradeable for IERC20Upgradeable;\r\n\r\n    /**\r\n     * @dev Contract Variables:\r\n     * farmFactory - The contract that deploys new Farms and links them to {lpPool}s.\r\n     * accessManager - Role manager contract.\r\n     */\r\n    IUnoFarmFactory public farmFactory;\r\n    IUnoAccessManager public accessManager;\r\n\r\n    bytes32 private constant DISTRIBUTOR_ROLE = keccak256('DISTRIBUTOR_ROLE');\r\n    bytes32 private constant PAUSER_ROLE = keccak256('PAUSER_ROLE');\r\n\r\n    IVault constant private Vault = IVault(0xBA12222222228d8Ba445958a75a0704d566BF2C8);\r\n\r\n    uint256 public fee;\r\n\r\n    address public constant WMATIC = 0x0d500B1d8E8eF31E21C99d1Db9A6444d3ADf1270;\r\n\r\n    uint256 public constant version = 2;\r\n\r\n    event Deposit(address indexed lpPool, address indexed sender, address indexed recipient, uint256 amount);\r\n    event Withdraw(address indexed lpPool, address indexed sender, address indexed recipient, uint256 amount);\r\n    event Distribute(address indexed lpPool, uint256 reward);\r\n\r\n    event FeeChanged(uint256 previousFee, uint256 newFee);\r\n\r\n    modifier onlyRole(bytes32 role){\r\n        require(accessManager.hasRole(role, msg.sender), 'CALLER_NOT_AUTHORIZED');\r\n        _;\r\n    }\r\n\r\n    // ============ Methods ============\r\n\r\n    /// @custom:oz-upgrades-unsafe-allow constructor\r\n    constructor() {\r\n        _disableInitializers();\r\n    }\r\n\r\n    function initialize(address _accessManager, address _farmFactory) external initializer{\r\n        require (_accessManager != address(0), 'BAD_ACCESS_MANAGER');\r\n        require (_farmFactory != address(0), 'BAD_FARM_FACTORY');\r\n\r\n        __Pausable_init();\r\n        accessManager = IUnoAccessManager(_accessManager);\r\n        farmFactory = IUnoFarmFactory(_farmFactory);\r\n    }\r\n\r\n    receive() external payable {\r\n        require(msg.sender == WMATIC, 'ONLY_ACCEPT_WMATIC'); // only accept ETH via fallback from the WMATIC contract\r\n    }\r\n\r\n    /**\r\n     * @dev Deposits tokens in the given pool. Creates new Farm contract if there isn't one deployed for the {lpPool} and deposits tokens in it.\r\n     * @param lpPool - Address of the pool to deposit tokens in.\r\n     * @param amounts - Amounts of tokens to deposit.\r\n     * @param tokens - Tokens to deposit.\r\n     * @param minAmountLP - Minimum LP the user will receive from {tokens} deposit.\r\n     * @param amountLP - Additional amount of LP tokens to deposit.\r\n     * @param recipient - Address which will receive the deposit.\r\n\r\n     * @return liquidity - Total liquidity sent to the farm (in lpTokens).\r\n     */\r\n    function deposit(address lpPool, uint256[] memory amounts, address[] memory tokens, uint256 minAmountLP, uint256 amountLP, address recipient) external whenNotPaused returns(uint256 liquidity){\r\n        require (amounts.length == tokens.length, 'AMOUNTS_AND_TOKENS_LENGTHS_NOT_MATCH');\r\n        Farm farm = Farm(farmFactory.Farms(lpPool));\r\n        if(farm == Farm(address(0))){\r\n            farm = Farm(farmFactory.createFarm(lpPool));\r\n        }\r\n\r\n        for (uint256 i = 0; i < tokens.length; i++) {\r\n            if(amounts[i] > 0){\r\n                IERC20Upgradeable(tokens[i]).safeTransferFrom(msg.sender, address(farm), amounts[i]);\r\n            }\r\n        }\r\n        if(amountLP > 0){\r\n            IERC20Upgradeable(lpPool).safeTransferFrom(msg.sender, address(farm), amountLP);\r\n        }\r\n        \r\n        liquidity = farm.deposit(amounts, tokens, minAmountLP, amountLP, recipient);\r\n        emit Deposit(lpPool, msg.sender, recipient, liquidity); \r\n    }\r\n\r\n    /**\r\n     * @dev Autoconverts MATIC into WMATIC and deposits tokens in the given pool. Creates new Farm contract if there isn't one deployed for the {lpPool} and deposits tokens in it.\r\n     * @param lpPool - Address of the pool to deposit tokens in.\r\n     * @param amounts - Amounts of tokens to deposit.\r\n     * @param tokens - Tokens to deposit.\r\n     * @param minAmountLP - Minimum LP the user will receive from {tokens} deposit.\r\n     * @param amountLP - Additional amount of LP tokens to deposit.\r\n     * @param recipient - Address which will receive the deposit.\r\n\r\n     * @return liquidity - Total liquidity sent to the farm (in lpTokens).\r\n     */\r\n    function depositETH(address lpPool, uint256[] memory amounts, address[] memory tokens, uint256 minAmountLP, uint256 amountLP, address recipient) external payable whenNotPaused returns(uint256 liquidity){\r\n        require(msg.value > 0, \"NO_MATIC_SENT\");\r\n        require (amounts.length == tokens.length, 'AMOUNTS_AND_TOKENS_LENGTHS_NOT_MATCH');\r\n\r\n        Farm farm = Farm(farmFactory.Farms(lpPool));\r\n        if(farm == Farm(address(0))){\r\n            farm = Farm(farmFactory.createFarm(lpPool));\r\n        }\r\n\r\n        bool WMATICInTokens;\r\n        IWMATIC(WMATIC).deposit{value: msg.value}();\r\n        IERC20Upgradeable(WMATIC).safeTransfer(address(farm), msg.value);\r\n        for (uint256 i = 0; i < tokens.length; i++) {\r\n            if(tokens[i] != WMATIC){\r\n                if(amounts[i] > 0){\r\n                    IERC20Upgradeable(tokens[i]).safeTransferFrom(msg.sender, address(farm), amounts[i]);\r\n                }\r\n                continue;\r\n            }\r\n            amounts[i] = msg.value;\r\n            WMATICInTokens = true;\r\n        }\r\n        require(WMATICInTokens, \"NO_WMATIC_IN_TOKENS\");\r\n\r\n        if(amountLP > 0){\r\n            IERC20Upgradeable(lpPool).safeTransferFrom(msg.sender, address(farm), amountLP);\r\n        }\r\n        \r\n        liquidity = farm.deposit(amounts, tokens, minAmountLP, amountLP, recipient);\r\n        emit Deposit(lpPool, msg.sender, recipient, liquidity); \r\n    }\r\n\r\n    /** \r\n     * @dev Withdraws tokens from the given pool. \r\n     * @param lpPool - LP pool to withdraw from.\r\n     * @param userData - If withdrawLP provide LP amount to withdraw, else use Balancer pool exit userData.\r\n     * @param minAmountsOut - Minimum token amounts the user will receive.\r\n     * @param withdrawLP - True: Withdraw in LP tokens, False: Withdraw in normal tokens.\r\n     * @param recipient - The address which will receive tokens.\r\n\r\n     * @return amounts - Token amounts sent to the {recipient}.\r\n     * @return liquidity - Total liquidity sent to the user (in lpTokens).\r\n     */ \r\n    function withdraw(address lpPool, bytes calldata userData, uint256[] calldata minAmountsOut, bool withdrawLP, address recipient) external returns(uint256[] memory amounts, uint256 liquidity){ \r\n        Farm farm = Farm(farmFactory.Farms(lpPool));\r\n        require(farm != Farm(address(0)),'FARM_NOT_EXISTS');\r\n\r\n        (amounts, liquidity) = farm.withdraw(userData, minAmountsOut, withdrawLP, msg.sender, recipient);\r\n        emit Withdraw(lpPool, msg.sender, recipient, liquidity);\r\n    }\r\n\r\n    /** \r\n     * @dev Autoconverts WMATIC into MATIC and withdraws tokens from the given pool. \r\n     * @param lpPool - LP pool to withdraw from.\r\n     * @param userData -  Balancer pool exit userData.\r\n     * @param minAmountsOut - Minimum token amounts the user will receive.\r\n     * @param recipient - The address which will receive tokens.\r\n\r\n     * @return amounts - Token amounts sent to the {recipient}.\r\n     * @return liquidity - Total liquidity sent to the user (in lpTokens).\r\n     */ \r\n    function withdrawETH(address lpPool, bytes calldata userData, uint256[] calldata minAmountsOut, address recipient) external returns(uint256[] memory amounts, uint256 liquidity){ \r\n        Farm farm = Farm(farmFactory.Farms(lpPool));\r\n        require(farm != Farm(address(0)),'FARM_NOT_EXISTS');\r\n\r\n        (amounts, liquidity) = farm.withdraw(userData, minAmountsOut, false, msg.sender, address(this));\r\n\r\n        IERC20[] memory tokens = getTokens(lpPool);\r\n        for (uint256 i = 0; i < tokens.length; i++) {\r\n            if (amounts[i] == 0){\r\n                continue;\r\n            }\r\n            if (address(tokens[i]) != WMATIC) {\r\n                IERC20Upgradeable(address(tokens[i])).safeTransfer(recipient, amounts[i]);\r\n                continue;\r\n            }\r\n            IWMATIC(WMATIC).withdraw(amounts[i]);\r\n            payable(recipient).transfer(amounts[i]);\r\n        }\r\n        emit Withdraw(lpPool, msg.sender, recipient, liquidity);  \r\n    }\r\n\r\n    /**\r\n     * @dev Distributes tokens between users for a single {Farms[lpPool]}.\r\n     * @param lpPool - The pool to distribute. \r\n     * @param swapInfos - The data used to swap reward tokens for the needed tokens.\r\n     * @param feeSwapInfos - The data used to swap reward tokens for fees.\r\n     * @param feeTo - Address to collect fees to.\r\n     *\r\n     * Note: This function can only be called by the distributor.\r\n     */\r\n    function distribute(\r\n        address lpPool,\r\n        Farm.SwapInfo[] calldata swapInfos,\r\n        Farm.SwapInfo[] calldata feeSwapInfos,\r\n        address feeTo\r\n    ) external whenNotPaused onlyRole(DISTRIBUTOR_ROLE) {\r\n        Farm farm = Farm(farmFactory.Farms(lpPool));\r\n        require(farm != Farm(address(0)), 'FARM_NOT_EXISTS');\r\n\r\n        uint256 reward = farm.distribute(swapInfos, feeSwapInfos, Farm.FeeInfo(feeTo, fee));\r\n        emit Distribute(lpPool, reward);\r\n    }\r\n\r\n    /**\r\n     * @dev Returns LP tokens staked by the {_address} for the given {lpPool}.\r\n     * @param _address - The address to check stakes for.\r\n     * @param lpPool - LP pool to check stakes in.\r\n\r\n     * @return Total user stake(in LP tokens).\r\n     */\r\n   function userStake(address _address, address lpPool) external view returns(uint256){\r\n        Farm farm = Farm(farmFactory.Farms(lpPool));\r\n        if (farm != Farm(address(0))) {\r\n            return farm.userBalance(_address);\r\n        }\r\n        return 0;\r\n    }\r\n\r\n    /**\r\n     * @dev Returns total amount locked in the pool. Doesn't take pending rewards into account.\r\n     * @param lpPool - LP pool to check total deposits in.\r\n\r\n     * @return Total deposits (in LP tokens).\r\n     */\r\n    function totalDeposits(address lpPool) external view returns (uint256) {\r\n        Farm farm = Farm(farmFactory.Farms(lpPool));\r\n        if (farm != Farm(address(0))) {\r\n            return farm.getTotalDeposits();\r\n        }\r\n        return 0;\r\n    }\r\n\r\n    /**\r\n     * @dev Returns addresses of tokens in {lpPool}.\r\n     * @param lpPool - LP pool to check tokens in.\r\n\r\n     * @return tokens - Token addresses.\r\n     */  \r\n    function getTokens(address lpPool) public view returns(IERC20[] memory tokens){\r\n        bytes32 poolId = IBasePool(lpPool).getPoolId();\r\n        (tokens, , ) = Vault.getPoolTokens(poolId);\r\n    }\r\n\r\n    /**\r\n     * @dev Change fee amount.\r\n     * @param _fee -New fee to collect from farms. [10^18 == 100%]\r\n     *\r\n     * Note: This function can only be called by ADMIN_ROLE.\r\n     */ \r\n    function setFee(uint256 _fee) external onlyRole(accessManager.ADMIN_ROLE()){\r\n        require (_fee <= 1 ether, \"BAD_FEE\");\r\n        if(fee != _fee){\r\n            emit FeeChanged(fee, _fee); \r\n            fee = _fee;\r\n        }\r\n    }\r\n \r\n    function pause() external onlyRole(PAUSER_ROLE) {\r\n        _pause();\r\n    }\r\n \r\n    function unpause() external onlyRole(PAUSER_ROLE) {\r\n        _unpause();\r\n    }\r\n\r\n    function _authorizeUpgrade(address) internal override onlyRole(accessManager.ADMIN_ROLE()) {\r\n\r\n    }\r\n}\r\n",
  "sourcePath": "C:\\Users\\jugli\\Desktop\\uno\\uno-contracts\\contracts\\test\\UnoAssetRouterBalancerV2.sol",
  "compiler": {
    "name": "solc",
    "version": "0.8.10+commit.fc410830.Emscripten.clang"
  },
  "schemaVersion": "3.4.10",
  "updatedAt": "2022-12-05T19:02:38.173Z",
  "devdoc": {
    "kind": "dev",
    "methods": {
      "constructor": {
        "custom:oz-upgrades-unsafe-allow": "constructor"
      },
      "deposit(address,uint256[],address[],uint256,uint256,address)": {
        "details": "Deposits tokens in the given pool. Creates new Farm contract if there isn't one deployed for the {lpPool} and deposits tokens in it.",
        "params": {
          "amountLP": "- Additional amount of LP tokens to deposit.",
          "amounts": "- Amounts of tokens to deposit.",
          "lpPool": "- Address of the pool to deposit tokens in.",
          "minAmountLP": "- Minimum LP the user will receive from {tokens} deposit.",
          "recipient": "- Address which will receive the deposit.",
          "tokens": "- Tokens to deposit."
        },
        "returns": {
          "liquidity": "- Total liquidity sent to the farm (in lpTokens)."
        }
      },
      "depositETH(address,uint256[],address[],uint256,uint256,address)": {
        "details": "Autoconverts MATIC into WMATIC and deposits tokens in the given pool. Creates new Farm contract if there isn't one deployed for the {lpPool} and deposits tokens in it.",
        "params": {
          "amountLP": "- Additional amount of LP tokens to deposit.",
          "amounts": "- Amounts of tokens to deposit.",
          "lpPool": "- Address of the pool to deposit tokens in.",
          "minAmountLP": "- Minimum LP the user will receive from {tokens} deposit.",
          "recipient": "- Address which will receive the deposit.",
          "tokens": "- Tokens to deposit."
        },
        "returns": {
          "liquidity": "- Total liquidity sent to the farm (in lpTokens)."
        }
      },
      "distribute(address,((bytes32,uint256,uint256,uint256,bytes)[],address[],int256[])[],((bytes32,uint256,uint256,uint256,bytes)[],address[],int256[])[],address)": {
        "details": "Distributes tokens between users for a single {Farms[lpPool]}.",
        "params": {
          "feeSwapInfos": "- The data used to swap reward tokens for fees.",
          "feeTo": "- Address to collect fees to. Note: This function can only be called by the distributor.",
          "lpPool": "- The pool to distribute. ",
          "swapInfos": "- The data used to swap reward tokens for the needed tokens."
        }
      },
      "getTokens(address)": {
        "details": "Returns addresses of tokens in {lpPool}.",
        "params": {
          "lpPool": "- LP pool to check tokens in."
        },
        "returns": {
          "tokens": "- Token addresses."
        }
      },
      "paused()": {
        "details": "Returns true if the contract is paused, and false otherwise."
      },
      "proxiableUUID()": {
        "details": "Implementation of the ERC1822 {proxiableUUID} function. This returns the storage slot used by the implementation. It is used to validate that the this implementation remains valid after an upgrade. IMPORTANT: A proxy pointing at a proxiable contract should not be considered proxiable itself, because this risks bricking a proxy that upgrades to it, by delegating to itself until out of gas. Thus it is critical that this function revert if invoked through a proxy. This is guaranteed by the `notDelegated` modifier."
      },
      "setFee(uint256)": {
        "details": "Change fee amount.",
        "params": {
          "_fee": "-New fee to collect from farms. [10^18 == 100%] Note: This function can only be called by ADMIN_ROLE."
        }
      },
      "totalDeposits(address)": {
        "details": "Returns total amount locked in the pool. Doesn't take pending rewards into account.",
        "params": {
          "lpPool": "- LP pool to check total deposits in."
        },
        "returns": {
          "_0": "Total deposits (in LP tokens)."
        }
      },
      "upgradeTo(address)": {
        "details": "Upgrade the implementation of the proxy to `newImplementation`. Calls {_authorizeUpgrade}. Emits an {Upgraded} event."
      },
      "upgradeToAndCall(address,bytes)": {
        "details": "Upgrade the implementation of the proxy to `newImplementation`, and subsequently execute the function call encoded in `data`. Calls {_authorizeUpgrade}. Emits an {Upgraded} event."
      },
      "userStake(address,address)": {
        "details": "Returns LP tokens staked by the {_address} for the given {lpPool}.",
        "params": {
          "_address": "- The address to check stakes for.",
          "lpPool": "- LP pool to check stakes in."
        },
        "returns": {
          "_0": "Total user stake(in LP tokens)."
        }
      },
      "withdraw(address,bytes,uint256[],bool,address)": {
        "details": "Withdraws tokens from the given pool. ",
        "params": {
          "lpPool": "- LP pool to withdraw from.",
          "minAmountsOut": "- Minimum token amounts the user will receive.",
          "recipient": "- The address which will receive tokens.",
          "userData": "- If withdrawLP provide LP amount to withdraw, else use Balancer pool exit userData.",
          "withdrawLP": "- True: Withdraw in LP tokens, False: Withdraw in normal tokens."
        },
        "returns": {
          "amounts": "- Token amounts sent to the {recipient}.",
          "liquidity": "- Total liquidity sent to the user (in lpTokens)."
        }
      },
      "withdrawETH(address,bytes,uint256[],address)": {
        "details": "Autoconverts WMATIC into MATIC and withdraws tokens from the given pool. ",
        "params": {
          "lpPool": "- LP pool to withdraw from.",
          "minAmountsOut": "- Minimum token amounts the user will receive.",
          "recipient": "- The address which will receive tokens.",
          "userData": "-  Balancer pool exit userData."
        },
        "returns": {
          "amounts": "- Token amounts sent to the {recipient}.",
          "liquidity": "- Total liquidity sent to the user (in lpTokens)."
        }
      }
    },
    "stateVariables": {
      "farmFactory": {
        "details": "Contract Variables: farmFactory - The contract that deploys new Farms and links them to {lpPool}s. accessManager - Role manager contract."
      }
    },
    "version": 1
  },
  "userdoc": {
    "kind": "user",
    "methods": {},
    "version": 1
  }
}