{
  "contractName": "UnoAssetRouterBalancer",
  "abi": [
    {
      "anonymous": false,
      "inputs": [
        {
          "indexed": false,
          "internalType": "address",
          "name": "previousAdmin",
          "type": "address"
        },
        {
          "indexed": false,
          "internalType": "address",
          "name": "newAdmin",
          "type": "address"
        }
      ],
      "name": "AdminChanged",
      "type": "event"
    },
    {
      "anonymous": false,
      "inputs": [
        {
          "indexed": true,
          "internalType": "address",
          "name": "beacon",
          "type": "address"
        }
      ],
      "name": "BeaconUpgraded",
      "type": "event"
    },
    {
      "anonymous": false,
      "inputs": [
        {
          "indexed": true,
          "internalType": "address",
          "name": "lpPool",
          "type": "address"
        },
        {
          "indexed": true,
          "internalType": "address",
          "name": "sender",
          "type": "address"
        },
        {
          "indexed": true,
          "internalType": "address",
          "name": "recipient",
          "type": "address"
        },
        {
          "indexed": false,
          "internalType": "uint256",
          "name": "amount",
          "type": "uint256"
        }
      ],
      "name": "Deposit",
      "type": "event"
    },
    {
      "anonymous": false,
      "inputs": [
        {
          "indexed": true,
          "internalType": "address",
          "name": "lpPool",
          "type": "address"
        },
        {
          "indexed": false,
          "internalType": "uint256",
          "name": "reward",
          "type": "uint256"
        }
      ],
      "name": "Distribute",
      "type": "event"
    },
    {
      "anonymous": false,
      "inputs": [
        {
          "indexed": false,
          "internalType": "uint8",
          "name": "version",
          "type": "uint8"
        }
      ],
      "name": "Initialized",
      "type": "event"
    },
    {
      "anonymous": false,
      "inputs": [
        {
          "indexed": false,
          "internalType": "address",
          "name": "account",
          "type": "address"
        }
      ],
      "name": "Paused",
      "type": "event"
    },
    {
      "anonymous": false,
      "inputs": [
        {
          "indexed": false,
          "internalType": "address",
          "name": "account",
          "type": "address"
        }
      ],
      "name": "Unpaused",
      "type": "event"
    },
    {
      "anonymous": false,
      "inputs": [
        {
          "indexed": true,
          "internalType": "address",
          "name": "implementation",
          "type": "address"
        }
      ],
      "name": "Upgraded",
      "type": "event"
    },
    {
      "anonymous": false,
      "inputs": [
        {
          "indexed": true,
          "internalType": "address",
          "name": "lpPool",
          "type": "address"
        },
        {
          "indexed": true,
          "internalType": "address",
          "name": "sender",
          "type": "address"
        },
        {
          "indexed": true,
          "internalType": "address",
          "name": "recipient",
          "type": "address"
        },
        {
          "indexed": false,
          "internalType": "uint256",
          "name": "amount",
          "type": "uint256"
        }
      ],
      "name": "Withdraw",
      "type": "event"
    },
    {
      "inputs": [],
      "name": "accessManager",
      "outputs": [
        {
          "internalType": "contract IUnoAccessManager",
          "name": "",
          "type": "address"
        }
      ],
      "stateMutability": "view",
      "type": "function"
    },
    {
      "inputs": [],
      "name": "farmFactory",
      "outputs": [
        {
          "internalType": "contract IUnoFarmFactory",
          "name": "",
          "type": "address"
        }
      ],
      "stateMutability": "view",
      "type": "function"
    },
    {
      "inputs": [],
      "name": "paused",
      "outputs": [
        {
          "internalType": "bool",
          "name": "",
          "type": "bool"
        }
      ],
      "stateMutability": "view",
      "type": "function"
    },
    {
      "inputs": [],
      "name": "proxiableUUID",
      "outputs": [
        {
          "internalType": "bytes32",
          "name": "",
          "type": "bytes32"
        }
      ],
      "stateMutability": "view",
      "type": "function"
    },
    {
      "inputs": [
        {
          "internalType": "address",
          "name": "newImplementation",
          "type": "address"
        }
      ],
      "name": "upgradeTo",
      "outputs": [],
      "stateMutability": "nonpayable",
      "type": "function"
    },
    {
      "inputs": [
        {
          "internalType": "address",
          "name": "newImplementation",
          "type": "address"
        },
        {
          "internalType": "bytes",
          "name": "data",
          "type": "bytes"
        }
      ],
      "name": "upgradeToAndCall",
      "outputs": [],
      "stateMutability": "payable",
      "type": "function"
    },
    {
      "inputs": [
        {
          "internalType": "address",
          "name": "_accessManager",
          "type": "address"
        },
        {
          "internalType": "address",
          "name": "_farmFactory",
          "type": "address"
        }
      ],
      "name": "initialize",
      "outputs": [],
      "stateMutability": "nonpayable",
      "type": "function"
    },
    {
      "inputs": [
        {
          "internalType": "address",
          "name": "lpPool",
          "type": "address"
        },
        {
          "internalType": "uint256[]",
          "name": "amounts",
          "type": "uint256[]"
        },
        {
          "internalType": "address[]",
          "name": "tokens",
          "type": "address[]"
        },
        {
          "internalType": "uint256",
          "name": "minAmountLP",
          "type": "uint256"
        },
        {
          "internalType": "uint256",
          "name": "amountLP",
          "type": "uint256"
        },
        {
          "internalType": "address",
          "name": "recipient",
          "type": "address"
        }
      ],
      "name": "deposit",
      "outputs": [
        {
          "internalType": "uint256",
          "name": "liquidity",
          "type": "uint256"
        }
      ],
      "stateMutability": "nonpayable",
      "type": "function"
    },
    {
      "inputs": [
        {
          "internalType": "address",
          "name": "lpPool",
          "type": "address"
        },
        {
          "internalType": "uint256",
          "name": "amount",
          "type": "uint256"
        },
        {
          "internalType": "uint256[]",
          "name": "minAmountsOut",
          "type": "uint256[]"
        },
        {
          "internalType": "bool",
          "name": "withdrawLP",
          "type": "bool"
        },
        {
          "internalType": "address",
          "name": "recipient",
          "type": "address"
        }
      ],
      "name": "withdraw",
      "outputs": [],
      "stateMutability": "nonpayable",
      "type": "function"
    },
    {
      "inputs": [
        {
          "internalType": "address",
          "name": "lpPool",
          "type": "address"
        },
        {
          "components": [
            {
              "internalType": "bytes32",
              "name": "poolId",
              "type": "bytes32"
            },
            {
              "internalType": "uint256",
              "name": "assetInIndex",
              "type": "uint256"
            },
            {
              "internalType": "uint256",
              "name": "assetOutIndex",
              "type": "uint256"
            },
            {
              "internalType": "uint256",
              "name": "amount",
              "type": "uint256"
            },
            {
              "internalType": "bytes",
              "name": "userData",
              "type": "bytes"
            }
          ],
          "internalType": "struct IVault.BatchSwapStep[][]",
          "name": "swaps",
          "type": "tuple[][]"
        },
        {
          "internalType": "contract IAsset[][]",
          "name": "assets",
          "type": "address[][]"
        },
        {
          "internalType": "int256[][]",
          "name": "limits",
          "type": "int256[][]"
        }
      ],
      "name": "distribute",
      "outputs": [],
      "stateMutability": "nonpayable",
      "type": "function"
    },
    {
      "inputs": [
        {
          "internalType": "address",
          "name": "_address",
          "type": "address"
        },
        {
          "internalType": "address",
          "name": "lpPool",
          "type": "address"
        }
      ],
      "name": "userStake",
      "outputs": [
        {
          "internalType": "uint256",
          "name": "",
          "type": "uint256"
        }
      ],
      "stateMutability": "view",
      "type": "function"
    },
    {
      "inputs": [
        {
          "internalType": "address",
          "name": "lpPool",
          "type": "address"
        }
      ],
      "name": "totalDeposits",
      "outputs": [
        {
          "internalType": "uint256",
          "name": "",
          "type": "uint256"
        }
      ],
      "stateMutability": "view",
      "type": "function"
    },
    {
      "inputs": [
        {
          "internalType": "address",
          "name": "lpPool",
          "type": "address"
        }
      ],
      "name": "getTokens",
      "outputs": [
        {
          "internalType": "contract IERC20[]",
          "name": "tokens",
          "type": "address[]"
        }
      ],
      "stateMutability": "view",
      "type": "function"
    },
    {
      "inputs": [],
      "name": "pause",
      "outputs": [],
      "stateMutability": "nonpayable",
      "type": "function"
    },
    {
      "inputs": [],
      "name": "unpause",
      "outputs": [],
      "stateMutability": "nonpayable",
      "type": "function"
    }
  ],
  "bytecode": "0x60a06040523060805234801561001457600080fd5b5060805161295361004c600039600081816102e701528181610330015281816109bb015281816109fb0152610b8f01526129536000f3fe6080604052600436106100e85760003560e01c806352d1902d1161008a578063947b916011610059578063947b91601461025c57806398343fd01461027c578063e94032561461029c578063fdcb6068146102bc57600080fd5b806352d1902d146101d75780635c975abb146101ec5780636d25e1751461020f5780638456cb591461024757600080fd5b8063450efe21116100c6578063450efe2114610157578063485cc955146101845780634f1ef286146101a457806351bdca3e146101b757600080fd5b80633659cfe6146100ed5780633cffb2661461010f5780633f4ba83a14610142575b600080fd5b3480156100f957600080fd5b5061010d610108366004611abb565b6102dc565b005b34801561011b57600080fd5b5061012f61012a366004611bdd565b6103c5565b6040519081526020015b60405180910390f35b34801561014e57600080fd5b5061010d6106a6565b34801561016357600080fd5b50610177610172366004611abb565b610782565b6040516101399190611ccc565b34801561019057600080fd5b5061010d61019f366004611d19565b61086d565b61010d6101b2366004611dc1565b6109b0565b3480156101c357600080fd5b5061012f6101d2366004611d19565b610a81565b3480156101e357600080fd5b5061012f610b82565b3480156101f857600080fd5b5060335460ff166040519015158152602001610139565b34801561021b57600080fd5b5060c95461022f906001600160a01b031681565b6040516001600160a01b039091168152602001610139565b34801561025357600080fd5b5061010d610c35565b34801561026857600080fd5b5061010d610277366004611e29565b610d0f565b34801561028857600080fd5b5061010d61029736600461208d565b610e98565b3480156102a857600080fd5b5061012f6102b7366004611abb565b6110f3565b3480156102c857600080fd5b5060ca5461022f906001600160a01b031681565b306001600160a01b037f000000000000000000000000000000000000000000000000000000000000000016141561032e5760405162461bcd60e51b8152600401610325906122be565b60405180910390fd5b7f00000000000000000000000000000000000000000000000000000000000000006001600160a01b03166103776000805160206128d7833981519152546001600160a01b031690565b6001600160a01b03161461039d5760405162461bcd60e51b81526004016103259061230a565b6103a6816111e8565b604080516000808252602082019092526103c291839190611303565b50565b60006103cf61146e565b845186511461042c5760405162461bcd60e51b8152602060048201526024808201527f414d4f554e54535f414e445f544f4b454e535f4c454e475448535f4e4f545f4d604482015263082a886960e31b6064820152608401610325565b60c95460405163f9d9331d60e01b81526001600160a01b038981166004830152600092169063f9d9331d90602401602060405180830381865afa158015610477573d6000803e3d6000fd5b505050506040513d601f19601f8201168201806040525081019061049b9190612356565b90506001600160a01b03811661051d5760c954604051621849e360e61b81526001600160a01b038a811660048301529091169063061278c0906024016020604051808303816000875af11580156104f6573d6000803e3d6000fd5b505050506040513d601f19601f8201168201806040525081019061051a9190612356565b90505b60005b86518110156105af57600088828151811061053d5761053d612373565b6020026020010151111561059d5761059d33838a848151811061056257610562612373565b60200260200101518a858151811061057c5761057c612373565b60200260200101516001600160a01b03166114b4909392919063ffffffff16565b806105a781612389565b915050610520565b5083156105cb576105cb6001600160a01b0389163383876114b4565b604051632272658560e11b81526001600160a01b038216906344e4cb0a906105ff908a908a908a908a908a906004016123b2565b6020604051808303816000875af115801561061e573d6000803e3d6000fd5b505050506040513d601f19601f82011682018060405250810190610642919061245c565b9150826001600160a01b0316336001600160a01b0316896001600160a01b03167f7cfff908a4b583f36430b25d75964c458d8ede8a99bd61be750e97ee1b2f3a968560405161069391815260200190565b60405180910390a4509695505050505050565b60ca54604051632474521560e21b81527f65d7a28e3265b37a6474929f336521b332c1681b933f6cb9f3376673440d862a60048201523360248201526001600160a01b03909116906391d1485490604401602060405180830381865afa158015610714573d6000803e3d6000fd5b505050506040513d601f19601f820116820180604052508101906107389190612475565b6107785760405162461bcd60e51b815260206004820152601160248201527021a0a62622a92fa727aa2fa820aaa9a2a960791b6044820152606401610325565b610780611514565b565b60606000826001600160a01b03166338fff2d06040518163ffffffff1660e01b8152600401602060405180830381865afa1580156107c4573d6000803e3d6000fd5b505050506040513d601f19601f820116820180604052508101906107e8919061245c565b604051631f29a8cd60e31b81526004810182905290915073ba12222222228d8ba445958a75a0704d566bf2c89063f94d466890602401600060405180830381865afa15801561083b573d6000803e3d6000fd5b505050506040513d6000823e601f3d908101601f1916820160405261086391908101906124ed565b5090949350505050565b600054610100900460ff161580801561088d5750600054600160ff909116105b806108a75750303b1580156108a7575060005460ff166001145b61090a5760405162461bcd60e51b815260206004820152602e60248201527f496e697469616c697a61626c653a20636f6e747261637420697320616c72656160448201526d191e481a5b9a5d1a585b1a5e995960921b6064820152608401610325565b6000805460ff19166001179055801561092d576000805461ff0019166101001790555b610935611566565b60ca80546001600160a01b038086166001600160a01b03199283161790925560c980549285169290911691909117905580156109ab576000805461ff0019169055604051600181527f7f26b83ff96e1f2b6a682f133852f6798a09c465da95921460cefb38474024989060200160405180910390a15b505050565b306001600160a01b037f00000000000000000000000000000000000000000000000000000000000000001614156109f95760405162461bcd60e51b8152600401610325906122be565b7f00000000000000000000000000000000000000000000000000000000000000006001600160a01b0316610a426000805160206128d7833981519152546001600160a01b031690565b6001600160a01b031614610a685760405162461bcd60e51b81526004016103259061230a565b610a71826111e8565b610a7d82826001611303565b5050565b60c95460405163f9d9331d60e01b81526001600160a01b038381166004830152600092839291169063f9d9331d90602401602060405180830381865afa158015610acf573d6000803e3d6000fd5b505050506040513d601f19601f82011682018060405250810190610af39190612356565b90506001600160a01b03811615610b7657604051630103c92b60e01b81526001600160a01b038581166004830152821690630103c92b90602401602060405180830381865afa158015610b4a573d6000803e3d6000fd5b505050506040513d601f19601f82011682018060405250810190610b6e919061245c565b915050610b7c565b60009150505b92915050565b6000306001600160a01b037f00000000000000000000000000000000000000000000000000000000000000001614610c225760405162461bcd60e51b815260206004820152603860248201527f555550535570677261646561626c653a206d757374206e6f742062652063616c60448201527f6c6564207468726f7567682064656c656761746563616c6c00000000000000006064820152608401610325565b506000805160206128d783398151915290565b60ca54604051632474521560e21b81527f65d7a28e3265b37a6474929f336521b332c1681b933f6cb9f3376673440d862a60048201523360248201526001600160a01b03909116906391d1485490604401602060405180830381865afa158015610ca3573d6000803e3d6000fd5b505050506040513d601f19601f82011682018060405250810190610cc79190612475565b610d075760405162461bcd60e51b815260206004820152601160248201527021a0a62622a92fa727aa2fa820aaa9a2a960791b6044820152606401610325565b610780611595565b610d1761146e565b60c95460405163f9d9331d60e01b81526001600160a01b038881166004830152600092169063f9d9331d90602401602060405180830381865afa158015610d62573d6000803e3d6000fd5b505050506040513d601f19601f82011682018060405250810190610d869190612356565b90506001600160a01b038116610dd05760405162461bcd60e51b815260206004820152600f60248201526e4641524d5f4e4f545f45584953545360881b6044820152606401610325565b604051631f9e746960e11b81526001600160a01b03821690633f3ce8d290610e0690899089908990899033908a906004016125ba565b600060405180830381600087803b158015610e2057600080fd5b505af1158015610e34573d6000803e3d6000fd5b50505050816001600160a01b0316336001600160a01b0316886001600160a01b03167f3115d1449a7b732c986cba18244e897a450f61e1bb8d589cd2e69e6c8924f9f789604051610e8791815260200190565b60405180910390a450505050505050565b610ea061146e565b60ca54604051632474521560e21b81527ffbd454f36a7e1a388bd6fc3ab10d434aa4578f811acbbcf33afb1c697486313c60048201523360248201526001600160a01b03909116906391d1485490604401602060405180830381865afa158015610f0e573d6000803e3d6000fd5b505050506040513d601f19601f82011682018060405250810190610f329190612475565b610f775760405162461bcd60e51b815260206004820152601660248201527521a0a62622a92fa727aa2fa224a9aa2924a12aaa27a960511b6044820152606401610325565b60c95460405163f9d9331d60e01b81526001600160a01b038681166004830152600092169063f9d9331d90602401602060405180830381865afa158015610fc2573d6000803e3d6000fd5b505050506040513d601f19601f82011682018060405250810190610fe69190612356565b90506001600160a01b0381166110305760405162461bcd60e51b815260206004820152600f60248201526e4641524d5f4e4f545f45584953545360881b6044820152606401610325565b60405163bedfe76f60e01b81526000906001600160a01b0383169063bedfe76f906110639088908890889060040161276a565b6020604051808303816000875af1158015611082573d6000803e3d6000fd5b505050506040513d601f19601f820116820180604052508101906110a6919061245c565b9050856001600160a01b03167fc1d32ad5cca423e7dda2123dbf8c482f8e77d00b631c06e903a47f2cec1334df826040516110e391815260200190565b60405180910390a2505050505050565b60c95460405163f9d9331d60e01b81526001600160a01b038381166004830152600092839291169063f9d9331d90602401602060405180830381865afa158015611141573d6000803e3d6000fd5b505050506040513d601f19601f820116820180604052508101906111659190612356565b90506001600160a01b038116156111df57806001600160a01b031663168a48226040518163ffffffff1660e01b8152600401602060405180830381865afa1580156111b4573d6000803e3d6000fd5b505050506040513d601f19601f820116820180604052508101906111d8919061245c565b9392505050565b50600092915050565b60ca5460408051631d6c8e3f60e21b815290516001600160a01b03909216916391d148549183916375b238fc916004808201926020929091908290030181865afa15801561123a573d6000803e3d6000fd5b505050506040513d601f19601f8201168201806040525081019061125e919061245c565b6040516001600160e01b031960e084901b1681526004810191909152336024820152604401602060405180830381865afa1580156112a0573d6000803e3d6000fd5b505050506040513d601f19601f820116820180604052508101906112c49190612475565b6103c25760405162461bcd60e51b815260206004820152601060248201526f21a0a62622a92fa727aa2fa0a226a4a760811b6044820152606401610325565b7f4910fdfa16fed3260ed0e7147f7cc6da11a60208b5b9406d12a635614ffd91435460ff1615611336576109ab836115d2565b826001600160a01b03166352d1902d6040518163ffffffff1660e01b8152600401602060405180830381865afa925050508015611390575060408051601f3d908101601f1916820190925261138d9181019061245c565b60015b6113f35760405162461bcd60e51b815260206004820152602e60248201527f45524331393637557067726164653a206e657720696d706c656d656e7461746960448201526d6f6e206973206e6f74205555505360901b6064820152608401610325565b6000805160206128d783398151915281146114625760405162461bcd60e51b815260206004820152602960248201527f45524331393637557067726164653a20756e737570706f727465642070726f786044820152681a58589b195555525160ba1b6064820152608401610325565b506109ab83838361166e565b60335460ff16156107805760405162461bcd60e51b815260206004820152601060248201526f14185d5cd8589b194e881c185d5cd95960821b6044820152606401610325565b604080516001600160a01b0385811660248301528416604482015260648082018490528251808303909101815260849091019091526020810180516001600160e01b03166323b872dd60e01b17905261150e908590611693565b50505050565b61151c611765565b6033805460ff191690557f5db9ee0a495bf2e6ff9c91a7834c1ba4fdd244a5e8aa4e537bd38aeae4b073aa335b6040516001600160a01b03909116815260200160405180910390a1565b600054610100900460ff1661158d5760405162461bcd60e51b81526004016103259061285c565b6107806117ae565b61159d61146e565b6033805460ff191660011790557f62e78cea01bee320cd4e420270b5ea74000d11b0c9f74754ebdbfc544b05a2586115493390565b6001600160a01b0381163b61163f5760405162461bcd60e51b815260206004820152602d60248201527f455243313936373a206e657720696d706c656d656e746174696f6e206973206e60448201526c1bdd08184818dbdb9d1c9858dd609a1b6064820152608401610325565b6000805160206128d783398151915280546001600160a01b0319166001600160a01b0392909216919091179055565b611677836117e1565b6000825111806116845750805b156109ab5761150e8383611821565b60006116e8826040518060400160405280602081526020017f5361666545524332303a206c6f772d6c6576656c2063616c6c206661696c6564815250856001600160a01b03166119159092919063ffffffff16565b8051909150156109ab57808060200190518101906117069190612475565b6109ab5760405162461bcd60e51b815260206004820152602a60248201527f5361666545524332303a204552433230206f7065726174696f6e20646964206e6044820152691bdd081cdd58d8d9595960b21b6064820152608401610325565b60335460ff166107805760405162461bcd60e51b815260206004820152601460248201527314185d5cd8589b194e881b9bdd081c185d5cd95960621b6044820152606401610325565b600054610100900460ff166117d55760405162461bcd60e51b81526004016103259061285c565b6033805460ff19169055565b6117ea816115d2565b6040516001600160a01b038216907fbc7cd75a20ee27fd9adebab32041f755214dbc6bffa90cc0225b39da2e5c2d3b90600090a250565b60606001600160a01b0383163b6118895760405162461bcd60e51b815260206004820152602660248201527f416464726573733a2064656c65676174652063616c6c20746f206e6f6e2d636f6044820152651b9d1c9858dd60d21b6064820152608401610325565b600080846001600160a01b0316846040516118a491906128a7565b600060405180830381855af49150503d80600081146118df576040519150601f19603f3d011682016040523d82523d6000602084013e6118e4565b606091505b509150915061190c82826040518060600160405280602781526020016128f76027913961192c565b95945050505050565b60606119248484600085611965565b949350505050565b6060831561193b5750816111d8565b82511561194b5782518084602001fd5b8160405162461bcd60e51b815260040161032591906128c3565b6060824710156119c65760405162461bcd60e51b815260206004820152602660248201527f416464726573733a20696e73756666696369656e742062616c616e636520666f6044820152651c8818d85b1b60d21b6064820152608401610325565b6001600160a01b0385163b611a1d5760405162461bcd60e51b815260206004820152601d60248201527f416464726573733a2063616c6c20746f206e6f6e2d636f6e74726163740000006044820152606401610325565b600080866001600160a01b03168587604051611a3991906128a7565b60006040518083038185875af1925050503d8060008114611a76576040519150601f19603f3d011682016040523d82523d6000602084013e611a7b565b606091505b5091509150611a8b82828661192c565b979650505050505050565b6001600160a01b03811681146103c257600080fd5b8035611ab681611a96565b919050565b600060208284031215611acd57600080fd5b81356111d881611a96565b634e487b7160e01b600052604160045260246000fd5b60405160a081016001600160401b0381118282101715611b1057611b10611ad8565b60405290565b604051601f8201601f191681016001600160401b0381118282101715611b3e57611b3e611ad8565b604052919050565b60006001600160401b03821115611b5f57611b5f611ad8565b5060051b60200190565b600082601f830112611b7a57600080fd5b81356020611b8f611b8a83611b46565b611b16565b82815260059290921b84018101918181019086841115611bae57600080fd5b8286015b84811015611bd2578035611bc581611a96565b8352918301918301611bb2565b509695505050505050565b60008060008060008060c08789031215611bf657600080fd5b8635611c0181611a96565b95506020878101356001600160401b0380821115611c1e57600080fd5b818a0191508a601f830112611c3257600080fd5b8135611c40611b8a82611b46565b81815260059190911b8301840190848101908d831115611c5f57600080fd5b938501935b82851015611c7d57843582529385019390850190611c64565b9950505060408a0135925080831115611c9557600080fd5b5050611ca389828a01611b69565b9450506060870135925060808701359150611cc060a08801611aab565b90509295509295509295565b6020808252825182820181905260009190848201906040850190845b81811015611d0d5783516001600160a01b031683529284019291840191600101611ce8565b50909695505050505050565b60008060408385031215611d2c57600080fd5b8235611d3781611a96565b91506020830135611d4781611a96565b809150509250929050565b600082601f830112611d6357600080fd5b81356001600160401b03811115611d7c57611d7c611ad8565b611d8f601f8201601f1916602001611b16565b818152846020838601011115611da457600080fd5b816020850160208301376000918101602001919091529392505050565b60008060408385031215611dd457600080fd5b8235611ddf81611a96565b915060208301356001600160401b03811115611dfa57600080fd5b611e0685828601611d52565b9150509250929050565b80151581146103c257600080fd5b8035611ab681611e10565b60008060008060008060a08789031215611e4257600080fd5b8635611e4d81611a96565b95506020870135945060408701356001600160401b0380821115611e7057600080fd5b818901915089601f830112611e8457600080fd5b813581811115611e9357600080fd5b8a60208260051b8501011115611ea857600080fd5b602083019650809550505050611ec060608801611e1e565b9150611cc060808801611aab565b600082601f830112611edf57600080fd5b81356020611eef611b8a83611b46565b828152600592831b8501820192828201919087851115611f0e57600080fd5b8387015b85811015611fad5780356001600160401b03811115611f315760008081fd5b8801603f81018a13611f435760008081fd5b858101356040611f55611b8a83611b46565b82815291851b8301810191888101908d841115611f725760008081fd5b938201935b83851015611f9c5784359250611f8c83611a96565b8282529389019390890190611f77565b885250505093850193508401611f12565b5090979650505050505050565b600082601f830112611fcb57600080fd5b81356020611fdb611b8a83611b46565b828152600592831b8501820192828201919087851115611ffa57600080fd5b8387015b85811015611fad5780356001600160401b0381111561201d5760008081fd5b8801603f81018a1361202f5760008081fd5b858101356040612041611b8a83611b46565b82815291851b8301810191888101908d84111561205e5760008081fd5b938201935b8385101561207c57843582529389019390890190612063565b885250505093850193508401611ffe565b600080600080608085870312156120a357600080fd5b6120ad8535611a96565b843593506001600160401b03602086013511156120c957600080fd5b6020850135850186601f8201126120df57600080fd5b6120ec611b8a8235611b46565b81358082526020808301929160051b84010189101561210a57600080fd5b602083015b6020843560051b85010181101561225c576001600160401b038135111561213557600080fd5b89603f82358601011261214757600080fd5b61215a611b8a6020833587010135611b46565b81358501602081810135808452908301929160059190911b016040018c101561218257600080fd5b604083358701015b83358701602081013560051b0160400181101561224c576001600160401b03813511156121b657600080fd5b60a0843588018235018e03603f190112156121d057600080fd5b6121d8611aee565b843588018235016040818101358352606080830135602085015260808301359184019190915260a0820135908301526001600160401b0360c090910135111561222057600080fd5b6122398e86358a0184350160c081013501604001611d52565b608082015283526020928301920161218a565b508452506020928301920161210f565b50945050506001600160401b036040860135111561227957600080fd5b6122898660408701358701611ece565b91506001600160401b03606086013511156122a357600080fd5b6122b38660608701358701611fba565b905092959194509250565b6020808252602c908201527f46756e6374696f6e206d7573742062652063616c6c6564207468726f7567682060408201526b19195b1959d85d1958d85b1b60a21b606082015260800190565b6020808252602c908201527f46756e6374696f6e206d7573742062652063616c6c6564207468726f7567682060408201526b6163746976652070726f787960a01b606082015260800190565b60006020828403121561236857600080fd5b81516111d881611a96565b634e487b7160e01b600052603260045260246000fd5b60006000198214156123ab57634e487b7160e01b600052601160045260246000fd5b5060010190565b60a0808252865190820181905260009060209060c0840190828a01845b828110156123eb578151845292840192908401906001016123cf565b5050508381038285015287518082528883019183019060005b818110156124295783516001600160a01b031683529284019291840191600101612404565b505080935050505084604083015283606083015261245260808301846001600160a01b03169052565b9695505050505050565b60006020828403121561246e57600080fd5b5051919050565b60006020828403121561248757600080fd5b81516111d881611e10565b600082601f8301126124a357600080fd5b815160206124b3611b8a83611b46565b82815260059290921b840181019181810190868411156124d257600080fd5b8286015b84811015611bd257805183529183019183016124d6565b60008060006060848603121561250257600080fd5b83516001600160401b038082111561251957600080fd5b818601915086601f83011261252d57600080fd5b8151602061253d611b8a83611b46565b82815260059290921b8401810191818101908a84111561255c57600080fd5b948201945b8386101561258357855161257481611a96565b82529482019490820190612561565b9189015191975090935050508082111561259c57600080fd5b506125a986828701612492565b925050604084015190509250925092565b86815260a060208201819052810185905260006001600160fb1b038611156125e157600080fd5b8560051b808860c0850137600090830160c0019081529415156040830152506001600160a01b03928316606082015291166080909101529392505050565b60005b8381101561263a578181015183820152602001612622565b8381111561150e5750506000910152565b6000815180845261266381602086016020860161261f565b601f01601f19169290920160200192915050565b600081518084526020808501808196508360051b810191508286016000805b868110156126ee578385038a52825180518087529087019087870190845b818110156126d95783516001600160a01b0316835292890192918901916001016126b4565b50509a87019a95505091850191600101612696565b509298975050505050505050565b600081518084526020808501808196508360051b810191508286016000805b868110156126ee578385038a52825180518087529087019087870190845b8181101561275557835183529289019291890191600101612739565b50509a87019a9550509185019160010161271b565b60006060808301818452808751808352608092508286019150828160051b8701016020808b0160005b8481101561283157898403607f19018652815180518086529084019084860190600581901b8701860160005b8281101561281b57888203601f190184528451805183528881015189840152604080820151908401528d8101518e8401528c015160a08d84018190526128078185018361264b565b968a0196958a0195935050506001016127bf565b5098860198965050509183019150600101612793565b505087820390880152612844818a612677565b945050505050828103604084015261245281856126fc565b6020808252602b908201527f496e697469616c697a61626c653a20636f6e7472616374206973206e6f74206960408201526a6e697469616c697a696e6760a81b606082015260800190565b600082516128b981846020870161261f565b9190910192915050565b6020815260006111d8602083018461264b56fe360894a13ba1a3210667c828492db98dca3e2076cc3735a920a3ca505d382bbc416464726573733a206c6f772d6c6576656c2064656c65676174652063616c6c206661696c6564a2646970667358221220cb4eae441291f69a0ec32d7820998f13642bc8dee2b25b950d2411709ee5e62364736f6c634300080a0033",
  "immutableReferences": {
    "570": [
      {
        "length": 32,
        "start": 743
      },
      {
        "length": 32,
        "start": 816
      },
      {
        "length": 32,
        "start": 2491
      },
      {
        "length": 32,
        "start": 2555
      },
      {
        "length": 32,
        "start": 2959
      }
    ]
  },
  "source": "// SPDX-License-Identifier: MIT\r\npragma solidity 0.8.10;\r\n\r\nimport {IUnoFarmBalancer as Farm} from './interfaces/IUnoFarmBalancer.sol'; \r\nimport '../../interfaces/IUnoFarmFactory.sol';\r\nimport '../../interfaces/IUnoAccessManager.sol'; \r\nimport '../../interfaces/IVault.sol'; \r\nimport \"../../interfaces/IBasePool.sol\";\r\nimport '@openzeppelin/contracts-upgradeable/token/ERC20/IERC20Upgradeable.sol';\r\nimport '@openzeppelin/contracts-upgradeable/token/ERC20/utils/SafeERC20Upgradeable.sol';\r\nimport '@openzeppelin/contracts-upgradeable/proxy/utils/Initializable.sol';\r\nimport '@openzeppelin/contracts-upgradeable/security/PausableUpgradeable.sol';\r\nimport '@openzeppelin/contracts-upgradeable/proxy/utils/UUPSUpgradeable.sol';\r\n\r\ncontract UnoAssetRouterBalancer is Initializable, PausableUpgradeable, UUPSUpgradeable {\r\n    using SafeERC20Upgradeable for IERC20Upgradeable;\r\n\r\n    /**\r\n     * @dev Contract Variables:\r\n     * farmFactory - The contract that deploys new Farms and links them to {lpPool}s.\r\n     * accessManager - Role manager contract.\r\n     */\r\n    IUnoFarmFactory public farmFactory;\r\n    IUnoAccessManager public accessManager;\r\n    bytes32 private constant DISTRIBUTOR_ROLE = keccak256('DISTRIBUTOR_ROLE');\r\n    bytes32 private constant PAUSER_ROLE = keccak256('PAUSER_ROLE');\r\n    IVault constant private Vault = IVault(0xBA12222222228d8Ba445958a75a0704d566BF2C8);\r\n\r\n    event Deposit(address indexed lpPool, address indexed sender, address indexed recipient, uint256 amount);\r\n    event Withdraw(address indexed lpPool, address indexed sender, address indexed recipient, uint256 amount);\r\n    event Distribute(address indexed lpPool, uint256 reward);\r\n\r\n    modifier onlyDistributor(){\r\n        require(accessManager.hasRole(DISTRIBUTOR_ROLE, msg.sender), 'CALLER_NOT_DISTRIBUTOR');\r\n        _;\r\n    }\r\n    modifier onlyPauser(){\r\n        require(accessManager.hasRole(PAUSER_ROLE, msg.sender), 'CALLER_NOT_PAUSER');\r\n        _;\r\n    }\r\n    modifier onlyAdmin(){\r\n        require(accessManager.hasRole(accessManager.ADMIN_ROLE(), msg.sender), 'CALLER_NOT_ADMIN');\r\n        _;\r\n    }\r\n\r\n    // ============ Methods ============\r\n\r\n    function initialize(address _accessManager, address _farmFactory) external initializer{\r\n        __Pausable_init();\r\n        accessManager = IUnoAccessManager(_accessManager);\r\n        farmFactory = IUnoFarmFactory(_farmFactory);\r\n    }\r\n\r\n    /**\r\n     * @dev Deposits tokens in the given pool. Creates new Farm contract if there isn't one deployed for the {lpPool} and deposits tokens in it.\r\n     * @param lpPool - Address of the pool to deposit tokens in.\r\n     * @param amounts - Amounts of tokens to deposit.\r\n     * @param tokens - Tokens to deposit.\r\n     * @param minAmountLP - Minimum LP the user will receive from {{tokens}} deposit.\r\n     * @param amountLP - Additional amount of LP tokens to deposit.\r\n     * @param recipient - Address which will recieve the deposit.\r\n\r\n     * @return liquidity - Total liquidity sent to the farm (in lpTokens).\r\n     */\r\n    function deposit(address lpPool, uint256[] memory amounts, address[] memory tokens, uint256 minAmountLP, uint256 amountLP, address recipient) external whenNotPaused returns(uint256 liquidity){\r\n        require (amounts.length == tokens.length, 'AMOUNTS_AND_TOKENS_LENGTHS_NOT_MATCH');\r\n\r\n        Farm farm = Farm(farmFactory.Farms(lpPool));\r\n        if(farm == Farm(address(0))){\r\n            farm = Farm(farmFactory.createFarm(lpPool));\r\n        }\r\n\r\n        for (uint256 i = 0; i < tokens.length; i++) {\r\n            if(amounts[i] > 0){\r\n                IERC20Upgradeable(tokens[i]).safeTransferFrom(msg.sender, address(farm), amounts[i]);\r\n            }\r\n        }\r\n        if(amountLP > 0){\r\n            IERC20Upgradeable(lpPool).safeTransferFrom(msg.sender, address(farm), amountLP);\r\n        }\r\n        \r\n        liquidity = farm.deposit(amounts, tokens, minAmountLP, amountLP, recipient);\r\n        emit Deposit(lpPool, msg.sender, recipient, liquidity); \r\n    }\r\n\r\n    /** \r\n     * @dev Withdraws tokens from the given pool. \r\n     * @param lpPool - LP pool to withdraw from.\r\n     * @param amount - LP amount to withdraw. \r\n     * @param minAmountsOut - Minimum token amounts the user will recieve.\r\n     * @param withdrawLP - True: Withdraw in LP tokens, False: Withdraw in normal tokens.\r\n     * @param recipient - The address which will recieve tokens.\r\n     */ \r\n    function withdraw(address lpPool, uint256 amount, uint256[] calldata minAmountsOut, bool withdrawLP, address recipient) external whenNotPaused { \r\n        Farm farm = Farm(farmFactory.Farms(lpPool));\r\n        require(farm != Farm(address(0)),'FARM_NOT_EXISTS');\r\n        \r\n        farm.withdraw(amount, minAmountsOut, withdrawLP, msg.sender, recipient); \r\n        emit Withdraw(lpPool, msg.sender, recipient, amount);  \r\n    }\r\n\r\n    /**\r\n     * @dev Distributes tokens between users for a single {Farms[lpPool]}.\r\n     * @param lpPool - The pool to distribute. \r\n     * @param swaps - The data used to swap reward tokens for the needed tokens.\r\n     * @param assets - The data used to swap reward tokens for the needed tokens.\r\n     * @param limits - The data used to swap reward tokens for the needed tokens.\r\n     *\r\n     * Note: This function can only be called by the distributor.\r\n     */\r\n    function distribute(\r\n        address lpPool,\r\n        IVault.BatchSwapStep[][] memory swaps,\r\n        IAsset[][] memory assets,\r\n        int256[][] memory limits\r\n    ) external whenNotPaused onlyDistributor {\r\n        Farm farm = Farm(farmFactory.Farms(lpPool));\r\n        require(farm != Farm(address(0)), 'FARM_NOT_EXISTS');\r\n\r\n        uint256 reward = farm.distribute(swaps, assets, limits);\r\n        emit Distribute(lpPool, reward);\r\n    }\r\n\r\n    /**\r\n     * @dev Returns LP tokens staked by the {_address} for the given {lpPool}.\r\n     * @param _address - The address to check stakes for.\r\n     * @param lpPool - LP pool to check stakes in.\r\n\r\n     * @return Total user stake(in LP tokens).\r\n     */\r\n   function userStake(address _address, address lpPool) external view returns(uint256){\r\n        Farm farm = Farm(farmFactory.Farms(lpPool));\r\n        if (farm != Farm(address(0))) {\r\n            return farm.userBalance(_address);\r\n        }\r\n        return 0;\r\n    }\r\n\r\n    /**\r\n     * @dev Returns total amount locked in the pool. Doesn't take pending rewards into account.\r\n     * @param lpPool - LP pool to check total deposits in.\r\n\r\n     * @return Total deposits (in LP tokens).\r\n     */\r\n    function totalDeposits(address lpPool) external view returns (uint256) {\r\n        Farm farm = Farm(farmFactory.Farms(lpPool));\r\n        if (farm != Farm(address(0))) {\r\n            return farm.getTotalDeposits();\r\n        }\r\n        return 0;\r\n    }\r\n\r\n    /**\r\n     * @dev Returns addresses of tokens in {lpPool}.\r\n     * @param lpPool - LP pool to check tokens in.\r\n\r\n     * @return tokens - Token address.\r\n     */  \r\n    function getTokens(address lpPool) external view returns(IERC20[] memory tokens){\r\n        bytes32 poolId = IBasePool(lpPool).getPoolId();\r\n        (tokens, , ) = Vault.getPoolTokens(poolId);\r\n    }\r\n \r\n    function pause() external onlyPauser {\r\n        _pause();\r\n    }\r\n \r\n    function unpause() external onlyPauser {\r\n        _unpause();\r\n    }\r\n\r\n    function _authorizeUpgrade(address) internal override onlyAdmin {\r\n\r\n    }\r\n}\r\n",
  "sourcePath": "C:\\Users\\jugli\\Desktop\\uno\\uno-contracts\\contracts\\apps\\balancer\\UnoAssetRouterBalancer.sol",
  "compiler": {
    "name": "solc",
    "version": "0.8.10+commit.fc410830.Emscripten.clang"
  },
  "schemaVersion": "3.4.7",
  "updatedAt": "2022-07-25T12:58:05.677Z",
  "devdoc": {
    "kind": "dev",
    "methods": {
      "deposit(address,uint256[],address[],uint256,uint256,address)": {
        "details": "Deposits tokens in the given pool. Creates new Farm contract if there isn't one deployed for the {lpPool} and deposits tokens in it.",
        "params": {
          "amountLP": "- Additional amount of LP tokens to deposit.",
          "amounts": "- Amounts of tokens to deposit.",
          "lpPool": "- Address of the pool to deposit tokens in.",
          "minAmountLP": "- Minimum LP the user will receive from {{tokens}} deposit.",
          "recipient": "- Address which will recieve the deposit.",
          "tokens": "- Tokens to deposit."
        },
        "returns": {
          "liquidity": "- Total liquidity sent to the farm (in lpTokens)."
        }
      },
      "distribute(address,(bytes32,uint256,uint256,uint256,bytes)[][],address[][],int256[][])": {
        "details": "Distributes tokens between users for a single {Farms[lpPool]}.",
        "params": {
          "assets": "- The data used to swap reward tokens for the needed tokens.",
          "limits": "- The data used to swap reward tokens for the needed tokens. Note: This function can only be called by the distributor.",
          "lpPool": "- The pool to distribute. ",
          "swaps": "- The data used to swap reward tokens for the needed tokens."
        }
      },
      "getTokens(address)": {
        "details": "Returns addresses of tokens in {lpPool}.",
        "params": {
          "lpPool": "- LP pool to check tokens in."
        },
        "returns": {
          "tokens": "- Token address."
        }
      },
      "paused()": {
        "details": "Returns true if the contract is paused, and false otherwise."
      },
      "proxiableUUID()": {
        "details": "Implementation of the ERC1822 {proxiableUUID} function. This returns the storage slot used by the implementation. It is used to validate that the this implementation remains valid after an upgrade. IMPORTANT: A proxy pointing at a proxiable contract should not be considered proxiable itself, because this risks bricking a proxy that upgrades to it, by delegating to itself until out of gas. Thus it is critical that this function revert if invoked through a proxy. This is guaranteed by the `notDelegated` modifier."
      },
      "totalDeposits(address)": {
        "details": "Returns total amount locked in the pool. Doesn't take pending rewards into account.",
        "params": {
          "lpPool": "- LP pool to check total deposits in."
        },
        "returns": {
          "_0": "Total deposits (in LP tokens)."
        }
      },
      "upgradeTo(address)": {
        "details": "Upgrade the implementation of the proxy to `newImplementation`. Calls {_authorizeUpgrade}. Emits an {Upgraded} event."
      },
      "upgradeToAndCall(address,bytes)": {
        "details": "Upgrade the implementation of the proxy to `newImplementation`, and subsequently execute the function call encoded in `data`. Calls {_authorizeUpgrade}. Emits an {Upgraded} event."
      },
      "userStake(address,address)": {
        "details": "Returns LP tokens staked by the {_address} for the given {lpPool}.",
        "params": {
          "_address": "- The address to check stakes for.",
          "lpPool": "- LP pool to check stakes in."
        },
        "returns": {
          "_0": "Total user stake(in LP tokens)."
        }
      },
      "withdraw(address,uint256,uint256[],bool,address)": {
        "details": "Withdraws tokens from the given pool. ",
        "params": {
          "amount": "- LP amount to withdraw. ",
          "lpPool": "- LP pool to withdraw from.",
          "minAmountsOut": "- Minimum token amounts the user will recieve.",
          "recipient": "- The address which will recieve tokens.",
          "withdrawLP": "- True: Withdraw in LP tokens, False: Withdraw in normal tokens."
        }
      }
    },
    "stateVariables": {
      "farmFactory": {
        "details": "Contract Variables: farmFactory - The contract that deploys new Farms and links them to {lpPool}s. accessManager - Role manager contract."
      }
    },
    "version": 1
  },
  "userdoc": {
    "kind": "user",
    "methods": {},
    "version": 1
  }
}