{
  "contractName": "UnoAssetRouterQuickswapDualV2",
  "abi": [
    {
      "inputs": [],
      "stateMutability": "nonpayable",
      "type": "constructor"
    },
    {
      "anonymous": false,
      "inputs": [
        {
          "indexed": false,
          "internalType": "address",
          "name": "previousAdmin",
          "type": "address"
        },
        {
          "indexed": false,
          "internalType": "address",
          "name": "newAdmin",
          "type": "address"
        }
      ],
      "name": "AdminChanged",
      "type": "event"
    },
    {
      "anonymous": false,
      "inputs": [
        {
          "indexed": true,
          "internalType": "address",
          "name": "beacon",
          "type": "address"
        }
      ],
      "name": "BeaconUpgraded",
      "type": "event"
    },
    {
      "anonymous": false,
      "inputs": [
        {
          "indexed": true,
          "internalType": "address",
          "name": "lpPool",
          "type": "address"
        },
        {
          "indexed": true,
          "internalType": "address",
          "name": "sender",
          "type": "address"
        },
        {
          "indexed": true,
          "internalType": "address",
          "name": "recipient",
          "type": "address"
        },
        {
          "indexed": false,
          "internalType": "uint256",
          "name": "amount",
          "type": "uint256"
        }
      ],
      "name": "Deposit",
      "type": "event"
    },
    {
      "anonymous": false,
      "inputs": [
        {
          "indexed": true,
          "internalType": "address",
          "name": "lpPool",
          "type": "address"
        },
        {
          "indexed": false,
          "internalType": "uint256",
          "name": "reward",
          "type": "uint256"
        }
      ],
      "name": "Distribute",
      "type": "event"
    },
    {
      "anonymous": false,
      "inputs": [
        {
          "indexed": false,
          "internalType": "uint256",
          "name": "previousFee",
          "type": "uint256"
        },
        {
          "indexed": false,
          "internalType": "uint256",
          "name": "newFee",
          "type": "uint256"
        }
      ],
      "name": "FeeChanged",
      "type": "event"
    },
    {
      "anonymous": false,
      "inputs": [
        {
          "indexed": false,
          "internalType": "uint8",
          "name": "version",
          "type": "uint8"
        }
      ],
      "name": "Initialized",
      "type": "event"
    },
    {
      "anonymous": false,
      "inputs": [
        {
          "indexed": false,
          "internalType": "address",
          "name": "account",
          "type": "address"
        }
      ],
      "name": "Paused",
      "type": "event"
    },
    {
      "anonymous": false,
      "inputs": [
        {
          "indexed": false,
          "internalType": "address",
          "name": "account",
          "type": "address"
        }
      ],
      "name": "Unpaused",
      "type": "event"
    },
    {
      "anonymous": false,
      "inputs": [
        {
          "indexed": true,
          "internalType": "address",
          "name": "implementation",
          "type": "address"
        }
      ],
      "name": "Upgraded",
      "type": "event"
    },
    {
      "anonymous": false,
      "inputs": [
        {
          "indexed": true,
          "internalType": "address",
          "name": "lpPool",
          "type": "address"
        },
        {
          "indexed": true,
          "internalType": "address",
          "name": "sender",
          "type": "address"
        },
        {
          "indexed": true,
          "internalType": "address",
          "name": "recipient",
          "type": "address"
        },
        {
          "indexed": false,
          "internalType": "uint256",
          "name": "amount",
          "type": "uint256"
        }
      ],
      "name": "Withdraw",
      "type": "event"
    },
    {
      "inputs": [],
      "name": "WMATIC",
      "outputs": [
        {
          "internalType": "address",
          "name": "",
          "type": "address"
        }
      ],
      "stateMutability": "view",
      "type": "function"
    },
    {
      "inputs": [],
      "name": "accessManager",
      "outputs": [
        {
          "internalType": "contract IUnoAccessManager",
          "name": "",
          "type": "address"
        }
      ],
      "stateMutability": "view",
      "type": "function"
    },
    {
      "inputs": [],
      "name": "farmFactory",
      "outputs": [
        {
          "internalType": "contract IUnoFarmFactory",
          "name": "",
          "type": "address"
        }
      ],
      "stateMutability": "view",
      "type": "function"
    },
    {
      "inputs": [],
      "name": "fee",
      "outputs": [
        {
          "internalType": "uint256",
          "name": "",
          "type": "uint256"
        }
      ],
      "stateMutability": "view",
      "type": "function"
    },
    {
      "inputs": [],
      "name": "paused",
      "outputs": [
        {
          "internalType": "bool",
          "name": "",
          "type": "bool"
        }
      ],
      "stateMutability": "view",
      "type": "function"
    },
    {
      "inputs": [],
      "name": "proxiableUUID",
      "outputs": [
        {
          "internalType": "bytes32",
          "name": "",
          "type": "bytes32"
        }
      ],
      "stateMutability": "view",
      "type": "function"
    },
    {
      "inputs": [
        {
          "internalType": "address",
          "name": "newImplementation",
          "type": "address"
        }
      ],
      "name": "upgradeTo",
      "outputs": [],
      "stateMutability": "nonpayable",
      "type": "function"
    },
    {
      "inputs": [
        {
          "internalType": "address",
          "name": "newImplementation",
          "type": "address"
        },
        {
          "internalType": "bytes",
          "name": "data",
          "type": "bytes"
        }
      ],
      "name": "upgradeToAndCall",
      "outputs": [],
      "stateMutability": "payable",
      "type": "function"
    },
    {
      "inputs": [],
      "name": "version",
      "outputs": [
        {
          "internalType": "uint256",
          "name": "",
          "type": "uint256"
        }
      ],
      "stateMutability": "view",
      "type": "function"
    },
    {
      "stateMutability": "payable",
      "type": "receive"
    },
    {
      "inputs": [
        {
          "internalType": "address",
          "name": "_accessManager",
          "type": "address"
        },
        {
          "internalType": "address",
          "name": "_farmFactory",
          "type": "address"
        }
      ],
      "name": "initialize",
      "outputs": [],
      "stateMutability": "nonpayable",
      "type": "function"
    },
    {
      "inputs": [
        {
          "internalType": "address",
          "name": "lpStakingPool",
          "type": "address"
        },
        {
          "internalType": "uint256",
          "name": "amountA",
          "type": "uint256"
        },
        {
          "internalType": "uint256",
          "name": "amountB",
          "type": "uint256"
        },
        {
          "internalType": "uint256",
          "name": "amountAMin",
          "type": "uint256"
        },
        {
          "internalType": "uint256",
          "name": "amountBMin",
          "type": "uint256"
        },
        {
          "internalType": "address",
          "name": "recipient",
          "type": "address"
        }
      ],
      "name": "deposit",
      "outputs": [
        {
          "internalType": "uint256",
          "name": "sentA",
          "type": "uint256"
        },
        {
          "internalType": "uint256",
          "name": "sentB",
          "type": "uint256"
        },
        {
          "internalType": "uint256",
          "name": "liquidity",
          "type": "uint256"
        }
      ],
      "stateMutability": "nonpayable",
      "type": "function"
    },
    {
      "inputs": [
        {
          "internalType": "address",
          "name": "lpStakingPool",
          "type": "address"
        },
        {
          "internalType": "uint256",
          "name": "amountToken",
          "type": "uint256"
        },
        {
          "internalType": "uint256",
          "name": "amountTokenMin",
          "type": "uint256"
        },
        {
          "internalType": "uint256",
          "name": "amountETHMin",
          "type": "uint256"
        },
        {
          "internalType": "address",
          "name": "recipient",
          "type": "address"
        }
      ],
      "name": "depositETH",
      "outputs": [
        {
          "internalType": "uint256",
          "name": "sentToken",
          "type": "uint256"
        },
        {
          "internalType": "uint256",
          "name": "sentETH",
          "type": "uint256"
        },
        {
          "internalType": "uint256",
          "name": "liquidity",
          "type": "uint256"
        }
      ],
      "stateMutability": "payable",
      "type": "function"
    },
    {
      "inputs": [
        {
          "internalType": "address",
          "name": "lpStakingPool",
          "type": "address"
        },
        {
          "internalType": "address",
          "name": "token",
          "type": "address"
        },
        {
          "internalType": "uint256",
          "name": "amount",
          "type": "uint256"
        },
        {
          "internalType": "bytes[2]",
          "name": "swapData",
          "type": "bytes[2]"
        },
        {
          "internalType": "uint256",
          "name": "amountAMin",
          "type": "uint256"
        },
        {
          "internalType": "uint256",
          "name": "amountBMin",
          "type": "uint256"
        },
        {
          "internalType": "address",
          "name": "recipient",
          "type": "address"
        }
      ],
      "name": "depositSingleAsset",
      "outputs": [
        {
          "internalType": "uint256",
          "name": "sent",
          "type": "uint256"
        },
        {
          "internalType": "uint256",
          "name": "liquidity",
          "type": "uint256"
        }
      ],
      "stateMutability": "nonpayable",
      "type": "function"
    },
    {
      "inputs": [
        {
          "internalType": "address",
          "name": "lpStakingPool",
          "type": "address"
        },
        {
          "internalType": "bytes[2]",
          "name": "swapData",
          "type": "bytes[2]"
        },
        {
          "internalType": "uint256",
          "name": "amountAMin",
          "type": "uint256"
        },
        {
          "internalType": "uint256",
          "name": "amountBMin",
          "type": "uint256"
        },
        {
          "internalType": "address",
          "name": "recipient",
          "type": "address"
        }
      ],
      "name": "depositSingleETH",
      "outputs": [
        {
          "internalType": "uint256",
          "name": "sentETH",
          "type": "uint256"
        },
        {
          "internalType": "uint256",
          "name": "liquidity",
          "type": "uint256"
        }
      ],
      "stateMutability": "payable",
      "type": "function"
    },
    {
      "inputs": [
        {
          "internalType": "address",
          "name": "lpStakingPool",
          "type": "address"
        },
        {
          "internalType": "uint256",
          "name": "amount",
          "type": "uint256"
        },
        {
          "internalType": "address",
          "name": "recipient",
          "type": "address"
        }
      ],
      "name": "depositLP",
      "outputs": [],
      "stateMutability": "nonpayable",
      "type": "function"
    },
    {
      "inputs": [
        {
          "internalType": "address",
          "name": "lpStakingPool",
          "type": "address"
        },
        {
          "internalType": "uint256",
          "name": "amount",
          "type": "uint256"
        },
        {
          "internalType": "uint256",
          "name": "amountAMin",
          "type": "uint256"
        },
        {
          "internalType": "uint256",
          "name": "amountBMin",
          "type": "uint256"
        },
        {
          "internalType": "address",
          "name": "recipient",
          "type": "address"
        }
      ],
      "name": "withdraw",
      "outputs": [
        {
          "internalType": "uint256",
          "name": "amountA",
          "type": "uint256"
        },
        {
          "internalType": "uint256",
          "name": "amountB",
          "type": "uint256"
        }
      ],
      "stateMutability": "nonpayable",
      "type": "function"
    },
    {
      "inputs": [
        {
          "internalType": "address",
          "name": "lpStakingPool",
          "type": "address"
        },
        {
          "internalType": "uint256",
          "name": "amount",
          "type": "uint256"
        },
        {
          "internalType": "uint256",
          "name": "amountTokenMin",
          "type": "uint256"
        },
        {
          "internalType": "uint256",
          "name": "amountETHMin",
          "type": "uint256"
        },
        {
          "internalType": "address",
          "name": "recipient",
          "type": "address"
        }
      ],
      "name": "withdrawETH",
      "outputs": [
        {
          "internalType": "uint256",
          "name": "amountToken",
          "type": "uint256"
        },
        {
          "internalType": "uint256",
          "name": "amountETH",
          "type": "uint256"
        }
      ],
      "stateMutability": "nonpayable",
      "type": "function"
    },
    {
      "inputs": [
        {
          "internalType": "address",
          "name": "lpStakingPool",
          "type": "address"
        },
        {
          "internalType": "uint256",
          "name": "amount",
          "type": "uint256"
        },
        {
          "internalType": "address",
          "name": "token",
          "type": "address"
        },
        {
          "internalType": "bytes[2]",
          "name": "swapData",
          "type": "bytes[2]"
        },
        {
          "internalType": "address",
          "name": "recipient",
          "type": "address"
        }
      ],
      "name": "withdrawSingleAsset",
      "outputs": [
        {
          "internalType": "uint256",
          "name": "amountToken",
          "type": "uint256"
        },
        {
          "internalType": "uint256",
          "name": "amountA",
          "type": "uint256"
        },
        {
          "internalType": "uint256",
          "name": "amountB",
          "type": "uint256"
        }
      ],
      "stateMutability": "nonpayable",
      "type": "function"
    },
    {
      "inputs": [
        {
          "internalType": "address",
          "name": "lpStakingPool",
          "type": "address"
        },
        {
          "internalType": "uint256",
          "name": "amount",
          "type": "uint256"
        },
        {
          "internalType": "bytes[2]",
          "name": "swapData",
          "type": "bytes[2]"
        },
        {
          "internalType": "address",
          "name": "recipient",
          "type": "address"
        }
      ],
      "name": "withdrawSingleETH",
      "outputs": [
        {
          "internalType": "uint256",
          "name": "amountETH",
          "type": "uint256"
        },
        {
          "internalType": "uint256",
          "name": "amountA",
          "type": "uint256"
        },
        {
          "internalType": "uint256",
          "name": "amountB",
          "type": "uint256"
        }
      ],
      "stateMutability": "nonpayable",
      "type": "function"
    },
    {
      "inputs": [
        {
          "internalType": "address",
          "name": "lpStakingPool",
          "type": "address"
        },
        {
          "internalType": "uint256",
          "name": "amount",
          "type": "uint256"
        },
        {
          "internalType": "address",
          "name": "recipient",
          "type": "address"
        }
      ],
      "name": "withdrawLP",
      "outputs": [],
      "stateMutability": "nonpayable",
      "type": "function"
    },
    {
      "inputs": [
        {
          "internalType": "address",
          "name": "lpStakingPool",
          "type": "address"
        },
        {
          "components": [
            {
              "internalType": "address[]",
              "name": "route",
              "type": "address[]"
            },
            {
              "internalType": "uint256",
              "name": "amountOutMin",
              "type": "uint256"
            }
          ],
          "internalType": "struct IUnoFarmQuickswapDual.SwapInfo[4]",
          "name": "swapInfos",
          "type": "tuple[4]"
        },
        {
          "components": [
            {
              "internalType": "address[]",
              "name": "route",
              "type": "address[]"
            },
            {
              "internalType": "uint256",
              "name": "amountOutMin",
              "type": "uint256"
            }
          ],
          "internalType": "struct IUnoFarmQuickswapDual.SwapInfo[2]",
          "name": "feeSwapInfos",
          "type": "tuple[2]"
        },
        {
          "internalType": "address",
          "name": "feeTo",
          "type": "address"
        }
      ],
      "name": "distribute",
      "outputs": [],
      "stateMutability": "nonpayable",
      "type": "function"
    },
    {
      "inputs": [
        {
          "internalType": "address",
          "name": "_address",
          "type": "address"
        },
        {
          "internalType": "address",
          "name": "lpStakingPool",
          "type": "address"
        }
      ],
      "name": "userStake",
      "outputs": [
        {
          "internalType": "uint256",
          "name": "stakeLP",
          "type": "uint256"
        },
        {
          "internalType": "uint256",
          "name": "stakeA",
          "type": "uint256"
        },
        {
          "internalType": "uint256",
          "name": "stakeB",
          "type": "uint256"
        }
      ],
      "stateMutability": "view",
      "type": "function"
    },
    {
      "inputs": [
        {
          "internalType": "address",
          "name": "lpStakingPool",
          "type": "address"
        }
      ],
      "name": "totalDeposits",
      "outputs": [
        {
          "internalType": "uint256",
          "name": "totalDepositsLP",
          "type": "uint256"
        },
        {
          "internalType": "uint256",
          "name": "totalDepositsA",
          "type": "uint256"
        },
        {
          "internalType": "uint256",
          "name": "totalDepositsB",
          "type": "uint256"
        }
      ],
      "stateMutability": "view",
      "type": "function"
    },
    {
      "inputs": [
        {
          "internalType": "address",
          "name": "lpStakingPool",
          "type": "address"
        }
      ],
      "name": "getTokens",
      "outputs": [
        {
          "internalType": "contract IERC20[]",
          "name": "tokens",
          "type": "address[]"
        }
      ],
      "stateMutability": "view",
      "type": "function"
    },
    {
      "inputs": [
        {
          "internalType": "uint256",
          "name": "_fee",
          "type": "uint256"
        }
      ],
      "name": "setFee",
      "outputs": [],
      "stateMutability": "nonpayable",
      "type": "function"
    },
    {
      "inputs": [],
      "name": "pause",
      "outputs": [],
      "stateMutability": "nonpayable",
      "type": "function"
    },
    {
      "inputs": [],
      "name": "unpause",
      "outputs": [],
      "stateMutability": "nonpayable",
      "type": "function"
    }
  ],
  "bytecode": "0x60a0604052306080523480156200001557600080fd5b506200002062000026565b62000156565b6200003260ff62000035565b50565b60008054610100900460ff1615620000ce578160ff1660011480156200006e57506200006c306200014760201b6200370b1760201c565b155b620000c65760405162461bcd60e51b815260206004820152602e60248201526000805160206200587383398151915260448201526d191e481a5b9a5d1a585b1a5e995960921b60648201526084015b60405180910390fd5b506000919050565b60005460ff8084169116106200012d5760405162461bcd60e51b815260206004820152602e60248201526000805160206200587383398151915260448201526d191e481a5b9a5d1a585b1a5e995960921b6064820152608401620000bd565b506000805460ff191660ff92909216919091179055600190565b6001600160a01b03163b151590565b6080516156e56200018e60003960008181610ca701528181610ce701528181611389015281816113c901526115cd01526156e56000f3fe6080604052600436106101a05760003560e01c80636505e65e116100ec578063d84ff8421161008a578063e50e637111610064578063e50e637114610529578063e940325614610549578063fdcb606814610569578063fefa40941461058957600080fd5b8063d84ff842146104d3578063ddca3f43146104f3578063deb03f4d1461050957600080fd5b80636d25e175116100c65780636d25e1751461046b5780637d7956281461048b5780638456cb591461049e578063a475626c146104b357600080fd5b80636505e65e146103f657806369fe0e2d146104165780636c2b55171461043657600080fd5b8063485cc9551161015957806351bdca3e1161013357806351bdca3e1461037b57806352d1902d1461039b57806354fd4d50146103be5780635c975abb146103d357600080fd5b8063485cc9551461030e5780634d95cad91461032e5780634f1ef2861461036857600080fd5b80631ad881801461022c5780632f2255cc1461024c5780633659cfe61461028c5780633f4ba83a146102ac578063450efe21146102c157806346dafa2f146102ee57600080fd5b36610227573360008051602061569083398151915214806101d457503373a5e0829caced8ffdd4de3c43696c57f7d7a678ff145b6102255760405162461bcd60e51b815260206004820152601c60248201527f4f4e4c595f4143434550545f574d415449435f4f525f524f555445520000000060448201526064015b60405180910390fd5b005b600080fd5b34801561023857600080fd5b50610225610247366004614a96565b61059c565b34801561025857600080fd5b5061026c610267366004614b28565b6107dd565b604080519384526020840192909252908201526060015b60405180910390f35b34801561029857600080fd5b506102256102a7366004614ba9565b610c9c565b3480156102b857600080fd5b50610225610d7c565b3480156102cd57600080fd5b506102e16102dc366004614ba9565b610e33565b6040516102839190614bc6565b3480156102fa57600080fd5b50610225610309366004614c13565b610fe9565b34801561031a57600080fd5b50610225610329366004614c55565b611243565b34801561033a57600080fd5b5061035060008051602061569083398151915281565b6040516001600160a01b039091168152602001610283565b610225610376366004614ca4565b61137e565b34801561038757600080fd5b5061026c610396366004614c55565b61144f565b3480156103a757600080fd5b506103b06115c0565b604051908152602001610283565b3480156103ca57600080fd5b506103b0600281565b3480156103df57600080fd5b5060335460ff166040519015158152602001610283565b34801561040257600080fd5b5061026c610411366004614d68565b611673565b34801561042257600080fd5b50610225610431366004614dc6565b611982565b34801561044257600080fd5b50610456610451366004614ddf565b611b15565b60408051928352602083019190915201610283565b34801561047757600080fd5b5060c954610350906001600160a01b031681565b610456610499366004614e73565b611fbe565b3480156104aa57600080fd5b50610225612549565b3480156104bf57600080fd5b5061026c6104ce366004614edd565b612600565b3480156104df57600080fd5b506104566104ee366004614f2d565b612b5e565b3480156104ff57600080fd5b506103b060cb5481565b34801561051557600080fd5b50610456610524366004614f2d565b612dd1565b34801561053557600080fd5b50610225610544366004614c13565b6130f4565b34801561055557600080fd5b5061026c610564366004614ba9565b61322a565b34801561057557600080fd5b5060ca54610350906001600160a01b031681565b61026c610597366004614f2d565b613393565b60335460ff16156105bf5760405162461bcd60e51b815260040161021c90614f75565b60ca54604051632474521560e21b81527ffbd454f36a7e1a388bd6fc3ab10d434aa4578f811acbbcf33afb1c697486313c60048201819052336024830152916001600160a01b0316906391d1485490604401602060405180830381865afa15801561062e573d6000803e3d6000fd5b505050506040513d601f19601f820116820180604052508101906106529190614f9f565b61066e5760405162461bcd60e51b815260040161021c90614fc1565b60c95460405163f9d9331d60e01b81526001600160a01b038781166004830152600092169063f9d9331d90602401602060405180830381865afa1580156106b9573d6000803e3d6000fd5b505050506040513d601f19601f820116820180604052508101906106dd9190614ff0565b90506001600160a01b0381166107055760405162461bcd60e51b815260040161021c9061500d565b6040805180820182526001600160a01b03858116825260cb546020830152915163047f792560e11b81526000928416916308fef24a9161074c918a918a9190600401615121565b6020604051808303816000875af115801561076b573d6000803e3d6000fd5b505050506040513d601f19601f8201168201806040525081019061078f9190615235565b9050866001600160a01b03167fc1d32ad5cca423e7dda2123dbf8c482f8e77d00b631c06e903a47f2cec1334df826040516107cc91815260200190565b60405180910390a250505050505050565b60008060006107ee60335460ff1690565b1561080b5760405162461bcd60e51b815260040161021c90614f75565b60c95460405163f9d9331d60e01b81526001600160a01b038a81166004830152600092169063f9d9331d90602401602060405180830381865afa158015610856573d6000803e3d6000fd5b505050506040513d601f19601f8201168201806040525081019061087a9190614ff0565b90506001600160a01b0381166108a25760405162461bcd60e51b815260040161021c9061500d565b604051632d182be560e21b81526001600160a01b0382169063b460af94906108d2908b903390309060040161524e565b600060405180830381600087803b1580156108ec57600080fd5b505af1158015610900573d6000803e3d6000fd5b505050506000816001600160a01b0316630fc63d106040518163ffffffff1660e01b8152600401602060405180830381865afa158015610944573d6000803e3d6000fd5b505050506040513d601f19601f820116820180604052508101906109689190614ff0565b90506000826001600160a01b0316635f64b55b6040518163ffffffff1660e01b8152600401602060405180830381865afa1580156109aa573d6000803e3d6000fd5b505050506040513d601f19601f820116820180604052508101906109ce9190614ff0565b9050610a41836001600160a01b031663452ed4f16040518163ffffffff1660e01b8152600401602060405180830381865afa158015610a11573d6000803e3d6000fd5b505050506040513d601f19601f82011682018060405250810190610a359190614ff0565b83838d6000803061371a565b90955093506001600160a01b03828116908a1614610b365760405163095ea7b360e01b81526001600160a01b0383169063095ea7b390610a9b90731111111254eeb25477b68fb85ed929f73a96058290899060040161526d565b6020604051808303816000875af1158015610aba573d6000803e3d6000fd5b505050506040513d601f19601f82011682018060405250810190610ade9190614f9f565b50600080610afe8a825b602002810190610af8919061529c565b8d61385b565b9092509050610b0d8289615300565b9750610b198188615318565b9650610b2f6001600160a01b0385168a89613a65565b5050610b43565b610b408587615300565b95505b886001600160a01b0316816001600160a01b031614610c285760405163095ea7b360e01b81526001600160a01b0382169063095ea7b390610b9e90731111111254eeb25477b68fb85ed929f73a96058290889060040161526d565b6020604051808303816000875af1158015610bbd573d6000803e3d6000fd5b505050506040513d601f19601f82011682018060405250810190610be19190614f9f565b50600080610bf08a6001610ae8565b9092509050610bff8289615300565b9750610c0b8187615318565b9550610c216001600160a01b0384168a88613a65565b5050610c35565b610c328487615300565b95505b610c496001600160a01b038a168888613a65565b866001600160a01b0316336001600160a01b03168c6001600160a01b03166000805160206156098339815191528d604051610c8691815260200190565b60405180910390a4505050955095509592505050565b306001600160a01b037f0000000000000000000000000000000000000000000000000000000000000000161415610ce55760405162461bcd60e51b815260040161021c9061532f565b7f00000000000000000000000000000000000000000000000000000000000000006001600160a01b0316610d2e600080516020615629833981519152546001600160a01b031690565b6001600160a01b031614610d545760405162461bcd60e51b815260040161021c9061537b565b610d5d81613abb565b60408051600080825260208201909252610d7991839190613bc1565b50565b60ca54604051632474521560e21b81527f65d7a28e3265b37a6474929f336521b332c1681b933f6cb9f3376673440d862a60048201819052336024830152916001600160a01b0316906391d1485490604401602060405180830381865afa158015610deb573d6000803e3d6000fd5b505050506040513d601f19601f82011682018060405250810190610e0f9190614f9f565b610e2b5760405162461bcd60e51b815260040161021c90614fc1565b610d79613d2c565b60408051600280825260608083018452926020830190803683370190505090506000826001600160a01b03166372f702f36040518163ffffffff1660e01b8152600401602060405180830381865afa158015610e93573d6000803e3d6000fd5b505050506040513d601f19601f82011682018060405250810190610eb79190614ff0565b9050806001600160a01b0316630dfe16816040518163ffffffff1660e01b8152600401602060405180830381865afa158015610ef7573d6000803e3d6000fd5b505050506040513d601f19601f82011682018060405250810190610f1b9190614ff0565b82600081518110610f2e57610f2e615286565b60200260200101906001600160a01b031690816001600160a01b031681525050806001600160a01b031663d21220a76040518163ffffffff1660e01b8152600401602060405180830381865afa158015610f8c573d6000803e3d6000fd5b505050506040513d601f19601f82011682018060405250810190610fb09190614ff0565b82600181518110610fc357610fc3615286565b60200260200101906001600160a01b031690816001600160a01b03168152505050919050565b60335460ff161561100c5760405162461bcd60e51b815260040161021c90614f75565b6000821161102c5760405162461bcd60e51b815260040161021c906153c7565b60c95460405163f9d9331d60e01b81526001600160a01b038581166004830152600092169063f9d9331d90602401602060405180830381865afa158015611077573d6000803e3d6000fd5b505050506040513d601f19601f8201168201806040525081019061109b9190614ff0565b90506001600160a01b03811661111d5760c954604051621849e360e61b81526001600160a01b0386811660048301529091169063061278c0906024016020604051808303816000875af11580156110f6573d6000803e3d6000fd5b505050506040513d601f19601f8201168201806040525081019061111a9190614ff0565b90505b611196338285846001600160a01b031663452ed4f16040518163ffffffff1660e01b8152600401602060405180830381865afa158015611161573d6000803e3d6000fd5b505050506040513d601f19601f820116820180604052508101906111859190614ff0565b6001600160a01b0316929190613dbf565b604051636e553f6560e01b8152600481018490526001600160a01b038381166024830152821690636e553f6590604401600060405180830381600087803b1580156111e057600080fd5b505af11580156111f4573d6000803e3d6000fd5b50505050816001600160a01b0316336001600160a01b0316856001600160a01b03166000805160206156498339815191528660405161123591815260200190565b60405180910390a450505050565b600061124f6001613dfd565b90508015611267576000805461ff0019166101001790555b6001600160a01b0383166112b25760405162461bcd60e51b81526020600482015260126024820152712120a22fa0a1a1a2a9a9afa6a0a720a3a2a960711b604482015260640161021c565b6001600160a01b0382166112fb5760405162461bcd60e51b815260206004820152601060248201526f4241445f4641524d5f464143544f525960801b604482015260640161021c565b611303613e85565b60ca80546001600160a01b038086166001600160a01b03199283161790925560c98054928516929091169190911790558015611379576000805461ff0019169055604051600181527f7f26b83ff96e1f2b6a682f133852f6798a09c465da95921460cefb38474024989060200160405180910390a15b505050565b306001600160a01b037f00000000000000000000000000000000000000000000000000000000000000001614156113c75760405162461bcd60e51b815260040161021c9061532f565b7f00000000000000000000000000000000000000000000000000000000000000006001600160a01b0316611410600080516020615629833981519152546001600160a01b031690565b6001600160a01b0316146114365760405162461bcd60e51b815260040161021c9061537b565b61143f82613abb565b61144b82826001613bc1565b5050565b60c95460405163f9d9331d60e01b81526001600160a01b038381166004830152600092839283928392169063f9d9331d90602401602060405180830381865afa1580156114a0573d6000803e3d6000fd5b505050506040513d601f19601f820116820180604052508101906114c49190614ff0565b90506001600160a01b038116156115b857604051630103c92b60e01b81526001600160a01b038781166004830152821690630103c92b90602401602060405180830381865afa15801561151b573d6000803e3d6000fd5b505050506040513d601f19601f8201168201806040525081019061153f9190615235565b93506000816001600160a01b031663452ed4f16040518163ffffffff1660e01b8152600401602060405180830381865afa158015611581573d6000803e3d6000fd5b505050506040513d601f19601f820116820180604052508101906115a59190614ff0565b90506115b18186613eb6565b9094509250505b509250925092565b6000306001600160a01b037f000000000000000000000000000000000000000000000000000000000000000016146116605760405162461bcd60e51b815260206004820152603860248201527f555550535570677261646561626c653a206d757374206e6f742062652063616c60448201527f6c6564207468726f7567682064656c656761746563616c6c0000000000000000606482015260840161021c565b5060008051602061562983398151915290565b600080600061168460335460ff1690565b156116a15760405162461bcd60e51b815260040161021c90614f75565b6000881180156116b15750600087115b6116cd5760405162461bcd60e51b815260040161021c906153ee565b60c95460405163f9d9331d60e01b81526001600160a01b038b81166004830152600092169063f9d9331d90602401602060405180830381865afa158015611718573d6000803e3d6000fd5b505050506040513d601f19601f8201168201806040525081019061173c9190614ff0565b90506001600160a01b0381166117be5760c954604051621849e360e61b81526001600160a01b038c811660048301529091169063061278c0906024016020604051808303816000875af1158015611797573d6000803e3d6000fd5b505050506040513d601f19601f820116820180604052508101906117bb9190614ff0565b90505b6000816001600160a01b0316630fc63d106040518163ffffffff1660e01b8152600401602060405180830381865afa1580156117fe573d6000803e3d6000fd5b505050506040513d601f19601f820116820180604052508101906118229190614ff0565b90506000826001600160a01b0316635f64b55b6040518163ffffffff1660e01b8152600401602060405180830381865afa158015611864573d6000803e3d6000fd5b505050506040513d601f19601f820116820180604052508101906118889190614ff0565b905061189f6001600160a01b03831633308e613dbf565b6118b46001600160a01b03821633308d613dbf565b6118c382828d8d8d8d896140f1565b604051636e553f6560e01b8152600481018290526001600160a01b038b81166024830152939950919750955090841690636e553f6590604401600060405180830381600087803b15801561191657600080fd5b505af115801561192a573d6000803e3d6000fd5b50505050866001600160a01b0316336001600160a01b03168d6001600160a01b03166000805160206156498339815191528760405161196b91815260200190565b60405180910390a450505096509650969350505050565b60ca60009054906101000a90046001600160a01b03166001600160a01b03166375b238fc6040518163ffffffff1660e01b8152600401602060405180830381865afa1580156119d5573d6000803e3d6000fd5b505050506040513d601f19601f820116820180604052508101906119f99190615235565b60ca54604051632474521560e21b8152600481018390523360248201526001600160a01b03909116906391d1485490604401602060405180830381865afa158015611a48573d6000803e3d6000fd5b505050506040513d601f19601f82011682018060405250810190611a6c9190614f9f565b611a885760405162461bcd60e51b815260040161021c90614fc1565b670de0b6b3a7640000821115611aca5760405162461bcd60e51b81526020600482015260076024820152664241445f46454560c81b604482015260640161021c565b8160cb541461144b5760cb5460408051918252602082018490527f5fc463da23c1b063e66f9e352006a7fbe8db7223c455dc429e881a2dfe2f94f1910160405180910390a15060cb55565b600080611b2460335460ff1690565b15611b415760405162461bcd60e51b815260040161021c90614f75565b60008711611b615760405162461bcd60e51b815260040161021c906153c7565b60c95460405163f9d9331d60e01b81526001600160a01b038b81166004830152600092169063f9d9331d90602401602060405180830381865afa158015611bac573d6000803e3d6000fd5b505050506040513d601f19601f82011682018060405250810190611bd09190614ff0565b90506001600160a01b038116611c525760c954604051621849e360e61b81526001600160a01b038c811660048301529091169063061278c0906024016020604051808303816000875af1158015611c2b573d6000803e3d6000fd5b505050506040513d601f19601f82011682018060405250810190611c4f9190614ff0565b90505b611c676001600160a01b038a1633308b613dbf565b60405163095ea7b360e01b81526001600160a01b038a169063095ea7b390611ca990731111111254eeb25477b68fb85ed929f73a960582908c9060040161526d565b6020604051808303816000875af1158015611cc8573d6000803e3d6000fd5b505050506040513d601f19601f82011682018060405250810190611cec9190614f9f565b508792506000806000836001600160a01b0316630fc63d106040518163ffffffff1660e01b8152600401602060405180830381865afa158015611d33573d6000803e3d6000fd5b505050506040513d601f19601f82011682018060405250810190611d579190614ff0565b90506000846001600160a01b0316635f64b55b6040518163ffffffff1660e01b8152600401602060405180830381865afa158015611d99573d6000803e3d6000fd5b505050506040513d601f19601f82011682018060405250810190611dbd9190614ff0565b90508c6001600160a01b0316826001600160a01b031614611e0d57600080611df78d825b602002810190611df1919061529c565b8661385b565b9092509050611e06818f615318565b9d50909450505b8c6001600160a01b0316816001600160a01b031614611e5b57600080611e458d825b602002810190611e3f919061529c565b8561385b565b9092509050611e54818f615318565b9d50909350505b8c6001600160a01b0316826001600160a01b03161415611e7d578b9350611ec5565b8c6001600160a01b0316816001600160a01b03161415611e9f578b9250611ec5565b8b15611ec557611eaf8c88615318565b9650611ec56001600160a01b038e16338e613a65565b600084118015611ed55750600083115b611ef15760405162461bcd60e51b815260040161021c906153ee565b611f00828286868e8e8b6140f1565b604051636e553f6560e01b8152600481018290526001600160a01b038c811660248301529199509088169250636e553f659150604401600060405180830381600087803b158015611f5057600080fd5b505af1158015611f64573d6000803e3d6000fd5b50505050876001600160a01b0316336001600160a01b03168f6001600160a01b031660008051602061564983398151915289604051611fa591815260200190565b60405180910390a4505050505097509795505050505050565b600080611fcd60335460ff1690565b15611fea5760405162461bcd60e51b815260040161021c90614f75565b6000341161202a5760405162461bcd60e51b815260206004820152600d60248201526c1393d7d350551250d7d4d15395609a1b604482015260640161021c565b60c95460405163f9d9331d60e01b81526001600160a01b038981166004830152600092169063f9d9331d90602401602060405180830381865afa158015612075573d6000803e3d6000fd5b505050506040513d601f19601f820116820180604052508101906120999190614ff0565b90506001600160a01b03811661211b5760c954604051621849e360e61b81526001600160a01b038a811660048301529091169063061278c0906024016020604051808303816000875af11580156120f4573d6000803e3d6000fd5b505050506040513d601f19601f820116820180604052508101906121189190614ff0565b90505b60003490506000805160206156908339815191526001600160a01b031663d0e30db0826040518263ffffffff1660e01b81526004016000604051808303818588803b15801561216957600080fd5b505af115801561217d573d6000803e3d6000fd5b505060405163095ea7b360e01b8152600080516020615690833981519152935063095ea7b392506121c99150731111111254eeb25477b68fb85ed929f73a96058290859060040161526d565b6020604051808303816000875af11580156121e8573d6000803e3d6000fd5b505050506040513d601f19601f8201168201806040525081019061220c9190614f9f565b508093506000806000846001600160a01b0316630fc63d106040518163ffffffff1660e01b8152600401602060405180830381865afa158015612253573d6000803e3d6000fd5b505050506040513d601f19601f820116820180604052508101906122779190614ff0565b90506000856001600160a01b0316635f64b55b6040518163ffffffff1660e01b8152600401602060405180830381865afa1580156122b9573d6000803e3d6000fd5b505050506040513d601f19601f820116820180604052508101906122dd9190614ff0565b90506001600160a01b038216600080516020615690833981519152146123205760008061230a8e82611de1565b90925090506123198188615318565b9650909450505b6001600160a01b038116600080516020615690833981519152146123625760008061234c8e6001611e2f565b909250905061235b8188615318565b9650909350505b6001600160a01b038216600080516020615690833981519152141561238957849350612451565b6001600160a01b03811660008051602061569083398151915214156123b057849250612451565b8415612451576123c08589615318565b604051632e1a7d4d60e01b81526004810187905290985060008051602061569083398151915290632e1a7d4d90602401600060405180830381600087803b15801561240a57600080fd5b505af115801561241e573d6000803e3d6000fd5b505060405133925087156108fc02915087906000818181858888f1935050505015801561244f573d6000803e3d6000fd5b505b6000841180156124615750600083115b61247d5760405162461bcd60e51b815260040161021c906153ee565b61248c828286868f8f8c6140f1565b604051636e553f6560e01b8152600481018290526001600160a01b038d81166024830152919a509089169250636e553f659150604401600060405180830381600087803b1580156124dc57600080fd5b505af11580156124f0573d6000803e3d6000fd5b50505050886001600160a01b0316336001600160a01b03168e6001600160a01b03166000805160206156498339815191528a60405161253191815260200190565b60405180910390a45050505050509550959350505050565b60ca54604051632474521560e21b81527f65d7a28e3265b37a6474929f336521b332c1681b933f6cb9f3376673440d862a60048201819052336024830152916001600160a01b0316906391d1485490604401602060405180830381865afa1580156125b8573d6000803e3d6000fd5b505050506040513d601f19601f820116820180604052508101906125dc9190614f9f565b6125f85760405162461bcd60e51b815260040161021c90614fc1565b610d79614304565b600080600061261160335460ff1690565b1561262e5760405162461bcd60e51b815260040161021c90614f75565b60c95460405163f9d9331d60e01b81526001600160a01b038981166004830152600092169063f9d9331d90602401602060405180830381865afa158015612679573d6000803e3d6000fd5b505050506040513d601f19601f8201168201806040525081019061269d9190614ff0565b90506001600160a01b0381166126c55760405162461bcd60e51b815260040161021c9061500d565b604051632d182be560e21b81526001600160a01b0382169063b460af94906126f5908a903390309060040161524e565b600060405180830381600087803b15801561270f57600080fd5b505af1158015612723573d6000803e3d6000fd5b505050506000816001600160a01b0316630fc63d106040518163ffffffff1660e01b8152600401602060405180830381865afa158015612767573d6000803e3d6000fd5b505050506040513d601f19601f8201168201806040525081019061278b9190614ff0565b90506000826001600160a01b0316635f64b55b6040518163ffffffff1660e01b8152600401602060405180830381865afa1580156127cd573d6000803e3d6000fd5b505050506040513d601f19601f820116820180604052508101906127f19190614ff0565b9050612864836001600160a01b031663452ed4f16040518163ffffffff1660e01b8152600401602060405180830381865afa158015612834573d6000803e3d6000fd5b505050506040513d601f19601f820116820180604052508101906128589190614ff0565b83838c6000803061371a565b90955093506001600160a01b038216600080516020615690833981519152146129725760405163095ea7b360e01b81526001600160a01b0383169063095ea7b3906128c990731111111254eeb25477b68fb85ed929f73a96058290899060040161526d565b6020604051808303816000875af11580156128e8573d6000803e3d6000fd5b505050506040513d601f19601f8201168201806040525081019061290c9190614f9f565b5060008061293a8a825b602002810190612926919061529c565b60008051602061569083398151915261385b565b90925090506129498289615300565b97506129558188615318565b965061296b6001600160a01b0385168a89613a65565b505061297f565b61297c8587615300565b95505b6001600160a01b03811660008051602061569083398151915214612a695760405163095ea7b360e01b81526001600160a01b0382169063095ea7b3906129df90731111111254eeb25477b68fb85ed929f73a96058290889060040161526d565b6020604051808303816000875af11580156129fe573d6000803e3d6000fd5b505050506040513d601f19601f82011682018060405250810190612a229190614f9f565b50600080612a318a6001612916565b9092509050612a408289615300565b9750612a4c8187615318565b9550612a626001600160a01b0384168a88613a65565b5050612a76565b612a738487615300565b95505b604051632e1a7d4d60e01b81526004810187905260008051602061569083398151915290632e1a7d4d90602401600060405180830381600087803b158015612abd57600080fd5b505af1158015612ad1573d6000803e3d6000fd5b50506040516001600160a01b038a16925088156108fc02915088906000818181858888f19350505050158015612b0b573d6000803e3d6000fd5b50866001600160a01b0316336001600160a01b03168b6001600160a01b03166000805160206156098339815191528c604051612b4991815260200190565b60405180910390a45050509450945094915050565b60c95460405163f9d9331d60e01b81526001600160a01b038781166004830152600092839283929091169063f9d9331d90602401602060405180830381865afa158015612baf573d6000803e3d6000fd5b505050506040513d601f19601f82011682018060405250810190612bd39190614ff0565b90506001600160a01b038116612bfb5760405162461bcd60e51b815260040161021c9061500d565b604051632d182be560e21b81526001600160a01b0382169063b460af9490612c2b908a903390309060040161524e565b600060405180830381600087803b158015612c4557600080fd5b505af1158015612c59573d6000803e3d6000fd5b50505050612d8f816001600160a01b031663452ed4f16040518163ffffffff1660e01b8152600401602060405180830381865afa158015612c9e573d6000803e3d6000fd5b505050506040513d601f19601f82011682018060405250810190612cc29190614ff0565b826001600160a01b0316630fc63d106040518163ffffffff1660e01b8152600401602060405180830381865afa158015612d00573d6000803e3d6000fd5b505050506040513d601f19601f82011682018060405250810190612d249190614ff0565b836001600160a01b0316635f64b55b6040518163ffffffff1660e01b8152600401602060405180830381865afa158015612d62573d6000803e3d6000fd5b505050506040513d601f19601f82011682018060405250810190612d869190614ff0565b8a8a8a8a61371a565b60405189815291945092506001600160a01b038581169133918b16906000805160206156098339815191529060200160405180910390a4509550959350505050565b60c95460405163f9d9331d60e01b81526001600160a01b038781166004830152600092839283929091169063f9d9331d90602401602060405180830381865afa158015612e22573d6000803e3d6000fd5b505050506040513d601f19601f82011682018060405250810190612e469190614ff0565b90506001600160a01b038116612e6e5760405162461bcd60e51b815260040161021c9061500d565b6000816001600160a01b0316630fc63d106040518163ffffffff1660e01b8152600401602060405180830381865afa158015612eae573d6000803e3d6000fd5b505050506040513d601f19601f82011682018060405250810190612ed29190614ff0565b90506000826001600160a01b0316635f64b55b6040518163ffffffff1660e01b8152600401602060405180830381865afa158015612f14573d6000803e3d6000fd5b505050506040513d601f19601f82011682018060405250810190612f389190614ff0565b90506000836001600160a01b031663452ed4f16040518163ffffffff1660e01b8152600401602060405180830381865afa158015612f7a573d6000803e3d6000fd5b505050506040513d601f19601f82011682018060405250810190612f9e9190614ff0565b604051632d182be560e21b81529091506001600160a01b0385169063b460af9490612fd1908d903390309060040161524e565b600060405180830381600087803b158015612feb57600080fd5b505af1158015612fff573d6000803e3d6000fd5b505050506001600160a01b038316600080516020615690833981519152141561303a5761303081838c8c8c8c61435c565b90965094506130a1565b6001600160a01b03821660008051602061569083398151915214156130675761303081848c8c8c8c61435c565b60405162461bcd60e51b815260206004820152600f60248201526e1393d517d5d350551250d7d413d3d3608a1b604482015260640161021c565b866001600160a01b0316336001600160a01b03168c6001600160a01b03166000805160206156098339815191528d6040516130de91815260200190565b60405180910390a4505050509550959350505050565b60c95460405163f9d9331d60e01b81526001600160a01b038581166004830152600092169063f9d9331d90602401602060405180830381865afa15801561313f573d6000803e3d6000fd5b505050506040513d601f19601f820116820180604052508101906131639190614ff0565b90506001600160a01b03811661318b5760405162461bcd60e51b815260040161021c9061500d565b604051632d182be560e21b81526001600160a01b0382169063b460af94906131bb9086903390879060040161524e565b600060405180830381600087803b1580156131d557600080fd5b505af11580156131e9573d6000803e3d6000fd5b50505050816001600160a01b0316336001600160a01b0316856001600160a01b03166000805160206156098339815191528660405161123591815260200190565b60c95460405163f9d9331d60e01b81526001600160a01b038381166004830152600092839283928392169063f9d9331d90602401602060405180830381865afa15801561327b573d6000803e3d6000fd5b505050506040513d601f19601f8201168201806040525081019061329f9190614ff0565b90506001600160a01b0381161561338b57806001600160a01b031663168a48226040518163ffffffff1660e01b8152600401602060405180830381865afa1580156132ee573d6000803e3d6000fd5b505050506040513d601f19601f820116820180604052508101906133129190615235565b93506000816001600160a01b031663452ed4f16040518163ffffffff1660e01b8152600401602060405180830381865afa158015613354573d6000803e3d6000fd5b505050506040513d601f19601f820116820180604052508101906133789190614ff0565b90506133848186613eb6565b9094509250505b509193909250565b60008060006133a460335460ff1690565b156133c15760405162461bcd60e51b815260040161021c90614f75565b600034116134015760405162461bcd60e51b815260206004820152600d60248201526c1393d7d350551250d7d4d15395609a1b604482015260640161021c565b600087116134215760405162461bcd60e51b815260040161021c906153c7565b60c95460405163f9d9331d60e01b81526001600160a01b038a81166004830152600092169063f9d9331d90602401602060405180830381865afa15801561346c573d6000803e3d6000fd5b505050506040513d601f19601f820116820180604052508101906134909190614ff0565b90506001600160a01b0381166135125760c954604051621849e360e61b81526001600160a01b038b811660048301529091169063061278c0906024016020604051808303816000875af11580156134eb573d6000803e3d6000fd5b505050506040513d601f19601f8201168201806040525081019061350f9190614ff0565b90505b6000816001600160a01b0316630fc63d106040518163ffffffff1660e01b8152600401602060405180830381865afa158015613552573d6000803e3d6000fd5b505050506040513d601f19601f820116820180604052508101906135769190614ff0565b90506000826001600160a01b0316635f64b55b6040518163ffffffff1660e01b8152600401602060405180830381865afa1580156135b8573d6000803e3d6000fd5b505050506040513d601f19601f820116820180604052508101906135dc9190614ff0565b90506001600160a01b038216600080516020615690833981519152141561362b576136126001600160a01b03821633308d613dbf565b61361f818b8b8b87614476565b9197509550935061366c565b6001600160a01b03811660008051602061569083398151915214156130675761365f6001600160a01b03831633308d613dbf565b61361f828b8b8b87614476565b604051636e553f6560e01b8152600481018590526001600160a01b038881166024830152841690636e553f6590604401600060405180830381600087803b1580156136b657600080fd5b505af11580156136ca573d6000803e3d6000fd5b50505050866001600160a01b0316336001600160a01b03168c6001600160a01b031660008051602061564983398151915287604051610c8691815260200190565b6001600160a01b03163b151590565b600080886001600160a01b031663095ea7b373a5e0829caced8ffdd4de3c43696c57f7d7a678ff886040518363ffffffff1660e01b815260040161375f92919061526d565b6020604051808303816000875af115801561377e573d6000803e3d6000fd5b505050506040513d601f19601f820116820180604052508101906137a29190614f9f565b50604051635d5155ef60e11b81526001600160a01b03808a1660048301528089166024830152604482018890526064820187905260848201869052841660a48201524260c482015273a5e0829caced8ffdd4de3c43696c57f7d7a678ff9063baa2abde9060e40160408051808303816000875af1158015613827573d6000803e3d6000fd5b505050506040513d601f19601f8201168201806040525081019061384b9190615416565b909a909950975050505050505050565b6040516370a0823160e01b8152306004820152600090819081906001600160a01b038516906370a0823190602401602060405180830381865afa1580156138a6573d6000803e3d6000fd5b505050506040513d601f19601f820116820180604052508101906138ca9190615235565b9050600080731111111254eeb25477b68fb85ed929f73a9605826001600160a01b031688886040516138fd92919061543a565b6000604051808303816000865af19150503d806000811461393a576040519150601f19603f3d011682016040523d82523d6000602084013e61393f565b606091505b5091509150816139875760405162461bcd60e51b815260206004820152601360248201527214d5d05417d393d517d4d550d0d154d4d19553606a1b604482015260640161021c565b8080602001905181019061399b9190615416565b6040516370a0823160e01b815230600482015291965094506000906001600160a01b038816906370a0823190602401602060405180830381865afa1580156139e7573d6000803e3d6000fd5b505050506040513d601f19601f82011682018060405250810190613a0b9190615235565b905085613a188583615318565b14613a595760405162461bcd60e51b815260206004820152601160248201527010905117d4915515549397d05353d55395607a1b604482015260640161021c565b50505050935093915050565b6113798363a9059cbb60e01b8484604051602401613a8492919061526d565b60408051601f198184030181529190526020810180516001600160e01b03166001600160e01b0319909316929092179091526145ef565b60ca60009054906101000a90046001600160a01b03166001600160a01b03166375b238fc6040518163ffffffff1660e01b8152600401602060405180830381865afa158015613b0e573d6000803e3d6000fd5b505050506040513d601f19601f82011682018060405250810190613b329190615235565b60ca54604051632474521560e21b8152600481018390523360248201526001600160a01b03909116906391d1485490604401602060405180830381865afa158015613b81573d6000803e3d6000fd5b505050506040513d601f19601f82011682018060405250810190613ba59190614f9f565b61144b5760405162461bcd60e51b815260040161021c90614fc1565b7f4910fdfa16fed3260ed0e7147f7cc6da11a60208b5b9406d12a635614ffd91435460ff1615613bf457611379836146c1565b826001600160a01b03166352d1902d6040518163ffffffff1660e01b8152600401602060405180830381865afa925050508015613c4e575060408051601f3d908101601f19168201909252613c4b91810190615235565b60015b613cb15760405162461bcd60e51b815260206004820152602e60248201527f45524331393637557067726164653a206e657720696d706c656d656e7461746960448201526d6f6e206973206e6f74205555505360901b606482015260840161021c565b6000805160206156298339815191528114613d205760405162461bcd60e51b815260206004820152602960248201527f45524331393637557067726164653a20756e737570706f727465642070726f786044820152681a58589b195555525160ba1b606482015260840161021c565b5061137983838361475d565b60335460ff16613d755760405162461bcd60e51b815260206004820152601460248201527314185d5cd8589b194e881b9bdd081c185d5cd95960621b604482015260640161021c565b6033805460ff191690557f5db9ee0a495bf2e6ff9c91a7834c1ba4fdd244a5e8aa4e537bd38aeae4b073aa335b6040516001600160a01b03909116815260200160405180910390a1565b6040516001600160a01b0380851660248301528316604482015260648101829052613df79085906323b872dd60e01b90608401613a84565b50505050565b60008054610100900460ff1615613e44578160ff166001148015613e205750303b155b613e3c5760405162461bcd60e51b815260040161021c9061544a565b506000919050565b60005460ff808416911610613e6b5760405162461bcd60e51b815260040161021c9061544a565b506000805460ff191660ff92909216919091179055600190565b600054610100900460ff16613eac5760405162461bcd60e51b815260040161021c90615498565b613eb4614782565b565b6000806000846001600160a01b03166318160ddd6040518163ffffffff1660e01b8152600401602060405180830381865afa158015613ef9573d6000803e3d6000fd5b505050506040513d601f19601f82011682018060405250810190613f1d9190615235565b905080856001600160a01b0316630dfe16816040518163ffffffff1660e01b8152600401602060405180830381865afa158015613f5e573d6000803e3d6000fd5b505050506040513d601f19601f82011682018060405250810190613f829190614ff0565b6040516370a0823160e01b81526001600160a01b03888116600483015291909116906370a0823190602401602060405180830381865afa158015613fca573d6000803e3d6000fd5b505050506040513d601f19601f82011682018060405250810190613fee9190615235565b613ff890866154e3565b6140029190615502565b925080856001600160a01b031663d21220a76040518163ffffffff1660e01b8152600401602060405180830381865afa158015614043573d6000803e3d6000fd5b505050506040513d601f19601f820116820180604052508101906140679190614ff0565b6040516370a0823160e01b81526001600160a01b03888116600483015291909116906370a0823190602401602060405180830381865afa1580156140af573d6000803e3d6000fd5b505050506040513d601f19601f820116820180604052508101906140d39190615235565b6140dd90866154e3565b6140e79190615502565b9150509250929050565b6000806000896001600160a01b031663095ea7b373a5e0829caced8ffdd4de3c43696c57f7d7a678ff8a6040518363ffffffff1660e01b815260040161413892919061526d565b6020604051808303816000875af1158015614157573d6000803e3d6000fd5b505050506040513d601f19601f8201168201806040525081019061417b9190614f9f565b5060405163095ea7b360e01b81526001600160a01b038a169063095ea7b3906141be9073a5e0829caced8ffdd4de3c43696c57f7d7a678ff908b9060040161526d565b6020604051808303816000875af11580156141dd573d6000803e3d6000fd5b505050506040513d601f19601f820116820180604052508101906142019190614f9f565b5060405162e8e33760e81b81526001600160a01b03808c166004830152808b166024830152604482018a9052606482018990526084820188905260a48201879052851660c48201524260e482015273a5e0829caced8ffdd4de3c43696c57f7d7a678ff9063e8e3370090610104016060604051808303816000875af115801561428e573d6000803e3d6000fd5b505050506040513d601f19601f820116820180604052508101906142b29190615524565b919450925090506142d8336142c7858b615318565b6001600160a01b038d169190613a65565b6142f7336142e6848a615318565b6001600160a01b038c169190613a65565b9750975097945050505050565b60335460ff16156143275760405162461bcd60e51b815260040161021c90614f75565b6033805460ff191660011790557f62e78cea01bee320cd4e420270b5ea74000d11b0c9f74754ebdbfc544b05a258613da23390565b600080876001600160a01b031663095ea7b373a5e0829caced8ffdd4de3c43696c57f7d7a678ff886040518363ffffffff1660e01b81526004016143a192919061526d565b6020604051808303816000875af11580156143c0573d6000803e3d6000fd5b505050506040513d601f19601f820116820180604052508101906143e49190614f9f565b50604051629d473b60e21b815273a5e0829caced8ffdd4de3c43696c57f7d7a678ff906302751cec90614425908a908a908a908a908a904290600401615552565b60408051808303816000875af1158015614443573d6000803e3d6000fd5b505050506040513d601f19601f820116820180604052508101906144679190615416565b90999098509650505050505050565b6000806000876001600160a01b031663095ea7b373a5e0829caced8ffdd4de3c43696c57f7d7a678ff896040518363ffffffff1660e01b81526004016144bd92919061526d565b6020604051808303816000875af11580156144dc573d6000803e3d6000fd5b505050506040513d601f19601f820116820180604052508101906145009190614f9f565b5060405163f305d71960e01b815273a5e0829caced8ffdd4de3c43696c57f7d7a678ff9063f305d719903490614544908c908c908c908c908c904290600401615552565b60606040518083038185885af1158015614562573d6000803e3d6000fd5b50505050506040513d601f19601f820116820180604052508101906145879190615524565b919450925090506145ad3361459c858a615318565b6001600160a01b038b169190613a65565b336108fc6145bb8434615318565b6040518115909202916000818181858888f193505050501580156145e3573d6000803e3d6000fd5b50955095509592505050565b6000614644826040518060400160405280602081526020017f5361666545524332303a206c6f772d6c6576656c2063616c6c206661696c6564815250856001600160a01b03166147b59092919063ffffffff16565b80519091501561137957808060200190518101906146629190614f9f565b6113795760405162461bcd60e51b815260206004820152602a60248201527f5361666545524332303a204552433230206f7065726174696f6e20646964206e6044820152691bdd081cdd58d8d9595960b21b606482015260840161021c565b6001600160a01b0381163b61472e5760405162461bcd60e51b815260206004820152602d60248201527f455243313936373a206e657720696d706c656d656e746174696f6e206973206e60448201526c1bdd08184818dbdb9d1c9858dd609a1b606482015260840161021c565b60008051602061562983398151915280546001600160a01b0319166001600160a01b0392909216919091179055565b614766836147ce565b6000825111806147735750805b1561137957613df7838361480e565b600054610100900460ff166147a95760405162461bcd60e51b815260040161021c90615498565b6033805460ff19169055565b60606147c48484600085614904565b90505b9392505050565b6147d7816146c1565b6040516001600160a01b038216907fbc7cd75a20ee27fd9adebab32041f755214dbc6bffa90cc0225b39da2e5c2d3b90600090a250565b60606001600160a01b0383163b6148765760405162461bcd60e51b815260206004820152602660248201527f416464726573733a2064656c65676174652063616c6c20746f206e6f6e2d636f6044820152651b9d1c9858dd60d21b606482015260840161021c565b600080846001600160a01b03168460405161489191906155b9565b600060405180830381855af49150503d80600081146148cc576040519150601f19603f3d011682016040523d82523d6000602084013e6148d1565b606091505b50915091506148f9828260405180606001604052806027815260200161566960279139614a37565b925050505b92915050565b6060824710156149655760405162461bcd60e51b815260206004820152602660248201527f416464726573733a20696e73756666696369656e742062616c616e636520666f6044820152651c8818d85b1b60d21b606482015260840161021c565b6001600160a01b0385163b6149bc5760405162461bcd60e51b815260206004820152601d60248201527f416464726573733a2063616c6c20746f206e6f6e2d636f6e7472616374000000604482015260640161021c565b600080866001600160a01b031685876040516149d891906155b9565b60006040518083038185875af1925050503d8060008114614a15576040519150601f19603f3d011682016040523d82523d6000602084013e614a1a565b606091505b5091509150614a2a828286614a37565b925050505b949350505050565b60608315614a465750816147c7565b825115614a565782518084602001fd5b8160405162461bcd60e51b815260040161021c91906155d5565b6001600160a01b0381168114610d7957600080fd5b80604081018310156148fe57600080fd5b60008060008060808587031215614aac57600080fd5b8435614ab781614a70565b9350602085013567ffffffffffffffff80821115614ad457600080fd5b818701915087608083011115614ae957600080fd5b90935060408601359080821115614aff57600080fd5b50614b0c87828801614a85565b9250506060850135614b1d81614a70565b939692955090935050565b600080600080600060a08688031215614b4057600080fd5b8535614b4b81614a70565b9450602086013593506040860135614b6281614a70565b9250606086013567ffffffffffffffff811115614b7e57600080fd5b614b8a88828901614a85565b9250506080860135614b9b81614a70565b809150509295509295909350565b600060208284031215614bbb57600080fd5b81356147c781614a70565b6020808252825182820181905260009190848201906040850190845b81811015614c075783516001600160a01b031683529284019291840191600101614be2565b50909695505050505050565b600080600060608486031215614c2857600080fd5b8335614c3381614a70565b9250602084013591506040840135614c4a81614a70565b809150509250925092565b60008060408385031215614c6857600080fd5b8235614c7381614a70565b91506020830135614c8381614a70565b809150509250929050565b634e487b7160e01b600052604160045260246000fd5b60008060408385031215614cb757600080fd5b8235614cc281614a70565b9150602083013567ffffffffffffffff80821115614cdf57600080fd5b818501915085601f830112614cf357600080fd5b813581811115614d0557614d05614c8e565b604051601f8201601f19908116603f01168101908382118183101715614d2d57614d2d614c8e565b81604052828152886020848701011115614d4657600080fd5b8260208601602083013760006020848301015280955050505050509250929050565b60008060008060008060c08789031215614d8157600080fd5b8635614d8c81614a70565b95506020870135945060408701359350606087013592506080870135915060a0870135614db881614a70565b809150509295509295509295565b600060208284031215614dd857600080fd5b5035919050565b600080600080600080600060e0888a031215614dfa57600080fd5b8735614e0581614a70565b96506020880135614e1581614a70565b955060408801359450606088013567ffffffffffffffff811115614e3857600080fd5b614e448a828b01614a85565b9450506080880135925060a0880135915060c0880135614e6381614a70565b8091505092959891949750929550565b600080600080600060a08688031215614e8b57600080fd5b8535614e9681614a70565b9450602086013567ffffffffffffffff811115614eb257600080fd5b614ebe88828901614a85565b94505060408601359250606086013591506080860135614b9b81614a70565b60008060008060808587031215614ef357600080fd5b8435614efe81614a70565b935060208501359250604085013567ffffffffffffffff811115614f2157600080fd5b614b0c87828801614a85565b600080600080600060a08688031215614f4557600080fd5b8535614f5081614a70565b94506020860135935060408601359250606086013591506080860135614b9b81614a70565b60208082526010908201526f14185d5cd8589b194e881c185d5cd95960821b604082015260600190565b600060208284031215614fb157600080fd5b815180151581146147c757600080fd5b60208082526015908201527410d05313115497d393d517d055551213d492569151605a1b604082015260600190565b60006020828403121561500257600080fd5b81516147c781614a70565b6020808252600f908201526e4641524d5f4e4f545f45584953545360881b604082015260600190565b60008235603e1983360301811261504c57600080fd5b90910192915050565b60008260408082018460005b6002811015614c075784830388526150798288615036565b8484018135601e1983360301811261509057600080fd5b82018035602067ffffffffffffffff8211156150ab57600080fd5b8160051b36038513156150bd57600080fd5b888852928190529082019160009190606088015b828410156151015784356150e481614a70565b6001600160a01b03168152938101936001939093019281016150d1565b948101359781019790975250505097830197929190910190600101615061565b6080808252600090610100830190830186835b60048110156151fd57858403607f19018352615150828a615036565b60408086018235601e1984360301811261516957600080fd5b83018035602067ffffffffffffffff82111561518457600080fd5b8160051b360386131561519657600080fd5b938952918290526060880192908101916000915b818310156151dc5783356151bd81614a70565b6001600160a01b031685529384019392830192600192909201916151aa565b94850135988501989098525090955050928301929190910190600101615134565b50505082810360208401526152128186615055565b84516001600160a01b03166040850152602085015160608501529150614a2f9050565b60006020828403121561524757600080fd5b5051919050565b9283526001600160a01b03918216602084015216604082015260600190565b6001600160a01b03929092168252602082015260400190565b634e487b7160e01b600052603260045260246000fd5b6000808335601e198436030181126152b357600080fd5b83018035915067ffffffffffffffff8211156152ce57600080fd5b6020019150368190038213156152e357600080fd5b9250929050565b634e487b7160e01b600052601160045260246000fd5b60008219821115615313576153136152ea565b500190565b60008282101561532a5761532a6152ea565b500390565b6020808252602c908201527f46756e6374696f6e206d7573742062652063616c6c6564207468726f7567682060408201526b19195b1959d85d1958d85b1b60a21b606082015260800190565b6020808252602c908201527f46756e6374696f6e206d7573742062652063616c6c6564207468726f7567682060408201526b6163746976652070726f787960a01b606082015260800190565b6020808252600d908201526c1393d7d513d2d15397d4d15395609a1b604082015260600190565b6020808252600e908201526d1393d7d513d2d15394d7d4d1539560921b604082015260600190565b6000806040838503121561542957600080fd5b505080516020909101519092909150565b8183823760009101908152919050565b6020808252602e908201527f496e697469616c697a61626c653a20636f6e747261637420697320616c72656160408201526d191e481a5b9a5d1a585b1a5e995960921b606082015260800190565b6020808252602b908201527f496e697469616c697a61626c653a20636f6e7472616374206973206e6f74206960408201526a6e697469616c697a696e6760a81b606082015260800190565b60008160001904831182151516156154fd576154fd6152ea565b500290565b60008261551f57634e487b7160e01b600052601260045260246000fd5b500490565b60008060006060848603121561553957600080fd5b8351925060208401519150604084015190509250925092565b6001600160a01b039687168152602081019590955260408501939093526060840191909152909216608082015260a081019190915260c00190565b60005b838110156155a8578181015183820152602001615590565b83811115613df75750506000910152565b600082516155cb81846020870161558d565b9190910192915050565b60208152600082518060208401526155f481604085016020870161558d565b601f01601f1916919091016040019291505056fe3115d1449a7b732c986cba18244e897a450f61e1bb8d589cd2e69e6c8924f9f7360894a13ba1a3210667c828492db98dca3e2076cc3735a920a3ca505d382bbc7cfff908a4b583f36430b25d75964c458d8ede8a99bd61be750e97ee1b2f3a96416464726573733a206c6f772d6c6576656c2064656c65676174652063616c6c206661696c65640000000000000000000000000d500b1d8e8ef31e21c99d1db9a6444d3adf1270a2646970667358221220f5ecff8d67a0a38039ecbaeabae165fc5c75e40092a87c409a9b84fa7286bb0164736f6c634300080a0033496e697469616c697a61626c653a20636f6e747261637420697320616c726561",
  "immutableReferences": {
    "561": [
      {
        "length": 32,
        "start": 3239
      },
      {
        "length": 32,
        "start": 3303
      },
      {
        "length": 32,
        "start": 5001
      },
      {
        "length": 32,
        "start": 5065
      },
      {
        "length": 32,
        "start": 5581
      }
    ]
  },
  "source": "// SPDX-License-Identifier: MIT\r\npragma solidity 0.8.10;\r\n\r\nimport {IUnoFarmQuickswapDual as Farm} from '../apps/quickswapDual/interfaces/IUnoFarmQuickswapDual.sol'; \r\nimport '../interfaces/IUniswapV2Router.sol';\r\nimport '../interfaces/IUnoFarmFactory.sol';\r\nimport '../interfaces/IUnoAccessManager.sol'; \r\nimport '../interfaces/IUniswapV2Pair.sol';\r\nimport '../interfaces/IStakingDualRewards.sol';\r\nimport '../interfaces/IWMATIC.sol';\r\nimport '@openzeppelin/contracts-upgradeable/token/ERC20/IERC20Upgradeable.sol';\r\nimport '@openzeppelin/contracts-upgradeable/token/ERC20/utils/SafeERC20Upgradeable.sol';\r\nimport '@openzeppelin/contracts-upgradeable/proxy/utils/Initializable.sol';\r\nimport '@openzeppelin/contracts-upgradeable/security/PausableUpgradeable.sol';\r\nimport '@openzeppelin/contracts-upgradeable/proxy/utils/UUPSUpgradeable.sol';\r\n\r\ncontract UnoAssetRouterQuickswapDualV2 is Initializable, PausableUpgradeable, UUPSUpgradeable {\r\n    using SafeERC20Upgradeable for IERC20Upgradeable;\r\n\r\n    /**\r\n     * @dev Contract Variables:\r\n     * farmFactory - The contract that deploys new Farms and links them to {lpStakingPool}s.\r\n     * accessManager - Role manager contract.\r\n     */\r\n    IUnoFarmFactory public farmFactory;\r\n    IUnoAccessManager public accessManager;\r\n\r\n    bytes32 private constant DISTRIBUTOR_ROLE = keccak256('DISTRIBUTOR_ROLE');\r\n    bytes32 private constant PAUSER_ROLE = keccak256('PAUSER_ROLE');\r\n\r\n    uint256 public fee;\r\n\r\n    address public constant WMATIC = 0x0d500B1d8E8eF31E21C99d1Db9A6444d3ADf1270;\r\n    IUniswapV2Router01 private constant QuickswapRouter = IUniswapV2Router01(0xa5E0829CaCEd8fFDD4De3c43696c57F7D7A678ff); \r\n    address private constant OneInchRouter = 0x1111111254EEB25477B68fb85Ed929f73A960582;\r\n\r\n    uint256 public constant version = 2;\r\n\r\n    event Deposit(address indexed lpPool, address indexed sender, address indexed recipient, uint256 amount);\r\n    event Withdraw(address indexed lpPool, address indexed sender, address indexed recipient, uint256 amount);\r\n    event Distribute(address indexed lpPool, uint256 reward);\r\n\r\n    event FeeChanged(uint256 previousFee, uint256 newFee);\r\n\r\n    modifier onlyRole(bytes32 role){\r\n        require(accessManager.hasRole(role, msg.sender), 'CALLER_NOT_AUTHORIZED');\r\n        _;\r\n    }\r\n\r\n    // ============ Methods ============\r\n\r\n    /// @custom:oz-upgrades-unsafe-allow constructor\r\n    constructor() {\r\n        _disableInitializers();\r\n    }\r\n\r\n    function initialize(address _accessManager, address _farmFactory) external initializer{\r\n        require (_accessManager != address(0), 'BAD_ACCESS_MANAGER');\r\n        require (_farmFactory != address(0), 'BAD_FARM_FACTORY');\r\n\r\n        __Pausable_init();\r\n        accessManager = IUnoAccessManager(_accessManager);\r\n        farmFactory = IUnoFarmFactory(_farmFactory);\r\n    }\r\n\r\n    receive() external payable {\r\n        require(msg.sender == WMATIC || msg.sender == address(QuickswapRouter), 'ONLY_ACCEPT_WMATIC_OR_ROUTER'); // only accept ETH via fallback from the WMATIC or router contract\r\n    }\r\n\r\n    /**\r\n     * @dev Deposits tokens in the given pool. Creates new Farm contract if there isn't one deployed for the {lpStakingPool} and deposits tokens in it. Emits a {Deposit} event.\r\n     * @param lpStakingPool - Address of the pool to deposit tokens in.\r\n     * @param amountA  - Token A amount to deposit.\r\n     * @param amountB -  Token B amount to deposit.\r\n     * @param amountAMin - Bounds the extent to which the B/A price can go up before the transaction reverts.\r\n     * @param amountBMin - Bounds the extent to which the A/B price can go up before the transaction reverts.\r\n     * @param recipient - Address which will receive the deposit.\r\n     \r\n     * @return sentA - Token A amount sent to the farm.\r\n     * @return sentB - Token B amount sent to the farm.\r\n     * @return liquidity - Total liquidity sent to the farm (in lpTokens).\r\n     */\r\n    function deposit(address lpStakingPool, uint256 amountA, uint256 amountB, uint256 amountAMin, uint256 amountBMin, address recipient) external whenNotPaused returns(uint256 sentA, uint256 sentB, uint256 liquidity){\r\n        require(amountA > 0 && amountB > 0, \"NO_TOKENS_SENT\");\r\n        Farm farm = Farm(farmFactory.Farms(lpStakingPool));\r\n        if(farm == Farm(address(0))){\r\n            farm = Farm(farmFactory.createFarm(lpStakingPool));\r\n        }\r\n\r\n        address tokenA = farm.tokenA();\r\n        address tokenB = farm.tokenB();\r\n        IERC20Upgradeable(tokenA).safeTransferFrom(msg.sender, address(this), amountA);\r\n        IERC20Upgradeable(tokenB).safeTransferFrom(msg.sender, address(this), amountB);\r\n\r\n        (sentA, sentB, liquidity) = _addLiquidity(tokenA, tokenB, amountA, amountB, amountAMin, amountBMin, address(farm));\r\n        farm.deposit(liquidity, recipient);\r\n\r\n        emit Deposit(lpStakingPool, msg.sender, recipient, liquidity); \r\n    }\r\n\r\n    /**\r\n     * @dev Autoconverts MATIC into WMATIC and deposits tokens in the given pool. Creates new Farm contract if there isn't one deployed for the {lpStakingPool} and deposits tokens in it. Emits a {Deposit} event.\r\n     * @param lpStakingPool - Address of the pool to deposit tokens in.\r\n     * @param amountToken  - Token amount to deposit.\r\n     * @param amountTokenMin - Bounds the extent to which the TOKEN/WMATIC price can go up before the transaction reverts.\r\n     * @param amountETHMin - Bounds the extent to which the WMATIC/TOKEN price can go up before the transaction reverts.\r\n     * @param recipient - Address which will receive the deposit.\r\n     \r\n     * @return sentToken - Token amount sent to the farm.\r\n     * @return sentETH - WMATIC amount sent to the farm.\r\n     * @return liquidity - Total liquidity sent to the farm (in lpTokens).\r\n     */\r\n    function depositETH(address lpStakingPool, uint256 amountToken, uint256 amountTokenMin, uint256 amountETHMin, address recipient) external payable whenNotPaused returns(uint256 sentToken, uint256 sentETH, uint256 liquidity){\r\n        require(msg.value > 0, \"NO_MATIC_SENT\");\r\n        require(amountToken > 0, \"NO_TOKEN_SENT\");\r\n        Farm farm = Farm(farmFactory.Farms(lpStakingPool));\r\n        if(farm == Farm(address(0))){\r\n            farm = Farm(farmFactory.createFarm(lpStakingPool));\r\n        }\r\n\r\n        address tokenA = farm.tokenA();\r\n        address tokenB = farm.tokenB();\r\n        if (tokenA == WMATIC) {\r\n            IERC20Upgradeable(tokenB).safeTransferFrom(msg.sender, address(this), amountToken);\r\n            (sentToken, sentETH, liquidity) = _addLiquidityETH(tokenB, amountToken, amountTokenMin, amountETHMin, address(farm));\r\n        } else if (tokenB == WMATIC) {\r\n            IERC20Upgradeable(tokenA).safeTransferFrom(msg.sender, address(this), amountToken);\r\n            (sentToken, sentETH, liquidity) = _addLiquidityETH(tokenA, amountToken, amountTokenMin, amountETHMin, address(farm));\r\n        } else {\r\n            revert(\"NOT_WMATIC_POOL\");\r\n        }\r\n        farm.deposit(liquidity, recipient);\r\n\r\n        emit Deposit(lpStakingPool, msg.sender, recipient, liquidity);\r\n    }\r\n\r\n    /**\r\n     * @dev Deposits single token in the given pool. Creates new Farm contract if there isn't one deployed for the {lpStakingPool}, swaps {token} for pool tokens and deposits them. Emits a {Deposit} event.\r\n     * @param lpStakingPool - Address of the pool to deposit tokens in.\r\n     * @param token  - Address of a token to enter the pool.\r\n     * @param amount - Amount of token sent.\r\n     * @param swapData - Parameter with which 1inch router is being called with.\r\n     * @param amountAMin - Bounds the extent to which the B/A price can go up before the transaction reverts.\r\n     * @param amountBMin - Bounds the extent to which the A/B price can go up before the transaction reverts.\r\n     * @param recipient - Address which will receive the deposit.\r\n     \r\n     * @return sent - Total {token} amount sent to the farm. NOTE: Returns dust left from swap in {token}, but if A/B amounts are not correct also returns dust in pool's tokens.\r\n     * @return liquidity - Total liquidity sent to the farm (in lpTokens).\r\n     */\r\n    function depositSingleAsset(address lpStakingPool, address token, uint256 amount, bytes[2] calldata swapData, uint256 amountAMin, uint256 amountBMin, address recipient) external whenNotPaused returns(uint256 sent, uint256 liquidity){\r\n        require(amount > 0, \"NO_TOKEN_SENT\");\r\n        Farm farm = Farm(farmFactory.Farms(lpStakingPool));\r\n        if(farm == Farm(address(0))){\r\n            farm = Farm(farmFactory.createFarm(lpStakingPool));\r\n        }\r\n\r\n        IERC20Upgradeable(token).safeTransferFrom(msg.sender, address(this), amount);\r\n        IERC20Upgradeable(token).approve(OneInchRouter, amount);\r\n\r\n        sent = amount;\r\n        uint256 amountA;\r\n        uint256 amountB;\r\n        address tokenA = farm.tokenA();\r\n        address tokenB = farm.tokenB();\r\n\r\n        if (tokenA != token) {\r\n            (uint256 returnAmount, uint256 spentAmount) = _swap(swapData[0], tokenA);\r\n            amount -= spentAmount;\r\n            amountA = returnAmount;\r\n        }\r\n        if (tokenB != token) {\r\n            (uint256 returnAmount, uint256 spentAmount) = _swap(swapData[0], tokenB);\r\n            amount -= spentAmount;\r\n            amountB = returnAmount;\r\n        }\r\n\r\n        if (tokenA == token) {\r\n            amountA = amount;\r\n        } else if (tokenB == token) {\r\n            amountB = amount;\r\n        } else if(amount > 0) {\r\n            sent -= amount;\r\n            IERC20Upgradeable(token).safeTransfer(msg.sender, amount);\r\n        }\r\n\r\n        require(amountA > 0 && amountB > 0, \"NO_TOKENS_SENT\");\r\n        (,,liquidity) = _addLiquidity(tokenA, tokenB, amountA, amountB, amountAMin, amountBMin, address(farm));\r\n        farm.deposit(liquidity, recipient);\r\n        \r\n        emit Deposit(lpStakingPool, msg.sender, recipient, liquidity);\r\n    }\r\n     \r\n    /**\r\n     * @dev Deposits single MATIC in the given pool. Creates new Farm contract if there isn't one deployed for the {lpStakingPool}, swaps MATIC for pool tokens and deposits them. Emits a {Deposit} event.\r\n     * @param lpStakingPool - Address of the pool to deposit tokens in.\r\n     * @param swapData - Parameter with which 1inch router is being called with. NOTE: Use WMATIC as toToken.\r\n     * @param amountAMin - Bounds the extent to which the B/A price can go up before the transaction reverts.\r\n     * @param amountBMin - Bounds the extent to which the A/B price can go up before the transaction reverts.\r\n     * @param recipient - Address which will receive the deposit.\r\n     \r\n     * @return sentETH - Total MATIC amount sent to the farm. NOTE: Returns dust left from swap in MATIC, but if A/B amount are not correct also returns dust in pool's tokens.\r\n     * @return liquidity - Total liquidity sent to the farm (in lpTokens).\r\n     */\r\n    function depositSingleETH(address lpStakingPool, bytes[2] calldata swapData, uint256 amountAMin, uint256 amountBMin, address recipient) external payable whenNotPaused returns(uint256 sentETH, uint256 liquidity){\r\n        require(msg.value > 0, \"NO_MATIC_SENT\");\r\n        Farm farm = Farm(farmFactory.Farms(lpStakingPool));\r\n        if(farm == Farm(address(0))){\r\n            farm = Farm(farmFactory.createFarm(lpStakingPool));\r\n        }\r\n\r\n        uint256 amount = msg.value;\r\n        IWMATIC(WMATIC).deposit{value: amount}();\r\n        IERC20Upgradeable(WMATIC).approve(OneInchRouter, amount);\r\n\r\n        sentETH = amount;\r\n        uint256 amountA;\r\n        uint256 amountB;\r\n        address tokenA = farm.tokenA();\r\n        address tokenB = farm.tokenB();\r\n\r\n        if (tokenA != WMATIC) {\r\n            (uint256 returnAmount, uint256 spentAmount) = _swap(swapData[0], tokenA);\r\n            amount -= spentAmount;\r\n            amountA = returnAmount;\r\n        }\r\n        if (tokenB != WMATIC) {\r\n            (uint256 returnAmount, uint256 spentAmount) = _swap(swapData[1], tokenB);\r\n            amount -= spentAmount;\r\n            amountB = returnAmount;\r\n        }\r\n\r\n        if (tokenA == WMATIC) {\r\n            amountA = amount;\r\n        } else if (tokenB == WMATIC) {\r\n            amountB = amount;\r\n        } else if (amount > 0) {\r\n            sentETH -= amount;\r\n            IWMATIC(WMATIC).withdraw(amount);\r\n            payable(msg.sender).transfer(amount);\r\n        }\r\n\r\n        require(amountA > 0 && amountB > 0, \"NO_TOKENS_SENT\");\r\n        (,,liquidity) = _addLiquidity(tokenA, tokenB, amountA, amountB, amountAMin, amountBMin, address(farm));\r\n        farm.deposit(liquidity, recipient);\r\n\r\n        emit Deposit(lpStakingPool, msg.sender, recipient, liquidity);\r\n    }\r\n\r\n    /**\r\n     * @dev Deposits tokens in the given pool. Creates new Farm contract if there isn't one deployed for the {lpStakingPool} and deposits tokens in it. Emits a {Deposit} event.\r\n     * @param lpStakingPool - Address of the pool to deposit tokens in.\r\n     * @param amount - LP Token amount to deposit.\r\n     * @param recipient - Address which will receive the deposit.\r\n     */\r\n    function depositLP(address lpStakingPool, uint256 amount, address recipient) external whenNotPaused{\r\n        require(amount > 0, \"NO_TOKEN_SENT\");\r\n        Farm farm = Farm(farmFactory.Farms(lpStakingPool));\r\n        if(farm == Farm(address(0))){\r\n            farm = Farm(farmFactory.createFarm(lpStakingPool));\r\n        }\r\n\r\n        IERC20Upgradeable(farm.lpPair()).safeTransferFrom(msg.sender, address(farm), amount);\r\n        farm.deposit(amount, recipient);\r\n\r\n        emit Deposit(lpStakingPool, msg.sender, recipient, amount); \r\n    }\r\n\r\n    /** \r\n     * @dev Withdraws tokens from the given pool. Emits a {Withdraw} event.\r\n     * @param lpStakingPool - LP pool to withdraw from.\r\n     * @param amount - LP amount to withdraw. \r\n     * @param amountAMin - The minimum amount of tokenA that must be received for the transaction not to revert.\r\n     * @param amountBMin - The minimum amount of tokenB that must be received for the transaction not to revert.\r\n     * @param recipient - The address which will receive tokens.\r\n\r\n     * @return amountA - Token A amount sent to the {recipient}.\r\n     * @return amountB - Token B amount sent to the {recipient}.\r\n     */ \r\n    function withdraw(address lpStakingPool, uint256 amount, uint256 amountAMin, uint256 amountBMin, address recipient) external returns(uint256 amountA, uint256 amountB){\r\n        Farm farm = Farm(farmFactory.Farms(lpStakingPool));\r\n        require(farm != Farm(address(0)),'FARM_NOT_EXISTS');\r\n        \r\n        farm.withdraw(amount, msg.sender, address(this));\r\n        (amountA, amountB) = _removeLiquidity(farm.lpPair(), farm.tokenA(), farm.tokenB(), amount, amountAMin, amountBMin, recipient);\r\n\r\n        emit Withdraw(lpStakingPool, msg.sender, recipient, amount);  \r\n    }\r\n\r\n    /** \r\n     * @dev Autoconverts WMATIC into MATIC and withdraws tokens from the pool. Emits a {Withdraw} event.\r\n     * @param lpStakingPool - LP pool to withdraw from.\r\n     * @param amount - LP amount to withdraw. \r\n     * @param amountTokenMin - The minimum amount of token that must be received for the transaction not to revert.\r\n     * @param amountETHMin - The minimum amount of MATIC that must be received for the transaction not to revert.\r\n     * @param recipient - The address which will receive tokens.\r\n\r\n     * @return amountToken - Token amount sent to the {recipient}.\r\n     * @return amountETH - MATIC amount sent to the {recipient}.\r\n     */ \r\n    function withdrawETH(address lpStakingPool, uint256 amount, uint256 amountTokenMin, uint256 amountETHMin, address recipient) external returns(uint256 amountToken, uint256 amountETH){\r\n        Farm farm = Farm(farmFactory.Farms(lpStakingPool));\r\n        require(farm != Farm(address(0)),'FARM_NOT_EXISTS');\r\n\r\n        address tokenA = farm.tokenA();\r\n        address tokenB = farm.tokenB();\r\n        address lpPair = farm.lpPair();\r\n\r\n        farm.withdraw(amount, msg.sender, address(this));\r\n        if (tokenA == WMATIC) {\r\n            (amountToken, amountETH) = _removeLiquidityETH(lpPair, tokenB, amount, amountTokenMin, amountETHMin, recipient);\r\n        } else if (tokenB == WMATIC) {\r\n            (amountToken, amountETH) = _removeLiquidityETH(lpPair, tokenA, amount, amountTokenMin, amountETHMin, recipient);\r\n        } else {\r\n            revert(\"NOT_WMATIC_POOL\");\r\n        }\r\n\r\n        emit Withdraw(lpStakingPool, msg.sender, recipient, amount);\r\n    }\r\n\r\n     /**\r\n     * @dev Withdraws single token from the given pool. Emits a {Withdraw} event. Note: If there are any tokens left to be withdrawn after swaps they will be sent to the {{recipient}} in a respective token (not in {token}).\r\n     * @param lpStakingPool - LP pool to withdraw from.\r\n     * @param amount - LP amount to withdraw. \r\n     * @param token  - Address of a token to exit the pool with.\r\n     * @param swapData - Parameter with which 1inch router is being called with.\r\n     * @param recipient - Address which will receive the deposit.\r\n     \r\n     * @return amountToken - {token} amount sent to the {recipient}.\r\n     * @return amountA - Token A dust sent to the {recipient}.\r\n     * @return amountB - Token B dust sent to the {recipient}.\r\n     */\r\n    function withdrawSingleAsset(address lpStakingPool, uint256 amount, address token, bytes[2] calldata swapData, address recipient) external whenNotPaused returns(uint256 amountToken, uint256 amountA, uint256 amountB){\r\n        Farm farm = Farm(farmFactory.Farms(lpStakingPool));\r\n        require(farm != Farm(address(0)),'FARM_NOT_EXISTS');\r\n\r\n        farm.withdraw(amount, msg.sender, address(this));\r\n\r\n        address tokenA = farm.tokenA();\r\n        address tokenB = farm.tokenB();\r\n        (amountA, amountB) = _removeLiquidity(farm.lpPair(), tokenA, tokenB, amount, 0, 0, address(this));\r\n\r\n        if (tokenA != token) {\r\n            IERC20Upgradeable(tokenA).approve(OneInchRouter, amountA);\r\n            (uint256 returnAmount, uint256 spentAmount) = _swap(swapData[0], token);\r\n            amountToken += returnAmount;\r\n\r\n            amountA = amountA - spentAmount;\r\n            IERC20Upgradeable(tokenA).safeTransfer(recipient, amountA);\r\n        } else {\r\n            amountToken += amountA;\r\n        }\r\n\r\n        if (tokenB != token) {\r\n            IERC20Upgradeable(tokenB).approve(OneInchRouter, amountB);\r\n            (uint256 returnAmount, uint256 spentAmount) = _swap(swapData[1], token);\r\n            amountToken += returnAmount;\r\n\r\n            amountB = amountB - spentAmount;\r\n            IERC20Upgradeable(tokenB).safeTransfer(recipient, amountB);\r\n        } else {\r\n            amountToken += amountB;\r\n        }\r\n\r\n        IERC20Upgradeable(token).safeTransfer(recipient, amountToken);\r\n\r\n        emit Withdraw(lpStakingPool, msg.sender, recipient, amount);\r\n    }\r\n     \r\n    /**\r\n     * @dev Withdraws single MATIC from the given pool. Emits a {Withdraw} event. Note: If there are any tokens left to be withdrawn after swaps they will be sent to the {{recipient}} in a respective token (not in MATIC).\r\n     * @param lpStakingPool - LP pool to withdraw from.\r\n     * @param amount - LP amount to withdraw. \r\n     * @param swapData - Parameter with which 1inch router is being called with.\r\n     * @param recipient - Address which will receive the deposit.\r\n     \r\n     * @return amountETH - MATIC amount sent to the {recipient}.\r\n     * @return amountA - Token A dust sent to the {recipient}.\r\n     * @return amountB - Token B dust sent to the {recipient}.\r\n     */\r\n    function withdrawSingleETH(address lpStakingPool,  uint256 amount, bytes[2] calldata swapData, address recipient) external whenNotPaused returns(uint256 amountETH, uint256 amountA, uint256 amountB){\r\n        Farm farm = Farm(farmFactory.Farms(lpStakingPool));\r\n        require(farm != Farm(address(0)),'FARM_NOT_EXISTS');\r\n\r\n        farm.withdraw(amount, msg.sender, address(this));\r\n\r\n        address tokenA = farm.tokenA();\r\n        address tokenB = farm.tokenB();\r\n        (amountA, amountB) = _removeLiquidity(farm.lpPair(), tokenA, tokenB, amount, 0, 0, address(this));\r\n\r\n        if (tokenA != WMATIC) {\r\n            IERC20Upgradeable(tokenA).approve(OneInchRouter, amountA);\r\n            (uint256 returnAmount, uint256 spentAmount) = _swap(swapData[0], WMATIC);\r\n            amountETH += returnAmount;\r\n\r\n            amountA = amountA - spentAmount;\r\n            IERC20Upgradeable(tokenA).safeTransfer(recipient, amountA);\r\n        } else {\r\n            amountETH += amountA;\r\n        }\r\n\r\n        if (tokenB != WMATIC) {\r\n            IERC20Upgradeable(tokenB).approve(OneInchRouter, amountB);\r\n            (uint256 returnAmount, uint256 spentAmount) = _swap(swapData[1], WMATIC);\r\n            amountETH += returnAmount;\r\n\r\n            amountB = amountB - spentAmount;\r\n            IERC20Upgradeable(tokenB).safeTransfer(recipient, amountB);\r\n        } else {\r\n            amountETH += amountB;\r\n        }\r\n\r\n        IWMATIC(WMATIC).withdraw(amountETH);\r\n        payable(recipient).transfer(amountETH);\r\n\r\n        emit Withdraw(lpStakingPool, msg.sender, recipient, amount);\r\n    }\r\n\r\n    /** \r\n     * @dev Withdraws LP tokens from the given pool. Emits a {Withdraw} event.\r\n     * @param lpStakingPool - LP pool to withdraw from.\r\n     * @param amount - LP amount to withdraw. \r\n     * @param recipient - The address which will receive tokens.\r\n     */ \r\n    function withdrawLP(address lpStakingPool, uint256 amount, address recipient) external {\r\n        Farm farm = Farm(farmFactory.Farms(lpStakingPool));\r\n        require(farm != Farm(address(0)),'FARM_NOT_EXISTS');\r\n        \r\n        farm.withdraw(amount, msg.sender, recipient);\r\n        emit Withdraw(lpStakingPool, msg.sender, recipient, amount);  \r\n    }\r\n\r\n     /**\r\n     * @dev Distributes tokens between users.\r\n     * @param lpStakingPool - LP pool to distribute tokens in.\r\n     * @param swapInfos - Arrays of structs with token arrays describing swap routes (rewardTokenAToTokenA, rewardTokenAToTokenB, rewardTokenBToTokenA, rewardTokenBToTokenB) and minimum amounts of output tokens that must be received for the transaction not to revert.\r\n     * @param feeSwapInfos - Arrays of structs with token arrays describing swap routes (rewardTokenAToFeeToken, rewardTokenBToFeeToken) and minimum amounts of output tokens that must be received for the transaction not to revert.\r\n     * @param feeTo - Address to collect fees to.\r\n     *\r\n     * Note: This function can only be called by the distributor.\r\n     */ \r\n    function distribute(\r\n        address lpStakingPool,\r\n        Farm.SwapInfo[4] calldata swapInfos,\r\n        Farm.SwapInfo[2] calldata feeSwapInfos,\r\n        address feeTo\r\n    ) external whenNotPaused onlyRole(DISTRIBUTOR_ROLE) {\r\n        Farm farm = Farm(farmFactory.Farms(lpStakingPool));\r\n        require(farm != Farm(address(0)), 'FARM_NOT_EXISTS');\r\n\r\n        uint256 reward = farm.distribute(swapInfos, feeSwapInfos, Farm.FeeInfo(feeTo, fee));\r\n        emit Distribute(lpStakingPool, reward);\r\n    }\r\n\r\n    /**\r\n     * @dev Returns tokens staked by the {_address} for the given {lpStakingPool}.\r\n     * @param _address - The address to check stakes for.\r\n     * @param lpStakingPool - LP pool to check stakes in.\r\n\r\n     * @return stakeLP - Total user stake(in LP tokens).\r\n     * @return stakeA - Token A stake.\r\n     * @return stakeB - Token B stake.\r\n     */\r\n    function userStake(address _address, address lpStakingPool) external view returns (uint256 stakeLP, uint256 stakeA, uint256 stakeB) {\r\n        Farm farm = Farm(farmFactory.Farms(lpStakingPool));\r\n        if (farm != Farm(address(0))) {\r\n            stakeLP = farm.userBalance(_address);\r\n            address lpPair = farm.lpPair();\r\n            (stakeA, stakeB) = _getTokenStake(lpPair, stakeLP);\r\n        }\r\n    }\r\n\r\n    /**\r\n     * @dev Returns total amount locked in the pool. Doesn't take pending rewards into account.\r\n     * @param lpStakingPool - LP pool to check total deposits in.\r\n\r\n     * @return totalDepositsLP - Total deposits (in LP tokens).\r\n     * @return totalDepositsA - Token A deposits.\r\n     * @return totalDepositsB - Token B deposits.\r\n     */  \r\n    function totalDeposits(address lpStakingPool) external view returns (uint256 totalDepositsLP, uint256 totalDepositsA, uint256 totalDepositsB) {\r\n        Farm farm = Farm(farmFactory.Farms(lpStakingPool));\r\n        if (farm != Farm(address(0))) {\r\n            totalDepositsLP = farm.getTotalDeposits();\r\n            address lpPair = farm.lpPair();\r\n            (totalDepositsA, totalDepositsB) = _getTokenStake(lpPair, totalDepositsLP);\r\n        }\r\n    }\r\n\r\n    /**\r\n     * @dev Returns addresses of pair of tokens in {lpStakingPool}.\r\n     * @param lpStakingPool - LP pool to check tokens in.\r\n\r\n     * @return tokens - Tokens addresses.\r\n     */  \r\n    function getTokens(address lpStakingPool) external view returns(IERC20[] memory tokens){\r\n        tokens = new IERC20[](2);\r\n        IUniswapV2Pair stakingToken = IUniswapV2Pair(address(IStakingDualRewards(lpStakingPool).stakingToken()));\r\n        tokens[0] = IERC20(stakingToken.token0());\r\n        tokens[1] = IERC20(stakingToken.token1());\r\n    }\r\n\r\n    /**\r\n     * @dev Deposits assets to router & refunds dust.\r\n     */ \r\n    function _addLiquidity(\r\n        address tokenA,\r\n        address tokenB, \r\n        uint256 amountA, \r\n        uint256 amountB, \r\n        uint256 amountAMin, \r\n        uint256 amountBMin, \r\n        address farm\r\n    ) internal returns(uint256 sentA, uint256 sentB, uint256 liquidity){\r\n        IERC20Upgradeable(tokenA).approve(address(QuickswapRouter), amountA);\r\n        IERC20Upgradeable(tokenB).approve(address(QuickswapRouter), amountB);\r\n\r\n        (sentA, sentB, liquidity) = QuickswapRouter.addLiquidity(tokenA, tokenB, amountA, amountB, amountAMin, amountBMin, farm, block.timestamp);\r\n        // Refund dust\r\n        IERC20Upgradeable(tokenA).safeTransfer(msg.sender, amountA - sentA);\r\n\t\tIERC20Upgradeable(tokenB).safeTransfer(msg.sender, amountB - sentB);\r\n    }\r\n\r\n    /**\r\n     * @dev Deposits assets to router & refunds dust.\r\n     */ \r\n    function _addLiquidityETH(\r\n        address token,\r\n        uint256 amount, \r\n        uint256 amountTokenMin, \r\n        uint256 amountETHMin, \r\n        address farm\r\n    ) internal returns(uint256 sentToken, uint256 sentETH, uint256 liquidity){\r\n        IERC20Upgradeable(token).approve(address(QuickswapRouter), amount);\r\n\r\n        (sentToken, sentETH, liquidity) = QuickswapRouter.addLiquidityETH{value: msg.value}(token, amount, amountTokenMin, amountETHMin, farm, block.timestamp);\r\n        // Refund dust\r\n        IERC20Upgradeable(token).safeTransfer(msg.sender, amount - sentToken);\r\n        payable(msg.sender).transfer(msg.value - sentETH);\r\n    }\r\n\r\n    /**\r\n     * @dev Deposits assets to router & refunds dust.\r\n     */ \r\n    function _removeLiquidity(\r\n        address lpPair,\r\n        address tokenA,\r\n        address tokenB, \r\n        uint256 amount, \r\n        uint256 amountAMin, \r\n        uint256 amountBMin, \r\n        address recipient\r\n    ) internal returns(uint256 amountA, uint256 amountB){\r\n        IERC20Upgradeable(lpPair).approve(address(QuickswapRouter), amount);\r\n        (amountA, amountB) = QuickswapRouter.removeLiquidity(tokenA, tokenB, amount, amountAMin, amountBMin, recipient, block.timestamp);\r\n    }\r\n\r\n    /**\r\n     * @dev Deposits assets to router & refunds dust.\r\n     */ \r\n    function _removeLiquidityETH(\r\n        address lpPair,\r\n        address token,\r\n        uint256 amount, \r\n        uint256 amountTokenMin, \r\n        uint256 amountETHMin, \r\n        address recipient\r\n    ) internal returns(uint256 amountToken, uint256 amountETH){\r\n        IERC20Upgradeable(lpPair).approve(address(QuickswapRouter), amount);\r\n        (amountToken, amountETH) = QuickswapRouter.removeLiquidityETH(token, amount, amountTokenMin, amountETHMin, recipient, block.timestamp);\r\n    }\r\n\r\n    /**\r\n     * @dev Swaps assets using 1inch exchange.\r\n     */  \r\n    function _swap(bytes calldata swapData, address toToken) internal returns(uint256 returnAmount, uint256 spentAmount){\r\n        uint256 balanceBefore = IERC20Upgradeable(toToken).balanceOf(address(this));\r\n        (bool success, bytes memory data) = OneInchRouter.call(swapData);\r\n        require(success, \"SWAP_NOT_SUCCESSFUL\");\r\n\r\n        (returnAmount, spentAmount) = abi.decode(data, (uint256, uint256));\r\n        //checks if all {{toToken}}s from swap were transfered to this address\r\n        uint256 balanceAfter = IERC20Upgradeable(toToken).balanceOf(address(this));\r\n        require(balanceAfter - balanceBefore == returnAmount, \"BAD_RETURN_AMOUNT\");\r\n    }\r\n\r\n    /**\r\n     * @dev Converts LP tokens to normal tokens, value(amountA) == value(amountB) == 0.5*amountLP\r\n     * @param lpPair - LP pair for conversion.\r\n     * @param amountLP - Amount of LP tokens to convert.\r\n\r\n     * @return amountA - Token A amount.\r\n     * @return amountB - Token B amount.\r\n     */ \r\n    function _getTokenStake(address lpPair, uint256 amountLP) internal view returns (uint256 amountA, uint256 amountB) {\r\n        uint256 totalSupply = IERC20Upgradeable(lpPair).totalSupply();\r\n        amountA = amountLP * IERC20Upgradeable(IUniswapV2Pair(lpPair).token0()).balanceOf(lpPair) / totalSupply;\r\n        amountB = amountLP * IERC20Upgradeable(IUniswapV2Pair(lpPair).token1()).balanceOf(lpPair) / totalSupply;\r\n    }\r\n\r\n    /**\r\n     * @dev Change fee amount.\r\n     * @param _fee -New fee to collect from farms. [10^18 == 100%]\r\n     *\r\n     * Note: This function can only be called by ADMIN_ROLE.\r\n     */ \r\n    function setFee(uint256 _fee) external onlyRole(accessManager.ADMIN_ROLE()){\r\n        require (_fee <= 1 ether, \"BAD_FEE\");\r\n        if(fee != _fee){\r\n            emit FeeChanged(fee, _fee); \r\n            fee = _fee;\r\n        }\r\n    }\r\n\r\n    function pause() external onlyRole(PAUSER_ROLE) {\r\n        _pause();\r\n    }\r\n\r\n    function unpause() external onlyRole(PAUSER_ROLE) {\r\n        _unpause();\r\n    }\r\n\r\n    function _authorizeUpgrade(address) internal override onlyRole(accessManager.ADMIN_ROLE()) {\r\n\r\n    }\r\n}\r\n",
  "sourcePath": "C:\\Users\\jugli\\Desktop\\uno\\uno-contracts\\contracts\\test\\UnoAssetRouterQuickswapDualV2.sol",
  "compiler": {
    "name": "solc",
    "version": "0.8.10+commit.fc410830.Emscripten.clang"
  },
  "schemaVersion": "3.4.11",
  "updatedAt": "2023-04-19T08:50:32.502Z",
  "devdoc": {
    "kind": "dev",
    "methods": {
      "constructor": {
        "custom:oz-upgrades-unsafe-allow": "constructor"
      },
      "deposit(address,uint256,uint256,uint256,uint256,address)": {
        "details": "Deposits tokens in the given pool. Creates new Farm contract if there isn't one deployed for the {lpStakingPool} and deposits tokens in it. Emits a {Deposit} event.",
        "params": {
          "amountA": "- Token A amount to deposit.",
          "amountAMin": "- Bounds the extent to which the B/A price can go up before the transaction reverts.",
          "amountB": "-  Token B amount to deposit.",
          "amountBMin": "- Bounds the extent to which the A/B price can go up before the transaction reverts.",
          "lpStakingPool": "- Address of the pool to deposit tokens in.",
          "recipient": "- Address which will receive the deposit."
        },
        "returns": {
          "liquidity": "- Total liquidity sent to the farm (in lpTokens).",
          "sentA": "- Token A amount sent to the farm.",
          "sentB": "- Token B amount sent to the farm."
        }
      },
      "depositETH(address,uint256,uint256,uint256,address)": {
        "details": "Autoconverts MATIC into WMATIC and deposits tokens in the given pool. Creates new Farm contract if there isn't one deployed for the {lpStakingPool} and deposits tokens in it. Emits a {Deposit} event.",
        "params": {
          "amountETHMin": "- Bounds the extent to which the WMATIC/TOKEN price can go up before the transaction reverts.",
          "amountToken": "- Token amount to deposit.",
          "amountTokenMin": "- Bounds the extent to which the TOKEN/WMATIC price can go up before the transaction reverts.",
          "lpStakingPool": "- Address of the pool to deposit tokens in.",
          "recipient": "- Address which will receive the deposit."
        },
        "returns": {
          "liquidity": "- Total liquidity sent to the farm (in lpTokens).",
          "sentETH": "- WMATIC amount sent to the farm.",
          "sentToken": "- Token amount sent to the farm."
        }
      },
      "depositLP(address,uint256,address)": {
        "details": "Deposits tokens in the given pool. Creates new Farm contract if there isn't one deployed for the {lpStakingPool} and deposits tokens in it. Emits a {Deposit} event.",
        "params": {
          "amount": "- LP Token amount to deposit.",
          "lpStakingPool": "- Address of the pool to deposit tokens in.",
          "recipient": "- Address which will receive the deposit."
        }
      },
      "depositSingleAsset(address,address,uint256,bytes[2],uint256,uint256,address)": {
        "details": "Deposits single token in the given pool. Creates new Farm contract if there isn't one deployed for the {lpStakingPool}, swaps {token} for pool tokens and deposits them. Emits a {Deposit} event.",
        "params": {
          "amount": "- Amount of token sent.",
          "amountAMin": "- Bounds the extent to which the B/A price can go up before the transaction reverts.",
          "amountBMin": "- Bounds the extent to which the A/B price can go up before the transaction reverts.",
          "lpStakingPool": "- Address of the pool to deposit tokens in.",
          "recipient": "- Address which will receive the deposit.",
          "swapData": "- Parameter with which 1inch router is being called with.",
          "token": "- Address of a token to enter the pool."
        },
        "returns": {
          "liquidity": "- Total liquidity sent to the farm (in lpTokens).",
          "sent": "- Total {token} amount sent to the farm. NOTE: Returns dust left from swap in {token}, but if A/B amounts are not correct also returns dust in pool's tokens."
        }
      },
      "depositSingleETH(address,bytes[2],uint256,uint256,address)": {
        "details": "Deposits single MATIC in the given pool. Creates new Farm contract if there isn't one deployed for the {lpStakingPool}, swaps MATIC for pool tokens and deposits them. Emits a {Deposit} event.",
        "params": {
          "amountAMin": "- Bounds the extent to which the B/A price can go up before the transaction reverts.",
          "amountBMin": "- Bounds the extent to which the A/B price can go up before the transaction reverts.",
          "lpStakingPool": "- Address of the pool to deposit tokens in.",
          "recipient": "- Address which will receive the deposit.",
          "swapData": "- Parameter with which 1inch router is being called with. NOTE: Use WMATIC as toToken."
        },
        "returns": {
          "liquidity": "- Total liquidity sent to the farm (in lpTokens).",
          "sentETH": "- Total MATIC amount sent to the farm. NOTE: Returns dust left from swap in MATIC, but if A/B amount are not correct also returns dust in pool's tokens."
        }
      },
      "distribute(address,(address[],uint256)[4],(address[],uint256)[2],address)": {
        "details": "Distributes tokens between users.",
        "params": {
          "feeSwapInfos": "- Arrays of structs with token arrays describing swap routes (rewardTokenAToFeeToken, rewardTokenBToFeeToken) and minimum amounts of output tokens that must be received for the transaction not to revert.",
          "feeTo": "- Address to collect fees to. Note: This function can only be called by the distributor.",
          "lpStakingPool": "- LP pool to distribute tokens in.",
          "swapInfos": "- Arrays of structs with token arrays describing swap routes (rewardTokenAToTokenA, rewardTokenAToTokenB, rewardTokenBToTokenA, rewardTokenBToTokenB) and minimum amounts of output tokens that must be received for the transaction not to revert."
        }
      },
      "getTokens(address)": {
        "details": "Returns addresses of pair of tokens in {lpStakingPool}.",
        "params": {
          "lpStakingPool": "- LP pool to check tokens in."
        },
        "returns": {
          "tokens": "- Tokens addresses."
        }
      },
      "paused()": {
        "details": "Returns true if the contract is paused, and false otherwise."
      },
      "proxiableUUID()": {
        "details": "Implementation of the ERC1822 {proxiableUUID} function. This returns the storage slot used by the implementation. It is used to validate that the this implementation remains valid after an upgrade. IMPORTANT: A proxy pointing at a proxiable contract should not be considered proxiable itself, because this risks bricking a proxy that upgrades to it, by delegating to itself until out of gas. Thus it is critical that this function revert if invoked through a proxy. This is guaranteed by the `notDelegated` modifier."
      },
      "setFee(uint256)": {
        "details": "Change fee amount.",
        "params": {
          "_fee": "-New fee to collect from farms. [10^18 == 100%] Note: This function can only be called by ADMIN_ROLE."
        }
      },
      "totalDeposits(address)": {
        "details": "Returns total amount locked in the pool. Doesn't take pending rewards into account.",
        "params": {
          "lpStakingPool": "- LP pool to check total deposits in."
        },
        "returns": {
          "totalDepositsA": "- Token A deposits.",
          "totalDepositsB": "- Token B deposits.",
          "totalDepositsLP": "- Total deposits (in LP tokens)."
        }
      },
      "upgradeTo(address)": {
        "details": "Upgrade the implementation of the proxy to `newImplementation`. Calls {_authorizeUpgrade}. Emits an {Upgraded} event."
      },
      "upgradeToAndCall(address,bytes)": {
        "details": "Upgrade the implementation of the proxy to `newImplementation`, and subsequently execute the function call encoded in `data`. Calls {_authorizeUpgrade}. Emits an {Upgraded} event."
      },
      "userStake(address,address)": {
        "details": "Returns tokens staked by the {_address} for the given {lpStakingPool}.",
        "params": {
          "_address": "- The address to check stakes for.",
          "lpStakingPool": "- LP pool to check stakes in."
        },
        "returns": {
          "stakeA": "- Token A stake.",
          "stakeB": "- Token B stake.",
          "stakeLP": "- Total user stake(in LP tokens)."
        }
      },
      "withdraw(address,uint256,uint256,uint256,address)": {
        "details": "Withdraws tokens from the given pool. Emits a {Withdraw} event.",
        "params": {
          "amount": "- LP amount to withdraw. ",
          "amountAMin": "- The minimum amount of tokenA that must be received for the transaction not to revert.",
          "amountBMin": "- The minimum amount of tokenB that must be received for the transaction not to revert.",
          "lpStakingPool": "- LP pool to withdraw from.",
          "recipient": "- The address which will receive tokens."
        },
        "returns": {
          "amountA": "- Token A amount sent to the {recipient}.",
          "amountB": "- Token B amount sent to the {recipient}."
        }
      },
      "withdrawETH(address,uint256,uint256,uint256,address)": {
        "details": "Autoconverts WMATIC into MATIC and withdraws tokens from the pool. Emits a {Withdraw} event.",
        "params": {
          "amount": "- LP amount to withdraw. ",
          "amountETHMin": "- The minimum amount of MATIC that must be received for the transaction not to revert.",
          "amountTokenMin": "- The minimum amount of token that must be received for the transaction not to revert.",
          "lpStakingPool": "- LP pool to withdraw from.",
          "recipient": "- The address which will receive tokens."
        },
        "returns": {
          "amountETH": "- MATIC amount sent to the {recipient}.",
          "amountToken": "- Token amount sent to the {recipient}."
        }
      },
      "withdrawLP(address,uint256,address)": {
        "details": "Withdraws LP tokens from the given pool. Emits a {Withdraw} event.",
        "params": {
          "amount": "- LP amount to withdraw. ",
          "lpStakingPool": "- LP pool to withdraw from.",
          "recipient": "- The address which will receive tokens."
        }
      },
      "withdrawSingleAsset(address,uint256,address,bytes[2],address)": {
        "details": "Withdraws single token from the given pool. Emits a {Withdraw} event. Note: If there are any tokens left to be withdrawn after swaps they will be sent to the {{recipient}} in a respective token (not in {token}).",
        "params": {
          "amount": "- LP amount to withdraw. ",
          "lpStakingPool": "- LP pool to withdraw from.",
          "recipient": "- Address which will receive the deposit.",
          "swapData": "- Parameter with which 1inch router is being called with.",
          "token": "- Address of a token to exit the pool with."
        },
        "returns": {
          "amountA": "- Token A dust sent to the {recipient}.",
          "amountB": "- Token B dust sent to the {recipient}.",
          "amountToken": "- {token} amount sent to the {recipient}."
        }
      },
      "withdrawSingleETH(address,uint256,bytes[2],address)": {
        "details": "Withdraws single MATIC from the given pool. Emits a {Withdraw} event. Note: If there are any tokens left to be withdrawn after swaps they will be sent to the {{recipient}} in a respective token (not in MATIC).",
        "params": {
          "amount": "- LP amount to withdraw. ",
          "lpStakingPool": "- LP pool to withdraw from.",
          "recipient": "- Address which will receive the deposit.",
          "swapData": "- Parameter with which 1inch router is being called with."
        },
        "returns": {
          "amountA": "- Token A dust sent to the {recipient}.",
          "amountB": "- Token B dust sent to the {recipient}.",
          "amountETH": "- MATIC amount sent to the {recipient}."
        }
      }
    },
    "stateVariables": {
      "farmFactory": {
        "details": "Contract Variables: farmFactory - The contract that deploys new Farms and links them to {lpStakingPool}s. accessManager - Role manager contract."
      }
    },
    "version": 1
  },
  "userdoc": {
    "kind": "user",
    "methods": {},
    "version": 1
  }
}