{
  "contractName": "UnoAssetRouterApeswapV2",
  "abi": [
    {
      "inputs": [],
      "stateMutability": "nonpayable",
      "type": "constructor"
    },
    {
      "anonymous": false,
      "inputs": [
        {
          "indexed": false,
          "internalType": "address",
          "name": "previousAdmin",
          "type": "address"
        },
        {
          "indexed": false,
          "internalType": "address",
          "name": "newAdmin",
          "type": "address"
        }
      ],
      "name": "AdminChanged",
      "type": "event"
    },
    {
      "anonymous": false,
      "inputs": [
        {
          "indexed": true,
          "internalType": "address",
          "name": "beacon",
          "type": "address"
        }
      ],
      "name": "BeaconUpgraded",
      "type": "event"
    },
    {
      "anonymous": false,
      "inputs": [
        {
          "indexed": true,
          "internalType": "address",
          "name": "lpPool",
          "type": "address"
        },
        {
          "indexed": true,
          "internalType": "address",
          "name": "sender",
          "type": "address"
        },
        {
          "indexed": true,
          "internalType": "address",
          "name": "recipient",
          "type": "address"
        },
        {
          "indexed": false,
          "internalType": "uint256",
          "name": "amount",
          "type": "uint256"
        }
      ],
      "name": "Deposit",
      "type": "event"
    },
    {
      "anonymous": false,
      "inputs": [
        {
          "indexed": true,
          "internalType": "address",
          "name": "lpPool",
          "type": "address"
        },
        {
          "indexed": false,
          "internalType": "uint256",
          "name": "reward",
          "type": "uint256"
        }
      ],
      "name": "Distribute",
      "type": "event"
    },
    {
      "anonymous": false,
      "inputs": [
        {
          "indexed": false,
          "internalType": "uint256",
          "name": "previousFee",
          "type": "uint256"
        },
        {
          "indexed": false,
          "internalType": "uint256",
          "name": "newFee",
          "type": "uint256"
        }
      ],
      "name": "FeeChanged",
      "type": "event"
    },
    {
      "anonymous": false,
      "inputs": [
        {
          "indexed": false,
          "internalType": "uint8",
          "name": "version",
          "type": "uint8"
        }
      ],
      "name": "Initialized",
      "type": "event"
    },
    {
      "anonymous": false,
      "inputs": [
        {
          "indexed": false,
          "internalType": "address",
          "name": "account",
          "type": "address"
        }
      ],
      "name": "Paused",
      "type": "event"
    },
    {
      "anonymous": false,
      "inputs": [
        {
          "indexed": false,
          "internalType": "address",
          "name": "account",
          "type": "address"
        }
      ],
      "name": "Unpaused",
      "type": "event"
    },
    {
      "anonymous": false,
      "inputs": [
        {
          "indexed": true,
          "internalType": "address",
          "name": "implementation",
          "type": "address"
        }
      ],
      "name": "Upgraded",
      "type": "event"
    },
    {
      "anonymous": false,
      "inputs": [
        {
          "indexed": true,
          "internalType": "address",
          "name": "lpPool",
          "type": "address"
        },
        {
          "indexed": true,
          "internalType": "address",
          "name": "sender",
          "type": "address"
        },
        {
          "indexed": true,
          "internalType": "address",
          "name": "recipient",
          "type": "address"
        },
        {
          "indexed": false,
          "internalType": "uint256",
          "name": "amount",
          "type": "uint256"
        }
      ],
      "name": "Withdraw",
      "type": "event"
    },
    {
      "inputs": [],
      "name": "WBNB",
      "outputs": [
        {
          "internalType": "address",
          "name": "",
          "type": "address"
        }
      ],
      "stateMutability": "view",
      "type": "function"
    },
    {
      "inputs": [],
      "name": "accessManager",
      "outputs": [
        {
          "internalType": "contract IUnoAccessManager",
          "name": "",
          "type": "address"
        }
      ],
      "stateMutability": "view",
      "type": "function"
    },
    {
      "inputs": [],
      "name": "farmFactory",
      "outputs": [
        {
          "internalType": "contract IUnoFarmFactory",
          "name": "",
          "type": "address"
        }
      ],
      "stateMutability": "view",
      "type": "function"
    },
    {
      "inputs": [],
      "name": "fee",
      "outputs": [
        {
          "internalType": "uint256",
          "name": "",
          "type": "uint256"
        }
      ],
      "stateMutability": "view",
      "type": "function"
    },
    {
      "inputs": [],
      "name": "paused",
      "outputs": [
        {
          "internalType": "bool",
          "name": "",
          "type": "bool"
        }
      ],
      "stateMutability": "view",
      "type": "function"
    },
    {
      "inputs": [],
      "name": "proxiableUUID",
      "outputs": [
        {
          "internalType": "bytes32",
          "name": "",
          "type": "bytes32"
        }
      ],
      "stateMutability": "view",
      "type": "function"
    },
    {
      "inputs": [
        {
          "internalType": "address",
          "name": "newImplementation",
          "type": "address"
        }
      ],
      "name": "upgradeTo",
      "outputs": [],
      "stateMutability": "nonpayable",
      "type": "function"
    },
    {
      "inputs": [
        {
          "internalType": "address",
          "name": "newImplementation",
          "type": "address"
        },
        {
          "internalType": "bytes",
          "name": "data",
          "type": "bytes"
        }
      ],
      "name": "upgradeToAndCall",
      "outputs": [],
      "stateMutability": "payable",
      "type": "function"
    },
    {
      "inputs": [],
      "name": "version",
      "outputs": [
        {
          "internalType": "uint256",
          "name": "",
          "type": "uint256"
        }
      ],
      "stateMutability": "view",
      "type": "function"
    },
    {
      "stateMutability": "payable",
      "type": "receive"
    },
    {
      "inputs": [
        {
          "internalType": "address",
          "name": "_accessManager",
          "type": "address"
        },
        {
          "internalType": "address",
          "name": "_farmFactory",
          "type": "address"
        }
      ],
      "name": "initialize",
      "outputs": [],
      "stateMutability": "nonpayable",
      "type": "function"
    },
    {
      "inputs": [
        {
          "internalType": "address",
          "name": "lpPair",
          "type": "address"
        },
        {
          "internalType": "uint256",
          "name": "amountA",
          "type": "uint256"
        },
        {
          "internalType": "uint256",
          "name": "amountB",
          "type": "uint256"
        },
        {
          "internalType": "uint256",
          "name": "amountAMin",
          "type": "uint256"
        },
        {
          "internalType": "uint256",
          "name": "amountBMin",
          "type": "uint256"
        },
        {
          "internalType": "uint256",
          "name": "amountLP",
          "type": "uint256"
        },
        {
          "internalType": "address",
          "name": "recipient",
          "type": "address"
        }
      ],
      "name": "deposit",
      "outputs": [
        {
          "internalType": "uint256",
          "name": "sentA",
          "type": "uint256"
        },
        {
          "internalType": "uint256",
          "name": "sentB",
          "type": "uint256"
        },
        {
          "internalType": "uint256",
          "name": "liquidity",
          "type": "uint256"
        }
      ],
      "stateMutability": "nonpayable",
      "type": "function"
    },
    {
      "inputs": [
        {
          "internalType": "address",
          "name": "lpPair",
          "type": "address"
        },
        {
          "internalType": "uint256",
          "name": "amountToken",
          "type": "uint256"
        },
        {
          "internalType": "uint256",
          "name": "amountTokenMin",
          "type": "uint256"
        },
        {
          "internalType": "uint256",
          "name": "amountETHMin",
          "type": "uint256"
        },
        {
          "internalType": "uint256",
          "name": "amountLP",
          "type": "uint256"
        },
        {
          "internalType": "address",
          "name": "recipient",
          "type": "address"
        }
      ],
      "name": "depositETH",
      "outputs": [
        {
          "internalType": "uint256",
          "name": "sentToken",
          "type": "uint256"
        },
        {
          "internalType": "uint256",
          "name": "sentETH",
          "type": "uint256"
        },
        {
          "internalType": "uint256",
          "name": "liquidity",
          "type": "uint256"
        }
      ],
      "stateMutability": "payable",
      "type": "function"
    },
    {
      "inputs": [
        {
          "internalType": "address",
          "name": "lpPair",
          "type": "address"
        },
        {
          "internalType": "uint256",
          "name": "amount",
          "type": "uint256"
        },
        {
          "internalType": "uint256",
          "name": "amountAMin",
          "type": "uint256"
        },
        {
          "internalType": "uint256",
          "name": "amountBMin",
          "type": "uint256"
        },
        {
          "internalType": "bool",
          "name": "withdrawLP",
          "type": "bool"
        },
        {
          "internalType": "address",
          "name": "recipient",
          "type": "address"
        }
      ],
      "name": "withdraw",
      "outputs": [
        {
          "internalType": "uint256",
          "name": "amountA",
          "type": "uint256"
        },
        {
          "internalType": "uint256",
          "name": "amountB",
          "type": "uint256"
        }
      ],
      "stateMutability": "nonpayable",
      "type": "function"
    },
    {
      "inputs": [
        {
          "internalType": "address",
          "name": "lpPair",
          "type": "address"
        },
        {
          "internalType": "uint256",
          "name": "amount",
          "type": "uint256"
        },
        {
          "internalType": "uint256",
          "name": "amountTokenMin",
          "type": "uint256"
        },
        {
          "internalType": "uint256",
          "name": "amountETHMin",
          "type": "uint256"
        },
        {
          "internalType": "address",
          "name": "recipient",
          "type": "address"
        }
      ],
      "name": "withdrawETH",
      "outputs": [
        {
          "internalType": "uint256",
          "name": "amountToken",
          "type": "uint256"
        },
        {
          "internalType": "uint256",
          "name": "amountETH",
          "type": "uint256"
        }
      ],
      "stateMutability": "payable",
      "type": "function"
    },
    {
      "inputs": [
        {
          "internalType": "address",
          "name": "lpPair",
          "type": "address"
        },
        {
          "components": [
            {
              "internalType": "address[]",
              "name": "route",
              "type": "address[]"
            },
            {
              "internalType": "uint256",
              "name": "amountOutMin",
              "type": "uint256"
            }
          ],
          "internalType": "struct IUnoFarmApeswap.SwapInfo[2]",
          "name": "swapInfos",
          "type": "tuple[2]"
        },
        {
          "components": [
            {
              "internalType": "address[]",
              "name": "route",
              "type": "address[]"
            },
            {
              "internalType": "uint256",
              "name": "amountOutMin",
              "type": "uint256"
            }
          ],
          "internalType": "struct IUnoFarmApeswap.SwapInfo",
          "name": "feeSwapInfo",
          "type": "tuple"
        },
        {
          "internalType": "address",
          "name": "feeTo",
          "type": "address"
        }
      ],
      "name": "distribute",
      "outputs": [],
      "stateMutability": "nonpayable",
      "type": "function"
    },
    {
      "inputs": [
        {
          "internalType": "address",
          "name": "_address",
          "type": "address"
        },
        {
          "internalType": "address",
          "name": "lpPair",
          "type": "address"
        }
      ],
      "name": "userStake",
      "outputs": [
        {
          "internalType": "uint256",
          "name": "stakeLP",
          "type": "uint256"
        },
        {
          "internalType": "uint256",
          "name": "stakeA",
          "type": "uint256"
        },
        {
          "internalType": "uint256",
          "name": "stakeB",
          "type": "uint256"
        }
      ],
      "stateMutability": "view",
      "type": "function"
    },
    {
      "inputs": [
        {
          "internalType": "address",
          "name": "lpPair",
          "type": "address"
        }
      ],
      "name": "totalDeposits",
      "outputs": [
        {
          "internalType": "uint256",
          "name": "totalDepositsLP",
          "type": "uint256"
        },
        {
          "internalType": "uint256",
          "name": "totalDepositsA",
          "type": "uint256"
        },
        {
          "internalType": "uint256",
          "name": "totalDepositsB",
          "type": "uint256"
        }
      ],
      "stateMutability": "view",
      "type": "function"
    },
    {
      "inputs": [
        {
          "internalType": "address",
          "name": "lpPair",
          "type": "address"
        }
      ],
      "name": "getTokens",
      "outputs": [
        {
          "internalType": "contract IBEP20[]",
          "name": "tokens",
          "type": "address[]"
        }
      ],
      "stateMutability": "view",
      "type": "function"
    },
    {
      "inputs": [
        {
          "internalType": "uint256",
          "name": "_fee",
          "type": "uint256"
        }
      ],
      "name": "setFee",
      "outputs": [],
      "stateMutability": "nonpayable",
      "type": "function"
    },
    {
      "inputs": [],
      "name": "pause",
      "outputs": [],
      "stateMutability": "nonpayable",
      "type": "function"
    },
    {
      "inputs": [],
      "name": "unpause",
      "outputs": [],
      "stateMutability": "nonpayable",
      "type": "function"
    }
  ],
  "bytecode": "0x60a0604052306080523480156200001557600080fd5b506200002062000026565b62000156565b6200003260ff62000035565b50565b60008054610100900460ff1615620000ce578160ff1660011480156200006e57506200006c306200014760201b62001ebe1760201c565b155b620000c65760405162461bcd60e51b815260206004820152602e60248201526000805160206200350d83398151915260448201526d191e481a5b9a5d1a585b1a5e995960921b60648201526084015b60405180910390fd5b506000919050565b60005460ff8084169116106200012d5760405162461bcd60e51b815260206004820152602e60248201526000805160206200350d83398151915260448201526d191e481a5b9a5d1a585b1a5e995960921b6064820152608401620000bd565b506000805460ff191660ff92909216919091179055600190565b6001600160a01b03163b151590565b60805161337f6200018e600039600081816105c001528181610600015281816112020152818161124201526113df015261337f6000f3fe60806040526004361061012e5760003560e01c806354fd4d50116100ab5780638dd950021161006f5780638dd950021461039a578063ddca3f43146103c2578063deb03f4d146103d8578063e9403256146103eb578063f441f73c1461040b578063fdcb60681461042b57600080fd5b806354fd4d50146102f55780635c975abb1461030a57806369fe0e2d1461032d5780636d25e1751461034d5780638456cb591461038557600080fd5b8063485cc955116100f2578063485cc9551461025f5780634e816aa81461027f5780634f1ef2861461029f57806351bdca3e146102b257806352d1902d146102d257600080fd5b80631ec5aa3e146101955780633659cfe6146101cf5780633f4ba83a146101ef578063450efe21146102045780634743cdc71461023157600080fd5b36610190573373bb4cdb9cbd36b01bd1cbaebf2de08d9173bc095c1461018e5760405162461bcd60e51b815260206004820152601060248201526f27a7262cafa0a1a1a2a82a2faba1272160811b60448201526064015b60405180910390fd5b005b600080fd5b3480156101a157600080fd5b506101b56101b0366004612a5e565b61044b565b604080519283526020830191909152015b60405180910390f35b3480156101db57600080fd5b5061018e6101ea366004612ac5565b6105b5565b3480156101fb57600080fd5b5061018e610695565b34801561021057600080fd5b5061022461021f366004612ac5565b61074c565b6040516101c69190612ae2565b61024461023f366004612b2f565b61089b565b604080519384526020840192909252908201526060016101c6565b34801561026b57600080fd5b5061018e61027a366004612b7f565b610e7b565b34801561028b57600080fd5b5061018e61029a366004612bb8565b610fb6565b61018e6102ad366004612c65565b6111f7565b3480156102be57600080fd5b506102446102cd366004612b7f565b6112c8565b3480156102de57600080fd5b506102e76113d2565b6040519081526020016101c6565b34801561030157600080fd5b506102e7600281565b34801561031657600080fd5b5060335460ff1660405190151581526020016101c6565b34801561033957600080fd5b5061018e610348366004612d29565b611485565b34801561035957600080fd5b5060c95461036d906001600160a01b031681565b6040516001600160a01b0390911681526020016101c6565b34801561039157600080fd5b5061018e611618565b3480156103a657600080fd5b5061036d73bb4cdb9cbd36b01bd1cbaebf2de08d9173bc095c81565b3480156103ce57600080fd5b506102e760cb5481565b6101b56103e6366004612d42565b6116cf565b3480156103f757600080fd5b50610244610406366004612ac5565b611ae4565b34801561041757600080fd5b50610244610426366004612d98565b611be6565b34801561043757600080fd5b5060ca5461036d906001600160a01b031681565b60c95460405163f9d9331d60e01b81526001600160a01b038881166004830152600092839283929091169063f9d9331d90602401602060405180830381865afa15801561049c573d6000803e3d6000fd5b505050506040513d601f19601f820116820180604052508101906104c09190612e01565b90506001600160a01b0381166104e85760405162461bcd60e51b815260040161018590612e1e565b60405163d563468360e01b81526001600160a01b0382169063d56346839061051e908b908b908b908b9033908c90600401612e47565b60408051808303816000875af115801561053c573d6000803e3d6000fd5b505050506040513d601f19601f820116820180604052508101906105609190612e7d565b6040518a815291945092506001600160a01b038581169133918c16907f3115d1449a7b732c986cba18244e897a450f61e1bb8d589cd2e69e6c8924f9f79060200160405180910390a450965096945050505050565b306001600160a01b037f00000000000000000000000000000000000000000000000000000000000000001614156105fe5760405162461bcd60e51b815260040161018590612ea1565b7f00000000000000000000000000000000000000000000000000000000000000006001600160a01b0316610647600080516020613303833981519152546001600160a01b031690565b6001600160a01b03161461066d5760405162461bcd60e51b815260040161018590612eed565b61067681611ecd565b6040805160008082526020820190925261069291839190611fd3565b50565b60ca54604051632474521560e21b81527f65d7a28e3265b37a6474929f336521b332c1681b933f6cb9f3376673440d862a60048201819052336024830152916001600160a01b0316906391d1485490604401602060405180830381865afa158015610704573d6000803e3d6000fd5b505050506040513d601f19601f820116820180604052508101906107289190612f39565b6107445760405162461bcd60e51b815260040161018590612f56565b61069261213e565b6040805160028082526060808301845292602083019080368337019050509050816001600160a01b0316630dfe16816040518163ffffffff1660e01b8152600401602060405180830381865afa1580156107aa573d6000803e3d6000fd5b505050506040513d601f19601f820116820180604052508101906107ce9190612e01565b816000815181106107e1576107e1612f85565b60200260200101906001600160a01b031690816001600160a01b031681525050816001600160a01b031663d21220a76040518163ffffffff1660e01b8152600401602060405180830381865afa15801561083f573d6000803e3d6000fd5b505050506040513d601f19601f820116820180604052508101906108639190612e01565b8160018151811061087657610876612f85565b60200260200101906001600160a01b031690816001600160a01b031681525050919050565b60008060006108ac60335460ff1690565b156108c95760405162461bcd60e51b815260040161018590612f9b565b600034116109095760405162461bcd60e51b815260206004820152600d60248201526c1393d7d350551250d7d4d15395609a1b6044820152606401610185565b60c95460405163f9d9331d60e01b81526001600160a01b038b81166004830152600092169063f9d9331d90602401602060405180830381865afa158015610954573d6000803e3d6000fd5b505050506040513d601f19601f820116820180604052508101906109789190612e01565b90506001600160a01b0381166109fa5760c954604051621849e360e61b81526001600160a01b038c811660048301529091169063061278c0906024016020604051808303816000875af11580156109d3573d6000803e3d6000fd5b505050506040513d601f19601f820116820180604052508101906109f79190612e01565b90505b8515610a1557610a156001600160a01b038b163383896121d1565b6000816001600160a01b0316630fc63d106040518163ffffffff1660e01b8152600401602060405180830381865afa158015610a55573d6000803e3d6000fd5b505050506040513d601f19601f82011682018060405250810190610a799190612e01565b90506000826001600160a01b0316635f64b55b6040518163ffffffff1660e01b8152600401602060405180830381865afa158015610abb573d6000803e3d6000fd5b505050506040513d601f19601f82011682018060405250810190610adf9190612e01565b905073bb4cdb9cbd36b01bd1cbaebf2de08d9173bc095c6001600160a01b031663d0e30db0346040518263ffffffff1660e01b81526004016000604051808303818588803b158015610b3057600080fd5b505af1158015610b44573d6000803e3d6000fd5b50610b6c935073bb4cdb9cbd36b01bd1cbaebf2de08d9173bc095c9250869150349050612242565b6001600160a01b03821673bb4cdb9cbd36b01bd1cbaebf2de08d9173bc095c1415610c53578a15610bac57610bac6001600160a01b03821633858e6121d1565b826001600160a01b0316631666768a348d8c8e8d308e6040518863ffffffff1660e01b8152600401610be49796959493929190612fc5565b6060604051808303816000875af1158015610c03573d6000803e3d6000fd5b505050506040513d601f19601f82011682018060405250810190610c279190613001565b9097509095509350610c4e33610c3d888e613045565b6001600160a01b0384169190612242565b610d6c565b6001600160a01b03811673bb4cdb9cbd36b01bd1cbaebf2de08d9173bc095c1415610d34578a15610c9357610c936001600160a01b03831633858e6121d1565b826001600160a01b0316631666768a8c348d8d8d308e6040518863ffffffff1660e01b8152600401610ccb9796959493929190612fc5565b6060604051808303816000875af1158015610cea573d6000803e3d6000fd5b505050506040513d601f19601f82011682018060405250810190610d0e9190613001565b91975095509350610c4e33610d23888e613045565b6001600160a01b0385169190612242565b60405162461bcd60e51b815260206004820152600d60248201526c1393d517d5d0939097d413d3d3609a1b6044820152606401610185565b6000610d788634613045565b90508015610e1457604051632e1a7d4d60e01b81526004810182905273bb4cdb9cbd36b01bd1cbaebf2de08d9173bc095c90632e1a7d4d90602401600060405180830381600087803b158015610dcd57600080fd5b505af1158015610de1573d6000803e3d6000fd5b505060405133925083156108fc02915083906000818181858888f19350505050158015610e12573d6000803e3d6000fd5b505b876001600160a01b0316336001600160a01b03168e6001600160a01b03167f7cfff908a4b583f36430b25d75964c458d8ede8a99bd61be750e97ee1b2f3a9688604051610e6391815260200190565b60405180910390a45050505096509650969350505050565b6000610e876001612272565b90508015610e9f576000805461ff0019166101001790555b6001600160a01b038316610eea5760405162461bcd60e51b81526020600482015260126024820152712120a22fa0a1a1a2a9a9afa6a0a720a3a2a960711b6044820152606401610185565b6001600160a01b038216610f335760405162461bcd60e51b815260206004820152601060248201526f4241445f4641524d5f464143544f525960801b6044820152606401610185565b610f3b6122fa565b60ca80546001600160a01b038086166001600160a01b03199283161790925560c98054928516929091169190911790558015610fb1576000805461ff0019169055604051600181527f7f26b83ff96e1f2b6a682f133852f6798a09c465da95921460cefb38474024989060200160405180910390a15b505050565b60335460ff1615610fd95760405162461bcd60e51b815260040161018590612f9b565b60ca54604051632474521560e21b81527ffbd454f36a7e1a388bd6fc3ab10d434aa4578f811acbbcf33afb1c697486313c60048201819052336024830152916001600160a01b0316906391d1485490604401602060405180830381865afa158015611048573d6000803e3d6000fd5b505050506040513d601f19601f8201168201806040525081019061106c9190612f39565b6110885760405162461bcd60e51b815260040161018590612f56565b60c95460405163f9d9331d60e01b81526001600160a01b038781166004830152600092169063f9d9331d90602401602060405180830381865afa1580156110d3573d6000803e3d6000fd5b505050506040513d601f19601f820116820180604052508101906110f79190612e01565b90506001600160a01b03811661111f5760405162461bcd60e51b815260040161018590612e1e565b6040805180820182526001600160a01b03858116825260cb54602083015291516336eeb1dd60e01b81526000928416916336eeb1dd91611166918a918a91906004016130fb565b6020604051808303816000875af1158015611185573d6000803e3d6000fd5b505050506040513d601f19601f820116820180604052508101906111a99190613194565b9050866001600160a01b03167fc1d32ad5cca423e7dda2123dbf8c482f8e77d00b631c06e903a47f2cec1334df826040516111e691815260200190565b60405180910390a250505050505050565b306001600160a01b037f00000000000000000000000000000000000000000000000000000000000000001614156112405760405162461bcd60e51b815260040161018590612ea1565b7f00000000000000000000000000000000000000000000000000000000000000006001600160a01b0316611289600080516020613303833981519152546001600160a01b031690565b6001600160a01b0316146112af5760405162461bcd60e51b815260040161018590612eed565b6112b882611ecd565b6112c482826001611fd3565b5050565b60c95460405163f9d9331d60e01b81526001600160a01b038381166004830152600092839283928392169063f9d9331d90602401602060405180830381865afa158015611319573d6000803e3d6000fd5b505050506040513d601f19601f8201168201806040525081019061133d9190612e01565b90506001600160a01b038116156113ca57604051630103c92b60e01b81526001600160a01b038781166004830152821690630103c92b90602401602060405180830381865afa158015611394573d6000803e3d6000fd5b505050506040513d601f19601f820116820180604052508101906113b89190613194565b93506113c4858561232b565b90935091505b509250925092565b6000306001600160a01b037f000000000000000000000000000000000000000000000000000000000000000016146114725760405162461bcd60e51b815260206004820152603860248201527f555550535570677261646561626c653a206d757374206e6f742062652063616c60448201527f6c6564207468726f7567682064656c656761746563616c6c00000000000000006064820152608401610185565b5060008051602061330383398151915290565b60ca60009054906101000a90046001600160a01b03166001600160a01b03166375b238fc6040518163ffffffff1660e01b8152600401602060405180830381865afa1580156114d8573d6000803e3d6000fd5b505050506040513d601f19601f820116820180604052508101906114fc9190613194565b60ca54604051632474521560e21b8152600481018390523360248201526001600160a01b03909116906391d1485490604401602060405180830381865afa15801561154b573d6000803e3d6000fd5b505050506040513d601f19601f8201168201806040525081019061156f9190612f39565b61158b5760405162461bcd60e51b815260040161018590612f56565b670de0b6b3a76400008211156115cd5760405162461bcd60e51b81526020600482015260076024820152664241445f46454560c81b6044820152606401610185565b8160cb54146112c45760cb5460408051918252602082018490527f5fc463da23c1b063e66f9e352006a7fbe8db7223c455dc429e881a2dfe2f94f1910160405180910390a15060cb55565b60ca54604051632474521560e21b81527f65d7a28e3265b37a6474929f336521b332c1681b933f6cb9f3376673440d862a60048201819052336024830152916001600160a01b0316906391d1485490604401602060405180830381865afa158015611687573d6000803e3d6000fd5b505050506040513d601f19601f820116820180604052508101906116ab9190612f39565b6116c75760405162461bcd60e51b815260040161018590612f56565b610692612566565b60c95460405163f9d9331d60e01b81526001600160a01b038781166004830152600092839283929091169063f9d9331d90602401602060405180830381865afa158015611720573d6000803e3d6000fd5b505050506040513d601f19601f820116820180604052508101906117449190612e01565b90506001600160a01b03811661176c5760405162461bcd60e51b815260040161018590612e1e565b6000816001600160a01b0316630fc63d106040518163ffffffff1660e01b8152600401602060405180830381865afa1580156117ac573d6000803e3d6000fd5b505050506040513d601f19601f820116820180604052508101906117d09190612e01565b90506000826001600160a01b0316635f64b55b6040518163ffffffff1660e01b8152600401602060405180830381865afa158015611812573d6000803e3d6000fd5b505050506040513d601f19601f820116820180604052508101906118369190612e01565b90506001600160a01b03821673bb4cdb9cbd36b01bd1cbaebf2de08d9173bc095c14156118f35760405163d563468360e01b81526001600160a01b0384169063d563468390611894908c908b908d9060009033903090600401612e47565b60408051808303816000875af11580156118b2573d6000803e3d6000fd5b505050506040513d601f19601f820116820180604052508101906118d69190612e7d565b955093506118ee6001600160a01b0382168787612242565b6119e4565b6001600160a01b03811673bb4cdb9cbd36b01bd1cbaebf2de08d9173bc095c14156119aa5760405163d563468360e01b81526001600160a01b0384169063d56346839061194f908c908c908c9060009033903090600401612e47565b60408051808303816000875af115801561196d573d6000803e3d6000fd5b505050506040513d601f19601f820116820180604052508101906119919190612e7d565b90955093506118ee6001600160a01b0383168787612242565b60405162461bcd60e51b815260206004820152600f60248201526e1393d517d5d350551250d7d413d3d3608a1b6044820152606401610185565b604051632e1a7d4d60e01b81526004810185905273bb4cdb9cbd36b01bd1cbaebf2de08d9173bc095c90632e1a7d4d90602401600060405180830381600087803b158015611a3157600080fd5b505af1158015611a45573d6000803e3d6000fd5b50506040516001600160a01b038916925086156108fc02915086906000818181858888f19350505050158015611a7f573d6000803e3d6000fd5b50856001600160a01b0316336001600160a01b03168b6001600160a01b03167f3115d1449a7b732c986cba18244e897a450f61e1bb8d589cd2e69e6c8924f9f78c604051611acf91815260200190565b60405180910390a45050509550959350505050565b60c95460405163f9d9331d60e01b81526001600160a01b038381166004830152600092839283928392169063f9d9331d90602401602060405180830381865afa158015611b35573d6000803e3d6000fd5b505050506040513d601f19601f82011682018060405250810190611b599190612e01565b90506001600160a01b03811615611bde57806001600160a01b031663168a48226040518163ffffffff1660e01b8152600401602060405180830381865afa158015611ba8573d6000803e3d6000fd5b505050506040513d601f19601f82011682018060405250810190611bcc9190613194565b9350611bd8858561232b565b90935091505b509193909250565b6000806000611bf760335460ff1690565b15611c145760405162461bcd60e51b815260040161018590612f9b565b60c95460405163f9d9331d60e01b81526001600160a01b038c81166004830152600092169063f9d9331d90602401602060405180830381865afa158015611c5f573d6000803e3d6000fd5b505050506040513d601f19601f82011682018060405250810190611c839190612e01565b90506001600160a01b038116611d055760c954604051621849e360e61b81526001600160a01b038d811660048301529091169063061278c0906024016020604051808303816000875af1158015611cde573d6000803e3d6000fd5b505050506040513d601f19601f82011682018060405250810190611d029190612e01565b90505b8515611d2057611d206001600160a01b038c163383896121d1565b8915611d9f57611d9f33828c846001600160a01b0316630fc63d106040518163ffffffff1660e01b8152600401602060405180830381865afa158015611d6a573d6000803e3d6000fd5b505050506040513d601f19601f82011682018060405250810190611d8e9190612e01565b6001600160a01b03169291906121d1565b8815611de957611de933828b846001600160a01b0316635f64b55b6040518163ffffffff1660e01b8152600401602060405180830381865afa158015611d6a573d6000803e3d6000fd5b604051630b333b4560e11b81526001600160a01b03821690631666768a90611e21908d908d908d908d908d9033908e90600401612fc5565b6060604051808303816000875af1158015611e40573d6000803e3d6000fd5b505050506040513d601f19601f82011682018060405250810190611e649190613001565b60405181815292965090945092506001600160a01b038681169133918e16907f7cfff908a4b583f36430b25d75964c458d8ede8a99bd61be750e97ee1b2f3a969060200160405180910390a4509750975097945050505050565b6001600160a01b03163b151590565b60ca60009054906101000a90046001600160a01b03166001600160a01b03166375b238fc6040518163ffffffff1660e01b8152600401602060405180830381865afa158015611f20573d6000803e3d6000fd5b505050506040513d601f19601f82011682018060405250810190611f449190613194565b60ca54604051632474521560e21b8152600481018390523360248201526001600160a01b03909116906391d1485490604401602060405180830381865afa158015611f93573d6000803e3d6000fd5b505050506040513d601f19601f82011682018060405250810190611fb79190612f39565b6112c45760405162461bcd60e51b815260040161018590612f56565b7f4910fdfa16fed3260ed0e7147f7cc6da11a60208b5b9406d12a635614ffd91435460ff161561200657610fb1836125be565b826001600160a01b03166352d1902d6040518163ffffffff1660e01b8152600401602060405180830381865afa925050508015612060575060408051601f3d908101601f1916820190925261205d91810190613194565b60015b6120c35760405162461bcd60e51b815260206004820152602e60248201527f45524331393637557067726164653a206e657720696d706c656d656e7461746960448201526d6f6e206973206e6f74205555505360901b6064820152608401610185565b60008051602061330383398151915281146121325760405162461bcd60e51b815260206004820152602960248201527f45524331393637557067726164653a20756e737570706f727465642070726f786044820152681a58589b195555525160ba1b6064820152608401610185565b50610fb183838361265a565b60335460ff166121875760405162461bcd60e51b815260206004820152601460248201527314185d5cd8589b194e881b9bdd081c185d5cd95960621b6044820152606401610185565b6033805460ff191690557f5db9ee0a495bf2e6ff9c91a7834c1ba4fdd244a5e8aa4e537bd38aeae4b073aa335b6040516001600160a01b03909116815260200160405180910390a1565b6040516001600160a01b038085166024830152831660448201526064810182905261223c9085906323b872dd60e01b906084015b60408051601f198184030181529190526020810180516001600160e01b03166001600160e01b03199093169290921790915261267f565b50505050565b6040516001600160a01b038316602482015260448101829052610fb190849063a9059cbb60e01b90606401612205565b60008054610100900460ff16156122b9578160ff1660011480156122955750303b155b6122b15760405162461bcd60e51b8152600401610185906131ad565b506000919050565b60005460ff8084169116106122e05760405162461bcd60e51b8152600401610185906131ad565b506000805460ff191660ff92909216919091179055600190565b600054610100900460ff166123215760405162461bcd60e51b8152600401610185906131fb565b612329612751565b565b6000806000846001600160a01b03166318160ddd6040518163ffffffff1660e01b8152600401602060405180830381865afa15801561236e573d6000803e3d6000fd5b505050506040513d601f19601f820116820180604052508101906123929190613194565b905080856001600160a01b0316630dfe16816040518163ffffffff1660e01b8152600401602060405180830381865afa1580156123d3573d6000803e3d6000fd5b505050506040513d601f19601f820116820180604052508101906123f79190612e01565b6040516370a0823160e01b81526001600160a01b03888116600483015291909116906370a0823190602401602060405180830381865afa15801561243f573d6000803e3d6000fd5b505050506040513d601f19601f820116820180604052508101906124639190613194565b61246d9086613246565b6124779190613265565b925080856001600160a01b031663d21220a76040518163ffffffff1660e01b8152600401602060405180830381865afa1580156124b8573d6000803e3d6000fd5b505050506040513d601f19601f820116820180604052508101906124dc9190612e01565b6040516370a0823160e01b81526001600160a01b03888116600483015291909116906370a0823190602401602060405180830381865afa158015612524573d6000803e3d6000fd5b505050506040513d601f19601f820116820180604052508101906125489190613194565b6125529086613246565b61255c9190613265565b9150509250929050565b60335460ff16156125895760405162461bcd60e51b815260040161018590612f9b565b6033805460ff191660011790557f62e78cea01bee320cd4e420270b5ea74000d11b0c9f74754ebdbfc544b05a2586121b43390565b6001600160a01b0381163b61262b5760405162461bcd60e51b815260206004820152602d60248201527f455243313936373a206e657720696d706c656d656e746174696f6e206973206e60448201526c1bdd08184818dbdb9d1c9858dd609a1b6064820152608401610185565b60008051602061330383398151915280546001600160a01b0319166001600160a01b0392909216919091179055565b61266383612784565b6000825111806126705750805b15610fb15761223c83836127c4565b60006126d4826040518060400160405280602081526020017f5361666542455032303a206c6f772d6c6576656c2063616c6c206661696c6564815250856001600160a01b03166128b89092919063ffffffff16565b805190915015610fb157808060200190518101906126f29190612f39565b610fb15760405162461bcd60e51b815260206004820152602a60248201527f5361666542455032303a204245503230206f7065726174696f6e20646964206e6044820152691bdd081cdd58d8d9595960b21b6064820152608401610185565b600054610100900460ff166127785760405162461bcd60e51b8152600401610185906131fb565b6033805460ff19169055565b61278d816125be565b6040516001600160a01b038216907fbc7cd75a20ee27fd9adebab32041f755214dbc6bffa90cc0225b39da2e5c2d3b90600090a250565b60606001600160a01b0383163b61282c5760405162461bcd60e51b815260206004820152602660248201527f416464726573733a2064656c65676174652063616c6c20746f206e6f6e2d636f6044820152651b9d1c9858dd60d21b6064820152608401610185565b600080846001600160a01b03168460405161284791906132b3565b600060405180830381855af49150503d8060008114612882576040519150601f19603f3d011682016040523d82523d6000602084013e612887565b606091505b50915091506128af8282604051806060016040528060278152602001613323602791396128d1565b95945050505050565b60606128c7848460008561290a565b90505b9392505050565b606083156128e05750816128ca565b8251156128f05782518084602001fd5b8160405162461bcd60e51b815260040161018591906132cf565b60608247101561296b5760405162461bcd60e51b815260206004820152602660248201527f416464726573733a20696e73756666696369656e742062616c616e636520666f6044820152651c8818d85b1b60d21b6064820152608401610185565b6001600160a01b0385163b6129c25760405162461bcd60e51b815260206004820152601d60248201527f416464726573733a2063616c6c20746f206e6f6e2d636f6e74726163740000006044820152606401610185565b600080866001600160a01b031685876040516129de91906132b3565b60006040518083038185875af1925050503d8060008114612a1b576040519150601f19603f3d011682016040523d82523d6000602084013e612a20565b606091505b5091509150612a308282866128d1565b979650505050505050565b6001600160a01b038116811461069257600080fd5b801515811461069257600080fd5b60008060008060008060c08789031215612a7757600080fd5b8635612a8281612a3b565b95506020870135945060408701359350606087013592506080870135612aa781612a50565b915060a0870135612ab781612a3b565b809150509295509295509295565b600060208284031215612ad757600080fd5b81356128ca81612a3b565b6020808252825182820181905260009190848201906040850190845b81811015612b235783516001600160a01b031683529284019291840191600101612afe565b50909695505050505050565b60008060008060008060c08789031215612b4857600080fd5b8635612b5381612a3b565b95506020870135945060408701359350606087013592506080870135915060a0870135612ab781612a3b565b60008060408385031215612b9257600080fd5b8235612b9d81612a3b565b91506020830135612bad81612a3b565b809150509250929050565b60008060008060808587031215612bce57600080fd5b8435612bd981612a3b565b9350602085013567ffffffffffffffff80821115612bf657600080fd5b818701915087604083011115612c0b57600080fd5b90935060408601359080821115612c2157600080fd5b50850160408188031215612c3457600080fd5b91506060850135612c4481612a3b565b939692955090935050565b634e487b7160e01b600052604160045260246000fd5b60008060408385031215612c7857600080fd5b8235612c8381612a3b565b9150602083013567ffffffffffffffff80821115612ca057600080fd5b818501915085601f830112612cb457600080fd5b813581811115612cc657612cc6612c4f565b604051601f8201601f19908116603f01168101908382118183101715612cee57612cee612c4f565b81604052828152886020848701011115612d0757600080fd5b8260208601602083013760006020848301015280955050505050509250929050565b600060208284031215612d3b57600080fd5b5035919050565b600080600080600060a08688031215612d5a57600080fd5b8535612d6581612a3b565b94506020860135935060408601359250606086013591506080860135612d8a81612a3b565b809150509295509295909350565b600080600080600080600060e0888a031215612db357600080fd5b8735612dbe81612a3b565b96506020880135955060408801359450606088013593506080880135925060a0880135915060c0880135612df181612a3b565b8091505092959891949750929550565b600060208284031215612e1357600080fd5b81516128ca81612a3b565b6020808252600f908201526e4641524d5f4e4f545f45584953545360881b604082015260600190565b95865260208601949094526040850192909252151560608401526001600160a01b0390811660808401521660a082015260c00190565b60008060408385031215612e9057600080fd5b505080516020909101519092909150565b6020808252602c908201527f46756e6374696f6e206d7573742062652063616c6c6564207468726f7567682060408201526b19195b1959d85d1958d85b1b60a21b606082015260800190565b6020808252602c908201527f46756e6374696f6e206d7573742062652063616c6c6564207468726f7567682060408201526b6163746976652070726f787960a01b606082015260800190565b600060208284031215612f4b57600080fd5b81516128ca81612a50565b60208082526015908201527410d05313115497d393d517d055551213d492569151605a1b604082015260600190565b634e487b7160e01b600052603260045260246000fd5b60208082526010908201526f14185d5cd8589b194e881c185d5cd95960821b604082015260600190565b96875260208701959095526040860193909352606085019190915260808401526001600160a01b0390811660a08401521660c082015260e00190565b60008060006060848603121561301657600080fd5b8351925060208401519150604084015190509250925092565b634e487b7160e01b600052601160045260246000fd5b6000828210156130575761305761302f565b500390565b6000604083018235601e1984360301811261307657600080fd5b83018035602067ffffffffffffffff82111561309157600080fd5b8160051b36038613156130a357600080fd5b60408752928190529082019160009190606087015b828410156130e85784356130cb81612a3b565b6001600160a01b03168152938101936001939093019281016130b8565b9581013596019590955250919392505050565b608080825260009060c083019083018683805b600281101561315657868503607f190184528235368b9003603e19018112613134578283fd5b613140868c830161305c565b955050602093840193929092019160010161310e565b50505050828103602084015261316c818661305c565b84516001600160a01b0316604085015260209094015160609093019290925250909392505050565b6000602082840312156131a657600080fd5b5051919050565b6020808252602e908201527f496e697469616c697a61626c653a20636f6e747261637420697320616c72656160408201526d191e481a5b9a5d1a585b1a5e995960921b606082015260800190565b6020808252602b908201527f496e697469616c697a61626c653a20636f6e7472616374206973206e6f74206960408201526a6e697469616c697a696e6760a81b606082015260800190565b60008160001904831182151516156132605761326061302f565b500290565b60008261328257634e487b7160e01b600052601260045260246000fd5b500490565b60005b838110156132a257818101518382015260200161328a565b8381111561223c5750506000910152565b600082516132c5818460208701613287565b9190910192915050565b60208152600082518060208401526132ee816040850160208701613287565b601f01601f1916919091016040019291505056fe360894a13ba1a3210667c828492db98dca3e2076cc3735a920a3ca505d382bbc416464726573733a206c6f772d6c6576656c2064656c65676174652063616c6c206661696c6564a26469706673582212209f01e42eab588a283225557721deda484735a20609776d2701847918c281eab664736f6c634300080a0033496e697469616c697a61626c653a20636f6e747261637420697320616c726561",
  "immutableReferences": {
    "561": [
      {
        "length": 32,
        "start": 1472
      },
      {
        "length": 32,
        "start": 1536
      },
      {
        "length": 32,
        "start": 4610
      },
      {
        "length": 32,
        "start": 4674
      },
      {
        "length": 32,
        "start": 5087
      }
    ]
  },
  "source": "// SPDX-License-Identifier: MIT\r\npragma solidity 0.8.10;\r\n\r\nimport {IUnoFarmApeswap as Farm} from '../apps/apeswap/interfaces/IUnoFarmApeswap.sol'; \r\nimport '../interfaces/IUnoFarmFactory.sol';\r\nimport '../interfaces/IUnoAccessManager.sol'; \r\nimport '../interfaces/IUniswapV2Pair.sol';\r\nimport '../interfaces/IWBNB.sol';\r\nimport '../libs/SafeBEP20.sol';\r\nimport '@openzeppelin/contracts-upgradeable/proxy/utils/Initializable.sol';\r\nimport '@pancakeswap/pancake-swap-lib/contracts/token/BEP20/IBEP20.sol';\r\nimport '@openzeppelin/contracts-upgradeable/security/PausableUpgradeable.sol';\r\nimport '@openzeppelin/contracts-upgradeable/proxy/utils/UUPSUpgradeable.sol';\r\n\r\ncontract UnoAssetRouterApeswapV2 is Initializable, PausableUpgradeable, UUPSUpgradeable {\r\n    using SafeBEP20 for IBEP20;\r\n\r\n    /**\r\n     * @dev Contract Variables:\r\n     * farmFactory - The contract that deploys new Farms and links them to {lpPair}s.\r\n     * accessManager - Role manager contract.\r\n     */\r\n    IUnoFarmFactory public farmFactory;\r\n    IUnoAccessManager public accessManager;\r\n\r\n    bytes32 private constant DISTRIBUTOR_ROLE = keccak256('DISTRIBUTOR_ROLE');\r\n    bytes32 private constant PAUSER_ROLE = keccak256('PAUSER_ROLE');\r\n\r\n    uint256 public fee;\r\n\r\n    address public constant WBNB = 0xbb4CdB9CBd36B01bD1cBaEBF2De08d9173bc095c;\r\n\r\n    uint256 public constant version = 2;\r\n\r\n    event Deposit(address indexed lpPool, address indexed sender, address indexed recipient, uint256 amount);\r\n    event Withdraw(address indexed lpPool, address indexed sender, address indexed recipient, uint256 amount);\r\n    event Distribute(address indexed lpPool, uint256 reward);\r\n    \r\n    event FeeChanged(uint256 previousFee, uint256 newFee);\r\n\r\n    modifier onlyRole(bytes32 role){\r\n        require(accessManager.hasRole(role, msg.sender), 'CALLER_NOT_AUTHORIZED');\r\n        _;\r\n    }\r\n\r\n    // ============ Methods ============\r\n\r\n    /// @custom:oz-upgrades-unsafe-allow constructor\r\n    constructor() {\r\n        _disableInitializers();\r\n    }\r\n\r\n    function initialize(address _accessManager, address _farmFactory) external initializer{\r\n        require (_accessManager != address(0), 'BAD_ACCESS_MANAGER');\r\n        require (_farmFactory != address(0), 'BAD_FARM_FACTORY');\r\n\r\n        __Pausable_init();\r\n        accessManager = IUnoAccessManager(_accessManager);\r\n        farmFactory = IUnoFarmFactory(_farmFactory);\r\n    }\r\n\r\n    receive() external payable {\r\n        require(msg.sender == WBNB, 'ONLY_ACCEPT_WBNB'); // only accept ETH via fallback from the WBNB contract\r\n    }\r\n\r\n    /**\r\n     * @dev Deposits tokens in the given pool. Creates new Farm contract if there isn't one deployed for the {lpPair} and deposits tokens in it. Emits a {Deposit} event.\r\n     * @param lpPair - Address of the pool to deposit tokens in.\r\n     * @param amountA  - Token A amount to deposit.\r\n     * @param amountB -  Token B amount to deposit.\r\n     * @param amountAMin - Bounds the extent to which the B/A price can go up before the transaction reverts.\r\n     * @param amountBMin - Bounds the extent to which the A/B price can go up before the transaction reverts.\r\n     * @param amountLP - Additional LP Token amount to deposit.\r\n     * @param recipient - Address which will receive the deposit.\r\n     \r\n     * @return sentA - Token A amount sent to the farm.\r\n     * @return sentB - Token B amount sent to the farm.\r\n     * @return liquidity - Total liquidity sent to the farm (in lpTokens).\r\n     */\r\n    function deposit(address lpPair, uint256 amountA, uint256 amountB, uint256 amountAMin, uint256 amountBMin, uint256 amountLP, address recipient) external whenNotPaused returns(uint256 sentA, uint256 sentB, uint256 liquidity){\r\n        Farm farm = Farm(farmFactory.Farms(lpPair));\r\n        if(farm == Farm(address(0))){\r\n            farm = Farm(farmFactory.createFarm(lpPair));\r\n        }\r\n\r\n        if(amountLP > 0){\r\n            IBEP20(lpPair).safeTransferFrom(msg.sender, address(farm), amountLP);\r\n        }\r\n        if(amountA > 0){\r\n            IBEP20(farm.tokenA()).safeTransferFrom(msg.sender, address(farm), amountA);\r\n        }\r\n        if(amountB > 0){\r\n            IBEP20(farm.tokenB()).safeTransferFrom(msg.sender, address(farm), amountB);\r\n        }\r\n\r\n        (sentA, sentB, liquidity) = farm.deposit(amountA, amountB, amountAMin, amountBMin, amountLP, msg.sender, recipient);\r\n        emit Deposit(lpPair, msg.sender, recipient, liquidity); \r\n    }\r\n\r\n    /**\r\n     * @dev Autoconverts MATIC into WBNB and deposits tokens in the given pool. Creates new Farm contract if there isn't one deployed for the {lpStakingPool} and deposits tokens in it. Emits a {Deposit} event.\r\n     * @param lpPair - Address of the pool to deposit tokens in.\r\n     * @param amountToken  - Token amount to deposit.\r\n     * @param amountTokenMin - Bounds the extent to which the TOKEN/WBNB price can go up before the transaction reverts.\r\n     * @param amountETHMin - Bounds the extent to which the WBNB/TOKEN price can go up before the transaction reverts.\r\n     * @param amountLP - Additional LP Token amount to deposit.\r\n     * @param recipient - Address which will receive the deposit.\r\n     \r\n     * @return sentToken - Token amount sent to the farm.\r\n     * @return sentETH - WBNB amount sent to the farm.\r\n     * @return liquidity - Total liquidity sent to the farm (in lpTokens).\r\n     */\r\n    function depositETH(address lpPair, uint256 amountToken, uint256 amountTokenMin, uint256 amountETHMin, uint256 amountLP, address recipient) external payable whenNotPaused returns(uint256 sentToken, uint256 sentETH, uint256 liquidity){\r\n        require(msg.value > 0, \"NO_MATIC_SENT\");\r\n        Farm farm = Farm(farmFactory.Farms(lpPair));\r\n        if(farm == Farm(address(0))){\r\n            farm = Farm(farmFactory.createFarm(lpPair));\r\n        }\r\n\r\n        if(amountLP > 0){\r\n            IBEP20(lpPair).safeTransferFrom(msg.sender, address(farm), amountLP);\r\n        }\r\n\r\n        address tokenA = farm.tokenA();\r\n        address tokenB = farm.tokenB();\r\n\r\n        IWBNB(WBNB).deposit{value: msg.value}();\r\n        IBEP20(WBNB).safeTransfer(address(farm), msg.value);\r\n        if (tokenA == WBNB) {\r\n            if (amountToken > 0) {\r\n                IBEP20(tokenB).safeTransferFrom(msg.sender, address(farm), amountToken);\r\n            }\r\n            (sentETH, sentToken, liquidity) = farm.deposit(msg.value, amountToken, amountETHMin, amountTokenMin, amountLP, address(this), recipient);\r\n            IBEP20(tokenB).safeTransfer(msg.sender, amountToken - sentToken);\r\n        } else if (tokenB == WBNB) {\r\n            if (amountToken > 0) {\r\n                IBEP20(tokenA).safeTransferFrom(msg.sender, address(farm), amountToken);\r\n            }\r\n            (sentToken, sentETH, liquidity) = farm.deposit(amountToken, msg.value, amountTokenMin, amountETHMin, amountLP, address(this), recipient);\r\n            IBEP20(tokenA).safeTransfer(msg.sender, amountToken - sentToken);\r\n        } else {\r\n            revert(\"NOT_WBNB_POOL\");\r\n        }\r\n\r\n        uint256 dust = msg.value - sentETH;\r\n        if (dust > 0){\r\n            IWBNB(WBNB).withdraw(dust);\r\n            payable(msg.sender).transfer(dust);\r\n        }\r\n        emit Deposit(lpPair, msg.sender, recipient, liquidity);\r\n    }\r\n\r\n    /** \r\n     * @dev Withdraws tokens from the given pool. Emits a {Withdraw} event.\r\n     * @param lpPair - LP pool to withdraw from.\r\n     * @param amount - LP amount to withdraw. \r\n     * @param amountAMin - The minimum amount of tokenA that must be received for the transaction not to revert.\r\n     * @param amountBMin - The minimum amount of tokenB that must be received for the transaction not to revert.\r\n     * @param withdrawLP - True: Withdraw in LP tokens, False: Withdraw in normal tokens.\r\n     * @param recipient - The address which will receive tokens.\r\n\r\n     * @return amountA - Token A amount sent to the {recipient}, 0 if withdrawLP == false.\r\n     * @return amountB - Token B amount sent to the {recipient}, 0 if withdrawLP == false.\r\n     */ \r\n    function withdraw(address lpPair, uint256 amount, uint256 amountAMin, uint256 amountBMin, bool withdrawLP, address recipient) external returns(uint256 amountA, uint256 amountB){\r\n        Farm farm = Farm(farmFactory.Farms(lpPair));\r\n        require(farm != Farm(address(0)),'FARM_NOT_EXISTS');\r\n        \r\n        (amountA, amountB) = farm.withdraw(amount, amountAMin, amountBMin, withdrawLP, msg.sender, recipient);\r\n        emit Withdraw(lpPair, msg.sender, recipient, amount);  \r\n    }\r\n\r\n    /** \r\n     * @dev Autoconverts WBNB into MATIC and withdraws tokens from the pool. Emits a {Withdraw} event.\r\n     * @param lpPair - LP pool to withdraw from.\r\n     * @param amount - LP amount to withdraw. \r\n     * @param amountTokenMin - The minimum amount of token that must be received for the transaction not to revert.\r\n     * @param amountETHMin - The minimum amount of MATIC that must be received for the transaction not to revert.\r\n     * @param recipient - The address which will receive tokens.\r\n\r\n     * @return amountToken - Token amount sent to the {recipient}.\r\n     * @return amountETH - MATIC amount sent to the {recipient}.\r\n     */ \r\n    function withdrawETH(address lpPair, uint256 amount, uint256 amountTokenMin, uint256 amountETHMin, address recipient) external payable returns(uint256 amountToken, uint256 amountETH){\r\n        Farm farm = Farm(farmFactory.Farms(lpPair));\r\n        require(farm != Farm(address(0)),'FARM_NOT_EXISTS');\r\n\r\n        address tokenA = farm.tokenA();\r\n        address tokenB = farm.tokenB();\r\n\r\n        if (tokenA == WBNB) {\r\n            (amountETH, amountToken) = farm.withdraw(amount, amountETHMin, amountTokenMin, false, msg.sender, address(this));\r\n            IBEP20(tokenB).safeTransfer(recipient, amountToken);\r\n        } else if (tokenB == WBNB) {\r\n            (amountToken, amountETH) = farm.withdraw(amount, amountTokenMin, amountETHMin, false, msg.sender, address(this)); \r\n            IBEP20(tokenA).safeTransfer(recipient, amountToken);\r\n        } else {\r\n            revert(\"NOT_WMATIC_POOL\");\r\n        }\r\n\r\n        IWBNB(WBNB).withdraw(amountETH);\r\n        payable(recipient).transfer(amountETH);\r\n        emit Withdraw(lpPair, msg.sender, recipient, amount);\r\n    }\r\n\r\n    /**\r\n     * @dev Distributes tokens between users.\r\n     * @param lpPair - LP pool to distribute tokens in.\r\n     * @param swapInfos - Arrays of structs with token arrays describing swap routes (rewardTokenToTokenA, rewardTokenToTokenB, rewarderTokenToTokenA, rewarderTokenToTokenB) and minimum amounts of output tokens that must be received for the transaction not to revert.\r\n     * @param feeSwapInfo - Struct with token arrays describing swap route (rewardTokenToFeeToken, rewarderTokenToFeeToken) and minimum amounts of output tokens that must be received for the transaction not to revert.\r\n     * @param feeTo - Address to collect fees to.\r\n     *\r\n     * Note: This function can only be called by the distributor.\r\n     */ \r\n    function distribute(\r\n        address lpPair,\r\n        Farm.SwapInfo[2] calldata swapInfos,\r\n        Farm.SwapInfo calldata feeSwapInfo,\r\n        address feeTo\r\n    ) external whenNotPaused onlyRole(DISTRIBUTOR_ROLE) {\r\n        Farm farm = Farm(farmFactory.Farms(lpPair));\r\n        require(farm != Farm(address(0)), 'FARM_NOT_EXISTS');\r\n\r\n        uint256 reward = farm.distribute(swapInfos, feeSwapInfo, Farm.FeeInfo(feeTo, fee));\r\n        emit Distribute(lpPair, reward);\r\n    }\r\n\r\n    /**\r\n     * @dev Returns tokens staked by the {_address} for the given {lpPair}.\r\n     * @param _address - The address to check stakes for.\r\n     * @param lpPair - LP pool to check stakes in.\r\n\r\n     * @return stakeLP - Total user stake(in LP tokens).\r\n     * @return stakeA - Token A stake.\r\n     * @return stakeB - Token B stake.\r\n     */\r\n    function userStake(address _address, address lpPair) external view returns (uint256 stakeLP, uint256 stakeA, uint256 stakeB) {\r\n        Farm farm = Farm(farmFactory.Farms(lpPair));\r\n        if (farm != Farm(address(0))) {\r\n            stakeLP = farm.userBalance(_address);\r\n            (stakeA, stakeB) = getTokenStake(lpPair, stakeLP);\r\n        }\r\n    }\r\n\r\n    /**\r\n     * @dev Returns total amount locked in the pool. Doesn't take pending rewards into account.\r\n     * @param lpPair - LP pool to check total deposits in.\r\n\r\n     * @return totalDepositsLP - Total deposits (in LP tokens).\r\n     * @return totalDepositsA - Token A deposits.\r\n     * @return totalDepositsB - Token B deposits.\r\n     */  \r\n    function totalDeposits(address lpPair) external view returns (uint256 totalDepositsLP, uint256 totalDepositsA, uint256 totalDepositsB) {\r\n        Farm farm = Farm(farmFactory.Farms(lpPair));\r\n        if (farm != Farm(address(0))) {\r\n            totalDepositsLP = farm.getTotalDeposits(); \r\n            (totalDepositsA, totalDepositsB) = getTokenStake(lpPair, totalDepositsLP);\r\n        }\r\n    }\r\n\r\n    /**\r\n     * @dev Returns addresses of tokens in {lpPair}.\r\n     * @param lpPair - LP pair to check tokens in.\r\n\r\n     * @return tokens - Tokens addresses.\r\n     */  \r\n    function getTokens(address lpPair) external view returns(IBEP20[] memory tokens){\r\n        tokens = new IBEP20[](2);\r\n        tokens[0] = IBEP20(IUniswapV2Pair(lpPair).token0());\r\n        tokens[1] = IBEP20(IUniswapV2Pair(lpPair).token1());\r\n    }\r\n\r\n    /**\r\n     * @dev Converts LP tokens to normal tokens, value(amountA) == value(amountB) == 0.5*amountLP\r\n     * @param lpPair - LP pair for conversion.\r\n     * @param amountLP - Amount of LP tokens to convert.\r\n\r\n     * @return amountA - Token A amount.\r\n     * @return amountB - Token B amount.\r\n     */ \r\n    function getTokenStake(address lpPair, uint256 amountLP) internal view returns (uint256 amountA, uint256 amountB) {\r\n        uint256 totalSupply = IBEP20(lpPair).totalSupply();\r\n        amountA = amountLP * IBEP20(IUniswapV2Pair(lpPair).token0()).balanceOf(lpPair) / totalSupply;\r\n        amountB = amountLP * IBEP20(IUniswapV2Pair(lpPair).token1()).balanceOf(lpPair) / totalSupply;\r\n    }\r\n\r\n    /**\r\n     * @dev Change fee amount.\r\n     * @param _fee -New fee to collect from farms. [10^18 == 100%]\r\n     *\r\n     * Note: This function can only be called by ADMIN_ROLE.\r\n     */ \r\n    function setFee(uint256 _fee) external onlyRole(accessManager.ADMIN_ROLE()){\r\n        require (_fee <= 1 ether, \"BAD_FEE\");\r\n        if(fee != _fee){\r\n            emit FeeChanged(fee, _fee); \r\n            fee = _fee;\r\n        }\r\n    }\r\n \r\n    function pause() external onlyRole(PAUSER_ROLE) {\r\n        _pause();\r\n    }\r\n\r\n    function unpause() external onlyRole(PAUSER_ROLE) {\r\n        _unpause();\r\n    }\r\n\r\n    function _authorizeUpgrade(address) internal override onlyRole(accessManager.ADMIN_ROLE()) {\r\n\r\n    }\r\n}\r\n",
  "sourcePath": "C:\\Users\\jugli\\Desktop\\uno\\uno-contracts-bsc\\contracts\\test\\UnoAssetRouterApeswapV2.sol",
  "compiler": {
    "name": "solc",
    "version": "0.8.10+commit.fc410830.Emscripten.clang"
  },
  "schemaVersion": "3.4.11",
  "updatedAt": "2022-12-14T11:26:34.145Z",
  "devdoc": {
    "kind": "dev",
    "methods": {
      "constructor": {
        "custom:oz-upgrades-unsafe-allow": "constructor"
      },
      "deposit(address,uint256,uint256,uint256,uint256,uint256,address)": {
        "details": "Deposits tokens in the given pool. Creates new Farm contract if there isn't one deployed for the {lpPair} and deposits tokens in it. Emits a {Deposit} event.",
        "params": {
          "amountA": "- Token A amount to deposit.",
          "amountAMin": "- Bounds the extent to which the B/A price can go up before the transaction reverts.",
          "amountB": "-  Token B amount to deposit.",
          "amountBMin": "- Bounds the extent to which the A/B price can go up before the transaction reverts.",
          "amountLP": "- Additional LP Token amount to deposit.",
          "lpPair": "- Address of the pool to deposit tokens in.",
          "recipient": "- Address which will receive the deposit."
        },
        "returns": {
          "liquidity": "- Total liquidity sent to the farm (in lpTokens).",
          "sentA": "- Token A amount sent to the farm.",
          "sentB": "- Token B amount sent to the farm."
        }
      },
      "depositETH(address,uint256,uint256,uint256,uint256,address)": {
        "details": "Autoconverts MATIC into WBNB and deposits tokens in the given pool. Creates new Farm contract if there isn't one deployed for the {lpStakingPool} and deposits tokens in it. Emits a {Deposit} event.",
        "params": {
          "amountETHMin": "- Bounds the extent to which the WBNB/TOKEN price can go up before the transaction reverts.",
          "amountLP": "- Additional LP Token amount to deposit.",
          "amountToken": "- Token amount to deposit.",
          "amountTokenMin": "- Bounds the extent to which the TOKEN/WBNB price can go up before the transaction reverts.",
          "lpPair": "- Address of the pool to deposit tokens in.",
          "recipient": "- Address which will receive the deposit."
        },
        "returns": {
          "liquidity": "- Total liquidity sent to the farm (in lpTokens).",
          "sentETH": "- WBNB amount sent to the farm.",
          "sentToken": "- Token amount sent to the farm."
        }
      },
      "distribute(address,(address[],uint256)[2],(address[],uint256),address)": {
        "details": "Distributes tokens between users.",
        "params": {
          "feeSwapInfo": "- Struct with token arrays describing swap route (rewardTokenToFeeToken, rewarderTokenToFeeToken) and minimum amounts of output tokens that must be received for the transaction not to revert.",
          "feeTo": "- Address to collect fees to. Note: This function can only be called by the distributor.",
          "lpPair": "- LP pool to distribute tokens in.",
          "swapInfos": "- Arrays of structs with token arrays describing swap routes (rewardTokenToTokenA, rewardTokenToTokenB, rewarderTokenToTokenA, rewarderTokenToTokenB) and minimum amounts of output tokens that must be received for the transaction not to revert."
        }
      },
      "getTokens(address)": {
        "details": "Returns addresses of tokens in {lpPair}.",
        "params": {
          "lpPair": "- LP pair to check tokens in."
        },
        "returns": {
          "tokens": "- Tokens addresses."
        }
      },
      "paused()": {
        "details": "Returns true if the contract is paused, and false otherwise."
      },
      "proxiableUUID()": {
        "details": "Implementation of the ERC1822 {proxiableUUID} function. This returns the storage slot used by the implementation. It is used to validate that the this implementation remains valid after an upgrade. IMPORTANT: A proxy pointing at a proxiable contract should not be considered proxiable itself, because this risks bricking a proxy that upgrades to it, by delegating to itself until out of gas. Thus it is critical that this function revert if invoked through a proxy. This is guaranteed by the `notDelegated` modifier."
      },
      "setFee(uint256)": {
        "details": "Change fee amount.",
        "params": {
          "_fee": "-New fee to collect from farms. [10^18 == 100%] Note: This function can only be called by ADMIN_ROLE."
        }
      },
      "totalDeposits(address)": {
        "details": "Returns total amount locked in the pool. Doesn't take pending rewards into account.",
        "params": {
          "lpPair": "- LP pool to check total deposits in."
        },
        "returns": {
          "totalDepositsA": "- Token A deposits.",
          "totalDepositsB": "- Token B deposits.",
          "totalDepositsLP": "- Total deposits (in LP tokens)."
        }
      },
      "upgradeTo(address)": {
        "details": "Upgrade the implementation of the proxy to `newImplementation`. Calls {_authorizeUpgrade}. Emits an {Upgraded} event."
      },
      "upgradeToAndCall(address,bytes)": {
        "details": "Upgrade the implementation of the proxy to `newImplementation`, and subsequently execute the function call encoded in `data`. Calls {_authorizeUpgrade}. Emits an {Upgraded} event."
      },
      "userStake(address,address)": {
        "details": "Returns tokens staked by the {_address} for the given {lpPair}.",
        "params": {
          "_address": "- The address to check stakes for.",
          "lpPair": "- LP pool to check stakes in."
        },
        "returns": {
          "stakeA": "- Token A stake.",
          "stakeB": "- Token B stake.",
          "stakeLP": "- Total user stake(in LP tokens)."
        }
      },
      "withdraw(address,uint256,uint256,uint256,bool,address)": {
        "details": "Withdraws tokens from the given pool. Emits a {Withdraw} event.",
        "params": {
          "amount": "- LP amount to withdraw. ",
          "amountAMin": "- The minimum amount of tokenA that must be received for the transaction not to revert.",
          "amountBMin": "- The minimum amount of tokenB that must be received for the transaction not to revert.",
          "lpPair": "- LP pool to withdraw from.",
          "recipient": "- The address which will receive tokens.",
          "withdrawLP": "- True: Withdraw in LP tokens, False: Withdraw in normal tokens."
        },
        "returns": {
          "amountA": "- Token A amount sent to the {recipient}, 0 if withdrawLP == false.",
          "amountB": "- Token B amount sent to the {recipient}, 0 if withdrawLP == false."
        }
      },
      "withdrawETH(address,uint256,uint256,uint256,address)": {
        "details": "Autoconverts WBNB into MATIC and withdraws tokens from the pool. Emits a {Withdraw} event.",
        "params": {
          "amount": "- LP amount to withdraw. ",
          "amountETHMin": "- The minimum amount of MATIC that must be received for the transaction not to revert.",
          "amountTokenMin": "- The minimum amount of token that must be received for the transaction not to revert.",
          "lpPair": "- LP pool to withdraw from.",
          "recipient": "- The address which will receive tokens."
        },
        "returns": {
          "amountETH": "- MATIC amount sent to the {recipient}.",
          "amountToken": "- Token amount sent to the {recipient}."
        }
      }
    },
    "stateVariables": {
      "farmFactory": {
        "details": "Contract Variables: farmFactory - The contract that deploys new Farms and links them to {lpPair}s. accessManager - Role manager contract."
      }
    },
    "version": 1
  },
  "userdoc": {
    "kind": "user",
    "methods": {},
    "version": 1
  }
}