{
  "contractName": "UnoAutoStrategy",
  "abi": [
    {
      "anonymous": false,
      "inputs": [
        {
          "indexed": true,
          "internalType": "address",
          "name": "owner",
          "type": "address"
        },
        {
          "indexed": true,
          "internalType": "address",
          "name": "spender",
          "type": "address"
        },
        {
          "indexed": false,
          "internalType": "uint256",
          "name": "value",
          "type": "uint256"
        }
      ],
      "name": "Approval",
      "type": "event"
    },
    {
      "anonymous": false,
      "inputs": [
        {
          "indexed": true,
          "internalType": "uint256",
          "name": "poolID",
          "type": "uint256"
        },
        {
          "indexed": true,
          "internalType": "address",
          "name": "from",
          "type": "address"
        },
        {
          "indexed": true,
          "internalType": "address",
          "name": "recipient",
          "type": "address"
        },
        {
          "indexed": false,
          "internalType": "uint256",
          "name": "amountA",
          "type": "uint256"
        },
        {
          "indexed": false,
          "internalType": "uint256",
          "name": "amountB",
          "type": "uint256"
        }
      ],
      "name": "Deposit",
      "type": "event"
    },
    {
      "anonymous": false,
      "inputs": [
        {
          "indexed": false,
          "internalType": "uint8",
          "name": "version",
          "type": "uint8"
        }
      ],
      "name": "Initialized",
      "type": "event"
    },
    {
      "anonymous": false,
      "inputs": [
        {
          "indexed": true,
          "internalType": "uint256",
          "name": "previousPoolID",
          "type": "uint256"
        },
        {
          "indexed": true,
          "internalType": "uint256",
          "name": "nextPoolID",
          "type": "uint256"
        }
      ],
      "name": "MoveLiquidity",
      "type": "event"
    },
    {
      "anonymous": false,
      "inputs": [
        {
          "indexed": true,
          "internalType": "address",
          "name": "from",
          "type": "address"
        },
        {
          "indexed": true,
          "internalType": "address",
          "name": "to",
          "type": "address"
        },
        {
          "indexed": false,
          "internalType": "uint256",
          "name": "value",
          "type": "uint256"
        }
      ],
      "name": "Transfer",
      "type": "event"
    },
    {
      "anonymous": false,
      "inputs": [
        {
          "indexed": true,
          "internalType": "uint256",
          "name": "poolID",
          "type": "uint256"
        },
        {
          "indexed": true,
          "internalType": "address",
          "name": "from",
          "type": "address"
        },
        {
          "indexed": true,
          "internalType": "address",
          "name": "recipient",
          "type": "address"
        },
        {
          "indexed": false,
          "internalType": "uint256",
          "name": "amountA",
          "type": "uint256"
        },
        {
          "indexed": false,
          "internalType": "uint256",
          "name": "amountB",
          "type": "uint256"
        }
      ],
      "name": "Withdraw",
      "type": "event"
    },
    {
      "inputs": [],
      "name": "accessManager",
      "outputs": [
        {
          "internalType": "contract IUnoAccessManager",
          "name": "",
          "type": "address"
        }
      ],
      "stateMutability": "view",
      "type": "function"
    },
    {
      "inputs": [
        {
          "internalType": "address",
          "name": "owner",
          "type": "address"
        },
        {
          "internalType": "address",
          "name": "spender",
          "type": "address"
        }
      ],
      "name": "allowance",
      "outputs": [
        {
          "internalType": "uint256",
          "name": "",
          "type": "uint256"
        }
      ],
      "stateMutability": "view",
      "type": "function"
    },
    {
      "inputs": [
        {
          "internalType": "address",
          "name": "spender",
          "type": "address"
        },
        {
          "internalType": "uint256",
          "name": "amount",
          "type": "uint256"
        }
      ],
      "name": "approve",
      "outputs": [
        {
          "internalType": "bool",
          "name": "",
          "type": "bool"
        }
      ],
      "stateMutability": "nonpayable",
      "type": "function"
    },
    {
      "inputs": [
        {
          "internalType": "address",
          "name": "account",
          "type": "address"
        }
      ],
      "name": "balanceOf",
      "outputs": [
        {
          "internalType": "uint256",
          "name": "",
          "type": "uint256"
        }
      ],
      "stateMutability": "view",
      "type": "function"
    },
    {
      "inputs": [],
      "name": "decimals",
      "outputs": [
        {
          "internalType": "uint8",
          "name": "",
          "type": "uint8"
        }
      ],
      "stateMutability": "view",
      "type": "function"
    },
    {
      "inputs": [
        {
          "internalType": "address",
          "name": "spender",
          "type": "address"
        },
        {
          "internalType": "uint256",
          "name": "subtractedValue",
          "type": "uint256"
        }
      ],
      "name": "decreaseAllowance",
      "outputs": [
        {
          "internalType": "bool",
          "name": "",
          "type": "bool"
        }
      ],
      "stateMutability": "nonpayable",
      "type": "function"
    },
    {
      "inputs": [],
      "name": "factory",
      "outputs": [
        {
          "internalType": "contract IUnoAutoStrategyFactory",
          "name": "",
          "type": "address"
        }
      ],
      "stateMutability": "view",
      "type": "function"
    },
    {
      "inputs": [
        {
          "internalType": "address",
          "name": "spender",
          "type": "address"
        },
        {
          "internalType": "uint256",
          "name": "addedValue",
          "type": "uint256"
        }
      ],
      "name": "increaseAllowance",
      "outputs": [
        {
          "internalType": "bool",
          "name": "",
          "type": "bool"
        }
      ],
      "stateMutability": "nonpayable",
      "type": "function"
    },
    {
      "inputs": [],
      "name": "name",
      "outputs": [
        {
          "internalType": "string",
          "name": "",
          "type": "string"
        }
      ],
      "stateMutability": "view",
      "type": "function"
    },
    {
      "inputs": [],
      "name": "poolID",
      "outputs": [
        {
          "internalType": "uint256",
          "name": "",
          "type": "uint256"
        }
      ],
      "stateMutability": "view",
      "type": "function"
    },
    {
      "inputs": [
        {
          "internalType": "uint256",
          "name": "",
          "type": "uint256"
        }
      ],
      "name": "pools",
      "outputs": [
        {
          "internalType": "address",
          "name": "pool",
          "type": "address"
        },
        {
          "internalType": "contract IUnoAssetRouter",
          "name": "assetRouter",
          "type": "address"
        },
        {
          "internalType": "contract IERC20Upgradeable",
          "name": "tokenA",
          "type": "address"
        },
        {
          "internalType": "contract IERC20Upgradeable",
          "name": "tokenB",
          "type": "address"
        }
      ],
      "stateMutability": "view",
      "type": "function"
    },
    {
      "inputs": [],
      "name": "symbol",
      "outputs": [
        {
          "internalType": "string",
          "name": "",
          "type": "string"
        }
      ],
      "stateMutability": "view",
      "type": "function"
    },
    {
      "inputs": [],
      "name": "totalSupply",
      "outputs": [
        {
          "internalType": "uint256",
          "name": "",
          "type": "uint256"
        }
      ],
      "stateMutability": "view",
      "type": "function"
    },
    {
      "inputs": [
        {
          "internalType": "address",
          "name": "to",
          "type": "address"
        },
        {
          "internalType": "uint256",
          "name": "amount",
          "type": "uint256"
        }
      ],
      "name": "transfer",
      "outputs": [
        {
          "internalType": "bool",
          "name": "",
          "type": "bool"
        }
      ],
      "stateMutability": "nonpayable",
      "type": "function"
    },
    {
      "inputs": [
        {
          "internalType": "address",
          "name": "from",
          "type": "address"
        },
        {
          "internalType": "address",
          "name": "to",
          "type": "address"
        },
        {
          "internalType": "uint256",
          "name": "amount",
          "type": "uint256"
        }
      ],
      "name": "transferFrom",
      "outputs": [
        {
          "internalType": "bool",
          "name": "",
          "type": "bool"
        }
      ],
      "stateMutability": "nonpayable",
      "type": "function"
    },
    {
      "inputs": [
        {
          "components": [
            {
              "internalType": "address",
              "name": "pool",
              "type": "address"
            },
            {
              "internalType": "contract IUnoAssetRouter",
              "name": "assetRouter",
              "type": "address"
            }
          ],
          "internalType": "struct UnoAutoStrategy._PoolInfo[]",
          "name": "poolInfos",
          "type": "tuple[]"
        },
        {
          "internalType": "contract IUnoAccessManager",
          "name": "_accessManager",
          "type": "address"
        }
      ],
      "name": "initialize",
      "outputs": [],
      "stateMutability": "nonpayable",
      "type": "function"
    },
    {
      "inputs": [
        {
          "internalType": "uint256",
          "name": "pid",
          "type": "uint256"
        },
        {
          "internalType": "uint256",
          "name": "amountA",
          "type": "uint256"
        },
        {
          "internalType": "uint256",
          "name": "amountB",
          "type": "uint256"
        },
        {
          "internalType": "uint256",
          "name": "amountAMin",
          "type": "uint256"
        },
        {
          "internalType": "uint256",
          "name": "amountBMin",
          "type": "uint256"
        },
        {
          "internalType": "address",
          "name": "recipient",
          "type": "address"
        }
      ],
      "name": "deposit",
      "outputs": [
        {
          "internalType": "uint256",
          "name": "sentA",
          "type": "uint256"
        },
        {
          "internalType": "uint256",
          "name": "sentB",
          "type": "uint256"
        },
        {
          "internalType": "uint256",
          "name": "liquidity",
          "type": "uint256"
        }
      ],
      "stateMutability": "nonpayable",
      "type": "function"
    },
    {
      "inputs": [
        {
          "internalType": "uint256",
          "name": "pid",
          "type": "uint256"
        },
        {
          "internalType": "uint256",
          "name": "liquidity",
          "type": "uint256"
        },
        {
          "internalType": "uint256",
          "name": "amountAMin",
          "type": "uint256"
        },
        {
          "internalType": "uint256",
          "name": "amountBMin",
          "type": "uint256"
        },
        {
          "internalType": "address",
          "name": "recipient",
          "type": "address"
        }
      ],
      "name": "withdraw",
      "outputs": [
        {
          "internalType": "uint256",
          "name": "amountA",
          "type": "uint256"
        },
        {
          "internalType": "uint256",
          "name": "amountB",
          "type": "uint256"
        }
      ],
      "stateMutability": "nonpayable",
      "type": "function"
    },
    {
      "inputs": [
        {
          "internalType": "uint256",
          "name": "_poolID",
          "type": "uint256"
        },
        {
          "internalType": "bytes",
          "name": "swapAData",
          "type": "bytes"
        },
        {
          "internalType": "bytes",
          "name": "swapBData",
          "type": "bytes"
        },
        {
          "internalType": "uint256",
          "name": "amountAMin",
          "type": "uint256"
        },
        {
          "internalType": "uint256",
          "name": "amountBMin",
          "type": "uint256"
        }
      ],
      "name": "moveLiquidity",
      "outputs": [],
      "stateMutability": "nonpayable",
      "type": "function"
    },
    {
      "inputs": [
        {
          "internalType": "address",
          "name": "_address",
          "type": "address"
        }
      ],
      "name": "userStake",
      "outputs": [
        {
          "internalType": "uint256",
          "name": "stakeA",
          "type": "uint256"
        },
        {
          "internalType": "uint256",
          "name": "stakeB",
          "type": "uint256"
        },
        {
          "internalType": "uint256",
          "name": "leftoverA",
          "type": "uint256"
        },
        {
          "internalType": "uint256",
          "name": "leftoverB",
          "type": "uint256"
        }
      ],
      "stateMutability": "view",
      "type": "function"
    },
    {
      "inputs": [],
      "name": "totalDeposits",
      "outputs": [
        {
          "internalType": "uint256",
          "name": "totalDepositsA",
          "type": "uint256"
        },
        {
          "internalType": "uint256",
          "name": "totalDepositsB",
          "type": "uint256"
        }
      ],
      "stateMutability": "view",
      "type": "function"
    },
    {
      "inputs": [],
      "name": "poolsLength",
      "outputs": [
        {
          "internalType": "uint256",
          "name": "",
          "type": "uint256"
        }
      ],
      "stateMutability": "view",
      "type": "function"
    },
    {
      "inputs": [],
      "name": "tokens",
      "outputs": [
        {
          "internalType": "address",
          "name": "",
          "type": "address"
        },
        {
          "internalType": "address",
          "name": "",
          "type": "address"
        }
      ],
      "stateMutability": "view",
      "type": "function"
    }
  ],
  "bytecode": "0x608060405234801561001057600080fd5b50613f98806100206000396000f3fe608060405234801561001057600080fd5b506004361061014d5760003560e01c80637d882097116100c3578063a9059cbb1161007c578063a9059cbb146102eb578063ac4afa38146102fe578063c45a015514610344578063d473a6541461036f578063dd62ed3e14610382578063fdcb60681461039557600080fd5b80637d882097146102665780638d934485146102835780639130700e1461028c57806395d89b41146102ba5780639d63848a146102c2578063a457c2d7146102d857600080fd5b8063313ce56711610115578063313ce567146101c057806339509351146101cf578063668393c7146101e257806368e5585d146101f757806370a082311461022a57806374552fb61461025357600080fd5b806306fdde0314610152578063095ea7b31461017057806318160ddd1461019357806323b872dd146101a55780632716ae66146101b8575b600080fd5b61015a6103a8565b6040516101679190613308565b60405180910390f35b61018361017e366004613333565b61043a565b6040519015158152602001610167565b6035545b604051908152602001610167565b6101836101b336600461335f565b610452565b609854610197565b60405160128152602001610167565b6101836101dd366004613333565b610478565b6101f56101f03660046133e8565b61049a565b005b61020a610205366004613470565b611129565b604080519485526020850193909352918301526060820152608001610167565b610197610238366004613470565b6001600160a01b031660009081526033602052604090205490565b6101f561026136600461348d565b611342565b61026e611a34565b60408051928352602083019190915201610167565b61019760975481565b61029f61029a366004613512565b611bff565b60408051938452602084019290925290820152606001610167565b61015a611ea9565b6102ca611eb8565b604051610167929190613567565b6101836102e6366004613333565b611f32565b6101836102f9366004613333565b611fb8565b61031161030c366004613581565b611fc6565b604080516001600160a01b0395861681529385166020850152918416918301919091529091166060820152608001610167565b60a154610357906001600160a01b031681565b6040516001600160a01b039091168152602001610167565b61026e61037d36600461359a565b612010565b6101976103903660046135e7565b612272565b60a054610357906001600160a01b031681565b6060603680546103b790613620565b80601f01602080910402602001604051908101604052809291908181526020018280546103e390613620565b80156104305780601f1061040557610100808354040283529160200191610430565b820191906000526020600020905b81548152906001019060200180831161041357829003601f168201915b5050505050905090565b60003361044881858561229d565b5060019392505050565b6000336104608582856123c1565b61046b858585612435565b60019150505b9392505050565b60003361044881858561048b8383612272565b6104959190613671565b61229d565b60a160009054906101000a90046001600160a01b03166001600160a01b0316635c975abb6040518163ffffffff1660e01b8152600401602060405180830381865afa1580156104ed573d6000803e3d6000fd5b505050506040513d601f19601f820116820180604052508101906105119190613689565b156105375760405162461bcd60e51b815260040161052e906136ab565b60405180910390fd5b6002606554141561055a5760405162461bcd60e51b815260040161052e906136d5565b600260655560a054604051632474521560e21b81527f77e60b99a50d27fb027f6912a507d956105b4148adab27a86d235c8bcca8fa2f60048201523360248201526001600160a01b03909116906391d1485490604401602060405180830381865afa1580156105cd573d6000803e3d6000fd5b505050506040513d601f19601f820116820180604052508101906105f19190613689565b61063d5760405162461bcd60e51b815260206004820152601c60248201527f43414c4c45525f4e4f545f4c49515549444954595f4d414e4147455200000000604482015260640161052e565b60355461067b5760405162461bcd60e51b815260206004820152600c60248201526b4e4f5f4c495155494449545960a01b604482015260640161052e565b609d544314156106cd5760405162461bcd60e51b815260206004820152601b60248201527f43414e545f43414c4c5f4f4e5f5448455f53414d455f424c4f434b0000000000604482015260640161052e565b609854871080156106e057506097548714155b6106fc5760405162461bcd60e51b815260040161052e9061370c565b600060986097548154811061071357610713613731565b6000918252602080832060408051608081018252600490940290910180546001600160a01b039081168552600182015481169385019390935260028101548316918401919091526003015416606082015260988054919350908a90811061077c5761077c613731565b6000918252602080832060408051608081018252600494850290920180546001600160a01b039081168452600182015481168486015260028201548116848401526003909101548116606084015292870151875191516328dee51f60e11b8152929650909216926351bdca3e926107f592309201613567565b606060405180830381865afa158015610812573d6000803e3d6000fd5b505050506040513d601f19601f820116820180604052508101906108369190613747565b505060208401518451604051630f62d51f60e11b81529293506001600160a01b0390911691631ec5aa3e91610878918590600090819081903090600401613775565b60408051808303816000875af1158015610896573d6000803e3d6000fd5b505050506040513d601f19601f820116820180604052508101906108ba91906137af565b505060408084015190516370a0823160e01b81523060048201526000916001600160a01b0316906370a0823190602401602060405180830381865afa158015610907573d6000803e3d6000fd5b505050506040513d601f19601f8201168201806040525081019061092b91906137d3565b60608501516040516370a0823160e01b81523060048201529192506000916001600160a01b03909116906370a0823190602401602060405180830381865afa15801561097b573d6000803e3d6000fd5b505050506040513d601f19601f8201168201806040525081019061099f91906137d3565b905083604001516001600160a01b031685604001516001600160a01b031614610c065760008060008060008f8f60049080926109dd939291906137ec565b8101906109ea91906139ee565b955095509550509450945084516001148015610a07575083516001145b610a535760405162461bcd60e51b815260206004820152601860248201527f4241445f535741505f415f544f4b454e535f4c454e4754480000000000000000604482015260640161052e565b89604001516001600160a01b031685600081518110610a7457610a74613731565b6020026020010151600001516001600160a01b031614610acf5760405162461bcd60e51b81526020600482015260166024820152752120a22fa9aba0a82fa0afa4a7282aaa2faa27a5a2a760511b604482015260640161052e565b88604001516001600160a01b031684600081518110610af057610af0613731565b6020026020010151600001516001600160a01b031614610b525760405162461bcd60e51b815260206004820152601760248201527f4241445f535741505f415f4f55545055545f544f4b454e000000000000000000604482015260640161052e565b8685600081518110610b6657610b66613731565b60209081029190910181015101526040516378bd22a360e11b815273a32ee1c40594249eb3183c10792bcf573d4da47c9063f17a454690610bb7908890889060001990899089908990600401613bf5565b6000604051808303816000875af1158015610bd6573d6000803e3d6000fd5b505050506040513d6000823e601f3d908101601f19168201604052610bfe9190810190613cdc565b505050505050505b83606001516001600160a01b031685606001516001600160a01b031614610e6b5760008060008060008d8d6004908092610c42939291906137ec565b810190610c4f91906139ee565b955095509550509450945084516001148015610c6c575083516001145b610cb85760405162461bcd60e51b815260206004820152601860248201527f4241445f535741505f425f544f4b454e535f4c454e4754480000000000000000604482015260640161052e565b89606001516001600160a01b031685600081518110610cd957610cd9613731565b6020026020010151600001516001600160a01b031614610d345760405162461bcd60e51b81526020600482015260166024820152752120a22fa9aba0a82fa12fa4a7282aaa2faa27a5a2a760511b604482015260640161052e565b88606001516001600160a01b031684600081518110610d5557610d55613731565b6020026020010151600001516001600160a01b031614610db75760405162461bcd60e51b815260206004820152601760248201527f4241445f535741505f425f4f55545055545f544f4b454e000000000000000000604482015260640161052e565b8585600081518110610dcb57610dcb613731565b60209081029190910181015101526040516378bd22a360e11b815273a32ee1c40594249eb3183c10792bcf573d4da47c9063f17a454690610e1c908890889060001990899089908990600401613bf5565b6000604051808303816000875af1158015610e3b573d6000803e3d6000fd5b505050506040513d6000823e601f3d908101601f19168201604052610e639190810190613cdc565b505050505050505b6020840151845160408087015190516370a0823160e01b81523060048201526001600160a01b0393841693636505e65e939216906370a0823190602401602060405180830381865afa158015610ec5573d6000803e3d6000fd5b505050506040513d601f19601f82011682018060405250810190610ee991906137d3565b60608801516040516370a0823160e01b81523060048201526001600160a01b03909116906370a0823190602401602060405180830381865afa158015610f33573d6000803e3d6000fd5b505050506040513d601f19601f82011682018060405250810190610f5791906137d3565b8b8b306040518763ffffffff1660e01b8152600401610f7b96959493929190613d74565b6060604051808303816000875af1158015610f9a573d6000803e3d6000fd5b505050506040513d601f19601f82011682018060405250810190610fbe9190613747565b60995550506040805160808101808352918601516370a0823160e01b9092523060848201529081906001600160a01b03166370a0823160a48301602060405180830381865afa158015611015573d6000803e3d6000fd5b505050506040513d601f19601f8201168201806040525081019061103991906137d3565b815260608601516040516370a0823160e01b81523060048201526020909201916001600160a01b03909116906370a0823190602401602060405180830381865afa15801561108b573d6000803e3d6000fd5b505050506040513d601f19601f820116820180604052508101906110af91906137d3565b81526020016110bd60355490565b8152436020918201528151609a55810151609b55604080820151609c55606090910151609d5560975490518d91907faf62d6e59ad2e54c778a490827e6cb28b1d30794092c7367fdbb261b11de033690600090a350505060979890985550506001606555505050505050565b600080600080600060986097548154811061114657611146613731565b6000918252602080832060408051608081018252600494850290920180546001600160a01b0390811680855260018301548216958501869052600283015482168585015260039092015416606084015290516328dee51f60e11b815291955084936351bdca3e926111bb923092909101613567565b606060405180830381865afa1580156111d8573d6000803e3d6000fd5b505050506040513d601f19601f820116820180604052508101906111fc9190613747565b92509250506000611222896001600160a01b031660009081526033602052604090205490565b9050801561133757600061123560355490565b9050806112428584613dac565b61124c9190613dcb565b9850806112598484613dac565b6112639190613dcb565b336000908152609f60209081526040808320609d54845290915290205490985060ff161580156112945750609c5415155b1561133557609c54609a546001600160a01b038c166000908152609e60209081526040808320609d5484529091529020546112cf9085613ded565b6112d99190613dac565b6112e39190613dcb565b609c54609b546001600160a01b038d166000908152609e60209081526040808320609d548452909152902054929950909161131e9085613ded565b6113289190613dac565b6113329190613dcb565b95505b505b505050509193509193565b600061134e600161260e565b90508015611366576000805461ff0019166101001790555b60028310801590611378575060328311155b6113b55760405162461bcd60e51b815260206004820152600e60248201526d10905117d413d3d317d0d3d5539560921b604482015260640161052e565b6114056040518060400160405280601081526020016f554e4f2d4175746f537472617465677960801b815250604051806040016040528060068152602001650554e4f2d4c560d41b81525061269b565b61140d6126d0565b60005b838110156119ba57600085858381811061142c5761142c613731565b90506040020160200160208101906114449190613470565b6001600160a01b031663450efe2187878581811061146457611464613731565b61147a9260206040909202019081019150613470565b6040516001600160e01b031960e084901b1681526001600160a01b039091166004820152602401600060405180830381865afa1580156114be573d6000803e3d6000fd5b505050506040513d6000823e601f3d908101601f191682016040526114e69190810190613e04565b90506000604051806080016040528088888681811061150757611507613731565b61151d9260206040909202019081019150613470565b6001600160a01b0316815260200188888681811061153d5761153d613731565b90506040020160200160208101906115559190613470565b6001600160a01b031681526020018360008151811061157657611576613731565b60200260200101516001600160a01b031681526020018360018151811061159f5761159f613731565b6020908102919091018101516001600160a01b0390811690925260988054600181018255600091909152835160049182027f2237a976fa961f5921fd19f2b03c925c725d77b20ce8f790c19709c03de4d814810180549286166001600160a01b0319938416179055928501517f2237a976fa961f5921fd19f2b03c925c725d77b20ce8f790c19709c03de4d815840180548287169084161790556040808701517f2237a976fa961f5921fd19f2b03c925c725d77b20ce8f790c19709c03de4d816860180549188169185168217905560608801517f2237a976fa961f5921fd19f2b03c925c725d77b20ce8f790c19709c03de4d81790960180549690971695909316949094179094559151636eb1769f60e11b8152939450909263dd62ed3e926116cb92309201613567565b602060405180830381865afa1580156116e8573d6000803e3d6000fd5b505050506040513d601f19601f8201168201806040525081019061170c91906137d3565b61181d57604080820151905163095ea7b360e01b815273a32ee1c40594249eb3183c10792bcf573d4da47c600482015260001960248201526001600160a01b039091169063095ea7b3906044016020604051808303816000875af1158015611778573d6000803e3d6000fd5b505050506040513d601f19601f8201168201806040525081019061179c9190613689565b506040808201516020830151915163095ea7b360e01b81526001600160a01b039283166004820152600019602482015291169063095ea7b3906044016020604051808303816000875af11580156117f7573d6000803e3d6000fd5b505050506040513d601f19601f8201168201806040525081019061181b9190613689565b505b80606001516001600160a01b031663dd62ed3e3083602001516040518363ffffffff1660e01b8152600401611853929190613567565b602060405180830381865afa158015611870573d6000803e3d6000fd5b505050506040513d601f19601f8201168201806040525081019061189491906137d3565b6119a557606081015160405163095ea7b360e01b815273a32ee1c40594249eb3183c10792bcf573d4da47c600482015260001960248201526001600160a01b039091169063095ea7b3906044016020604051808303816000875af1158015611900573d6000803e3d6000fd5b505050506040513d601f19601f820116820180604052508101906119249190613689565b506060810151602082015160405163095ea7b360e01b81526001600160a01b039182166004820152600019602482015291169063095ea7b3906044016020604051808303816000875af115801561197f573d6000803e3d6000fd5b505050506040513d601f19601f820116820180604052508101906119a39190613689565b505b505080806119b290613e92565b915050611410565b5060a080546001600160a01b0384166001600160a01b03199182161790915543609d5560a18054909116331790558015611a2e576000805461ff0019169055604051600181527f7f26b83ff96e1f2b6a682f133852f6798a09c465da95921460cefb38474024989060200160405180910390a15b50505050565b6000806000609860975481548110611a4e57611a4e613731565b600091825260209182902060408051608081018252600493840290920180546001600160a01b0390811680855260018301548216968501879052600283015482168585015260039092015416606084015290516328dee51f60e11b81529194506351bdca3e92611ac19230929101613567565b606060405180830381865afa158015611ade573d6000803e3d6000fd5b505050506040513d601f19601f82011682018060405250810190611b029190613747565b60408481015190516370a0823160e01b81523060048201529296509094506001600160a01b031691506370a0823190602401602060405180830381865afa158015611b51573d6000803e3d6000fd5b505050506040513d601f19601f82011682018060405250810190611b7591906137d3565b611b7f9084613671565b60608201516040516370a0823160e01b81523060048201529194506001600160a01b0316906370a0823190602401602060405180830381865afa158015611bca573d6000803e3d6000fd5b505050506040513d601f19601f82011682018060405250810190611bee91906137d3565b611bf89083613671565b9150509091565b600080600060a160009054906101000a90046001600160a01b03166001600160a01b0316635c975abb6040518163ffffffff1660e01b8152600401602060405180830381865afa158015611c57573d6000803e3d6000fd5b505050506040513d601f19601f82011682018060405250810190611c7b9190613689565b15611c985760405162461bcd60e51b815260040161052e906136ab565b60026065541415611cbb5760405162461bcd60e51b815260040161052e906136d5565b60026065556097548914611ce15760405162461bcd60e51b815260040161052e9061370c565b6000609860975481548110611cf857611cf8613731565b600091825260209182902060408051608081018252600490930290910180546001600160a01b0390811684526001820154811694840194909452600281015484169183018290526003015490921660608201529150611d599033308c612701565b6060810151611d73906001600160a01b031633308b612701565b60208101518151604051633282f32f60e11b81526001600160a01b0390921691636505e65e91611daf918d908d908d908d903090600401613d74565b6060604051808303816000875af1158015611dce573d6000803e3d6000fd5b505050506040513d601f19601f82011682018060405250810190611df29190613747565b509094509250611e018561276c565b9150611e2633611e11868c613ded565b60408401516001600160a01b031691906128ff565b611e4933611e34858b613ded565b60608401516001600160a01b031691906128ff565b60975460408051868152602081018690526001600160a01b03881692339290917feb65d0f36862bbd8763c5e2c983c9d753267d223eee35a224d8d0a9d7ef433a2910160405180910390a450600160658190555096509650969350505050565b6060603780546103b790613620565b6000806000609860975481548110611ed257611ed2613731565b600091825260209182902060408051608081018252600490930290910180546001600160a01b0390811684526001820154811694840194909452600281015484169183018290526003015490921660609091018190529094909350915050565b60003381611f408286612272565b905083811015611fa05760405162461bcd60e51b815260206004820152602560248201527f45524332303a2064656372656173656420616c6c6f77616e63652062656c6f77604482015264207a65726f60d81b606482015260840161052e565b611fad828686840361229d565b506001949350505050565b600033610448818585612435565b60988181548110611fd657600080fd5b600091825260209091206004909102018054600182015460028301546003909301546001600160a01b039283169450908216928216911684565b60008060a160009054906101000a90046001600160a01b03166001600160a01b0316635c975abb6040518163ffffffff1660e01b8152600401602060405180830381865afa158015612066573d6000803e3d6000fd5b505050506040513d601f19601f8201168201806040525081019061208a9190613689565b156120a75760405162461bcd60e51b815260040161052e906136ab565b600260655414156120ca5760405162461bcd60e51b815260040161052e906136d5565b600260655560975487146120f05760405162461bcd60e51b815260040161052e9061370c565b600060986097548154811061210757612107613731565b6000918252602080832060408051608081018252600490940290910180546001600160a01b039081168552600182015481169385019390935260028101548316918401919091526003015416606082015291508061216486612934565b9150915060006121738a612ad3565b60208501518551604051630f62d51f60e11b81529293506001600160a01b0390911691631ec5aa3e916121b39185908e908e906000908f90600401613775565b60408051808303816000875af11580156121d1573d6000803e3d6000fd5b505050506040513d601f19601f820116820180604052508101906121f591906137af565b90965094506122048387613671565b95506122108286613671565b60975460408051898152602081018490529297506001600160a01b038a16923392917ffe7813e2866053d5c3938554e517b554fce6666a6561bed9eaa7419b29fa9b68910160405180910390a450506001606555509197909650945050505050565b6001600160a01b03918216600090815260346020908152604080832093909416825291909152205490565b6001600160a01b0383166122ff5760405162461bcd60e51b8152602060048201526024808201527f45524332303a20617070726f76652066726f6d20746865207a65726f206164646044820152637265737360e01b606482015260840161052e565b6001600160a01b0382166123605760405162461bcd60e51b815260206004820152602260248201527f45524332303a20617070726f766520746f20746865207a65726f206164647265604482015261737360f01b606482015260840161052e565b6001600160a01b0383811660008181526034602090815260408083209487168084529482529182902085905590518481527f8c5be1e5ebec7d5bd14f71427d1e84f3dd0314c0f7b2291e5b200ac8c7c3b925910160405180910390a3505050565b60006123cd8484612272565b90506000198114611a2e57818110156124285760405162461bcd60e51b815260206004820152601d60248201527f45524332303a20696e73756666696369656e7420616c6c6f77616e6365000000604482015260640161052e565b611a2e848484840361229d565b6001600160a01b0383166124995760405162461bcd60e51b815260206004820152602560248201527f45524332303a207472616e736665722066726f6d20746865207a65726f206164604482015264647265737360d81b606482015260840161052e565b6001600160a01b0382166124fb5760405162461bcd60e51b815260206004820152602360248201527f45524332303a207472616e7366657220746f20746865207a65726f206164647260448201526265737360e81b606482015260840161052e565b612506838383612c31565b6001600160a01b0383166000908152603360205260409020548181101561257e5760405162461bcd60e51b815260206004820152602660248201527f45524332303a207472616e7366657220616d6f756e7420657863656564732062604482015265616c616e636560d01b606482015260840161052e565b6001600160a01b038085166000908152603360205260408082208585039055918516815290812080548492906125b5908490613671565b92505081905550826001600160a01b0316846001600160a01b03167fddf252ad1be2c89b69c2b068fc378daa952ba7f163c4a11628f55a4df523b3ef8460405161260191815260200190565b60405180910390a3611a2e565b60008054610100900460ff1615612655578160ff1660011480156126315750303b155b61264d5760405162461bcd60e51b815260040161052e90613ead565b506000919050565b60005460ff80841691161061267c5760405162461bcd60e51b815260040161052e90613ead565b506000805460ff191660ff92909216919091179055600190565b919050565b600054610100900460ff166126c25760405162461bcd60e51b815260040161052e90613efb565b6126cc8282612d03565b5050565b600054610100900460ff166126f75760405162461bcd60e51b815260040161052e90613efb565b6126ff612d51565b565b6040516001600160a01b0380851660248301528316604482015260648101829052611a2e9085906323b872dd60e01b906084015b60408051601f198184030181529190526020810180516001600160e01b03166001600160e01b031990931692909217909152612d7f565b60008060986097548154811061278457612784613731565b6000918252602080832060408051608081018252600494850290920180546001600160a01b0390811680855260018301548216958501869052600283015482168585015260039092015416606084015290516328dee51f60e11b815291955091926351bdca3e926127f792309201613567565b606060405180830381865afa158015612814573d6000803e3d6000fd5b505050506040513d601f19601f820116820180604052508101906128389190613747565b5050905060006099548261284c9190613ded565b9050600061285960355490565b9050806128805761286c6103e883613ded565b945061287b60016103e8612e51565b61289a565b60995461288d8284613dac565b6128979190613dcb565b94505b600085116128ea5760405162461bcd60e51b815260206004820152601d60248201527f494e53554646494349454e545f4c49515549444954595f4d494e544544000000604482015260640161052e565b6128f48686612e51565b505060995550919050565b6040516001600160a01b03831660248201526044810182905261292f90849063a9059cbb60e01b90606401612735565b505050565b336000908152609f60209081526040808320609d548452909152812054819060ff16612ace57609c5415612aa657600060986097548154811061297957612979613731565b600091825260208083206040805160808101825260049490940290910180546001600160a01b03908116855260018201548116858501526002820154811685840152600390910154166060840152609c54609a5433808752609e8552838720609d54885285528387205490875260339094529190942054929450916129fe9190613ded565b612a089190613dac565b612a129190613dcb565b609c54609b54336000818152609e60209081526040808320609d548452825280832054938352603390915290205493965091929091612a5091613ded565b612a5a9190613dac565b612a649190613dcb565b91508215612a85576040810151612a85906001600160a01b031685856128ff565b8115612aa4576060810151612aa4906001600160a01b031685846128ff565b505b336000908152609f60209081526040808320609d5484529091529020805460ff191660011790555b915091565b600080609860975481548110612aeb57612aeb613731565b6000918252602080832060408051608081018252600494850290920180546001600160a01b0390811680855260018301548216958501869052600283015482168585015260039092015416606084015290516328dee51f60e11b815291955091926351bdca3e92612b5e92309201613567565b606060405180830381865afa158015612b7b573d6000803e3d6000fd5b505050506040513d601f19601f82011682018060405250810190612b9f9190613747565b50509050612bac60355490565b612bb68286613dac565b612bc09190613dcb565b925060008311612c125760405162461bcd60e51b815260206004820152601d60248201527f494e53554646494349454e545f4c49515549444954595f4255524e4544000000604482015260640161052e565b612c1c3385612f3c565b612c268382613ded565b609955509092915050565b6001600160a01b0383166000908152609e60209081526040808320609d548452909152902054811115612c89576001600160a01b0383166000908152609e60209081526040808320609d548452909152812055612cc4565b6001600160a01b0383166000908152609e60209081526040808320609d54845290915281208054839290612cbe908490613ded565b90915550505b6001600160a01b0382166000908152609e60209081526040808320609d54845290915281208054839290612cf9908490613671565b9091555050505050565b600054610100900460ff16612d2a5760405162461bcd60e51b815260040161052e90613efb565b8151612d3d906036906020850190613217565b50805161292f906037906020840190613217565b600054610100900460ff16612d785760405162461bcd60e51b815260040161052e90613efb565b6001606555565b6000612dd4826040518060400160405280602081526020017f5361666545524332303a206c6f772d6c6576656c2063616c6c206661696c6564815250856001600160a01b03166130969092919063ffffffff16565b80519091501561292f5780806020019051810190612df29190613689565b61292f5760405162461bcd60e51b815260206004820152602a60248201527f5361666545524332303a204552433230206f7065726174696f6e20646964206e6044820152691bdd081cdd58d8d9595960b21b606482015260840161052e565b6001600160a01b038216612ea75760405162461bcd60e51b815260206004820152601f60248201527f45524332303a206d696e7420746f20746865207a65726f206164647265737300604482015260640161052e565b612eb360008383612c31565b8060356000828254612ec59190613671565b90915550506001600160a01b03821660009081526033602052604081208054839290612ef2908490613671565b90915550506040518181526001600160a01b038316906000907fddf252ad1be2c89b69c2b068fc378daa952ba7f163c4a11628f55a4df523b3ef9060200160405180910390a35050565b6001600160a01b038216612f9c5760405162461bcd60e51b815260206004820152602160248201527f45524332303a206275726e2066726f6d20746865207a65726f206164647265736044820152607360f81b606482015260840161052e565b612fa882600083612c31565b6001600160a01b0382166000908152603360205260409020548181101561301c5760405162461bcd60e51b815260206004820152602260248201527f45524332303a206275726e20616d6f756e7420657863656564732062616c616e604482015261636560f01b606482015260840161052e565b6001600160a01b038316600090815260336020526040812083830390556035805484929061304b908490613ded565b90915550506040518281526000906001600160a01b038516907fddf252ad1be2c89b69c2b068fc378daa952ba7f163c4a11628f55a4df523b3ef9060200160405180910390a3505050565b60606130a584846000856130ad565b949350505050565b60608247101561310e5760405162461bcd60e51b815260206004820152602660248201527f416464726573733a20696e73756666696369656e742062616c616e636520666f6044820152651c8818d85b1b60d21b606482015260840161052e565b6001600160a01b0385163b6131655760405162461bcd60e51b815260206004820152601d60248201527f416464726573733a2063616c6c20746f206e6f6e2d636f6e7472616374000000604482015260640161052e565b600080866001600160a01b031685876040516131819190613f46565b60006040518083038185875af1925050503d80600081146131be576040519150601f19603f3d011682016040523d82523d6000602084013e6131c3565b606091505b50915091506131d38282866131de565b979650505050505050565b606083156131ed575081610471565b8251156131fd5782518084602001fd5b8160405162461bcd60e51b815260040161052e9190613308565b82805461322390613620565b90600052602060002090601f016020900481019282613245576000855561328b565b82601f1061325e57805160ff191683800117855561328b565b8280016001018555821561328b579182015b8281111561328b578251825591602001919060010190613270565b5061329792915061329b565b5090565b5b80821115613297576000815560010161329c565b60005b838110156132cb5781810151838201526020016132b3565b83811115611a2e5750506000910152565b600081518084526132f48160208601602086016132b0565b601f01601f19169290920160200192915050565b60208152600061047160208301846132dc565b6001600160a01b038116811461333057600080fd5b50565b6000806040838503121561334657600080fd5b82356133518161331b565b946020939093013593505050565b60008060006060848603121561337457600080fd5b833561337f8161331b565b9250602084013561338f8161331b565b929592945050506040919091013590565b60008083601f8401126133b257600080fd5b5081356001600160401b038111156133c957600080fd5b6020830191508360208285010111156133e157600080fd5b9250929050565b600080600080600080600060a0888a03121561340357600080fd5b8735965060208801356001600160401b038082111561342157600080fd5b61342d8b838c016133a0565b909850965060408a013591508082111561344657600080fd5b506134538a828b016133a0565b989b979a5095989597966060870135966080013595509350505050565b60006020828403121561348257600080fd5b81356104718161331b565b6000806000604084860312156134a257600080fd5b83356001600160401b03808211156134b957600080fd5b818601915086601f8301126134cd57600080fd5b8135818111156134dc57600080fd5b8760208260061b85010111156134f157600080fd5b602092830195509350508401356135078161331b565b809150509250925092565b60008060008060008060c0878903121561352b57600080fd5b863595506020870135945060408701359350606087013592506080870135915060a08701356135598161331b565b809150509295509295509295565b6001600160a01b0392831681529116602082015260400190565b60006020828403121561359357600080fd5b5035919050565b600080600080600060a086880312156135b257600080fd5b8535945060208601359350604086013592506060860135915060808601356135d98161331b565b809150509295509295909350565b600080604083850312156135fa57600080fd5b82356136058161331b565b915060208301356136158161331b565b809150509250929050565b600181811c9082168061363457607f821691505b6020821081141561365557634e487b7160e01b600052602260045260246000fd5b50919050565b634e487b7160e01b600052601160045260246000fd5b600082198211156136845761368461365b565b500190565b60006020828403121561369b57600080fd5b8151801515811461047157600080fd5b60208082526010908201526f14105554d05093114e8814105554d15160821b604082015260600190565b6020808252601f908201527f5265656e7472616e637947756172643a207265656e7472616e742063616c6c00604082015260600190565b6020808252600b908201526a10905117d413d3d317d25160aa1b604082015260600190565b634e487b7160e01b600052603260045260246000fd5b60008060006060848603121561375c57600080fd5b8351925060208401519150604084015190509250925092565b6001600160a01b0396871681526020810195909552604085019390935260608401919091521515608083015290911660a082015260c00190565b600080604083850312156137c257600080fd5b505080516020909101519092909150565b6000602082840312156137e557600080fd5b5051919050565b600080858511156137fc57600080fd5b8386111561380957600080fd5b5050820193919092039150565b634e487b7160e01b600052604160045260246000fd5b604051606081016001600160401b038111828210171561384e5761384e613816565b60405290565b604051608081016001600160401b038111828210171561384e5761384e613816565b604051601f8201601f191681016001600160401b038111828210171561389e5761389e613816565b604052919050565b60006001600160401b038211156138bf576138bf613816565b5060051b60200190565b600082601f8301126138da57600080fd5b81356001600160401b038111156138f3576138f3613816565b613906601f8201601f1916602001613876565b81815284602083860101111561391b57600080fd5b816020850160208301376000918101602001919091529392505050565b600082601f83011261394957600080fd5b8135602061395e613959836138a6565b613876565b8281526060928302850182019282820191908785111561397d57600080fd5b8387015b858110156139d65781818a0312156139995760008081fd5b6139a161382c565b81356139ac8161331b565b815281860135868201526040808301356139c58161331b565b908201528452928401928101613981565b5090979650505050505050565b80356126968161331b565b60008060008060008060c08789031215613a0757600080fd5b6001600160401b0387351115613a1c57600080fd5b8635870188601f820112613a2f57600080fd5b613a3c61395982356138a6565b81358082526020808301929160051b8401018b1015613a5a57600080fd5b602083015b6020843560051b850101811015613b19576001600160401b0381351115613a8557600080fd5b803584016080818e03601f19011215613a9d57600080fd5b613aa5613854565b613ab2602083013561331b565b6020820135815260408201356020820152613ad0606083013561331b565b606082013560408201526001600160401b0360808301351115613af257600080fd5b613b058e602060808501358501016138c9565b606082015284525060209283019201613a5f565b50975050506001600160401b0360208801351115613b3657600080fd5b613b468860208901358901613938565b94506040870135935060608701359250613b62608088016139e3565b91506001600160401b0360a08801351115613b7c57600080fd5b613b8c8860a089013589016138c9565b90509295509295509295565b600081518084526020808501945080840160005b83811015613bea57815180516001600160a01b03908116895284820151858a0152604091820151169088015260609096019590820190600101613bac565b509495945050505050565b600060c0820160c0835280895180835260e08501915060e08160051b86010192506020808c0160005b83811015613c845787860360df19018552815180516001600160a01b039081168852848201518589015260408083015190911690880152606090810151608091880182905290613c70818901836132dc565b975050509382019390820190600101613c1e565b505085840381870152505050613c9a8189613b98565b9050866040840152856060840152613cbd60808401866001600160a01b03169052565b82810360a0840152613ccf81856132dc565b9998505050505050505050565b60008060408385031215613cef57600080fd5b82516001600160401b03811115613d0557600080fd5b8301601f81018513613d1657600080fd5b80516020613d26613959836138a6565b82815260059290921b83018101918181019088841115613d4557600080fd5b938201935b83851015613d6357845182529382019390820190613d4a565b969091015195979596505050505050565b6001600160a01b039687168152602081019590955260408501939093526060840191909152608083015290911660a082015260c00190565b6000816000190483118215151615613dc657613dc661365b565b500290565b600082613de857634e487b7160e01b600052601260045260246000fd5b500490565b600082821015613dff57613dff61365b565b500390565b60006020808385031215613e1757600080fd5b82516001600160401b03811115613e2d57600080fd5b8301601f81018513613e3e57600080fd5b8051613e4c613959826138a6565b81815260059190911b82018301908381019087831115613e6b57600080fd5b928401925b828410156131d3578351613e838161331b565b82529284019290840190613e70565b6000600019821415613ea657613ea661365b565b5060010190565b6020808252602e908201527f496e697469616c697a61626c653a20636f6e747261637420697320616c72656160408201526d191e481a5b9a5d1a585b1a5e995960921b606082015260800190565b6020808252602b908201527f496e697469616c697a61626c653a20636f6e7472616374206973206e6f74206960408201526a6e697469616c697a696e6760a81b606082015260800190565b60008251613f588184602087016132b0565b919091019291505056fea2646970667358221220564b2b025739d4262d094079abba482c6fb366373e91e882d51f4b60395c6dd064736f6c634300080a0033",
  "immutableReferences": {},
  "source": "// SPDX-License-Identifier: MIT\r\npragma solidity 0.8.10;\r\nimport \"../interfaces/IOdosRouter.sol\";   \r\nimport \"../interfaces/IUnoAssetRouter.sol\";   \r\nimport \"../interfaces/IUnoAutoStrategyFactory.sol\";  \r\nimport '@openzeppelin/contracts-upgradeable/security/ReentrancyGuardUpgradeable.sol';\r\nimport '@openzeppelin/contracts-upgradeable/token/ERC20/ERC20Upgradeable.sol';\r\nimport '@openzeppelin/contracts-upgradeable/token/ERC20/utils/SafeERC20Upgradeable.sol';\r\n\r\ncontract UnoAutoStrategy is Initializable, ERC20Upgradeable, ReentrancyGuardUpgradeable {\r\n    using SafeERC20Upgradeable for IERC20Upgradeable;\r\n    /**\r\n     * @dev PoolInfo:\r\n     * {assetRouter} - UnoAssetRouter contract.\r\n     * {pool} - Pool address. \r\n     * {tokenA} - Pool's first token address.\r\n     * {tokenB} - Pool's second token address.\r\n     */\r\n    struct _PoolInfo {\r\n        address pool;\r\n        IUnoAssetRouter assetRouter;\r\n    }\r\n\r\n    struct PoolInfo {\r\n        address pool;\r\n        IUnoAssetRouter assetRouter;\r\n        IERC20Upgradeable tokenA;\r\n        IERC20Upgradeable tokenB;\r\n    }\r\n\r\n    /**\r\n     * @dev MoveLiquidityInfo:\r\n     * {leftoverA} - TokenA leftovers after MoveLiquidity() call.\r\n     * {leftoverB} - TokenB leftovers after MoveLiquidity() call. \r\n     * {totalSupply} - totalSupply after MoveLiquidity() call.\r\n     * {block} - MoveLiquidity() call block.\r\n     */\r\n    struct MoveLiquidityInfo {\r\n        uint256 leftoverA;\r\n        uint256 leftoverB;\r\n        uint256 totalSupply;\r\n        uint256 block;\r\n    }\r\n    \r\n    /**\r\n     * @dev Contract Variables:\r\n     * {OdosRouter} - Contract that executes swaps.\r\n\r\n     * {poolID} - Current pool the strategy uses ({pools} index).\r\n     * {pools} - Pools this strategy can use and move liquidity to.\r\n\r\n     * {reserveLP} - LP token reserve.\r\n     * {lastMoveInfo} - Info on last MoveLiquidity() block.\r\n     * {blockedLiquidty} - User's blocked LP tokens. Prevents user from stealing leftover tokens by depositing and exiting before moveLiquidity() has been called.\r\n     * {leftoversCollected} - Flag that prevents leftover token collection if they were already collected this MoveLiquidity() cycle.\r\n\r\n     * {accessManager} - Role manager contract.\r\n     * {factory} - The address of AutoStrategyFactory this contract was deployed by.\r\n\r\n     * {MINIMUM_LIQUIDITY} - Ameliorates rounding errors.\r\n     */\r\n\r\n    IOdosRouter private constant OdosRouter = IOdosRouter(0xa32EE1C40594249eb3183c10792BcF573D4Da47C);\r\n\r\n    uint256 public poolID;\r\n    PoolInfo[] public pools;\r\n\r\n    uint256 private reserveLP;\r\n    MoveLiquidityInfo private lastMoveInfo;\r\n    mapping(address => mapping(uint256 => uint256)) private blockedLiquidty;\r\n    mapping(address => mapping(uint256 => bool)) private leftoversCollected;\r\n\r\n    IUnoAccessManager public accessManager;\r\n    IUnoAutoStrategyFactory public factory;\r\n\r\n    uint256 private constant MINIMUM_LIQUIDITY = 10**3;\r\n    bytes32 private constant LIQUIDITY_MANAGER_ROLE = keccak256('LIQUIDITY_MANAGER_ROLE');\r\n\r\n    event Deposit(uint256 indexed poolID, address indexed from, address indexed recipient, uint256 amountA, uint256 amountB);\r\n    event Withdraw(uint256 indexed poolID, address indexed from, address indexed recipient, uint256 amountA, uint256 amountB);\r\n    event MoveLiquidity(uint256 indexed previousPoolID, uint256 indexed nextPoolID);\r\n\r\n    modifier whenNotPaused(){\r\n        require(factory.paused() == false, 'PAUSABLE: PAUSED');\r\n        _;\r\n    }\r\n\r\n    // ============ Methods ============\r\n\r\n    function initialize(_PoolInfo[] calldata poolInfos, IUnoAccessManager _accessManager) external initializer {\r\n        require ((poolInfos.length >= 2) && (poolInfos.length <= 50), 'BAD_POOL_COUNT');\r\n\r\n        __ERC20_init(\"UNO-AutoStrategy\", \"UNO-LP\");\r\n        __ReentrancyGuard_init();\r\n        \r\n        for (uint256 i = 0; i < poolInfos.length; i++) {\r\n            address[] memory _tokens = IUnoAssetRouter(poolInfos[i].assetRouter).getTokens(poolInfos[i].pool);\r\n            PoolInfo memory pool = PoolInfo({\r\n                pool: poolInfos[i].pool,\r\n                assetRouter: poolInfos[i].assetRouter,\r\n                tokenA: IERC20Upgradeable(_tokens[0]),\r\n                tokenB: IERC20Upgradeable(_tokens[1])\r\n            });\r\n            pools.push(pool);\r\n\r\n            if (pool.tokenA.allowance(address(this), address(pool.assetRouter)) == 0) {\r\n                pool.tokenA.approve(address(OdosRouter), type(uint256).max);\r\n                pool.tokenA.approve(address(pool.assetRouter), type(uint256).max);\r\n            }\r\n            if (pool.tokenB.allowance(address(this), address(pool.assetRouter)) == 0) {\r\n                pool.tokenB.approve(address(OdosRouter), type(uint256).max);\r\n                pool.tokenB.approve(address(pool.assetRouter), type(uint256).max);\r\n            }\r\n        }\r\n\r\n        accessManager = _accessManager;\r\n        lastMoveInfo.block = block.number;\r\n        factory = IUnoAutoStrategyFactory(msg.sender);\r\n    }\r\n\r\n    /**\r\n     * @dev Deposits tokens in the pools[poolID] pool. Mints tokens representing user share. Emits {Deposit} event.\r\n     * @param pid - Current poolID. Throws revert if moveLiquidity() has been called before the transaction has been mined.\r\n     * @param amountA - Token A amount to deposit.\r\n     * @param amountB  - Token B amount to deposit.\r\n     * @param amountAMin - Bounds the extent to which the B/A price can go up before the transaction reverts.\r\n     * @param amountBMin - Bounds the extent to which the A/B price can go up before the transaction reverts.\r\n     * @param recipient - Address which will receive the deposit.\r\n     \r\n     * @return sentA - Deposited token A amount.\r\n     * @return sentB - Deposited token B amount.\r\n     * @return liquidity - Total liquidity minted for the {recipient}.\r\n     */\r\n    function deposit(uint256 pid, uint256 amountA, uint256 amountB, uint256 amountAMin, uint256 amountBMin, address recipient) whenNotPaused nonReentrant external returns (uint256 sentA, uint256 sentB, uint256 liquidity) {\r\n        require (pid == poolID, 'BAD_POOL_ID');\r\n        PoolInfo memory pool = pools[poolID];\r\n\r\n        pool.tokenA.safeTransferFrom(msg.sender, address(this), amountA);\r\n        pool.tokenB.safeTransferFrom(msg.sender, address(this), amountB);\r\n\r\n        (sentA, sentB,) = pool.assetRouter.deposit(pool.pool, amountA, amountB, amountAMin, amountBMin, address(this));\r\n        liquidity = mint(recipient);\r\n\r\n        pool.tokenA.safeTransfer(msg.sender, amountA - sentA);\r\n        pool.tokenB.safeTransfer(msg.sender, amountB - sentB);\r\n\r\n        emit Deposit(poolID, msg.sender, recipient, sentA, sentB); \r\n    }\r\n\r\n    /**\r\n     * @dev Withdraws tokens from the {pools[poolID]} pool and sends them to the recipient. Burns tokens representing user share. Emits {Withdraw} event.\r\n     * @param pid - Current poolID. Throws revert if moveLiquidity() has been called before the transaction has been mined.\r\n     * @param liquidity - Liquidity to burn from this user.\r\n     * @param amountAMin - The minimum amount of tokenA that must be received from the pool for the transaction not to revert.\r\n     * @param amountBMin - The minimum amount of tokenB that must be received from the pool for the transaction not to revert.\r\n     * @param recipient - Address which will receive withdrawn tokens.\r\n     \r\n     * @return amountA - Token A amount sent to the {recipient}.\r\n     * @return amountB - Token B amount sent to the {recipient}.\r\n     */\r\n    function withdraw(uint256 pid, uint256 liquidity, uint256 amountAMin, uint256 amountBMin, address recipient) whenNotPaused nonReentrant external returns (uint256 amountA, uint256 amountB) {\r\n        require (pid == poolID, 'BAD_POOL_ID');\r\n        PoolInfo memory pool = pools[poolID];\r\n\r\n        (uint256 leftoverA, uint256 leftoverB) = collectLeftovers(recipient);\r\n\r\n        uint256 amountLP = burn(liquidity);\r\n        (amountA, amountB) = pool.assetRouter.withdraw(pool.pool, amountLP, amountAMin, amountBMin, false, recipient);\r\n\r\n        amountA += leftoverA;\r\n        amountB += leftoverB;\r\n\r\n        emit Withdraw(poolID, msg.sender, recipient, amountA, amountB); \r\n    }\r\n\r\n    /**\r\n     * @dev Collects leftover tokens left from moveLiquidity() function.\r\n     * @param recipient - Address which will receive leftover tokens.\r\n     \r\n     * @return leftoverA - Token A amount sent to the {recipient}.\r\n     * @return leftoverB - Token B amount sent to the {recipient}.\r\n     */\r\n    function collectLeftovers(address recipient) internal returns (uint256 leftoverA, uint256 leftoverB){\r\n        if(!leftoversCollected[msg.sender][lastMoveInfo.block]){\r\n            if(lastMoveInfo.totalSupply != 0){\r\n                PoolInfo memory pool = pools[poolID];\r\n                leftoverA = (balanceOf(msg.sender) - blockedLiquidty[msg.sender][lastMoveInfo.block]) * lastMoveInfo.leftoverA / lastMoveInfo.totalSupply;\r\n                leftoverB = (balanceOf(msg.sender) - blockedLiquidty[msg.sender][lastMoveInfo.block]) * lastMoveInfo.leftoverB / lastMoveInfo.totalSupply;\r\n\r\n                if(leftoverA > 0){\r\n                    pool.tokenA.safeTransfer(recipient, leftoverA);\r\n                }\r\n                if(leftoverB > 0){\r\n                    pool.tokenB.safeTransfer(recipient, leftoverB);\r\n                }\r\n            }\r\n\r\n            leftoversCollected[msg.sender][lastMoveInfo.block] = true;\r\n        }\r\n    }\r\n\r\n    /**\r\n     * @dev Moves liquidity from {pools[poolID]} to {pools[_poolID]}. Emits {MoveLiquidity} event.\r\n     * @param _poolID - Pool ID to move liquidity to.\r\n     * @param swapAData - Data for tokenA swap.\r\n     * @param swapBData - Data for tokenB swap.\r\n     * @param amountAMin - The minimum amount of tokenA that must be deposited in {pools[_poolID]} for the transaction not to revert.\r\n     * @param amountBMin - The minimum amount of tokenB that must be deposited in {pools[_poolID]} for the transaction not to revert.\r\n     *\r\n     * Note: This function can only be called by LiquidityManager.\r\n     */\r\n    function moveLiquidity(uint256 _poolID, bytes calldata swapAData, bytes calldata swapBData, uint256 amountAMin, uint256 amountBMin) whenNotPaused nonReentrant external {\r\n        require(accessManager.hasRole(LIQUIDITY_MANAGER_ROLE, msg.sender), 'CALLER_NOT_LIQUIDITY_MANAGER');\r\n        require(totalSupply() != 0, 'NO_LIQUIDITY');\r\n        require(lastMoveInfo.block != block.number, 'CANT_CALL_ON_THE_SAME_BLOCK');\r\n        require((_poolID < pools.length) && (_poolID != poolID), 'BAD_POOL_ID');\r\n\r\n        PoolInfo memory currentPool = pools[poolID];\r\n        PoolInfo memory newPool = pools[_poolID];\r\n\r\n        (uint256 _totalDeposits,,) = currentPool.assetRouter.userStake(address(this), currentPool.pool);\r\n        currentPool.assetRouter.withdraw(currentPool.pool, _totalDeposits, 0, 0, false, address(this));\r\n\r\n        uint256 tokenABalance = currentPool.tokenA.balanceOf(address(this));\r\n        uint256 tokenBBalance = currentPool.tokenB.balanceOf(address(this));\r\n\r\n        if(currentPool.tokenA != newPool.tokenA){\r\n            (\r\n                IOdosRouter.inputToken[] memory inputs, \r\n                IOdosRouter.outputToken[] memory outputs, \r\n                ,\r\n                uint256 valueOutMin,\r\n                address executor,\r\n                bytes memory pathDefinition\r\n            ) = abi.decode(swapAData[4:], (IOdosRouter.inputToken[],IOdosRouter.outputToken[],uint256,uint256,address,bytes));\r\n\r\n            require((inputs.length == 1) && (outputs.length == 1), 'BAD_SWAP_A_TOKENS_LENGTH');\r\n            require(inputs[0].tokenAddress == address(currentPool.tokenA), 'BAD_SWAP_A_INPUT_TOKEN');\r\n            require(outputs[0].tokenAddress == address(newPool.tokenA), 'BAD_SWAP_A_OUTPUT_TOKEN');\r\n\r\n            inputs[0].amountIn = tokenABalance;\r\n            OdosRouter.swap(inputs, outputs, type(uint256).max, valueOutMin, executor, pathDefinition);\r\n        }\r\n\r\n        if(currentPool.tokenB != newPool.tokenB){\r\n            (\r\n                IOdosRouter.inputToken[] memory inputs,\r\n                IOdosRouter.outputToken[] memory outputs,\r\n                ,\r\n                uint256 valueOutMin,\r\n                address executor,\r\n                bytes memory pathDefinition\r\n            ) = abi.decode(swapBData[4:], (IOdosRouter.inputToken[],IOdosRouter.outputToken[],uint256,uint256,address,bytes));\r\n\r\n            require((inputs.length == 1) && (outputs.length == 1), 'BAD_SWAP_B_TOKENS_LENGTH');\r\n            require(inputs[0].tokenAddress == address(currentPool.tokenB), 'BAD_SWAP_B_INPUT_TOKEN');\r\n            require(outputs[0].tokenAddress == address(newPool.tokenB), 'BAD_SWAP_B_OUTPUT_TOKEN');\r\n\r\n            inputs[0].amountIn = tokenBBalance;\r\n            OdosRouter.swap(inputs, outputs, type(uint256).max, valueOutMin, executor, pathDefinition);\r\n        }\r\n        \r\n        (,,reserveLP) = newPool.assetRouter.deposit(newPool.pool, newPool.tokenA.balanceOf(address(this)), newPool.tokenB.balanceOf(address(this)), amountAMin, amountBMin, address(this));\r\n       \r\n        lastMoveInfo = MoveLiquidityInfo({\r\n            leftoverA: newPool.tokenA.balanceOf(address(this)),\r\n            leftoverB: newPool.tokenB.balanceOf(address(this)),\r\n            totalSupply: totalSupply(),\r\n            block: block.number\r\n        });\r\n\r\n        emit MoveLiquidity(poolID, _poolID); \r\n        poolID = _poolID;\r\n    }\r\n\r\n    /**\r\n     * @dev Returns tokens staked by the {_address}. \r\n     * @param _address - The address to check stakes for.\r\n\r\n     * @return stakeA - Token A stake.\r\n     * @return stakeB - Token B stake.\r\n     * @return leftoverA - Token A Leftovers obligated to the {_address} after moveLiquidity() function call.\r\n     * @return leftoverB - Token B Leftovers obligated to the {_address} after moveLiquidity() function call.\r\n     */\r\n    function userStake(address _address) external view returns (uint256 stakeA, uint256 stakeB, uint256 leftoverA, uint256 leftoverB) {\r\n        PoolInfo memory pool = pools[poolID];\r\n        (, uint256 balanceA, uint256 balanceB) = pool.assetRouter.userStake(address(this), pool.pool);\r\n\r\n        uint256 _balance = balanceOf(_address);\r\n        if(_balance != 0){\r\n            uint256 _totalSupply = totalSupply();\r\n            stakeA = _balance * balanceA / _totalSupply; \r\n            stakeB = _balance * balanceB / _totalSupply; \r\n            if((!leftoversCollected[msg.sender][lastMoveInfo.block]) && (lastMoveInfo.totalSupply != 0)){\r\n                leftoverA = (_balance - blockedLiquidty[_address][lastMoveInfo.block]) * lastMoveInfo.leftoverA / lastMoveInfo.totalSupply;\r\n                leftoverB = (_balance - blockedLiquidty[_address][lastMoveInfo.block]) * lastMoveInfo.leftoverB / lastMoveInfo.totalSupply;\r\n            }\r\n        }\r\n    }\r\n        \r\n    /**\r\n     * @dev Returns total amount locked in the pool. \r\n     * @return totalDepositsA - Token A deposits.\r\n     * @return totalDepositsB - Token B deposits.\r\n     */     \r\n    function totalDeposits() external view returns(uint256 totalDepositsA, uint256 totalDepositsB){\r\n        PoolInfo memory pool = pools[poolID];\r\n        (, totalDepositsA, totalDepositsB) = pool.assetRouter.userStake(address(this), pool.pool);\r\n\r\n        // Add leftover tokens.\r\n        totalDepositsA += pool.tokenA.balanceOf(address(this));\r\n        totalDepositsB += pool.tokenB.balanceOf(address(this));\r\n    }\r\n\r\n    /**\r\n     * @dev Returns the number of pools in the strategy. \r\n     */\r\n    function poolsLength() external view returns(uint256){\r\n        return pools.length;\r\n    }\r\n\r\n    /**\r\n     * @dev Returns pair of tokens currently in use. \r\n     */\r\n    function tokens() external view returns(address, address){\r\n        PoolInfo memory pool = pools[poolID];\r\n        return (address(pool.tokenA), address(pool.tokenB));\r\n    }\r\n\r\n    function mint(address to) internal returns (uint256 liquidity){\r\n        PoolInfo memory pool = pools[poolID];\r\n        (uint256 balanceLP,,) = pool.assetRouter.userStake(address(this), pool.pool);\r\n        uint256 amountLP = balanceLP - reserveLP;\r\n\r\n        uint256 _totalSupply = totalSupply();\r\n        if (_totalSupply == 0) {\r\n            liquidity = amountLP - MINIMUM_LIQUIDITY;\r\n            _mint(address(1), MINIMUM_LIQUIDITY);\r\n        } else {\r\n            liquidity = amountLP * _totalSupply / reserveLP;\r\n        }\r\n\r\n        require(liquidity > 0, 'INSUFFICIENT_LIQUIDITY_MINTED');\r\n        _mint(to, liquidity);\r\n\r\n        reserveLP = balanceLP;\r\n    }\r\n\r\n    function burn(uint256 liquidity) internal returns (uint256 amountLP) {\r\n        PoolInfo memory pool = pools[poolID];\r\n        (uint256 balanceLP,,) = pool.assetRouter.userStake(address(this), pool.pool);\r\n\r\n        amountLP = liquidity * balanceLP / totalSupply(); \r\n        require(amountLP > 0, 'INSUFFICIENT_LIQUIDITY_BURNED');\r\n        _burn(msg.sender, liquidity);\r\n\r\n        reserveLP = balanceLP - amountLP;\r\n    }\r\n\r\n    function _beforeTokenTransfer(address from, address to, uint256 amount) internal virtual override {\r\n        super._beforeTokenTransfer(from, to, amount);\r\n\r\n        // Decrease blockedLiquidty from {from} address, but no less then 0.\r\n        if(amount > blockedLiquidty[from][lastMoveInfo.block]){\r\n            blockedLiquidty[from][lastMoveInfo.block] = 0;\r\n        } else {\r\n            blockedLiquidty[from][lastMoveInfo.block] -= amount;\r\n        }\r\n        // Block {to} address from withdrawing their share of leftover tokens immediately.\r\n        blockedLiquidty[to][lastMoveInfo.block] += amount;\r\n    }\r\n}",
  "sourcePath": "C:\\Users\\jugli\\Desktop\\uno\\uno-contracts\\contracts\\autostrategy\\UnoAutoStrategy.sol",
  "compiler": {
    "name": "solc",
    "version": "0.8.10+commit.fc410830.Emscripten.clang"
  },
  "schemaVersion": "3.4.11",
  "updatedAt": "2023-01-30T09:13:47.751Z",
  "devdoc": {
    "kind": "dev",
    "methods": {
      "allowance(address,address)": {
        "details": "See {IERC20-allowance}."
      },
      "approve(address,uint256)": {
        "details": "See {IERC20-approve}. NOTE: If `amount` is the maximum `uint256`, the allowance is not updated on `transferFrom`. This is semantically equivalent to an infinite approval. Requirements: - `spender` cannot be the zero address."
      },
      "balanceOf(address)": {
        "details": "See {IERC20-balanceOf}."
      },
      "decimals()": {
        "details": "Returns the number of decimals used to get its user representation. For example, if `decimals` equals `2`, a balance of `505` tokens should be displayed to a user as `5.05` (`505 / 10 ** 2`). Tokens usually opt for a value of 18, imitating the relationship between Ether and Wei. This is the value {ERC20} uses, unless this function is overridden; NOTE: This information is only used for _display_ purposes: it in no way affects any of the arithmetic of the contract, including {IERC20-balanceOf} and {IERC20-transfer}."
      },
      "decreaseAllowance(address,uint256)": {
        "details": "Atomically decreases the allowance granted to `spender` by the caller. This is an alternative to {approve} that can be used as a mitigation for problems described in {IERC20-approve}. Emits an {Approval} event indicating the updated allowance. Requirements: - `spender` cannot be the zero address. - `spender` must have allowance for the caller of at least `subtractedValue`."
      },
      "deposit(uint256,uint256,uint256,uint256,uint256,address)": {
        "details": "Deposits tokens in the pools[poolID] pool. Mints tokens representing user share. Emits {Deposit} event.",
        "params": {
          "amountA": "- Token A amount to deposit.",
          "amountAMin": "- Bounds the extent to which the B/A price can go up before the transaction reverts.",
          "amountB": "- Token B amount to deposit.",
          "amountBMin": "- Bounds the extent to which the A/B price can go up before the transaction reverts.",
          "pid": "- Current poolID. Throws revert if moveLiquidity() has been called before the transaction has been mined.",
          "recipient": "- Address which will receive the deposit."
        },
        "returns": {
          "liquidity": "- Total liquidity minted for the {recipient}.",
          "sentA": "- Deposited token A amount.",
          "sentB": "- Deposited token B amount."
        }
      },
      "increaseAllowance(address,uint256)": {
        "details": "Atomically increases the allowance granted to `spender` by the caller. This is an alternative to {approve} that can be used as a mitigation for problems described in {IERC20-approve}. Emits an {Approval} event indicating the updated allowance. Requirements: - `spender` cannot be the zero address."
      },
      "moveLiquidity(uint256,bytes,bytes,uint256,uint256)": {
        "details": "Moves liquidity from {pools[poolID]} to {pools[_poolID]}. Emits {MoveLiquidity} event.",
        "params": {
          "_poolID": "- Pool ID to move liquidity to.",
          "amountAMin": "- The minimum amount of tokenA that must be deposited in {pools[_poolID]} for the transaction not to revert.",
          "amountBMin": "- The minimum amount of tokenB that must be deposited in {pools[_poolID]} for the transaction not to revert. Note: This function can only be called by LiquidityManager.",
          "swapAData": "- Data for tokenA swap.",
          "swapBData": "- Data for tokenB swap."
        }
      },
      "name()": {
        "details": "Returns the name of the token."
      },
      "poolsLength()": {
        "details": "Returns the number of pools in the strategy. "
      },
      "symbol()": {
        "details": "Returns the symbol of the token, usually a shorter version of the name."
      },
      "tokens()": {
        "details": "Returns pair of tokens currently in use. "
      },
      "totalDeposits()": {
        "details": "Returns total amount locked in the pool. ",
        "returns": {
          "totalDepositsA": "- Token A deposits.",
          "totalDepositsB": "- Token B deposits."
        }
      },
      "totalSupply()": {
        "details": "See {IERC20-totalSupply}."
      },
      "transfer(address,uint256)": {
        "details": "See {IERC20-transfer}. Requirements: - `to` cannot be the zero address. - the caller must have a balance of at least `amount`."
      },
      "transferFrom(address,address,uint256)": {
        "details": "See {IERC20-transferFrom}. Emits an {Approval} event indicating the updated allowance. This is not required by the EIP. See the note at the beginning of {ERC20}. NOTE: Does not update the allowance if the current allowance is the maximum `uint256`. Requirements: - `from` and `to` cannot be the zero address. - `from` must have a balance of at least `amount`. - the caller must have allowance for ``from``'s tokens of at least `amount`."
      },
      "userStake(address)": {
        "details": "Returns tokens staked by the {_address}. ",
        "params": {
          "_address": "- The address to check stakes for."
        },
        "returns": {
          "leftoverA": "- Token A Leftovers obligated to the {_address} after moveLiquidity() function call.",
          "leftoverB": "- Token B Leftovers obligated to the {_address} after moveLiquidity() function call.",
          "stakeA": "- Token A stake.",
          "stakeB": "- Token B stake."
        }
      },
      "withdraw(uint256,uint256,uint256,uint256,address)": {
        "details": "Withdraws tokens from the {pools[poolID]} pool and sends them to the recipient. Burns tokens representing user share. Emits {Withdraw} event.",
        "params": {
          "amountAMin": "- The minimum amount of tokenA that must be received from the pool for the transaction not to revert.",
          "amountBMin": "- The minimum amount of tokenB that must be received from the pool for the transaction not to revert.",
          "liquidity": "- Liquidity to burn from this user.",
          "pid": "- Current poolID. Throws revert if moveLiquidity() has been called before the transaction has been mined.",
          "recipient": "- Address which will receive withdrawn tokens."
        },
        "returns": {
          "amountA": "- Token A amount sent to the {recipient}.",
          "amountB": "- Token B amount sent to the {recipient}."
        }
      }
    },
    "stateVariables": {
      "OdosRouter": {
        "details": "Contract Variables: {OdosRouter} - Contract that executes swaps. {poolID} - Current pool the strategy uses ({pools} index). {pools} - Pools this strategy can use and move liquidity to. {reserveLP} - LP token reserve. {lastMoveInfo} - Info on last MoveLiquidity() block. {blockedLiquidty} - User's blocked LP tokens. Prevents user from stealing leftover tokens by depositing and exiting before moveLiquidity() has been called. {leftoversCollected} - Flag that prevents leftover token collection if they were already collected this MoveLiquidity() cycle. {accessManager} - Role manager contract. {factory} - The address of AutoStrategyFactory this contract was deployed by. {MINIMUM_LIQUIDITY} - Ameliorates rounding errors."
      }
    },
    "version": 1
  },
  "userdoc": {
    "kind": "user",
    "methods": {},
    "version": 1
  }
}