{
  "contractName": "UnoAutoStrategyBanxeDeprecated",
  "abi": [
    {
      "inputs": [],
      "stateMutability": "nonpayable",
      "type": "constructor"
    },
    {
      "anonymous": false,
      "inputs": [
        {
          "indexed": false,
          "internalType": "address",
          "name": "previousAdmin",
          "type": "address"
        },
        {
          "indexed": false,
          "internalType": "address",
          "name": "newAdmin",
          "type": "address"
        }
      ],
      "name": "AdminChanged",
      "type": "event"
    },
    {
      "anonymous": false,
      "inputs": [
        {
          "indexed": true,
          "internalType": "address",
          "name": "owner",
          "type": "address"
        },
        {
          "indexed": true,
          "internalType": "address",
          "name": "spender",
          "type": "address"
        },
        {
          "indexed": false,
          "internalType": "uint256",
          "name": "value",
          "type": "uint256"
        }
      ],
      "name": "Approval",
      "type": "event"
    },
    {
      "anonymous": false,
      "inputs": [
        {
          "indexed": true,
          "internalType": "address",
          "name": "previousBanxe",
          "type": "address"
        },
        {
          "indexed": true,
          "internalType": "address",
          "name": "newBanxe",
          "type": "address"
        }
      ],
      "name": "BanxeTransferred",
      "type": "event"
    },
    {
      "anonymous": false,
      "inputs": [
        {
          "indexed": true,
          "internalType": "address",
          "name": "beacon",
          "type": "address"
        }
      ],
      "name": "BeaconUpgraded",
      "type": "event"
    },
    {
      "anonymous": false,
      "inputs": [
        {
          "indexed": true,
          "internalType": "uint256",
          "name": "poolID",
          "type": "uint256"
        },
        {
          "indexed": true,
          "internalType": "address",
          "name": "from",
          "type": "address"
        },
        {
          "indexed": true,
          "internalType": "address",
          "name": "recipient",
          "type": "address"
        },
        {
          "indexed": false,
          "internalType": "uint256",
          "name": "amountA",
          "type": "uint256"
        },
        {
          "indexed": false,
          "internalType": "uint256",
          "name": "amountB",
          "type": "uint256"
        }
      ],
      "name": "Deposit",
      "type": "event"
    },
    {
      "anonymous": false,
      "inputs": [
        {
          "indexed": false,
          "internalType": "uint8",
          "name": "version",
          "type": "uint8"
        }
      ],
      "name": "Initialized",
      "type": "event"
    },
    {
      "anonymous": false,
      "inputs": [
        {
          "indexed": true,
          "internalType": "uint256",
          "name": "previousPoolID",
          "type": "uint256"
        },
        {
          "indexed": true,
          "internalType": "uint256",
          "name": "nextPoolID",
          "type": "uint256"
        }
      ],
      "name": "MoveLiquidity",
      "type": "event"
    },
    {
      "anonymous": false,
      "inputs": [
        {
          "indexed": false,
          "internalType": "address",
          "name": "account",
          "type": "address"
        }
      ],
      "name": "Paused",
      "type": "event"
    },
    {
      "anonymous": false,
      "inputs": [
        {
          "indexed": true,
          "internalType": "address",
          "name": "from",
          "type": "address"
        },
        {
          "indexed": true,
          "internalType": "address",
          "name": "to",
          "type": "address"
        },
        {
          "indexed": false,
          "internalType": "uint256",
          "name": "value",
          "type": "uint256"
        }
      ],
      "name": "Transfer",
      "type": "event"
    },
    {
      "anonymous": false,
      "inputs": [
        {
          "indexed": false,
          "internalType": "address",
          "name": "account",
          "type": "address"
        }
      ],
      "name": "Unpaused",
      "type": "event"
    },
    {
      "anonymous": false,
      "inputs": [
        {
          "indexed": true,
          "internalType": "address",
          "name": "implementation",
          "type": "address"
        }
      ],
      "name": "Upgraded",
      "type": "event"
    },
    {
      "anonymous": false,
      "inputs": [
        {
          "indexed": true,
          "internalType": "uint256",
          "name": "poolID",
          "type": "uint256"
        },
        {
          "indexed": true,
          "internalType": "address",
          "name": "from",
          "type": "address"
        },
        {
          "indexed": true,
          "internalType": "address",
          "name": "recipient",
          "type": "address"
        },
        {
          "indexed": false,
          "internalType": "uint256",
          "name": "amountA",
          "type": "uint256"
        },
        {
          "indexed": false,
          "internalType": "uint256",
          "name": "amountB",
          "type": "uint256"
        }
      ],
      "name": "Withdraw",
      "type": "event"
    },
    {
      "inputs": [],
      "name": "accessManager",
      "outputs": [
        {
          "internalType": "contract IUnoAccessManager",
          "name": "",
          "type": "address"
        }
      ],
      "stateMutability": "view",
      "type": "function",
      "constant": true
    },
    {
      "inputs": [
        {
          "internalType": "address",
          "name": "owner",
          "type": "address"
        },
        {
          "internalType": "address",
          "name": "spender",
          "type": "address"
        }
      ],
      "name": "allowance",
      "outputs": [
        {
          "internalType": "uint256",
          "name": "",
          "type": "uint256"
        }
      ],
      "stateMutability": "view",
      "type": "function",
      "constant": true
    },
    {
      "inputs": [
        {
          "internalType": "address",
          "name": "spender",
          "type": "address"
        },
        {
          "internalType": "uint256",
          "name": "amount",
          "type": "uint256"
        }
      ],
      "name": "approve",
      "outputs": [
        {
          "internalType": "bool",
          "name": "",
          "type": "bool"
        }
      ],
      "stateMutability": "nonpayable",
      "type": "function"
    },
    {
      "inputs": [
        {
          "internalType": "address",
          "name": "account",
          "type": "address"
        }
      ],
      "name": "balanceOf",
      "outputs": [
        {
          "internalType": "uint256",
          "name": "",
          "type": "uint256"
        }
      ],
      "stateMutability": "view",
      "type": "function",
      "constant": true
    },
    {
      "inputs": [],
      "name": "banxe",
      "outputs": [
        {
          "internalType": "address",
          "name": "",
          "type": "address"
        }
      ],
      "stateMutability": "view",
      "type": "function",
      "constant": true
    },
    {
      "inputs": [],
      "name": "decimals",
      "outputs": [
        {
          "internalType": "uint8",
          "name": "",
          "type": "uint8"
        }
      ],
      "stateMutability": "view",
      "type": "function",
      "constant": true
    },
    {
      "inputs": [
        {
          "internalType": "address",
          "name": "spender",
          "type": "address"
        },
        {
          "internalType": "uint256",
          "name": "subtractedValue",
          "type": "uint256"
        }
      ],
      "name": "decreaseAllowance",
      "outputs": [
        {
          "internalType": "bool",
          "name": "",
          "type": "bool"
        }
      ],
      "stateMutability": "nonpayable",
      "type": "function"
    },
    {
      "inputs": [
        {
          "internalType": "address",
          "name": "spender",
          "type": "address"
        },
        {
          "internalType": "uint256",
          "name": "addedValue",
          "type": "uint256"
        }
      ],
      "name": "increaseAllowance",
      "outputs": [
        {
          "internalType": "bool",
          "name": "",
          "type": "bool"
        }
      ],
      "stateMutability": "nonpayable",
      "type": "function"
    },
    {
      "inputs": [],
      "name": "name",
      "outputs": [
        {
          "internalType": "string",
          "name": "",
          "type": "string"
        }
      ],
      "stateMutability": "view",
      "type": "function",
      "constant": true
    },
    {
      "inputs": [],
      "name": "paused",
      "outputs": [
        {
          "internalType": "bool",
          "name": "",
          "type": "bool"
        }
      ],
      "stateMutability": "view",
      "type": "function",
      "constant": true
    },
    {
      "inputs": [],
      "name": "poolID",
      "outputs": [
        {
          "internalType": "uint256",
          "name": "",
          "type": "uint256"
        }
      ],
      "stateMutability": "view",
      "type": "function",
      "constant": true
    },
    {
      "inputs": [
        {
          "internalType": "uint256",
          "name": "",
          "type": "uint256"
        }
      ],
      "name": "pools",
      "outputs": [
        {
          "internalType": "address",
          "name": "pool",
          "type": "address"
        },
        {
          "internalType": "contract IUnoAssetRouter",
          "name": "assetRouter",
          "type": "address"
        }
      ],
      "stateMutability": "view",
      "type": "function",
      "constant": true
    },
    {
      "inputs": [],
      "name": "proxiableUUID",
      "outputs": [
        {
          "internalType": "bytes32",
          "name": "",
          "type": "bytes32"
        }
      ],
      "stateMutability": "view",
      "type": "function",
      "constant": true
    },
    {
      "inputs": [],
      "name": "symbol",
      "outputs": [
        {
          "internalType": "string",
          "name": "",
          "type": "string"
        }
      ],
      "stateMutability": "view",
      "type": "function",
      "constant": true
    },
    {
      "inputs": [],
      "name": "tokenA",
      "outputs": [
        {
          "internalType": "contract IERC20Upgradeable",
          "name": "",
          "type": "address"
        }
      ],
      "stateMutability": "view",
      "type": "function",
      "constant": true
    },
    {
      "inputs": [],
      "name": "tokenB",
      "outputs": [
        {
          "internalType": "contract IERC20Upgradeable",
          "name": "",
          "type": "address"
        }
      ],
      "stateMutability": "view",
      "type": "function",
      "constant": true
    },
    {
      "inputs": [],
      "name": "totalSupply",
      "outputs": [
        {
          "internalType": "uint256",
          "name": "",
          "type": "uint256"
        }
      ],
      "stateMutability": "view",
      "type": "function",
      "constant": true
    },
    {
      "inputs": [
        {
          "internalType": "address",
          "name": "to",
          "type": "address"
        },
        {
          "internalType": "uint256",
          "name": "amount",
          "type": "uint256"
        }
      ],
      "name": "transfer",
      "outputs": [
        {
          "internalType": "bool",
          "name": "",
          "type": "bool"
        }
      ],
      "stateMutability": "nonpayable",
      "type": "function"
    },
    {
      "inputs": [
        {
          "internalType": "address",
          "name": "from",
          "type": "address"
        },
        {
          "internalType": "address",
          "name": "to",
          "type": "address"
        },
        {
          "internalType": "uint256",
          "name": "amount",
          "type": "uint256"
        }
      ],
      "name": "transferFrom",
      "outputs": [
        {
          "internalType": "bool",
          "name": "",
          "type": "bool"
        }
      ],
      "stateMutability": "nonpayable",
      "type": "function"
    },
    {
      "inputs": [
        {
          "internalType": "address",
          "name": "newImplementation",
          "type": "address"
        }
      ],
      "name": "upgradeTo",
      "outputs": [],
      "stateMutability": "nonpayable",
      "type": "function"
    },
    {
      "inputs": [
        {
          "internalType": "address",
          "name": "newImplementation",
          "type": "address"
        },
        {
          "internalType": "bytes",
          "name": "data",
          "type": "bytes"
        }
      ],
      "name": "upgradeToAndCall",
      "outputs": [],
      "stateMutability": "payable",
      "type": "function",
      "payable": true
    },
    {
      "inputs": [
        {
          "components": [
            {
              "internalType": "address",
              "name": "pool",
              "type": "address"
            },
            {
              "internalType": "contract IUnoAssetRouter",
              "name": "assetRouter",
              "type": "address"
            }
          ],
          "internalType": "struct UnoAutoStrategyBanxeDeprecated.PoolInfo[]",
          "name": "poolInfos",
          "type": "tuple[]"
        },
        {
          "internalType": "contract IUnoAccessManager",
          "name": "_accessManager",
          "type": "address"
        },
        {
          "internalType": "address",
          "name": "_banxe",
          "type": "address"
        }
      ],
      "name": "initialize",
      "outputs": [],
      "stateMutability": "nonpayable",
      "type": "function"
    },
    {
      "inputs": [
        {
          "internalType": "uint256",
          "name": "amountA",
          "type": "uint256"
        },
        {
          "internalType": "uint256",
          "name": "amountB",
          "type": "uint256"
        },
        {
          "internalType": "uint256",
          "name": "amountAMin",
          "type": "uint256"
        },
        {
          "internalType": "uint256",
          "name": "amountBMin",
          "type": "uint256"
        },
        {
          "internalType": "address",
          "name": "recipient",
          "type": "address"
        }
      ],
      "name": "deposit",
      "outputs": [
        {
          "internalType": "uint256",
          "name": "sentA",
          "type": "uint256"
        },
        {
          "internalType": "uint256",
          "name": "sentB",
          "type": "uint256"
        },
        {
          "internalType": "uint256",
          "name": "liquidity",
          "type": "uint256"
        }
      ],
      "stateMutability": "nonpayable",
      "type": "function"
    },
    {
      "inputs": [
        {
          "internalType": "uint256",
          "name": "liquidity",
          "type": "uint256"
        },
        {
          "internalType": "uint256",
          "name": "amountAMin",
          "type": "uint256"
        },
        {
          "internalType": "uint256",
          "name": "amountBMin",
          "type": "uint256"
        },
        {
          "internalType": "address",
          "name": "recipient",
          "type": "address"
        }
      ],
      "name": "withdraw",
      "outputs": [
        {
          "internalType": "uint256",
          "name": "amountA",
          "type": "uint256"
        },
        {
          "internalType": "uint256",
          "name": "amountB",
          "type": "uint256"
        }
      ],
      "stateMutability": "nonpayable",
      "type": "function"
    },
    {
      "inputs": [
        {
          "internalType": "uint256",
          "name": "_poolID",
          "type": "uint256"
        },
        {
          "internalType": "uint256",
          "name": "amountAMin",
          "type": "uint256"
        },
        {
          "internalType": "uint256",
          "name": "amountBMin",
          "type": "uint256"
        }
      ],
      "name": "moveLiquidity",
      "outputs": [],
      "stateMutability": "nonpayable",
      "type": "function"
    },
    {
      "inputs": [
        {
          "components": [
            {
              "internalType": "address",
              "name": "pool",
              "type": "address"
            },
            {
              "internalType": "contract IUnoAssetRouter",
              "name": "assetRouter",
              "type": "address"
            }
          ],
          "internalType": "struct UnoAutoStrategyBanxeDeprecated.PoolInfo",
          "name": "poolInfo",
          "type": "tuple"
        }
      ],
      "name": "addPool",
      "outputs": [],
      "stateMutability": "nonpayable",
      "type": "function"
    },
    {
      "inputs": [
        {
          "internalType": "address",
          "name": "_address",
          "type": "address"
        }
      ],
      "name": "userStake",
      "outputs": [
        {
          "internalType": "uint256",
          "name": "stakeA",
          "type": "uint256"
        },
        {
          "internalType": "uint256",
          "name": "stakeB",
          "type": "uint256"
        }
      ],
      "stateMutability": "view",
      "type": "function",
      "constant": true
    },
    {
      "inputs": [],
      "name": "totalDeposits",
      "outputs": [
        {
          "internalType": "uint256",
          "name": "totalDepositsA",
          "type": "uint256"
        },
        {
          "internalType": "uint256",
          "name": "totalDepositsB",
          "type": "uint256"
        }
      ],
      "stateMutability": "view",
      "type": "function",
      "constant": true
    },
    {
      "inputs": [],
      "name": "poolsLength",
      "outputs": [
        {
          "internalType": "uint256",
          "name": "",
          "type": "uint256"
        }
      ],
      "stateMutability": "view",
      "type": "function",
      "constant": true
    },
    {
      "inputs": [],
      "name": "tokens",
      "outputs": [
        {
          "internalType": "address",
          "name": "",
          "type": "address"
        },
        {
          "internalType": "address",
          "name": "",
          "type": "address"
        }
      ],
      "stateMutability": "view",
      "type": "function",
      "constant": true
    },
    {
      "inputs": [
        {
          "internalType": "address",
          "name": "_banxe",
          "type": "address"
        }
      ],
      "name": "transferBanxe",
      "outputs": [],
      "stateMutability": "nonpayable",
      "type": "function"
    },
    {
      "inputs": [],
      "name": "pause",
      "outputs": [],
      "stateMutability": "nonpayable",
      "type": "function"
    },
    {
      "inputs": [],
      "name": "unpause",
      "outputs": [],
      "stateMutability": "nonpayable",
      "type": "function"
    }
  ],
  "bytecode": "0x60a0604052306080523480156200001557600080fd5b506200002062000026565b62000156565b6200003260ff62000035565b50565b60008054610100900460ff1615620000ce578160ff1660011480156200006e57506200006c306200014760201b6200258f1760201c565b155b620000c65760405162461bcd60e51b815260206004820152602e60248201526000805160206200472983398151915260448201526d191e481a5b9a5d1a585b1a5e995960921b60648201526084015b60405180910390fd5b506000919050565b60005460ff8084169116106200012d5760405162461bcd60e51b815260206004820152602e60248201526000805160206200472983398151915260448201526d191e481a5b9a5d1a585b1a5e995960921b6064820152608401620000bd565b506000805460ff191660ff92909216919091179055600190565b6001600160a01b03163b151590565b60805161459b6200018e60003960008181610b3701528181610b7701528181610e8301528181610ec30152610f56015261459b6000f3fe6080604052600436106101ee5760003560e01c806368e5585d1161010d578063a457c2d7116100a0578063d331bef71161006f578063d331bef71461059e578063d72ef07c146105be578063dd62ed3e146105de578063e25212c9146105fe578063fdcb60681461061e57600080fd5b8063a457c2d71461051e578063a9059cbb1461053e578063ac4afa381461055e578063b845f1c61461057e57600080fd5b80638456cb59116100dc5780638456cb59146104ac5780638d934485146104c157806395d89b41146104d85780639d63848a146104ed57600080fd5b806368e5585d1461040b57806370a082311461044057806376216f7b146104765780637d8820971461049757600080fd5b80633659cfe6116101855780634f1ef286116101545780634f1ef286146103aa57806352d1902d146103bd5780635c975abb146103d25780635f64b55b146103ea57600080fd5b80633659cfe61461031a578063365d0ed71461033a57806339509351146103755780633f4ba83a1461039557600080fd5b806318160ddd116101c157806318160ddd146102a957806323b872dd146102c85780632716ae66146102e8578063313ce567146102fe57600080fd5b806306fdde03146101f3578063095ea7b31461021e5780630fc63d101461024e57806316b3514f14610287575b600080fd5b3480156101ff57600080fd5b5061020861063f565b6040516102159190613ca3565b60405180910390f35b34801561022a57600080fd5b5061023e610239366004613ceb565b6106d1565b6040519015158152602001610215565b34801561025a57600080fd5b506101305461026f906001600160a01b031681565b6040516001600160a01b039091168152602001610215565b34801561029357600080fd5b506102a76102a2366004613d17565b6106e9565b005b3480156102b557600080fd5b506035545b604051908152602001610215565b3480156102d457600080fd5b5061023e6102e3366004613d2f565b610b06565b3480156102f457600080fd5b5061012f546102ba565b34801561030a57600080fd5b5060405160128152602001610215565b34801561032657600080fd5b506102a7610335366004613d70565b610b2c565b34801561034657600080fd5b5061035a610355366004613d8d565b610c0c565b60408051938452602084019290925290820152606001610215565b34801561038157600080fd5b5061023e610390366004613ceb565b610d9e565b3480156103a157600080fd5b506102a7610dc0565b6102a76103b8366004613e21565b610e78565b3480156103c957600080fd5b506102ba610f49565b3480156103de57600080fd5b5060975460ff1661023e565b3480156103f657600080fd5b506101315461026f906001600160a01b031681565b34801561041757600080fd5b5061042b610426366004613d70565b610ffc565b60408051928352602083019190915201610215565b34801561044c57600080fd5b506102ba61045b366004613d70565b6001600160a01b031660009081526033602052604090205490565b34801561048257600080fd5b5061012d5461026f906001600160a01b031681565b3480156104a357600080fd5b5061042b611358565b3480156104b857600080fd5b506102a7611643565b3480156104cd57600080fd5b506102ba61012e5481565b3480156104e457600080fd5b506102086116fb565b3480156104f957600080fd5b5061013054610131546001600160a01b0391821691165b604051610215929190613ec9565b34801561052a57600080fd5b5061023e610539366004613ceb565b61170a565b34801561054a57600080fd5b5061023e610559366004613ceb565b611790565b34801561056a57600080fd5b50610510610579366004613ee3565b61179e565b34801561058a57600080fd5b506102a7610599366004613efc565b6117d8565b3480156105aa57600080fd5b5061042b6105b9366004613f93565b611e73565b3480156105ca57600080fd5b506102a76105d9366004613fc9565b6120b6565b3480156105ea57600080fd5b506102ba6105f9366004613ff5565b612462565b34801561060a57600080fd5b506102a7610619366004613d70565b61248d565b34801561062a57600080fd5b506101335461026f906001600160a01b031681565b60606036805461064e9061402e565b80601f016020809104026020016040519081016040528092919081815260200182805461067a9061402e565b80156106c75780601f1061069c576101008083540402835291602001916106c7565b820191906000526020600020905b8154815290600101906020018083116106aa57829003601f168201915b5050505050905090565b6000336106df81858561259e565b5060019392505050565b6101345461013354604051632474521560e21b8152600481018390523360248201526001600160a01b03909116906391d1485490604401602060405180830381865afa15801561073d573d6000803e3d6000fd5b505050506040513d601f19601f820116820180604052508101906107619190614063565b6107865760405162461bcd60e51b815260040161077d90614085565b60405180910390fd5b60006107986040840160208501613d70565b6001600160a01b031663450efe216107b36020860186613d70565b6040516001600160e01b031960e084901b1681526001600160a01b039091166004820152602401600060405180830381865afa1580156107f7573d6000803e3d6000fd5b505050506040513d6000823e601f3d908101601f1916820160405261081f91908101906140b4565b6101305481519192506001600160a01b031690829060009061084357610843614166565b60200260200101516001600160a01b031614801561089457506101315481516001600160a01b03909116908290600190811061088157610881614166565b60200260200101516001600160a01b0316145b8061090e57506101315481516001600160a01b039091169082906000906108bd576108bd614166565b60200260200101516001600160a01b031614801561090e57506101305481516001600160a01b0390911690829060019081106108fb576108fb614166565b60200260200101516001600160a01b0316145b61094e5760405162461bcd60e51b815260206004820152601160248201527057524f4e475f504f4f4c5f544f4b454e5360781b604482015260640161077d565b61012f805460018101825560009190915283906002027f232da9e50dad2971456a78fb5cd6ff6b75019984d6e918139ce990999420f97901610990828261419c565b505061012f54603210156109d75760405162461bcd60e51b815260206004820152600e60248201526d544f4f5f4d414e595f504f4f4c5360901b604482015260640161077d565b610130546001600160a01b031663095ea7b36109f96040860160208701613d70565b6040516001600160e01b031960e084901b1681526001600160a01b03909116600482015260001960248201526044016020604051808303816000875af1158015610a47573d6000803e3d6000fd5b505050506040513d601f19601f82011682018060405250810190610a6b9190614063565b50610131546001600160a01b031663095ea7b3610a8e6040860160208701613d70565b6040516001600160e01b031960e084901b1681526001600160a01b03909116600482015260001960248201526044016020604051808303816000875af1158015610adc573d6000803e3d6000fd5b505050506040513d601f19601f82011682018060405250810190610b009190614063565b50505050565b600033610b148582856126c2565b610b1f858585612736565b60019150505b9392505050565b306001600160a01b037f0000000000000000000000000000000000000000000000000000000000000000161415610b755760405162461bcd60e51b815260040161077d906141cd565b7f00000000000000000000000000000000000000000000000000000000000000006001600160a01b0316610bbe60008051602061451f833981519152546001600160a01b031690565b6001600160a01b031614610be45760405162461bcd60e51b815260040161077d90614219565b610bed81612904565b60408051600080825260208201909252610c0991839190612998565b50565b61012d54600090819081906001600160a01b03163314610c615760405162461bcd60e51b815260206004820152601060248201526f43414c4c45525f4e4f545f42414e584560801b604482015260640161077d565b60975460ff1615610c845760405162461bcd60e51b815260040161077d90614265565b60026065541415610ca75760405162461bcd60e51b815260040161077d9061428f565b600260655561013054610cc5906001600160a01b031633308b612b08565b61013154610cde906001600160a01b031633308a612b08565b610cea88888888612b73565b509093509150610cf984612d89565b9050610d1d33610d09858b6142dc565b610130546001600160a01b03169190612f0c565b610d3f33610d2b848a6142dc565b610131546001600160a01b03169190612f0c565b61012e5460408051858152602081018590526001600160a01b03871692339290917feb65d0f36862bbd8763c5e2c983c9d753267d223eee35a224d8d0a9d7ef433a2910160405180910390a46001606581905550955095509592505050565b6000336106df818585610db18383612462565b610dbb91906142f3565b61259e565b61013354604051632474521560e21b81527f65d7a28e3265b37a6474929f336521b332c1681b933f6cb9f3376673440d862a60048201819052336024830152916001600160a01b0316906391d1485490604401602060405180830381865afa158015610e30573d6000803e3d6000fd5b505050506040513d601f19601f82011682018060405250810190610e549190614063565b610e705760405162461bcd60e51b815260040161077d90614085565b610c09612f3c565b306001600160a01b037f0000000000000000000000000000000000000000000000000000000000000000161415610ec15760405162461bcd60e51b815260040161077d906141cd565b7f00000000000000000000000000000000000000000000000000000000000000006001600160a01b0316610f0a60008051602061451f833981519152546001600160a01b031690565b6001600160a01b031614610f305760405162461bcd60e51b815260040161077d90614219565b610f3982612904565b610f4582826001612998565b5050565b6000306001600160a01b037f00000000000000000000000000000000000000000000000000000000000000001614610fe95760405162461bcd60e51b815260206004820152603860248201527f555550535570677261646561626c653a206d757374206e6f742062652063616c60448201527f6c6564207468726f7567682064656c656761746563616c6c0000000000000000606482015260840161077d565b5060008051602061451f83398151915290565b600080600061012f61012e548154811061101857611018614166565b6000918252602080832060408051808201825260029490940290910180546001600160a01b0390811680865260019092015416928401839052905163450efe2160e01b81526004810191909152919350829182919063450efe2190602401600060405180830381865afa158015611093573d6000803e3d6000fd5b505050506040513d6000823e601f3d908101601f191682016040526110bb91908101906140b4565b6101305481519192506001600160a01b03169082906000906110df576110df614166565b60200260200101516001600160a01b0316141561117857602084015184516040516328dee51f60e11b81526001600160a01b03909216916351bdca3e9161112b91309190600401613ec9565b606060405180830381865afa158015611148573d6000803e3d6000fd5b505050506040513d601f19601f8201168201806040525081019061116c919061430b565b90945092506111f49050565b602084015184516040516328dee51f60e11b81526001600160a01b03909216916351bdca3e916111ad91309190600401613ec9565b606060405180830381865afa1580156111ca573d6000803e3d6000fd5b505050506040513d601f19601f820116820180604052508101906111ee919061430b565b94509250505b6001600160a01b038716600090815260336020526040902054801561134e57600061121e60355490565b610130546040516370a0823160e01b81523060048201529192506000916001600160a01b03909116906370a0823190602401602060405180830381865afa15801561126d573d6000803e3d6000fd5b505050506040513d601f19601f820116820180604052508101906112919190614339565b610131546040516370a0823160e01b81523060048201529192506000916001600160a01b03909116906370a0823190602401602060405180830381865afa1580156112e0573d6000803e3d6000fd5b505050506040513d601f19601f820116820180604052508101906113049190614339565b905081836113128987614352565b61131c9190614371565b61132691906142f3565b995080836113348887614352565b61133e9190614371565b61134891906142f3565b98505050505b5050505050915091565b600080600061012f61012e548154811061137457611374614166565b6000918252602080832060408051808201825260029490940290910180546001600160a01b0390811680865260019092015416928401839052905163450efe2160e01b815260048101919091529193509063450efe2190602401600060405180830381865afa1580156113eb573d6000803e3d6000fd5b505050506040513d6000823e601f3d908101601f1916820160405261141391908101906140b4565b6101305481519192506001600160a01b031690829060009061143757611437614166565b60200260200101516001600160a01b031614156114d057602082015182516040516328dee51f60e11b81526001600160a01b03909216916351bdca3e9161148391309190600401613ec9565b606060405180830381865afa1580156114a0573d6000803e3d6000fd5b505050506040513d601f19601f820116820180604052508101906114c4919061430b565b909550935061154c9050565b602082015182516040516328dee51f60e11b81526001600160a01b03909216916351bdca3e9161150591309190600401613ec9565b606060405180830381865afa158015611522573d6000803e3d6000fd5b505050506040513d601f19601f82011682018060405250810190611546919061430b565b95509350505b610130546040516370a0823160e01b81523060048201526001600160a01b03909116906370a0823190602401602060405180830381865afa158015611595573d6000803e3d6000fd5b505050506040513d601f19601f820116820180604052508101906115b99190614339565b6115c390856142f3565b610131546040516370a0823160e01b81523060048201529195506001600160a01b0316906370a0823190602401602060405180830381865afa15801561160d573d6000803e3d6000fd5b505050506040513d601f19601f820116820180604052508101906116319190614339565b61163b90846142f3565b925050509091565b61013354604051632474521560e21b81527f65d7a28e3265b37a6474929f336521b332c1681b933f6cb9f3376673440d862a60048201819052336024830152916001600160a01b0316906391d1485490604401602060405180830381865afa1580156116b3573d6000803e3d6000fd5b505050506040513d601f19601f820116820180604052508101906116d79190614063565b6116f35760405162461bcd60e51b815260040161077d90614085565b610c09612fcf565b60606037805461064e9061402e565b600033816117188286612462565b9050838110156117785760405162461bcd60e51b815260206004820152602560248201527f45524332303a2064656372656173656420616c6c6f77616e63652062656c6f77604482015264207a65726f60d81b606482015260840161077d565b611785828686840361259e565b506001949350505050565b6000336106df818585612736565b61012f81815481106117af57600080fd5b6000918252602090912060029091020180546001909101546001600160a01b0391821692501682565b60006117e46001613027565b905080156117fc576000805461ff0019166101001790555b6002841080159061180e575060328411155b61184b5760405162461bcd60e51b815260206004820152600e60248201526d10905117d413d3d317d0d3d5539560921b604482015260640161077d565b6118a760405180604001604052806016815260200175554e4f2d42616e78652d4175746f537472617465677960501b8152506040518060400160405280600c81526020016b0554e4f2d42414e58452d4c560a41b8152506130af565b6118af6130e0565b6118b7613111565b6000858560008181106118cc576118cc614166565b90506040020160200160208101906118e49190613d70565b6001600160a01b031663450efe218787600081811061190557611905614166565b61191b9260206040909202019081019150613d70565b6040516001600160e01b031960e084901b1681526001600160a01b039091166004820152602401600060405180830381865afa15801561195f573d6000803e3d6000fd5b505050506040513d6000823e601f3d908101601f1916820160405261198791908101906140b4565b90508060008151811061199c5761199c614166565b602002602001015161013060006101000a8154816001600160a01b0302191690836001600160a01b03160217905550806001815181106119de576119de614166565b602002602001015161013160006101000a8154816001600160a01b0302191690836001600160a01b0316021790555060005b85811015611d86576000878783818110611a2c57611a2c614166565b905060400201803603810190611a429190614393565b90508115611bf5576020810151815160405163450efe2160e01b81526001600160a01b039182166004820152600092919091169063450efe2190602401600060405180830381865afa158015611a9c573d6000803e3d6000fd5b505050506040513d6000823e601f3d908101601f19168201604052611ac491908101906140b4565b6101305481519192506001600160a01b0316908290600090611ae857611ae8614166565b60200260200101516001600160a01b0316148015611b3957506101315481516001600160a01b039091169082906001908110611b2657611b26614166565b60200260200101516001600160a01b0316145b80611bb357506101315481516001600160a01b03909116908290600090611b6257611b62614166565b60200260200101516001600160a01b0316148015611bb357506101305481516001600160a01b039091169082906001908110611ba057611ba0614166565b60200260200101516001600160a01b0316145b611bf35760405162461bcd60e51b815260206004820152601160248201527057524f4e475f504f4f4c5f544f4b454e5360781b604482015260640161077d565b505b61012f805460018101825560009190915281517f232da9e50dad2971456a78fb5cd6ff6b75019984d6e918139ce990999420f979600290920291820180546001600160a01b03199081166001600160a01b039384161790915560208401517f232da9e50dad2971456a78fb5cd6ff6b75019984d6e918139ce990999420f97a909301805490911692821692831790556101305460405163095ea7b360e01b815260048101939093526000196024840152169063095ea7b3906044016020604051808303816000875af1158015611ccf573d6000803e3d6000fd5b505050506040513d601f19601f82011682018060405250810190611cf39190614063565b5061013154602082015160405163095ea7b360e01b81526001600160a01b039182166004820152600019602482015291169063095ea7b3906044016020604051808303816000875af1158015611d4d573d6000803e3d6000fd5b505050506040513d601f19601f82011682018060405250810190611d719190614063565b50508080611d7e906143f2565b915050611a10565b5061013380546001600160a01b0319166001600160a01b03861690811790915560408051631d6c8e3f60e21b815290516375b238fc916004808201926020929091908290030181865afa158015611de1573d6000803e3d6000fd5b505050506040513d601f19601f82011682018060405250810190611e059190614339565b610134555061012d80546001600160a01b0319166001600160a01b0384161790558015611e6c576000805461ff0019169055604051600181527f7f26b83ff96e1f2b6a682f133852f6798a09c465da95921460cefb38474024989060200160405180910390a15b5050505050565b600080611e8260975460ff1690565b15611e9f5760405162461bcd60e51b815260040161077d90614265565b60026065541415611ec25760405162461bcd60e51b815260040161077d9061428f565b60026065556000611ed287613140565b9050611ee08187878761328c565b90935091506000611ef060355490565b610130546040516370a0823160e01b81523060048201526001600160a01b03909116906370a0823190602401602060405180830381865afa158015611f39573d6000803e3d6000fd5b505050506040513d601f19601f82011682018060405250810190611f5d9190614339565b611f67908a614352565b611f719190614371565b90508015611f9e57611f8381856142f3565b61013054909450611f9e906001600160a01b03168683612f0c565b6000611fa960355490565b610131546040516370a0823160e01b81523060048201526001600160a01b03909116906370a0823190602401602060405180830381865afa158015611ff2573d6000803e3d6000fd5b505050506040513d601f19601f820116820180604052508101906120169190614339565b612020908b614352565b61202a9190614371565b905080156120575761203c81856142f3565b61013154909450612057906001600160a01b03168783612f0c565b61012e5460408051878152602081018790526001600160a01b03891692339290917ffe7813e2866053d5c3938554e517b554fce6666a6561bed9eaa7419b29fa9b68910160405180910390a45050600160655550909590945092505050565b60975460ff16156120d95760405162461bcd60e51b815260040161077d90614265565b600260655414156120fc5760405162461bcd60e51b815260040161077d9061428f565b600260655561013354604051632474521560e21b81527f77e60b99a50d27fb027f6912a507d956105b4148adab27a86d235c8bcca8fa2f60048201523360248201526001600160a01b03909116906391d1485490604401602060405180830381865afa158015612170573d6000803e3d6000fd5b505050506040513d601f19601f820116820180604052508101906121949190614063565b6121e05760405162461bcd60e51b815260206004820152601c60248201527f43414c4c45525f4e4f545f4c49515549444954595f4d414e4147455200000000604482015260640161077d565b60355461221e5760405162461bcd60e51b815260206004820152600c60248201526b4e4f5f4c495155494449545960a01b604482015260640161077d565b61012f5483108015612233575061012e548314155b61226d5760405162461bcd60e51b815260206004820152600b60248201526a10905117d413d3d317d25160aa1b604482015260640161077d565b600061012f61012e548154811061228657612286614166565b60009182526020808320604080518082018252600290940290910180546001600160a01b039081168086526001909201541692840183905290516328dee51f60e11b815292945090916351bdca3e916122e491309190600401613ec9565b606060405180830381865afa158015612301573d6000803e3d6000fd5b505050506040513d601f19601f82011682018060405250810190612325919061430b565b505090506123358185853061328c565b505061012e546040518691907faf62d6e59ad2e54c778a490827e6cb28b1d30794092c7367fdbb261b11de033690600090a361012e859055610130546040516370a0823160e01b8152306004820152612450916001600160a01b0316906370a0823190602401602060405180830381865afa1580156123b8573d6000803e3d6000fd5b505050506040513d601f19601f820116820180604052508101906123dc9190614339565b610131546040516370a0823160e01b81523060048201526001600160a01b03909116906370a0823190602401602060405180830381865afa158015612425573d6000803e3d6000fd5b505050506040513d601f19601f820116820180604052508101906124499190614339565b8686612b73565b61013255505060016065555050505050565b6001600160a01b03918216600090815260346020908152604080832093909416825291909152205490565b61012d546001600160a01b031633146124db5760405162461bcd60e51b815260206004820152601060248201526f43414c4c45525f4e4f545f42414e584560801b604482015260640161077d565b6001600160a01b0381166125315760405162461bcd60e51b815260206004820152601860248201527f5452414e534645525f544f5f5a45524f5f414444524553530000000000000000604482015260640161077d565b61012d546040516001600160a01b038084169216907f4be5b0d7ef264079a52c66e913760fafaafd4f87f3a5a26e8ab0c1f70b1794c190600090a361012d80546001600160a01b0319166001600160a01b0392909216919091179055565b6001600160a01b03163b151590565b6001600160a01b0383166126005760405162461bcd60e51b8152602060048201526024808201527f45524332303a20617070726f76652066726f6d20746865207a65726f206164646044820152637265737360e01b606482015260840161077d565b6001600160a01b0382166126615760405162461bcd60e51b815260206004820152602260248201527f45524332303a20617070726f766520746f20746865207a65726f206164647265604482015261737360f01b606482015260840161077d565b6001600160a01b0383811660008181526034602090815260408083209487168084529482529182902085905590518481527f8c5be1e5ebec7d5bd14f71427d1e84f3dd0314c0f7b2291e5b200ac8c7c3b925910160405180910390a3505050565b60006126ce8484612462565b90506000198114610b0057818110156127295760405162461bcd60e51b815260206004820152601d60248201527f45524332303a20696e73756666696369656e7420616c6c6f77616e6365000000604482015260640161077d565b610b00848484840361259e565b6001600160a01b03831661279a5760405162461bcd60e51b815260206004820152602560248201527f45524332303a207472616e736665722066726f6d20746865207a65726f206164604482015264647265737360d81b606482015260840161077d565b6001600160a01b0382166127fc5760405162461bcd60e51b815260206004820152602360248201527f45524332303a207472616e7366657220746f20746865207a65726f206164647260448201526265737360e81b606482015260840161077d565b6001600160a01b038316600090815260336020526040902054818110156128745760405162461bcd60e51b815260206004820152602660248201527f45524332303a207472616e7366657220616d6f756e7420657863656564732062604482015265616c616e636560d01b606482015260840161077d565b6001600160a01b038085166000908152603360205260408082208585039055918516815290812080548492906128ab9084906142f3565b92505081905550826001600160a01b0316846001600160a01b03167fddf252ad1be2c89b69c2b068fc378daa952ba7f163c4a11628f55a4df523b3ef846040516128f791815260200190565b60405180910390a3610b00565b6101345461013354604051632474521560e21b8152600481018390523360248201526001600160a01b03909116906391d1485490604401602060405180830381865afa158015612958573d6000803e3d6000fd5b505050506040513d601f19601f8201168201806040525081019061297c9190614063565b610f455760405162461bcd60e51b815260040161077d90614085565b7f4910fdfa16fed3260ed0e7147f7cc6da11a60208b5b9406d12a635614ffd91435460ff16156129d0576129cb836134ba565b505050565b826001600160a01b03166352d1902d6040518163ffffffff1660e01b8152600401602060405180830381865afa925050508015612a2a575060408051601f3d908101601f19168201909252612a2791810190614339565b60015b612a8d5760405162461bcd60e51b815260206004820152602e60248201527f45524331393637557067726164653a206e657720696d706c656d656e7461746960448201526d6f6e206973206e6f74205555505360901b606482015260840161077d565b60008051602061451f8339815191528114612afc5760405162461bcd60e51b815260206004820152602960248201527f45524331393637557067726164653a20756e737570706f727465642070726f786044820152681a58589b195555525160ba1b606482015260840161077d565b506129cb838383613556565b6040516001600160a01b0380851660248301528316604482015260648101829052610b009085906323b872dd60e01b906084015b60408051601f198184030181529190526020810180516001600160e01b03166001600160e01b03199093169290921790915261357b565b60008060008061012f61012e5481548110612b9057612b90614166565b6000918252602080832060408051808201825260029490940290910180546001600160a01b0390811680865260019092015416928401839052905163450efe2160e01b815260048101919091529193509063450efe2190602401600060405180830381865afa158015612c07573d6000803e3d6000fd5b505050506040513d6000823e601f3d908101601f19168201604052612c2f91908101906140b4565b6101305481519192506001600160a01b0316908290600090612c5357612c53614166565b60200260200101516001600160a01b03161415612cf55760208201518251604051633282f32f60e11b81526001600160a01b0390921691636505e65e91612ca6918d908d908d908d90309060040161440d565b6060604051808303816000875af1158015612cc5573d6000803e3d6000fd5b505050506040513d601f19601f82011682018060405250810190612ce9919061430b565b91965094509250612d7d565b60208201518251604051633282f32f60e11b81526001600160a01b0390921691636505e65e91612d31918c908e908c908e90309060040161440d565b6060604051808303816000875af1158015612d50573d6000803e3d6000fd5b505050506040513d601f19601f82011682018060405250810190612d74919061430b565b90965090945092505b50509450945094915050565b60008061012f61012e5481548110612da357612da3614166565b60009182526020808320604080518082018252600290940290910180546001600160a01b039081168086526001909201541692840183905290516328dee51f60e11b815292945090916351bdca3e91612e0191309190600401613ec9565b606060405180830381865afa158015612e1e573d6000803e3d6000fd5b505050506040513d601f19601f82011682018060405250810190612e42919061430b565b5050905060006101325482612e5791906142dc565b90506000612e6460355490565b905080612e8b57612e776103e8836142dc565b9450612e8660016103e861364d565b612ea6565b61013254612e998284614352565b612ea39190614371565b94505b60008511612ef65760405162461bcd60e51b815260206004820152601d60248201527f494e53554646494349454e545f4c49515549444954595f4d494e544544000000604482015260640161077d565b612f00868661364d565b50506101325550919050565b6040516001600160a01b0383166024820152604481018290526129cb90849063a9059cbb60e01b90606401612b3c565b60975460ff16612f855760405162461bcd60e51b815260206004820152601460248201527314185d5cd8589b194e881b9bdd081c185d5cd95960621b604482015260640161077d565b6097805460ff191690557f5db9ee0a495bf2e6ff9c91a7834c1ba4fdd244a5e8aa4e537bd38aeae4b073aa335b6040516001600160a01b03909116815260200160405180910390a1565b60975460ff1615612ff25760405162461bcd60e51b815260040161077d90614265565b6097805460ff191660011790557f62e78cea01bee320cd4e420270b5ea74000d11b0c9f74754ebdbfc544b05a258612fb23390565b60008054610100900460ff161561306e578160ff16600114801561304a5750303b155b6130665760405162461bcd60e51b815260040161077d90614445565b506000919050565b60005460ff8084169116106130955760405162461bcd60e51b815260040161077d90614445565b506000805460ff191660ff92909216919091179055600190565b600054610100900460ff166130d65760405162461bcd60e51b815260040161077d90614493565b610f45828261372c565b600054610100900460ff166131075760405162461bcd60e51b815260040161077d90614493565b61310f61377a565b565b600054610100900460ff166131385760405162461bcd60e51b815260040161077d90614493565b61310f6137a8565b60008061012f61012e548154811061315a5761315a614166565b60009182526020808320604080518082018252600290940290910180546001600160a01b039081168086526001909201541692840183905290516328dee51f60e11b815292945090916351bdca3e916131b891309190600401613ec9565b606060405180830381865afa1580156131d5573d6000803e3d6000fd5b505050506040513d601f19601f820116820180604052508101906131f9919061430b565b5050905061320660355490565b6132108286614352565b61321a9190614371565b92506000831161326c5760405162461bcd60e51b815260206004820152601d60248201527f494e53554646494349454e545f4c49515549444954595f4255524e4544000000604482015260640161077d565b61327633856137db565b61328083826142dc565b61013255509092915050565b600080600061012f61012e54815481106132a8576132a8614166565b6000918252602080832060408051808201825260029490940290910180546001600160a01b0390811680865260019092015416928401839052905163450efe2160e01b815260048101919091529193509063450efe2190602401600060405180830381865afa15801561331f573d6000803e3d6000fd5b505050506040513d6000823e601f3d908101601f1916820160405261334791908101906140b4565b6101305481519192506001600160a01b031690829060009061336b5761336b614166565b60200260200101516001600160a01b0316141561341b5760208201518251604051636c27fc2160e11b81526001600160a01b039182166004820152602481018b9052604481018a905260648101899052878216608482015291169063d84ff8429060a40160408051808303816000875af11580156133ed573d6000803e3d6000fd5b505050506040513d601f19601f8201168201806040525081019061341191906144de565b90945092506134af565b60208201518251604051636c27fc2160e11b81526001600160a01b039182166004820152602481018b905260448101899052606481018a9052878216608482015291169063d84ff8429060a40160408051808303816000875af1158015613486573d6000803e3d6000fd5b505050506040513d601f19601f820116820180604052508101906134aa91906144de565b945092505b505094509492505050565b6001600160a01b0381163b6135275760405162461bcd60e51b815260206004820152602d60248201527f455243313936373a206e657720696d706c656d656e746174696f6e206973206e60448201526c1bdd08184818dbdb9d1c9858dd609a1b606482015260840161077d565b60008051602061451f83398151915280546001600160a01b0319166001600160a01b0392909216919091179055565b61355f83613929565b60008251118061356c5750805b156129cb57610b008383613969565b60006135d0826040518060400160405280602081526020017f5361666545524332303a206c6f772d6c6576656c2063616c6c206661696c6564815250856001600160a01b0316613a5d9092919063ffffffff16565b8051909150156129cb57808060200190518101906135ee9190614063565b6129cb5760405162461bcd60e51b815260206004820152602a60248201527f5361666545524332303a204552433230206f7065726174696f6e20646964206e6044820152691bdd081cdd58d8d9595960b21b606482015260840161077d565b6001600160a01b0382166136a35760405162461bcd60e51b815260206004820152601f60248201527f45524332303a206d696e7420746f20746865207a65726f206164647265737300604482015260640161077d565b80603560008282546136b591906142f3565b90915550506001600160a01b038216600090815260336020526040812080548392906136e29084906142f3565b90915550506040518181526001600160a01b038316906000907fddf252ad1be2c89b69c2b068fc378daa952ba7f163c4a11628f55a4df523b3ef9060200160405180910390a35050565b600054610100900460ff166137535760405162461bcd60e51b815260040161077d90614493565b8151613766906036906020850190613bde565b5080516129cb906037906020840190613bde565b600054610100900460ff166137a15760405162461bcd60e51b815260040161077d90614493565b6001606555565b600054610100900460ff166137cf5760405162461bcd60e51b815260040161077d90614493565b6097805460ff19169055565b6001600160a01b03821661383b5760405162461bcd60e51b815260206004820152602160248201527f45524332303a206275726e2066726f6d20746865207a65726f206164647265736044820152607360f81b606482015260840161077d565b6001600160a01b038216600090815260336020526040902054818110156138af5760405162461bcd60e51b815260206004820152602260248201527f45524332303a206275726e20616d6f756e7420657863656564732062616c616e604482015261636560f01b606482015260840161077d565b6001600160a01b03831660009081526033602052604081208383039055603580548492906138de9084906142dc565b90915550506040518281526000906001600160a01b038516907fddf252ad1be2c89b69c2b068fc378daa952ba7f163c4a11628f55a4df523b3ef9060200160405180910390a3505050565b613932816134ba565b6040516001600160a01b038216907fbc7cd75a20ee27fd9adebab32041f755214dbc6bffa90cc0225b39da2e5c2d3b90600090a250565b60606001600160a01b0383163b6139d15760405162461bcd60e51b815260206004820152602660248201527f416464726573733a2064656c65676174652063616c6c20746f206e6f6e2d636f6044820152651b9d1c9858dd60d21b606482015260840161077d565b600080846001600160a01b0316846040516139ec9190614502565b600060405180830381855af49150503d8060008114613a27576040519150601f19603f3d011682016040523d82523d6000602084013e613a2c565b606091505b5091509150613a54828260405180606001604052806027815260200161453f60279139613a74565b95945050505050565b6060613a6c8484600085613aad565b949350505050565b60608315613a83575081610b25565b825115613a935782518084602001fd5b8160405162461bcd60e51b815260040161077d9190613ca3565b606082471015613b0e5760405162461bcd60e51b815260206004820152602660248201527f416464726573733a20696e73756666696369656e742062616c616e636520666f6044820152651c8818d85b1b60d21b606482015260840161077d565b6001600160a01b0385163b613b655760405162461bcd60e51b815260206004820152601d60248201527f416464726573733a2063616c6c20746f206e6f6e2d636f6e7472616374000000604482015260640161077d565b600080866001600160a01b03168587604051613b819190614502565b60006040518083038185875af1925050503d8060008114613bbe576040519150601f19603f3d011682016040523d82523d6000602084013e613bc3565b606091505b5091509150613bd3828286613a74565b979650505050505050565b828054613bea9061402e565b90600052602060002090601f016020900481019282613c0c5760008555613c52565b82601f10613c2557805160ff1916838001178555613c52565b82800160010185558215613c52579182015b82811115613c52578251825591602001919060010190613c37565b50613c5e929150613c62565b5090565b5b80821115613c5e5760008155600101613c63565b60005b83811015613c92578181015183820152602001613c7a565b83811115610b005750506000910152565b6020815260008251806020840152613cc2816040850160208701613c77565b601f01601f19169190910160400192915050565b6001600160a01b0381168114610c0957600080fd5b60008060408385031215613cfe57600080fd5b8235613d0981613cd6565b946020939093013593505050565b600060408284031215613d2957600080fd5b50919050565b600080600060608486031215613d4457600080fd5b8335613d4f81613cd6565b92506020840135613d5f81613cd6565b929592945050506040919091013590565b600060208284031215613d8257600080fd5b8135610b2581613cd6565b600080600080600060a08688031215613da557600080fd5b853594506020860135935060408601359250606086013591506080860135613dcc81613cd6565b809150509295509295909350565b634e487b7160e01b600052604160045260246000fd5b604051601f8201601f1916810167ffffffffffffffff81118282101715613e1957613e19613dda565b604052919050565b60008060408385031215613e3457600080fd5b8235613e3f81613cd6565b915060208381013567ffffffffffffffff80821115613e5d57600080fd5b818601915086601f830112613e7157600080fd5b813581811115613e8357613e83613dda565b613e95601f8201601f19168501613df0565b91508082528784828501011115613eab57600080fd5b80848401858401376000848284010152508093505050509250929050565b6001600160a01b0392831681529116602082015260400190565b600060208284031215613ef557600080fd5b5035919050565b60008060008060608587031215613f1257600080fd5b843567ffffffffffffffff80821115613f2a57600080fd5b818701915087601f830112613f3e57600080fd5b813581811115613f4d57600080fd5b8860208260061b8501011115613f6257600080fd5b60209283019650945050850135613f7881613cd6565b91506040850135613f8881613cd6565b939692955090935050565b60008060008060808587031215613fa957600080fd5b8435935060208501359250604085013591506060850135613f8881613cd6565b600080600060608486031215613fde57600080fd5b505081359360208301359350604090920135919050565b6000806040838503121561400857600080fd5b823561401381613cd6565b9150602083013561402381613cd6565b809150509250929050565b600181811c9082168061404257607f821691505b60208210811415613d2957634e487b7160e01b600052602260045260246000fd5b60006020828403121561407557600080fd5b81518015158114610b2557600080fd5b60208082526015908201527410d05313115497d393d517d055551213d492569151605a1b604082015260600190565b600060208083850312156140c757600080fd5b825167ffffffffffffffff808211156140df57600080fd5b818501915085601f8301126140f357600080fd5b81518181111561410557614105613dda565b8060051b9150614116848301613df0565b818152918301840191848101908884111561413057600080fd5b938501935b8385101561415a578451925061414a83613cd6565b8282529385019390850190614135565b98975050505050505050565b634e487b7160e01b600052603260045260246000fd5b80546001600160a01b0319166001600160a01b0392909216919091179055565b81356141a781613cd6565b6141b1818361417c565b5060208201356141c081613cd6565b6129cb816001840161417c565b6020808252602c908201527f46756e6374696f6e206d7573742062652063616c6c6564207468726f7567682060408201526b19195b1959d85d1958d85b1b60a21b606082015260800190565b6020808252602c908201527f46756e6374696f6e206d7573742062652063616c6c6564207468726f7567682060408201526b6163746976652070726f787960a01b606082015260800190565b60208082526010908201526f14185d5cd8589b194e881c185d5cd95960821b604082015260600190565b6020808252601f908201527f5265656e7472616e637947756172643a207265656e7472616e742063616c6c00604082015260600190565b634e487b7160e01b600052601160045260246000fd5b6000828210156142ee576142ee6142c6565b500390565b60008219821115614306576143066142c6565b500190565b60008060006060848603121561432057600080fd5b8351925060208401519150604084015190509250925092565b60006020828403121561434b57600080fd5b5051919050565b600081600019048311821515161561436c5761436c6142c6565b500290565b60008261438e57634e487b7160e01b600052601260045260246000fd5b500490565b6000604082840312156143a557600080fd5b6040516040810181811067ffffffffffffffff821117156143c8576143c8613dda565b60405282356143d681613cd6565b815260208301356143e681613cd6565b60208201529392505050565b6000600019821415614406576144066142c6565b5060010190565b6001600160a01b039687168152602081019590955260408501939093526060840191909152608083015290911660a082015260c00190565b6020808252602e908201527f496e697469616c697a61626c653a20636f6e747261637420697320616c72656160408201526d191e481a5b9a5d1a585b1a5e995960921b606082015260800190565b6020808252602b908201527f496e697469616c697a61626c653a20636f6e7472616374206973206e6f74206960408201526a6e697469616c697a696e6760a81b606082015260800190565b600080604083850312156144f157600080fd5b505080516020909101519092909150565b60008251614514818460208701613c77565b919091019291505056fe360894a13ba1a3210667c828492db98dca3e2076cc3735a920a3ca505d382bbc416464726573733a206c6f772d6c6576656c2064656c65676174652063616c6c206661696c6564a2646970667358221220351a882e5f9eeb681c4e365aac7ec45f09d85ee92985cb5c222d77167fff27d264736f6c634300080a0033496e697469616c697a61626c653a20636f6e747261637420697320616c726561",
  "immutableReferences": {
    "561": [
      {
        "length": 32,
        "start": 2871
      },
      {
        "length": 32,
        "start": 2935
      },
      {
        "length": 32,
        "start": 3715
      },
      {
        "length": 32,
        "start": 3779
      },
      {
        "length": 32,
        "start": 3926
      }
    ]
  },
  "source": "// SPDX-License-Identifier: MIT\r\npragma solidity 0.8.10;\r\nimport \"../interfaces/IUnoAssetRouter.sol\";   \r\nimport '@openzeppelin/contracts-upgradeable/security/ReentrancyGuardUpgradeable.sol';\r\nimport '@openzeppelin/contracts-upgradeable/token/ERC20/ERC20Upgradeable.sol';\r\nimport '@openzeppelin/contracts-upgradeable/token/ERC20/utils/SafeERC20Upgradeable.sol';\r\nimport '@openzeppelin/contracts-upgradeable/security/PausableUpgradeable.sol';\r\nimport '@openzeppelin/contracts-upgradeable/proxy/utils/UUPSUpgradeable.sol';\r\n\r\ncontract UnoAutoStrategyBanxeDeprecated is Initializable, ERC20Upgradeable, ReentrancyGuardUpgradeable, PausableUpgradeable, UUPSUpgradeable {\r\n    using SafeERC20Upgradeable for IERC20Upgradeable;\r\n    /**\r\n     * @dev PoolInfo:\r\n     * {assetRouter} - UnoAssetRouter contract.\r\n     * {pool} - Pool address. \r\n     */\r\n    struct PoolInfo {\r\n        address pool;\r\n        IUnoAssetRouter assetRouter;\r\n    }\r\n    \r\n    /**\r\n     * @dev Contract Variables:\r\n     * {banxe} - Banxe account that can make deposits to this autostrat.\r\n     * {poolID} - Current pool the strategy uses ({pools} index).\r\n     * {pools} - Pools this strategy can use and move liquidity to.\r\n     * {tokenA} - Pool's first token address.\r\n     * {tokenB} - Pool's second token address.\r\n     * {reserveLP} - LP token reserve.\r\n     * {MINIMUM_LIQUIDITY} - Ameliorates rounding errors.\r\n     * {accessManager} - Role manager contract.\r\n     */\r\n\r\n    address public banxe;\r\n\r\n    uint256 public poolID;\r\n    PoolInfo[] public pools;\r\n\r\n    IERC20Upgradeable public tokenA;\r\n    IERC20Upgradeable public tokenB;\r\n\r\n    uint256 private reserveLP;\r\n    uint256 private constant MINIMUM_LIQUIDITY = 10**3;\r\n\r\n    IUnoAccessManager public accessManager;\r\n    bytes32 private constant LIQUIDITY_MANAGER_ROLE = keccak256('LIQUIDITY_MANAGER_ROLE');\r\n    bytes32 private constant PAUSER_ROLE = keccak256('PAUSER_ROLE');\r\n    bytes32 private ADMIN_ROLE;\r\n\r\n    event Deposit(uint256 indexed poolID, address indexed from, address indexed recipient, uint256 amountA, uint256 amountB);\r\n    event Withdraw(uint256 indexed poolID, address indexed from, address indexed recipient, uint256 amountA, uint256 amountB);\r\n    event MoveLiquidity(uint256 indexed previousPoolID, uint256 indexed nextPoolID);\r\n    event BanxeTransferred(address indexed previousBanxe, address indexed newBanxe);\r\n\r\n    modifier onlyRole(bytes32 role){\r\n        require(accessManager.hasRole(role, msg.sender), 'CALLER_NOT_AUTHORIZED');\r\n        _;\r\n    }\r\n\r\n    modifier onlyBanxe(){\r\n        require(msg.sender == banxe, 'CALLER_NOT_BANXE');\r\n        _;\r\n    }\r\n\r\n    // ============ Methods ============\r\n\r\n    /// @custom:oz-upgrades-unsafe-allow constructor\r\n    constructor() {\r\n        _disableInitializers();\r\n    }\r\n\r\n    function initialize(PoolInfo[] calldata poolInfos, IUnoAccessManager _accessManager, address _banxe) external initializer {\r\n        require ((poolInfos.length >= 2) && (poolInfos.length <= 50), 'BAD_POOL_COUNT');\r\n\r\n        __ERC20_init(\"UNO-Banxe-AutoStrategy\", \"UNO-BANXE-LP\");\r\n        __ReentrancyGuard_init();\r\n        __Pausable_init();\r\n\r\n        address[] memory poolTokens = poolInfos[0].assetRouter.getTokens(poolInfos[0].pool);\r\n        tokenA = IERC20Upgradeable(poolTokens[0]);\r\n        tokenB = IERC20Upgradeable(poolTokens[1]);\r\n        \r\n        for (uint256 i = 0; i < poolInfos.length; i++) {\r\n            PoolInfo memory poolInfo = poolInfos[i];\r\n            if(i != 0){\r\n                address[] memory _tokens = poolInfo.assetRouter.getTokens(poolInfo.pool);\r\n                require(((_tokens[0] == address(tokenA)) && (_tokens[1] == address(tokenB))) || ((_tokens[0] == address(tokenB)) && (_tokens[1] == address(tokenA))), 'WRONG_POOL_TOKENS');\r\n            }\r\n            pools.push(poolInfo);\r\n\r\n            tokenA.approve(address(poolInfo.assetRouter), type(uint256).max);\r\n            tokenB.approve(address(poolInfo.assetRouter), type(uint256).max);\r\n        }\r\n\r\n        accessManager = _accessManager;\r\n        ADMIN_ROLE = accessManager.ADMIN_ROLE();\r\n\r\n        banxe = _banxe;\r\n    }\r\n\r\n    /**\r\n     * @dev Deposits tokens in the pools[poolID] pool. Mints tokens representing user share. Emits {Deposit} event.\r\n     * @param amountA - Token A amount to deposit.\r\n     * @param amountB  - Token B amount to deposit.\r\n     * @param amountAMin - Bounds the extent to which the B/A price can go up before the transaction reverts.\r\n     * @param amountBMin - Bounds the extent to which the A/B price can go up before the transaction reverts.\r\n     \r\n     * @return sentA - Deposited token A amount.\r\n     * @return sentB - Deposited token B amount.\r\n     * @return liquidity - Total liquidity minted for the {recipient}.\r\n     */\r\n    function deposit(uint256 amountA, uint256 amountB, uint256 amountAMin, uint256 amountBMin, address recipient) onlyBanxe whenNotPaused nonReentrant external returns (uint256 sentA, uint256 sentB, uint256 liquidity) {\r\n        tokenA.safeTransferFrom(msg.sender, address(this), amountA);\r\n        tokenB.safeTransferFrom(msg.sender, address(this), amountB);\r\n\r\n        (sentA, sentB,) = _deposit(amountA, amountB, amountAMin, amountBMin);\r\n        liquidity = mint(recipient);\r\n\r\n        tokenA.safeTransfer(msg.sender, amountA - sentA);\r\n        tokenB.safeTransfer(msg.sender, amountB - sentB);\r\n\r\n        emit Deposit(poolID, msg.sender, recipient, sentA, sentB); \r\n    }\r\n\r\n    /**\r\n     * @dev Withdraws tokens from the {pools[poolID]} pool and sends them to the recipient. Burns tokens representing user share. Emits {Withdraw} event.\r\n     * @param liquidity - Liquidity to burn from this user.\r\n     * @param amountAMin - The minimum amount of tokenA that must be received from the pool for the transaction not to revert.\r\n     * @param amountBMin - The minimum amount of tokenB that must be received from the pool for the transaction not to revert.\r\n     \r\n     * @return amountA - Token A amount sent to the {recipient}.\r\n     * @return amountB - Token B amount sent to the {recipient}.\r\n     */\r\n    function withdraw(uint256 liquidity, uint256 amountAMin, uint256 amountBMin, address recipient) whenNotPaused nonReentrant external returns (uint256 amountA, uint256 amountB) {\r\n        uint256 amountLP = burn(liquidity);\r\n        (amountA, amountB) = _withdraw(amountLP, amountAMin, amountBMin, recipient);\r\n\r\n        uint256 leftoverA = liquidity * tokenA.balanceOf(address(this)) / totalSupply();\r\n        if(leftoverA > 0){\r\n            amountA += leftoverA;\r\n            tokenA.safeTransfer(recipient, leftoverA);\r\n        }\r\n\r\n        uint256 leftoverB = liquidity * tokenB.balanceOf(address(this)) / totalSupply();\r\n        if(leftoverB > 0){\r\n            amountB += leftoverB;\r\n            tokenB.safeTransfer(recipient, leftoverB);\r\n        }\r\n\r\n        emit Withdraw(poolID, msg.sender, recipient, amountA, amountB);\r\n    }\r\n\r\n    /**\r\n     * @dev Moves liquidity from {pools[poolID]} to {pools[_poolID]}. Emits {MoveLiquidity} event.\r\n     * @param _poolID - Pool ID to move liquidity to.\r\n     * @param amountAMin - The minimum amount of tokenA that must be deposited in {pools[_poolID]} for the transaction not to revert.\r\n     * @param amountBMin - The minimum amount of tokenB that must be deposited in {pools[_poolID]} for the transaction not to revert.\r\n     *\r\n     * Note: This function can only be called by LiquidityManager.\r\n     */\r\n    function moveLiquidity(uint256 _poolID, uint256 amountAMin, uint256 amountBMin) whenNotPaused nonReentrant external {\r\n        require(accessManager.hasRole(LIQUIDITY_MANAGER_ROLE, msg.sender), 'CALLER_NOT_LIQUIDITY_MANAGER');\r\n        require(totalSupply() != 0, 'NO_LIQUIDITY');\r\n        require((_poolID < pools.length) && (_poolID != poolID), 'BAD_POOL_ID');\r\n\r\n        PoolInfo memory pool = pools[poolID];\r\n        (uint256 _totalDeposits,,) = pool.assetRouter.userStake(address(this), pool.pool);\r\n        _withdraw(_totalDeposits, amountAMin, amountBMin, address(this));\r\n\r\n        emit MoveLiquidity(poolID, _poolID); \r\n        poolID = _poolID;\r\n        (,,reserveLP) = _deposit(tokenA.balanceOf(address(this)), tokenB.balanceOf(address(this)), amountAMin, amountBMin);\r\n    }\r\n\r\n    /**\r\n     * @dev Adds new pool to the strat.\r\n     * @param poolInfo - New pool info to add.\r\n     * Note: This function can only be called by Admin.\r\n     */\r\n    function addPool(PoolInfo calldata poolInfo) external onlyRole(ADMIN_ROLE) {\r\n        address[] memory _tokens = poolInfo.assetRouter.getTokens(poolInfo.pool);\r\n        require(((_tokens[0] == address(tokenA)) && (_tokens[1] == address(tokenB))) || ((_tokens[0] == address(tokenB)) && (_tokens[1] == address(tokenA))), 'WRONG_POOL_TOKENS');\r\n        \r\n        pools.push(poolInfo);\r\n        require(pools.length <= 50, \"TOO_MANY_POOLS\");\r\n\r\n        tokenA.approve(address(poolInfo.assetRouter), type(uint256).max);\r\n        tokenB.approve(address(poolInfo.assetRouter), type(uint256).max);\r\n    }\r\n\r\n    /**\r\n     * @dev Returns tokens staked by the {_address}. \r\n     * @param _address - The address to check stakes for.\r\n     * @return stakeA - Token A stake.\r\n     * @return stakeB - Token B stake.\r\n     */\r\n    function userStake(address _address) external view returns (uint256 stakeA, uint256 stakeB) {\r\n        PoolInfo memory pool = pools[poolID];\r\n\r\n        uint256 balanceA;\r\n        uint256 balanceB;\r\n        address[] memory _tokens = pool.assetRouter.getTokens(pool.pool);\r\n        if(_tokens[0] == address(tokenA)){\r\n            (, balanceA, balanceB) = pool.assetRouter.userStake(address(this), pool.pool);\r\n        } else {\r\n            (, balanceB, balanceA) = pool.assetRouter.userStake(address(this), pool.pool);\r\n        }\r\n\r\n        uint256 _balance = balanceOf(_address);\r\n        if(_balance != 0){\r\n            uint256 _totalSupply = totalSupply();\r\n            uint256 leftoverA = tokenA.balanceOf(address(this));\r\n            uint256 leftoverB = tokenB.balanceOf(address(this));\r\n\r\n            stakeA = _balance * balanceA / _totalSupply + leftoverA;\r\n            stakeB = _balance * balanceB / _totalSupply + leftoverB;\r\n        }\r\n    }\r\n        \r\n    /**\r\n     * @dev Returns total amount locked in the pool. \r\n     * @return totalDepositsA - Token A deposits.\r\n     * @return totalDepositsB - Token B deposits.\r\n     */     \r\n    function totalDeposits() external view returns(uint256 totalDepositsA, uint256 totalDepositsB){\r\n        PoolInfo memory pool = pools[poolID];\r\n\r\n        address[] memory _tokens = pool.assetRouter.getTokens(pool.pool);\r\n        if(_tokens[0] == address(tokenA)){\r\n            (, totalDepositsA, totalDepositsB) = pool.assetRouter.userStake(address(this), pool.pool);\r\n        } else {\r\n            (, totalDepositsB, totalDepositsA) = pool.assetRouter.userStake(address(this), pool.pool);\r\n        }\r\n\r\n        // Add leftover tokens.\r\n        totalDepositsA += tokenA.balanceOf(address(this));\r\n        totalDepositsB += tokenB.balanceOf(address(this));\r\n    }\r\n\r\n    /**\r\n     * @dev Returns the number of pools in the strategy. \r\n     */\r\n    function poolsLength() external view returns(uint256){\r\n        return pools.length;\r\n    }\r\n\r\n    /**\r\n     * @dev Returns pair of tokens currently in use. \r\n     */\r\n    function tokens() external view returns(address, address){\r\n        return (address(tokenA), address(tokenB));\r\n    }\r\n\r\n    function mint(address to) internal returns (uint256 liquidity){\r\n        PoolInfo memory pool = pools[poolID];\r\n        (uint256 balanceLP,,) = pool.assetRouter.userStake(address(this), pool.pool);\r\n        uint256 amountLP = balanceLP - reserveLP;\r\n\r\n        uint256 _totalSupply = totalSupply();\r\n        if (_totalSupply == 0) {\r\n            liquidity = amountLP - MINIMUM_LIQUIDITY;\r\n            _mint(address(1), MINIMUM_LIQUIDITY);\r\n        } else {\r\n            liquidity = amountLP * _totalSupply / reserveLP;\r\n        }\r\n\r\n        require(liquidity > 0, 'INSUFFICIENT_LIQUIDITY_MINTED');\r\n        _mint(to, liquidity);\r\n\r\n        reserveLP = balanceLP;\r\n    }\r\n\r\n    function burn(uint256 liquidity) internal returns (uint256 amountLP) {\r\n        PoolInfo memory pool = pools[poolID];\r\n        (uint256 balanceLP,,) = pool.assetRouter.userStake(address(this), pool.pool);\r\n\r\n        amountLP = liquidity * balanceLP / totalSupply(); \r\n        require(amountLP > 0, 'INSUFFICIENT_LIQUIDITY_BURNED');\r\n        _burn(msg.sender, liquidity);\r\n\r\n        reserveLP = balanceLP - amountLP;\r\n    }\r\n\r\n    function _deposit(uint256 amountA, uint256 amountB, uint256 amountAMin, uint256 amountBMin) internal returns (uint256 sentA, uint256 sentB, uint256 liquidity){\r\n        PoolInfo memory pool = pools[poolID];\r\n        address[] memory _tokens = pool.assetRouter.getTokens(pool.pool);\r\n        if(_tokens[0] == address(tokenA)){\r\n            (sentA, sentB, liquidity) = pool.assetRouter.deposit(pool.pool, amountA, amountB, amountAMin, amountBMin, address(this));\r\n        } else {\r\n            (sentB, sentA, liquidity) = pool.assetRouter.deposit(pool.pool, amountB, amountA, amountBMin, amountAMin, address(this));\r\n        }\r\n    }\r\n\r\n    function _withdraw(uint256 amountLP, uint256 amountAMin, uint256 amountBMin, address recipient) internal returns (uint256 amountA, uint256 amountB){\r\n        PoolInfo memory pool = pools[poolID];\r\n        address[] memory _tokens = pool.assetRouter.getTokens(pool.pool);\r\n        if(_tokens[0] == address(tokenA)){\r\n            (amountA, amountB) = pool.assetRouter.withdraw(pool.pool, amountLP, amountAMin, amountBMin, recipient);\r\n        } else {\r\n            (amountB, amountA) = pool.assetRouter.withdraw(pool.pool, amountLP, amountBMin, amountAMin, recipient);\r\n        }\r\n    }\r\n\r\n    /**\r\n     * @dev Transfers banxe rights of the contract to a new account (`_banxe`).\r\n     * @param _banxe - Address to transfer banxe rights to.\r\n     * Note: This function can only be called by Banxe.\r\n     */\r\n    function transferBanxe(address _banxe) external onlyBanxe {\r\n        require(_banxe != address(0), \"TRANSFER_TO_ZERO_ADDRESS\");\r\n        emit BanxeTransferred(banxe, _banxe);\r\n        banxe = _banxe;\r\n    }\r\n\r\n    function pause() external onlyRole(PAUSER_ROLE) {\r\n        _pause();\r\n    }\r\n\r\n    function unpause() external onlyRole(PAUSER_ROLE) {\r\n        _unpause();\r\n    }\r\n\r\n    function _authorizeUpgrade(address) internal override onlyRole(ADMIN_ROLE) {\r\n\r\n    }\r\n}",
  "sourcePath": "C:\\Users\\jugli\\Desktop\\uno\\uno-contracts\\contracts\\autostrategy\\UnoAutoStrategyBanxeDeprecated.sol",
  "compiler": {
    "name": "solc",
    "version": "0.8.10+commit.fc410830.Emscripten.clang"
  },
  "schemaVersion": "3.4.11",
  "updatedAt": "2023-03-22T16:32:11.053Z",
  "networkType": "ethereum",
  "devdoc": {
    "kind": "dev",
    "methods": {
      "addPool((address,address))": {
        "details": "Adds new pool to the strat.",
        "params": {
          "poolInfo": "- New pool info to add. Note: This function can only be called by Admin."
        }
      },
      "allowance(address,address)": {
        "details": "See {IERC20-allowance}."
      },
      "approve(address,uint256)": {
        "details": "See {IERC20-approve}. NOTE: If `amount` is the maximum `uint256`, the allowance is not updated on `transferFrom`. This is semantically equivalent to an infinite approval. Requirements: - `spender` cannot be the zero address."
      },
      "balanceOf(address)": {
        "details": "See {IERC20-balanceOf}."
      },
      "constructor": {
        "custom:oz-upgrades-unsafe-allow": "constructor"
      },
      "decimals()": {
        "details": "Returns the number of decimals used to get its user representation. For example, if `decimals` equals `2`, a balance of `505` tokens should be displayed to a user as `5.05` (`505 / 10 ** 2`). Tokens usually opt for a value of 18, imitating the relationship between Ether and Wei. This is the value {ERC20} uses, unless this function is overridden; NOTE: This information is only used for _display_ purposes: it in no way affects any of the arithmetic of the contract, including {IERC20-balanceOf} and {IERC20-transfer}."
      },
      "decreaseAllowance(address,uint256)": {
        "details": "Atomically decreases the allowance granted to `spender` by the caller. This is an alternative to {approve} that can be used as a mitigation for problems described in {IERC20-approve}. Emits an {Approval} event indicating the updated allowance. Requirements: - `spender` cannot be the zero address. - `spender` must have allowance for the caller of at least `subtractedValue`."
      },
      "deposit(uint256,uint256,uint256,uint256,address)": {
        "details": "Deposits tokens in the pools[poolID] pool. Mints tokens representing user share. Emits {Deposit} event.",
        "params": {
          "amountA": "- Token A amount to deposit.",
          "amountAMin": "- Bounds the extent to which the B/A price can go up before the transaction reverts.",
          "amountB": "- Token B amount to deposit.",
          "amountBMin": "- Bounds the extent to which the A/B price can go up before the transaction reverts."
        },
        "returns": {
          "liquidity": "- Total liquidity minted for the {recipient}.",
          "sentA": "- Deposited token A amount.",
          "sentB": "- Deposited token B amount."
        }
      },
      "increaseAllowance(address,uint256)": {
        "details": "Atomically increases the allowance granted to `spender` by the caller. This is an alternative to {approve} that can be used as a mitigation for problems described in {IERC20-approve}. Emits an {Approval} event indicating the updated allowance. Requirements: - `spender` cannot be the zero address."
      },
      "moveLiquidity(uint256,uint256,uint256)": {
        "details": "Moves liquidity from {pools[poolID]} to {pools[_poolID]}. Emits {MoveLiquidity} event.",
        "params": {
          "_poolID": "- Pool ID to move liquidity to.",
          "amountAMin": "- The minimum amount of tokenA that must be deposited in {pools[_poolID]} for the transaction not to revert.",
          "amountBMin": "- The minimum amount of tokenB that must be deposited in {pools[_poolID]} for the transaction not to revert. Note: This function can only be called by LiquidityManager."
        }
      },
      "name()": {
        "details": "Returns the name of the token."
      },
      "paused()": {
        "details": "Returns true if the contract is paused, and false otherwise."
      },
      "poolsLength()": {
        "details": "Returns the number of pools in the strategy. "
      },
      "proxiableUUID()": {
        "details": "Implementation of the ERC1822 {proxiableUUID} function. This returns the storage slot used by the implementation. It is used to validate that the this implementation remains valid after an upgrade. IMPORTANT: A proxy pointing at a proxiable contract should not be considered proxiable itself, because this risks bricking a proxy that upgrades to it, by delegating to itself until out of gas. Thus it is critical that this function revert if invoked through a proxy. This is guaranteed by the `notDelegated` modifier."
      },
      "symbol()": {
        "details": "Returns the symbol of the token, usually a shorter version of the name."
      },
      "tokens()": {
        "details": "Returns pair of tokens currently in use. "
      },
      "totalDeposits()": {
        "details": "Returns total amount locked in the pool. ",
        "returns": {
          "totalDepositsA": "- Token A deposits.",
          "totalDepositsB": "- Token B deposits."
        }
      },
      "totalSupply()": {
        "details": "See {IERC20-totalSupply}."
      },
      "transfer(address,uint256)": {
        "details": "See {IERC20-transfer}. Requirements: - `to` cannot be the zero address. - the caller must have a balance of at least `amount`."
      },
      "transferBanxe(address)": {
        "details": "Transfers banxe rights of the contract to a new account (`_banxe`).",
        "params": {
          "_banxe": "- Address to transfer banxe rights to. Note: This function can only be called by Banxe."
        }
      },
      "transferFrom(address,address,uint256)": {
        "details": "See {IERC20-transferFrom}. Emits an {Approval} event indicating the updated allowance. This is not required by the EIP. See the note at the beginning of {ERC20}. NOTE: Does not update the allowance if the current allowance is the maximum `uint256`. Requirements: - `from` and `to` cannot be the zero address. - `from` must have a balance of at least `amount`. - the caller must have allowance for ``from``'s tokens of at least `amount`."
      },
      "upgradeTo(address)": {
        "details": "Upgrade the implementation of the proxy to `newImplementation`. Calls {_authorizeUpgrade}. Emits an {Upgraded} event."
      },
      "upgradeToAndCall(address,bytes)": {
        "details": "Upgrade the implementation of the proxy to `newImplementation`, and subsequently execute the function call encoded in `data`. Calls {_authorizeUpgrade}. Emits an {Upgraded} event."
      },
      "userStake(address)": {
        "details": "Returns tokens staked by the {_address}. ",
        "params": {
          "_address": "- The address to check stakes for."
        },
        "returns": {
          "stakeA": "- Token A stake.",
          "stakeB": "- Token B stake."
        }
      },
      "withdraw(uint256,uint256,uint256,address)": {
        "details": "Withdraws tokens from the {pools[poolID]} pool and sends them to the recipient. Burns tokens representing user share. Emits {Withdraw} event.",
        "params": {
          "amountAMin": "- The minimum amount of tokenA that must be received from the pool for the transaction not to revert.",
          "amountBMin": "- The minimum amount of tokenB that must be received from the pool for the transaction not to revert.",
          "liquidity": "- Liquidity to burn from this user."
        },
        "returns": {
          "amountA": "- Token A amount sent to the {recipient}.",
          "amountB": "- Token B amount sent to the {recipient}."
        }
      }
    },
    "stateVariables": {
      "banxe": {
        "details": "Contract Variables: {banxe} - Banxe account that can make deposits to this autostrat. {poolID} - Current pool the strategy uses ({pools} index). {pools} - Pools this strategy can use and move liquidity to. {tokenA} - Pool's first token address. {tokenB} - Pool's second token address. {reserveLP} - LP token reserve. {MINIMUM_LIQUIDITY} - Ameliorates rounding errors. {accessManager} - Role manager contract."
      }
    },
    "version": 1
  },
  "userdoc": {
    "kind": "user",
    "methods": {},
    "version": 1
  }
}