{
  "contractName": "UnoAutoStrategyBanxeV2",
  "abi": [
    {
      "anonymous": false,
      "inputs": [
        {
          "indexed": true,
          "internalType": "address",
          "name": "owner",
          "type": "address"
        },
        {
          "indexed": true,
          "internalType": "address",
          "name": "spender",
          "type": "address"
        },
        {
          "indexed": false,
          "internalType": "uint256",
          "name": "value",
          "type": "uint256"
        }
      ],
      "name": "Approval",
      "type": "event"
    },
    {
      "anonymous": false,
      "inputs": [
        {
          "indexed": true,
          "internalType": "address",
          "name": "previousBanxe",
          "type": "address"
        },
        {
          "indexed": true,
          "internalType": "address",
          "name": "newBanxe",
          "type": "address"
        }
      ],
      "name": "BanxeTransferred",
      "type": "event"
    },
    {
      "anonymous": false,
      "inputs": [
        {
          "indexed": true,
          "internalType": "uint256",
          "name": "poolID",
          "type": "uint256"
        },
        {
          "indexed": true,
          "internalType": "address",
          "name": "from",
          "type": "address"
        },
        {
          "indexed": true,
          "internalType": "address",
          "name": "recipient",
          "type": "address"
        },
        {
          "indexed": false,
          "internalType": "uint256",
          "name": "amountA",
          "type": "uint256"
        },
        {
          "indexed": false,
          "internalType": "uint256",
          "name": "amountB",
          "type": "uint256"
        }
      ],
      "name": "Deposit",
      "type": "event"
    },
    {
      "anonymous": false,
      "inputs": [
        {
          "indexed": false,
          "internalType": "uint8",
          "name": "version",
          "type": "uint8"
        }
      ],
      "name": "Initialized",
      "type": "event"
    },
    {
      "anonymous": false,
      "inputs": [
        {
          "indexed": true,
          "internalType": "uint256",
          "name": "previousPoolID",
          "type": "uint256"
        },
        {
          "indexed": true,
          "internalType": "uint256",
          "name": "nextPoolID",
          "type": "uint256"
        }
      ],
      "name": "MoveLiquidity",
      "type": "event"
    },
    {
      "anonymous": false,
      "inputs": [
        {
          "indexed": true,
          "internalType": "address",
          "name": "from",
          "type": "address"
        },
        {
          "indexed": true,
          "internalType": "address",
          "name": "to",
          "type": "address"
        },
        {
          "indexed": false,
          "internalType": "uint256",
          "name": "value",
          "type": "uint256"
        }
      ],
      "name": "Transfer",
      "type": "event"
    },
    {
      "anonymous": false,
      "inputs": [
        {
          "indexed": true,
          "internalType": "uint256",
          "name": "poolID",
          "type": "uint256"
        },
        {
          "indexed": true,
          "internalType": "address",
          "name": "from",
          "type": "address"
        },
        {
          "indexed": true,
          "internalType": "address",
          "name": "recipient",
          "type": "address"
        },
        {
          "indexed": false,
          "internalType": "uint256",
          "name": "amountA",
          "type": "uint256"
        },
        {
          "indexed": false,
          "internalType": "uint256",
          "name": "amountB",
          "type": "uint256"
        }
      ],
      "name": "Withdraw",
      "type": "event"
    },
    {
      "inputs": [],
      "name": "accessManager",
      "outputs": [
        {
          "internalType": "contract IUnoAccessManager",
          "name": "",
          "type": "address"
        }
      ],
      "stateMutability": "view",
      "type": "function"
    },
    {
      "inputs": [
        {
          "internalType": "address",
          "name": "owner",
          "type": "address"
        },
        {
          "internalType": "address",
          "name": "spender",
          "type": "address"
        }
      ],
      "name": "allowance",
      "outputs": [
        {
          "internalType": "uint256",
          "name": "",
          "type": "uint256"
        }
      ],
      "stateMutability": "view",
      "type": "function"
    },
    {
      "inputs": [
        {
          "internalType": "address",
          "name": "spender",
          "type": "address"
        },
        {
          "internalType": "uint256",
          "name": "amount",
          "type": "uint256"
        }
      ],
      "name": "approve",
      "outputs": [
        {
          "internalType": "bool",
          "name": "",
          "type": "bool"
        }
      ],
      "stateMutability": "nonpayable",
      "type": "function"
    },
    {
      "inputs": [
        {
          "internalType": "address",
          "name": "account",
          "type": "address"
        }
      ],
      "name": "balanceOf",
      "outputs": [
        {
          "internalType": "uint256",
          "name": "",
          "type": "uint256"
        }
      ],
      "stateMutability": "view",
      "type": "function"
    },
    {
      "inputs": [],
      "name": "banxe",
      "outputs": [
        {
          "internalType": "address",
          "name": "",
          "type": "address"
        }
      ],
      "stateMutability": "view",
      "type": "function"
    },
    {
      "inputs": [],
      "name": "decimals",
      "outputs": [
        {
          "internalType": "uint8",
          "name": "",
          "type": "uint8"
        }
      ],
      "stateMutability": "view",
      "type": "function"
    },
    {
      "inputs": [
        {
          "internalType": "address",
          "name": "spender",
          "type": "address"
        },
        {
          "internalType": "uint256",
          "name": "subtractedValue",
          "type": "uint256"
        }
      ],
      "name": "decreaseAllowance",
      "outputs": [
        {
          "internalType": "bool",
          "name": "",
          "type": "bool"
        }
      ],
      "stateMutability": "nonpayable",
      "type": "function"
    },
    {
      "inputs": [],
      "name": "factory",
      "outputs": [
        {
          "internalType": "contract IUnoAutoStrategyFactory",
          "name": "",
          "type": "address"
        }
      ],
      "stateMutability": "view",
      "type": "function"
    },
    {
      "inputs": [
        {
          "internalType": "address",
          "name": "spender",
          "type": "address"
        },
        {
          "internalType": "uint256",
          "name": "addedValue",
          "type": "uint256"
        }
      ],
      "name": "increaseAllowance",
      "outputs": [
        {
          "internalType": "bool",
          "name": "",
          "type": "bool"
        }
      ],
      "stateMutability": "nonpayable",
      "type": "function"
    },
    {
      "inputs": [],
      "name": "name",
      "outputs": [
        {
          "internalType": "string",
          "name": "",
          "type": "string"
        }
      ],
      "stateMutability": "view",
      "type": "function"
    },
    {
      "inputs": [],
      "name": "poolID",
      "outputs": [
        {
          "internalType": "uint256",
          "name": "",
          "type": "uint256"
        }
      ],
      "stateMutability": "view",
      "type": "function"
    },
    {
      "inputs": [
        {
          "internalType": "uint256",
          "name": "",
          "type": "uint256"
        }
      ],
      "name": "pools",
      "outputs": [
        {
          "internalType": "address",
          "name": "pool",
          "type": "address"
        },
        {
          "internalType": "contract IUnoAssetRouter",
          "name": "assetRouter",
          "type": "address"
        },
        {
          "internalType": "contract IERC20Upgradeable",
          "name": "tokenA",
          "type": "address"
        },
        {
          "internalType": "contract IERC20Upgradeable",
          "name": "tokenB",
          "type": "address"
        }
      ],
      "stateMutability": "view",
      "type": "function"
    },
    {
      "inputs": [],
      "name": "symbol",
      "outputs": [
        {
          "internalType": "string",
          "name": "",
          "type": "string"
        }
      ],
      "stateMutability": "view",
      "type": "function"
    },
    {
      "inputs": [],
      "name": "totalSupply",
      "outputs": [
        {
          "internalType": "uint256",
          "name": "",
          "type": "uint256"
        }
      ],
      "stateMutability": "view",
      "type": "function"
    },
    {
      "inputs": [
        {
          "internalType": "address",
          "name": "to",
          "type": "address"
        },
        {
          "internalType": "uint256",
          "name": "amount",
          "type": "uint256"
        }
      ],
      "name": "transfer",
      "outputs": [
        {
          "internalType": "bool",
          "name": "",
          "type": "bool"
        }
      ],
      "stateMutability": "nonpayable",
      "type": "function"
    },
    {
      "inputs": [
        {
          "internalType": "address",
          "name": "from",
          "type": "address"
        },
        {
          "internalType": "address",
          "name": "to",
          "type": "address"
        },
        {
          "internalType": "uint256",
          "name": "amount",
          "type": "uint256"
        }
      ],
      "name": "transferFrom",
      "outputs": [
        {
          "internalType": "bool",
          "name": "",
          "type": "bool"
        }
      ],
      "stateMutability": "nonpayable",
      "type": "function"
    },
    {
      "inputs": [],
      "name": "version",
      "outputs": [
        {
          "internalType": "uint256",
          "name": "",
          "type": "uint256"
        }
      ],
      "stateMutability": "view",
      "type": "function"
    },
    {
      "inputs": [
        {
          "components": [
            {
              "internalType": "address",
              "name": "pool",
              "type": "address"
            },
            {
              "internalType": "contract IUnoAssetRouter",
              "name": "assetRouter",
              "type": "address"
            }
          ],
          "internalType": "struct UnoAutoStrategyBanxeV2._PoolInfo[]",
          "name": "poolInfos",
          "type": "tuple[]"
        },
        {
          "internalType": "contract IUnoAccessManager",
          "name": "_accessManager",
          "type": "address"
        },
        {
          "internalType": "address",
          "name": "_banxe",
          "type": "address"
        }
      ],
      "name": "initialize",
      "outputs": [],
      "stateMutability": "nonpayable",
      "type": "function"
    },
    {
      "inputs": [
        {
          "internalType": "uint256",
          "name": "pid",
          "type": "uint256"
        },
        {
          "internalType": "uint256",
          "name": "amountA",
          "type": "uint256"
        },
        {
          "internalType": "uint256",
          "name": "amountB",
          "type": "uint256"
        },
        {
          "internalType": "uint256",
          "name": "amountAMin",
          "type": "uint256"
        },
        {
          "internalType": "uint256",
          "name": "amountBMin",
          "type": "uint256"
        },
        {
          "internalType": "address",
          "name": "recipient",
          "type": "address"
        }
      ],
      "name": "deposit",
      "outputs": [
        {
          "internalType": "uint256",
          "name": "sentA",
          "type": "uint256"
        },
        {
          "internalType": "uint256",
          "name": "sentB",
          "type": "uint256"
        },
        {
          "internalType": "uint256",
          "name": "liquidity",
          "type": "uint256"
        }
      ],
      "stateMutability": "nonpayable",
      "type": "function"
    },
    {
      "inputs": [
        {
          "internalType": "uint256",
          "name": "pid",
          "type": "uint256"
        },
        {
          "internalType": "uint256",
          "name": "liquidity",
          "type": "uint256"
        },
        {
          "internalType": "uint256",
          "name": "amountAMin",
          "type": "uint256"
        },
        {
          "internalType": "uint256",
          "name": "amountBMin",
          "type": "uint256"
        },
        {
          "internalType": "address",
          "name": "recipient",
          "type": "address"
        }
      ],
      "name": "withdraw",
      "outputs": [
        {
          "internalType": "uint256",
          "name": "amountA",
          "type": "uint256"
        },
        {
          "internalType": "uint256",
          "name": "amountB",
          "type": "uint256"
        }
      ],
      "stateMutability": "nonpayable",
      "type": "function"
    },
    {
      "inputs": [
        {
          "internalType": "uint256",
          "name": "_poolID",
          "type": "uint256"
        },
        {
          "internalType": "bytes",
          "name": "swapAData",
          "type": "bytes"
        },
        {
          "internalType": "bytes",
          "name": "swapBData",
          "type": "bytes"
        },
        {
          "internalType": "uint256",
          "name": "amountAMin",
          "type": "uint256"
        },
        {
          "internalType": "uint256",
          "name": "amountBMin",
          "type": "uint256"
        }
      ],
      "name": "moveLiquidity",
      "outputs": [],
      "stateMutability": "nonpayable",
      "type": "function"
    },
    {
      "inputs": [
        {
          "internalType": "address",
          "name": "_address",
          "type": "address"
        }
      ],
      "name": "userStake",
      "outputs": [
        {
          "internalType": "uint256",
          "name": "stakeA",
          "type": "uint256"
        },
        {
          "internalType": "uint256",
          "name": "stakeB",
          "type": "uint256"
        }
      ],
      "stateMutability": "view",
      "type": "function"
    },
    {
      "inputs": [],
      "name": "totalDeposits",
      "outputs": [
        {
          "internalType": "uint256",
          "name": "totalDepositsA",
          "type": "uint256"
        },
        {
          "internalType": "uint256",
          "name": "totalDepositsB",
          "type": "uint256"
        }
      ],
      "stateMutability": "view",
      "type": "function"
    },
    {
      "inputs": [],
      "name": "poolsLength",
      "outputs": [
        {
          "internalType": "uint256",
          "name": "",
          "type": "uint256"
        }
      ],
      "stateMutability": "view",
      "type": "function"
    },
    {
      "inputs": [],
      "name": "tokens",
      "outputs": [
        {
          "internalType": "address",
          "name": "",
          "type": "address"
        },
        {
          "internalType": "address",
          "name": "",
          "type": "address"
        }
      ],
      "stateMutability": "view",
      "type": "function"
    },
    {
      "inputs": [
        {
          "internalType": "address",
          "name": "_banxe",
          "type": "address"
        }
      ],
      "name": "transferBanxe",
      "outputs": [],
      "stateMutability": "nonpayable",
      "type": "function"
    }
  ],
  "bytecode": "0x608060405234801561001057600080fd5b50614167806100206000396000f3fe608060405234801561001057600080fd5b506004361061013e5760003560e01c806306fdde0314610143578063095ea7b31461016157806318160ddd1461018457806323b872dd146101965780632716ae66146101a9578063313ce567146101b157806339509351146101c057806354fd4d50146101d3578063668393c7146101db57806368e5585d146101f057806370a082311461021857806376216f7b1461022b5780637d8820971461024b5780638d934485146102535780639130700e1461025c57806395d89b411461028a5780639d63848a14610292578063a457c2d7146102a8578063a9059cbb146102bb578063ac4afa38146102ce578063b845f1c614610314578063c45a015514610327578063d473a6541461033a578063dd62ed3e1461034d578063e25212c914610360578063fdcb606814610373575b600080fd5b61014b610386565b6040516101589190613439565b60405180910390f35b61017461016f366004613464565b610418565b6040519015158152602001610158565b6035545b604051908152602001610158565b6101746101a4366004613490565b610430565b609954610188565b60405160128152602001610158565b6101746101ce366004613464565b610456565b610188600281565b6101ee6101e9366004613519565b610478565b005b6102036101fe3660046135a1565b611102565b60408051928352602083019190915201610158565b6101886102263660046135a1565b611314565b60975461023e906001600160a01b031681565b60405161015891906135be565b61020361132f565b61018860985481565b61026f61026a3660046135d2565b611504565b60408051938452602084019290925290820152606001610158565b61014b6117da565b61029a6117e9565b604051610158929190613627565b6101746102b6366004613464565b611863565b6101746102c9366004613464565b6118e9565b6102e16102dc366004613641565b6118f7565b604080516001600160a01b0395861681529385166020850152918416918301919091529091166060820152608001610158565b6101ee61032236600461365a565b611941565b60a25461023e906001600160a01b031681565b6102036103483660046136f0565b6120af565b61018861035b36600461373d565b61230e565b6101ee61036e3660046135a1565b612339565b60a15461023e906001600160a01b031681565b60606036805461039590613776565b80601f01602080910402602001604051908101604052809291908181526020018280546103c190613776565b801561040e5780601f106103e35761010080835404028352916020019161040e565b820191906000526020600020905b8154815290600101906020018083116103f157829003601f168201915b5050505050905090565b6000336104268185856123fe565b5060019392505050565b60003361043e858285612522565b61044985858561259c565b60019150505b9392505050565b600033610426818585610469838361230e565b61047391906137c7565b6123fe565b60a260009054906101000a90046001600160a01b03166001600160a01b0316635c975abb6040518163ffffffff1660e01b8152600401602060405180830381865afa1580156104cb573d6000803e3d6000fd5b505050506040513d601f19601f820116820180604052508101906104ef91906137df565b156105155760405162461bcd60e51b815260040161050c90613801565b60405180910390fd5b600260655414156105385760405162461bcd60e51b815260040161050c9061382b565b600260655560a154604051632474521560e21b81527f77e60b99a50d27fb027f6912a507d956105b4148adab27a86d235c8bcca8fa2f60048201523360248201526001600160a01b03909116906391d1485490604401602060405180830381865afa1580156105ab573d6000803e3d6000fd5b505050506040513d601f19601f820116820180604052508101906105cf91906137df565b61061a5760405162461bcd60e51b815260206004820152601c60248201527b21a0a62622a92fa727aa2fa624a8aaa4a224aa2cafa6a0a720a3a2a960211b604482015260640161050c565b6035546106585760405162461bcd60e51b815260206004820152600c60248201526b4e4f5f4c495155494449545960a01b604482015260640161050c565b609e544314156106a85760405162461bcd60e51b815260206004820152601b60248201527a43414e545f43414c4c5f4f4e5f5448455f53414d455f424c4f434b60281b604482015260640161050c565b609954871080156106bb57506098548714155b6106d75760405162461bcd60e51b815260040161050c90613862565b60006099609854815481106106ee576106ee613887565b6000918252602080832060408051608081018252600490940290910180546001600160a01b039081168552600182015481169385019390935260028101548316918401919091526003015416606082015260998054919350908a90811061075757610757613887565b6000918252602080832060408051608081018252600494850290920180546001600160a01b039081168452600182015481168486015260028201548116848401526003909101548116606084015292870151875191516328dee51f60e11b8152929650909216926351bdca3e926107d092309201613627565b606060405180830381865afa1580156107ed573d6000803e3d6000fd5b505050506040513d601f19601f82011682018060405250810190610811919061389d565b505060208401518451604051636c27fc2160e11b81529293506001600160a01b039091169163d84ff84291610851918590600090819030906004016138cb565b60408051808303816000875af115801561086f573d6000803e3d6000fd5b505050506040513d601f19601f8201168201806040525081019061089391906138fb565b5050600083604001516001600160a01b03166370a08231306040518263ffffffff1660e01b81526004016108c791906135be565b602060405180830381865afa1580156108e4573d6000803e3d6000fd5b505050506040513d601f19601f82011682018060405250810190610908919061391f565b9050600084606001516001600160a01b03166370a08231306040518263ffffffff1660e01b815260040161093c91906135be565b602060405180830381865afa158015610959573d6000803e3d6000fd5b505050506040513d601f19601f8201168201806040525081019061097d919061391f565b905083604001516001600160a01b031685604001516001600160a01b031614610bd95760008060008060008f8f60049080926109bb93929190613938565b8101906109c89190613b3a565b9550955095505094509450845160011480156109e5575083516001145b610a2c5760405162461bcd60e51b81526020600482015260186024820152770848288bea6ae82a0be82bea89e968a9ca6be988a9c8ea8960431b604482015260640161050c565b89604001516001600160a01b031685600081518110610a4d57610a4d613887565b6020026020010151600001516001600160a01b031614610aa85760405162461bcd60e51b81526020600482015260166024820152752120a22fa9aba0a82fa0afa4a7282aaa2faa27a5a2a760511b604482015260640161050c565b88604001516001600160a01b031684600081518110610ac957610ac9613887565b6020026020010151600001516001600160a01b031614610b255760405162461bcd60e51b81526020600482015260176024820152762120a22fa9aba0a82fa0afa7aaaa282aaa2faa27a5a2a760491b604482015260640161050c565b8685600081518110610b3957610b39613887565b60209081029190910181015101526040516378bd22a360e11b815273a32ee1c40594249eb3183c10792bcf573d4da47c9063f17a454690610b8a908890889060001990899089908990600401613d41565b6000604051808303816000875af1158015610ba9573d6000803e3d6000fd5b505050506040513d6000823e601f3d908101601f19168201604052610bd19190810190613e28565b505050505050505b83606001516001600160a01b031685606001516001600160a01b031614610e335760008060008060008d8d6004908092610c1593929190613938565b810190610c229190613b3a565b955095509550509450945084516001148015610c3f575083516001145b610c865760405162461bcd60e51b81526020600482015260186024820152770848288bea6ae82a0be84bea89e968a9ca6be988a9c8ea8960431b604482015260640161050c565b89606001516001600160a01b031685600081518110610ca757610ca7613887565b6020026020010151600001516001600160a01b031614610d025760405162461bcd60e51b81526020600482015260166024820152752120a22fa9aba0a82fa12fa4a7282aaa2faa27a5a2a760511b604482015260640161050c565b88606001516001600160a01b031684600081518110610d2357610d23613887565b6020026020010151600001516001600160a01b031614610d7f5760405162461bcd60e51b81526020600482015260176024820152762120a22fa9aba0a82fa12fa7aaaa282aaa2faa27a5a2a760491b604482015260640161050c565b8585600081518110610d9357610d93613887565b60209081029190910181015101526040516378bd22a360e11b815273a32ee1c40594249eb3183c10792bcf573d4da47c9063f17a454690610de4908890889060001990899089908990600401613d41565b6000604051808303816000875af1158015610e03573d6000803e3d6000fd5b505050506040513d6000823e601f3d908101601f19168201604052610e2b9190810190613e28565b505050505050505b83602001516001600160a01b0316636505e65e856000015186604001516001600160a01b03166370a08231306040518263ffffffff1660e01b8152600401610e7b91906135be565b602060405180830381865afa158015610e98573d6000803e3d6000fd5b505050506040513d601f19601f82011682018060405250810190610ebc919061391f565b87606001516001600160a01b03166370a08231306040518263ffffffff1660e01b8152600401610eec91906135be565b602060405180830381865afa158015610f09573d6000803e3d6000fd5b505050506040513d601f19601f82011682018060405250810190610f2d919061391f565b8b8b306040518763ffffffff1660e01b8152600401610f5196959493929190613ec0565b6060604051808303816000875af1158015610f70573d6000803e3d6000fd5b505050506040513d601f19601f82011682018060405250810190610f94919061389d565b609a5550506040805160808101808352918601516370a0823160e01b9092529081906001600160a01b03166370a08231610fd130608485016135be565b602060405180830381865afa158015610fee573d6000803e3d6000fd5b505050506040513d601f19601f82011682018060405250810190611012919061391f565b815260200185606001516001600160a01b03166370a08231306040518263ffffffff1660e01b815260040161104791906135be565b602060405180830381865afa158015611064573d6000803e3d6000fd5b505050506040513d601f19601f82011682018060405250810190611088919061391f565b815260200161109660355490565b8152436020918201528151609b55810151609c55604080820151609d55606090910151609e5560985490518d91907faf62d6e59ad2e54c778a490827e6cb28b1d30794092c7367fdbb261b11de033690600090a350505060989890985550506001606555505050505050565b600080600060996098548154811061111c5761111c613887565b6000918252602080832060408051608081018252600494850290920180546001600160a01b0390811680855260018301548216958501869052600283015482168585015260039092015416606084015290516328dee51f60e11b815291955084936351bdca3e92611191923092909101613627565b606060405180830381865afa1580156111ae573d6000803e3d6000fd5b505050506040513d601f19601f820116820180604052508101906111d2919061389d565b925092505060006111e287611314565b9050801561130b5760006111f560355490565b9050806112028584613ef8565b61120c9190613f17565b9650806112198484613ef8565b6112239190613f17565b33600090815260a060209081526040808320609e54845290915290205490965060ff161580156112545750609d5415155b1561130957609d54609b546001600160a01b038a166000908152609f60209081526040808320609e54845290915290205461128f9085613f39565b6112999190613ef8565b6112a39190613f17565b6112ad90886137c7565b609d54609c546001600160a01b038b166000908152609f60209081526040808320609e54845290915290205492995090916112e89085613f39565b6112f29190613ef8565b6112fc9190613f17565b61130690876137c7565b95505b505b50505050915091565b6001600160a01b031660009081526033602052604090205490565b600080600060996098548154811061134957611349613887565b600091825260209182902060408051608081018252600493840290920180546001600160a01b0390811680855260018301548216968501879052600283015482168585015260039092015416606084015290516328dee51f60e11b81529194506351bdca3e926113bc9230929101613627565b606060405180830381865afa1580156113d9573d6000803e3d6000fd5b505050506040513d601f19601f820116820180604052508101906113fd919061389d565b60408085015190516370a0823160e01b81529296509094506001600160a01b031691506370a08231906114349030906004016135be565b602060405180830381865afa158015611451573d6000803e3d6000fd5b505050506040513d601f19601f82011682018060405250810190611475919061391f565b61147f90846137c7565b60608201516040516370a0823160e01b81529194506001600160a01b0316906370a08231906114b29030906004016135be565b602060405180830381865afa1580156114cf573d6000803e3d6000fd5b505050506040513d601f19601f820116820180604052508101906114f3919061391f565b6114fd90836137c7565b9150509091565b609754600090819081906001600160a01b031633146115355760405162461bcd60e51b815260040161050c90613f50565b60a260009054906101000a90046001600160a01b03166001600160a01b0316635c975abb6040518163ffffffff1660e01b8152600401602060405180830381865afa158015611588573d6000803e3d6000fd5b505050506040513d601f19601f820116820180604052508101906115ac91906137df565b156115c95760405162461bcd60e51b815260040161050c90613801565b600260655414156115ec5760405162461bcd60e51b815260040161050c9061382b565b600260655560985489146116125760405162461bcd60e51b815260040161050c90613862565b600060996098548154811061162957611629613887565b600091825260209182902060408051608081018252600490930290910180546001600160a01b039081168452600182015481169484019490945260028101548416918301829052600301549092166060820152915061168a9033308c612763565b60608101516116a4906001600160a01b031633308b612763565b60208101518151604051633282f32f60e11b81526001600160a01b0390921691636505e65e916116e0918d908d908d908d903090600401613ec0565b6060604051808303816000875af11580156116ff573d6000803e3d6000fd5b505050506040513d601f19601f82011682018060405250810190611723919061389d565b509094509250611732856127ce565b915061175733611742868c613f39565b60408401516001600160a01b03169190612961565b61177a33611765858b613f39565b60608401516001600160a01b03169190612961565b60985460408051868152602081018690526001600160a01b03881692339290917feb65d0f36862bbd8763c5e2c983c9d753267d223eee35a224d8d0a9d7ef433a2910160405180910390a450600160658190555096509650969350505050565b60606037805461039590613776565b600080600060996098548154811061180357611803613887565b600091825260209182902060408051608081018252600490930290910180546001600160a01b0390811684526001820154811694840194909452600281015484169183018290526003015490921660609091018190529094909350915050565b60003381611871828661230e565b9050838110156118d15760405162461bcd60e51b815260206004820152602560248201527f45524332303a2064656372656173656420616c6c6f77616e63652062656c6f77604482015264207a65726f60d81b606482015260840161050c565b6118de82868684036123fe565b506001949350505050565b60003361042681858561259c565b6099818154811061190757600080fd5b600091825260209091206004909102018054600182015460028301546003909301546001600160a01b039283169450908216928216911684565b600061194d6001612985565b90508015611965576000805461ff0019166101001790555b6001600160a01b0382166119af5760405162461bcd60e51b81526020600482015260116024820152704241445f42414e58455f4144445245535360781b604482015260640161050c565b600284108015906119c1575060328411155b6119fe5760405162461bcd60e51b815260206004820152600e60248201526d10905117d413d3d317d0d3d5539560921b604482015260640161050c565b611a5a60405180604001604052806016815260200175554e4f2d42616e78652d4175746f537472617465677960501b8152506040518060400160405280600c81526020016b0554e4f2d42414e58452d4c560a41b815250612a19565b611a62612a4e565b60005b84811015611ffd576000868683818110611a8157611a81613887565b9050604002016020016020810190611a9991906135a1565b6001600160a01b031663450efe21888885818110611ab957611ab9613887565b611acf92602060409092020190810191506135a1565b6040518263ffffffff1660e01b8152600401611aeb91906135be565b600060405180830381865afa158015611b08573d6000803e3d6000fd5b505050506040513d6000823e601f3d908101601f19168201604052611b309190810190613f7a565b905060006040518060800160405280898986818110611b5157611b51613887565b611b6792602060409092020190810191506135a1565b6001600160a01b03168152602001898986818110611b8757611b87613887565b9050604002016020016020810190611b9f91906135a1565b6001600160a01b0316815260200183600081518110611bc057611bc0613887565b60200260200101516001600160a01b0316815260200183600181518110611be957611be9613887565b6020908102919091018101516001600160a01b0390811690925260998054600181018255600091909152835160049182027f72a152ddfb8e864297c917af52ea6c1c68aead0fee1a62673fcc7e0c94979d00810180549286166001600160a01b0319938416179055928501517f72a152ddfb8e864297c917af52ea6c1c68aead0fee1a62673fcc7e0c94979d01840180548287169084161790556040808701517f72a152ddfb8e864297c917af52ea6c1c68aead0fee1a62673fcc7e0c94979d02860180549188169185168217905560608801517f72a152ddfb8e864297c917af52ea6c1c68aead0fee1a62673fcc7e0c94979d0390960180549690971695909316949094179094559151636eb1769f60e11b8152939450909263dd62ed3e92611d1592309201613627565b602060405180830381865afa158015611d32573d6000803e3d6000fd5b505050506040513d601f19601f82011682018060405250810190611d56919061391f565b611e635780604001516001600160a01b031663095ea7b373a32ee1c40594249eb3183c10792bcf573d4da47c6000196040518363ffffffff1660e01b8152600401611da2929190614008565b6020604051808303816000875af1158015611dc1573d6000803e3d6000fd5b505050506040513d601f19601f82011682018060405250810190611de591906137df565b5080604001516001600160a01b031663095ea7b382602001516000196040518363ffffffff1660e01b8152600401611e1e929190614008565b6020604051808303816000875af1158015611e3d573d6000803e3d6000fd5b505050506040513d601f19601f82011682018060405250810190611e6191906137df565b505b80606001516001600160a01b031663dd62ed3e3083602001516040518363ffffffff1660e01b8152600401611e99929190613627565b602060405180830381865afa158015611eb6573d6000803e3d6000fd5b505050506040513d601f19601f82011682018060405250810190611eda919061391f565b611fe85780606001516001600160a01b031663095ea7b373a32ee1c40594249eb3183c10792bcf573d4da47c6000196040518363ffffffff1660e01b8152600401611f26929190614008565b6020604051808303816000875af1158015611f45573d6000803e3d6000fd5b505050506040513d601f19601f82011682018060405250810190611f6991906137df565b506060810151602082015160405163095ea7b360e01b81526001600160a01b039092169163095ea7b391611fa39160001990600401614008565b6020604051808303816000875af1158015611fc2573d6000803e3d6000fd5b505050506040513d601f19601f82011682018060405250810190611fe691906137df565b505b50508080611ff590614021565b915050611a65565b50609780546001600160a01b0319166001600160a01b0384169081179091556040516000906000805160206140f2833981519152908290a360a180546001600160a01b0385166001600160a01b03199182161790915543609e5560a280549091163317905580156120a8576000805461ff0019169055604051600181527f7f26b83ff96e1f2b6a682f133852f6798a09c465da95921460cefb38474024989060200160405180910390a15b5050505050565b60008060a260009054906101000a90046001600160a01b03166001600160a01b0316635c975abb6040518163ffffffff1660e01b8152600401602060405180830381865afa158015612105573d6000803e3d6000fd5b505050506040513d601f19601f8201168201806040525081019061212991906137df565b156121465760405162461bcd60e51b815260040161050c90613801565b600260655414156121695760405162461bcd60e51b815260040161050c9061382b565b6002606555609854871461218f5760405162461bcd60e51b815260040161050c90613862565b60006099609854815481106121a6576121a6613887565b6000918252602080832060408051608081018252600490940290910180546001600160a01b039081168552600182015481169385019390935260028101548316918401919091526003015416606082015291508061220386612a7f565b9150915060006122128a612c1b565b60208501518551604051636c27fc2160e11b81529293506001600160a01b039091169163d84ff8429161224f9185908e908e908e906004016138cb565b60408051808303816000875af115801561226d573d6000803e3d6000fd5b505050506040513d601f19601f8201168201806040525081019061229191906138fb565b90965094506122a083876137c7565b95506122ac82866137c7565b60985460408051898152602081018490529297506001600160a01b038a16923392917ffe7813e2866053d5c3938554e517b554fce6666a6561bed9eaa7419b29fa9b68910160405180910390a450506001606555509197909650945050505050565b6001600160a01b03918216600090815260346020908152604080832093909416825291909152205490565b6097546001600160a01b031633146123635760405162461bcd60e51b815260040161050c90613f50565b6001600160a01b0381166123b45760405162461bcd60e51b81526020600482015260186024820152775452414e534645525f544f5f5a45524f5f4144445245535360401b604482015260640161050c565b6097546040516001600160a01b038084169216906000805160206140f283398151915290600090a3609780546001600160a01b0319166001600160a01b0392909216919091179055565b6001600160a01b0383166124605760405162461bcd60e51b8152602060048201526024808201527f45524332303a20617070726f76652066726f6d20746865207a65726f206164646044820152637265737360e01b606482015260840161050c565b6001600160a01b0382166124c15760405162461bcd60e51b815260206004820152602260248201527f45524332303a20617070726f766520746f20746865207a65726f206164647265604482015261737360f01b606482015260840161050c565b6001600160a01b0383811660008181526034602090815260408083209487168084529482529182902085905590518481527f8c5be1e5ebec7d5bd14f71427d1e84f3dd0314c0f7b2291e5b200ac8c7c3b925910160405180910390a3505050565b600061252e848461230e565b9050600019811461259657818110156125895760405162461bcd60e51b815260206004820152601d60248201527f45524332303a20696e73756666696369656e7420616c6c6f77616e6365000000604482015260640161050c565b61259684848484036123fe565b50505050565b6001600160a01b0383166126005760405162461bcd60e51b815260206004820152602560248201527f45524332303a207472616e736665722066726f6d20746865207a65726f206164604482015264647265737360d81b606482015260840161050c565b6001600160a01b0382166126625760405162461bcd60e51b815260206004820152602360248201527f45524332303a207472616e7366657220746f20746865207a65726f206164647260448201526265737360e81b606482015260840161050c565b61266d838383612d79565b6001600160a01b038316600090815260336020526040902054818110156126e55760405162461bcd60e51b815260206004820152602660248201527f45524332303a207472616e7366657220616d6f756e7420657863656564732062604482015265616c616e636560d01b606482015260840161050c565b6001600160a01b0380851660009081526033602052604080822085850390559185168152908120805484929061271c9084906137c7565b92505081905550826001600160a01b0316846001600160a01b03166000805160206141128339815191528460405161275691815260200190565b60405180910390a3612596565b6040516001600160a01b03808516602483015283166044820152606481018290526125969085906323b872dd60e01b906084015b60408051601f198184030181529190526020810180516001600160e01b03166001600160e01b031990931692909217909152612e4b565b6000806099609854815481106127e6576127e6613887565b6000918252602080832060408051608081018252600494850290920180546001600160a01b0390811680855260018301548216958501869052600283015482168585015260039092015416606084015290516328dee51f60e11b815291955091926351bdca3e9261285992309201613627565b606060405180830381865afa158015612876573d6000803e3d6000fd5b505050506040513d601f19601f8201168201806040525081019061289a919061389d565b505090506000609a54826128ae9190613f39565b905060006128bb60355490565b9050806128e2576128ce6103e883613f39565b94506128dd60016103e8612f1d565b6128fc565b609a546128ef8284613ef8565b6128f99190613f17565b94505b6000851161294c5760405162461bcd60e51b815260206004820152601d60248201527f494e53554646494349454e545f4c49515549444954595f4d494e544544000000604482015260640161050c565b6129568686612f1d565b5050609a5550919050565b6129808363a9059cbb60e01b8484604051602401612797929190614008565b505050565b60008054610100900460ff16156129d3578160ff1660011480156129af57506129ad30612ff6565b155b6129cb5760405162461bcd60e51b815260040161050c9061403c565b506000919050565b60005460ff8084169116106129fa5760405162461bcd60e51b815260040161050c9061403c565b506000805460ff191660ff92909216919091179055600190565b919050565b600054610100900460ff16612a405760405162461bcd60e51b815260040161050c9061408a565b612a4a8282613005565b5050565b600054610100900460ff16612a755760405162461bcd60e51b815260040161050c9061408a565b612a7d613053565b565b33600090815260a060209081526040808320609e548452909152812054819060ff16612c1657609d5415612bee576000609960985481548110612ac457612ac4613887565b6000918252602080832060408051608081018252600490940290910180546001600160a01b03908116855260018201548116858501526002820154811685840152600390910154166060840152609d54609b5433808752609f8552838720609e54885290945291909420549294509190612b3d90611314565b612b479190613f39565b612b519190613ef8565b612b5b9190613f17565b609d54609c54336000818152609f60209081526040808320609e54845290915290205493965091929091612b8e90611314565b612b989190613f39565b612ba29190613ef8565b612bac9190613f17565b91508215612bcd576040810151612bcd906001600160a01b03168585612961565b8115612bec576060810151612bec906001600160a01b03168584612961565b505b33600090815260a060209081526040808320609e5484529091529020805460ff191660011790555b915091565b600080609960985481548110612c3357612c33613887565b6000918252602080832060408051608081018252600494850290920180546001600160a01b0390811680855260018301548216958501869052600283015482168585015260039092015416606084015290516328dee51f60e11b815291955091926351bdca3e92612ca692309201613627565b606060405180830381865afa158015612cc3573d6000803e3d6000fd5b505050506040513d601f19601f82011682018060405250810190612ce7919061389d565b50509050612cf460355490565b612cfe8286613ef8565b612d089190613f17565b925060008311612d5a5760405162461bcd60e51b815260206004820152601d60248201527f494e53554646494349454e545f4c49515549444954595f4255524e4544000000604482015260640161050c565b612d643385613081565b612d6e8382613f39565b609a55509092915050565b6001600160a01b0383166000908152609f60209081526040808320609e548452909152902054811115612dd1576001600160a01b0383166000908152609f60209081526040808320609e548452909152812055612e0c565b6001600160a01b0383166000908152609f60209081526040808320609e54845290915281208054839290612e06908490613f39565b90915550505b6001600160a01b0382166000908152609f60209081526040808320609e54845290915281208054839290612e419084906137c7565b9091555050505050565b6000612ea0826040518060400160405280602081526020017f5361666545524332303a206c6f772d6c6576656c2063616c6c206661696c6564815250856001600160a01b03166131c99092919063ffffffff16565b8051909150156129805780806020019051810190612ebe91906137df565b6129805760405162461bcd60e51b815260206004820152602a60248201527f5361666545524332303a204552433230206f7065726174696f6e20646964206e6044820152691bdd081cdd58d8d9595960b21b606482015260840161050c565b6001600160a01b038216612f735760405162461bcd60e51b815260206004820152601f60248201527f45524332303a206d696e7420746f20746865207a65726f206164647265737300604482015260640161050c565b612f7f60008383612d79565b8060356000828254612f9191906137c7565b90915550506001600160a01b03821660009081526033602052604081208054839290612fbe9084906137c7565b90915550506040518181526001600160a01b038316906000906000805160206141128339815191529060200160405180910390a35050565b6001600160a01b03163b151590565b600054610100900460ff1661302c5760405162461bcd60e51b815260040161050c9061408a565b815161303f906036906020850190613348565b508051612980906037906020840190613348565b600054610100900460ff1661307a5760405162461bcd60e51b815260040161050c9061408a565b6001606555565b6001600160a01b0382166130e15760405162461bcd60e51b815260206004820152602160248201527f45524332303a206275726e2066726f6d20746865207a65726f206164647265736044820152607360f81b606482015260840161050c565b6130ed82600083612d79565b6001600160a01b038216600090815260336020526040902054818110156131615760405162461bcd60e51b815260206004820152602260248201527f45524332303a206275726e20616d6f756e7420657863656564732062616c616e604482015261636560f01b606482015260840161050c565b6001600160a01b0383166000908152603360205260408120838303905560358054849290613190908490613f39565b90915550506040518281526000906001600160a01b038516906000805160206141128339815191529060200160405180910390a3505050565b60606131d884846000856131e0565b949350505050565b6060824710156132415760405162461bcd60e51b815260206004820152602660248201527f416464726573733a20696e73756666696369656e742062616c616e636520666f6044820152651c8818d85b1b60d21b606482015260840161050c565b61324a85612ff6565b6132965760405162461bcd60e51b815260206004820152601d60248201527f416464726573733a2063616c6c20746f206e6f6e2d636f6e7472616374000000604482015260640161050c565b600080866001600160a01b031685876040516132b291906140d5565b60006040518083038185875af1925050503d80600081146132ef576040519150601f19603f3d011682016040523d82523d6000602084013e6132f4565b606091505b509150915061330482828661330f565b979650505050505050565b6060831561331e57508161044f565b82511561332e5782518084602001fd5b8160405162461bcd60e51b815260040161050c9190613439565b82805461335490613776565b90600052602060002090601f01602090048101928261337657600085556133bc565b82601f1061338f57805160ff19168380011785556133bc565b828001600101855582156133bc579182015b828111156133bc5782518255916020019190600101906133a1565b506133c89291506133cc565b5090565b5b808211156133c857600081556001016133cd565b60005b838110156133fc5781810151838201526020016133e4565b838111156125965750506000910152565b600081518084526134258160208601602086016133e1565b601f01601f19169290920160200192915050565b60208152600061044f602083018461340d565b6001600160a01b038116811461346157600080fd5b50565b6000806040838503121561347757600080fd5b82356134828161344c565b946020939093013593505050565b6000806000606084860312156134a557600080fd5b83356134b08161344c565b925060208401356134c08161344c565b929592945050506040919091013590565b60008083601f8401126134e357600080fd5b5081356001600160401b038111156134fa57600080fd5b60208301915083602082850101111561351257600080fd5b9250929050565b600080600080600080600060a0888a03121561353457600080fd5b8735965060208801356001600160401b038082111561355257600080fd5b61355e8b838c016134d1565b909850965060408a013591508082111561357757600080fd5b506135848a828b016134d1565b989b979a5095989597966060870135966080013595509350505050565b6000602082840312156135b357600080fd5b813561044f8161344c565b6001600160a01b0391909116815260200190565b60008060008060008060c087890312156135eb57600080fd5b863595506020870135945060408701359350606087013592506080870135915060a08701356136198161344c565b809150509295509295509295565b6001600160a01b0392831681529116602082015260400190565b60006020828403121561365357600080fd5b5035919050565b6000806000806060858703121561367057600080fd5b84356001600160401b038082111561368757600080fd5b818701915087601f83011261369b57600080fd5b8135818111156136aa57600080fd5b8860208260061b85010111156136bf57600080fd5b602092830196509450508501356136d58161344c565b915060408501356136e58161344c565b939692955090935050565b600080600080600060a0868803121561370857600080fd5b85359450602086013593506040860135925060608601359150608086013561372f8161344c565b809150509295509295909350565b6000806040838503121561375057600080fd5b823561375b8161344c565b9150602083013561376b8161344c565b809150509250929050565b600181811c9082168061378a57607f821691505b602082108114156137ab57634e487b7160e01b600052602260045260246000fd5b50919050565b634e487b7160e01b600052601160045260246000fd5b600082198211156137da576137da6137b1565b500190565b6000602082840312156137f157600080fd5b8151801515811461044f57600080fd5b60208082526010908201526f14105554d05093114e8814105554d15160821b604082015260600190565b6020808252601f908201527f5265656e7472616e637947756172643a207265656e7472616e742063616c6c00604082015260600190565b6020808252600b908201526a10905117d413d3d317d25160aa1b604082015260600190565b634e487b7160e01b600052603260045260246000fd5b6000806000606084860312156138b257600080fd5b8351925060208401519150604084015190509250925092565b6001600160a01b039586168152602081019490945260408401929092526060830152909116608082015260a00190565b6000806040838503121561390e57600080fd5b505080516020909101519092909150565b60006020828403121561393157600080fd5b5051919050565b6000808585111561394857600080fd5b8386111561395557600080fd5b5050820193919092039150565b634e487b7160e01b600052604160045260246000fd5b604051606081016001600160401b038111828210171561399a5761399a613962565b60405290565b604051608081016001600160401b038111828210171561399a5761399a613962565b604051601f8201601f191681016001600160401b03811182821017156139ea576139ea613962565b604052919050565b60006001600160401b03821115613a0b57613a0b613962565b5060051b60200190565b600082601f830112613a2657600080fd5b81356001600160401b03811115613a3f57613a3f613962565b613a52601f8201601f19166020016139c2565b818152846020838601011115613a6757600080fd5b816020850160208301376000918101602001919091529392505050565b600082601f830112613a9557600080fd5b81356020613aaa613aa5836139f2565b6139c2565b82815260609283028501820192828201919087851115613ac957600080fd5b8387015b85811015613b225781818a031215613ae55760008081fd5b613aed613978565b8135613af88161344c565b81528186013586820152604080830135613b118161344c565b908201528452928401928101613acd565b5090979650505050505050565b8035612a148161344c565b60008060008060008060c08789031215613b5357600080fd5b6001600160401b0387351115613b6857600080fd5b8635870188601f820112613b7b57600080fd5b613b88613aa582356139f2565b81358082526020808301929160051b8401018b1015613ba657600080fd5b602083015b6020843560051b850101811015613c65576001600160401b0381351115613bd157600080fd5b803584016080818e03601f19011215613be957600080fd5b613bf16139a0565b613bfe602083013561344c565b6020820135815260408201356020820152613c1c606083013561344c565b606082013560408201526001600160401b0360808301351115613c3e57600080fd5b613c518e60206080850135850101613a15565b606082015284525060209283019201613bab565b50975050506001600160401b0360208801351115613c8257600080fd5b613c928860208901358901613a84565b94506040870135935060608701359250613cae60808801613b2f565b91506001600160401b0360a08801351115613cc857600080fd5b613cd88860a08901358901613a15565b90509295509295509295565b600081518084526020808501945080840160005b83811015613d3657815180516001600160a01b03908116895284820151858a0152604091820151169088015260609096019590820190600101613cf8565b509495945050505050565b600060c0820160c0835280895180835260e08501915060e08160051b86010192506020808c0160005b83811015613dd05787860360df19018552815180516001600160a01b039081168852848201518589015260408083015190911690880152606090810151608091880182905290613dbc8189018361340d565b975050509382019390820190600101613d6a565b505085840381870152505050613de68189613ce4565b9050866040840152856060840152613e0960808401866001600160a01b03169052565b82810360a0840152613e1b818561340d565b9998505050505050505050565b60008060408385031215613e3b57600080fd5b82516001600160401b03811115613e5157600080fd5b8301601f81018513613e6257600080fd5b80516020613e72613aa5836139f2565b82815260059290921b83018101918181019088841115613e9157600080fd5b938201935b83851015613eaf57845182529382019390820190613e96565b969091015195979596505050505050565b6001600160a01b039687168152602081019590955260408501939093526060840191909152608083015290911660a082015260c00190565b6000816000190483118215151615613f1257613f126137b1565b500290565b600082613f3457634e487b7160e01b600052601260045260246000fd5b500490565b600082821015613f4b57613f4b6137b1565b500390565b60208082526010908201526f43414c4c45525f4e4f545f42414e584560801b604082015260600190565b60006020808385031215613f8d57600080fd5b82516001600160401b03811115613fa357600080fd5b8301601f81018513613fb457600080fd5b8051613fc2613aa5826139f2565b81815260059190911b82018301908381019087831115613fe157600080fd5b928401925b82841015613304578351613ff98161344c565b82529284019290840190613fe6565b6001600160a01b03929092168252602082015260400190565b6000600019821415614035576140356137b1565b5060010190565b6020808252602e908201527f496e697469616c697a61626c653a20636f6e747261637420697320616c72656160408201526d191e481a5b9a5d1a585b1a5e995960921b606082015260800190565b6020808252602b908201527f496e697469616c697a61626c653a20636f6e7472616374206973206e6f74206960408201526a6e697469616c697a696e6760a81b606082015260800190565b600082516140e78184602087016133e1565b919091019291505056fe4be5b0d7ef264079a52c66e913760fafaafd4f87f3a5a26e8ab0c1f70b1794c1ddf252ad1be2c89b69c2b068fc378daa952ba7f163c4a11628f55a4df523b3efa26469706673582212206a575d76dd1d8fb0c944e37be4dd298443a6c9715b486ff11e86b0e9ebb0a9a064736f6c634300080a0033",
  "immutableReferences": {},
  "source": "// SPDX-License-Identifier: MIT\r\npragma solidity 0.8.10;\r\nimport \"../interfaces/IOdosRouter.sol\";\r\nimport \"../interfaces/IUnoAssetRouter.sol\";   \r\nimport \"../interfaces/IUnoAutoStrategyFactory.sol\";\r\nimport '@openzeppelin/contracts-upgradeable/security/ReentrancyGuardUpgradeable.sol';\r\nimport '@openzeppelin/contracts-upgradeable/token/ERC20/ERC20Upgradeable.sol';\r\nimport '@openzeppelin/contracts-upgradeable/token/ERC20/utils/SafeERC20Upgradeable.sol';\r\n\r\ncontract UnoAutoStrategyBanxeV2 is Initializable, ERC20Upgradeable, ReentrancyGuardUpgradeable {\r\n    using SafeERC20Upgradeable for IERC20Upgradeable;\r\n    /**\r\n     * @dev PoolInfo:\r\n     * {assetRouter} - UnoAssetRouter contract.\r\n     * {pool} - Pool address. \r\n     * {tokenA} - Pool's first token address.\r\n     * {tokenB} - Pool's second token address.\r\n     */\r\n    struct _PoolInfo {\r\n        address pool;\r\n        IUnoAssetRouter assetRouter;\r\n    }\r\n\r\n    struct PoolInfo {\r\n        address pool;\r\n        IUnoAssetRouter assetRouter;\r\n        IERC20Upgradeable tokenA;\r\n        IERC20Upgradeable tokenB;\r\n    }\r\n\r\n    /**\r\n     * @dev MoveLiquidityInfo:\r\n     * {leftoverA} - TokenA leftovers after MoveLiquidity() call.\r\n     * {leftoverB} - TokenB leftovers after MoveLiquidity() call. \r\n     * {totalSupply} - totalSupply after MoveLiquidity() call.\r\n     * {block} - MoveLiquidity() call block.\r\n     */\r\n    struct MoveLiquidityInfo {\r\n        uint256 leftoverA;\r\n        uint256 leftoverB;\r\n        uint256 totalSupply;\r\n        uint256 block;\r\n    }\r\n    \r\n    /**\r\n     * @dev Contract Variables:\r\n     * banxe - Banxe account that can make deposits to autostrats.\r\n     * {OdosRouter} - Contract that executes swaps.\r\n\r\n     * {poolID} - Current pool the strategy uses ({pools} index).\r\n     * {pools} - Pools this strategy can use and move liquidity to.\r\n\r\n     * {reserveLP} - LP token reserve.\r\n     * {lastMoveInfo} - Info on last MoveLiquidity() block.\r\n     * {blockedLiquidty} - User's blocked LP tokens. Prevents user from stealing leftover tokens by depositing and exiting before moveLiquidity() has been called.\r\n     * {leftoversCollected} - Flag that prevents leftover token collection if they were already collected this MoveLiquidity() cycle.\r\n\r\n     * {accessManager} - Role manager contract.\r\n     * {factory} - The address of AutoStrategyFactory this contract was deployed by.\r\n\r\n     * {MINIMUM_LIQUIDITY} - Ameliorates rounding errors.\r\n     */\r\n\r\n    address public banxe;\r\n    IOdosRouter private constant OdosRouter = IOdosRouter(0xa32EE1C40594249eb3183c10792BcF573D4Da47C);\r\n\r\n    uint256 public poolID;\r\n    PoolInfo[] public pools;\r\n\r\n    uint256 private reserveLP;\r\n    MoveLiquidityInfo private lastMoveInfo;\r\n    mapping(address => mapping(uint256 => uint256)) private blockedLiquidty;\r\n    mapping(address => mapping(uint256 => bool)) private leftoversCollected;\r\n\r\n    IUnoAccessManager public accessManager;\r\n    IUnoAutoStrategyFactory public factory;\r\n\r\n    uint256 private constant MINIMUM_LIQUIDITY = 10**3;\r\n    bytes32 private constant LIQUIDITY_MANAGER_ROLE = keccak256('LIQUIDITY_MANAGER_ROLE');\r\n\r\n    uint256 public constant version = 2;\r\n\r\n    event Deposit(uint256 indexed poolID, address indexed from, address indexed recipient, uint256 amountA, uint256 amountB);\r\n    event Withdraw(uint256 indexed poolID, address indexed from, address indexed recipient, uint256 amountA, uint256 amountB);\r\n    event MoveLiquidity(uint256 indexed previousPoolID, uint256 indexed nextPoolID);\r\n    event BanxeTransferred(address indexed previousBanxe, address indexed newBanxe);\r\n\r\n    modifier whenNotPaused(){\r\n        require(factory.paused() == false, 'PAUSABLE: PAUSED');\r\n        _;\r\n    }\r\n\r\n    modifier onlyBanxe(){\r\n        require(msg.sender == banxe, \"CALLER_NOT_BANXE\");\r\n        _;\r\n    }\r\n\r\n    // ============ Methods ============\r\n    function initialize(_PoolInfo[] calldata poolInfos, IUnoAccessManager _accessManager, address _banxe) external initializer {\r\n        require (_banxe != address(0), \"BAD_BANXE_ADDRESS\");\r\n        require ((poolInfos.length >= 2) && (poolInfos.length <= 50), 'BAD_POOL_COUNT');\r\n\r\n        __ERC20_init(\"UNO-Banxe-AutoStrategy\", \"UNO-BANXE-LP\");\r\n        __ReentrancyGuard_init();\r\n        \r\n        for (uint256 i = 0; i < poolInfos.length; i++) {\r\n            address[] memory _tokens = IUnoAssetRouter(poolInfos[i].assetRouter).getTokens(poolInfos[i].pool);\r\n            PoolInfo memory pool = PoolInfo({\r\n                pool: poolInfos[i].pool,\r\n                assetRouter: poolInfos[i].assetRouter,\r\n                tokenA: IERC20Upgradeable(_tokens[0]),\r\n                tokenB: IERC20Upgradeable(_tokens[1])\r\n            });\r\n            pools.push(pool);\r\n\r\n            if (pool.tokenA.allowance(address(this), address(pool.assetRouter)) == 0) {\r\n                pool.tokenA.approve(address(OdosRouter), type(uint256).max);\r\n                pool.tokenA.approve(address(pool.assetRouter), type(uint256).max);\r\n            }\r\n            if (pool.tokenB.allowance(address(this), address(pool.assetRouter)) == 0) {\r\n                pool.tokenB.approve(address(OdosRouter), type(uint256).max);\r\n                pool.tokenB.approve(address(pool.assetRouter), type(uint256).max);\r\n            }\r\n        }\r\n\r\n        banxe = _banxe;\r\n        emit BanxeTransferred(address(0), _banxe);\r\n\r\n        accessManager = _accessManager;\r\n        lastMoveInfo.block = block.number;\r\n        factory = IUnoAutoStrategyFactory(msg.sender);\r\n    }\r\n\r\n    /**\r\n     * @dev Deposits tokens in the pools[poolID] pool. Mints tokens representing user share. Emits {Deposit} event.\r\n     * @param pid - Current poolID. Throws revert if moveLiquidity() has been called before the transaction has been mined.\r\n     * @param amountA - Token A amount to deposit.\r\n     * @param amountB  - Token B amount to deposit.\r\n     * @param amountAMin - Bounds the extent to which the B/A price can go up before the transaction reverts.\r\n     * @param amountBMin - Bounds the extent to which the A/B price can go up before the transaction reverts.\r\n     * @param recipient - Address which will receive the deposit.\r\n     \r\n     * @return sentA - Deposited token A amount.\r\n     * @return sentB - Deposited token B amount.\r\n     * @return liquidity - Total liquidity minted for the {recipient}.\r\n     */\r\n    function deposit(uint256 pid, uint256 amountA, uint256 amountB, uint256 amountAMin, uint256 amountBMin, address recipient) onlyBanxe whenNotPaused nonReentrant external returns (uint256 sentA, uint256 sentB, uint256 liquidity) {\r\n        require (pid == poolID, 'BAD_POOL_ID');\r\n        PoolInfo memory pool = pools[poolID];\r\n\r\n        pool.tokenA.safeTransferFrom(msg.sender, address(this), amountA);\r\n        pool.tokenB.safeTransferFrom(msg.sender, address(this), amountB);\r\n\r\n        (sentA, sentB,) = pool.assetRouter.deposit(pool.pool, amountA, amountB, amountAMin, amountBMin, address(this));\r\n        liquidity = mint(recipient);\r\n\r\n        pool.tokenA.safeTransfer(msg.sender, amountA - sentA);\r\n        pool.tokenB.safeTransfer(msg.sender, amountB - sentB);\r\n\r\n        emit Deposit(poolID, msg.sender, recipient, sentA, sentB); \r\n    }\r\n\r\n    /**\r\n     * @dev Withdraws tokens from the {pools[poolID]} pool and sends them to the recipient. Burns tokens representing user share. Emits {Withdraw} event.\r\n     * @param pid - Current poolID. Throws revert if moveLiquidity() has been called before the transaction has been mined.\r\n     * @param liquidity - Liquidity to burn from this user.\r\n     * @param amountAMin - The minimum amount of tokenA that must be received from the pool for the transaction not to revert.\r\n     * @param amountBMin - The minimum amount of tokenB that must be received from the pool for the transaction not to revert.\r\n     * @param recipient - Address which will receive withdrawn tokens.\r\n     \r\n     * @return amountA - Token A amount sent to the {recipient}.\r\n     * @return amountB - Token B amount sent to the {recipient}.\r\n     */\r\n    function withdraw(uint256 pid, uint256 liquidity, uint256 amountAMin, uint256 amountBMin, address recipient) whenNotPaused nonReentrant external returns (uint256 amountA, uint256 amountB) {\r\n        require (pid == poolID, 'BAD_POOL_ID');\r\n        PoolInfo memory pool = pools[poolID];\r\n\r\n        (uint256 leftoverA, uint256 leftoverB) = collectLeftovers(recipient);\r\n\r\n        uint256 amountLP = burn(liquidity);\r\n        (amountA, amountB) = pool.assetRouter.withdraw(pool.pool, amountLP, amountAMin, amountBMin, recipient);\r\n\r\n        amountA += leftoverA;\r\n        amountB += leftoverB;\r\n\r\n        emit Withdraw(poolID, msg.sender, recipient, amountA, amountB);\r\n    }\r\n\r\n    /**\r\n     * @dev Collects leftover tokens left from moveLiquidity() function.\r\n     * @param recipient - Address which will receive leftover tokens.\r\n     \r\n     * @return leftoverA - Token A amount sent to the {recipient}.\r\n     * @return leftoverB - Token B amount sent to the {recipient}.\r\n     */\r\n    function collectLeftovers(address recipient) internal returns (uint256 leftoverA, uint256 leftoverB){\r\n        if(!leftoversCollected[msg.sender][lastMoveInfo.block]){\r\n            if(lastMoveInfo.totalSupply != 0){\r\n                PoolInfo memory pool = pools[poolID];\r\n                leftoverA = (balanceOf(msg.sender) - blockedLiquidty[msg.sender][lastMoveInfo.block]) * lastMoveInfo.leftoverA / lastMoveInfo.totalSupply;\r\n                leftoverB = (balanceOf(msg.sender) - blockedLiquidty[msg.sender][lastMoveInfo.block]) * lastMoveInfo.leftoverB / lastMoveInfo.totalSupply;\r\n\r\n                if(leftoverA > 0){\r\n                    pool.tokenA.safeTransfer(recipient, leftoverA);\r\n                }\r\n                if(leftoverB > 0){\r\n                    pool.tokenB.safeTransfer(recipient, leftoverB);\r\n                }\r\n            }\r\n\r\n            leftoversCollected[msg.sender][lastMoveInfo.block] = true;\r\n        }\r\n    }\r\n\r\n    /**\r\n     * @dev Moves liquidity from {pools[poolID]} to {pools[_poolID]}. Emits {MoveLiquidity} event.\r\n     * @param _poolID - Pool ID to move liquidity to.\r\n     * @param swapAData - Data for tokenA swap.\r\n     * @param swapBData - Data for tokenB swap.\r\n     * @param amountAMin - The minimum amount of tokenA that must be deposited in {pools[_poolID]} for the transaction not to revert.\r\n     * @param amountBMin - The minimum amount of tokenB that must be deposited in {pools[_poolID]} for the transaction not to revert.\r\n     *\r\n     * Note: This function can only be called by LiquidityManager.\r\n     */\r\n    function moveLiquidity(uint256 _poolID, bytes calldata swapAData, bytes calldata swapBData, uint256 amountAMin, uint256 amountBMin) whenNotPaused nonReentrant external {\r\n        require(accessManager.hasRole(LIQUIDITY_MANAGER_ROLE, msg.sender), 'CALLER_NOT_LIQUIDITY_MANAGER');\r\n        require(totalSupply() != 0, 'NO_LIQUIDITY');\r\n        require(lastMoveInfo.block != block.number, 'CANT_CALL_ON_THE_SAME_BLOCK');\r\n        require((_poolID < pools.length) && (_poolID != poolID), 'BAD_POOL_ID');\r\n\r\n        PoolInfo memory currentPool = pools[poolID];\r\n        PoolInfo memory newPool = pools[_poolID];\r\n\r\n        (uint256 _totalDeposits,,) = currentPool.assetRouter.userStake(address(this), currentPool.pool);\r\n        currentPool.assetRouter.withdraw(currentPool.pool, _totalDeposits, 0, 0, address(this));\r\n\r\n        uint256 tokenABalance = currentPool.tokenA.balanceOf(address(this));\r\n        uint256 tokenBBalance = currentPool.tokenB.balanceOf(address(this));\r\n\r\n        if(currentPool.tokenA != newPool.tokenA){\r\n            (\r\n                IOdosRouter.inputToken[] memory inputs, \r\n                IOdosRouter.outputToken[] memory outputs, \r\n                ,\r\n                uint256 valueOutMin,\r\n                address executor,\r\n                bytes memory pathDefinition\r\n            ) = abi.decode(swapAData[4:], (IOdosRouter.inputToken[],IOdosRouter.outputToken[],uint256,uint256,address,bytes));\r\n\r\n            require((inputs.length == 1) && (outputs.length == 1), 'BAD_SWAP_A_TOKENS_LENGTH');\r\n            require(inputs[0].tokenAddress == address(currentPool.tokenA), 'BAD_SWAP_A_INPUT_TOKEN');\r\n            require(outputs[0].tokenAddress == address(newPool.tokenA), 'BAD_SWAP_A_OUTPUT_TOKEN');\r\n\r\n            inputs[0].amountIn = tokenABalance;\r\n            OdosRouter.swap(inputs, outputs, type(uint256).max, valueOutMin, executor, pathDefinition);\r\n        }\r\n\r\n        if(currentPool.tokenB != newPool.tokenB){\r\n            (\r\n                IOdosRouter.inputToken[] memory inputs,\r\n                IOdosRouter.outputToken[] memory outputs,\r\n                ,\r\n                uint256 valueOutMin,\r\n                address executor,\r\n                bytes memory pathDefinition\r\n            ) = abi.decode(swapBData[4:], (IOdosRouter.inputToken[],IOdosRouter.outputToken[],uint256,uint256,address,bytes));\r\n\r\n            require((inputs.length == 1) && (outputs.length == 1), 'BAD_SWAP_B_TOKENS_LENGTH');\r\n            require(inputs[0].tokenAddress == address(currentPool.tokenB), 'BAD_SWAP_B_INPUT_TOKEN');\r\n            require(outputs[0].tokenAddress == address(newPool.tokenB), 'BAD_SWAP_B_OUTPUT_TOKEN');\r\n\r\n            inputs[0].amountIn = tokenBBalance;\r\n            OdosRouter.swap(inputs, outputs, type(uint256).max, valueOutMin, executor, pathDefinition);\r\n        }\r\n        \r\n        (,,reserveLP) = newPool.assetRouter.deposit(newPool.pool, newPool.tokenA.balanceOf(address(this)), newPool.tokenB.balanceOf(address(this)), amountAMin, amountBMin, address(this));\r\n       \r\n        lastMoveInfo = MoveLiquidityInfo({\r\n            leftoverA: newPool.tokenA.balanceOf(address(this)),\r\n            leftoverB: newPool.tokenB.balanceOf(address(this)),\r\n            totalSupply: totalSupply(),\r\n            block: block.number\r\n        });\r\n\r\n        emit MoveLiquidity(poolID, _poolID); \r\n        poolID = _poolID;\r\n    }\r\n\r\n    /**\r\n     * @dev Returns tokens staked by the {_address}. \r\n     * @param _address - The address to check stakes for.\r\n\r\n     * @return stakeA - Token A stake.\r\n     * @return stakeB - Token B stake.\r\n     */\r\n    function userStake(address _address) external view returns (uint256 stakeA, uint256 stakeB) {\r\n        PoolInfo memory pool = pools[poolID];\r\n        (, uint256 balanceA, uint256 balanceB) = pool.assetRouter.userStake(address(this), pool.pool);\r\n\r\n        uint256 _balance = balanceOf(_address);\r\n        if(_balance != 0){\r\n            uint256 _totalSupply = totalSupply();\r\n            stakeA = _balance * balanceA / _totalSupply; \r\n            stakeB = _balance * balanceB / _totalSupply; \r\n            if((!leftoversCollected[msg.sender][lastMoveInfo.block]) && (lastMoveInfo.totalSupply != 0)){\r\n                stakeA += (_balance - blockedLiquidty[_address][lastMoveInfo.block]) * lastMoveInfo.leftoverA / lastMoveInfo.totalSupply;\r\n                stakeB += (_balance - blockedLiquidty[_address][lastMoveInfo.block]) * lastMoveInfo.leftoverB / lastMoveInfo.totalSupply;\r\n            }\r\n        }\r\n    }\r\n        \r\n    /**\r\n     * @dev Returns total amount locked in the pool. \r\n     * @return totalDepositsA - Token A deposits.\r\n     * @return totalDepositsB - Token B deposits.\r\n     */     \r\n    function totalDeposits() external view returns(uint256 totalDepositsA, uint256 totalDepositsB){\r\n        PoolInfo memory pool = pools[poolID];\r\n        (, totalDepositsA, totalDepositsB) = pool.assetRouter.userStake(address(this), pool.pool);\r\n\r\n        // Add leftover tokens.\r\n        totalDepositsA += pool.tokenA.balanceOf(address(this));\r\n        totalDepositsB += pool.tokenB.balanceOf(address(this));\r\n    }\r\n\r\n    /**\r\n     * @dev Returns the number of pools in the strategy. \r\n     */\r\n    function poolsLength() external view returns(uint256){\r\n        return pools.length;\r\n    }\r\n\r\n    /**\r\n     * @dev Returns pair of tokens currently in use. \r\n     */\r\n    function tokens() external view returns(address, address){\r\n        PoolInfo memory pool = pools[poolID];\r\n        return (address(pool.tokenA), address(pool.tokenB));\r\n    }\r\n\r\n    function mint(address to) internal returns (uint256 liquidity){\r\n        PoolInfo memory pool = pools[poolID];\r\n        (uint256 balanceLP,,) = pool.assetRouter.userStake(address(this), pool.pool);\r\n        uint256 amountLP = balanceLP - reserveLP;\r\n\r\n        uint256 _totalSupply = totalSupply();\r\n        if (_totalSupply == 0) {\r\n            liquidity = amountLP - MINIMUM_LIQUIDITY;\r\n            _mint(address(1), MINIMUM_LIQUIDITY);\r\n        } else {\r\n            liquidity = amountLP * _totalSupply / reserveLP;\r\n        }\r\n\r\n        require(liquidity > 0, 'INSUFFICIENT_LIQUIDITY_MINTED');\r\n        _mint(to, liquidity);\r\n\r\n        reserveLP = balanceLP;\r\n    }\r\n\r\n    function burn(uint256 liquidity) internal returns (uint256 amountLP) {\r\n        PoolInfo memory pool = pools[poolID];\r\n        (uint256 balanceLP,,) = pool.assetRouter.userStake(address(this), pool.pool);\r\n\r\n        amountLP = liquidity * balanceLP / totalSupply(); \r\n        require(amountLP > 0, 'INSUFFICIENT_LIQUIDITY_BURNED');\r\n        _burn(msg.sender, liquidity);\r\n\r\n        reserveLP = balanceLP - amountLP;\r\n    }\r\n\r\n    function _beforeTokenTransfer(address from, address to, uint256 amount) internal virtual override {\r\n        super._beforeTokenTransfer(from, to, amount);\r\n\r\n        // Decrease blockedLiquidty from {from} address, but no less then 0.\r\n        if(amount > blockedLiquidty[from][lastMoveInfo.block]){\r\n            blockedLiquidty[from][lastMoveInfo.block] = 0;\r\n        } else {\r\n            blockedLiquidty[from][lastMoveInfo.block] -= amount;\r\n        }\r\n        // Block {to} address from withdrawing their share of leftover tokens immediately.\r\n        blockedLiquidty[to][lastMoveInfo.block] += amount;\r\n    }\r\n\r\n    /**\r\n     * @dev Transfers banxe rights of the contract to a new account (`_banxe`).\r\n     * @param _banxe - Address to transfer banxe rights to.\r\n\r\n     * Note: This function can only be called by Banxe.\r\n     */\r\n    function transferBanxe(address _banxe) external onlyBanxe {\r\n        require(_banxe != address(0), \"TRANSFER_TO_ZERO_ADDRESS\");\r\n        emit BanxeTransferred(banxe, _banxe);\r\n        banxe = _banxe;\r\n    }\r\n}",
  "sourcePath": "C:\\Users\\jugli\\Desktop\\uno\\uno-contracts\\contracts\\test\\UnoAutoStrategyBanxeV2.sol",
  "compiler": {
    "name": "solc",
    "version": "0.8.10+commit.fc410830.Emscripten.clang"
  },
  "schemaVersion": "3.4.11",
  "updatedAt": "2023-05-17T15:10:54.381Z",
  "devdoc": {
    "kind": "dev",
    "methods": {
      "allowance(address,address)": {
        "details": "See {IERC20-allowance}."
      },
      "approve(address,uint256)": {
        "details": "See {IERC20-approve}. NOTE: If `amount` is the maximum `uint256`, the allowance is not updated on `transferFrom`. This is semantically equivalent to an infinite approval. Requirements: - `spender` cannot be the zero address."
      },
      "balanceOf(address)": {
        "details": "See {IERC20-balanceOf}."
      },
      "decimals()": {
        "details": "Returns the number of decimals used to get its user representation. For example, if `decimals` equals `2`, a balance of `505` tokens should be displayed to a user as `5.05` (`505 / 10 ** 2`). Tokens usually opt for a value of 18, imitating the relationship between Ether and Wei. This is the value {ERC20} uses, unless this function is overridden; NOTE: This information is only used for _display_ purposes: it in no way affects any of the arithmetic of the contract, including {IERC20-balanceOf} and {IERC20-transfer}."
      },
      "decreaseAllowance(address,uint256)": {
        "details": "Atomically decreases the allowance granted to `spender` by the caller. This is an alternative to {approve} that can be used as a mitigation for problems described in {IERC20-approve}. Emits an {Approval} event indicating the updated allowance. Requirements: - `spender` cannot be the zero address. - `spender` must have allowance for the caller of at least `subtractedValue`."
      },
      "deposit(uint256,uint256,uint256,uint256,uint256,address)": {
        "details": "Deposits tokens in the pools[poolID] pool. Mints tokens representing user share. Emits {Deposit} event.",
        "params": {
          "amountA": "- Token A amount to deposit.",
          "amountAMin": "- Bounds the extent to which the B/A price can go up before the transaction reverts.",
          "amountB": "- Token B amount to deposit.",
          "amountBMin": "- Bounds the extent to which the A/B price can go up before the transaction reverts.",
          "pid": "- Current poolID. Throws revert if moveLiquidity() has been called before the transaction has been mined.",
          "recipient": "- Address which will receive the deposit."
        },
        "returns": {
          "liquidity": "- Total liquidity minted for the {recipient}.",
          "sentA": "- Deposited token A amount.",
          "sentB": "- Deposited token B amount."
        }
      },
      "increaseAllowance(address,uint256)": {
        "details": "Atomically increases the allowance granted to `spender` by the caller. This is an alternative to {approve} that can be used as a mitigation for problems described in {IERC20-approve}. Emits an {Approval} event indicating the updated allowance. Requirements: - `spender` cannot be the zero address."
      },
      "moveLiquidity(uint256,bytes,bytes,uint256,uint256)": {
        "details": "Moves liquidity from {pools[poolID]} to {pools[_poolID]}. Emits {MoveLiquidity} event.",
        "params": {
          "_poolID": "- Pool ID to move liquidity to.",
          "amountAMin": "- The minimum amount of tokenA that must be deposited in {pools[_poolID]} for the transaction not to revert.",
          "amountBMin": "- The minimum amount of tokenB that must be deposited in {pools[_poolID]} for the transaction not to revert. Note: This function can only be called by LiquidityManager.",
          "swapAData": "- Data for tokenA swap.",
          "swapBData": "- Data for tokenB swap."
        }
      },
      "name()": {
        "details": "Returns the name of the token."
      },
      "poolsLength()": {
        "details": "Returns the number of pools in the strategy. "
      },
      "symbol()": {
        "details": "Returns the symbol of the token, usually a shorter version of the name."
      },
      "tokens()": {
        "details": "Returns pair of tokens currently in use. "
      },
      "totalDeposits()": {
        "details": "Returns total amount locked in the pool. ",
        "returns": {
          "totalDepositsA": "- Token A deposits.",
          "totalDepositsB": "- Token B deposits."
        }
      },
      "totalSupply()": {
        "details": "See {IERC20-totalSupply}."
      },
      "transfer(address,uint256)": {
        "details": "See {IERC20-transfer}. Requirements: - `to` cannot be the zero address. - the caller must have a balance of at least `amount`."
      },
      "transferBanxe(address)": {
        "details": "Transfers banxe rights of the contract to a new account (`_banxe`).",
        "params": {
          "_banxe": "- Address to transfer banxe rights to. Note: This function can only be called by Banxe."
        }
      },
      "transferFrom(address,address,uint256)": {
        "details": "See {IERC20-transferFrom}. Emits an {Approval} event indicating the updated allowance. This is not required by the EIP. See the note at the beginning of {ERC20}. NOTE: Does not update the allowance if the current allowance is the maximum `uint256`. Requirements: - `from` and `to` cannot be the zero address. - `from` must have a balance of at least `amount`. - the caller must have allowance for ``from``'s tokens of at least `amount`."
      },
      "userStake(address)": {
        "details": "Returns tokens staked by the {_address}. ",
        "params": {
          "_address": "- The address to check stakes for."
        },
        "returns": {
          "stakeA": "- Token A stake.",
          "stakeB": "- Token B stake."
        }
      },
      "withdraw(uint256,uint256,uint256,uint256,address)": {
        "details": "Withdraws tokens from the {pools[poolID]} pool and sends them to the recipient. Burns tokens representing user share. Emits {Withdraw} event.",
        "params": {
          "amountAMin": "- The minimum amount of tokenA that must be received from the pool for the transaction not to revert.",
          "amountBMin": "- The minimum amount of tokenB that must be received from the pool for the transaction not to revert.",
          "liquidity": "- Liquidity to burn from this user.",
          "pid": "- Current poolID. Throws revert if moveLiquidity() has been called before the transaction has been mined.",
          "recipient": "- Address which will receive withdrawn tokens."
        },
        "returns": {
          "amountA": "- Token A amount sent to the {recipient}.",
          "amountB": "- Token B amount sent to the {recipient}."
        }
      }
    },
    "stateVariables": {
      "banxe": {
        "details": "Contract Variables: banxe - Banxe account that can make deposits to autostrats. {OdosRouter} - Contract that executes swaps. {poolID} - Current pool the strategy uses ({pools} index). {pools} - Pools this strategy can use and move liquidity to. {reserveLP} - LP token reserve. {lastMoveInfo} - Info on last MoveLiquidity() block. {blockedLiquidty} - User's blocked LP tokens. Prevents user from stealing leftover tokens by depositing and exiting before moveLiquidity() has been called. {leftoversCollected} - Flag that prevents leftover token collection if they were already collected this MoveLiquidity() cycle. {accessManager} - Role manager contract. {factory} - The address of AutoStrategyFactory this contract was deployed by. {MINIMUM_LIQUIDITY} - Ameliorates rounding errors."
      }
    },
    "version": 1
  },
  "userdoc": {
    "kind": "user",
    "methods": {},
    "version": 1
  }
}