{
  "contractName": "UnoAutoStrategyBanxe",
  "abi": [
    {
      "anonymous": false,
      "inputs": [
        {
          "indexed": true,
          "internalType": "address",
          "name": "owner",
          "type": "address"
        },
        {
          "indexed": true,
          "internalType": "address",
          "name": "spender",
          "type": "address"
        },
        {
          "indexed": false,
          "internalType": "uint256",
          "name": "value",
          "type": "uint256"
        }
      ],
      "name": "Approval",
      "type": "event"
    },
    {
      "anonymous": false,
      "inputs": [
        {
          "indexed": true,
          "internalType": "address",
          "name": "previousBanxe",
          "type": "address"
        },
        {
          "indexed": true,
          "internalType": "address",
          "name": "newBanxe",
          "type": "address"
        }
      ],
      "name": "BanxeTransferred",
      "type": "event"
    },
    {
      "anonymous": false,
      "inputs": [
        {
          "indexed": true,
          "internalType": "uint256",
          "name": "poolID",
          "type": "uint256"
        },
        {
          "indexed": true,
          "internalType": "address",
          "name": "from",
          "type": "address"
        },
        {
          "indexed": true,
          "internalType": "address",
          "name": "recipient",
          "type": "address"
        },
        {
          "indexed": false,
          "internalType": "uint256",
          "name": "amountLP",
          "type": "uint256"
        }
      ],
      "name": "Deposit",
      "type": "event"
    },
    {
      "anonymous": false,
      "inputs": [
        {
          "indexed": true,
          "internalType": "uint256",
          "name": "poolID",
          "type": "uint256"
        },
        {
          "indexed": false,
          "internalType": "uint256",
          "name": "amountA",
          "type": "uint256"
        },
        {
          "indexed": false,
          "internalType": "uint256",
          "name": "amountB",
          "type": "uint256"
        }
      ],
      "name": "DepositPairTokens",
      "type": "event"
    },
    {
      "anonymous": false,
      "inputs": [
        {
          "indexed": true,
          "internalType": "uint256",
          "name": "poolID",
          "type": "uint256"
        },
        {
          "indexed": false,
          "internalType": "uint256",
          "name": "amountToken",
          "type": "uint256"
        },
        {
          "indexed": false,
          "internalType": "uint256",
          "name": "amountETH",
          "type": "uint256"
        }
      ],
      "name": "DepositPairTokensETH",
      "type": "event"
    },
    {
      "anonymous": false,
      "inputs": [
        {
          "indexed": true,
          "internalType": "uint256",
          "name": "poolID",
          "type": "uint256"
        },
        {
          "indexed": false,
          "internalType": "uint256",
          "name": "amountETH",
          "type": "uint256"
        }
      ],
      "name": "DepositSingleETH",
      "type": "event"
    },
    {
      "anonymous": false,
      "inputs": [
        {
          "indexed": true,
          "internalType": "uint256",
          "name": "poolID",
          "type": "uint256"
        },
        {
          "indexed": true,
          "internalType": "address",
          "name": "token",
          "type": "address"
        },
        {
          "indexed": false,
          "internalType": "uint256",
          "name": "amount",
          "type": "uint256"
        }
      ],
      "name": "DepositSingleToken",
      "type": "event"
    },
    {
      "anonymous": false,
      "inputs": [
        {
          "indexed": false,
          "internalType": "uint8",
          "name": "version",
          "type": "uint8"
        }
      ],
      "name": "Initialized",
      "type": "event"
    },
    {
      "anonymous": false,
      "inputs": [
        {
          "indexed": true,
          "internalType": "uint256",
          "name": "previousPoolID",
          "type": "uint256"
        },
        {
          "indexed": true,
          "internalType": "uint256",
          "name": "nextPoolID",
          "type": "uint256"
        }
      ],
      "name": "MoveLiquidity",
      "type": "event"
    },
    {
      "anonymous": false,
      "inputs": [
        {
          "indexed": true,
          "internalType": "address",
          "name": "from",
          "type": "address"
        },
        {
          "indexed": true,
          "internalType": "address",
          "name": "to",
          "type": "address"
        },
        {
          "indexed": false,
          "internalType": "uint256",
          "name": "value",
          "type": "uint256"
        }
      ],
      "name": "Transfer",
      "type": "event"
    },
    {
      "anonymous": false,
      "inputs": [
        {
          "indexed": true,
          "internalType": "uint256",
          "name": "poolID",
          "type": "uint256"
        },
        {
          "indexed": true,
          "internalType": "address",
          "name": "from",
          "type": "address"
        },
        {
          "indexed": true,
          "internalType": "address",
          "name": "recipient",
          "type": "address"
        },
        {
          "indexed": false,
          "internalType": "uint256",
          "name": "amountLP",
          "type": "uint256"
        }
      ],
      "name": "Withdraw",
      "type": "event"
    },
    {
      "anonymous": false,
      "inputs": [
        {
          "indexed": true,
          "internalType": "uint256",
          "name": "poolID",
          "type": "uint256"
        },
        {
          "indexed": false,
          "internalType": "uint256",
          "name": "amountA",
          "type": "uint256"
        },
        {
          "indexed": false,
          "internalType": "uint256",
          "name": "amountB",
          "type": "uint256"
        }
      ],
      "name": "WithdrawPairTokens",
      "type": "event"
    },
    {
      "anonymous": false,
      "inputs": [
        {
          "indexed": true,
          "internalType": "uint256",
          "name": "poolID",
          "type": "uint256"
        },
        {
          "indexed": false,
          "internalType": "uint256",
          "name": "amountToken",
          "type": "uint256"
        },
        {
          "indexed": false,
          "internalType": "uint256",
          "name": "amountETH",
          "type": "uint256"
        }
      ],
      "name": "WithdrawPairTokensETH",
      "type": "event"
    },
    {
      "anonymous": false,
      "inputs": [
        {
          "indexed": true,
          "internalType": "uint256",
          "name": "poolID",
          "type": "uint256"
        },
        {
          "indexed": false,
          "internalType": "uint256",
          "name": "amountETH",
          "type": "uint256"
        },
        {
          "indexed": false,
          "internalType": "uint256",
          "name": "amountA",
          "type": "uint256"
        },
        {
          "indexed": false,
          "internalType": "uint256",
          "name": "amountB",
          "type": "uint256"
        }
      ],
      "name": "WithdrawSingleETH",
      "type": "event"
    },
    {
      "anonymous": false,
      "inputs": [
        {
          "indexed": true,
          "internalType": "uint256",
          "name": "poolID",
          "type": "uint256"
        },
        {
          "indexed": true,
          "internalType": "address",
          "name": "token",
          "type": "address"
        },
        {
          "indexed": false,
          "internalType": "uint256",
          "name": "amount",
          "type": "uint256"
        },
        {
          "indexed": false,
          "internalType": "uint256",
          "name": "amountA",
          "type": "uint256"
        },
        {
          "indexed": false,
          "internalType": "uint256",
          "name": "amountB",
          "type": "uint256"
        }
      ],
      "name": "WithdrawSingleToken",
      "type": "event"
    },
    {
      "inputs": [],
      "name": "WMATIC",
      "outputs": [
        {
          "internalType": "address",
          "name": "",
          "type": "address"
        }
      ],
      "stateMutability": "view",
      "type": "function",
      "constant": true
    },
    {
      "inputs": [],
      "name": "accessManager",
      "outputs": [
        {
          "internalType": "contract IUnoAccessManager",
          "name": "",
          "type": "address"
        }
      ],
      "stateMutability": "view",
      "type": "function",
      "constant": true
    },
    {
      "inputs": [
        {
          "internalType": "address",
          "name": "owner",
          "type": "address"
        },
        {
          "internalType": "address",
          "name": "spender",
          "type": "address"
        }
      ],
      "name": "allowance",
      "outputs": [
        {
          "internalType": "uint256",
          "name": "",
          "type": "uint256"
        }
      ],
      "stateMutability": "view",
      "type": "function",
      "constant": true
    },
    {
      "inputs": [
        {
          "internalType": "address",
          "name": "spender",
          "type": "address"
        },
        {
          "internalType": "uint256",
          "name": "amount",
          "type": "uint256"
        }
      ],
      "name": "approve",
      "outputs": [
        {
          "internalType": "bool",
          "name": "",
          "type": "bool"
        }
      ],
      "stateMutability": "nonpayable",
      "type": "function"
    },
    {
      "inputs": [
        {
          "internalType": "address",
          "name": "account",
          "type": "address"
        }
      ],
      "name": "balanceOf",
      "outputs": [
        {
          "internalType": "uint256",
          "name": "",
          "type": "uint256"
        }
      ],
      "stateMutability": "view",
      "type": "function",
      "constant": true
    },
    {
      "inputs": [],
      "name": "banxe",
      "outputs": [
        {
          "internalType": "address",
          "name": "",
          "type": "address"
        }
      ],
      "stateMutability": "view",
      "type": "function",
      "constant": true
    },
    {
      "inputs": [],
      "name": "decimals",
      "outputs": [
        {
          "internalType": "uint8",
          "name": "",
          "type": "uint8"
        }
      ],
      "stateMutability": "view",
      "type": "function",
      "constant": true
    },
    {
      "inputs": [
        {
          "internalType": "address",
          "name": "spender",
          "type": "address"
        },
        {
          "internalType": "uint256",
          "name": "subtractedValue",
          "type": "uint256"
        }
      ],
      "name": "decreaseAllowance",
      "outputs": [
        {
          "internalType": "bool",
          "name": "",
          "type": "bool"
        }
      ],
      "stateMutability": "nonpayable",
      "type": "function"
    },
    {
      "inputs": [],
      "name": "factory",
      "outputs": [
        {
          "internalType": "contract IUnoAutoStrategyFactory",
          "name": "",
          "type": "address"
        }
      ],
      "stateMutability": "view",
      "type": "function",
      "constant": true
    },
    {
      "inputs": [
        {
          "internalType": "address",
          "name": "spender",
          "type": "address"
        },
        {
          "internalType": "uint256",
          "name": "addedValue",
          "type": "uint256"
        }
      ],
      "name": "increaseAllowance",
      "outputs": [
        {
          "internalType": "bool",
          "name": "",
          "type": "bool"
        }
      ],
      "stateMutability": "nonpayable",
      "type": "function"
    },
    {
      "inputs": [],
      "name": "name",
      "outputs": [
        {
          "internalType": "string",
          "name": "",
          "type": "string"
        }
      ],
      "stateMutability": "view",
      "type": "function",
      "constant": true
    },
    {
      "inputs": [],
      "name": "poolID",
      "outputs": [
        {
          "internalType": "uint256",
          "name": "",
          "type": "uint256"
        }
      ],
      "stateMutability": "view",
      "type": "function",
      "constant": true
    },
    {
      "inputs": [
        {
          "internalType": "uint256",
          "name": "",
          "type": "uint256"
        }
      ],
      "name": "pools",
      "outputs": [
        {
          "internalType": "address",
          "name": "pool",
          "type": "address"
        },
        {
          "internalType": "contract IUnoAssetRouter",
          "name": "assetRouter",
          "type": "address"
        },
        {
          "internalType": "contract IERC20Upgradeable",
          "name": "tokenA",
          "type": "address"
        },
        {
          "internalType": "contract IERC20Upgradeable",
          "name": "tokenB",
          "type": "address"
        }
      ],
      "stateMutability": "view",
      "type": "function",
      "constant": true
    },
    {
      "inputs": [],
      "name": "symbol",
      "outputs": [
        {
          "internalType": "string",
          "name": "",
          "type": "string"
        }
      ],
      "stateMutability": "view",
      "type": "function",
      "constant": true
    },
    {
      "inputs": [],
      "name": "totalSupply",
      "outputs": [
        {
          "internalType": "uint256",
          "name": "",
          "type": "uint256"
        }
      ],
      "stateMutability": "view",
      "type": "function",
      "constant": true
    },
    {
      "inputs": [
        {
          "internalType": "address",
          "name": "to",
          "type": "address"
        },
        {
          "internalType": "uint256",
          "name": "amount",
          "type": "uint256"
        }
      ],
      "name": "transfer",
      "outputs": [
        {
          "internalType": "bool",
          "name": "",
          "type": "bool"
        }
      ],
      "stateMutability": "nonpayable",
      "type": "function"
    },
    {
      "inputs": [
        {
          "internalType": "address",
          "name": "from",
          "type": "address"
        },
        {
          "internalType": "address",
          "name": "to",
          "type": "address"
        },
        {
          "internalType": "uint256",
          "name": "amount",
          "type": "uint256"
        }
      ],
      "name": "transferFrom",
      "outputs": [
        {
          "internalType": "bool",
          "name": "",
          "type": "bool"
        }
      ],
      "stateMutability": "nonpayable",
      "type": "function"
    },
    {
      "stateMutability": "payable",
      "type": "receive",
      "payable": true
    },
    {
      "inputs": [
        {
          "components": [
            {
              "internalType": "address",
              "name": "pool",
              "type": "address"
            },
            {
              "internalType": "contract IUnoAssetRouter",
              "name": "assetRouter",
              "type": "address"
            }
          ],
          "internalType": "struct UnoAutoStrategyBanxe._PoolInfo[]",
          "name": "poolInfos",
          "type": "tuple[]"
        },
        {
          "internalType": "contract IUnoAccessManager",
          "name": "_accessManager",
          "type": "address"
        },
        {
          "internalType": "address",
          "name": "_banxe",
          "type": "address"
        }
      ],
      "name": "initialize",
      "outputs": [],
      "stateMutability": "nonpayable",
      "type": "function"
    },
    {
      "inputs": [
        {
          "internalType": "uint256",
          "name": "pid",
          "type": "uint256"
        },
        {
          "internalType": "uint256",
          "name": "amountA",
          "type": "uint256"
        },
        {
          "internalType": "uint256",
          "name": "amountB",
          "type": "uint256"
        },
        {
          "internalType": "uint256",
          "name": "amountAMin",
          "type": "uint256"
        },
        {
          "internalType": "uint256",
          "name": "amountBMin",
          "type": "uint256"
        },
        {
          "internalType": "address",
          "name": "recipient",
          "type": "address"
        }
      ],
      "name": "deposit",
      "outputs": [
        {
          "internalType": "uint256",
          "name": "sentA",
          "type": "uint256"
        },
        {
          "internalType": "uint256",
          "name": "sentB",
          "type": "uint256"
        },
        {
          "internalType": "uint256",
          "name": "liquidity",
          "type": "uint256"
        }
      ],
      "stateMutability": "nonpayable",
      "type": "function"
    },
    {
      "inputs": [
        {
          "internalType": "uint256",
          "name": "pid",
          "type": "uint256"
        },
        {
          "internalType": "uint256",
          "name": "amountToken",
          "type": "uint256"
        },
        {
          "internalType": "uint256",
          "name": "amountTokenMin",
          "type": "uint256"
        },
        {
          "internalType": "uint256",
          "name": "amountETHMin",
          "type": "uint256"
        },
        {
          "internalType": "address",
          "name": "recipient",
          "type": "address"
        }
      ],
      "name": "depositETH",
      "outputs": [
        {
          "internalType": "uint256",
          "name": "sentToken",
          "type": "uint256"
        },
        {
          "internalType": "uint256",
          "name": "sentETH",
          "type": "uint256"
        },
        {
          "internalType": "uint256",
          "name": "liquidity",
          "type": "uint256"
        }
      ],
      "stateMutability": "payable",
      "type": "function",
      "payable": true
    },
    {
      "inputs": [
        {
          "internalType": "uint256",
          "name": "pid",
          "type": "uint256"
        },
        {
          "internalType": "address",
          "name": "token",
          "type": "address"
        },
        {
          "internalType": "uint256",
          "name": "amount",
          "type": "uint256"
        },
        {
          "internalType": "bytes[2]",
          "name": "swapData",
          "type": "bytes[2]"
        },
        {
          "internalType": "uint256",
          "name": "amountAMin",
          "type": "uint256"
        },
        {
          "internalType": "uint256",
          "name": "amountBMin",
          "type": "uint256"
        },
        {
          "internalType": "address",
          "name": "recipient",
          "type": "address"
        }
      ],
      "name": "depositSingleAsset",
      "outputs": [
        {
          "internalType": "uint256",
          "name": "sent",
          "type": "uint256"
        },
        {
          "internalType": "uint256",
          "name": "liquidity",
          "type": "uint256"
        }
      ],
      "stateMutability": "nonpayable",
      "type": "function"
    },
    {
      "inputs": [
        {
          "internalType": "uint256",
          "name": "pid",
          "type": "uint256"
        },
        {
          "internalType": "bytes[2]",
          "name": "swapData",
          "type": "bytes[2]"
        },
        {
          "internalType": "uint256",
          "name": "amountAMin",
          "type": "uint256"
        },
        {
          "internalType": "uint256",
          "name": "amountBMin",
          "type": "uint256"
        },
        {
          "internalType": "address",
          "name": "recipient",
          "type": "address"
        }
      ],
      "name": "depositSingleETH",
      "outputs": [
        {
          "internalType": "uint256",
          "name": "sentETH",
          "type": "uint256"
        },
        {
          "internalType": "uint256",
          "name": "liquidity",
          "type": "uint256"
        }
      ],
      "stateMutability": "payable",
      "type": "function",
      "payable": true
    },
    {
      "inputs": [
        {
          "internalType": "uint256",
          "name": "pid",
          "type": "uint256"
        },
        {
          "internalType": "uint256",
          "name": "liquidity",
          "type": "uint256"
        },
        {
          "internalType": "uint256",
          "name": "amountAMin",
          "type": "uint256"
        },
        {
          "internalType": "uint256",
          "name": "amountBMin",
          "type": "uint256"
        },
        {
          "internalType": "address",
          "name": "recipient",
          "type": "address"
        }
      ],
      "name": "withdraw",
      "outputs": [
        {
          "internalType": "uint256",
          "name": "amountA",
          "type": "uint256"
        },
        {
          "internalType": "uint256",
          "name": "amountB",
          "type": "uint256"
        }
      ],
      "stateMutability": "nonpayable",
      "type": "function"
    },
    {
      "inputs": [
        {
          "internalType": "uint256",
          "name": "pid",
          "type": "uint256"
        },
        {
          "internalType": "uint256",
          "name": "liquidity",
          "type": "uint256"
        },
        {
          "internalType": "uint256",
          "name": "amountTokenMin",
          "type": "uint256"
        },
        {
          "internalType": "uint256",
          "name": "amountETHMin",
          "type": "uint256"
        },
        {
          "internalType": "address",
          "name": "recipient",
          "type": "address"
        }
      ],
      "name": "withdrawETH",
      "outputs": [
        {
          "internalType": "uint256",
          "name": "amountToken",
          "type": "uint256"
        },
        {
          "internalType": "uint256",
          "name": "amountETH",
          "type": "uint256"
        }
      ],
      "stateMutability": "nonpayable",
      "type": "function"
    },
    {
      "inputs": [
        {
          "internalType": "uint256",
          "name": "pid",
          "type": "uint256"
        },
        {
          "internalType": "uint256",
          "name": "liquidity",
          "type": "uint256"
        },
        {
          "internalType": "address",
          "name": "token",
          "type": "address"
        },
        {
          "internalType": "bytes[2]",
          "name": "swapData",
          "type": "bytes[2]"
        },
        {
          "internalType": "address",
          "name": "recipient",
          "type": "address"
        }
      ],
      "name": "withdrawSingleAsset",
      "outputs": [
        {
          "internalType": "uint256",
          "name": "amountToken",
          "type": "uint256"
        },
        {
          "internalType": "uint256",
          "name": "amountA",
          "type": "uint256"
        },
        {
          "internalType": "uint256",
          "name": "amountB",
          "type": "uint256"
        }
      ],
      "stateMutability": "nonpayable",
      "type": "function"
    },
    {
      "inputs": [
        {
          "internalType": "uint256",
          "name": "pid",
          "type": "uint256"
        },
        {
          "internalType": "uint256",
          "name": "liquidity",
          "type": "uint256"
        },
        {
          "internalType": "bytes[2]",
          "name": "swapData",
          "type": "bytes[2]"
        },
        {
          "internalType": "address",
          "name": "recipient",
          "type": "address"
        }
      ],
      "name": "withdrawSingleETH",
      "outputs": [
        {
          "internalType": "uint256",
          "name": "amountETH",
          "type": "uint256"
        },
        {
          "internalType": "uint256",
          "name": "amountA",
          "type": "uint256"
        },
        {
          "internalType": "uint256",
          "name": "amountB",
          "type": "uint256"
        }
      ],
      "stateMutability": "nonpayable",
      "type": "function"
    },
    {
      "inputs": [
        {
          "internalType": "uint256",
          "name": "_poolID",
          "type": "uint256"
        },
        {
          "internalType": "bytes",
          "name": "swapAData",
          "type": "bytes"
        },
        {
          "internalType": "bytes",
          "name": "swapBData",
          "type": "bytes"
        },
        {
          "internalType": "uint256",
          "name": "amountAMin",
          "type": "uint256"
        },
        {
          "internalType": "uint256",
          "name": "amountBMin",
          "type": "uint256"
        }
      ],
      "name": "moveLiquidity",
      "outputs": [],
      "stateMutability": "nonpayable",
      "type": "function"
    },
    {
      "inputs": [
        {
          "internalType": "address",
          "name": "_address",
          "type": "address"
        }
      ],
      "name": "userStake",
      "outputs": [
        {
          "internalType": "uint256",
          "name": "stakeA",
          "type": "uint256"
        },
        {
          "internalType": "uint256",
          "name": "stakeB",
          "type": "uint256"
        }
      ],
      "stateMutability": "view",
      "type": "function",
      "constant": true
    },
    {
      "inputs": [],
      "name": "totalDeposits",
      "outputs": [
        {
          "internalType": "uint256",
          "name": "totalDepositsA",
          "type": "uint256"
        },
        {
          "internalType": "uint256",
          "name": "totalDepositsB",
          "type": "uint256"
        }
      ],
      "stateMutability": "view",
      "type": "function",
      "constant": true
    },
    {
      "inputs": [],
      "name": "poolsLength",
      "outputs": [
        {
          "internalType": "uint256",
          "name": "",
          "type": "uint256"
        }
      ],
      "stateMutability": "view",
      "type": "function",
      "constant": true
    },
    {
      "inputs": [],
      "name": "tokens",
      "outputs": [
        {
          "internalType": "address",
          "name": "",
          "type": "address"
        },
        {
          "internalType": "address",
          "name": "",
          "type": "address"
        }
      ],
      "stateMutability": "view",
      "type": "function",
      "constant": true
    },
    {
      "inputs": [
        {
          "internalType": "address",
          "name": "_banxe",
          "type": "address"
        }
      ],
      "name": "transferBanxe",
      "outputs": [],
      "stateMutability": "nonpayable",
      "type": "function"
    }
  ],
  "bytecode": "0x608060405234801561001057600080fd5b50615d4780620000216000396000f3fe6080604052600436106101e75760003560e01c806376216f7b11610102578063ac4afa3811610095578063d473a65411610064578063d473a654146105e2578063dd62ed3e14610602578063e25212c914610622578063fdcb60681461064257600080fd5b8063ac4afa381461052f578063b845f1c614610582578063c45a0155146105a2578063c94af0b3146105c257600080fd5b806395d89b41116100d157806395d89b41146104b75780639d63848a146104cc578063a457c2d7146104ef578063a9059cbb1461050f57600080fd5b806376216f7b1461044c5780637d8820971461046c5780638d934485146104815780639130700e1461049757600080fd5b8063313ce5671161017a5780634f68aa12116101495780634f68aa12146103b4578063668393c7146103d457806368e5585d146103f657806370a082311461041657600080fd5b8063313ce5671461031857806339509351146103345780634c55999f146103545780634d95cad91461037457600080fd5b806322604f74116101b657806322604f74146102a257806323b872dd146102d05780632716ae66146102f0578063274679d51461030557600080fd5b806306fdde03146101f3578063095ea7b31461021e57806318160ddd1461024e5780631c723b821461026d57600080fd5b366101ee57005b600080fd5b3480156101ff57600080fd5b50610208610662565b6040516102159190614d0a565b60405180910390f35b34801561022a57600080fd5b5061023e610239366004614d35565b6106f4565b6040519015158152602001610215565b34801561025a57600080fd5b506035545b604051908152602001610215565b34801561027957600080fd5b5061028d610288366004614d61565b61070e565b60408051928352602083019190915201610215565b6102b56102b0366004614d61565b610a5a565b60408051938452602084019290925290820152606001610215565b3480156102dc57600080fd5b5061023e6102eb366004614dae565b610dbb565b3480156102fc57600080fd5b5060995461025f565b61028d610313366004614e00565b610de1565b34801561032457600080fd5b5060405160128152602001610215565b34801561034057600080fd5b5061023e61034f366004614d35565b6112b0565b34801561036057600080fd5b506102b561036f366004614e60565b6112d2565b34801561038057600080fd5b5061039c730d500b1d8e8ef31e21c99d1db9a6444d3adf127081565b6040516001600160a01b039091168152602001610215565b3480156103c057600080fd5b506102b56103cf366004614ec9565b611580565b3480156103e057600080fd5b506103f46103ef366004614f6c565b611821565b005b34801561040257600080fd5b5061028d610411366004614ff4565b6124a5565b34801561042257600080fd5b5061025f610431366004614ff4565b6001600160a01b031660009081526033602052604090205490565b34801561045857600080fd5b5060975461039c906001600160a01b031681565b34801561047857600080fd5b5061028d6126a2565b34801561048d57600080fd5b5061025f60985481565b3480156104a357600080fd5b506102b56104b2366004615011565b61286d565b3480156104c357600080fd5b50610208612b79565b3480156104d857600080fd5b506104e1612b88565b604051610215929190615066565b3480156104fb57600080fd5b5061023e61050a366004614d35565b612c02565b34801561051b57600080fd5b5061023e61052a366004614d35565b612c88565b34801561053b57600080fd5b5061054f61054a366004615080565b612c96565b604080516001600160a01b0395861681529385166020850152918416918301919091529091166060820152608001610215565b34801561058e57600080fd5b506103f461059d366004615099565b612ce0565b3480156105ae57600080fd5b5060a25461039c906001600160a01b031681565b3480156105ce57600080fd5b5061028d6105dd366004615124565b613472565b3480156105ee57600080fd5b5061028d6105fd366004614d61565b6139a3565b34801561060e57600080fd5b5061025f61061d3660046151ae565b613be0565b34801561062e57600080fd5b506103f461063d366004614ff4565b613c0b565b34801561064e57600080fd5b5060a15461039c906001600160a01b031681565b606060368054610671906151e7565b80601f016020809104026020016040519081016040528092919081815260200182805461069d906151e7565b80156106ea5780601f106106bf576101008083540402835291602001916106ea565b820191906000526020600020905b8154815290600101906020018083116106cd57829003601f168201915b5050505050905090565b600033610702818585613ce7565b60019150505b92915050565b60008060a260009054906101000a90046001600160a01b03166001600160a01b0316635c975abb6040518163ffffffff1660e01b8152600401602060405180830381865afa158015610764573d6000803e3d6000fd5b505050506040513d601f19601f820116820180604052508101906107889190615222565b156107ae5760405162461bcd60e51b81526004016107a590615244565b60405180910390fd5b600260655414156107d15760405162461bcd60e51b81526004016107a59061526e565b600260655560985487146107f75760405162461bcd60e51b81526004016107a5906152a5565b600060996098548154811061080e5761080e6152ca565b6000918252602080832060408051608081018252600490940290910180546001600160a01b039081168552600182015481169385019390935260028101548316918401919091526003015416606082015291508061086c8987613e0b565b91509150600061087b8a613f5c565b6020850151855160405163deb03f4d60e01b81529293506001600160a01b039091169163deb03f4d916108b89185908e908e908e906004016152e0565b60408051808303816000875af11580156108d6573d6000803e3d6000fd5b505050506040513d601f19601f820116820180604052508101906108fa9190615310565b604086015191975095506001600160a01b0316730d500b1d8e8ef31e21c99d1db9a6444d3adf1270141561094557610932838661534a565b945061093e828761534a565b95506109c5565b60608401516001600160a01b0316730d500b1d8e8ef31e21c99d1db9a6444d3adf1270141561098b57610978838761534a565b9550610984828661534a565b94506109c5565b60405162461bcd60e51b815260206004820152600f60248201526e1393d517d5d350551250d7d413d3d3608a1b60448201526064016107a5565b60985460408051888152602081018890527fec8ea790e053f644b6490a17d81267d813f466d779e36cd538c56166bfb650f991015b60405180910390a26098546040518281526001600160a01b0389169133917ffeb2000dca3e617cd6f3a8bbb63014bb54a124aac6ccbf73ee7229b4cd01f1209060200160405180910390a450506001606555509197909650945050505050565b609754600090819081906001600160a01b03163314610a8b5760405162461bcd60e51b81526004016107a590615362565b60a260009054906101000a90046001600160a01b03166001600160a01b0316635c975abb6040518163ffffffff1660e01b8152600401602060405180830381865afa158015610ade573d6000803e3d6000fd5b505050506040513d601f19601f82011682018060405250810190610b029190615222565b15610b1f5760405162461bcd60e51b81526004016107a590615244565b60026065541415610b425760405162461bcd60e51b81526004016107a59061526e565b60026065556098548814610b685760405162461bcd60e51b81526004016107a5906152a5565b6000609960985481548110610b7f57610b7f6152ca565b6000918252602080832060408051608081018252600490940290910180546001600160a01b039081168552600182015481169385019390935260028101548316918401829052600301549091166060830152909250730d500b1d8e8ef31e21c99d1db9a6444d3adf12701415610bfa57506060810151610c2a565b60608201516001600160a01b0316730d500b1d8e8ef31e21c99d1db9a6444d3adf1270141561098b575060408101515b610c3f6001600160a01b03821633308c6140ba565b60208201518251604051633fbe902560e21b81526000926001600160a01b03169163fefa4094913491610c7c918f908f908f9030906004016152e0565b60606040518083038185885af1158015610c9a573d6000803e3d6000fd5b50505050506040513d601f19601f82011682018060405250810190610cbf919061538c565b91975095509050610ccf8761412b565b9350858a1115610cf857610cf833610ce7888d6153ba565b6001600160a01b03851691906142be565b84341115610d3857336108fc610d0e87346153ba565b6040518115909202916000818181858888f19350505050158015610d36573d6000803e3d6000fd5b505b60985460408051888152602081018890527f33ec26ffa0eadd23ca7311e5f8f35ce115ffaf52cfea3180a7fdc6a592b09039910160405180910390a26098546040518281526001600160a01b038916913391600080516020615cf28339815191529060200160405180910390a45050506001606581905550955095509592505050565b600033610dc98582856142f3565b610dd4858585614367565b60019150505b9392505050565b60975460009081906001600160a01b03163314610e105760405162461bcd60e51b81526004016107a590615362565b60a260009054906101000a90046001600160a01b03166001600160a01b0316635c975abb6040518163ffffffff1660e01b8152600401602060405180830381865afa158015610e63573d6000803e3d6000fd5b505050506040513d601f19601f82011682018060405250810190610e879190615222565b15610ea45760405162461bcd60e51b81526004016107a590615244565b60026065541415610ec75760405162461bcd60e51b81526004016107a59061526e565b60026065556098548714610eed5760405162461bcd60e51b81526004016107a5906152a5565b6000609960985481548110610f0457610f046152ca565b6000918252602080832060408051608081018252600494850290920180546001600160a01b0390811684526001820154811694840194909452600281015484168383018190526003909101549093166060830152516370a0823160e01b815230938101939093529350906370a0823190602401602060405180830381865afa158015610f94573d6000803e3d6000fd5b505050506040513d601f19601f82011682018060405250810190610fb891906153d1565b60608301516040516370a0823160e01b81523060048201529192506000916001600160a01b03909116906370a0823190602401602060405180830381865afa158015611008573d6000803e3d6000fd5b505050506040513d601f19601f8201168201806040525081019061102c91906153d1565b9050600083602001516001600160a01b0316637d7956283486600001518d8d8d306040518763ffffffff1660e01b815260040161106d95949392919061547f565b604080518083038185885af115801561108a573d6000803e3d6000fd5b50505050506040513d601f19601f820116820180604052508101906110af9190615310565b90965090506110bd8761412b565b9450336108fc6110cd88346153ba565b6040518115909202916000818181858888f193505050501580156110f5573d6000803e3d6000fd5b5060408085015190516370a0823160e01b81523060048201526000916001600160a01b0316906370a0823190602401602060405180830381865afa158015611141573d6000803e3d6000fd5b505050506040513d601f19601f8201168201806040525081019061116591906153d1565b60608601516040516370a0823160e01b81523060048201529192506000916001600160a01b03909116906370a0823190602401602060405180830381865afa1580156111b5573d6000803e3d6000fd5b505050506040513d601f19601f820116820180604052508101906111d991906153d1565b90508482111561120657611206336111f187856153ba565b60408901516001600160a01b031691906142be565b83811115611231576112313361121c86846153ba565b60608901516001600160a01b031691906142be565b6098546040518981527f7c91ae1953dc46554227e335ce5e88a6b550d641442c83653e7d31c85e1093409060200160405180910390a26098546040518481526001600160a01b038b16913391600080516020615cf28339815191529060200160405180910390a450505050505060016065819055509550959350505050565b6000336107028185856112c38383613be0565b6112cd919061534a565b613ce7565b600080600060a260009054906101000a90046001600160a01b03166001600160a01b0316635c975abb6040518163ffffffff1660e01b8152600401602060405180830381865afa15801561132a573d6000803e3d6000fd5b505050506040513d601f19601f8201168201806040525081019061134e9190615222565b1561136b5760405162461bcd60e51b81526004016107a590615244565b6002606554141561138e5760405162461bcd60e51b81526004016107a59061526e565b600260655560985488146113b45760405162461bcd60e51b81526004016107a5906152a5565b60006099609854815481106113cb576113cb6152ca565b6000918252602080832060408051608081018252600490940290910180546001600160a01b03908116855260018201548116938501939093526002810154831691840191909152600301541660608201529150806114298a88613e0b565b9150915060006114388b613f5c565b60208501518551604051630bc8957360e21b81529293506001600160a01b0390911691632f2255cc916114759185908f908f908f906004016154c0565b6060604051808303816000875af1158015611494573d6000803e3d6000fd5b505050506040513d601f19601f820116820180604052508101906114b8919061538c565b919850965094506114c9838761534a565b95506114d5828661534a565b609854604080518a8152602081018a90529081018390529196506001600160a01b038c16917f224f79ccea3bf3e63c7deb1d5fe4dbcfcad5f7ffa2468e47fb3692d3837a9bd59060600160405180910390a36098546040518281526001600160a01b038a169133917ffeb2000dca3e617cd6f3a8bbb63014bb54a124aac6ccbf73ee7229b4cd01f1209060200160405180910390a45050600160655550929891975095509350505050565b600080600060a260009054906101000a90046001600160a01b03166001600160a01b0316635c975abb6040518163ffffffff1660e01b8152600401602060405180830381865afa1580156115d8573d6000803e3d6000fd5b505050506040513d601f19601f820116820180604052508101906115fc9190615222565b156116195760405162461bcd60e51b81526004016107a590615244565b6002606554141561163c5760405162461bcd60e51b81526004016107a59061526e565b600260655560985487146116625760405162461bcd60e51b81526004016107a5906152a5565b6000609960985481548110611679576116796152ca565b6000918252602080832060408051608081018252600490940290910180546001600160a01b03908116855260018201548116938501939093526002810154831691840191909152600301541660608201529150806116d78988613e0b565b9150915060006116e68a613f5c565b6020850151855160405163291d589b60e21b81529293506001600160a01b039091169163a475626c916117219185908e908e90600401615505565b6060604051808303816000875af1158015611740573d6000803e3d6000fd5b505050506040513d601f19601f82011682018060405250810190611764919061538c565b91985096509450611775838761534a565b9550611781828661534a565b609854604080518a8152602081018a9052908101839052919650907f51596ec1db5d3d237fb3e6b137016d4ef04cee72cac9314bb7df1770aeb420b19060600160405180910390a26098546040518281526001600160a01b038a169133917ffeb2000dca3e617cd6f3a8bbb63014bb54a124aac6ccbf73ee7229b4cd01f1209060200160405180910390a450506001606555509297919650945092505050565b60a260009054906101000a90046001600160a01b03166001600160a01b0316635c975abb6040518163ffffffff1660e01b8152600401602060405180830381865afa158015611874573d6000803e3d6000fd5b505050506040513d601f19601f820116820180604052508101906118989190615222565b156118b55760405162461bcd60e51b81526004016107a590615244565b600260655414156118d85760405162461bcd60e51b81526004016107a59061526e565b600260655560a154604051632474521560e21b81527f77e60b99a50d27fb027f6912a507d956105b4148adab27a86d235c8bcca8fa2f60048201523360248201526001600160a01b03909116906391d1485490604401602060405180830381865afa15801561194b573d6000803e3d6000fd5b505050506040513d601f19601f8201168201806040525081019061196f9190615222565b6119bb5760405162461bcd60e51b815260206004820152601c60248201527f43414c4c45525f4e4f545f4c49515549444954595f4d414e414745520000000060448201526064016107a5565b6035546119f95760405162461bcd60e51b815260206004820152600c60248201526b4e4f5f4c495155494449545960a01b60448201526064016107a5565b609e54431415611a4b5760405162461bcd60e51b815260206004820152601b60248201527f43414e545f43414c4c5f4f4e5f5448455f53414d455f424c4f434b000000000060448201526064016107a5565b60995487108015611a5e57506098548714155b611a7a5760405162461bcd60e51b81526004016107a5906152a5565b6000609960985481548110611a9157611a916152ca565b6000918252602080832060408051608081018252600490940290910180546001600160a01b039081168552600182015481169385019390935260028101548316918401919091526003015416606082015260998054919350908a908110611afa57611afa6152ca565b6000918252602080832060408051608081018252600494850290920180546001600160a01b039081168452600182015481168486015260028201548116848401526003909101548116606084015292870151875191516328dee51f60e11b8152929650909216926351bdca3e92611b7392309201615066565b606060405180830381865afa158015611b90573d6000803e3d6000fd5b505050506040513d601f19601f82011682018060405250810190611bb4919061538c565b505060208401518451604051636c27fc2160e11b81529293506001600160a01b039091169163d84ff84291611bf4918590600090819030906004016152e0565b60408051808303816000875af1158015611c12573d6000803e3d6000fd5b505050506040513d601f19601f82011682018060405250810190611c369190615310565b505060408084015190516370a0823160e01b81523060048201526000916001600160a01b0316906370a0823190602401602060405180830381865afa158015611c83573d6000803e3d6000fd5b505050506040513d601f19601f82011682018060405250810190611ca791906153d1565b60608501516040516370a0823160e01b81523060048201529192506000916001600160a01b03909116906370a0823190602401602060405180830381865afa158015611cf7573d6000803e3d6000fd5b505050506040513d601f19601f82011682018060405250810190611d1b91906153d1565b905083604001516001600160a01b031685604001516001600160a01b031614611f825760008060008060008f8f6004908092611d5993929190615541565b810190611d669190615743565b955095509550509450945084516001148015611d83575083516001145b611dcf5760405162461bcd60e51b815260206004820152601860248201527f4241445f535741505f415f544f4b454e535f4c454e475448000000000000000060448201526064016107a5565b89604001516001600160a01b031685600081518110611df057611df06152ca565b6020026020010151600001516001600160a01b031614611e4b5760405162461bcd60e51b81526020600482015260166024820152752120a22fa9aba0a82fa0afa4a7282aaa2faa27a5a2a760511b60448201526064016107a5565b88604001516001600160a01b031684600081518110611e6c57611e6c6152ca565b6020026020010151600001516001600160a01b031614611ece5760405162461bcd60e51b815260206004820152601760248201527f4241445f535741505f415f4f55545055545f544f4b454e00000000000000000060448201526064016107a5565b8685600081518110611ee257611ee26152ca565b60209081029190910181015101526040516378bd22a360e11b815273a32ee1c40594249eb3183c10792bcf573d4da47c9063f17a454690611f3390889088906000199089908990899060040161594a565b6000604051808303816000875af1158015611f52573d6000803e3d6000fd5b505050506040513d6000823e601f3d908101601f19168201604052611f7a9190810190615a31565b505050505050505b83606001516001600160a01b031685606001516001600160a01b0316146121e75760008060008060008d8d6004908092611fbe93929190615541565b810190611fcb9190615743565b955095509550509450945084516001148015611fe8575083516001145b6120345760405162461bcd60e51b815260206004820152601860248201527f4241445f535741505f425f544f4b454e535f4c454e475448000000000000000060448201526064016107a5565b89606001516001600160a01b031685600081518110612055576120556152ca565b6020026020010151600001516001600160a01b0316146120b05760405162461bcd60e51b81526020600482015260166024820152752120a22fa9aba0a82fa12fa4a7282aaa2faa27a5a2a760511b60448201526064016107a5565b88606001516001600160a01b0316846000815181106120d1576120d16152ca565b6020026020010151600001516001600160a01b0316146121335760405162461bcd60e51b815260206004820152601760248201527f4241445f535741505f425f4f55545055545f544f4b454e00000000000000000060448201526064016107a5565b8585600081518110612147576121476152ca565b60209081029190910181015101526040516378bd22a360e11b815273a32ee1c40594249eb3183c10792bcf573d4da47c9063f17a45469061219890889088906000199089908990899060040161594a565b6000604051808303816000875af11580156121b7573d6000803e3d6000fd5b505050506040513d6000823e601f3d908101601f191682016040526121df9190810190615a31565b505050505050505b6020840151845160408087015190516370a0823160e01b81523060048201526001600160a01b0393841693636505e65e939216906370a0823190602401602060405180830381865afa158015612241573d6000803e3d6000fd5b505050506040513d601f19601f8201168201806040525081019061226591906153d1565b60608801516040516370a0823160e01b81523060048201526001600160a01b03909116906370a0823190602401602060405180830381865afa1580156122af573d6000803e3d6000fd5b505050506040513d601f19601f820116820180604052508101906122d391906153d1565b8b8b306040518763ffffffff1660e01b81526004016122f796959493929190615ac9565b6060604051808303816000875af1158015612316573d6000803e3d6000fd5b505050506040513d601f19601f8201168201806040525081019061233a919061538c565b609a5550506040805160808101808352918601516370a0823160e01b9092523060848201529081906001600160a01b03166370a0823160a48301602060405180830381865afa158015612391573d6000803e3d6000fd5b505050506040513d601f19601f820116820180604052508101906123b591906153d1565b815260608601516040516370a0823160e01b81523060048201526020909201916001600160a01b03909116906370a0823190602401602060405180830381865afa158015612407573d6000803e3d6000fd5b505050506040513d601f19601f8201168201806040525081019061242b91906153d1565b815260200161243960355490565b8152436020918201528151609b55810151609c55604080820151609d55606090910151609e5560985490518d91907faf62d6e59ad2e54c778a490827e6cb28b1d30794092c7367fdbb261b11de033690600090a350505060989890985550506001606555505050505050565b60008060006099609854815481106124bf576124bf6152ca565b6000918252602080832060408051608081018252600494850290920180546001600160a01b0390811680855260018301548216958501869052600283015482168585015260039092015416606084015290516328dee51f60e11b815291955084936351bdca3e92612534923092909101615066565b606060405180830381865afa158015612551573d6000803e3d6000fd5b505050506040513d601f19601f82011682018060405250810190612575919061538c565b9250925050600061259b876001600160a01b031660009081526033602052604090205490565b905080156126995760006125ae60355490565b9050806125bb8584615b01565b6125c59190615b20565b9650806125d28484615b01565b6125dc9190615b20565b609d549096501561269757609d54609b546001600160a01b038a166000908152609f60209081526040808320609e54845290915290205461261d90856153ba565b6126279190615b01565b6126319190615b20565b61263b908861534a565b609d54609c546001600160a01b038b166000908152609f60209081526040808320609e548452909152902054929950909161267690856153ba565b6126809190615b01565b61268a9190615b20565b612694908761534a565b95505b505b50505050915091565b60008060006099609854815481106126bc576126bc6152ca565b600091825260209182902060408051608081018252600493840290920180546001600160a01b0390811680855260018301548216968501879052600283015482168585015260039092015416606084015290516328dee51f60e11b81529194506351bdca3e9261272f9230929101615066565b606060405180830381865afa15801561274c573d6000803e3d6000fd5b505050506040513d601f19601f82011682018060405250810190612770919061538c565b60408481015190516370a0823160e01b81523060048201529296509094506001600160a01b031691506370a0823190602401602060405180830381865afa1580156127bf573d6000803e3d6000fd5b505050506040513d601f19601f820116820180604052508101906127e391906153d1565b6127ed908461534a565b60608201516040516370a0823160e01b81523060048201529194506001600160a01b0316906370a0823190602401602060405180830381865afa158015612838573d6000803e3d6000fd5b505050506040513d601f19601f8201168201806040525081019061285c91906153d1565b612866908361534a565b9150509091565b609754600090819081906001600160a01b0316331461289e5760405162461bcd60e51b81526004016107a590615362565b60a260009054906101000a90046001600160a01b03166001600160a01b0316635c975abb6040518163ffffffff1660e01b8152600401602060405180830381865afa1580156128f1573d6000803e3d6000fd5b505050506040513d601f19601f820116820180604052508101906129159190615222565b156129325760405162461bcd60e51b81526004016107a590615244565b600260655414156129555760405162461bcd60e51b81526004016107a59061526e565b6002606555609854891461297b5760405162461bcd60e51b81526004016107a5906152a5565b6000609960985481548110612992576129926152ca565b600091825260209182902060408051608081018252600490930290910180546001600160a01b03908116845260018201548116948401949094526002810154841691830182905260030154909216606082015291506129f39033308c6140ba565b6060810151612a0d906001600160a01b031633308b6140ba565b60208101518151604051633282f32f60e11b81526000926001600160a01b031691636505e65e91612a4b91908e908e908e908e903090600401615ac9565b6060604051808303816000875af1158015612a6a573d6000803e3d6000fd5b505050506040513d601f19601f82011682018060405250810190612a8e919061538c565b91965094509050612a9e8661412b565b9250848a1115612acb57612acb33612ab6878d6153ba565b60408501516001600160a01b031691906142be565b83891115612af657612af633612ae1868c6153ba565b60608501516001600160a01b031691906142be565b60985460408051878152602081018790527fcf292c3ff7d54582b495c8f5feaf2d6a840141d3b45b762ce150ae9328c6a278910160405180910390a26098546040518281526001600160a01b038816913391600080516020615cf28339815191529060200160405180910390a45050600160658190555096509650969350505050565b606060378054610671906151e7565b6000806000609960985481548110612ba257612ba26152ca565b600091825260209182902060408051608081018252600490930290910180546001600160a01b0390811684526001820154811694840194909452600281015484169183018290526003015490921660609091018190529094909350915050565b60003381612c108286613be0565b905083811015612c705760405162461bcd60e51b815260206004820152602560248201527f45524332303a2064656372656173656420616c6c6f77616e63652062656c6f77604482015264207a65726f60d81b60648201526084016107a5565b612c7d8286868403613ce7565b506001949350505050565b600033610702818585614367565b60998181548110612ca657600080fd5b600091825260209091206004909102018054600182015460028301546003909301546001600160a01b039283169450908216928216911684565b6000612cec6001614540565b90508015612d04576000805461ff0019166101001790555b6001600160a01b038216612d4e5760405162461bcd60e51b81526020600482015260116024820152704241445f42414e58455f4144445245535360781b60448201526064016107a5565b60028410801590612d60575060328411155b612d9d5760405162461bcd60e51b815260206004820152600e60248201526d10905117d413d3d317d0d3d5539560921b60448201526064016107a5565b612df960405180604001604052806016815260200175554e4f2d42616e78652d4175746f537472617465677960501b8152506040518060400160405280600c81526020016b0554e4f2d42414e58452d4c560a41b8152506145cd565b612e01614602565b60005b848110156133ae576000868683818110612e2057612e206152ca565b9050604002016020016020810190612e389190614ff4565b6001600160a01b031663450efe21888885818110612e5857612e586152ca565b612e6e9260206040909202019081019150614ff4565b6040516001600160e01b031960e084901b1681526001600160a01b039091166004820152602401600060405180830381865afa158015612eb2573d6000803e3d6000fd5b505050506040513d6000823e601f3d908101601f19168201604052612eda9190810190615b42565b905060006040518060800160405280898986818110612efb57612efb6152ca565b612f119260206040909202019081019150614ff4565b6001600160a01b03168152602001898986818110612f3157612f316152ca565b9050604002016020016020810190612f499190614ff4565b6001600160a01b0316815260200183600081518110612f6a57612f6a6152ca565b60200260200101516001600160a01b0316815260200183600181518110612f9357612f936152ca565b6020908102919091018101516001600160a01b0390811690925260998054600181018255600091909152835160049182027f72a152ddfb8e864297c917af52ea6c1c68aead0fee1a62673fcc7e0c94979d00810180549286166001600160a01b0319938416179055928501517f72a152ddfb8e864297c917af52ea6c1c68aead0fee1a62673fcc7e0c94979d01840180548287169084161790556040808701517f72a152ddfb8e864297c917af52ea6c1c68aead0fee1a62673fcc7e0c94979d02860180549188169185168217905560608801517f72a152ddfb8e864297c917af52ea6c1c68aead0fee1a62673fcc7e0c94979d0390960180549690971695909316949094179094559151636eb1769f60e11b8152939450909263dd62ed3e926130bf92309201615066565b602060405180830381865afa1580156130dc573d6000803e3d6000fd5b505050506040513d601f19601f8201168201806040525081019061310091906153d1565b61321157604080820151905163095ea7b360e01b815273a32ee1c40594249eb3183c10792bcf573d4da47c600482015260001960248201526001600160a01b039091169063095ea7b3906044016020604051808303816000875af115801561316c573d6000803e3d6000fd5b505050506040513d601f19601f820116820180604052508101906131909190615222565b506040808201516020830151915163095ea7b360e01b81526001600160a01b039283166004820152600019602482015291169063095ea7b3906044016020604051808303816000875af11580156131eb573d6000803e3d6000fd5b505050506040513d601f19601f8201168201806040525081019061320f9190615222565b505b80606001516001600160a01b031663dd62ed3e3083602001516040518363ffffffff1660e01b8152600401613247929190615066565b602060405180830381865afa158015613264573d6000803e3d6000fd5b505050506040513d601f19601f8201168201806040525081019061328891906153d1565b61339957606081015160405163095ea7b360e01b815273a32ee1c40594249eb3183c10792bcf573d4da47c600482015260001960248201526001600160a01b039091169063095ea7b3906044016020604051808303816000875af11580156132f4573d6000803e3d6000fd5b505050506040513d601f19601f820116820180604052508101906133189190615222565b506060810151602082015160405163095ea7b360e01b81526001600160a01b039182166004820152600019602482015291169063095ea7b3906044016020604051808303816000875af1158015613373573d6000803e3d6000fd5b505050506040513d601f19601f820116820180604052508101906133979190615222565b505b505080806133a690615bd0565b915050612e04565b50609780546001600160a01b0319166001600160a01b0384169081179091556040516000907f4be5b0d7ef264079a52c66e913760fafaafd4f87f3a5a26e8ab0c1f70b1794c1908290a360a180546001600160a01b0385166001600160a01b03199182161790915543609e5560a2805490911633179055801561346b576000805461ff0019169055604051600181527f7f26b83ff96e1f2b6a682f133852f6798a09c465da95921460cefb38474024989060200160405180910390a15b5050505050565b60975460009081906001600160a01b031633146134a15760405162461bcd60e51b81526004016107a590615362565b60a260009054906101000a90046001600160a01b03166001600160a01b0316635c975abb6040518163ffffffff1660e01b8152600401602060405180830381865afa1580156134f4573d6000803e3d6000fd5b505050506040513d601f19601f820116820180604052508101906135189190615222565b156135355760405162461bcd60e51b81526004016107a590615244565b600260655414156135585760405162461bcd60e51b81526004016107a59061526e565b6002606555609854891461357e5760405162461bcd60e51b81526004016107a5906152a5565b6000609960985481548110613595576135956152ca565b6000918252602080832060408051608081018252600494850290920180546001600160a01b0390811684526001820154811694840194909452600281015484168383018190526003909101549093166060830152516370a0823160e01b815230938101939093529350906370a0823190602401602060405180830381865afa158015613625573d6000803e3d6000fd5b505050506040513d601f19601f8201168201806040525081019061364991906153d1565b60608301516040516370a0823160e01b81523060048201529192506000916001600160a01b03909116906370a0823190602401602060405180830381865afa158015613699573d6000803e3d6000fd5b505050506040513d601f19601f820116820180604052508101906136bd91906153d1565b90506136d46001600160a01b038c1633308d6140ba565b602083015160405163095ea7b360e01b81526001600160a01b039182166004820152602481018c9052908c169063095ea7b3906044016020604051808303816000875af1158015613729573d6000803e3d6000fd5b505050506040513d601f19601f8201168201806040525081019061374d9190615222565b50600083602001516001600160a01b0316636c2b551785600001518e8e8e8e8e306040518863ffffffff1660e01b81526004016137909796959493929190615beb565b60408051808303816000875af11580156137ae573d6000803e3d6000fd5b505050506040513d601f19601f820116820180604052508101906137d29190615310565b90965090506137e08761412b565b9450613801336137f0888e6153ba565b6001600160a01b038f1691906142be565b60408085015190516370a0823160e01b81523060048201526000916001600160a01b0316906370a0823190602401602060405180830381865afa15801561384c573d6000803e3d6000fd5b505050506040513d601f19601f8201168201806040525081019061387091906153d1565b60608601516040516370a0823160e01b81523060048201529192506000916001600160a01b03909116906370a0823190602401602060405180830381865afa1580156138c0573d6000803e3d6000fd5b505050506040513d601f19601f820116820180604052508101906138e491906153d1565b9050848211156138fc576138fc336111f187856153ba565b83811115613912576139123361121c86846153ba565b8d6001600160a01b03166098547f7dec90b6ad667a5215e9d9d72b63c8a746e5752befdaf35a8e99a2f0ad16d8dc8a60405161395091815260200190565b60405180910390a36098546040518481526001600160a01b038b16913391600080516020615cf28339815191529060200160405180910390a4505050505050600160658190555097509795505050505050565b60008060a260009054906101000a90046001600160a01b03166001600160a01b0316635c975abb6040518163ffffffff1660e01b8152600401602060405180830381865afa1580156139f9573d6000803e3d6000fd5b505050506040513d601f19601f82011682018060405250810190613a1d9190615222565b15613a3a5760405162461bcd60e51b81526004016107a590615244565b60026065541415613a5d5760405162461bcd60e51b81526004016107a59061526e565b60026065556098548714613a835760405162461bcd60e51b81526004016107a5906152a5565b6000609960985481548110613a9a57613a9a6152ca565b6000918252602080832060408051608081018252600490940290910180546001600160a01b0390811685526001820154811693850193909352600281015483169184019190915260030154166060820152915080613af88987613e0b565b915091506000613b078a613f5c565b60208501518551604051636c27fc2160e11b81529293506001600160a01b039091169163d84ff84291613b449185908e908e908e906004016152e0565b60408051808303816000875af1158015613b62573d6000803e3d6000fd5b505050506040513d601f19601f82011682018060405250810190613b869190615310565b9096509450613b95838761534a565b9550613ba1828661534a565b94506098547ff0ebf98d9ecd4f11114987b0de79d86c03a9b6e84e74d9503a38acabe0db862a87876040516109fa929190918252602082015260400190565b6001600160a01b03918216600090815260346020908152604080832093909416825291909152205490565b6097546001600160a01b03163314613c355760405162461bcd60e51b81526004016107a590615362565b6001600160a01b038116613c8b5760405162461bcd60e51b815260206004820152601860248201527f5452414e534645525f544f5f5a45524f5f41444452455353000000000000000060448201526064016107a5565b6097546040516001600160a01b038084169216907f4be5b0d7ef264079a52c66e913760fafaafd4f87f3a5a26e8ab0c1f70b1794c190600090a3609780546001600160a01b0319166001600160a01b0392909216919091179055565b6001600160a01b038316613d495760405162461bcd60e51b8152602060048201526024808201527f45524332303a20617070726f76652066726f6d20746865207a65726f206164646044820152637265737360e01b60648201526084016107a5565b6001600160a01b038216613daa5760405162461bcd60e51b815260206004820152602260248201527f45524332303a20617070726f766520746f20746865207a65726f206164647265604482015261737360f01b60648201526084016107a5565b6001600160a01b0383811660008181526034602090815260408083209487168084529482529182902085905590518481527f8c5be1e5ebec7d5bd14f71427d1e84f3dd0314c0f7b2291e5b200ac8c7c3b925910160405180910390a3505050565b336000818152609f60209081526040808320609e5484528252808320549383526033909152812054909182918291613e42916153ba565b905080613e56576000809250925050613f55565b80851115613e62578094505b609d5415613f53576000609960985481548110613e8157613e816152ca565b600091825260209182902060408051608081018252600490930290910180546001600160a01b03908116845260018201548116948401949094526002810154841691830191909152600301549091166060820152609d54609b5491925090613ee99088615b01565b613ef39190615b20565b609d54609c5491955090613f079088615b01565b613f119190615b20565b92508315613f32576040810151613f32906001600160a01b031686866142be565b8215613f51576060810151613f51906001600160a01b031686856142be565b505b505b9250929050565b600080609960985481548110613f7457613f746152ca565b6000918252602080832060408051608081018252600494850290920180546001600160a01b0390811680855260018301548216958501869052600283015482168585015260039092015416606084015290516328dee51f60e11b815291955091926351bdca3e92613fe792309201615066565b606060405180830381865afa158015614004573d6000803e3d6000fd5b505050506040513d601f19601f82011682018060405250810190614028919061538c565b5050905061403560355490565b61403f8286615b01565b6140499190615b20565b92506000831161409b5760405162461bcd60e51b815260206004820152601d60248201527f494e53554646494349454e545f4c49515549444954595f4255524e454400000060448201526064016107a5565b6140a53385614633565b6140af83826153ba565b609a55509092915050565b6040516001600160a01b03808516602483015283166044820152606481018290526141259085906323b872dd60e01b906084015b60408051601f198184030181529190526020810180516001600160e01b03166001600160e01b03199093169290921790915261478d565b50505050565b600080609960985481548110614143576141436152ca565b6000918252602080832060408051608081018252600494850290920180546001600160a01b0390811680855260018301548216958501869052600283015482168585015260039092015416606084015290516328dee51f60e11b815291955091926351bdca3e926141b692309201615066565b606060405180830381865afa1580156141d3573d6000803e3d6000fd5b505050506040513d601f19601f820116820180604052508101906141f7919061538c565b505090506000609a548261420b91906153ba565b9050600061421860355490565b90508061423f5761422b6103e8836153ba565b945061423a60016103e861485f565b614259565b609a5461424c8284615b01565b6142569190615b20565b94505b600085116142a95760405162461bcd60e51b815260206004820152601d60248201527f494e53554646494349454e545f4c49515549444954595f4d494e54454400000060448201526064016107a5565b6142b3868661485f565b5050609a5550919050565b6040516001600160a01b0383166024820152604481018290526142ee90849063a9059cbb60e01b906064016140ee565b505050565b60006142ff8484613be0565b90506000198114614125578181101561435a5760405162461bcd60e51b815260206004820152601d60248201527f45524332303a20696e73756666696369656e7420616c6c6f77616e636500000060448201526064016107a5565b6141258484848403613ce7565b6001600160a01b0383166143cb5760405162461bcd60e51b815260206004820152602560248201527f45524332303a207472616e736665722066726f6d20746865207a65726f206164604482015264647265737360d81b60648201526084016107a5565b6001600160a01b03821661442d5760405162461bcd60e51b815260206004820152602360248201527f45524332303a207472616e7366657220746f20746865207a65726f206164647260448201526265737360e81b60648201526084016107a5565b61443883838361494a565b6001600160a01b038316600090815260336020526040902054818110156144b05760405162461bcd60e51b815260206004820152602660248201527f45524332303a207472616e7366657220616d6f756e7420657863656564732062604482015265616c616e636560d01b60648201526084016107a5565b6001600160a01b038085166000908152603360205260408082208585039055918516815290812080548492906144e790849061534a565b92505081905550826001600160a01b0316846001600160a01b03167fddf252ad1be2c89b69c2b068fc378daa952ba7f163c4a11628f55a4df523b3ef8460405161453391815260200190565b60405180910390a3614125565b60008054610100900460ff1615614587578160ff1660011480156145635750303b155b61457f5760405162461bcd60e51b81526004016107a590615c3c565b506000919050565b60005460ff8084169116106145ae5760405162461bcd60e51b81526004016107a590615c3c565b506000805460ff191660ff92909216919091179055600190565b919050565b600054610100900460ff166145f45760405162461bcd60e51b81526004016107a590615c8a565b6145fe8282614a1c565b5050565b600054610100900460ff166146295760405162461bcd60e51b81526004016107a590615c8a565b614631614a6a565b565b6001600160a01b0382166146935760405162461bcd60e51b815260206004820152602160248201527f45524332303a206275726e2066726f6d20746865207a65726f206164647265736044820152607360f81b60648201526084016107a5565b61469f8260008361494a565b6001600160a01b038216600090815260336020526040902054818110156147135760405162461bcd60e51b815260206004820152602260248201527f45524332303a206275726e20616d6f756e7420657863656564732062616c616e604482015261636560f01b60648201526084016107a5565b6001600160a01b03831660009081526033602052604081208383039055603580548492906147429084906153ba565b90915550506040518281526000906001600160a01b038516907fddf252ad1be2c89b69c2b068fc378daa952ba7f163c4a11628f55a4df523b3ef9060200160405180910390a3505050565b60006147e2826040518060400160405280602081526020017f5361666545524332303a206c6f772d6c6576656c2063616c6c206661696c6564815250856001600160a01b0316614a989092919063ffffffff16565b8051909150156142ee57808060200190518101906148009190615222565b6142ee5760405162461bcd60e51b815260206004820152602a60248201527f5361666545524332303a204552433230206f7065726174696f6e20646964206e6044820152691bdd081cdd58d8d9595960b21b60648201526084016107a5565b6001600160a01b0382166148b55760405162461bcd60e51b815260206004820152601f60248201527f45524332303a206d696e7420746f20746865207a65726f20616464726573730060448201526064016107a5565b6148c16000838361494a565b80603560008282546148d3919061534a565b90915550506001600160a01b0382166000908152603360205260408120805483929061490090849061534a565b90915550506040518181526001600160a01b038316906000907fddf252ad1be2c89b69c2b068fc378daa952ba7f163c4a11628f55a4df523b3ef9060200160405180910390a35050565b6001600160a01b0383166000908152609f60209081526040808320609e5484529091529020548111156149a2576001600160a01b0383166000908152609f60209081526040808320609e5484529091528120556149dd565b6001600160a01b0383166000908152609f60209081526040808320609e548452909152812080548392906149d79084906153ba565b90915550505b6001600160a01b0382166000908152609f60209081526040808320609e54845290915281208054839290614a1290849061534a565b9091555050505050565b600054610100900460ff16614a435760405162461bcd60e51b81526004016107a590615c8a565b8151614a56906036906020850190614c19565b5080516142ee906037906020840190614c19565b600054610100900460ff16614a915760405162461bcd60e51b81526004016107a590615c8a565b6001606555565b6060614aa78484600085614aaf565b949350505050565b606082471015614b105760405162461bcd60e51b815260206004820152602660248201527f416464726573733a20696e73756666696369656e742062616c616e636520666f6044820152651c8818d85b1b60d21b60648201526084016107a5565b6001600160a01b0385163b614b675760405162461bcd60e51b815260206004820152601d60248201527f416464726573733a2063616c6c20746f206e6f6e2d636f6e747261637400000060448201526064016107a5565b600080866001600160a01b03168587604051614b839190615cd5565b60006040518083038185875af1925050503d8060008114614bc0576040519150601f19603f3d011682016040523d82523d6000602084013e614bc5565b606091505b5091509150614bd5828286614be0565b979650505050505050565b60608315614bef575081610dda565b825115614bff5782518084602001fd5b8160405162461bcd60e51b81526004016107a59190614d0a565b828054614c25906151e7565b90600052602060002090601f016020900481019282614c475760008555614c8d565b82601f10614c6057805160ff1916838001178555614c8d565b82800160010185558215614c8d579182015b82811115614c8d578251825591602001919060010190614c72565b50614c99929150614c9d565b5090565b5b80821115614c995760008155600101614c9e565b60005b83811015614ccd578181015183820152602001614cb5565b838111156141255750506000910152565b60008151808452614cf6816020860160208601614cb2565b601f01601f19169290920160200192915050565b602081526000610dda6020830184614cde565b6001600160a01b0381168114614d3257600080fd5b50565b60008060408385031215614d4857600080fd5b8235614d5381614d1d565b946020939093013593505050565b600080600080600060a08688031215614d7957600080fd5b853594506020860135935060408601359250606086013591506080860135614da081614d1d565b809150509295509295909350565b600080600060608486031215614dc357600080fd5b8335614dce81614d1d565b92506020840135614dde81614d1d565b929592945050506040919091013590565b806040810183101561070857600080fd5b600080600080600060a08688031215614e1857600080fd5b8535945060208601356001600160401b03811115614e3557600080fd5b614e4188828901614def565b94505060408601359250606086013591506080860135614da081614d1d565b600080600080600060a08688031215614e7857600080fd5b85359450602086013593506040860135614e9181614d1d565b925060608601356001600160401b03811115614eac57600080fd5b614eb888828901614def565b9250506080860135614da081614d1d565b60008060008060808587031215614edf57600080fd5b843593506020850135925060408501356001600160401b03811115614f0357600080fd5b614f0f87828801614def565b9250506060850135614f2081614d1d565b939692955090935050565b60008083601f840112614f3d57600080fd5b5081356001600160401b03811115614f5457600080fd5b602083019150836020828501011115613f5557600080fd5b600080600080600080600060a0888a031215614f8757600080fd5b8735965060208801356001600160401b0380821115614fa557600080fd5b614fb18b838c01614f2b565b909850965060408a0135915080821115614fca57600080fd5b50614fd78a828b01614f2b565b989b979a5095989597966060870135966080013595509350505050565b60006020828403121561500657600080fd5b8135610dda81614d1d565b60008060008060008060c0878903121561502a57600080fd5b863595506020870135945060408701359350606087013592506080870135915060a087013561505881614d1d565b809150509295509295509295565b6001600160a01b0392831681529116602082015260400190565b60006020828403121561509257600080fd5b5035919050565b600080600080606085870312156150af57600080fd5b84356001600160401b03808211156150c657600080fd5b818701915087601f8301126150da57600080fd5b8135818111156150e957600080fd5b8860208260061b85010111156150fe57600080fd5b6020928301965094505085013561511481614d1d565b91506040850135614f2081614d1d565b600080600080600080600060e0888a03121561513f57600080fd5b87359650602088013561515181614d1d565b95506040880135945060608801356001600160401b0381111561517357600080fd5b61517f8a828b01614def565b9450506080880135925060a0880135915060c088013561519e81614d1d565b8091505092959891949750929550565b600080604083850312156151c157600080fd5b82356151cc81614d1d565b915060208301356151dc81614d1d565b809150509250929050565b600181811c908216806151fb57607f821691505b6020821081141561521c57634e487b7160e01b600052602260045260246000fd5b50919050565b60006020828403121561523457600080fd5b81518015158114610dda57600080fd5b60208082526010908201526f14105554d05093114e8814105554d15160821b604082015260600190565b6020808252601f908201527f5265656e7472616e637947756172643a207265656e7472616e742063616c6c00604082015260600190565b6020808252600b908201526a10905117d413d3d317d25160aa1b604082015260600190565b634e487b7160e01b600052603260045260246000fd5b6001600160a01b039586168152602081019490945260408401929092526060830152909116608082015260a00190565b6000806040838503121561532357600080fd5b505080516020909101519092909150565b634e487b7160e01b600052601160045260246000fd5b6000821982111561535d5761535d615334565b500190565b60208082526010908201526f43414c4c45525f4e4f545f42414e584560801b604082015260600190565b6000806000606084860312156153a157600080fd5b8351925060208401519150604084015190509250925092565b6000828210156153cc576153cc615334565b500390565b6000602082840312156153e357600080fd5b5051919050565b600082604081018360005b60028110156154745783830387528135601e1987360301811261541757600080fd5b8601803560206001600160401b0382111561543157600080fd5b81360389131561544057600080fd5b8186528181840182880137600086830182015298890198601f909101601f19169094018401939290920191506001016153f5565b509095945050505050565b600060018060a01b03808816835260a060208401526154a160a08401886153ea565b6040840196909652606083019490945250911660809091015292915050565b600060018060a01b038088168352866020840152808616604084015260a060608401526154f060a08401866153ea565b91508084166080840152509695505050505050565b600060018060a01b0380871683528560208401526080604084015261552d60808401866153ea565b915080841660608401525095945050505050565b6000808585111561555157600080fd5b8386111561555e57600080fd5b5050820193919092039150565b634e487b7160e01b600052604160045260246000fd5b604051606081016001600160401b03811182821017156155a3576155a361556b565b60405290565b604051608081016001600160401b03811182821017156155a3576155a361556b565b604051601f8201601f191681016001600160401b03811182821017156155f3576155f361556b565b604052919050565b60006001600160401b038211156156145761561461556b565b5060051b60200190565b600082601f83011261562f57600080fd5b81356001600160401b038111156156485761564861556b565b61565b601f8201601f19166020016155cb565b81815284602083860101111561567057600080fd5b816020850160208301376000918101602001919091529392505050565b600082601f83011261569e57600080fd5b813560206156b36156ae836155fb565b6155cb565b828152606092830285018201928282019190878511156156d257600080fd5b8387015b8581101561572b5781818a0312156156ee5760008081fd5b6156f6615581565b813561570181614d1d565b8152818601358682015260408083013561571a81614d1d565b9082015284529284019281016156d6565b5090979650505050505050565b80356145c881614d1d565b60008060008060008060c0878903121561575c57600080fd5b6001600160401b038735111561577157600080fd5b8635870188601f82011261578457600080fd5b6157916156ae82356155fb565b81358082526020808301929160051b8401018b10156157af57600080fd5b602083015b6020843560051b85010181101561586e576001600160401b03813511156157da57600080fd5b803584016080818e03601f190112156157f257600080fd5b6157fa6155a9565b6158076020830135614d1d565b60208201358152604082013560208201526158256060830135614d1d565b606082013560408201526001600160401b036080830135111561584757600080fd5b61585a8e6020608085013585010161561e565b6060820152845250602092830192016157b4565b50975050506001600160401b036020880135111561588b57600080fd5b61589b886020890135890161568d565b945060408701359350606087013592506158b760808801615738565b91506001600160401b0360a088013511156158d157600080fd5b6158e18860a0890135890161561e565b90509295509295509295565b600081518084526020808501945080840160005b8381101561593f57815180516001600160a01b03908116895284820151858a0152604091820151169088015260609096019590820190600101615901565b509495945050505050565b600060c0820160c0835280895180835260e08501915060e08160051b86010192506020808c0160005b838110156159d95787860360df19018552815180516001600160a01b0390811688528482015185890152604080830151909116908801526060908101516080918801829052906159c581890183614cde565b975050509382019390820190600101615973565b5050858403818701525050506159ef81896158ed565b9050866040840152856060840152615a1260808401866001600160a01b03169052565b82810360a0840152615a248185614cde565b9998505050505050505050565b60008060408385031215615a4457600080fd5b82516001600160401b03811115615a5a57600080fd5b8301601f81018513615a6b57600080fd5b80516020615a7b6156ae836155fb565b82815260059290921b83018101918181019088841115615a9a57600080fd5b938201935b83851015615ab857845182529382019390820190615a9f565b969091015195979596505050505050565b6001600160a01b039687168152602081019590955260408501939093526060840191909152608083015290911660a082015260c00190565b6000816000190483118215151615615b1b57615b1b615334565b500290565b600082615b3d57634e487b7160e01b600052601260045260246000fd5b500490565b60006020808385031215615b5557600080fd5b82516001600160401b03811115615b6b57600080fd5b8301601f81018513615b7c57600080fd5b8051615b8a6156ae826155fb565b81815260059190911b82018301908381019087831115615ba957600080fd5b928401925b82841015614bd5578351615bc181614d1d565b82529284019290840190615bae565b6000600019821415615be457615be4615334565b5060010190565b600060018060a01b03808a168352808916602084015287604084015260e06060840152615c1b60e08401886153ea565b608084019690965260a083019490945250911660c090910152949350505050565b6020808252602e908201527f496e697469616c697a61626c653a20636f6e747261637420697320616c72656160408201526d191e481a5b9a5d1a585b1a5e995960921b606082015260800190565b6020808252602b908201527f496e697469616c697a61626c653a20636f6e7472616374206973206e6f74206960408201526a6e697469616c697a696e6760a81b606082015260800190565b60008251615ce7818460208701614cb2565b919091019291505056fe2c0f148b435140de488c1b34647f1511c646f7077e87007bacf22ef9977a16d8a2646970667358221220108551a59fec58d1a1947264990f93269d02db73ccb2a451e9d88e8a1958bf3864736f6c634300080a0033",
  "immutableReferences": {},
  "source": "// SPDX-License-Identifier: MIT\r\npragma solidity 0.8.10;\r\nimport \"../interfaces/IOdosRouter.sol\";\r\nimport \"../interfaces/IUnoAssetRouter.sol\";   \r\nimport \"../interfaces/IUnoAutoStrategyFactory.sol\";\r\nimport '@openzeppelin/contracts-upgradeable/security/ReentrancyGuardUpgradeable.sol';\r\nimport '@openzeppelin/contracts-upgradeable/token/ERC20/ERC20Upgradeable.sol';\r\nimport '@openzeppelin/contracts-upgradeable/token/ERC20/utils/SafeERC20Upgradeable.sol';\r\n\r\ncontract UnoAutoStrategyBanxe is Initializable, ERC20Upgradeable, ReentrancyGuardUpgradeable {\r\n    using SafeERC20Upgradeable for IERC20Upgradeable;\r\n    /**\r\n     * @dev PoolInfo:\r\n     * {assetRouter} - UnoAssetRouter contract.\r\n     * {pool} - Pool address. \r\n     * {tokenA} - Pool's first token address.\r\n     * {tokenB} - Pool's second token address.\r\n     */\r\n    struct _PoolInfo {\r\n        address pool;\r\n        IUnoAssetRouter assetRouter;\r\n    }\r\n\r\n    struct PoolInfo {\r\n        address pool;\r\n        IUnoAssetRouter assetRouter;\r\n        IERC20Upgradeable tokenA;\r\n        IERC20Upgradeable tokenB;\r\n    }\r\n\r\n    /**\r\n     * @dev MoveLiquidityInfo:\r\n     * {leftoverA} - TokenA leftovers after MoveLiquidity() call.\r\n     * {leftoverB} - TokenB leftovers after MoveLiquidity() call. \r\n     * {totalSupply} - totalSupply after MoveLiquidity() call.\r\n     * {block} - MoveLiquidity() call block.\r\n     */\r\n    struct MoveLiquidityInfo {\r\n        uint256 leftoverA;\r\n        uint256 leftoverB;\r\n        uint256 totalSupply;\r\n        uint256 block;\r\n    }\r\n    \r\n    /**\r\n     * @dev Contract Variables:\r\n     * banxe - Banxe account that can make deposits to autostrats.\r\n     * {OdosRouter} - Contract that executes swaps.\r\n\r\n     * {poolID} - Current pool the strategy uses ({pools} index).\r\n     * {pools} - Pools this strategy can use and move liquidity to.\r\n\r\n     * {reserveLP} - LP token reserve.\r\n     * {lastMoveInfo} - Info on last MoveLiquidity() block.\r\n     * {blockedLiquidty} - User's blocked LP tokens. Prevents user from stealing leftover tokens by depositing and exiting before moveLiquidity() has been called.\r\n\r\n     * {accessManager} - Role manager contract.\r\n     * {factory} - The address of AutoStrategyFactory this contract was deployed by.\r\n\r\n     * {MINIMUM_LIQUIDITY} - Ameliorates rounding errors.\r\n     */\r\n\r\n    address public banxe;\r\n    IOdosRouter private constant OdosRouter = IOdosRouter(0xa32EE1C40594249eb3183c10792BcF573D4Da47C);\r\n\r\n    uint256 public poolID;\r\n    PoolInfo[] public pools;\r\n\r\n    uint256 private reserveLP;\r\n    MoveLiquidityInfo private lastMoveInfo;\r\n    mapping(address => mapping(uint256 => uint256)) private blockedLiquidty;\r\n    mapping(address => mapping(uint256 => bool)) private leftoversCollected;\r\n\r\n    IUnoAccessManager public accessManager;\r\n    IUnoAutoStrategyFactory public factory;\r\n\r\n    uint256 private constant MINIMUM_LIQUIDITY = 10**3;\r\n    bytes32 private constant LIQUIDITY_MANAGER_ROLE = keccak256('LIQUIDITY_MANAGER_ROLE');\r\n    address public constant WMATIC = 0x0d500B1d8E8eF31E21C99d1Db9A6444d3ADf1270;\r\n\r\n    event DepositPairTokens(uint256 indexed poolID, uint256 amountA, uint256 amountB);\r\n    event DepositPairTokensETH(uint256 indexed poolID, uint256 amountToken, uint256 amountETH);\r\n    event DepositSingleToken(uint256 indexed poolID, address indexed token, uint256 amount);\r\n    event DepositSingleETH(uint256 indexed poolID, uint256 amountETH);\r\n    // Note: amountLP refers to LP tokens used in farms and staking pools, not UNO-LP this contract is.\r\n    // To get info for UNO-LP use mint/burn events\r\n    event Deposit(uint256 indexed poolID, address indexed from, address indexed recipient, uint256 amountLP);\r\n\r\n    event WithdrawPairTokens(uint256 indexed poolID, uint256 amountA, uint256 amountB);\r\n    event WithdrawPairTokensETH(uint256 indexed poolID, uint256 amountToken, uint256 amountETH);\r\n    event WithdrawSingleToken(uint256 indexed poolID, address indexed token, uint256 amount, uint256 amountA, uint256 amountB);\r\n    event WithdrawSingleETH(uint256 indexed poolID, uint256 amountETH, uint256 amountA, uint256 amountB);\r\n    // Note: amountLP refers to LP tokens used in farms and staking pools, not UNO-LP this contract is.\r\n    // To get info for UNO-LP use mint/burn events\r\n    event Withdraw(uint256 indexed poolID, address indexed from, address indexed recipient, uint256 amountLP);\r\n\r\n    event MoveLiquidity(uint256 indexed previousPoolID, uint256 indexed nextPoolID);\r\n    event BanxeTransferred(address indexed previousBanxe, address indexed newBanxe);\r\n\r\n    modifier whenNotPaused(){\r\n        require(factory.paused() == false, 'PAUSABLE: PAUSED');\r\n        _;\r\n    }\r\n\r\n    modifier onlyBanxe(){\r\n        require(msg.sender == banxe, \"CALLER_NOT_BANXE\");\r\n        _;\r\n    }\r\n\r\n    // ============ Methods ============\r\n    \r\n    receive() external payable {}\r\n\r\n    function initialize(_PoolInfo[] calldata poolInfos, IUnoAccessManager _accessManager, address _banxe) external initializer {\r\n        require (_banxe != address(0), \"BAD_BANXE_ADDRESS\");\r\n        require ((poolInfos.length >= 2) && (poolInfos.length <= 50), 'BAD_POOL_COUNT');\r\n\r\n        __ERC20_init(\"UNO-Banxe-AutoStrategy\", \"UNO-BANXE-LP\");\r\n        __ReentrancyGuard_init();\r\n        \r\n        for (uint256 i = 0; i < poolInfos.length; i++) {\r\n            address[] memory _tokens = IUnoAssetRouter(poolInfos[i].assetRouter).getTokens(poolInfos[i].pool);\r\n            PoolInfo memory pool = PoolInfo({\r\n                pool: poolInfos[i].pool,\r\n                assetRouter: poolInfos[i].assetRouter,\r\n                tokenA: IERC20Upgradeable(_tokens[0]),\r\n                tokenB: IERC20Upgradeable(_tokens[1])\r\n            });\r\n            pools.push(pool);\r\n\r\n            if (pool.tokenA.allowance(address(this), address(pool.assetRouter)) == 0) {\r\n                pool.tokenA.approve(address(OdosRouter), type(uint256).max);\r\n                pool.tokenA.approve(address(pool.assetRouter), type(uint256).max);\r\n            }\r\n            if (pool.tokenB.allowance(address(this), address(pool.assetRouter)) == 0) {\r\n                pool.tokenB.approve(address(OdosRouter), type(uint256).max);\r\n                pool.tokenB.approve(address(pool.assetRouter), type(uint256).max);\r\n            }\r\n        }\r\n\r\n        banxe = _banxe;\r\n        emit BanxeTransferred(address(0), _banxe);\r\n\r\n        accessManager = _accessManager;\r\n        lastMoveInfo.block = block.number;\r\n        factory = IUnoAutoStrategyFactory(msg.sender);\r\n    }\r\n\r\n    /**\r\n     * @dev Deposits tokens in the pools[poolID] pool. Mints tokens representing user share. Emits {Deposit} event.\r\n     * @param pid - Current poolID. Throws revert if moveLiquidity() has been called before the transaction has been mined.\r\n     * @param amountA - Token A amount to deposit.\r\n     * @param amountB  - Token B amount to deposit.\r\n     * @param amountAMin - Bounds the extent to which the B/A price can go up before the transaction reverts.\r\n     * @param amountBMin - Bounds the extent to which the A/B price can go up before the transaction reverts.\r\n     * @param recipient - Address which will receive the deposit.\r\n     \r\n     * @return sentA - Deposited token A amount.\r\n     * @return sentB - Deposited token B amount.\r\n     * @return liquidity - Total liquidity minted for the {recipient}.\r\n     */\r\n    function deposit(uint256 pid, uint256 amountA, uint256 amountB, uint256 amountAMin, uint256 amountBMin, address recipient) onlyBanxe whenNotPaused nonReentrant external returns (uint256 sentA, uint256 sentB, uint256 liquidity) {\r\n        require (pid == poolID, 'BAD_POOL_ID');\r\n        PoolInfo memory pool = pools[poolID];\r\n\r\n        pool.tokenA.safeTransferFrom(msg.sender, address(this), amountA);\r\n        pool.tokenB.safeTransferFrom(msg.sender, address(this), amountB);\r\n\r\n        uint256 amountLP;\r\n        (sentA, sentB, amountLP) = pool.assetRouter.deposit(pool.pool, amountA, amountB, amountAMin, amountBMin, address(this));\r\n        liquidity = mint(recipient);\r\n\r\n        if(amountA > sentA){\r\n            pool.tokenA.safeTransfer(msg.sender, amountA - sentA);\r\n        }\r\n        if(amountB > sentB){\r\n            pool.tokenB.safeTransfer(msg.sender, amountB - sentB);\r\n        }\r\n\r\n        emit DepositPairTokens(poolID, sentA, sentB);\r\n        emit Deposit(poolID, msg.sender, recipient, amountLP); \r\n    }\r\n\r\n    /**\r\n     * @dev Deposits tokens in the pools[poolID] pool. Mints tokens representing user share. Emits {Deposit} event.\r\n     * @param pid - Current poolID. Throws revert if moveLiquidity() has been called before the transaction has been mined.\r\n     * @param amountToken - Token amount to deposit.\r\n     * @param amountTokenMin - Bounds the extent to which the TOKEN/WMATIC price can go up before the transaction reverts.\r\n     * @param amountETHMin - Bounds the extent to which the WMATIC/TOKEN price can go up before the transaction reverts.\r\n     * @param recipient - Address which will receive the deposit.\r\n     \r\n     * @return sentToken - Deposited token amount.\r\n     * @return sentETH - Deposited ETH amount.\r\n     * @return liquidity - Total liquidity minted for the {recipient}.\r\n     */\r\n    function depositETH(uint256 pid, uint256 amountToken, uint256 amountTokenMin, uint256 amountETHMin, address recipient) onlyBanxe whenNotPaused nonReentrant external payable returns (uint256 sentToken, uint256 sentETH, uint256 liquidity) {\r\n        require (pid == poolID, 'BAD_POOL_ID');\r\n        PoolInfo memory pool = pools[poolID];\r\n\r\n        IERC20Upgradeable token;\r\n        if (address(pool.tokenA) == WMATIC) {\r\n            token = pool.tokenB;\r\n        } else if (address(pool.tokenB) == WMATIC) {\r\n            token = pool.tokenA;\r\n        } else {\r\n            revert(\"NOT_WMATIC_POOL\");\r\n        }\r\n        token.safeTransferFrom(msg.sender, address(this), amountToken);\r\n\r\n        uint256 amountLP;\r\n        (sentToken, sentETH, amountLP) = pool.assetRouter.depositETH{value: msg.value}(pool.pool, amountToken, amountTokenMin, amountETHMin, address(this));\r\n        liquidity = mint(recipient);\r\n\r\n        if(amountToken > sentToken){\r\n            token.safeTransfer(msg.sender, amountToken - sentToken);\r\n        }\r\n        if(msg.value > sentETH){\r\n            payable(msg.sender).transfer(msg.value - sentETH);\r\n        }\r\n\r\n        emit DepositPairTokensETH(poolID, sentToken, sentETH);\r\n        emit Deposit(poolID, msg.sender, recipient, amountLP); \r\n    }\r\n\r\n    /**\r\n     * @dev Deposits tokens in the pools[poolID] pool. Mints tokens representing user share. Emits {Deposit} event.\r\n     * @param pid - Current poolID. Throws revert if moveLiquidity() has been called before the transaction has been mined.\r\n     * @param token - Token to deposit.\r\n     * @param amount - {token} amount to deposit.\r\n     * @param swapData - Parameter with which 1inch router is being called with.\r\n     * @param amountAMin - Bounds the extent to which the B/A price can go up before the transaction reverts.\r\n     * @param amountBMin - Bounds the extent to which the A/B price can go up before the transaction reverts.\r\n     * @param recipient - Address which will receive the deposit.\r\n     \r\n     * @return sent - Total {token} amount sent to the farm. NOTE: Returns dust left from swap in {token}, but if A/B amounts are not correct also returns dust in pool's tokens.\r\n     * @return liquidity - Total liquidity minted for the {recipient}.\r\n     */\r\n    function depositSingleAsset(uint256 pid, address token, uint256 amount, bytes[2] calldata swapData, uint256 amountAMin, uint256 amountBMin, address recipient) onlyBanxe whenNotPaused nonReentrant external returns (uint256 sent, uint256 liquidity) {\r\n        require (pid == poolID, 'BAD_POOL_ID');\r\n        PoolInfo memory pool = pools[poolID];\r\n\r\n        uint256 balanceA = pool.tokenA.balanceOf(address(this));\r\n        uint256 balanceB = pool.tokenB.balanceOf(address(this));\r\n\r\n        IERC20Upgradeable(token).safeTransferFrom(msg.sender, address(this), amount);\r\n        IERC20Upgradeable(token).approve(address(pool.assetRouter), amount);\r\n\r\n        uint256 amountLP;\r\n        (sent, amountLP) = pool.assetRouter.depositSingleAsset(pool.pool, token, amount, swapData, amountAMin, amountBMin, address(this));\r\n        liquidity = mint(recipient);\r\n\r\n        IERC20Upgradeable(token).safeTransfer(msg.sender, amount - sent);\r\n        uint256 _balanceA = pool.tokenA.balanceOf(address(this));\r\n        uint256 _balanceB = pool.tokenB.balanceOf(address(this));\r\n        if(_balanceA > balanceA){\r\n            pool.tokenA.safeTransfer(msg.sender, _balanceA - balanceA);\r\n        }\r\n        if(_balanceB > balanceB){\r\n            pool.tokenB.safeTransfer(msg.sender, _balanceB - balanceB);\r\n        }\r\n\r\n        emit DepositSingleToken(poolID, token, sent);\r\n        emit Deposit(poolID, msg.sender, recipient, amountLP);\r\n    }\r\n\r\n    /**\r\n     * @dev Deposits tokens in the pools[poolID] pool. Mints tokens representing user share. Emits {Deposit} event.\r\n     * @param pid - Current poolID. Throws revert if moveLiquidity() has been called before the transaction has been mined.\r\n     * @param swapData - Parameter with which 1inch router is being called with. NOTE: Use WMATIC as toToken.\r\n     * @param amountAMin - Bounds the extent to which the B/A price can go up before the transaction reverts.\r\n     * @param amountBMin - Bounds the extent to which the A/B price can go up before the transaction reverts.\r\n     * @param recipient - Address which will receive the deposit.\r\n     \r\n     * @return sentETH - Total MATIC amount sent to the farm. NOTE: Returns dust left from swap in MATIC, but if A/B amount are not correct also returns dust in pool's tokens.\r\n     * @return liquidity - Total liquidity minted for the {recipient}.\r\n     */\r\n    function depositSingleETH(uint256 pid, bytes[2] calldata swapData, uint256 amountAMin, uint256 amountBMin, address recipient) onlyBanxe whenNotPaused nonReentrant external payable returns (uint256 sentETH, uint256 liquidity) {\r\n        require (pid == poolID, 'BAD_POOL_ID');\r\n        PoolInfo memory pool = pools[poolID];\r\n\r\n        uint256 balanceA = pool.tokenA.balanceOf(address(this));\r\n        uint256 balanceB = pool.tokenB.balanceOf(address(this));\r\n\r\n        uint256 amountLP;\r\n        (sentETH, amountLP) = pool.assetRouter.depositSingleETH{value: msg.value}(pool.pool, swapData, amountAMin, amountBMin, address(this));\r\n        liquidity = mint(recipient);\r\n\r\n        payable(msg.sender).transfer(msg.value - sentETH);\r\n        uint256 _balanceA = pool.tokenA.balanceOf(address(this));\r\n        uint256 _balanceB = pool.tokenB.balanceOf(address(this));\r\n        if(_balanceA > balanceA){\r\n            pool.tokenA.safeTransfer(msg.sender, _balanceA - balanceA);\r\n        }\r\n        if(_balanceB > balanceB){\r\n            pool.tokenB.safeTransfer(msg.sender, _balanceB - balanceB);\r\n        }\r\n\r\n        emit DepositSingleETH(poolID, sentETH);\r\n        emit Deposit(poolID, msg.sender, recipient, amountLP); \r\n    }\r\n\r\n    /**\r\n     * @dev Withdraws tokens from the {pools[poolID]} pool and sends them to the recipient. Burns tokens representing user share. Emits {Withdraw} event.\r\n     * @param pid - Current poolID. Throws revert if moveLiquidity() has been called before the transaction has been mined.\r\n     * @param liquidity - Liquidity to burn from this user.\r\n     * @param amountAMin - The minimum amount of tokenA that must be received from the pool for the transaction not to revert.\r\n     * @param amountBMin - The minimum amount of tokenB that must be received from the pool for the transaction not to revert.\r\n     * @param recipient - Address which will receive withdrawn tokens.\r\n     \r\n     * @return amountA - Token A amount sent to the {recipient}.\r\n     * @return amountB - Token B amount sent to the {recipient}.\r\n     */\r\n    function withdraw(uint256 pid, uint256 liquidity, uint256 amountAMin, uint256 amountBMin, address recipient) whenNotPaused nonReentrant external returns (uint256 amountA, uint256 amountB) {\r\n        require (pid == poolID, 'BAD_POOL_ID');\r\n        PoolInfo memory pool = pools[poolID];\r\n\r\n        (uint256 leftoverA, uint256 leftoverB) = collectLeftovers(liquidity, recipient);\r\n\r\n        uint256 amountLP = burn(liquidity);\r\n        (amountA, amountB) = pool.assetRouter.withdraw(pool.pool, amountLP, amountAMin, amountBMin, recipient);\r\n\r\n        amountA += leftoverA;\r\n        amountB += leftoverB;\r\n\r\n        emit WithdrawPairTokens(poolID, amountA, amountB);\r\n        emit Withdraw(poolID, msg.sender, recipient, amountLP);\r\n    }\r\n\r\n    /**\r\n     * @dev Withdraws tokens from the {pools[poolID]} pool and sends them to the recipient. Burns tokens representing user share. Emits {Withdraw} event.\r\n     * @param pid - Current poolID. Throws revert if moveLiquidity() has been called before the transaction has been mined.\r\n     * @param liquidity - Liquidity to burn from this user.\r\n     * @param amountTokenMin - The minimum amount of tokenA that must be received from the pool for the transaction not to revert.\r\n     * @param amountETHMin - The minimum amount of tokenB that must be received from the pool for the transaction not to revert.\r\n     * @param recipient - Address which will receive withdrawn tokens.\r\n     \r\n     * @return amountToken - Token amount sent to the {recipient}.\r\n     * @return amountETH - MATIC amount sent to the {recipient}.\r\n     */\r\n    function withdrawETH(uint256 pid, uint256 liquidity, uint256 amountTokenMin, uint256 amountETHMin, address recipient) whenNotPaused nonReentrant external returns (uint256 amountToken, uint256 amountETH) {\r\n        require (pid == poolID, 'BAD_POOL_ID');\r\n        PoolInfo memory pool = pools[poolID];\r\n\r\n        (uint256 leftoverA, uint256 leftoverB) = collectLeftovers(liquidity, recipient);\r\n\r\n        uint256 amountLP = burn(liquidity);\r\n        (amountToken, amountETH) = pool.assetRouter.withdrawETH(pool.pool, amountLP, amountTokenMin, amountETHMin, recipient);\r\n\r\n        if (address(pool.tokenA) == WMATIC) {\r\n            amountETH += leftoverA;\r\n            amountToken += leftoverB;\r\n        } else if (address(pool.tokenB) == WMATIC) {\r\n            amountToken += leftoverA;\r\n            amountETH += leftoverB;\r\n        } else {\r\n            revert(\"NOT_WMATIC_POOL\");\r\n        }\r\n        \r\n        emit WithdrawPairTokensETH(poolID, amountToken, amountETH);\r\n        emit Withdraw(poolID, msg.sender, recipient, amountLP); \r\n    }\r\n\r\n    /**\r\n     * @dev Withdraws tokens from the {pools[poolID]} pool and sends them to the recipient. Burns tokens representing user share. Emits {Withdraw} event.\r\n     * @param pid - Current poolID. Throws revert if moveLiquidity() has been called before the transaction has been mined.\r\n     * @param liquidity - Liquidity to burn from this user.\r\n     * @param token - Address of a token to exit the pool with.\r\n     * @param swapData - Parameter with which 1inch router is being called with.\r\n     * @param recipient - Address which will receive withdrawn tokens.\r\n     \r\n     * @return amountToken - {token} amount sent to the {recipient}.\r\n     * @return amountA - Token A dust sent to the {recipient}.\r\n     * @return amountB - Token B dust sent to the {recipient}.\r\n     */\r\n    function withdrawSingleAsset(uint256 pid, uint256 liquidity, address token, bytes[2] calldata swapData, address recipient) whenNotPaused nonReentrant external returns (uint256 amountToken, uint256 amountA, uint256 amountB) {\r\n        require (pid == poolID, 'BAD_POOL_ID');\r\n        PoolInfo memory pool = pools[poolID];\r\n\r\n        (uint256 leftoverA, uint256 leftoverB) = collectLeftovers(liquidity, recipient);\r\n\r\n        uint256 amountLP = burn(liquidity);\r\n        (amountToken, amountA, amountB) = pool.assetRouter.withdrawSingleAsset(pool.pool, amountLP, token, swapData, recipient);\r\n\r\n        amountA += leftoverA;\r\n        amountB += leftoverB;\r\n\r\n        emit WithdrawSingleToken(poolID, token, amountToken, amountA, amountB);\r\n        emit Withdraw(poolID, msg.sender, recipient, amountLP); \r\n    }\r\n\r\n    /**\r\n     * @dev Withdraws tokens from the {pools[poolID]} pool and sends them to the recipient. Burns tokens representing user share. Emits {Withdraw} event.\r\n     * @param pid - Current poolID. Throws revert if moveLiquidity() has been called before the transaction has been mined.\r\n     * @param liquidity - Liquidity to burn from this user.\r\n     * @param swapData - Parameter with which 1inch router is being called with.\r\n     * @param recipient - Address which will receive withdrawn tokens.\r\n     \r\n     * @return amountETH - MATIC amount sent to the {recipient}.\r\n     * @return amountA - Token A dust sent to the {recipient}.\r\n     * @return amountB - Token B dust sent to the {recipient}.\r\n     */\r\n    function withdrawSingleETH(uint256 pid, uint256 liquidity, bytes[2] calldata swapData, address recipient) whenNotPaused nonReentrant external returns (uint256 amountETH, uint256 amountA, uint256 amountB) {\r\n        require (pid == poolID, 'BAD_POOL_ID');\r\n        PoolInfo memory pool = pools[poolID];\r\n\r\n        (uint256 leftoverA, uint256 leftoverB) = collectLeftovers(liquidity, recipient);\r\n\r\n        uint256 amountLP = burn(liquidity);\r\n        (amountETH, amountA, amountB) = pool.assetRouter.withdrawSingleETH(pool.pool, amountLP, swapData, recipient);\r\n\r\n        amountA += leftoverA;\r\n        amountB += leftoverB;\r\n\r\n        emit WithdrawSingleETH(poolID, amountETH, amountA, amountB);\r\n        emit Withdraw(poolID, msg.sender, recipient, amountLP); \r\n    }\r\n\r\n    /**\r\n     * @dev Collects leftover tokens left from moveLiquidity() function.\r\n     * @param recipient - Address which will receive leftover tokens.\r\n     \r\n     * @return leftoverA - Token A amount sent to the {recipient}.\r\n     * @return leftoverB - Token B amount sent to the {recipient}.\r\n     */\r\n    function collectLeftovers(uint256 liquidity, address recipient) internal returns (uint256 leftoverA, uint256 leftoverB){\r\n        uint256 availiableLiquidity = balanceOf(msg.sender) - blockedLiquidty[msg.sender][lastMoveInfo.block];\r\n        if(availiableLiquidity == 0){\r\n            return (0, 0);\r\n        }\r\n        if(liquidity > availiableLiquidity){\r\n            liquidity = availiableLiquidity;\r\n        }\r\n\r\n        if(lastMoveInfo.totalSupply != 0){\r\n            PoolInfo memory pool = pools[poolID];\r\n            leftoverA = liquidity * lastMoveInfo.leftoverA / lastMoveInfo.totalSupply;\r\n            leftoverB = liquidity * lastMoveInfo.leftoverB / lastMoveInfo.totalSupply;\r\n            if(leftoverA > 0){\r\n                pool.tokenA.safeTransfer(recipient, leftoverA);\r\n            }\r\n            if(leftoverB > 0){\r\n                pool.tokenB.safeTransfer(recipient, leftoverB);\r\n            }\r\n        }\r\n    }\r\n\r\n    /**\r\n     * @dev Moves liquidity from {pools[poolID]} to {pools[_poolID]}. Emits {MoveLiquidity} event.\r\n     * @param _poolID - Pool ID to move liquidity to.\r\n     * @param swapAData - Data for tokenA swap.\r\n     * @param swapBData - Data for tokenB swap.\r\n     * @param amountAMin - The minimum amount of tokenA that must be deposited in {pools[_poolID]} for the transaction not to revert.\r\n     * @param amountBMin - The minimum amount of tokenB that must be deposited in {pools[_poolID]} for the transaction not to revert.\r\n     *\r\n     * Note: This function can only be called by LiquidityManager.\r\n     */\r\n    function moveLiquidity(uint256 _poolID, bytes calldata swapAData, bytes calldata swapBData, uint256 amountAMin, uint256 amountBMin) whenNotPaused nonReentrant external {\r\n        require(accessManager.hasRole(LIQUIDITY_MANAGER_ROLE, msg.sender), 'CALLER_NOT_LIQUIDITY_MANAGER');\r\n        require(totalSupply() != 0, 'NO_LIQUIDITY');\r\n        require(lastMoveInfo.block != block.number, 'CANT_CALL_ON_THE_SAME_BLOCK');\r\n        require((_poolID < pools.length) && (_poolID != poolID), 'BAD_POOL_ID');\r\n\r\n        PoolInfo memory currentPool = pools[poolID];\r\n        PoolInfo memory newPool = pools[_poolID];\r\n\r\n        (uint256 _totalDeposits,,) = currentPool.assetRouter.userStake(address(this), currentPool.pool);\r\n        currentPool.assetRouter.withdraw(currentPool.pool, _totalDeposits, 0, 0, address(this));\r\n\r\n        uint256 tokenABalance = currentPool.tokenA.balanceOf(address(this));\r\n        uint256 tokenBBalance = currentPool.tokenB.balanceOf(address(this));\r\n\r\n        if(currentPool.tokenA != newPool.tokenA){\r\n            (\r\n                IOdosRouter.inputToken[] memory inputs, \r\n                IOdosRouter.outputToken[] memory outputs, \r\n                ,\r\n                uint256 valueOutMin,\r\n                address executor,\r\n                bytes memory pathDefinition\r\n            ) = abi.decode(swapAData[4:], (IOdosRouter.inputToken[],IOdosRouter.outputToken[],uint256,uint256,address,bytes));\r\n\r\n            require((inputs.length == 1) && (outputs.length == 1), 'BAD_SWAP_A_TOKENS_LENGTH');\r\n            require(inputs[0].tokenAddress == address(currentPool.tokenA), 'BAD_SWAP_A_INPUT_TOKEN');\r\n            require(outputs[0].tokenAddress == address(newPool.tokenA), 'BAD_SWAP_A_OUTPUT_TOKEN');\r\n\r\n            inputs[0].amountIn = tokenABalance;\r\n            OdosRouter.swap(inputs, outputs, type(uint256).max, valueOutMin, executor, pathDefinition);\r\n        }\r\n\r\n        if(currentPool.tokenB != newPool.tokenB){\r\n            (\r\n                IOdosRouter.inputToken[] memory inputs,\r\n                IOdosRouter.outputToken[] memory outputs,\r\n                ,\r\n                uint256 valueOutMin,\r\n                address executor,\r\n                bytes memory pathDefinition\r\n            ) = abi.decode(swapBData[4:], (IOdosRouter.inputToken[],IOdosRouter.outputToken[],uint256,uint256,address,bytes));\r\n\r\n            require((inputs.length == 1) && (outputs.length == 1), 'BAD_SWAP_B_TOKENS_LENGTH');\r\n            require(inputs[0].tokenAddress == address(currentPool.tokenB), 'BAD_SWAP_B_INPUT_TOKEN');\r\n            require(outputs[0].tokenAddress == address(newPool.tokenB), 'BAD_SWAP_B_OUTPUT_TOKEN');\r\n\r\n            inputs[0].amountIn = tokenBBalance;\r\n            OdosRouter.swap(inputs, outputs, type(uint256).max, valueOutMin, executor, pathDefinition);\r\n        }\r\n        \r\n        (,,reserveLP) = newPool.assetRouter.deposit(newPool.pool, newPool.tokenA.balanceOf(address(this)), newPool.tokenB.balanceOf(address(this)), amountAMin, amountBMin, address(this));\r\n       \r\n        lastMoveInfo = MoveLiquidityInfo({\r\n            leftoverA: newPool.tokenA.balanceOf(address(this)),\r\n            leftoverB: newPool.tokenB.balanceOf(address(this)),\r\n            totalSupply: totalSupply(),\r\n            block: block.number\r\n        });\r\n\r\n        emit MoveLiquidity(poolID, _poolID); \r\n        poolID = _poolID;\r\n    }\r\n\r\n    /**\r\n     * @dev Returns tokens staked by the {_address}. \r\n     * @param _address - The address to check stakes for.\r\n\r\n     * @return stakeA - Token A stake.\r\n     * @return stakeB - Token B stake.\r\n     */\r\n    function userStake(address _address) external view returns (uint256 stakeA, uint256 stakeB) {\r\n        PoolInfo memory pool = pools[poolID];\r\n        (, uint256 balanceA, uint256 balanceB) = pool.assetRouter.userStake(address(this), pool.pool);\r\n\r\n        uint256 _balance = balanceOf(_address);\r\n        if(_balance != 0){\r\n            uint256 _totalSupply = totalSupply();\r\n            stakeA = _balance * balanceA / _totalSupply; \r\n            stakeB = _balance * balanceB / _totalSupply; \r\n            if(lastMoveInfo.totalSupply != 0){\r\n                stakeA += (_balance - blockedLiquidty[_address][lastMoveInfo.block]) * lastMoveInfo.leftoverA / lastMoveInfo.totalSupply;\r\n                stakeB += (_balance - blockedLiquidty[_address][lastMoveInfo.block]) * lastMoveInfo.leftoverB / lastMoveInfo.totalSupply;\r\n            }\r\n        }\r\n    }\r\n        \r\n    /**\r\n     * @dev Returns total amount locked in the pool. \r\n     * @return totalDepositsA - Token A deposits.\r\n     * @return totalDepositsB - Token B deposits.\r\n     */     \r\n    function totalDeposits() external view returns(uint256 totalDepositsA, uint256 totalDepositsB){\r\n        PoolInfo memory pool = pools[poolID];\r\n        (, totalDepositsA, totalDepositsB) = pool.assetRouter.userStake(address(this), pool.pool);\r\n\r\n        // Add leftover tokens.\r\n        totalDepositsA += pool.tokenA.balanceOf(address(this));\r\n        totalDepositsB += pool.tokenB.balanceOf(address(this));\r\n    }\r\n\r\n    /**\r\n     * @dev Returns the number of pools in the strategy. \r\n     */\r\n    function poolsLength() external view returns(uint256){\r\n        return pools.length;\r\n    }\r\n\r\n    /**\r\n     * @dev Returns pair of tokens currently in use. \r\n     */\r\n    function tokens() external view returns(address, address){\r\n        PoolInfo memory pool = pools[poolID];\r\n        return (address(pool.tokenA), address(pool.tokenB));\r\n    }\r\n\r\n    function mint(address to) internal returns (uint256 liquidity){\r\n        PoolInfo memory pool = pools[poolID];\r\n        (uint256 balanceLP,,) = pool.assetRouter.userStake(address(this), pool.pool);\r\n        uint256 amountLP = balanceLP - reserveLP;\r\n\r\n        uint256 _totalSupply = totalSupply();\r\n        if (_totalSupply == 0) {\r\n            liquidity = amountLP - MINIMUM_LIQUIDITY;\r\n            _mint(address(1), MINIMUM_LIQUIDITY);\r\n        } else {\r\n            liquidity = amountLP * _totalSupply / reserveLP;\r\n        }\r\n\r\n        require(liquidity > 0, 'INSUFFICIENT_LIQUIDITY_MINTED');\r\n        _mint(to, liquidity);\r\n\r\n        reserveLP = balanceLP;\r\n    }\r\n\r\n    function burn(uint256 liquidity) internal returns (uint256 amountLP) {\r\n        PoolInfo memory pool = pools[poolID];\r\n        (uint256 balanceLP,,) = pool.assetRouter.userStake(address(this), pool.pool);\r\n\r\n        amountLP = liquidity * balanceLP / totalSupply(); \r\n        require(amountLP > 0, 'INSUFFICIENT_LIQUIDITY_BURNED');\r\n        _burn(msg.sender, liquidity);\r\n\r\n        reserveLP = balanceLP - amountLP;\r\n    }\r\n\r\n    function _beforeTokenTransfer(address from, address to, uint256 amount) internal virtual override {\r\n        super._beforeTokenTransfer(from, to, amount);\r\n\r\n        // Decrease blockedLiquidty from {from} address, but no less then 0.\r\n        if(amount > blockedLiquidty[from][lastMoveInfo.block]){\r\n            blockedLiquidty[from][lastMoveInfo.block] = 0;\r\n        } else {\r\n            blockedLiquidty[from][lastMoveInfo.block] -= amount;\r\n        }\r\n        // Block {to} address from withdrawing their share of leftover tokens immediately.\r\n        blockedLiquidty[to][lastMoveInfo.block] += amount;\r\n    }\r\n\r\n    /**\r\n     * @dev Transfers banxe rights of the contract to a new account (`_banxe`).\r\n     * @param _banxe - Address to transfer banxe rights to.\r\n\r\n     * Note: This function can only be called by Banxe.\r\n     */\r\n    function transferBanxe(address _banxe) external onlyBanxe {\r\n        require(_banxe != address(0), \"TRANSFER_TO_ZERO_ADDRESS\");\r\n        emit BanxeTransferred(banxe, _banxe);\r\n        banxe = _banxe;\r\n    }\r\n}",
  "sourcePath": "C:\\Users\\jugli\\Desktop\\uno\\uno-contracts\\contracts\\autostrategy\\UnoAutoStrategyBanxe.sol",
  "compiler": {
    "name": "solc",
    "version": "0.8.10+commit.fc410830.Emscripten.clang"
  },
  "schemaVersion": "3.4.11",
  "updatedAt": "2023-04-19T11:47:51.505Z",
  "networkType": "ethereum",
  "devdoc": {
    "kind": "dev",
    "methods": {
      "allowance(address,address)": {
        "details": "See {IERC20-allowance}."
      },
      "approve(address,uint256)": {
        "details": "See {IERC20-approve}. NOTE: If `amount` is the maximum `uint256`, the allowance is not updated on `transferFrom`. This is semantically equivalent to an infinite approval. Requirements: - `spender` cannot be the zero address."
      },
      "balanceOf(address)": {
        "details": "See {IERC20-balanceOf}."
      },
      "decimals()": {
        "details": "Returns the number of decimals used to get its user representation. For example, if `decimals` equals `2`, a balance of `505` tokens should be displayed to a user as `5.05` (`505 / 10 ** 2`). Tokens usually opt for a value of 18, imitating the relationship between Ether and Wei. This is the value {ERC20} uses, unless this function is overridden; NOTE: This information is only used for _display_ purposes: it in no way affects any of the arithmetic of the contract, including {IERC20-balanceOf} and {IERC20-transfer}."
      },
      "decreaseAllowance(address,uint256)": {
        "details": "Atomically decreases the allowance granted to `spender` by the caller. This is an alternative to {approve} that can be used as a mitigation for problems described in {IERC20-approve}. Emits an {Approval} event indicating the updated allowance. Requirements: - `spender` cannot be the zero address. - `spender` must have allowance for the caller of at least `subtractedValue`."
      },
      "deposit(uint256,uint256,uint256,uint256,uint256,address)": {
        "details": "Deposits tokens in the pools[poolID] pool. Mints tokens representing user share. Emits {Deposit} event.",
        "params": {
          "amountA": "- Token A amount to deposit.",
          "amountAMin": "- Bounds the extent to which the B/A price can go up before the transaction reverts.",
          "amountB": "- Token B amount to deposit.",
          "amountBMin": "- Bounds the extent to which the A/B price can go up before the transaction reverts.",
          "pid": "- Current poolID. Throws revert if moveLiquidity() has been called before the transaction has been mined.",
          "recipient": "- Address which will receive the deposit."
        },
        "returns": {
          "liquidity": "- Total liquidity minted for the {recipient}.",
          "sentA": "- Deposited token A amount.",
          "sentB": "- Deposited token B amount."
        }
      },
      "depositETH(uint256,uint256,uint256,uint256,address)": {
        "details": "Deposits tokens in the pools[poolID] pool. Mints tokens representing user share. Emits {Deposit} event.",
        "params": {
          "amountETHMin": "- Bounds the extent to which the WMATIC/TOKEN price can go up before the transaction reverts.",
          "amountToken": "- Token amount to deposit.",
          "amountTokenMin": "- Bounds the extent to which the TOKEN/WMATIC price can go up before the transaction reverts.",
          "pid": "- Current poolID. Throws revert if moveLiquidity() has been called before the transaction has been mined.",
          "recipient": "- Address which will receive the deposit."
        },
        "returns": {
          "liquidity": "- Total liquidity minted for the {recipient}.",
          "sentETH": "- Deposited ETH amount.",
          "sentToken": "- Deposited token amount."
        }
      },
      "depositSingleAsset(uint256,address,uint256,bytes[2],uint256,uint256,address)": {
        "details": "Deposits tokens in the pools[poolID] pool. Mints tokens representing user share. Emits {Deposit} event.",
        "params": {
          "amount": "- {token} amount to deposit.",
          "amountAMin": "- Bounds the extent to which the B/A price can go up before the transaction reverts.",
          "amountBMin": "- Bounds the extent to which the A/B price can go up before the transaction reverts.",
          "pid": "- Current poolID. Throws revert if moveLiquidity() has been called before the transaction has been mined.",
          "recipient": "- Address which will receive the deposit.",
          "swapData": "- Parameter with which 1inch router is being called with.",
          "token": "- Token to deposit."
        },
        "returns": {
          "liquidity": "- Total liquidity minted for the {recipient}.",
          "sent": "- Total {token} amount sent to the farm. NOTE: Returns dust left from swap in {token}, but if A/B amounts are not correct also returns dust in pool's tokens."
        }
      },
      "depositSingleETH(uint256,bytes[2],uint256,uint256,address)": {
        "details": "Deposits tokens in the pools[poolID] pool. Mints tokens representing user share. Emits {Deposit} event.",
        "params": {
          "amountAMin": "- Bounds the extent to which the B/A price can go up before the transaction reverts.",
          "amountBMin": "- Bounds the extent to which the A/B price can go up before the transaction reverts.",
          "pid": "- Current poolID. Throws revert if moveLiquidity() has been called before the transaction has been mined.",
          "recipient": "- Address which will receive the deposit.",
          "swapData": "- Parameter with which 1inch router is being called with. NOTE: Use WMATIC as toToken."
        },
        "returns": {
          "liquidity": "- Total liquidity minted for the {recipient}.",
          "sentETH": "- Total MATIC amount sent to the farm. NOTE: Returns dust left from swap in MATIC, but if A/B amount are not correct also returns dust in pool's tokens."
        }
      },
      "increaseAllowance(address,uint256)": {
        "details": "Atomically increases the allowance granted to `spender` by the caller. This is an alternative to {approve} that can be used as a mitigation for problems described in {IERC20-approve}. Emits an {Approval} event indicating the updated allowance. Requirements: - `spender` cannot be the zero address."
      },
      "moveLiquidity(uint256,bytes,bytes,uint256,uint256)": {
        "details": "Moves liquidity from {pools[poolID]} to {pools[_poolID]}. Emits {MoveLiquidity} event.",
        "params": {
          "_poolID": "- Pool ID to move liquidity to.",
          "amountAMin": "- The minimum amount of tokenA that must be deposited in {pools[_poolID]} for the transaction not to revert.",
          "amountBMin": "- The minimum amount of tokenB that must be deposited in {pools[_poolID]} for the transaction not to revert. Note: This function can only be called by LiquidityManager.",
          "swapAData": "- Data for tokenA swap.",
          "swapBData": "- Data for tokenB swap."
        }
      },
      "name()": {
        "details": "Returns the name of the token."
      },
      "poolsLength()": {
        "details": "Returns the number of pools in the strategy. "
      },
      "symbol()": {
        "details": "Returns the symbol of the token, usually a shorter version of the name."
      },
      "tokens()": {
        "details": "Returns pair of tokens currently in use. "
      },
      "totalDeposits()": {
        "details": "Returns total amount locked in the pool. ",
        "returns": {
          "totalDepositsA": "- Token A deposits.",
          "totalDepositsB": "- Token B deposits."
        }
      },
      "totalSupply()": {
        "details": "See {IERC20-totalSupply}."
      },
      "transfer(address,uint256)": {
        "details": "See {IERC20-transfer}. Requirements: - `to` cannot be the zero address. - the caller must have a balance of at least `amount`."
      },
      "transferBanxe(address)": {
        "details": "Transfers banxe rights of the contract to a new account (`_banxe`).",
        "params": {
          "_banxe": "- Address to transfer banxe rights to. Note: This function can only be called by Banxe."
        }
      },
      "transferFrom(address,address,uint256)": {
        "details": "See {IERC20-transferFrom}. Emits an {Approval} event indicating the updated allowance. This is not required by the EIP. See the note at the beginning of {ERC20}. NOTE: Does not update the allowance if the current allowance is the maximum `uint256`. Requirements: - `from` and `to` cannot be the zero address. - `from` must have a balance of at least `amount`. - the caller must have allowance for ``from``'s tokens of at least `amount`."
      },
      "userStake(address)": {
        "details": "Returns tokens staked by the {_address}. ",
        "params": {
          "_address": "- The address to check stakes for."
        },
        "returns": {
          "stakeA": "- Token A stake.",
          "stakeB": "- Token B stake."
        }
      },
      "withdraw(uint256,uint256,uint256,uint256,address)": {
        "details": "Withdraws tokens from the {pools[poolID]} pool and sends them to the recipient. Burns tokens representing user share. Emits {Withdraw} event.",
        "params": {
          "amountAMin": "- The minimum amount of tokenA that must be received from the pool for the transaction not to revert.",
          "amountBMin": "- The minimum amount of tokenB that must be received from the pool for the transaction not to revert.",
          "liquidity": "- Liquidity to burn from this user.",
          "pid": "- Current poolID. Throws revert if moveLiquidity() has been called before the transaction has been mined.",
          "recipient": "- Address which will receive withdrawn tokens."
        },
        "returns": {
          "amountA": "- Token A amount sent to the {recipient}.",
          "amountB": "- Token B amount sent to the {recipient}."
        }
      },
      "withdrawETH(uint256,uint256,uint256,uint256,address)": {
        "details": "Withdraws tokens from the {pools[poolID]} pool and sends them to the recipient. Burns tokens representing user share. Emits {Withdraw} event.",
        "params": {
          "amountETHMin": "- The minimum amount of tokenB that must be received from the pool for the transaction not to revert.",
          "amountTokenMin": "- The minimum amount of tokenA that must be received from the pool for the transaction not to revert.",
          "liquidity": "- Liquidity to burn from this user.",
          "pid": "- Current poolID. Throws revert if moveLiquidity() has been called before the transaction has been mined.",
          "recipient": "- Address which will receive withdrawn tokens."
        },
        "returns": {
          "amountETH": "- MATIC amount sent to the {recipient}.",
          "amountToken": "- Token amount sent to the {recipient}."
        }
      },
      "withdrawSingleAsset(uint256,uint256,address,bytes[2],address)": {
        "details": "Withdraws tokens from the {pools[poolID]} pool and sends them to the recipient. Burns tokens representing user share. Emits {Withdraw} event.",
        "params": {
          "liquidity": "- Liquidity to burn from this user.",
          "pid": "- Current poolID. Throws revert if moveLiquidity() has been called before the transaction has been mined.",
          "recipient": "- Address which will receive withdrawn tokens.",
          "swapData": "- Parameter with which 1inch router is being called with.",
          "token": "- Address of a token to exit the pool with."
        },
        "returns": {
          "amountA": "- Token A dust sent to the {recipient}.",
          "amountB": "- Token B dust sent to the {recipient}.",
          "amountToken": "- {token} amount sent to the {recipient}."
        }
      },
      "withdrawSingleETH(uint256,uint256,bytes[2],address)": {
        "details": "Withdraws tokens from the {pools[poolID]} pool and sends them to the recipient. Burns tokens representing user share. Emits {Withdraw} event.",
        "params": {
          "liquidity": "- Liquidity to burn from this user.",
          "pid": "- Current poolID. Throws revert if moveLiquidity() has been called before the transaction has been mined.",
          "recipient": "- Address which will receive withdrawn tokens.",
          "swapData": "- Parameter with which 1inch router is being called with."
        },
        "returns": {
          "amountA": "- Token A dust sent to the {recipient}.",
          "amountB": "- Token B dust sent to the {recipient}.",
          "amountETH": "- MATIC amount sent to the {recipient}."
        }
      }
    },
    "stateVariables": {
      "banxe": {
        "details": "Contract Variables: banxe - Banxe account that can make deposits to autostrats. {OdosRouter} - Contract that executes swaps. {poolID} - Current pool the strategy uses ({pools} index). {pools} - Pools this strategy can use and move liquidity to. {reserveLP} - LP token reserve. {lastMoveInfo} - Info on last MoveLiquidity() block. {blockedLiquidty} - User's blocked LP tokens. Prevents user from stealing leftover tokens by depositing and exiting before moveLiquidity() has been called. {accessManager} - Role manager contract. {factory} - The address of AutoStrategyFactory this contract was deployed by. {MINIMUM_LIQUIDITY} - Ameliorates rounding errors."
      }
    },
    "version": 1
  },
  "userdoc": {
    "kind": "user",
    "methods": {},
    "version": 1
  }
}