{
  "contractName": "UnoAssetRouterQuickswap",
  "abi": [
    {
      "inputs": [],
      "stateMutability": "nonpayable",
      "type": "constructor"
    },
    {
      "anonymous": false,
      "inputs": [
        {
          "indexed": false,
          "internalType": "address",
          "name": "previousAdmin",
          "type": "address"
        },
        {
          "indexed": false,
          "internalType": "address",
          "name": "newAdmin",
          "type": "address"
        }
      ],
      "name": "AdminChanged",
      "type": "event"
    },
    {
      "anonymous": false,
      "inputs": [
        {
          "indexed": true,
          "internalType": "address",
          "name": "beacon",
          "type": "address"
        }
      ],
      "name": "BeaconUpgraded",
      "type": "event"
    },
    {
      "anonymous": false,
      "inputs": [
        {
          "indexed": true,
          "internalType": "address",
          "name": "lpPool",
          "type": "address"
        },
        {
          "indexed": true,
          "internalType": "address",
          "name": "sender",
          "type": "address"
        },
        {
          "indexed": true,
          "internalType": "address",
          "name": "recipient",
          "type": "address"
        },
        {
          "indexed": false,
          "internalType": "uint256",
          "name": "amount",
          "type": "uint256"
        }
      ],
      "name": "Deposit",
      "type": "event"
    },
    {
      "anonymous": false,
      "inputs": [
        {
          "indexed": true,
          "internalType": "address",
          "name": "lpPool",
          "type": "address"
        },
        {
          "indexed": false,
          "internalType": "uint256",
          "name": "reward",
          "type": "uint256"
        }
      ],
      "name": "Distribute",
      "type": "event"
    },
    {
      "anonymous": false,
      "inputs": [
        {
          "indexed": false,
          "internalType": "uint256",
          "name": "previousFee",
          "type": "uint256"
        },
        {
          "indexed": false,
          "internalType": "uint256",
          "name": "newFee",
          "type": "uint256"
        }
      ],
      "name": "FeeChanged",
      "type": "event"
    },
    {
      "anonymous": false,
      "inputs": [
        {
          "indexed": false,
          "internalType": "uint8",
          "name": "version",
          "type": "uint8"
        }
      ],
      "name": "Initialized",
      "type": "event"
    },
    {
      "anonymous": false,
      "inputs": [
        {
          "indexed": false,
          "internalType": "address",
          "name": "account",
          "type": "address"
        }
      ],
      "name": "Paused",
      "type": "event"
    },
    {
      "anonymous": false,
      "inputs": [
        {
          "indexed": false,
          "internalType": "uint256",
          "name": "previousFee",
          "type": "uint256"
        },
        {
          "indexed": false,
          "internalType": "uint256",
          "name": "newFee",
          "type": "uint256"
        }
      ],
      "name": "SingleAssetEntryFeeChanged",
      "type": "event"
    },
    {
      "anonymous": false,
      "inputs": [
        {
          "indexed": false,
          "internalType": "address",
          "name": "account",
          "type": "address"
        }
      ],
      "name": "Unpaused",
      "type": "event"
    },
    {
      "anonymous": false,
      "inputs": [
        {
          "indexed": true,
          "internalType": "address",
          "name": "implementation",
          "type": "address"
        }
      ],
      "name": "Upgraded",
      "type": "event"
    },
    {
      "anonymous": false,
      "inputs": [
        {
          "indexed": true,
          "internalType": "address",
          "name": "lpPool",
          "type": "address"
        },
        {
          "indexed": true,
          "internalType": "address",
          "name": "sender",
          "type": "address"
        },
        {
          "indexed": true,
          "internalType": "address",
          "name": "recipient",
          "type": "address"
        },
        {
          "indexed": false,
          "internalType": "uint256",
          "name": "amount",
          "type": "uint256"
        }
      ],
      "name": "Withdraw",
      "type": "event"
    },
    {
      "inputs": [],
      "name": "WMATIC",
      "outputs": [
        {
          "internalType": "address",
          "name": "",
          "type": "address"
        }
      ],
      "stateMutability": "view",
      "type": "function"
    },
    {
      "inputs": [],
      "name": "accessManager",
      "outputs": [
        {
          "internalType": "contract IUnoAccessManager",
          "name": "",
          "type": "address"
        }
      ],
      "stateMutability": "view",
      "type": "function"
    },
    {
      "inputs": [],
      "name": "farmFactory",
      "outputs": [
        {
          "internalType": "contract IUnoFarmFactory",
          "name": "",
          "type": "address"
        }
      ],
      "stateMutability": "view",
      "type": "function"
    },
    {
      "inputs": [],
      "name": "fee",
      "outputs": [
        {
          "internalType": "uint256",
          "name": "",
          "type": "uint256"
        }
      ],
      "stateMutability": "view",
      "type": "function"
    },
    {
      "inputs": [],
      "name": "paused",
      "outputs": [
        {
          "internalType": "bool",
          "name": "",
          "type": "bool"
        }
      ],
      "stateMutability": "view",
      "type": "function"
    },
    {
      "inputs": [],
      "name": "proxiableUUID",
      "outputs": [
        {
          "internalType": "bytes32",
          "name": "",
          "type": "bytes32"
        }
      ],
      "stateMutability": "view",
      "type": "function"
    },
    {
      "inputs": [
        {
          "internalType": "address",
          "name": "newImplementation",
          "type": "address"
        }
      ],
      "name": "upgradeTo",
      "outputs": [],
      "stateMutability": "nonpayable",
      "type": "function"
    },
    {
      "inputs": [
        {
          "internalType": "address",
          "name": "newImplementation",
          "type": "address"
        },
        {
          "internalType": "bytes",
          "name": "data",
          "type": "bytes"
        }
      ],
      "name": "upgradeToAndCall",
      "outputs": [],
      "stateMutability": "payable",
      "type": "function"
    },
    {
      "stateMutability": "payable",
      "type": "receive"
    },
    {
      "inputs": [
        {
          "internalType": "address",
          "name": "_accessManager",
          "type": "address"
        },
        {
          "internalType": "address",
          "name": "_farmFactory",
          "type": "address"
        }
      ],
      "name": "initialize",
      "outputs": [],
      "stateMutability": "nonpayable",
      "type": "function"
    },
    {
      "inputs": [
        {
          "internalType": "address",
          "name": "lpStakingPool",
          "type": "address"
        },
        {
          "internalType": "uint256",
          "name": "amountA",
          "type": "uint256"
        },
        {
          "internalType": "uint256",
          "name": "amountB",
          "type": "uint256"
        },
        {
          "internalType": "uint256",
          "name": "amountAMin",
          "type": "uint256"
        },
        {
          "internalType": "uint256",
          "name": "amountBMin",
          "type": "uint256"
        },
        {
          "internalType": "address",
          "name": "recipient",
          "type": "address"
        }
      ],
      "name": "deposit",
      "outputs": [
        {
          "internalType": "uint256",
          "name": "sentA",
          "type": "uint256"
        },
        {
          "internalType": "uint256",
          "name": "sentB",
          "type": "uint256"
        },
        {
          "internalType": "uint256",
          "name": "liquidity",
          "type": "uint256"
        }
      ],
      "stateMutability": "nonpayable",
      "type": "function"
    },
    {
      "inputs": [
        {
          "internalType": "address",
          "name": "lpStakingPool",
          "type": "address"
        },
        {
          "internalType": "uint256",
          "name": "amountToken",
          "type": "uint256"
        },
        {
          "internalType": "uint256",
          "name": "amountTokenMin",
          "type": "uint256"
        },
        {
          "internalType": "uint256",
          "name": "amountETHMin",
          "type": "uint256"
        },
        {
          "internalType": "address",
          "name": "recipient",
          "type": "address"
        }
      ],
      "name": "depositETH",
      "outputs": [
        {
          "internalType": "uint256",
          "name": "sentToken",
          "type": "uint256"
        },
        {
          "internalType": "uint256",
          "name": "sentETH",
          "type": "uint256"
        },
        {
          "internalType": "uint256",
          "name": "liquidity",
          "type": "uint256"
        }
      ],
      "stateMutability": "payable",
      "type": "function"
    },
    {
      "inputs": [
        {
          "internalType": "address",
          "name": "lpStakingPool",
          "type": "address"
        },
        {
          "internalType": "address",
          "name": "token",
          "type": "address"
        },
        {
          "internalType": "uint256",
          "name": "amount",
          "type": "uint256"
        },
        {
          "internalType": "bytes[2]",
          "name": "swapData",
          "type": "bytes[2]"
        },
        {
          "internalType": "uint256",
          "name": "amountAMin",
          "type": "uint256"
        },
        {
          "internalType": "uint256",
          "name": "amountBMin",
          "type": "uint256"
        },
        {
          "internalType": "address",
          "name": "recipient",
          "type": "address"
        }
      ],
      "name": "depositSingleAsset",
      "outputs": [
        {
          "internalType": "uint256",
          "name": "sent",
          "type": "uint256"
        },
        {
          "internalType": "uint256",
          "name": "liquidity",
          "type": "uint256"
        }
      ],
      "stateMutability": "nonpayable",
      "type": "function"
    },
    {
      "inputs": [
        {
          "internalType": "address",
          "name": "lpStakingPool",
          "type": "address"
        },
        {
          "internalType": "bytes[2]",
          "name": "swapData",
          "type": "bytes[2]"
        },
        {
          "internalType": "uint256",
          "name": "amountAMin",
          "type": "uint256"
        },
        {
          "internalType": "uint256",
          "name": "amountBMin",
          "type": "uint256"
        },
        {
          "internalType": "address",
          "name": "recipient",
          "type": "address"
        }
      ],
      "name": "depositSingleETH",
      "outputs": [
        {
          "internalType": "uint256",
          "name": "sentETH",
          "type": "uint256"
        },
        {
          "internalType": "uint256",
          "name": "liquidity",
          "type": "uint256"
        }
      ],
      "stateMutability": "payable",
      "type": "function"
    },
    {
      "inputs": [
        {
          "internalType": "address",
          "name": "lpStakingPool",
          "type": "address"
        },
        {
          "internalType": "uint256",
          "name": "amount",
          "type": "uint256"
        },
        {
          "internalType": "address",
          "name": "recipient",
          "type": "address"
        }
      ],
      "name": "depositLP",
      "outputs": [],
      "stateMutability": "nonpayable",
      "type": "function"
    },
    {
      "inputs": [
        {
          "internalType": "address",
          "name": "lpStakingPool",
          "type": "address"
        },
        {
          "internalType": "uint256",
          "name": "amount",
          "type": "uint256"
        },
        {
          "internalType": "uint256",
          "name": "amountAMin",
          "type": "uint256"
        },
        {
          "internalType": "uint256",
          "name": "amountBMin",
          "type": "uint256"
        },
        {
          "internalType": "bool",
          "name": "withdrawLP",
          "type": "bool"
        },
        {
          "internalType": "address",
          "name": "recipient",
          "type": "address"
        }
      ],
      "name": "withdraw",
      "outputs": [
        {
          "internalType": "uint256",
          "name": "amountA",
          "type": "uint256"
        },
        {
          "internalType": "uint256",
          "name": "amountB",
          "type": "uint256"
        }
      ],
      "stateMutability": "nonpayable",
      "type": "function"
    },
    {
      "inputs": [
        {
          "internalType": "address",
          "name": "lpStakingPool",
          "type": "address"
        },
        {
          "internalType": "uint256",
          "name": "amount",
          "type": "uint256"
        },
        {
          "internalType": "uint256",
          "name": "amountTokenMin",
          "type": "uint256"
        },
        {
          "internalType": "uint256",
          "name": "amountETHMin",
          "type": "uint256"
        },
        {
          "internalType": "address",
          "name": "recipient",
          "type": "address"
        }
      ],
      "name": "withdrawETH",
      "outputs": [
        {
          "internalType": "uint256",
          "name": "amountToken",
          "type": "uint256"
        },
        {
          "internalType": "uint256",
          "name": "amountETH",
          "type": "uint256"
        }
      ],
      "stateMutability": "nonpayable",
      "type": "function"
    },
    {
      "inputs": [
        {
          "internalType": "address",
          "name": "lpStakingPool",
          "type": "address"
        },
        {
          "components": [
            {
              "internalType": "address[]",
              "name": "route",
              "type": "address[]"
            },
            {
              "internalType": "uint256",
              "name": "amountOutMin",
              "type": "uint256"
            }
          ],
          "internalType": "struct IUnoFarmQuickswap.SwapInfo[2]",
          "name": "swapInfos",
          "type": "tuple[2]"
        },
        {
          "components": [
            {
              "internalType": "address[]",
              "name": "route",
              "type": "address[]"
            },
            {
              "internalType": "uint256",
              "name": "amountOutMin",
              "type": "uint256"
            }
          ],
          "internalType": "struct IUnoFarmQuickswap.SwapInfo",
          "name": "feeSwapInfo",
          "type": "tuple"
        },
        {
          "internalType": "address",
          "name": "feeTo",
          "type": "address"
        }
      ],
      "name": "distribute",
      "outputs": [],
      "stateMutability": "nonpayable",
      "type": "function"
    },
    {
      "inputs": [
        {
          "internalType": "address",
          "name": "_address",
          "type": "address"
        },
        {
          "internalType": "address",
          "name": "lpStakingPool",
          "type": "address"
        }
      ],
      "name": "userStake",
      "outputs": [
        {
          "internalType": "uint256",
          "name": "stakeLP",
          "type": "uint256"
        },
        {
          "internalType": "uint256",
          "name": "stakeA",
          "type": "uint256"
        },
        {
          "internalType": "uint256",
          "name": "stakeB",
          "type": "uint256"
        }
      ],
      "stateMutability": "view",
      "type": "function"
    },
    {
      "inputs": [
        {
          "internalType": "address",
          "name": "lpStakingPool",
          "type": "address"
        }
      ],
      "name": "totalDeposits",
      "outputs": [
        {
          "internalType": "uint256",
          "name": "totalDepositsLP",
          "type": "uint256"
        },
        {
          "internalType": "uint256",
          "name": "totalDepositsA",
          "type": "uint256"
        },
        {
          "internalType": "uint256",
          "name": "totalDepositsB",
          "type": "uint256"
        }
      ],
      "stateMutability": "view",
      "type": "function"
    },
    {
      "inputs": [
        {
          "internalType": "address",
          "name": "lpStakingPool",
          "type": "address"
        }
      ],
      "name": "getTokens",
      "outputs": [
        {
          "internalType": "contract IERC20[]",
          "name": "tokens",
          "type": "address[]"
        }
      ],
      "stateMutability": "view",
      "type": "function"
    },
    {
      "inputs": [
        {
          "internalType": "uint256",
          "name": "_fee",
          "type": "uint256"
        }
      ],
      "name": "setFee",
      "outputs": [],
      "stateMutability": "nonpayable",
      "type": "function"
    },
    {
      "inputs": [],
      "name": "pause",
      "outputs": [],
      "stateMutability": "nonpayable",
      "type": "function"
    },
    {
      "inputs": [],
      "name": "unpause",
      "outputs": [],
      "stateMutability": "nonpayable",
      "type": "function"
    }
  ],
  "bytecode": "0x60a0604052306080523480156200001557600080fd5b506200002062000026565b62000156565b6200003260ff62000035565b50565b60008054610100900460ff1615620000ce578160ff1660011480156200006e57506200006c306200014760201b62002ac31760201c565b155b620000c65760405162461bcd60e51b815260206004820152602e60248201526000805160206200473083398151915260448201526d191e481a5b9a5d1a585b1a5e995960921b60648201526084015b60405180910390fd5b506000919050565b60005460ff8084169116106200012d5760405162461bcd60e51b815260206004820152602e60248201526000805160206200473083398151915260448201526d191e481a5b9a5d1a585b1a5e995960921b6064820152608401620000bd565b506000805460ff191660ff92909216919091179055600190565b6001600160a01b03163b151590565b6080516145a26200018e600039600081816106400152818161068001528181610f6301528181610fa301526111a701526145a26000f3fe6080604052600436106101445760003560e01c80635c975abb116100b65780638456cb591161006f5780638456cb591461042d578063ddca3f4314610442578063deb03f4d14610458578063e940325614610478578063fdcb606814610498578063fefa4094146104b857600080fd5b80635c975abb146103775780636505e65e1461039a57806369fe0e2d146103ba5780636c2b5517146103da5780636d25e175146103fa5780637d7956281461041a57600080fd5b8063485cc95511610108578063485cc9551461028c5780634d95cad9146102ac5780634e816aa8146102e65780634f1ef2861461030657806351bdca3e1461031957806352d1902d1461035457600080fd5b80631ec5aa3e146101d05780633659cfe61461020a5780633f4ba83a1461022a578063450efe211461023f57806346dafa2f1461026c57600080fd5b366101cb573360008051602061454d833981519152148061017857503373a5e0829caced8ffdd4de3c43696c57f7d7a678ff145b6101c95760405162461bcd60e51b815260206004820152601c60248201527f4f4e4c595f4143434550545f574d415449435f4f525f524f555445520000000060448201526064015b60405180910390fd5b005b600080fd5b3480156101dc57600080fd5b506101f06101eb366004613af1565b6104cb565b604080519283526020830191909152015b60405180910390f35b34801561021657600080fd5b506101c9610225366004613b58565b610635565b34801561023657600080fd5b506101c9610715565b34801561024b57600080fd5b5061025f61025a366004613b58565b6107cc565b6040516102019190613b75565b34801561027857600080fd5b506101c9610287366004613bc2565b610982565b34801561029857600080fd5b506101c96102a7366004613c04565b610bdc565b3480156102b857600080fd5b506102ce60008051602061454d83398151915281565b6040516001600160a01b039091168152602001610201565b3480156102f257600080fd5b506101c9610301366004613c4e565b610d17565b6101c9610314366004613cf2565b610f58565b34801561032557600080fd5b50610339610334366004613c04565b611029565b60408051938452602084019290925290820152606001610201565b34801561036057600080fd5b5061036961119a565b604051908152602001610201565b34801561038357600080fd5b5060335460ff166040519015158152602001610201565b3480156103a657600080fd5b506103396103b5366004613db6565b61124d565b3480156103c657600080fd5b506101c96103d5366004613e06565b61155c565b3480156103e657600080fd5b506101f06103f5366004613e1f565b6116ef565b34801561040657600080fd5b5060c9546102ce906001600160a01b031681565b6101f0610428366004613eb3565b611b86565b34801561043957600080fd5b506101c9612112565b34801561044e57600080fd5b5061036960cb5481565b34801561046457600080fd5b506101f0610473366004613f2b565b6121c9565b34801561048457600080fd5b50610339610493366004613b58565b6125cc565b3480156104a457600080fd5b5060ca546102ce906001600160a01b031681565b6103396104c6366004613f2b565b612735565b60c95460405163f9d9331d60e01b81526001600160a01b038881166004830152600092839283929091169063f9d9331d90602401602060405180830381865afa15801561051c573d6000803e3d6000fd5b505050506040513d601f19601f820116820180604052508101906105409190613f73565b90506001600160a01b0381166105685760405162461bcd60e51b81526004016101c090613f90565b60405163d563468360e01b81526001600160a01b0382169063d56346839061059e908b908b908b908b9033908c90600401613fb9565b60408051808303816000875af11580156105bc573d6000803e3d6000fd5b505050506040513d601f19601f820116820180604052508101906105e09190613fef565b6040518a815291945092506001600160a01b038581169133918c16907f3115d1449a7b732c986cba18244e897a450f61e1bb8d589cd2e69e6c8924f9f79060200160405180910390a450965096945050505050565b306001600160a01b037f000000000000000000000000000000000000000000000000000000000000000016141561067e5760405162461bcd60e51b81526004016101c090614013565b7f00000000000000000000000000000000000000000000000000000000000000006001600160a01b03166106c76000805160206144e6833981519152546001600160a01b031690565b6001600160a01b0316146106ed5760405162461bcd60e51b81526004016101c09061405f565b6106f681612ad2565b6040805160008082526020820190925261071291839190612bd8565b50565b60ca54604051632474521560e21b81527f65d7a28e3265b37a6474929f336521b332c1681b933f6cb9f3376673440d862a60048201819052336024830152916001600160a01b0316906391d1485490604401602060405180830381865afa158015610784573d6000803e3d6000fd5b505050506040513d601f19601f820116820180604052508101906107a891906140ab565b6107c45760405162461bcd60e51b81526004016101c0906140c8565b610712612d43565b60408051600280825260608083018452926020830190803683370190505090506000826001600160a01b03166372f702f36040518163ffffffff1660e01b8152600401602060405180830381865afa15801561082c573d6000803e3d6000fd5b505050506040513d601f19601f820116820180604052508101906108509190613f73565b9050806001600160a01b0316630dfe16816040518163ffffffff1660e01b8152600401602060405180830381865afa158015610890573d6000803e3d6000fd5b505050506040513d601f19601f820116820180604052508101906108b49190613f73565b826000815181106108c7576108c76140f7565b60200260200101906001600160a01b031690816001600160a01b031681525050806001600160a01b031663d21220a76040518163ffffffff1660e01b8152600401602060405180830381865afa158015610925573d6000803e3d6000fd5b505050506040513d601f19601f820116820180604052508101906109499190613f73565b8260018151811061095c5761095c6140f7565b60200260200101906001600160a01b031690816001600160a01b03168152505050919050565b60335460ff16156109a55760405162461bcd60e51b81526004016101c09061410d565b600082116109c55760405162461bcd60e51b81526004016101c090614137565b60c95460405163f9d9331d60e01b81526001600160a01b038581166004830152600092169063f9d9331d90602401602060405180830381865afa158015610a10573d6000803e3d6000fd5b505050506040513d601f19601f82011682018060405250810190610a349190613f73565b90506001600160a01b038116610ab65760c954604051621849e360e61b81526001600160a01b0386811660048301529091169063061278c0906024016020604051808303816000875af1158015610a8f573d6000803e3d6000fd5b505050506040513d601f19601f82011682018060405250810190610ab39190613f73565b90505b610b2f338285846001600160a01b031663452ed4f16040518163ffffffff1660e01b8152600401602060405180830381865afa158015610afa573d6000803e3d6000fd5b505050506040513d601f19601f82011682018060405250810190610b1e9190613f73565b6001600160a01b0316929190612dd6565b604051636e553f6560e01b8152600481018490526001600160a01b038381166024830152821690636e553f6590604401600060405180830381600087803b158015610b7957600080fd5b505af1158015610b8d573d6000803e3d6000fd5b50505050816001600160a01b0316336001600160a01b0316856001600160a01b031660008051602061450683398151915286604051610bce91815260200190565b60405180910390a450505050565b6000610be86001612e47565b90508015610c00576000805461ff0019166101001790555b6001600160a01b038316610c4b5760405162461bcd60e51b81526020600482015260126024820152712120a22fa0a1a1a2a9a9afa6a0a720a3a2a960711b60448201526064016101c0565b6001600160a01b038216610c945760405162461bcd60e51b815260206004820152601060248201526f4241445f4641524d5f464143544f525960801b60448201526064016101c0565b610c9c612ecf565b60ca80546001600160a01b038086166001600160a01b03199283161790925560c98054928516929091169190911790558015610d12576000805461ff0019169055604051600181527f7f26b83ff96e1f2b6a682f133852f6798a09c465da95921460cefb38474024989060200160405180910390a15b505050565b60335460ff1615610d3a5760405162461bcd60e51b81526004016101c09061410d565b60ca54604051632474521560e21b81527ffbd454f36a7e1a388bd6fc3ab10d434aa4578f811acbbcf33afb1c697486313c60048201819052336024830152916001600160a01b0316906391d1485490604401602060405180830381865afa158015610da9573d6000803e3d6000fd5b505050506040513d601f19601f82011682018060405250810190610dcd91906140ab565b610de95760405162461bcd60e51b81526004016101c0906140c8565b60c95460405163f9d9331d60e01b81526001600160a01b038781166004830152600092169063f9d9331d90602401602060405180830381865afa158015610e34573d6000803e3d6000fd5b505050506040513d601f19601f82011682018060405250810190610e589190613f73565b90506001600160a01b038116610e805760405162461bcd60e51b81526004016101c090613f90565b6040805180820182526001600160a01b03858116825260cb54602083015291516336eeb1dd60e01b81526000928416916336eeb1dd91610ec7918a918a91906004016141fd565b6020604051808303816000875af1158015610ee6573d6000803e3d6000fd5b505050506040513d601f19601f82011682018060405250810190610f0a9190614296565b9050866001600160a01b03167fc1d32ad5cca423e7dda2123dbf8c482f8e77d00b631c06e903a47f2cec1334df82604051610f4791815260200190565b60405180910390a250505050505050565b306001600160a01b037f0000000000000000000000000000000000000000000000000000000000000000161415610fa15760405162461bcd60e51b81526004016101c090614013565b7f00000000000000000000000000000000000000000000000000000000000000006001600160a01b0316610fea6000805160206144e6833981519152546001600160a01b031690565b6001600160a01b0316146110105760405162461bcd60e51b81526004016101c09061405f565b61101982612ad2565b61102582826001612bd8565b5050565b60c95460405163f9d9331d60e01b81526001600160a01b038381166004830152600092839283928392169063f9d9331d90602401602060405180830381865afa15801561107a573d6000803e3d6000fd5b505050506040513d601f19601f8201168201806040525081019061109e9190613f73565b90506001600160a01b0381161561119257604051630103c92b60e01b81526001600160a01b038781166004830152821690630103c92b90602401602060405180830381865afa1580156110f5573d6000803e3d6000fd5b505050506040513d601f19601f820116820180604052508101906111199190614296565b93506000816001600160a01b031663452ed4f16040518163ffffffff1660e01b8152600401602060405180830381865afa15801561115b573d6000803e3d6000fd5b505050506040513d601f19601f8201168201806040525081019061117f9190613f73565b905061118b8186612f00565b9094509250505b509250925092565b6000306001600160a01b037f0000000000000000000000000000000000000000000000000000000000000000161461123a5760405162461bcd60e51b815260206004820152603860248201527f555550535570677261646561626c653a206d757374206e6f742062652063616c60448201527f6c6564207468726f7567682064656c656761746563616c6c000000000000000060648201526084016101c0565b506000805160206144e683398151915290565b600080600061125e60335460ff1690565b1561127b5760405162461bcd60e51b81526004016101c09061410d565b60008811801561128b5750600087115b6112a75760405162461bcd60e51b81526004016101c0906142af565b60c95460405163f9d9331d60e01b81526001600160a01b038b81166004830152600092169063f9d9331d90602401602060405180830381865afa1580156112f2573d6000803e3d6000fd5b505050506040513d601f19601f820116820180604052508101906113169190613f73565b90506001600160a01b0381166113985760c954604051621849e360e61b81526001600160a01b038c811660048301529091169063061278c0906024016020604051808303816000875af1158015611371573d6000803e3d6000fd5b505050506040513d601f19601f820116820180604052508101906113959190613f73565b90505b6000816001600160a01b0316630fc63d106040518163ffffffff1660e01b8152600401602060405180830381865afa1580156113d8573d6000803e3d6000fd5b505050506040513d601f19601f820116820180604052508101906113fc9190613f73565b90506000826001600160a01b0316635f64b55b6040518163ffffffff1660e01b8152600401602060405180830381865afa15801561143e573d6000803e3d6000fd5b505050506040513d601f19601f820116820180604052508101906114629190613f73565b90506114796001600160a01b03831633308e612dd6565b61148e6001600160a01b03821633308d612dd6565b61149d82828d8d8d8d8961313b565b604051636e553f6560e01b8152600481018290526001600160a01b038b81166024830152939950919750955090841690636e553f6590604401600060405180830381600087803b1580156114f057600080fd5b505af1158015611504573d6000803e3d6000fd5b50505050866001600160a01b0316336001600160a01b03168d6001600160a01b03166000805160206145068339815191528760405161154591815260200190565b60405180910390a450505096509650969350505050565b60ca60009054906101000a90046001600160a01b03166001600160a01b03166375b238fc6040518163ffffffff1660e01b8152600401602060405180830381865afa1580156115af573d6000803e3d6000fd5b505050506040513d601f19601f820116820180604052508101906115d39190614296565b60ca54604051632474521560e21b8152600481018390523360248201526001600160a01b03909116906391d1485490604401602060405180830381865afa158015611622573d6000803e3d6000fd5b505050506040513d601f19601f8201168201806040525081019061164691906140ab565b6116625760405162461bcd60e51b81526004016101c0906140c8565b670de0b6b3a76400008211156116a45760405162461bcd60e51b81526020600482015260076024820152664241445f46454560c81b60448201526064016101c0565b8160cb54146110255760cb5460408051918252602082018490527f5fc463da23c1b063e66f9e352006a7fbe8db7223c455dc429e881a2dfe2f94f1910160405180910390a15060cb55565b6000806116fe60335460ff1690565b1561171b5760405162461bcd60e51b81526004016101c09061410d565b6000871161173b5760405162461bcd60e51b81526004016101c090614137565b60c95460405163f9d9331d60e01b81526001600160a01b038b81166004830152600092169063f9d9331d90602401602060405180830381865afa158015611786573d6000803e3d6000fd5b505050506040513d601f19601f820116820180604052508101906117aa9190613f73565b90506001600160a01b03811661182c5760c954604051621849e360e61b81526001600160a01b038c811660048301529091169063061278c0906024016020604051808303816000875af1158015611805573d6000803e3d6000fd5b505050506040513d601f19601f820116820180604052508101906118299190613f73565b90505b6118416001600160a01b038a1633308b612dd6565b60405163095ea7b360e01b8152731111111254eeb25477b68fb85ed929f73a9605826004820152602481018990526001600160a01b038a169063095ea7b3906044016020604051808303816000875af11580156118a2573d6000803e3d6000fd5b505050506040513d601f19601f820116820180604052508101906118c691906140ab565b508792506000806000836001600160a01b0316630fc63d106040518163ffffffff1660e01b8152600401602060405180830381865afa15801561190d573d6000803e3d6000fd5b505050506040513d601f19601f820116820180604052508101906119319190613f73565b90506000846001600160a01b0316635f64b55b6040518163ffffffff1660e01b8152600401602060405180830381865afa158015611973573d6000803e3d6000fd5b505050506040513d601f19601f820116820180604052508101906119979190613f73565b90508c6001600160a01b0316826001600160a01b0316146119e6576000806119d08d825b6020028101906119cb91906142d7565b613350565b90925090506119df818f61433b565b9d50909450505b8c6001600160a01b0316816001600160a01b031614611a2357600080611a0d8d60016119bb565b9092509050611a1c818f61433b565b9d50909350505b8c6001600160a01b0316826001600160a01b03161415611a45578b9350611a8d565b8c6001600160a01b0316816001600160a01b03161415611a67578b9250611a8d565b8b15611a8d57611a778c8861433b565b9650611a8d6001600160a01b038e16338e61342f565b600084118015611a9d5750600083115b611ab95760405162461bcd60e51b81526004016101c0906142af565b611ac8828286868e8e8b61313b565b604051636e553f6560e01b8152600481018290526001600160a01b038c811660248301529199509088169250636e553f659150604401600060405180830381600087803b158015611b1857600080fd5b505af1158015611b2c573d6000803e3d6000fd5b50505050876001600160a01b0316336001600160a01b03168f6001600160a01b031660008051602061450683398151915289604051611b6d91815260200190565b60405180910390a4505050505097509795505050505050565b600080611b9560335460ff1690565b15611bb25760405162461bcd60e51b81526004016101c09061410d565b60003411611bf25760405162461bcd60e51b815260206004820152600d60248201526c1393d7d350551250d7d4d15395609a1b60448201526064016101c0565b60c95460405163f9d9331d60e01b81526001600160a01b038981166004830152600092169063f9d9331d90602401602060405180830381865afa158015611c3d573d6000803e3d6000fd5b505050506040513d601f19601f82011682018060405250810190611c619190613f73565b90506001600160a01b038116611ce35760c954604051621849e360e61b81526001600160a01b038a811660048301529091169063061278c0906024016020604051808303816000875af1158015611cbc573d6000803e3d6000fd5b505050506040513d601f19601f82011682018060405250810190611ce09190613f73565b90505b600034905060008051602061454d8339815191526001600160a01b031663d0e30db0826040518263ffffffff1660e01b81526004016000604051808303818588803b158015611d3157600080fd5b505af1158015611d45573d6000803e3d6000fd5b505060405163095ea7b360e01b8152731111111254eeb25477b68fb85ed929f73a96058260048201526024810185905260008051602061454d833981519152935063095ea7b3925060440190506020604051808303816000875af1158015611db1573d6000803e3d6000fd5b505050506040513d601f19601f82011682018060405250810190611dd591906140ab565b508093506000806000846001600160a01b0316630fc63d106040518163ffffffff1660e01b8152600401602060405180830381865afa158015611e1c573d6000803e3d6000fd5b505050506040513d601f19601f82011682018060405250810190611e409190613f73565b90506000856001600160a01b0316635f64b55b6040518163ffffffff1660e01b8152600401602060405180830381865afa158015611e82573d6000803e3d6000fd5b505050506040513d601f19601f82011682018060405250810190611ea69190613f73565b90506001600160a01b03821660008051602061454d83398151915214611ee957600080611ed38e826119bb565b9092509050611ee2818861433b565b9650909450505b6001600160a01b03811660008051602061454d83398151915214611f2b57600080611f158e60016119bb565b9092509050611f24818861433b565b9650909350505b6001600160a01b03821660008051602061454d8339815191521415611f525784935061201a565b6001600160a01b03811660008051602061454d8339815191521415611f795784925061201a565b841561201a57611f89858961433b565b604051632e1a7d4d60e01b81526004810187905290985060008051602061454d83398151915290632e1a7d4d90602401600060405180830381600087803b158015611fd357600080fd5b505af1158015611fe7573d6000803e3d6000fd5b505060405133925087156108fc02915087906000818181858888f19350505050158015612018573d6000803e3d6000fd5b505b60008411801561202a5750600083115b6120465760405162461bcd60e51b81526004016101c0906142af565b612055828286868f8f8c61313b565b604051636e553f6560e01b8152600481018290526001600160a01b038d81166024830152919a509089169250636e553f659150604401600060405180830381600087803b1580156120a557600080fd5b505af11580156120b9573d6000803e3d6000fd5b50505050886001600160a01b0316336001600160a01b03168e6001600160a01b03166000805160206145068339815191528a6040516120fa91815260200190565b60405180910390a45050505050509550959350505050565b60ca54604051632474521560e21b81527f65d7a28e3265b37a6474929f336521b332c1681b933f6cb9f3376673440d862a60048201819052336024830152916001600160a01b0316906391d1485490604401602060405180830381865afa158015612181573d6000803e3d6000fd5b505050506040513d601f19601f820116820180604052508101906121a591906140ab565b6121c15760405162461bcd60e51b81526004016101c0906140c8565b61071261345f565b60c95460405163f9d9331d60e01b81526001600160a01b038781166004830152600092839283929091169063f9d9331d90602401602060405180830381865afa15801561221a573d6000803e3d6000fd5b505050506040513d601f19601f8201168201806040525081019061223e9190613f73565b90506001600160a01b0381166122665760405162461bcd60e51b81526004016101c090613f90565b6000816001600160a01b0316630fc63d106040518163ffffffff1660e01b8152600401602060405180830381865afa1580156122a6573d6000803e3d6000fd5b505050506040513d601f19601f820116820180604052508101906122ca9190613f73565b90506000826001600160a01b0316635f64b55b6040518163ffffffff1660e01b8152600401602060405180830381865afa15801561230c573d6000803e3d6000fd5b505050506040513d601f19601f820116820180604052508101906123309190613f73565b90506001600160a01b03821660008051602061454d83398151915214156123e75760405163d563468360e01b81526001600160a01b0384169063d563468390612388908c908b908d9060009033903090600401613fb9565b60408051808303816000875af11580156123a6573d6000803e3d6000fd5b505050506040513d601f19601f820116820180604052508101906123ca9190613fef565b955093506123e26001600160a01b038216878761342f565b6124d2565b6001600160a01b03811660008051602061454d83398151915214156124985760405163d563468360e01b81526001600160a01b0384169063d56346839061243d908c908c908c9060009033903090600401613fb9565b60408051808303816000875af115801561245b573d6000803e3d6000fd5b505050506040513d601f19601f8201168201806040525081019061247f9190613fef565b90955093506123e26001600160a01b038316878761342f565b60405162461bcd60e51b815260206004820152600f60248201526e1393d517d5d350551250d7d413d3d3608a1b60448201526064016101c0565b604051632e1a7d4d60e01b81526004810185905260008051602061454d83398151915290632e1a7d4d90602401600060405180830381600087803b15801561251957600080fd5b505af115801561252d573d6000803e3d6000fd5b50506040516001600160a01b038916925086156108fc02915086906000818181858888f19350505050158015612567573d6000803e3d6000fd5b50856001600160a01b0316336001600160a01b03168b6001600160a01b03167f3115d1449a7b732c986cba18244e897a450f61e1bb8d589cd2e69e6c8924f9f78c6040516125b791815260200190565b60405180910390a45050509550959350505050565b60c95460405163f9d9331d60e01b81526001600160a01b038381166004830152600092839283928392169063f9d9331d90602401602060405180830381865afa15801561261d573d6000803e3d6000fd5b505050506040513d601f19601f820116820180604052508101906126419190613f73565b90506001600160a01b0381161561272d57806001600160a01b031663168a48226040518163ffffffff1660e01b8152600401602060405180830381865afa158015612690573d6000803e3d6000fd5b505050506040513d601f19601f820116820180604052508101906126b49190614296565b93506000816001600160a01b031663452ed4f16040518163ffffffff1660e01b8152600401602060405180830381865afa1580156126f6573d6000803e3d6000fd5b505050506040513d601f19601f8201168201806040525081019061271a9190613f73565b90506127268186612f00565b9094509250505b509193909250565b600080600061274660335460ff1690565b156127635760405162461bcd60e51b81526004016101c09061410d565b600034116127a35760405162461bcd60e51b815260206004820152600d60248201526c1393d7d350551250d7d4d15395609a1b60448201526064016101c0565b600087116127c35760405162461bcd60e51b81526004016101c090614137565b60c95460405163f9d9331d60e01b81526001600160a01b038a81166004830152600092169063f9d9331d90602401602060405180830381865afa15801561280e573d6000803e3d6000fd5b505050506040513d601f19601f820116820180604052508101906128329190613f73565b90506001600160a01b0381166128b45760c954604051621849e360e61b81526001600160a01b038b811660048301529091169063061278c0906024016020604051808303816000875af115801561288d573d6000803e3d6000fd5b505050506040513d601f19601f820116820180604052508101906128b19190613f73565b90505b6000816001600160a01b0316630fc63d106040518163ffffffff1660e01b8152600401602060405180830381865afa1580156128f4573d6000803e3d6000fd5b505050506040513d601f19601f820116820180604052508101906129189190613f73565b90506000826001600160a01b0316635f64b55b6040518163ffffffff1660e01b8152600401602060405180830381865afa15801561295a573d6000803e3d6000fd5b505050506040513d601f19601f8201168201806040525081019061297e9190613f73565b90506001600160a01b03821660008051602061454d83398151915214156129cd576129b46001600160a01b03821633308d612dd6565b6129c1818b8b8b876134b7565b91975095509350612a0e565b6001600160a01b03811660008051602061454d833981519152141561249857612a016001600160a01b03831633308d612dd6565b6129c1828b8b8b876134b7565b604051636e553f6560e01b8152600481018590526001600160a01b038881166024830152841690636e553f6590604401600060405180830381600087803b158015612a5857600080fd5b505af1158015612a6c573d6000803e3d6000fd5b50505050866001600160a01b0316336001600160a01b03168c6001600160a01b031660008051602061450683398151915287604051612aad91815260200190565b60405180910390a4505050955095509592505050565b6001600160a01b03163b151590565b60ca60009054906101000a90046001600160a01b03166001600160a01b03166375b238fc6040518163ffffffff1660e01b8152600401602060405180830381865afa158015612b25573d6000803e3d6000fd5b505050506040513d601f19601f82011682018060405250810190612b499190614296565b60ca54604051632474521560e21b8152600481018390523360248201526001600160a01b03909116906391d1485490604401602060405180830381865afa158015612b98573d6000803e3d6000fd5b505050506040513d601f19601f82011682018060405250810190612bbc91906140ab565b6110255760405162461bcd60e51b81526004016101c0906140c8565b7f4910fdfa16fed3260ed0e7147f7cc6da11a60208b5b9406d12a635614ffd91435460ff1615612c0b57610d128361364f565b826001600160a01b03166352d1902d6040518163ffffffff1660e01b8152600401602060405180830381865afa925050508015612c65575060408051601f3d908101601f19168201909252612c6291810190614296565b60015b612cc85760405162461bcd60e51b815260206004820152602e60248201527f45524331393637557067726164653a206e657720696d706c656d656e7461746960448201526d6f6e206973206e6f74205555505360901b60648201526084016101c0565b6000805160206144e68339815191528114612d375760405162461bcd60e51b815260206004820152602960248201527f45524331393637557067726164653a20756e737570706f727465642070726f786044820152681a58589b195555525160ba1b60648201526084016101c0565b50610d128383836136eb565b60335460ff16612d8c5760405162461bcd60e51b815260206004820152601460248201527314185d5cd8589b194e881b9bdd081c185d5cd95960621b60448201526064016101c0565b6033805460ff191690557f5db9ee0a495bf2e6ff9c91a7834c1ba4fdd244a5e8aa4e537bd38aeae4b073aa335b6040516001600160a01b03909116815260200160405180910390a1565b6040516001600160a01b0380851660248301528316604482015260648101829052612e419085906323b872dd60e01b906084015b60408051601f198184030181529190526020810180516001600160e01b03166001600160e01b031990931692909217909152613710565b50505050565b60008054610100900460ff1615612e8e578160ff166001148015612e6a5750303b155b612e865760405162461bcd60e51b81526004016101c090614352565b506000919050565b60005460ff808416911610612eb55760405162461bcd60e51b81526004016101c090614352565b506000805460ff191660ff92909216919091179055600190565b600054610100900460ff16612ef65760405162461bcd60e51b81526004016101c0906143a0565b612efe6137e2565b565b6000806000846001600160a01b03166318160ddd6040518163ffffffff1660e01b8152600401602060405180830381865afa158015612f43573d6000803e3d6000fd5b505050506040513d601f19601f82011682018060405250810190612f679190614296565b905080856001600160a01b0316630dfe16816040518163ffffffff1660e01b8152600401602060405180830381865afa158015612fa8573d6000803e3d6000fd5b505050506040513d601f19601f82011682018060405250810190612fcc9190613f73565b6040516370a0823160e01b81526001600160a01b03888116600483015291909116906370a0823190602401602060405180830381865afa158015613014573d6000803e3d6000fd5b505050506040513d601f19601f820116820180604052508101906130389190614296565b61304290866143eb565b61304c919061440a565b925080856001600160a01b031663d21220a76040518163ffffffff1660e01b8152600401602060405180830381865afa15801561308d573d6000803e3d6000fd5b505050506040513d601f19601f820116820180604052508101906130b19190613f73565b6040516370a0823160e01b81526001600160a01b03888116600483015291909116906370a0823190602401602060405180830381865afa1580156130f9573d6000803e3d6000fd5b505050506040513d601f19601f8201168201806040525081019061311d9190614296565b61312790866143eb565b613131919061440a565b9150509250929050565b60405163095ea7b360e01b815273a5e0829caced8ffdd4de3c43696c57f7d7a678ff600482015260248101869052600090819081906001600160a01b038b169063095ea7b3906044016020604051808303816000875af11580156131a3573d6000803e3d6000fd5b505050506040513d601f19601f820116820180604052508101906131c791906140ab565b5060405163095ea7b360e01b815273a5e0829caced8ffdd4de3c43696c57f7d7a678ff6004820152602481018890526001600160a01b038a169063095ea7b3906044016020604051808303816000875af1158015613229573d6000803e3d6000fd5b505050506040513d601f19601f8201168201806040525081019061324d91906140ab565b5060405162e8e33760e81b81526001600160a01b03808c166004830152808b166024830152604482018a9052606482018990526084820188905260a48201879052851660c48201524260e482015273a5e0829caced8ffdd4de3c43696c57f7d7a678ff9063e8e3370090610104016060604051808303816000875af11580156132da573d6000803e3d6000fd5b505050506040513d601f19601f820116820180604052508101906132fe919061442c565b9194509250905061332433613313858b61433b565b6001600160a01b038d16919061342f565b61334333613332848a61433b565b6001600160a01b038c16919061342f565b9750975097945050505050565b600080600080731111111254eeb25477b68fb85ed929f73a9605826001600160a01b0316868660405161338492919061445a565b6000604051808303816000865af19150503d80600081146133c1576040519150601f19603f3d011682016040523d82523d6000602084013e6133c6565b606091505b50915091508161340e5760405162461bcd60e51b815260206004820152601360248201527214d5d05417d393d517d4d550d0d154d4d19553606a1b60448201526064016101c0565b808060200190518101906134229190613fef565b9097909650945050505050565b6040516001600160a01b038316602482015260448101829052610d1290849063a9059cbb60e01b90606401612e0a565b60335460ff16156134825760405162461bcd60e51b81526004016101c09061410d565b6033805460ff191660011790557f62e78cea01bee320cd4e420270b5ea74000d11b0c9f74754ebdbfc544b05a258612db93390565b60405163095ea7b360e01b815273a5e0829caced8ffdd4de3c43696c57f7d7a678ff600482015260248101859052600090819081906001600160a01b0389169063095ea7b3906044016020604051808303816000875af115801561351f573d6000803e3d6000fd5b505050506040513d601f19601f8201168201806040525081019061354391906140ab565b5060405163f305d71960e01b81526001600160a01b03808a166004830152602482018990526044820188905260648201879052851660848201524260a482015273a5e0829caced8ffdd4de3c43696c57f7d7a678ff9063f305d71990349060c40160606040518083038185885af11580156135c2573d6000803e3d6000fd5b50505050506040513d601f19601f820116820180604052508101906135e7919061442c565b9194509250905061360d336135fc858a61433b565b6001600160a01b038b16919061342f565b336108fc61361b843461433b565b6040518115909202916000818181858888f19350505050158015613643573d6000803e3d6000fd5b50955095509592505050565b6001600160a01b0381163b6136bc5760405162461bcd60e51b815260206004820152602d60248201527f455243313936373a206e657720696d706c656d656e746174696f6e206973206e60448201526c1bdd08184818dbdb9d1c9858dd609a1b60648201526084016101c0565b6000805160206144e683398151915280546001600160a01b0319166001600160a01b0392909216919091179055565b6136f483613815565b6000825111806137015750805b15610d1257612e418383613855565b6000613765826040518060400160405280602081526020017f5361666545524332303a206c6f772d6c6576656c2063616c6c206661696c6564815250856001600160a01b031661394b9092919063ffffffff16565b805190915015610d12578080602001905181019061378391906140ab565b610d125760405162461bcd60e51b815260206004820152602a60248201527f5361666545524332303a204552433230206f7065726174696f6e20646964206e6044820152691bdd081cdd58d8d9595960b21b60648201526084016101c0565b600054610100900460ff166138095760405162461bcd60e51b81526004016101c0906143a0565b6033805460ff19169055565b61381e8161364f565b6040516001600160a01b038216907fbc7cd75a20ee27fd9adebab32041f755214dbc6bffa90cc0225b39da2e5c2d3b90600090a250565b60606001600160a01b0383163b6138bd5760405162461bcd60e51b815260206004820152602660248201527f416464726573733a2064656c65676174652063616c6c20746f206e6f6e2d636f6044820152651b9d1c9858dd60d21b60648201526084016101c0565b600080846001600160a01b0316846040516138d89190614496565b600060405180830381855af49150503d8060008114613913576040519150601f19603f3d011682016040523d82523d6000602084013e613918565b606091505b5091509150613940828260405180606001604052806027815260200161452660279139613964565b925050505b92915050565b606061395a848460008561399d565b90505b9392505050565b6060831561397357508161395d565b8251156139835782518084602001fd5b8160405162461bcd60e51b81526004016101c091906144b2565b6060824710156139fe5760405162461bcd60e51b815260206004820152602660248201527f416464726573733a20696e73756666696369656e742062616c616e636520666f6044820152651c8818d85b1b60d21b60648201526084016101c0565b6001600160a01b0385163b613a555760405162461bcd60e51b815260206004820152601d60248201527f416464726573733a2063616c6c20746f206e6f6e2d636f6e747261637400000060448201526064016101c0565b600080866001600160a01b03168587604051613a719190614496565b60006040518083038185875af1925050503d8060008114613aae576040519150601f19603f3d011682016040523d82523d6000602084013e613ab3565b606091505b5091509150613ac3828286613964565b979650505050505050565b6001600160a01b038116811461071257600080fd5b801515811461071257600080fd5b60008060008060008060c08789031215613b0a57600080fd5b8635613b1581613ace565b95506020870135945060408701359350606087013592506080870135613b3a81613ae3565b915060a0870135613b4a81613ace565b809150509295509295509295565b600060208284031215613b6a57600080fd5b813561395d81613ace565b6020808252825182820181905260009190848201906040850190845b81811015613bb65783516001600160a01b031683529284019291840191600101613b91565b50909695505050505050565b600080600060608486031215613bd757600080fd5b8335613be281613ace565b9250602084013591506040840135613bf981613ace565b809150509250925092565b60008060408385031215613c1757600080fd5b8235613c2281613ace565b91506020830135613c3281613ace565b809150509250929050565b806040810183101561394557600080fd5b60008060008060808587031215613c6457600080fd5b8435613c6f81613ace565b9350602085013567ffffffffffffffff80821115613c8c57600080fd5b613c9888838901613c3d565b94506040870135915080821115613cae57600080fd5b50850160408188031215613cc157600080fd5b91506060850135613cd181613ace565b939692955090935050565b634e487b7160e01b600052604160045260246000fd5b60008060408385031215613d0557600080fd5b8235613d1081613ace565b9150602083013567ffffffffffffffff80821115613d2d57600080fd5b818501915085601f830112613d4157600080fd5b813581811115613d5357613d53613cdc565b604051601f8201601f19908116603f01168101908382118183101715613d7b57613d7b613cdc565b81604052828152886020848701011115613d9457600080fd5b8260208601602083013760006020848301015280955050505050509250929050565b60008060008060008060c08789031215613dcf57600080fd5b8635613dda81613ace565b95506020870135945060408701359350606087013592506080870135915060a0870135613b4a81613ace565b600060208284031215613e1857600080fd5b5035919050565b600080600080600080600060e0888a031215613e3a57600080fd5b8735613e4581613ace565b96506020880135613e5581613ace565b955060408801359450606088013567ffffffffffffffff811115613e7857600080fd5b613e848a828b01613c3d565b9450506080880135925060a0880135915060c0880135613ea381613ace565b8091505092959891949750929550565b600080600080600060a08688031215613ecb57600080fd5b8535613ed681613ace565b9450602086013567ffffffffffffffff811115613ef257600080fd5b613efe88828901613c3d565b94505060408601359250606086013591506080860135613f1d81613ace565b809150509295509295909350565b600080600080600060a08688031215613f4357600080fd5b8535613f4e81613ace565b94506020860135935060408601359250606086013591506080860135613f1d81613ace565b600060208284031215613f8557600080fd5b815161395d81613ace565b6020808252600f908201526e4641524d5f4e4f545f45584953545360881b604082015260600190565b95865260208601949094526040850192909252151560608401526001600160a01b0390811660808401521660a082015260c00190565b6000806040838503121561400257600080fd5b505080516020909101519092909150565b6020808252602c908201527f46756e6374696f6e206d7573742062652063616c6c6564207468726f7567682060408201526b19195b1959d85d1958d85b1b60a21b606082015260800190565b6020808252602c908201527f46756e6374696f6e206d7573742062652063616c6c6564207468726f7567682060408201526b6163746976652070726f787960a01b606082015260800190565b6000602082840312156140bd57600080fd5b815161395d81613ae3565b60208082526015908201527410d05313115497d393d517d055551213d492569151605a1b604082015260600190565b634e487b7160e01b600052603260045260246000fd5b60208082526010908201526f14185d5cd8589b194e881c185d5cd95960821b604082015260600190565b6020808252600d908201526c1393d7d513d2d15397d4d15395609a1b604082015260600190565b6000604083018235601e1984360301811261417857600080fd5b83018035602067ffffffffffffffff82111561419357600080fd5b8160051b36038613156141a557600080fd5b60408752928190529082019160009190606087015b828410156141ea5784356141cd81613ace565b6001600160a01b03168152938101936001939093019281016141ba565b9581013596019590955250919392505050565b608080825260009060c083019083018683805b600281101561425857868503607f190184528235368b9003603e19018112614236578283fd5b614242868c830161415e565b9550506020938401939290920191600101614210565b50505050828103602084015261426e818661415e565b84516001600160a01b0316604085015260209094015160609093019290925250909392505050565b6000602082840312156142a857600080fd5b5051919050565b6020808252600e908201526d1393d7d513d2d15394d7d4d1539560921b604082015260600190565b6000808335601e198436030181126142ee57600080fd5b83018035915067ffffffffffffffff82111561430957600080fd5b60200191503681900382131561431e57600080fd5b9250929050565b634e487b7160e01b600052601160045260246000fd5b60008282101561434d5761434d614325565b500390565b6020808252602e908201527f496e697469616c697a61626c653a20636f6e747261637420697320616c72656160408201526d191e481a5b9a5d1a585b1a5e995960921b606082015260800190565b6020808252602b908201527f496e697469616c697a61626c653a20636f6e7472616374206973206e6f74206960408201526a6e697469616c697a696e6760a81b606082015260800190565b600081600019048311821515161561440557614405614325565b500290565b60008261442757634e487b7160e01b600052601260045260246000fd5b500490565b60008060006060848603121561444157600080fd5b8351925060208401519150604084015190509250925092565b8183823760009101908152919050565b60005b8381101561448557818101518382015260200161446d565b83811115612e415750506000910152565b600082516144a881846020870161446a565b9190910192915050565b60208152600082518060208401526144d181604085016020870161446a565b601f01601f1916919091016040019291505056fe360894a13ba1a3210667c828492db98dca3e2076cc3735a920a3ca505d382bbc7cfff908a4b583f36430b25d75964c458d8ede8a99bd61be750e97ee1b2f3a96416464726573733a206c6f772d6c6576656c2064656c65676174652063616c6c206661696c65640000000000000000000000000d500b1d8e8ef31e21c99d1db9a6444d3adf1270a26469706673582212200787c503e4bdb07175d6c98ae309514bab19949c8cd09c042ecbd5d3c752261564736f6c634300080a0033496e697469616c697a61626c653a20636f6e747261637420697320616c726561",
  "immutableReferences": {
    "561": [
      {
        "length": 32,
        "start": 1600
      },
      {
        "length": 32,
        "start": 1664
      },
      {
        "length": 32,
        "start": 3939
      },
      {
        "length": 32,
        "start": 4003
      },
      {
        "length": 32,
        "start": 4519
      }
    ]
  },
  "source": "// SPDX-License-Identifier: MIT\r\npragma solidity 0.8.10;\r\n\r\nimport {IUnoFarmQuickswap as Farm} from './interfaces/IUnoFarmQuickswap.sol'; \r\nimport '../../interfaces/IUniswapV2Router.sol';\r\nimport '../../interfaces/IUnoFarmFactory.sol';\r\nimport '../../interfaces/IUnoAccessManager.sol'; \r\nimport '../../interfaces/IUniswapV2Pair.sol';\r\nimport '../../interfaces/IStakingRewards.sol';\r\nimport '../../interfaces/IWMATIC.sol';\r\nimport '@openzeppelin/contracts-upgradeable/token/ERC20/IERC20Upgradeable.sol';\r\nimport '@openzeppelin/contracts/token/ERC20/IERC20.sol';\r\nimport '@openzeppelin/contracts-upgradeable/token/ERC20/utils/SafeERC20Upgradeable.sol';\r\nimport '@openzeppelin/contracts-upgradeable/proxy/utils/Initializable.sol';\r\nimport '@openzeppelin/contracts-upgradeable/security/PausableUpgradeable.sol';\r\nimport '@openzeppelin/contracts-upgradeable/proxy/utils/UUPSUpgradeable.sol';\r\n\r\ncontract UnoAssetRouterQuickswap is Initializable, PausableUpgradeable, UUPSUpgradeable {\r\n    using SafeERC20Upgradeable for IERC20Upgradeable;\r\n\r\n    /**\r\n     * @dev Contract Variables:\r\n     * farmFactory - The contract that deploys new Farms and links them to {lpStakingPool}s.\r\n     * accessManager - Role manager contract.\r\n     */\r\n    IUnoFarmFactory public farmFactory;\r\n    IUnoAccessManager public accessManager;\r\n\r\n    bytes32 private constant DISTRIBUTOR_ROLE = keccak256('DISTRIBUTOR_ROLE');\r\n    bytes32 private constant PAUSER_ROLE = keccak256('PAUSER_ROLE');\r\n\r\n    uint256 public fee;\r\n\r\n    address public constant WMATIC = 0x0d500B1d8E8eF31E21C99d1Db9A6444d3ADf1270;\r\n    IUniswapV2Router01 private constant QuickswapRouter = IUniswapV2Router01(0xa5E0829CaCEd8fFDD4De3c43696c57F7D7A678ff); \r\n    address private constant OneInchRouter = 0x1111111254EEB25477B68fb85Ed929f73A960582;\r\n\r\n    event Deposit(address indexed lpPool, address indexed sender, address indexed recipient, uint256 amount);\r\n    event Withdraw(address indexed lpPool, address indexed sender, address indexed recipient, uint256 amount);\r\n    event Distribute(address indexed lpPool, uint256 reward);\r\n\r\n    event FeeChanged(uint256 previousFee, uint256 newFee);\r\n    event SingleAssetEntryFeeChanged(uint256 previousFee, uint256 newFee);\r\n\r\n    modifier onlyRole(bytes32 role){\r\n        require(accessManager.hasRole(role, msg.sender), 'CALLER_NOT_AUTHORIZED');\r\n        _;\r\n    }\r\n\r\n    // ============ Methods ============\r\n\r\n    /// @custom:oz-upgrades-unsafe-allow constructor\r\n    constructor() {\r\n        _disableInitializers();\r\n    }\r\n\r\n    function initialize(address _accessManager, address _farmFactory) external initializer{\r\n        require (_accessManager != address(0), 'BAD_ACCESS_MANAGER');\r\n        require (_farmFactory != address(0), 'BAD_FARM_FACTORY');\r\n\r\n        __Pausable_init();\r\n        accessManager = IUnoAccessManager(_accessManager);\r\n        farmFactory = IUnoFarmFactory(_farmFactory);\r\n    }\r\n\r\n    receive() external payable {\r\n        require(msg.sender == WMATIC || msg.sender == address(QuickswapRouter), 'ONLY_ACCEPT_WMATIC_OR_ROUTER'); // only accept ETH via fallback from the WMATIC or router contract\r\n    }\r\n\r\n    /**\r\n     * @dev Deposits tokens in the given pool. Creates new Farm contract if there isn't one deployed for the {lpStakingPool} and deposits tokens in it. Emits a {Deposit} event.\r\n     * @param lpStakingPool - Address of the pool to deposit tokens in.\r\n     * @param amountA  - Token A amount to deposit.\r\n     * @param amountB -  Token B amount to deposit.\r\n     * @param amountAMin - Bounds the extent to which the B/A price can go up before the transaction reverts.\r\n     * @param amountBMin - Bounds the extent to which the A/B price can go up before the transaction reverts.\r\n     * @param recipient - Address which will receive the deposit.\r\n     \r\n     * @return sentA - Token A amount sent to the farm.\r\n     * @return sentB - Token B amount sent to the farm.\r\n     * @return liquidity - Total liquidity sent to the farm (in lpTokens).\r\n     */\r\n    function deposit(address lpStakingPool, uint256 amountA, uint256 amountB, uint256 amountAMin, uint256 amountBMin, address recipient) external whenNotPaused returns(uint256 sentA, uint256 sentB, uint256 liquidity){\r\n        require(amountA > 0 && amountB > 0, \"NO_TOKENS_SENT\");\r\n        Farm farm = Farm(farmFactory.Farms(lpStakingPool));\r\n        if(farm == Farm(address(0))){\r\n            farm = Farm(farmFactory.createFarm(lpStakingPool));\r\n        }\r\n\r\n        address tokenA = farm.tokenA();\r\n        address tokenB = farm.tokenB();\r\n        IERC20Upgradeable(tokenA).safeTransferFrom(msg.sender, address(this), amountA);\r\n        IERC20Upgradeable(tokenB).safeTransferFrom(msg.sender, address(this), amountB);\r\n\r\n        (sentA, sentB, liquidity) = _addLiquidity(tokenA, tokenB, amountA, amountB, amountAMin, amountBMin, address(farm));\r\n        farm.deposit(liquidity, recipient);\r\n\r\n        emit Deposit(lpStakingPool, msg.sender, recipient, liquidity); \r\n    }\r\n\r\n    /**\r\n     * @dev Autoconverts MATIC into WMATIC and deposits tokens in the given pool. Creates new Farm contract if there isn't one deployed for the {lpStakingPool} and deposits tokens in it. Emits a {Deposit} event.\r\n     * @param lpStakingPool - Address of the pool to deposit tokens in.\r\n     * @param amountToken  - Token amount to deposit.\r\n     * @param amountTokenMin - Bounds the extent to which the TOKEN/WMATIC price can go up before the transaction reverts.\r\n     * @param amountETHMin - Bounds the extent to which the WMATIC/TOKEN price can go up before the transaction reverts.\r\n     * @param recipient - Address which will receive the deposit.\r\n     \r\n     * @return sentToken - Token amount sent to the farm.\r\n     * @return sentETH - WMATIC amount sent to the farm.\r\n     * @return liquidity - Total liquidity sent to the farm (in lpTokens).\r\n     */\r\n    function depositETH(address lpStakingPool, uint256 amountToken, uint256 amountTokenMin, uint256 amountETHMin, address recipient) external payable whenNotPaused returns(uint256 sentToken, uint256 sentETH, uint256 liquidity){\r\n        require(msg.value > 0, \"NO_MATIC_SENT\");\r\n        require(amountToken > 0, \"NO_TOKEN_SENT\");\r\n        Farm farm = Farm(farmFactory.Farms(lpStakingPool));\r\n        if(farm == Farm(address(0))){\r\n            farm = Farm(farmFactory.createFarm(lpStakingPool));\r\n        }\r\n\r\n        address tokenA = farm.tokenA();\r\n        address tokenB = farm.tokenB();\r\n        if (tokenA == WMATIC) {\r\n            IERC20Upgradeable(tokenB).safeTransferFrom(msg.sender, address(this), amountToken);\r\n            (sentToken, sentETH, liquidity) = _addLiquidityETH(tokenB, amountToken, amountTokenMin, amountETHMin, address(farm));\r\n        } else if (tokenB == WMATIC) {\r\n            IERC20Upgradeable(tokenA).safeTransferFrom(msg.sender, address(this), amountToken);\r\n            (sentToken, sentETH, liquidity) = _addLiquidityETH(tokenA, amountToken, amountTokenMin, amountETHMin, address(farm));\r\n        } else {\r\n            revert(\"NOT_WMATIC_POOL\");\r\n        }\r\n        farm.deposit(liquidity, recipient);\r\n\r\n        emit Deposit(lpStakingPool, msg.sender, recipient, liquidity);\r\n    }\r\n\r\n    /**\r\n     * @dev Deposits single token in the given pool. Creates new Farm contract if there isn't one deployed for the {lpStakingPool}, swaps {token} for pool tokens and deposits them. Emits a {Deposit} event.\r\n     * @param lpStakingPool - Address of the pool to deposit tokens in.\r\n     * @param token  - Address of a token to enter the pool.\r\n     * @param amount - Amount of token sent.\r\n     * @param swapData - Parameter with which 1inch router is being called with.\r\n     * @param amountAMin - Bounds the extent to which the B/A price can go up before the transaction reverts.\r\n     * @param amountBMin - Bounds the extent to which the A/B price can go up before the transaction reverts.\r\n     * @param recipient - Address which will receive the deposit.\r\n     \r\n     * @return sent - Total {token} amount sent to the farm. NOTE: Returns dust left from swap in {token}, but if A/B amounts are not correct also returns dust in pool's tokens.\r\n     * @return liquidity - Total liquidity sent to the farm (in lpTokens).\r\n     */\r\n    function depositSingleAsset(address lpStakingPool, address token, uint256 amount, bytes[2] calldata swapData, uint256 amountAMin, uint256 amountBMin, address recipient) external whenNotPaused returns(uint256 sent, uint256 liquidity){\r\n        require(amount > 0, \"NO_TOKEN_SENT\");\r\n        Farm farm = Farm(farmFactory.Farms(lpStakingPool));\r\n        if(farm == Farm(address(0))){\r\n            farm = Farm(farmFactory.createFarm(lpStakingPool));\r\n        }\r\n\r\n        IERC20Upgradeable(token).safeTransferFrom(msg.sender, address(this), amount);\r\n        IERC20Upgradeable(token).approve(OneInchRouter, amount);\r\n\r\n        sent = amount;\r\n        uint256 amountA;\r\n        uint256 amountB;\r\n        address tokenA = farm.tokenA();\r\n        address tokenB = farm.tokenB();\r\n\r\n        if (tokenA != token) {\r\n            (uint256 returnAmount, uint256 spentAmount) = _swap(swapData[0]);\r\n            amount -= spentAmount;\r\n            amountA = returnAmount;\r\n        }\r\n        if (tokenB != token) {\r\n            (uint256 returnAmount, uint256 spentAmount) = _swap(swapData[1]);\r\n            amount -= spentAmount;\r\n            amountB = returnAmount;\r\n        }\r\n\r\n        if (tokenA == token) {\r\n            amountA = amount;\r\n        } else if (tokenB == token) {\r\n            amountB = amount;\r\n        } else if(amount > 0) {\r\n            sent -= amount;\r\n            IERC20Upgradeable(token).safeTransfer(msg.sender, amount);\r\n        }\r\n\r\n        require(amountA > 0 && amountB > 0, \"NO_TOKENS_SENT\");\r\n        (,,liquidity) = _addLiquidity(tokenA, tokenB, amountA, amountB, amountAMin, amountBMin, address(farm));\r\n        farm.deposit(liquidity, recipient);\r\n        \r\n        emit Deposit(lpStakingPool, msg.sender, recipient, liquidity);\r\n    }\r\n     \r\n    /**\r\n     * @dev Deposits single MATIC in the given pool. Creates new Farm contract if there isn't one deployed for the {lpStakingPool}, swaps MATIC for pool tokens and deposits them. Emits a {Deposit} event.\r\n     * @param lpStakingPool - Address of the pool to deposit tokens in.\r\n     * @param swapData - Parameter with which 1inch router is being called with.\r\n     * @param amountAMin - Bounds the extent to which the B/A price can go up before the transaction reverts.\r\n     * @param amountBMin - Bounds the extent to which the A/B price can go up before the transaction reverts.\r\n     * @param recipient - Address which will receive the deposit.\r\n     \r\n     * @return sentETH - Total MATIC amount sent to the farm. NOTE: Returns dust left from swap in MATIC, but if A/B amount are not correct also returns dust in pool's tokens.\r\n     * @return liquidity - Total liquidity sent to the farm (in lpTokens).\r\n     */\r\n    function depositSingleETH(address lpStakingPool, bytes[2] calldata swapData, uint256 amountAMin, uint256 amountBMin, address recipient) external payable whenNotPaused returns(uint256 sentETH, uint256 liquidity){\r\n        require(msg.value > 0, \"NO_MATIC_SENT\");\r\n        Farm farm = Farm(farmFactory.Farms(lpStakingPool));\r\n        if(farm == Farm(address(0))){\r\n            farm = Farm(farmFactory.createFarm(lpStakingPool));\r\n        }\r\n\r\n        uint256 amount = msg.value;\r\n        IWMATIC(WMATIC).deposit{value: amount}();\r\n        IERC20Upgradeable(WMATIC).approve(OneInchRouter, amount);\r\n\r\n        sentETH = amount;\r\n        uint256 amountA;\r\n        uint256 amountB;\r\n        address tokenA = farm.tokenA();\r\n        address tokenB = farm.tokenB();\r\n\r\n        if (tokenA != WMATIC) {\r\n            (uint256 returnAmount, uint256 spentAmount) = _swap(swapData[0]);\r\n            amount -= spentAmount;\r\n            amountA = returnAmount;\r\n        }\r\n        if (tokenB != WMATIC) {\r\n            (uint256 returnAmount, uint256 spentAmount) = _swap(swapData[1]);\r\n            amount -= spentAmount;\r\n            amountB = returnAmount;\r\n        }\r\n\r\n        if (tokenA == WMATIC) {\r\n            amountA = amount;\r\n        } else if (tokenB == WMATIC) {\r\n            amountB = amount;\r\n        } else if (amount > 0) {\r\n            sentETH -= amount;\r\n            IWMATIC(WMATIC).withdraw(amount);\r\n            payable(msg.sender).transfer(amount);\r\n        }\r\n\r\n        require(amountA > 0 && amountB > 0, \"NO_TOKENS_SENT\");\r\n        (,,liquidity) = _addLiquidity(tokenA, tokenB, amountA, amountB, amountAMin, amountBMin, address(farm));\r\n        farm.deposit(liquidity, recipient);\r\n\r\n        emit Deposit(lpStakingPool, msg.sender, recipient, liquidity);\r\n    }\r\n\r\n    /**\r\n     * @dev Deposits tokens in the given pool. Creates new Farm contract if there isn't one deployed for the {lpStakingPool} and deposits tokens in it. Emits a {Deposit} event.\r\n     * @param lpStakingPool - Address of the pool to deposit tokens in.\r\n     * @param amount - LP Token amount to deposit.\r\n     * @param recipient - Address which will receive the deposit.\r\n     */\r\n    function depositLP(address lpStakingPool, uint256 amount, address recipient) external whenNotPaused{\r\n        require(amount > 0, \"NO_TOKEN_SENT\");\r\n        Farm farm = Farm(farmFactory.Farms(lpStakingPool));\r\n        if(farm == Farm(address(0))){\r\n            farm = Farm(farmFactory.createFarm(lpStakingPool));\r\n        }\r\n\r\n        IERC20Upgradeable(farm.lpPair()).safeTransferFrom(msg.sender, address(farm), amount);\r\n        farm.deposit(amount, recipient);\r\n\r\n        emit Deposit(lpStakingPool, msg.sender, recipient, amount); \r\n    }\r\n\r\n    /** \r\n     * @dev Withdraws tokens from the given pool. Emits a {Withdraw} event.\r\n     * @param lpStakingPool - LP pool to withdraw from.\r\n     * @param amount - LP amount to withdraw. \r\n     * @param amountAMin - The minimum amount of tokenA that must be received for the transaction not to revert.\r\n     * @param amountBMin - The minimum amount of tokenB that must be received for the transaction not to revert.\r\n     * @param withdrawLP - True: Withdraw in LP tokens, False: Withdraw in normal tokens.\r\n     * @param recipient - The address which will receive tokens.\r\n\r\n     * @return amountA - Token A amount sent to the {recipient}, 0 if withdrawLP == false.\r\n     * @return amountB - Token B amount sent to the {recipient}, 0 if withdrawLP == false.\r\n     */ \r\n    function withdraw(address lpStakingPool, uint256 amount, uint256 amountAMin, uint256 amountBMin, bool withdrawLP, address recipient) external returns(uint256 amountA, uint256 amountB){\r\n        Farm farm = Farm(farmFactory.Farms(lpStakingPool));\r\n        require(farm != Farm(address(0)),'FARM_NOT_EXISTS');\r\n        \r\n        (amountA, amountB) = farm.withdraw(amount, amountAMin, amountBMin, withdrawLP, msg.sender, recipient); \r\n        emit Withdraw(lpStakingPool, msg.sender, recipient, amount);  \r\n    }\r\n\r\n    /** \r\n     * @dev Autoconverts WMATIC into MATIC and withdraws tokens from the pool. Emits a {Withdraw} event.\r\n     * @param lpStakingPool - LP pool to withdraw from.\r\n     * @param amount - LP amount to withdraw. \r\n     * @param amountTokenMin - The minimum amount of token that must be received for the transaction not to revert.\r\n     * @param amountETHMin - The minimum amount of MATIC that must be received for the transaction not to revert.\r\n     * @param recipient - The address which will receive tokens.\r\n\r\n     * @return amountToken - Token amount sent to the {recipient}.\r\n     * @return amountETH - MATIC amount sent to the {recipient}.\r\n     */ \r\n    function withdrawETH(address lpStakingPool, uint256 amount, uint256 amountTokenMin, uint256 amountETHMin, address recipient) external returns(uint256 amountToken, uint256 amountETH){\r\n        Farm farm = Farm(farmFactory.Farms(lpStakingPool));\r\n        require(farm != Farm(address(0)),'FARM_NOT_EXISTS');\r\n\r\n        address tokenA = farm.tokenA();\r\n        address tokenB = farm.tokenB();\r\n\r\n        if (tokenA == WMATIC) {\r\n            (amountETH, amountToken) = farm.withdraw(amount, amountETHMin, amountTokenMin, false, msg.sender, address(this));\r\n            IERC20Upgradeable(tokenB).safeTransfer(recipient, amountToken);\r\n        } else if (tokenB == WMATIC) {\r\n            (amountToken, amountETH) = farm.withdraw(amount, amountTokenMin, amountETHMin, false, msg.sender, address(this)); \r\n            IERC20Upgradeable(tokenA).safeTransfer(recipient, amountToken);\r\n        } else {\r\n            revert(\"NOT_WMATIC_POOL\");\r\n        }\r\n\r\n        IWMATIC(WMATIC).withdraw(amountETH);\r\n        payable(recipient).transfer(amountETH);\r\n        emit Withdraw(lpStakingPool, msg.sender, recipient, amount);\r\n    }\r\n\r\n    /**\r\n     * @dev Distributes tokens between users. Emits a {Distribute} event.\r\n     * @param lpStakingPool - LP pool to distribute tokens in.\r\n     * @param swapInfos - Arrays of structs with token arrays describing swap routes (rewardTokenToTokenA, rewardTokenToTokenB) and minimum amounts of output tokens that must be received for the transaction not to revert.\r\n     * @param feeSwapInfo - Struct with token array describing swap route (rewardTokenToFeeToken) and minimum amounts of output tokens that must be received for the transaction not to revert.\r\n     * @param feeTo - Address to collect fees to.\r\n     *\r\n     * Note: This function can only be called by the distributor.\r\n     */ \r\n    function distribute(\r\n        address lpStakingPool,\r\n        Farm.SwapInfo[2] calldata swapInfos,\r\n        Farm.SwapInfo calldata feeSwapInfo,\r\n        address feeTo\r\n    ) external whenNotPaused onlyRole(DISTRIBUTOR_ROLE) {\r\n        Farm farm = Farm(farmFactory.Farms(lpStakingPool));\r\n        require(farm != Farm(address(0)), 'FARM_NOT_EXISTS');\r\n\r\n        uint256 reward = farm.distribute(swapInfos, feeSwapInfo, Farm.FeeInfo(feeTo, fee));\r\n        emit Distribute(lpStakingPool, reward);\r\n    }\r\n\r\n    /**\r\n     * @dev Returns tokens staked by the {_address} for the given {lpStakingPool}.\r\n     * @param _address - The address to check stakes for.\r\n     * @param lpStakingPool - LP pool to check stakes in.\r\n\r\n     * @return stakeLP - Total user stake(in LP tokens).\r\n     * @return stakeA - Token A stake.\r\n     * @return stakeB - Token B stake.\r\n     */\r\n    function userStake(address _address, address lpStakingPool) external view returns (uint256 stakeLP, uint256 stakeA, uint256 stakeB) {\r\n        Farm farm = Farm(farmFactory.Farms(lpStakingPool));\r\n        if (farm != Farm(address(0))) {\r\n            stakeLP = farm.userBalance(_address);\r\n            address lpPair = farm.lpPair();\r\n            (stakeA, stakeB) = _getTokenStake(lpPair, stakeLP);\r\n        }\r\n    }\r\n\r\n    /**\r\n     * @dev Returns total amount locked in the pool. Doesn't take pending rewards into account.\r\n     * @param lpStakingPool - LP pool to check total deposits in.\r\n\r\n     * @return totalDepositsLP - Total deposits (in LP tokens).\r\n     * @return totalDepositsA - Token A deposits.\r\n     * @return totalDepositsB - Token B deposits.\r\n     */  \r\n    function totalDeposits(address lpStakingPool) external view returns (uint256 totalDepositsLP, uint256 totalDepositsA, uint256 totalDepositsB) {\r\n        Farm farm = Farm(farmFactory.Farms(lpStakingPool));\r\n        if (farm != Farm(address(0))) {\r\n            totalDepositsLP = farm.getTotalDeposits();\r\n            address lpPair = farm.lpPair();\r\n            (totalDepositsA, totalDepositsB) = _getTokenStake(lpPair, totalDepositsLP);\r\n        }\r\n    }\r\n\r\n    /**\r\n     * @dev Returns addresses of pair of tokens in {lpStakingPool}.\r\n     * @param lpStakingPool - LP pool to check tokens in.\r\n\r\n     * @return tokens - Tokens addresses.\r\n     */  \r\n    function getTokens(address lpStakingPool) external view returns(IERC20[] memory tokens){\r\n        tokens = new IERC20[](2);\r\n        IUniswapV2Pair stakingToken = IUniswapV2Pair(address(IStakingRewards(lpStakingPool).stakingToken()));\r\n        tokens[0] = IERC20(stakingToken.token0());\r\n        tokens[1] = IERC20(stakingToken.token1());\r\n    }\r\n\r\n    /**\r\n     * @dev Deposits assets to router & refunds dust.\r\n     */ \r\n    function _addLiquidity(\r\n        address tokenA,\r\n        address tokenB, \r\n        uint256 amountA, \r\n        uint256 amountB, \r\n        uint256 amountAMin, \r\n        uint256 amountBMin, \r\n        address farm\r\n    ) internal returns(uint256 sentA, uint256 sentB, uint256 liquidity){\r\n        IERC20Upgradeable(tokenA).approve(address(QuickswapRouter), amountA);\r\n        IERC20Upgradeable(tokenB).approve(address(QuickswapRouter), amountB);\r\n\r\n        (sentA, sentB, liquidity) = QuickswapRouter.addLiquidity(tokenA, tokenB, amountA, amountB, amountAMin, amountBMin, farm, block.timestamp);\r\n        // Refund dust\r\n        IERC20Upgradeable(tokenA).safeTransfer(msg.sender, amountA - sentA);\r\n\t\tIERC20Upgradeable(tokenB).safeTransfer(msg.sender, amountB - sentB);\r\n    }\r\n\r\n    /**\r\n     * @dev Deposits assets to router & refunds dust.\r\n     */ \r\n    function _addLiquidityETH(\r\n        address token,\r\n        uint256 amount, \r\n        uint256 amountTokenMin, \r\n        uint256 amountETHMin, \r\n        address farm\r\n    ) internal returns(uint256 sentToken, uint256 sentETH, uint256 liquidity){\r\n        IERC20Upgradeable(token).approve(address(QuickswapRouter), amount);\r\n\r\n        (sentToken, sentETH, liquidity) = QuickswapRouter.addLiquidityETH{value: msg.value}(token, amount, amountTokenMin, amountETHMin, farm, block.timestamp);\r\n        // Refund dust\r\n        IERC20Upgradeable(token).safeTransfer(msg.sender, amount - sentToken);\r\n        payable(msg.sender).transfer(msg.value - sentETH);\r\n    }\r\n\r\n    /**\r\n     * @dev Swaps assets using 1inch exchange.\r\n     */  \r\n    function _swap(bytes calldata swapData) internal returns(uint256 returnAmount, uint256 spentAmount){\r\n        (bool success, bytes memory data) = OneInchRouter.call(swapData);\r\n        require(success, \"SWAP_NOT_SUCCESSFUL\");\r\n        (returnAmount, spentAmount) = abi.decode(data, (uint256, uint256));\r\n    }\r\n\r\n    /**\r\n     * @dev Converts LP tokens to normal tokens, value(amountA) == value(amountB) == 0.5*amountLP\r\n     * @param lpPair - LP pair for conversion.\r\n     * @param amountLP - Amount of LP tokens to convert.\r\n\r\n     * @return amountA - Token A amount.\r\n     * @return amountB - Token B amount.\r\n     */ \r\n    function _getTokenStake(address lpPair, uint256 amountLP) internal view returns (uint256 amountA, uint256 amountB) {\r\n        uint256 totalSupply = IERC20Upgradeable(lpPair).totalSupply();\r\n        amountA = amountLP * IERC20Upgradeable(IUniswapV2Pair(lpPair).token0()).balanceOf(lpPair) / totalSupply;\r\n        amountB = amountLP * IERC20Upgradeable(IUniswapV2Pair(lpPair).token1()).balanceOf(lpPair) / totalSupply;\r\n    }\r\n\r\n    /**\r\n     * @dev Change fee amount.\r\n     * @param _fee -New fee to collect from farms. [10^18 == 100%]\r\n     *\r\n     * Note: This function can only be called by ADMIN_ROLE.\r\n     */ \r\n    function setFee(uint256 _fee) external onlyRole(accessManager.ADMIN_ROLE()){\r\n        require (_fee <= 1 ether, \"BAD_FEE\");\r\n        if(fee != _fee){\r\n            emit FeeChanged(fee, _fee); \r\n            fee = _fee;\r\n        }\r\n    }\r\n \r\n    function pause() external onlyRole(PAUSER_ROLE) {\r\n        _pause();\r\n    }\r\n\r\n    function unpause() external onlyRole(PAUSER_ROLE) {\r\n        _unpause();\r\n    }\r\n\r\n    function _authorizeUpgrade(address) internal override onlyRole(accessManager.ADMIN_ROLE()) {\r\n\r\n    }\r\n}\r\n",
  "sourcePath": "C:\\Users\\jugli\\Desktop\\uno\\uno-contracts-copy\\contracts\\apps\\quickswap\\UnoAssetRouterQuickswap.sol",
  "compiler": {
    "name": "solc",
    "version": "0.8.10+commit.fc410830.Emscripten.clang"
  },
  "schemaVersion": "3.4.11",
  "updatedAt": "2022-12-20T11:22:27.510Z",
  "devdoc": {
    "kind": "dev",
    "methods": {
      "constructor": {
        "custom:oz-upgrades-unsafe-allow": "constructor"
      },
      "deposit(address,uint256,uint256,uint256,uint256,address)": {
        "details": "Deposits tokens in the given pool. Creates new Farm contract if there isn't one deployed for the {lpStakingPool} and deposits tokens in it. Emits a {Deposit} event.",
        "params": {
          "amountA": "- Token A amount to deposit.",
          "amountAMin": "- Bounds the extent to which the B/A price can go up before the transaction reverts.",
          "amountB": "-  Token B amount to deposit.",
          "amountBMin": "- Bounds the extent to which the A/B price can go up before the transaction reverts.",
          "lpStakingPool": "- Address of the pool to deposit tokens in.",
          "recipient": "- Address which will receive the deposit."
        },
        "returns": {
          "liquidity": "- Total liquidity sent to the farm (in lpTokens).",
          "sentA": "- Token A amount sent to the farm.",
          "sentB": "- Token B amount sent to the farm."
        }
      },
      "depositETH(address,uint256,uint256,uint256,address)": {
        "details": "Autoconverts MATIC into WMATIC and deposits tokens in the given pool. Creates new Farm contract if there isn't one deployed for the {lpStakingPool} and deposits tokens in it. Emits a {Deposit} event.",
        "params": {
          "amountETHMin": "- Bounds the extent to which the WMATIC/TOKEN price can go up before the transaction reverts.",
          "amountToken": "- Token amount to deposit.",
          "amountTokenMin": "- Bounds the extent to which the TOKEN/WMATIC price can go up before the transaction reverts.",
          "lpStakingPool": "- Address of the pool to deposit tokens in.",
          "recipient": "- Address which will receive the deposit."
        },
        "returns": {
          "liquidity": "- Total liquidity sent to the farm (in lpTokens).",
          "sentETH": "- WMATIC amount sent to the farm.",
          "sentToken": "- Token amount sent to the farm."
        }
      },
      "depositLP(address,uint256,address)": {
        "details": "Deposits tokens in the given pool. Creates new Farm contract if there isn't one deployed for the {lpStakingPool} and deposits tokens in it. Emits a {Deposit} event.",
        "params": {
          "amount": "- LP Token amount to deposit.",
          "lpStakingPool": "- Address of the pool to deposit tokens in.",
          "recipient": "- Address which will receive the deposit."
        }
      },
      "depositSingleAsset(address,address,uint256,bytes[2],uint256,uint256,address)": {
        "details": "Deposits single token in the given pool. Creates new Farm contract if there isn't one deployed for the {lpStakingPool}, swaps {token} for pool tokens and deposits them. Emits a {Deposit} event.",
        "params": {
          "amount": "- Amount of token sent.",
          "amountAMin": "- Bounds the extent to which the B/A price can go up before the transaction reverts.",
          "amountBMin": "- Bounds the extent to which the A/B price can go up before the transaction reverts.",
          "lpStakingPool": "- Address of the pool to deposit tokens in.",
          "recipient": "- Address which will receive the deposit.",
          "swapData": "- Parameter with which 1inch router is being called with.",
          "token": "- Address of a token to enter the pool."
        },
        "returns": {
          "liquidity": "- Total liquidity sent to the farm (in lpTokens).",
          "sent": "- Total {token} amount sent to the farm. NOTE: Returns dust left from swap in {token}, but if A/B amounts are not correct also returns dust in pool's tokens."
        }
      },
      "depositSingleETH(address,bytes[2],uint256,uint256,address)": {
        "details": "Deposits single MATIC in the given pool. Creates new Farm contract if there isn't one deployed for the {lpStakingPool}, swaps MATIC for pool tokens and deposits them. Emits a {Deposit} event.",
        "params": {
          "amountAMin": "- Bounds the extent to which the B/A price can go up before the transaction reverts.",
          "amountBMin": "- Bounds the extent to which the A/B price can go up before the transaction reverts.",
          "lpStakingPool": "- Address of the pool to deposit tokens in.",
          "recipient": "- Address which will receive the deposit.",
          "swapData": "- Parameter with which 1inch router is being called with."
        },
        "returns": {
          "liquidity": "- Total liquidity sent to the farm (in lpTokens).",
          "sentETH": "- Total MATIC amount sent to the farm. NOTE: Returns dust left from swap in MATIC, but if A/B amount are not correct also returns dust in pool's tokens."
        }
      },
      "distribute(address,(address[],uint256)[2],(address[],uint256),address)": {
        "details": "Distributes tokens between users. Emits a {Distribute} event.",
        "params": {
          "feeSwapInfo": "- Struct with token array describing swap route (rewardTokenToFeeToken) and minimum amounts of output tokens that must be received for the transaction not to revert.",
          "feeTo": "- Address to collect fees to. Note: This function can only be called by the distributor.",
          "lpStakingPool": "- LP pool to distribute tokens in.",
          "swapInfos": "- Arrays of structs with token arrays describing swap routes (rewardTokenToTokenA, rewardTokenToTokenB) and minimum amounts of output tokens that must be received for the transaction not to revert."
        }
      },
      "getTokens(address)": {
        "details": "Returns addresses of pair of tokens in {lpStakingPool}.",
        "params": {
          "lpStakingPool": "- LP pool to check tokens in."
        },
        "returns": {
          "tokens": "- Tokens addresses."
        }
      },
      "paused()": {
        "details": "Returns true if the contract is paused, and false otherwise."
      },
      "proxiableUUID()": {
        "details": "Implementation of the ERC1822 {proxiableUUID} function. This returns the storage slot used by the implementation. It is used to validate that the this implementation remains valid after an upgrade. IMPORTANT: A proxy pointing at a proxiable contract should not be considered proxiable itself, because this risks bricking a proxy that upgrades to it, by delegating to itself until out of gas. Thus it is critical that this function revert if invoked through a proxy. This is guaranteed by the `notDelegated` modifier."
      },
      "setFee(uint256)": {
        "details": "Change fee amount.",
        "params": {
          "_fee": "-New fee to collect from farms. [10^18 == 100%] Note: This function can only be called by ADMIN_ROLE."
        }
      },
      "totalDeposits(address)": {
        "details": "Returns total amount locked in the pool. Doesn't take pending rewards into account.",
        "params": {
          "lpStakingPool": "- LP pool to check total deposits in."
        },
        "returns": {
          "totalDepositsA": "- Token A deposits.",
          "totalDepositsB": "- Token B deposits.",
          "totalDepositsLP": "- Total deposits (in LP tokens)."
        }
      },
      "upgradeTo(address)": {
        "details": "Upgrade the implementation of the proxy to `newImplementation`. Calls {_authorizeUpgrade}. Emits an {Upgraded} event."
      },
      "upgradeToAndCall(address,bytes)": {
        "details": "Upgrade the implementation of the proxy to `newImplementation`, and subsequently execute the function call encoded in `data`. Calls {_authorizeUpgrade}. Emits an {Upgraded} event."
      },
      "userStake(address,address)": {
        "details": "Returns tokens staked by the {_address} for the given {lpStakingPool}.",
        "params": {
          "_address": "- The address to check stakes for.",
          "lpStakingPool": "- LP pool to check stakes in."
        },
        "returns": {
          "stakeA": "- Token A stake.",
          "stakeB": "- Token B stake.",
          "stakeLP": "- Total user stake(in LP tokens)."
        }
      },
      "withdraw(address,uint256,uint256,uint256,bool,address)": {
        "details": "Withdraws tokens from the given pool. Emits a {Withdraw} event.",
        "params": {
          "amount": "- LP amount to withdraw. ",
          "amountAMin": "- The minimum amount of tokenA that must be received for the transaction not to revert.",
          "amountBMin": "- The minimum amount of tokenB that must be received for the transaction not to revert.",
          "lpStakingPool": "- LP pool to withdraw from.",
          "recipient": "- The address which will receive tokens.",
          "withdrawLP": "- True: Withdraw in LP tokens, False: Withdraw in normal tokens."
        },
        "returns": {
          "amountA": "- Token A amount sent to the {recipient}, 0 if withdrawLP == false.",
          "amountB": "- Token B amount sent to the {recipient}, 0 if withdrawLP == false."
        }
      },
      "withdrawETH(address,uint256,uint256,uint256,address)": {
        "details": "Autoconverts WMATIC into MATIC and withdraws tokens from the pool. Emits a {Withdraw} event.",
        "params": {
          "amount": "- LP amount to withdraw. ",
          "amountETHMin": "- The minimum amount of MATIC that must be received for the transaction not to revert.",
          "amountTokenMin": "- The minimum amount of token that must be received for the transaction not to revert.",
          "lpStakingPool": "- LP pool to withdraw from.",
          "recipient": "- The address which will receive tokens."
        },
        "returns": {
          "amountETH": "- MATIC amount sent to the {recipient}.",
          "amountToken": "- Token amount sent to the {recipient}."
        }
      }
    },
    "stateVariables": {
      "farmFactory": {
        "details": "Contract Variables: farmFactory - The contract that deploys new Farms and links them to {lpStakingPool}s. accessManager - Role manager contract."
      }
    },
    "version": 1
  },
  "userdoc": {
    "kind": "user",
    "methods": {},
    "version": 1
  }
}