{
  "contractName": "UnoAssetRouterBalancer",
  "abi": [
    {
      "inputs": [],
      "stateMutability": "nonpayable",
      "type": "constructor"
    },
    {
      "anonymous": false,
      "inputs": [
        {
          "indexed": false,
          "internalType": "address",
          "name": "previousAdmin",
          "type": "address"
        },
        {
          "indexed": false,
          "internalType": "address",
          "name": "newAdmin",
          "type": "address"
        }
      ],
      "name": "AdminChanged",
      "type": "event"
    },
    {
      "anonymous": false,
      "inputs": [
        {
          "indexed": true,
          "internalType": "address",
          "name": "beacon",
          "type": "address"
        }
      ],
      "name": "BeaconUpgraded",
      "type": "event"
    },
    {
      "anonymous": false,
      "inputs": [
        {
          "indexed": true,
          "internalType": "address",
          "name": "lpPool",
          "type": "address"
        },
        {
          "indexed": true,
          "internalType": "address",
          "name": "sender",
          "type": "address"
        },
        {
          "indexed": true,
          "internalType": "address",
          "name": "recipient",
          "type": "address"
        },
        {
          "indexed": false,
          "internalType": "uint256",
          "name": "amount",
          "type": "uint256"
        }
      ],
      "name": "Deposit",
      "type": "event"
    },
    {
      "anonymous": false,
      "inputs": [
        {
          "indexed": true,
          "internalType": "address",
          "name": "lpPool",
          "type": "address"
        },
        {
          "indexed": false,
          "internalType": "uint256",
          "name": "reward",
          "type": "uint256"
        }
      ],
      "name": "Distribute",
      "type": "event"
    },
    {
      "anonymous": false,
      "inputs": [
        {
          "indexed": false,
          "internalType": "uint256",
          "name": "previousFee",
          "type": "uint256"
        },
        {
          "indexed": false,
          "internalType": "uint256",
          "name": "newFee",
          "type": "uint256"
        }
      ],
      "name": "FeeChanged",
      "type": "event"
    },
    {
      "anonymous": false,
      "inputs": [
        {
          "indexed": false,
          "internalType": "uint8",
          "name": "version",
          "type": "uint8"
        }
      ],
      "name": "Initialized",
      "type": "event"
    },
    {
      "anonymous": false,
      "inputs": [
        {
          "indexed": false,
          "internalType": "address",
          "name": "account",
          "type": "address"
        }
      ],
      "name": "Paused",
      "type": "event"
    },
    {
      "anonymous": false,
      "inputs": [
        {
          "indexed": false,
          "internalType": "address",
          "name": "account",
          "type": "address"
        }
      ],
      "name": "Unpaused",
      "type": "event"
    },
    {
      "anonymous": false,
      "inputs": [
        {
          "indexed": true,
          "internalType": "address",
          "name": "implementation",
          "type": "address"
        }
      ],
      "name": "Upgraded",
      "type": "event"
    },
    {
      "anonymous": false,
      "inputs": [
        {
          "indexed": true,
          "internalType": "address",
          "name": "lpPool",
          "type": "address"
        },
        {
          "indexed": true,
          "internalType": "address",
          "name": "sender",
          "type": "address"
        },
        {
          "indexed": true,
          "internalType": "address",
          "name": "recipient",
          "type": "address"
        },
        {
          "indexed": false,
          "internalType": "uint256",
          "name": "amount",
          "type": "uint256"
        }
      ],
      "name": "Withdraw",
      "type": "event"
    },
    {
      "inputs": [],
      "name": "WMATIC",
      "outputs": [
        {
          "internalType": "address",
          "name": "",
          "type": "address"
        }
      ],
      "stateMutability": "view",
      "type": "function",
      "constant": true
    },
    {
      "inputs": [],
      "name": "accessManager",
      "outputs": [
        {
          "internalType": "contract IUnoAccessManager",
          "name": "",
          "type": "address"
        }
      ],
      "stateMutability": "view",
      "type": "function",
      "constant": true
    },
    {
      "inputs": [],
      "name": "farmFactory",
      "outputs": [
        {
          "internalType": "contract IUnoFarmFactory",
          "name": "",
          "type": "address"
        }
      ],
      "stateMutability": "view",
      "type": "function",
      "constant": true
    },
    {
      "inputs": [],
      "name": "fee",
      "outputs": [
        {
          "internalType": "uint256",
          "name": "",
          "type": "uint256"
        }
      ],
      "stateMutability": "view",
      "type": "function",
      "constant": true
    },
    {
      "inputs": [],
      "name": "paused",
      "outputs": [
        {
          "internalType": "bool",
          "name": "",
          "type": "bool"
        }
      ],
      "stateMutability": "view",
      "type": "function",
      "constant": true
    },
    {
      "inputs": [],
      "name": "proxiableUUID",
      "outputs": [
        {
          "internalType": "bytes32",
          "name": "",
          "type": "bytes32"
        }
      ],
      "stateMutability": "view",
      "type": "function",
      "constant": true
    },
    {
      "inputs": [
        {
          "internalType": "address",
          "name": "newImplementation",
          "type": "address"
        }
      ],
      "name": "upgradeTo",
      "outputs": [],
      "stateMutability": "nonpayable",
      "type": "function"
    },
    {
      "inputs": [
        {
          "internalType": "address",
          "name": "newImplementation",
          "type": "address"
        },
        {
          "internalType": "bytes",
          "name": "data",
          "type": "bytes"
        }
      ],
      "name": "upgradeToAndCall",
      "outputs": [],
      "stateMutability": "payable",
      "type": "function",
      "payable": true
    },
    {
      "stateMutability": "payable",
      "type": "receive",
      "payable": true
    },
    {
      "inputs": [
        {
          "internalType": "address",
          "name": "_accessManager",
          "type": "address"
        },
        {
          "internalType": "address",
          "name": "_farmFactory",
          "type": "address"
        }
      ],
      "name": "initialize",
      "outputs": [],
      "stateMutability": "nonpayable",
      "type": "function"
    },
    {
      "inputs": [
        {
          "internalType": "address",
          "name": "lpPool",
          "type": "address"
        },
        {
          "internalType": "uint256[]",
          "name": "amounts",
          "type": "uint256[]"
        },
        {
          "internalType": "address[]",
          "name": "tokens",
          "type": "address[]"
        },
        {
          "internalType": "uint256",
          "name": "minAmountLP",
          "type": "uint256"
        },
        {
          "internalType": "address",
          "name": "recipient",
          "type": "address"
        }
      ],
      "name": "deposit",
      "outputs": [
        {
          "internalType": "uint256",
          "name": "liquidity",
          "type": "uint256"
        }
      ],
      "stateMutability": "nonpayable",
      "type": "function"
    },
    {
      "inputs": [
        {
          "internalType": "address",
          "name": "lpPool",
          "type": "address"
        },
        {
          "internalType": "uint256[]",
          "name": "amounts",
          "type": "uint256[]"
        },
        {
          "internalType": "address[]",
          "name": "tokens",
          "type": "address[]"
        },
        {
          "internalType": "uint256",
          "name": "minAmountLP",
          "type": "uint256"
        },
        {
          "internalType": "address",
          "name": "recipient",
          "type": "address"
        }
      ],
      "name": "depositETH",
      "outputs": [
        {
          "internalType": "uint256",
          "name": "liquidity",
          "type": "uint256"
        }
      ],
      "stateMutability": "payable",
      "type": "function",
      "payable": true
    },
    {
      "inputs": [
        {
          "internalType": "address",
          "name": "lpPool",
          "type": "address"
        },
        {
          "internalType": "address",
          "name": "token",
          "type": "address"
        },
        {
          "internalType": "uint256",
          "name": "amount",
          "type": "uint256"
        },
        {
          "internalType": "bytes[]",
          "name": "swapData",
          "type": "bytes[]"
        },
        {
          "internalType": "address[]",
          "name": "tokens",
          "type": "address[]"
        },
        {
          "internalType": "uint256",
          "name": "minAmountLP",
          "type": "uint256"
        },
        {
          "internalType": "address",
          "name": "recipient",
          "type": "address"
        }
      ],
      "name": "depositSingleAsset",
      "outputs": [
        {
          "internalType": "uint256",
          "name": "sent",
          "type": "uint256"
        },
        {
          "internalType": "uint256",
          "name": "liquidity",
          "type": "uint256"
        }
      ],
      "stateMutability": "nonpayable",
      "type": "function"
    },
    {
      "inputs": [
        {
          "internalType": "address",
          "name": "lpPool",
          "type": "address"
        },
        {
          "internalType": "bytes[]",
          "name": "swapData",
          "type": "bytes[]"
        },
        {
          "internalType": "address[]",
          "name": "tokens",
          "type": "address[]"
        },
        {
          "internalType": "uint256",
          "name": "minAmountLP",
          "type": "uint256"
        },
        {
          "internalType": "address",
          "name": "recipient",
          "type": "address"
        }
      ],
      "name": "depositSingleETH",
      "outputs": [
        {
          "internalType": "uint256",
          "name": "sentETH",
          "type": "uint256"
        },
        {
          "internalType": "uint256",
          "name": "liquidity",
          "type": "uint256"
        }
      ],
      "stateMutability": "payable",
      "type": "function",
      "payable": true
    },
    {
      "inputs": [
        {
          "internalType": "address",
          "name": "lpPool",
          "type": "address"
        },
        {
          "internalType": "uint256",
          "name": "amount",
          "type": "uint256"
        },
        {
          "internalType": "address",
          "name": "recipient",
          "type": "address"
        }
      ],
      "name": "depositLP",
      "outputs": [],
      "stateMutability": "nonpayable",
      "type": "function"
    },
    {
      "inputs": [
        {
          "internalType": "address",
          "name": "lpPool",
          "type": "address"
        },
        {
          "internalType": "bytes",
          "name": "userData",
          "type": "bytes"
        },
        {
          "internalType": "uint256[]",
          "name": "minAmountsOut",
          "type": "uint256[]"
        },
        {
          "internalType": "bool",
          "name": "withdrawLP",
          "type": "bool"
        },
        {
          "internalType": "address",
          "name": "recipient",
          "type": "address"
        }
      ],
      "name": "withdraw",
      "outputs": [
        {
          "internalType": "uint256[]",
          "name": "amounts",
          "type": "uint256[]"
        },
        {
          "internalType": "uint256",
          "name": "liquidity",
          "type": "uint256"
        }
      ],
      "stateMutability": "nonpayable",
      "type": "function"
    },
    {
      "inputs": [
        {
          "internalType": "address",
          "name": "lpPool",
          "type": "address"
        },
        {
          "internalType": "bytes",
          "name": "userData",
          "type": "bytes"
        },
        {
          "internalType": "uint256[]",
          "name": "minAmountsOut",
          "type": "uint256[]"
        },
        {
          "internalType": "address",
          "name": "recipient",
          "type": "address"
        }
      ],
      "name": "withdrawETH",
      "outputs": [
        {
          "internalType": "uint256[]",
          "name": "amounts",
          "type": "uint256[]"
        },
        {
          "internalType": "uint256",
          "name": "liquidity",
          "type": "uint256"
        }
      ],
      "stateMutability": "nonpayable",
      "type": "function"
    },
    {
      "inputs": [
        {
          "internalType": "address",
          "name": "lpPool",
          "type": "address"
        },
        {
          "components": [
            {
              "components": [
                {
                  "internalType": "bytes32",
                  "name": "poolId",
                  "type": "bytes32"
                },
                {
                  "internalType": "uint256",
                  "name": "assetInIndex",
                  "type": "uint256"
                },
                {
                  "internalType": "uint256",
                  "name": "assetOutIndex",
                  "type": "uint256"
                },
                {
                  "internalType": "uint256",
                  "name": "amount",
                  "type": "uint256"
                },
                {
                  "internalType": "bytes",
                  "name": "userData",
                  "type": "bytes"
                }
              ],
              "internalType": "struct IVault.BatchSwapStep[]",
              "name": "swaps",
              "type": "tuple[]"
            },
            {
              "internalType": "contract IERC20[]",
              "name": "assets",
              "type": "address[]"
            },
            {
              "internalType": "int256[]",
              "name": "limits",
              "type": "int256[]"
            }
          ],
          "internalType": "struct IUnoFarmBalancer.SwapInfo[]",
          "name": "swapInfos",
          "type": "tuple[]"
        },
        {
          "components": [
            {
              "components": [
                {
                  "internalType": "bytes32",
                  "name": "poolId",
                  "type": "bytes32"
                },
                {
                  "internalType": "uint256",
                  "name": "assetInIndex",
                  "type": "uint256"
                },
                {
                  "internalType": "uint256",
                  "name": "assetOutIndex",
                  "type": "uint256"
                },
                {
                  "internalType": "uint256",
                  "name": "amount",
                  "type": "uint256"
                },
                {
                  "internalType": "bytes",
                  "name": "userData",
                  "type": "bytes"
                }
              ],
              "internalType": "struct IVault.BatchSwapStep[]",
              "name": "swaps",
              "type": "tuple[]"
            },
            {
              "internalType": "contract IERC20[]",
              "name": "assets",
              "type": "address[]"
            },
            {
              "internalType": "int256[]",
              "name": "limits",
              "type": "int256[]"
            }
          ],
          "internalType": "struct IUnoFarmBalancer.SwapInfo[]",
          "name": "feeSwapInfos",
          "type": "tuple[]"
        },
        {
          "internalType": "address",
          "name": "feeTo",
          "type": "address"
        }
      ],
      "name": "distribute",
      "outputs": [],
      "stateMutability": "nonpayable",
      "type": "function"
    },
    {
      "inputs": [
        {
          "internalType": "address",
          "name": "_address",
          "type": "address"
        },
        {
          "internalType": "address",
          "name": "lpPool",
          "type": "address"
        }
      ],
      "name": "userStake",
      "outputs": [
        {
          "internalType": "uint256",
          "name": "",
          "type": "uint256"
        }
      ],
      "stateMutability": "view",
      "type": "function",
      "constant": true
    },
    {
      "inputs": [
        {
          "internalType": "address",
          "name": "lpPool",
          "type": "address"
        }
      ],
      "name": "totalDeposits",
      "outputs": [
        {
          "internalType": "uint256",
          "name": "",
          "type": "uint256"
        }
      ],
      "stateMutability": "view",
      "type": "function",
      "constant": true
    },
    {
      "inputs": [
        {
          "internalType": "address",
          "name": "lpPool",
          "type": "address"
        }
      ],
      "name": "getTokens",
      "outputs": [
        {
          "internalType": "contract IERC20[]",
          "name": "tokens",
          "type": "address[]"
        }
      ],
      "stateMutability": "view",
      "type": "function",
      "constant": true
    },
    {
      "inputs": [
        {
          "internalType": "uint256",
          "name": "_fee",
          "type": "uint256"
        }
      ],
      "name": "setFee",
      "outputs": [],
      "stateMutability": "nonpayable",
      "type": "function"
    },
    {
      "inputs": [],
      "name": "pause",
      "outputs": [],
      "stateMutability": "nonpayable",
      "type": "function"
    },
    {
      "inputs": [],
      "name": "unpause",
      "outputs": [],
      "stateMutability": "nonpayable",
      "type": "function"
    }
  ],
  "bytecode": "0x60a0604052306080523480156200001557600080fd5b506200002062000026565b62000156565b6200003260ff62000035565b50565b60008054610100900460ff1615620000ce578160ff1660011480156200006e57506200006c306200014760201b62002aef1760201c565b155b620000c65760405162461bcd60e51b815260206004820152602e602482015260008051602062004dc883398151915260448201526d191e481a5b9a5d1a585b1a5e995960921b60648201526084015b60405180910390fd5b506000919050565b60005460ff8084169116106200012d5760405162461bcd60e51b815260206004820152602e602482015260008051602062004dc883398151915260448201526d191e481a5b9a5d1a585b1a5e995960921b6064820152608401620000bd565b506000805460ff191660ff92909216919091179055600190565b6001600160a01b03163b151590565b608051614c3a6200018e600039600081816104ac015281816104ec01528181610fe10152818161102101526117f70152614c3a6000f3fe6080604052600436106101445760003560e01c80635c975abb116100b6578063ddca3f431161006f578063ddca3f43146103ea578063e940325614610400578063e9b72ac714610420578063ef16ef761461044e578063f1d446211461046e578063fdcb60681461048157600080fd5b80635c975abb1461033257806369fe0e2d146103555780636d25e175146103755780638456cb59146103955780638463b4ce146103aa578063d280b941146103ca57600080fd5b8063485cc95511610108578063485cc955146102695780634d95cad9146102895780634f1ef286146102c95780634fc4cc39146102dc57806351bdca3e146102ef57806352d1902d1461031d57600080fd5b80633659cfe6146101ad5780633dbd3de3146101cd5780633f4ba83a14610207578063450efe211461021c57806346dafa2f1461024957600080fd5b366101a85733730d500b1d8e8ef31e21c99d1db9a6444d3adf1270146101a65760405162461bcd60e51b81526020600482015260126024820152714f4e4c595f4143434550545f574d4154494360701b60448201526064015b60405180910390fd5b005b600080fd5b3480156101b957600080fd5b506101a66101c8366004613b9a565b6104a1565b3480156101d957600080fd5b506101ed6101e8366004613c02565b610581565b604080519283526020830191909152015b60405180910390f35b34801561021357600080fd5b506101a6610ae3565b34801561022857600080fd5b5061023c610237366004613b9a565b610b9a565b6040516101fe9190613cbc565b34801561025557600080fd5b506101a6610264366004613d09565b610c85565b34801561027557600080fd5b506101a6610284366004613d4b565b610e9b565b34801561029557600080fd5b506102b1730d500b1d8e8ef31e21c99d1db9a6444d3adf127081565b6040516001600160a01b0390911681526020016101fe565b6101a66102d7366004613dca565b610fd6565b6101ed6102ea366004613e71565b6110a7565b3480156102fb57600080fd5b5061030f61030a366004613d4b565b6116e9565b6040519081526020016101fe565b34801561032957600080fd5b5061030f6117ea565b34801561033e57600080fd5b5060335460ff1660405190151581526020016101fe565b34801561036157600080fd5b506101a6610370366004613f10565b61189d565b34801561038157600080fd5b5060c9546102b1906001600160a01b031681565b3480156103a157600080fd5b506101a6611a30565b3480156103b657600080fd5b5061030f6103c5366004613f4c565b611ae7565b3480156103d657600080fd5b506101a66103e536600461403c565b611e4b565b3480156103f657600080fd5b5061030f60cb5481565b34801561040c57600080fd5b5061030f61041b366004613b9a565b612092565b34801561042c57600080fd5b5061044061043b366004614111565b612187565b6040516101fe929190614198565b34801561045a57600080fd5b506104406104693660046141c8565b6124dd565b61030f61047c366004613f4c565b612650565b34801561048d57600080fd5b5060ca546102b1906001600160a01b031681565b306001600160a01b037f00000000000000000000000000000000000000000000000000000000000000001614156104ea5760405162461bcd60e51b815260040161019d90614260565b7f00000000000000000000000000000000000000000000000000000000000000006001600160a01b0316610533600080516020614b9e833981519152546001600160a01b031690565b6001600160a01b0316146105595760405162461bcd60e51b815260040161019d906142ac565b61056281612afe565b6040805160008082526020820190925261057e91839190612c04565b50565b60008061059060335460ff1690565b156105ad5760405162461bcd60e51b815260040161019d906142f8565b600089116105ed5760405162461bcd60e51b815260206004820152600d60248201526c1393d7d513d2d15397d4d15395609a1b604482015260640161019d565b86851461060c5760405162461bcd60e51b815260040161019d90614322565b60c95460405163f9d9331d60e01b81526001600160a01b038d81166004830152600092169063f9d9331d90602401602060405180830381865afa158015610657573d6000803e3d6000fd5b505050506040513d601f19601f8201168201806040525081019061067b9190614359565b90506001600160a01b0381166106fd5760c954604051621849e360e61b81526001600160a01b038e811660048301529091169063061278c0906024016020604051808303816000875af11580156106d6573d6000803e3d6000fd5b505050506040513d601f19601f820116820180604052508101906106fa9190614359565b90505b6107126001600160a01b038c1633308d612d6f565b60405163095ea7b360e01b8152731111111254eeb25477b68fb85ed929f73a9605826004820152602481018b90526001600160a01b038c169063095ea7b3906044016020604051808303816000875af1158015610773573d6000803e3d6000fd5b505050506040513d601f19601f820116820180604052508101906107979190614376565b506000866001600160401b038111156107b2576107b2613d84565b6040519080825280602002602001820160405280156107db578160200160208202803683370190505b508b9450905060001960005b888110156108f1578e6001600160a01b03168a8a8381811061080b5761080b614393565b90506020020160208101906108209190613b9a565b6001600160a01b03161415610834576108df565b8d6001600160a01b03168a8a8381811061085057610850614393565b90506020020160208101906108659190613b9a565b6001600160a01b0316141561087c578091506108df565b6000806108ab8e8e8581811061089457610894614393565b90506020028101906108a691906143a9565b612de0565b91509150818584815181106108c2576108c2614393565b602002602001018181525050808f6108da9190614405565b9e5050505b806108e98161441c565b9150506107e7565b50806000191461091f578b82828151811061090e5761090e614393565b602002602001018181525050610945565b8b156109455761092f8c86614405565b94506109456001600160a01b038e16338e612ebf565b506000826001600160a01b0316633e0dc34e6040518163ffffffff1660e01b8152600401602060405180830381865afa158015610986573d6000803e3d6000fd5b505050506040513d601f19601f820116820180604052508101906109aa9190614437565b90506109b7898983612eef565b610a27828a8a8a876001600160a01b0316633737bcb46040518163ffffffff1660e01b8152600401602060405180830381865afa1580156109fc573d6000803e3d6000fd5b505050506040513d601f19601f82011682018060405250810190610a209190614359565b8689613077565b604051636e553f6560e01b8152600481018290526001600160a01b03888116602483015291955090841690636e553f6590604401600060405180830381600087803b158015610a7557600080fd5b505af1158015610a89573d6000803e3d6000fd5b50505050856001600160a01b0316336001600160a01b03168f6001600160a01b0316600080516020614bbe83398151915287604051610aca91815260200190565b60405180910390a4505050995099975050505050505050565b60ca54604051632474521560e21b81527f65d7a28e3265b37a6474929f336521b332c1681b933f6cb9f3376673440d862a60048201819052336024830152916001600160a01b0316906391d1485490604401602060405180830381865afa158015610b52573d6000803e3d6000fd5b505050506040513d601f19601f82011682018060405250810190610b769190614376565b610b925760405162461bcd60e51b815260040161019d90614450565b61057e613556565b60606000826001600160a01b03166338fff2d06040518163ffffffff1660e01b8152600401602060405180830381865afa158015610bdc573d6000803e3d6000fd5b505050506040513d601f19601f82011682018060405250810190610c009190614437565b604051631f29a8cd60e31b81526004810182905290915073ba12222222228d8ba445958a75a0704d566bf2c89063f94d466890602401600060405180830381865afa158015610c53573d6000803e3d6000fd5b505050506040513d6000823e601f3d908101601f19168201604052610c7b91908101906144e5565b5090949350505050565b60335460ff1615610ca85760405162461bcd60e51b815260040161019d906142f8565b60008211610ce85760405162461bcd60e51b815260206004820152600d60248201526c1393d7d513d2d15397d4d15395609a1b604482015260640161019d565b60c95460405163f9d9331d60e01b81526001600160a01b038581166004830152600092169063f9d9331d90602401602060405180830381865afa158015610d33573d6000803e3d6000fd5b505050506040513d601f19601f82011682018060405250810190610d579190614359565b90506001600160a01b038116610dd95760c954604051621849e360e61b81526001600160a01b0386811660048301529091169063061278c0906024016020604051808303816000875af1158015610db2573d6000803e3d6000fd5b505050506040513d601f19601f82011682018060405250810190610dd69190614359565b90505b610dee6001600160a01b038516338386612d6f565b604051636e553f6560e01b8152600481018490526001600160a01b038381166024830152821690636e553f6590604401600060405180830381600087803b158015610e3857600080fd5b505af1158015610e4c573d6000803e3d6000fd5b50505050816001600160a01b0316336001600160a01b0316856001600160a01b0316600080516020614bbe83398151915286604051610e8d91815260200190565b60405180910390a450505050565b6000610ea760016135e9565b90508015610ebf576000805461ff0019166101001790555b6001600160a01b038316610f0a5760405162461bcd60e51b81526020600482015260126024820152712120a22fa0a1a1a2a9a9afa6a0a720a3a2a960711b604482015260640161019d565b6001600160a01b038216610f535760405162461bcd60e51b815260206004820152601060248201526f4241445f4641524d5f464143544f525960801b604482015260640161019d565b610f5b613676565b60ca80546001600160a01b038086166001600160a01b03199283161790925560c98054928516929091169190911790558015610fd1576000805461ff0019169055604051600181527f7f26b83ff96e1f2b6a682f133852f6798a09c465da95921460cefb38474024989060200160405180910390a15b505050565b306001600160a01b037f000000000000000000000000000000000000000000000000000000000000000016141561101f5760405162461bcd60e51b815260040161019d90614260565b7f00000000000000000000000000000000000000000000000000000000000000006001600160a01b0316611068600080516020614b9e833981519152546001600160a01b031690565b6001600160a01b03161461108e5760405162461bcd60e51b815260040161019d906142ac565b61109782612afe565b6110a382826001612c04565b5050565b6000806110b660335460ff1690565b156110d35760405162461bcd60e51b815260040161019d906142f8565b600034116111135760405162461bcd60e51b815260206004820152600d60248201526c1393d7d350551250d7d4d15395609a1b604482015260640161019d565b8685146111325760405162461bcd60e51b815260040161019d90614322565b60c95460405163f9d9331d60e01b81526001600160a01b038b81166004830152600092169063f9d9331d90602401602060405180830381865afa15801561117d573d6000803e3d6000fd5b505050506040513d601f19601f820116820180604052508101906111a19190614359565b90506001600160a01b0381166112235760c954604051621849e360e61b81526001600160a01b038c811660048301529091169063061278c0906024016020604051808303816000875af11580156111fc573d6000803e3d6000fd5b505050506040513d601f19601f820116820180604052508101906112209190614359565b90505b6000349050730d500b1d8e8ef31e21c99d1db9a6444d3adf12706001600160a01b031663d0e30db0826040518263ffffffff1660e01b81526004016000604051808303818588803b15801561127757600080fd5b505af115801561128b573d6000803e3d6000fd5b505060405163095ea7b360e01b8152731111111254eeb25477b68fb85ed929f73a960582600482015260248101859052730d500b1d8e8ef31e21c99d1db9a6444d3adf1270935063095ea7b3925060440190506020604051808303816000875af11580156112fd573d6000803e3d6000fd5b505050506040513d601f19601f820116820180604052508101906113219190614376565b506000876001600160401b0381111561133c5761133c613d84565b604051908082528060200260200182016040528015611365578160200160208202803683370190505b509194508491905060001960005b89811015611477578d6001600160a01b03168b8b8381811061139757611397614393565b90506020020160208101906113ac9190613b9a565b6001600160a01b031614156113c057611465565b730d500b1d8e8ef31e21c99d1db9a6444d3adf12708b8b838181106113e7576113e7614393565b90506020020160208101906113fc9190613b9a565b6001600160a01b0316141561141357809150611465565b60008061142b8f8f8581811061089457610894614393565b90925090508115611456578185848151811061144957611449614393565b6020026020010181815250505b6114608187614405565b955050505b8061146f8161441c565b915050611373565b5080600019146114a5578282828151811061149457611494614393565b60200260200101818152505061154c565b821561154c576114b58387614405565b604051632e1a7d4d60e01b815260048101859052909650730d500b1d8e8ef31e21c99d1db9a6444d3adf127090632e1a7d4d90602401600060405180830381600087803b15801561150557600080fd5b505af1158015611519573d6000803e3d6000fd5b505060405133925085156108fc02915085906000818181858888f1935050505015801561154a573d6000803e3d6000fd5b505b506000836001600160a01b0316633e0dc34e6040518163ffffffff1660e01b8152600401602060405180830381865afa15801561158d573d6000803e3d6000fd5b505050506040513d601f19601f820116820180604052508101906115b19190614437565b90506115be8a8a83612eef565b61162e828b8b8b886001600160a01b0316633737bcb46040518163ffffffff1660e01b8152600401602060405180830381865afa158015611603573d6000803e3d6000fd5b505050506040513d601f19601f820116820180604052508101906116279190614359565b868a613077565b604051636e553f6560e01b8152600481018290526001600160a01b03898116602483015291965090851690636e553f6590604401600060405180830381600087803b15801561167c57600080fd5b505af1158015611690573d6000803e3d6000fd5b50505050866001600160a01b0316336001600160a01b03168e6001600160a01b0316600080516020614bbe833981519152886040516116d191815260200190565b60405180910390a45050505097509795505050505050565b60c95460405163f9d9331d60e01b81526001600160a01b038381166004830152600092839291169063f9d9331d90602401602060405180830381865afa158015611737573d6000803e3d6000fd5b505050506040513d601f19601f8201168201806040525081019061175b9190614359565b90506001600160a01b038116156117de57604051630103c92b60e01b81526001600160a01b038581166004830152821690630103c92b90602401602060405180830381865afa1580156117b2573d6000803e3d6000fd5b505050506040513d601f19601f820116820180604052508101906117d69190614437565b9150506117e4565b60009150505b92915050565b6000306001600160a01b037f0000000000000000000000000000000000000000000000000000000000000000161461188a5760405162461bcd60e51b815260206004820152603860248201527f555550535570677261646561626c653a206d757374206e6f742062652063616c60448201527f6c6564207468726f7567682064656c656761746563616c6c0000000000000000606482015260840161019d565b50600080516020614b9e83398151915290565b60ca60009054906101000a90046001600160a01b03166001600160a01b03166375b238fc6040518163ffffffff1660e01b8152600401602060405180830381865afa1580156118f0573d6000803e3d6000fd5b505050506040513d601f19601f820116820180604052508101906119149190614437565b60ca54604051632474521560e21b8152600481018390523360248201526001600160a01b03909116906391d1485490604401602060405180830381865afa158015611963573d6000803e3d6000fd5b505050506040513d601f19601f820116820180604052508101906119879190614376565b6119a35760405162461bcd60e51b815260040161019d90614450565b670de0b6b3a76400008211156119e55760405162461bcd60e51b81526020600482015260076024820152664241445f46454560c81b604482015260640161019d565b8160cb54146110a35760cb5460408051918252602082018490527f5fc463da23c1b063e66f9e352006a7fbe8db7223c455dc429e881a2dfe2f94f1910160405180910390a15060cb55565b60ca54604051632474521560e21b81527f65d7a28e3265b37a6474929f336521b332c1681b933f6cb9f3376673440d862a60048201819052336024830152916001600160a01b0316906391d1485490604401602060405180830381865afa158015611a9f573d6000803e3d6000fd5b505050506040513d601f19601f82011682018060405250810190611ac39190614376565b611adf5760405162461bcd60e51b815260040161019d90614450565b61057e6136a7565b6000611af560335460ff1690565b15611b125760405162461bcd60e51b815260040161019d906142f8565b85518414611b325760405162461bcd60e51b815260040161019d90614322565b60c95460405163f9d9331d60e01b81526001600160a01b038981166004830152600092169063f9d9331d90602401602060405180830381865afa158015611b7d573d6000803e3d6000fd5b505050506040513d601f19601f82011682018060405250810190611ba19190614359565b90506001600160a01b038116611c235760c954604051621849e360e61b81526001600160a01b038a811660048301529091169063061278c0906024016020604051808303816000875af1158015611bfc573d6000803e3d6000fd5b505050506040513d601f19601f82011682018060405250810190611c209190614359565b90505b6000816001600160a01b0316633e0dc34e6040518163ffffffff1660e01b8152600401602060405180830381865afa158015611c63573d6000803e3d6000fd5b505050506040513d601f19601f82011682018060405250810190611c879190614437565b9050611c94878783612eef565b60005b86811015611d84576000898281518110611cb357611cb3614393565b60200260200101511115611d7257896001600160a01b0316888883818110611cdd57611cdd614393565b9050602002016020810190611cf29190613b9a565b6001600160a01b03161415611d1b57888181518110611d1357611d13614393565b50611d729050565b611d7233308b8481518110611d3257611d32614393565b60200260200101518b8b86818110611d4c57611d4c614393565b9050602002016020810190611d619190613b9a565b6001600160a01b0316929190612d6f565b80611d7c8161441c565b915050611c97565b50611d94888888888d8688613077565b604051636e553f6560e01b8152600481018290526001600160a01b03868116602483015291945090831690636e553f6590604401600060405180830381600087803b158015611de257600080fd5b505af1158015611df6573d6000803e3d6000fd5b50505050836001600160a01b0316336001600160a01b03168a6001600160a01b0316600080516020614bbe83398151915286604051611e3791815260200190565b60405180910390a450509695505050505050565b60335460ff1615611e6e5760405162461bcd60e51b815260040161019d906142f8565b60ca54604051632474521560e21b81527ffbd454f36a7e1a388bd6fc3ab10d434aa4578f811acbbcf33afb1c697486313c60048201819052336024830152916001600160a01b0316906391d1485490604401602060405180830381865afa158015611edd573d6000803e3d6000fd5b505050506040513d601f19601f82011682018060405250810190611f019190614376565b611f1d5760405162461bcd60e51b815260040161019d90614450565b60c95460405163f9d9331d60e01b81526001600160a01b038981166004830152600092169063f9d9331d90602401602060405180830381865afa158015611f68573d6000803e3d6000fd5b505050506040513d601f19601f82011682018060405250810190611f8c9190614359565b90506001600160a01b038116611fb45760405162461bcd60e51b815260040161019d906145b2565b6040805180820182526001600160a01b03858116825260cb5460208301529151630faa5a1f60e01b8152600092841691630faa5a1f91611fff918c918c918c918c919060040161483e565b6020604051808303816000875af115801561201e573d6000803e3d6000fd5b505050506040513d601f19601f820116820180604052508101906120429190614437565b9050886001600160a01b03167fc1d32ad5cca423e7dda2123dbf8c482f8e77d00b631c06e903a47f2cec1334df8260405161207f91815260200190565b60405180910390a2505050505050505050565b60c95460405163f9d9331d60e01b81526001600160a01b038381166004830152600092839291169063f9d9331d90602401602060405180830381865afa1580156120e0573d6000803e3d6000fd5b505050506040513d601f19601f820116820180604052508101906121049190614359565b90506001600160a01b0381161561217e57806001600160a01b031663168a48226040518163ffffffff1660e01b8152600401602060405180830381865afa158015612153573d6000803e3d6000fd5b505050506040513d601f19601f820116820180604052508101906121779190614437565b9392505050565b50600092915050565b60c95460405163f9d9331d60e01b81526001600160a01b03888116600483015260609260009283929091169063f9d9331d90602401602060405180830381865afa1580156121d9573d6000803e3d6000fd5b505050506040513d601f19601f820116820180604052508101906121fd9190614359565b90506001600160a01b0381166122255760405162461bcd60e51b815260040161019d906145b2565b60405163174f832960e11b81526001600160a01b03821690632e9f06529061225e908b908b908b908b906000903390309060040161488f565b6000604051808303816000875af115801561227d573d6000803e3d6000fd5b505050506040513d6000823e601f3d908101601f191682016040526122a59190810190614900565b909350915060006122b58a610b9a565b905060005b8151811015612478578481815181106122d5576122d5614393565b6020026020010151600014156122ea57612466565b730d500b1d8e8ef31e21c99d1db9a6444d3adf12706001600160a01b031682828151811061231a5761231a614393565b60200260200101516001600160a01b031614612385576123808686838151811061234657612346614393565b602002602001015184848151811061236057612360614393565b60200260200101516001600160a01b0316612ebf9092919063ffffffff16565b612466565b730d500b1d8e8ef31e21c99d1db9a6444d3adf12706001600160a01b0316632e1a7d4d8683815181106123ba576123ba614393565b60200260200101516040518263ffffffff1660e01b81526004016123e091815260200190565b600060405180830381600087803b1580156123fa57600080fd5b505af115801561240e573d6000803e3d6000fd5b50505050856001600160a01b03166108fc86838151811061243157612431614393565b60200260200101519081150290604051600060405180830381858888f19350505050158015612464573d6000803e3d6000fd5b505b806124708161441c565b9150506122ba565b50846001600160a01b0316336001600160a01b03168b6001600160a01b03167f3115d1449a7b732c986cba18244e897a450f61e1bb8d589cd2e69e6c8924f9f7866040516124c891815260200190565b60405180910390a45050965096945050505050565b60c95460405163f9d9331d60e01b81526001600160a01b03898116600483015260609260009283929091169063f9d9331d90602401602060405180830381865afa15801561252f573d6000803e3d6000fd5b505050506040513d601f19601f820116820180604052508101906125539190614359565b90506001600160a01b03811661257b5760405162461bcd60e51b815260040161019d906145b2565b60405163174f832960e11b81526001600160a01b03821690632e9f0652906125b3908c908c908c908c908c9033908d9060040161488f565b6000604051808303816000875af11580156125d2573d6000803e3d6000fd5b505050506040513d6000823e601f3d908101601f191682016040526125fa9190810190614900565b60405181815291945092506001600160a01b038581169133918d16907f3115d1449a7b732c986cba18244e897a450f61e1bb8d589cd2e69e6c8924f9f79060200160405180910390a45097509795505050505050565b600061265e60335460ff1690565b1561267b5760405162461bcd60e51b815260040161019d906142f8565b600034116126bb5760405162461bcd60e51b815260206004820152600d60248201526c1393d7d350551250d7d4d15395609a1b604482015260640161019d565b855184146126db5760405162461bcd60e51b815260040161019d90614322565b60c95460405163f9d9331d60e01b81526001600160a01b038981166004830152600092169063f9d9331d90602401602060405180830381865afa158015612726573d6000803e3d6000fd5b505050506040513d601f19601f8201168201806040525081019061274a9190614359565b90506001600160a01b0381166127cc5760c954604051621849e360e61b81526001600160a01b038a811660048301529091169063061278c0906024016020604051808303816000875af11580156127a5573d6000803e3d6000fd5b505050506040513d601f19601f820116820180604052508101906127c99190614359565b90505b6000816001600160a01b0316633e0dc34e6040518163ffffffff1660e01b8152600401602060405180830381865afa15801561280c573d6000803e3d6000fd5b505050506040513d601f19601f820116820180604052508101906128309190614437565b905061283d878783612eef565b6000730d500b1d8e8ef31e21c99d1db9a6444d3adf12706001600160a01b031663d0e30db0346040518263ffffffff1660e01b81526004016000604051808303818588803b15801561288e57600080fd5b505af11580156128a2573d6000803e3d6000fd5b505050505060005b878110156129e4578a6001600160a01b03168989838181106128ce576128ce614393565b90506020020160208101906128e39190613b9a565b6001600160a01b0316141561290c5789818151811061290457612904614393565b506129d29050565b730d500b1d8e8ef31e21c99d1db9a6444d3adf127089898381811061293357612933614393565b90506020020160208101906129489190613b9a565b6001600160a01b0316141561297f57348a828151811061296a5761296a614393565b602002602001018181525050600191506129d2565b60008a828151811061299357612993614393565b602002602001015111156129d2576129d233308c84815181106129b8576129b8614393565b60200260200101518c8c86818110611d4c57611d4c614393565b806129dc8161441c565b9150506128aa565b5080612a285760405162461bcd60e51b81526020600482015260136024820152724e4f5f574d415449435f494e5f544f4b454e5360681b604482015260640161019d565b612a37898989898e8789613077565b604051636e553f6560e01b8152600481018290526001600160a01b03878116602483015291955090841690636e553f6590604401600060405180830381600087803b158015612a8557600080fd5b505af1158015612a99573d6000803e3d6000fd5b50505050846001600160a01b0316336001600160a01b03168b6001600160a01b0316600080516020614bbe83398151915287604051612ada91815260200190565b60405180910390a45050509695505050505050565b6001600160a01b03163b151590565b60ca60009054906101000a90046001600160a01b03166001600160a01b03166375b238fc6040518163ffffffff1660e01b8152600401602060405180830381865afa158015612b51573d6000803e3d6000fd5b505050506040513d601f19601f82011682018060405250810190612b759190614437565b60ca54604051632474521560e21b8152600481018390523360248201526001600160a01b03909116906391d1485490604401602060405180830381865afa158015612bc4573d6000803e3d6000fd5b505050506040513d601f19601f82011682018060405250810190612be89190614376565b6110a35760405162461bcd60e51b815260040161019d90614450565b7f4910fdfa16fed3260ed0e7147f7cc6da11a60208b5b9406d12a635614ffd91435460ff1615612c3757610fd1836136ff565b826001600160a01b03166352d1902d6040518163ffffffff1660e01b8152600401602060405180830381865afa925050508015612c91575060408051601f3d908101601f19168201909252612c8e91810190614437565b60015b612cf45760405162461bcd60e51b815260206004820152602e60248201527f45524331393637557067726164653a206e657720696d706c656d656e7461746960448201526d6f6e206973206e6f74205555505360901b606482015260840161019d565b600080516020614b9e8339815191528114612d635760405162461bcd60e51b815260206004820152602960248201527f45524331393637557067726164653a20756e737570706f727465642070726f786044820152681a58589b195555525160ba1b606482015260840161019d565b50610fd183838361379b565b6040516001600160a01b0380851660248301528316604482015260648101829052612dda9085906323b872dd60e01b906084015b60408051601f198184030181529190526020810180516001600160e01b03166001600160e01b0319909316929092179091526137c0565b50505050565b600080600080731111111254eeb25477b68fb85ed929f73a9605826001600160a01b03168686604051612e14929190614946565b6000604051808303816000865af19150503d8060008114612e51576040519150601f19603f3d011682016040523d82523d6000602084013e612e56565b606091505b509150915081612e9e5760405162461bcd60e51b815260206004820152601360248201527214d5d05417d393d517d4d550d0d154d4d19553606a1b604482015260640161019d565b80806020019051810190612eb29190614956565b9097909650945050505050565b6040516001600160a01b038316602482015260448101829052610fd190849063a9059cbb60e01b90606401612da3565b604051631f29a8cd60e31b81526004810182905260009073ba12222222228d8ba445958a75a0704d566bf2c89063f94d466890602401600060405180830381865afa158015612f42573d6000803e3d6000fd5b505050506040513d6000823e601f3d908101601f19168201604052612f6a91908101906144e5565b505080519091508314612fb35760405162461bcd60e51b81526020600482015260116024820152700848288bea89e968a9ca6be988a9c8ea89607b1b604482015260640161019d565b60005b8381101561307057818181518110612fd057612fd0614393565b60200260200101516001600160a01b0316858583818110612ff357612ff3614393565b90506020020160208101906130089190613b9a565b6001600160a01b03161461305e5760405162461bcd60e51b815260206004820152601c60248201527f544f4b454e535f4e4f545f4d415443485f504f4f4c5f544f4b454e5300000000604482015260640161019d565b806130688161441c565b915050612fb6565b5050505050565b60008060005b895181101561319e5760008a828151811061309a5761309a614393565b6020026020010151111561318c57816130b257600191505b8888828181106130c4576130c4614393565b90506020020160208101906130d99190613b9a565b6001600160a01b031663095ea7b373ba12222222228d8ba445958a75a0704d566bf2c88c848151811061310e5761310e614393565b60200260200101516040518363ffffffff1660e01b81526004016131479291906001600160a01b03929092168252602082015260400190565b6020604051808303816000875af1158015613166573d6000803e3d6000fd5b505050506040513d601f19601f8201168201806040525081019061318a9190614376565b505b806131968161441c565b91505061307d565b50806131e45760405162461bcd60e51b81526020600482015260156024820152741393d7d3125455525112551657d41493d592511151605a1b604482015260640161019d565b6060836001600160a01b0316636f0f68f26040518163ffffffff1660e01b8152600401602060405180830381865afa158015613224573d6000803e3d6000fd5b505050506040513d601f19601f820116820180604052508101906132489190614376565b1561337157600060018b5161325d9190614405565b6001600160401b0381111561327457613274613d84565b60405190808252806020026020018201604052801561329d578160200160208202803683370190505b5090506000805b8a81101561334257886001600160a01b03168c8c838181106132c8576132c8614393565b90506020020160208101906132dd9190613b9a565b6001600160a01b031614613330578c81815181106132fd576132fd614393565b602002602001015183838151811061331757613317614393565b602090810291909101015261332d60018361497a565b91505b8061333a8161441c565b9150506132a4565b506001828a60405160200161335993929190614992565b60405160208183030381529060405292505050613399565b60018a8860405160200161338793929190614992565b60405160208183030381529060405290505b6040516370a0823160e01b81526001600160a01b038581166004830152600091908816906370a0823190602401602060405180830381865afa1580156133e3573d6000803e3d6000fd5b505050506040513d601f19601f820116820180604052508101906134079190614437565b9050600060405180608001604052808c8c808060200260200160405190810160405280939291908181526020018383602002808284376000920182905250938552505050602082018f905260408083018790526060909201525163172b958560e31b815290915073ba12222222228d8ba445958a75a0704d566bf2c89063b95cac289061349e908a9030908b908790600401614a16565b600060405180830381600087803b1580156134b857600080fd5b505af11580156134cc573d6000803e3d6000fd5b50506040516370a0823160e01b81526001600160a01b0389811660048301528593508b1691506370a0823190602401602060405180830381865afa158015613518573d6000803e3d6000fd5b505050506040513d601f19601f8201168201806040525081019061353c9190614437565b6135469190614405565b9c9b505050505050505050505050565b60335460ff1661359f5760405162461bcd60e51b815260206004820152601460248201527314185d5cd8589b194e881b9bdd081c185d5cd95960621b604482015260640161019d565b6033805460ff191690557f5db9ee0a495bf2e6ff9c91a7834c1ba4fdd244a5e8aa4e537bd38aeae4b073aa335b6040516001600160a01b03909116815260200160405180910390a1565b60008054610100900460ff1615613630578160ff16600114801561360c5750303b155b6136285760405162461bcd60e51b815260040161019d90614ad5565b506000919050565b60005460ff8084169116106136575760405162461bcd60e51b815260040161019d90614ad5565b506000805460ff191660ff92909216919091179055600190565b919050565b600054610100900460ff1661369d5760405162461bcd60e51b815260040161019d90614b23565b6136a5613892565b565b60335460ff16156136ca5760405162461bcd60e51b815260040161019d906142f8565b6033805460ff191660011790557f62e78cea01bee320cd4e420270b5ea74000d11b0c9f74754ebdbfc544b05a2586135cc3390565b6001600160a01b0381163b61376c5760405162461bcd60e51b815260206004820152602d60248201527f455243313936373a206e657720696d706c656d656e746174696f6e206973206e60448201526c1bdd08184818dbdb9d1c9858dd609a1b606482015260840161019d565b600080516020614b9e83398151915280546001600160a01b0319166001600160a01b0392909216919091179055565b6137a4836138c5565b6000825111806137b15750805b15610fd157612dda8383613905565b6000613815826040518060400160405280602081526020017f5361666545524332303a206c6f772d6c6576656c2063616c6c206661696c6564815250856001600160a01b03166139f99092919063ffffffff16565b805190915015610fd157808060200190518101906138339190614376565b610fd15760405162461bcd60e51b815260206004820152602a60248201527f5361666545524332303a204552433230206f7065726174696f6e20646964206e6044820152691bdd081cdd58d8d9595960b21b606482015260840161019d565b600054610100900460ff166138b95760405162461bcd60e51b815260040161019d90614b23565b6033805460ff19169055565b6138ce816136ff565b6040516001600160a01b038216907fbc7cd75a20ee27fd9adebab32041f755214dbc6bffa90cc0225b39da2e5c2d3b90600090a250565b60606001600160a01b0383163b61396d5760405162461bcd60e51b815260206004820152602660248201527f416464726573733a2064656c65676174652063616c6c20746f206e6f6e2d636f6044820152651b9d1c9858dd60d21b606482015260840161019d565b600080846001600160a01b0316846040516139889190614b6e565b600060405180830381855af49150503d80600081146139c3576040519150601f19603f3d011682016040523d82523d6000602084013e6139c8565b606091505b50915091506139f08282604051806060016040528060278152602001614bde60279139613a10565b95945050505050565b6060613a088484600085613a49565b949350505050565b60608315613a1f575081612177565b825115613a2f5782518084602001fd5b8160405162461bcd60e51b815260040161019d9190614b8a565b606082471015613aaa5760405162461bcd60e51b815260206004820152602660248201527f416464726573733a20696e73756666696369656e742062616c616e636520666f6044820152651c8818d85b1b60d21b606482015260840161019d565b6001600160a01b0385163b613b015760405162461bcd60e51b815260206004820152601d60248201527f416464726573733a2063616c6c20746f206e6f6e2d636f6e7472616374000000604482015260640161019d565b600080866001600160a01b03168587604051613b1d9190614b6e565b60006040518083038185875af1925050503d8060008114613b5a576040519150601f19603f3d011682016040523d82523d6000602084013e613b5f565b606091505b5091509150613b6f828286613a10565b979650505050505050565b6001600160a01b038116811461057e57600080fd5b803561367181613b7a565b600060208284031215613bac57600080fd5b813561217781613b7a565b60008083601f840112613bc957600080fd5b5081356001600160401b03811115613be057600080fd5b6020830191508360208260051b8501011115613bfb57600080fd5b9250929050565b600080600080600080600080600060e08a8c031215613c2057600080fd5b8935613c2b81613b7a565b985060208a0135613c3b81613b7a565b975060408a0135965060608a01356001600160401b0380821115613c5e57600080fd5b613c6a8d838e01613bb7565b909850965060808c0135915080821115613c8357600080fd5b50613c908c828d01613bb7565b90955093505060a08a0135915060c08a0135613cab81613b7a565b809150509295985092959850929598565b6020808252825182820181905260009190848201906040850190845b81811015613cfd5783516001600160a01b031683529284019291840191600101613cd8565b50909695505050505050565b600080600060608486031215613d1e57600080fd5b8335613d2981613b7a565b9250602084013591506040840135613d4081613b7a565b809150509250925092565b60008060408385031215613d5e57600080fd5b8235613d6981613b7a565b91506020830135613d7981613b7a565b809150509250929050565b634e487b7160e01b600052604160045260246000fd5b604051601f8201601f191681016001600160401b0381118282101715613dc257613dc2613d84565b604052919050565b60008060408385031215613ddd57600080fd5b8235613de881613b7a565b91506020838101356001600160401b0380821115613e0557600080fd5b818601915086601f830112613e1957600080fd5b813581811115613e2b57613e2b613d84565b613e3d601f8201601f19168501613d9a565b91508082528784828501011115613e5357600080fd5b80848401858401376000848284010152508093505050509250929050565b600080600080600080600060a0888a031215613e8c57600080fd5b8735613e9781613b7a565b965060208801356001600160401b0380821115613eb357600080fd5b613ebf8b838c01613bb7565b909850965060408a0135915080821115613ed857600080fd5b50613ee58a828b01613bb7565b909550935050606088013591506080880135613f0081613b7a565b8091505092959891949750929550565b600060208284031215613f2257600080fd5b5035919050565b60006001600160401b03821115613f4257613f42613d84565b5060051b60200190565b60008060008060008060a08789031215613f6557600080fd5b8635613f7081613b7a565b95506020878101356001600160401b0380821115613f8d57600080fd5b818a0191508a601f830112613fa157600080fd5b8135613fb4613faf82613f29565b613d9a565b81815260059190911b8301840190848101908d831115613fd357600080fd5b938501935b82851015613ff157843582529385019390850190613fd8565b9950505060408a013592508083111561400957600080fd5b505061401789828a01613bb7565b9095509350506060870135915061403060808801613b8f565b90509295509295509295565b6000806000806000806080878903121561405557600080fd5b863561406081613b7a565b955060208701356001600160401b038082111561407c57600080fd5b6140888a838b01613bb7565b909750955060408901359150808211156140a157600080fd5b506140ae89828a01613bb7565b90945092505060608701356140c281613b7a565b809150509295509295509295565b60008083601f8401126140e257600080fd5b5081356001600160401b038111156140f957600080fd5b602083019150836020828501011115613bfb57600080fd5b6000806000806000806080878903121561412a57600080fd5b863561413581613b7a565b955060208701356001600160401b038082111561415157600080fd5b6140888a838b016140d0565b600081518084526020808501945080840160005b8381101561418d57815187529582019590820190600101614171565b509495945050505050565b6040815260006141ab604083018561415d565b90508260208301529392505050565b801515811461057e57600080fd5b600080600080600080600060a0888a0312156141e357600080fd5b87356141ee81613b7a565b965060208801356001600160401b038082111561420a57600080fd5b6142168b838c016140d0565b909850965060408a013591508082111561422f57600080fd5b5061423c8a828b01613bb7565b9095509350506060880135614250816141ba565b91506080880135613f0081613b7a565b6020808252602c908201527f46756e6374696f6e206d7573742062652063616c6c6564207468726f7567682060408201526b19195b1959d85d1958d85b1b60a21b606082015260800190565b6020808252602c908201527f46756e6374696f6e206d7573742062652063616c6c6564207468726f7567682060408201526b6163746976652070726f787960a01b606082015260800190565b60208082526010908201526f14185d5cd8589b194e881c185d5cd95960821b604082015260600190565b6020808252601e908201527f494e5055545f504152414d535f4c454e475448535f4e4f545f4d415443480000604082015260600190565b60006020828403121561436b57600080fd5b815161217781613b7a565b60006020828403121561438857600080fd5b8151612177816141ba565b634e487b7160e01b600052603260045260246000fd5b6000808335601e198436030181126143c057600080fd5b8301803591506001600160401b038211156143da57600080fd5b602001915036819003821315613bfb57600080fd5b634e487b7160e01b600052601160045260246000fd5b600082821015614417576144176143ef565b500390565b6000600019821415614430576144306143ef565b5060010190565b60006020828403121561444957600080fd5b5051919050565b60208082526015908201527410d05313115497d393d517d055551213d492569151605a1b604082015260600190565b600082601f83011261449057600080fd5b815160206144a0613faf83613f29565b82815260059290921b840181019181810190868411156144bf57600080fd5b8286015b848110156144da57805183529183019183016144c3565b509695505050505050565b6000806000606084860312156144fa57600080fd5b83516001600160401b038082111561451157600080fd5b818601915086601f83011261452557600080fd5b81516020614535613faf83613f29565b82815260059290921b8401810191818101908a84111561455457600080fd5b948201945b8386101561457b57855161456c81613b7a565b82529482019490820190614559565b9189015191975090935050508082111561459457600080fd5b506145a18682870161447f565b925050604084015190509250925092565b6020808252600f908201526e4641524d5f4e4f545f45584953545360881b604082015260600190565b6000808335601e198436030181126145f257600080fd5b83016020810192503590506001600160401b0381111561461157600080fd5b8060051b3603831315613bfb57600080fd5b81835281816020850137506000828201602090810191909152601f909101601f19169091010190565b8183526000602080850194508260005b8581101561418d57813561466f81613b7a565b6001600160a01b03168752958201959082019060010161465c565b8183526000602080850194508260005b8581101561418d5781358752958201959082019060010161469a565b8183526000602084018094508360051b81018360005b86811015613cfd578383038852605e19863603018235126146ec57600080fd5b858235016146fa81826145db565b606086526060860181815260808701905060808260051b8801018360005b848110156147d857898303607f1901845236869003609e190182351261473d57600080fd5b85823501803584526020810135602085015260408101356040850152606081013560608501526080810135601e1982360301811261477a57600080fd5b6001600160401b0382820135111561479157600080fd5b8181013536038213156147a357600080fd5b60a060808601526147c060a0860183830135602085850101614623565b60209687019690955093909301925050600101614718565b50506147e760208601866145db565b9450925087810360208901526147fe81858561464c565b935050505061481060408301836145db565b9250858203604087015261482582848361468a565b60209b8c019b90965094909401935050506001016146cc565b6080815260006148526080830187896146b6565b82810360208401526148658186886146b6565b84516001600160a01b03166040850152602090940151606090930192909252509095945050505050565b60a0815260006148a360a08301898b614623565b82810360208401528681526001600160fb1b038711156148c257600080fd5b8660051b80896020840137600091016020019081529415156040830152506001600160a01b0392831660608201529116608090910152949350505050565b6000806040838503121561491357600080fd5b82516001600160401b0381111561492957600080fd5b6149358582860161447f565b925050602083015190509250929050565b8183823760009101908152919050565b6000806040838503121561496957600080fd5b505080516020909101519092909150565b6000821982111561498d5761498d6143ef565b500190565b60ff841681526060602082015260006149ae606083018561415d565b9050826040830152949350505050565b60005b838110156149d95781810151838201526020016149c1565b83811115612dda5750506000910152565b60008151808452614a028160208601602086016149be565b601f01601f19169290920160200192915050565b8481526000602060018060a01b038087168285015280861660408501526080606085015261010084018551608080870152818151808452610120880191508583019350600092505b80831015614a8057835185168252928501926001929092019190850190614a5e565b50848801519450607f199350838782030160a0880152614aa0818661415d565b94505050506040850151818584030160c0860152614abe83826149ea565b9250505060608401516144da60e085018215159052565b6020808252602e908201527f496e697469616c697a61626c653a20636f6e747261637420697320616c72656160408201526d191e481a5b9a5d1a585b1a5e995960921b606082015260800190565b6020808252602b908201527f496e697469616c697a61626c653a20636f6e7472616374206973206e6f74206960408201526a6e697469616c697a696e6760a81b606082015260800190565b60008251614b808184602087016149be565b9190910192915050565b60208152600061217760208301846149ea56fe360894a13ba1a3210667c828492db98dca3e2076cc3735a920a3ca505d382bbc7cfff908a4b583f36430b25d75964c458d8ede8a99bd61be750e97ee1b2f3a96416464726573733a206c6f772d6c6576656c2064656c65676174652063616c6c206661696c6564a26469706673582212201527be4908e6d153377816eaeca5036e37f29d0f0960682161a17d66261bfa8764736f6c634300080a0033496e697469616c697a61626c653a20636f6e747261637420697320616c726561",
  "immutableReferences": {
    "561": [
      {
        "length": 32,
        "start": 1196
      },
      {
        "length": 32,
        "start": 1260
      },
      {
        "length": 32,
        "start": 4065
      },
      {
        "length": 32,
        "start": 4129
      },
      {
        "length": 32,
        "start": 6135
      }
    ]
  },
  "source": "// SPDX-License-Identifier: MIT\r\npragma solidity 0.8.10;\r\n\r\nimport {IUnoFarmBalancer as Farm} from './interfaces/IUnoFarmBalancer.sol'; \r\nimport '../../interfaces/IUnoFarmFactory.sol';\r\nimport '../../interfaces/IUnoAccessManager.sol'; \r\nimport '../../interfaces/IVault.sol'; \r\nimport \"../../interfaces/IBasePool.sol\";\r\nimport '../../interfaces/IWMATIC.sol';\r\nimport '@openzeppelin/contracts-upgradeable/token/ERC20/IERC20Upgradeable.sol';\r\nimport '@openzeppelin/contracts-upgradeable/token/ERC20/utils/SafeERC20Upgradeable.sol';\r\nimport '@openzeppelin/contracts-upgradeable/proxy/utils/Initializable.sol';\r\nimport '@openzeppelin/contracts-upgradeable/security/PausableUpgradeable.sol';\r\nimport '@openzeppelin/contracts-upgradeable/proxy/utils/UUPSUpgradeable.sol';\r\n\r\ncontract UnoAssetRouterBalancer is Initializable, PausableUpgradeable, UUPSUpgradeable {\r\n    using SafeERC20Upgradeable for IERC20Upgradeable;\r\n\r\n    /**\r\n     * @dev Contract Variables:\r\n     * farmFactory - The contract that deploys new Farms and links them to {lpPool}s.\r\n     * accessManager - Role manager contract.\r\n     */\r\n    IUnoFarmFactory public farmFactory;\r\n    IUnoAccessManager public accessManager;\r\n\r\n    bytes32 private constant DISTRIBUTOR_ROLE = keccak256('DISTRIBUTOR_ROLE');\r\n    bytes32 private constant PAUSER_ROLE = keccak256('PAUSER_ROLE');\r\n\r\n    IVault constant private Vault = IVault(0xBA12222222228d8Ba445958a75a0704d566BF2C8);\r\n\r\n    uint256 public fee;\r\n\r\n    address public constant WMATIC = 0x0d500B1d8E8eF31E21C99d1Db9A6444d3ADf1270;\r\n    address private constant OneInchRouter = 0x1111111254EEB25477B68fb85Ed929f73A960582;\r\n\r\n    event Deposit(address indexed lpPool, address indexed sender, address indexed recipient, uint256 amount);\r\n    event Withdraw(address indexed lpPool, address indexed sender, address indexed recipient, uint256 amount);\r\n    event Distribute(address indexed lpPool, uint256 reward);\r\n\r\n    event FeeChanged(uint256 previousFee, uint256 newFee);\r\n\r\n    modifier onlyRole(bytes32 role){\r\n        require(accessManager.hasRole(role, msg.sender), 'CALLER_NOT_AUTHORIZED');\r\n        _;\r\n    }\r\n\r\n    // ============ Methods ============\r\n\r\n    /// @custom:oz-upgrades-unsafe-allow constructor\r\n    constructor() {\r\n        _disableInitializers();\r\n    }\r\n\r\n    function initialize(address _accessManager, address _farmFactory) external initializer{\r\n        require (_accessManager != address(0), 'BAD_ACCESS_MANAGER');\r\n        require (_farmFactory != address(0), 'BAD_FARM_FACTORY');\r\n\r\n        __Pausable_init();\r\n        accessManager = IUnoAccessManager(_accessManager);\r\n        farmFactory = IUnoFarmFactory(_farmFactory);\r\n    }\r\n\r\n    receive() external payable {\r\n        require(msg.sender == WMATIC, 'ONLY_ACCEPT_WMATIC'); // only accept ETH via fallback from the WMATIC contract\r\n    }\r\n\r\n    /**\r\n     * @dev Deposits tokens in the given pool. Creates new Farm contract if there isn't one deployed for the {lpPool} and deposits tokens in it.\r\n     * @param lpPool - Address of the pool to deposit tokens in.\r\n     * @param amounts - Amounts of tokens to deposit.\r\n     * @param tokens - Tokens to deposit.\r\n     * @param minAmountLP - Minimum LP the user will receive from {tokens} deposit.\r\n     * @param recipient - Address which will receive the deposit.\r\n\r\n     * @return liquidity - Total liquidity sent to the farm (in lpTokens).\r\n     */\r\n    function deposit(address lpPool, uint256[] memory amounts, address[] calldata tokens, uint256 minAmountLP, address recipient) external whenNotPaused returns(uint256 liquidity){\r\n        require (amounts.length == tokens.length, 'INPUT_PARAMS_LENGTHS_NOT_MATCH');\r\n        Farm farm = Farm(farmFactory.Farms(lpPool));\r\n        if(farm == Farm(address(0))){\r\n            farm = Farm(farmFactory.createFarm(lpPool));\r\n        }\r\n\r\n        bytes32 poolId = farm.poolId();\r\n        _checkTokens(tokens, poolId);\r\n\r\n        for (uint256 i = 0; i < tokens.length; i++) {\r\n            if(amounts[i] > 0){\r\n                if(tokens[i] == lpPool){\r\n                    amounts[i] == 0;\r\n                    continue;\r\n                }\r\n                IERC20Upgradeable(tokens[i]).safeTransferFrom(msg.sender, address(this), amounts[i]);\r\n            }\r\n        }\r\n\r\n        liquidity = _addLiquidity(amounts, tokens, minAmountLP, lpPool, poolId, farm);\r\n        farm.deposit(liquidity, recipient);\r\n\r\n        emit Deposit(lpPool, msg.sender, recipient, liquidity); \r\n    }\r\n\r\n    /**\r\n     * @dev Autoconverts MATIC into WMATIC and deposits tokens in the given pool. Creates new Farm contract if there isn't one deployed for the {lpPool} and deposits tokens in it.\r\n     * @param lpPool - Address of the pool to deposit tokens in.\r\n     * @param amounts - Amounts of tokens to deposit.\r\n     * @param tokens - Tokens to deposit.\r\n     * @param minAmountLP - Minimum LP the user will receive from {tokens} deposit.\r\n     * @param recipient - Address which will receive the deposit.\r\n\r\n     * @return liquidity - Total liquidity sent to the farm (in lpTokens).\r\n     */\r\n    function depositETH(address lpPool, uint256[] memory amounts, address[] calldata tokens, uint256 minAmountLP, address recipient) external payable whenNotPaused returns(uint256 liquidity){\r\n        require (msg.value > 0, \"NO_MATIC_SENT\");\r\n        require (amounts.length == tokens.length, 'INPUT_PARAMS_LENGTHS_NOT_MATCH');\r\n        Farm farm = Farm(farmFactory.Farms(lpPool));\r\n        if(farm == Farm(address(0))){\r\n            farm = Farm(farmFactory.createFarm(lpPool));\r\n        }\r\n\r\n        bytes32 poolId = farm.poolId();\r\n        _checkTokens(tokens, poolId);\r\n\r\n        bool WMATICInTokens;\r\n        IWMATIC(WMATIC).deposit{value: msg.value}();\r\n        for (uint256 i = 0; i < tokens.length; i++) {\r\n            if(tokens[i] == lpPool){\r\n                amounts[i] == 0;\r\n                continue;\r\n            }\r\n            if(tokens[i] == WMATIC){\r\n                amounts[i] = msg.value;\r\n                WMATICInTokens = true;\r\n                continue;\r\n            }\r\n            if(amounts[i] > 0){\r\n                IERC20Upgradeable(tokens[i]).safeTransferFrom(msg.sender, address(this), amounts[i]);\r\n            }\r\n        }\r\n        require(WMATICInTokens, \"NO_WMATIC_IN_TOKENS\");\r\n\r\n        liquidity = _addLiquidity(amounts, tokens, minAmountLP, lpPool, poolId, farm);\r\n        farm.deposit(liquidity, recipient);\r\n        \r\n        emit Deposit(lpPool, msg.sender, recipient, liquidity); \r\n    }\r\n\r\n    /**\r\n     * @dev Deposits single token in the given pool. Creates new Farm contract if there isn't one deployed for the {lpPool}, swaps {token} for pool tokens and deposits them. Emits a {Deposit} event.\r\n     * @param lpPool - Address of the pool to deposit tokens in.\r\n     * @param token  - Address of a token to enter the pool.\r\n     * @param amount - Amount of token sent.\r\n     * @param swapData - Parameter with which 1inch router is being called with.\r\n     * @param tokens - Tokens to deposit.\r\n     * @param minAmountLP - Minimum LP the user will receive from {tokens} deposit.\r\n     * @param recipient - Address which will receive the deposit.\r\n     \r\n     * @return sent - Total {token} amount sent to the farm. \r\n     * @return liquidity - Total liquidity sent to the farm (in lpTokens).\r\n     */\r\n    function depositSingleAsset(address lpPool, address token, uint256 amount, bytes[] calldata swapData, address[] calldata tokens, uint256 minAmountLP, address recipient) external whenNotPaused returns(uint256 sent, uint256 liquidity){\r\n        require (amount > 0, \"NO_TOKEN_SENT\");\r\n        require (swapData.length == tokens.length, 'INPUT_PARAMS_LENGTHS_NOT_MATCH');\r\n        Farm farm = Farm(farmFactory.Farms(lpPool));\r\n        if(farm == Farm(address(0))){\r\n            farm = Farm(farmFactory.createFarm(lpPool));\r\n        }\r\n\r\n        IERC20Upgradeable(token).safeTransferFrom(msg.sender, address(this), amount);\r\n        IERC20Upgradeable(token).approve(OneInchRouter, amount);\r\n\r\n        uint256[] memory amounts = new uint256[](tokens.length);\r\n        {\r\n        sent = amount;\r\n        int256 tokenIndex = -1;\r\n        for (uint256 i = 0; i < tokens.length; i++) {\r\n            if (tokens[i] == lpPool) {\r\n                continue;\r\n            }\r\n            if (tokens[i] == token) {\r\n                tokenIndex = int(i);\r\n                continue;\r\n            }\r\n            (uint256 returnAmount, uint256 spentAmount) = _swap(swapData[i]);\r\n            amounts[i] = returnAmount;\r\n            amount -= spentAmount;\r\n        }\r\n\r\n        if (tokenIndex != -1) {\r\n            amounts[uint256(tokenIndex)] = amount;\r\n        } else if (amount > 0) {\r\n            sent -= amount;\r\n            IERC20Upgradeable(token).safeTransfer(msg.sender, amount);\r\n        }\r\n        }\r\n\r\n        bytes32 poolId = farm.poolId();\r\n        _checkTokens(tokens, poolId); //Have to do this check later to avoid stack too deep error\r\n        \r\n        liquidity = _addLiquidity(amounts, tokens, minAmountLP, farm.lpPool(), poolId, farm);//Have to use farm.lpPool() instead of lpPool to avoid stack too deep error\r\n        farm.deposit(liquidity, recipient);\r\n\r\n        emit Deposit(lpPool, msg.sender, recipient, liquidity);\r\n    }\r\n\r\n    /**\r\n     * @dev Deposits single MATIC in the given pool. Creates new Farm contract if there isn't one deployed for the {lpPool}, swaps MATIC for pool tokens and deposits them. Emits a {Deposit} event.\r\n     * @param lpPool - Address of the pool to deposit tokens in.\r\n     * @param swapData - Parameter with which 1inch router is being called with.\r\n     * @param tokens - Tokens to deposit.\r\n     * @param minAmountLP - Minimum LP the user will receive from {tokens} deposit.\r\n     * @param recipient - Address which will receive the deposit.\r\n     \r\n     * @return sentETH - Total MATIC amount sent to the farm. \r\n     * @return liquidity - Total liquidity sent to the farm (in lpTokens).\r\n     */\r\n    function depositSingleETH(address lpPool, bytes[] calldata swapData, address[] calldata tokens, uint256 minAmountLP, address recipient) external payable whenNotPaused returns(uint256 sentETH, uint256 liquidity){\r\n        require (msg.value > 0, \"NO_MATIC_SENT\");\r\n        require (swapData.length == tokens.length, 'INPUT_PARAMS_LENGTHS_NOT_MATCH');\r\n        Farm farm = Farm(farmFactory.Farms(lpPool));\r\n        if(farm == Farm(address(0))){\r\n            farm = Farm(farmFactory.createFarm(lpPool));\r\n        }\r\n\r\n        uint256 amount = msg.value;\r\n        IWMATIC(WMATIC).deposit{value: amount}();\r\n        IERC20Upgradeable(WMATIC).approve(OneInchRouter, amount);\r\n\r\n        uint256[] memory amounts = new uint256[](tokens.length);\r\n        {\r\n        sentETH = amount;\r\n        int256 wmaticIndex = -1;\r\n        for (uint256 i = 0; i < tokens.length; i++) {\r\n            if (tokens[i] == lpPool) {\r\n                continue;\r\n            }\r\n            if (tokens[i] == WMATIC) {\r\n                wmaticIndex = int(i);\r\n                continue;\r\n            }\r\n            (uint256 returnAmount, uint256 spentAmount) = _swap(swapData[i]);\r\n            if (returnAmount > 0) {\r\n                amounts[i] = returnAmount;\r\n            }\r\n            amount -= spentAmount;\r\n        }\r\n\r\n        if (wmaticIndex != -1) {\r\n            amounts[uint(wmaticIndex)] = amount;\r\n        } else if (amount > 0){\r\n            sentETH -= amount;\r\n            IWMATIC(WMATIC).withdraw(amount);\r\n            payable(msg.sender).transfer(amount);\r\n        }\r\n        }\r\n\r\n        bytes32 poolId = farm.poolId();\r\n        _checkTokens(tokens, poolId); //Have to do this check later to avoid stack too deep error\r\n\r\n        liquidity = _addLiquidity(amounts, tokens, minAmountLP, farm.lpPool(), poolId, farm);//Have to use farm.lpPool() instead of lpPool to avoid stack too deep error\r\n        farm.deposit(liquidity, recipient);\r\n\r\n        emit Deposit(lpPool, msg.sender, recipient, liquidity);\r\n    }\r\n\r\n    /**\r\n     * @dev Deposits tokens in the given pool. Creates new Farm contract if there isn't one deployed for the {lpPair} and deposits tokens in it. Emits a {Deposit} event.\r\n     * @param lpPool - Address of the pool to deposit tokens in.\r\n     * @param amount - LP Token amount to deposit.\r\n     * @param recipient - Address which will receive the deposit.\r\n     */\r\n    function depositLP(address lpPool, uint256 amount, address recipient) external whenNotPaused{\r\n        require(amount > 0, \"NO_TOKEN_SENT\");\r\n        Farm farm = Farm(farmFactory.Farms(lpPool));\r\n        if(farm == Farm(address(0))){\r\n            farm = Farm(farmFactory.createFarm(lpPool));\r\n        }\r\n\r\n        IERC20Upgradeable(lpPool).safeTransferFrom(msg.sender, address(farm), amount);\r\n        farm.deposit(amount, recipient);\r\n\r\n        emit Deposit(lpPool, msg.sender, recipient, amount); \r\n    }\r\n\r\n    /** \r\n     * @dev Withdraws tokens from the given pool. \r\n     * @param lpPool - LP pool to withdraw from.\r\n     * @param userData - If withdrawLP provide LP amount to withdraw, else use Balancer pool exit userData.\r\n     * @param minAmountsOut - Minimum token amounts the user will receive.\r\n     * @param withdrawLP - True: Withdraw in LP tokens, False: Withdraw in normal tokens.\r\n     * @param recipient - The address which will receive tokens.\r\n\r\n     * @return amounts - Token amounts sent to the {recipient}.\r\n     * @return liquidity - Total liquidity sent to the user (in lpTokens).\r\n     */ \r\n    function withdraw(address lpPool, bytes calldata userData, uint256[] calldata minAmountsOut, bool withdrawLP, address recipient) external returns(uint256[] memory amounts, uint256 liquidity){ \r\n        Farm farm = Farm(farmFactory.Farms(lpPool));\r\n        require(farm != Farm(address(0)),'FARM_NOT_EXISTS');\r\n\r\n        (amounts, liquidity) = farm.withdraw(userData, minAmountsOut, withdrawLP, msg.sender, recipient);\r\n        emit Withdraw(lpPool, msg.sender, recipient, liquidity);\r\n    }\r\n\r\n    /** \r\n     * @dev Autoconverts WMATIC into MATIC and withdraws tokens from the given pool. \r\n     * @param lpPool - LP pool to withdraw from.\r\n     * @param userData -  Balancer pool exit userData.\r\n     * @param minAmountsOut - Minimum token amounts the user will receive.\r\n     * @param recipient - The address which will receive tokens.\r\n\r\n     * @return amounts - Token amounts sent to the {recipient}.\r\n     * @return liquidity - Total liquidity sent to the user (in lpTokens).\r\n     */ \r\n    function withdrawETH(address lpPool, bytes calldata userData, uint256[] calldata minAmountsOut, address recipient) external returns(uint256[] memory amounts, uint256 liquidity){ \r\n        Farm farm = Farm(farmFactory.Farms(lpPool));\r\n        require(farm != Farm(address(0)),'FARM_NOT_EXISTS');\r\n\r\n        (amounts, liquidity) = farm.withdraw(userData, minAmountsOut, false, msg.sender, address(this));\r\n\r\n        IERC20[] memory tokens = getTokens(lpPool);\r\n        for (uint256 i = 0; i < tokens.length; i++) {\r\n            if (amounts[i] == 0){\r\n                continue;\r\n            }\r\n            if (address(tokens[i]) != WMATIC) {\r\n                IERC20Upgradeable(address(tokens[i])).safeTransfer(recipient, amounts[i]);\r\n                continue;\r\n            }\r\n            IWMATIC(WMATIC).withdraw(amounts[i]);\r\n            payable(recipient).transfer(amounts[i]);\r\n        }\r\n        emit Withdraw(lpPool, msg.sender, recipient, liquidity);  \r\n    }\r\n\r\n    /**\r\n     * @dev Distributes tokens between users for a single {Farms[lpPool]}.\r\n     * @param lpPool - The pool to distribute. \r\n     * @param swapInfos - The data used to swap reward tokens for the needed tokens.\r\n     * @param feeSwapInfos - The data used to swap reward tokens for fees.\r\n     * @param feeTo - Address to collect fees to.\r\n     *\r\n     * Note: This function can only be called by the distributor.\r\n     */\r\n    function distribute(\r\n        address lpPool,\r\n        Farm.SwapInfo[] calldata swapInfos,\r\n        Farm.SwapInfo[] calldata feeSwapInfos,\r\n        address feeTo\r\n    ) external whenNotPaused onlyRole(DISTRIBUTOR_ROLE) {\r\n        Farm farm = Farm(farmFactory.Farms(lpPool));\r\n        require(farm != Farm(address(0)), 'FARM_NOT_EXISTS');\r\n\r\n        uint256 reward = farm.distribute(swapInfos, feeSwapInfos, Farm.FeeInfo(feeTo, fee));\r\n        emit Distribute(lpPool, reward);\r\n    }\r\n\r\n    /**\r\n     * @dev Returns LP tokens staked by the {_address} for the given {lpPool}.\r\n     * @param _address - The address to check stakes for.\r\n     * @param lpPool - LP pool to check stakes in.\r\n\r\n     * @return Total user stake(in LP tokens).\r\n     */\r\n   function userStake(address _address, address lpPool) external view returns(uint256){\r\n        Farm farm = Farm(farmFactory.Farms(lpPool));\r\n        if (farm != Farm(address(0))) {\r\n            return farm.userBalance(_address);\r\n        }\r\n        return 0;\r\n    }\r\n\r\n    /**\r\n     * @dev Returns total amount locked in the pool. Doesn't take pending rewards into account.\r\n     * @param lpPool - LP pool to check total deposits in.\r\n\r\n     * @return Total deposits (in LP tokens).\r\n     */\r\n    function totalDeposits(address lpPool) external view returns (uint256) {\r\n        Farm farm = Farm(farmFactory.Farms(lpPool));\r\n        if (farm != Farm(address(0))) {\r\n            return farm.getTotalDeposits();\r\n        }\r\n        return 0;\r\n    }\r\n\r\n    /**\r\n     * @dev Returns addresses of tokens in {lpPool}.\r\n     * @param lpPool - LP pool to check tokens in.\r\n\r\n     * @return tokens - Token addresses.\r\n     */  \r\n    function getTokens(address lpPool) public view returns(IERC20[] memory tokens){\r\n        bytes32 poolId = IBasePool(lpPool).getPoolId();\r\n        (tokens, , ) = Vault.getPoolTokens(poolId);\r\n    }\r\n\r\n    /**\r\n     * @dev Deposits assets to router\r\n     */ \r\n    function _addLiquidity(\r\n        uint256[] memory amounts, \r\n        address[] calldata tokens,\r\n        uint256 minAmountLP,\r\n        address lpPool,\r\n        bytes32 poolId,\r\n        Farm farm\r\n    ) internal returns(uint256 liquidity){\r\n        bool joinPool;\r\n        for (uint256 i = 0; i < amounts.length; i++) {\r\n            if(amounts[i] > 0){\r\n                if(!joinPool){\r\n                    joinPool = true;\r\n                }\r\n                IERC20Upgradeable(tokens[i]).approve(address(Vault), amounts[i]);\r\n            }\r\n        }\r\n        require (joinPool, 'NO_LIQUIDITY_PROVIDED');\r\n\r\n        bytes memory userData;\r\n        if(farm.isComposable()){\r\n            //If pool has pre-minted BPT then don't include those in userData.\r\n            uint256[] memory _amounts = new uint256[](amounts.length - 1);\r\n            uint256 _i = 0;\r\n            for (uint256 i = 0; i < tokens.length; i++) {\r\n                if(tokens[i] != lpPool){\r\n                    _amounts[_i] = amounts[i];\r\n                    _i += 1;\r\n                }\r\n            }\r\n            userData = abi.encode(1, _amounts, minAmountLP);\r\n        } else {\r\n            userData = abi.encode(1, amounts, minAmountLP);\r\n        }\r\n\r\n        uint256 amountBefore = IERC20(lpPool).balanceOf(address(farm));\r\n        IVault.JoinPoolRequest memory joinPoolRequest = IVault.JoinPoolRequest(tokens, amounts, userData, false);\r\n        Vault.joinPool(poolId, address(this), address(farm), joinPoolRequest);\r\n\r\n        liquidity = IERC20(lpPool).balanceOf(address(farm)) - amountBefore;\r\n    }\r\n\r\n    /**\r\n     * @dev Compares passed calldata tokens with real pool tokens\r\n     */ \r\n    function _checkTokens(\r\n        address[] calldata tokens,\r\n        bytes32 poolId\r\n    ) internal view {\r\n        (IERC20[] memory _tokens,,) = Vault.getPoolTokens(poolId);\r\n        require (tokens.length == _tokens.length, 'BAD_TOKENS_LENGTH');\r\n        for (uint256 i = 0; i < tokens.length; i++) {\r\n            require (tokens[i] == address(_tokens[i]), 'TOKENS_NOT_MATCH_POOL_TOKENS');\r\n        }\r\n    }\r\n\r\n    /**\r\n     * @dev Swaps assets using 1inch exchange.\r\n     */  \r\n    function _swap(bytes calldata swapData) internal returns(uint256 returnAmount, uint256 spentAmount){\r\n        (bool success, bytes memory data) = OneInchRouter.call(swapData);\r\n        require(success, \"SWAP_NOT_SUCCESSFUL\");\r\n        (returnAmount, spentAmount) = abi.decode(data, (uint256, uint256));\r\n    }\r\n\r\n    /**\r\n     * @dev Change fee amount.\r\n     * @param _fee -New fee to collect from farms. [10^18 == 100%]\r\n     *\r\n     * Note: This function can only be called by ADMIN_ROLE.\r\n     */ \r\n    function setFee(uint256 _fee) external onlyRole(accessManager.ADMIN_ROLE()){\r\n        require (_fee <= 1 ether, \"BAD_FEE\");\r\n        if(fee != _fee){\r\n            emit FeeChanged(fee, _fee); \r\n            fee = _fee;\r\n        }\r\n    }\r\n \r\n    function pause() external onlyRole(PAUSER_ROLE) {\r\n        _pause();\r\n    }\r\n \r\n    function unpause() external onlyRole(PAUSER_ROLE) {\r\n        _unpause();\r\n    }\r\n\r\n    function _authorizeUpgrade(address) internal override onlyRole(accessManager.ADMIN_ROLE()) {\r\n\r\n    }\r\n}\r\n",
  "sourcePath": "C:\\Users\\jugli\\Desktop\\uno\\uno-contracts\\contracts\\apps\\balancer\\UnoAssetRouterBalancer.sol",
  "compiler": {
    "name": "solc",
    "version": "0.8.10+commit.fc410830.Emscripten.clang"
  },
  "schemaVersion": "3.4.11",
  "updatedAt": "2022-12-22T15:51:09.422Z",
  "networkType": "ethereum",
  "devdoc": {
    "kind": "dev",
    "methods": {
      "constructor": {
        "custom:oz-upgrades-unsafe-allow": "constructor"
      },
      "deposit(address,uint256[],address[],uint256,address)": {
        "details": "Deposits tokens in the given pool. Creates new Farm contract if there isn't one deployed for the {lpPool} and deposits tokens in it.",
        "params": {
          "amounts": "- Amounts of tokens to deposit.",
          "lpPool": "- Address of the pool to deposit tokens in.",
          "minAmountLP": "- Minimum LP the user will receive from {tokens} deposit.",
          "recipient": "- Address which will receive the deposit.",
          "tokens": "- Tokens to deposit."
        },
        "returns": {
          "liquidity": "- Total liquidity sent to the farm (in lpTokens)."
        }
      },
      "depositETH(address,uint256[],address[],uint256,address)": {
        "details": "Autoconverts MATIC into WMATIC and deposits tokens in the given pool. Creates new Farm contract if there isn't one deployed for the {lpPool} and deposits tokens in it.",
        "params": {
          "amounts": "- Amounts of tokens to deposit.",
          "lpPool": "- Address of the pool to deposit tokens in.",
          "minAmountLP": "- Minimum LP the user will receive from {tokens} deposit.",
          "recipient": "- Address which will receive the deposit.",
          "tokens": "- Tokens to deposit."
        },
        "returns": {
          "liquidity": "- Total liquidity sent to the farm (in lpTokens)."
        }
      },
      "depositLP(address,uint256,address)": {
        "details": "Deposits tokens in the given pool. Creates new Farm contract if there isn't one deployed for the {lpPair} and deposits tokens in it. Emits a {Deposit} event.",
        "params": {
          "amount": "- LP Token amount to deposit.",
          "lpPool": "- Address of the pool to deposit tokens in.",
          "recipient": "- Address which will receive the deposit."
        }
      },
      "depositSingleAsset(address,address,uint256,bytes[],address[],uint256,address)": {
        "details": "Deposits single token in the given pool. Creates new Farm contract if there isn't one deployed for the {lpPool}, swaps {token} for pool tokens and deposits them. Emits a {Deposit} event.",
        "params": {
          "amount": "- Amount of token sent.",
          "lpPool": "- Address of the pool to deposit tokens in.",
          "minAmountLP": "- Minimum LP the user will receive from {tokens} deposit.",
          "recipient": "- Address which will receive the deposit.",
          "swapData": "- Parameter with which 1inch router is being called with.",
          "token": "- Address of a token to enter the pool.",
          "tokens": "- Tokens to deposit."
        },
        "returns": {
          "liquidity": "- Total liquidity sent to the farm (in lpTokens).",
          "sent": "- Total {token} amount sent to the farm. "
        }
      },
      "depositSingleETH(address,bytes[],address[],uint256,address)": {
        "details": "Deposits single MATIC in the given pool. Creates new Farm contract if there isn't one deployed for the {lpPool}, swaps MATIC for pool tokens and deposits them. Emits a {Deposit} event.",
        "params": {
          "lpPool": "- Address of the pool to deposit tokens in.",
          "minAmountLP": "- Minimum LP the user will receive from {tokens} deposit.",
          "recipient": "- Address which will receive the deposit.",
          "swapData": "- Parameter with which 1inch router is being called with.",
          "tokens": "- Tokens to deposit."
        },
        "returns": {
          "liquidity": "- Total liquidity sent to the farm (in lpTokens).",
          "sentETH": "- Total MATIC amount sent to the farm. "
        }
      },
      "distribute(address,((bytes32,uint256,uint256,uint256,bytes)[],address[],int256[])[],((bytes32,uint256,uint256,uint256,bytes)[],address[],int256[])[],address)": {
        "details": "Distributes tokens between users for a single {Farms[lpPool]}.",
        "params": {
          "feeSwapInfos": "- The data used to swap reward tokens for fees.",
          "feeTo": "- Address to collect fees to. Note: This function can only be called by the distributor.",
          "lpPool": "- The pool to distribute. ",
          "swapInfos": "- The data used to swap reward tokens for the needed tokens."
        }
      },
      "getTokens(address)": {
        "details": "Returns addresses of tokens in {lpPool}.",
        "params": {
          "lpPool": "- LP pool to check tokens in."
        },
        "returns": {
          "tokens": "- Token addresses."
        }
      },
      "paused()": {
        "details": "Returns true if the contract is paused, and false otherwise."
      },
      "proxiableUUID()": {
        "details": "Implementation of the ERC1822 {proxiableUUID} function. This returns the storage slot used by the implementation. It is used to validate that the this implementation remains valid after an upgrade. IMPORTANT: A proxy pointing at a proxiable contract should not be considered proxiable itself, because this risks bricking a proxy that upgrades to it, by delegating to itself until out of gas. Thus it is critical that this function revert if invoked through a proxy. This is guaranteed by the `notDelegated` modifier."
      },
      "setFee(uint256)": {
        "details": "Change fee amount.",
        "params": {
          "_fee": "-New fee to collect from farms. [10^18 == 100%] Note: This function can only be called by ADMIN_ROLE."
        }
      },
      "totalDeposits(address)": {
        "details": "Returns total amount locked in the pool. Doesn't take pending rewards into account.",
        "params": {
          "lpPool": "- LP pool to check total deposits in."
        },
        "returns": {
          "_0": "Total deposits (in LP tokens)."
        }
      },
      "upgradeTo(address)": {
        "details": "Upgrade the implementation of the proxy to `newImplementation`. Calls {_authorizeUpgrade}. Emits an {Upgraded} event."
      },
      "upgradeToAndCall(address,bytes)": {
        "details": "Upgrade the implementation of the proxy to `newImplementation`, and subsequently execute the function call encoded in `data`. Calls {_authorizeUpgrade}. Emits an {Upgraded} event."
      },
      "userStake(address,address)": {
        "details": "Returns LP tokens staked by the {_address} for the given {lpPool}.",
        "params": {
          "_address": "- The address to check stakes for.",
          "lpPool": "- LP pool to check stakes in."
        },
        "returns": {
          "_0": "Total user stake(in LP tokens)."
        }
      },
      "withdraw(address,bytes,uint256[],bool,address)": {
        "details": "Withdraws tokens from the given pool. ",
        "params": {
          "lpPool": "- LP pool to withdraw from.",
          "minAmountsOut": "- Minimum token amounts the user will receive.",
          "recipient": "- The address which will receive tokens.",
          "userData": "- If withdrawLP provide LP amount to withdraw, else use Balancer pool exit userData.",
          "withdrawLP": "- True: Withdraw in LP tokens, False: Withdraw in normal tokens."
        },
        "returns": {
          "amounts": "- Token amounts sent to the {recipient}.",
          "liquidity": "- Total liquidity sent to the user (in lpTokens)."
        }
      },
      "withdrawETH(address,bytes,uint256[],address)": {
        "details": "Autoconverts WMATIC into MATIC and withdraws tokens from the given pool. ",
        "params": {
          "lpPool": "- LP pool to withdraw from.",
          "minAmountsOut": "- Minimum token amounts the user will receive.",
          "recipient": "- The address which will receive tokens.",
          "userData": "-  Balancer pool exit userData."
        },
        "returns": {
          "amounts": "- Token amounts sent to the {recipient}.",
          "liquidity": "- Total liquidity sent to the user (in lpTokens)."
        }
      }
    },
    "stateVariables": {
      "farmFactory": {
        "details": "Contract Variables: farmFactory - The contract that deploys new Farms and links them to {lpPool}s. accessManager - Role manager contract."
      }
    },
    "version": 1
  },
  "userdoc": {
    "kind": "user",
    "methods": {},
    "version": 1
  }
}