{
  "contractName": "UnoAutoStrategy",
  "abi": [
    {
      "anonymous": false,
      "inputs": [
        {
          "indexed": true,
          "internalType": "address",
          "name": "owner",
          "type": "address"
        },
        {
          "indexed": true,
          "internalType": "address",
          "name": "spender",
          "type": "address"
        },
        {
          "indexed": false,
          "internalType": "uint256",
          "name": "value",
          "type": "uint256"
        }
      ],
      "name": "Approval",
      "type": "event"
    },
    {
      "anonymous": false,
      "inputs": [
        {
          "indexed": true,
          "internalType": "uint256",
          "name": "poolID",
          "type": "uint256"
        },
        {
          "indexed": true,
          "internalType": "address",
          "name": "from",
          "type": "address"
        },
        {
          "indexed": true,
          "internalType": "address",
          "name": "recipient",
          "type": "address"
        },
        {
          "indexed": false,
          "internalType": "uint256",
          "name": "amountA",
          "type": "uint256"
        },
        {
          "indexed": false,
          "internalType": "uint256",
          "name": "amountB",
          "type": "uint256"
        }
      ],
      "name": "Deposit",
      "type": "event"
    },
    {
      "anonymous": false,
      "inputs": [
        {
          "indexed": false,
          "internalType": "uint8",
          "name": "version",
          "type": "uint8"
        }
      ],
      "name": "Initialized",
      "type": "event"
    },
    {
      "anonymous": false,
      "inputs": [
        {
          "indexed": true,
          "internalType": "uint256",
          "name": "previousPoolID",
          "type": "uint256"
        },
        {
          "indexed": true,
          "internalType": "uint256",
          "name": "nextPoolID",
          "type": "uint256"
        }
      ],
      "name": "MoveLiquidity",
      "type": "event"
    },
    {
      "anonymous": false,
      "inputs": [
        {
          "indexed": true,
          "internalType": "address",
          "name": "from",
          "type": "address"
        },
        {
          "indexed": true,
          "internalType": "address",
          "name": "to",
          "type": "address"
        },
        {
          "indexed": false,
          "internalType": "uint256",
          "name": "value",
          "type": "uint256"
        }
      ],
      "name": "Transfer",
      "type": "event"
    },
    {
      "anonymous": false,
      "inputs": [
        {
          "indexed": true,
          "internalType": "uint256",
          "name": "poolID",
          "type": "uint256"
        },
        {
          "indexed": true,
          "internalType": "address",
          "name": "from",
          "type": "address"
        },
        {
          "indexed": true,
          "internalType": "address",
          "name": "recipient",
          "type": "address"
        },
        {
          "indexed": false,
          "internalType": "uint256",
          "name": "amountA",
          "type": "uint256"
        },
        {
          "indexed": false,
          "internalType": "uint256",
          "name": "amountB",
          "type": "uint256"
        }
      ],
      "name": "Withdraw",
      "type": "event"
    },
    {
      "inputs": [],
      "name": "accessManager",
      "outputs": [
        {
          "internalType": "contract IUnoAccessManager",
          "name": "",
          "type": "address"
        }
      ],
      "stateMutability": "view",
      "type": "function",
      "constant": true
    },
    {
      "inputs": [
        {
          "internalType": "address",
          "name": "owner",
          "type": "address"
        },
        {
          "internalType": "address",
          "name": "spender",
          "type": "address"
        }
      ],
      "name": "allowance",
      "outputs": [
        {
          "internalType": "uint256",
          "name": "",
          "type": "uint256"
        }
      ],
      "stateMutability": "view",
      "type": "function",
      "constant": true
    },
    {
      "inputs": [
        {
          "internalType": "address",
          "name": "spender",
          "type": "address"
        },
        {
          "internalType": "uint256",
          "name": "amount",
          "type": "uint256"
        }
      ],
      "name": "approve",
      "outputs": [
        {
          "internalType": "bool",
          "name": "",
          "type": "bool"
        }
      ],
      "stateMutability": "nonpayable",
      "type": "function"
    },
    {
      "inputs": [
        {
          "internalType": "address",
          "name": "account",
          "type": "address"
        }
      ],
      "name": "balanceOf",
      "outputs": [
        {
          "internalType": "uint256",
          "name": "",
          "type": "uint256"
        }
      ],
      "stateMutability": "view",
      "type": "function",
      "constant": true
    },
    {
      "inputs": [],
      "name": "decimals",
      "outputs": [
        {
          "internalType": "uint8",
          "name": "",
          "type": "uint8"
        }
      ],
      "stateMutability": "view",
      "type": "function",
      "constant": true
    },
    {
      "inputs": [
        {
          "internalType": "address",
          "name": "spender",
          "type": "address"
        },
        {
          "internalType": "uint256",
          "name": "subtractedValue",
          "type": "uint256"
        }
      ],
      "name": "decreaseAllowance",
      "outputs": [
        {
          "internalType": "bool",
          "name": "",
          "type": "bool"
        }
      ],
      "stateMutability": "nonpayable",
      "type": "function"
    },
    {
      "inputs": [],
      "name": "factory",
      "outputs": [
        {
          "internalType": "contract IUnoAutoStrategyFactory",
          "name": "",
          "type": "address"
        }
      ],
      "stateMutability": "view",
      "type": "function",
      "constant": true
    },
    {
      "inputs": [
        {
          "internalType": "address",
          "name": "spender",
          "type": "address"
        },
        {
          "internalType": "uint256",
          "name": "addedValue",
          "type": "uint256"
        }
      ],
      "name": "increaseAllowance",
      "outputs": [
        {
          "internalType": "bool",
          "name": "",
          "type": "bool"
        }
      ],
      "stateMutability": "nonpayable",
      "type": "function"
    },
    {
      "inputs": [],
      "name": "name",
      "outputs": [
        {
          "internalType": "string",
          "name": "",
          "type": "string"
        }
      ],
      "stateMutability": "view",
      "type": "function",
      "constant": true
    },
    {
      "inputs": [],
      "name": "poolID",
      "outputs": [
        {
          "internalType": "uint256",
          "name": "",
          "type": "uint256"
        }
      ],
      "stateMutability": "view",
      "type": "function",
      "constant": true
    },
    {
      "inputs": [
        {
          "internalType": "uint256",
          "name": "",
          "type": "uint256"
        }
      ],
      "name": "pools",
      "outputs": [
        {
          "internalType": "contract IUnoAssetRouter",
          "name": "assetRouter",
          "type": "address"
        },
        {
          "internalType": "address",
          "name": "pool",
          "type": "address"
        },
        {
          "internalType": "contract IERC20Upgradeable",
          "name": "tokenA",
          "type": "address"
        },
        {
          "internalType": "contract IERC20Upgradeable",
          "name": "tokenB",
          "type": "address"
        }
      ],
      "stateMutability": "view",
      "type": "function",
      "constant": true
    },
    {
      "inputs": [],
      "name": "symbol",
      "outputs": [
        {
          "internalType": "string",
          "name": "",
          "type": "string"
        }
      ],
      "stateMutability": "view",
      "type": "function",
      "constant": true
    },
    {
      "inputs": [],
      "name": "totalSupply",
      "outputs": [
        {
          "internalType": "uint256",
          "name": "",
          "type": "uint256"
        }
      ],
      "stateMutability": "view",
      "type": "function",
      "constant": true
    },
    {
      "inputs": [
        {
          "internalType": "address",
          "name": "to",
          "type": "address"
        },
        {
          "internalType": "uint256",
          "name": "amount",
          "type": "uint256"
        }
      ],
      "name": "transfer",
      "outputs": [
        {
          "internalType": "bool",
          "name": "",
          "type": "bool"
        }
      ],
      "stateMutability": "nonpayable",
      "type": "function"
    },
    {
      "inputs": [
        {
          "internalType": "address",
          "name": "from",
          "type": "address"
        },
        {
          "internalType": "address",
          "name": "to",
          "type": "address"
        },
        {
          "internalType": "uint256",
          "name": "amount",
          "type": "uint256"
        }
      ],
      "name": "transferFrom",
      "outputs": [
        {
          "internalType": "bool",
          "name": "",
          "type": "bool"
        }
      ],
      "stateMutability": "nonpayable",
      "type": "function"
    },
    {
      "inputs": [
        {
          "components": [
            {
              "internalType": "contract IUnoAssetRouter",
              "name": "assetRouter",
              "type": "address"
            },
            {
              "internalType": "address",
              "name": "pool",
              "type": "address"
            }
          ],
          "internalType": "struct UnoAutoStrategy._PoolInfo[]",
          "name": "poolInfos",
          "type": "tuple[]"
        },
        {
          "internalType": "string",
          "name": "_name",
          "type": "string"
        },
        {
          "internalType": "string",
          "name": "_symbol",
          "type": "string"
        },
        {
          "internalType": "contract IUnoAccessManager",
          "name": "_accessManager",
          "type": "address"
        }
      ],
      "name": "initialize",
      "outputs": [],
      "stateMutability": "nonpayable",
      "type": "function"
    },
    {
      "inputs": [
        {
          "internalType": "uint256",
          "name": "pid",
          "type": "uint256"
        },
        {
          "internalType": "uint256",
          "name": "amountA",
          "type": "uint256"
        },
        {
          "internalType": "uint256",
          "name": "amountB",
          "type": "uint256"
        },
        {
          "internalType": "uint256",
          "name": "amountAMin",
          "type": "uint256"
        },
        {
          "internalType": "uint256",
          "name": "amountBMin",
          "type": "uint256"
        },
        {
          "internalType": "address",
          "name": "recipient",
          "type": "address"
        }
      ],
      "name": "deposit",
      "outputs": [
        {
          "internalType": "uint256",
          "name": "sentA",
          "type": "uint256"
        },
        {
          "internalType": "uint256",
          "name": "sentB",
          "type": "uint256"
        },
        {
          "internalType": "uint256",
          "name": "liquidity",
          "type": "uint256"
        }
      ],
      "stateMutability": "nonpayable",
      "type": "function"
    },
    {
      "inputs": [
        {
          "internalType": "uint256",
          "name": "pid",
          "type": "uint256"
        },
        {
          "internalType": "uint256",
          "name": "liquidity",
          "type": "uint256"
        },
        {
          "internalType": "uint256",
          "name": "amountAMin",
          "type": "uint256"
        },
        {
          "internalType": "uint256",
          "name": "amountBMin",
          "type": "uint256"
        },
        {
          "internalType": "address",
          "name": "recipient",
          "type": "address"
        }
      ],
      "name": "withdraw",
      "outputs": [
        {
          "internalType": "uint256",
          "name": "amountA",
          "type": "uint256"
        },
        {
          "internalType": "uint256",
          "name": "amountB",
          "type": "uint256"
        }
      ],
      "stateMutability": "nonpayable",
      "type": "function"
    },
    {
      "inputs": [
        {
          "internalType": "uint256",
          "name": "_poolID",
          "type": "uint256"
        },
        {
          "internalType": "bytes",
          "name": "swapAData",
          "type": "bytes"
        },
        {
          "internalType": "bytes",
          "name": "swapBData",
          "type": "bytes"
        },
        {
          "internalType": "uint256",
          "name": "amountAMin",
          "type": "uint256"
        },
        {
          "internalType": "uint256",
          "name": "amountBMin",
          "type": "uint256"
        }
      ],
      "name": "moveLiquidity",
      "outputs": [],
      "stateMutability": "nonpayable",
      "type": "function"
    },
    {
      "inputs": [
        {
          "internalType": "address",
          "name": "_address",
          "type": "address"
        }
      ],
      "name": "userStake",
      "outputs": [
        {
          "internalType": "uint256",
          "name": "stakeA",
          "type": "uint256"
        },
        {
          "internalType": "uint256",
          "name": "stakeB",
          "type": "uint256"
        }
      ],
      "stateMutability": "view",
      "type": "function",
      "constant": true
    },
    {
      "inputs": [],
      "name": "getTotalDeposits",
      "outputs": [
        {
          "internalType": "uint256",
          "name": "totalDepositsA",
          "type": "uint256"
        },
        {
          "internalType": "uint256",
          "name": "totalDepositsB",
          "type": "uint256"
        }
      ],
      "stateMutability": "view",
      "type": "function",
      "constant": true
    }
  ],
  "bytecode": "0x608060405234801561001057600080fd5b50613ad3806100206000396000f3fe608060405234801561001057600080fd5b50600436106101375760003560e01c80638d934485116100b8578063ac4afa381161007c578063ac4afa3814610297578063c45a0155146102dd578063d2b2751514610308578063d473a6541461031b578063dd62ed3e1461032e578063fdcb60681461034157600080fd5b80638d934485146102325780639130700e1461023b57806395d89b4114610269578063a457c2d714610271578063a9059cbb1461028457600080fd5b8063313ce567116100ff578063313ce567146101bf57806339509351146101ce578063668393c7146101e157806368e5585d146101f657806370a082311461020957600080fd5b806306fdde031461013c578063095ea7b31461015a578063168a48221461017d57806318160ddd1461019a57806323b872dd146101ac575b600080fd5b610144610354565b6040516101519190613010565b60405180910390f35b61016d61016836600461305b565b6103e6565b6040519015158152602001610151565b6101856103fe565b60408051928352602083019190915201610151565b6035545b604051908152602001610151565b61016d6101ba366004613087565b6105ce565b60405160128152602001610151565b61016d6101dc36600461305b565b6105f4565b6101f46101ef366004613110565b610616565b005b610185610204366004613198565b6111b0565b61019e610217366004613198565b6001600160a01b031660009081526033602052604090205490565b61019e60975481565b61024e6102493660046131b5565b6113b1565b60408051938452602084019290925290820152606001610151565b61014461165e565b61016d61027f36600461305b565b61166d565b61016d61029236600461305b565b6116f3565b6102aa6102a536600461320a565b611701565b604080516001600160a01b0395861681529385166020850152918416918301919091529091166060820152608001610151565b60a0546102f0906001600160a01b031681565b6040516001600160a01b039091168152602001610151565b6101f461031636600461322e565b61174b565b610185610329366004613306565b611e1f565b61019e61033c366004613353565b612135565b609f546102f0906001600160a01b031681565b6060603680546103639061338c565b80601f016020809104026020016040519081016040528092919081815260200182805461038f9061338c565b80156103dc5780601f106103b1576101008083540402835291602001916103dc565b820191906000526020600020905b8154815290600101906020018083116103bf57829003601f168201915b5050505050905090565b6000336103f4818585612160565b5060019392505050565b6000806000609860975481548110610418576104186133c7565b600091825260209182902060408051608081018252600493840290920180546001600160a01b0390811680855260018301548216968501879052600283015482168585015260039092015416606084015290516328dee51f60e11b81523093810193909352602483019390935292506351bdca3e90604401606060405180830381865afa1580156104ad573d6000803e3d6000fd5b505050506040513d601f19601f820116820180604052508101906104d191906133dd565b60408481015190516370a0823160e01b81523060048201529296509094506001600160a01b031691506370a0823190602401602060405180830381865afa158015610520573d6000803e3d6000fd5b505050506040513d601f19601f82011682018060405250810190610544919061340b565b61054e908461343a565b60608201516040516370a0823160e01b81523060048201529194506001600160a01b0316906370a0823190602401602060405180830381865afa158015610599573d6000803e3d6000fd5b505050506040513d601f19601f820116820180604052508101906105bd919061340b565b6105c7908361343a565b9150509091565b6000336105dc858285612284565b6105e78585856122fe565b60019150505b9392505050565b6000336103f48185856106078383612135565b610611919061343a565b612160565b60a060009054906101000a90046001600160a01b03166001600160a01b0316635c975abb6040518163ffffffff1660e01b8152600401602060405180830381865afa158015610669573d6000803e3d6000fd5b505050506040513d601f19601f8201168201806040525081019061068d9190613452565b156106b35760405162461bcd60e51b81526004016106aa90613474565b60405180910390fd5b600260655414156106d65760405162461bcd60e51b81526004016106aa9061349e565b6002606555609f54604051632474521560e21b81527f77e60b99a50d27fb027f6912a507d956105b4148adab27a86d235c8bcca8fa2f60048201523360248201526001600160a01b03909116906391d1485490604401602060405180830381865afa158015610749573d6000803e3d6000fd5b505050506040513d601f19601f8201168201806040525081019061076d9190613452565b6107b95760405162461bcd60e51b815260206004820152601c60248201527f43414c4c45525f4e4f545f4c49515549444954595f4d414e414745520000000060448201526064016106aa565b6035546107f75760405162461bcd60e51b815260206004820152600c60248201526b4e4f5f4c495155494449545960a01b60448201526064016106aa565b609d544314156108495760405162461bcd60e51b815260206004820152601b60248201527f43414e545f43414c4c5f4f4e5f5448455f53414d455f424c4f434b000000000060448201526064016106aa565b6098548710801561085c57506097548714155b6108785760405162461bcd60e51b81526004016106aa906134d5565b600060986097548154811061088f5761088f6133c7565b6000918252602080832060408051608081018252600490940290910180546001600160a01b039081168552600182015481169385019390935260028101548316918401919091526003015416606082015260988054919350908a9081106108f8576108f86133c7565b6000918252602080832060408051608081018252600494850290920180546001600160a01b039081168452600182015481168486015260028201548116848401526003909101548116606084015287519388015191516328dee51f60e11b81523095810195909552908116602485015290945016906351bdca3e90604401606060405180830381865afa158015610993573d6000803e3d6000fd5b505050506040513d601f19601f820116820180604052508101906109b791906133dd565b505083516020850151604051630f62d51f60e11b81529293506001600160a01b0390911691631ec5aa3e916109f99185906000908190819030906004016134fa565b60408051808303816000875af1158015610a17573d6000803e3d6000fd5b505050506040513d601f19601f82011682018060405250810190610a3b9190613534565b505081604001516001600160a01b031683604001516001600160a01b031614610c9757600080610a6e8a6004818e613558565b810190610a7b919061374f565b505050509150915081516001148015610a95575080516001145b610ae15760405162461bcd60e51b815260206004820152601860248201527f4241445f535741505f415f544f4b454e535f4c454e475448000000000000000060448201526064016106aa565b84604001516001600160a01b031682600081518110610b0257610b026133c7565b6020026020010151600001516001600160a01b031614610b5d5760405162461bcd60e51b81526020600482015260166024820152752120a22fa9aba0a82fa0afa4a7282aaa2faa27a5a2a760511b60448201526064016106aa565b83604001516001600160a01b031681600081518110610b7e57610b7e6133c7565b6020026020010151600001516001600160a01b031614610be05760405162461bcd60e51b815260206004820152601760248201527f4241445f535741505f415f4f55545055545f544f4b454e00000000000000000060448201526064016106aa565b600073a32ee1c40594249eb3183c10792bcf573d4da47c6001600160a01b03168c8c604051610c109291906138f9565b6000604051808303816000865af19150503d8060008114610c4d576040519150601f19603f3d011682016040523d82523d6000602084013e610c52565b606091505b5050905080610c935760405162461bcd60e51b815260206004820152600d60248201526c14d5d05417d057d19052531151609a1b60448201526064016106aa565b5050505b81606001516001600160a01b031683606001516001600160a01b031614610ef157600080610cc8886004818c613558565b810190610cd5919061374f565b505050509150915081516001148015610cef575080516001145b610d3b5760405162461bcd60e51b815260206004820152601860248201527f4241445f535741505f425f544f4b454e535f4c454e475448000000000000000060448201526064016106aa565b84606001516001600160a01b031682600081518110610d5c57610d5c6133c7565b6020026020010151600001516001600160a01b031614610db75760405162461bcd60e51b81526020600482015260166024820152752120a22fa9aba0a82fa12fa4a7282aaa2faa27a5a2a760511b60448201526064016106aa565b83606001516001600160a01b031681600081518110610dd857610dd86133c7565b6020026020010151600001516001600160a01b031614610e3a5760405162461bcd60e51b815260206004820152601760248201527f4241445f535741505f425f4f55545055545f544f4b454e00000000000000000060448201526064016106aa565b600073a32ee1c40594249eb3183c10792bcf573d4da47c6001600160a01b03168a8a604051610e6a9291906138f9565b6000604051808303816000865af19150503d8060008114610ea7576040519150601f19603f3d011682016040523d82523d6000602084013e610eac565b606091505b5050905080610eed5760405162461bcd60e51b815260206004820152600d60248201526c14d5d05417d097d19052531151609a1b60448201526064016106aa565b5050505b8151602083015160408085015190516370a0823160e01b81523060048201526001600160a01b039384169363f441f73c939216906370a0823190602401602060405180830381865afa158015610f4b573d6000803e3d6000fd5b505050506040513d601f19601f82011682018060405250810190610f6f919061340b565b60608601516040516370a0823160e01b81523060048201526001600160a01b03909116906370a0823190602401602060405180830381865afa158015610fb9573d6000803e3d6000fd5b505050506040513d601f19601f82011682018060405250810190610fdd919061340b565b89896000306040518863ffffffff1660e01b81526004016110049796959493929190613909565b6060604051808303816000875af1158015611023573d6000803e3d6000fd5b505050506040513d601f19601f8201168201806040525081019061104791906133dd565b60995550506040805160808101808352918401516370a0823160e01b9092523060848201529081906001600160a01b03166370a0823160a48301602060405180830381865afa15801561109e573d6000803e3d6000fd5b505050506040513d601f19601f820116820180604052508101906110c2919061340b565b815260608401516040516370a0823160e01b81523060048201526020909201916001600160a01b03909116906370a0823190602401602060405180830381865afa158015611114573d6000803e3d6000fd5b505050506040513d601f19601f82011682018060405250810190611138919061340b565b815260200161114660355490565b8152436020918201528151609a55810151609b55604080820151609c55606090910151609d5560975490518b91907faf62d6e59ad2e54c778a490827e6cb28b1d30794092c7367fdbb261b11de033690600090a35050506097969096555050600160655550505050565b60008060006098609754815481106111ca576111ca6133c7565b6000918252602080832060408051608081018252600494850290920180546001600160a01b0390811680855260018301548216958501869052600283015482168585015260039092015416606084015290516328dee51f60e11b815230948101949094526024840192909252935082916351bdca3e90604401606060405180830381865afa158015611260573d6000803e3d6000fd5b505050506040513d601f19601f8201168201806040525081019061128491906133dd565b925092505060006112aa876001600160a01b031660009081526033602052604090205490565b905080156113a85760006112bd60355490565b9050806112ca8584613946565b6112d49190613965565b9650806112e18484613946565b6112eb9190613965565b609c54909650156113a657609c54609a546001600160a01b038a166000908152609e60209081526040808320609d54845290915290205461132c9085613987565b6113369190613946565b6113409190613965565b61134a908861343a565b609c54609b546001600160a01b038b166000908152609e60209081526040808320609d54845290915290205492995090916113859085613987565b61138f9190613946565b6113999190613965565b6113a3908761343a565b95505b505b50505050915091565b600080600060a060009054906101000a90046001600160a01b03166001600160a01b0316635c975abb6040518163ffffffff1660e01b8152600401602060405180830381865afa158015611409573d6000803e3d6000fd5b505050506040513d601f19601f8201168201806040525081019061142d9190613452565b1561144a5760405162461bcd60e51b81526004016106aa90613474565b6002606554141561146d5760405162461bcd60e51b81526004016106aa9061349e565b600260655560975489146114935760405162461bcd60e51b81526004016106aa906134d5565b60006098609754815481106114aa576114aa6133c7565b600091825260209182902060408051608081018252600490930290910180546001600160a01b039081168452600182015481169484019490945260028101548416918301829052600301549092166060820152915061150b9033308c6124d7565b6060810151611525906001600160a01b031633308b6124d7565b80516020820151604051633d107dcf60e21b81526001600160a01b039092169163f441f73c91611564918d908d908d908d906000903090600401613909565b6060604051808303816000875af1158015611583573d6000803e3d6000fd5b505050506040513d601f19601f820116820180604052508101906115a791906133dd565b5090945092506115b685612542565b91506115db336115c6868c613987565b60408401516001600160a01b031691906126da565b6115fe336115e9858b613987565b60608401516001600160a01b031691906126da565b60975460408051868152602081018690526001600160a01b03881692339290917feb65d0f36862bbd8763c5e2c983c9d753267d223eee35a224d8d0a9d7ef433a2910160405180910390a450600160658190555096509650969350505050565b6060603780546103639061338c565b6000338161167b8286612135565b9050838110156116db5760405162461bcd60e51b815260206004820152602560248201527f45524332303a2064656372656173656420616c6c6f77616e63652062656c6f77604482015264207a65726f60d81b60648201526084016106aa565b6116e88286868403612160565b506001949350505050565b6000336103f48185856122fe565b6098818154811061171157600080fd5b600091825260209091206004909102018054600182015460028301546003909301546001600160a01b039283169450908216928216911684565b6000611757600161270f565b9050801561176f576000805461ff0019166101001790555b60028710156117c05760405162461bcd60e51b815260206004820152601960248201527f4e4f545f454e4f5547485f504f4f4c535f50524f56494445440000000000000060448201526064016106aa565b60005b87811015611d26576000808a8a848181106117e0576117e06133c7565b6117f69260206040909202019081019150613198565b6001600160a01b031663450efe218c8c86818110611816576118166133c7565b905060400201602001602081019061182e9190613198565b6040516001600160e01b031960e084901b1681526001600160a01b0390911660048201526024016040805180830381865afa158015611871573d6000803e3d6000fd5b505050506040513d601f19601f82011682018060405250810190611895919061399e565b91509150600060405180608001604052808d8d878181106118b8576118b86133c7565b6118ce9260206040909202019081019150613198565b6001600160a01b031681526020018d8d878181106118ee576118ee6133c7565b90506040020160200160208101906119069190613198565b6001600160a01b0390811682528581166020808401919091528582166040938401526098805460018101825560009190915284517f2237a976fa961f5921fd19f2b03c925c725d77b20ce8f790c19709c03de4d814600492830290810180546001600160a01b0319908116938716938417909155938701517f2237a976fa961f5921fd19f2b03c925c725d77b20ce8f790c19709c03de4d815820180548616918716919091179055868601517f2237a976fa961f5921fd19f2b03c925c725d77b20ce8f790c19709c03de4d816820180548616918716918217905560608801517f2237a976fa961f5921fd19f2b03c925c725d77b20ce8f790c19709c03de4d817909201805490951691909516179092559251636eb1769f60e11b81523093810193909352602483015291925063dd62ed3e90604401602060405180830381865afa158015611a59573d6000803e3d6000fd5b505050506040513d601f19601f82011682018060405250810190611a7d919061340b565b611b8b57604080820151905163095ea7b360e01b815273a32ee1c40594249eb3183c10792bcf573d4da47c600482015260001960248201526001600160a01b039091169063095ea7b3906044016020604051808303816000875af1158015611ae9573d6000803e3d6000fd5b505050506040513d601f19601f82011682018060405250810190611b0d9190613452565b506040818101518251915163095ea7b360e01b81526001600160a01b039283166004820152600019602482015291169063095ea7b3906044016020604051808303816000875af1158015611b65573d6000803e3d6000fd5b505050506040513d601f19601f82011682018060405250810190611b899190613452565b505b60608101518151604051636eb1769f60e11b81523060048201526001600160a01b03918216602482015291169063dd62ed3e90604401602060405180830381865afa158015611bde573d6000803e3d6000fd5b505050506040513d601f19601f82011682018060405250810190611c02919061340b565b611d1057606081015160405163095ea7b360e01b815273a32ee1c40594249eb3183c10792bcf573d4da47c600482015260001960248201526001600160a01b039091169063095ea7b3906044016020604051808303816000875af1158015611c6e573d6000803e3d6000fd5b505050506040513d601f19601f82011682018060405250810190611c929190613452565b506060810151815160405163095ea7b360e01b81526001600160a01b039182166004820152600019602482015291169063095ea7b3906044016020604051808303816000875af1158015611cea573d6000803e3d6000fd5b505050506040513d601f19601f82011682018060405250810190611d0e9190613452565b505b5050508080611d1e906139cd565b9150506117c3565b50611d9a86868080601f01602080910402602001604051908101604052809392919081815260200183838082843760009201919091525050604080516020601f8a01819004810282018101909252888152925088915087908190840183828082843760009201919091525061279c92505050565b611da26127d1565b609f80546001600160a01b0384166001600160a01b03199182161790915543609d5560a08054909116331790558015611e15576000805461ff0019169055604051600181527f7f26b83ff96e1f2b6a682f133852f6798a09c465da95921460cefb38474024989060200160405180910390a15b5050505050505050565b60008060a060009054906101000a90046001600160a01b03166001600160a01b0316635c975abb6040518163ffffffff1660e01b8152600401602060405180830381865afa158015611e75573d6000803e3d6000fd5b505050506040513d601f19601f82011682018060405250810190611e999190613452565b15611eb65760405162461bcd60e51b81526004016106aa90613474565b60026065541415611ed95760405162461bcd60e51b81526004016106aa9061349e565b60026065556097548714611eff5760405162461bcd60e51b81526004016106aa906134d5565b6000609860975481548110611f1657611f166133c7565b6000918252602080832060408051608081018252600490940290910180546001600160a01b03908116855260018201548116858501526002820154811685840152600390910154166060840152338452609e8252808420609d548552909152822054909250819089118015611f8c5750609c5415155b1561202b57336000908152609e60209081526040808320609d548452909152812054611fb8908b613987565b609c54609a5491925090611fcc9083613946565b611fd69190613965565b609c54609b5491945090611fea9083613946565b611ff49190613965565b6040850151909250612010906001600160a01b031688856126da565b6060840151612029906001600160a01b031688846126da565b505b60006120368a612802565b84516020860151604051630f62d51f60e11b81529293506001600160a01b0390911691631ec5aa3e916120769185908e908e906000908f906004016134fa565b60408051808303816000875af1158015612094573d6000803e3d6000fd5b505050506040513d601f19601f820116820180604052508101906120b89190613534565b90965094506120c7838761343a565b95506120d3828661343a565b60975460408051898152602081018490529297506001600160a01b038a16923392917ffe7813e2866053d5c3938554e517b554fce6666a6561bed9eaa7419b29fa9b68910160405180910390a450506001606555509197909650945050505050565b6001600160a01b03918216600090815260346020908152604080832093909416825291909152205490565b6001600160a01b0383166121c25760405162461bcd60e51b8152602060048201526024808201527f45524332303a20617070726f76652066726f6d20746865207a65726f206164646044820152637265737360e01b60648201526084016106aa565b6001600160a01b0382166122235760405162461bcd60e51b815260206004820152602260248201527f45524332303a20617070726f766520746f20746865207a65726f206164647265604482015261737360f01b60648201526084016106aa565b6001600160a01b0383811660008181526034602090815260408083209487168084529482529182902085905590518481527f8c5be1e5ebec7d5bd14f71427d1e84f3dd0314c0f7b2291e5b200ac8c7c3b925910160405180910390a3505050565b60006122908484612135565b905060001981146122f857818110156122eb5760405162461bcd60e51b815260206004820152601d60248201527f45524332303a20696e73756666696369656e7420616c6c6f77616e636500000060448201526064016106aa565b6122f88484848403612160565b50505050565b6001600160a01b0383166123625760405162461bcd60e51b815260206004820152602560248201527f45524332303a207472616e736665722066726f6d20746865207a65726f206164604482015264647265737360d81b60648201526084016106aa565b6001600160a01b0382166123c45760405162461bcd60e51b815260206004820152602360248201527f45524332303a207472616e7366657220746f20746865207a65726f206164647260448201526265737360e81b60648201526084016106aa565b6123cf838383612965565b6001600160a01b038316600090815260336020526040902054818110156124475760405162461bcd60e51b815260206004820152602660248201527f45524332303a207472616e7366657220616d6f756e7420657863656564732062604482015265616c616e636560d01b60648201526084016106aa565b6001600160a01b0380851660009081526033602052604080822085850390559185168152908120805484929061247e90849061343a565b92505081905550826001600160a01b0316846001600160a01b03167fddf252ad1be2c89b69c2b068fc378daa952ba7f163c4a11628f55a4df523b3ef846040516124ca91815260200190565b60405180910390a36122f8565b6040516001600160a01b03808516602483015283166044820152606481018290526122f89085906323b872dd60e01b906084015b60408051601f198184030181529190526020810180516001600160e01b03166001600160e01b031990931692909217909152612a37565b60008060986097548154811061255a5761255a6133c7565b6000918252602080832060408051608081018252600494850290920180546001600160a01b0390811680855260018301548216958501869052600283015482168585015260039092015416606084015290516328dee51f60e11b8152309481019490945260248401929092529350906351bdca3e90604401606060405180830381865afa1580156125ef573d6000803e3d6000fd5b505050506040513d601f19601f8201168201806040525081019061261391906133dd565b505090506000609954826126279190613987565b9050600061263460355490565b90508061265b576126476103e883613987565b945061265660016103e8612b09565b612675565b6099546126688284613946565b6126729190613965565b94505b600085116126c55760405162461bcd60e51b815260206004820152601d60248201527f494e53554646494349454e545f4c49515549444954595f4d494e54454400000060448201526064016106aa565b6126cf8686612b09565b505060995550919050565b6040516001600160a01b03831660248201526044810182905261270a90849063a9059cbb60e01b9060640161250b565b505050565b60008054610100900460ff1615612756578160ff1660011480156127325750303b155b61274e5760405162461bcd60e51b81526004016106aa906139e8565b506000919050565b60005460ff80841691161061277d5760405162461bcd60e51b81526004016106aa906139e8565b506000805460ff191660ff92909216919091179055600190565b919050565b600054610100900460ff166127c35760405162461bcd60e51b81526004016106aa90613a36565b6127cd8282612bf4565b5050565b600054610100900460ff166127f85760405162461bcd60e51b81526004016106aa90613a36565b612800612c42565b565b60008060986097548154811061281a5761281a6133c7565b6000918252602080832060408051608081018252600494850290920180546001600160a01b0390811680855260018301548216958501869052600283015482168585015260039092015416606084015290516328dee51f60e11b8152309481019490945260248401929092529350906351bdca3e90604401606060405180830381865afa1580156128af573d6000803e3d6000fd5b505050506040513d601f19601f820116820180604052508101906128d391906133dd565b505090506128e060355490565b6128ea8286613946565b6128f49190613965565b9250600083116129465760405162461bcd60e51b815260206004820152601d60248201527f494e53554646494349454e545f4c49515549444954595f4255524e454400000060448201526064016106aa565b6129503385612c70565b61295a8382613987565b609955509092915050565b6001600160a01b0383166000908152609e60209081526040808320609d5484529091529020548111156129bd576001600160a01b0383166000908152609e60209081526040808320609d5484529091528120556129f8565b6001600160a01b0383166000908152609e60209081526040808320609d548452909152812080548392906129f2908490613987565b90915550505b6001600160a01b0382166000908152609e60209081526040808320609d54845290915281208054839290612a2d90849061343a565b9091555050505050565b6000612a8c826040518060400160405280602081526020017f5361666545524332303a206c6f772d6c6576656c2063616c6c206661696c6564815250856001600160a01b0316612dca9092919063ffffffff16565b80519091501561270a5780806020019051810190612aaa9190613452565b61270a5760405162461bcd60e51b815260206004820152602a60248201527f5361666545524332303a204552433230206f7065726174696f6e20646964206e6044820152691bdd081cdd58d8d9595960b21b60648201526084016106aa565b6001600160a01b038216612b5f5760405162461bcd60e51b815260206004820152601f60248201527f45524332303a206d696e7420746f20746865207a65726f20616464726573730060448201526064016106aa565b612b6b60008383612965565b8060356000828254612b7d919061343a565b90915550506001600160a01b03821660009081526033602052604081208054839290612baa90849061343a565b90915550506040518181526001600160a01b038316906000907fddf252ad1be2c89b69c2b068fc378daa952ba7f163c4a11628f55a4df523b3ef9060200160405180910390a35050565b600054610100900460ff16612c1b5760405162461bcd60e51b81526004016106aa90613a36565b8151612c2e906036906020850190612f4b565b50805161270a906037906020840190612f4b565b600054610100900460ff16612c695760405162461bcd60e51b81526004016106aa90613a36565b6001606555565b6001600160a01b038216612cd05760405162461bcd60e51b815260206004820152602160248201527f45524332303a206275726e2066726f6d20746865207a65726f206164647265736044820152607360f81b60648201526084016106aa565b612cdc82600083612965565b6001600160a01b03821660009081526033602052604090205481811015612d505760405162461bcd60e51b815260206004820152602260248201527f45524332303a206275726e20616d6f756e7420657863656564732062616c616e604482015261636560f01b60648201526084016106aa565b6001600160a01b0383166000908152603360205260408120838303905560358054849290612d7f908490613987565b90915550506040518281526000906001600160a01b038516907fddf252ad1be2c89b69c2b068fc378daa952ba7f163c4a11628f55a4df523b3ef9060200160405180910390a3505050565b6060612dd98484600085612de1565b949350505050565b606082471015612e425760405162461bcd60e51b815260206004820152602660248201527f416464726573733a20696e73756666696369656e742062616c616e636520666f6044820152651c8818d85b1b60d21b60648201526084016106aa565b6001600160a01b0385163b612e995760405162461bcd60e51b815260206004820152601d60248201527f416464726573733a2063616c6c20746f206e6f6e2d636f6e747261637400000060448201526064016106aa565b600080866001600160a01b03168587604051612eb59190613a81565b60006040518083038185875af1925050503d8060008114612ef2576040519150601f19603f3d011682016040523d82523d6000602084013e612ef7565b606091505b5091509150612f07828286612f12565b979650505050505050565b60608315612f215750816105ed565b825115612f315782518084602001fd5b8160405162461bcd60e51b81526004016106aa9190613010565b828054612f579061338c565b90600052602060002090601f016020900481019282612f795760008555612fbf565b82601f10612f9257805160ff1916838001178555612fbf565b82800160010185558215612fbf579182015b82811115612fbf578251825591602001919060010190612fa4565b50612fcb929150612fcf565b5090565b5b80821115612fcb5760008155600101612fd0565b60005b83811015612fff578181015183820152602001612fe7565b838111156122f85750506000910152565b602081526000825180602084015261302f816040850160208701612fe4565b601f01601f19169190910160400192915050565b6001600160a01b038116811461305857600080fd5b50565b6000806040838503121561306e57600080fd5b823561307981613043565b946020939093013593505050565b60008060006060848603121561309c57600080fd5b83356130a781613043565b925060208401356130b781613043565b929592945050506040919091013590565b60008083601f8401126130da57600080fd5b5081356001600160401b038111156130f157600080fd5b60208301915083602082850101111561310957600080fd5b9250929050565b600080600080600080600060a0888a03121561312b57600080fd5b8735965060208801356001600160401b038082111561314957600080fd5b6131558b838c016130c8565b909850965060408a013591508082111561316e57600080fd5b5061317b8a828b016130c8565b989b979a5095989597966060870135966080013595509350505050565b6000602082840312156131aa57600080fd5b81356105ed81613043565b60008060008060008060c087890312156131ce57600080fd5b863595506020870135945060408701359350606087013592506080870135915060a08701356131fc81613043565b809150509295509295509295565b60006020828403121561321c57600080fd5b5035919050565b803561279781613043565b60008060008060008060006080888a03121561324957600080fd5b87356001600160401b038082111561326057600080fd5b818a0191508a601f83011261327457600080fd5b81358181111561328357600080fd5b8b60208260061b850101111561329857600080fd5b6020928301995097509089013590808211156132b357600080fd5b6132bf8b838c016130c8565b909750955060408a01359150808211156132d857600080fd5b506132e58a828b016130c8565b90945092506132f8905060608901613223565b905092959891949750929550565b600080600080600060a0868803121561331e57600080fd5b85359450602086013593506040860135925060608601359150608086013561334581613043565b809150509295509295909350565b6000806040838503121561336657600080fd5b823561337181613043565b9150602083013561338181613043565b809150509250929050565b600181811c908216806133a057607f821691505b602082108114156133c157634e487b7160e01b600052602260045260246000fd5b50919050565b634e487b7160e01b600052603260045260246000fd5b6000806000606084860312156133f257600080fd5b8351925060208401519150604084015190509250925092565b60006020828403121561341d57600080fd5b5051919050565b634e487b7160e01b600052601160045260246000fd5b6000821982111561344d5761344d613424565b500190565b60006020828403121561346457600080fd5b815180151581146105ed57600080fd5b60208082526010908201526f14105554d05093114e8814105554d15160821b604082015260600190565b6020808252601f908201527f5265656e7472616e637947756172643a207265656e7472616e742063616c6c00604082015260600190565b6020808252600b908201526a10905117d413d3d317d25160aa1b604082015260600190565b6001600160a01b0396871681526020810195909552604085019390935260608401919091521515608083015290911660a082015260c00190565b6000806040838503121561354757600080fd5b505080516020909101519092909150565b6000808585111561356857600080fd5b8386111561357557600080fd5b5050820193919092039150565b634e487b7160e01b600052604160045260246000fd5b604051606081016001600160401b03811182821017156135ba576135ba613582565b60405290565b604051608081016001600160401b03811182821017156135ba576135ba613582565b604051601f8201601f191681016001600160401b038111828210171561360a5761360a613582565b604052919050565b60006001600160401b0382111561362b5761362b613582565b5060051b60200190565b600082601f83011261364657600080fd5b81356001600160401b0381111561365f5761365f613582565b613672601f8201601f19166020016135e2565b81815284602083860101111561368757600080fd5b816020850160208301376000918101602001919091529392505050565b600082601f8301126136b557600080fd5b813560206136ca6136c583613612565b6135e2565b828152606092830285018201928282019190878511156136e957600080fd5b8387015b858110156137425781818a0312156137055760008081fd5b61370d613598565b813561371881613043565b8152818601358682015260408083013561373181613043565b9082015284529284019281016136ed565b5090979650505050505050565b60008060008060008060c0878903121561376857600080fd5b6001600160401b038735111561377d57600080fd5b8635870188601f82011261379057600080fd5b61379d6136c58235613612565b81358082526020808301929160051b8401018b10156137bb57600080fd5b602083015b6020843560051b85010181101561387a576001600160401b03813511156137e657600080fd5b803584016080818e03601f190112156137fe57600080fd5b6138066135c0565b6138136020830135613043565b60208201358152604082013560208201526138316060830135613043565b606082013560408201526001600160401b036080830135111561385357600080fd5b6138668e60206080850135850101613635565b6060820152845250602092830192016137c0565b50975050506001600160401b036020880135111561389757600080fd5b6138a788602089013589016136a4565b945060408701359350606087013592506138c360808801613223565b91506001600160401b0360a088013511156138dd57600080fd5b6138ed8860a08901358901613635565b90509295509295509295565b8183823760009101908152919050565b6001600160a01b039788168152602081019690965260408601949094526060850192909252608084015260a083015290911660c082015260e00190565b600081600019048311821515161561396057613960613424565b500290565b60008261398257634e487b7160e01b600052601260045260246000fd5b500490565b60008282101561399957613999613424565b500390565b600080604083850312156139b157600080fd5b82516139bc81613043565b602084015190925061338181613043565b60006000198214156139e1576139e1613424565b5060010190565b6020808252602e908201527f496e697469616c697a61626c653a20636f6e747261637420697320616c72656160408201526d191e481a5b9a5d1a585b1a5e995960921b606082015260800190565b6020808252602b908201527f496e697469616c697a61626c653a20636f6e7472616374206973206e6f74206960408201526a6e697469616c697a696e6760a81b606082015260800190565b60008251613a93818460208701612fe4565b919091019291505056fea26469706673582212204aa9b33cb9dc4fbca2740f1af5c95e4d87c703a41d0a05a952bdc4d596a9aeda64736f6c634300080a0033",
  "immutableReferences": {},
  "source": "// SPDX-License-Identifier: MIT\r\npragma solidity 0.8.10;\r\nimport \"../interfaces/IUnoAssetRouter.sol\";   \r\nimport \"../interfaces/IUnoAutoStrategyFactory.sol\";  \r\nimport '@openzeppelin/contracts-upgradeable/security/ReentrancyGuardUpgradeable.sol';\r\nimport '@openzeppelin/contracts-upgradeable/token/ERC20/ERC20Upgradeable.sol';\r\nimport '@openzeppelin/contracts-upgradeable/token/ERC20/utils/SafeERC20Upgradeable.sol';\r\n\r\ncontract UnoAutoStrategy is Initializable, ERC20Upgradeable, ReentrancyGuardUpgradeable {\r\n    using SafeERC20Upgradeable for IERC20Upgradeable;\r\n    /**\r\n     * @dev PoolInfo:\r\n     * {assetRouter} - UnoAssetRouter contract.\r\n     * {pool} - Pool address. \r\n     * {tokenA} - Pool's first token address.\r\n     * {tokenB} - Pool's second token address.\r\n     */\r\n    struct _PoolInfo {\r\n        IUnoAssetRouter assetRouter;\r\n        address pool;\r\n    }\r\n\r\n    struct PoolInfo {\r\n        IUnoAssetRouter assetRouter;\r\n        address pool;\r\n        IERC20Upgradeable tokenA;\r\n        IERC20Upgradeable tokenB;\r\n    }\r\n\r\n    /**\r\n     * @dev MoveLiquidityInfo:\r\n     * {leftoverA} - TokenA leftovers after MoveLiquidity() call.\r\n     * {leftoverB} - TokenB leftovers after MoveLiquidity() call. \r\n     * {totalSupply} - totalSupply after MoveLiquidity() call.\r\n     * {block} - MoveLiquidity() call block.\r\n     */\r\n    struct MoveLiquidityInfo {\r\n        uint256 leftoverA;\r\n        uint256 leftoverB;\r\n        uint256 totalSupply;\r\n        uint256 block;\r\n    }\r\n    \r\n    /**\r\n     * @dev inputToken, outputToken - structs used in OdosRouter contract.\r\n     */\r\n    struct inputToken {\r\n      address tokenAddress;\r\n      uint256 amountIn;\r\n      address receiver;\r\n      bytes permit;\r\n    }\r\n\r\n    struct outputToken {\r\n      address tokenAddress;\r\n      uint256 relativeValue;\r\n      address receiver;\r\n    }\r\n    \r\n    /**\r\n     * @dev Contract Variables:\r\n     * {OdosRouter} - Contract that executes swaps.\r\n\r\n     * {poolID} - Current pool the strategy uses ({pools} index).\r\n     * {pools} - Pools this strategy can use and move liquidity to.\r\n\r\n     * {reserveLP} - LP token reserve.\r\n     * {lastMoveInfo} - Info on last MoveLiquidity() block.\r\n     * {blockedLiquidty} - User's blocked LP tokens. Prevents user from stealing leftover tokens by depositing and exiting before moveLiquidity() has been called.\r\n\r\n     * {accessManager} - Role manager contract.\r\n     * {factory} - The address of AutoStrategyFactory this contract was deployed by.\r\n\r\n     * {MINIMUM_LIQUIDITY} - Ameliorates rounding errors.\r\n     */\r\n\r\n    address private constant OdosRouter = 0xa32EE1C40594249eb3183c10792BcF573D4Da47C;\r\n\r\n    uint256 public poolID;\r\n    PoolInfo[] public pools;\r\n\r\n    uint256 private reserveLP;\r\n    MoveLiquidityInfo private lastMoveInfo;\r\n    mapping(address =>  mapping(uint256 => uint256)) private blockedLiquidty;\r\n\r\n    IUnoAccessManager public accessManager;\r\n    IUnoAutoStrategyFactory public factory;\r\n\r\n    uint256 private constant MINIMUM_LIQUIDITY = 10**3;\r\n    bytes32 private constant LIQUIDITY_MANAGER_ROLE = keccak256('LIQUIDITY_MANAGER_ROLE');\r\n\r\n    event Deposit(uint256 indexed poolID, address indexed from, address indexed recipient, uint256 amountA, uint256 amountB);\r\n    event Withdraw(uint256 indexed poolID, address indexed from, address indexed recipient, uint256 amountA, uint256 amountB);\r\n    event MoveLiquidity(uint256 indexed previousPoolID, uint256 indexed nextPoolID);\r\n\r\n    modifier whenNotPaused(){\r\n        require(factory.paused() == false, 'PAUSABLE: PAUSED');\r\n        _;\r\n    }\r\n\r\n    //TODO: ADD TOKENA TOKENB FETCH FUNCTION\r\n\r\n    // ============ Methods ============\r\n\r\n    function initialize(_PoolInfo[] calldata poolInfos, string calldata _name, string calldata _symbol, IUnoAccessManager _accessManager) external initializer {\r\n        require (poolInfos.length >= 2, 'NOT_ENOUGH_POOLS_PROVIDED');\r\n        \r\n        for (uint256 i = 0; i < poolInfos.length; i++) {\r\n            (address _tokenA, address _tokenB) = poolInfos[i].assetRouter.getTokens(poolInfos[i].pool);\r\n            PoolInfo memory pool = PoolInfo({\r\n                assetRouter: poolInfos[i].assetRouter,\r\n                pool: poolInfos[i].pool,\r\n                tokenA: IERC20Upgradeable(_tokenA),\r\n                tokenB: IERC20Upgradeable(_tokenB)\r\n            });\r\n            pools.push(pool);\r\n\r\n            if (pool.tokenA.allowance(address(this), address(pool.assetRouter)) == 0) {\r\n                pool.tokenA.approve(OdosRouter, type(uint256).max);\r\n                pool.tokenA.approve(address(pool.assetRouter), type(uint256).max);\r\n            }\r\n            if (pool.tokenB.allowance(address(this), address(pool.assetRouter)) == 0) {\r\n                pool.tokenB.approve(OdosRouter, type(uint256).max);\r\n                pool.tokenB.approve(address(pool.assetRouter), type(uint256).max);\r\n            }\r\n        }\r\n\r\n        __ERC20_init(_name, _symbol);\r\n        __ReentrancyGuard_init();\r\n        accessManager = _accessManager;\r\n\r\n        lastMoveInfo.block = block.number;\r\n        factory = IUnoAutoStrategyFactory(msg.sender);\r\n    }\r\n\r\n    /**\r\n     * @dev Deposits tokens in the pools[poolID] pool. Mints tokens representing user share. Emits {Deposit} event.\r\n     * @param pid - Current poolID. Throws revert if moveLiquidity() has been called before the transaction has been mined.\r\n     * @param amountA - Token A amount to deposit.\r\n     * @param amountB  - Token B amount to deposit.\r\n     * @param amountAMin - Bounds the extent to which the B/A price can go up before the transaction reverts.\r\n     * @param amountBMin - Bounds the extent to which the A/B price can go up before the transaction reverts.\r\n     * @param recipient - Address which will recieve the deposit.\r\n     \r\n     * @return sentA - Deposited token A amount.\r\n     * @return sentB - Deposited token B amount.\r\n     * @return liquidity - Total liquidity minted for the {recipient}.\r\n     */\r\n    function deposit(uint256 pid, uint256 amountA, uint256 amountB, uint256 amountAMin, uint256 amountBMin, address recipient) whenNotPaused nonReentrant external returns (uint256 sentA, uint256 sentB, uint256 liquidity) {\r\n        require (pid == poolID, 'BAD_POOL_ID');\r\n        PoolInfo memory pool = pools[poolID];\r\n\r\n        pool.tokenA.safeTransferFrom(msg.sender, address(this), amountA);\r\n        pool.tokenB.safeTransferFrom(msg.sender, address(this), amountB);\r\n\r\n        (sentA, sentB,) = pool.assetRouter.deposit(pool.pool, amountA, amountB, amountAMin, amountBMin, 0, address(this));\r\n        liquidity = mint(recipient);\r\n\r\n        pool.tokenA.safeTransfer(msg.sender, amountA - sentA);\r\n        pool.tokenB.safeTransfer(msg.sender, amountB - sentB);\r\n\r\n        emit Deposit(poolID, msg.sender, recipient, sentA, sentB); \r\n    }\r\n\r\n    /**\r\n     * @dev Withdraws tokens from the {pools[poolID]} pool and sends them to the recipient. Burns tokens representing user share. Emits {Withdraw} event.\r\n     * @param pid - Current poolID. Throws revert if moveLiquidity() has been called before the transaction has been mined.\r\n     * @param liquidity - Liquidity to burn from this user.\r\n     * @param amountAMin - The minimum amount of tokenA that must be received for the transaction not to revert.\r\n     * @param amountBMin - The minimum amount of tokenB that must be received for the transaction not to revert.\r\n     * @param recipient - Address which will recieve withdrawn tokens.\r\n     \r\n     * @return amountA - Token A amount sent to the {recipient}.\r\n     * @return amountB - Token B amount sent to the {recipient}.\r\n     */\r\n    function withdraw(uint256 pid, uint256 liquidity, uint256 amountAMin, uint256 amountBMin, address recipient) whenNotPaused nonReentrant external returns (uint256 amountA, uint256 amountB) {\r\n        require (pid == poolID, 'BAD_POOL_ID');\r\n        PoolInfo memory pool = pools[poolID];\r\n\r\n        uint256 _leftoverA;\r\n        uint256 _leftoverB;\r\n        // Transfer lefover tokens to recipient.\r\n        if((liquidity > blockedLiquidty[msg.sender][lastMoveInfo.block]) && (lastMoveInfo.totalSupply != 0)){\r\n            uint256 leftoverLiquidity = liquidity - blockedLiquidty[msg.sender][lastMoveInfo.block];\r\n            _leftoverA = leftoverLiquidity * lastMoveInfo.leftoverA / lastMoveInfo.totalSupply;\r\n            _leftoverB = leftoverLiquidity * lastMoveInfo.leftoverB / lastMoveInfo.totalSupply;\r\n            pool.tokenA.safeTransfer(recipient, _leftoverA);\r\n            pool.tokenB.safeTransfer(recipient, _leftoverB);\r\n        }\r\n\r\n        uint256 amountLP = burn(liquidity);\r\n        (amountA, amountB) = pool.assetRouter.withdraw(pool.pool, amountLP, amountAMin, amountBMin, false, recipient);\r\n\r\n        amountA += _leftoverA;\r\n        amountB += _leftoverB;\r\n\r\n        emit Withdraw(poolID, msg.sender, recipient, amountA, amountB); \r\n    }\r\n\r\n    /**\r\n     * @dev Moves liquidity from {pools[poolID]} to {pools[_poolID]}. Emits {MoveLiquidity} event.\r\n     * @param _poolID - Pool ID to move liquidity to.\r\n     * @param swapAData - Data for tokenA swap.\r\n     * @param swapBData - Data for tokenB swap.\r\n     * @param amountAMin - The minimum amount of tokenA that must be deposited in {pools[_poolID]} for the transaction not to revert.\r\n     * @param amountBMin - The minimum amount of tokenB that must be deposited in {pools[_poolID]} for the transaction not to revert.\r\n     *\r\n     * Note: This function can only be called by LiquidityManager.\r\n     */\r\n    function moveLiquidity(uint256 _poolID, bytes calldata swapAData, bytes calldata swapBData, uint256 amountAMin, uint256 amountBMin) whenNotPaused nonReentrant external {\r\n        require(accessManager.hasRole(LIQUIDITY_MANAGER_ROLE, msg.sender), 'CALLER_NOT_LIQUIDITY_MANAGER');\r\n\r\n        require(totalSupply() != 0, 'NO_LIQUIDITY');\r\n        require(lastMoveInfo.block != block.number, 'CANT_CALL_ON_THE_SAME_BLOCK');\r\n        require((_poolID < pools.length) && (_poolID != poolID), 'BAD_POOL_ID');\r\n\r\n        PoolInfo memory currentPool = pools[poolID];\r\n        PoolInfo memory newPool = pools[_poolID];\r\n\r\n        (uint256 totalDeposits,,) = currentPool.assetRouter.userStake(address(this), currentPool.pool);\r\n        currentPool.assetRouter.withdraw(currentPool.pool, totalDeposits, 0, 0, false, address(this));\r\n\r\n        if(currentPool.tokenA != newPool.tokenA){\r\n            (inputToken[] memory inputTokens, outputToken[] memory outputTokens,,,,) = abi.decode(swapAData[4:], (inputToken[],outputToken[],uint256,uint256,address,bytes));\r\n            require((inputTokens.length == 1) && (outputTokens.length == 1), 'BAD_SWAP_A_TOKENS_LENGTH');\r\n            require(inputTokens[0].tokenAddress == address(currentPool.tokenA), 'BAD_SWAP_A_INPUT_TOKEN');\r\n            require(outputTokens[0].tokenAddress == address(newPool.tokenA), 'BAD_SWAP_A_OUTPUT_TOKEN');\r\n\r\n            (bool success,) = OdosRouter.call(swapAData);\r\n            require(success, 'SWAP_A_FAILED');\r\n        }\r\n\r\n        if(currentPool.tokenB != newPool.tokenB){\r\n            (inputToken[] memory inputTokens, outputToken[] memory outputTokens,,,,) = abi.decode(swapBData[4:], (inputToken[],outputToken[],uint256,uint256,address,bytes));\r\n            require((inputTokens.length == 1) && (outputTokens.length == 1), 'BAD_SWAP_B_TOKENS_LENGTH');\r\n            require(inputTokens[0].tokenAddress == address(currentPool.tokenB), 'BAD_SWAP_B_INPUT_TOKEN');\r\n            require(outputTokens[0].tokenAddress == address(newPool.tokenB), 'BAD_SWAP_B_OUTPUT_TOKEN');\r\n\r\n            (bool success,) = OdosRouter.call(swapBData);\r\n            require(success, 'SWAP_B_FAILED');\r\n        }\r\n        \r\n        (,,reserveLP) = newPool.assetRouter.deposit(newPool.pool, newPool.tokenA.balanceOf(address(this)), newPool.tokenB.balanceOf(address(this)), amountAMin, amountBMin, 0, address(this));\r\n       \r\n        // Set variables for leftover token share calculations.\r\n        lastMoveInfo = MoveLiquidityInfo({\r\n            leftoverA: newPool.tokenA.balanceOf(address(this)),\r\n            leftoverB: newPool.tokenB.balanceOf(address(this)),\r\n            totalSupply: totalSupply(),\r\n            block: block.number\r\n        });\r\n\r\n        emit MoveLiquidity(poolID, _poolID); \r\n        poolID = _poolID;\r\n    }\r\n\r\n    /**\r\n     * @dev Returns tokens staked by the {_address}.\r\n     * @param _address - The address to check stakes for.\r\n\r\n     * @return stakeA - Token A stake.\r\n     * @return stakeB - Token B stake.\r\n     */\r\n    function userStake(address _address) external view returns (uint256 stakeA, uint256 stakeB) {\r\n        PoolInfo memory pool = pools[poolID];\r\n        (, uint256 balanceA, uint256 balanceB) = pool.assetRouter.userStake(address(this), pool.pool);\r\n\r\n        uint256 _balance = balanceOf(_address);\r\n        if(_balance != 0){\r\n            uint256 _totalSupply = totalSupply();\r\n            stakeA = _balance * balanceA / _totalSupply; \r\n            stakeB = _balance * balanceB / _totalSupply; \r\n            // Add leftover tokens.\r\n            if(lastMoveInfo.totalSupply != 0){\r\n                stakeA += (_balance - blockedLiquidty[_address][lastMoveInfo.block]) * lastMoveInfo.leftoverA / lastMoveInfo.totalSupply;\r\n                stakeB += (_balance - blockedLiquidty[_address][lastMoveInfo.block]) * lastMoveInfo.leftoverB / lastMoveInfo.totalSupply;\r\n            }\r\n        }\r\n    }\r\n        \r\n    /**\r\n     * @dev Returns total amount locked in the pool. \r\n     * @return totalDepositsA - Token A deposits.\r\n     * @return totalDepositsB - Token B deposits.\r\n     */     \r\n    function getTotalDeposits() external view returns(uint256 totalDepositsA, uint256 totalDepositsB){\r\n        PoolInfo memory pool = pools[poolID];\r\n        (, totalDepositsA, totalDepositsB) = pool.assetRouter.userStake(address(this), pool.pool);\r\n\r\n        // Add leftover tokens.\r\n        totalDepositsA += pool.tokenA.balanceOf(address(this));\r\n        totalDepositsB += pool.tokenB.balanceOf(address(this));\r\n    }\r\n\r\n    function mint(address to) internal returns (uint256 liquidity){\r\n        PoolInfo memory pool = pools[poolID];\r\n        (uint256 balanceLP,,) = pool.assetRouter.userStake(address(this), pool.pool);\r\n        uint256 amountLP = balanceLP - reserveLP;\r\n\r\n        uint256 _totalSupply = totalSupply();\r\n        if (_totalSupply == 0) {\r\n            liquidity = amountLP - MINIMUM_LIQUIDITY;\r\n            _mint(address(1), MINIMUM_LIQUIDITY);\r\n        } else {\r\n            liquidity = amountLP * _totalSupply / reserveLP;\r\n        }\r\n\r\n        require(liquidity > 0, 'INSUFFICIENT_LIQUIDITY_MINTED');\r\n        _mint(to, liquidity);\r\n\r\n        reserveLP = balanceLP;\r\n    }\r\n\r\n    function burn(uint256 liquidity) internal returns (uint256 amountLP) {\r\n        PoolInfo memory pool = pools[poolID];\r\n        (uint256 balanceLP,,) = pool.assetRouter.userStake(address(this), pool.pool);\r\n\r\n        amountLP = liquidity * balanceLP / totalSupply(); \r\n        require(amountLP > 0, 'INSUFFICIENT_LIQUIDITY_BURNED');\r\n        _burn(msg.sender, liquidity);\r\n\r\n        reserveLP = balanceLP - amountLP;\r\n    }\r\n\r\n    function _beforeTokenTransfer(address from, address to, uint256 amount) internal virtual override {\r\n        super._beforeTokenTransfer(from, to, amount);\r\n\r\n        // Decrease blockedLiquidty from {from} address, but no less then 0.\r\n        if(amount > blockedLiquidty[from][lastMoveInfo.block]){\r\n            blockedLiquidty[from][lastMoveInfo.block] = 0;\r\n        } else {\r\n            blockedLiquidty[from][lastMoveInfo.block] -= amount;\r\n        }\r\n        // Block {to} address from withdrawing their share of leftover tokens immediately.\r\n        blockedLiquidty[to][lastMoveInfo.block] += amount;\r\n    }\r\n}",
  "sourcePath": "C:\\Users\\jugli\\Desktop\\uno\\uno-contracts-branch\\contracts\\autostrategy\\UnoAutoStrategy.sol",
  "compiler": {
    "name": "solc",
    "version": "0.8.10+commit.fc410830.Emscripten.clang"
  },
  "schemaVersion": "3.4.7",
  "updatedAt": "2022-07-06T08:35:26.508Z",
  "networkType": "ethereum",
  "devdoc": {
    "kind": "dev",
    "methods": {
      "allowance(address,address)": {
        "details": "See {IERC20-allowance}."
      },
      "approve(address,uint256)": {
        "details": "See {IERC20-approve}. NOTE: If `amount` is the maximum `uint256`, the allowance is not updated on `transferFrom`. This is semantically equivalent to an infinite approval. Requirements: - `spender` cannot be the zero address."
      },
      "balanceOf(address)": {
        "details": "See {IERC20-balanceOf}."
      },
      "decimals()": {
        "details": "Returns the number of decimals used to get its user representation. For example, if `decimals` equals `2`, a balance of `505` tokens should be displayed to a user as `5.05` (`505 / 10 ** 2`). Tokens usually opt for a value of 18, imitating the relationship between Ether and Wei. This is the value {ERC20} uses, unless this function is overridden; NOTE: This information is only used for _display_ purposes: it in no way affects any of the arithmetic of the contract, including {IERC20-balanceOf} and {IERC20-transfer}."
      },
      "decreaseAllowance(address,uint256)": {
        "details": "Atomically decreases the allowance granted to `spender` by the caller. This is an alternative to {approve} that can be used as a mitigation for problems described in {IERC20-approve}. Emits an {Approval} event indicating the updated allowance. Requirements: - `spender` cannot be the zero address. - `spender` must have allowance for the caller of at least `subtractedValue`."
      },
      "deposit(uint256,uint256,uint256,uint256,uint256,address)": {
        "details": "Deposits tokens in the pools[poolID] pool. Mints tokens representing user share. Emits {Deposit} event.",
        "params": {
          "amountA": "- Token A amount to deposit.",
          "amountAMin": "- Bounds the extent to which the B/A price can go up before the transaction reverts.",
          "amountB": "- Token B amount to deposit.",
          "amountBMin": "- Bounds the extent to which the A/B price can go up before the transaction reverts.",
          "pid": "- Current poolID. Throws revert if moveLiquidity() has been called before the transaction has been mined.",
          "recipient": "- Address which will recieve the deposit."
        },
        "returns": {
          "liquidity": "- Total liquidity minted for the {recipient}.",
          "sentA": "- Deposited token A amount.",
          "sentB": "- Deposited token B amount."
        }
      },
      "getTotalDeposits()": {
        "details": "Returns total amount locked in the pool. ",
        "returns": {
          "totalDepositsA": "- Token A deposits.",
          "totalDepositsB": "- Token B deposits."
        }
      },
      "increaseAllowance(address,uint256)": {
        "details": "Atomically increases the allowance granted to `spender` by the caller. This is an alternative to {approve} that can be used as a mitigation for problems described in {IERC20-approve}. Emits an {Approval} event indicating the updated allowance. Requirements: - `spender` cannot be the zero address."
      },
      "moveLiquidity(uint256,bytes,bytes,uint256,uint256)": {
        "details": "Moves liquidity from {pools[poolID]} to {pools[_poolID]}. Emits {MoveLiquidity} event.",
        "params": {
          "_poolID": "- Pool ID to move liquidity to.",
          "amountAMin": "- The minimum amount of tokenA that must be deposited in {pools[_poolID]} for the transaction not to revert.",
          "amountBMin": "- The minimum amount of tokenB that must be deposited in {pools[_poolID]} for the transaction not to revert. Note: This function can only be called by LiquidityManager.",
          "swapAData": "- Data for tokenA swap.",
          "swapBData": "- Data for tokenB swap."
        }
      },
      "name()": {
        "details": "Returns the name of the token."
      },
      "symbol()": {
        "details": "Returns the symbol of the token, usually a shorter version of the name."
      },
      "totalSupply()": {
        "details": "See {IERC20-totalSupply}."
      },
      "transfer(address,uint256)": {
        "details": "See {IERC20-transfer}. Requirements: - `to` cannot be the zero address. - the caller must have a balance of at least `amount`."
      },
      "transferFrom(address,address,uint256)": {
        "details": "See {IERC20-transferFrom}. Emits an {Approval} event indicating the updated allowance. This is not required by the EIP. See the note at the beginning of {ERC20}. NOTE: Does not update the allowance if the current allowance is the maximum `uint256`. Requirements: - `from` and `to` cannot be the zero address. - `from` must have a balance of at least `amount`. - the caller must have allowance for ``from``'s tokens of at least `amount`."
      },
      "userStake(address)": {
        "details": "Returns tokens staked by the {_address}.",
        "params": {
          "_address": "- The address to check stakes for."
        },
        "returns": {
          "stakeA": "- Token A stake.",
          "stakeB": "- Token B stake."
        }
      },
      "withdraw(uint256,uint256,uint256,uint256,address)": {
        "details": "Withdraws tokens from the {pools[poolID]} pool and sends them to the recipient. Burns tokens representing user share. Emits {Withdraw} event.",
        "params": {
          "amountAMin": "- The minimum amount of tokenA that must be received for the transaction not to revert.",
          "amountBMin": "- The minimum amount of tokenB that must be received for the transaction not to revert.",
          "liquidity": "- Liquidity to burn from this user.",
          "pid": "- Current poolID. Throws revert if moveLiquidity() has been called before the transaction has been mined.",
          "recipient": "- Address which will recieve withdrawn tokens."
        },
        "returns": {
          "amountA": "- Token A amount sent to the {recipient}.",
          "amountB": "- Token B amount sent to the {recipient}."
        }
      }
    },
    "stateVariables": {
      "OdosRouter": {
        "details": "Contract Variables: {OdosRouter} - Contract that executes swaps. {poolID} - Current pool the strategy uses ({pools} index). {pools} - Pools this strategy can use and move liquidity to. {reserveLP} - LP token reserve. {lastMoveInfo} - Info on last MoveLiquidity() block. {blockedLiquidty} - User's blocked LP tokens. Prevents user from stealing leftover tokens by depositing and exiting before moveLiquidity() has been called. {accessManager} - Role manager contract. {factory} - The address of AutoStrategyFactory this contract was deployed by. {MINIMUM_LIQUIDITY} - Ameliorates rounding errors."
      }
    },
    "version": 1
  },
  "userdoc": {
    "kind": "user",
    "methods": {},
    "version": 1
  }
}