{
  "contractName": "UnoAssetRouterMeshswap",
  "abi": [
    {
      "inputs": [],
      "stateMutability": "nonpayable",
      "type": "constructor"
    },
    {
      "anonymous": false,
      "inputs": [
        {
          "indexed": false,
          "internalType": "address",
          "name": "previousAdmin",
          "type": "address"
        },
        {
          "indexed": false,
          "internalType": "address",
          "name": "newAdmin",
          "type": "address"
        }
      ],
      "name": "AdminChanged",
      "type": "event"
    },
    {
      "anonymous": false,
      "inputs": [
        {
          "indexed": true,
          "internalType": "address",
          "name": "beacon",
          "type": "address"
        }
      ],
      "name": "BeaconUpgraded",
      "type": "event"
    },
    {
      "anonymous": false,
      "inputs": [
        {
          "indexed": true,
          "internalType": "address",
          "name": "lpPool",
          "type": "address"
        },
        {
          "indexed": true,
          "internalType": "address",
          "name": "sender",
          "type": "address"
        },
        {
          "indexed": true,
          "internalType": "address",
          "name": "recipient",
          "type": "address"
        },
        {
          "indexed": false,
          "internalType": "uint256",
          "name": "amount",
          "type": "uint256"
        }
      ],
      "name": "Deposit",
      "type": "event"
    },
    {
      "anonymous": false,
      "inputs": [
        {
          "indexed": true,
          "internalType": "address",
          "name": "lpPool",
          "type": "address"
        },
        {
          "indexed": false,
          "internalType": "uint256",
          "name": "reward",
          "type": "uint256"
        }
      ],
      "name": "Distribute",
      "type": "event"
    },
    {
      "anonymous": false,
      "inputs": [
        {
          "indexed": false,
          "internalType": "uint256",
          "name": "previousFee",
          "type": "uint256"
        },
        {
          "indexed": false,
          "internalType": "uint256",
          "name": "newFee",
          "type": "uint256"
        }
      ],
      "name": "FeeChanged",
      "type": "event"
    },
    {
      "anonymous": false,
      "inputs": [
        {
          "indexed": false,
          "internalType": "uint8",
          "name": "version",
          "type": "uint8"
        }
      ],
      "name": "Initialized",
      "type": "event"
    },
    {
      "anonymous": false,
      "inputs": [
        {
          "indexed": false,
          "internalType": "address",
          "name": "account",
          "type": "address"
        }
      ],
      "name": "Paused",
      "type": "event"
    },
    {
      "anonymous": false,
      "inputs": [
        {
          "indexed": false,
          "internalType": "address",
          "name": "account",
          "type": "address"
        }
      ],
      "name": "Unpaused",
      "type": "event"
    },
    {
      "anonymous": false,
      "inputs": [
        {
          "indexed": true,
          "internalType": "address",
          "name": "implementation",
          "type": "address"
        }
      ],
      "name": "Upgraded",
      "type": "event"
    },
    {
      "anonymous": false,
      "inputs": [
        {
          "indexed": true,
          "internalType": "address",
          "name": "lpPool",
          "type": "address"
        },
        {
          "indexed": true,
          "internalType": "address",
          "name": "sender",
          "type": "address"
        },
        {
          "indexed": true,
          "internalType": "address",
          "name": "recipient",
          "type": "address"
        },
        {
          "indexed": false,
          "internalType": "uint256",
          "name": "amount",
          "type": "uint256"
        }
      ],
      "name": "Withdraw",
      "type": "event"
    },
    {
      "inputs": [],
      "name": "WMATIC",
      "outputs": [
        {
          "internalType": "address",
          "name": "",
          "type": "address"
        }
      ],
      "stateMutability": "view",
      "type": "function"
    },
    {
      "inputs": [],
      "name": "accessManager",
      "outputs": [
        {
          "internalType": "contract IUnoAccessManager",
          "name": "",
          "type": "address"
        }
      ],
      "stateMutability": "view",
      "type": "function"
    },
    {
      "inputs": [],
      "name": "farmFactory",
      "outputs": [
        {
          "internalType": "contract IUnoFarmFactory",
          "name": "",
          "type": "address"
        }
      ],
      "stateMutability": "view",
      "type": "function"
    },
    {
      "inputs": [],
      "name": "fee",
      "outputs": [
        {
          "internalType": "uint256",
          "name": "",
          "type": "uint256"
        }
      ],
      "stateMutability": "view",
      "type": "function"
    },
    {
      "inputs": [],
      "name": "paused",
      "outputs": [
        {
          "internalType": "bool",
          "name": "",
          "type": "bool"
        }
      ],
      "stateMutability": "view",
      "type": "function"
    },
    {
      "inputs": [],
      "name": "proxiableUUID",
      "outputs": [
        {
          "internalType": "bytes32",
          "name": "",
          "type": "bytes32"
        }
      ],
      "stateMutability": "view",
      "type": "function"
    },
    {
      "inputs": [
        {
          "internalType": "address",
          "name": "newImplementation",
          "type": "address"
        }
      ],
      "name": "upgradeTo",
      "outputs": [],
      "stateMutability": "nonpayable",
      "type": "function"
    },
    {
      "inputs": [
        {
          "internalType": "address",
          "name": "newImplementation",
          "type": "address"
        },
        {
          "internalType": "bytes",
          "name": "data",
          "type": "bytes"
        }
      ],
      "name": "upgradeToAndCall",
      "outputs": [],
      "stateMutability": "payable",
      "type": "function"
    },
    {
      "stateMutability": "payable",
      "type": "receive"
    },
    {
      "inputs": [
        {
          "internalType": "address",
          "name": "_accessManager",
          "type": "address"
        },
        {
          "internalType": "address",
          "name": "_farmFactory",
          "type": "address"
        }
      ],
      "name": "initialize",
      "outputs": [],
      "stateMutability": "nonpayable",
      "type": "function"
    },
    {
      "inputs": [
        {
          "internalType": "address",
          "name": "lpPair",
          "type": "address"
        },
        {
          "internalType": "uint256",
          "name": "amountA",
          "type": "uint256"
        },
        {
          "internalType": "uint256",
          "name": "amountB",
          "type": "uint256"
        },
        {
          "internalType": "uint256",
          "name": "amountAMin",
          "type": "uint256"
        },
        {
          "internalType": "uint256",
          "name": "amountBMin",
          "type": "uint256"
        },
        {
          "internalType": "uint256",
          "name": "amountLP",
          "type": "uint256"
        },
        {
          "internalType": "address",
          "name": "recipient",
          "type": "address"
        }
      ],
      "name": "deposit",
      "outputs": [
        {
          "internalType": "uint256",
          "name": "sentA",
          "type": "uint256"
        },
        {
          "internalType": "uint256",
          "name": "sentB",
          "type": "uint256"
        },
        {
          "internalType": "uint256",
          "name": "liquidity",
          "type": "uint256"
        }
      ],
      "stateMutability": "nonpayable",
      "type": "function"
    },
    {
      "inputs": [
        {
          "internalType": "address",
          "name": "lpPair",
          "type": "address"
        },
        {
          "internalType": "uint256",
          "name": "amountToken",
          "type": "uint256"
        },
        {
          "internalType": "uint256",
          "name": "amountTokenMin",
          "type": "uint256"
        },
        {
          "internalType": "uint256",
          "name": "amountETHMin",
          "type": "uint256"
        },
        {
          "internalType": "uint256",
          "name": "amountLP",
          "type": "uint256"
        },
        {
          "internalType": "address",
          "name": "recipient",
          "type": "address"
        }
      ],
      "name": "depositETH",
      "outputs": [
        {
          "internalType": "uint256",
          "name": "sentToken",
          "type": "uint256"
        },
        {
          "internalType": "uint256",
          "name": "sentETH",
          "type": "uint256"
        },
        {
          "internalType": "uint256",
          "name": "liquidity",
          "type": "uint256"
        }
      ],
      "stateMutability": "payable",
      "type": "function"
    },
    {
      "inputs": [
        {
          "internalType": "address",
          "name": "lpPair",
          "type": "address"
        },
        {
          "internalType": "uint256",
          "name": "amount",
          "type": "uint256"
        },
        {
          "internalType": "uint256",
          "name": "amountAMin",
          "type": "uint256"
        },
        {
          "internalType": "uint256",
          "name": "amountBMin",
          "type": "uint256"
        },
        {
          "internalType": "bool",
          "name": "withdrawLP",
          "type": "bool"
        },
        {
          "internalType": "address",
          "name": "recipient",
          "type": "address"
        }
      ],
      "name": "withdraw",
      "outputs": [
        {
          "internalType": "uint256",
          "name": "amountA",
          "type": "uint256"
        },
        {
          "internalType": "uint256",
          "name": "amountB",
          "type": "uint256"
        }
      ],
      "stateMutability": "nonpayable",
      "type": "function"
    },
    {
      "inputs": [
        {
          "internalType": "address",
          "name": "lpPair",
          "type": "address"
        },
        {
          "internalType": "uint256",
          "name": "amount",
          "type": "uint256"
        },
        {
          "internalType": "uint256",
          "name": "amountTokenMin",
          "type": "uint256"
        },
        {
          "internalType": "uint256",
          "name": "amountETHMin",
          "type": "uint256"
        },
        {
          "internalType": "address",
          "name": "recipient",
          "type": "address"
        }
      ],
      "name": "withdrawETH",
      "outputs": [
        {
          "internalType": "uint256",
          "name": "amountToken",
          "type": "uint256"
        },
        {
          "internalType": "uint256",
          "name": "amountETH",
          "type": "uint256"
        }
      ],
      "stateMutability": "payable",
      "type": "function"
    },
    {
      "inputs": [
        {
          "internalType": "address",
          "name": "lpPair",
          "type": "address"
        },
        {
          "components": [
            {
              "internalType": "address[]",
              "name": "route",
              "type": "address[]"
            },
            {
              "internalType": "uint256",
              "name": "amountOutMin",
              "type": "uint256"
            }
          ],
          "internalType": "struct IUnoFarmMeshswap.SwapInfo[2]",
          "name": "swapInfos",
          "type": "tuple[2]"
        },
        {
          "components": [
            {
              "internalType": "address[]",
              "name": "route",
              "type": "address[]"
            },
            {
              "internalType": "uint256",
              "name": "amountOutMin",
              "type": "uint256"
            }
          ],
          "internalType": "struct IUnoFarmMeshswap.SwapInfo",
          "name": "feeSwapInfo",
          "type": "tuple"
        },
        {
          "internalType": "address",
          "name": "feeTo",
          "type": "address"
        }
      ],
      "name": "distribute",
      "outputs": [],
      "stateMutability": "nonpayable",
      "type": "function"
    },
    {
      "inputs": [
        {
          "internalType": "address",
          "name": "_address",
          "type": "address"
        },
        {
          "internalType": "address",
          "name": "lpPair",
          "type": "address"
        }
      ],
      "name": "userStake",
      "outputs": [
        {
          "internalType": "uint256",
          "name": "stakeLP",
          "type": "uint256"
        },
        {
          "internalType": "uint256",
          "name": "stakeA",
          "type": "uint256"
        },
        {
          "internalType": "uint256",
          "name": "stakeB",
          "type": "uint256"
        }
      ],
      "stateMutability": "view",
      "type": "function"
    },
    {
      "inputs": [
        {
          "internalType": "address",
          "name": "lpPair",
          "type": "address"
        }
      ],
      "name": "totalDeposits",
      "outputs": [
        {
          "internalType": "uint256",
          "name": "totalDepositsLP",
          "type": "uint256"
        },
        {
          "internalType": "uint256",
          "name": "totalDepositsA",
          "type": "uint256"
        },
        {
          "internalType": "uint256",
          "name": "totalDepositsB",
          "type": "uint256"
        }
      ],
      "stateMutability": "view",
      "type": "function"
    },
    {
      "inputs": [
        {
          "internalType": "address",
          "name": "lpPair",
          "type": "address"
        }
      ],
      "name": "getTokens",
      "outputs": [
        {
          "internalType": "contract IERC20Upgradeable[]",
          "name": "tokens",
          "type": "address[]"
        }
      ],
      "stateMutability": "view",
      "type": "function"
    },
    {
      "inputs": [
        {
          "internalType": "uint256",
          "name": "_fee",
          "type": "uint256"
        }
      ],
      "name": "setFee",
      "outputs": [],
      "stateMutability": "nonpayable",
      "type": "function"
    },
    {
      "inputs": [],
      "name": "pause",
      "outputs": [],
      "stateMutability": "nonpayable",
      "type": "function"
    },
    {
      "inputs": [],
      "name": "unpause",
      "outputs": [],
      "stateMutability": "nonpayable",
      "type": "function"
    }
  ],
  "bytecode": "0x60a0604052306080523480156200001557600080fd5b506200002062000026565b62000156565b6200003260ff62000035565b50565b60008054610100900460ff1615620000ce578160ff1660011480156200006e57506200006c306200014760201b62001e681760201c565b155b620000c65760405162461bcd60e51b815260206004820152602e6024820152600080516020620034b783398151915260448201526d191e481a5b9a5d1a585b1a5e995960921b60648201526084015b60405180910390fd5b506000919050565b60005460ff8084169116106200012d5760405162461bcd60e51b815260206004820152602e6024820152600080516020620034b783398151915260448201526d191e481a5b9a5d1a585b1a5e995960921b6064820152608401620000bd565b506000805460ff191660ff92909216919091179055600190565b6001600160a01b03163b151590565b6080516133296200018e600039600081816105a2015281816105e2015281816111e60152818161122601526113c301526133296000f3fe6080604052600436106101235760003560e01c806352d1902d116100a0578063ddca3f4311610064578063ddca3f43146103a4578063deb03f4d146103ba578063e9403256146103cd578063f441f73c146103ed578063fdcb60681461040d57600080fd5b806352d1902d146103095780635c975abb1461032c57806369fe0e2d1461034f5780636d25e1751461036f5780638456cb591461038f57600080fd5b8063485cc955116100e7578063485cc955146102565780634d95cad9146102765780634e816aa8146102b65780634f1ef286146102d657806351bdca3e146102e957600080fd5b80631ec5aa3e1461018c5780633659cfe6146101c65780633f4ba83a146101e6578063450efe21146101fb5780634743cdc71461022857600080fd5b366101875733730d500b1d8e8ef31e21c99d1db9a6444d3adf1270146101855760405162461bcd60e51b81526020600482015260126024820152714f4e4c595f4143434550545f574d4154494360701b60448201526064015b60405180910390fd5b005b600080fd5b34801561019857600080fd5b506101ac6101a7366004612a08565b61042d565b604080519283526020830191909152015b60405180910390f35b3480156101d257600080fd5b506101856101e1366004612a6f565b610597565b3480156101f257600080fd5b50610185610677565b34801561020757600080fd5b5061021b610216366004612a6f565b61072e565b6040516101bd9190612a8c565b61023b610236366004612ad9565b61087d565b604080519384526020840192909252908201526060016101bd565b34801561026257600080fd5b50610185610271366004612b29565b610e5f565b34801561028257600080fd5b5061029e730d500b1d8e8ef31e21c99d1db9a6444d3adf127081565b6040516001600160a01b0390911681526020016101bd565b3480156102c257600080fd5b506101856102d1366004612b62565b610f9a565b6101856102e4366004612c0f565b6111db565b3480156102f557600080fd5b5061023b610304366004612b29565b6112ac565b34801561031557600080fd5b5061031e6113b6565b6040519081526020016101bd565b34801561033857600080fd5b5060335460ff1660405190151581526020016101bd565b34801561035b57600080fd5b5061018561036a366004612cd3565b611469565b34801561037b57600080fd5b5060c95461029e906001600160a01b031681565b34801561039b57600080fd5b506101856115fc565b3480156103b057600080fd5b5061031e60cb5481565b6101ac6103c8366004612cec565b6116b3565b3480156103d957600080fd5b5061023b6103e8366004612a6f565b611a8e565b3480156103f957600080fd5b5061023b610408366004612d42565b611b90565b34801561041957600080fd5b5060ca5461029e906001600160a01b031681565b60c95460405163f9d9331d60e01b81526001600160a01b038881166004830152600092839283929091169063f9d9331d90602401602060405180830381865afa15801561047e573d6000803e3d6000fd5b505050506040513d601f19601f820116820180604052508101906104a29190612dab565b90506001600160a01b0381166104ca5760405162461bcd60e51b815260040161017c90612dc8565b60405163d563468360e01b81526001600160a01b0382169063d563468390610500908b908b908b908b9033908c90600401612df1565b60408051808303816000875af115801561051e573d6000803e3d6000fd5b505050506040513d601f19601f820116820180604052508101906105429190612e27565b6040518a815291945092506001600160a01b038581169133918c16907f3115d1449a7b732c986cba18244e897a450f61e1bb8d589cd2e69e6c8924f9f79060200160405180910390a450965096945050505050565b306001600160a01b037f00000000000000000000000000000000000000000000000000000000000000001614156105e05760405162461bcd60e51b815260040161017c90612e4b565b7f00000000000000000000000000000000000000000000000000000000000000006001600160a01b03166106296000805160206132ad833981519152546001600160a01b031690565b6001600160a01b03161461064f5760405162461bcd60e51b815260040161017c90612e97565b61065881611e77565b6040805160008082526020820190925261067491839190611f7d565b50565b60ca54604051632474521560e21b81527f65d7a28e3265b37a6474929f336521b332c1681b933f6cb9f3376673440d862a60048201819052336024830152916001600160a01b0316906391d1485490604401602060405180830381865afa1580156106e6573d6000803e3d6000fd5b505050506040513d601f19601f8201168201806040525081019061070a9190612ee3565b6107265760405162461bcd60e51b815260040161017c90612f00565b6106746120e8565b6040805160028082526060808301845292602083019080368337019050509050816001600160a01b0316630dfe16816040518163ffffffff1660e01b8152600401602060405180830381865afa15801561078c573d6000803e3d6000fd5b505050506040513d601f19601f820116820180604052508101906107b09190612dab565b816000815181106107c3576107c3612f2f565b60200260200101906001600160a01b031690816001600160a01b031681525050816001600160a01b031663d21220a76040518163ffffffff1660e01b8152600401602060405180830381865afa158015610821573d6000803e3d6000fd5b505050506040513d601f19601f820116820180604052508101906108459190612dab565b8160018151811061085857610858612f2f565b60200260200101906001600160a01b031690816001600160a01b031681525050919050565b600080600061088e60335460ff1690565b156108ab5760405162461bcd60e51b815260040161017c90612f45565b600034116108eb5760405162461bcd60e51b815260206004820152600d60248201526c1393d7d350551250d7d4d15395609a1b604482015260640161017c565b60c95460405163f9d9331d60e01b81526001600160a01b038b81166004830152600092169063f9d9331d90602401602060405180830381865afa158015610936573d6000803e3d6000fd5b505050506040513d601f19601f8201168201806040525081019061095a9190612dab565b90506001600160a01b0381166109dc5760c954604051621849e360e61b81526001600160a01b038c811660048301529091169063061278c0906024016020604051808303816000875af11580156109b5573d6000803e3d6000fd5b505050506040513d601f19601f820116820180604052508101906109d99190612dab565b90505b85156109f7576109f76001600160a01b038b1633838961217b565b6000816001600160a01b0316630fc63d106040518163ffffffff1660e01b8152600401602060405180830381865afa158015610a37573d6000803e3d6000fd5b505050506040513d601f19601f82011682018060405250810190610a5b9190612dab565b90506000826001600160a01b0316635f64b55b6040518163ffffffff1660e01b8152600401602060405180830381865afa158015610a9d573d6000803e3d6000fd5b505050506040513d601f19601f82011682018060405250810190610ac19190612dab565b9050730d500b1d8e8ef31e21c99d1db9a6444d3adf12706001600160a01b031663d0e30db0346040518263ffffffff1660e01b81526004016000604051808303818588803b158015610b1257600080fd5b505af1158015610b26573d6000803e3d6000fd5b50610b4e9350730d500b1d8e8ef31e21c99d1db9a6444d3adf127092508691503490506121ec565b6001600160a01b038216730d500b1d8e8ef31e21c99d1db9a6444d3adf12701415610c35578a15610b8e57610b8e6001600160a01b03821633858e61217b565b826001600160a01b0316631666768a348d8c8e8d308e6040518863ffffffff1660e01b8152600401610bc69796959493929190612f6f565b6060604051808303816000875af1158015610be5573d6000803e3d6000fd5b505050506040513d601f19601f82011682018060405250810190610c099190612fab565b9097509095509350610c3033610c1f888e612fef565b6001600160a01b03841691906121ec565b610d50565b6001600160a01b038116730d500b1d8e8ef31e21c99d1db9a6444d3adf12701415610d16578a15610c7557610c756001600160a01b03831633858e61217b565b826001600160a01b0316631666768a8c348d8d8d308e6040518863ffffffff1660e01b8152600401610cad9796959493929190612f6f565b6060604051808303816000875af1158015610ccc573d6000803e3d6000fd5b505050506040513d601f19601f82011682018060405250810190610cf09190612fab565b91975095509350610c3033610d05888e612fef565b6001600160a01b03851691906121ec565b60405162461bcd60e51b815260206004820152600f60248201526e1393d517d5d350551250d7d413d3d3608a1b604482015260640161017c565b6000610d5c8634612fef565b90508015610df857604051632e1a7d4d60e01b815260048101829052730d500b1d8e8ef31e21c99d1db9a6444d3adf127090632e1a7d4d90602401600060405180830381600087803b158015610db157600080fd5b505af1158015610dc5573d6000803e3d6000fd5b505060405133925083156108fc02915083906000818181858888f19350505050158015610df6573d6000803e3d6000fd5b505b876001600160a01b0316336001600160a01b03168e6001600160a01b03167f7cfff908a4b583f36430b25d75964c458d8ede8a99bd61be750e97ee1b2f3a9688604051610e4791815260200190565b60405180910390a45050505096509650969350505050565b6000610e6b600161221c565b90508015610e83576000805461ff0019166101001790555b6001600160a01b038316610ece5760405162461bcd60e51b81526020600482015260126024820152712120a22fa0a1a1a2a9a9afa6a0a720a3a2a960711b604482015260640161017c565b6001600160a01b038216610f175760405162461bcd60e51b815260206004820152601060248201526f4241445f4641524d5f464143544f525960801b604482015260640161017c565b610f1f6122a4565b60ca80546001600160a01b038086166001600160a01b03199283161790925560c98054928516929091169190911790558015610f95576000805461ff0019169055604051600181527f7f26b83ff96e1f2b6a682f133852f6798a09c465da95921460cefb38474024989060200160405180910390a15b505050565b60335460ff1615610fbd5760405162461bcd60e51b815260040161017c90612f45565b60ca54604051632474521560e21b81527ffbd454f36a7e1a388bd6fc3ab10d434aa4578f811acbbcf33afb1c697486313c60048201819052336024830152916001600160a01b0316906391d1485490604401602060405180830381865afa15801561102c573d6000803e3d6000fd5b505050506040513d601f19601f820116820180604052508101906110509190612ee3565b61106c5760405162461bcd60e51b815260040161017c90612f00565b60c95460405163f9d9331d60e01b81526001600160a01b038781166004830152600092169063f9d9331d90602401602060405180830381865afa1580156110b7573d6000803e3d6000fd5b505050506040513d601f19601f820116820180604052508101906110db9190612dab565b90506001600160a01b0381166111035760405162461bcd60e51b815260040161017c90612dc8565b6040805180820182526001600160a01b03858116825260cb54602083015291516336eeb1dd60e01b81526000928416916336eeb1dd9161114a918a918a91906004016130a5565b6020604051808303816000875af1158015611169573d6000803e3d6000fd5b505050506040513d601f19601f8201168201806040525081019061118d919061313e565b9050866001600160a01b03167fc1d32ad5cca423e7dda2123dbf8c482f8e77d00b631c06e903a47f2cec1334df826040516111ca91815260200190565b60405180910390a250505050505050565b306001600160a01b037f00000000000000000000000000000000000000000000000000000000000000001614156112245760405162461bcd60e51b815260040161017c90612e4b565b7f00000000000000000000000000000000000000000000000000000000000000006001600160a01b031661126d6000805160206132ad833981519152546001600160a01b031690565b6001600160a01b0316146112935760405162461bcd60e51b815260040161017c90612e97565b61129c82611e77565b6112a882826001611f7d565b5050565b60c95460405163f9d9331d60e01b81526001600160a01b038381166004830152600092839283928392169063f9d9331d90602401602060405180830381865afa1580156112fd573d6000803e3d6000fd5b505050506040513d601f19601f820116820180604052508101906113219190612dab565b90506001600160a01b038116156113ae57604051630103c92b60e01b81526001600160a01b038781166004830152821690630103c92b90602401602060405180830381865afa158015611378573d6000803e3d6000fd5b505050506040513d601f19601f8201168201806040525081019061139c919061313e565b93506113a885856122d5565b90935091505b509250925092565b6000306001600160a01b037f000000000000000000000000000000000000000000000000000000000000000016146114565760405162461bcd60e51b815260206004820152603860248201527f555550535570677261646561626c653a206d757374206e6f742062652063616c60448201527f6c6564207468726f7567682064656c656761746563616c6c0000000000000000606482015260840161017c565b506000805160206132ad83398151915290565b60ca60009054906101000a90046001600160a01b03166001600160a01b03166375b238fc6040518163ffffffff1660e01b8152600401602060405180830381865afa1580156114bc573d6000803e3d6000fd5b505050506040513d601f19601f820116820180604052508101906114e0919061313e565b60ca54604051632474521560e21b8152600481018390523360248201526001600160a01b03909116906391d1485490604401602060405180830381865afa15801561152f573d6000803e3d6000fd5b505050506040513d601f19601f820116820180604052508101906115539190612ee3565b61156f5760405162461bcd60e51b815260040161017c90612f00565b670de0b6b3a76400008211156115b15760405162461bcd60e51b81526020600482015260076024820152664241445f46454560c81b604482015260640161017c565b8160cb54146112a85760cb5460408051918252602082018490527f5fc463da23c1b063e66f9e352006a7fbe8db7223c455dc429e881a2dfe2f94f1910160405180910390a15060cb55565b60ca54604051632474521560e21b81527f65d7a28e3265b37a6474929f336521b332c1681b933f6cb9f3376673440d862a60048201819052336024830152916001600160a01b0316906391d1485490604401602060405180830381865afa15801561166b573d6000803e3d6000fd5b505050506040513d601f19601f8201168201806040525081019061168f9190612ee3565b6116ab5760405162461bcd60e51b815260040161017c90612f00565b610674612510565b60c95460405163f9d9331d60e01b81526001600160a01b038781166004830152600092839283929091169063f9d9331d90602401602060405180830381865afa158015611704573d6000803e3d6000fd5b505050506040513d601f19601f820116820180604052508101906117289190612dab565b90506001600160a01b0381166117505760405162461bcd60e51b815260040161017c90612dc8565b6000816001600160a01b0316630fc63d106040518163ffffffff1660e01b8152600401602060405180830381865afa158015611790573d6000803e3d6000fd5b505050506040513d601f19601f820116820180604052508101906117b49190612dab565b90506000826001600160a01b0316635f64b55b6040518163ffffffff1660e01b8152600401602060405180830381865afa1580156117f6573d6000803e3d6000fd5b505050506040513d601f19601f8201168201806040525081019061181a9190612dab565b90506001600160a01b038216730d500b1d8e8ef31e21c99d1db9a6444d3adf127014156118d75760405163d563468360e01b81526001600160a01b0384169063d563468390611878908c908b908d9060009033903090600401612df1565b60408051808303816000875af1158015611896573d6000803e3d6000fd5b505050506040513d601f19601f820116820180604052508101906118ba9190612e27565b955093506118d26001600160a01b03821687876121ec565b61198e565b6001600160a01b038116730d500b1d8e8ef31e21c99d1db9a6444d3adf12701415610d165760405163d563468360e01b81526001600160a01b0384169063d563468390611933908c908c908c9060009033903090600401612df1565b60408051808303816000875af1158015611951573d6000803e3d6000fd5b505050506040513d601f19601f820116820180604052508101906119759190612e27565b90955093506118d26001600160a01b03831687876121ec565b604051632e1a7d4d60e01b815260048101859052730d500b1d8e8ef31e21c99d1db9a6444d3adf127090632e1a7d4d90602401600060405180830381600087803b1580156119db57600080fd5b505af11580156119ef573d6000803e3d6000fd5b50506040516001600160a01b038916925086156108fc02915086906000818181858888f19350505050158015611a29573d6000803e3d6000fd5b50856001600160a01b0316336001600160a01b03168b6001600160a01b03167f3115d1449a7b732c986cba18244e897a450f61e1bb8d589cd2e69e6c8924f9f78c604051611a7991815260200190565b60405180910390a45050509550959350505050565b60c95460405163f9d9331d60e01b81526001600160a01b038381166004830152600092839283928392169063f9d9331d90602401602060405180830381865afa158015611adf573d6000803e3d6000fd5b505050506040513d601f19601f82011682018060405250810190611b039190612dab565b90506001600160a01b03811615611b8857806001600160a01b031663168a48226040518163ffffffff1660e01b8152600401602060405180830381865afa158015611b52573d6000803e3d6000fd5b505050506040513d601f19601f82011682018060405250810190611b76919061313e565b9350611b8285856122d5565b90935091505b509193909250565b6000806000611ba160335460ff1690565b15611bbe5760405162461bcd60e51b815260040161017c90612f45565b60c95460405163f9d9331d60e01b81526001600160a01b038c81166004830152600092169063f9d9331d90602401602060405180830381865afa158015611c09573d6000803e3d6000fd5b505050506040513d601f19601f82011682018060405250810190611c2d9190612dab565b90506001600160a01b038116611caf5760c954604051621849e360e61b81526001600160a01b038d811660048301529091169063061278c0906024016020604051808303816000875af1158015611c88573d6000803e3d6000fd5b505050506040513d601f19601f82011682018060405250810190611cac9190612dab565b90505b8515611cca57611cca6001600160a01b038c1633838961217b565b8915611d4957611d4933828c846001600160a01b0316630fc63d106040518163ffffffff1660e01b8152600401602060405180830381865afa158015611d14573d6000803e3d6000fd5b505050506040513d601f19601f82011682018060405250810190611d389190612dab565b6001600160a01b031692919061217b565b8815611d9357611d9333828b846001600160a01b0316635f64b55b6040518163ffffffff1660e01b8152600401602060405180830381865afa158015611d14573d6000803e3d6000fd5b604051630b333b4560e11b81526001600160a01b03821690631666768a90611dcb908d908d908d908d908d9033908e90600401612f6f565b6060604051808303816000875af1158015611dea573d6000803e3d6000fd5b505050506040513d601f19601f82011682018060405250810190611e0e9190612fab565b60405181815292965090945092506001600160a01b038681169133918e16907f7cfff908a4b583f36430b25d75964c458d8ede8a99bd61be750e97ee1b2f3a969060200160405180910390a4509750975097945050505050565b6001600160a01b03163b151590565b60ca60009054906101000a90046001600160a01b03166001600160a01b03166375b238fc6040518163ffffffff1660e01b8152600401602060405180830381865afa158015611eca573d6000803e3d6000fd5b505050506040513d601f19601f82011682018060405250810190611eee919061313e565b60ca54604051632474521560e21b8152600481018390523360248201526001600160a01b03909116906391d1485490604401602060405180830381865afa158015611f3d573d6000803e3d6000fd5b505050506040513d601f19601f82011682018060405250810190611f619190612ee3565b6112a85760405162461bcd60e51b815260040161017c90612f00565b7f4910fdfa16fed3260ed0e7147f7cc6da11a60208b5b9406d12a635614ffd91435460ff1615611fb057610f9583612568565b826001600160a01b03166352d1902d6040518163ffffffff1660e01b8152600401602060405180830381865afa92505050801561200a575060408051601f3d908101601f191682019092526120079181019061313e565b60015b61206d5760405162461bcd60e51b815260206004820152602e60248201527f45524331393637557067726164653a206e657720696d706c656d656e7461746960448201526d6f6e206973206e6f74205555505360901b606482015260840161017c565b6000805160206132ad83398151915281146120dc5760405162461bcd60e51b815260206004820152602960248201527f45524331393637557067726164653a20756e737570706f727465642070726f786044820152681a58589b195555525160ba1b606482015260840161017c565b50610f95838383612604565b60335460ff166121315760405162461bcd60e51b815260206004820152601460248201527314185d5cd8589b194e881b9bdd081c185d5cd95960621b604482015260640161017c565b6033805460ff191690557f5db9ee0a495bf2e6ff9c91a7834c1ba4fdd244a5e8aa4e537bd38aeae4b073aa335b6040516001600160a01b03909116815260200160405180910390a1565b6040516001600160a01b03808516602483015283166044820152606481018290526121e69085906323b872dd60e01b906084015b60408051601f198184030181529190526020810180516001600160e01b03166001600160e01b031990931692909217909152612629565b50505050565b6040516001600160a01b038316602482015260448101829052610f9590849063a9059cbb60e01b906064016121af565b60008054610100900460ff1615612263578160ff16600114801561223f5750303b155b61225b5760405162461bcd60e51b815260040161017c90613157565b506000919050565b60005460ff80841691161061228a5760405162461bcd60e51b815260040161017c90613157565b506000805460ff191660ff92909216919091179055600190565b600054610100900460ff166122cb5760405162461bcd60e51b815260040161017c906131a5565b6122d36126fb565b565b6000806000846001600160a01b03166318160ddd6040518163ffffffff1660e01b8152600401602060405180830381865afa158015612318573d6000803e3d6000fd5b505050506040513d601f19601f8201168201806040525081019061233c919061313e565b905080856001600160a01b0316630dfe16816040518163ffffffff1660e01b8152600401602060405180830381865afa15801561237d573d6000803e3d6000fd5b505050506040513d601f19601f820116820180604052508101906123a19190612dab565b6040516370a0823160e01b81526001600160a01b03888116600483015291909116906370a0823190602401602060405180830381865afa1580156123e9573d6000803e3d6000fd5b505050506040513d601f19601f8201168201806040525081019061240d919061313e565b61241790866131f0565b612421919061320f565b925080856001600160a01b031663d21220a76040518163ffffffff1660e01b8152600401602060405180830381865afa158015612462573d6000803e3d6000fd5b505050506040513d601f19601f820116820180604052508101906124869190612dab565b6040516370a0823160e01b81526001600160a01b03888116600483015291909116906370a0823190602401602060405180830381865afa1580156124ce573d6000803e3d6000fd5b505050506040513d601f19601f820116820180604052508101906124f2919061313e565b6124fc90866131f0565b612506919061320f565b9150509250929050565b60335460ff16156125335760405162461bcd60e51b815260040161017c90612f45565b6033805460ff191660011790557f62e78cea01bee320cd4e420270b5ea74000d11b0c9f74754ebdbfc544b05a25861215e3390565b6001600160a01b0381163b6125d55760405162461bcd60e51b815260206004820152602d60248201527f455243313936373a206e657720696d706c656d656e746174696f6e206973206e60448201526c1bdd08184818dbdb9d1c9858dd609a1b606482015260840161017c565b6000805160206132ad83398151915280546001600160a01b0319166001600160a01b0392909216919091179055565b61260d8361272e565b60008251118061261a5750805b15610f95576121e6838361276e565b600061267e826040518060400160405280602081526020017f5361666545524332303a206c6f772d6c6576656c2063616c6c206661696c6564815250856001600160a01b03166128629092919063ffffffff16565b805190915015610f95578080602001905181019061269c9190612ee3565b610f955760405162461bcd60e51b815260206004820152602a60248201527f5361666545524332303a204552433230206f7065726174696f6e20646964206e6044820152691bdd081cdd58d8d9595960b21b606482015260840161017c565b600054610100900460ff166127225760405162461bcd60e51b815260040161017c906131a5565b6033805460ff19169055565b61273781612568565b6040516001600160a01b038216907fbc7cd75a20ee27fd9adebab32041f755214dbc6bffa90cc0225b39da2e5c2d3b90600090a250565b60606001600160a01b0383163b6127d65760405162461bcd60e51b815260206004820152602660248201527f416464726573733a2064656c65676174652063616c6c20746f206e6f6e2d636f6044820152651b9d1c9858dd60d21b606482015260840161017c565b600080846001600160a01b0316846040516127f1919061325d565b600060405180830381855af49150503d806000811461282c576040519150601f19603f3d011682016040523d82523d6000602084013e612831565b606091505b509150915061285982826040518060600160405280602781526020016132cd6027913961287b565b95945050505050565b606061287184846000856128b4565b90505b9392505050565b6060831561288a575081612874565b82511561289a5782518084602001fd5b8160405162461bcd60e51b815260040161017c9190613279565b6060824710156129155760405162461bcd60e51b815260206004820152602660248201527f416464726573733a20696e73756666696369656e742062616c616e636520666f6044820152651c8818d85b1b60d21b606482015260840161017c565b6001600160a01b0385163b61296c5760405162461bcd60e51b815260206004820152601d60248201527f416464726573733a2063616c6c20746f206e6f6e2d636f6e7472616374000000604482015260640161017c565b600080866001600160a01b03168587604051612988919061325d565b60006040518083038185875af1925050503d80600081146129c5576040519150601f19603f3d011682016040523d82523d6000602084013e6129ca565b606091505b50915091506129da82828661287b565b979650505050505050565b6001600160a01b038116811461067457600080fd5b801515811461067457600080fd5b60008060008060008060c08789031215612a2157600080fd5b8635612a2c816129e5565b95506020870135945060408701359350606087013592506080870135612a51816129fa565b915060a0870135612a61816129e5565b809150509295509295509295565b600060208284031215612a8157600080fd5b8135612874816129e5565b6020808252825182820181905260009190848201906040850190845b81811015612acd5783516001600160a01b031683529284019291840191600101612aa8565b50909695505050505050565b60008060008060008060c08789031215612af257600080fd5b8635612afd816129e5565b95506020870135945060408701359350606087013592506080870135915060a0870135612a61816129e5565b60008060408385031215612b3c57600080fd5b8235612b47816129e5565b91506020830135612b57816129e5565b809150509250929050565b60008060008060808587031215612b7857600080fd5b8435612b83816129e5565b9350602085013567ffffffffffffffff80821115612ba057600080fd5b818701915087604083011115612bb557600080fd5b90935060408601359080821115612bcb57600080fd5b50850160408188031215612bde57600080fd5b91506060850135612bee816129e5565b939692955090935050565b634e487b7160e01b600052604160045260246000fd5b60008060408385031215612c2257600080fd5b8235612c2d816129e5565b9150602083013567ffffffffffffffff80821115612c4a57600080fd5b818501915085601f830112612c5e57600080fd5b813581811115612c7057612c70612bf9565b604051601f8201601f19908116603f01168101908382118183101715612c9857612c98612bf9565b81604052828152886020848701011115612cb157600080fd5b8260208601602083013760006020848301015280955050505050509250929050565b600060208284031215612ce557600080fd5b5035919050565b600080600080600060a08688031215612d0457600080fd5b8535612d0f816129e5565b94506020860135935060408601359250606086013591506080860135612d34816129e5565b809150509295509295909350565b600080600080600080600060e0888a031215612d5d57600080fd5b8735612d68816129e5565b96506020880135955060408801359450606088013593506080880135925060a0880135915060c0880135612d9b816129e5565b8091505092959891949750929550565b600060208284031215612dbd57600080fd5b8151612874816129e5565b6020808252600f908201526e4641524d5f4e4f545f45584953545360881b604082015260600190565b95865260208601949094526040850192909252151560608401526001600160a01b0390811660808401521660a082015260c00190565b60008060408385031215612e3a57600080fd5b505080516020909101519092909150565b6020808252602c908201527f46756e6374696f6e206d7573742062652063616c6c6564207468726f7567682060408201526b19195b1959d85d1958d85b1b60a21b606082015260800190565b6020808252602c908201527f46756e6374696f6e206d7573742062652063616c6c6564207468726f7567682060408201526b6163746976652070726f787960a01b606082015260800190565b600060208284031215612ef557600080fd5b8151612874816129fa565b60208082526015908201527410d05313115497d393d517d055551213d492569151605a1b604082015260600190565b634e487b7160e01b600052603260045260246000fd5b60208082526010908201526f14185d5cd8589b194e881c185d5cd95960821b604082015260600190565b96875260208701959095526040860193909352606085019190915260808401526001600160a01b0390811660a08401521660c082015260e00190565b600080600060608486031215612fc057600080fd5b8351925060208401519150604084015190509250925092565b634e487b7160e01b600052601160045260246000fd5b60008282101561300157613001612fd9565b500390565b6000604083018235601e1984360301811261302057600080fd5b83018035602067ffffffffffffffff82111561303b57600080fd5b8160051b360386131561304d57600080fd5b60408752928190529082019160009190606087015b82841015613092578435613075816129e5565b6001600160a01b0316815293810193600193909301928101613062565b9581013596019590955250919392505050565b608080825260009060c083019083018683805b600281101561310057868503607f190184528235368b9003603e190181126130de578283fd5b6130ea868c8301613006565b95505060209384019392909201916001016130b8565b5050505082810360208401526131168186613006565b84516001600160a01b0316604085015260209094015160609093019290925250909392505050565b60006020828403121561315057600080fd5b5051919050565b6020808252602e908201527f496e697469616c697a61626c653a20636f6e747261637420697320616c72656160408201526d191e481a5b9a5d1a585b1a5e995960921b606082015260800190565b6020808252602b908201527f496e697469616c697a61626c653a20636f6e7472616374206973206e6f74206960408201526a6e697469616c697a696e6760a81b606082015260800190565b600081600019048311821515161561320a5761320a612fd9565b500290565b60008261322c57634e487b7160e01b600052601260045260246000fd5b500490565b60005b8381101561324c578181015183820152602001613234565b838111156121e65750506000910152565b6000825161326f818460208701613231565b9190910192915050565b6020815260008251806020840152613298816040850160208701613231565b601f01601f1916919091016040019291505056fe360894a13ba1a3210667c828492db98dca3e2076cc3735a920a3ca505d382bbc416464726573733a206c6f772d6c6576656c2064656c65676174652063616c6c206661696c6564a2646970667358221220735786f290119128caa65c7af458a7b8c53788fb067ac131215e18f024ad119564736f6c634300080a0033496e697469616c697a61626c653a20636f6e747261637420697320616c726561",
  "immutableReferences": {
    "561": [
      {
        "length": 32,
        "start": 1442
      },
      {
        "length": 32,
        "start": 1506
      },
      {
        "length": 32,
        "start": 4582
      },
      {
        "length": 32,
        "start": 4646
      },
      {
        "length": 32,
        "start": 5059
      }
    ]
  },
  "source": "// SPDX-License-Identifier: MIT\npragma solidity 0.8.10;\n\nimport { IUnoFarmMeshswap as Farm } from \"./interfaces/IUnoFarmMeshswap.sol\";\nimport \"../../interfaces/IUnoFarmFactory.sol\";\nimport \"../../interfaces/IUnoAccessManager.sol\";\nimport \"../../interfaces/IUniswapV2Pair.sol\";\nimport \"../../interfaces/IWMATIC.sol\";\nimport \"@openzeppelin/contracts-upgradeable/proxy/utils/Initializable.sol\";\nimport \"@openzeppelin/contracts-upgradeable/token/ERC20/utils/SafeERC20Upgradeable.sol\";\nimport \"@openzeppelin/contracts-upgradeable/token/ERC20/IERC20Upgradeable.sol\";\nimport \"@openzeppelin/contracts-upgradeable/security/PausableUpgradeable.sol\";\nimport \"@openzeppelin/contracts-upgradeable/proxy/utils/UUPSUpgradeable.sol\";\n\ncontract UnoAssetRouterMeshswap is\n\tInitializable,\n\tPausableUpgradeable,\n\tUUPSUpgradeable\n{\n\tusing SafeERC20Upgradeable for IERC20Upgradeable;\n\n\t/**\n\t * @dev Contract Variables:\n\t * farmFactory - The contract that deploys new Farms and links them to {lpPair}s.\n\t * accessManager - Role manager contract.\n\t */\n\tIUnoFarmFactory public farmFactory;\n\tIUnoAccessManager public accessManager;\n\n\tbytes32 private constant DISTRIBUTOR_ROLE = keccak256(\"DISTRIBUTOR_ROLE\");\n\tbytes32 private constant PAUSER_ROLE = keccak256(\"PAUSER_ROLE\");\n\n\tuint256 public fee;\n\n\taddress public constant WMATIC = 0x0d500B1d8E8eF31E21C99d1Db9A6444d3ADf1270;\n\n\tevent Deposit(\n\t\taddress indexed lpPool,\n\t\taddress indexed sender,\n\t\taddress indexed recipient,\n\t\tuint256 amount\n\t);\n\tevent Withdraw(\n\t\taddress indexed lpPool,\n\t\taddress indexed sender,\n\t\taddress indexed recipient,\n\t\tuint256 amount\n\t);\n\tevent Distribute(address indexed lpPool, uint256 reward);\n\n\tevent FeeChanged(uint256 previousFee, uint256 newFee);\n\n\tmodifier onlyRole(bytes32 role) {\n\t\trequire(\n\t\t\taccessManager.hasRole(role, msg.sender),\n\t\t\t\"CALLER_NOT_AUTHORIZED\"\n\t\t);\n\t\t_;\n\t}\n\n\t// ============ Methods ============\n\n\t/// @custom:oz-upgrades-unsafe-allow constructor\n\tconstructor() {\n\t\t_disableInitializers();\n\t}\n\n\tfunction initialize(address _accessManager, address _farmFactory)\n\t\texternal\n\t\tinitializer\n\t{\n\t\trequire(_accessManager != address(0), \"BAD_ACCESS_MANAGER\");\n\t\trequire(_farmFactory != address(0), \"BAD_FARM_FACTORY\");\n\n\t\t__Pausable_init();\n\t\taccessManager = IUnoAccessManager(_accessManager);\n\t\tfarmFactory = IUnoFarmFactory(_farmFactory);\n\t}\n\n\treceive() external payable {\n\t\trequire(msg.sender == WMATIC, \"ONLY_ACCEPT_WMATIC\"); // only accept ETH via fallback from the WMATIC contract\n\t}\n\n\t/**\n     * @dev Deposits tokens in the given pool. Creates new Farm contract if there isn't one deployed for the {lpPair} and deposits tokens in it. Emits a {Deposit} event.\n     * @param lpPair - Address of the pool to deposit tokens in.\n     * @param amountA  - Token A amount to deposit.\n     * @param amountB -  Token B amount to deposit.\n     * @param amountAMin - Bounds the extent to which the B/A price can go up before the transaction reverts.\n     * @param amountBMin - Bounds the extent to which the A/B price can go up before the transaction reverts.\n     * @param amountLP - Additional LP Token amount to deposit.\n     * @param recipient - Address which will receive the deposit.\n     \n     * @return sentA - Token A amount sent to the farm.\n     * @return sentB - Token B amount sent to the farm.\n     * @return liquidity - Total liquidity sent to the farm (in lpTokens).\n     */\n\tfunction deposit(\n\t\taddress lpPair,\n\t\tuint256 amountA,\n\t\tuint256 amountB,\n\t\tuint256 amountAMin,\n\t\tuint256 amountBMin,\n\t\tuint256 amountLP,\n\t\taddress recipient\n\t)\n\t\texternal\n\t\twhenNotPaused\n\t\treturns (\n\t\t\tuint256 sentA,\n\t\t\tuint256 sentB,\n\t\t\tuint256 liquidity\n\t\t)\n\t{\n\t\tFarm farm = Farm(farmFactory.Farms(lpPair));\n\t\tif (farm == Farm(address(0))) {\n\t\t\tfarm = Farm(farmFactory.createFarm(lpPair));\n\t\t}\n\n\t\tif (amountLP > 0) {\n\t\t\tIERC20Upgradeable(lpPair).safeTransferFrom(\n\t\t\t\tmsg.sender,\n\t\t\t\taddress(farm),\n\t\t\t\tamountLP\n\t\t\t);\n\t\t}\n\t\tif (amountA > 0) {\n\t\t\tIERC20Upgradeable(farm.tokenA()).safeTransferFrom(\n\t\t\t\tmsg.sender,\n\t\t\t\taddress(farm),\n\t\t\t\tamountA\n\t\t\t);\n\t\t}\n\t\tif (amountB > 0) {\n\t\t\tIERC20Upgradeable(farm.tokenB()).safeTransferFrom(\n\t\t\t\tmsg.sender,\n\t\t\t\taddress(farm),\n\t\t\t\tamountB\n\t\t\t);\n\t\t}\n\n\t\t(sentA, sentB, liquidity) = farm.deposit(\n\t\t\tamountA,\n\t\t\tamountB,\n\t\t\tamountAMin,\n\t\t\tamountBMin,\n\t\t\tamountLP,\n\t\t\tmsg.sender,\n\t\t\trecipient\n\t\t);\n\t\temit Deposit(lpPair, msg.sender, recipient, liquidity);\n\t}\n\n\t/**\n     * @dev Autoconverts MATIC into WMATIC and deposits tokens in the given pool. Creates new Farm contract if there isn't one deployed for the {lpStakingPool} and deposits tokens in it. Emits a {Deposit} event.\n     * @param lpPair - Address of the pool to deposit tokens in.\n     * @param amountToken  - Token amount to deposit.\n     * @param amountTokenMin - Bounds the extent to which the TOKEN/WMATIC price can go up before the transaction reverts.\n     * @param amountETHMin - Bounds the extent to which the WMATIC/TOKEN price can go up before the transaction reverts.\n     * @param amountLP - Additional LP Token amount to deposit.\n     * @param recipient - Address which will receive the deposit.\n     \n     * @return sentToken - Token amount sent to the farm.\n     * @return sentETH - WMATIC amount sent to the farm.\n     * @return liquidity - Total liquidity sent to the farm (in lpTokens).\n     */\n\tfunction depositETH(\n\t\taddress lpPair,\n\t\tuint256 amountToken,\n\t\tuint256 amountTokenMin,\n\t\tuint256 amountETHMin,\n\t\tuint256 amountLP,\n\t\taddress recipient\n\t)\n\t\texternal\n\t\tpayable\n\t\twhenNotPaused\n\t\treturns (\n\t\t\tuint256 sentToken,\n\t\t\tuint256 sentETH,\n\t\t\tuint256 liquidity\n\t\t)\n\t{\n\t\trequire(msg.value > 0, \"NO_MATIC_SENT\");\n\t\tFarm farm = Farm(farmFactory.Farms(lpPair));\n\t\tif (farm == Farm(address(0))) {\n\t\t\tfarm = Farm(farmFactory.createFarm(lpPair));\n\t\t}\n\n\t\tif (amountLP > 0) {\n\t\t\tIERC20Upgradeable(lpPair).safeTransferFrom(\n\t\t\t\tmsg.sender,\n\t\t\t\taddress(farm),\n\t\t\t\tamountLP\n\t\t\t);\n\t\t}\n\n\t\taddress tokenA = farm.tokenA();\n\t\taddress tokenB = farm.tokenB();\n\n\t\tIWMATIC(WMATIC).deposit{ value: msg.value }();\n\t\tIERC20Upgradeable(WMATIC).safeTransfer(address(farm), msg.value);\n\t\tif (tokenA == WMATIC) {\n\t\t\tif (amountToken > 0) {\n\t\t\t\tIERC20Upgradeable(tokenB).safeTransferFrom(\n\t\t\t\t\tmsg.sender,\n\t\t\t\t\taddress(farm),\n\t\t\t\t\tamountToken\n\t\t\t\t);\n\t\t\t}\n\t\t\t(sentETH, sentToken, liquidity) = farm.deposit(\n\t\t\t\tmsg.value,\n\t\t\t\tamountToken,\n\t\t\t\tamountETHMin,\n\t\t\t\tamountTokenMin,\n\t\t\t\tamountLP,\n\t\t\t\taddress(this),\n\t\t\t\trecipient\n\t\t\t);\n\t\t\tIERC20Upgradeable(tokenB).safeTransfer(msg.sender, amountToken - sentToken);\n\t\t} else if (tokenB == WMATIC) {\n\t\t\tif (amountToken > 0) {\n\t\t\t\tIERC20Upgradeable(tokenA).safeTransferFrom(\n\t\t\t\t\tmsg.sender,\n\t\t\t\t\taddress(farm),\n\t\t\t\t\tamountToken\n\t\t\t\t);\n\t\t\t}\n\t\t\t(sentToken, sentETH, liquidity) = farm.deposit(\n\t\t\t\tamountToken,\n\t\t\t\tmsg.value,\n\t\t\t\tamountTokenMin,\n\t\t\t\tamountETHMin,\n\t\t\t\tamountLP,\n\t\t\t\taddress(this),\n\t\t\t\trecipient\n\t\t\t);\n\t\t\tIERC20Upgradeable(tokenA).safeTransfer(msg.sender, amountToken - sentToken);\n\t\t} else {\n\t\t\trevert(\"NOT_WMATIC_POOL\");\n\t\t}\n\n\t\tuint256 dust = msg.value - sentETH;\n\t\tif (dust > 0) {\n\t\t\tIWMATIC(WMATIC).withdraw(dust);\n\t\t\tpayable(msg.sender).transfer(dust);\n\t\t}\n\t\temit Deposit(lpPair, msg.sender, recipient, liquidity);\n\t}\n\n\t/** \n     * @dev Withdraws tokens from the given pool. Emits a {Withdraw} event.\n     * @param lpPair - LP pool to withdraw from.\n     * @param amount - LP amount to withdraw. \n     * @param amountAMin - The minimum amount of tokenA that must be received for the transaction not to revert.\n     * @param amountBMin - The minimum amount of tokenB that must be received for the transaction not to revert.\n     * @param withdrawLP - True: Withdraw in LP tokens, False: Withdraw in normal tokens.\n     * @param recipient - The address which will receive tokens.\n\n     * @return amountA - Token A amount sent to the {recipient}, 0 if withdrawLP == false.\n     * @return amountB - Token B amount sent to the {recipient}, 0 if withdrawLP == false.\n     */\n\tfunction withdraw(\n\t\taddress lpPair,\n\t\tuint256 amount,\n\t\tuint256 amountAMin,\n\t\tuint256 amountBMin,\n\t\tbool withdrawLP,\n\t\taddress recipient\n\t) external returns (uint256 amountA, uint256 amountB) {\n\t\tFarm farm = Farm(farmFactory.Farms(lpPair));\n\t\trequire(farm != Farm(address(0)), \"FARM_NOT_EXISTS\");\n\n\t\t(amountA, amountB) = farm.withdraw(\n\t\t\tamount,\n\t\t\tamountAMin,\n\t\t\tamountBMin,\n\t\t\twithdrawLP,\n\t\t\tmsg.sender,\n\t\t\trecipient\n\t\t);\n\t\temit Withdraw(lpPair, msg.sender, recipient, amount);\n\t}\n\n\t/** \n     * @dev Autoconverts WMATIC into MATIC and withdraws tokens from the pool. Emits a {Withdraw} event.\n     * @param lpPair - LP pool to withdraw from.\n     * @param amount - LP amount to withdraw. \n     * @param amountTokenMin - The minimum amount of token that must be received for the transaction not to revert.\n     * @param amountETHMin - The minimum amount of MATIC that must be received for the transaction not to revert.\n     * @param recipient - The address which will receive tokens.\n\n     * @return amountToken - Token amount sent to the {recipient}.\n     * @return amountETH - MATIC amount sent to the {recipient}.\n     */\n\tfunction withdrawETH(\n\t\taddress lpPair,\n\t\tuint256 amount,\n\t\tuint256 amountTokenMin,\n\t\tuint256 amountETHMin,\n\t\taddress recipient\n\t) external payable returns (uint256 amountToken, uint256 amountETH) {\n\t\tFarm farm = Farm(farmFactory.Farms(lpPair));\n\t\trequire(farm != Farm(address(0)), \"FARM_NOT_EXISTS\");\n\n\t\taddress tokenA = farm.tokenA();\n\t\taddress tokenB = farm.tokenB();\n\n\t\tif (tokenA == WMATIC) {\n\t\t\t(amountETH, amountToken) = farm.withdraw(\n\t\t\t\tamount,\n\t\t\t\tamountETHMin,\n\t\t\t\tamountTokenMin,\n\t\t\t\tfalse,\n\t\t\t\tmsg.sender,\n\t\t\t\taddress(this)\n\t\t\t);\n\t\t\tIERC20Upgradeable(tokenB).safeTransfer(recipient, amountToken);\n\t\t} else if (tokenB == WMATIC) {\n\t\t\t(amountToken, amountETH) = farm.withdraw(\n\t\t\t\tamount,\n\t\t\t\tamountTokenMin,\n\t\t\t\tamountETHMin,\n\t\t\t\tfalse,\n\t\t\t\tmsg.sender,\n\t\t\t\taddress(this)\n\t\t\t);\n\t\t\tIERC20Upgradeable(tokenA).safeTransfer(recipient, amountToken);\n\t\t} else {\n\t\t\trevert(\"NOT_WMATIC_POOL\");\n\t\t}\n\n\t\tIWMATIC(WMATIC).withdraw(amountETH);\n\t\tpayable(recipient).transfer(amountETH);\n\t\temit Withdraw(lpPair, msg.sender, recipient, amount);\n\t}\n\n\t/**\n\t * @dev Distributes tokens between users.\n\t * @param lpPair - LP pool to distribute tokens in.\n\t * @param swapInfos - Arrays of structs with token arrays describing swap routes (rewardTokenToTokenA, rewardTokenToTokenB, rewarderTokenToTokenA, rewarderTokenToTokenB) and minimum amounts of output tokens that must be received for the transaction not to revert.\n\t * @param feeSwapInfo - Struct with token arrays describing swap route (rewardTokenToFeeToken, rewarderTokenToFeeToken) and minimum amounts of output tokens that must be received for the transaction not to revert.\n\t * @param feeTo - Address to collect fees to.\n\t *\n\t * Note: This function can only be called by the distributor.\n\t */\n\tfunction distribute(\n\t\taddress lpPair,\n\t\tFarm.SwapInfo[2] calldata swapInfos,\n\t\tFarm.SwapInfo calldata feeSwapInfo,\n\t\taddress feeTo\n\t) external whenNotPaused onlyRole(DISTRIBUTOR_ROLE) {\n\t\tFarm farm = Farm(farmFactory.Farms(lpPair));\n\t\trequire(farm != Farm(address(0)), \"FARM_NOT_EXISTS\");\n\n\t\tuint256 reward = farm.distribute(\n\t\t\tswapInfos,\n\t\t\tfeeSwapInfo,\n\t\t\tFarm.FeeInfo(feeTo, fee)\n\t\t);\n\t\temit Distribute(lpPair, reward);\n\t}\n\n\t/**\n     * @dev Returns tokens staked by the {_address} for the given {lpPair}.\n     * @param _address - The address to check stakes for.\n     * @param lpPair - LP pool to check stakes in.\n\n     * @return stakeLP - Total user stake(in LP tokens).\n     * @return stakeA - Token A stake.\n     * @return stakeB - Token B stake.\n     */\n\tfunction userStake(address _address, address lpPair)\n\t\texternal\n\t\tview\n\t\treturns (\n\t\t\tuint256 stakeLP,\n\t\t\tuint256 stakeA,\n\t\t\tuint256 stakeB\n\t\t)\n\t{\n\t\tFarm farm = Farm(farmFactory.Farms(lpPair));\n\t\tif (farm != Farm(address(0))) {\n\t\t\tstakeLP = farm.userBalance(_address);\n\t\t\t(stakeA, stakeB) = getTokenStake(lpPair, stakeLP);\n\t\t}\n\t}\n\n\t/**\n     * @dev Returns total amount locked in the pool. Doesn't take pending rewards into account.\n     * @param lpPair - LP pool to check total deposits in.\n\n     * @return totalDepositsLP - Total deposits (in LP tokens).\n     * @return totalDepositsA - Token A deposits.\n     * @return totalDepositsB - Token B deposits.\n     */\n\tfunction totalDeposits(address lpPair)\n\t\texternal\n\t\tview\n\t\treturns (\n\t\t\tuint256 totalDepositsLP,\n\t\t\tuint256 totalDepositsA,\n\t\t\tuint256 totalDepositsB\n\t\t)\n\t{\n\t\tFarm farm = Farm(farmFactory.Farms(lpPair));\n\t\tif (farm != Farm(address(0))) {\n\t\t\ttotalDepositsLP = farm.getTotalDeposits();\n\t\t\t(totalDepositsA, totalDepositsB) = getTokenStake(\n\t\t\t\tlpPair,\n\t\t\t\ttotalDepositsLP\n\t\t\t);\n\t\t}\n\t}\n\n\t/**\n     * @dev Returns addresses of tokens in {lpPair}.\n     * @param lpPair - LP pair to check tokens in.\n\n     * @return tokens - Tokens addresses.\n     */\n\tfunction getTokens(address lpPair)\n\t\texternal\n\t\tview\n\t\treturns (IERC20Upgradeable[] memory tokens)\n\t{\n\t\ttokens = new IERC20Upgradeable[](2);\n\t\ttokens[0] = IERC20Upgradeable(IUniswapV2Pair(lpPair).token0());\n\t\ttokens[1] = IERC20Upgradeable(IUniswapV2Pair(lpPair).token1());\n\t}\n\n\t/**\n     * @dev Converts LP tokens to normal tokens, value(amountA) == value(amountB) == 0.5*amountLP\n     * @param lpPair - LP pair for conversion.\n     * @param amountLP - Amount of LP tokens to convert.\n\n     * @return amountA - Token A amount.\n     * @return amountB - Token B amount.\n     */\n\tfunction getTokenStake(address lpPair, uint256 amountLP)\n\t\tinternal\n\t\tview\n\t\treturns (uint256 amountA, uint256 amountB)\n\t{\n\t\tuint256 totalSupply = IERC20Upgradeable(lpPair).totalSupply();\n\t\tamountA =\n\t\t\t(amountLP *\n\t\t\t\tIERC20Upgradeable(IUniswapV2Pair(lpPair).token0()).balanceOf(lpPair)) /\n\t\t\ttotalSupply;\n\t\tamountB =\n\t\t\t(amountLP *\n\t\t\t\tIERC20Upgradeable(IUniswapV2Pair(lpPair).token1()).balanceOf(lpPair)) /\n\t\t\ttotalSupply;\n\t}\n\n\t/**\n\t * @dev Change fee amount.\n\t * @param _fee -New fee to collect from farms. [10^18 == 100%]\n\t *\n\t * Note: This function can only be called by ADMIN_ROLE.\n\t */\n\tfunction setFee(uint256 _fee)\n\t\texternal\n\t\tonlyRole(accessManager.ADMIN_ROLE())\n\t{\n\t\trequire(_fee <= 1 ether, \"BAD_FEE\");\n\t\tif (fee != _fee) {\n\t\t\temit FeeChanged(fee, _fee);\n\t\t\tfee = _fee;\n\t\t}\n\t}\n\n\tfunction pause() external onlyRole(PAUSER_ROLE) {\n\t\t_pause();\n\t}\n\n\tfunction unpause() external onlyRole(PAUSER_ROLE) {\n\t\t_unpause();\n\t}\n\n\tfunction _authorizeUpgrade(address)\n\t\tinternal\n\t\toverride\n\t\tonlyRole(accessManager.ADMIN_ROLE())\n\t{}\n}",
  "sourcePath": "/home/ilau/projectWork/uno-contracts/contracts/apps/meshswap/UnoAssetRouterMeshswap.sol",
  "compiler": {
    "name": "solc",
    "version": "0.8.10+commit.fc410830.Emscripten.clang"
  },
  "schemaVersion": "3.4.10",
  "updatedAt": "2022-10-25T20:55:29.541Z",
  "devdoc": {
    "kind": "dev",
    "methods": {
      "constructor": {
        "custom:oz-upgrades-unsafe-allow": "constructor"
      },
      "deposit(address,uint256,uint256,uint256,uint256,uint256,address)": {
        "details": "Deposits tokens in the given pool. Creates new Farm contract if there isn't one deployed for the {lpPair} and deposits tokens in it. Emits a {Deposit} event.",
        "params": {
          "amountA": "- Token A amount to deposit.",
          "amountAMin": "- Bounds the extent to which the B/A price can go up before the transaction reverts.",
          "amountB": "-  Token B amount to deposit.",
          "amountBMin": "- Bounds the extent to which the A/B price can go up before the transaction reverts.",
          "amountLP": "- Additional LP Token amount to deposit.",
          "lpPair": "- Address of the pool to deposit tokens in.",
          "recipient": "- Address which will receive the deposit."
        },
        "returns": {
          "liquidity": "- Total liquidity sent to the farm (in lpTokens).",
          "sentA": "- Token A amount sent to the farm.",
          "sentB": "- Token B amount sent to the farm."
        }
      },
      "depositETH(address,uint256,uint256,uint256,uint256,address)": {
        "details": "Autoconverts MATIC into WMATIC and deposits tokens in the given pool. Creates new Farm contract if there isn't one deployed for the {lpStakingPool} and deposits tokens in it. Emits a {Deposit} event.",
        "params": {
          "amountETHMin": "- Bounds the extent to which the WMATIC/TOKEN price can go up before the transaction reverts.",
          "amountLP": "- Additional LP Token amount to deposit.",
          "amountToken": "- Token amount to deposit.",
          "amountTokenMin": "- Bounds the extent to which the TOKEN/WMATIC price can go up before the transaction reverts.",
          "lpPair": "- Address of the pool to deposit tokens in.",
          "recipient": "- Address which will receive the deposit."
        },
        "returns": {
          "liquidity": "- Total liquidity sent to the farm (in lpTokens).",
          "sentETH": "- WMATIC amount sent to the farm.",
          "sentToken": "- Token amount sent to the farm."
        }
      },
      "distribute(address,(address[],uint256)[2],(address[],uint256),address)": {
        "details": "Distributes tokens between users.",
        "params": {
          "feeSwapInfo": "- Struct with token arrays describing swap route (rewardTokenToFeeToken, rewarderTokenToFeeToken) and minimum amounts of output tokens that must be received for the transaction not to revert.",
          "feeTo": "- Address to collect fees to. Note: This function can only be called by the distributor.",
          "lpPair": "- LP pool to distribute tokens in.",
          "swapInfos": "- Arrays of structs with token arrays describing swap routes (rewardTokenToTokenA, rewardTokenToTokenB, rewarderTokenToTokenA, rewarderTokenToTokenB) and minimum amounts of output tokens that must be received for the transaction not to revert."
        }
      },
      "getTokens(address)": {
        "details": "Returns addresses of tokens in {lpPair}.",
        "params": {
          "lpPair": "- LP pair to check tokens in."
        },
        "returns": {
          "tokens": "- Tokens addresses."
        }
      },
      "paused()": {
        "details": "Returns true if the contract is paused, and false otherwise."
      },
      "proxiableUUID()": {
        "details": "Implementation of the ERC1822 {proxiableUUID} function. This returns the storage slot used by the implementation. It is used to validate that the this implementation remains valid after an upgrade. IMPORTANT: A proxy pointing at a proxiable contract should not be considered proxiable itself, because this risks bricking a proxy that upgrades to it, by delegating to itself until out of gas. Thus it is critical that this function revert if invoked through a proxy. This is guaranteed by the `notDelegated` modifier."
      },
      "setFee(uint256)": {
        "details": "Change fee amount.",
        "params": {
          "_fee": "-New fee to collect from farms. [10^18 == 100%] Note: This function can only be called by ADMIN_ROLE."
        }
      },
      "totalDeposits(address)": {
        "details": "Returns total amount locked in the pool. Doesn't take pending rewards into account.",
        "params": {
          "lpPair": "- LP pool to check total deposits in."
        },
        "returns": {
          "totalDepositsA": "- Token A deposits.",
          "totalDepositsB": "- Token B deposits.",
          "totalDepositsLP": "- Total deposits (in LP tokens)."
        }
      },
      "upgradeTo(address)": {
        "details": "Upgrade the implementation of the proxy to `newImplementation`. Calls {_authorizeUpgrade}. Emits an {Upgraded} event."
      },
      "upgradeToAndCall(address,bytes)": {
        "details": "Upgrade the implementation of the proxy to `newImplementation`, and subsequently execute the function call encoded in `data`. Calls {_authorizeUpgrade}. Emits an {Upgraded} event."
      },
      "userStake(address,address)": {
        "details": "Returns tokens staked by the {_address} for the given {lpPair}.",
        "params": {
          "_address": "- The address to check stakes for.",
          "lpPair": "- LP pool to check stakes in."
        },
        "returns": {
          "stakeA": "- Token A stake.",
          "stakeB": "- Token B stake.",
          "stakeLP": "- Total user stake(in LP tokens)."
        }
      },
      "withdraw(address,uint256,uint256,uint256,bool,address)": {
        "details": "Withdraws tokens from the given pool. Emits a {Withdraw} event.",
        "params": {
          "amount": "- LP amount to withdraw. ",
          "amountAMin": "- The minimum amount of tokenA that must be received for the transaction not to revert.",
          "amountBMin": "- The minimum amount of tokenB that must be received for the transaction not to revert.",
          "lpPair": "- LP pool to withdraw from.",
          "recipient": "- The address which will receive tokens.",
          "withdrawLP": "- True: Withdraw in LP tokens, False: Withdraw in normal tokens."
        },
        "returns": {
          "amountA": "- Token A amount sent to the {recipient}, 0 if withdrawLP == false.",
          "amountB": "- Token B amount sent to the {recipient}, 0 if withdrawLP == false."
        }
      },
      "withdrawETH(address,uint256,uint256,uint256,address)": {
        "details": "Autoconverts WMATIC into MATIC and withdraws tokens from the pool. Emits a {Withdraw} event.",
        "params": {
          "amount": "- LP amount to withdraw. ",
          "amountETHMin": "- The minimum amount of MATIC that must be received for the transaction not to revert.",
          "amountTokenMin": "- The minimum amount of token that must be received for the transaction not to revert.",
          "lpPair": "- LP pool to withdraw from.",
          "recipient": "- The address which will receive tokens."
        },
        "returns": {
          "amountETH": "- MATIC amount sent to the {recipient}.",
          "amountToken": "- Token amount sent to the {recipient}."
        }
      }
    },
    "stateVariables": {
      "farmFactory": {
        "details": "Contract Variables: farmFactory - The contract that deploys new Farms and links them to {lpPair}s. accessManager - Role manager contract."
      }
    },
    "version": 1
  },
  "userdoc": {
    "kind": "user",
    "methods": {},
    "version": 1
  }
}