{
  "contractName": "UnoAssetRouterSushiswap",
  "abi": [
    {
      "anonymous": false,
      "inputs": [
        {
          "indexed": false,
          "internalType": "address",
          "name": "previousAdmin",
          "type": "address"
        },
        {
          "indexed": false,
          "internalType": "address",
          "name": "newAdmin",
          "type": "address"
        }
      ],
      "name": "AdminChanged",
      "type": "event"
    },
    {
      "anonymous": false,
      "inputs": [
        {
          "indexed": true,
          "internalType": "address",
          "name": "beacon",
          "type": "address"
        }
      ],
      "name": "BeaconUpgraded",
      "type": "event"
    },
    {
      "anonymous": false,
      "inputs": [
        {
          "indexed": true,
          "internalType": "address",
          "name": "lpPool",
          "type": "address"
        },
        {
          "indexed": true,
          "internalType": "address",
          "name": "sender",
          "type": "address"
        },
        {
          "indexed": true,
          "internalType": "address",
          "name": "recipient",
          "type": "address"
        },
        {
          "indexed": false,
          "internalType": "uint256",
          "name": "amount",
          "type": "uint256"
        }
      ],
      "name": "Deposit",
      "type": "event"
    },
    {
      "anonymous": false,
      "inputs": [
        {
          "indexed": true,
          "internalType": "address",
          "name": "lpPool",
          "type": "address"
        },
        {
          "indexed": false,
          "internalType": "uint256",
          "name": "reward",
          "type": "uint256"
        }
      ],
      "name": "Distribute",
      "type": "event"
    },
    {
      "anonymous": false,
      "inputs": [
        {
          "indexed": false,
          "internalType": "uint8",
          "name": "version",
          "type": "uint8"
        }
      ],
      "name": "Initialized",
      "type": "event"
    },
    {
      "anonymous": false,
      "inputs": [
        {
          "indexed": false,
          "internalType": "address",
          "name": "account",
          "type": "address"
        }
      ],
      "name": "Paused",
      "type": "event"
    },
    {
      "anonymous": false,
      "inputs": [
        {
          "indexed": false,
          "internalType": "address",
          "name": "account",
          "type": "address"
        }
      ],
      "name": "Unpaused",
      "type": "event"
    },
    {
      "anonymous": false,
      "inputs": [
        {
          "indexed": true,
          "internalType": "address",
          "name": "implementation",
          "type": "address"
        }
      ],
      "name": "Upgraded",
      "type": "event"
    },
    {
      "anonymous": false,
      "inputs": [
        {
          "indexed": true,
          "internalType": "address",
          "name": "lpPool",
          "type": "address"
        },
        {
          "indexed": true,
          "internalType": "address",
          "name": "sender",
          "type": "address"
        },
        {
          "indexed": true,
          "internalType": "address",
          "name": "recipient",
          "type": "address"
        },
        {
          "indexed": false,
          "internalType": "uint256",
          "name": "amount",
          "type": "uint256"
        }
      ],
      "name": "Withdraw",
      "type": "event"
    },
    {
      "inputs": [],
      "name": "accessManager",
      "outputs": [
        {
          "internalType": "contract IUnoAccessManager",
          "name": "",
          "type": "address"
        }
      ],
      "stateMutability": "view",
      "type": "function"
    },
    {
      "inputs": [],
      "name": "farmFactory",
      "outputs": [
        {
          "internalType": "contract IUnoFarmFactory",
          "name": "",
          "type": "address"
        }
      ],
      "stateMutability": "view",
      "type": "function"
    },
    {
      "inputs": [],
      "name": "paused",
      "outputs": [
        {
          "internalType": "bool",
          "name": "",
          "type": "bool"
        }
      ],
      "stateMutability": "view",
      "type": "function"
    },
    {
      "inputs": [],
      "name": "proxiableUUID",
      "outputs": [
        {
          "internalType": "bytes32",
          "name": "",
          "type": "bytes32"
        }
      ],
      "stateMutability": "view",
      "type": "function"
    },
    {
      "inputs": [
        {
          "internalType": "address",
          "name": "newImplementation",
          "type": "address"
        }
      ],
      "name": "upgradeTo",
      "outputs": [],
      "stateMutability": "nonpayable",
      "type": "function"
    },
    {
      "inputs": [
        {
          "internalType": "address",
          "name": "newImplementation",
          "type": "address"
        },
        {
          "internalType": "bytes",
          "name": "data",
          "type": "bytes"
        }
      ],
      "name": "upgradeToAndCall",
      "outputs": [],
      "stateMutability": "payable",
      "type": "function"
    },
    {
      "inputs": [
        {
          "internalType": "address",
          "name": "_accessManager",
          "type": "address"
        },
        {
          "internalType": "address",
          "name": "_farmFactory",
          "type": "address"
        }
      ],
      "name": "initialize",
      "outputs": [],
      "stateMutability": "nonpayable",
      "type": "function"
    },
    {
      "inputs": [
        {
          "internalType": "address",
          "name": "lpPair",
          "type": "address"
        },
        {
          "internalType": "uint256",
          "name": "amountA",
          "type": "uint256"
        },
        {
          "internalType": "uint256",
          "name": "amountB",
          "type": "uint256"
        },
        {
          "internalType": "uint256",
          "name": "amountAMin",
          "type": "uint256"
        },
        {
          "internalType": "uint256",
          "name": "amountBMin",
          "type": "uint256"
        },
        {
          "internalType": "uint256",
          "name": "amountLP",
          "type": "uint256"
        },
        {
          "internalType": "address",
          "name": "recipient",
          "type": "address"
        }
      ],
      "name": "deposit",
      "outputs": [
        {
          "internalType": "uint256",
          "name": "sentA",
          "type": "uint256"
        },
        {
          "internalType": "uint256",
          "name": "sentB",
          "type": "uint256"
        },
        {
          "internalType": "uint256",
          "name": "liquidity",
          "type": "uint256"
        }
      ],
      "stateMutability": "nonpayable",
      "type": "function"
    },
    {
      "inputs": [
        {
          "internalType": "address",
          "name": "lpPair",
          "type": "address"
        },
        {
          "internalType": "uint256",
          "name": "amount",
          "type": "uint256"
        },
        {
          "internalType": "uint256",
          "name": "amountAMin",
          "type": "uint256"
        },
        {
          "internalType": "uint256",
          "name": "amountBMin",
          "type": "uint256"
        },
        {
          "internalType": "bool",
          "name": "withdrawLP",
          "type": "bool"
        },
        {
          "internalType": "address",
          "name": "recipient",
          "type": "address"
        }
      ],
      "name": "withdraw",
      "outputs": [
        {
          "internalType": "uint256",
          "name": "amountA",
          "type": "uint256"
        },
        {
          "internalType": "uint256",
          "name": "amountB",
          "type": "uint256"
        }
      ],
      "stateMutability": "nonpayable",
      "type": "function"
    },
    {
      "inputs": [
        {
          "internalType": "address",
          "name": "lpPair",
          "type": "address"
        },
        {
          "internalType": "address[]",
          "name": "rewardTokenToTokenARoute",
          "type": "address[]"
        },
        {
          "internalType": "address[]",
          "name": "rewardTokenToTokenBRoute",
          "type": "address[]"
        },
        {
          "internalType": "address[]",
          "name": "rewarderTokenToTokenARoute",
          "type": "address[]"
        },
        {
          "internalType": "address[]",
          "name": "rewarderTokenToTokenBRoute",
          "type": "address[]"
        },
        {
          "internalType": "uint256[4]",
          "name": "amountsOutMin",
          "type": "uint256[4]"
        }
      ],
      "name": "distribute",
      "outputs": [],
      "stateMutability": "nonpayable",
      "type": "function"
    },
    {
      "inputs": [
        {
          "internalType": "address",
          "name": "_address",
          "type": "address"
        },
        {
          "internalType": "address",
          "name": "lpPair",
          "type": "address"
        }
      ],
      "name": "userStake",
      "outputs": [
        {
          "internalType": "uint256",
          "name": "stakeLP",
          "type": "uint256"
        },
        {
          "internalType": "uint256",
          "name": "stakeA",
          "type": "uint256"
        },
        {
          "internalType": "uint256",
          "name": "stakeB",
          "type": "uint256"
        }
      ],
      "stateMutability": "view",
      "type": "function"
    },
    {
      "inputs": [
        {
          "internalType": "address",
          "name": "lpPair",
          "type": "address"
        }
      ],
      "name": "totalDeposits",
      "outputs": [
        {
          "internalType": "uint256",
          "name": "totalDepositsLP",
          "type": "uint256"
        },
        {
          "internalType": "uint256",
          "name": "totalDepositsA",
          "type": "uint256"
        },
        {
          "internalType": "uint256",
          "name": "totalDepositsB",
          "type": "uint256"
        }
      ],
      "stateMutability": "view",
      "type": "function"
    },
    {
      "inputs": [
        {
          "internalType": "address",
          "name": "lpPair",
          "type": "address"
        }
      ],
      "name": "getTokens",
      "outputs": [
        {
          "internalType": "address",
          "name": "tokenA",
          "type": "address"
        },
        {
          "internalType": "address",
          "name": "tokenB",
          "type": "address"
        }
      ],
      "stateMutability": "view",
      "type": "function"
    },
    {
      "inputs": [],
      "name": "pause",
      "outputs": [],
      "stateMutability": "nonpayable",
      "type": "function"
    },
    {
      "inputs": [],
      "name": "unpause",
      "outputs": [],
      "stateMutability": "nonpayable",
      "type": "function"
    }
  ],
  "bytecode": "0x60a06040523060805234801561001457600080fd5b5060805161255061004c600039600081816104fb0152818161053b0152818161082e0152818161086e0152610a0b01526125506000f3fe6080604052600436106100e85760003560e01c806352d1902d1161008a5780638540af57116100595780638540af571461029f578063e9403256146102bf578063f441f73c146102df578063fdcb6068146102ff57600080fd5b806352d1902d1461020c5780635c975abb1461022f5780636d25e175146102525780638456cb591461028a57600080fd5b8063450efe21116100c6578063450efe211461015e578063485cc9551461019e5780634f1ef286146101be57806351bdca3e146101d157600080fd5b80631ec5aa3e146100ed5780633659cfe6146101275780633f4ba83a14610149575b600080fd5b3480156100f957600080fd5b5061010d610108366004611d7a565b61031f565b604080519283526020830191909152015b60405180910390f35b34801561013357600080fd5b50610147610142366004611de1565b6104f0565b005b34801561015557600080fd5b506101476105d0565b34801561016a57600080fd5b5061017e610179366004611de1565b6106ac565b604080516001600160a01b0393841681529290911660208301520161011e565b3480156101aa57600080fd5b506101476101b9366004611dfe565b61077c565b6101476101cc366004611e7e565b610823565b3480156101dd57600080fd5b506101f16101ec366004611dfe565b6108f4565b6040805193845260208401929092529082015260600161011e565b34801561021857600080fd5b506102216109fe565b60405190815260200161011e565b34801561023b57600080fd5b5060335460ff16604051901515815260200161011e565b34801561025e57600080fd5b5060c954610272906001600160a01b031681565b6040516001600160a01b03909116815260200161011e565b34801561029657600080fd5b50610147610ab1565b3480156102ab57600080fd5b506101476102ba366004611fe0565b610b8b565b3480156102cb57600080fd5b506101f16102da366004611de1565b610e13565b3480156102eb57600080fd5b506101f16102fa3660046120c7565b610f15565b34801561030b57600080fd5b5060ca54610272906001600160a01b031681565b60008061032e60335460ff1690565b156103545760405162461bcd60e51b815260040161034b90612130565b60405180910390fd5b60c95460405163f9d9331d60e01b81526001600160a01b038a81166004830152600092169063f9d9331d90602401602060405180830381865afa15801561039f573d6000803e3d6000fd5b505050506040513d601f19601f820116820180604052508101906103c3919061215a565b90506001600160a01b03811661040d5760405162461bcd60e51b815260206004820152600f60248201526e4641524d5f4e4f545f45584953545360881b604482015260640161034b565b60405163d563468360e01b815260048101899052602481018890526044810187905285151560648201523360848201526001600160a01b0385811660a483015282169063d56346839060c40160408051808303816000875af1158015610477573d6000803e3d6000fd5b505050506040513d601f19601f8201168201806040525081019061049b9190612177565b6040518a815291945092506001600160a01b038581169133918c16907f3115d1449a7b732c986cba18244e897a450f61e1bb8d589cd2e69e6c8924f9f79060200160405180910390a450965096945050505050565b306001600160a01b037f00000000000000000000000000000000000000000000000000000000000000001614156105395760405162461bcd60e51b815260040161034b9061219b565b7f00000000000000000000000000000000000000000000000000000000000000006001600160a01b03166105826000805160206124d4833981519152546001600160a01b031690565b6001600160a01b0316146105a85760405162461bcd60e51b815260040161034b906121e7565b6105b181611207565b604080516000808252602082019092526105cd91839190611322565b50565b60ca54604051632474521560e21b81527f65d7a28e3265b37a6474929f336521b332c1681b933f6cb9f3376673440d862a60048201523360248201526001600160a01b03909116906391d1485490604401602060405180830381865afa15801561063e573d6000803e3d6000fd5b505050506040513d601f19601f820116820180604052508101906106629190612233565b6106a25760405162461bcd60e51b815260206004820152601160248201527021a0a62622a92fa727aa2fa820aaa9a2a960791b604482015260640161034b565b6106aa61148d565b565b600080826001600160a01b0316630dfe16816040518163ffffffff1660e01b8152600401602060405180830381865afa1580156106ed573d6000803e3d6000fd5b505050506040513d601f19601f82011682018060405250810190610711919061215a565b9150826001600160a01b031663d21220a76040518163ffffffff1660e01b8152600401602060405180830381865afa158015610751573d6000803e3d6000fd5b505050506040513d601f19601f82011682018060405250810190610775919061215a565b9050915091565b60006107886001611520565b905080156107a0576000805461ff0019166101001790555b6107a86115ad565b60ca80546001600160a01b038086166001600160a01b03199283161790925560c9805492851692909116919091179055801561081e576000805461ff0019169055604051600181527f7f26b83ff96e1f2b6a682f133852f6798a09c465da95921460cefb38474024989060200160405180910390a15b505050565b306001600160a01b037f000000000000000000000000000000000000000000000000000000000000000016141561086c5760405162461bcd60e51b815260040161034b9061219b565b7f00000000000000000000000000000000000000000000000000000000000000006001600160a01b03166108b56000805160206124d4833981519152546001600160a01b031690565b6001600160a01b0316146108db5760405162461bcd60e51b815260040161034b906121e7565b6108e482611207565b6108f082826001611322565b5050565b60c95460405163f9d9331d60e01b81526001600160a01b038381166004830152600092839283928392169063f9d9331d90602401602060405180830381865afa158015610945573d6000803e3d6000fd5b505050506040513d601f19601f82011682018060405250810190610969919061215a565b90506001600160a01b038116156109f657604051630103c92b60e01b81526001600160a01b038781166004830152821690630103c92b90602401602060405180830381865afa1580156109c0573d6000803e3d6000fd5b505050506040513d601f19601f820116820180604052508101906109e49190612250565b93506109f085856115dc565b90935091505b509250925092565b6000306001600160a01b037f00000000000000000000000000000000000000000000000000000000000000001614610a9e5760405162461bcd60e51b815260206004820152603860248201527f555550535570677261646561626c653a206d757374206e6f742062652063616c60448201527f6c6564207468726f7567682064656c656761746563616c6c0000000000000000606482015260840161034b565b506000805160206124d483398151915290565b60ca54604051632474521560e21b81527f65d7a28e3265b37a6474929f336521b332c1681b933f6cb9f3376673440d862a60048201523360248201526001600160a01b03909116906391d1485490604401602060405180830381865afa158015610b1f573d6000803e3d6000fd5b505050506040513d601f19601f82011682018060405250810190610b439190612233565b610b835760405162461bcd60e51b815260206004820152601160248201527021a0a62622a92fa727aa2fa820aaa9a2a960791b604482015260640161034b565b6106aa611817565b60335460ff1615610bae5760405162461bcd60e51b815260040161034b90612130565b60ca54604051632474521560e21b81527ffbd454f36a7e1a388bd6fc3ab10d434aa4578f811acbbcf33afb1c697486313c60048201523360248201526001600160a01b03909116906391d1485490604401602060405180830381865afa158015610c1c573d6000803e3d6000fd5b505050506040513d601f19601f82011682018060405250810190610c409190612233565b610c855760405162461bcd60e51b815260206004820152601660248201527521a0a62622a92fa727aa2fa224a9aa2924a12aaa27a960511b604482015260640161034b565b60c95460405163f9d9331d60e01b81526001600160a01b038c81166004830152600092169063f9d9331d90602401602060405180830381865afa158015610cd0573d6000803e3d6000fd5b505050506040513d601f19601f82011682018060405250810190610cf4919061215a565b90506001600160a01b038116610d3e5760405162461bcd60e51b815260206004820152600f60248201526e4641524d5f4e4f545f45584953545360881b604482015260640161034b565b6040516384b9658560e01b81526000906001600160a01b038316906384b9658590610d7d908e908e908e908e908e908e908e908e908e906004016122b2565b6020604051808303816000875af1158015610d9c573d6000803e3d6000fd5b505050506040513d601f19601f82011682018060405250810190610dc09190612250565b90508b6001600160a01b03167fc1d32ad5cca423e7dda2123dbf8c482f8e77d00b631c06e903a47f2cec1334df82604051610dfd91815260200190565b60405180910390a2505050505050505050505050565b60c95460405163f9d9331d60e01b81526001600160a01b038381166004830152600092839283928392169063f9d9331d90602401602060405180830381865afa158015610e64573d6000803e3d6000fd5b505050506040513d601f19601f82011682018060405250810190610e88919061215a565b90506001600160a01b03811615610f0d57806001600160a01b031663168a48226040518163ffffffff1660e01b8152600401602060405180830381865afa158015610ed7573d6000803e3d6000fd5b505050506040513d601f19601f82011682018060405250810190610efb9190612250565b9350610f0785856115dc565b90935091505b509193909250565b6000806000610f2660335460ff1690565b15610f435760405162461bcd60e51b815260040161034b90612130565b60c95460405163f9d9331d60e01b81526001600160a01b038c81166004830152600092169063f9d9331d90602401602060405180830381865afa158015610f8e573d6000803e3d6000fd5b505050506040513d601f19601f82011682018060405250810190610fb2919061215a565b90506001600160a01b0381166110345760c954604051621849e360e61b81526001600160a01b038d811660048301529091169063061278c0906024016020604051808303816000875af115801561100d573d6000803e3d6000fd5b505050506040513d601f19601f82011682018060405250810190611031919061215a565b90505b89156110b3576110b333828c846001600160a01b0316630fc63d106040518163ffffffff1660e01b8152600401602060405180830381865afa15801561107e573d6000803e3d6000fd5b505050506040513d601f19601f820116820180604052508101906110a2919061215a565b6001600160a01b031692919061186f565b88156110fd576110fd33828b846001600160a01b0316635f64b55b6040518163ffffffff1660e01b8152600401602060405180830381865afa15801561107e573d6000803e3d6000fd5b8515611118576111186001600160a01b038c1633838961186f565b604051630b333b4560e11b8152600481018b9052602481018a90526044810189905260648101889052608481018790523360a48201526001600160a01b0386811660c4830152821690631666768a9060e4016060604051808303816000875af1158015611189573d6000803e3d6000fd5b505050506040513d601f19601f820116820180604052508101906111ad9190612342565b60405181815292965090945092506001600160a01b038681169133918e16907f7cfff908a4b583f36430b25d75964c458d8ede8a99bd61be750e97ee1b2f3a969060200160405180910390a4509750975097945050505050565b60ca5460408051631d6c8e3f60e21b815290516001600160a01b03909216916391d148549183916375b238fc916004808201926020929091908290030181865afa158015611259573d6000803e3d6000fd5b505050506040513d601f19601f8201168201806040525081019061127d9190612250565b6040516001600160e01b031960e084901b1681526004810191909152336024820152604401602060405180830381865afa1580156112bf573d6000803e3d6000fd5b505050506040513d601f19601f820116820180604052508101906112e39190612233565b6105cd5760405162461bcd60e51b815260206004820152601060248201526f21a0a62622a92fa727aa2fa0a226a4a760811b604482015260640161034b565b7f4910fdfa16fed3260ed0e7147f7cc6da11a60208b5b9406d12a635614ffd91435460ff16156113555761081e836118cf565b826001600160a01b03166352d1902d6040518163ffffffff1660e01b8152600401602060405180830381865afa9250505080156113af575060408051601f3d908101601f191682019092526113ac91810190612250565b60015b6114125760405162461bcd60e51b815260206004820152602e60248201527f45524331393637557067726164653a206e657720696d706c656d656e7461746960448201526d6f6e206973206e6f74205555505360901b606482015260840161034b565b6000805160206124d483398151915281146114815760405162461bcd60e51b815260206004820152602960248201527f45524331393637557067726164653a20756e737570706f727465642070726f786044820152681a58589b195555525160ba1b606482015260840161034b565b5061081e83838361196b565b60335460ff166114d65760405162461bcd60e51b815260206004820152601460248201527314185d5cd8589b194e881b9bdd081c185d5cd95960621b604482015260640161034b565b6033805460ff191690557f5db9ee0a495bf2e6ff9c91a7834c1ba4fdd244a5e8aa4e537bd38aeae4b073aa335b6040516001600160a01b03909116815260200160405180910390a1565b60008054610100900460ff1615611567578160ff1660011480156115435750303b155b61155f5760405162461bcd60e51b815260040161034b90612370565b506000919050565b60005460ff80841691161061158e5760405162461bcd60e51b815260040161034b90612370565b506000805460ff191660ff92909216919091179055600190565b919050565b600054610100900460ff166115d45760405162461bcd60e51b815260040161034b906123be565b6106aa611990565b6000806000846001600160a01b03166318160ddd6040518163ffffffff1660e01b8152600401602060405180830381865afa15801561161f573d6000803e3d6000fd5b505050506040513d601f19601f820116820180604052508101906116439190612250565b905080856001600160a01b0316630dfe16816040518163ffffffff1660e01b8152600401602060405180830381865afa158015611684573d6000803e3d6000fd5b505050506040513d601f19601f820116820180604052508101906116a8919061215a565b6040516370a0823160e01b81526001600160a01b03888116600483015291909116906370a0823190602401602060405180830381865afa1580156116f0573d6000803e3d6000fd5b505050506040513d601f19601f820116820180604052508101906117149190612250565b61171e9086612409565b6117289190612436565b925080856001600160a01b031663d21220a76040518163ffffffff1660e01b8152600401602060405180830381865afa158015611769573d6000803e3d6000fd5b505050506040513d601f19601f8201168201806040525081019061178d919061215a565b6040516370a0823160e01b81526001600160a01b03888116600483015291909116906370a0823190602401602060405180830381865afa1580156117d5573d6000803e3d6000fd5b505050506040513d601f19601f820116820180604052508101906117f99190612250565b6118039086612409565b61180d9190612436565b9150509250929050565b60335460ff161561183a5760405162461bcd60e51b815260040161034b90612130565b6033805460ff191660011790557f62e78cea01bee320cd4e420270b5ea74000d11b0c9f74754ebdbfc544b05a2586115033390565b604080516001600160a01b0385811660248301528416604482015260648082018490528251808303909101815260849091019091526020810180516001600160e01b03166323b872dd60e01b1790526118c99085906119c3565b50505050565b6001600160a01b0381163b61193c5760405162461bcd60e51b815260206004820152602d60248201527f455243313936373a206e657720696d706c656d656e746174696f6e206973206e60448201526c1bdd08184818dbdb9d1c9858dd609a1b606482015260840161034b565b6000805160206124d483398151915280546001600160a01b0319166001600160a01b0392909216919091179055565b61197483611a95565b6000825111806119815750805b1561081e576118c98383611ad5565b600054610100900460ff166119b75760405162461bcd60e51b815260040161034b906123be565b6033805460ff19169055565b6000611a18826040518060400160405280602081526020017f5361666545524332303a206c6f772d6c6576656c2063616c6c206661696c6564815250856001600160a01b0316611bc99092919063ffffffff16565b80519091501561081e5780806020019051810190611a369190612233565b61081e5760405162461bcd60e51b815260206004820152602a60248201527f5361666545524332303a204552433230206f7065726174696f6e20646964206e6044820152691bdd081cdd58d8d9595960b21b606482015260840161034b565b611a9e816118cf565b6040516001600160a01b038216907fbc7cd75a20ee27fd9adebab32041f755214dbc6bffa90cc0225b39da2e5c2d3b90600090a250565b60606001600160a01b0383163b611b3d5760405162461bcd60e51b815260206004820152602660248201527f416464726573733a2064656c65676174652063616c6c20746f206e6f6e2d636f6044820152651b9d1c9858dd60d21b606482015260840161034b565b600080846001600160a01b031684604051611b589190612484565b600060405180830381855af49150503d8060008114611b93576040519150601f19603f3d011682016040523d82523d6000602084013e611b98565b606091505b5091509150611bc082826040518060600160405280602781526020016124f460279139611be2565b95945050505050565b6060611bd88484600085611c1b565b90505b9392505050565b60608315611bf1575081611bdb565b825115611c015782518084602001fd5b8160405162461bcd60e51b815260040161034b91906124a0565b606082471015611c7c5760405162461bcd60e51b815260206004820152602660248201527f416464726573733a20696e73756666696369656e742062616c616e636520666f6044820152651c8818d85b1b60d21b606482015260840161034b565b6001600160a01b0385163b611cd35760405162461bcd60e51b815260206004820152601d60248201527f416464726573733a2063616c6c20746f206e6f6e2d636f6e7472616374000000604482015260640161034b565b600080866001600160a01b03168587604051611cef9190612484565b60006040518083038185875af1925050503d8060008114611d2c576040519150601f19603f3d011682016040523d82523d6000602084013e611d31565b606091505b5091509150611d41828286611be2565b979650505050505050565b6001600160a01b03811681146105cd57600080fd5b80356115a881611d4c565b80151581146105cd57600080fd5b60008060008060008060c08789031215611d9357600080fd5b8635611d9e81611d4c565b95506020870135945060408701359350606087013592506080870135611dc381611d6c565b915060a0870135611dd381611d4c565b809150509295509295509295565b600060208284031215611df357600080fd5b8135611bdb81611d4c565b60008060408385031215611e1157600080fd5b8235611e1c81611d4c565b91506020830135611e2c81611d4c565b809150509250929050565b634e487b7160e01b600052604160045260246000fd5b604051601f8201601f1916810167ffffffffffffffff81118282101715611e7657611e76611e37565b604052919050565b60008060408385031215611e9157600080fd5b8235611e9c81611d4c565b915060208381013567ffffffffffffffff80821115611eba57600080fd5b818601915086601f830112611ece57600080fd5b813581811115611ee057611ee0611e37565b611ef2601f8201601f19168501611e4d565b91508082528784828501011115611f0857600080fd5b80848401858401376000848284010152508093505050509250929050565b60008083601f840112611f3857600080fd5b50813567ffffffffffffffff811115611f5057600080fd5b6020830191508360208260051b8501011115611f6b57600080fd5b9250929050565b600082601f830112611f8357600080fd5b6040516080810181811067ffffffffffffffff82111715611fa657611fa6611e37565b604052806080840185811115611fbb57600080fd5b845b81811015611fd5578035835260209283019201611fbd565b509195945050505050565b6000806000806000806000806000806101208b8d03121561200057600080fd5b6120098b611d61565b995060208b013567ffffffffffffffff8082111561202657600080fd5b6120328e838f01611f26565b909b50995060408d013591508082111561204b57600080fd5b6120578e838f01611f26565b909950975060608d013591508082111561207057600080fd5b61207c8e838f01611f26565b909750955060808d013591508082111561209557600080fd5b506120a28d828e01611f26565b90945092506120b690508c60a08d01611f72565b90509295989b9194979a5092959850565b600080600080600080600060e0888a0312156120e257600080fd5b87356120ed81611d4c565b96506020880135955060408801359450606088013593506080880135925060a0880135915060c088013561212081611d4c565b8091505092959891949750929550565b60208082526010908201526f14185d5cd8589b194e881c185d5cd95960821b604082015260600190565b60006020828403121561216c57600080fd5b8151611bdb81611d4c565b6000806040838503121561218a57600080fd5b505080516020909101519092909150565b6020808252602c908201527f46756e6374696f6e206d7573742062652063616c6c6564207468726f7567682060408201526b19195b1959d85d1958d85b1b60a21b606082015260800190565b6020808252602c908201527f46756e6374696f6e206d7573742062652063616c6c6564207468726f7567682060408201526b6163746976652070726f787960a01b606082015260800190565b60006020828403121561224557600080fd5b8151611bdb81611d6c565b60006020828403121561226257600080fd5b5051919050565b8183526000602080850194508260005b858110156122a757813561228c81611d4c565b6001600160a01b031687529582019590820190600101612279565b509495945050505050565b60006101008083526122c78184018c8e612269565b90506020838203818501526122dd828b8d612269565b915083820360408501526122f282898b612269565b91508382036060850152612307828789612269565b92506080840191508460005b600481101561233057815184529282019290820190600101612313565b505050509a9950505050505050505050565b60008060006060848603121561235757600080fd5b8351925060208401519150604084015190509250925092565b6020808252602e908201527f496e697469616c697a61626c653a20636f6e747261637420697320616c72656160408201526d191e481a5b9a5d1a585b1a5e995960921b606082015260800190565b6020808252602b908201527f496e697469616c697a61626c653a20636f6e7472616374206973206e6f74206960408201526a6e697469616c697a696e6760a81b606082015260800190565b600081600019048311821515161561243157634e487b7160e01b600052601160045260246000fd5b500290565b60008261245357634e487b7160e01b600052601260045260246000fd5b500490565b60005b8381101561247357818101518382015260200161245b565b838111156118c95750506000910152565b60008251612496818460208701612458565b9190910192915050565b60208152600082518060208401526124bf816040850160208701612458565b601f01601f1916919091016040019291505056fe360894a13ba1a3210667c828492db98dca3e2076cc3735a920a3ca505d382bbc416464726573733a206c6f772d6c6576656c2064656c65676174652063616c6c206661696c6564a26469706673582212205afe4c63b5f4d42d7cfe2954e3f93c21fd827944ab58cf603b31644cc36c859764736f6c634300080a0033",
  "immutableReferences": {
    "561": [
      {
        "length": 32,
        "start": 1275
      },
      {
        "length": 32,
        "start": 1339
      },
      {
        "length": 32,
        "start": 2094
      },
      {
        "length": 32,
        "start": 2158
      },
      {
        "length": 32,
        "start": 2571
      }
    ]
  },
  "source": "// SPDX-License-Identifier: MIT\npragma solidity 0.8.10;\n\nimport {IUnoFarmSushiswap as Farm} from './interfaces/IUnoFarmSushiswap.sol'; \nimport '../../interfaces/IUnoFarmFactory.sol';\nimport '../../interfaces/IUnoAccessManager.sol'; \nimport '../../interfaces/IUniswapV2Pair.sol';\nimport '@openzeppelin/contracts-upgradeable/token/ERC20/IERC20Upgradeable.sol';\nimport '@openzeppelin/contracts-upgradeable/token/ERC20/utils/SafeERC20Upgradeable.sol';\nimport '@openzeppelin/contracts-upgradeable/proxy/utils/Initializable.sol';\nimport '@openzeppelin/contracts-upgradeable/security/PausableUpgradeable.sol';\nimport '@openzeppelin/contracts-upgradeable/proxy/utils/UUPSUpgradeable.sol';\n\ncontract UnoAssetRouterSushiswap is Initializable, PausableUpgradeable, UUPSUpgradeable {\n    using SafeERC20Upgradeable for IERC20Upgradeable;\n\n    /**\n     * @dev Contract Variables:\n     * farmFactory - The contract that deploys new Farms and links them to {lpPair}s.\n     * accessManager - Role manager contract.\n     */\n    IUnoFarmFactory public farmFactory;\n    IUnoAccessManager public accessManager;\n    bytes32 private constant DISTRIBUTOR_ROLE = keccak256('DISTRIBUTOR_ROLE');\n    bytes32 private constant PAUSER_ROLE = keccak256('PAUSER_ROLE');\n\n    event Deposit(address indexed lpPool, address indexed sender, address indexed recipient, uint256 amount);\n    event Withdraw(address indexed lpPool, address indexed sender, address indexed recipient, uint256 amount);\n    event Distribute(address indexed lpPool, uint256 reward);\n\n    modifier onlyDistributor(){\n        require(accessManager.hasRole(DISTRIBUTOR_ROLE, msg.sender), 'CALLER_NOT_DISTRIBUTOR');\n        _;\n    }\n    modifier onlyPauser(){\n        require(accessManager.hasRole(PAUSER_ROLE, msg.sender), 'CALLER_NOT_PAUSER');\n        _;\n    }\n    modifier onlyAdmin(){\n        require(accessManager.hasRole(accessManager.ADMIN_ROLE(), msg.sender), 'CALLER_NOT_ADMIN');\n        _;\n    }\n\n    // ============ Methods ============\n\n    function initialize(address _accessManager, address _farmFactory) external initializer{\n        __Pausable_init();\n        accessManager = IUnoAccessManager(_accessManager);\n        farmFactory = IUnoFarmFactory(_farmFactory);\n    }\n\n    /**\n     * @dev Deposits tokens in the given pool. Creates new Farm contract if there isn't one deployed for the {lpPair} and deposits tokens in it. Emits a {Deposit} event.\n     * @param lpPair - Address of the pool to deposit tokens in.\n     * @param amountA  - Token A amount to deposit.\n     * @param amountB -  Token B amount to deposit.\n     * @param amountAMin - Bounds the extent to which the B/A price can go up before the transaction reverts.\n     * @param amountBMin - Bounds the extent to which the A/B price can go up before the transaction reverts.\n     * @param amountLP - Additional LP Token amount to deposit.\n     * @param recipient - Address which will recieve the deposit.\n     \n     * @return sentA - Token A amount sent to the farm.\n     * @return sentB - Token B amount sent to the farm.\n     * @return liquidity - Total liquidity sent to the farm (in lpTokens).\n     */\n    function deposit(address lpPair, uint256 amountA, uint256 amountB, uint256 amountAMin, uint256 amountBMin, uint256 amountLP, address recipient) external whenNotPaused returns(uint256 sentA, uint256 sentB, uint256 liquidity){\n        Farm farm = Farm(farmFactory.Farms(lpPair));\n        if(farm == Farm(address(0))){\n            farm = Farm(farmFactory.createFarm(lpPair));\n        }\n\n        if(amountA > 0){\n            IERC20Upgradeable(farm.tokenA()).safeTransferFrom(msg.sender, address(farm), amountA);\n        }\n        if(amountB > 0){\n            IERC20Upgradeable(farm.tokenB()).safeTransferFrom(msg.sender, address(farm), amountB);\n        }\n        if(amountLP > 0){\n            IERC20Upgradeable(lpPair).safeTransferFrom(msg.sender, address(farm), amountLP);\n        }\n        \n        (sentA, sentB, liquidity) = farm.deposit(amountA, amountB, amountAMin, amountBMin, amountLP, msg.sender, recipient);\n        emit Deposit(lpPair, msg.sender, recipient, liquidity); \n    }\n\n    /** \n     * @dev Withdraws tokens from the given pool. Emits a {Withdraw} event.\n     * @param lpPair - LP pool to withdraw from.\n     * @param amount - LP amount to withdraw. \n     * @param amountAMin - The minimum amount of tokenA that must be received for the transaction not to revert.\n     * @param amountBMin - The minimum amount of tokenB that must be received for the transaction not to revert.\n     * @param withdrawLP - True: Withdraw in LP tokens, False: Withdraw in normal tokens.\n     * @param recipient - The address which will recieve tokens.\n\n     * @return amountA - Token A amount sent to the {recipient}, 0 if withdrawLP == false.\n     * @return amountB - Token B amount sent to the {recipient}, 0 if withdrawLP == false.\n     */ \n    function withdraw(address lpPair, uint256 amount, uint256 amountAMin, uint256 amountBMin, bool withdrawLP, address recipient) external whenNotPaused returns(uint256 amountA, uint256 amountB){\n        Farm farm = Farm(farmFactory.Farms(lpPair));\n        require(farm != Farm(address(0)),'FARM_NOT_EXISTS');\n        \n        (amountA, amountB) = farm.withdraw(amount, amountAMin, amountBMin, withdrawLP, msg.sender, recipient); \n        emit Withdraw(lpPair, msg.sender, recipient, amount);  \n    }\n\n    /**\n     * @dev Distributes tokens between users.\n     * @param lpPair - LP pool to distribute tokens in.\n     * @param rewardTokenToTokenARoute An array of token addresses.\n     * @param rewardTokenToTokenBRoute An array of token addresses.\n     * @param rewarderTokenToTokenARoute An array of token addresses.\n     * @param rewarderTokenToTokenBRoute An array of token addresses.\n     * @param amountsOutMin The minimum amount of output tokens that must be received for the transaction not to revert.\n     *\n     * Note: This function can only be called by the distributor.\n     */ \n    function distribute(\n        address lpPair,\n        address[] calldata rewardTokenToTokenARoute,\n        address[] calldata rewardTokenToTokenBRoute, \n        address[] calldata rewarderTokenToTokenARoute,\n        address[] calldata rewarderTokenToTokenBRoute,\n        uint256[4] memory amountsOutMin\n    ) external whenNotPaused onlyDistributor {\n        Farm farm = Farm(farmFactory.Farms(lpPair));\n        require(farm != Farm(address(0)), 'FARM_NOT_EXISTS');\n\n        uint256 reward = farm.distribute(rewardTokenToTokenARoute, rewardTokenToTokenBRoute, rewarderTokenToTokenARoute, rewarderTokenToTokenBRoute, amountsOutMin);\n        emit Distribute(lpPair, reward);\n    }\n\n    /**\n     * @dev Returns tokens staked by the {_address} for the given {lpPair}.\n     * @param _address - The address to check stakes for.\n     * @param lpPair - LP pool to check stakes in.\n\n     * @return stakeLP - Total user stake(in LP tokens).\n     * @return stakeA - Token A stake.\n     * @return stakeB - Token B stake.\n     */\n    function userStake(address _address, address lpPair) external view returns (uint256 stakeLP, uint256 stakeA, uint256 stakeB) {\n        Farm farm = Farm(farmFactory.Farms(lpPair));\n        if (farm != Farm(address(0))) {\n            stakeLP = farm.userBalance(_address);\n            (stakeA, stakeB) = getTokenStake(lpPair, stakeLP);\n        }\n    }\n\n    /**\n     * @dev Returns total amount locked in the pool. Doesn't take pending rewards into account.\n     * @param lpPair - LP pool to check total deposits in.\n\n     * @return totalDepositsLP - Total deposits (in LP tokens).\n     * @return totalDepositsA - Token A deposits.\n     * @return totalDepositsB - Token B deposits.\n     */  \n    function totalDeposits(address lpPair) external view returns (uint256 totalDepositsLP, uint256 totalDepositsA, uint256 totalDepositsB) {\n        Farm farm = Farm(farmFactory.Farms(lpPair));\n        if (farm != Farm(address(0))) {\n            totalDepositsLP = farm.getTotalDeposits(); \n            (totalDepositsA, totalDepositsB) = getTokenStake(lpPair, totalDepositsLP);\n        }\n    }\n\n    /**\n     * @dev Returns addresses of tokens in {lpPair}.\n     * @param lpPair - LP pair to check tokens in.\n\n     * @return tokenA - Token A address.\n     * @return tokenB - Token B address.\n     */  \n    function getTokens(address lpPair) external view returns(address tokenA, address tokenB){\n        tokenA = IUniswapV2Pair(lpPair).token0();\n        tokenB = IUniswapV2Pair(lpPair).token1();\n    }\n\n    /**\n     * @dev Converts LP tokens to normal tokens, value(amountA) == value(amountB) == 0.5*amountLP\n     * @param lpPair - LP pair for conversion.\n     * @param amountLP - Amount of LP tokens to convert.\n\n     * @return amountA - Token A amount.\n     * @return amountB - Token B amount.\n     */ \n    function getTokenStake(address lpPair, uint256 amountLP) internal view returns (uint256 amountA, uint256 amountB) {\n        uint256 totalSupply = IERC20Upgradeable(lpPair).totalSupply();\n        amountA = amountLP * IERC20Upgradeable(IUniswapV2Pair(lpPair).token0()).balanceOf(lpPair) / totalSupply;\n        amountB = amountLP * IERC20Upgradeable(IUniswapV2Pair(lpPair).token1()).balanceOf(lpPair) / totalSupply;\n    }\n \n    function pause() external onlyPauser {\n        _pause();\n    }\n\n    function unpause() external onlyPauser {\n        _unpause();\n    }\n\n    function _authorizeUpgrade(address) internal override onlyAdmin {\n\n    }\n}\n",
  "sourcePath": "/Users/antondementyev/Desktop/work-mycelium/uno/uno-contracts/contracts/apps/sushiswap/UnoAssetRouterSushiswap.sol",
  "compiler": {
    "name": "solc",
    "version": "0.8.10+commit.fc410830.Emscripten.clang"
  },
  "schemaVersion": "3.4.7",
  "updatedAt": "2022-08-06T09:32:58.887Z",
  "devdoc": {
    "kind": "dev",
    "methods": {
      "deposit(address,uint256,uint256,uint256,uint256,uint256,address)": {
        "details": "Deposits tokens in the given pool. Creates new Farm contract if there isn't one deployed for the {lpPair} and deposits tokens in it. Emits a {Deposit} event.",
        "params": {
          "amountA": "- Token A amount to deposit.",
          "amountAMin": "- Bounds the extent to which the B/A price can go up before the transaction reverts.",
          "amountB": "-  Token B amount to deposit.",
          "amountBMin": "- Bounds the extent to which the A/B price can go up before the transaction reverts.",
          "amountLP": "- Additional LP Token amount to deposit.",
          "lpPair": "- Address of the pool to deposit tokens in.",
          "recipient": "- Address which will recieve the deposit."
        },
        "returns": {
          "liquidity": "- Total liquidity sent to the farm (in lpTokens).",
          "sentA": "- Token A amount sent to the farm.",
          "sentB": "- Token B amount sent to the farm."
        }
      },
      "distribute(address,address[],address[],address[],address[],uint256[4])": {
        "details": "Distributes tokens between users.",
        "params": {
          "amountsOutMin": "The minimum amount of output tokens that must be received for the transaction not to revert. Note: This function can only be called by the distributor.",
          "lpPair": "- LP pool to distribute tokens in.",
          "rewardTokenToTokenARoute": "An array of token addresses.",
          "rewardTokenToTokenBRoute": "An array of token addresses.",
          "rewarderTokenToTokenARoute": "An array of token addresses.",
          "rewarderTokenToTokenBRoute": "An array of token addresses."
        }
      },
      "getTokens(address)": {
        "details": "Returns addresses of tokens in {lpPair}.",
        "params": {
          "lpPair": "- LP pair to check tokens in."
        },
        "returns": {
          "tokenA": "- Token A address.",
          "tokenB": "- Token B address."
        }
      },
      "paused()": {
        "details": "Returns true if the contract is paused, and false otherwise."
      },
      "proxiableUUID()": {
        "details": "Implementation of the ERC1822 {proxiableUUID} function. This returns the storage slot used by the implementation. It is used to validate that the this implementation remains valid after an upgrade. IMPORTANT: A proxy pointing at a proxiable contract should not be considered proxiable itself, because this risks bricking a proxy that upgrades to it, by delegating to itself until out of gas. Thus it is critical that this function revert if invoked through a proxy. This is guaranteed by the `notDelegated` modifier."
      },
      "totalDeposits(address)": {
        "details": "Returns total amount locked in the pool. Doesn't take pending rewards into account.",
        "params": {
          "lpPair": "- LP pool to check total deposits in."
        },
        "returns": {
          "totalDepositsA": "- Token A deposits.",
          "totalDepositsB": "- Token B deposits.",
          "totalDepositsLP": "- Total deposits (in LP tokens)."
        }
      },
      "upgradeTo(address)": {
        "details": "Upgrade the implementation of the proxy to `newImplementation`. Calls {_authorizeUpgrade}. Emits an {Upgraded} event."
      },
      "upgradeToAndCall(address,bytes)": {
        "details": "Upgrade the implementation of the proxy to `newImplementation`, and subsequently execute the function call encoded in `data`. Calls {_authorizeUpgrade}. Emits an {Upgraded} event."
      },
      "userStake(address,address)": {
        "details": "Returns tokens staked by the {_address} for the given {lpPair}.",
        "params": {
          "_address": "- The address to check stakes for.",
          "lpPair": "- LP pool to check stakes in."
        },
        "returns": {
          "stakeA": "- Token A stake.",
          "stakeB": "- Token B stake.",
          "stakeLP": "- Total user stake(in LP tokens)."
        }
      },
      "withdraw(address,uint256,uint256,uint256,bool,address)": {
        "details": "Withdraws tokens from the given pool. Emits a {Withdraw} event.",
        "params": {
          "amount": "- LP amount to withdraw. ",
          "amountAMin": "- The minimum amount of tokenA that must be received for the transaction not to revert.",
          "amountBMin": "- The minimum amount of tokenB that must be received for the transaction not to revert.",
          "lpPair": "- LP pool to withdraw from.",
          "recipient": "- The address which will recieve tokens.",
          "withdrawLP": "- True: Withdraw in LP tokens, False: Withdraw in normal tokens."
        },
        "returns": {
          "amountA": "- Token A amount sent to the {recipient}, 0 if withdrawLP == false.",
          "amountB": "- Token B amount sent to the {recipient}, 0 if withdrawLP == false."
        }
      }
    },
    "stateVariables": {
      "farmFactory": {
        "details": "Contract Variables: farmFactory - The contract that deploys new Farms and links them to {lpPair}s. accessManager - Role manager contract."
      }
    },
    "version": 1
  },
  "userdoc": {
    "kind": "user",
    "methods": {},
    "version": 1
  }
}