{
  "contractName": "UnoAutoStrategyV0",
  "abi": [
    {
      "anonymous": false,
      "inputs": [
        {
          "indexed": true,
          "internalType": "address",
          "name": "owner",
          "type": "address"
        },
        {
          "indexed": true,
          "internalType": "address",
          "name": "spender",
          "type": "address"
        },
        {
          "indexed": false,
          "internalType": "uint256",
          "name": "value",
          "type": "uint256"
        }
      ],
      "name": "Approval",
      "type": "event"
    },
    {
      "anonymous": false,
      "inputs": [
        {
          "indexed": true,
          "internalType": "uint256",
          "name": "poolID",
          "type": "uint256"
        },
        {
          "indexed": true,
          "internalType": "address",
          "name": "from",
          "type": "address"
        },
        {
          "indexed": true,
          "internalType": "address",
          "name": "recipient",
          "type": "address"
        },
        {
          "indexed": false,
          "internalType": "uint256",
          "name": "amountLP",
          "type": "uint256"
        }
      ],
      "name": "Deposit",
      "type": "event"
    },
    {
      "anonymous": false,
      "inputs": [
        {
          "indexed": true,
          "internalType": "uint256",
          "name": "poolID",
          "type": "uint256"
        },
        {
          "indexed": false,
          "internalType": "uint256",
          "name": "amountA",
          "type": "uint256"
        },
        {
          "indexed": false,
          "internalType": "uint256",
          "name": "amountB",
          "type": "uint256"
        }
      ],
      "name": "DepositPairTokens",
      "type": "event"
    },
    {
      "anonymous": false,
      "inputs": [
        {
          "indexed": true,
          "internalType": "uint256",
          "name": "poolID",
          "type": "uint256"
        },
        {
          "indexed": false,
          "internalType": "uint256",
          "name": "amountToken",
          "type": "uint256"
        },
        {
          "indexed": false,
          "internalType": "uint256",
          "name": "amountETH",
          "type": "uint256"
        }
      ],
      "name": "DepositPairTokensETH",
      "type": "event"
    },
    {
      "anonymous": false,
      "inputs": [
        {
          "indexed": true,
          "internalType": "uint256",
          "name": "poolID",
          "type": "uint256"
        },
        {
          "indexed": false,
          "internalType": "uint256",
          "name": "amountETH",
          "type": "uint256"
        }
      ],
      "name": "DepositSingleETH",
      "type": "event"
    },
    {
      "anonymous": false,
      "inputs": [
        {
          "indexed": true,
          "internalType": "uint256",
          "name": "poolID",
          "type": "uint256"
        },
        {
          "indexed": true,
          "internalType": "address",
          "name": "token",
          "type": "address"
        },
        {
          "indexed": false,
          "internalType": "uint256",
          "name": "amount",
          "type": "uint256"
        }
      ],
      "name": "DepositSingleToken",
      "type": "event"
    },
    {
      "anonymous": false,
      "inputs": [
        {
          "indexed": false,
          "internalType": "uint8",
          "name": "version",
          "type": "uint8"
        }
      ],
      "name": "Initialized",
      "type": "event"
    },
    {
      "anonymous": false,
      "inputs": [
        {
          "indexed": true,
          "internalType": "uint256",
          "name": "previousPoolID",
          "type": "uint256"
        },
        {
          "indexed": true,
          "internalType": "uint256",
          "name": "nextPoolID",
          "type": "uint256"
        }
      ],
      "name": "MoveLiquidity",
      "type": "event"
    },
    {
      "anonymous": false,
      "inputs": [
        {
          "indexed": true,
          "internalType": "address",
          "name": "from",
          "type": "address"
        },
        {
          "indexed": true,
          "internalType": "address",
          "name": "to",
          "type": "address"
        },
        {
          "indexed": false,
          "internalType": "uint256",
          "name": "value",
          "type": "uint256"
        }
      ],
      "name": "Transfer",
      "type": "event"
    },
    {
      "anonymous": false,
      "inputs": [
        {
          "indexed": true,
          "internalType": "uint256",
          "name": "poolID",
          "type": "uint256"
        },
        {
          "indexed": true,
          "internalType": "address",
          "name": "from",
          "type": "address"
        },
        {
          "indexed": true,
          "internalType": "address",
          "name": "recipient",
          "type": "address"
        },
        {
          "indexed": false,
          "internalType": "uint256",
          "name": "amountLP",
          "type": "uint256"
        }
      ],
      "name": "Withdraw",
      "type": "event"
    },
    {
      "anonymous": false,
      "inputs": [
        {
          "indexed": true,
          "internalType": "uint256",
          "name": "poolID",
          "type": "uint256"
        },
        {
          "indexed": false,
          "internalType": "uint256",
          "name": "amountA",
          "type": "uint256"
        },
        {
          "indexed": false,
          "internalType": "uint256",
          "name": "amountB",
          "type": "uint256"
        }
      ],
      "name": "WithdrawPairTokens",
      "type": "event"
    },
    {
      "anonymous": false,
      "inputs": [
        {
          "indexed": true,
          "internalType": "uint256",
          "name": "poolID",
          "type": "uint256"
        },
        {
          "indexed": false,
          "internalType": "uint256",
          "name": "amountToken",
          "type": "uint256"
        },
        {
          "indexed": false,
          "internalType": "uint256",
          "name": "amountETH",
          "type": "uint256"
        }
      ],
      "name": "WithdrawPairTokensETH",
      "type": "event"
    },
    {
      "anonymous": false,
      "inputs": [
        {
          "indexed": true,
          "internalType": "uint256",
          "name": "poolID",
          "type": "uint256"
        },
        {
          "indexed": false,
          "internalType": "uint256",
          "name": "amountETH",
          "type": "uint256"
        },
        {
          "indexed": false,
          "internalType": "uint256",
          "name": "amountA",
          "type": "uint256"
        },
        {
          "indexed": false,
          "internalType": "uint256",
          "name": "amountB",
          "type": "uint256"
        }
      ],
      "name": "WithdrawSingleETH",
      "type": "event"
    },
    {
      "anonymous": false,
      "inputs": [
        {
          "indexed": true,
          "internalType": "uint256",
          "name": "poolID",
          "type": "uint256"
        },
        {
          "indexed": true,
          "internalType": "address",
          "name": "token",
          "type": "address"
        },
        {
          "indexed": false,
          "internalType": "uint256",
          "name": "amount",
          "type": "uint256"
        },
        {
          "indexed": false,
          "internalType": "uint256",
          "name": "amountA",
          "type": "uint256"
        },
        {
          "indexed": false,
          "internalType": "uint256",
          "name": "amountB",
          "type": "uint256"
        }
      ],
      "name": "WithdrawSingleToken",
      "type": "event"
    },
    {
      "inputs": [],
      "name": "WMATIC",
      "outputs": [
        {
          "internalType": "address",
          "name": "",
          "type": "address"
        }
      ],
      "stateMutability": "view",
      "type": "function"
    },
    {
      "inputs": [],
      "name": "accessManager",
      "outputs": [
        {
          "internalType": "contract IUnoAccessManager",
          "name": "",
          "type": "address"
        }
      ],
      "stateMutability": "view",
      "type": "function"
    },
    {
      "inputs": [
        {
          "internalType": "address",
          "name": "owner",
          "type": "address"
        },
        {
          "internalType": "address",
          "name": "spender",
          "type": "address"
        }
      ],
      "name": "allowance",
      "outputs": [
        {
          "internalType": "uint256",
          "name": "",
          "type": "uint256"
        }
      ],
      "stateMutability": "view",
      "type": "function"
    },
    {
      "inputs": [
        {
          "internalType": "address",
          "name": "spender",
          "type": "address"
        },
        {
          "internalType": "uint256",
          "name": "amount",
          "type": "uint256"
        }
      ],
      "name": "approve",
      "outputs": [
        {
          "internalType": "bool",
          "name": "",
          "type": "bool"
        }
      ],
      "stateMutability": "nonpayable",
      "type": "function"
    },
    {
      "inputs": [
        {
          "internalType": "address",
          "name": "account",
          "type": "address"
        }
      ],
      "name": "balanceOf",
      "outputs": [
        {
          "internalType": "uint256",
          "name": "",
          "type": "uint256"
        }
      ],
      "stateMutability": "view",
      "type": "function"
    },
    {
      "inputs": [],
      "name": "decimals",
      "outputs": [
        {
          "internalType": "uint8",
          "name": "",
          "type": "uint8"
        }
      ],
      "stateMutability": "view",
      "type": "function"
    },
    {
      "inputs": [
        {
          "internalType": "address",
          "name": "spender",
          "type": "address"
        },
        {
          "internalType": "uint256",
          "name": "subtractedValue",
          "type": "uint256"
        }
      ],
      "name": "decreaseAllowance",
      "outputs": [
        {
          "internalType": "bool",
          "name": "",
          "type": "bool"
        }
      ],
      "stateMutability": "nonpayable",
      "type": "function"
    },
    {
      "inputs": [],
      "name": "factory",
      "outputs": [
        {
          "internalType": "contract IUnoAutoStrategyFactory",
          "name": "",
          "type": "address"
        }
      ],
      "stateMutability": "view",
      "type": "function"
    },
    {
      "inputs": [
        {
          "internalType": "address",
          "name": "spender",
          "type": "address"
        },
        {
          "internalType": "uint256",
          "name": "addedValue",
          "type": "uint256"
        }
      ],
      "name": "increaseAllowance",
      "outputs": [
        {
          "internalType": "bool",
          "name": "",
          "type": "bool"
        }
      ],
      "stateMutability": "nonpayable",
      "type": "function"
    },
    {
      "inputs": [],
      "name": "name",
      "outputs": [
        {
          "internalType": "string",
          "name": "",
          "type": "string"
        }
      ],
      "stateMutability": "view",
      "type": "function"
    },
    {
      "inputs": [],
      "name": "poolID",
      "outputs": [
        {
          "internalType": "uint256",
          "name": "",
          "type": "uint256"
        }
      ],
      "stateMutability": "view",
      "type": "function"
    },
    {
      "inputs": [
        {
          "internalType": "uint256",
          "name": "",
          "type": "uint256"
        }
      ],
      "name": "pools",
      "outputs": [
        {
          "internalType": "address",
          "name": "pool",
          "type": "address"
        },
        {
          "internalType": "contract IUnoAssetRouter",
          "name": "assetRouter",
          "type": "address"
        },
        {
          "internalType": "contract IERC20Upgradeable",
          "name": "tokenA",
          "type": "address"
        },
        {
          "internalType": "contract IERC20Upgradeable",
          "name": "tokenB",
          "type": "address"
        }
      ],
      "stateMutability": "view",
      "type": "function"
    },
    {
      "inputs": [],
      "name": "symbol",
      "outputs": [
        {
          "internalType": "string",
          "name": "",
          "type": "string"
        }
      ],
      "stateMutability": "view",
      "type": "function"
    },
    {
      "inputs": [],
      "name": "totalSupply",
      "outputs": [
        {
          "internalType": "uint256",
          "name": "",
          "type": "uint256"
        }
      ],
      "stateMutability": "view",
      "type": "function"
    },
    {
      "inputs": [
        {
          "internalType": "address",
          "name": "to",
          "type": "address"
        },
        {
          "internalType": "uint256",
          "name": "amount",
          "type": "uint256"
        }
      ],
      "name": "transfer",
      "outputs": [
        {
          "internalType": "bool",
          "name": "",
          "type": "bool"
        }
      ],
      "stateMutability": "nonpayable",
      "type": "function"
    },
    {
      "inputs": [
        {
          "internalType": "address",
          "name": "from",
          "type": "address"
        },
        {
          "internalType": "address",
          "name": "to",
          "type": "address"
        },
        {
          "internalType": "uint256",
          "name": "amount",
          "type": "uint256"
        }
      ],
      "name": "transferFrom",
      "outputs": [
        {
          "internalType": "bool",
          "name": "",
          "type": "bool"
        }
      ],
      "stateMutability": "nonpayable",
      "type": "function"
    },
    {
      "stateMutability": "payable",
      "type": "receive"
    },
    {
      "inputs": [
        {
          "components": [
            {
              "internalType": "address",
              "name": "pool",
              "type": "address"
            },
            {
              "internalType": "contract IUnoAssetRouter",
              "name": "assetRouter",
              "type": "address"
            }
          ],
          "internalType": "struct UnoAutoStrategyV0._PoolInfo[]",
          "name": "poolInfos",
          "type": "tuple[]"
        },
        {
          "internalType": "contract IUnoAccessManager",
          "name": "_accessManager",
          "type": "address"
        }
      ],
      "name": "initialize",
      "outputs": [],
      "stateMutability": "nonpayable",
      "type": "function"
    },
    {
      "inputs": [
        {
          "internalType": "uint256",
          "name": "pid",
          "type": "uint256"
        },
        {
          "internalType": "uint256",
          "name": "amountA",
          "type": "uint256"
        },
        {
          "internalType": "uint256",
          "name": "amountB",
          "type": "uint256"
        },
        {
          "internalType": "uint256",
          "name": "amountAMin",
          "type": "uint256"
        },
        {
          "internalType": "uint256",
          "name": "amountBMin",
          "type": "uint256"
        },
        {
          "internalType": "address",
          "name": "recipient",
          "type": "address"
        }
      ],
      "name": "deposit",
      "outputs": [
        {
          "internalType": "uint256",
          "name": "sentA",
          "type": "uint256"
        },
        {
          "internalType": "uint256",
          "name": "sentB",
          "type": "uint256"
        },
        {
          "internalType": "uint256",
          "name": "liquidity",
          "type": "uint256"
        }
      ],
      "stateMutability": "nonpayable",
      "type": "function"
    },
    {
      "inputs": [
        {
          "internalType": "uint256",
          "name": "pid",
          "type": "uint256"
        },
        {
          "internalType": "uint256",
          "name": "amountToken",
          "type": "uint256"
        },
        {
          "internalType": "uint256",
          "name": "amountTokenMin",
          "type": "uint256"
        },
        {
          "internalType": "uint256",
          "name": "amountETHMin",
          "type": "uint256"
        },
        {
          "internalType": "address",
          "name": "recipient",
          "type": "address"
        }
      ],
      "name": "depositETH",
      "outputs": [
        {
          "internalType": "uint256",
          "name": "sentToken",
          "type": "uint256"
        },
        {
          "internalType": "uint256",
          "name": "sentETH",
          "type": "uint256"
        },
        {
          "internalType": "uint256",
          "name": "liquidity",
          "type": "uint256"
        }
      ],
      "stateMutability": "payable",
      "type": "function"
    },
    {
      "inputs": [
        {
          "internalType": "uint256",
          "name": "pid",
          "type": "uint256"
        },
        {
          "internalType": "uint256",
          "name": "liquidity",
          "type": "uint256"
        },
        {
          "internalType": "uint256",
          "name": "amountAMin",
          "type": "uint256"
        },
        {
          "internalType": "uint256",
          "name": "amountBMin",
          "type": "uint256"
        },
        {
          "internalType": "address",
          "name": "recipient",
          "type": "address"
        }
      ],
      "name": "withdraw",
      "outputs": [
        {
          "internalType": "uint256",
          "name": "amountA",
          "type": "uint256"
        },
        {
          "internalType": "uint256",
          "name": "amountB",
          "type": "uint256"
        }
      ],
      "stateMutability": "nonpayable",
      "type": "function"
    },
    {
      "inputs": [
        {
          "internalType": "uint256",
          "name": "pid",
          "type": "uint256"
        },
        {
          "internalType": "uint256",
          "name": "liquidity",
          "type": "uint256"
        },
        {
          "internalType": "uint256",
          "name": "amountTokenMin",
          "type": "uint256"
        },
        {
          "internalType": "uint256",
          "name": "amountETHMin",
          "type": "uint256"
        },
        {
          "internalType": "address",
          "name": "recipient",
          "type": "address"
        }
      ],
      "name": "withdrawETH",
      "outputs": [
        {
          "internalType": "uint256",
          "name": "amountToken",
          "type": "uint256"
        },
        {
          "internalType": "uint256",
          "name": "amountETH",
          "type": "uint256"
        }
      ],
      "stateMutability": "nonpayable",
      "type": "function"
    },
    {
      "inputs": [
        {
          "internalType": "uint256",
          "name": "_poolID",
          "type": "uint256"
        },
        {
          "internalType": "bytes",
          "name": "swapAData",
          "type": "bytes"
        },
        {
          "internalType": "bytes",
          "name": "swapBData",
          "type": "bytes"
        },
        {
          "internalType": "uint256",
          "name": "amountAMin",
          "type": "uint256"
        },
        {
          "internalType": "uint256",
          "name": "amountBMin",
          "type": "uint256"
        }
      ],
      "name": "moveLiquidity",
      "outputs": [],
      "stateMutability": "nonpayable",
      "type": "function"
    },
    {
      "inputs": [
        {
          "internalType": "address",
          "name": "_address",
          "type": "address"
        }
      ],
      "name": "userStake",
      "outputs": [
        {
          "internalType": "uint256",
          "name": "stakeA",
          "type": "uint256"
        },
        {
          "internalType": "uint256",
          "name": "stakeB",
          "type": "uint256"
        },
        {
          "internalType": "uint256",
          "name": "leftoverA",
          "type": "uint256"
        },
        {
          "internalType": "uint256",
          "name": "leftoverB",
          "type": "uint256"
        }
      ],
      "stateMutability": "view",
      "type": "function"
    },
    {
      "inputs": [],
      "name": "totalDeposits",
      "outputs": [
        {
          "internalType": "uint256",
          "name": "totalDepositsA",
          "type": "uint256"
        },
        {
          "internalType": "uint256",
          "name": "totalDepositsB",
          "type": "uint256"
        }
      ],
      "stateMutability": "view",
      "type": "function"
    },
    {
      "inputs": [],
      "name": "poolsLength",
      "outputs": [
        {
          "internalType": "uint256",
          "name": "",
          "type": "uint256"
        }
      ],
      "stateMutability": "view",
      "type": "function"
    },
    {
      "inputs": [],
      "name": "tokens",
      "outputs": [
        {
          "internalType": "address",
          "name": "",
          "type": "address"
        },
        {
          "internalType": "address",
          "name": "",
          "type": "address"
        }
      ],
      "stateMutability": "view",
      "type": "function"
    }
  ],
  "bytecode": "0x608060405234801561001057600080fd5b5061509d806100206000396000f3fe6080604052600436106101a55760003560e01c806374552fb6116100e1578063a457c2d71161008a578063c45a015511610064578063c45a01551461051f578063d473a6541461053f578063dd62ed3e1461055f578063fdcb6068146105a557600080fd5b8063a457c2d71461048c578063a9059cbb146104ac578063ac4afa38146104cc57600080fd5b80639130700e116100bb5780639130700e1461042257806395d89b41146104425780639d63848a1461045757600080fd5b806374552fb6146103d75780637d882097146103f75780638d9344851461040c57600080fd5b80632716ae661161014e5780634d95cad9116101285780634d95cad9146102ff578063668393c71461033f57806368e5585d1461036157806370a08231146103a157600080fd5b80632716ae66146102ae578063313ce567146102c357806339509351146102df57600080fd5b80631c723b821161017f5780631c723b821461022b57806322604f741461026057806323b872dd1461028e57600080fd5b806306fdde03146101b1578063095ea7b3146101dc57806318160ddd1461020c57600080fd5b366101ac57005b600080fd5b3480156101bd57600080fd5b506101c66105c5565b6040516101d39190614407565b60405180910390f35b3480156101e857600080fd5b506101fc6101f7366004614439565b610657565b60405190151581526020016101d3565b34801561021857600080fd5b506035545b6040519081526020016101d3565b34801561023757600080fd5b5061024b610246366004614465565b610671565b604080519283526020830191909152016101d3565b61027361026e366004614465565b610a47565b604080519384526020840192909252908201526060016101d3565b34801561029a57600080fd5b506101fc6102a93660046144b2565b610e11565b3480156102ba57600080fd5b5060985461021d565b3480156102cf57600080fd5b50604051601281526020016101d3565b3480156102eb57600080fd5b506101fc6102fa366004614439565b610e35565b34801561030b57600080fd5b50610327730d500b1d8e8ef31e21c99d1db9a6444d3adf127081565b6040516001600160a01b0390911681526020016101d3565b34801561034b57600080fd5b5061035f61035a36600461453c565b610e74565b005b34801561036d57600080fd5b5061038161037c3660046145c5565b611cbd565b6040805194855260208501939093529183015260608201526080016101d3565b3480156103ad57600080fd5b5061021d6103bc3660046145c5565b6001600160a01b031660009081526033602052604090205490565b3480156103e357600080fd5b5061035f6103f23660046145e2565b611ef0565b34801561040357600080fd5b5061024b612814565b34801561041857600080fd5b5061021d60975481565b34801561042e57600080fd5b5061027361043d366004614668565b612a2c565b34801561044e57600080fd5b506101c6612d92565b34801561046357600080fd5b5061046c612da1565b604080516001600160a01b039384168152929091166020830152016101d3565b34801561049857600080fd5b506101fc6104a7366004614439565b612e1b565b3480156104b857600080fd5b506101fc6104c7366004614439565b612ec5565b3480156104d857600080fd5b506104ec6104e73660046146bd565b612ed3565b604080516001600160a01b03958616815293851660208501529184169183019190915290911660608201526080016101d3565b34801561052b57600080fd5b5060a154610327906001600160a01b031681565b34801561054b57600080fd5b5061024b61055a366004614465565b612f1d565b34801561056b57600080fd5b5061021d61057a3660046146d6565b6001600160a01b03918216600090815260346020908152604080832093909416825291909152205490565b3480156105b157600080fd5b5060a054610327906001600160a01b031681565b6060603680546105d49061470f565b80601f01602080910402602001604051908101604052809291908181526020018280546106009061470f565b801561064d5780601f106106225761010080835404028352916020019161064d565b820191906000526020600020905b81548152906001019060200180831161063057829003601f168201915b5050505050905090565b6000336106658185856131c4565b60019150505b92915050565b60008060a160009054906101000a90046001600160a01b03166001600160a01b0316635c975abb6040518163ffffffff1660e01b8152600401602060405180830381865afa1580156106c7573d6000803e3d6000fd5b505050506040513d601f19601f820116820180604052508101906106eb9190614762565b1561073d5760405162461bcd60e51b815260206004820152601060248201527f5041555341424c453a205041555345440000000000000000000000000000000060448201526064015b60405180910390fd5b61074561331c565b60975487146107965760405162461bcd60e51b815260206004820152600b60248201527f4241445f504f4f4c5f49440000000000000000000000000000000000000000006044820152606401610734565b60006098609754815481106107ad576107ad614784565b6000918252602080832060408051608081018252600490940290910180546001600160a01b039081168552600182015481169385019390935260028101548316918401919091526003015416606082015291508061080a86613375565b9150915060006108198a613532565b602085015185516040517fdeb03f4d0000000000000000000000000000000000000000000000000000000081526001600160a01b03918216600482015260248101849052604481018d9052606481018c90528a82166084820152929350169063deb03f4d9060a40160408051808303816000875af115801561089f573d6000803e3d6000fd5b505050506040513d601f19601f820116820180604052508101906108c391906147b3565b604086015191975095506001600160a01b03167ffffffffffffffffffffffffff2aff4e271710ce1de3662e24659bbb2c520ed9001610919576109068386614806565b94506109128287614806565b95506109af565b730d500b1d8e8ef31e21c99d1db9a6444d3adf12706001600160a01b031684606001516001600160a01b031603610967576109548387614806565b95506109608286614806565b94506109af565b60405162461bcd60e51b815260206004820152600f60248201527f4e4f545f574d415449435f504f4f4c00000000000000000000000000000000006044820152606401610734565b60975460408051888152602081018890527fec8ea790e053f644b6490a17d81267d813f466d779e36cd538c56166bfb650f991015b60405180910390a26097546040518281526001600160a01b0389169133917ffeb2000dca3e617cd6f3a8bbb63014bb54a124aac6ccbf73ee7229b4cd01f1209060200160405180910390a450505050610a3d6001606555565b9550959350505050565b600080600060a160009054906101000a90046001600160a01b03166001600160a01b0316635c975abb6040518163ffffffff1660e01b8152600401602060405180830381865afa158015610a9f573d6000803e3d6000fd5b505050506040513d601f19601f82011682018060405250810190610ac39190614762565b15610b105760405162461bcd60e51b815260206004820152601060248201527f5041555341424c453a20504155534544000000000000000000000000000000006044820152606401610734565b610b1861331c565b6097548814610b695760405162461bcd60e51b815260206004820152600b60248201527f4241445f504f4f4c5f49440000000000000000000000000000000000000000006044820152606401610734565b6000609860975481548110610b8057610b80614784565b6000918252602080832060408051608081018252600490940290910180546001600160a01b0390811685526001820154811693850193909352600281015483169184018290526003015490911660608301529092507ffffffffffffffffffffffffff2aff4e271710ce1de3662e24659bbb2c520ed9001610c0657506060810151610c3e565b730d500b1d8e8ef31e21c99d1db9a6444d3adf12706001600160a01b031682606001516001600160a01b031603610967575060408101515b610c536001600160a01b03821633308c6136b2565b602082015182516040517ffefa40940000000000000000000000000000000000000000000000000000000081526001600160a01b039182166004820152602481018c9052604481018b9052606481018a9052306084820152600092919091169063fefa409490349060a40160606040518083038185885af1158015610cdc573d6000803e3d6000fd5b50505050506040513d601f19601f82011682018060405250810190610d019190614819565b91975095509050610d1187613763565b9350858a1115610d3a57610d3a33610d29888d614847565b6001600160a01b0385169190613914565b84341115610d7a57336108fc610d508734614847565b6040518115909202916000818181858888f19350505050158015610d78573d6000803e3d6000fd5b505b60975460408051888152602081018890527f33ec26ffa0eadd23ca7311e5f8f35ce115ffaf52cfea3180a7fdc6a592b09039910160405180910390a26097546040518281526001600160a01b0389169133917f2c0f148b435140de488c1b34647f1511c646f7077e87007bacf22ef9977a16d89060200160405180910390a4505050610e066001606555565b955095509592505050565b600033610e1f858285613962565b610e2a8585856139ee565b506001949350505050565b3360008181526034602090815260408083206001600160a01b03871684529091528120549091906106659082908690610e6f908790614806565b6131c4565b60a160009054906101000a90046001600160a01b03166001600160a01b0316635c975abb6040518163ffffffff1660e01b8152600401602060405180830381865afa158015610ec7573d6000803e3d6000fd5b505050506040513d601f19601f82011682018060405250810190610eeb9190614762565b15610f385760405162461bcd60e51b815260206004820152601060248201527f5041555341424c453a20504155534544000000000000000000000000000000006044820152606401610734565b610f4061331c565b60a0546040517f91d148540000000000000000000000000000000000000000000000000000000081527f77e60b99a50d27fb027f6912a507d956105b4148adab27a86d235c8bcca8fa2f60048201523360248201526001600160a01b03909116906391d1485490604401602060405180830381865afa158015610fc7573d6000803e3d6000fd5b505050506040513d601f19601f82011682018060405250810190610feb9190614762565b6110375760405162461bcd60e51b815260206004820152601c60248201527f43414c4c45525f4e4f545f4c49515549444954595f4d414e41474552000000006044820152606401610734565b6035546000036110895760405162461bcd60e51b815260206004820152600c60248201527f4e4f5f4c495155494449545900000000000000000000000000000000000000006044820152606401610734565b609d544390036110db5760405162461bcd60e51b815260206004820152601b60248201527f43414e545f43414c4c5f4f4e5f5448455f53414d455f424c4f434b00000000006044820152606401610734565b609854871080156110ee57506097548714155b61113a5760405162461bcd60e51b815260206004820152600b60248201527f4241445f504f4f4c5f49440000000000000000000000000000000000000000006044820152606401610734565b600060986097548154811061115157611151614784565b6000918252602080832060408051608081018252600490940290910180546001600160a01b039081168552600182015481169385019390935260028101548316918401919091526003015416606082015260988054919350908a9081106111ba576111ba614784565b6000918252602080832060408051608081018252600494850290920180546001600160a01b039081168452600182015481168486015260028201548116848401526003909101548116606084015292870151875191517f51bdca3e0000000000000000000000000000000000000000000000000000000081523095810195909552908316602485015290945016906351bdca3e90604401606060405180830381865afa15801561126e573d6000803e3d6000fd5b505050506040513d601f19601f820116820180604052508101906112929190614819565b5050602084015184516040517fd84ff8420000000000000000000000000000000000000000000000000000000081526001600160a01b039182166004820152602481018490526000604482018190526064820152306084820152929350169063d84ff8429060a40160408051808303816000875af1158015611318573d6000803e3d6000fd5b505050506040513d601f19601f8201168201806040525081019061133c91906147b3565b505060408084015190517f70a082310000000000000000000000000000000000000000000000000000000081523060048201526000916001600160a01b0316906370a0823190602401602060405180830381865afa1580156113a2573d6000803e3d6000fd5b505050506040513d601f19601f820116820180604052508101906113c6919061485a565b60608501516040517f70a082310000000000000000000000000000000000000000000000000000000081523060048201529192506000916001600160a01b03909116906370a0823190602401602060405180830381865afa15801561142f573d6000803e3d6000fd5b505050506040513d601f19601f82011682018060405250810190611453919061485a565b905083604001516001600160a01b031685604001516001600160a01b0316146116da5760008060008060008f8f600490809261149193929190614873565b81019061149e9190614a98565b9550955095505094509450845160011480156114bb575083516001145b6115075760405162461bcd60e51b815260206004820152601860248201527f4241445f535741505f415f544f4b454e535f4c454e47544800000000000000006044820152606401610734565b89604001516001600160a01b03168560008151811061152857611528614784565b6020026020010151600001516001600160a01b03161461158a5760405162461bcd60e51b815260206004820152601660248201527f4241445f535741505f415f494e5055545f544f4b454e000000000000000000006044820152606401610734565b88604001516001600160a01b0316846000815181106115ab576115ab614784565b6020026020010151600001516001600160a01b03161461160d5760405162461bcd60e51b815260206004820152601760248201527f4241445f535741505f415f4f55545055545f544f4b454e0000000000000000006044820152606401610734565b868560008151811061162157611621614784565b60209081029190910181015101526040517ff17a454600000000000000000000000000000000000000000000000000000000815273a32ee1c40594249eb3183c10792bcf573d4da47c9063f17a45469061168b908890889060001990899089908990600401614ca4565b6000604051808303816000875af11580156116aa573d6000803e3d6000fd5b505050506040513d6000823e601f3d908101601f191682016040526116d29190810190614da9565b505050505050505b83606001516001600160a01b031685606001516001600160a01b03161461195f5760008060008060008d8d600490809261171693929190614873565b8101906117239190614a98565b955095509550509450945084516001148015611740575083516001145b61178c5760405162461bcd60e51b815260206004820152601860248201527f4241445f535741505f425f544f4b454e535f4c454e47544800000000000000006044820152606401610734565b89606001516001600160a01b0316856000815181106117ad576117ad614784565b6020026020010151600001516001600160a01b03161461180f5760405162461bcd60e51b815260206004820152601660248201527f4241445f535741505f425f494e5055545f544f4b454e000000000000000000006044820152606401610734565b88606001516001600160a01b03168460008151811061183057611830614784565b6020026020010151600001516001600160a01b0316146118925760405162461bcd60e51b815260206004820152601760248201527f4241445f535741505f425f4f55545055545f544f4b454e0000000000000000006044820152606401610734565b85856000815181106118a6576118a6614784565b60209081029190910181015101526040517ff17a454600000000000000000000000000000000000000000000000000000000815273a32ee1c40594249eb3183c10792bcf573d4da47c9063f17a454690611910908890889060001990899089908990600401614ca4565b6000604051808303816000875af115801561192f573d6000803e3d6000fd5b505050506040513d6000823e601f3d908101601f191682016040526119579190810190614da9565b505050505050505b6020840151845160408087015190517f70a082310000000000000000000000000000000000000000000000000000000081523060048201526001600160a01b0393841693636505e65e939216906370a0823190602401602060405180830381865afa1580156119d2573d6000803e3d6000fd5b505050506040513d601f19601f820116820180604052508101906119f6919061485a565b60608801516040517f70a082310000000000000000000000000000000000000000000000000000000081523060048201526001600160a01b03909116906370a0823190602401602060405180830381865afa158015611a59573d6000803e3d6000fd5b505050506040513d601f19601f82011682018060405250810190611a7d919061485a565b6040517fffffffff0000000000000000000000000000000000000000000000000000000060e086901b1681526001600160a01b03909316600484015260248301919091526044820152606481018a9052608481018990523060a482015260c4016060604051808303816000875af1158015611afc573d6000803e3d6000fd5b505050506040513d601f19601f82011682018060405250810190611b209190614819565b60995550506040805160808101808352918601517f70a08231000000000000000000000000000000000000000000000000000000009092523060848201529081906001600160a01b03166370a0823160a48301602060405180830381865afa158015611b90573d6000803e3d6000fd5b505050506040513d601f19601f82011682018060405250810190611bb4919061485a565b815260608601516040517f70a082310000000000000000000000000000000000000000000000000000000081523060048201526020909201916001600160a01b03909116906370a0823190602401602060405180830381865afa158015611c1f573d6000803e3d6000fd5b505050506040513d601f19601f82011682018060405250810190611c43919061485a565b8152602001611c5160355490565b8152436020918201528151609a55810151609b55604080820151609c55606090910151609d5560975490518d91907faf62d6e59ad2e54c778a490827e6cb28b1d30794092c7367fdbb261b11de033690600090a350505060978990555050600160655550505050505050565b6000806000806000609860975481548110611cda57611cda614784565b6000918252602080832060408051608081018252600494850290920180546001600160a01b0390811680855260018301548216958501869052600283015482168585015260039092015416606084015290517f51bdca3e00000000000000000000000000000000000000000000000000000000815230948101949094526024840152935082916351bdca3e90604401606060405180830381865afa158015611d86573d6000803e3d6000fd5b505050506040513d601f19601f82011682018060405250810190611daa9190614819565b92509250506000611dd0896001600160a01b031660009081526033602052604090205490565b90508015611ee5576000611de360355490565b905080611df08584614e42565b611dfa9190614e59565b985080611e078484614e42565b611e119190614e59565b336000908152609f60209081526040808320609d54845290915290205490985060ff16158015611e425750609c5415155b15611ee357609c54609a546001600160a01b038c166000908152609e60209081526040808320609d548452909152902054611e7d9085614847565b611e879190614e42565b611e919190614e59565b609c54609b546001600160a01b038d166000908152609e60209081526040808320609d5484529091529020549299509091611ecc9085614847565b611ed69190614e42565b611ee09190614e59565b95505b505b505050509193509193565b600054610100900460ff1615808015611f105750600054600160ff909116105b80611f2a5750303b158015611f2a575060005460ff166001145b611f9c5760405162461bcd60e51b815260206004820152602e60248201527f496e697469616c697a61626c653a20636f6e747261637420697320616c72656160448201527f647920696e697469616c697a65640000000000000000000000000000000000006064820152608401610734565b600080547fffffffffffffffffffffffffffffffffffffffffffffffffffffffffffffff001660011790558015611ffa57600080547fffffffffffffffffffffffffffffffffffffffffffffffffffffffffffff00ff166101001790555b6002831080159061200c575060328311155b6120585760405162461bcd60e51b815260206004820152600e60248201527f4241445f504f4f4c5f434f554e540000000000000000000000000000000000006044820152606401610734565b6120cc6040518060400160405280601081526020017f554e4f2d4175746f5374726174656779000000000000000000000000000000008152506040518060400160405280600681526020017f554e4f2d4c500000000000000000000000000000000000000000000000000000815250613bed565b6120d4613c78565b60005b838110156127655760008585838181106120f3576120f3614784565b905060400201602001602081019061210b91906145c5565b6001600160a01b031663450efe2187878581811061212b5761212b614784565b61214192602060409092020190810191506145c5565b6040517fffffffff0000000000000000000000000000000000000000000000000000000060e084901b1681526001600160a01b039091166004820152602401600060405180830381865afa15801561219d573d6000803e3d6000fd5b505050506040513d6000823e601f3d908101601f191682016040526121c59190810190614e94565b9050600060405180608001604052808888868181106121e6576121e6614784565b6121fc92602060409092020190810191506145c5565b6001600160a01b0316815260200188888681811061221c5761221c614784565b905060400201602001602081019061223491906145c5565b6001600160a01b031681526020018360008151811061225557612255614784565b60200260200101516001600160a01b031681526020018360018151811061227e5761227e614784565b6020908102919091018101516001600160a01b0390811690925260988054600181018255600091909152835160049182027f2237a976fa961f5921fd19f2b03c925c725d77b20ce8f790c19709c03de4d814810180549286167fffffffffffffffffffffffff0000000000000000000000000000000000000000938416179055928501517f2237a976fa961f5921fd19f2b03c925c725d77b20ce8f790c19709c03de4d815840180548287169084161790556040808701517f2237a976fa961f5921fd19f2b03c925c725d77b20ce8f790c19709c03de4d816860180549188169185168217905560608801517f2237a976fa961f5921fd19f2b03c925c725d77b20ce8f790c19709c03de4d817909601805496909716959093169490941790945591517fdd62ed3e000000000000000000000000000000000000000000000000000000008152939450909263dd62ed3e926123f0923092016001600160a01b0392831681529116602082015260400190565b602060405180830381865afa15801561240d573d6000803e3d6000fd5b505050506040513d601f19601f82011682018060405250810190612431919061485a565b6000036125775760408082015190517f095ea7b300000000000000000000000000000000000000000000000000000000815273a32ee1c40594249eb3183c10792bcf573d4da47c600482015260001960248201526001600160a01b039091169063095ea7b3906044016020604051808303816000875af11580156124b9573d6000803e3d6000fd5b505050506040513d601f19601f820116820180604052508101906124dd9190614762565b50604080820151602083015191517f095ea7b30000000000000000000000000000000000000000000000000000000081526001600160a01b039283166004820152600019602482015291169063095ea7b3906044016020604051808303816000875af1158015612551573d6000803e3d6000fd5b505050506040513d601f19601f820116820180604052508101906125759190614762565b505b606081015160208201516040517fdd62ed3e0000000000000000000000000000000000000000000000000000000081523060048201526001600160a01b03918216602482015291169063dd62ed3e90604401602060405180830381865afa1580156125e6573d6000803e3d6000fd5b505050506040513d601f19601f8201168201806040525081019061260a919061485a565b6000036127505760608101516040517f095ea7b300000000000000000000000000000000000000000000000000000000815273a32ee1c40594249eb3183c10792bcf573d4da47c600482015260001960248201526001600160a01b039091169063095ea7b3906044016020604051808303816000875af1158015612692573d6000803e3d6000fd5b505050506040513d601f19601f820116820180604052508101906126b69190614762565b50606081015160208201516040517f095ea7b30000000000000000000000000000000000000000000000000000000081526001600160a01b039182166004820152600019602482015291169063095ea7b3906044016020604051808303816000875af115801561272a573d6000803e3d6000fd5b505050506040513d601f19601f8201168201806040525081019061274e9190614762565b505b5050808061275d90614f23565b9150506120d7565b5060a080546001600160a01b0384167fffffffffffffffffffffffff00000000000000000000000000000000000000009182161790915543609d5560a1805490911633179055801561280e57600080547fffffffffffffffffffffffffffffffffffffffffffffffffffffffffffff00ff169055604051600181527f7f26b83ff96e1f2b6a682f133852f6798a09c465da95921460cefb38474024989060200160405180910390a15b50505050565b600080600060986097548154811061282e5761282e614784565b600091825260209182902060408051608081018252600493840290920180546001600160a01b0390811680855260018301548216968501879052600283015482168585015260039092015416606084015290517f51bdca3e0000000000000000000000000000000000000000000000000000000081523093810193909352602483015292506351bdca3e90604401606060405180830381865afa1580156128d9573d6000803e3d6000fd5b505050506040513d601f19601f820116820180604052508101906128fd9190614819565b60408481015190517f70a082310000000000000000000000000000000000000000000000000000000081523060048201529296509094506001600160a01b031691506370a0823190602401602060405180830381865afa158015612965573d6000803e3d6000fd5b505050506040513d601f19601f82011682018060405250810190612989919061485a565b6129939084614806565b60608201516040517f70a082310000000000000000000000000000000000000000000000000000000081523060048201529194506001600160a01b0316906370a0823190602401602060405180830381865afa1580156129f7573d6000803e3d6000fd5b505050506040513d601f19601f82011682018060405250810190612a1b919061485a565b612a259083614806565b9150509091565b600080600060a160009054906101000a90046001600160a01b03166001600160a01b0316635c975abb6040518163ffffffff1660e01b8152600401602060405180830381865afa158015612a84573d6000803e3d6000fd5b505050506040513d601f19601f82011682018060405250810190612aa89190614762565b15612af55760405162461bcd60e51b815260206004820152601060248201527f5041555341424c453a20504155534544000000000000000000000000000000006044820152606401610734565b612afd61331c565b6097548914612b4e5760405162461bcd60e51b815260206004820152600b60248201527f4241445f504f4f4c5f49440000000000000000000000000000000000000000006044820152606401610734565b6000609860975481548110612b6557612b65614784565b600091825260209182902060408051608081018252600490930290910180546001600160a01b0390811684526001820154811694840194909452600281015484169183018290526003015490921660608201529150612bc69033308c6136b2565b6060810151612be0906001600160a01b031633308b6136b2565b602081015181516040517f6505e65e0000000000000000000000000000000000000000000000000000000081526001600160a01b039182166004820152602481018c9052604481018b9052606481018a9052608481018990523060a48201526000929190911690636505e65e9060c4016060604051808303816000875af1158015612c6f573d6000803e3d6000fd5b505050506040513d601f19601f82011682018060405250810190612c939190614819565b91965094509050612ca386613763565b9250848a1115612cd057612cd033612cbb878d614847565b60408501516001600160a01b03169190613914565b83891115612cfb57612cfb33612ce6868c614847565b60608501516001600160a01b03169190613914565b60975460408051878152602081018790527fcf292c3ff7d54582b495c8f5feaf2d6a840141d3b45b762ce150ae9328c6a278910160405180910390a26097546040518281526001600160a01b0388169133917f2c0f148b435140de488c1b34647f1511c646f7077e87007bacf22ef9977a16d89060200160405180910390a45050612d866001606555565b96509650969350505050565b6060603780546105d49061470f565b6000806000609860975481548110612dbb57612dbb614784565b600091825260209182902060408051608081018252600490930290910180546001600160a01b0390811684526001820154811694840194909452600281015484169183018290526003015490921660609091018190529094909350915050565b3360008181526034602090815260408083206001600160a01b038716845290915281205490919083811015612eb85760405162461bcd60e51b815260206004820152602560248201527f45524332303a2064656372656173656420616c6c6f77616e63652062656c6f7760448201527f207a65726f0000000000000000000000000000000000000000000000000000006064820152608401610734565b610e2a82868684036131c4565b6000336106658185856139ee565b60988181548110612ee357600080fd5b600091825260209091206004909102018054600182015460028301546003909301546001600160a01b039283169450908216928216911684565b60008060a160009054906101000a90046001600160a01b03166001600160a01b0316635c975abb6040518163ffffffff1660e01b8152600401602060405180830381865afa158015612f73573d6000803e3d6000fd5b505050506040513d601f19601f82011682018060405250810190612f979190614762565b15612fe45760405162461bcd60e51b815260206004820152601060248201527f5041555341424c453a20504155534544000000000000000000000000000000006044820152606401610734565b612fec61331c565b609754871461303d5760405162461bcd60e51b815260206004820152600b60248201527f4241445f504f4f4c5f49440000000000000000000000000000000000000000006044820152606401610734565b600060986097548154811061305457613054614784565b6000918252602080832060408051608081018252600490940290910180546001600160a01b03908116855260018201548116938501939093526002810154831691840191909152600301541660608201529150806130b186613375565b9150915060006130c08a613532565b602085015185516040517fd84ff8420000000000000000000000000000000000000000000000000000000081526001600160a01b03918216600482015260248101849052604481018d9052606481018c90528a82166084820152929350169063d84ff8429060a40160408051808303816000875af1158015613146573d6000803e3d6000fd5b505050506040513d601f19601f8201168201806040525081019061316a91906147b3565b90965094506131798387614806565b95506131858286614806565b94506097547ff0ebf98d9ecd4f11114987b0de79d86c03a9b6e84e74d9503a38acabe0db862a87876040516109e4929190918252602082015260400190565b6001600160a01b03831661323f5760405162461bcd60e51b8152602060048201526024808201527f45524332303a20617070726f76652066726f6d20746865207a65726f2061646460448201527f72657373000000000000000000000000000000000000000000000000000000006064820152608401610734565b6001600160a01b0382166132bb5760405162461bcd60e51b815260206004820152602260248201527f45524332303a20617070726f766520746f20746865207a65726f20616464726560448201527f73730000000000000000000000000000000000000000000000000000000000006064820152608401610734565b6001600160a01b0383811660008181526034602090815260408083209487168084529482529182902085905590518481527f8c5be1e5ebec7d5bd14f71427d1e84f3dd0314c0f7b2291e5b200ac8c7c3b925910160405180910390a3505050565b60026065540361336e5760405162461bcd60e51b815260206004820152601f60248201527f5265656e7472616e637947756172643a207265656e7472616e742063616c6c006044820152606401610734565b6002606555565b336000908152609f60209081526040808320609d548452909152812054819060ff1661352d57609c54156134e75760006098609754815481106133ba576133ba614784565b600091825260208083206040805160808101825260049490940290910180546001600160a01b03908116855260018201548116858501526002820154811685840152600390910154166060840152609c54609a5433808752609e8552838720609d548852855283872054908752603390945291909420549294509161343f9190614847565b6134499190614e42565b6134539190614e59565b609c54609b54336000818152609e60209081526040808320609d54845282528083205493835260339091529020549396509192909161349191614847565b61349b9190614e42565b6134a59190614e59565b915082156134c65760408101516134c6906001600160a01b03168585613914565b81156134e55760608101516134e5906001600160a01b03168584613914565b505b336000908152609f60209081526040808320609d548452909152902080547fffffffffffffffffffffffffffffffffffffffffffffffffffffffffffffff001660011790555b915091565b60008060986097548154811061354a5761354a614784565b6000918252602080832060408051608081018252600494850290920180546001600160a01b0390811680855260018301548216958501869052600283015482168585015260039092015416606084015290517f51bdca3e000000000000000000000000000000000000000000000000000000008152309481019490945260248401529350906351bdca3e90604401606060405180830381865afa1580156135f5573d6000803e3d6000fd5b505050506040513d601f19601f820116820180604052508101906136199190614819565b5050905061362660355490565b6136308286614e42565b61363a9190614e59565b92506000831161368c5760405162461bcd60e51b815260206004820152601d60248201527f494e53554646494349454e545f4c49515549444954595f4255524e45440000006044820152606401610734565b6136963385613cff565b6136a08382614847565b609955509092915050565b6001606555565b6040516001600160a01b038085166024830152831660448201526064810182905261280e9085907f23b872dd00000000000000000000000000000000000000000000000000000000906084015b60408051601f198184030181529190526020810180517bffffffffffffffffffffffffffffffffffffffffffffffffffffffff167fffffffff0000000000000000000000000000000000000000000000000000000090931692909217909152613e76565b60008060986097548154811061377b5761377b614784565b6000918252602080832060408051608081018252600494850290920180546001600160a01b0390811680855260018301548216958501869052600283015482168585015260039092015416606084015290517f51bdca3e000000000000000000000000000000000000000000000000000000008152309481019490945260248401529350906351bdca3e90604401606060405180830381865afa158015613826573d6000803e3d6000fd5b505050506040513d601f19601f8201168201806040525081019061384a9190614819565b5050905060006099548261385e9190614847565b9050600061386b60355490565b905080600003613895576138816103e883614847565b945061389060016103e8613f5e565b6138af565b6099546138a28284614e42565b6138ac9190614e59565b94505b600085116138ff5760405162461bcd60e51b815260206004820152601d60248201527f494e53554646494349454e545f4c49515549444954595f4d494e5445440000006044820152606401610734565b6139098686613f5e565b505060995550919050565b6040516001600160a01b03831660248201526044810182905261395d9084907fa9059cbb00000000000000000000000000000000000000000000000000000000906064016136ff565b505050565b6001600160a01b03838116600090815260346020908152604080832093861683529290522054600019811461280e57818110156139e15760405162461bcd60e51b815260206004820152601d60248201527f45524332303a20696e73756666696369656e7420616c6c6f77616e63650000006044820152606401610734565b61280e84848484036131c4565b6001600160a01b038316613a6a5760405162461bcd60e51b815260206004820152602560248201527f45524332303a207472616e736665722066726f6d20746865207a65726f20616460448201527f64726573730000000000000000000000000000000000000000000000000000006064820152608401610734565b6001600160a01b038216613ae65760405162461bcd60e51b815260206004820152602360248201527f45524332303a207472616e7366657220746f20746865207a65726f206164647260448201527f65737300000000000000000000000000000000000000000000000000000000006064820152608401610734565b613af183838361402b565b6001600160a01b03831660009081526033602052604090205481811015613b805760405162461bcd60e51b815260206004820152602660248201527f45524332303a207472616e7366657220616d6f756e742065786365656473206260448201527f616c616e636500000000000000000000000000000000000000000000000000006064820152608401610734565b6001600160a01b0380851660008181526033602052604080822086860390559286168082529083902080548601905591517fddf252ad1be2c89b69c2b068fc378daa952ba7f163c4a11628f55a4df523b3ef90613be09086815260200190565b60405180910390a361280e565b600054610100900460ff16613c6a5760405162461bcd60e51b815260206004820152602b60248201527f496e697469616c697a61626c653a20636f6e7472616374206973206e6f74206960448201527f6e697469616c697a696e670000000000000000000000000000000000000000006064820152608401610734565b613c7482826140fd565b5050565b600054610100900460ff16613cf55760405162461bcd60e51b815260206004820152602b60248201527f496e697469616c697a61626c653a20636f6e7472616374206973206e6f74206960448201527f6e697469616c697a696e670000000000000000000000000000000000000000006064820152608401610734565b613cfd614193565b565b6001600160a01b038216613d7b5760405162461bcd60e51b815260206004820152602160248201527f45524332303a206275726e2066726f6d20746865207a65726f2061646472657360448201527f73000000000000000000000000000000000000000000000000000000000000006064820152608401610734565b613d878260008361402b565b6001600160a01b03821660009081526033602052604090205481811015613e165760405162461bcd60e51b815260206004820152602260248201527f45524332303a206275726e20616d6f756e7420657863656564732062616c616e60448201527f63650000000000000000000000000000000000000000000000000000000000006064820152608401610734565b6001600160a01b03831660008181526033602090815260408083208686039055603580548790039055518581529192917fddf252ad1be2c89b69c2b068fc378daa952ba7f163c4a11628f55a4df523b3ef910160405180910390a3505050565b6000613ecb826040518060400160405280602081526020017f5361666545524332303a206c6f772d6c6576656c2063616c6c206661696c6564815250856001600160a01b03166142109092919063ffffffff16565b9050805160001480613eec575080806020019051810190613eec9190614762565b61395d5760405162461bcd60e51b815260206004820152602a60248201527f5361666545524332303a204552433230206f7065726174696f6e20646964206e60448201527f6f742073756363656564000000000000000000000000000000000000000000006064820152608401610734565b6001600160a01b038216613fb45760405162461bcd60e51b815260206004820152601f60248201527f45524332303a206d696e7420746f20746865207a65726f2061646472657373006044820152606401610734565b613fc06000838361402b565b8060356000828254613fd29190614806565b90915550506001600160a01b0382166000818152603360209081526040808320805486019055518481527fddf252ad1be2c89b69c2b068fc378daa952ba7f163c4a11628f55a4df523b3ef910160405180910390a35050565b6001600160a01b0383166000908152609e60209081526040808320609d548452909152902054811115614083576001600160a01b0383166000908152609e60209081526040808320609d5484529091528120556140be565b6001600160a01b0383166000908152609e60209081526040808320609d548452909152812080548392906140b8908490614847565b90915550505b6001600160a01b0382166000908152609e60209081526040808320609d548452909152812080548392906140f3908490614806565b9091555050505050565b600054610100900460ff1661417a5760405162461bcd60e51b815260206004820152602b60248201527f496e697469616c697a61626c653a20636f6e7472616374206973206e6f74206960448201527f6e697469616c697a696e670000000000000000000000000000000000000000006064820152608401610734565b60366141868382614f8b565b50603761395d8282614f8b565b600054610100900460ff166136ab5760405162461bcd60e51b815260206004820152602b60248201527f496e697469616c697a61626c653a20636f6e7472616374206973206e6f74206960448201527f6e697469616c697a696e670000000000000000000000000000000000000000006064820152608401610734565b606061421f8484600085614227565b949350505050565b60608247101561429f5760405162461bcd60e51b815260206004820152602660248201527f416464726573733a20696e73756666696369656e742062616c616e636520666f60448201527f722063616c6c00000000000000000000000000000000000000000000000000006064820152608401610734565b600080866001600160a01b031685876040516142bb919061504b565b60006040518083038185875af1925050503d80600081146142f8576040519150601f19603f3d011682016040523d82523d6000602084013e6142fd565b606091505b509150915061430e87838387614319565b979650505050505050565b60608315614388578251600003614381576001600160a01b0385163b6143815760405162461bcd60e51b815260206004820152601d60248201527f416464726573733a2063616c6c20746f206e6f6e2d636f6e74726163740000006044820152606401610734565b508161421f565b61421f838381511561439d5781518083602001fd5b8060405162461bcd60e51b81526004016107349190614407565b60005b838110156143d25781810151838201526020016143ba565b50506000910152565b600081518084526143f38160208601602086016143b7565b601f01601f19169290920160200192915050565b60208152600061441a60208301846143db565b9392505050565b6001600160a01b038116811461443657600080fd5b50565b6000806040838503121561444c57600080fd5b823561445781614421565b946020939093013593505050565b600080600080600060a0868803121561447d57600080fd5b8535945060208601359350604086013592506060860135915060808601356144a481614421565b809150509295509295909350565b6000806000606084860312156144c757600080fd5b83356144d281614421565b925060208401356144e281614421565b929592945050506040919091013590565b60008083601f84011261450557600080fd5b50813567ffffffffffffffff81111561451d57600080fd5b60208301915083602082850101111561453557600080fd5b9250929050565b600080600080600080600060a0888a03121561455757600080fd5b87359650602088013567ffffffffffffffff8082111561457657600080fd5b6145828b838c016144f3565b909850965060408a013591508082111561459b57600080fd5b506145a88a828b016144f3565b989b979a5095989597966060870135966080013595509350505050565b6000602082840312156145d757600080fd5b813561441a81614421565b6000806000604084860312156145f757600080fd5b833567ffffffffffffffff8082111561460f57600080fd5b818601915086601f83011261462357600080fd5b81358181111561463257600080fd5b8760208260061b850101111561464757600080fd5b6020928301955093505084013561465d81614421565b809150509250925092565b60008060008060008060c0878903121561468157600080fd5b863595506020870135945060408701359350606087013592506080870135915060a08701356146af81614421565b809150509295509295509295565b6000602082840312156146cf57600080fd5b5035919050565b600080604083850312156146e957600080fd5b82356146f481614421565b9150602083013561470481614421565b809150509250929050565b600181811c9082168061472357607f821691505b60208210810361475c577f4e487b7100000000000000000000000000000000000000000000000000000000600052602260045260246000fd5b50919050565b60006020828403121561477457600080fd5b8151801515811461441a57600080fd5b7f4e487b7100000000000000000000000000000000000000000000000000000000600052603260045260246000fd5b600080604083850312156147c657600080fd5b505080516020909101519092909150565b7f4e487b7100000000000000000000000000000000000000000000000000000000600052601160045260246000fd5b8082018082111561066b5761066b6147d7565b60008060006060848603121561482e57600080fd5b8351925060208401519150604084015190509250925092565b8181038181111561066b5761066b6147d7565b60006020828403121561486c57600080fd5b5051919050565b6000808585111561488357600080fd5b8386111561489057600080fd5b5050820193919092039150565b7f4e487b7100000000000000000000000000000000000000000000000000000000600052604160045260246000fd5b6040516060810167ffffffffffffffff811182821017156148ef576148ef61489d565b60405290565b6040516080810167ffffffffffffffff811182821017156148ef576148ef61489d565b604051601f8201601f1916810167ffffffffffffffff811182821017156149415761494161489d565b604052919050565b600067ffffffffffffffff8211156149635761496361489d565b5060051b60200190565b600082601f83011261497e57600080fd5b813567ffffffffffffffff8111156149985761499861489d565b6149ab6020601f19601f84011601614918565b8181528460208386010111156149c057600080fd5b816020850160208301376000918101602001919091529392505050565b600082601f8301126149ee57600080fd5b81356020614a036149fe83614949565b614918565b82815260609283028501820192828201919087851115614a2257600080fd5b8387015b85811015614a7b5781818a031215614a3e5760008081fd5b614a466148cc565b8135614a5181614421565b81528186013586820152604080830135614a6a81614421565b908201528452928401928101614a26565b5090979650505050505050565b8035614a9381614421565b919050565b60008060008060008060c08789031215614ab157600080fd5b67ffffffffffffffff87351115614ac757600080fd5b8635870188601f820112614ada57600080fd5b614ae76149fe8235614949565b81358082526020808301929160051b8401018b1015614b0557600080fd5b602083015b6020843560051b850101811015614bc65767ffffffffffffffff81351115614b3157600080fd5b803584016080601f19828f03011215614b4957600080fd5b614b516148f5565b614b5e6020830135614421565b6020820135815260408201356020820152614b7c6060830135614421565b6060820135604082015267ffffffffffffffff60808301351115614b9f57600080fd5b614bb28e6020608085013585010161496d565b606082015284525060209283019201614b0a565b509750505067ffffffffffffffff60208801351115614be457600080fd5b614bf488602089013589016149dd565b94506040870135935060608701359250614c1060808801614a88565b915067ffffffffffffffff60a08801351115614c2b57600080fd5b614c3b8860a0890135890161496d565b90509295509295509295565b600081518084526020808501945080840160005b83811015614c9957815180516001600160a01b03908116895284820151858a0152604091820151169088015260609096019590820190600101614c5b565b509495945050505050565b600060c0820160c0835280895180835260e08501915060e08160051b86010192506020808c0160005b83811015614d51578786037fffffffffffffffffffffffffffffffffffffffffffffffffffffffffffffff20018552815180516001600160a01b039081168852848201518589015260408083015190911690880152606090810151608091880182905290614d3d818901836143db565b975050509382019390820190600101614ccd565b505085840381870152505050614d678189614c47565b9050866040840152856060840152614d8a60808401866001600160a01b03169052565b82810360a0840152614d9c81856143db565b9998505050505050505050565b60008060408385031215614dbc57600080fd5b825167ffffffffffffffff811115614dd357600080fd5b8301601f81018513614de457600080fd5b80516020614df46149fe83614949565b82815260059290921b83018101918181019088841115614e1357600080fd5b938201935b83851015614e3157845182529382019390820190614e18565b969091015195979596505050505050565b808202811582820484141761066b5761066b6147d7565b600082614e8f577f4e487b7100000000000000000000000000000000000000000000000000000000600052601260045260246000fd5b500490565b60006020808385031215614ea757600080fd5b825167ffffffffffffffff811115614ebe57600080fd5b8301601f81018513614ecf57600080fd5b8051614edd6149fe82614949565b81815260059190911b82018301908381019087831115614efc57600080fd5b928401925b8284101561430e578351614f1481614421565b82529284019290840190614f01565b60006000198203614f3657614f366147d7565b5060010190565b601f82111561395d57600081815260208120601f850160051c81016020861015614f645750805b601f850160051c820191505b81811015614f8357828155600101614f70565b505050505050565b815167ffffffffffffffff811115614fa557614fa561489d565b614fb981614fb3845461470f565b84614f3d565b602080601f831160018114614fee5760008415614fd65750858301515b600019600386901b1c1916600185901b178555614f83565b600085815260208120601f198616915b8281101561501d57888601518255948401946001909101908401614ffe565b508582101561503b5787850151600019600388901b60f8161c191681555b5050505050600190811b01905550565b6000825161505d8184602087016143b7565b919091019291505056fea2646970667358221220d80b53b8c735e7955feb59c8ca7c33395fe4e039de1033da921d340999cfefa064736f6c63430008130033",
  "immutableReferences": {},
  "source": "// SPDX-License-Identifier: MIT\r\npragma solidity 0.8.19;\r\nimport \"../interfaces/IOdosRouter.sol\";   \r\nimport \"../interfaces/IUnoAssetRouter.sol\";   \r\nimport \"../interfaces/IUnoAutoStrategyFactory.sol\";  \r\nimport '@openzeppelin/contracts-upgradeable/security/ReentrancyGuardUpgradeable.sol';\r\nimport '@openzeppelin/contracts-upgradeable/token/ERC20/ERC20Upgradeable.sol';\r\nimport '@openzeppelin/contracts-upgradeable/token/ERC20/utils/SafeERC20Upgradeable.sol';\r\n\r\ncontract UnoAutoStrategyV0 is Initializable, ERC20Upgradeable, ReentrancyGuardUpgradeable {\r\n    using SafeERC20Upgradeable for IERC20Upgradeable;\r\n    /**\r\n     * @dev PoolInfo:\r\n     * {assetRouter} - UnoAssetRouter contract.\r\n     * {pool} - Pool address. \r\n     * {tokenA} - Pool's first token address.\r\n     * {tokenB} - Pool's second token address.\r\n     */\r\n    struct _PoolInfo {\r\n        address pool;\r\n        IUnoAssetRouter assetRouter;\r\n    }\r\n\r\n    struct PoolInfo {\r\n        address pool;\r\n        IUnoAssetRouter assetRouter;\r\n        IERC20Upgradeable tokenA;\r\n        IERC20Upgradeable tokenB;\r\n    }\r\n\r\n    /**\r\n     * @dev MoveLiquidityInfo:\r\n     * {leftoverA} - TokenA leftovers after MoveLiquidity() call.\r\n     * {leftoverB} - TokenB leftovers after MoveLiquidity() call. \r\n     * {totalSupply} - totalSupply after MoveLiquidity() call.\r\n     * {block} - MoveLiquidity() call block.\r\n     */\r\n    struct MoveLiquidityInfo {\r\n        uint256 leftoverA;\r\n        uint256 leftoverB;\r\n        uint256 totalSupply;\r\n        uint256 block;\r\n    }\r\n    \r\n    /**\r\n     * @dev Contract Variables:\r\n     * {OdosRouter} - Contract that executes swaps.\r\n\r\n     * {poolID} - Current pool the strategy uses ({pools} index).\r\n     * {pools} - Pools this strategy can use and move liquidity to.\r\n\r\n     * {reserveLP} - LP token reserve.\r\n     * {lastMoveInfo} - Info on last MoveLiquidity() block.\r\n     * {blockedLiquidty} - User's blocked LP tokens. Prevents user from stealing leftover tokens by depositing and exiting before moveLiquidity() has been called.\r\n     * {leftoversCollected} - Flag that prevents leftover token collection if they were already collected this MoveLiquidity() cycle.\r\n\r\n     * {accessManager} - Role manager contract.\r\n     * {factory} - The address of AutoStrategyFactory this contract was deployed by.\r\n\r\n     * {MINIMUM_LIQUIDITY} - Ameliorates rounding errors.\r\n     */\r\n\r\n    IOdosRouter private constant OdosRouter = IOdosRouter(0xa32EE1C40594249eb3183c10792BcF573D4Da47C);\r\n\r\n    uint256 public poolID;\r\n    PoolInfo[] public pools;\r\n\r\n    uint256 private reserveLP;\r\n    MoveLiquidityInfo private lastMoveInfo;\r\n    mapping(address => mapping(uint256 => uint256)) private blockedLiquidty;\r\n    mapping(address => mapping(uint256 => bool)) private leftoversCollected;\r\n\r\n    IUnoAccessManager public accessManager;\r\n    IUnoAutoStrategyFactory public factory;\r\n\r\n    uint256 private constant MINIMUM_LIQUIDITY = 10**3;\r\n    bytes32 private constant LIQUIDITY_MANAGER_ROLE = keccak256('LIQUIDITY_MANAGER_ROLE');\r\n    address public constant WMATIC = 0x0d500B1d8E8eF31E21C99d1Db9A6444d3ADf1270;\r\n\r\n    event DepositPairTokens(uint256 indexed poolID, uint256 amountA, uint256 amountB);\r\n    event DepositPairTokensETH(uint256 indexed poolID, uint256 amountToken, uint256 amountETH);\r\n    event DepositSingleToken(uint256 indexed poolID, address indexed token, uint256 amount);\r\n    event DepositSingleETH(uint256 indexed poolID, uint256 amountETH);\r\n    // Note: amountLP refers to LP tokens used in farms and staking pools, not UNO-LP this contract is.\r\n    // To get info for UNO-LP use mint/burn events\r\n    event Deposit(uint256 indexed poolID, address indexed from, address indexed recipient, uint256 amountLP);\r\n\r\n    event WithdrawPairTokens(uint256 indexed poolID, uint256 amountA, uint256 amountB);\r\n    event WithdrawPairTokensETH(uint256 indexed poolID, uint256 amountToken, uint256 amountETH);\r\n    event WithdrawSingleToken(uint256 indexed poolID, address indexed token, uint256 amount, uint256 amountA, uint256 amountB);\r\n    event WithdrawSingleETH(uint256 indexed poolID, uint256 amountETH, uint256 amountA, uint256 amountB);\r\n    // Note: amountLP refers to LP tokens used in farms and staking pools, not UNO-LP this contract is.\r\n    // To get info for UNO-LP use mint/burn events\r\n    event Withdraw(uint256 indexed poolID, address indexed from, address indexed recipient, uint256 amountLP);\r\n\r\n    event MoveLiquidity(uint256 indexed previousPoolID, uint256 indexed nextPoolID);\r\n\r\n    modifier whenNotPaused(){\r\n        require(factory.paused() == false, 'PAUSABLE: PAUSED');\r\n        _;\r\n    }\r\n\r\n    // ============ Methods ============\r\n\r\n    receive() external payable {}\r\n\r\n    function initialize(_PoolInfo[] calldata poolInfos, IUnoAccessManager _accessManager) external initializer {\r\n        require ((poolInfos.length >= 2) && (poolInfos.length <= 50), 'BAD_POOL_COUNT');\r\n\r\n        __ERC20_init(\"UNO-AutoStrategy\", \"UNO-LP\");\r\n        __ReentrancyGuard_init();\r\n        \r\n        for (uint256 i = 0; i < poolInfos.length; i++) {\r\n            IERC20[] memory _tokens = IUnoAssetRouter(poolInfos[i].assetRouter).getTokens(poolInfos[i].pool);\r\n            PoolInfo memory pool = PoolInfo({\r\n                pool: poolInfos[i].pool,\r\n                assetRouter: poolInfos[i].assetRouter,\r\n                tokenA: IERC20Upgradeable(address(_tokens[0])),\r\n                tokenB: IERC20Upgradeable(address(_tokens[1]))\r\n            });\r\n            pools.push(pool);\r\n\r\n            if (pool.tokenA.allowance(address(this), address(pool.assetRouter)) == 0) {\r\n                pool.tokenA.approve(address(OdosRouter), type(uint256).max);\r\n                pool.tokenA.approve(address(pool.assetRouter), type(uint256).max);\r\n            }\r\n            if (pool.tokenB.allowance(address(this), address(pool.assetRouter)) == 0) {\r\n                pool.tokenB.approve(address(OdosRouter), type(uint256).max);\r\n                pool.tokenB.approve(address(pool.assetRouter), type(uint256).max);\r\n            }\r\n        }\r\n\r\n        accessManager = _accessManager;\r\n        lastMoveInfo.block = block.number;\r\n        factory = IUnoAutoStrategyFactory(msg.sender);\r\n    }\r\n\r\n    /**\r\n     * @dev Deposits tokens in the pools[poolID] pool. Mints tokens representing user share. Emits {Deposit} event.\r\n     * @param pid - Current poolID. Throws revert if moveLiquidity() has been called before the transaction has been mined.\r\n     * @param amountA - Token A amount to deposit.\r\n     * @param amountB  - Token B amount to deposit.\r\n     * @param amountAMin - Bounds the extent to which the B/A price can go up before the transaction reverts.\r\n     * @param amountBMin - Bounds the extent to which the A/B price can go up before the transaction reverts.\r\n     * @param recipient - Address which will receive the deposit.\r\n     \r\n     * @return sentA - Deposited token A amount.\r\n     * @return sentB - Deposited token B amount.\r\n     * @return liquidity - Total liquidity minted for the {recipient}.\r\n     */\r\n    function deposit(uint256 pid, uint256 amountA, uint256 amountB, uint256 amountAMin, uint256 amountBMin, address recipient) whenNotPaused nonReentrant external returns (uint256 sentA, uint256 sentB, uint256 liquidity) {\r\n        require (pid == poolID, 'BAD_POOL_ID');\r\n        PoolInfo memory pool = pools[poolID];\r\n\r\n        pool.tokenA.safeTransferFrom(msg.sender, address(this), amountA);\r\n        pool.tokenB.safeTransferFrom(msg.sender, address(this), amountB);\r\n\r\n        uint256 amountLP;\r\n        (sentA, sentB, amountLP) = pool.assetRouter.deposit(pool.pool, amountA, amountB, amountAMin, amountBMin, address(this));\r\n        liquidity = mint(recipient);\r\n\r\n        if(amountA > sentA){\r\n            pool.tokenA.safeTransfer(msg.sender, amountA - sentA);\r\n        }\r\n        if(amountB > sentB){\r\n            pool.tokenB.safeTransfer(msg.sender, amountB - sentB);\r\n        }\r\n\r\n        emit DepositPairTokens(poolID, sentA, sentB);\r\n        emit Deposit(poolID, msg.sender, recipient, amountLP); \r\n    }\r\n\r\n    /**\r\n     * @dev Deposits tokens in the pools[poolID] pool. Mints tokens representing user share. Emits {Deposit} event.\r\n     * @param pid - Current poolID. Throws revert if moveLiquidity() has been called before the transaction has been mined.\r\n     * @param amountToken - Token amount to deposit.\r\n     * @param amountTokenMin - Bounds the extent to which the TOKEN/WMATIC price can go up before the transaction reverts.\r\n     * @param amountETHMin - Bounds the extent to which the WMATIC/TOKEN price can go up before the transaction reverts.\r\n     * @param recipient - Address which will receive the deposit.\r\n     \r\n     * @return sentToken - Deposited token amount.\r\n     * @return sentETH - Deposited ETH amount.\r\n     * @return liquidity - Total liquidity minted for the {recipient}.\r\n     */\r\n    function depositETH(uint256 pid, uint256 amountToken, uint256 amountTokenMin, uint256 amountETHMin, address recipient) whenNotPaused nonReentrant external payable returns (uint256 sentToken, uint256 sentETH, uint256 liquidity) {\r\n        require (pid == poolID, 'BAD_POOL_ID');\r\n        PoolInfo memory pool = pools[poolID];\r\n\r\n        IERC20Upgradeable token;\r\n        if (address(pool.tokenA) == WMATIC) {\r\n            token = pool.tokenB;\r\n        } else if (address(pool.tokenB) == WMATIC) {\r\n            token = pool.tokenA;\r\n        } else {\r\n            revert(\"NOT_WMATIC_POOL\");\r\n        }\r\n        token.safeTransferFrom(msg.sender, address(this), amountToken);\r\n\r\n        uint256 amountLP;\r\n        (sentToken, sentETH, amountLP) = pool.assetRouter.depositETH{value: msg.value}(pool.pool, amountToken, amountTokenMin, amountETHMin, address(this));\r\n        liquidity = mint(recipient);\r\n\r\n        if(amountToken > sentToken){\r\n            token.safeTransfer(msg.sender, amountToken - sentToken);\r\n        }\r\n        if(msg.value > sentETH){\r\n            payable(msg.sender).transfer(msg.value - sentETH);\r\n        }\r\n\r\n        emit DepositPairTokensETH(poolID, sentToken, sentETH);\r\n        emit Deposit(poolID, msg.sender, recipient, amountLP); \r\n    }\r\n\r\n    /**\r\n     * @dev Withdraws tokens from the {pools[poolID]} pool and sends them to the recipient. Burns tokens representing user share. Emits {Withdraw} event.\r\n     * @param pid - Current poolID. Throws revert if moveLiquidity() has been called before the transaction has been mined.\r\n     * @param liquidity - Liquidity to burn from this user.\r\n     * @param amountAMin - The minimum amount of tokenA that must be received from the pool for the transaction not to revert.\r\n     * @param amountBMin - The minimum amount of tokenB that must be received from the pool for the transaction not to revert.\r\n     * @param recipient - Address which will receive withdrawn tokens.\r\n     \r\n     * @return amountA - Token A amount sent to the {recipient}.\r\n     * @return amountB - Token B amount sent to the {recipient}.\r\n     */\r\n    function withdraw(uint256 pid, uint256 liquidity, uint256 amountAMin, uint256 amountBMin, address recipient) whenNotPaused nonReentrant external returns (uint256 amountA, uint256 amountB) {\r\n        require (pid == poolID, 'BAD_POOL_ID');\r\n        PoolInfo memory pool = pools[poolID];\r\n\r\n        (uint256 leftoverA, uint256 leftoverB) = collectLeftovers(recipient);\r\n\r\n        uint256 amountLP = burn(liquidity);\r\n        (amountA, amountB) = pool.assetRouter.withdraw(pool.pool, amountLP, amountAMin, amountBMin, recipient);\r\n\r\n        amountA += leftoverA;\r\n        amountB += leftoverB;\r\n\r\n        emit WithdrawPairTokens(poolID, amountA, amountB);\r\n        emit Withdraw(poolID, msg.sender, recipient, amountLP); \r\n    }\r\n\r\n    /**\r\n     * @dev Withdraws tokens from the {pools[poolID]} pool and sends them to the recipient. Burns tokens representing user share. Emits {Withdraw} event.\r\n     * @param pid - Current poolID. Throws revert if moveLiquidity() has been called before the transaction has been mined.\r\n     * @param liquidity - Liquidity to burn from this user.\r\n     * @param amountTokenMin - The minimum amount of tokenA that must be received from the pool for the transaction not to revert.\r\n     * @param amountETHMin - The minimum amount of tokenB that must be received from the pool for the transaction not to revert.\r\n     * @param recipient - Address which will receive withdrawn tokens.\r\n     \r\n     * @return amountToken - Token amount sent to the {recipient}.\r\n     * @return amountETH - MATIC amount sent to the {recipient}.\r\n     */\r\n    function withdrawETH(uint256 pid, uint256 liquidity, uint256 amountTokenMin, uint256 amountETHMin, address recipient) whenNotPaused nonReentrant external returns (uint256 amountToken, uint256 amountETH) {\r\n        require (pid == poolID, 'BAD_POOL_ID');\r\n        PoolInfo memory pool = pools[poolID];\r\n\r\n        (uint256 leftoverA, uint256 leftoverB) = collectLeftovers(recipient);\r\n\r\n        uint256 amountLP = burn(liquidity);\r\n        (amountToken, amountETH) = pool.assetRouter.withdrawETH(pool.pool, amountLP, amountTokenMin, amountETHMin, recipient);\r\n\r\n        if (address(pool.tokenA) == WMATIC) {\r\n            amountETH += leftoverA;\r\n            amountToken += leftoverB;\r\n        } else if (address(pool.tokenB) == WMATIC) {\r\n            amountToken += leftoverA;\r\n            amountETH += leftoverB;\r\n        } else {\r\n            revert(\"NOT_WMATIC_POOL\");\r\n        }\r\n\r\n        emit WithdrawPairTokensETH(poolID, amountToken, amountETH);\r\n        emit Withdraw(poolID, msg.sender, recipient, amountLP); \r\n    }\r\n\r\n    /**\r\n     * @dev Collects leftover tokens left from moveLiquidity() function.\r\n     * @param recipient - Address which will receive leftover tokens.\r\n     \r\n     * @return leftoverA - Token A amount sent to the {recipient}.\r\n     * @return leftoverB - Token B amount sent to the {recipient}.\r\n     */\r\n    function collectLeftovers(address recipient) internal returns (uint256 leftoverA, uint256 leftoverB){\r\n        if(!leftoversCollected[msg.sender][lastMoveInfo.block]){\r\n            if(lastMoveInfo.totalSupply != 0){\r\n                PoolInfo memory pool = pools[poolID];\r\n                leftoverA = (balanceOf(msg.sender) - blockedLiquidty[msg.sender][lastMoveInfo.block]) * lastMoveInfo.leftoverA / lastMoveInfo.totalSupply;\r\n                leftoverB = (balanceOf(msg.sender) - blockedLiquidty[msg.sender][lastMoveInfo.block]) * lastMoveInfo.leftoverB / lastMoveInfo.totalSupply;\r\n\r\n                if(leftoverA > 0){\r\n                    pool.tokenA.safeTransfer(recipient, leftoverA);\r\n                }\r\n                if(leftoverB > 0){\r\n                    pool.tokenB.safeTransfer(recipient, leftoverB);\r\n                }\r\n            }\r\n\r\n            leftoversCollected[msg.sender][lastMoveInfo.block] = true;\r\n        }\r\n    }\r\n\r\n    /**\r\n     * @dev Moves liquidity from {pools[poolID]} to {pools[_poolID]}. Emits {MoveLiquidity} event.\r\n     * @param _poolID - Pool ID to move liquidity to.\r\n     * @param swapAData - Data for tokenA swap.\r\n     * @param swapBData - Data for tokenB swap.\r\n     * @param amountAMin - The minimum amount of tokenA that must be deposited in {pools[_poolID]} for the transaction not to revert.\r\n     * @param amountBMin - The minimum amount of tokenB that must be deposited in {pools[_poolID]} for the transaction not to revert.\r\n     *\r\n     * Note: This function can only be called by LiquidityManager.\r\n     */\r\n    function moveLiquidity(uint256 _poolID, bytes calldata swapAData, bytes calldata swapBData, uint256 amountAMin, uint256 amountBMin) whenNotPaused nonReentrant external {\r\n        require(accessManager.hasRole(LIQUIDITY_MANAGER_ROLE, msg.sender), 'CALLER_NOT_LIQUIDITY_MANAGER');\r\n        require(totalSupply() != 0, 'NO_LIQUIDITY');\r\n        require(lastMoveInfo.block != block.number, 'CANT_CALL_ON_THE_SAME_BLOCK');\r\n        require((_poolID < pools.length) && (_poolID != poolID), 'BAD_POOL_ID');\r\n\r\n        PoolInfo memory currentPool = pools[poolID];\r\n        PoolInfo memory newPool = pools[_poolID];\r\n\r\n        (uint256 _totalDeposits,,) = currentPool.assetRouter.userStake(address(this), currentPool.pool);\r\n        currentPool.assetRouter.withdraw(currentPool.pool, _totalDeposits, 0, 0, address(this));\r\n\r\n        uint256 tokenABalance = currentPool.tokenA.balanceOf(address(this));\r\n        uint256 tokenBBalance = currentPool.tokenB.balanceOf(address(this));\r\n\r\n        if(currentPool.tokenA != newPool.tokenA){\r\n            (\r\n                IOdosRouter.inputToken[] memory inputs, \r\n                IOdosRouter.outputToken[] memory outputs, \r\n                ,\r\n                uint256 valueOutMin,\r\n                address executor,\r\n                bytes memory pathDefinition\r\n            ) = abi.decode(swapAData[4:], (IOdosRouter.inputToken[],IOdosRouter.outputToken[],uint256,uint256,address,bytes));\r\n\r\n            require((inputs.length == 1) && (outputs.length == 1), 'BAD_SWAP_A_TOKENS_LENGTH');\r\n            require(inputs[0].tokenAddress == address(currentPool.tokenA), 'BAD_SWAP_A_INPUT_TOKEN');\r\n            require(outputs[0].tokenAddress == address(newPool.tokenA), 'BAD_SWAP_A_OUTPUT_TOKEN');\r\n\r\n            inputs[0].amountIn = tokenABalance;\r\n            OdosRouter.swap(inputs, outputs, type(uint256).max, valueOutMin, executor, pathDefinition);\r\n        }\r\n\r\n        if(currentPool.tokenB != newPool.tokenB){\r\n            (\r\n                IOdosRouter.inputToken[] memory inputs,\r\n                IOdosRouter.outputToken[] memory outputs,\r\n                ,\r\n                uint256 valueOutMin,\r\n                address executor,\r\n                bytes memory pathDefinition\r\n            ) = abi.decode(swapBData[4:], (IOdosRouter.inputToken[],IOdosRouter.outputToken[],uint256,uint256,address,bytes));\r\n\r\n            require((inputs.length == 1) && (outputs.length == 1), 'BAD_SWAP_B_TOKENS_LENGTH');\r\n            require(inputs[0].tokenAddress == address(currentPool.tokenB), 'BAD_SWAP_B_INPUT_TOKEN');\r\n            require(outputs[0].tokenAddress == address(newPool.tokenB), 'BAD_SWAP_B_OUTPUT_TOKEN');\r\n\r\n            inputs[0].amountIn = tokenBBalance;\r\n            OdosRouter.swap(inputs, outputs, type(uint256).max, valueOutMin, executor, pathDefinition);\r\n        }\r\n        \r\n        (,,reserveLP) = newPool.assetRouter.deposit(newPool.pool, newPool.tokenA.balanceOf(address(this)), newPool.tokenB.balanceOf(address(this)), amountAMin, amountBMin, address(this));\r\n       \r\n        lastMoveInfo = MoveLiquidityInfo({\r\n            leftoverA: newPool.tokenA.balanceOf(address(this)),\r\n            leftoverB: newPool.tokenB.balanceOf(address(this)),\r\n            totalSupply: totalSupply(),\r\n            block: block.number\r\n        });\r\n\r\n        emit MoveLiquidity(poolID, _poolID); \r\n        poolID = _poolID;\r\n    }\r\n\r\n    /**\r\n     * @dev Returns tokens staked by the {_address}. \r\n     * @param _address - The address to check stakes for.\r\n\r\n     * @return stakeA - Token A stake.\r\n     * @return stakeB - Token B stake.\r\n     * @return leftoverA - Token A Leftovers obligated to the {_address} after moveLiquidity() function call.\r\n     * @return leftoverB - Token B Leftovers obligated to the {_address} after moveLiquidity() function call.\r\n     */\r\n    function userStake(address _address) external view returns (uint256 stakeA, uint256 stakeB, uint256 leftoverA, uint256 leftoverB) {\r\n        PoolInfo memory pool = pools[poolID];\r\n        (, uint256 balanceA, uint256 balanceB) = pool.assetRouter.userStake(address(this), pool.pool);\r\n\r\n        uint256 _balance = balanceOf(_address);\r\n        if(_balance != 0){\r\n            uint256 _totalSupply = totalSupply();\r\n            stakeA = _balance * balanceA / _totalSupply; \r\n            stakeB = _balance * balanceB / _totalSupply; \r\n            if((!leftoversCollected[msg.sender][lastMoveInfo.block]) && (lastMoveInfo.totalSupply != 0)){\r\n                leftoverA = (_balance - blockedLiquidty[_address][lastMoveInfo.block]) * lastMoveInfo.leftoverA / lastMoveInfo.totalSupply;\r\n                leftoverB = (_balance - blockedLiquidty[_address][lastMoveInfo.block]) * lastMoveInfo.leftoverB / lastMoveInfo.totalSupply;\r\n            }\r\n        }\r\n    }\r\n        \r\n    /**\r\n     * @dev Returns total amount locked in the pool. \r\n     * @return totalDepositsA - Token A deposits.\r\n     * @return totalDepositsB - Token B deposits.\r\n     */     \r\n    function totalDeposits() external view returns(uint256 totalDepositsA, uint256 totalDepositsB){\r\n        PoolInfo memory pool = pools[poolID];\r\n        (, totalDepositsA, totalDepositsB) = pool.assetRouter.userStake(address(this), pool.pool);\r\n\r\n        // Add leftover tokens.\r\n        totalDepositsA += pool.tokenA.balanceOf(address(this));\r\n        totalDepositsB += pool.tokenB.balanceOf(address(this));\r\n    }\r\n\r\n    /**\r\n     * @dev Returns the number of pools in the strategy. \r\n     */\r\n    function poolsLength() external view returns(uint256){\r\n        return pools.length;\r\n    }\r\n\r\n    /**\r\n     * @dev Returns pair of tokens currently in use. \r\n     */\r\n    function tokens() external view returns(address, address){\r\n        PoolInfo memory pool = pools[poolID];\r\n        return (address(pool.tokenA), address(pool.tokenB));\r\n    }\r\n\r\n    function mint(address to) internal returns (uint256 liquidity){\r\n        PoolInfo memory pool = pools[poolID];\r\n        (uint256 balanceLP,,) = pool.assetRouter.userStake(address(this), pool.pool);\r\n        uint256 amountLP = balanceLP - reserveLP;\r\n\r\n        uint256 _totalSupply = totalSupply();\r\n        if (_totalSupply == 0) {\r\n            liquidity = amountLP - MINIMUM_LIQUIDITY;\r\n            _mint(address(1), MINIMUM_LIQUIDITY);\r\n        } else {\r\n            liquidity = amountLP * _totalSupply / reserveLP;\r\n        }\r\n\r\n        require(liquidity > 0, 'INSUFFICIENT_LIQUIDITY_MINTED');\r\n        _mint(to, liquidity);\r\n\r\n        reserveLP = balanceLP;\r\n    }\r\n\r\n    function burn(uint256 liquidity) internal returns (uint256 amountLP) {\r\n        PoolInfo memory pool = pools[poolID];\r\n        (uint256 balanceLP,,) = pool.assetRouter.userStake(address(this), pool.pool);\r\n\r\n        amountLP = liquidity * balanceLP / totalSupply(); \r\n        require(amountLP > 0, 'INSUFFICIENT_LIQUIDITY_BURNED');\r\n        _burn(msg.sender, liquidity);\r\n\r\n        reserveLP = balanceLP - amountLP;\r\n    }\r\n\r\n    function _beforeTokenTransfer(address from, address to, uint256 amount) internal virtual override {\r\n        super._beforeTokenTransfer(from, to, amount);\r\n\r\n        // Decrease blockedLiquidty from {from} address, but no less then 0.\r\n        if(amount > blockedLiquidty[from][lastMoveInfo.block]){\r\n            blockedLiquidty[from][lastMoveInfo.block] = 0;\r\n        } else {\r\n            blockedLiquidty[from][lastMoveInfo.block] -= amount;\r\n        }\r\n        // Block {to} address from withdrawing their share of leftover tokens immediately.\r\n        blockedLiquidty[to][lastMoveInfo.block] += amount;\r\n    }\r\n}",
  "sourcePath": "C:\\Users\\jugli\\Desktop\\uno\\uno-contracts\\contracts\\test\\UnoAutoStrategyV0.sol",
  "compiler": {
    "name": "solc",
    "version": "0.8.19+commit.7dd6d404.Emscripten.clang"
  },
  "schemaVersion": "3.4.16",
  "updatedAt": "2023-09-29T14:59:48.495Z",
  "devdoc": {
    "events": {
      "Approval(address,address,uint256)": {
        "details": "Emitted when the allowance of a `spender` for an `owner` is set by a call to {approve}. `value` is the new allowance."
      },
      "Initialized(uint8)": {
        "details": "Triggered when the contract has been initialized or reinitialized."
      },
      "Transfer(address,address,uint256)": {
        "details": "Emitted when `value` tokens are moved from one account (`from`) to another (`to`). Note that `value` may be zero."
      }
    },
    "kind": "dev",
    "methods": {
      "allowance(address,address)": {
        "details": "See {IERC20-allowance}."
      },
      "approve(address,uint256)": {
        "details": "See {IERC20-approve}. NOTE: If `amount` is the maximum `uint256`, the allowance is not updated on `transferFrom`. This is semantically equivalent to an infinite approval. Requirements: - `spender` cannot be the zero address."
      },
      "balanceOf(address)": {
        "details": "See {IERC20-balanceOf}."
      },
      "decimals()": {
        "details": "Returns the number of decimals used to get its user representation. For example, if `decimals` equals `2`, a balance of `505` tokens should be displayed to a user as `5.05` (`505 / 10 ** 2`). Tokens usually opt for a value of 18, imitating the relationship between Ether and Wei. This is the default value returned by this function, unless it's overridden. NOTE: This information is only used for _display_ purposes: it in no way affects any of the arithmetic of the contract, including {IERC20-balanceOf} and {IERC20-transfer}."
      },
      "decreaseAllowance(address,uint256)": {
        "details": "Atomically decreases the allowance granted to `spender` by the caller. This is an alternative to {approve} that can be used as a mitigation for problems described in {IERC20-approve}. Emits an {Approval} event indicating the updated allowance. Requirements: - `spender` cannot be the zero address. - `spender` must have allowance for the caller of at least `subtractedValue`."
      },
      "deposit(uint256,uint256,uint256,uint256,uint256,address)": {
        "details": "Deposits tokens in the pools[poolID] pool. Mints tokens representing user share. Emits {Deposit} event.",
        "params": {
          "amountA": "- Token A amount to deposit.",
          "amountAMin": "- Bounds the extent to which the B/A price can go up before the transaction reverts.",
          "amountB": "- Token B amount to deposit.",
          "amountBMin": "- Bounds the extent to which the A/B price can go up before the transaction reverts.",
          "pid": "- Current poolID. Throws revert if moveLiquidity() has been called before the transaction has been mined.",
          "recipient": "- Address which will receive the deposit."
        },
        "returns": {
          "liquidity": "- Total liquidity minted for the {recipient}.",
          "sentA": "- Deposited token A amount.",
          "sentB": "- Deposited token B amount."
        }
      },
      "depositETH(uint256,uint256,uint256,uint256,address)": {
        "details": "Deposits tokens in the pools[poolID] pool. Mints tokens representing user share. Emits {Deposit} event.",
        "params": {
          "amountETHMin": "- Bounds the extent to which the WMATIC/TOKEN price can go up before the transaction reverts.",
          "amountToken": "- Token amount to deposit.",
          "amountTokenMin": "- Bounds the extent to which the TOKEN/WMATIC price can go up before the transaction reverts.",
          "pid": "- Current poolID. Throws revert if moveLiquidity() has been called before the transaction has been mined.",
          "recipient": "- Address which will receive the deposit."
        },
        "returns": {
          "liquidity": "- Total liquidity minted for the {recipient}.",
          "sentETH": "- Deposited ETH amount.",
          "sentToken": "- Deposited token amount."
        }
      },
      "increaseAllowance(address,uint256)": {
        "details": "Atomically increases the allowance granted to `spender` by the caller. This is an alternative to {approve} that can be used as a mitigation for problems described in {IERC20-approve}. Emits an {Approval} event indicating the updated allowance. Requirements: - `spender` cannot be the zero address."
      },
      "moveLiquidity(uint256,bytes,bytes,uint256,uint256)": {
        "details": "Moves liquidity from {pools[poolID]} to {pools[_poolID]}. Emits {MoveLiquidity} event.",
        "params": {
          "_poolID": "- Pool ID to move liquidity to.",
          "amountAMin": "- The minimum amount of tokenA that must be deposited in {pools[_poolID]} for the transaction not to revert.",
          "amountBMin": "- The minimum amount of tokenB that must be deposited in {pools[_poolID]} for the transaction not to revert. Note: This function can only be called by LiquidityManager.",
          "swapAData": "- Data for tokenA swap.",
          "swapBData": "- Data for tokenB swap."
        }
      },
      "name()": {
        "details": "Returns the name of the token."
      },
      "poolsLength()": {
        "details": "Returns the number of pools in the strategy. "
      },
      "symbol()": {
        "details": "Returns the symbol of the token, usually a shorter version of the name."
      },
      "tokens()": {
        "details": "Returns pair of tokens currently in use. "
      },
      "totalDeposits()": {
        "details": "Returns total amount locked in the pool. ",
        "returns": {
          "totalDepositsA": "- Token A deposits.",
          "totalDepositsB": "- Token B deposits."
        }
      },
      "totalSupply()": {
        "details": "See {IERC20-totalSupply}."
      },
      "transfer(address,uint256)": {
        "details": "See {IERC20-transfer}. Requirements: - `to` cannot be the zero address. - the caller must have a balance of at least `amount`."
      },
      "transferFrom(address,address,uint256)": {
        "details": "See {IERC20-transferFrom}. Emits an {Approval} event indicating the updated allowance. This is not required by the EIP. See the note at the beginning of {ERC20}. NOTE: Does not update the allowance if the current allowance is the maximum `uint256`. Requirements: - `from` and `to` cannot be the zero address. - `from` must have a balance of at least `amount`. - the caller must have allowance for ``from``'s tokens of at least `amount`."
      },
      "userStake(address)": {
        "details": "Returns tokens staked by the {_address}. ",
        "params": {
          "_address": "- The address to check stakes for."
        },
        "returns": {
          "leftoverA": "- Token A Leftovers obligated to the {_address} after moveLiquidity() function call.",
          "leftoverB": "- Token B Leftovers obligated to the {_address} after moveLiquidity() function call.",
          "stakeA": "- Token A stake.",
          "stakeB": "- Token B stake."
        }
      },
      "withdraw(uint256,uint256,uint256,uint256,address)": {
        "details": "Withdraws tokens from the {pools[poolID]} pool and sends them to the recipient. Burns tokens representing user share. Emits {Withdraw} event.",
        "params": {
          "amountAMin": "- The minimum amount of tokenA that must be received from the pool for the transaction not to revert.",
          "amountBMin": "- The minimum amount of tokenB that must be received from the pool for the transaction not to revert.",
          "liquidity": "- Liquidity to burn from this user.",
          "pid": "- Current poolID. Throws revert if moveLiquidity() has been called before the transaction has been mined.",
          "recipient": "- Address which will receive withdrawn tokens."
        },
        "returns": {
          "amountA": "- Token A amount sent to the {recipient}.",
          "amountB": "- Token B amount sent to the {recipient}."
        }
      },
      "withdrawETH(uint256,uint256,uint256,uint256,address)": {
        "details": "Withdraws tokens from the {pools[poolID]} pool and sends them to the recipient. Burns tokens representing user share. Emits {Withdraw} event.",
        "params": {
          "amountETHMin": "- The minimum amount of tokenB that must be received from the pool for the transaction not to revert.",
          "amountTokenMin": "- The minimum amount of tokenA that must be received from the pool for the transaction not to revert.",
          "liquidity": "- Liquidity to burn from this user.",
          "pid": "- Current poolID. Throws revert if moveLiquidity() has been called before the transaction has been mined.",
          "recipient": "- Address which will receive withdrawn tokens."
        },
        "returns": {
          "amountETH": "- MATIC amount sent to the {recipient}.",
          "amountToken": "- Token amount sent to the {recipient}."
        }
      }
    },
    "stateVariables": {
      "OdosRouter": {
        "details": "Contract Variables: {OdosRouter} - Contract that executes swaps. {poolID} - Current pool the strategy uses ({pools} index). {pools} - Pools this strategy can use and move liquidity to. {reserveLP} - LP token reserve. {lastMoveInfo} - Info on last MoveLiquidity() block. {blockedLiquidty} - User's blocked LP tokens. Prevents user from stealing leftover tokens by depositing and exiting before moveLiquidity() has been called. {leftoversCollected} - Flag that prevents leftover token collection if they were already collected this MoveLiquidity() cycle. {accessManager} - Role manager contract. {factory} - The address of AutoStrategyFactory this contract was deployed by. {MINIMUM_LIQUIDITY} - Ameliorates rounding errors."
      }
    },
    "version": 1
  },
  "userdoc": {
    "kind": "user",
    "methods": {},
    "version": 1
  }
}