{
  "contractName": "UnoAutoStrategy",
  "abi": [
    {
      "inputs": [],
      "name": "BAD_POOL_COUNT",
      "type": "error"
    },
    {
      "inputs": [],
      "name": "BAD_POOL_ID",
      "type": "error"
    },
    {
      "inputs": [],
      "name": "BAD_SWAP_A",
      "type": "error"
    },
    {
      "inputs": [],
      "name": "BAD_SWAP_B",
      "type": "error"
    },
    {
      "inputs": [],
      "name": "CALLER_NOT_LIQUIDITY_MANAGER",
      "type": "error"
    },
    {
      "inputs": [],
      "name": "CANT_CALL_ON_THE_SAME_BLOCK",
      "type": "error"
    },
    {
      "inputs": [],
      "name": "INSUFFICIENT_LIQUIDITY",
      "type": "error"
    },
    {
      "inputs": [],
      "name": "NO_LIQUIDITY",
      "type": "error"
    },
    {
      "inputs": [],
      "name": "PAUSED",
      "type": "error"
    },
    {
      "anonymous": false,
      "inputs": [
        {
          "indexed": true,
          "internalType": "address",
          "name": "owner",
          "type": "address"
        },
        {
          "indexed": true,
          "internalType": "address",
          "name": "spender",
          "type": "address"
        },
        {
          "indexed": false,
          "internalType": "uint256",
          "name": "value",
          "type": "uint256"
        }
      ],
      "name": "Approval",
      "type": "event"
    },
    {
      "anonymous": false,
      "inputs": [
        {
          "indexed": true,
          "internalType": "address",
          "name": "recipient",
          "type": "address"
        },
        {
          "indexed": false,
          "internalType": "uint256",
          "name": "fee",
          "type": "uint256"
        }
      ],
      "name": "CollectFee",
      "type": "event"
    },
    {
      "anonymous": false,
      "inputs": [
        {
          "indexed": true,
          "internalType": "uint256",
          "name": "poolID",
          "type": "uint256"
        },
        {
          "indexed": true,
          "internalType": "address",
          "name": "from",
          "type": "address"
        },
        {
          "indexed": true,
          "internalType": "address",
          "name": "recipient",
          "type": "address"
        },
        {
          "indexed": false,
          "internalType": "uint256",
          "name": "amountLP",
          "type": "uint256"
        }
      ],
      "name": "Deposit",
      "type": "event"
    },
    {
      "anonymous": false,
      "inputs": [
        {
          "indexed": true,
          "internalType": "uint256",
          "name": "poolID",
          "type": "uint256"
        },
        {
          "indexed": false,
          "internalType": "uint256",
          "name": "amountA",
          "type": "uint256"
        },
        {
          "indexed": false,
          "internalType": "uint256",
          "name": "amountB",
          "type": "uint256"
        }
      ],
      "name": "DepositPairTokens",
      "type": "event"
    },
    {
      "anonymous": false,
      "inputs": [
        {
          "indexed": true,
          "internalType": "uint256",
          "name": "poolID",
          "type": "uint256"
        },
        {
          "indexed": false,
          "internalType": "uint256",
          "name": "amountToken",
          "type": "uint256"
        },
        {
          "indexed": false,
          "internalType": "uint256",
          "name": "amountETH",
          "type": "uint256"
        }
      ],
      "name": "DepositPairTokensETH",
      "type": "event"
    },
    {
      "anonymous": false,
      "inputs": [
        {
          "indexed": true,
          "internalType": "uint256",
          "name": "poolID",
          "type": "uint256"
        },
        {
          "indexed": false,
          "internalType": "uint256",
          "name": "amountETH",
          "type": "uint256"
        }
      ],
      "name": "DepositSingleETH",
      "type": "event"
    },
    {
      "anonymous": false,
      "inputs": [
        {
          "indexed": true,
          "internalType": "uint256",
          "name": "poolID",
          "type": "uint256"
        },
        {
          "indexed": true,
          "internalType": "address",
          "name": "token",
          "type": "address"
        },
        {
          "indexed": false,
          "internalType": "uint256",
          "name": "amount",
          "type": "uint256"
        }
      ],
      "name": "DepositSingleToken",
      "type": "event"
    },
    {
      "anonymous": false,
      "inputs": [
        {
          "indexed": false,
          "internalType": "uint8",
          "name": "version",
          "type": "uint8"
        }
      ],
      "name": "Initialized",
      "type": "event"
    },
    {
      "anonymous": false,
      "inputs": [
        {
          "indexed": true,
          "internalType": "uint256",
          "name": "previousPoolID",
          "type": "uint256"
        },
        {
          "indexed": true,
          "internalType": "uint256",
          "name": "nextPoolID",
          "type": "uint256"
        }
      ],
      "name": "MoveLiquidity",
      "type": "event"
    },
    {
      "anonymous": false,
      "inputs": [
        {
          "indexed": true,
          "internalType": "address",
          "name": "from",
          "type": "address"
        },
        {
          "indexed": true,
          "internalType": "address",
          "name": "to",
          "type": "address"
        },
        {
          "indexed": false,
          "internalType": "uint256",
          "name": "value",
          "type": "uint256"
        }
      ],
      "name": "Transfer",
      "type": "event"
    },
    {
      "anonymous": false,
      "inputs": [
        {
          "indexed": true,
          "internalType": "uint256",
          "name": "poolID",
          "type": "uint256"
        },
        {
          "indexed": true,
          "internalType": "address",
          "name": "from",
          "type": "address"
        },
        {
          "indexed": true,
          "internalType": "address",
          "name": "recipient",
          "type": "address"
        },
        {
          "indexed": false,
          "internalType": "uint256",
          "name": "amountLP",
          "type": "uint256"
        }
      ],
      "name": "Withdraw",
      "type": "event"
    },
    {
      "anonymous": false,
      "inputs": [
        {
          "indexed": true,
          "internalType": "uint256",
          "name": "poolID",
          "type": "uint256"
        },
        {
          "indexed": false,
          "internalType": "uint256",
          "name": "amountA",
          "type": "uint256"
        },
        {
          "indexed": false,
          "internalType": "uint256",
          "name": "amountB",
          "type": "uint256"
        }
      ],
      "name": "WithdrawPairTokens",
      "type": "event"
    },
    {
      "anonymous": false,
      "inputs": [
        {
          "indexed": true,
          "internalType": "uint256",
          "name": "poolID",
          "type": "uint256"
        },
        {
          "indexed": false,
          "internalType": "uint256",
          "name": "amountToken",
          "type": "uint256"
        },
        {
          "indexed": false,
          "internalType": "uint256",
          "name": "amountETH",
          "type": "uint256"
        }
      ],
      "name": "WithdrawPairTokensETH",
      "type": "event"
    },
    {
      "anonymous": false,
      "inputs": [
        {
          "indexed": true,
          "internalType": "uint256",
          "name": "poolID",
          "type": "uint256"
        },
        {
          "indexed": false,
          "internalType": "uint256",
          "name": "amountETH",
          "type": "uint256"
        },
        {
          "indexed": false,
          "internalType": "uint256",
          "name": "amountA",
          "type": "uint256"
        },
        {
          "indexed": false,
          "internalType": "uint256",
          "name": "amountB",
          "type": "uint256"
        }
      ],
      "name": "WithdrawSingleETH",
      "type": "event"
    },
    {
      "anonymous": false,
      "inputs": [
        {
          "indexed": true,
          "internalType": "uint256",
          "name": "poolID",
          "type": "uint256"
        },
        {
          "indexed": true,
          "internalType": "address",
          "name": "token",
          "type": "address"
        },
        {
          "indexed": false,
          "internalType": "uint256",
          "name": "amount",
          "type": "uint256"
        },
        {
          "indexed": false,
          "internalType": "uint256",
          "name": "amountA",
          "type": "uint256"
        },
        {
          "indexed": false,
          "internalType": "uint256",
          "name": "amountB",
          "type": "uint256"
        }
      ],
      "name": "WithdrawSingleToken",
      "type": "event"
    },
    {
      "inputs": [],
      "name": "WBNB",
      "outputs": [
        {
          "internalType": "address",
          "name": "",
          "type": "address"
        }
      ],
      "stateMutability": "view",
      "type": "function"
    },
    {
      "inputs": [],
      "name": "accessManager",
      "outputs": [
        {
          "internalType": "contract IUnoAccessManager",
          "name": "",
          "type": "address"
        }
      ],
      "stateMutability": "view",
      "type": "function"
    },
    {
      "inputs": [
        {
          "internalType": "address",
          "name": "owner",
          "type": "address"
        },
        {
          "internalType": "address",
          "name": "spender",
          "type": "address"
        }
      ],
      "name": "allowance",
      "outputs": [
        {
          "internalType": "uint256",
          "name": "",
          "type": "uint256"
        }
      ],
      "stateMutability": "view",
      "type": "function"
    },
    {
      "inputs": [
        {
          "internalType": "address",
          "name": "spender",
          "type": "address"
        },
        {
          "internalType": "uint256",
          "name": "amount",
          "type": "uint256"
        }
      ],
      "name": "approve",
      "outputs": [
        {
          "internalType": "bool",
          "name": "",
          "type": "bool"
        }
      ],
      "stateMutability": "nonpayable",
      "type": "function"
    },
    {
      "inputs": [
        {
          "internalType": "address",
          "name": "account",
          "type": "address"
        }
      ],
      "name": "balanceOf",
      "outputs": [
        {
          "internalType": "uint256",
          "name": "",
          "type": "uint256"
        }
      ],
      "stateMutability": "view",
      "type": "function"
    },
    {
      "inputs": [],
      "name": "decimals",
      "outputs": [
        {
          "internalType": "uint8",
          "name": "",
          "type": "uint8"
        }
      ],
      "stateMutability": "view",
      "type": "function"
    },
    {
      "inputs": [
        {
          "internalType": "address",
          "name": "spender",
          "type": "address"
        },
        {
          "internalType": "uint256",
          "name": "subtractedValue",
          "type": "uint256"
        }
      ],
      "name": "decreaseAllowance",
      "outputs": [
        {
          "internalType": "bool",
          "name": "",
          "type": "bool"
        }
      ],
      "stateMutability": "nonpayable",
      "type": "function"
    },
    {
      "inputs": [],
      "name": "factory",
      "outputs": [
        {
          "internalType": "contract IUnoAutoStrategyFactory",
          "name": "",
          "type": "address"
        }
      ],
      "stateMutability": "view",
      "type": "function"
    },
    {
      "inputs": [
        {
          "internalType": "address",
          "name": "spender",
          "type": "address"
        },
        {
          "internalType": "uint256",
          "name": "addedValue",
          "type": "uint256"
        }
      ],
      "name": "increaseAllowance",
      "outputs": [
        {
          "internalType": "bool",
          "name": "",
          "type": "bool"
        }
      ],
      "stateMutability": "nonpayable",
      "type": "function"
    },
    {
      "inputs": [],
      "name": "name",
      "outputs": [
        {
          "internalType": "string",
          "name": "",
          "type": "string"
        }
      ],
      "stateMutability": "view",
      "type": "function"
    },
    {
      "inputs": [],
      "name": "poolID",
      "outputs": [
        {
          "internalType": "uint256",
          "name": "",
          "type": "uint256"
        }
      ],
      "stateMutability": "view",
      "type": "function"
    },
    {
      "inputs": [
        {
          "internalType": "uint256",
          "name": "",
          "type": "uint256"
        }
      ],
      "name": "pools",
      "outputs": [
        {
          "internalType": "address",
          "name": "pool",
          "type": "address"
        },
        {
          "internalType": "contract IUnoAssetRouter",
          "name": "assetRouter",
          "type": "address"
        },
        {
          "internalType": "contract IERC20Upgradeable",
          "name": "tokenA",
          "type": "address"
        },
        {
          "internalType": "contract IERC20Upgradeable",
          "name": "tokenB",
          "type": "address"
        }
      ],
      "stateMutability": "view",
      "type": "function"
    },
    {
      "inputs": [],
      "name": "symbol",
      "outputs": [
        {
          "internalType": "string",
          "name": "",
          "type": "string"
        }
      ],
      "stateMutability": "view",
      "type": "function"
    },
    {
      "inputs": [
        {
          "internalType": "address",
          "name": "to",
          "type": "address"
        },
        {
          "internalType": "uint256",
          "name": "amount",
          "type": "uint256"
        }
      ],
      "name": "transfer",
      "outputs": [
        {
          "internalType": "bool",
          "name": "",
          "type": "bool"
        }
      ],
      "stateMutability": "nonpayable",
      "type": "function"
    },
    {
      "inputs": [
        {
          "internalType": "address",
          "name": "from",
          "type": "address"
        },
        {
          "internalType": "address",
          "name": "to",
          "type": "address"
        },
        {
          "internalType": "uint256",
          "name": "amount",
          "type": "uint256"
        }
      ],
      "name": "transferFrom",
      "outputs": [
        {
          "internalType": "bool",
          "name": "",
          "type": "bool"
        }
      ],
      "stateMutability": "nonpayable",
      "type": "function"
    },
    {
      "stateMutability": "payable",
      "type": "receive"
    },
    {
      "inputs": [
        {
          "components": [
            {
              "internalType": "address",
              "name": "pool",
              "type": "address"
            },
            {
              "internalType": "contract IUnoAssetRouter",
              "name": "assetRouter",
              "type": "address"
            }
          ],
          "internalType": "struct UnoAutoStrategy._PoolInfo[]",
          "name": "poolInfos",
          "type": "tuple[]"
        },
        {
          "internalType": "contract IUnoAccessManager",
          "name": "_accessManager",
          "type": "address"
        }
      ],
      "name": "initialize",
      "outputs": [],
      "stateMutability": "nonpayable",
      "type": "function"
    },
    {
      "inputs": [
        {
          "internalType": "uint256",
          "name": "pid",
          "type": "uint256"
        },
        {
          "internalType": "uint256",
          "name": "amountA",
          "type": "uint256"
        },
        {
          "internalType": "uint256",
          "name": "amountB",
          "type": "uint256"
        },
        {
          "internalType": "uint256",
          "name": "amountAMin",
          "type": "uint256"
        },
        {
          "internalType": "uint256",
          "name": "amountBMin",
          "type": "uint256"
        },
        {
          "internalType": "address",
          "name": "recipient",
          "type": "address"
        },
        {
          "internalType": "address",
          "name": "referrer",
          "type": "address"
        }
      ],
      "name": "deposit",
      "outputs": [
        {
          "internalType": "uint256",
          "name": "sentA",
          "type": "uint256"
        },
        {
          "internalType": "uint256",
          "name": "sentB",
          "type": "uint256"
        },
        {
          "internalType": "uint256",
          "name": "liquidity",
          "type": "uint256"
        }
      ],
      "stateMutability": "nonpayable",
      "type": "function"
    },
    {
      "inputs": [
        {
          "internalType": "uint256",
          "name": "pid",
          "type": "uint256"
        },
        {
          "internalType": "uint256",
          "name": "amountToken",
          "type": "uint256"
        },
        {
          "internalType": "uint256",
          "name": "amountTokenMin",
          "type": "uint256"
        },
        {
          "internalType": "uint256",
          "name": "amountETHMin",
          "type": "uint256"
        },
        {
          "internalType": "address",
          "name": "recipient",
          "type": "address"
        },
        {
          "internalType": "address",
          "name": "referrer",
          "type": "address"
        }
      ],
      "name": "depositETH",
      "outputs": [
        {
          "internalType": "uint256",
          "name": "sentToken",
          "type": "uint256"
        },
        {
          "internalType": "uint256",
          "name": "sentETH",
          "type": "uint256"
        },
        {
          "internalType": "uint256",
          "name": "liquidity",
          "type": "uint256"
        }
      ],
      "stateMutability": "payable",
      "type": "function"
    },
    {
      "inputs": [
        {
          "internalType": "uint256",
          "name": "pid",
          "type": "uint256"
        },
        {
          "internalType": "address",
          "name": "token",
          "type": "address"
        },
        {
          "internalType": "uint256",
          "name": "amount",
          "type": "uint256"
        },
        {
          "internalType": "bytes[2]",
          "name": "swapData",
          "type": "bytes[2]"
        },
        {
          "internalType": "uint256",
          "name": "amountAMin",
          "type": "uint256"
        },
        {
          "internalType": "uint256",
          "name": "amountBMin",
          "type": "uint256"
        },
        {
          "internalType": "address",
          "name": "recipient",
          "type": "address"
        },
        {
          "internalType": "address",
          "name": "referrer",
          "type": "address"
        }
      ],
      "name": "depositSingleAsset",
      "outputs": [
        {
          "internalType": "uint256",
          "name": "sent",
          "type": "uint256"
        },
        {
          "internalType": "uint256",
          "name": "liquidity",
          "type": "uint256"
        }
      ],
      "stateMutability": "nonpayable",
      "type": "function"
    },
    {
      "inputs": [
        {
          "internalType": "uint256",
          "name": "pid",
          "type": "uint256"
        },
        {
          "internalType": "bytes[2]",
          "name": "swapData",
          "type": "bytes[2]"
        },
        {
          "internalType": "uint256",
          "name": "amountAMin",
          "type": "uint256"
        },
        {
          "internalType": "uint256",
          "name": "amountBMin",
          "type": "uint256"
        },
        {
          "internalType": "address",
          "name": "recipient",
          "type": "address"
        },
        {
          "internalType": "address",
          "name": "referrer",
          "type": "address"
        }
      ],
      "name": "depositSingleETH",
      "outputs": [
        {
          "internalType": "uint256",
          "name": "sentETH",
          "type": "uint256"
        },
        {
          "internalType": "uint256",
          "name": "liquidity",
          "type": "uint256"
        }
      ],
      "stateMutability": "payable",
      "type": "function"
    },
    {
      "inputs": [
        {
          "internalType": "uint256",
          "name": "pid",
          "type": "uint256"
        },
        {
          "internalType": "uint256",
          "name": "liquidity",
          "type": "uint256"
        },
        {
          "internalType": "uint256",
          "name": "amountAMin",
          "type": "uint256"
        },
        {
          "internalType": "uint256",
          "name": "amountBMin",
          "type": "uint256"
        },
        {
          "internalType": "address",
          "name": "recipient",
          "type": "address"
        }
      ],
      "name": "withdraw",
      "outputs": [
        {
          "internalType": "uint256",
          "name": "amountA",
          "type": "uint256"
        },
        {
          "internalType": "uint256",
          "name": "amountB",
          "type": "uint256"
        }
      ],
      "stateMutability": "nonpayable",
      "type": "function"
    },
    {
      "inputs": [
        {
          "internalType": "uint256",
          "name": "pid",
          "type": "uint256"
        },
        {
          "internalType": "uint256",
          "name": "liquidity",
          "type": "uint256"
        },
        {
          "internalType": "uint256",
          "name": "amountTokenMin",
          "type": "uint256"
        },
        {
          "internalType": "uint256",
          "name": "amountETHMin",
          "type": "uint256"
        },
        {
          "internalType": "address",
          "name": "recipient",
          "type": "address"
        }
      ],
      "name": "withdrawETH",
      "outputs": [
        {
          "internalType": "uint256",
          "name": "amountToken",
          "type": "uint256"
        },
        {
          "internalType": "uint256",
          "name": "amountETH",
          "type": "uint256"
        }
      ],
      "stateMutability": "nonpayable",
      "type": "function"
    },
    {
      "inputs": [
        {
          "internalType": "uint256",
          "name": "pid",
          "type": "uint256"
        },
        {
          "internalType": "uint256",
          "name": "liquidity",
          "type": "uint256"
        },
        {
          "internalType": "address",
          "name": "token",
          "type": "address"
        },
        {
          "internalType": "bytes[2]",
          "name": "swapData",
          "type": "bytes[2]"
        },
        {
          "internalType": "address",
          "name": "recipient",
          "type": "address"
        }
      ],
      "name": "withdrawSingleAsset",
      "outputs": [
        {
          "internalType": "uint256",
          "name": "amountToken",
          "type": "uint256"
        },
        {
          "internalType": "uint256",
          "name": "amountA",
          "type": "uint256"
        },
        {
          "internalType": "uint256",
          "name": "amountB",
          "type": "uint256"
        }
      ],
      "stateMutability": "nonpayable",
      "type": "function"
    },
    {
      "inputs": [
        {
          "internalType": "uint256",
          "name": "pid",
          "type": "uint256"
        },
        {
          "internalType": "uint256",
          "name": "liquidity",
          "type": "uint256"
        },
        {
          "internalType": "bytes[2]",
          "name": "swapData",
          "type": "bytes[2]"
        },
        {
          "internalType": "address",
          "name": "recipient",
          "type": "address"
        }
      ],
      "name": "withdrawSingleETH",
      "outputs": [
        {
          "internalType": "uint256",
          "name": "amountETH",
          "type": "uint256"
        },
        {
          "internalType": "uint256",
          "name": "amountA",
          "type": "uint256"
        },
        {
          "internalType": "uint256",
          "name": "amountB",
          "type": "uint256"
        }
      ],
      "stateMutability": "nonpayable",
      "type": "function"
    },
    {
      "inputs": [
        {
          "internalType": "uint256",
          "name": "_poolID",
          "type": "uint256"
        },
        {
          "internalType": "bytes",
          "name": "swapAData",
          "type": "bytes"
        },
        {
          "internalType": "bytes",
          "name": "swapBData",
          "type": "bytes"
        },
        {
          "internalType": "uint256",
          "name": "amountAMin",
          "type": "uint256"
        },
        {
          "internalType": "uint256",
          "name": "amountBMin",
          "type": "uint256"
        }
      ],
      "name": "moveLiquidity",
      "outputs": [],
      "stateMutability": "nonpayable",
      "type": "function"
    },
    {
      "inputs": [
        {
          "internalType": "address",
          "name": "_address",
          "type": "address"
        }
      ],
      "name": "userStake",
      "outputs": [
        {
          "internalType": "uint256",
          "name": "stakeA",
          "type": "uint256"
        },
        {
          "internalType": "uint256",
          "name": "stakeB",
          "type": "uint256"
        },
        {
          "internalType": "uint256",
          "name": "leftoverA",
          "type": "uint256"
        },
        {
          "internalType": "uint256",
          "name": "leftoverB",
          "type": "uint256"
        }
      ],
      "stateMutability": "view",
      "type": "function"
    },
    {
      "inputs": [],
      "name": "totalDeposits",
      "outputs": [
        {
          "internalType": "uint256",
          "name": "totalDepositsA",
          "type": "uint256"
        },
        {
          "internalType": "uint256",
          "name": "totalDepositsB",
          "type": "uint256"
        }
      ],
      "stateMutability": "view",
      "type": "function"
    },
    {
      "inputs": [],
      "name": "poolsLength",
      "outputs": [
        {
          "internalType": "uint256",
          "name": "",
          "type": "uint256"
        }
      ],
      "stateMutability": "view",
      "type": "function"
    },
    {
      "inputs": [],
      "name": "tokens",
      "outputs": [
        {
          "internalType": "address",
          "name": "",
          "type": "address"
        },
        {
          "internalType": "address",
          "name": "",
          "type": "address"
        }
      ],
      "stateMutability": "view",
      "type": "function"
    },
    {
      "inputs": [
        {
          "internalType": "address",
          "name": "referrer",
          "type": "address"
        }
      ],
      "name": "collectFee",
      "outputs": [
        {
          "internalType": "uint256",
          "name": "fee",
          "type": "uint256"
        }
      ],
      "stateMutability": "nonpayable",
      "type": "function"
    },
    {
      "inputs": [],
      "name": "totalSupply",
      "outputs": [
        {
          "internalType": "uint256",
          "name": "",
          "type": "uint256"
        }
      ],
      "stateMutability": "view",
      "type": "function"
    }
  ],
  "bytecode": "0x608060405234801561001057600080fd5b50615fc280620000216000396000f3fe6080604052600436106101dc5760003560e01c806370a0823111610102578063a457c2d711610095578063c45a015511610064578063c45a0155146105db578063d473a654146105fb578063dd62ed3e1461061b578063fdcb60681461063b57600080fd5b8063a457c2d714610535578063a9059cbb14610555578063ab500c2914610575578063ac4afa381461058857600080fd5b80638dd95002116100d15780638dd950021461049d5780639285dc0a146104dd57806395d89b41146104fd5780639d63848a1461051257600080fd5b806370a082311461041c57806374552fb6146104525780637d882097146104725780638d9344851461048757600080fd5b8063313ce5671161017a5780634f68aa12116101495780634f68aa121461037a578063668393c71461039a57806368e5585d146103bc57806369b59e75146103fc57600080fd5b8063313ce5671461030b57806339509351146103275780634c55999f146103475780634dcfc40b1461036757600080fd5b806318160ddd116101b657806318160ddd1461027e5780631c723b82146102a157806323b872dd146102d65780632716ae66146102f657600080fd5b806306fdde03146101e8578063095ea7b3146102135780631666768a1461024357600080fd5b366101e357005b600080fd5b3480156101f457600080fd5b506101fd61065b565b60405161020a9190614f7d565b60405180910390f35b34801561021f57600080fd5b5061023361022e366004614fa8565b6106ed565b604051901515815260200161020a565b34801561024f57600080fd5b5061026361025e366004614fd4565b610707565b6040805193845260208401929092529082015260600161020a565b34801561028a57600080fd5b506102936109f4565b60405190815260200161020a565b3480156102ad57600080fd5b506102c16102bc36600461503d565b610a1e565b6040805192835260208301919091520161020a565b3480156102e257600080fd5b506102336102f136600461508a565b610d60565b34801561030257600080fd5b50609854610293565b34801561031757600080fd5b506040516012815260200161020a565b34801561033357600080fd5b50610233610342366004614fa8565b610d86565b34801561035357600080fd5b506102636103623660046150dc565b610da8565b6102c1610375366004615145565b611057565b34801561038657600080fd5b506102636103953660046151c4565b6114fe565b3480156103a657600080fd5b506103ba6103b536600461526e565b6117a0565b005b3480156103c857600080fd5b506103dc6103d73660046152f6565b612252565b60408051948552602085019390935291830152606082015260800161020a565b34801561040857600080fd5b506102936104173660046152f6565b6125d3565b34801561042857600080fd5b506102936104373660046152f6565b6001600160a01b031660009081526033602052604090205490565b34801561045e57600080fd5b506103ba61046d366004615313565b61276b565b34801561047e57600080fd5b506102c1612e48565b34801561049357600080fd5b5061029360975481565b3480156104a957600080fd5b506104c573bb4cdb9cbd36b01bd1cbaebf2de08d9173bc095c81565b6040516001600160a01b03909116815260200161020a565b3480156104e957600080fd5b506102c16104f8366004615398565b613013565b34801561050957600080fd5b506101fd613524565b34801561051e57600080fd5b50610527613533565b60405161020a929190615435565b34801561054157600080fd5b50610233610550366004614fa8565b6135ad565b34801561056157600080fd5b50610233610570366004614fa8565b613633565b61026361058336600461544f565b613641565b34801561059457600080fd5b506105a86105a336600461548f565b61397c565b604080516001600160a01b039586168152938516602085015291841691830191909152909116606082015260800161020a565b3480156105e757600080fd5b5060a1546104c5906001600160a01b031681565b34801561060757600080fd5b506102c161061636600461503d565b6139c6565b34801561062757600080fd5b506102936106363660046154a8565b613c04565b34801561064757600080fd5b5060a0546104c5906001600160a01b031681565b60606036805461066a906154e1565b80601f0160208091040260200160405190810160405280929190818152602001828054610696906154e1565b80156106e35780601f106106b8576101008083540402835291602001916106e3565b820191906000526020600020905b8154815290600101906020018083116106c657829003601f168201915b5050505050905090565b6000336106fb818585613c2f565b60019150505b92915050565b600080600060a160009054906101000a90046001600160a01b03166001600160a01b0316635c975abb6040518163ffffffff1660e01b8152600401602060405180830381865afa15801561075f573d6000803e3d6000fd5b505050506040513d601f19601f820116820180604052508101906107839190615516565b156107a157604051632a6ab56360e21b815260040160405180910390fd5b600260655414156107cd5760405162461bcd60e51b81526004016107c490615538565b60405180910390fd5b60026065556097548a146107f45760405163d832ff5d60e01b815260040160405180910390fd5b600060986097548154811061080b5761080b61556f565b600091825260209182902060408051608081018252600490930290910180546001600160a01b039081168452600182015481169484019490945260028101548416918301829052600301549092166060820152915061086c9033308d613d53565b6060810151610886906001600160a01b031633308c613d53565b60208101518151604051633282f32f60e11b81526000926001600160a01b031691636505e65e916108c491908f908f908f908f903090600401615585565b6060604051808303816000875af11580156108e3573d6000803e3d6000fd5b505050506040513d601f19601f8201168201806040525081019061090791906155bd565b919650945090506109188787613dbe565b9250848b11156109455761094533610930878e615601565b60408501516001600160a01b03169190613ff5565b838a1115610970576109703361095b868d615601565b60608501516001600160a01b03169190613ff5565b60975460408051878152602081018790527fcf292c3ff7d54582b495c8f5feaf2d6a840141d3b45b762ce150ae9328c6a278910160405180910390a26097546040518281526001600160a01b038916913391600080516020615f6d8339815191529060200160405180910390a4505060016065819055509750975097945050505050565b6000670de0b6b3a764000060a454610a0c9190615618565b603554610a19919061563a565b905090565b60008060a160009054906101000a90046001600160a01b03166001600160a01b0316635c975abb6040518163ffffffff1660e01b8152600401602060405180830381865afa158015610a74573d6000803e3d6000fd5b505050506040513d601f19601f82011682018060405250810190610a989190615516565b15610ab657604051632a6ab56360e21b815260040160405180910390fd5b60026065541415610ad95760405162461bcd60e51b81526004016107c490615538565b60026065556097548714610b005760405163d832ff5d60e01b815260040160405180910390fd5b6000609860975481548110610b1757610b1761556f565b6000918252602080832060408051608081018252600490940290910180546001600160a01b0390811685526001820154811693850193909352600281015483169184019190915260030154166060820152915080610b748661402a565b915091506000610b838a6141c9565b6020850151855160405163deb03f4d60e01b81529293506001600160a01b039091169163deb03f4d91610bc09185908e908e908e90600401615652565b60408051808303816000875af1158015610bde573d6000803e3d6000fd5b505050506040513d601f19601f82011682018060405250810190610c029190615682565b604086015191975095506001600160a01b031673bb4cdb9cbd36b01bd1cbaebf2de08d9173bc095c1415610c4d57610c3a838661563a565b9450610c46828761563a565b9550610ccb565b60608401516001600160a01b031673bb4cdb9cbd36b01bd1cbaebf2de08d9173bc095c1415610c9357610c80838761563a565b9550610c8c828661563a565b9450610ccb565b60405162461bcd60e51b815260206004820152600d60248201526c1393d517d5d0939097d413d3d3609a1b60448201526064016107c4565b60975460408051888152602081018890527fec8ea790e053f644b6490a17d81267d813f466d779e36cd538c56166bfb650f991015b60405180910390a26097546040518281526001600160a01b0389169133917ffeb2000dca3e617cd6f3a8bbb63014bb54a124aac6ccbf73ee7229b4cd01f1209060200160405180910390a450506001606555509197909650945050505050565b600033610d6e85828561430f565b610d79858585614383565b60019150505b9392505050565b6000336106fb818585610d998383613c04565b610da3919061563a565b613c2f565b600080600060a160009054906101000a90046001600160a01b03166001600160a01b0316635c975abb6040518163ffffffff1660e01b8152600401602060405180830381865afa158015610e00573d6000803e3d6000fd5b505050506040513d601f19601f82011682018060405250810190610e249190615516565b15610e4257604051632a6ab56360e21b815260040160405180910390fd5b60026065541415610e655760405162461bcd60e51b81526004016107c490615538565b60026065556097548814610e8c5760405163d832ff5d60e01b815260040160405180910390fd5b6000609860975481548110610ea357610ea361556f565b6000918252602080832060408051608081018252600490940290910180546001600160a01b0390811685526001820154811693850193909352600281015483169184019190915260030154166060820152915080610f008761402a565b915091506000610f0f8b6141c9565b60208501518551604051630bc8957360e21b81529293506001600160a01b0390911691632f2255cc91610f4c9185908f908f908f9060040161573b565b6060604051808303816000875af1158015610f6b573d6000803e3d6000fd5b505050506040513d601f19601f82011682018060405250810190610f8f91906155bd565b91985096509450610fa0838761563a565b9550610fac828661563a565b609754604080518a8152602081018a90529081018390529196506001600160a01b038c16917f224f79ccea3bf3e63c7deb1d5fe4dbcfcad5f7ffa2468e47fb3692d3837a9bd59060600160405180910390a36097546040518281526001600160a01b038a169133917ffeb2000dca3e617cd6f3a8bbb63014bb54a124aac6ccbf73ee7229b4cd01f1209060200160405180910390a45050600160655550929891975095509350505050565b60008060a160009054906101000a90046001600160a01b03166001600160a01b0316635c975abb6040518163ffffffff1660e01b8152600401602060405180830381865afa1580156110ad573d6000803e3d6000fd5b505050506040513d601f19601f820116820180604052508101906110d19190615516565b156110ef57604051632a6ab56360e21b815260040160405180910390fd5b600260655414156111125760405162461bcd60e51b81526004016107c490615538565b600260655560975488146111395760405163d832ff5d60e01b815260040160405180910390fd5b60006098609754815481106111505761115061556f565b6000918252602080832060408051608081018252600494850290920180546001600160a01b0390811684526001820154811694840194909452600281015484168383018190526003909101549093166060830152516370a0823160e01b815230938101939093529350906370a0823190602401602060405180830381865afa1580156111e0573d6000803e3d6000fd5b505050506040513d601f19601f820116820180604052508101906112049190615780565b60608301516040516370a0823160e01b81523060048201529192506000916001600160a01b03909116906370a0823190602401602060405180830381865afa158015611254573d6000803e3d6000fd5b505050506040513d601f19601f820116820180604052508101906112789190615780565b9050600083602001516001600160a01b0316637d7956283486600001518e8e8e306040518763ffffffff1660e01b81526004016112b9959493929190615799565b604080518083038185885af11580156112d6573d6000803e3d6000fd5b50505050506040513d601f19601f820116820180604052508101906112fb9190615682565b909650905061130a8888613dbe565b9450336108fc61131a8834615601565b6040518115909202916000818181858888f19350505050158015611342573d6000803e3d6000fd5b5060408085015190516370a0823160e01b81523060048201526000916001600160a01b0316906370a0823190602401602060405180830381865afa15801561138e573d6000803e3d6000fd5b505050506040513d601f19601f820116820180604052508101906113b29190615780565b60608601516040516370a0823160e01b81523060048201529192506000916001600160a01b03909116906370a0823190602401602060405180830381865afa158015611402573d6000803e3d6000fd5b505050506040513d601f19601f820116820180604052508101906114269190615780565b905084821115611453576114533361143e8785615601565b60408901516001600160a01b03169190613ff5565b8381111561147e5761147e336114698684615601565b60608901516001600160a01b03169190613ff5565b6097546040518981527f7c91ae1953dc46554227e335ce5e88a6b550d641442c83653e7d31c85e1093409060200160405180910390a26097546040518481526001600160a01b038c16913391600080516020615f6d8339815191529060200160405180910390a45050505050506001606581905550965096945050505050565b600080600060a160009054906101000a90046001600160a01b03166001600160a01b0316635c975abb6040518163ffffffff1660e01b8152600401602060405180830381865afa158015611556573d6000803e3d6000fd5b505050506040513d601f19601f8201168201806040525081019061157a9190615516565b1561159857604051632a6ab56360e21b815260040160405180910390fd5b600260655414156115bb5760405162461bcd60e51b81526004016107c490615538565b600260655560975487146115e25760405163d832ff5d60e01b815260040160405180910390fd5b60006098609754815481106115f9576115f961556f565b6000918252602080832060408051608081018252600490940290910180546001600160a01b03908116855260018201548116938501939093526002810154831691840191909152600301541660608201529150806116568761402a565b9150915060006116658a6141c9565b6020850151855160405163291d589b60e21b81529293506001600160a01b039091169163a475626c916116a09185908e908e906004016157da565b6060604051808303816000875af11580156116bf573d6000803e3d6000fd5b505050506040513d601f19601f820116820180604052508101906116e391906155bd565b919850965094506116f4838761563a565b9550611700828661563a565b609754604080518a8152602081018a9052908101839052919650907f51596ec1db5d3d237fb3e6b137016d4ef04cee72cac9314bb7df1770aeb420b19060600160405180910390a26097546040518281526001600160a01b038a169133917ffeb2000dca3e617cd6f3a8bbb63014bb54a124aac6ccbf73ee7229b4cd01f1209060200160405180910390a450506001606555509297919650945092505050565b60a160009054906101000a90046001600160a01b03166001600160a01b0316635c975abb6040518163ffffffff1660e01b8152600401602060405180830381865afa1580156117f3573d6000803e3d6000fd5b505050506040513d601f19601f820116820180604052508101906118179190615516565b1561183557604051632a6ab56360e21b815260040160405180910390fd5b600260655414156118585760405162461bcd60e51b81526004016107c490615538565b600260655560a054604051632474521560e21b81527f77e60b99a50d27fb027f6912a507d956105b4148adab27a86d235c8bcca8fa2f60048201523360248201526001600160a01b03909116906391d1485490604401602060405180830381865afa1580156118cb573d6000803e3d6000fd5b505050506040513d601f19601f820116820180604052508101906118ef9190615516565b61190c57604051634775a94f60e11b815260040160405180910390fd5b6119146109f4565b6119315760405163f58c8f9160e01b815260040160405180910390fd5b609d544314156119545760405163975c763f60e01b815260040160405180910390fd5b60985487101580611966575060975487145b156119845760405163d832ff5d60e01b815260040160405180910390fd5b600060986097548154811061199b5761199b61556f565b6000918252602080832060408051608081018252600490940290910180546001600160a01b039081168552600182015481169385019390935260028101548316918401919091526003015416606082015260988054919350908a908110611a0457611a0461556f565b6000918252602080832060408051608081018252600494850290920180546001600160a01b039081168452600182015481168486015260028201548116848401526003909101548116606084015292870151875191516328dee51f60e11b8152929650909216926351bdca3e92611a7d92309201615435565b606060405180830381865afa158015611a9a573d6000803e3d6000fd5b505050506040513d601f19601f82011682018060405250810190611abe91906155bd565b505060208401518451604051636c27fc2160e11b81529293506001600160a01b039091169163d84ff84291611afe91859060009081903090600401615652565b60408051808303816000875af1158015611b1c573d6000803e3d6000fd5b505050506040513d601f19601f82011682018060405250810190611b409190615682565b505060408084015190516370a0823160e01b81523060048201526000916001600160a01b0316906370a0823190602401602060405180830381865afa158015611b8d573d6000803e3d6000fd5b505050506040513d601f19601f82011682018060405250810190611bb19190615780565b60608501516040516370a0823160e01b81523060048201529192506000916001600160a01b03909116906370a0823190602401602060405180830381865afa158015611c01573d6000803e3d6000fd5b505050506040513d601f19601f82011682018060405250810190611c259190615780565b905083604001516001600160a01b031685604001516001600160a01b031614611dde5760008060008060008f8f6004908092611c6393929190615816565b810190611c709190615a18565b955095509550509450945084516001141580611c8e57508351600114155b80611ccd575089604001516001600160a01b031685600081518110611cb557611cb561556f565b6020026020010151600001516001600160a01b031614155b80611d0c575088604001516001600160a01b031684600081518110611cf457611cf461556f565b6020026020010151600001516001600160a01b031614155b15611d2a5760405163994b1c7560e01b815260040160405180910390fd5b8685600081518110611d3e57611d3e61556f565b60209081029190910181015101526040516378bd22a360e11b8152739f138be5aa5cc442ea7cc7d18cd9e30593ed90b99063f17a454690611d8f908890889060001990899089908990600401615c1f565b6000604051808303816000875af1158015611dae573d6000803e3d6000fd5b505050506040513d6000823e601f3d908101601f19168201604052611dd69190810190615d06565b505050505050505b83606001516001600160a01b031685606001516001600160a01b031614611f955760008060008060008d8d6004908092611e1a93929190615816565b810190611e279190615a18565b955095509550509450945084516001141580611e4557508351600114155b80611e84575089606001516001600160a01b031685600081518110611e6c57611e6c61556f565b6020026020010151600001516001600160a01b031614155b80611ec3575088606001516001600160a01b031684600081518110611eab57611eab61556f565b6020026020010151600001516001600160a01b031614155b15611ee157604051633a0357a960e21b815260040160405180910390fd5b8585600081518110611ef557611ef561556f565b60209081029190910181015101526040516378bd22a360e11b8152739f138be5aa5cc442ea7cc7d18cd9e30593ed90b99063f17a454690611f46908890889060001990899089908990600401615c1f565b6000604051808303816000875af1158015611f65573d6000803e3d6000fd5b505050506040513d6000823e601f3d908101601f19168201604052611f8d9190810190615d06565b505050505050505b6020840151845160408087015190516370a0823160e01b81523060048201526001600160a01b0393841693636505e65e939216906370a0823190602401602060405180830381865afa158015611fef573d6000803e3d6000fd5b505050506040513d601f19601f820116820180604052508101906120139190615780565b60608801516040516370a0823160e01b81523060048201526001600160a01b03909116906370a0823190602401602060405180830381865afa15801561205d573d6000803e3d6000fd5b505050506040513d601f19601f820116820180604052508101906120819190615780565b8b8b306040518763ffffffff1660e01b81526004016120a596959493929190615585565b6060604051808303816000875af11580156120c4573d6000803e3d6000fd5b505050506040513d601f19601f820116820180604052508101906120e891906155bd565b60995550506040805160808101808352918601516370a0823160e01b9092523060848201529081906001600160a01b03166370a0823160a48301602060405180830381865afa15801561213f573d6000803e3d6000fd5b505050506040513d601f19601f820116820180604052508101906121639190615780565b815260608601516040516370a0823160e01b81523060048201526020909201916001600160a01b03909116906370a0823190602401602060405180830381865afa1580156121b5573d6000803e3d6000fd5b505050506040513d601f19601f820116820180604052508101906121d99190615780565b81526020016121e66109f4565b8152436020918201528151609a55810151609b55604080820151609c55606090910151609d5560975490518d91907faf62d6e59ad2e54c778a490827e6cb28b1d30794092c7367fdbb261b11de033690600090a350505060979890985550506001606555505050505050565b6000808080806001600160a01b03861661226b57600080fd5b60a054604051632474521560e21b81527f2dca0f5ce7e75a4b43fe2b0d6f5d0b7a2bf92ecf89f8f0aa17b8308b6703882160048201526001600160a01b038881166024830152909116906391d1485490604401602060405180830381865afa1580156122db573d6000803e3d6000fd5b505050506040513d601f19601f820116820180604052508101906122ff9190615516565b1561237c57670de0b6b3a7640000612317600061455c565b612322906002615d9e565b6001600160a01b038816600090815260a26020526040902060020154612348919061563a565b6123529190615618565b6001600160a01b038716600090815260336020526040902054612375919061563a565b90506123e4565b670de0b6b3a764000061238e8761455c565b6001600160a01b038816600090815260a260205260409020600201546123b4919061563a565b6123be9190615618565b6001600160a01b0387166000908152603360205260409020546123e1919061563a565b90505b80156125cb5760006098609754815481106124015761240161556f565b6000918252602080832060408051608081018252600494850290920180546001600160a01b0390811680855260018301548216958501869052600283015482168585015260039092015416606084015290516328dee51f60e11b815291955084936351bdca3e92612476923092909101615435565b606060405180830381865afa158015612493573d6000803e3d6000fd5b505050506040513d601f19601f820116820180604052508101906124b791906155bd565b925092505060006124c66109f4565b9050806124d38487615d9e565b6124dd9190615618565b9850806124ea8387615d9e565b6124f49190615618565b336000908152609f60209081526040808320609d54845290915290205490985060ff161580156125255750609c5415155b156125c657609c54609a546001600160a01b038c166000908152609e60209081526040808320609d5484529091529020546125609088615601565b61256a9190615d9e565b6125749190615618565b609c54609b546001600160a01b038d166000908152609e60209081526040808320609d54845290915290205492995090916125af9088615601565b6125b99190615d9e565b6125c39190615618565b95505b505050505b509193509193565b60006001600160a01b0382166125eb57506000919050565b60a054604051632474521560e21b81527f2dca0f5ce7e75a4b43fe2b0d6f5d0b7a2bf92ecf89f8f0aa17b8308b6703882160048201526001600160a01b038085166024830152849216906391d1485490604401602060405180830381865afa15801561265b573d6000803e3d6000fd5b505050506040513d601f19601f8201168201806040525081019061267f9190615516565b1561268957600092505b612692836145cf565b6001600160a01b038316600090815260a260205260409020600201546126c190670de0b6b3a764000090615618565b91508115612765576126d3818361475a565b6001600160a01b038316600090815260a2602052604081206002015460a4805491929091612702908490615601565b90915550506001600160a01b03808416600090815260a260205260408082206002019190915551908216907fdfeef5879c25440d1418a79a16489f0e739d22ac040c8c76f7b998fc704edeb89061275c9085815260200190565b60405180910390a25b50919050565b60006127776001614846565b9050801561278f576000805461ff0019166101001790555b600283108061279e5750603283115b156127bc576040516304f68a0760e21b815260040160405180910390fd5b61280c6040518060400160405280601081526020016f554e4f2d4175746f537472617465677960801b815250604051806040016040528060068152602001650554e4f2d4c560d41b8152506148d3565b612814614904565b60005b83811015612dc15760008585838181106128335761283361556f565b905060400201602001602081019061284b91906152f6565b6001600160a01b031663450efe2187878581811061286b5761286b61556f565b61288192602060409092020190810191506152f6565b6040516001600160e01b031960e084901b1681526001600160a01b039091166004820152602401600060405180830381865afa1580156128c5573d6000803e3d6000fd5b505050506040513d6000823e601f3d908101601f191682016040526128ed9190810190615dbd565b90506000604051806080016040528088888681811061290e5761290e61556f565b61292492602060409092020190810191506152f6565b6001600160a01b031681526020018888868181106129445761294461556f565b905060400201602001602081019061295c91906152f6565b6001600160a01b031681526020018360008151811061297d5761297d61556f565b60200260200101516001600160a01b03168152602001836001815181106129a6576129a661556f565b6020908102919091018101516001600160a01b0390811690925260988054600181018255600091909152835160049182027f2237a976fa961f5921fd19f2b03c925c725d77b20ce8f790c19709c03de4d814810180549286166001600160a01b0319938416179055928501517f2237a976fa961f5921fd19f2b03c925c725d77b20ce8f790c19709c03de4d815840180548287169084161790556040808701517f2237a976fa961f5921fd19f2b03c925c725d77b20ce8f790c19709c03de4d816860180549188169185168217905560608801517f2237a976fa961f5921fd19f2b03c925c725d77b20ce8f790c19709c03de4d81790960180549690971695909316949094179094559151636eb1769f60e11b8152939450909263dd62ed3e92612ad292309201615435565b602060405180830381865afa158015612aef573d6000803e3d6000fd5b505050506040513d601f19601f82011682018060405250810190612b139190615780565b612c2457604080820151905163095ea7b360e01b8152739f138be5aa5cc442ea7cc7d18cd9e30593ed90b9600482015260001960248201526001600160a01b039091169063095ea7b3906044016020604051808303816000875af1158015612b7f573d6000803e3d6000fd5b505050506040513d601f19601f82011682018060405250810190612ba39190615516565b506040808201516020830151915163095ea7b360e01b81526001600160a01b039283166004820152600019602482015291169063095ea7b3906044016020604051808303816000875af1158015612bfe573d6000803e3d6000fd5b505050506040513d601f19601f82011682018060405250810190612c229190615516565b505b80606001516001600160a01b031663dd62ed3e3083602001516040518363ffffffff1660e01b8152600401612c5a929190615435565b602060405180830381865afa158015612c77573d6000803e3d6000fd5b505050506040513d601f19601f82011682018060405250810190612c9b9190615780565b612dac57606081015160405163095ea7b360e01b8152739f138be5aa5cc442ea7cc7d18cd9e30593ed90b9600482015260001960248201526001600160a01b039091169063095ea7b3906044016020604051808303816000875af1158015612d07573d6000803e3d6000fd5b505050506040513d601f19601f82011682018060405250810190612d2b9190615516565b506060810151602082015160405163095ea7b360e01b81526001600160a01b039182166004820152600019602482015291169063095ea7b3906044016020604051808303816000875af1158015612d86573d6000803e3d6000fd5b505050506040513d601f19601f82011682018060405250810190612daa9190615516565b505b50508080612db990615e4b565b915050612817565b5060a080546001600160a01b0384166001600160a01b03199182161790915543609d5560a180549091163317905560a5805460ff191660011790558015612e42576000805461ff0019169055604051600181527f7f26b83ff96e1f2b6a682f133852f6798a09c465da95921460cefb38474024989060200160405180910390a15b50505050565b6000806000609860975481548110612e6257612e6261556f565b600091825260209182902060408051608081018252600493840290920180546001600160a01b0390811680855260018301548216968501879052600283015482168585015260039092015416606084015290516328dee51f60e11b81529194506351bdca3e92612ed59230929101615435565b606060405180830381865afa158015612ef2573d6000803e3d6000fd5b505050506040513d601f19601f82011682018060405250810190612f1691906155bd565b60408481015190516370a0823160e01b81523060048201529296509094506001600160a01b031691506370a0823190602401602060405180830381865afa158015612f65573d6000803e3d6000fd5b505050506040513d601f19601f82011682018060405250810190612f899190615780565b612f93908461563a565b60608201516040516370a0823160e01b81523060048201529194506001600160a01b0316906370a0823190602401602060405180830381865afa158015612fde573d6000803e3d6000fd5b505050506040513d601f19601f820116820180604052508101906130029190615780565b61300c908361563a565b9150509091565b60008060a160009054906101000a90046001600160a01b03166001600160a01b0316635c975abb6040518163ffffffff1660e01b8152600401602060405180830381865afa158015613069573d6000803e3d6000fd5b505050506040513d601f19601f8201168201806040525081019061308d9190615516565b156130ab57604051632a6ab56360e21b815260040160405180910390fd5b600260655414156130ce5760405162461bcd60e51b81526004016107c490615538565b60026065556097548a146130f55760405163d832ff5d60e01b815260040160405180910390fd5b600060986097548154811061310c5761310c61556f565b6000918252602080832060408051608081018252600494850290920180546001600160a01b0390811684526001820154811694840194909452600281015484168383018190526003909101549093166060830152516370a0823160e01b815230938101939093529350906370a0823190602401602060405180830381865afa15801561319c573d6000803e3d6000fd5b505050506040513d601f19601f820116820180604052508101906131c09190615780565b60608301516040516370a0823160e01b81523060048201529192506000916001600160a01b03909116906370a0823190602401602060405180830381865afa158015613210573d6000803e3d6000fd5b505050506040513d601f19601f820116820180604052508101906132349190615780565b905061324b6001600160a01b038d1633308e613d53565b602083015160405163095ea7b360e01b81526001600160a01b039182166004820152602481018d9052908d169063095ea7b3906044016020604051808303816000875af11580156132a0573d6000803e3d6000fd5b505050506040513d601f19601f820116820180604052508101906132c49190615516565b50600083602001516001600160a01b0316636c2b551785600001518f8f8f8f8f306040518863ffffffff1660e01b81526004016133079796959493929190615e66565b60408051808303816000875af1158015613325573d6000803e3d6000fd5b505050506040513d601f19601f820116820180604052508101906133499190615682565b90965090506133588888613dbe565b945061338133613368888f615601565b8f6001600160a01b0316613ff59092919063ffffffff16565b60408085015190516370a0823160e01b81523060048201526000916001600160a01b0316906370a0823190602401602060405180830381865afa1580156133cc573d6000803e3d6000fd5b505050506040513d601f19601f820116820180604052508101906133f09190615780565b60608601516040516370a0823160e01b81523060048201529192506000916001600160a01b03909116906370a0823190602401602060405180830381865afa158015613440573d6000803e3d6000fd5b505050506040513d601f19601f820116820180604052508101906134649190615780565b90508482111561347c5761347c3361143e8785615601565b8381111561349257613492336114698684615601565b8e6001600160a01b03166097547f7dec90b6ad667a5215e9d9d72b63c8a746e5752befdaf35a8e99a2f0ad16d8dc8a6040516134d091815260200190565b60405180910390a36097546040518481526001600160a01b038c16913391600080516020615f6d8339815191529060200160405180910390a450505050505060016065819055509850989650505050505050565b60606037805461066a906154e1565b600080600060986097548154811061354d5761354d61556f565b600091825260209182902060408051608081018252600490930290910180546001600160a01b0390811684526001820154811694840194909452600281015484169183018290526003015490921660609091018190529094909350915050565b600033816135bb8286613c04565b90508381101561361b5760405162461bcd60e51b815260206004820152602560248201527f45524332303a2064656372656173656420616c6c6f77616e63652062656c6f77604482015264207a65726f60d81b60648201526084016107c4565b6136288286868403613c2f565b506001949350505050565b6000336106fb818585614383565b600080600060a160009054906101000a90046001600160a01b03166001600160a01b0316635c975abb6040518163ffffffff1660e01b8152600401602060405180830381865afa158015613699573d6000803e3d6000fd5b505050506040513d601f19601f820116820180604052508101906136bd9190615516565b156136db57604051632a6ab56360e21b815260040160405180910390fd5b600260655414156136fe5760405162461bcd60e51b81526004016107c490615538565b600260655560975489146137255760405163d832ff5d60e01b815260040160405180910390fd5b600060986097548154811061373c5761373c61556f565b6000918252602080832060408051608081018252600490940290910180546001600160a01b03908116855260018201548116938501939093526002810154831691840182905260030154909116606083015290925073bb4cdb9cbd36b01bd1cbaebf2de08d9173bc095c14156137b7575060608101516137e7565b60608201516001600160a01b031673bb4cdb9cbd36b01bd1cbaebf2de08d9173bc095c1415610c93575060408101515b6137fc6001600160a01b03821633308d613d53565b600082602001516001600160a01b031663fefa40943485600001518e8e8e306040518763ffffffff1660e01b815260040161383b959493929190615652565b60606040518083038185885af1158015613859573d6000803e3d6000fd5b50505050506040513d601f19601f8201168201806040525081019061387e91906155bd565b9197509550905061388f8888613dbe565b9350858b11156138b8576138b8336138a7888e615601565b6001600160a01b0385169190613ff5565b843411156138f857336108fc6138ce8734615601565b6040518115909202916000818181858888f193505050501580156138f6573d6000803e3d6000fd5b505b60975460408051888152602081018890527f33ec26ffa0eadd23ca7311e5f8f35ce115ffaf52cfea3180a7fdc6a592b09039910160405180910390a26097546040518281526001600160a01b038a16913391600080516020615f6d8339815191529060200160405180910390a4505050600160658190555096509650969350505050565b6098818154811061398c57600080fd5b600091825260209091206004909102018054600182015460028301546003909301546001600160a01b039283169450908216928216911684565b60008060a160009054906101000a90046001600160a01b03166001600160a01b0316635c975abb6040518163ffffffff1660e01b8152600401602060405180830381865afa158015613a1c573d6000803e3d6000fd5b505050506040513d601f19601f82011682018060405250810190613a409190615516565b15613a5e57604051632a6ab56360e21b815260040160405180910390fd5b60026065541415613a815760405162461bcd60e51b81526004016107c490615538565b60026065556097548714613aa85760405163d832ff5d60e01b815260040160405180910390fd5b6000609860975481548110613abf57613abf61556f565b6000918252602080832060408051608081018252600490940290910180546001600160a01b0390811685526001820154811693850193909352600281015483169184019190915260030154166060820152915080613b1c8661402a565b915091506000613b2b8a6141c9565b60208501518551604051636c27fc2160e11b81529293506001600160a01b039091169163d84ff84291613b689185908e908e908e90600401615652565b60408051808303816000875af1158015613b86573d6000803e3d6000fd5b505050506040513d601f19601f82011682018060405250810190613baa9190615682565b9096509450613bb9838761563a565b9550613bc5828661563a565b94506097547ff0ebf98d9ecd4f11114987b0de79d86c03a9b6e84e74d9503a38acabe0db862a8787604051610d00929190918252602082015260400190565b6001600160a01b03918216600090815260346020908152604080832093909416825291909152205490565b6001600160a01b038316613c915760405162461bcd60e51b8152602060048201526024808201527f45524332303a20617070726f76652066726f6d20746865207a65726f206164646044820152637265737360e01b60648201526084016107c4565b6001600160a01b038216613cf25760405162461bcd60e51b815260206004820152602260248201527f45524332303a20617070726f766520746f20746865207a65726f206164647265604482015261737360f01b60648201526084016107c4565b6001600160a01b0383811660008181526034602090815260408083209487168084529482529182902085905590518481527f8c5be1e5ebec7d5bd14f71427d1e84f3dd0314c0f7b2291e5b200ac8c7c3b925910160405180910390a3505050565b6040516001600160a01b0380851660248301528316604482015260648101829052612e429085906323b872dd60e01b906084015b60408051601f198184030181529190526020810180516001600160e01b03166001600160e01b031990931692909217909152614935565b600080609860975481548110613dd657613dd661556f565b6000918252602080832060408051608081018252600494850290920180546001600160a01b0390811680855260018301548216958501869052600283015482168585015260039092015416606084015290516328dee51f60e11b815291955091926351bdca3e92613e4992309201615435565b606060405180830381865afa158015613e66573d6000803e3d6000fd5b505050506040513d601f19601f82011682018060405250810190613e8a91906155bd565b50509050600060995482613e9e9190615601565b90506000613eaa6109f4565b905080613ed157613ebd6103e883615601565b9450613ecc60016103e861475a565b613eeb565b609954613ede8284615d9e565b613ee89190615618565b94505b84613f095760405163827e7b7f60e01b815260040160405180910390fd5b33600090815260a360205260409020546001600160a01b039081169087168114613fde5733600090815260a36020908152604080832080546001600160a01b0319166001600160a01b038c16179055603390915281205490508015613fdc57613f71826145cf565b6001600160a01b038216600090815260a2602052604081206001018054839290613f9c908490615601565b90915550613fab9050886145cf565b6001600160a01b038816600090815260a2602052604081206001018054839290613fd690849061563a565b90915550505b505b613fe8888761475a565b5050506099555092915050565b6040516001600160a01b03831660248201526044810182905261402590849063a9059cbb60e01b90606401613d87565b505050565b336000908152609f60209081526040808320609d548452909152812054819060ff166141c457609c541561419c57600060986097548154811061406f5761406f61556f565b600091825260208083206040805160808101825260049490940290910180546001600160a01b03908116855260018201548116858501526002820154811685840152600390910154166060840152609c54609a5433808752609e8552838720609d54885285528387205490875260339094529190942054929450916140f49190615601565b6140fe9190615d9e565b6141089190615618565b609c54609b54336000818152609e60209081526040808320609d54845282528083205493835260339091529020549396509192909161414691615601565b6141509190615d9e565b61415a9190615618565b9150821561417b57604081015161417b906001600160a01b03168585613ff5565b811561419a57606081015161419a906001600160a01b03168584613ff5565b505b336000908152609f60209081526040808320609d5484529091529020805460ff191660011790555b915091565b6000806098609754815481106141e1576141e161556f565b6000918252602080832060408051608081018252600494850290920180546001600160a01b0390811680855260018301548216958501869052600283015482168585015260039092015416606084015290516328dee51f60e11b815291955091926351bdca3e9261425492309201615435565b606060405180830381865afa158015614271573d6000803e3d6000fd5b505050506040513d601f19601f8201168201806040525081019061429591906155bd565b5050905060006142a36109f4565b90506142ae336125d3565b6142b8908661563a565b9450806142c58387615d9e565b6142cf9190615618565b9350836142ef5760405163827e7b7f60e01b815260040160405180910390fd5b6142f93386614a07565b6143038483615601565b60995550919392505050565b600061431b8484613c04565b90506000198114612e4257818110156143765760405162461bcd60e51b815260206004820152601d60248201527f45524332303a20696e73756666696369656e7420616c6c6f77616e636500000060448201526064016107c4565b612e428484848403613c2f565b6001600160a01b0383166143e75760405162461bcd60e51b815260206004820152602560248201527f45524332303a207472616e736665722066726f6d20746865207a65726f206164604482015264647265737360d81b60648201526084016107c4565b6001600160a01b0382166144495760405162461bcd60e51b815260206004820152602360248201527f45524332303a207472616e7366657220746f20746865207a65726f206164647260448201526265737360e81b60648201526084016107c4565b614454838383614b61565b6001600160a01b038316600090815260336020526040902054818110156144cc5760405162461bcd60e51b815260206004820152602660248201527f45524332303a207472616e7366657220616d6f756e7420657863656564732062604482015265616c616e636560d01b60648201526084016107c4565b6001600160a01b0380851660009081526033602052604080822085850390559185168152908120805484929061450390849061563a565b92505081905550826001600160a01b0316846001600160a01b03167fddf252ad1be2c89b69c2b068fc378daa952ba7f163c4a11628f55a4df523b3ef8460405161454f91815260200190565b60405180910390a3612e42565b6001600160a01b038116600090815260a26020526040812060018101549054811580159061458957508015155b80156145955750804214155b156145c557816145a58242615601565b6145b3906312e687bf615d9e565b6145bd9190615d9e565b949350505050565b5060009392505050565b60a55460ff1661461a576145e16109f4565b6000805260a26020527f8fa6f0ecb9543d3381552e96aa43533c7f086066e38816919ea0cfae371b342b5560a5805460ff191660011790555b60006146258261455c565b9050801561473d576001600160a01b0382166146aa57614646600282615d9e565b600080805260a26020527f8fa6f0ecb9543d3381552e96aa43533c7f086066e38816919ea0cfae371b342c8054929350839290919061468690849061563a565b925050819055508060a4600082825461469f919061563a565b9091555061473d9050565b6001600160a01b038216600090815260a26020526040812060020180548392906146d590849061563a565b9091555050600080805260a26020527f8fa6f0ecb9543d3381552e96aa43533c7f086066e38816919ea0cfae371b342c805483929061471590849061563a565b909155506147269050816002615d9e565b60a46000828254614737919061563a565b90915550505b506001600160a01b0316600090815260a260205260409020429055565b6001600160a01b0382166147b05760405162461bcd60e51b815260206004820152601f60248201527f45524332303a206d696e7420746f20746865207a65726f20616464726573730060448201526064016107c4565b6147bc60008383614b61565b80603560008282546147ce919061563a565b90915550506001600160a01b038216600090815260336020526040812080548392906147fb90849061563a565b90915550506040518181526001600160a01b038316906000907fddf252ad1be2c89b69c2b068fc378daa952ba7f163c4a11628f55a4df523b3ef9060200160405180910390a35b5050565b60008054610100900460ff161561488d578160ff1660011480156148695750303b155b6148855760405162461bcd60e51b81526004016107c490615eb7565b506000919050565b60005460ff8084169116106148b45760405162461bcd60e51b81526004016107c490615eb7565b506000805460ff191660ff92909216919091179055600190565b919050565b600054610100900460ff166148fa5760405162461bcd60e51b81526004016107c490615f05565b6148428282614cfc565b600054610100900460ff1661492b5760405162461bcd60e51b81526004016107c490615f05565b614933614d4a565b565b600061498a826040518060400160405280602081526020017f5361666545524332303a206c6f772d6c6576656c2063616c6c206661696c6564815250856001600160a01b0316614d789092919063ffffffff16565b80519091501561402557808060200190518101906149a89190615516565b6140255760405162461bcd60e51b815260206004820152602a60248201527f5361666545524332303a204552433230206f7065726174696f6e20646964206e6044820152691bdd081cdd58d8d9595960b21b60648201526084016107c4565b6001600160a01b038216614a675760405162461bcd60e51b815260206004820152602160248201527f45524332303a206275726e2066726f6d20746865207a65726f206164647265736044820152607360f81b60648201526084016107c4565b614a7382600083614b61565b6001600160a01b03821660009081526033602052604090205481811015614ae75760405162461bcd60e51b815260206004820152602260248201527f45524332303a206275726e20616d6f756e7420657863656564732062616c616e604482015261636560f01b60648201526084016107c4565b6001600160a01b0383166000908152603360205260408120838303905560358054849290614b16908490615601565b90915550506040518281526000906001600160a01b038516907fddf252ad1be2c89b69c2b068fc378daa952ba7f163c4a11628f55a4df523b3ef9060200160405180910390a3505050565b6001600160a01b0383166000908152609e60209081526040808320609d548452909152902054811115614bb9576001600160a01b0383166000908152609e60209081526040808320609d548452909152812055614bf4565b6001600160a01b0383166000908152609e60209081526040808320609d54845290915281208054839290614bee908490615601565b90915550505b6001600160a01b0382166000908152609e60209081526040808320609d54845290915281208054839290614c2990849061563a565b90915550506001600160a01b03831615614c93576001600160a01b03808416600090815260a3602052604090205416614c61816145cf565b6001600160a01b038116600090815260a2602052604081206001018054849290614c8c908490615601565b9091555050505b6001600160a01b03821615614025576001600160a01b03808316600090815260a3602052604090205416614cc6816145cf565b6001600160a01b038116600090815260a2602052604081206001018054849290614cf190849061563a565b909155505050505050565b600054610100900460ff16614d235760405162461bcd60e51b81526004016107c490615f05565b8151614d36906036906020850190614e8c565b508051614025906037906020840190614e8c565b600054610100900460ff16614d715760405162461bcd60e51b81526004016107c490615f05565b6001606555565b60606145bd8484600085856001600160a01b0385163b614dda5760405162461bcd60e51b815260206004820152601d60248201527f416464726573733a2063616c6c20746f206e6f6e2d636f6e747261637400000060448201526064016107c4565b600080866001600160a01b03168587604051614df69190615f50565b60006040518083038185875af1925050503d8060008114614e33576040519150601f19603f3d011682016040523d82523d6000602084013e614e38565b606091505b5091509150614e48828286614e53565b979650505050505050565b60608315614e62575081610d7f565b825115614e725782518084602001fd5b8160405162461bcd60e51b81526004016107c49190614f7d565b828054614e98906154e1565b90600052602060002090601f016020900481019282614eba5760008555614f00565b82601f10614ed357805160ff1916838001178555614f00565b82800160010185558215614f00579182015b82811115614f00578251825591602001919060010190614ee5565b50614f0c929150614f10565b5090565b5b80821115614f0c5760008155600101614f11565b60005b83811015614f40578181015183820152602001614f28565b83811115612e425750506000910152565b60008151808452614f69816020860160208601614f25565b601f01601f19169290920160200192915050565b602081526000610d7f6020830184614f51565b6001600160a01b0381168114614fa557600080fd5b50565b60008060408385031215614fbb57600080fd5b8235614fc681614f90565b946020939093013593505050565b600080600080600080600060e0888a031215614fef57600080fd5b873596506020880135955060408801359450606088013593506080880135925060a088013561501d81614f90565b915060c088013561502d81614f90565b8091505092959891949750929550565b600080600080600060a0868803121561505557600080fd5b85359450602086013593506040860135925060608601359150608086013561507c81614f90565b809150509295509295909350565b60008060006060848603121561509f57600080fd5b83356150aa81614f90565b925060208401356150ba81614f90565b929592945050506040919091013590565b806040810183101561070157600080fd5b600080600080600060a086880312156150f457600080fd5b8535945060208601359350604086013561510d81614f90565b925060608601356001600160401b0381111561512857600080fd5b615134888289016150cb565b925050608086013561507c81614f90565b60008060008060008060c0878903121561515e57600080fd5b8635955060208701356001600160401b0381111561517b57600080fd5b61518789828a016150cb565b955050604087013593506060870135925060808701356151a681614f90565b915060a08701356151b681614f90565b809150509295509295509295565b600080600080608085870312156151da57600080fd5b843593506020850135925060408501356001600160401b038111156151fe57600080fd5b61520a878288016150cb565b925050606085013561521b81614f90565b939692955090935050565b60008083601f84011261523857600080fd5b5081356001600160401b0381111561524f57600080fd5b60208301915083602082850101111561526757600080fd5b9250929050565b600080600080600080600060a0888a03121561528957600080fd5b8735965060208801356001600160401b03808211156152a757600080fd5b6152b38b838c01615226565b909850965060408a01359150808211156152cc57600080fd5b506152d98a828b01615226565b989b979a5095989597966060870135966080013595509350505050565b60006020828403121561530857600080fd5b8135610d7f81614f90565b60008060006040848603121561532857600080fd5b83356001600160401b038082111561533f57600080fd5b818601915086601f83011261535357600080fd5b81358181111561536257600080fd5b8760208260061b850101111561537757600080fd5b6020928301955093505084013561538d81614f90565b809150509250925092565b600080600080600080600080610100898b0312156153b557600080fd5b8835975060208901356153c781614f90565b96506040890135955060608901356001600160401b038111156153e957600080fd5b6153f58b828c016150cb565b9550506080890135935060a0890135925060c089013561541481614f90565b915060e089013561542481614f90565b809150509295985092959890939650565b6001600160a01b0392831681529116602082015260400190565b60008060008060008060c0878903121561546857600080fd5b8635955060208701359450604087013593506060870135925060808701356151a681614f90565b6000602082840312156154a157600080fd5b5035919050565b600080604083850312156154bb57600080fd5b82356154c681614f90565b915060208301356154d681614f90565b809150509250929050565b600181811c908216806154f557607f821691505b6020821081141561276557634e487b7160e01b600052602260045260246000fd5b60006020828403121561552857600080fd5b81518015158114610d7f57600080fd5b6020808252601f908201527f5265656e7472616e637947756172643a207265656e7472616e742063616c6c00604082015260600190565b634e487b7160e01b600052603260045260246000fd5b6001600160a01b039687168152602081019590955260408501939093526060840191909152608083015290911660a082015260c00190565b6000806000606084860312156155d257600080fd5b8351925060208401519150604084015190509250925092565b634e487b7160e01b600052601160045260246000fd5b600082821015615613576156136155eb565b500390565b60008261563557634e487b7160e01b600052601260045260246000fd5b500490565b6000821982111561564d5761564d6155eb565b500190565b6001600160a01b039586168152602081019490945260408401929092526060830152909116608082015260a00190565b6000806040838503121561569557600080fd5b505080516020909101519092909150565b600082604081018360005b60028110156157305783830387528135601e198736030181126156d357600080fd5b8601803560206001600160401b038211156156ed57600080fd5b8136038913156156fc57600080fd5b8186528181840182880137600086830182015298890198601f909101601f19169094018401939290920191506001016156b1565b509095945050505050565b600060018060a01b038088168352866020840152808616604084015260a0606084015261576b60a08401866156a6565b91508084166080840152509695505050505050565b60006020828403121561579257600080fd5b5051919050565b600060018060a01b03808816835260a060208401526157bb60a08401886156a6565b6040840196909652606083019490945250911660809091015292915050565b600060018060a01b0380871683528560208401526080604084015261580260808401866156a6565b915080841660608401525095945050505050565b6000808585111561582657600080fd5b8386111561583357600080fd5b5050820193919092039150565b634e487b7160e01b600052604160045260246000fd5b604051606081016001600160401b038111828210171561587857615878615840565b60405290565b604051608081016001600160401b038111828210171561587857615878615840565b604051601f8201601f191681016001600160401b03811182821017156158c8576158c8615840565b604052919050565b60006001600160401b038211156158e9576158e9615840565b5060051b60200190565b600082601f83011261590457600080fd5b81356001600160401b0381111561591d5761591d615840565b615930601f8201601f19166020016158a0565b81815284602083860101111561594557600080fd5b816020850160208301376000918101602001919091529392505050565b600082601f83011261597357600080fd5b81356020615988615983836158d0565b6158a0565b828152606092830285018201928282019190878511156159a757600080fd5b8387015b85811015615a005781818a0312156159c35760008081fd5b6159cb615856565b81356159d681614f90565b815281860135868201526040808301356159ef81614f90565b9082015284529284019281016159ab565b5090979650505050505050565b80356148ce81614f90565b60008060008060008060c08789031215615a3157600080fd5b6001600160401b0387351115615a4657600080fd5b8635870188601f820112615a5957600080fd5b615a6661598382356158d0565b81358082526020808301929160051b8401018b1015615a8457600080fd5b602083015b6020843560051b850101811015615b43576001600160401b0381351115615aaf57600080fd5b803584016080818e03601f19011215615ac757600080fd5b615acf61587e565b615adc6020830135614f90565b6020820135815260408201356020820152615afa6060830135614f90565b606082013560408201526001600160401b0360808301351115615b1c57600080fd5b615b2f8e602060808501358501016158f3565b606082015284525060209283019201615a89565b50975050506001600160401b0360208801351115615b6057600080fd5b615b708860208901358901615962565b94506040870135935060608701359250615b8c60808801615a0d565b91506001600160401b0360a08801351115615ba657600080fd5b615bb68860a089013589016158f3565b90509295509295509295565b600081518084526020808501945080840160005b83811015615c1457815180516001600160a01b03908116895284820151858a0152604091820151169088015260609096019590820190600101615bd6565b509495945050505050565b600060c0820160c0835280895180835260e08501915060e08160051b86010192506020808c0160005b83811015615cae5787860360df19018552815180516001600160a01b039081168852848201518589015260408083015190911690880152606090810151608091880182905290615c9a81890183614f51565b975050509382019390820190600101615c48565b505085840381870152505050615cc48189615bc2565b9050866040840152856060840152615ce760808401866001600160a01b03169052565b82810360a0840152615cf98185614f51565b9998505050505050505050565b60008060408385031215615d1957600080fd5b82516001600160401b03811115615d2f57600080fd5b8301601f81018513615d4057600080fd5b80516020615d50615983836158d0565b82815260059290921b83018101918181019088841115615d6f57600080fd5b938201935b83851015615d8d57845182529382019390820190615d74565b969091015195979596505050505050565b6000816000190483118215151615615db857615db86155eb565b500290565b60006020808385031215615dd057600080fd5b82516001600160401b03811115615de657600080fd5b8301601f81018513615df757600080fd5b8051615e05615983826158d0565b81815260059190911b82018301908381019087831115615e2457600080fd5b928401925b82841015614e48578351615e3c81614f90565b82529284019290840190615e29565b6000600019821415615e5f57615e5f6155eb565b5060010190565b600060018060a01b03808a168352808916602084015287604084015260e06060840152615e9660e08401886156a6565b608084019690965260a083019490945250911660c090910152949350505050565b6020808252602e908201527f496e697469616c697a61626c653a20636f6e747261637420697320616c72656160408201526d191e481a5b9a5d1a585b1a5e995960921b606082015260800190565b6020808252602b908201527f496e697469616c697a61626c653a20636f6e7472616374206973206e6f74206960408201526a6e697469616c697a696e6760a81b606082015260800190565b60008251615f62818460208701614f25565b919091019291505056fe2c0f148b435140de488c1b34647f1511c646f7077e87007bacf22ef9977a16d8a2646970667358221220c25ea802d35814436eda1ad7a310252a2b5877d8631dcaf65f51b2a78945ca1064736f6c634300080a0033",
  "immutableReferences": {},
  "source": "// SPDX-License-Identifier: MIT\r\npragma solidity 0.8.10;\r\nimport \"../interfaces/IOdosRouter.sol\";   \r\nimport \"../interfaces/IUnoAssetRouter.sol\";   \r\nimport \"../interfaces/IUnoAutoStrategyFactory.sol\";  \r\nimport '@openzeppelin/contracts-upgradeable/security/ReentrancyGuardUpgradeable.sol';\r\nimport '@openzeppelin/contracts-upgradeable/token/ERC20/ERC20Upgradeable.sol';\r\nimport '@openzeppelin/contracts-upgradeable/token/ERC20/utils/SafeERC20Upgradeable.sol';\r\n\r\ncontract UnoAutoStrategy is Initializable, ERC20Upgradeable, ReentrancyGuardUpgradeable {\r\n    using SafeERC20Upgradeable for IERC20Upgradeable;\r\n    /**\r\n     * @dev PoolInfo:\r\n     * {assetRouter} - UnoAssetRouter contract.\r\n     * {pool} - Pool address. \r\n     * {tokenA} - Pool's first token address.\r\n     * {tokenB} - Pool's second token address.\r\n     */\r\n    struct _PoolInfo {\r\n        address pool;\r\n        IUnoAssetRouter assetRouter;\r\n    }\r\n\r\n    struct PoolInfo {\r\n        address pool;\r\n        IUnoAssetRouter assetRouter;\r\n        IERC20Upgradeable tokenA;\r\n        IERC20Upgradeable tokenB;\r\n    }\r\n\r\n    /**\r\n     * @dev MoveLiquidityInfo:\r\n     * {leftoverA} - TokenA leftovers after MoveLiquidity() call.\r\n     * {leftoverB} - TokenB leftovers after MoveLiquidity() call. \r\n     * {totalSupply} - totalSupply after MoveLiquidity() call.\r\n     * {block} - MoveLiquidity() call block.\r\n     */\r\n    struct MoveLiquidityInfo {\r\n        uint256 leftoverA;\r\n        uint256 leftoverB;\r\n        uint256 totalSupply;\r\n        uint256 block;\r\n    }\r\n    \r\n    /**\r\n     * @dev Contract Variables:\r\n     * {OdosRouter} - Contract that executes swaps.\r\n\r\n     * {poolID} - Current pool the strategy uses ({pools} index).\r\n     * {pools} - Pools this strategy can use and move liquidity to.\r\n\r\n     * {reserveLP} - LP token reserve.\r\n     * {lastMoveInfo} - Info on last MoveLiquidity() block.\r\n     * {blockedLiquidty} - User's blocked LP tokens. Prevents user from stealing leftover tokens by depositing and exiting before moveLiquidity() has been called.\r\n     * {leftoversCollected} - Flag that prevents leftover token collection if they were already collected this MoveLiquidity() cycle.\r\n\r\n     * {accessManager} - Role manager contract.\r\n     * {factory} - The address of AutoStrategyFactory this contract was deployed by.\r\n\r\n     * {MINIMUM_LIQUIDITY} - Ameliorates rounding errors.\r\n     */\r\n\r\n    IOdosRouter private constant OdosRouter = IOdosRouter(0x9f138be5aA5cC442Ea7cC7D18cD9E30593ED90b9);\r\n\r\n    uint256 public poolID;\r\n    PoolInfo[] public pools;\r\n\r\n    uint256 private reserveLP;\r\n    MoveLiquidityInfo private lastMoveInfo;\r\n    mapping(address => mapping(uint256 => uint256)) private blockedLiquidty;\r\n    mapping(address => mapping(uint256 => bool)) private leftoversCollected;\r\n\r\n    IUnoAccessManager public accessManager;\r\n    IUnoAutoStrategyFactory public factory;\r\n\r\n    uint256 private constant MINIMUM_LIQUIDITY = 10**3;\r\n    bytes32 private constant LIQUIDITY_MANAGER_ROLE = keccak256('LIQUIDITY_MANAGER_ROLE');\r\n    address public constant WBNB = 0xbb4CdB9CBd36B01bD1cBaEBF2De08d9173bc095c;\r\n    bytes32 private constant FEE_COLLECTOR_ROLE = keccak256('FEE_COLLECTOR_ROLE');\r\n\r\n    struct ReferrerInfo {\r\n        uint256 lastFeeCollection;\r\n        uint256 deposits;\r\n        uint256 feeCollected;\r\n    }\r\n    /// @dev maps referrer address to referrer info\r\n    mapping(address => ReferrerInfo) private referrerInfo;\r\n    /// @dev maps referral to referrer\r\n    mapping(address => address) private referrers;\r\n    /// @dev This is added to totalSupply internaly to get rid of _mint() inside _collectFee() to avoid recursive fee collection.\r\n    uint256 private fantomTotalSupply;\r\n    bool private isInitialized;\r\n\r\n    event DepositPairTokens(uint256 indexed poolID, uint256 amountA, uint256 amountB);\r\n    event DepositPairTokensETH(uint256 indexed poolID, uint256 amountToken, uint256 amountETH);\r\n    event DepositSingleToken(uint256 indexed poolID, address indexed token, uint256 amount);\r\n    event DepositSingleETH(uint256 indexed poolID, uint256 amountETH);\r\n    // Note: amountLP refers to LP tokens used in farms and staking pools, not UNO-LP this contract is.\r\n    // To get info for UNO-LP use mint/burn events\r\n    event Deposit(uint256 indexed poolID, address indexed from, address indexed recipient, uint256 amountLP);\r\n\r\n    event WithdrawPairTokens(uint256 indexed poolID, uint256 amountA, uint256 amountB);\r\n    event WithdrawPairTokensETH(uint256 indexed poolID, uint256 amountToken, uint256 amountETH);\r\n    event WithdrawSingleToken(uint256 indexed poolID, address indexed token, uint256 amount, uint256 amountA, uint256 amountB);\r\n    event WithdrawSingleETH(uint256 indexed poolID, uint256 amountETH, uint256 amountA, uint256 amountB);\r\n    // Note: amountLP refers to LP tokens used in farms and staking pools, not UNO-LP this contract is.\r\n    // To get info for UNO-LP use mint/burn events\r\n    event Withdraw(uint256 indexed poolID, address indexed from, address indexed recipient, uint256 amountLP);\r\n\r\n    event MoveLiquidity(uint256 indexed previousPoolID, uint256 indexed nextPoolID);\r\n    event CollectFee(address indexed recipient, uint256 fee);\r\n\r\n    //To save contract size\r\n    error PAUSED();\r\n    error BAD_POOL_ID();\r\n    error BAD_POOL_COUNT();\r\n    error CALLER_NOT_LIQUIDITY_MANAGER();\r\n    error NO_LIQUIDITY();\r\n    error CANT_CALL_ON_THE_SAME_BLOCK();\r\n    error BAD_SWAP_A();\r\n    error BAD_SWAP_B();\r\n    error INSUFFICIENT_LIQUIDITY();\r\n\r\n    modifier whenNotPaused(){\r\n        if(factory.paused()){\r\n            revert PAUSED();\r\n        }\r\n        _;\r\n    }\r\n\r\n    // ============ Methods ============\r\n\r\n    receive() external payable {}\r\n\r\n    function initialize(_PoolInfo[] calldata poolInfos, IUnoAccessManager _accessManager) external initializer {\r\n        if((poolInfos.length < 2) || (poolInfos.length > 50)){\r\n            revert BAD_POOL_COUNT();\r\n        }\r\n\r\n        __ERC20_init(\"UNO-AutoStrategy\", \"UNO-LP\");\r\n        __ReentrancyGuard_init();\r\n        \r\n        for (uint256 i = 0; i < poolInfos.length; i++) {\r\n            address[] memory _tokens = IUnoAssetRouter(poolInfos[i].assetRouter).getTokens(poolInfos[i].pool);\r\n            PoolInfo memory pool = PoolInfo({\r\n                pool: poolInfos[i].pool,\r\n                assetRouter: poolInfos[i].assetRouter,\r\n                tokenA: IERC20Upgradeable(_tokens[0]),\r\n                tokenB: IERC20Upgradeable(_tokens[1])\r\n            });\r\n            pools.push(pool);\r\n\r\n            if (pool.tokenA.allowance(address(this), address(pool.assetRouter)) == 0) {\r\n                pool.tokenA.approve(address(OdosRouter), type(uint256).max);\r\n                pool.tokenA.approve(address(pool.assetRouter), type(uint256).max);\r\n            }\r\n            if (pool.tokenB.allowance(address(this), address(pool.assetRouter)) == 0) {\r\n                pool.tokenB.approve(address(OdosRouter), type(uint256).max);\r\n                pool.tokenB.approve(address(pool.assetRouter), type(uint256).max);\r\n            }\r\n        }\r\n\r\n        accessManager = _accessManager;\r\n        lastMoveInfo.block = block.number;\r\n        factory = IUnoAutoStrategyFactory(msg.sender);\r\n        isInitialized = true;\r\n    }\r\n\r\n    /**\r\n     * @dev Deposits tokens in the pools[poolID] pool. Mints tokens representing user share. Emits {Deposit} event.\r\n     * @param pid - Current poolID. Throws revert if moveLiquidity() has been called before the transaction has been mined.\r\n     * @param amountA - Token A amount to deposit.\r\n     * @param amountB  - Token B amount to deposit.\r\n     * @param amountAMin - Bounds the extent to which the B/A price can go up before the transaction reverts.\r\n     * @param amountBMin - Bounds the extent to which the A/B price can go up before the transaction reverts.\r\n     * @param recipient - Address which will receive the deposit.\r\n     \r\n     * @return sentA - Deposited token A amount.\r\n     * @return sentB - Deposited token B amount.\r\n     * @return liquidity - Total liquidity minted for the {recipient}.\r\n     */\r\n    function deposit(uint256 pid, uint256 amountA, uint256 amountB, uint256 amountAMin, uint256 amountBMin, address recipient, address referrer) whenNotPaused nonReentrant external returns (uint256 sentA, uint256 sentB, uint256 liquidity) {\r\n        if(pid != poolID){\r\n            revert BAD_POOL_ID();\r\n        }\r\n        PoolInfo memory pool = pools[poolID];\r\n\r\n        pool.tokenA.safeTransferFrom(msg.sender, address(this), amountA);\r\n        pool.tokenB.safeTransferFrom(msg.sender, address(this), amountB);\r\n\r\n        uint256 amountLP;\r\n        (sentA, sentB, amountLP) = pool.assetRouter.deposit(pool.pool, amountA, amountB, amountAMin, amountBMin, address(this));\r\n        liquidity = mint(recipient, referrer);\r\n\r\n        if(amountA > sentA){\r\n            pool.tokenA.safeTransfer(msg.sender, amountA - sentA);\r\n        }\r\n        if(amountB > sentB){\r\n            pool.tokenB.safeTransfer(msg.sender, amountB - sentB);\r\n        }\r\n\r\n        emit DepositPairTokens(poolID, sentA, sentB);\r\n        emit Deposit(poolID, msg.sender, recipient, amountLP); \r\n    }\r\n\r\n    /**\r\n     * @dev Deposits tokens in the pools[poolID] pool. Mints tokens representing user share. Emits {Deposit} event.\r\n     * @param pid - Current poolID. Throws revert if moveLiquidity() has been called before the transaction has been mined.\r\n     * @param amountToken - Token amount to deposit.\r\n     * @param amountTokenMin - Bounds the extent to which the TOKEN/WBNB price can go up before the transaction reverts.\r\n     * @param amountETHMin - Bounds the extent to which the WBNB/TOKEN price can go up before the transaction reverts.\r\n     * @param recipient - Address which will receive the deposit.\r\n     \r\n     * @return sentToken - Deposited token amount.\r\n     * @return sentETH - Deposited ETH amount.\r\n     * @return liquidity - Total liquidity minted for the {recipient}.\r\n     */\r\n    function depositETH(uint256 pid, uint256 amountToken, uint256 amountTokenMin, uint256 amountETHMin, address recipient, address referrer) whenNotPaused nonReentrant external payable returns (uint256 sentToken, uint256 sentETH, uint256 liquidity) {\r\n        if(pid != poolID){\r\n            revert BAD_POOL_ID();\r\n        }\r\n        PoolInfo memory pool = pools[poolID];\r\n\r\n        IERC20Upgradeable token;\r\n        if (address(pool.tokenA) == WBNB) {\r\n            token = pool.tokenB;\r\n        } else if (address(pool.tokenB) == WBNB) {\r\n            token = pool.tokenA;\r\n        } else {\r\n            revert(\"NOT_WBNB_POOL\");\r\n        }\r\n        token.safeTransferFrom(msg.sender, address(this), amountToken);\r\n\r\n        uint256 amountLP;\r\n        (sentToken, sentETH, amountLP) = pool.assetRouter.depositETH{value: msg.value}(pool.pool, amountToken, amountTokenMin, amountETHMin, address(this));\r\n        liquidity = mint(recipient, referrer);\r\n\r\n        if(amountToken > sentToken){\r\n            token.safeTransfer(msg.sender, amountToken - sentToken);\r\n        }\r\n        if(msg.value > sentETH){\r\n            payable(msg.sender).transfer(msg.value - sentETH);\r\n        }\r\n\r\n        emit DepositPairTokensETH(poolID, sentToken, sentETH);\r\n        emit Deposit(poolID, msg.sender, recipient, amountLP); \r\n    }\r\n\r\n    /**\r\n     * @dev Deposits tokens in the pools[poolID] pool. Mints tokens representing user share. Emits {Deposit} event.\r\n     * @param pid - Current poolID. Throws revert if moveLiquidity() has been called before the transaction has been mined.\r\n     * @param token - Token to deposit.\r\n     * @param amount - {token} amount to deposit.\r\n     * @param swapData - Parameter with which 1inch router is being called with.\r\n     * @param amountAMin - Bounds the extent to which the B/A price can go up before the transaction reverts.\r\n     * @param amountBMin - Bounds the extent to which the A/B price can go up before the transaction reverts.\r\n     * @param recipient - Address which will receive the deposit.\r\n     \r\n     * @return sent - Total {token} amount sent to the farm. NOTE: Returns dust left from swap in {token}, but if A/B amounts are not correct also returns dust in pool's tokens.\r\n     * @return liquidity - Total liquidity minted for the {recipient}.\r\n     */\r\n    function depositSingleAsset(uint256 pid, address token, uint256 amount, bytes[2] calldata swapData, uint256 amountAMin, uint256 amountBMin, address recipient, address referrer) whenNotPaused nonReentrant external returns (uint256 sent, uint256 liquidity) {\r\n        if(pid != poolID){\r\n            revert BAD_POOL_ID();\r\n        }\r\n        PoolInfo memory pool = pools[poolID];\r\n\r\n        uint256 balanceA = pool.tokenA.balanceOf(address(this));\r\n        uint256 balanceB = pool.tokenB.balanceOf(address(this));\r\n\r\n        IERC20Upgradeable(token).safeTransferFrom(msg.sender, address(this), amount);\r\n        IERC20Upgradeable(token).approve(address(pool.assetRouter), amount);\r\n\r\n        uint256 amountLP;\r\n        (sent, amountLP) = pool.assetRouter.depositSingleAsset(pool.pool, token, amount, swapData, amountAMin, amountBMin, address(this));\r\n        liquidity = mint(recipient, referrer);\r\n\r\n        IERC20Upgradeable(token).safeTransfer(msg.sender, amount - sent);\r\n        uint256 _balanceA = pool.tokenA.balanceOf(address(this));\r\n        uint256 _balanceB = pool.tokenB.balanceOf(address(this));\r\n        if(_balanceA > balanceA){\r\n            pool.tokenA.safeTransfer(msg.sender, _balanceA - balanceA);\r\n        }\r\n        if(_balanceB > balanceB){\r\n            pool.tokenB.safeTransfer(msg.sender, _balanceB - balanceB);\r\n        }\r\n\r\n        emit DepositSingleToken(poolID, token, sent);\r\n        emit Deposit(poolID, msg.sender, recipient, amountLP);\r\n    }\r\n\r\n    /**\r\n     * @dev Deposits tokens in the pools[poolID] pool. Mints tokens representing user share. Emits {Deposit} event.\r\n     * @param pid - Current poolID. Throws revert if moveLiquidity() has been called before the transaction has been mined.\r\n     * @param swapData - Parameter with which 1inch router is being called with. NOTE: Use WBNB as toToken.\r\n     * @param amountAMin - Bounds the extent to which the B/A price can go up before the transaction reverts.\r\n     * @param amountBMin - Bounds the extent to which the A/B price can go up before the transaction reverts.\r\n     * @param recipient - Address which will receive the deposit.\r\n     \r\n     * @return sentETH - Total BNB amount sent to the farm. NOTE: Returns dust left from swap in BNB, but if A/B amount are not correct also returns dust in pool's tokens.\r\n     * @return liquidity - Total liquidity minted for the {recipient}.\r\n     */\r\n    function depositSingleETH(uint256 pid, bytes[2] calldata swapData, uint256 amountAMin, uint256 amountBMin, address recipient, address referrer) whenNotPaused nonReentrant external payable returns (uint256 sentETH, uint256 liquidity) {\r\n        if(pid != poolID){\r\n            revert BAD_POOL_ID();\r\n        }\r\n        PoolInfo memory pool = pools[poolID];\r\n\r\n        uint256 balanceA = pool.tokenA.balanceOf(address(this));\r\n        uint256 balanceB = pool.tokenB.balanceOf(address(this));\r\n\r\n        uint256 amountLP;\r\n        (sentETH, amountLP) = pool.assetRouter.depositSingleETH{value: msg.value}(pool.pool, swapData, amountAMin, amountBMin, address(this));\r\n        liquidity = mint(recipient, referrer);\r\n\r\n        payable(msg.sender).transfer(msg.value - sentETH);\r\n        uint256 _balanceA = pool.tokenA.balanceOf(address(this));\r\n        uint256 _balanceB = pool.tokenB.balanceOf(address(this));\r\n        if(_balanceA > balanceA){\r\n            pool.tokenA.safeTransfer(msg.sender, _balanceA - balanceA);\r\n        }\r\n        if(_balanceB > balanceB){\r\n            pool.tokenB.safeTransfer(msg.sender, _balanceB - balanceB);\r\n        }\r\n\r\n        emit DepositSingleETH(poolID, sentETH);\r\n        emit Deposit(poolID, msg.sender, recipient, amountLP); \r\n    }\r\n\r\n    /**\r\n     * @dev Withdraws tokens from the {pools[poolID]} pool and sends them to the recipient. Burns tokens representing user share. Emits {Withdraw} event.\r\n     * @param pid - Current poolID. Throws revert if moveLiquidity() has been called before the transaction has been mined.\r\n     * @param liquidity - Liquidity to burn from this user.\r\n     * @param amountAMin - The minimum amount of tokenA that must be received from the pool for the transaction not to revert.\r\n     * @param amountBMin - The minimum amount of tokenB that must be received from the pool for the transaction not to revert.\r\n     * @param recipient - Address which will receive withdrawn tokens.\r\n     \r\n     * @return amountA - Token A amount sent to the {recipient}.\r\n     * @return amountB - Token B amount sent to the {recipient}.\r\n     */\r\n    function withdraw(uint256 pid, uint256 liquidity, uint256 amountAMin, uint256 amountBMin, address recipient) whenNotPaused nonReentrant external returns (uint256 amountA, uint256 amountB) {\r\n        if(pid != poolID){\r\n            revert BAD_POOL_ID();\r\n        }\r\n        PoolInfo memory pool = pools[poolID];\r\n\r\n        (uint256 leftoverA, uint256 leftoverB) = collectLeftovers(recipient);\r\n\r\n        uint256 amountLP = burn(liquidity);\r\n        (amountA, amountB) = pool.assetRouter.withdraw(pool.pool, amountLP, amountAMin, amountBMin, recipient);\r\n\r\n        amountA += leftoverA;\r\n        amountB += leftoverB;\r\n\r\n        emit WithdrawPairTokens(poolID, amountA, amountB);\r\n        emit Withdraw(poolID, msg.sender, recipient, amountLP); \r\n    }\r\n\r\n    /**\r\n     * @dev Withdraws tokens from the {pools[poolID]} pool and sends them to the recipient. Burns tokens representing user share. Emits {Withdraw} event.\r\n     * @param pid - Current poolID. Throws revert if moveLiquidity() has been called before the transaction has been mined.\r\n     * @param liquidity - Liquidity to burn from this user.\r\n     * @param amountTokenMin - The minimum amount of tokenA that must be received from the pool for the transaction not to revert.\r\n     * @param amountETHMin - The minimum amount of tokenB that must be received from the pool for the transaction not to revert.\r\n     * @param recipient - Address which will receive withdrawn tokens.\r\n     \r\n     * @return amountToken - Token amount sent to the {recipient}.\r\n     * @return amountETH - BNB amount sent to the {recipient}.\r\n     */\r\n    function withdrawETH(uint256 pid, uint256 liquidity, uint256 amountTokenMin, uint256 amountETHMin, address recipient) whenNotPaused nonReentrant external returns (uint256 amountToken, uint256 amountETH) {\r\n        if(pid != poolID){\r\n            revert BAD_POOL_ID();\r\n        }\r\n        PoolInfo memory pool = pools[poolID];\r\n\r\n        (uint256 leftoverA, uint256 leftoverB) = collectLeftovers(recipient);\r\n\r\n        uint256 amountLP = burn(liquidity);\r\n        (amountToken, amountETH) = pool.assetRouter.withdrawETH(pool.pool, amountLP, amountTokenMin, amountETHMin, recipient);\r\n\r\n        if (address(pool.tokenA) == WBNB) {\r\n            amountETH += leftoverA;\r\n            amountToken += leftoverB;\r\n        } else if (address(pool.tokenB) == WBNB) {\r\n            amountToken += leftoverA;\r\n            amountETH += leftoverB;\r\n        } else {\r\n            revert(\"NOT_WBNB_POOL\");\r\n        }\r\n\r\n        emit WithdrawPairTokensETH(poolID, amountToken, amountETH);\r\n        emit Withdraw(poolID, msg.sender, recipient, amountLP); \r\n    }\r\n\r\n    /**\r\n     * @dev Withdraws tokens from the {pools[poolID]} pool and sends them to the recipient. Burns tokens representing user share. Emits {Withdraw} event.\r\n     * @param pid - Current poolID. Throws revert if moveLiquidity() has been called before the transaction has been mined.\r\n     * @param liquidity - Liquidity to burn from this user.\r\n     * @param token - Address of a token to exit the pool with.\r\n     * @param swapData - Parameter with which 1inch router is being called with.\r\n     * @param recipient - Address which will receive withdrawn tokens.\r\n     \r\n     * @return amountToken - {token} amount sent to the {recipient}.\r\n     * @return amountA - Token A dust sent to the {recipient}.\r\n     * @return amountB - Token B dust sent to the {recipient}.\r\n     */\r\n    function withdrawSingleAsset(uint256 pid, uint256 liquidity, address token, bytes[2] calldata swapData, address recipient) whenNotPaused nonReentrant external returns (uint256 amountToken, uint256 amountA, uint256 amountB) {\r\n        if(pid != poolID){\r\n            revert BAD_POOL_ID();\r\n        }\r\n        PoolInfo memory pool = pools[poolID];\r\n\r\n        (uint256 leftoverA, uint256 leftoverB) = collectLeftovers(recipient);\r\n\r\n        uint256 amountLP = burn(liquidity);\r\n        (amountToken, amountA, amountB) = pool.assetRouter.withdrawSingleAsset(pool.pool, amountLP, token, swapData, recipient);\r\n\r\n        amountA += leftoverA;\r\n        amountB += leftoverB;\r\n\r\n        emit WithdrawSingleToken(poolID, token, amountToken, amountA, amountB);\r\n        emit Withdraw(poolID, msg.sender, recipient, amountLP); \r\n    }\r\n\r\n    /**\r\n     * @dev Withdraws tokens from the {pools[poolID]} pool and sends them to the recipient. Burns tokens representing user share. Emits {Withdraw} event.\r\n     * @param pid - Current poolID. Throws revert if moveLiquidity() has been called before the transaction has been mined.\r\n     * @param liquidity - Liquidity to burn from this user.\r\n     * @param swapData - Parameter with which 1inch router is being called with.\r\n     * @param recipient - Address which will receive withdrawn tokens.\r\n     \r\n     * @return amountETH - BNB amount sent to the {recipient}.\r\n     * @return amountA - Token A dust sent to the {recipient}.\r\n     * @return amountB - Token B dust sent to the {recipient}.\r\n     */\r\n    function withdrawSingleETH(uint256 pid, uint256 liquidity, bytes[2] calldata swapData, address recipient) whenNotPaused nonReentrant external returns (uint256 amountETH, uint256 amountA, uint256 amountB) {\r\n        if(pid != poolID){\r\n            revert BAD_POOL_ID();\r\n        }\r\n        PoolInfo memory pool = pools[poolID];\r\n\r\n        (uint256 leftoverA, uint256 leftoverB) = collectLeftovers(recipient);\r\n\r\n        uint256 amountLP = burn(liquidity);\r\n        (amountETH, amountA, amountB) = pool.assetRouter.withdrawSingleETH(pool.pool, amountLP, swapData, recipient);\r\n\r\n        amountA += leftoverA;\r\n        amountB += leftoverB;\r\n\r\n        emit WithdrawSingleETH(poolID, amountETH, amountA, amountB);\r\n        emit Withdraw(poolID, msg.sender, recipient, amountLP); \r\n    }\r\n\r\n    /**\r\n     * @dev Collects leftover tokens left from moveLiquidity() function.\r\n     * @param recipient - Address which will receive leftover tokens.\r\n     \r\n     * @return leftoverA - Token A amount sent to the {recipient}.\r\n     * @return leftoverB - Token B amount sent to the {recipient}.\r\n     */\r\n    function collectLeftovers(address recipient) internal returns (uint256 leftoverA, uint256 leftoverB){\r\n        if(!leftoversCollected[msg.sender][lastMoveInfo.block]){\r\n            if(lastMoveInfo.totalSupply != 0){\r\n                PoolInfo memory pool = pools[poolID];\r\n                leftoverA = (balanceOf(msg.sender) - blockedLiquidty[msg.sender][lastMoveInfo.block]) * lastMoveInfo.leftoverA / lastMoveInfo.totalSupply;\r\n                leftoverB = (balanceOf(msg.sender) - blockedLiquidty[msg.sender][lastMoveInfo.block]) * lastMoveInfo.leftoverB / lastMoveInfo.totalSupply;\r\n\r\n                if(leftoverA > 0){\r\n                    pool.tokenA.safeTransfer(recipient, leftoverA);\r\n                }\r\n                if(leftoverB > 0){\r\n                    pool.tokenB.safeTransfer(recipient, leftoverB);\r\n                }\r\n            }\r\n\r\n            leftoversCollected[msg.sender][lastMoveInfo.block] = true;\r\n        }\r\n    }\r\n\r\n    /**\r\n     * @dev Moves liquidity from {pools[poolID]} to {pools[_poolID]}. Emits {MoveLiquidity} event.\r\n     * @param _poolID - Pool ID to move liquidity to.\r\n     * @param swapAData - Data for tokenA swap.\r\n     * @param swapBData - Data for tokenB swap.\r\n     * @param amountAMin - The minimum amount of tokenA that must be deposited in {pools[_poolID]} for the transaction not to revert.\r\n     * @param amountBMin - The minimum amount of tokenB that must be deposited in {pools[_poolID]} for the transaction not to revert.\r\n     *\r\n     * Note: This function can only be called by LiquidityManager.\r\n     */\r\n    function moveLiquidity(uint256 _poolID, bytes calldata swapAData, bytes calldata swapBData, uint256 amountAMin, uint256 amountBMin) whenNotPaused nonReentrant external {\r\n        if(!accessManager.hasRole(LIQUIDITY_MANAGER_ROLE, msg.sender)){\r\n            revert CALLER_NOT_LIQUIDITY_MANAGER();\r\n        }\r\n        if(totalSupply() == 0){\r\n            revert NO_LIQUIDITY();\r\n        }\r\n        if(lastMoveInfo.block == block.number){\r\n            revert CANT_CALL_ON_THE_SAME_BLOCK();\r\n        }\r\n        if((_poolID >= pools.length) || (_poolID == poolID)){\r\n            revert BAD_POOL_ID();\r\n        }\r\n\r\n        PoolInfo memory currentPool = pools[poolID];\r\n        PoolInfo memory newPool = pools[_poolID];\r\n\r\n        (uint256 _totalDeposits,,) = currentPool.assetRouter.userStake(address(this), currentPool.pool);\r\n        currentPool.assetRouter.withdraw(currentPool.pool, _totalDeposits, 0, 0, address(this));\r\n\r\n        uint256 tokenABalance = currentPool.tokenA.balanceOf(address(this));\r\n        uint256 tokenBBalance = currentPool.tokenB.balanceOf(address(this));\r\n\r\n        if(currentPool.tokenA != newPool.tokenA){\r\n            (\r\n                IOdosRouter.inputToken[] memory inputs, \r\n                IOdosRouter.outputToken[] memory outputs, \r\n                ,\r\n                uint256 valueOutMin,\r\n                address executor,\r\n                bytes memory pathDefinition\r\n            ) = abi.decode(swapAData[4:], (IOdosRouter.inputToken[],IOdosRouter.outputToken[],uint256,uint256,address,bytes));\r\n\r\n            // More descriptive errors would be nice but our contract size is very limited\r\n            if(\r\n                ((inputs.length != 1) || (outputs.length != 1)) ||\r\n                (inputs[0].tokenAddress != address(currentPool.tokenA)) ||\r\n                (outputs[0].tokenAddress != address(newPool.tokenA))\r\n            ){\r\n                revert BAD_SWAP_A();\r\n            }\r\n\r\n            inputs[0].amountIn = tokenABalance;\r\n            OdosRouter.swap(inputs, outputs, type(uint256).max, valueOutMin, executor, pathDefinition);\r\n        }\r\n\r\n        if(currentPool.tokenB != newPool.tokenB){\r\n            (\r\n                IOdosRouter.inputToken[] memory inputs,\r\n                IOdosRouter.outputToken[] memory outputs,\r\n                ,\r\n                uint256 valueOutMin,\r\n                address executor,\r\n                bytes memory pathDefinition\r\n            ) = abi.decode(swapBData[4:], (IOdosRouter.inputToken[],IOdosRouter.outputToken[],uint256,uint256,address,bytes));\r\n\r\n            // More descriptive errors would be nice but our contract size is very limited\r\n            if(\r\n                ((inputs.length != 1) || (outputs.length != 1)) ||\r\n                (inputs[0].tokenAddress != address(currentPool.tokenB)) ||\r\n                (outputs[0].tokenAddress != address(newPool.tokenB))\r\n            ){\r\n                revert BAD_SWAP_B();\r\n            }\r\n\r\n            inputs[0].amountIn = tokenBBalance;\r\n            OdosRouter.swap(inputs, outputs, type(uint256).max, valueOutMin, executor, pathDefinition);\r\n        }\r\n        \r\n        (,,reserveLP) = newPool.assetRouter.deposit(newPool.pool, newPool.tokenA.balanceOf(address(this)), newPool.tokenB.balanceOf(address(this)), amountAMin, amountBMin, address(this));\r\n       \r\n        lastMoveInfo = MoveLiquidityInfo({\r\n            leftoverA: newPool.tokenA.balanceOf(address(this)),\r\n            leftoverB: newPool.tokenB.balanceOf(address(this)),\r\n            totalSupply: totalSupply(),\r\n            block: block.number\r\n        });\r\n\r\n        emit MoveLiquidity(poolID, _poolID); \r\n        poolID = _poolID;\r\n    }\r\n\r\n    /**\r\n     * @dev Returns tokens staked by the {_address}. \r\n     * @param _address - The address to check stakes for.\r\n\r\n     * @return stakeA - Token A stake.\r\n     * @return stakeB - Token B stake.\r\n     * @return leftoverA - Token A Leftovers obligated to the {_address} after moveLiquidity() function call.\r\n     * @return leftoverB - Token B Leftovers obligated to the {_address} after moveLiquidity() function call.\r\n     */\r\n    function userStake(address _address) external view returns (uint256 stakeA, uint256 stakeB, uint256 leftoverA, uint256 leftoverB) {\r\n        uint256 _balance;\r\n        if(_address == address(0)){\r\n            revert();\r\n        } else if(accessManager.hasRole(FEE_COLLECTOR_ROLE, _address)){\r\n            _balance = balanceOf(_address) + (referrerInfo[_address].feeCollected + _getReferrerFee(address(0)) * 2) / 1 ether;\r\n        } else {\r\n            _balance = balanceOf(_address) + (referrerInfo[_address].feeCollected + _getReferrerFee(_address)) / 1 ether;\r\n        }\r\n\r\n        if(_balance != 0){\r\n            PoolInfo memory pool = pools[poolID];\r\n            (, uint256 balanceA, uint256 balanceB) = pool.assetRouter.userStake(address(this), pool.pool);\r\n\r\n            uint256 _totalSupply = totalSupply();\r\n            stakeA = _balance * balanceA / _totalSupply; \r\n            stakeB = _balance * balanceB / _totalSupply; \r\n            if((!leftoversCollected[msg.sender][lastMoveInfo.block]) && (lastMoveInfo.totalSupply != 0)){\r\n                leftoverA = (_balance - blockedLiquidty[_address][lastMoveInfo.block]) * lastMoveInfo.leftoverA / lastMoveInfo.totalSupply;\r\n                leftoverB = (_balance - blockedLiquidty[_address][lastMoveInfo.block]) * lastMoveInfo.leftoverB / lastMoveInfo.totalSupply;\r\n            }\r\n        }\r\n    }\r\n        \r\n    /**\r\n     * @dev Returns total amount locked in the pool. \r\n     * @return totalDepositsA - Token A deposits.\r\n     * @return totalDepositsB - Token B deposits.\r\n     */     \r\n    function totalDeposits() external view returns(uint256 totalDepositsA, uint256 totalDepositsB){\r\n        PoolInfo memory pool = pools[poolID];\r\n        (, totalDepositsA, totalDepositsB) = pool.assetRouter.userStake(address(this), pool.pool);\r\n\r\n        // Add leftover tokens.\r\n        totalDepositsA += pool.tokenA.balanceOf(address(this));\r\n        totalDepositsB += pool.tokenB.balanceOf(address(this));\r\n    }\r\n\r\n    /**\r\n     * @dev Returns the number of pools in the strategy. \r\n     */\r\n    function poolsLength() external view returns(uint256){\r\n        return pools.length;\r\n    }\r\n\r\n    /** \r\n     * @dev Returns pair of tokens currently in use.  \r\n     */ \r\n    function tokens() external view returns(address, address){ \r\n        PoolInfo memory pool = pools[poolID]; \r\n        return (address(pool.tokenA), address(pool.tokenB)); \r\n    }\r\n\r\n    function mint(address to, address referrer) internal returns (uint256 liquidity){\r\n        PoolInfo memory pool = pools[poolID];\r\n        (uint256 balanceLP,,) = pool.assetRouter.userStake(address(this), pool.pool);\r\n        uint256 amountLP = balanceLP - reserveLP;\r\n\r\n        uint256 _totalSupply = totalSupply();\r\n        if (_totalSupply == 0) {\r\n            liquidity = amountLP - MINIMUM_LIQUIDITY;\r\n            _mint(address(1), MINIMUM_LIQUIDITY);\r\n        } else {\r\n            liquidity = amountLP * _totalSupply / reserveLP;\r\n        }\r\n\r\n        if(liquidity == 0){\r\n            revert INSUFFICIENT_LIQUIDITY();\r\n        }\r\n\r\n        address _referrer = referrers[msg.sender];\r\n        // Can change referrer only for sender\r\n        if(_referrer != referrer){\r\n            referrers[msg.sender] = referrer;\r\n            uint256 balance = balanceOf(msg.sender);\r\n            // If == 0, we don't need to call _collectFee\r\n            if(balance > 0){\r\n                // Update referrer fee & subtract balance from referrer's deposits\r\n                _collectFee(_referrer);\r\n                referrerInfo[_referrer].deposits -= balance;\r\n\r\n                // Add balance to new referrer's deposits\r\n                _collectFee(referrer);\r\n                referrerInfo[referrer].deposits += balance;\r\n            }\r\n        }\r\n\r\n        _mint(to, liquidity);\r\n        reserveLP = balanceLP;\r\n    }\r\n\r\n    function burn(uint256 liquidity) internal returns (uint256 amountLP) {\r\n        PoolInfo memory pool = pools[poolID];\r\n        (uint256 balanceLP,,) = pool.assetRouter.userStake(address(this), pool.pool);\r\n\r\n        uint256 _totalSupply = totalSupply();\r\n        // Collect fee for the caller to their address\r\n        liquidity += collectFee(msg.sender);\r\n        amountLP = liquidity * balanceLP / _totalSupply; \r\n        if(amountLP == 0){\r\n            revert INSUFFICIENT_LIQUIDITY();\r\n        }\r\n        \r\n        _burn(msg.sender, liquidity);\r\n        reserveLP = balanceLP - amountLP;\r\n    }\r\n\r\n    /**\r\n      * @dev Collects fee and mints it to {referrer}.\r\n      * @param referrer - Address to collect fees for.\r\n      *\r\n      * @return fee - Fee collected.\r\n     */\r\n    function collectFee(address referrer) public returns (uint256 fee){\r\n        if(referrer == address(0)){\r\n            return 0;\r\n        }\r\n        \r\n        address recipient = referrer;\r\n        if(accessManager.hasRole(FEE_COLLECTOR_ROLE, referrer)){\r\n            referrer = address(0);\r\n        }\r\n\r\n        _collectFee(referrer);\r\n        fee = referrerInfo[referrer].feeCollected / 1 ether;\r\n        if(fee > 0){\r\n            _mint(recipient, fee);\r\n            fantomTotalSupply -= referrerInfo[referrer].feeCollected;\r\n            referrerInfo[referrer].feeCollected = 0;\r\n\r\n            emit CollectFee(recipient, fee);\r\n        }\r\n    }\r\n\r\n    function _getReferrerFee(address referrer) private view returns (uint256) {\r\n        uint256 deposits = referrerInfo[referrer].deposits;\r\n        uint256 lastFeeCollection = referrerInfo[referrer].lastFeeCollection;\r\n        if(deposits != 0 && lastFeeCollection != 0 && block.timestamp != lastFeeCollection){\r\n            // 60*60*24*365 = 31536000; 2% / 31536000 = 0.0000000634195839 % per second = 634195839 wei per second.\r\n            // Divide by 2 to mint equal amounts to feeCollector and to referrer.\r\n            return ((block.timestamp - lastFeeCollection) * 317097919 * deposits);\r\n        }\r\n        return 0;\r\n    }\r\n\r\n    function _collectFee(address referrer) private {\r\n        // Some autostrats were initialized before referral upgrade, so we initialize all liquidity as having address(0) as it's referrer here.\r\n        if(!isInitialized){\r\n            referrerInfo[address(0)].deposits = totalSupply();\r\n            isInitialized = true;\r\n        }\r\n\r\n        uint256 fee = _getReferrerFee(referrer);\r\n        if(fee > 0){\r\n            //referrer == address(0) is a special case for uno's fee collector.\r\n            if(referrer == address(0)){\r\n                fee *= 2;\r\n                referrerInfo[address(0)].feeCollected += fee;\r\n                fantomTotalSupply += fee;\r\n            } else {\r\n                referrerInfo[referrer].feeCollected += fee;\r\n                referrerInfo[address(0)].feeCollected += fee;\r\n                fantomTotalSupply += fee * 2;\r\n            }\r\n        }\r\n        \r\n        referrerInfo[referrer].lastFeeCollection = block.timestamp;\r\n    }\r\n\r\n    function _beforeTokenTransfer(address from, address to, uint256 amount) internal virtual override {\r\n        super._beforeTokenTransfer(from, to, amount);\r\n\r\n        // Decrease blockedLiquidty from {from} address, but no less then 0.\r\n        if(amount > blockedLiquidty[from][lastMoveInfo.block]){\r\n            blockedLiquidty[from][lastMoveInfo.block] = 0;\r\n        } else {\r\n            blockedLiquidty[from][lastMoveInfo.block] -= amount;\r\n        }\r\n        // Block {to} address from withdrawing their share of leftover tokens immediately.\r\n        blockedLiquidty[to][lastMoveInfo.block] += amount;\r\n\r\n        if(from != address(0)){\r\n            //Decrease referralDeposits from {from}'s referrer\r\n            address referrer = referrers[from];\r\n            _collectFee(referrer);\r\n            referrerInfo[referrer].deposits -= amount;\r\n        }\r\n        if(to != address(0)){\r\n            //Add referralDeposits to {to}'s referrer\r\n            address referrer = referrers[to];\r\n            _collectFee(referrer);\r\n            referrerInfo[referrer].deposits += amount;\r\n        }\r\n    }\r\n\r\n    function totalSupply() public view override returns (uint256) {\r\n        return super.totalSupply() + (fantomTotalSupply / 1 ether);\r\n    }\r\n}",
  "sourcePath": "C:\\Users\\jugli\\Desktop\\uno\\uno-contracts-bsc\\contracts\\autostrategy\\UnoAutoStrategy.sol",
  "compiler": {
    "name": "solc",
    "version": "0.8.10+commit.fc410830.Emscripten.clang"
  },
  "schemaVersion": "3.4.13",
  "updatedAt": "2023-05-24T14:58:09.818Z",
  "devdoc": {
    "kind": "dev",
    "methods": {
      "allowance(address,address)": {
        "details": "See {IERC20-allowance}."
      },
      "approve(address,uint256)": {
        "details": "See {IERC20-approve}. NOTE: If `amount` is the maximum `uint256`, the allowance is not updated on `transferFrom`. This is semantically equivalent to an infinite approval. Requirements: - `spender` cannot be the zero address."
      },
      "balanceOf(address)": {
        "details": "See {IERC20-balanceOf}."
      },
      "collectFee(address)": {
        "details": "Collects fee and mints it to {referrer}.",
        "params": {
          "referrer": "- Address to collect fees for."
        },
        "returns": {
          "fee": "- Fee collected."
        }
      },
      "decimals()": {
        "details": "Returns the number of decimals used to get its user representation. For example, if `decimals` equals `2`, a balance of `505` tokens should be displayed to a user as `5.05` (`505 / 10 ** 2`). Tokens usually opt for a value of 18, imitating the relationship between Ether and Wei. This is the value {ERC20} uses, unless this function is overridden; NOTE: This information is only used for _display_ purposes: it in no way affects any of the arithmetic of the contract, including {IERC20-balanceOf} and {IERC20-transfer}."
      },
      "decreaseAllowance(address,uint256)": {
        "details": "Atomically decreases the allowance granted to `spender` by the caller. This is an alternative to {approve} that can be used as a mitigation for problems described in {IERC20-approve}. Emits an {Approval} event indicating the updated allowance. Requirements: - `spender` cannot be the zero address. - `spender` must have allowance for the caller of at least `subtractedValue`."
      },
      "deposit(uint256,uint256,uint256,uint256,uint256,address,address)": {
        "details": "Deposits tokens in the pools[poolID] pool. Mints tokens representing user share. Emits {Deposit} event.",
        "params": {
          "amountA": "- Token A amount to deposit.",
          "amountAMin": "- Bounds the extent to which the B/A price can go up before the transaction reverts.",
          "amountB": "- Token B amount to deposit.",
          "amountBMin": "- Bounds the extent to which the A/B price can go up before the transaction reverts.",
          "pid": "- Current poolID. Throws revert if moveLiquidity() has been called before the transaction has been mined.",
          "recipient": "- Address which will receive the deposit."
        },
        "returns": {
          "liquidity": "- Total liquidity minted for the {recipient}.",
          "sentA": "- Deposited token A amount.",
          "sentB": "- Deposited token B amount."
        }
      },
      "depositETH(uint256,uint256,uint256,uint256,address,address)": {
        "details": "Deposits tokens in the pools[poolID] pool. Mints tokens representing user share. Emits {Deposit} event.",
        "params": {
          "amountETHMin": "- Bounds the extent to which the WBNB/TOKEN price can go up before the transaction reverts.",
          "amountToken": "- Token amount to deposit.",
          "amountTokenMin": "- Bounds the extent to which the TOKEN/WBNB price can go up before the transaction reverts.",
          "pid": "- Current poolID. Throws revert if moveLiquidity() has been called before the transaction has been mined.",
          "recipient": "- Address which will receive the deposit."
        },
        "returns": {
          "liquidity": "- Total liquidity minted for the {recipient}.",
          "sentETH": "- Deposited ETH amount.",
          "sentToken": "- Deposited token amount."
        }
      },
      "depositSingleAsset(uint256,address,uint256,bytes[2],uint256,uint256,address,address)": {
        "details": "Deposits tokens in the pools[poolID] pool. Mints tokens representing user share. Emits {Deposit} event.",
        "params": {
          "amount": "- {token} amount to deposit.",
          "amountAMin": "- Bounds the extent to which the B/A price can go up before the transaction reverts.",
          "amountBMin": "- Bounds the extent to which the A/B price can go up before the transaction reverts.",
          "pid": "- Current poolID. Throws revert if moveLiquidity() has been called before the transaction has been mined.",
          "recipient": "- Address which will receive the deposit.",
          "swapData": "- Parameter with which 1inch router is being called with.",
          "token": "- Token to deposit."
        },
        "returns": {
          "liquidity": "- Total liquidity minted for the {recipient}.",
          "sent": "- Total {token} amount sent to the farm. NOTE: Returns dust left from swap in {token}, but if A/B amounts are not correct also returns dust in pool's tokens."
        }
      },
      "depositSingleETH(uint256,bytes[2],uint256,uint256,address,address)": {
        "details": "Deposits tokens in the pools[poolID] pool. Mints tokens representing user share. Emits {Deposit} event.",
        "params": {
          "amountAMin": "- Bounds the extent to which the B/A price can go up before the transaction reverts.",
          "amountBMin": "- Bounds the extent to which the A/B price can go up before the transaction reverts.",
          "pid": "- Current poolID. Throws revert if moveLiquidity() has been called before the transaction has been mined.",
          "recipient": "- Address which will receive the deposit.",
          "swapData": "- Parameter with which 1inch router is being called with. NOTE: Use WBNB as toToken."
        },
        "returns": {
          "liquidity": "- Total liquidity minted for the {recipient}.",
          "sentETH": "- Total BNB amount sent to the farm. NOTE: Returns dust left from swap in BNB, but if A/B amount are not correct also returns dust in pool's tokens."
        }
      },
      "increaseAllowance(address,uint256)": {
        "details": "Atomically increases the allowance granted to `spender` by the caller. This is an alternative to {approve} that can be used as a mitigation for problems described in {IERC20-approve}. Emits an {Approval} event indicating the updated allowance. Requirements: - `spender` cannot be the zero address."
      },
      "moveLiquidity(uint256,bytes,bytes,uint256,uint256)": {
        "details": "Moves liquidity from {pools[poolID]} to {pools[_poolID]}. Emits {MoveLiquidity} event.",
        "params": {
          "_poolID": "- Pool ID to move liquidity to.",
          "amountAMin": "- The minimum amount of tokenA that must be deposited in {pools[_poolID]} for the transaction not to revert.",
          "amountBMin": "- The minimum amount of tokenB that must be deposited in {pools[_poolID]} for the transaction not to revert. Note: This function can only be called by LiquidityManager.",
          "swapAData": "- Data for tokenA swap.",
          "swapBData": "- Data for tokenB swap."
        }
      },
      "name()": {
        "details": "Returns the name of the token."
      },
      "poolsLength()": {
        "details": "Returns the number of pools in the strategy. "
      },
      "symbol()": {
        "details": "Returns the symbol of the token, usually a shorter version of the name."
      },
      "tokens()": {
        "details": "Returns pair of tokens currently in use.  "
      },
      "totalDeposits()": {
        "details": "Returns total amount locked in the pool. ",
        "returns": {
          "totalDepositsA": "- Token A deposits.",
          "totalDepositsB": "- Token B deposits."
        }
      },
      "totalSupply()": {
        "details": "See {IERC20-totalSupply}."
      },
      "transfer(address,uint256)": {
        "details": "See {IERC20-transfer}. Requirements: - `to` cannot be the zero address. - the caller must have a balance of at least `amount`."
      },
      "transferFrom(address,address,uint256)": {
        "details": "See {IERC20-transferFrom}. Emits an {Approval} event indicating the updated allowance. This is not required by the EIP. See the note at the beginning of {ERC20}. NOTE: Does not update the allowance if the current allowance is the maximum `uint256`. Requirements: - `from` and `to` cannot be the zero address. - `from` must have a balance of at least `amount`. - the caller must have allowance for ``from``'s tokens of at least `amount`."
      },
      "userStake(address)": {
        "details": "Returns tokens staked by the {_address}. ",
        "params": {
          "_address": "- The address to check stakes for."
        },
        "returns": {
          "leftoverA": "- Token A Leftovers obligated to the {_address} after moveLiquidity() function call.",
          "leftoverB": "- Token B Leftovers obligated to the {_address} after moveLiquidity() function call.",
          "stakeA": "- Token A stake.",
          "stakeB": "- Token B stake."
        }
      },
      "withdraw(uint256,uint256,uint256,uint256,address)": {
        "details": "Withdraws tokens from the {pools[poolID]} pool and sends them to the recipient. Burns tokens representing user share. Emits {Withdraw} event.",
        "params": {
          "amountAMin": "- The minimum amount of tokenA that must be received from the pool for the transaction not to revert.",
          "amountBMin": "- The minimum amount of tokenB that must be received from the pool for the transaction not to revert.",
          "liquidity": "- Liquidity to burn from this user.",
          "pid": "- Current poolID. Throws revert if moveLiquidity() has been called before the transaction has been mined.",
          "recipient": "- Address which will receive withdrawn tokens."
        },
        "returns": {
          "amountA": "- Token A amount sent to the {recipient}.",
          "amountB": "- Token B amount sent to the {recipient}."
        }
      },
      "withdrawETH(uint256,uint256,uint256,uint256,address)": {
        "details": "Withdraws tokens from the {pools[poolID]} pool and sends them to the recipient. Burns tokens representing user share. Emits {Withdraw} event.",
        "params": {
          "amountETHMin": "- The minimum amount of tokenB that must be received from the pool for the transaction not to revert.",
          "amountTokenMin": "- The minimum amount of tokenA that must be received from the pool for the transaction not to revert.",
          "liquidity": "- Liquidity to burn from this user.",
          "pid": "- Current poolID. Throws revert if moveLiquidity() has been called before the transaction has been mined.",
          "recipient": "- Address which will receive withdrawn tokens."
        },
        "returns": {
          "amountETH": "- BNB amount sent to the {recipient}.",
          "amountToken": "- Token amount sent to the {recipient}."
        }
      },
      "withdrawSingleAsset(uint256,uint256,address,bytes[2],address)": {
        "details": "Withdraws tokens from the {pools[poolID]} pool and sends them to the recipient. Burns tokens representing user share. Emits {Withdraw} event.",
        "params": {
          "liquidity": "- Liquidity to burn from this user.",
          "pid": "- Current poolID. Throws revert if moveLiquidity() has been called before the transaction has been mined.",
          "recipient": "- Address which will receive withdrawn tokens.",
          "swapData": "- Parameter with which 1inch router is being called with.",
          "token": "- Address of a token to exit the pool with."
        },
        "returns": {
          "amountA": "- Token A dust sent to the {recipient}.",
          "amountB": "- Token B dust sent to the {recipient}.",
          "amountToken": "- {token} amount sent to the {recipient}."
        }
      },
      "withdrawSingleETH(uint256,uint256,bytes[2],address)": {
        "details": "Withdraws tokens from the {pools[poolID]} pool and sends them to the recipient. Burns tokens representing user share. Emits {Withdraw} event.",
        "params": {
          "liquidity": "- Liquidity to burn from this user.",
          "pid": "- Current poolID. Throws revert if moveLiquidity() has been called before the transaction has been mined.",
          "recipient": "- Address which will receive withdrawn tokens.",
          "swapData": "- Parameter with which 1inch router is being called with."
        },
        "returns": {
          "amountA": "- Token A dust sent to the {recipient}.",
          "amountB": "- Token B dust sent to the {recipient}.",
          "amountETH": "- BNB amount sent to the {recipient}."
        }
      }
    },
    "stateVariables": {
      "OdosRouter": {
        "details": "Contract Variables: {OdosRouter} - Contract that executes swaps. {poolID} - Current pool the strategy uses ({pools} index). {pools} - Pools this strategy can use and move liquidity to. {reserveLP} - LP token reserve. {lastMoveInfo} - Info on last MoveLiquidity() block. {blockedLiquidty} - User's blocked LP tokens. Prevents user from stealing leftover tokens by depositing and exiting before moveLiquidity() has been called. {leftoversCollected} - Flag that prevents leftover token collection if they were already collected this MoveLiquidity() cycle. {accessManager} - Role manager contract. {factory} - The address of AutoStrategyFactory this contract was deployed by. {MINIMUM_LIQUIDITY} - Ameliorates rounding errors."
      },
      "fantomTotalSupply": {
        "details": "This is added to totalSupply internaly to get rid of _mint() inside _collectFee() to avoid recursive fee collection."
      },
      "referrerInfo": {
        "details": "maps referrer address to referrer info"
      },
      "referrers": {
        "details": "maps referral to referrer"
      }
    },
    "version": 1
  },
  "userdoc": {
    "kind": "user",
    "methods": {},
    "version": 1
  }
}