{
  "contractName": "UnoAssetRouterTraderjoe",
  "abi": [
    {
      "inputs": [],
      "stateMutability": "nonpayable",
      "type": "constructor"
    },
    {
      "anonymous": false,
      "inputs": [
        {
          "indexed": false,
          "internalType": "address",
          "name": "previousAdmin",
          "type": "address"
        },
        {
          "indexed": false,
          "internalType": "address",
          "name": "newAdmin",
          "type": "address"
        }
      ],
      "name": "AdminChanged",
      "type": "event"
    },
    {
      "anonymous": false,
      "inputs": [
        {
          "indexed": true,
          "internalType": "address",
          "name": "beacon",
          "type": "address"
        }
      ],
      "name": "BeaconUpgraded",
      "type": "event"
    },
    {
      "anonymous": false,
      "inputs": [
        {
          "indexed": true,
          "internalType": "address",
          "name": "lpPool",
          "type": "address"
        },
        {
          "indexed": true,
          "internalType": "address",
          "name": "sender",
          "type": "address"
        },
        {
          "indexed": true,
          "internalType": "address",
          "name": "recipient",
          "type": "address"
        },
        {
          "indexed": false,
          "internalType": "uint256",
          "name": "amount",
          "type": "uint256"
        }
      ],
      "name": "Deposit",
      "type": "event"
    },
    {
      "anonymous": false,
      "inputs": [
        {
          "indexed": true,
          "internalType": "address",
          "name": "lpPool",
          "type": "address"
        },
        {
          "indexed": false,
          "internalType": "uint256",
          "name": "reward",
          "type": "uint256"
        }
      ],
      "name": "Distribute",
      "type": "event"
    },
    {
      "anonymous": false,
      "inputs": [
        {
          "indexed": false,
          "internalType": "uint256",
          "name": "previousFee",
          "type": "uint256"
        },
        {
          "indexed": false,
          "internalType": "uint256",
          "name": "newFee",
          "type": "uint256"
        }
      ],
      "name": "FeeChanged",
      "type": "event"
    },
    {
      "anonymous": false,
      "inputs": [
        {
          "indexed": false,
          "internalType": "uint8",
          "name": "version",
          "type": "uint8"
        }
      ],
      "name": "Initialized",
      "type": "event"
    },
    {
      "anonymous": false,
      "inputs": [
        {
          "indexed": false,
          "internalType": "address",
          "name": "account",
          "type": "address"
        }
      ],
      "name": "Paused",
      "type": "event"
    },
    {
      "anonymous": false,
      "inputs": [
        {
          "indexed": false,
          "internalType": "address",
          "name": "account",
          "type": "address"
        }
      ],
      "name": "Unpaused",
      "type": "event"
    },
    {
      "anonymous": false,
      "inputs": [
        {
          "indexed": true,
          "internalType": "address",
          "name": "implementation",
          "type": "address"
        }
      ],
      "name": "Upgraded",
      "type": "event"
    },
    {
      "anonymous": false,
      "inputs": [
        {
          "indexed": true,
          "internalType": "address",
          "name": "lpPool",
          "type": "address"
        },
        {
          "indexed": true,
          "internalType": "address",
          "name": "sender",
          "type": "address"
        },
        {
          "indexed": true,
          "internalType": "address",
          "name": "recipient",
          "type": "address"
        },
        {
          "indexed": false,
          "internalType": "uint256",
          "name": "amount",
          "type": "uint256"
        }
      ],
      "name": "Withdraw",
      "type": "event"
    },
    {
      "inputs": [],
      "name": "TraderjoeRouter",
      "outputs": [
        {
          "internalType": "contract IUniswapV2Router01",
          "name": "",
          "type": "address"
        }
      ],
      "stateMutability": "view",
      "type": "function",
      "constant": true
    },
    {
      "inputs": [],
      "name": "WAVAX",
      "outputs": [
        {
          "internalType": "address",
          "name": "",
          "type": "address"
        }
      ],
      "stateMutability": "view",
      "type": "function",
      "constant": true
    },
    {
      "inputs": [],
      "name": "accessManager",
      "outputs": [
        {
          "internalType": "contract IUnoAccessManager",
          "name": "",
          "type": "address"
        }
      ],
      "stateMutability": "view",
      "type": "function",
      "constant": true
    },
    {
      "inputs": [],
      "name": "farmFactory",
      "outputs": [
        {
          "internalType": "contract IUnoFarmFactory",
          "name": "",
          "type": "address"
        }
      ],
      "stateMutability": "view",
      "type": "function",
      "constant": true
    },
    {
      "inputs": [],
      "name": "fee",
      "outputs": [
        {
          "internalType": "uint256",
          "name": "",
          "type": "uint256"
        }
      ],
      "stateMutability": "view",
      "type": "function",
      "constant": true
    },
    {
      "inputs": [],
      "name": "paused",
      "outputs": [
        {
          "internalType": "bool",
          "name": "",
          "type": "bool"
        }
      ],
      "stateMutability": "view",
      "type": "function",
      "constant": true
    },
    {
      "inputs": [],
      "name": "proxiableUUID",
      "outputs": [
        {
          "internalType": "bytes32",
          "name": "",
          "type": "bytes32"
        }
      ],
      "stateMutability": "view",
      "type": "function",
      "constant": true
    },
    {
      "inputs": [
        {
          "internalType": "address",
          "name": "newImplementation",
          "type": "address"
        }
      ],
      "name": "upgradeTo",
      "outputs": [],
      "stateMutability": "nonpayable",
      "type": "function"
    },
    {
      "inputs": [
        {
          "internalType": "address",
          "name": "newImplementation",
          "type": "address"
        },
        {
          "internalType": "bytes",
          "name": "data",
          "type": "bytes"
        }
      ],
      "name": "upgradeToAndCall",
      "outputs": [],
      "stateMutability": "payable",
      "type": "function",
      "payable": true
    },
    {
      "stateMutability": "payable",
      "type": "receive",
      "payable": true
    },
    {
      "inputs": [
        {
          "internalType": "address",
          "name": "_accessManager",
          "type": "address"
        },
        {
          "internalType": "address",
          "name": "_farmFactory",
          "type": "address"
        }
      ],
      "name": "initialize",
      "outputs": [],
      "stateMutability": "nonpayable",
      "type": "function"
    },
    {
      "inputs": [
        {
          "internalType": "address",
          "name": "lpPair",
          "type": "address"
        },
        {
          "internalType": "uint256",
          "name": "amountA",
          "type": "uint256"
        },
        {
          "internalType": "uint256",
          "name": "amountB",
          "type": "uint256"
        },
        {
          "internalType": "uint256",
          "name": "amountAMin",
          "type": "uint256"
        },
        {
          "internalType": "uint256",
          "name": "amountBMin",
          "type": "uint256"
        },
        {
          "internalType": "address",
          "name": "recipient",
          "type": "address"
        }
      ],
      "name": "deposit",
      "outputs": [
        {
          "internalType": "uint256",
          "name": "sentA",
          "type": "uint256"
        },
        {
          "internalType": "uint256",
          "name": "sentB",
          "type": "uint256"
        },
        {
          "internalType": "uint256",
          "name": "liquidity",
          "type": "uint256"
        }
      ],
      "stateMutability": "nonpayable",
      "type": "function"
    },
    {
      "inputs": [
        {
          "internalType": "address",
          "name": "lpPair",
          "type": "address"
        },
        {
          "internalType": "uint256",
          "name": "amountToken",
          "type": "uint256"
        },
        {
          "internalType": "uint256",
          "name": "amountTokenMin",
          "type": "uint256"
        },
        {
          "internalType": "uint256",
          "name": "amountETHMin",
          "type": "uint256"
        },
        {
          "internalType": "address",
          "name": "recipient",
          "type": "address"
        }
      ],
      "name": "depositETH",
      "outputs": [
        {
          "internalType": "uint256",
          "name": "sentToken",
          "type": "uint256"
        },
        {
          "internalType": "uint256",
          "name": "sentETH",
          "type": "uint256"
        },
        {
          "internalType": "uint256",
          "name": "liquidity",
          "type": "uint256"
        }
      ],
      "stateMutability": "payable",
      "type": "function",
      "payable": true
    },
    {
      "inputs": [
        {
          "internalType": "address",
          "name": "lpPair",
          "type": "address"
        },
        {
          "internalType": "address",
          "name": "token",
          "type": "address"
        },
        {
          "internalType": "uint256",
          "name": "amount",
          "type": "uint256"
        },
        {
          "internalType": "bytes[2]",
          "name": "swapData",
          "type": "bytes[2]"
        },
        {
          "internalType": "uint256",
          "name": "amountAMin",
          "type": "uint256"
        },
        {
          "internalType": "uint256",
          "name": "amountBMin",
          "type": "uint256"
        },
        {
          "internalType": "address",
          "name": "recipient",
          "type": "address"
        }
      ],
      "name": "depositSingleAsset",
      "outputs": [
        {
          "internalType": "uint256",
          "name": "sent",
          "type": "uint256"
        },
        {
          "internalType": "uint256",
          "name": "liquidity",
          "type": "uint256"
        }
      ],
      "stateMutability": "nonpayable",
      "type": "function"
    },
    {
      "inputs": [
        {
          "internalType": "address",
          "name": "lpPair",
          "type": "address"
        },
        {
          "internalType": "bytes[2]",
          "name": "swapData",
          "type": "bytes[2]"
        },
        {
          "internalType": "uint256",
          "name": "amountAMin",
          "type": "uint256"
        },
        {
          "internalType": "uint256",
          "name": "amountBMin",
          "type": "uint256"
        },
        {
          "internalType": "address",
          "name": "recipient",
          "type": "address"
        }
      ],
      "name": "depositSingleETH",
      "outputs": [
        {
          "internalType": "uint256",
          "name": "sentETH",
          "type": "uint256"
        },
        {
          "internalType": "uint256",
          "name": "liquidity",
          "type": "uint256"
        }
      ],
      "stateMutability": "payable",
      "type": "function",
      "payable": true
    },
    {
      "inputs": [
        {
          "internalType": "address",
          "name": "lpPair",
          "type": "address"
        },
        {
          "internalType": "uint256",
          "name": "amount",
          "type": "uint256"
        },
        {
          "internalType": "address",
          "name": "recipient",
          "type": "address"
        }
      ],
      "name": "depositLP",
      "outputs": [],
      "stateMutability": "nonpayable",
      "type": "function"
    },
    {
      "inputs": [
        {
          "internalType": "address",
          "name": "lpPair",
          "type": "address"
        },
        {
          "internalType": "uint256",
          "name": "amount",
          "type": "uint256"
        },
        {
          "internalType": "uint256",
          "name": "amountAMin",
          "type": "uint256"
        },
        {
          "internalType": "uint256",
          "name": "amountBMin",
          "type": "uint256"
        },
        {
          "internalType": "address",
          "name": "recipient",
          "type": "address"
        }
      ],
      "name": "withdraw",
      "outputs": [
        {
          "internalType": "uint256",
          "name": "amountA",
          "type": "uint256"
        },
        {
          "internalType": "uint256",
          "name": "amountB",
          "type": "uint256"
        }
      ],
      "stateMutability": "nonpayable",
      "type": "function"
    },
    {
      "inputs": [
        {
          "internalType": "address",
          "name": "lpPair",
          "type": "address"
        },
        {
          "internalType": "uint256",
          "name": "amount",
          "type": "uint256"
        },
        {
          "internalType": "uint256",
          "name": "amountTokenMin",
          "type": "uint256"
        },
        {
          "internalType": "uint256",
          "name": "amountETHMin",
          "type": "uint256"
        },
        {
          "internalType": "address",
          "name": "recipient",
          "type": "address"
        }
      ],
      "name": "withdrawETH",
      "outputs": [
        {
          "internalType": "uint256",
          "name": "amountToken",
          "type": "uint256"
        },
        {
          "internalType": "uint256",
          "name": "amountETH",
          "type": "uint256"
        }
      ],
      "stateMutability": "nonpayable",
      "type": "function"
    },
    {
      "inputs": [
        {
          "internalType": "address",
          "name": "lpPair",
          "type": "address"
        },
        {
          "internalType": "uint256",
          "name": "amount",
          "type": "uint256"
        },
        {
          "internalType": "address",
          "name": "token",
          "type": "address"
        },
        {
          "internalType": "bytes[2]",
          "name": "swapData",
          "type": "bytes[2]"
        },
        {
          "internalType": "address",
          "name": "recipient",
          "type": "address"
        }
      ],
      "name": "withdrawSingleAsset",
      "outputs": [
        {
          "internalType": "uint256",
          "name": "amountToken",
          "type": "uint256"
        },
        {
          "internalType": "uint256",
          "name": "amountA",
          "type": "uint256"
        },
        {
          "internalType": "uint256",
          "name": "amountB",
          "type": "uint256"
        }
      ],
      "stateMutability": "nonpayable",
      "type": "function"
    },
    {
      "inputs": [
        {
          "internalType": "address",
          "name": "lpPair",
          "type": "address"
        },
        {
          "internalType": "uint256",
          "name": "amount",
          "type": "uint256"
        },
        {
          "internalType": "bytes[2]",
          "name": "swapData",
          "type": "bytes[2]"
        },
        {
          "internalType": "address",
          "name": "recipient",
          "type": "address"
        }
      ],
      "name": "withdrawSingleETH",
      "outputs": [
        {
          "internalType": "uint256",
          "name": "amountETH",
          "type": "uint256"
        },
        {
          "internalType": "uint256",
          "name": "amountA",
          "type": "uint256"
        },
        {
          "internalType": "uint256",
          "name": "amountB",
          "type": "uint256"
        }
      ],
      "stateMutability": "nonpayable",
      "type": "function"
    },
    {
      "inputs": [
        {
          "internalType": "address",
          "name": "lpPair",
          "type": "address"
        },
        {
          "internalType": "uint256",
          "name": "amount",
          "type": "uint256"
        },
        {
          "internalType": "address",
          "name": "recipient",
          "type": "address"
        }
      ],
      "name": "withdrawLP",
      "outputs": [],
      "stateMutability": "nonpayable",
      "type": "function"
    },
    {
      "inputs": [
        {
          "internalType": "address",
          "name": "lpPair",
          "type": "address"
        },
        {
          "components": [
            {
              "internalType": "address[]",
              "name": "route",
              "type": "address[]"
            },
            {
              "internalType": "uint256",
              "name": "amountOutMin",
              "type": "uint256"
            }
          ],
          "internalType": "struct IUnoFarmTraderjoe.SwapInfo[4]",
          "name": "swapInfos",
          "type": "tuple[4]"
        },
        {
          "components": [
            {
              "internalType": "address[]",
              "name": "route",
              "type": "address[]"
            },
            {
              "internalType": "uint256",
              "name": "amountOutMin",
              "type": "uint256"
            }
          ],
          "internalType": "struct IUnoFarmTraderjoe.SwapInfo[2]",
          "name": "feeSwapInfo",
          "type": "tuple[2]"
        },
        {
          "internalType": "address",
          "name": "feeTo",
          "type": "address"
        }
      ],
      "name": "distribute",
      "outputs": [],
      "stateMutability": "nonpayable",
      "type": "function"
    },
    {
      "inputs": [
        {
          "internalType": "address",
          "name": "_address",
          "type": "address"
        },
        {
          "internalType": "address",
          "name": "lpPair",
          "type": "address"
        }
      ],
      "name": "userStake",
      "outputs": [
        {
          "internalType": "uint256",
          "name": "stakeLP",
          "type": "uint256"
        },
        {
          "internalType": "uint256",
          "name": "stakeA",
          "type": "uint256"
        },
        {
          "internalType": "uint256",
          "name": "stakeB",
          "type": "uint256"
        }
      ],
      "stateMutability": "view",
      "type": "function",
      "constant": true
    },
    {
      "inputs": [
        {
          "internalType": "address",
          "name": "lpPair",
          "type": "address"
        }
      ],
      "name": "totalDeposits",
      "outputs": [
        {
          "internalType": "uint256",
          "name": "totalDepositsLP",
          "type": "uint256"
        },
        {
          "internalType": "uint256",
          "name": "totalDepositsA",
          "type": "uint256"
        },
        {
          "internalType": "uint256",
          "name": "totalDepositsB",
          "type": "uint256"
        }
      ],
      "stateMutability": "view",
      "type": "function",
      "constant": true
    },
    {
      "inputs": [
        {
          "internalType": "address",
          "name": "lpPair",
          "type": "address"
        }
      ],
      "name": "getTokens",
      "outputs": [
        {
          "internalType": "contract IERC20Upgradeable[]",
          "name": "tokens",
          "type": "address[]"
        }
      ],
      "stateMutability": "view",
      "type": "function",
      "constant": true
    },
    {
      "inputs": [
        {
          "internalType": "uint256",
          "name": "_fee",
          "type": "uint256"
        }
      ],
      "name": "setFee",
      "outputs": [],
      "stateMutability": "nonpayable",
      "type": "function"
    },
    {
      "inputs": [],
      "name": "pause",
      "outputs": [],
      "stateMutability": "nonpayable",
      "type": "function"
    },
    {
      "inputs": [],
      "name": "unpause",
      "outputs": [],
      "stateMutability": "nonpayable",
      "type": "function"
    }
  ],
  "bytecode": "0x60a0604052306080523480156200001557600080fd5b506200002062000026565b62000156565b6200003260ff62000035565b50565b60008054610100900460ff1615620000ce578160ff1660011480156200006e57506200006c306200014760201b620033bc1760201c565b155b620000c65760405162461bcd60e51b815260206004820152602e6024820152600080516020620054d283398151915260448201526d191e481a5b9a5d1a585b1a5e995960921b60648201526084015b60405180910390fd5b506000919050565b60005460ff8084169116106200012d5760405162461bcd60e51b815260206004820152602e6024820152600080516020620054d283398151915260448201526d191e481a5b9a5d1a585b1a5e995960921b6064820152608401620000bd565b506000805460ff191660ff92909216919091179055600190565b6001600160a01b03163b151590565b6080516153446200018e60003960008181610c3901528181610c79015281816112bb015281816112fb015261149801526153446000f3fe6080604052600436106101a05760003560e01c806369fe0e2d116100ec578063d84ff8421161008a578063e50e637111610064578063e50e637114610530578063e940325614610550578063fdcb606814610570578063fefa40941461059057600080fd5b8063d84ff842146104da578063ddca3f43146104fa578063deb03f4d1461051057600080fd5b806373b295c2116100c657806373b295c2146104705780637d795628146104925780638456cb59146104a5578063a475626c146104ba57600080fd5b806369fe0e2d146103fb5780636c2b55171461041b5780636d25e1751461045057600080fd5b806346dafa2f1161015957806351bdca3e1161013357806351bdca3e1461037557806352d1902d146103955780635c975abb146103b85780636505e65e146103db57600080fd5b806346dafa2f14610322578063485cc955146103425780634f1ef2861461036257600080fd5b80630f6ff7b4146102205780631ad88180146102655780632f2255cc146102855780633659cfe6146102c05780633f4ba83a146102e0578063450efe21146102f557600080fd5b3661021b57336000805160206152ef83398151915214806101d45750337360ae616a2155ee3d9a68541ba4544862310933d4145b6102195760405162461bcd60e51b815260206004820152601160248201527009e9c98b2be8286868aa0a8beae82ac82b607b1b60448201526064015b60405180910390fd5b005b600080fd5b34801561022c57600080fd5b506102487360ae616a2155ee3d9a68541ba4544862310933d481565b6040516001600160a01b0390911681526020015b60405180910390f35b34801561027157600080fd5b506102196102803660046146f5565b6105a3565b34801561029157600080fd5b506102a56102a0366004614787565b6107e4565b6040805193845260208401929092529082015260600161025c565b3480156102cc57600080fd5b506102196102db366004614808565b610c2e565b3480156102ec57600080fd5b50610219610d0e565b34801561030157600080fd5b50610315610310366004614808565b610dc5565b60405161025c9190614825565b34801561032e57600080fd5b5061021961033d366004614872565b610f14565b34801561034e57600080fd5b5061021961035d3660046148b4565b61110a565b610219610370366004614903565b6112b0565b34801561038157600080fd5b506102a56103903660046148b4565b611381565b3480156103a157600080fd5b506103aa61148b565b60405190815260200161025c565b3480156103c457600080fd5b5060335460ff16604051901515815260200161025c565b3480156103e757600080fd5b506102a56103f63660046149c7565b61153e565b34801561040757600080fd5b50610219610416366004614a25565b61184d565b34801561042757600080fd5b5061043b610436366004614a3e565b61196c565b6040805192835260208301919091520161025c565b34801561045c57600080fd5b5060c954610248906001600160a01b031681565b34801561047c57600080fd5b506102486000805160206152ef83398151915281565b61043b6104a0366004614ad2565b611e16565b3480156104b157600080fd5b506102196123a0565b3480156104c657600080fd5b506102a56104d5366004614b3c565b612457565b3480156104e657600080fd5b5061043b6104f5366004614b8c565b612940565b34801561050657600080fd5b506103aa60cc5481565b34801561051c57600080fd5b5061043b61052b366004614b8c565b612b52565b34801561053c57600080fd5b5061021961054b366004614872565b612e0d565b34801561055c57600080fd5b506102a561056b366004614808565b612f43565b34801561057c57600080fd5b5060ca54610248906001600160a01b031681565b6102a561059e366004614b8c565b613045565b60335460ff16156105c65760405162461bcd60e51b815260040161021090614bd4565b60ca54604051632474521560e21b81527ffbd454f36a7e1a388bd6fc3ab10d434aa4578f811acbbcf33afb1c697486313c60048201819052336024830152916001600160a01b0316906391d1485490604401602060405180830381865afa158015610635573d6000803e3d6000fd5b505050506040513d601f19601f820116820180604052508101906106599190614bfe565b6106755760405162461bcd60e51b815260040161021090614c20565b60c95460405163f9d9331d60e01b81526001600160a01b038781166004830152600092169063f9d9331d90602401602060405180830381865afa1580156106c0573d6000803e3d6000fd5b505050506040513d601f19601f820116820180604052508101906106e49190614c4f565b90506001600160a01b03811661070c5760405162461bcd60e51b815260040161021090614c6c565b6040805180820182526001600160a01b03858116825260cc546020830152915163047f792560e11b81526000928416916308fef24a91610753918a918a9190600401614d80565b6020604051808303816000875af1158015610772573d6000803e3d6000fd5b505050506040513d601f19601f820116820180604052508101906107969190614e94565b9050866001600160a01b03167fc1d32ad5cca423e7dda2123dbf8c482f8e77d00b631c06e903a47f2cec1334df826040516107d391815260200190565b60405180910390a250505050505050565b60c95460405163f9d9331d60e01b81526001600160a01b038781166004830152600092839283928392169063f9d9331d90602401602060405180830381865afa158015610835573d6000803e3d6000fd5b505050506040513d601f19601f820116820180604052508101906108599190614c4f565b90506001600160a01b0381166108815760405162461bcd60e51b815260040161021090614c6c565b604051632d182be560e21b81526001600160a01b0382169063b460af94906108b1908b9033903090600401614ead565b600060405180830381600087803b1580156108cb57600080fd5b505af11580156108df573d6000803e3d6000fd5b505050506000816001600160a01b0316630fc63d106040518163ffffffff1660e01b8152600401602060405180830381865afa158015610923573d6000803e3d6000fd5b505050506040513d601f19601f820116820180604052508101906109479190614c4f565b90506000826001600160a01b0316635f64b55b6040518163ffffffff1660e01b8152600401602060405180830381865afa158015610989573d6000803e3d6000fd5b505050506040513d601f19601f820116820180604052508101906109ad9190614c4f565b90506109bf8b83838d600080306133cb565b90955093506001600160a01b03828116908a1614610aba5760405163095ea7b360e01b81526001600160a01b0383169063095ea7b390610a1990731111111254eeb25477b68fb85ed929f73a960582908990600401614ecc565b6020604051808303816000875af1158015610a38573d6000803e3d6000fd5b505050506040513d601f19601f82011682018060405250810190610a5c9190614bfe565b50600080610a7c8a825b602002810190610a769190614efb565b8d61350c565b9092509050610a8b8289614f5f565b9750610a978188614f77565b96508615610ab357610ab36001600160a01b0385168a89613716565b5050610acb565b610ac48587614f5f565b9550600094505b886001600160a01b0316816001600160a01b031614610bb65760405163095ea7b360e01b81526001600160a01b0382169063095ea7b390610b2690731111111254eeb25477b68fb85ed929f73a960582908890600401614ecc565b6020604051808303816000875af1158015610b45573d6000803e3d6000fd5b505050506040513d601f19601f82011682018060405250810190610b699190614bfe565b50600080610b788a6001610a66565b9092509050610b878289614f5f565b9750610b938187614f77565b95508515610baf57610baf6001600160a01b0384168a88613716565b5050610bc7565b610bc08487614f5f565b9550600093505b610bdb6001600160a01b038a168888613716565b866001600160a01b0316336001600160a01b03168c6001600160a01b03166000805160206152688339815191528d604051610c1891815260200190565b60405180910390a4505050955095509592505050565b306001600160a01b037f0000000000000000000000000000000000000000000000000000000000000000161415610c775760405162461bcd60e51b815260040161021090614f8e565b7f00000000000000000000000000000000000000000000000000000000000000006001600160a01b0316610cc0600080516020615288833981519152546001600160a01b031690565b6001600160a01b031614610ce65760405162461bcd60e51b815260040161021090614fda565b610cef8161376c565b60408051600080825260208201909252610d0b918391906137fe565b50565b60ca54604051632474521560e21b81527f65d7a28e3265b37a6474929f336521b332c1681b933f6cb9f3376673440d862a60048201819052336024830152916001600160a01b0316906391d1485490604401602060405180830381865afa158015610d7d573d6000803e3d6000fd5b505050506040513d601f19601f82011682018060405250810190610da19190614bfe565b610dbd5760405162461bcd60e51b815260040161021090614c20565b610d0b613969565b6040805160028082526060808301845292602083019080368337019050509050816001600160a01b0316630dfe16816040518163ffffffff1660e01b8152600401602060405180830381865afa158015610e23573d6000803e3d6000fd5b505050506040513d601f19601f82011682018060405250810190610e479190614c4f565b81600081518110610e5a57610e5a614ee5565b60200260200101906001600160a01b031690816001600160a01b031681525050816001600160a01b031663d21220a76040518163ffffffff1660e01b8152600401602060405180830381865afa158015610eb8573d6000803e3d6000fd5b505050506040513d601f19601f82011682018060405250810190610edc9190614c4f565b81600181518110610eef57610eef614ee5565b60200260200101906001600160a01b031690816001600160a01b031681525050919050565b60335460ff1615610f375760405162461bcd60e51b815260040161021090614bd4565b60008211610f575760405162461bcd60e51b815260040161021090615026565b60c95460405163f9d9331d60e01b81526001600160a01b038581166004830152600092169063f9d9331d90602401602060405180830381865afa158015610fa2573d6000803e3d6000fd5b505050506040513d601f19601f82011682018060405250810190610fc69190614c4f565b90506001600160a01b0381166110485760c954604051621849e360e61b81526001600160a01b0386811660048301529091169063061278c0906024016020604051808303816000875af1158015611021573d6000803e3d6000fd5b505050506040513d601f19601f820116820180604052508101906110459190614c4f565b90505b61105d6001600160a01b0385163383866139fc565b604051636e553f6560e01b8152600481018490526001600160a01b038381166024830152821690636e553f6590604401600060405180830381600087803b1580156110a757600080fd5b505af11580156110bb573d6000803e3d6000fd5b50505050816001600160a01b0316336001600160a01b0316856001600160a01b03166000805160206152a8833981519152866040516110fc91815260200190565b60405180910390a450505050565b60006111166001613a3a565b9050801561112e576000805461ff0019166101001790555b6001600160a01b0383166111795760405162461bcd60e51b81526020600482015260126024820152712120a22fa0a1a1a2a9a9afa6a0a720a3a2a960711b6044820152606401610210565b6001600160a01b0382166111c25760405162461bcd60e51b815260206004820152601060248201526f4241445f4641524d5f464143544f525960801b6044820152606401610210565b6111ca613ac2565b60ca80546001600160a01b0319166001600160a01b03851690811790915560408051631d6c8e3f60e21b815290516375b238fc916004808201926020929091908290030181865afa158015611223573d6000803e3d6000fd5b505050506040513d601f19601f820116820180604052508101906112479190614e94565b60cb5560c980546001600160a01b0319166001600160a01b03841617905580156112ab576000805461ff0019169055604051600181527f7f26b83ff96e1f2b6a682f133852f6798a09c465da95921460cefb38474024989060200160405180910390a15b505050565b306001600160a01b037f00000000000000000000000000000000000000000000000000000000000000001614156112f95760405162461bcd60e51b815260040161021090614f8e565b7f00000000000000000000000000000000000000000000000000000000000000006001600160a01b0316611342600080516020615288833981519152546001600160a01b031690565b6001600160a01b0316146113685760405162461bcd60e51b815260040161021090614fda565b6113718261376c565b61137d828260016137fe565b5050565b60c95460405163f9d9331d60e01b81526001600160a01b038381166004830152600092839283928392169063f9d9331d90602401602060405180830381865afa1580156113d2573d6000803e3d6000fd5b505050506040513d601f19601f820116820180604052508101906113f69190614c4f565b90506001600160a01b0381161561148357604051630103c92b60e01b81526001600160a01b038781166004830152821690630103c92b90602401602060405180830381865afa15801561144d573d6000803e3d6000fd5b505050506040513d601f19601f820116820180604052508101906114719190614e94565b935061147d8585613af3565b90935091505b509250925092565b6000306001600160a01b037f0000000000000000000000000000000000000000000000000000000000000000161461152b5760405162461bcd60e51b815260206004820152603860248201527f555550535570677261646561626c653a206d757374206e6f742062652063616c60448201527f6c6564207468726f7567682064656c656761746563616c6c00000000000000006064820152608401610210565b5060008051602061528883398151915290565b600080600061154f60335460ff1690565b1561156c5760405162461bcd60e51b815260040161021090614bd4565b60008811801561157c5750600087115b6115985760405162461bcd60e51b81526004016102109061504d565b60c95460405163f9d9331d60e01b81526001600160a01b038b81166004830152600092169063f9d9331d90602401602060405180830381865afa1580156115e3573d6000803e3d6000fd5b505050506040513d601f19601f820116820180604052508101906116079190614c4f565b90506001600160a01b0381166116895760c954604051621849e360e61b81526001600160a01b038c811660048301529091169063061278c0906024016020604051808303816000875af1158015611662573d6000803e3d6000fd5b505050506040513d601f19601f820116820180604052508101906116869190614c4f565b90505b6000816001600160a01b0316630fc63d106040518163ffffffff1660e01b8152600401602060405180830381865afa1580156116c9573d6000803e3d6000fd5b505050506040513d601f19601f820116820180604052508101906116ed9190614c4f565b90506000826001600160a01b0316635f64b55b6040518163ffffffff1660e01b8152600401602060405180830381865afa15801561172f573d6000803e3d6000fd5b505050506040513d601f19601f820116820180604052508101906117539190614c4f565b905061176a6001600160a01b03831633308e6139fc565b61177f6001600160a01b03821633308d6139fc565b61178e82828d8d8d8d89613d2e565b604051636e553f6560e01b8152600481018290526001600160a01b038b81166024830152939950919750955090841690636e553f6590604401600060405180830381600087803b1580156117e157600080fd5b505af11580156117f5573d6000803e3d6000fd5b50505050866001600160a01b0316336001600160a01b03168d6001600160a01b03166000805160206152a88339815191528760405161183691815260200190565b60405180910390a450505096509650969350505050565b60cb5460ca54604051632474521560e21b8152600481018390523360248201526001600160a01b03909116906391d1485490604401602060405180830381865afa15801561189f573d6000803e3d6000fd5b505050506040513d601f19601f820116820180604052508101906118c39190614bfe565b6118df5760405162461bcd60e51b815260040161021090614c20565b670de0b6b3a76400008211156119215760405162461bcd60e51b81526020600482015260076024820152664241445f46454560c81b6044820152606401610210565b8160cc541461137d5760cc5460408051918252602082018490527f5fc463da23c1b063e66f9e352006a7fbe8db7223c455dc429e881a2dfe2f94f1910160405180910390a15060cc55565b60008061197b60335460ff1690565b156119985760405162461bcd60e51b815260040161021090614bd4565b600087116119b85760405162461bcd60e51b815260040161021090615026565b60c95460405163f9d9331d60e01b81526001600160a01b038b81166004830152600092169063f9d9331d90602401602060405180830381865afa158015611a03573d6000803e3d6000fd5b505050506040513d601f19601f82011682018060405250810190611a279190614c4f565b90506001600160a01b038116611aa95760c954604051621849e360e61b81526001600160a01b038c811660048301529091169063061278c0906024016020604051808303816000875af1158015611a82573d6000803e3d6000fd5b505050506040513d601f19601f82011682018060405250810190611aa69190614c4f565b90505b611abe6001600160a01b038a1633308b6139fc565b60405163095ea7b360e01b81526001600160a01b038a169063095ea7b390611b0090731111111254eeb25477b68fb85ed929f73a960582908c90600401614ecc565b6020604051808303816000875af1158015611b1f573d6000803e3d6000fd5b505050506040513d601f19601f82011682018060405250810190611b439190614bfe565b508792506000806000836001600160a01b0316630fc63d106040518163ffffffff1660e01b8152600401602060405180830381865afa158015611b8a573d6000803e3d6000fd5b505050506040513d601f19601f82011682018060405250810190611bae9190614c4f565b90506000846001600160a01b0316635f64b55b6040518163ffffffff1660e01b8152600401602060405180830381865afa158015611bf0573d6000803e3d6000fd5b505050506040513d601f19601f82011682018060405250810190611c149190614c4f565b90508c6001600160a01b0316826001600160a01b031614611c6457600080611c4e8d825b602002810190611c489190614efb565b8661350c565b9092509050611c5d818f614f77565b9d50909450505b8c6001600160a01b0316816001600160a01b031614611cb357600080611c9d8d60015b602002810190611c979190614efb565b8561350c565b9092509050611cac818f614f77565b9d50909350505b8c6001600160a01b0316826001600160a01b03161415611cd5578b9350611d1d565b8c6001600160a01b0316816001600160a01b03161415611cf7578b9250611d1d565b8b15611d1d57611d078c88614f77565b9650611d1d6001600160a01b038e16338e613716565b600084118015611d2d5750600083115b611d495760405162461bcd60e51b81526004016102109061504d565b611d58828286868e8e8b613d2e565b604051636e553f6560e01b8152600481018290526001600160a01b038c811660248301529199509088169250636e553f659150604401600060405180830381600087803b158015611da857600080fd5b505af1158015611dbc573d6000803e3d6000fd5b50505050876001600160a01b0316336001600160a01b03168f6001600160a01b03166000805160206152a883398151915289604051611dfd91815260200190565b60405180910390a4505050505097509795505050505050565b600080611e2560335460ff1690565b15611e425760405162461bcd60e51b815260040161021090614bd4565b60003411611e815760405162461bcd60e51b815260206004820152600c60248201526b1393d7d055905617d4d1539560a21b6044820152606401610210565b60c95460405163f9d9331d60e01b81526001600160a01b038981166004830152600092169063f9d9331d90602401602060405180830381865afa158015611ecc573d6000803e3d6000fd5b505050506040513d601f19601f82011682018060405250810190611ef09190614c4f565b90506001600160a01b038116611f725760c954604051621849e360e61b81526001600160a01b038a811660048301529091169063061278c0906024016020604051808303816000875af1158015611f4b573d6000803e3d6000fd5b505050506040513d601f19601f82011682018060405250810190611f6f9190614c4f565b90505b60003490506000805160206152ef8339815191526001600160a01b031663d0e30db0826040518263ffffffff1660e01b81526004016000604051808303818588803b158015611fc057600080fd5b505af1158015611fd4573d6000803e3d6000fd5b505060405163095ea7b360e01b81526000805160206152ef833981519152935063095ea7b392506120209150731111111254eeb25477b68fb85ed929f73a960582908590600401614ecc565b6020604051808303816000875af115801561203f573d6000803e3d6000fd5b505050506040513d601f19601f820116820180604052508101906120639190614bfe565b508093506000806000846001600160a01b0316630fc63d106040518163ffffffff1660e01b8152600401602060405180830381865afa1580156120aa573d6000803e3d6000fd5b505050506040513d601f19601f820116820180604052508101906120ce9190614c4f565b90506000856001600160a01b0316635f64b55b6040518163ffffffff1660e01b8152600401602060405180830381865afa158015612110573d6000803e3d6000fd5b505050506040513d601f19601f820116820180604052508101906121349190614c4f565b90506001600160a01b0382166000805160206152ef83398151915214612177576000806121618e82611c38565b90925090506121708188614f77565b9650909450505b6001600160a01b0381166000805160206152ef833981519152146121b9576000806121a38e6001611c87565b90925090506121b28188614f77565b9650909350505b6001600160a01b0382166000805160206152ef83398151915214156121e0578493506122a8565b6001600160a01b0381166000805160206152ef8339815191521415612207578492506122a8565b84156122a8576122178589614f77565b604051632e1a7d4d60e01b8152600481018790529098506000805160206152ef83398151915290632e1a7d4d90602401600060405180830381600087803b15801561226157600080fd5b505af1158015612275573d6000803e3d6000fd5b505060405133925087156108fc02915087906000818181858888f193505050501580156122a6573d6000803e3d6000fd5b505b6000841180156122b85750600083115b6122d45760405162461bcd60e51b81526004016102109061504d565b6122e3828286868f8f8c613d2e565b604051636e553f6560e01b8152600481018290526001600160a01b038d81166024830152919a509089169250636e553f659150604401600060405180830381600087803b15801561233357600080fd5b505af1158015612347573d6000803e3d6000fd5b50505050886001600160a01b0316336001600160a01b03168e6001600160a01b03166000805160206152a88339815191528a60405161238891815260200190565b60405180910390a45050505050509550959350505050565b60ca54604051632474521560e21b81527f65d7a28e3265b37a6474929f336521b332c1681b933f6cb9f3376673440d862a60048201819052336024830152916001600160a01b0316906391d1485490604401602060405180830381865afa15801561240f573d6000803e3d6000fd5b505050506040513d601f19601f820116820180604052508101906124339190614bfe565b61244f5760405162461bcd60e51b815260040161021090614c20565b610d0b613f51565b60c95460405163f9d9331d60e01b81526001600160a01b038681166004830152600092839283928392169063f9d9331d90602401602060405180830381865afa1580156124a8573d6000803e3d6000fd5b505050506040513d601f19601f820116820180604052508101906124cc9190614c4f565b90506001600160a01b0381166124f45760405162461bcd60e51b815260040161021090614c6c565b604051632d182be560e21b81526001600160a01b0382169063b460af9490612524908a9033903090600401614ead565b600060405180830381600087803b15801561253e57600080fd5b505af1158015612552573d6000803e3d6000fd5b505050506000816001600160a01b0316630fc63d106040518163ffffffff1660e01b8152600401602060405180830381865afa158015612596573d6000803e3d6000fd5b505050506040513d601f19601f820116820180604052508101906125ba9190614c4f565b90506000826001600160a01b0316635f64b55b6040518163ffffffff1660e01b8152600401602060405180830381865afa1580156125fc573d6000803e3d6000fd5b505050506040513d601f19601f820116820180604052508101906126209190614c4f565b90506126328a83838c600080306133cb565b90955093506001600160a01b0382166000805160206152ef833981519152146127465760405163095ea7b360e01b81526001600160a01b0383169063095ea7b39061269790731111111254eeb25477b68fb85ed929f73a960582908990600401614ecc565b6020604051808303816000875af11580156126b6573d6000803e3d6000fd5b505050506040513d601f19601f820116820180604052508101906126da9190614bfe565b506000806127088a825b6020028101906126f49190614efb565b6000805160206152ef83398151915261350c565b90925090506127178289614f5f565b97506127238188614f77565b9650861561273f5761273f6001600160a01b0385168a89613716565b5050612757565b6127508587614f5f565b9550600094505b6001600160a01b0381166000805160206152ef833981519152146128475760405163095ea7b360e01b81526001600160a01b0382169063095ea7b3906127b790731111111254eeb25477b68fb85ed929f73a960582908890600401614ecc565b6020604051808303816000875af11580156127d6573d6000803e3d6000fd5b505050506040513d601f19601f820116820180604052508101906127fa9190614bfe565b506000806128098a60016126e4565b90925090506128188289614f5f565b97506128248187614f77565b95508515612840576128406001600160a01b0384168a88613716565b5050612858565b6128518487614f5f565b9550600093505b604051632e1a7d4d60e01b8152600481018790526000805160206152ef83398151915290632e1a7d4d90602401600060405180830381600087803b15801561289f57600080fd5b505af11580156128b3573d6000803e3d6000fd5b50506040516001600160a01b038a16925088156108fc02915088906000818181858888f193505050501580156128ed573d6000803e3d6000fd5b50866001600160a01b0316336001600160a01b03168b6001600160a01b03166000805160206152688339815191528c60405161292b91815260200190565b60405180910390a45050509450945094915050565b60c95460405163f9d9331d60e01b81526001600160a01b038781166004830152600092839283929091169063f9d9331d90602401602060405180830381865afa158015612991573d6000803e3d6000fd5b505050506040513d601f19601f820116820180604052508101906129b59190614c4f565b90506001600160a01b0381166129dd5760405162461bcd60e51b815260040161021090614c6c565b604051632d182be560e21b81526001600160a01b0382169063b460af9490612a0d908a9033903090600401614ead565b600060405180830381600087803b158015612a2757600080fd5b505af1158015612a3b573d6000803e3d6000fd5b50505050612b1088826001600160a01b0316630fc63d106040518163ffffffff1660e01b8152600401602060405180830381865afa158015612a81573d6000803e3d6000fd5b505050506040513d601f19601f82011682018060405250810190612aa59190614c4f565b836001600160a01b0316635f64b55b6040518163ffffffff1660e01b8152600401602060405180830381865afa158015612ae3573d6000803e3d6000fd5b505050506040513d601f19601f82011682018060405250810190612b079190614c4f565b8a8a8a8a6133cb565b60405189815291945092506001600160a01b038581169133918b16906000805160206152688339815191529060200160405180910390a4509550959350505050565b60c95460405163f9d9331d60e01b81526001600160a01b038781166004830152600092839283929091169063f9d9331d90602401602060405180830381865afa158015612ba3573d6000803e3d6000fd5b505050506040513d601f19601f82011682018060405250810190612bc79190614c4f565b90506001600160a01b038116612bef5760405162461bcd60e51b815260040161021090614c6c565b6000816001600160a01b0316630fc63d106040518163ffffffff1660e01b8152600401602060405180830381865afa158015612c2f573d6000803e3d6000fd5b505050506040513d601f19601f82011682018060405250810190612c539190614c4f565b90506000826001600160a01b0316635f64b55b6040518163ffffffff1660e01b8152600401602060405180830381865afa158015612c95573d6000803e3d6000fd5b505050506040513d601f19601f82011682018060405250810190612cb99190614c4f565b604051632d182be560e21b81529091506001600160a01b0384169063b460af9490612cec908c9033903090600401614ead565b600060405180830381600087803b158015612d0657600080fd5b505af1158015612d1a573d6000803e3d6000fd5b505050506001600160a01b0382166000805160206152ef8339815191521415612d5557612d4b8a828b8b8b8b613fa9565b9095509350612dbb565b6001600160a01b0381166000805160206152ef8339815191521415612d8257612d4b8a838b8b8b8b613fa9565b60405162461bcd60e51b815260206004820152600e60248201526d1393d517d5d055905617d413d3d360921b6044820152606401610210565b856001600160a01b0316336001600160a01b03168b6001600160a01b03166000805160206152688339815191528c604051612df891815260200190565b60405180910390a45050509550959350505050565b60c95460405163f9d9331d60e01b81526001600160a01b038581166004830152600092169063f9d9331d90602401602060405180830381865afa158015612e58573d6000803e3d6000fd5b505050506040513d601f19601f82011682018060405250810190612e7c9190614c4f565b90506001600160a01b038116612ea45760405162461bcd60e51b815260040161021090614c6c565b604051632d182be560e21b81526001600160a01b0382169063b460af9490612ed490869033908790600401614ead565b600060405180830381600087803b158015612eee57600080fd5b505af1158015612f02573d6000803e3d6000fd5b50505050816001600160a01b0316336001600160a01b0316856001600160a01b0316600080516020615268833981519152866040516110fc91815260200190565b60c95460405163f9d9331d60e01b81526001600160a01b038381166004830152600092839283928392169063f9d9331d90602401602060405180830381865afa158015612f94573d6000803e3d6000fd5b505050506040513d601f19601f82011682018060405250810190612fb89190614c4f565b90506001600160a01b0381161561303d57806001600160a01b031663168a48226040518163ffffffff1660e01b8152600401602060405180830381865afa158015613007573d6000803e3d6000fd5b505050506040513d601f19601f8201168201806040525081019061302b9190614e94565b93506130378585613af3565b90935091505b509193909250565b600080600061305660335460ff1690565b156130735760405162461bcd60e51b815260040161021090614bd4565b600034116130b25760405162461bcd60e51b815260206004820152600c60248201526b1393d7d055905617d4d1539560a21b6044820152606401610210565b600087116130d25760405162461bcd60e51b815260040161021090615026565b60c95460405163f9d9331d60e01b81526001600160a01b038a81166004830152600092169063f9d9331d90602401602060405180830381865afa15801561311d573d6000803e3d6000fd5b505050506040513d601f19601f820116820180604052508101906131419190614c4f565b90506001600160a01b0381166131c35760c954604051621849e360e61b81526001600160a01b038b811660048301529091169063061278c0906024016020604051808303816000875af115801561319c573d6000803e3d6000fd5b505050506040513d601f19601f820116820180604052508101906131c09190614c4f565b90505b6000816001600160a01b0316630fc63d106040518163ffffffff1660e01b8152600401602060405180830381865afa158015613203573d6000803e3d6000fd5b505050506040513d601f19601f820116820180604052508101906132279190614c4f565b90506000826001600160a01b0316635f64b55b6040518163ffffffff1660e01b8152600401602060405180830381865afa158015613269573d6000803e3d6000fd5b505050506040513d601f19601f8201168201806040525081019061328d9190614c4f565b90506001600160a01b0382166000805160206152ef83398151915214156132dc576132c36001600160a01b03821633308d6139fc565b6132d0818b8b8b876140c4565b9197509550935061331d565b6001600160a01b0381166000805160206152ef8339815191521415612d82576133106001600160a01b03831633308d6139fc565b6132d0828b8b8b876140c4565b604051636e553f6560e01b8152600481018590526001600160a01b038881166024830152841690636e553f6590604401600060405180830381600087803b15801561336757600080fd5b505af115801561337b573d6000803e3d6000fd5b50505050866001600160a01b0316336001600160a01b03168c6001600160a01b03166000805160206152a883398151915287604051610c1891815260200190565b6001600160a01b03163b151590565b600080886001600160a01b031663095ea7b37360ae616a2155ee3d9a68541ba4544862310933d4886040518363ffffffff1660e01b8152600401613410929190614ecc565b6020604051808303816000875af115801561342f573d6000803e3d6000fd5b505050506040513d601f19601f820116820180604052508101906134539190614bfe565b50604051635d5155ef60e11b81526001600160a01b03808a1660048301528089166024830152604482018890526064820187905260848201869052841660a48201524260c48201527360ae616a2155ee3d9a68541ba4544862310933d49063baa2abde9060e40160408051808303816000875af11580156134d8573d6000803e3d6000fd5b505050506040513d601f19601f820116820180604052508101906134fc9190615075565b909a909950975050505050505050565b6040516370a0823160e01b8152306004820152600090819081906001600160a01b038516906370a0823190602401602060405180830381865afa158015613557573d6000803e3d6000fd5b505050506040513d601f19601f8201168201806040525081019061357b9190614e94565b9050600080731111111254eeb25477b68fb85ed929f73a9605826001600160a01b031688886040516135ae929190615099565b6000604051808303816000865af19150503d80600081146135eb576040519150601f19603f3d011682016040523d82523d6000602084013e6135f0565b606091505b5091509150816136385760405162461bcd60e51b815260206004820152601360248201527214d5d05417d393d517d4d550d0d154d4d19553606a1b6044820152606401610210565b8080602001905181019061364c9190615075565b6040516370a0823160e01b815230600482015291965094506000906001600160a01b038816906370a0823190602401602060405180830381865afa158015613698573d6000803e3d6000fd5b505050506040513d601f19601f820116820180604052508101906136bc9190614e94565b9050856136c98583614f77565b1461370a5760405162461bcd60e51b815260206004820152601160248201527010905117d4915515549397d05353d55395607a1b6044820152606401610210565b50505050935093915050565b6112ab8363a9059cbb60e01b8484604051602401613735929190614ecc565b60408051601f198184030181529190526020810180516001600160e01b03166001600160e01b03199093169290921790915261424e565b60cb5460ca54604051632474521560e21b8152600481018390523360248201526001600160a01b03909116906391d1485490604401602060405180830381865afa1580156137be573d6000803e3d6000fd5b505050506040513d601f19601f820116820180604052508101906137e29190614bfe565b61137d5760405162461bcd60e51b815260040161021090614c20565b7f4910fdfa16fed3260ed0e7147f7cc6da11a60208b5b9406d12a635614ffd91435460ff1615613831576112ab83614320565b826001600160a01b03166352d1902d6040518163ffffffff1660e01b8152600401602060405180830381865afa92505050801561388b575060408051601f3d908101601f1916820190925261388891810190614e94565b60015b6138ee5760405162461bcd60e51b815260206004820152602e60248201527f45524331393637557067726164653a206e657720696d706c656d656e7461746960448201526d6f6e206973206e6f74205555505360901b6064820152608401610210565b600080516020615288833981519152811461395d5760405162461bcd60e51b815260206004820152602960248201527f45524331393637557067726164653a20756e737570706f727465642070726f786044820152681a58589b195555525160ba1b6064820152608401610210565b506112ab8383836143bc565b60335460ff166139b25760405162461bcd60e51b815260206004820152601460248201527314185d5cd8589b194e881b9bdd081c185d5cd95960621b6044820152606401610210565b6033805460ff191690557f5db9ee0a495bf2e6ff9c91a7834c1ba4fdd244a5e8aa4e537bd38aeae4b073aa335b6040516001600160a01b03909116815260200160405180910390a1565b6040516001600160a01b0380851660248301528316604482015260648101829052613a349085906323b872dd60e01b90608401613735565b50505050565b60008054610100900460ff1615613a81578160ff166001148015613a5d5750303b155b613a795760405162461bcd60e51b8152600401610210906150a9565b506000919050565b60005460ff808416911610613aa85760405162461bcd60e51b8152600401610210906150a9565b506000805460ff191660ff92909216919091179055600190565b600054610100900460ff16613ae95760405162461bcd60e51b8152600401610210906150f7565b613af16143e1565b565b6000806000846001600160a01b03166318160ddd6040518163ffffffff1660e01b8152600401602060405180830381865afa158015613b36573d6000803e3d6000fd5b505050506040513d601f19601f82011682018060405250810190613b5a9190614e94565b905080856001600160a01b0316630dfe16816040518163ffffffff1660e01b8152600401602060405180830381865afa158015613b9b573d6000803e3d6000fd5b505050506040513d601f19601f82011682018060405250810190613bbf9190614c4f565b6040516370a0823160e01b81526001600160a01b03888116600483015291909116906370a0823190602401602060405180830381865afa158015613c07573d6000803e3d6000fd5b505050506040513d601f19601f82011682018060405250810190613c2b9190614e94565b613c359086615142565b613c3f9190615161565b925080856001600160a01b031663d21220a76040518163ffffffff1660e01b8152600401602060405180830381865afa158015613c80573d6000803e3d6000fd5b505050506040513d601f19601f82011682018060405250810190613ca49190614c4f565b6040516370a0823160e01b81526001600160a01b03888116600483015291909116906370a0823190602401602060405180830381865afa158015613cec573d6000803e3d6000fd5b505050506040513d601f19601f82011682018060405250810190613d109190614e94565b613d1a9086615142565b613d249190615161565b9150509250929050565b6000806000896001600160a01b031663095ea7b37360ae616a2155ee3d9a68541ba4544862310933d48a6040518363ffffffff1660e01b8152600401613d75929190614ecc565b6020604051808303816000875af1158015613d94573d6000803e3d6000fd5b505050506040513d601f19601f82011682018060405250810190613db89190614bfe565b5060405163095ea7b360e01b81526001600160a01b038a169063095ea7b390613dfb907360ae616a2155ee3d9a68541ba4544862310933d4908b90600401614ecc565b6020604051808303816000875af1158015613e1a573d6000803e3d6000fd5b505050506040513d601f19601f82011682018060405250810190613e3e9190614bfe565b5060405162e8e33760e81b81526001600160a01b03808c166004830152808b166024830152604482018a9052606482018990526084820188905260a48201879052851660c48201524260e48201527360ae616a2155ee3d9a68541ba4544862310933d49063e8e3370090610104016060604051808303816000875af1158015613ecb573d6000803e3d6000fd5b505050506040513d601f19601f82011682018060405250810190613eef9190615183565b9194509250905082881115613f1d57613f1d33613f0c858b614f77565b6001600160a01b038d169190613716565b81871115613f4457613f4433613f33848a614f77565b6001600160a01b038c169190613716565b9750975097945050505050565b60335460ff1615613f745760405162461bcd60e51b815260040161021090614bd4565b6033805460ff191660011790557f62e78cea01bee320cd4e420270b5ea74000d11b0c9f74754ebdbfc544b05a2586139df3390565b600080876001600160a01b031663095ea7b37360ae616a2155ee3d9a68541ba4544862310933d4886040518363ffffffff1660e01b8152600401613fee929190614ecc565b6020604051808303816000875af115801561400d573d6000803e3d6000fd5b505050506040513d601f19601f820116820180604052508101906140319190614bfe565b506040516333c6b72560e01b81527360ae616a2155ee3d9a68541ba4544862310933d4906333c6b72590614073908a908a908a908a908a9042906004016151b1565b60408051808303816000875af1158015614091573d6000803e3d6000fd5b505050506040513d601f19601f820116820180604052508101906140b59190615075565b90999098509650505050505050565b6000806000876001600160a01b031663095ea7b37360ae616a2155ee3d9a68541ba4544862310933d4896040518363ffffffff1660e01b815260040161410b929190614ecc565b6020604051808303816000875af115801561412a573d6000803e3d6000fd5b505050506040513d601f19601f8201168201806040525081019061414e9190614bfe565b50604051637c8d9fb960e11b81527360ae616a2155ee3d9a68541ba4544862310933d49063f91b3f72903490614192908c908c908c908c908c9042906004016151b1565b60606040518083038185885af11580156141b0573d6000803e3d6000fd5b50505050506040513d601f19601f820116820180604052508101906141d59190615183565b919450925090508287111561420357614203336141f2858a614f77565b6001600160a01b038b169190613716565b8134111561424357336108fc6142198434614f77565b6040518115909202916000818181858888f19350505050158015614241573d6000803e3d6000fd5b505b955095509592505050565b60006142a3826040518060400160405280602081526020017f5361666545524332303a206c6f772d6c6576656c2063616c6c206661696c6564815250856001600160a01b03166144149092919063ffffffff16565b8051909150156112ab57808060200190518101906142c19190614bfe565b6112ab5760405162461bcd60e51b815260206004820152602a60248201527f5361666545524332303a204552433230206f7065726174696f6e20646964206e6044820152691bdd081cdd58d8d9595960b21b6064820152608401610210565b6001600160a01b0381163b61438d5760405162461bcd60e51b815260206004820152602d60248201527f455243313936373a206e657720696d706c656d656e746174696f6e206973206e60448201526c1bdd08184818dbdb9d1c9858dd609a1b6064820152608401610210565b60008051602061528883398151915280546001600160a01b0319166001600160a01b0392909216919091179055565b6143c58361442d565b6000825111806143d25750805b156112ab57613a34838361446d565b600054610100900460ff166144085760405162461bcd60e51b8152600401610210906150f7565b6033805460ff19169055565b60606144238484600085614563565b90505b9392505050565b61443681614320565b6040516001600160a01b038216907fbc7cd75a20ee27fd9adebab32041f755214dbc6bffa90cc0225b39da2e5c2d3b90600090a250565b60606001600160a01b0383163b6144d55760405162461bcd60e51b815260206004820152602660248201527f416464726573733a2064656c65676174652063616c6c20746f206e6f6e2d636f6044820152651b9d1c9858dd60d21b6064820152608401610210565b600080846001600160a01b0316846040516144f09190615218565b600060405180830381855af49150503d806000811461452b576040519150601f19603f3d011682016040523d82523d6000602084013e614530565b606091505b509150915061455882826040518060600160405280602781526020016152c860279139614696565b925050505b92915050565b6060824710156145c45760405162461bcd60e51b815260206004820152602660248201527f416464726573733a20696e73756666696369656e742062616c616e636520666f6044820152651c8818d85b1b60d21b6064820152608401610210565b6001600160a01b0385163b61461b5760405162461bcd60e51b815260206004820152601d60248201527f416464726573733a2063616c6c20746f206e6f6e2d636f6e74726163740000006044820152606401610210565b600080866001600160a01b031685876040516146379190615218565b60006040518083038185875af1925050503d8060008114614674576040519150601f19603f3d011682016040523d82523d6000602084013e614679565b606091505b5091509150614689828286614696565b925050505b949350505050565b606083156146a5575081614426565b8251156146b55782518084602001fd5b8160405162461bcd60e51b81526004016102109190615234565b6001600160a01b0381168114610d0b57600080fd5b806040810183101561455d57600080fd5b6000806000806080858703121561470b57600080fd5b8435614716816146cf565b9350602085013567ffffffffffffffff8082111561473357600080fd5b81870191508760808301111561474857600080fd5b9093506040860135908082111561475e57600080fd5b5061476b878288016146e4565b925050606085013561477c816146cf565b939692955090935050565b600080600080600060a0868803121561479f57600080fd5b85356147aa816146cf565b94506020860135935060408601356147c1816146cf565b9250606086013567ffffffffffffffff8111156147dd57600080fd5b6147e9888289016146e4565b92505060808601356147fa816146cf565b809150509295509295909350565b60006020828403121561481a57600080fd5b8135614426816146cf565b6020808252825182820181905260009190848201906040850190845b818110156148665783516001600160a01b031683529284019291840191600101614841565b50909695505050505050565b60008060006060848603121561488757600080fd5b8335614892816146cf565b92506020840135915060408401356148a9816146cf565b809150509250925092565b600080604083850312156148c757600080fd5b82356148d2816146cf565b915060208301356148e2816146cf565b809150509250929050565b634e487b7160e01b600052604160045260246000fd5b6000806040838503121561491657600080fd5b8235614921816146cf565b9150602083013567ffffffffffffffff8082111561493e57600080fd5b818501915085601f83011261495257600080fd5b813581811115614964576149646148ed565b604051601f8201601f19908116603f0116810190838211818310171561498c5761498c6148ed565b816040528281528860208487010111156149a557600080fd5b8260208601602083013760006020848301015280955050505050509250929050565b60008060008060008060c087890312156149e057600080fd5b86356149eb816146cf565b95506020870135945060408701359350606087013592506080870135915060a0870135614a17816146cf565b809150509295509295509295565b600060208284031215614a3757600080fd5b5035919050565b600080600080600080600060e0888a031215614a5957600080fd5b8735614a64816146cf565b96506020880135614a74816146cf565b955060408801359450606088013567ffffffffffffffff811115614a9757600080fd5b614aa38a828b016146e4565b9450506080880135925060a0880135915060c0880135614ac2816146cf565b8091505092959891949750929550565b600080600080600060a08688031215614aea57600080fd5b8535614af5816146cf565b9450602086013567ffffffffffffffff811115614b1157600080fd5b614b1d888289016146e4565b945050604086013592506060860135915060808601356147fa816146cf565b60008060008060808587031215614b5257600080fd5b8435614b5d816146cf565b935060208501359250604085013567ffffffffffffffff811115614b8057600080fd5b61476b878288016146e4565b600080600080600060a08688031215614ba457600080fd5b8535614baf816146cf565b945060208601359350604086013592506060860135915060808601356147fa816146cf565b60208082526010908201526f14185d5cd8589b194e881c185d5cd95960821b604082015260600190565b600060208284031215614c1057600080fd5b8151801515811461442657600080fd5b60208082526015908201527410d05313115497d393d517d055551213d492569151605a1b604082015260600190565b600060208284031215614c6157600080fd5b8151614426816146cf565b6020808252600f908201526e4641524d5f4e4f545f45584953545360881b604082015260600190565b60008235603e19833603018112614cab57600080fd5b90910192915050565b60008260408082018460005b6002811015614866578483038852614cd88288614c95565b8484018135601e19833603018112614cef57600080fd5b82018035602067ffffffffffffffff821115614d0a57600080fd5b8160051b3603851315614d1c57600080fd5b888852928190529082019160009190606088015b82841015614d60578435614d43816146cf565b6001600160a01b0316815293810193600193909301928101614d30565b948101359781019790975250505097830197929190910190600101614cc0565b6080808252600090610100830190830186835b6004811015614e5c57858403607f19018352614daf828a614c95565b60408086018235601e19843603018112614dc857600080fd5b83018035602067ffffffffffffffff821115614de357600080fd5b8160051b3603861315614df557600080fd5b938952918290526060880192908101916000915b81831015614e3b578335614e1c816146cf565b6001600160a01b03168552938401939283019260019290920191614e09565b94850135988501989098525090955050928301929190910190600101614d93565b5050508281036020840152614e718186614cb4565b84516001600160a01b0316604085015260208501516060850152915061468e9050565b600060208284031215614ea657600080fd5b5051919050565b9283526001600160a01b03918216602084015216604082015260600190565b6001600160a01b03929092168252602082015260400190565b634e487b7160e01b600052603260045260246000fd5b6000808335601e19843603018112614f1257600080fd5b83018035915067ffffffffffffffff821115614f2d57600080fd5b602001915036819003821315614f4257600080fd5b9250929050565b634e487b7160e01b600052601160045260246000fd5b60008219821115614f7257614f72614f49565b500190565b600082821015614f8957614f89614f49565b500390565b6020808252602c908201527f46756e6374696f6e206d7573742062652063616c6c6564207468726f7567682060408201526b19195b1959d85d1958d85b1b60a21b606082015260800190565b6020808252602c908201527f46756e6374696f6e206d7573742062652063616c6c6564207468726f7567682060408201526b6163746976652070726f787960a01b606082015260800190565b6020808252600d908201526c1393d7d513d2d15397d4d15395609a1b604082015260600190565b6020808252600e908201526d1393d7d513d2d15394d7d4d1539560921b604082015260600190565b6000806040838503121561508857600080fd5b505080516020909101519092909150565b8183823760009101908152919050565b6020808252602e908201527f496e697469616c697a61626c653a20636f6e747261637420697320616c72656160408201526d191e481a5b9a5d1a585b1a5e995960921b606082015260800190565b6020808252602b908201527f496e697469616c697a61626c653a20636f6e7472616374206973206e6f74206960408201526a6e697469616c697a696e6760a81b606082015260800190565b600081600019048311821515161561515c5761515c614f49565b500290565b60008261517e57634e487b7160e01b600052601260045260246000fd5b500490565b60008060006060848603121561519857600080fd5b8351925060208401519150604084015190509250925092565b6001600160a01b039687168152602081019590955260408501939093526060840191909152909216608082015260a081019190915260c00190565b60005b838110156152075781810151838201526020016151ef565b83811115613a345750506000910152565b6000825161522a8184602087016151ec565b9190910192915050565b60208152600082518060208401526152538160408501602087016151ec565b601f01601f1916919091016040019291505056fe3115d1449a7b732c986cba18244e897a450f61e1bb8d589cd2e69e6c8924f9f7360894a13ba1a3210667c828492db98dca3e2076cc3735a920a3ca505d382bbc7cfff908a4b583f36430b25d75964c458d8ede8a99bd61be750e97ee1b2f3a96416464726573733a206c6f772d6c6576656c2064656c65676174652063616c6c206661696c6564000000000000000000000000b31f66aa3c1e785363f0875a1b74e27b85fd66c7a264697066735822122086f2ef3ce6839d6528dd949e0e36325e143ec65864dfe2a2d19b7aba5ff2ec5964736f6c634300080a0033496e697469616c697a61626c653a20636f6e747261637420697320616c726561",
  "immutableReferences": {
    "561": [
      {
        "length": 32,
        "start": 3129
      },
      {
        "length": 32,
        "start": 3193
      },
      {
        "length": 32,
        "start": 4795
      },
      {
        "length": 32,
        "start": 4859
      },
      {
        "length": 32,
        "start": 5272
      }
    ]
  },
  "source": "// SPDX-License-Identifier: MIT\r\npragma solidity 0.8.10;\r\n\r\nimport { IUnoFarmTraderjoe as Farm } from \"./interfaces/IUnoFarmTraderjoe.sol\";\r\nimport \"../../interfaces/IUniswapV2Router.sol\";\r\nimport \"../../interfaces/IUnoFarmFactory.sol\";\r\nimport \"../../interfaces/IUnoAccessManager.sol\";\r\nimport \"../../interfaces/IUniswapV2Pair.sol\";\r\nimport \"../../interfaces/IWAVAX.sol\";\r\nimport \"@openzeppelin/contracts-upgradeable/proxy/utils/Initializable.sol\";\r\nimport \"@openzeppelin/contracts-upgradeable/token/ERC20/utils/SafeERC20Upgradeable.sol\";\r\nimport \"@openzeppelin/contracts-upgradeable/token/ERC20/IERC20Upgradeable.sol\";\r\nimport \"@openzeppelin/contracts-upgradeable/security/PausableUpgradeable.sol\";\r\nimport \"@openzeppelin/contracts-upgradeable/proxy/utils/UUPSUpgradeable.sol\";\r\n\r\ncontract UnoAssetRouterTraderjoe is Initializable, PausableUpgradeable, UUPSUpgradeable {\r\n\tusing SafeERC20Upgradeable for IERC20Upgradeable;\r\n\r\n\t/**\r\n\t * @dev Contract Variables:\r\n\t * farmFactory - The contract that deploys new Farms and links them to {lpPair}s.\r\n\t * accessManager - Role manager contract.\r\n\t */\r\n\tIUnoFarmFactory public farmFactory;\r\n\tIUnoAccessManager public accessManager;\r\n\r\n\tbytes32 private constant DISTRIBUTOR_ROLE = keccak256(\"DISTRIBUTOR_ROLE\");\r\n\tbytes32 private constant PAUSER_ROLE = keccak256(\"PAUSER_ROLE\");\r\n\tbytes32 private ADMIN_ROLE;\r\n\r\n\tuint256 public fee;\r\n\r\n\taddress public constant WAVAX = 0xB31f66AA3C1e785363F0875A1B74E27b85FD66c7;\r\n\tIUniswapV2Router01 public constant TraderjoeRouter = IUniswapV2Router01(0x60aE616a2155Ee3d9A68541Ba4544862310933d4);\r\n    address private constant OneInchRouter = 0x1111111254EEB25477B68fb85Ed929f73A960582;\r\n\r\n\tevent Deposit(address indexed lpPool, address indexed sender, address indexed recipient, uint256 amount);\r\n\tevent Withdraw(address indexed lpPool, address indexed sender, address indexed recipient, uint256 amount);\r\n\tevent Distribute(address indexed lpPool, uint256 reward);\r\n\r\n\tevent FeeChanged(uint256 previousFee, uint256 newFee);\r\n\r\n\tmodifier onlyRole(bytes32 role) {\r\n\t\trequire(accessManager.hasRole(role, msg.sender), \"CALLER_NOT_AUTHORIZED\");\r\n\t\t_;\r\n\t}\r\n\r\n\t// ============ Methods ============\r\n\r\n\t/// @custom:oz-upgrades-unsafe-allow constructor\r\n\tconstructor() {\r\n\t\t_disableInitializers();\r\n\t}\r\n\r\n\tfunction initialize(address _accessManager, address _farmFactory) external initializer {\r\n\t\trequire(_accessManager != address(0), \"BAD_ACCESS_MANAGER\");\r\n\t\trequire(_farmFactory != address(0), \"BAD_FARM_FACTORY\");\r\n\r\n\t\t__Pausable_init();\r\n\r\n\t\taccessManager = IUnoAccessManager(_accessManager);\r\n\t\tADMIN_ROLE = accessManager.ADMIN_ROLE();\r\n\t\tfarmFactory = IUnoFarmFactory(_farmFactory);\r\n\t}\r\n\r\n\treceive() external payable {\r\n\t\trequire(msg.sender == WAVAX || msg.sender == address(TraderjoeRouter), \"ONLY_ACCEPT_WAVAX\"); // only accept ETH via fallback from the WAVAX or router contract\r\n\t}\r\n\r\n\t/**\r\n     * @dev Deposits tokens in the given pool. Creates new Farm contract if there isn't one deployed for the {lpPair} and deposits tokens in it. Emits a {Deposit} event.\r\n     * @param lpPair - Address of the pool to deposit tokens in.\r\n     * @param amountA  - Token A amount to deposit.\r\n     * @param amountB -  Token B amount to deposit.\r\n     * @param amountAMin - Bounds the extent to which the B/A price can go up before the transaction reverts.\r\n     * @param amountBMin - Bounds the extent to which the A/B price can go up before the transaction reverts.\r\n     * @param recipient - Address which will receive the deposit.\r\n     \r\n     * @return sentA - Token A amount sent to the farm.\r\n     * @return sentB - Token B amount sent to the farm.\r\n     * @return liquidity - Total liquidity sent to the farm (in lpTokens).\r\n     */\r\n\tfunction deposit(address lpPair, uint256 amountA, uint256 amountB, uint256 amountAMin, uint256 amountBMin, address recipient) external whenNotPaused returns (uint256 sentA, uint256 sentB, uint256 liquidity){\r\n        require(amountA > 0 && amountB > 0, \"NO_TOKENS_SENT\");\r\n        Farm farm = Farm(farmFactory.Farms(lpPair));\r\n        if(farm == Farm(address(0))){\r\n            farm = Farm(farmFactory.createFarm(lpPair));\r\n        }\r\n\r\n        address tokenA = farm.tokenA();\r\n        address tokenB = farm.tokenB();\r\n        IERC20Upgradeable(tokenA).safeTransferFrom(msg.sender, address(this), amountA);\r\n        IERC20Upgradeable(tokenB).safeTransferFrom(msg.sender, address(this), amountB);\r\n\r\n        (sentA, sentB, liquidity) = _addLiquidity(tokenA, tokenB, amountA, amountB, amountAMin, amountBMin, address(farm));\r\n        farm.deposit(liquidity, recipient);\r\n\r\n        emit Deposit(lpPair, msg.sender, recipient, liquidity); \r\n    }\r\n\r\n\t/**\r\n     * @dev Autoconverts AVAX into WAVAX and deposits tokens in the given pool. Creates new Farm contract if there isn't one deployed for the {lpStakingPool} and deposits tokens in it. Emits a {Deposit} event.\r\n     * @param lpPair - Address of the pool to deposit tokens in.\r\n     * @param amountToken  - Token amount to deposit.\r\n     * @param amountTokenMin - Bounds the extent to which the TOKEN/WAVAX price can go up before the transaction reverts.\r\n     * @param amountETHMin - Bounds the extent to which the WAVAX/TOKEN price can go up before the transaction reverts.\r\n     * @param recipient - Address which will receive the deposit.\r\n     \r\n     * @return sentToken - Token amount sent to the farm.\r\n     * @return sentETH - WAVAX amount sent to the farm.\r\n     * @return liquidity - Total liquidity sent to the farm (in lpTokens).\r\n     */\r\n    function depositETH(address lpPair, uint256 amountToken, uint256 amountTokenMin, uint256 amountETHMin, address recipient) external payable whenNotPaused returns(uint256 sentToken, uint256 sentETH, uint256 liquidity){\r\n        require(msg.value > 0, \"NO_AVAX_SENT\");\r\n        require(amountToken > 0, \"NO_TOKEN_SENT\");\r\n        Farm farm = Farm(farmFactory.Farms(lpPair));\r\n        if(farm == Farm(address(0))){\r\n            farm = Farm(farmFactory.createFarm(lpPair));\r\n        }\r\n\r\n        address tokenA = farm.tokenA();\r\n        address tokenB = farm.tokenB();\r\n        if (tokenA == WAVAX) {\r\n            IERC20Upgradeable(tokenB).safeTransferFrom(msg.sender, address(this), amountToken);\r\n            (sentToken, sentETH, liquidity) = _addLiquidityETH(tokenB, amountToken, amountTokenMin, amountETHMin, address(farm));\r\n        } else if (tokenB == WAVAX) {\r\n            IERC20Upgradeable(tokenA).safeTransferFrom(msg.sender, address(this), amountToken);\r\n            (sentToken, sentETH, liquidity) = _addLiquidityETH(tokenA, amountToken, amountTokenMin, amountETHMin, address(farm));\r\n        } else {\r\n            revert(\"NOT_WAVAX_POOL\");\r\n        }\r\n        farm.deposit(liquidity, recipient);\r\n\r\n        emit Deposit(lpPair, msg.sender, recipient, liquidity);\r\n    }\r\n\r\n\t/**\r\n     * @dev Deposits single token in the given pool. Creates new Farm contract if there isn't one deployed for the {lpPair}, swaps {token} for pool tokens and deposits them. Emits a {Deposit} event.\r\n     * @param lpPair - Address of the pool to deposit tokens in.\r\n     * @param token  - Address of a token to enter the pool.\r\n     * @param amount - Amount of token sent.\r\n     * @param swapData - Parameter with which 1inch router is being called with.\r\n     * @param amountAMin - Bounds the extent to which the B/A price can go up before the transaction reverts.\r\n     * @param amountBMin - Bounds the extent to which the A/B price can go up before the transaction reverts.\r\n     * @param recipient - Address which will receive the deposit.\r\n     \r\n     * @return sent - Total {token} amount sent to the farm. NOTE: Returns dust left from swap in {token}, but if A/B amounts are not correct also returns dust in pool's tokens.\r\n     * @return liquidity - Total liquidity sent to the farm (in lpTokens).\r\n     */\r\n    function depositSingleAsset(address lpPair, address token, uint256 amount, bytes[2] calldata swapData, uint256 amountAMin, uint256 amountBMin, address recipient) external whenNotPaused returns(uint256 sent, uint256 liquidity){\r\n        require(amount > 0, \"NO_TOKEN_SENT\");\r\n        Farm farm = Farm(farmFactory.Farms(lpPair));\r\n        if(farm == Farm(address(0))){\r\n            farm = Farm(farmFactory.createFarm(lpPair));\r\n        }\r\n\r\n        IERC20Upgradeable(token).safeTransferFrom(msg.sender, address(this), amount);\r\n        IERC20Upgradeable(token).approve(OneInchRouter, amount);\r\n\r\n        sent = amount;\r\n        uint256 amountA;\r\n        uint256 amountB;\r\n        address tokenA = farm.tokenA();\r\n        address tokenB = farm.tokenB();\r\n\r\n        if (tokenA != token) {\r\n            (uint256 returnAmount, uint256 spentAmount) = _swap(swapData[0], tokenA);\r\n            amount -= spentAmount;\r\n            amountA = returnAmount;\r\n        }\r\n        if (tokenB != token) {\r\n            (uint256 returnAmount, uint256 spentAmount) = _swap(swapData[1], tokenB);\r\n            amount -= spentAmount;\r\n            amountB = returnAmount;\r\n        }\r\n\r\n        if (tokenA == token) {\r\n            amountA = amount;\r\n        } else if (tokenB == token) {\r\n            amountB = amount;\r\n        } else if(amount > 0) {\r\n            sent -= amount;\r\n            IERC20Upgradeable(token).safeTransfer(msg.sender, amount);\r\n        }\r\n\r\n        require(amountA > 0 && amountB > 0, \"NO_TOKENS_SENT\");\r\n        (,,liquidity) = _addLiquidity(tokenA, tokenB, amountA, amountB, amountAMin, amountBMin, address(farm));\r\n        farm.deposit(liquidity, recipient);\r\n        \r\n        emit Deposit(lpPair, msg.sender, recipient, liquidity);\r\n    }\r\n     \r\n    /**\r\n     * @dev Deposits single AVAX in the given pool. Creates new Farm contract if there isn't one deployed for the {lpPair}, swaps AVAX for pool tokens and deposits them. Emits a {Deposit} event.\r\n     * @param lpPair - Address of the pool to deposit tokens in.\r\n     * @param swapData - Parameter with which 1inch router is being called with. NOTE: Use WAVAX as toToken.\r\n     * @param amountAMin - Bounds the extent to which the B/A price can go up before the transaction reverts.\r\n     * @param amountBMin - Bounds the extent to which the A/B price can go up before the transaction reverts.\r\n     * @param recipient - Address which will receive the deposit.\r\n     \r\n     * @return sentETH - Total AVAX amount sent to the farm. NOTE: Returns dust left from swap in AVAX, but if A/B amount are not correct also returns dust in pool's tokens.\r\n     * @return liquidity - Total liquidity sent to the farm (in lpTokens).\r\n     */\r\n    function depositSingleETH(address lpPair, bytes[2] calldata swapData, uint256 amountAMin, uint256 amountBMin, address recipient) external payable whenNotPaused returns(uint256 sentETH, uint256 liquidity){\r\n        require(msg.value > 0, \"NO_AVAX_SENT\");\r\n        Farm farm = Farm(farmFactory.Farms(lpPair));\r\n        if(farm == Farm(address(0))){\r\n            farm = Farm(farmFactory.createFarm(lpPair));\r\n        }\r\n\r\n        uint256 amount = msg.value;\r\n        IWAVAX(WAVAX).deposit{value: amount}();\r\n        IERC20Upgradeable(WAVAX).approve(OneInchRouter, amount);\r\n\r\n        sentETH = amount;\r\n        uint256 amountA;\r\n        uint256 amountB;\r\n        address tokenA = farm.tokenA();\r\n        address tokenB = farm.tokenB();\r\n\r\n        if (tokenA != WAVAX) {\r\n            (uint256 returnAmount, uint256 spentAmount) = _swap(swapData[0], tokenA);\r\n            amount -= spentAmount;\r\n            amountA = returnAmount;\r\n        }\r\n        if (tokenB != WAVAX) {\r\n            (uint256 returnAmount, uint256 spentAmount) = _swap(swapData[1], tokenB);\r\n            amount -= spentAmount;\r\n            amountB = returnAmount;\r\n        }\r\n\r\n        if (tokenA == WAVAX) {\r\n            amountA = amount;\r\n        } else if (tokenB == WAVAX) {\r\n            amountB = amount;\r\n        } else if (amount > 0) {\r\n            sentETH -= amount;\r\n            IWAVAX(WAVAX).withdraw(amount);\r\n            payable(msg.sender).transfer(amount);\r\n        }\r\n\r\n        require(amountA > 0 && amountB > 0, \"NO_TOKENS_SENT\");\r\n        (,,liquidity) = _addLiquidity(tokenA, tokenB, amountA, amountB, amountAMin, amountBMin, address(farm));\r\n        farm.deposit(liquidity, recipient);\r\n\r\n        emit Deposit(lpPair, msg.sender, recipient, liquidity);\r\n    }\r\n\r\n\t/**\r\n     * @dev Deposits tokens in the given pool. Creates new Farm contract if there isn't one deployed for the {lpPair} and deposits tokens in it. Emits a {Deposit} event.\r\n     * @param lpPair - Address of the pool to deposit tokens in.\r\n     * @param amount - LP Token amount to deposit.\r\n     * @param recipient - Address which will receive the deposit.\r\n     */\r\n    function depositLP(address lpPair, uint256 amount, address recipient) external whenNotPaused{\r\n        require(amount > 0, \"NO_TOKEN_SENT\");\r\n        Farm farm = Farm(farmFactory.Farms(lpPair));\r\n        if(farm == Farm(address(0))){\r\n            farm = Farm(farmFactory.createFarm(lpPair));\r\n        }\r\n\r\n        IERC20Upgradeable(lpPair).safeTransferFrom(msg.sender, address(farm), amount);\r\n        farm.deposit(amount, recipient);\r\n\r\n        emit Deposit(lpPair, msg.sender, recipient, amount); \r\n    }\r\n\r\n    /** \r\n     * @dev Withdraws a pair of tokens from the given pool. Emits a {Withdraw} event.\r\n     * @param lpPair - LP pool to withdraw from.\r\n     * @param amount - LP amount to withdraw. \r\n     * @param amountAMin - The minimum amount of tokenA that must be received for the transaction not to revert.\r\n     * @param amountBMin - The minimum amount of tokenB that must be received for the transaction not to revert.\r\n     * @param recipient - The address which will receive tokens.\r\n\r\n     * @return amountA - Token A amount sent to the {recipient}\r\n     * @return amountB - Token B amount sent to the {recipient}\r\n     */ \r\n    function withdraw(address lpPair, uint256 amount, uint256 amountAMin, uint256 amountBMin, address recipient) external returns(uint256 amountA, uint256 amountB){\r\n        Farm farm = Farm(farmFactory.Farms(lpPair));\r\n        require(farm != Farm(address(0)),'FARM_NOT_EXISTS');\r\n\r\n        farm.withdraw(amount, msg.sender, address(this));\r\n        (amountA, amountB) = _removeLiquidity(lpPair, farm.tokenA(), farm.tokenB(), amount, amountAMin, amountBMin, recipient);\r\n        \r\n        emit Withdraw(lpPair, msg.sender, recipient, amount);  \r\n    }\r\n\r\n    /** \r\n     * @dev Autoconverts WAVAX into AVAX and withdraws tokens from the pool. Emits a {Withdraw} event.\r\n     * @param lpPair - LP pool to withdraw from.\r\n     * @param amount - LP amount to withdraw. \r\n     * @param amountTokenMin - The minimum amount of token that must be received for the transaction not to revert.\r\n     * @param amountETHMin - The minimum amount of AVAX that must be received for the transaction not to revert.\r\n     * @param recipient - The address which will receive tokens.\r\n\r\n     * @return amountToken - Token amount sent to the {recipient}.\r\n     * @return amountETH - AVAX amount sent to the {recipient}.\r\n     */ \r\n    function withdrawETH(address lpPair, uint256 amount, uint256 amountTokenMin, uint256 amountETHMin, address recipient) external returns(uint256 amountToken, uint256 amountETH){\r\n        Farm farm = Farm(farmFactory.Farms(lpPair));\r\n        require(farm != Farm(address(0)),'FARM_NOT_EXISTS');\r\n\r\n        address tokenA = farm.tokenA();\r\n        address tokenB = farm.tokenB();\r\n\r\n        farm.withdraw(amount, msg.sender, address(this));\r\n        if (tokenA == WAVAX) {\r\n            (amountToken, amountETH) = _removeLiquidityETH(lpPair, tokenB, amount, amountTokenMin, amountETHMin, recipient);\r\n        } else if (tokenB == WAVAX) {\r\n            (amountToken, amountETH) = _removeLiquidityETH(lpPair, tokenA, amount, amountTokenMin, amountETHMin, recipient);\r\n        } else {\r\n            revert(\"NOT_WAVAX_POOL\");\r\n        }\r\n\r\n        emit Withdraw(lpPair, msg.sender, recipient, amount);\r\n    }\r\n\r\n    /**\r\n     * @dev Withdraws single token from the given pool. Emits a {Withdraw} event. Note: If there are any tokens left to be withdrawn after swaps they will be sent to the {{recipient}} in a respective token (not in {token}).\r\n     * @param lpPair - LP pool to withdraw from.\r\n     * @param amount - LP amount to withdraw. \r\n     * @param token  - Address of a token to exit the pool with.\r\n     * @param swapData - Parameter with which 1inch router is being called with.\r\n     * @param recipient - Address which will receive the deposit.\r\n     \r\n     * @return amountToken - {token} amount sent to the {recipient}.\r\n     * @return amountA - Token A dust sent to the {recipient}.\r\n     * @return amountB - Token B dust sent to the {recipient}.\r\n     */\r\n    function withdrawSingleAsset(address lpPair, uint256 amount, address token, bytes[2] calldata swapData, address recipient) external returns(uint256 amountToken, uint256 amountA, uint256 amountB){\r\n        Farm farm = Farm(farmFactory.Farms(lpPair));\r\n        require(farm != Farm(address(0)),'FARM_NOT_EXISTS');\r\n\r\n        farm.withdraw(amount, msg.sender, address(this));\r\n\r\n        address tokenA = farm.tokenA();\r\n        address tokenB = farm.tokenB();\r\n        (amountA, amountB) = _removeLiquidity(lpPair, tokenA, tokenB, amount, 0, 0, address(this));\r\n\r\n        if (tokenA != token) {\r\n            IERC20Upgradeable(tokenA).approve(OneInchRouter, amountA);\r\n            (uint256 returnAmount, uint256 spentAmount) = _swap(swapData[0], token);\r\n            amountToken += returnAmount;\r\n\r\n            amountA = amountA - spentAmount;\r\n            if(amountA > 0){\r\n                IERC20Upgradeable(tokenA).safeTransfer(recipient, amountA);\r\n            }\r\n        } else {\r\n            amountToken += amountA;\r\n            amountA = 0;\r\n        }\r\n\r\n        if (tokenB != token) {\r\n            IERC20Upgradeable(tokenB).approve(OneInchRouter, amountB);\r\n            (uint256 returnAmount, uint256 spentAmount) = _swap(swapData[1], token);\r\n            amountToken += returnAmount;\r\n\r\n            amountB = amountB - spentAmount;\r\n            if(amountB > 0){\r\n                IERC20Upgradeable(tokenB).safeTransfer(recipient, amountB);\r\n            }\r\n        } else {\r\n            amountToken += amountB;\r\n            amountB = 0;\r\n        }\r\n\r\n        IERC20Upgradeable(token).safeTransfer(recipient, amountToken);\r\n\r\n        emit Withdraw(lpPair, msg.sender, recipient, amount);\r\n    }\r\n     \r\n    /**\r\n     * @dev Withdraws single AVAX from the given pool. Emits a {Withdraw} event. Note: If there are any tokens left to be withdrawn after swaps they will be sent to the {{recipient}} in a respective token (not in AVAX).\r\n     * @param lpPair - LP pool to withdraw from.\r\n     * @param amount - LP amount to withdraw. \r\n     * @param swapData - Parameter with which 1inch router is being called with.\r\n     * @param recipient - Address which will receive the deposit.\r\n     \r\n     * @return amountETH - AVAX amount sent to the {recipient}.\r\n     * @return amountA - Token A dust sent to the {recipient}.\r\n     * @return amountB - Token B dust sent to the {recipient}.\r\n     */\r\n    function withdrawSingleETH(address lpPair, uint256 amount, bytes[2] calldata swapData, address recipient) external returns(uint256 amountETH, uint256 amountA, uint256 amountB){\r\n        Farm farm = Farm(farmFactory.Farms(lpPair));\r\n        require(farm != Farm(address(0)),'FARM_NOT_EXISTS');\r\n\r\n        farm.withdraw(amount, msg.sender, address(this));\r\n\r\n        address tokenA = farm.tokenA();\r\n        address tokenB = farm.tokenB();\r\n        (amountA, amountB) = _removeLiquidity(lpPair, tokenA, tokenB, amount, 0, 0, address(this));\r\n\r\n        if (tokenA != WAVAX) {\r\n            IERC20Upgradeable(tokenA).approve(OneInchRouter, amountA);\r\n            (uint256 returnAmount, uint256 spentAmount) = _swap(swapData[0], WAVAX);\r\n            amountETH += returnAmount;\r\n\r\n            amountA = amountA - spentAmount;\r\n            if(amountA > 0){\r\n                IERC20Upgradeable(tokenA).safeTransfer(recipient, amountA);\r\n            }\r\n        } else {\r\n            amountETH += amountA;\r\n            amountA = 0;\r\n        }\r\n\r\n        if (tokenB != WAVAX) {\r\n            IERC20Upgradeable(tokenB).approve(OneInchRouter, amountB);\r\n            (uint256 returnAmount, uint256 spentAmount) = _swap(swapData[1], WAVAX);\r\n            amountETH += returnAmount;\r\n\r\n            amountB = amountB - spentAmount;\r\n            if(amountB > 0){\r\n                IERC20Upgradeable(tokenB).safeTransfer(recipient, amountB);\r\n            }\r\n        } else {\r\n            amountETH += amountB;\r\n            amountB = 0;\r\n        }\r\n\r\n        IWAVAX(WAVAX).withdraw(amountETH);\r\n        payable(recipient).transfer(amountETH);\r\n\r\n        emit Withdraw(lpPair, msg.sender, recipient, amount);\r\n    }\r\n\r\n    /** \r\n     * @dev Withdraws LP tokens from the given pool. Emits a {Withdraw} event.\r\n     * @param lpPair - LP pool to withdraw from.\r\n     * @param amount - LP amount to withdraw. \r\n     * @param recipient - The address which will receive tokens.\r\n     */ \r\n    function withdrawLP(address lpPair, uint256 amount, address recipient) external {\r\n        Farm farm = Farm(farmFactory.Farms(lpPair));\r\n        require(farm != Farm(address(0)),'FARM_NOT_EXISTS');\r\n        \r\n        farm.withdraw(amount, msg.sender, recipient);\r\n        emit Withdraw(lpPair, msg.sender, recipient, amount);  \r\n    }\r\n\r\n\t/**\r\n\t * @dev Distributes tokens between users.\r\n\t * @param lpPair - LP pool to distribute tokens in.\r\n\t * @param swapInfos - Arrays of structs with token arrays describing swap routes (rewardTokenToTokenA, rewardTokenToTokenB, rewarderTokenToTokenA, rewarderTokenToTokenB) and minimum amounts of output tokens that must be received for the transaction not to revert.\r\n\t * @param feeSwapInfo - Struct with token arrays describing swap route (rewardTokenToFeeToken, rewarderTokenToFeeToken) and minimum amounts of output tokens that must be received for the transaction not to revert.\r\n\t * @param feeTo - Address to collect fees to.\r\n\t *\r\n\t * Note: This function can only be called by the distributor.\r\n\t */\r\n\tfunction distribute(\r\n\t\taddress lpPair,\r\n\t\tFarm.SwapInfo[4] calldata swapInfos,\r\n\t\tFarm.SwapInfo[2] calldata feeSwapInfo,\r\n\t\taddress feeTo\r\n\t) external whenNotPaused onlyRole(DISTRIBUTOR_ROLE) {\r\n\t\tFarm farm = Farm(farmFactory.Farms(lpPair));\r\n\t\trequire(farm != Farm(address(0)), \"FARM_NOT_EXISTS\");\r\n\r\n\t\tuint256 reward = farm.distribute(swapInfos, feeSwapInfo, Farm.FeeInfo(feeTo, fee));\r\n\t\temit Distribute(lpPair, reward);\r\n\t}\r\n\r\n\t/**\r\n     * @dev Returns tokens staked by the {_address} for the given {lpPair}.\r\n     * @param _address - The address to check stakes for.\r\n     * @param lpPair - LP pool to check stakes in.\r\n\r\n     * @return stakeLP - Total user stake(in LP tokens).\r\n     * @return stakeA - Token A stake.\r\n     * @return stakeB - Token B stake.\r\n     */\r\n\tfunction userStake(address _address, address lpPair) external view returns (uint256 stakeLP, uint256 stakeA, uint256 stakeB) {\r\n\t\tFarm farm = Farm(farmFactory.Farms(lpPair));\r\n\t\tif (farm != Farm(address(0))) {\r\n\t\t\tstakeLP = farm.userBalance(_address);\r\n\t\t\t(stakeA, stakeB) = _getTokenStake(lpPair, stakeLP);\r\n\t\t}\r\n\t}\r\n\r\n\t/**\r\n     * @dev Returns total amount locked in the pool. Doesn't take pending rewards into account.\r\n     * @param lpPair - LP pool to check total deposits in.\r\n\r\n     * @return totalDepositsLP - Total deposits (in LP tokens).\r\n     * @return totalDepositsA - Token A deposits.\r\n     * @return totalDepositsB - Token B deposits.\r\n     */\r\n\tfunction totalDeposits(address lpPair) external view returns (uint256 totalDepositsLP, uint256 totalDepositsA, uint256 totalDepositsB){\r\n\t\tFarm farm = Farm(farmFactory.Farms(lpPair));\r\n\t\tif (farm != Farm(address(0))) {\r\n\t\t\ttotalDepositsLP = farm.getTotalDeposits();\r\n\t\t\t(totalDepositsA, totalDepositsB) = _getTokenStake(lpPair, totalDepositsLP);\r\n\t\t}\r\n\t}\r\n\r\n\t/**\r\n     * @dev Returns addresses of tokens in {lpPair}.\r\n     * @param lpPair - LP pair to check tokens in.\r\n\r\n     * @return tokens - Tokens addresses.\r\n     */\r\n\tfunction getTokens(address lpPair) external view returns (IERC20Upgradeable[] memory tokens) {\r\n\t\ttokens = new IERC20Upgradeable[](2);\r\n\t\ttokens[0] = IERC20Upgradeable(IUniswapV2Pair(lpPair).token0());\r\n\t\ttokens[1] = IERC20Upgradeable(IUniswapV2Pair(lpPair).token1());\r\n\t}\r\n\r\n\t/**\r\n     * @dev Deposits assets to router & refunds dust.\r\n     */ \r\n    function _addLiquidity(\r\n        address tokenA,\r\n        address tokenB, \r\n        uint256 amountA, \r\n        uint256 amountB, \r\n        uint256 amountAMin, \r\n        uint256 amountBMin, \r\n        address farm\r\n    ) internal returns(uint256 sentA, uint256 sentB, uint256 liquidity){\r\n        IERC20Upgradeable(tokenA).approve(address(TraderjoeRouter), amountA);\r\n        IERC20Upgradeable(tokenB).approve(address(TraderjoeRouter), amountB);\r\n\r\n        (sentA, sentB, liquidity) = TraderjoeRouter.addLiquidity(tokenA, tokenB, amountA, amountB, amountAMin, amountBMin, farm, block.timestamp);\r\n        // Refund dust\r\n        if(amountA > sentA){\r\n            IERC20Upgradeable(tokenA).safeTransfer(msg.sender, amountA - sentA);\r\n        }\r\n        if(amountB > sentB){\r\n            IERC20Upgradeable(tokenB).safeTransfer(msg.sender, amountB - sentB);\r\n        }\r\n    }\r\n\r\n    /**\r\n     * @dev Deposits assets to router & refunds dust.\r\n     */ \r\n    function _addLiquidityETH(\r\n        address token,\r\n        uint256 amount, \r\n        uint256 amountTokenMin, \r\n        uint256 amountETHMin, \r\n        address farm\r\n    ) internal returns(uint256 sentToken, uint256 sentETH, uint256 liquidity){\r\n        IERC20Upgradeable(token).approve(address(TraderjoeRouter), amount);\r\n\r\n        (sentToken, sentETH, liquidity) = TraderjoeRouter.addLiquidityAVAX{value: msg.value}(token, amount, amountTokenMin, amountETHMin, farm, block.timestamp);\r\n        // Refund dust\r\n        if(amount > sentToken){\r\n            IERC20Upgradeable(token).safeTransfer(msg.sender, amount - sentToken);\r\n        }\r\n        if(msg.value > sentETH){\r\n            payable(msg.sender).transfer(msg.value - sentETH);\r\n        }\r\n    }\r\n    \r\n    /**\r\n     * @dev Withdraws assets from router.\r\n     */ \r\n    function _removeLiquidity(\r\n        address lpPair,\r\n        address tokenA,\r\n        address tokenB, \r\n        uint256 amount, \r\n        uint256 amountAMin, \r\n        uint256 amountBMin, \r\n        address recipient\r\n    ) internal returns(uint256 amountA, uint256 amountB){\r\n        IERC20Upgradeable(lpPair).approve(address(TraderjoeRouter), amount);\r\n        (amountA, amountB) = TraderjoeRouter.removeLiquidity(tokenA, tokenB, amount, amountAMin, amountBMin, recipient, block.timestamp);\r\n    }\r\n\r\n    /**\r\n     * @dev Withdraws assets from router.\r\n     */ \r\n    function _removeLiquidityETH(\r\n        address lpPair,\r\n        address token,\r\n        uint256 amount, \r\n        uint256 amountTokenMin, \r\n        uint256 amountETHMin, \r\n        address recipient\r\n    ) internal returns(uint256 amountToken, uint256 amountETH){\r\n        IERC20Upgradeable(lpPair).approve(address(TraderjoeRouter), amount);\r\n        (amountToken, amountETH) = TraderjoeRouter.removeLiquidityAVAX(token, amount, amountTokenMin, amountETHMin, recipient, block.timestamp);\r\n    }\r\n\r\n    /**\r\n     * @dev Swaps assets using 1inch exchange.\r\n     */  \r\n    function _swap(bytes calldata swapData, address toToken) internal returns(uint256 returnAmount, uint256 spentAmount){\r\n        uint256 balanceBefore = IERC20Upgradeable(toToken).balanceOf(address(this));\r\n        (bool success, bytes memory data) = OneInchRouter.call(swapData);\r\n        require(success, \"SWAP_NOT_SUCCESSFUL\");\r\n\r\n        (returnAmount, spentAmount) = abi.decode(data, (uint256, uint256));\r\n        //checks if all {{toToken}}s from swap were transfered to this address\r\n        uint256 balanceAfter = IERC20Upgradeable(toToken).balanceOf(address(this));\r\n        require(balanceAfter - balanceBefore == returnAmount, \"BAD_RETURN_AMOUNT\");\r\n    }\r\n\r\n\t/**\r\n     * @dev Converts LP tokens to normal tokens, value(amountA) == value(amountB) == 0.5*amountLP\r\n     * @param lpPair - LP pair for conversion.\r\n     * @param amountLP - Amount of LP tokens to convert.\r\n\r\n     * @return amountA - Token A amount.\r\n     * @return amountB - Token B amount.\r\n     */\r\n\tfunction _getTokenStake(address lpPair, uint256 amountLP) internal view returns (uint256 amountA, uint256 amountB) {\r\n\t\tuint256 totalSupply = IERC20Upgradeable(lpPair).totalSupply();\r\n\t\tamountA = (amountLP * IERC20Upgradeable(IUniswapV2Pair(lpPair).token0()).balanceOf(lpPair)) / totalSupply;\r\n\t\tamountB = (amountLP * IERC20Upgradeable(IUniswapV2Pair(lpPair).token1()).balanceOf(lpPair)) / totalSupply;\r\n\t}\r\n\r\n\t/**\r\n\t * @dev Change fee amount.\r\n\t * @param _fee -New fee to collect from farms. [10^18 == 100%]\r\n\t *\r\n\t * Note: This function can only be called by ADMIN_ROLE.\r\n\t */\r\n\tfunction setFee(uint256 _fee) external onlyRole(ADMIN_ROLE) {\r\n\t\trequire(_fee <= 1 ether, \"BAD_FEE\");\r\n\t\tif (fee != _fee) {\r\n\t\t\temit FeeChanged(fee, _fee);\r\n\t\t\tfee = _fee;\r\n\t\t}\r\n\t}\r\n\r\n\tfunction pause() external onlyRole(PAUSER_ROLE) {\r\n\t\t_pause();\r\n\t}\r\n\r\n\tfunction unpause() external onlyRole(PAUSER_ROLE) {\r\n\t\t_unpause();\r\n\t}\r\n\r\n\tfunction _authorizeUpgrade(address) internal override onlyRole(ADMIN_ROLE) {}\r\n}\r\n",
  "sourcePath": "C:\\Users\\jugli\\Desktop\\uno\\uno-contracts-avalanche\\contracts\\apps\\traderjoe\\UnoAssetRouterTraderjoe.sol",
  "compiler": {
    "name": "solc",
    "version": "0.8.10+commit.fc410830.Emscripten.clang"
  },
  "schemaVersion": "3.4.10",
  "updatedAt": "2023-03-02T14:59:54.067Z",
  "networkType": "ethereum",
  "devdoc": {
    "kind": "dev",
    "methods": {
      "constructor": {
        "custom:oz-upgrades-unsafe-allow": "constructor"
      },
      "deposit(address,uint256,uint256,uint256,uint256,address)": {
        "details": "Deposits tokens in the given pool. Creates new Farm contract if there isn't one deployed for the {lpPair} and deposits tokens in it. Emits a {Deposit} event.",
        "params": {
          "amountA": "- Token A amount to deposit.",
          "amountAMin": "- Bounds the extent to which the B/A price can go up before the transaction reverts.",
          "amountB": "-  Token B amount to deposit.",
          "amountBMin": "- Bounds the extent to which the A/B price can go up before the transaction reverts.",
          "lpPair": "- Address of the pool to deposit tokens in.",
          "recipient": "- Address which will receive the deposit."
        },
        "returns": {
          "liquidity": "- Total liquidity sent to the farm (in lpTokens).",
          "sentA": "- Token A amount sent to the farm.",
          "sentB": "- Token B amount sent to the farm."
        }
      },
      "depositETH(address,uint256,uint256,uint256,address)": {
        "details": "Autoconverts AVAX into WAVAX and deposits tokens in the given pool. Creates new Farm contract if there isn't one deployed for the {lpStakingPool} and deposits tokens in it. Emits a {Deposit} event.",
        "params": {
          "amountETHMin": "- Bounds the extent to which the WAVAX/TOKEN price can go up before the transaction reverts.",
          "amountToken": "- Token amount to deposit.",
          "amountTokenMin": "- Bounds the extent to which the TOKEN/WAVAX price can go up before the transaction reverts.",
          "lpPair": "- Address of the pool to deposit tokens in.",
          "recipient": "- Address which will receive the deposit."
        },
        "returns": {
          "liquidity": "- Total liquidity sent to the farm (in lpTokens).",
          "sentETH": "- WAVAX amount sent to the farm.",
          "sentToken": "- Token amount sent to the farm."
        }
      },
      "depositLP(address,uint256,address)": {
        "details": "Deposits tokens in the given pool. Creates new Farm contract if there isn't one deployed for the {lpPair} and deposits tokens in it. Emits a {Deposit} event.",
        "params": {
          "amount": "- LP Token amount to deposit.",
          "lpPair": "- Address of the pool to deposit tokens in.",
          "recipient": "- Address which will receive the deposit."
        }
      },
      "depositSingleAsset(address,address,uint256,bytes[2],uint256,uint256,address)": {
        "details": "Deposits single token in the given pool. Creates new Farm contract if there isn't one deployed for the {lpPair}, swaps {token} for pool tokens and deposits them. Emits a {Deposit} event.",
        "params": {
          "amount": "- Amount of token sent.",
          "amountAMin": "- Bounds the extent to which the B/A price can go up before the transaction reverts.",
          "amountBMin": "- Bounds the extent to which the A/B price can go up before the transaction reverts.",
          "lpPair": "- Address of the pool to deposit tokens in.",
          "recipient": "- Address which will receive the deposit.",
          "swapData": "- Parameter with which 1inch router is being called with.",
          "token": "- Address of a token to enter the pool."
        },
        "returns": {
          "liquidity": "- Total liquidity sent to the farm (in lpTokens).",
          "sent": "- Total {token} amount sent to the farm. NOTE: Returns dust left from swap in {token}, but if A/B amounts are not correct also returns dust in pool's tokens."
        }
      },
      "depositSingleETH(address,bytes[2],uint256,uint256,address)": {
        "details": "Deposits single AVAX in the given pool. Creates new Farm contract if there isn't one deployed for the {lpPair}, swaps AVAX for pool tokens and deposits them. Emits a {Deposit} event.",
        "params": {
          "amountAMin": "- Bounds the extent to which the B/A price can go up before the transaction reverts.",
          "amountBMin": "- Bounds the extent to which the A/B price can go up before the transaction reverts.",
          "lpPair": "- Address of the pool to deposit tokens in.",
          "recipient": "- Address which will receive the deposit.",
          "swapData": "- Parameter with which 1inch router is being called with. NOTE: Use WAVAX as toToken."
        },
        "returns": {
          "liquidity": "- Total liquidity sent to the farm (in lpTokens).",
          "sentETH": "- Total AVAX amount sent to the farm. NOTE: Returns dust left from swap in AVAX, but if A/B amount are not correct also returns dust in pool's tokens."
        }
      },
      "distribute(address,(address[],uint256)[4],(address[],uint256)[2],address)": {
        "details": "Distributes tokens between users.",
        "params": {
          "feeSwapInfo": "- Struct with token arrays describing swap route (rewardTokenToFeeToken, rewarderTokenToFeeToken) and minimum amounts of output tokens that must be received for the transaction not to revert.",
          "feeTo": "- Address to collect fees to. Note: This function can only be called by the distributor.",
          "lpPair": "- LP pool to distribute tokens in.",
          "swapInfos": "- Arrays of structs with token arrays describing swap routes (rewardTokenToTokenA, rewardTokenToTokenB, rewarderTokenToTokenA, rewarderTokenToTokenB) and minimum amounts of output tokens that must be received for the transaction not to revert."
        }
      },
      "getTokens(address)": {
        "details": "Returns addresses of tokens in {lpPair}.",
        "params": {
          "lpPair": "- LP pair to check tokens in."
        },
        "returns": {
          "tokens": "- Tokens addresses."
        }
      },
      "paused()": {
        "details": "Returns true if the contract is paused, and false otherwise."
      },
      "proxiableUUID()": {
        "details": "Implementation of the ERC1822 {proxiableUUID} function. This returns the storage slot used by the implementation. It is used to validate that the this implementation remains valid after an upgrade. IMPORTANT: A proxy pointing at a proxiable contract should not be considered proxiable itself, because this risks bricking a proxy that upgrades to it, by delegating to itself until out of gas. Thus it is critical that this function revert if invoked through a proxy. This is guaranteed by the `notDelegated` modifier."
      },
      "setFee(uint256)": {
        "details": "Change fee amount.",
        "params": {
          "_fee": "-New fee to collect from farms. [10^18 == 100%] Note: This function can only be called by ADMIN_ROLE."
        }
      },
      "totalDeposits(address)": {
        "details": "Returns total amount locked in the pool. Doesn't take pending rewards into account.",
        "params": {
          "lpPair": "- LP pool to check total deposits in."
        },
        "returns": {
          "totalDepositsA": "- Token A deposits.",
          "totalDepositsB": "- Token B deposits.",
          "totalDepositsLP": "- Total deposits (in LP tokens)."
        }
      },
      "upgradeTo(address)": {
        "details": "Upgrade the implementation of the proxy to `newImplementation`. Calls {_authorizeUpgrade}. Emits an {Upgraded} event."
      },
      "upgradeToAndCall(address,bytes)": {
        "details": "Upgrade the implementation of the proxy to `newImplementation`, and subsequently execute the function call encoded in `data`. Calls {_authorizeUpgrade}. Emits an {Upgraded} event."
      },
      "userStake(address,address)": {
        "details": "Returns tokens staked by the {_address} for the given {lpPair}.",
        "params": {
          "_address": "- The address to check stakes for.",
          "lpPair": "- LP pool to check stakes in."
        },
        "returns": {
          "stakeA": "- Token A stake.",
          "stakeB": "- Token B stake.",
          "stakeLP": "- Total user stake(in LP tokens)."
        }
      },
      "withdraw(address,uint256,uint256,uint256,address)": {
        "details": "Withdraws a pair of tokens from the given pool. Emits a {Withdraw} event.",
        "params": {
          "amount": "- LP amount to withdraw. ",
          "amountAMin": "- The minimum amount of tokenA that must be received for the transaction not to revert.",
          "amountBMin": "- The minimum amount of tokenB that must be received for the transaction not to revert.",
          "lpPair": "- LP pool to withdraw from.",
          "recipient": "- The address which will receive tokens."
        },
        "returns": {
          "amountA": "- Token A amount sent to the {recipient}",
          "amountB": "- Token B amount sent to the {recipient}"
        }
      },
      "withdrawETH(address,uint256,uint256,uint256,address)": {
        "details": "Autoconverts WAVAX into AVAX and withdraws tokens from the pool. Emits a {Withdraw} event.",
        "params": {
          "amount": "- LP amount to withdraw. ",
          "amountETHMin": "- The minimum amount of AVAX that must be received for the transaction not to revert.",
          "amountTokenMin": "- The minimum amount of token that must be received for the transaction not to revert.",
          "lpPair": "- LP pool to withdraw from.",
          "recipient": "- The address which will receive tokens."
        },
        "returns": {
          "amountETH": "- AVAX amount sent to the {recipient}.",
          "amountToken": "- Token amount sent to the {recipient}."
        }
      },
      "withdrawLP(address,uint256,address)": {
        "details": "Withdraws LP tokens from the given pool. Emits a {Withdraw} event.",
        "params": {
          "amount": "- LP amount to withdraw. ",
          "lpPair": "- LP pool to withdraw from.",
          "recipient": "- The address which will receive tokens."
        }
      },
      "withdrawSingleAsset(address,uint256,address,bytes[2],address)": {
        "details": "Withdraws single token from the given pool. Emits a {Withdraw} event. Note: If there are any tokens left to be withdrawn after swaps they will be sent to the {{recipient}} in a respective token (not in {token}).",
        "params": {
          "amount": "- LP amount to withdraw. ",
          "lpPair": "- LP pool to withdraw from.",
          "recipient": "- Address which will receive the deposit.",
          "swapData": "- Parameter with which 1inch router is being called with.",
          "token": "- Address of a token to exit the pool with."
        },
        "returns": {
          "amountA": "- Token A dust sent to the {recipient}.",
          "amountB": "- Token B dust sent to the {recipient}.",
          "amountToken": "- {token} amount sent to the {recipient}."
        }
      },
      "withdrawSingleETH(address,uint256,bytes[2],address)": {
        "details": "Withdraws single AVAX from the given pool. Emits a {Withdraw} event. Note: If there are any tokens left to be withdrawn after swaps they will be sent to the {{recipient}} in a respective token (not in AVAX).",
        "params": {
          "amount": "- LP amount to withdraw. ",
          "lpPair": "- LP pool to withdraw from.",
          "recipient": "- Address which will receive the deposit.",
          "swapData": "- Parameter with which 1inch router is being called with."
        },
        "returns": {
          "amountA": "- Token A dust sent to the {recipient}.",
          "amountB": "- Token B dust sent to the {recipient}.",
          "amountETH": "- AVAX amount sent to the {recipient}."
        }
      }
    },
    "stateVariables": {
      "farmFactory": {
        "details": "Contract Variables: farmFactory - The contract that deploys new Farms and links them to {lpPair}s. accessManager - Role manager contract."
      }
    },
    "version": 1
  },
  "userdoc": {
    "kind": "user",
    "methods": {},
    "version": 1
  }
}