{
  "contractName": "UnoAssetRouterTraderjoeV2",
  "abi": [
    {
      "inputs": [],
      "stateMutability": "nonpayable",
      "type": "constructor"
    },
    {
      "anonymous": false,
      "inputs": [
        {
          "indexed": false,
          "internalType": "address",
          "name": "previousAdmin",
          "type": "address"
        },
        {
          "indexed": false,
          "internalType": "address",
          "name": "newAdmin",
          "type": "address"
        }
      ],
      "name": "AdminChanged",
      "type": "event"
    },
    {
      "anonymous": false,
      "inputs": [
        {
          "indexed": true,
          "internalType": "address",
          "name": "beacon",
          "type": "address"
        }
      ],
      "name": "BeaconUpgraded",
      "type": "event"
    },
    {
      "anonymous": false,
      "inputs": [
        {
          "indexed": true,
          "internalType": "address",
          "name": "lpPool",
          "type": "address"
        },
        {
          "indexed": true,
          "internalType": "address",
          "name": "sender",
          "type": "address"
        },
        {
          "indexed": true,
          "internalType": "address",
          "name": "recipient",
          "type": "address"
        },
        {
          "indexed": false,
          "internalType": "uint256",
          "name": "amount",
          "type": "uint256"
        }
      ],
      "name": "Deposit",
      "type": "event"
    },
    {
      "anonymous": false,
      "inputs": [
        {
          "indexed": true,
          "internalType": "address",
          "name": "lpPool",
          "type": "address"
        },
        {
          "indexed": false,
          "internalType": "uint256",
          "name": "reward",
          "type": "uint256"
        }
      ],
      "name": "Distribute",
      "type": "event"
    },
    {
      "anonymous": false,
      "inputs": [
        {
          "indexed": false,
          "internalType": "uint256",
          "name": "previousFee",
          "type": "uint256"
        },
        {
          "indexed": false,
          "internalType": "uint256",
          "name": "newFee",
          "type": "uint256"
        }
      ],
      "name": "FeeChanged",
      "type": "event"
    },
    {
      "anonymous": false,
      "inputs": [
        {
          "indexed": false,
          "internalType": "uint8",
          "name": "version",
          "type": "uint8"
        }
      ],
      "name": "Initialized",
      "type": "event"
    },
    {
      "anonymous": false,
      "inputs": [
        {
          "indexed": false,
          "internalType": "address",
          "name": "account",
          "type": "address"
        }
      ],
      "name": "Paused",
      "type": "event"
    },
    {
      "anonymous": false,
      "inputs": [
        {
          "indexed": false,
          "internalType": "address",
          "name": "account",
          "type": "address"
        }
      ],
      "name": "Unpaused",
      "type": "event"
    },
    {
      "anonymous": false,
      "inputs": [
        {
          "indexed": true,
          "internalType": "address",
          "name": "implementation",
          "type": "address"
        }
      ],
      "name": "Upgraded",
      "type": "event"
    },
    {
      "anonymous": false,
      "inputs": [
        {
          "indexed": true,
          "internalType": "address",
          "name": "lpPool",
          "type": "address"
        },
        {
          "indexed": true,
          "internalType": "address",
          "name": "sender",
          "type": "address"
        },
        {
          "indexed": true,
          "internalType": "address",
          "name": "recipient",
          "type": "address"
        },
        {
          "indexed": false,
          "internalType": "uint256",
          "name": "amount",
          "type": "uint256"
        }
      ],
      "name": "Withdraw",
      "type": "event"
    },
    {
      "inputs": [],
      "name": "TraderjoeRouter",
      "outputs": [
        {
          "internalType": "contract IUniswapV2Router01",
          "name": "",
          "type": "address"
        }
      ],
      "stateMutability": "view",
      "type": "function"
    },
    {
      "inputs": [],
      "name": "WAVAX",
      "outputs": [
        {
          "internalType": "address",
          "name": "",
          "type": "address"
        }
      ],
      "stateMutability": "view",
      "type": "function"
    },
    {
      "inputs": [],
      "name": "accessManager",
      "outputs": [
        {
          "internalType": "contract IUnoAccessManager",
          "name": "",
          "type": "address"
        }
      ],
      "stateMutability": "view",
      "type": "function"
    },
    {
      "inputs": [],
      "name": "farmFactory",
      "outputs": [
        {
          "internalType": "contract IUnoFarmFactory",
          "name": "",
          "type": "address"
        }
      ],
      "stateMutability": "view",
      "type": "function"
    },
    {
      "inputs": [],
      "name": "fee",
      "outputs": [
        {
          "internalType": "uint256",
          "name": "",
          "type": "uint256"
        }
      ],
      "stateMutability": "view",
      "type": "function"
    },
    {
      "inputs": [],
      "name": "paused",
      "outputs": [
        {
          "internalType": "bool",
          "name": "",
          "type": "bool"
        }
      ],
      "stateMutability": "view",
      "type": "function"
    },
    {
      "inputs": [],
      "name": "proxiableUUID",
      "outputs": [
        {
          "internalType": "bytes32",
          "name": "",
          "type": "bytes32"
        }
      ],
      "stateMutability": "view",
      "type": "function"
    },
    {
      "inputs": [
        {
          "internalType": "address",
          "name": "newImplementation",
          "type": "address"
        }
      ],
      "name": "upgradeTo",
      "outputs": [],
      "stateMutability": "nonpayable",
      "type": "function"
    },
    {
      "inputs": [
        {
          "internalType": "address",
          "name": "newImplementation",
          "type": "address"
        },
        {
          "internalType": "bytes",
          "name": "data",
          "type": "bytes"
        }
      ],
      "name": "upgradeToAndCall",
      "outputs": [],
      "stateMutability": "payable",
      "type": "function"
    },
    {
      "inputs": [],
      "name": "version",
      "outputs": [
        {
          "internalType": "uint256",
          "name": "",
          "type": "uint256"
        }
      ],
      "stateMutability": "view",
      "type": "function"
    },
    {
      "stateMutability": "payable",
      "type": "receive"
    },
    {
      "inputs": [
        {
          "internalType": "address",
          "name": "_accessManager",
          "type": "address"
        },
        {
          "internalType": "address",
          "name": "_farmFactory",
          "type": "address"
        }
      ],
      "name": "initialize",
      "outputs": [],
      "stateMutability": "nonpayable",
      "type": "function"
    },
    {
      "inputs": [
        {
          "internalType": "address",
          "name": "lpPair",
          "type": "address"
        },
        {
          "internalType": "uint256",
          "name": "amountA",
          "type": "uint256"
        },
        {
          "internalType": "uint256",
          "name": "amountB",
          "type": "uint256"
        },
        {
          "internalType": "uint256",
          "name": "amountAMin",
          "type": "uint256"
        },
        {
          "internalType": "uint256",
          "name": "amountBMin",
          "type": "uint256"
        },
        {
          "internalType": "address",
          "name": "recipient",
          "type": "address"
        }
      ],
      "name": "deposit",
      "outputs": [
        {
          "internalType": "uint256",
          "name": "sentA",
          "type": "uint256"
        },
        {
          "internalType": "uint256",
          "name": "sentB",
          "type": "uint256"
        },
        {
          "internalType": "uint256",
          "name": "liquidity",
          "type": "uint256"
        }
      ],
      "stateMutability": "nonpayable",
      "type": "function"
    },
    {
      "inputs": [
        {
          "internalType": "address",
          "name": "lpPair",
          "type": "address"
        },
        {
          "internalType": "uint256",
          "name": "amountToken",
          "type": "uint256"
        },
        {
          "internalType": "uint256",
          "name": "amountTokenMin",
          "type": "uint256"
        },
        {
          "internalType": "uint256",
          "name": "amountETHMin",
          "type": "uint256"
        },
        {
          "internalType": "address",
          "name": "recipient",
          "type": "address"
        }
      ],
      "name": "depositETH",
      "outputs": [
        {
          "internalType": "uint256",
          "name": "sentToken",
          "type": "uint256"
        },
        {
          "internalType": "uint256",
          "name": "sentETH",
          "type": "uint256"
        },
        {
          "internalType": "uint256",
          "name": "liquidity",
          "type": "uint256"
        }
      ],
      "stateMutability": "payable",
      "type": "function"
    },
    {
      "inputs": [
        {
          "internalType": "address",
          "name": "lpPair",
          "type": "address"
        },
        {
          "internalType": "address",
          "name": "token",
          "type": "address"
        },
        {
          "internalType": "uint256",
          "name": "amount",
          "type": "uint256"
        },
        {
          "internalType": "bytes[2]",
          "name": "swapData",
          "type": "bytes[2]"
        },
        {
          "internalType": "uint256",
          "name": "amountAMin",
          "type": "uint256"
        },
        {
          "internalType": "uint256",
          "name": "amountBMin",
          "type": "uint256"
        },
        {
          "internalType": "address",
          "name": "recipient",
          "type": "address"
        }
      ],
      "name": "depositSingleAsset",
      "outputs": [
        {
          "internalType": "uint256",
          "name": "sent",
          "type": "uint256"
        },
        {
          "internalType": "uint256",
          "name": "liquidity",
          "type": "uint256"
        }
      ],
      "stateMutability": "nonpayable",
      "type": "function"
    },
    {
      "inputs": [
        {
          "internalType": "address",
          "name": "lpPair",
          "type": "address"
        },
        {
          "internalType": "bytes[2]",
          "name": "swapData",
          "type": "bytes[2]"
        },
        {
          "internalType": "uint256",
          "name": "amountAMin",
          "type": "uint256"
        },
        {
          "internalType": "uint256",
          "name": "amountBMin",
          "type": "uint256"
        },
        {
          "internalType": "address",
          "name": "recipient",
          "type": "address"
        }
      ],
      "name": "depositSingleETH",
      "outputs": [
        {
          "internalType": "uint256",
          "name": "sentETH",
          "type": "uint256"
        },
        {
          "internalType": "uint256",
          "name": "liquidity",
          "type": "uint256"
        }
      ],
      "stateMutability": "payable",
      "type": "function"
    },
    {
      "inputs": [
        {
          "internalType": "address",
          "name": "lpPair",
          "type": "address"
        },
        {
          "internalType": "uint256",
          "name": "amount",
          "type": "uint256"
        },
        {
          "internalType": "address",
          "name": "recipient",
          "type": "address"
        }
      ],
      "name": "depositLP",
      "outputs": [],
      "stateMutability": "nonpayable",
      "type": "function"
    },
    {
      "inputs": [
        {
          "internalType": "address",
          "name": "lpPair",
          "type": "address"
        },
        {
          "internalType": "uint256",
          "name": "amount",
          "type": "uint256"
        },
        {
          "internalType": "uint256",
          "name": "amountAMin",
          "type": "uint256"
        },
        {
          "internalType": "uint256",
          "name": "amountBMin",
          "type": "uint256"
        },
        {
          "internalType": "address",
          "name": "recipient",
          "type": "address"
        }
      ],
      "name": "withdraw",
      "outputs": [
        {
          "internalType": "uint256",
          "name": "amountA",
          "type": "uint256"
        },
        {
          "internalType": "uint256",
          "name": "amountB",
          "type": "uint256"
        }
      ],
      "stateMutability": "nonpayable",
      "type": "function"
    },
    {
      "inputs": [
        {
          "internalType": "address",
          "name": "lpPair",
          "type": "address"
        },
        {
          "internalType": "uint256",
          "name": "amount",
          "type": "uint256"
        },
        {
          "internalType": "uint256",
          "name": "amountTokenMin",
          "type": "uint256"
        },
        {
          "internalType": "uint256",
          "name": "amountETHMin",
          "type": "uint256"
        },
        {
          "internalType": "address",
          "name": "recipient",
          "type": "address"
        }
      ],
      "name": "withdrawETH",
      "outputs": [
        {
          "internalType": "uint256",
          "name": "amountToken",
          "type": "uint256"
        },
        {
          "internalType": "uint256",
          "name": "amountETH",
          "type": "uint256"
        }
      ],
      "stateMutability": "nonpayable",
      "type": "function"
    },
    {
      "inputs": [
        {
          "internalType": "address",
          "name": "lpPair",
          "type": "address"
        },
        {
          "internalType": "uint256",
          "name": "amount",
          "type": "uint256"
        },
        {
          "internalType": "address",
          "name": "token",
          "type": "address"
        },
        {
          "internalType": "bytes[2]",
          "name": "swapData",
          "type": "bytes[2]"
        },
        {
          "internalType": "address",
          "name": "recipient",
          "type": "address"
        }
      ],
      "name": "withdrawSingleAsset",
      "outputs": [
        {
          "internalType": "uint256",
          "name": "amountToken",
          "type": "uint256"
        },
        {
          "internalType": "uint256",
          "name": "amountA",
          "type": "uint256"
        },
        {
          "internalType": "uint256",
          "name": "amountB",
          "type": "uint256"
        }
      ],
      "stateMutability": "nonpayable",
      "type": "function"
    },
    {
      "inputs": [
        {
          "internalType": "address",
          "name": "lpPair",
          "type": "address"
        },
        {
          "internalType": "uint256",
          "name": "amount",
          "type": "uint256"
        },
        {
          "internalType": "bytes[2]",
          "name": "swapData",
          "type": "bytes[2]"
        },
        {
          "internalType": "address",
          "name": "recipient",
          "type": "address"
        }
      ],
      "name": "withdrawSingleETH",
      "outputs": [
        {
          "internalType": "uint256",
          "name": "amountETH",
          "type": "uint256"
        },
        {
          "internalType": "uint256",
          "name": "amountA",
          "type": "uint256"
        },
        {
          "internalType": "uint256",
          "name": "amountB",
          "type": "uint256"
        }
      ],
      "stateMutability": "nonpayable",
      "type": "function"
    },
    {
      "inputs": [
        {
          "internalType": "address",
          "name": "lpPair",
          "type": "address"
        },
        {
          "internalType": "uint256",
          "name": "amount",
          "type": "uint256"
        },
        {
          "internalType": "address",
          "name": "recipient",
          "type": "address"
        }
      ],
      "name": "withdrawLP",
      "outputs": [],
      "stateMutability": "nonpayable",
      "type": "function"
    },
    {
      "inputs": [
        {
          "internalType": "address",
          "name": "lpPair",
          "type": "address"
        },
        {
          "components": [
            {
              "internalType": "address[]",
              "name": "route",
              "type": "address[]"
            },
            {
              "internalType": "uint256",
              "name": "amountOutMin",
              "type": "uint256"
            }
          ],
          "internalType": "struct IUnoFarm.SwapInfo[4]",
          "name": "swapInfos",
          "type": "tuple[4]"
        },
        {
          "internalType": "address",
          "name": "feeTo",
          "type": "address"
        }
      ],
      "name": "distribute",
      "outputs": [],
      "stateMutability": "nonpayable",
      "type": "function"
    },
    {
      "inputs": [
        {
          "internalType": "address",
          "name": "_address",
          "type": "address"
        },
        {
          "internalType": "address",
          "name": "lpPair",
          "type": "address"
        }
      ],
      "name": "userStake",
      "outputs": [
        {
          "internalType": "uint256",
          "name": "stakeLP",
          "type": "uint256"
        },
        {
          "internalType": "uint256",
          "name": "stakeA",
          "type": "uint256"
        },
        {
          "internalType": "uint256",
          "name": "stakeB",
          "type": "uint256"
        }
      ],
      "stateMutability": "view",
      "type": "function"
    },
    {
      "inputs": [
        {
          "internalType": "address",
          "name": "lpPair",
          "type": "address"
        }
      ],
      "name": "totalDeposits",
      "outputs": [
        {
          "internalType": "uint256",
          "name": "totalDepositsLP",
          "type": "uint256"
        },
        {
          "internalType": "uint256",
          "name": "totalDepositsA",
          "type": "uint256"
        },
        {
          "internalType": "uint256",
          "name": "totalDepositsB",
          "type": "uint256"
        }
      ],
      "stateMutability": "view",
      "type": "function"
    },
    {
      "inputs": [
        {
          "internalType": "address",
          "name": "lpPair",
          "type": "address"
        }
      ],
      "name": "getTokens",
      "outputs": [
        {
          "internalType": "contract IERC20Upgradeable[]",
          "name": "tokens",
          "type": "address[]"
        }
      ],
      "stateMutability": "view",
      "type": "function"
    },
    {
      "inputs": [
        {
          "internalType": "uint256",
          "name": "_fee",
          "type": "uint256"
        }
      ],
      "name": "setFee",
      "outputs": [],
      "stateMutability": "nonpayable",
      "type": "function"
    },
    {
      "inputs": [],
      "name": "pause",
      "outputs": [],
      "stateMutability": "nonpayable",
      "type": "function"
    },
    {
      "inputs": [],
      "name": "unpause",
      "outputs": [],
      "stateMutability": "nonpayable",
      "type": "function"
    }
  ],
  "bytecode": "0x60a0604052306080523480156200001557600080fd5b506200002062000026565b62000133565b6200003260ff62000035565b50565b60008054610100900460ff1615620000ba578160ff1660011480156200005a5750303b155b620000b25760405162461bcd60e51b815260206004820152602e6024820152600080516020620060ac83398151915260448201526d191e481a5b9a5d1a585b1a5e995960921b60648201526084015b60405180910390fd5b506000919050565b60005460ff808416911610620001195760405162461bcd60e51b815260206004820152602e6024820152600080516020620060ac83398151915260448201526d191e481a5b9a5d1a585b1a5e995960921b6064820152608401620000a9565b506000805460ff191660ff92909216919091179055600190565b608051615f416200016b60003960008181610a9201528181610b280152818161135a015281816113f0015261160e0152615f416000f3fe6080604052600436106101bb5760003560e01c80636c2b5517116100ec578063d84ff8421161008a578063e50e637111610064578063e50e637114610578578063e940325614610598578063fdcb6068146105b8578063fefa4094146105d857600080fd5b8063d84ff84214610522578063ddca3f4314610542578063deb03f4d1461055857600080fd5b80637d795628116100c65780637d795628146104ba5780638456cb59146104cd578063a475626c146104e2578063be548aeb1461050257600080fd5b80636c2b55171461043d5780636d25e1751461047257806373b295c21461049257600080fd5b80634f1ef2861161015957806354fd4d501161013357806354fd4d50146103c55780635c975abb146103da5780636505e65e146103fd57806369fe0e2d1461041d57600080fd5b80634f1ef2861461036f57806351bdca3e1461038257806352d1902d146103a257600080fd5b80633f4ba83a116101955780633f4ba83a146102ed578063450efe211461030257806346dafa2f1461032f578063485cc9551461034f57600080fd5b80630f6ff7b41461024d5780632f2255cc146102925780633659cfe6146102cd57600080fd5b36610248573373b31f66aa3c1e785363f0875a1b74e27b85fd66c714806101f55750337360ae616a2155ee3d9a68541ba4544862310933d4145b6102465760405162461bcd60e51b815260206004820152601160248201527f4f4e4c595f4143434550545f574156415800000000000000000000000000000060448201526064015b60405180910390fd5b005b600080fd5b34801561025957600080fd5b506102757360ae616a2155ee3d9a68541ba4544862310933d481565b6040516001600160a01b0390911681526020015b60405180910390f35b34801561029e57600080fd5b506102b26102ad3660046155ee565b6105eb565b60408051938452602084019290925290820152606001610289565b3480156102d957600080fd5b506102466102e836600461566f565b610a88565b3480156102f957600080fd5b50610246610c25565b34801561030e57600080fd5b5061032261031d36600461566f565b610d25565b604051610289919061568c565b34801561033b57600080fd5b5061024661034a3660046156d9565b610e74565b34801561035b57600080fd5b5061024661036a36600461571b565b61110f565b61024661037d366004615783565b611350565b34801561038e57600080fd5b506102b261039d36600461571b565b6114de565b3480156103ae57600080fd5b506103b7611601565b604051908152602001610289565b3480156103d157600080fd5b506103b7600281565b3480156103e657600080fd5b5060335460ff166040519015158152602001610289565b34801561040957600080fd5b506102b2610418366004615865565b6116c6565b34801561042957600080fd5b506102466104383660046158c3565b611a7a565b34801561044957600080fd5b5061045d6104583660046158dc565b611bf8565b60408051928352602083019190915201610289565b34801561047e57600080fd5b5060c954610275906001600160a01b031681565b34801561049e57600080fd5b5061027573b31f66aa3c1e785363f0875a1b74e27b85fd66c781565b61045d6104c8366004615970565b612175565b3480156104d957600080fd5b5061024661280f565b3480156104ee57600080fd5b506102b26104fd3660046159da565b61290f565b34801561050e57600080fd5b5061024661051d366004615a46565b612e7c565b34801561052e57600080fd5b5061045d61053d366004615aa4565b61317b565b34801561054e57600080fd5b506103b760cc5481565b34801561056457600080fd5b5061045d610573366004615aa4565b6133ec565b34801561058457600080fd5b506102466105933660046156d9565b613734565b3480156105a457600080fd5b506102b26105b336600461566f565b6138cb565b3480156105c457600080fd5b5060ca54610275906001600160a01b031681565b6102b26105e6366004615aa4565b6139cd565b60c95460405163f9d9331d60e01b81526001600160a01b038781166004830152600092839283928392169063f9d9331d90602401602060405180830381865afa15801561063c573d6000803e3d6000fd5b505050506040513d601f19601f820116820180604052508101906106609190615aec565b90506001600160a01b0381166106b85760405162461bcd60e51b815260206004820152600f60248201527f4641524d5f4e4f545f4558495354530000000000000000000000000000000000604482015260640161023d565b6040517fb460af94000000000000000000000000000000000000000000000000000000008152600481018990523360248201523060448201526001600160a01b0382169063b460af9490606401600060405180830381600087803b15801561071f57600080fd5b505af1158015610733573d6000803e3d6000fd5b505050506000816001600160a01b0316630fc63d106040518163ffffffff1660e01b8152600401602060405180830381865afa158015610777573d6000803e3d6000fd5b505050506040513d601f19601f8201168201806040525081019061079b9190615aec565b90506000826001600160a01b0316635f64b55b6040518163ffffffff1660e01b8152600401602060405180830381865afa1580156107dd573d6000803e3d6000fd5b505050506040513d601f19601f820116820180604052508101906108019190615aec565b90506108138b83838d60008030613e1c565b90955093506001600160a01b03828116908a16146109085760405163095ea7b360e01b8152731111111254eeb25477b68fb85ed929f73a9605826004820152602481018690526001600160a01b0383169063095ea7b3906044016020604051808303816000875af115801561088c573d6000803e3d6000fd5b505050506040513d601f19601f820116820180604052508101906108b09190615b09565b506000806108d08a825b6020028101906108ca9190615b5a565b8d613f78565b90925090506108df8289615bf5565b97506108eb8188615c08565b96506109016001600160a01b0385168a896141ca565b5050610919565b6109128587615bf5565b9550600094505b886001600160a01b0316816001600160a01b0316146109fe5760405163095ea7b360e01b8152731111111254eeb25477b68fb85ed929f73a9605826004820152602481018590526001600160a01b0382169063095ea7b3906044016020604051808303816000875af1158015610993573d6000803e3d6000fd5b505050506040513d601f19601f820116820180604052508101906109b79190615b09565b506000806109c68a60016108ba565b90925090506109d58289615bf5565b97506109e18187615c08565b95506109f76001600160a01b0384168a886141ca565b5050610a0f565b610a088487615bf5565b9550600093505b610a236001600160a01b038a1688886141ca565b866001600160a01b0316336001600160a01b03168c6001600160a01b03167f3115d1449a7b732c986cba18244e897a450f61e1bb8d589cd2e69e6c8924f9f78d604051610a7291815260200190565b60405180910390a4505050955095509592505050565b6001600160a01b037f0000000000000000000000000000000000000000000000000000000000000000163003610b265760405162461bcd60e51b815260206004820152602c60248201527f46756e6374696f6e206d7573742062652063616c6c6564207468726f7567682060448201527f64656c656761746563616c6c0000000000000000000000000000000000000000606482015260840161023d565b7f00000000000000000000000000000000000000000000000000000000000000006001600160a01b0316610b817f360894a13ba1a3210667c828492db98dca3e2076cc3735a920a3ca505d382bbc546001600160a01b031690565b6001600160a01b031614610bfd5760405162461bcd60e51b815260206004820152602c60248201527f46756e6374696f6e206d7573742062652063616c6c6564207468726f7567682060448201527f6163746976652070726f78790000000000000000000000000000000000000000606482015260840161023d565b610c0681614291565b60408051600080825260208201909252610c229183919061436c565b50565b60ca546040517f91d148540000000000000000000000000000000000000000000000000000000081527f65d7a28e3265b37a6474929f336521b332c1681b933f6cb9f3376673440d862a60048201819052336024830152916001600160a01b0316906391d1485490604401602060405180830381865afa158015610cad573d6000803e3d6000fd5b505050506040513d601f19601f82011682018060405250810190610cd19190615b09565b610d1d5760405162461bcd60e51b815260206004820152601560248201527f43414c4c45525f4e4f545f415554484f52495a45440000000000000000000000604482015260640161023d565b610c2261452a565b6040805160028082526060808301845292602083019080368337019050509050816001600160a01b0316630dfe16816040518163ffffffff1660e01b8152600401602060405180830381865afa158015610d83573d6000803e3d6000fd5b505050506040513d601f19601f82011682018060405250810190610da79190615aec565b81600081518110610dba57610dba615b2b565b60200260200101906001600160a01b031690816001600160a01b031681525050816001600160a01b031663d21220a76040518163ffffffff1660e01b8152600401602060405180830381865afa158015610e18573d6000803e3d6000fd5b505050506040513d601f19601f82011682018060405250810190610e3c9190615aec565b81600181518110610e4f57610e4f615b2b565b60200260200101906001600160a01b031690816001600160a01b031681525050919050565b60335460ff1615610ec75760405162461bcd60e51b815260206004820152601060248201527f5061757361626c653a2070617573656400000000000000000000000000000000604482015260640161023d565b60008211610f175760405162461bcd60e51b815260206004820152600d60248201527f4e4f5f544f4b454e5f53454e5400000000000000000000000000000000000000604482015260640161023d565b60c95460405163f9d9331d60e01b81526001600160a01b038581166004830152600092169063f9d9331d90602401602060405180830381865afa158015610f62573d6000803e3d6000fd5b505050506040513d601f19601f82011682018060405250810190610f869190615aec565b90506001600160a01b0381166110225760c9546040517f061278c00000000000000000000000000000000000000000000000000000000081526001600160a01b0386811660048301529091169063061278c0906024016020604051808303816000875af1158015610ffb573d6000803e3d6000fd5b505050506040513d601f19601f8201168201806040525081019061101f9190615aec565b90505b6110376001600160a01b0385163383866145e4565b6040517f6e553f65000000000000000000000000000000000000000000000000000000008152600481018490526001600160a01b038381166024830152821690636e553f6590604401600060405180830381600087803b15801561109a57600080fd5b505af11580156110ae573d6000803e3d6000fd5b50505050816001600160a01b0316336001600160a01b0316856001600160a01b03167f7cfff908a4b583f36430b25d75964c458d8ede8a99bd61be750e97ee1b2f3a968660405161110191815260200190565b60405180910390a450505050565b600061111b600161463b565b9050801561115057600080547fffffffffffffffffffffffffffffffffffffffffffffffffffffffffffff00ff166101001790555b6001600160a01b0383166111a65760405162461bcd60e51b815260206004820152601260248201527f4241445f4143434553535f4d414e414745520000000000000000000000000000604482015260640161023d565b6001600160a01b0382166111fc5760405162461bcd60e51b815260206004820152601060248201527f4241445f4641524d5f464143544f525900000000000000000000000000000000604482015260640161023d565b61120461478d565b60ca80547fffffffffffffffffffffffff0000000000000000000000000000000000000000166001600160a01b038516908117909155604080517f75b238fc00000000000000000000000000000000000000000000000000000000815290516375b238fc916004808201926020929091908290030181865afa15801561128e573d6000803e3d6000fd5b505050506040513d601f19601f820116820180604052508101906112b29190615c1b565b60cb5560c980547fffffffffffffffffffffffff0000000000000000000000000000000000000000166001600160a01b038416179055801561134b57600080547fffffffffffffffffffffffffffffffffffffffffffffffffffffffffffff00ff169055604051600181527f7f26b83ff96e1f2b6a682f133852f6798a09c465da95921460cefb38474024989060200160405180910390a15b505050565b6001600160a01b037f00000000000000000000000000000000000000000000000000000000000000001630036113ee5760405162461bcd60e51b815260206004820152602c60248201527f46756e6374696f6e206d7573742062652063616c6c6564207468726f7567682060448201527f64656c656761746563616c6c0000000000000000000000000000000000000000606482015260840161023d565b7f00000000000000000000000000000000000000000000000000000000000000006001600160a01b03166114497f360894a13ba1a3210667c828492db98dca3e2076cc3735a920a3ca505d382bbc546001600160a01b031690565b6001600160a01b0316146114c55760405162461bcd60e51b815260206004820152602c60248201527f46756e6374696f6e206d7573742062652063616c6c6564207468726f7567682060448201527f6163746976652070726f78790000000000000000000000000000000000000000606482015260840161023d565b6114ce82614291565b6114da8282600161436c565b5050565b60c95460405163f9d9331d60e01b81526001600160a01b038381166004830152600092839283928392169063f9d9331d90602401602060405180830381865afa15801561152f573d6000803e3d6000fd5b505050506040513d601f19601f820116820180604052508101906115539190615aec565b90506001600160a01b038116156115f9576040517f0103c92b0000000000000000000000000000000000000000000000000000000081526001600160a01b038781166004830152821690630103c92b90602401602060405180830381865afa1580156115c3573d6000803e3d6000fd5b505050506040513d601f19601f820116820180604052508101906115e79190615c1b565b93506115f38585614814565b90935091505b509250925092565b6000306001600160a01b037f000000000000000000000000000000000000000000000000000000000000000016146116a15760405162461bcd60e51b815260206004820152603860248201527f555550535570677261646561626c653a206d757374206e6f742062652063616c60448201527f6c6564207468726f7567682064656c656761746563616c6c0000000000000000606482015260840161023d565b507f360894a13ba1a3210667c828492db98dca3e2076cc3735a920a3ca505d382bbc90565b60008060006116d760335460ff1690565b156117245760405162461bcd60e51b815260206004820152601060248201527f5061757361626c653a2070617573656400000000000000000000000000000000604482015260640161023d565b6000881180156117345750600087115b6117805760405162461bcd60e51b815260206004820152600e60248201527f4e4f5f544f4b454e535f53454e54000000000000000000000000000000000000604482015260640161023d565b60c95460405163f9d9331d60e01b81526001600160a01b038b81166004830152600092169063f9d9331d90602401602060405180830381865afa1580156117cb573d6000803e3d6000fd5b505050506040513d601f19601f820116820180604052508101906117ef9190615aec565b90506001600160a01b03811661188b5760c9546040517f061278c00000000000000000000000000000000000000000000000000000000081526001600160a01b038c811660048301529091169063061278c0906024016020604051808303816000875af1158015611864573d6000803e3d6000fd5b505050506040513d601f19601f820116820180604052508101906118889190615aec565b90505b6000816001600160a01b0316630fc63d106040518163ffffffff1660e01b8152600401602060405180830381865afa1580156118cb573d6000803e3d6000fd5b505050506040513d601f19601f820116820180604052508101906118ef9190615aec565b90506000826001600160a01b0316635f64b55b6040518163ffffffff1660e01b8152600401602060405180830381865afa158015611931573d6000803e3d6000fd5b505050506040513d601f19601f820116820180604052508101906119559190615aec565b905061196c6001600160a01b03831633308e6145e4565b6119816001600160a01b03821633308d6145e4565b61199082828d8d8d8d89614a81565b6040517f6e553f65000000000000000000000000000000000000000000000000000000008152600481018290526001600160a01b038b81166024830152939950919750955090841690636e553f6590604401600060405180830381600087803b1580156119fc57600080fd5b505af1158015611a10573d6000803e3d6000fd5b50505050866001600160a01b0316336001600160a01b03168d6001600160a01b03167f7cfff908a4b583f36430b25d75964c458d8ede8a99bd61be750e97ee1b2f3a9687604051611a6391815260200190565b60405180910390a450505096509650969350505050565b60cb5460ca546040517f91d14854000000000000000000000000000000000000000000000000000000008152600481018390523360248201526001600160a01b03909116906391d1485490604401602060405180830381865afa158015611ae5573d6000803e3d6000fd5b505050506040513d601f19601f82011682018060405250810190611b099190615b09565b611b555760405162461bcd60e51b815260206004820152601560248201527f43414c4c45525f4e4f545f415554484f52495a45440000000000000000000000604482015260640161023d565b670de0b6b3a7640000821115611bad5760405162461bcd60e51b815260206004820152600760248201527f4241445f46454500000000000000000000000000000000000000000000000000604482015260640161023d565b8160cc54146114da5760cc5460408051918252602082018490527f5fc463da23c1b063e66f9e352006a7fbe8db7223c455dc429e881a2dfe2f94f1910160405180910390a15060cc55565b600080611c0760335460ff1690565b15611c545760405162461bcd60e51b815260206004820152601060248201527f5061757361626c653a2070617573656400000000000000000000000000000000604482015260640161023d565b60008711611ca45760405162461bcd60e51b815260206004820152600d60248201527f4e4f5f544f4b454e5f53454e5400000000000000000000000000000000000000604482015260640161023d565b60c95460405163f9d9331d60e01b81526001600160a01b038b81166004830152600092169063f9d9331d90602401602060405180830381865afa158015611cef573d6000803e3d6000fd5b505050506040513d601f19601f82011682018060405250810190611d139190615aec565b90506001600160a01b038116611daf5760c9546040517f061278c00000000000000000000000000000000000000000000000000000000081526001600160a01b038c811660048301529091169063061278c0906024016020604051808303816000875af1158015611d88573d6000803e3d6000fd5b505050506040513d601f19601f82011682018060405250810190611dac9190615aec565b90505b611dc46001600160a01b038a1633308b6145e4565b60405163095ea7b360e01b8152731111111254eeb25477b68fb85ed929f73a9605826004820152602481018990526001600160a01b038a169063095ea7b3906044016020604051808303816000875af1158015611e25573d6000803e3d6000fd5b505050506040513d601f19601f82011682018060405250810190611e499190615b09565b508792506000806000836001600160a01b0316630fc63d106040518163ffffffff1660e01b8152600401602060405180830381865afa158015611e90573d6000803e3d6000fd5b505050506040513d601f19601f82011682018060405250810190611eb49190615aec565b90506000846001600160a01b0316635f64b55b6040518163ffffffff1660e01b8152600401602060405180830381865afa158015611ef6573d6000803e3d6000fd5b505050506040513d601f19601f82011682018060405250810190611f1a9190615aec565b90508c6001600160a01b0316826001600160a01b031614611f6a57600080611f548d825b602002810190611f4e9190615b5a565b86613f78565b9092509050611f63818f615c08565b9d50909450505b8c6001600160a01b0316816001600160a01b031614611fb957600080611fa38d60015b602002810190611f9d9190615b5a565b85613f78565b9092509050611fb2818f615c08565b9d50909350505b8c6001600160a01b0316826001600160a01b031603611fda578b9350612021565b8c6001600160a01b0316816001600160a01b031603611ffb578b9250612021565b8b156120215761200b8c88615c08565b96506120216001600160a01b038e16338e6141ca565b6000841180156120315750600083115b61207d5760405162461bcd60e51b815260206004820152600e60248201527f4e4f5f544f4b454e535f53454e54000000000000000000000000000000000000604482015260640161023d565b61208c828286868e8e8b614a81565b6040517f6e553f65000000000000000000000000000000000000000000000000000000008152600481018290526001600160a01b038c811660248301529199509088169250636e553f659150604401600060405180830381600087803b1580156120f557600080fd5b505af1158015612109573d6000803e3d6000fd5b50505050876001600160a01b0316336001600160a01b03168f6001600160a01b03167f7cfff908a4b583f36430b25d75964c458d8ede8a99bd61be750e97ee1b2f3a968960405161215c91815260200190565b60405180910390a4505050505097509795505050505050565b60008061218460335460ff1690565b156121d15760405162461bcd60e51b815260206004820152601060248201527f5061757361626c653a2070617573656400000000000000000000000000000000604482015260640161023d565b600034116122215760405162461bcd60e51b815260206004820152600c60248201527f4e4f5f415641585f53454e540000000000000000000000000000000000000000604482015260640161023d565b60c95460405163f9d9331d60e01b81526001600160a01b038981166004830152600092169063f9d9331d90602401602060405180830381865afa15801561226c573d6000803e3d6000fd5b505050506040513d601f19601f820116820180604052508101906122909190615aec565b90506001600160a01b03811661232c5760c9546040517f061278c00000000000000000000000000000000000000000000000000000000081526001600160a01b038a811660048301529091169063061278c0906024016020604051808303816000875af1158015612305573d6000803e3d6000fd5b505050506040513d601f19601f820116820180604052508101906123299190615aec565b90505b600034905073b31f66aa3c1e785363f0875a1b74e27b85fd66c76001600160a01b031663d0e30db0826040518263ffffffff1660e01b81526004016000604051808303818588803b15801561238057600080fd5b505af1158015612394573d6000803e3d6000fd5b505060405163095ea7b360e01b8152731111111254eeb25477b68fb85ed929f73a96058260048201526024810185905273b31f66aa3c1e785363f0875a1b74e27b85fd66c7935063095ea7b3925060440190506020604051808303816000875af1158015612406573d6000803e3d6000fd5b505050506040513d601f19601f8201168201806040525081019061242a9190615b09565b508093506000806000846001600160a01b0316630fc63d106040518163ffffffff1660e01b8152600401602060405180830381865afa158015612471573d6000803e3d6000fd5b505050506040513d601f19601f820116820180604052508101906124959190615aec565b90506000856001600160a01b0316635f64b55b6040518163ffffffff1660e01b8152600401602060405180830381865afa1580156124d7573d6000803e3d6000fd5b505050506040513d601f19601f820116820180604052508101906124fb9190615aec565b90506001600160a01b03821673b31f66aa3c1e785363f0875a1b74e27b85fd66c7146125445760008061252e8e82611f3e565b909250905061253d8188615c08565b9650909450505b6001600160a01b03811673b31f66aa3c1e785363f0875a1b74e27b85fd66c71461258c576000806125768e6001611f8d565b90925090506125858188615c08565b9650909350505b7fffffffffffffffffffffffff4ce09955c3e187ac9c0f78a5e48b1d847a0299396001600160a01b038316016125c4578493506126bc565b7fffffffffffffffffffffffff4ce09955c3e187ac9c0f78a5e48b1d847a0299396001600160a01b038216016125fc578492506126bc565b84156126bc5761260c8589615c08565b6040517f2e1a7d4d0000000000000000000000000000000000000000000000000000000081526004810187905290985073b31f66aa3c1e785363f0875a1b74e27b85fd66c790632e1a7d4d90602401600060405180830381600087803b15801561267557600080fd5b505af1158015612689573d6000803e3d6000fd5b505060405133925087156108fc02915087906000818181858888f193505050501580156126ba573d6000803e3d6000fd5b505b6000841180156126cc5750600083115b6127185760405162461bcd60e51b815260206004820152600e60248201527f4e4f5f544f4b454e535f53454e54000000000000000000000000000000000000604482015260640161023d565b612727828286868f8f8c614a81565b6040517f6e553f65000000000000000000000000000000000000000000000000000000008152600481018290526001600160a01b038d81166024830152919a509089169250636e553f659150604401600060405180830381600087803b15801561279057600080fd5b505af11580156127a4573d6000803e3d6000fd5b50505050886001600160a01b0316336001600160a01b03168e6001600160a01b03167f7cfff908a4b583f36430b25d75964c458d8ede8a99bd61be750e97ee1b2f3a968a6040516127f791815260200190565b60405180910390a45050505050509550959350505050565b60ca546040517f91d148540000000000000000000000000000000000000000000000000000000081527f65d7a28e3265b37a6474929f336521b332c1681b933f6cb9f3376673440d862a60048201819052336024830152916001600160a01b0316906391d1485490604401602060405180830381865afa158015612897573d6000803e3d6000fd5b505050506040513d601f19601f820116820180604052508101906128bb9190615b09565b6129075760405162461bcd60e51b815260206004820152601560248201527f43414c4c45525f4e4f545f415554484f52495a45440000000000000000000000604482015260640161023d565b610c22614cb0565b60c95460405163f9d9331d60e01b81526001600160a01b038681166004830152600092839283928392169063f9d9331d90602401602060405180830381865afa158015612960573d6000803e3d6000fd5b505050506040513d601f19601f820116820180604052508101906129849190615aec565b90506001600160a01b0381166129dc5760405162461bcd60e51b815260206004820152600f60248201527f4641524d5f4e4f545f4558495354530000000000000000000000000000000000604482015260640161023d565b6040517fb460af94000000000000000000000000000000000000000000000000000000008152600481018890523360248201523060448201526001600160a01b0382169063b460af9490606401600060405180830381600087803b158015612a4357600080fd5b505af1158015612a57573d6000803e3d6000fd5b505050506000816001600160a01b0316630fc63d106040518163ffffffff1660e01b8152600401602060405180830381865afa158015612a9b573d6000803e3d6000fd5b505050506040513d601f19601f82011682018060405250810190612abf9190615aec565b90506000826001600160a01b0316635f64b55b6040518163ffffffff1660e01b8152600401602060405180830381865afa158015612b01573d6000803e3d6000fd5b505050506040513d601f19601f82011682018060405250810190612b259190615aec565b9050612b378a83838c60008030613e1c565b90955093506001600160a01b03821673b31f66aa3c1e785363f0875a1b74e27b85fd66c714612c515760405163095ea7b360e01b8152731111111254eeb25477b68fb85ed929f73a9605826004820152602481018690526001600160a01b0383169063095ea7b3906044016020604051808303816000875af1158015612bc1573d6000803e3d6000fd5b505050506040513d601f19601f82011682018060405250810190612be59190615b09565b50600080612c198a825b602002810190612bff9190615b5a565b73b31f66aa3c1e785363f0875a1b74e27b85fd66c7613f78565b9092509050612c288289615bf5565b9750612c348188615c08565b9650612c4a6001600160a01b0385168a896141ca565b5050612c62565b612c5b8587615bf5565b9550600094505b6001600160a01b03811673b31f66aa3c1e785363f0875a1b74e27b85fd66c714612d525760405163095ea7b360e01b8152731111111254eeb25477b68fb85ed929f73a9605826004820152602481018590526001600160a01b0382169063095ea7b3906044016020604051808303816000875af1158015612ce7573d6000803e3d6000fd5b505050506040513d601f19601f82011682018060405250810190612d0b9190615b09565b50600080612d1a8a6001612bef565b9092509050612d298289615bf5565b9750612d358187615c08565b9550612d4b6001600160a01b0384168a886141ca565b5050612d63565b612d5c8487615bf5565b9550600093505b6040517f2e1a7d4d0000000000000000000000000000000000000000000000000000000081526004810187905273b31f66aa3c1e785363f0875a1b74e27b85fd66c790632e1a7d4d90602401600060405180830381600087803b158015612dc957600080fd5b505af1158015612ddd573d6000803e3d6000fd5b50506040516001600160a01b038a16925088156108fc02915088906000818181858888f19350505050158015612e17573d6000803e3d6000fd5b50866001600160a01b0316336001600160a01b03168b6001600160a01b03167f3115d1449a7b732c986cba18244e897a450f61e1bb8d589cd2e69e6c8924f9f78c604051612e6791815260200190565b60405180910390a45050509450945094915050565b60335460ff1615612ecf5760405162461bcd60e51b815260206004820152601060248201527f5061757361626c653a2070617573656400000000000000000000000000000000604482015260640161023d565b60ca546040517f91d148540000000000000000000000000000000000000000000000000000000081527ffbd454f36a7e1a388bd6fc3ab10d434aa4578f811acbbcf33afb1c697486313c60048201819052336024830152916001600160a01b0316906391d1485490604401602060405180830381865afa158015612f57573d6000803e3d6000fd5b505050506040513d601f19601f82011682018060405250810190612f7b9190615b09565b612fc75760405162461bcd60e51b815260206004820152601560248201527f43414c4c45525f4e4f545f415554484f52495a45440000000000000000000000604482015260640161023d565b60c95460405163f9d9331d60e01b81526001600160a01b038681166004830152600092169063f9d9331d90602401602060405180830381865afa158015613012573d6000803e3d6000fd5b505050506040513d601f19601f820116820180604052508101906130369190615aec565b90506001600160a01b03811661308e5760405162461bcd60e51b815260206004820152600f60248201527f4641524d5f4e4f545f4558495354530000000000000000000000000000000000604482015260640161023d565b6040805180820182526001600160a01b03858116825260cc54602083015291517f6a30683b000000000000000000000000000000000000000000000000000000008152600092841691636a30683b916130eb918991600401615c34565b6020604051808303816000875af115801561310a573d6000803e3d6000fd5b505050506040513d601f19601f8201168201806040525081019061312e9190615c1b565b9050856001600160a01b03167fc1d32ad5cca423e7dda2123dbf8c482f8e77d00b631c06e903a47f2cec1334df8260405161316b91815260200190565b60405180910390a2505050505050565b60c95460405163f9d9331d60e01b81526001600160a01b038781166004830152600092839283929091169063f9d9331d90602401602060405180830381865afa1580156131cc573d6000803e3d6000fd5b505050506040513d601f19601f820116820180604052508101906131f09190615aec565b90506001600160a01b0381166132485760405162461bcd60e51b815260206004820152600f60248201527f4641524d5f4e4f545f4558495354530000000000000000000000000000000000604482015260640161023d565b6040517fb460af94000000000000000000000000000000000000000000000000000000008152600481018890523360248201523060448201526001600160a01b0382169063b460af9490606401600060405180830381600087803b1580156132af57600080fd5b505af11580156132c3573d6000803e3d6000fd5b5050505061339888826001600160a01b0316630fc63d106040518163ffffffff1660e01b8152600401602060405180830381865afa158015613309573d6000803e3d6000fd5b505050506040513d601f19601f8201168201806040525081019061332d9190615aec565b836001600160a01b0316635f64b55b6040518163ffffffff1660e01b8152600401602060405180830381865afa15801561336b573d6000803e3d6000fd5b505050506040513d601f19601f8201168201806040525081019061338f9190615aec565b8a8a8a8a613e1c565b60405189815291945092506001600160a01b038581169133918b16907f3115d1449a7b732c986cba18244e897a450f61e1bb8d589cd2e69e6c8924f9f79060200160405180910390a4509550959350505050565b60c95460405163f9d9331d60e01b81526001600160a01b038781166004830152600092839283929091169063f9d9331d90602401602060405180830381865afa15801561343d573d6000803e3d6000fd5b505050506040513d601f19601f820116820180604052508101906134619190615aec565b90506001600160a01b0381166134b95760405162461bcd60e51b815260206004820152600f60248201527f4641524d5f4e4f545f4558495354530000000000000000000000000000000000604482015260640161023d565b6000816001600160a01b0316630fc63d106040518163ffffffff1660e01b8152600401602060405180830381865afa1580156134f9573d6000803e3d6000fd5b505050506040513d601f19601f8201168201806040525081019061351d9190615aec565b90506000826001600160a01b0316635f64b55b6040518163ffffffff1660e01b8152600401602060405180830381865afa15801561355f573d6000803e3d6000fd5b505050506040513d601f19601f820116820180604052508101906135839190615aec565b6040517fb460af94000000000000000000000000000000000000000000000000000000008152600481018b90523360248201523060448201529091506001600160a01b0384169063b460af9490606401600060405180830381600087803b1580156135ed57600080fd5b505af1158015613601573d6000803e3d6000fd5b5050505073b31f66aa3c1e785363f0875a1b74e27b85fd66c76001600160a01b0316826001600160a01b03160361364a576136408a828b8b8b8b614d56565b90955093506136d0565b7fffffffffffffffffffffffff4ce09955c3e187ac9c0f78a5e48b1d847a0299396001600160a01b03821601613688576136408a838b8b8b8b614d56565b60405162461bcd60e51b815260206004820152600e60248201527f4e4f545f57415641585f504f4f4c000000000000000000000000000000000000604482015260640161023d565b856001600160a01b0316336001600160a01b03168b6001600160a01b03167f3115d1449a7b732c986cba18244e897a450f61e1bb8d589cd2e69e6c8924f9f78c60405161371f91815260200190565b60405180910390a45050509550959350505050565b60c95460405163f9d9331d60e01b81526001600160a01b038581166004830152600092169063f9d9331d90602401602060405180830381865afa15801561377f573d6000803e3d6000fd5b505050506040513d601f19601f820116820180604052508101906137a39190615aec565b90506001600160a01b0381166137fb5760405162461bcd60e51b815260206004820152600f60248201527f4641524d5f4e4f545f4558495354530000000000000000000000000000000000604482015260640161023d565b6040517fb460af94000000000000000000000000000000000000000000000000000000008152600481018490523360248201526001600160a01b03838116604483015282169063b460af9490606401600060405180830381600087803b15801561386457600080fd5b505af1158015613878573d6000803e3d6000fd5b50505050816001600160a01b0316336001600160a01b0316856001600160a01b03167f3115d1449a7b732c986cba18244e897a450f61e1bb8d589cd2e69e6c8924f9f78660405161110191815260200190565b60c95460405163f9d9331d60e01b81526001600160a01b038381166004830152600092839283928392169063f9d9331d90602401602060405180830381865afa15801561391c573d6000803e3d6000fd5b505050506040513d601f19601f820116820180604052508101906139409190615aec565b90506001600160a01b038116156139c557806001600160a01b031663168a48226040518163ffffffff1660e01b8152600401602060405180830381865afa15801561398f573d6000803e3d6000fd5b505050506040513d601f19601f820116820180604052508101906139b39190615c1b565b93506139bf8585614814565b90935091505b509193909250565b60008060006139de60335460ff1690565b15613a2b5760405162461bcd60e51b815260206004820152601060248201527f5061757361626c653a2070617573656400000000000000000000000000000000604482015260640161023d565b60003411613a7b5760405162461bcd60e51b815260206004820152600c60248201527f4e4f5f415641585f53454e540000000000000000000000000000000000000000604482015260640161023d565b60008711613acb5760405162461bcd60e51b815260206004820152600d60248201527f4e4f5f544f4b454e5f53454e5400000000000000000000000000000000000000604482015260640161023d565b60c95460405163f9d9331d60e01b81526001600160a01b038a81166004830152600092169063f9d9331d90602401602060405180830381865afa158015613b16573d6000803e3d6000fd5b505050506040513d601f19601f82011682018060405250810190613b3a9190615aec565b90506001600160a01b038116613bd65760c9546040517f061278c00000000000000000000000000000000000000000000000000000000081526001600160a01b038b811660048301529091169063061278c0906024016020604051808303816000875af1158015613baf573d6000803e3d6000fd5b505050506040513d601f19601f82011682018060405250810190613bd39190615aec565b90505b6000816001600160a01b0316630fc63d106040518163ffffffff1660e01b8152600401602060405180830381865afa158015613c16573d6000803e3d6000fd5b505050506040513d601f19601f82011682018060405250810190613c3a9190615aec565b90506000826001600160a01b0316635f64b55b6040518163ffffffff1660e01b8152600401602060405180830381865afa158015613c7c573d6000803e3d6000fd5b505050506040513d601f19601f82011682018060405250810190613ca09190615aec565b90507fffffffffffffffffffffffff4ce09955c3e187ac9c0f78a5e48b1d847a0299396001600160a01b03831601613d0057613ce76001600160a01b03821633308d6145e4565b613cf4818b8b8b87614ea9565b91975095509350613d52565b7fffffffffffffffffffffffff4ce09955c3e187ac9c0f78a5e48b1d847a0299396001600160a01b0382160161368857613d456001600160a01b03831633308d6145e4565b613cf4828b8b8b87614ea9565b6040517f6e553f65000000000000000000000000000000000000000000000000000000008152600481018590526001600160a01b038881166024830152841690636e553f6590604401600060405180830381600087803b158015613db557600080fd5b505af1158015613dc9573d6000803e3d6000fd5b50505050866001600160a01b0316336001600160a01b03168c6001600160a01b03167f7cfff908a4b583f36430b25d75964c458d8ede8a99bd61be750e97ee1b2f3a9687604051610a7291815260200190565b60405163095ea7b360e01b81527360ae616a2155ee3d9a68541ba4544862310933d460048201526024810185905260009081906001600160a01b038a169063095ea7b3906044016020604051808303816000875af1158015613e82573d6000803e3d6000fd5b505050506040513d601f19601f82011682018060405250810190613ea69190615b09565b506040517fbaa2abde0000000000000000000000000000000000000000000000000000000081526001600160a01b03808a1660048301528089166024830152604482018890526064820187905260848201869052841660a48201524260c48201527360ae616a2155ee3d9a68541ba4544862310933d49063baa2abde9060e40160408051808303816000875af1158015613f44573d6000803e3d6000fd5b505050506040513d601f19601f82011682018060405250810190613f689190615d9f565b909a909950975050505050505050565b6040517f70a08231000000000000000000000000000000000000000000000000000000008152306004820152600090819081906001600160a01b038516906370a0823190602401602060405180830381865afa158015613fdc573d6000803e3d6000fd5b505050506040513d601f19601f820116820180604052508101906140009190615c1b565b9050600080731111111254eeb25477b68fb85ed929f73a9605826001600160a01b03168888604051614033929190615dc3565b6000604051808303816000865af19150503d8060008114614070576040519150601f19603f3d011682016040523d82523d6000602084013e614075565b606091505b5091509150816140c75760405162461bcd60e51b815260206004820152601360248201527f535741505f4e4f545f5355434345535346554c00000000000000000000000000604482015260640161023d565b808060200190518101906140db9190615d9f565b6040517f70a0823100000000000000000000000000000000000000000000000000000000815230600482015291965094506000906001600160a01b038816906370a0823190602401602060405180830381865afa158015614140573d6000803e3d6000fd5b505050506040513d601f19601f820116820180604052508101906141649190615c1b565b9050856141718583615c08565b146141be5760405162461bcd60e51b815260206004820152601160248201527f4241445f52455455524e5f414d4f554e54000000000000000000000000000000604482015260640161023d565b50505050935093915050565b6040516001600160a01b03831660248201526044810182905261134b9084907fa9059cbb00000000000000000000000000000000000000000000000000000000906064015b604080517fffffffffffffffffffffffffffffffffffffffffffffffffffffffffffffffe08184030181529190526020810180517bffffffffffffffffffffffffffffffffffffffffffffffffffffffff167fffffffff000000000000000000000000000000000000000000000000000000009093169290921790915261505a565b60cb5460ca546040517f91d14854000000000000000000000000000000000000000000000000000000008152600481018390523360248201526001600160a01b03909116906391d1485490604401602060405180830381865afa1580156142fc573d6000803e3d6000fd5b505050506040513d601f19601f820116820180604052508101906143209190615b09565b6114da5760405162461bcd60e51b815260206004820152601560248201527f43414c4c45525f4e4f545f415554484f52495a45440000000000000000000000604482015260640161023d565b7f4910fdfa16fed3260ed0e7147f7cc6da11a60208b5b9406d12a635614ffd91435460ff161561439f5761134b8361513f565b826001600160a01b03166352d1902d6040518163ffffffff1660e01b8152600401602060405180830381865afa925050508015614417575060408051601f3d9081017fffffffffffffffffffffffffffffffffffffffffffffffffffffffffffffffe016820190925261441491810190615c1b565b60015b6144895760405162461bcd60e51b815260206004820152602e60248201527f45524331393637557067726164653a206e657720696d706c656d656e7461746960448201527f6f6e206973206e6f742055555053000000000000000000000000000000000000606482015260840161023d565b7f360894a13ba1a3210667c828492db98dca3e2076cc3735a920a3ca505d382bbc811461451e5760405162461bcd60e51b815260206004820152602960248201527f45524331393637557067726164653a20756e737570706f727465642070726f7860448201527f6961626c65555549440000000000000000000000000000000000000000000000606482015260840161023d565b5061134b838383615215565b60335460ff1661457c5760405162461bcd60e51b815260206004820152601460248201527f5061757361626c653a206e6f7420706175736564000000000000000000000000604482015260640161023d565b603380547fffffffffffffffffffffffffffffffffffffffffffffffffffffffffffffff001690557f5db9ee0a495bf2e6ff9c91a7834c1ba4fdd244a5e8aa4e537bd38aeae4b073aa335b6040516001600160a01b03909116815260200160405180910390a1565b6040516001600160a01b03808516602483015283166044820152606481018290526146359085907f23b872dd000000000000000000000000000000000000000000000000000000009060840161420f565b50505050565b60008054610100900460ff16156146d8578160ff16600114801561465e5750303b155b6146d05760405162461bcd60e51b815260206004820152602e60248201527f496e697469616c697a61626c653a20636f6e747261637420697320616c72656160448201527f647920696e697469616c697a6564000000000000000000000000000000000000606482015260840161023d565b506000919050565b60005460ff8084169116106147555760405162461bcd60e51b815260206004820152602e60248201527f496e697469616c697a61626c653a20636f6e747261637420697320616c72656160448201527f647920696e697469616c697a6564000000000000000000000000000000000000606482015260840161023d565b50600080547fffffffffffffffffffffffffffffffffffffffffffffffffffffffffffffff001660ff92909216919091179055600190565b600054610100900460ff1661480a5760405162461bcd60e51b815260206004820152602b60248201527f496e697469616c697a61626c653a20636f6e7472616374206973206e6f74206960448201527f6e697469616c697a696e67000000000000000000000000000000000000000000606482015260840161023d565b61481261523a565b565b6000806000846001600160a01b03166318160ddd6040518163ffffffff1660e01b8152600401602060405180830381865afa158015614857573d6000803e3d6000fd5b505050506040513d601f19601f8201168201806040525081019061487b9190615c1b565b905080856001600160a01b0316630dfe16816040518163ffffffff1660e01b8152600401602060405180830381865afa1580156148bc573d6000803e3d6000fd5b505050506040513d601f19601f820116820180604052508101906148e09190615aec565b6040517f70a082310000000000000000000000000000000000000000000000000000000081526001600160a01b03888116600483015291909116906370a0823190602401602060405180830381865afa158015614941573d6000803e3d6000fd5b505050506040513d601f19601f820116820180604052508101906149659190615c1b565b61496f9086615dd3565b6149799190615dea565b925080856001600160a01b031663d21220a76040518163ffffffff1660e01b8152600401602060405180830381865afa1580156149ba573d6000803e3d6000fd5b505050506040513d601f19601f820116820180604052508101906149de9190615aec565b6040517f70a082310000000000000000000000000000000000000000000000000000000081526001600160a01b03888116600483015291909116906370a0823190602401602060405180830381865afa158015614a3f573d6000803e3d6000fd5b505050506040513d601f19601f82011682018060405250810190614a639190615c1b565b614a6d9086615dd3565b614a779190615dea565b9150509250929050565b60405163095ea7b360e01b81527360ae616a2155ee3d9a68541ba4544862310933d4600482015260248101869052600090819081906001600160a01b038b169063095ea7b3906044016020604051808303816000875af1158015614ae9573d6000803e3d6000fd5b505050506040513d601f19601f82011682018060405250810190614b0d9190615b09565b5060405163095ea7b360e01b81527360ae616a2155ee3d9a68541ba4544862310933d46004820152602481018890526001600160a01b038a169063095ea7b3906044016020604051808303816000875af1158015614b6f573d6000803e3d6000fd5b505050506040513d601f19601f82011682018060405250810190614b939190615b09565b506040517fe8e337000000000000000000000000000000000000000000000000000000000081526001600160a01b03808c166004830152808b166024830152604482018a9052606482018990526084820188905260a48201879052851660c48201524260e48201527360ae616a2155ee3d9a68541ba4544862310933d49063e8e3370090610104016060604051808303816000875af1158015614c3a573d6000803e3d6000fd5b505050506040513d601f19601f82011682018060405250810190614c5e9190615e25565b91945092509050614c8433614c73858b615c08565b6001600160a01b038d1691906141ca565b614ca333614c92848a615c08565b6001600160a01b038c1691906141ca565b9750975097945050505050565b60335460ff1615614d035760405162461bcd60e51b815260206004820152601060248201527f5061757361626c653a2070617573656400000000000000000000000000000000604482015260640161023d565b603380547fffffffffffffffffffffffffffffffffffffffffffffffffffffffffffffff001660011790557f62e78cea01bee320cd4e420270b5ea74000d11b0c9f74754ebdbfc544b05a2586145c73390565b60405163095ea7b360e01b81527360ae616a2155ee3d9a68541ba4544862310933d460048201526024810185905260009081906001600160a01b0389169063095ea7b3906044016020604051808303816000875af1158015614dbc573d6000803e3d6000fd5b505050506040513d601f19601f82011682018060405250810190614de09190615b09565b506040517f33c6b7250000000000000000000000000000000000000000000000000000000081526001600160a01b038089166004830152602482018890526044820187905260648201869052841660848201524260a48201527360ae616a2155ee3d9a68541ba4544862310933d4906333c6b7259060c40160408051808303816000875af1158015614e76573d6000803e3d6000fd5b505050506040513d601f19601f82011682018060405250810190614e9a9190615d9f565b90999098509650505050505050565b60405163095ea7b360e01b81527360ae616a2155ee3d9a68541ba4544862310933d4600482015260248101859052600090819081906001600160a01b0389169063095ea7b3906044016020604051808303816000875af1158015614f11573d6000803e3d6000fd5b505050506040513d601f19601f82011682018060405250810190614f359190615b09565b506040517ff91b3f720000000000000000000000000000000000000000000000000000000081526001600160a01b03808a166004830152602482018990526044820188905260648201879052851660848201524260a48201527360ae616a2155ee3d9a68541ba4544862310933d49063f91b3f7290349060c40160606040518083038185885af1158015614fcd573d6000803e3d6000fd5b50505050506040513d601f19601f82011682018060405250810190614ff29190615e25565b9194509250905061501833615007858a615c08565b6001600160a01b038b1691906141ca565b336108fc6150268434615c08565b6040518115909202916000818181858888f1935050505015801561504e573d6000803e3d6000fd5b50955095509592505050565b60006150af826040518060400160405280602081526020017f5361666545524332303a206c6f772d6c6576656c2063616c6c206661696c6564815250856001600160a01b03166152e19092919063ffffffff16565b80519091501561134b57808060200190518101906150cd9190615b09565b61134b5760405162461bcd60e51b815260206004820152602a60248201527f5361666545524332303a204552433230206f7065726174696f6e20646964206e60448201527f6f74207375636365656400000000000000000000000000000000000000000000606482015260840161023d565b6001600160a01b0381163b6151bc5760405162461bcd60e51b815260206004820152602d60248201527f455243313936373a206e657720696d706c656d656e746174696f6e206973206e60448201527f6f74206120636f6e747261637400000000000000000000000000000000000000606482015260840161023d565b7f360894a13ba1a3210667c828492db98dca3e2076cc3735a920a3ca505d382bbc80547fffffffffffffffffffffffff0000000000000000000000000000000000000000166001600160a01b0392909216919091179055565b61521e836152fa565b60008251118061522b5750805b1561134b57614635838361533a565b600054610100900460ff166152b75760405162461bcd60e51b815260206004820152602b60248201527f496e697469616c697a61626c653a20636f6e7472616374206973206e6f74206960448201527f6e697469616c697a696e67000000000000000000000000000000000000000000606482015260840161023d565b603380547fffffffffffffffffffffffffffffffffffffffffffffffffffffffffffffff00169055565b60606152f08484600085615447565b90505b9392505050565b6153038161513f565b6040516001600160a01b038216907fbc7cd75a20ee27fd9adebab32041f755214dbc6bffa90cc0225b39da2e5c2d3b90600090a250565b60606001600160a01b0383163b6153b95760405162461bcd60e51b815260206004820152602660248201527f416464726573733a2064656c65676174652063616c6c20746f206e6f6e2d636f60448201527f6e74726163740000000000000000000000000000000000000000000000000000606482015260840161023d565b600080846001600160a01b0316846040516153d49190615e77565b600060405180830381855af49150503d806000811461540f576040519150601f19603f3d011682016040523d82523d6000602084013e615414565b606091505b509150915061543c8282604051806060016040528060278152602001615ee56027913961558f565b925050505b92915050565b6060824710156154bf5760405162461bcd60e51b815260206004820152602660248201527f416464726573733a20696e73756666696369656e742062616c616e636520666f60448201527f722063616c6c0000000000000000000000000000000000000000000000000000606482015260840161023d565b6001600160a01b0385163b6155165760405162461bcd60e51b815260206004820152601d60248201527f416464726573733a2063616c6c20746f206e6f6e2d636f6e7472616374000000604482015260640161023d565b600080866001600160a01b031685876040516155329190615e77565b60006040518083038185875af1925050503d806000811461556f576040519150601f19603f3d011682016040523d82523d6000602084013e615574565b606091505b509150915061558482828661558f565b979650505050505050565b6060831561559e5750816152f3565b8251156155ae5782518084602001fd5b8160405162461bcd60e51b815260040161023d9190615e93565b6001600160a01b0381168114610c2257600080fd5b806040810183101561544157600080fd5b600080600080600060a0868803121561560657600080fd5b8535615611816155c8565b9450602086013593506040860135615628816155c8565b9250606086013567ffffffffffffffff81111561564457600080fd5b615650888289016155dd565b9250506080860135615661816155c8565b809150509295509295909350565b60006020828403121561568157600080fd5b81356152f3816155c8565b6020808252825182820181905260009190848201906040850190845b818110156156cd5783516001600160a01b0316835292840192918401916001016156a8565b50909695505050505050565b6000806000606084860312156156ee57600080fd5b83356156f9816155c8565b9250602084013591506040840135615710816155c8565b809150509250925092565b6000806040838503121561572e57600080fd5b8235615739816155c8565b91506020830135615749816155c8565b809150509250929050565b7f4e487b7100000000000000000000000000000000000000000000000000000000600052604160045260246000fd5b6000806040838503121561579657600080fd5b82356157a1816155c8565b9150602083013567ffffffffffffffff808211156157be57600080fd5b818501915085601f8301126157d257600080fd5b8135818111156157e4576157e4615754565b604051601f82017fffffffffffffffffffffffffffffffffffffffffffffffffffffffffffffffe0908116603f0116810190838211818310171561582a5761582a615754565b8160405282815288602084870101111561584357600080fd5b8260208601602083013760006020848301015280955050505050509250929050565b60008060008060008060c0878903121561587e57600080fd5b8635615889816155c8565b95506020870135945060408701359350606087013592506080870135915060a08701356158b5816155c8565b809150509295509295509295565b6000602082840312156158d557600080fd5b5035919050565b600080600080600080600060e0888a0312156158f757600080fd5b8735615902816155c8565b96506020880135615912816155c8565b955060408801359450606088013567ffffffffffffffff81111561593557600080fd5b6159418a828b016155dd565b9450506080880135925060a0880135915060c0880135615960816155c8565b8091505092959891949750929550565b600080600080600060a0868803121561598857600080fd5b8535615993816155c8565b9450602086013567ffffffffffffffff8111156159af57600080fd5b6159bb888289016155dd565b94505060408601359250606086013591506080860135615661816155c8565b600080600080608085870312156159f057600080fd5b84356159fb816155c8565b935060208501359250604085013567ffffffffffffffff811115615a1e57600080fd5b615a2a878288016155dd565b9250506060850135615a3b816155c8565b939692955090935050565b600080600060608486031215615a5b57600080fd5b8335615a66816155c8565b9250602084013567ffffffffffffffff811115615a8257600080fd5b840160808101861015615a9457600080fd5b91506040840135615710816155c8565b600080600080600060a08688031215615abc57600080fd5b8535615ac7816155c8565b94506020860135935060408601359250606086013591506080860135615661816155c8565b600060208284031215615afe57600080fd5b81516152f3816155c8565b600060208284031215615b1b57600080fd5b815180151581146152f357600080fd5b7f4e487b7100000000000000000000000000000000000000000000000000000000600052603260045260246000fd5b60008083357fffffffffffffffffffffffffffffffffffffffffffffffffffffffffffffffe1843603018112615b8f57600080fd5b83018035915067ffffffffffffffff821115615baa57600080fd5b602001915036819003821315615bbf57600080fd5b9250929050565b7f4e487b7100000000000000000000000000000000000000000000000000000000600052601160045260246000fd5b8082018082111561544157615441615bc6565b8181038181111561544157615441615bc6565b600060208284031215615c2d57600080fd5b5051919050565b606080825260009060e0830183820186845b6004811015615d77577fffffffffffffffffffffffffffffffffffffffffffffffffffffffffffffffa087850301835281357fffffffffffffffffffffffffffffffffffffffffffffffffffffffffffffffc18a3603018112615ca857600080fd5b890160408581018235368490037fffffffffffffffffffffffffffffffffffffffffffffffffffffffffffffffe1018112615ce257600080fd5b8301602081810191359067ffffffffffffffff821115615d0157600080fd5b8160051b3603831315615d1357600080fd5b938952918290528888019290916000915b81831015615d56578335615d37816155c8565b6001600160a01b03168552938401939283019260019290920191615d24565b94850135988501989098525090955050928301929190910190600101615c46565b50505080925050506152f3602083018480516001600160a01b03168252602090810151910152565b60008060408385031215615db257600080fd5b505080516020909101519092909150565b8183823760009101908152919050565b808202811582820484141761544157615441615bc6565b600082615e20577f4e487b7100000000000000000000000000000000000000000000000000000000600052601260045260246000fd5b500490565b600080600060608486031215615e3a57600080fd5b8351925060208401519150604084015190509250925092565b60005b83811015615e6e578181015183820152602001615e56565b50506000910152565b60008251615e89818460208701615e53565b9190910192915050565b6020815260008251806020840152615eb2816040850160208701615e53565b601f017fffffffffffffffffffffffffffffffffffffffffffffffffffffffffffffffe016919091016040019291505056fe416464726573733a206c6f772d6c6576656c2064656c65676174652063616c6c206661696c6564a26469706673582212204576a8f231ee1efa6586b66dd86209f6e1b8df186c18a8249a6497814bcce7f464736f6c63430008130033496e697469616c697a61626c653a20636f6e747261637420697320616c726561",
  "immutableReferences": {
    "561": [
      {
        "length": 32,
        "start": 2706
      },
      {
        "length": 32,
        "start": 2856
      },
      {
        "length": 32,
        "start": 4954
      },
      {
        "length": 32,
        "start": 5104
      },
      {
        "length": 32,
        "start": 5646
      }
    ]
  },
  "source": "// SPDX-License-Identifier: MIT\r\npragma solidity 0.8.19;\r\n\r\nimport '../interfaces/IUnoFarm.sol';\r\nimport { IUnoFarmTraderjoe as Farm } from \"../apps/traderjoe/interfaces/IUnoFarmTraderjoe.sol\";\r\nimport \"../interfaces/IUniswapV2Router.sol\";\r\nimport \"../interfaces/IUnoFarmFactory.sol\";\r\nimport \"../interfaces/IUnoAccessManager.sol\";\r\nimport \"../interfaces/IUniswapV2Pair.sol\";\r\nimport \"../interfaces/IWAVAX.sol\";\r\nimport \"@openzeppelin/contracts-upgradeable/proxy/utils/Initializable.sol\";\r\nimport \"@openzeppelin/contracts-upgradeable/token/ERC20/utils/SafeERC20Upgradeable.sol\";\r\nimport \"@openzeppelin/contracts-upgradeable/token/ERC20/IERC20Upgradeable.sol\";\r\nimport \"@openzeppelin/contracts-upgradeable/security/PausableUpgradeable.sol\";\r\nimport \"@openzeppelin/contracts-upgradeable/proxy/utils/UUPSUpgradeable.sol\";\r\n\r\ncontract UnoAssetRouterTraderjoeV2 is\r\n\tInitializable,\r\n\tPausableUpgradeable,\r\n\tUUPSUpgradeable\r\n{\r\n\tusing SafeERC20Upgradeable for IERC20Upgradeable;\r\n\r\n\t/**\r\n\t * @dev Contract Variables:\r\n\t * farmFactory - The contract that deploys new Farms and links them to {lpPair}s.\r\n\t * accessManager - Role manager contract.\r\n\t */\r\n\tIUnoFarmFactory public farmFactory;\r\n\tIUnoAccessManager public accessManager;\r\n\r\n\tbytes32 private constant DISTRIBUTOR_ROLE = keccak256(\"DISTRIBUTOR_ROLE\");\r\n\tbytes32 private constant PAUSER_ROLE = keccak256(\"PAUSER_ROLE\");\r\n\tbytes32 private ADMIN_ROLE;\r\n\r\n\tuint256 public fee;\r\n\r\n\taddress public constant WAVAX = 0xB31f66AA3C1e785363F0875A1B74E27b85FD66c7;\r\n\tIUniswapV2Router01 public constant TraderjoeRouter = IUniswapV2Router01(0x60aE616a2155Ee3d9A68541Ba4544862310933d4);\r\n    address private constant OneInchRouter = 0x1111111254EEB25477B68fb85Ed929f73A960582;\r\n\r\n\tuint256 public constant version = 2;\r\n\r\n\tevent Deposit(address indexed lpPool, address indexed sender, address indexed recipient, uint256 amount);\r\n\tevent Withdraw(address indexed lpPool, address indexed sender, address indexed recipient, uint256 amount);\r\n\tevent Distribute(address indexed lpPool, uint256 reward);\r\n\r\n\tevent FeeChanged(uint256 previousFee, uint256 newFee);\r\n\r\n\tmodifier onlyRole(bytes32 role) {\r\n\t\trequire(accessManager.hasRole(role, msg.sender), \"CALLER_NOT_AUTHORIZED\");\r\n\t\t_;\r\n\t}\r\n\r\n\t// ============ Methods ============\r\n\r\n\t/// @custom:oz-upgrades-unsafe-allow constructor\r\n\tconstructor() {\r\n\t\t_disableInitializers();\r\n\t}\r\n\r\n\tfunction initialize(address _accessManager, address _farmFactory) external initializer {\r\n\t\trequire(_accessManager != address(0), \"BAD_ACCESS_MANAGER\");\r\n\t\trequire(_farmFactory != address(0), \"BAD_FARM_FACTORY\");\r\n\r\n\t\t__Pausable_init();\r\n\r\n\t\taccessManager = IUnoAccessManager(_accessManager);\r\n\t\tADMIN_ROLE = accessManager.ADMIN_ROLE();\r\n\t\tfarmFactory = IUnoFarmFactory(_farmFactory);\r\n\t}\r\n\r\n\treceive() external payable {\r\n\t\trequire(msg.sender == WAVAX || msg.sender == address(TraderjoeRouter), \"ONLY_ACCEPT_WAVAX\"); // only accept ETH via fallback from the WAVAX or router contract\r\n\t}\r\n\r\n\t/**\r\n     * @dev Deposits tokens in the given pool. Creates new Farm contract if there isn't one deployed for the {lpPair} and deposits tokens in it. Emits a {Deposit} event.\r\n     * @param lpPair - Address of the pool to deposit tokens in.\r\n     * @param amountA  - Token A amount to deposit.\r\n     * @param amountB -  Token B amount to deposit.\r\n     * @param amountAMin - Bounds the extent to which the B/A price can go up before the transaction reverts.\r\n     * @param amountBMin - Bounds the extent to which the A/B price can go up before the transaction reverts.\r\n     * @param recipient - Address which will receive the deposit.\r\n     \r\n     * @return sentA - Token A amount sent to the farm.\r\n     * @return sentB - Token B amount sent to the farm.\r\n     * @return liquidity - Total liquidity sent to the farm (in lpTokens).\r\n     */\r\n\tfunction deposit(address lpPair, uint256 amountA, uint256 amountB, uint256 amountAMin, uint256 amountBMin, address recipient) external whenNotPaused returns (uint256 sentA, uint256 sentB, uint256 liquidity){\r\n        require(amountA > 0 && amountB > 0, \"NO_TOKENS_SENT\");\r\n        Farm farm = Farm(farmFactory.Farms(lpPair));\r\n        if(farm == Farm(address(0))){\r\n            farm = Farm(farmFactory.createFarm(lpPair));\r\n        }\r\n\r\n        address tokenA = farm.tokenA();\r\n        address tokenB = farm.tokenB();\r\n        IERC20Upgradeable(tokenA).safeTransferFrom(msg.sender, address(this), amountA);\r\n        IERC20Upgradeable(tokenB).safeTransferFrom(msg.sender, address(this), amountB);\r\n\r\n        (sentA, sentB, liquidity) = _addLiquidity(tokenA, tokenB, amountA, amountB, amountAMin, amountBMin, address(farm));\r\n        farm.deposit(liquidity, recipient);\r\n\r\n        emit Deposit(lpPair, msg.sender, recipient, liquidity); \r\n    }\r\n\r\n\t/**\r\n     * @dev Autoconverts AVAX into WAVAX and deposits tokens in the given pool. Creates new Farm contract if there isn't one deployed for the {lpStakingPool} and deposits tokens in it. Emits a {Deposit} event.\r\n     * @param lpPair - Address of the pool to deposit tokens in.\r\n     * @param amountToken  - Token amount to deposit.\r\n     * @param amountTokenMin - Bounds the extent to which the TOKEN/WAVAX price can go up before the transaction reverts.\r\n     * @param amountETHMin - Bounds the extent to which the WAVAX/TOKEN price can go up before the transaction reverts.\r\n     * @param recipient - Address which will receive the deposit.\r\n     \r\n     * @return sentToken - Token amount sent to the farm.\r\n     * @return sentETH - WAVAX amount sent to the farm.\r\n     * @return liquidity - Total liquidity sent to the farm (in lpTokens).\r\n     */\r\n    function depositETH(address lpPair, uint256 amountToken, uint256 amountTokenMin, uint256 amountETHMin, address recipient) external payable whenNotPaused returns(uint256 sentToken, uint256 sentETH, uint256 liquidity){\r\n        require(msg.value > 0, \"NO_AVAX_SENT\");\r\n        require(amountToken > 0, \"NO_TOKEN_SENT\");\r\n        Farm farm = Farm(farmFactory.Farms(lpPair));\r\n        if(farm == Farm(address(0))){\r\n            farm = Farm(farmFactory.createFarm(lpPair));\r\n        }\r\n\r\n        address tokenA = farm.tokenA();\r\n        address tokenB = farm.tokenB();\r\n        if (tokenA == WAVAX) {\r\n            IERC20Upgradeable(tokenB).safeTransferFrom(msg.sender, address(this), amountToken);\r\n            (sentToken, sentETH, liquidity) = _addLiquidityETH(tokenB, amountToken, amountTokenMin, amountETHMin, address(farm));\r\n        } else if (tokenB == WAVAX) {\r\n            IERC20Upgradeable(tokenA).safeTransferFrom(msg.sender, address(this), amountToken);\r\n            (sentToken, sentETH, liquidity) = _addLiquidityETH(tokenA, amountToken, amountTokenMin, amountETHMin, address(farm));\r\n        } else {\r\n            revert(\"NOT_WAVAX_POOL\");\r\n        }\r\n        farm.deposit(liquidity, recipient);\r\n\r\n        emit Deposit(lpPair, msg.sender, recipient, liquidity);\r\n    }\r\n\r\n\t/**\r\n     * @dev Deposits single token in the given pool. Creates new Farm contract if there isn't one deployed for the {lpPair}, swaps {token} for pool tokens and deposits them. Emits a {Deposit} event.\r\n     * @param lpPair - Address of the pool to deposit tokens in.\r\n     * @param token  - Address of a token to enter the pool.\r\n     * @param amount - Amount of token sent.\r\n     * @param swapData - Parameter with which 1inch router is being called with.\r\n     * @param amountAMin - Bounds the extent to which the B/A price can go up before the transaction reverts.\r\n     * @param amountBMin - Bounds the extent to which the A/B price can go up before the transaction reverts.\r\n     * @param recipient - Address which will receive the deposit.\r\n     \r\n     * @return sent - Total {token} amount sent to the farm. NOTE: Returns dust left from swap in {token}, but if A/B amounts are not correct also returns dust in pool's tokens.\r\n     * @return liquidity - Total liquidity sent to the farm (in lpTokens).\r\n     */\r\n    function depositSingleAsset(address lpPair, address token, uint256 amount, bytes[2] calldata swapData, uint256 amountAMin, uint256 amountBMin, address recipient) external whenNotPaused returns(uint256 sent, uint256 liquidity){\r\n        require(amount > 0, \"NO_TOKEN_SENT\");\r\n        Farm farm = Farm(farmFactory.Farms(lpPair));\r\n        if(farm == Farm(address(0))){\r\n            farm = Farm(farmFactory.createFarm(lpPair));\r\n        }\r\n\r\n        IERC20Upgradeable(token).safeTransferFrom(msg.sender, address(this), amount);\r\n        IERC20Upgradeable(token).approve(OneInchRouter, amount);\r\n\r\n        sent = amount;\r\n        uint256 amountA;\r\n        uint256 amountB;\r\n        address tokenA = farm.tokenA();\r\n        address tokenB = farm.tokenB();\r\n\r\n        if (tokenA != token) {\r\n            (uint256 returnAmount, uint256 spentAmount) = _swap(swapData[0], tokenA);\r\n            amount -= spentAmount;\r\n            amountA = returnAmount;\r\n        }\r\n        if (tokenB != token) {\r\n            (uint256 returnAmount, uint256 spentAmount) = _swap(swapData[1], tokenB);\r\n            amount -= spentAmount;\r\n            amountB = returnAmount;\r\n        }\r\n\r\n        if (tokenA == token) {\r\n            amountA = amount;\r\n        } else if (tokenB == token) {\r\n            amountB = amount;\r\n        } else if(amount > 0) {\r\n            sent -= amount;\r\n            IERC20Upgradeable(token).safeTransfer(msg.sender, amount);\r\n        }\r\n\r\n        require(amountA > 0 && amountB > 0, \"NO_TOKENS_SENT\");\r\n        (,,liquidity) = _addLiquidity(tokenA, tokenB, amountA, amountB, amountAMin, amountBMin, address(farm));\r\n        farm.deposit(liquidity, recipient);\r\n        \r\n        emit Deposit(lpPair, msg.sender, recipient, liquidity);\r\n    }\r\n     \r\n    /**\r\n     * @dev Deposits single AVAX in the given pool. Creates new Farm contract if there isn't one deployed for the {lpPair}, swaps AVAX for pool tokens and deposits them. Emits a {Deposit} event.\r\n     * @param lpPair - Address of the pool to deposit tokens in.\r\n     * @param swapData - Parameter with which 1inch router is being called with. NOTE: Use WAVAX as toToken.\r\n     * @param amountAMin - Bounds the extent to which the B/A price can go up before the transaction reverts.\r\n     * @param amountBMin - Bounds the extent to which the A/B price can go up before the transaction reverts.\r\n     * @param recipient - Address which will receive the deposit.\r\n     \r\n     * @return sentETH - Total AVAX amount sent to the farm. NOTE: Returns dust left from swap in AVAX, but if A/B amount are not correct also returns dust in pool's tokens.\r\n     * @return liquidity - Total liquidity sent to the farm (in lpTokens).\r\n     */\r\n    function depositSingleETH(address lpPair, bytes[2] calldata swapData, uint256 amountAMin, uint256 amountBMin, address recipient) external payable whenNotPaused returns(uint256 sentETH, uint256 liquidity){\r\n        require(msg.value > 0, \"NO_AVAX_SENT\");\r\n        Farm farm = Farm(farmFactory.Farms(lpPair));\r\n        if(farm == Farm(address(0))){\r\n            farm = Farm(farmFactory.createFarm(lpPair));\r\n        }\r\n\r\n        uint256 amount = msg.value;\r\n        IWAVAX(WAVAX).deposit{value: amount}();\r\n        IERC20Upgradeable(WAVAX).approve(OneInchRouter, amount);\r\n\r\n        sentETH = amount;\r\n        uint256 amountA;\r\n        uint256 amountB;\r\n        address tokenA = farm.tokenA();\r\n        address tokenB = farm.tokenB();\r\n\r\n        if (tokenA != WAVAX) {\r\n            (uint256 returnAmount, uint256 spentAmount) = _swap(swapData[0], tokenA);\r\n            amount -= spentAmount;\r\n            amountA = returnAmount;\r\n        }\r\n        if (tokenB != WAVAX) {\r\n            (uint256 returnAmount, uint256 spentAmount) = _swap(swapData[1], tokenB);\r\n            amount -= spentAmount;\r\n            amountB = returnAmount;\r\n        }\r\n\r\n        if (tokenA == WAVAX) {\r\n            amountA = amount;\r\n        } else if (tokenB == WAVAX) {\r\n            amountB = amount;\r\n        } else if (amount > 0) {\r\n            sentETH -= amount;\r\n            IWAVAX(WAVAX).withdraw(amount);\r\n            payable(msg.sender).transfer(amount);\r\n        }\r\n\r\n        require(amountA > 0 && amountB > 0, \"NO_TOKENS_SENT\");\r\n        (,,liquidity) = _addLiquidity(tokenA, tokenB, amountA, amountB, amountAMin, amountBMin, address(farm));\r\n        farm.deposit(liquidity, recipient);\r\n\r\n        emit Deposit(lpPair, msg.sender, recipient, liquidity);\r\n    }\r\n\r\n\t/**\r\n     * @dev Deposits tokens in the given pool. Creates new Farm contract if there isn't one deployed for the {lpPair} and deposits tokens in it. Emits a {Deposit} event.\r\n     * @param lpPair - Address of the pool to deposit tokens in.\r\n     * @param amount - LP Token amount to deposit.\r\n     * @param recipient - Address which will receive the deposit.\r\n     */\r\n    function depositLP(address lpPair, uint256 amount, address recipient) external whenNotPaused{\r\n        require(amount > 0, \"NO_TOKEN_SENT\");\r\n        Farm farm = Farm(farmFactory.Farms(lpPair));\r\n        if(farm == Farm(address(0))){\r\n            farm = Farm(farmFactory.createFarm(lpPair));\r\n        }\r\n\r\n        IERC20Upgradeable(lpPair).safeTransferFrom(msg.sender, address(farm), amount);\r\n        farm.deposit(amount, recipient);\r\n\r\n        emit Deposit(lpPair, msg.sender, recipient, amount); \r\n    }\r\n\r\n    /** \r\n     * @dev Withdraws a pair of tokens from the given pool. Emits a {Withdraw} event.\r\n     * @param lpPair - LP pool to withdraw from.\r\n     * @param amount - LP amount to withdraw. \r\n     * @param amountAMin - The minimum amount of tokenA that must be received for the transaction not to revert.\r\n     * @param amountBMin - The minimum amount of tokenB that must be received for the transaction not to revert.\r\n     * @param recipient - The address which will receive tokens.\r\n\r\n     * @return amountA - Token A amount sent to the {recipient}\r\n     * @return amountB - Token B amount sent to the {recipient}\r\n     */ \r\n    function withdraw(address lpPair, uint256 amount, uint256 amountAMin, uint256 amountBMin, address recipient) external returns(uint256 amountA, uint256 amountB){\r\n        Farm farm = Farm(farmFactory.Farms(lpPair));\r\n        require(farm != Farm(address(0)),'FARM_NOT_EXISTS');\r\n\r\n        farm.withdraw(amount, msg.sender, address(this));\r\n        (amountA, amountB) = _removeLiquidity(lpPair, farm.tokenA(), farm.tokenB(), amount, amountAMin, amountBMin, recipient);\r\n        \r\n        emit Withdraw(lpPair, msg.sender, recipient, amount);  \r\n    }\r\n\r\n    /** \r\n     * @dev Autoconverts WAVAX into AVAX and withdraws tokens from the pool. Emits a {Withdraw} event.\r\n     * @param lpPair - LP pool to withdraw from.\r\n     * @param amount - LP amount to withdraw. \r\n     * @param amountTokenMin - The minimum amount of token that must be received for the transaction not to revert.\r\n     * @param amountETHMin - The minimum amount of AVAX that must be received for the transaction not to revert.\r\n     * @param recipient - The address which will receive tokens.\r\n\r\n     * @return amountToken - Token amount sent to the {recipient}.\r\n     * @return amountETH - AVAX amount sent to the {recipient}.\r\n     */ \r\n    function withdrawETH(address lpPair, uint256 amount, uint256 amountTokenMin, uint256 amountETHMin, address recipient) external returns(uint256 amountToken, uint256 amountETH){\r\n        Farm farm = Farm(farmFactory.Farms(lpPair));\r\n        require(farm != Farm(address(0)),'FARM_NOT_EXISTS');\r\n\r\n        address tokenA = farm.tokenA();\r\n        address tokenB = farm.tokenB();\r\n\r\n        farm.withdraw(amount, msg.sender, address(this));\r\n        if (tokenA == WAVAX) {\r\n            (amountToken, amountETH) = _removeLiquidityETH(lpPair, tokenB, amount, amountTokenMin, amountETHMin, recipient);\r\n        } else if (tokenB == WAVAX) {\r\n            (amountToken, amountETH) = _removeLiquidityETH(lpPair, tokenA, amount, amountTokenMin, amountETHMin, recipient);\r\n        } else {\r\n            revert(\"NOT_WAVAX_POOL\");\r\n        }\r\n\r\n        emit Withdraw(lpPair, msg.sender, recipient, amount);\r\n    }\r\n\r\n    /**\r\n     * @dev Withdraws single token from the given pool. Emits a {Withdraw} event. Note: If there are any tokens left to be withdrawn after swaps they will be sent to the {{recipient}} in a respective token (not in {token}).\r\n     * @param lpPair - LP pool to withdraw from.\r\n     * @param amount - LP amount to withdraw. \r\n     * @param token  - Address of a token to exit the pool with.\r\n     * @param swapData - Parameter with which 1inch router is being called with.\r\n     * @param recipient - Address which will receive the deposit.\r\n     \r\n     * @return amountToken - {token} amount sent to the {recipient}.\r\n     * @return amountA - Token A dust sent to the {recipient}.\r\n     * @return amountB - Token B dust sent to the {recipient}.\r\n     */\r\n    function withdrawSingleAsset(address lpPair, uint256 amount, address token, bytes[2] calldata swapData, address recipient) external returns(uint256 amountToken, uint256 amountA, uint256 amountB){\r\n        Farm farm = Farm(farmFactory.Farms(lpPair));\r\n        require(farm != Farm(address(0)),'FARM_NOT_EXISTS');\r\n\r\n        farm.withdraw(amount, msg.sender, address(this));\r\n\r\n        address tokenA = farm.tokenA();\r\n        address tokenB = farm.tokenB();\r\n        (amountA, amountB) = _removeLiquidity(lpPair, tokenA, tokenB, amount, 0, 0, address(this));\r\n\r\n        if (tokenA != token) {\r\n            IERC20Upgradeable(tokenA).approve(OneInchRouter, amountA);\r\n            (uint256 returnAmount, uint256 spentAmount) = _swap(swapData[0], token);\r\n            amountToken += returnAmount;\r\n\r\n            amountA = amountA - spentAmount;\r\n            IERC20Upgradeable(tokenA).safeTransfer(recipient, amountA);\r\n        } else {\r\n            amountToken += amountA;\r\n            amountA = 0;\r\n        }\r\n\r\n        if (tokenB != token) {\r\n            IERC20Upgradeable(tokenB).approve(OneInchRouter, amountB);\r\n            (uint256 returnAmount, uint256 spentAmount) = _swap(swapData[1], token);\r\n            amountToken += returnAmount;\r\n\r\n            amountB = amountB - spentAmount;\r\n            IERC20Upgradeable(tokenB).safeTransfer(recipient, amountB);\r\n        } else {\r\n            amountToken += amountB;\r\n            amountB = 0;\r\n        }\r\n\r\n        IERC20Upgradeable(token).safeTransfer(recipient, amountToken);\r\n\r\n        emit Withdraw(lpPair, msg.sender, recipient, amount);\r\n    }\r\n     \r\n    /**\r\n     * @dev Withdraws single AVAX from the given pool. Emits a {Withdraw} event. Note: If there are any tokens left to be withdrawn after swaps they will be sent to the {{recipient}} in a respective token (not in AVAX).\r\n     * @param lpPair - LP pool to withdraw from.\r\n     * @param amount - LP amount to withdraw. \r\n     * @param swapData - Parameter with which 1inch router is being called with.\r\n     * @param recipient - Address which will receive the deposit.\r\n     \r\n     * @return amountETH - AVAX amount sent to the {recipient}.\r\n     * @return amountA - Token A dust sent to the {recipient}.\r\n     * @return amountB - Token B dust sent to the {recipient}.\r\n     */\r\n    function withdrawSingleETH(address lpPair, uint256 amount, bytes[2] calldata swapData, address recipient) external returns(uint256 amountETH, uint256 amountA, uint256 amountB){\r\n        Farm farm = Farm(farmFactory.Farms(lpPair));\r\n        require(farm != Farm(address(0)),'FARM_NOT_EXISTS');\r\n\r\n        farm.withdraw(amount, msg.sender, address(this));\r\n\r\n        address tokenA = farm.tokenA();\r\n        address tokenB = farm.tokenB();\r\n        (amountA, amountB) = _removeLiquidity(lpPair, tokenA, tokenB, amount, 0, 0, address(this));\r\n\r\n        if (tokenA != WAVAX) {\r\n            IERC20Upgradeable(tokenA).approve(OneInchRouter, amountA);\r\n            (uint256 returnAmount, uint256 spentAmount) = _swap(swapData[0], WAVAX);\r\n            amountETH += returnAmount;\r\n\r\n            amountA = amountA - spentAmount;\r\n            IERC20Upgradeable(tokenA).safeTransfer(recipient, amountA);\r\n        } else {\r\n            amountETH += amountA;\r\n            amountA = 0;\r\n        }\r\n\r\n        if (tokenB != WAVAX) {\r\n            IERC20Upgradeable(tokenB).approve(OneInchRouter, amountB);\r\n            (uint256 returnAmount, uint256 spentAmount) = _swap(swapData[1], WAVAX);\r\n            amountETH += returnAmount;\r\n\r\n            amountB = amountB - spentAmount;\r\n            IERC20Upgradeable(tokenB).safeTransfer(recipient, amountB);\r\n        } else {\r\n            amountETH += amountB;\r\n            amountB = 0;\r\n        }\r\n\r\n        IWAVAX(WAVAX).withdraw(amountETH);\r\n        payable(recipient).transfer(amountETH);\r\n\r\n        emit Withdraw(lpPair, msg.sender, recipient, amount);\r\n    }\r\n\r\n    /** \r\n     * @dev Withdraws LP tokens from the given pool. Emits a {Withdraw} event.\r\n     * @param lpPair - LP pool to withdraw from.\r\n     * @param amount - LP amount to withdraw. \r\n     * @param recipient - The address which will receive tokens.\r\n     */ \r\n    function withdrawLP(address lpPair, uint256 amount, address recipient) external {\r\n        Farm farm = Farm(farmFactory.Farms(lpPair));\r\n        require(farm != Farm(address(0)),'FARM_NOT_EXISTS');\r\n        \r\n        farm.withdraw(amount, msg.sender, recipient);\r\n        emit Withdraw(lpPair, msg.sender, recipient, amount);  \r\n    }\r\n\r\n\t/**\r\n\t * @dev Distributes tokens between users.\r\n\t * @param lpPair - LP pool to distribute tokens in.\r\n\t * @param swapInfos - Arrays of structs with token arrays describing swap routes (rewardTokenToTokenA, rewardTokenToTokenB, rewarderTokenToTokenA, rewarderTokenToTokenB) and minimum amounts of output tokens that must be received for the transaction not to revert.\r\n\t * @param feeTo - Address to collect fees to.\r\n\t *\r\n\t * Note: This function can only be called by the distributor.\r\n\t */\r\n\tfunction distribute(\r\n\t\taddress lpPair,\r\n\t\tFarm.SwapInfo[4] calldata swapInfos,\r\n\t\taddress feeTo\r\n\t) external whenNotPaused onlyRole(DISTRIBUTOR_ROLE) {\r\n\t\tFarm farm = Farm(farmFactory.Farms(lpPair));\r\n\t\trequire(farm != Farm(address(0)), \"FARM_NOT_EXISTS\");\r\n\r\n\t\tuint256 reward = farm.distribute(swapInfos, IUnoFarm.FeeInfo(feeTo, fee));\r\n\t\temit Distribute(lpPair, reward);\r\n\t}\r\n\r\n\t/**\r\n     * @dev Returns tokens staked by the {_address} for the given {lpPair}.\r\n     * @param _address - The address to check stakes for.\r\n     * @param lpPair - LP pool to check stakes in.\r\n\r\n     * @return stakeLP - Total user stake(in LP tokens).\r\n     * @return stakeA - Token A stake.\r\n     * @return stakeB - Token B stake.\r\n     */\r\n\tfunction userStake(address _address, address lpPair) external view returns (uint256 stakeLP, uint256 stakeA, uint256 stakeB) {\r\n\t\tFarm farm = Farm(farmFactory.Farms(lpPair));\r\n\t\tif (farm != Farm(address(0))) {\r\n\t\t\tstakeLP = farm.userBalance(_address);\r\n\t\t\t(stakeA, stakeB) = _getTokenStake(lpPair, stakeLP);\r\n\t\t}\r\n\t}\r\n\r\n\t/**\r\n     * @dev Returns total amount locked in the pool. Doesn't take pending rewards into account.\r\n     * @param lpPair - LP pool to check total deposits in.\r\n\r\n     * @return totalDepositsLP - Total deposits (in LP tokens).\r\n     * @return totalDepositsA - Token A deposits.\r\n     * @return totalDepositsB - Token B deposits.\r\n     */\r\n\tfunction totalDeposits(address lpPair) external view returns (uint256 totalDepositsLP, uint256 totalDepositsA, uint256 totalDepositsB){\r\n\t\tFarm farm = Farm(farmFactory.Farms(lpPair));\r\n\t\tif (farm != Farm(address(0))) {\r\n\t\t\ttotalDepositsLP = farm.getTotalDeposits();\r\n\t\t\t(totalDepositsA, totalDepositsB) = _getTokenStake(lpPair, totalDepositsLP);\r\n\t\t}\r\n\t}\r\n\r\n\t/**\r\n     * @dev Returns addresses of tokens in {lpPair}.\r\n     * @param lpPair - LP pair to check tokens in.\r\n\r\n     * @return tokens - Tokens addresses.\r\n     */\r\n\tfunction getTokens(address lpPair) external view returns (IERC20Upgradeable[] memory tokens) {\r\n\t\ttokens = new IERC20Upgradeable[](2);\r\n\t\ttokens[0] = IERC20Upgradeable(IUniswapV2Pair(lpPair).token0());\r\n\t\ttokens[1] = IERC20Upgradeable(IUniswapV2Pair(lpPair).token1());\r\n\t}\r\n\r\n\t/**\r\n     * @dev Deposits assets to router & refunds dust.\r\n     */ \r\n    function _addLiquidity(\r\n        address tokenA,\r\n        address tokenB, \r\n        uint256 amountA, \r\n        uint256 amountB, \r\n        uint256 amountAMin, \r\n        uint256 amountBMin, \r\n        address farm\r\n    ) internal returns(uint256 sentA, uint256 sentB, uint256 liquidity){\r\n        IERC20Upgradeable(tokenA).approve(address(TraderjoeRouter), amountA);\r\n        IERC20Upgradeable(tokenB).approve(address(TraderjoeRouter), amountB);\r\n\r\n        (sentA, sentB, liquidity) = TraderjoeRouter.addLiquidity(tokenA, tokenB, amountA, amountB, amountAMin, amountBMin, farm, block.timestamp);\r\n        // Refund dust\r\n        IERC20Upgradeable(tokenA).safeTransfer(msg.sender, amountA - sentA);\r\n\t\tIERC20Upgradeable(tokenB).safeTransfer(msg.sender, amountB - sentB);\r\n    }\r\n\r\n    /**\r\n     * @dev Deposits assets to router & refunds dust.\r\n     */ \r\n    function _addLiquidityETH(\r\n        address token,\r\n        uint256 amount, \r\n        uint256 amountTokenMin, \r\n        uint256 amountETHMin, \r\n        address farm\r\n    ) internal returns(uint256 sentToken, uint256 sentETH, uint256 liquidity){\r\n        IERC20Upgradeable(token).approve(address(TraderjoeRouter), amount);\r\n\r\n        (sentToken, sentETH, liquidity) = TraderjoeRouter.addLiquidityAVAX{value: msg.value}(token, amount, amountTokenMin, amountETHMin, farm, block.timestamp);\r\n        // Refund dust\r\n        IERC20Upgradeable(token).safeTransfer(msg.sender, amount - sentToken);\r\n        payable(msg.sender).transfer(msg.value - sentETH);\r\n    }\r\n    \r\n    /**\r\n     * @dev Withdraws assets from router.\r\n     */ \r\n    function _removeLiquidity(\r\n        address lpPair,\r\n        address tokenA,\r\n        address tokenB, \r\n        uint256 amount, \r\n        uint256 amountAMin, \r\n        uint256 amountBMin, \r\n        address recipient\r\n    ) internal returns(uint256 amountA, uint256 amountB){\r\n        IERC20Upgradeable(lpPair).approve(address(TraderjoeRouter), amount);\r\n        (amountA, amountB) = TraderjoeRouter.removeLiquidity(tokenA, tokenB, amount, amountAMin, amountBMin, recipient, block.timestamp);\r\n    }\r\n\r\n    /**\r\n     * @dev Withdraws assets from router.\r\n     */ \r\n    function _removeLiquidityETH(\r\n        address lpPair,\r\n        address token,\r\n        uint256 amount, \r\n        uint256 amountTokenMin, \r\n        uint256 amountETHMin, \r\n        address recipient\r\n    ) internal returns(uint256 amountToken, uint256 amountETH){\r\n        IERC20Upgradeable(lpPair).approve(address(TraderjoeRouter), amount);\r\n        (amountToken, amountETH) = TraderjoeRouter.removeLiquidityAVAX(token, amount, amountTokenMin, amountETHMin, recipient, block.timestamp);\r\n    }\r\n\r\n    /**\r\n     * @dev Swaps assets using 1inch exchange.\r\n     */  \r\n    function _swap(bytes calldata swapData, address toToken) internal returns(uint256 returnAmount, uint256 spentAmount){\r\n        uint256 balanceBefore = IERC20Upgradeable(toToken).balanceOf(address(this));\r\n        (bool success, bytes memory data) = OneInchRouter.call(swapData);\r\n        require(success, \"SWAP_NOT_SUCCESSFUL\");\r\n\r\n        (returnAmount, spentAmount) = abi.decode(data, (uint256, uint256));\r\n        //checks if all {{toToken}}s from swap were transfered to this address\r\n        uint256 balanceAfter = IERC20Upgradeable(toToken).balanceOf(address(this));\r\n        require(balanceAfter - balanceBefore == returnAmount, \"BAD_RETURN_AMOUNT\");\r\n    }\r\n\r\n\t/**\r\n     * @dev Converts LP tokens to normal tokens, value(amountA) == value(amountB) == 0.5*amountLP\r\n     * @param lpPair - LP pair for conversion.\r\n     * @param amountLP - Amount of LP tokens to convert.\r\n\r\n     * @return amountA - Token A amount.\r\n     * @return amountB - Token B amount.\r\n     */\r\n\tfunction _getTokenStake(address lpPair, uint256 amountLP) internal view returns (uint256 amountA, uint256 amountB) {\r\n\t\tuint256 totalSupply = IERC20Upgradeable(lpPair).totalSupply();\r\n\t\tamountA = (amountLP * IERC20Upgradeable(IUniswapV2Pair(lpPair).token0()).balanceOf(lpPair)) / totalSupply;\r\n\t\tamountB = (amountLP * IERC20Upgradeable(IUniswapV2Pair(lpPair).token1()).balanceOf(lpPair)) / totalSupply;\r\n\t}\r\n\r\n\t/**\r\n\t * @dev Change fee amount.\r\n\t * @param _fee -New fee to collect from farms. [10^18 == 100%]\r\n\t *\r\n\t * Note: This function can only be called by ADMIN_ROLE.\r\n\t */\r\n\tfunction setFee(uint256 _fee) external onlyRole(ADMIN_ROLE) {\r\n\t\trequire(_fee <= 1 ether, \"BAD_FEE\");\r\n\t\tif (fee != _fee) {\r\n\t\t\temit FeeChanged(fee, _fee);\r\n\t\t\tfee = _fee;\r\n\t\t}\r\n\t}\r\n\r\n\tfunction pause() external onlyRole(PAUSER_ROLE) {\r\n\t\t_pause();\r\n\t}\r\n\r\n\tfunction unpause() external onlyRole(PAUSER_ROLE) {\r\n\t\t_unpause();\r\n\t}\r\n\r\n\tfunction _authorizeUpgrade(address) internal override onlyRole(ADMIN_ROLE) {}\r\n}\r\n",
  "sourcePath": "C:\\Users\\jugli\\Desktop\\uno\\uno-contracts-avalanche\\contracts\\test\\UnoAssetRouterTraderjoeV2.sol",
  "compiler": {
    "name": "solc",
    "version": "0.8.19+commit.7dd6d404.Emscripten.clang"
  },
  "schemaVersion": "3.4.13",
  "updatedAt": "2023-09-27T15:46:52.684Z",
  "devdoc": {
    "events": {
      "AdminChanged(address,address)": {
        "details": "Emitted when the admin account has changed."
      },
      "BeaconUpgraded(address)": {
        "details": "Emitted when the beacon is upgraded."
      },
      "Initialized(uint8)": {
        "details": "Triggered when the contract has been initialized or reinitialized."
      },
      "Paused(address)": {
        "details": "Emitted when the pause is triggered by `account`."
      },
      "Unpaused(address)": {
        "details": "Emitted when the pause is lifted by `account`."
      },
      "Upgraded(address)": {
        "details": "Emitted when the implementation is upgraded."
      }
    },
    "kind": "dev",
    "methods": {
      "constructor": {
        "custom:oz-upgrades-unsafe-allow": "constructor"
      },
      "deposit(address,uint256,uint256,uint256,uint256,address)": {
        "details": "Deposits tokens in the given pool. Creates new Farm contract if there isn't one deployed for the {lpPair} and deposits tokens in it. Emits a {Deposit} event.",
        "params": {
          "amountA": "- Token A amount to deposit.",
          "amountAMin": "- Bounds the extent to which the B/A price can go up before the transaction reverts.",
          "amountB": "-  Token B amount to deposit.",
          "amountBMin": "- Bounds the extent to which the A/B price can go up before the transaction reverts.",
          "lpPair": "- Address of the pool to deposit tokens in.",
          "recipient": "- Address which will receive the deposit."
        },
        "returns": {
          "liquidity": "- Total liquidity sent to the farm (in lpTokens).",
          "sentA": "- Token A amount sent to the farm.",
          "sentB": "- Token B amount sent to the farm."
        }
      },
      "depositETH(address,uint256,uint256,uint256,address)": {
        "details": "Autoconverts AVAX into WAVAX and deposits tokens in the given pool. Creates new Farm contract if there isn't one deployed for the {lpStakingPool} and deposits tokens in it. Emits a {Deposit} event.",
        "params": {
          "amountETHMin": "- Bounds the extent to which the WAVAX/TOKEN price can go up before the transaction reverts.",
          "amountToken": "- Token amount to deposit.",
          "amountTokenMin": "- Bounds the extent to which the TOKEN/WAVAX price can go up before the transaction reverts.",
          "lpPair": "- Address of the pool to deposit tokens in.",
          "recipient": "- Address which will receive the deposit."
        },
        "returns": {
          "liquidity": "- Total liquidity sent to the farm (in lpTokens).",
          "sentETH": "- WAVAX amount sent to the farm.",
          "sentToken": "- Token amount sent to the farm."
        }
      },
      "depositLP(address,uint256,address)": {
        "details": "Deposits tokens in the given pool. Creates new Farm contract if there isn't one deployed for the {lpPair} and deposits tokens in it. Emits a {Deposit} event.",
        "params": {
          "amount": "- LP Token amount to deposit.",
          "lpPair": "- Address of the pool to deposit tokens in.",
          "recipient": "- Address which will receive the deposit."
        }
      },
      "depositSingleAsset(address,address,uint256,bytes[2],uint256,uint256,address)": {
        "details": "Deposits single token in the given pool. Creates new Farm contract if there isn't one deployed for the {lpPair}, swaps {token} for pool tokens and deposits them. Emits a {Deposit} event.",
        "params": {
          "amount": "- Amount of token sent.",
          "amountAMin": "- Bounds the extent to which the B/A price can go up before the transaction reverts.",
          "amountBMin": "- Bounds the extent to which the A/B price can go up before the transaction reverts.",
          "lpPair": "- Address of the pool to deposit tokens in.",
          "recipient": "- Address which will receive the deposit.",
          "swapData": "- Parameter with which 1inch router is being called with.",
          "token": "- Address of a token to enter the pool."
        },
        "returns": {
          "liquidity": "- Total liquidity sent to the farm (in lpTokens).",
          "sent": "- Total {token} amount sent to the farm. NOTE: Returns dust left from swap in {token}, but if A/B amounts are not correct also returns dust in pool's tokens."
        }
      },
      "depositSingleETH(address,bytes[2],uint256,uint256,address)": {
        "details": "Deposits single AVAX in the given pool. Creates new Farm contract if there isn't one deployed for the {lpPair}, swaps AVAX for pool tokens and deposits them. Emits a {Deposit} event.",
        "params": {
          "amountAMin": "- Bounds the extent to which the B/A price can go up before the transaction reverts.",
          "amountBMin": "- Bounds the extent to which the A/B price can go up before the transaction reverts.",
          "lpPair": "- Address of the pool to deposit tokens in.",
          "recipient": "- Address which will receive the deposit.",
          "swapData": "- Parameter with which 1inch router is being called with. NOTE: Use WAVAX as toToken."
        },
        "returns": {
          "liquidity": "- Total liquidity sent to the farm (in lpTokens).",
          "sentETH": "- Total AVAX amount sent to the farm. NOTE: Returns dust left from swap in AVAX, but if A/B amount are not correct also returns dust in pool's tokens."
        }
      },
      "distribute(address,(address[],uint256)[4],address)": {
        "details": "Distributes tokens between users.",
        "params": {
          "feeTo": "- Address to collect fees to. Note: This function can only be called by the distributor.",
          "lpPair": "- LP pool to distribute tokens in.",
          "swapInfos": "- Arrays of structs with token arrays describing swap routes (rewardTokenToTokenA, rewardTokenToTokenB, rewarderTokenToTokenA, rewarderTokenToTokenB) and minimum amounts of output tokens that must be received for the transaction not to revert."
        }
      },
      "getTokens(address)": {
        "details": "Returns addresses of tokens in {lpPair}.",
        "params": {
          "lpPair": "- LP pair to check tokens in."
        },
        "returns": {
          "tokens": "- Tokens addresses."
        }
      },
      "paused()": {
        "details": "Returns true if the contract is paused, and false otherwise."
      },
      "proxiableUUID()": {
        "details": "Implementation of the ERC1822 {proxiableUUID} function. This returns the storage slot used by the implementation. It is used to validate that the this implementation remains valid after an upgrade. IMPORTANT: A proxy pointing at a proxiable contract should not be considered proxiable itself, because this risks bricking a proxy that upgrades to it, by delegating to itself until out of gas. Thus it is critical that this function revert if invoked through a proxy. This is guaranteed by the `notDelegated` modifier."
      },
      "setFee(uint256)": {
        "details": "Change fee amount.",
        "params": {
          "_fee": "-New fee to collect from farms. [10^18 == 100%] Note: This function can only be called by ADMIN_ROLE."
        }
      },
      "totalDeposits(address)": {
        "details": "Returns total amount locked in the pool. Doesn't take pending rewards into account.",
        "params": {
          "lpPair": "- LP pool to check total deposits in."
        },
        "returns": {
          "totalDepositsA": "- Token A deposits.",
          "totalDepositsB": "- Token B deposits.",
          "totalDepositsLP": "- Total deposits (in LP tokens)."
        }
      },
      "upgradeTo(address)": {
        "details": "Upgrade the implementation of the proxy to `newImplementation`. Calls {_authorizeUpgrade}. Emits an {Upgraded} event."
      },
      "upgradeToAndCall(address,bytes)": {
        "details": "Upgrade the implementation of the proxy to `newImplementation`, and subsequently execute the function call encoded in `data`. Calls {_authorizeUpgrade}. Emits an {Upgraded} event."
      },
      "userStake(address,address)": {
        "details": "Returns tokens staked by the {_address} for the given {lpPair}.",
        "params": {
          "_address": "- The address to check stakes for.",
          "lpPair": "- LP pool to check stakes in."
        },
        "returns": {
          "stakeA": "- Token A stake.",
          "stakeB": "- Token B stake.",
          "stakeLP": "- Total user stake(in LP tokens)."
        }
      },
      "withdraw(address,uint256,uint256,uint256,address)": {
        "details": "Withdraws a pair of tokens from the given pool. Emits a {Withdraw} event.",
        "params": {
          "amount": "- LP amount to withdraw. ",
          "amountAMin": "- The minimum amount of tokenA that must be received for the transaction not to revert.",
          "amountBMin": "- The minimum amount of tokenB that must be received for the transaction not to revert.",
          "lpPair": "- LP pool to withdraw from.",
          "recipient": "- The address which will receive tokens."
        },
        "returns": {
          "amountA": "- Token A amount sent to the {recipient}",
          "amountB": "- Token B amount sent to the {recipient}"
        }
      },
      "withdrawETH(address,uint256,uint256,uint256,address)": {
        "details": "Autoconverts WAVAX into AVAX and withdraws tokens from the pool. Emits a {Withdraw} event.",
        "params": {
          "amount": "- LP amount to withdraw. ",
          "amountETHMin": "- The minimum amount of AVAX that must be received for the transaction not to revert.",
          "amountTokenMin": "- The minimum amount of token that must be received for the transaction not to revert.",
          "lpPair": "- LP pool to withdraw from.",
          "recipient": "- The address which will receive tokens."
        },
        "returns": {
          "amountETH": "- AVAX amount sent to the {recipient}.",
          "amountToken": "- Token amount sent to the {recipient}."
        }
      },
      "withdrawLP(address,uint256,address)": {
        "details": "Withdraws LP tokens from the given pool. Emits a {Withdraw} event.",
        "params": {
          "amount": "- LP amount to withdraw. ",
          "lpPair": "- LP pool to withdraw from.",
          "recipient": "- The address which will receive tokens."
        }
      },
      "withdrawSingleAsset(address,uint256,address,bytes[2],address)": {
        "details": "Withdraws single token from the given pool. Emits a {Withdraw} event. Note: If there are any tokens left to be withdrawn after swaps they will be sent to the {{recipient}} in a respective token (not in {token}).",
        "params": {
          "amount": "- LP amount to withdraw. ",
          "lpPair": "- LP pool to withdraw from.",
          "recipient": "- Address which will receive the deposit.",
          "swapData": "- Parameter with which 1inch router is being called with.",
          "token": "- Address of a token to exit the pool with."
        },
        "returns": {
          "amountA": "- Token A dust sent to the {recipient}.",
          "amountB": "- Token B dust sent to the {recipient}.",
          "amountToken": "- {token} amount sent to the {recipient}."
        }
      },
      "withdrawSingleETH(address,uint256,bytes[2],address)": {
        "details": "Withdraws single AVAX from the given pool. Emits a {Withdraw} event. Note: If there are any tokens left to be withdrawn after swaps they will be sent to the {{recipient}} in a respective token (not in AVAX).",
        "params": {
          "amount": "- LP amount to withdraw. ",
          "lpPair": "- LP pool to withdraw from.",
          "recipient": "- Address which will receive the deposit.",
          "swapData": "- Parameter with which 1inch router is being called with."
        },
        "returns": {
          "amountA": "- Token A dust sent to the {recipient}.",
          "amountB": "- Token B dust sent to the {recipient}.",
          "amountETH": "- AVAX amount sent to the {recipient}."
        }
      }
    },
    "stateVariables": {
      "farmFactory": {
        "details": "Contract Variables: farmFactory - The contract that deploys new Farms and links them to {lpPair}s. accessManager - Role manager contract."
      }
    },
    "version": 1
  },
  "userdoc": {
    "kind": "user",
    "methods": {},
    "version": 1
  }
}