{
  "contractName": "UnoAssetRouterTrisolarisStableV2",
  "abi": [
    {
      "inputs": [],
      "stateMutability": "nonpayable",
      "type": "constructor"
    },
    {
      "anonymous": false,
      "inputs": [
        {
          "indexed": false,
          "internalType": "address",
          "name": "previousAdmin",
          "type": "address"
        },
        {
          "indexed": false,
          "internalType": "address",
          "name": "newAdmin",
          "type": "address"
        }
      ],
      "name": "AdminChanged",
      "type": "event"
    },
    {
      "anonymous": false,
      "inputs": [
        {
          "indexed": true,
          "internalType": "address",
          "name": "beacon",
          "type": "address"
        }
      ],
      "name": "BeaconUpgraded",
      "type": "event"
    },
    {
      "anonymous": false,
      "inputs": [
        {
          "indexed": true,
          "internalType": "address",
          "name": "lpPool",
          "type": "address"
        },
        {
          "indexed": true,
          "internalType": "address",
          "name": "sender",
          "type": "address"
        },
        {
          "indexed": true,
          "internalType": "address",
          "name": "recipient",
          "type": "address"
        },
        {
          "indexed": false,
          "internalType": "uint256",
          "name": "amount",
          "type": "uint256"
        }
      ],
      "name": "Deposit",
      "type": "event"
    },
    {
      "anonymous": false,
      "inputs": [
        {
          "indexed": true,
          "internalType": "address",
          "name": "lpPool",
          "type": "address"
        },
        {
          "indexed": false,
          "internalType": "uint256",
          "name": "reward",
          "type": "uint256"
        }
      ],
      "name": "Distribute",
      "type": "event"
    },
    {
      "anonymous": false,
      "inputs": [
        {
          "indexed": false,
          "internalType": "uint256",
          "name": "previousFee",
          "type": "uint256"
        },
        {
          "indexed": false,
          "internalType": "uint256",
          "name": "newFee",
          "type": "uint256"
        }
      ],
      "name": "FeeChanged",
      "type": "event"
    },
    {
      "anonymous": false,
      "inputs": [
        {
          "indexed": false,
          "internalType": "uint8",
          "name": "version",
          "type": "uint8"
        }
      ],
      "name": "Initialized",
      "type": "event"
    },
    {
      "anonymous": false,
      "inputs": [
        {
          "indexed": false,
          "internalType": "address",
          "name": "account",
          "type": "address"
        }
      ],
      "name": "Paused",
      "type": "event"
    },
    {
      "anonymous": false,
      "inputs": [
        {
          "indexed": false,
          "internalType": "address",
          "name": "account",
          "type": "address"
        }
      ],
      "name": "Unpaused",
      "type": "event"
    },
    {
      "anonymous": false,
      "inputs": [
        {
          "indexed": true,
          "internalType": "address",
          "name": "implementation",
          "type": "address"
        }
      ],
      "name": "Upgraded",
      "type": "event"
    },
    {
      "anonymous": false,
      "inputs": [
        {
          "indexed": true,
          "internalType": "address",
          "name": "lpPool",
          "type": "address"
        },
        {
          "indexed": true,
          "internalType": "address",
          "name": "sender",
          "type": "address"
        },
        {
          "indexed": true,
          "internalType": "address",
          "name": "recipient",
          "type": "address"
        },
        {
          "indexed": false,
          "internalType": "uint256",
          "name": "amount",
          "type": "uint256"
        }
      ],
      "name": "Withdraw",
      "type": "event"
    },
    {
      "inputs": [],
      "name": "WETH",
      "outputs": [
        {
          "internalType": "address",
          "name": "",
          "type": "address"
        }
      ],
      "stateMutability": "view",
      "type": "function"
    },
    {
      "inputs": [],
      "name": "accessManager",
      "outputs": [
        {
          "internalType": "contract IUnoAccessManager",
          "name": "",
          "type": "address"
        }
      ],
      "stateMutability": "view",
      "type": "function"
    },
    {
      "inputs": [],
      "name": "farmFactory",
      "outputs": [
        {
          "internalType": "contract IUnoFarmFactory",
          "name": "",
          "type": "address"
        }
      ],
      "stateMutability": "view",
      "type": "function"
    },
    {
      "inputs": [],
      "name": "fee",
      "outputs": [
        {
          "internalType": "uint256",
          "name": "",
          "type": "uint256"
        }
      ],
      "stateMutability": "view",
      "type": "function"
    },
    {
      "inputs": [],
      "name": "paused",
      "outputs": [
        {
          "internalType": "bool",
          "name": "",
          "type": "bool"
        }
      ],
      "stateMutability": "view",
      "type": "function"
    },
    {
      "inputs": [],
      "name": "proxiableUUID",
      "outputs": [
        {
          "internalType": "bytes32",
          "name": "",
          "type": "bytes32"
        }
      ],
      "stateMutability": "view",
      "type": "function"
    },
    {
      "inputs": [
        {
          "internalType": "address",
          "name": "newImplementation",
          "type": "address"
        }
      ],
      "name": "upgradeTo",
      "outputs": [],
      "stateMutability": "nonpayable",
      "type": "function"
    },
    {
      "inputs": [
        {
          "internalType": "address",
          "name": "newImplementation",
          "type": "address"
        },
        {
          "internalType": "bytes",
          "name": "data",
          "type": "bytes"
        }
      ],
      "name": "upgradeToAndCall",
      "outputs": [],
      "stateMutability": "payable",
      "type": "function"
    },
    {
      "inputs": [],
      "name": "version",
      "outputs": [
        {
          "internalType": "uint256",
          "name": "",
          "type": "uint256"
        }
      ],
      "stateMutability": "view",
      "type": "function"
    },
    {
      "stateMutability": "payable",
      "type": "receive"
    },
    {
      "inputs": [
        {
          "internalType": "address",
          "name": "_accessManager",
          "type": "address"
        },
        {
          "internalType": "address",
          "name": "_farmFactory",
          "type": "address"
        }
      ],
      "name": "initialize",
      "outputs": [],
      "stateMutability": "nonpayable",
      "type": "function"
    },
    {
      "inputs": [
        {
          "internalType": "address",
          "name": "swap",
          "type": "address"
        },
        {
          "internalType": "uint256[]",
          "name": "amounts",
          "type": "uint256[]"
        },
        {
          "internalType": "uint256",
          "name": "minAmountLP",
          "type": "uint256"
        },
        {
          "internalType": "address",
          "name": "recipient",
          "type": "address"
        }
      ],
      "name": "deposit",
      "outputs": [
        {
          "internalType": "uint256",
          "name": "liquidity",
          "type": "uint256"
        }
      ],
      "stateMutability": "nonpayable",
      "type": "function"
    },
    {
      "inputs": [
        {
          "internalType": "address",
          "name": "swap",
          "type": "address"
        },
        {
          "internalType": "uint256[]",
          "name": "amounts",
          "type": "uint256[]"
        },
        {
          "internalType": "uint256",
          "name": "minAmountLP",
          "type": "uint256"
        },
        {
          "internalType": "address",
          "name": "recipient",
          "type": "address"
        }
      ],
      "name": "depositETH",
      "outputs": [
        {
          "internalType": "uint256",
          "name": "liquidity",
          "type": "uint256"
        }
      ],
      "stateMutability": "payable",
      "type": "function"
    },
    {
      "inputs": [
        {
          "internalType": "address",
          "name": "swap",
          "type": "address"
        },
        {
          "internalType": "address",
          "name": "token",
          "type": "address"
        },
        {
          "internalType": "uint256",
          "name": "amount",
          "type": "uint256"
        },
        {
          "internalType": "bytes[]",
          "name": "swapData",
          "type": "bytes[]"
        },
        {
          "internalType": "uint256",
          "name": "minAmountLP",
          "type": "uint256"
        },
        {
          "internalType": "address",
          "name": "recipient",
          "type": "address"
        }
      ],
      "name": "depositSingleAsset",
      "outputs": [
        {
          "internalType": "uint256",
          "name": "sent",
          "type": "uint256"
        },
        {
          "internalType": "uint256",
          "name": "liquidity",
          "type": "uint256"
        }
      ],
      "stateMutability": "nonpayable",
      "type": "function"
    },
    {
      "inputs": [
        {
          "internalType": "address",
          "name": "swap",
          "type": "address"
        },
        {
          "internalType": "bytes[]",
          "name": "swapData",
          "type": "bytes[]"
        },
        {
          "internalType": "uint256",
          "name": "minAmountLP",
          "type": "uint256"
        },
        {
          "internalType": "address",
          "name": "recipient",
          "type": "address"
        }
      ],
      "name": "depositSingleETH",
      "outputs": [
        {
          "internalType": "uint256",
          "name": "sentETH",
          "type": "uint256"
        },
        {
          "internalType": "uint256",
          "name": "liquidity",
          "type": "uint256"
        }
      ],
      "stateMutability": "payable",
      "type": "function"
    },
    {
      "inputs": [
        {
          "internalType": "address",
          "name": "swap",
          "type": "address"
        },
        {
          "internalType": "uint256",
          "name": "amount",
          "type": "uint256"
        },
        {
          "internalType": "address",
          "name": "recipient",
          "type": "address"
        }
      ],
      "name": "depositLP",
      "outputs": [],
      "stateMutability": "nonpayable",
      "type": "function"
    },
    {
      "inputs": [
        {
          "internalType": "address",
          "name": "swap",
          "type": "address"
        },
        {
          "internalType": "uint256",
          "name": "amount",
          "type": "uint256"
        },
        {
          "internalType": "uint256[]",
          "name": "minAmounts",
          "type": "uint256[]"
        },
        {
          "internalType": "bool",
          "name": "withdrawLP",
          "type": "bool"
        },
        {
          "internalType": "address",
          "name": "recipient",
          "type": "address"
        }
      ],
      "name": "withdraw",
      "outputs": [
        {
          "internalType": "uint256[]",
          "name": "amounts",
          "type": "uint256[]"
        }
      ],
      "stateMutability": "nonpayable",
      "type": "function"
    },
    {
      "inputs": [
        {
          "internalType": "address",
          "name": "swap",
          "type": "address"
        },
        {
          "internalType": "uint256",
          "name": "amount",
          "type": "uint256"
        },
        {
          "internalType": "uint256[]",
          "name": "minAmountsOut",
          "type": "uint256[]"
        },
        {
          "internalType": "address",
          "name": "recipient",
          "type": "address"
        }
      ],
      "name": "withdrawETH",
      "outputs": [
        {
          "internalType": "uint256[]",
          "name": "amounts",
          "type": "uint256[]"
        }
      ],
      "stateMutability": "nonpayable",
      "type": "function"
    },
    {
      "inputs": [
        {
          "internalType": "address",
          "name": "swap",
          "type": "address"
        },
        {
          "components": [
            {
              "internalType": "address[]",
              "name": "route",
              "type": "address[]"
            },
            {
              "internalType": "uint256",
              "name": "amountOutMin",
              "type": "uint256"
            }
          ],
          "internalType": "struct IUnoFarmTrisolarisStable.SwapInfo[]",
          "name": "rewardSwapInfos",
          "type": "tuple[]"
        },
        {
          "components": [
            {
              "internalType": "address[]",
              "name": "route",
              "type": "address[]"
            },
            {
              "internalType": "uint256",
              "name": "amountOutMin",
              "type": "uint256"
            }
          ],
          "internalType": "struct IUnoFarmTrisolarisStable.SwapInfo[]",
          "name": "rewarderSwapInfos",
          "type": "tuple[]"
        },
        {
          "components": [
            {
              "internalType": "address[]",
              "name": "route",
              "type": "address[]"
            },
            {
              "internalType": "uint256",
              "name": "amountOutMin",
              "type": "uint256"
            }
          ],
          "internalType": "struct IUnoFarmTrisolarisStable.SwapInfo[2]",
          "name": "feeSwapInfos",
          "type": "tuple[2]"
        },
        {
          "internalType": "address",
          "name": "feeTo",
          "type": "address"
        }
      ],
      "name": "distribute",
      "outputs": [],
      "stateMutability": "nonpayable",
      "type": "function"
    },
    {
      "inputs": [
        {
          "internalType": "address",
          "name": "_address",
          "type": "address"
        },
        {
          "internalType": "address",
          "name": "swap",
          "type": "address"
        }
      ],
      "name": "userStake",
      "outputs": [
        {
          "internalType": "uint256",
          "name": "stakeLP",
          "type": "uint256"
        }
      ],
      "stateMutability": "view",
      "type": "function"
    },
    {
      "inputs": [
        {
          "internalType": "address",
          "name": "swap",
          "type": "address"
        }
      ],
      "name": "totalDeposits",
      "outputs": [
        {
          "internalType": "uint256",
          "name": "totalDepositsLP",
          "type": "uint256"
        }
      ],
      "stateMutability": "view",
      "type": "function"
    },
    {
      "inputs": [
        {
          "internalType": "address",
          "name": "swap",
          "type": "address"
        }
      ],
      "name": "getTokens",
      "outputs": [
        {
          "internalType": "contract IERC20[]",
          "name": "tokens",
          "type": "address[]"
        }
      ],
      "stateMutability": "view",
      "type": "function"
    },
    {
      "inputs": [
        {
          "internalType": "uint256",
          "name": "_fee",
          "type": "uint256"
        }
      ],
      "name": "setFee",
      "outputs": [],
      "stateMutability": "nonpayable",
      "type": "function"
    },
    {
      "inputs": [],
      "name": "pause",
      "outputs": [],
      "stateMutability": "nonpayable",
      "type": "function"
    },
    {
      "inputs": [],
      "name": "unpause",
      "outputs": [],
      "stateMutability": "nonpayable",
      "type": "function"
    }
  ],
  "bytecode": "0x60a0604052306080523480156200001557600080fd5b506200002062000026565b620000e8565b600054610100900460ff1615620000935760405162461bcd60e51b815260206004820152602760248201527f496e697469616c697a61626c653a20636f6e747261637420697320696e697469604482015266616c697a696e6760c81b606482015260840160405180910390fd5b60005460ff9081161015620000e6576000805460ff191660ff9081179091556040519081527f7f26b83ff96e1f2b6a682f133852f6798a09c465da95921460cefb38474024989060200160405180910390a15b565b60805161424f62000120600039600081816104cd0152818161050d01528181610d2001528181610d600152610eea015261424f6000f3fe60806040526004361061014f5760003560e01c806369fe0e2d116100b65780639a6595171161006f5780639a65951714610411578063ad5c464814610424578063bc570c481461044c578063ddca3f431461046c578063e940325614610482578063fdcb6068146104a257600080fd5b806369fe0e2d146103375780636af5ccbd146103575780636d25e175146103775780636fe46039146103af5780638456cb59146103dc578063947b9160146103f157600080fd5b806351bdca3e1161010857806351bdca3e1461027457806352d1902d146102a257806354fd4d50146102b75780635ad2cf8e146102cc5780635c975abb146102df5780635eb5fa3e1461030257600080fd5b80633659cfe6146101b65780633f4ba83a146101d6578063450efe21146101eb57806346dafa2f14610221578063485cc955146102415780634f1ef2861461026157600080fd5b366101b1573373c9bdeed33cd01541e1eed10f90519d2c06fe3feb146101af5760405162461bcd60e51b815260206004820152601060248201526f09e9c98b2be8286868aa0a8beae8aa8960831b60448201526064015b60405180910390fd5b005b600080fd5b3480156101c257600080fd5b506101af6101d136600461356b565b6104c2565b3480156101e257600080fd5b506101af6105a2565b3480156101f757600080fd5b5061020b61020636600461356b565b610659565b6040516102189190613588565b60405180910390f35b34801561022d57600080fd5b506101af61023c3660046135d5565b61087f565b34801561024d57600080fd5b506101af61025c366004613617565b610ade565b6101af61026f366004613696565b610d15565b34801561028057600080fd5b5061029461028f366004613617565b610de6565b604051908152602001610218565b3480156102ae57600080fd5b50610294610edd565b3480156102c357600080fd5b50610294600281565b6102946102da366004613760565b610f90565b3480156102eb57600080fd5b5060335460ff166040519015158152602001610218565b34801561030e57600080fd5b5061032261031d36600461386e565b6113be565b60408051928352602083019190915201610218565b34801561034357600080fd5b506101af6103523660046138fd565b61180c565b34801561036357600080fd5b50610294610372366004613760565b61192b565b34801561038357600080fd5b5060c954610397906001600160a01b031681565b6040516001600160a01b039091168152602001610218565b3480156103bb57600080fd5b506103cf6103ca366004613916565b611be6565b60405161021891906139c4565b3480156103e857600080fd5b506101af611f32565b3480156103fd57600080fd5b506103cf61040c3660046139e5565b611fe9565b61032261041f366004613a69565b612165565b34801561043057600080fd5b5061039773c9bdeed33cd01541e1eed10f90519d2c06fe3feb81565b34801561045857600080fd5b506101af610467366004613ace565b61269f565b34801561047857600080fd5b5061029460cc5481565b34801561048e57600080fd5b5061029461049d36600461356b565b6128cd565b3480156104ae57600080fd5b5060ca54610397906001600160a01b031681565b306001600160a01b037f000000000000000000000000000000000000000000000000000000000000000016141561050b5760405162461bcd60e51b81526004016101a690613b7d565b7f00000000000000000000000000000000000000000000000000000000000000006001600160a01b03166105546000805160206141b3833981519152546001600160a01b031690565b6001600160a01b03161461057a5760405162461bcd60e51b81526004016101a690613bc9565b610583816129bb565b6040805160008082526020820190925261059f91839190612a4d565b50565b60ca54604051632474521560e21b81527f65d7a28e3265b37a6474929f336521b332c1681b933f6cb9f3376673440d862a60048201819052336024830152916001600160a01b0316906391d1485490604401602060405180830381865afa158015610611573d6000803e3d6000fd5b505050506040513d601f19601f820116820180604052508101906106359190613c15565b6106515760405162461bcd60e51b81526004016101a690613c32565b61059f612bb8565b6040805160ff8082526120008201909252606091600091829160208201611fe08036833701905050905060005b60ff818116101561077b5760405162415c3360e91b815260ff821660048201526001600160a01b038616906382b8660090602401602060405180830381865afa9250505080156106f3575060408051601f3d908101601f191682019092526106f091810190613c61565b60015b61072d573d808015610721576040519150601f19603f3d011682016040523d82523d6000602084013e610726565b606091505b505061077b565b80838360ff168151811061074357610743613c7e565b6001600160a01b03909216602092830291909101909101528361076581613caa565b945050508061077381613caa565b915050610686565b5060008260ff16116107c35760405162461bcd60e51b815260206004820152601160248201527004e4f5f544f4b454e535f494e5f5357415607c1b60448201526064016101a6565b8160ff166001600160401b038111156107de576107de613650565b604051908082528060200260200182016040528015610807578160200160208202803683370190505b50925060005b8260ff168160ff16101561087757818160ff168151811061083057610830613c7e565b6020026020010151848260ff168151811061084d5761084d613c7e565b6001600160a01b03909216602092830291909101909101528061086f81613caa565b91505061080d565b505050919050565b610887612c0a565b600082116108c75760405162461bcd60e51b815260206004820152600d60248201526c1393d7d513d2d15397d4d15395609a1b60448201526064016101a6565b60c95460405163f9d9331d60e01b81526001600160a01b038581166004830152600092169063f9d9331d90602401602060405180830381865afa158015610912573d6000803e3d6000fd5b505050506040513d601f19601f820116820180604052508101906109369190613c61565b90506001600160a01b0381166109b85760c954604051621849e360e61b81526001600160a01b0386811660048301529091169063061278c0906024016020604051808303816000875af1158015610991573d6000803e3d6000fd5b505050506040513d601f19601f820116820180604052508101906109b59190613c61565b90505b610a31338285846001600160a01b031663452ed4f16040518163ffffffff1660e01b8152600401602060405180830381865afa1580156109fc573d6000803e3d6000fd5b505050506040513d601f19601f82011682018060405250810190610a209190613c61565b6001600160a01b0316929190612c52565b604051636e553f6560e01b8152600481018490526001600160a01b038381166024830152821690636e553f6590604401600060405180830381600087803b158015610a7b57600080fd5b505af1158015610a8f573d6000803e3d6000fd5b50505050816001600160a01b0316336001600160a01b0316856001600160a01b03166000805160206141d383398151915286604051610ad091815260200190565b60405180910390a450505050565b600054610100900460ff1615808015610afe5750600054600160ff909116105b80610b185750303b158015610b18575060005460ff166001145b610b7b5760405162461bcd60e51b815260206004820152602e60248201527f496e697469616c697a61626c653a20636f6e747261637420697320616c72656160448201526d191e481a5b9a5d1a585b1a5e995960921b60648201526084016101a6565b6000805460ff191660011790558015610b9e576000805461ff0019166101001790555b6001600160a01b038316610be95760405162461bcd60e51b81526020600482015260126024820152712120a22fa0a1a1a2a9a9afa6a0a720a3a2a960711b60448201526064016101a6565b6001600160a01b038216610c325760405162461bcd60e51b815260206004820152601060248201526f4241445f4641524d5f464143544f525960801b60448201526064016101a6565b610c3a612cc3565b60ca80546001600160a01b038086166001600160a01b0319928316811790935560c980549186169190921617905560408051631d6c8e3f60e21b815290516375b238fc916004808201926020929091908290030181865afa158015610ca3573d6000803e3d6000fd5b505050506040513d601f19601f82011682018060405250810190610cc79190613cca565b60cb558015610d10576000805461ff0019169055604051600181527f7f26b83ff96e1f2b6a682f133852f6798a09c465da95921460cefb38474024989060200160405180910390a15b505050565b306001600160a01b037f0000000000000000000000000000000000000000000000000000000000000000161415610d5e5760405162461bcd60e51b81526004016101a690613b7d565b7f00000000000000000000000000000000000000000000000000000000000000006001600160a01b0316610da76000805160206141b3833981519152546001600160a01b031690565b6001600160a01b031614610dcd5760405162461bcd60e51b81526004016101a690613bc9565b610dd6826129bb565b610de282826001612a4d565b5050565b60c95460405163f9d9331d60e01b81526001600160a01b038381166004830152600092839291169063f9d9331d90602401602060405180830381865afa158015610e34573d6000803e3d6000fd5b505050506040513d601f19601f82011682018060405250810190610e589190613c61565b90506001600160a01b03811615610ed657604051630103c92b60e01b81526001600160a01b038581166004830152821690630103c92b90602401602060405180830381865afa158015610eaf573d6000803e3d6000fd5b505050506040513d601f19601f82011682018060405250810190610ed39190613cca565b91505b5092915050565b6000306001600160a01b037f00000000000000000000000000000000000000000000000000000000000000001614610f7d5760405162461bcd60e51b815260206004820152603860248201527f555550535570677261646561626c653a206d757374206e6f742062652063616c60448201527f6c6564207468726f7567682064656c656761746563616c6c000000000000000060648201526084016101a6565b506000805160206141b383398151915290565b6000610f9a612c0a565b60003411610fd85760405162461bcd60e51b815260206004820152600b60248201526a1393d7d1551217d4d1539560aa1b60448201526064016101a6565b6000610fe386610659565b9050805185511461102b5760405162461bcd60e51b81526020600482015260126024820152710848288be829a9eaa9ca8a6be988a9c8ea8960731b60448201526064016101a6565b60c95460405163f9d9331d60e01b81526001600160a01b038881166004830152600092169063f9d9331d90602401602060405180830381865afa158015611076573d6000803e3d6000fd5b505050506040513d601f19601f8201168201806040525081019061109a9190613c61565b90506001600160a01b03811661111c5760c954604051621849e360e61b81526001600160a01b0389811660048301529091169063061278c0906024016020604051808303816000875af11580156110f5573d6000803e3d6000fd5b505050506040513d601f19601f820116820180604052508101906111199190613c61565b90505b600073c9bdeed33cd01541e1eed10f90519d2c06fe3feb6001600160a01b031663d0e30db0346040518263ffffffff1660e01b81526004016000604051808303818588803b15801561116d57600080fd5b505af1158015611181573d6000803e3d6000fd5b505050505060005b87518110156112bd576040516327b2595f60e11b8152600481018290526000906001600160a01b03851690634f64b2be90602401602060405180830381865afa1580156111da573d6000803e3d6000fd5b505050506040513d601f19601f820116820180604052508101906111fe9190613c61565b90506001600160a01b03811673c9bdeed33cd01541e1eed10f90519d2c06fe3feb141561124e573489838151811061123857611238613c7e565b60200260200101818152505060019250506112ab565b600089838151811061126257611262613c7e565b602002602001015111156112a9576112a933308b858151811061128757611287613c7e565b6020026020010151846001600160a01b0316612c52909392919063ffffffff16565b505b806112b581613ce3565b915050611189565b50806112fb5760405162461bcd60e51b815260206004820152600d60248201526c1393d517d5d1551217d413d3d3609a1b60448201526064016101a6565b6113088888858986612cf2565b604051636e553f6560e01b8152600481018290526001600160a01b03878116602483015291955090831690636e553f6590604401600060405180830381600087803b15801561135657600080fd5b505af115801561136a573d6000803e3d6000fd5b50505050846001600160a01b0316336001600160a01b0316896001600160a01b03166000805160206141d3833981519152876040516113ab91815260200190565b60405180910390a4505050949350505050565b6000806113c9612c0a565b600087116114095760405162461bcd60e51b815260206004820152600d60248201526c1393d7d513d2d15397d4d15395609a1b60448201526064016101a6565b60006114148a610659565b8051909150861461145e5760405162461bcd60e51b81526020600482015260146024820152730848288bea6ae82a0be8882a882be988a9c8ea8960631b60448201526064016101a6565b60c95460405163f9d9331d60e01b81526001600160a01b038c81166004830152600092169063f9d9331d90602401602060405180830381865afa1580156114a9573d6000803e3d6000fd5b505050506040513d601f19601f820116820180604052508101906114cd9190613c61565b90506001600160a01b03811661154f5760c954604051621849e360e61b81526001600160a01b038d811660048301529091169063061278c0906024016020604051808303816000875af1158015611528573d6000803e3d6000fd5b505050506040513d601f19601f8201168201806040525081019061154c9190613c61565b90505b6115646001600160a01b038b1633308c612c52565b60405163095ea7b360e01b8152731111111254eeb25477b68fb85ed929f73a9605826004820152602481018a90526001600160a01b038b169063095ea7b3906044016020604051808303816000875af11580156115c5573d6000803e3d6000fd5b505050506040513d601f19601f820116820180604052508101906115e99190613c15565b50600082516001600160401b0381111561160557611605613650565b60405190808252806020026020018201604052801561162e578160200160208202803683370190505b508a9550905060001960005b84518110156116f0578c6001600160a01b031685828151811061165f5761165f613c7e565b60200260200101516001600160a01b0316141561167e578091506116de565b6000806116ad8d8d8581811061169657611696613c7e565b90506020028101906116a89190613cfe565b612f34565b91509150818584815181106116c4576116c4613c7e565b60209081029190910101526116d9818f613d44565b9d5050505b806116e881613ce3565b91505061163a565b50806000191461171e578a82828151811061170d5761170d613c7e565b602002602001018181525050611744565b8a156117445761172e8b87613d44565b95506117446001600160a01b038d16338d613013565b506117528c82858a86612cf2565b604051636e553f6560e01b8152600481018290526001600160a01b03888116602483015291955090831690636e553f6590604401600060405180830381600087803b1580156117a057600080fd5b505af11580156117b4573d6000803e3d6000fd5b50505050856001600160a01b0316336001600160a01b03168d6001600160a01b03166000805160206141d3833981519152876040516117f591815260200190565b60405180910390a450505097509795505050505050565b60cb5460ca54604051632474521560e21b8152600481018390523360248201526001600160a01b03909116906391d1485490604401602060405180830381865afa15801561185e573d6000803e3d6000fd5b505050506040513d601f19601f820116820180604052508101906118829190613c15565b61189e5760405162461bcd60e51b81526004016101a690613c32565b670de0b6b3a76400008211156118e05760405162461bcd60e51b81526020600482015260076024820152664241445f46454560c81b60448201526064016101a6565b8160cc5414610de25760cc5460408051918252602082018490527f5fc463da23c1b063e66f9e352006a7fbe8db7223c455dc429e881a2dfe2f94f1910160405180910390a15060cc55565b6000611935612c0a565b600061194086610659565b905080518551146119885760405162461bcd60e51b81526020600482015260126024820152710848288be829a9eaa9ca8a6be988a9c8ea8960731b60448201526064016101a6565b60c95460405163f9d9331d60e01b81526001600160a01b038881166004830152600092169063f9d9331d90602401602060405180830381865afa1580156119d3573d6000803e3d6000fd5b505050506040513d601f19601f820116820180604052508101906119f79190613c61565b90506001600160a01b038116611a795760c954604051621849e360e61b81526001600160a01b0389811660048301529091169063061278c0906024016020604051808303816000875af1158015611a52573d6000803e3d6000fd5b505050506040513d601f19601f82011682018060405250810190611a769190613c61565b90505b60005b8651811015611b23576000878281518110611a9957611a99613c7e565b60200260200101511115611b1157611b113330898481518110611abe57611abe613c7e565b6020026020010151856001600160a01b0316634f64b2be866040518263ffffffff1660e01b8152600401611af491815260200190565b602060405180830381865afa1580156109fc573d6000803e3d6000fd5b80611b1b81613ce3565b915050611a7c565b50611b318787848885612cf2565b604051636e553f6560e01b8152600481018290526001600160a01b03868116602483015291945090821690636e553f6590604401600060405180830381600087803b158015611b7f57600080fd5b505af1158015611b93573d6000803e3d6000fd5b50505050836001600160a01b0316336001600160a01b0316886001600160a01b03166000805160206141d383398151915286604051611bd491815260200190565b60405180910390a45050949350505050565b60c95460405163f9d9331d60e01b81526001600160a01b03878116600483015260609260009291169063f9d9331d90602401602060405180830381865afa158015611c35573d6000803e3d6000fd5b505050506040513d601f19601f82011682018060405250810190611c599190613c61565b90506001600160a01b038116611c815760405162461bcd60e51b81526004016101a690613d5b565b604051631f9e746960e11b81526001600160a01b03821690633f3ce8d290611cb89089908990899060009033903090600401613d84565b6000604051808303816000875af1158015611cd7573d6000803e3d6000fd5b505050506040513d6000823e601f3d908101601f19168201604052611cff9190810190613de9565b915060005b8251811015611ed0576040516327b2595f60e11b8152600481018290526000906001600160a01b03841690634f64b2be90602401602060405180830381865afa158015611d55573d6000803e3d6000fd5b505050506040513d601f19601f82011682018060405250810190611d799190613c61565b90506001600160a01b03811673c9bdeed33cd01541e1eed10f90519d2c06fe3feb14611ddc57611dd685858481518110611db557611db5613c7e565b6020026020010151836001600160a01b03166130139092919063ffffffff16565b50611ebe565b73c9bdeed33cd01541e1eed10f90519d2c06fe3feb6001600160a01b0316632e1a7d4d858481518110611e1157611e11613c7e565b60200260200101516040518263ffffffff1660e01b8152600401611e3791815260200190565b600060405180830381600087803b158015611e5157600080fd5b505af1158015611e65573d6000803e3d6000fd5b50505050846001600160a01b03166108fc858481518110611e8857611e88613c7e565b60200260200101519081150290604051600060405180830381858888f19350505050158015611ebb573d6000803e3d6000fd5b50505b80611ec881613ce3565b915050611d04565b50826001600160a01b0316336001600160a01b0316886001600160a01b03167f3115d1449a7b732c986cba18244e897a450f61e1bb8d589cd2e69e6c8924f9f789604051611f2091815260200190565b60405180910390a45095945050505050565b60ca54604051632474521560e21b81527f65d7a28e3265b37a6474929f336521b332c1681b933f6cb9f3376673440d862a60048201819052336024830152916001600160a01b0316906391d1485490604401602060405180830381865afa158015611fa1573d6000803e3d6000fd5b505050506040513d601f19601f82011682018060405250810190611fc59190613c15565b611fe15760405162461bcd60e51b81526004016101a690613c32565b61059f613043565b60c95460405163f9d9331d60e01b81526001600160a01b03888116600483015260609260009291169063f9d9331d90602401602060405180830381865afa158015612038573d6000803e3d6000fd5b505050506040513d601f19601f8201168201806040525081019061205c9190613c61565b90506001600160a01b0381166120845760405162461bcd60e51b81526004016101a690613d5b565b604051631f9e746960e11b81526001600160a01b03821690633f3ce8d2906120ba908a908a908a908a9033908b90600401613d84565b6000604051808303816000875af11580156120d9573d6000803e3d6000fd5b505050506040513d6000823e601f3d908101601f191682016040526121019190810190613de9565b9150826001600160a01b0316336001600160a01b0316896001600160a01b03167f3115d1449a7b732c986cba18244e897a450f61e1bb8d589cd2e69e6c8924f9f78a60405161215291815260200190565b60405180910390a4509695505050505050565b600080612170612c0a565b600034116121b05760405162461bcd60e51b815260206004820152600d60248201526c1393d7d350551250d7d4d15395609a1b60448201526064016101a6565b60006121bb88610659565b805190915086146122055760405162461bcd60e51b81526020600482015260146024820152730848288bea6ae82a0be8882a882be988a9c8ea8960631b60448201526064016101a6565b60c95460405163f9d9331d60e01b81526001600160a01b038a81166004830152600092169063f9d9331d90602401602060405180830381865afa158015612250573d6000803e3d6000fd5b505050506040513d601f19601f820116820180604052508101906122749190613c61565b90506001600160a01b0381166122f65760c954604051621849e360e61b81526001600160a01b038b811660048301529091169063061278c0906024016020604051808303816000875af11580156122cf573d6000803e3d6000fd5b505050506040513d601f19601f820116820180604052508101906122f39190613c61565b90505b600034905073c9bdeed33cd01541e1eed10f90519d2c06fe3feb6001600160a01b031663d0e30db0826040518263ffffffff1660e01b81526004016000604051808303818588803b15801561234a57600080fd5b505af115801561235e573d6000803e3d6000fd5b505060405163095ea7b360e01b8152731111111254eeb25477b68fb85ed929f73a96058260048201526024810185905273c9bdeed33cd01541e1eed10f90519d2c06fe3feb935063095ea7b3925060440190506020604051808303816000875af11580156123d0573d6000803e3d6000fd5b505050506040513d601f19601f820116820180604052508101906123f49190613c15565b50600083516001600160401b0381111561241057612410613650565b604051908082528060200260200182016040528015612439578160200160208202803683370190505b509195508591905060001960005b85518110156125035773c9bdeed33cd01541e1eed10f90519d2c06fe3feb6001600160a01b031686828151811061248057612480613c7e565b60200260200101516001600160a01b0316141561249f578091506124f1565b6000806124b78e8e8581811061169657611696613c7e565b909250905081156124e257818584815181106124d5576124d5613c7e565b6020026020010181815250505b6124ec8187613d44565b955050505b806124fb81613ce3565b915050612447565b508060001914612531578282828151811061252057612520613c7e565b6020026020010181815250506125d8565b82156125d8576125418388613d44565b604051632e1a7d4d60e01b81526004810185905290975073c9bdeed33cd01541e1eed10f90519d2c06fe3feb90632e1a7d4d90602401600060405180830381600087803b15801561259157600080fd5b505af11580156125a5573d6000803e3d6000fd5b505060405133925085156108fc02915085906000818181858888f193505050501580156125d6573d6000803e3d6000fd5b505b506125e68b82868b87612cf2565b604051636e553f6560e01b8152600481018290526001600160a01b03898116602483015291965090841690636e553f6590604401600060405180830381600087803b15801561263457600080fd5b505af1158015612648573d6000803e3d6000fd5b50505050866001600160a01b0316336001600160a01b03168c6001600160a01b03166000805160206141d38339815191528860405161268991815260200190565b60405180910390a4505050509550959350505050565b6126a7612c0a565b60ca54604051632474521560e21b81527ffbd454f36a7e1a388bd6fc3ab10d434aa4578f811acbbcf33afb1c697486313c60048201819052336024830152916001600160a01b0316906391d1485490604401602060405180830381865afa158015612716573d6000803e3d6000fd5b505050506040513d601f19601f8201168201806040525081019061273a9190613c15565b6127565760405162461bcd60e51b81526004016101a690613c32565b60c95460405163f9d9331d60e01b81526001600160a01b038a81166004830152600092169063f9d9331d90602401602060405180830381865afa1580156127a1573d6000803e3d6000fd5b505050506040513d601f19601f820116820180604052508101906127c59190613c61565b90506001600160a01b0381166127ed5760405162461bcd60e51b81526004016101a690613d5b565b6040805180820182526001600160a01b03858116825260cc5460208301529151636d94834360e11b815260009284169163db29068691612839918d918d918d918d918d91600401613f73565b6020604051808303816000875af1158015612858573d6000803e3d6000fd5b505050506040513d601f19601f8201168201806040525081019061287c9190613cca565b9050896001600160a01b03167fc1d32ad5cca423e7dda2123dbf8c482f8e77d00b631c06e903a47f2cec1334df826040516128b991815260200190565b60405180910390a250505050505050505050565b60c95460405163f9d9331d60e01b81526001600160a01b038381166004830152600092839291169063f9d9331d90602401602060405180830381865afa15801561291b573d6000803e3d6000fd5b505050506040513d601f19601f8201168201806040525081019061293f9190613c61565b90506001600160a01b038116156129b557806001600160a01b031663168a48226040518163ffffffff1660e01b8152600401602060405180830381865afa15801561298e573d6000803e3d6000fd5b505050506040513d601f19601f820116820180604052508101906129b29190613cca565b91505b50919050565b60cb5460ca54604051632474521560e21b8152600481018390523360248201526001600160a01b03909116906391d1485490604401602060405180830381865afa158015612a0d573d6000803e3d6000fd5b505050506040513d601f19601f82011682018060405250810190612a319190613c15565b610de25760405162461bcd60e51b81526004016101a690613c32565b7f4910fdfa16fed3260ed0e7147f7cc6da11a60208b5b9406d12a635614ffd91435460ff1615612a8057610d1083613080565b826001600160a01b03166352d1902d6040518163ffffffff1660e01b8152600401602060405180830381865afa925050508015612ada575060408051601f3d908101601f19168201909252612ad791810190613cca565b60015b612b3d5760405162461bcd60e51b815260206004820152602e60248201527f45524331393637557067726164653a206e657720696d706c656d656e7461746960448201526d6f6e206973206e6f74205555505360901b60648201526084016101a6565b6000805160206141b38339815191528114612bac5760405162461bcd60e51b815260206004820152602960248201527f45524331393637557067726164653a20756e737570706f727465642070726f786044820152681a58589b195555525160ba1b60648201526084016101a6565b50610d1083838361311c565b612bc0613141565b6033805460ff191690557f5db9ee0a495bf2e6ff9c91a7834c1ba4fdd244a5e8aa4e537bd38aeae4b073aa335b6040516001600160a01b03909116815260200160405180910390a1565b60335460ff1615612c505760405162461bcd60e51b815260206004820152601060248201526f14185d5cd8589b194e881c185d5cd95960821b60448201526064016101a6565b565b6040516001600160a01b0380851660248301528316604482015260648101829052612cbd9085906323b872dd60e01b906084015b60408051601f198184030181529190526020810180516001600160e01b03166001600160e01b03199093169290921790915261318a565b50505050565b600054610100900460ff16612cea5760405162461bcd60e51b81526004016101a690614093565b612c5061325c565b60008060005b8651811015612df8576000878281518110612d1557612d15613c7e565b60200260200101511115612de65781612d2d57600191505b858181518110612d3f57612d3f613c7e565b60200260200101516001600160a01b031663095ea7b389898481518110612d6857612d68613c7e565b60200260200101516040518363ffffffff1660e01b8152600401612da19291906001600160a01b03929092168252602082015260400190565b6020604051808303816000875af1158015612dc0573d6000803e3d6000fd5b505050506040513d601f19601f82011682018060405250810190612de49190613c15565b505b80612df081613ce3565b915050612cf8565b5080612e3e5760405162461bcd60e51b81526020600482015260156024820152741393d7d3125455525112551657d41493d592511151605a1b60448201526064016101a6565b604051634d49e87d60e01b81526001600160a01b03881690634d49e87d90612e6e908990889042906004016140de565b6020604051808303816000875af1158015612e8d573d6000803e3d6000fd5b505050506040513d601f19601f82011682018060405250810190612eb19190613cca565b9150612f2a8383856001600160a01b031663452ed4f16040518163ffffffff1660e01b8152600401602060405180830381865afa158015612ef6573d6000803e3d6000fd5b505050506040513d601f19601f82011682018060405250810190612f1a9190613c61565b6001600160a01b03169190613013565b5095945050505050565b600080600080731111111254eeb25477b68fb85ed929f73a9605826001600160a01b03168686604051612f68929190614103565b6000604051808303816000865af19150503d8060008114612fa5576040519150601f19603f3d011682016040523d82523d6000602084013e612faa565b606091505b509150915081612ff25760405162461bcd60e51b815260206004820152601360248201527214d5d05417d393d517d4d550d0d154d4d19553606a1b60448201526064016101a6565b808060200190518101906130069190614113565b9097909650945050505050565b6040516001600160a01b038316602482015260448101829052610d1090849063a9059cbb60e01b90606401612c86565b61304b612c0a565b6033805460ff191660011790557f62e78cea01bee320cd4e420270b5ea74000d11b0c9f74754ebdbfc544b05a258612bed3390565b6001600160a01b0381163b6130ed5760405162461bcd60e51b815260206004820152602d60248201527f455243313936373a206e657720696d706c656d656e746174696f6e206973206e60448201526c1bdd08184818dbdb9d1c9858dd609a1b60648201526084016101a6565b6000805160206141b383398151915280546001600160a01b0319166001600160a01b0392909216919091179055565b6131258361328f565b6000825111806131325750805b15610d1057612cbd83836132cf565b60335460ff16612c505760405162461bcd60e51b815260206004820152601460248201527314185d5cd8589b194e881b9bdd081c185d5cd95960621b60448201526064016101a6565b60006131df826040518060400160405280602081526020017f5361666545524332303a206c6f772d6c6576656c2063616c6c206661696c6564815250856001600160a01b03166133c39092919063ffffffff16565b805190915015610d1057808060200190518101906131fd9190613c15565b610d105760405162461bcd60e51b815260206004820152602a60248201527f5361666545524332303a204552433230206f7065726174696f6e20646964206e6044820152691bdd081cdd58d8d9595960b21b60648201526084016101a6565b600054610100900460ff166132835760405162461bcd60e51b81526004016101a690614093565b6033805460ff19169055565b61329881613080565b6040516001600160a01b038216907fbc7cd75a20ee27fd9adebab32041f755214dbc6bffa90cc0225b39da2e5c2d3b90600090a250565b60606001600160a01b0383163b6133375760405162461bcd60e51b815260206004820152602660248201527f416464726573733a2064656c65676174652063616c6c20746f206e6f6e2d636f6044820152651b9d1c9858dd60d21b60648201526084016101a6565b600080846001600160a01b0316846040516133529190614163565b600060405180830381855af49150503d806000811461338d576040519150601f19603f3d011682016040523d82523d6000602084013e613392565b606091505b50915091506133ba82826040518060600160405280602781526020016141f3602791396133dc565b95945050505050565b60606133d28484600085613415565b90505b9392505050565b606083156133eb5750816133d5565b8251156133fb5782518084602001fd5b8160405162461bcd60e51b81526004016101a6919061417f565b6060824710156134765760405162461bcd60e51b815260206004820152602660248201527f416464726573733a20696e73756666696369656e742062616c616e636520666f6044820152651c8818d85b1b60d21b60648201526084016101a6565b6001600160a01b0385163b6134cd5760405162461bcd60e51b815260206004820152601d60248201527f416464726573733a2063616c6c20746f206e6f6e2d636f6e747261637400000060448201526064016101a6565b600080866001600160a01b031685876040516134e99190614163565b60006040518083038185875af1925050503d8060008114613526576040519150601f19603f3d011682016040523d82523d6000602084013e61352b565b606091505b509150915061353b8282866133dc565b979650505050505050565b6001600160a01b038116811461059f57600080fd5b803561356681613546565b919050565b60006020828403121561357d57600080fd5b81356133d581613546565b6020808252825182820181905260009190848201906040850190845b818110156135c95783516001600160a01b0316835292840192918401916001016135a4565b50909695505050505050565b6000806000606084860312156135ea57600080fd5b83356135f581613546565b925060208401359150604084013561360c81613546565b809150509250925092565b6000806040838503121561362a57600080fd5b823561363581613546565b9150602083013561364581613546565b809150509250929050565b634e487b7160e01b600052604160045260246000fd5b604051601f8201601f191681016001600160401b038111828210171561368e5761368e613650565b604052919050565b600080604083850312156136a957600080fd5b82356136b481613546565b91506020838101356001600160401b03808211156136d157600080fd5b818601915086601f8301126136e557600080fd5b8135818111156136f7576136f7613650565b613709601f8201601f19168501613666565b9150808252878482850101111561371f57600080fd5b80848401858401376000848284010152508093505050509250929050565b60006001600160401b0382111561375657613756613650565b5060051b60200190565b6000806000806080858703121561377657600080fd5b843561378181613546565b93506020858101356001600160401b0381111561379d57600080fd5b8601601f810188136137ae57600080fd5b80356137c16137bc8261373d565b613666565b81815260059190911b8201830190838101908a8311156137e057600080fd5b928401925b828410156137fe578335825292840192908401906137e5565b96505050506040860135925061381890506060860161355b565b905092959194509250565b60008083601f84011261383557600080fd5b5081356001600160401b0381111561384c57600080fd5b6020830191508360208260051b850101111561386757600080fd5b9250929050565b600080600080600080600060c0888a03121561388957600080fd5b873561389481613546565b965060208801356138a481613546565b95506040880135945060608801356001600160401b038111156138c657600080fd5b6138d28a828b01613823565b9095509350506080880135915060a08801356138ed81613546565b8091505092959891949750929550565b60006020828403121561390f57600080fd5b5035919050565b60008060008060006080868803121561392e57600080fd5b853561393981613546565b94506020860135935060408601356001600160401b0381111561395b57600080fd5b61396788828901613823565b909450925050606086013561397b81613546565b809150509295509295909350565b600081518084526020808501945080840160005b838110156139b95781518752958201959082019060010161399d565b509495945050505050565b6020815260006133d56020830184613989565b801515811461059f57600080fd5b60008060008060008060a087890312156139fe57600080fd5b8635613a0981613546565b95506020870135945060408701356001600160401b03811115613a2b57600080fd5b613a3789828a01613823565b9095509350506060870135613a4b816139d7565b91506080870135613a5b81613546565b809150509295509295509295565b600080600080600060808688031215613a8157600080fd5b8535613a8c81613546565b945060208601356001600160401b03811115613aa757600080fd5b613ab388828901613823565b90955093505060408601359150606086013561397b81613546565b600080600080600080600060a0888a031215613ae957600080fd5b8735613af481613546565b965060208801356001600160401b0380821115613b1057600080fd5b613b1c8b838c01613823565b909850965060408a0135915080821115613b3557600080fd5b613b418b838c01613823565b909650945060608a0135915080821115613b5a57600080fd5b508801604081018a1015613b6d57600080fd5b915060808801356138ed81613546565b6020808252602c908201527f46756e6374696f6e206d7573742062652063616c6c6564207468726f7567682060408201526b19195b1959d85d1958d85b1b60a21b606082015260800190565b6020808252602c908201527f46756e6374696f6e206d7573742062652063616c6c6564207468726f7567682060408201526b6163746976652070726f787960a01b606082015260800190565b600060208284031215613c2757600080fd5b81516133d5816139d7565b60208082526015908201527410d05313115497d393d517d055551213d492569151605a1b604082015260600190565b600060208284031215613c7357600080fd5b81516133d581613546565b634e487b7160e01b600052603260045260246000fd5b634e487b7160e01b600052601160045260246000fd5b600060ff821660ff811415613cc157613cc1613c94565b60010192915050565b600060208284031215613cdc57600080fd5b5051919050565b6000600019821415613cf757613cf7613c94565b5060010190565b6000808335601e19843603018112613d1557600080fd5b8301803591506001600160401b03821115613d2f57600080fd5b60200191503681900382131561386757600080fd5b600082821015613d5657613d56613c94565b500390565b6020808252600f908201526e4641524d5f4e4f545f45584953545360881b604082015260600190565b86815260a060208201819052810185905260006001600160fb1b03861115613dab57600080fd5b8560051b808860c0850137600090830160c0019081529415156040830152506001600160a01b03928316606082015291166080909101529392505050565b60006020808385031215613dfc57600080fd5b82516001600160401b03811115613e1257600080fd5b8301601f81018513613e2357600080fd5b8051613e316137bc8261373d565b81815260059190911b82018301908381019087831115613e5057600080fd5b928401925b8284101561353b57835182529284019290840190613e55565b60008235603e19833603018112613e8457600080fd5b90910192915050565b81835260006020808501808196506005915085821b81018560005b88811015613f65578383038a52613ebf8289613e6e565b60408085018235601e19843603018112613ed857600080fd5b830180356001600160401b03811115613ef057600080fd5b808a1b3603851315613f0157600080fd5b928752908290526060860191908901906000905b80821015613f47578235613f2881613546565b6001600160a01b03168452928a0192918a019160019190910190613f15565b50505090870135938701939093529885019890850190600101613ea8565b509098975050505050505050565b60a081526000613f8760a08301888a613e8d565b602083820381850152613f9b82888a613e8d565b9150604084830381860152828390508184018860005b600281101561406b578683038452613fc9828c613e6e565b8584018135601e19833603018112613fe057600080fd5b820180356001600160401b03811115613ff857600080fd5b8060051b360384131561400a57600080fd5b88875291829052880190600090606087015b8183101561404c57833561402f81613546565b6001600160a01b03168152928a0192600192909201918a0161401c565b938a0135968a0196909652505093860193925090850190600101613fb1565b505087516001600160a01b0316606088015260208801516080880152945061353b9350505050565b6020808252602b908201527f496e697469616c697a61626c653a20636f6e7472616374206973206e6f74206960408201526a6e697469616c697a696e6760a81b606082015260800190565b6060815260006140f16060830186613989565b60208301949094525060400152919050565b8183823760009101908152919050565b6000806040838503121561412657600080fd5b505080516020909101519092909150565b60005b8381101561415257818101518382015260200161413a565b83811115612cbd5750506000910152565b60008251614175818460208701614137565b9190910192915050565b602081526000825180602084015261419e816040850160208701614137565b601f01601f1916919091016040019291505056fe360894a13ba1a3210667c828492db98dca3e2076cc3735a920a3ca505d382bbc7cfff908a4b583f36430b25d75964c458d8ede8a99bd61be750e97ee1b2f3a96416464726573733a206c6f772d6c6576656c2064656c65676174652063616c6c206661696c6564a264697066735822122015370fe8e72ae97f41162aa81c1b5d063e5016c4c609bb47db65e83da512038d64736f6c634300080a0033",
  "immutableReferences": {
    "570": [
      {
        "length": 32,
        "start": 1229
      },
      {
        "length": 32,
        "start": 1293
      },
      {
        "length": 32,
        "start": 3360
      },
      {
        "length": 32,
        "start": 3424
      },
      {
        "length": 32,
        "start": 3818
      }
    ]
  },
  "source": "// SPDX-License-Identifier: MIT\r\npragma solidity 0.8.10;\r\n\r\nimport { IUnoFarmTrisolarisStable as Farm } from \"../interfaces/IUnoFarmTrisolarisStable.sol\";\r\nimport \"../../../interfaces/IUnoFarmFactory.sol\";\r\nimport \"../../../interfaces/IUnoAccessManager.sol\";\r\nimport \"../../../interfaces/ISwap.sol\";\r\nimport '../../../interfaces/IWETH.sol';\r\nimport \"@openzeppelin/contracts-upgradeable/token/ERC20/IERC20Upgradeable.sol\";\r\nimport \"@openzeppelin/contracts-upgradeable/token/ERC20/utils/SafeERC20Upgradeable.sol\";\r\nimport \"@openzeppelin/contracts-upgradeable/proxy/utils/Initializable.sol\";\r\nimport \"@openzeppelin/contracts-upgradeable/security/PausableUpgradeable.sol\";\r\nimport \"@openzeppelin/contracts-upgradeable/proxy/utils/UUPSUpgradeable.sol\";\r\n\r\ncontract UnoAssetRouterTrisolarisStableV2 is Initializable, PausableUpgradeable, UUPSUpgradeable {\r\n    using SafeERC20Upgradeable for IERC20Upgradeable;\r\n\r\n    /**\r\n     * @dev Contract Variables:\r\n     * farmFactory - The contract that deploys new Farms and links them to {swap}s.\r\n     * accessManager - Role manager contract.\r\n     */\r\n    IUnoFarmFactory public farmFactory;\r\n    IUnoAccessManager public accessManager;\r\n\r\n    bytes32 private ADMIN_ROLE;\r\n    bytes32 private constant DISTRIBUTOR_ROLE = keccak256(\"DISTRIBUTOR_ROLE\");\r\n    bytes32 private constant PAUSER_ROLE = keccak256(\"PAUSER_ROLE\");\r\n\r\n    uint256 public fee;\r\n\r\n    address public constant WETH = 0xC9BdeEd33CD01541e1eeD10f90519d2C06Fe3feB;\r\n    address private constant OneInchRouter = 0x1111111254EEB25477B68fb85Ed929f73A960582;\r\n\r\n    uint256 public constant version = 2;\r\n\r\n    event Deposit(address indexed lpPool, address indexed sender, address indexed recipient, uint256 amount);\r\n    event Withdraw(address indexed lpPool, address indexed sender, address indexed recipient, uint256 amount);\r\n    event Distribute(address indexed lpPool, uint256 reward);\r\n\r\n    event FeeChanged(uint256 previousFee, uint256 newFee);\r\n\r\n    modifier onlyRole(bytes32 role){\r\n        require(accessManager.hasRole(role, msg.sender), 'CALLER_NOT_AUTHORIZED');\r\n        _;\r\n    }\r\n\r\n    // ============ Methods ============\r\n\r\n    /// @custom:oz-upgrades-unsafe-allow constructor\r\n    constructor() {\r\n        _disableInitializers();\r\n    }\r\n\r\n    function initialize(address _accessManager, address _farmFactory) external initializer {\r\n        require (_accessManager != address(0), 'BAD_ACCESS_MANAGER');\r\n        require (_farmFactory != address(0), 'BAD_FARM_FACTORY');\r\n\r\n        __Pausable_init();\r\n        accessManager = IUnoAccessManager(_accessManager);\r\n        farmFactory = IUnoFarmFactory(_farmFactory);\r\n\r\n        ADMIN_ROLE = accessManager.ADMIN_ROLE();\r\n    }\r\n\r\n    receive() external payable {\r\n        require(msg.sender == WETH, 'ONLY_ACCEPT_WETH'); // only accept ETH via fallback from the WETH contract\r\n    }\r\n\r\n    /**\r\n     * @dev Deposits tokens in the given pool. Creates new Farm contract if there isn't one deployed for the {swap} and deposits tokens in it. Emits a {Deposit} event.\r\n     * @param swap - Address of the Swap contract.\r\n     * @param amounts - Amounts of tokens to deposit.\r\n     * @param minAmountLP - Minimum LP the user will receive from {amounts} deposit.\r\n     * @param recipient - Address which will receive the deposit.\r\n\r\n     * @return liquidity - Total liquidity sent to the farm (in lpTokens).\r\n     */\r\n    function deposit(address swap, uint256[] memory amounts, uint256 minAmountLP, address recipient) external whenNotPaused returns (uint256 liquidity) {\r\n        IERC20[] memory tokens = getTokens(swap);\r\n        require(amounts.length == tokens.length, \"BAD_AMOUNTS_LENGTH\");\r\n        Farm farm = Farm(farmFactory.Farms(swap));\r\n        if (farm == Farm(address(0))) {\r\n            farm = Farm(farmFactory.createFarm(swap));\r\n        }\r\n\r\n        for (uint256 i = 0; i < amounts.length; i++) { \r\n            if (amounts[i] > 0) {\r\n                IERC20Upgradeable(farm.tokens(i)).safeTransferFrom(msg.sender, address(this), amounts[i]); \r\n            }\r\n        }\r\n \r\n        liquidity = _addLiquidity(swap, amounts, tokens, minAmountLP, farm);\r\n        farm.deposit(liquidity, recipient);\r\n\r\n        emit Deposit(swap, msg.sender, recipient, liquidity);\r\n    }\r\n\r\n    /**\r\n     * @dev Autoconverts ETH into WETH and deposits tokens in the given pool. Creates new Farm contract if there isn't one deployed for the {swap} and deposits tokens in it.\r\n     * @param swap - Address of the Swap contract.\r\n     * @param amounts - Amounts of tokens to deposit.\r\n     * @param minAmountLP - Minimum LP the user will receive from {amounts} deposit.\r\n     * @param recipient - Address which will receive the deposit.\r\n\r\n     * @return liquidity - Total liquidity sent to the farm (in lpTokens).\r\n     */\r\n    function depositETH(address swap, uint256[] memory amounts, uint256 minAmountLP, address recipient) external payable whenNotPaused returns(uint256 liquidity){\r\n        require(msg.value > 0, \"NO_ETH_SENT\");\r\n        IERC20[] memory tokens = getTokens(swap);\r\n        require(amounts.length == tokens.length, \"BAD_AMOUNTS_LENGTH\");\r\n\r\n        Farm farm = Farm(farmFactory.Farms(swap));\r\n        if (farm == Farm(address(0))) {\r\n            farm = Farm(farmFactory.createFarm(swap));\r\n        }\r\n\r\n        bool WETHInTokens;\r\n        IWETH(WETH).deposit{value: msg.value}();\r\n        for (uint256 i = 0; i < amounts.length; i++) {\r\n            address token = farm.tokens(i);\r\n            if(token == WETH){\r\n                amounts[i] = msg.value;\r\n                WETHInTokens = true;\r\n                continue;\r\n            }\r\n            if(amounts[i] > 0){\r\n                IERC20Upgradeable(token).safeTransferFrom(msg.sender, address(this), amounts[i]);\r\n            }\r\n        }\r\n        require(WETHInTokens, \"NOT_WETH_POOL\");\r\n        \r\n        liquidity = _addLiquidity(swap, amounts, tokens, minAmountLP, farm);\r\n        farm.deposit(liquidity, recipient);\r\n\r\n        emit Deposit(swap, msg.sender, recipient, liquidity); \r\n    }\r\n\r\n    /**\r\n     * @dev Deposits single token in the given pool. Creates new Farm contract if there isn't one deployed for the {swap}, swaps {token} for pool tokens and deposits them. Emits a {Deposit} event.\r\n     * @param swap - Address of the pool to deposit tokens in.\r\n     * @param token  - Address of a token to enter the pool.\r\n     * @param amount - Amount of token sent.\r\n     * @param swapData - Parameter with which 1inch router is being called with.\r\n     * @param minAmountLP - Minimum LP the user will receive from {tokens} deposit.\r\n     * @param recipient - Address which will receive the deposit.\r\n     \r\n     * @return sent - Total {token} amount sent to the farm. \r\n     * @return liquidity - Total liquidity sent to the farm (in lpTokens).\r\n     */\r\n    function depositSingleAsset(address swap, address token, uint256 amount, bytes[] calldata swapData, uint256 minAmountLP, address recipient) external whenNotPaused returns(uint256 sent, uint256 liquidity){\r\n        require (amount > 0, \"NO_TOKEN_SENT\");\r\n        IERC20[] memory tokens = getTokens(swap);\r\n        require (swapData.length == tokens.length, 'BAD_SWAP_DATA_LENGTH');\r\n        \r\n        Farm farm = Farm(farmFactory.Farms(swap));\r\n        if(farm == Farm(address(0))){\r\n            farm = Farm(farmFactory.createFarm(swap));\r\n        }\r\n\r\n        IERC20Upgradeable(token).safeTransferFrom(msg.sender, address(this), amount);\r\n        IERC20Upgradeable(token).approve(OneInchRouter, amount);\r\n\r\n        uint256[] memory amounts = new uint256[](tokens.length);\r\n        {\r\n        sent = amount;\r\n        int256 tokenIndex = -1;\r\n        for (uint256 i = 0; i < tokens.length; i++) {\r\n            if (address(tokens[i]) == token) {\r\n                tokenIndex = int(i);\r\n                continue;\r\n            }\r\n            (uint256 returnAmount, uint256 spentAmount) = _swap(swapData[i]);\r\n            amounts[i] = returnAmount;\r\n            amount -= spentAmount;\r\n        }\r\n\r\n        if (tokenIndex != -1) {\r\n            amounts[uint256(tokenIndex)] = amount;\r\n        } else if (amount > 0) {\r\n            sent -= amount;\r\n            IERC20Upgradeable(token).safeTransfer(msg.sender, amount);\r\n        }\r\n        }\r\n\r\n        liquidity = _addLiquidity(swap, amounts, tokens, minAmountLP, farm);\r\n        farm.deposit(liquidity, recipient);\r\n\r\n        emit Deposit(swap, msg.sender, recipient, liquidity);\r\n    }\r\n\r\n    /**\r\n     * @dev Deposits single MATIC in the given pool. Creates new Farm contract if there isn't one deployed for the {swap}, swaps MATIC for pool tokens and deposits them. Emits a {Deposit} event.\r\n     * @param swap - Address of the pool to deposit tokens in.\r\n     * @param swapData - Parameter with which 1inch router is being called with.\r\n     * @param minAmountLP - Minimum LP the user will receive from {tokens} deposit.\r\n     * @param recipient - Address which will receive the deposit.\r\n     \r\n     * @return sentETH - Total MATIC amount sent to the farm. \r\n     * @return liquidity - Total liquidity sent to the farm (in lpTokens).\r\n     */\r\n    function depositSingleETH(address swap, bytes[] calldata swapData, uint256 minAmountLP, address recipient) external payable whenNotPaused returns(uint256 sentETH, uint256 liquidity){\r\n        require (msg.value > 0, \"NO_MATIC_SENT\");\r\n        IERC20[] memory tokens = getTokens(swap);\r\n        require (swapData.length == tokens.length, 'BAD_SWAP_DATA_LENGTH');\r\n        \r\n        Farm farm = Farm(farmFactory.Farms(swap));\r\n        if(farm == Farm(address(0))){\r\n            farm = Farm(farmFactory.createFarm(swap));\r\n        }\r\n\r\n        uint256 amount = msg.value;\r\n        IWETH(WETH).deposit{value: amount}();\r\n        IERC20Upgradeable(WETH).approve(OneInchRouter, amount);\r\n\r\n        uint256[] memory amounts = new uint256[](tokens.length);\r\n        {\r\n        sentETH = amount;\r\n        int256 wmaticIndex = -1;\r\n        for (uint256 i = 0; i < tokens.length; i++) {\r\n            if (address(tokens[i]) == WETH) {\r\n                wmaticIndex = int(i);\r\n                continue;\r\n            }\r\n            (uint256 returnAmount, uint256 spentAmount) = _swap(swapData[i]);\r\n            if (returnAmount > 0) {\r\n                amounts[i] = returnAmount;\r\n            }\r\n            amount -= spentAmount;\r\n        }\r\n\r\n        if (wmaticIndex != -1) {\r\n            amounts[uint(wmaticIndex)] = amount;\r\n        } else if (amount > 0){\r\n            sentETH -= amount;\r\n            IWETH(WETH).withdraw(amount);\r\n            payable(msg.sender).transfer(amount);\r\n        }\r\n        }\r\n\r\n        liquidity = _addLiquidity(swap, amounts, tokens, minAmountLP, farm);\r\n        farm.deposit(liquidity, recipient);\r\n\r\n        emit Deposit(swap, msg.sender, recipient, liquidity);\r\n    }\r\n\r\n    /**\r\n     * @dev Deposits tokens in the given pool. Creates new Farm contract if there isn't one deployed for the {lpPair} and deposits tokens in it. Emits a {Deposit} event.\r\n     * @param swap - Address of the pool to deposit tokens in.\r\n     * @param amount - LP Token amount to deposit.\r\n     * @param recipient - Address which will receive the deposit.\r\n     */\r\n    function depositLP(address swap, uint256 amount, address recipient) external whenNotPaused{\r\n        require(amount > 0, \"NO_TOKEN_SENT\");\r\n        Farm farm = Farm(farmFactory.Farms(swap));\r\n        if(farm == Farm(address(0))){\r\n            farm = Farm(farmFactory.createFarm(swap));\r\n        }\r\n\r\n        IERC20Upgradeable(farm.lpPair()).safeTransferFrom(msg.sender, address(farm), amount);\r\n        farm.deposit(amount, recipient);\r\n\r\n        emit Deposit(swap, msg.sender, recipient, amount); \r\n    }\r\n\r\n    /** \r\n     * @dev Withdraws tokens from the given pool. Emits a {Withdraw} event.\r\n     * @param swap - Address of the Swap contract.\r\n     * @param amount - Amounts of LP tokens to withdraw.\r\n     * @param minAmounts - Minimum amounts of tokens sent to {recipient}.\r\n     * @param withdrawLP - Whether to withdraw or not to withdraw the deposits in LP tokens.\r\n     * @param recipient - The address which will receive tokens.\r\n\r\n     * @return amounts - Token amounts sent to {recipient}, an array of zeros if withdrawLP == false.\r\n     */\r\n    function withdraw(\r\n        address swap,\r\n        uint256 amount,\r\n        uint256[] calldata minAmounts,\r\n        bool withdrawLP,\r\n        address recipient\r\n    ) external returns (uint256[] memory amounts) {\r\n        Farm farm = Farm(farmFactory.Farms(swap));\r\n        require(farm != Farm(address(0)), \"FARM_NOT_EXISTS\");\r\n\r\n        amounts = farm.withdraw(amount, minAmounts, withdrawLP, msg.sender, recipient);\r\n        emit Withdraw(swap, msg.sender, recipient, amount);\r\n    }\r\n\r\n        /** \r\n     * @dev Autoconverts WETH into ETH and withdraws tokens from the given pool. \r\n     * @param swap - LP pool to withdraw from.\r\n     * @param amount - LP amount to withdraw. \r\n     * @param minAmountsOut - Minimum token amounts the user will receive.\r\n     * @param recipient - The address which will receive tokens.\r\n\r\n     * @return amounts - Token amounts sent to the {recipient}\r\n     */ \r\n    function withdrawETH(address swap, uint256 amount, uint256[] calldata minAmountsOut, address recipient) external returns(uint256[] memory amounts){ \r\n        Farm farm = Farm(farmFactory.Farms(swap));\r\n        require(farm != Farm(address(0)), \"FARM_NOT_EXISTS\");\r\n\r\n        amounts = farm.withdraw(amount, minAmountsOut, false, msg.sender, address(this));\r\n        for (uint256 i = 0; i < amounts.length; i++) {\r\n            address token = farm.tokens(i);\r\n            if (token != WETH) {\r\n                IERC20Upgradeable(token).safeTransfer(recipient, amounts[i]);\r\n                continue;\r\n            }\r\n            IWETH(WETH).withdraw(amounts[i]);\r\n            payable(recipient).transfer(amounts[i]);\r\n        } \r\n        emit Withdraw(swap, msg.sender, recipient, amount);  \r\n    }\r\n\r\n    /**\r\n     * @dev Distributes tokens between users.\r\n     * @param swap - Address of the Swap contract.\r\n\r\n     * @param rewardSwapInfos - Arrays of structs with token arrays describing swap routes from reward to tokens in {swap} and minimum amounts of output tokens that must be received for the transaction not to revert.\r\n     * @param rewarderSwapInfos - Arrays of structs with token arrays describing swap routes from rewarder to tokens in {swap} and minimum amounts of output tokens that must be received for the transaction not to revert.\r\n     * @param feeSwapInfos - Arrays of structs with token arrays describing swap routes (rewardTokenToFeeToken, rewarderTokenToFeeToken) and minimum amounts of output tokens that must be received for the transaction not to revert.\r\n     * @param feeTo - Address to collect fees to.\r\n     *\r\n     * Note: This function can only be called by the distributor.\r\n     */\r\n    function distribute(\r\n        address swap,\r\n        Farm.SwapInfo[] calldata rewardSwapInfos,\r\n        Farm.SwapInfo[] calldata rewarderSwapInfos,\r\n        Farm.SwapInfo[2] calldata feeSwapInfos,\r\n        address feeTo\r\n    ) external whenNotPaused onlyRole(DISTRIBUTOR_ROLE) {\r\n        Farm farm = Farm(farmFactory.Farms(swap));\r\n        require(farm != Farm(address(0)), \"FARM_NOT_EXISTS\");\r\n\r\n        uint256 reward = farm.distribute(\r\n            rewardSwapInfos,\r\n            rewarderSwapInfos,\r\n            feeSwapInfos,\r\n            Farm.FeeInfo(feeTo, fee)\r\n        );\r\n        emit Distribute(swap, reward);\r\n    }\r\n\r\n    /**\r\n     * @dev Returns tokens staked by the {_address} for the given {swap}.\r\n     * @param _address - The address to check stakes for.\r\n     * @param swap - Address of the Swap contract.\r\n\r\n     * @return stakeLP - Total user stake(in LP tokens).\r\n     */\r\n    function userStake(address _address, address swap) external view returns (uint256 stakeLP) {\r\n        Farm farm = Farm(farmFactory.Farms(swap));\r\n        if (farm != Farm(address(0))) {\r\n            stakeLP = farm.userBalance(_address);\r\n        }\r\n    }\r\n\r\n    /**\r\n     * @dev Returns total amount locked in the pool. Doesn't take pending rewards into account.\r\n     * @param swap - Address of the Swap contract.\r\n\r\n     * @return totalDepositsLP - Total deposits (in LP tokens).\r\n     */\r\n    function totalDeposits(address swap) external view returns (uint256 totalDepositsLP) {\r\n        Farm farm = Farm(farmFactory.Farms(swap));\r\n        if (farm != Farm(address(0))) {\r\n            totalDepositsLP = farm.getTotalDeposits();\r\n        }\r\n    }\r\n\r\n    /**\r\n     * @dev Deposits assets to router\r\n     */ \r\n    function _addLiquidity(\r\n        address swap,\r\n        uint256[] memory amounts, \r\n        IERC20[] memory tokens,\r\n        uint256 minAmountLP,\r\n        Farm farm\r\n    ) internal returns(uint256 liquidity){\r\n        bool joinPool;\r\n        for (uint256 i = 0; i < amounts.length; i++) {\r\n            if(amounts[i] > 0){\r\n                if(!joinPool){\r\n                    joinPool = true;\r\n                }\r\n                tokens[i].approve(address(swap), amounts[i]);\r\n            }\r\n        }\r\n        require (joinPool, 'NO_LIQUIDITY_PROVIDED');\r\n        liquidity = ISwap(swap).addLiquidity(amounts, minAmountLP, block.timestamp);\r\n        IERC20Upgradeable(farm.lpPair()).safeTransfer(address(farm), liquidity);\r\n    }\r\n\r\n    /**\r\n     * @dev Swaps assets using 1inch exchange.\r\n     */  \r\n    function _swap(bytes calldata swapData) internal returns(uint256 returnAmount, uint256 spentAmount){\r\n        (bool success, bytes memory data) = OneInchRouter.call(swapData);\r\n        require(success, \"SWAP_NOT_SUCCESSFUL\");\r\n        (returnAmount, spentAmount) = abi.decode(data, (uint256, uint256));\r\n    }\r\n\r\n    /**\r\n     * @dev Returns addresses of tokens in {swap}.\r\n     * @param swap - Swap to check tokens in.\r\n\r\n     * @return tokens - Array of token addresses.\r\n     */  \r\n    function getTokens(address swap) public view returns(IERC20[] memory tokens){\r\n        uint8 tokenCount;\r\n        address[] memory _tokens = new address[](type(uint8).max);\r\n        for (uint8 i = 0; i < type(uint8).max; i++) {\r\n            try ISwap(swap).getToken(i) returns (address token) {\r\n                _tokens[i] = token;\r\n                tokenCount++;\r\n            } catch (bytes memory /*lowLevelData*/) {\r\n                break;\r\n            }\r\n        }\r\n        require(tokenCount > 0, \"NO_TOKENS_IN_SWAP\");\r\n\r\n        tokens = new IERC20[](tokenCount);\r\n        for (uint8 i = 0; i < tokenCount; i++) {\r\n            tokens[i] = IERC20(_tokens[i]);\r\n        }\r\n        return tokens;\r\n    }\r\n\r\n    /**\r\n     * @dev Change fee amount.\r\n     * @param _fee -New fee to collect from farms. [10^18 == 100%]\r\n     *\r\n     * Note: This function can only be called by ADMIN_ROLE.\r\n     */ \r\n    function setFee(uint256 _fee) external onlyRole(ADMIN_ROLE){\r\n        require (_fee <= 1 ether, \"BAD_FEE\");\r\n        if(fee != _fee){\r\n            emit FeeChanged(fee, _fee); \r\n            fee = _fee;\r\n        }\r\n    }\r\n\r\n    function pause() external onlyRole(PAUSER_ROLE) {\r\n        _pause();\r\n    }\r\n\r\n    function unpause() external onlyRole(PAUSER_ROLE) {\r\n        _unpause();\r\n    }\r\n\r\n    function _authorizeUpgrade(address) internal override onlyRole(ADMIN_ROLE) {}\r\n}\r\n",
  "sourcePath": "C:\\Users\\jugli\\Desktop\\uno\\uno-contracts-aurora\\contracts\\apps\\trisolarisStable\\test\\UnoAssetRouterTrisolarisStableV2.sol",
  "compiler": {
    "name": "solc",
    "version": "0.8.10+commit.fc410830.Emscripten.clang"
  },
  "schemaVersion": "3.4.10",
  "updatedAt": "2022-12-22T16:36:31.931Z",
  "devdoc": {
    "kind": "dev",
    "methods": {
      "constructor": {
        "custom:oz-upgrades-unsafe-allow": "constructor"
      },
      "deposit(address,uint256[],uint256,address)": {
        "details": "Deposits tokens in the given pool. Creates new Farm contract if there isn't one deployed for the {swap} and deposits tokens in it. Emits a {Deposit} event.",
        "params": {
          "amounts": "- Amounts of tokens to deposit.",
          "minAmountLP": "- Minimum LP the user will receive from {amounts} deposit.",
          "recipient": "- Address which will receive the deposit.",
          "swap": "- Address of the Swap contract."
        },
        "returns": {
          "liquidity": "- Total liquidity sent to the farm (in lpTokens)."
        }
      },
      "depositETH(address,uint256[],uint256,address)": {
        "details": "Autoconverts ETH into WETH and deposits tokens in the given pool. Creates new Farm contract if there isn't one deployed for the {swap} and deposits tokens in it.",
        "params": {
          "amounts": "- Amounts of tokens to deposit.",
          "minAmountLP": "- Minimum LP the user will receive from {amounts} deposit.",
          "recipient": "- Address which will receive the deposit.",
          "swap": "- Address of the Swap contract."
        },
        "returns": {
          "liquidity": "- Total liquidity sent to the farm (in lpTokens)."
        }
      },
      "depositLP(address,uint256,address)": {
        "details": "Deposits tokens in the given pool. Creates new Farm contract if there isn't one deployed for the {lpPair} and deposits tokens in it. Emits a {Deposit} event.",
        "params": {
          "amount": "- LP Token amount to deposit.",
          "recipient": "- Address which will receive the deposit.",
          "swap": "- Address of the pool to deposit tokens in."
        }
      },
      "depositSingleAsset(address,address,uint256,bytes[],uint256,address)": {
        "details": "Deposits single token in the given pool. Creates new Farm contract if there isn't one deployed for the {swap}, swaps {token} for pool tokens and deposits them. Emits a {Deposit} event.",
        "params": {
          "amount": "- Amount of token sent.",
          "minAmountLP": "- Minimum LP the user will receive from {tokens} deposit.",
          "recipient": "- Address which will receive the deposit.",
          "swap": "- Address of the pool to deposit tokens in.",
          "swapData": "- Parameter with which 1inch router is being called with.",
          "token": "- Address of a token to enter the pool."
        },
        "returns": {
          "liquidity": "- Total liquidity sent to the farm (in lpTokens).",
          "sent": "- Total {token} amount sent to the farm. "
        }
      },
      "depositSingleETH(address,bytes[],uint256,address)": {
        "details": "Deposits single MATIC in the given pool. Creates new Farm contract if there isn't one deployed for the {swap}, swaps MATIC for pool tokens and deposits them. Emits a {Deposit} event.",
        "params": {
          "minAmountLP": "- Minimum LP the user will receive from {tokens} deposit.",
          "recipient": "- Address which will receive the deposit.",
          "swap": "- Address of the pool to deposit tokens in.",
          "swapData": "- Parameter with which 1inch router is being called with."
        },
        "returns": {
          "liquidity": "- Total liquidity sent to the farm (in lpTokens).",
          "sentETH": "- Total MATIC amount sent to the farm. "
        }
      },
      "distribute(address,(address[],uint256)[],(address[],uint256)[],(address[],uint256)[2],address)": {
        "details": "Distributes tokens between users.",
        "params": {
          "feeSwapInfos": "- Arrays of structs with token arrays describing swap routes (rewardTokenToFeeToken, rewarderTokenToFeeToken) and minimum amounts of output tokens that must be received for the transaction not to revert.",
          "feeTo": "- Address to collect fees to. Note: This function can only be called by the distributor.",
          "rewardSwapInfos": "- Arrays of structs with token arrays describing swap routes from reward to tokens in {swap} and minimum amounts of output tokens that must be received for the transaction not to revert.",
          "rewarderSwapInfos": "- Arrays of structs with token arrays describing swap routes from rewarder to tokens in {swap} and minimum amounts of output tokens that must be received for the transaction not to revert.",
          "swap": "- Address of the Swap contract."
        }
      },
      "getTokens(address)": {
        "details": "Returns addresses of tokens in {swap}.",
        "params": {
          "swap": "- Swap to check tokens in."
        },
        "returns": {
          "tokens": "- Array of token addresses."
        }
      },
      "paused()": {
        "details": "Returns true if the contract is paused, and false otherwise."
      },
      "proxiableUUID()": {
        "details": "Implementation of the ERC1822 {proxiableUUID} function. This returns the storage slot used by the implementation. It is used to validate that the this implementation remains valid after an upgrade. IMPORTANT: A proxy pointing at a proxiable contract should not be considered proxiable itself, because this risks bricking a proxy that upgrades to it, by delegating to itself until out of gas. Thus it is critical that this function revert if invoked through a proxy. This is guaranteed by the `notDelegated` modifier."
      },
      "setFee(uint256)": {
        "details": "Change fee amount.",
        "params": {
          "_fee": "-New fee to collect from farms. [10^18 == 100%] Note: This function can only be called by ADMIN_ROLE."
        }
      },
      "totalDeposits(address)": {
        "details": "Returns total amount locked in the pool. Doesn't take pending rewards into account.",
        "params": {
          "swap": "- Address of the Swap contract."
        },
        "returns": {
          "totalDepositsLP": "- Total deposits (in LP tokens)."
        }
      },
      "upgradeTo(address)": {
        "details": "Upgrade the implementation of the proxy to `newImplementation`. Calls {_authorizeUpgrade}. Emits an {Upgraded} event."
      },
      "upgradeToAndCall(address,bytes)": {
        "details": "Upgrade the implementation of the proxy to `newImplementation`, and subsequently execute the function call encoded in `data`. Calls {_authorizeUpgrade}. Emits an {Upgraded} event."
      },
      "userStake(address,address)": {
        "details": "Returns tokens staked by the {_address} for the given {swap}.",
        "params": {
          "_address": "- The address to check stakes for.",
          "swap": "- Address of the Swap contract."
        },
        "returns": {
          "stakeLP": "- Total user stake(in LP tokens)."
        }
      },
      "withdraw(address,uint256,uint256[],bool,address)": {
        "details": "Withdraws tokens from the given pool. Emits a {Withdraw} event.",
        "params": {
          "amount": "- Amounts of LP tokens to withdraw.",
          "minAmounts": "- Minimum amounts of tokens sent to {recipient}.",
          "recipient": "- The address which will receive tokens.",
          "swap": "- Address of the Swap contract.",
          "withdrawLP": "- Whether to withdraw or not to withdraw the deposits in LP tokens."
        },
        "returns": {
          "amounts": "- Token amounts sent to {recipient}, an array of zeros if withdrawLP == false."
        }
      },
      "withdrawETH(address,uint256,uint256[],address)": {
        "details": "Autoconverts WETH into ETH and withdraws tokens from the given pool. ",
        "params": {
          "amount": "- LP amount to withdraw. ",
          "minAmountsOut": "- Minimum token amounts the user will receive.",
          "recipient": "- The address which will receive tokens.",
          "swap": "- LP pool to withdraw from."
        },
        "returns": {
          "amounts": "- Token amounts sent to the {recipient}"
        }
      }
    },
    "stateVariables": {
      "farmFactory": {
        "details": "Contract Variables: farmFactory - The contract that deploys new Farms and links them to {swap}s. accessManager - Role manager contract."
      }
    },
    "version": 1
  },
  "userdoc": {
    "kind": "user",
    "methods": {},
    "version": 1
  }
}