{
  "contractName": "UnoAssetRouterApeswap",
  "abi": [
    {
      "inputs": [],
      "stateMutability": "nonpayable",
      "type": "constructor"
    },
    {
      "anonymous": false,
      "inputs": [
        {
          "indexed": false,
          "internalType": "address",
          "name": "previousAdmin",
          "type": "address"
        },
        {
          "indexed": false,
          "internalType": "address",
          "name": "newAdmin",
          "type": "address"
        }
      ],
      "name": "AdminChanged",
      "type": "event"
    },
    {
      "anonymous": false,
      "inputs": [
        {
          "indexed": true,
          "internalType": "address",
          "name": "beacon",
          "type": "address"
        }
      ],
      "name": "BeaconUpgraded",
      "type": "event"
    },
    {
      "anonymous": false,
      "inputs": [
        {
          "indexed": true,
          "internalType": "address",
          "name": "lpPool",
          "type": "address"
        },
        {
          "indexed": true,
          "internalType": "address",
          "name": "sender",
          "type": "address"
        },
        {
          "indexed": true,
          "internalType": "address",
          "name": "recipient",
          "type": "address"
        },
        {
          "indexed": false,
          "internalType": "uint256",
          "name": "amount",
          "type": "uint256"
        }
      ],
      "name": "Deposit",
      "type": "event"
    },
    {
      "anonymous": false,
      "inputs": [
        {
          "indexed": true,
          "internalType": "address",
          "name": "lpPool",
          "type": "address"
        },
        {
          "indexed": false,
          "internalType": "uint256",
          "name": "reward",
          "type": "uint256"
        }
      ],
      "name": "Distribute",
      "type": "event"
    },
    {
      "anonymous": false,
      "inputs": [
        {
          "indexed": false,
          "internalType": "uint256",
          "name": "previousFee",
          "type": "uint256"
        },
        {
          "indexed": false,
          "internalType": "uint256",
          "name": "newFee",
          "type": "uint256"
        }
      ],
      "name": "FeeChanged",
      "type": "event"
    },
    {
      "anonymous": false,
      "inputs": [
        {
          "indexed": false,
          "internalType": "uint8",
          "name": "version",
          "type": "uint8"
        }
      ],
      "name": "Initialized",
      "type": "event"
    },
    {
      "anonymous": false,
      "inputs": [
        {
          "indexed": false,
          "internalType": "address",
          "name": "account",
          "type": "address"
        }
      ],
      "name": "Paused",
      "type": "event"
    },
    {
      "anonymous": false,
      "inputs": [
        {
          "indexed": false,
          "internalType": "address",
          "name": "account",
          "type": "address"
        }
      ],
      "name": "Unpaused",
      "type": "event"
    },
    {
      "anonymous": false,
      "inputs": [
        {
          "indexed": true,
          "internalType": "address",
          "name": "implementation",
          "type": "address"
        }
      ],
      "name": "Upgraded",
      "type": "event"
    },
    {
      "anonymous": false,
      "inputs": [
        {
          "indexed": true,
          "internalType": "address",
          "name": "lpPool",
          "type": "address"
        },
        {
          "indexed": true,
          "internalType": "address",
          "name": "sender",
          "type": "address"
        },
        {
          "indexed": true,
          "internalType": "address",
          "name": "recipient",
          "type": "address"
        },
        {
          "indexed": false,
          "internalType": "uint256",
          "name": "amount",
          "type": "uint256"
        }
      ],
      "name": "Withdraw",
      "type": "event"
    },
    {
      "inputs": [],
      "name": "ApeswapRouter",
      "outputs": [
        {
          "internalType": "contract IUniswapV2Router01",
          "name": "",
          "type": "address"
        }
      ],
      "stateMutability": "view",
      "type": "function"
    },
    {
      "inputs": [],
      "name": "WBNB",
      "outputs": [
        {
          "internalType": "address",
          "name": "",
          "type": "address"
        }
      ],
      "stateMutability": "view",
      "type": "function"
    },
    {
      "inputs": [],
      "name": "accessManager",
      "outputs": [
        {
          "internalType": "contract IUnoAccessManager",
          "name": "",
          "type": "address"
        }
      ],
      "stateMutability": "view",
      "type": "function"
    },
    {
      "inputs": [],
      "name": "farmFactory",
      "outputs": [
        {
          "internalType": "contract IUnoFarmFactory",
          "name": "",
          "type": "address"
        }
      ],
      "stateMutability": "view",
      "type": "function"
    },
    {
      "inputs": [],
      "name": "fee",
      "outputs": [
        {
          "internalType": "uint256",
          "name": "",
          "type": "uint256"
        }
      ],
      "stateMutability": "view",
      "type": "function"
    },
    {
      "inputs": [],
      "name": "paused",
      "outputs": [
        {
          "internalType": "bool",
          "name": "",
          "type": "bool"
        }
      ],
      "stateMutability": "view",
      "type": "function"
    },
    {
      "inputs": [],
      "name": "proxiableUUID",
      "outputs": [
        {
          "internalType": "bytes32",
          "name": "",
          "type": "bytes32"
        }
      ],
      "stateMutability": "view",
      "type": "function"
    },
    {
      "inputs": [
        {
          "internalType": "address",
          "name": "newImplementation",
          "type": "address"
        }
      ],
      "name": "upgradeTo",
      "outputs": [],
      "stateMutability": "nonpayable",
      "type": "function"
    },
    {
      "inputs": [
        {
          "internalType": "address",
          "name": "newImplementation",
          "type": "address"
        },
        {
          "internalType": "bytes",
          "name": "data",
          "type": "bytes"
        }
      ],
      "name": "upgradeToAndCall",
      "outputs": [],
      "stateMutability": "payable",
      "type": "function"
    },
    {
      "stateMutability": "payable",
      "type": "receive"
    },
    {
      "inputs": [
        {
          "internalType": "address",
          "name": "_accessManager",
          "type": "address"
        },
        {
          "internalType": "address",
          "name": "_farmFactory",
          "type": "address"
        }
      ],
      "name": "initialize",
      "outputs": [],
      "stateMutability": "nonpayable",
      "type": "function"
    },
    {
      "inputs": [
        {
          "internalType": "address",
          "name": "lpPair",
          "type": "address"
        },
        {
          "internalType": "uint256",
          "name": "amountA",
          "type": "uint256"
        },
        {
          "internalType": "uint256",
          "name": "amountB",
          "type": "uint256"
        },
        {
          "internalType": "uint256",
          "name": "amountAMin",
          "type": "uint256"
        },
        {
          "internalType": "uint256",
          "name": "amountBMin",
          "type": "uint256"
        },
        {
          "internalType": "address",
          "name": "recipient",
          "type": "address"
        }
      ],
      "name": "deposit",
      "outputs": [
        {
          "internalType": "uint256",
          "name": "sentA",
          "type": "uint256"
        },
        {
          "internalType": "uint256",
          "name": "sentB",
          "type": "uint256"
        },
        {
          "internalType": "uint256",
          "name": "liquidity",
          "type": "uint256"
        }
      ],
      "stateMutability": "nonpayable",
      "type": "function"
    },
    {
      "inputs": [
        {
          "internalType": "address",
          "name": "lpPair",
          "type": "address"
        },
        {
          "internalType": "uint256",
          "name": "amountToken",
          "type": "uint256"
        },
        {
          "internalType": "uint256",
          "name": "amountTokenMin",
          "type": "uint256"
        },
        {
          "internalType": "uint256",
          "name": "amountETHMin",
          "type": "uint256"
        },
        {
          "internalType": "address",
          "name": "recipient",
          "type": "address"
        }
      ],
      "name": "depositETH",
      "outputs": [
        {
          "internalType": "uint256",
          "name": "sentToken",
          "type": "uint256"
        },
        {
          "internalType": "uint256",
          "name": "sentETH",
          "type": "uint256"
        },
        {
          "internalType": "uint256",
          "name": "liquidity",
          "type": "uint256"
        }
      ],
      "stateMutability": "payable",
      "type": "function"
    },
    {
      "inputs": [
        {
          "internalType": "address",
          "name": "lpPair",
          "type": "address"
        },
        {
          "internalType": "address",
          "name": "token",
          "type": "address"
        },
        {
          "internalType": "uint256",
          "name": "amount",
          "type": "uint256"
        },
        {
          "internalType": "bytes[2]",
          "name": "swapData",
          "type": "bytes[2]"
        },
        {
          "internalType": "uint256",
          "name": "amountAMin",
          "type": "uint256"
        },
        {
          "internalType": "uint256",
          "name": "amountBMin",
          "type": "uint256"
        },
        {
          "internalType": "address",
          "name": "recipient",
          "type": "address"
        }
      ],
      "name": "depositSingleAsset",
      "outputs": [
        {
          "internalType": "uint256",
          "name": "sent",
          "type": "uint256"
        },
        {
          "internalType": "uint256",
          "name": "liquidity",
          "type": "uint256"
        }
      ],
      "stateMutability": "nonpayable",
      "type": "function"
    },
    {
      "inputs": [
        {
          "internalType": "address",
          "name": "lpPair",
          "type": "address"
        },
        {
          "internalType": "bytes[2]",
          "name": "swapData",
          "type": "bytes[2]"
        },
        {
          "internalType": "uint256",
          "name": "amountAMin",
          "type": "uint256"
        },
        {
          "internalType": "uint256",
          "name": "amountBMin",
          "type": "uint256"
        },
        {
          "internalType": "address",
          "name": "recipient",
          "type": "address"
        }
      ],
      "name": "depositSingleETH",
      "outputs": [
        {
          "internalType": "uint256",
          "name": "sentETH",
          "type": "uint256"
        },
        {
          "internalType": "uint256",
          "name": "liquidity",
          "type": "uint256"
        }
      ],
      "stateMutability": "payable",
      "type": "function"
    },
    {
      "inputs": [
        {
          "internalType": "address",
          "name": "lpPair",
          "type": "address"
        },
        {
          "internalType": "uint256",
          "name": "amount",
          "type": "uint256"
        },
        {
          "internalType": "address",
          "name": "recipient",
          "type": "address"
        }
      ],
      "name": "depositLP",
      "outputs": [],
      "stateMutability": "nonpayable",
      "type": "function"
    },
    {
      "inputs": [
        {
          "internalType": "address",
          "name": "lpPair",
          "type": "address"
        },
        {
          "internalType": "uint256",
          "name": "amount",
          "type": "uint256"
        },
        {
          "internalType": "uint256",
          "name": "amountAMin",
          "type": "uint256"
        },
        {
          "internalType": "uint256",
          "name": "amountBMin",
          "type": "uint256"
        },
        {
          "internalType": "address",
          "name": "recipient",
          "type": "address"
        }
      ],
      "name": "withdraw",
      "outputs": [
        {
          "internalType": "uint256",
          "name": "amountA",
          "type": "uint256"
        },
        {
          "internalType": "uint256",
          "name": "amountB",
          "type": "uint256"
        }
      ],
      "stateMutability": "nonpayable",
      "type": "function"
    },
    {
      "inputs": [
        {
          "internalType": "address",
          "name": "lpPair",
          "type": "address"
        },
        {
          "internalType": "uint256",
          "name": "amount",
          "type": "uint256"
        },
        {
          "internalType": "uint256",
          "name": "amountTokenMin",
          "type": "uint256"
        },
        {
          "internalType": "uint256",
          "name": "amountETHMin",
          "type": "uint256"
        },
        {
          "internalType": "address",
          "name": "recipient",
          "type": "address"
        }
      ],
      "name": "withdrawETH",
      "outputs": [
        {
          "internalType": "uint256",
          "name": "amountToken",
          "type": "uint256"
        },
        {
          "internalType": "uint256",
          "name": "amountETH",
          "type": "uint256"
        }
      ],
      "stateMutability": "nonpayable",
      "type": "function"
    },
    {
      "inputs": [
        {
          "internalType": "address",
          "name": "lpPair",
          "type": "address"
        },
        {
          "internalType": "uint256",
          "name": "amount",
          "type": "uint256"
        },
        {
          "internalType": "address",
          "name": "token",
          "type": "address"
        },
        {
          "internalType": "bytes[2]",
          "name": "swapData",
          "type": "bytes[2]"
        },
        {
          "internalType": "address",
          "name": "recipient",
          "type": "address"
        }
      ],
      "name": "withdrawSingleAsset",
      "outputs": [
        {
          "internalType": "uint256",
          "name": "amountToken",
          "type": "uint256"
        },
        {
          "internalType": "uint256",
          "name": "amountA",
          "type": "uint256"
        },
        {
          "internalType": "uint256",
          "name": "amountB",
          "type": "uint256"
        }
      ],
      "stateMutability": "nonpayable",
      "type": "function"
    },
    {
      "inputs": [
        {
          "internalType": "address",
          "name": "lpPair",
          "type": "address"
        },
        {
          "internalType": "uint256",
          "name": "amount",
          "type": "uint256"
        },
        {
          "internalType": "bytes[2]",
          "name": "swapData",
          "type": "bytes[2]"
        },
        {
          "internalType": "address",
          "name": "recipient",
          "type": "address"
        }
      ],
      "name": "withdrawSingleETH",
      "outputs": [
        {
          "internalType": "uint256",
          "name": "amountETH",
          "type": "uint256"
        },
        {
          "internalType": "uint256",
          "name": "amountA",
          "type": "uint256"
        },
        {
          "internalType": "uint256",
          "name": "amountB",
          "type": "uint256"
        }
      ],
      "stateMutability": "nonpayable",
      "type": "function"
    },
    {
      "inputs": [
        {
          "internalType": "address",
          "name": "lpPair",
          "type": "address"
        },
        {
          "internalType": "uint256",
          "name": "amount",
          "type": "uint256"
        },
        {
          "internalType": "address",
          "name": "recipient",
          "type": "address"
        }
      ],
      "name": "withdrawLP",
      "outputs": [],
      "stateMutability": "nonpayable",
      "type": "function"
    },
    {
      "inputs": [
        {
          "internalType": "address",
          "name": "lpPair",
          "type": "address"
        },
        {
          "components": [
            {
              "internalType": "address[]",
              "name": "route",
              "type": "address[]"
            },
            {
              "internalType": "uint256",
              "name": "amountOutMin",
              "type": "uint256"
            }
          ],
          "internalType": "struct IUnoFarmApeswap.SwapInfo[2]",
          "name": "swapInfos",
          "type": "tuple[2]"
        },
        {
          "components": [
            {
              "internalType": "address[]",
              "name": "route",
              "type": "address[]"
            },
            {
              "internalType": "uint256",
              "name": "amountOutMin",
              "type": "uint256"
            }
          ],
          "internalType": "struct IUnoFarmApeswap.SwapInfo",
          "name": "feeSwapInfo",
          "type": "tuple"
        },
        {
          "internalType": "address",
          "name": "feeTo",
          "type": "address"
        }
      ],
      "name": "distribute",
      "outputs": [],
      "stateMutability": "nonpayable",
      "type": "function"
    },
    {
      "inputs": [
        {
          "internalType": "address",
          "name": "_address",
          "type": "address"
        },
        {
          "internalType": "address",
          "name": "lpPair",
          "type": "address"
        }
      ],
      "name": "userStake",
      "outputs": [
        {
          "internalType": "uint256",
          "name": "stakeLP",
          "type": "uint256"
        },
        {
          "internalType": "uint256",
          "name": "stakeA",
          "type": "uint256"
        },
        {
          "internalType": "uint256",
          "name": "stakeB",
          "type": "uint256"
        }
      ],
      "stateMutability": "view",
      "type": "function"
    },
    {
      "inputs": [
        {
          "internalType": "address",
          "name": "lpPair",
          "type": "address"
        }
      ],
      "name": "totalDeposits",
      "outputs": [
        {
          "internalType": "uint256",
          "name": "totalDepositsLP",
          "type": "uint256"
        },
        {
          "internalType": "uint256",
          "name": "totalDepositsA",
          "type": "uint256"
        },
        {
          "internalType": "uint256",
          "name": "totalDepositsB",
          "type": "uint256"
        }
      ],
      "stateMutability": "view",
      "type": "function"
    },
    {
      "inputs": [
        {
          "internalType": "address",
          "name": "lpPair",
          "type": "address"
        }
      ],
      "name": "getTokens",
      "outputs": [
        {
          "internalType": "contract IBEP20[]",
          "name": "tokens",
          "type": "address[]"
        }
      ],
      "stateMutability": "view",
      "type": "function"
    },
    {
      "inputs": [
        {
          "internalType": "uint256",
          "name": "_fee",
          "type": "uint256"
        }
      ],
      "name": "setFee",
      "outputs": [],
      "stateMutability": "nonpayable",
      "type": "function"
    },
    {
      "inputs": [],
      "name": "pause",
      "outputs": [],
      "stateMutability": "nonpayable",
      "type": "function"
    },
    {
      "inputs": [],
      "name": "unpause",
      "outputs": [],
      "stateMutability": "nonpayable",
      "type": "function"
    }
  ],
  "bytecode": "0x60a0604052306080523480156200001557600080fd5b506200002062000026565b62000156565b6200003260ff62000035565b50565b60008054610100900460ff1615620000ce578160ff1660011480156200006e57506200006c306200014760201b620033c11760201c565b155b620000c65760405162461bcd60e51b815260206004820152602e60248201526000805160206200548e83398151915260448201526d191e481a5b9a5d1a585b1a5e995960921b60648201526084015b60405180910390fd5b506000919050565b60005460ff8084169116106200012d5760405162461bcd60e51b815260206004820152602e60248201526000805160206200548e83398151915260448201526d191e481a5b9a5d1a585b1a5e995960921b6064820152608401620000bd565b506000805460ff191660ff92909216919091179055600190565b6001600160a01b03163b151590565b6080516153006200018e600039600081816109f701528181610a370152818161124f0152818161128f015261142c01526153006000f3fe6080604052600436106101a05760003560e01c806369fe0e2d116100ec578063d84ff8421161008a578063e50e637111610064578063e50e63711461052f578063e94032561461054f578063fdcb60681461056f578063fefa40941461058f57600080fd5b8063d84ff842146104d9578063ddca3f43146104f9578063deb03f4d1461050f57600080fd5b80637d795628116100c65780637d7956281461046f5780638456cb59146104825780638dd9500214610497578063a475626c146104b957600080fd5b806369fe0e2d146103fa5780636c2b55171461041a5780636d25e1751461044f57600080fd5b8063494ecced1161015957806351bdca3e1161013357806351bdca3e1461037457806352d1902d146103945780635c975abb146103b75780636505e65e146103da57600080fd5b8063494ecced146103015780634e816aa8146103415780634f1ef2861461036157600080fd5b80632f2255cc1461021f5780633659cfe61461025f5780633f4ba83a1461027f578063450efe211461029457806346dafa2f146102c1578063485cc955146102e157600080fd5b3661021a573360008051602061522483398151915214806101d457503373cf0febd3f17cef5b47b0cd257acf6025c5bff3b7145b6102185760405162461bcd60e51b815260206004820152601060248201526f27a7262cafa0a1a1a2a82a2faba1272160811b60448201526064015b60405180910390fd5b005b600080fd5b34801561022b57600080fd5b5061023f61023a36600461476b565b6105a2565b604080519384526020840192909252908201526060015b60405180910390f35b34801561026b57600080fd5b5061021861027a3660046147ec565b6109ec565b34801561028b57600080fd5b50610218610acc565b3480156102a057600080fd5b506102b46102af3660046147ec565b610b83565b6040516102569190614809565b3480156102cd57600080fd5b506102186102dc366004614856565b610cd2565b3480156102ed57600080fd5b506102186102fc366004614898565b610ec8565b34801561030d57600080fd5b5061032973cf0febd3f17cef5b47b0cd257acf6025c5bff3b781565b6040516001600160a01b039091168152602001610256565b34801561034d57600080fd5b5061021861035c3660046148d1565b611003565b61021861036f366004614975565b611244565b34801561038057600080fd5b5061023f61038f366004614898565b611315565b3480156103a057600080fd5b506103a961141f565b604051908152602001610256565b3480156103c357600080fd5b5060335460ff166040519015158152602001610256565b3480156103e657600080fd5b5061023f6103f5366004614a39565b6114d2565b34801561040657600080fd5b50610218610415366004614a97565b6117e1565b34801561042657600080fd5b5061043a610435366004614ab0565b611974565b60408051928352602083019190915201610256565b34801561045b57600080fd5b5060c954610329906001600160a01b031681565b61043a61047d366004614b44565b611e1e565b34801561048e57600080fd5b506102186123a7565b3480156104a357600080fd5b5061032960008051602061522483398151915281565b3480156104c557600080fd5b5061023f6104d4366004614bae565b61245e565b3480156104e557600080fd5b5061043a6104f4366004614c0f565b612947565b34801561050557600080fd5b506103a960cb5481565b34801561051b57600080fd5b5061043a61052a366004614c0f565b612b59565b34801561053b57600080fd5b5061021861054a366004614856565b612e13565b34801561055b57600080fd5b5061023f61056a3660046147ec565b612f49565b34801561057b57600080fd5b5060ca54610329906001600160a01b031681565b61023f61059d366004614c0f565b61304b565b60c95460405163f9d9331d60e01b81526001600160a01b038781166004830152600092839283928392169063f9d9331d90602401602060405180830381865afa1580156105f3573d6000803e3d6000fd5b505050506040513d601f19601f820116820180604052508101906106179190614c57565b90506001600160a01b03811661063f5760405162461bcd60e51b815260040161020f90614c74565b604051632d182be560e21b81526001600160a01b0382169063b460af949061066f908b9033903090600401614c9d565b600060405180830381600087803b15801561068957600080fd5b505af115801561069d573d6000803e3d6000fd5b505050506000816001600160a01b0316630fc63d106040518163ffffffff1660e01b8152600401602060405180830381865afa1580156106e1573d6000803e3d6000fd5b505050506040513d601f19601f820116820180604052508101906107059190614c57565b90506000826001600160a01b0316635f64b55b6040518163ffffffff1660e01b8152600401602060405180830381865afa158015610747573d6000803e3d6000fd5b505050506040513d601f19601f8201168201806040525081019061076b9190614c57565b905061077d8b83838d600080306133d0565b90955093506001600160a01b03828116908a16146108785760405163095ea7b360e01b81526001600160a01b0383169063095ea7b3906107d790731111111254eeb25477b68fb85ed929f73a960582908990600401614cbc565b6020604051808303816000875af11580156107f6573d6000803e3d6000fd5b505050506040513d601f19601f8201168201806040525081019061081a9190614cd5565b5060008061083a8a825b6020028101906108349190614d0d565b8d613511565b90925090506108498289614d71565b97506108558188614d89565b96508615610871576108716001600160a01b0385168a8961371b565b5050610889565b6108828587614d71565b9550600094505b886001600160a01b0316816001600160a01b0316146109745760405163095ea7b360e01b81526001600160a01b0382169063095ea7b3906108e490731111111254eeb25477b68fb85ed929f73a960582908890600401614cbc565b6020604051808303816000875af1158015610903573d6000803e3d6000fd5b505050506040513d601f19601f820116820180604052508101906109279190614cd5565b506000806109368a6001610824565b90925090506109458289614d71565b97506109518187614d89565b9550851561096d5761096d6001600160a01b0384168a8861371b565b5050610985565b61097e8487614d71565b9550600093505b6109996001600160a01b038a16888861371b565b866001600160a01b0316336001600160a01b03168c6001600160a01b03166000805160206152448339815191528d6040516109d691815260200190565b60405180910390a4505050955095509592505050565b306001600160a01b037f0000000000000000000000000000000000000000000000000000000000000000161415610a355760405162461bcd60e51b815260040161020f90614da0565b7f00000000000000000000000000000000000000000000000000000000000000006001600160a01b0316610a7e600080516020615264833981519152546001600160a01b031690565b6001600160a01b031614610aa45760405162461bcd60e51b815260040161020f90614dec565b610aad81613771565b60408051600080825260208201909252610ac991839190613877565b50565b60ca54604051632474521560e21b81527f65d7a28e3265b37a6474929f336521b332c1681b933f6cb9f3376673440d862a60048201819052336024830152916001600160a01b0316906391d1485490604401602060405180830381865afa158015610b3b573d6000803e3d6000fd5b505050506040513d601f19601f82011682018060405250810190610b5f9190614cd5565b610b7b5760405162461bcd60e51b815260040161020f90614e38565b610ac96139e2565b6040805160028082526060808301845292602083019080368337019050509050816001600160a01b0316630dfe16816040518163ffffffff1660e01b8152600401602060405180830381865afa158015610be1573d6000803e3d6000fd5b505050506040513d601f19601f82011682018060405250810190610c059190614c57565b81600081518110610c1857610c18614cf7565b60200260200101906001600160a01b031690816001600160a01b031681525050816001600160a01b031663d21220a76040518163ffffffff1660e01b8152600401602060405180830381865afa158015610c76573d6000803e3d6000fd5b505050506040513d601f19601f82011682018060405250810190610c9a9190614c57565b81600181518110610cad57610cad614cf7565b60200260200101906001600160a01b031690816001600160a01b031681525050919050565b60335460ff1615610cf55760405162461bcd60e51b815260040161020f90614e67565b60008211610d155760405162461bcd60e51b815260040161020f90614e91565b60c95460405163f9d9331d60e01b81526001600160a01b038581166004830152600092169063f9d9331d90602401602060405180830381865afa158015610d60573d6000803e3d6000fd5b505050506040513d601f19601f82011682018060405250810190610d849190614c57565b90506001600160a01b038116610e065760c954604051621849e360e61b81526001600160a01b0386811660048301529091169063061278c0906024016020604051808303816000875af1158015610ddf573d6000803e3d6000fd5b505050506040513d601f19601f82011682018060405250810190610e039190614c57565b90505b610e1b6001600160a01b038516338386613a75565b604051636e553f6560e01b8152600481018490526001600160a01b038381166024830152821690636e553f6590604401600060405180830381600087803b158015610e6557600080fd5b505af1158015610e79573d6000803e3d6000fd5b50505050816001600160a01b0316336001600160a01b0316856001600160a01b031660008051602061528483398151915286604051610eba91815260200190565b60405180910390a450505050565b6000610ed46001613ab3565b90508015610eec576000805461ff0019166101001790555b6001600160a01b038316610f375760405162461bcd60e51b81526020600482015260126024820152712120a22fa0a1a1a2a9a9afa6a0a720a3a2a960711b604482015260640161020f565b6001600160a01b038216610f805760405162461bcd60e51b815260206004820152601060248201526f4241445f4641524d5f464143544f525960801b604482015260640161020f565b610f88613b3b565b60ca80546001600160a01b038086166001600160a01b03199283161790925560c98054928516929091169190911790558015610ffe576000805461ff0019169055604051600181527f7f26b83ff96e1f2b6a682f133852f6798a09c465da95921460cefb38474024989060200160405180910390a15b505050565b60335460ff16156110265760405162461bcd60e51b815260040161020f90614e67565b60ca54604051632474521560e21b81527ffbd454f36a7e1a388bd6fc3ab10d434aa4578f811acbbcf33afb1c697486313c60048201819052336024830152916001600160a01b0316906391d1485490604401602060405180830381865afa158015611095573d6000803e3d6000fd5b505050506040513d601f19601f820116820180604052508101906110b99190614cd5565b6110d55760405162461bcd60e51b815260040161020f90614e38565b60c95460405163f9d9331d60e01b81526001600160a01b038781166004830152600092169063f9d9331d90602401602060405180830381865afa158015611120573d6000803e3d6000fd5b505050506040513d601f19601f820116820180604052508101906111449190614c57565b90506001600160a01b03811661116c5760405162461bcd60e51b815260040161020f90614c74565b6040805180820182526001600160a01b03858116825260cb54602083015291516336eeb1dd60e01b81526000928416916336eeb1dd916111b3918a918a9190600401614f57565b6020604051808303816000875af11580156111d2573d6000803e3d6000fd5b505050506040513d601f19601f820116820180604052508101906111f69190614ff0565b9050866001600160a01b03167fc1d32ad5cca423e7dda2123dbf8c482f8e77d00b631c06e903a47f2cec1334df8260405161123391815260200190565b60405180910390a250505050505050565b306001600160a01b037f000000000000000000000000000000000000000000000000000000000000000016141561128d5760405162461bcd60e51b815260040161020f90614da0565b7f00000000000000000000000000000000000000000000000000000000000000006001600160a01b03166112d6600080516020615264833981519152546001600160a01b031690565b6001600160a01b0316146112fc5760405162461bcd60e51b815260040161020f90614dec565b61130582613771565b61131182826001613877565b5050565b60c95460405163f9d9331d60e01b81526001600160a01b038381166004830152600092839283928392169063f9d9331d90602401602060405180830381865afa158015611366573d6000803e3d6000fd5b505050506040513d601f19601f8201168201806040525081019061138a9190614c57565b90506001600160a01b0381161561141757604051630103c92b60e01b81526001600160a01b038781166004830152821690630103c92b90602401602060405180830381865afa1580156113e1573d6000803e3d6000fd5b505050506040513d601f19601f820116820180604052508101906114059190614ff0565b93506114118585613b6c565b90935091505b509250925092565b6000306001600160a01b037f000000000000000000000000000000000000000000000000000000000000000016146114bf5760405162461bcd60e51b815260206004820152603860248201527f555550535570677261646561626c653a206d757374206e6f742062652063616c60448201527f6c6564207468726f7567682064656c656761746563616c6c0000000000000000606482015260840161020f565b5060008051602061526483398151915290565b60008060006114e360335460ff1690565b156115005760405162461bcd60e51b815260040161020f90614e67565b6000881180156115105750600087115b61152c5760405162461bcd60e51b815260040161020f90615009565b60c95460405163f9d9331d60e01b81526001600160a01b038b81166004830152600092169063f9d9331d90602401602060405180830381865afa158015611577573d6000803e3d6000fd5b505050506040513d601f19601f8201168201806040525081019061159b9190614c57565b90506001600160a01b03811661161d5760c954604051621849e360e61b81526001600160a01b038c811660048301529091169063061278c0906024016020604051808303816000875af11580156115f6573d6000803e3d6000fd5b505050506040513d601f19601f8201168201806040525081019061161a9190614c57565b90505b6000816001600160a01b0316630fc63d106040518163ffffffff1660e01b8152600401602060405180830381865afa15801561165d573d6000803e3d6000fd5b505050506040513d601f19601f820116820180604052508101906116819190614c57565b90506000826001600160a01b0316635f64b55b6040518163ffffffff1660e01b8152600401602060405180830381865afa1580156116c3573d6000803e3d6000fd5b505050506040513d601f19601f820116820180604052508101906116e79190614c57565b90506116fe6001600160a01b03831633308e613a75565b6117136001600160a01b03821633308d613a75565b61172282828d8d8d8d89613da7565b604051636e553f6560e01b8152600481018290526001600160a01b038b81166024830152939950919750955090841690636e553f6590604401600060405180830381600087803b15801561177557600080fd5b505af1158015611789573d6000803e3d6000fd5b50505050866001600160a01b0316336001600160a01b03168d6001600160a01b0316600080516020615284833981519152876040516117ca91815260200190565b60405180910390a450505096509650969350505050565b60ca60009054906101000a90046001600160a01b03166001600160a01b03166375b238fc6040518163ffffffff1660e01b8152600401602060405180830381865afa158015611834573d6000803e3d6000fd5b505050506040513d601f19601f820116820180604052508101906118589190614ff0565b60ca54604051632474521560e21b8152600481018390523360248201526001600160a01b03909116906391d1485490604401602060405180830381865afa1580156118a7573d6000803e3d6000fd5b505050506040513d601f19601f820116820180604052508101906118cb9190614cd5565b6118e75760405162461bcd60e51b815260040161020f90614e38565b670de0b6b3a76400008211156119295760405162461bcd60e51b81526020600482015260076024820152664241445f46454560c81b604482015260640161020f565b8160cb54146113115760cb5460408051918252602082018490527f5fc463da23c1b063e66f9e352006a7fbe8db7223c455dc429e881a2dfe2f94f1910160405180910390a15060cb55565b60008061198360335460ff1690565b156119a05760405162461bcd60e51b815260040161020f90614e67565b600087116119c05760405162461bcd60e51b815260040161020f90614e91565b60c95460405163f9d9331d60e01b81526001600160a01b038b81166004830152600092169063f9d9331d90602401602060405180830381865afa158015611a0b573d6000803e3d6000fd5b505050506040513d601f19601f82011682018060405250810190611a2f9190614c57565b90506001600160a01b038116611ab15760c954604051621849e360e61b81526001600160a01b038c811660048301529091169063061278c0906024016020604051808303816000875af1158015611a8a573d6000803e3d6000fd5b505050506040513d601f19601f82011682018060405250810190611aae9190614c57565b90505b611ac66001600160a01b038a1633308b613a75565b60405163095ea7b360e01b81526001600160a01b038a169063095ea7b390611b0890731111111254eeb25477b68fb85ed929f73a960582908c90600401614cbc565b6020604051808303816000875af1158015611b27573d6000803e3d6000fd5b505050506040513d601f19601f82011682018060405250810190611b4b9190614cd5565b508792506000806000836001600160a01b0316630fc63d106040518163ffffffff1660e01b8152600401602060405180830381865afa158015611b92573d6000803e3d6000fd5b505050506040513d601f19601f82011682018060405250810190611bb69190614c57565b90506000846001600160a01b0316635f64b55b6040518163ffffffff1660e01b8152600401602060405180830381865afa158015611bf8573d6000803e3d6000fd5b505050506040513d601f19601f82011682018060405250810190611c1c9190614c57565b90508c6001600160a01b0316826001600160a01b031614611c6c57600080611c568d825b602002810190611c509190614d0d565b86613511565b9092509050611c65818f614d89565b9d50909450505b8c6001600160a01b0316816001600160a01b031614611cbb57600080611ca58d60015b602002810190611c9f9190614d0d565b85613511565b9092509050611cb4818f614d89565b9d50909350505b8c6001600160a01b0316826001600160a01b03161415611cdd578b9350611d25565b8c6001600160a01b0316816001600160a01b03161415611cff578b9250611d25565b8b15611d2557611d0f8c88614d89565b9650611d256001600160a01b038e16338e61371b565b600084118015611d355750600083115b611d515760405162461bcd60e51b815260040161020f90615009565b611d60828286868e8e8b613da7565b604051636e553f6560e01b8152600481018290526001600160a01b038c811660248301529199509088169250636e553f659150604401600060405180830381600087803b158015611db057600080fd5b505af1158015611dc4573d6000803e3d6000fd5b50505050876001600160a01b0316336001600160a01b03168f6001600160a01b031660008051602061528483398151915289604051611e0591815260200190565b60405180910390a4505050505097509795505050505050565b600080611e2d60335460ff1690565b15611e4a5760405162461bcd60e51b815260040161020f90614e67565b60003411611e885760405162461bcd60e51b815260206004820152600b60248201526a1393d7d0939097d4d1539560aa1b604482015260640161020f565b60c95460405163f9d9331d60e01b81526001600160a01b038981166004830152600092169063f9d9331d90602401602060405180830381865afa158015611ed3573d6000803e3d6000fd5b505050506040513d601f19601f82011682018060405250810190611ef79190614c57565b90506001600160a01b038116611f795760c954604051621849e360e61b81526001600160a01b038a811660048301529091169063061278c0906024016020604051808303816000875af1158015611f52573d6000803e3d6000fd5b505050506040513d601f19601f82011682018060405250810190611f769190614c57565b90505b60003490506000805160206152248339815191526001600160a01b031663d0e30db0826040518263ffffffff1660e01b81526004016000604051808303818588803b158015611fc757600080fd5b505af1158015611fdb573d6000803e3d6000fd5b505060405163095ea7b360e01b8152600080516020615224833981519152935063095ea7b392506120279150731111111254eeb25477b68fb85ed929f73a960582908590600401614cbc565b6020604051808303816000875af1158015612046573d6000803e3d6000fd5b505050506040513d601f19601f8201168201806040525081019061206a9190614cd5565b508093506000806000846001600160a01b0316630fc63d106040518163ffffffff1660e01b8152600401602060405180830381865afa1580156120b1573d6000803e3d6000fd5b505050506040513d601f19601f820116820180604052508101906120d59190614c57565b90506000856001600160a01b0316635f64b55b6040518163ffffffff1660e01b8152600401602060405180830381865afa158015612117573d6000803e3d6000fd5b505050506040513d601f19601f8201168201806040525081019061213b9190614c57565b90506001600160a01b0382166000805160206152248339815191521461217e576000806121688e82611c40565b90925090506121778188614d89565b9650909450505b6001600160a01b038116600080516020615224833981519152146121c0576000806121aa8e6001611c8f565b90925090506121b98188614d89565b9650909350505b6001600160a01b03821660008051602061522483398151915214156121e7578493506122af565b6001600160a01b038116600080516020615224833981519152141561220e578492506122af565b84156122af5761221e8589614d89565b604051632e1a7d4d60e01b81526004810187905290985060008051602061522483398151915290632e1a7d4d90602401600060405180830381600087803b15801561226857600080fd5b505af115801561227c573d6000803e3d6000fd5b505060405133925087156108fc02915087906000818181858888f193505050501580156122ad573d6000803e3d6000fd5b505b6000841180156122bf5750600083115b6122db5760405162461bcd60e51b815260040161020f90615009565b6122ea828286868f8f8c613da7565b604051636e553f6560e01b8152600481018290526001600160a01b038d81166024830152919a509089169250636e553f659150604401600060405180830381600087803b15801561233a57600080fd5b505af115801561234e573d6000803e3d6000fd5b50505050886001600160a01b0316336001600160a01b03168e6001600160a01b03166000805160206152848339815191528a60405161238f91815260200190565b60405180910390a45050505050509550959350505050565b60ca54604051632474521560e21b81527f65d7a28e3265b37a6474929f336521b332c1681b933f6cb9f3376673440d862a60048201819052336024830152916001600160a01b0316906391d1485490604401602060405180830381865afa158015612416573d6000803e3d6000fd5b505050506040513d601f19601f8201168201806040525081019061243a9190614cd5565b6124565760405162461bcd60e51b815260040161020f90614e38565b610ac9613fca565b60c95460405163f9d9331d60e01b81526001600160a01b038681166004830152600092839283928392169063f9d9331d90602401602060405180830381865afa1580156124af573d6000803e3d6000fd5b505050506040513d601f19601f820116820180604052508101906124d39190614c57565b90506001600160a01b0381166124fb5760405162461bcd60e51b815260040161020f90614c74565b604051632d182be560e21b81526001600160a01b0382169063b460af949061252b908a9033903090600401614c9d565b600060405180830381600087803b15801561254557600080fd5b505af1158015612559573d6000803e3d6000fd5b505050506000816001600160a01b0316630fc63d106040518163ffffffff1660e01b8152600401602060405180830381865afa15801561259d573d6000803e3d6000fd5b505050506040513d601f19601f820116820180604052508101906125c19190614c57565b90506000826001600160a01b0316635f64b55b6040518163ffffffff1660e01b8152600401602060405180830381865afa158015612603573d6000803e3d6000fd5b505050506040513d601f19601f820116820180604052508101906126279190614c57565b90506126398a83838c600080306133d0565b90955093506001600160a01b0382166000805160206152248339815191521461274d5760405163095ea7b360e01b81526001600160a01b0383169063095ea7b39061269e90731111111254eeb25477b68fb85ed929f73a960582908990600401614cbc565b6020604051808303816000875af11580156126bd573d6000803e3d6000fd5b505050506040513d601f19601f820116820180604052508101906126e19190614cd5565b5060008061270f8a825b6020028101906126fb9190614d0d565b600080516020615224833981519152613511565b909250905061271e8289614d71565b975061272a8188614d89565b96508615612746576127466001600160a01b0385168a8961371b565b505061275e565b6127578587614d71565b9550600094505b6001600160a01b0381166000805160206152248339815191521461284e5760405163095ea7b360e01b81526001600160a01b0382169063095ea7b3906127be90731111111254eeb25477b68fb85ed929f73a960582908890600401614cbc565b6020604051808303816000875af11580156127dd573d6000803e3d6000fd5b505050506040513d601f19601f820116820180604052508101906128019190614cd5565b506000806128108a60016126eb565b909250905061281f8289614d71565b975061282b8187614d89565b95508515612847576128476001600160a01b0384168a8861371b565b505061285f565b6128588487614d71565b9550600093505b604051632e1a7d4d60e01b81526004810187905260008051602061522483398151915290632e1a7d4d90602401600060405180830381600087803b1580156128a657600080fd5b505af11580156128ba573d6000803e3d6000fd5b50506040516001600160a01b038a16925088156108fc02915088906000818181858888f193505050501580156128f4573d6000803e3d6000fd5b50866001600160a01b0316336001600160a01b03168b6001600160a01b03166000805160206152448339815191528c60405161293291815260200190565b60405180910390a45050509450945094915050565b60c95460405163f9d9331d60e01b81526001600160a01b038781166004830152600092839283929091169063f9d9331d90602401602060405180830381865afa158015612998573d6000803e3d6000fd5b505050506040513d601f19601f820116820180604052508101906129bc9190614c57565b90506001600160a01b0381166129e45760405162461bcd60e51b815260040161020f90614c74565b604051632d182be560e21b81526001600160a01b0382169063b460af9490612a14908a9033903090600401614c9d565b600060405180830381600087803b158015612a2e57600080fd5b505af1158015612a42573d6000803e3d6000fd5b50505050612b1788826001600160a01b0316630fc63d106040518163ffffffff1660e01b8152600401602060405180830381865afa158015612a88573d6000803e3d6000fd5b505050506040513d601f19601f82011682018060405250810190612aac9190614c57565b836001600160a01b0316635f64b55b6040518163ffffffff1660e01b8152600401602060405180830381865afa158015612aea573d6000803e3d6000fd5b505050506040513d601f19601f82011682018060405250810190612b0e9190614c57565b8a8a8a8a6133d0565b60405189815291945092506001600160a01b038581169133918b16906000805160206152448339815191529060200160405180910390a4509550959350505050565b60c95460405163f9d9331d60e01b81526001600160a01b038781166004830152600092839283929091169063f9d9331d90602401602060405180830381865afa158015612baa573d6000803e3d6000fd5b505050506040513d601f19601f82011682018060405250810190612bce9190614c57565b90506001600160a01b038116612bf65760405162461bcd60e51b815260040161020f90614c74565b6000816001600160a01b0316630fc63d106040518163ffffffff1660e01b8152600401602060405180830381865afa158015612c36573d6000803e3d6000fd5b505050506040513d601f19601f82011682018060405250810190612c5a9190614c57565b90506000826001600160a01b0316635f64b55b6040518163ffffffff1660e01b8152600401602060405180830381865afa158015612c9c573d6000803e3d6000fd5b505050506040513d601f19601f82011682018060405250810190612cc09190614c57565b604051632d182be560e21b81529091506001600160a01b0384169063b460af9490612cf3908c9033903090600401614c9d565b600060405180830381600087803b158015612d0d57600080fd5b505af1158015612d21573d6000803e3d6000fd5b505050506001600160a01b0382166000805160206152248339815191521415612d5c57612d528a828b8b8b8b614022565b9095509350612dc1565b6001600160a01b0381166000805160206152248339815191521415612d8957612d528a838b8b8b8b614022565b60405162461bcd60e51b815260206004820152600d60248201526c1393d517d5d0939097d413d3d3609a1b604482015260640161020f565b856001600160a01b0316336001600160a01b03168b6001600160a01b03166000805160206152448339815191528c604051612dfe91815260200190565b60405180910390a45050509550959350505050565b60c95460405163f9d9331d60e01b81526001600160a01b038581166004830152600092169063f9d9331d90602401602060405180830381865afa158015612e5e573d6000803e3d6000fd5b505050506040513d601f19601f82011682018060405250810190612e829190614c57565b90506001600160a01b038116612eaa5760405162461bcd60e51b815260040161020f90614c74565b604051632d182be560e21b81526001600160a01b0382169063b460af9490612eda90869033908790600401614c9d565b600060405180830381600087803b158015612ef457600080fd5b505af1158015612f08573d6000803e3d6000fd5b50505050816001600160a01b0316336001600160a01b0316856001600160a01b031660008051602061524483398151915286604051610eba91815260200190565b60c95460405163f9d9331d60e01b81526001600160a01b038381166004830152600092839283928392169063f9d9331d90602401602060405180830381865afa158015612f9a573d6000803e3d6000fd5b505050506040513d601f19601f82011682018060405250810190612fbe9190614c57565b90506001600160a01b0381161561304357806001600160a01b031663168a48226040518163ffffffff1660e01b8152600401602060405180830381865afa15801561300d573d6000803e3d6000fd5b505050506040513d601f19601f820116820180604052508101906130319190614ff0565b935061303d8585613b6c565b90935091505b509193909250565b600080600061305c60335460ff1690565b156130795760405162461bcd60e51b815260040161020f90614e67565b600034116130b75760405162461bcd60e51b815260206004820152600b60248201526a1393d7d0939097d4d1539560aa1b604482015260640161020f565b600087116130d75760405162461bcd60e51b815260040161020f90614e91565b60c95460405163f9d9331d60e01b81526001600160a01b038a81166004830152600092169063f9d9331d90602401602060405180830381865afa158015613122573d6000803e3d6000fd5b505050506040513d601f19601f820116820180604052508101906131469190614c57565b90506001600160a01b0381166131c85760c954604051621849e360e61b81526001600160a01b038b811660048301529091169063061278c0906024016020604051808303816000875af11580156131a1573d6000803e3d6000fd5b505050506040513d601f19601f820116820180604052508101906131c59190614c57565b90505b6000816001600160a01b0316630fc63d106040518163ffffffff1660e01b8152600401602060405180830381865afa158015613208573d6000803e3d6000fd5b505050506040513d601f19601f8201168201806040525081019061322c9190614c57565b90506000826001600160a01b0316635f64b55b6040518163ffffffff1660e01b8152600401602060405180830381865afa15801561326e573d6000803e3d6000fd5b505050506040513d601f19601f820116820180604052508101906132929190614c57565b90506001600160a01b03821660008051602061522483398151915214156132e1576132c86001600160a01b03821633308d613a75565b6132d5818b8b8b8761413c565b91975095509350613322565b6001600160a01b0381166000805160206152248339815191521415612d89576133156001600160a01b03831633308d613a75565b6132d5828b8b8b8761413c565b604051636e553f6560e01b8152600481018590526001600160a01b038881166024830152841690636e553f6590604401600060405180830381600087803b15801561336c57600080fd5b505af1158015613380573d6000803e3d6000fd5b50505050866001600160a01b0316336001600160a01b03168c6001600160a01b0316600080516020615284833981519152876040516109d691815260200190565b6001600160a01b03163b151590565b600080886001600160a01b031663095ea7b373cf0febd3f17cef5b47b0cd257acf6025c5bff3b7886040518363ffffffff1660e01b8152600401613415929190614cbc565b6020604051808303816000875af1158015613434573d6000803e3d6000fd5b505050506040513d601f19601f820116820180604052508101906134589190614cd5565b50604051635d5155ef60e11b81526001600160a01b03808a1660048301528089166024830152604482018890526064820187905260848201869052841660a48201524260c482015273cf0febd3f17cef5b47b0cd257acf6025c5bff3b79063baa2abde9060e40160408051808303816000875af11580156134dd573d6000803e3d6000fd5b505050506040513d601f19601f820116820180604052508101906135019190615031565b909a909950975050505050505050565b6040516370a0823160e01b8152306004820152600090819081906001600160a01b038516906370a0823190602401602060405180830381865afa15801561355c573d6000803e3d6000fd5b505050506040513d601f19601f820116820180604052508101906135809190614ff0565b9050600080731111111254eeb25477b68fb85ed929f73a9605826001600160a01b031688886040516135b3929190615055565b6000604051808303816000865af19150503d80600081146135f0576040519150601f19603f3d011682016040523d82523d6000602084013e6135f5565b606091505b50915091508161363d5760405162461bcd60e51b815260206004820152601360248201527214d5d05417d393d517d4d550d0d154d4d19553606a1b604482015260640161020f565b808060200190518101906136519190615031565b6040516370a0823160e01b815230600482015291965094506000906001600160a01b038816906370a0823190602401602060405180830381865afa15801561369d573d6000803e3d6000fd5b505050506040513d601f19601f820116820180604052508101906136c19190614ff0565b9050856136ce8583614d89565b1461370f5760405162461bcd60e51b815260206004820152601160248201527010905117d4915515549397d05353d55395607a1b604482015260640161020f565b50505050935093915050565b610ffe8363a9059cbb60e01b848460405160240161373a929190614cbc565b60408051601f198184030181529190526020810180516001600160e01b03166001600160e01b0319909316929092179091526142c6565b60ca60009054906101000a90046001600160a01b03166001600160a01b03166375b238fc6040518163ffffffff1660e01b8152600401602060405180830381865afa1580156137c4573d6000803e3d6000fd5b505050506040513d601f19601f820116820180604052508101906137e89190614ff0565b60ca54604051632474521560e21b8152600481018390523360248201526001600160a01b03909116906391d1485490604401602060405180830381865afa158015613837573d6000803e3d6000fd5b505050506040513d601f19601f8201168201806040525081019061385b9190614cd5565b6113115760405162461bcd60e51b815260040161020f90614e38565b7f4910fdfa16fed3260ed0e7147f7cc6da11a60208b5b9406d12a635614ffd91435460ff16156138aa57610ffe83614398565b826001600160a01b03166352d1902d6040518163ffffffff1660e01b8152600401602060405180830381865afa925050508015613904575060408051601f3d908101601f1916820190925261390191810190614ff0565b60015b6139675760405162461bcd60e51b815260206004820152602e60248201527f45524331393637557067726164653a206e657720696d706c656d656e7461746960448201526d6f6e206973206e6f74205555505360901b606482015260840161020f565b60008051602061526483398151915281146139d65760405162461bcd60e51b815260206004820152602960248201527f45524331393637557067726164653a20756e737570706f727465642070726f786044820152681a58589b195555525160ba1b606482015260840161020f565b50610ffe838383614434565b60335460ff16613a2b5760405162461bcd60e51b815260206004820152601460248201527314185d5cd8589b194e881b9bdd081c185d5cd95960621b604482015260640161020f565b6033805460ff191690557f5db9ee0a495bf2e6ff9c91a7834c1ba4fdd244a5e8aa4e537bd38aeae4b073aa335b6040516001600160a01b03909116815260200160405180910390a1565b6040516001600160a01b0380851660248301528316604482015260648101829052613aad9085906323b872dd60e01b9060840161373a565b50505050565b60008054610100900460ff1615613afa578160ff166001148015613ad65750303b155b613af25760405162461bcd60e51b815260040161020f90615065565b506000919050565b60005460ff808416911610613b215760405162461bcd60e51b815260040161020f90615065565b506000805460ff191660ff92909216919091179055600190565b600054610100900460ff16613b625760405162461bcd60e51b815260040161020f906150b3565b613b6a614459565b565b6000806000846001600160a01b03166318160ddd6040518163ffffffff1660e01b8152600401602060405180830381865afa158015613baf573d6000803e3d6000fd5b505050506040513d601f19601f82011682018060405250810190613bd39190614ff0565b905080856001600160a01b0316630dfe16816040518163ffffffff1660e01b8152600401602060405180830381865afa158015613c14573d6000803e3d6000fd5b505050506040513d601f19601f82011682018060405250810190613c389190614c57565b6040516370a0823160e01b81526001600160a01b03888116600483015291909116906370a0823190602401602060405180830381865afa158015613c80573d6000803e3d6000fd5b505050506040513d601f19601f82011682018060405250810190613ca49190614ff0565b613cae90866150fe565b613cb8919061511d565b925080856001600160a01b031663d21220a76040518163ffffffff1660e01b8152600401602060405180830381865afa158015613cf9573d6000803e3d6000fd5b505050506040513d601f19601f82011682018060405250810190613d1d9190614c57565b6040516370a0823160e01b81526001600160a01b03888116600483015291909116906370a0823190602401602060405180830381865afa158015613d65573d6000803e3d6000fd5b505050506040513d601f19601f82011682018060405250810190613d899190614ff0565b613d9390866150fe565b613d9d919061511d565b9150509250929050565b6000806000896001600160a01b031663095ea7b373cf0febd3f17cef5b47b0cd257acf6025c5bff3b78a6040518363ffffffff1660e01b8152600401613dee929190614cbc565b6020604051808303816000875af1158015613e0d573d6000803e3d6000fd5b505050506040513d601f19601f82011682018060405250810190613e319190614cd5565b5060405163095ea7b360e01b81526001600160a01b038a169063095ea7b390613e749073cf0febd3f17cef5b47b0cd257acf6025c5bff3b7908b90600401614cbc565b6020604051808303816000875af1158015613e93573d6000803e3d6000fd5b505050506040513d601f19601f82011682018060405250810190613eb79190614cd5565b5060405162e8e33760e81b81526001600160a01b03808c166004830152808b166024830152604482018a9052606482018990526084820188905260a48201879052851660c48201524260e482015273cf0febd3f17cef5b47b0cd257acf6025c5bff3b79063e8e3370090610104016060604051808303816000875af1158015613f44573d6000803e3d6000fd5b505050506040513d601f19601f82011682018060405250810190613f68919061513f565b9194509250905082881115613f9657613f9633613f85858b614d89565b6001600160a01b038d16919061371b565b81871115613fbd57613fbd33613fac848a614d89565b6001600160a01b038c16919061371b565b9750975097945050505050565b60335460ff1615613fed5760405162461bcd60e51b815260040161020f90614e67565b6033805460ff191660011790557f62e78cea01bee320cd4e420270b5ea74000d11b0c9f74754ebdbfc544b05a258613a583390565b600080876001600160a01b031663095ea7b373cf0febd3f17cef5b47b0cd257acf6025c5bff3b7886040518363ffffffff1660e01b8152600401614067929190614cbc565b6020604051808303816000875af1158015614086573d6000803e3d6000fd5b505050506040513d601f19601f820116820180604052508101906140aa9190614cd5565b50604051629d473b60e21b815273cf0febd3f17cef5b47b0cd257acf6025c5bff3b7906302751cec906140eb908a908a908a908a908a90429060040161516d565b60408051808303816000875af1158015614109573d6000803e3d6000fd5b505050506040513d601f19601f8201168201806040525081019061412d9190615031565b90999098509650505050505050565b6000806000876001600160a01b031663095ea7b373cf0febd3f17cef5b47b0cd257acf6025c5bff3b7896040518363ffffffff1660e01b8152600401614183929190614cbc565b6020604051808303816000875af11580156141a2573d6000803e3d6000fd5b505050506040513d601f19601f820116820180604052508101906141c69190614cd5565b5060405163f305d71960e01b815273cf0febd3f17cef5b47b0cd257acf6025c5bff3b79063f305d71990349061420a908c908c908c908c908c90429060040161516d565b60606040518083038185885af1158015614228573d6000803e3d6000fd5b50505050506040513d601f19601f8201168201806040525081019061424d919061513f565b919450925090508287111561427b5761427b3361426a858a614d89565b6001600160a01b038b16919061371b565b813411156142bb57336108fc6142918434614d89565b6040518115909202916000818181858888f193505050501580156142b9573d6000803e3d6000fd5b505b955095509592505050565b600061431b826040518060400160405280602081526020017f5361666542455032303a206c6f772d6c6576656c2063616c6c206661696c6564815250856001600160a01b031661448c9092919063ffffffff16565b805190915015610ffe57808060200190518101906143399190614cd5565b610ffe5760405162461bcd60e51b815260206004820152602a60248201527f5361666542455032303a204245503230206f7065726174696f6e20646964206e6044820152691bdd081cdd58d8d9595960b21b606482015260840161020f565b6001600160a01b0381163b6144055760405162461bcd60e51b815260206004820152602d60248201527f455243313936373a206e657720696d706c656d656e746174696f6e206973206e60448201526c1bdd08184818dbdb9d1c9858dd609a1b606482015260840161020f565b60008051602061526483398151915280546001600160a01b0319166001600160a01b0392909216919091179055565b61443d836144a5565b60008251118061444a5750805b15610ffe57613aad83836144e5565b600054610100900460ff166144805760405162461bcd60e51b815260040161020f906150b3565b6033805460ff19169055565b606061449b84846000856145db565b90505b9392505050565b6144ae81614398565b6040516001600160a01b038216907fbc7cd75a20ee27fd9adebab32041f755214dbc6bffa90cc0225b39da2e5c2d3b90600090a250565b60606001600160a01b0383163b61454d5760405162461bcd60e51b815260206004820152602660248201527f416464726573733a2064656c65676174652063616c6c20746f206e6f6e2d636f6044820152651b9d1c9858dd60d21b606482015260840161020f565b600080846001600160a01b03168460405161456891906151d4565b600060405180830381855af49150503d80600081146145a3576040519150601f19603f3d011682016040523d82523d6000602084013e6145a8565b606091505b50915091506145d082826040518060600160405280602781526020016152a46027913961470c565b925050505b92915050565b60608247101561463c5760405162461bcd60e51b815260206004820152602660248201527f416464726573733a20696e73756666696369656e742062616c616e636520666f6044820152651c8818d85b1b60d21b606482015260840161020f565b6001600160a01b0385163b6146935760405162461bcd60e51b815260206004820152601d60248201527f416464726573733a2063616c6c20746f206e6f6e2d636f6e7472616374000000604482015260640161020f565b600080866001600160a01b031685876040516146af91906151d4565b60006040518083038185875af1925050503d80600081146146ec576040519150601f19603f3d011682016040523d82523d6000602084013e6146f1565b606091505b509150915061470182828661470c565b979650505050505050565b6060831561471b57508161449e565b82511561472b5782518084602001fd5b8160405162461bcd60e51b815260040161020f91906151f0565b6001600160a01b0381168114610ac957600080fd5b80604081018310156145d557600080fd5b600080600080600060a0868803121561478357600080fd5b853561478e81614745565b94506020860135935060408601356147a581614745565b9250606086013567ffffffffffffffff8111156147c157600080fd5b6147cd8882890161475a565b92505060808601356147de81614745565b809150509295509295909350565b6000602082840312156147fe57600080fd5b813561449e81614745565b6020808252825182820181905260009190848201906040850190845b8181101561484a5783516001600160a01b031683529284019291840191600101614825565b50909695505050505050565b60008060006060848603121561486b57600080fd5b833561487681614745565b925060208401359150604084013561488d81614745565b809150509250925092565b600080604083850312156148ab57600080fd5b82356148b681614745565b915060208301356148c681614745565b809150509250929050565b600080600080608085870312156148e757600080fd5b84356148f281614745565b9350602085013567ffffffffffffffff8082111561490f57600080fd5b61491b8883890161475a565b9450604087013591508082111561493157600080fd5b5085016040818803121561494457600080fd5b9150606085013561495481614745565b939692955090935050565b634e487b7160e01b600052604160045260246000fd5b6000806040838503121561498857600080fd5b823561499381614745565b9150602083013567ffffffffffffffff808211156149b057600080fd5b818501915085601f8301126149c457600080fd5b8135818111156149d6576149d661495f565b604051601f8201601f19908116603f011681019083821181831017156149fe576149fe61495f565b81604052828152886020848701011115614a1757600080fd5b8260208601602083013760006020848301015280955050505050509250929050565b60008060008060008060c08789031215614a5257600080fd5b8635614a5d81614745565b95506020870135945060408701359350606087013592506080870135915060a0870135614a8981614745565b809150509295509295509295565b600060208284031215614aa957600080fd5b5035919050565b600080600080600080600060e0888a031215614acb57600080fd5b8735614ad681614745565b96506020880135614ae681614745565b955060408801359450606088013567ffffffffffffffff811115614b0957600080fd5b614b158a828b0161475a565b9450506080880135925060a0880135915060c0880135614b3481614745565b8091505092959891949750929550565b600080600080600060a08688031215614b5c57600080fd5b8535614b6781614745565b9450602086013567ffffffffffffffff811115614b8357600080fd5b614b8f8882890161475a565b945050604086013592506060860135915060808601356147de81614745565b60008060008060808587031215614bc457600080fd5b8435614bcf81614745565b935060208501359250604085013567ffffffffffffffff811115614bf257600080fd5b614bfe8782880161475a565b925050606085013561495481614745565b600080600080600060a08688031215614c2757600080fd5b8535614c3281614745565b945060208601359350604086013592506060860135915060808601356147de81614745565b600060208284031215614c6957600080fd5b815161449e81614745565b6020808252600f908201526e4641524d5f4e4f545f45584953545360881b604082015260600190565b9283526001600160a01b03918216602084015216604082015260600190565b6001600160a01b03929092168252602082015260400190565b600060208284031215614ce757600080fd5b8151801515811461449e57600080fd5b634e487b7160e01b600052603260045260246000fd5b6000808335601e19843603018112614d2457600080fd5b83018035915067ffffffffffffffff821115614d3f57600080fd5b602001915036819003821315614d5457600080fd5b9250929050565b634e487b7160e01b600052601160045260246000fd5b60008219821115614d8457614d84614d5b565b500190565b600082821015614d9b57614d9b614d5b565b500390565b6020808252602c908201527f46756e6374696f6e206d7573742062652063616c6c6564207468726f7567682060408201526b19195b1959d85d1958d85b1b60a21b606082015260800190565b6020808252602c908201527f46756e6374696f6e206d7573742062652063616c6c6564207468726f7567682060408201526b6163746976652070726f787960a01b606082015260800190565b60208082526015908201527410d05313115497d393d517d055551213d492569151605a1b604082015260600190565b60208082526010908201526f14185d5cd8589b194e881c185d5cd95960821b604082015260600190565b6020808252600d908201526c1393d7d513d2d15397d4d15395609a1b604082015260600190565b6000604083018235601e19843603018112614ed257600080fd5b83018035602067ffffffffffffffff821115614eed57600080fd5b8160051b3603861315614eff57600080fd5b60408752928190529082019160009190606087015b82841015614f44578435614f2781614745565b6001600160a01b0316815293810193600193909301928101614f14565b9581013596019590955250919392505050565b608080825260009060c083019083018683805b6002811015614fb257868503607f190184528235368b9003603e19018112614f90578283fd5b614f9c868c8301614eb8565b9550506020938401939290920191600101614f6a565b505050508281036020840152614fc88186614eb8565b84516001600160a01b0316604085015260209094015160609093019290925250909392505050565b60006020828403121561500257600080fd5b5051919050565b6020808252600e908201526d1393d7d513d2d15394d7d4d1539560921b604082015260600190565b6000806040838503121561504457600080fd5b505080516020909101519092909150565b8183823760009101908152919050565b6020808252602e908201527f496e697469616c697a61626c653a20636f6e747261637420697320616c72656160408201526d191e481a5b9a5d1a585b1a5e995960921b606082015260800190565b6020808252602b908201527f496e697469616c697a61626c653a20636f6e7472616374206973206e6f74206960408201526a6e697469616c697a696e6760a81b606082015260800190565b600081600019048311821515161561511857615118614d5b565b500290565b60008261513a57634e487b7160e01b600052601260045260246000fd5b500490565b60008060006060848603121561515457600080fd5b8351925060208401519150604084015190509250925092565b6001600160a01b039687168152602081019590955260408501939093526060840191909152909216608082015260a081019190915260c00190565b60005b838110156151c35781810151838201526020016151ab565b83811115613aad5750506000910152565b600082516151e68184602087016151a8565b9190910192915050565b602081526000825180602084015261520f8160408501602087016151a8565b601f01601f1916919091016040019291505056fe000000000000000000000000bb4cdb9cbd36b01bd1cbaebf2de08d9173bc095c3115d1449a7b732c986cba18244e897a450f61e1bb8d589cd2e69e6c8924f9f7360894a13ba1a3210667c828492db98dca3e2076cc3735a920a3ca505d382bbc7cfff908a4b583f36430b25d75964c458d8ede8a99bd61be750e97ee1b2f3a96416464726573733a206c6f772d6c6576656c2064656c65676174652063616c6c206661696c6564a2646970667358221220f8cf448d6b8d1feb54f2168af62320bf242d748a96c8156c2d8fd0d07a0e7ac664736f6c634300080a0033496e697469616c697a61626c653a20636f6e747261637420697320616c726561",
  "immutableReferences": {
    "561": [
      {
        "length": 32,
        "start": 2551
      },
      {
        "length": 32,
        "start": 2615
      },
      {
        "length": 32,
        "start": 4687
      },
      {
        "length": 32,
        "start": 4751
      },
      {
        "length": 32,
        "start": 5164
      }
    ]
  },
  "source": "// SPDX-License-Identifier: MIT\r\npragma solidity 0.8.10;\r\n\r\nimport {IUnoFarmApeswap as Farm} from './interfaces/IUnoFarmApeswap.sol'; \r\nimport \"../../interfaces/IUniswapV2Router.sol\";\r\nimport '../../interfaces/IUnoFarmFactory.sol';\r\nimport '../../interfaces/IUnoAccessManager.sol'; \r\nimport '../../interfaces/IUniswapV2Pair.sol';\r\nimport '../../interfaces/IWBNB.sol';\r\nimport '../../libs/SafeBEP20.sol';\r\nimport '@openzeppelin/contracts-upgradeable/proxy/utils/Initializable.sol';\r\nimport '@pancakeswap/pancake-swap-lib/contracts/token/BEP20/IBEP20.sol';\r\nimport '@openzeppelin/contracts-upgradeable/security/PausableUpgradeable.sol';\r\nimport '@openzeppelin/contracts-upgradeable/proxy/utils/UUPSUpgradeable.sol';\r\n\r\ncontract UnoAssetRouterApeswap is Initializable, PausableUpgradeable, UUPSUpgradeable {\r\n    using SafeBEP20 for IBEP20;\r\n\r\n    /**\r\n     * @dev Contract Variables:\r\n     * farmFactory - The contract that deploys new Farms and links them to {lpPair}s.\r\n     * accessManager - Role manager contract.\r\n     */\r\n    IUnoFarmFactory public farmFactory;\r\n    IUnoAccessManager public accessManager;\r\n\r\n    bytes32 private constant DISTRIBUTOR_ROLE = keccak256('DISTRIBUTOR_ROLE');\r\n    bytes32 private constant PAUSER_ROLE = keccak256('PAUSER_ROLE');\r\n\r\n    uint256 public fee;\r\n\r\n    address public constant WBNB = 0xbb4CdB9CBd36B01bD1cBaEBF2De08d9173bc095c;\r\n    IUniswapV2Router01 public constant ApeswapRouter = IUniswapV2Router01(0xcF0feBd3f17CEf5b47b0cD257aCf6025c5BFf3b7);\r\n    address private constant OneInchRouter = 0x1111111254EEB25477B68fb85Ed929f73A960582;\r\n\r\n    event Deposit(address indexed lpPool, address indexed sender, address indexed recipient, uint256 amount);\r\n    event Withdraw(address indexed lpPool, address indexed sender, address indexed recipient, uint256 amount);\r\n    event Distribute(address indexed lpPool, uint256 reward);\r\n    \r\n    event FeeChanged(uint256 previousFee, uint256 newFee);\r\n\r\n    modifier onlyRole(bytes32 role){\r\n        require(accessManager.hasRole(role, msg.sender), 'CALLER_NOT_AUTHORIZED');\r\n        _;\r\n    }\r\n\r\n    // ============ Methods ============\r\n\r\n    /// @custom:oz-upgrades-unsafe-allow constructor\r\n    constructor() {\r\n        _disableInitializers();\r\n    }\r\n\r\n    function initialize(address _accessManager, address _farmFactory) external initializer{\r\n        require (_accessManager != address(0), 'BAD_ACCESS_MANAGER');\r\n        require (_farmFactory != address(0), 'BAD_FARM_FACTORY');\r\n\r\n        __Pausable_init();\r\n        accessManager = IUnoAccessManager(_accessManager);\r\n        farmFactory = IUnoFarmFactory(_farmFactory);\r\n    }\r\n\r\n    receive() external payable {\r\n        require(msg.sender == WBNB || msg.sender == address(ApeswapRouter), 'ONLY_ACCEPT_WBNB'); // only accept ETH via fallback from the WBNB or router contract\r\n    }\r\n\r\n    /**\r\n     * @dev Deposits tokens in the given pool. Creates new Farm contract if there isn't one deployed for the {lpPair} and deposits tokens in it. Emits a {Deposit} event.\r\n     * @param lpPair - Address of the pool to deposit tokens in.\r\n     * @param amountA  - Token A amount to deposit.\r\n     * @param amountB -  Token B amount to deposit.\r\n     * @param amountAMin - Bounds the extent to which the B/A price can go up before the transaction reverts.\r\n     * @param amountBMin - Bounds the extent to which the A/B price can go up before the transaction reverts.\r\n     * @param recipient - Address which will receive the deposit.\r\n     \r\n     * @return sentA - Token A amount sent to the farm.\r\n     * @return sentB - Token B amount sent to the farm.\r\n     * @return liquidity - Total liquidity sent to the farm (in lpTokens).\r\n     */\r\n    function deposit(address lpPair, uint256 amountA, uint256 amountB, uint256 amountAMin, uint256 amountBMin, address recipient) external whenNotPaused returns(uint256 sentA, uint256 sentB, uint256 liquidity){\r\n        require(amountA > 0 && amountB > 0, \"NO_TOKENS_SENT\");\r\n        Farm farm = Farm(farmFactory.Farms(lpPair));\r\n        if(farm == Farm(address(0))){\r\n            farm = Farm(farmFactory.createFarm(lpPair));\r\n        }\r\n\r\n        address tokenA = farm.tokenA();\r\n        address tokenB = farm.tokenB();\r\n        IBEP20(tokenA).safeTransferFrom(msg.sender, address(this), amountA);\r\n        IBEP20(tokenB).safeTransferFrom(msg.sender, address(this), amountB);\r\n\r\n        (sentA, sentB, liquidity) = _addLiquidity(tokenA, tokenB, amountA, amountB, amountAMin, amountBMin, address(farm));\r\n        farm.deposit(liquidity, recipient);\r\n\r\n        emit Deposit(lpPair, msg.sender, recipient, liquidity); \r\n    }\r\n\r\n    /**\r\n     * @dev Autoconverts BNB into WBNB and deposits tokens in the given pool. Creates new Farm contract if there isn't one deployed for the {lpStakingPool} and deposits tokens in it. Emits a {Deposit} event.\r\n     * @param lpPair - Address of the pool to deposit tokens in.\r\n     * @param amountToken  - Token amount to deposit.\r\n     * @param amountTokenMin - Bounds the extent to which the TOKEN/WBNB price can go up before the transaction reverts.\r\n     * @param amountETHMin - Bounds the extent to which the WBNB/TOKEN price can go up before the transaction reverts.\r\n     * @param recipient - Address which will receive the deposit.\r\n     \r\n     * @return sentToken - Token amount sent to the farm.\r\n     * @return sentETH - WBNB amount sent to the farm.\r\n     * @return liquidity - Total liquidity sent to the farm (in lpTokens).\r\n     */\r\n    function depositETH(address lpPair, uint256 amountToken, uint256 amountTokenMin, uint256 amountETHMin, address recipient) external payable whenNotPaused returns(uint256 sentToken, uint256 sentETH, uint256 liquidity){\r\n        require(msg.value > 0, \"NO_BNB_SENT\");\r\n        require(amountToken > 0, \"NO_TOKEN_SENT\");\r\n        Farm farm = Farm(farmFactory.Farms(lpPair));\r\n        if(farm == Farm(address(0))){\r\n            farm = Farm(farmFactory.createFarm(lpPair));\r\n        }\r\n\r\n        address tokenA = farm.tokenA();\r\n        address tokenB = farm.tokenB();\r\n        if (tokenA == WBNB) {\r\n            IBEP20(tokenB).safeTransferFrom(msg.sender, address(this), amountToken);\r\n            (sentToken, sentETH, liquidity) = _addLiquidityETH(tokenB, amountToken, amountTokenMin, amountETHMin, address(farm));\r\n        } else if (tokenB == WBNB) {\r\n            IBEP20(tokenA).safeTransferFrom(msg.sender, address(this), amountToken);\r\n            (sentToken, sentETH, liquidity) = _addLiquidityETH(tokenA, amountToken, amountTokenMin, amountETHMin, address(farm));\r\n        } else {\r\n            revert(\"NOT_WBNB_POOL\");\r\n        }\r\n        farm.deposit(liquidity, recipient);\r\n\r\n        emit Deposit(lpPair, msg.sender, recipient, liquidity);\r\n    }\r\n\r\n    /**\r\n     * @dev Deposits single token in the given pool. Creates new Farm contract if there isn't one deployed for the {lpPair}, swaps {token} for pool tokens and deposits them. Emits a {Deposit} event.\r\n     * @param lpPair - Address of the pool to deposit tokens in.\r\n     * @param token  - Address of a token to enter the pool.\r\n     * @param amount - Amount of token sent.\r\n     * @param swapData - Parameter with which 1inch router is being called with.\r\n     * @param amountAMin - Bounds the extent to which the B/A price can go up before the transaction reverts.\r\n     * @param amountBMin - Bounds the extent to which the A/B price can go up before the transaction reverts.\r\n     * @param recipient - Address which will receive the deposit.\r\n     \r\n     * @return sent - Total {token} amount sent to the farm. NOTE: Returns dust left from swap in {token}, but if A/B amounts are not correct also returns dust in pool's tokens.\r\n     * @return liquidity - Total liquidity sent to the farm (in lpTokens).\r\n     */\r\n    function depositSingleAsset(address lpPair, address token, uint256 amount, bytes[2] calldata swapData, uint256 amountAMin, uint256 amountBMin, address recipient) external whenNotPaused returns(uint256 sent, uint256 liquidity){\r\n        require(amount > 0, \"NO_TOKEN_SENT\");\r\n        Farm farm = Farm(farmFactory.Farms(lpPair));\r\n        if(farm == Farm(address(0))){\r\n            farm = Farm(farmFactory.createFarm(lpPair));\r\n        }\r\n\r\n        IBEP20(token).safeTransferFrom(msg.sender, address(this), amount);\r\n        IBEP20(token).approve(OneInchRouter, amount);\r\n\r\n        sent = amount;\r\n        uint256 amountA;\r\n        uint256 amountB;\r\n        address tokenA = farm.tokenA();\r\n        address tokenB = farm.tokenB();\r\n\r\n        if (tokenA != token) {\r\n            (uint256 returnAmount, uint256 spentAmount) = _swap(swapData[0], tokenA);\r\n            amount -= spentAmount;\r\n            amountA = returnAmount;\r\n        }\r\n        if (tokenB != token) {\r\n            (uint256 returnAmount, uint256 spentAmount) = _swap(swapData[1], tokenB);\r\n            amount -= spentAmount;\r\n            amountB = returnAmount;\r\n        }\r\n\r\n        if (tokenA == token) {\r\n            amountA = amount;\r\n        } else if (tokenB == token) {\r\n            amountB = amount;\r\n        } else if(amount > 0) {\r\n            sent -= amount;\r\n            IBEP20(token).safeTransfer(msg.sender, amount);\r\n        }\r\n\r\n        require(amountA > 0 && amountB > 0, \"NO_TOKENS_SENT\");\r\n        (,,liquidity) = _addLiquidity(tokenA, tokenB, amountA, amountB, amountAMin, amountBMin, address(farm));\r\n        farm.deposit(liquidity, recipient);\r\n        \r\n        emit Deposit(lpPair, msg.sender, recipient, liquidity);\r\n    }\r\n     \r\n    /**\r\n     * @dev Deposits single BNB in the given pool. Creates new Farm contract if there isn't one deployed for the {lpPair}, swaps BNB for pool tokens and deposits them. Emits a {Deposit} event.\r\n     * @param lpPair - Address of the pool to deposit tokens in.\r\n     * @param swapData - Parameter with which 1inch router is being called with. NOTE: Use WBNB as toToken.\r\n     * @param amountAMin - Bounds the extent to which the B/A price can go up before the transaction reverts.\r\n     * @param amountBMin - Bounds the extent to which the A/B price can go up before the transaction reverts.\r\n     * @param recipient - Address which will receive the deposit.\r\n     \r\n     * @return sentETH - Total BNB amount sent to the farm. NOTE: Returns dust left from swap in BNB, but if A/B amount are not correct also returns dust in pool's tokens.\r\n     * @return liquidity - Total liquidity sent to the farm (in lpTokens).\r\n     */\r\n    function depositSingleETH(address lpPair, bytes[2] calldata swapData, uint256 amountAMin, uint256 amountBMin, address recipient) external payable whenNotPaused returns(uint256 sentETH, uint256 liquidity){\r\n        require(msg.value > 0, \"NO_BNB_SENT\");\r\n        Farm farm = Farm(farmFactory.Farms(lpPair));\r\n        if(farm == Farm(address(0))){\r\n            farm = Farm(farmFactory.createFarm(lpPair));\r\n        }\r\n\r\n        uint256 amount = msg.value;\r\n        IWBNB(WBNB).deposit{value: amount}();\r\n        IBEP20(WBNB).approve(OneInchRouter, amount);\r\n\r\n        sentETH = amount;\r\n        uint256 amountA;\r\n        uint256 amountB;\r\n        address tokenA = farm.tokenA();\r\n        address tokenB = farm.tokenB();\r\n\r\n        if (tokenA != WBNB) {\r\n            (uint256 returnAmount, uint256 spentAmount) = _swap(swapData[0], tokenA);\r\n            amount -= spentAmount;\r\n            amountA = returnAmount;\r\n        }\r\n        if (tokenB != WBNB) {\r\n            (uint256 returnAmount, uint256 spentAmount) = _swap(swapData[1], tokenB);\r\n            amount -= spentAmount;\r\n            amountB = returnAmount;\r\n        }\r\n\r\n        if (tokenA == WBNB) {\r\n            amountA = amount;\r\n        } else if (tokenB == WBNB) {\r\n            amountB = amount;\r\n        } else if (amount > 0) {\r\n            sentETH -= amount;\r\n            IWBNB(WBNB).withdraw(amount);\r\n            payable(msg.sender).transfer(amount);\r\n        }\r\n\r\n        require(amountA > 0 && amountB > 0, \"NO_TOKENS_SENT\");\r\n        (,,liquidity) = _addLiquidity(tokenA, tokenB, amountA, amountB, amountAMin, amountBMin, address(farm));\r\n        farm.deposit(liquidity, recipient);\r\n\r\n        emit Deposit(lpPair, msg.sender, recipient, liquidity);\r\n    }\r\n\r\n    /**\r\n     * @dev Deposits tokens in the given pool. Creates new Farm contract if there isn't one deployed for the {lpPair} and deposits tokens in it. Emits a {Deposit} event.\r\n     * @param lpPair - Address of the pool to deposit tokens in.\r\n     * @param amount - LP Token amount to deposit.\r\n     * @param recipient - Address which will receive the deposit.\r\n     */\r\n    function depositLP(address lpPair, uint256 amount, address recipient) external whenNotPaused{\r\n        require(amount > 0, \"NO_TOKEN_SENT\");\r\n        Farm farm = Farm(farmFactory.Farms(lpPair));\r\n        if(farm == Farm(address(0))){\r\n            farm = Farm(farmFactory.createFarm(lpPair));\r\n        }\r\n\r\n        IBEP20(lpPair).safeTransferFrom(msg.sender, address(farm), amount);\r\n        farm.deposit(amount, recipient);\r\n\r\n        emit Deposit(lpPair, msg.sender, recipient, amount); \r\n    }\r\n\r\n    /** \r\n     * @dev Withdraws a pair of tokens from the given pool. Emits a {Withdraw} event.\r\n     * @param lpPair - LP pool to withdraw from.\r\n     * @param amount - LP amount to withdraw. \r\n     * @param amountAMin - The minimum amount of tokenA that must be received for the transaction not to revert.\r\n     * @param amountBMin - The minimum amount of tokenB that must be received for the transaction not to revert.\r\n     * @param recipient - The address which will receive tokens.\r\n\r\n     * @return amountA - Token A amount sent to the {recipient}\r\n     * @return amountB - Token B amount sent to the {recipient}\r\n     */ \r\n    function withdraw(address lpPair, uint256 amount, uint256 amountAMin, uint256 amountBMin, address recipient) external returns(uint256 amountA, uint256 amountB){\r\n        Farm farm = Farm(farmFactory.Farms(lpPair));\r\n        require(farm != Farm(address(0)),'FARM_NOT_EXISTS');\r\n\r\n        farm.withdraw(amount, msg.sender, address(this));\r\n        (amountA, amountB) = _removeLiquidity(lpPair, farm.tokenA(), farm.tokenB(), amount, amountAMin, amountBMin, recipient);\r\n        \r\n        emit Withdraw(lpPair, msg.sender, recipient, amount);  \r\n    }\r\n\r\n    /** \r\n     * @dev Autoconverts WBNB into BNB and withdraws tokens from the pool. Emits a {Withdraw} event.\r\n     * @param lpPair - LP pool to withdraw from.\r\n     * @param amount - LP amount to withdraw. \r\n     * @param amountTokenMin - The minimum amount of token that must be received for the transaction not to revert.\r\n     * @param amountETHMin - The minimum amount of BNB that must be received for the transaction not to revert.\r\n     * @param recipient - The address which will receive tokens.\r\n\r\n     * @return amountToken - Token amount sent to the {recipient}.\r\n     * @return amountETH - BNB amount sent to the {recipient}.\r\n     */ \r\n    function withdrawETH(address lpPair, uint256 amount, uint256 amountTokenMin, uint256 amountETHMin, address recipient) external returns(uint256 amountToken, uint256 amountETH){\r\n        Farm farm = Farm(farmFactory.Farms(lpPair));\r\n        require(farm != Farm(address(0)),'FARM_NOT_EXISTS');\r\n\r\n        address tokenA = farm.tokenA();\r\n        address tokenB = farm.tokenB();\r\n\r\n        farm.withdraw(amount, msg.sender, address(this));\r\n        if (tokenA == WBNB) {\r\n            (amountToken, amountETH) = _removeLiquidityETH(lpPair, tokenB, amount, amountTokenMin, amountETHMin, recipient);\r\n        } else if (tokenB == WBNB) {\r\n            (amountToken, amountETH) = _removeLiquidityETH(lpPair, tokenA, amount, amountTokenMin, amountETHMin, recipient);\r\n        } else {\r\n            revert(\"NOT_WBNB_POOL\");\r\n        }\r\n\r\n        emit Withdraw(lpPair, msg.sender, recipient, amount);\r\n    }\r\n\r\n    /**\r\n     * @dev Withdraws single token from the given pool. Emits a {Withdraw} event. Note: If there are any tokens left to be withdrawn after swaps they will be sent to the {{recipient}} in a respective token (not in {token}).\r\n     * @param lpPair - LP pool to withdraw from.\r\n     * @param amount - LP amount to withdraw. \r\n     * @param token  - Address of a token to exit the pool with.\r\n     * @param swapData - Parameter with which 1inch router is being called with.\r\n     * @param recipient - Address which will receive the deposit.\r\n     \r\n     * @return amountToken - {token} amount sent to the {recipient}.\r\n     * @return amountA - Token A dust sent to the {recipient}.\r\n     * @return amountB - Token B dust sent to the {recipient}.\r\n     */\r\n    function withdrawSingleAsset(address lpPair, uint256 amount, address token, bytes[2] calldata swapData, address recipient) external returns(uint256 amountToken, uint256 amountA, uint256 amountB){\r\n        Farm farm = Farm(farmFactory.Farms(lpPair));\r\n        require(farm != Farm(address(0)),'FARM_NOT_EXISTS');\r\n\r\n        farm.withdraw(amount, msg.sender, address(this));\r\n\r\n        address tokenA = farm.tokenA();\r\n        address tokenB = farm.tokenB();\r\n        (amountA, amountB) = _removeLiquidity(lpPair, tokenA, tokenB, amount, 0, 0, address(this));\r\n\r\n        if (tokenA != token) {\r\n            IBEP20(tokenA).approve(OneInchRouter, amountA);\r\n            (uint256 returnAmount, uint256 spentAmount) = _swap(swapData[0], token);\r\n            amountToken += returnAmount;\r\n\r\n            amountA = amountA - spentAmount;\r\n            if(amountA > 0){\r\n                IBEP20(tokenA).safeTransfer(recipient, amountA);\r\n            }\r\n        } else {\r\n            amountToken += amountA;\r\n            amountA = 0;\r\n        }\r\n\r\n        if (tokenB != token) {\r\n            IBEP20(tokenB).approve(OneInchRouter, amountB);\r\n            (uint256 returnAmount, uint256 spentAmount) = _swap(swapData[1], token);\r\n            amountToken += returnAmount;\r\n\r\n            amountB = amountB - spentAmount;\r\n            if(amountB > 0){\r\n                IBEP20(tokenB).safeTransfer(recipient, amountB);\r\n            }\r\n        } else {\r\n            amountToken += amountB;\r\n            amountB = 0;\r\n        }\r\n\r\n        IBEP20(token).safeTransfer(recipient, amountToken);\r\n\r\n        emit Withdraw(lpPair, msg.sender, recipient, amount);\r\n    }\r\n     \r\n    /**\r\n     * @dev Withdraws single BNB from the given pool. Emits a {Withdraw} event. Note: If there are any tokens left to be withdrawn after swaps they will be sent to the {{recipient}} in a respective token (not in BNB).\r\n     * @param lpPair - LP pool to withdraw from.\r\n     * @param amount - LP amount to withdraw. \r\n     * @param swapData - Parameter with which 1inch router is being called with.\r\n     * @param recipient - Address which will receive the deposit.\r\n     \r\n     * @return amountETH - BNB amount sent to the {recipient}.\r\n     * @return amountA - Token A dust sent to the {recipient}.\r\n     * @return amountB - Token B dust sent to the {recipient}.\r\n     */\r\n    function withdrawSingleETH(address lpPair, uint256 amount, bytes[2] calldata swapData, address recipient) external returns(uint256 amountETH, uint256 amountA, uint256 amountB){\r\n        Farm farm = Farm(farmFactory.Farms(lpPair));\r\n        require(farm != Farm(address(0)),'FARM_NOT_EXISTS');\r\n\r\n        farm.withdraw(amount, msg.sender, address(this));\r\n\r\n        address tokenA = farm.tokenA();\r\n        address tokenB = farm.tokenB();\r\n        (amountA, amountB) = _removeLiquidity(lpPair, tokenA, tokenB, amount, 0, 0, address(this));\r\n\r\n        if (tokenA != WBNB) {\r\n            IBEP20(tokenA).approve(OneInchRouter, amountA);\r\n            (uint256 returnAmount, uint256 spentAmount) = _swap(swapData[0], WBNB);\r\n            amountETH += returnAmount;\r\n\r\n            amountA = amountA - spentAmount;\r\n            if(amountA > 0){\r\n                IBEP20(tokenA).safeTransfer(recipient, amountA);\r\n            }\r\n        } else {\r\n            amountETH += amountA;\r\n            amountA = 0;\r\n        }\r\n\r\n        if (tokenB != WBNB) {\r\n            IBEP20(tokenB).approve(OneInchRouter, amountB);\r\n            (uint256 returnAmount, uint256 spentAmount) = _swap(swapData[1], WBNB);\r\n            amountETH += returnAmount;\r\n\r\n            amountB = amountB - spentAmount;\r\n            if(amountB > 0){\r\n                IBEP20(tokenB).safeTransfer(recipient, amountB);\r\n            }\r\n        } else {\r\n            amountETH += amountB;\r\n            amountB = 0;\r\n        }\r\n\r\n        IWBNB(WBNB).withdraw(amountETH);\r\n        payable(recipient).transfer(amountETH);\r\n\r\n        emit Withdraw(lpPair, msg.sender, recipient, amount);\r\n    }\r\n\r\n    /** \r\n     * @dev Withdraws LP tokens from the given pool. Emits a {Withdraw} event.\r\n     * @param lpPair - LP pool to withdraw from.\r\n     * @param amount - LP amount to withdraw. \r\n     * @param recipient - The address which will receive tokens.\r\n     */ \r\n    function withdrawLP(address lpPair, uint256 amount, address recipient) external {\r\n        Farm farm = Farm(farmFactory.Farms(lpPair));\r\n        require(farm != Farm(address(0)),'FARM_NOT_EXISTS');\r\n        \r\n        farm.withdraw(amount, msg.sender, recipient);\r\n        emit Withdraw(lpPair, msg.sender, recipient, amount);  \r\n    }\r\n\r\n    /**\r\n     * @dev Distributes tokens between users.\r\n     * @param lpPair - LP pool to distribute tokens in.\r\n     * @param swapInfos - Arrays of structs with token arrays describing swap routes (rewardTokenToTokenA, rewardTokenToTokenB, rewarderTokenToTokenA, rewarderTokenToTokenB) and minimum amounts of output tokens that must be received for the transaction not to revert.\r\n     * @param feeSwapInfo - Struct with token arrays describing swap route (rewardTokenToFeeToken, rewarderTokenToFeeToken) and minimum amounts of output tokens that must be received for the transaction not to revert.\r\n     * @param feeTo - Address to collect fees to.\r\n     *\r\n     * Note: This function can only be called by the distributor.\r\n     */ \r\n    function distribute(\r\n        address lpPair,\r\n        Farm.SwapInfo[2] calldata swapInfos,\r\n        Farm.SwapInfo calldata feeSwapInfo,\r\n        address feeTo\r\n    ) external whenNotPaused onlyRole(DISTRIBUTOR_ROLE) {\r\n        Farm farm = Farm(farmFactory.Farms(lpPair));\r\n        require(farm != Farm(address(0)), 'FARM_NOT_EXISTS');\r\n\r\n        uint256 reward = farm.distribute(swapInfos, feeSwapInfo, Farm.FeeInfo(feeTo, fee));\r\n        emit Distribute(lpPair, reward);\r\n    }\r\n\r\n    /**\r\n     * @dev Returns tokens staked by the {_address} for the given {lpPair}.\r\n     * @param _address - The address to check stakes for.\r\n     * @param lpPair - LP pool to check stakes in.\r\n\r\n     * @return stakeLP - Total user stake(in LP tokens).\r\n     * @return stakeA - Token A stake.\r\n     * @return stakeB - Token B stake.\r\n     */\r\n    function userStake(address _address, address lpPair) external view returns (uint256 stakeLP, uint256 stakeA, uint256 stakeB) {\r\n        Farm farm = Farm(farmFactory.Farms(lpPair));\r\n        if (farm != Farm(address(0))) {\r\n            stakeLP = farm.userBalance(_address);\r\n            (stakeA, stakeB) = _getTokenStake(lpPair, stakeLP);\r\n        }\r\n    }\r\n\r\n    /**\r\n     * @dev Returns total amount locked in the pool. Doesn't take pending rewards into account.\r\n     * @param lpPair - LP pool to check total deposits in.\r\n\r\n     * @return totalDepositsLP - Total deposits (in LP tokens).\r\n     * @return totalDepositsA - Token A deposits.\r\n     * @return totalDepositsB - Token B deposits.\r\n     */  \r\n    function totalDeposits(address lpPair) external view returns (uint256 totalDepositsLP, uint256 totalDepositsA, uint256 totalDepositsB) {\r\n        Farm farm = Farm(farmFactory.Farms(lpPair));\r\n        if (farm != Farm(address(0))) {\r\n            totalDepositsLP = farm.getTotalDeposits(); \r\n            (totalDepositsA, totalDepositsB) = _getTokenStake(lpPair, totalDepositsLP);\r\n        }\r\n    }\r\n\r\n    /**\r\n     * @dev Returns addresses of tokens in {lpPair}.\r\n     * @param lpPair - LP pair to check tokens in.\r\n\r\n     * @return tokens - Tokens addresses.\r\n     */  \r\n    function getTokens(address lpPair) external view returns(IBEP20[] memory tokens){\r\n        tokens = new IBEP20[](2);\r\n        tokens[0] = IBEP20(IUniswapV2Pair(lpPair).token0());\r\n        tokens[1] = IBEP20(IUniswapV2Pair(lpPair).token1());\r\n    }\r\n\r\n    /**\r\n     * @dev Deposits assets to router & refunds dust.\r\n     */ \r\n    function _addLiquidity(\r\n        address tokenA,\r\n        address tokenB, \r\n        uint256 amountA, \r\n        uint256 amountB, \r\n        uint256 amountAMin, \r\n        uint256 amountBMin, \r\n        address farm\r\n    ) internal returns(uint256 sentA, uint256 sentB, uint256 liquidity){\r\n        IBEP20(tokenA).approve(address(ApeswapRouter), amountA);\r\n        IBEP20(tokenB).approve(address(ApeswapRouter), amountB);\r\n\r\n        (sentA, sentB, liquidity) = ApeswapRouter.addLiquidity(tokenA, tokenB, amountA, amountB, amountAMin, amountBMin, farm, block.timestamp);\r\n        // Refund dust\r\n        if(amountA > sentA){\r\n            IBEP20(tokenA).safeTransfer(msg.sender, amountA - sentA);\r\n        }\r\n        if(amountB > sentB){\r\n\t\t    IBEP20(tokenB).safeTransfer(msg.sender, amountB - sentB);\r\n        }\r\n    }\r\n\r\n    /**\r\n     * @dev Deposits assets to router & refunds dust.\r\n     */ \r\n    function _addLiquidityETH(\r\n        address token,\r\n        uint256 amount, \r\n        uint256 amountTokenMin, \r\n        uint256 amountETHMin, \r\n        address farm\r\n    ) internal returns(uint256 sentToken, uint256 sentETH, uint256 liquidity){\r\n        IBEP20(token).approve(address(ApeswapRouter), amount);\r\n\r\n        (sentToken, sentETH, liquidity) = ApeswapRouter.addLiquidityETH{value: msg.value}(token, amount, amountTokenMin, amountETHMin, farm, block.timestamp);\r\n        // Refund dust\r\n        if(amount > sentToken){\r\n            IBEP20(token).safeTransfer(msg.sender, amount - sentToken);\r\n        }\r\n        if(msg.value > sentETH){\r\n            payable(msg.sender).transfer(msg.value - sentETH);\r\n        }\r\n    }   \r\n    \r\n    /**\r\n     * @dev Withdraws assets from router.\r\n     */ \r\n    function _removeLiquidity(\r\n        address lpPair,\r\n        address tokenA,\r\n        address tokenB, \r\n        uint256 amount, \r\n        uint256 amountAMin, \r\n        uint256 amountBMin, \r\n        address recipient\r\n    ) internal returns(uint256 amountA, uint256 amountB){\r\n        IBEP20(lpPair).approve(address(ApeswapRouter), amount);\r\n        (amountA, amountB) = ApeswapRouter.removeLiquidity(tokenA, tokenB, amount, amountAMin, amountBMin, recipient, block.timestamp);\r\n    }\r\n\r\n    /**\r\n     * @dev Withdraws assets from router.\r\n     */ \r\n    function _removeLiquidityETH(\r\n        address lpPair,\r\n        address token,\r\n        uint256 amount, \r\n        uint256 amountTokenMin, \r\n        uint256 amountETHMin, \r\n        address recipient\r\n    ) internal returns(uint256 amountToken, uint256 amountETH){\r\n        IBEP20(lpPair).approve(address(ApeswapRouter), amount);\r\n        (amountToken, amountETH) = ApeswapRouter.removeLiquidityETH(token, amount, amountTokenMin, amountETHMin, recipient, block.timestamp);\r\n    }\r\n\r\n    /**\r\n     * @dev Swaps assets using 1inch exchange.\r\n     */  \r\n    function _swap(bytes calldata swapData, address toToken) internal returns(uint256 returnAmount, uint256 spentAmount){\r\n        uint256 balanceBefore = IBEP20(toToken).balanceOf(address(this));\r\n        (bool success, bytes memory data) = OneInchRouter.call(swapData);\r\n        require(success, \"SWAP_NOT_SUCCESSFUL\");\r\n\r\n        (returnAmount, spentAmount) = abi.decode(data, (uint256, uint256));\r\n        //checks if all {{toToken}}s from swap were transfered to this address\r\n        uint256 balanceAfter = IBEP20(toToken).balanceOf(address(this));\r\n        require(balanceAfter - balanceBefore == returnAmount, \"BAD_RETURN_AMOUNT\");\r\n    }\r\n\r\n    /**\r\n     * @dev Converts LP tokens to normal tokens, value(amountA) == value(amountB) == 0.5*amountLP\r\n     * @param lpPair - LP pair for conversion.\r\n     * @param amountLP - Amount of LP tokens to convert.\r\n\r\n     * @return amountA - Token A amount.\r\n     * @return amountB - Token B amount.\r\n     */ \r\n    function _getTokenStake(address lpPair, uint256 amountLP) internal view returns (uint256 amountA, uint256 amountB) {\r\n        uint256 totalSupply = IBEP20(lpPair).totalSupply();\r\n        amountA = amountLP * IBEP20(IUniswapV2Pair(lpPair).token0()).balanceOf(lpPair) / totalSupply;\r\n        amountB = amountLP * IBEP20(IUniswapV2Pair(lpPair).token1()).balanceOf(lpPair) / totalSupply;\r\n    }\r\n\r\n    /**\r\n     * @dev Change fee amount.\r\n     * @param _fee -New fee to collect from farms. [10^18 == 100%]\r\n     *\r\n     * Note: This function can only be called by ADMIN_ROLE.\r\n     */ \r\n    function setFee(uint256 _fee) external onlyRole(accessManager.ADMIN_ROLE()){\r\n        require (_fee <= 1 ether, \"BAD_FEE\");\r\n        if(fee != _fee){\r\n            emit FeeChanged(fee, _fee); \r\n            fee = _fee;\r\n        }\r\n    }\r\n \r\n    function pause() external onlyRole(PAUSER_ROLE) {\r\n        _pause();\r\n    }\r\n\r\n    function unpause() external onlyRole(PAUSER_ROLE) {\r\n        _unpause();\r\n    }\r\n\r\n    function _authorizeUpgrade(address) internal override onlyRole(accessManager.ADMIN_ROLE()) {\r\n\r\n    }\r\n}\r\n",
  "sourcePath": "C:\\Users\\jugli\\Desktop\\uno\\uno-contracts-bsc\\contracts\\apps\\apeswap\\UnoAssetRouterApeswap.sol",
  "compiler": {
    "name": "solc",
    "version": "0.8.10+commit.fc410830.Emscripten.clang"
  },
  "schemaVersion": "3.4.13",
  "updatedAt": "2023-05-25T07:52:57.022Z",
  "devdoc": {
    "kind": "dev",
    "methods": {
      "constructor": {
        "custom:oz-upgrades-unsafe-allow": "constructor"
      },
      "deposit(address,uint256,uint256,uint256,uint256,address)": {
        "details": "Deposits tokens in the given pool. Creates new Farm contract if there isn't one deployed for the {lpPair} and deposits tokens in it. Emits a {Deposit} event.",
        "params": {
          "amountA": "- Token A amount to deposit.",
          "amountAMin": "- Bounds the extent to which the B/A price can go up before the transaction reverts.",
          "amountB": "-  Token B amount to deposit.",
          "amountBMin": "- Bounds the extent to which the A/B price can go up before the transaction reverts.",
          "lpPair": "- Address of the pool to deposit tokens in.",
          "recipient": "- Address which will receive the deposit."
        },
        "returns": {
          "liquidity": "- Total liquidity sent to the farm (in lpTokens).",
          "sentA": "- Token A amount sent to the farm.",
          "sentB": "- Token B amount sent to the farm."
        }
      },
      "depositETH(address,uint256,uint256,uint256,address)": {
        "details": "Autoconverts BNB into WBNB and deposits tokens in the given pool. Creates new Farm contract if there isn't one deployed for the {lpStakingPool} and deposits tokens in it. Emits a {Deposit} event.",
        "params": {
          "amountETHMin": "- Bounds the extent to which the WBNB/TOKEN price can go up before the transaction reverts.",
          "amountToken": "- Token amount to deposit.",
          "amountTokenMin": "- Bounds the extent to which the TOKEN/WBNB price can go up before the transaction reverts.",
          "lpPair": "- Address of the pool to deposit tokens in.",
          "recipient": "- Address which will receive the deposit."
        },
        "returns": {
          "liquidity": "- Total liquidity sent to the farm (in lpTokens).",
          "sentETH": "- WBNB amount sent to the farm.",
          "sentToken": "- Token amount sent to the farm."
        }
      },
      "depositLP(address,uint256,address)": {
        "details": "Deposits tokens in the given pool. Creates new Farm contract if there isn't one deployed for the {lpPair} and deposits tokens in it. Emits a {Deposit} event.",
        "params": {
          "amount": "- LP Token amount to deposit.",
          "lpPair": "- Address of the pool to deposit tokens in.",
          "recipient": "- Address which will receive the deposit."
        }
      },
      "depositSingleAsset(address,address,uint256,bytes[2],uint256,uint256,address)": {
        "details": "Deposits single token in the given pool. Creates new Farm contract if there isn't one deployed for the {lpPair}, swaps {token} for pool tokens and deposits them. Emits a {Deposit} event.",
        "params": {
          "amount": "- Amount of token sent.",
          "amountAMin": "- Bounds the extent to which the B/A price can go up before the transaction reverts.",
          "amountBMin": "- Bounds the extent to which the A/B price can go up before the transaction reverts.",
          "lpPair": "- Address of the pool to deposit tokens in.",
          "recipient": "- Address which will receive the deposit.",
          "swapData": "- Parameter with which 1inch router is being called with.",
          "token": "- Address of a token to enter the pool."
        },
        "returns": {
          "liquidity": "- Total liquidity sent to the farm (in lpTokens).",
          "sent": "- Total {token} amount sent to the farm. NOTE: Returns dust left from swap in {token}, but if A/B amounts are not correct also returns dust in pool's tokens."
        }
      },
      "depositSingleETH(address,bytes[2],uint256,uint256,address)": {
        "details": "Deposits single BNB in the given pool. Creates new Farm contract if there isn't one deployed for the {lpPair}, swaps BNB for pool tokens and deposits them. Emits a {Deposit} event.",
        "params": {
          "amountAMin": "- Bounds the extent to which the B/A price can go up before the transaction reverts.",
          "amountBMin": "- Bounds the extent to which the A/B price can go up before the transaction reverts.",
          "lpPair": "- Address of the pool to deposit tokens in.",
          "recipient": "- Address which will receive the deposit.",
          "swapData": "- Parameter with which 1inch router is being called with. NOTE: Use WBNB as toToken."
        },
        "returns": {
          "liquidity": "- Total liquidity sent to the farm (in lpTokens).",
          "sentETH": "- Total BNB amount sent to the farm. NOTE: Returns dust left from swap in BNB, but if A/B amount are not correct also returns dust in pool's tokens."
        }
      },
      "distribute(address,(address[],uint256)[2],(address[],uint256),address)": {
        "details": "Distributes tokens between users.",
        "params": {
          "feeSwapInfo": "- Struct with token arrays describing swap route (rewardTokenToFeeToken, rewarderTokenToFeeToken) and minimum amounts of output tokens that must be received for the transaction not to revert.",
          "feeTo": "- Address to collect fees to. Note: This function can only be called by the distributor.",
          "lpPair": "- LP pool to distribute tokens in.",
          "swapInfos": "- Arrays of structs with token arrays describing swap routes (rewardTokenToTokenA, rewardTokenToTokenB, rewarderTokenToTokenA, rewarderTokenToTokenB) and minimum amounts of output tokens that must be received for the transaction not to revert."
        }
      },
      "getTokens(address)": {
        "details": "Returns addresses of tokens in {lpPair}.",
        "params": {
          "lpPair": "- LP pair to check tokens in."
        },
        "returns": {
          "tokens": "- Tokens addresses."
        }
      },
      "paused()": {
        "details": "Returns true if the contract is paused, and false otherwise."
      },
      "proxiableUUID()": {
        "details": "Implementation of the ERC1822 {proxiableUUID} function. This returns the storage slot used by the implementation. It is used to validate that the this implementation remains valid after an upgrade. IMPORTANT: A proxy pointing at a proxiable contract should not be considered proxiable itself, because this risks bricking a proxy that upgrades to it, by delegating to itself until out of gas. Thus it is critical that this function revert if invoked through a proxy. This is guaranteed by the `notDelegated` modifier."
      },
      "setFee(uint256)": {
        "details": "Change fee amount.",
        "params": {
          "_fee": "-New fee to collect from farms. [10^18 == 100%] Note: This function can only be called by ADMIN_ROLE."
        }
      },
      "totalDeposits(address)": {
        "details": "Returns total amount locked in the pool. Doesn't take pending rewards into account.",
        "params": {
          "lpPair": "- LP pool to check total deposits in."
        },
        "returns": {
          "totalDepositsA": "- Token A deposits.",
          "totalDepositsB": "- Token B deposits.",
          "totalDepositsLP": "- Total deposits (in LP tokens)."
        }
      },
      "upgradeTo(address)": {
        "details": "Upgrade the implementation of the proxy to `newImplementation`. Calls {_authorizeUpgrade}. Emits an {Upgraded} event."
      },
      "upgradeToAndCall(address,bytes)": {
        "details": "Upgrade the implementation of the proxy to `newImplementation`, and subsequently execute the function call encoded in `data`. Calls {_authorizeUpgrade}. Emits an {Upgraded} event."
      },
      "userStake(address,address)": {
        "details": "Returns tokens staked by the {_address} for the given {lpPair}.",
        "params": {
          "_address": "- The address to check stakes for.",
          "lpPair": "- LP pool to check stakes in."
        },
        "returns": {
          "stakeA": "- Token A stake.",
          "stakeB": "- Token B stake.",
          "stakeLP": "- Total user stake(in LP tokens)."
        }
      },
      "withdraw(address,uint256,uint256,uint256,address)": {
        "details": "Withdraws a pair of tokens from the given pool. Emits a {Withdraw} event.",
        "params": {
          "amount": "- LP amount to withdraw. ",
          "amountAMin": "- The minimum amount of tokenA that must be received for the transaction not to revert.",
          "amountBMin": "- The minimum amount of tokenB that must be received for the transaction not to revert.",
          "lpPair": "- LP pool to withdraw from.",
          "recipient": "- The address which will receive tokens."
        },
        "returns": {
          "amountA": "- Token A amount sent to the {recipient}",
          "amountB": "- Token B amount sent to the {recipient}"
        }
      },
      "withdrawETH(address,uint256,uint256,uint256,address)": {
        "details": "Autoconverts WBNB into BNB and withdraws tokens from the pool. Emits a {Withdraw} event.",
        "params": {
          "amount": "- LP amount to withdraw. ",
          "amountETHMin": "- The minimum amount of BNB that must be received for the transaction not to revert.",
          "amountTokenMin": "- The minimum amount of token that must be received for the transaction not to revert.",
          "lpPair": "- LP pool to withdraw from.",
          "recipient": "- The address which will receive tokens."
        },
        "returns": {
          "amountETH": "- BNB amount sent to the {recipient}.",
          "amountToken": "- Token amount sent to the {recipient}."
        }
      },
      "withdrawLP(address,uint256,address)": {
        "details": "Withdraws LP tokens from the given pool. Emits a {Withdraw} event.",
        "params": {
          "amount": "- LP amount to withdraw. ",
          "lpPair": "- LP pool to withdraw from.",
          "recipient": "- The address which will receive tokens."
        }
      },
      "withdrawSingleAsset(address,uint256,address,bytes[2],address)": {
        "details": "Withdraws single token from the given pool. Emits a {Withdraw} event. Note: If there are any tokens left to be withdrawn after swaps they will be sent to the {{recipient}} in a respective token (not in {token}).",
        "params": {
          "amount": "- LP amount to withdraw. ",
          "lpPair": "- LP pool to withdraw from.",
          "recipient": "- Address which will receive the deposit.",
          "swapData": "- Parameter with which 1inch router is being called with.",
          "token": "- Address of a token to exit the pool with."
        },
        "returns": {
          "amountA": "- Token A dust sent to the {recipient}.",
          "amountB": "- Token B dust sent to the {recipient}.",
          "amountToken": "- {token} amount sent to the {recipient}."
        }
      },
      "withdrawSingleETH(address,uint256,bytes[2],address)": {
        "details": "Withdraws single BNB from the given pool. Emits a {Withdraw} event. Note: If there are any tokens left to be withdrawn after swaps they will be sent to the {{recipient}} in a respective token (not in BNB).",
        "params": {
          "amount": "- LP amount to withdraw. ",
          "lpPair": "- LP pool to withdraw from.",
          "recipient": "- Address which will receive the deposit.",
          "swapData": "- Parameter with which 1inch router is being called with."
        },
        "returns": {
          "amountA": "- Token A dust sent to the {recipient}.",
          "amountB": "- Token B dust sent to the {recipient}.",
          "amountETH": "- BNB amount sent to the {recipient}."
        }
      }
    },
    "stateVariables": {
      "farmFactory": {
        "details": "Contract Variables: farmFactory - The contract that deploys new Farms and links them to {lpPair}s. accessManager - Role manager contract."
      }
    },
    "version": 1
  },
  "userdoc": {
    "kind": "user",
    "methods": {},
    "version": 1
  }
}