{
  "contractName": "UnoAssetRouterTrisolarisStandardV2",
  "abi": [
    {
      "anonymous": false,
      "inputs": [
        {
          "indexed": false,
          "internalType": "address",
          "name": "previousAdmin",
          "type": "address"
        },
        {
          "indexed": false,
          "internalType": "address",
          "name": "newAdmin",
          "type": "address"
        }
      ],
      "name": "AdminChanged",
      "type": "event"
    },
    {
      "anonymous": false,
      "inputs": [
        {
          "indexed": true,
          "internalType": "address",
          "name": "beacon",
          "type": "address"
        }
      ],
      "name": "BeaconUpgraded",
      "type": "event"
    },
    {
      "anonymous": false,
      "inputs": [
        {
          "indexed": true,
          "internalType": "address",
          "name": "lpPool",
          "type": "address"
        },
        {
          "indexed": true,
          "internalType": "address",
          "name": "sender",
          "type": "address"
        },
        {
          "indexed": true,
          "internalType": "address",
          "name": "recipient",
          "type": "address"
        },
        {
          "indexed": false,
          "internalType": "uint256",
          "name": "amount",
          "type": "uint256"
        }
      ],
      "name": "Deposit",
      "type": "event"
    },
    {
      "anonymous": false,
      "inputs": [
        {
          "indexed": true,
          "internalType": "address",
          "name": "lpPool",
          "type": "address"
        },
        {
          "indexed": false,
          "internalType": "uint256",
          "name": "reward",
          "type": "uint256"
        }
      ],
      "name": "Distribute",
      "type": "event"
    },
    {
      "anonymous": false,
      "inputs": [
        {
          "indexed": false,
          "internalType": "uint8",
          "name": "version",
          "type": "uint8"
        }
      ],
      "name": "Initialized",
      "type": "event"
    },
    {
      "anonymous": false,
      "inputs": [
        {
          "indexed": false,
          "internalType": "address",
          "name": "account",
          "type": "address"
        }
      ],
      "name": "Paused",
      "type": "event"
    },
    {
      "anonymous": false,
      "inputs": [
        {
          "indexed": false,
          "internalType": "address",
          "name": "account",
          "type": "address"
        }
      ],
      "name": "Unpaused",
      "type": "event"
    },
    {
      "anonymous": false,
      "inputs": [
        {
          "indexed": true,
          "internalType": "address",
          "name": "implementation",
          "type": "address"
        }
      ],
      "name": "Upgraded",
      "type": "event"
    },
    {
      "anonymous": false,
      "inputs": [
        {
          "indexed": true,
          "internalType": "address",
          "name": "lpPool",
          "type": "address"
        },
        {
          "indexed": true,
          "internalType": "address",
          "name": "sender",
          "type": "address"
        },
        {
          "indexed": true,
          "internalType": "address",
          "name": "recipient",
          "type": "address"
        },
        {
          "indexed": false,
          "internalType": "uint256",
          "name": "amount",
          "type": "uint256"
        }
      ],
      "name": "Withdraw",
      "type": "event"
    },
    {
      "inputs": [],
      "name": "accessManager",
      "outputs": [
        {
          "internalType": "contract IUnoAccessManager",
          "name": "",
          "type": "address"
        }
      ],
      "stateMutability": "view",
      "type": "function"
    },
    {
      "inputs": [],
      "name": "farmFactory",
      "outputs": [
        {
          "internalType": "contract IUnoFarmFactory",
          "name": "",
          "type": "address"
        }
      ],
      "stateMutability": "view",
      "type": "function"
    },
    {
      "inputs": [],
      "name": "paused",
      "outputs": [
        {
          "internalType": "bool",
          "name": "",
          "type": "bool"
        }
      ],
      "stateMutability": "view",
      "type": "function"
    },
    {
      "inputs": [],
      "name": "proxiableUUID",
      "outputs": [
        {
          "internalType": "bytes32",
          "name": "",
          "type": "bytes32"
        }
      ],
      "stateMutability": "view",
      "type": "function"
    },
    {
      "inputs": [
        {
          "internalType": "address",
          "name": "newImplementation",
          "type": "address"
        }
      ],
      "name": "upgradeTo",
      "outputs": [],
      "stateMutability": "nonpayable",
      "type": "function"
    },
    {
      "inputs": [
        {
          "internalType": "address",
          "name": "newImplementation",
          "type": "address"
        },
        {
          "internalType": "bytes",
          "name": "data",
          "type": "bytes"
        }
      ],
      "name": "upgradeToAndCall",
      "outputs": [],
      "stateMutability": "payable",
      "type": "function"
    },
    {
      "inputs": [],
      "name": "version",
      "outputs": [
        {
          "internalType": "uint256",
          "name": "",
          "type": "uint256"
        }
      ],
      "stateMutability": "view",
      "type": "function"
    },
    {
      "inputs": [
        {
          "internalType": "address",
          "name": "_accessManager",
          "type": "address"
        },
        {
          "internalType": "address",
          "name": "_farmFactory",
          "type": "address"
        }
      ],
      "name": "initialize",
      "outputs": [],
      "stateMutability": "nonpayable",
      "type": "function"
    },
    {
      "inputs": [
        {
          "internalType": "address",
          "name": "lpPair",
          "type": "address"
        },
        {
          "internalType": "uint256",
          "name": "amountA",
          "type": "uint256"
        },
        {
          "internalType": "uint256",
          "name": "amountB",
          "type": "uint256"
        },
        {
          "internalType": "uint256",
          "name": "amountAMin",
          "type": "uint256"
        },
        {
          "internalType": "uint256",
          "name": "amountBMin",
          "type": "uint256"
        },
        {
          "internalType": "uint256",
          "name": "amountLP",
          "type": "uint256"
        },
        {
          "internalType": "address",
          "name": "recipient",
          "type": "address"
        }
      ],
      "name": "deposit",
      "outputs": [
        {
          "internalType": "uint256",
          "name": "sentA",
          "type": "uint256"
        },
        {
          "internalType": "uint256",
          "name": "sentB",
          "type": "uint256"
        },
        {
          "internalType": "uint256",
          "name": "liquidity",
          "type": "uint256"
        }
      ],
      "stateMutability": "nonpayable",
      "type": "function"
    },
    {
      "inputs": [
        {
          "internalType": "address",
          "name": "lpPair",
          "type": "address"
        },
        {
          "internalType": "uint256",
          "name": "amount",
          "type": "uint256"
        },
        {
          "internalType": "uint256",
          "name": "amountAMin",
          "type": "uint256"
        },
        {
          "internalType": "uint256",
          "name": "amountBMin",
          "type": "uint256"
        },
        {
          "internalType": "bool",
          "name": "withdrawLP",
          "type": "bool"
        },
        {
          "internalType": "address",
          "name": "recipient",
          "type": "address"
        }
      ],
      "name": "withdraw",
      "outputs": [
        {
          "internalType": "uint256",
          "name": "amountA",
          "type": "uint256"
        },
        {
          "internalType": "uint256",
          "name": "amountB",
          "type": "uint256"
        }
      ],
      "stateMutability": "nonpayable",
      "type": "function"
    },
    {
      "inputs": [
        {
          "internalType": "address",
          "name": "lpPair",
          "type": "address"
        },
        {
          "internalType": "address[]",
          "name": "rewardTokenToTokenARoute",
          "type": "address[]"
        },
        {
          "internalType": "address[]",
          "name": "rewardTokenToTokenBRoute",
          "type": "address[]"
        },
        {
          "internalType": "address[]",
          "name": "rewarderTokenToTokenARoute",
          "type": "address[]"
        },
        {
          "internalType": "address[]",
          "name": "rewarderTokenToTokenBRoute",
          "type": "address[]"
        },
        {
          "internalType": "uint256[4]",
          "name": "amountsOutMin",
          "type": "uint256[4]"
        }
      ],
      "name": "distribute",
      "outputs": [],
      "stateMutability": "nonpayable",
      "type": "function"
    },
    {
      "inputs": [
        {
          "internalType": "address",
          "name": "_address",
          "type": "address"
        },
        {
          "internalType": "address",
          "name": "lpPair",
          "type": "address"
        }
      ],
      "name": "userStake",
      "outputs": [
        {
          "internalType": "uint256",
          "name": "stakeLP",
          "type": "uint256"
        },
        {
          "internalType": "uint256",
          "name": "stakeA",
          "type": "uint256"
        },
        {
          "internalType": "uint256",
          "name": "stakeB",
          "type": "uint256"
        }
      ],
      "stateMutability": "view",
      "type": "function"
    },
    {
      "inputs": [
        {
          "internalType": "address",
          "name": "lpPair",
          "type": "address"
        }
      ],
      "name": "totalDeposits",
      "outputs": [
        {
          "internalType": "uint256",
          "name": "totalDepositsLP",
          "type": "uint256"
        },
        {
          "internalType": "uint256",
          "name": "totalDepositsA",
          "type": "uint256"
        },
        {
          "internalType": "uint256",
          "name": "totalDepositsB",
          "type": "uint256"
        }
      ],
      "stateMutability": "view",
      "type": "function"
    },
    {
      "inputs": [
        {
          "internalType": "address",
          "name": "lpPair",
          "type": "address"
        }
      ],
      "name": "getTokens",
      "outputs": [
        {
          "internalType": "address",
          "name": "tokenA",
          "type": "address"
        },
        {
          "internalType": "address",
          "name": "tokenB",
          "type": "address"
        }
      ],
      "stateMutability": "view",
      "type": "function"
    },
    {
      "inputs": [],
      "name": "pause",
      "outputs": [],
      "stateMutability": "nonpayable",
      "type": "function"
    },
    {
      "inputs": [],
      "name": "unpause",
      "outputs": [],
      "stateMutability": "nonpayable",
      "type": "function"
    }
  ],
  "bytecode": "0x60a06040523060805234801561001457600080fd5b5060805161257961004c600039600081816104f601528181610536015281816108c5015281816109050152610aa201526125796000f3fe6080604052600436106100f35760003560e01c806354fd4d501161008a5780638540af57116100595780638540af57146102bf578063e9403256146102df578063f441f73c146102ff578063fdcb60681461031f57600080fd5b806354fd4d501461023a5780635c975abb1461024f5780636d25e175146102725780638456cb59146102aa57600080fd5b8063485cc955116100c6578063485cc955146101a95780634f1ef286146101c957806351bdca3e146101dc57806352d1902d1461021757600080fd5b80631ec5aa3e146100f85780633659cfe6146101325780633f4ba83a14610154578063450efe2114610169575b600080fd5b34801561010457600080fd5b50610118610113366004611e1b565b61033f565b604080519283526020830191909152015b60405180910390f35b34801561013e57600080fd5b5061015261014d366004611e82565b6104eb565b005b34801561016057600080fd5b506101526105cb565b34801561017557600080fd5b50610189610184366004611e82565b6106a7565b604080516001600160a01b03938416815292909116602083015201610129565b3480156101b557600080fd5b506101526101c4366004611e9f565b610777565b6101526101d7366004611f1f565b6108ba565b3480156101e857600080fd5b506101fc6101f7366004611e9f565b61098b565b60408051938452602084019290925290820152606001610129565b34801561022357600080fd5b5061022c610a95565b604051908152602001610129565b34801561024657600080fd5b5061022c600281565b34801561025b57600080fd5b5060335460ff166040519015158152602001610129565b34801561027e57600080fd5b5060c954610292906001600160a01b031681565b6040516001600160a01b039091168152602001610129565b3480156102b657600080fd5b50610152610b48565b3480156102cb57600080fd5b506101526102da366004612081565b610c22565b3480156102eb57600080fd5b506101fc6102fa366004611e82565b610e8f565b34801561030b57600080fd5b506101fc61031a366004612168565b610f91565b34801561032b57600080fd5b5060ca54610292906001600160a01b031681565b60008061034a6112fd565b60c95460405163f9d9331d60e01b81526001600160a01b038a81166004830152600092169063f9d9331d90602401602060405180830381865afa158015610395573d6000803e3d6000fd5b505050506040513d601f19601f820116820180604052508101906103b991906121d1565b90506001600160a01b0381166104085760405162461bcd60e51b815260206004820152600f60248201526e4641524d5f4e4f545f45584953545360881b60448201526064015b60405180910390fd5b60405163d563468360e01b815260048101899052602481018890526044810187905285151560648201523360848201526001600160a01b0385811660a483015282169063d56346839060c40160408051808303816000875af1158015610472573d6000803e3d6000fd5b505050506040513d601f19601f8201168201806040525081019061049691906121ee565b6040518a815291945092506001600160a01b038581169133918c16907f3115d1449a7b732c986cba18244e897a450f61e1bb8d589cd2e69e6c8924f9f79060200160405180910390a450965096945050505050565b306001600160a01b037f00000000000000000000000000000000000000000000000000000000000000001614156105345760405162461bcd60e51b81526004016103ff90612212565b7f00000000000000000000000000000000000000000000000000000000000000006001600160a01b031661057d6000805160206124fd833981519152546001600160a01b031690565b6001600160a01b0316146105a35760405162461bcd60e51b81526004016103ff9061225e565b6105ac81611343565b604080516000808252602082019092526105c89183919061145e565b50565b60ca54604051632474521560e21b81527f65d7a28e3265b37a6474929f336521b332c1681b933f6cb9f3376673440d862a60048201523360248201526001600160a01b03909116906391d1485490604401602060405180830381865afa158015610639573d6000803e3d6000fd5b505050506040513d601f19601f8201168201806040525081019061065d91906122aa565b61069d5760405162461bcd60e51b815260206004820152601160248201527021a0a62622a92fa727aa2fa820aaa9a2a960791b60448201526064016103ff565b6106a56115c9565b565b600080826001600160a01b0316630dfe16816040518163ffffffff1660e01b8152600401602060405180830381865afa1580156106e8573d6000803e3d6000fd5b505050506040513d601f19601f8201168201806040525081019061070c91906121d1565b9150826001600160a01b031663d21220a76040518163ffffffff1660e01b8152600401602060405180830381865afa15801561074c573d6000803e3d6000fd5b505050506040513d601f19601f8201168201806040525081019061077091906121d1565b9050915091565b600054610100900460ff16158080156107975750600054600160ff909116105b806107b15750303b1580156107b1575060005460ff166001145b6108145760405162461bcd60e51b815260206004820152602e60248201527f496e697469616c697a61626c653a20636f6e747261637420697320616c72656160448201526d191e481a5b9a5d1a585b1a5e995960921b60648201526084016103ff565b6000805460ff191660011790558015610837576000805461ff0019166101001790555b61083f61161b565b60ca80546001600160a01b038086166001600160a01b03199283161790925560c980549285169290911691909117905580156108b5576000805461ff0019169055604051600181527f7f26b83ff96e1f2b6a682f133852f6798a09c465da95921460cefb38474024989060200160405180910390a15b505050565b306001600160a01b037f00000000000000000000000000000000000000000000000000000000000000001614156109035760405162461bcd60e51b81526004016103ff90612212565b7f00000000000000000000000000000000000000000000000000000000000000006001600160a01b031661094c6000805160206124fd833981519152546001600160a01b031690565b6001600160a01b0316146109725760405162461bcd60e51b81526004016103ff9061225e565b61097b82611343565b6109878282600161145e565b5050565b60c95460405163f9d9331d60e01b81526001600160a01b038381166004830152600092839283928392169063f9d9331d90602401602060405180830381865afa1580156109dc573d6000803e3d6000fd5b505050506040513d601f19601f82011682018060405250810190610a0091906121d1565b90506001600160a01b03811615610a8d57604051630103c92b60e01b81526001600160a01b038781166004830152821690630103c92b90602401602060405180830381865afa158015610a57573d6000803e3d6000fd5b505050506040513d601f19601f82011682018060405250810190610a7b91906122c7565b9350610a87858561164a565b90935091505b509250925092565b6000306001600160a01b037f00000000000000000000000000000000000000000000000000000000000000001614610b355760405162461bcd60e51b815260206004820152603860248201527f555550535570677261646561626c653a206d757374206e6f742062652063616c60448201527f6c6564207468726f7567682064656c656761746563616c6c000000000000000060648201526084016103ff565b506000805160206124fd83398151915290565b60ca54604051632474521560e21b81527f65d7a28e3265b37a6474929f336521b332c1681b933f6cb9f3376673440d862a60048201523360248201526001600160a01b03909116906391d1485490604401602060405180830381865afa158015610bb6573d6000803e3d6000fd5b505050506040513d601f19601f82011682018060405250810190610bda91906122aa565b610c1a5760405162461bcd60e51b815260206004820152601160248201527021a0a62622a92fa727aa2fa820aaa9a2a960791b60448201526064016103ff565b6106a5611885565b610c2a6112fd565b60ca54604051632474521560e21b81527ffbd454f36a7e1a388bd6fc3ab10d434aa4578f811acbbcf33afb1c697486313c60048201523360248201526001600160a01b03909116906391d1485490604401602060405180830381865afa158015610c98573d6000803e3d6000fd5b505050506040513d601f19601f82011682018060405250810190610cbc91906122aa565b610d015760405162461bcd60e51b815260206004820152601660248201527521a0a62622a92fa727aa2fa224a9aa2924a12aaa27a960511b60448201526064016103ff565b60c95460405163f9d9331d60e01b81526001600160a01b038c81166004830152600092169063f9d9331d90602401602060405180830381865afa158015610d4c573d6000803e3d6000fd5b505050506040513d601f19601f82011682018060405250810190610d7091906121d1565b90506001600160a01b038116610dba5760405162461bcd60e51b815260206004820152600f60248201526e4641524d5f4e4f545f45584953545360881b60448201526064016103ff565b6040516384b9658560e01b81526000906001600160a01b038316906384b9658590610df9908e908e908e908e908e908e908e908e908e90600401612329565b6020604051808303816000875af1158015610e18573d6000803e3d6000fd5b505050506040513d601f19601f82011682018060405250810190610e3c91906122c7565b90508b6001600160a01b03167fc1d32ad5cca423e7dda2123dbf8c482f8e77d00b631c06e903a47f2cec1334df82604051610e7991815260200190565b60405180910390a2505050505050505050505050565b60c95460405163f9d9331d60e01b81526001600160a01b038381166004830152600092839283928392169063f9d9331d90602401602060405180830381865afa158015610ee0573d6000803e3d6000fd5b505050506040513d601f19601f82011682018060405250810190610f0491906121d1565b90506001600160a01b03811615610f8957806001600160a01b031663168a48226040518163ffffffff1660e01b8152600401602060405180830381865afa158015610f53573d6000803e3d6000fd5b505050506040513d601f19601f82011682018060405250810190610f7791906122c7565b9350610f83858561164a565b90935091505b509193909250565b6000806000610f9e6112fd565b60c95460405163f9d9331d60e01b81526001600160a01b038c81166004830152600092169063f9d9331d90602401602060405180830381865afa158015610fe9573d6000803e3d6000fd5b505050506040513d601f19601f8201168201806040525081019061100d91906121d1565b90506001600160a01b03811661108f5760c954604051621849e360e61b81526001600160a01b038d811660048301529091169063061278c0906024016020604051808303816000875af1158015611068573d6000803e3d6000fd5b505050506040513d601f19601f8201168201806040525081019061108c91906121d1565b90505b891561117457806001600160a01b0316630fc63d106040518163ffffffff1660e01b8152600401602060405180830381865afa1580156110d3573d6000803e3d6000fd5b505050506040513d601f19601f820116820180604052508101906110f791906121d1565b6040516323b872dd60e01b81523360048201526001600160a01b038381166024830152604482018d905291909116906323b872dd906064016020604051808303816000875af115801561114e573d6000803e3d6000fd5b505050506040513d601f19601f8201168201806040525081019061117291906122aa565b505b88156111f3576111f333828b846001600160a01b0316635f64b55b6040518163ffffffff1660e01b8152600401602060405180830381865afa1580156111be573d6000803e3d6000fd5b505050506040513d601f19601f820116820180604052508101906111e291906121d1565b6001600160a01b03169291906118c2565b851561120e5761120e6001600160a01b038c163383896118c2565b604051630b333b4560e11b8152600481018b9052602481018a90526044810189905260648101889052608481018790523360a48201526001600160a01b0386811660c4830152821690631666768a9060e4016060604051808303816000875af115801561127f573d6000803e3d6000fd5b505050506040513d601f19601f820116820180604052508101906112a391906123b9565b60405181815292965090945092506001600160a01b038681169133918e16907f7cfff908a4b583f36430b25d75964c458d8ede8a99bd61be750e97ee1b2f3a969060200160405180910390a4509750975097945050505050565b60335460ff16156106a55760405162461bcd60e51b815260206004820152601060248201526f14185d5cd8589b194e881c185d5cd95960821b60448201526064016103ff565b60ca5460408051631d6c8e3f60e21b815290516001600160a01b03909216916391d148549183916375b238fc916004808201926020929091908290030181865afa158015611395573d6000803e3d6000fd5b505050506040513d601f19601f820116820180604052508101906113b991906122c7565b6040516001600160e01b031960e084901b1681526004810191909152336024820152604401602060405180830381865afa1580156113fb573d6000803e3d6000fd5b505050506040513d601f19601f8201168201806040525081019061141f91906122aa565b6105c85760405162461bcd60e51b815260206004820152601060248201526f21a0a62622a92fa727aa2fa0a226a4a760811b60448201526064016103ff565b7f4910fdfa16fed3260ed0e7147f7cc6da11a60208b5b9406d12a635614ffd91435460ff1615611491576108b583611922565b826001600160a01b03166352d1902d6040518163ffffffff1660e01b8152600401602060405180830381865afa9250505080156114eb575060408051601f3d908101601f191682019092526114e8918101906122c7565b60015b61154e5760405162461bcd60e51b815260206004820152602e60248201527f45524331393637557067726164653a206e657720696d706c656d656e7461746960448201526d6f6e206973206e6f74205555505360901b60648201526084016103ff565b6000805160206124fd83398151915281146115bd5760405162461bcd60e51b815260206004820152602960248201527f45524331393637557067726164653a20756e737570706f727465642070726f786044820152681a58589b195555525160ba1b60648201526084016103ff565b506108b58383836119be565b6115d16119e3565b6033805460ff191690557f5db9ee0a495bf2e6ff9c91a7834c1ba4fdd244a5e8aa4e537bd38aeae4b073aa335b6040516001600160a01b03909116815260200160405180910390a1565b600054610100900460ff166116425760405162461bcd60e51b81526004016103ff906123e7565b6106a5611a2c565b6000806000846001600160a01b03166318160ddd6040518163ffffffff1660e01b8152600401602060405180830381865afa15801561168d573d6000803e3d6000fd5b505050506040513d601f19601f820116820180604052508101906116b191906122c7565b905080856001600160a01b0316630dfe16816040518163ffffffff1660e01b8152600401602060405180830381865afa1580156116f2573d6000803e3d6000fd5b505050506040513d601f19601f8201168201806040525081019061171691906121d1565b6040516370a0823160e01b81526001600160a01b03888116600483015291909116906370a0823190602401602060405180830381865afa15801561175e573d6000803e3d6000fd5b505050506040513d601f19601f8201168201806040525081019061178291906122c7565b61178c9086612432565b611796919061245f565b925080856001600160a01b031663d21220a76040518163ffffffff1660e01b8152600401602060405180830381865afa1580156117d7573d6000803e3d6000fd5b505050506040513d601f19601f820116820180604052508101906117fb91906121d1565b6040516370a0823160e01b81526001600160a01b03888116600483015291909116906370a0823190602401602060405180830381865afa158015611843573d6000803e3d6000fd5b505050506040513d601f19601f8201168201806040525081019061186791906122c7565b6118719086612432565b61187b919061245f565b9150509250929050565b61188d6112fd565b6033805460ff191660011790557f62e78cea01bee320cd4e420270b5ea74000d11b0c9f74754ebdbfc544b05a2586115fe3390565b604080516001600160a01b0385811660248301528416604482015260648082018490528251808303909101815260849091019091526020810180516001600160e01b03166323b872dd60e01b17905261191c908590611a5f565b50505050565b6001600160a01b0381163b61198f5760405162461bcd60e51b815260206004820152602d60248201527f455243313936373a206e657720696d706c656d656e746174696f6e206973206e60448201526c1bdd08184818dbdb9d1c9858dd609a1b60648201526084016103ff565b6000805160206124fd83398151915280546001600160a01b0319166001600160a01b0392909216919091179055565b6119c783611b31565b6000825111806119d45750805b156108b55761191c8383611b71565b60335460ff166106a55760405162461bcd60e51b815260206004820152601460248201527314185d5cd8589b194e881b9bdd081c185d5cd95960621b60448201526064016103ff565b600054610100900460ff16611a535760405162461bcd60e51b81526004016103ff906123e7565b6033805460ff19169055565b6000611ab4826040518060400160405280602081526020017f5361666545524332303a206c6f772d6c6576656c2063616c6c206661696c6564815250856001600160a01b0316611c659092919063ffffffff16565b8051909150156108b55780806020019051810190611ad291906122aa565b6108b55760405162461bcd60e51b815260206004820152602a60248201527f5361666545524332303a204552433230206f7065726174696f6e20646964206e6044820152691bdd081cdd58d8d9595960b21b60648201526084016103ff565b611b3a81611922565b6040516001600160a01b038216907fbc7cd75a20ee27fd9adebab32041f755214dbc6bffa90cc0225b39da2e5c2d3b90600090a250565b60606001600160a01b0383163b611bd95760405162461bcd60e51b815260206004820152602660248201527f416464726573733a2064656c65676174652063616c6c20746f206e6f6e2d636f6044820152651b9d1c9858dd60d21b60648201526084016103ff565b600080846001600160a01b031684604051611bf491906124ad565b600060405180830381855af49150503d8060008114611c2f576040519150601f19603f3d011682016040523d82523d6000602084013e611c34565b606091505b5091509150611c5c828260405180606001604052806027815260200161251d60279139611c7e565b95945050505050565b6060611c748484600085611cb7565b90505b9392505050565b60608315611c8d575081611c77565b825115611c9d5782518084602001fd5b8160405162461bcd60e51b81526004016103ff91906124c9565b606082471015611d185760405162461bcd60e51b815260206004820152602660248201527f416464726573733a20696e73756666696369656e742062616c616e636520666f6044820152651c8818d85b1b60d21b60648201526084016103ff565b6001600160a01b0385163b611d6f5760405162461bcd60e51b815260206004820152601d60248201527f416464726573733a2063616c6c20746f206e6f6e2d636f6e747261637400000060448201526064016103ff565b600080866001600160a01b03168587604051611d8b91906124ad565b60006040518083038185875af1925050503d8060008114611dc8576040519150601f19603f3d011682016040523d82523d6000602084013e611dcd565b606091505b5091509150611ddd828286611c7e565b979650505050505050565b6001600160a01b03811681146105c857600080fd5b8035611e0881611de8565b919050565b80151581146105c857600080fd5b60008060008060008060c08789031215611e3457600080fd5b8635611e3f81611de8565b95506020870135945060408701359350606087013592506080870135611e6481611e0d565b915060a0870135611e7481611de8565b809150509295509295509295565b600060208284031215611e9457600080fd5b8135611c7781611de8565b60008060408385031215611eb257600080fd5b8235611ebd81611de8565b91506020830135611ecd81611de8565b809150509250929050565b634e487b7160e01b600052604160045260246000fd5b604051601f8201601f1916810167ffffffffffffffff81118282101715611f1757611f17611ed8565b604052919050565b60008060408385031215611f3257600080fd5b8235611f3d81611de8565b915060208381013567ffffffffffffffff80821115611f5b57600080fd5b818601915086601f830112611f6f57600080fd5b813581811115611f8157611f81611ed8565b611f93601f8201601f19168501611eee565b91508082528784828501011115611fa957600080fd5b80848401858401376000848284010152508093505050509250929050565b60008083601f840112611fd957600080fd5b50813567ffffffffffffffff811115611ff157600080fd5b6020830191508360208260051b850101111561200c57600080fd5b9250929050565b600082601f83011261202457600080fd5b6040516080810181811067ffffffffffffffff8211171561204757612047611ed8565b60405280608084018581111561205c57600080fd5b845b8181101561207657803583526020928301920161205e565b509195945050505050565b6000806000806000806000806000806101208b8d0312156120a157600080fd5b6120aa8b611dfd565b995060208b013567ffffffffffffffff808211156120c757600080fd5b6120d38e838f01611fc7565b909b50995060408d01359150808211156120ec57600080fd5b6120f88e838f01611fc7565b909950975060608d013591508082111561211157600080fd5b61211d8e838f01611fc7565b909750955060808d013591508082111561213657600080fd5b506121438d828e01611fc7565b909450925061215790508c60a08d01612013565b90509295989b9194979a5092959850565b600080600080600080600060e0888a03121561218357600080fd5b873561218e81611de8565b96506020880135955060408801359450606088013593506080880135925060a0880135915060c08801356121c181611de8565b8091505092959891949750929550565b6000602082840312156121e357600080fd5b8151611c7781611de8565b6000806040838503121561220157600080fd5b505080516020909101519092909150565b6020808252602c908201527f46756e6374696f6e206d7573742062652063616c6c6564207468726f7567682060408201526b19195b1959d85d1958d85b1b60a21b606082015260800190565b6020808252602c908201527f46756e6374696f6e206d7573742062652063616c6c6564207468726f7567682060408201526b6163746976652070726f787960a01b606082015260800190565b6000602082840312156122bc57600080fd5b8151611c7781611e0d565b6000602082840312156122d957600080fd5b5051919050565b8183526000602080850194508260005b8581101561231e57813561230381611de8565b6001600160a01b0316875295820195908201906001016122f0565b509495945050505050565b600061010080835261233e8184018c8e6122e0565b9050602083820381850152612354828b8d6122e0565b9150838203604085015261236982898b6122e0565b9150838203606085015261237e8287896122e0565b92506080840191508460005b60048110156123a75781518452928201929082019060010161238a565b505050509a9950505050505050505050565b6000806000606084860312156123ce57600080fd5b8351925060208401519150604084015190509250925092565b6020808252602b908201527f496e697469616c697a61626c653a20636f6e7472616374206973206e6f74206960408201526a6e697469616c697a696e6760a81b606082015260800190565b600081600019048311821515161561245a57634e487b7160e01b600052601160045260246000fd5b500290565b60008261247c57634e487b7160e01b600052601260045260246000fd5b500490565b60005b8381101561249c578181015183820152602001612484565b8381111561191c5750506000910152565b600082516124bf818460208701612481565b9190910192915050565b60208152600082518060208401526124e8816040850160208701612481565b601f01601f1916919091016040019291505056fe360894a13ba1a3210667c828492db98dca3e2076cc3735a920a3ca505d382bbc416464726573733a206c6f772d6c6576656c2064656c65676174652063616c6c206661696c6564a2646970667358221220a0a2232af2957cf88425898e61ac882a0dd79f4cef7b4107080d82d1e3abd49e64736f6c634300080a0033",
  "immutableReferences": {
    "570": [
      {
        "length": 32,
        "start": 1270
      },
      {
        "length": 32,
        "start": 1334
      },
      {
        "length": 32,
        "start": 2245
      },
      {
        "length": 32,
        "start": 2309
      },
      {
        "length": 32,
        "start": 2722
      }
    ]
  },
  "source": "// SPDX-License-Identifier: MIT\r\npragma solidity 0.8.10;\r\n\r\nimport { IUnoFarmTrisolarisStandard as Farm } from \"../interfaces/IUnoFarmTrisolarisStandard.sol\";\r\nimport \"../../../interfaces/IUnoFarmFactory.sol\";\r\nimport \"../../../interfaces/IUnoAccessManager.sol\";\r\nimport \"../../../interfaces/IUniswapV2Pair.sol\";\r\nimport \"@openzeppelin/contracts-upgradeable/token/ERC20/IERC20Upgradeable.sol\";\r\nimport \"@openzeppelin/contracts-upgradeable/token/ERC20/utils/SafeERC20Upgradeable.sol\";\r\nimport \"@openzeppelin/contracts-upgradeable/proxy/utils/Initializable.sol\";\r\nimport \"@openzeppelin/contracts-upgradeable/security/PausableUpgradeable.sol\";\r\nimport \"@openzeppelin/contracts-upgradeable/proxy/utils/UUPSUpgradeable.sol\";\r\n\r\ncontract UnoAssetRouterTrisolarisStandardV2 is Initializable, PausableUpgradeable, UUPSUpgradeable {\r\n    using SafeERC20Upgradeable for IERC20Upgradeable;\r\n    \r\n    uint256 public constant version = 2;\r\n\r\n    /**\r\n     * @dev Contract Variables:\r\n     * farmFactory - The contract that deploys new Farms and links them to {lpPair}s.\r\n     * accessManager - Role manager contract.\r\n     */\r\n    IUnoFarmFactory public farmFactory;\r\n    IUnoAccessManager public accessManager;\r\n    bytes32 private constant DISTRIBUTOR_ROLE = keccak256(\"DISTRIBUTOR_ROLE\");\r\n    bytes32 private constant PAUSER_ROLE = keccak256(\"PAUSER_ROLE\");\r\n\r\n    event Deposit(address indexed lpPool, address indexed sender, address indexed recipient, uint256 amount);\r\n    event Withdraw(address indexed lpPool, address indexed sender, address indexed recipient, uint256 amount);\r\n    event Distribute(address indexed lpPool, uint256 reward);\r\n\r\n    modifier onlyDistributor() {\r\n        require(accessManager.hasRole(DISTRIBUTOR_ROLE, msg.sender), \"CALLER_NOT_DISTRIBUTOR\");\r\n        _;\r\n    }\r\n    modifier onlyPauser() {\r\n        require(accessManager.hasRole(PAUSER_ROLE, msg.sender), \"CALLER_NOT_PAUSER\");\r\n        _;\r\n    }\r\n    modifier onlyAdmin() {\r\n        require(accessManager.hasRole(accessManager.ADMIN_ROLE(), msg.sender), \"CALLER_NOT_ADMIN\");\r\n        _;\r\n    }\r\n\r\n    // ============ Methods ============\r\n\r\n    function initialize(address _accessManager, address _farmFactory) external initializer {\r\n        __Pausable_init();\r\n        accessManager = IUnoAccessManager(_accessManager);\r\n        farmFactory = IUnoFarmFactory(_farmFactory);\r\n    }\r\n\r\n    /**\r\n     * @dev Deposits tokens in the given pool. Creates new Farm contract if there isn't one deployed for the {lpPair} and deposits tokens in it. Emits a {Deposit} event.\r\n     * @param lpPair - Address of the pool to deposit tokens in.\r\n     * @param amountA  - Token A amount to deposit.\r\n     * @param amountB -  Token B amount to deposit.\r\n     * @param amountAMin - Bounds the extent to which the B/A price can go up before the transaction reverts.\r\n     * @param amountBMin - Bounds the extent to which the A/B price can go up before the transaction reverts.\r\n     * @param amountLP - Additional LP Token amount to deposit.\r\n     * @param recipient - Address which will recieve the deposit.\r\n     \r\n     * @return sentA - Token A amount sent to the farm.\r\n     * @return sentB - Token B amount sent to the farm.\r\n     * @return liquidity - Total liquidity sent to the farm (in lpTokens).\r\n     */\r\n    function deposit(\r\n        address lpPair,\r\n        uint256 amountA,\r\n        uint256 amountB,\r\n        uint256 amountAMin,\r\n        uint256 amountBMin,\r\n        uint256 amountLP,\r\n        address recipient\r\n    ) external whenNotPaused returns (uint256 sentA, uint256 sentB, uint256 liquidity) {\r\n        Farm farm = Farm(farmFactory.Farms(lpPair));\r\n        if (farm == Farm(address(0))) {\r\n            farm = Farm(farmFactory.createFarm(lpPair));\r\n        }\r\n\r\n        if (amountA > 0) {\r\n            IERC20Upgradeable(farm.tokenA()).transferFrom(msg.sender, address(farm), amountA);\r\n        }\r\n        if (amountB > 0) {\r\n            IERC20Upgradeable(farm.tokenB()).safeTransferFrom(msg.sender, address(farm), amountB);\r\n        }\r\n        if (amountLP > 0) {\r\n            IERC20Upgradeable(lpPair).safeTransferFrom(msg.sender, address(farm), amountLP);\r\n        }\r\n\r\n        (sentA, sentB, liquidity) = farm.deposit(\r\n            amountA,\r\n            amountB,\r\n            amountAMin,\r\n            amountBMin,\r\n            amountLP,\r\n            msg.sender,\r\n            recipient\r\n        );\r\n        emit Deposit(lpPair, msg.sender, recipient, liquidity);\r\n    }\r\n\r\n    /** \r\n     * @dev Withdraws tokens from the given pool. Emits a {Withdraw} event.\r\n     * @param lpPair - LP pool to withdraw from.\r\n     * @param amount - LP amount to withdraw. \r\n     * @param amountAMin - The minimum amount of tokenA that must be received for the transaction not to revert.\r\n     * @param amountBMin - The minimum amount of tokenB that must be received for the transaction not to revert.\r\n     * @param withdrawLP - True: Withdraw in LP tokens, False: Withdraw in normal tokens.\r\n     * @param recipient - The address which will recieve tokens.\r\n\r\n     * @return amountA - Token A amount sent to the {recipient}, 0 if withdrawLP == false.\r\n     * @return amountB - Token B amount sent to the {recipient}, 0 if withdrawLP == false.\r\n     */\r\n    function withdraw(\r\n        address lpPair,\r\n        uint256 amount,\r\n        uint256 amountAMin,\r\n        uint256 amountBMin,\r\n        bool withdrawLP,\r\n        address recipient\r\n    ) external whenNotPaused returns (uint256 amountA, uint256 amountB) {\r\n        Farm farm = Farm(farmFactory.Farms(lpPair));\r\n        require(farm != Farm(address(0)), \"FARM_NOT_EXISTS\");\r\n\r\n        (amountA, amountB) = farm.withdraw(\r\n            amount,\r\n            amountAMin,\r\n            amountBMin,\r\n            withdrawLP,\r\n            msg.sender,\r\n            recipient\r\n        );\r\n        emit Withdraw(lpPair, msg.sender, recipient, amount);\r\n    }\r\n\r\n    /**\r\n     * @dev Distributes tokens between users.\r\n     * @param lpPair - LP pool to distribute tokens in.\r\n     * @param rewardTokenToTokenARoute An array of token addresses.\r\n     * @param rewardTokenToTokenBRoute An array of token addresses.\r\n     * @param rewarderTokenToTokenARoute An array of token addresses.\r\n     * @param rewarderTokenToTokenBRoute An array of token addresses.\r\n     * @param amountsOutMin The minimum amount of output tokens that must be received for the transaction not to revert.\r\n     *\r\n     * Note: This function can only be called by the distributor.\r\n     */\r\n    function distribute(\r\n        address lpPair,\r\n        address[] calldata rewardTokenToTokenARoute,\r\n        address[] calldata rewardTokenToTokenBRoute,\r\n        address[] calldata rewarderTokenToTokenARoute,\r\n        address[] calldata rewarderTokenToTokenBRoute,\r\n        uint256[4] memory amountsOutMin\r\n    ) external whenNotPaused onlyDistributor {\r\n        Farm farm = Farm(farmFactory.Farms(lpPair));\r\n        require(farm != Farm(address(0)), \"FARM_NOT_EXISTS\");\r\n\r\n        uint256 reward = farm.distribute(\r\n            rewardTokenToTokenARoute,\r\n            rewardTokenToTokenBRoute,\r\n            rewarderTokenToTokenARoute,\r\n            rewarderTokenToTokenBRoute,\r\n            amountsOutMin\r\n        );\r\n        emit Distribute(lpPair, reward);\r\n    }\r\n\r\n    /**\r\n     * @dev Returns tokens staked by the {_address} for the given {lpPair}.\r\n     * @param _address - The address to check stakes for.\r\n     * @param lpPair - LP pool to check stakes in.\r\n\r\n     * @return stakeLP - Total user stake(in LP tokens).\r\n     * @return stakeA - Token A stake.\r\n     * @return stakeB - Token B stake.\r\n     */\r\n    function userStake(address _address, address lpPair) external view returns (uint256 stakeLP, uint256 stakeA, uint256 stakeB) {\r\n        Farm farm = Farm(farmFactory.Farms(lpPair));\r\n        if (farm != Farm(address(0))) {\r\n            stakeLP = farm.userBalance(_address);\r\n            (stakeA, stakeB) = getTokenStake(lpPair, stakeLP);\r\n        }\r\n    }\r\n\r\n    /**\r\n     * @dev Returns total amount locked in the pool. Doesn't take pending rewards into account.\r\n     * @param lpPair - LP pool to check total deposits in.\r\n\r\n     * @return totalDepositsLP - Total deposits (in LP tokens).\r\n     * @return totalDepositsA - Token A deposits.\r\n     * @return totalDepositsB - Token B deposits.\r\n     */\r\n    function totalDeposits(address lpPair) external view returns (uint256 totalDepositsLP, uint256 totalDepositsA, uint256 totalDepositsB) {\r\n        Farm farm = Farm(farmFactory.Farms(lpPair));\r\n        if (farm != Farm(address(0))) {\r\n            totalDepositsLP = farm.getTotalDeposits();\r\n            (totalDepositsA, totalDepositsB) = getTokenStake(lpPair, totalDepositsLP);\r\n        }\r\n    }\r\n\r\n    /**\r\n     * @dev Returns addresses of tokens in {lpPair}.\r\n     * @param lpPair - LP pair to check tokens in.\r\n\r\n     * @return tokenA - Token A address.\r\n     * @return tokenB - Token B address.\r\n     */\r\n    function getTokens(address lpPair) external view returns (address tokenA, address tokenB) {\r\n        tokenA = IUniswapV2Pair(lpPair).token0();\r\n        tokenB = IUniswapV2Pair(lpPair).token1();\r\n    }\r\n\r\n    /**\r\n     * @dev Converts LP tokens to normal tokens, value(amountA) == value(amountB) == 0.5*amountLP\r\n     * @param lpPair - LP pair for conversion.\r\n     * @param amountLP - Amount of LP tokens to convert.\r\n\r\n     * @return amountA - Token A amount.\r\n     * @return amountB - Token B amount.\r\n     */\r\n    function getTokenStake(address lpPair, uint256 amountLP) internal view returns (uint256 amountA, uint256 amountB) {\r\n        uint256 totalSupply = IERC20Upgradeable(lpPair).totalSupply();\r\n        amountA = amountLP * IERC20Upgradeable(IUniswapV2Pair(lpPair).token0()).balanceOf(lpPair) / totalSupply;\r\n        amountB = amountLP * IERC20Upgradeable(IUniswapV2Pair(lpPair).token1()).balanceOf(lpPair) / totalSupply;\r\n    }\r\n\r\n    function pause() external onlyPauser {\r\n        _pause();\r\n    }\r\n\r\n    function unpause() external onlyPauser {\r\n        _unpause();\r\n    }\r\n\r\n    function _authorizeUpgrade(address) internal override onlyAdmin {\r\n        \r\n    }\r\n}\r\n",
  "sourcePath": "C:\\Users\\jugli\\Desktop\\uno\\uno-contracts\\contracts\\apps\\trisolarisStandard\\test\\UnoAssetRouterTrisolarisStandardV2.sol",
  "compiler": {
    "name": "solc",
    "version": "0.8.10+commit.fc410830.Emscripten.clang"
  },
  "schemaVersion": "3.4.7",
  "updatedAt": "2022-07-23T15:27:21.453Z",
  "devdoc": {
    "kind": "dev",
    "methods": {
      "deposit(address,uint256,uint256,uint256,uint256,uint256,address)": {
        "details": "Deposits tokens in the given pool. Creates new Farm contract if there isn't one deployed for the {lpPair} and deposits tokens in it. Emits a {Deposit} event.",
        "params": {
          "amountA": "- Token A amount to deposit.",
          "amountAMin": "- Bounds the extent to which the B/A price can go up before the transaction reverts.",
          "amountB": "-  Token B amount to deposit.",
          "amountBMin": "- Bounds the extent to which the A/B price can go up before the transaction reverts.",
          "amountLP": "- Additional LP Token amount to deposit.",
          "lpPair": "- Address of the pool to deposit tokens in.",
          "recipient": "- Address which will recieve the deposit."
        },
        "returns": {
          "liquidity": "- Total liquidity sent to the farm (in lpTokens).",
          "sentA": "- Token A amount sent to the farm.",
          "sentB": "- Token B amount sent to the farm."
        }
      },
      "distribute(address,address[],address[],address[],address[],uint256[4])": {
        "details": "Distributes tokens between users.",
        "params": {
          "amountsOutMin": "The minimum amount of output tokens that must be received for the transaction not to revert. Note: This function can only be called by the distributor.",
          "lpPair": "- LP pool to distribute tokens in.",
          "rewardTokenToTokenARoute": "An array of token addresses.",
          "rewardTokenToTokenBRoute": "An array of token addresses.",
          "rewarderTokenToTokenARoute": "An array of token addresses.",
          "rewarderTokenToTokenBRoute": "An array of token addresses."
        }
      },
      "getTokens(address)": {
        "details": "Returns addresses of tokens in {lpPair}.",
        "params": {
          "lpPair": "- LP pair to check tokens in."
        },
        "returns": {
          "tokenA": "- Token A address.",
          "tokenB": "- Token B address."
        }
      },
      "paused()": {
        "details": "Returns true if the contract is paused, and false otherwise."
      },
      "proxiableUUID()": {
        "details": "Implementation of the ERC1822 {proxiableUUID} function. This returns the storage slot used by the implementation. It is used to validate that the this implementation remains valid after an upgrade. IMPORTANT: A proxy pointing at a proxiable contract should not be considered proxiable itself, because this risks bricking a proxy that upgrades to it, by delegating to itself until out of gas. Thus it is critical that this function revert if invoked through a proxy. This is guaranteed by the `notDelegated` modifier."
      },
      "totalDeposits(address)": {
        "details": "Returns total amount locked in the pool. Doesn't take pending rewards into account.",
        "params": {
          "lpPair": "- LP pool to check total deposits in."
        },
        "returns": {
          "totalDepositsA": "- Token A deposits.",
          "totalDepositsB": "- Token B deposits.",
          "totalDepositsLP": "- Total deposits (in LP tokens)."
        }
      },
      "upgradeTo(address)": {
        "details": "Upgrade the implementation of the proxy to `newImplementation`. Calls {_authorizeUpgrade}. Emits an {Upgraded} event."
      },
      "upgradeToAndCall(address,bytes)": {
        "details": "Upgrade the implementation of the proxy to `newImplementation`, and subsequently execute the function call encoded in `data`. Calls {_authorizeUpgrade}. Emits an {Upgraded} event."
      },
      "userStake(address,address)": {
        "details": "Returns tokens staked by the {_address} for the given {lpPair}.",
        "params": {
          "_address": "- The address to check stakes for.",
          "lpPair": "- LP pool to check stakes in."
        },
        "returns": {
          "stakeA": "- Token A stake.",
          "stakeB": "- Token B stake.",
          "stakeLP": "- Total user stake(in LP tokens)."
        }
      },
      "withdraw(address,uint256,uint256,uint256,bool,address)": {
        "details": "Withdraws tokens from the given pool. Emits a {Withdraw} event.",
        "params": {
          "amount": "- LP amount to withdraw. ",
          "amountAMin": "- The minimum amount of tokenA that must be received for the transaction not to revert.",
          "amountBMin": "- The minimum amount of tokenB that must be received for the transaction not to revert.",
          "lpPair": "- LP pool to withdraw from.",
          "recipient": "- The address which will recieve tokens.",
          "withdrawLP": "- True: Withdraw in LP tokens, False: Withdraw in normal tokens."
        },
        "returns": {
          "amountA": "- Token A amount sent to the {recipient}, 0 if withdrawLP == false.",
          "amountB": "- Token B amount sent to the {recipient}, 0 if withdrawLP == false."
        }
      }
    },
    "stateVariables": {
      "farmFactory": {
        "details": "Contract Variables: farmFactory - The contract that deploys new Farms and links them to {lpPair}s. accessManager - Role manager contract."
      }
    },
    "version": 1
  },
  "userdoc": {
    "kind": "user",
    "methods": {},
    "version": 1
  }
}