{
  "contractName": "UnoAssetRouterTrisolarisStableV2",
  "abi": [
    {
      "anonymous": false,
      "inputs": [
        {
          "indexed": false,
          "internalType": "address",
          "name": "previousAdmin",
          "type": "address"
        },
        {
          "indexed": false,
          "internalType": "address",
          "name": "newAdmin",
          "type": "address"
        }
      ],
      "name": "AdminChanged",
      "type": "event"
    },
    {
      "anonymous": false,
      "inputs": [
        {
          "indexed": true,
          "internalType": "address",
          "name": "beacon",
          "type": "address"
        }
      ],
      "name": "BeaconUpgraded",
      "type": "event"
    },
    {
      "anonymous": false,
      "inputs": [
        {
          "indexed": true,
          "internalType": "address",
          "name": "lpPool",
          "type": "address"
        },
        {
          "indexed": true,
          "internalType": "address",
          "name": "sender",
          "type": "address"
        },
        {
          "indexed": true,
          "internalType": "address",
          "name": "recipient",
          "type": "address"
        },
        {
          "indexed": false,
          "internalType": "uint256",
          "name": "amount",
          "type": "uint256"
        }
      ],
      "name": "Deposit",
      "type": "event"
    },
    {
      "anonymous": false,
      "inputs": [
        {
          "indexed": true,
          "internalType": "address",
          "name": "lpPool",
          "type": "address"
        },
        {
          "indexed": false,
          "internalType": "uint256",
          "name": "reward",
          "type": "uint256"
        }
      ],
      "name": "Distribute",
      "type": "event"
    },
    {
      "anonymous": false,
      "inputs": [
        {
          "indexed": false,
          "internalType": "uint8",
          "name": "version",
          "type": "uint8"
        }
      ],
      "name": "Initialized",
      "type": "event"
    },
    {
      "anonymous": false,
      "inputs": [
        {
          "indexed": false,
          "internalType": "address",
          "name": "account",
          "type": "address"
        }
      ],
      "name": "Paused",
      "type": "event"
    },
    {
      "anonymous": false,
      "inputs": [
        {
          "indexed": false,
          "internalType": "address",
          "name": "account",
          "type": "address"
        }
      ],
      "name": "Unpaused",
      "type": "event"
    },
    {
      "anonymous": false,
      "inputs": [
        {
          "indexed": true,
          "internalType": "address",
          "name": "implementation",
          "type": "address"
        }
      ],
      "name": "Upgraded",
      "type": "event"
    },
    {
      "anonymous": false,
      "inputs": [
        {
          "indexed": true,
          "internalType": "address",
          "name": "lpPool",
          "type": "address"
        },
        {
          "indexed": true,
          "internalType": "address",
          "name": "sender",
          "type": "address"
        },
        {
          "indexed": true,
          "internalType": "address",
          "name": "recipient",
          "type": "address"
        },
        {
          "indexed": false,
          "internalType": "uint256",
          "name": "amount",
          "type": "uint256"
        }
      ],
      "name": "Withdraw",
      "type": "event"
    },
    {
      "inputs": [],
      "name": "accessManager",
      "outputs": [
        {
          "internalType": "contract IUnoAccessManager",
          "name": "",
          "type": "address"
        }
      ],
      "stateMutability": "view",
      "type": "function"
    },
    {
      "inputs": [],
      "name": "farmFactory",
      "outputs": [
        {
          "internalType": "contract IUnoFarmFactory",
          "name": "",
          "type": "address"
        }
      ],
      "stateMutability": "view",
      "type": "function"
    },
    {
      "inputs": [],
      "name": "paused",
      "outputs": [
        {
          "internalType": "bool",
          "name": "",
          "type": "bool"
        }
      ],
      "stateMutability": "view",
      "type": "function"
    },
    {
      "inputs": [],
      "name": "proxiableUUID",
      "outputs": [
        {
          "internalType": "bytes32",
          "name": "",
          "type": "bytes32"
        }
      ],
      "stateMutability": "view",
      "type": "function"
    },
    {
      "inputs": [
        {
          "internalType": "address",
          "name": "newImplementation",
          "type": "address"
        }
      ],
      "name": "upgradeTo",
      "outputs": [],
      "stateMutability": "nonpayable",
      "type": "function"
    },
    {
      "inputs": [
        {
          "internalType": "address",
          "name": "newImplementation",
          "type": "address"
        },
        {
          "internalType": "bytes",
          "name": "data",
          "type": "bytes"
        }
      ],
      "name": "upgradeToAndCall",
      "outputs": [],
      "stateMutability": "payable",
      "type": "function"
    },
    {
      "inputs": [],
      "name": "version",
      "outputs": [
        {
          "internalType": "uint256",
          "name": "",
          "type": "uint256"
        }
      ],
      "stateMutability": "view",
      "type": "function"
    },
    {
      "inputs": [
        {
          "internalType": "address",
          "name": "_accessManager",
          "type": "address"
        },
        {
          "internalType": "address",
          "name": "_farmFactory",
          "type": "address"
        }
      ],
      "name": "initialize",
      "outputs": [],
      "stateMutability": "nonpayable",
      "type": "function"
    },
    {
      "inputs": [
        {
          "internalType": "address",
          "name": "swap",
          "type": "address"
        },
        {
          "internalType": "uint256[]",
          "name": "amounts",
          "type": "uint256[]"
        },
        {
          "internalType": "uint256",
          "name": "minAmountLP",
          "type": "uint256"
        },
        {
          "internalType": "uint256",
          "name": "amountLP",
          "type": "uint256"
        },
        {
          "internalType": "address",
          "name": "recipient",
          "type": "address"
        }
      ],
      "name": "deposit",
      "outputs": [
        {
          "internalType": "uint256",
          "name": "liquidity",
          "type": "uint256"
        }
      ],
      "stateMutability": "nonpayable",
      "type": "function"
    },
    {
      "inputs": [
        {
          "internalType": "address",
          "name": "swap",
          "type": "address"
        },
        {
          "internalType": "uint256",
          "name": "amount",
          "type": "uint256"
        },
        {
          "internalType": "uint256[]",
          "name": "minAmounts",
          "type": "uint256[]"
        },
        {
          "internalType": "bool",
          "name": "withdrawLP",
          "type": "bool"
        },
        {
          "internalType": "address",
          "name": "recipient",
          "type": "address"
        }
      ],
      "name": "withdraw",
      "outputs": [
        {
          "internalType": "uint256[]",
          "name": "amounts",
          "type": "uint256[]"
        }
      ],
      "stateMutability": "nonpayable",
      "type": "function"
    },
    {
      "inputs": [
        {
          "internalType": "address",
          "name": "swap",
          "type": "address"
        },
        {
          "internalType": "address[][]",
          "name": "rewardTokenRoutes",
          "type": "address[][]"
        },
        {
          "internalType": "address[][]",
          "name": "rewarderTokenRoutes",
          "type": "address[][]"
        },
        {
          "internalType": "uint256[]",
          "name": "rewardAmountsOutMin",
          "type": "uint256[]"
        },
        {
          "internalType": "uint256[]",
          "name": "rewarderAmountsOutMin",
          "type": "uint256[]"
        }
      ],
      "name": "distribute",
      "outputs": [],
      "stateMutability": "nonpayable",
      "type": "function"
    },
    {
      "inputs": [
        {
          "internalType": "address",
          "name": "_address",
          "type": "address"
        },
        {
          "internalType": "address",
          "name": "swap",
          "type": "address"
        }
      ],
      "name": "userStake",
      "outputs": [
        {
          "internalType": "uint256",
          "name": "stakeLP",
          "type": "uint256"
        }
      ],
      "stateMutability": "view",
      "type": "function"
    },
    {
      "inputs": [
        {
          "internalType": "address",
          "name": "swap",
          "type": "address"
        }
      ],
      "name": "totalDeposits",
      "outputs": [
        {
          "internalType": "uint256",
          "name": "totalDepositsLP",
          "type": "uint256"
        }
      ],
      "stateMutability": "view",
      "type": "function"
    },
    {
      "inputs": [
        {
          "internalType": "address",
          "name": "swap",
          "type": "address"
        }
      ],
      "name": "getTokens",
      "outputs": [
        {
          "internalType": "address[]",
          "name": "tokens",
          "type": "address[]"
        }
      ],
      "stateMutability": "view",
      "type": "function"
    },
    {
      "inputs": [],
      "name": "pause",
      "outputs": [],
      "stateMutability": "nonpayable",
      "type": "function"
    },
    {
      "inputs": [],
      "name": "unpause",
      "outputs": [],
      "stateMutability": "nonpayable",
      "type": "function"
    }
  ],
  "bytecode": "0x60a06040523060805234801561001457600080fd5b506080516125c361004c600039600081816103180152818161036101528181610847015281816108870152610a1101526125c36000f3fe6080604052600436106100f35760003560e01c806359c0e65e1161008a5780638456cb59116100595780638456cb591461028b578063947b9160146102a0578063e9403256146102cd578063fdcb6068146102ed57600080fd5b806359c0e65e146101f05780635c975abb146102105780636d25e175146102335780637385bcb31461026b57600080fd5b80634f1ef286116100c65780634f1ef2861461018557806351bdca3e1461019857806352d1902d146101c657806354fd4d50146101db57600080fd5b80633659cfe6146100f85780633f4ba83a1461011a578063450efe211461012f578063485cc95514610165575b600080fd5b34801561010457600080fd5b50610118610113366004611c3a565b61030d565b005b34801561012657600080fd5b506101186103f6565b34801561013b57600080fd5b5061014f61014a366004611c3a565b6104d2565b60405161015c9190611c57565b60405180910390f35b34801561017157600080fd5b50610118610180366004611ca4565b6106f9565b610118610193366004611d24565b61083c565b3480156101a457600080fd5b506101b86101b3366004611ca4565b61090d565b60405190815260200161015c565b3480156101d257600080fd5b506101b8610a04565b3480156101e757600080fd5b506101b8600281565b3480156101fc57600080fd5b506101b861020b366004611e5b565b610ab7565b34801561021c57600080fd5b5060335460ff16604051901515815260200161015c565b34801561023f57600080fd5b5060c954610253906001600160a01b031681565b6040516001600160a01b03909116815260200161015c565b34801561027757600080fd5b50610118610286366004611f1f565b610db4565b34801561029757600080fd5b5061011861101e565b3480156102ac57600080fd5b506102c06102bb366004612006565b6110f8565b60405161015c91906120b4565b3480156102d957600080fd5b506101b86102e8366004611c3a565b611287565b3480156102f957600080fd5b5060ca54610253906001600160a01b031681565b306001600160a01b037f000000000000000000000000000000000000000000000000000000000000000016141561035f5760405162461bcd60e51b8152600401610356906120c7565b60405180910390fd5b7f00000000000000000000000000000000000000000000000000000000000000006001600160a01b03166103a8600080516020612547833981519152546001600160a01b031690565b6001600160a01b0316146103ce5760405162461bcd60e51b815260040161035690612113565b6103d781611375565b604080516000808252602082019092526103f391839190611490565b50565b60ca54604051632474521560e21b81527f65d7a28e3265b37a6474929f336521b332c1681b933f6cb9f3376673440d862a60048201523360248201526001600160a01b03909116906391d1485490604401602060405180830381865afa158015610464573d6000803e3d6000fd5b505050506040513d601f19601f82011682018060405250810190610488919061215f565b6104c85760405162461bcd60e51b815260206004820152601160248201527021a0a62622a92fa727aa2fa820aaa9a2a960791b6044820152606401610356565b6104d06115fb565b565b6040805160ff8082526120008201909252606091600091829160208201611fe08036833701905050905060005b60ff81811610156105f45760405162415c3360e91b815260ff821660048201526001600160a01b038616906382b8660090602401602060405180830381865afa92505050801561056c575060408051601f3d908101601f191682019092526105699181019061217c565b60015b6105a6573d80801561059a576040519150601f19603f3d011682016040523d82523d6000602084013e61059f565b606091505b50506105f4565b80838360ff16815181106105bc576105bc612199565b6001600160a01b0390921660209283029190910190910152836105de816121c5565b94505050806105ec816121c5565b9150506104ff565b5060008260ff161161063c5760405162461bcd60e51b815260206004820152601160248201527004e4f5f544f4b454e535f494e5f5357415607c1b6044820152606401610356565b8160ff1667ffffffffffffffff81111561065857610658611cdd565b604051908082528060200260200182016040528015610681578160200160208202803683370190505b50925060005b8260ff168160ff1610156106f157818160ff16815181106106aa576106aa612199565b6020026020010151848260ff16815181106106c7576106c7612199565b6001600160a01b0390921660209283029190910190910152806106e9816121c5565b915050610687565b505050919050565b600054610100900460ff16158080156107195750600054600160ff909116105b806107335750303b158015610733575060005460ff166001145b6107965760405162461bcd60e51b815260206004820152602e60248201527f496e697469616c697a61626c653a20636f6e747261637420697320616c72656160448201526d191e481a5b9a5d1a585b1a5e995960921b6064820152608401610356565b6000805460ff1916600117905580156107b9576000805461ff0019166101001790555b6107c161164d565b60ca80546001600160a01b038086166001600160a01b03199283161790925560c98054928516929091169190911790558015610837576000805461ff0019169055604051600181527f7f26b83ff96e1f2b6a682f133852f6798a09c465da95921460cefb38474024989060200160405180910390a15b505050565b306001600160a01b037f00000000000000000000000000000000000000000000000000000000000000001614156108855760405162461bcd60e51b8152600401610356906120c7565b7f00000000000000000000000000000000000000000000000000000000000000006001600160a01b03166108ce600080516020612547833981519152546001600160a01b031690565b6001600160a01b0316146108f45760405162461bcd60e51b815260040161035690612113565b6108fd82611375565b61090982826001611490565b5050565b60c95460405163f9d9331d60e01b81526001600160a01b038381166004830152600092839291169063f9d9331d90602401602060405180830381865afa15801561095b573d6000803e3d6000fd5b505050506040513d601f19601f8201168201806040525081019061097f919061217c565b90506001600160a01b038116156109fd57604051630103c92b60e01b81526001600160a01b038581166004830152821690630103c92b90602401602060405180830381865afa1580156109d6573d6000803e3d6000fd5b505050506040513d601f19601f820116820180604052508101906109fa91906121e5565b91505b5092915050565b6000306001600160a01b037f00000000000000000000000000000000000000000000000000000000000000001614610aa45760405162461bcd60e51b815260206004820152603860248201527f555550535570677261646561626c653a206d757374206e6f742062652063616c60448201527f6c6564207468726f7567682064656c656761746563616c6c00000000000000006064820152608401610356565b5060008051602061254783398151915290565b6000610ac161167c565b60c95460405163f9d9331d60e01b81526001600160a01b038881166004830152600092169063f9d9331d90602401602060405180830381865afa158015610b0c573d6000803e3d6000fd5b505050506040513d601f19601f82011682018060405250810190610b30919061217c565b90506001600160a01b038116610bb25760c954604051621849e360e61b81526001600160a01b0389811660048301529091169063061278c0906024016020604051808303816000875af1158015610b8b573d6000803e3d6000fd5b505050506040513d601f19601f82011682018060405250810190610baf919061217c565b90505b60005b8651811015610c91576000878281518110610bd257610bd2612199565b60200260200101511115610c7f57610c7f3383898481518110610bf757610bf7612199565b6020026020010151856001600160a01b0316634f64b2be866040518263ffffffff1660e01b8152600401610c2d91815260200190565b602060405180830381865afa158015610c4a573d6000803e3d6000fd5b505050506040513d601f19601f82011682018060405250810190610c6e919061217c565b6001600160a01b03169291906116c2565b80610c89816121fe565b915050610bb5565b508315610cdc57610cdc338286846001600160a01b031663452ed4f16040518163ffffffff1660e01b8152600401602060405180830381865afa158015610c4a573d6000803e3d6000fd5b604051636f26ede360e11b81526001600160a01b0382169063de4ddbc690610d0e908990899089908990600401612219565b6020604051808303816000875af1158015610d2d573d6000803e3d6000fd5b505050506040513d601f19601f82011682018060405250810190610d5191906121e5565b9150826001600160a01b0316336001600160a01b0316886001600160a01b03167f7cfff908a4b583f36430b25d75964c458d8ede8a99bd61be750e97ee1b2f3a9685604051610da291815260200190565b60405180910390a45095945050505050565b610dbc61167c565b60ca54604051632474521560e21b81527ffbd454f36a7e1a388bd6fc3ab10d434aa4578f811acbbcf33afb1c697486313c60048201523360248201526001600160a01b03909116906391d1485490604401602060405180830381865afa158015610e2a573d6000803e3d6000fd5b505050506040513d601f19601f82011682018060405250810190610e4e919061215f565b610e935760405162461bcd60e51b815260206004820152601660248201527521a0a62622a92fa727aa2fa224a9aa2924a12aaa27a960511b6044820152606401610356565b60c95460405163f9d9331d60e01b81526001600160a01b038b81166004830152600092169063f9d9331d90602401602060405180830381865afa158015610ede573d6000803e3d6000fd5b505050506040513d601f19601f82011682018060405250810190610f02919061217c565b90506001600160a01b038116610f4c5760405162461bcd60e51b815260206004820152600f60248201526e4641524d5f4e4f545f45584953545360881b6044820152606401610356565b60405163127c565160e21b81526000906001600160a01b038316906349f1594490610f89908d908d908d908d908d908d908d908d9060040161235a565b6020604051808303816000875af1158015610fa8573d6000803e3d6000fd5b505050506040513d601f19601f82011682018060405250810190610fcc91906121e5565b90508a6001600160a01b03167fc1d32ad5cca423e7dda2123dbf8c482f8e77d00b631c06e903a47f2cec1334df8260405161100991815260200190565b60405180910390a25050505050505050505050565b60ca54604051632474521560e21b81527f65d7a28e3265b37a6474929f336521b332c1681b933f6cb9f3376673440d862a60048201523360248201526001600160a01b03909116906391d1485490604401602060405180830381865afa15801561108c573d6000803e3d6000fd5b505050506040513d601f19601f820116820180604052508101906110b0919061215f565b6110f05760405162461bcd60e51b815260206004820152601160248201527021a0a62622a92fa727aa2fa820aaa9a2a960791b6044820152606401610356565b6104d0611722565b606061110261167c565b60c95460405163f9d9331d60e01b81526001600160a01b038881166004830152600092169063f9d9331d90602401602060405180830381865afa15801561114d573d6000803e3d6000fd5b505050506040513d601f19601f82011682018060405250810190611171919061217c565b90506001600160a01b0381166111bb5760405162461bcd60e51b815260206004820152600f60248201526e4641524d5f4e4f545f45584953545360881b6044820152606401610356565b604051631f9e746960e11b81526001600160a01b03821690633f3ce8d2906111ef9089908990899033908a906004016123ba565b6000604051808303816000875af115801561120e573d6000803e3d6000fd5b505050506040513d6000823e601f3d908101601f1916820160405261123691908101906123fa565b9150826001600160a01b0316336001600160a01b0316886001600160a01b03167f3115d1449a7b732c986cba18244e897a450f61e1bb8d589cd2e69e6c8924f9f789604051610da291815260200190565b60c95460405163f9d9331d60e01b81526001600160a01b038381166004830152600092839291169063f9d9331d90602401602060405180830381865afa1580156112d5573d6000803e3d6000fd5b505050506040513d601f19601f820116820180604052508101906112f9919061217c565b90506001600160a01b0381161561136f57806001600160a01b031663168a48226040518163ffffffff1660e01b8152600401602060405180830381865afa158015611348573d6000803e3d6000fd5b505050506040513d601f19601f8201168201806040525081019061136c91906121e5565b91505b50919050565b60ca5460408051631d6c8e3f60e21b815290516001600160a01b03909216916391d148549183916375b238fc916004808201926020929091908290030181865afa1580156113c7573d6000803e3d6000fd5b505050506040513d601f19601f820116820180604052508101906113eb91906121e5565b6040516001600160e01b031960e084901b1681526004810191909152336024820152604401602060405180830381865afa15801561142d573d6000803e3d6000fd5b505050506040513d601f19601f82011682018060405250810190611451919061215f565b6103f35760405162461bcd60e51b815260206004820152601060248201526f21a0a62622a92fa727aa2fa0a226a4a760811b6044820152606401610356565b7f4910fdfa16fed3260ed0e7147f7cc6da11a60208b5b9406d12a635614ffd91435460ff16156114c3576108378361175f565b826001600160a01b03166352d1902d6040518163ffffffff1660e01b8152600401602060405180830381865afa92505050801561151d575060408051601f3d908101601f1916820190925261151a918101906121e5565b60015b6115805760405162461bcd60e51b815260206004820152602e60248201527f45524331393637557067726164653a206e657720696d706c656d656e7461746960448201526d6f6e206973206e6f74205555505360901b6064820152608401610356565b60008051602061254783398151915281146115ef5760405162461bcd60e51b815260206004820152602960248201527f45524331393637557067726164653a20756e737570706f727465642070726f786044820152681a58589b195555525160ba1b6064820152608401610356565b506108378383836117fb565b611603611820565b6033805460ff191690557f5db9ee0a495bf2e6ff9c91a7834c1ba4fdd244a5e8aa4e537bd38aeae4b073aa335b6040516001600160a01b03909116815260200160405180910390a1565b600054610100900460ff166116745760405162461bcd60e51b815260040161035690612480565b6104d0611869565b60335460ff16156104d05760405162461bcd60e51b815260206004820152601060248201526f14185d5cd8589b194e881c185d5cd95960821b6044820152606401610356565b604080516001600160a01b0385811660248301528416604482015260648082018490528251808303909101815260849091019091526020810180516001600160e01b03166323b872dd60e01b17905261171c90859061189c565b50505050565b61172a61167c565b6033805460ff191660011790557f62e78cea01bee320cd4e420270b5ea74000d11b0c9f74754ebdbfc544b05a2586116303390565b6001600160a01b0381163b6117cc5760405162461bcd60e51b815260206004820152602d60248201527f455243313936373a206e657720696d706c656d656e746174696f6e206973206e60448201526c1bdd08184818dbdb9d1c9858dd609a1b6064820152608401610356565b60008051602061254783398151915280546001600160a01b0319166001600160a01b0392909216919091179055565b6118048361196e565b6000825111806118115750805b156108375761171c83836119ae565b60335460ff166104d05760405162461bcd60e51b815260206004820152601460248201527314185d5cd8589b194e881b9bdd081c185d5cd95960621b6044820152606401610356565b600054610100900460ff166118905760405162461bcd60e51b815260040161035690612480565b6033805460ff19169055565b60006118f1826040518060400160405280602081526020017f5361666545524332303a206c6f772d6c6576656c2063616c6c206661696c6564815250856001600160a01b0316611aa29092919063ffffffff16565b805190915015610837578080602001905181019061190f919061215f565b6108375760405162461bcd60e51b815260206004820152602a60248201527f5361666545524332303a204552433230206f7065726174696f6e20646964206e6044820152691bdd081cdd58d8d9595960b21b6064820152608401610356565b6119778161175f565b6040516001600160a01b038216907fbc7cd75a20ee27fd9adebab32041f755214dbc6bffa90cc0225b39da2e5c2d3b90600090a250565b60606001600160a01b0383163b611a165760405162461bcd60e51b815260206004820152602660248201527f416464726573733a2064656c65676174652063616c6c20746f206e6f6e2d636f6044820152651b9d1c9858dd60d21b6064820152608401610356565b600080846001600160a01b031684604051611a3191906124f7565b600060405180830381855af49150503d8060008114611a6c576040519150601f19603f3d011682016040523d82523d6000602084013e611a71565b606091505b5091509150611a99828260405180606001604052806027815260200161256760279139611abb565b95945050505050565b6060611ab18484600085611af4565b90505b9392505050565b60608315611aca575081611ab4565b825115611ada5782518084602001fd5b8160405162461bcd60e51b81526004016103569190612513565b606082471015611b555760405162461bcd60e51b815260206004820152602660248201527f416464726573733a20696e73756666696369656e742062616c616e636520666f6044820152651c8818d85b1b60d21b6064820152608401610356565b6001600160a01b0385163b611bac5760405162461bcd60e51b815260206004820152601d60248201527f416464726573733a2063616c6c20746f206e6f6e2d636f6e74726163740000006044820152606401610356565b600080866001600160a01b03168587604051611bc891906124f7565b60006040518083038185875af1925050503d8060008114611c05576040519150601f19603f3d011682016040523d82523d6000602084013e611c0a565b606091505b5091509150611c1a828286611abb565b979650505050505050565b6001600160a01b03811681146103f357600080fd5b600060208284031215611c4c57600080fd5b8135611ab481611c25565b6020808252825182820181905260009190848201906040850190845b81811015611c985783516001600160a01b031683529284019291840191600101611c73565b50909695505050505050565b60008060408385031215611cb757600080fd5b8235611cc281611c25565b91506020830135611cd281611c25565b809150509250929050565b634e487b7160e01b600052604160045260246000fd5b604051601f8201601f1916810167ffffffffffffffff81118282101715611d1c57611d1c611cdd565b604052919050565b60008060408385031215611d3757600080fd5b8235611d4281611c25565b915060208381013567ffffffffffffffff80821115611d6057600080fd5b818601915086601f830112611d7457600080fd5b813581811115611d8657611d86611cdd565b611d98601f8201601f19168501611cf3565b91508082528784828501011115611dae57600080fd5b80848401858401376000848284010152508093505050509250929050565b600067ffffffffffffffff821115611de657611de6611cdd565b5060051b60200190565b600082601f830112611e0157600080fd5b81356020611e16611e1183611dcc565b611cf3565b82815260059290921b84018101918181019086841115611e3557600080fd5b8286015b84811015611e505780358352918301918301611e39565b509695505050505050565b600080600080600060a08688031215611e7357600080fd5b8535611e7e81611c25565b9450602086013567ffffffffffffffff811115611e9a57600080fd5b611ea688828901611df0565b94505060408601359250606086013591506080860135611ec581611c25565b809150509295509295909350565b60008083601f840112611ee557600080fd5b50813567ffffffffffffffff811115611efd57600080fd5b6020830191508360208260051b8501011115611f1857600080fd5b9250929050565b600080600080600080600080600060a08a8c031215611f3d57600080fd5b8935611f4881611c25565b985060208a013567ffffffffffffffff80821115611f6557600080fd5b611f718d838e01611ed3565b909a50985060408c0135915080821115611f8a57600080fd5b611f968d838e01611ed3565b909850965060608c0135915080821115611faf57600080fd5b611fbb8d838e01611ed3565b909650945060808c0135915080821115611fd457600080fd5b50611fe18c828d01611ed3565b915080935050809150509295985092959850929598565b80151581146103f357600080fd5b600080600080600060a0868803121561201e57600080fd5b853561202981611c25565b945060208601359350604086013567ffffffffffffffff81111561204c57600080fd5b61205888828901611df0565b935050606086013561206981611ff8565b91506080860135611ec581611c25565b600081518084526020808501945080840160005b838110156120a95781518752958201959082019060010161208d565b509495945050505050565b602081526000611ab46020830184612079565b6020808252602c908201527f46756e6374696f6e206d7573742062652063616c6c6564207468726f7567682060408201526b19195b1959d85d1958d85b1b60a21b606082015260800190565b6020808252602c908201527f46756e6374696f6e206d7573742062652063616c6c6564207468726f7567682060408201526b6163746976652070726f787960a01b606082015260800190565b60006020828403121561217157600080fd5b8151611ab481611ff8565b60006020828403121561218e57600080fd5b8151611ab481611c25565b634e487b7160e01b600052603260045260246000fd5b634e487b7160e01b600052601160045260246000fd5b600060ff821660ff8114156121dc576121dc6121af565b60010192915050565b6000602082840312156121f757600080fd5b5051919050565b6000600019821415612212576122126121af565b5060010190565b60808152600061222c6080830187612079565b60208301959095525060408101929092526001600160a01b0316606090910152919050565b8183526000602080850194508260005b858110156120a957813561227481611c25565b6001600160a01b031687529582019590820190600101612261565b81835260006020808501808196506005915085821b81018560005b88811015612316578383038a528135601e198936030181126122cb57600080fd5b8801803567ffffffffffffffff8111156122e457600080fd5b80871b36038a13156122f557600080fd5b61230285828a8501612251565b9b88019b94505050908501906001016122aa565b509098975050505050505050565b81835260006001600160fb1b0383111561233d57600080fd5b8260051b8083602087013760009401602001938452509192915050565b60808152600061236e608083018a8c61228f565b828103602084015261238181898b61228f565b90508281036040840152612396818789612324565b905082810360608401526123ab818587612324565b9b9a5050505050505050505050565b85815260a0602082015260006123d360a0830187612079565b9415156040830152506001600160a01b039283166060820152911660809091015292915050565b6000602080838503121561240d57600080fd5b825167ffffffffffffffff81111561242457600080fd5b8301601f8101851361243557600080fd5b8051612443611e1182611dcc565b81815260059190911b8201830190838101908783111561246257600080fd5b928401925b82841015611c1a57835182529284019290840190612467565b6020808252602b908201527f496e697469616c697a61626c653a20636f6e7472616374206973206e6f74206960408201526a6e697469616c697a696e6760a81b606082015260800190565b60005b838110156124e65781810151838201526020016124ce565b8381111561171c5750506000910152565b600082516125098184602087016124cb565b9190910192915050565b60208152600082518060208401526125328160408501602087016124cb565b601f01601f1916919091016040019291505056fe360894a13ba1a3210667c828492db98dca3e2076cc3735a920a3ca505d382bbc416464726573733a206c6f772d6c6576656c2064656c65676174652063616c6c206661696c6564a2646970667358221220c6545e9f2a734efbe474681e81f987f36c7bde3235af9da04008155137275e6d64736f6c634300080a0033",
  "immutableReferences": {
    "570": [
      {
        "length": 32,
        "start": 792
      },
      {
        "length": 32,
        "start": 865
      },
      {
        "length": 32,
        "start": 2119
      },
      {
        "length": 32,
        "start": 2183
      },
      {
        "length": 32,
        "start": 2577
      }
    ]
  },
  "source": "// SPDX-License-Identifier: MIT\r\npragma solidity 0.8.10;\r\n\r\nimport { IUnoFarmTrisolarisStable as Farm } from \"../interfaces/IUnoFarmTrisolarisStable.sol\";\r\nimport \"../../../interfaces/IUnoFarmFactory.sol\";\r\nimport \"../../../interfaces/IUnoAccessManager.sol\";\r\nimport \"../../../interfaces/ISwap.sol\";\r\nimport \"@openzeppelin/contracts-upgradeable/token/ERC20/IERC20Upgradeable.sol\";\r\nimport \"@openzeppelin/contracts-upgradeable/token/ERC20/utils/SafeERC20Upgradeable.sol\";\r\nimport \"@openzeppelin/contracts-upgradeable/proxy/utils/Initializable.sol\";\r\nimport \"@openzeppelin/contracts-upgradeable/security/PausableUpgradeable.sol\";\r\nimport \"@openzeppelin/contracts-upgradeable/proxy/utils/UUPSUpgradeable.sol\";\r\n\r\ncontract UnoAssetRouterTrisolarisStableV2 is Initializable, PausableUpgradeable, UUPSUpgradeable {\r\n    using SafeERC20Upgradeable for IERC20Upgradeable;\r\n\r\n    uint256 public constant version = 2;\r\n\r\n    /**\r\n     * @dev Contract Variables:\r\n     * farmFactory - The contract that deploys new Farms and links them to {lpPair}s.\r\n     * accessManager - Role manager contract.\r\n     */\r\n    IUnoFarmFactory public farmFactory;\r\n    IUnoAccessManager public accessManager;\r\n    bytes32 private constant DISTRIBUTOR_ROLE = keccak256(\"DISTRIBUTOR_ROLE\");\r\n    bytes32 private constant PAUSER_ROLE = keccak256(\"PAUSER_ROLE\");\r\n\r\n    event Deposit(address indexed lpPool, address indexed sender, address indexed recipient, uint256 amount);\r\n    event Withdraw(address indexed lpPool, address indexed sender, address indexed recipient, uint256 amount);\r\n    event Distribute(address indexed lpPool, uint256 reward);\r\n\r\n    modifier onlyDistributor() {\r\n        require(accessManager.hasRole(DISTRIBUTOR_ROLE, msg.sender), \"CALLER_NOT_DISTRIBUTOR\");\r\n        _;\r\n    }\r\n    modifier onlyPauser() {\r\n        require(accessManager.hasRole(PAUSER_ROLE, msg.sender), \"CALLER_NOT_PAUSER\");\r\n        _;\r\n    }\r\n    modifier onlyAdmin() {\r\n        require(accessManager.hasRole(accessManager.ADMIN_ROLE(), msg.sender), \"CALLER_NOT_ADMIN\");\r\n        _;\r\n    }\r\n\r\n    // ============ Methods ============\r\n\r\n    function initialize(address _accessManager, address _farmFactory) external initializer {\r\n        __Pausable_init();\r\n        accessManager = IUnoAccessManager(_accessManager);\r\n        farmFactory = IUnoFarmFactory(_farmFactory);\r\n    }\r\n\r\n    /**\r\n     * @dev Deposits tokens in the given pool. Creates new Farm contract if there isn't one deployed for the {lpPair} and deposits tokens in it. Emits a {Deposit} event.\r\n     * @param swap - Address of the Swap contract.\r\n     * @param amounts - Amounts of tokens to deposit.\r\n     * @param minAmountLP - Minimum LP the user will receive from {{amounts}} deposit.\r\n     * @param amountLP - Amount of LP tokens to deposit.\r\n     * @param recipient - Address which will recieve the deposit.\r\n\r\n     * @return liquidity - Total liquidity sent to the farm (in lpTokens).\r\n     */\r\n    function deposit(\r\n        address swap,\r\n        uint256[] memory amounts,\r\n        uint256 minAmountLP,\r\n        uint256 amountLP,\r\n        address recipient\r\n    ) external whenNotPaused returns (uint256 liquidity) {\r\n        Farm farm = Farm(farmFactory.Farms(swap));\r\n        if (farm == Farm(address(0))) {\r\n            farm = Farm(farmFactory.createFarm(swap));\r\n        }\r\n\r\n        for (uint256 i = 0; i < amounts.length; i++) { \r\n            if (amounts[i] > 0) {\r\n                IERC20Upgradeable(farm.tokens(i)).safeTransferFrom(msg.sender, address(farm), amounts[i]);\r\n            }\r\n        }\r\n\r\n        if (amountLP > 0) {\r\n            IERC20Upgradeable(farm.lpPair()).safeTransferFrom(msg.sender, address(farm), amountLP);\r\n        }\r\n\r\n        liquidity = farm.deposit(amounts, minAmountLP, amountLP, recipient);\r\n        emit Deposit(swap, msg.sender, recipient, liquidity);\r\n    }\r\n\r\n    /** \r\n     * @dev Withdraws tokens from the given pool. Emits a {Withdraw} event.\r\n     * @param swap - Address of the Swap contract.\r\n     * @param amount - Amounts of LP tokens to withdraw.\r\n     * @param minAmounts - Minimum amounts of tokens sent to {recipient}.\r\n     * @param withdrawLP - Whether to withdraw or not to withdraw the deposits in LP tokens.\r\n     * @param recipient - The address which will recieve tokens.\r\n\r\n     * @return amounts - Token amounts sent to {recipient}, an array of zeros if withdrawLP == false.\r\n     */\r\n    function withdraw(\r\n        address swap,\r\n        uint256 amount,\r\n        uint256[] memory minAmounts,\r\n        bool withdrawLP,\r\n        address recipient\r\n    ) external whenNotPaused returns (uint256[] memory amounts) {\r\n        Farm farm = Farm(farmFactory.Farms(swap));\r\n        require(farm != Farm(address(0)), \"FARM_NOT_EXISTS\");\r\n\r\n        amounts = farm.withdraw(amount, minAmounts, withdrawLP, msg.sender, recipient);\r\n        emit Withdraw(swap, msg.sender, recipient, amount);\r\n    }\r\n\r\n    /**\r\n     * @dev Distributes tokens between users.\r\n     * @param swap - Address of the Swap contract.\r\n     * @param rewardTokenRoutes An array of reward token addresses.\r\n     * @param rewarderTokenRoutes An array of rewarder token addresses.\r\n     * @param rewardAmountsOutMin  An array of minimum amounts of reward tokens.\r\n     * @param rewarderAmountsOutMin An array of minimum amounts of rewarder tokens.\r\n     *\r\n     * Note: This function can only be called by the distributor.\r\n     */\r\n    function distribute(\r\n        address swap,\r\n        address[][] calldata rewardTokenRoutes,\r\n        address[][] calldata rewarderTokenRoutes,\r\n        uint256[] calldata rewardAmountsOutMin,\r\n        uint256[] calldata rewarderAmountsOutMin\r\n    ) external whenNotPaused onlyDistributor {\r\n        Farm farm = Farm(farmFactory.Farms(swap));\r\n        require(farm != Farm(address(0)), \"FARM_NOT_EXISTS\");\r\n\r\n        uint256 reward = farm.distribute(\r\n            rewardTokenRoutes,\r\n            rewarderTokenRoutes,\r\n            rewardAmountsOutMin,\r\n            rewarderAmountsOutMin\r\n        );\r\n        emit Distribute(swap, reward);\r\n    }\r\n\r\n    /**\r\n     * @dev Returns tokens staked by the {_address} for the given {lpPair}.\r\n     * @param _address - The address to check stakes for.\r\n     * @param swap - Address of the Swap contract.\r\n\r\n     * @return stakeLP - Total user stake(in LP tokens).\r\n     */\r\n    function userStake(address _address, address swap) external view returns (uint256 stakeLP) {\r\n        Farm farm = Farm(farmFactory.Farms(swap));\r\n        if (farm != Farm(address(0))) {\r\n            stakeLP = farm.userBalance(_address);\r\n        }\r\n    }\r\n\r\n    /**\r\n     * @dev Returns total amount locked in the pool. Doesn't take pending rewards into account.\r\n     * @param swap - Address of the Swap contract.\r\n\r\n     * @return totalDepositsLP - Total deposits (in LP tokens).\r\n     */\r\n    function totalDeposits(address swap) external view returns (uint256 totalDepositsLP) {\r\n        Farm farm = Farm(farmFactory.Farms(swap));\r\n        if (farm != Farm(address(0))) {\r\n            totalDepositsLP = farm.getTotalDeposits();\r\n        }\r\n    }\r\n\r\n    /**\r\n     * @dev Returns addresses of tokens in {swap}.\r\n     * @param swap - LP pool to check tokens in.\r\n\r\n     * @return tokens - Token address.\r\n     */  \r\n    function getTokens(address swap) external view returns(address[] memory tokens){\r\n        uint8 tokenCount;\r\n        address[] memory _tokens = new address[](type(uint8).max);\r\n        for (uint8 i = 0; i < type(uint8).max; i++) {\r\n            try ISwap(swap).getToken(i) returns (address token) {\r\n                _tokens[i] = token;\r\n                tokenCount++;\r\n            } catch (bytes memory /*lowLevelData*/) {\r\n                break;\r\n            }\r\n        }\r\n        require(tokenCount > 0, \"NO_TOKENS_IN_SWAP\");\r\n\r\n        tokens = new address[](tokenCount);\r\n        for (uint8 i = 0; i < tokenCount; i++) {\r\n            tokens[i] = _tokens[i];\r\n        }\r\n        return tokens;\r\n    }\r\n\r\n    function pause() external onlyPauser {\r\n        _pause();\r\n    }\r\n\r\n    function unpause() external onlyPauser {\r\n        _unpause();\r\n    }\r\n\r\n    function _authorizeUpgrade(address) internal override onlyAdmin {}\r\n}\r\n",
  "sourcePath": "C:\\Users\\jugli\\Desktop\\uno\\uno-contracts\\contracts\\apps\\trisolarisStable\\test\\UnoAssetRouterTrisolarisStableV2.sol",
  "compiler": {
    "name": "solc",
    "version": "0.8.10+commit.fc410830.Emscripten.clang"
  },
  "schemaVersion": "3.4.7",
  "updatedAt": "2022-07-23T15:27:21.364Z",
  "devdoc": {
    "kind": "dev",
    "methods": {
      "deposit(address,uint256[],uint256,uint256,address)": {
        "details": "Deposits tokens in the given pool. Creates new Farm contract if there isn't one deployed for the {lpPair} and deposits tokens in it. Emits a {Deposit} event.",
        "params": {
          "amountLP": "- Amount of LP tokens to deposit.",
          "amounts": "- Amounts of tokens to deposit.",
          "minAmountLP": "- Minimum LP the user will receive from {{amounts}} deposit.",
          "recipient": "- Address which will recieve the deposit.",
          "swap": "- Address of the Swap contract."
        },
        "returns": {
          "liquidity": "- Total liquidity sent to the farm (in lpTokens)."
        }
      },
      "distribute(address,address[][],address[][],uint256[],uint256[])": {
        "details": "Distributes tokens between users.",
        "params": {
          "rewardAmountsOutMin": "An array of minimum amounts of reward tokens.",
          "rewardTokenRoutes": "An array of reward token addresses.",
          "rewarderAmountsOutMin": "An array of minimum amounts of rewarder tokens. Note: This function can only be called by the distributor.",
          "rewarderTokenRoutes": "An array of rewarder token addresses.",
          "swap": "- Address of the Swap contract."
        }
      },
      "getTokens(address)": {
        "details": "Returns addresses of tokens in {swap}.",
        "params": {
          "swap": "- LP pool to check tokens in."
        },
        "returns": {
          "tokens": "- Token address."
        }
      },
      "paused()": {
        "details": "Returns true if the contract is paused, and false otherwise."
      },
      "proxiableUUID()": {
        "details": "Implementation of the ERC1822 {proxiableUUID} function. This returns the storage slot used by the implementation. It is used to validate that the this implementation remains valid after an upgrade. IMPORTANT: A proxy pointing at a proxiable contract should not be considered proxiable itself, because this risks bricking a proxy that upgrades to it, by delegating to itself until out of gas. Thus it is critical that this function revert if invoked through a proxy. This is guaranteed by the `notDelegated` modifier."
      },
      "totalDeposits(address)": {
        "details": "Returns total amount locked in the pool. Doesn't take pending rewards into account.",
        "params": {
          "swap": "- Address of the Swap contract."
        },
        "returns": {
          "totalDepositsLP": "- Total deposits (in LP tokens)."
        }
      },
      "upgradeTo(address)": {
        "details": "Upgrade the implementation of the proxy to `newImplementation`. Calls {_authorizeUpgrade}. Emits an {Upgraded} event."
      },
      "upgradeToAndCall(address,bytes)": {
        "details": "Upgrade the implementation of the proxy to `newImplementation`, and subsequently execute the function call encoded in `data`. Calls {_authorizeUpgrade}. Emits an {Upgraded} event."
      },
      "userStake(address,address)": {
        "details": "Returns tokens staked by the {_address} for the given {lpPair}.",
        "params": {
          "_address": "- The address to check stakes for.",
          "swap": "- Address of the Swap contract."
        },
        "returns": {
          "stakeLP": "- Total user stake(in LP tokens)."
        }
      },
      "withdraw(address,uint256,uint256[],bool,address)": {
        "details": "Withdraws tokens from the given pool. Emits a {Withdraw} event.",
        "params": {
          "amount": "- Amounts of LP tokens to withdraw.",
          "minAmounts": "- Minimum amounts of tokens sent to {recipient}.",
          "recipient": "- The address which will recieve tokens.",
          "swap": "- Address of the Swap contract.",
          "withdrawLP": "- Whether to withdraw or not to withdraw the deposits in LP tokens."
        },
        "returns": {
          "amounts": "- Token amounts sent to {recipient}, an array of zeros if withdrawLP == false."
        }
      }
    },
    "stateVariables": {
      "farmFactory": {
        "details": "Contract Variables: farmFactory - The contract that deploys new Farms and links them to {lpPair}s. accessManager - Role manager contract."
      }
    },
    "version": 1
  },
  "userdoc": {
    "kind": "user",
    "methods": {},
    "version": 1
  }
}