{
  "contractName": "UnoAssetRouterQuickswapDual",
  "abi": [
    {
      "inputs": [],
      "stateMutability": "nonpayable",
      "type": "constructor"
    },
    {
      "anonymous": false,
      "inputs": [
        {
          "indexed": false,
          "internalType": "address",
          "name": "previousAdmin",
          "type": "address"
        },
        {
          "indexed": false,
          "internalType": "address",
          "name": "newAdmin",
          "type": "address"
        }
      ],
      "name": "AdminChanged",
      "type": "event"
    },
    {
      "anonymous": false,
      "inputs": [
        {
          "indexed": true,
          "internalType": "address",
          "name": "beacon",
          "type": "address"
        }
      ],
      "name": "BeaconUpgraded",
      "type": "event"
    },
    {
      "anonymous": false,
      "inputs": [
        {
          "indexed": true,
          "internalType": "address",
          "name": "lpPool",
          "type": "address"
        },
        {
          "indexed": true,
          "internalType": "address",
          "name": "sender",
          "type": "address"
        },
        {
          "indexed": true,
          "internalType": "address",
          "name": "recipient",
          "type": "address"
        },
        {
          "indexed": false,
          "internalType": "uint256",
          "name": "amount",
          "type": "uint256"
        }
      ],
      "name": "Deposit",
      "type": "event"
    },
    {
      "anonymous": false,
      "inputs": [
        {
          "indexed": true,
          "internalType": "address",
          "name": "lpPool",
          "type": "address"
        },
        {
          "indexed": false,
          "internalType": "uint256",
          "name": "reward",
          "type": "uint256"
        }
      ],
      "name": "Distribute",
      "type": "event"
    },
    {
      "anonymous": false,
      "inputs": [
        {
          "indexed": false,
          "internalType": "uint8",
          "name": "version",
          "type": "uint8"
        }
      ],
      "name": "Initialized",
      "type": "event"
    },
    {
      "anonymous": false,
      "inputs": [
        {
          "indexed": false,
          "internalType": "address",
          "name": "account",
          "type": "address"
        }
      ],
      "name": "Paused",
      "type": "event"
    },
    {
      "anonymous": false,
      "inputs": [
        {
          "indexed": false,
          "internalType": "address",
          "name": "account",
          "type": "address"
        }
      ],
      "name": "Unpaused",
      "type": "event"
    },
    {
      "anonymous": false,
      "inputs": [
        {
          "indexed": true,
          "internalType": "address",
          "name": "implementation",
          "type": "address"
        }
      ],
      "name": "Upgraded",
      "type": "event"
    },
    {
      "anonymous": false,
      "inputs": [
        {
          "indexed": true,
          "internalType": "address",
          "name": "lpPool",
          "type": "address"
        },
        {
          "indexed": true,
          "internalType": "address",
          "name": "sender",
          "type": "address"
        },
        {
          "indexed": true,
          "internalType": "address",
          "name": "recipient",
          "type": "address"
        },
        {
          "indexed": false,
          "internalType": "uint256",
          "name": "amount",
          "type": "uint256"
        }
      ],
      "name": "Withdraw",
      "type": "event"
    },
    {
      "inputs": [],
      "name": "accessManager",
      "outputs": [
        {
          "internalType": "contract IUnoAccessManager",
          "name": "",
          "type": "address"
        }
      ],
      "stateMutability": "view",
      "type": "function"
    },
    {
      "inputs": [],
      "name": "farmFactory",
      "outputs": [
        {
          "internalType": "contract IUnoFarmFactory",
          "name": "",
          "type": "address"
        }
      ],
      "stateMutability": "view",
      "type": "function"
    },
    {
      "inputs": [],
      "name": "paused",
      "outputs": [
        {
          "internalType": "bool",
          "name": "",
          "type": "bool"
        }
      ],
      "stateMutability": "view",
      "type": "function"
    },
    {
      "inputs": [],
      "name": "proxiableUUID",
      "outputs": [
        {
          "internalType": "bytes32",
          "name": "",
          "type": "bytes32"
        }
      ],
      "stateMutability": "view",
      "type": "function"
    },
    {
      "inputs": [
        {
          "internalType": "address",
          "name": "newImplementation",
          "type": "address"
        }
      ],
      "name": "upgradeTo",
      "outputs": [],
      "stateMutability": "nonpayable",
      "type": "function"
    },
    {
      "inputs": [
        {
          "internalType": "address",
          "name": "newImplementation",
          "type": "address"
        },
        {
          "internalType": "bytes",
          "name": "data",
          "type": "bytes"
        }
      ],
      "name": "upgradeToAndCall",
      "outputs": [],
      "stateMutability": "payable",
      "type": "function"
    },
    {
      "inputs": [
        {
          "internalType": "address",
          "name": "_accessManager",
          "type": "address"
        },
        {
          "internalType": "address",
          "name": "_farmFactory",
          "type": "address"
        }
      ],
      "name": "initialize",
      "outputs": [],
      "stateMutability": "nonpayable",
      "type": "function"
    },
    {
      "inputs": [
        {
          "internalType": "address",
          "name": "lpStakingPool",
          "type": "address"
        },
        {
          "internalType": "uint256",
          "name": "amountA",
          "type": "uint256"
        },
        {
          "internalType": "uint256",
          "name": "amountB",
          "type": "uint256"
        },
        {
          "internalType": "uint256",
          "name": "amountAMin",
          "type": "uint256"
        },
        {
          "internalType": "uint256",
          "name": "amountBMin",
          "type": "uint256"
        },
        {
          "internalType": "uint256",
          "name": "amountLP",
          "type": "uint256"
        },
        {
          "internalType": "address",
          "name": "recipient",
          "type": "address"
        }
      ],
      "name": "deposit",
      "outputs": [
        {
          "internalType": "uint256",
          "name": "sentA",
          "type": "uint256"
        },
        {
          "internalType": "uint256",
          "name": "sentB",
          "type": "uint256"
        },
        {
          "internalType": "uint256",
          "name": "liquidity",
          "type": "uint256"
        }
      ],
      "stateMutability": "nonpayable",
      "type": "function"
    },
    {
      "inputs": [
        {
          "internalType": "address",
          "name": "lpStakingPool",
          "type": "address"
        },
        {
          "internalType": "uint256",
          "name": "amount",
          "type": "uint256"
        },
        {
          "internalType": "uint256",
          "name": "amountAMin",
          "type": "uint256"
        },
        {
          "internalType": "uint256",
          "name": "amountBMin",
          "type": "uint256"
        },
        {
          "internalType": "bool",
          "name": "withdrawLP",
          "type": "bool"
        },
        {
          "internalType": "address",
          "name": "recipient",
          "type": "address"
        }
      ],
      "name": "withdraw",
      "outputs": [
        {
          "internalType": "uint256",
          "name": "amountA",
          "type": "uint256"
        },
        {
          "internalType": "uint256",
          "name": "amountB",
          "type": "uint256"
        }
      ],
      "stateMutability": "nonpayable",
      "type": "function"
    },
    {
      "inputs": [
        {
          "internalType": "address",
          "name": "lpStakingPool",
          "type": "address"
        },
        {
          "internalType": "address[][4]",
          "name": "swapRoutes",
          "type": "address[][4]"
        },
        {
          "internalType": "uint256[4]",
          "name": "amountsOutMin",
          "type": "uint256[4]"
        }
      ],
      "name": "distribute",
      "outputs": [],
      "stateMutability": "nonpayable",
      "type": "function"
    },
    {
      "inputs": [
        {
          "internalType": "address",
          "name": "_address",
          "type": "address"
        },
        {
          "internalType": "address",
          "name": "lpStakingPool",
          "type": "address"
        }
      ],
      "name": "userStake",
      "outputs": [
        {
          "internalType": "uint256",
          "name": "stakeLP",
          "type": "uint256"
        },
        {
          "internalType": "uint256",
          "name": "stakeA",
          "type": "uint256"
        },
        {
          "internalType": "uint256",
          "name": "stakeB",
          "type": "uint256"
        }
      ],
      "stateMutability": "view",
      "type": "function"
    },
    {
      "inputs": [
        {
          "internalType": "address",
          "name": "lpStakingPool",
          "type": "address"
        }
      ],
      "name": "totalDeposits",
      "outputs": [
        {
          "internalType": "uint256",
          "name": "totalDepositsLP",
          "type": "uint256"
        },
        {
          "internalType": "uint256",
          "name": "totalDepositsA",
          "type": "uint256"
        },
        {
          "internalType": "uint256",
          "name": "totalDepositsB",
          "type": "uint256"
        }
      ],
      "stateMutability": "view",
      "type": "function"
    },
    {
      "inputs": [
        {
          "internalType": "address",
          "name": "lpStakingPool",
          "type": "address"
        }
      ],
      "name": "getTokens",
      "outputs": [
        {
          "internalType": "contract IERC20Upgradeable[]",
          "name": "tokens",
          "type": "address[]"
        }
      ],
      "stateMutability": "view",
      "type": "function"
    },
    {
      "inputs": [],
      "name": "pause",
      "outputs": [],
      "stateMutability": "nonpayable",
      "type": "function"
    },
    {
      "inputs": [],
      "name": "unpause",
      "outputs": [],
      "stateMutability": "nonpayable",
      "type": "function"
    }
  ],
  "bytecode": "0x60a0604052306080523480156200001557600080fd5b506200002062000026565b62000156565b6200003260ff62000035565b50565b60008054610100900460ff1615620000ce578160ff1660011480156200006e57506200006c306200014760201b620013bd1760201c565b155b620000c65760405162461bcd60e51b815260206004820152602e60248201526000805160206200286f83398151915260448201526d191e481a5b9a5d1a585b1a5e995960921b60648201526084015b60405180910390fd5b506000919050565b60005460ff8084169116106200012d5760405162461bcd60e51b815260206004820152602e60248201526000805160206200286f83398151915260448201526d191e481a5b9a5d1a585b1a5e995960921b6064820152608401620000bd565b506000805460ff191660ff92909216919091179055600190565b6001600160a01b03163b151590565b6080516126e16200018e600039600081816104be015281816104fe01528181610b9201528181610bd20152610dd601526126e16000f3fe6080604052600436106100e85760003560e01c806351bdca3e1161008a5780638456cb59116100595780638456cb5914610297578063e9403256146102ac578063f441f73c146102cc578063fdcb6068146102ec57600080fd5b806351bdca3e146101de57806352d1902d146102195780635c975abb1461023c5780636d25e1751461025f57600080fd5b80633f4ba83a116100c65780633f4ba83a14610169578063450efe211461017e578063485cc955146101ab5780634f1ef286146101cb57600080fd5b80631ec5aa3e146100ed5780633659cfe6146101275780633ac06d5e14610149575b600080fd5b3480156100f957600080fd5b5061010d610108366004611f1c565b61030c565b604080519283526020830191909152015b60405180910390f35b34801561013357600080fd5b50610147610142366004611f83565b6104b3565b005b34801561015557600080fd5b50610147610164366004612010565b610593565b34801561017557600080fd5b506101476107df565b34801561018a57600080fd5b5061019e610199366004611f83565b610896565b60405161011e91906120b5565b3480156101b757600080fd5b506101476101c6366004612102565b610a4c565b6101476101d936600461213b565b610b87565b3480156101ea57600080fd5b506101fe6101f9366004612102565b610c58565b6040805193845260208401929092529082015260600161011e565b34801561022557600080fd5b5061022e610dc9565b60405190815260200161011e565b34801561024857600080fd5b5060335460ff16604051901515815260200161011e565b34801561026b57600080fd5b5060c95461027f906001600160a01b031681565b6040516001600160a01b03909116815260200161011e565b3480156102a357600080fd5b50610147610e7c565b3480156102b857600080fd5b506101fe6102c7366004611f83565b610f33565b3480156102d857600080fd5b506101fe6102e73660046121e3565b61109c565b3480156102f857600080fd5b5060ca5461027f906001600160a01b031681565b60c95460405163f9d9331d60e01b81526001600160a01b038881166004830152600092839283929091169063f9d9331d90602401602060405180830381865afa15801561035d573d6000803e3d6000fd5b505050506040513d601f19601f82011682018060405250810190610381919061224c565b90506001600160a01b0381166103d05760405162461bcd60e51b815260206004820152600f60248201526e4641524d5f4e4f545f45584953545360881b60448201526064015b60405180910390fd5b60405163d563468360e01b815260048101899052602481018890526044810187905285151560648201523360848201526001600160a01b0385811660a483015282169063d56346839060c40160408051808303816000875af115801561043a573d6000803e3d6000fd5b505050506040513d601f19601f8201168201806040525081019061045e9190612269565b6040518a815291945092506001600160a01b038581169133918c16907f3115d1449a7b732c986cba18244e897a450f61e1bb8d589cd2e69e6c8924f9f79060200160405180910390a450965096945050505050565b306001600160a01b037f00000000000000000000000000000000000000000000000000000000000000001614156104fc5760405162461bcd60e51b81526004016103c79061228d565b7f00000000000000000000000000000000000000000000000000000000000000006001600160a01b0316610545600080516020612665833981519152546001600160a01b031690565b6001600160a01b03161461056b5760405162461bcd60e51b81526004016103c7906122d9565b610574816113cc565b60408051600080825260208201909252610590918391906114d2565b50565b60335460ff16156105b65760405162461bcd60e51b81526004016103c790612325565b60ca54604051632474521560e21b81527ffbd454f36a7e1a388bd6fc3ab10d434aa4578f811acbbcf33afb1c697486313c60048201819052336024830152916001600160a01b0316906391d1485490604401602060405180830381865afa158015610625573d6000803e3d6000fd5b505050506040513d601f19601f82011682018060405250810190610649919061234f565b6106655760405162461bcd60e51b81526004016103c79061236c565b60c95460405163f9d9331d60e01b81526001600160a01b038681166004830152600092169063f9d9331d90602401602060405180830381865afa1580156106b0573d6000803e3d6000fd5b505050506040513d601f19601f820116820180604052508101906106d4919061224c565b90506001600160a01b03811661071e5760405162461bcd60e51b815260206004820152600f60248201526e4641524d5f4e4f545f45584953545360881b60448201526064016103c7565b6040516302e4371960e61b81526000906001600160a01b0383169063b90dc6409061074f9088908890600401612407565b6020604051808303816000875af115801561076e573d6000803e3d6000fd5b505050506040513d601f19601f8201168201806040525081019061079291906124a4565b9050856001600160a01b03167fc1d32ad5cca423e7dda2123dbf8c482f8e77d00b631c06e903a47f2cec1334df826040516107cf91815260200190565b60405180910390a2505050505050565b60ca54604051632474521560e21b81527f65d7a28e3265b37a6474929f336521b332c1681b933f6cb9f3376673440d862a60048201819052336024830152916001600160a01b0316906391d1485490604401602060405180830381865afa15801561084e573d6000803e3d6000fd5b505050506040513d601f19601f82011682018060405250810190610872919061234f565b61088e5760405162461bcd60e51b81526004016103c79061236c565b61059061163d565b60408051600280825260608083018452926020830190803683370190505090506000826001600160a01b03166372f702f36040518163ffffffff1660e01b8152600401602060405180830381865afa1580156108f6573d6000803e3d6000fd5b505050506040513d601f19601f8201168201806040525081019061091a919061224c565b9050806001600160a01b0316630dfe16816040518163ffffffff1660e01b8152600401602060405180830381865afa15801561095a573d6000803e3d6000fd5b505050506040513d601f19601f8201168201806040525081019061097e919061224c565b82600081518110610991576109916124bd565b60200260200101906001600160a01b031690816001600160a01b031681525050806001600160a01b031663d21220a76040518163ffffffff1660e01b8152600401602060405180830381865afa1580156109ef573d6000803e3d6000fd5b505050506040513d601f19601f82011682018060405250810190610a13919061224c565b82600181518110610a2657610a266124bd565b60200260200101906001600160a01b031690816001600160a01b03168152505050919050565b6000610a5860016116d0565b90508015610a70576000805461ff0019166101001790555b6001600160a01b038316610abb5760405162461bcd60e51b81526020600482015260126024820152712120a22fa0a1a1a2a9a9afa6a0a720a3a2a960711b60448201526064016103c7565b6001600160a01b038216610b045760405162461bcd60e51b815260206004820152601060248201526f4241445f4641524d5f464143544f525960801b60448201526064016103c7565b610b0c611758565b60ca80546001600160a01b038086166001600160a01b03199283161790925560c98054928516929091169190911790558015610b82576000805461ff0019169055604051600181527f7f26b83ff96e1f2b6a682f133852f6798a09c465da95921460cefb38474024989060200160405180910390a15b505050565b306001600160a01b037f0000000000000000000000000000000000000000000000000000000000000000161415610bd05760405162461bcd60e51b81526004016103c79061228d565b7f00000000000000000000000000000000000000000000000000000000000000006001600160a01b0316610c19600080516020612665833981519152546001600160a01b031690565b6001600160a01b031614610c3f5760405162461bcd60e51b81526004016103c7906122d9565b610c48826113cc565b610c54828260016114d2565b5050565b60c95460405163f9d9331d60e01b81526001600160a01b038381166004830152600092839283928392169063f9d9331d90602401602060405180830381865afa158015610ca9573d6000803e3d6000fd5b505050506040513d601f19601f82011682018060405250810190610ccd919061224c565b90506001600160a01b03811615610dc157604051630103c92b60e01b81526001600160a01b038781166004830152821690630103c92b90602401602060405180830381865afa158015610d24573d6000803e3d6000fd5b505050506040513d601f19601f82011682018060405250810190610d4891906124a4565b93506000816001600160a01b031663452ed4f16040518163ffffffff1660e01b8152600401602060405180830381865afa158015610d8a573d6000803e3d6000fd5b505050506040513d601f19601f82011682018060405250810190610dae919061224c565b9050610dba8186611789565b9094509250505b509250925092565b6000306001600160a01b037f00000000000000000000000000000000000000000000000000000000000000001614610e695760405162461bcd60e51b815260206004820152603860248201527f555550535570677261646561626c653a206d757374206e6f742062652063616c60448201527f6c6564207468726f7567682064656c656761746563616c6c000000000000000060648201526084016103c7565b5060008051602061266583398151915290565b60ca54604051632474521560e21b81527f65d7a28e3265b37a6474929f336521b332c1681b933f6cb9f3376673440d862a60048201819052336024830152916001600160a01b0316906391d1485490604401602060405180830381865afa158015610eeb573d6000803e3d6000fd5b505050506040513d601f19601f82011682018060405250810190610f0f919061234f565b610f2b5760405162461bcd60e51b81526004016103c79061236c565b6105906119c4565b60c95460405163f9d9331d60e01b81526001600160a01b038381166004830152600092839283928392169063f9d9331d90602401602060405180830381865afa158015610f84573d6000803e3d6000fd5b505050506040513d601f19601f82011682018060405250810190610fa8919061224c565b90506001600160a01b0381161561109457806001600160a01b031663168a48226040518163ffffffff1660e01b8152600401602060405180830381865afa158015610ff7573d6000803e3d6000fd5b505050506040513d601f19601f8201168201806040525081019061101b91906124a4565b93506000816001600160a01b031663452ed4f16040518163ffffffff1660e01b8152600401602060405180830381865afa15801561105d573d6000803e3d6000fd5b505050506040513d601f19601f82011682018060405250810190611081919061224c565b905061108d8186611789565b9094509250505b509193909250565b60008060006110ad60335460ff1690565b156110ca5760405162461bcd60e51b81526004016103c790612325565b60c95460405163f9d9331d60e01b81526001600160a01b038c81166004830152600092169063f9d9331d90602401602060405180830381865afa158015611115573d6000803e3d6000fd5b505050506040513d601f19601f82011682018060405250810190611139919061224c565b90506001600160a01b0381166111bb5760c954604051621849e360e61b81526001600160a01b038d811660048301529091169063061278c0906024016020604051808303816000875af1158015611194573d6000803e3d6000fd5b505050506040513d601f19601f820116820180604052508101906111b8919061224c565b90505b891561123a5761123a33828c846001600160a01b0316630fc63d106040518163ffffffff1660e01b8152600401602060405180830381865afa158015611205573d6000803e3d6000fd5b505050506040513d601f19601f82011682018060405250810190611229919061224c565b6001600160a01b0316929190611a1c565b88156112845761128433828b846001600160a01b0316635f64b55b6040518163ffffffff1660e01b8152600401602060405180830381865afa158015611205573d6000803e3d6000fd5b85156112ce576112ce338288846001600160a01b031663452ed4f16040518163ffffffff1660e01b8152600401602060405180830381865afa158015611205573d6000803e3d6000fd5b604051630b333b4560e11b8152600481018b9052602481018a90526044810189905260648101889052608481018790523360a48201526001600160a01b0386811660c4830152821690631666768a9060e4016060604051808303816000875af115801561133f573d6000803e3d6000fd5b505050506040513d601f19601f8201168201806040525081019061136391906124d3565b60405181815292965090945092506001600160a01b038681169133918e16907f7cfff908a4b583f36430b25d75964c458d8ede8a99bd61be750e97ee1b2f3a969060200160405180910390a4509750975097945050505050565b6001600160a01b03163b151590565b60ca60009054906101000a90046001600160a01b03166001600160a01b03166375b238fc6040518163ffffffff1660e01b8152600401602060405180830381865afa15801561141f573d6000803e3d6000fd5b505050506040513d601f19601f8201168201806040525081019061144391906124a4565b60ca54604051632474521560e21b8152600481018390523360248201526001600160a01b03909116906391d1485490604401602060405180830381865afa158015611492573d6000803e3d6000fd5b505050506040513d601f19601f820116820180604052508101906114b6919061234f565b610c545760405162461bcd60e51b81526004016103c79061236c565b7f4910fdfa16fed3260ed0e7147f7cc6da11a60208b5b9406d12a635614ffd91435460ff161561150557610b8283611a7c565b826001600160a01b03166352d1902d6040518163ffffffff1660e01b8152600401602060405180830381865afa92505050801561155f575060408051601f3d908101601f1916820190925261155c918101906124a4565b60015b6115c25760405162461bcd60e51b815260206004820152602e60248201527f45524331393637557067726164653a206e657720696d706c656d656e7461746960448201526d6f6e206973206e6f74205555505360901b60648201526084016103c7565b60008051602061266583398151915281146116315760405162461bcd60e51b815260206004820152602960248201527f45524331393637557067726164653a20756e737570706f727465642070726f786044820152681a58589b195555525160ba1b60648201526084016103c7565b50610b82838383611b18565b60335460ff166116865760405162461bcd60e51b815260206004820152601460248201527314185d5cd8589b194e881b9bdd081c185d5cd95960621b60448201526064016103c7565b6033805460ff191690557f5db9ee0a495bf2e6ff9c91a7834c1ba4fdd244a5e8aa4e537bd38aeae4b073aa335b6040516001600160a01b03909116815260200160405180910390a1565b60008054610100900460ff1615611717578160ff1660011480156116f35750303b155b61170f5760405162461bcd60e51b81526004016103c790612501565b506000919050565b60005460ff80841691161061173e5760405162461bcd60e51b81526004016103c790612501565b506000805460ff191660ff92909216919091179055600190565b600054610100900460ff1661177f5760405162461bcd60e51b81526004016103c79061254f565b611787611b3d565b565b6000806000846001600160a01b03166318160ddd6040518163ffffffff1660e01b8152600401602060405180830381865afa1580156117cc573d6000803e3d6000fd5b505050506040513d601f19601f820116820180604052508101906117f091906124a4565b905080856001600160a01b0316630dfe16816040518163ffffffff1660e01b8152600401602060405180830381865afa158015611831573d6000803e3d6000fd5b505050506040513d601f19601f82011682018060405250810190611855919061224c565b6040516370a0823160e01b81526001600160a01b03888116600483015291909116906370a0823190602401602060405180830381865afa15801561189d573d6000803e3d6000fd5b505050506040513d601f19601f820116820180604052508101906118c191906124a4565b6118cb908661259a565b6118d591906125c7565b925080856001600160a01b031663d21220a76040518163ffffffff1660e01b8152600401602060405180830381865afa158015611916573d6000803e3d6000fd5b505050506040513d601f19601f8201168201806040525081019061193a919061224c565b6040516370a0823160e01b81526001600160a01b03888116600483015291909116906370a0823190602401602060405180830381865afa158015611982573d6000803e3d6000fd5b505050506040513d601f19601f820116820180604052508101906119a691906124a4565b6119b0908661259a565b6119ba91906125c7565b9150509250929050565b60335460ff16156119e75760405162461bcd60e51b81526004016103c790612325565b6033805460ff191660011790557f62e78cea01bee320cd4e420270b5ea74000d11b0c9f74754ebdbfc544b05a2586116b33390565b604080516001600160a01b0385811660248301528416604482015260648082018490528251808303909101815260849091019091526020810180516001600160e01b03166323b872dd60e01b179052611a76908590611b70565b50505050565b6001600160a01b0381163b611ae95760405162461bcd60e51b815260206004820152602d60248201527f455243313936373a206e657720696d706c656d656e746174696f6e206973206e60448201526c1bdd08184818dbdb9d1c9858dd609a1b60648201526084016103c7565b60008051602061266583398151915280546001600160a01b0319166001600160a01b0392909216919091179055565b611b2183611c42565b600082511180611b2e5750805b15610b8257611a768383611c82565b600054610100900460ff16611b645760405162461bcd60e51b81526004016103c79061254f565b6033805460ff19169055565b6000611bc5826040518060400160405280602081526020017f5361666545524332303a206c6f772d6c6576656c2063616c6c206661696c6564815250856001600160a01b0316611d769092919063ffffffff16565b805190915015610b825780806020019051810190611be3919061234f565b610b825760405162461bcd60e51b815260206004820152602a60248201527f5361666545524332303a204552433230206f7065726174696f6e20646964206e6044820152691bdd081cdd58d8d9595960b21b60648201526084016103c7565b611c4b81611a7c565b6040516001600160a01b038216907fbc7cd75a20ee27fd9adebab32041f755214dbc6bffa90cc0225b39da2e5c2d3b90600090a250565b60606001600160a01b0383163b611cea5760405162461bcd60e51b815260206004820152602660248201527f416464726573733a2064656c65676174652063616c6c20746f206e6f6e2d636f6044820152651b9d1c9858dd60d21b60648201526084016103c7565b600080846001600160a01b031684604051611d059190612615565b600060405180830381855af49150503d8060008114611d40576040519150601f19603f3d011682016040523d82523d6000602084013e611d45565b606091505b5091509150611d6d828260405180606001604052806027815260200161268560279139611d8f565b95945050505050565b6060611d858484600085611dc8565b90505b9392505050565b60608315611d9e575081611d88565b825115611dae5782518084602001fd5b8160405162461bcd60e51b81526004016103c79190612631565b606082471015611e295760405162461bcd60e51b815260206004820152602660248201527f416464726573733a20696e73756666696369656e742062616c616e636520666f6044820152651c8818d85b1b60d21b60648201526084016103c7565b6001600160a01b0385163b611e805760405162461bcd60e51b815260206004820152601d60248201527f416464726573733a2063616c6c20746f206e6f6e2d636f6e747261637400000060448201526064016103c7565b600080866001600160a01b03168587604051611e9c9190612615565b60006040518083038185875af1925050503d8060008114611ed9576040519150601f19603f3d011682016040523d82523d6000602084013e611ede565b606091505b5091509150611eee828286611d8f565b979650505050505050565b6001600160a01b038116811461059057600080fd5b801515811461059057600080fd5b60008060008060008060c08789031215611f3557600080fd5b8635611f4081611ef9565b95506020870135945060408701359350606087013592506080870135611f6581611f0e565b915060a0870135611f7581611ef9565b809150509295509295509295565b600060208284031215611f9557600080fd5b8135611d8881611ef9565b634e487b7160e01b600052604160045260246000fd5b6040516080810167ffffffffffffffff81118282101715611fd957611fd9611fa0565b60405290565b604051601f8201601f1916810167ffffffffffffffff8111828210171561200857612008611fa0565b604052919050565b600080600060c0848603121561202557600080fd5b833561203081611ef9565b925060208481013567ffffffffffffffff81111561204d57600080fd5b85016080810187101561205f57600080fd5b9250605f8501861361207057600080fd5b612078611fb6565b8060c087018881111561208a57600080fd5b604088015b818110156120a6578035845292840192840161208f565b50508093505050509250925092565b6020808252825182820181905260009190848201906040850190845b818110156120f65783516001600160a01b0316835292840192918401916001016120d1565b50909695505050505050565b6000806040838503121561211557600080fd5b823561212081611ef9565b9150602083013561213081611ef9565b809150509250929050565b6000806040838503121561214e57600080fd5b823561215981611ef9565b915060208381013567ffffffffffffffff8082111561217757600080fd5b818601915086601f83011261218b57600080fd5b81358181111561219d5761219d611fa0565b6121af601f8201601f19168501611fdf565b915080825287848285010111156121c557600080fd5b80848401858401376000848284010152508093505050509250929050565b600080600080600080600060e0888a0312156121fe57600080fd5b873561220981611ef9565b96506020880135955060408801359450606088013593506080880135925060a0880135915060c088013561223c81611ef9565b8091505092959891949750929550565b60006020828403121561225e57600080fd5b8151611d8881611ef9565b6000806040838503121561227c57600080fd5b505080516020909101519092909150565b6020808252602c908201527f46756e6374696f6e206d7573742062652063616c6c6564207468726f7567682060408201526b19195b1959d85d1958d85b1b60a21b606082015260800190565b6020808252602c908201527f46756e6374696f6e206d7573742062652063616c6c6564207468726f7567682060408201526b6163746976652070726f787960a01b606082015260800190565b60208082526010908201526f14185d5cd8589b194e881c185d5cd95960821b604082015260600190565b60006020828403121561236157600080fd5b8151611d8881611f0e565b60208082526015908201527410d05313115497d393d517d055551213d492569151605a1b604082015260600190565b8183526000602080850194508260005b858110156123d95781356123be81611ef9565b6001600160a01b0316875295820195908201906001016123ab565b509495945050505050565b8060005b6004811015611a765781518452602093840193909101906001016123e8565b60a0808252600090610120830190830185835b600481101561249057858403609f19018352813536899003601e1901811261244157600080fd5b88018035602067ffffffffffffffff82111561245c57600080fd5b8160051b36038b131561246e57600080fd5b61247b878383860161239b565b9650948501949390930192505060010161241a565b50505080915050611d8860208301846123e4565b6000602082840312156124b657600080fd5b5051919050565b634e487b7160e01b600052603260045260246000fd5b6000806000606084860312156124e857600080fd5b8351925060208401519150604084015190509250925092565b6020808252602e908201527f496e697469616c697a61626c653a20636f6e747261637420697320616c72656160408201526d191e481a5b9a5d1a585b1a5e995960921b606082015260800190565b6020808252602b908201527f496e697469616c697a61626c653a20636f6e7472616374206973206e6f74206960408201526a6e697469616c697a696e6760a81b606082015260800190565b60008160001904831182151516156125c257634e487b7160e01b600052601160045260246000fd5b500290565b6000826125e457634e487b7160e01b600052601260045260246000fd5b500490565b60005b838110156126045781810151838201526020016125ec565b83811115611a765750506000910152565b600082516126278184602087016125e9565b9190910192915050565b60208152600082518060208401526126508160408501602087016125e9565b601f01601f1916919091016040019291505056fe360894a13ba1a3210667c828492db98dca3e2076cc3735a920a3ca505d382bbc416464726573733a206c6f772d6c6576656c2064656c65676174652063616c6c206661696c6564a2646970667358221220994dbf98adb7dacce19a2bb2c972fe634cc4ccb041fa153c1cb7b76902ab8c1b64736f6c634300080a0033496e697469616c697a61626c653a20636f6e747261637420697320616c726561",
  "immutableReferences": {
    "561": [
      {
        "length": 32,
        "start": 1214
      },
      {
        "length": 32,
        "start": 1278
      },
      {
        "length": 32,
        "start": 2962
      },
      {
        "length": 32,
        "start": 3026
      },
      {
        "length": 32,
        "start": 3542
      }
    ]
  },
  "source": "// SPDX-License-Identifier: MIT\r\npragma solidity 0.8.10;\r\n\r\nimport {IUnoFarmQuickswapDual as Farm} from './interfaces/IUnoFarmQuickswapDual.sol'; \r\nimport '../../interfaces/IUnoFarmFactory.sol';\r\nimport '../../interfaces/IUnoAccessManager.sol'; \r\nimport '../../interfaces/IUniswapV2Pair.sol';\r\nimport '../../interfaces/IStakingDualRewards.sol';\r\nimport '@openzeppelin/contracts-upgradeable/token/ERC20/IERC20Upgradeable.sol';\r\nimport '@openzeppelin/contracts-upgradeable/token/ERC20/utils/SafeERC20Upgradeable.sol';\r\nimport '@openzeppelin/contracts-upgradeable/proxy/utils/Initializable.sol';\r\nimport '@openzeppelin/contracts-upgradeable/security/PausableUpgradeable.sol';\r\nimport '@openzeppelin/contracts-upgradeable/proxy/utils/UUPSUpgradeable.sol';\r\n\r\ncontract UnoAssetRouterQuickswapDual is Initializable, PausableUpgradeable, UUPSUpgradeable {\r\n    using SafeERC20Upgradeable for IERC20Upgradeable;\r\n\r\n    /**\r\n     * @dev Contract Variables:\r\n     * farmFactory - The contract that deploys new Farms and links them to {lpStakingPool}s.\r\n     * accessManager - Role manager contract.\r\n     */\r\n    IUnoFarmFactory public farmFactory;\r\n    IUnoAccessManager public accessManager;\r\n\r\n    bytes32 private constant DISTRIBUTOR_ROLE = keccak256('DISTRIBUTOR_ROLE');\r\n    bytes32 private constant PAUSER_ROLE = keccak256('PAUSER_ROLE');\r\n\r\n    event Deposit(address indexed lpPool, address indexed sender, address indexed recipient, uint256 amount);\r\n    event Withdraw(address indexed lpPool, address indexed sender, address indexed recipient, uint256 amount);\r\n    event Distribute(address indexed lpPool, uint256 reward);\r\n\r\n    modifier onlyRole(bytes32 role){\r\n        require(accessManager.hasRole(role, msg.sender), 'CALLER_NOT_AUTHORIZED');\r\n        _;\r\n    }\r\n\r\n    // ============ Methods ============\r\n\r\n    /// @custom:oz-upgrades-unsafe-allow constructor\r\n    constructor() {\r\n        _disableInitializers();\r\n    }\r\n\r\n    function initialize(address _accessManager, address _farmFactory) external initializer{\r\n        require (_accessManager != address(0), 'BAD_ACCESS_MANAGER');\r\n        require (_farmFactory != address(0), 'BAD_FARM_FACTORY');\r\n\r\n        __Pausable_init();\r\n        accessManager = IUnoAccessManager(_accessManager);\r\n        farmFactory = IUnoFarmFactory(_farmFactory);\r\n    }\r\n\r\n    /**\r\n     * @dev Deposits tokens in the given pool. Creates new Farm contract if there isn't one deployed for the {lpStakingPool} and deposits tokens in it. Emits a {Deposit} event.\r\n     * @param lpStakingPool - Address of the pool to deposit tokens in.\r\n     * @param amountA  - Token A amount to deposit.\r\n     * @param amountB -  Token B amount to deposit.\r\n     * @param amountAMin - Bounds the extent to which the B/A price can go up before the transaction reverts.\r\n     * @param amountBMin - Bounds the extent to which the A/B price can go up before the transaction reverts.\r\n     * @param amountLP - Additional LP Token amount to deposit.\r\n     * @param recipient - Address which will receive the deposit.\r\n     \r\n     * @return sentA - Token A amount sent to the farm.\r\n     * @return sentB - Token B amount sent to the farm.\r\n     * @return liquidity - Total liquidity sent to the farm (in lpTokens).\r\n     */\r\n    function deposit(address lpStakingPool, uint256 amountA, uint256 amountB, uint256 amountAMin, uint256 amountBMin, uint256 amountLP, address recipient) external whenNotPaused returns(uint256 sentA, uint256 sentB, uint256 liquidity){\r\n        Farm farm = Farm(farmFactory.Farms(lpStakingPool));\r\n        if(farm == Farm(address(0))){\r\n            farm = Farm(farmFactory.createFarm(lpStakingPool));\r\n        }\r\n\r\n        if(amountA > 0){\r\n            IERC20Upgradeable(farm.tokenA()).safeTransferFrom(msg.sender, address(farm), amountA);\r\n        }\r\n        if(amountB > 0){\r\n            IERC20Upgradeable(farm.tokenB()).safeTransferFrom(msg.sender, address(farm), amountB);\r\n        }\r\n        if(amountLP > 0){\r\n            IERC20Upgradeable(farm.lpPair()).safeTransferFrom(msg.sender, address(farm), amountLP);\r\n        }\r\n        \r\n        (sentA, sentB, liquidity) = farm.deposit(amountA, amountB, amountAMin, amountBMin, amountLP, msg.sender, recipient);\r\n        emit Deposit(lpStakingPool, msg.sender, recipient, liquidity); \r\n    }\r\n\r\n    /** \r\n     * @dev Withdraws tokens from the given pool. Emits a {Withdraw} event.\r\n     * @param lpStakingPool - LP pool to withdraw from.\r\n     * @param amount - LP amount to withdraw. \r\n     * @param amountAMin - The minimum amount of tokenA that must be received for the transaction not to revert.\r\n     * @param amountBMin - The minimum amount of tokenB that must be received for the transaction not to revert.\r\n     * @param withdrawLP - True: Withdraw in LP tokens, False: Withdraw in normal tokens.\r\n     * @param recipient - The address which will receive tokens.\r\n\r\n     * @return amountA - Token A amount sent to the {recipient}, 0 if withdrawLP == false.\r\n     * @return amountB - Token B amount sent to the {recipient}, 0 if withdrawLP == false.\r\n     */ \r\n    function withdraw(address lpStakingPool, uint256 amount, uint256 amountAMin, uint256 amountBMin, bool withdrawLP, address recipient) external returns(uint256 amountA, uint256 amountB){\r\n        Farm farm = Farm(farmFactory.Farms(lpStakingPool));\r\n        require(farm != Farm(address(0)),'FARM_NOT_EXISTS');\r\n        \r\n        (amountA, amountB) = farm.withdraw(amount, amountAMin, amountBMin, withdrawLP, msg.sender, recipient); \r\n        emit Withdraw(lpStakingPool, msg.sender, recipient, amount);  \r\n    }\r\n\r\n     /**\r\n     * @dev Distributes tokens between users.\r\n     * @param lpStakingPool - LP pool to distribute tokens in.\r\n     * @param swapRoutes - Arrays of token addresses describing swap routes. [rewardTokenAToTokenARoute, rewardTokenAToTokenBRoute, rewardTokenBToTokenARoute, rewardTokenBToTokenBRoute].\r\n     * @param amountsOutMin The minimum amount of output tokens that must be received for the transaction not to revert.\r\n     *\r\n     * Note: This function can only be called by the distributor.\r\n     */ \r\n    function distribute(\r\n        address lpStakingPool,\r\n        address[][4] calldata swapRoutes,\r\n        uint256[4] memory amountsOutMin\r\n    ) external whenNotPaused onlyRole(DISTRIBUTOR_ROLE) {\r\n        Farm farm = Farm(farmFactory.Farms(lpStakingPool));\r\n        require(farm != Farm(address(0)), 'FARM_NOT_EXISTS');\r\n\r\n        uint256 reward = farm.distribute(swapRoutes, amountsOutMin);\r\n        emit Distribute(lpStakingPool, reward);\r\n    }\r\n\r\n    /**\r\n     * @dev Returns tokens staked by the {_address} for the given {lpStakingPool}.\r\n     * @param _address - The address to check stakes for.\r\n     * @param lpStakingPool - LP pool to check stakes in.\r\n\r\n     * @return stakeLP - Total user stake(in LP tokens).\r\n     * @return stakeA - Token A stake.\r\n     * @return stakeB - Token B stake.\r\n     */\r\n    function userStake(address _address, address lpStakingPool) external view returns (uint256 stakeLP, uint256 stakeA, uint256 stakeB) {\r\n        Farm farm = Farm(farmFactory.Farms(lpStakingPool));\r\n        if (farm != Farm(address(0))) {\r\n            stakeLP = farm.userBalance(_address);\r\n            address lpPair = farm.lpPair();\r\n            (stakeA, stakeB) = getTokenStake(lpPair, stakeLP);\r\n        }\r\n    }\r\n\r\n    /**\r\n     * @dev Returns total amount locked in the pool. Doesn't take pending rewards into account.\r\n     * @param lpStakingPool - LP pool to check total deposits in.\r\n\r\n     * @return totalDepositsLP - Total deposits (in LP tokens).\r\n     * @return totalDepositsA - Token A deposits.\r\n     * @return totalDepositsB - Token B deposits.\r\n     */  \r\n    function totalDeposits(address lpStakingPool) external view returns (uint256 totalDepositsLP, uint256 totalDepositsA, uint256 totalDepositsB) {\r\n        Farm farm = Farm(farmFactory.Farms(lpStakingPool));\r\n        if (farm != Farm(address(0))) {\r\n            totalDepositsLP = farm.getTotalDeposits();\r\n            address lpPair = farm.lpPair();\r\n            (totalDepositsA, totalDepositsB) = getTokenStake(lpPair, totalDepositsLP);\r\n        }\r\n    }\r\n\r\n    /**\r\n     * @dev Returns addresses of pair of tokens in {lpStakingPool}.\r\n     * @param lpStakingPool - LP pool to check tokens in.\r\n\r\n     * @return tokens - Tokens addresses.\r\n     */  \r\n    function getTokens(address lpStakingPool) external view returns(IERC20Upgradeable[] memory tokens){\r\n        tokens = new IERC20Upgradeable[](2);\r\n        IUniswapV2Pair stakingToken = IUniswapV2Pair(address(IStakingDualRewards(lpStakingPool).stakingToken()));\r\n        tokens[0] = IERC20Upgradeable(stakingToken.token0());\r\n        tokens[1] = IERC20Upgradeable(stakingToken.token1());\r\n    }\r\n\r\n    /**\r\n     * @dev Converts LP tokens to normal tokens, value(amountA) == value(amountB) == 0.5*amountLP\r\n     * @param lpPair - LP pair for conversion.\r\n     * @param amountLP - Amount of LP tokens to convert.\r\n\r\n     * @return amountA - Token A amount.\r\n     * @return amountB - Token B amount.\r\n     */ \r\n    function getTokenStake(address lpPair, uint256 amountLP) internal view returns (uint256 amountA, uint256 amountB) {\r\n        uint256 totalSupply = IERC20Upgradeable(lpPair).totalSupply();\r\n        amountA = amountLP * IERC20Upgradeable(IUniswapV2Pair(lpPair).token0()).balanceOf(lpPair) / totalSupply;\r\n        amountB = amountLP * IERC20Upgradeable(IUniswapV2Pair(lpPair).token1()).balanceOf(lpPair) / totalSupply;\r\n    }\r\n\r\n    function pause() external onlyRole(PAUSER_ROLE) {\r\n        _pause();\r\n    }\r\n\r\n    function unpause() external onlyRole(PAUSER_ROLE) {\r\n        _unpause();\r\n    }\r\n\r\n    function _authorizeUpgrade(address) internal override onlyRole(accessManager.ADMIN_ROLE()) {\r\n\r\n    }\r\n}\r\n",
  "sourcePath": "C:\\Users\\nick_\\OneDrive\\\\UNO\\Solidity\\autostrats_balancer\\uno-contracts\\contracts\\apps\\quickswapDual\\UnoAssetRouterQuickswapDual.sol",
  "compiler": {
    "name": "solc",
    "version": "0.8.10+commit.fc410830.Emscripten.clang"
  },
  "schemaVersion": "3.4.7",
  "updatedAt": "2022-09-05T23:42:53.190Z",
  "devdoc": {
    "kind": "dev",
    "methods": {
      "constructor": {
        "custom:oz-upgrades-unsafe-allow": "constructor"
      },
      "deposit(address,uint256,uint256,uint256,uint256,uint256,address)": {
        "details": "Deposits tokens in the given pool. Creates new Farm contract if there isn't one deployed for the {lpStakingPool} and deposits tokens in it. Emits a {Deposit} event.",
        "params": {
          "amountA": "- Token A amount to deposit.",
          "amountAMin": "- Bounds the extent to which the B/A price can go up before the transaction reverts.",
          "amountB": "-  Token B amount to deposit.",
          "amountBMin": "- Bounds the extent to which the A/B price can go up before the transaction reverts.",
          "amountLP": "- Additional LP Token amount to deposit.",
          "lpStakingPool": "- Address of the pool to deposit tokens in.",
          "recipient": "- Address which will receive the deposit."
        },
        "returns": {
          "liquidity": "- Total liquidity sent to the farm (in lpTokens).",
          "sentA": "- Token A amount sent to the farm.",
          "sentB": "- Token B amount sent to the farm."
        }
      },
      "distribute(address,address[][4],uint256[4])": {
        "details": "Distributes tokens between users.",
        "params": {
          "amountsOutMin": "The minimum amount of output tokens that must be received for the transaction not to revert. Note: This function can only be called by the distributor.",
          "lpStakingPool": "- LP pool to distribute tokens in.",
          "swapRoutes": "- Arrays of token addresses describing swap routes. [rewardTokenAToTokenARoute, rewardTokenAToTokenBRoute, rewardTokenBToTokenARoute, rewardTokenBToTokenBRoute]."
        }
      },
      "getTokens(address)": {
        "details": "Returns addresses of pair of tokens in {lpStakingPool}.",
        "params": {
          "lpStakingPool": "- LP pool to check tokens in."
        },
        "returns": {
          "tokens": "- Tokens addresses."
        }
      },
      "paused()": {
        "details": "Returns true if the contract is paused, and false otherwise."
      },
      "proxiableUUID()": {
        "details": "Implementation of the ERC1822 {proxiableUUID} function. This returns the storage slot used by the implementation. It is used to validate that the this implementation remains valid after an upgrade. IMPORTANT: A proxy pointing at a proxiable contract should not be considered proxiable itself, because this risks bricking a proxy that upgrades to it, by delegating to itself until out of gas. Thus it is critical that this function revert if invoked through a proxy. This is guaranteed by the `notDelegated` modifier."
      },
      "totalDeposits(address)": {
        "details": "Returns total amount locked in the pool. Doesn't take pending rewards into account.",
        "params": {
          "lpStakingPool": "- LP pool to check total deposits in."
        },
        "returns": {
          "totalDepositsA": "- Token A deposits.",
          "totalDepositsB": "- Token B deposits.",
          "totalDepositsLP": "- Total deposits (in LP tokens)."
        }
      },
      "upgradeTo(address)": {
        "details": "Upgrade the implementation of the proxy to `newImplementation`. Calls {_authorizeUpgrade}. Emits an {Upgraded} event."
      },
      "upgradeToAndCall(address,bytes)": {
        "details": "Upgrade the implementation of the proxy to `newImplementation`, and subsequently execute the function call encoded in `data`. Calls {_authorizeUpgrade}. Emits an {Upgraded} event."
      },
      "userStake(address,address)": {
        "details": "Returns tokens staked by the {_address} for the given {lpStakingPool}.",
        "params": {
          "_address": "- The address to check stakes for.",
          "lpStakingPool": "- LP pool to check stakes in."
        },
        "returns": {
          "stakeA": "- Token A stake.",
          "stakeB": "- Token B stake.",
          "stakeLP": "- Total user stake(in LP tokens)."
        }
      },
      "withdraw(address,uint256,uint256,uint256,bool,address)": {
        "details": "Withdraws tokens from the given pool. Emits a {Withdraw} event.",
        "params": {
          "amount": "- LP amount to withdraw. ",
          "amountAMin": "- The minimum amount of tokenA that must be received for the transaction not to revert.",
          "amountBMin": "- The minimum amount of tokenB that must be received for the transaction not to revert.",
          "lpStakingPool": "- LP pool to withdraw from.",
          "recipient": "- The address which will receive tokens.",
          "withdrawLP": "- True: Withdraw in LP tokens, False: Withdraw in normal tokens."
        },
        "returns": {
          "amountA": "- Token A amount sent to the {recipient}, 0 if withdrawLP == false.",
          "amountB": "- Token B amount sent to the {recipient}, 0 if withdrawLP == false."
        }
      }
    },
    "stateVariables": {
      "farmFactory": {
        "details": "Contract Variables: farmFactory - The contract that deploys new Farms and links them to {lpStakingPool}s. accessManager - Role manager contract."
      }
    },
    "version": 1
  },
  "userdoc": {
    "kind": "user",
    "methods": {},
    "version": 1
  }
}