{
  "contractName": "UnoFarmTraderjoe",
  "abi": [
    {
      "anonymous": false,
      "inputs": [
        {
          "indexed": false,
          "internalType": "uint8",
          "name": "version",
          "type": "uint8"
        }
      ],
      "name": "Initialized",
      "type": "event"
    },
    {
      "inputs": [],
      "name": "MasterChef",
      "outputs": [
        {
          "internalType": "contract IMasterChefJoe",
          "name": "",
          "type": "address"
        }
      ],
      "stateMutability": "view",
      "type": "function",
      "constant": true
    },
    {
      "inputs": [],
      "name": "assetRouter",
      "outputs": [
        {
          "internalType": "address",
          "name": "",
          "type": "address"
        }
      ],
      "stateMutability": "view",
      "type": "function",
      "constant": true
    },
    {
      "inputs": [],
      "name": "lpPair",
      "outputs": [
        {
          "internalType": "address",
          "name": "",
          "type": "address"
        }
      ],
      "stateMutability": "view",
      "type": "function",
      "constant": true
    },
    {
      "inputs": [],
      "name": "pid",
      "outputs": [
        {
          "internalType": "uint256",
          "name": "",
          "type": "uint256"
        }
      ],
      "stateMutability": "view",
      "type": "function",
      "constant": true
    },
    {
      "inputs": [],
      "name": "rewardToken",
      "outputs": [
        {
          "internalType": "address",
          "name": "",
          "type": "address"
        }
      ],
      "stateMutability": "view",
      "type": "function",
      "constant": true
    },
    {
      "inputs": [],
      "name": "rewarderToken",
      "outputs": [
        {
          "internalType": "address",
          "name": "",
          "type": "address"
        }
      ],
      "stateMutability": "view",
      "type": "function",
      "constant": true
    },
    {
      "inputs": [],
      "name": "tokenA",
      "outputs": [
        {
          "internalType": "address",
          "name": "",
          "type": "address"
        }
      ],
      "stateMutability": "view",
      "type": "function",
      "constant": true
    },
    {
      "inputs": [],
      "name": "tokenB",
      "outputs": [
        {
          "internalType": "address",
          "name": "",
          "type": "address"
        }
      ],
      "stateMutability": "view",
      "type": "function",
      "constant": true
    },
    {
      "inputs": [
        {
          "internalType": "address",
          "name": "_lpPair",
          "type": "address"
        },
        {
          "internalType": "address",
          "name": "_assetRouter",
          "type": "address"
        }
      ],
      "name": "initialize",
      "outputs": [],
      "stateMutability": "nonpayable",
      "type": "function"
    },
    {
      "inputs": [
        {
          "internalType": "uint256",
          "name": "amountA",
          "type": "uint256"
        },
        {
          "internalType": "uint256",
          "name": "amountB",
          "type": "uint256"
        },
        {
          "internalType": "uint256",
          "name": "amountAMin",
          "type": "uint256"
        },
        {
          "internalType": "uint256",
          "name": "amountBMin",
          "type": "uint256"
        },
        {
          "internalType": "uint256",
          "name": "amountLP",
          "type": "uint256"
        },
        {
          "internalType": "address",
          "name": "origin",
          "type": "address"
        },
        {
          "internalType": "address",
          "name": "recipient",
          "type": "address"
        }
      ],
      "name": "deposit",
      "outputs": [
        {
          "internalType": "uint256",
          "name": "sentA",
          "type": "uint256"
        },
        {
          "internalType": "uint256",
          "name": "sentB",
          "type": "uint256"
        },
        {
          "internalType": "uint256",
          "name": "liquidity",
          "type": "uint256"
        }
      ],
      "stateMutability": "nonpayable",
      "type": "function"
    },
    {
      "inputs": [
        {
          "internalType": "uint256",
          "name": "amount",
          "type": "uint256"
        },
        {
          "internalType": "uint256",
          "name": "amountAMin",
          "type": "uint256"
        },
        {
          "internalType": "uint256",
          "name": "amountBMin",
          "type": "uint256"
        },
        {
          "internalType": "bool",
          "name": "withdrawLP",
          "type": "bool"
        },
        {
          "internalType": "address",
          "name": "origin",
          "type": "address"
        },
        {
          "internalType": "address",
          "name": "recipient",
          "type": "address"
        }
      ],
      "name": "withdraw",
      "outputs": [
        {
          "internalType": "uint256",
          "name": "amountA",
          "type": "uint256"
        },
        {
          "internalType": "uint256",
          "name": "amountB",
          "type": "uint256"
        }
      ],
      "stateMutability": "nonpayable",
      "type": "function"
    },
    {
      "inputs": [
        {
          "components": [
            {
              "internalType": "address[]",
              "name": "route",
              "type": "address[]"
            },
            {
              "internalType": "uint256",
              "name": "amountOutMin",
              "type": "uint256"
            }
          ],
          "internalType": "struct UnoFarmTraderjoe.SwapInfo[4]",
          "name": "swapInfos",
          "type": "tuple[4]"
        },
        {
          "components": [
            {
              "internalType": "address[]",
              "name": "route",
              "type": "address[]"
            },
            {
              "internalType": "uint256",
              "name": "amountOutMin",
              "type": "uint256"
            }
          ],
          "internalType": "struct UnoFarmTraderjoe.SwapInfo[2]",
          "name": "feeSwapInfo",
          "type": "tuple[2]"
        },
        {
          "components": [
            {
              "internalType": "address",
              "name": "feeTo",
              "type": "address"
            },
            {
              "internalType": "uint256",
              "name": "fee",
              "type": "uint256"
            }
          ],
          "internalType": "struct UnoFarmTraderjoe.FeeInfo",
          "name": "feeInfo",
          "type": "tuple"
        }
      ],
      "name": "distribute",
      "outputs": [
        {
          "internalType": "uint256",
          "name": "reward",
          "type": "uint256"
        }
      ],
      "stateMutability": "nonpayable",
      "type": "function"
    },
    {
      "inputs": [
        {
          "internalType": "address",
          "name": "_address",
          "type": "address"
        }
      ],
      "name": "userBalance",
      "outputs": [
        {
          "internalType": "uint256",
          "name": "",
          "type": "uint256"
        }
      ],
      "stateMutability": "view",
      "type": "function",
      "constant": true
    },
    {
      "inputs": [],
      "name": "getTotalDeposits",
      "outputs": [
        {
          "internalType": "uint256",
          "name": "_totalDeposits",
          "type": "uint256"
        }
      ],
      "stateMutability": "view",
      "type": "function",
      "constant": true
    }
  ],
  "bytecode": "0x608060405234801561001057600080fd5b506133b3806100206000396000f3fe608060405234801561001057600080fd5b50600436106100ea5760003560e01c8063485cc9551161008c578063d563468311610066578063d5634683146101ea578063e9ea46c714610212578063f106845414610225578063f7c618c11461022e57600080fd5b8063485cc955146101af5780635f64b55b146101c4578063bc0aac10146101d757600080fd5b80631666768a116100c85780631666768a14610153578063168a4822146101815780632a8dc13114610189578063452ed4f11461019c57600080fd5b80630103c92b146100ef57806308fef24a146101155780630fc63d1014610128575b600080fd5b6101026100fd366004612a79565b610241565b6040519081526020015b60405180910390f35b610102610123366004612a96565b610275565b60365461013b906001600160a01b031681565b6040516001600160a01b03909116815260200161010c565b610166610161366004612b24565b610f5f565b6040805193845260208401929092529082015260600161010c565b6101026111f3565b60345461013b906001600160a01b031681565b60355461013b906001600160a01b031681565b6101c26101bd366004612b8d565b61127b565b005b60375461013b906001600160a01b031681565b60405461013b906001600160a01b031681565b6101fd6101f8366004612bd4565b611bdd565b6040805192835260208301919091520161010c565b60395461013b906001600160a01b031681565b61010260385481565b60335461013b906001600160a01b031681565b600061024c82611ead565b6001600160a01b0383166000908152603e602052604090205461026f9190612c51565b92915050565b6040546000906001600160a01b031633146102ab5760405162461bcd60e51b81526004016102a290612c69565b60405180910390fd5b600260015414156102ce5760405162461bcd60e51b81526004016102a290612ca0565b6002600155603a546103115760405162461bcd60e51b815260206004820152600c60248201526b4e4f5f4c495155494449545960a01b60448201526064016102a2565b603d544390603f9060009061032e9060019063ffffffff16612cd7565b63ffffffff16815260208101919091526040016000205414156103935760405162461bcd60e51b815260206004820152601b60248201527f43414e545f43414c4c5f4f4e5f5448455f53414d455f424c4f434b000000000060448201526064016102a2565b603954603854604051630441a3e760e41b81526004810191909152600060248201526001600160a01b039091169063441a3e7090604401600060405180830381600087803b1580156103e457600080fd5b505af11580156103f8573d6000803e3d6000fd5b505050506104358360006002811061041257610412612cfc565b6020028101906104229190612d12565b60335484906001600160a01b0316612042565b6104586104456020850185612d12565b60345484906001600160a01b0316612042565b6033546040516370a0823160e01b81523060048201526000916002916001600160a01b03909116906370a0823190602401602060405180830381865afa1580156104a6573d6000803e3d6000fd5b505050506040513d601f19601f820116820180604052508101906104ca9190612d32565b6104d49190612d4b565b6034549091506000906001600160a01b031615610565576034546040516370a0823160e01b81523060048201526002916001600160a01b0316906370a0823190602401602060405180830381865afa158015610534573d6000803e3d6000fd5b505050506040513d601f19601f820116820180604052508101906105589190612d32565b6105629190612d4b565b90505b81156108ad576033546036546001600160a01b03908116911614610709573660006105908880612d12565b61059a9080612d6d565b60335491935091506001600160a01b031682826000816105bc576105bc612cfc565b90506020020160208101906105d19190612a79565b6001600160a01b031614801561062a57506036546001600160a01b031682826105fb600182612dbe565b81811061060a5761060a612cfc565b905060200201602081019061061f9190612a79565b6001600160a01b0316145b6106765760405162461bcd60e51b815260206004820152601860248201527f4241445f5245574152445f544f4b454e5f415f524f555445000000000000000060448201526064016102a2565b60008051602061335e8339815191526338ed1739856106958b80612d12565b60200135858530426040518763ffffffff1660e01b81526004016106be96959493929190612dd5565b6000604051808303816000875af11580156106dd573d6000803e3d6000fd5b505050506040513d6000823e601f3d908101601f191682016040526107059190810190612eb9565b5050505b6033546037546001600160a01b039081169116146108ad573660006107316020890189612d12565b61073b9080612d6d565b60335491935091506001600160a01b0316828260008161075d5761075d612cfc565b90506020020160208101906107729190612a79565b6001600160a01b03161480156107cb57506037546001600160a01b0316828261079c600182612dbe565b8181106107ab576107ab612cfc565b90506020020160208101906107c09190612a79565b6001600160a01b0316145b6108175760405162461bcd60e51b815260206004820152601860248201527f4241445f5245574152445f544f4b454e5f425f524f555445000000000000000060448201526064016102a2565b60008051602061335e8339815191526338ed17398561083960208c018c612d12565b60200135858530426040518763ffffffff1660e01b815260040161086296959493929190612dd5565b6000604051808303816000875af1158015610881573d6000803e3d6000fd5b505050506040513d6000823e601f3d908101601f191682016040526108a99190810190612eb9565b5050505b8015610bfb576034546036546001600160a01b03908116911614610a57573660006108db6040890189612d12565b6108e59080612d6d565b60345491935091506001600160a01b0316828260008161090757610907612cfc565b905060200201602081019061091c9190612a79565b6001600160a01b031614801561097557506036546001600160a01b03168282610946600182612dbe565b81811061095557610955612cfc565b905060200201602081019061096a9190612a79565b6001600160a01b0316145b6109c15760405162461bcd60e51b815260206004820152601a60248201527f4241445f52455741524445525f544f4b454e5f415f524f55544500000000000060448201526064016102a2565b60008051602061335e8339815191526338ed1739846109e360408c018c612d12565b60200135858530426040518763ffffffff1660e01b8152600401610a0c96959493929190612dd5565b6000604051808303816000875af1158015610a2b573d6000803e3d6000fd5b505050506040513d6000823e601f3d908101601f19168201604052610a539190810190612eb9565b5050505b6034546037546001600160a01b03908116911614610bfb57366000610a7f6060890189612d12565b610a899080612d6d565b60345491935091506001600160a01b03168282600081610aab57610aab612cfc565b9050602002016020810190610ac09190612a79565b6001600160a01b0316148015610b1957506037546001600160a01b03168282610aea600182612dbe565b818110610af957610af9612cfc565b9050602002016020810190610b0e9190612a79565b6001600160a01b0316145b610b655760405162461bcd60e51b815260206004820152601a60248201527f4241445f52455741524445525f544f4b454e5f425f524f55544500000000000060448201526064016102a2565b60008051602061335e8339815191526338ed173984610b8760608c018c612d12565b60200135858530426040518763ffffffff1660e01b8152600401610bb096959493929190612dd5565b6000604051808303816000875af1158015610bcf573d6000803e3d6000fd5b505050506040513d6000823e601f3d908101601f19168201604052610bf79190810190612eb9565b5050505b50506036546037546040516370a0823160e01b815230600482015260008051602061335e8339815191529263e8e33700926001600160a01b039182169291169082906370a0823190602401602060405180830381865afa158015610c63573d6000803e3d6000fd5b505050506040513d601f19601f82011682018060405250810190610c879190612d32565b6037546040516370a0823160e01b81523060048201526001600160a01b03909116906370a0823190602401602060405180830381865afa158015610ccf573d6000803e3d6000fd5b505050506040513d601f19601f82011682018060405250810190610cf39190612d32565b610cfd8a80612d12565b60209081013590610d10908c018c612d12565b6020013530426040518963ffffffff1660e01b8152600401610d39989796959493929190612f5f565b6060604051808303816000875af1158015610d58573d6000803e3d6000fd5b505050506040513d601f19601f82011682018060405250810190610d7c9190612fa8565b603c5490935060009250610d91915043612dbe565b603a54610d9e9190612fd6565b603b54610dab9190612c51565b610dbd670de0b6b3a764000084612fd6565b610dc79190612d4b565b603d54909150600090603f908290610de79060019063ffffffff16612cd7565b63ffffffff168152602081019190915260400160002054610e089043612dbe565b610e129083612fd6565b603d54603f90600090610e2d9060019063ffffffff16612cd7565b63ffffffff1663ffffffff16815260200190815260200160002060020154610e559190612c51565b604080516060810182524381526020808201868152828401858152603d805463ffffffff9081166000908152603f90955295842094518555915160018581019190915590516002909401939093558054949550919391929091610eba91859116612ff5565b825463ffffffff9182166101009390930a92830291909202199091161790555043603c556000603b55603954603854604051631c57762b60e31b81526001600160a01b039092169163e2bbb15891610f1f918790600401918252602082015260400190565b600060405180830381600087803b158015610f3957600080fd5b505af1158015610f4d573d6000803e3d6000fd5b50506001805550929695505050505050565b600080600060026001541415610f875760405162461bcd60e51b81526004016102a290612ca0565b60026001556040546001600160a01b03163314610fb65760405162461bcd60e51b81526004016102a290612c69565b6000808b118015610fc7575060008a115b156110895760008051602061335e8339815191526001600160a01b031663e8e33700603660009054906101000a90046001600160a01b0316603760009054906101000a90046001600160a01b03168e8e8e8e30426040518963ffffffff1660e01b815260040161103e989796959493929190612f5f565b6060604051808303816000875af115801561105d573d6000803e3d6000fd5b505050506040513d601f19601f820116820180604052508101906110819190612fa8565b919550935090505b6110938782612c51565b9150600082116110dd5760405162461bcd60e51b81526020600482015260156024820152741393d7d3125455525112551657d41493d592511151605a1b60448201526064016102a2565b6110e6856122e1565b6001600160a01b0385166000908152603e60205260408120805484929061110e908490612c51565b9250508190555081603a60008282546111279190612c51565b9091555050603954603854604051631c57762b60e31b81526001600160a01b039092169163e2bbb15891611168918690600401918252602082015260400190565b600060405180830381600087803b15801561118257600080fd5b505af1158015611196573d6000803e3d6000fd5b505050506111bd86858d6111aa9190612dbe565b6036546001600160a01b03169190612406565b6111de866111cb858d612dbe565b6037546001600160a01b03169190612406565b50600180819055509750975097945050505050565b603a5460009015611278576039546038546040516393f1a40b60e01b815260048101919091523060248201526001600160a01b03909116906393f1a40b906044016040805180830381865afa158015611250573d6000803e3d6000fd5b505050506040513d601f19601f82011682018060405250810190611274919061301d565b5190505b90565b60006112876001612458565b9050801561129f576000805461ff0019166101001790555b6001600160a01b0383166112e35760405162461bcd60e51b815260206004820152600b60248201526a10905117d31417d413d3d360aa1b60448201526064016102a2565b6001600160a01b03821661132c5760405162461bcd60e51b815260206004820152601060248201526f2120a22fa0a9a9a2aa2fa927aaaa22a960811b60448201526064016102a2565b6113346124e5565b604080546001600160a01b0319166001600160a01b03841617905561135883612516565b603980546001600160a01b039283166001600160a01b031991821681179092556038939093556035805492871692909316919091179091556040805160016201452d60e41b03198152905163ffebad30916004818101926020929091908290030181865afa1580156113ce573d6000803e3d6000fd5b505050506040513d601f19601f820116820180604052508101906113f29190613077565b603380546001600160a01b0319166001600160a01b03928316179055603954734483f0b6e2f5486d06958c20f8c39a7abe87bf8f911614156115c257603854604051631526fe2760e01b8152600091734483f0b6e2f5486d06958c20f8c39a7abe87bf8f91631526fe279161146d9160040190815260200190565b61012060405180830381865afa15801561148b573d6000803e3d6000fd5b505050506040513d601f19601f820116820180604052508101906114af91906130dc565b60a0015190506001600160a01b038116156115bc57806001600160a01b031663f7c618c16040518163ffffffff1660e01b8152600401602060405180830381865afa158015611502573d6000803e3d6000fd5b505050506040513d601f19601f820116820180604052508101906115269190613077565b603480546001600160a01b0319166001600160a01b0392909216918217905560405163095ea7b360e01b815260008051602061335e8339815191526004820152600019602482015263095ea7b3906044016020604051808303816000875af1158015611596573d6000803e3d6000fd5b505050506040513d601f19601f820116820180604052508101906115ba9190613178565b505b50611751565b603854604051631526fe2760e01b815260009173188bed1968b795d5c9022f6a0bb5931ac4c18f0091631526fe27916116019160040190815260200190565b60a060405180830381865afa15801561161e573d6000803e3d6000fd5b505050506040513d601f19601f820116820180604052508101906116429190613195565b6080015190506001600160a01b0381161561174f57806001600160a01b031663f7c618c16040518163ffffffff1660e01b8152600401602060405180830381865afa158015611695573d6000803e3d6000fd5b505050506040513d601f19601f820116820180604052508101906116b99190613077565b603480546001600160a01b0319166001600160a01b0392909216918217905560405163095ea7b360e01b815260008051602061335e8339815191526004820152600019602482015263095ea7b3906044016020604051808303816000875af1158015611729573d6000803e3d6000fd5b505050506040513d601f19601f8201168201806040525081019061174d9190613178565b505b505b603560009054906101000a90046001600160a01b03166001600160a01b0316630dfe16816040518163ffffffff1660e01b8152600401602060405180830381865afa1580156117a4573d6000803e3d6000fd5b505050506040513d601f19601f820116820180604052508101906117c89190613077565b603680546001600160a01b0319166001600160a01b039283161790556035546040805163d21220a760e01b81529051919092169163d21220a79160048083019260209291908290030181865afa158015611826573d6000803e3d6000fd5b505050506040513d601f19601f8201168201806040525081019061184a9190613077565b603780546001600160a01b0319166001600160a01b03928316179055604080516060810182524380825260006020808401828152848601838152928052603f90915292517fe9090a6e551363283803e59daf1c144cd0ac55c420ac8519a53d83ef396a73b35591517fe9090a6e551363283803e59daf1c144cd0ac55c420ac8519a53d83ef396a73b45590517fe9090a6e551363283803e59daf1c144cd0ac55c420ac8519a53d83ef396a73b555603d805463ffffffff19166001179055603c55603554603954915163095ea7b360e01b8152918316600483015260001960248301529091169063095ea7b3906044016020604051808303816000875af1158015611959573d6000803e3d6000fd5b505050506040513d601f19601f8201168201806040525081019061197d9190613178565b5060355460405163095ea7b360e01b815260008051602061335e833981519152600482015260001960248201526001600160a01b039091169063095ea7b3906044016020604051808303816000875af11580156119de573d6000803e3d6000fd5b505050506040513d601f19601f82011682018060405250810190611a029190613178565b5060335460405163095ea7b360e01b815260008051602061335e833981519152600482015260001960248201526001600160a01b039091169063095ea7b3906044016020604051808303816000875af1158015611a63573d6000803e3d6000fd5b505050506040513d601f19601f82011682018060405250810190611a879190613178565b5060365460405163095ea7b360e01b815260008051602061335e833981519152600482015260001960248201526001600160a01b039091169063095ea7b3906044016020604051808303816000875af1158015611ae8573d6000803e3d6000fd5b505050506040513d601f19601f82011682018060405250810190611b0c9190613178565b5060375460405163095ea7b360e01b815260008051602061335e833981519152600482015260001960248201526001600160a01b039091169063095ea7b3906044016020604051808303816000875af1158015611b6d573d6000803e3d6000fd5b505050506040513d601f19601f82011682018060405250810190611b919190613178565b508015611bd8576000805461ff0019169055604051600181527f7f26b83ff96e1f2b6a682f133852f6798a09c465da95921460cefb38474024989060200160405180910390a15b505050565b60008060026001541415611c035760405162461bcd60e51b81526004016102a290612ca0565b60026001556040546001600160a01b03163314611c325760405162461bcd60e51b81526004016102a290612c69565b60008811611c785760405162461bcd60e51b8152602060048201526013602482015272125394d551919250d251539517d05353d55395606a1b60448201526064016102a2565b611c81846122e1565b6001600160a01b0384166000908152603e602052604090206002810154891115611d3a5760028101548154600091611cb891612c51565b9050808a1115611d015760405162461bcd60e51b8152602060048201526014602482015273494e53554646494349454e545f42414c414e434560601b60448201526064016102a2565b611d0b8a82612dbe565b82556002820154603a548b91611d2091612c51565b611d2a9190612dbe565b603a555060006002820155611d54565b88816002016000828254611d4e9190612dbe565b90915550505b603954603854604051630441a3e760e41b81526001600160a01b039092169163441a3e7091611d90918d90600401918252602082015260400190565b600060405180830381600087803b158015611daa57600080fd5b505af1158015611dbe573d6000803e3d6000fd5b505050508515611dec57603554611ddf906001600160a01b0316858b612406565b6000809250925050611e9c565b603654603754604051635d5155ef60e11b81526001600160a01b0392831660048201529082166024820152604481018b9052606481018a90526084810189905290851660a48201524260c482015260008051602061335e8339815191529063baa2abde9060e40160408051808303816000875af1158015611e71573d6000803e3d6000fd5b505050506040513d601f19601f82011682018060405250810190611e959190613214565b9093509150505b600180559097909650945050505050565b6001600160a01b0381166000908152603e60209081526040808320815160a08101835281548152600182015493810193909352600281015491830191909152600381015463ffffffff908116606084018190526004909201546080840152603d54161415611f1f576040015192915050565b60608082015163ffffffff166000908152603f6020908152604080832081519485018252805480865260018201549386019390935260020154908401526080840151611f6a91612dbe565b8351611f769190612fd6565b8360200151611f859190612c51565b90506000670de0b6b3a7640000836020015183611fa29190612fd6565b611fac9190612d4b565b6040840151603d54919250600091670de0b6b3a76400009190603f908490611fdc9060019063ffffffff16612cd7565b63ffffffff1663ffffffff168152602001908152602001600020600201546120049190612dbe565b86516120109190612fd6565b61201a9190612d4b565b90508082866040015161202d9190612c51565b6120379190612c51565b979650505050505050565b6001600160a01b03811615801590612070575060006120646020840184612a79565b6001600160a01b031614155b15611bd8576040516370a0823160e01b8152306004820152600090670de0b6b3a7640000906020850135906001600160a01b038516906370a0823190602401602060405180830381865afa1580156120cc573d6000803e3d6000fd5b505050506040513d601f19601f820116820180604052508101906120f09190612d32565b6120fa9190612fd6565b6121049190612d4b565b905080156122db573660006121198680612d6d565b9092509050801580159061219657508181612135600182612dbe565b81811061214457612144612cfc565b90506020020160208101906121599190612a79565b6001600160a01b03168282600081811061217557612175612cfc565b905060200201602081019061218a9190612a79565b6001600160a01b031614155b156122b757836001600160a01b0316828260008181106121b8576121b8612cfc565b90506020020160208101906121cd9190612a79565b6001600160a01b0316146122195760405162461bcd60e51b81526020600482015260136024820152724241445f4645455f544f4b454e5f524f55544560681b60448201526064016102a2565b60008051602061335e8339815191526338ed1739846020808a01359086908690612245908c018c612a79565b426040518763ffffffff1660e01b815260040161226796959493929190612dd5565b6000604051808303816000875af1158015612286573d6000803e3d6000fd5b505050506040513d6000823e601f3d908101601f191682016040526122ae9190810190612eb9565b50505050505050565b6122d86122c76020870187612a79565b6001600160a01b0386169085612406565b50505b50505050565b6001600160a01b0381166000908152603e60205260409020603d54600382015463ffffffff9081169116141561234a5760048101546123209043612dbe565b815461232c9190612fd6565b81600101600082825461233f9190612c51565b909155506123a69050565b61235382611ead565b6002820155603d54603f906000906123739060019063ffffffff16612cd7565b63ffffffff1681526020810191909152604001600020546123949043612dbe565b81546123a09190612fd6565b60018201555b603d5460038201805463ffffffff191663ffffffff9092169190911790554360048201819055603a54603c5490916123de9190612dbe565b6123e89190612fd6565b603b60008282546123f99190612c51565b909155505043603c555050565b604080516001600160a01b038416602482015260448082018490528251808303909101815260649091019091526020810180516001600160e01b031663a9059cbb60e01b179052611bd89084906127ef565b60008054610100900460ff161561249f578160ff16600114801561247b5750303b155b6124975760405162461bcd60e51b81526004016102a290613238565b506000919050565b60005460ff8084169116106124c65760405162461bcd60e51b81526004016102a290613238565b506000805460ff191660ff92909216919091179055600190565b919050565b600054610100900460ff1661250c5760405162461bcd60e51b81526004016102a290613286565b6125146128c1565b565b6000806000805b734483f0b6e2f5486d06958c20f8c39a7abe87bf8f6001600160a01b031663081e3eda6040518163ffffffff1660e01b8152600401602060405180830381865afa15801561256f573d6000803e3d6000fd5b505050506040513d601f19601f820116820180604052508101906125939190612d32565b81101561265f57604051631526fe2760e01b8152600481018290526001600160a01b03861690734483f0b6e2f5486d06958c20f8c39a7abe87bf8f90631526fe279060240161012060405180830381865afa1580156125f6573d6000803e3d6000fd5b505050506040513d601f19601f8201168201806040525081019061261a91906130dc565b516001600160a01b0316141561264d5780935060019150734483f0b6e2f5486d06958c20f8c39a7abe87bf8f925061265f565b80612657816132d1565b91505061251d565b50806127ab5760005b73188bed1968b795d5c9022f6a0bb5931ac4c18f006001600160a01b031663081e3eda6040518163ffffffff1660e01b8152600401602060405180830381865afa1580156126ba573d6000803e3d6000fd5b505050506040513d601f19601f820116820180604052508101906126de9190612d32565b8110156127a957604051631526fe2760e01b8152600481018290526001600160a01b0386169073188bed1968b795d5c9022f6a0bb5931ac4c18f0090631526fe279060240160a060405180830381865afa158015612740573d6000803e3d6000fd5b505050506040513d601f19601f820116820180604052508101906127649190613195565b516001600160a01b03161415612797578093506001915073188bed1968b795d5c9022f6a0bb5931ac4c18f0092506127a9565b806127a1816132d1565b915050612668565b505b806127e95760405162461bcd60e51b815260206004820152600e60248201526d5049445f4e4f545f45584953545360901b60448201526064016102a2565b50915091565b6000612844826040518060400160405280602081526020017f5361666545524332303a206c6f772d6c6576656c2063616c6c206661696c6564815250856001600160a01b03166128ee9092919063ffffffff16565b805190915015611bd857808060200190518101906128629190613178565b611bd85760405162461bcd60e51b815260206004820152602a60248201527f5361666545524332303a204552433230206f7065726174696f6e20646964206e6044820152691bdd081cdd58d8d9595960b21b60648201526084016102a2565b600054610100900460ff166128e85760405162461bcd60e51b81526004016102a290613286565b60018055565b60606128fd8484600085612907565b90505b9392505050565b6060824710156129685760405162461bcd60e51b815260206004820152602660248201527f416464726573733a20696e73756666696369656e742062616c616e636520666f6044820152651c8818d85b1b60d21b60648201526084016102a2565b6001600160a01b0385163b6129bf5760405162461bcd60e51b815260206004820152601d60248201527f416464726573733a2063616c6c20746f206e6f6e2d636f6e747261637400000060448201526064016102a2565b600080866001600160a01b031685876040516129db9190613318565b60006040518083038185875af1925050503d8060008114612a18576040519150601f19603f3d011682016040523d82523d6000602084013e612a1d565b606091505b509150915061203782828660608315612a37575081612900565b825115612a475782518084602001fd5b8160405162461bcd60e51b81526004016102a2919061332a565b6001600160a01b0381168114612a7657600080fd5b50565b600060208284031215612a8b57600080fd5b813561290081612a61565b60008060008385036080811215612aac57600080fd5b843567ffffffffffffffff80821115612ac457600080fd5b818701915087608083011115612ad957600080fd5b90945060208601359080821115612aef57600080fd5b50850160408101871015612b0257600080fd5b92506040603f1982011215612b1657600080fd5b506040840190509250925092565b600080600080600080600060e0888a031215612b3f57600080fd5b873596506020880135955060408801359450606088013593506080880135925060a0880135612b6d81612a61565b915060c0880135612b7d81612a61565b8091505092959891949750929550565b60008060408385031215612ba057600080fd5b8235612bab81612a61565b91506020830135612bbb81612a61565b809150509250929050565b8015158114612a7657600080fd5b60008060008060008060c08789031215612bed57600080fd5b8635955060208701359450604087013593506060870135612c0d81612bc6565b92506080870135612c1d81612a61565b915060a0870135612c2d81612a61565b809150509295509295509295565b634e487b7160e01b600052601160045260246000fd5b60008219821115612c6457612c64612c3b565b500190565b60208082526017908201527f43414c4c45525f4e4f545f41535345545f524f55544552000000000000000000604082015260600190565b6020808252601f908201527f5265656e7472616e637947756172643a207265656e7472616e742063616c6c00604082015260600190565b600063ffffffff83811690831681811015612cf457612cf4612c3b565b039392505050565b634e487b7160e01b600052603260045260246000fd5b60008235603e19833603018112612d2857600080fd5b9190910192915050565b600060208284031215612d4457600080fd5b5051919050565b600082612d6857634e487b7160e01b600052601260045260246000fd5b500490565b6000808335601e19843603018112612d8457600080fd5b83018035915067ffffffffffffffff821115612d9f57600080fd5b6020019150600581901b3603821315612db757600080fd5b9250929050565b600082821015612dd057612dd0612c3b565b500390565b868152602080820187905260a0604083018190528201859052600090869060c08401835b88811015612e27578335612e0c81612a61565b6001600160a01b031682529282019290820190600101612df9565b506001600160a01b0396909616606085015250505060800152949350505050565b634e487b7160e01b600052604160045260246000fd5b604051610120810167ffffffffffffffff81118282101715612e8257612e82612e48565b60405290565b604051601f8201601f1916810167ffffffffffffffff81118282101715612eb157612eb1612e48565b604052919050565b60006020808385031215612ecc57600080fd5b825167ffffffffffffffff80821115612ee457600080fd5b818501915085601f830112612ef857600080fd5b815181811115612f0a57612f0a612e48565b8060051b9150612f1b848301612e88565b8181529183018401918481019088841115612f3557600080fd5b938501935b83851015612f5357845182529385019390850190612f3a565b98975050505050505050565b6001600160a01b039889168152968816602088015260408701959095526060860193909352608085019190915260a084015290921660c082015260e08101919091526101000190565b600080600060608486031215612fbd57600080fd5b8351925060208401519150604084015190509250925092565b6000816000190483118215151615612ff057612ff0612c3b565b500290565b600063ffffffff80831681851680830382111561301457613014612c3b565b01949350505050565b60006040828403121561302f57600080fd5b6040516040810181811067ffffffffffffffff8211171561305257613052612e48565b604052825181526020928301519281019290925250919050565b80516124e081612a61565b60006020828403121561308957600080fd5b815161290081612a61565b80516bffffffffffffffffffffffff811681146124e057600080fd5b805167ffffffffffffffff811681146124e057600080fd5b805163ffffffff811681146124e057600080fd5b600061012082840312156130ef57600080fd5b6130f7612e5e565b6131008361306c565b815261310e60208401613094565b60208201526040830151604082015260608301516060820152613133608084016130b0565b608082015261314460a0840161306c565b60a082015261315560c084016130c8565b60c082015260e08381015190820152610100928301519281019290925250919050565b60006020828403121561318a57600080fd5b815161290081612bc6565b600060a082840312156131a757600080fd5b60405160a0810181811067ffffffffffffffff821117156131ca576131ca612e48565b60405282516131d881612a61565b80825250602083015160208201526040830151604082015260608301516060820152608083015161320881612a61565b60808201529392505050565b6000806040838503121561322757600080fd5b505080516020909101519092909150565b6020808252602e908201527f496e697469616c697a61626c653a20636f6e747261637420697320616c72656160408201526d191e481a5b9a5d1a585b1a5e995960921b606082015260800190565b6020808252602b908201527f496e697469616c697a61626c653a20636f6e7472616374206973206e6f74206960408201526a6e697469616c697a696e6760a81b606082015260800190565b60006000198214156132e5576132e5612c3b565b5060010190565b60005b838110156133075781810151838201526020016132ef565b838111156122db5750506000910152565b60008251612d288184602087016132ec565b60208152600082518060208401526133498160408501602087016132ec565b601f01601f1916919091016040019291505056fe00000000000000000000000060ae616a2155ee3d9a68541ba4544862310933d4a2646970667358221220ede38d7494bd6435390c119258fba675f30d1207e07be58a3b64bcc3b47caa1264736f6c634300080a0033",
  "immutableReferences": {},
  "source": "// SPDX-License-Identifier: MIT\npragma solidity 0.8.10;\n\nimport \"../../interfaces/IUniswapV2Pair.sol\";\nimport \"../../interfaces/IUniswapV2Router.sol\";\nimport \"../../interfaces/IMasterChefJoe.sol\";\nimport \"../../interfaces/IMasterChefJoeBoost.sol\";\nimport \"../../interfaces/IMasterChefJoeV3.sol\";\nimport \"../../interfaces/ISimpleRewarder.sol\";\nimport \"@openzeppelin/contracts-upgradeable/security/ReentrancyGuardUpgradeable.sol\";\nimport \"@openzeppelin/contracts-upgradeable/token/ERC20/utils/SafeERC20Upgradeable.sol\";\nimport \"@openzeppelin/contracts-upgradeable/token/ERC20/IERC20Upgradeable.sol\";\nimport \"@openzeppelin/contracts-upgradeable/proxy/utils/Initializable.sol\";\n\ncontract UnoFarmTraderjoe is Initializable, ReentrancyGuardUpgradeable {\n\tusing SafeERC20Upgradeable for IERC20Upgradeable;\n\t/**\n\t * @dev DistributionInfo:\n\t * {block} - Distribution block number.\n\t * {rewardPerDepositAge} - Distribution reward divided by {totalDepositAge}.\n\t * {cumulativeRewardAgePerDepositAge} - Sum of {rewardPerDepositAge}s multiplied by distribution interval.\n\t */\n\tstruct DistributionInfo {\n\t\tuint256 block;\n\t\tuint256 rewardPerDepositAge;\n\t\tuint256 cumulativeRewardAgePerDepositAge;\n\t}\n\t/**\n\t * @dev UserInfo:\n\t * {stake} - Amount of LP tokens deposited by the user.\n\t * {depositAge} - User deposits multiplied by blocks the deposit has been in.\n\t * {reward} - Amount of LP tokens entitled to the user.\n\t * {lastDistribution} - Distribution ID before the last user deposit.\n\t * {lastUpdate} - Deposit update block.\n\t */\n\tstruct UserInfo {\n\t\tuint256 stake;\n\t\tuint256 depositAge;\n\t\tuint256 reward;\n\t\tuint32 lastDistribution;\n\t\tuint256 lastUpdate;\n\t}\n\t/**\n\t * @dev SwapInfo:\n\t * {route} - Array of token addresses describing swap routes.\n\t * {amountOutMin} - The minimum amount of output token that must be received for the transaction not to revert.\n\t */\n\tstruct SwapInfo {\n\t\taddress[] route;\n\t\tuint256 amountOutMin;\n\t}\n\t/**\n\t * @dev FeeInfo:\n\t * {feeCollector} - Contract to transfer fees to.\n\t * {fee} - Fee percentage to collect (10^18 == 100%).\n\t */\n\tstruct FeeInfo {\n\t\taddress feeTo;\n\t\tuint256 fee;\n\t}\n\n\t/**\n\t * @dev Tokens Used:\n\t * {rewardToken} - Token generated by staking (JOE).\n\t * {rewarderToken} - Token generated by simpleRewarderTime contract.\n\t * {lpPair} - Token that the strategy maximizes. The same token that users deposit in the {MasterChef}.\n\t * {tokenA, tokenB} - Tokens that the strategy maximizes.\n\t */\n\taddress public rewardToken;\n\taddress public rewarderToken;\n\taddress public lpPair;\n\taddress public tokenA;\n\taddress public tokenB;\n\n\t/**\n\t * @dev Third Party Contracts:\n\t * {traderjoeRouter} - The contract that executes swaps.\n\t * {MasterChefBoost} -The contract that distibutes {rewardToken}.\n\t * {MasterChefV3} -The contract that distibutes {rewardToken}.\n\t */\n\tIUniswapV2Router01 private constant traderjoeRouter = IUniswapV2Router01(0x60aE616a2155Ee3d9A68541Ba4544862310933d4);\n\tIMasterChefJoeBoost private constant MasterChefBoost = IMasterChefJoeBoost(0x4483f0b6e2F5486D06958C20f8C39A7aBe87bf8F);\n\tIMasterChefJoeV3 private constant MasterChefV3 = IMasterChefJoeV3(0x188bED1968b795d5c9022F6a0bb5931Ac4c18F00);\n\n\t/**\n     * @dev Contract Variables:\n     * {pid} - Pool ID.\n     * {MasterChef} - MasterChef in use.\n\n     * {totalDeposits} - Total deposits made by users.\n     * {totalDepositAge} - Deposits multiplied by blocks the deposit has been in. Flushed every reward distribution.\n     * {totalDepositLastUpdate} - Last {totalDepositAge} update block.\n\n     * {distributionID} - Current distribution ID.\n     * {userInfo} - Info on each user.\n     * {distributionInfo} - Info on each distribution.\n\n     * {fractionMultiplier} - Used to store decimal values.\n     */\n\tuint256 public pid;\n\tIMasterChefJoe public MasterChef;\n\n\tuint256 private totalDeposits;\n\tuint256 private totalDepositAge;\n\tuint256 private totalDepositLastUpdate;\n\n\tuint32 private distributionID;\n\tmapping(address => UserInfo) private userInfo;\n\tmapping(uint32 => DistributionInfo) private distributionInfo;\n\n\tuint256 private constant fractionMultiplier = uint256(1 ether);\n\n\t/**\n\t * @dev Contract Variables:\n\t * {assetRouter} - The contract from which calls to this farm are made.\n\t */\n\taddress public assetRouter;\n\tmodifier onlyAssetRouter() {\n\t\trequire(msg.sender == assetRouter, \"CALLER_NOT_ASSET_ROUTER\");\n\t\t_;\n\t}\n\n\t// ============ Methods ============\n\n\tfunction initialize(address _lpPair, address _assetRouter) external initializer {\n\t\trequire(_lpPair != address(0), \"BAD_LP_POOL\");\n\t\trequire(_assetRouter != address(0), \"BAD_ASSET_ROUTER\");\n\n\t\t__ReentrancyGuard_init();\n\t\tassetRouter = _assetRouter;\n\n\t\t(pid, MasterChef) = getPoolInfo(_lpPair);\n\t\tlpPair = _lpPair;\n\n\t\trewardToken = MasterChef.JOE();\n\t\tif (address(MasterChef) == address(MasterChefBoost)) {\n\t\t\taddress simpleRewarder = MasterChefBoost.poolInfo(pid).rewarder;\n\t\t\tif (simpleRewarder != address(0)) {\n\t\t\t\trewarderToken = address(ISimpleRewarder(simpleRewarder).rewardToken());\n\t\t\t\tIERC20(rewarderToken).approve(address(traderjoeRouter), type(uint256).max);\n\t\t\t}\n\t\t} else {\n\t\t\taddress simpleRewarder = MasterChefV3.poolInfo(pid).rewarder;\n\t\t\tif (simpleRewarder != address(0)) {\n\t\t\t\trewarderToken = address(ISimpleRewarder(simpleRewarder).rewardToken());\n\t\t\t\tIERC20(rewarderToken).approve(address(traderjoeRouter), type(uint256).max);\n\t\t\t}\n\t\t}\n\n\t\ttokenA = IUniswapV2Pair(lpPair).token0();\n\t\ttokenB = IUniswapV2Pair(lpPair).token1();\n\n\t\tdistributionInfo[0] = DistributionInfo({ block: block.number, rewardPerDepositAge: 0, cumulativeRewardAgePerDepositAge: 0 });\n\t\tdistributionID = 1;\n\t\ttotalDepositLastUpdate = block.number;\n\n\t\tIERC20Upgradeable(lpPair).approve(address(MasterChef), type(uint256).max);\n\t\tIERC20Upgradeable(lpPair).approve(address(traderjoeRouter), type(uint256).max);\n\t\tIERC20Upgradeable(rewardToken).approve(address(traderjoeRouter), type(uint256).max);\n\t\tIERC20Upgradeable(tokenA).approve(address(traderjoeRouter), type(uint256).max);\n\t\tIERC20Upgradeable(tokenB).approve(address(traderjoeRouter), type(uint256).max);\n\t}\n\n\t/**\n\t * @dev Function that makes the deposits.\n\t * Deposits provided tokens in the Liquidity Pool, then stakes generated LP tokens in the {MasterChef}.\n\t */\n\tfunction deposit(\n\t\tuint256 amountA,\n\t\tuint256 amountB,\n\t\tuint256 amountAMin,\n\t\tuint256 amountBMin,\n\t\tuint256 amountLP,\n\t\taddress origin,\n\t\taddress recipient\n\t) external nonReentrant onlyAssetRouter returns (uint256 sentA, uint256 sentB, uint256 liquidity) {\n\t\tuint256 addedLiquidity;\n\t\tif (amountA > 0 && amountB > 0) {\n\t\t\t(sentA, sentB, addedLiquidity) = traderjoeRouter.addLiquidity(tokenA, tokenB, amountA, amountB, amountAMin, amountBMin, address(this), block.timestamp);\n\t\t}\n\t\tliquidity = addedLiquidity + amountLP;\n\t\trequire(liquidity > 0, \"NO_LIQUIDITY_PROVIDED\");\n\n\t\t_updateDeposit(recipient);\n\t\tuserInfo[recipient].stake += liquidity;\n\t\ttotalDeposits += liquidity;\n\n\t\tMasterChef.deposit(pid, liquidity);\n\t\tIERC20Upgradeable(tokenA).safeTransfer(origin, amountA - sentA);\n\t\tIERC20Upgradeable(tokenB).safeTransfer(origin, amountB - sentB);\n\t}\n\n\t/**\n\t * @dev Withdraws funds from {origin} and sends them to the {recipient}.\n\t */\n\tfunction withdraw(\n\t\tuint256 amount,\n\t\tuint256 amountAMin,\n\t\tuint256 amountBMin,\n\t\tbool withdrawLP,\n\t\taddress origin,\n\t\taddress recipient\n\t) external nonReentrant onlyAssetRouter returns (uint256 amountA, uint256 amountB) {\n\t\trequire(amount > 0, \"INSUFFICIENT_AMOUNT\");\n\n\t\t_updateDeposit(origin);\n\t\tUserInfo storage user = userInfo[origin];\n\t\t// Subtract amount from user.reward first, then subtract remainder from user.stake.\n\t\tif (amount > user.reward) {\n\t\t\tuint256 balance = user.stake + user.reward;\n\t\t\trequire(amount <= balance, \"INSUFFICIENT_BALANCE\");\n\t\t\tuser.stake = balance - amount;\n\t\t\ttotalDeposits = totalDeposits + user.reward - amount;\n\t\t\tuser.reward = 0;\n\t\t} else {\n\t\t\tuser.reward -= amount;\n\t\t}\n\n\t\tMasterChef.withdraw(pid, amount);\n\t\tif (withdrawLP) {\n\t\t\tIERC20Upgradeable(lpPair).safeTransfer(recipient, amount);\n\t\t\treturn (0, 0);\n\t\t}\n\t\t(amountA, amountB) = traderjoeRouter.removeLiquidity(tokenA, tokenB, amount, amountAMin, amountBMin, recipient, block.timestamp);\n\t}\n\n\t/**\n\t * @dev Core function of the strat, in charge of updating, collecting and re-investing rewards.\n\t * 1. It claims rewards from the {MasterChef}.\n\t * 2. It swaps {rewardToken} token for {tokenA} & {tokenB}.\n\t * 3. It deposits new LP tokens back to the {MasterChef}.\n\t */\n\tfunction distribute(\n\t\tSwapInfo[4] calldata swapInfos,\n\t\tSwapInfo[2] calldata feeSwapInfo,\n\t\tFeeInfo calldata feeInfo\n\t) external onlyAssetRouter nonReentrant returns (uint256 reward) {\n\t\trequire(totalDeposits > 0, \"NO_LIQUIDITY\");\n\t\trequire(distributionInfo[distributionID - 1].block != block.number, \"CANT_CALL_ON_THE_SAME_BLOCK\");\n\n\t\tMasterChef.withdraw(pid, 0);\n\n\t\tcollectFees(feeSwapInfo[0], feeInfo, IERC20Upgradeable(rewardToken));\n\t\tcollectFees(feeSwapInfo[1], feeInfo, IERC20Upgradeable(rewarderToken));\n\t\t{// scope to avoid stack too deep errors\n\t\tuint256 rewardTokenHalf = IERC20(rewardToken).balanceOf(address(this)) / 2;\n\t\tuint256 rewarderTokenHalf;\n\t\tif (rewarderToken != address(0)) {\n\t\t\trewarderTokenHalf = IERC20(rewarderToken).balanceOf(address(this)) / 2;\n\t\t}\n\t\tif (rewardTokenHalf > 0) {\n\t\t\tif (tokenA != rewardToken) {\n\t\t\t\taddress[] calldata route = swapInfos[0].route;\n\t\t\t\trequire(route[0] == rewardToken && route[route.length - 1] == tokenA, \"BAD_REWARD_TOKEN_A_ROUTE\");\n\t\t\t\ttraderjoeRouter.swapExactTokensForTokens(rewardTokenHalf, swapInfos[0].amountOutMin, route, address(this), block.timestamp);\n\t\t\t}\n\n\t\t\tif (tokenB != rewardToken) {\n\t\t\t\taddress[] calldata route = swapInfos[1].route;\n\t\t\t\trequire(route[0] == rewardToken && route[route.length - 1] == tokenB, \"BAD_REWARD_TOKEN_B_ROUTE\");\n\t\t\t\ttraderjoeRouter.swapExactTokensForTokens(rewardTokenHalf, swapInfos[1].amountOutMin, route, address(this), block.timestamp);\n\t\t\t}\n\t\t}\n\n\t\tif (rewarderTokenHalf > 0) {\n\t\t\tif (tokenA != rewarderToken) {\n\t\t\t\taddress[] calldata route = swapInfos[2].route;\n\t\t\t\trequire(route[0] == rewarderToken && route[route.length - 1] == tokenA, \"BAD_REWARDER_TOKEN_A_ROUTE\");\n\t\t\t\ttraderjoeRouter.swapExactTokensForTokens(rewarderTokenHalf, swapInfos[2].amountOutMin, route, address(this), block.timestamp);\n\t\t\t}\n\n\t\t\tif (tokenB != rewarderToken) {\n\t\t\t\taddress[] calldata route = swapInfos[3].route;\n\t\t\t\trequire(route[0] == rewarderToken && route[route.length - 1] == tokenB, \"BAD_REWARDER_TOKEN_B_ROUTE\");\n\t\t\t\ttraderjoeRouter.swapExactTokensForTokens(rewarderTokenHalf, swapInfos[3].amountOutMin, route, address(this), block.timestamp);\n\t\t\t}\n\t\t}\n\t\t}\n\n\t\t(, , reward) = traderjoeRouter.addLiquidity(tokenA, tokenB, IERC20Upgradeable(tokenA).balanceOf(address(this)), IERC20Upgradeable(tokenB).balanceOf(address(this)), swapInfos[0].amountOutMin, swapInfos[1].amountOutMin, address(this), block.timestamp);\n\n\t\tuint256 rewardPerDepositAge = (reward * fractionMultiplier) / (totalDepositAge + totalDeposits * (block.number - totalDepositLastUpdate));\n\t\tuint256 cumulativeRewardAgePerDepositAge = distributionInfo[distributionID - 1].cumulativeRewardAgePerDepositAge + rewardPerDepositAge * (block.number - distributionInfo[distributionID - 1].block);\n\n\t\tdistributionInfo[distributionID] = DistributionInfo({ block: block.number, rewardPerDepositAge: rewardPerDepositAge, cumulativeRewardAgePerDepositAge: cumulativeRewardAgePerDepositAge });\n\n\t\tdistributionID += 1;\n\t\ttotalDepositLastUpdate = block.number;\n\t\ttotalDepositAge = 0;\n\n\t\tMasterChef.deposit(pid, reward);\n\t}\n\n\t/**\n\t * @dev Swaps and sends fees to feeTo.\n\t */\n\tfunction collectFees(\n\t\tSwapInfo calldata feeSwapInfo,\n\t\tFeeInfo calldata feeInfo,\n\t\tIERC20Upgradeable token\n\t) internal {\n\t\tif (address(token) != address(0) && feeInfo.feeTo != address(0)) {\n\t\t\tuint256 feeAmount = (token.balanceOf(address(this)) * feeInfo.fee) / fractionMultiplier;\n\t\t\tif (feeAmount > 0) {\n\t\t\t\taddress[] calldata route = feeSwapInfo.route;\n\t\t\t\tif (route.length > 0 && route[0] != route[route.length - 1]) {\n\t\t\t\t\trequire(route[0] == address(token), \"BAD_FEE_TOKEN_ROUTE\");\n\t\t\t\t\ttraderjoeRouter.swapExactTokensForTokens(feeAmount, feeSwapInfo.amountOutMin, route, feeInfo.feeTo, block.timestamp);\n\t\t\t\t\treturn;\n\t\t\t\t}\n\t\t\t\ttoken.safeTransfer(feeInfo.feeTo, feeAmount);\n\t\t\t}\n\t\t}\n\t}\n\n\t/**\n\t * @dev Returns total funds staked by the {_address}.\n\t */\n\tfunction userBalance(address _address) external view returns (uint256) {\n\t\treturn userInfo[_address].stake + userReward(_address);\n\t}\n\n\t/**\n\t * @dev Returns total funds locked in the farm.\n\t */\n\tfunction getTotalDeposits() external view returns (uint256 _totalDeposits) {\n\t\tif (totalDeposits > 0) {\n\t\t\t_totalDeposits = MasterChef.userInfo(pid, address(this)).amount;\n\t\t}\n\t}\n\n\tfunction _updateDeposit(address _address) internal {\n\t\tUserInfo storage user = userInfo[_address];\n\t\t// Accumulate deposit age within the current distribution period.\n\t\tif (user.lastDistribution == distributionID) {\n\t\t\t// Add deposit age from previous deposit age update to now.\n\t\t\tuser.depositAge += user.stake * (block.number - user.lastUpdate);\n\t\t} else {\n\t\t\t// A reward has been distributed, update user.reward.\n\t\t\tuser.reward = userReward(_address);\n\t\t\t// Count fresh deposit age from previous reward distribution to now.\n\t\t\tuser.depositAge = user.stake * (block.number - distributionInfo[distributionID - 1].block);\n\t\t}\n\n\t\tuser.lastDistribution = distributionID;\n\t\tuser.lastUpdate = block.number;\n\n\t\t// Same with total deposit age.\n\t\ttotalDepositAge += (block.number - totalDepositLastUpdate) * totalDeposits;\n\t\ttotalDepositLastUpdate = block.number;\n\t}\n\n\tfunction userReward(address _address) internal view returns (uint256) {\n\t\tUserInfo memory user = userInfo[_address];\n\t\tif (user.lastDistribution == distributionID) {\n\t\t\t// Return user.reward if the distribution after the last user deposit did not happen yet.\n\t\t\treturn user.reward;\n\t\t}\n\t\tDistributionInfo memory lastUserDistributionInfo = distributionInfo[user.lastDistribution];\n\t\tuint256 userDepositAge = user.depositAge + user.stake * (lastUserDistributionInfo.block - user.lastUpdate);\n\t\t// Calculate reward between the last user deposit and the distribution after that.\n\t\tuint256 rewardBeforeDistibution = (userDepositAge * lastUserDistributionInfo.rewardPerDepositAge) / fractionMultiplier;\n\t\t// Calculate reward from the distributions that have happened after the last user deposit.\n\t\tuint256 rewardAfterDistribution = (user.stake * (distributionInfo[distributionID - 1].cumulativeRewardAgePerDepositAge - lastUserDistributionInfo.cumulativeRewardAgePerDepositAge)) / fractionMultiplier;\n\t\treturn user.reward + rewardBeforeDistibution + rewardAfterDistribution;\n\t}\n\n\t/**\n\t * @dev Get pid and MasterChef version by iterating over all pools and MasterChefs and comparing pids.\n\t */\n\tfunction getPoolInfo(address _lpPair) internal view returns (uint256 _pid, IMasterChefJoe _masterChefAddress) {\n\t\tbool poolExists = false;\n\n\t\t// there are more pools assigned to V2, so it makes sense to start with it\n\t\tfor (uint256 i = 0; i < MasterChefBoost.poolLength(); i++) {\n\t\t\tif (MasterChefBoost.poolInfo(i).lpToken == _lpPair) {\n\t\t\t\t_pid = i;\n\t\t\t\tpoolExists = true;\n\t\t\t\t_masterChefAddress = IMasterChefJoe(address(MasterChefBoost));\n\t\t\t\tbreak;\n\t\t\t}\n\t\t}\n\t\tif (!poolExists) {\n\t\t\tfor (uint256 i = 0; i < MasterChefV3.poolLength(); i++) {\n\t\t\t\tif (MasterChefV3.poolInfo(i).lpToken == _lpPair) {\n\t\t\t\t\t_pid = i;\n\t\t\t\t\tpoolExists = true;\n\t\t\t\t\t_masterChefAddress = IMasterChefJoe(address(MasterChefV3));\n\t\t\t\t\tbreak;\n\t\t\t\t}\n\t\t\t}\n\t\t}\n\t\trequire(poolExists, \"PID_NOT_EXISTS\");\n\t\treturn (_pid, _masterChefAddress);\n\t}\n}\n",
  "sourcePath": "/home/ilau/projectWork/uno-contracts/contracts/apps/traderjoe/UnoFarmTraderjoe.sol",
  "compiler": {
    "name": "solc",
    "version": "0.8.10+commit.fc410830.Emscripten.clang"
  },
  "schemaVersion": "3.4.10",
  "updatedAt": "2022-12-07T17:56:42.552Z",
  "networkType": "ethereum",
  "devdoc": {
    "kind": "dev",
    "methods": {
      "deposit(uint256,uint256,uint256,uint256,uint256,address,address)": {
        "details": "Function that makes the deposits. Deposits provided tokens in the Liquidity Pool, then stakes generated LP tokens in the {MasterChef}."
      },
      "distribute((address[],uint256)[4],(address[],uint256)[2],(address,uint256))": {
        "details": "Core function of the strat, in charge of updating, collecting and re-investing rewards. 1. It claims rewards from the {MasterChef}. 2. It swaps {rewardToken} token for {tokenA} & {tokenB}. 3. It deposits new LP tokens back to the {MasterChef}."
      },
      "getTotalDeposits()": {
        "details": "Returns total funds locked in the farm."
      },
      "userBalance(address)": {
        "details": "Returns total funds staked by the {_address}."
      },
      "withdraw(uint256,uint256,uint256,bool,address,address)": {
        "details": "Withdraws funds from {origin} and sends them to the {recipient}."
      }
    },
    "stateVariables": {
      "assetRouter": {
        "details": "Contract Variables: {assetRouter} - The contract from which calls to this farm are made."
      },
      "pid": {
        "details": "Contract Variables: {pid} - Pool ID. {MasterChef} - MasterChef in use. {totalDeposits} - Total deposits made by users. {totalDepositAge} - Deposits multiplied by blocks the deposit has been in. Flushed every reward distribution. {totalDepositLastUpdate} - Last {totalDepositAge} update block. {distributionID} - Current distribution ID. {userInfo} - Info on each user. {distributionInfo} - Info on each distribution. {fractionMultiplier} - Used to store decimal values."
      },
      "rewardToken": {
        "details": "Tokens Used: {rewardToken} - Token generated by staking (JOE). {rewarderToken} - Token generated by simpleRewarderTime contract. {lpPair} - Token that the strategy maximizes. The same token that users deposit in the {MasterChef}. {tokenA, tokenB} - Tokens that the strategy maximizes."
      },
      "traderjoeRouter": {
        "details": "Third Party Contracts: {traderjoeRouter} - The contract that executes swaps. {MasterChefBoost} -The contract that distibutes {rewardToken}. {MasterChefV3} -The contract that distibutes {rewardToken}."
      }
    },
    "version": 1
  },
  "userdoc": {
    "kind": "user",
    "methods": {},
    "version": 1
  }
}