{
  "contractName": "UnoFarmQuickswapDual",
  "abi": [
    {
      "anonymous": false,
      "inputs": [
        {
          "indexed": false,
          "internalType": "uint8",
          "name": "version",
          "type": "uint8"
        }
      ],
      "name": "Initialized",
      "type": "event"
    },
    {
      "inputs": [],
      "name": "assetRouter",
      "outputs": [
        {
          "internalType": "address",
          "name": "",
          "type": "address"
        }
      ],
      "stateMutability": "view",
      "type": "function"
    },
    {
      "inputs": [],
      "name": "lpPair",
      "outputs": [
        {
          "internalType": "address",
          "name": "",
          "type": "address"
        }
      ],
      "stateMutability": "view",
      "type": "function"
    },
    {
      "inputs": [],
      "name": "rewardTokenA",
      "outputs": [
        {
          "internalType": "address",
          "name": "",
          "type": "address"
        }
      ],
      "stateMutability": "view",
      "type": "function"
    },
    {
      "inputs": [],
      "name": "rewardTokenB",
      "outputs": [
        {
          "internalType": "address",
          "name": "",
          "type": "address"
        }
      ],
      "stateMutability": "view",
      "type": "function"
    },
    {
      "inputs": [],
      "name": "tokenA",
      "outputs": [
        {
          "internalType": "address",
          "name": "",
          "type": "address"
        }
      ],
      "stateMutability": "view",
      "type": "function"
    },
    {
      "inputs": [],
      "name": "tokenB",
      "outputs": [
        {
          "internalType": "address",
          "name": "",
          "type": "address"
        }
      ],
      "stateMutability": "view",
      "type": "function"
    },
    {
      "inputs": [
        {
          "internalType": "address",
          "name": "_lpStakingPool",
          "type": "address"
        },
        {
          "internalType": "address",
          "name": "_assetRouter",
          "type": "address"
        }
      ],
      "name": "initialize",
      "outputs": [],
      "stateMutability": "nonpayable",
      "type": "function"
    },
    {
      "inputs": [
        {
          "internalType": "uint256",
          "name": "amountA",
          "type": "uint256"
        },
        {
          "internalType": "uint256",
          "name": "amountB",
          "type": "uint256"
        },
        {
          "internalType": "uint256",
          "name": "amountAMin",
          "type": "uint256"
        },
        {
          "internalType": "uint256",
          "name": "amountBMin",
          "type": "uint256"
        },
        {
          "internalType": "uint256",
          "name": "amountLP",
          "type": "uint256"
        },
        {
          "internalType": "address",
          "name": "origin",
          "type": "address"
        },
        {
          "internalType": "address",
          "name": "recipient",
          "type": "address"
        }
      ],
      "name": "deposit",
      "outputs": [
        {
          "internalType": "uint256",
          "name": "sentA",
          "type": "uint256"
        },
        {
          "internalType": "uint256",
          "name": "sentB",
          "type": "uint256"
        },
        {
          "internalType": "uint256",
          "name": "liquidity",
          "type": "uint256"
        }
      ],
      "stateMutability": "nonpayable",
      "type": "function"
    },
    {
      "inputs": [
        {
          "internalType": "uint256",
          "name": "amount",
          "type": "uint256"
        },
        {
          "internalType": "uint256",
          "name": "amountAMin",
          "type": "uint256"
        },
        {
          "internalType": "uint256",
          "name": "amountBMin",
          "type": "uint256"
        },
        {
          "internalType": "bool",
          "name": "withdrawLP",
          "type": "bool"
        },
        {
          "internalType": "address",
          "name": "origin",
          "type": "address"
        },
        {
          "internalType": "address",
          "name": "recipient",
          "type": "address"
        }
      ],
      "name": "withdraw",
      "outputs": [
        {
          "internalType": "uint256",
          "name": "amountA",
          "type": "uint256"
        },
        {
          "internalType": "uint256",
          "name": "amountB",
          "type": "uint256"
        }
      ],
      "stateMutability": "nonpayable",
      "type": "function"
    },
    {
      "inputs": [
        {
          "internalType": "address[]",
          "name": "rewardTokenAToTokenARoute",
          "type": "address[]"
        },
        {
          "internalType": "address[]",
          "name": "rewardTokenAToTokenBRoute",
          "type": "address[]"
        },
        {
          "internalType": "address[]",
          "name": "rewardTokenBToTokenARoute",
          "type": "address[]"
        },
        {
          "internalType": "address[]",
          "name": "rewardTokenBToTokenBRoute",
          "type": "address[]"
        },
        {
          "internalType": "uint256[4]",
          "name": "amountsOutMin",
          "type": "uint256[4]"
        }
      ],
      "name": "distribute",
      "outputs": [
        {
          "internalType": "uint256",
          "name": "reward",
          "type": "uint256"
        }
      ],
      "stateMutability": "nonpayable",
      "type": "function"
    },
    {
      "inputs": [
        {
          "internalType": "address",
          "name": "_address",
          "type": "address"
        }
      ],
      "name": "userBalance",
      "outputs": [
        {
          "internalType": "uint256",
          "name": "",
          "type": "uint256"
        }
      ],
      "stateMutability": "view",
      "type": "function"
    },
    {
      "inputs": [],
      "name": "getTotalDeposits",
      "outputs": [
        {
          "internalType": "uint256",
          "name": "_totalDeposits",
          "type": "uint256"
        }
      ],
      "stateMutability": "view",
      "type": "function"
    }
  ],
  "bytecode": "0x608060405234801561001057600080fd5b5061288d806100206000396000f3fe608060405234801561001057600080fd5b50600436106100b45760003560e01c80635f64b55b116100715780635f64b55b146101685780636b8ba92c1461017b57806384b965851461018e578063aa7b83e3146101a1578063bc0aac10146101b4578063d5634683146101c757600080fd5b80630103c92b146100b95780630fc63d10146100df5780631666768a1461010a578063168a482214610138578063452ed4f114610140578063485cc95514610153575b600080fd5b6100cc6100c736600461212b565b6101ef565b6040519081526020015b60405180910390f35b6036546100f2906001600160a01b031681565b6040516001600160a01b0390911681526020016100d6565b61011d610118366004612148565b610223565b604080519384526020840192909252908201526060016100d6565b6100cc6104b6565b6035546100f2906001600160a01b031681565b6101666101613660046121b1565b610533565b005b6037546100f2906001600160a01b031681565b6033546100f2906001600160a01b031681565b6100cc61019c3660046122a6565b610cc2565b6034546100f2906001600160a01b031681565b603f546100f2906001600160a01b031681565b6101da6101d53660046123c8565b61189e565b604080519283526020830191909152016100d6565b60006101fa82611b64565b6001600160a01b0383166000908152603d602052604090205461021d9190612445565b92915050565b6000806000600260015414156102545760405162461bcd60e51b815260040161024b9061245d565b60405180910390fd5b6002600155603f546001600160a01b031633146102835760405162461bcd60e51b815260040161024b90612494565b6000808b118015610294575060008a115b1561035c5773a5e0829caced8ffdd4de3c43696c57f7d7a678ff6001600160a01b031663e8e33700603660009054906101000a90046001600160a01b0316603760009054906101000a90046001600160a01b03168e8e8e8e30426040518963ffffffff1660e01b81526004016103119897969594939291906124cb565b6060604051808303816000875af1158015610330573d6000803e3d6000fd5b505050506040513d601f19601f820116820180604052508101906103549190612514565b919550935090505b6103668782612445565b9150600082116103b05760405162461bcd60e51b81526020600482015260156024820152741393d7d3125455525112551657d41493d592511151605a1b604482015260640161024b565b6103b985611cf9565b6001600160a01b0385166000908152603d6020526040812080548492906103e1908490612445565b9250508190555081603960008282546103fa9190612445565b909155505060385460405163534a7e1d60e11b8152600481018490526001600160a01b039091169063a694fc3a90602401600060405180830381600087803b15801561044557600080fd5b505af1158015610459573d6000803e3d6000fd5b5050505061048086858d61046d9190612542565b6036546001600160a01b03169190611e1e565b6104a18661048e858d612542565b6037546001600160a01b03169190611e1e565b50600180819055509750975097945050505050565b60395460009015610530576038546040516370a0823160e01b81523060048201526001600160a01b03909116906370a0823190602401602060405180830381865afa158015610509573d6000803e3d6000fd5b505050506040513d601f19601f8201168201806040525081019061052d9190612559565b90505b90565b600054610100900460ff16158080156105535750600054600160ff909116105b8061056d5750303b15801561056d575060005460ff166001145b6105d05760405162461bcd60e51b815260206004820152602e60248201527f496e697469616c697a61626c653a20636f6e747261637420697320616c72656160448201526d191e481a5b9a5d1a585b1a5e995960921b606482015260840161024b565b6000805460ff1916600117905580156105f3576000805461ff0019166101001790555b6105fb611e70565b603f80546001600160a01b038085166001600160a01b031992831617909255603880549286169290911682179055604080516372f702f360e01b815290516372f702f3916004808201926020929091908290030181865afa158015610664573d6000803e3d6000fd5b505050506040513d601f19601f820116820180604052508101906106889190612572565b603580546001600160a01b0319166001600160a01b03928316179055603854604080516317f4408360e21b815290519190921691635fd1020c9160048083019260209291908290030181865afa1580156106e6573d6000803e3d6000fd5b505050506040513d601f19601f8201168201806040525081019061070a9190612572565b603380546001600160a01b0319166001600160a01b0392831617905560385460408051634462633360e11b8152905191909216916388c4c6669160048083019260209291908290030181865afa158015610768573d6000803e3d6000fd5b505050506040513d601f19601f8201168201806040525081019061078c9190612572565b603480546001600160a01b0319166001600160a01b0392831617905560355460408051630dfe168160e01b815290519190921691630dfe16819160048083019260209291908290030181865afa1580156107ea573d6000803e3d6000fd5b505050506040513d601f19601f8201168201806040525081019061080e9190612572565b603680546001600160a01b0319166001600160a01b039283161790556035546040805163d21220a760e01b81529051919092169163d21220a79160048083019260209291908290030181865afa15801561086c573d6000803e3d6000fd5b505050506040513d601f19601f820116820180604052508101906108909190612572565b603780546001600160a01b0319166001600160a01b03928316179055604080516060810182524380825260006020808401828152848601838152928052603e90915292517f5f97c64b3c4bdfff50b5c8f505e633128432c6b07fc6c8abc77dce786c7317d45591517f5f97c64b3c4bdfff50b5c8f505e633128432c6b07fc6c8abc77dce786c7317d55590517f5f97c64b3c4bdfff50b5c8f505e633128432c6b07fc6c8abc77dce786c7317d655603c805463ffffffff19166001179055603b55603554905163095ea7b360e01b81528583166004820152600019602482015291169063095ea7b3906044016020604051808303816000875af115801561099b573d6000803e3d6000fd5b505050506040513d601f19601f820116820180604052508101906109bf919061258f565b5060355460405163095ea7b360e01b815273a5e0829caced8ffdd4de3c43696c57f7d7a678ff600482015260001960248201526001600160a01b039091169063095ea7b3906044016020604051808303816000875af1158015610a26573d6000803e3d6000fd5b505050506040513d601f19601f82011682018060405250810190610a4a919061258f565b5060335460405163095ea7b360e01b815273a5e0829caced8ffdd4de3c43696c57f7d7a678ff600482015260001960248201526001600160a01b039091169063095ea7b3906044016020604051808303816000875af1158015610ab1573d6000803e3d6000fd5b505050506040513d601f19601f82011682018060405250810190610ad5919061258f565b5060345460405163095ea7b360e01b815273a5e0829caced8ffdd4de3c43696c57f7d7a678ff600482015260001960248201526001600160a01b039091169063095ea7b3906044016020604051808303816000875af1158015610b3c573d6000803e3d6000fd5b505050506040513d601f19601f82011682018060405250810190610b60919061258f565b5060365460405163095ea7b360e01b815273a5e0829caced8ffdd4de3c43696c57f7d7a678ff600482015260001960248201526001600160a01b039091169063095ea7b3906044016020604051808303816000875af1158015610bc7573d6000803e3d6000fd5b505050506040513d601f19601f82011682018060405250810190610beb919061258f565b5060375460405163095ea7b360e01b815273a5e0829caced8ffdd4de3c43696c57f7d7a678ff600482015260001960248201526001600160a01b039091169063095ea7b3906044016020604051808303816000875af1158015610c52573d6000803e3d6000fd5b505050506040513d601f19601f82011682018060405250810190610c76919061258f565b508015610cbd576000805461ff0019169055604051600181527f7f26b83ff96e1f2b6a682f133852f6798a09c465da95921460cefb38474024989060200160405180910390a15b505050565b603f546000906001600160a01b03163314610cef5760405162461bcd60e51b815260040161024b90612494565b60026001541415610d125760405162461bcd60e51b815260040161024b9061245d565b6002600155603954610d555760405162461bcd60e51b815260206004820152600c60248201526b4e4f5f4c495155494449545960a01b604482015260640161024b565b603c544390603e90600090610d729060019063ffffffff166125ac565b63ffffffff1681526020810191909152604001600020541415610dd75760405162461bcd60e51b815260206004820152601b60248201527f43414e545f43414c4c5f4f4e5f5448455f53414d455f424c4f434b0000000000604482015260640161024b565b603860009054906101000a90046001600160a01b03166001600160a01b0316633d18b9126040518163ffffffff1660e01b8152600401600060405180830381600087803b158015610e2757600080fd5b505af1158015610e3b573d6000803e3d6000fd5b50506033546040516370a0823160e01b815230600482015260009350600292506001600160a01b03909116906370a0823190602401602060405180830381865afa158015610e8d573d6000803e3d6000fd5b505050506040513d601f19601f82011682018060405250810190610eb19190612559565b610ebb91906125d1565b6034546040516370a0823160e01b81523060048201529192506000916002916001600160a01b0316906370a0823190602401602060405180830381865afa158015610f0a573d6000803e3d6000fd5b505050506040513d601f19601f82011682018060405250810190610f2e9190612559565b610f3891906125d1565b9050811561123c576033546036546001600160a01b039081169116146110c0576033546001600160a01b03168c8c600081610f7557610f756125f3565b9050602002016020810190610f8a919061212b565b6001600160a01b0316148015610fe357506036546001600160a01b03168c8c610fb4600182612542565b818110610fc357610fc36125f3565b9050602002016020810190610fd8919061212b565b6001600160a01b0316145b61102f5760405162461bcd60e51b815260206004820152601a60248201527f4241445f5245574152445f415f544f4b454e5f415f524f555445000000000000604482015260640161024b565b73a5e0829caced8ffdd4de3c43696c57f7d7a678ff6338ed17398386600060200201518f8f30426040518763ffffffff1660e01b815260040161107796959493929190612609565b6000604051808303816000875af1158015611096573d6000803e3d6000fd5b505050506040513d6000823e601f3d908101601f191682016040526110be919081019061267c565b505b6033546037546001600160a01b0390811691161461123c576033546001600160a01b03168a8a6000816110f5576110f56125f3565b905060200201602081019061110a919061212b565b6001600160a01b031614801561116357506037546001600160a01b03168a8a611134600182612542565b818110611143576111436125f3565b9050602002016020810190611158919061212b565b6001600160a01b0316145b6111af5760405162461bcd60e51b815260206004820152601a60248201527f4241445f5245574152445f415f544f4b454e5f425f524f555445000000000000604482015260640161024b565b60208401516040516338ed173960e01b815273a5e0829caced8ffdd4de3c43696c57f7d7a678ff916338ed1739916111f39186918f908f9030904290600401612609565b6000604051808303816000875af1158015611212573d6000803e3d6000fd5b505050506040513d6000823e601f3d908101601f1916820160405261123a919081019061267c565b505b801561153a576034546036546001600160a01b039081169116146113be576034546001600160a01b03168888600081611277576112776125f3565b905060200201602081019061128c919061212b565b6001600160a01b03161480156112e557506036546001600160a01b031688886112b6600182612542565b8181106112c5576112c56125f3565b90506020020160208101906112da919061212b565b6001600160a01b0316145b6113315760405162461bcd60e51b815260206004820152601a60248201527f4241445f5245574152445f425f544f4b454e5f415f524f555445000000000000604482015260640161024b565b60408085015190516338ed173960e01b815273a5e0829caced8ffdd4de3c43696c57f7d7a678ff916338ed1739916113759185918d908d9030904290600401612609565b6000604051808303816000875af1158015611394573d6000803e3d6000fd5b505050506040513d6000823e601f3d908101601f191682016040526113bc919081019061267c565b505b6034546037546001600160a01b0390811691161461153a576034546001600160a01b031686866000816113f3576113f36125f3565b9050602002016020810190611408919061212b565b6001600160a01b031614801561146157506037546001600160a01b03168686611432600182612542565b818110611441576114416125f3565b9050602002016020810190611456919061212b565b6001600160a01b0316145b6114ad5760405162461bcd60e51b815260206004820152601a60248201527f4241445f5245574152445f425f544f4b454e5f425f524f555445000000000000604482015260640161024b565b60608401516040516338ed173960e01b815273a5e0829caced8ffdd4de3c43696c57f7d7a678ff916338ed1739916114f19185918b908b9030904290600401612609565b6000604051808303816000875af1158015611510573d6000803e3d6000fd5b505050506040513d6000823e601f3d908101601f19168201604052611538919081019061267c565b505b50506036546037546040516370a0823160e01b815230600482015273a5e0829caced8ffdd4de3c43696c57f7d7a678ff9263e8e33700926001600160a01b039182169291169082906370a0823190602401602060405180830381865afa1580156115a8573d6000803e3d6000fd5b505050506040513d601f19601f820116820180604052508101906115cc9190612559565b6037546040516370a0823160e01b81523060048201526001600160a01b03909116906370a0823190602401602060405180830381865afa158015611614573d6000803e3d6000fd5b505050506040513d601f19601f820116820180604052508101906116389190612559565b604088015188516116499190612445565b606089015160208a015161165d9190612445565b30426040518963ffffffff1660e01b81526004016116829897969594939291906124cb565b6060604051808303816000875af11580156116a1573d6000803e3d6000fd5b505050506040513d601f19601f820116820180604052508101906116c59190612514565b603b54909350600092506116da915043612542565b6039546116e79190612722565b603a546116f49190612445565b611706670de0b6b3a764000084612722565b61171091906125d1565b603c54909150600090603e9082906117309060019063ffffffff166125ac565b63ffffffff1681526020810191909152604001600020546117519043612542565b61175b9083612722565b603c54603e906000906117769060019063ffffffff166125ac565b63ffffffff1663ffffffff1681526020019081526020016000206002015461179e9190612445565b604080516060810182524381526020808201868152828401858152603c805463ffffffff9081166000908152603e9095529584209451855591516001858101919091559051600290940193909355805494955091939192909161180391859116612741565b825463ffffffff9182166101009390930a92830291909202199091161790555043603b556000603a5560385460405163534a7e1d60e11b8152600481018590526001600160a01b039091169063a694fc3a90602401600060405180830381600087803b15801561187257600080fd5b505af1158015611886573d6000803e3d6000fd5b50506001805550929c9b505050505050505050505050565b600080600260015414156118c45760405162461bcd60e51b815260040161024b9061245d565b6002600155603f546001600160a01b031633146118f35760405162461bcd60e51b815260040161024b90612494565b600088116119395760405162461bcd60e51b8152602060048201526013602482015272125394d551919250d251539517d05353d55395606a1b604482015260640161024b565b61194284611cf9565b6001600160a01b0384166000908152603d6020526040902060028101548911156119fb576002810154815460009161197991612445565b9050808a11156119c25760405162461bcd60e51b8152602060048201526014602482015273494e53554646494349454e545f42414c414e434560601b604482015260640161024b565b6119cc8a82612542565b825560028201546039548b916119e191612445565b6119eb9190612542565b6039555060006002820155611a15565b88816002016000828254611a0f9190612542565b90915550505b603854604051632e1a7d4d60e01b8152600481018b90526001600160a01b0390911690632e1a7d4d90602401600060405180830381600087803b158015611a5b57600080fd5b505af1158015611a6f573d6000803e3d6000fd5b505050508515611a9d57603554611a90906001600160a01b0316858b611e1e565b6000809250925050611b53565b603654603754604051635d5155ef60e11b81526001600160a01b0392831660048201529082166024820152604481018b9052606481018a90526084810189905290851660a48201524260c482015273a5e0829caced8ffdd4de3c43696c57f7d7a678ff9063baa2abde9060e40160408051808303816000875af1158015611b28573d6000803e3d6000fd5b505050506040513d601f19601f82011682018060405250810190611b4c9190612769565b9093509150505b600180559097909650945050505050565b6001600160a01b0381166000908152603d60209081526040808320815160a08101835281548152600182015493810193909352600281015491830191909152600381015463ffffffff908116606084018190526004909201546080840152603c54161415611bd6576040015192915050565b60608082015163ffffffff166000908152603e6020908152604080832081519485018252805480865260018201549386019390935260020154908401526080840151611c2191612542565b8351611c2d9190612722565b8360200151611c3c9190612445565b90506000670de0b6b3a7640000836020015183611c599190612722565b611c6391906125d1565b6040840151603c54919250600091670de0b6b3a76400009190603e908490611c939060019063ffffffff166125ac565b63ffffffff1663ffffffff16815260200190815260200160002060020154611cbb9190612542565b8651611cc79190612722565b611cd191906125d1565b905080828660400151611ce49190612445565b611cee9190612445565b979650505050505050565b6001600160a01b0381166000908152603d60205260409020603c54600382015463ffffffff90811691161415611d62576004810154611d389043612542565b8154611d449190612722565b816001016000828254611d579190612445565b90915550611dbe9050565b611d6b82611b64565b6002820155603c54603e90600090611d8b9060019063ffffffff166125ac565b63ffffffff168152602081019190915260400160002054611dac9043612542565b8154611db89190612722565b60018201555b603c5460038201805463ffffffff191663ffffffff9092169190911790554360048201819055603954603b549091611df69190612542565b611e009190612722565b603a6000828254611e119190612445565b909155505043603b555050565b604080516001600160a01b038416602482015260448082018490528251808303909101815260649091019091526020810180516001600160e01b031663a9059cbb60e01b179052610cbd908490611ea1565b600054610100900460ff16611e975760405162461bcd60e51b815260040161024b9061278d565b611e9f611f73565b565b6000611ef6826040518060400160405280602081526020017f5361666545524332303a206c6f772d6c6576656c2063616c6c206661696c6564815250856001600160a01b0316611fa09092919063ffffffff16565b805190915015610cbd5780806020019051810190611f14919061258f565b610cbd5760405162461bcd60e51b815260206004820152602a60248201527f5361666545524332303a204552433230206f7065726174696f6e20646964206e6044820152691bdd081cdd58d8d9595960b21b606482015260840161024b565b600054610100900460ff16611f9a5760405162461bcd60e51b815260040161024b9061278d565b60018055565b6060611faf8484600085611fb9565b90505b9392505050565b60608247101561201a5760405162461bcd60e51b815260206004820152602660248201527f416464726573733a20696e73756666696369656e742062616c616e636520666f6044820152651c8818d85b1b60d21b606482015260840161024b565b6001600160a01b0385163b6120715760405162461bcd60e51b815260206004820152601d60248201527f416464726573733a2063616c6c20746f206e6f6e2d636f6e7472616374000000604482015260640161024b565b600080866001600160a01b0316858760405161208d9190612808565b60006040518083038185875af1925050503d80600081146120ca576040519150601f19603f3d011682016040523d82523d6000602084013e6120cf565b606091505b5091509150611cee828286606083156120e9575081611fb2565b8251156120f95782518084602001fd5b8160405162461bcd60e51b815260040161024b9190612824565b6001600160a01b038116811461212857600080fd5b50565b60006020828403121561213d57600080fd5b8135611fb281612113565b600080600080600080600060e0888a03121561216357600080fd5b873596506020880135955060408801359450606088013593506080880135925060a088013561219181612113565b915060c08801356121a181612113565b8091505092959891949750929550565b600080604083850312156121c457600080fd5b82356121cf81612113565b915060208301356121df81612113565b809150509250929050565b60008083601f8401126121fc57600080fd5b50813567ffffffffffffffff81111561221457600080fd5b6020830191508360208260051b850101111561222f57600080fd5b9250929050565b634e487b7160e01b600052604160045260246000fd5b6040516080810167ffffffffffffffff8111828210171561226f5761226f612236565b60405290565b604051601f8201601f1916810167ffffffffffffffff8111828210171561229e5761229e612236565b604052919050565b6000806000806000806000806000610100808b8d0312156122c657600080fd5b8a3567ffffffffffffffff808211156122de57600080fd5b6122ea8e838f016121ea565b909c509a5060208d013591508082111561230357600080fd5b61230f8e838f016121ea565b909a50985060408d013591508082111561232857600080fd5b6123348e838f016121ea565b909850965060608d013591508082111561234d57600080fd5b5061235a8d828e016121ea565b909550935050609f8b018c1361236f57600080fd5b61237761224c565b908b0190808d83111561238957600080fd5b60808d015b838110156123a657803583526020928301920161238e565b508093505050509295985092959850929598565b801515811461212857600080fd5b60008060008060008060c087890312156123e157600080fd5b8635955060208701359450604087013593506060870135612401816123ba565b9250608087013561241181612113565b915060a087013561242181612113565b809150509295509295509295565b634e487b7160e01b600052601160045260246000fd5b600082198211156124585761245861242f565b500190565b6020808252601f908201527f5265656e7472616e637947756172643a207265656e7472616e742063616c6c00604082015260600190565b60208082526017908201527f43414c4c45525f4e4f545f41535345545f524f55544552000000000000000000604082015260600190565b6001600160a01b039889168152968816602088015260408701959095526060860193909352608085019190915260a084015290921660c082015260e08101919091526101000190565b60008060006060848603121561252957600080fd5b8351925060208401519150604084015190509250925092565b6000828210156125545761255461242f565b500390565b60006020828403121561256b57600080fd5b5051919050565b60006020828403121561258457600080fd5b8151611fb281612113565b6000602082840312156125a157600080fd5b8151611fb2816123ba565b600063ffffffff838116908316818110156125c9576125c961242f565b039392505050565b6000826125ee57634e487b7160e01b600052601260045260246000fd5b500490565b634e487b7160e01b600052603260045260246000fd5b868152602080820187905260a0604083018190528201859052600090869060c08401835b8881101561265b57833561264081612113565b6001600160a01b03168252928201929082019060010161262d565b506001600160a01b0396909616606085015250505060800152949350505050565b6000602080838503121561268f57600080fd5b825167ffffffffffffffff808211156126a757600080fd5b818501915085601f8301126126bb57600080fd5b8151818111156126cd576126cd612236565b8060051b91506126de848301612275565b81815291830184019184810190888411156126f857600080fd5b938501935b83851015612716578451825293850193908501906126fd565b98975050505050505050565b600081600019048311821515161561273c5761273c61242f565b500290565b600063ffffffff8083168185168083038211156127605761276061242f565b01949350505050565b6000806040838503121561277c57600080fd5b505080516020909101519092909150565b6020808252602b908201527f496e697469616c697a61626c653a20636f6e7472616374206973206e6f74206960408201526a6e697469616c697a696e6760a81b606082015260800190565b60005b838110156127f35781810151838201526020016127db565b83811115612802576000848401525b50505050565b6000825161281a8184602087016127d8565b9190910192915050565b60208152600082518060208401526128438160408501602087016127d8565b601f01601f1916919091016040019291505056fea264697066735822122081667136ee370ee000dcc1e4b54d2fd057fc1023fa2331f50496ae1d271883bc64736f6c634300080a0033",
  "immutableReferences": {},
  "source": "// SPDX-License-Identifier: MIT\npragma solidity 0.8.10;\n \nimport '../../interfaces/IUniswapV2Pair.sol';\nimport '../../interfaces/IUniswapV2Router.sol';\nimport '../../interfaces/IStakingDualRewards.sol';\nimport '../../interfaces/IWMATIC.sol';\nimport '@openzeppelin/contracts-upgradeable/security/ReentrancyGuardUpgradeable.sol';\nimport '@openzeppelin/contracts-upgradeable/token/ERC20/utils/SafeERC20Upgradeable.sol';\nimport '@openzeppelin/contracts-upgradeable/token/ERC20/IERC20Upgradeable.sol';\nimport '@openzeppelin/contracts-upgradeable/proxy/utils/Initializable.sol';\n\ncontract UnoFarmQuickswapDual is Initializable, ReentrancyGuardUpgradeable {\n    using SafeERC20Upgradeable for IERC20Upgradeable;\n    /**\n     * @dev DistributionInfo:\n     * {block} - Distribution block number.\n     * {rewardPerDepositAge} - Distribution reward divided by {totalDepositAge}. \n     * {cumulativeRewardAgePerDepositAge} - Sum of {rewardPerDepositAge}s multiplied by distribution interval.\n     */\n    struct DistributionInfo {\n        uint256 block;\n        uint256 rewardPerDepositAge;\n        uint256 cumulativeRewardAgePerDepositAge;\n    }\n    /**\n     * @dev UserInfo:\n     * {stake} - Amount of LP tokens deposited by the user.\n     * {depositAge} - User deposits multiplied by blocks the deposit has been in. \n     * {reward} - Amount of LP tokens entitled to the user.\n     * {lastDistribution} - Distribution ID before the last user deposit.\n     * {lastUpdate} - Deposit update block.\n     */\n    struct UserInfo {\n        uint256 stake;\n        uint256 depositAge;\n        uint256 reward;\n        uint32 lastDistribution;\n        uint256 lastUpdate;\n    }\n\n    /**\n     * @dev Tokens Used:\n     * {rewardTokenA, rewardTokenB} - Tokens generated by staking.\n     * {lpPair} - Token that the strategy maximizes. The same token that users deposit in the {lpStakingPool}.\n     * {tokenA, tokenB} - Tokens that the strategy maximizes.\n     */\n    address public rewardTokenA;\n    address public rewardTokenB;\n    address public lpPair;\n    address public tokenA;\n    address public tokenB;\n\n    /**\n     * @dev Third Party Contracts:\n     * {quickswapRouter} - Contract that executes swaps.\n     * {lpStakingPool} - Contract that distibutes {rewardTokenA, rewardTokenB}.\n     */\n    IUniswapV2Router01 private constant quickswapRouter = IUniswapV2Router01(0xa5E0829CaCEd8fFDD4De3c43696c57F7D7A678ff); \n    IStakingDualRewards private lpStakingPool;\n\n    /**\n     * @dev Contract Variables:\n     * {totalDeposits} - Total deposits made by users.\n     * {totalDepositAge} - Deposits multiplied by blocks the deposit has been in. Flushed every reward distribution.\n     * {totalDepositLastUpdate} - Last {totalDepositAge} update block.\n\n     * {distributionID} - Current distribution ID.\n     * {userInfo} - Info on each user.\n     * {distributionInfo} - Info on each distribution.\n\n     * {fractionMultiplier} - Used to store decimal values.\n     */\n    uint256 private totalDeposits;\n    uint256 private totalDepositAge;\n    uint256 private totalDepositLastUpdate;\n\n    uint32 private distributionID;\n    mapping(address => UserInfo) private userInfo;\n    mapping(uint32 => DistributionInfo) private distributionInfo;\n\n    uint256 private constant fractionMultiplier = uint256(1 ether);\n\n    /**\n     * @dev Contract Variables:\n     * {assetRouter} - The contract from which calls to this farm are made.\n     */\n    address public assetRouter;\n    modifier onlyAssetRouter(){\n        require(msg.sender == assetRouter, 'CALLER_NOT_ASSET_ROUTER');\n        _;\n    }\n\n    // ============ Methods ============\n\n    function initialize(address _lpStakingPool, address _assetRouter) external initializer {\n        __ReentrancyGuard_init();\n        assetRouter = _assetRouter;\n\n        lpStakingPool = IStakingDualRewards(_lpStakingPool);\n        lpPair = address(lpStakingPool.stakingToken());\n\n        rewardTokenA = lpStakingPool.rewardsTokenA();\n        rewardTokenB = lpStakingPool.rewardsTokenB();\n\n        tokenA = IUniswapV2Pair(lpPair).token0();\n        tokenB = IUniswapV2Pair(lpPair).token1();\n\n        distributionInfo[0] = DistributionInfo({\n            block: block.number,\n            rewardPerDepositAge: 0,\n            cumulativeRewardAgePerDepositAge: 0\n        });\n        distributionID = 1;\n        totalDepositLastUpdate = block.number;\n\n        IERC20(lpPair).approve(_lpStakingPool, type(uint256).max);\n        IERC20(lpPair).approve(address(quickswapRouter), type(uint256).max);\n        IERC20(rewardTokenA).approve(address(quickswapRouter), type(uint256).max);\n        IERC20(rewardTokenB).approve(address(quickswapRouter), type(uint256).max);\n        IERC20(tokenA).approve(address(quickswapRouter), type(uint256).max);\n        IERC20(tokenB).approve(address(quickswapRouter), type(uint256).max);\n    }\n\n    /**\n     * @dev Function that makes the deposits.\n     * Deposits provided tokens in the Liquidity Pool, then stakes generated LP tokens in the {lpStakingPool}.\n     */\n    function deposit(uint256 amountA, uint256 amountB, uint256 amountAMin, uint256 amountBMin, uint256 amountLP, address origin, address recipient) external nonReentrant onlyAssetRouter returns(uint256 sentA, uint256 sentB, uint256 liquidity){\n        uint256 addedLiquidity;\n        if(amountA > 0 && amountB > 0){\n            (sentA, sentB, addedLiquidity) = quickswapRouter.addLiquidity(tokenA, tokenB, amountA, amountB, amountAMin, amountBMin, address(this), block.timestamp);\n        }\n        liquidity = addedLiquidity + amountLP;\n        require(liquidity > 0, 'NO_LIQUIDITY_PROVIDED');\n\n        _updateDeposit(recipient);\n        userInfo[recipient].stake += liquidity;\n        totalDeposits += liquidity;\n            \n        lpStakingPool.stake(liquidity);\n        IERC20Upgradeable(tokenA).safeTransfer(origin, amountA - sentA);\n        IERC20Upgradeable(tokenB).safeTransfer(origin, amountB - sentB);\n    }\n\n    /**\n     * @dev Withdraws funds from {origin} and sends them to the {recipient}.\n     */\n    function withdraw(uint256 amount, uint256 amountAMin, uint256 amountBMin, bool withdrawLP, address origin, address recipient) external nonReentrant onlyAssetRouter returns(uint256 amountA, uint256 amountB){\n        require(amount > 0, 'INSUFFICIENT_AMOUNT');\n\n        _updateDeposit(origin);\n        UserInfo storage user = userInfo[origin];\n        // Subtract amount from user.reward first, then subtract remainder from user.stake.\n        if(amount > user.reward){\n            uint256 balance = user.stake + user.reward;\n            require(amount <= balance, 'INSUFFICIENT_BALANCE');\n            user.stake = balance - amount;\n            totalDeposits = totalDeposits + user.reward - amount;\n            user.reward = 0;\n        } else {\n            user.reward -= amount;\n        }\n\n        lpStakingPool.withdraw(amount);\n        if(withdrawLP){\n            IERC20Upgradeable(lpPair).safeTransfer(recipient, amount);\n            return (0, 0);\n        }\n        (amountA, amountB) = quickswapRouter.removeLiquidity(tokenA, tokenB, amount, amountAMin, amountBMin, recipient, block.timestamp);\n    }\n\n    /**\n     * @dev Core function of the strat, in charge of updating, collecting and re-investing rewards.\n     * 1. It claims rewards from the {lpStakingPool}.\n     * 2. It swaps {rewardToken} token for {tokenA} & {tokenB}.\n     * 3. It deposits new LP tokens back to the {lpStakingPool}.\n     */\n    function distribute(address[] calldata rewardTokenAToTokenARoute, address[] calldata rewardTokenAToTokenBRoute, address[] calldata rewardTokenBToTokenARoute, address[] calldata rewardTokenBToTokenBRoute, uint256[4] memory amountsOutMin) external onlyAssetRouter nonReentrant returns(uint256 reward){\n        require(totalDeposits > 0, 'NO_LIQUIDITY');\n        require(distributionInfo[distributionID - 1].block != block.number, 'CANT_CALL_ON_THE_SAME_BLOCK');\n\n        lpStakingPool.getReward();\n        { // scope to avoid stack too deep errors\n        uint256 rewardTokenAHalf = IERC20(rewardTokenA).balanceOf(address(this)) / 2;\n        uint256 rewardTokenBHalf = IERC20(rewardTokenB).balanceOf(address(this)) / 2;\n        if (rewardTokenAHalf > 0) {\n            if (tokenA != rewardTokenA) {\n                require(rewardTokenAToTokenARoute[0] == rewardTokenA && rewardTokenAToTokenARoute[rewardTokenAToTokenARoute.length - 1] == tokenA, 'BAD_REWARD_A_TOKEN_A_ROUTE');\n                quickswapRouter.swapExactTokensForTokens(rewardTokenAHalf, amountsOutMin[0], rewardTokenAToTokenARoute, address(this), block.timestamp);\n            }\n\n            if (tokenB != rewardTokenA) {\n                require(rewardTokenAToTokenBRoute[0] == rewardTokenA && rewardTokenAToTokenBRoute[rewardTokenAToTokenBRoute.length - 1] == tokenB, 'BAD_REWARD_A_TOKEN_B_ROUTE');\n                quickswapRouter.swapExactTokensForTokens(rewardTokenAHalf, amountsOutMin[1], rewardTokenAToTokenBRoute, address(this), block.timestamp);\n            }\n        }\n        \n        if (rewardTokenBHalf > 0) {\n            if (tokenA != rewardTokenB) {\n                require(rewardTokenBToTokenARoute[0] == rewardTokenB && rewardTokenBToTokenARoute[rewardTokenBToTokenARoute.length - 1] == tokenA, 'BAD_REWARD_B_TOKEN_A_ROUTE');\n                quickswapRouter.swapExactTokensForTokens(rewardTokenBHalf, amountsOutMin[2], rewardTokenBToTokenARoute, address(this), block.timestamp);\n            }\n    \n            if (tokenB != rewardTokenB) {\n                require(rewardTokenBToTokenBRoute[0] == rewardTokenB && rewardTokenBToTokenBRoute[rewardTokenBToTokenBRoute.length - 1] == tokenB, 'BAD_REWARD_B_TOKEN_B_ROUTE');\n                quickswapRouter.swapExactTokensForTokens(rewardTokenBHalf, amountsOutMin[3], rewardTokenBToTokenBRoute, address(this), block.timestamp);\n            }\n        }\n        }\n        \n        (,,reward) = quickswapRouter.addLiquidity(tokenA, tokenB, IERC20(tokenA).balanceOf(address(this)), IERC20(tokenB).balanceOf(address(this)), amountsOutMin[0] + amountsOutMin[2], amountsOutMin[1] + amountsOutMin[3], address(this), block.timestamp);\n\n        uint256 rewardPerDepositAge = reward * fractionMultiplier / (totalDepositAge + totalDeposits * (block.number - totalDepositLastUpdate));\n        uint256 cumulativeRewardAgePerDepositAge = distributionInfo[distributionID - 1].cumulativeRewardAgePerDepositAge + rewardPerDepositAge * (block.number - distributionInfo[distributionID - 1].block);\n\n        distributionInfo[distributionID] = DistributionInfo({\n            block: block.number,\n            rewardPerDepositAge: rewardPerDepositAge,\n            cumulativeRewardAgePerDepositAge: cumulativeRewardAgePerDepositAge\n        });\n\n        distributionID += 1;\n        totalDepositLastUpdate = block.number;\n        totalDepositAge = 0;\n\n        lpStakingPool.stake(reward);\n    }\n\n    /**\n     * @dev Returns total funds staked by the {_address}.\n     */\n    function userBalance(address _address) external view returns (uint256) {\n        return userInfo[_address].stake + userReward(_address);\n    }\n\n    /**\n     * @dev Returns total funds locked in the farm.\n     */\n    function getTotalDeposits() external view returns (uint256 _totalDeposits) {\n        if(totalDeposits > 0){\n            _totalDeposits = lpStakingPool.balanceOf(address(this));\n        }\n    }\n\n    function _updateDeposit(address _address) internal {\n        UserInfo storage user = userInfo[_address];\n        // Accumulate deposit age within the current distribution period.\n        if (user.lastDistribution == distributionID) {\n            // Add deposit age from previous deposit age update to now.\n            user.depositAge += user.stake * (block.number - user.lastUpdate);\n        } else {\n            // A reward has been distributed, update user.reward.\n            user.reward = userReward(_address);\n            // Count fresh deposit age from previous reward distribution to now.\n            user.depositAge = user.stake * (block.number - distributionInfo[distributionID - 1].block);\n        }\n\n        user.lastDistribution = distributionID;\n        user.lastUpdate = block.number;\n\n        // Same with total deposit age.\n        totalDepositAge += (block.number - totalDepositLastUpdate) * totalDeposits;\n        totalDepositLastUpdate = block.number;\n    }\n\n    function userReward(address _address) internal view returns (uint256) {\n        UserInfo memory user = userInfo[_address];\n        if (user.lastDistribution == distributionID) {\n            // Return user.reward if the distribution after the last user deposit did not happen yet.\n            return user.reward;\n        }\n        DistributionInfo memory lastUserDistributionInfo = distributionInfo[user.lastDistribution];\n        uint256 userDepositAge = user.depositAge + user.stake * (lastUserDistributionInfo.block - user.lastUpdate);\n        // Calculate reward between the last user deposit and the distribution after that.\n        uint256 rewardBeforeDistibution = userDepositAge * lastUserDistributionInfo.rewardPerDepositAge / fractionMultiplier;\n        // Calculate reward from the distributions that have happened after the last user deposit.\n        uint256 rewardAfterDistribution = user.stake * (distributionInfo[distributionID - 1].cumulativeRewardAgePerDepositAge - lastUserDistributionInfo.cumulativeRewardAgePerDepositAge) / fractionMultiplier;\n        return user.reward + rewardBeforeDistibution + rewardAfterDistribution;\n    }\n}\n",
  "sourcePath": "C:\\Users\\nick_\\OneDrive\\\\UNO\\Solidity\\autostrats\\uno-contracts\\contracts\\apps\\quickswapDual\\UnoFarmQuickswapDual.sol",
  "compiler": {
    "name": "solc",
    "version": "0.8.10+commit.fc410830.Emscripten.clang"
  },
  "schemaVersion": "3.4.7",
  "updatedAt": "2022-08-05T22:59:28.708Z",
  "devdoc": {
    "kind": "dev",
    "methods": {
      "deposit(uint256,uint256,uint256,uint256,uint256,address,address)": {
        "details": "Function that makes the deposits. Deposits provided tokens in the Liquidity Pool, then stakes generated LP tokens in the {lpStakingPool}."
      },
      "distribute(address[],address[],address[],address[],uint256[4])": {
        "details": "Core function of the strat, in charge of updating, collecting and re-investing rewards. 1. It claims rewards from the {lpStakingPool}. 2. It swaps {rewardToken} token for {tokenA} & {tokenB}. 3. It deposits new LP tokens back to the {lpStakingPool}."
      },
      "getTotalDeposits()": {
        "details": "Returns total funds locked in the farm."
      },
      "userBalance(address)": {
        "details": "Returns total funds staked by the {_address}."
      },
      "withdraw(uint256,uint256,uint256,bool,address,address)": {
        "details": "Withdraws funds from {origin} and sends them to the {recipient}."
      }
    },
    "stateVariables": {
      "assetRouter": {
        "details": "Contract Variables: {assetRouter} - The contract from which calls to this farm are made."
      },
      "quickswapRouter": {
        "details": "Third Party Contracts: {quickswapRouter} - Contract that executes swaps. {lpStakingPool} - Contract that distibutes {rewardTokenA, rewardTokenB}."
      },
      "rewardTokenA": {
        "details": "Tokens Used: {rewardTokenA, rewardTokenB} - Tokens generated by staking. {lpPair} - Token that the strategy maximizes. The same token that users deposit in the {lpStakingPool}. {tokenA, tokenB} - Tokens that the strategy maximizes."
      },
      "totalDeposits": {
        "details": "Contract Variables: {totalDeposits} - Total deposits made by users. {totalDepositAge} - Deposits multiplied by blocks the deposit has been in. Flushed every reward distribution. {totalDepositLastUpdate} - Last {totalDepositAge} update block. {distributionID} - Current distribution ID. {userInfo} - Info on each user. {distributionInfo} - Info on each distribution. {fractionMultiplier} - Used to store decimal values."
      }
    },
    "version": 1
  },
  "userdoc": {
    "kind": "user",
    "methods": {},
    "version": 1
  }
}