{
  "contractName": "UnoFarmBalancer",
  "abi": [
    {
      "anonymous": false,
      "inputs": [
        {
          "indexed": false,
          "internalType": "uint8",
          "name": "version",
          "type": "uint8"
        }
      ],
      "name": "Initialized",
      "type": "event"
    },
    {
      "inputs": [],
      "name": "assetRouter",
      "outputs": [
        {
          "internalType": "address",
          "name": "",
          "type": "address"
        }
      ],
      "stateMutability": "view",
      "type": "function",
      "constant": true
    },
    {
      "inputs": [],
      "name": "lpPair",
      "outputs": [
        {
          "internalType": "address",
          "name": "",
          "type": "address"
        }
      ],
      "stateMutability": "view",
      "type": "function",
      "constant": true
    },
    {
      "inputs": [],
      "name": "poolId",
      "outputs": [
        {
          "internalType": "bytes32",
          "name": "",
          "type": "bytes32"
        }
      ],
      "stateMutability": "view",
      "type": "function",
      "constant": true
    },
    {
      "inputs": [],
      "name": "totalDeposits",
      "outputs": [
        {
          "internalType": "uint256",
          "name": "",
          "type": "uint256"
        }
      ],
      "stateMutability": "view",
      "type": "function",
      "constant": true
    },
    {
      "inputs": [
        {
          "internalType": "address",
          "name": "_lpPair",
          "type": "address"
        },
        {
          "internalType": "address",
          "name": "_assetRouter",
          "type": "address"
        }
      ],
      "name": "initialize",
      "outputs": [],
      "stateMutability": "nonpayable",
      "type": "function"
    },
    {
      "inputs": [
        {
          "internalType": "uint256[]",
          "name": "amounts",
          "type": "uint256[]"
        },
        {
          "internalType": "address[]",
          "name": "tokens",
          "type": "address[]"
        },
        {
          "internalType": "uint256",
          "name": "amountLP",
          "type": "uint256"
        },
        {
          "internalType": "address",
          "name": "recipient",
          "type": "address"
        }
      ],
      "name": "deposit",
      "outputs": [
        {
          "internalType": "uint256",
          "name": "liquidity",
          "type": "uint256"
        }
      ],
      "stateMutability": "nonpayable",
      "type": "function"
    },
    {
      "inputs": [
        {
          "internalType": "address",
          "name": "origin",
          "type": "address"
        },
        {
          "internalType": "uint256",
          "name": "amount",
          "type": "uint256"
        },
        {
          "internalType": "bool",
          "name": "withdrawLP",
          "type": "bool"
        },
        {
          "internalType": "address",
          "name": "recipient",
          "type": "address"
        }
      ],
      "name": "withdraw",
      "outputs": [],
      "stateMutability": "nonpayable",
      "type": "function"
    },
    {
      "inputs": [
        {
          "components": [
            {
              "internalType": "bytes32",
              "name": "poolId",
              "type": "bytes32"
            },
            {
              "internalType": "uint256",
              "name": "assetInIndex",
              "type": "uint256"
            },
            {
              "internalType": "uint256",
              "name": "assetOutIndex",
              "type": "uint256"
            },
            {
              "internalType": "uint256",
              "name": "amount",
              "type": "uint256"
            },
            {
              "internalType": "bytes",
              "name": "userData",
              "type": "bytes"
            }
          ],
          "internalType": "struct IVault.BatchSwapStep[][]",
          "name": "swaps",
          "type": "tuple[][]"
        },
        {
          "internalType": "contract IAsset[][]",
          "name": "assets",
          "type": "address[][]"
        },
        {
          "internalType": "int256[][]",
          "name": "limits",
          "type": "int256[][]"
        }
      ],
      "name": "distribute",
      "outputs": [
        {
          "internalType": "uint256",
          "name": "reward",
          "type": "uint256"
        }
      ],
      "stateMutability": "nonpayable",
      "type": "function"
    },
    {
      "inputs": [
        {
          "internalType": "uint256",
          "name": "_amount",
          "type": "uint256"
        },
        {
          "internalType": "uint256",
          "name": "_block",
          "type": "uint256"
        }
      ],
      "name": "setExpectedReward",
      "outputs": [],
      "stateMutability": "nonpayable",
      "type": "function"
    },
    {
      "inputs": [
        {
          "internalType": "address",
          "name": "_address",
          "type": "address"
        }
      ],
      "name": "userBalance",
      "outputs": [
        {
          "internalType": "uint256",
          "name": "",
          "type": "uint256"
        }
      ],
      "stateMutability": "view",
      "type": "function",
      "constant": true
    }
  ],
  "bytecode": "0x608060405234801561001057600080fd5b50612b15806100206000396000f3fe608060405234801561001057600080fd5b506004361061009e5760003560e01c80637d882097116100665780637d88209714610125578063bc0aac101461012e578063bedfe76f14610141578063e00d2e6e14610154578063e8da9d481461016757600080fd5b80630103c92b146100a35780633e0dc34e146100c9578063430004c1146100d2578063452ed4f1146100e7578063485cc95514610112575b600080fd5b6100b66100b1366004611d78565b61017a565b6040519081526020015b60405180910390f35b6100b660365481565b6100e56100e0366004611daa565b61020e565b005b6035546100fa906001600160a01b031681565b6040516001600160a01b0390911681526020016100c0565b6100e5610120366004611dfd565b610484565b6100b660415481565b6044546100fa906001600160a01b031681565b6100b661014f36600461208b565b6107b0565b6100b661016236600461237a565b610fb1565b6100e561017536600461244c565b6113cc565b6001600160a01b038116600090815260406020818152818320603b548452905281205460ff16156101c157506001600160a01b03166000908152603d602052604090205490565b6037546101d057506000919050565b6037546001600160a01b0383166000908152603860205260409020546041546101f99190612484565b61020391906124a3565b92915050565b919050565b6002600154141561023a5760405162461bcd60e51b8152600401610231906124c5565b60405180910390fd5b60026001556044546001600160a01b031633146102695760405162461bcd60e51b8152600401610231906124fc565b600083116102af5760405162461bcd60e51b8152602060048201526013602482015272125394d551919250d251539517d05353d55395606a1b6044820152606401610231565b6102b98385611433565b603354604051632e1a7d4d60e01b8152600481018590526001600160a01b0390911690632e1a7d4d90602401600060405180830381600087803b1580156102ff57600080fd5b505af1158015610313573d6000803e3d6000fd5b50505050811561039a5760355460405163a9059cbb60e01b81526001600160a01b038381166004830152602482018690529091169063a9059cbb906044016020604051808303816000875af1158015610370573d6000803e3d6000fd5b505050506040513d601f19601f820116820180604052508101906103949190612533565b5061047a565b6000806103a56116e8565b925092505073ba12222222228d8ba445958a75a0704d566bf2c86001600160a01b0316638bdb39136036543086604051806080016040528088815260200187815260200160018c60405160200161040b92919060ff929092168252602082015260400190565b6040516020818303038152906040528152602001600015158152506040518563ffffffff1660e01b8152600401610445949392919061266f565b600060405180830381600087803b15801561045f57600080fd5b505af1158015610473573d6000803e3d6000fd5b5050505050505b5050600180555050565b60006104906001611867565b905080156104a8576000805461ff0019166101001790555b604480546001600160a01b038085166001600160a01b0319928316179092556035805492861692909116821790556040805163038fff2d60e41b815290516338fff2d0916004808201926020929091908290030181865afa158015610511573d6000803e3d6000fd5b505050506040513d601f19601f8201168201806040525081019061053591906126ab565b60365560405163a8ea687560e01b81526001600160a01b0384166004820152733b8ca519122cdd8efb272b0d3085453404b25bd09063a8ea687590602401602060405180830381865afa158015610590573d6000803e3d6000fd5b505050506040513d601f19601f820116820180604052508101906105b491906126c4565b603380546001600160a01b0319166001600160a01b039283161790556040516308a4ffeb60e41b81529084166004820152733b8ca519122cdd8efb272b0d3085453404b25bd090638a4ffeb090602401602060405180830381865afa158015610621573d6000803e3d6000fd5b505050506040513d601f19601f8201168201806040525081019061064591906126c4565b603480546001600160a01b0319166001600160a01b0392831617905560405163095ea7b360e01b815273ba12222222228d8ba445958a75a0704d566bf2c8600482015260001960248201529084169063095ea7b3906044016020604051808303816000875af11580156106bc573d6000803e3d6000fd5b505050506040513d601f19601f820116820180604052508101906106e09190612533565b5060335460405163095ea7b360e01b81526001600160a01b03918216600482015260001960248201529084169063095ea7b3906044016020604051808303816000875af1158015610735573d6000803e3d6000fd5b505050506040513d601f19601f820116820180604052508101906107599190612533565b5043603b5562124f80603c5580156107ab576000805461ff0019169055604051600181527f7f26b83ff96e1f2b6a682f133852f6798a09c465da95921460cefb38474024989060200160405180910390a15b505050565b6044546000906001600160a01b031633146107dd5760405162461bcd60e51b8152600401610231906124fc565b600260015414156108005760405162461bcd60e51b8152600401610231906124c5565b60026001556041546108435760405162461bcd60e51b815260206004820152600c60248201526b4e4f5f4c495155494449545960a01b6044820152606401610231565b603360009054906101000a90046001600160a01b03166001600160a01b031663e6f1daf26040518163ffffffff1660e01b8152600401600060405180830381600087803b15801561089357600080fd5b505af11580156108a7573d6000803e3d6000fd5b5050505060005b603460009054906101000a90046001600160a01b03166001600160a01b031663963c94b96040518163ffffffff1660e01b8152600401602060405180830381865afa158015610901573d6000803e3d6000fd5b505050506040513d601f19601f8201168201806040525081019061092591906126ab565b811015610c00576034546040516354c49fe960e01b8152600481018390526000916001600160a01b0316906354c49fe990602401602060405180830381865afa158015610976573d6000803e3d6000fd5b505050506040513d601f19601f8201168201806040525081019061099a91906126c4565b6040516370a0823160e01b81523060048201529091506000906001600160a01b038316906370a0823190602401602060405180830381865afa1580156109e4573d6000803e3d6000fd5b505050506040513d601f19601f82011682018060405250810190610a0891906126ab565b90508015610beb5780878481518110610a2357610a236126e1565b6020026020010151600081518110610a3d57610a3d6126e1565b60209081029190910101516060015260405163095ea7b360e01b815273ba12222222228d8ba445958a75a0704d566bf2c86004820152602481018290526001600160a01b0383169063095ea7b3906044016020604051808303816000875af1158015610aad573d6000803e3d6000fd5b505050506040513d601f19601f82011682018060405250810190610ad19190612533565b5073ba12222222228d8ba445958a75a0704d566bf2c86001600160a01b031663945bcec96000898681518110610b0957610b096126e1565b6020026020010151898781518110610b2357610b236126e1565b60200260200101516040518060800160405280306001600160a01b03168152602001600015158152602001306001600160a01b03168152602001600015158152508a8981518110610b7657610b766126e1565b60200260200101516000196040518763ffffffff1660e01b8152600401610ba296959493929190612730565b6000604051808303816000875af1158015610bc1573d6000803e3d6000fd5b505050506040513d6000823e601f3d908101601f19168201604052610be99190810190612860565b505b50508080610bf8906128f0565b9150506108ae565b506000806000610c0e6116e8565b92509250925060005b8351811015610dc557838181518110610c3257610c326126e1565b60209081029190910101516040516370a0823160e01b81523060048201526001600160a01b03909116906370a0823190602401602060405180830381865afa158015610c82573d6000803e3d6000fd5b505050506040513d601f19601f82011682018060405250810190610ca691906126ab565b828281518110610cb857610cb86126e1565b6020026020010181815250506000828281518110610cd857610cd86126e1565b60200260200101511115610db357838181518110610cf857610cf86126e1565b60200260200101516001600160a01b031663095ea7b373ba12222222228d8ba445958a75a0704d566bf2c8848481518110610d3557610d356126e1565b60200260200101516040518363ffffffff1660e01b8152600401610d6e9291906001600160a01b03929092168252602082015260400190565b6020604051808303816000875af1158015610d8d573d6000803e3d6000fd5b505050506040513d601f19601f82011682018060405250810190610db19190612533565b505b80610dbd816128f0565b915050610c17565b5073ba12222222228d8ba445958a75a0704d566bf2c86001600160a01b031663b95cac28603654303060405180608001604052808881526020018781526020016001886001604051602001610e1c9392919061290b565b6040516020818303038152906040528152602001600015158152506040518563ffffffff1660e01b8152600401610e56949392919061266f565b600060405180830381600087803b158015610e7057600080fd5b505af1158015610e84573d6000803e3d6000fd5b50506035546040516370a0823160e01b81523060048201526001600160a01b0390911692506370a082319150602401602060405180830381865afa158015610ed0573d6000803e3d6000fd5b505050506040513d601f19601f82011682018060405250810190610ef491906126ab565b93508315610f72578360416000828254610f0e919061293a565b909155505060335460405163b6b55f2560e01b8152600481018690526001600160a01b039091169063b6b55f2590602401600060405180830381600087803b158015610f5957600080fd5b505af1158015610f6d573d6000803e3d6000fd5b505050505b603b54610f7f9043612952565b603c819055610f9f908590610f94904361293a565b603a91909155603955565b505043603b5550600180559392505050565b600060026001541415610fd65760405162461bcd60e51b8152600401610231906124c5565b60026001556044546001600160a01b031633146110055760405162461bcd60e51b8152600401610231906124fc565b6000806110106116e8565b50915091506000805b83518110156111c057838181518110611034576110346126e1565b60200260200101516001600160a01b0316888281518110611057576110576126e1565b60200260200101516001600160a01b0316146110b55760405162461bcd60e51b815260206004820152601c60248201527f544f4b454e535f4e4f545f4d415443485f504f4f4c5f544f4b454e53000000006044820152606401610231565b60008982815181106110c9576110c96126e1565b602002602001015111156111ae57816110e157600191505b8381815181106110f3576110f36126e1565b60200260200101516001600160a01b031663095ea7b373ba12222222228d8ba445958a75a0704d566bf2c88b8481518110611130576111306126e1565b60200260200101516040518363ffffffff1660e01b81526004016111699291906001600160a01b03929092168252602082015260400190565b6020604051808303816000875af1158015611188573d6000803e3d6000fd5b505050506040513d601f19601f820116820180604052508101906111ac9190612533565b505b806111b8816128f0565b915050611019565b50801561129057600060405180608001604052808481526020018a815260200160018b60006040516020016111f79392919061290b565b604051602081830303815290604052815260200160001515815250905073ba12222222228d8ba445958a75a0704d566bf2c86001600160a01b031663b95cac286036543030856040518563ffffffff1660e01b815260040161125c949392919061266f565b600060405180830381600087803b15801561127657600080fd5b505af115801561128a573d6000803e3d6000fd5b50505050505b6035546040516370a0823160e01b81523060048201526000916001600160a01b0316906370a0823190602401602060405180830381865afa1580156112d9573d6000803e3d6000fd5b505050506040513d601f19601f820116820180604052508101906112fd91906126ab565b9050611309878261293a565b9450600085116113535760405162461bcd60e51b81526020600482015260156024820152741393d7d3125455525112551657d41493d592511151605a1b6044820152606401610231565b61135d85876118ef565b60335460405163b6b55f2560e01b8152600481018790526001600160a01b039091169063b6b55f2590602401600060405180830381600087803b1580156113a357600080fd5b505af11580156113b7573d6000803e3d6000fd5b50506001805550949998505050505050505050565b6044546001600160a01b031633146113f65760405162461bcd60e51b8152600401610231906124fc565b438111610f945760405162461bcd60e51b815260206004820152600b60248201526a57524f4e475f424c4f434b60a81b6044820152606401610231565b61143c81611b9b565b6000611446611d27565b905060006042548260415461145b9190612484565b611465919061293a565b905060006114738386612484565b61147d9083612952565b6001600160a01b0385166000908152603d60205260408120805492935087929091906114aa908490612952565b9250508190555084604160008282546114c39190612952565b9091555050603a5482906114d8908390612484565b6114e291906124a3565b603a556001600160a01b0384166000908152603d6020526040902054611549576001600160a01b0384166000908152603860205260409020546037546115289190612952565b6037555050506001600160a01b031660009081526038602052604081205550565b6037546001600160a01b0385166000908152603860205260409020541415611572575050505050565b6001600160a01b0384166000908152603e6020908152604080832054603d9092528220546115a1908690612484565b6115ab919061293a565b905060008282603a546115be9190612484565b6115c891906124a3565b90506000603a546041546115dc919061293a565b6001600160a01b0388166000908152603d602052604090205461160090849061293a565b61161290670de0b6b3a7640000612484565b61161c91906124a3565b9050600061163282670de0b6b3a7640000612952565b670de0b6b3a7640000603754846116499190612484565b61165391906124a3565b6001600160a01b038a166000908152603860205260409020546116769190612952565b61168890670de0b6b3a7640000612484565b61169291906124a3565b6001600160a01b0389166000908152603860205260408120805492935083929091906116bf908490612952565b9250508190555080603760008282546116d89190612952565b9091555050505050505050505050565b603654604051631f29a8cd60e31b81526060918291829173ba12222222228d8ba445958a75a0704d566bf2c89163f94d46689161172b9160040190815260200190565b600060405180830381865afa158015611748573d6000803e3d6000fd5b505050506040513d6000823e601f3d908101601f1916820160405261177091908101906129c4565b505080519093506001600160401b0381111561178e5761178e611e36565b6040519080825280602002602001820160405280156117b7578160200160208202803683370190505b50915082516001600160401b038111156117d3576117d3611e36565b6040519080825280602002602001820160405280156117fc578160200160208202803683370190505b50905060005b83518110156118615783818151811061181d5761181d6126e1565b6020026020010151838281518110611837576118376126e1565b6001600160a01b039092166020928302919091019091015280611859816128f0565b915050611802565b50909192565b60008054610100900460ff16156118ae578160ff16600114801561188a5750303b155b6118a65760405162461bcd60e51b815260040161023190612a91565b506000919050565b60005460ff8084169116106118d55760405162461bcd60e51b815260040161023190612a91565b506000805460ff191660ff92909216919091179055600190565b6118f881611b9b565b6000611902611d27565b90506000604254826041546119179190612484565b611921919061293a565b90506000816119308487612484565b61193a919061293a565b6001600160a01b0385166000908152603d602052604081208054929350879290919061196790849061293a565b925050819055508460416000828254611980919061293a565b909155505081156119a8578181603a5461199a9190612484565b6119a491906124a3565b603a555b603754611a0c576001600160a01b03841660009081526038602052604081208054670de0b6b3a764000092906119df90849061293a565b92505081905550670de0b6b3a764000060376000828254611a00919061293a565b90915550505050505050565b6037546001600160a01b0385166000908152603860205260409020541415611a35575050505050565b6001600160a01b0384166000908152603e6020908152604080832054603d909252822054611a64908690612484565b611a6e919061293a565b905060008282603a54611a819190612484565b611a8b91906124a3565b90506000603a54604154611a9f919061293a565b6001600160a01b0388166000908152603d6020526040902054611ac390849061293a565b611ad590670de0b6b3a7640000612484565b611adf91906124a3565b90506000611af582670de0b6b3a7640000612952565b6001600160a01b038916600090815260386020526040902054603754670de0b6b3a764000090611b259086612484565b611b2f91906124a3565b611b399190612952565b611b4b90670de0b6b3a7640000612484565b611b5591906124a3565b6001600160a01b038916600090815260386020526040812080549293508392909190611b8290849061293a565b9250508190555080603760008282546116d8919061293a565b6001600160a01b038116600090815260406020818152818320603b548452905290205460ff1615611c32576001600160a01b0381166000908152603d6020908152604080832054603f90925290912054611bf59043612952565b611bff9190612484565b6001600160a01b0382166000908152603e602052604081208054909190611c2790849061293a565b90915550611ca69050565b611c3b8161017a565b6001600160a01b0382166000908152603d60205260409020819055603b54611c639043612952565b611c6d9190612484565b6001600160a01b0382166000908152603e6020908152604080832093909355828152828220603b548352905220805460ff191660011790555b603b546043541115611ce857604154604354611cc29043612952565b611ccc9190612484565b60426000828254611cdd919061293a565b90915550611d069050565b604154603b54611cf89043612952565b611d029190612484565b6042555b6001600160a01b03166000908152603f602052604090204390819055604355565b6000436039541115611d465743603954611d419190612952565b905090565b6002603c54611d4191906124a3565b6001600160a01b0381168114611d6a57600080fd5b50565b803561020981611d55565b600060208284031215611d8a57600080fd5b8135611d9581611d55565b9392505050565b8015158114611d6a57600080fd5b60008060008060808587031215611dc057600080fd5b8435611dcb81611d55565b9350602085013592506040850135611de281611d9c565b91506060850135611df281611d55565b939692955090935050565b60008060408385031215611e1057600080fd5b8235611e1b81611d55565b91506020830135611e2b81611d55565b809150509250929050565b634e487b7160e01b600052604160045260246000fd5b60405160a081016001600160401b0381118282101715611e6e57611e6e611e36565b60405290565b604051601f8201601f191681016001600160401b0381118282101715611e9c57611e9c611e36565b604052919050565b60006001600160401b03821115611ebd57611ebd611e36565b5060051b60200190565b600082601f830112611ed857600080fd5b81356020611eed611ee883611ea4565b611e74565b828152600592831b8501820192828201919087851115611f0c57600080fd5b8387015b85811015611fab5780356001600160401b03811115611f2f5760008081fd5b8801603f81018a13611f415760008081fd5b858101356040611f53611ee883611ea4565b82815291851b8301810191888101908d841115611f705760008081fd5b938201935b83851015611f9a5784359250611f8a83611d55565b8282529389019390890190611f75565b885250505093850193508401611f10565b5090979650505050505050565b600082601f830112611fc957600080fd5b81356020611fd9611ee883611ea4565b828152600592831b8501820192828201919087851115611ff857600080fd5b8387015b85811015611fab5780356001600160401b0381111561201b5760008081fd5b8801603f81018a1361202d5760008081fd5b85810135604061203f611ee883611ea4565b82815291851b8301810191888101908d84111561205c5760008081fd5b938201935b8385101561207a57843582529389019390890190612061565b885250505093850193508401611ffc565b6000806000606084860312156120a057600080fd5b6001600160401b03843511156120b557600080fd5b8335840185601f8201126120c857600080fd5b6120d5611ee88235611ea4565b81358082526020808301929160051b8401018810156120f357600080fd5b602083015b6020843560051b8501018110156122ab576001600160401b038135111561211e57600080fd5b88603f82358601011261213057600080fd5b612143611ee86020833587010135611ea4565b81358501602081810135808452908301929160059190911b016040018b101561216b57600080fd5b604083358701015b83358701602081013560051b0160400181101561229b576001600160401b038135111561219f57600080fd5b8335870181350160a0818e03603f190112156121ba57600080fd5b6121c2611e4c565b60408201358152606082013560208201526080820135604082015260a082013560608201526001600160401b0360c083013511156121ff57600080fd5b8d605f60c08401358401011261221457600080fd5b604060c0830135830101356001600160401b0381111561223657612236611e36565b612249601f8201601f1916602001611e74565b8181528f60608360c087013587010101111561226457600080fd5b81606060c0860135860101602083013760006020838301015280608084015250508085525050602083019250602081019050612173565b50845250602092830192016120f8565b50945050506001600160401b03602085013511156122c857600080fd5b6122d88560208601358601611ec7565b91506001600160401b03604085013511156122f257600080fd5b6123028560408601358601611fb8565b90509250925092565b600082601f83011261231c57600080fd5b8135602061232c611ee883611ea4565b82815260059290921b8401810191818101908684111561234b57600080fd5b8286015b8481101561236f57803561236281611d55565b835291830191830161234f565b509695505050505050565b6000806000806080858703121561239057600080fd5b84356001600160401b03808211156123a757600080fd5b818701915087601f8301126123bb57600080fd5b813560206123cb611ee883611ea4565b82815260059290921b8401810191818101908b8411156123ea57600080fd5b948201945b83861015612408578535825294820194908201906123ef565b9850508801359250508082111561241e57600080fd5b5061242b8782880161230b565b9350506040850135915061244160608601611d6d565b905092959194509250565b6000806040838503121561245f57600080fd5b50508035926020909101359150565b634e487b7160e01b600052601160045260246000fd5b600081600019048311821515161561249e5761249e61246e565b500290565b6000826124c057634e487b7160e01b600052601260045260246000fd5b500490565b6020808252601f908201527f5265656e7472616e637947756172643a207265656e7472616e742063616c6c00604082015260600190565b60208082526017908201527f43414c4c45525f4e4f545f41535345545f524f55544552000000000000000000604082015260600190565b60006020828403121561254557600080fd5b8151611d9581611d9c565b600081518084526020808501945080840160005b8381101561258057815187529582019590820190600101612564565b509495945050505050565b6000815180845260005b818110156125b157602081850181015186830182015201612595565b818111156125c3576000602083870101525b50601f01601f19169290920160200192915050565b8051608080845281519084018190526000916020919082019060a0860190845b8181101561261d5783516001600160a01b0316835292840192918401916001016125f8565b5050828501519150858103838701526126368183612550565b9250505060408301518482036040860152612651828261258b565b9150506060830151612667606086018215159052565b509392505050565b8481526001600160a01b038481166020830152831660408201526080606082018190526000906126a1908301846125d8565b9695505050505050565b6000602082840312156126bd57600080fd5b5051919050565b6000602082840312156126d657600080fd5b8151611d9581611d55565b634e487b7160e01b600052603260045260246000fd5b600081518084526020808501945080840160005b838110156125805781516001600160a01b03168752958201959082019060010161270b565b600061012080830160028a1061275657634e487b7160e01b600052602160045260246000fd5b89845260208085019290925288519081905261014080850192600583901b8601909101918a820160005b828110156127e35787850361013f190186528151805186528481015185870152604080820151908701526060808201519087015260809081015160a0918701829052906127cf8188018361258b565b978601979650505090830190600101612780565b5050505083810360408501526127f981896126f7565b915050612839606084018780516001600160a01b039081168352602080830151151590840152604080830151909116908301526060908101511515910152565b82810360e084015261284b8186612550565b91505082610100830152979650505050505050565b6000602080838503121561287357600080fd5b82516001600160401b0381111561288957600080fd5b8301601f8101851361289a57600080fd5b80516128a8611ee882611ea4565b81815260059190911b820183019083810190878311156128c757600080fd5b928401925b828410156128e5578351825292840192908401906128cc565b979650505050505050565b60006000198214156129045761290461246e565b5060010190565b60ff841681526060602082015260006129276060830185612550565b905060ff83166040830152949350505050565b6000821982111561294d5761294d61246e565b500190565b6000828210156129645761296461246e565b500390565b600082601f83011261297a57600080fd5b8151602061298a611ee883611ea4565b82815260059290921b840181019181810190868411156129a957600080fd5b8286015b8481101561236f57805183529183019183016129ad565b6000806000606084860312156129d957600080fd5b83516001600160401b03808211156129f057600080fd5b818601915086601f830112612a0457600080fd5b81516020612a14611ee883611ea4565b82815260059290921b8401810191818101908a841115612a3357600080fd5b948201945b83861015612a5a578551612a4b81611d55565b82529482019490820190612a38565b91890151919750909350505080821115612a7357600080fd5b50612a8086828701612969565b925050604084015190509250925092565b6020808252602e908201527f496e697469616c697a61626c653a20636f6e747261637420697320616c72656160408201526d191e481a5b9a5d1a585b1a5e995960921b60608201526080019056fea264697066735822122012464ec575daacf8a96d6c7a1ccee93234fe75780dcc3e5dad21f26e7ea7e24164736f6c634300080a0033",
  "immutableReferences": {},
  "source": "// SPDX-License-Identifier: MIT\r\npragma solidity 0.8.10;\r\n \r\nimport '../../interfaces/IWMATIC.sol';\r\nimport \"../../interfaces/IVault.sol\";\r\nimport \"../../interfaces/IBasePool.sol\";\r\nimport '../../interfaces/IChildChainLiquidityGaugeFactory.sol';\r\nimport \"../../interfaces/IRewardsOnlyGauge.sol\"; \r\nimport \"../../interfaces/IChildChainStreamer.sol\"; \r\nimport '@openzeppelin/contracts-upgradeable/security/ReentrancyGuardUpgradeable.sol';\r\nimport '@openzeppelin/contracts-upgradeable/proxy/utils/Initializable.sol';\r\n\r\ncontract UnoFarmBalancer is Initializable, ReentrancyGuardUpgradeable {\r\n    /**\r\n     * @dev Third Party Contracts:\r\n     * {Vault} - Main Balancer contract used for pool exits/joins and swaps.\r\n     * {GaugeFactory} - Contract that deploys gauges.\r\n     * {gauge} - Contract that distributes reward tokens.\r\n     * {streamer} - Contract reward tokens get sent to from the bridge.\r\n     */   \r\n    IVault constant private Vault = IVault(0xBA12222222228d8Ba445958a75a0704d566BF2C8);\r\n    IChildChainLiquidityGaugeFactory constant private GaugeFactory = IChildChainLiquidityGaugeFactory(0x3b8cA519122CdD8efb272b0D3085453404B25bD0);\r\n    IRewardsOnlyGauge private gauge;\r\n    IChildChainStreamer private streamer;\r\n\r\n    /**\r\n     * @dev Contract Variables:\r\n     * {lpPair} - Pair / pool.\r\n     * {poolId} - Bytes32 representation of the {lpPair}.\r\n\r\n     * {totalShares} - Total shares.\r\n     * {sharesOf} - User shares. Represents what share of this pool the user owns.\r\n\r\n     * {expectedRewardBlock} - Block on which the next distribution is expected to be called.\r\n     * {expectedReward} - Expected reward which will be produced by the next distribution.\r\n     \r\n     * {lastRewardBlock} - Last reward block. Updates every distribution.\r\n     * {lastDistributionPeriod} - Last distribution period. Is used to approximate next reward block.\r\n\r\n     * {userDeposit} - Deposits made by users.\r\n     * {userDepositAge} - Deposit multiplied by blocks the deposit has been in. Flushes every reward distribution.\r\n     * {userDALastUpdated} - Last deposit age calculation block for user.\r\n     * {userDepositChanged} - 'true' if user has made deposit this distribution period. Flushes every reward distribution.\r\n     \r\n     * {totalDeposits} - Total deposits made by users.\r\n     * {totalDepositAge} - Deposits multiplied by blocks the deposit has been in. Flushes every reward distribution.\r\n     * {totalDALastUpdated} - Last deposit age calculation block.\r\n\r\n     * {fractionMultiplier} - Used as multiplier to store decimal values.\r\n     */\r\n    address public lpPair;\r\n    bytes32 public poolId;\r\n\r\n    uint256 private totalShares;\r\n    mapping(address => uint256) private sharesOf;\r\n\r\n    uint256 private expectedRewardBlock;\r\n    uint256 private expectedReward;\r\n\r\n    uint256 private lastRewardBlock;\r\n    uint256 private lastDistributionPeriod;\r\n\r\n    mapping(address => uint256) private userDeposit;\r\n    mapping(address => uint256) private userDepositAge;\r\n    mapping(address => uint256) private userDALastUpdated;\r\n    mapping(address => mapping(uint256 => bool)) private userDepositChanged;\r\n\r\n    uint256 public totalDeposits;\r\n    uint256 private totalDepositAge;\r\n    uint256 private totalDALastUpdated;\r\n\r\n    uint256 private constant fractionMultiplier = 10**18;\r\n\r\n    /**\r\n     * @dev Contract Variables:\r\n     * {assetRouter} - The contract from which calls to this farm are made.\r\n     */\r\n    address public assetRouter;\r\n    modifier onlyAssetRouter(){\r\n        require(msg.sender == assetRouter, 'CALLER_NOT_ASSET_ROUTER');\r\n        _;\r\n    }\r\n\r\n    // ============ Methods ============\r\n\r\n    function initialize(address _lpPair, address _assetRouter) external initializer {\r\n        assetRouter = _assetRouter;\r\n\r\n        lpPair = _lpPair;\r\n        poolId = IBasePool(_lpPair).getPoolId();\r\n\r\n        gauge = IRewardsOnlyGauge(GaugeFactory.getPoolGauge(_lpPair));\r\n        streamer = IChildChainStreamer(GaugeFactory.getPoolStreamer(_lpPair));\r\n\r\n        IERC20(_lpPair).approve(address(Vault), uint256(2**256 - 1));\r\n        IERC20(_lpPair).approve(address(gauge), uint256(2**256 - 1));\r\n        \r\n        lastRewardBlock = block.number;\r\n        lastDistributionPeriod = 1200000; // This is somewhere around 1 month at the time of writing this contract.\r\n    }\r\n\r\n    /**\r\n     * @dev Function that makes the deposits.\r\n     * Deposits {amounts} of {tokens} from this contract's balance to the {Vault}.\r\n     */\r\n    function deposit(uint256[] memory amounts, address[] memory tokens, uint256 amountLP, address recipient) external nonReentrant onlyAssetRouter returns(uint256 liquidity){\r\n        (IERC20[] memory poolTokens, IAsset[] memory assets,) = getTokens();\r\n\r\n        bool joinPool = false;\r\n        for (uint256 i = 0; i < poolTokens.length; i++) {\r\n            require (IERC20(tokens[i]) == poolTokens[i], 'TOKENS_NOT_MATCH_POOL_TOKENS');\r\n            if(amounts[i] > 0){\r\n                if(!joinPool){\r\n                    joinPool = true;\r\n                }\r\n                poolTokens[i].approve(address(Vault), amounts[i]);\r\n            }\r\n        }\r\n\r\n        if(joinPool){\r\n            IVault.JoinPoolRequest memory joinPoolRequest = IVault.JoinPoolRequest(assets, amounts, abi.encode(1, amounts, 0), false);\r\n            Vault.joinPool(poolId, address(this), address(this), joinPoolRequest);\r\n        }\r\n        uint256 addedLiquidity = IERC20(lpPair).balanceOf(address(this));\r\n\r\n        liquidity = addedLiquidity + amountLP; \r\n        require (liquidity > 0, 'NO_LIQUIDITY_PROVIDED');\r\n        \r\n        _mint(liquidity, recipient);\r\n\r\n        gauge.deposit(liquidity);\r\n    }\r\n\r\n    /**\r\n     * @dev Withdraws funds from {origin} and sends them to the {recipient}.\r\n     */\r\n    function withdraw(address origin, uint256 amount, bool withdrawLP, address recipient) external nonReentrant onlyAssetRouter{\r\n        require(amount > 0, 'INSUFFICIENT_AMOUNT');\r\n\r\n        _burn(amount, origin);\r\n\r\n        gauge.withdraw(amount);\r\n        if(withdrawLP){\r\n            IERC20(lpPair).transfer(recipient, amount);\r\n            return;\r\n        }\r\n\r\n        (, IAsset[] memory assets, uint256[] memory amounts) = getTokens();\r\n        Vault.exitPool(poolId, address(this), payable(recipient), IVault.ExitPoolRequest(assets, amounts, abi.encode(1, amount), false));\r\n    }\r\n\r\n    /**\r\n     * @dev Core function of the strat, in charge of updating, collecting and re-investing rewards.\r\n     * 1. It claims rewards from the {gauge}.\r\n     * 2. It swaps reward tokens for {tokens}.\r\n     * 3. It deposits new tokens back to the {gauge}.\r\n     */\r\n    function distribute(\r\n        IVault.BatchSwapStep[][] memory swaps,\r\n        IAsset[][] memory assets,\r\n        int256[][] memory limits\r\n    ) external onlyAssetRouter nonReentrant returns(uint256 reward){\r\n        require(totalDeposits > 0, 'NO_LIQUIDITY');\r\n\r\n        gauge.claim_rewards();\r\n\r\n        for (uint256 i = 0; i < streamer.reward_count(); i++) {\r\n            IERC20 rewardToken = IERC20(streamer.reward_tokens(i));\r\n            uint256 rewardTokenBalance = rewardToken.balanceOf(address(this));\r\n            if (rewardTokenBalance > 0) {\r\n                swaps[i][0].amount = rewardTokenBalance;\r\n                rewardToken.approve(address(Vault), rewardTokenBalance);\r\n                Vault.batchSwap(\r\n                    IVault.SwapKind.GIVEN_IN,\r\n                    swaps[i],\r\n                    assets[i],\r\n                    IVault.FundManagement({sender: address(this), fromInternalBalance:false, recipient: payable(address(this)), toInternalBalance:false}),\r\n                    limits[i],\r\n                    uint256(2**256 - 1)\r\n                );\r\n            }\r\n        }\r\n\r\n        (IERC20[] memory tokens, IAsset[] memory joinAssets, uint256[] memory joinAmounts) = getTokens();\r\n        for (uint256 i = 0; i < tokens.length; i++) {\r\n            joinAmounts[i] = tokens[i].balanceOf(address(this));\r\n            if (joinAmounts[i] > 0){\r\n                tokens[i].approve(address(Vault), joinAmounts[i]);\r\n            }\r\n        }\r\n        \r\n        Vault.joinPool(poolId, address(this), address(this), IVault.JoinPoolRequest(joinAssets, joinAmounts, abi.encode(1, joinAmounts, 1), false));\r\n        reward = IERC20(lpPair).balanceOf(address(this));\r\n\r\n        if (reward > 0) {\r\n            totalDeposits += reward;\r\n            gauge.deposit(reward);\r\n        }\r\n\r\n        lastDistributionPeriod = block.number - lastRewardBlock;\r\n        _setExpectedReward(reward, block.number + lastDistributionPeriod);\r\n        lastRewardBlock = block.number;\r\n    }\r\n\r\n    /**\r\n     * @dev Sets {expectedReward} and {expectedRewardBlock} for token distribution calculation.\r\n     */\r\n    function setExpectedReward(uint256 _amount, uint256 _block) external onlyAssetRouter{\r\n        require(_block > block.number, 'WRONG_BLOCK');\r\n        _setExpectedReward(_amount, _block);\r\n    }\r\n\r\n\r\n    /**\r\n     * @dev Returns total funds staked by the {_address}.\r\n     */\r\n    function userBalance(address _address) public view returns (uint256) {\r\n        if (userDepositChanged[_address][lastRewardBlock]) {\r\n            return userDeposit[_address];\r\n        } else {\r\n            if (totalShares == 0) {\r\n                return 0;\r\n            }\r\n            return totalDeposits * sharesOf[_address] / totalShares;\r\n        }\r\n    }\r\n    \r\n    function _mint(uint256 amount, address _address) internal {\r\n        _updateDeposit(_address);\r\n        uint256 blocksTillReward = getBlocksTillReward();\r\n        // Total deposit age we expected by the end of distribution period before this deposit.\r\n        uint256 totalExpectedDepositAgePrev = totalDeposits * blocksTillReward + totalDepositAge;\r\n        // New expected total deposit age.\r\n        uint256 totalExpectedDepositAge = amount * blocksTillReward + totalExpectedDepositAgePrev;\r\n        // Update deposit amounts.\r\n        userDeposit[_address] += amount;\r\n        totalDeposits += amount;\r\n        // Expected reward will increase proportionally to the increase of total expected deposit age.\r\n        if (totalExpectedDepositAgePrev > 0) {\r\n            expectedReward = expectedReward * totalExpectedDepositAge / totalExpectedDepositAgePrev;\r\n        }\r\n\r\n        if (totalShares == 0) {\r\n            sharesOf[_address] += fractionMultiplier;\r\n            totalShares += fractionMultiplier;\r\n            return;\r\n        }\r\n        if (sharesOf[_address] == totalShares) {\r\n            // Don't do anything if the user owns 100% of the pool.\r\n            return;\r\n        }\r\n        // User's new expected deposit age by the end of distribution period.\r\n        uint256 userExpectedDepositAge = userDeposit[_address] * blocksTillReward + userDepositAge[_address];\r\n        // User's expected reward by the end of distribution period.\r\n        uint256 userExpectedReward = expectedReward * userExpectedDepositAge / totalExpectedDepositAge;\r\n        // User's estimated share after the next reward.\r\n        uint256 userNewShare = fractionMultiplier * (userDeposit[_address] + userExpectedReward) / (totalDeposits + expectedReward);\r\n        // Amount of shares to mint.\r\n        uint256 mintAmount = fractionMultiplier * (userNewShare * totalShares / fractionMultiplier - sharesOf[_address]) / (fractionMultiplier - userNewShare);\r\n\r\n        sharesOf[_address] += mintAmount;\r\n        totalShares += mintAmount;\r\n    }\r\n\r\n    function _burn(uint256 amount, address _address) internal {\r\n        _updateDeposit(_address);\r\n        uint256 blocksTillReward = getBlocksTillReward();\r\n        // Total deposit age we expected by the end of distribution period before this withdrawal.\r\n        uint256 totalExpectedDepositAgePrev = totalDeposits * blocksTillReward + totalDepositAge;\r\n        // New expected total deposit age.\r\n        uint256 totalExpectedDepositAge = totalExpectedDepositAgePrev - amount * blocksTillReward;\r\n        // Update deposit amounts.\r\n        userDeposit[_address] -= amount;\r\n        totalDeposits -= amount;\r\n        // Expected reward will decrease proportionally to the decrease of total expected deposit age.\r\n        expectedReward = expectedReward * totalExpectedDepositAge / totalExpectedDepositAgePrev;\r\n\r\n        if(userDeposit[_address] == 0){\r\n            totalShares = totalShares - sharesOf[_address];\r\n            sharesOf[_address] = 0;\r\n            return;\r\n        }\r\n        if (sharesOf[_address] == totalShares) {\r\n            // Don't do anything if the user owns 100% of the pool.\r\n            return;\r\n        }\r\n        // User's new expected deposit age by the end of distribution period.\r\n        uint256 userExpectedDepositAge = userDeposit[_address] * blocksTillReward + userDepositAge[_address];\r\n        // User's expected reward by the end of distribution period.\r\n        uint256 userExpectedReward = expectedReward * userExpectedDepositAge / totalExpectedDepositAge;\r\n        // User's estimated share after the next reward.\r\n        uint256 userNewShare = fractionMultiplier * (userDeposit[_address] + userExpectedReward) / (totalDeposits + expectedReward);\r\n        // Amount of shares to burn.\r\n        uint256 burnAmount = fractionMultiplier * (sharesOf[_address] - userNewShare * totalShares / fractionMultiplier) / (fractionMultiplier - userNewShare);\r\n        \r\n        sharesOf[_address] -= burnAmount;\r\n        totalShares -= burnAmount;\r\n    }\r\n\r\n    function _updateDeposit(address _address) internal {\r\n        // Accumulate deposit age within the current distribution period.\r\n        if (userDepositChanged[_address][lastRewardBlock]) {\r\n            // Add deposit age from previous deposit age update to now.\r\n            userDepositAge[_address] += (block.number - userDALastUpdated[_address]) * userDeposit[_address];\r\n        } else {\r\n            // A reward has been distributed, update user deposit.\r\n            userDeposit[_address] = userBalance(_address);\r\n            // Count fresh deposit age from previous reward distribution to now.\r\n            userDepositAge[_address] = (block.number - lastRewardBlock) * userDeposit[_address];\r\n            userDepositChanged[_address][lastRewardBlock] = true;\r\n        }\r\n        // Same with total deposit age.\r\n        if (totalDALastUpdated > lastRewardBlock) {\r\n            totalDepositAge += (block.number - totalDALastUpdated) * totalDeposits;\r\n        } else {\r\n            totalDepositAge = (block.number - lastRewardBlock) * totalDeposits;\r\n        }\r\n\r\n        userDALastUpdated[_address] = block.number;\r\n        totalDALastUpdated = block.number;\r\n    }\r\n\r\n    function getBlocksTillReward() internal view returns(uint256 blocksTillReward) {\r\n        if(expectedRewardBlock > block.number){\r\n            blocksTillReward = expectedRewardBlock - block.number;\r\n        } else {\r\n            blocksTillReward = lastDistributionPeriod / 2;\r\n        }\r\n    }\r\n\r\n    function _setExpectedReward(uint256 _amount, uint256 _block) internal {\r\n        expectedReward = _amount;\r\n        expectedRewardBlock = _block;\r\n    }\r\n\r\n    /**\r\n     * @dev Utility function used to create IAsset array.\r\n     */ \r\n    function getTokens() internal view returns(IERC20[] memory tokens, IAsset[] memory assets, uint256[] memory amounts){\r\n        (tokens, , ) = Vault.getPoolTokens(poolId);\r\n        assets = new IAsset[](tokens.length);\r\n        amounts = new uint256[](tokens.length);\r\n        for (uint256 i = 0; i < tokens.length; i++) {\r\n            assets[i] = IAsset(address(tokens[i]));\r\n        }\r\n    }\r\n}\r\n",
  "sourcePath": "C:\\Users\\jugli\\Desktop\\uno\\uno-contracts-branch\\contracts\\apps\\balancer\\UnoFarmBalancer.sol",
  "compiler": {
    "name": "solc",
    "version": "0.8.10+commit.fc410830.Emscripten.clang"
  },
  "schemaVersion": "3.4.7",
  "updatedAt": "2022-05-24T13:06:18.194Z",
  "networkType": "ethereum",
  "devdoc": {
    "kind": "dev",
    "methods": {
      "deposit(uint256[],address[],uint256,address)": {
        "details": "Function that makes the deposits. Deposits {amounts} of {tokens} from this contract's balance to the {Vault}."
      },
      "distribute((bytes32,uint256,uint256,uint256,bytes)[][],address[][],int256[][])": {
        "details": "Core function of the strat, in charge of updating, collecting and re-investing rewards. 1. It claims rewards from the {gauge}. 2. It swaps reward tokens for {tokens}. 3. It deposits new tokens back to the {gauge}."
      },
      "setExpectedReward(uint256,uint256)": {
        "details": "Sets {expectedReward} and {expectedRewardBlock} for token distribution calculation."
      },
      "userBalance(address)": {
        "details": "Returns total funds staked by the {_address}."
      },
      "withdraw(address,uint256,bool,address)": {
        "details": "Withdraws funds from {origin} and sends them to the {recipient}."
      }
    },
    "stateVariables": {
      "Vault": {
        "details": "Third Party Contracts: {Vault} - Main Balancer contract used for pool exits/joins and swaps. {GaugeFactory} - Contract that deploys gauges. {gauge} - Contract that distributes reward tokens. {streamer} - Contract reward tokens get sent to from the bridge."
      },
      "assetRouter": {
        "details": "Contract Variables: {assetRouter} - The contract from which calls to this farm are made."
      },
      "lpPair": {
        "details": "Contract Variables: {lpPair} - Pair / pool. {poolId} - Bytes32 representation of the {lpPair}. {totalShares} - Total shares. {sharesOf} - User shares. Represents what share of this pool the user owns. {expectedRewardBlock} - Block on which the next distribution is expected to be called. {expectedReward} - Expected reward which will be produced by the next distribution. {lastRewardBlock} - Last reward block. Updates every distribution. {lastDistributionPeriod} - Last distribution period. Is used to approximate next reward block. {userDeposit} - Deposits made by users. {userDepositAge} - Deposit multiplied by blocks the deposit has been in. Flushes every reward distribution. {userDALastUpdated} - Last deposit age calculation block for user. {userDepositChanged} - 'true' if user has made deposit this distribution period. Flushes every reward distribution. {totalDeposits} - Total deposits made by users. {totalDepositAge} - Deposits multiplied by blocks the deposit has been in. Flushes every reward distribution. {totalDALastUpdated} - Last deposit age calculation block. {fractionMultiplier} - Used as multiplier to store decimal values."
      }
    },
    "version": 1
  },
  "userdoc": {
    "kind": "user",
    "methods": {},
    "version": 1
  }
}