{
  "contractName": "UnoFarmPancakeswap",
  "abi": [
    {
      "anonymous": false,
      "inputs": [
        {
          "indexed": false,
          "internalType": "uint8",
          "name": "version",
          "type": "uint8"
        }
      ],
      "name": "Initialized",
      "type": "event"
    },
    {
      "inputs": [],
      "name": "assetRouter",
      "outputs": [
        {
          "internalType": "address",
          "name": "",
          "type": "address"
        }
      ],
      "stateMutability": "view",
      "type": "function"
    },
    {
      "inputs": [],
      "name": "lpPair",
      "outputs": [
        {
          "internalType": "address",
          "name": "",
          "type": "address"
        }
      ],
      "stateMutability": "view",
      "type": "function"
    },
    {
      "inputs": [],
      "name": "pid",
      "outputs": [
        {
          "internalType": "uint256",
          "name": "",
          "type": "uint256"
        }
      ],
      "stateMutability": "view",
      "type": "function"
    },
    {
      "inputs": [],
      "name": "rewardToken",
      "outputs": [
        {
          "internalType": "address",
          "name": "",
          "type": "address"
        }
      ],
      "stateMutability": "view",
      "type": "function"
    },
    {
      "inputs": [],
      "name": "tokenA",
      "outputs": [
        {
          "internalType": "address",
          "name": "",
          "type": "address"
        }
      ],
      "stateMutability": "view",
      "type": "function"
    },
    {
      "inputs": [],
      "name": "tokenB",
      "outputs": [
        {
          "internalType": "address",
          "name": "",
          "type": "address"
        }
      ],
      "stateMutability": "view",
      "type": "function"
    },
    {
      "inputs": [
        {
          "internalType": "address",
          "name": "_lpPair",
          "type": "address"
        },
        {
          "internalType": "address",
          "name": "_assetRouter",
          "type": "address"
        }
      ],
      "name": "initialize",
      "outputs": [],
      "stateMutability": "nonpayable",
      "type": "function"
    },
    {
      "inputs": [
        {
          "internalType": "uint256",
          "name": "amount",
          "type": "uint256"
        },
        {
          "internalType": "address",
          "name": "recipient",
          "type": "address"
        }
      ],
      "name": "deposit",
      "outputs": [],
      "stateMutability": "nonpayable",
      "type": "function"
    },
    {
      "inputs": [
        {
          "internalType": "uint256",
          "name": "amount",
          "type": "uint256"
        },
        {
          "internalType": "uint256",
          "name": "amountAMin",
          "type": "uint256"
        },
        {
          "internalType": "uint256",
          "name": "amountBMin",
          "type": "uint256"
        },
        {
          "internalType": "bool",
          "name": "withdrawLP",
          "type": "bool"
        },
        {
          "internalType": "address",
          "name": "origin",
          "type": "address"
        },
        {
          "internalType": "address",
          "name": "recipient",
          "type": "address"
        }
      ],
      "name": "withdraw",
      "outputs": [
        {
          "internalType": "uint256",
          "name": "amountA",
          "type": "uint256"
        },
        {
          "internalType": "uint256",
          "name": "amountB",
          "type": "uint256"
        }
      ],
      "stateMutability": "nonpayable",
      "type": "function"
    },
    {
      "inputs": [
        {
          "components": [
            {
              "internalType": "address[]",
              "name": "route",
              "type": "address[]"
            },
            {
              "internalType": "uint256",
              "name": "amountOutMin",
              "type": "uint256"
            }
          ],
          "internalType": "struct UnoFarmPancakeswap.SwapInfo[2]",
          "name": "swapInfos",
          "type": "tuple[2]"
        },
        {
          "components": [
            {
              "internalType": "address[]",
              "name": "route",
              "type": "address[]"
            },
            {
              "internalType": "uint256",
              "name": "amountOutMin",
              "type": "uint256"
            }
          ],
          "internalType": "struct UnoFarmPancakeswap.SwapInfo",
          "name": "feeSwapInfo",
          "type": "tuple"
        },
        {
          "components": [
            {
              "internalType": "address",
              "name": "feeTo",
              "type": "address"
            },
            {
              "internalType": "uint256",
              "name": "fee",
              "type": "uint256"
            }
          ],
          "internalType": "struct UnoFarmPancakeswap.FeeInfo",
          "name": "feeInfo",
          "type": "tuple"
        }
      ],
      "name": "distribute",
      "outputs": [
        {
          "internalType": "uint256",
          "name": "reward",
          "type": "uint256"
        }
      ],
      "stateMutability": "nonpayable",
      "type": "function"
    },
    {
      "inputs": [
        {
          "internalType": "address",
          "name": "_address",
          "type": "address"
        }
      ],
      "name": "userBalance",
      "outputs": [
        {
          "internalType": "uint256",
          "name": "",
          "type": "uint256"
        }
      ],
      "stateMutability": "view",
      "type": "function"
    },
    {
      "inputs": [],
      "name": "getTotalDeposits",
      "outputs": [
        {
          "internalType": "uint256",
          "name": "_totalDeposits",
          "type": "uint256"
        }
      ],
      "stateMutability": "view",
      "type": "function"
    }
  ],
  "bytecode": "0x608060405234801561001057600080fd5b50612753806100206000396000f3fe608060405234801561001057600080fd5b50600436106100b45760003560e01c80635f64b55b116100715780635f64b55b1461014d5780636e553f6514610160578063bc0aac1014610173578063d563468314610186578063f1068454146101ae578063f7c618c1146101b757600080fd5b80630103c92b146100b95780630fc63d10146100df578063168a48221461010a57806336eeb1dd14610112578063452ed4f114610125578063485cc95514610138575b600080fd5b6100cc6100c736600461204b565b6101ca565b6040519081526020015b60405180910390f35b6035546100f2906001600160a01b031681565b6040516001600160a01b0390911681526020016100d6565b6100cc6101fe565b6100cc61012036600461207a565b61028e565b6034546100f2906001600160a01b031681565b61014b6101463660046120f8565b610b93565b005b6036546100f2906001600160a01b031681565b61014b61016e366004612131565b6111bf565b603e546100f2906001600160a01b031681565b610199610194366004612164565b611320565b604080519283526020830191909152016100d6565b6100cc60375481565b6033546100f2906001600160a01b031681565b60006101d5826115f8565b6001600160a01b0383166000908152603c60205260409020546101f891906121e1565b92915050565b6038546000901561028b576037546040516393f1a40b60e01b8152600481019190915230602482015273a5f8c5dbd5f286960b9d90548680ae5ebff07652906393f1a40b90604401606060405180830381865afa158015610263573d6000803e3d6000fd5b505050506040513d601f19601f820116820180604052508101906102879190612240565b5190505b90565b603e546000906001600160a01b031633146102c45760405162461bcd60e51b81526004016102bb9061229c565b60405180910390fd5b600260015414156102e75760405162461bcd60e51b81526004016102bb906122d3565b600260015560385461032a5760405162461bcd60e51b815260206004820152600c60248201526b4e4f5f4c495155494449545960a01b60448201526064016102bb565b603b544390603d906000906103479060019063ffffffff1661230a565b63ffffffff16815260208101919091526040016000205414156103ac5760405162461bcd60e51b815260206004820152601b60248201527f43414e545f43414c4c5f4f4e5f5448455f53414d455f424c4f434b000000000060448201526064016102bb565b603754604051630441a3e760e41b815260048101919091526000602482015273a5f8c5dbd5f286960b9d90548680ae5ebff076529063441a3e7090604401600060405180830381600087803b15801561040457600080fd5b505af1158015610418573d6000803e3d6000fd5b50505050610426838361178d565b6033546040516370a0823160e01b81523060048201526000916002916001600160a01b03909116906370a0823190602401602060405180830381865afa158015610474573d6000803e3d6000fd5b505050506040513d601f19601f82011682018060405250810190610498919061232f565b6104a29190612348565b6033546035549192506001600160a01b03918216911614610649573660006104ca8780612380565b6104d490806123a0565b60335491935091506001600160a01b031682826000816104f6576104f661236a565b905060200201602081019061050b919061204b565b6001600160a01b031614801561056457506035546001600160a01b031682826105356001826123f1565b8181106105445761054461236a565b9050602002016020810190610559919061204b565b6001600160a01b0316145b6105b05760405162461bcd60e51b815260206004820152601860248201527f4241445f5245574152445f544f4b454e5f415f524f555445000000000000000060448201526064016102bb565b7310ed43c718714eb63d5aa57b78b54704e256024e6338ed1739846105d58a80612380565b60200135858530426040518763ffffffff1660e01b81526004016105fe96959493929190612408565b6000604051808303816000875af115801561061d573d6000803e3d6000fd5b505050506040513d6000823e601f3d908101601f19168201604052610645919081019061247b565b5050505b6033546036546001600160a01b039081169116146107f3573660006106716020880188612380565b61067b90806123a0565b60335491935091506001600160a01b0316828260008161069d5761069d61236a565b90506020020160208101906106b2919061204b565b6001600160a01b031614801561070b57506036546001600160a01b031682826106dc6001826123f1565b8181106106eb576106eb61236a565b9050602002016020810190610700919061204b565b6001600160a01b0316145b6107575760405162461bcd60e51b815260206004820152601860248201527f4241445f5245574152445f544f4b454e5f425f524f555445000000000000000060448201526064016102bb565b7310ed43c718714eb63d5aa57b78b54704e256024e6338ed17398461077f60208b018b612380565b60200135858530426040518763ffffffff1660e01b81526004016107a896959493929190612408565b6000604051808303816000875af11580156107c7573d6000803e3d6000fd5b505050506040513d6000823e601f3d908101601f191682016040526107ef919081019061247b565b5050505b6035546036546040516370a0823160e01b81523060048201527310ed43c718714eb63d5aa57b78b54704e256024e9263e8e33700926001600160a01b039182169291169082906370a0823190602401602060405180830381865afa15801561085f573d6000803e3d6000fd5b505050506040513d601f19601f82011682018060405250810190610883919061232f565b6036546040516370a0823160e01b81523060048201526001600160a01b03909116906370a0823190602401602060405180830381865afa1580156108cb573d6000803e3d6000fd5b505050506040513d601f19601f820116820180604052508101906108ef919061232f565b6108f98b80612380565b6020908101359061090c908d018d612380565b6040516001600160e01b031960e089901b1681526001600160a01b0396871660048201529590941660248601526044850192909252606484015260848301526020013560a48201523060c48201524260e4820152610104016060604051808303816000875af1158015610983573d6000803e3d6000fd5b505050506040513d601f19601f820116820180604052508101906109a79190612521565b603a54909450600092506109bc9150436123f1565b6038546109c9919061254f565b6039546109d691906121e1565b6109e8670de0b6b3a76400008561254f565b6109f29190612348565b603b54909150600090603d908290610a129060019063ffffffff1661230a565b63ffffffff168152602081019190915260400160002054610a3390436123f1565b610a3d908361254f565b603b54603d90600090610a589060019063ffffffff1661230a565b63ffffffff1663ffffffff16815260200190815260200160002060020154610a8091906121e1565b604080516060810182524381526020808201868152828401858152603b805463ffffffff9081166000908152603d90955295842094518555915160018581019190915590516002909401939093558054949550919391929091610ae59185911661256e565b825463ffffffff9182166101009390930a92830291909202199091161790555043603a556000603955603754604051631c57762b60e31b815273a5f8c5dbd5f286960b9d90548680ae5ebff076529163e2bbb15891610b5291908890600401918252602082015260400190565b600060405180830381600087803b158015610b6c57600080fd5b505af1158015610b80573d6000803e3d6000fd5b5050600180555093979650505050505050565b6000610b9f6001611a1e565b90508015610bb7576000805461ff0019166101001790555b6001600160a01b038316610bfb5760405162461bcd60e51b815260206004820152600b60248201526a10905117d31417d413d3d360aa1b60448201526064016102bb565b6001600160a01b038216610c445760405162461bcd60e51b815260206004820152601060248201526f2120a22fa0a9a9a2aa2fa927aaaa22a960811b60448201526064016102bb565b610c4c611aa6565b603e80546001600160a01b0319166001600160a01b038416179055610c7083611ad7565b603755603480546001600160a01b0319166001600160a01b03851617905560408051630994dde560e31b8152905173a5f8c5dbd5f286960b9d90548680ae5ebff0765291634ca6ef289160048083019260209291908290030181865afa158015610cde573d6000803e3d6000fd5b505050506040513d601f19601f82011682018060405250810190610d029190612596565b603380546001600160a01b0319166001600160a01b0392831617905560345460408051630dfe168160e01b815290519190921691630dfe16819160048083019260209291908290030181865afa158015610d60573d6000803e3d6000fd5b505050506040513d601f19601f82011682018060405250810190610d849190612596565b603580546001600160a01b0319166001600160a01b039283161790556034546040805163d21220a760e01b81529051919092169163d21220a79160048083019260209291908290030181865afa158015610de2573d6000803e3d6000fd5b505050506040513d601f19601f82011682018060405250810190610e069190612596565b603680546001600160a01b0319166001600160a01b03928316179055604080516060810182524380825260006020808401828152848601838152928052603d90915292517fb4447350905ade30fbbf16eb128316f54a45abd6b02d89811edf7bbf0bb1ba7c5591517fb4447350905ade30fbbf16eb128316f54a45abd6b02d89811edf7bbf0bb1ba7d5590517fb4447350905ade30fbbf16eb128316f54a45abd6b02d89811edf7bbf0bb1ba7e55603b805463ffffffff19166001179055603a55603454905163095ea7b360e01b815273a5f8c5dbd5f286960b9d90548680ae5ebff076526004820152600019602482015291169063095ea7b3906044016020604051808303816000875af1158015610f23573d6000803e3d6000fd5b505050506040513d601f19601f82011682018060405250810190610f4791906125b3565b5060345460405163095ea7b360e01b81527310ed43c718714eb63d5aa57b78b54704e256024e600482015260001960248201526001600160a01b039091169063095ea7b3906044016020604051808303816000875af1158015610fae573d6000803e3d6000fd5b505050506040513d601f19601f82011682018060405250810190610fd291906125b3565b5060335460405163095ea7b360e01b81527310ed43c718714eb63d5aa57b78b54704e256024e600482015260001960248201526001600160a01b039091169063095ea7b3906044016020604051808303816000875af1158015611039573d6000803e3d6000fd5b505050506040513d601f19601f8201168201806040525081019061105d91906125b3565b5060355460405163095ea7b360e01b81527310ed43c718714eb63d5aa57b78b54704e256024e600482015260001960248201526001600160a01b039091169063095ea7b3906044016020604051808303816000875af11580156110c4573d6000803e3d6000fd5b505050506040513d601f19601f820116820180604052508101906110e891906125b3565b5060365460405163095ea7b360e01b81527310ed43c718714eb63d5aa57b78b54704e256024e600482015260001960248201526001600160a01b039091169063095ea7b3906044016020604051808303816000875af115801561114f573d6000803e3d6000fd5b505050506040513d601f19601f8201168201806040525081019061117391906125b3565b5080156111ba576000805461ff0019169055604051600181527f7f26b83ff96e1f2b6a682f133852f6798a09c465da95921460cefb38474024989060200160405180910390a15b505050565b600260015414156111e25760405162461bcd60e51b81526004016102bb906122d3565b6002600155603e546001600160a01b031633146112115760405162461bcd60e51b81526004016102bb9061229c565b600082116112595760405162461bcd60e51b81526020600482015260156024820152741393d7d3125455525112551657d41493d592511151605a1b60448201526064016102bb565b61126281611c4a565b6001600160a01b0381166000908152603c60205260408120805484929061128a9084906121e1565b9250508190555081603860008282546112a391906121e1565b9091555050603754604051631c57762b60e31b815260048101919091526024810183905273a5f8c5dbd5f286960b9d90548680ae5ebff076529063e2bbb15890604401600060405180830381600087803b15801561130057600080fd5b505af1158015611314573d6000803e3d6000fd5b50506001805550505050565b600080600260015414156113465760405162461bcd60e51b81526004016102bb906122d3565b6002600155603e546001600160a01b031633146113755760405162461bcd60e51b81526004016102bb9061229c565b600088116113bb5760405162461bcd60e51b8152602060048201526013602482015272125394d551919250d251539517d05353d55395606a1b60448201526064016102bb565b6113c484611c4a565b6001600160a01b0384166000908152603c60205260409020600281015489111561147d57600281015481546000916113fb916121e1565b9050808a11156114445760405162461bcd60e51b8152602060048201526014602482015273494e53554646494349454e545f42414c414e434560601b60448201526064016102bb565b61144e8a826123f1565b825560028201546038548b91611463916121e1565b61146d91906123f1565b6038555060006002820155611497565b8881600201600082825461149191906123f1565b90915550505b603754604051630441a3e760e41b81526004810191909152602481018a905273a5f8c5dbd5f286960b9d90548680ae5ebff076529063441a3e7090604401600060405180830381600087803b1580156114ef57600080fd5b505af1158015611503573d6000803e3d6000fd5b50505050851561153157603454611524906001600160a01b0316858b611d6f565b60008092509250506115e7565b603554603654604051635d5155ef60e11b81526001600160a01b0392831660048201529082166024820152604481018b9052606481018a90526084810189905290851660a48201524260c48201527310ed43c718714eb63d5aa57b78b54704e256024e9063baa2abde9060e40160408051808303816000875af11580156115bc573d6000803e3d6000fd5b505050506040513d601f19601f820116820180604052508101906115e091906125d0565b9093509150505b600180559097909650945050505050565b6001600160a01b0381166000908152603c60209081526040808320815160a08101835281548152600182015493810193909352600281015491830191909152600381015463ffffffff908116606084018190526004909201546080840152603b5416141561166a576040015192915050565b60608082015163ffffffff166000908152603d60209081526040808320815194850182528054808652600182015493860193909352600201549084015260808401516116b5916123f1565b83516116c1919061254f565b83602001516116d091906121e1565b90506000670de0b6b3a76400008360200151836116ed919061254f565b6116f79190612348565b6040840151603b54919250600091670de0b6b3a76400009190603d9084906117279060019063ffffffff1661230a565b63ffffffff1663ffffffff1681526020019081526020016000206002015461174f91906123f1565b865161175b919061254f565b6117659190612348565b90508082866040015161177891906121e1565b61178291906121e1565b979650505050505050565b600061179c602083018361204b565b6001600160a01b031614611a1a576033546040516370a0823160e01b8152306004820152600091670de0b6b3a7640000916020850135916001600160a01b0316906370a0823190602401602060405180830381865afa158015611803573d6000803e3d6000fd5b505050506040513d601f19601f82011682018060405250810190611827919061232f565b611831919061254f565b61183b9190612348565b905080156111ba5736600061185085806123a0565b909250905080158015906118cd5750818161186c6001826123f1565b81811061187b5761187b61236a565b9050602002016020810190611890919061204b565b6001600160a01b0316828260008181106118ac576118ac61236a565b90506020020160208101906118c1919061204b565b6001600160a01b031614155b156119f3576033546001600160a01b031682826000816118ef576118ef61236a565b9050602002016020810190611904919061204b565b6001600160a01b0316146119505760405162461bcd60e51b81526020600482015260136024820152724241445f4645455f544f4b454e5f524f55544560681b60448201526064016102bb565b7310ed43c718714eb63d5aa57b78b54704e256024e6338ed1739846020808901359086908690611982908b018b61204b565b426040518763ffffffff1660e01b81526004016119a496959493929190612408565b6000604051808303816000875af11580156119c3573d6000803e3d6000fd5b505050506040513d6000823e601f3d908101601f191682016040526119eb919081019061247b565b505050505050565b611a16611a03602086018661204b565b6033546001600160a01b03169085611d6f565b5050505b5050565b60008054610100900460ff1615611a65578160ff166001148015611a415750303b155b611a5d5760405162461bcd60e51b81526004016102bb906125f4565b506000919050565b60005460ff808416911610611a8c5760405162461bcd60e51b81526004016102bb906125f4565b506000805460ff191660ff92909216919091179055600190565b600054610100900460ff16611acd5760405162461bcd60e51b81526004016102bb90612642565b611ad5611dc1565b565b600080805b73a5f8c5dbd5f286960b9d90548680ae5ebff076526001600160a01b031663081e3eda6040518163ffffffff1660e01b8152600401602060405180830381865afa158015611b2e573d6000803e3d6000fd5b505050506040513d601f19601f82011682018060405250810190611b52919061232f565b811015611c05576040516378ed5d1f60e01b8152600481018290526001600160a01b0385169073a5f8c5dbd5f286960b9d90548680ae5ebff07652906378ed5d1f90602401602060405180830381865afa158015611bb4573d6000803e3d6000fd5b505050506040513d601f19601f82011682018060405250810190611bd89190612596565b6001600160a01b03161415611bf35780925060019150611c05565b80611bfd8161268d565b915050611adc565b5080611c445760405162461bcd60e51b815260206004820152600e60248201526d5049445f4e4f545f45584953545360901b60448201526064016102bb565b50919050565b6001600160a01b0381166000908152603c60205260409020603b54600382015463ffffffff90811691161415611cb3576004810154611c8990436123f1565b8154611c95919061254f565b816001016000828254611ca891906121e1565b90915550611d0f9050565b611cbc826115f8565b6002820155603b54603d90600090611cdc9060019063ffffffff1661230a565b63ffffffff168152602081019190915260400160002054611cfd90436123f1565b8154611d09919061254f565b60018201555b603b5460038201805463ffffffff191663ffffffff9092169190911790554360048201819055603854603a549091611d4791906123f1565b611d51919061254f565b60396000828254611d6291906121e1565b909155505043603a555050565b604080516001600160a01b038416602482015260448082018490528251808303909101815260649091019091526020810180516001600160e01b031663a9059cbb60e01b1790526111ba908490611dee565b600054610100900460ff16611de85760405162461bcd60e51b81526004016102bb90612642565b60018055565b6000611e43826040518060400160405280602081526020017f5361666542455032303a206c6f772d6c6576656c2063616c6c206661696c6564815250856001600160a01b0316611ec09092919063ffffffff16565b8051909150156111ba5780806020019051810190611e6191906125b3565b6111ba5760405162461bcd60e51b815260206004820152602a60248201527f5361666542455032303a204245503230206f7065726174696f6e20646964206e6044820152691bdd081cdd58d8d9595960b21b60648201526084016102bb565b6060611ecf8484600085611ed9565b90505b9392505050565b606082471015611f3a5760405162461bcd60e51b815260206004820152602660248201527f416464726573733a20696e73756666696369656e742062616c616e636520666f6044820152651c8818d85b1b60d21b60648201526084016102bb565b6001600160a01b0385163b611f915760405162461bcd60e51b815260206004820152601d60248201527f416464726573733a2063616c6c20746f206e6f6e2d636f6e747261637400000060448201526064016102bb565b600080866001600160a01b03168587604051611fad91906126d8565b60006040518083038185875af1925050503d8060008114611fea576040519150601f19603f3d011682016040523d82523d6000602084013e611fef565b606091505b509150915061178282828660608315612009575081611ed2565b8251156120195782518084602001fd5b8160405162461bcd60e51b81526004016102bb91906126ea565b6001600160a01b038116811461204857600080fd5b50565b60006020828403121561205d57600080fd5b8135611ed281612033565b600060408284031215611c4457600080fd5b60008060006080848603121561208f57600080fd5b833567ffffffffffffffff808211156120a757600080fd5b8186019150866040830111156120bc57600080fd5b909350602085013590808211156120d257600080fd5b506120df86828701612068565b9250506120ef8560408601612068565b90509250925092565b6000806040838503121561210b57600080fd5b823561211681612033565b9150602083013561212681612033565b809150509250929050565b6000806040838503121561214457600080fd5b82359150602083013561212681612033565b801515811461204857600080fd5b60008060008060008060c0878903121561217d57600080fd5b863595506020870135945060408701359350606087013561219d81612156565b925060808701356121ad81612033565b915060a08701356121bd81612033565b809150509295509295509295565b634e487b7160e01b600052601160045260246000fd5b600082198211156121f4576121f46121cb565b500190565b634e487b7160e01b600052604160045260246000fd5b604051601f8201601f1916810167ffffffffffffffff81118282101715612238576122386121f9565b604052919050565b60006060828403121561225257600080fd5b6040516060810181811067ffffffffffffffff82111715612275576122756121f9565b80604052508251815260208301516020820152604083015160408201528091505092915050565b60208082526017908201527f43414c4c45525f4e4f545f41535345545f524f55544552000000000000000000604082015260600190565b6020808252601f908201527f5265656e7472616e637947756172643a207265656e7472616e742063616c6c00604082015260600190565b600063ffffffff83811690831681811015612327576123276121cb565b039392505050565b60006020828403121561234157600080fd5b5051919050565b60008261236557634e487b7160e01b600052601260045260246000fd5b500490565b634e487b7160e01b600052603260045260246000fd5b60008235603e1983360301811261239657600080fd5b9190910192915050565b6000808335601e198436030181126123b757600080fd5b83018035915067ffffffffffffffff8211156123d257600080fd5b6020019150600581901b36038213156123ea57600080fd5b9250929050565b600082821015612403576124036121cb565b500390565b868152602080820187905260a0604083018190528201859052600090869060c08401835b8881101561245a57833561243f81612033565b6001600160a01b03168252928201929082019060010161242c565b506001600160a01b0396909616606085015250505060800152949350505050565b6000602080838503121561248e57600080fd5b825167ffffffffffffffff808211156124a657600080fd5b818501915085601f8301126124ba57600080fd5b8151818111156124cc576124cc6121f9565b8060051b91506124dd84830161220f565b81815291830184019184810190888411156124f757600080fd5b938501935b83851015612515578451825293850193908501906124fc565b98975050505050505050565b60008060006060848603121561253657600080fd5b8351925060208401519150604084015190509250925092565b6000816000190483118215151615612569576125696121cb565b500290565b600063ffffffff80831681851680830382111561258d5761258d6121cb565b01949350505050565b6000602082840312156125a857600080fd5b8151611ed281612033565b6000602082840312156125c557600080fd5b8151611ed281612156565b600080604083850312156125e357600080fd5b505080516020909101519092909150565b6020808252602e908201527f496e697469616c697a61626c653a20636f6e747261637420697320616c72656160408201526d191e481a5b9a5d1a585b1a5e995960921b606082015260800190565b6020808252602b908201527f496e697469616c697a61626c653a20636f6e7472616374206973206e6f74206960408201526a6e697469616c697a696e6760a81b606082015260800190565b60006000198214156126a1576126a16121cb565b5060010190565b60005b838110156126c35781810151838201526020016126ab565b838111156126d2576000848401525b50505050565b600082516123968184602087016126a8565b60208152600082518060208401526127098160408501602087016126a8565b601f01601f1916919091016040019291505056fea2646970667358221220d772f050d2b387b7696215006408fc13a83a854a47cba8a7c960c0e12368efc164736f6c634300080a0033",
  "immutableReferences": {},
  "source": "// SPDX-License-Identifier: MIT\r\npragma solidity 0.8.10;\r\n \r\nimport '../../interfaces/IUniswapV2Pair.sol';\r\nimport '../../interfaces/IUniswapV2Router.sol';\r\nimport '../../interfaces/IMasterChef.sol';\r\nimport '../../libs/SafeBEP20.sol';\r\nimport '@openzeppelin/contracts-upgradeable/security/ReentrancyGuardUpgradeable.sol';\r\nimport '@pancakeswap/pancake-swap-lib/contracts/token/BEP20/IBEP20.sol';\r\nimport '@openzeppelin/contracts-upgradeable/proxy/utils/Initializable.sol';\r\n\r\ncontract UnoFarmPancakeswap is Initializable, ReentrancyGuardUpgradeable {\r\n    using SafeBEP20 for IBEP20;\r\n    /**\r\n     * @dev DistributionInfo:\r\n     * {block} - Distribution block number.\r\n     * {rewardPerDepositAge} - Distribution reward divided by {totalDepositAge}. \r\n     * {cumulativeRewardAgePerDepositAge} - Sum of {rewardPerDepositAge}s multiplied by distribution interval.\r\n     */\r\n    struct DistributionInfo {\r\n        uint256 block;\r\n        uint256 rewardPerDepositAge;\r\n        uint256 cumulativeRewardAgePerDepositAge;\r\n    }\r\n    /**\r\n     * @dev UserInfo:\r\n     * {stake} - Amount of LP tokens deposited by the user.\r\n     * {depositAge} - User deposits multiplied by blocks the deposit has been in. \r\n     * {reward} - Amount of LP tokens entitled to the user.\r\n     * {lastDistribution} - Distribution ID before the last user deposit.\r\n     * {lastUpdate} - Deposit update block.\r\n     */\r\n    struct UserInfo {\r\n        uint256 stake;\r\n        uint256 depositAge;\r\n        uint256 reward;\r\n        uint32 lastDistribution;\r\n        uint256 lastUpdate;\r\n    }\r\n    /**\r\n     * @dev SwapInfo:\r\n     * {route} - Array of token addresses describing swap routes.\r\n     * {amountOutMin} - The minimum amount of output token that must be received for the transaction not to revert.\r\n     */\r\n    struct SwapInfo{\r\n        address[] route;\r\n        uint256 amountOutMin;\r\n    }\r\n    /**\r\n     * @dev FeeInfo:\r\n     * {feeCollector} - Contract to transfer fees to.\r\n     * {fee} - Fee percentage to collect (10^18 == 100%). \r\n     */\r\n    struct FeeInfo {\r\n        address feeTo;\r\n        uint256 fee;\r\n    }\r\n\r\n    /**\r\n     * @dev Tokens Used:\r\n     * {rewardToken} - Token generated by staking (CAKE).\r\n     * {rewarderToken} - Token generated by ComplexRewarderTime contract.\r\n     * {lpPair} - Token that the strategy maximizes. The same token that users deposit in the {MasterChef}.\r\n     * {tokenA, tokenB} - Tokens that the strategy maximizes.\r\n     */\r\n    address public rewardToken;\r\n    address public lpPair;\r\n    address public tokenA;\r\n    address public tokenB;\r\n\r\n    /**\r\n     * @dev Third Party Contracts:\r\n     * {pancakeswapRouter} - The contract that executes swaps.\r\n     * {MasterChef} -The contract that distibutes {rewardToken}.\r\n     */\r\n    IUniswapV2Router01 private constant pancakeswapRouter = IUniswapV2Router01(0x10ED43C718714eb63d5aA57B78B54704E256024E);\r\n    IMasterChef private constant MasterChef = IMasterChef(0xa5f8C5Dbd5F286960b9d90548680aE5ebFf07652);\r\n\r\n    /**\r\n     * @dev Contract Variables:\r\n     * {pid} - Pool ID.\r\n\r\n     * {totalDeposits} - Total deposits made by users.\r\n     * {totalDepositAge} - Deposits multiplied by blocks the deposit has been in. Flushed every reward distribution.\r\n     * {totalDepositLastUpdate} - Last {totalDepositAge} update block.\r\n\r\n     * {distributionID} - Current distribution ID.\r\n     * {userInfo} - Info on each user.\r\n     * {distributionInfo} - Info on each distribution.\r\n\r\n     * {fractionMultiplier} - Used to store decimal values.\r\n     */\r\n    uint256 public pid;\r\n\r\n    uint256 private totalDeposits;\r\n    uint256 private totalDepositAge;\r\n    uint256 private totalDepositLastUpdate;\r\n\r\n    uint32 private distributionID;\r\n    mapping(address => UserInfo) private userInfo;\r\n    mapping(uint32 => DistributionInfo) private distributionInfo;\r\n\r\n    uint256 private constant fractionMultiplier = uint256(1 ether);\r\n\r\n    /**\r\n     * @dev Contract Variables:\r\n     * {assetRouter} - The contract from which calls to this farm are made.\r\n     */\r\n    address public assetRouter;\r\n    modifier onlyAssetRouter(){\r\n        require(msg.sender == assetRouter, 'CALLER_NOT_ASSET_ROUTER');\r\n        _;\r\n    }\r\n\r\n    // ============ Methods ============\r\n\r\n    function initialize(address _lpPair, address _assetRouter) external initializer {\r\n        require (_lpPair != address(0), 'BAD_LP_POOL');\r\n        require (_assetRouter != address(0), 'BAD_ASSET_ROUTER');\r\n\r\n        __ReentrancyGuard_init();\r\n        assetRouter = _assetRouter;\r\n\r\n        pid = getPid(_lpPair);\r\n        lpPair = _lpPair;\r\n\r\n        rewardToken = MasterChef.CAKE();\r\n\r\n        tokenA = IUniswapV2Pair(lpPair).token0();\r\n        tokenB = IUniswapV2Pair(lpPair).token1();\r\n\r\n        distributionInfo[0] = DistributionInfo({\r\n            block: block.number,\r\n            rewardPerDepositAge: 0,\r\n            cumulativeRewardAgePerDepositAge: 0\r\n        });\r\n        distributionID = 1;\r\n        totalDepositLastUpdate = block.number;\r\n\r\n        IBEP20(lpPair).approve(address(MasterChef), type(uint256).max);\r\n        IBEP20(lpPair).approve(address(pancakeswapRouter), type(uint256).max);\r\n        IBEP20(rewardToken).approve(address(pancakeswapRouter), type(uint256).max);\r\n        IBEP20(tokenA).approve(address(pancakeswapRouter), type(uint256).max);\r\n        IBEP20(tokenB).approve(address(pancakeswapRouter), type(uint256).max);\r\n    }\r\n\r\n    /**\r\n     * @dev Function that makes the deposits.\r\n     * Deposits provided tokens in the Liquidity Pool, then stakes generated LP tokens in the {MasterChef}.\r\n     */\r\n    function deposit(uint256 amount, address recipient) external nonReentrant onlyAssetRouter {\r\n        require(amount > 0, 'NO_LIQUIDITY_PROVIDED');\r\n\r\n        _updateDeposit(recipient);\r\n        userInfo[recipient].stake += amount;\r\n        totalDeposits += amount;\r\n            \r\n        MasterChef.deposit(pid, amount);\r\n    }\r\n\r\n    /**\r\n     * @dev Withdraws funds from {origin} and sends them to the {recipient}.\r\n     */\r\n    function withdraw(uint256 amount, uint256 amountAMin, uint256 amountBMin, bool withdrawLP, address origin, address recipient) external nonReentrant onlyAssetRouter returns(uint256 amountA, uint256 amountB){\r\n        require(amount > 0, 'INSUFFICIENT_AMOUNT');\r\n\r\n        _updateDeposit(origin);\r\n        UserInfo storage user = userInfo[origin];\r\n        // Subtract amount from user.reward first, then subtract remainder from user.stake.\r\n        if(amount > user.reward){\r\n            uint256 balance = user.stake + user.reward;\r\n            require(amount <= balance, 'INSUFFICIENT_BALANCE');\r\n            user.stake = balance - amount;\r\n            totalDeposits = totalDeposits + user.reward - amount;\r\n            user.reward = 0;\r\n        } else {\r\n            user.reward -= amount;\r\n        }\r\n\r\n        MasterChef.withdraw(pid, amount);\r\n        if(withdrawLP){\r\n            IBEP20(lpPair).safeTransfer(recipient, amount);\r\n            return (0, 0);\r\n        }\r\n        (amountA, amountB) = pancakeswapRouter.removeLiquidity(tokenA, tokenB, amount, amountAMin, amountBMin, recipient, block.timestamp);\r\n    }\r\n\r\n    /**\r\n     * @dev Core function of the strat, in charge of updating, collecting and re-investing rewards.\r\n     * 1. It claims rewards from the {MasterChef}.\r\n     * 2. It swaps {rewardToken} token for {tokenA} & {tokenB}.\r\n     * 3. It deposits new LP tokens back to the {MasterChef}.\r\n     */\r\n    function distribute(\r\n        SwapInfo[2] calldata swapInfos,\r\n        SwapInfo calldata feeSwapInfo,\r\n        FeeInfo calldata feeInfo\r\n    ) external onlyAssetRouter nonReentrant returns(uint256 reward){\r\n        require(totalDeposits > 0, 'NO_LIQUIDITY');\r\n        require(distributionInfo[distributionID - 1].block != block.number, 'CANT_CALL_ON_THE_SAME_BLOCK');\r\n\r\n        MasterChef.withdraw(pid, 0);\r\n\r\n        collectFees(feeSwapInfo, feeInfo);\r\n        uint256 rewardTokenHalf = IBEP20(rewardToken).balanceOf(address(this)) / 2;\r\n        if (tokenA != rewardToken) {\r\n            address[] calldata route = swapInfos[0].route;\r\n            require(route[0] == rewardToken && route[route.length - 1] == tokenA, 'BAD_REWARD_TOKEN_A_ROUTE');\r\n            pancakeswapRouter.swapExactTokensForTokens(rewardTokenHalf, swapInfos[0].amountOutMin, route, address(this), block.timestamp);\r\n        }\r\n\r\n        if (tokenB != rewardToken) {\r\n            address[] calldata route = swapInfos[1].route;\r\n            require(route[0] == rewardToken && route[route.length - 1] == tokenB, 'BAD_REWARD_TOKEN_B_ROUTE');\r\n            pancakeswapRouter.swapExactTokensForTokens(rewardTokenHalf, swapInfos[1].amountOutMin, route, address(this), block.timestamp);\r\n        }\r\n\r\n        (,,reward) = pancakeswapRouter.addLiquidity(tokenA, tokenB, IBEP20(tokenA).balanceOf(address(this)), IBEP20(tokenB).balanceOf(address(this)), swapInfos[0].amountOutMin, swapInfos[1].amountOutMin, address(this), block.timestamp);\r\n        \r\n        uint256 rewardPerDepositAge = reward * fractionMultiplier / (totalDepositAge + totalDeposits * (block.number - totalDepositLastUpdate));\r\n        uint256 cumulativeRewardAgePerDepositAge = distributionInfo[distributionID - 1].cumulativeRewardAgePerDepositAge + rewardPerDepositAge * (block.number - distributionInfo[distributionID - 1].block);\r\n\r\n        distributionInfo[distributionID] = DistributionInfo({\r\n            block: block.number,\r\n            rewardPerDepositAge: rewardPerDepositAge,\r\n            cumulativeRewardAgePerDepositAge: cumulativeRewardAgePerDepositAge\r\n        });\r\n\r\n        distributionID += 1;\r\n        totalDepositLastUpdate = block.number;\r\n        totalDepositAge = 0;\r\n            \r\n        MasterChef.deposit(pid, reward);\r\n    }\r\n    \r\n    /**\r\n     * @dev Swaps and sends fees to feeTo.\r\n     */\r\n    function collectFees(SwapInfo calldata feeSwapInfo, FeeInfo calldata feeInfo) internal {\r\n        if(feeInfo.feeTo != address(0)){\r\n            uint256 feeAmount = IBEP20(rewardToken).balanceOf(address(this)) * feeInfo.fee / fractionMultiplier;\r\n            if(feeAmount > 0){\r\n                address[] calldata route = feeSwapInfo.route;\r\n                if(route.length > 0 && route[0] != route[route.length - 1]){\r\n                    require(route[0] == rewardToken, 'BAD_FEE_TOKEN_ROUTE');\r\n                    pancakeswapRouter.swapExactTokensForTokens(feeAmount, feeSwapInfo.amountOutMin, route, feeInfo.feeTo, block.timestamp);\r\n                    return;\r\n                }\r\n                IBEP20(rewardToken).safeTransfer(feeInfo.feeTo, feeAmount);\r\n            }\r\n        }\r\n    }\r\n\r\n    /**\r\n     * @dev Returns total funds staked by the {_address}.\r\n     */\r\n    function userBalance(address _address) external view returns (uint256) {\r\n        return userInfo[_address].stake + userReward(_address);\r\n    }\r\n\r\n    /**\r\n     * @dev Returns total funds locked in the farm.\r\n     */\r\n    function getTotalDeposits() external view returns (uint256 _totalDeposits) {\r\n        if(totalDeposits > 0){\r\n            _totalDeposits = MasterChef.userInfo(pid, address(this)).amount;\r\n        }\r\n    }\r\n    \r\n    function _updateDeposit(address _address) internal {\r\n        UserInfo storage user = userInfo[_address];\r\n        // Accumulate deposit age within the current distribution period.\r\n        if (user.lastDistribution == distributionID) {\r\n            // Add deposit age from previous deposit age update to now.\r\n            user.depositAge += user.stake * (block.number - user.lastUpdate);\r\n        } else {\r\n            // A reward has been distributed, update user.reward.\r\n            user.reward = userReward(_address);\r\n            // Count fresh deposit age from previous reward distribution to now.\r\n            user.depositAge = user.stake * (block.number - distributionInfo[distributionID - 1].block);\r\n        }\r\n\r\n        user.lastDistribution = distributionID;\r\n        user.lastUpdate = block.number;\r\n\r\n        // Same with total deposit age.\r\n        totalDepositAge += (block.number - totalDepositLastUpdate) * totalDeposits;\r\n        totalDepositLastUpdate = block.number;\r\n    }\r\n\r\n    function userReward(address _address) internal view returns (uint256) {\r\n        UserInfo memory user = userInfo[_address];\r\n        if (user.lastDistribution == distributionID) {\r\n            // Return user.reward if the distribution after the last user deposit did not happen yet.\r\n            return user.reward;\r\n        }\r\n        DistributionInfo memory lastUserDistributionInfo = distributionInfo[user.lastDistribution];\r\n        uint256 userDepositAge = user.depositAge + user.stake * (lastUserDistributionInfo.block - user.lastUpdate);\r\n        // Calculate reward between the last user deposit and the distribution after that.\r\n        uint256 rewardBeforeDistibution = userDepositAge * lastUserDistributionInfo.rewardPerDepositAge / fractionMultiplier;\r\n        // Calculate reward from the distributions that have happened after the last user deposit.\r\n        uint256 rewardAfterDistribution = user.stake * (distributionInfo[distributionID - 1].cumulativeRewardAgePerDepositAge - lastUserDistributionInfo.cumulativeRewardAgePerDepositAge) / fractionMultiplier;\r\n        return user.reward + rewardBeforeDistibution + rewardAfterDistribution;\r\n    }\r\n\r\n    /**\r\n     * @dev Get pid by iterating over all pools and comparing pids.\r\n     */\r\n    function getPid(address _lpPair) internal view returns (uint256 _pid) {\r\n        bool poolExists = false;\r\n        for (uint256 i = 0; i < MasterChef.poolLength(); i++) {\r\n            if (MasterChef.lpToken(i) == _lpPair) {\r\n                _pid = i;\r\n                poolExists = true;\r\n                break;\r\n            }\r\n        }\r\n        require(poolExists, 'PID_NOT_EXISTS');\r\n        return _pid;\r\n    }\r\n}\r\n",
  "sourcePath": "C:\\Users\\jugli\\Desktop\\uno\\uno-contracts-bsc\\contracts\\apps\\pancakeswap\\UnoFarmPancakeswap.sol",
  "compiler": {
    "name": "solc",
    "version": "0.8.10+commit.fc410830.Emscripten.clang"
  },
  "schemaVersion": "3.4.11",
  "updatedAt": "2022-12-21T15:16:30.347Z",
  "devdoc": {
    "kind": "dev",
    "methods": {
      "deposit(uint256,address)": {
        "details": "Function that makes the deposits. Deposits provided tokens in the Liquidity Pool, then stakes generated LP tokens in the {MasterChef}."
      },
      "distribute((address[],uint256)[2],(address[],uint256),(address,uint256))": {
        "details": "Core function of the strat, in charge of updating, collecting and re-investing rewards. 1. It claims rewards from the {MasterChef}. 2. It swaps {rewardToken} token for {tokenA} & {tokenB}. 3. It deposits new LP tokens back to the {MasterChef}."
      },
      "getTotalDeposits()": {
        "details": "Returns total funds locked in the farm."
      },
      "userBalance(address)": {
        "details": "Returns total funds staked by the {_address}."
      },
      "withdraw(uint256,uint256,uint256,bool,address,address)": {
        "details": "Withdraws funds from {origin} and sends them to the {recipient}."
      }
    },
    "stateVariables": {
      "assetRouter": {
        "details": "Contract Variables: {assetRouter} - The contract from which calls to this farm are made."
      },
      "pancakeswapRouter": {
        "details": "Third Party Contracts: {pancakeswapRouter} - The contract that executes swaps. {MasterChef} -The contract that distibutes {rewardToken}."
      },
      "pid": {
        "details": "Contract Variables: {pid} - Pool ID. {totalDeposits} - Total deposits made by users. {totalDepositAge} - Deposits multiplied by blocks the deposit has been in. Flushed every reward distribution. {totalDepositLastUpdate} - Last {totalDepositAge} update block. {distributionID} - Current distribution ID. {userInfo} - Info on each user. {distributionInfo} - Info on each distribution. {fractionMultiplier} - Used to store decimal values."
      },
      "rewardToken": {
        "details": "Tokens Used: {rewardToken} - Token generated by staking (CAKE). {rewarderToken} - Token generated by ComplexRewarderTime contract. {lpPair} - Token that the strategy maximizes. The same token that users deposit in the {MasterChef}. {tokenA, tokenB} - Tokens that the strategy maximizes."
      }
    },
    "version": 1
  },
  "userdoc": {
    "kind": "user",
    "methods": {},
    "version": 1
  }
}