{
  "contractName": "UnoFarmSushiswap",
  "abi": [
    {
      "inputs": [],
      "name": "CALLER_NOT_ASSET_ROUTER",
      "type": "error"
    },
    {
      "inputs": [],
      "name": "CALL_ON_THE_SAME_BLOCK",
      "type": "error"
    },
    {
      "inputs": [],
      "name": "INSUFFICIENT_AMOUNT",
      "type": "error"
    },
    {
      "inputs": [],
      "name": "INSUFFICIENT_BALANCE",
      "type": "error"
    },
    {
      "inputs": [],
      "name": "INVALID_ASSET_ROUTER",
      "type": "error"
    },
    {
      "inputs": [],
      "name": "INVALID_LP_POOL",
      "type": "error"
    },
    {
      "inputs": [
        {
          "internalType": "address",
          "name": "fromToken",
          "type": "address"
        },
        {
          "internalType": "address",
          "name": "toToken",
          "type": "address"
        }
      ],
      "name": "INVALID_ROUTE",
      "type": "error"
    },
    {
      "inputs": [],
      "name": "NO_LIQUIDITY",
      "type": "error"
    },
    {
      "inputs": [],
      "name": "NO_LIQUIDITY_PROVIDED",
      "type": "error"
    },
    {
      "inputs": [],
      "name": "PID_NOT_EXISTS",
      "type": "error"
    },
    {
      "anonymous": false,
      "inputs": [
        {
          "indexed": false,
          "internalType": "uint8",
          "name": "version",
          "type": "uint8"
        }
      ],
      "name": "Initialized",
      "type": "event"
    },
    {
      "inputs": [],
      "name": "assetRouter",
      "outputs": [
        {
          "internalType": "address",
          "name": "",
          "type": "address"
        }
      ],
      "stateMutability": "view",
      "type": "function"
    },
    {
      "inputs": [],
      "name": "lpPool",
      "outputs": [
        {
          "internalType": "address",
          "name": "",
          "type": "address"
        }
      ],
      "stateMutability": "view",
      "type": "function"
    },
    {
      "inputs": [],
      "name": "pid",
      "outputs": [
        {
          "internalType": "uint256",
          "name": "",
          "type": "uint256"
        }
      ],
      "stateMutability": "view",
      "type": "function"
    },
    {
      "inputs": [],
      "name": "rewardToken",
      "outputs": [
        {
          "internalType": "address",
          "name": "",
          "type": "address"
        }
      ],
      "stateMutability": "view",
      "type": "function"
    },
    {
      "inputs": [],
      "name": "rewarderToken",
      "outputs": [
        {
          "internalType": "address",
          "name": "",
          "type": "address"
        }
      ],
      "stateMutability": "view",
      "type": "function"
    },
    {
      "inputs": [],
      "name": "tokenA",
      "outputs": [
        {
          "internalType": "address",
          "name": "",
          "type": "address"
        }
      ],
      "stateMutability": "view",
      "type": "function"
    },
    {
      "inputs": [],
      "name": "tokenB",
      "outputs": [
        {
          "internalType": "address",
          "name": "",
          "type": "address"
        }
      ],
      "stateMutability": "view",
      "type": "function"
    },
    {
      "inputs": [
        {
          "internalType": "address",
          "name": "_lpPool",
          "type": "address"
        },
        {
          "internalType": "address",
          "name": "_assetRouter",
          "type": "address"
        }
      ],
      "name": "initialize",
      "outputs": [],
      "stateMutability": "nonpayable",
      "type": "function"
    },
    {
      "inputs": [
        {
          "internalType": "uint256",
          "name": "amount",
          "type": "uint256"
        },
        {
          "internalType": "address",
          "name": "recipient",
          "type": "address"
        }
      ],
      "name": "deposit",
      "outputs": [],
      "stateMutability": "nonpayable",
      "type": "function"
    },
    {
      "inputs": [
        {
          "internalType": "uint256",
          "name": "amount",
          "type": "uint256"
        },
        {
          "internalType": "address",
          "name": "origin",
          "type": "address"
        },
        {
          "internalType": "address",
          "name": "recipient",
          "type": "address"
        }
      ],
      "name": "withdraw",
      "outputs": [],
      "stateMutability": "nonpayable",
      "type": "function"
    },
    {
      "inputs": [
        {
          "components": [
            {
              "internalType": "address[]",
              "name": "route",
              "type": "address[]"
            },
            {
              "internalType": "uint256",
              "name": "amountOutMin",
              "type": "uint256"
            }
          ],
          "internalType": "struct IUnoFarmSushiswap.SwapInfo[4]",
          "name": "swapInfos",
          "type": "tuple[4]"
        },
        {
          "components": [
            {
              "internalType": "address",
              "name": "feeTo",
              "type": "address"
            },
            {
              "internalType": "uint256",
              "name": "fee",
              "type": "uint256"
            }
          ],
          "internalType": "struct IUnoFarm.FeeInfo",
          "name": "feeInfo",
          "type": "tuple"
        }
      ],
      "name": "distribute",
      "outputs": [
        {
          "internalType": "uint256",
          "name": "reward",
          "type": "uint256"
        }
      ],
      "stateMutability": "nonpayable",
      "type": "function"
    },
    {
      "inputs": [
        {
          "internalType": "address",
          "name": "_address",
          "type": "address"
        }
      ],
      "name": "userBalance",
      "outputs": [
        {
          "internalType": "uint256",
          "name": "",
          "type": "uint256"
        }
      ],
      "stateMutability": "view",
      "type": "function"
    },
    {
      "inputs": [],
      "name": "getTotalDeposits",
      "outputs": [
        {
          "internalType": "uint256",
          "name": "_totalDeposits",
          "type": "uint256"
        }
      ],
      "stateMutability": "view",
      "type": "function"
    }
  ],
  "bytecode": "0x608060405234801561001057600080fd5b50612e84806100206000396000f3fe608060405234801561001057600080fd5b50600436106100df5760003560e01c80635f64b55b1161008c578063b460af9411610066578063b460af94146101b1578063bc0aac10146101c4578063f1068454146101d7578063f7c618c1146101e057600080fd5b80635f64b55b146101785780636a30683b1461018b5780636e553f651461019e57600080fd5b80632a8dc131116100bd5780632a8dc1311461013d5780633737bcb414610150578063485cc9551461016357600080fd5b80630103c92b146100e45780630fc63d101461010a578063168a482214610135575b600080fd5b6100f76100f23660046127e5565b6101f3565b6040519081526020015b60405180910390f35b60365461011d906001600160a01b031681565b6040516001600160a01b039091168152602001610101565b6100f7610227565b60345461011d906001600160a01b031681565b60355461011d906001600160a01b031681565b610176610171366004612802565b6102cf565b005b60375461011d906001600160a01b031681565b6100f761019936600461283b565b610d96565b6101766101ac36600461289a565b611b3b565b6101766101bf3660046128bf565b611c9b565b603f5461011d906001600160a01b031681565b6100f760385481565b60335461011d906001600160a01b031681565b60006101fe82611e78565b6001600160a01b0383166000908152603d60205260409020546102219190612930565b92915050565b603954600090156102cc576038546040517f93f1a40b0000000000000000000000000000000000000000000000000000000081526004810191909152306024820152730769fd68dfb93167989c6f7254cd0d766fb2841f906393f1a40b906044016040805180830381865afa1580156102a4573d6000803e3d6000fd5b505050506040513d601f19601f820116820180604052508101906102c89190612943565b5090505b90565b600054610100900460ff16158080156102ef5750600054600160ff909116105b806103095750303b158015610309575060005460ff166001145b61039a576040517f08c379a000000000000000000000000000000000000000000000000000000000815260206004820152602e60248201527f496e697469616c697a61626c653a20636f6e747261637420697320616c72656160448201527f647920696e697469616c697a656400000000000000000000000000000000000060648201526084015b60405180910390fd5b600080547fffffffffffffffffffffffffffffffffffffffffffffffffffffffffffffff0016600117905580156103f857600080547fffffffffffffffffffffffffffffffffffffffffffffffffffffffffffff00ff166101001790555b6001600160a01b038316610438576040517f5309c5cf00000000000000000000000000000000000000000000000000000000815260040160405180910390fd5b6001600160a01b038216610478576040517fc17c115000000000000000000000000000000000000000000000000000000000815260040160405180910390fd5b61048061200d565b603f80547fffffffffffffffffffffffff0000000000000000000000000000000000000000166001600160a01b0384161790556104bc836120ae565b603855603580547fffffffffffffffffffffffff0000000000000000000000000000000000000000166001600160a01b038516179055604080517fab560e100000000000000000000000000000000000000000000000000000000081529051730769fd68dfb93167989c6f7254cd0d766fb2841f9163ab560e109160048083019260209291908290030181865afa15801561055b573d6000803e3d6000fd5b505050506040513d601f19601f8201168201806040525081019061057f9190612967565b603380547fffffffffffffffffffffffff0000000000000000000000000000000000000000166001600160a01b03929092169190911790556038546040517fc346253d0000000000000000000000000000000000000000000000000000000081526004810191909152600090730769fd68dfb93167989c6f7254cd0d766fb2841f9063c346253d90602401602060405180830381865afa158015610627573d6000803e3d6000fd5b505050506040513d601f19601f8201168201806040525081019061064b9190612967565b90506001600160a01b038116156107e5576038546040517fd63b3c49000000000000000000000000000000000000000000000000000000008152600481019190915260006024820181905260448201819052906001600160a01b0383169063d63b3c4990606401600060405180830381865afa1580156106cf573d6000803e3d6000fd5b505050506040513d6000823e601f3d908101601f191682016040526106f79190810190612a73565b5090508060008151811061070d5761070d612b38565b6020908102919091010151603480547fffffffffffffffffffffffff0000000000000000000000000000000000000000166001600160a01b0390921691821790556040517f095ea7b3000000000000000000000000000000000000000000000000000000008152731b02da8cb0d097eb8d57a175b88c7d8b479975066004820152600019602482015263095ea7b3906044016020604051808303816000875af11580156107be573d6000803e3d6000fd5b505050506040513d601f19601f820116820180604052508101906107e29190612b67565b50505b603560009054906101000a90046001600160a01b03166001600160a01b0316630dfe16816040518163ffffffff1660e01b8152600401602060405180830381865afa158015610838573d6000803e3d6000fd5b505050506040513d601f19601f8201168201806040525081019061085c9190612967565b603680547fffffffffffffffffffffffff0000000000000000000000000000000000000000166001600160a01b03928316179055603554604080517fd21220a70000000000000000000000000000000000000000000000000000000081529051919092169163d21220a79160048083019260209291908290030181865afa1580156108eb573d6000803e3d6000fd5b505050506040513d601f19601f8201168201806040525081019061090f9190612967565b603780547fffffffffffffffffffffffff0000000000000000000000000000000000000000166001600160a01b03928316179055604080516060810182524380825260006020808401828152848601838152928052603e90915292517f5f97c64b3c4bdfff50b5c8f505e633128432c6b07fc6c8abc77dce786c7317d45591517f5f97c64b3c4bdfff50b5c8f505e633128432c6b07fc6c8abc77dce786c7317d55590517f5f97c64b3c4bdfff50b5c8f505e633128432c6b07fc6c8abc77dce786c7317d655603c80547fffffffffffffffffffffffffffffffffffffffffffffffffffffffff00000000166001179055603b5560355490517f095ea7b3000000000000000000000000000000000000000000000000000000008152730769fd68dfb93167989c6f7254cd0d766fb2841f6004820152600019602482015291169063095ea7b3906044016020604051808303816000875af1158015610a78573d6000803e3d6000fd5b505050506040513d601f19601f82011682018060405250810190610a9c9190612b67565b506035546040517f095ea7b3000000000000000000000000000000000000000000000000000000008152731b02da8cb0d097eb8d57a175b88c7d8b47997506600482015260001960248201526001600160a01b039091169063095ea7b3906044016020604051808303816000875af1158015610b1c573d6000803e3d6000fd5b505050506040513d601f19601f82011682018060405250810190610b409190612b67565b506033546040517f095ea7b3000000000000000000000000000000000000000000000000000000008152731b02da8cb0d097eb8d57a175b88c7d8b47997506600482015260001960248201526001600160a01b039091169063095ea7b3906044016020604051808303816000875af1158015610bc0573d6000803e3d6000fd5b505050506040513d601f19601f82011682018060405250810190610be49190612b67565b506036546040517f095ea7b3000000000000000000000000000000000000000000000000000000008152731b02da8cb0d097eb8d57a175b88c7d8b47997506600482015260001960248201526001600160a01b039091169063095ea7b3906044016020604051808303816000875af1158015610c64573d6000803e3d6000fd5b505050506040513d601f19601f82011682018060405250810190610c889190612b67565b506037546040517f095ea7b3000000000000000000000000000000000000000000000000000000008152731b02da8cb0d097eb8d57a175b88c7d8b47997506600482015260001960248201526001600160a01b039091169063095ea7b3906044016020604051808303816000875af1158015610d08573d6000803e3d6000fd5b505050506040513d601f19601f82011682018060405250810190610d2c9190612b67565b50508015610d9157600080547fffffffffffffffffffffffffffffffffffffffffffffffffffffffffffff00ff169055604051600181527f7f26b83ff96e1f2b6a682f133852f6798a09c465da95921460cefb38474024989060200160405180910390a15b505050565b603f546000906001600160a01b03163314610ddd576040517ffa6f03ae00000000000000000000000000000000000000000000000000000000815260040160405180910390fd5b603954600003610e19576040517ff58c8f9100000000000000000000000000000000000000000000000000000000815260040160405180910390fd5b603c5463ffffffff1643603e6000610e32600185612b89565b63ffffffff16815260208101919091526040016000205403610e80576040517ffa2a2d8700000000000000000000000000000000000000000000000000000000815260040160405180910390fd5b6038546040517f18fccc760000000000000000000000000000000000000000000000000000000081526004810191909152306024820152730769fd68dfb93167989c6f7254cd0d766fb2841f906318fccc7690604401600060405180830381600087803b158015610ef057600080fd5b505af1158015610f04573d6000803e3d6000fd5b50506036546037546033546040517f70a082310000000000000000000000000000000000000000000000000000000081523060048201526001600160a01b0393841695509183169350731b02da8cb0d097eb8d57a175b88c7d8b4799750692600092911690829082906370a0823190602401602060405180830381865afa158015610f93573d6000803e3d6000fd5b505050506040513d601f19601f82011682018060405250810190610fb79190612bad565b9050610fc482828b612232565b610fce9082612bc6565b9050610fdb600282612bd9565b603454909350600091506001600160a01b031680156110a0576040517f70a082310000000000000000000000000000000000000000000000000000000081523060048201526000906001600160a01b038316906370a0823190602401602060405180830381865afa158015611054573d6000803e3d6000fd5b505050506040513d601f19601f820116820180604052508101906110789190612bad565b905061108582828d612232565b61108f9082612bc6565b905061109c600282612bd9565b9250505b83156113e757826001600160a01b0316876001600160a01b031614611245573660006110cc8d80612c14565b6110d69080612c52565b91509150846001600160a01b0316828260008181106110f7576110f7612b38565b905060200201602081019061110c91906127e5565b6001600160a01b031614158061116457506001600160a01b0389168282611134600182612bc6565b81811061114357611143612b38565b905060200201602081019061115891906127e5565b6001600160a01b031614155b156111ae576040517fead9849a0000000000000000000000000000000000000000000000000000000081526001600160a01b0380871660048301528a166024820152604401610391565b6001600160a01b0387166338ed1739878f60006020028101906111d19190612c14565b60200135858530426040518763ffffffff1660e01b81526004016111fa96959493929190612cc1565b6000604051808303816000875af1158015611219573d6000803e3d6000fd5b505050506040513d6000823e601f3d908101601f191682016040526112419190810190612d34565b5050505b826001600160a01b0316866001600160a01b0316146113e75736600061126e60208e018e612c14565b6112789080612c52565b91509150846001600160a01b03168282600081811061129957611299612b38565b90506020020160208101906112ae91906127e5565b6001600160a01b031614158061130657506001600160a01b03881682826112d6600182612bc6565b8181106112e5576112e5612b38565b90506020020160208101906112fa91906127e5565b6001600160a01b031614155b15611350576040517fead9849a0000000000000000000000000000000000000000000000000000000081526001600160a01b03808716600483015289166024820152604401610391565b6001600160a01b0387166338ed1739878f60016020028101906113739190612c14565b60200135858530426040518763ffffffff1660e01b815260040161139c96959493929190612cc1565b6000604051808303816000875af11580156113bb573d6000803e3d6000fd5b505050506040513d6000823e601f3d908101601f191682016040526113e39190810190612d34565b5050505b811561173157806001600160a01b0316876001600160a01b03161461158f5736600061141660408e018e612c14565b6114209080612c52565b91509150826001600160a01b03168282600081811061144157611441612b38565b905060200201602081019061145691906127e5565b6001600160a01b03161415806114ae57506001600160a01b038916828261147e600182612bc6565b81811061148d5761148d612b38565b90506020020160208101906114a291906127e5565b6001600160a01b031614155b156114f8576040517fead9849a0000000000000000000000000000000000000000000000000000000081526001600160a01b0380851660048301528a166024820152604401610391565b6001600160a01b0387166338ed1739858f600260200281019061151b9190612c14565b60200135858530426040518763ffffffff1660e01b815260040161154496959493929190612cc1565b6000604051808303816000875af1158015611563573d6000803e3d6000fd5b505050506040513d6000823e601f3d908101601f1916820160405261158b9190810190612d34565b5050505b806001600160a01b0316866001600160a01b031614611731573660006115b860608e018e612c14565b6115c29080612c52565b91509150826001600160a01b0316828260008181106115e3576115e3612b38565b90506020020160208101906115f891906127e5565b6001600160a01b031614158061165057506001600160a01b0388168282611620600182612bc6565b81811061162f5761162f612b38565b905060200201602081019061164491906127e5565b6001600160a01b031614155b1561169a576040517fead9849a0000000000000000000000000000000000000000000000000000000081526001600160a01b03808516600483015289166024820152604401610391565b6001600160a01b0387166338ed1739858f60036020028101906116bd9190612c14565b60200135858530426040518763ffffffff1660e01b81526004016116e696959493929190612cc1565b6000604051808303816000875af1158015611705573d6000803e3d6000fd5b505050506040513d6000823e601f3d908101601f1916820160405261172d9190810190612d34565b5050505b50506040517f70a082310000000000000000000000000000000000000000000000000000000081523060048201526001600160a01b03808516935063e8e337009250869186918316906370a0823190602401602060405180830381865afa1580156117a0573d6000803e3d6000fd5b505050506040513d601f19601f820116820180604052508101906117c49190612bad565b6040517f70a082310000000000000000000000000000000000000000000000000000000081523060048201526001600160a01b038816906370a0823190602401602060405180830381865afa158015611821573d6000803e3d6000fd5b505050506040513d601f19601f820116820180604052508101906118459190612bad565b61185260408e018e612c14565b602001356118608e80612c14565b6020013561186e9190612930565b61187b60608f018f612c14565b602001358e60016020028101906118929190612c14565b602001356118a09190612930565b6040517fffffffff0000000000000000000000000000000000000000000000000000000060e089901b1681526001600160a01b03968716600482015295909416602486015260448501929092526064840152608483015260a48201523060c48201524260e4820152610104016060604051808303816000875af115801561192b573d6000803e3d6000fd5b505050506040513d601f19601f8201168201806040525081019061194f9190612d69565b603b5490975060009250611964915043612bc6565b6039546119719190612d97565b603a5461197e9190612930565b611990670de0b6b3a764000088612d97565b61199a9190612bd9565b90506000603e816119ac600189612b89565b63ffffffff1681526020810191909152604001600020546119cd9043612bc6565b6119d79083612d97565b603e60006119e660018a612b89565b63ffffffff1663ffffffff16815260200190815260200160002060020154611a0e9190612930565b60408051606081018252438152602080820186815282840185815263ffffffff8c166000908152603e9093529390912091518255516001808301919091559151600290910155909150611a62908790612dae565b603c80547fffffffffffffffffffffffffffffffffffffffffffffffffffffffff000000001663ffffffff9290921691909117905543603b556000603a556038546040517f8dbdbe6d000000000000000000000000000000000000000000000000000000008152600481019190915260248101889052306044820152730769fd68dfb93167989c6f7254cd0d766fb2841f90638dbdbe6d90606401600060405180830381600087803b158015611b1757600080fd5b505af1158015611b2b573d6000803e3d6000fd5b5050505050505050505092915050565b603f546001600160a01b03163314611b7f576040517ffa6f03ae00000000000000000000000000000000000000000000000000000000815260040160405180910390fd5b81600003611bb9576040517f78e321a500000000000000000000000000000000000000000000000000000000815260040160405180910390fd5b611bc2816122a1565b6001600160a01b0381166000908152603d602052604081208054849290611bea908490612930565b925050819055508160396000828254611c039190612930565b90915550506038546040517f8dbdbe6d000000000000000000000000000000000000000000000000000000008152600481019190915260248101839052306044820152730769fd68dfb93167989c6f7254cd0d766fb2841f90638dbdbe6d90606401600060405180830381600087803b158015611c7f57600080fd5b505af1158015611c93573d6000803e3d6000fd5b505050505050565b603f546001600160a01b03163314611cdf576040517ffa6f03ae00000000000000000000000000000000000000000000000000000000815260040160405180910390fd5b82600003611d19576040517f2cd294cf00000000000000000000000000000000000000000000000000000000815260040160405180910390fd5b611d22826122a1565b6001600160a01b0382166000908152603d60205260409020600281015480851115611dc9578154600090611d57908390612930565b905080861115611d93576040517f50b1f35600000000000000000000000000000000000000000000000000000000815260040160405180910390fd5b611d9d8682612bc6565b83556039548690611daf908490612930565b611db99190612bc6565b6039555060006002830155611dd9565b611dd38582612bc6565b60028301555b6038546040517f0ad58d2f0000000000000000000000000000000000000000000000000000000081526004810191909152602481018690526001600160a01b0384166044820152730769fd68dfb93167989c6f7254cd0d766fb2841f90630ad58d2f90606401600060405180830381600087803b158015611e5957600080fd5b505af1158015611e6d573d6000803e3d6000fd5b505050505050505050565b6001600160a01b0381166000908152603d60209081526040808320815160a08101835281548152600182015493810193909352600281015491830191909152600381015463ffffffff908116606084018190526004909201546080840152603c54169003611eea576040015192915050565b60608082015163ffffffff166000908152603e6020908152604080832081519485018252805480865260018201549386019390935260020154908401526080840151611f3591612bc6565b8351611f419190612d97565b8360200151611f509190612930565b90506000670de0b6b3a7640000836020015183611f6d9190612d97565b611f779190612bd9565b6040840151603c54919250600091670de0b6b3a76400009190603e908490611fa79060019063ffffffff16612b89565b63ffffffff1663ffffffff16815260200190815260200160002060020154611fcf9190612bc6565b8651611fdb9190612d97565b611fe59190612bd9565b905080828660400151611ff89190612930565b6120029190612930565b979650505050505050565b600054610100900460ff166120a4576040517f08c379a000000000000000000000000000000000000000000000000000000000815260206004820152602b60248201527f496e697469616c697a61626c653a20636f6e7472616374206973206e6f74206960448201527f6e697469616c697a696e670000000000000000000000000000000000000000006064820152608401610391565b6120ac6123e0565b565b600080805b730769fd68dfb93167989c6f7254cd0d766fb2841f6001600160a01b031663081e3eda6040518163ffffffff1660e01b8152600401602060405180830381865afa158015612105573d6000803e3d6000fd5b505050506040513d601f19601f820116820180604052508101906121299190612bad565b8110156121f4576040517f78ed5d1f000000000000000000000000000000000000000000000000000000008152600481018290526001600160a01b03851690730769fd68dfb93167989c6f7254cd0d766fb2841f906378ed5d1f90602401602060405180830381865afa1580156121a4573d6000803e3d6000fd5b505050506040513d601f19601f820116820180604052508101906121c89190612967565b6001600160a01b0316036121e257809250600191506121f4565b806121ec81612dcb565b9150506120b3565b508061222c576040517fb292e30800000000000000000000000000000000000000000000000000000000815260040160405180910390fd5b50919050565b60008061224260208401846127e5565b6001600160a01b03161461229a57670de0b6b3a7640000612267602084013585612d97565b6122719190612bd9565b9050801561229a5761229a61228960208401846127e5565b6001600160a01b038616908361247d565b9392505050565b6001600160a01b0381166000908152603d60205260409020603c54600382015463ffffffff9182169116036123095760048101546122df9043612bc6565b81546122eb9190612d97565b8160010160008282546122fe9190612930565b909155506123659050565b61231282611e78565b6002820155603c54603e906000906123329060019063ffffffff16612b89565b63ffffffff1681526020810191909152604001600020546123539043612bc6565b815461235f9190612d97565b60018201555b603c546003820180547fffffffffffffffffffffffffffffffffffffffffffffffffffffffff000000001663ffffffff9092169190911790554360048201819055603954603b5490916123b89190612bc6565b6123c29190612d97565b603a60008282546123d39190612930565b909155505043603b555050565b600054610100900460ff16612477576040517f08c379a000000000000000000000000000000000000000000000000000000000815260206004820152602b60248201527f496e697469616c697a61626c653a20636f6e7472616374206973206e6f74206960448201527f6e697469616c697a696e670000000000000000000000000000000000000000006064820152608401610391565b60018055565b604080516001600160a01b03848116602483015260448083018590528351808403909101815260649092018352602080830180517bffffffffffffffffffffffffffffffffffffffffffffffffffffffff167fa9059cbb0000000000000000000000000000000000000000000000000000000017905283518085019094528084527f5361666545524332303a206c6f772d6c6576656c2063616c6c206661696c656490840152610d919286929160009161253b9185169084906125e8565b905080516000148061255c57508080602001905181019061255c9190612b67565b610d91576040517f08c379a000000000000000000000000000000000000000000000000000000000815260206004820152602a60248201527f5361666545524332303a204552433230206f7065726174696f6e20646964206e60448201527f6f742073756363656564000000000000000000000000000000000000000000006064820152608401610391565b60606125f784846000856125ff565b949350505050565b606082471015612691576040517f08c379a000000000000000000000000000000000000000000000000000000000815260206004820152602660248201527f416464726573733a20696e73756666696369656e742062616c616e636520666f60448201527f722063616c6c00000000000000000000000000000000000000000000000000006064820152608401610391565b600080866001600160a01b031685876040516126ad9190612e09565b60006040518083038185875af1925050503d80600081146126ea576040519150601f19603f3d011682016040523d82523d6000602084013e6126ef565b606091505b5091509150612002878383876060831561278457825160000361277d576001600160a01b0385163b61277d576040517f08c379a000000000000000000000000000000000000000000000000000000000815260206004820152601d60248201527f416464726573733a2063616c6c20746f206e6f6e2d636f6e74726163740000006044820152606401610391565b50816125f7565b6125f783838151156127995781518083602001fd5b806040517f08c379a00000000000000000000000000000000000000000000000000000000081526004016103919190612e1b565b6001600160a01b03811681146127e257600080fd5b50565b6000602082840312156127f757600080fd5b813561229a816127cd565b6000806040838503121561281557600080fd5b8235612820816127cd565b91506020830135612830816127cd565b809150509250929050565b600080828403606081121561284f57600080fd5b833567ffffffffffffffff81111561286657600080fd5b84016080810186101561287857600080fd5b92506040601f198201121561288c57600080fd5b506020830190509250929050565b600080604083850312156128ad57600080fd5b823591506020830135612830816127cd565b6000806000606084860312156128d457600080fd5b8335925060208401356128e6816127cd565b915060408401356128f6816127cd565b809150509250925092565b7f4e487b7100000000000000000000000000000000000000000000000000000000600052601160045260246000fd5b8082018082111561022157610221612901565b6000806040838503121561295657600080fd5b505080516020909101519092909150565b60006020828403121561297957600080fd5b815161229a816127cd565b7f4e487b7100000000000000000000000000000000000000000000000000000000600052604160045260246000fd5b604051601f8201601f1916810167ffffffffffffffff811182821017156129dc576129dc612984565b604052919050565b600067ffffffffffffffff8211156129fe576129fe612984565b5060051b60200190565b600082601f830112612a1957600080fd5b81516020612a2e612a29836129e4565b6129b3565b82815260059290921b84018101918181019086841115612a4d57600080fd5b8286015b84811015612a685780518352918301918301612a51565b509695505050505050565b60008060408385031215612a8657600080fd5b825167ffffffffffffffff80821115612a9e57600080fd5b818501915085601f830112612ab257600080fd5b81516020612ac2612a29836129e4565b82815260059290921b84018101918181019089841115612ae157600080fd5b948201945b83861015612b08578551612af9816127cd565b82529482019490820190612ae6565b91880151919650909350505080821115612b2157600080fd5b50612b2e85828601612a08565b9150509250929050565b7f4e487b7100000000000000000000000000000000000000000000000000000000600052603260045260246000fd5b600060208284031215612b7957600080fd5b8151801515811461229a57600080fd5b63ffffffff828116828216039080821115612ba657612ba6612901565b5092915050565b600060208284031215612bbf57600080fd5b5051919050565b8181038181111561022157610221612901565b600082612c0f577f4e487b7100000000000000000000000000000000000000000000000000000000600052601260045260246000fd5b500490565b600082357fffffffffffffffffffffffffffffffffffffffffffffffffffffffffffffffc1833603018112612c4857600080fd5b9190910192915050565b60008083357fffffffffffffffffffffffffffffffffffffffffffffffffffffffffffffffe1843603018112612c8757600080fd5b83018035915067ffffffffffffffff821115612ca257600080fd5b6020019150600581901b3603821315612cba57600080fd5b9250929050565b868152602080820187905260a0604083018190528201859052600090869060c08401835b88811015612d13578335612cf8816127cd565b6001600160a01b031682529282019290820190600101612ce5565b506001600160a01b0396909616606085015250505060800152949350505050565b600060208284031215612d4657600080fd5b815167ffffffffffffffff811115612d5d57600080fd5b6125f784828501612a08565b600080600060608486031215612d7e57600080fd5b8351925060208401519150604084015190509250925092565b808202811582820484141761022157610221612901565b63ffffffff818116838216019080821115612ba657612ba6612901565b60006000198203612dde57612dde612901565b5060010190565b60005b83811015612e00578181015183820152602001612de8565b50506000910152565b60008251612c48818460208701612de5565b6020815260008251806020840152612e3a816040850160208701612de5565b601f01601f1916919091016040019291505056fea2646970667358221220192d2a9e7e521a4faea66350a1151ee39498c0e85bb20e3922b7a54eb1b083fe64736f6c63430008130033",
  "immutableReferences": {},
  "source": "// SPDX-License-Identifier: MIT\r\npragma solidity 0.8.19;\r\n\r\nimport './interfaces/IUnoFarmSushiswap.sol';\r\nimport '../../interfaces/IUniswapV2Pair.sol';\r\nimport '../../interfaces/IUniswapV2Router.sol';\r\nimport '../../interfaces/IMiniChefV2.sol';\r\nimport '../../interfaces/IRewarder.sol';\r\nimport '@openzeppelin/contracts-upgradeable/security/ReentrancyGuardUpgradeable.sol';\r\nimport '@openzeppelin/contracts/token/ERC20/utils/SafeERC20.sol';\r\nimport '@openzeppelin/contracts-upgradeable/proxy/utils/Initializable.sol';\r\n\r\ncontract UnoFarmSushiswap is Initializable, ReentrancyGuardUpgradeable, IUnoFarmSushiswap {\r\n    using SafeERC20 for IERC20;\r\n\r\n    /**\r\n     * @dev Tokens Used:\r\n     * {rewardToken} - Token generated by staking (SUSHI).\r\n     * {rewarderToken} - Token generated by ComplexRewarderTime contract.\r\n     * {lpPool} - Token that the strategy maximizes. The same token that users deposit in the {MiniChef}.\r\n     * {tokenA, tokenB} - Tokens that the strategy maximizes.\r\n     */\r\n    address public rewardToken;\r\n    address public rewarderToken;\r\n    address public lpPool;\r\n    address public tokenA;\r\n    address public tokenB;\r\n\r\n    /**\r\n     * @dev Third Party Contracts:\r\n     * {sushiswapRouter} - The contract that executes swaps.\r\n     * {MiniChef} -The contract that distibutes {rewardToken}.\r\n     */\r\n    IUniswapV2Router01 private constant sushiswapRouter = IUniswapV2Router01(0x1b02dA8Cb0d097eB8D57A175b88c7D8b47997506);\r\n    IMiniChefV2 private constant MiniChef = IMiniChefV2(0x0769fd68dFb93167989C6f7254cd0D766Fb2841F);\r\n\r\n    /**\r\n     * @dev Contract Variables:\r\n     * {pid} - Pool ID.\r\n\r\n     * {totalDeposits} - Total deposits made by users.\r\n     * {totalDepositAge} - Deposits multiplied by blocks the deposit has been in. Flushed every reward distribution.\r\n     * {totalDepositLastUpdate} - Last {totalDepositAge} update block.\r\n\r\n     * {distributionID} - Current distribution ID.\r\n     * {userInfo} - Info on each user.\r\n     * {distributionInfo} - Info on each distribution.\r\n\r\n     * {fractionMultiplier} - Used to store decimal values.\r\n     */\r\n    uint256 public pid;\r\n\r\n    uint256 private totalDeposits;\r\n    uint256 private totalDepositAge;\r\n    uint256 private totalDepositLastUpdate;\r\n\r\n    uint32 private distributionID;\r\n    mapping(address => UserInfo) private userInfo;\r\n    mapping(uint32 => DistributionInfo) private distributionInfo;\r\n\r\n    uint256 private constant fractionMultiplier = uint256(1 ether);\r\n\r\n    /**\r\n     * @dev Contract Variables:\r\n     * {assetRouter} - The contract from which calls to this farm are made.\r\n     */\r\n    address public assetRouter;\r\n    modifier onlyAssetRouter(){\r\n        if(msg.sender != assetRouter) revert CALLER_NOT_ASSET_ROUTER();\r\n        _;\r\n    }\r\n\r\n    // ============ Methods ============\r\n\r\n    function initialize(address _lpPool, address _assetRouter) external initializer {\r\n        if(_lpPool == address(0)) revert INVALID_LP_POOL();\r\n        if(_assetRouter == address(0)) revert INVALID_ASSET_ROUTER();\r\n\r\n        __ReentrancyGuard_init();\r\n        assetRouter = _assetRouter;\r\n\r\n        pid = _getPid(_lpPool);\r\n        lpPool = _lpPool;\r\n\r\n        rewardToken = MiniChef.SUSHI();\r\n\r\n        address Rewarder = MiniChef.rewarder(pid);\r\n        if (Rewarder != address(0)) {\r\n            (IERC20[] memory rewarderTokenArray, ) = IRewarder(Rewarder).pendingTokens(pid, address(0), 0);\r\n            rewarderToken = address(rewarderTokenArray[0]);\r\n            IERC20(rewarderToken).approve(address(sushiswapRouter), type(uint256).max);\r\n        }\r\n\r\n        tokenA = IUniswapV2Pair(lpPool).token0();\r\n        tokenB = IUniswapV2Pair(lpPool).token1();\r\n\r\n        distributionInfo[0] = DistributionInfo({\r\n            block: block.number,\r\n            rewardPerDepositAge: 0,\r\n            cumulativeRewardAgePerDepositAge: 0\r\n        });\r\n        distributionID = 1;\r\n        totalDepositLastUpdate = block.number;\r\n\r\n        IERC20(lpPool).approve(address(MiniChef), type(uint256).max);\r\n        IERC20(lpPool).approve(address(sushiswapRouter), type(uint256).max);\r\n        IERC20(rewardToken).approve(address(sushiswapRouter), type(uint256).max);\r\n        IERC20(tokenA).approve(address(sushiswapRouter), type(uint256).max);\r\n        IERC20(tokenB).approve(address(sushiswapRouter), type(uint256).max);\r\n    }\r\n\r\n    /**\r\n     * @dev Function that makes the deposits.\r\n     * Stakes {amount} of LP tokens from this contract's balance in the {MiniChef}.\r\n     */\r\n    function deposit(uint256 amount, address recipient) external onlyAssetRouter{\r\n        if(amount == 0) revert NO_LIQUIDITY_PROVIDED();\r\n\r\n        _updateDeposit(recipient);\r\n        userInfo[recipient].stake += amount;\r\n        totalDeposits += amount;\r\n            \r\n        MiniChef.deposit(pid, amount, address(this));\r\n    }\r\n\r\n    /**\r\n     * @dev Withdraws funds from {origin} and sends them to the {recipient}.\r\n     */\r\n    function withdraw(uint256 amount, address origin, address recipient) external onlyAssetRouter{\r\n        if(amount == 0) revert INSUFFICIENT_AMOUNT();\r\n\r\n        _updateDeposit(origin);\r\n\t\tUserInfo storage user = userInfo[origin];\r\n\t\t// Subtract amount from user.reward first, then subtract remainder from user.stake.\r\n\t\tuint256 reward = user.reward;\r\n\t\tif (amount > reward) {\r\n\t\t\tuint256 balance = user.stake + reward;\r\n            if(amount > balance) revert INSUFFICIENT_BALANCE();\r\n\r\n\t\t\tuser.stake = balance - amount;\r\n\t\t\ttotalDeposits = totalDeposits + reward - amount;\r\n\t\t\tuser.reward = 0;\r\n\t\t} else {\r\n\t\t\tuser.reward = reward - amount;\r\n\t\t}\r\n\r\n        MiniChef.withdraw(pid, amount, recipient);\r\n    }\r\n\r\n    /**\r\n     * @dev Core function of the strat, in charge of updating, collecting and re-investing rewards.\r\n     * 1. It claims rewards from the {MiniChef}.\r\n     * 2. It swaps {rewardToken} token for {tokenA} & {tokenB}.\r\n     * 3. It deposits new LP tokens back to the {MiniChef}.\r\n     */\r\n    function distribute(\r\n        SwapInfo[4] calldata swapInfos,\r\n        FeeInfo calldata feeInfo\r\n    ) external onlyAssetRouter returns(uint256 reward){\r\n        if(totalDeposits == 0) revert NO_LIQUIDITY();\r\n        uint32 _distributionID = distributionID;\r\n        if(distributionInfo[_distributionID - 1].block == block.number) revert CALL_ON_THE_SAME_BLOCK();\r\n\r\n        MiniChef.harvest(pid, address(this));\r\n\r\n        address _tokenA = tokenA;\r\n        address _tokenB = tokenB;\r\n        IUniswapV2Router01 _sushiswapRouter = sushiswapRouter;\r\n        { // scope to avoid stack too deep errors\r\n        uint256 rewardTokenHalf;\r\n        address _rewardToken = rewardToken;\r\n        {\r\n            uint256 balance = IERC20(_rewardToken).balanceOf(address(this));\r\n            balance -= _collectFees(IERC20(_rewardToken), balance, feeInfo);\r\n            rewardTokenHalf = balance / 2;\r\n        }\r\n        uint256 rewarderTokenHalf;\r\n        address _rewarderToken = rewarderToken;\r\n        if (_rewarderToken != address(0)) {\r\n            uint256 balance = IERC20(_rewarderToken).balanceOf(address(this));\r\n            balance -= _collectFees(IERC20(_rewarderToken), balance, feeInfo);\r\n            rewarderTokenHalf = balance / 2;\r\n        }\r\n        \r\n        if (rewardTokenHalf > 0) {\r\n            if (_tokenA != _rewardToken) {\r\n                address[] calldata route = swapInfos[0].route;\r\n                if(route[0] != _rewardToken || route[route.length - 1] != _tokenA) revert INVALID_ROUTE(_rewardToken, _tokenA);\r\n                _sushiswapRouter.swapExactTokensForTokens(rewardTokenHalf, swapInfos[0].amountOutMin, route, address(this), block.timestamp);\r\n            }\r\n\r\n            if (_tokenB != _rewardToken) {\r\n                address[] calldata route = swapInfos[1].route;\r\n                if(route[0] != _rewardToken || route[route.length - 1] != _tokenB) revert INVALID_ROUTE(_rewardToken, _tokenB);\r\n                _sushiswapRouter.swapExactTokensForTokens(rewardTokenHalf, swapInfos[1].amountOutMin, route, address(this), block.timestamp);\r\n            }\r\n        }\r\n        \r\n        if (rewarderTokenHalf > 0) {\r\n            if (_tokenA != _rewarderToken) {\r\n                address[] calldata route = swapInfos[2].route;\r\n                if (route[0] != _rewarderToken || route[route.length - 1] != _tokenA) revert INVALID_ROUTE(_rewarderToken, _tokenA);\r\n                _sushiswapRouter.swapExactTokensForTokens(rewarderTokenHalf, swapInfos[2].amountOutMin, route, address(this), block.timestamp);\r\n            }\r\n\r\n            if (_tokenB != _rewarderToken) {\r\n                address[] calldata route = swapInfos[3].route;\r\n                if (route[0] != _rewarderToken || route[route.length - 1] != _tokenB) revert INVALID_ROUTE(_rewarderToken, _tokenB);\r\n                _sushiswapRouter.swapExactTokensForTokens(rewarderTokenHalf, swapInfos[3].amountOutMin, route, address(this), block.timestamp);\r\n            }\r\n        }\r\n        }\r\n\r\n        (,,reward) = _sushiswapRouter.addLiquidity(_tokenA, _tokenB, IERC20(_tokenA).balanceOf(address(this)), IERC20(_tokenB).balanceOf(address(this)), swapInfos[0].amountOutMin + swapInfos[2].amountOutMin, swapInfos[1].amountOutMin + swapInfos[3].amountOutMin, address(this), block.timestamp);\r\n        \r\n        uint256 rewardPerDepositAge = reward * fractionMultiplier / (totalDepositAge + totalDeposits * (block.number - totalDepositLastUpdate));\r\n        uint256 cumulativeRewardAgePerDepositAge = distributionInfo[_distributionID - 1].cumulativeRewardAgePerDepositAge + rewardPerDepositAge * (block.number - distributionInfo[_distributionID - 1].block);\r\n\r\n        distributionInfo[_distributionID] = DistributionInfo({\r\n            block: block.number,\r\n            rewardPerDepositAge: rewardPerDepositAge,\r\n            cumulativeRewardAgePerDepositAge: cumulativeRewardAgePerDepositAge\r\n        });\r\n\r\n        distributionID = _distributionID + 1;\r\n        totalDepositLastUpdate = block.number;\r\n        totalDepositAge = 0;\r\n            \r\n        MiniChef.deposit(pid, reward, address(this));\r\n    }\r\n    \r\n    /**\r\n\t * @dev Sends fees to feeTo.\r\n\t */\r\n\tfunction _collectFees(IERC20 token, uint256 balance, FeeInfo calldata feeInfo) internal returns(uint256 feeAmount) {\r\n\t\tif (feeInfo.feeTo != address(0)) {\r\n\t\t\tfeeAmount = balance * feeInfo.fee / fractionMultiplier;\r\n\t\t\tif (feeAmount > 0) {\r\n\t\t\t\ttoken.safeTransfer(feeInfo.feeTo, feeAmount);\r\n\t\t\t}\r\n\t\t}\r\n\t}\r\n\r\n    /**\r\n     * @dev Returns total funds staked by the {_address}.\r\n     */\r\n    function userBalance(address _address) external view returns (uint256) {\r\n        return userInfo[_address].stake + _userReward(_address);\r\n    }\r\n\r\n    /**\r\n     * @dev Returns total funds locked in the farm.\r\n     */\r\n    function getTotalDeposits() external view returns (uint256 _totalDeposits) {\r\n        if(totalDeposits > 0){\r\n            (_totalDeposits,) = MiniChef.userInfo(pid, address(this));\r\n        }\r\n    }\r\n    \r\n    function _updateDeposit(address _address) internal {\r\n        UserInfo storage user = userInfo[_address];\r\n        // Accumulate deposit age within the current distribution period.\r\n        if (user.lastDistribution == distributionID) {\r\n            // Add deposit age from previous deposit age update to now.\r\n            user.depositAge += user.stake * (block.number - user.lastUpdate);\r\n        } else {\r\n            // A reward has been distributed, update user.reward.\r\n            user.reward = _userReward(_address);\r\n            // Count fresh deposit age from previous reward distribution to now.\r\n            user.depositAge = user.stake * (block.number - distributionInfo[distributionID - 1].block);\r\n        }\r\n\r\n        user.lastDistribution = distributionID;\r\n        user.lastUpdate = block.number;\r\n\r\n        // Same with total deposit age.\r\n        totalDepositAge += (block.number - totalDepositLastUpdate) * totalDeposits;\r\n        totalDepositLastUpdate = block.number;\r\n    }\r\n\r\n    function _userReward(address _address) internal view returns (uint256) {\r\n        UserInfo memory user = userInfo[_address];\r\n        if (user.lastDistribution == distributionID) {\r\n            // Return user.reward if the distribution after the last user deposit did not happen yet.\r\n            return user.reward;\r\n        }\r\n        DistributionInfo memory lastUserDistributionInfo = distributionInfo[user.lastDistribution];\r\n        uint256 userDepositAge = user.depositAge + user.stake * (lastUserDistributionInfo.block - user.lastUpdate);\r\n        // Calculate reward between the last user deposit and the distribution after that.\r\n        uint256 rewardBeforeDistibution = userDepositAge * lastUserDistributionInfo.rewardPerDepositAge / fractionMultiplier;\r\n        // Calculate reward from the distributions that have happened after the last user deposit.\r\n        uint256 rewardAfterDistribution = user.stake * (distributionInfo[distributionID - 1].cumulativeRewardAgePerDepositAge - lastUserDistributionInfo.cumulativeRewardAgePerDepositAge) / fractionMultiplier;\r\n        return user.reward + rewardBeforeDistibution + rewardAfterDistribution;\r\n    }\r\n\r\n    /**\r\n     * @dev Get pid by iterating over all pools and comparing pids.\r\n     */\r\n    function _getPid(address _lpPool) internal view returns (uint256 _pid) {\r\n        bool poolExists = false;\r\n        for (uint256 i = 0; i < MiniChef.poolLength(); i++) {\r\n            if (MiniChef.lpToken(i) == _lpPool) {\r\n                _pid = i;\r\n                poolExists = true;\r\n                break;\r\n            }\r\n        }\r\n        if(!poolExists) revert PID_NOT_EXISTS();\r\n        return _pid;\r\n    }\r\n}\r\n",
  "sourcePath": "C:\\Users\\jugli\\Desktop\\uno\\uno-contracts\\contracts\\apps\\sushiswap\\UnoFarmSushiswap.sol",
  "compiler": {
    "name": "solc",
    "version": "0.8.19+commit.7dd6d404.Emscripten.clang"
  },
  "schemaVersion": "3.4.16",
  "updatedAt": "2023-09-27T13:55:33.234Z",
  "devdoc": {
    "events": {
      "Initialized(uint8)": {
        "details": "Triggered when the contract has been initialized or reinitialized."
      }
    },
    "kind": "dev",
    "methods": {
      "deposit(uint256,address)": {
        "details": "Function that makes the deposits. Stakes {amount} of LP tokens from this contract's balance in the {MiniChef}."
      },
      "distribute((address[],uint256)[4],(address,uint256))": {
        "details": "Core function of the strat, in charge of updating, collecting and re-investing rewards. 1. It claims rewards from the {MiniChef}. 2. It swaps {rewardToken} token for {tokenA} & {tokenB}. 3. It deposits new LP tokens back to the {MiniChef}."
      },
      "getTotalDeposits()": {
        "details": "Returns total funds locked in the farm."
      },
      "userBalance(address)": {
        "details": "Returns total funds staked by the {_address}."
      },
      "withdraw(uint256,address,address)": {
        "details": "Withdraws funds from {origin} and sends them to the {recipient}."
      }
    },
    "stateVariables": {
      "assetRouter": {
        "details": "Contract Variables: {assetRouter} - The contract from which calls to this farm are made."
      },
      "pid": {
        "details": "Contract Variables: {pid} - Pool ID. {totalDeposits} - Total deposits made by users. {totalDepositAge} - Deposits multiplied by blocks the deposit has been in. Flushed every reward distribution. {totalDepositLastUpdate} - Last {totalDepositAge} update block. {distributionID} - Current distribution ID. {userInfo} - Info on each user. {distributionInfo} - Info on each distribution. {fractionMultiplier} - Used to store decimal values."
      },
      "rewardToken": {
        "details": "Tokens Used: {rewardToken} - Token generated by staking (SUSHI). {rewarderToken} - Token generated by ComplexRewarderTime contract. {lpPool} - Token that the strategy maximizes. The same token that users deposit in the {MiniChef}. {tokenA, tokenB} - Tokens that the strategy maximizes."
      },
      "sushiswapRouter": {
        "details": "Third Party Contracts: {sushiswapRouter} - The contract that executes swaps. {MiniChef} -The contract that distibutes {rewardToken}."
      }
    },
    "version": 1
  },
  "userdoc": {
    "kind": "user",
    "methods": {},
    "version": 1
  }
}