{
  "contractName": "UnoFarmMeshswap",
  "abi": [
    {
      "anonymous": false,
      "inputs": [
        {
          "indexed": false,
          "internalType": "uint8",
          "name": "version",
          "type": "uint8"
        }
      ],
      "name": "Initialized",
      "type": "event"
    },
    {
      "inputs": [],
      "name": "assetRouter",
      "outputs": [
        {
          "internalType": "address",
          "name": "",
          "type": "address"
        }
      ],
      "stateMutability": "view",
      "type": "function"
    },
    {
      "inputs": [],
      "name": "lpPair",
      "outputs": [
        {
          "internalType": "address",
          "name": "",
          "type": "address"
        }
      ],
      "stateMutability": "view",
      "type": "function"
    },
    {
      "inputs": [],
      "name": "rewardToken",
      "outputs": [
        {
          "internalType": "address",
          "name": "",
          "type": "address"
        }
      ],
      "stateMutability": "view",
      "type": "function"
    },
    {
      "inputs": [],
      "name": "tokenA",
      "outputs": [
        {
          "internalType": "address",
          "name": "",
          "type": "address"
        }
      ],
      "stateMutability": "view",
      "type": "function"
    },
    {
      "inputs": [],
      "name": "tokenB",
      "outputs": [
        {
          "internalType": "address",
          "name": "",
          "type": "address"
        }
      ],
      "stateMutability": "view",
      "type": "function"
    },
    {
      "inputs": [
        {
          "internalType": "address",
          "name": "_lpPair",
          "type": "address"
        },
        {
          "internalType": "address",
          "name": "_assetRouter",
          "type": "address"
        }
      ],
      "name": "initialize",
      "outputs": [],
      "stateMutability": "nonpayable",
      "type": "function"
    },
    {
      "inputs": [
        {
          "internalType": "uint256",
          "name": "amount",
          "type": "uint256"
        },
        {
          "internalType": "address",
          "name": "recipient",
          "type": "address"
        }
      ],
      "name": "deposit",
      "outputs": [],
      "stateMutability": "nonpayable",
      "type": "function"
    },
    {
      "inputs": [
        {
          "internalType": "uint256",
          "name": "amount",
          "type": "uint256"
        },
        {
          "internalType": "address",
          "name": "origin",
          "type": "address"
        },
        {
          "internalType": "address",
          "name": "recipient",
          "type": "address"
        }
      ],
      "name": "withdraw",
      "outputs": [],
      "stateMutability": "nonpayable",
      "type": "function"
    },
    {
      "inputs": [
        {
          "components": [
            {
              "internalType": "address[]",
              "name": "route",
              "type": "address[]"
            },
            {
              "internalType": "uint256",
              "name": "amountOutMin",
              "type": "uint256"
            }
          ],
          "internalType": "struct UnoFarmMeshswap.SwapInfo[2]",
          "name": "swapInfos",
          "type": "tuple[2]"
        },
        {
          "components": [
            {
              "internalType": "address[]",
              "name": "route",
              "type": "address[]"
            },
            {
              "internalType": "uint256",
              "name": "amountOutMin",
              "type": "uint256"
            }
          ],
          "internalType": "struct UnoFarmMeshswap.SwapInfo",
          "name": "feeSwapInfo",
          "type": "tuple"
        },
        {
          "components": [
            {
              "internalType": "address",
              "name": "feeTo",
              "type": "address"
            },
            {
              "internalType": "uint256",
              "name": "fee",
              "type": "uint256"
            }
          ],
          "internalType": "struct UnoFarmMeshswap.FeeInfo",
          "name": "feeInfo",
          "type": "tuple"
        }
      ],
      "name": "distribute",
      "outputs": [
        {
          "internalType": "uint256",
          "name": "reward",
          "type": "uint256"
        }
      ],
      "stateMutability": "nonpayable",
      "type": "function"
    },
    {
      "inputs": [
        {
          "internalType": "address",
          "name": "_address",
          "type": "address"
        }
      ],
      "name": "userBalance",
      "outputs": [
        {
          "internalType": "uint256",
          "name": "",
          "type": "uint256"
        }
      ],
      "stateMutability": "view",
      "type": "function"
    },
    {
      "inputs": [],
      "name": "getTotalDeposits",
      "outputs": [
        {
          "internalType": "uint256",
          "name": "_totalDeposits",
          "type": "uint256"
        }
      ],
      "stateMutability": "view",
      "type": "function"
    }
  ],
  "bytecode": "0x608060405234801561001057600080fd5b506121e2806100206000396000f3fe608060405234801561001057600080fd5b50600436106100a95760003560e01c8063485cc95511610071578063485cc9551461012d5780635f64b55b146101425780636e553f6514610155578063b460af9414610168578063bc0aac101461017b578063f7c618c11461018e57600080fd5b80630103c92b146100ae5780630fc63d10146100d4578063168a4822146100ff57806336eeb1dd14610107578063452ed4f11461011a575b600080fd5b6100c16100bc366004611bb6565b6101a1565b6040519081526020015b60405180910390f35b6035546100e7906001600160a01b031681565b6040516001600160a01b0390911681526020016100cb565b6100c16101d5565b6100c1610115366004611beb565b610252565b6034546100e7906001600160a01b031681565b61014061013b366004611c69565b610ad8565b005b6036546100e7906001600160a01b031681565b610140610163366004611ca2565b611050565b610140610176366004611cc7565b611141565b603d546100e7906001600160a01b031681565b6033546100e7906001600160a01b031681565b60006101ac826112d6565b6001600160a01b0383166000908152603b60205260409020546101cf9190611d1f565b92915050565b6037546000901561024f576034546040516370a0823160e01b81523060048201526001600160a01b03909116906370a0823190602401602060405180830381865afa158015610228573d6000803e3d6000fd5b505050506040513d601f19601f8201168201806040525081019061024c9190611d37565b90505b90565b603d546000906001600160a01b031633146102885760405162461bcd60e51b815260040161027f90611d50565b60405180910390fd5b600260015414156102ab5760405162461bcd60e51b815260040161027f90611d87565b60026001556037546102ee5760405162461bcd60e51b815260206004820152600c60248201526b4e4f5f4c495155494449545960a01b604482015260640161027f565b603a544390603c9060009061030b9060019063ffffffff16611dbe565b63ffffffff16815260208101919091526040016000205414156103705760405162461bcd60e51b815260206004820152601b60248201527f43414e545f43414c4c5f4f4e5f5448455f53414d455f424c4f434b0000000000604482015260640161027f565b603460009054906101000a90046001600160a01b03166001600160a01b031663b88a802f6040518163ffffffff1660e01b8152600401600060405180830381600087803b1580156103c057600080fd5b505af11580156103d4573d6000803e3d6000fd5b505050506103e2838361146b565b6033546040516370a0823160e01b81523060048201526000916002916001600160a01b03909116906370a0823190602401602060405180830381865afa158015610430573d6000803e3d6000fd5b505050506040513d601f19601f820116820180604052508101906104549190611d37565b61045e9190611de3565b6033546035549192506001600160a01b03918216911614610605573660006104868780611e1b565b6104909080611e3b565b60335491935091506001600160a01b031682826000816104b2576104b2611e05565b90506020020160208101906104c79190611bb6565b6001600160a01b031614801561052057506035546001600160a01b031682826104f1600182611e8c565b81811061050057610500611e05565b90506020020160208101906105159190611bb6565b6001600160a01b0316145b61056c5760405162461bcd60e51b815260206004820152601860248201527f4241445f5245574152445f544f4b454e5f415f524f5554450000000000000000604482015260640161027f565b7310f4a785f458bc144e37065759248899549466396338ed1739846105918a80611e1b565b60200135858530426040518763ffffffff1660e01b81526004016105ba96959493929190611ea3565b6000604051808303816000875af11580156105d9573d6000803e3d6000fd5b505050506040513d6000823e601f3d908101601f191682016040526106019190810190611f2c565b5050505b6033546036546001600160a01b039081169116146107af5736600061062d6020880188611e1b565b6106379080611e3b565b60335491935091506001600160a01b0316828260008161065957610659611e05565b905060200201602081019061066e9190611bb6565b6001600160a01b03161480156106c757506036546001600160a01b03168282610698600182611e8c565b8181106106a7576106a7611e05565b90506020020160208101906106bc9190611bb6565b6001600160a01b0316145b6107135760405162461bcd60e51b815260206004820152601860248201527f4241445f5245574152445f544f4b454e5f425f524f5554450000000000000000604482015260640161027f565b7310f4a785f458bc144e37065759248899549466396338ed17398461073b60208b018b611e1b565b60200135858530426040518763ffffffff1660e01b815260040161076496959493929190611ea3565b6000604051808303816000875af1158015610783573d6000803e3d6000fd5b505050506040513d6000823e601f3d908101601f191682016040526107ab9190810190611f2c565b5050505b6035546036546040516370a0823160e01b81523060048201527310f4a785f458bc144e37065759248899549466399263e8e33700926001600160a01b039182169291169082906370a0823190602401602060405180830381865afa15801561081b573d6000803e3d6000fd5b505050506040513d601f19601f8201168201806040525081019061083f9190611d37565b6036546040516370a0823160e01b81523060048201526001600160a01b03909116906370a0823190602401602060405180830381865afa158015610887573d6000803e3d6000fd5b505050506040513d601f19601f820116820180604052508101906108ab9190611d37565b6108b58b80611e1b565b602090810135906108c8908d018d611e1b565b6040516001600160e01b031960e089901b1681526001600160a01b0396871660048201529590941660248601526044850192909252606484015260848301526020013560a48201523060c48201524260e4820152610104016060604051808303816000875af115801561093f573d6000803e3d6000fd5b505050506040513d601f19601f820116820180604052508101906109639190611fea565b60395490945060009250610978915043611e8c565b6037546109859190612018565b6038546109929190611d1f565b6109a4670de0b6b3a764000085612018565b6109ae9190611de3565b603a54909150600090603c9082906109ce9060019063ffffffff16611dbe565b63ffffffff1681526020810191909152604001600020546109ef9043611e8c565b6109f99083612018565b603a54603c90600090610a149060019063ffffffff16611dbe565b63ffffffff1663ffffffff16815260200190815260200160002060020154610a3c9190611d1f565b604080516060810182524381526020808201868152828401858152603a805463ffffffff9081166000908152603c90955295842094518555915160018581019190915590516002909401939093558054949550919391929091610aa191859116612037565b825463ffffffff9182166101009390930a928302919092021990911617905550504360395550506000603855600180559392505050565b6000610ae460016116fc565b90508015610afc576000805461ff0019166101001790555b6001600160a01b038316610b405760405162461bcd60e51b815260206004820152600b60248201526a10905117d31417d413d3d360aa1b604482015260640161027f565b6001600160a01b038216610b895760405162461bcd60e51b815260206004820152601060248201526f2120a22fa0a9a9a2aa2fa927aaaa22a960811b604482015260640161027f565b610b91611784565b603d80546001600160a01b038085166001600160a01b031992831617909255603480549286169290911682179055604080516307bb5d7760e51b8152905163f76baee0916004808201926020929091908290030181865afa158015610bfa573d6000803e3d6000fd5b505050506040513d601f19601f82011682018060405250810190610c1e919061205f565b603380546001600160a01b0319166001600160a01b0392831617905560345460408051630dfe168160e01b815290519190921691630dfe16819160048083019260209291908290030181865afa158015610c7c573d6000803e3d6000fd5b505050506040513d601f19601f82011682018060405250810190610ca0919061205f565b603580546001600160a01b0319166001600160a01b039283161790556034546040805163d21220a760e01b81529051919092169163d21220a79160048083019260209291908290030181865afa158015610cfe573d6000803e3d6000fd5b505050506040513d601f19601f82011682018060405250810190610d22919061205f565b603680546001600160a01b0319166001600160a01b03928316179055604080516060810182524380825260006020808401828152848601838152928052603c90915292517f33d13c149959174817b07214f6faff3d4c1d39ff89c6e7f82e2df5f04c00a0ec5591517f33d13c149959174817b07214f6faff3d4c1d39ff89c6e7f82e2df5f04c00a0ed5590517f33d13c149959174817b07214f6faff3d4c1d39ff89c6e7f82e2df5f04c00a0ee55603a805463ffffffff19166001179055603955603454905163095ea7b360e01b81527310f4a785f458bc144e37065759248899549466396004820152600019602482015291169063095ea7b3906044016020604051808303816000875af1158015610e3f573d6000803e3d6000fd5b505050506040513d601f19601f82011682018060405250810190610e63919061207c565b5060335460405163095ea7b360e01b81527310f4a785f458bc144e3706575924889954946639600482015260001960248201526001600160a01b039091169063095ea7b3906044016020604051808303816000875af1158015610eca573d6000803e3d6000fd5b505050506040513d601f19601f82011682018060405250810190610eee919061207c565b5060355460405163095ea7b360e01b81527310f4a785f458bc144e3706575924889954946639600482015260001960248201526001600160a01b039091169063095ea7b3906044016020604051808303816000875af1158015610f55573d6000803e3d6000fd5b505050506040513d601f19601f82011682018060405250810190610f79919061207c565b5060365460405163095ea7b360e01b81527310f4a785f458bc144e3706575924889954946639600482015260001960248201526001600160a01b039091169063095ea7b3906044016020604051808303816000875af1158015610fe0573d6000803e3d6000fd5b505050506040513d601f19601f82011682018060405250810190611004919061207c565b50801561104b576000805461ff0019169055604051600181527f7f26b83ff96e1f2b6a682f133852f6798a09c465da95921460cefb38474024989060200160405180910390a15b505050565b600260015414156110735760405162461bcd60e51b815260040161027f90611d87565b6002600155603d546001600160a01b031633146110a25760405162461bcd60e51b815260040161027f90611d50565b600082116110ea5760405162461bcd60e51b81526020600482015260156024820152741393d7d3125455525112551657d41493d592511151605a1b604482015260640161027f565b6110f3816117b5565b6001600160a01b0381166000908152603b60205260408120805484929061111b908490611d1f565b9250508190555081603760008282546111349190611d1f565b9091555050600180555050565b600260015414156111645760405162461bcd60e51b815260040161027f90611d87565b6002600155603d546001600160a01b031633146111935760405162461bcd60e51b815260040161027f90611d50565b600083116111d95760405162461bcd60e51b8152602060048201526013602482015272125394d551919250d251539517d05353d55395606a1b604482015260640161027f565b6111e2826117b5565b6001600160a01b0382166000908152603b60205260409020600281015484111561129b576002810154815460009161121991611d1f565b9050808511156112625760405162461bcd60e51b8152602060048201526014602482015273494e53554646494349454e545f42414c414e434560601b604482015260640161027f565b61126c8582611e8c565b82556002820154603754869161128191611d1f565b61128b9190611e8c565b60375550600060028201556112b5565b838160020160008282546112af9190611e8c565b90915550505b6034546112cc906001600160a01b031683866118da565b5050600180555050565b6001600160a01b0381166000908152603b60209081526040808320815160a08101835281548152600182015493810193909352600281015491830191909152600381015463ffffffff908116606084018190526004909201546080840152603a54161415611348576040015192915050565b60608082015163ffffffff166000908152603c602090815260408083208151948501825280548086526001820154938601939093526002015490840152608084015161139391611e8c565b835161139f9190612018565b83602001516113ae9190611d1f565b90506000670de0b6b3a76400008360200151836113cb9190612018565b6113d59190611de3565b6040840151603a54919250600091670de0b6b3a76400009190603c9084906114059060019063ffffffff16611dbe565b63ffffffff1663ffffffff1681526020019081526020016000206002015461142d9190611e8c565b86516114399190612018565b6114439190611de3565b9050808286604001516114569190611d1f565b6114609190611d1f565b979650505050505050565b600061147a6020830183611bb6565b6001600160a01b0316146116f8576033546040516370a0823160e01b8152306004820152600091670de0b6b3a7640000916020850135916001600160a01b0316906370a0823190602401602060405180830381865afa1580156114e1573d6000803e3d6000fd5b505050506040513d601f19601f820116820180604052508101906115059190611d37565b61150f9190612018565b6115199190611de3565b9050801561104b5736600061152e8580611e3b565b909250905080158015906115ab5750818161154a600182611e8c565b81811061155957611559611e05565b905060200201602081019061156e9190611bb6565b6001600160a01b03168282600081811061158a5761158a611e05565b905060200201602081019061159f9190611bb6565b6001600160a01b031614155b156116d1576033546001600160a01b031682826000816115cd576115cd611e05565b90506020020160208101906115e29190611bb6565b6001600160a01b03161461162e5760405162461bcd60e51b81526020600482015260136024820152724241445f4645455f544f4b454e5f524f55544560681b604482015260640161027f565b7310f4a785f458bc144e37065759248899549466396338ed1739846020808901359086908690611660908b018b611bb6565b426040518763ffffffff1660e01b815260040161168296959493929190611ea3565b6000604051808303816000875af11580156116a1573d6000803e3d6000fd5b505050506040513d6000823e601f3d908101601f191682016040526116c99190810190611f2c565b505050505050565b6116f46116e16020860186611bb6565b6033546001600160a01b031690856118da565b5050505b5050565b60008054610100900460ff1615611743578160ff16600114801561171f5750303b155b61173b5760405162461bcd60e51b815260040161027f9061209e565b506000919050565b60005460ff80841691161061176a5760405162461bcd60e51b815260040161027f9061209e565b506000805460ff191660ff92909216919091179055600190565b600054610100900460ff166117ab5760405162461bcd60e51b815260040161027f906120ec565b6117b361192c565b565b6001600160a01b0381166000908152603b60205260409020603a54600382015463ffffffff9081169116141561181e5760048101546117f49043611e8c565b81546118009190612018565b8160010160008282546118139190611d1f565b9091555061187a9050565b611827826112d6565b6002820155603a54603c906000906118479060019063ffffffff16611dbe565b63ffffffff1681526020810191909152604001600020546118689043611e8c565b81546118749190612018565b60018201555b603a5460038201805463ffffffff191663ffffffff909216919091179055436004820181905560375460395490916118b29190611e8c565b6118bc9190612018565b603860008282546118cd9190611d1f565b9091555050436039555050565b604080516001600160a01b038416602482015260448082018490528251808303909101815260649091019091526020810180516001600160e01b031663a9059cbb60e01b17905261104b908490611959565b600054610100900460ff166119535760405162461bcd60e51b815260040161027f906120ec565b60018055565b60006119ae826040518060400160405280602081526020017f5361666545524332303a206c6f772d6c6576656c2063616c6c206661696c6564815250856001600160a01b0316611a2b9092919063ffffffff16565b80519091501561104b57808060200190518101906119cc919061207c565b61104b5760405162461bcd60e51b815260206004820152602a60248201527f5361666545524332303a204552433230206f7065726174696f6e20646964206e6044820152691bdd081cdd58d8d9595960b21b606482015260840161027f565b6060611a3a8484600085611a44565b90505b9392505050565b606082471015611aa55760405162461bcd60e51b815260206004820152602660248201527f416464726573733a20696e73756666696369656e742062616c616e636520666f6044820152651c8818d85b1b60d21b606482015260840161027f565b6001600160a01b0385163b611afc5760405162461bcd60e51b815260206004820152601d60248201527f416464726573733a2063616c6c20746f206e6f6e2d636f6e7472616374000000604482015260640161027f565b600080866001600160a01b03168587604051611b189190612167565b60006040518083038185875af1925050503d8060008114611b55576040519150601f19603f3d011682016040523d82523d6000602084013e611b5a565b606091505b509150915061146082828660608315611b74575081611a3d565b825115611b845782518084602001fd5b8160405162461bcd60e51b815260040161027f9190612179565b6001600160a01b0381168114611bb357600080fd5b50565b600060208284031215611bc857600080fd5b8135611a3d81611b9e565b600060408284031215611be557600080fd5b50919050565b600080600060808486031215611c0057600080fd5b833567ffffffffffffffff80821115611c1857600080fd5b818601915086604083011115611c2d57600080fd5b90935060208501359080821115611c4357600080fd5b50611c5086828701611bd3565b925050611c608560408601611bd3565b90509250925092565b60008060408385031215611c7c57600080fd5b8235611c8781611b9e565b91506020830135611c9781611b9e565b809150509250929050565b60008060408385031215611cb557600080fd5b823591506020830135611c9781611b9e565b600080600060608486031215611cdc57600080fd5b833592506020840135611cee81611b9e565b91506040840135611cfe81611b9e565b809150509250925092565b634e487b7160e01b600052601160045260246000fd5b60008219821115611d3257611d32611d09565b500190565b600060208284031215611d4957600080fd5b5051919050565b60208082526017908201527f43414c4c45525f4e4f545f41535345545f524f55544552000000000000000000604082015260600190565b6020808252601f908201527f5265656e7472616e637947756172643a207265656e7472616e742063616c6c00604082015260600190565b600063ffffffff83811690831681811015611ddb57611ddb611d09565b039392505050565b600082611e0057634e487b7160e01b600052601260045260246000fd5b500490565b634e487b7160e01b600052603260045260246000fd5b60008235603e19833603018112611e3157600080fd5b9190910192915050565b6000808335601e19843603018112611e5257600080fd5b83018035915067ffffffffffffffff821115611e6d57600080fd5b6020019150600581901b3603821315611e8557600080fd5b9250929050565b600082821015611e9e57611e9e611d09565b500390565b868152602080820187905260a0604083018190528201859052600090869060c08401835b88811015611ef5578335611eda81611b9e565b6001600160a01b031682529282019290820190600101611ec7565b506001600160a01b0396909616606085015250505060800152949350505050565b634e487b7160e01b600052604160045260246000fd5b60006020808385031215611f3f57600080fd5b825167ffffffffffffffff80821115611f5757600080fd5b818501915085601f830112611f6b57600080fd5b815181811115611f7d57611f7d611f16565b8060051b604051601f19603f83011681018181108582111715611fa257611fa2611f16565b604052918252848201925083810185019188831115611fc057600080fd5b938501935b82851015611fde57845184529385019392850192611fc5565b98975050505050505050565b600080600060608486031215611fff57600080fd5b8351925060208401519150604084015190509250925092565b600081600019048311821515161561203257612032611d09565b500290565b600063ffffffff80831681851680830382111561205657612056611d09565b01949350505050565b60006020828403121561207157600080fd5b8151611a3d81611b9e565b60006020828403121561208e57600080fd5b81518015158114611a3d57600080fd5b6020808252602e908201527f496e697469616c697a61626c653a20636f6e747261637420697320616c72656160408201526d191e481a5b9a5d1a585b1a5e995960921b606082015260800190565b6020808252602b908201527f496e697469616c697a61626c653a20636f6e7472616374206973206e6f74206960408201526a6e697469616c697a696e6760a81b606082015260800190565b60005b8381101561215257818101518382015260200161213a565b83811115612161576000848401525b50505050565b60008251611e31818460208701612137565b6020815260008251806020840152612198816040850160208701612137565b601f01601f1916919091016040019291505056fea26469706673582212200f085a48916d66783ac8ef39d110729de5f9c1b060443b38ef19a23cf0439c6064736f6c634300080a0033",
  "immutableReferences": {},
  "source": "// SPDX-License-Identifier: MIT\r\npragma solidity 0.8.10;\r\n\r\nimport \"../../interfaces/IUniswapV2Router.sol\";\r\nimport \"../../interfaces/IExchangeMeshwap.sol\";\r\nimport \"@openzeppelin/contracts-upgradeable/security/ReentrancyGuardUpgradeable.sol\";\r\nimport \"@openzeppelin/contracts-upgradeable/token/ERC20/utils/SafeERC20Upgradeable.sol\";\r\nimport \"@openzeppelin/contracts-upgradeable/token/ERC20/IERC20Upgradeable.sol\";\r\nimport \"@openzeppelin/contracts-upgradeable/proxy/utils/Initializable.sol\";\r\n\r\ncontract UnoFarmMeshswap is Initializable, ReentrancyGuardUpgradeable {\r\n\tusing SafeERC20Upgradeable for IERC20Upgradeable;\r\n\t/**\r\n\t * @dev DistributionInfo:\r\n\t * {block} - Distribution block number.\r\n\t * {rewardPerDepositAge} - Distribution reward divided by {totalDepositAge}.\r\n\t * {cumulativeRewardAgePerDepositAge} - Sum of {rewardPerDepositAge}s multiplied by distribution interval.\r\n\t */\r\n\tstruct DistributionInfo {\r\n\t\tuint256 block;\r\n\t\tuint256 rewardPerDepositAge;\r\n\t\tuint256 cumulativeRewardAgePerDepositAge;\r\n\t}\r\n\t/**\r\n\t * @dev UserInfo:\r\n\t * {stake} - Amount of LP tokens deposited by the user.\r\n\t * {depositAge} - User deposits multiplied by blocks the deposit has been in.\r\n\t * {reward} - Amount of LP tokens entitled to the user.\r\n\t * {lastDistribution} - Distribution ID before the last user deposit.\r\n\t * {lastUpdate} - Deposit update block.\r\n\t */\r\n\tstruct UserInfo {\r\n\t\tuint256 stake;\r\n\t\tuint256 depositAge;\r\n\t\tuint256 reward;\r\n\t\tuint32 lastDistribution;\r\n\t\tuint256 lastUpdate;\r\n\t}\r\n\t/**\r\n\t * @dev SwapInfo:\r\n\t * {route} - Array of token addresses describing swap routes.\r\n\t * {amountOutMin} - The minimum amount of output token that must be received for the transaction not to revert.\r\n\t */\r\n\tstruct SwapInfo {\r\n\t\taddress[] route;\r\n\t\tuint256 amountOutMin;\r\n\t}\r\n\t/**\r\n\t * @dev FeeInfo:\r\n\t * {feeCollector} - Contract to transfer fees to.\r\n\t * {fee} - Fee percentage to collect (10^18 == 100%).\r\n\t */\r\n\tstruct FeeInfo {\r\n\t\taddress feeTo;\r\n\t\tuint256 fee;\r\n\t}\r\n\r\n\t/**\r\n\t * @dev Tokens Used:\r\n\t * {rewardToken} - Token generated by staking (MESH).\r\n\t * {rewarderToken} - Token generated by ComplexRewarderTime contract.\r\n\t * {lpPair} - Token that the strategy maximizes.\r\n\t * {tokenA, tokenB} - Tokens that the strategy maximizes.\r\n\t */\r\n\taddress public rewardToken;\r\n\taddress public lpPair;\r\n\taddress public tokenA;\r\n\taddress public tokenB;\r\n\r\n\t/**\r\n\t * @dev Third Party Contracts:\r\n\t * {MeshswapRouter} - The contract that executes swaps.\r\n\t */\r\n\tIUniswapV2Router01 private constant MeshswapRouter = IUniswapV2Router01(0x10f4A785F458Bc144e3706575924889954946639);\r\n\r\n\t/**\r\n     * @dev Contract Variables:\r\n\r\n     * {totalDeposits} - Total deposits made by users.\r\n     * {totalDepositAge} - Deposits multiplied by blocks the deposit has been in. Flushed every reward distribution.\r\n     * {totalDepositLastUpdate} - Last {totalDepositAge} update block.\r\n\r\n     * {distributionID} - Current distribution ID.\r\n     * {userInfo} - Info on each user.\r\n     * {distributionInfo} - Info on each distribution.\r\n\r\n     * {fractionMultiplier} - Used to store decimal values.\r\n     */\r\n\tuint256 private totalDeposits;\r\n\tuint256 private totalDepositAge;\r\n\tuint256 private totalDepositLastUpdate;\r\n\r\n\tuint32 private distributionID;\r\n\tmapping(address => UserInfo) private userInfo;\r\n\tmapping(uint32 => DistributionInfo) private distributionInfo;\r\n\r\n\tuint256 private constant fractionMultiplier = uint256(1 ether);\r\n\r\n\t/**\r\n\t * @dev Contract Variables:\r\n\t * {assetRouter} - The contract from which calls to this farm are made.\r\n\t */\r\n\taddress public assetRouter;\r\n\tmodifier onlyAssetRouter() {\r\n\t\trequire(msg.sender == assetRouter, \"CALLER_NOT_ASSET_ROUTER\");\r\n\t\t_;\r\n\t}\r\n\r\n\t// ============ Methods ============\r\n\r\n\tfunction initialize(address _lpPair, address _assetRouter) external initializer {\r\n\t\trequire(_lpPair != address(0), \"BAD_LP_POOL\");\r\n\t\trequire(_assetRouter != address(0), \"BAD_ASSET_ROUTER\");\r\n\r\n\t\t__ReentrancyGuard_init();\r\n\t\tassetRouter = _assetRouter;\r\n\r\n\t\tlpPair = _lpPair;\r\n\r\n\t\trewardToken = IExchangeMeshwap(_lpPair).mesh();\r\n\t\ttokenA = IExchangeMeshwap(lpPair).token0();\r\n\t\ttokenB = IExchangeMeshwap(lpPair).token1();\r\n\r\n\t\tdistributionInfo[0] = DistributionInfo({\r\n\t\t\tblock: block.number,\r\n\t\t\trewardPerDepositAge: 0,\r\n\t\t\tcumulativeRewardAgePerDepositAge: 0\r\n\t\t});\r\n\t\tdistributionID = 1;\r\n\t\ttotalDepositLastUpdate = block.number;\r\n\r\n\t\tIERC20Upgradeable(lpPair).approve(address(MeshswapRouter), type(uint256).max);\r\n\t\tIERC20Upgradeable(rewardToken).approve(address(MeshswapRouter), type(uint256).max);\r\n\t\tIERC20Upgradeable(tokenA).approve(address(MeshswapRouter), type(uint256).max);\r\n\t\tIERC20Upgradeable(tokenB).approve(address(MeshswapRouter), type(uint256).max);\r\n\t}\r\n\r\n\t/**\r\n\t * @dev Function that makes the deposits.\r\n\t * Stakes {amount} of LP tokens from this contract's balance .\r\n\t */\r\n\tfunction deposit(uint256 amount, address recipient) external nonReentrant onlyAssetRouter{\r\n        require(amount > 0, 'NO_LIQUIDITY_PROVIDED');\r\n\r\n        _updateDeposit(recipient);\r\n        userInfo[recipient].stake += amount;\r\n        totalDeposits += amount;\r\n\t}\r\n\r\n\t/**\r\n     * @dev Withdraws funds from {origin} and sends them to the {recipient}.\r\n     */\r\n    function withdraw(uint256 amount, address origin, address recipient) external nonReentrant onlyAssetRouter{\r\n        require(amount > 0, 'INSUFFICIENT_AMOUNT');\r\n\r\n        _updateDeposit(origin);\r\n        UserInfo storage user = userInfo[origin];\r\n        // Subtract amount from user.reward first, then subtract remainder from user.stake.\r\n        if(amount > user.reward){\r\n            uint256 balance = user.stake + user.reward;\r\n            require(amount <= balance, 'INSUFFICIENT_BALANCE');\r\n            user.stake = balance - amount;\r\n            totalDeposits = totalDeposits + user.reward - amount;\r\n            user.reward = 0;\r\n        } else {\r\n            user.reward -= amount;\r\n        }\r\n\r\n\t\tIERC20Upgradeable(lpPair).safeTransfer(recipient, amount);\r\n    }\r\n\r\n\t/**\r\n\t * @dev Core function of the strat, in charge of updating, collecting and re-investing rewards.\r\n\t * 1. It claims rewards from the {IExchangeMeshwap}.\r\n\t * 2. It swaps {rewardToken} token for {tokenA} & {tokenB}.\r\n\t * 3. It deposits new LP tokens back to the {IExchangeMeshwap}.\r\n\t */\r\n\tfunction distribute(\r\n\t\tSwapInfo[2] calldata swapInfos,\r\n\t\tSwapInfo calldata feeSwapInfo,\r\n\t\tFeeInfo calldata feeInfo\r\n\t) external onlyAssetRouter nonReentrant returns (uint256 reward) {\r\n\t\trequire(totalDeposits > 0, \"NO_LIQUIDITY\");\r\n\t\trequire(distributionInfo[distributionID - 1].block != block.number, \"CANT_CALL_ON_THE_SAME_BLOCK\");\r\n\r\n\t\tIExchangeMeshwap(lpPair).claimReward();\r\n\r\n\t\tcollectFees(feeSwapInfo, feeInfo);\r\n\t\tuint256 rewardTokenHalf = IERC20Upgradeable(rewardToken).balanceOf(address(this)) / 2;\r\n\t\tif (tokenA != rewardToken) {\r\n\t\t\taddress[] calldata route = swapInfos[0].route;\r\n\t\t\trequire(route[0] == rewardToken && route[route.length - 1] == tokenA, \"BAD_REWARD_TOKEN_A_ROUTE\");\r\n\t\t\tMeshswapRouter.swapExactTokensForTokens(rewardTokenHalf, swapInfos[0].amountOutMin, route, address(this), block.timestamp);\r\n\t\t}\r\n\r\n\t\tif (tokenB != rewardToken) {\r\n\t\t\taddress[] calldata route = swapInfos[1].route;\r\n\t\t\trequire(route[0] == rewardToken && route[route.length - 1] == tokenB, \"BAD_REWARD_TOKEN_B_ROUTE\");\r\n\t\t\tMeshswapRouter.swapExactTokensForTokens(rewardTokenHalf, swapInfos[1].amountOutMin, route, address(this), block.timestamp);\r\n\t\t}\r\n\r\n\t\t(,,reward) = MeshswapRouter.addLiquidity(tokenA, tokenB, IERC20Upgradeable(tokenA).balanceOf(address(this)), IERC20Upgradeable(tokenB).balanceOf(address(this)), swapInfos[0].amountOutMin, swapInfos[1].amountOutMin, address(this), block.timestamp);\r\n\r\n\t\tuint256 rewardPerDepositAge = reward * fractionMultiplier / (totalDepositAge + totalDeposits * (block.number - totalDepositLastUpdate));\r\n\t\tuint256 cumulativeRewardAgePerDepositAge = distributionInfo[distributionID - 1].cumulativeRewardAgePerDepositAge + rewardPerDepositAge * (block.number - distributionInfo[distributionID - 1].block);\r\n\r\n\t\tdistributionInfo[distributionID] = DistributionInfo({\r\n\t\t\tblock: block.number,\r\n\t\t\trewardPerDepositAge: rewardPerDepositAge,\r\n\t\t\tcumulativeRewardAgePerDepositAge: cumulativeRewardAgePerDepositAge\r\n\t\t});\r\n\r\n\t\tdistributionID += 1;\r\n\t\ttotalDepositLastUpdate = block.number;\r\n\t\ttotalDepositAge = 0;\r\n\t}\r\n\r\n\t/**\r\n\t * @dev Swaps and sends fees to feeTo.\r\n\t */\r\n\tfunction collectFees(SwapInfo calldata feeSwapInfo, FeeInfo calldata feeInfo) internal {\r\n\t\tif (feeInfo.feeTo != address(0)) {\r\n\t\t\tuint256 feeAmount = IERC20Upgradeable(rewardToken).balanceOf(address(this)) * feeInfo.fee / fractionMultiplier;\r\n\t\t\tif (feeAmount > 0) {\r\n\t\t\t\taddress[] calldata route = feeSwapInfo.route;\r\n\t\t\t\tif (route.length > 0 && route[0] != route[route.length - 1]) {\r\n\t\t\t\t\trequire(route[0] == rewardToken, \"BAD_FEE_TOKEN_ROUTE\");\r\n\t\t\t\t\tMeshswapRouter.swapExactTokensForTokens(feeAmount, feeSwapInfo.amountOutMin, route, feeInfo.feeTo, block.timestamp);\r\n\t\t\t\t\treturn;\r\n\t\t\t\t}\r\n\t\t\t\tIERC20Upgradeable(rewardToken).safeTransfer(feeInfo.feeTo, feeAmount);\r\n\t\t\t}\r\n\t\t}\r\n\t}\r\n\r\n\t/**\r\n\t * @dev Returns total funds staked by the {_address}.\r\n\t */\r\n\tfunction userBalance(address _address) external view returns (uint256) {\r\n\t\treturn userInfo[_address].stake + userReward(_address);\r\n\t}\r\n\r\n\t/**\r\n\t * @dev Returns total funds locked in the farm.\r\n\t */\r\n\tfunction getTotalDeposits() external view returns (uint256 _totalDeposits) {\r\n\t\tif (totalDeposits > 0) {\r\n\t\t\t_totalDeposits = IExchangeMeshwap(lpPair).balanceOf(address(this));\r\n\t\t}\r\n\t}\r\n\r\n\tfunction _updateDeposit(address _address) internal {\r\n\t\tUserInfo storage user = userInfo[_address];\r\n\t\t// Accumulate deposit age within the current distribution period.\r\n\t\tif (user.lastDistribution == distributionID) {\r\n\t\t\t// Add deposit age from previous deposit age update to now.\r\n\t\t\tuser.depositAge += user.stake * (block.number - user.lastUpdate);\r\n\t\t} else {\r\n\t\t\t// A reward has been distributed, update user.reward.\r\n\t\t\tuser.reward = userReward(_address);\r\n\t\t\t// Count fresh deposit age from previous reward distribution to now.\r\n\t\t\tuser.depositAge = user.stake * (block.number - distributionInfo[distributionID - 1].block);\r\n\t\t}\r\n\r\n\t\tuser.lastDistribution = distributionID;\r\n\t\tuser.lastUpdate = block.number;\r\n\r\n\t\t// Same with total deposit age.\r\n\t\ttotalDepositAge += (block.number - totalDepositLastUpdate) * totalDeposits;\r\n\t\ttotalDepositLastUpdate = block.number;\r\n\t}\r\n\r\n    function userReward(address _address) internal view returns (uint256) {\r\n        UserInfo memory user = userInfo[_address];\r\n        if (user.lastDistribution == distributionID) {\r\n            // Return user.reward if the distribution after the last user deposit did not happen yet.\r\n            return user.reward;\r\n        }\r\n        DistributionInfo memory lastUserDistributionInfo = distributionInfo[user.lastDistribution];\r\n        uint256 userDepositAge = user.depositAge + user.stake * (lastUserDistributionInfo.block - user.lastUpdate);\r\n        // Calculate reward between the last user deposit and the distribution after that.\r\n        uint256 rewardBeforeDistibution = userDepositAge * lastUserDistributionInfo.rewardPerDepositAge / fractionMultiplier;\r\n        // Calculate reward from the distributions that have happened after the last user deposit.\r\n        uint256 rewardAfterDistribution = user.stake * (distributionInfo[distributionID - 1].cumulativeRewardAgePerDepositAge - lastUserDistributionInfo.cumulativeRewardAgePerDepositAge) / fractionMultiplier;\r\n        return user.reward + rewardBeforeDistibution + rewardAfterDistribution;\r\n    }\r\n}\r\n",
  "sourcePath": "C:\\Users\\jugli\\Desktop\\uno\\uno-contracts\\contracts\\apps\\meshswap\\UnoFarmMeshswap.sol",
  "compiler": {
    "name": "solc",
    "version": "0.8.10+commit.fc410830.Emscripten.clang"
  },
  "schemaVersion": "3.4.11",
  "updatedAt": "2023-04-26T09:34:46.337Z",
  "devdoc": {
    "kind": "dev",
    "methods": {
      "deposit(uint256,address)": {
        "details": "Function that makes the deposits. Stakes {amount} of LP tokens from this contract's balance ."
      },
      "distribute((address[],uint256)[2],(address[],uint256),(address,uint256))": {
        "details": "Core function of the strat, in charge of updating, collecting and re-investing rewards. 1. It claims rewards from the {IExchangeMeshwap}. 2. It swaps {rewardToken} token for {tokenA} & {tokenB}. 3. It deposits new LP tokens back to the {IExchangeMeshwap}."
      },
      "getTotalDeposits()": {
        "details": "Returns total funds locked in the farm."
      },
      "userBalance(address)": {
        "details": "Returns total funds staked by the {_address}."
      },
      "withdraw(uint256,address,address)": {
        "details": "Withdraws funds from {origin} and sends them to the {recipient}."
      }
    },
    "stateVariables": {
      "MeshswapRouter": {
        "details": "Third Party Contracts: {MeshswapRouter} - The contract that executes swaps."
      },
      "assetRouter": {
        "details": "Contract Variables: {assetRouter} - The contract from which calls to this farm are made."
      },
      "rewardToken": {
        "details": "Tokens Used: {rewardToken} - Token generated by staking (MESH). {rewarderToken} - Token generated by ComplexRewarderTime contract. {lpPair} - Token that the strategy maximizes. {tokenA, tokenB} - Tokens that the strategy maximizes."
      },
      "totalDeposits": {
        "details": "Contract Variables: {totalDeposits} - Total deposits made by users. {totalDepositAge} - Deposits multiplied by blocks the deposit has been in. Flushed every reward distribution. {totalDepositLastUpdate} - Last {totalDepositAge} update block. {distributionID} - Current distribution ID. {userInfo} - Info on each user. {distributionInfo} - Info on each distribution. {fractionMultiplier} - Used to store decimal values."
      }
    },
    "version": 1
  },
  "userdoc": {
    "kind": "user",
    "methods": {},
    "version": 1
  }
}