{
  "contractName": "UnoFarmQuickswapDual",
  "abi": [
    {
      "anonymous": false,
      "inputs": [
        {
          "indexed": false,
          "internalType": "uint8",
          "name": "version",
          "type": "uint8"
        }
      ],
      "name": "Initialized",
      "type": "event"
    },
    {
      "inputs": [],
      "name": "assetRouter",
      "outputs": [
        {
          "internalType": "address",
          "name": "",
          "type": "address"
        }
      ],
      "stateMutability": "view",
      "type": "function"
    },
    {
      "inputs": [],
      "name": "lpPair",
      "outputs": [
        {
          "internalType": "address",
          "name": "",
          "type": "address"
        }
      ],
      "stateMutability": "view",
      "type": "function"
    },
    {
      "inputs": [],
      "name": "rewardTokenA",
      "outputs": [
        {
          "internalType": "address",
          "name": "",
          "type": "address"
        }
      ],
      "stateMutability": "view",
      "type": "function"
    },
    {
      "inputs": [],
      "name": "rewardTokenB",
      "outputs": [
        {
          "internalType": "address",
          "name": "",
          "type": "address"
        }
      ],
      "stateMutability": "view",
      "type": "function"
    },
    {
      "inputs": [],
      "name": "tokenA",
      "outputs": [
        {
          "internalType": "address",
          "name": "",
          "type": "address"
        }
      ],
      "stateMutability": "view",
      "type": "function"
    },
    {
      "inputs": [],
      "name": "tokenB",
      "outputs": [
        {
          "internalType": "address",
          "name": "",
          "type": "address"
        }
      ],
      "stateMutability": "view",
      "type": "function"
    },
    {
      "inputs": [
        {
          "internalType": "address",
          "name": "_lpStakingPool",
          "type": "address"
        },
        {
          "internalType": "address",
          "name": "_assetRouter",
          "type": "address"
        }
      ],
      "name": "initialize",
      "outputs": [],
      "stateMutability": "nonpayable",
      "type": "function"
    },
    {
      "inputs": [
        {
          "internalType": "uint256",
          "name": "amountA",
          "type": "uint256"
        },
        {
          "internalType": "uint256",
          "name": "amountB",
          "type": "uint256"
        },
        {
          "internalType": "uint256",
          "name": "amountAMin",
          "type": "uint256"
        },
        {
          "internalType": "uint256",
          "name": "amountBMin",
          "type": "uint256"
        },
        {
          "internalType": "uint256",
          "name": "amountLP",
          "type": "uint256"
        },
        {
          "internalType": "address",
          "name": "origin",
          "type": "address"
        },
        {
          "internalType": "address",
          "name": "recipient",
          "type": "address"
        }
      ],
      "name": "deposit",
      "outputs": [
        {
          "internalType": "uint256",
          "name": "sentA",
          "type": "uint256"
        },
        {
          "internalType": "uint256",
          "name": "sentB",
          "type": "uint256"
        },
        {
          "internalType": "uint256",
          "name": "liquidity",
          "type": "uint256"
        }
      ],
      "stateMutability": "nonpayable",
      "type": "function"
    },
    {
      "inputs": [
        {
          "internalType": "uint256",
          "name": "amount",
          "type": "uint256"
        },
        {
          "internalType": "uint256",
          "name": "amountAMin",
          "type": "uint256"
        },
        {
          "internalType": "uint256",
          "name": "amountBMin",
          "type": "uint256"
        },
        {
          "internalType": "bool",
          "name": "withdrawLP",
          "type": "bool"
        },
        {
          "internalType": "address",
          "name": "origin",
          "type": "address"
        },
        {
          "internalType": "address",
          "name": "recipient",
          "type": "address"
        }
      ],
      "name": "withdraw",
      "outputs": [
        {
          "internalType": "uint256",
          "name": "amountA",
          "type": "uint256"
        },
        {
          "internalType": "uint256",
          "name": "amountB",
          "type": "uint256"
        }
      ],
      "stateMutability": "nonpayable",
      "type": "function"
    },
    {
      "inputs": [
        {
          "internalType": "address[]",
          "name": "rewardTokenAToTokenARoute",
          "type": "address[]"
        },
        {
          "internalType": "address[]",
          "name": "rewardTokenAToTokenBRoute",
          "type": "address[]"
        },
        {
          "internalType": "address[]",
          "name": "rewardTokenBToTokenARoute",
          "type": "address[]"
        },
        {
          "internalType": "address[]",
          "name": "rewardTokenBToTokenBRoute",
          "type": "address[]"
        },
        {
          "internalType": "uint256[4]",
          "name": "amountsOutMin",
          "type": "uint256[4]"
        }
      ],
      "name": "distribute",
      "outputs": [
        {
          "internalType": "uint256",
          "name": "reward",
          "type": "uint256"
        }
      ],
      "stateMutability": "nonpayable",
      "type": "function"
    },
    {
      "inputs": [
        {
          "internalType": "address",
          "name": "_address",
          "type": "address"
        }
      ],
      "name": "userBalance",
      "outputs": [
        {
          "internalType": "uint256",
          "name": "",
          "type": "uint256"
        }
      ],
      "stateMutability": "view",
      "type": "function"
    },
    {
      "inputs": [],
      "name": "getTotalDeposits",
      "outputs": [
        {
          "internalType": "uint256",
          "name": "_totalDeposits",
          "type": "uint256"
        }
      ],
      "stateMutability": "view",
      "type": "function"
    }
  ],
  "bytecode": "0x608060405234801561001057600080fd5b50612a74806100206000396000f3fe608060405234801561001057600080fd5b50600436106100d45760003560e01c80635f64b55b11610081578063aa7b83e31161005b578063aa7b83e3146101c1578063bc0aac10146101d4578063d5634683146101e757600080fd5b80635f64b55b146101885780636b8ba92c1461019b57806384b96585146101ae57600080fd5b8063168a4822116100b2578063168a482214610158578063452ed4f114610160578063485cc9551461017357600080fd5b80630103c92b146100d95780630fc63d10146100ff5780631666768a1461012a575b600080fd5b6100ec6100e7366004612414565b61020f565b6040519081526020015b60405180910390f35b603654610112906001600160a01b031681565b6040516001600160a01b0390911681526020016100f6565b61013d610138366004612431565b610243565b604080519384526020840192909252908201526060016100f6565b6100ec610533565b603554610112906001600160a01b031681565b61018661018136600461249a565b6105b0565b005b603754610112906001600160a01b031681565b603354610112906001600160a01b031681565b6100ec6101bc36600461258f565b610ca3565b603454610112906001600160a01b031681565b603f54610112906001600160a01b031681565b6101fa6101f53660046126b1565b611937565b604080519283526020830191909152016100f6565b600061021a82611c70565b6001600160a01b0383166000908152603d602052604090205461023d919061272e565b92915050565b6000806000600260015414156102a05760405162461bcd60e51b815260206004820152601f60248201527f5265656e7472616e637947756172643a207265656e7472616e742063616c6c0060448201526064015b60405180910390fd5b6002600155603f546001600160a01b031633146102ff5760405162461bcd60e51b815260206004820152601760248201527f43414c4c45525f4e4f545f41535345545f524f555445520000000000000000006044820152606401610297565b6000808b118015610310575060008a115b156103d15760365460375460405162e8e33760e81b81526001600160a01b03928316600482015291166024820152604481018c9052606481018b9052608481018a905260a481018990523060c48201524260e482015273a5e0829caced8ffdd4de3c43696c57f7d7a678ff9063e8e3370090610104016060604051808303816000875af11580156103a5573d6000803e3d6000fd5b505050506040513d601f19601f820116820180604052508101906103c99190612746565b919550935090505b6103db878261272e565b91506000821161042d5760405162461bcd60e51b815260206004820152601560248201527f4e4f5f4c49515549444954595f50524f564944454400000000000000000000006044820152606401610297565b61043685611e05565b6001600160a01b0385166000908152603d60205260408120805484929061045e90849061272e565b925050819055508160396000828254610477919061272e565b909155505060385460405163534a7e1d60e11b8152600481018490526001600160a01b039091169063a694fc3a90602401600060405180830381600087803b1580156104c257600080fd5b505af11580156104d6573d6000803e3d6000fd5b505050506104fd86858d6104ea9190612774565b6036546001600160a01b03169190611f2a565b61051e8661050b858d612774565b6037546001600160a01b03169190611f2a565b50600180819055509750975097945050505050565b603954600090156105ad576038546040516370a0823160e01b81523060048201526001600160a01b03909116906370a0823190602401602060405180830381865afa158015610586573d6000803e3d6000fd5b505050506040513d601f19601f820116820180604052508101906105aa919061278b565b90505b90565b60006105bc6001611f91565b905080156105d4576000805461ff0019166101001790555b6105dc6120a7565b603f80546001600160a01b038085166001600160a01b031992831617909255603880549286169290911682179055604080516372f702f360e01b815290516372f702f3916004808201926020929091908290030181865afa158015610645573d6000803e3d6000fd5b505050506040513d601f19601f8201168201806040525081019061066991906127a4565b603580546001600160a01b0319166001600160a01b03928316179055603854604080516317f4408360e21b815290519190921691635fd1020c9160048083019260209291908290030181865afa1580156106c7573d6000803e3d6000fd5b505050506040513d601f19601f820116820180604052508101906106eb91906127a4565b603380546001600160a01b0319166001600160a01b0392831617905560385460408051634462633360e11b8152905191909216916388c4c6669160048083019260209291908290030181865afa158015610749573d6000803e3d6000fd5b505050506040513d601f19601f8201168201806040525081019061076d91906127a4565b603480546001600160a01b0319166001600160a01b0392831617905560355460408051630dfe168160e01b815290519190921691630dfe16819160048083019260209291908290030181865afa1580156107cb573d6000803e3d6000fd5b505050506040513d601f19601f820116820180604052508101906107ef91906127a4565b603680546001600160a01b0319166001600160a01b039283161790556035546040805163d21220a760e01b81529051919092169163d21220a79160048083019260209291908290030181865afa15801561084d573d6000803e3d6000fd5b505050506040513d601f19601f8201168201806040525081019061087191906127a4565b603780546001600160a01b0319166001600160a01b03928316179055604080516060810182524380825260006020808401828152848601838152928052603e90915292517f5f97c64b3c4bdfff50b5c8f505e633128432c6b07fc6c8abc77dce786c7317d45591517f5f97c64b3c4bdfff50b5c8f505e633128432c6b07fc6c8abc77dce786c7317d55590517f5f97c64b3c4bdfff50b5c8f505e633128432c6b07fc6c8abc77dce786c7317d655603c805463ffffffff19166001179055603b55603554905163095ea7b360e01b81528583166004820152600019602482015291169063095ea7b3906044016020604051808303816000875af115801561097c573d6000803e3d6000fd5b505050506040513d601f19601f820116820180604052508101906109a091906127c1565b5060355460405163095ea7b360e01b815273a5e0829caced8ffdd4de3c43696c57f7d7a678ff600482015260001960248201526001600160a01b039091169063095ea7b3906044016020604051808303816000875af1158015610a07573d6000803e3d6000fd5b505050506040513d601f19601f82011682018060405250810190610a2b91906127c1565b5060335460405163095ea7b360e01b815273a5e0829caced8ffdd4de3c43696c57f7d7a678ff600482015260001960248201526001600160a01b039091169063095ea7b3906044016020604051808303816000875af1158015610a92573d6000803e3d6000fd5b505050506040513d601f19601f82011682018060405250810190610ab691906127c1565b5060345460405163095ea7b360e01b815273a5e0829caced8ffdd4de3c43696c57f7d7a678ff600482015260001960248201526001600160a01b039091169063095ea7b3906044016020604051808303816000875af1158015610b1d573d6000803e3d6000fd5b505050506040513d601f19601f82011682018060405250810190610b4191906127c1565b5060365460405163095ea7b360e01b815273a5e0829caced8ffdd4de3c43696c57f7d7a678ff600482015260001960248201526001600160a01b039091169063095ea7b3906044016020604051808303816000875af1158015610ba8573d6000803e3d6000fd5b505050506040513d601f19601f82011682018060405250810190610bcc91906127c1565b5060375460405163095ea7b360e01b815273a5e0829caced8ffdd4de3c43696c57f7d7a678ff600482015260001960248201526001600160a01b039091169063095ea7b3906044016020604051808303816000875af1158015610c33573d6000803e3d6000fd5b505050506040513d601f19601f82011682018060405250810190610c5791906127c1565b508015610c9e576000805461ff0019169055604051600181527f7f26b83ff96e1f2b6a682f133852f6798a09c465da95921460cefb38474024989060200160405180910390a15b505050565b603f546000906001600160a01b03163314610d005760405162461bcd60e51b815260206004820152601760248201527f43414c4c45525f4e4f545f41535345545f524f555445520000000000000000006044820152606401610297565b60026001541415610d535760405162461bcd60e51b815260206004820152601f60248201527f5265656e7472616e637947756172643a207265656e7472616e742063616c6c006044820152606401610297565b6002600155603954610da75760405162461bcd60e51b815260206004820152600c60248201527f4e4f5f4c495155494449545900000000000000000000000000000000000000006044820152606401610297565b603c544390603e90600090610dc49060019063ffffffff166127de565b63ffffffff1681526020810191909152604001600020541415610e295760405162461bcd60e51b815260206004820152601b60248201527f43414e545f43414c4c5f4f4e5f5448455f53414d455f424c4f434b00000000006044820152606401610297565b603860009054906101000a90046001600160a01b03166001600160a01b0316633d18b9126040518163ffffffff1660e01b8152600401600060405180830381600087803b158015610e7957600080fd5b505af1158015610e8d573d6000803e3d6000fd5b50506033546040516370a0823160e01b815230600482015260009350600292506001600160a01b03909116906370a0823190602401602060405180830381865afa158015610edf573d6000803e3d6000fd5b505050506040513d601f19601f82011682018060405250810190610f03919061278b565b610f0d9190612803565b6034546040516370a0823160e01b81523060048201529192506000916002916001600160a01b0316906370a0823190602401602060405180830381865afa158015610f5c573d6000803e3d6000fd5b505050506040513d601f19601f82011682018060405250810190610f80919061278b565b610f8a9190612803565b9050811561128e576033546036546001600160a01b03908116911614611112576033546001600160a01b03168c8c600081610fc757610fc7612825565b9050602002016020810190610fdc9190612414565b6001600160a01b031614801561103557506036546001600160a01b03168c8c611006600182612774565b81811061101557611015612825565b905060200201602081019061102a9190612414565b6001600160a01b0316145b6110815760405162461bcd60e51b815260206004820152601a60248201527f4241445f5245574152445f415f544f4b454e5f415f524f5554450000000000006044820152606401610297565b73a5e0829caced8ffdd4de3c43696c57f7d7a678ff6338ed17398386600060200201518f8f30426040518763ffffffff1660e01b81526004016110c99695949392919061283b565b6000604051808303816000875af11580156110e8573d6000803e3d6000fd5b505050506040513d6000823e601f3d908101601f1916820160405261111091908101906128ae565b505b6033546037546001600160a01b0390811691161461128e576033546001600160a01b03168a8a60008161114757611147612825565b905060200201602081019061115c9190612414565b6001600160a01b03161480156111b557506037546001600160a01b03168a8a611186600182612774565b81811061119557611195612825565b90506020020160208101906111aa9190612414565b6001600160a01b0316145b6112015760405162461bcd60e51b815260206004820152601a60248201527f4241445f5245574152445f415f544f4b454e5f425f524f5554450000000000006044820152606401610297565b60208401516040516338ed173960e01b815273a5e0829caced8ffdd4de3c43696c57f7d7a678ff916338ed1739916112459186918f908f903090429060040161283b565b6000604051808303816000875af1158015611264573d6000803e3d6000fd5b505050506040513d6000823e601f3d908101601f1916820160405261128c91908101906128ae565b505b801561158c576034546036546001600160a01b03908116911614611410576034546001600160a01b031688886000816112c9576112c9612825565b90506020020160208101906112de9190612414565b6001600160a01b031614801561133757506036546001600160a01b03168888611308600182612774565b81811061131757611317612825565b905060200201602081019061132c9190612414565b6001600160a01b0316145b6113835760405162461bcd60e51b815260206004820152601a60248201527f4241445f5245574152445f425f544f4b454e5f415f524f5554450000000000006044820152606401610297565b60408085015190516338ed173960e01b815273a5e0829caced8ffdd4de3c43696c57f7d7a678ff916338ed1739916113c79185918d908d903090429060040161283b565b6000604051808303816000875af11580156113e6573d6000803e3d6000fd5b505050506040513d6000823e601f3d908101601f1916820160405261140e91908101906128ae565b505b6034546037546001600160a01b0390811691161461158c576034546001600160a01b0316868660008161144557611445612825565b905060200201602081019061145a9190612414565b6001600160a01b03161480156114b357506037546001600160a01b03168686611484600182612774565b81811061149357611493612825565b90506020020160208101906114a89190612414565b6001600160a01b0316145b6114ff5760405162461bcd60e51b815260206004820152601a60248201527f4241445f5245574152445f425f544f4b454e5f425f524f5554450000000000006044820152606401610297565b60608401516040516338ed173960e01b815273a5e0829caced8ffdd4de3c43696c57f7d7a678ff916338ed1739916115439185918b908b903090429060040161283b565b6000604051808303816000875af1158015611562573d6000803e3d6000fd5b505050506040513d6000823e601f3d908101601f1916820160405261158a91908101906128ae565b505b50506036546037546040516370a0823160e01b815230600482015273a5e0829caced8ffdd4de3c43696c57f7d7a678ff9263e8e33700926001600160a01b039182169291169082906370a0823190602401602060405180830381865afa1580156115fa573d6000803e3d6000fd5b505050506040513d601f19601f8201168201806040525081019061161e919061278b565b6037546040516370a0823160e01b81523060048201526001600160a01b03909116906370a0823190602401602060405180830381865afa158015611666573d6000803e3d6000fd5b505050506040513d601f19601f8201168201806040525081019061168a919061278b565b6040880151885161169b919061272e565b606089015160208a01516116af919061272e565b6040517fffffffff0000000000000000000000000000000000000000000000000000000060e089901b1681526001600160a01b03968716600482015295909416602486015260448501929092526064840152608483015260a48201523060c48201524260e4820152610104016060604051808303816000875af115801561173a573d6000803e3d6000fd5b505050506040513d601f19601f8201168201806040525081019061175e9190612746565b603b5490935060009250611773915043612774565b6039546117809190612954565b603a5461178d919061272e565b61179f670de0b6b3a764000084612954565b6117a99190612803565b603c54909150600090603e9082906117c99060019063ffffffff166127de565b63ffffffff1681526020810191909152604001600020546117ea9043612774565b6117f49083612954565b603c54603e9060009061180f9060019063ffffffff166127de565b63ffffffff1663ffffffff16815260200190815260200160002060020154611837919061272e565b604080516060810182524381526020808201868152828401858152603c805463ffffffff9081166000908152603e9095529584209451855591516001858101919091559051600290940193909355805494955091939192909161189c91859116612973565b825463ffffffff9182166101009390930a92830291909202199091161790555043603b556000603a5560385460405163534a7e1d60e11b8152600481018590526001600160a01b039091169063a694fc3a90602401600060405180830381600087803b15801561190b57600080fd5b505af115801561191f573d6000803e3d6000fd5b50506001805550929c9b505050505050505050505050565b6000806002600154141561198d5760405162461bcd60e51b815260206004820152601f60248201527f5265656e7472616e637947756172643a207265656e7472616e742063616c6c006044820152606401610297565b6002600155603f546001600160a01b031633146119ec5760405162461bcd60e51b815260206004820152601760248201527f43414c4c45525f4e4f545f41535345545f524f555445520000000000000000006044820152606401610297565b60008811611a3c5760405162461bcd60e51b815260206004820152601360248201527f494e53554646494349454e545f414d4f554e54000000000000000000000000006044820152606401610297565b611a4584611e05565b6001600160a01b0384166000908152603d602052604090206002810154891115611b075760028101548154600091611a7c9161272e565b9050808a1115611ace5760405162461bcd60e51b815260206004820152601460248201527f494e53554646494349454e545f42414c414e43450000000000000000000000006044820152606401610297565b611ad88a82612774565b825560028201546039548b91611aed9161272e565b611af79190612774565b6039555060006002820155611b21565b88816002016000828254611b1b9190612774565b90915550505b603854604051632e1a7d4d60e01b8152600481018b90526001600160a01b0390911690632e1a7d4d90602401600060405180830381600087803b158015611b6757600080fd5b505af1158015611b7b573d6000803e3d6000fd5b505050508515611ba957603554611b9c906001600160a01b0316858b611f2a565b6000809250925050611c5f565b603654603754604051635d5155ef60e11b81526001600160a01b0392831660048201529082166024820152604481018b9052606481018a90526084810189905290851660a48201524260c482015273a5e0829caced8ffdd4de3c43696c57f7d7a678ff9063baa2abde9060e40160408051808303816000875af1158015611c34573d6000803e3d6000fd5b505050506040513d601f19601f82011682018060405250810190611c58919061299b565b9093509150505b600180559097909650945050505050565b6001600160a01b0381166000908152603d60209081526040808320815160a08101835281548152600182015493810193909352600281015491830191909152600381015463ffffffff908116606084018190526004909201546080840152603c54161415611ce2576040015192915050565b60608082015163ffffffff166000908152603e6020908152604080832081519485018252805480865260018201549386019390935260020154908401526080840151611d2d91612774565b8351611d399190612954565b8360200151611d48919061272e565b90506000670de0b6b3a7640000836020015183611d659190612954565b611d6f9190612803565b6040840151603c54919250600091670de0b6b3a76400009190603e908490611d9f9060019063ffffffff166127de565b63ffffffff1663ffffffff16815260200190815260200160002060020154611dc79190612774565b8651611dd39190612954565b611ddd9190612803565b905080828660400151611df0919061272e565b611dfa919061272e565b979650505050505050565b6001600160a01b0381166000908152603d60205260409020603c54600382015463ffffffff90811691161415611e6e576004810154611e449043612774565b8154611e509190612954565b816001016000828254611e63919061272e565b90915550611eca9050565b611e7782611c70565b6002820155603c54603e90600090611e979060019063ffffffff166127de565b63ffffffff168152602081019190915260400160002054611eb89043612774565b8154611ec49190612954565b60018201555b603c5460038201805463ffffffff191663ffffffff9092169190911790554360048201819055603954603b549091611f029190612774565b611f0c9190612954565b603a6000828254611f1d919061272e565b909155505043603b555050565b604080516001600160a01b038416602482015260448082018490528251808303909101815260649091019091526020810180517bffffffffffffffffffffffffffffffffffffffffffffffffffffffff1663a9059cbb60e01b179052610c9e90849061211c565b60008054610100900460ff161561201f578160ff166001148015611fb45750303b155b6120175760405162461bcd60e51b815260206004820152602e60248201527f496e697469616c697a61626c653a20636f6e747261637420697320616c72656160448201526d191e481a5b9a5d1a585b1a5e995960921b6064820152608401610297565b506000919050565b60005460ff80841691161061208d5760405162461bcd60e51b815260206004820152602e60248201527f496e697469616c697a61626c653a20636f6e747261637420697320616c72656160448201526d191e481a5b9a5d1a585b1a5e995960921b6064820152608401610297565b506000805460ff191660ff92909216919091179055600190565b600054610100900460ff166121125760405162461bcd60e51b815260206004820152602b60248201527f496e697469616c697a61626c653a20636f6e7472616374206973206e6f74206960448201526a6e697469616c697a696e6760a81b6064820152608401610297565b61211a612201565b565b6000612171826040518060400160405280602081526020017f5361666545524332303a206c6f772d6c6576656c2063616c6c206661696c6564815250856001600160a01b03166122729092919063ffffffff16565b805190915015610c9e578080602001905181019061218f91906127c1565b610c9e5760405162461bcd60e51b815260206004820152602a60248201527f5361666545524332303a204552433230206f7065726174696f6e20646964206e60448201527f6f742073756363656564000000000000000000000000000000000000000000006064820152608401610297565b600054610100900460ff1661226c5760405162461bcd60e51b815260206004820152602b60248201527f496e697469616c697a61626c653a20636f6e7472616374206973206e6f74206960448201526a6e697469616c697a696e6760a81b6064820152608401610297565b60018055565b6060612281848460008561228b565b90505b9392505050565b6060824710156123035760405162461bcd60e51b815260206004820152602660248201527f416464726573733a20696e73756666696369656e742062616c616e636520666f60448201527f722063616c6c00000000000000000000000000000000000000000000000000006064820152608401610297565b6001600160a01b0385163b61235a5760405162461bcd60e51b815260206004820152601d60248201527f416464726573733a2063616c6c20746f206e6f6e2d636f6e74726163740000006044820152606401610297565b600080866001600160a01b0316858760405161237691906129ef565b60006040518083038185875af1925050503d80600081146123b3576040519150601f19603f3d011682016040523d82523d6000602084013e6123b8565b606091505b5091509150611dfa828286606083156123d2575081612284565b8251156123e25782518084602001fd5b8160405162461bcd60e51b81526004016102979190612a0b565b6001600160a01b038116811461241157600080fd5b50565b60006020828403121561242657600080fd5b8135612284816123fc565b600080600080600080600060e0888a03121561244c57600080fd5b873596506020880135955060408801359450606088013593506080880135925060a088013561247a816123fc565b915060c088013561248a816123fc565b8091505092959891949750929550565b600080604083850312156124ad57600080fd5b82356124b8816123fc565b915060208301356124c8816123fc565b809150509250929050565b60008083601f8401126124e557600080fd5b50813567ffffffffffffffff8111156124fd57600080fd5b6020830191508360208260051b850101111561251857600080fd5b9250929050565b634e487b7160e01b600052604160045260246000fd5b6040516080810167ffffffffffffffff811182821017156125585761255861251f565b60405290565b604051601f8201601f1916810167ffffffffffffffff811182821017156125875761258761251f565b604052919050565b6000806000806000806000806000610100808b8d0312156125af57600080fd5b8a3567ffffffffffffffff808211156125c757600080fd5b6125d38e838f016124d3565b909c509a5060208d01359150808211156125ec57600080fd5b6125f88e838f016124d3565b909a50985060408d013591508082111561261157600080fd5b61261d8e838f016124d3565b909850965060608d013591508082111561263657600080fd5b506126438d828e016124d3565b909550935050609f8b018c1361265857600080fd5b612660612535565b908b0190808d83111561267257600080fd5b60808d015b8381101561268f578035835260209283019201612677565b508093505050509295985092959850929598565b801515811461241157600080fd5b60008060008060008060c087890312156126ca57600080fd5b86359550602087013594506040870135935060608701356126ea816126a3565b925060808701356126fa816123fc565b915060a087013561270a816123fc565b809150509295509295509295565b634e487b7160e01b600052601160045260246000fd5b6000821982111561274157612741612718565b500190565b60008060006060848603121561275b57600080fd5b8351925060208401519150604084015190509250925092565b60008282101561278657612786612718565b500390565b60006020828403121561279d57600080fd5b5051919050565b6000602082840312156127b657600080fd5b8151612284816123fc565b6000602082840312156127d357600080fd5b8151612284816126a3565b600063ffffffff838116908316818110156127fb576127fb612718565b039392505050565b60008261282057634e487b7160e01b600052601260045260246000fd5b500490565b634e487b7160e01b600052603260045260246000fd5b868152602080820187905260a0604083018190528201859052600090869060c08401835b8881101561288d578335612872816123fc565b6001600160a01b03168252928201929082019060010161285f565b506001600160a01b0396909616606085015250505060800152949350505050565b600060208083850312156128c157600080fd5b825167ffffffffffffffff808211156128d957600080fd5b818501915085601f8301126128ed57600080fd5b8151818111156128ff576128ff61251f565b8060051b915061291084830161255e565b818152918301840191848101908884111561292a57600080fd5b938501935b838510156129485784518252938501939085019061292f565b98975050505050505050565b600081600019048311821515161561296e5761296e612718565b500290565b600063ffffffff80831681851680830382111561299257612992612718565b01949350505050565b600080604083850312156129ae57600080fd5b505080516020909101519092909150565b60005b838110156129da5781810151838201526020016129c2565b838111156129e9576000848401525b50505050565b60008251612a018184602087016129bf565b9190910192915050565b6020815260008251806020840152612a2a8160408501602087016129bf565b601f01601f1916919091016040019291505056fea2646970667358221220302e66e57d836c60abbefb0db03680f08a6570b870b0eccb0e74827856ffb94c64736f6c634300080a0033",
  "immutableReferences": {},
  "source": "// SPDX-License-Identifier: MIT\r\npragma solidity 0.8.10;\r\n \r\nimport '../../interfaces/IUniswapV2Pair.sol';\r\nimport '../../interfaces/IUniswapV2Router.sol';\r\nimport '../../interfaces/IStakingDualRewards.sol';\r\nimport '../../interfaces/IWMATIC.sol';\r\nimport '@openzeppelin/contracts-upgradeable/security/ReentrancyGuardUpgradeable.sol';\r\nimport '@openzeppelin/contracts-upgradeable/token/ERC20/utils/SafeERC20Upgradeable.sol';\r\nimport '@openzeppelin/contracts-upgradeable/token/ERC20/IERC20Upgradeable.sol';\r\nimport '@openzeppelin/contracts-upgradeable/proxy/utils/Initializable.sol';\r\n\r\ncontract UnoFarmQuickswapDual is Initializable, ReentrancyGuardUpgradeable {\r\n    using SafeERC20Upgradeable for IERC20Upgradeable;\r\n    /**\r\n     * @dev DistributionInfo:\r\n     * {block} - Distribution block number.\r\n     * {rewardPerDepositAge} - Distribution reward divided by {totalDepositAge}. \r\n     * {cumulativeRewardAgePerDepositAge} - Sum of {rewardPerDepositAge}s multiplied by distribution interval.\r\n     */\r\n    struct DistributionInfo {\r\n        uint256 block;\r\n        uint256 rewardPerDepositAge;\r\n        uint256 cumulativeRewardAgePerDepositAge;\r\n    }\r\n    /**\r\n     * @dev UserInfo:\r\n     * {stake} - Amount of LP tokens deposited by the user.\r\n     * {depositAge} - User deposits multiplied by blocks the deposit has been in. \r\n     * {reward} - Amount of LP tokens entitled to the user.\r\n     * {lastDistribution} - Distribution ID before the last user deposit.\r\n     * {lastUpdate} - Deposit update block.\r\n     */\r\n    struct UserInfo {\r\n        uint256 stake;\r\n        uint256 depositAge;\r\n        uint256 reward;\r\n        uint32 lastDistribution;\r\n        uint256 lastUpdate;\r\n    }\r\n\r\n    /**\r\n     * @dev Tokens Used:\r\n     * {rewardTokenA, rewardTokenB} - Tokens generated by staking.\r\n     * {lpPair} - Token that the strategy maximizes. The same token that users deposit in the {lpStakingPool}.\r\n     * {tokenA, tokenB} - Tokens that the strategy maximizes.\r\n     */\r\n    address public rewardTokenA;\r\n    address public rewardTokenB;\r\n    address public lpPair;\r\n    address public tokenA;\r\n    address public tokenB;\r\n\r\n    /**\r\n     * @dev Third Party Contracts:\r\n     * {quickswapRouter} - Contract that executes swaps.\r\n     * {lpStakingPool} - Contract that distibutes {rewardTokenA, rewardTokenB}.\r\n     */\r\n    IUniswapV2Router01 private constant quickswapRouter = IUniswapV2Router01(0xa5E0829CaCEd8fFDD4De3c43696c57F7D7A678ff); \r\n    IStakingDualRewards private lpStakingPool;\r\n\r\n    /**\r\n     * @dev Contract Variables:\r\n     * {totalDeposits} - Total deposits made by users.\r\n     * {totalDepositAge} - Deposits multiplied by blocks the deposit has been in. Flushed every reward distribution.\r\n     * {totalDepositLastUpdate} - Last {totalDepositAge} update block.\r\n\r\n     * {distributionID} - Current distribution ID.\r\n     * {userInfo} - Info on each user.\r\n     * {distributionInfo} - Info on each distribution.\r\n\r\n     * {fractionMultiplier} - Used to store decimal values.\r\n     */\r\n    uint256 private totalDeposits;\r\n    uint256 private totalDepositAge;\r\n    uint256 private totalDepositLastUpdate;\r\n\r\n    uint32 private distributionID;\r\n    mapping(address => UserInfo) private userInfo;\r\n    mapping(uint32 => DistributionInfo) private distributionInfo;\r\n\r\n    uint256 private constant fractionMultiplier = uint256(1 ether);\r\n\r\n    /**\r\n     * @dev Contract Variables:\r\n     * {assetRouter} - The contract from which calls to this farm are made.\r\n     */\r\n    address public assetRouter;\r\n    modifier onlyAssetRouter(){\r\n        require(msg.sender == assetRouter, 'CALLER_NOT_ASSET_ROUTER');\r\n        _;\r\n    }\r\n\r\n    // ============ Methods ============\r\n\r\n    function initialize(address _lpStakingPool, address _assetRouter) external initializer {\r\n        __ReentrancyGuard_init();\r\n        assetRouter = _assetRouter;\r\n\r\n        lpStakingPool = IStakingDualRewards(_lpStakingPool);\r\n        lpPair = address(lpStakingPool.stakingToken());\r\n\r\n        rewardTokenA = lpStakingPool.rewardsTokenA();\r\n        rewardTokenB = lpStakingPool.rewardsTokenB();\r\n\r\n        tokenA = IUniswapV2Pair(lpPair).token0();\r\n        tokenB = IUniswapV2Pair(lpPair).token1();\r\n\r\n        distributionInfo[0] = DistributionInfo({\r\n            block: block.number,\r\n            rewardPerDepositAge: 0,\r\n            cumulativeRewardAgePerDepositAge: 0\r\n        });\r\n        distributionID = 1;\r\n        totalDepositLastUpdate = block.number;\r\n\r\n        IERC20(lpPair).approve(_lpStakingPool, type(uint256).max);\r\n        IERC20(lpPair).approve(address(quickswapRouter), type(uint256).max);\r\n        IERC20(rewardTokenA).approve(address(quickswapRouter), type(uint256).max);\r\n        IERC20(rewardTokenB).approve(address(quickswapRouter), type(uint256).max);\r\n        IERC20(tokenA).approve(address(quickswapRouter), type(uint256).max);\r\n        IERC20(tokenB).approve(address(quickswapRouter), type(uint256).max);\r\n    }\r\n\r\n    /**\r\n     * @dev Function that makes the deposits.\r\n     * Deposits provided tokens in the Liquidity Pool, then stakes generated LP tokens in the {lpStakingPool}.\r\n     */\r\n    function deposit(uint256 amountA, uint256 amountB, uint256 amountAMin, uint256 amountBMin, uint256 amountLP, address origin, address recipient) external nonReentrant onlyAssetRouter returns(uint256 sentA, uint256 sentB, uint256 liquidity){\r\n        uint256 addedLiquidity;\r\n        if(amountA > 0 && amountB > 0){\r\n            (sentA, sentB, addedLiquidity) = quickswapRouter.addLiquidity(tokenA, tokenB, amountA, amountB, amountAMin, amountBMin, address(this), block.timestamp);\r\n        }\r\n        liquidity = addedLiquidity + amountLP;\r\n        require(liquidity > 0, 'NO_LIQUIDITY_PROVIDED');\r\n\r\n        _updateDeposit(recipient);\r\n        userInfo[recipient].stake += liquidity;\r\n        totalDeposits += liquidity;\r\n            \r\n        lpStakingPool.stake(liquidity);\r\n        IERC20Upgradeable(tokenA).safeTransfer(origin, amountA - sentA);\r\n        IERC20Upgradeable(tokenB).safeTransfer(origin, amountB - sentB);\r\n    }\r\n\r\n    /**\r\n     * @dev Withdraws funds from {origin} and sends them to the {recipient}.\r\n     */\r\n    function withdraw(uint256 amount, uint256 amountAMin, uint256 amountBMin, bool withdrawLP, address origin, address recipient) external nonReentrant onlyAssetRouter returns(uint256 amountA, uint256 amountB){\r\n        require(amount > 0, 'INSUFFICIENT_AMOUNT');\r\n\r\n        _updateDeposit(origin);\r\n        UserInfo storage user = userInfo[origin];\r\n        // Subtract amount from user.reward first, then subtract remainder from user.stake.\r\n        if(amount > user.reward){\r\n            uint256 balance = user.stake + user.reward;\r\n            require(amount <= balance, 'INSUFFICIENT_BALANCE');\r\n            user.stake = balance - amount;\r\n            totalDeposits = totalDeposits + user.reward - amount;\r\n            user.reward = 0;\r\n        } else {\r\n            user.reward -= amount;\r\n        }\r\n\r\n        lpStakingPool.withdraw(amount);\r\n        if(withdrawLP){\r\n            IERC20Upgradeable(lpPair).safeTransfer(recipient, amount);\r\n            return (0, 0);\r\n        }\r\n        (amountA, amountB) = quickswapRouter.removeLiquidity(tokenA, tokenB, amount, amountAMin, amountBMin, recipient, block.timestamp);\r\n    }\r\n\r\n    /**\r\n     * @dev Core function of the strat, in charge of updating, collecting and re-investing rewards.\r\n     * 1. It claims rewards from the {lpStakingPool}.\r\n     * 2. It swaps {rewardToken} token for {tokenA} & {tokenB}.\r\n     * 3. It deposits new LP tokens back to the {lpStakingPool}.\r\n     */\r\n    function distribute(address[] calldata rewardTokenAToTokenARoute, address[] calldata rewardTokenAToTokenBRoute, address[] calldata rewardTokenBToTokenARoute, address[] calldata rewardTokenBToTokenBRoute, uint256[4] memory amountsOutMin) external onlyAssetRouter nonReentrant returns(uint256 reward){\r\n        require(totalDeposits > 0, 'NO_LIQUIDITY');\r\n        require(distributionInfo[distributionID - 1].block != block.number, 'CANT_CALL_ON_THE_SAME_BLOCK');\r\n\r\n        lpStakingPool.getReward();\r\n        { // scope to avoid stack too deep errors\r\n        uint256 rewardTokenAHalf = IERC20(rewardTokenA).balanceOf(address(this)) / 2;\r\n        uint256 rewardTokenBHalf = IERC20(rewardTokenB).balanceOf(address(this)) / 2;\r\n        if (rewardTokenAHalf > 0) {\r\n            if (tokenA != rewardTokenA) {\r\n                require(rewardTokenAToTokenARoute[0] == rewardTokenA && rewardTokenAToTokenARoute[rewardTokenAToTokenARoute.length - 1] == tokenA, 'BAD_REWARD_A_TOKEN_A_ROUTE');\r\n                quickswapRouter.swapExactTokensForTokens(rewardTokenAHalf, amountsOutMin[0], rewardTokenAToTokenARoute, address(this), block.timestamp);\r\n            }\r\n\r\n            if (tokenB != rewardTokenA) {\r\n                require(rewardTokenAToTokenBRoute[0] == rewardTokenA && rewardTokenAToTokenBRoute[rewardTokenAToTokenBRoute.length - 1] == tokenB, 'BAD_REWARD_A_TOKEN_B_ROUTE');\r\n                quickswapRouter.swapExactTokensForTokens(rewardTokenAHalf, amountsOutMin[1], rewardTokenAToTokenBRoute, address(this), block.timestamp);\r\n            }\r\n        }\r\n        \r\n        if (rewardTokenBHalf > 0) {\r\n            if (tokenA != rewardTokenB) {\r\n                require(rewardTokenBToTokenARoute[0] == rewardTokenB && rewardTokenBToTokenARoute[rewardTokenBToTokenARoute.length - 1] == tokenA, 'BAD_REWARD_B_TOKEN_A_ROUTE');\r\n                quickswapRouter.swapExactTokensForTokens(rewardTokenBHalf, amountsOutMin[2], rewardTokenBToTokenARoute, address(this), block.timestamp);\r\n            }\r\n    \r\n            if (tokenB != rewardTokenB) {\r\n                require(rewardTokenBToTokenBRoute[0] == rewardTokenB && rewardTokenBToTokenBRoute[rewardTokenBToTokenBRoute.length - 1] == tokenB, 'BAD_REWARD_B_TOKEN_B_ROUTE');\r\n                quickswapRouter.swapExactTokensForTokens(rewardTokenBHalf, amountsOutMin[3], rewardTokenBToTokenBRoute, address(this), block.timestamp);\r\n            }\r\n        }\r\n        }\r\n        \r\n        (,,reward) = quickswapRouter.addLiquidity(tokenA, tokenB, IERC20(tokenA).balanceOf(address(this)), IERC20(tokenB).balanceOf(address(this)), amountsOutMin[0] + amountsOutMin[2], amountsOutMin[1] + amountsOutMin[3], address(this), block.timestamp);\r\n\r\n        uint256 rewardPerDepositAge = reward * fractionMultiplier / (totalDepositAge + totalDeposits * (block.number - totalDepositLastUpdate));\r\n        uint256 cumulativeRewardAgePerDepositAge = distributionInfo[distributionID - 1].cumulativeRewardAgePerDepositAge + rewardPerDepositAge * (block.number - distributionInfo[distributionID - 1].block);\r\n\r\n        distributionInfo[distributionID] = DistributionInfo({\r\n            block: block.number,\r\n            rewardPerDepositAge: rewardPerDepositAge,\r\n            cumulativeRewardAgePerDepositAge: cumulativeRewardAgePerDepositAge\r\n        });\r\n\r\n        distributionID += 1;\r\n        totalDepositLastUpdate = block.number;\r\n        totalDepositAge = 0;\r\n\r\n        lpStakingPool.stake(reward);\r\n    }\r\n\r\n    /**\r\n     * @dev Returns total funds staked by the {_address}.\r\n     */\r\n    function userBalance(address _address) external view returns (uint256) {\r\n        return userInfo[_address].stake + userReward(_address);\r\n    }\r\n\r\n    /**\r\n     * @dev Returns total funds locked in the farm.\r\n     */\r\n    function getTotalDeposits() external view returns (uint256 _totalDeposits) {\r\n        if(totalDeposits > 0){\r\n            _totalDeposits = lpStakingPool.balanceOf(address(this));\r\n        }\r\n    }\r\n\r\n    function _updateDeposit(address _address) internal {\r\n        UserInfo storage user = userInfo[_address];\r\n        // Accumulate deposit age within the current distribution period.\r\n        if (user.lastDistribution == distributionID) {\r\n            // Add deposit age from previous deposit age update to now.\r\n            user.depositAge += user.stake * (block.number - user.lastUpdate);\r\n        } else {\r\n            // A reward has been distributed, update user.reward.\r\n            user.reward = userReward(_address);\r\n            // Count fresh deposit age from previous reward distribution to now.\r\n            user.depositAge = user.stake * (block.number - distributionInfo[distributionID - 1].block);\r\n        }\r\n\r\n        user.lastDistribution = distributionID;\r\n        user.lastUpdate = block.number;\r\n\r\n        // Same with total deposit age.\r\n        totalDepositAge += (block.number - totalDepositLastUpdate) * totalDeposits;\r\n        totalDepositLastUpdate = block.number;\r\n    }\r\n\r\n    function userReward(address _address) internal view returns (uint256) {\r\n        UserInfo memory user = userInfo[_address];\r\n        if (user.lastDistribution == distributionID) {\r\n            // Return user.reward if the distribution after the last user deposit did not happen yet.\r\n            return user.reward;\r\n        }\r\n        DistributionInfo memory lastUserDistributionInfo = distributionInfo[user.lastDistribution];\r\n        uint256 userDepositAge = user.depositAge + user.stake * (lastUserDistributionInfo.block - user.lastUpdate);\r\n        // Calculate reward between the last user deposit and the distribution after that.\r\n        uint256 rewardBeforeDistibution = userDepositAge * lastUserDistributionInfo.rewardPerDepositAge / fractionMultiplier;\r\n        // Calculate reward from the distributions that have happened after the last user deposit.\r\n        uint256 rewardAfterDistribution = user.stake * (distributionInfo[distributionID - 1].cumulativeRewardAgePerDepositAge - lastUserDistributionInfo.cumulativeRewardAgePerDepositAge) / fractionMultiplier;\r\n        return user.reward + rewardBeforeDistibution + rewardAfterDistribution;\r\n    }\r\n}\r\n",
  "sourcePath": "C:\\Users\\nick_\\OneDrive\\\\UNO\\Solidity\\autostrats_balancer\\uno-contracts\\contracts\\apps\\quickswapDual\\UnoFarmQuickswapDual.sol",
  "compiler": {
    "name": "solc",
    "version": "0.8.10+commit.fc410830.Emscripten.clang"
  },
  "schemaVersion": "3.4.7",
  "updatedAt": "2022-08-26T13:11:25.378Z",
  "devdoc": {
    "kind": "dev",
    "methods": {
      "deposit(uint256,uint256,uint256,uint256,uint256,address,address)": {
        "details": "Function that makes the deposits. Deposits provided tokens in the Liquidity Pool, then stakes generated LP tokens in the {lpStakingPool}."
      },
      "distribute(address[],address[],address[],address[],uint256[4])": {
        "details": "Core function of the strat, in charge of updating, collecting and re-investing rewards. 1. It claims rewards from the {lpStakingPool}. 2. It swaps {rewardToken} token for {tokenA} & {tokenB}. 3. It deposits new LP tokens back to the {lpStakingPool}."
      },
      "getTotalDeposits()": {
        "details": "Returns total funds locked in the farm."
      },
      "userBalance(address)": {
        "details": "Returns total funds staked by the {_address}."
      },
      "withdraw(uint256,uint256,uint256,bool,address,address)": {
        "details": "Withdraws funds from {origin} and sends them to the {recipient}."
      }
    },
    "stateVariables": {
      "assetRouter": {
        "details": "Contract Variables: {assetRouter} - The contract from which calls to this farm are made."
      },
      "quickswapRouter": {
        "details": "Third Party Contracts: {quickswapRouter} - Contract that executes swaps. {lpStakingPool} - Contract that distibutes {rewardTokenA, rewardTokenB}."
      },
      "rewardTokenA": {
        "details": "Tokens Used: {rewardTokenA, rewardTokenB} - Tokens generated by staking. {lpPair} - Token that the strategy maximizes. The same token that users deposit in the {lpStakingPool}. {tokenA, tokenB} - Tokens that the strategy maximizes."
      },
      "totalDeposits": {
        "details": "Contract Variables: {totalDeposits} - Total deposits made by users. {totalDepositAge} - Deposits multiplied by blocks the deposit has been in. Flushed every reward distribution. {totalDepositLastUpdate} - Last {totalDepositAge} update block. {distributionID} - Current distribution ID. {userInfo} - Info on each user. {distributionInfo} - Info on each distribution. {fractionMultiplier} - Used to store decimal values."
      }
    },
    "version": 1
  },
  "userdoc": {
    "kind": "user",
    "methods": {},
    "version": 1
  }
}