{
  "contractName": "UnoFarmTraderjoe",
  "abi": [
    {
      "inputs": [],
      "name": "CALLER_NOT_ASSET_ROUTER",
      "type": "error"
    },
    {
      "inputs": [],
      "name": "CALL_ON_THE_SAME_BLOCK",
      "type": "error"
    },
    {
      "inputs": [],
      "name": "INSUFFICIENT_AMOUNT",
      "type": "error"
    },
    {
      "inputs": [],
      "name": "INSUFFICIENT_BALANCE",
      "type": "error"
    },
    {
      "inputs": [],
      "name": "INVALID_ASSET_ROUTER",
      "type": "error"
    },
    {
      "inputs": [],
      "name": "INVALID_LP_POOL",
      "type": "error"
    },
    {
      "inputs": [
        {
          "internalType": "address",
          "name": "fromToken",
          "type": "address"
        },
        {
          "internalType": "address",
          "name": "toToken",
          "type": "address"
        }
      ],
      "name": "INVALID_ROUTE",
      "type": "error"
    },
    {
      "inputs": [],
      "name": "NO_LIQUIDITY",
      "type": "error"
    },
    {
      "inputs": [],
      "name": "NO_LIQUIDITY_PROVIDED",
      "type": "error"
    },
    {
      "inputs": [],
      "name": "PID_NOT_EXISTS",
      "type": "error"
    },
    {
      "anonymous": false,
      "inputs": [
        {
          "indexed": false,
          "internalType": "uint8",
          "name": "version",
          "type": "uint8"
        }
      ],
      "name": "Initialized",
      "type": "event"
    },
    {
      "inputs": [],
      "name": "MasterChef",
      "outputs": [
        {
          "internalType": "contract IMasterChefJoe",
          "name": "",
          "type": "address"
        }
      ],
      "stateMutability": "view",
      "type": "function"
    },
    {
      "inputs": [],
      "name": "assetRouter",
      "outputs": [
        {
          "internalType": "address",
          "name": "",
          "type": "address"
        }
      ],
      "stateMutability": "view",
      "type": "function"
    },
    {
      "inputs": [],
      "name": "lpPool",
      "outputs": [
        {
          "internalType": "address",
          "name": "",
          "type": "address"
        }
      ],
      "stateMutability": "view",
      "type": "function"
    },
    {
      "inputs": [],
      "name": "pid",
      "outputs": [
        {
          "internalType": "uint256",
          "name": "",
          "type": "uint256"
        }
      ],
      "stateMutability": "view",
      "type": "function"
    },
    {
      "inputs": [],
      "name": "rewardToken",
      "outputs": [
        {
          "internalType": "address",
          "name": "",
          "type": "address"
        }
      ],
      "stateMutability": "view",
      "type": "function"
    },
    {
      "inputs": [],
      "name": "rewarderToken",
      "outputs": [
        {
          "internalType": "address",
          "name": "",
          "type": "address"
        }
      ],
      "stateMutability": "view",
      "type": "function"
    },
    {
      "inputs": [],
      "name": "tokenA",
      "outputs": [
        {
          "internalType": "address",
          "name": "",
          "type": "address"
        }
      ],
      "stateMutability": "view",
      "type": "function"
    },
    {
      "inputs": [],
      "name": "tokenB",
      "outputs": [
        {
          "internalType": "address",
          "name": "",
          "type": "address"
        }
      ],
      "stateMutability": "view",
      "type": "function"
    },
    {
      "inputs": [
        {
          "internalType": "address",
          "name": "_lpPool",
          "type": "address"
        },
        {
          "internalType": "address",
          "name": "_assetRouter",
          "type": "address"
        }
      ],
      "name": "initialize",
      "outputs": [],
      "stateMutability": "nonpayable",
      "type": "function"
    },
    {
      "inputs": [
        {
          "internalType": "uint256",
          "name": "amount",
          "type": "uint256"
        },
        {
          "internalType": "address",
          "name": "recipient",
          "type": "address"
        }
      ],
      "name": "deposit",
      "outputs": [],
      "stateMutability": "nonpayable",
      "type": "function"
    },
    {
      "inputs": [
        {
          "internalType": "uint256",
          "name": "amount",
          "type": "uint256"
        },
        {
          "internalType": "address",
          "name": "origin",
          "type": "address"
        },
        {
          "internalType": "address",
          "name": "recipient",
          "type": "address"
        }
      ],
      "name": "withdraw",
      "outputs": [],
      "stateMutability": "nonpayable",
      "type": "function"
    },
    {
      "inputs": [
        {
          "components": [
            {
              "internalType": "address[]",
              "name": "route",
              "type": "address[]"
            },
            {
              "internalType": "uint256",
              "name": "amountOutMin",
              "type": "uint256"
            }
          ],
          "internalType": "struct IUnoFarm.SwapInfo[4]",
          "name": "swapInfos",
          "type": "tuple[4]"
        },
        {
          "components": [
            {
              "internalType": "address",
              "name": "feeTo",
              "type": "address"
            },
            {
              "internalType": "uint256",
              "name": "fee",
              "type": "uint256"
            }
          ],
          "internalType": "struct IUnoFarm.FeeInfo",
          "name": "feeInfo",
          "type": "tuple"
        }
      ],
      "name": "distribute",
      "outputs": [
        {
          "internalType": "uint256",
          "name": "reward",
          "type": "uint256"
        }
      ],
      "stateMutability": "nonpayable",
      "type": "function"
    },
    {
      "inputs": [
        {
          "internalType": "address",
          "name": "_address",
          "type": "address"
        }
      ],
      "name": "userBalance",
      "outputs": [
        {
          "internalType": "uint256",
          "name": "",
          "type": "uint256"
        }
      ],
      "stateMutability": "view",
      "type": "function"
    },
    {
      "inputs": [],
      "name": "getTotalDeposits",
      "outputs": [
        {
          "internalType": "uint256",
          "name": "_totalDeposits",
          "type": "uint256"
        }
      ],
      "stateMutability": "view",
      "type": "function"
    }
  ],
  "bytecode": "0x608060405234801561001057600080fd5b50613278806100206000396000f3fe608060405234801561001057600080fd5b50600436106100ea5760003560e01c80636a30683b1161008c578063bc0aac1011610066578063bc0aac10146101cf578063e9ea46c7146101e2578063f1068454146101f5578063f7c618c1146101fe57600080fd5b80636a30683b146101965780636e553f65146101a9578063b460af94146101bc57600080fd5b80632a8dc131116100c85780632a8dc131146101485780633737bcb41461015b578063485cc9551461016e5780635f64b55b1461018357600080fd5b80630103c92b146100ef5780630fc63d1014610115578063168a482214610140575b600080fd5b6101026100fd366004612af4565b610211565b6040519081526020015b60405180910390f35b603654610128906001600160a01b031681565b6040516001600160a01b03909116815260200161010c565b610102610245565b603454610128906001600160a01b031681565b603554610128906001600160a01b031681565b61018161017c366004612b11565b6102e6565b005b603754610128906001600160a01b031681565b6101026101a4366004612b4a565b610f5e565b6101816101b7366004612ba9565b611cb6565b6101816101ca366004612bce565b611e0e565b604054610128906001600160a01b031681565b603954610128906001600160a01b031681565b61010260385481565b603354610128906001600160a01b031681565b600061021c82611ff2565b6001600160a01b0383166000908152603e602052604090205461023f9190612c3f565b92915050565b603a54600090156102e3576039546038546040517f93f1a40b00000000000000000000000000000000000000000000000000000000815260048101919091523060248201526001600160a01b03909116906393f1a40b906044016040805180830381865afa1580156102bb573d6000803e3d6000fd5b505050506040513d601f19601f820116820180604052508101906102df9190612cdc565b5190505b90565b600054610100900460ff16158080156103065750600054600160ff909116105b806103205750303b158015610320575060005460ff166001145b6103b1576040517f08c379a000000000000000000000000000000000000000000000000000000000815260206004820152602e60248201527f496e697469616c697a61626c653a20636f6e747261637420697320616c72656160448201527f647920696e697469616c697a656400000000000000000000000000000000000060648201526084015b60405180910390fd5b600080547fffffffffffffffffffffffffffffffffffffffffffffffffffffffffffffff00166001179055801561040f57600080547fffffffffffffffffffffffffffffffffffffffffffffffffffffffffffff00ff166101001790555b6001600160a01b03831661044f576040517f5309c5cf00000000000000000000000000000000000000000000000000000000815260040160405180910390fd5b6001600160a01b03821661048f576040517fc17c115000000000000000000000000000000000000000000000000000000000815260040160405180910390fd5b610497612187565b604080547fffffffffffffffffffffffff0000000000000000000000000000000000000000166001600160a01b0384161790556104d383612228565b603980546001600160a01b039283167fffffffffffffffffffffffff00000000000000000000000000000000000000009182168117909255603893909355603580549287169290931691909117909155604080517fffebad30000000000000000000000000000000000000000000000000000000008152905163ffebad30916004818101926020929091908290030181865afa158015610577573d6000803e3d6000fd5b505050506040513d601f19601f8201168201806040525081019061059b9190612d3b565b603380547fffffffffffffffffffffffff0000000000000000000000000000000000000000166001600160a01b03928316179055603954167fffffffffffffffffffffffffbb7c0f491d0ab792f96a73df073c658541784071016107dd576038546040517f1526fe27000000000000000000000000000000000000000000000000000000008152600091734483f0b6e2f5486d06958c20f8c39a7abe87bf8f91631526fe27916106519160040190815260200190565b61012060405180830381865afa15801561066f573d6000803e3d6000fd5b505050506040513d601f19601f820116820180604052508101906106939190612da0565b60a0015190506001600160a01b038116156107d757806001600160a01b031663f7c618c16040518163ffffffff1660e01b8152600401602060405180830381865afa1580156106e6573d6000803e3d6000fd5b505050506040513d601f19601f8201168201806040525081019061070a9190612d3b565b603480547fffffffffffffffffffffffff0000000000000000000000000000000000000000166001600160a01b039290921691821790556040517f095ea7b30000000000000000000000000000000000000000000000000000000081527360ae616a2155ee3d9a68541ba4544862310933d46004820152600019602482015263095ea7b3906044016020604051808303816000875af11580156107b1573d6000803e3d6000fd5b505050506040513d601f19601f820116820180604052508101906107d59190612e3c565b505b506109bc565b6038546040517f1526fe2700000000000000000000000000000000000000000000000000000000815260009173188bed1968b795d5c9022f6a0bb5931ac4c18f0091631526fe27916108359160040190815260200190565b60a060405180830381865afa158015610852573d6000803e3d6000fd5b505050506040513d601f19601f820116820180604052508101906108769190612e5e565b6080015190506001600160a01b038116156109ba57806001600160a01b031663f7c618c16040518163ffffffff1660e01b8152600401602060405180830381865afa1580156108c9573d6000803e3d6000fd5b505050506040513d601f19601f820116820180604052508101906108ed9190612d3b565b603480547fffffffffffffffffffffffff0000000000000000000000000000000000000000166001600160a01b039290921691821790556040517f095ea7b30000000000000000000000000000000000000000000000000000000081527360ae616a2155ee3d9a68541ba4544862310933d46004820152600019602482015263095ea7b3906044016020604051808303816000875af1158015610994573d6000803e3d6000fd5b505050506040513d601f19601f820116820180604052508101906109b89190612e3c565b505b505b603560009054906101000a90046001600160a01b03166001600160a01b0316630dfe16816040518163ffffffff1660e01b8152600401602060405180830381865afa158015610a0f573d6000803e3d6000fd5b505050506040513d601f19601f82011682018060405250810190610a339190612d3b565b603680547fffffffffffffffffffffffff0000000000000000000000000000000000000000166001600160a01b03928316179055603554604080517fd21220a70000000000000000000000000000000000000000000000000000000081529051919092169163d21220a79160048083019260209291908290030181865afa158015610ac2573d6000803e3d6000fd5b505050506040513d601f19601f82011682018060405250810190610ae69190612d3b565b603780547fffffffffffffffffffffffff0000000000000000000000000000000000000000166001600160a01b03928316179055604080516060810182524380825260006020808401828152848601838152928052603f90915292517fe9090a6e551363283803e59daf1c144cd0ac55c420ac8519a53d83ef396a73b35591517fe9090a6e551363283803e59daf1c144cd0ac55c420ac8519a53d83ef396a73b45590517fe9090a6e551363283803e59daf1c144cd0ac55c420ac8519a53d83ef396a73b555603d80547fffffffffffffffffffffffffffffffffffffffffffffffffffffffff00000000166001179055603c5560355460395491517f095ea7b3000000000000000000000000000000000000000000000000000000008152918316600483015260001960248301529091169063095ea7b3906044016020604051808303816000875af1158015610c41573d6000803e3d6000fd5b505050506040513d601f19601f82011682018060405250810190610c659190612e3c565b506035546040517f095ea7b30000000000000000000000000000000000000000000000000000000081527360ae616a2155ee3d9a68541ba4544862310933d4600482015260001960248201526001600160a01b039091169063095ea7b3906044016020604051808303816000875af1158015610ce5573d6000803e3d6000fd5b505050506040513d601f19601f82011682018060405250810190610d099190612e3c565b506033546040517f095ea7b30000000000000000000000000000000000000000000000000000000081527360ae616a2155ee3d9a68541ba4544862310933d4600482015260001960248201526001600160a01b039091169063095ea7b3906044016020604051808303816000875af1158015610d89573d6000803e3d6000fd5b505050506040513d601f19601f82011682018060405250810190610dad9190612e3c565b506036546040517f095ea7b30000000000000000000000000000000000000000000000000000000081527360ae616a2155ee3d9a68541ba4544862310933d4600482015260001960248201526001600160a01b039091169063095ea7b3906044016020604051808303816000875af1158015610e2d573d6000803e3d6000fd5b505050506040513d601f19601f82011682018060405250810190610e519190612e3c565b506037546040517f095ea7b30000000000000000000000000000000000000000000000000000000081527360ae616a2155ee3d9a68541ba4544862310933d4600482015260001960248201526001600160a01b039091169063095ea7b3906044016020604051808303816000875af1158015610ed1573d6000803e3d6000fd5b505050506040513d601f19601f82011682018060405250810190610ef59190612e3c565b508015610f5957600080547fffffffffffffffffffffffffffffffffffffffffffffffffffffffffffff00ff169055604051600181527f7f26b83ff96e1f2b6a682f133852f6798a09c465da95921460cefb38474024989060200160405180910390a15b505050565b6040546000906001600160a01b03163314610fa5576040517ffa6f03ae00000000000000000000000000000000000000000000000000000000815260040160405180910390fd5b603a54600003610fe1576040517ff58c8f9100000000000000000000000000000000000000000000000000000000815260040160405180910390fd5b603d5463ffffffff1643603f6000610ffa600185612edd565b63ffffffff16815260208101919091526040016000205403611048576040517ffa2a2d8700000000000000000000000000000000000000000000000000000000815260040160405180910390fd5b6039546038546040517f441a3e700000000000000000000000000000000000000000000000000000000081526004810191909152600060248201526001600160a01b039091169063441a3e7090604401600060405180830381600087803b1580156110b257600080fd5b505af11580156110c6573d6000803e3d6000fd5b50506036546037546033546040517f70a082310000000000000000000000000000000000000000000000000000000081523060048201526001600160a01b03938416955091831693507360ae616a2155ee3d9a68541ba4544862310933d492600092911690829082906370a0823190602401602060405180830381865afa158015611155573d6000803e3d6000fd5b505050506040513d601f19601f820116820180604052508101906111799190612f01565b905061118682828b61252a565b6111909082612f1a565b905061119d600282612f2d565b603454909350600091506001600160a01b03168015611262576040517f70a082310000000000000000000000000000000000000000000000000000000081523060048201526000906001600160a01b038316906370a0823190602401602060405180830381865afa158015611216573d6000803e3d6000fd5b505050506040513d601f19601f8201168201806040525081019061123a9190612f01565b905061124782828d61252a565b6112519082612f1a565b905061125e600282612f2d565b9250505b83156115a957826001600160a01b0316876001600160a01b0316146114075736600061128e8d80612f97565b6112989080612fd5565b91509150846001600160a01b0316828260008181106112b9576112b9612f68565b90506020020160208101906112ce9190612af4565b6001600160a01b031614158061132657506001600160a01b03891682826112f6600182612f1a565b81811061130557611305612f68565b905060200201602081019061131a9190612af4565b6001600160a01b031614155b15611370576040517fead9849a0000000000000000000000000000000000000000000000000000000081526001600160a01b0380871660048301528a1660248201526044016103a8565b6001600160a01b0387166338ed1739878f60006020028101906113939190612f97565b60200135858530426040518763ffffffff1660e01b81526004016113bc96959493929190613044565b6000604051808303816000875af11580156113db573d6000803e3d6000fd5b505050506040513d6000823e601f3d908101601f1916820160405261140391908101906130b7565b5050505b826001600160a01b0316866001600160a01b0316146115a95736600061143060208e018e612f97565b61143a9080612fd5565b91509150846001600160a01b03168282600081811061145b5761145b612f68565b90506020020160208101906114709190612af4565b6001600160a01b03161415806114c857506001600160a01b0388168282611498600182612f1a565b8181106114a7576114a7612f68565b90506020020160208101906114bc9190612af4565b6001600160a01b031614155b15611512576040517fead9849a0000000000000000000000000000000000000000000000000000000081526001600160a01b038087166004830152891660248201526044016103a8565b6001600160a01b0387166338ed1739878f60016020028101906115359190612f97565b60200135858530426040518763ffffffff1660e01b815260040161155e96959493929190613044565b6000604051808303816000875af115801561157d573d6000803e3d6000fd5b505050506040513d6000823e601f3d908101601f191682016040526115a591908101906130b7565b5050505b81156118f357806001600160a01b0316876001600160a01b031614611751573660006115d860408e018e612f97565b6115e29080612fd5565b91509150826001600160a01b03168282600081811061160357611603612f68565b90506020020160208101906116189190612af4565b6001600160a01b031614158061167057506001600160a01b0389168282611640600182612f1a565b81811061164f5761164f612f68565b90506020020160208101906116649190612af4565b6001600160a01b031614155b156116ba576040517fead9849a0000000000000000000000000000000000000000000000000000000081526001600160a01b0380851660048301528a1660248201526044016103a8565b6001600160a01b0387166338ed1739858f60026020028101906116dd9190612f97565b60200135858530426040518763ffffffff1660e01b815260040161170696959493929190613044565b6000604051808303816000875af1158015611725573d6000803e3d6000fd5b505050506040513d6000823e601f3d908101601f1916820160405261174d91908101906130b7565b5050505b806001600160a01b0316866001600160a01b0316146118f35736600061177a60608e018e612f97565b6117849080612fd5565b91509150826001600160a01b0316828260008181106117a5576117a5612f68565b90506020020160208101906117ba9190612af4565b6001600160a01b031614158061181257506001600160a01b03881682826117e2600182612f1a565b8181106117f1576117f1612f68565b90506020020160208101906118069190612af4565b6001600160a01b031614155b1561185c576040517fead9849a0000000000000000000000000000000000000000000000000000000081526001600160a01b038085166004830152891660248201526044016103a8565b6001600160a01b0387166338ed1739858f600360200281019061187f9190612f97565b60200135858530426040518763ffffffff1660e01b81526004016118a896959493929190613044565b6000604051808303816000875af11580156118c7573d6000803e3d6000fd5b505050506040513d6000823e601f3d908101601f191682016040526118ef91908101906130b7565b5050505b50506040517f70a082310000000000000000000000000000000000000000000000000000000081523060048201526001600160a01b03808516935063e8e337009250869186918316906370a0823190602401602060405180830381865afa158015611962573d6000803e3d6000fd5b505050506040513d601f19601f820116820180604052508101906119869190612f01565b6040517f70a082310000000000000000000000000000000000000000000000000000000081523060048201526001600160a01b038816906370a0823190602401602060405180830381865afa1580156119e3573d6000803e3d6000fd5b505050506040513d601f19601f82011682018060405250810190611a079190612f01565b611a118d80612f97565b60209081013590611a24908f018f612f97565b6040517fffffffff0000000000000000000000000000000000000000000000000000000060e089901b1681526001600160a01b0396871660048201529590941660248601526044850192909252606484015260848301526020013560a48201523060c48201524260e4820152610104016060604051808303816000875af1158015611ab3573d6000803e3d6000fd5b505050506040513d601f19601f82011682018060405250810190611ad7919061315d565b603c5490975060009250611aec915043612f1a565b603a54611af9919061318b565b603b54611b069190612c3f565b611b18670de0b6b3a76400008861318b565b611b229190612f2d565b90506000603f81611b34600189612edd565b63ffffffff168152602081019190915260400160002054611b559043612f1a565b611b5f908361318b565b603f6000611b6e60018a612edd565b63ffffffff1663ffffffff16815260200190815260200160002060020154611b969190612c3f565b60408051606081018252438152602080820186815282840185815263ffffffff8c166000908152603f9093529390912091518255516001808301919091559151600290910155909150611bea9087906131a2565b603d80547fffffffffffffffffffffffffffffffffffffffffffffffffffffffff000000001663ffffffff9290921691909117905543603c556000603b556039546038546040517fe2bbb1580000000000000000000000000000000000000000000000000000000081526004810191909152602481018990526001600160a01b039091169063e2bbb15890604401600060405180830381600087803b158015611c9257600080fd5b505af1158015611ca6573d6000803e3d6000fd5b5050505050505050505092915050565b6040546001600160a01b03163314611cfa576040517ffa6f03ae00000000000000000000000000000000000000000000000000000000815260040160405180910390fd5b81600003611d34576040517f78e321a500000000000000000000000000000000000000000000000000000000815260040160405180910390fd5b611d3d81612599565b6001600160a01b0381166000908152603e602052604081208054849290611d65908490612c3f565b9250508190555081603a6000828254611d7e9190612c3f565b90915550506039546038546040517fe2bbb1580000000000000000000000000000000000000000000000000000000081526001600160a01b039092169163e2bbb15891611dd8918690600401918252602082015260400190565b600060405180830381600087803b158015611df257600080fd5b505af1158015611e06573d6000803e3d6000fd5b505050505050565b6040546001600160a01b03163314611e52576040517ffa6f03ae00000000000000000000000000000000000000000000000000000000815260040160405180910390fd5b82600003611e8c576040517f2cd294cf00000000000000000000000000000000000000000000000000000000815260040160405180910390fd5b611e9582612599565b6001600160a01b0382166000908152603e60205260409020600281015480851115611f3c578154600090611eca908390612c3f565b905080861115611f06576040517f50b1f35600000000000000000000000000000000000000000000000000000000815260040160405180910390fd5b611f108682612f1a565b8355603a548690611f22908490612c3f565b611f2c9190612f1a565b603a555060006002830155611f4c565b611f468582612f1a565b60028301555b6039546038546040517f441a3e700000000000000000000000000000000000000000000000000000000081526001600160a01b039092169163441a3e7091611fa1918990600401918252602082015260400190565b600060405180830381600087803b158015611fbb57600080fd5b505af1158015611fcf573d6000803e3d6000fd5b5050603554611feb92506001600160a01b0316905084876126d8565b5050505050565b6001600160a01b0381166000908152603e60209081526040808320815160a08101835281548152600182015493810193909352600281015491830191909152600381015463ffffffff908116606084018190526004909201546080840152603d54169003612064576040015192915050565b60608082015163ffffffff166000908152603f60209081526040808320815194850182528054808652600182015493860193909352600201549084015260808401516120af91612f1a565b83516120bb919061318b565b83602001516120ca9190612c3f565b90506000670de0b6b3a76400008360200151836120e7919061318b565b6120f19190612f2d565b6040840151603d54919250600091670de0b6b3a76400009190603f9084906121219060019063ffffffff16612edd565b63ffffffff1663ffffffff168152602001908152602001600020600201546121499190612f1a565b8651612155919061318b565b61215f9190612f2d565b9050808286604001516121729190612c3f565b61217c9190612c3f565b979650505050505050565b600054610100900460ff1661221e576040517f08c379a000000000000000000000000000000000000000000000000000000000815260206004820152602b60248201527f496e697469616c697a61626c653a20636f6e7472616374206973206e6f74206960448201527f6e697469616c697a696e6700000000000000000000000000000000000000000060648201526084016103a8565b612226612758565b565b6000806000805b734483f0b6e2f5486d06958c20f8c39a7abe87bf8f6001600160a01b031663081e3eda6040518163ffffffff1660e01b8152600401602060405180830381865afa158015612281573d6000803e3d6000fd5b505050506040513d601f19601f820116820180604052508101906122a59190612f01565b811015612389576040517f1526fe27000000000000000000000000000000000000000000000000000000008152600481018290526001600160a01b03861690734483f0b6e2f5486d06958c20f8c39a7abe87bf8f90631526fe279060240161012060405180830381865afa158015612321573d6000803e3d6000fd5b505050506040513d601f19601f820116820180604052508101906123459190612da0565b516001600160a01b0316036123775780935060019150734483f0b6e2f5486d06958c20f8c39a7abe87bf8f9250612389565b80612381816131bf565b91505061222f565b50806124ed5760005b73188bed1968b795d5c9022f6a0bb5931ac4c18f006001600160a01b031663081e3eda6040518163ffffffff1660e01b8152600401602060405180830381865afa1580156123e4573d6000803e3d6000fd5b505050506040513d601f19601f820116820180604052508101906124089190612f01565b8110156124eb576040517f1526fe27000000000000000000000000000000000000000000000000000000008152600481018290526001600160a01b0386169073188bed1968b795d5c9022f6a0bb5931ac4c18f0090631526fe279060240160a060405180830381865afa158015612483573d6000803e3d6000fd5b505050506040513d601f19601f820116820180604052508101906124a79190612e5e565b516001600160a01b0316036124d9578093506001915073188bed1968b795d5c9022f6a0bb5931ac4c18f0092506124eb565b806124e3816131bf565b915050612392565b505b80612524576040517fb292e30800000000000000000000000000000000000000000000000000000000815260040160405180910390fd5b50915091565b60008061253a6020840184612af4565b6001600160a01b03161461259257670de0b6b3a764000061255f60208401358561318b565b6125699190612f2d565b90508015612592576125926125816020840184612af4565b6001600160a01b03861690836126d8565b9392505050565b6001600160a01b0381166000908152603e60205260409020603d54600382015463ffffffff9182169116036126015760048101546125d79043612f1a565b81546125e3919061318b565b8160010160008282546125f69190612c3f565b9091555061265d9050565b61260a82611ff2565b6002820155603d54603f9060009061262a9060019063ffffffff16612edd565b63ffffffff16815260208101919091526040016000205461264b9043612f1a565b8154612657919061318b565b60018201555b603d546003820180547fffffffffffffffffffffffffffffffffffffffffffffffffffffffff000000001663ffffffff9092169190911790554360048201819055603a54603c5490916126b09190612f1a565b6126ba919061318b565b603b60008282546126cb9190612c3f565b909155505043603c555050565b604080516001600160a01b038416602482015260448082018490528251808303909101815260649091019091526020810180517bffffffffffffffffffffffffffffffffffffffffffffffffffffffff167fa9059cbb00000000000000000000000000000000000000000000000000000000179052610f599084906127f5565b600054610100900460ff166127ef576040517f08c379a000000000000000000000000000000000000000000000000000000000815260206004820152602b60248201527f496e697469616c697a61626c653a20636f6e7472616374206973206e6f74206960448201527f6e697469616c697a696e6700000000000000000000000000000000000000000060648201526084016103a8565b60018055565b600061284a826040518060400160405280602081526020017f5361666545524332303a206c6f772d6c6576656c2063616c6c206661696c6564815250856001600160a01b03166128f79092919063ffffffff16565b905080516000148061286b57508080602001905181019061286b9190612e3c565b610f59576040517f08c379a000000000000000000000000000000000000000000000000000000000815260206004820152602a60248201527f5361666545524332303a204552433230206f7065726174696f6e20646964206e60448201527f6f7420737563636565640000000000000000000000000000000000000000000060648201526084016103a8565b6060612906848460008561290e565b949350505050565b6060824710156129a0576040517f08c379a000000000000000000000000000000000000000000000000000000000815260206004820152602660248201527f416464726573733a20696e73756666696369656e742062616c616e636520666f60448201527f722063616c6c000000000000000000000000000000000000000000000000000060648201526084016103a8565b600080866001600160a01b031685876040516129bc91906131fd565b60006040518083038185875af1925050503d80600081146129f9576040519150601f19603f3d011682016040523d82523d6000602084013e6129fe565b606091505b509150915061217c8783838760608315612a93578251600003612a8c576001600160a01b0385163b612a8c576040517f08c379a000000000000000000000000000000000000000000000000000000000815260206004820152601d60248201527f416464726573733a2063616c6c20746f206e6f6e2d636f6e747261637400000060448201526064016103a8565b5081612906565b6129068383815115612aa85781518083602001fd5b806040517f08c379a00000000000000000000000000000000000000000000000000000000081526004016103a8919061320f565b6001600160a01b0381168114612af157600080fd5b50565b600060208284031215612b0657600080fd5b813561259281612adc565b60008060408385031215612b2457600080fd5b8235612b2f81612adc565b91506020830135612b3f81612adc565b809150509250929050565b6000808284036060811215612b5e57600080fd5b833567ffffffffffffffff811115612b7557600080fd5b840160808101861015612b8757600080fd5b92506040601f1982011215612b9b57600080fd5b506020830190509250929050565b60008060408385031215612bbc57600080fd5b823591506020830135612b3f81612adc565b600080600060608486031215612be357600080fd5b833592506020840135612bf581612adc565b91506040840135612c0581612adc565b809150509250925092565b7f4e487b7100000000000000000000000000000000000000000000000000000000600052601160045260246000fd5b8082018082111561023f5761023f612c10565b7f4e487b7100000000000000000000000000000000000000000000000000000000600052604160045260246000fd5b604051610120810167ffffffffffffffff81118282101715612ca557612ca5612c52565b60405290565b604051601f8201601f1916810167ffffffffffffffff81118282101715612cd457612cd4612c52565b604052919050565b600060408284031215612cee57600080fd5b6040516040810181811067ffffffffffffffff82111715612d1157612d11612c52565b604052825181526020928301519281019290925250919050565b8051612d3681612adc565b919050565b600060208284031215612d4d57600080fd5b815161259281612adc565b80516bffffffffffffffffffffffff81168114612d3657600080fd5b805167ffffffffffffffff81168114612d3657600080fd5b805163ffffffff81168114612d3657600080fd5b60006101208284031215612db357600080fd5b612dbb612c81565b612dc483612d2b565b8152612dd260208401612d58565b60208201526040830151604082015260608301516060820152612df760808401612d74565b6080820152612e0860a08401612d2b565b60a0820152612e1960c08401612d8c565b60c082015260e08381015190820152610100928301519281019290925250919050565b600060208284031215612e4e57600080fd5b8151801515811461259257600080fd5b600060a08284031215612e7057600080fd5b60405160a0810181811067ffffffffffffffff82111715612e9357612e93612c52565b6040528251612ea181612adc565b808252506020830151602082015260408301516040820152606083015160608201526080830151612ed181612adc565b60808201529392505050565b63ffffffff828116828216039080821115612efa57612efa612c10565b5092915050565b600060208284031215612f1357600080fd5b5051919050565b8181038181111561023f5761023f612c10565b600082612f63577f4e487b7100000000000000000000000000000000000000000000000000000000600052601260045260246000fd5b500490565b7f4e487b7100000000000000000000000000000000000000000000000000000000600052603260045260246000fd5b600082357fffffffffffffffffffffffffffffffffffffffffffffffffffffffffffffffc1833603018112612fcb57600080fd5b9190910192915050565b60008083357fffffffffffffffffffffffffffffffffffffffffffffffffffffffffffffffe184360301811261300a57600080fd5b83018035915067ffffffffffffffff82111561302557600080fd5b6020019150600581901b360382131561303d57600080fd5b9250929050565b868152602080820187905260a0604083018190528201859052600090869060c08401835b8881101561309657833561307b81612adc565b6001600160a01b031682529282019290820190600101613068565b506001600160a01b0396909616606085015250505060800152949350505050565b600060208083850312156130ca57600080fd5b825167ffffffffffffffff808211156130e257600080fd5b818501915085601f8301126130f657600080fd5b81518181111561310857613108612c52565b8060051b9150613119848301612cab565b818152918301840191848101908884111561313357600080fd5b938501935b8385101561315157845182529385019390850190613138565b98975050505050505050565b60008060006060848603121561317257600080fd5b8351925060208401519150604084015190509250925092565b808202811582820484141761023f5761023f612c10565b63ffffffff818116838216019080821115612efa57612efa612c10565b600060001982036131d2576131d2612c10565b5060010190565b60005b838110156131f45781810151838201526020016131dc565b50506000910152565b60008251612fcb8184602087016131d9565b602081526000825180602084015261322e8160408501602087016131d9565b601f01601f1916919091016040019291505056fea264697066735822122062d6c64c116ea2c58bfa4133a2c127c6fa9ca70711cc3d9322f373354b03da5064736f6c63430008130033",
  "immutableReferences": {},
  "source": "// SPDX-License-Identifier: MIT\r\npragma solidity 0.8.19;\r\n\r\nimport './interfaces/IUnoFarmTraderjoe.sol';\r\nimport \"../../interfaces/IUniswapV2Pair.sol\";\r\nimport \"../../interfaces/IUniswapV2Router.sol\";\r\nimport \"../../interfaces/IMasterChefJoe.sol\";\r\nimport \"../../interfaces/IMasterChefJoeBoost.sol\";\r\nimport \"../../interfaces/IMasterChefJoeV3.sol\";\r\nimport \"../../interfaces/ISimpleRewarder.sol\";\r\nimport \"@openzeppelin/contracts-upgradeable/security/ReentrancyGuardUpgradeable.sol\";\r\nimport \"@openzeppelin/contracts/token/ERC20/utils/SafeERC20.sol\";\r\nimport \"@openzeppelin/contracts-upgradeable/proxy/utils/Initializable.sol\";\r\n\r\ncontract UnoFarmTraderjoe is Initializable, ReentrancyGuardUpgradeable, IUnoFarmTraderjoe {\r\n\tusing SafeERC20 for IERC20;\r\n\t/**\r\n\t * @dev Tokens Used:\r\n\t * {rewardToken} - Token generated by staking (JOE).\r\n\t * {rewarderToken} - Token generated by simpleRewarderTime contract.\r\n\t * {lpPool} - Token that the strategy maximizes. The same token that users deposit in the {MasterChef}.\r\n\t * {tokenA, tokenB} - Tokens that the strategy maximizes.\r\n\t */\r\n\taddress public rewardToken;\r\n\taddress public rewarderToken;\r\n\taddress public lpPool;\r\n\taddress public tokenA;\r\n\taddress public tokenB;\r\n\r\n\t/**\r\n\t * @dev Third Party Contracts:\r\n\t * {traderjoeRouter} - The contract that executes swaps.\r\n\t * {MasterChefBoost} -The contract that distibutes {rewardToken}.\r\n\t * {MasterChefV3} -The contract that distibutes {rewardToken}.\r\n\t */\r\n\tIUniswapV2Router01 private constant traderjoeRouter = IUniswapV2Router01(0x60aE616a2155Ee3d9A68541Ba4544862310933d4);\r\n\tIMasterChefJoeBoost private constant MasterChefBoost = IMasterChefJoeBoost(0x4483f0b6e2F5486D06958C20f8C39A7aBe87bf8F);\r\n\tIMasterChefJoeV3 private constant MasterChefV3 = IMasterChefJoeV3(0x188bED1968b795d5c9022F6a0bb5931Ac4c18F00);\r\n\r\n\t/**\r\n     * @dev Contract Variables:\r\n     * {pid} - Pool ID.\r\n     * {MasterChef} - MasterChef in use.\r\n\r\n     * {totalDeposits} - Total deposits made by users.\r\n     * {totalDepositAge} - Deposits multiplied by blocks the deposit has been in. Flushed every reward distribution.\r\n     * {totalDepositLastUpdate} - Last {totalDepositAge} update block.\r\n\r\n     * {distributionID} - Current distribution ID.\r\n     * {userInfo} - Info on each user.\r\n     * {distributionInfo} - Info on each distribution.\r\n\r\n     * {fractionMultiplier} - Used to store decimal values.\r\n     */\r\n\tuint256 public pid;\r\n\tIMasterChefJoe public MasterChef;\r\n\r\n\tuint256 private totalDeposits;\r\n\tuint256 private totalDepositAge;\r\n\tuint256 private totalDepositLastUpdate;\r\n\r\n\tuint32 private distributionID;\r\n\tmapping(address => UserInfo) private userInfo;\r\n\tmapping(uint32 => DistributionInfo) private distributionInfo;\r\n\r\n\tuint256 private constant fractionMultiplier = uint256(1 ether);\r\n\r\n\t/**\r\n\t * @dev Contract Variables:\r\n\t * {assetRouter} - The contract from which calls to this farm are made.\r\n\t */\r\n\taddress public assetRouter;\r\n\tmodifier onlyAssetRouter() {\r\n \t\tif(msg.sender != assetRouter) revert CALLER_NOT_ASSET_ROUTER();\r\n\t\t_;\r\n\t}\r\n\r\n\t// ============ Methods ============\r\n\r\n\tfunction initialize(address _lpPool, address _assetRouter) external initializer {\r\n        if(_lpPool == address(0)) revert INVALID_LP_POOL();\r\n        if(_assetRouter == address(0)) revert INVALID_ASSET_ROUTER();\r\n\r\n\t\t__ReentrancyGuard_init();\r\n\t\tassetRouter = _assetRouter;\r\n\r\n\t\t(pid, MasterChef) = _getPoolInfo(_lpPool);\r\n\t\tlpPool = _lpPool;\r\n\r\n\t\trewardToken = MasterChef.JOE();\r\n\t\tif (address(MasterChef) == address(MasterChefBoost)) {\r\n\t\t\taddress simpleRewarder = MasterChefBoost.poolInfo(pid).rewarder;\r\n\t\t\tif (simpleRewarder != address(0)) {\r\n\t\t\t\trewarderToken = address(ISimpleRewarder(simpleRewarder).rewardToken());\r\n\t\t\t\tIERC20(rewarderToken).approve(address(traderjoeRouter), type(uint256).max);\r\n\t\t\t}\r\n\t\t} else {\r\n\t\t\taddress simpleRewarder = MasterChefV3.poolInfo(pid).rewarder;\r\n\t\t\tif (simpleRewarder != address(0)) {\r\n\t\t\t\trewarderToken = address(ISimpleRewarder(simpleRewarder).rewardToken());\r\n\t\t\t\tIERC20(rewarderToken).approve(address(traderjoeRouter), type(uint256).max);\r\n\t\t\t}\r\n\t\t}\r\n\r\n\t\ttokenA = IUniswapV2Pair(lpPool).token0();\r\n\t\ttokenB = IUniswapV2Pair(lpPool).token1();\r\n\r\n\t\tdistributionInfo[0] = DistributionInfo({ block: block.number, rewardPerDepositAge: 0, cumulativeRewardAgePerDepositAge: 0 });\r\n\t\tdistributionID = 1;\r\n\t\ttotalDepositLastUpdate = block.number;\r\n\r\n\t\tIERC20(lpPool).approve(address(MasterChef), type(uint256).max);\r\n\t\tIERC20(lpPool).approve(address(traderjoeRouter), type(uint256).max);\r\n\t\tIERC20(rewardToken).approve(address(traderjoeRouter), type(uint256).max);\r\n\t\tIERC20(tokenA).approve(address(traderjoeRouter), type(uint256).max);\r\n\t\tIERC20(tokenB).approve(address(traderjoeRouter), type(uint256).max);\r\n\t}\r\n\r\n\t/**\r\n\t * @dev Function that makes the deposits.\r\n\t * Stakes {amount} of LP tokens from this contract's balance in the {MasterChef}.\r\n\t */\r\n\tfunction deposit(uint256 amount, address recipient) external onlyAssetRouter{\r\n        if(amount == 0) revert NO_LIQUIDITY_PROVIDED();\r\n\r\n\t\t_updateDeposit(recipient);\r\n\t\tuserInfo[recipient].stake += amount;\r\n\t\ttotalDeposits += amount;\r\n\r\n\t\tMasterChef.deposit(pid, amount);\r\n\t}\r\n\r\n\t/**\r\n\t * @dev Withdraws funds from {origin} and sends them to the {recipient}.\r\n\t */\r\n\tfunction withdraw(\r\n\t\tuint256 amount,\r\n\t\taddress origin,\r\n\t\taddress recipient\r\n\t) external onlyAssetRouter {\r\n        if(amount == 0) revert INSUFFICIENT_AMOUNT();\r\n\r\n\t\t_updateDeposit(origin);\r\n\t\tUserInfo storage user = userInfo[origin];\r\n\t\t// Subtract amount from user.reward first, then subtract remainder from user.stake.\r\n\t\tuint256 reward = user.reward;\r\n\t\tif (amount > reward) {\r\n\t\t\tuint256 balance = user.stake + reward;\r\n            if(amount > balance) revert INSUFFICIENT_BALANCE();\r\n\r\n\t\t\tuser.stake = balance - amount;\r\n\t\t\ttotalDeposits = totalDeposits + reward - amount;\r\n\t\t\tuser.reward = 0;\r\n\t\t} else {\r\n\t\t\tuser.reward = reward - amount;\r\n\t\t}\r\n\r\n\t\tMasterChef.withdraw(pid, amount);\r\n\t\tIERC20(lpPool).safeTransfer(recipient, amount);\r\n\t}\r\n\r\n\t/**\r\n\t * @dev Core function of the strat, in charge of updating, collecting and re-investing rewards.\r\n\t * 1. It claims rewards from the {MasterChef}.\r\n\t * 2. It swaps {rewardToken} token for {tokenA} & {tokenB}.\r\n\t * 3. It deposits new LP tokens back to the {MasterChef}.\r\n\t */\r\n\tfunction distribute(\r\n\t\tSwapInfo[4] calldata swapInfos,\r\n\t\tFeeInfo calldata feeInfo\r\n\t) external onlyAssetRouter returns (uint256 reward) {\r\n\t\tif(totalDeposits == 0) revert NO_LIQUIDITY();\r\n\t\tuint32 _distributionID = distributionID;\r\n        if(distributionInfo[_distributionID - 1].block == block.number) revert CALL_ON_THE_SAME_BLOCK();\r\n\r\n\t\tMasterChef.withdraw(pid, 0);\r\n\r\n        address _tokenA = tokenA;\r\n        address _tokenB = tokenB;\r\n        IUniswapV2Router01 _traderjoeRouter = traderjoeRouter;\r\n\t\t{// scope to avoid stack too deep errors\r\n\t\tuint256 rewardTokenHalf;\r\n\t\taddress _rewardToken = rewardToken;\r\n        {\r\n            uint256 balance = IERC20(_rewardToken).balanceOf(address(this));\r\n            balance -= _collectFees(IERC20(_rewardToken), balance, feeInfo);\r\n            rewardTokenHalf = balance / 2;\r\n        }\r\n\r\n        uint256 rewarderTokenHalf;\r\n\t\taddress _rewarderToken = rewarderToken;\r\n        if (rewarderToken != address(0)) {\r\n            uint256 balance = IERC20(_rewarderToken).balanceOf(address(this));\r\n            balance -= _collectFees(IERC20(_rewarderToken), balance, feeInfo);\r\n            rewarderTokenHalf = balance / 2;\r\n        }\r\n\r\n\t\tif (rewardTokenHalf > 0) {\r\n\t\t\tif (_tokenA != _rewardToken) {\r\n\t\t\t\taddress[] calldata route = swapInfos[0].route;\r\n\t\t\t\tif(route[0] != _rewardToken || route[route.length - 1] != _tokenA) revert INVALID_ROUTE(_rewardToken, _tokenA);\r\n\t\t\t\t_traderjoeRouter.swapExactTokensForTokens(rewardTokenHalf, swapInfos[0].amountOutMin, route, address(this), block.timestamp);\r\n\t\t\t}\r\n\r\n\t\t\tif (_tokenB != _rewardToken) {\r\n\t\t\t\taddress[] calldata route = swapInfos[1].route;\r\n                if(route[0] != _rewardToken || route[route.length - 1] != _tokenB) revert INVALID_ROUTE(_rewardToken, _tokenB);\r\n\t\t\t\t_traderjoeRouter.swapExactTokensForTokens(rewardTokenHalf, swapInfos[1].amountOutMin, route, address(this), block.timestamp);\r\n\t\t\t}\r\n\t\t}\r\n\r\n\t\tif (rewarderTokenHalf > 0) {\r\n\t\t\tif (_tokenA != _rewarderToken) {\r\n\t\t\t\taddress[] calldata route = swapInfos[2].route;\r\n\t\t\t\tif (route[0] != _rewarderToken || route[route.length - 1] != _tokenA) revert INVALID_ROUTE(_rewarderToken, _tokenA);\r\n\t\t\t\t_traderjoeRouter.swapExactTokensForTokens(rewarderTokenHalf, swapInfos[2].amountOutMin, route, address(this), block.timestamp);\r\n\t\t\t}\r\n\r\n\t\t\tif (_tokenB != _rewarderToken) {\r\n\t\t\t\taddress[] calldata route = swapInfos[3].route;\r\n\t\t\t\tif (route[0] != _rewarderToken || route[route.length - 1] != _tokenB) revert INVALID_ROUTE(_rewarderToken, _tokenB);\r\n\t\t\t\t_traderjoeRouter.swapExactTokensForTokens(rewarderTokenHalf, swapInfos[3].amountOutMin, route, address(this), block.timestamp);\r\n\t\t\t}\r\n\t\t}\r\n\t\t}\r\n\r\n\t\t(,,reward) = _traderjoeRouter.addLiquidity(_tokenA, _tokenB, IERC20(_tokenA).balanceOf(address(this)), IERC20(_tokenB).balanceOf(address(this)), swapInfos[0].amountOutMin, swapInfos[1].amountOutMin, address(this), block.timestamp);\r\n\r\n\t\tuint256 rewardPerDepositAge = (reward * fractionMultiplier) / (totalDepositAge + totalDeposits * (block.number - totalDepositLastUpdate));\r\n\t\tuint256 cumulativeRewardAgePerDepositAge = distributionInfo[_distributionID - 1].cumulativeRewardAgePerDepositAge + rewardPerDepositAge * (block.number - distributionInfo[_distributionID - 1].block);\r\n\r\n\t\tdistributionInfo[_distributionID] = DistributionInfo({ block: block.number, rewardPerDepositAge: rewardPerDepositAge, cumulativeRewardAgePerDepositAge: cumulativeRewardAgePerDepositAge });\r\n\r\n\t\tdistributionID = _distributionID + 1;\r\n\t\ttotalDepositLastUpdate = block.number;\r\n\t\ttotalDepositAge = 0;\r\n\r\n\t\tMasterChef.deposit(pid, reward);\r\n\t}\r\n\r\n    /**\r\n\t * @dev Sends fees to feeTo.\r\n\t */\r\n\tfunction _collectFees(IERC20 token, uint256 balance, FeeInfo calldata feeInfo) internal returns(uint256 feeAmount) {\r\n\t\tif (feeInfo.feeTo != address(0)) {\r\n\t\t\tfeeAmount = balance * feeInfo.fee / fractionMultiplier;\r\n\t\t\tif (feeAmount > 0) {\r\n\t\t\t\ttoken.safeTransfer(feeInfo.feeTo, feeAmount);\r\n\t\t\t}\r\n\t\t}\r\n\t}\r\n\r\n\t/**\r\n\t * @dev Returns total funds staked by the {_address}.\r\n\t */\r\n\tfunction userBalance(address _address) external view returns (uint256) {\r\n\t\treturn userInfo[_address].stake + _userReward(_address);\r\n\t}\r\n\r\n\t/**\r\n\t * @dev Returns total funds locked in the farm.\r\n\t */\r\n\tfunction getTotalDeposits() external view returns (uint256 _totalDeposits) {\r\n\t\tif (totalDeposits > 0) {\r\n\t\t\t_totalDeposits = MasterChef.userInfo(pid, address(this)).amount;\r\n\t\t}\r\n\t}\r\n\r\n\tfunction _updateDeposit(address _address) internal {\r\n\t\tUserInfo storage user = userInfo[_address];\r\n\t\t// Accumulate deposit age within the current distribution period.\r\n\t\tif (user.lastDistribution == distributionID) {\r\n\t\t\t// Add deposit age from previous deposit age update to now.\r\n\t\t\tuser.depositAge += user.stake * (block.number - user.lastUpdate);\r\n\t\t} else {\r\n\t\t\t// A reward has been distributed, update user.reward.\r\n\t\t\tuser.reward = _userReward(_address);\r\n\t\t\t// Count fresh deposit age from previous reward distribution to now.\r\n\t\t\tuser.depositAge = user.stake * (block.number - distributionInfo[distributionID - 1].block);\r\n\t\t}\r\n\r\n\t\tuser.lastDistribution = distributionID;\r\n\t\tuser.lastUpdate = block.number;\r\n\r\n\t\t// Same with total deposit age.\r\n\t\ttotalDepositAge += (block.number - totalDepositLastUpdate) * totalDeposits;\r\n\t\ttotalDepositLastUpdate = block.number;\r\n\t}\r\n\r\n\tfunction _userReward(address _address) internal view returns (uint256) {\r\n\t\tUserInfo memory user = userInfo[_address];\r\n\t\tif (user.lastDistribution == distributionID) {\r\n\t\t\t// Return user.reward if the distribution after the last user deposit did not happen yet.\r\n\t\t\treturn user.reward;\r\n\t\t}\r\n\t\tDistributionInfo memory lastUserDistributionInfo = distributionInfo[user.lastDistribution];\r\n\t\tuint256 userDepositAge = user.depositAge + user.stake * (lastUserDistributionInfo.block - user.lastUpdate);\r\n\t\t// Calculate reward between the last user deposit and the distribution after that.\r\n\t\tuint256 rewardBeforeDistibution = (userDepositAge * lastUserDistributionInfo.rewardPerDepositAge) / fractionMultiplier;\r\n\t\t// Calculate reward from the distributions that have happened after the last user deposit.\r\n\t\tuint256 rewardAfterDistribution = (user.stake * (distributionInfo[distributionID - 1].cumulativeRewardAgePerDepositAge - lastUserDistributionInfo.cumulativeRewardAgePerDepositAge)) / fractionMultiplier;\r\n\t\treturn user.reward + rewardBeforeDistibution + rewardAfterDistribution;\r\n\t}\r\n\r\n\t/**\r\n\t * @dev Get pid and MasterChef version by iterating over all pools and MasterChefs and comparing pids.\r\n\t */\r\n\tfunction _getPoolInfo(address _lpPool) internal view returns (uint256 _pid, IMasterChefJoe _masterChefAddress) {\r\n\t\tbool poolExists = false;\r\n\r\n\t\t// there are more pools assigned to V2, so it makes sense to start with it\r\n\t\tfor (uint256 i = 0; i < MasterChefBoost.poolLength(); i++) {\r\n\t\t\tif (MasterChefBoost.poolInfo(i).lpToken == _lpPool) {\r\n\t\t\t\t_pid = i;\r\n\t\t\t\tpoolExists = true;\r\n\t\t\t\t_masterChefAddress = IMasterChefJoe(address(MasterChefBoost));\r\n\t\t\t\tbreak;\r\n\t\t\t}\r\n\t\t}\r\n\t\tif (!poolExists) {\r\n\t\t\tfor (uint256 i = 0; i < MasterChefV3.poolLength(); i++) {\r\n\t\t\t\tif (MasterChefV3.poolInfo(i).lpToken == _lpPool) {\r\n\t\t\t\t\t_pid = i;\r\n\t\t\t\t\tpoolExists = true;\r\n\t\t\t\t\t_masterChefAddress = IMasterChefJoe(address(MasterChefV3));\r\n\t\t\t\t\tbreak;\r\n\t\t\t\t}\r\n\t\t\t}\r\n\t\t}\r\n        if(!poolExists) revert PID_NOT_EXISTS();\r\n\t\treturn (_pid, _masterChefAddress);\r\n\t}\r\n}\r\n",
  "sourcePath": "C:\\Users\\jugli\\Desktop\\uno\\uno-contracts-avalanche\\contracts\\apps\\traderjoe\\UnoFarmTraderjoe.sol",
  "compiler": {
    "name": "solc",
    "version": "0.8.19+commit.7dd6d404.Emscripten.clang"
  },
  "schemaVersion": "3.4.16",
  "updatedAt": "2023-09-27T16:17:15.177Z",
  "devdoc": {
    "events": {
      "Initialized(uint8)": {
        "details": "Triggered when the contract has been initialized or reinitialized."
      }
    },
    "kind": "dev",
    "methods": {
      "deposit(uint256,address)": {
        "details": "Function that makes the deposits. Stakes {amount} of LP tokens from this contract's balance in the {MasterChef}."
      },
      "distribute((address[],uint256)[4],(address,uint256))": {
        "details": "Core function of the strat, in charge of updating, collecting and re-investing rewards. 1. It claims rewards from the {MasterChef}. 2. It swaps {rewardToken} token for {tokenA} & {tokenB}. 3. It deposits new LP tokens back to the {MasterChef}."
      },
      "getTotalDeposits()": {
        "details": "Returns total funds locked in the farm."
      },
      "userBalance(address)": {
        "details": "Returns total funds staked by the {_address}."
      },
      "withdraw(uint256,address,address)": {
        "details": "Withdraws funds from {origin} and sends them to the {recipient}."
      }
    },
    "stateVariables": {
      "assetRouter": {
        "details": "Contract Variables: {assetRouter} - The contract from which calls to this farm are made."
      },
      "pid": {
        "details": "Contract Variables: {pid} - Pool ID. {MasterChef} - MasterChef in use. {totalDeposits} - Total deposits made by users. {totalDepositAge} - Deposits multiplied by blocks the deposit has been in. Flushed every reward distribution. {totalDepositLastUpdate} - Last {totalDepositAge} update block. {distributionID} - Current distribution ID. {userInfo} - Info on each user. {distributionInfo} - Info on each distribution. {fractionMultiplier} - Used to store decimal values."
      },
      "rewardToken": {
        "details": "Tokens Used: {rewardToken} - Token generated by staking (JOE). {rewarderToken} - Token generated by simpleRewarderTime contract. {lpPool} - Token that the strategy maximizes. The same token that users deposit in the {MasterChef}. {tokenA, tokenB} - Tokens that the strategy maximizes."
      },
      "traderjoeRouter": {
        "details": "Third Party Contracts: {traderjoeRouter} - The contract that executes swaps. {MasterChefBoost} -The contract that distibutes {rewardToken}. {MasterChefV3} -The contract that distibutes {rewardToken}."
      }
    },
    "version": 1
  },
  "userdoc": {
    "kind": "user",
    "methods": {},
    "version": 1
  }
}