{
  "contractName": "UnoFarmApeswap",
  "abi": [
    {
      "anonymous": false,
      "inputs": [
        {
          "indexed": false,
          "internalType": "uint8",
          "name": "version",
          "type": "uint8"
        }
      ],
      "name": "Initialized",
      "type": "event"
    },
    {
      "inputs": [],
      "name": "assetRouter",
      "outputs": [
        {
          "internalType": "address",
          "name": "",
          "type": "address"
        }
      ],
      "stateMutability": "view",
      "type": "function"
    },
    {
      "inputs": [],
      "name": "lpPair",
      "outputs": [
        {
          "internalType": "address",
          "name": "",
          "type": "address"
        }
      ],
      "stateMutability": "view",
      "type": "function"
    },
    {
      "inputs": [],
      "name": "pid",
      "outputs": [
        {
          "internalType": "uint256",
          "name": "",
          "type": "uint256"
        }
      ],
      "stateMutability": "view",
      "type": "function"
    },
    {
      "inputs": [],
      "name": "rewardToken",
      "outputs": [
        {
          "internalType": "address",
          "name": "",
          "type": "address"
        }
      ],
      "stateMutability": "view",
      "type": "function"
    },
    {
      "inputs": [],
      "name": "tokenA",
      "outputs": [
        {
          "internalType": "address",
          "name": "",
          "type": "address"
        }
      ],
      "stateMutability": "view",
      "type": "function"
    },
    {
      "inputs": [],
      "name": "tokenB",
      "outputs": [
        {
          "internalType": "address",
          "name": "",
          "type": "address"
        }
      ],
      "stateMutability": "view",
      "type": "function"
    },
    {
      "inputs": [
        {
          "internalType": "address",
          "name": "_lpPair",
          "type": "address"
        },
        {
          "internalType": "address",
          "name": "_assetRouter",
          "type": "address"
        }
      ],
      "name": "initialize",
      "outputs": [],
      "stateMutability": "nonpayable",
      "type": "function"
    },
    {
      "inputs": [
        {
          "internalType": "uint256",
          "name": "amount",
          "type": "uint256"
        },
        {
          "internalType": "address",
          "name": "recipient",
          "type": "address"
        }
      ],
      "name": "deposit",
      "outputs": [],
      "stateMutability": "nonpayable",
      "type": "function"
    },
    {
      "inputs": [
        {
          "internalType": "uint256",
          "name": "amount",
          "type": "uint256"
        },
        {
          "internalType": "address",
          "name": "origin",
          "type": "address"
        },
        {
          "internalType": "address",
          "name": "recipient",
          "type": "address"
        }
      ],
      "name": "withdraw",
      "outputs": [],
      "stateMutability": "nonpayable",
      "type": "function"
    },
    {
      "inputs": [
        {
          "components": [
            {
              "internalType": "address[]",
              "name": "route",
              "type": "address[]"
            },
            {
              "internalType": "uint256",
              "name": "amountOutMin",
              "type": "uint256"
            }
          ],
          "internalType": "struct UnoFarmApeswap.SwapInfo[2]",
          "name": "swapInfos",
          "type": "tuple[2]"
        },
        {
          "components": [
            {
              "internalType": "address[]",
              "name": "route",
              "type": "address[]"
            },
            {
              "internalType": "uint256",
              "name": "amountOutMin",
              "type": "uint256"
            }
          ],
          "internalType": "struct UnoFarmApeswap.SwapInfo",
          "name": "feeSwapInfo",
          "type": "tuple"
        },
        {
          "components": [
            {
              "internalType": "address",
              "name": "feeTo",
              "type": "address"
            },
            {
              "internalType": "uint256",
              "name": "fee",
              "type": "uint256"
            }
          ],
          "internalType": "struct UnoFarmApeswap.FeeInfo",
          "name": "feeInfo",
          "type": "tuple"
        }
      ],
      "name": "distribute",
      "outputs": [
        {
          "internalType": "uint256",
          "name": "reward",
          "type": "uint256"
        }
      ],
      "stateMutability": "nonpayable",
      "type": "function"
    },
    {
      "inputs": [
        {
          "internalType": "address",
          "name": "_address",
          "type": "address"
        }
      ],
      "name": "userBalance",
      "outputs": [
        {
          "internalType": "uint256",
          "name": "",
          "type": "uint256"
        }
      ],
      "stateMutability": "view",
      "type": "function"
    },
    {
      "inputs": [],
      "name": "getTotalDeposits",
      "outputs": [
        {
          "internalType": "uint256",
          "name": "_totalDeposits",
          "type": "uint256"
        }
      ],
      "stateMutability": "view",
      "type": "function"
    }
  ],
  "bytecode": "0x608060405234801561001057600080fd5b5061267c806100206000396000f3fe608060405234801561001057600080fd5b50600436106100b45760003560e01c80635f64b55b116100715780635f64b55b1461014d5780636e553f6514610160578063b460af9414610173578063bc0aac1014610186578063f106845414610199578063f7c618c1146101a257600080fd5b80630103c92b146100b95780630fc63d10146100df578063168a48221461010a57806336eeb1dd14610112578063452ed4f114610125578063485cc95514610138575b600080fd5b6100cc6100c7366004611f64565b6101b5565b6040519081526020015b60405180910390f35b6035546100f2906001600160a01b031681565b6040516001600160a01b0390911681526020016100d6565b6100cc6101e9565b6100cc610120366004611f93565b610278565b6034546100f2906001600160a01b031681565b61014b610146366004612011565b610b7d565b005b6036546100f2906001600160a01b031681565b61014b61016e36600461204a565b6111a9565b61014b61018136600461206f565b61130a565b603e546100f2906001600160a01b031681565b6100cc60375481565b6033546100f2906001600160a01b031681565b60006101c082611510565b6001600160a01b0383166000908152603c60205260409020546101e391906120c7565b92915050565b60385460009015610275576037546040516393f1a40b60e01b81526004810191909152306024820152735c8d727b265dbafaba67e050f2f739caeeb4a6f9906393f1a40b906044016040805180830381865afa15801561024d573d6000803e3d6000fd5b505050506040513d601f19601f820116820180604052508101906102719190612126565b5190505b90565b603e546000906001600160a01b031633146102ae5760405162461bcd60e51b81526004016102a590612175565b60405180910390fd5b600260015414156102d15760405162461bcd60e51b81526004016102a5906121ac565b60026001556038546103145760405162461bcd60e51b815260206004820152600c60248201526b4e4f5f4c495155494449545960a01b60448201526064016102a5565b603b544390603d906000906103319060019063ffffffff166121e3565b63ffffffff16815260208101919091526040016000205414156103965760405162461bcd60e51b815260206004820152601b60248201527f43414e545f43414c4c5f4f4e5f5448455f53414d455f424c4f434b000000000060448201526064016102a5565b603754604051630441a3e760e41b8152600481019190915260006024820152735c8d727b265dbafaba67e050f2f739caeeb4a6f99063441a3e7090604401600060405180830381600087803b1580156103ee57600080fd5b505af1158015610402573d6000803e3d6000fd5b5050505061041083836116a5565b6033546040516370a0823160e01b81523060048201526000916002916001600160a01b03909116906370a0823190602401602060405180830381865afa15801561045e573d6000803e3d6000fd5b505050506040513d601f19601f820116820180604052508101906104829190612208565b61048c9190612221565b6033546035549192506001600160a01b03918216911614610633573660006104b48780612259565b6104be9080612279565b60335491935091506001600160a01b031682826000816104e0576104e0612243565b90506020020160208101906104f59190611f64565b6001600160a01b031614801561054e57506035546001600160a01b0316828261051f6001826122ca565b81811061052e5761052e612243565b90506020020160208101906105439190611f64565b6001600160a01b0316145b61059a5760405162461bcd60e51b815260206004820152601860248201527f4241445f5245574152445f544f4b454e5f415f524f555445000000000000000060448201526064016102a5565b73cf0febd3f17cef5b47b0cd257acf6025c5bff3b76338ed1739846105bf8a80612259565b60200135858530426040518763ffffffff1660e01b81526004016105e8969594939291906122e1565b6000604051808303816000875af1158015610607573d6000803e3d6000fd5b505050506040513d6000823e601f3d908101601f1916820160405261062f9190810190612354565b5050505b6033546036546001600160a01b039081169116146107dd5736600061065b6020880188612259565b6106659080612279565b60335491935091506001600160a01b0316828260008161068757610687612243565b905060200201602081019061069c9190611f64565b6001600160a01b03161480156106f557506036546001600160a01b031682826106c66001826122ca565b8181106106d5576106d5612243565b90506020020160208101906106ea9190611f64565b6001600160a01b0316145b6107415760405162461bcd60e51b815260206004820152601860248201527f4241445f5245574152445f544f4b454e5f425f524f555445000000000000000060448201526064016102a5565b73cf0febd3f17cef5b47b0cd257acf6025c5bff3b76338ed17398461076960208b018b612259565b60200135858530426040518763ffffffff1660e01b8152600401610792969594939291906122e1565b6000604051808303816000875af11580156107b1573d6000803e3d6000fd5b505050506040513d6000823e601f3d908101601f191682016040526107d99190810190612354565b5050505b6035546036546040516370a0823160e01b815230600482015273cf0febd3f17cef5b47b0cd257acf6025c5bff3b79263e8e33700926001600160a01b039182169291169082906370a0823190602401602060405180830381865afa158015610849573d6000803e3d6000fd5b505050506040513d601f19601f8201168201806040525081019061086d9190612208565b6036546040516370a0823160e01b81523060048201526001600160a01b03909116906370a0823190602401602060405180830381865afa1580156108b5573d6000803e3d6000fd5b505050506040513d601f19601f820116820180604052508101906108d99190612208565b6108e38b80612259565b602090810135906108f6908d018d612259565b6040516001600160e01b031960e089901b1681526001600160a01b0396871660048201529590941660248601526044850192909252606484015260848301526020013560a48201523060c48201524260e4820152610104016060604051808303816000875af115801561096d573d6000803e3d6000fd5b505050506040513d601f19601f8201168201806040525081019061099191906123fa565b603a54909450600092506109a69150436122ca565b6038546109b39190612428565b6039546109c091906120c7565b6109d2670de0b6b3a764000085612428565b6109dc9190612221565b603b54909150600090603d9082906109fc9060019063ffffffff166121e3565b63ffffffff168152602081019190915260400160002054610a1d90436122ca565b610a279083612428565b603b54603d90600090610a429060019063ffffffff166121e3565b63ffffffff1663ffffffff16815260200190815260200160002060020154610a6a91906120c7565b604080516060810182524381526020808201868152828401858152603b805463ffffffff9081166000908152603d90955295842094518555915160018581019190915590516002909401939093558054949550919391929091610acf91859116612447565b825463ffffffff9182166101009390930a92830291909202199091161790555043603a556000603955603754604051631c57762b60e31b8152735c8d727b265dbafaba67e050f2f739caeeb4a6f99163e2bbb15891610b3c91908890600401918252602082015260400190565b600060405180830381600087803b158015610b5657600080fd5b505af1158015610b6a573d6000803e3d6000fd5b5050600180555093979650505050505050565b6000610b896001611936565b90508015610ba1576000805461ff0019166101001790555b6001600160a01b038316610be55760405162461bcd60e51b815260206004820152600b60248201526a10905117d31417d413d3d360aa1b60448201526064016102a5565b6001600160a01b038216610c2e5760405162461bcd60e51b815260206004820152601060248201526f2120a22fa0a9a9a2aa2fa927aaaa22a960811b60448201526064016102a5565b610c366119be565b603e80546001600160a01b0319166001600160a01b038416179055610c5a836119ef565b603755603480546001600160a01b0319166001600160a01b038516179055604080516337385d2160e21b81529051735c8d727b265dbafaba67e050f2f739caeeb4a6f99163dce174849160048083019260209291908290030181865afa158015610cc8573d6000803e3d6000fd5b505050506040513d601f19601f82011682018060405250810190610cec919061246f565b603380546001600160a01b0319166001600160a01b0392831617905560345460408051630dfe168160e01b815290519190921691630dfe16819160048083019260209291908290030181865afa158015610d4a573d6000803e3d6000fd5b505050506040513d601f19601f82011682018060405250810190610d6e919061246f565b603580546001600160a01b0319166001600160a01b039283161790556034546040805163d21220a760e01b81529051919092169163d21220a79160048083019260209291908290030181865afa158015610dcc573d6000803e3d6000fd5b505050506040513d601f19601f82011682018060405250810190610df0919061246f565b603680546001600160a01b0319166001600160a01b03928316179055604080516060810182524380825260006020808401828152848601838152928052603d90915292517fb4447350905ade30fbbf16eb128316f54a45abd6b02d89811edf7bbf0bb1ba7c5591517fb4447350905ade30fbbf16eb128316f54a45abd6b02d89811edf7bbf0bb1ba7d5590517fb4447350905ade30fbbf16eb128316f54a45abd6b02d89811edf7bbf0bb1ba7e55603b805463ffffffff19166001179055603a55603454905163095ea7b360e01b8152735c8d727b265dbafaba67e050f2f739caeeb4a6f96004820152600019602482015291169063095ea7b3906044016020604051808303816000875af1158015610f0d573d6000803e3d6000fd5b505050506040513d601f19601f82011682018060405250810190610f31919061248c565b5060345460405163095ea7b360e01b815273cf0febd3f17cef5b47b0cd257acf6025c5bff3b7600482015260001960248201526001600160a01b039091169063095ea7b3906044016020604051808303816000875af1158015610f98573d6000803e3d6000fd5b505050506040513d601f19601f82011682018060405250810190610fbc919061248c565b5060335460405163095ea7b360e01b815273cf0febd3f17cef5b47b0cd257acf6025c5bff3b7600482015260001960248201526001600160a01b039091169063095ea7b3906044016020604051808303816000875af1158015611023573d6000803e3d6000fd5b505050506040513d601f19601f82011682018060405250810190611047919061248c565b5060355460405163095ea7b360e01b815273cf0febd3f17cef5b47b0cd257acf6025c5bff3b7600482015260001960248201526001600160a01b039091169063095ea7b3906044016020604051808303816000875af11580156110ae573d6000803e3d6000fd5b505050506040513d601f19601f820116820180604052508101906110d2919061248c565b5060365460405163095ea7b360e01b815273cf0febd3f17cef5b47b0cd257acf6025c5bff3b7600482015260001960248201526001600160a01b039091169063095ea7b3906044016020604051808303816000875af1158015611139573d6000803e3d6000fd5b505050506040513d601f19601f8201168201806040525081019061115d919061248c565b5080156111a4576000805461ff0019169055604051600181527f7f26b83ff96e1f2b6a682f133852f6798a09c465da95921460cefb38474024989060200160405180910390a15b505050565b600260015414156111cc5760405162461bcd60e51b81526004016102a5906121ac565b6002600155603e546001600160a01b031633146111fb5760405162461bcd60e51b81526004016102a590612175565b600082116112435760405162461bcd60e51b81526020600482015260156024820152741393d7d3125455525112551657d41493d592511151605a1b60448201526064016102a5565b61124c81611b63565b6001600160a01b0381166000908152603c6020526040812080548492906112749084906120c7565b92505081905550816038600082825461128d91906120c7565b9091555050603754604051631c57762b60e31b8152600481019190915260248101839052735c8d727b265dbafaba67e050f2f739caeeb4a6f99063e2bbb15890604401600060405180830381600087803b1580156112ea57600080fd5b505af11580156112fe573d6000803e3d6000fd5b50506001805550505050565b6002600154141561132d5760405162461bcd60e51b81526004016102a5906121ac565b6002600155603e546001600160a01b0316331461135c5760405162461bcd60e51b81526004016102a590612175565b600083116113a25760405162461bcd60e51b8152602060048201526013602482015272125394d551919250d251539517d05353d55395606a1b60448201526064016102a5565b6113ab82611b63565b6001600160a01b0382166000908152603c60205260409020600281015484111561146457600281015481546000916113e2916120c7565b90508085111561142b5760405162461bcd60e51b8152602060048201526014602482015273494e53554646494349454e545f42414c414e434560601b60448201526064016102a5565b61143585826122ca565b82556002820154603854869161144a916120c7565b61145491906122ca565b603855506000600282015561147e565b8381600201600082825461147891906122ca565b90915550505b603754604051630441a3e760e41b8152600481019190915260248101859052735c8d727b265dbafaba67e050f2f739caeeb4a6f99063441a3e7090604401600060405180830381600087803b1580156114d657600080fd5b505af11580156114ea573d6000803e3d6000fd5b505060345461150692506001600160a01b031690508386611c88565b5050600180555050565b6001600160a01b0381166000908152603c60209081526040808320815160a08101835281548152600182015493810193909352600281015491830191909152600381015463ffffffff908116606084018190526004909201546080840152603b54161415611582576040015192915050565b60608082015163ffffffff166000908152603d60209081526040808320815194850182528054808652600182015493860193909352600201549084015260808401516115cd916122ca565b83516115d99190612428565b83602001516115e891906120c7565b90506000670de0b6b3a76400008360200151836116059190612428565b61160f9190612221565b6040840151603b54919250600091670de0b6b3a76400009190603d90849061163f9060019063ffffffff166121e3565b63ffffffff1663ffffffff1681526020019081526020016000206002015461166791906122ca565b86516116739190612428565b61167d9190612221565b90508082866040015161169091906120c7565b61169a91906120c7565b979650505050505050565b60006116b46020830183611f64565b6001600160a01b031614611932576033546040516370a0823160e01b8152306004820152600091670de0b6b3a7640000916020850135916001600160a01b0316906370a0823190602401602060405180830381865afa15801561171b573d6000803e3d6000fd5b505050506040513d601f19601f8201168201806040525081019061173f9190612208565b6117499190612428565b6117539190612221565b905080156111a4573660006117688580612279565b909250905080158015906117e5575081816117846001826122ca565b81811061179357611793612243565b90506020020160208101906117a89190611f64565b6001600160a01b0316828260008181106117c4576117c4612243565b90506020020160208101906117d99190611f64565b6001600160a01b031614155b1561190b576033546001600160a01b0316828260008161180757611807612243565b905060200201602081019061181c9190611f64565b6001600160a01b0316146118685760405162461bcd60e51b81526020600482015260136024820152724241445f4645455f544f4b454e5f524f55544560681b60448201526064016102a5565b73cf0febd3f17cef5b47b0cd257acf6025c5bff3b76338ed173984602080890135908690869061189a908b018b611f64565b426040518763ffffffff1660e01b81526004016118bc969594939291906122e1565b6000604051808303816000875af11580156118db573d6000803e3d6000fd5b505050506040513d6000823e601f3d908101601f191682016040526119039190810190612354565b505050505050565b61192e61191b6020860186611f64565b6033546001600160a01b03169085611c88565b5050505b5050565b60008054610100900460ff161561197d578160ff1660011480156119595750303b155b6119755760405162461bcd60e51b81526004016102a5906124ae565b506000919050565b60005460ff8084169116106119a45760405162461bcd60e51b81526004016102a5906124ae565b506000805460ff191660ff92909216919091179055600190565b600054610100900460ff166119e55760405162461bcd60e51b81526004016102a5906124fc565b6119ed611cda565b565b600080805b735c8d727b265dbafaba67e050f2f739caeeb4a6f96001600160a01b031663081e3eda6040518163ffffffff1660e01b8152600401602060405180830381865afa158015611a46573d6000803e3d6000fd5b505050506040513d601f19601f82011682018060405250810190611a6a9190612208565b811015611b1e57604051631526fe2760e01b8152600481018290526001600160a01b03851690735c8d727b265dbafaba67e050f2f739caeeb4a6f990631526fe2790602401608060405180830381865afa158015611acc573d6000803e3d6000fd5b505050506040513d601f19601f82011682018060405250810190611af09190612547565b516001600160a01b03161415611b0c5780925060019150611b1e565b80611b16816125b6565b9150506119f4565b5080611b5d5760405162461bcd60e51b815260206004820152600e60248201526d5049445f4e4f545f45584953545360901b60448201526064016102a5565b50919050565b6001600160a01b0381166000908152603c60205260409020603b54600382015463ffffffff90811691161415611bcc576004810154611ba290436122ca565b8154611bae9190612428565b816001016000828254611bc191906120c7565b90915550611c289050565b611bd582611510565b6002820155603b54603d90600090611bf59060019063ffffffff166121e3565b63ffffffff168152602081019190915260400160002054611c1690436122ca565b8154611c229190612428565b60018201555b603b5460038201805463ffffffff191663ffffffff9092169190911790554360048201819055603854603a549091611c6091906122ca565b611c6a9190612428565b60396000828254611c7b91906120c7565b909155505043603a555050565b604080516001600160a01b038416602482015260448082018490528251808303909101815260649091019091526020810180516001600160e01b031663a9059cbb60e01b1790526111a4908490611d07565b600054610100900460ff16611d015760405162461bcd60e51b81526004016102a5906124fc565b60018055565b6000611d5c826040518060400160405280602081526020017f5361666542455032303a206c6f772d6c6576656c2063616c6c206661696c6564815250856001600160a01b0316611dd99092919063ffffffff16565b8051909150156111a45780806020019051810190611d7a919061248c565b6111a45760405162461bcd60e51b815260206004820152602a60248201527f5361666542455032303a204245503230206f7065726174696f6e20646964206e6044820152691bdd081cdd58d8d9595960b21b60648201526084016102a5565b6060611de88484600085611df2565b90505b9392505050565b606082471015611e535760405162461bcd60e51b815260206004820152602660248201527f416464726573733a20696e73756666696369656e742062616c616e636520666f6044820152651c8818d85b1b60d21b60648201526084016102a5565b6001600160a01b0385163b611eaa5760405162461bcd60e51b815260206004820152601d60248201527f416464726573733a2063616c6c20746f206e6f6e2d636f6e747261637400000060448201526064016102a5565b600080866001600160a01b03168587604051611ec69190612601565b60006040518083038185875af1925050503d8060008114611f03576040519150601f19603f3d011682016040523d82523d6000602084013e611f08565b606091505b509150915061169a82828660608315611f22575081611deb565b825115611f325782518084602001fd5b8160405162461bcd60e51b81526004016102a59190612613565b6001600160a01b0381168114611f6157600080fd5b50565b600060208284031215611f7657600080fd5b8135611deb81611f4c565b600060408284031215611b5d57600080fd5b600080600060808486031215611fa857600080fd5b833567ffffffffffffffff80821115611fc057600080fd5b818601915086604083011115611fd557600080fd5b90935060208501359080821115611feb57600080fd5b50611ff886828701611f81565b9250506120088560408601611f81565b90509250925092565b6000806040838503121561202457600080fd5b823561202f81611f4c565b9150602083013561203f81611f4c565b809150509250929050565b6000806040838503121561205d57600080fd5b82359150602083013561203f81611f4c565b60008060006060848603121561208457600080fd5b83359250602084013561209681611f4c565b915060408401356120a681611f4c565b809150509250925092565b634e487b7160e01b600052601160045260246000fd5b600082198211156120da576120da6120b1565b500190565b634e487b7160e01b600052604160045260246000fd5b604051601f8201601f1916810167ffffffffffffffff8111828210171561211e5761211e6120df565b604052919050565b60006040828403121561213857600080fd5b6040516040810181811067ffffffffffffffff8211171561215b5761215b6120df565b604052825181526020928301519281019290925250919050565b60208082526017908201527f43414c4c45525f4e4f545f41535345545f524f55544552000000000000000000604082015260600190565b6020808252601f908201527f5265656e7472616e637947756172643a207265656e7472616e742063616c6c00604082015260600190565b600063ffffffff83811690831681811015612200576122006120b1565b039392505050565b60006020828403121561221a57600080fd5b5051919050565b60008261223e57634e487b7160e01b600052601260045260246000fd5b500490565b634e487b7160e01b600052603260045260246000fd5b60008235603e1983360301811261226f57600080fd5b9190910192915050565b6000808335601e1984360301811261229057600080fd5b83018035915067ffffffffffffffff8211156122ab57600080fd5b6020019150600581901b36038213156122c357600080fd5b9250929050565b6000828210156122dc576122dc6120b1565b500390565b868152602080820187905260a0604083018190528201859052600090869060c08401835b8881101561233357833561231881611f4c565b6001600160a01b031682529282019290820190600101612305565b506001600160a01b0396909616606085015250505060800152949350505050565b6000602080838503121561236757600080fd5b825167ffffffffffffffff8082111561237f57600080fd5b818501915085601f83011261239357600080fd5b8151818111156123a5576123a56120df565b8060051b91506123b68483016120f5565b81815291830184019184810190888411156123d057600080fd5b938501935b838510156123ee578451825293850193908501906123d5565b98975050505050505050565b60008060006060848603121561240f57600080fd5b8351925060208401519150604084015190509250925092565b6000816000190483118215151615612442576124426120b1565b500290565b600063ffffffff808316818516808303821115612466576124666120b1565b01949350505050565b60006020828403121561248157600080fd5b8151611deb81611f4c565b60006020828403121561249e57600080fd5b81518015158114611deb57600080fd5b6020808252602e908201527f496e697469616c697a61626c653a20636f6e747261637420697320616c72656160408201526d191e481a5b9a5d1a585b1a5e995960921b606082015260800190565b6020808252602b908201527f496e697469616c697a61626c653a20636f6e7472616374206973206e6f74206960408201526a6e697469616c697a696e6760a81b606082015260800190565b60006080828403121561255957600080fd5b6040516080810181811067ffffffffffffffff8211171561257c5761257c6120df565b604052825161258a81611f4c565b808252506020830151602082015260408301516040820152606083015160608201528091505092915050565b60006000198214156125ca576125ca6120b1565b5060010190565b60005b838110156125ec5781810151838201526020016125d4565b838111156125fb576000848401525b50505050565b6000825161226f8184602087016125d1565b60208152600082518060208401526126328160408501602087016125d1565b601f01601f1916919091016040019291505056fea26469706673582212203e3ba3e3ab72040a11fe32e0252a9810f1faa806784c9bbf951417d581a8db8164736f6c634300080a0033",
  "immutableReferences": {},
  "source": "// SPDX-License-Identifier: MIT\r\npragma solidity 0.8.10;\r\n \r\nimport '../../interfaces/IUniswapV2Pair.sol';\r\nimport '../../interfaces/IUniswapV2Router.sol';\r\nimport '../../interfaces/IMasterApe.sol';\r\nimport '../../libs/SafeBEP20.sol';\r\nimport '@openzeppelin/contracts-upgradeable/security/ReentrancyGuardUpgradeable.sol';\r\nimport '@pancakeswap/pancake-swap-lib/contracts/token/BEP20/IBEP20.sol';\r\nimport '@openzeppelin/contracts-upgradeable/proxy/utils/Initializable.sol';\r\n\r\ncontract UnoFarmApeswap is Initializable, ReentrancyGuardUpgradeable {\r\n    using SafeBEP20 for IBEP20;\r\n    /**\r\n     * @dev DistributionInfo:\r\n     * {block} - Distribution block number.\r\n     * {rewardPerDepositAge} - Distribution reward divided by {totalDepositAge}. \r\n     * {cumulativeRewardAgePerDepositAge} - Sum of {rewardPerDepositAge}s multiplied by distribution interval.\r\n     */\r\n    struct DistributionInfo {\r\n        uint256 block;\r\n        uint256 rewardPerDepositAge;\r\n        uint256 cumulativeRewardAgePerDepositAge;\r\n    }\r\n    /**\r\n     * @dev UserInfo:\r\n     * {stake} - Amount of LP tokens deposited by the user.\r\n     * {depositAge} - User deposits multiplied by blocks the deposit has been in. \r\n     * {reward} - Amount of LP tokens entitled to the user.\r\n     * {lastDistribution} - Distribution ID before the last user deposit.\r\n     * {lastUpdate} - Deposit update block.\r\n     */\r\n    struct UserInfo {\r\n        uint256 stake;\r\n        uint256 depositAge;\r\n        uint256 reward;\r\n        uint32 lastDistribution;\r\n        uint256 lastUpdate;\r\n    }\r\n    /**\r\n     * @dev SwapInfo:\r\n     * {route} - Array of token addresses describing swap routes.\r\n     * {amountOutMin} - The minimum amount of output token that must be received for the transaction not to revert.\r\n     */\r\n    struct SwapInfo{\r\n        address[] route;\r\n        uint256 amountOutMin;\r\n    }\r\n    /**\r\n     * @dev FeeInfo:\r\n     * {feeCollector} - Contract to transfer fees to.\r\n     * {fee} - Fee percentage to collect (10^18 == 100%). \r\n     */\r\n    struct FeeInfo {\r\n        address feeTo;\r\n        uint256 fee;\r\n    }\r\n\r\n    /**\r\n     * @dev Tokens Used:\r\n     * {rewardToken} - Token generated by staking (BANANA).\r\n     * {rewarderToken} - Token generated by ComplexRewarderTime contract.\r\n     * {lpPair} - Token that the strategy maximizes. The same token that users deposit in the {MasterApe}.\r\n     * {tokenA, tokenB} - Tokens that the strategy maximizes.\r\n     */\r\n    address public rewardToken;\r\n    address public lpPair;\r\n    address public tokenA;\r\n    address public tokenB;\r\n\r\n    /**\r\n     * @dev Third Party Contracts:\r\n     * {apeswapRouter} - The contract that executes swaps.\r\n     * {MasterApe} -The contract that distibutes {rewardToken}.\r\n     */\r\n    IUniswapV2Router01 private constant apeswapRouter = IUniswapV2Router01(0xcF0feBd3f17CEf5b47b0cD257aCf6025c5BFf3b7);\r\n    IMasterApe private constant MasterApe = IMasterApe(0x5c8D727b265DBAfaba67E050f2f739cAeEB4A6F9);\r\n\r\n    /**\r\n     * @dev Contract Variables:\r\n     * {pid} - Pool ID.\r\n\r\n     * {totalDeposits} - Total deposits made by users.\r\n     * {totalDepositAge} - Deposits multiplied by blocks the deposit has been in. Flushed every reward distribution.\r\n     * {totalDepositLastUpdate} - Last {totalDepositAge} update block.\r\n\r\n     * {distributionID} - Current distribution ID.\r\n     * {userInfo} - Info on each user.\r\n     * {distributionInfo} - Info on each distribution.\r\n\r\n     * {fractionMultiplier} - Used to store decimal values.\r\n     */\r\n    uint256 public pid;\r\n\r\n    uint256 private totalDeposits;\r\n    uint256 private totalDepositAge;\r\n    uint256 private totalDepositLastUpdate;\r\n\r\n    uint32 private distributionID;\r\n    mapping(address => UserInfo) private userInfo;\r\n    mapping(uint32 => DistributionInfo) private distributionInfo;\r\n\r\n    uint256 private constant fractionMultiplier = uint256(1 ether);\r\n\r\n    /**\r\n     * @dev Contract Variables:\r\n     * {assetRouter} - The contract from which calls to this farm are made.\r\n     */\r\n    address public assetRouter;\r\n    modifier onlyAssetRouter(){\r\n        require(msg.sender == assetRouter, 'CALLER_NOT_ASSET_ROUTER');\r\n        _;\r\n    }\r\n\r\n    // ============ Methods ============\r\n\r\n    function initialize(address _lpPair, address _assetRouter) external initializer {\r\n        require (_lpPair != address(0), 'BAD_LP_POOL');\r\n        require (_assetRouter != address(0), 'BAD_ASSET_ROUTER');\r\n\r\n        __ReentrancyGuard_init();\r\n        assetRouter = _assetRouter;\r\n\r\n        pid = getPid(_lpPair);\r\n        lpPair = _lpPair;\r\n\r\n        rewardToken = MasterApe.cake();\r\n\r\n        tokenA = IUniswapV2Pair(lpPair).token0();\r\n        tokenB = IUniswapV2Pair(lpPair).token1();\r\n\r\n        distributionInfo[0] = DistributionInfo({\r\n            block: block.number,\r\n            rewardPerDepositAge: 0,\r\n            cumulativeRewardAgePerDepositAge: 0\r\n        });\r\n        distributionID = 1;\r\n        totalDepositLastUpdate = block.number;\r\n\r\n        IBEP20(lpPair).approve(address(MasterApe), type(uint256).max);\r\n        IBEP20(lpPair).approve(address(apeswapRouter), type(uint256).max);\r\n        IBEP20(rewardToken).approve(address(apeswapRouter), type(uint256).max);\r\n        IBEP20(tokenA).approve(address(apeswapRouter), type(uint256).max);\r\n        IBEP20(tokenB).approve(address(apeswapRouter), type(uint256).max);\r\n    }\r\n\r\n    /**\r\n     * @dev Function that makes the deposits.\r\n     * Deposits provided tokens in the Liquidity Pool, then stakes generated LP tokens in the {MasterApe}.\r\n     */\r\n    function deposit(uint256 amount, address recipient) external nonReentrant onlyAssetRouter{\r\n        require(amount > 0, 'NO_LIQUIDITY_PROVIDED');\r\n\r\n        _updateDeposit(recipient);\r\n        userInfo[recipient].stake += amount;\r\n        totalDeposits += amount;\r\n            \r\n        MasterApe.deposit(pid, amount);\r\n    }\r\n\r\n    /**\r\n     * @dev Withdraws funds from {origin} and sends them to the {recipient}.\r\n     */\r\n    function withdraw(uint256 amount, address origin, address recipient) external nonReentrant onlyAssetRouter{\r\n        require(amount > 0, 'INSUFFICIENT_AMOUNT');\r\n\r\n        _updateDeposit(origin);\r\n        UserInfo storage user = userInfo[origin];\r\n        // Subtract amount from user.reward first, then subtract remainder from user.stake.\r\n        if(amount > user.reward){\r\n            uint256 balance = user.stake + user.reward;\r\n            require(amount <= balance, 'INSUFFICIENT_BALANCE');\r\n            user.stake = balance - amount;\r\n            totalDeposits = totalDeposits + user.reward - amount;\r\n            user.reward = 0;\r\n        } else {\r\n            user.reward -= amount;\r\n        }\r\n\r\n        MasterApe.withdraw(pid, amount);\r\n        IBEP20(lpPair).safeTransfer(recipient, amount);\r\n    }\r\n\r\n    /**\r\n     * @dev Core function of the strat, in charge of updating, collecting and re-investing rewards.\r\n     * 1. It claims rewards from the {MasterApe}.\r\n     * 2. It swaps {rewardToken} token for {tokenA} & {tokenB}.\r\n     * 3. It deposits new LP tokens back to the {MasterApe}.\r\n     */\r\n    function distribute(\r\n        SwapInfo[2] calldata swapInfos,\r\n        SwapInfo calldata feeSwapInfo,\r\n        FeeInfo calldata feeInfo\r\n    ) external onlyAssetRouter nonReentrant returns(uint256 reward){\r\n        require(totalDeposits > 0, 'NO_LIQUIDITY');\r\n        require(distributionInfo[distributionID - 1].block != block.number, 'CANT_CALL_ON_THE_SAME_BLOCK');\r\n\r\n        MasterApe.withdraw(pid, 0);\r\n\r\n        collectFees(feeSwapInfo, feeInfo);\r\n        uint256 rewardTokenHalf = IBEP20(rewardToken).balanceOf(address(this)) / 2;\r\n        if (tokenA != rewardToken) {\r\n            address[] calldata route = swapInfos[0].route;\r\n            require(route[0] == rewardToken && route[route.length - 1] == tokenA, 'BAD_REWARD_TOKEN_A_ROUTE');\r\n            apeswapRouter.swapExactTokensForTokens(rewardTokenHalf, swapInfos[0].amountOutMin, route, address(this), block.timestamp);\r\n        }\r\n\r\n        if (tokenB != rewardToken) {\r\n            address[] calldata route = swapInfos[1].route;\r\n            require(route[0] == rewardToken && route[route.length - 1] == tokenB, 'BAD_REWARD_TOKEN_B_ROUTE');\r\n            apeswapRouter.swapExactTokensForTokens(rewardTokenHalf, swapInfos[1].amountOutMin, route, address(this), block.timestamp);\r\n        }\r\n\r\n        (,,reward) = apeswapRouter.addLiquidity(tokenA, tokenB, IBEP20(tokenA).balanceOf(address(this)), IBEP20(tokenB).balanceOf(address(this)), swapInfos[0].amountOutMin, swapInfos[1].amountOutMin, address(this), block.timestamp);\r\n        \r\n        uint256 rewardPerDepositAge = reward * fractionMultiplier / (totalDepositAge + totalDeposits * (block.number - totalDepositLastUpdate));\r\n        uint256 cumulativeRewardAgePerDepositAge = distributionInfo[distributionID - 1].cumulativeRewardAgePerDepositAge + rewardPerDepositAge * (block.number - distributionInfo[distributionID - 1].block);\r\n\r\n        distributionInfo[distributionID] = DistributionInfo({\r\n            block: block.number,\r\n            rewardPerDepositAge: rewardPerDepositAge,\r\n            cumulativeRewardAgePerDepositAge: cumulativeRewardAgePerDepositAge\r\n        });\r\n\r\n        distributionID += 1;\r\n        totalDepositLastUpdate = block.number;\r\n        totalDepositAge = 0;\r\n            \r\n        MasterApe.deposit(pid, reward);\r\n    }\r\n    \r\n    /**\r\n     * @dev Swaps and sends fees to feeTo.\r\n     */\r\n    function collectFees(SwapInfo calldata feeSwapInfo, FeeInfo calldata feeInfo) internal {\r\n        if(feeInfo.feeTo != address(0)){\r\n            uint256 feeAmount = IBEP20(rewardToken).balanceOf(address(this)) * feeInfo.fee / fractionMultiplier;\r\n            if(feeAmount > 0){\r\n                address[] calldata route = feeSwapInfo.route;\r\n                if(route.length > 0 && route[0] != route[route.length - 1]){\r\n                    require(route[0] == rewardToken, 'BAD_FEE_TOKEN_ROUTE');\r\n                    apeswapRouter.swapExactTokensForTokens(feeAmount, feeSwapInfo.amountOutMin, route, feeInfo.feeTo, block.timestamp);\r\n                    return;\r\n                }\r\n                IBEP20(rewardToken).safeTransfer(feeInfo.feeTo, feeAmount);\r\n            }\r\n        }\r\n    }\r\n\r\n    /**\r\n     * @dev Returns total funds staked by the {_address}.\r\n     */\r\n    function userBalance(address _address) external view returns (uint256) {\r\n        return userInfo[_address].stake + userReward(_address);\r\n    }\r\n\r\n    /**\r\n     * @dev Returns total funds locked in the farm.\r\n     */\r\n    function getTotalDeposits() external view returns (uint256 _totalDeposits) {\r\n        if(totalDeposits > 0){\r\n            _totalDeposits = MasterApe.userInfo(pid, address(this)).amount;\r\n        }\r\n    }\r\n    \r\n    function _updateDeposit(address _address) internal {\r\n        UserInfo storage user = userInfo[_address];\r\n        // Accumulate deposit age within the current distribution period.\r\n        if (user.lastDistribution == distributionID) {\r\n            // Add deposit age from previous deposit age update to now.\r\n            user.depositAge += user.stake * (block.number - user.lastUpdate);\r\n        } else {\r\n            // A reward has been distributed, update user.reward.\r\n            user.reward = userReward(_address);\r\n            // Count fresh deposit age from previous reward distribution to now.\r\n            user.depositAge = user.stake * (block.number - distributionInfo[distributionID - 1].block);\r\n        }\r\n\r\n        user.lastDistribution = distributionID;\r\n        user.lastUpdate = block.number;\r\n\r\n        // Same with total deposit age.\r\n        totalDepositAge += (block.number - totalDepositLastUpdate) * totalDeposits;\r\n        totalDepositLastUpdate = block.number;\r\n    }\r\n\r\n    function userReward(address _address) internal view returns (uint256) {\r\n        UserInfo memory user = userInfo[_address];\r\n        if (user.lastDistribution == distributionID) {\r\n            // Return user.reward if the distribution after the last user deposit did not happen yet.\r\n            return user.reward;\r\n        }\r\n        DistributionInfo memory lastUserDistributionInfo = distributionInfo[user.lastDistribution];\r\n        uint256 userDepositAge = user.depositAge + user.stake * (lastUserDistributionInfo.block - user.lastUpdate);\r\n        // Calculate reward between the last user deposit and the distribution after that.\r\n        uint256 rewardBeforeDistibution = userDepositAge * lastUserDistributionInfo.rewardPerDepositAge / fractionMultiplier;\r\n        // Calculate reward from the distributions that have happened after the last user deposit.\r\n        uint256 rewardAfterDistribution = user.stake * (distributionInfo[distributionID - 1].cumulativeRewardAgePerDepositAge - lastUserDistributionInfo.cumulativeRewardAgePerDepositAge) / fractionMultiplier;\r\n        return user.reward + rewardBeforeDistibution + rewardAfterDistribution;\r\n    }\r\n\r\n    /**\r\n     * @dev Get pid by iterating over all pools and comparing pids.\r\n     */\r\n    function getPid(address _lpPair) internal view returns (uint256 _pid) {\r\n        bool poolExists = false;\r\n        for (uint256 i = 0; i < MasterApe.poolLength(); i++) {\r\n            if (MasterApe.poolInfo(i).lpToken == _lpPair) {\r\n                _pid = i;\r\n                poolExists = true;\r\n                break;\r\n            }\r\n        }\r\n        require(poolExists, 'PID_NOT_EXISTS');\r\n        return _pid;\r\n    }\r\n}\r\n",
  "sourcePath": "C:\\Users\\jugli\\Desktop\\uno\\uno-contracts-bsc\\contracts\\apps\\apeswap\\UnoFarmApeswap.sol",
  "compiler": {
    "name": "solc",
    "version": "0.8.10+commit.fc410830.Emscripten.clang"
  },
  "schemaVersion": "3.4.13",
  "updatedAt": "2023-05-24T14:58:09.675Z",
  "devdoc": {
    "kind": "dev",
    "methods": {
      "deposit(uint256,address)": {
        "details": "Function that makes the deposits. Deposits provided tokens in the Liquidity Pool, then stakes generated LP tokens in the {MasterApe}."
      },
      "distribute((address[],uint256)[2],(address[],uint256),(address,uint256))": {
        "details": "Core function of the strat, in charge of updating, collecting and re-investing rewards. 1. It claims rewards from the {MasterApe}. 2. It swaps {rewardToken} token for {tokenA} & {tokenB}. 3. It deposits new LP tokens back to the {MasterApe}."
      },
      "getTotalDeposits()": {
        "details": "Returns total funds locked in the farm."
      },
      "userBalance(address)": {
        "details": "Returns total funds staked by the {_address}."
      },
      "withdraw(uint256,address,address)": {
        "details": "Withdraws funds from {origin} and sends them to the {recipient}."
      }
    },
    "stateVariables": {
      "apeswapRouter": {
        "details": "Third Party Contracts: {apeswapRouter} - The contract that executes swaps. {MasterApe} -The contract that distibutes {rewardToken}."
      },
      "assetRouter": {
        "details": "Contract Variables: {assetRouter} - The contract from which calls to this farm are made."
      },
      "pid": {
        "details": "Contract Variables: {pid} - Pool ID. {totalDeposits} - Total deposits made by users. {totalDepositAge} - Deposits multiplied by blocks the deposit has been in. Flushed every reward distribution. {totalDepositLastUpdate} - Last {totalDepositAge} update block. {distributionID} - Current distribution ID. {userInfo} - Info on each user. {distributionInfo} - Info on each distribution. {fractionMultiplier} - Used to store decimal values."
      },
      "rewardToken": {
        "details": "Tokens Used: {rewardToken} - Token generated by staking (BANANA). {rewarderToken} - Token generated by ComplexRewarderTime contract. {lpPair} - Token that the strategy maximizes. The same token that users deposit in the {MasterApe}. {tokenA, tokenB} - Tokens that the strategy maximizes."
      }
    },
    "version": 1
  },
  "userdoc": {
    "kind": "user",
    "methods": {},
    "version": 1
  }
}