{
  "contractName": "UnoFarmTraderjoe",
  "abi": [
    {
      "inputs": [],
      "name": "CALLER_NOT_ASSET_ROUTER",
      "type": "error"
    },
    {
      "inputs": [],
      "name": "CALL_ON_THE_SAME_BLOCK",
      "type": "error"
    },
    {
      "inputs": [],
      "name": "INSUFFICIENT_AMOUNT",
      "type": "error"
    },
    {
      "inputs": [],
      "name": "INSUFFICIENT_BALANCE",
      "type": "error"
    },
    {
      "inputs": [],
      "name": "INVALID_ASSET_ROUTER",
      "type": "error"
    },
    {
      "inputs": [],
      "name": "INVALID_LP_POOL",
      "type": "error"
    },
    {
      "inputs": [
        {
          "internalType": "address",
          "name": "fromToken",
          "type": "address"
        },
        {
          "internalType": "address",
          "name": "toToken",
          "type": "address"
        }
      ],
      "name": "INVALID_ROUTE",
      "type": "error"
    },
    {
      "inputs": [],
      "name": "NO_LIQUIDITY",
      "type": "error"
    },
    {
      "inputs": [],
      "name": "NO_LIQUIDITY_PROVIDED",
      "type": "error"
    },
    {
      "inputs": [],
      "name": "PID_NOT_EXISTS",
      "type": "error"
    },
    {
      "anonymous": false,
      "inputs": [
        {
          "indexed": false,
          "internalType": "uint8",
          "name": "version",
          "type": "uint8"
        }
      ],
      "name": "Initialized",
      "type": "event"
    },
    {
      "inputs": [],
      "name": "MasterChef",
      "outputs": [
        {
          "internalType": "contract IMasterChefJoe",
          "name": "",
          "type": "address"
        }
      ],
      "stateMutability": "view",
      "type": "function"
    },
    {
      "inputs": [],
      "name": "assetRouter",
      "outputs": [
        {
          "internalType": "address",
          "name": "",
          "type": "address"
        }
      ],
      "stateMutability": "view",
      "type": "function"
    },
    {
      "inputs": [],
      "name": "lpPool",
      "outputs": [
        {
          "internalType": "address",
          "name": "",
          "type": "address"
        }
      ],
      "stateMutability": "view",
      "type": "function"
    },
    {
      "inputs": [],
      "name": "pid",
      "outputs": [
        {
          "internalType": "uint256",
          "name": "",
          "type": "uint256"
        }
      ],
      "stateMutability": "view",
      "type": "function"
    },
    {
      "inputs": [],
      "name": "rewardToken",
      "outputs": [
        {
          "internalType": "address",
          "name": "",
          "type": "address"
        }
      ],
      "stateMutability": "view",
      "type": "function"
    },
    {
      "inputs": [],
      "name": "rewarderToken",
      "outputs": [
        {
          "internalType": "address",
          "name": "",
          "type": "address"
        }
      ],
      "stateMutability": "view",
      "type": "function"
    },
    {
      "inputs": [],
      "name": "tokenA",
      "outputs": [
        {
          "internalType": "address",
          "name": "",
          "type": "address"
        }
      ],
      "stateMutability": "view",
      "type": "function"
    },
    {
      "inputs": [],
      "name": "tokenB",
      "outputs": [
        {
          "internalType": "address",
          "name": "",
          "type": "address"
        }
      ],
      "stateMutability": "view",
      "type": "function"
    },
    {
      "inputs": [
        {
          "internalType": "address",
          "name": "_lpPool",
          "type": "address"
        },
        {
          "internalType": "address",
          "name": "_assetRouter",
          "type": "address"
        }
      ],
      "name": "initialize",
      "outputs": [],
      "stateMutability": "nonpayable",
      "type": "function"
    },
    {
      "inputs": [
        {
          "internalType": "uint256",
          "name": "amount",
          "type": "uint256"
        },
        {
          "internalType": "address",
          "name": "recipient",
          "type": "address"
        }
      ],
      "name": "deposit",
      "outputs": [],
      "stateMutability": "nonpayable",
      "type": "function"
    },
    {
      "inputs": [
        {
          "internalType": "uint256",
          "name": "amount",
          "type": "uint256"
        },
        {
          "internalType": "address",
          "name": "origin",
          "type": "address"
        },
        {
          "internalType": "address",
          "name": "recipient",
          "type": "address"
        }
      ],
      "name": "withdraw",
      "outputs": [],
      "stateMutability": "nonpayable",
      "type": "function"
    },
    {
      "inputs": [
        {
          "components": [
            {
              "internalType": "address[]",
              "name": "route",
              "type": "address[]"
            },
            {
              "internalType": "uint256",
              "name": "amountOutMin",
              "type": "uint256"
            }
          ],
          "internalType": "struct IUnoFarm.SwapInfo[4]",
          "name": "swapInfos",
          "type": "tuple[4]"
        },
        {
          "components": [
            {
              "internalType": "address",
              "name": "feeTo",
              "type": "address"
            },
            {
              "internalType": "uint256",
              "name": "fee",
              "type": "uint256"
            }
          ],
          "internalType": "struct IUnoFarm.FeeInfo",
          "name": "feeInfo",
          "type": "tuple"
        }
      ],
      "name": "distribute",
      "outputs": [
        {
          "internalType": "uint256",
          "name": "reward",
          "type": "uint256"
        }
      ],
      "stateMutability": "nonpayable",
      "type": "function"
    },
    {
      "inputs": [
        {
          "internalType": "address",
          "name": "_address",
          "type": "address"
        }
      ],
      "name": "userBalance",
      "outputs": [
        {
          "internalType": "uint256",
          "name": "",
          "type": "uint256"
        }
      ],
      "stateMutability": "view",
      "type": "function"
    },
    {
      "inputs": [],
      "name": "getTotalDeposits",
      "outputs": [
        {
          "internalType": "uint256",
          "name": "_totalDeposits",
          "type": "uint256"
        }
      ],
      "stateMutability": "view",
      "type": "function"
    }
  ],
  "bytecode": "0x608060405234801561001057600080fd5b50613309806100206000396000f3fe608060405234801561001057600080fd5b50600436106100ea5760003560e01c80636a30683b1161008c578063bc0aac1011610066578063bc0aac10146101cf578063e9ea46c7146101e2578063f1068454146101f5578063f7c618c1146101fe57600080fd5b80636a30683b146101965780636e553f65146101a9578063b460af94146101bc57600080fd5b80632a8dc131116100c85780632a8dc131146101485780633737bcb41461015b578063485cc9551461016e5780635f64b55b1461018357600080fd5b80630103c92b146100ef5780630fc63d1014610115578063168a482214610140575b600080fd5b6101026100fd366004612b8a565b610211565b6040519081526020015b60405180910390f35b603654610128906001600160a01b031681565b6040516001600160a01b03909116815260200161010c565b610102610245565b603454610128906001600160a01b031681565b603554610128906001600160a01b031681565b61018161017c366004612ba7565b6102e6565b005b603754610128906001600160a01b031681565b6101026101a4366004612be0565b610e76565b6101816101b7366004612c3f565b611bd3565b6101816101ca366004612c64565b611d2b565b604054610128906001600160a01b031681565b603954610128906001600160a01b031681565b61010260385481565b603354610128906001600160a01b031681565b600061021c82611f0f565b6001600160a01b0383166000908152603e602052604090205461023f9190612cd5565b92915050565b603a54600090156102e3576039546038546040517f93f1a40b00000000000000000000000000000000000000000000000000000000815260048101919091523060248201526001600160a01b03909116906393f1a40b906044016040805180830381865afa1580156102bb573d6000803e3d6000fd5b505050506040513d601f19601f820116820180604052508101906102df9190612d72565b5190505b90565b60006102f260016120a4565b9050801561032757600080547fffffffffffffffffffffffffffffffffffffffffffffffffffffffffffff00ff166101001790555b6001600160a01b038316610367576040517f5309c5cf00000000000000000000000000000000000000000000000000000000815260040160405180910390fd5b6001600160a01b0382166103a7576040517fc17c115000000000000000000000000000000000000000000000000000000000815260040160405180910390fd5b6103af61222f565b604080547fffffffffffffffffffffffff0000000000000000000000000000000000000000166001600160a01b0384161790556103eb836122d0565b603980546001600160a01b039283167fffffffffffffffffffffffff00000000000000000000000000000000000000009182168117909255603893909355603580549287169290931691909117909155604080517fffebad30000000000000000000000000000000000000000000000000000000008152905163ffebad30916004818101926020929091908290030181865afa15801561048f573d6000803e3d6000fd5b505050506040513d601f19601f820116820180604052508101906104b39190612dcc565b603380547fffffffffffffffffffffffff0000000000000000000000000000000000000000166001600160a01b03928316179055603954167fffffffffffffffffffffffffbb7c0f491d0ab792f96a73df073c658541784071016106f5576038546040517f1526fe27000000000000000000000000000000000000000000000000000000008152600091734483f0b6e2f5486d06958c20f8c39a7abe87bf8f91631526fe27916105699160040190815260200190565b61012060405180830381865afa158015610587573d6000803e3d6000fd5b505050506040513d601f19601f820116820180604052508101906105ab9190612e31565b60a0015190506001600160a01b038116156106ef57806001600160a01b031663f7c618c16040518163ffffffff1660e01b8152600401602060405180830381865afa1580156105fe573d6000803e3d6000fd5b505050506040513d601f19601f820116820180604052508101906106229190612dcc565b603480547fffffffffffffffffffffffff0000000000000000000000000000000000000000166001600160a01b039290921691821790556040517f095ea7b30000000000000000000000000000000000000000000000000000000081527360ae616a2155ee3d9a68541ba4544862310933d46004820152600019602482015263095ea7b3906044016020604051808303816000875af11580156106c9573d6000803e3d6000fd5b505050506040513d601f19601f820116820180604052508101906106ed9190612ecd565b505b506108d4565b6038546040517f1526fe2700000000000000000000000000000000000000000000000000000000815260009173188bed1968b795d5c9022f6a0bb5931ac4c18f0091631526fe279161074d9160040190815260200190565b60a060405180830381865afa15801561076a573d6000803e3d6000fd5b505050506040513d601f19601f8201168201806040525081019061078e9190612eef565b6080015190506001600160a01b038116156108d257806001600160a01b031663f7c618c16040518163ffffffff1660e01b8152600401602060405180830381865afa1580156107e1573d6000803e3d6000fd5b505050506040513d601f19601f820116820180604052508101906108059190612dcc565b603480547fffffffffffffffffffffffff0000000000000000000000000000000000000000166001600160a01b039290921691821790556040517f095ea7b30000000000000000000000000000000000000000000000000000000081527360ae616a2155ee3d9a68541ba4544862310933d46004820152600019602482015263095ea7b3906044016020604051808303816000875af11580156108ac573d6000803e3d6000fd5b505050506040513d601f19601f820116820180604052508101906108d09190612ecd565b505b505b603560009054906101000a90046001600160a01b03166001600160a01b0316630dfe16816040518163ffffffff1660e01b8152600401602060405180830381865afa158015610927573d6000803e3d6000fd5b505050506040513d601f19601f8201168201806040525081019061094b9190612dcc565b603680547fffffffffffffffffffffffff0000000000000000000000000000000000000000166001600160a01b03928316179055603554604080517fd21220a70000000000000000000000000000000000000000000000000000000081529051919092169163d21220a79160048083019260209291908290030181865afa1580156109da573d6000803e3d6000fd5b505050506040513d601f19601f820116820180604052508101906109fe9190612dcc565b603780547fffffffffffffffffffffffff0000000000000000000000000000000000000000166001600160a01b03928316179055604080516060810182524380825260006020808401828152848601838152928052603f90915292517fe9090a6e551363283803e59daf1c144cd0ac55c420ac8519a53d83ef396a73b35591517fe9090a6e551363283803e59daf1c144cd0ac55c420ac8519a53d83ef396a73b45590517fe9090a6e551363283803e59daf1c144cd0ac55c420ac8519a53d83ef396a73b555603d80547fffffffffffffffffffffffffffffffffffffffffffffffffffffffff00000000166001179055603c5560355460395491517f095ea7b3000000000000000000000000000000000000000000000000000000008152918316600483015260001960248301529091169063095ea7b3906044016020604051808303816000875af1158015610b59573d6000803e3d6000fd5b505050506040513d601f19601f82011682018060405250810190610b7d9190612ecd565b506035546040517f095ea7b30000000000000000000000000000000000000000000000000000000081527360ae616a2155ee3d9a68541ba4544862310933d4600482015260001960248201526001600160a01b039091169063095ea7b3906044016020604051808303816000875af1158015610bfd573d6000803e3d6000fd5b505050506040513d601f19601f82011682018060405250810190610c219190612ecd565b506033546040517f095ea7b30000000000000000000000000000000000000000000000000000000081527360ae616a2155ee3d9a68541ba4544862310933d4600482015260001960248201526001600160a01b039091169063095ea7b3906044016020604051808303816000875af1158015610ca1573d6000803e3d6000fd5b505050506040513d601f19601f82011682018060405250810190610cc59190612ecd565b506036546040517f095ea7b30000000000000000000000000000000000000000000000000000000081527360ae616a2155ee3d9a68541ba4544862310933d4600482015260001960248201526001600160a01b039091169063095ea7b3906044016020604051808303816000875af1158015610d45573d6000803e3d6000fd5b505050506040513d601f19601f82011682018060405250810190610d699190612ecd565b506037546040517f095ea7b30000000000000000000000000000000000000000000000000000000081527360ae616a2155ee3d9a68541ba4544862310933d4600482015260001960248201526001600160a01b039091169063095ea7b3906044016020604051808303816000875af1158015610de9573d6000803e3d6000fd5b505050506040513d601f19601f82011682018060405250810190610e0d9190612ecd565b508015610e7157600080547fffffffffffffffffffffffffffffffffffffffffffffffffffffffffffff00ff169055604051600181527f7f26b83ff96e1f2b6a682f133852f6798a09c465da95921460cefb38474024989060200160405180910390a15b505050565b6040546000906001600160a01b03163314610ebd576040517ffa6f03ae00000000000000000000000000000000000000000000000000000000815260040160405180910390fd5b603a54600003610ef9576040517ff58c8f9100000000000000000000000000000000000000000000000000000000815260040160405180910390fd5b603d5463ffffffff1643603f6000610f12600185612f6e565b63ffffffff16815260208101919091526040016000205403610f60576040517ffa2a2d8700000000000000000000000000000000000000000000000000000000815260040160405180910390fd5b6039546038546040517f441a3e700000000000000000000000000000000000000000000000000000000081526004810191909152600060248201526001600160a01b039091169063441a3e7090604401600060405180830381600087803b158015610fca57600080fd5b505af1158015610fde573d6000803e3d6000fd5b50506036546037546033546040517f70a082310000000000000000000000000000000000000000000000000000000081523060048201526001600160a01b03938416955091831693507360ae616a2155ee3d9a68541ba4544862310933d492600092911690829082906370a0823190602401602060405180830381865afa15801561106d573d6000803e3d6000fd5b505050506040513d601f19601f820116820180604052508101906110919190612f92565b905061109e82828b6125d2565b6110a89082612fab565b90506110b5600282612fbe565b603454909350600091506001600160a01b0316801561117a576040517f70a082310000000000000000000000000000000000000000000000000000000081523060048201526000906001600160a01b038316906370a0823190602401602060405180830381865afa15801561112e573d6000803e3d6000fd5b505050506040513d601f19601f820116820180604052508101906111529190612f92565b905061115f82828d6125d2565b6111699082612fab565b9050611176600282612fbe565b9250505b83156114c657826001600160a01b0316876001600160a01b031614611324573660006111a68d80613028565b6111b09080613066565b91509150846001600160a01b0316828260008181106111d1576111d1612ff9565b90506020020160208101906111e69190612b8a565b6001600160a01b031614158061123e57506001600160a01b038916828261120e600182612fab565b81811061121d5761121d612ff9565b90506020020160208101906112329190612b8a565b6001600160a01b031614155b1561128d576040517fead9849a0000000000000000000000000000000000000000000000000000000081526001600160a01b0380871660048301528a1660248201526044015b60405180910390fd5b6001600160a01b0387166338ed1739878f60006020028101906112b09190613028565b60200135858530426040518763ffffffff1660e01b81526004016112d9969594939291906130d5565b6000604051808303816000875af11580156112f8573d6000803e3d6000fd5b505050506040513d6000823e601f3d908101601f191682016040526113209190810190613148565b5050505b826001600160a01b0316866001600160a01b0316146114c65736600061134d60208e018e613028565b6113579080613066565b91509150846001600160a01b03168282600081811061137857611378612ff9565b905060200201602081019061138d9190612b8a565b6001600160a01b03161415806113e557506001600160a01b03881682826113b5600182612fab565b8181106113c4576113c4612ff9565b90506020020160208101906113d99190612b8a565b6001600160a01b031614155b1561142f576040517fead9849a0000000000000000000000000000000000000000000000000000000081526001600160a01b03808716600483015289166024820152604401611284565b6001600160a01b0387166338ed1739878f60016020028101906114529190613028565b60200135858530426040518763ffffffff1660e01b815260040161147b969594939291906130d5565b6000604051808303816000875af115801561149a573d6000803e3d6000fd5b505050506040513d6000823e601f3d908101601f191682016040526114c29190810190613148565b5050505b811561181057806001600160a01b0316876001600160a01b03161461166e573660006114f560408e018e613028565b6114ff9080613066565b91509150826001600160a01b03168282600081811061152057611520612ff9565b90506020020160208101906115359190612b8a565b6001600160a01b031614158061158d57506001600160a01b038916828261155d600182612fab565b81811061156c5761156c612ff9565b90506020020160208101906115819190612b8a565b6001600160a01b031614155b156115d7576040517fead9849a0000000000000000000000000000000000000000000000000000000081526001600160a01b0380851660048301528a166024820152604401611284565b6001600160a01b0387166338ed1739858f60026020028101906115fa9190613028565b60200135858530426040518763ffffffff1660e01b8152600401611623969594939291906130d5565b6000604051808303816000875af1158015611642573d6000803e3d6000fd5b505050506040513d6000823e601f3d908101601f1916820160405261166a9190810190613148565b5050505b806001600160a01b0316866001600160a01b0316146118105736600061169760608e018e613028565b6116a19080613066565b91509150826001600160a01b0316828260008181106116c2576116c2612ff9565b90506020020160208101906116d79190612b8a565b6001600160a01b031614158061172f57506001600160a01b03881682826116ff600182612fab565b81811061170e5761170e612ff9565b90506020020160208101906117239190612b8a565b6001600160a01b031614155b15611779576040517fead9849a0000000000000000000000000000000000000000000000000000000081526001600160a01b03808516600483015289166024820152604401611284565b6001600160a01b0387166338ed1739858f600360200281019061179c9190613028565b60200135858530426040518763ffffffff1660e01b81526004016117c5969594939291906130d5565b6000604051808303816000875af11580156117e4573d6000803e3d6000fd5b505050506040513d6000823e601f3d908101601f1916820160405261180c9190810190613148565b5050505b50506040517f70a082310000000000000000000000000000000000000000000000000000000081523060048201526001600160a01b03808516935063e8e337009250869186918316906370a0823190602401602060405180830381865afa15801561187f573d6000803e3d6000fd5b505050506040513d601f19601f820116820180604052508101906118a39190612f92565b6040517f70a082310000000000000000000000000000000000000000000000000000000081523060048201526001600160a01b038816906370a0823190602401602060405180830381865afa158015611900573d6000803e3d6000fd5b505050506040513d601f19601f820116820180604052508101906119249190612f92565b61192e8d80613028565b60209081013590611941908f018f613028565b6040517fffffffff0000000000000000000000000000000000000000000000000000000060e089901b1681526001600160a01b0396871660048201529590941660248601526044850192909252606484015260848301526020013560a48201523060c48201524260e4820152610104016060604051808303816000875af11580156119d0573d6000803e3d6000fd5b505050506040513d601f19601f820116820180604052508101906119f491906131ee565b603c5490975060009250611a09915043612fab565b603a54611a16919061321c565b603b54611a239190612cd5565b611a35670de0b6b3a76400008861321c565b611a3f9190612fbe565b90506000603f81611a51600189612f6e565b63ffffffff168152602081019190915260400160002054611a729043612fab565b611a7c908361321c565b603f6000611a8b60018a612f6e565b63ffffffff1663ffffffff16815260200190815260200160002060020154611ab39190612cd5565b60408051606081018252438152602080820186815282840185815263ffffffff8c166000908152603f9093529390912091518255516001808301919091559151600290910155909150611b07908790613233565b603d80547fffffffffffffffffffffffffffffffffffffffffffffffffffffffff000000001663ffffffff9290921691909117905543603c556000603b556039546038546040517fe2bbb1580000000000000000000000000000000000000000000000000000000081526004810191909152602481018990526001600160a01b039091169063e2bbb15890604401600060405180830381600087803b158015611baf57600080fd5b505af1158015611bc3573d6000803e3d6000fd5b5050505050505050505092915050565b6040546001600160a01b03163314611c17576040517ffa6f03ae00000000000000000000000000000000000000000000000000000000815260040160405180910390fd5b81600003611c51576040517f78e321a500000000000000000000000000000000000000000000000000000000815260040160405180910390fd5b611c5a81612641565b6001600160a01b0381166000908152603e602052604081208054849290611c82908490612cd5565b9250508190555081603a6000828254611c9b9190612cd5565b90915550506039546038546040517fe2bbb1580000000000000000000000000000000000000000000000000000000081526001600160a01b039092169163e2bbb15891611cf5918690600401918252602082015260400190565b600060405180830381600087803b158015611d0f57600080fd5b505af1158015611d23573d6000803e3d6000fd5b505050505050565b6040546001600160a01b03163314611d6f576040517ffa6f03ae00000000000000000000000000000000000000000000000000000000815260040160405180910390fd5b82600003611da9576040517f2cd294cf00000000000000000000000000000000000000000000000000000000815260040160405180910390fd5b611db282612641565b6001600160a01b0382166000908152603e60205260409020600281015480851115611e59578154600090611de7908390612cd5565b905080861115611e23576040517f50b1f35600000000000000000000000000000000000000000000000000000000815260040160405180910390fd5b611e2d8682612fab565b8355603a548690611e3f908490612cd5565b611e499190612fab565b603a555060006002830155611e69565b611e638582612fab565b60028301555b6039546038546040517f441a3e700000000000000000000000000000000000000000000000000000000081526001600160a01b039092169163441a3e7091611ebe918990600401918252602082015260400190565b600060405180830381600087803b158015611ed857600080fd5b505af1158015611eec573d6000803e3d6000fd5b5050603554611f0892506001600160a01b031690508487612780565b5050505050565b6001600160a01b0381166000908152603e60209081526040808320815160a08101835281548152600182015493810193909352600281015491830191909152600381015463ffffffff908116606084018190526004909201546080840152603d54169003611f81576040015192915050565b60608082015163ffffffff166000908152603f6020908152604080832081519485018252805480865260018201549386019390935260020154908401526080840151611fcc91612fab565b8351611fd8919061321c565b8360200151611fe79190612cd5565b90506000670de0b6b3a7640000836020015183612004919061321c565b61200e9190612fbe565b6040840151603d54919250600091670de0b6b3a76400009190603f90849061203e9060019063ffffffff16612f6e565b63ffffffff1663ffffffff168152602001908152602001600020600201546120669190612fab565b8651612072919061321c565b61207c9190612fbe565b90508082866040015161208f9190612cd5565b6120999190612cd5565b979650505050505050565b60008054610100900460ff161561215b578160ff1660011480156120c75750303b155b612153576040517f08c379a000000000000000000000000000000000000000000000000000000000815260206004820152602e60248201527f496e697469616c697a61626c653a20636f6e747261637420697320616c72656160448201527f647920696e697469616c697a65640000000000000000000000000000000000006064820152608401611284565b506000919050565b60005460ff8084169116106121f2576040517f08c379a000000000000000000000000000000000000000000000000000000000815260206004820152602e60248201527f496e697469616c697a61626c653a20636f6e747261637420697320616c72656160448201527f647920696e697469616c697a65640000000000000000000000000000000000006064820152608401611284565b50600080547fffffffffffffffffffffffffffffffffffffffffffffffffffffffffffffff001660ff92909216919091179055600190565b919050565b600054610100900460ff166122c6576040517f08c379a000000000000000000000000000000000000000000000000000000000815260206004820152602b60248201527f496e697469616c697a61626c653a20636f6e7472616374206973206e6f74206960448201527f6e697469616c697a696e670000000000000000000000000000000000000000006064820152608401611284565b6122ce612800565b565b6000806000805b734483f0b6e2f5486d06958c20f8c39a7abe87bf8f6001600160a01b031663081e3eda6040518163ffffffff1660e01b8152600401602060405180830381865afa158015612329573d6000803e3d6000fd5b505050506040513d601f19601f8201168201806040525081019061234d9190612f92565b811015612431576040517f1526fe27000000000000000000000000000000000000000000000000000000008152600481018290526001600160a01b03861690734483f0b6e2f5486d06958c20f8c39a7abe87bf8f90631526fe279060240161012060405180830381865afa1580156123c9573d6000803e3d6000fd5b505050506040513d601f19601f820116820180604052508101906123ed9190612e31565b516001600160a01b03160361241f5780935060019150734483f0b6e2f5486d06958c20f8c39a7abe87bf8f9250612431565b8061242981613250565b9150506122d7565b50806125955760005b73188bed1968b795d5c9022f6a0bb5931ac4c18f006001600160a01b031663081e3eda6040518163ffffffff1660e01b8152600401602060405180830381865afa15801561248c573d6000803e3d6000fd5b505050506040513d601f19601f820116820180604052508101906124b09190612f92565b811015612593576040517f1526fe27000000000000000000000000000000000000000000000000000000008152600481018290526001600160a01b0386169073188bed1968b795d5c9022f6a0bb5931ac4c18f0090631526fe279060240160a060405180830381865afa15801561252b573d6000803e3d6000fd5b505050506040513d601f19601f8201168201806040525081019061254f9190612eef565b516001600160a01b031603612581578093506001915073188bed1968b795d5c9022f6a0bb5931ac4c18f009250612593565b8061258b81613250565b91505061243a565b505b806125cc576040517fb292e30800000000000000000000000000000000000000000000000000000000815260040160405180910390fd5b50915091565b6000806125e26020840184612b8a565b6001600160a01b03161461263a57670de0b6b3a764000061260760208401358561321c565b6126119190612fbe565b9050801561263a5761263a6126296020840184612b8a565b6001600160a01b0386169083612780565b9392505050565b6001600160a01b0381166000908152603e60205260409020603d54600382015463ffffffff9182169116036126a957600481015461267f9043612fab565b815461268b919061321c565b81600101600082825461269e9190612cd5565b909155506127059050565b6126b282611f0f565b6002820155603d54603f906000906126d29060019063ffffffff16612f6e565b63ffffffff1681526020810191909152604001600020546126f39043612fab565b81546126ff919061321c565b60018201555b603d546003820180547fffffffffffffffffffffffffffffffffffffffffffffffffffffffff000000001663ffffffff9092169190911790554360048201819055603a54603c5490916127589190612fab565b612762919061321c565b603b60008282546127739190612cd5565b909155505043603c555050565b604080516001600160a01b038416602482015260448082018490528251808303909101815260649091019091526020810180517bffffffffffffffffffffffffffffffffffffffffffffffffffffffff167fa9059cbb00000000000000000000000000000000000000000000000000000000179052610e7190849061289d565b600054610100900460ff16612897576040517f08c379a000000000000000000000000000000000000000000000000000000000815260206004820152602b60248201527f496e697469616c697a61626c653a20636f6e7472616374206973206e6f74206960448201527f6e697469616c697a696e670000000000000000000000000000000000000000006064820152608401611284565b60018055565b60006128f2826040518060400160405280602081526020017f5361666545524332303a206c6f772d6c6576656c2063616c6c206661696c6564815250856001600160a01b031661299c9092919063ffffffff16565b805190915015610e7157808060200190518101906129109190612ecd565b610e71576040517f08c379a000000000000000000000000000000000000000000000000000000000815260206004820152602a60248201527f5361666545524332303a204552433230206f7065726174696f6e20646964206e60448201527f6f742073756363656564000000000000000000000000000000000000000000006064820152608401611284565b60606129ab84846000856129b3565b949350505050565b606082471015612a45576040517f08c379a000000000000000000000000000000000000000000000000000000000815260206004820152602660248201527f416464726573733a20696e73756666696369656e742062616c616e636520666f60448201527f722063616c6c00000000000000000000000000000000000000000000000000006064820152608401611284565b6001600160a01b0385163b612ab6576040517f08c379a000000000000000000000000000000000000000000000000000000000815260206004820152601d60248201527f416464726573733a2063616c6c20746f206e6f6e2d636f6e74726163740000006044820152606401611284565b600080866001600160a01b03168587604051612ad2919061328e565b60006040518083038185875af1925050503d8060008114612b0f576040519150601f19603f3d011682016040523d82523d6000602084013e612b14565b606091505b509150915061209982828660608315612b2e57508161263a565b825115612b3e5782518084602001fd5b816040517f08c379a000000000000000000000000000000000000000000000000000000000815260040161128491906132a0565b6001600160a01b0381168114612b8757600080fd5b50565b600060208284031215612b9c57600080fd5b813561263a81612b72565b60008060408385031215612bba57600080fd5b8235612bc581612b72565b91506020830135612bd581612b72565b809150509250929050565b6000808284036060811215612bf457600080fd5b833567ffffffffffffffff811115612c0b57600080fd5b840160808101861015612c1d57600080fd5b92506040601f1982011215612c3157600080fd5b506020830190509250929050565b60008060408385031215612c5257600080fd5b823591506020830135612bd581612b72565b600080600060608486031215612c7957600080fd5b833592506020840135612c8b81612b72565b91506040840135612c9b81612b72565b809150509250925092565b7f4e487b7100000000000000000000000000000000000000000000000000000000600052601160045260246000fd5b8082018082111561023f5761023f612ca6565b7f4e487b7100000000000000000000000000000000000000000000000000000000600052604160045260246000fd5b604051610120810167ffffffffffffffff81118282101715612d3b57612d3b612ce8565b60405290565b604051601f8201601f1916810167ffffffffffffffff81118282101715612d6a57612d6a612ce8565b604052919050565b600060408284031215612d8457600080fd5b6040516040810181811067ffffffffffffffff82111715612da757612da7612ce8565b604052825181526020928301519281019290925250919050565b805161222a81612b72565b600060208284031215612dde57600080fd5b815161263a81612b72565b80516bffffffffffffffffffffffff8116811461222a57600080fd5b805167ffffffffffffffff8116811461222a57600080fd5b805163ffffffff8116811461222a57600080fd5b60006101208284031215612e4457600080fd5b612e4c612d17565b612e5583612dc1565b8152612e6360208401612de9565b60208201526040830151604082015260608301516060820152612e8860808401612e05565b6080820152612e9960a08401612dc1565b60a0820152612eaa60c08401612e1d565b60c082015260e08381015190820152610100928301519281019290925250919050565b600060208284031215612edf57600080fd5b8151801515811461263a57600080fd5b600060a08284031215612f0157600080fd5b60405160a0810181811067ffffffffffffffff82111715612f2457612f24612ce8565b6040528251612f3281612b72565b808252506020830151602082015260408301516040820152606083015160608201526080830151612f6281612b72565b60808201529392505050565b63ffffffff828116828216039080821115612f8b57612f8b612ca6565b5092915050565b600060208284031215612fa457600080fd5b5051919050565b8181038181111561023f5761023f612ca6565b600082612ff4577f4e487b7100000000000000000000000000000000000000000000000000000000600052601260045260246000fd5b500490565b7f4e487b7100000000000000000000000000000000000000000000000000000000600052603260045260246000fd5b600082357fffffffffffffffffffffffffffffffffffffffffffffffffffffffffffffffc183360301811261305c57600080fd5b9190910192915050565b60008083357fffffffffffffffffffffffffffffffffffffffffffffffffffffffffffffffe184360301811261309b57600080fd5b83018035915067ffffffffffffffff8211156130b657600080fd5b6020019150600581901b36038213156130ce57600080fd5b9250929050565b868152602080820187905260a0604083018190528201859052600090869060c08401835b8881101561312757833561310c81612b72565b6001600160a01b0316825292820192908201906001016130f9565b506001600160a01b0396909616606085015250505060800152949350505050565b6000602080838503121561315b57600080fd5b825167ffffffffffffffff8082111561317357600080fd5b818501915085601f83011261318757600080fd5b81518181111561319957613199612ce8565b8060051b91506131aa848301612d41565b81815291830184019184810190888411156131c457600080fd5b938501935b838510156131e2578451825293850193908501906131c9565b98975050505050505050565b60008060006060848603121561320357600080fd5b8351925060208401519150604084015190509250925092565b808202811582820484141761023f5761023f612ca6565b63ffffffff818116838216019080821115612f8b57612f8b612ca6565b6000600019820361326357613263612ca6565b5060010190565b60005b8381101561328557818101518382015260200161326d565b50506000910152565b6000825161305c81846020870161326a565b60208152600082518060208401526132bf81604085016020870161326a565b601f01601f1916919091016040019291505056fea2646970667358221220a42c9c12123f376d29647d3fda05f7bf6a24dd441ddcd25e4f966789facd9b2464736f6c63430008130033",
  "immutableReferences": {},
  "source": "// SPDX-License-Identifier: MIT\r\npragma solidity 0.8.19;\r\n\r\nimport './interfaces/IUnoFarmTraderjoe.sol';\r\nimport \"../../interfaces/IUniswapV2Pair.sol\";\r\nimport \"../../interfaces/IUniswapV2Router.sol\";\r\nimport \"../../interfaces/IMasterChefJoe.sol\";\r\nimport \"../../interfaces/IMasterChefJoeBoost.sol\";\r\nimport \"../../interfaces/IMasterChefJoeV3.sol\";\r\nimport \"../../interfaces/ISimpleRewarder.sol\";\r\nimport \"@openzeppelin/contracts-upgradeable/security/ReentrancyGuardUpgradeable.sol\";\r\nimport \"@openzeppelin/contracts/token/ERC20/utils/SafeERC20.sol\";\r\nimport \"@openzeppelin/contracts-upgradeable/proxy/utils/Initializable.sol\";\r\n\r\ncontract UnoFarmTraderjoe is Initializable, ReentrancyGuardUpgradeable, IUnoFarmTraderjoe {\r\n\tusing SafeERC20 for IERC20;\r\n\t/**\r\n\t * @dev Tokens Used:\r\n\t * {rewardToken} - Token generated by staking (JOE).\r\n\t * {rewarderToken} - Token generated by simpleRewarderTime contract.\r\n\t * {lpPool} - Token that the strategy maximizes. The same token that users deposit in the {MasterChef}.\r\n\t * {tokenA, tokenB} - Tokens that the strategy maximizes.\r\n\t */\r\n\taddress public rewardToken;\r\n\taddress public rewarderToken;\r\n\taddress public lpPool;\r\n\taddress public tokenA;\r\n\taddress public tokenB;\r\n\r\n\t/**\r\n\t * @dev Third Party Contracts:\r\n\t * {traderjoeRouter} - The contract that executes swaps.\r\n\t * {MasterChefBoost} -The contract that distibutes {rewardToken}.\r\n\t * {MasterChefV3} -The contract that distibutes {rewardToken}.\r\n\t */\r\n\tIUniswapV2Router01 private constant traderjoeRouter = IUniswapV2Router01(0x60aE616a2155Ee3d9A68541Ba4544862310933d4);\r\n\tIMasterChefJoeBoost private constant MasterChefBoost = IMasterChefJoeBoost(0x4483f0b6e2F5486D06958C20f8C39A7aBe87bf8F);\r\n\tIMasterChefJoeV3 private constant MasterChefV3 = IMasterChefJoeV3(0x188bED1968b795d5c9022F6a0bb5931Ac4c18F00);\r\n\r\n\t/**\r\n     * @dev Contract Variables:\r\n     * {pid} - Pool ID.\r\n     * {MasterChef} - MasterChef in use.\r\n\r\n     * {totalDeposits} - Total deposits made by users.\r\n     * {totalDepositAge} - Deposits multiplied by blocks the deposit has been in. Flushed every reward distribution.\r\n     * {totalDepositLastUpdate} - Last {totalDepositAge} update block.\r\n\r\n     * {distributionID} - Current distribution ID.\r\n     * {userInfo} - Info on each user.\r\n     * {distributionInfo} - Info on each distribution.\r\n\r\n     * {fractionMultiplier} - Used to store decimal values.\r\n     */\r\n\tuint256 public pid;\r\n\tIMasterChefJoe public MasterChef;\r\n\r\n\tuint256 private totalDeposits;\r\n\tuint256 private totalDepositAge;\r\n\tuint256 private totalDepositLastUpdate;\r\n\r\n\tuint32 private distributionID;\r\n\tmapping(address => UserInfo) private userInfo;\r\n\tmapping(uint32 => DistributionInfo) private distributionInfo;\r\n\r\n\tuint256 private constant fractionMultiplier = uint256(1 ether);\r\n\r\n\t/**\r\n\t * @dev Contract Variables:\r\n\t * {assetRouter} - The contract from which calls to this farm are made.\r\n\t */\r\n\taddress public assetRouter;\r\n\tmodifier onlyAssetRouter() {\r\n \t\tif(msg.sender != assetRouter) revert CALLER_NOT_ASSET_ROUTER();\r\n\t\t_;\r\n\t}\r\n\r\n\t// ============ Methods ============\r\n\r\n\tfunction initialize(address _lpPool, address _assetRouter) external initializer {\r\n        if(_lpPool == address(0)) revert INVALID_LP_POOL();\r\n        if(_assetRouter == address(0)) revert INVALID_ASSET_ROUTER();\r\n\r\n\t\t__ReentrancyGuard_init();\r\n\t\tassetRouter = _assetRouter;\r\n\r\n\t\t(pid, MasterChef) = _getPoolInfo(_lpPool);\r\n\t\tlpPool = _lpPool;\r\n\r\n\t\trewardToken = MasterChef.JOE();\r\n\t\tif (address(MasterChef) == address(MasterChefBoost)) {\r\n\t\t\taddress simpleRewarder = MasterChefBoost.poolInfo(pid).rewarder;\r\n\t\t\tif (simpleRewarder != address(0)) {\r\n\t\t\t\trewarderToken = address(ISimpleRewarder(simpleRewarder).rewardToken());\r\n\t\t\t\tIERC20(rewarderToken).approve(address(traderjoeRouter), type(uint256).max);\r\n\t\t\t}\r\n\t\t} else {\r\n\t\t\taddress simpleRewarder = MasterChefV3.poolInfo(pid).rewarder;\r\n\t\t\tif (simpleRewarder != address(0)) {\r\n\t\t\t\trewarderToken = address(ISimpleRewarder(simpleRewarder).rewardToken());\r\n\t\t\t\tIERC20(rewarderToken).approve(address(traderjoeRouter), type(uint256).max);\r\n\t\t\t}\r\n\t\t}\r\n\r\n\t\ttokenA = IUniswapV2Pair(lpPool).token0();\r\n\t\ttokenB = IUniswapV2Pair(lpPool).token1();\r\n\r\n\t\tdistributionInfo[0] = DistributionInfo({ block: block.number, rewardPerDepositAge: 0, cumulativeRewardAgePerDepositAge: 0 });\r\n\t\tdistributionID = 1;\r\n\t\ttotalDepositLastUpdate = block.number;\r\n\r\n\t\tIERC20(lpPool).approve(address(MasterChef), type(uint256).max);\r\n\t\tIERC20(lpPool).approve(address(traderjoeRouter), type(uint256).max);\r\n\t\tIERC20(rewardToken).approve(address(traderjoeRouter), type(uint256).max);\r\n\t\tIERC20(tokenA).approve(address(traderjoeRouter), type(uint256).max);\r\n\t\tIERC20(tokenB).approve(address(traderjoeRouter), type(uint256).max);\r\n\t}\r\n\r\n\t/**\r\n\t * @dev Function that makes the deposits.\r\n\t * Stakes {amount} of LP tokens from this contract's balance in the {MasterChef}.\r\n\t */\r\n\tfunction deposit(uint256 amount, address recipient) external onlyAssetRouter{\r\n        if(amount == 0) revert NO_LIQUIDITY_PROVIDED();\r\n\r\n\t\t_updateDeposit(recipient);\r\n\t\tuserInfo[recipient].stake += amount;\r\n\t\ttotalDeposits += amount;\r\n\r\n\t\tMasterChef.deposit(pid, amount);\r\n\t}\r\n\r\n\t/**\r\n\t * @dev Withdraws funds from {origin} and sends them to the {recipient}.\r\n\t */\r\n\tfunction withdraw(\r\n\t\tuint256 amount,\r\n\t\taddress origin,\r\n\t\taddress recipient\r\n\t) external onlyAssetRouter {\r\n        if(amount == 0) revert INSUFFICIENT_AMOUNT();\r\n\r\n\t\t_updateDeposit(origin);\r\n\t\tUserInfo storage user = userInfo[origin];\r\n\t\t// Subtract amount from user.reward first, then subtract remainder from user.stake.\r\n\t\tuint256 reward = user.reward;\r\n\t\tif (amount > reward) {\r\n\t\t\tuint256 balance = user.stake + reward;\r\n            if(amount > balance) revert INSUFFICIENT_BALANCE();\r\n\r\n\t\t\tuser.stake = balance - amount;\r\n\t\t\ttotalDeposits = totalDeposits + reward - amount;\r\n\t\t\tuser.reward = 0;\r\n\t\t} else {\r\n\t\t\tuser.reward = reward - amount;\r\n\t\t}\r\n\r\n\t\tMasterChef.withdraw(pid, amount);\r\n\t\tIERC20(lpPool).safeTransfer(recipient, amount);\r\n\t}\r\n\r\n\t/**\r\n\t * @dev Core function of the strat, in charge of updating, collecting and re-investing rewards.\r\n\t * 1. It claims rewards from the {MasterChef}.\r\n\t * 2. It swaps {rewardToken} token for {tokenA} & {tokenB}.\r\n\t * 3. It deposits new LP tokens back to the {MasterChef}.\r\n\t */\r\n\tfunction distribute(\r\n\t\tSwapInfo[4] calldata swapInfos,\r\n\t\tFeeInfo calldata feeInfo\r\n\t) external onlyAssetRouter returns (uint256 reward) {\r\n\t\tif(totalDeposits == 0) revert NO_LIQUIDITY();\r\n\t\tuint32 _distributionID = distributionID;\r\n        if(distributionInfo[_distributionID - 1].block == block.number) revert CALL_ON_THE_SAME_BLOCK();\r\n\r\n\t\tMasterChef.withdraw(pid, 0);\r\n\r\n        address _tokenA = tokenA;\r\n        address _tokenB = tokenB;\r\n        IUniswapV2Router01 _traderjoeRouter = traderjoeRouter;\r\n\t\t{// scope to avoid stack too deep errors\r\n\t\tuint256 rewardTokenHalf;\r\n\t\taddress _rewardToken = rewardToken;\r\n        {\r\n            uint256 balance = IERC20(_rewardToken).balanceOf(address(this));\r\n            balance -= _collectFees(IERC20(_rewardToken), balance, feeInfo);\r\n            rewardTokenHalf = balance / 2;\r\n        }\r\n\r\n        uint256 rewarderTokenHalf;\r\n\t\taddress _rewarderToken = rewarderToken;\r\n        if (rewarderToken != address(0)) {\r\n            uint256 balance = IERC20(_rewarderToken).balanceOf(address(this));\r\n            balance -= _collectFees(IERC20(_rewarderToken), balance, feeInfo);\r\n            rewarderTokenHalf = balance / 2;\r\n        }\r\n\r\n\t\tif (rewardTokenHalf > 0) {\r\n\t\t\tif (_tokenA != _rewardToken) {\r\n\t\t\t\taddress[] calldata route = swapInfos[0].route;\r\n\t\t\t\tif(route[0] != _rewardToken || route[route.length - 1] != _tokenA) revert INVALID_ROUTE(_rewardToken, _tokenA);\r\n\t\t\t\t_traderjoeRouter.swapExactTokensForTokens(rewardTokenHalf, swapInfos[0].amountOutMin, route, address(this), block.timestamp);\r\n\t\t\t}\r\n\r\n\t\t\tif (_tokenB != _rewardToken) {\r\n\t\t\t\taddress[] calldata route = swapInfos[1].route;\r\n                if(route[0] != _rewardToken || route[route.length - 1] != _tokenB) revert INVALID_ROUTE(_rewardToken, _tokenB);\r\n\t\t\t\t_traderjoeRouter.swapExactTokensForTokens(rewardTokenHalf, swapInfos[1].amountOutMin, route, address(this), block.timestamp);\r\n\t\t\t}\r\n\t\t}\r\n\r\n\t\tif (rewarderTokenHalf > 0) {\r\n\t\t\tif (_tokenA != _rewarderToken) {\r\n\t\t\t\taddress[] calldata route = swapInfos[2].route;\r\n\t\t\t\tif (route[0] != _rewarderToken || route[route.length - 1] != _tokenA) revert INVALID_ROUTE(_rewarderToken, _tokenA);\r\n\t\t\t\t_traderjoeRouter.swapExactTokensForTokens(rewarderTokenHalf, swapInfos[2].amountOutMin, route, address(this), block.timestamp);\r\n\t\t\t}\r\n\r\n\t\t\tif (_tokenB != _rewarderToken) {\r\n\t\t\t\taddress[] calldata route = swapInfos[3].route;\r\n\t\t\t\tif (route[0] != _rewarderToken || route[route.length - 1] != _tokenB) revert INVALID_ROUTE(_rewarderToken, _tokenB);\r\n\t\t\t\t_traderjoeRouter.swapExactTokensForTokens(rewarderTokenHalf, swapInfos[3].amountOutMin, route, address(this), block.timestamp);\r\n\t\t\t}\r\n\t\t}\r\n\t\t}\r\n\r\n\t\t(,,reward) = _traderjoeRouter.addLiquidity(_tokenA, _tokenB, IERC20(_tokenA).balanceOf(address(this)), IERC20(_tokenB).balanceOf(address(this)), swapInfos[0].amountOutMin, swapInfos[1].amountOutMin, address(this), block.timestamp);\r\n\r\n\t\tuint256 rewardPerDepositAge = (reward * fractionMultiplier) / (totalDepositAge + totalDeposits * (block.number - totalDepositLastUpdate));\r\n\t\tuint256 cumulativeRewardAgePerDepositAge = distributionInfo[_distributionID - 1].cumulativeRewardAgePerDepositAge + rewardPerDepositAge * (block.number - distributionInfo[_distributionID - 1].block);\r\n\r\n\t\tdistributionInfo[_distributionID] = DistributionInfo({ block: block.number, rewardPerDepositAge: rewardPerDepositAge, cumulativeRewardAgePerDepositAge: cumulativeRewardAgePerDepositAge });\r\n\r\n\t\tdistributionID = _distributionID + 1;\r\n\t\ttotalDepositLastUpdate = block.number;\r\n\t\ttotalDepositAge = 0;\r\n\r\n\t\tMasterChef.deposit(pid, reward);\r\n\t}\r\n\r\n    /**\r\n\t * @dev Sends fees to feeTo.\r\n\t */\r\n\tfunction _collectFees(IERC20 token, uint256 balance, FeeInfo calldata feeInfo) internal returns(uint256 feeAmount) {\r\n\t\tif (feeInfo.feeTo != address(0)) {\r\n\t\t\tfeeAmount = balance * feeInfo.fee / fractionMultiplier;\r\n\t\t\tif (feeAmount > 0) {\r\n\t\t\t\ttoken.safeTransfer(feeInfo.feeTo, feeAmount);\r\n\t\t\t}\r\n\t\t}\r\n\t}\r\n\r\n\t/**\r\n\t * @dev Returns total funds staked by the {_address}.\r\n\t */\r\n\tfunction userBalance(address _address) external view returns (uint256) {\r\n\t\treturn userInfo[_address].stake + _userReward(_address);\r\n\t}\r\n\r\n\t/**\r\n\t * @dev Returns total funds locked in the farm.\r\n\t */\r\n\tfunction getTotalDeposits() external view returns (uint256 _totalDeposits) {\r\n\t\tif (totalDeposits > 0) {\r\n\t\t\t_totalDeposits = MasterChef.userInfo(pid, address(this)).amount;\r\n\t\t}\r\n\t}\r\n\r\n\tfunction _updateDeposit(address _address) internal {\r\n\t\tUserInfo storage user = userInfo[_address];\r\n\t\t// Accumulate deposit age within the current distribution period.\r\n\t\tif (user.lastDistribution == distributionID) {\r\n\t\t\t// Add deposit age from previous deposit age update to now.\r\n\t\t\tuser.depositAge += user.stake * (block.number - user.lastUpdate);\r\n\t\t} else {\r\n\t\t\t// A reward has been distributed, update user.reward.\r\n\t\t\tuser.reward = _userReward(_address);\r\n\t\t\t// Count fresh deposit age from previous reward distribution to now.\r\n\t\t\tuser.depositAge = user.stake * (block.number - distributionInfo[distributionID - 1].block);\r\n\t\t}\r\n\r\n\t\tuser.lastDistribution = distributionID;\r\n\t\tuser.lastUpdate = block.number;\r\n\r\n\t\t// Same with total deposit age.\r\n\t\ttotalDepositAge += (block.number - totalDepositLastUpdate) * totalDeposits;\r\n\t\ttotalDepositLastUpdate = block.number;\r\n\t}\r\n\r\n\tfunction _userReward(address _address) internal view returns (uint256) {\r\n\t\tUserInfo memory user = userInfo[_address];\r\n\t\tif (user.lastDistribution == distributionID) {\r\n\t\t\t// Return user.reward if the distribution after the last user deposit did not happen yet.\r\n\t\t\treturn user.reward;\r\n\t\t}\r\n\t\tDistributionInfo memory lastUserDistributionInfo = distributionInfo[user.lastDistribution];\r\n\t\tuint256 userDepositAge = user.depositAge + user.stake * (lastUserDistributionInfo.block - user.lastUpdate);\r\n\t\t// Calculate reward between the last user deposit and the distribution after that.\r\n\t\tuint256 rewardBeforeDistibution = (userDepositAge * lastUserDistributionInfo.rewardPerDepositAge) / fractionMultiplier;\r\n\t\t// Calculate reward from the distributions that have happened after the last user deposit.\r\n\t\tuint256 rewardAfterDistribution = (user.stake * (distributionInfo[distributionID - 1].cumulativeRewardAgePerDepositAge - lastUserDistributionInfo.cumulativeRewardAgePerDepositAge)) / fractionMultiplier;\r\n\t\treturn user.reward + rewardBeforeDistibution + rewardAfterDistribution;\r\n\t}\r\n\r\n\t/**\r\n\t * @dev Get pid and MasterChef version by iterating over all pools and MasterChefs and comparing pids.\r\n\t */\r\n\tfunction _getPoolInfo(address _lpPool) internal view returns (uint256 _pid, IMasterChefJoe _masterChefAddress) {\r\n\t\tbool poolExists = false;\r\n\r\n\t\t// there are more pools assigned to V2, so it makes sense to start with it\r\n\t\tfor (uint256 i = 0; i < MasterChefBoost.poolLength(); i++) {\r\n\t\t\tif (MasterChefBoost.poolInfo(i).lpToken == _lpPool) {\r\n\t\t\t\t_pid = i;\r\n\t\t\t\tpoolExists = true;\r\n\t\t\t\t_masterChefAddress = IMasterChefJoe(address(MasterChefBoost));\r\n\t\t\t\tbreak;\r\n\t\t\t}\r\n\t\t}\r\n\t\tif (!poolExists) {\r\n\t\t\tfor (uint256 i = 0; i < MasterChefV3.poolLength(); i++) {\r\n\t\t\t\tif (MasterChefV3.poolInfo(i).lpToken == _lpPool) {\r\n\t\t\t\t\t_pid = i;\r\n\t\t\t\t\tpoolExists = true;\r\n\t\t\t\t\t_masterChefAddress = IMasterChefJoe(address(MasterChefV3));\r\n\t\t\t\t\tbreak;\r\n\t\t\t\t}\r\n\t\t\t}\r\n\t\t}\r\n        if(!poolExists) revert PID_NOT_EXISTS();\r\n\t\treturn (_pid, _masterChefAddress);\r\n\t}\r\n}\r\n",
  "sourcePath": "C:\\Users\\jugli\\Desktop\\uno\\uno-contracts-avalanche\\contracts\\apps\\traderjoe\\UnoFarmTraderjoe.sol",
  "compiler": {
    "name": "solc",
    "version": "0.8.19+commit.7dd6d404.Emscripten.clang"
  },
  "schemaVersion": "3.4.13",
  "updatedAt": "2023-09-27T15:46:52.584Z",
  "devdoc": {
    "events": {
      "Initialized(uint8)": {
        "details": "Triggered when the contract has been initialized or reinitialized."
      }
    },
    "kind": "dev",
    "methods": {
      "deposit(uint256,address)": {
        "details": "Function that makes the deposits. Stakes {amount} of LP tokens from this contract's balance in the {MasterChef}."
      },
      "distribute((address[],uint256)[4],(address,uint256))": {
        "details": "Core function of the strat, in charge of updating, collecting and re-investing rewards. 1. It claims rewards from the {MasterChef}. 2. It swaps {rewardToken} token for {tokenA} & {tokenB}. 3. It deposits new LP tokens back to the {MasterChef}."
      },
      "getTotalDeposits()": {
        "details": "Returns total funds locked in the farm."
      },
      "userBalance(address)": {
        "details": "Returns total funds staked by the {_address}."
      },
      "withdraw(uint256,address,address)": {
        "details": "Withdraws funds from {origin} and sends them to the {recipient}."
      }
    },
    "stateVariables": {
      "assetRouter": {
        "details": "Contract Variables: {assetRouter} - The contract from which calls to this farm are made."
      },
      "pid": {
        "details": "Contract Variables: {pid} - Pool ID. {MasterChef} - MasterChef in use. {totalDeposits} - Total deposits made by users. {totalDepositAge} - Deposits multiplied by blocks the deposit has been in. Flushed every reward distribution. {totalDepositLastUpdate} - Last {totalDepositAge} update block. {distributionID} - Current distribution ID. {userInfo} - Info on each user. {distributionInfo} - Info on each distribution. {fractionMultiplier} - Used to store decimal values."
      },
      "rewardToken": {
        "details": "Tokens Used: {rewardToken} - Token generated by staking (JOE). {rewarderToken} - Token generated by simpleRewarderTime contract. {lpPool} - Token that the strategy maximizes. The same token that users deposit in the {MasterChef}. {tokenA, tokenB} - Tokens that the strategy maximizes."
      },
      "traderjoeRouter": {
        "details": "Third Party Contracts: {traderjoeRouter} - The contract that executes swaps. {MasterChefBoost} -The contract that distibutes {rewardToken}. {MasterChefV3} -The contract that distibutes {rewardToken}."
      }
    },
    "version": 1
  },
  "userdoc": {
    "kind": "user",
    "methods": {},
    "version": 1
  }
}