{
  "contractName": "UnoFarmSushiswap",
  "abi": [
    {
      "anonymous": false,
      "inputs": [
        {
          "indexed": false,
          "internalType": "uint8",
          "name": "version",
          "type": "uint8"
        }
      ],
      "name": "Initialized",
      "type": "event"
    },
    {
      "inputs": [],
      "name": "assetRouter",
      "outputs": [
        {
          "internalType": "address",
          "name": "",
          "type": "address"
        }
      ],
      "stateMutability": "view",
      "type": "function"
    },
    {
      "inputs": [],
      "name": "lpPair",
      "outputs": [
        {
          "internalType": "address",
          "name": "",
          "type": "address"
        }
      ],
      "stateMutability": "view",
      "type": "function"
    },
    {
      "inputs": [],
      "name": "pid",
      "outputs": [
        {
          "internalType": "uint256",
          "name": "",
          "type": "uint256"
        }
      ],
      "stateMutability": "view",
      "type": "function"
    },
    {
      "inputs": [],
      "name": "rewardToken",
      "outputs": [
        {
          "internalType": "address",
          "name": "",
          "type": "address"
        }
      ],
      "stateMutability": "view",
      "type": "function"
    },
    {
      "inputs": [],
      "name": "rewarderToken",
      "outputs": [
        {
          "internalType": "address",
          "name": "",
          "type": "address"
        }
      ],
      "stateMutability": "view",
      "type": "function"
    },
    {
      "inputs": [],
      "name": "tokenA",
      "outputs": [
        {
          "internalType": "address",
          "name": "",
          "type": "address"
        }
      ],
      "stateMutability": "view",
      "type": "function"
    },
    {
      "inputs": [],
      "name": "tokenB",
      "outputs": [
        {
          "internalType": "address",
          "name": "",
          "type": "address"
        }
      ],
      "stateMutability": "view",
      "type": "function"
    },
    {
      "inputs": [
        {
          "internalType": "address",
          "name": "_lpPair",
          "type": "address"
        },
        {
          "internalType": "address",
          "name": "_assetRouter",
          "type": "address"
        }
      ],
      "name": "initialize",
      "outputs": [],
      "stateMutability": "nonpayable",
      "type": "function"
    },
    {
      "inputs": [
        {
          "internalType": "uint256",
          "name": "amount",
          "type": "uint256"
        },
        {
          "internalType": "address",
          "name": "token",
          "type": "address"
        },
        {
          "internalType": "address",
          "name": "origin",
          "type": "address"
        },
        {
          "internalType": "address",
          "name": "recipient",
          "type": "address"
        }
      ],
      "name": "depositSingleAsset",
      "outputs": [
        {
          "internalType": "uint256",
          "name": "sentA",
          "type": "uint256"
        },
        {
          "internalType": "uint256",
          "name": "sentB",
          "type": "uint256"
        },
        {
          "internalType": "uint256",
          "name": "addedLiquidity",
          "type": "uint256"
        }
      ],
      "stateMutability": "nonpayable",
      "type": "function"
    },
    {
      "inputs": [
        {
          "internalType": "uint256",
          "name": "amountA",
          "type": "uint256"
        },
        {
          "internalType": "uint256",
          "name": "amountB",
          "type": "uint256"
        },
        {
          "internalType": "uint256",
          "name": "amountAMin",
          "type": "uint256"
        },
        {
          "internalType": "uint256",
          "name": "amountBMin",
          "type": "uint256"
        },
        {
          "internalType": "uint256",
          "name": "amountLP",
          "type": "uint256"
        },
        {
          "internalType": "address",
          "name": "origin",
          "type": "address"
        },
        {
          "internalType": "address",
          "name": "recipient",
          "type": "address"
        }
      ],
      "name": "deposit",
      "outputs": [
        {
          "internalType": "uint256",
          "name": "sentA",
          "type": "uint256"
        },
        {
          "internalType": "uint256",
          "name": "sentB",
          "type": "uint256"
        },
        {
          "internalType": "uint256",
          "name": "liquidity",
          "type": "uint256"
        }
      ],
      "stateMutability": "nonpayable",
      "type": "function"
    },
    {
      "inputs": [
        {
          "internalType": "uint256",
          "name": "amount",
          "type": "uint256"
        },
        {
          "internalType": "uint256",
          "name": "amountAMin",
          "type": "uint256"
        },
        {
          "internalType": "uint256",
          "name": "amountBMin",
          "type": "uint256"
        },
        {
          "internalType": "bool",
          "name": "withdrawLP",
          "type": "bool"
        },
        {
          "internalType": "address",
          "name": "origin",
          "type": "address"
        },
        {
          "internalType": "address",
          "name": "recipient",
          "type": "address"
        }
      ],
      "name": "withdraw",
      "outputs": [
        {
          "internalType": "uint256",
          "name": "amountA",
          "type": "uint256"
        },
        {
          "internalType": "uint256",
          "name": "amountB",
          "type": "uint256"
        }
      ],
      "stateMutability": "nonpayable",
      "type": "function"
    },
    {
      "inputs": [
        {
          "components": [
            {
              "internalType": "address[]",
              "name": "route",
              "type": "address[]"
            },
            {
              "internalType": "uint256",
              "name": "amountOutMin",
              "type": "uint256"
            }
          ],
          "internalType": "struct UnoFarmSushiswap.SwapInfo[4]",
          "name": "swapInfos",
          "type": "tuple[4]"
        },
        {
          "components": [
            {
              "internalType": "address[]",
              "name": "route",
              "type": "address[]"
            },
            {
              "internalType": "uint256",
              "name": "amountOutMin",
              "type": "uint256"
            }
          ],
          "internalType": "struct UnoFarmSushiswap.SwapInfo[2]",
          "name": "feeSwapInfos",
          "type": "tuple[2]"
        },
        {
          "components": [
            {
              "internalType": "address",
              "name": "feeTo",
              "type": "address"
            },
            {
              "internalType": "uint256",
              "name": "fee",
              "type": "uint256"
            }
          ],
          "internalType": "struct UnoFarmSushiswap.FeeInfo",
          "name": "feeInfo",
          "type": "tuple"
        }
      ],
      "name": "distribute",
      "outputs": [
        {
          "internalType": "uint256",
          "name": "reward",
          "type": "uint256"
        }
      ],
      "stateMutability": "nonpayable",
      "type": "function"
    },
    {
      "inputs": [
        {
          "internalType": "address",
          "name": "_address",
          "type": "address"
        }
      ],
      "name": "userBalance",
      "outputs": [
        {
          "internalType": "uint256",
          "name": "",
          "type": "uint256"
        }
      ],
      "stateMutability": "view",
      "type": "function"
    },
    {
      "inputs": [],
      "name": "getTotalDeposits",
      "outputs": [
        {
          "internalType": "uint256",
          "name": "_totalDeposits",
          "type": "uint256"
        }
      ],
      "stateMutability": "view",
      "type": "function"
    }
  ],
  "bytecode": "0x608060405234801561001057600080fd5b50613729806100206000396000f3fe608060405234801561001057600080fd5b50600436106100ea5760003560e01c8063485cc9551161008c578063bc0aac1011610066578063bc0aac10146101ea578063d5634683146101fd578063f106845414610225578063f7c618c11461022e57600080fd5b8063485cc955146101af5780635f64b55b146101c45780637b1f79fb146101d757600080fd5b80631666768a116100c85780631666768a14610153578063168a4822146101815780632a8dc13114610189578063452ed4f11461019c57600080fd5b80630103c92b146100ef57806308fef24a146101155780630fc63d1014610128575b600080fd5b6101026100fd366004612dff565b610241565b6040519081526020015b60405180910390f35b610102610123366004612e1c565b610275565b60365461013b906001600160a01b031681565b6040516001600160a01b03909116815260200161010c565b610166610161366004612eaa565b610fa3565b6040805193845260208401929092529082015260600161010c565b61010261123f565b60345461013b906001600160a01b031681565b60355461013b906001600160a01b031681565b6101c26101bd366004612f13565b6112ce565b005b60375461013b906001600160a01b031681565b6101666101e5366004612f4c565b611abd565b603f5461013b906001600160a01b031681565b61021061020b366004612fad565b6120c6565b6040805192835260208301919091520161010c565b61010260385481565b60335461013b906001600160a01b031681565b600061024c8261239e565b6001600160a01b0383166000908152603d602052604090205461026f919061302a565b92915050565b603f546000906001600160a01b031633146102ab5760405162461bcd60e51b81526004016102a290613042565b60405180910390fd5b600260015414156102ce5760405162461bcd60e51b81526004016102a290613079565b60026001556039546103115760405162461bcd60e51b815260206004820152600c60248201526b4e4f5f4c495155494449545960a01b60448201526064016102a2565b603c544390603e9060009061032e9060019063ffffffff166130b0565b63ffffffff16815260208101919091526040016000205414156103935760405162461bcd60e51b815260206004820152601b60248201527f43414e545f43414c4c5f4f4e5f5448455f53414d455f424c4f434b000000000060448201526064016102a2565b603854604051630c7e663b60e11b81526004810191909152306024820152730769fd68dfb93167989c6f7254cd0d766fb2841f906318fccc7690604401600060405180830381600087803b1580156103ea57600080fd5b505af11580156103fe573d6000803e3d6000fd5b5050505061043b83600060028110610418576104186130d5565b60200281019061042891906130eb565b60335484906001600160a01b0316612533565b61045e61044b60208501856130eb565b60345484906001600160a01b0316612533565b6033546040516370a0823160e01b81523060048201526000916002916001600160a01b03909116906370a0823190602401602060405180830381865afa1580156104ac573d6000803e3d6000fd5b505050506040513d601f19601f820116820180604052508101906104d0919061310b565b6104da9190613124565b6034549091506000906001600160a01b03161561056b576034546040516370a0823160e01b81523060048201526002916001600160a01b0316906370a0823190602401602060405180830381865afa15801561053a573d6000803e3d6000fd5b505050506040513d601f19601f8201168201806040525081019061055e919061310b565b6105689190613124565b90505b81156108b3576033546036546001600160a01b0390811691161461070f5736600061059688806130eb565b6105a09080613146565b60335491935091506001600160a01b031682826000816105c2576105c26130d5565b90506020020160208101906105d79190612dff565b6001600160a01b031614801561063057506036546001600160a01b03168282610601600182613197565b818110610610576106106130d5565b90506020020160208101906106259190612dff565b6001600160a01b0316145b61067c5760405162461bcd60e51b815260206004820152601860248201527f4241445f5245574152445f544f4b454e5f415f524f555445000000000000000060448201526064016102a2565b6000805160206136d48339815191526338ed17398561069b8b806130eb565b60200135858530426040518763ffffffff1660e01b81526004016106c4969594939291906131ae565b6000604051808303816000875af11580156106e3573d6000803e3d6000fd5b505050506040513d6000823e601f3d908101601f1916820160405261070b91908101906132f7565b5050505b6033546037546001600160a01b039081169116146108b35736600061073760208901896130eb565b6107419080613146565b60335491935091506001600160a01b03168282600081610763576107636130d5565b90506020020160208101906107789190612dff565b6001600160a01b03161480156107d157506037546001600160a01b031682826107a2600182613197565b8181106107b1576107b16130d5565b90506020020160208101906107c69190612dff565b6001600160a01b0316145b61081d5760405162461bcd60e51b815260206004820152601860248201527f4241445f5245574152445f544f4b454e5f425f524f555445000000000000000060448201526064016102a2565b6000805160206136d48339815191526338ed17398561083f60208c018c6130eb565b60200135858530426040518763ffffffff1660e01b8152600401610868969594939291906131ae565b6000604051808303816000875af1158015610887573d6000803e3d6000fd5b505050506040513d6000823e601f3d908101601f191682016040526108af91908101906132f7565b5050505b8015610c01576034546036546001600160a01b03908116911614610a5d573660006108e160408901896130eb565b6108eb9080613146565b60345491935091506001600160a01b0316828260008161090d5761090d6130d5565b90506020020160208101906109229190612dff565b6001600160a01b031614801561097b57506036546001600160a01b0316828261094c600182613197565b81811061095b5761095b6130d5565b90506020020160208101906109709190612dff565b6001600160a01b0316145b6109c75760405162461bcd60e51b815260206004820152601a60248201527f4241445f52455741524445525f544f4b454e5f415f524f55544500000000000060448201526064016102a2565b6000805160206136d48339815191526338ed1739846109e960408c018c6130eb565b60200135858530426040518763ffffffff1660e01b8152600401610a12969594939291906131ae565b6000604051808303816000875af1158015610a31573d6000803e3d6000fd5b505050506040513d6000823e601f3d908101601f19168201604052610a5991908101906132f7565b5050505b6034546037546001600160a01b03908116911614610c0157366000610a8560608901896130eb565b610a8f9080613146565b60345491935091506001600160a01b03168282600081610ab157610ab16130d5565b9050602002016020810190610ac69190612dff565b6001600160a01b0316148015610b1f57506037546001600160a01b03168282610af0600182613197565b818110610aff57610aff6130d5565b9050602002016020810190610b149190612dff565b6001600160a01b0316145b610b6b5760405162461bcd60e51b815260206004820152601a60248201527f4241445f52455741524445525f544f4b454e5f425f524f55544500000000000060448201526064016102a2565b6000805160206136d48339815191526338ed173984610b8d60608c018c6130eb565b60200135858530426040518763ffffffff1660e01b8152600401610bb6969594939291906131ae565b6000604051808303816000875af1158015610bd5573d6000803e3d6000fd5b505050506040513d6000823e601f3d908101601f19168201604052610bfd91908101906132f7565b5050505b50506036546037546040516370a0823160e01b81523060048201526000805160206136d48339815191529263e8e33700926001600160a01b039182169291169082906370a0823190602401602060405180830381865afa158015610c69573d6000803e3d6000fd5b505050506040513d601f19601f82011682018060405250810190610c8d919061310b565b6037546040516370a0823160e01b81523060048201526001600160a01b03909116906370a0823190602401602060405180830381865afa158015610cd5573d6000803e3d6000fd5b505050506040513d601f19601f82011682018060405250810190610cf9919061310b565b610d0660408b018b6130eb565b60200135610d148b806130eb565b60200135610d22919061302a565b610d2f60608c018c6130eb565b60209081013590610d42908d018d6130eb565b60200135610d50919061302a565b30426040518963ffffffff1660e01b8152600401610d75989796959493929190613334565b6060604051808303816000875af1158015610d94573d6000803e3d6000fd5b505050506040513d601f19601f82011682018060405250810190610db8919061337d565b603b5490935060009250610dcd915043613197565b603954610dda91906133ab565b603a54610de7919061302a565b610df9670de0b6b3a7640000846133ab565b610e039190613124565b603c54909150600090603e908290610e239060019063ffffffff166130b0565b63ffffffff168152602081019190915260400160002054610e449043613197565b610e4e90836133ab565b603c54603e90600090610e699060019063ffffffff166130b0565b63ffffffff1663ffffffff16815260200190815260200160002060020154610e91919061302a565b604080516060810182524381526020808201868152828401858152603c805463ffffffff9081166000908152603e90955295842094518555915160018581019190915590516002909401939093558054949550919391929091610ef6918591166133ca565b825463ffffffff9182166101009390930a92830291909202199091161790555043603b556000603a55603854604051638dbdbe6d60e01b8152600481019190915260248101849052306044820152730769fd68dfb93167989c6f7254cd0d766fb2841f90638dbdbe6d90606401600060405180830381600087803b158015610f7d57600080fd5b505af1158015610f91573d6000803e3d6000fd5b50506001805550929695505050505050565b600080600060026001541415610fcb5760405162461bcd60e51b81526004016102a290613079565b6002600155603f546001600160a01b03163314610ffa5760405162461bcd60e51b81526004016102a290613042565b6000808b11801561100b575060008a115b156110cd576000805160206136d48339815191526001600160a01b031663e8e33700603660009054906101000a90046001600160a01b0316603760009054906101000a90046001600160a01b03168e8e8e8e30426040518963ffffffff1660e01b8152600401611082989796959493929190613334565b6060604051808303816000875af11580156110a1573d6000803e3d6000fd5b505050506040513d601f19601f820116820180604052508101906110c5919061337d565b919550935090505b6110d7878261302a565b9150600082116111215760405162461bcd60e51b81526020600482015260156024820152741393d7d3125455525112551657d41493d592511151605a1b60448201526064016102a2565b61112a856127d2565b6001600160a01b0385166000908152603d60205260408120805484929061115290849061302a565b92505081905550816039600082825461116b919061302a565b9091555050603854604051638dbdbe6d60e01b8152600481019190915260248101839052306044820152730769fd68dfb93167989c6f7254cd0d766fb2841f90638dbdbe6d90606401600060405180830381600087803b1580156111ce57600080fd5b505af11580156111e2573d6000803e3d6000fd5b5050505061120986858d6111f69190613197565b6036546001600160a01b031691906128f7565b61122a86611217858d613197565b6037546001600160a01b031691906128f7565b50600180819055509750975097945050505050565b603954600090156112cb576038546040516393f1a40b60e01b81526004810191909152306024820152730769fd68dfb93167989c6f7254cd0d766fb2841f906393f1a40b906044016040805180830381865afa1580156112a3573d6000803e3d6000fd5b505050506040513d601f19601f820116820180604052508101906112c791906133f2565b5090505b90565b60006112da6001612949565b905080156112f2576000805461ff0019166101001790555b6001600160a01b0383166113365760405162461bcd60e51b815260206004820152600b60248201526a10905117d31417d413d3d360aa1b60448201526064016102a2565b6001600160a01b03821661137f5760405162461bcd60e51b815260206004820152601060248201526f2120a22fa0a9a9a2aa2fa927aaaa22a960811b60448201526064016102a2565b6113876129d1565b603f80546001600160a01b0319166001600160a01b0384161790556113ab83612a02565b603855603580546001600160a01b0319166001600160a01b03851617905560408051630ab560e160e41b81529051730769fd68dfb93167989c6f7254cd0d766fb2841f9163ab560e109160048083019260209291908290030181865afa158015611419573d6000803e3d6000fd5b505050506040513d601f19601f8201168201806040525081019061143d9190613416565b603380546001600160a01b0319166001600160a01b039290921691909117905560385460405163c346253d60e01b81526004810191909152600090730769fd68dfb93167989c6f7254cd0d766fb2841f9063c346253d90602401602060405180830381865afa1580156114b4573d6000803e3d6000fd5b505050506040513d601f19601f820116820180604052508101906114d89190613416565b90506001600160a01b038116156116225760385460405163d63b3c4960e01b8152600481019190915260006024820181905260448201819052906001600160a01b0383169063d63b3c4990606401600060405180830381865afa158015611543573d6000803e3d6000fd5b505050506040513d6000823e601f3d908101601f1916820160405261156b9190810190613433565b50905080600081518110611581576115816130d5565b6020908102919091010151603480546001600160a01b0319166001600160a01b03909216918217905560405163095ea7b360e01b81526000805160206136d48339815191526004820152600019602482015263095ea7b3906044016020604051808303816000875af11580156115fb573d6000803e3d6000fd5b505050506040513d601f19601f8201168201806040525081019061161f91906134f8565b50505b603560009054906101000a90046001600160a01b03166001600160a01b0316630dfe16816040518163ffffffff1660e01b8152600401602060405180830381865afa158015611675573d6000803e3d6000fd5b505050506040513d601f19601f820116820180604052508101906116999190613416565b603680546001600160a01b0319166001600160a01b039283161790556035546040805163d21220a760e01b81529051919092169163d21220a79160048083019260209291908290030181865afa1580156116f7573d6000803e3d6000fd5b505050506040513d601f19601f8201168201806040525081019061171b9190613416565b603780546001600160a01b0319166001600160a01b03928316179055604080516060810182524380825260006020808401828152848601838152928052603e90915292517f5f97c64b3c4bdfff50b5c8f505e633128432c6b07fc6c8abc77dce786c7317d45591517f5f97c64b3c4bdfff50b5c8f505e633128432c6b07fc6c8abc77dce786c7317d55590517f5f97c64b3c4bdfff50b5c8f505e633128432c6b07fc6c8abc77dce786c7317d655603c805463ffffffff19166001179055603b55603554905163095ea7b360e01b8152730769fd68dfb93167989c6f7254cd0d766fb2841f6004820152600019602482015291169063095ea7b3906044016020604051808303816000875af1158015611838573d6000803e3d6000fd5b505050506040513d601f19601f8201168201806040525081019061185c91906134f8565b5060355460405163095ea7b360e01b81526000805160206136d4833981519152600482015260001960248201526001600160a01b039091169063095ea7b3906044016020604051808303816000875af11580156118bd573d6000803e3d6000fd5b505050506040513d601f19601f820116820180604052508101906118e191906134f8565b5060335460405163095ea7b360e01b81526000805160206136d4833981519152600482015260001960248201526001600160a01b039091169063095ea7b3906044016020604051808303816000875af1158015611942573d6000803e3d6000fd5b505050506040513d601f19601f8201168201806040525081019061196691906134f8565b5060365460405163095ea7b360e01b81526000805160206136d4833981519152600482015260001960248201526001600160a01b039091169063095ea7b3906044016020604051808303816000875af11580156119c7573d6000803e3d6000fd5b505050506040513d601f19601f820116820180604052508101906119eb91906134f8565b5060375460405163095ea7b360e01b81526000805160206136d4833981519152600482015260001960248201526001600160a01b039091169063095ea7b3906044016020604051808303816000875af1158015611a4c573d6000803e3d6000fd5b505050506040513d601f19601f82011682018060405250810190611a7091906134f8565b50508015611ab8576000805461ff0019169055604051600181527f7f26b83ff96e1f2b6a682f133852f6798a09c465da95921460cefb38474024989060200160405180910390a15b505050565b600080600060026001541415611ae55760405162461bcd60e51b81526004016102a290613079565b6002600155603f546001600160a01b03163314611b145760405162461bcd60e51b81526004016102a290613042565b60408051600280825260608083018452926000929190602083019080368337019050506036549091506001600160a01b0389811691161415611bc85760365481516001600160a01b03909116908290600090611b7257611b726130d5565b6001600160a01b039283166020918202929092010152603754825191169082906001908110611ba357611ba36130d5565b60200260200101906001600160a01b031690816001600160a01b031681525050611c3c565b60375481516001600160a01b03909116908290600090611bea57611bea6130d5565b6001600160a01b039283166020918202929092010152603654825191169082906001908110611c1b57611c1b6130d5565b60200260200101906001600160a01b031690816001600160a01b0316815250505b60006000805160206136d483398151915263d06ca61f611c5d60028d613124565b846040518363ffffffff1660e01b8152600401611c7b929190613559565b600060405180830381865afa158015611c98573d6000803e3d6000fd5b505050506040513d6000823e601f3d908101601f19168201604052611cc091908101906132f7565b90506000805160206136d48339815191526338ed1739611ce160028d613124565b83600181518110611cf457611cf46130d5565b60200260200101518530426040518663ffffffff1660e01b8152600401611d1f959493929190613572565b6000604051808303816000875af1158015611d3e573d6000803e3d6000fd5b505050506040513d6000823e601f3d908101601f19168201604052611d6691908101906132f7565b92505050600088118015611d945750600081600181518110611d8a57611d8a6130d5565b6020026020010151115b15611ec25760365460009081906001600160a01b038a811691161415611ded57611dbf60028b613124565b611dc9908b613197565b915082600181518110611dde57611dde6130d5565b60200260200101519050611e24565b82600181518110611e0057611e006130d5565b6020026020010151915060028a611e179190613124565b611e21908b613197565b90505b60365460375460405162e8e33760e81b81526000805160206136d48339815191529263e8e3370092611e75926001600160a01b03928316929091169087908790600090819030904290600401613334565b6060604051808303816000875af1158015611e94573d6000803e3d6000fd5b505050506040513d601f19601f82011682018060405250810190611eb8919061337d565b9197509550935050505b60008211611f0a5760405162461bcd60e51b81526020600482015260156024820152741393d7d3125455525112551657d41493d592511151605a1b60448201526064016102a2565b611f13856127d2565b6001600160a01b0385166000908152603d602052604081208054849290611f3b90849061302a565b925050819055508160396000828254611f54919061302a565b9091555050603854604051638dbdbe6d60e01b8152600481019190915260248101839052306044820152730769fd68dfb93167989c6f7254cd0d766fb2841f90638dbdbe6d90606401600060405180830381600087803b158015611fb757600080fd5b505af1158015611fcb573d6000803e3d6000fd5b5050603654600092508291506001600160a01b038a8116911614156120395785611ff660028c613124565b612000908c613197565b61200a9190613197565b91508483600181518110612020576120206130d5565b60200260200101516120329190613197565b9050612084565b858360018151811061204d5761204d6130d5565b602002602001015161205f9190613197565b91508461206d60028c613124565b612077908c613197565b6120819190613197565b90505b60365461209b906001600160a01b031689846128f7565b6037546120b2906001600160a01b031689836128f7565b505050600180819055509450945094915050565b600080600260015414156120ec5760405162461bcd60e51b81526004016102a290613079565b6002600155603f546001600160a01b0316331461211b5760405162461bcd60e51b81526004016102a290613042565b600088116121615760405162461bcd60e51b8152602060048201526013602482015272125394d551919250d251539517d05353d55395606a1b60448201526064016102a2565b61216a846127d2565b6001600160a01b0384166000908152603d60205260409020600281015489111561222357600281015481546000916121a19161302a565b9050808a11156121ea5760405162461bcd60e51b8152602060048201526014602482015273494e53554646494349454e545f42414c414e434560601b60448201526064016102a2565b6121f48a82613197565b825560028201546039548b916122099161302a565b6122139190613197565b603955506000600282015561223d565b888160020160008282546122379190613197565b90915550505b603854604051630ad58d2f60e01b81526004810191909152602481018a9052306044820152730769fd68dfb93167989c6f7254cd0d766fb2841f90630ad58d2f90606401600060405180830381600087803b15801561229b57600080fd5b505af11580156122af573d6000803e3d6000fd5b5050505085156122dd576035546122d0906001600160a01b0316858b6128f7565b600080925092505061238d565b603654603754604051635d5155ef60e11b81526001600160a01b0392831660048201529082166024820152604481018b9052606481018a90526084810189905290851660a48201524260c48201526000805160206136d48339815191529063baa2abde9060e40160408051808303816000875af1158015612362573d6000803e3d6000fd5b505050506040513d601f19601f8201168201806040525081019061238691906133f2565b9093509150505b600180559097909650945050505050565b6001600160a01b0381166000908152603d60209081526040808320815160a08101835281548152600182015493810193909352600281015491830191909152600381015463ffffffff908116606084018190526004909201546080840152603c54161415612410576040015192915050565b60608082015163ffffffff166000908152603e602090815260408083208151948501825280548086526001820154938601939093526002015490840152608084015161245b91613197565b835161246791906133ab565b8360200151612476919061302a565b90506000670de0b6b3a764000083602001518361249391906133ab565b61249d9190613124565b6040840151603c54919250600091670de0b6b3a76400009190603e9084906124cd9060019063ffffffff166130b0565b63ffffffff1663ffffffff168152602001908152602001600020600201546124f59190613197565b865161250191906133ab565b61250b9190613124565b90508082866040015161251e919061302a565b612528919061302a565b979650505050505050565b6001600160a01b03811615801590612561575060006125556020840184612dff565b6001600160a01b031614155b15611ab8576040516370a0823160e01b8152306004820152600090670de0b6b3a7640000906020850135906001600160a01b038516906370a0823190602401602060405180830381865afa1580156125bd573d6000803e3d6000fd5b505050506040513d601f19601f820116820180604052508101906125e1919061310b565b6125eb91906133ab565b6125f59190613124565b905080156127cc5736600061260a8680613146565b9092509050801580159061268757508181612626600182613197565b818110612635576126356130d5565b905060200201602081019061264a9190612dff565b6001600160a01b031682826000818110612666576126666130d5565b905060200201602081019061267b9190612dff565b6001600160a01b031614155b156127a857836001600160a01b0316828260008181106126a9576126a96130d5565b90506020020160208101906126be9190612dff565b6001600160a01b03161461270a5760405162461bcd60e51b81526020600482015260136024820152724241445f4645455f544f4b454e5f524f55544560681b60448201526064016102a2565b6000805160206136d48339815191526338ed1739846020808a01359086908690612736908c018c612dff565b426040518763ffffffff1660e01b8152600401612758969594939291906131ae565b6000604051808303816000875af1158015612777573d6000803e3d6000fd5b505050506040513d6000823e601f3d908101601f1916820160405261279f91908101906132f7565b50505050505050565b6127c96127b86020870187612dff565b6001600160a01b03861690856128f7565b50505b50505050565b6001600160a01b0381166000908152603d60205260409020603c54600382015463ffffffff9081169116141561283b5760048101546128119043613197565b815461281d91906133ab565b816001016000828254612830919061302a565b909155506128979050565b6128448261239e565b6002820155603c54603e906000906128649060019063ffffffff166130b0565b63ffffffff1681526020810191909152604001600020546128859043613197565b815461289191906133ab565b60018201555b603c5460038201805463ffffffff191663ffffffff9092169190911790554360048201819055603954603b5490916128cf9190613197565b6128d991906133ab565b603a60008282546128ea919061302a565b909155505043603b555050565b604080516001600160a01b038416602482015260448082018490528251808303909101815260649091019091526020810180516001600160e01b031663a9059cbb60e01b179052611ab8908490612b75565b60008054610100900460ff1615612990578160ff16600114801561296c5750303b155b6129885760405162461bcd60e51b81526004016102a2906135ae565b506000919050565b60005460ff8084169116106129b75760405162461bcd60e51b81526004016102a2906135ae565b506000805460ff191660ff92909216919091179055600190565b600054610100900460ff166129f85760405162461bcd60e51b81526004016102a2906135fc565b612a00612c47565b565b600080805b730769fd68dfb93167989c6f7254cd0d766fb2841f6001600160a01b031663081e3eda6040518163ffffffff1660e01b8152600401602060405180830381865afa158015612a59573d6000803e3d6000fd5b505050506040513d601f19601f82011682018060405250810190612a7d919061310b565b811015612b30576040516378ed5d1f60e01b8152600481018290526001600160a01b03851690730769fd68dfb93167989c6f7254cd0d766fb2841f906378ed5d1f90602401602060405180830381865afa158015612adf573d6000803e3d6000fd5b505050506040513d601f19601f82011682018060405250810190612b039190613416565b6001600160a01b03161415612b1e5780925060019150612b30565b80612b2881613647565b915050612a07565b5080612b6f5760405162461bcd60e51b815260206004820152600e60248201526d5049445f4e4f545f45584953545360901b60448201526064016102a2565b50919050565b6000612bca826040518060400160405280602081526020017f5361666545524332303a206c6f772d6c6576656c2063616c6c206661696c6564815250856001600160a01b0316612c749092919063ffffffff16565b805190915015611ab85780806020019051810190612be891906134f8565b611ab85760405162461bcd60e51b815260206004820152602a60248201527f5361666545524332303a204552433230206f7065726174696f6e20646964206e6044820152691bdd081cdd58d8d9595960b21b60648201526084016102a2565b600054610100900460ff16612c6e5760405162461bcd60e51b81526004016102a2906135fc565b60018055565b6060612c838484600085612c8d565b90505b9392505050565b606082471015612cee5760405162461bcd60e51b815260206004820152602660248201527f416464726573733a20696e73756666696369656e742062616c616e636520666f6044820152651c8818d85b1b60d21b60648201526084016102a2565b6001600160a01b0385163b612d455760405162461bcd60e51b815260206004820152601d60248201527f416464726573733a2063616c6c20746f206e6f6e2d636f6e747261637400000060448201526064016102a2565b600080866001600160a01b03168587604051612d61919061368e565b60006040518083038185875af1925050503d8060008114612d9e576040519150601f19603f3d011682016040523d82523d6000602084013e612da3565b606091505b509150915061252882828660608315612dbd575081612c86565b825115612dcd5782518084602001fd5b8160405162461bcd60e51b81526004016102a291906136a0565b6001600160a01b0381168114612dfc57600080fd5b50565b600060208284031215612e1157600080fd5b8135612c8681612de7565b60008060008385036080811215612e3257600080fd5b843567ffffffffffffffff80821115612e4a57600080fd5b818701915087608083011115612e5f57600080fd5b90945060208601359080821115612e7557600080fd5b50850160408101871015612e8857600080fd5b92506040603f1982011215612e9c57600080fd5b506040840190509250925092565b600080600080600080600060e0888a031215612ec557600080fd5b873596506020880135955060408801359450606088013593506080880135925060a0880135612ef381612de7565b915060c0880135612f0381612de7565b8091505092959891949750929550565b60008060408385031215612f2657600080fd5b8235612f3181612de7565b91506020830135612f4181612de7565b809150509250929050565b60008060008060808587031215612f6257600080fd5b843593506020850135612f7481612de7565b92506040850135612f8481612de7565b91506060850135612f9481612de7565b939692955090935050565b8015158114612dfc57600080fd5b60008060008060008060c08789031215612fc657600080fd5b8635955060208701359450604087013593506060870135612fe681612f9f565b92506080870135612ff681612de7565b915060a087013561300681612de7565b809150509295509295509295565b634e487b7160e01b600052601160045260246000fd5b6000821982111561303d5761303d613014565b500190565b60208082526017908201527f43414c4c45525f4e4f545f41535345545f524f55544552000000000000000000604082015260600190565b6020808252601f908201527f5265656e7472616e637947756172643a207265656e7472616e742063616c6c00604082015260600190565b600063ffffffff838116908316818110156130cd576130cd613014565b039392505050565b634e487b7160e01b600052603260045260246000fd5b60008235603e1983360301811261310157600080fd5b9190910192915050565b60006020828403121561311d57600080fd5b5051919050565b60008261314157634e487b7160e01b600052601260045260246000fd5b500490565b6000808335601e1984360301811261315d57600080fd5b83018035915067ffffffffffffffff82111561317857600080fd5b6020019150600581901b360382131561319057600080fd5b9250929050565b6000828210156131a9576131a9613014565b500390565b868152602080820187905260a0604083018190528201859052600090869060c08401835b888110156132005783356131e581612de7565b6001600160a01b0316825292820192908201906001016131d2565b506001600160a01b0396909616606085015250505060800152949350505050565b634e487b7160e01b600052604160045260246000fd5b604051601f8201601f1916810167ffffffffffffffff8111828210171561326057613260613221565b604052919050565b600067ffffffffffffffff82111561328257613282613221565b5060051b60200190565b600082601f83011261329d57600080fd5b815160206132b26132ad83613268565b613237565b82815260059290921b840181019181810190868411156132d157600080fd5b8286015b848110156132ec57805183529183019183016132d5565b509695505050505050565b60006020828403121561330957600080fd5b815167ffffffffffffffff81111561332057600080fd5b61332c8482850161328c565b949350505050565b6001600160a01b039889168152968816602088015260408701959095526060860193909352608085019190915260a084015290921660c082015260e08101919091526101000190565b60008060006060848603121561339257600080fd5b8351925060208401519150604084015190509250925092565b60008160001904831182151516156133c5576133c5613014565b500290565b600063ffffffff8083168185168083038211156133e9576133e9613014565b01949350505050565b6000806040838503121561340557600080fd5b505080516020909101519092909150565b60006020828403121561342857600080fd5b8151612c8681612de7565b6000806040838503121561344657600080fd5b825167ffffffffffffffff8082111561345e57600080fd5b818501915085601f83011261347257600080fd5b815160206134826132ad83613268565b82815260059290921b840181019181810190898411156134a157600080fd5b948201945b838610156134c85785516134b981612de7565b825294820194908201906134a6565b918801519196509093505050808211156134e157600080fd5b506134ee8582860161328c565b9150509250929050565b60006020828403121561350a57600080fd5b8151612c8681612f9f565b600081518084526020808501945080840160005b8381101561354e5781516001600160a01b031687529582019590820190600101613529565b509495945050505050565b828152604060208201526000612c836040830184613515565b85815284602082015260a06040820152600061359160a0830186613515565b6001600160a01b0394909416606083015250608001529392505050565b6020808252602e908201527f496e697469616c697a61626c653a20636f6e747261637420697320616c72656160408201526d191e481a5b9a5d1a585b1a5e995960921b606082015260800190565b6020808252602b908201527f496e697469616c697a61626c653a20636f6e7472616374206973206e6f74206960408201526a6e697469616c697a696e6760a81b606082015260800190565b600060001982141561365b5761365b613014565b5060010190565b60005b8381101561367d578181015183820152602001613665565b838111156127cc5750506000910152565b60008251613101818460208701613662565b60208152600082518060208401526136bf816040850160208701613662565b601f01601f1916919091016040019291505056fe0000000000000000000000001b02da8cb0d097eb8d57a175b88c7d8b47997506a2646970667358221220a769a22327b9d6219a6d44e2756b898e4755f86ce9d449cea7b2ebef7a3a69fb64736f6c634300080a0033",
  "immutableReferences": {},
  "source": "// SPDX-License-Identifier: MIT\r\npragma solidity 0.8.10;\r\n \r\nimport '../../interfaces/IUniswapV2Pair.sol';\r\nimport '../../interfaces/IUniswapV2Router.sol';\r\nimport '../../interfaces/IMiniChefV2.sol';\r\nimport '../../interfaces/IRewarder.sol';\r\nimport '@openzeppelin/contracts-upgradeable/security/ReentrancyGuardUpgradeable.sol';\r\nimport '@openzeppelin/contracts-upgradeable/token/ERC20/utils/SafeERC20Upgradeable.sol';\r\nimport '@openzeppelin/contracts-upgradeable/token/ERC20/IERC20Upgradeable.sol';\r\nimport '@openzeppelin/contracts-upgradeable/proxy/utils/Initializable.sol';\r\n\r\ncontract UnoFarmSushiswap is Initializable, ReentrancyGuardUpgradeable {\r\n    using SafeERC20Upgradeable for IERC20Upgradeable;\r\n    /**\r\n     * @dev DistributionInfo:\r\n     * {block} - Distribution block number.\r\n     * {rewardPerDepositAge} - Distribution reward divided by {totalDepositAge}. \r\n     * {cumulativeRewardAgePerDepositAge} - Sum of {rewardPerDepositAge}s multiplied by distribution interval.\r\n     */\r\n    struct DistributionInfo {\r\n        uint256 block;\r\n        uint256 rewardPerDepositAge;\r\n        uint256 cumulativeRewardAgePerDepositAge;\r\n    }\r\n    /**\r\n     * @dev UserInfo:\r\n     * {stake} - Amount of LP tokens deposited by the user.\r\n     * {depositAge} - User deposits multiplied by blocks the deposit has been in. \r\n     * {reward} - Amount of LP tokens entitled to the user.\r\n     * {lastDistribution} - Distribution ID before the last user deposit.\r\n     * {lastUpdate} - Deposit update block.\r\n     */\r\n    struct UserInfo {\r\n        uint256 stake;\r\n        uint256 depositAge;\r\n        uint256 reward;\r\n        uint32 lastDistribution;\r\n        uint256 lastUpdate;\r\n    }\r\n    /**\r\n     * @dev SwapInfo:\r\n     * {route} - Array of token addresses describing swap routes.\r\n     * {amountOutMin} - The minimum amount of output token that must be received for the transaction not to revert.\r\n     */\r\n    struct SwapInfo{\r\n        address[] route;\r\n        uint256 amountOutMin;\r\n    }\r\n    /**\r\n     * @dev FeeInfo:\r\n     * {feeCollector} - Contract to transfer fees to.\r\n     * {fee} - Fee percentage to collect (10^18 == 100%). \r\n     */\r\n    struct FeeInfo {\r\n        address feeTo;\r\n        uint256 fee;\r\n    }\r\n\r\n    /**\r\n     * @dev Tokens Used:\r\n     * {rewardToken} - Token generated by staking (SUSHI).\r\n     * {rewarderToken} - Token generated by ComplexRewarderTime contract.\r\n     * {lpPair} - Token that the strategy maximizes. The same token that users deposit in the {MiniChef}.\r\n     * {tokenA, tokenB} - Tokens that the strategy maximizes.\r\n     */\r\n    address public rewardToken;\r\n    address public rewarderToken;\r\n    address public lpPair;\r\n    address public tokenA;\r\n    address public tokenB;\r\n\r\n    /**\r\n     * @dev Third Party Contracts:\r\n     * {sushiswapRouter} - The contract that executes swaps.\r\n     * {MiniChef} -The contract that distibutes {rewardToken}.\r\n     */\r\n    IUniswapV2Router01 private constant sushiswapRouter = IUniswapV2Router01(0x1b02dA8Cb0d097eB8D57A175b88c7D8b47997506);\r\n    IMiniChefV2 private constant MiniChef = IMiniChefV2(0x0769fd68dFb93167989C6f7254cd0D766Fb2841F);\r\n\r\n    /**\r\n     * @dev Contract Variables:\r\n     * {pid} - Pool ID.\r\n\r\n     * {totalDeposits} - Total deposits made by users.\r\n     * {totalDepositAge} - Deposits multiplied by blocks the deposit has been in. Flushed every reward distribution.\r\n     * {totalDepositLastUpdate} - Last {totalDepositAge} update block.\r\n\r\n     * {distributionID} - Current distribution ID.\r\n     * {userInfo} - Info on each user.\r\n     * {distributionInfo} - Info on each distribution.\r\n\r\n     * {fractionMultiplier} - Used to store decimal values.\r\n     */\r\n    uint256 public pid;\r\n\r\n    uint256 private totalDeposits;\r\n    uint256 private totalDepositAge;\r\n    uint256 private totalDepositLastUpdate;\r\n\r\n    uint32 private distributionID;\r\n    mapping(address => UserInfo) private userInfo;\r\n    mapping(uint32 => DistributionInfo) private distributionInfo;\r\n\r\n    uint256 private constant fractionMultiplier = uint256(1 ether);\r\n\r\n    /**\r\n     * @dev Contract Variables:\r\n     * {assetRouter} - The contract from which calls to this farm are made.\r\n     */\r\n    address public assetRouter;\r\n    modifier onlyAssetRouter(){\r\n        require(msg.sender == assetRouter, 'CALLER_NOT_ASSET_ROUTER');\r\n        _;\r\n    }\r\n\r\n    // ============ Methods ============\r\n\r\n    function initialize(address _lpPair, address _assetRouter) external initializer {\r\n        require (_lpPair != address(0), 'BAD_LP_POOL');\r\n        require (_assetRouter != address(0), 'BAD_ASSET_ROUTER');\r\n\r\n        __ReentrancyGuard_init();\r\n        assetRouter = _assetRouter;\r\n\r\n        pid = getPid(_lpPair);\r\n        lpPair = _lpPair;\r\n\r\n        rewardToken = MiniChef.SUSHI();\r\n\r\n        address Rewarder = MiniChef.rewarder(pid);\r\n        if (Rewarder != address(0)) {\r\n            (IERC20[] memory rewarderTokenArray, ) = IRewarder(Rewarder).pendingTokens(pid, address(0), 0);\r\n            rewarderToken = address(rewarderTokenArray[0]);\r\n            IERC20(rewarderToken).approve(address(sushiswapRouter), type(uint256).max);\r\n        }\r\n\r\n        tokenA = IUniswapV2Pair(lpPair).token0();\r\n        tokenB = IUniswapV2Pair(lpPair).token1();\r\n\r\n        distributionInfo[0] = DistributionInfo({\r\n            block: block.number,\r\n            rewardPerDepositAge: 0,\r\n            cumulativeRewardAgePerDepositAge: 0\r\n        });\r\n        distributionID = 1;\r\n        totalDepositLastUpdate = block.number;\r\n\r\n        IERC20(lpPair).approve(address(MiniChef), type(uint256).max);\r\n        IERC20(lpPair).approve(address(sushiswapRouter), type(uint256).max);\r\n        IERC20(rewardToken).approve(address(sushiswapRouter), type(uint256).max);\r\n        IERC20(tokenA).approve(address(sushiswapRouter), type(uint256).max);\r\n        IERC20(tokenB).approve(address(sushiswapRouter), type(uint256).max);\r\n    }\r\n    /**\r\n     * @dev Function that makes the deposits with single asset.\r\n     * Deposits provided tokens in the Liquidity Pool, then stakes generated LP tokens in the {lpStakingPool}.\r\n     */\r\n       function depositSingleAsset(uint256 amount, address token, address origin, address recipient) external nonReentrant onlyAssetRouter returns(uint256 sentA, uint256 sentB, uint256 addedLiquidity){\r\n        uint256[] memory amountSwapped;\r\n        {\r\n            address[] memory path = new address[](2);\r\n            if (token == tokenA) {\r\n                path[0] = tokenA;\r\n                path[1] = tokenB;\r\n            } else {\r\n                path[0] = tokenB;\r\n                path[1] = tokenA;\r\n            }\r\n            uint256[] memory amountsOut = sushiswapRouter.getAmountsOut(amount/2, path);\r\n            amountSwapped = sushiswapRouter.swapExactTokensForTokens(\r\n                amount/2,\r\n                amountsOut[1],\r\n                path,\r\n                address(this),\r\n                block.timestamp);\r\n        }\r\n        if(amount > 0 && amountSwapped[1] > 0){\r\n            uint256 tokenAAmount;\r\n            uint256 tokenBAmount;\r\n            if (token == tokenA) {\r\n                tokenAAmount = amount - amount / 2;\r\n                tokenBAmount = amountSwapped[1];\r\n            } else {\r\n                tokenAAmount = amountSwapped[1];\r\n                tokenBAmount = amount - amount / 2;\r\n            }\r\n            (sentA, sentB, addedLiquidity) = sushiswapRouter.addLiquidity(tokenA, tokenB, tokenAAmount, tokenBAmount, 0, 0, address(this), block.timestamp);\r\n        }\r\n        require(addedLiquidity > 0, 'NO_LIQUIDITY_PROVIDED');\r\n\r\n        _updateDeposit(recipient);\r\n        userInfo[recipient].stake += addedLiquidity;\r\n        totalDeposits += addedLiquidity;\r\n            \r\n        MiniChef.deposit(pid, addedLiquidity, address(this));\r\n        uint256 tokenAAmountSurplus;\r\n        uint256 tokenBAmountSurplus;\r\n         if (token == tokenA) {\r\n            tokenAAmountSurplus = amount - amount/2 - sentA;\r\n            tokenBAmountSurplus = amountSwapped[1] - sentB;\r\n         } else {\r\n           tokenAAmountSurplus = amountSwapped[1] - sentA;\r\n           tokenBAmountSurplus = amount - amount/2 - sentB;\r\n         }\r\n        IERC20Upgradeable(tokenA).safeTransfer(origin, tokenAAmountSurplus);\r\n        IERC20Upgradeable(tokenB).safeTransfer(origin, tokenBAmountSurplus);\r\n    }\r\n    /**\r\n     * @dev Function that makes the deposits.\r\n     * Deposits provided tokens in the Liquidity Pool, then stakes generated LP tokens in the {MiniChef}.\r\n     */\r\n    function deposit(uint256 amountA, uint256 amountB, uint256 amountAMin, uint256 amountBMin, uint256 amountLP, address origin, address recipient) external nonReentrant onlyAssetRouter returns(uint256 sentA, uint256 sentB, uint256 liquidity){\r\n        uint256 addedLiquidity;\r\n        if(amountA > 0 && amountB > 0){\r\n            (sentA, sentB, addedLiquidity) = sushiswapRouter.addLiquidity(tokenA, tokenB, amountA, amountB, amountAMin, amountBMin, address(this), block.timestamp);\r\n        }\r\n        liquidity = addedLiquidity + amountLP;\r\n        require(liquidity > 0, 'NO_LIQUIDITY_PROVIDED');\r\n\r\n        _updateDeposit(recipient);\r\n        userInfo[recipient].stake += liquidity;\r\n        totalDeposits += liquidity;\r\n            \r\n        MiniChef.deposit(pid, liquidity, address(this));\r\n        IERC20Upgradeable(tokenA).safeTransfer(origin, amountA - sentA);\r\n        IERC20Upgradeable(tokenB).safeTransfer(origin, amountB - sentB);\r\n    }\r\n    \r\n    /**\r\n     * @dev Withdraws funds from {origin} and sends them to the {recipient}.\r\n     */\r\n    function withdraw(uint256 amount, uint256 amountAMin, uint256 amountBMin, bool withdrawLP, address origin, address recipient) external nonReentrant onlyAssetRouter returns(uint256 amountA, uint256 amountB){\r\n        require(amount > 0, 'INSUFFICIENT_AMOUNT');\r\n\r\n        _updateDeposit(origin);\r\n        UserInfo storage user = userInfo[origin];\r\n        // Subtract amount from user.reward first, then subtract remainder from user.stake.\r\n        if(amount > user.reward){\r\n            uint256 balance = user.stake + user.reward;\r\n            require(amount <= balance, 'INSUFFICIENT_BALANCE');\r\n            user.stake = balance - amount;\r\n            totalDeposits = totalDeposits + user.reward - amount;\r\n            user.reward = 0;\r\n        } else {\r\n            user.reward -= amount;\r\n        }\r\n\r\n        MiniChef.withdraw(pid, amount, address(this));\r\n        if(withdrawLP){\r\n            IERC20Upgradeable(lpPair).safeTransfer(recipient, amount);\r\n            return (0, 0);\r\n        }\r\n        (amountA, amountB) = sushiswapRouter.removeLiquidity(tokenA, tokenB, amount, amountAMin, amountBMin, recipient, block.timestamp);\r\n    }\r\n\r\n    /**\r\n     * @dev Core function of the strat, in charge of updating, collecting and re-investing rewards.\r\n     * 1. It claims rewards from the {MiniChef}.\r\n     * 2. It swaps {rewardToken} token for {tokenA} & {tokenB}.\r\n     * 3. It deposits new LP tokens back to the {MiniChef}.\r\n     */\r\n    function distribute(\r\n        SwapInfo[4] calldata swapInfos,\r\n        SwapInfo[2] calldata feeSwapInfos,\r\n        FeeInfo calldata feeInfo\r\n    ) external onlyAssetRouter nonReentrant returns(uint256 reward){\r\n        require(totalDeposits > 0, 'NO_LIQUIDITY');\r\n        require(distributionInfo[distributionID - 1].block != block.number, 'CANT_CALL_ON_THE_SAME_BLOCK');\r\n\r\n        MiniChef.harvest(pid, address(this));\r\n\r\n        collectFees(feeSwapInfos[0], feeInfo, IERC20Upgradeable(rewardToken));\r\n        collectFees(feeSwapInfos[1], feeInfo, IERC20Upgradeable(rewarderToken));\r\n        { // scope to avoid stack too deep errors\r\n        uint256 rewardTokenHalf = IERC20(rewardToken).balanceOf(address(this)) / 2;\r\n        uint256 rewarderTokenHalf;\r\n        if (rewarderToken != address(0)) {\r\n            rewarderTokenHalf = IERC20(rewarderToken).balanceOf(address(this)) / 2;\r\n        }\r\n        \r\n        if (rewardTokenHalf > 0) {\r\n            if (tokenA != rewardToken) {\r\n                address[] calldata route = swapInfos[0].route;\r\n                require(route[0] == rewardToken && route[route.length - 1] == tokenA, 'BAD_REWARD_TOKEN_A_ROUTE');\r\n                sushiswapRouter.swapExactTokensForTokens(rewardTokenHalf, swapInfos[0].amountOutMin, route, address(this), block.timestamp);\r\n            }\r\n\r\n            if (tokenB != rewardToken) {\r\n                address[] calldata route = swapInfos[1].route;\r\n                require(route[0] == rewardToken && route[route.length - 1] == tokenB, 'BAD_REWARD_TOKEN_B_ROUTE');\r\n                sushiswapRouter.swapExactTokensForTokens(rewardTokenHalf, swapInfos[1].amountOutMin, route, address(this), block.timestamp);\r\n            }\r\n        }\r\n        \r\n        if (rewarderTokenHalf > 0) {\r\n            if (tokenA != rewarderToken) {\r\n                address[] calldata route = swapInfos[2].route;\r\n                require(route[0] == rewarderToken && route[route.length - 1] == tokenA, 'BAD_REWARDER_TOKEN_A_ROUTE');\r\n                sushiswapRouter.swapExactTokensForTokens(rewarderTokenHalf, swapInfos[2].amountOutMin, route, address(this), block.timestamp);\r\n            }\r\n\r\n            if (tokenB != rewarderToken) {\r\n                address[] calldata route = swapInfos[3].route;\r\n                require(route[0] == rewarderToken && route[route.length - 1] == tokenB, 'BAD_REWARDER_TOKEN_B_ROUTE');\r\n                sushiswapRouter.swapExactTokensForTokens(rewarderTokenHalf, swapInfos[3].amountOutMin, route, address(this), block.timestamp);\r\n            }\r\n        }\r\n        }\r\n\r\n        (,,reward) = sushiswapRouter.addLiquidity(tokenA, tokenB, IERC20(tokenA).balanceOf(address(this)), IERC20(tokenB).balanceOf(address(this)), swapInfos[0].amountOutMin + swapInfos[2].amountOutMin, swapInfos[1].amountOutMin + swapInfos[3].amountOutMin, address(this), block.timestamp);\r\n        \r\n        uint256 rewardPerDepositAge = reward * fractionMultiplier / (totalDepositAge + totalDeposits * (block.number - totalDepositLastUpdate));\r\n        uint256 cumulativeRewardAgePerDepositAge = distributionInfo[distributionID - 1].cumulativeRewardAgePerDepositAge + rewardPerDepositAge * (block.number - distributionInfo[distributionID - 1].block);\r\n\r\n        distributionInfo[distributionID] = DistributionInfo({\r\n            block: block.number,\r\n            rewardPerDepositAge: rewardPerDepositAge,\r\n            cumulativeRewardAgePerDepositAge: cumulativeRewardAgePerDepositAge\r\n        });\r\n\r\n        distributionID += 1;\r\n        totalDepositLastUpdate = block.number;\r\n        totalDepositAge = 0;\r\n            \r\n        MiniChef.deposit(pid, reward, address(this));\r\n    }\r\n    \r\n    /**\r\n     * @dev Swaps and sends fees to feeTo.\r\n     */\r\n    function collectFees(SwapInfo calldata feeSwapInfo, FeeInfo calldata feeInfo, IERC20Upgradeable token) internal {\r\n        if(address(token) != address(0) && feeInfo.feeTo != address(0)){\r\n            uint256 feeAmount = token.balanceOf(address(this)) * feeInfo.fee / fractionMultiplier;\r\n            if(feeAmount > 0){\r\n                address[] calldata route = feeSwapInfo.route;\r\n                if(route.length > 0 && route[0] != route[route.length - 1]){\r\n                    require(route[0] == address(token), 'BAD_FEE_TOKEN_ROUTE');\r\n                    sushiswapRouter.swapExactTokensForTokens(feeAmount, feeSwapInfo.amountOutMin, route, feeInfo.feeTo, block.timestamp);\r\n                    return;\r\n                }\r\n                token.safeTransfer(feeInfo.feeTo, feeAmount);\r\n            }\r\n        }\r\n    }\r\n\r\n    /**\r\n     * @dev Returns total funds staked by the {_address}.\r\n     */\r\n    function userBalance(address _address) external view returns (uint256) {\r\n        return userInfo[_address].stake + userReward(_address);\r\n    }\r\n\r\n    /**\r\n     * @dev Returns total funds locked in the farm.\r\n     */\r\n    function getTotalDeposits() external view returns (uint256 _totalDeposits) {\r\n        if(totalDeposits > 0){\r\n            (_totalDeposits,) = MiniChef.userInfo(pid, address(this));\r\n        }\r\n    }\r\n    \r\n    function _updateDeposit(address _address) internal {\r\n        UserInfo storage user = userInfo[_address];\r\n        // Accumulate deposit age within the current distribution period.\r\n        if (user.lastDistribution == distributionID) {\r\n            // Add deposit age from previous deposit age update to now.\r\n            user.depositAge += user.stake * (block.number - user.lastUpdate);\r\n        } else {\r\n            // A reward has been distributed, update user.reward.\r\n            user.reward = userReward(_address);\r\n            // Count fresh deposit age from previous reward distribution to now.\r\n            user.depositAge = user.stake * (block.number - distributionInfo[distributionID - 1].block);\r\n        }\r\n\r\n        user.lastDistribution = distributionID;\r\n        user.lastUpdate = block.number;\r\n\r\n        // Same with total deposit age.\r\n        totalDepositAge += (block.number - totalDepositLastUpdate) * totalDeposits;\r\n        totalDepositLastUpdate = block.number;\r\n    }\r\n\r\n    function userReward(address _address) internal view returns (uint256) {\r\n        UserInfo memory user = userInfo[_address];\r\n        if (user.lastDistribution == distributionID) {\r\n            // Return user.reward if the distribution after the last user deposit did not happen yet.\r\n            return user.reward;\r\n        }\r\n        DistributionInfo memory lastUserDistributionInfo = distributionInfo[user.lastDistribution];\r\n        uint256 userDepositAge = user.depositAge + user.stake * (lastUserDistributionInfo.block - user.lastUpdate);\r\n        // Calculate reward between the last user deposit and the distribution after that.\r\n        uint256 rewardBeforeDistibution = userDepositAge * lastUserDistributionInfo.rewardPerDepositAge / fractionMultiplier;\r\n        // Calculate reward from the distributions that have happened after the last user deposit.\r\n        uint256 rewardAfterDistribution = user.stake * (distributionInfo[distributionID - 1].cumulativeRewardAgePerDepositAge - lastUserDistributionInfo.cumulativeRewardAgePerDepositAge) / fractionMultiplier;\r\n        return user.reward + rewardBeforeDistibution + rewardAfterDistribution;\r\n    }\r\n\r\n    /**\r\n     * @dev Get pid by iterating over all pools and comparing pids.\r\n     */\r\n    function getPid(address _lpPair) internal view returns (uint256 _pid) {\r\n        bool poolExists = false;\r\n        for (uint256 i = 0; i < MiniChef.poolLength(); i++) {\r\n            if (MiniChef.lpToken(i) == _lpPair) {\r\n                _pid = i;\r\n                poolExists = true;\r\n                break;\r\n            }\r\n        }\r\n        require(poolExists, 'PID_NOT_EXISTS');\r\n        return _pid;\r\n    }\r\n}\r\n",
  "sourcePath": "C:\\Users\\nick_\\OneDrive\\\\UNO\\Solidity\\autostrats_balancer\\uno-contracts\\contracts\\apps\\sushiswap\\UnoFarmSushiswap.sol",
  "compiler": {
    "name": "solc",
    "version": "0.8.10+commit.fc410830.Emscripten.clang"
  },
  "schemaVersion": "3.4.10",
  "updatedAt": "2022-10-27T13:21:55.545Z",
  "devdoc": {
    "kind": "dev",
    "methods": {
      "deposit(uint256,uint256,uint256,uint256,uint256,address,address)": {
        "details": "Function that makes the deposits. Deposits provided tokens in the Liquidity Pool, then stakes generated LP tokens in the {MiniChef}."
      },
      "depositSingleAsset(uint256,address,address,address)": {
        "details": "Function that makes the deposits with single asset. Deposits provided tokens in the Liquidity Pool, then stakes generated LP tokens in the {lpStakingPool}."
      },
      "distribute((address[],uint256)[4],(address[],uint256)[2],(address,uint256))": {
        "details": "Core function of the strat, in charge of updating, collecting and re-investing rewards. 1. It claims rewards from the {MiniChef}. 2. It swaps {rewardToken} token for {tokenA} & {tokenB}. 3. It deposits new LP tokens back to the {MiniChef}."
      },
      "getTotalDeposits()": {
        "details": "Returns total funds locked in the farm."
      },
      "userBalance(address)": {
        "details": "Returns total funds staked by the {_address}."
      },
      "withdraw(uint256,uint256,uint256,bool,address,address)": {
        "details": "Withdraws funds from {origin} and sends them to the {recipient}."
      }
    },
    "stateVariables": {
      "assetRouter": {
        "details": "Contract Variables: {assetRouter} - The contract from which calls to this farm are made."
      },
      "pid": {
        "details": "Contract Variables: {pid} - Pool ID. {totalDeposits} - Total deposits made by users. {totalDepositAge} - Deposits multiplied by blocks the deposit has been in. Flushed every reward distribution. {totalDepositLastUpdate} - Last {totalDepositAge} update block. {distributionID} - Current distribution ID. {userInfo} - Info on each user. {distributionInfo} - Info on each distribution. {fractionMultiplier} - Used to store decimal values."
      },
      "rewardToken": {
        "details": "Tokens Used: {rewardToken} - Token generated by staking (SUSHI). {rewarderToken} - Token generated by ComplexRewarderTime contract. {lpPair} - Token that the strategy maximizes. The same token that users deposit in the {MiniChef}. {tokenA, tokenB} - Tokens that the strategy maximizes."
      },
      "sushiswapRouter": {
        "details": "Third Party Contracts: {sushiswapRouter} - The contract that executes swaps. {MiniChef} -The contract that distibutes {rewardToken}."
      }
    },
    "version": 1
  },
  "userdoc": {
    "kind": "user",
    "methods": {},
    "version": 1
  }
}