{
  "contractName": "UnoFarmTraderjoe",
  "abi": [
    {
      "anonymous": false,
      "inputs": [
        {
          "indexed": false,
          "internalType": "uint8",
          "name": "version",
          "type": "uint8"
        }
      ],
      "name": "Initialized",
      "type": "event"
    },
    {
      "inputs": [],
      "name": "assetRouter",
      "outputs": [
        {
          "internalType": "address",
          "name": "",
          "type": "address"
        }
      ],
      "stateMutability": "view",
      "type": "function",
      "constant": true
    },
    {
      "inputs": [],
      "name": "lpPair",
      "outputs": [
        {
          "internalType": "address",
          "name": "",
          "type": "address"
        }
      ],
      "stateMutability": "view",
      "type": "function",
      "constant": true
    },
    {
      "inputs": [],
      "name": "pid",
      "outputs": [
        {
          "internalType": "uint256",
          "name": "",
          "type": "uint256"
        }
      ],
      "stateMutability": "view",
      "type": "function",
      "constant": true
    },
    {
      "inputs": [],
      "name": "rewardToken",
      "outputs": [
        {
          "internalType": "address",
          "name": "",
          "type": "address"
        }
      ],
      "stateMutability": "view",
      "type": "function",
      "constant": true
    },
    {
      "inputs": [],
      "name": "tokenA",
      "outputs": [
        {
          "internalType": "address",
          "name": "",
          "type": "address"
        }
      ],
      "stateMutability": "view",
      "type": "function",
      "constant": true
    },
    {
      "inputs": [],
      "name": "tokenB",
      "outputs": [
        {
          "internalType": "address",
          "name": "",
          "type": "address"
        }
      ],
      "stateMutability": "view",
      "type": "function",
      "constant": true
    },
    {
      "inputs": [
        {
          "internalType": "address",
          "name": "_lpPair",
          "type": "address"
        },
        {
          "internalType": "address",
          "name": "_assetRouter",
          "type": "address"
        }
      ],
      "name": "initialize",
      "outputs": [],
      "stateMutability": "nonpayable",
      "type": "function"
    },
    {
      "inputs": [
        {
          "internalType": "uint256",
          "name": "amountA",
          "type": "uint256"
        },
        {
          "internalType": "uint256",
          "name": "amountB",
          "type": "uint256"
        },
        {
          "internalType": "uint256",
          "name": "amountAMin",
          "type": "uint256"
        },
        {
          "internalType": "uint256",
          "name": "amountBMin",
          "type": "uint256"
        },
        {
          "internalType": "uint256",
          "name": "amountLP",
          "type": "uint256"
        },
        {
          "internalType": "address",
          "name": "origin",
          "type": "address"
        },
        {
          "internalType": "address",
          "name": "recipient",
          "type": "address"
        }
      ],
      "name": "deposit",
      "outputs": [
        {
          "internalType": "uint256",
          "name": "sentA",
          "type": "uint256"
        },
        {
          "internalType": "uint256",
          "name": "sentB",
          "type": "uint256"
        },
        {
          "internalType": "uint256",
          "name": "liquidity",
          "type": "uint256"
        }
      ],
      "stateMutability": "nonpayable",
      "type": "function"
    },
    {
      "inputs": [
        {
          "internalType": "uint256",
          "name": "amount",
          "type": "uint256"
        },
        {
          "internalType": "uint256",
          "name": "amountAMin",
          "type": "uint256"
        },
        {
          "internalType": "uint256",
          "name": "amountBMin",
          "type": "uint256"
        },
        {
          "internalType": "bool",
          "name": "withdrawLP",
          "type": "bool"
        },
        {
          "internalType": "address",
          "name": "origin",
          "type": "address"
        },
        {
          "internalType": "address",
          "name": "recipient",
          "type": "address"
        }
      ],
      "name": "withdraw",
      "outputs": [
        {
          "internalType": "uint256",
          "name": "amountA",
          "type": "uint256"
        },
        {
          "internalType": "uint256",
          "name": "amountB",
          "type": "uint256"
        }
      ],
      "stateMutability": "nonpayable",
      "type": "function"
    },
    {
      "inputs": [
        {
          "components": [
            {
              "internalType": "address[]",
              "name": "route",
              "type": "address[]"
            },
            {
              "internalType": "uint256",
              "name": "amountOutMin",
              "type": "uint256"
            }
          ],
          "internalType": "struct UnoFarmTraderjoe.SwapInfo[2]",
          "name": "swapInfos",
          "type": "tuple[2]"
        },
        {
          "components": [
            {
              "internalType": "address[]",
              "name": "route",
              "type": "address[]"
            },
            {
              "internalType": "uint256",
              "name": "amountOutMin",
              "type": "uint256"
            }
          ],
          "internalType": "struct UnoFarmTraderjoe.SwapInfo",
          "name": "feeSwapInfo",
          "type": "tuple"
        },
        {
          "components": [
            {
              "internalType": "address",
              "name": "feeTo",
              "type": "address"
            },
            {
              "internalType": "uint256",
              "name": "fee",
              "type": "uint256"
            }
          ],
          "internalType": "struct UnoFarmTraderjoe.FeeInfo",
          "name": "feeInfo",
          "type": "tuple"
        }
      ],
      "name": "distribute",
      "outputs": [
        {
          "internalType": "uint256",
          "name": "reward",
          "type": "uint256"
        }
      ],
      "stateMutability": "nonpayable",
      "type": "function"
    },
    {
      "inputs": [
        {
          "internalType": "address",
          "name": "_address",
          "type": "address"
        }
      ],
      "name": "userBalance",
      "outputs": [
        {
          "internalType": "uint256",
          "name": "",
          "type": "uint256"
        }
      ],
      "stateMutability": "view",
      "type": "function",
      "constant": true
    },
    {
      "inputs": [],
      "name": "getTotalDeposits",
      "outputs": [
        {
          "internalType": "uint256",
          "name": "_totalDeposits",
          "type": "uint256"
        }
      ],
      "stateMutability": "view",
      "type": "function",
      "constant": true
    }
  ],
  "bytecode": "0x608060405234801561001057600080fd5b50612963806100206000396000f3fe608060405234801561001057600080fd5b50600436106100b45760003560e01c8063485cc95511610071578063485cc955146101665780635f64b55b1461017b578063bc0aac101461018e578063d5634683146101a1578063f1068454146101c9578063f7c618c1146101d257600080fd5b80630103c92b146100b95780630fc63d10146100df5780631666768a1461010a578063168a48221461013857806336eeb1dd14610140578063452ed4f114610153575b600080fd5b6100cc6100c7366004612197565b6101e5565b6040519081526020015b60405180910390f35b6035546100f2906001600160a01b031681565b6040516001600160a01b0390911681526020016100d6565b61011d6101183660046121b4565b610219565b604080519384526020840192909252908201526060016100d6565b6100cc6104bd565b6100cc61014e36600461222f565b61054c565b6034546100f2906001600160a01b031681565b6101796101743660046122ad565b610e2b565b005b6036546100f2906001600160a01b031681565b603e546100f2906001600160a01b031681565b6101b46101af3660046122f4565b61145a565b604080519283526020830191909152016100d6565b6100cc60375481565b6033546100f2906001600160a01b031681565b60006101f082611731565b6001600160a01b0383166000908152603c60205260409020546102139190612371565b92915050565b60008060006002600154036102495760405162461bcd60e51b815260040161024090612384565b60405180910390fd5b6002600155603e546001600160a01b031633146102785760405162461bcd60e51b8152600401610240906123bb565b6000808b118015610289575060008a115b15610351577360ae616a2155ee3d9a68541ba4544862310933d46001600160a01b031663e8e33700603560009054906101000a90046001600160a01b0316603660009054906101000a90046001600160a01b03168e8e8e8e30426040518963ffffffff1660e01b81526004016103069897969594939291906123f2565b6060604051808303816000875af1158015610325573d6000803e3d6000fd5b505050506040513d601f19601f82011682018060405250810190610349919061243b565b919550935090505b61035b8782612371565b9150600082116103a55760405162461bcd60e51b81526020600482015260156024820152741393d7d3125455525112551657d41493d592511151605a1b6044820152606401610240565b6103ae856118c6565b6001600160a01b0385166000908152603c6020526040812080548492906103d6908490612371565b9250508190555081603860008282546103ef9190612371565b9091555050603754604051631c57762b60e31b8152600481019190915260248101839052734483f0b6e2f5486d06958c20f8c39a7abe87bf8f9063e2bbb15890604401600060405180830381600087803b15801561044c57600080fd5b505af1158015610460573d6000803e3d6000fd5b5050505061048786858d6104749190612469565b6035546001600160a01b031691906119ea565b6104a886610495858d612469565b6036546001600160a01b031691906119ea565b50600180819055509750975097945050505050565b60385460009015610549576037546040516393f1a40b60e01b81526004810191909152306024820152734483f0b6e2f5486d06958c20f8c39a7abe87bf8f906393f1a40b906044016040805180830381865afa158015610521573d6000803e3d6000fd5b505050506040513d601f19601f8201168201806040525081019061054591906124c3565b5190505b90565b603e546000906001600160a01b031633146105795760405162461bcd60e51b8152600401610240906123bb565b60026001540361059b5760405162461bcd60e51b815260040161024090612384565b60026001556038546105de5760405162461bcd60e51b815260206004820152600c60248201526b4e4f5f4c495155494449545960a01b6044820152606401610240565b603b544390603d906000906105fb9060019063ffffffff16612512565b63ffffffff1681526020810191909152604001600020540361065f5760405162461bcd60e51b815260206004820152601b60248201527f43414e545f43414c4c5f4f4e5f5448455f53414d455f424c4f434b00000000006044820152606401610240565b603754604051630441a3e760e41b8152600481019190915260006024820152734483f0b6e2f5486d06958c20f8c39a7abe87bf8f9063441a3e7090604401600060405180830381600087803b1580156106b757600080fd5b505af11580156106cb573d6000803e3d6000fd5b50506033546106e8925085915084906001600160a01b0316611a3c565b6033546040516370a0823160e01b81523060048201526000916002916001600160a01b03909116906370a0823190602401602060405180830381865afa158015610736573d6000803e3d6000fd5b505050506040513d601f19601f8201168201806040525081019061075a9190612536565b610764919061254f565b90508015610aba576033546035546001600160a01b03908116911614610910573660006107918780612587565b61079b90806125a7565b60335491935091506001600160a01b031682826000816107bd576107bd612571565b90506020020160208101906107d29190612197565b6001600160a01b031614801561082b57506035546001600160a01b031682826107fc600182612469565b81811061080b5761080b612571565b90506020020160208101906108209190612197565b6001600160a01b0316145b6108775760405162461bcd60e51b815260206004820152601860248201527f4241445f5245574152445f544f4b454e5f415f524f55544500000000000000006044820152606401610240565b7360ae616a2155ee3d9a68541ba4544862310933d46338ed17398461089c8a80612587565b60200135858530426040518763ffffffff1660e01b81526004016108c5969594939291906125f8565b6000604051808303816000875af11580156108e4573d6000803e3d6000fd5b505050506040513d6000823e601f3d908101601f1916820160405261090c919081019061266b565b5050505b6033546036546001600160a01b03908116911614610aba573660006109386020880188612587565b61094290806125a7565b60335491935091506001600160a01b0316828260008161096457610964612571565b90506020020160208101906109799190612197565b6001600160a01b03161480156109d257506036546001600160a01b031682826109a3600182612469565b8181106109b2576109b2612571565b90506020020160208101906109c79190612197565b6001600160a01b0316145b610a1e5760405162461bcd60e51b815260206004820152601860248201527f4241445f5245574152445f544f4b454e5f425f524f55544500000000000000006044820152606401610240565b7360ae616a2155ee3d9a68541ba4544862310933d46338ed173984610a4660208b018b612587565b60200135858530426040518763ffffffff1660e01b8152600401610a6f969594939291906125f8565b6000604051808303816000875af1158015610a8e573d6000803e3d6000fd5b505050506040513d6000823e601f3d908101601f19168201604052610ab6919081019061266b565b5050505b506035546036546040516370a0823160e01b81523060048201527360ae616a2155ee3d9a68541ba4544862310933d49263e8e33700926001600160a01b039182169291169082906370a0823190602401602060405180830381865afa158015610b27573d6000803e3d6000fd5b505050506040513d601f19601f82011682018060405250810190610b4b9190612536565b6036546040516370a0823160e01b81523060048201526001600160a01b03909116906370a0823190602401602060405180830381865afa158015610b93573d6000803e3d6000fd5b505050506040513d601f19601f82011682018060405250810190610bb79190612536565b610bc18a80612587565b60209081013590610bd4908c018c612587565b6020013530426040518963ffffffff1660e01b8152600401610bfd9897969594939291906123f2565b6060604051808303816000875af1158015610c1c573d6000803e3d6000fd5b505050506040513d601f19601f82011682018060405250810190610c40919061243b565b603a5490935060009250610c55915043612469565b603854610c629190612711565b603954610c6f9190612371565b610c81670de0b6b3a764000084612711565b610c8b919061254f565b603b54909150600090603d908290610cab9060019063ffffffff16612512565b63ffffffff168152602081019190915260400160002054610ccc9043612469565b610cd69083612711565b603b54603d90600090610cf19060019063ffffffff16612512565b63ffffffff1663ffffffff16815260200190815260200160002060020154610d199190612371565b604080516060810182524381526020808201868152828401858152603b805463ffffffff9081166000908152603d90955295842094518555915160018581019190915590516002909401939093558054949550919391929091610d7e91859116612728565b825463ffffffff9182166101009390930a92830291909202199091161790555043603a556000603955603754604051631c57762b60e31b8152734483f0b6e2f5486d06958c20f8c39a7abe87bf8f9163e2bbb15891610deb91908790600401918252602082015260400190565b600060405180830381600087803b158015610e0557600080fd5b505af1158015610e19573d6000803e3d6000fd5b50506001805550929695505050505050565b6000610e376001611ce1565b90508015610e4f576000805461ff0019166101001790555b6001600160a01b038316610e935760405162461bcd60e51b815260206004820152600b60248201526a10905117d31417d413d3d360aa1b6044820152606401610240565b6001600160a01b038216610edc5760405162461bcd60e51b815260206004820152601060248201526f2120a22fa0a9a9a2aa2fa927aaaa22a960811b6044820152606401610240565b610ee4611d69565b603e80546001600160a01b0319166001600160a01b038416179055610f0883611d9a565b603755603480546001600160a01b0319166001600160a01b0385161790556040805160016201452d60e41b031981529051734483f0b6e2f5486d06958c20f8c39a7abe87bf8f9163ffebad309160048083019260209291908290030181865afa158015610f79573d6000803e3d6000fd5b505050506040513d601f19601f82011682018060405250810190610f9d9190612745565b603380546001600160a01b0319166001600160a01b0392831617905560345460408051630dfe168160e01b815290519190921691630dfe16819160048083019260209291908290030181865afa158015610ffb573d6000803e3d6000fd5b505050506040513d601f19601f8201168201806040525081019061101f9190612745565b603580546001600160a01b0319166001600160a01b039283161790556034546040805163d21220a760e01b81529051919092169163d21220a79160048083019260209291908290030181865afa15801561107d573d6000803e3d6000fd5b505050506040513d601f19601f820116820180604052508101906110a19190612745565b603680546001600160a01b0319166001600160a01b03928316179055604080516060810182524380825260006020808401828152848601838152928052603d90915292517fb4447350905ade30fbbf16eb128316f54a45abd6b02d89811edf7bbf0bb1ba7c5591517fb4447350905ade30fbbf16eb128316f54a45abd6b02d89811edf7bbf0bb1ba7d5590517fb4447350905ade30fbbf16eb128316f54a45abd6b02d89811edf7bbf0bb1ba7e55603b805463ffffffff19166001179055603a55603454905163095ea7b360e01b8152734483f0b6e2f5486d06958c20f8c39a7abe87bf8f6004820152600019602482015291169063095ea7b3906044016020604051808303816000875af11580156111be573d6000803e3d6000fd5b505050506040513d601f19601f820116820180604052508101906111e29190612762565b5060345460405163095ea7b360e01b81527360ae616a2155ee3d9a68541ba4544862310933d4600482015260001960248201526001600160a01b039091169063095ea7b3906044016020604051808303816000875af1158015611249573d6000803e3d6000fd5b505050506040513d601f19601f8201168201806040525081019061126d9190612762565b5060335460405163095ea7b360e01b81527360ae616a2155ee3d9a68541ba4544862310933d4600482015260001960248201526001600160a01b039091169063095ea7b3906044016020604051808303816000875af11580156112d4573d6000803e3d6000fd5b505050506040513d601f19601f820116820180604052508101906112f89190612762565b5060355460405163095ea7b360e01b81527360ae616a2155ee3d9a68541ba4544862310933d4600482015260001960248201526001600160a01b039091169063095ea7b3906044016020604051808303816000875af115801561135f573d6000803e3d6000fd5b505050506040513d601f19601f820116820180604052508101906113839190612762565b5060365460405163095ea7b360e01b81527360ae616a2155ee3d9a68541ba4544862310933d4600482015260001960248201526001600160a01b039091169063095ea7b3906044016020604051808303816000875af11580156113ea573d6000803e3d6000fd5b505050506040513d601f19601f8201168201806040525081019061140e9190612762565b508015611455576000805461ff0019169055604051600181527f7f26b83ff96e1f2b6a682f133852f6798a09c465da95921460cefb38474024989060200160405180910390a15b505050565b60008060026001540361147f5760405162461bcd60e51b815260040161024090612384565b6002600155603e546001600160a01b031633146114ae5760405162461bcd60e51b8152600401610240906123bb565b600088116114f45760405162461bcd60e51b8152602060048201526013602482015272125394d551919250d251539517d05353d55395606a1b6044820152606401610240565b6114fd846118c6565b6001600160a01b0384166000908152603c6020526040902060028101548911156115b6576002810154815460009161153491612371565b9050808a111561157d5760405162461bcd60e51b8152602060048201526014602482015273494e53554646494349454e545f42414c414e434560601b6044820152606401610240565b6115878a82612469565b825560028201546038548b9161159c91612371565b6115a69190612469565b60385550600060028201556115d0565b888160020160008282546115ca9190612469565b90915550505b603754604051630441a3e760e41b81526004810191909152602481018a9052734483f0b6e2f5486d06958c20f8c39a7abe87bf8f9063441a3e7090604401600060405180830381600087803b15801561162857600080fd5b505af115801561163c573d6000803e3d6000fd5b50505050851561166a5760345461165d906001600160a01b0316858b6119ea565b6000809250925050611720565b603554603654604051635d5155ef60e11b81526001600160a01b0392831660048201529082166024820152604481018b9052606481018a90526084810189905290851660a48201524260c48201527360ae616a2155ee3d9a68541ba4544862310933d49063baa2abde9060e40160408051808303816000875af11580156116f5573d6000803e3d6000fd5b505050506040513d601f19601f82011682018060405250810190611719919061277f565b9093509150505b600180559097909650945050505050565b6001600160a01b0381166000908152603c60209081526040808320815160a08101835281548152600182015493810193909352600281015491830191909152600381015463ffffffff908116606084018190526004909201546080840152603b541690036117a3576040015192915050565b60608082015163ffffffff166000908152603d60209081526040808320815194850182528054808652600182015493860193909352600201549084015260808401516117ee91612469565b83516117fa9190612711565b83602001516118099190612371565b90506000670de0b6b3a76400008360200151836118269190612711565b611830919061254f565b6040840151603b54919250600091670de0b6b3a76400009190603d9084906118609060019063ffffffff16612512565b63ffffffff1663ffffffff168152602001908152602001600020600201546118889190612469565b86516118949190612711565b61189e919061254f565b9050808286604001516118b19190612371565b6118bb9190612371565b979650505050505050565b6001600160a01b0381166000908152603c60205260409020603b54600382015463ffffffff91821691160361192e5760048101546119049043612469565b81546119109190612711565b8160010160008282546119239190612371565b9091555061198a9050565b61193782611731565b6002820155603b54603d906000906119579060019063ffffffff16612512565b63ffffffff1681526020810191909152604001600020546119789043612469565b81546119849190612711565b60018201555b603b5460038201805463ffffffff191663ffffffff9092169190911790554360048201819055603854603a5490916119c29190612469565b6119cc9190612711565b603960008282546119dd9190612371565b909155505043603a555050565b604080516001600160a01b038416602482015260448082018490528251808303909101815260649091019091526020810180516001600160e01b031663a9059cbb60e01b179052611455908490611f0d565b6001600160a01b03811615801590611a6a57506000611a5e6020840184612197565b6001600160a01b031614155b15611455576040516370a0823160e01b8152306004820152600090670de0b6b3a7640000906020850135906001600160a01b038516906370a0823190602401602060405180830381865afa158015611ac6573d6000803e3d6000fd5b505050506040513d601f19601f82011682018060405250810190611aea9190612536565b611af49190612711565b611afe919061254f565b90508015611cdb57366000611b1386806125a7565b90925090508015801590611b9057508181611b2f600182612469565b818110611b3e57611b3e612571565b9050602002016020810190611b539190612197565b6001600160a01b031682826000818110611b6f57611b6f612571565b9050602002016020810190611b849190612197565b6001600160a01b031614155b15611cb757836001600160a01b031682826000818110611bb257611bb2612571565b9050602002016020810190611bc79190612197565b6001600160a01b031614611c135760405162461bcd60e51b81526020600482015260136024820152724241445f4645455f544f4b454e5f524f55544560681b6044820152606401610240565b7360ae616a2155ee3d9a68541ba4544862310933d46338ed1739846020808a01359086908690611c45908c018c612197565b426040518763ffffffff1660e01b8152600401611c67969594939291906125f8565b6000604051808303816000875af1158015611c86573d6000803e3d6000fd5b505050506040513d6000823e601f3d908101601f19168201604052611cae919081019061266b565b50505050505050565b611cd8611cc76020870187612197565b6001600160a01b03861690856119ea565b50505b50505050565b60008054610100900460ff1615611d28578160ff166001148015611d045750303b155b611d205760405162461bcd60e51b8152600401610240906127a3565b506000919050565b60005460ff808416911610611d4f5760405162461bcd60e51b8152600401610240906127a3565b506000805460ff191660ff92909216919091179055600190565b600054610100900460ff16611d905760405162461bcd60e51b8152600401610240906127f1565b611d98611fdf565b565b600080805b734483f0b6e2f5486d06958c20f8c39a7abe87bf8f6001600160a01b031663081e3eda6040518163ffffffff1660e01b8152600401602060405180830381865afa158015611df1573d6000803e3d6000fd5b505050506040513d601f19601f82011682018060405250810190611e159190612536565b811015611ec857604051631526fe2760e01b8152600481018290526001600160a01b03851690734483f0b6e2f5486d06958c20f8c39a7abe87bf8f90631526fe2790602401608060405180830381865afa158015611e77573d6000803e3d6000fd5b505050506040513d601f19601f82011682018060405250810190611e9b919061283c565b516001600160a01b031603611eb65780925060019150611ec8565b80611ec0816128ab565b915050611d9f565b5080611f075760405162461bcd60e51b815260206004820152600e60248201526d5049445f4e4f545f45584953545360901b6044820152606401610240565b50919050565b6000611f62826040518060400160405280602081526020017f5361666545524332303a206c6f772d6c6576656c2063616c6c206661696c6564815250856001600160a01b031661200c9092919063ffffffff16565b8051909150156114555780806020019051810190611f809190612762565b6114555760405162461bcd60e51b815260206004820152602a60248201527f5361666545524332303a204552433230206f7065726174696f6e20646964206e6044820152691bdd081cdd58d8d9595960b21b6064820152608401610240565b600054610100900460ff166120065760405162461bcd60e51b8152600401610240906127f1565b60018055565b606061201b8484600085612025565b90505b9392505050565b6060824710156120865760405162461bcd60e51b815260206004820152602660248201527f416464726573733a20696e73756666696369656e742062616c616e636520666f6044820152651c8818d85b1b60d21b6064820152608401610240565b6001600160a01b0385163b6120dd5760405162461bcd60e51b815260206004820152601d60248201527f416464726573733a2063616c6c20746f206e6f6e2d636f6e74726163740000006044820152606401610240565b600080866001600160a01b031685876040516120f991906128e8565b60006040518083038185875af1925050503d8060008114612136576040519150601f19603f3d011682016040523d82523d6000602084013e61213b565b606091505b50915091506118bb8282866060831561215557508161201e565b8251156121655782518084602001fd5b8160405162461bcd60e51b815260040161024091906128fa565b6001600160a01b038116811461219457600080fd5b50565b6000602082840312156121a957600080fd5b813561201e8161217f565b600080600080600080600060e0888a0312156121cf57600080fd5b873596506020880135955060408801359450606088013593506080880135925060a08801356121fd8161217f565b915060c088013561220d8161217f565b8091505092959891949750929550565b600060408284031215611f0757600080fd5b60008060006080848603121561224457600080fd5b833567ffffffffffffffff8082111561225c57600080fd5b81860191508660408301111561227157600080fd5b9093506020850135908082111561228757600080fd5b506122948682870161221d565b9250506122a4856040860161221d565b90509250925092565b600080604083850312156122c057600080fd5b82356122cb8161217f565b915060208301356122db8161217f565b809150509250929050565b801515811461219457600080fd5b60008060008060008060c0878903121561230d57600080fd5b863595506020870135945060408701359350606087013561232d816122e6565b9250608087013561233d8161217f565b915060a087013561234d8161217f565b809150509295509295509295565b634e487b7160e01b600052601160045260246000fd5b808201808211156102135761021361235b565b6020808252601f908201527f5265656e7472616e637947756172643a207265656e7472616e742063616c6c00604082015260600190565b60208082526017908201527f43414c4c45525f4e4f545f41535345545f524f55544552000000000000000000604082015260600190565b6001600160a01b039889168152968816602088015260408701959095526060860193909352608085019190915260a084015290921660c082015260e08101919091526101000190565b60008060006060848603121561245057600080fd5b8351925060208401519150604084015190509250925092565b818103818111156102135761021361235b565b634e487b7160e01b600052604160045260246000fd5b604051601f8201601f1916810167ffffffffffffffff811182821017156124bb576124bb61247c565b604052919050565b6000604082840312156124d557600080fd5b6040516040810181811067ffffffffffffffff821117156124f8576124f861247c565b604052825181526020928301519281019290925250919050565b63ffffffff82811682821603908082111561252f5761252f61235b565b5092915050565b60006020828403121561254857600080fd5b5051919050565b60008261256c57634e487b7160e01b600052601260045260246000fd5b500490565b634e487b7160e01b600052603260045260246000fd5b60008235603e1983360301811261259d57600080fd5b9190910192915050565b6000808335601e198436030181126125be57600080fd5b83018035915067ffffffffffffffff8211156125d957600080fd5b6020019150600581901b36038213156125f157600080fd5b9250929050565b868152602080820187905260a0604083018190528201859052600090869060c08401835b8881101561264a57833561262f8161217f565b6001600160a01b03168252928201929082019060010161261c565b506001600160a01b0396909616606085015250505060800152949350505050565b6000602080838503121561267e57600080fd5b825167ffffffffffffffff8082111561269657600080fd5b818501915085601f8301126126aa57600080fd5b8151818111156126bc576126bc61247c565b8060051b91506126cd848301612492565b81815291830184019184810190888411156126e757600080fd5b938501935b83851015612705578451825293850193908501906126ec565b98975050505050505050565b80820281158282048414176102135761021361235b565b63ffffffff81811683821601908082111561252f5761252f61235b565b60006020828403121561275757600080fd5b815161201e8161217f565b60006020828403121561277457600080fd5b815161201e816122e6565b6000806040838503121561279257600080fd5b505080516020909101519092909150565b6020808252602e908201527f496e697469616c697a61626c653a20636f6e747261637420697320616c72656160408201526d191e481a5b9a5d1a585b1a5e995960921b606082015260800190565b6020808252602b908201527f496e697469616c697a61626c653a20636f6e7472616374206973206e6f74206960408201526a6e697469616c697a696e6760a81b606082015260800190565b60006080828403121561284e57600080fd5b6040516080810181811067ffffffffffffffff821117156128715761287161247c565b604052825161287f8161217f565b808252506020830151602082015260408301516040820152606083015160608201528091505092915050565b6000600182016128bd576128bd61235b565b5060010190565b60005b838110156128df5781810151838201526020016128c7565b50506000910152565b6000825161259d8184602087016128c4565b60208152600082518060208401526129198160408501602087016128c4565b601f01601f1916919091016040019291505056fea26469706673582212208db54971cbb0ca03a0aabcdc33654258a7ac94d00e18b0b9803d1aedee5d8fb864736f6c63430008110033",
  "immutableReferences": {},
  "source": "// SPDX-License-Identifier: MIT\npragma solidity 0.8.17;\n\nimport \"../../interfaces/IUniswapV2Pair.sol\";\nimport \"../../interfaces/IUniswapV2Router.sol\";\nimport \"../../interfaces/IMasterChefJoe.sol\";\nimport \"@openzeppelin/contracts-upgradeable/security/ReentrancyGuardUpgradeable.sol\";\nimport \"@openzeppelin/contracts-upgradeable/token/ERC20/utils/SafeERC20Upgradeable.sol\";\nimport \"@openzeppelin/contracts-upgradeable/token/ERC20/IERC20Upgradeable.sol\";\nimport \"@openzeppelin/contracts-upgradeable/proxy/utils/Initializable.sol\";\n\ncontract UnoFarmTraderjoe is Initializable, ReentrancyGuardUpgradeable {\n\tusing SafeERC20Upgradeable for IERC20Upgradeable;\n\t/**\n\t * @dev DistributionInfo:\n\t * {block} - Distribution block number.\n\t * {rewardPerDepositAge} - Distribution reward divided by {totalDepositAge}.\n\t * {cumulativeRewardAgePerDepositAge} - Sum of {rewardPerDepositAge}s multiplied by distribution interval.\n\t */\n\tstruct DistributionInfo {\n\t\tuint256 block;\n\t\tuint256 rewardPerDepositAge;\n\t\tuint256 cumulativeRewardAgePerDepositAge;\n\t}\n\t/**\n\t * @dev UserInfo:\n\t * {stake} - Amount of LP tokens deposited by the user.\n\t * {depositAge} - User deposits multiplied by blocks the deposit has been in.\n\t * {reward} - Amount of LP tokens entitled to the user.\n\t * {lastDistribution} - Distribution ID before the last user deposit.\n\t * {lastUpdate} - Deposit update block.\n\t */\n\tstruct UserInfo {\n\t\tuint256 stake;\n\t\tuint256 depositAge;\n\t\tuint256 reward;\n\t\tuint32 lastDistribution;\n\t\tuint256 lastUpdate;\n\t}\n\t/**\n\t * @dev SwapInfo:\n\t * {route} - Array of token addresses describing swap routes.\n\t * {amountOutMin} - The minimum amount of output token that must be received for the transaction not to revert.\n\t */\n\tstruct SwapInfo {\n\t\taddress[] route;\n\t\tuint256 amountOutMin;\n\t}\n\t/**\n\t * @dev FeeInfo:\n\t * {feeCollector} - Contract to transfer fees to.\n\t * {fee} - Fee percentage to collect (10^18 == 100%).\n\t */\n\tstruct FeeInfo {\n\t\taddress feeTo;\n\t\tuint256 fee;\n\t}\n\n\t/**\n\t * @dev Tokens Used:\n\t * {rewardToken} - Token generated by staking (SUSHI).\n\t * {rewarderToken} - Token generated by ComplexRewarderTime contract.\n\t * {lpPair} - Token that the strategy maximizes. The same token that users deposit in the {MasterApe}.\n\t * {tokenA, tokenB} - Tokens that the strategy maximizes.\n\t */\n\taddress public rewardToken;\n\taddress public lpPair;\n\taddress public tokenA;\n\taddress public tokenB;\n\n\t/**\n\t * @dev Third Party Contracts:\n\t * {traderjoeRouter} - The contract that executes swaps.\n\t * {MasterApe} -The contract that distibutes {rewardToken}.\n\t */\n\tIUniswapV2Router01 private constant traderjoeRouter =\n\t\tIUniswapV2Router01(0x60aE616a2155Ee3d9A68541Ba4544862310933d4);\n\tIMasterChefJoe private constant MasterApe =\n\t\tIMasterChefJoe(0x4483f0b6e2F5486D06958C20f8C39A7aBe87bf8F);\n\n\t/**\n     * @dev Contract Variables:\n     * {pid} - Pool ID.\n\n     * {totalDeposits} - Total deposits made by users.\n     * {totalDepositAge} - Deposits multiplied by blocks the deposit has been in. Flushed every reward distribution.\n     * {totalDepositLastUpdate} - Last {totalDepositAge} update block.\n\n     * {distributionID} - Current distribution ID.\n     * {userInfo} - Info on each user.\n     * {distributionInfo} - Info on each distribution.\n\n     * {fractionMultiplier} - Used to store decimal values.\n     */\n\tuint256 public pid;\n\n\tuint256 private totalDeposits;\n\tuint256 private totalDepositAge;\n\tuint256 private totalDepositLastUpdate;\n\n\tuint32 private distributionID;\n\tmapping(address => UserInfo) private userInfo;\n\tmapping(uint32 => DistributionInfo) private distributionInfo;\n\n\tuint256 private constant fractionMultiplier = uint256(1 ether);\n\n\t/**\n\t * @dev Contract Variables:\n\t * {assetRouter} - The contract from which calls to this farm are made.\n\t */\n\taddress public assetRouter;\n\tmodifier onlyAssetRouter() {\n\t\trequire(msg.sender == assetRouter, \"CALLER_NOT_ASSET_ROUTER\");\n\t\t_;\n\t}\n\n\t// ============ Methods ============\n\n\tfunction initialize(address _lpPair, address _assetRouter)\n\t\texternal\n\t\tinitializer\n\t{\n\t\trequire(_lpPair != address(0), \"BAD_LP_POOL\");\n\t\trequire(_assetRouter != address(0), \"BAD_ASSET_ROUTER\");\n\n\t\t__ReentrancyGuard_init();\n\t\tassetRouter = _assetRouter;\n\n\t\tpid = getPid(_lpPair);\n\t\tlpPair = _lpPair;\n\n\t\trewardToken = MasterApe.JOE();\n\n\t\ttokenA = IUniswapV2Pair(lpPair).token0();\n\t\ttokenB = IUniswapV2Pair(lpPair).token1();\n\n\t\tdistributionInfo[0] = DistributionInfo({\n\t\t\tblock: block.number,\n\t\t\trewardPerDepositAge: 0,\n\t\t\tcumulativeRewardAgePerDepositAge: 0\n\t\t});\n\t\tdistributionID = 1;\n\t\ttotalDepositLastUpdate = block.number;\n\n\t\tIERC20Upgradeable(lpPair).approve(\n\t\t\taddress(MasterApe),\n\t\t\ttype(uint256).max\n\t\t);\n\t\tIERC20Upgradeable(lpPair).approve(\n\t\t\taddress(traderjoeRouter),\n\t\t\ttype(uint256).max\n\t\t);\n\t\tIERC20Upgradeable(rewardToken).approve(\n\t\t\taddress(traderjoeRouter),\n\t\t\ttype(uint256).max\n\t\t);\n\t\tIERC20Upgradeable(tokenA).approve(\n\t\t\taddress(traderjoeRouter),\n\t\t\ttype(uint256).max\n\t\t);\n\t\tIERC20Upgradeable(tokenB).approve(\n\t\t\taddress(traderjoeRouter),\n\t\t\ttype(uint256).max\n\t\t);\n\t}\n\n\t/**\n\t * @dev Function that makes the deposits.\n\t * Deposits provided tokens in the Liquidity Pool, then stakes generated LP tokens in the {MasterApe}.\n\t */\n\tfunction deposit(\n\t\tuint256 amountA,\n\t\tuint256 amountB,\n\t\tuint256 amountAMin,\n\t\tuint256 amountBMin,\n\t\tuint256 amountLP,\n\t\taddress origin,\n\t\taddress recipient\n\t)\n\t\texternal\n\t\tnonReentrant\n\t\tonlyAssetRouter\n\t\treturns (\n\t\t\tuint256 sentA,\n\t\t\tuint256 sentB,\n\t\t\tuint256 liquidity\n\t\t)\n\t{\n\t\tuint256 addedLiquidity;\n\t\tif (amountA > 0 && amountB > 0) {\n\t\t\t(sentA, sentB, addedLiquidity) = traderjoeRouter.addLiquidity(\n\t\t\t\ttokenA,\n\t\t\t\ttokenB,\n\t\t\t\tamountA,\n\t\t\t\tamountB,\n\t\t\t\tamountAMin,\n\t\t\t\tamountBMin,\n\t\t\t\taddress(this),\n\t\t\t\tblock.timestamp\n\t\t\t);\n\t\t}\n\t\tliquidity = addedLiquidity + amountLP;\n\t\trequire(liquidity > 0, \"NO_LIQUIDITY_PROVIDED\");\n\n\t\t_updateDeposit(recipient);\n\t\tuserInfo[recipient].stake += liquidity;\n\t\ttotalDeposits += liquidity;\n\n\t\tMasterApe.deposit(pid, liquidity);\n\t\tIERC20Upgradeable(tokenA).safeTransfer(origin, amountA - sentA);\n\t\tIERC20Upgradeable(tokenB).safeTransfer(origin, amountB - sentB);\n\t}\n\n\t/**\n\t * @dev Withdraws funds from {origin} and sends them to the {recipient}.\n\t */\n\tfunction withdraw(\n\t\tuint256 amount,\n\t\tuint256 amountAMin,\n\t\tuint256 amountBMin,\n\t\tbool withdrawLP,\n\t\taddress origin,\n\t\taddress recipient\n\t)\n\t\texternal\n\t\tnonReentrant\n\t\tonlyAssetRouter\n\t\treturns (uint256 amountA, uint256 amountB)\n\t{\n\t\trequire(amount > 0, \"INSUFFICIENT_AMOUNT\");\n\n\t\t_updateDeposit(origin);\n\t\tUserInfo storage user = userInfo[origin];\n\t\t// Subtract amount from user.reward first, then subtract remainder from user.stake.\n\t\tif (amount > user.reward) {\n\t\t\tuint256 balance = user.stake + user.reward;\n\t\t\trequire(amount <= balance, \"INSUFFICIENT_BALANCE\");\n\t\t\tuser.stake = balance - amount;\n\t\t\ttotalDeposits = totalDeposits + user.reward - amount;\n\t\t\tuser.reward = 0;\n\t\t} else {\n\t\t\tuser.reward -= amount;\n\t\t}\n\n\t\tMasterApe.withdraw(pid, amount);\n\t\tif (withdrawLP) {\n\t\t\tIERC20Upgradeable(lpPair).safeTransfer(recipient, amount);\n\t\t\treturn (0, 0);\n\t\t}\n\t\t(amountA, amountB) = traderjoeRouter.removeLiquidity(\n\t\t\ttokenA,\n\t\t\ttokenB,\n\t\t\tamount,\n\t\t\tamountAMin,\n\t\t\tamountBMin,\n\t\t\trecipient,\n\t\t\tblock.timestamp\n\t\t);\n\t}\n\n\t/**\n\t * @dev Core function of the strat, in charge of updating, collecting and re-investing rewards.\n\t * 1. It claims rewards from the {MasterApe}.\n\t * 2. It swaps {rewardToken} token for {tokenA} & {tokenB}.\n\t * 3. It deposits new LP tokens back to the {MasterApe}.\n\t */\n\tfunction distribute(\n\t\tSwapInfo[2] calldata swapInfos,\n\t\tSwapInfo calldata feeSwapInfo,\n\t\tFeeInfo calldata feeInfo\n\t) external onlyAssetRouter nonReentrant returns (uint256 reward) {\n\t\trequire(totalDeposits > 0, \"NO_LIQUIDITY\");\n\t\trequire(\n\t\t\tdistributionInfo[distributionID - 1].block != block.number,\n\t\t\t\"CANT_CALL_ON_THE_SAME_BLOCK\"\n\t\t);\n\n\t\tMasterApe.withdraw(pid, 0);\n\n\t\tcollectFees(feeSwapInfo, feeInfo, IERC20Upgradeable(rewardToken));\n\t\t{\n\t\t\t// scope to avoid stack too deep errors\n\t\t\tuint256 rewardTokenHalf = IERC20Upgradeable(rewardToken).balanceOf(\n\t\t\t\taddress(this)\n\t\t\t) / 2;\n\n\t\t\tif (rewardTokenHalf > 0) {\n\t\t\t\tif (tokenA != rewardToken) {\n\t\t\t\t\taddress[] calldata route = swapInfos[0].route;\n\t\t\t\t\trequire(\n\t\t\t\t\t\troute[0] == rewardToken &&\n\t\t\t\t\t\t\troute[route.length - 1] == tokenA,\n\t\t\t\t\t\t\"BAD_REWARD_TOKEN_A_ROUTE\"\n\t\t\t\t\t);\n\t\t\t\t\ttraderjoeRouter.swapExactTokensForTokens(\n\t\t\t\t\t\trewardTokenHalf,\n\t\t\t\t\t\tswapInfos[0].amountOutMin,\n\t\t\t\t\t\troute,\n\t\t\t\t\t\taddress(this),\n\t\t\t\t\t\tblock.timestamp\n\t\t\t\t\t);\n\t\t\t\t}\n\n\t\t\t\tif (tokenB != rewardToken) {\n\t\t\t\t\taddress[] calldata route = swapInfos[1].route;\n\t\t\t\t\trequire(\n\t\t\t\t\t\troute[0] == rewardToken &&\n\t\t\t\t\t\t\troute[route.length - 1] == tokenB,\n\t\t\t\t\t\t\"BAD_REWARD_TOKEN_B_ROUTE\"\n\t\t\t\t\t);\n\t\t\t\t\ttraderjoeRouter.swapExactTokensForTokens(\n\t\t\t\t\t\trewardTokenHalf,\n\t\t\t\t\t\tswapInfos[1].amountOutMin,\n\t\t\t\t\t\troute,\n\t\t\t\t\t\taddress(this),\n\t\t\t\t\t\tblock.timestamp\n\t\t\t\t\t);\n\t\t\t\t}\n\t\t\t}\n\t\t}\n\n\t\t(, , reward) = traderjoeRouter.addLiquidity(\n\t\t\ttokenA,\n\t\t\ttokenB,\n\t\t\tIERC20Upgradeable(tokenA).balanceOf(address(this)),\n\t\t\tIERC20Upgradeable(tokenB).balanceOf(address(this)),\n\t\t\tswapInfos[0].amountOutMin,\n\t\t\tswapInfos[1].amountOutMin,\n\t\t\taddress(this),\n\t\t\tblock.timestamp\n\t\t);\n\n\t\tuint256 rewardPerDepositAge = (reward * fractionMultiplier) /\n\t\t\t(totalDepositAge +\n\t\t\t\ttotalDeposits *\n\t\t\t\t(block.number - totalDepositLastUpdate));\n\t\tuint256 cumulativeRewardAgePerDepositAge = distributionInfo[\n\t\t\tdistributionID - 1\n\t\t].cumulativeRewardAgePerDepositAge +\n\t\t\trewardPerDepositAge *\n\t\t\t(block.number - distributionInfo[distributionID - 1].block);\n\n\t\tdistributionInfo[distributionID] = DistributionInfo({\n\t\t\tblock: block.number,\n\t\t\trewardPerDepositAge: rewardPerDepositAge,\n\t\t\tcumulativeRewardAgePerDepositAge: cumulativeRewardAgePerDepositAge\n\t\t});\n\n\t\tdistributionID += 1;\n\t\ttotalDepositLastUpdate = block.number;\n\t\ttotalDepositAge = 0;\n\n\t\tMasterApe.deposit(pid, reward);\n\t}\n\n\t/**\n\t * @dev Swaps and sends fees to feeTo.\n\t */\n\tfunction collectFees(\n\t\tSwapInfo calldata feeSwapInfo,\n\t\tFeeInfo calldata feeInfo,\n\t\tIERC20Upgradeable token\n\t) internal {\n\t\tif (address(token) != address(0) && feeInfo.feeTo != address(0)) {\n\t\t\tuint256 feeAmount = (token.balanceOf(address(this)) * feeInfo.fee) /\n\t\t\t\tfractionMultiplier;\n\t\t\tif (feeAmount > 0) {\n\t\t\t\taddress[] calldata route = feeSwapInfo.route;\n\t\t\t\tif (route.length > 0 && route[0] != route[route.length - 1]) {\n\t\t\t\t\trequire(route[0] == address(token), \"BAD_FEE_TOKEN_ROUTE\");\n\t\t\t\t\ttraderjoeRouter.swapExactTokensForTokens(\n\t\t\t\t\t\tfeeAmount,\n\t\t\t\t\t\tfeeSwapInfo.amountOutMin,\n\t\t\t\t\t\troute,\n\t\t\t\t\t\tfeeInfo.feeTo,\n\t\t\t\t\t\tblock.timestamp\n\t\t\t\t\t);\n\t\t\t\t\treturn;\n\t\t\t\t}\n\t\t\t\ttoken.safeTransfer(feeInfo.feeTo, feeAmount);\n\t\t\t}\n\t\t}\n\t}\n\n\t/**\n\t * @dev Returns total funds staked by the {_address}.\n\t */\n\tfunction userBalance(address _address) external view returns (uint256) {\n\t\treturn userInfo[_address].stake + userReward(_address);\n\t}\n\n\t/**\n\t * @dev Returns total funds locked in the farm.\n\t */\n\tfunction getTotalDeposits() external view returns (uint256 _totalDeposits) {\n\t\tif (totalDeposits > 0) {\n\t\t\t_totalDeposits = MasterApe.userInfo(pid, address(this)).amount;\n\t\t}\n\t}\n\n\tfunction _updateDeposit(address _address) internal {\n\t\tUserInfo storage user = userInfo[_address];\n\t\t// Accumulate deposit age within the current distribution period.\n\t\tif (user.lastDistribution == distributionID) {\n\t\t\t// Add deposit age from previous deposit age update to now.\n\t\t\tuser.depositAge += user.stake * (block.number - user.lastUpdate);\n\t\t} else {\n\t\t\t// A reward has been distributed, update user.reward.\n\t\t\tuser.reward = userReward(_address);\n\t\t\t// Count fresh deposit age from previous reward distribution to now.\n\t\t\tuser.depositAge =\n\t\t\t\tuser.stake *\n\t\t\t\t(block.number - distributionInfo[distributionID - 1].block);\n\t\t}\n\n\t\tuser.lastDistribution = distributionID;\n\t\tuser.lastUpdate = block.number;\n\n\t\t// Same with total deposit age.\n\t\ttotalDepositAge +=\n\t\t\t(block.number - totalDepositLastUpdate) *\n\t\t\ttotalDeposits;\n\t\ttotalDepositLastUpdate = block.number;\n\t}\n\n\tfunction userReward(address _address) internal view returns (uint256) {\n\t\tUserInfo memory user = userInfo[_address];\n\t\tif (user.lastDistribution == distributionID) {\n\t\t\t// Return user.reward if the distribution after the last user deposit did not happen yet.\n\t\t\treturn user.reward;\n\t\t}\n\t\tDistributionInfo memory lastUserDistributionInfo = distributionInfo[\n\t\t\tuser.lastDistribution\n\t\t];\n\t\tuint256 userDepositAge = user.depositAge +\n\t\t\tuser.stake *\n\t\t\t(lastUserDistributionInfo.block - user.lastUpdate);\n\t\t// Calculate reward between the last user deposit and the distribution after that.\n\t\tuint256 rewardBeforeDistibution = (userDepositAge *\n\t\t\tlastUserDistributionInfo.rewardPerDepositAge) / fractionMultiplier;\n\t\t// Calculate reward from the distributions that have happened after the last user deposit.\n\t\tuint256 rewardAfterDistribution = (user.stake *\n\t\t\t(distributionInfo[distributionID - 1]\n\t\t\t\t.cumulativeRewardAgePerDepositAge -\n\t\t\t\tlastUserDistributionInfo.cumulativeRewardAgePerDepositAge)) /\n\t\t\tfractionMultiplier;\n\t\treturn user.reward + rewardBeforeDistibution + rewardAfterDistribution;\n\t}\n\n\t/**\n\t * @dev Get pid by iterating over all pools and comparing pids.\n\t */\n\tfunction getPid(address _lpPair) internal view returns (uint256 _pid) {\n\t\tbool poolExists = false;\n\t\tfor (uint256 i = 0; i < MasterApe.poolLength(); i++) {\n\t\t\tif (MasterApe.poolInfo(i).lpToken == _lpPair) {\n\t\t\t\t_pid = i;\n\t\t\t\tpoolExists = true;\n\t\t\t\tbreak;\n\t\t\t}\n\t\t}\n\t\trequire(poolExists, \"PID_NOT_EXISTS\");\n\t\treturn _pid;\n\t}\n}\n",
  "sourcePath": "/home/ilau/projectWork/uno-contracts/contracts/apps/traderjoe/UnoFarmTraderjoe.sol",
  "compiler": {
    "name": "solc",
    "version": "0.8.17+commit.8df45f5f.Emscripten.clang"
  },
  "schemaVersion": "3.4.10",
  "updatedAt": "2022-10-12T14:58:31.154Z",
  "networkType": "ethereum",
  "devdoc": {
    "kind": "dev",
    "methods": {
      "deposit(uint256,uint256,uint256,uint256,uint256,address,address)": {
        "details": "Function that makes the deposits. Deposits provided tokens in the Liquidity Pool, then stakes generated LP tokens in the {MasterApe}."
      },
      "distribute((address[],uint256)[2],(address[],uint256),(address,uint256))": {
        "details": "Core function of the strat, in charge of updating, collecting and re-investing rewards. 1. It claims rewards from the {MasterApe}. 2. It swaps {rewardToken} token for {tokenA} & {tokenB}. 3. It deposits new LP tokens back to the {MasterApe}."
      },
      "getTotalDeposits()": {
        "details": "Returns total funds locked in the farm."
      },
      "userBalance(address)": {
        "details": "Returns total funds staked by the {_address}."
      },
      "withdraw(uint256,uint256,uint256,bool,address,address)": {
        "details": "Withdraws funds from {origin} and sends them to the {recipient}."
      }
    },
    "stateVariables": {
      "assetRouter": {
        "details": "Contract Variables: {assetRouter} - The contract from which calls to this farm are made."
      },
      "pid": {
        "details": "Contract Variables: {pid} - Pool ID. {totalDeposits} - Total deposits made by users. {totalDepositAge} - Deposits multiplied by blocks the deposit has been in. Flushed every reward distribution. {totalDepositLastUpdate} - Last {totalDepositAge} update block. {distributionID} - Current distribution ID. {userInfo} - Info on each user. {distributionInfo} - Info on each distribution. {fractionMultiplier} - Used to store decimal values."
      },
      "rewardToken": {
        "details": "Tokens Used: {rewardToken} - Token generated by staking (SUSHI). {rewarderToken} - Token generated by ComplexRewarderTime contract. {lpPair} - Token that the strategy maximizes. The same token that users deposit in the {MasterApe}. {tokenA, tokenB} - Tokens that the strategy maximizes."
      },
      "traderjoeRouter": {
        "details": "Third Party Contracts: {traderjoeRouter} - The contract that executes swaps. {MasterApe} -The contract that distibutes {rewardToken}."
      }
    },
    "version": 1
  },
  "userdoc": {
    "kind": "user",
    "methods": {},
    "version": 1
  }
}