{
  "contractName": "UnoFarmFactory",
  "abi": [
    {
      "inputs": [
        {
          "internalType": "address",
          "name": "_implementation",
          "type": "address"
        },
        {
          "internalType": "address",
          "name": "_accessManager",
          "type": "address"
        },
        {
          "internalType": "address",
          "name": "_assetRouter",
          "type": "address"
        }
      ],
      "stateMutability": "nonpayable",
      "type": "constructor"
    },
    {
      "anonymous": false,
      "inputs": [
        {
          "indexed": true,
          "internalType": "address",
          "name": "farmAddress",
          "type": "address"
        }
      ],
      "name": "FarmDeployed",
      "type": "event"
    },
    {
      "inputs": [
        {
          "internalType": "address",
          "name": "",
          "type": "address"
        }
      ],
      "name": "Farms",
      "outputs": [
        {
          "internalType": "address",
          "name": "",
          "type": "address"
        }
      ],
      "stateMutability": "view",
      "type": "function"
    },
    {
      "inputs": [],
      "name": "accessManager",
      "outputs": [
        {
          "internalType": "contract IUnoAccessManager",
          "name": "",
          "type": "address"
        }
      ],
      "stateMutability": "view",
      "type": "function"
    },
    {
      "inputs": [],
      "name": "assetRouter",
      "outputs": [
        {
          "internalType": "address",
          "name": "",
          "type": "address"
        }
      ],
      "stateMutability": "view",
      "type": "function"
    },
    {
      "inputs": [],
      "name": "farmBeacon",
      "outputs": [
        {
          "internalType": "address",
          "name": "",
          "type": "address"
        }
      ],
      "stateMutability": "view",
      "type": "function"
    },
    {
      "inputs": [
        {
          "internalType": "uint256",
          "name": "",
          "type": "uint256"
        }
      ],
      "name": "pools",
      "outputs": [
        {
          "internalType": "address",
          "name": "",
          "type": "address"
        }
      ],
      "stateMutability": "view",
      "type": "function"
    },
    {
      "inputs": [
        {
          "internalType": "address",
          "name": "pool",
          "type": "address"
        }
      ],
      "name": "createFarm",
      "outputs": [
        {
          "internalType": "address",
          "name": "",
          "type": "address"
        }
      ],
      "stateMutability": "nonpayable",
      "type": "function"
    },
    {
      "inputs": [
        {
          "internalType": "address",
          "name": "newImplementation",
          "type": "address"
        }
      ],
      "name": "upgradeFarms",
      "outputs": [],
      "stateMutability": "nonpayable",
      "type": "function"
    },
    {
      "inputs": [],
      "name": "poolLength",
      "outputs": [
        {
          "internalType": "uint256",
          "name": "",
          "type": "uint256"
        }
      ],
      "stateMutability": "view",
      "type": "function"
    }
  ],
  "bytecode": "0x608060405234801561001057600080fd5b5060405161179238038061179283398101604081905261002f9161012e565b8260405161003c90610105565b6001600160a01b039091168152602001604051809103906000f080158015610068573d6000803e3d6000fd5b50600280546001600160a01b03199081166001600160a01b03938416179091556000805482168584169081179091556001805490921692841692831790915560405163485cc95560e01b8152600481019190915230602482015263485cc95590604401600060405180830381600087803b1580156100e557600080fd5b505af11580156100f9573d6000803e3d6000fd5b50505050505050610171565b6105cb806111c783390190565b80516001600160a01b038116811461012957600080fd5b919050565b60008060006060848603121561014357600080fd5b61014c84610112565b925061015a60208501610112565b915061016860408501610112565b90509250925092565b611047806101806000396000f3fe60806040523480156200001157600080fd5b5060043610620000935760003560e01c8063bc0aac101162000062578063bc0aac10146200010e578063d95a4d931462000122578063f9d9331d1462000136578063fdcb6068146200016257600080fd5b8063061278c01462000098578063081e3eda14620000cc5780638158371914620000de578063ac4afa3814620000f7575b600080fd5b620000af620000a93660046200057d565b62000176565b6040516001600160a01b0390911681526020015b60405180910390f35b600454604051908152602001620000c3565b620000f5620000ef3660046200057d565b62000277565b005b620000af62000108366004620005af565b62000423565b600154620000af906001600160a01b031681565b600254620000af906001600160a01b031681565b620000af620001473660046200057d565b6003602052600090815260409020546001600160a01b031681565b600054620000af906001600160a01b031681565b6001600160a01b0381811660009081526003602052604081205490911615620001e65760405162461bcd60e51b815260206004820152600b60248201527f4641524d5f45584953545300000000000000000000000000000000000000000060448201526064015b60405180910390fd5b620001f1826200044e565b6001600160a01b03928316600081815260036020526040812080549386167fffffffffffffffffffffffff000000000000000000000000000000000000000094851617815560048054600181019091557f8a35acfbc15ff81a39ae7d344fd709f28e8600b4aa8c65c6b64bfe7fe36bd19b01805490941683179093555254909116919050565b60005460408051631d6c8e3f60e21b815290516001600160a01b03909216916391d148549183916375b238fc916004808201926020929091908290030181865afa158015620002ca573d6000803e3d6000fd5b505050506040513d601f19601f82011682018060405250810190620002f09190620005c9565b6040517fffffffff0000000000000000000000000000000000000000000000000000000060e084901b1681526004810191909152336024820152604401602060405180830381865afa1580156200034b573d6000803e3d6000fd5b505050506040513d601f19601f82011682018060405250810190620003719190620005e3565b620003bf5760405162461bcd60e51b815260206004820152601060248201527f43414c4c45525f4e4f545f41444d494e000000000000000000000000000000006044820152606401620001dd565b600254604051631b2ce7f360e11b81526001600160a01b03838116600483015290911690633659cfe690602401600060405180830381600087803b1580156200040757600080fd5b505af11580156200041c573d6000803e3d6000fd5b5050505050565b600481815481106200043457600080fd5b6000918252602090912001546001600160a01b0316905081565b6002546001546040516001600160a01b0384811660248301529182166044820152600092839216907f485cc955cd05f29985ce37d87ac35dcf2fdbc60b9106f66a532e31a2f1d5743b9060640160408051601f198184030181529181526020820180517bffffffffffffffffffffffffffffffffffffffffffffffffffffffff167fffffffff0000000000000000000000000000000000000000000000000000000090941693909317909252905162000507906200056f565b6200051492919062000607565b604051809103906000f08015801562000531573d6000803e3d6000fd5b506040519091506001600160a01b038216907f7fee2c251a158c3c3bcc28f8db26af3c4a0483735c8f254b9aa8a0b5e0b56d0890600090a292915050565b6109a1806200067183390190565b6000602082840312156200059057600080fd5b81356001600160a01b0381168114620005a857600080fd5b9392505050565b600060208284031215620005c257600080fd5b5035919050565b600060208284031215620005dc57600080fd5b5051919050565b600060208284031215620005f657600080fd5b81518015158114620005a857600080fd5b6001600160a01b038316815260006020604081840152835180604085015260005b81811015620006465785810183015185820160600152820162000628565b8181111562000659576000606083870101525b50601f01601f19169290920160600194935050505056fe60806040526040516109a13803806109a18339810160408190526100229161048b565b61004d60017fa3f0ad74e5423aebfd80d3ef4346578335a9a72aeaee59ff6cb3582b35133d5161054b565b60008051602061095a8339815191521461006957610069610570565b6100758282600061007c565b50506105f0565b61008583610147565b6040516001600160a01b038416907f1cf3b03a6cf19fa2baba4df148e9dcabedea7f8a5c07840e207e5c089be95d3e90600090a26000825111806100c65750805b1561014257610140836001600160a01b0316635c60da1b6040518163ffffffff1660e01b8152600401602060405180830381865afa15801561010c573d6000803e3d6000fd5b505050506040513d601f19601f820116820180604052508101906101309190610586565b836102d860201b6100291760201c565b505b505050565b61015a8161030460201b6100551760201c565b6101b95760405162461bcd60e51b815260206004820152602560248201527f455243313936373a206e657720626561636f6e206973206e6f74206120636f6e6044820152641d1c9858dd60da1b60648201526084015b60405180910390fd5b61022d816001600160a01b0316635c60da1b6040518163ffffffff1660e01b8152600401602060405180830381865afa1580156101fa573d6000803e3d6000fd5b505050506040513d601f19601f8201168201806040525081019061021e9190610586565b61030460201b6100551760201c565b6102925760405162461bcd60e51b815260206004820152603060248201527f455243313936373a20626561636f6e20696d706c656d656e746174696f6e206960448201526f1cc81b9bdd08184818dbdb9d1c9858dd60821b60648201526084016101b0565b806102b760008051602061095a83398151915260001b61031360201b6100641760201c565b80546001600160a01b0319166001600160a01b039290921691909117905550565b60606102fd838360405180606001604052806027815260200161097a60279139610316565b9392505050565b6001600160a01b03163b151590565b90565b60606001600160a01b0384163b61037e5760405162461bcd60e51b815260206004820152602660248201527f416464726573733a2064656c65676174652063616c6c20746f206e6f6e2d636f6044820152651b9d1c9858dd60d21b60648201526084016101b0565b600080856001600160a01b03168560405161039991906105a1565b600060405180830381855af49150503d80600081146103d4576040519150601f19603f3d011682016040523d82523d6000602084013e6103d9565b606091505b5090925090506103ea8282866103f4565b9695505050505050565b606083156104035750816102fd565b8251156104135782518084602001fd5b8160405162461bcd60e51b81526004016101b091906105bd565b80516001600160a01b038116811461044457600080fd5b919050565b634e487b7160e01b600052604160045260246000fd5b60005b8381101561047a578181015183820152602001610462565b838111156101405750506000910152565b6000806040838503121561049e57600080fd5b6104a78361042d565b60208401519092506001600160401b03808211156104c457600080fd5b818501915085601f8301126104d857600080fd5b8151818111156104ea576104ea610449565b604051601f8201601f19908116603f0116810190838211818310171561051257610512610449565b8160405282815288602084870101111561052b57600080fd5b61053c83602083016020880161045f565b80955050505050509250929050565b60008282101561056b57634e487b7160e01b600052601160045260246000fd5b500390565b634e487b7160e01b600052600160045260246000fd5b60006020828403121561059857600080fd5b6102fd8261042d565b600082516105b381846020870161045f565b9190910192915050565b60208152600082518060208401526105dc81604085016020870161045f565b601f01601f19169190910160400192915050565b61035b806105ff6000396000f3fe60806040523661001357610011610017565b005b6100115b610027610022610067565b610100565b565b606061004e83836040518060600160405280602781526020016102ff60279139610124565b9392505050565b6001600160a01b03163b151590565b90565b600061009a7fa3f0ad74e5423aebfd80d3ef4346578335a9a72aeaee59ff6cb3582b35133d50546001600160a01b031690565b6001600160a01b0316635c60da1b6040518163ffffffff1660e01b8152600401602060405180830381865afa1580156100d7573d6000803e3d6000fd5b505050506040513d601f19601f820116820180604052508101906100fb9190610256565b905090565b3660008037600080366000845af43d6000803e80801561011f573d6000f35b3d6000fd5b60606001600160a01b0384163b6101a85760405162461bcd60e51b815260206004820152602660248201527f416464726573733a2064656c65676174652063616c6c20746f206e6f6e2d636f60448201527f6e7472616374000000000000000000000000000000000000000000000000000060648201526084015b60405180910390fd5b600080856001600160a01b0316856040516101c391906102af565b600060405180830381855af49150503d80600081146101fe576040519150601f19603f3d011682016040523d82523d6000602084013e610203565b606091505b509150915061021382828661021d565b9695505050505050565b6060831561022c57508161004e565b82511561023c5782518084602001fd5b8160405162461bcd60e51b815260040161019f91906102cb565b60006020828403121561026857600080fd5b81516001600160a01b038116811461004e57600080fd5b60005b8381101561029a578181015183820152602001610282565b838111156102a9576000848401525b50505050565b600082516102c181846020870161027f565b9190910192915050565b60208152600082518060208401526102ea81604085016020870161027f565b601f01601f1916919091016040019291505056fe416464726573733a206c6f772d6c6576656c2064656c65676174652063616c6c206661696c6564a2646970667358221220fd791bea4e54e5798591fcb8ebc398d69bcc2ec8e881b02276a57e5c0bf1e1ec64736f6c634300080a0033a3f0ad74e5423aebfd80d3ef4346578335a9a72aeaee59ff6cb3582b35133d50416464726573733a206c6f772d6c6576656c2064656c65676174652063616c6c206661696c6564a2646970667358221220da11c5aaec723fecd51cb2b1ba84fba789ced6039b99edddd85ae0b61a44a64a64736f6c634300080a0033608060405234801561001057600080fd5b506040516105cb3803806105cb83398101604081905261002f91610151565b61003833610047565b61004181610097565b50610181565b600080546001600160a01b038381166001600160a01b0319831681178455604051919092169283917f8be0079c531659141344cd1fd0a4f28419497f9722a3daafe3b4186f6b6457e09190a35050565b6100aa8161014260201b6102bd1760201c565b6101205760405162461bcd60e51b815260206004820152603360248201527f5570677261646561626c65426561636f6e3a20696d706c656d656e746174696f60448201527f6e206973206e6f74206120636f6e747261637400000000000000000000000000606482015260840160405180910390fd5b600180546001600160a01b0319166001600160a01b0392909216919091179055565b6001600160a01b03163b151590565b60006020828403121561016357600080fd5b81516001600160a01b038116811461017a57600080fd5b9392505050565b61043b806101906000396000f3fe608060405234801561001057600080fd5b50600436106100675760003560e01c8063715018a611610050578063715018a6146100aa5780638da5cb5b146100b2578063f2fde38b146100c357600080fd5b80633659cfe61461006c5780635c60da1b14610081575b600080fd5b61007f61007a3660046103d5565b6100d6565b005b6001546001600160a01b03165b6040516001600160a01b03909116815260200160405180910390f35b61007f610175565b6000546001600160a01b031661008e565b61007f6100d13660046103d5565b6101db565b6000546001600160a01b031633146101355760405162461bcd60e51b815260206004820181905260248201527f4f776e61626c653a2063616c6c6572206973206e6f7420746865206f776e657260448201526064015b60405180910390fd5b61013e816102cc565b6040516001600160a01b038216907fbc7cd75a20ee27fd9adebab32041f755214dbc6bffa90cc0225b39da2e5c2d3b90600090a250565b6000546001600160a01b031633146101cf5760405162461bcd60e51b815260206004820181905260248201527f4f776e61626c653a2063616c6c6572206973206e6f7420746865206f776e6572604482015260640161012c565b6101d96000610378565b565b6000546001600160a01b031633146102355760405162461bcd60e51b815260206004820181905260248201527f4f776e61626c653a2063616c6c6572206973206e6f7420746865206f776e6572604482015260640161012c565b6001600160a01b0381166102b15760405162461bcd60e51b815260206004820152602660248201527f4f776e61626c653a206e6577206f776e657220697320746865207a65726f206160448201527f6464726573730000000000000000000000000000000000000000000000000000606482015260840161012c565b6102ba81610378565b50565b6001600160a01b03163b151590565b6001600160a01b0381163b6103495760405162461bcd60e51b815260206004820152603360248201527f5570677261646561626c65426561636f6e3a20696d706c656d656e746174696f60448201527f6e206973206e6f74206120636f6e747261637400000000000000000000000000606482015260840161012c565b6001805473ffffffffffffffffffffffffffffffffffffffff19166001600160a01b0392909216919091179055565b600080546001600160a01b0383811673ffffffffffffffffffffffffffffffffffffffff19831681178455604051919092169283917f8be0079c531659141344cd1fd0a4f28419497f9722a3daafe3b4186f6b6457e09190a35050565b6000602082840312156103e757600080fd5b81356001600160a01b03811681146103fe57600080fd5b939250505056fea26469706673582212208caf3fcc0f6242bb98c0a62e3d7f11a70d65b10d8b909de8fedb98a9fdf3a6ee64736f6c634300080a0033",
  "immutableReferences": {},
  "source": "// SPDX-License-Identifier: MIT\r\npragma solidity 0.8.10;\r\npragma experimental ABIEncoderV2;\r\n\r\nimport '@openzeppelin/contracts/proxy/beacon/UpgradeableBeacon.sol';\r\nimport '@openzeppelin/contracts/proxy/beacon/BeaconProxy.sol';\r\nimport './interfaces/IUnoAccessManager.sol'; \r\nimport './interfaces/IUnoAssetRouter.sol';\r\n\r\ncontract UnoFarmFactory{\r\n    /**\r\n     * @dev Contract Variables:\r\n     * accessManager - Role manager contract.\r\n     * assetRouter -  UnoAssetRouter contract. Is given permission to call functions on farms. \r\n     \r\n     * farmBeacon - Farm contract implementation.\r\n     * Farms - links {lpPools} to the deployed Farm contract.\r\n     * lpPools - list of pools that have corresponding deployed Farm contract.\r\n     */\r\n    IUnoAccessManager public accessManager;\r\n    address public assetRouter;\r\n\r\n    address public farmBeacon;\r\n    mapping(address => address) public Farms;\r\n    address[] public pools;\r\n\r\n    event FarmDeployed(address indexed farmAddress);\r\n\r\n    // ============ Methods ============\r\n\r\n    constructor (address _implementation, address _accessManager, address _assetRouter) {\r\n        farmBeacon = address(new UpgradeableBeacon(_implementation));\r\n        accessManager = IUnoAccessManager(_accessManager);\r\n        assetRouter = _assetRouter;\r\n        IUnoAssetRouter(_assetRouter).initialize(_accessManager, address(this)); \r\n    }\r\n\r\n    /**\r\n     * @dev Creates new farm.\r\n     */\r\n    function createFarm(address pool) external returns (address) {\r\n        require(Farms[pool] == address(0), 'FARM_EXISTS');\r\n        Farms[pool] = _createFarm(pool);\r\n        pools.push(pool);\r\n        return Farms[pool];\r\n    }\r\n\r\n    /**\r\n     * @dev Upgrades all farms deployed by this factory using beacon proxy. Only available to the admin.\r\n     */\r\n    function upgradeFarms(address newImplementation) external {\r\n        require(accessManager.hasRole(accessManager.ADMIN_ROLE(), msg.sender), 'CALLER_NOT_ADMIN');\r\n        UpgradeableBeacon(farmBeacon).upgradeTo(newImplementation);\r\n    }\r\n\r\n    /**\r\n     * @dev Deploys new Farm contract and calls initialize on it. Emits {FarmDeployed} event.\r\n     */\r\n    function _createFarm(address _pool) internal returns (address) {\r\n        BeaconProxy proxy = new BeaconProxy(\r\n            farmBeacon,\r\n            abi.encodeWithSelector(\r\n                bytes4(keccak256('initialize(address,address)')),\r\n                _pool,\r\n                assetRouter\r\n            )\r\n        );\r\n        emit FarmDeployed(address(proxy));\r\n        return address(proxy);\r\n    }\r\n\r\n    function poolLength() external view returns (uint256) {\r\n        return pools.length;\r\n    }\r\n}\r\n",
  "sourcePath": "C:\\Users\\nick_\\OneDrive\\\\UNO\\Solidity\\autostrats_balancer\\uno-contracts\\contracts\\UnoFarmFactory.sol",
  "compiler": {
    "name": "solc",
    "version": "0.8.10+commit.fc410830.Emscripten.clang"
  },
  "schemaVersion": "3.4.7",
  "updatedAt": "2022-08-26T13:11:25.261Z",
  "devdoc": {
    "kind": "dev",
    "methods": {
      "createFarm(address)": {
        "details": "Creates new farm."
      },
      "upgradeFarms(address)": {
        "details": "Upgrades all farms deployed by this factory using beacon proxy. Only available to the admin."
      }
    },
    "stateVariables": {
      "accessManager": {
        "details": "Contract Variables: accessManager - Role manager contract. assetRouter -  UnoAssetRouter contract. Is given permission to call functions on farms.  farmBeacon - Farm contract implementation. Farms - links {lpPools} to the deployed Farm contract. lpPools - list of pools that have corresponding deployed Farm contract."
      }
    },
    "version": 1
  },
  "userdoc": {
    "kind": "user",
    "methods": {},
    "version": 1
  }
}