{
  "contractName": "UnoFarmQuickswapDual",
  "abi": [
    {
      "inputs": [],
      "name": "CALLER_NOT_ASSET_ROUTER",
      "type": "error"
    },
    {
      "inputs": [],
      "name": "CALL_ON_THE_SAME_BLOCK",
      "type": "error"
    },
    {
      "inputs": [],
      "name": "INSUFFICIENT_AMOUNT",
      "type": "error"
    },
    {
      "inputs": [],
      "name": "INSUFFICIENT_BALANCE",
      "type": "error"
    },
    {
      "inputs": [],
      "name": "INVALID_ASSET_ROUTER",
      "type": "error"
    },
    {
      "inputs": [
        {
          "internalType": "address",
          "name": "feeToken",
          "type": "address"
        }
      ],
      "name": "INVALID_FEE_ROUTE",
      "type": "error"
    },
    {
      "inputs": [],
      "name": "INVALID_LP_POOL",
      "type": "error"
    },
    {
      "inputs": [
        {
          "internalType": "address",
          "name": "fromToken",
          "type": "address"
        },
        {
          "internalType": "address",
          "name": "toToken",
          "type": "address"
        }
      ],
      "name": "INVALID_ROUTE",
      "type": "error"
    },
    {
      "inputs": [],
      "name": "NO_LIQUIDITY",
      "type": "error"
    },
    {
      "inputs": [],
      "name": "NO_LIQUIDITY_PROVIDED",
      "type": "error"
    },
    {
      "anonymous": false,
      "inputs": [
        {
          "indexed": false,
          "internalType": "uint8",
          "name": "version",
          "type": "uint8"
        }
      ],
      "name": "Initialized",
      "type": "event"
    },
    {
      "inputs": [],
      "name": "assetRouter",
      "outputs": [
        {
          "internalType": "address",
          "name": "",
          "type": "address"
        }
      ],
      "stateMutability": "view",
      "type": "function"
    },
    {
      "inputs": [],
      "name": "lpPool",
      "outputs": [
        {
          "internalType": "address",
          "name": "",
          "type": "address"
        }
      ],
      "stateMutability": "view",
      "type": "function"
    },
    {
      "inputs": [],
      "name": "rewardTokenA",
      "outputs": [
        {
          "internalType": "address",
          "name": "",
          "type": "address"
        }
      ],
      "stateMutability": "view",
      "type": "function"
    },
    {
      "inputs": [],
      "name": "rewardTokenB",
      "outputs": [
        {
          "internalType": "address",
          "name": "",
          "type": "address"
        }
      ],
      "stateMutability": "view",
      "type": "function"
    },
    {
      "inputs": [],
      "name": "tokenA",
      "outputs": [
        {
          "internalType": "address",
          "name": "",
          "type": "address"
        }
      ],
      "stateMutability": "view",
      "type": "function"
    },
    {
      "inputs": [],
      "name": "tokenB",
      "outputs": [
        {
          "internalType": "address",
          "name": "",
          "type": "address"
        }
      ],
      "stateMutability": "view",
      "type": "function"
    },
    {
      "inputs": [
        {
          "internalType": "address",
          "name": "_lpStakingPool",
          "type": "address"
        },
        {
          "internalType": "address",
          "name": "_assetRouter",
          "type": "address"
        }
      ],
      "name": "initialize",
      "outputs": [],
      "stateMutability": "nonpayable",
      "type": "function"
    },
    {
      "inputs": [
        {
          "internalType": "uint256",
          "name": "amount",
          "type": "uint256"
        },
        {
          "internalType": "address",
          "name": "recipient",
          "type": "address"
        }
      ],
      "name": "deposit",
      "outputs": [],
      "stateMutability": "nonpayable",
      "type": "function"
    },
    {
      "inputs": [
        {
          "internalType": "uint256",
          "name": "amount",
          "type": "uint256"
        },
        {
          "internalType": "address",
          "name": "origin",
          "type": "address"
        },
        {
          "internalType": "address",
          "name": "recipient",
          "type": "address"
        }
      ],
      "name": "withdraw",
      "outputs": [],
      "stateMutability": "nonpayable",
      "type": "function"
    },
    {
      "inputs": [
        {
          "components": [
            {
              "internalType": "address[]",
              "name": "route",
              "type": "address[]"
            },
            {
              "internalType": "uint256",
              "name": "amountOutMin",
              "type": "uint256"
            }
          ],
          "internalType": "struct IUnoFarmQuickswapDual.SwapInfo[4]",
          "name": "swapInfos",
          "type": "tuple[4]"
        },
        {
          "components": [
            {
              "internalType": "address[]",
              "name": "route",
              "type": "address[]"
            },
            {
              "internalType": "uint256",
              "name": "amountOutMin",
              "type": "uint256"
            }
          ],
          "internalType": "struct IUnoFarmQuickswapDual.SwapInfo[2]",
          "name": "feeSwapInfos",
          "type": "tuple[2]"
        },
        {
          "components": [
            {
              "internalType": "address",
              "name": "feeTo",
              "type": "address"
            },
            {
              "internalType": "uint256",
              "name": "fee",
              "type": "uint256"
            }
          ],
          "internalType": "struct IUnoFarm.FeeInfo",
          "name": "feeInfo",
          "type": "tuple"
        }
      ],
      "name": "distribute",
      "outputs": [
        {
          "internalType": "uint256",
          "name": "reward",
          "type": "uint256"
        }
      ],
      "stateMutability": "nonpayable",
      "type": "function"
    },
    {
      "inputs": [
        {
          "internalType": "address",
          "name": "_address",
          "type": "address"
        }
      ],
      "name": "userBalance",
      "outputs": [
        {
          "internalType": "uint256",
          "name": "",
          "type": "uint256"
        }
      ],
      "stateMutability": "view",
      "type": "function"
    },
    {
      "inputs": [],
      "name": "getTotalDeposits",
      "outputs": [
        {
          "internalType": "uint256",
          "name": "_totalDeposits",
          "type": "uint256"
        }
      ],
      "stateMutability": "view",
      "type": "function"
    }
  ],
  "bytecode": "0x608060405234801561001057600080fd5b506127ef806100206000396000f3fe608060405234801561001057600080fd5b50600436106100b45760003560e01c80635f64b55b116100715780635f64b55b1461014d5780636b8ba92c146101605780636e553f6514610173578063aa7b83e314610186578063b460af9414610199578063bc0aac10146101ac57600080fd5b80630103c92b146100b957806308fef24a146100df5780630fc63d10146100f2578063168a48221461011d5780633737bcb414610125578063485cc95514610138575b600080fd5b6100cc6100c7366004612206565b6101bf565b6040519081526020015b60405180910390f35b6100cc6100ed366004612223565b6101f3565b603654610105906001600160a01b031681565b6040516001600160a01b0390911681526020016100d6565b6100cc610ea1565b603554610105906001600160a01b031681565b61014b6101463660046122b1565b610f1e565b005b603754610105906001600160a01b031681565b603354610105906001600160a01b031681565b61014b6101813660046122ea565b61165f565b603454610105906001600160a01b031681565b61014b6101a736600461230f565b611785565b603f54610105906001600160a01b031681565b60006101ca8261192c565b6001600160a01b0383166000908152603d60205260409020546101ed9190612367565b92915050565b603f546000906001600160a01b0316331461022157604051637d3781d760e11b815260040160405180910390fd5b6002600154141561024d5760405162461bcd60e51b81526004016102449061237f565b60405180910390fd5b60026001556039546102725760405163f58c8f9160e01b815260040160405180910390fd5b603c544390603e9060009061028f9060019063ffffffff166123b6565b63ffffffff16815260208101919091526040016000205414156102c55760405163fa2a2d8760e01b815260040160405180910390fd5b603860009054906101000a90046001600160a01b03166001600160a01b0316633d18b9126040518163ffffffff1660e01b8152600401600060405180830381600087803b15801561031557600080fd5b505af1158015610329573d6000803e3d6000fd5b5050505061036683600060028110610343576103436123db565b60200281019061035391906123f1565b60335484906001600160a01b0316611ac1565b61038961037660208501856123f1565b60345484906001600160a01b0316611ac1565b6033546040516370a0823160e01b81523060048201526000916002916001600160a01b03909116906370a0823190602401602060405180830381865afa1580156103d7573d6000803e3d6000fd5b505050506040513d601f19601f820116820180604052508101906103fb9190612411565b610405919061242a565b6034546040516370a0823160e01b81523060048201529192506000916002916001600160a01b0316906370a0823190602401602060405180830381865afa158015610454573d6000803e3d6000fd5b505050506040513d601f19601f820116820180604052508101906104789190612411565b610482919061242a565b905081156107b0576033546036546001600160a01b0390811691161461061a573660006104af88806123f1565b6104b9908061244c565b60335491935091506001600160a01b031682826000816104db576104db6123db565b90506020020160208101906104f09190612206565b6001600160a01b031614158061054a57506036546001600160a01b0316828261051a60018261249d565b818110610529576105296123db565b905060200201602081019061053e9190612206565b6001600160a01b031614155b156105815760335460365460405163756cc24d60e11b81526001600160a01b03928316600482015291166024820152604401610244565b73a5e0829caced8ffdd4de3c43696c57f7d7a678ff6338ed1739856105a68b806123f1565b60200135858530426040518763ffffffff1660e01b81526004016105cf969594939291906124b4565b6000604051808303816000875af11580156105ee573d6000803e3d6000fd5b505050506040513d6000823e601f3d908101601f19168201604052610616919081019061253d565b5050505b6033546037546001600160a01b039081169116146107b05736600061064260208901896123f1565b61064c908061244c565b60335491935091506001600160a01b0316828260008161066e5761066e6123db565b90506020020160208101906106839190612206565b6001600160a01b03161415806106dd57506037546001600160a01b031682826106ad60018261249d565b8181106106bc576106bc6123db565b90506020020160208101906106d19190612206565b6001600160a01b031614155b156107145760335460375460405163756cc24d60e11b81526001600160a01b03928316600482015291166024820152604401610244565b73a5e0829caced8ffdd4de3c43696c57f7d7a678ff6338ed17398561073c60208c018c6123f1565b60200135858530426040518763ffffffff1660e01b8152600401610765969594939291906124b4565b6000604051808303816000875af1158015610784573d6000803e3d6000fd5b505050506040513d6000823e601f3d908101601f191682016040526107ac919081019061253d565b5050505b8015610ae2576034546036546001600160a01b0390811691161461094c573660006107de60408901896123f1565b6107e8908061244c565b60345491935091506001600160a01b0316828260008161080a5761080a6123db565b905060200201602081019061081f9190612206565b6001600160a01b031614158061087957506036546001600160a01b0316828261084960018261249d565b818110610858576108586123db565b905060200201602081019061086d9190612206565b6001600160a01b031614155b156108b05760345460365460405163756cc24d60e11b81526001600160a01b03928316600482015291166024820152604401610244565b73a5e0829caced8ffdd4de3c43696c57f7d7a678ff6338ed1739846108d860408c018c6123f1565b60200135858530426040518763ffffffff1660e01b8152600401610901969594939291906124b4565b6000604051808303816000875af1158015610920573d6000803e3d6000fd5b505050506040513d6000823e601f3d908101601f19168201604052610948919081019061253d565b5050505b6034546037546001600160a01b03908116911614610ae25736600061097460608901896123f1565b61097e908061244c565b60345491935091506001600160a01b031682826000816109a0576109a06123db565b90506020020160208101906109b59190612206565b6001600160a01b0316141580610a0f57506037546001600160a01b031682826109df60018261249d565b8181106109ee576109ee6123db565b9050602002016020810190610a039190612206565b6001600160a01b031614155b15610a465760345460375460405163756cc24d60e11b81526001600160a01b03928316600482015291166024820152604401610244565b73a5e0829caced8ffdd4de3c43696c57f7d7a678ff6338ed173984610a6e60608c018c6123f1565b60200135858530426040518763ffffffff1660e01b8152600401610a97969594939291906124b4565b6000604051808303816000875af1158015610ab6573d6000803e3d6000fd5b505050506040513d6000823e601f3d908101601f19168201604052610ade919081019061253d565b5050505b50506036546037546040516370a0823160e01b815230600482015273a5e0829caced8ffdd4de3c43696c57f7d7a678ff9263e8e33700926001600160a01b039182169291169082906370a0823190602401602060405180830381865afa158015610b50573d6000803e3d6000fd5b505050506040513d601f19601f82011682018060405250810190610b749190612411565b6037546040516370a0823160e01b81523060048201526001600160a01b03909116906370a0823190602401602060405180830381865afa158015610bbc573d6000803e3d6000fd5b505050506040513d601f19601f82011682018060405250810190610be09190612411565b610bed60408b018b6123f1565b60200135610bfb8b806123f1565b60200135610c099190612367565b610c1660608c018c6123f1565b60209081013590610c29908d018d6123f1565b60200135610c379190612367565b6040516001600160e01b031960e089901b1681526001600160a01b03968716600482015295909416602486015260448501929092526064840152608483015260a48201523060c48201524260e4820152610104016060604051808303816000875af1158015610caa573d6000803e3d6000fd5b505050506040513d601f19601f82011682018060405250810190610cce91906125fb565b603b5490935060009250610ce391504361249d565b603954610cf09190612629565b603a54610cfd9190612367565b610d0f670de0b6b3a764000084612629565b610d19919061242a565b603c54909150600090603e908290610d399060019063ffffffff166123b6565b63ffffffff168152602081019190915260400160002054610d5a904361249d565b610d649083612629565b603c54603e90600090610d7f9060019063ffffffff166123b6565b63ffffffff1663ffffffff16815260200190815260200160002060020154610da79190612367565b604080516060810182524381526020808201868152828401858152603c805463ffffffff9081166000908152603e90955295842094518555915160018581019190915590516002909401939093558054949550919391929091610e0c91859116612648565b825463ffffffff9182166101009390930a92830291909202199091161790555043603b556000603a5560385460405163534a7e1d60e11b8152600481018590526001600160a01b039091169063a694fc3a90602401600060405180830381600087803b158015610e7b57600080fd5b505af1158015610e8f573d6000803e3d6000fd5b50506001805550929695505050505050565b60395460009015610f1b576038546040516370a0823160e01b81523060048201526001600160a01b03909116906370a0823190602401602060405180830381865afa158015610ef4573d6000803e3d6000fd5b505050506040513d601f19601f82011682018060405250810190610f189190612411565b90505b90565b6000610f2a6001611d4c565b90508015610f42576000805461ff0019166101001790555b6001600160a01b038316610f6957604051635309c5cf60e01b815260040160405180910390fd5b6001600160a01b038216610f9057604051630c17c11560e41b815260040160405180910390fd5b610f98611dd4565b603f80546001600160a01b038085166001600160a01b031992831617909255603880549286169290911682179055604080516372f702f360e01b815290516372f702f3916004808201926020929091908290030181865afa158015611001573d6000803e3d6000fd5b505050506040513d601f19601f820116820180604052508101906110259190612670565b603580546001600160a01b0319166001600160a01b03928316179055603854604080516317f4408360e21b815290519190921691635fd1020c9160048083019260209291908290030181865afa158015611083573d6000803e3d6000fd5b505050506040513d601f19601f820116820180604052508101906110a79190612670565b603380546001600160a01b0319166001600160a01b0392831617905560385460408051634462633360e11b8152905191909216916388c4c6669160048083019260209291908290030181865afa158015611105573d6000803e3d6000fd5b505050506040513d601f19601f820116820180604052508101906111299190612670565b603480546001600160a01b0319166001600160a01b0392831617905560355460408051630dfe168160e01b815290519190921691630dfe16819160048083019260209291908290030181865afa158015611187573d6000803e3d6000fd5b505050506040513d601f19601f820116820180604052508101906111ab9190612670565b603680546001600160a01b0319166001600160a01b039283161790556035546040805163d21220a760e01b81529051919092169163d21220a79160048083019260209291908290030181865afa158015611209573d6000803e3d6000fd5b505050506040513d601f19601f8201168201806040525081019061122d9190612670565b603780546001600160a01b0319166001600160a01b03928316179055604080516060810182524380825260006020808401828152848601838152928052603e90915292517f5f97c64b3c4bdfff50b5c8f505e633128432c6b07fc6c8abc77dce786c7317d45591517f5f97c64b3c4bdfff50b5c8f505e633128432c6b07fc6c8abc77dce786c7317d55590517f5f97c64b3c4bdfff50b5c8f505e633128432c6b07fc6c8abc77dce786c7317d655603c805463ffffffff19166001179055603b55603554905163095ea7b360e01b81528583166004820152600019602482015291169063095ea7b3906044016020604051808303816000875af1158015611338573d6000803e3d6000fd5b505050506040513d601f19601f8201168201806040525081019061135c919061268d565b5060355460405163095ea7b360e01b815273a5e0829caced8ffdd4de3c43696c57f7d7a678ff600482015260001960248201526001600160a01b039091169063095ea7b3906044016020604051808303816000875af11580156113c3573d6000803e3d6000fd5b505050506040513d601f19601f820116820180604052508101906113e7919061268d565b5060335460405163095ea7b360e01b815273a5e0829caced8ffdd4de3c43696c57f7d7a678ff600482015260001960248201526001600160a01b039091169063095ea7b3906044016020604051808303816000875af115801561144e573d6000803e3d6000fd5b505050506040513d601f19601f82011682018060405250810190611472919061268d565b5060345460405163095ea7b360e01b815273a5e0829caced8ffdd4de3c43696c57f7d7a678ff600482015260001960248201526001600160a01b039091169063095ea7b3906044016020604051808303816000875af11580156114d9573d6000803e3d6000fd5b505050506040513d601f19601f820116820180604052508101906114fd919061268d565b5060365460405163095ea7b360e01b815273a5e0829caced8ffdd4de3c43696c57f7d7a678ff600482015260001960248201526001600160a01b039091169063095ea7b3906044016020604051808303816000875af1158015611564573d6000803e3d6000fd5b505050506040513d601f19601f82011682018060405250810190611588919061268d565b5060375460405163095ea7b360e01b815273a5e0829caced8ffdd4de3c43696c57f7d7a678ff600482015260001960248201526001600160a01b039091169063095ea7b3906044016020604051808303816000875af11580156115ef573d6000803e3d6000fd5b505050506040513d601f19601f82011682018060405250810190611613919061268d565b50801561165a576000805461ff0019169055604051600181527f7f26b83ff96e1f2b6a682f133852f6798a09c465da95921460cefb38474024989060200160405180910390a15b505050565b600260015414156116825760405162461bcd60e51b81526004016102449061237f565b6002600155603f546001600160a01b031633146116b257604051637d3781d760e11b815260040160405180910390fd5b816116d0576040516378e321a560e01b815260040160405180910390fd5b6116d981611e05565b6001600160a01b0381166000908152603d602052604081208054849290611701908490612367565b92505081905550816039600082825461171a9190612367565b909155505060385460405163534a7e1d60e11b8152600481018490526001600160a01b039091169063a694fc3a90602401600060405180830381600087803b15801561176557600080fd5b505af1158015611779573d6000803e3d6000fd5b50506001805550505050565b600260015414156117a85760405162461bcd60e51b81526004016102449061237f565b6002600155603f546001600160a01b031633146117d857604051637d3781d760e11b815260040160405180910390fd5b826117f657604051632cd294cf60e01b815260040160405180910390fd5b6117ff82611e05565b6001600160a01b0382166000908152603d602052604090206002810154841115611892576002810154815460009161183691612367565b90508085111561185957604051632858f9ab60e11b815260040160405180910390fd5b611863858261249d565b82556002820154603954869161187891612367565b611882919061249d565b60395550600060028201556118ac565b838160020160008282546118a6919061249d565b90915550505b603854604051632e1a7d4d60e01b8152600481018690526001600160a01b0390911690632e1a7d4d90602401600060405180830381600087803b1580156118f257600080fd5b505af1158015611906573d6000803e3d6000fd5b505060355461192292506001600160a01b031690508386611f2a565b5050600180555050565b6001600160a01b0381166000908152603d60209081526040808320815160a08101835281548152600182015493810193909352600281015491830191909152600381015463ffffffff908116606084018190526004909201546080840152603c5416141561199e576040015192915050565b60608082015163ffffffff166000908152603e60209081526040808320815194850182528054808652600182015493860193909352600201549084015260808401516119e99161249d565b83516119f59190612629565b8360200151611a049190612367565b90506000670de0b6b3a7640000836020015183611a219190612629565b611a2b919061242a565b6040840151603c54919250600091670de0b6b3a76400009190603e908490611a5b9060019063ffffffff166123b6565b63ffffffff1663ffffffff16815260200190815260200160002060020154611a83919061249d565b8651611a8f9190612629565b611a99919061242a565b905080828660400151611aac9190612367565b611ab69190612367565b979650505050505050565b6001600160a01b03811615801590611aef57506000611ae36020840184612206565b6001600160a01b031614155b1561165a576040516370a0823160e01b8152306004820152600090670de0b6b3a7640000906020850135906001600160a01b038516906370a0823190602401602060405180830381865afa158015611b4b573d6000803e3d6000fd5b505050506040513d601f19601f82011682018060405250810190611b6f9190612411565b611b799190612629565b611b83919061242a565b90508015611d4657366000611b98868061244c565b90925090508015801590611c1557508181611bb460018261249d565b818110611bc357611bc36123db565b9050602002016020810190611bd89190612206565b6001600160a01b031682826000818110611bf457611bf46123db565b9050602002016020810190611c099190612206565b6001600160a01b031614155b15611d2257836001600160a01b031682826000818110611c3757611c376123db565b9050602002016020810190611c4c9190612206565b6001600160a01b031614611c7e57604051630b65ba9d60e41b81526001600160a01b0385166004820152602401610244565b73a5e0829caced8ffdd4de3c43696c57f7d7a678ff6338ed1739846020808a01359086908690611cb0908c018c612206565b426040518763ffffffff1660e01b8152600401611cd2969594939291906124b4565b6000604051808303816000875af1158015611cf1573d6000803e3d6000fd5b505050506040513d6000823e601f3d908101601f19168201604052611d19919081019061253d565b50505050505050565b611d43611d326020870187612206565b6001600160a01b0386169085611f2a565b50505b50505050565b60008054610100900460ff1615611d93578160ff166001148015611d6f5750303b155b611d8b5760405162461bcd60e51b8152600401610244906126af565b506000919050565b60005460ff808416911610611dba5760405162461bcd60e51b8152600401610244906126af565b506000805460ff191660ff92909216919091179055600190565b600054610100900460ff16611dfb5760405162461bcd60e51b8152600401610244906126fd565b611e03611f7c565b565b6001600160a01b0381166000908152603d60205260409020603c54600382015463ffffffff90811691161415611e6e576004810154611e44904361249d565b8154611e509190612629565b816001016000828254611e639190612367565b90915550611eca9050565b611e778261192c565b6002820155603c54603e90600090611e979060019063ffffffff166123b6565b63ffffffff168152602081019190915260400160002054611eb8904361249d565b8154611ec49190612629565b60018201555b603c5460038201805463ffffffff191663ffffffff9092169190911790554360048201819055603954603b549091611f02919061249d565b611f0c9190612629565b603a6000828254611f1d9190612367565b909155505043603b555050565b604080516001600160a01b038416602482015260448082018490528251808303909101815260649091019091526020810180516001600160e01b031663a9059cbb60e01b17905261165a908490611fa9565b600054610100900460ff16611fa35760405162461bcd60e51b8152600401610244906126fd565b60018055565b6000611ffe826040518060400160405280602081526020017f5361666545524332303a206c6f772d6c6576656c2063616c6c206661696c6564815250856001600160a01b031661207b9092919063ffffffff16565b80519091501561165a578080602001905181019061201c919061268d565b61165a5760405162461bcd60e51b815260206004820152602a60248201527f5361666545524332303a204552433230206f7065726174696f6e20646964206e6044820152691bdd081cdd58d8d9595960b21b6064820152608401610244565b606061208a8484600085612094565b90505b9392505050565b6060824710156120f55760405162461bcd60e51b815260206004820152602660248201527f416464726573733a20696e73756666696369656e742062616c616e636520666f6044820152651c8818d85b1b60d21b6064820152608401610244565b6001600160a01b0385163b61214c5760405162461bcd60e51b815260206004820152601d60248201527f416464726573733a2063616c6c20746f206e6f6e2d636f6e74726163740000006044820152606401610244565b600080866001600160a01b031685876040516121689190612774565b60006040518083038185875af1925050503d80600081146121a5576040519150601f19603f3d011682016040523d82523d6000602084013e6121aa565b606091505b5091509150611ab6828286606083156121c457508161208d565b8251156121d45782518084602001fd5b8160405162461bcd60e51b81526004016102449190612786565b6001600160a01b038116811461220357600080fd5b50565b60006020828403121561221857600080fd5b813561208d816121ee565b6000806000838503608081121561223957600080fd5b843567ffffffffffffffff8082111561225157600080fd5b81870191508760808301111561226657600080fd5b9094506020860135908082111561227c57600080fd5b5085016040810187101561228f57600080fd5b92506040603f19820112156122a357600080fd5b506040840190509250925092565b600080604083850312156122c457600080fd5b82356122cf816121ee565b915060208301356122df816121ee565b809150509250929050565b600080604083850312156122fd57600080fd5b8235915060208301356122df816121ee565b60008060006060848603121561232457600080fd5b833592506020840135612336816121ee565b91506040840135612346816121ee565b809150509250925092565b634e487b7160e01b600052601160045260246000fd5b6000821982111561237a5761237a612351565b500190565b6020808252601f908201527f5265656e7472616e637947756172643a207265656e7472616e742063616c6c00604082015260600190565b600063ffffffff838116908316818110156123d3576123d3612351565b039392505050565b634e487b7160e01b600052603260045260246000fd5b60008235603e1983360301811261240757600080fd5b9190910192915050565b60006020828403121561242357600080fd5b5051919050565b60008261244757634e487b7160e01b600052601260045260246000fd5b500490565b6000808335601e1984360301811261246357600080fd5b83018035915067ffffffffffffffff82111561247e57600080fd5b6020019150600581901b360382131561249657600080fd5b9250929050565b6000828210156124af576124af612351565b500390565b868152602080820187905260a0604083018190528201859052600090869060c08401835b888110156125065783356124eb816121ee565b6001600160a01b0316825292820192908201906001016124d8565b506001600160a01b0396909616606085015250505060800152949350505050565b634e487b7160e01b600052604160045260246000fd5b6000602080838503121561255057600080fd5b825167ffffffffffffffff8082111561256857600080fd5b818501915085601f83011261257c57600080fd5b81518181111561258e5761258e612527565b8060051b604051601f19603f830116810181811085821117156125b3576125b3612527565b6040529182528482019250838101850191888311156125d157600080fd5b938501935b828510156125ef578451845293850193928501926125d6565b98975050505050505050565b60008060006060848603121561261057600080fd5b8351925060208401519150604084015190509250925092565b600081600019048311821515161561264357612643612351565b500290565b600063ffffffff80831681851680830382111561266757612667612351565b01949350505050565b60006020828403121561268257600080fd5b815161208d816121ee565b60006020828403121561269f57600080fd5b8151801515811461208d57600080fd5b6020808252602e908201527f496e697469616c697a61626c653a20636f6e747261637420697320616c72656160408201526d191e481a5b9a5d1a585b1a5e995960921b606082015260800190565b6020808252602b908201527f496e697469616c697a61626c653a20636f6e7472616374206973206e6f74206960408201526a6e697469616c697a696e6760a81b606082015260800190565b60005b8381101561276357818101518382015260200161274b565b83811115611d465750506000910152565b60008251612407818460208701612748565b60208152600082518060208401526127a5816040850160208701612748565b601f01601f1916919091016040019291505056fea2646970667358221220d2d6ecf51a8078c9bae28fa67e352d52ff9cc800969091fb510fb24676b881e364736f6c634300080a0033",
  "immutableReferences": {},
  "source": "// SPDX-License-Identifier: MIT\r\npragma solidity 0.8.10;\r\n \r\nimport './interfaces/IUnoFarmQuickswapDual.sol';\r\nimport '../../interfaces/IUniswapV2Pair.sol';\r\nimport '../../interfaces/IUniswapV2Router.sol';\r\nimport '../../interfaces/IStakingDualRewards.sol';\r\nimport '@openzeppelin/contracts-upgradeable/security/ReentrancyGuardUpgradeable.sol';\r\nimport '@openzeppelin/contracts/token/ERC20/utils/SafeERC20.sol';\r\nimport '@openzeppelin/contracts-upgradeable/proxy/utils/Initializable.sol';\r\n\r\ncontract UnoFarmQuickswapDual is Initializable, ReentrancyGuardUpgradeable, IUnoFarmQuickswapDual {\r\n    using SafeERC20 for IERC20;\r\n\r\n    /**\r\n     * @dev Tokens Used:\r\n     * {rewardTokenA, rewardTokenB} - Tokens generated by staking.\r\n     * {lpPool} - Token that the strategy maximizes. The same token that users deposit in the {lpStakingPool}.\r\n     * {tokenA, tokenB} - Tokens that the strategy maximizes.\r\n     */\r\n    address public rewardTokenA;\r\n    address public rewardTokenB;\r\n    address public lpPool;\r\n    address public tokenA;\r\n    address public tokenB;\r\n\r\n    /**\r\n     * @dev Third Party Contracts:\r\n     * {quickswapRouter} - Contract that executes swaps.\r\n     * {lpStakingPool} - Contract that distibutes {rewardTokenA, rewardTokenB}.\r\n     */\r\n    IUniswapV2Router01 private constant quickswapRouter = IUniswapV2Router01(0xa5E0829CaCEd8fFDD4De3c43696c57F7D7A678ff); \r\n    IStakingDualRewards private lpStakingPool;\r\n\r\n    /**\r\n     * @dev Contract Variables:\r\n     * {totalDeposits} - Total deposits made by users.\r\n     * {totalDepositAge} - Deposits multiplied by blocks the deposit has been in. Flushed every reward distribution.\r\n     * {totalDepositLastUpdate} - Last {totalDepositAge} update block.\r\n\r\n     * {distributionID} - Current distribution ID.\r\n     * {userInfo} - Info on each user.\r\n     * {distributionInfo} - Info on each distribution.\r\n\r\n     * {fractionMultiplier} - Used to store decimal values.\r\n     */\r\n    uint256 private totalDeposits;\r\n    uint256 private totalDepositAge;\r\n    uint256 private totalDepositLastUpdate;\r\n\r\n    uint32 private distributionID;\r\n    mapping(address => UserInfo) private userInfo;\r\n    mapping(uint32 => DistributionInfo) private distributionInfo;\r\n\r\n    uint256 private constant fractionMultiplier = uint256(1 ether);\r\n\r\n    /**\r\n     * @dev Contract Variables:\r\n     * {assetRouter} - The contract from which calls to this farm are made.\r\n     */\r\n    address public assetRouter;\r\n    modifier onlyAssetRouter(){\r\n        if(msg.sender != assetRouter) revert CALLER_NOT_ASSET_ROUTER();\r\n        _;\r\n    }\r\n\r\n    // ============ Methods ============\r\n\r\n    function initialize(address _lpStakingPool, address _assetRouter) external initializer {\r\n        if(_lpStakingPool == address(0)) revert INVALID_LP_POOL();\r\n        if(_assetRouter == address(0)) revert INVALID_ASSET_ROUTER();\r\n\r\n        __ReentrancyGuard_init();\r\n        assetRouter = _assetRouter;\r\n\r\n        lpStakingPool = IStakingDualRewards(_lpStakingPool);\r\n        lpPool = address(lpStakingPool.stakingToken());\r\n\r\n        rewardTokenA = lpStakingPool.rewardsTokenA();\r\n        rewardTokenB = lpStakingPool.rewardsTokenB();\r\n\r\n        tokenA = IUniswapV2Pair(lpPool).token0();\r\n        tokenB = IUniswapV2Pair(lpPool).token1();\r\n\r\n        distributionInfo[0] = DistributionInfo({\r\n            block: block.number,\r\n            rewardPerDepositAge: 0,\r\n            cumulativeRewardAgePerDepositAge: 0\r\n        });\r\n        distributionID = 1;\r\n        totalDepositLastUpdate = block.number;\r\n\r\n        IERC20(lpPool).approve(_lpStakingPool, type(uint256).max);\r\n        IERC20(lpPool).approve(address(quickswapRouter), type(uint256).max);\r\n        IERC20(rewardTokenA).approve(address(quickswapRouter), type(uint256).max);\r\n        IERC20(rewardTokenB).approve(address(quickswapRouter), type(uint256).max);\r\n        IERC20(tokenA).approve(address(quickswapRouter), type(uint256).max);\r\n        IERC20(tokenB).approve(address(quickswapRouter), type(uint256).max);\r\n    }\r\n\r\n    /**\r\n     * @dev Function that makes the deposits.\r\n     * Stakes {amount} of LP tokens from this contract's balance in the {lpStakingPool}.\r\n     */\r\n    function deposit(uint256 amount, address recipient) external nonReentrant onlyAssetRouter{\r\n        if(amount == 0) revert NO_LIQUIDITY_PROVIDED();\r\n\r\n        _updateDeposit(recipient);\r\n        userInfo[recipient].stake += amount;\r\n        totalDeposits += amount;\r\n            \r\n        lpStakingPool.stake(amount);\r\n    }\r\n\r\n    /**\r\n     * @dev Withdraws funds from {origin} and sends them to the {recipient}.\r\n     */\r\n    function withdraw(uint256 amount, address origin, address recipient) external nonReentrant onlyAssetRouter{\r\n        if(amount == 0) revert INSUFFICIENT_AMOUNT();\r\n\r\n        _updateDeposit(origin);\r\n        UserInfo storage user = userInfo[origin];\r\n        // Subtract amount from user.reward first, then subtract remainder from user.stake.\r\n        if(amount > user.reward){\r\n            uint256 balance = user.stake + user.reward;\r\n            if(amount > balance) revert INSUFFICIENT_BALANCE();\r\n\r\n            user.stake = balance - amount;\r\n            totalDeposits = totalDeposits + user.reward - amount;\r\n            user.reward = 0;\r\n        } else {\r\n            user.reward -= amount;\r\n        }\r\n\r\n        lpStakingPool.withdraw(amount);\r\n        IERC20(lpPool).safeTransfer(recipient, amount);\r\n    }\r\n\r\n    /**\r\n     * @dev Core function of the strat, in charge of updating, collecting and re-investing rewards.\r\n     * 1. It claims rewards from the {lpStakingPool}.\r\n     * 2. It swaps {rewardToken} token for {tokenA} & {tokenB}.\r\n     * 3. It deposits new LP tokens back to the {lpStakingPool}.\r\n     */\r\n    function distribute(\r\n        SwapInfo[4] calldata swapInfos,\r\n        SwapInfo[2] calldata feeSwapInfos,\r\n        FeeInfo calldata feeInfo\r\n    ) external onlyAssetRouter nonReentrant returns(uint256 reward){\r\n        if(totalDeposits == 0) revert NO_LIQUIDITY();\r\n        if(distributionInfo[distributionID - 1].block == block.number) revert CALL_ON_THE_SAME_BLOCK();\r\n\r\n        lpStakingPool.getReward();\r\n\r\n        _collectFees(feeSwapInfos[0], feeInfo, rewardTokenA);\r\n        _collectFees(feeSwapInfos[1], feeInfo, rewardTokenB);\r\n        { // scope to avoid stack too deep errors\r\n        uint256 rewardTokenAHalf = IERC20(rewardTokenA).balanceOf(address(this)) / 2;\r\n        uint256 rewardTokenBHalf = IERC20(rewardTokenB).balanceOf(address(this)) / 2;\r\n        if (rewardTokenAHalf > 0) {\r\n            if (tokenA != rewardTokenA) {\r\n                address[] calldata route = swapInfos[0].route;\r\n                if(route[0] != rewardTokenA || route[route.length - 1] != tokenA) revert INVALID_ROUTE(rewardTokenA, tokenA);\r\n                quickswapRouter.swapExactTokensForTokens(rewardTokenAHalf, swapInfos[0].amountOutMin, route, address(this), block.timestamp);\r\n            }\r\n\r\n            if (tokenB != rewardTokenA) {\r\n                address[] calldata route = swapInfos[1].route;\r\n                if(route[0] != rewardTokenA || route[route.length - 1] != tokenB) revert INVALID_ROUTE(rewardTokenA, tokenB);\r\n                quickswapRouter.swapExactTokensForTokens(rewardTokenAHalf, swapInfos[1].amountOutMin, route, address(this), block.timestamp);\r\n            }\r\n        }\r\n        if (rewardTokenBHalf > 0) {\r\n            if (tokenA != rewardTokenB) {\r\n                address[] calldata route = swapInfos[2].route;\r\n                if (route[0] != rewardTokenB || route[route.length - 1] != tokenA) revert INVALID_ROUTE(rewardTokenB, tokenA);\r\n                quickswapRouter.swapExactTokensForTokens(rewardTokenBHalf, swapInfos[2].amountOutMin, route, address(this), block.timestamp);\r\n            }\r\n    \r\n            if (tokenB != rewardTokenB) {\r\n                address[] calldata route = swapInfos[3].route;\r\n                if (route[0] != rewardTokenB || route[route.length - 1] != tokenB) revert INVALID_ROUTE(rewardTokenB, tokenB);\r\n                quickswapRouter.swapExactTokensForTokens(rewardTokenBHalf, swapInfos[3].amountOutMin, route, address(this), block.timestamp);\r\n            }\r\n        }\r\n        }\r\n        \r\n        (,,reward) = quickswapRouter.addLiquidity(tokenA, tokenB, IERC20(tokenA).balanceOf(address(this)), IERC20(tokenB).balanceOf(address(this)), swapInfos[0].amountOutMin + swapInfos[2].amountOutMin, swapInfos[1].amountOutMin + swapInfos[3].amountOutMin, address(this), block.timestamp);\r\n\r\n        uint256 rewardPerDepositAge = reward * fractionMultiplier / (totalDepositAge + totalDeposits * (block.number - totalDepositLastUpdate));\r\n        uint256 cumulativeRewardAgePerDepositAge = distributionInfo[distributionID - 1].cumulativeRewardAgePerDepositAge + rewardPerDepositAge * (block.number - distributionInfo[distributionID - 1].block);\r\n\r\n        distributionInfo[distributionID] = DistributionInfo({\r\n            block: block.number,\r\n            rewardPerDepositAge: rewardPerDepositAge,\r\n            cumulativeRewardAgePerDepositAge: cumulativeRewardAgePerDepositAge\r\n        });\r\n\r\n        distributionID += 1;\r\n        totalDepositLastUpdate = block.number;\r\n        totalDepositAge = 0;\r\n\r\n        lpStakingPool.stake(reward);\r\n    }\r\n\r\n    /**\r\n     * @dev Swaps and sends fees to feeTo.\r\n     */\r\n    function _collectFees(SwapInfo calldata feeSwapInfo, FeeInfo calldata feeInfo, address token) internal {\r\n        if(token != address(0) && feeInfo.feeTo != address(0)){\r\n            uint256 feeAmount = IERC20(token).balanceOf(address(this)) * feeInfo.fee / fractionMultiplier;\r\n            if(feeAmount > 0){\r\n                address[] calldata route = feeSwapInfo.route;\r\n                if(route.length > 0 && route[0] != route[route.length - 1]){\r\n                    if(route[0] != token) revert INVALID_FEE_ROUTE(token);\r\n                    quickswapRouter.swapExactTokensForTokens(feeAmount, feeSwapInfo.amountOutMin, route, feeInfo.feeTo, block.timestamp);\r\n                    return;\r\n                }\r\n                IERC20(token).safeTransfer(feeInfo.feeTo, feeAmount);\r\n            }\r\n        }\r\n    }\r\n\r\n    /**\r\n     * @dev Returns total funds staked by the {_address}.\r\n     */\r\n    function userBalance(address _address) external view returns (uint256) {\r\n        return userInfo[_address].stake + _userReward(_address);\r\n    }\r\n\r\n    /**\r\n     * @dev Returns total funds locked in the farm.\r\n     */\r\n    function getTotalDeposits() external view returns (uint256 _totalDeposits) {\r\n        if(totalDeposits > 0){\r\n            _totalDeposits = lpStakingPool.balanceOf(address(this));\r\n        }\r\n    }\r\n\r\n    function _updateDeposit(address _address) internal {\r\n        UserInfo storage user = userInfo[_address];\r\n        // Accumulate deposit age within the current distribution period.\r\n        if (user.lastDistribution == distributionID) {\r\n            // Add deposit age from previous deposit age update to now.\r\n            user.depositAge += user.stake * (block.number - user.lastUpdate);\r\n        } else {\r\n            // A reward has been distributed, update user.reward.\r\n            user.reward = _userReward(_address);\r\n            // Count fresh deposit age from previous reward distribution to now.\r\n            user.depositAge = user.stake * (block.number - distributionInfo[distributionID - 1].block);\r\n        }\r\n\r\n        user.lastDistribution = distributionID;\r\n        user.lastUpdate = block.number;\r\n\r\n        // Same with total deposit age.\r\n        totalDepositAge += (block.number - totalDepositLastUpdate) * totalDeposits;\r\n        totalDepositLastUpdate = block.number;\r\n    }\r\n\r\n    function _userReward(address _address) internal view returns (uint256) {\r\n        UserInfo memory user = userInfo[_address];\r\n        if (user.lastDistribution == distributionID) {\r\n            // Return user.reward if the distribution after the last user deposit did not happen yet.\r\n            return user.reward;\r\n        }\r\n        DistributionInfo memory lastUserDistributionInfo = distributionInfo[user.lastDistribution];\r\n        uint256 userDepositAge = user.depositAge + user.stake * (lastUserDistributionInfo.block - user.lastUpdate);\r\n        // Calculate reward between the last user deposit and the distribution after that.\r\n        uint256 rewardBeforeDistibution = userDepositAge * lastUserDistributionInfo.rewardPerDepositAge / fractionMultiplier;\r\n        // Calculate reward from the distributions that have happened after the last user deposit.\r\n        uint256 rewardAfterDistribution = user.stake * (distributionInfo[distributionID - 1].cumulativeRewardAgePerDepositAge - lastUserDistributionInfo.cumulativeRewardAgePerDepositAge) / fractionMultiplier;\r\n        return user.reward + rewardBeforeDistibution + rewardAfterDistribution;\r\n    }\r\n}\r\n",
  "sourcePath": "C:\\Users\\jugli\\Desktop\\uno\\uno-contracts\\contracts\\apps\\quickswapDual\\UnoFarmQuickswapDual.sol",
  "compiler": {
    "name": "solc",
    "version": "0.8.10+commit.fc410830.Emscripten.clang"
  },
  "schemaVersion": "3.4.13",
  "updatedAt": "2023-06-11T08:38:09.539Z",
  "devdoc": {
    "kind": "dev",
    "methods": {
      "deposit(uint256,address)": {
        "details": "Function that makes the deposits. Stakes {amount} of LP tokens from this contract's balance in the {lpStakingPool}."
      },
      "distribute((address[],uint256)[4],(address[],uint256)[2],(address,uint256))": {
        "details": "Core function of the strat, in charge of updating, collecting and re-investing rewards. 1. It claims rewards from the {lpStakingPool}. 2. It swaps {rewardToken} token for {tokenA} & {tokenB}. 3. It deposits new LP tokens back to the {lpStakingPool}."
      },
      "getTotalDeposits()": {
        "details": "Returns total funds locked in the farm."
      },
      "userBalance(address)": {
        "details": "Returns total funds staked by the {_address}."
      },
      "withdraw(uint256,address,address)": {
        "details": "Withdraws funds from {origin} and sends them to the {recipient}."
      }
    },
    "stateVariables": {
      "assetRouter": {
        "details": "Contract Variables: {assetRouter} - The contract from which calls to this farm are made."
      },
      "quickswapRouter": {
        "details": "Third Party Contracts: {quickswapRouter} - Contract that executes swaps. {lpStakingPool} - Contract that distibutes {rewardTokenA, rewardTokenB}."
      },
      "rewardTokenA": {
        "details": "Tokens Used: {rewardTokenA, rewardTokenB} - Tokens generated by staking. {lpPool} - Token that the strategy maximizes. The same token that users deposit in the {lpStakingPool}. {tokenA, tokenB} - Tokens that the strategy maximizes."
      },
      "totalDeposits": {
        "details": "Contract Variables: {totalDeposits} - Total deposits made by users. {totalDepositAge} - Deposits multiplied by blocks the deposit has been in. Flushed every reward distribution. {totalDepositLastUpdate} - Last {totalDepositAge} update block. {distributionID} - Current distribution ID. {userInfo} - Info on each user. {distributionInfo} - Info on each distribution. {fractionMultiplier} - Used to store decimal values."
      }
    },
    "version": 1
  },
  "userdoc": {
    "kind": "user",
    "methods": {},
    "version": 1
  }
}