{
  "contractName": "UnoFarmBalancer",
  "abi": [
    {
      "anonymous": false,
      "inputs": [
        {
          "indexed": false,
          "internalType": "uint8",
          "name": "version",
          "type": "uint8"
        }
      ],
      "name": "Initialized",
      "type": "event"
    },
    {
      "inputs": [],
      "name": "assetRouter",
      "outputs": [
        {
          "internalType": "address",
          "name": "",
          "type": "address"
        }
      ],
      "stateMutability": "view",
      "type": "function"
    },
    {
      "inputs": [],
      "name": "gauge",
      "outputs": [
        {
          "internalType": "contract IRewardsOnlyGauge",
          "name": "",
          "type": "address"
        }
      ],
      "stateMutability": "view",
      "type": "function"
    },
    {
      "inputs": [],
      "name": "lpPool",
      "outputs": [
        {
          "internalType": "address",
          "name": "",
          "type": "address"
        }
      ],
      "stateMutability": "view",
      "type": "function"
    },
    {
      "inputs": [],
      "name": "poolId",
      "outputs": [
        {
          "internalType": "bytes32",
          "name": "",
          "type": "bytes32"
        }
      ],
      "stateMutability": "view",
      "type": "function"
    },
    {
      "inputs": [
        {
          "internalType": "address",
          "name": "_lpPool",
          "type": "address"
        },
        {
          "internalType": "address",
          "name": "_assetRouter",
          "type": "address"
        }
      ],
      "name": "initialize",
      "outputs": [],
      "stateMutability": "nonpayable",
      "type": "function"
    },
    {
      "inputs": [
        {
          "internalType": "uint256[]",
          "name": "amounts",
          "type": "uint256[]"
        },
        {
          "internalType": "address[]",
          "name": "tokens",
          "type": "address[]"
        },
        {
          "internalType": "uint256",
          "name": "minAmountLP",
          "type": "uint256"
        },
        {
          "internalType": "uint256",
          "name": "amountLP",
          "type": "uint256"
        },
        {
          "internalType": "address",
          "name": "recipient",
          "type": "address"
        }
      ],
      "name": "deposit",
      "outputs": [
        {
          "internalType": "uint256",
          "name": "liquidity",
          "type": "uint256"
        }
      ],
      "stateMutability": "nonpayable",
      "type": "function"
    },
    {
      "inputs": [
        {
          "internalType": "uint256",
          "name": "amount",
          "type": "uint256"
        },
        {
          "internalType": "uint256[]",
          "name": "minAmountsOut",
          "type": "uint256[]"
        },
        {
          "internalType": "bool",
          "name": "withdrawLP",
          "type": "bool"
        },
        {
          "internalType": "address",
          "name": "origin",
          "type": "address"
        },
        {
          "internalType": "address",
          "name": "recipient",
          "type": "address"
        }
      ],
      "name": "withdraw",
      "outputs": [
        {
          "internalType": "uint256[]",
          "name": "amounts",
          "type": "uint256[]"
        }
      ],
      "stateMutability": "nonpayable",
      "type": "function"
    },
    {
      "inputs": [
        {
          "components": [
            {
              "components": [
                {
                  "internalType": "bytes32",
                  "name": "poolId",
                  "type": "bytes32"
                },
                {
                  "internalType": "uint256",
                  "name": "assetInIndex",
                  "type": "uint256"
                },
                {
                  "internalType": "uint256",
                  "name": "assetOutIndex",
                  "type": "uint256"
                },
                {
                  "internalType": "uint256",
                  "name": "amount",
                  "type": "uint256"
                },
                {
                  "internalType": "bytes",
                  "name": "userData",
                  "type": "bytes"
                }
              ],
              "internalType": "struct IVault.BatchSwapStep[]",
              "name": "swaps",
              "type": "tuple[]"
            },
            {
              "internalType": "contract IERC20[]",
              "name": "assets",
              "type": "address[]"
            },
            {
              "internalType": "int256[]",
              "name": "limits",
              "type": "int256[]"
            }
          ],
          "internalType": "struct UnoFarmBalancer.SwapInfo[]",
          "name": "swapInfos",
          "type": "tuple[]"
        },
        {
          "components": [
            {
              "components": [
                {
                  "internalType": "bytes32",
                  "name": "poolId",
                  "type": "bytes32"
                },
                {
                  "internalType": "uint256",
                  "name": "assetInIndex",
                  "type": "uint256"
                },
                {
                  "internalType": "uint256",
                  "name": "assetOutIndex",
                  "type": "uint256"
                },
                {
                  "internalType": "uint256",
                  "name": "amount",
                  "type": "uint256"
                },
                {
                  "internalType": "bytes",
                  "name": "userData",
                  "type": "bytes"
                }
              ],
              "internalType": "struct IVault.BatchSwapStep[]",
              "name": "swaps",
              "type": "tuple[]"
            },
            {
              "internalType": "contract IERC20[]",
              "name": "assets",
              "type": "address[]"
            },
            {
              "internalType": "int256[]",
              "name": "limits",
              "type": "int256[]"
            }
          ],
          "internalType": "struct UnoFarmBalancer.SwapInfo[]",
          "name": "feeSwapInfos",
          "type": "tuple[]"
        },
        {
          "components": [
            {
              "internalType": "address",
              "name": "feeTo",
              "type": "address"
            },
            {
              "internalType": "uint256",
              "name": "fee",
              "type": "uint256"
            }
          ],
          "internalType": "struct UnoFarmBalancer.FeeInfo",
          "name": "feeInfo",
          "type": "tuple"
        }
      ],
      "name": "distribute",
      "outputs": [
        {
          "internalType": "uint256",
          "name": "reward",
          "type": "uint256"
        }
      ],
      "stateMutability": "nonpayable",
      "type": "function"
    },
    {
      "inputs": [
        {
          "internalType": "address",
          "name": "_address",
          "type": "address"
        }
      ],
      "name": "userBalance",
      "outputs": [
        {
          "internalType": "uint256",
          "name": "",
          "type": "uint256"
        }
      ],
      "stateMutability": "view",
      "type": "function"
    },
    {
      "inputs": [],
      "name": "getTotalDeposits",
      "outputs": [
        {
          "internalType": "uint256",
          "name": "_totalDeposits",
          "type": "uint256"
        }
      ],
      "stateMutability": "view",
      "type": "function"
    }
  ],
  "bytecode": "0x608060405234801561001057600080fd5b506131d3806100206000396000f3fe608060405234801561001057600080fd5b506004361061009e5760003560e01c80633f3ce8d2116100665780633f3ce8d21461011857806344e4cb0a14610138578063485cc9551461014b578063a6f19c8414610160578063bc0aac101461017357600080fd5b80630103c92b146100a35780630faa5a1f146100c9578063168a4822146100dc5780633737bcb4146100e45780633e0dc34e1461010f575b600080fd5b6100b66100b136600461259e565b610186565b6040519081526020015b60405180910390f35b6100b66100d7366004612607565b6101ba565b6100b6610b98565b6035546100f7906001600160a01b031681565b6040516001600160a01b0390911681526020016100c0565b6100b660365481565b61012b6101263660046126a1565b610c15565b6040516100c09190612761565b6100b6610146366004612853565b6111fa565b61015e610159366004612930565b6117d7565b005b6033546100f7906001600160a01b031681565b603d546100f7906001600160a01b031681565b600061019182611cdd565b6001600160a01b0383166000908152603b60205260409020546101b4919061297f565b92915050565b603d546000906001600160a01b031633146101f05760405162461bcd60e51b81526004016101e790612997565b60405180910390fd5b600260015414156102135760405162461bcd60e51b81526004016101e7906129ce565b60026001556037546102565760405162461bcd60e51b815260206004820152600c60248201526b4e4f5f4c495155494449545960a01b60448201526064016101e7565b603a544390603c906000906102739060019063ffffffff16612a05565b63ffffffff16815260208101919091526040016000205414156102d85760405162461bcd60e51b815260206004820152601b60248201527f43414e545f43414c4c5f4f4e5f5448455f53414d455f424c4f434b000000000060448201526064016101e7565b6034546040805163963c94b960e01b815290516000926001600160a01b03169163963c94b99160048083019260209291908290030181865afa158015610322573d6000803e3d6000fd5b505050506040513d601f19601f820116820180604052508101906103469190612a2a565b9050858114801561035657508381145b6103b05760405162461bcd60e51b815260206004820152602560248201527f504152414d535f4c454e475448535f4e4f545f4d415443485f5245574152445f60448201526410d3d5539560da1b60648201526084016101e7565b603360009054906101000a90046001600160a01b03166001600160a01b031663e6f1daf26040518163ffffffff1660e01b8152600401600060405180830381600087803b15801561040057600080fd5b505af1158015610414573d6000803e3d6000fd5b5050505060005b81811015610612576034546040516354c49fe960e01b8152600481018390526000916001600160a01b0316906354c49fe990602401602060405180830381865afa15801561046d573d6000803e3d6000fd5b505050506040513d601f19601f820116820180604052508101906104919190612a43565b6033549091506001600160a01b038083169116146105ff576104d78787848181106104be576104be612a60565b90506020028101906104d09190612a76565b8683611e72565b6040516370a0823160e01b81523060048201526000906001600160a01b038316906370a0823190602401602060405180830381865afa15801561051e573d6000803e3d6000fd5b505050506040513d601f19601f820116820180604052508101906105429190612a2a565b905080156105fd5760405163095ea7b360e01b815273ba12222222228d8ba445958a75a0704d566bf2c86004820152602481018290526001600160a01b0383169063095ea7b3906044016020604051808303816000875af11580156105ab573d6000803e3d6000fd5b505050506040513d601f19601f820116820180604052508101906105cf9190612a96565b506105fd8a8a858181106105e5576105e5612a60565b90506020028101906105f79190612a76565b30611ffd565b505b508061060a81612ab3565b91505061041b565b50603654604051631f29a8cd60e31b815260009173ba12222222228d8ba445958a75a0704d566bf2c89163f94d4668916106529160040190815260200190565b600060405180830381865afa15801561066f573d6000803e3d6000fd5b505050506040513d6000823e601f3d908101601f191682016040526106979190810190612b29565b505090506000815167ffffffffffffffff8111156106b7576106b7612774565b6040519080825280602002602001820160405280156106e0578160200160208202803683370190505b50905060005b82518110156108945782818151811061070157610701612a60565b60209081029190910101516040516370a0823160e01b81523060048201526001600160a01b03909116906370a0823190602401602060405180830381865afa158015610751573d6000803e3d6000fd5b505050506040513d601f19601f820116820180604052508101906107759190612a2a565b82828151811061078757610787612a60565b60200260200101818152505060008282815181106107a7576107a7612a60565b60200260200101511115610882578281815181106107c7576107c7612a60565b60200260200101516001600160a01b031663095ea7b373ba12222222228d8ba445958a75a0704d566bf2c884848151811061080457610804612a60565b60200260200101516040518363ffffffff1660e01b815260040161083d9291906001600160a01b03929092168252602082015260400190565b6020604051808303816000875af115801561085c573d6000803e3d6000fd5b505050506040513d601f19601f820116820180604052508101906108809190612a96565b505b8061088c81612ab3565b9150506106e6565b5073ba12222222228d8ba445958a75a0704d566bf2c86001600160a01b031663b95cac286036543030604051806080016040528088815260200187815260200160018860016040516020016108eb93929190612bf7565b6040516020818303038152906040528152602001600015158152506040518563ffffffff1660e01b81526004016109259493929190612d15565b600060405180830381600087803b15801561093f57600080fd5b505af1158015610953573d6000803e3d6000fd5b50506035546040516370a0823160e01b81523060048201526001600160a01b0390911692506370a082319150602401602060405180830381865afa15801561099f573d6000803e3d6000fd5b505050506040513d601f19601f820116820180604052508101906109c39190612a2a565b93506000603954436109d59190612d51565b6037546109e29190612d68565b6038546109ef919061297f565b610a01670de0b6b3a764000087612d68565b610a0b9190612d87565b603a54909150600090603c908290610a2b9060019063ffffffff16612a05565b63ffffffff168152602081019190915260400160002054610a4c9043612d51565b610a569083612d68565b603a54603c90600090610a719060019063ffffffff16612a05565b63ffffffff1663ffffffff16815260200190815260200160002060020154610a99919061297f565b604080516060810182524381526020808201868152828401858152603a805463ffffffff9081166000908152603c90955295842094518555915160018581019190915590516002909401939093558054949550919391929091610afe91859116612da9565b825463ffffffff9182166101009390930a92830291909202199091161790555043603955600060385560335460405163b6b55f2560e01b8152600481018890526001600160a01b039091169063b6b55f2590602401600060405180830381600087803b158015610b6d57600080fd5b505af1158015610b81573d6000803e3d6000fd5b50506001805550959b9a5050505050505050505050565b60375460009015610c12576033546040516370a0823160e01b81523060048201526001600160a01b03909116906370a0823190602401602060405180830381865afa158015610beb573d6000803e3d6000fd5b505050506040513d601f19601f82011682018060405250810190610c0f9190612a2a565b90505b90565b606060026001541415610c3a5760405162461bcd60e51b81526004016101e7906129ce565b6002600155603d546001600160a01b03163314610c695760405162461bcd60e51b81526004016101e790612997565b60008711610caf5760405162461bcd60e51b8152602060048201526013602482015272125394d551919250d251539517d05353d55395606a1b60448201526064016101e7565b610cb8836120d4565b6001600160a01b0383166000908152603b602052604090206002810154881115610d715760028101548154600091610cef9161297f565b905080891115610d385760405162461bcd60e51b8152602060048201526014602482015273494e53554646494349454e545f42414c414e434560601b60448201526064016101e7565b610d428982612d51565b825560028201546037548a91610d579161297f565b610d619190612d51565b6037555060006002820155610d8b565b87816002016000828254610d859190612d51565b90915550505b50603654604051631f29a8cd60e31b815260009173ba12222222228d8ba445958a75a0704d566bf2c89163f94d466891610dcb9160040190815260200190565b600060405180830381865afa158015610de8573d6000803e3d6000fd5b505050506040513d6000823e601f3d908101601f19168201604052610e109190810190612b29565b50509050805167ffffffffffffffff811115610e2e57610e2e612774565b604051908082528060200260200182016040528015610e57578160200160208202803683370190505b50603354604051632e1a7d4d60e01b8152600481018b90529193506001600160a01b031690632e1a7d4d90602401600060405180830381600087803b158015610e9f57600080fd5b505af1158015610eb3573d6000803e3d6000fd5b505050508415610eda57603554610ed4906001600160a01b0316848a6121f9565b506111ec565b80518614610f2a5760405162461bcd60e51b815260206004820152601a60248201527f4d494e5f414d4f554e54535f4f55545f4241445f4c454e47544800000000000060448201526064016101e7565b60005b8151811015610fed57818181518110610f4857610f48612a60565b60209081029190910101516040516370a0823160e01b81526001600160a01b038681166004830152909116906370a0823190602401602060405180830381865afa158015610f9a573d6000803e3d6000fd5b505050506040513d601f19601f82011682018060405250810190610fbe9190612a2a565b838281518110610fd057610fd0612a60565b602090810291909101015280610fe581612ab3565b915050610f2d565b5073ba12222222228d8ba445958a75a0704d566bf2c86001600160a01b0316638bdb3913603654308660405180608001604052808781526020018d8d80806020026020016040519081016040528093929190818152602001838360200280828437600081840152601f19601f82011690508083019250505050505050815260200160018f60405160200161109092919060ff929092168252602082015260400190565b6040516020818303038152906040528152602001600015158152506040518563ffffffff1660e01b81526004016110ca9493929190612d15565b600060405180830381600087803b1580156110e457600080fd5b505af11580156110f8573d6000803e3d6000fd5b5050505060005b81518110156111e957600082828151811061111c5761111c612a60565b60209081029190910101516040516370a0823160e01b81526001600160a01b038781166004830152909116906370a0823190602401602060405180830381865afa15801561116e573d6000803e3d6000fd5b505050506040513d601f19601f820116820180604052508101906111929190612a2a565b90508382815181106111a6576111a6612a60565b6020026020010151816111b99190612d51565b8483815181106111cb576111cb612a60565b602090810291909101015250806111e181612ab3565b9150506110ff565b50505b600180559695505050505050565b60006002600154141561121f5760405162461bcd60e51b81526004016101e7906129ce565b6002600155603d546001600160a01b0316331461124e5760405162461bcd60e51b81526004016101e790612997565b603654604051631f29a8cd60e31b815260009173ba12222222228d8ba445958a75a0704d566bf2c89163f94d46689161128d9160040190815260200190565b600060405180830381865afa1580156112aa573d6000803e3d6000fd5b505050506040513d6000823e601f3d908101601f191682016040526112d29190810190612b29565b50509050805187511461131c5760405162461bcd60e51b81526020600482015260126024820152710848288be829a9eaa9ca8a6be988a9c8ea8960731b60448201526064016101e7565b80518651146113615760405162461bcd60e51b81526020600482015260116024820152700848288bea89e968a9ca6be988a9c8ea89607b1b60448201526064016101e7565b6000805b825181101561150c5782818151811061138057611380612a60565b60200260200101516001600160a01b03168882815181106113a3576113a3612a60565b60200260200101516001600160a01b0316146114015760405162461bcd60e51b815260206004820152601c60248201527f544f4b454e535f4e4f545f4d415443485f504f4f4c5f544f4b454e530000000060448201526064016101e7565b600089828151811061141557611415612a60565b602002602001015111156114fa578161142d57600191505b82818151811061143f5761143f612a60565b60200260200101516001600160a01b031663095ea7b373ba12222222228d8ba445958a75a0704d566bf2c88b848151811061147c5761147c612a60565b60200260200101516040518363ffffffff1660e01b81526004016114b59291906001600160a01b03929092168252602082015260400190565b6020604051808303816000875af11580156114d4573d6000803e3d6000fd5b505050506040513d601f19601f820116820180604052508101906114f89190612a96565b505b8061150481612ab3565b915050611365565b506035546040516370a0823160e01b81523060048201526000916001600160a01b0316906370a0823190602401602060405180830381865afa158015611556573d6000803e3d6000fd5b505050506040513d601f19601f8201168201806040525081019061157a9190612a2a565b9050811561164a57600060405180608001604052808581526020018b815260200160018c8b6040516020016115b193929190612dd1565b604051602081830303815290604052815260200160001515815250905073ba12222222228d8ba445958a75a0704d566bf2c86001600160a01b031663b95cac286036543030856040518563ffffffff1660e01b81526004016116169493929190612d15565b600060405180830381600087803b15801561163057600080fd5b505af1158015611644573d6000803e3d6000fd5b50505050505b6035546040516370a0823160e01b81523060048201526000916001600160a01b0316906370a0823190602401602060405180830381865afa158015611693573d6000803e3d6000fd5b505050506040513d601f19601f820116820180604052508101906116b79190612a2a565b9050866116c48383612d51565b6116ce919061297f565b9450600085116117185760405162461bcd60e51b81526020600482015260156024820152741393d7d3125455525112551657d41493d592511151605a1b60448201526064016101e7565b611721866120d4565b6001600160a01b0386166000908152603b60205260408120805487929061174990849061297f565b925050819055508460376000828254611762919061297f565b909155505060335460405163b6b55f2560e01b8152600481018790526001600160a01b039091169063b6b55f2590602401600060405180830381600087803b1580156117ad57600080fd5b505af11580156117c1573d6000803e3d6000fd5b50506001805550949a9950505050505050505050565b60006117e3600161224b565b905080156117fb576000805461ff0019166101001790555b6001600160a01b03831661183f5760405162461bcd60e51b815260206004820152600b60248201526a10905117d31417d413d3d360aa1b60448201526064016101e7565b6001600160a01b0382166118885760405162461bcd60e51b815260206004820152601060248201526f2120a22fa0a9a9a2aa2fa927aaaa22a960811b60448201526064016101e7565b6118906122d8565b603d80546001600160a01b038085166001600160a01b0319928316179092556035805492861692909116821790556040805163038fff2d60e41b815290516338fff2d0916004808201926020929091908290030181865afa1580156118f9573d6000803e3d6000fd5b505050506040513d601f19601f8201168201806040525081019061191d9190612a2a565b60365560405163a8ea687560e01b81526001600160a01b0384166004820152733b8ca519122cdd8efb272b0d3085453404b25bd09063a8ea687590602401602060405180830381865afa158015611978573d6000803e3d6000fd5b505050506040513d601f19601f8201168201806040525081019061199c9190612a43565b603380546001600160a01b0319166001600160a01b03929092169182179055611a5e576040516313db266360e31b81526001600160a01b0384166004820152733b8ca519122cdd8efb272b0d3085453404b25bd090639ed93318906024016020604051808303816000875af1158015611a19573d6000803e3d6000fd5b505050506040513d601f19601f82011682018060405250810190611a3d9190612a43565b603380546001600160a01b0319166001600160a01b03929092169190911790555b6040516308a4ffeb60e41b81526001600160a01b0384166004820152733b8ca519122cdd8efb272b0d3085453404b25bd090638a4ffeb090602401602060405180830381865afa158015611ab6573d6000803e3d6000fd5b505050506040513d601f19601f82011682018060405250810190611ada9190612a43565b603480546001600160a01b0319166001600160a01b03928316179055604080516060810182524380825260006020808401828152848601838152928052603c90915292517f33d13c149959174817b07214f6faff3d4c1d39ff89c6e7f82e2df5f04c00a0ec5591517f33d13c149959174817b07214f6faff3d4c1d39ff89c6e7f82e2df5f04c00a0ed5590517f33d13c149959174817b07214f6faff3d4c1d39ff89c6e7f82e2df5f04c00a0ee55603a805463ffffffff191660011790556039555163095ea7b360e01b815273ba12222222228d8ba445958a75a0704d566bf2c8600482015260001960248201529084169063095ea7b3906044016020604051808303816000875af1158015611bf4573d6000803e3d6000fd5b505050506040513d601f19601f82011682018060405250810190611c189190612a96565b5060335460405163095ea7b360e01b81526001600160a01b03918216600482015260001960248201529084169063095ea7b3906044016020604051808303816000875af1158015611c6d573d6000803e3d6000fd5b505050506040513d601f19601f82011682018060405250810190611c919190612a96565b508015611cd8576000805461ff0019169055604051600181527f7f26b83ff96e1f2b6a682f133852f6798a09c465da95921460cefb38474024989060200160405180910390a15b505050565b6001600160a01b0381166000908152603b60209081526040808320815160a08101835281548152600182015493810193909352600281015491830191909152600381015463ffffffff908116606084018190526004909201546080840152603a54161415611d4f576040015192915050565b60608082015163ffffffff166000908152603c6020908152604080832081519485018252805480865260018201549386019390935260020154908401526080840151611d9a91612d51565b8351611da69190612d68565b8360200151611db5919061297f565b90506000670de0b6b3a7640000836020015183611dd29190612d68565b611ddc9190612d87565b6040840151603a54919250600091670de0b6b3a76400009190603c908490611e0c9060019063ffffffff16612a05565b63ffffffff1663ffffffff16815260200190815260200160002060020154611e349190612d51565b8651611e409190612d68565b611e4a9190612d87565b905080828660400151611e5d919061297f565b611e67919061297f565b979650505050505050565b6000611e81602084018461259e565b6001600160a01b031614611cd8576040516370a0823160e01b8152306004820152600090670de0b6b3a7640000906020850135906001600160a01b038516906370a0823190602401602060405180830381865afa158015611ee6573d6000803e3d6000fd5b505050506040513d601f19601f82011682018060405250810190611f0a9190612a2a565b611f149190612d68565b611f1e9190612d87565b90508015611fd6576000611f328580612dfd565b90501115611fdc5760405163095ea7b360e01b815273ba12222222228d8ba445958a75a0704d566bf2c86004820152602481018290526001600160a01b0383169063095ea7b3906044016020604051808303816000875af1158015611f9b573d6000803e3d6000fd5b505050506040513d601f19601f82011682018060405250810190611fbf9190612a96565b50611fd684611fd1602086018661259e565b611ffd565b50505050565b611fd6611fec602085018561259e565b6001600160a01b03841690836121f9565b73ba12222222228d8ba445958a75a0704d566bf2c863945bcec960006120238580612dfd565b6120306020880188612dfd565b604080516080810182523081526000602082018190526001600160a01b038b1682840152606082015290612066908b018b612dfd565b6000196040518a63ffffffff1660e01b815260040161208d99989796959493929190612eda565b6000604051808303816000875af11580156120ac573d6000803e3d6000fd5b505050506040513d6000823e601f3d908101601f19168201604052611cd89190810190613059565b6001600160a01b0381166000908152603b60205260409020603a54600382015463ffffffff9081169116141561213d5760048101546121139043612d51565b815461211f9190612d68565b816001016000828254612132919061297f565b909155506121999050565b61214682611cdd565b6002820155603a54603c906000906121669060019063ffffffff16612a05565b63ffffffff1681526020810191909152604001600020546121879043612d51565b81546121939190612d68565b60018201555b603a5460038201805463ffffffff191663ffffffff909216919091179055436004820181905560375460395490916121d19190612d51565b6121db9190612d68565b603860008282546121ec919061297f565b9091555050436039555050565b604080516001600160a01b038416602482015260448082018490528251808303909101815260649091019091526020810180516001600160e01b031663a9059cbb60e01b179052611cd8908490612309565b60008054610100900460ff1615612292578160ff16600114801561226e5750303b155b61228a5760405162461bcd60e51b81526004016101e7906130df565b506000919050565b60005460ff8084169116106122b95760405162461bcd60e51b81526004016101e7906130df565b506000805460ff191660ff92909216919091179055600190565b919050565b600054610100900460ff166122ff5760405162461bcd60e51b81526004016101e79061312d565b6123076123db565b565b600061235e826040518060400160405280602081526020017f5361666545524332303a206c6f772d6c6576656c2063616c6c206661696c6564815250856001600160a01b03166124089092919063ffffffff16565b805190915015611cd8578080602001905181019061237c9190612a96565b611cd85760405162461bcd60e51b815260206004820152602a60248201527f5361666545524332303a204552433230206f7065726174696f6e20646964206e6044820152691bdd081cdd58d8d9595960b21b60648201526084016101e7565b600054610100900460ff166124025760405162461bcd60e51b81526004016101e79061312d565b60018055565b60606124178484600085612421565b90505b9392505050565b6060824710156124825760405162461bcd60e51b815260206004820152602660248201527f416464726573733a20696e73756666696369656e742062616c616e636520666f6044820152651c8818d85b1b60d21b60648201526084016101e7565b6001600160a01b0385163b6124d95760405162461bcd60e51b815260206004820152601d60248201527f416464726573733a2063616c6c20746f206e6f6e2d636f6e747261637400000060448201526064016101e7565b600080866001600160a01b031685876040516124f59190613178565b60006040518083038185875af1925050503d8060008114612532576040519150601f19603f3d011682016040523d82523d6000602084013e612537565b606091505b5091509150611e678282866060831561255157508161241a565b8251156125615782518084602001fd5b8160405162461bcd60e51b81526004016101e7919061318a565b6001600160a01b038116811461259057600080fd5b50565b80356122d38161257b565b6000602082840312156125b057600080fd5b813561241a8161257b565b60008083601f8401126125cd57600080fd5b50813567ffffffffffffffff8111156125e557600080fd5b6020830191508360208260051b850101111561260057600080fd5b9250929050565b6000806000806000858703608081121561262057600080fd5b863567ffffffffffffffff8082111561263857600080fd5b6126448a838b016125bb565b9098509650602089013591508082111561265d57600080fd5b5061266a89828a016125bb565b9095509350506040603f198201121561268257600080fd5b506040860190509295509295909350565b801515811461259057600080fd5b60008060008060008060a087890312156126ba57600080fd5b86359550602087013567ffffffffffffffff8111156126d857600080fd5b6126e489828a016125bb565b90965094505060408701356126f881612693565b925060608701356127088161257b565b915060808701356127188161257b565b809150509295509295509295565b600081518084526020808501945080840160005b838110156127565781518752958201959082019060010161273a565b509495945050505050565b60208152600061241a6020830184612726565b634e487b7160e01b600052604160045260246000fd5b604051601f8201601f1916810167ffffffffffffffff811182821017156127b3576127b3612774565b604052919050565b600067ffffffffffffffff8211156127d5576127d5612774565b5060051b60200190565b600082601f8301126127f057600080fd5b81356020612805612800836127bb565b61278a565b82815260059290921b8401810191818101908684111561282457600080fd5b8286015b8481101561284857803561283b8161257b565b8352918301918301612828565b509695505050505050565b600080600080600060a0868803121561286b57600080fd5b853567ffffffffffffffff8082111561288357600080fd5b818801915088601f83011261289757600080fd5b813560206128a7612800836127bb565b82815260059290921b8401810191818101908c8411156128c657600080fd5b948201945b838610156128e4578535825294820194908201906128cb565b995050890135925050808211156128fa57600080fd5b50612907888289016127df565b945050604086013592506060860135915061292460808701612593565b90509295509295909350565b6000806040838503121561294357600080fd5b823561294e8161257b565b9150602083013561295e8161257b565b809150509250929050565b634e487b7160e01b600052601160045260246000fd5b6000821982111561299257612992612969565b500190565b60208082526017908201527f43414c4c45525f4e4f545f41535345545f524f55544552000000000000000000604082015260600190565b6020808252601f908201527f5265656e7472616e637947756172643a207265656e7472616e742063616c6c00604082015260600190565b600063ffffffff83811690831681811015612a2257612a22612969565b039392505050565b600060208284031215612a3c57600080fd5b5051919050565b600060208284031215612a5557600080fd5b815161241a8161257b565b634e487b7160e01b600052603260045260246000fd5b60008235605e19833603018112612a8c57600080fd5b9190910192915050565b600060208284031215612aa857600080fd5b815161241a81612693565b6000600019821415612ac757612ac7612969565b5060010190565b600082601f830112612adf57600080fd5b81516020612aef612800836127bb565b82815260059290921b84018101918181019086841115612b0e57600080fd5b8286015b848110156128485780518352918301918301612b12565b600080600060608486031215612b3e57600080fd5b835167ffffffffffffffff80821115612b5657600080fd5b818601915086601f830112612b6a57600080fd5b81516020612b7a612800836127bb565b82815260059290921b8401810191818101908a841115612b9957600080fd5b948201945b83861015612bc0578551612bb18161257b565b82529482019490820190612b9e565b91890151919750909350505080821115612bd957600080fd5b50612be686828701612ace565b925050604084015190509250925092565b60ff84168152606060208201526000612c136060830185612726565b905060ff83166040830152949350505050565b60005b83811015612c41578181015183820152602001612c29565b83811115611fd65750506000910152565b60008151808452612c6a816020860160208601612c26565b601f01601f19169290920160200192915050565b8051608080845281519084018190526000916020919082019060a0860190845b81811015612cc35783516001600160a01b031683529284019291840191600101612c9e565b505082850151915085810383870152612cdc8183612726565b9250505060408301518482036040860152612cf78282612c52565b9150506060830151612d0d606086018215159052565b509392505050565b8481526001600160a01b03848116602083015283166040820152608060608201819052600090612d4790830184612c7e565b9695505050505050565b600082821015612d6357612d63612969565b500390565b6000816000190483118215151615612d8257612d82612969565b500290565b600082612da457634e487b7160e01b600052601260045260246000fd5b500490565b600063ffffffff808316818516808303821115612dc857612dc8612969565b01949350505050565b60ff84168152606060208201526000612ded6060830185612726565b9050826040830152949350505050565b6000808335601e19843603018112612e1457600080fd5b83018035915067ffffffffffffffff821115612e2f57600080fd5b6020019150600581901b360382131561260057600080fd5b81835281816020850137506000828201602090810191909152601f909101601f19169091010190565b8183526000602080850194508260005b85811015612756578135612e938161257b565b6001600160a01b031687529582019590820190600101612e80565b8183526000602080850194508260005b8581101561275657813587529582019590820190600101612ebe565b6000610120820160028c10612eff57634e487b7160e01b600052602160045260246000fd5b8b8352610120602084015289905261014060058a901b830181019083018b60005b8c811015612fdd5785840361013f190183528135368f9003609e19018112612f4757600080fd5b8e81019050803585526020810135602086015260408101356040860152606081013560608601526080810135601e19823603018112612f8557600080fd5b8101803567ffffffffffffffff811115612f9e57600080fd5b803603831315612fad57600080fd5b60a06080880152612fc560a088018260208501612e47565b96505050602093840193929092019150600101612f20565b5050508281036040840152612ff381898b612e70565b87516001600160a01b0390811660608681019190915260208a01511515608087015260408a015190911660a0860152880151151560c0850152905082810360e0840152613041818688612eae565b915050826101008301529a9950505050505050505050565b6000602080838503121561306c57600080fd5b825167ffffffffffffffff81111561308357600080fd5b8301601f8101851361309457600080fd5b80516130a2612800826127bb565b81815260059190911b820183019083810190878311156130c157600080fd5b928401925b82841015611e67578351825292840192908401906130c6565b6020808252602e908201527f496e697469616c697a61626c653a20636f6e747261637420697320616c72656160408201526d191e481a5b9a5d1a585b1a5e995960921b606082015260800190565b6020808252602b908201527f496e697469616c697a61626c653a20636f6e7472616374206973206e6f74206960408201526a6e697469616c697a696e6760a81b606082015260800190565b60008251612a8c818460208701612c26565b60208152600061241a6020830184612c5256fea26469706673582212209433b787b5b61728295454433645a4305e894904ab721f3a9ebfd90defc88ad864736f6c634300080a0033",
  "immutableReferences": {},
  "source": "// SPDX-License-Identifier: MIT\r\npragma solidity 0.8.10;\r\n \r\nimport \"../../interfaces/IVault.sol\";\r\nimport \"../../interfaces/IBasePool.sol\";\r\nimport '../../interfaces/IChildChainLiquidityGaugeFactory.sol';\r\nimport \"../../interfaces/IRewardsOnlyGauge.sol\"; \r\nimport \"../../interfaces/IChildChainStreamer.sol\"; \r\nimport '@openzeppelin/contracts-upgradeable/security/ReentrancyGuardUpgradeable.sol';\r\nimport '@openzeppelin/contracts-upgradeable/token/ERC20/utils/SafeERC20Upgradeable.sol';\r\nimport '@openzeppelin/contracts-upgradeable/token/ERC20/IERC20Upgradeable.sol';\r\nimport '@openzeppelin/contracts-upgradeable/proxy/utils/Initializable.sol';\r\n\r\ncontract UnoFarmBalancer is Initializable, ReentrancyGuardUpgradeable {\r\n    using SafeERC20Upgradeable for IERC20Upgradeable;\r\n    /**\r\n     * @dev DistributionInfo:\r\n     * {block} - Distribution block number.\r\n     * {rewardPerDepositAge} - Distribution reward divided by {totalDepositAge}. \r\n     * {cumulativeRewardAgePerDepositAge} - Sum of {rewardPerDepositAge}s multiplied by distribution interval.\r\n     */\r\n    struct DistributionInfo {\r\n        uint256 block;\r\n        uint256 rewardPerDepositAge;\r\n        uint256 cumulativeRewardAgePerDepositAge;\r\n    }\r\n    /**\r\n     * @dev UserInfo:\r\n     * {stake} - Amount of LP tokens deposited by the user.\r\n     * {depositAge} - User deposits multiplied by blocks the deposit has been in. \r\n     * {reward} - Amount of LP tokens entitled to the user.\r\n     * {lastDistribution} - Distribution ID before the last user deposit.\r\n     * {lastUpdate} - Deposit update block.\r\n     */\r\n    struct UserInfo {\r\n        uint256 stake;\r\n        uint256 depositAge;\r\n        uint256 reward;\r\n        uint32 lastDistribution;\r\n        uint256 lastUpdate;\r\n    }\r\n    /**\r\n     * @dev SwapInfo:\r\n     * {swaps} - Data used for token swaps.\r\n     * {assets} - Assets used in swaps.\r\n     * {limits} - Swap slippage limits.\r\n     */\r\n    struct SwapInfo{\r\n        IVault.BatchSwapStep[] swaps;\r\n        IERC20[] assets;\r\n        int256[] limits;\r\n    }\r\n    /**\r\n     * @dev FeeInfo:\r\n     * {feeCollector} - Contract to transfer fees to.\r\n     * {fee} - Fee percentage to collect (10^18 == 100%). \r\n     */\r\n    struct FeeInfo {\r\n        address feeTo;\r\n        uint256 fee;\r\n    }\r\n\r\n    /**\r\n     * @dev Third Party Contracts:\r\n     * {Vault} - Main Balancer contract used for pool exits/joins and swaps.\r\n     * {GaugeFactory} - Contract that deploys gauges.\r\n     * {gauge} - Contract that distributes reward tokens.\r\n     * {streamer} - Contract reward tokens get sent to from the bridge.\r\n     */   \r\n    IVault constant private Vault = IVault(0xBA12222222228d8Ba445958a75a0704d566BF2C8);\r\n    IChildChainLiquidityGaugeFactory constant private GaugeFactory = IChildChainLiquidityGaugeFactory(0x3b8cA519122CdD8efb272b0D3085453404B25bD0);\r\n    IRewardsOnlyGauge public gauge;\r\n    IChildChainStreamer private streamer;\r\n\r\n    /**\r\n     * @dev Contract Variables:\r\n     * {lpPool} - Pool.\r\n     * {poolId} - Bytes32 representation of the {lpPool}.\r\n\r\n     * {totalDeposits} - Total deposits made by users.\r\n     * {totalDepositAge} - Deposits multiplied by blocks the deposit has been in. Flushed every reward distribution.\r\n     * {totalDepositLastUpdate} - Last {totalDepositAge} update block.\r\n\r\n     * {distributionID} - Current distribution ID.\r\n     * {userInfo} - Info on each user.\r\n     * {distributionInfo} - Info on each distribution.\r\n\r\n     * {fractionMultiplier} - Used to store decimal values.\r\n     */\r\n    address public lpPool;\r\n    bytes32 public poolId;\r\n\r\n    uint256 private totalDeposits;\r\n    uint256 private totalDepositAge;\r\n    uint256 private totalDepositLastUpdate;\r\n\r\n    uint32 private distributionID;\r\n    mapping(address => UserInfo) private userInfo;\r\n    mapping(uint32 => DistributionInfo) private distributionInfo;\r\n\r\n    uint256 private constant fractionMultiplier = uint256(1 ether);\r\n\r\n    /**\r\n     * @dev Contract Variables:\r\n     * {assetRouter} - The contract from which calls to this farm are made.\r\n     */\r\n    address public assetRouter;\r\n    modifier onlyAssetRouter(){\r\n        require(msg.sender == assetRouter, 'CALLER_NOT_ASSET_ROUTER');\r\n        _;\r\n    }\r\n\r\n    // ============ Methods ============\r\n\r\n    function initialize(address _lpPool, address _assetRouter) external initializer {\r\n        require (_lpPool != address(0), 'BAD_LP_POOL');\r\n        require (_assetRouter != address(0), 'BAD_ASSET_ROUTER');\r\n\r\n        __ReentrancyGuard_init();\r\n        assetRouter = _assetRouter;\r\n\r\n        lpPool = _lpPool;\r\n        poolId = IBasePool(_lpPool).getPoolId();\r\n\r\n        gauge = IRewardsOnlyGauge(GaugeFactory.getPoolGauge(_lpPool));\r\n        if(address(gauge) == address(0)){\r\n            gauge = IRewardsOnlyGauge(GaugeFactory.create(_lpPool));\r\n        }\r\n        streamer = IChildChainStreamer(GaugeFactory.getPoolStreamer(_lpPool));\r\n\r\n        distributionInfo[0] = DistributionInfo({\r\n            block: block.number,\r\n            rewardPerDepositAge: 0,\r\n            cumulativeRewardAgePerDepositAge: 0\r\n        });\r\n        distributionID = 1;\r\n        totalDepositLastUpdate = block.number;\r\n\r\n        IERC20(_lpPool).approve(address(Vault), type(uint256).max);\r\n        IERC20(_lpPool).approve(address(gauge), type(uint256).max);\r\n    }\r\n\r\n    /**\r\n     * @dev Function that makes the deposits.\r\n     * Deposits {amounts} of {tokens} from this contract's balance to the {Vault}.\r\n     */\r\n    function deposit(uint256[] memory amounts, address[] memory tokens, uint256 minAmountLP, uint256 amountLP,  address recipient) external nonReentrant onlyAssetRouter returns(uint256 liquidity){\r\n        (IERC20[] memory _tokens, , ) = Vault.getPoolTokens(poolId);\r\n        require (amounts.length == _tokens.length, 'BAD_AMOUNTS_LENGTH');\r\n        require (tokens.length == _tokens.length, 'BAD_TOKENS_LENGTH');\r\n\r\n        bool joinPool = false;\r\n        for (uint256 i = 0; i < _tokens.length; i++) {\r\n            require (IERC20(tokens[i]) == _tokens[i], 'TOKENS_NOT_MATCH_POOL_TOKENS');\r\n            if(amounts[i] > 0){\r\n                if(!joinPool){\r\n                    joinPool = true;\r\n                }\r\n                _tokens[i].approve(address(Vault), amounts[i]);\r\n            }\r\n        }\r\n\r\n        uint256 amountBefore = IERC20(lpPool).balanceOf(address(this));\r\n        if(joinPool){\r\n            IVault.JoinPoolRequest memory joinPoolRequest = IVault.JoinPoolRequest(_tokens, amounts, abi.encode(1, amounts, minAmountLP), false);\r\n            Vault.joinPool(poolId, address(this), address(this), joinPoolRequest);\r\n        }\r\n        uint256 amountAfter = IERC20(lpPool).balanceOf(address(this));\r\n\r\n        liquidity = amountAfter - amountBefore + amountLP;\r\n        require (liquidity > 0, 'NO_LIQUIDITY_PROVIDED');\r\n        \r\n        _updateDeposit(recipient);\r\n        userInfo[recipient].stake += liquidity;\r\n        totalDeposits += liquidity;\r\n\r\n        gauge.deposit(liquidity);\r\n    }\r\n\r\n    /**\r\n     * @dev Withdraws funds from {origin} and sends them to the {recipient}.\r\n     */\r\n    function withdraw(uint256 amount, uint256[] calldata minAmountsOut, bool withdrawLP, address origin, address recipient) external nonReentrant onlyAssetRouter returns(uint256[] memory amounts){\r\n        require(amount > 0, 'INSUFFICIENT_AMOUNT');\r\n\r\n        _updateDeposit(origin);\r\n        {// scope to avoid stack too deep errors\r\n        UserInfo storage user = userInfo[origin];\r\n        // Subtract amount from user.reward first, then subtract remainder from user.stake.\r\n        if(amount > user.reward){\r\n            uint256 balance = user.stake + user.reward;\r\n            require(amount <= balance, 'INSUFFICIENT_BALANCE');\r\n            user.stake = balance - amount;\r\n            totalDeposits = totalDeposits + user.reward - amount;\r\n            user.reward = 0;\r\n        } else {\r\n            user.reward -= amount;\r\n        }\r\n        }\r\n\r\n        (IERC20[] memory tokens, , ) = Vault.getPoolTokens(poolId);\r\n        amounts = new uint256[](tokens.length);\r\n\r\n        gauge.withdraw(amount);\r\n        if(withdrawLP){\r\n            IERC20Upgradeable(lpPool).safeTransfer(recipient, amount);\r\n            return amounts;\r\n        }\r\n\r\n        require (minAmountsOut.length == tokens.length, 'MIN_AMOUNTS_OUT_BAD_LENGTH');\r\n\r\n        //Collect amounts before pool exit\r\n        for (uint256 i = 0; i < tokens.length; i++) {\r\n            amounts[i] = tokens[i].balanceOf(recipient);\r\n        }\r\n\r\n        Vault.exitPool(poolId, address(this), payable(recipient), IVault.ExitPoolRequest(tokens, minAmountsOut, abi.encode(1, amount), false));\r\n\r\n        for (uint256 i = 0; i < tokens.length; i++) {\r\n            uint256 balanceAfter = tokens[i].balanceOf(recipient);\r\n            amounts[i] = balanceAfter - amounts[i];\r\n        }\r\n    }\r\n\r\n    /**\r\n     * @dev Core function of the strat, in charge of updating, collecting and re-investing rewards.\r\n     * 1. It claims rewards from the {gauge}.\r\n     * 2. It swaps reward tokens for {tokens}.\r\n     * 3. It deposits new tokens back to the {gauge}.\r\n     */\r\n    function distribute(\r\n        SwapInfo[] calldata swapInfos,\r\n        SwapInfo[] calldata feeSwapInfos,\r\n        FeeInfo calldata feeInfo\r\n    ) external onlyAssetRouter nonReentrant returns(uint256 reward){\r\n        require(totalDeposits > 0, 'NO_LIQUIDITY');\r\n        require(distributionInfo[distributionID - 1].block != block.number, 'CANT_CALL_ON_THE_SAME_BLOCK');\r\n\r\n        uint256 rewardCount = streamer.reward_count();\r\n        require((swapInfos.length == rewardCount) && (feeSwapInfos.length == rewardCount), 'PARAMS_LENGTHS_NOT_MATCH_REWARD_COUNT');\r\n\r\n        gauge.claim_rewards();\r\n        for (uint256 i = 0; i < rewardCount; i++) {\r\n            IERC20Upgradeable rewardToken = IERC20Upgradeable(streamer.reward_tokens(i));\r\n            if (address(rewardToken) != address(gauge)) {  //can't use LP tokens in swap\r\n                collectFees(feeSwapInfos[i], feeInfo, rewardToken);\r\n                uint256 balance = rewardToken.balanceOf(address(this));\r\n                if(balance > 0){\r\n                    rewardToken.approve(address(Vault), balance);\r\n                    batchSwap(swapInfos[i], payable(address(this)));\r\n                }\r\n            }\r\n        }\r\n\r\n        (IERC20[] memory tokens, , ) = Vault.getPoolTokens(poolId);\r\n        uint256[] memory joinAmounts = new uint256[](tokens.length);\r\n        for (uint256 i = 0; i < tokens.length; i++) {\r\n            joinAmounts[i] = tokens[i].balanceOf(address(this));\r\n            if (joinAmounts[i] > 0){\r\n                tokens[i].approve(address(Vault), joinAmounts[i]);\r\n            }\r\n        }\r\n        Vault.joinPool(poolId, address(this), address(this), IVault.JoinPoolRequest(tokens, joinAmounts, abi.encode(1, joinAmounts, 1), false));\r\n\r\n        reward = IERC20(lpPool).balanceOf(address(this));\r\n\r\n        uint256 rewardPerDepositAge = reward * fractionMultiplier / (totalDepositAge + totalDeposits * (block.number - totalDepositLastUpdate));\r\n        uint256 cumulativeRewardAgePerDepositAge = distributionInfo[distributionID - 1].cumulativeRewardAgePerDepositAge + rewardPerDepositAge * (block.number - distributionInfo[distributionID - 1].block);\r\n\r\n        distributionInfo[distributionID] = DistributionInfo({\r\n            block: block.number,\r\n            rewardPerDepositAge: rewardPerDepositAge,\r\n            cumulativeRewardAgePerDepositAge: cumulativeRewardAgePerDepositAge\r\n        });\r\n\r\n        distributionID += 1;\r\n        totalDepositLastUpdate = block.number;\r\n        totalDepositAge = 0;\r\n\r\n        gauge.deposit(reward);\r\n    }\r\n\r\n    /**\r\n     * @dev Swaps and sends fees to feeTo.\r\n     */\r\n    function collectFees(SwapInfo calldata feeSwapInfo, FeeInfo calldata feeInfo, IERC20Upgradeable token) internal {\r\n        if(feeInfo.feeTo != address(0)){\r\n            uint256 feeAmount = token.balanceOf(address(this)) * feeInfo.fee / fractionMultiplier;\r\n            if(feeAmount > 0){\r\n                if(feeSwapInfo.swaps.length > 0){\r\n                    token.approve(address(Vault), feeAmount);\r\n                    batchSwap(feeSwapInfo, payable(feeInfo.feeTo));\r\n                    return;\r\n                }\r\n                token.safeTransfer(feeInfo.feeTo, feeAmount);\r\n            }\r\n        }\r\n    }\r\n\r\n    /**\r\n     * @dev Performs balancer batch swap. Separate function to avoid Stack too deep errors.\r\n     */\r\n    function batchSwap(SwapInfo calldata swapInfo, address payable recipient) internal {\r\n        Vault.batchSwap(\r\n            IVault.SwapKind.GIVEN_IN,\r\n            swapInfo.swaps,\r\n            swapInfo.assets,\r\n            IVault.FundManagement({sender: address(this), fromInternalBalance:false, recipient: recipient, toInternalBalance:false}),\r\n            swapInfo.limits,\r\n            type(uint256).max\r\n        );\r\n    }\r\n\r\n    /**\r\n     * @dev Returns total funds staked by the {_address}.\r\n     */\r\n    function userBalance(address _address) external view returns (uint256) {\r\n        return userInfo[_address].stake + userReward(_address);\r\n    }\r\n\r\n    /**\r\n     * @dev Returns total funds locked in the farm.\r\n     */\r\n    function getTotalDeposits() external view returns (uint256 _totalDeposits) {\r\n        if(totalDeposits > 0){\r\n            _totalDeposits = gauge.balanceOf(address(this));\r\n        }\r\n    }\r\n    \r\n    function _updateDeposit(address _address) internal {\r\n        UserInfo storage user = userInfo[_address];\r\n        // Accumulate deposit age within the current distribution period.\r\n        if (user.lastDistribution == distributionID) {\r\n            // Add deposit age from previous deposit age update to now.\r\n            user.depositAge += user.stake * (block.number - user.lastUpdate);\r\n        } else {\r\n            // A reward has been distributed, update user.reward.\r\n            user.reward = userReward(_address);\r\n            // Count fresh deposit age from previous reward distribution to now.\r\n            user.depositAge = user.stake * (block.number - distributionInfo[distributionID - 1].block);\r\n        }\r\n\r\n        user.lastDistribution = distributionID;\r\n        user.lastUpdate = block.number;\r\n\r\n        // Same with total deposit age.\r\n        totalDepositAge += (block.number - totalDepositLastUpdate) * totalDeposits;\r\n        totalDepositLastUpdate = block.number;\r\n    }\r\n\r\n    function userReward(address _address) internal view returns (uint256) {\r\n        UserInfo memory user = userInfo[_address];\r\n        if (user.lastDistribution == distributionID) {\r\n            // Return user.reward if the distribution after the last user deposit did not happen yet.\r\n            return user.reward;\r\n        }\r\n        DistributionInfo memory lastUserDistributionInfo = distributionInfo[user.lastDistribution];\r\n        uint256 userDepositAge = user.depositAge + user.stake * (lastUserDistributionInfo.block - user.lastUpdate);\r\n        // Calculate reward between the last user deposit and the distribution after that.\r\n        uint256 rewardBeforeDistibution = userDepositAge * lastUserDistributionInfo.rewardPerDepositAge / fractionMultiplier;\r\n        // Calculate reward from the distributions that have happened after the last user deposit.\r\n        uint256 rewardAfterDistribution = user.stake * (distributionInfo[distributionID - 1].cumulativeRewardAgePerDepositAge - lastUserDistributionInfo.cumulativeRewardAgePerDepositAge) / fractionMultiplier;\r\n        return user.reward + rewardBeforeDistibution + rewardAfterDistribution;\r\n    }\r\n}\r\n",
  "sourcePath": "C:\\Users\\jugli\\Desktop\\uno\\uno-contracts\\contracts\\apps\\balancer\\UnoFarmBalancer.sol",
  "compiler": {
    "name": "solc",
    "version": "0.8.10+commit.fc410830.Emscripten.clang"
  },
  "schemaVersion": "3.4.10",
  "updatedAt": "2022-09-29T10:42:11.727Z",
  "devdoc": {
    "kind": "dev",
    "methods": {
      "deposit(uint256[],address[],uint256,uint256,address)": {
        "details": "Function that makes the deposits. Deposits {amounts} of {tokens} from this contract's balance to the {Vault}."
      },
      "distribute(((bytes32,uint256,uint256,uint256,bytes)[],address[],int256[])[],((bytes32,uint256,uint256,uint256,bytes)[],address[],int256[])[],(address,uint256))": {
        "details": "Core function of the strat, in charge of updating, collecting and re-investing rewards. 1. It claims rewards from the {gauge}. 2. It swaps reward tokens for {tokens}. 3. It deposits new tokens back to the {gauge}."
      },
      "getTotalDeposits()": {
        "details": "Returns total funds locked in the farm."
      },
      "userBalance(address)": {
        "details": "Returns total funds staked by the {_address}."
      },
      "withdraw(uint256,uint256[],bool,address,address)": {
        "details": "Withdraws funds from {origin} and sends them to the {recipient}."
      }
    },
    "stateVariables": {
      "Vault": {
        "details": "Third Party Contracts: {Vault} - Main Balancer contract used for pool exits/joins and swaps. {GaugeFactory} - Contract that deploys gauges. {gauge} - Contract that distributes reward tokens. {streamer} - Contract reward tokens get sent to from the bridge."
      },
      "assetRouter": {
        "details": "Contract Variables: {assetRouter} - The contract from which calls to this farm are made."
      },
      "lpPool": {
        "details": "Contract Variables: {lpPool} - Pool. {poolId} - Bytes32 representation of the {lpPool}. {totalDeposits} - Total deposits made by users. {totalDepositAge} - Deposits multiplied by blocks the deposit has been in. Flushed every reward distribution. {totalDepositLastUpdate} - Last {totalDepositAge} update block. {distributionID} - Current distribution ID. {userInfo} - Info on each user. {distributionInfo} - Info on each distribution. {fractionMultiplier} - Used to store decimal values."
      }
    },
    "version": 1
  },
  "userdoc": {
    "kind": "user",
    "methods": {},
    "version": 1
  }
}