{
  "contractName": "UnoFarmApeswap",
  "abi": [
    {
      "inputs": [],
      "name": "CALLER_NOT_ASSET_ROUTER",
      "type": "error"
    },
    {
      "inputs": [],
      "name": "CALL_ON_THE_SAME_BLOCK",
      "type": "error"
    },
    {
      "inputs": [],
      "name": "INSUFFICIENT_AMOUNT",
      "type": "error"
    },
    {
      "inputs": [],
      "name": "INSUFFICIENT_BALANCE",
      "type": "error"
    },
    {
      "inputs": [],
      "name": "INVALID_ASSET_ROUTER",
      "type": "error"
    },
    {
      "inputs": [
        {
          "internalType": "address",
          "name": "feeToken",
          "type": "address"
        }
      ],
      "name": "INVALID_FEE_ROUTE",
      "type": "error"
    },
    {
      "inputs": [],
      "name": "INVALID_LP_POOL",
      "type": "error"
    },
    {
      "inputs": [
        {
          "internalType": "address",
          "name": "fromToken",
          "type": "address"
        },
        {
          "internalType": "address",
          "name": "toToken",
          "type": "address"
        }
      ],
      "name": "INVALID_ROUTE",
      "type": "error"
    },
    {
      "inputs": [],
      "name": "NO_LIQUIDITY",
      "type": "error"
    },
    {
      "inputs": [],
      "name": "NO_LIQUIDITY_PROVIDED",
      "type": "error"
    },
    {
      "inputs": [],
      "name": "PID_NOT_EXISTS",
      "type": "error"
    },
    {
      "anonymous": false,
      "inputs": [
        {
          "indexed": false,
          "internalType": "uint8",
          "name": "version",
          "type": "uint8"
        }
      ],
      "name": "Initialized",
      "type": "event"
    },
    {
      "inputs": [],
      "name": "assetRouter",
      "outputs": [
        {
          "internalType": "address",
          "name": "",
          "type": "address"
        }
      ],
      "stateMutability": "view",
      "type": "function"
    },
    {
      "inputs": [],
      "name": "lpPool",
      "outputs": [
        {
          "internalType": "address",
          "name": "",
          "type": "address"
        }
      ],
      "stateMutability": "view",
      "type": "function"
    },
    {
      "inputs": [],
      "name": "pid",
      "outputs": [
        {
          "internalType": "uint256",
          "name": "",
          "type": "uint256"
        }
      ],
      "stateMutability": "view",
      "type": "function"
    },
    {
      "inputs": [],
      "name": "rewardToken",
      "outputs": [
        {
          "internalType": "address",
          "name": "",
          "type": "address"
        }
      ],
      "stateMutability": "view",
      "type": "function"
    },
    {
      "inputs": [],
      "name": "rewarderToken",
      "outputs": [
        {
          "internalType": "address",
          "name": "",
          "type": "address"
        }
      ],
      "stateMutability": "view",
      "type": "function"
    },
    {
      "inputs": [],
      "name": "tokenA",
      "outputs": [
        {
          "internalType": "address",
          "name": "",
          "type": "address"
        }
      ],
      "stateMutability": "view",
      "type": "function"
    },
    {
      "inputs": [],
      "name": "tokenB",
      "outputs": [
        {
          "internalType": "address",
          "name": "",
          "type": "address"
        }
      ],
      "stateMutability": "view",
      "type": "function"
    },
    {
      "inputs": [
        {
          "internalType": "address",
          "name": "_lpPool",
          "type": "address"
        },
        {
          "internalType": "address",
          "name": "_assetRouter",
          "type": "address"
        }
      ],
      "name": "initialize",
      "outputs": [],
      "stateMutability": "nonpayable",
      "type": "function"
    },
    {
      "inputs": [
        {
          "internalType": "uint256",
          "name": "amount",
          "type": "uint256"
        },
        {
          "internalType": "address",
          "name": "recipient",
          "type": "address"
        }
      ],
      "name": "deposit",
      "outputs": [],
      "stateMutability": "nonpayable",
      "type": "function"
    },
    {
      "inputs": [
        {
          "internalType": "uint256",
          "name": "amount",
          "type": "uint256"
        },
        {
          "internalType": "address",
          "name": "origin",
          "type": "address"
        },
        {
          "internalType": "address",
          "name": "recipient",
          "type": "address"
        }
      ],
      "name": "withdraw",
      "outputs": [],
      "stateMutability": "nonpayable",
      "type": "function"
    },
    {
      "inputs": [
        {
          "components": [
            {
              "internalType": "address[]",
              "name": "route",
              "type": "address[]"
            },
            {
              "internalType": "uint256",
              "name": "amountOutMin",
              "type": "uint256"
            }
          ],
          "internalType": "struct IUnoFarmApeswap.SwapInfo[4]",
          "name": "swapInfos",
          "type": "tuple[4]"
        },
        {
          "components": [
            {
              "internalType": "address[]",
              "name": "route",
              "type": "address[]"
            },
            {
              "internalType": "uint256",
              "name": "amountOutMin",
              "type": "uint256"
            }
          ],
          "internalType": "struct IUnoFarmApeswap.SwapInfo[2]",
          "name": "feeSwapInfos",
          "type": "tuple[2]"
        },
        {
          "components": [
            {
              "internalType": "address",
              "name": "feeTo",
              "type": "address"
            },
            {
              "internalType": "uint256",
              "name": "fee",
              "type": "uint256"
            }
          ],
          "internalType": "struct IUnoFarm.FeeInfo",
          "name": "feeInfo",
          "type": "tuple"
        }
      ],
      "name": "distribute",
      "outputs": [
        {
          "internalType": "uint256",
          "name": "reward",
          "type": "uint256"
        }
      ],
      "stateMutability": "nonpayable",
      "type": "function"
    },
    {
      "inputs": [
        {
          "internalType": "address",
          "name": "_address",
          "type": "address"
        }
      ],
      "name": "userBalance",
      "outputs": [
        {
          "internalType": "uint256",
          "name": "",
          "type": "uint256"
        }
      ],
      "stateMutability": "view",
      "type": "function"
    },
    {
      "inputs": [],
      "name": "getTotalDeposits",
      "outputs": [
        {
          "internalType": "uint256",
          "name": "_totalDeposits",
          "type": "uint256"
        }
      ],
      "stateMutability": "view",
      "type": "function"
    }
  ],
  "bytecode": "0x608060405234801561001057600080fd5b50612bc5806100206000396000f3fe608060405234801561001057600080fd5b50600436106100cf5760003560e01c8063485cc9551161008c578063b460af9411610066578063b460af94146101a1578063bc0aac10146101b4578063f1068454146101c7578063f7c618c1146101d057600080fd5b8063485cc955146101665780635f64b55b1461017b5780636e553f651461018e57600080fd5b80630103c92b146100d457806308fef24a146100fa5780630fc63d101461010d578063168a4822146101385780632a8dc131146101405780633737bcb414610153575b600080fd5b6100e76100e236600461246e565b6101e3565b6040519081526020015b60405180910390f35b6100e761010836600461248b565b610217565b603654610120906001600160a01b031681565b6040516001600160a01b0390911681526020016100f1565b6100e7610ef6565b603454610120906001600160a01b031681565b603554610120906001600160a01b031681565b610179610174366004612519565b610f85565b005b603754610120906001600160a01b031681565b61017961019c366004612552565b611753565b6101796101af366004612577565b611891565b603f54610120906001600160a01b031681565b6100e760385481565b603354610120906001600160a01b031681565b60006101ee82611a41565b6001600160a01b0383166000908152603d602052604090205461021191906125cf565b92915050565b603f546000906001600160a01b0316331461024557604051637d3781d760e11b815260040160405180910390fd5b600260015414156102715760405162461bcd60e51b8152600401610268906125e7565b60405180910390fd5b60026001556039546102965760405163f58c8f9160e01b815260040160405180910390fd5b603c544390603e906000906102b39060019063ffffffff1661261e565b63ffffffff16815260208101919091526040016000205414156102e95760405163fa2a2d8760e01b815260040160405180910390fd5b603854604051630c7e663b60e11b815260048101919091523060248201527354aff400858dcac39797a81894d9920f16972d1d906318fccc7690604401600060405180830381600087803b15801561034057600080fd5b505af1158015610354573d6000803e3d6000fd5b505050506103918360006002811061036e5761036e612643565b60200281019061037e9190612659565b60335484906001600160a01b0316611bd6565b6103b46103a16020850185612659565b60345484906001600160a01b0316611bd6565b6033546040516370a0823160e01b81523060048201526000916002916001600160a01b03909116906370a0823190602401602060405180830381865afa158015610402573d6000803e3d6000fd5b505050506040513d601f19601f820116820180604052508101906104269190612679565b6104309190612692565b6034549091506000906001600160a01b0316156104c1576034546040516370a0823160e01b81523060048201526002916001600160a01b0316906370a0823190602401602060405180830381865afa158015610490573d6000803e3d6000fd5b505050506040513d601f19601f820116820180604052508101906104b49190612679565b6104be9190612692565b90505b81156107ed576033546036546001600160a01b03908116911614610657573660006104ec8880612659565b6104f690806126b4565b60335491935091506001600160a01b0316828260008161051857610518612643565b905060200201602081019061052d919061246e565b6001600160a01b031614158061058757506036546001600160a01b03168282610557600182612705565b81811061056657610566612643565b905060200201602081019061057b919061246e565b6001600160a01b031614155b156105be5760335460365460405163756cc24d60e11b81526001600160a01b03928316600482015291166024820152604401610268565b73c0788a3ad43d79aa53b09c2eacc313a787d1d6076338ed1739856105e38b80612659565b60200135858530426040518763ffffffff1660e01b815260040161060c9695949392919061271c565b6000604051808303816000875af115801561062b573d6000803e3d6000fd5b505050506040513d6000823e601f3d908101601f191682016040526106539190810190612865565b5050505b6033546037546001600160a01b039081169116146107ed5736600061067f6020890189612659565b61068990806126b4565b60335491935091506001600160a01b031682826000816106ab576106ab612643565b90506020020160208101906106c0919061246e565b6001600160a01b031614158061071a57506037546001600160a01b031682826106ea600182612705565b8181106106f9576106f9612643565b905060200201602081019061070e919061246e565b6001600160a01b031614155b156107515760335460375460405163756cc24d60e11b81526001600160a01b03928316600482015291166024820152604401610268565b73c0788a3ad43d79aa53b09c2eacc313a787d1d6076338ed17398561077960208c018c612659565b60200135858530426040518763ffffffff1660e01b81526004016107a29695949392919061271c565b6000604051808303816000875af11580156107c1573d6000803e3d6000fd5b505050506040513d6000823e601f3d908101601f191682016040526107e99190810190612865565b5050505b8015610b1f576034546036546001600160a01b039081169116146109895736600061081b6040890189612659565b61082590806126b4565b60345491935091506001600160a01b0316828260008161084757610847612643565b905060200201602081019061085c919061246e565b6001600160a01b03161415806108b657506036546001600160a01b03168282610886600182612705565b81811061089557610895612643565b90506020020160208101906108aa919061246e565b6001600160a01b031614155b156108ed5760345460365460405163756cc24d60e11b81526001600160a01b03928316600482015291166024820152604401610268565b73c0788a3ad43d79aa53b09c2eacc313a787d1d6076338ed17398461091560408c018c612659565b60200135858530426040518763ffffffff1660e01b815260040161093e9695949392919061271c565b6000604051808303816000875af115801561095d573d6000803e3d6000fd5b505050506040513d6000823e601f3d908101601f191682016040526109859190810190612865565b5050505b6034546037546001600160a01b03908116911614610b1f573660006109b16060890189612659565b6109bb90806126b4565b60345491935091506001600160a01b031682826000816109dd576109dd612643565b90506020020160208101906109f2919061246e565b6001600160a01b0316141580610a4c57506037546001600160a01b03168282610a1c600182612705565b818110610a2b57610a2b612643565b9050602002016020810190610a40919061246e565b6001600160a01b031614155b15610a835760345460375460405163756cc24d60e11b81526001600160a01b03928316600482015291166024820152604401610268565b73c0788a3ad43d79aa53b09c2eacc313a787d1d6076338ed173984610aab60608c018c612659565b60200135858530426040518763ffffffff1660e01b8152600401610ad49695949392919061271c565b6000604051808303816000875af1158015610af3573d6000803e3d6000fd5b505050506040513d6000823e601f3d908101601f19168201604052610b1b9190810190612865565b5050505b50506036546037546040516370a0823160e01b815230600482015273c0788a3ad43d79aa53b09c2eacc313a787d1d6079263e8e33700926001600160a01b039182169291169082906370a0823190602401602060405180830381865afa158015610b8d573d6000803e3d6000fd5b505050506040513d601f19601f82011682018060405250810190610bb19190612679565b6037546040516370a0823160e01b81523060048201526001600160a01b03909116906370a0823190602401602060405180830381865afa158015610bf9573d6000803e3d6000fd5b505050506040513d601f19601f82011682018060405250810190610c1d9190612679565b610c2a60408b018b612659565b60200135610c388b80612659565b60200135610c4691906125cf565b610c5360608c018c612659565b60209081013590610c66908d018d612659565b60200135610c7491906125cf565b6040516001600160e01b031960e089901b1681526001600160a01b03968716600482015295909416602486015260448501929092526064840152608483015260a48201523060c48201524260e4820152610104016060604051808303816000875af1158015610ce7573d6000803e3d6000fd5b505050506040513d601f19601f82011682018060405250810190610d0b91906128a2565b603b5490935060009250610d20915043612705565b603954610d2d91906128d0565b603a54610d3a91906125cf565b610d4c670de0b6b3a7640000846128d0565b610d569190612692565b603c54909150600090603e908290610d769060019063ffffffff1661261e565b63ffffffff168152602081019190915260400160002054610d979043612705565b610da190836128d0565b603c54603e90600090610dbc9060019063ffffffff1661261e565b63ffffffff1663ffffffff16815260200190815260200160002060020154610de491906125cf565b604080516060810182524381526020808201868152828401858152603c805463ffffffff9081166000908152603e90955295842094518555915160018581019190915590516002909401939093558054949550919391929091610e49918591166128ef565b825463ffffffff9182166101009390930a92830291909202199091161790555043603b556000603a55603854604051638dbdbe6d60e01b81526004810191909152602481018490523060448201527354aff400858dcac39797a81894d9920f16972d1d90638dbdbe6d90606401600060405180830381600087803b158015610ed057600080fd5b505af1158015610ee4573d6000803e3d6000fd5b50506001805550929695505050505050565b60395460009015610f82576038546040516393f1a40b60e01b815260048101919091523060248201527354aff400858dcac39797a81894d9920f16972d1d906393f1a40b906044016040805180830381865afa158015610f5a573d6000803e3d6000fd5b505050506040513d601f19601f82011682018060405250810190610f7e9190612917565b5190505b90565b6000610f916001611e61565b90508015610fa9576000805461ff0019166101001790555b6001600160a01b038316610fd057604051635309c5cf60e01b815260040160405180910390fd5b6001600160a01b038216610ff757604051630c17c11560e41b815260040160405180910390fd5b610fff611ee9565b603f80546001600160a01b0319166001600160a01b03841617905561102383611f1a565b603855603580546001600160a01b0319166001600160a01b03851617905560408051636459ae3d60e11b815290517354aff400858dcac39797a81894d9920f16972d1d9163c8b35c7a9160048083019260209291908290030181865afa158015611091573d6000803e3d6000fd5b505050506040513d601f19601f820116820180604052508101906110b59190612966565b603380546001600160a01b0319166001600160a01b039290921691909117905560385460405163c346253d60e01b815260048101919091526000907354aff400858dcac39797a81894d9920f16972d1d9063c346253d90602401602060405180830381865afa15801561112c573d6000803e3d6000fd5b505050506040513d601f19601f820116820180604052508101906111509190612966565b90506001600160a01b038116156112a05760385460405163d63b3c4960e01b8152600481019190915260006024820181905260448201819052906001600160a01b0383169063d63b3c4990606401600060405180830381865afa1580156111bb573d6000803e3d6000fd5b505050506040513d6000823e601f3d908101601f191682016040526111e39190810190612983565b509050806000815181106111f9576111f9612643565b6020908102919091010151603480546001600160a01b0319166001600160a01b03909216918217905560405163095ea7b360e01b815273c0788a3ad43d79aa53b09c2eacc313a787d1d6076004820152600019602482015263095ea7b3906044016020604051808303816000875af1158015611279573d6000803e3d6000fd5b505050506040513d601f19601f8201168201806040525081019061129d9190612a48565b50505b603560009054906101000a90046001600160a01b03166001600160a01b0316630dfe16816040518163ffffffff1660e01b8152600401602060405180830381865afa1580156112f3573d6000803e3d6000fd5b505050506040513d601f19601f820116820180604052508101906113179190612966565b603680546001600160a01b0319166001600160a01b039283161790556035546040805163d21220a760e01b81529051919092169163d21220a79160048083019260209291908290030181865afa158015611375573d6000803e3d6000fd5b505050506040513d601f19601f820116820180604052508101906113999190612966565b603780546001600160a01b0319166001600160a01b03928316179055604080516060810182524380825260006020808401828152848601838152928052603e90915292517f5f97c64b3c4bdfff50b5c8f505e633128432c6b07fc6c8abc77dce786c7317d45591517f5f97c64b3c4bdfff50b5c8f505e633128432c6b07fc6c8abc77dce786c7317d55590517f5f97c64b3c4bdfff50b5c8f505e633128432c6b07fc6c8abc77dce786c7317d655603c805463ffffffff19166001179055603b55603554905163095ea7b360e01b81527354aff400858dcac39797a81894d9920f16972d1d6004820152600019602482015291169063095ea7b3906044016020604051808303816000875af11580156114b6573d6000803e3d6000fd5b505050506040513d601f19601f820116820180604052508101906114da9190612a48565b5060355460405163095ea7b360e01b815273c0788a3ad43d79aa53b09c2eacc313a787d1d607600482015260001960248201526001600160a01b039091169063095ea7b3906044016020604051808303816000875af1158015611541573d6000803e3d6000fd5b505050506040513d601f19601f820116820180604052508101906115659190612a48565b5060335460405163095ea7b360e01b815273c0788a3ad43d79aa53b09c2eacc313a787d1d607600482015260001960248201526001600160a01b039091169063095ea7b3906044016020604051808303816000875af11580156115cc573d6000803e3d6000fd5b505050506040513d601f19601f820116820180604052508101906115f09190612a48565b5060365460405163095ea7b360e01b815273c0788a3ad43d79aa53b09c2eacc313a787d1d607600482015260001960248201526001600160a01b039091169063095ea7b3906044016020604051808303816000875af1158015611657573d6000803e3d6000fd5b505050506040513d601f19601f8201168201806040525081019061167b9190612a48565b5060375460405163095ea7b360e01b815273c0788a3ad43d79aa53b09c2eacc313a787d1d607600482015260001960248201526001600160a01b039091169063095ea7b3906044016020604051808303816000875af11580156116e2573d6000803e3d6000fd5b505050506040513d601f19601f820116820180604052508101906117069190612a48565b5050801561174e576000805461ff0019169055604051600181527f7f26b83ff96e1f2b6a682f133852f6798a09c465da95921460cefb38474024989060200160405180910390a15b505050565b600260015414156117765760405162461bcd60e51b8152600401610268906125e7565b6002600155603f546001600160a01b031633146117a657604051637d3781d760e11b815260040160405180910390fd5b816117c4576040516378e321a560e01b815260040160405180910390fd5b6117cd8161206d565b6001600160a01b0381166000908152603d6020526040812080548492906117f59084906125cf565b92505081905550816039600082825461180e91906125cf565b9091555050603854604051638dbdbe6d60e01b81526004810191909152602481018390523060448201527354aff400858dcac39797a81894d9920f16972d1d90638dbdbe6d90606401600060405180830381600087803b15801561187157600080fd5b505af1158015611885573d6000803e3d6000fd5b50506001805550505050565b600260015414156118b45760405162461bcd60e51b8152600401610268906125e7565b6002600155603f546001600160a01b031633146118e457604051637d3781d760e11b815260040160405180910390fd5b8261190257604051632cd294cf60e01b815260040160405180910390fd5b61190b8261206d565b6001600160a01b0382166000908152603d60205260409020600281015484111561199e5760028101548154600091611942916125cf565b90508085111561196557604051632858f9ab60e11b815260040160405180910390fd5b61196f8582612705565b825560028201546039548691611984916125cf565b61198e9190612705565b60395550600060028201556119b8565b838160020160008282546119b29190612705565b90915550505b603854604051630ad58d2f60e01b81526004810191909152602481018590526001600160a01b03831660448201527354aff400858dcac39797a81894d9920f16972d1d90630ad58d2f90606401600060405180830381600087803b158015611a1f57600080fd5b505af1158015611a33573d6000803e3d6000fd5b505060018055505050505050565b6001600160a01b0381166000908152603d60209081526040808320815160a08101835281548152600182015493810193909352600281015491830191909152600381015463ffffffff908116606084018190526004909201546080840152603c54161415611ab3576040015192915050565b60608082015163ffffffff166000908152603e6020908152604080832081519485018252805480865260018201549386019390935260020154908401526080840151611afe91612705565b8351611b0a91906128d0565b8360200151611b1991906125cf565b90506000670de0b6b3a7640000836020015183611b3691906128d0565b611b409190612692565b6040840151603c54919250600091670de0b6b3a76400009190603e908490611b709060019063ffffffff1661261e565b63ffffffff1663ffffffff16815260200190815260200160002060020154611b989190612705565b8651611ba491906128d0565b611bae9190612692565b905080828660400151611bc191906125cf565b611bcb91906125cf565b979650505050505050565b6001600160a01b03811615801590611c0457506000611bf8602084018461246e565b6001600160a01b031614155b1561174e576040516370a0823160e01b8152306004820152600090670de0b6b3a7640000906020850135906001600160a01b038516906370a0823190602401602060405180830381865afa158015611c60573d6000803e3d6000fd5b505050506040513d601f19601f82011682018060405250810190611c849190612679565b611c8e91906128d0565b611c989190612692565b90508015611e5b57366000611cad86806126b4565b90925090508015801590611d2a57508181611cc9600182612705565b818110611cd857611cd8612643565b9050602002016020810190611ced919061246e565b6001600160a01b031682826000818110611d0957611d09612643565b9050602002016020810190611d1e919061246e565b6001600160a01b031614155b15611e3757836001600160a01b031682826000818110611d4c57611d4c612643565b9050602002016020810190611d61919061246e565b6001600160a01b031614611d9357604051630b65ba9d60e41b81526001600160a01b0385166004820152602401610268565b73c0788a3ad43d79aa53b09c2eacc313a787d1d6076338ed1739846020808a01359086908690611dc5908c018c61246e565b426040518763ffffffff1660e01b8152600401611de79695949392919061271c565b6000604051808303816000875af1158015611e06573d6000803e3d6000fd5b505050506040513d6000823e601f3d908101601f19168201604052611e2e9190810190612865565b50505050505050565b611e58611e47602087018761246e565b6001600160a01b0386169085612192565b50505b50505050565b60008054610100900460ff1615611ea8578160ff166001148015611e845750303b155b611ea05760405162461bcd60e51b815260040161026890612a6a565b506000919050565b60005460ff808416911610611ecf5760405162461bcd60e51b815260040161026890612a6a565b506000805460ff191660ff92909216919091179055600190565b600054610100900460ff16611f105760405162461bcd60e51b815260040161026890612ab8565b611f186121e4565b565b600080805b7354aff400858dcac39797a81894d9920f16972d1d6001600160a01b031663081e3eda6040518163ffffffff1660e01b8152600401602060405180830381865afa158015611f71573d6000803e3d6000fd5b505050506040513d601f19601f82011682018060405250810190611f959190612679565b811015612048576040516378ed5d1f60e01b8152600481018290526001600160a01b038516907354aff400858dcac39797a81894d9920f16972d1d906378ed5d1f90602401602060405180830381865afa158015611ff7573d6000803e3d6000fd5b505050506040513d601f19601f8201168201806040525081019061201b9190612966565b6001600160a01b031614156120365780925060019150612048565b8061204081612b03565b915050611f1f565b5080612067576040516316525c6160e31b815260040160405180910390fd5b50919050565b6001600160a01b0381166000908152603d60205260409020603c54600382015463ffffffff908116911614156120d65760048101546120ac9043612705565b81546120b891906128d0565b8160010160008282546120cb91906125cf565b909155506121329050565b6120df82611a41565b6002820155603c54603e906000906120ff9060019063ffffffff1661261e565b63ffffffff1681526020810191909152604001600020546121209043612705565b815461212c91906128d0565b60018201555b603c5460038201805463ffffffff191663ffffffff9092169190911790554360048201819055603954603b54909161216a9190612705565b61217491906128d0565b603a600082825461218591906125cf565b909155505043603b555050565b604080516001600160a01b038416602482015260448082018490528251808303909101815260649091019091526020810180516001600160e01b031663a9059cbb60e01b17905261174e908490612211565b600054610100900460ff1661220b5760405162461bcd60e51b815260040161026890612ab8565b60018055565b6000612266826040518060400160405280602081526020017f5361666545524332303a206c6f772d6c6576656c2063616c6c206661696c6564815250856001600160a01b03166122e39092919063ffffffff16565b80519091501561174e57808060200190518101906122849190612a48565b61174e5760405162461bcd60e51b815260206004820152602a60248201527f5361666545524332303a204552433230206f7065726174696f6e20646964206e6044820152691bdd081cdd58d8d9595960b21b6064820152608401610268565b60606122f284846000856122fc565b90505b9392505050565b60608247101561235d5760405162461bcd60e51b815260206004820152602660248201527f416464726573733a20696e73756666696369656e742062616c616e636520666f6044820152651c8818d85b1b60d21b6064820152608401610268565b6001600160a01b0385163b6123b45760405162461bcd60e51b815260206004820152601d60248201527f416464726573733a2063616c6c20746f206e6f6e2d636f6e74726163740000006044820152606401610268565b600080866001600160a01b031685876040516123d09190612b4a565b60006040518083038185875af1925050503d806000811461240d576040519150601f19603f3d011682016040523d82523d6000602084013e612412565b606091505b5091509150611bcb8282866060831561242c5750816122f5565b82511561243c5782518084602001fd5b8160405162461bcd60e51b81526004016102689190612b5c565b6001600160a01b038116811461246b57600080fd5b50565b60006020828403121561248057600080fd5b81356122f581612456565b600080600083850360808112156124a157600080fd5b843567ffffffffffffffff808211156124b957600080fd5b8187019150876080830111156124ce57600080fd5b909450602086013590808211156124e457600080fd5b508501604081018710156124f757600080fd5b92506040603f198201121561250b57600080fd5b506040840190509250925092565b6000806040838503121561252c57600080fd5b823561253781612456565b9150602083013561254781612456565b809150509250929050565b6000806040838503121561256557600080fd5b82359150602083013561254781612456565b60008060006060848603121561258c57600080fd5b83359250602084013561259e81612456565b915060408401356125ae81612456565b809150509250925092565b634e487b7160e01b600052601160045260246000fd5b600082198211156125e2576125e26125b9565b500190565b6020808252601f908201527f5265656e7472616e637947756172643a207265656e7472616e742063616c6c00604082015260600190565b600063ffffffff8381169083168181101561263b5761263b6125b9565b039392505050565b634e487b7160e01b600052603260045260246000fd5b60008235603e1983360301811261266f57600080fd5b9190910192915050565b60006020828403121561268b57600080fd5b5051919050565b6000826126af57634e487b7160e01b600052601260045260246000fd5b500490565b6000808335601e198436030181126126cb57600080fd5b83018035915067ffffffffffffffff8211156126e657600080fd5b6020019150600581901b36038213156126fe57600080fd5b9250929050565b600082821015612717576127176125b9565b500390565b868152602080820187905260a0604083018190528201859052600090869060c08401835b8881101561276e57833561275381612456565b6001600160a01b031682529282019290820190600101612740565b506001600160a01b0396909616606085015250505060800152949350505050565b634e487b7160e01b600052604160045260246000fd5b604051601f8201601f1916810167ffffffffffffffff811182821017156127ce576127ce61278f565b604052919050565b600067ffffffffffffffff8211156127f0576127f061278f565b5060051b60200190565b600082601f83011261280b57600080fd5b8151602061282061281b836127d6565b6127a5565b82815260059290921b8401810191818101908684111561283f57600080fd5b8286015b8481101561285a5780518352918301918301612843565b509695505050505050565b60006020828403121561287757600080fd5b815167ffffffffffffffff81111561288e57600080fd5b61289a848285016127fa565b949350505050565b6000806000606084860312156128b757600080fd5b8351925060208401519150604084015190509250925092565b60008160001904831182151516156128ea576128ea6125b9565b500290565b600063ffffffff80831681851680830382111561290e5761290e6125b9565b01949350505050565b60006040828403121561292957600080fd5b6040516040810181811067ffffffffffffffff8211171561294c5761294c61278f565b604052825181526020928301519281019290925250919050565b60006020828403121561297857600080fd5b81516122f581612456565b6000806040838503121561299657600080fd5b825167ffffffffffffffff808211156129ae57600080fd5b818501915085601f8301126129c257600080fd5b815160206129d261281b836127d6565b82815260059290921b840181019181810190898411156129f157600080fd5b948201945b83861015612a18578551612a0981612456565b825294820194908201906129f6565b91880151919650909350505080821115612a3157600080fd5b50612a3e858286016127fa565b9150509250929050565b600060208284031215612a5a57600080fd5b815180151581146122f557600080fd5b6020808252602e908201527f496e697469616c697a61626c653a20636f6e747261637420697320616c72656160408201526d191e481a5b9a5d1a585b1a5e995960921b606082015260800190565b6020808252602b908201527f496e697469616c697a61626c653a20636f6e7472616374206973206e6f74206960408201526a6e697469616c697a696e6760a81b606082015260800190565b6000600019821415612b1757612b176125b9565b5060010190565b60005b83811015612b39578181015183820152602001612b21565b83811115611e5b5750506000910152565b6000825161266f818460208701612b1e565b6020815260008251806020840152612b7b816040850160208701612b1e565b601f01601f1916919091016040019291505056fea26469706673582212200aac9d69587725f1f38f1df61a883bf80aa59f703639b4fd06117fdec179a19964736f6c634300080a0033",
  "immutableReferences": {},
  "source": "// SPDX-License-Identifier: MIT\r\npragma solidity 0.8.10;\r\n \r\nimport './interfaces/IUnoFarmApeswap.sol';\r\nimport '../../interfaces/IUniswapV2Pair.sol';\r\nimport \"../../interfaces/IUniswapV2Router.sol\";\r\nimport '../../interfaces/IMiniApeV2.sol';\r\nimport '../../interfaces/IMiniComplexRewarderTime.sol';\r\nimport '@openzeppelin/contracts-upgradeable/security/ReentrancyGuardUpgradeable.sol';\r\nimport '@openzeppelin/contracts/token/ERC20/utils/SafeERC20.sol';\r\nimport '@openzeppelin/contracts-upgradeable/proxy/utils/Initializable.sol';\r\n\r\ncontract UnoFarmApeswap is Initializable, ReentrancyGuardUpgradeable, IUnoFarmApeswap {\r\n    using SafeERC20 for IERC20;\r\n    /**\r\n     * @dev Tokens Used:\r\n     * {rewardToken} - Token generated by staking (BANANA).\r\n     * {rewarderToken} - Token generated by ComplexRewarderTime contract.\r\n     * {lpPool} - Token that the strategy maximizes. The same token that users deposit in the {MiniApe}.\r\n     * {tokenA, tokenB} - Tokens that the strategy maximizes.\r\n     */\r\n    address public rewardToken;\r\n    address public rewarderToken;\r\n    address public lpPool;\r\n    address public tokenA;\r\n    address public tokenB;\r\n\r\n    /**\r\n     * @dev Third Party Contracts:\r\n     * {apeswapRouter} - The contract that executes swaps.\r\n     * {MiniApe} -The contract that distibutes {rewardToken}.\r\n     */\r\n    IUniswapV2Router01 private constant apeswapRouter = IUniswapV2Router01(0xC0788A3aD43d79aa53B09c2EaCc313A787d1d607);\r\n    IMiniApeV2 private constant MiniApe = IMiniApeV2(0x54aff400858Dcac39797a81894D9920f16972D1D);\r\n\r\n    /**\r\n     * @dev Contract Variables:\r\n     * {pid} - Pool ID.\r\n\r\n     * {totalDeposits} - Total deposits made by users.\r\n     * {totalDepositAge} - Deposits multiplied by blocks the deposit has been in. Flushed every reward distribution.\r\n     * {totalDepositLastUpdate} - Last {totalDepositAge} update block.\r\n\r\n     * {distributionID} - Current distribution ID.\r\n     * {userInfo} - Info on each user.\r\n     * {distributionInfo} - Info on each distribution.\r\n\r\n     * {fractionMultiplier} - Used to store decimal values.\r\n     */\r\n    uint256 public pid;\r\n\r\n    uint256 private totalDeposits;\r\n    uint256 private totalDepositAge;\r\n    uint256 private totalDepositLastUpdate;\r\n\r\n    uint32 private distributionID;\r\n    mapping(address => UserInfo) private userInfo;\r\n    mapping(uint32 => DistributionInfo) private distributionInfo;\r\n\r\n    uint256 private constant fractionMultiplier = uint256(1 ether);\r\n\r\n    /**\r\n     * @dev Contract Variables:\r\n     * {assetRouter} - The contract from which calls to this farm are made.\r\n     */\r\n    address public assetRouter;\r\n    modifier onlyAssetRouter(){\r\n        if(msg.sender != assetRouter) revert CALLER_NOT_ASSET_ROUTER();\r\n        _;\r\n    }\r\n\r\n    // ============ Methods ============\r\n\r\n    function initialize(address _lpPool, address _assetRouter) external initializer {\r\n        if(_lpPool == address(0)) revert INVALID_LP_POOL();\r\n        if(_assetRouter == address(0)) revert INVALID_ASSET_ROUTER();\r\n\r\n        __ReentrancyGuard_init();\r\n        assetRouter = _assetRouter;\r\n\r\n        pid = _getPid(_lpPool);\r\n        lpPool = _lpPool;\r\n\r\n        rewardToken = MiniApe.BANANA();\r\n\r\n        address Rewarder = MiniApe.rewarder(pid);\r\n        if (Rewarder != address(0)) {\r\n            (IERC20[] memory rewarderTokenArray, ) = IMiniComplexRewarderTime(Rewarder).pendingTokens(pid, address(0), 0);\r\n            rewarderToken = address(rewarderTokenArray[0]);\r\n            IERC20(rewarderToken).approve(address(apeswapRouter), type(uint256).max);\r\n        }\r\n\r\n        tokenA = IUniswapV2Pair(lpPool).token0();\r\n        tokenB = IUniswapV2Pair(lpPool).token1();\r\n\r\n        distributionInfo[0] = DistributionInfo({\r\n            block: block.number,\r\n            rewardPerDepositAge: 0,\r\n            cumulativeRewardAgePerDepositAge: 0\r\n        });\r\n        distributionID = 1;\r\n        totalDepositLastUpdate = block.number;\r\n\r\n        IERC20(lpPool).approve(address(MiniApe), type(uint256).max);\r\n        IERC20(lpPool).approve(address(apeswapRouter), type(uint256).max);\r\n        IERC20(rewardToken).approve(address(apeswapRouter), type(uint256).max);\r\n        IERC20(tokenA).approve(address(apeswapRouter), type(uint256).max);\r\n        IERC20(tokenB).approve(address(apeswapRouter), type(uint256).max);\r\n    }\r\n\r\n    /**\r\n     * @dev Function that makes the deposits.\r\n     * Stakes {amount} of LP tokens from this contract's balance in the {MiniApe}.\r\n     */\r\n    function deposit(uint256 amount, address recipient) external nonReentrant onlyAssetRouter{\r\n        if(amount == 0) revert NO_LIQUIDITY_PROVIDED();\r\n\r\n        _updateDeposit(recipient);\r\n        userInfo[recipient].stake += amount;\r\n        totalDeposits += amount;\r\n            \r\n        MiniApe.deposit(pid, amount, address(this));\r\n    }\r\n\r\n    /**\r\n     * @dev Withdraws funds from {origin} and sends them to the {recipient}.\r\n     */\r\n    function withdraw(uint256 amount, address origin, address recipient) external nonReentrant onlyAssetRouter{\r\n        if(amount == 0) revert INSUFFICIENT_AMOUNT();\r\n\r\n        _updateDeposit(origin);\r\n        UserInfo storage user = userInfo[origin];\r\n        // Subtract amount from user.reward first, then subtract remainder from user.stake.\r\n        if(amount > user.reward){\r\n            uint256 balance = user.stake + user.reward;\r\n            if(amount > balance) revert INSUFFICIENT_BALANCE();\r\n\r\n            user.stake = balance - amount;\r\n            totalDeposits = totalDeposits + user.reward - amount;\r\n            user.reward = 0;\r\n        } else {\r\n            user.reward -= amount;\r\n        }\r\n\r\n        MiniApe.withdraw(pid, amount, recipient);\r\n    }\r\n\r\n    /**\r\n     * @dev Core function of the strat, in charge of updating, collecting and re-investing rewards.\r\n     * 1. It claims rewards from the {MiniApe}.\r\n     * 2. It swaps {rewardToken} token for {tokenA} & {tokenB}.\r\n     * 3. It deposits new LP tokens back to the {MiniApe}.\r\n     */\r\n    function distribute(\r\n        SwapInfo[4] calldata swapInfos,\r\n        SwapInfo[2] calldata feeSwapInfos,\r\n        FeeInfo calldata feeInfo\r\n    ) external onlyAssetRouter nonReentrant returns(uint256 reward){\r\n        if(totalDeposits == 0) revert NO_LIQUIDITY();\r\n        if(distributionInfo[distributionID - 1].block == block.number) revert CALL_ON_THE_SAME_BLOCK();\r\n\r\n        MiniApe.harvest(pid, address(this));\r\n\r\n        _collectFees(feeSwapInfos[0], feeInfo, rewardToken);\r\n        _collectFees(feeSwapInfos[1], feeInfo, rewarderToken);\r\n        { // scope to avoid stack too deep errors\r\n        uint256 rewardTokenHalf = IERC20(rewardToken).balanceOf(address(this)) / 2;\r\n        uint256 rewarderTokenHalf;\r\n        if (rewarderToken != address(0)) {\r\n            rewarderTokenHalf = IERC20(rewarderToken).balanceOf(address(this)) / 2;\r\n        }\r\n        \r\n        if (rewardTokenHalf > 0) {\r\n            if (tokenA != rewardToken) {\r\n                address[] calldata route = swapInfos[0].route;\r\n                if(route[0] != rewardToken || route[route.length - 1] != tokenA) revert INVALID_ROUTE(rewardToken, tokenA);\r\n                apeswapRouter.swapExactTokensForTokens(rewardTokenHalf, swapInfos[0].amountOutMin, route, address(this), block.timestamp);\r\n            }\r\n\r\n            if (tokenB != rewardToken) {\r\n                address[] calldata route = swapInfos[1].route;\r\n                if(route[0] != rewardToken || route[route.length - 1] != tokenB) revert INVALID_ROUTE(rewardToken, tokenB);\r\n                apeswapRouter.swapExactTokensForTokens(rewardTokenHalf, swapInfos[1].amountOutMin, route, address(this), block.timestamp);\r\n            }\r\n        }\r\n        \r\n        if (rewarderTokenHalf > 0) {\r\n            if (tokenA != rewarderToken) {\r\n                address[] calldata route = swapInfos[2].route;\r\n                if (route[0] != rewarderToken || route[route.length - 1] != tokenA) revert INVALID_ROUTE(rewarderToken, tokenA);\r\n                apeswapRouter.swapExactTokensForTokens(rewarderTokenHalf, swapInfos[2].amountOutMin, route, address(this), block.timestamp);\r\n            }\r\n\r\n            if (tokenB != rewarderToken) {\r\n                address[] calldata route = swapInfos[3].route;\r\n                if (route[0] != rewarderToken || route[route.length - 1] != tokenB) revert INVALID_ROUTE(rewarderToken, tokenB);\r\n                apeswapRouter.swapExactTokensForTokens(rewarderTokenHalf, swapInfos[3].amountOutMin, route, address(this), block.timestamp);\r\n            }\r\n        }\r\n        }\r\n\r\n        (,,reward) = apeswapRouter.addLiquidity(tokenA, tokenB, IERC20(tokenA).balanceOf(address(this)), IERC20(tokenB).balanceOf(address(this)), swapInfos[0].amountOutMin + swapInfos[2].amountOutMin, swapInfos[1].amountOutMin + swapInfos[3].amountOutMin, address(this), block.timestamp);\r\n        \r\n        uint256 rewardPerDepositAge = reward * fractionMultiplier / (totalDepositAge + totalDeposits * (block.number - totalDepositLastUpdate));\r\n        uint256 cumulativeRewardAgePerDepositAge = distributionInfo[distributionID - 1].cumulativeRewardAgePerDepositAge + rewardPerDepositAge * (block.number - distributionInfo[distributionID - 1].block);\r\n\r\n        distributionInfo[distributionID] = DistributionInfo({\r\n            block: block.number,\r\n            rewardPerDepositAge: rewardPerDepositAge,\r\n            cumulativeRewardAgePerDepositAge: cumulativeRewardAgePerDepositAge\r\n        });\r\n\r\n        distributionID += 1;\r\n        totalDepositLastUpdate = block.number;\r\n        totalDepositAge = 0;\r\n            \r\n        MiniApe.deposit(pid, reward, address(this));\r\n    }\r\n    \r\n    /**\r\n     * @dev Swaps and sends fees to feeTo.\r\n     */\r\n    function _collectFees(SwapInfo calldata feeSwapInfo, FeeInfo calldata feeInfo, address token) internal {\r\n        if(token != address(0) && feeInfo.feeTo != address(0)){\r\n            uint256 feeAmount = IERC20(token).balanceOf(address(this)) * feeInfo.fee / fractionMultiplier;\r\n            if(feeAmount > 0){\r\n                address[] calldata route = feeSwapInfo.route;\r\n                if(route.length > 0 && route[0] != route[route.length - 1]){\r\n                    if(route[0] != token) revert INVALID_FEE_ROUTE(token);\r\n                    apeswapRouter.swapExactTokensForTokens(feeAmount, feeSwapInfo.amountOutMin, route, feeInfo.feeTo, block.timestamp);\r\n                    return;\r\n                }\r\n                IERC20(token).safeTransfer(feeInfo.feeTo, feeAmount);\r\n            }\r\n        }\r\n    }\r\n\r\n    /**\r\n     * @dev Returns total funds staked by the {_address}.\r\n     */\r\n    function userBalance(address _address) external view returns (uint256) {\r\n        return userInfo[_address].stake + _userReward(_address);\r\n    }\r\n\r\n    /**\r\n     * @dev Returns total funds locked in the farm.\r\n     */\r\n    function getTotalDeposits() external view returns (uint256 _totalDeposits) {\r\n        if(totalDeposits > 0){\r\n            _totalDeposits = MiniApe.userInfo(pid, address(this)).amount;\r\n        }\r\n    }\r\n    \r\n    function _updateDeposit(address _address) internal {\r\n        UserInfo storage user = userInfo[_address];\r\n        // Accumulate deposit age within the current distribution period.\r\n        if (user.lastDistribution == distributionID) {\r\n            // Add deposit age from previous deposit age update to now.\r\n            user.depositAge += user.stake * (block.number - user.lastUpdate);\r\n        } else {\r\n            // A reward has been distributed, update user.reward.\r\n            user.reward = _userReward(_address);\r\n            // Count fresh deposit age from previous reward distribution to now.\r\n            user.depositAge = user.stake * (block.number - distributionInfo[distributionID - 1].block);\r\n        }\r\n\r\n        user.lastDistribution = distributionID;\r\n        user.lastUpdate = block.number;\r\n\r\n        // Same with total deposit age.\r\n        totalDepositAge += (block.number - totalDepositLastUpdate) * totalDeposits;\r\n        totalDepositLastUpdate = block.number;\r\n    }\r\n\r\n    function _userReward(address _address) internal view returns (uint256) {\r\n        UserInfo memory user = userInfo[_address];\r\n        if (user.lastDistribution == distributionID) {\r\n            // Return user.reward if the distribution after the last user deposit did not happen yet.\r\n            return user.reward;\r\n        }\r\n        DistributionInfo memory lastUserDistributionInfo = distributionInfo[user.lastDistribution];\r\n        uint256 userDepositAge = user.depositAge + user.stake * (lastUserDistributionInfo.block - user.lastUpdate);\r\n        // Calculate reward between the last user deposit and the distribution after that.\r\n        uint256 rewardBeforeDistibution = userDepositAge * lastUserDistributionInfo.rewardPerDepositAge / fractionMultiplier;\r\n        // Calculate reward from the distributions that have happened after the last user deposit.\r\n        uint256 rewardAfterDistribution = user.stake * (distributionInfo[distributionID - 1].cumulativeRewardAgePerDepositAge - lastUserDistributionInfo.cumulativeRewardAgePerDepositAge) / fractionMultiplier;\r\n        return user.reward + rewardBeforeDistibution + rewardAfterDistribution;\r\n    }\r\n\r\n    /**\r\n     * @dev Get pid by iterating over all pools and comparing pids.\r\n     */\r\n    function _getPid(address _lpPool) internal view returns (uint256 _pid) {\r\n        bool poolExists = false;\r\n        for (uint256 i = 0; i < MiniApe.poolLength(); i++) {\r\n            if (MiniApe.lpToken(i) == _lpPool) {\r\n                _pid = i;\r\n                poolExists = true;\r\n                break;\r\n            }\r\n        }\r\n        if(!poolExists) revert PID_NOT_EXISTS();\r\n        return _pid;\r\n    }\r\n}\r\n",
  "sourcePath": "C:\\Users\\jugli\\Desktop\\uno\\uno-contracts\\contracts\\apps\\apeswap\\UnoFarmApeswap.sol",
  "compiler": {
    "name": "solc",
    "version": "0.8.10+commit.fc410830.Emscripten.clang"
  },
  "schemaVersion": "3.4.13",
  "updatedAt": "2023-06-11T08:38:09.172Z",
  "devdoc": {
    "kind": "dev",
    "methods": {
      "deposit(uint256,address)": {
        "details": "Function that makes the deposits. Stakes {amount} of LP tokens from this contract's balance in the {MiniApe}."
      },
      "distribute((address[],uint256)[4],(address[],uint256)[2],(address,uint256))": {
        "details": "Core function of the strat, in charge of updating, collecting and re-investing rewards. 1. It claims rewards from the {MiniApe}. 2. It swaps {rewardToken} token for {tokenA} & {tokenB}. 3. It deposits new LP tokens back to the {MiniApe}."
      },
      "getTotalDeposits()": {
        "details": "Returns total funds locked in the farm."
      },
      "userBalance(address)": {
        "details": "Returns total funds staked by the {_address}."
      },
      "withdraw(uint256,address,address)": {
        "details": "Withdraws funds from {origin} and sends them to the {recipient}."
      }
    },
    "stateVariables": {
      "apeswapRouter": {
        "details": "Third Party Contracts: {apeswapRouter} - The contract that executes swaps. {MiniApe} -The contract that distibutes {rewardToken}."
      },
      "assetRouter": {
        "details": "Contract Variables: {assetRouter} - The contract from which calls to this farm are made."
      },
      "pid": {
        "details": "Contract Variables: {pid} - Pool ID. {totalDeposits} - Total deposits made by users. {totalDepositAge} - Deposits multiplied by blocks the deposit has been in. Flushed every reward distribution. {totalDepositLastUpdate} - Last {totalDepositAge} update block. {distributionID} - Current distribution ID. {userInfo} - Info on each user. {distributionInfo} - Info on each distribution. {fractionMultiplier} - Used to store decimal values."
      },
      "rewardToken": {
        "details": "Tokens Used: {rewardToken} - Token generated by staking (BANANA). {rewarderToken} - Token generated by ComplexRewarderTime contract. {lpPool} - Token that the strategy maximizes. The same token that users deposit in the {MiniApe}. {tokenA, tokenB} - Tokens that the strategy maximizes."
      }
    },
    "version": 1
  },
  "userdoc": {
    "kind": "user",
    "methods": {},
    "version": 1
  }
}