{
  "contractName": "UnoFarmQuickswap",
  "abi": [
    {
      "anonymous": false,
      "inputs": [
        {
          "indexed": false,
          "internalType": "uint8",
          "name": "version",
          "type": "uint8"
        }
      ],
      "name": "Initialized",
      "type": "event"
    },
    {
      "inputs": [],
      "name": "assetRouter",
      "outputs": [
        {
          "internalType": "address",
          "name": "",
          "type": "address"
        }
      ],
      "stateMutability": "view",
      "type": "function",
      "constant": true
    },
    {
      "inputs": [],
      "name": "lpPair",
      "outputs": [
        {
          "internalType": "address",
          "name": "",
          "type": "address"
        }
      ],
      "stateMutability": "view",
      "type": "function",
      "constant": true
    },
    {
      "inputs": [],
      "name": "rewardToken",
      "outputs": [
        {
          "internalType": "address",
          "name": "",
          "type": "address"
        }
      ],
      "stateMutability": "view",
      "type": "function",
      "constant": true
    },
    {
      "inputs": [],
      "name": "tokenA",
      "outputs": [
        {
          "internalType": "address",
          "name": "",
          "type": "address"
        }
      ],
      "stateMutability": "view",
      "type": "function",
      "constant": true
    },
    {
      "inputs": [],
      "name": "tokenB",
      "outputs": [
        {
          "internalType": "address",
          "name": "",
          "type": "address"
        }
      ],
      "stateMutability": "view",
      "type": "function",
      "constant": true
    },
    {
      "inputs": [
        {
          "internalType": "address",
          "name": "_lpStakingPool",
          "type": "address"
        },
        {
          "internalType": "address",
          "name": "_assetRouter",
          "type": "address"
        }
      ],
      "name": "initialize",
      "outputs": [],
      "stateMutability": "nonpayable",
      "type": "function"
    },
    {
      "inputs": [
        {
          "internalType": "uint256",
          "name": "amountA",
          "type": "uint256"
        },
        {
          "internalType": "uint256",
          "name": "amountB",
          "type": "uint256"
        },
        {
          "internalType": "uint256",
          "name": "amountAMin",
          "type": "uint256"
        },
        {
          "internalType": "uint256",
          "name": "amountBMin",
          "type": "uint256"
        },
        {
          "internalType": "uint256",
          "name": "amountLP",
          "type": "uint256"
        },
        {
          "internalType": "address",
          "name": "origin",
          "type": "address"
        },
        {
          "internalType": "address",
          "name": "recipient",
          "type": "address"
        }
      ],
      "name": "deposit",
      "outputs": [
        {
          "internalType": "uint256",
          "name": "sentA",
          "type": "uint256"
        },
        {
          "internalType": "uint256",
          "name": "sentB",
          "type": "uint256"
        },
        {
          "internalType": "uint256",
          "name": "liquidity",
          "type": "uint256"
        }
      ],
      "stateMutability": "nonpayable",
      "type": "function"
    },
    {
      "inputs": [
        {
          "internalType": "uint256",
          "name": "amount",
          "type": "uint256"
        },
        {
          "internalType": "uint256",
          "name": "amountAMin",
          "type": "uint256"
        },
        {
          "internalType": "uint256",
          "name": "amountBMin",
          "type": "uint256"
        },
        {
          "internalType": "bool",
          "name": "withdrawLP",
          "type": "bool"
        },
        {
          "internalType": "address",
          "name": "origin",
          "type": "address"
        },
        {
          "internalType": "address",
          "name": "recipient",
          "type": "address"
        }
      ],
      "name": "withdraw",
      "outputs": [
        {
          "internalType": "uint256",
          "name": "amountA",
          "type": "uint256"
        },
        {
          "internalType": "uint256",
          "name": "amountB",
          "type": "uint256"
        }
      ],
      "stateMutability": "nonpayable",
      "type": "function"
    },
    {
      "inputs": [
        {
          "internalType": "address[][2]",
          "name": "swapRoutes",
          "type": "address[][2]"
        },
        {
          "internalType": "uint256[2]",
          "name": "amountsOutMin",
          "type": "uint256[2]"
        }
      ],
      "name": "distribute",
      "outputs": [
        {
          "internalType": "uint256",
          "name": "reward",
          "type": "uint256"
        }
      ],
      "stateMutability": "nonpayable",
      "type": "function"
    },
    {
      "inputs": [
        {
          "internalType": "address",
          "name": "_address",
          "type": "address"
        }
      ],
      "name": "userBalance",
      "outputs": [
        {
          "internalType": "uint256",
          "name": "",
          "type": "uint256"
        }
      ],
      "stateMutability": "view",
      "type": "function",
      "constant": true
    },
    {
      "inputs": [],
      "name": "getTotalDeposits",
      "outputs": [
        {
          "internalType": "uint256",
          "name": "_totalDeposits",
          "type": "uint256"
        }
      ],
      "stateMutability": "view",
      "type": "function",
      "constant": true
    }
  ],
  "bytecode": "0x608060405234801561001057600080fd5b506123b1806100206000396000f3fe608060405234801561001057600080fd5b50600436106100a95760003560e01c8063485cc95511610071578063485cc955146101485780635f64b55b1461015d57806394c323f714610170578063bc0aac1014610183578063d563468314610196578063f7c618c1146101be57600080fd5b80630103c92b146100ae5780630fc63d10146100d45780631666768a146100ff578063168a48221461012d578063452ed4f114610135575b600080fd5b6100c16100bc366004611d40565b6101d1565b6040519081526020015b60405180910390f35b6035546100e7906001600160a01b031681565b6040516001600160a01b0390911681526020016100cb565b61011261010d366004611d5d565b610205565b604080519384526020840192909252908201526060016100cb565b6100c1610498565b6034546100e7906001600160a01b031681565b61015b610156366004611dc6565b610515565b005b6036546100e7906001600160a01b031681565b6100c161017e366004611e10565b610c24565b603e546100e7906001600160a01b031681565b6101a96101a4366004611e6d565b6114b3565b604080519283526020830191909152016100cb565b6033546100e7906001600160a01b031681565b60006101dc82611779565b6001600160a01b0383166000908152603c60205260409020546101ff9190611eea565b92915050565b6000806000600260015414156102365760405162461bcd60e51b815260040161022d90611f02565b60405180910390fd5b6002600155603e546001600160a01b031633146102655760405162461bcd60e51b815260040161022d90611f39565b6000808b118015610276575060008a115b1561033e5773a5e0829caced8ffdd4de3c43696c57f7d7a678ff6001600160a01b031663e8e33700603560009054906101000a90046001600160a01b0316603660009054906101000a90046001600160a01b03168e8e8e8e30426040518963ffffffff1660e01b81526004016102f3989796959493929190611f70565b6060604051808303816000875af1158015610312573d6000803e3d6000fd5b505050506040513d601f19601f820116820180604052508101906103369190611fb9565b919550935090505b6103488782611eea565b9150600082116103925760405162461bcd60e51b81526020600482015260156024820152741393d7d3125455525112551657d41493d592511151605a1b604482015260640161022d565b61039b8561190e565b6001600160a01b0385166000908152603c6020526040812080548492906103c3908490611eea565b9250508190555081603860008282546103dc9190611eea565b909155505060375460405163534a7e1d60e11b8152600481018490526001600160a01b039091169063a694fc3a90602401600060405180830381600087803b15801561042757600080fd5b505af115801561043b573d6000803e3d6000fd5b5050505061046286858d61044f9190611fe7565b6035546001600160a01b03169190611a33565b61048386610470858d611fe7565b6036546001600160a01b03169190611a33565b50600180819055509750975097945050505050565b60385460009015610512576037546040516370a0823160e01b81523060048201526001600160a01b03909116906370a0823190602401602060405180830381865afa1580156104eb573d6000803e3d6000fd5b505050506040513d601f19601f8201168201806040525081019061050f9190611ffe565b90505b90565b600054610100900460ff16158080156105355750600054600160ff909116105b8061054f5750303b15801561054f575060005460ff166001145b6105b25760405162461bcd60e51b815260206004820152602e60248201527f496e697469616c697a61626c653a20636f6e747261637420697320616c72656160448201526d191e481a5b9a5d1a585b1a5e995960921b606482015260840161022d565b6000805460ff1916600117905580156105d5576000805461ff0019166101001790555b6001600160a01b0383166106195760405162461bcd60e51b815260206004820152600b60248201526a10905117d31417d413d3d360aa1b604482015260640161022d565b6001600160a01b0382166106625760405162461bcd60e51b815260206004820152601060248201526f2120a22fa0a9a9a2aa2fa927aaaa22a960811b604482015260640161022d565b61066a611a85565b603e80546001600160a01b038085166001600160a01b031992831617909255603780549286169290911682179055604080516372f702f360e01b815290516372f702f3916004808201926020929091908290030181865afa1580156106d3573d6000803e3d6000fd5b505050506040513d601f19601f820116820180604052508101906106f79190612017565b603480546001600160a01b0319166001600160a01b039283161790556037546040805163d1af0c7d60e01b81529051919092169163d1af0c7d9160048083019260209291908290030181865afa158015610755573d6000803e3d6000fd5b505050506040513d601f19601f820116820180604052508101906107799190612017565b603380546001600160a01b0319166001600160a01b0392831617905560345460408051630dfe168160e01b815290519190921691630dfe16819160048083019260209291908290030181865afa1580156107d7573d6000803e3d6000fd5b505050506040513d601f19601f820116820180604052508101906107fb9190612017565b603580546001600160a01b0319166001600160a01b039283161790556034546040805163d21220a760e01b81529051919092169163d21220a79160048083019260209291908290030181865afa158015610859573d6000803e3d6000fd5b505050506040513d601f19601f8201168201806040525081019061087d9190612017565b603680546001600160a01b0319166001600160a01b03928316179055604080516060810182524380825260006020808401828152848601838152928052603d90915292517fb4447350905ade30fbbf16eb128316f54a45abd6b02d89811edf7bbf0bb1ba7c5591517fb4447350905ade30fbbf16eb128316f54a45abd6b02d89811edf7bbf0bb1ba7d5590517fb4447350905ade30fbbf16eb128316f54a45abd6b02d89811edf7bbf0bb1ba7e55603b805463ffffffff19166001179055603a55603454905163095ea7b360e01b81528583166004820152600019602482015291169063095ea7b3906044016020604051808303816000875af1158015610988573d6000803e3d6000fd5b505050506040513d601f19601f820116820180604052508101906109ac9190612034565b5060345460405163095ea7b360e01b815273a5e0829caced8ffdd4de3c43696c57f7d7a678ff600482015260001960248201526001600160a01b039091169063095ea7b3906044016020604051808303816000875af1158015610a13573d6000803e3d6000fd5b505050506040513d601f19601f82011682018060405250810190610a379190612034565b5060335460405163095ea7b360e01b815273a5e0829caced8ffdd4de3c43696c57f7d7a678ff600482015260001960248201526001600160a01b039091169063095ea7b3906044016020604051808303816000875af1158015610a9e573d6000803e3d6000fd5b505050506040513d601f19601f82011682018060405250810190610ac29190612034565b5060355460405163095ea7b360e01b815273a5e0829caced8ffdd4de3c43696c57f7d7a678ff600482015260001960248201526001600160a01b039091169063095ea7b3906044016020604051808303816000875af1158015610b29573d6000803e3d6000fd5b505050506040513d601f19601f82011682018060405250810190610b4d9190612034565b5060365460405163095ea7b360e01b815273a5e0829caced8ffdd4de3c43696c57f7d7a678ff600482015260001960248201526001600160a01b039091169063095ea7b3906044016020604051808303816000875af1158015610bb4573d6000803e3d6000fd5b505050506040513d601f19601f82011682018060405250810190610bd89190612034565b508015610c1f576000805461ff0019169055604051600181527f7f26b83ff96e1f2b6a682f133852f6798a09c465da95921460cefb38474024989060200160405180910390a15b505050565b603e546000906001600160a01b03163314610c515760405162461bcd60e51b815260040161022d90611f39565b60026001541415610c745760405162461bcd60e51b815260040161022d90611f02565b6002600155603854610cb75760405162461bcd60e51b815260206004820152600c60248201526b4e4f5f4c495155494449545960a01b604482015260640161022d565b603b544390603d90600090610cd49060019063ffffffff16612051565b63ffffffff1681526020810191909152604001600020541415610d395760405162461bcd60e51b815260206004820152601b60248201527f43414e545f43414c4c5f4f4e5f5448455f53414d455f424c4f434b0000000000604482015260640161022d565b603760009054906101000a90046001600160a01b03166001600160a01b0316633d18b9126040518163ffffffff1660e01b8152600401600060405180830381600087803b158015610d8957600080fd5b505af1158015610d9d573d6000803e3d6000fd5b50506033546040516370a0823160e01b815230600482015260009350600292506001600160a01b03909116906370a0823190602401602060405180830381865afa158015610def573d6000803e3d6000fd5b505050506040513d601f19601f82011682018060405250810190610e139190611ffe565b610e1d9190612076565b6033546035549192506001600160a01b03918216911614610fc0576033546001600160a01b0316610e4e85806120ae565b6000818110610e5f57610e5f612098565b9050602002016020810190610e749190611d40565b6001600160a01b0316148015610ee157506035546001600160a01b0316610e9b85806120ae565b6001610ea788806120ae565b610eb2929150611fe7565b818110610ec157610ec1612098565b9050602002016020810190610ed69190611d40565b6001600160a01b0316145b610f2d5760405162461bcd60e51b815260206004820152601860248201527f4241445f5245574152445f544f4b454e5f415f524f5554450000000000000000604482015260640161022d565b73a5e0829caced8ffdd4de3c43696c57f7d7a678ff6338ed1739828535610f5488806120ae565b30426040518763ffffffff1660e01b8152600401610f77969594939291906120ff565b6000604051808303816000875af1158015610f96573d6000803e3d6000fd5b505050506040513d6000823e601f3d908101601f19168201604052610fbe9190810190612188565b505b6033546036546001600160a01b03908116911614611170576033546001600160a01b0316610ff160208601866120ae565b600081811061100257611002612098565b90506020020160208101906110179190611d40565b6001600160a01b031614801561108a57506036546001600160a01b031661104160208601866120ae565b600161105060208901896120ae565b61105b929150611fe7565b81811061106a5761106a612098565b905060200201602081019061107f9190611d40565b6001600160a01b0316145b6110d65760405162461bcd60e51b815260206004820152601860248201527f4241445f5245574152445f544f4b454e5f425f524f5554450000000000000000604482015260640161022d565b73a5e0829caced8ffdd4de3c43696c57f7d7a678ff6338ed17398260208087013590611104908901896120ae565b30426040518763ffffffff1660e01b8152600401611127969594939291906120ff565b6000604051808303816000875af1158015611146573d6000803e3d6000fd5b505050506040513d6000823e601f3d908101601f1916820160405261116e9190810190612188565b505b6035546036546040516370a0823160e01b815230600482015273a5e0829caced8ffdd4de3c43696c57f7d7a678ff9263e8e33700926001600160a01b039182169291169082906370a0823190602401602060405180830381865afa1580156111dc573d6000803e3d6000fd5b505050506040513d601f19601f820116820180604052508101906112009190611ffe565b6036546040516370a0823160e01b81523060048201526001600160a01b03909116906370a0823190602401602060405180830381865afa158015611248573d6000803e3d6000fd5b505050506040513d601f19601f8201168201806040525081019061126c9190611ffe565b6040516001600160e01b031960e087901b16815261129d94939291908a359060208c01359030904290600401611f70565b6060604051808303816000875af11580156112bc573d6000803e3d6000fd5b505050506040513d601f19601f820116820180604052508101906112e09190611fb9565b603a54909450600092506112f5915043611fe7565b6038546113029190612246565b60395461130f9190611eea565b611321670de0b6b3a764000085612246565b61132b9190612076565b603b54909150600090603d90829061134b9060019063ffffffff16612051565b63ffffffff16815260208101919091526040016000205461136c9043611fe7565b6113769083612246565b603b54603d906000906113919060019063ffffffff16612051565b63ffffffff1663ffffffff168152602001908152602001600020600201546113b99190611eea565b604080516060810182524381526020808201868152828401858152603b805463ffffffff9081166000908152603d9095529584209451855591516001858101919091559051600290940193909355805494955091939192909161141e91859116612265565b825463ffffffff9182166101009390930a92830291909202199091161790555043603a55600060395560375460405163534a7e1d60e11b8152600481018690526001600160a01b039091169063a694fc3a90602401600060405180830381600087803b15801561148d57600080fd5b505af11580156114a1573d6000803e3d6000fd5b50506001805550939695505050505050565b600080600260015414156114d95760405162461bcd60e51b815260040161022d90611f02565b6002600155603e546001600160a01b031633146115085760405162461bcd60e51b815260040161022d90611f39565b6000881161154e5760405162461bcd60e51b8152602060048201526013602482015272125394d551919250d251539517d05353d55395606a1b604482015260640161022d565b6115578461190e565b6001600160a01b0384166000908152603c602052604090206002810154891115611610576002810154815460009161158e91611eea565b9050808a11156115d75760405162461bcd60e51b8152602060048201526014602482015273494e53554646494349454e545f42414c414e434560601b604482015260640161022d565b6115e18a82611fe7565b825560028201546038548b916115f691611eea565b6116009190611fe7565b603855506000600282015561162a565b888160020160008282546116249190611fe7565b90915550505b603754604051632e1a7d4d60e01b8152600481018b90526001600160a01b0390911690632e1a7d4d90602401600060405180830381600087803b15801561167057600080fd5b505af1158015611684573d6000803e3d6000fd5b5050505085156116b2576034546116a5906001600160a01b0316858b611a33565b6000809250925050611768565b603554603654604051635d5155ef60e11b81526001600160a01b0392831660048201529082166024820152604481018b9052606481018a90526084810189905290851660a48201524260c482015273a5e0829caced8ffdd4de3c43696c57f7d7a678ff9063baa2abde9060e40160408051808303816000875af115801561173d573d6000803e3d6000fd5b505050506040513d601f19601f82011682018060405250810190611761919061228d565b9093509150505b600180559097909650945050505050565b6001600160a01b0381166000908152603c60209081526040808320815160a08101835281548152600182015493810193909352600281015491830191909152600381015463ffffffff908116606084018190526004909201546080840152603b541614156117eb576040015192915050565b60608082015163ffffffff166000908152603d602090815260408083208151948501825280548086526001820154938601939093526002015490840152608084015161183691611fe7565b83516118429190612246565b83602001516118519190611eea565b90506000670de0b6b3a764000083602001518361186e9190612246565b6118789190612076565b6040840151603b54919250600091670de0b6b3a76400009190603d9084906118a89060019063ffffffff16612051565b63ffffffff1663ffffffff168152602001908152602001600020600201546118d09190611fe7565b86516118dc9190612246565b6118e69190612076565b9050808286604001516118f99190611eea565b6119039190611eea565b979650505050505050565b6001600160a01b0381166000908152603c60205260409020603b54600382015463ffffffff9081169116141561197757600481015461194d9043611fe7565b81546119599190612246565b81600101600082825461196c9190611eea565b909155506119d39050565b61198082611779565b6002820155603b54603d906000906119a09060019063ffffffff16612051565b63ffffffff1681526020810191909152604001600020546119c19043611fe7565b81546119cd9190612246565b60018201555b603b5460038201805463ffffffff191663ffffffff9092169190911790554360048201819055603854603a549091611a0b9190611fe7565b611a159190612246565b60396000828254611a269190611eea565b909155505043603a555050565b604080516001600160a01b038416602482015260448082018490528251808303909101815260649091019091526020810180516001600160e01b031663a9059cbb60e01b179052610c1f908490611ab6565b600054610100900460ff16611aac5760405162461bcd60e51b815260040161022d906122b1565b611ab4611b88565b565b6000611b0b826040518060400160405280602081526020017f5361666545524332303a206c6f772d6c6576656c2063616c6c206661696c6564815250856001600160a01b0316611bb59092919063ffffffff16565b805190915015610c1f5780806020019051810190611b299190612034565b610c1f5760405162461bcd60e51b815260206004820152602a60248201527f5361666545524332303a204552433230206f7065726174696f6e20646964206e6044820152691bdd081cdd58d8d9595960b21b606482015260840161022d565b600054610100900460ff16611baf5760405162461bcd60e51b815260040161022d906122b1565b60018055565b6060611bc48484600085611bce565b90505b9392505050565b606082471015611c2f5760405162461bcd60e51b815260206004820152602660248201527f416464726573733a20696e73756666696369656e742062616c616e636520666f6044820152651c8818d85b1b60d21b606482015260840161022d565b6001600160a01b0385163b611c865760405162461bcd60e51b815260206004820152601d60248201527f416464726573733a2063616c6c20746f206e6f6e2d636f6e7472616374000000604482015260640161022d565b600080866001600160a01b03168587604051611ca2919061232c565b60006040518083038185875af1925050503d8060008114611cdf576040519150601f19603f3d011682016040523d82523d6000602084013e611ce4565b606091505b509150915061190382828660608315611cfe575081611bc7565b825115611d0e5782518084602001fd5b8160405162461bcd60e51b815260040161022d9190612348565b6001600160a01b0381168114611d3d57600080fd5b50565b600060208284031215611d5257600080fd5b8135611bc781611d28565b600080600080600080600060e0888a031215611d7857600080fd5b873596506020880135955060408801359450606088013593506080880135925060a0880135611da681611d28565b915060c0880135611db681611d28565b8091505092959891949750929550565b60008060408385031215611dd957600080fd5b8235611de481611d28565b91506020830135611df481611d28565b809150509250929050565b80604081018310156101ff57600080fd5b60008060608385031215611e2357600080fd5b823567ffffffffffffffff811115611e3a57600080fd5b611e4685828601611dff565b925050611e568460208501611dff565b90509250929050565b8015158114611d3d57600080fd5b60008060008060008060c08789031215611e8657600080fd5b8635955060208701359450604087013593506060870135611ea681611e5f565b92506080870135611eb681611d28565b915060a0870135611ec681611d28565b809150509295509295509295565b634e487b7160e01b600052601160045260246000fd5b60008219821115611efd57611efd611ed4565b500190565b6020808252601f908201527f5265656e7472616e637947756172643a207265656e7472616e742063616c6c00604082015260600190565b60208082526017908201527f43414c4c45525f4e4f545f41535345545f524f55544552000000000000000000604082015260600190565b6001600160a01b039889168152968816602088015260408701959095526060860193909352608085019190915260a084015290921660c082015260e08101919091526101000190565b600080600060608486031215611fce57600080fd5b8351925060208401519150604084015190509250925092565b600082821015611ff957611ff9611ed4565b500390565b60006020828403121561201057600080fd5b5051919050565b60006020828403121561202957600080fd5b8151611bc781611d28565b60006020828403121561204657600080fd5b8151611bc781611e5f565b600063ffffffff8381169083168181101561206e5761206e611ed4565b039392505050565b60008261209357634e487b7160e01b600052601260045260246000fd5b500490565b634e487b7160e01b600052603260045260246000fd5b6000808335601e198436030181126120c557600080fd5b83018035915067ffffffffffffffff8211156120e057600080fd5b6020019150600581901b36038213156120f857600080fd5b9250929050565b868152602080820187905260a0604083018190528201859052600090869060c08401835b8881101561215157833561213681611d28565b6001600160a01b031682529282019290820190600101612123565b506001600160a01b0396909616606085015250505060800152949350505050565b634e487b7160e01b600052604160045260246000fd5b6000602080838503121561219b57600080fd5b825167ffffffffffffffff808211156121b357600080fd5b818501915085601f8301126121c757600080fd5b8151818111156121d9576121d9612172565b8060051b604051601f19603f830116810181811085821117156121fe576121fe612172565b60405291825284820192508381018501918883111561221c57600080fd5b938501935b8285101561223a57845184529385019392850192612221565b98975050505050505050565b600081600019048311821515161561226057612260611ed4565b500290565b600063ffffffff80831681851680830382111561228457612284611ed4565b01949350505050565b600080604083850312156122a057600080fd5b505080516020909101519092909150565b6020808252602b908201527f496e697469616c697a61626c653a20636f6e7472616374206973206e6f74206960408201526a6e697469616c697a696e6760a81b606082015260800190565b60005b838110156123175781810151838201526020016122ff565b83811115612326576000848401525b50505050565b6000825161233e8184602087016122fc565b9190910192915050565b60208152600082518060208401526123678160408501602087016122fc565b601f01601f1916919091016040019291505056fea2646970667358221220274a6759630008ed8a245bcbe3efd78094849fd07cda59fa9bb743234562376b64736f6c634300080a0033",
  "immutableReferences": {},
  "source": "// SPDX-License-Identifier: MIT\r\npragma solidity 0.8.10;\r\n \r\nimport '../../interfaces/IUniswapV2Pair.sol';\r\nimport '../../interfaces/IUniswapV2Router.sol';\r\nimport '../../interfaces/IStakingRewards.sol';\r\nimport '@openzeppelin/contracts-upgradeable/security/ReentrancyGuardUpgradeable.sol';\r\nimport '@openzeppelin/contracts-upgradeable/token/ERC20/utils/SafeERC20Upgradeable.sol';\r\nimport '@openzeppelin/contracts-upgradeable/token/ERC20/IERC20Upgradeable.sol';\r\nimport '@openzeppelin/contracts-upgradeable/proxy/utils/Initializable.sol';\r\n\r\ncontract UnoFarmQuickswap is Initializable, ReentrancyGuardUpgradeable {\r\n    using SafeERC20Upgradeable for IERC20Upgradeable;\r\n    /**\r\n     * @dev DistributionInfo:\r\n     * {block} - Distribution block number.\r\n     * {rewardPerDepositAge} - Distribution reward divided by {totalDepositAge}. \r\n     * {cumulativeRewardAgePerDepositAge} - Sum of {rewardPerDepositAge}s multiplied by distribution interval.\r\n     */\r\n    struct DistributionInfo {\r\n        uint256 block;\r\n        uint256 rewardPerDepositAge;\r\n        uint256 cumulativeRewardAgePerDepositAge;\r\n    }\r\n    /**\r\n     * @dev UserInfo:\r\n     * {stake} - Amount of LP tokens deposited by the user.\r\n     * {depositAge} - User deposits multiplied by blocks the deposit has been in. \r\n     * {reward} - Amount of LP tokens entitled to the user.\r\n     * {lastDistribution} - Distribution ID before the last user deposit.\r\n     * {lastUpdate} - Deposit update block.\r\n     */\r\n    struct UserInfo {\r\n        uint256 stake;\r\n        uint256 depositAge;\r\n        uint256 reward;\r\n        uint32 lastDistribution;\r\n        uint256 lastUpdate;\r\n    }\r\n\r\n    /**\r\n     * @dev Tokens Used:\r\n     * {rewardToken} - Token generated by staking.\r\n     * {lpPair} - Token that the strategy maximizes. The same token that users deposit in the {lpStakingPool}.\r\n     * {tokenA, tokenB} - Tokens that the strategy maximizes.\r\n     */\r\n    address public rewardToken;\r\n    address public lpPair;\r\n    address public tokenA;\r\n    address public tokenB;\r\n\r\n    /**\r\n     * @dev Third Party Contracts:\r\n     * {quickswapRouter} - Contract that executes swaps.\r\n     * {lpStakingPool} - Contract that distibutes {rewardToken}.\r\n     */\r\n    IUniswapV2Router01 private constant quickswapRouter = IUniswapV2Router01(0xa5E0829CaCEd8fFDD4De3c43696c57F7D7A678ff); \r\n    IStakingRewards private lpStakingPool;\r\n\r\n    /**\r\n     * @dev Contract Variables:\r\n     * {totalDeposits} - Total deposits made by users.\r\n     * {totalDepositAge} - Deposits multiplied by blocks the deposit has been in. Flushed every reward distribution.\r\n     * {totalDepositLastUpdate} - Last {totalDepositAge} update block.\r\n\r\n     * {distributionID} - Current distribution ID.\r\n     * {userInfo} - Info on each user.\r\n     * {distributionInfo} - Info on each distribution.\r\n\r\n     * {fractionMultiplier} - Used to store decimal values.\r\n     */\r\n    uint256 private totalDeposits;\r\n    uint256 private totalDepositAge;\r\n    uint256 private totalDepositLastUpdate;\r\n\r\n    uint32 private distributionID;\r\n    mapping(address => UserInfo) private userInfo;\r\n    mapping(uint32 => DistributionInfo) private distributionInfo;\r\n\r\n    uint256 private constant fractionMultiplier = uint256(1 ether);\r\n\r\n    /**\r\n     * @dev Contract Variables:\r\n     * {assetRouter} - The contract from which calls to this farm are made.\r\n     */\r\n    address public assetRouter;\r\n    modifier onlyAssetRouter(){\r\n        require(msg.sender == assetRouter, 'CALLER_NOT_ASSET_ROUTER');\r\n        _;\r\n    }\r\n\r\n    // ============ Methods ============\r\n\r\n    function initialize(address _lpStakingPool, address _assetRouter) external initializer {\r\n        require (_lpStakingPool != address(0), 'BAD_LP_POOL');\r\n        require (_assetRouter != address(0), 'BAD_ASSET_ROUTER');\r\n\r\n        __ReentrancyGuard_init();\r\n        assetRouter = _assetRouter;\r\n\r\n        lpStakingPool = IStakingRewards(_lpStakingPool);\r\n        lpPair = address(lpStakingPool.stakingToken());\r\n\r\n        rewardToken = lpStakingPool.rewardsToken();\r\n\r\n        tokenA = IUniswapV2Pair(lpPair).token0();\r\n        tokenB = IUniswapV2Pair(lpPair).token1();\r\n\r\n        distributionInfo[0] = DistributionInfo({\r\n            block: block.number,\r\n            rewardPerDepositAge: 0,\r\n            cumulativeRewardAgePerDepositAge: 0\r\n        });\r\n        distributionID = 1;\r\n        totalDepositLastUpdate = block.number;\r\n\r\n        IERC20(lpPair).approve(_lpStakingPool, type(uint256).max);\r\n        IERC20(lpPair).approve(address(quickswapRouter), type(uint256).max);\r\n        IERC20(rewardToken).approve(address(quickswapRouter), type(uint256).max);\r\n        IERC20(tokenA).approve(address(quickswapRouter), type(uint256).max);\r\n        IERC20(tokenB).approve(address(quickswapRouter), type(uint256).max);\r\n    }\r\n\r\n    /**\r\n     * @dev Function that makes the deposits.\r\n     * Deposits provided tokens in the Liquidity Pool, then stakes generated LP tokens in the {lpStakingPool}.\r\n     */\r\n    function deposit(uint256 amountA, uint256 amountB, uint256 amountAMin, uint256 amountBMin, uint256 amountLP, address origin, address recipient) external nonReentrant onlyAssetRouter returns(uint256 sentA, uint256 sentB, uint256 liquidity){\r\n        uint256 addedLiquidity;\r\n        if(amountA > 0 && amountB > 0){\r\n            (sentA, sentB, addedLiquidity) = quickswapRouter.addLiquidity(tokenA, tokenB, amountA, amountB, amountAMin, amountBMin, address(this), block.timestamp);\r\n        }\r\n        liquidity = addedLiquidity + amountLP;\r\n        require(liquidity > 0, 'NO_LIQUIDITY_PROVIDED');\r\n\r\n        _updateDeposit(recipient);\r\n        userInfo[recipient].stake += liquidity;\r\n        totalDeposits += liquidity;\r\n            \r\n        lpStakingPool.stake(liquidity);\r\n        IERC20Upgradeable(tokenA).safeTransfer(origin, amountA - sentA);\r\n        IERC20Upgradeable(tokenB).safeTransfer(origin, amountB - sentB);\r\n    }\r\n\r\n    /**\r\n     * @dev Withdraws funds from {origin} and sends them to the {recipient}.\r\n     */\r\n    function withdraw(uint256 amount, uint256 amountAMin, uint256 amountBMin, bool withdrawLP, address origin, address recipient) external nonReentrant onlyAssetRouter returns(uint256 amountA, uint256 amountB){\r\n        require(amount > 0, 'INSUFFICIENT_AMOUNT');\r\n\r\n        _updateDeposit(origin);\r\n        UserInfo storage user = userInfo[origin];\r\n        // Subtract amount from user.reward first, then subtract remainder from user.stake.\r\n        if(amount > user.reward){\r\n            uint256 balance = user.stake + user.reward;\r\n            require(amount <= balance, 'INSUFFICIENT_BALANCE');\r\n            user.stake = balance - amount;\r\n            totalDeposits = totalDeposits + user.reward - amount;\r\n            user.reward = 0;\r\n        } else {\r\n            user.reward -= amount;\r\n        }\r\n\r\n        lpStakingPool.withdraw(amount);\r\n        if(withdrawLP){\r\n            IERC20Upgradeable(lpPair).safeTransfer(recipient, amount);\r\n            return (0, 0);\r\n        }\r\n        (amountA, amountB) = quickswapRouter.removeLiquidity(tokenA, tokenB, amount, amountAMin, amountBMin, recipient, block.timestamp);\r\n    }\r\n\r\n    /**\r\n     * @dev Core function of the strat, in charge of updating, collecting and re-investing rewards.\r\n     * 1. It claims rewards from the {lpStakingPool}.\r\n     * 2. It swaps {rewardToken} token for {tokenA} & {tokenB}.\r\n     * 3. It deposits new LP tokens back to the {lpStakingPool}.\r\n     */\r\n    function distribute(\r\n        address[][2] calldata swapRoutes,\r\n        uint256[2] calldata amountsOutMin\r\n    ) external onlyAssetRouter nonReentrant returns(uint256 reward){\r\n        require(totalDeposits > 0, 'NO_LIQUIDITY');\r\n        require(distributionInfo[distributionID - 1].block != block.number, 'CANT_CALL_ON_THE_SAME_BLOCK');\r\n\r\n        lpStakingPool.getReward();\r\n        uint256 rewardTokenHalf = IERC20(rewardToken).balanceOf(address(this)) / 2;\r\n\r\n        if (tokenA != rewardToken) {\r\n            require(swapRoutes[0][0] == rewardToken && swapRoutes[0][swapRoutes[0].length - 1] == tokenA, 'BAD_REWARD_TOKEN_A_ROUTE');\r\n            quickswapRouter.swapExactTokensForTokens(rewardTokenHalf, amountsOutMin[0], swapRoutes[0], address(this), block.timestamp);\r\n        }\r\n        if (tokenB != rewardToken) {\r\n            require(swapRoutes[1][0] == rewardToken && swapRoutes[1][swapRoutes[1].length - 1] == tokenB, 'BAD_REWARD_TOKEN_B_ROUTE');\r\n            quickswapRouter.swapExactTokensForTokens(rewardTokenHalf, amountsOutMin[1], swapRoutes[1], address(this), block.timestamp);\r\n        }\r\n\r\n        (,,reward) = quickswapRouter.addLiquidity(tokenA, tokenB, IERC20(tokenA).balanceOf(address(this)), IERC20(tokenB).balanceOf(address(this)), amountsOutMin[0], amountsOutMin[1], address(this), block.timestamp);\r\n\r\n        uint256 rewardPerDepositAge = reward * fractionMultiplier / (totalDepositAge + totalDeposits * (block.number - totalDepositLastUpdate));\r\n        uint256 cumulativeRewardAgePerDepositAge = distributionInfo[distributionID - 1].cumulativeRewardAgePerDepositAge + rewardPerDepositAge * (block.number - distributionInfo[distributionID - 1].block);\r\n\r\n        distributionInfo[distributionID] = DistributionInfo({\r\n            block: block.number,\r\n            rewardPerDepositAge: rewardPerDepositAge,\r\n            cumulativeRewardAgePerDepositAge: cumulativeRewardAgePerDepositAge\r\n        });\r\n\r\n        distributionID += 1;\r\n        totalDepositLastUpdate = block.number;\r\n        totalDepositAge = 0;\r\n\r\n        lpStakingPool.stake(reward);\r\n    }\r\n\r\n    /**\r\n     * @dev Returns total funds staked by the {_address}.\r\n     */\r\n    function userBalance(address _address) external view returns (uint256) {\r\n        return userInfo[_address].stake + userReward(_address);\r\n    }\r\n\r\n    /**\r\n     * @dev Returns total funds locked in the farm.\r\n     */\r\n    function getTotalDeposits() external view returns (uint256 _totalDeposits) {\r\n        if(totalDeposits > 0){\r\n            _totalDeposits = lpStakingPool.balanceOf(address(this));\r\n        }\r\n    }\r\n\r\n    function _updateDeposit(address _address) internal {\r\n        UserInfo storage user = userInfo[_address];\r\n        // Accumulate deposit age within the current distribution period.\r\n        if (user.lastDistribution == distributionID) {\r\n            // Add deposit age from previous deposit age update to now.\r\n            user.depositAge += user.stake * (block.number - user.lastUpdate);\r\n        } else {\r\n            // A reward has been distributed, update user.reward.\r\n            user.reward = userReward(_address);\r\n            // Count fresh deposit age from previous reward distribution to now.\r\n            user.depositAge = user.stake * (block.number - distributionInfo[distributionID - 1].block);\r\n        }\r\n\r\n        user.lastDistribution = distributionID;\r\n        user.lastUpdate = block.number;\r\n\r\n        // Same with total deposit age.\r\n        totalDepositAge += (block.number - totalDepositLastUpdate) * totalDeposits;\r\n        totalDepositLastUpdate = block.number;\r\n    }\r\n\r\n    function userReward(address _address) internal view returns (uint256) {\r\n        UserInfo memory user = userInfo[_address];\r\n        if (user.lastDistribution == distributionID) {\r\n            // Return user.reward if the distribution after the last user deposit did not happen yet.\r\n            return user.reward;\r\n        }\r\n        DistributionInfo memory lastUserDistributionInfo = distributionInfo[user.lastDistribution];\r\n        uint256 userDepositAge = user.depositAge + user.stake * (lastUserDistributionInfo.block - user.lastUpdate);\r\n        // Calculate reward between the last user deposit and the distribution after that.\r\n        uint256 rewardBeforeDistibution = userDepositAge * lastUserDistributionInfo.rewardPerDepositAge / fractionMultiplier;\r\n        // Calculate reward from the distributions that have happened after the last user deposit.\r\n        uint256 rewardAfterDistribution = user.stake * (distributionInfo[distributionID - 1].cumulativeRewardAgePerDepositAge - lastUserDistributionInfo.cumulativeRewardAgePerDepositAge) / fractionMultiplier;\r\n        return user.reward + rewardBeforeDistibution + rewardAfterDistribution;\r\n    }\r\n}\r\n",
  "sourcePath": "C:\\Users\\jugli\\Desktop\\uno\\uno-contracts-branch\\contracts\\apps\\quickswap\\UnoFarmQuickswap.sol",
  "compiler": {
    "name": "solc",
    "version": "0.8.10+commit.fc410830.Emscripten.clang"
  },
  "schemaVersion": "3.4.7",
  "updatedAt": "2022-08-24T13:40:16.877Z",
  "networkType": "ethereum",
  "devdoc": {
    "kind": "dev",
    "methods": {
      "deposit(uint256,uint256,uint256,uint256,uint256,address,address)": {
        "details": "Function that makes the deposits. Deposits provided tokens in the Liquidity Pool, then stakes generated LP tokens in the {lpStakingPool}."
      },
      "distribute(address[][2],uint256[2])": {
        "details": "Core function of the strat, in charge of updating, collecting and re-investing rewards. 1. It claims rewards from the {lpStakingPool}. 2. It swaps {rewardToken} token for {tokenA} & {tokenB}. 3. It deposits new LP tokens back to the {lpStakingPool}."
      },
      "getTotalDeposits()": {
        "details": "Returns total funds locked in the farm."
      },
      "userBalance(address)": {
        "details": "Returns total funds staked by the {_address}."
      },
      "withdraw(uint256,uint256,uint256,bool,address,address)": {
        "details": "Withdraws funds from {origin} and sends them to the {recipient}."
      }
    },
    "stateVariables": {
      "assetRouter": {
        "details": "Contract Variables: {assetRouter} - The contract from which calls to this farm are made."
      },
      "quickswapRouter": {
        "details": "Third Party Contracts: {quickswapRouter} - Contract that executes swaps. {lpStakingPool} - Contract that distibutes {rewardToken}."
      },
      "rewardToken": {
        "details": "Tokens Used: {rewardToken} - Token generated by staking. {lpPair} - Token that the strategy maximizes. The same token that users deposit in the {lpStakingPool}. {tokenA, tokenB} - Tokens that the strategy maximizes."
      },
      "totalDeposits": {
        "details": "Contract Variables: {totalDeposits} - Total deposits made by users. {totalDepositAge} - Deposits multiplied by blocks the deposit has been in. Flushed every reward distribution. {totalDepositLastUpdate} - Last {totalDepositAge} update block. {distributionID} - Current distribution ID. {userInfo} - Info on each user. {distributionInfo} - Info on each distribution. {fractionMultiplier} - Used to store decimal values."
      }
    },
    "version": 1
  },
  "userdoc": {
    "kind": "user",
    "methods": {},
    "version": 1
  }
}