{
  "contractName": "UnoFarmQuickswapDual",
  "abi": [
    {
      "inputs": [],
      "name": "CALLER_NOT_ASSET_ROUTER",
      "type": "error"
    },
    {
      "inputs": [],
      "name": "CALL_ON_THE_SAME_BLOCK",
      "type": "error"
    },
    {
      "inputs": [],
      "name": "INSUFFICIENT_AMOUNT",
      "type": "error"
    },
    {
      "inputs": [],
      "name": "INSUFFICIENT_BALANCE",
      "type": "error"
    },
    {
      "inputs": [],
      "name": "INVALID_ASSET_ROUTER",
      "type": "error"
    },
    {
      "inputs": [],
      "name": "INVALID_LP_POOL",
      "type": "error"
    },
    {
      "inputs": [
        {
          "internalType": "address",
          "name": "fromToken",
          "type": "address"
        },
        {
          "internalType": "address",
          "name": "toToken",
          "type": "address"
        }
      ],
      "name": "INVALID_ROUTE",
      "type": "error"
    },
    {
      "inputs": [],
      "name": "NO_LIQUIDITY",
      "type": "error"
    },
    {
      "inputs": [],
      "name": "NO_LIQUIDITY_PROVIDED",
      "type": "error"
    },
    {
      "anonymous": false,
      "inputs": [
        {
          "indexed": false,
          "internalType": "uint8",
          "name": "version",
          "type": "uint8"
        }
      ],
      "name": "Initialized",
      "type": "event"
    },
    {
      "inputs": [],
      "name": "assetRouter",
      "outputs": [
        {
          "internalType": "address",
          "name": "",
          "type": "address"
        }
      ],
      "stateMutability": "view",
      "type": "function"
    },
    {
      "inputs": [],
      "name": "lpPool",
      "outputs": [
        {
          "internalType": "address",
          "name": "",
          "type": "address"
        }
      ],
      "stateMutability": "view",
      "type": "function"
    },
    {
      "inputs": [],
      "name": "rewardTokenA",
      "outputs": [
        {
          "internalType": "address",
          "name": "",
          "type": "address"
        }
      ],
      "stateMutability": "view",
      "type": "function"
    },
    {
      "inputs": [],
      "name": "rewardTokenB",
      "outputs": [
        {
          "internalType": "address",
          "name": "",
          "type": "address"
        }
      ],
      "stateMutability": "view",
      "type": "function"
    },
    {
      "inputs": [],
      "name": "tokenA",
      "outputs": [
        {
          "internalType": "address",
          "name": "",
          "type": "address"
        }
      ],
      "stateMutability": "view",
      "type": "function"
    },
    {
      "inputs": [],
      "name": "tokenB",
      "outputs": [
        {
          "internalType": "address",
          "name": "",
          "type": "address"
        }
      ],
      "stateMutability": "view",
      "type": "function"
    },
    {
      "inputs": [
        {
          "internalType": "address",
          "name": "_lpStakingPool",
          "type": "address"
        },
        {
          "internalType": "address",
          "name": "_assetRouter",
          "type": "address"
        }
      ],
      "name": "initialize",
      "outputs": [],
      "stateMutability": "nonpayable",
      "type": "function"
    },
    {
      "inputs": [
        {
          "internalType": "uint256",
          "name": "amount",
          "type": "uint256"
        },
        {
          "internalType": "address",
          "name": "recipient",
          "type": "address"
        }
      ],
      "name": "deposit",
      "outputs": [],
      "stateMutability": "nonpayable",
      "type": "function"
    },
    {
      "inputs": [
        {
          "internalType": "uint256",
          "name": "amount",
          "type": "uint256"
        },
        {
          "internalType": "address",
          "name": "origin",
          "type": "address"
        },
        {
          "internalType": "address",
          "name": "recipient",
          "type": "address"
        }
      ],
      "name": "withdraw",
      "outputs": [],
      "stateMutability": "nonpayable",
      "type": "function"
    },
    {
      "inputs": [
        {
          "components": [
            {
              "internalType": "address[]",
              "name": "route",
              "type": "address[]"
            },
            {
              "internalType": "uint256",
              "name": "amountOutMin",
              "type": "uint256"
            }
          ],
          "internalType": "struct IUnoFarmQuickswapDual.SwapInfo[4]",
          "name": "swapInfos",
          "type": "tuple[4]"
        },
        {
          "components": [
            {
              "internalType": "address",
              "name": "feeTo",
              "type": "address"
            },
            {
              "internalType": "uint256",
              "name": "fee",
              "type": "uint256"
            }
          ],
          "internalType": "struct IUnoFarm.FeeInfo",
          "name": "feeInfo",
          "type": "tuple"
        }
      ],
      "name": "distribute",
      "outputs": [
        {
          "internalType": "uint256",
          "name": "reward",
          "type": "uint256"
        }
      ],
      "stateMutability": "nonpayable",
      "type": "function"
    },
    {
      "inputs": [
        {
          "internalType": "address",
          "name": "_address",
          "type": "address"
        }
      ],
      "name": "userBalance",
      "outputs": [
        {
          "internalType": "uint256",
          "name": "",
          "type": "uint256"
        }
      ],
      "stateMutability": "view",
      "type": "function"
    },
    {
      "inputs": [],
      "name": "getTotalDeposits",
      "outputs": [
        {
          "internalType": "uint256",
          "name": "_totalDeposits",
          "type": "uint256"
        }
      ],
      "stateMutability": "view",
      "type": "function"
    }
  ],
  "bytecode": "0x608060405234801561001057600080fd5b50612ada806100206000396000f3fe608060405234801561001057600080fd5b50600436106100d45760003560e01c80636a30683b11610081578063aa7b83e31161005b578063aa7b83e3146101a6578063b460af94146101b9578063bc0aac10146101cc57600080fd5b80636a30683b1461016d5780636b8ba92c146101805780636e553f651461019357600080fd5b80633737bcb4116100b25780633737bcb414610132578063485cc955146101455780635f64b55b1461015a57600080fd5b80630103c92b146100d95780630fc63d10146100ff578063168a48221461012a575b600080fd5b6100ec6100e7366004612575565b6101df565b6040519081526020015b60405180910390f35b603654610112906001600160a01b031681565b6040516001600160a01b0390911681526020016100f6565b6100ec610213565b603554610112906001600160a01b031681565b610158610153366004612592565b6102a9565b005b603754610112906001600160a01b031681565b6100ec61017b3660046125cb565b610cfc565b603354610112906001600160a01b031681565b6101586101a136600461262a565b611a59565b603454610112906001600160a01b031681565b6101586101c736600461264f565b611ba1565b603f54610112906001600160a01b031681565b60006101ea82611d75565b6001600160a01b0383166000908152603d602052604090205461020d91906126c0565b92915050565b603954600090156102a6576038546040517f70a082310000000000000000000000000000000000000000000000000000000081523060048201526001600160a01b03909116906370a0823190602401602060405180830381865afa15801561027f573d6000803e3d6000fd5b505050506040513d601f19601f820116820180604052508101906102a391906126d3565b90505b90565b600054610100900460ff16158080156102c95750600054600160ff909116105b806102e35750303b1580156102e3575060005460ff166001145b610374576040517f08c379a000000000000000000000000000000000000000000000000000000000815260206004820152602e60248201527f496e697469616c697a61626c653a20636f6e747261637420697320616c72656160448201527f647920696e697469616c697a656400000000000000000000000000000000000060648201526084015b60405180910390fd5b600080547fffffffffffffffffffffffffffffffffffffffffffffffffffffffffffffff0016600117905580156103d257600080547fffffffffffffffffffffffffffffffffffffffffffffffffffffffffffff00ff166101001790555b6001600160a01b038316610412576040517f5309c5cf00000000000000000000000000000000000000000000000000000000815260040160405180910390fd5b6001600160a01b038216610452576040517fc17c115000000000000000000000000000000000000000000000000000000000815260040160405180910390fd5b61045a611f0a565b603f80546001600160a01b038085167fffffffffffffffffffffffff000000000000000000000000000000000000000092831617909255603880549286169290911682179055604080517f72f702f300000000000000000000000000000000000000000000000000000000815290516372f702f3916004808201926020929091908290030181865afa1580156104f4573d6000803e3d6000fd5b505050506040513d601f19601f8201168201806040525081019061051891906126ec565b603580547fffffffffffffffffffffffff0000000000000000000000000000000000000000166001600160a01b03928316179055603854604080517f5fd1020c00000000000000000000000000000000000000000000000000000000815290519190921691635fd1020c9160048083019260209291908290030181865afa1580156105a7573d6000803e3d6000fd5b505050506040513d601f19601f820116820180604052508101906105cb91906126ec565b603380547fffffffffffffffffffffffff0000000000000000000000000000000000000000166001600160a01b03928316179055603854604080517f88c4c666000000000000000000000000000000000000000000000000000000008152905191909216916388c4c6669160048083019260209291908290030181865afa15801561065a573d6000803e3d6000fd5b505050506040513d601f19601f8201168201806040525081019061067e91906126ec565b603480547fffffffffffffffffffffffff0000000000000000000000000000000000000000166001600160a01b03928316179055603554604080517f0dfe168100000000000000000000000000000000000000000000000000000000815290519190921691630dfe16819160048083019260209291908290030181865afa15801561070d573d6000803e3d6000fd5b505050506040513d601f19601f8201168201806040525081019061073191906126ec565b603680547fffffffffffffffffffffffff0000000000000000000000000000000000000000166001600160a01b03928316179055603554604080517fd21220a70000000000000000000000000000000000000000000000000000000081529051919092169163d21220a79160048083019260209291908290030181865afa1580156107c0573d6000803e3d6000fd5b505050506040513d601f19601f820116820180604052508101906107e491906126ec565b603780547fffffffffffffffffffffffff0000000000000000000000000000000000000000166001600160a01b03928316179055604080516060810182524380825260006020808401828152848601838152928052603e90915292517f5f97c64b3c4bdfff50b5c8f505e633128432c6b07fc6c8abc77dce786c7317d45591517f5f97c64b3c4bdfff50b5c8f505e633128432c6b07fc6c8abc77dce786c7317d55590517f5f97c64b3c4bdfff50b5c8f505e633128432c6b07fc6c8abc77dce786c7317d655603c80547fffffffffffffffffffffffffffffffffffffffffffffffffffffffff00000000166001179055603b5560355490517f095ea7b30000000000000000000000000000000000000000000000000000000081528583166004820152600019602482015291169063095ea7b3906044016020604051808303816000875af115801561093b573d6000803e3d6000fd5b505050506040513d601f19601f8201168201806040525081019061095f9190612709565b506035546040517f095ea7b300000000000000000000000000000000000000000000000000000000815273a5e0829caced8ffdd4de3c43696c57f7d7a678ff600482015260001960248201526001600160a01b039091169063095ea7b3906044016020604051808303816000875af11580156109df573d6000803e3d6000fd5b505050506040513d601f19601f82011682018060405250810190610a039190612709565b506033546040517f095ea7b300000000000000000000000000000000000000000000000000000000815273a5e0829caced8ffdd4de3c43696c57f7d7a678ff600482015260001960248201526001600160a01b039091169063095ea7b3906044016020604051808303816000875af1158015610a83573d6000803e3d6000fd5b505050506040513d601f19601f82011682018060405250810190610aa79190612709565b506034546040517f095ea7b300000000000000000000000000000000000000000000000000000000815273a5e0829caced8ffdd4de3c43696c57f7d7a678ff600482015260001960248201526001600160a01b039091169063095ea7b3906044016020604051808303816000875af1158015610b27573d6000803e3d6000fd5b505050506040513d601f19601f82011682018060405250810190610b4b9190612709565b506036546040517f095ea7b300000000000000000000000000000000000000000000000000000000815273a5e0829caced8ffdd4de3c43696c57f7d7a678ff600482015260001960248201526001600160a01b039091169063095ea7b3906044016020604051808303816000875af1158015610bcb573d6000803e3d6000fd5b505050506040513d601f19601f82011682018060405250810190610bef9190612709565b506037546040517f095ea7b300000000000000000000000000000000000000000000000000000000815273a5e0829caced8ffdd4de3c43696c57f7d7a678ff600482015260001960248201526001600160a01b039091169063095ea7b3906044016020604051808303816000875af1158015610c6f573d6000803e3d6000fd5b505050506040513d601f19601f82011682018060405250810190610c939190612709565b508015610cf757600080547fffffffffffffffffffffffffffffffffffffffffffffffffffffffffffff00ff169055604051600181527f7f26b83ff96e1f2b6a682f133852f6798a09c465da95921460cefb38474024989060200160405180910390a15b505050565b603f546000906001600160a01b03163314610d43576040517ffa6f03ae00000000000000000000000000000000000000000000000000000000815260040160405180910390fd5b603954600003610d7f576040517ff58c8f9100000000000000000000000000000000000000000000000000000000815260040160405180910390fd5b603c5463ffffffff1643603e6000610d9860018561272b565b63ffffffff16815260208101919091526040016000205403610de6576040517ffa2a2d8700000000000000000000000000000000000000000000000000000000815260040160405180910390fd5b603860009054906101000a90046001600160a01b03166001600160a01b0316633d18b9126040518163ffffffff1660e01b8152600401600060405180830381600087803b158015610e3657600080fd5b505af1158015610e4a573d6000803e3d6000fd5b50506036546037546033546040517f70a082310000000000000000000000000000000000000000000000000000000081523060048201526001600160a01b039384169550918316935073a5e0829caced8ffdd4de3c43696c57f7d7a678ff92600092911690829082906370a0823190602401602060405180830381865afa158015610ed9573d6000803e3d6000fd5b505050506040513d601f19601f82011682018060405250810190610efd91906126d3565b9050610f0a82828b611fab565b610f14908261274f565b9050610f21600282612762565b6034546040517f70a08231000000000000000000000000000000000000000000000000000000008152306004820152919450600092506001600160a01b031690829082906370a0823190602401602060405180830381865afa158015610f8b573d6000803e3d6000fd5b505050506040513d601f19601f82011682018060405250810190610faf91906126d3565b9050610fbc82828d611fab565b610fc6908261274f565b9050610fd3600282612762565b925050831561131d57826001600160a01b0316876001600160a01b03161461117b573660006110028d806127cc565b61100c908061280a565b91509150846001600160a01b03168282600081811061102d5761102d61279d565b90506020020160208101906110429190612575565b6001600160a01b031614158061109a57506001600160a01b038916828261106a60018261274f565b8181106110795761107961279d565b905060200201602081019061108e9190612575565b6001600160a01b031614155b156110e4576040517fead9849a0000000000000000000000000000000000000000000000000000000081526001600160a01b0380871660048301528a16602482015260440161036b565b6001600160a01b0387166338ed1739878f600060200281019061110791906127cc565b60200135858530426040518763ffffffff1660e01b815260040161113096959493929190612879565b6000604051808303816000875af115801561114f573d6000803e3d6000fd5b505050506040513d6000823e601f3d908101601f19168201604052611177919081019061291b565b5050505b826001600160a01b0316866001600160a01b03161461131d573660006111a460208e018e6127cc565b6111ae908061280a565b91509150846001600160a01b0316828260008181106111cf576111cf61279d565b90506020020160208101906111e49190612575565b6001600160a01b031614158061123c57506001600160a01b038816828261120c60018261274f565b81811061121b5761121b61279d565b90506020020160208101906112309190612575565b6001600160a01b031614155b15611286576040517fead9849a0000000000000000000000000000000000000000000000000000000081526001600160a01b0380871660048301528916602482015260440161036b565b6001600160a01b0387166338ed1739878f60016020028101906112a991906127cc565b60200135858530426040518763ffffffff1660e01b81526004016112d296959493929190612879565b6000604051808303816000875af11580156112f1573d6000803e3d6000fd5b505050506040513d6000823e601f3d908101601f19168201604052611319919081019061291b565b5050505b811561166757806001600160a01b0316876001600160a01b0316146114c55736600061134c60408e018e6127cc565b611356908061280a565b91509150826001600160a01b0316828260008181106113775761137761279d565b905060200201602081019061138c9190612575565b6001600160a01b03161415806113e457506001600160a01b03891682826113b460018261274f565b8181106113c3576113c361279d565b90506020020160208101906113d89190612575565b6001600160a01b031614155b1561142e576040517fead9849a0000000000000000000000000000000000000000000000000000000081526001600160a01b0380851660048301528a16602482015260440161036b565b6001600160a01b0387166338ed1739858f600260200281019061145191906127cc565b60200135858530426040518763ffffffff1660e01b815260040161147a96959493929190612879565b6000604051808303816000875af1158015611499573d6000803e3d6000fd5b505050506040513d6000823e601f3d908101601f191682016040526114c1919081019061291b565b5050505b806001600160a01b0316866001600160a01b031614611667573660006114ee60608e018e6127cc565b6114f8908061280a565b91509150826001600160a01b0316828260008181106115195761151961279d565b905060200201602081019061152e9190612575565b6001600160a01b031614158061158657506001600160a01b038816828261155660018261274f565b8181106115655761156561279d565b905060200201602081019061157a9190612575565b6001600160a01b031614155b156115d0576040517fead9849a0000000000000000000000000000000000000000000000000000000081526001600160a01b0380851660048301528916602482015260440161036b565b6001600160a01b0387166338ed1739858f60036020028101906115f391906127cc565b60200135858530426040518763ffffffff1660e01b815260040161161c96959493929190612879565b6000604051808303816000875af115801561163b573d6000803e3d6000fd5b505050506040513d6000823e601f3d908101601f19168201604052611663919081019061291b565b5050505b50506040517f70a082310000000000000000000000000000000000000000000000000000000081523060048201526001600160a01b03808516935063e8e337009250869186918316906370a0823190602401602060405180830381865afa1580156116d6573d6000803e3d6000fd5b505050506040513d601f19601f820116820180604052508101906116fa91906126d3565b6040517f70a082310000000000000000000000000000000000000000000000000000000081523060048201526001600160a01b038816906370a0823190602401602060405180830381865afa158015611757573d6000803e3d6000fd5b505050506040513d601f19601f8201168201806040525081019061177b91906126d3565b61178860408e018e6127cc565b602001356117968e806127cc565b602001356117a491906126c0565b6117b160608f018f6127cc565b602001358e60016020028101906117c891906127cc565b602001356117d691906126c0565b6040517fffffffff0000000000000000000000000000000000000000000000000000000060e089901b1681526001600160a01b03968716600482015295909416602486015260448501929092526064840152608483015260a48201523060c48201524260e4820152610104016060604051808303816000875af1158015611861573d6000803e3d6000fd5b505050506040513d601f19601f8201168201806040525081019061188591906129d9565b603b549097506000925061189a91504361274f565b6039546118a79190612a07565b603a546118b491906126c0565b6118c6670de0b6b3a764000088612a07565b6118d09190612762565b90506000603e816118e260018961272b565b63ffffffff168152602081019190915260400160002054611903904361274f565b61190d9083612a07565b603e600061191c60018a61272b565b63ffffffff1663ffffffff1681526020019081526020016000206002015461194491906126c0565b60408051606081018252438152602080820186815282840185815263ffffffff8c166000908152603e9093529390912091518255516001808301919091559151600290910155909150611998908790612a1e565b603c80547fffffffffffffffffffffffffffffffffffffffffffffffffffffffff000000001663ffffffff9290921691909117905543603b556000603a556038546040517fa694fc3a000000000000000000000000000000000000000000000000000000008152600481018990526001600160a01b039091169063a694fc3a90602401600060405180830381600087803b158015611a3557600080fd5b505af1158015611a49573d6000803e3d6000fd5b5050505050505050505092915050565b603f546001600160a01b03163314611a9d576040517ffa6f03ae00000000000000000000000000000000000000000000000000000000815260040160405180910390fd5b81600003611ad7576040517f78e321a500000000000000000000000000000000000000000000000000000000815260040160405180910390fd5b611ae08161201a565b6001600160a01b0381166000908152603d602052604081208054849290611b089084906126c0565b925050819055508160396000828254611b2191906126c0565b90915550506038546040517fa694fc3a000000000000000000000000000000000000000000000000000000008152600481018490526001600160a01b039091169063a694fc3a90602401600060405180830381600087803b158015611b8557600080fd5b505af1158015611b99573d6000803e3d6000fd5b505050505050565b603f546001600160a01b03163314611be5576040517ffa6f03ae00000000000000000000000000000000000000000000000000000000815260040160405180910390fd5b82600003611c1f576040517f2cd294cf00000000000000000000000000000000000000000000000000000000815260040160405180910390fd5b611c288261201a565b6001600160a01b0382166000908152603d60205260409020600281015480851115611ccf578154600090611c5d9083906126c0565b905080861115611c99576040517f50b1f35600000000000000000000000000000000000000000000000000000000815260040160405180910390fd5b611ca3868261274f565b83556039548690611cb59084906126c0565b611cbf919061274f565b6039555060006002830155611cdf565b611cd9858261274f565b60028301555b6038546040517f2e1a7d4d000000000000000000000000000000000000000000000000000000008152600481018790526001600160a01b0390911690632e1a7d4d90602401600060405180830381600087803b158015611d3e57600080fd5b505af1158015611d52573d6000803e3d6000fd5b5050603554611d6e92506001600160a01b031690508487612159565b5050505050565b6001600160a01b0381166000908152603d60209081526040808320815160a08101835281548152600182015493810193909352600281015491830191909152600381015463ffffffff908116606084018190526004909201546080840152603c54169003611de7576040015192915050565b60608082015163ffffffff166000908152603e6020908152604080832081519485018252805480865260018201549386019390935260020154908401526080840151611e329161274f565b8351611e3e9190612a07565b8360200151611e4d91906126c0565b90506000670de0b6b3a7640000836020015183611e6a9190612a07565b611e749190612762565b6040840151603c54919250600091670de0b6b3a76400009190603e908490611ea49060019063ffffffff1661272b565b63ffffffff1663ffffffff16815260200190815260200160002060020154611ecc919061274f565b8651611ed89190612a07565b611ee29190612762565b905080828660400151611ef591906126c0565b611eff91906126c0565b979650505050505050565b600054610100900460ff16611fa1576040517f08c379a000000000000000000000000000000000000000000000000000000000815260206004820152602b60248201527f496e697469616c697a61626c653a20636f6e7472616374206973206e6f74206960448201527f6e697469616c697a696e67000000000000000000000000000000000000000000606482015260840161036b565b611fa96121d9565b565b600080611fbb6020840184612575565b6001600160a01b03161461201357670de0b6b3a7640000611fe0602084013585612a07565b611fea9190612762565b90508015612013576120136120026020840184612575565b6001600160a01b0386169083612159565b9392505050565b6001600160a01b0381166000908152603d60205260409020603c54600382015463ffffffff918216911603612082576004810154612058904361274f565b81546120649190612a07565b81600101600082825461207791906126c0565b909155506120de9050565b61208b82611d75565b6002820155603c54603e906000906120ab9060019063ffffffff1661272b565b63ffffffff1681526020810191909152604001600020546120cc904361274f565b81546120d89190612a07565b60018201555b603c546003820180547fffffffffffffffffffffffffffffffffffffffffffffffffffffffff000000001663ffffffff9092169190911790554360048201819055603954603b549091612131919061274f565b61213b9190612a07565b603a600082825461214c91906126c0565b909155505043603b555050565b604080516001600160a01b038416602482015260448082018490528251808303909101815260649091019091526020810180517bffffffffffffffffffffffffffffffffffffffffffffffffffffffff167fa9059cbb00000000000000000000000000000000000000000000000000000000179052610cf7908490612276565b600054610100900460ff16612270576040517f08c379a000000000000000000000000000000000000000000000000000000000815260206004820152602b60248201527f496e697469616c697a61626c653a20636f6e7472616374206973206e6f74206960448201527f6e697469616c697a696e67000000000000000000000000000000000000000000606482015260840161036b565b60018055565b60006122cb826040518060400160405280602081526020017f5361666545524332303a206c6f772d6c6576656c2063616c6c206661696c6564815250856001600160a01b03166123789092919063ffffffff16565b90508051600014806122ec5750808060200190518101906122ec9190612709565b610cf7576040517f08c379a000000000000000000000000000000000000000000000000000000000815260206004820152602a60248201527f5361666545524332303a204552433230206f7065726174696f6e20646964206e60448201527f6f74207375636365656400000000000000000000000000000000000000000000606482015260840161036b565b6060612387848460008561238f565b949350505050565b606082471015612421576040517f08c379a000000000000000000000000000000000000000000000000000000000815260206004820152602660248201527f416464726573733a20696e73756666696369656e742062616c616e636520666f60448201527f722063616c6c0000000000000000000000000000000000000000000000000000606482015260840161036b565b600080866001600160a01b0316858760405161243d9190612a5f565b60006040518083038185875af1925050503d806000811461247a576040519150601f19603f3d011682016040523d82523d6000602084013e61247f565b606091505b5091509150611eff878383876060831561251457825160000361250d576001600160a01b0385163b61250d576040517f08c379a000000000000000000000000000000000000000000000000000000000815260206004820152601d60248201527f416464726573733a2063616c6c20746f206e6f6e2d636f6e7472616374000000604482015260640161036b565b5081612387565b61238783838151156125295781518083602001fd5b806040517f08c379a000000000000000000000000000000000000000000000000000000000815260040161036b9190612a71565b6001600160a01b038116811461257257600080fd5b50565b60006020828403121561258757600080fd5b81356120138161255d565b600080604083850312156125a557600080fd5b82356125b08161255d565b915060208301356125c08161255d565b809150509250929050565b60008082840360608112156125df57600080fd5b833567ffffffffffffffff8111156125f657600080fd5b84016080810186101561260857600080fd5b92506040601f198201121561261c57600080fd5b506020830190509250929050565b6000806040838503121561263d57600080fd5b8235915060208301356125c08161255d565b60008060006060848603121561266457600080fd5b8335925060208401356126768161255d565b915060408401356126868161255d565b809150509250925092565b7f4e487b7100000000000000000000000000000000000000000000000000000000600052601160045260246000fd5b8082018082111561020d5761020d612691565b6000602082840312156126e557600080fd5b5051919050565b6000602082840312156126fe57600080fd5b81516120138161255d565b60006020828403121561271b57600080fd5b8151801515811461201357600080fd5b63ffffffff82811682821603908082111561274857612748612691565b5092915050565b8181038181111561020d5761020d612691565b600082612798577f4e487b7100000000000000000000000000000000000000000000000000000000600052601260045260246000fd5b500490565b7f4e487b7100000000000000000000000000000000000000000000000000000000600052603260045260246000fd5b600082357fffffffffffffffffffffffffffffffffffffffffffffffffffffffffffffffc183360301811261280057600080fd5b9190910192915050565b60008083357fffffffffffffffffffffffffffffffffffffffffffffffffffffffffffffffe184360301811261283f57600080fd5b83018035915067ffffffffffffffff82111561285a57600080fd5b6020019150600581901b360382131561287257600080fd5b9250929050565b868152602080820187905260a0604083018190528201859052600090869060c08401835b888110156128cb5783356128b08161255d565b6001600160a01b03168252928201929082019060010161289d565b506001600160a01b0396909616606085015250505060800152949350505050565b7f4e487b7100000000000000000000000000000000000000000000000000000000600052604160045260246000fd5b6000602080838503121561292e57600080fd5b825167ffffffffffffffff8082111561294657600080fd5b818501915085601f83011261295a57600080fd5b81518181111561296c5761296c6128ec565b8060051b604051601f19603f83011681018181108582111715612991576129916128ec565b6040529182528482019250838101850191888311156129af57600080fd5b938501935b828510156129cd578451845293850193928501926129b4565b98975050505050505050565b6000806000606084860312156129ee57600080fd5b8351925060208401519150604084015190509250925092565b808202811582820484141761020d5761020d612691565b63ffffffff81811683821601908082111561274857612748612691565b60005b83811015612a56578181015183820152602001612a3e565b50506000910152565b60008251612800818460208701612a3b565b6020815260008251806020840152612a90816040850160208701612a3b565b601f01601f1916919091016040019291505056fea264697066735822122037280a58bef4dff24fc710b677bf17bbf68162a7b74f5bfbc32e4ccedc307ca264736f6c63430008130033",
  "immutableReferences": {},
  "source": "// SPDX-License-Identifier: MIT\r\npragma solidity 0.8.19;\r\n \r\nimport './interfaces/IUnoFarmQuickswapDual.sol';\r\nimport '../../interfaces/IUniswapV2Pair.sol';\r\nimport '../../interfaces/IUniswapV2Router.sol';\r\nimport '../../interfaces/IStakingDualRewards.sol';\r\nimport '@openzeppelin/contracts-upgradeable/security/ReentrancyGuardUpgradeable.sol';\r\nimport '@openzeppelin/contracts/token/ERC20/utils/SafeERC20.sol';\r\nimport '@openzeppelin/contracts-upgradeable/proxy/utils/Initializable.sol';\r\n\r\ncontract UnoFarmQuickswapDual is Initializable, ReentrancyGuardUpgradeable, IUnoFarmQuickswapDual {\r\n    using SafeERC20 for IERC20;\r\n\r\n    /**\r\n     * @dev Tokens Used:\r\n     * {rewardTokenA, rewardTokenB} - Tokens generated by staking.\r\n     * {lpPool} - Token that the strategy maximizes. The same token that users deposit in the {lpStakingPool}.\r\n     * {tokenA, tokenB} - Tokens that the strategy maximizes.\r\n     */\r\n    address public rewardTokenA;\r\n    address public rewardTokenB;\r\n    address public lpPool;\r\n    address public tokenA;\r\n    address public tokenB;\r\n\r\n    /**\r\n     * @dev Third Party Contracts:\r\n     * {quickswapRouter} - Contract that executes swaps.\r\n     * {lpStakingPool} - Contract that distibutes {rewardTokenA, rewardTokenB}.\r\n     */\r\n    IUniswapV2Router01 private constant quickswapRouter = IUniswapV2Router01(0xa5E0829CaCEd8fFDD4De3c43696c57F7D7A678ff); \r\n    IStakingDualRewards private lpStakingPool;\r\n\r\n    /**\r\n     * @dev Contract Variables:\r\n     * {totalDeposits} - Total deposits made by users.\r\n     * {totalDepositAge} - Deposits multiplied by blocks the deposit has been in. Flushed every reward distribution.\r\n     * {totalDepositLastUpdate} - Last {totalDepositAge} update block.\r\n\r\n     * {distributionID} - Current distribution ID.\r\n     * {userInfo} - Info on each user.\r\n     * {distributionInfo} - Info on each distribution.\r\n\r\n     * {fractionMultiplier} - Used to store decimal values.\r\n     */\r\n    uint256 private totalDeposits;\r\n    uint256 private totalDepositAge;\r\n    uint256 private totalDepositLastUpdate;\r\n\r\n    uint32 private distributionID;\r\n    mapping(address => UserInfo) private userInfo;\r\n    mapping(uint32 => DistributionInfo) private distributionInfo;\r\n\r\n    uint256 private constant fractionMultiplier = uint256(1 ether);\r\n\r\n    /**\r\n     * @dev Contract Variables:\r\n     * {assetRouter} - The contract from which calls to this farm are made.\r\n     */\r\n    address public assetRouter;\r\n    modifier onlyAssetRouter(){\r\n        if(msg.sender != assetRouter) revert CALLER_NOT_ASSET_ROUTER();\r\n        _;\r\n    }\r\n\r\n    // ============ Methods ============\r\n\r\n    function initialize(address _lpStakingPool, address _assetRouter) external initializer {\r\n        if(_lpStakingPool == address(0)) revert INVALID_LP_POOL();\r\n        if(_assetRouter == address(0)) revert INVALID_ASSET_ROUTER();\r\n\r\n        __ReentrancyGuard_init();\r\n        assetRouter = _assetRouter;\r\n\r\n        lpStakingPool = IStakingDualRewards(_lpStakingPool);\r\n        lpPool = address(lpStakingPool.stakingToken());\r\n\r\n        rewardTokenA = lpStakingPool.rewardsTokenA();\r\n        rewardTokenB = lpStakingPool.rewardsTokenB();\r\n\r\n        tokenA = IUniswapV2Pair(lpPool).token0();\r\n        tokenB = IUniswapV2Pair(lpPool).token1();\r\n\r\n        distributionInfo[0] = DistributionInfo({\r\n            block: block.number,\r\n            rewardPerDepositAge: 0,\r\n            cumulativeRewardAgePerDepositAge: 0\r\n        });\r\n        distributionID = 1;\r\n        totalDepositLastUpdate = block.number;\r\n\r\n        IERC20(lpPool).approve(_lpStakingPool, type(uint256).max);\r\n        IERC20(lpPool).approve(address(quickswapRouter), type(uint256).max);\r\n        IERC20(rewardTokenA).approve(address(quickswapRouter), type(uint256).max);\r\n        IERC20(rewardTokenB).approve(address(quickswapRouter), type(uint256).max);\r\n        IERC20(tokenA).approve(address(quickswapRouter), type(uint256).max);\r\n        IERC20(tokenB).approve(address(quickswapRouter), type(uint256).max);\r\n    }\r\n\r\n    /**\r\n     * @dev Function that makes the deposits.\r\n     * Stakes {amount} of LP tokens from this contract's balance in the {lpStakingPool}.\r\n     */\r\n    function deposit(uint256 amount, address recipient) external onlyAssetRouter{\r\n        if(amount == 0) revert NO_LIQUIDITY_PROVIDED();\r\n\r\n        _updateDeposit(recipient);\r\n        userInfo[recipient].stake += amount;\r\n        totalDeposits += amount;\r\n            \r\n        lpStakingPool.stake(amount);\r\n    }\r\n\r\n    /**\r\n     * @dev Withdraws funds from {origin} and sends them to the {recipient}.\r\n     */\r\n    function withdraw(uint256 amount, address origin, address recipient) external onlyAssetRouter{\r\n        if(amount == 0) revert INSUFFICIENT_AMOUNT();\r\n\r\n        _updateDeposit(origin);\r\n\t\tUserInfo storage user = userInfo[origin];\r\n\t\t// Subtract amount from user.reward first, then subtract remainder from user.stake.\r\n\t\tuint256 reward = user.reward;\r\n\t\tif (amount > reward) {\r\n\t\t\tuint256 balance = user.stake + reward;\r\n            if(amount > balance) revert INSUFFICIENT_BALANCE();\r\n\r\n\t\t\tuser.stake = balance - amount;\r\n\t\t\ttotalDeposits = totalDeposits + reward - amount;\r\n\t\t\tuser.reward = 0;\r\n\t\t} else {\r\n\t\t\tuser.reward = reward - amount;\r\n\t\t}\r\n\r\n        lpStakingPool.withdraw(amount);\r\n        IERC20(lpPool).safeTransfer(recipient, amount);\r\n    }\r\n\r\n    /**\r\n     * @dev Core function of the strat, in charge of updating, collecting and re-investing rewards.\r\n     * 1. It claims rewards from the {lpStakingPool}.\r\n     * 2. It swaps {rewardToken} token for {tokenA} & {tokenB}.\r\n     * 3. It deposits new LP tokens back to the {lpStakingPool}.\r\n     */\r\n    function distribute(\r\n        SwapInfo[4] calldata swapInfos,\r\n        FeeInfo calldata feeInfo\r\n    ) external onlyAssetRouter returns(uint256 reward){\r\n        if(totalDeposits == 0) revert NO_LIQUIDITY();\r\n        uint32 _distributionID = distributionID;\r\n        if(distributionInfo[_distributionID - 1].block == block.number) revert CALL_ON_THE_SAME_BLOCK();\r\n\r\n        lpStakingPool.getReward();\r\n\r\n        address _tokenA = tokenA;\r\n        address _tokenB = tokenB;\r\n        IUniswapV2Router01 _quickswapRouter = quickswapRouter;\r\n        { // scope to avoid stack too deep errors\r\n        uint256 rewardTokenAHalf;\r\n        address _rewardTokenA = rewardTokenA;\r\n        {\r\n            uint256 balance = IERC20(_rewardTokenA).balanceOf(address(this));\r\n            balance -= _collectFees(IERC20(_rewardTokenA), balance, feeInfo);\r\n            rewardTokenAHalf = balance / 2;\r\n        }\r\n        uint256 rewardTokenBHalf;\r\n        address _rewardTokenB = rewardTokenB;\r\n        {\r\n            uint256 balance = IERC20(_rewardTokenB).balanceOf(address(this));\r\n            balance -= _collectFees(IERC20(_rewardTokenB), balance, feeInfo);\r\n            rewardTokenBHalf = balance / 2;\r\n        }\r\n\r\n        if (rewardTokenAHalf > 0) {\r\n            if (_tokenA != _rewardTokenA) {\r\n                address[] calldata route = swapInfos[0].route;\r\n                if(route[0] != _rewardTokenA || route[route.length - 1] != _tokenA) revert INVALID_ROUTE(_rewardTokenA, _tokenA);\r\n                _quickswapRouter.swapExactTokensForTokens(rewardTokenAHalf, swapInfos[0].amountOutMin, route, address(this), block.timestamp);\r\n            }\r\n\r\n            if (_tokenB != _rewardTokenA) {\r\n                address[] calldata route = swapInfos[1].route;\r\n                if(route[0] != _rewardTokenA || route[route.length - 1] != _tokenB) revert INVALID_ROUTE(_rewardTokenA, _tokenB);\r\n                _quickswapRouter.swapExactTokensForTokens(rewardTokenAHalf, swapInfos[1].amountOutMin, route, address(this), block.timestamp);\r\n            }\r\n        }\r\n        if (rewardTokenBHalf > 0) {\r\n            if (_tokenA != _rewardTokenB) {\r\n                address[] calldata route = swapInfos[2].route;\r\n                if (route[0] != _rewardTokenB || route[route.length - 1] != _tokenA) revert INVALID_ROUTE(_rewardTokenB, _tokenA);\r\n                _quickswapRouter.swapExactTokensForTokens(rewardTokenBHalf, swapInfos[2].amountOutMin, route, address(this), block.timestamp);\r\n            }\r\n    \r\n            if (_tokenB != _rewardTokenB) {\r\n                address[] calldata route = swapInfos[3].route;\r\n                if (route[0] != _rewardTokenB || route[route.length - 1] != _tokenB) revert INVALID_ROUTE(_rewardTokenB, _tokenB);\r\n                _quickswapRouter.swapExactTokensForTokens(rewardTokenBHalf, swapInfos[3].amountOutMin, route, address(this), block.timestamp);\r\n            }\r\n        }\r\n        }\r\n        \r\n        (,,reward) = _quickswapRouter.addLiquidity(_tokenA, _tokenB, IERC20(_tokenA).balanceOf(address(this)), IERC20(_tokenB).balanceOf(address(this)), swapInfos[0].amountOutMin + swapInfos[2].amountOutMin, swapInfos[1].amountOutMin + swapInfos[3].amountOutMin, address(this), block.timestamp);\r\n\r\n        uint256 rewardPerDepositAge = reward * fractionMultiplier / (totalDepositAge + totalDeposits * (block.number - totalDepositLastUpdate));\r\n        uint256 cumulativeRewardAgePerDepositAge = distributionInfo[_distributionID - 1].cumulativeRewardAgePerDepositAge + rewardPerDepositAge * (block.number - distributionInfo[_distributionID - 1].block);\r\n\r\n        distributionInfo[_distributionID] = DistributionInfo({\r\n            block: block.number,\r\n            rewardPerDepositAge: rewardPerDepositAge,\r\n            cumulativeRewardAgePerDepositAge: cumulativeRewardAgePerDepositAge\r\n        });\r\n\r\n        distributionID = _distributionID + 1;\r\n        totalDepositLastUpdate = block.number;\r\n        totalDepositAge = 0;\r\n\r\n        lpStakingPool.stake(reward);\r\n    }\r\n\r\n    /**\r\n\t * @dev Sends fees to feeTo.\r\n\t */\r\n\tfunction _collectFees(IERC20 token, uint256 balance, FeeInfo calldata feeInfo) internal returns(uint256 feeAmount) {\r\n\t\tif (feeInfo.feeTo != address(0)) {\r\n\t\t\tfeeAmount = balance * feeInfo.fee / fractionMultiplier;\r\n\t\t\tif (feeAmount > 0) {\r\n\t\t\t\ttoken.safeTransfer(feeInfo.feeTo, feeAmount);\r\n\t\t\t}\r\n\t\t}\r\n\t}\r\n\r\n    /**\r\n     * @dev Returns total funds staked by the {_address}.\r\n     */\r\n    function userBalance(address _address) external view returns (uint256) {\r\n        return userInfo[_address].stake + _userReward(_address);\r\n    }\r\n\r\n    /**\r\n     * @dev Returns total funds locked in the farm.\r\n     */\r\n    function getTotalDeposits() external view returns (uint256 _totalDeposits) {\r\n        if(totalDeposits > 0){\r\n            _totalDeposits = lpStakingPool.balanceOf(address(this));\r\n        }\r\n    }\r\n\r\n    function _updateDeposit(address _address) internal {\r\n        UserInfo storage user = userInfo[_address];\r\n        // Accumulate deposit age within the current distribution period.\r\n        if (user.lastDistribution == distributionID) {\r\n            // Add deposit age from previous deposit age update to now.\r\n            user.depositAge += user.stake * (block.number - user.lastUpdate);\r\n        } else {\r\n            // A reward has been distributed, update user.reward.\r\n            user.reward = _userReward(_address);\r\n            // Count fresh deposit age from previous reward distribution to now.\r\n            user.depositAge = user.stake * (block.number - distributionInfo[distributionID - 1].block);\r\n        }\r\n\r\n        user.lastDistribution = distributionID;\r\n        user.lastUpdate = block.number;\r\n\r\n        // Same with total deposit age.\r\n        totalDepositAge += (block.number - totalDepositLastUpdate) * totalDeposits;\r\n        totalDepositLastUpdate = block.number;\r\n    }\r\n\r\n    function _userReward(address _address) internal view returns (uint256) {\r\n        UserInfo memory user = userInfo[_address];\r\n        if (user.lastDistribution == distributionID) {\r\n            // Return user.reward if the distribution after the last user deposit did not happen yet.\r\n            return user.reward;\r\n        }\r\n        DistributionInfo memory lastUserDistributionInfo = distributionInfo[user.lastDistribution];\r\n        uint256 userDepositAge = user.depositAge + user.stake * (lastUserDistributionInfo.block - user.lastUpdate);\r\n        // Calculate reward between the last user deposit and the distribution after that.\r\n        uint256 rewardBeforeDistibution = userDepositAge * lastUserDistributionInfo.rewardPerDepositAge / fractionMultiplier;\r\n        // Calculate reward from the distributions that have happened after the last user deposit.\r\n        uint256 rewardAfterDistribution = user.stake * (distributionInfo[distributionID - 1].cumulativeRewardAgePerDepositAge - lastUserDistributionInfo.cumulativeRewardAgePerDepositAge) / fractionMultiplier;\r\n        return user.reward + rewardBeforeDistibution + rewardAfterDistribution;\r\n    }\r\n}\r\n",
  "sourcePath": "C:\\Users\\jugli\\Desktop\\uno\\uno-contracts\\contracts\\apps\\quickswapDual\\UnoFarmQuickswapDual.sol",
  "compiler": {
    "name": "solc",
    "version": "0.8.19+commit.7dd6d404.Emscripten.clang"
  },
  "schemaVersion": "3.4.16",
  "updatedAt": "2023-09-27T13:55:33.063Z",
  "devdoc": {
    "events": {
      "Initialized(uint8)": {
        "details": "Triggered when the contract has been initialized or reinitialized."
      }
    },
    "kind": "dev",
    "methods": {
      "deposit(uint256,address)": {
        "details": "Function that makes the deposits. Stakes {amount} of LP tokens from this contract's balance in the {lpStakingPool}."
      },
      "distribute((address[],uint256)[4],(address,uint256))": {
        "details": "Core function of the strat, in charge of updating, collecting and re-investing rewards. 1. It claims rewards from the {lpStakingPool}. 2. It swaps {rewardToken} token for {tokenA} & {tokenB}. 3. It deposits new LP tokens back to the {lpStakingPool}."
      },
      "getTotalDeposits()": {
        "details": "Returns total funds locked in the farm."
      },
      "userBalance(address)": {
        "details": "Returns total funds staked by the {_address}."
      },
      "withdraw(uint256,address,address)": {
        "details": "Withdraws funds from {origin} and sends them to the {recipient}."
      }
    },
    "stateVariables": {
      "assetRouter": {
        "details": "Contract Variables: {assetRouter} - The contract from which calls to this farm are made."
      },
      "quickswapRouter": {
        "details": "Third Party Contracts: {quickswapRouter} - Contract that executes swaps. {lpStakingPool} - Contract that distibutes {rewardTokenA, rewardTokenB}."
      },
      "rewardTokenA": {
        "details": "Tokens Used: {rewardTokenA, rewardTokenB} - Tokens generated by staking. {lpPool} - Token that the strategy maximizes. The same token that users deposit in the {lpStakingPool}. {tokenA, tokenB} - Tokens that the strategy maximizes."
      },
      "totalDeposits": {
        "details": "Contract Variables: {totalDeposits} - Total deposits made by users. {totalDepositAge} - Deposits multiplied by blocks the deposit has been in. Flushed every reward distribution. {totalDepositLastUpdate} - Last {totalDepositAge} update block. {distributionID} - Current distribution ID. {userInfo} - Info on each user. {distributionInfo} - Info on each distribution. {fractionMultiplier} - Used to store decimal values."
      }
    },
    "version": 1
  },
  "userdoc": {
    "kind": "user",
    "methods": {},
    "version": 1
  }
}