{
  "contractName": "UnoFarmBalancer",
  "abi": [
    {
      "anonymous": false,
      "inputs": [
        {
          "indexed": false,
          "internalType": "uint8",
          "name": "version",
          "type": "uint8"
        }
      ],
      "name": "Initialized",
      "type": "event"
    },
    {
      "inputs": [],
      "name": "assetRouter",
      "outputs": [
        {
          "internalType": "address",
          "name": "",
          "type": "address"
        }
      ],
      "stateMutability": "view",
      "type": "function"
    },
    {
      "inputs": [],
      "name": "gauge",
      "outputs": [
        {
          "internalType": "contract IRewardsOnlyGauge",
          "name": "",
          "type": "address"
        }
      ],
      "stateMutability": "view",
      "type": "function"
    },
    {
      "inputs": [],
      "name": "isComposable",
      "outputs": [
        {
          "internalType": "bool",
          "name": "",
          "type": "bool"
        }
      ],
      "stateMutability": "view",
      "type": "function"
    },
    {
      "inputs": [],
      "name": "lpPool",
      "outputs": [
        {
          "internalType": "address",
          "name": "",
          "type": "address"
        }
      ],
      "stateMutability": "view",
      "type": "function"
    },
    {
      "inputs": [],
      "name": "poolId",
      "outputs": [
        {
          "internalType": "bytes32",
          "name": "",
          "type": "bytes32"
        }
      ],
      "stateMutability": "view",
      "type": "function"
    },
    {
      "inputs": [
        {
          "internalType": "address",
          "name": "_lpPool",
          "type": "address"
        },
        {
          "internalType": "address",
          "name": "_assetRouter",
          "type": "address"
        }
      ],
      "name": "initialize",
      "outputs": [],
      "stateMutability": "nonpayable",
      "type": "function"
    },
    {
      "inputs": [
        {
          "internalType": "uint256[]",
          "name": "amounts",
          "type": "uint256[]"
        },
        {
          "internalType": "address[]",
          "name": "tokens",
          "type": "address[]"
        },
        {
          "internalType": "uint256",
          "name": "minAmountLP",
          "type": "uint256"
        },
        {
          "internalType": "uint256",
          "name": "amountLP",
          "type": "uint256"
        },
        {
          "internalType": "address",
          "name": "recipient",
          "type": "address"
        }
      ],
      "name": "deposit",
      "outputs": [
        {
          "internalType": "uint256",
          "name": "liquidity",
          "type": "uint256"
        }
      ],
      "stateMutability": "nonpayable",
      "type": "function"
    },
    {
      "inputs": [
        {
          "internalType": "bytes",
          "name": "userData",
          "type": "bytes"
        },
        {
          "internalType": "uint256[]",
          "name": "minAmountsOut",
          "type": "uint256[]"
        },
        {
          "internalType": "bool",
          "name": "withdrawLP",
          "type": "bool"
        },
        {
          "internalType": "address",
          "name": "origin",
          "type": "address"
        },
        {
          "internalType": "address",
          "name": "recipient",
          "type": "address"
        }
      ],
      "name": "withdraw",
      "outputs": [
        {
          "internalType": "uint256[]",
          "name": "amounts",
          "type": "uint256[]"
        },
        {
          "internalType": "uint256",
          "name": "liquidity",
          "type": "uint256"
        }
      ],
      "stateMutability": "nonpayable",
      "type": "function"
    },
    {
      "inputs": [
        {
          "components": [
            {
              "components": [
                {
                  "internalType": "bytes32",
                  "name": "poolId",
                  "type": "bytes32"
                },
                {
                  "internalType": "uint256",
                  "name": "assetInIndex",
                  "type": "uint256"
                },
                {
                  "internalType": "uint256",
                  "name": "assetOutIndex",
                  "type": "uint256"
                },
                {
                  "internalType": "uint256",
                  "name": "amount",
                  "type": "uint256"
                },
                {
                  "internalType": "bytes",
                  "name": "userData",
                  "type": "bytes"
                }
              ],
              "internalType": "struct IVault.BatchSwapStep[]",
              "name": "swaps",
              "type": "tuple[]"
            },
            {
              "internalType": "contract IERC20[]",
              "name": "assets",
              "type": "address[]"
            },
            {
              "internalType": "int256[]",
              "name": "limits",
              "type": "int256[]"
            }
          ],
          "internalType": "struct UnoFarmBalancer.SwapInfo[]",
          "name": "swapInfos",
          "type": "tuple[]"
        },
        {
          "components": [
            {
              "components": [
                {
                  "internalType": "bytes32",
                  "name": "poolId",
                  "type": "bytes32"
                },
                {
                  "internalType": "uint256",
                  "name": "assetInIndex",
                  "type": "uint256"
                },
                {
                  "internalType": "uint256",
                  "name": "assetOutIndex",
                  "type": "uint256"
                },
                {
                  "internalType": "uint256",
                  "name": "amount",
                  "type": "uint256"
                },
                {
                  "internalType": "bytes",
                  "name": "userData",
                  "type": "bytes"
                }
              ],
              "internalType": "struct IVault.BatchSwapStep[]",
              "name": "swaps",
              "type": "tuple[]"
            },
            {
              "internalType": "contract IERC20[]",
              "name": "assets",
              "type": "address[]"
            },
            {
              "internalType": "int256[]",
              "name": "limits",
              "type": "int256[]"
            }
          ],
          "internalType": "struct UnoFarmBalancer.SwapInfo[]",
          "name": "feeSwapInfos",
          "type": "tuple[]"
        },
        {
          "components": [
            {
              "internalType": "address",
              "name": "feeTo",
              "type": "address"
            },
            {
              "internalType": "uint256",
              "name": "fee",
              "type": "uint256"
            }
          ],
          "internalType": "struct UnoFarmBalancer.FeeInfo",
          "name": "feeInfo",
          "type": "tuple"
        }
      ],
      "name": "distribute",
      "outputs": [
        {
          "internalType": "uint256",
          "name": "reward",
          "type": "uint256"
        }
      ],
      "stateMutability": "nonpayable",
      "type": "function"
    },
    {
      "inputs": [
        {
          "internalType": "address",
          "name": "_address",
          "type": "address"
        }
      ],
      "name": "userBalance",
      "outputs": [
        {
          "internalType": "uint256",
          "name": "",
          "type": "uint256"
        }
      ],
      "stateMutability": "view",
      "type": "function"
    },
    {
      "inputs": [],
      "name": "getTotalDeposits",
      "outputs": [
        {
          "internalType": "uint256",
          "name": "_totalDeposits",
          "type": "uint256"
        }
      ],
      "stateMutability": "view",
      "type": "function"
    }
  ],
  "bytecode": "0x608060405234801561001057600080fd5b506138f0806100206000396000f3fe608060405234801561001057600080fd5b50600436106100a95760003560e01c80633e0dc34e116100715780633e0dc34e1461013b57806344e4cb0a14610144578063485cc955146101575780636f0f68f21461016c578063a6f19c8414610190578063bc0aac10146101a357600080fd5b80630103c92b146100ae5780630faa5a1f146100d4578063168a4822146100e75780632e9f0652146100ef5780633737bcb414610110575b600080fd5b6100c16100bc366004612caa565b6101b6565b6040519081526020015b60405180910390f35b6100c16100e2366004612d12565b6101ea565b6100c1610d47565b6101026100fd366004612db6565b610dc4565b6040516100cb929190612ebd565b603554610123906001600160a01b031681565b6040516001600160a01b0390911681526020016100cb565b6100c160365481565b6100c1610152366004612f48565b611089565b61016a61016536600461302d565b611831565b005b603d5461018090600160a01b900460ff1681565b60405190151581526020016100cb565b603354610123906001600160a01b031681565b603d54610123906001600160a01b031681565b60006101c182611de0565b6001600160a01b0383166000908152603b60205260409020546101e4919061307c565b92915050565b603d546000906001600160a01b031633146102205760405162461bcd60e51b815260040161021790613094565b60405180910390fd5b600260015414156102435760405162461bcd60e51b8152600401610217906130cb565b60026001556037546102865760405162461bcd60e51b815260206004820152600c60248201526b4e4f5f4c495155494449545960a01b6044820152606401610217565b603a544390603c906000906102a39060019063ffffffff16613102565b63ffffffff16815260208101919091526040016000205414156103085760405162461bcd60e51b815260206004820152601b60248201527f43414e545f43414c4c5f4f4e5f5448455f53414d455f424c4f434b00000000006044820152606401610217565b6034546040805163963c94b960e01b815290516000926001600160a01b03169163963c94b99160048083019260209291908290030181865afa158015610352573d6000803e3d6000fd5b505050506040513d601f19601f820116820180604052508101906103769190613127565b9050858114801561038657508381145b6103e05760405162461bcd60e51b815260206004820152602560248201527f504152414d535f4c454e475448535f4e4f545f4d415443485f5245574152445f60448201526410d3d5539560da1b6064820152608401610217565b603360009054906101000a90046001600160a01b03166001600160a01b031663e6f1daf26040518163ffffffff1660e01b8152600401600060405180830381600087803b15801561043057600080fd5b505af1158015610444573d6000803e3d6000fd5b5050505060005b8181101561065e576034546040516354c49fe960e01b8152600481018390526000916001600160a01b0316906354c49fe990602401602060405180830381865afa15801561049d573d6000803e3d6000fd5b505050506040513d601f19601f820116820180604052508101906104c19190613140565b6033549091506001600160a01b038083169116148015906104f057506035546001600160a01b03828116911614155b1561064b5761052387878481811061050a5761050a61315d565b905060200281019061051c9190613173565b8683611f75565b6040516370a0823160e01b81523060048201526000906001600160a01b038316906370a0823190602401602060405180830381865afa15801561056a573d6000803e3d6000fd5b505050506040513d601f19601f8201168201806040525081019061058e9190613127565b905080156106495760405163095ea7b360e01b815273ba12222222228d8ba445958a75a0704d566bf2c86004820152602481018290526001600160a01b0383169063095ea7b3906044016020604051808303816000875af11580156105f7573d6000803e3d6000fd5b505050506040513d601f19601f8201168201806040525081019061061b9190613193565b506106498a8a858181106106315761063161315d565b90506020028101906106439190613173565b30612100565b505b5080610656816131b0565b91505061044b565b50603654604051631f29a8cd60e31b815260009173ba12222222228d8ba445958a75a0704d566bf2c89163f94d46689161069e9160040190815260200190565b600060405180830381865afa1580156106bb573d6000803e3d6000fd5b505050506040513d6000823e601f3d908101601f191682016040526106e39190810190613231565b50509050600081516001600160401b0381111561070257610702612edf565b60405190808252806020026020018201604052801561072b578160200160208202803683370190505b50905060005b82518110156109185760355483516001600160a01b039091169084908390811061075d5761075d61315d565b60200260200101516001600160a01b031614610906578281815181106107855761078561315d565b60209081029190910101516040516370a0823160e01b81523060048201526001600160a01b03909116906370a0823190602401602060405180830381865afa1580156107d5573d6000803e3d6000fd5b505050506040513d601f19601f820116820180604052508101906107f99190613127565b82828151811061080b5761080b61315d565b602002602001018181525050600082828151811061082b5761082b61315d565b602002602001015111156109065782818151811061084b5761084b61315d565b60200260200101516001600160a01b031663095ea7b373ba12222222228d8ba445958a75a0704d566bf2c88484815181106108885761088861315d565b60200260200101516040518363ffffffff1660e01b81526004016108c19291906001600160a01b03929092168252602082015260400190565b6020604051808303816000875af11580156108e0573d6000803e3d6000fd5b505050506040513d601f19601f820116820180604052508101906109049190613193565b505b80610910816131b0565b915050610731565b50603d54606090600160a01b900460ff1615610a4e5760006001835161093e91906132fe565b6001600160401b0381111561095557610955612edf565b60405190808252806020026020018201604052801561097e578160200160208202803683370190505b5090506000805b8551811015610a1e5760355486516001600160a01b03909116908790839081106109b1576109b161315d565b60200260200101516001600160a01b031614610a0c578481815181106109d9576109d961315d565b60200260200101518383815181106109f3576109f361315d565b6020908102919091010152610a0960018361307c565b91505b80610a16816131b0565b915050610985565b506001826001604051602001610a3693929190613315565b60405160208183030381529060405292505050610a77565b6001826001604051602001610a6593929190613315565b60405160208183030381529060405290505b603654604080516080810182528581526020810185905280820184905260006060820152905163172b958560e31b815273ba12222222228d8ba445958a75a0704d566bf2c89263b95cac2892610ad39230918291600401613433565b600060405180830381600087803b158015610aed57600080fd5b505af1158015610b01573d6000803e3d6000fd5b50506035546040516370a0823160e01b81523060048201526001600160a01b0390911692506370a082319150602401602060405180830381865afa158015610b4d573d6000803e3d6000fd5b505050506040513d601f19601f82011682018060405250810190610b719190613127565b9450600060395443610b8391906132fe565b603754610b90919061346f565b603854610b9d919061307c565b610baf670de0b6b3a76400008861346f565b610bb9919061348e565b603a54909150600090603c908290610bd99060019063ffffffff16613102565b63ffffffff168152602081019190915260400160002054610bfa90436132fe565b610c04908361346f565b603a54603c90600090610c1f9060019063ffffffff16613102565b63ffffffff1663ffffffff16815260200190815260200160002060020154610c47919061307c565b604080516060810182524381526020808201868152828401858152603a805463ffffffff9081166000908152603c90955295842094518555915160018581019190915590516002909401939093558054949550919391929091610cac918591166134b0565b825463ffffffff9182166101009390930a92830291909202199091161790555043603955600060385560335460405163b6b55f2560e01b8152600481018990526001600160a01b039091169063b6b55f2590602401600060405180830381600087803b158015610d1b57600080fd5b505af1158015610d2f573d6000803e3d6000fd5b50506001805550969c9b505050505050505050505050565b60375460009015610dc1576033546040516370a0823160e01b81523060048201526001600160a01b03909116906370a0823190602401602060405180830381865afa158015610d9a573d6000803e3d6000fd5b505050506040513d601f19601f82011682018060405250810190610dbe9190613127565b90505b90565b6060600060026001541415610deb5760405162461bcd60e51b8152600401610217906130cb565b6002600155603d546001600160a01b03163314610e1a5760405162461bcd60e51b815260040161021790613094565b603654604051631f29a8cd60e31b815260009173ba12222222228d8ba445958a75a0704d566bf2c89163f94d466891610e599160040190815260200190565b600060405180830381865afa158015610e76573d6000803e3d6000fd5b505050506040513d6000823e601f3d908101601f19168201604052610e9e9190810190613231565b505090508515610fc657610eb4898b018b6134d8565b915060008211610efc5760405162461bcd60e51b8152602060048201526013602482015272125394d551919250d251539517d05353d55395606a1b6044820152606401610217565b610f0682866121d7565b603354604051632e1a7d4d60e01b8152600481018490526001600160a01b0390911690632e1a7d4d90602401600060405180830381600087803b158015610f4c57600080fd5b505af1158015610f60573d6000803e3d6000fd5b5050603554610f7c92506001600160a01b0316905085846122b7565b80516001600160401b03811115610f9557610f95612edf565b604051908082528060200260200182016040528015610fbe578160200160208202803683370190505b509250611076565b805187146110165760405162461bcd60e51b815260206004820152601a60248201527f4d494e5f414d4f554e54535f4f55545f4241445f4c454e4754480000000000006044820152606401610217565b6110248a8a8a8a8589612309565b90935091508161106c5760405162461bcd60e51b8152602060048201526013602482015272125394d551919250d251539517d05353d55395606a1b6044820152606401610217565b61107682866121d7565b5060018055909890975095505050505050565b6000600260015414156110ae5760405162461bcd60e51b8152600401610217906130cb565b6002600155603d546001600160a01b031633146110dd5760405162461bcd60e51b815260040161021790613094565b603654604051631f29a8cd60e31b815260009173ba12222222228d8ba445958a75a0704d566bf2c89163f94d46689161111c9160040190815260200190565b600060405180830381865afa158015611139573d6000803e3d6000fd5b505050506040513d6000823e601f3d908101601f191682016040526111619190810190613231565b5050905080518851146111ab5760405162461bcd60e51b81526020600482015260126024820152710848288be829a9eaa9ca8a6be988a9c8ea8960731b6044820152606401610217565b805186146111ef5760405162461bcd60e51b81526020600482015260116024820152700848288bea89e968a9ca6be988a9c8ea89607b1b6044820152606401610217565b6000805b825181101561142a5782818151811061120e5761120e61315d565b60200260200101516001600160a01b03168989838181106112315761123161315d565b90506020020160208101906112469190612caa565b6001600160a01b03161461129c5760405162461bcd60e51b815260206004820152601c60248201527f544f4b454e535f4e4f545f4d415443485f504f4f4c5f544f4b454e53000000006044820152606401610217565b60008a82815181106112b0576112b061315d565b60200260200101511115611418576035546001600160a01b03168989838181106112dc576112dc61315d565b90506020020160208101906112f19190612caa565b6001600160a01b03161415611341578981815181106113125761131261315d565b602002602001015186611325919061307c565b95508981815181106113395761133961315d565b506114189050565b8161134b57600191505b82818151811061135d5761135d61315d565b60200260200101516001600160a01b031663095ea7b373ba12222222228d8ba445958a75a0704d566bf2c88c848151811061139a5761139a61315d565b60200260200101516040518363ffffffff1660e01b81526004016113d39291906001600160a01b03929092168252602082015260400190565b6020604051808303816000875af11580156113f2573d6000803e3d6000fd5b505050506040513d601f19601f820116820180604052508101906114169190613193565b505b80611422816131b0565b9150506111f3565b508015611727576035546040516370a0823160e01b81523060048201526000916001600160a01b0316906370a0823190602401602060405180830381865afa15801561147a573d6000803e3d6000fd5b505050506040513d601f19601f8201168201806040525081019061149e9190613127565b603d54909150606090600160a01b900460ff16156115dc57600060018c516114c691906132fe565b6001600160401b038111156114dd576114dd612edf565b604051908082528060200260200182016040528015611506578160200160208202803683370190505b5090506000805b8b8110156115ad576035546001600160a01b03168d8d838181106115335761153361315d565b90506020020160208101906115489190612caa565b6001600160a01b03161461159b578d81815181106115685761156861315d565b60200260200101518383815181106115825761158261315d565b602090810291909101015261159860018361307c565b91505b806115a5816131b0565b91505061150d565b506001828b6040516020016115c4939291906134f1565b60405160208183030381529060405292505050611604565b60018b896040516020016115f2939291906134f1565b60405160208183030381529060405290505b60408051608081018252858152602081018d905280820183905260006060820152603654915163172b958560e31b8152909173ba12222222228d8ba445958a75a0704d566bf2c89163b95cac289161166491309081908790600401613433565b600060405180830381600087803b15801561167e57600080fd5b505af1158015611692573d6000803e3d6000fd5b50506035546040516370a0823160e01b8152306004820152600093506001600160a01b0390911691506370a0823190602401602060405180830381865afa1580156116e1573d6000803e3d6000fd5b505050506040513d601f19601f820116820180604052508101906117059190613127565b90508861171285836132fe565b61171c919061307c565b96505050505061172b565b8492505b600083116117735760405162461bcd60e51b81526020600482015260156024820152741393d7d3125455525112551657d41493d592511151605a1b6044820152606401610217565b61177c84612832565b6001600160a01b0384166000908152603b6020526040812080548592906117a490849061307c565b9250508190555082603760008282546117bd919061307c565b909155505060335460405163b6b55f2560e01b8152600481018590526001600160a01b039091169063b6b55f2590602401600060405180830381600087803b15801561180857600080fd5b505af115801561181c573d6000803e3d6000fd5b50506001805550929998505050505050505050565b600061183d6001612957565b90508015611855576000805461ff0019166101001790555b6001600160a01b0383166118995760405162461bcd60e51b815260206004820152600b60248201526a10905117d31417d413d3d360aa1b6044820152606401610217565b6001600160a01b0382166118e25760405162461bcd60e51b815260206004820152601060248201526f2120a22fa0a9a9a2aa2fa927aaaa22a960811b6044820152606401610217565b6118ea6129e4565b603d80546001600160a01b038085166001600160a01b0319928316179092556035805492861692909116821790556040805163038fff2d60e41b815290516338fff2d0916004808201926020929091908290030181865afa158015611953573d6000803e3d6000fd5b505050506040513d601f19601f820116820180604052508101906119779190613127565b60365560405163a8ea687560e01b81526001600160a01b0384166004820152733b8ca519122cdd8efb272b0d3085453404b25bd09063a8ea687590602401602060405180830381865afa1580156119d2573d6000803e3d6000fd5b505050506040513d601f19601f820116820180604052508101906119f69190613140565b603380546001600160a01b0319166001600160a01b03929092169182179055611ab8576040516313db266360e31b81526001600160a01b0384166004820152733b8ca519122cdd8efb272b0d3085453404b25bd090639ed93318906024016020604051808303816000875af1158015611a73573d6000803e3d6000fd5b505050506040513d601f19601f82011682018060405250810190611a979190613140565b603380546001600160a01b0319166001600160a01b03929092169190911790555b6040516308a4ffeb60e41b81526001600160a01b0384166004820152733b8ca519122cdd8efb272b0d3085453404b25bd090638a4ffeb090602401602060405180830381865afa158015611b10573d6000803e3d6000fd5b505050506040513d601f19601f82011682018060405250810190611b349190613140565b603480546001600160a01b0319166001600160a01b03928316179055604080516060810182524380825260006020808401828152848601838152928052603c90915292517f33d13c149959174817b07214f6faff3d4c1d39ff89c6e7f82e2df5f04c00a0ec5591517f33d13c149959174817b07214f6faff3d4c1d39ff89c6e7f82e2df5f04c00a0ed5590517f33d13c149959174817b07214f6faff3d4c1d39ff89c6e7f82e2df5f04c00a0ee55603a805463ffffffff191660011790556039555163095ea7b360e01b815273ba12222222228d8ba445958a75a0704d566bf2c8600482015260001960248201529084169063095ea7b3906044016020604051808303816000875af1158015611c4e573d6000803e3d6000fd5b505050506040513d601f19601f82011682018060405250810190611c729190613193565b5060335460405163095ea7b360e01b81526001600160a01b03918216600482015260001960248201529084169063095ea7b3906044016020604051808303816000875af1158015611cc7573d6000803e3d6000fd5b505050506040513d601f19601f82011682018060405250810190611ceb9190613193565b50826001600160a01b03166382687a566040518163ffffffff1660e01b8152600401602060405180830381865afa925050508015611d46575060408051601f3d908101601f19168201909252611d4391810190613127565b60015b611d80573d808015611d74576040519150601f19603f3d011682016040523d82523d6000602084013e611d79565b606091505b5050611d95565b50603d805460ff60a01b1916600160a01b1790555b8015611ddb576000805461ff0019169055604051600181527f7f26b83ff96e1f2b6a682f133852f6798a09c465da95921460cefb38474024989060200160405180910390a15b505050565b6001600160a01b0381166000908152603b60209081526040808320815160a08101835281548152600182015493810193909352600281015491830191909152600381015463ffffffff908116606084018190526004909201546080840152603a54161415611e52576040015192915050565b60608082015163ffffffff166000908152603c6020908152604080832081519485018252805480865260018201549386019390935260020154908401526080840151611e9d916132fe565b8351611ea9919061346f565b8360200151611eb8919061307c565b90506000670de0b6b3a7640000836020015183611ed5919061346f565b611edf919061348e565b6040840151603a54919250600091670de0b6b3a76400009190603c908490611f0f9060019063ffffffff16613102565b63ffffffff1663ffffffff16815260200190815260200160002060020154611f3791906132fe565b8651611f43919061346f565b611f4d919061348e565b905080828660400151611f60919061307c565b611f6a919061307c565b979650505050505050565b6000611f846020840184612caa565b6001600160a01b031614611ddb576040516370a0823160e01b8152306004820152600090670de0b6b3a7640000906020850135906001600160a01b038516906370a0823190602401602060405180830381865afa158015611fe9573d6000803e3d6000fd5b505050506040513d601f19601f8201168201806040525081019061200d9190613127565b612017919061346f565b612021919061348e565b905080156120d9576000612035858061351d565b905011156120df5760405163095ea7b360e01b815273ba12222222228d8ba445958a75a0704d566bf2c86004820152602481018290526001600160a01b0383169063095ea7b3906044016020604051808303816000875af115801561209e573d6000803e3d6000fd5b505050506040513d601f19601f820116820180604052508101906120c29190613193565b506120d9846120d46020860186612caa565b612100565b50505050565b6120d96120ef6020850185612caa565b6001600160a01b03841690836122b7565b73ba12222222228d8ba445958a75a0704d566bf2c863945bcec96000612126858061351d565b612133602088018861351d565b604080516080810182523081526000602082018190526001600160a01b038b1682840152606082015290612169908b018b61351d565b6000196040518a63ffffffff1660e01b8152600401612190999897969594939291906135f9565b6000604051808303816000875af11580156121af573d6000803e3d6000fd5b505050506040513d6000823e601f3d908101601f19168201604052611ddb9190810190613777565b6121e081612832565b6001600160a01b0381166000908152603b60205260409020600281015483111561229957600281015481546000916122179161307c565b9050808411156122605760405162461bcd60e51b8152602060048201526014602482015273494e53554646494349454e545f42414c414e434560601b6044820152606401610217565b61226a84826132fe565b82556002820154603754859161227f9161307c565b61228991906132fe565b6037555060006002820155505050565b828160020160008282546122ad91906132fe565b9091555050505050565b604080516001600160a01b038416602482015260448082018490528251808303909101815260649091019091526020810180516001600160e01b031663a9059cbb60e01b179052611ddb908490612a15565b6033546040516370a0823160e01b81523060048201526060916000916001600160a01b0390911690632e1a7d4d9082906370a0823190602401602060405180830381865afa15801561235f573d6000803e3d6000fd5b505050506040513d601f19601f820116820180604052508101906123839190613127565b6040518263ffffffff1660e01b81526004016123a191815260200190565b600060405180830381600087803b1580156123bb57600080fd5b505af11580156123cf573d6000803e3d6000fd5b5050505083516001600160401b038111156123ec576123ec612edf565b604051908082528060200260200182016040528015612415578160200160208202803683370190505b50915060005b84518110156124db578481815181106124365761243661315d565b60209081029190910101516040516370a0823160e01b81526001600160a01b038681166004830152909116906370a0823190602401602060405180830381865afa158015612488573d6000803e3d6000fd5b505050506040513d601f19601f820116820180604052508101906124ac9190613127565b8382815181106124be576124be61315d565b6020908102919091010152806124d3816131b0565b91505061241b565b506035546040516370a0823160e01b81523060048201526000916001600160a01b0316906370a0823190602401602060405180830381865afa158015612525573d6000803e3d6000fd5b505050506040513d601f19601f820116820180604052508101906125499190613127565b905073ba12222222228d8ba445958a75a0704d566bf2c86001600160a01b0316638bdb3913603654308760405180608001604052808b81526020018d8d80806020026020016040519081016040528093929190818152602001838360200280828437600081840152601f19601f8201169050808301925050505050505081526020018f8f8080601f01602080910402602001604051908101604052809392919081815260200183838082843760009201829052509385525050506020909101526040516001600160e01b031960e087901b16815261262d9493929190600401613433565b600060405180830381600087803b15801561264757600080fd5b505af115801561265b573d6000803e3d6000fd5b5050505060005b855181101561274c57600086828151811061267f5761267f61315d565b60209081029190910101516040516370a0823160e01b81526001600160a01b038881166004830152909116906370a0823190602401602060405180830381865afa1580156126d1573d6000803e3d6000fd5b505050506040513d601f19601f820116820180604052508101906126f59190613127565b90508482815181106127095761270961315d565b60200260200101518161271c91906132fe565b85838151811061272e5761272e61315d565b60209081029190910101525080612744816131b0565b915050612662565b506035546040516370a0823160e01b81523060048201526000916001600160a01b0316906370a0823190602401602060405180830381865afa158015612796573d6000803e3d6000fd5b505050506040513d601f19601f820116820180604052508101906127ba9190613127565b90506127c681836132fe565b60335460405163b6b55f2560e01b8152600481018490529194506001600160a01b03169063b6b55f2590602401600060405180830381600087803b15801561280d57600080fd5b505af1158015612821573d6000803e3d6000fd5b505050505050965096945050505050565b6001600160a01b0381166000908152603b60205260409020603a54600382015463ffffffff9081169116141561289b57600481015461287190436132fe565b815461287d919061346f565b816001016000828254612890919061307c565b909155506128f79050565b6128a482611de0565b6002820155603a54603c906000906128c49060019063ffffffff16613102565b63ffffffff1681526020810191909152604001600020546128e590436132fe565b81546128f1919061346f565b60018201555b603a5460038201805463ffffffff191663ffffffff9092169190911790554360048201819055603754603954909161292f91906132fe565b612939919061346f565b6038600082825461294a919061307c565b9091555050436039555050565b60008054610100900460ff161561299e578160ff16600114801561297a5750303b155b6129965760405162461bcd60e51b8152600401610217906137fc565b506000919050565b60005460ff8084169116106129c55760405162461bcd60e51b8152600401610217906137fc565b506000805460ff191660ff92909216919091179055600190565b919050565b600054610100900460ff16612a0b5760405162461bcd60e51b81526004016102179061384a565b612a13612ae7565b565b6000612a6a826040518060400160405280602081526020017f5361666545524332303a206c6f772d6c6576656c2063616c6c206661696c6564815250856001600160a01b0316612b149092919063ffffffff16565b805190915015611ddb5780806020019051810190612a889190613193565b611ddb5760405162461bcd60e51b815260206004820152602a60248201527f5361666545524332303a204552433230206f7065726174696f6e20646964206e6044820152691bdd081cdd58d8d9595960b21b6064820152608401610217565b600054610100900460ff16612b0e5760405162461bcd60e51b81526004016102179061384a565b60018055565b6060612b238484600085612b2d565b90505b9392505050565b606082471015612b8e5760405162461bcd60e51b815260206004820152602660248201527f416464726573733a20696e73756666696369656e742062616c616e636520666f6044820152651c8818d85b1b60d21b6064820152608401610217565b6001600160a01b0385163b612be55760405162461bcd60e51b815260206004820152601d60248201527f416464726573733a2063616c6c20746f206e6f6e2d636f6e74726163740000006044820152606401610217565b600080866001600160a01b03168587604051612c019190613895565b60006040518083038185875af1925050503d8060008114612c3e576040519150601f19603f3d011682016040523d82523d6000602084013e612c43565b606091505b5091509150611f6a82828660608315612c5d575081612b26565b825115612c6d5782518084602001fd5b8160405162461bcd60e51b815260040161021791906138a7565b6001600160a01b0381168114612c9c57600080fd5b50565b80356129df81612c87565b600060208284031215612cbc57600080fd5b8135612b2681612c87565b60008083601f840112612cd957600080fd5b5081356001600160401b03811115612cf057600080fd5b6020830191508360208260051b8501011115612d0b57600080fd5b9250929050565b60008060008060008587036080811215612d2b57600080fd5b86356001600160401b0380821115612d4257600080fd5b612d4e8a838b01612cc7565b90985096506020890135915080821115612d6757600080fd5b50612d7489828a01612cc7565b9095509350506040603f1982011215612d8c57600080fd5b506040860190509295509295909350565b8015158114612c9c57600080fd5b80356129df81612d9d565b600080600080600080600060a0888a031215612dd157600080fd5b87356001600160401b0380821115612de857600080fd5b818a0191508a601f830112612dfc57600080fd5b813581811115612e0b57600080fd5b8b6020828501011115612e1d57600080fd5b602092830199509750908901359080821115612e3857600080fd5b50612e458a828b01612cc7565b9096509450612e58905060408901612dab565b9250612e6660608901612c9f565b9150612e7460808901612c9f565b905092959891949750929550565b600081518084526020808501945080840160005b83811015612eb257815187529582019590820190600101612e96565b509495945050505050565b604081526000612ed06040830185612e82565b90508260208301529392505050565b634e487b7160e01b600052604160045260246000fd5b604051601f8201601f191681016001600160401b0381118282101715612f1d57612f1d612edf565b604052919050565b60006001600160401b03821115612f3e57612f3e612edf565b5060051b60200190565b60008060008060008060a08789031215612f6157600080fd5b86356001600160401b0380821115612f7857600080fd5b818901915089601f830112612f8c57600080fd5b81356020612fa1612f9c83612f25565b612ef5565b82815260059290921b8401810191818101908d841115612fc057600080fd5b948201945b83861015612fde57853582529482019490820190612fc5565b9a50508a013592505080821115612ff457600080fd5b5061300189828a01612cc7565b909650945050604087013592506060870135915061302160808801612c9f565b90509295509295509295565b6000806040838503121561304057600080fd5b823561304b81612c87565b9150602083013561305b81612c87565b809150509250929050565b634e487b7160e01b600052601160045260246000fd5b6000821982111561308f5761308f613066565b500190565b60208082526017908201527f43414c4c45525f4e4f545f41535345545f524f55544552000000000000000000604082015260600190565b6020808252601f908201527f5265656e7472616e637947756172643a207265656e7472616e742063616c6c00604082015260600190565b600063ffffffff8381169083168181101561311f5761311f613066565b039392505050565b60006020828403121561313957600080fd5b5051919050565b60006020828403121561315257600080fd5b8151612b2681612c87565b634e487b7160e01b600052603260045260246000fd5b60008235605e1983360301811261318957600080fd5b9190910192915050565b6000602082840312156131a557600080fd5b8151612b2681612d9d565b60006000198214156131c4576131c4613066565b5060010190565b600082601f8301126131dc57600080fd5b815160206131ec612f9c83612f25565b82815260059290921b8401810191818101908684111561320b57600080fd5b8286015b84811015613226578051835291830191830161320f565b509695505050505050565b60008060006060848603121561324657600080fd5b83516001600160401b038082111561325d57600080fd5b818601915086601f83011261327157600080fd5b81516020613281612f9c83612f25565b82815260059290921b8401810191818101908a8411156132a057600080fd5b948201945b838610156132c75785516132b881612c87565b825294820194908201906132a5565b918901519197509093505050808211156132e057600080fd5b506132ed868287016131cb565b925050604084015190509250925092565b60008282101561331057613310613066565b500390565b60ff841681526060602082015260006133316060830185612e82565b905060ff83166040830152949350505050565b60005b8381101561335f578181015183820152602001613347565b838111156120d95750506000910152565b60008151808452613388816020860160208601613344565b601f01601f19169290920160200192915050565b8051608080845281519084018190526000916020919082019060a0860190845b818110156133e15783516001600160a01b0316835292840192918401916001016133bc565b5050828501519150858103838701526133fa8183612e82565b92505050604083015184820360408601526134158282613370565b915050606083015161342b606086018215159052565b509392505050565b8481526001600160a01b038481166020830152831660408201526080606082018190526000906134659083018461339c565b9695505050505050565b600081600019048311821515161561348957613489613066565b500290565b6000826134ab57634e487b7160e01b600052601260045260246000fd5b500490565b600063ffffffff8083168185168083038211156134cf576134cf613066565b01949350505050565b6000602082840312156134ea57600080fd5b5035919050565b60ff8416815260606020820152600061350d6060830185612e82565b9050826040830152949350505050565b6000808335601e1984360301811261353457600080fd5b8301803591506001600160401b0382111561354e57600080fd5b6020019150600581901b3603821315612d0b57600080fd5b81835281816020850137506000828201602090810191909152601f909101601f19169091010190565b8183526000602080850194508260005b85811015612eb25781356135b281612c87565b6001600160a01b03168752958201959082019060010161359f565b8183526000602080850194508260005b85811015612eb2578135875295820195908201906001016135dd565b6000610120820160028c1061361e57634e487b7160e01b600052602160045260246000fd5b8b8352610120602084015289905261014060058a901b830181019083018b60005b8c8110156136fb5785840361013f190183528135368f9003609e1901811261366657600080fd5b8e81019050803585526020810135602086015260408101356040860152606081013560608601526080810135601e198236030181126136a457600080fd5b810180356001600160401b038111156136bc57600080fd5b8036038313156136cb57600080fd5b60a060808801526136e360a088018260208501613566565b9650505060209384019392909201915060010161363f565b505050828103604084015261371181898b61358f565b87516001600160a01b0390811660608681019190915260208a01511515608087015260408a015190911660a0860152880151151560c0850152905082810360e084015261375f8186886135cd565b915050826101008301529a9950505050505050505050565b6000602080838503121561378a57600080fd5b82516001600160401b038111156137a057600080fd5b8301601f810185136137b157600080fd5b80516137bf612f9c82612f25565b81815260059190911b820183019083810190878311156137de57600080fd5b928401925b82841015611f6a578351825292840192908401906137e3565b6020808252602e908201527f496e697469616c697a61626c653a20636f6e747261637420697320616c72656160408201526d191e481a5b9a5d1a585b1a5e995960921b606082015260800190565b6020808252602b908201527f496e697469616c697a61626c653a20636f6e7472616374206973206e6f74206960408201526a6e697469616c697a696e6760a81b606082015260800190565b60008251613189818460208701613344565b602081526000612b26602083018461337056fea2646970667358221220ef6f069300de4b80321b182efd0e11b5765109836d821f00c9faab7556c8226f64736f6c634300080a0033",
  "immutableReferences": {},
  "source": "// SPDX-License-Identifier: MIT\r\npragma solidity 0.8.10;\r\n \r\nimport \"../../interfaces/IVault.sol\";\r\nimport \"../../interfaces/IBasePool.sol\";\r\nimport '../../interfaces/IChildChainLiquidityGaugeFactory.sol';\r\nimport \"../../interfaces/IRewardsOnlyGauge.sol\"; \r\nimport \"../../interfaces/IChildChainStreamer.sol\"; \r\nimport '@openzeppelin/contracts-upgradeable/security/ReentrancyGuardUpgradeable.sol';\r\nimport '@openzeppelin/contracts-upgradeable/token/ERC20/utils/SafeERC20Upgradeable.sol';\r\nimport '@openzeppelin/contracts-upgradeable/token/ERC20/IERC20Upgradeable.sol';\r\nimport '@openzeppelin/contracts-upgradeable/proxy/utils/Initializable.sol';\r\n\r\ncontract UnoFarmBalancer is Initializable, ReentrancyGuardUpgradeable {\r\n    using SafeERC20Upgradeable for IERC20Upgradeable;\r\n    /**\r\n     * @dev DistributionInfo:\r\n     * {block} - Distribution block number.\r\n     * {rewardPerDepositAge} - Distribution reward divided by {totalDepositAge}. \r\n     * {cumulativeRewardAgePerDepositAge} - Sum of {rewardPerDepositAge}s multiplied by distribution interval.\r\n     */\r\n    struct DistributionInfo {\r\n        uint256 block;\r\n        uint256 rewardPerDepositAge;\r\n        uint256 cumulativeRewardAgePerDepositAge;\r\n    }\r\n    /**\r\n     * @dev UserInfo:\r\n     * {stake} - Amount of LP tokens deposited by the user.\r\n     * {depositAge} - User deposits multiplied by blocks the deposit has been in. \r\n     * {reward} - Amount of LP tokens entitled to the user.\r\n     * {lastDistribution} - Distribution ID before the last user deposit.\r\n     * {lastUpdate} - Deposit update block.\r\n     */\r\n    struct UserInfo {\r\n        uint256 stake;\r\n        uint256 depositAge;\r\n        uint256 reward;\r\n        uint32 lastDistribution;\r\n        uint256 lastUpdate;\r\n    }\r\n    /**\r\n     * @dev SwapInfo:\r\n     * {swaps} - Data used for token swaps.\r\n     * {assets} - Assets used in swaps.\r\n     * {limits} - Swap slippage limits.\r\n     */\r\n    struct SwapInfo{\r\n        IVault.BatchSwapStep[] swaps;\r\n        IERC20[] assets;\r\n        int256[] limits;\r\n    }\r\n    /**\r\n     * @dev FeeInfo:\r\n     * {feeCollector} - Contract to transfer fees to.\r\n     * {fee} - Fee percentage to collect (10^18 == 100%). \r\n     */\r\n    struct FeeInfo {\r\n        address feeTo;\r\n        uint256 fee;\r\n    }\r\n\r\n    /**\r\n     * @dev Third Party Contracts:\r\n     * {Vault} - Main Balancer contract used for pool exits/joins and swaps.\r\n     * {GaugeFactory} - Contract that deploys gauges.\r\n     * {gauge} - Contract that distributes reward tokens.\r\n     * {streamer} - Contract reward tokens get sent to from the bridge.\r\n     */   \r\n    IVault constant private Vault = IVault(0xBA12222222228d8Ba445958a75a0704d566BF2C8);\r\n    IChildChainLiquidityGaugeFactory constant private GaugeFactory = IChildChainLiquidityGaugeFactory(0x3b8cA519122CdD8efb272b0D3085453404B25bD0);\r\n    IRewardsOnlyGauge public gauge;\r\n    IChildChainStreamer private streamer;\r\n\r\n    /**\r\n     * @dev Contract Variables:\r\n     * {lpPool} - Pool.\r\n     * {poolId} - Bytes32 representation of the {lpPool}.\r\n\r\n     * {totalDeposits} - Total deposits made by users.\r\n     * {totalDepositAge} - Deposits multiplied by blocks the deposit has been in. Flushed every reward distribution.\r\n     * {totalDepositLastUpdate} - Last {totalDepositAge} update block.\r\n\r\n     * {distributionID} - Current distribution ID.\r\n     * {userInfo} - Info on each user.\r\n     * {distributionInfo} - Info on each distribution.\r\n\r\n     * {fractionMultiplier} - Used to store decimal values.\r\n     */\r\n    address public lpPool;\r\n    bytes32 public poolId;\r\n\r\n    uint256 private totalDeposits;\r\n    uint256 private totalDepositAge;\r\n    uint256 private totalDepositLastUpdate;\r\n\r\n    uint32 private distributionID;\r\n    mapping(address => UserInfo) private userInfo;\r\n    mapping(uint32 => DistributionInfo) private distributionInfo;\r\n\r\n    uint256 private constant fractionMultiplier = uint256(1 ether);\r\n\r\n    /**\r\n     * @dev Contract Variables:\r\n     * {assetRouter} - The contract from which calls to this farm are made.\r\n     */\r\n    address public assetRouter;\r\n    modifier onlyAssetRouter(){\r\n        require(msg.sender == assetRouter, 'CALLER_NOT_ASSET_ROUTER');\r\n        _;\r\n    }\r\n\r\n    // Some balancer pools are composable and have pre-minted bpt in them\r\n    bool public isComposable;\r\n\r\n    // ============ Methods ============\r\n\r\n    function initialize(address _lpPool, address _assetRouter) external initializer {\r\n        require (_lpPool != address(0), 'BAD_LP_POOL');\r\n        require (_assetRouter != address(0), 'BAD_ASSET_ROUTER');\r\n\r\n        __ReentrancyGuard_init();\r\n        assetRouter = _assetRouter;\r\n\r\n        lpPool = _lpPool;\r\n        poolId = IBasePool(_lpPool).getPoolId();\r\n\r\n        gauge = IRewardsOnlyGauge(GaugeFactory.getPoolGauge(_lpPool));\r\n        if(address(gauge) == address(0)){\r\n            gauge = IRewardsOnlyGauge(GaugeFactory.create(_lpPool));\r\n        }\r\n        streamer = IChildChainStreamer(GaugeFactory.getPoolStreamer(_lpPool));\r\n\r\n        distributionInfo[0] = DistributionInfo({\r\n            block: block.number,\r\n            rewardPerDepositAge: 0,\r\n            cumulativeRewardAgePerDepositAge: 0\r\n        });\r\n        distributionID = 1;\r\n        totalDepositLastUpdate = block.number;\r\n\r\n        IERC20(_lpPool).approve(address(Vault), type(uint256).max);\r\n        IERC20(_lpPool).approve(address(gauge), type(uint256).max);\r\n\r\n        // Only ComposableStable pools have this function\r\n        try IBasePool(_lpPool).getBptIndex() returns (uint256) {\r\n            isComposable = true;\r\n        } catch (bytes memory /*lowLevelData*/) {}\r\n    }\r\n\r\n    /**\r\n     * @dev Function that makes the deposits.\r\n     * Deposits {amounts} of {tokens} from this contract's balance to the {Vault}.\r\n     */\r\n    function deposit(uint256[] memory amounts, address[] calldata tokens, uint256 minAmountLP, uint256 amountLP,  address recipient) external nonReentrant onlyAssetRouter returns(uint256 liquidity){\r\n        (IERC20[] memory _tokens, , ) = Vault.getPoolTokens(poolId);\r\n        require (amounts.length == _tokens.length, 'BAD_AMOUNTS_LENGTH');\r\n        require (tokens.length == _tokens.length, 'BAD_TOKENS_LENGTH');\r\n\r\n        bool joinPool = false;\r\n        for (uint256 i = 0; i < _tokens.length; i++) {\r\n            require (IERC20(tokens[i]) == _tokens[i], 'TOKENS_NOT_MATCH_POOL_TOKENS');\r\n            if(amounts[i] > 0){\r\n                if(tokens[i] == lpPool){\r\n                    amountLP += amounts[i];\r\n                    amounts[i] == 0;\r\n                    continue;\r\n                }\r\n                if(!joinPool){\r\n                    joinPool = true;\r\n                }\r\n                _tokens[i].approve(address(Vault), amounts[i]);\r\n            }\r\n        }\r\n\r\n        if(joinPool){\r\n            uint256 amountBefore = IERC20(lpPool).balanceOf(address(this));\r\n\r\n            bytes memory userData;\r\n            if(isComposable){\r\n                //If pool has pre-minted BPT then don't include those in userData.\r\n                uint256[] memory _amounts = new uint256[](amounts.length - 1);\r\n                uint256 _i = 0;\r\n                for (uint256 i = 0; i < tokens.length; i++) {\r\n                    if(tokens[i] != lpPool){\r\n                        _amounts[_i] = amounts[i];\r\n                        _i += 1;\r\n                    }\r\n                }\r\n                userData = abi.encode(1, _amounts, minAmountLP);\r\n            } else {\r\n                userData = abi.encode(1, amounts, minAmountLP);\r\n            }\r\n\r\n            IVault.JoinPoolRequest memory joinPoolRequest = IVault.JoinPoolRequest(_tokens, amounts, userData, false);\r\n            Vault.joinPool(poolId, address(this), address(this), joinPoolRequest);\r\n            \r\n            uint256 amountAfter = IERC20(lpPool).balanceOf(address(this));\r\n            liquidity = amountAfter - amountBefore + amountLP;\r\n        } else {\r\n            liquidity = amountLP;\r\n        }\r\n\r\n        require (liquidity > 0, 'NO_LIQUIDITY_PROVIDED');\r\n        \r\n        _updateDeposit(recipient);\r\n        userInfo[recipient].stake += liquidity;\r\n        totalDeposits += liquidity;\r\n\r\n        gauge.deposit(liquidity);\r\n    }\r\n\r\n    /**\r\n     * @dev Withdraws funds from {origin} and sends them to the {recipient}.\r\n     */\r\n    function withdraw(bytes calldata userData, uint256[] calldata minAmountsOut, bool withdrawLP, address origin, address recipient) external nonReentrant onlyAssetRouter returns(uint256[] memory amounts, uint256 liquidity){\r\n        (IERC20[] memory tokens, , ) = Vault.getPoolTokens(poolId);\r\n        if(withdrawLP){\r\n            (liquidity) = abi.decode(userData, (uint256));\r\n            require(liquidity > 0, 'INSUFFICIENT_AMOUNT');\r\n            _onWithdrawUpdate(liquidity, origin);\r\n\r\n            gauge.withdraw(liquidity);\r\n            IERC20Upgradeable(lpPool).safeTransfer(recipient, liquidity);\r\n            amounts = new uint256[](tokens.length);\r\n        } else {\r\n            require (minAmountsOut.length == tokens.length, 'MIN_AMOUNTS_OUT_BAD_LENGTH');\r\n            (amounts, liquidity) = _exitPool(userData, minAmountsOut, tokens, recipient);\r\n            require(liquidity > 0, 'INSUFFICIENT_AMOUNT');\r\n            _onWithdrawUpdate(liquidity, origin);\r\n        }\r\n    }\r\n\r\n    function _onWithdrawUpdate(uint256 liquidity, address origin) internal{\r\n        _updateDeposit(origin);\r\n        UserInfo storage user = userInfo[origin];\r\n        // Subtract amount from user.reward first, then subtract remainder from user.stake.\r\n        if(liquidity > user.reward){\r\n            uint256 balance = user.stake + user.reward;\r\n            require(liquidity <= balance, 'INSUFFICIENT_BALANCE');\r\n            user.stake = balance - liquidity;\r\n            totalDeposits = totalDeposits + user.reward - liquidity;\r\n            user.reward = 0;\r\n        } else {\r\n            user.reward -= liquidity;\r\n        }\r\n    }\r\n\r\n    // Move logic to separate function to avoid \"Stack too deep\" errors.\r\n    function _exitPool(bytes calldata userData, uint256[] calldata minAmountsOut, IERC20[] memory tokens, address recipient) internal returns(uint256[] memory amounts, uint256 liquidity){\r\n        gauge.withdraw(gauge.balanceOf(address(this)));\r\n\r\n        //Collect amounts before pool exit\r\n        amounts = new uint256[](tokens.length);\r\n        for (uint256 i = 0; i < tokens.length; i++) {\r\n            amounts[i] = tokens[i].balanceOf(recipient);\r\n        }\r\n        uint256 liquidityBefore = IERC20(lpPool).balanceOf(address(this));\r\n        Vault.exitPool(poolId, address(this), payable(recipient), IVault.ExitPoolRequest(tokens, minAmountsOut, userData, false));\r\n            \r\n        //Subtract amounts after pool exit\r\n        for (uint256 i = 0; i < tokens.length; i++) {\r\n            uint256 balanceAfter = tokens[i].balanceOf(recipient);\r\n            amounts[i] = balanceAfter - amounts[i];\r\n        }\r\n        uint256 liquidityAfter = IERC20(lpPool).balanceOf(address(this));\r\n        liquidity = liquidityBefore - liquidityAfter;\r\n\r\n        gauge.deposit(liquidityAfter);\r\n    }\r\n\r\n    /**\r\n     * @dev Core function of the strat, in charge of updating, collecting and re-investing rewards.\r\n     * 1. It claims rewards from the {gauge}.\r\n     * 2. It swaps reward tokens for {tokens}.\r\n     * 3. It deposits new tokens back to the {gauge}.\r\n     */\r\n    function distribute(\r\n        SwapInfo[] calldata swapInfos,\r\n        SwapInfo[] calldata feeSwapInfos,\r\n        FeeInfo calldata feeInfo\r\n    ) external onlyAssetRouter nonReentrant returns(uint256 reward){\r\n        require(totalDeposits > 0, 'NO_LIQUIDITY');\r\n        require(distributionInfo[distributionID - 1].block != block.number, 'CANT_CALL_ON_THE_SAME_BLOCK');\r\n\r\n        uint256 rewardCount = streamer.reward_count();\r\n        require((swapInfos.length == rewardCount) && (feeSwapInfos.length == rewardCount), 'PARAMS_LENGTHS_NOT_MATCH_REWARD_COUNT');\r\n\r\n        gauge.claim_rewards();\r\n        for (uint256 i = 0; i < rewardCount; i++) {\r\n            IERC20Upgradeable rewardToken = IERC20Upgradeable(streamer.reward_tokens(i));\r\n            if (address(rewardToken) != address(gauge) && address(rewardToken) != lpPool) {  //can't use LP tokens in swap\r\n                collectFees(feeSwapInfos[i], feeInfo, rewardToken);\r\n                uint256 balance = rewardToken.balanceOf(address(this));\r\n                if(balance > 0){\r\n                    rewardToken.approve(address(Vault), balance);\r\n                    _batchSwap(swapInfos[i], payable(address(this)));\r\n                }\r\n            }\r\n        }\r\n\r\n        (IERC20[] memory tokens, , ) = Vault.getPoolTokens(poolId);\r\n        uint256[] memory joinAmounts = new uint256[](tokens.length);\r\n        for (uint256 i = 0; i < tokens.length; i++) {\r\n            if (address(tokens[i]) != lpPool){\r\n                joinAmounts[i] = tokens[i].balanceOf(address(this));\r\n                if (joinAmounts[i] > 0){\r\n                    tokens[i].approve(address(Vault), joinAmounts[i]);\r\n                }\r\n            }\r\n        }\r\n\r\n        bytes memory userData;\r\n        if(isComposable){\r\n            //If pool has pre-minted BPT then don't include those in userData.\r\n            uint256[] memory _joinAmounts = new uint256[](joinAmounts.length - 1);\r\n            uint256 _i = 0;\r\n            for (uint256 i = 0; i < tokens.length; i++) {\r\n                if(address(tokens[i]) != lpPool){\r\n                    _joinAmounts[_i] = joinAmounts[i];\r\n                    _i += 1;\r\n                }\r\n            }\r\n            userData = abi.encode(1, _joinAmounts, 1);\r\n        } else {\r\n            userData = abi.encode(1, joinAmounts, 1);\r\n        }\r\n        Vault.joinPool(poolId, address(this), address(this), IVault.JoinPoolRequest(tokens, joinAmounts, userData, false));\r\n\r\n        reward = IERC20(lpPool).balanceOf(address(this));\r\n\r\n        uint256 rewardPerDepositAge = reward * fractionMultiplier / (totalDepositAge + totalDeposits * (block.number - totalDepositLastUpdate));\r\n        uint256 cumulativeRewardAgePerDepositAge = distributionInfo[distributionID - 1].cumulativeRewardAgePerDepositAge + rewardPerDepositAge * (block.number - distributionInfo[distributionID - 1].block);\r\n\r\n        distributionInfo[distributionID] = DistributionInfo({\r\n            block: block.number,\r\n            rewardPerDepositAge: rewardPerDepositAge,\r\n            cumulativeRewardAgePerDepositAge: cumulativeRewardAgePerDepositAge\r\n        });\r\n\r\n        distributionID += 1;\r\n        totalDepositLastUpdate = block.number;\r\n        totalDepositAge = 0;\r\n\r\n        gauge.deposit(reward);\r\n    }\r\n\r\n    /**\r\n     * @dev Swaps and sends fees to feeTo.\r\n     */\r\n    function collectFees(SwapInfo calldata feeSwapInfo, FeeInfo calldata feeInfo, IERC20Upgradeable token) internal {\r\n        if(feeInfo.feeTo != address(0)){\r\n            uint256 feeAmount = token.balanceOf(address(this)) * feeInfo.fee / fractionMultiplier;\r\n            if(feeAmount > 0){\r\n                if(feeSwapInfo.swaps.length > 0){\r\n                    token.approve(address(Vault), feeAmount);\r\n                    _batchSwap(feeSwapInfo, payable(feeInfo.feeTo));\r\n                    return;\r\n                }\r\n                token.safeTransfer(feeInfo.feeTo, feeAmount);\r\n            }\r\n        }\r\n    }\r\n\r\n    /**\r\n     * @dev Performs balancer batch swap. Separate function to avoid Stack too deep errors.\r\n     */\r\n    function _batchSwap(SwapInfo calldata swapInfo, address payable recipient) internal {\r\n        Vault.batchSwap(\r\n            IVault.SwapKind.GIVEN_IN,\r\n            swapInfo.swaps,\r\n            swapInfo.assets,\r\n            IVault.FundManagement({sender: address(this), fromInternalBalance:false, recipient: recipient, toInternalBalance:false}),\r\n            swapInfo.limits,\r\n            type(uint256).max\r\n        );\r\n    }\r\n\r\n    /**\r\n     * @dev Returns total funds staked by the {_address}.\r\n     */\r\n    function userBalance(address _address) external view returns (uint256) {\r\n        return userInfo[_address].stake + userReward(_address);\r\n    }\r\n\r\n    /**\r\n     * @dev Returns total funds locked in the farm.\r\n     */\r\n    function getTotalDeposits() external view returns (uint256 _totalDeposits) {\r\n        if(totalDeposits > 0){\r\n            _totalDeposits = gauge.balanceOf(address(this));\r\n        }\r\n    }\r\n    \r\n    function _updateDeposit(address _address) internal {\r\n        UserInfo storage user = userInfo[_address];\r\n        // Accumulate deposit age within the current distribution period.\r\n        if (user.lastDistribution == distributionID) {\r\n            // Add deposit age from previous deposit age update to now.\r\n            user.depositAge += user.stake * (block.number - user.lastUpdate);\r\n        } else {\r\n            // A reward has been distributed, update user.reward.\r\n            user.reward = userReward(_address);\r\n            // Count fresh deposit age from previous reward distribution to now.\r\n            user.depositAge = user.stake * (block.number - distributionInfo[distributionID - 1].block);\r\n        }\r\n\r\n        user.lastDistribution = distributionID;\r\n        user.lastUpdate = block.number;\r\n\r\n        // Same with total deposit age.\r\n        totalDepositAge += (block.number - totalDepositLastUpdate) * totalDeposits;\r\n        totalDepositLastUpdate = block.number;\r\n    }\r\n\r\n    function userReward(address _address) internal view returns (uint256) {\r\n        UserInfo memory user = userInfo[_address];\r\n        if (user.lastDistribution == distributionID) {\r\n            // Return user.reward if the distribution after the last user deposit did not happen yet.\r\n            return user.reward;\r\n        }\r\n        DistributionInfo memory lastUserDistributionInfo = distributionInfo[user.lastDistribution];\r\n        uint256 userDepositAge = user.depositAge + user.stake * (lastUserDistributionInfo.block - user.lastUpdate);\r\n        // Calculate reward between the last user deposit and the distribution after that.\r\n        uint256 rewardBeforeDistibution = userDepositAge * lastUserDistributionInfo.rewardPerDepositAge / fractionMultiplier;\r\n        // Calculate reward from the distributions that have happened after the last user deposit.\r\n        uint256 rewardAfterDistribution = user.stake * (distributionInfo[distributionID - 1].cumulativeRewardAgePerDepositAge - lastUserDistributionInfo.cumulativeRewardAgePerDepositAge) / fractionMultiplier;\r\n        return user.reward + rewardBeforeDistibution + rewardAfterDistribution;\r\n    }\r\n}\r\n",
  "sourcePath": "C:\\Users\\jugli\\Desktop\\uno\\uno-contracts-copy\\contracts\\apps\\balancer\\UnoFarmBalancer.sol",
  "compiler": {
    "name": "solc",
    "version": "0.8.10+commit.fc410830.Emscripten.clang"
  },
  "schemaVersion": "3.4.11",
  "updatedAt": "2022-12-16T14:13:27.578Z",
  "devdoc": {
    "kind": "dev",
    "methods": {
      "deposit(uint256[],address[],uint256,uint256,address)": {
        "details": "Function that makes the deposits. Deposits {amounts} of {tokens} from this contract's balance to the {Vault}."
      },
      "distribute(((bytes32,uint256,uint256,uint256,bytes)[],address[],int256[])[],((bytes32,uint256,uint256,uint256,bytes)[],address[],int256[])[],(address,uint256))": {
        "details": "Core function of the strat, in charge of updating, collecting and re-investing rewards. 1. It claims rewards from the {gauge}. 2. It swaps reward tokens for {tokens}. 3. It deposits new tokens back to the {gauge}."
      },
      "getTotalDeposits()": {
        "details": "Returns total funds locked in the farm."
      },
      "userBalance(address)": {
        "details": "Returns total funds staked by the {_address}."
      },
      "withdraw(bytes,uint256[],bool,address,address)": {
        "details": "Withdraws funds from {origin} and sends them to the {recipient}."
      }
    },
    "stateVariables": {
      "Vault": {
        "details": "Third Party Contracts: {Vault} - Main Balancer contract used for pool exits/joins and swaps. {GaugeFactory} - Contract that deploys gauges. {gauge} - Contract that distributes reward tokens. {streamer} - Contract reward tokens get sent to from the bridge."
      },
      "assetRouter": {
        "details": "Contract Variables: {assetRouter} - The contract from which calls to this farm are made."
      },
      "lpPool": {
        "details": "Contract Variables: {lpPool} - Pool. {poolId} - Bytes32 representation of the {lpPool}. {totalDeposits} - Total deposits made by users. {totalDepositAge} - Deposits multiplied by blocks the deposit has been in. Flushed every reward distribution. {totalDepositLastUpdate} - Last {totalDepositAge} update block. {distributionID} - Current distribution ID. {userInfo} - Info on each user. {distributionInfo} - Info on each distribution. {fractionMultiplier} - Used to store decimal values."
      }
    },
    "version": 1
  },
  "userdoc": {
    "kind": "user",
    "methods": {},
    "version": 1
  }
}