{
  "contractName": "UnoFarmQuickswapDual",
  "abi": [
    {
      "anonymous": false,
      "inputs": [
        {
          "indexed": false,
          "internalType": "uint8",
          "name": "version",
          "type": "uint8"
        }
      ],
      "name": "Initialized",
      "type": "event"
    },
    {
      "inputs": [],
      "name": "assetRouter",
      "outputs": [
        {
          "internalType": "address",
          "name": "",
          "type": "address"
        }
      ],
      "stateMutability": "view",
      "type": "function",
      "constant": true
    },
    {
      "inputs": [],
      "name": "lpPair",
      "outputs": [
        {
          "internalType": "address",
          "name": "",
          "type": "address"
        }
      ],
      "stateMutability": "view",
      "type": "function",
      "constant": true
    },
    {
      "inputs": [],
      "name": "rewardTokenA",
      "outputs": [
        {
          "internalType": "address",
          "name": "",
          "type": "address"
        }
      ],
      "stateMutability": "view",
      "type": "function",
      "constant": true
    },
    {
      "inputs": [],
      "name": "rewardTokenB",
      "outputs": [
        {
          "internalType": "address",
          "name": "",
          "type": "address"
        }
      ],
      "stateMutability": "view",
      "type": "function",
      "constant": true
    },
    {
      "inputs": [],
      "name": "tokenA",
      "outputs": [
        {
          "internalType": "address",
          "name": "",
          "type": "address"
        }
      ],
      "stateMutability": "view",
      "type": "function",
      "constant": true
    },
    {
      "inputs": [],
      "name": "tokenB",
      "outputs": [
        {
          "internalType": "address",
          "name": "",
          "type": "address"
        }
      ],
      "stateMutability": "view",
      "type": "function",
      "constant": true
    },
    {
      "inputs": [
        {
          "internalType": "address",
          "name": "_lpStakingPool",
          "type": "address"
        },
        {
          "internalType": "address",
          "name": "_assetRouter",
          "type": "address"
        }
      ],
      "name": "initialize",
      "outputs": [],
      "stateMutability": "nonpayable",
      "type": "function"
    },
    {
      "inputs": [
        {
          "internalType": "uint256",
          "name": "amountA",
          "type": "uint256"
        },
        {
          "internalType": "uint256",
          "name": "amountB",
          "type": "uint256"
        },
        {
          "internalType": "uint256",
          "name": "amountLP",
          "type": "uint256"
        },
        {
          "internalType": "address",
          "name": "recipient",
          "type": "address"
        }
      ],
      "name": "deposit",
      "outputs": [
        {
          "internalType": "uint256",
          "name": "sentA",
          "type": "uint256"
        },
        {
          "internalType": "uint256",
          "name": "sentB",
          "type": "uint256"
        },
        {
          "internalType": "uint256",
          "name": "liquidity",
          "type": "uint256"
        }
      ],
      "stateMutability": "nonpayable",
      "type": "function"
    },
    {
      "inputs": [
        {
          "internalType": "address",
          "name": "origin",
          "type": "address"
        },
        {
          "internalType": "uint256",
          "name": "amount",
          "type": "uint256"
        },
        {
          "internalType": "bool",
          "name": "withdrawLP",
          "type": "bool"
        },
        {
          "internalType": "address",
          "name": "recipient",
          "type": "address"
        }
      ],
      "name": "withdraw",
      "outputs": [
        {
          "internalType": "uint256",
          "name": "amountA",
          "type": "uint256"
        },
        {
          "internalType": "uint256",
          "name": "amountB",
          "type": "uint256"
        }
      ],
      "stateMutability": "nonpayable",
      "type": "function"
    },
    {
      "inputs": [
        {
          "internalType": "address[]",
          "name": "rewardTokenAToTokenARoute",
          "type": "address[]"
        },
        {
          "internalType": "address[]",
          "name": "rewardTokenAToTokenBRoute",
          "type": "address[]"
        },
        {
          "internalType": "address[]",
          "name": "rewardTokenBToTokenARoute",
          "type": "address[]"
        },
        {
          "internalType": "address[]",
          "name": "rewardTokenBToTokenBRoute",
          "type": "address[]"
        },
        {
          "internalType": "uint256[4]",
          "name": "amountsOutMin",
          "type": "uint256[4]"
        }
      ],
      "name": "distribute",
      "outputs": [
        {
          "internalType": "uint256",
          "name": "reward",
          "type": "uint256"
        }
      ],
      "stateMutability": "nonpayable",
      "type": "function"
    },
    {
      "inputs": [
        {
          "internalType": "address",
          "name": "_address",
          "type": "address"
        }
      ],
      "name": "userBalance",
      "outputs": [
        {
          "internalType": "uint256",
          "name": "",
          "type": "uint256"
        }
      ],
      "stateMutability": "view",
      "type": "function",
      "constant": true
    },
    {
      "inputs": [],
      "name": "getTotalDeposits",
      "outputs": [
        {
          "internalType": "uint256",
          "name": "_totalDeposits",
          "type": "uint256"
        }
      ],
      "stateMutability": "view",
      "type": "function",
      "constant": true
    }
  ],
  "bytecode": "0x608060405234801561001057600080fd5b506126f8806100206000396000f3fe608060405234801561001057600080fd5b50600436106100b45760003560e01c80635f64b55b116100715780635f64b55b146101625780636b8ba92c1461017557806384b9658514610188578063aa7b83e31461019b578063bc0aac10146101ae578063fad3cc4b146101c157600080fd5b80630103c92b146100b95780630fc63d10146100df578063168a48221461010a578063430004c114610112578063452ed4f11461013a578063485cc9551461014d575b600080fd5b6100cc6100c7366004611fda565b6101ef565b6040519081526020015b60405180910390f35b6036546100f2906001600160a01b031681565b6040516001600160a01b0390911681526020016100d6565b6100cc610223565b610125610120366004612005565b6102a0565b604080519283526020830191909152016100d6565b6035546100f2906001600160a01b031681565b61016061015b366004612058565b610549565b005b6037546100f2906001600160a01b031681565b6033546100f2906001600160a01b031681565b6100cc61019636600461214d565b610c35565b6034546100f2906001600160a01b031681565b603f546100f2906001600160a01b031681565b6101d46101cf366004612261565b611776565b604080519384526020840192909252908201526060016100d6565b60006101fa826119e9565b6001600160a01b0383166000908152603d602052604090205461021d91906122ad565b92915050565b6039546000901561029d576038546040516370a0823160e01b81523060048201526001600160a01b03909116906370a0823190602401602060405180830381865afa158015610276573d6000803e3d6000fd5b505050506040513d601f19601f8201168201806040525081019061029a91906122c5565b90505b90565b600080600260015414156102cf5760405162461bcd60e51b81526004016102c6906122de565b60405180910390fd5b6002600155603f546001600160a01b031633146102fe5760405162461bcd60e51b81526004016102c690612315565b600085116103445760405162461bcd60e51b8152602060048201526013602482015272125394d551919250d251539517d05353d55395606a1b60448201526064016102c6565b61034d86611b7e565b6001600160a01b0386166000908152603d6020526040902060028101548611156103bb57600281015481548791610383916122ad565b61038d919061234c565b8155600281015460395487916103a2916122ad565b6103ac919061234c565b603955600060028201556103d5565b858160020160008282546103cf919061234c565b90915550505b603854604051632e1a7d4d60e01b8152600481018890526001600160a01b0390911690632e1a7d4d90602401600060405180830381600087803b15801561041b57600080fd5b505af115801561042f573d6000803e3d6000fd5b50505050841561045d57603554610450906001600160a01b03168588611ca3565b600080925092505061053a565b60365460375473a5e0829caced8ffdd4de3c43696c57f7d7a678ff9163baa2abde916001600160a01b039182169116896000808a61049d426102586122ad565b60405160e089901b6001600160e01b03191681526001600160a01b039788166004820152958716602487015260448601949094526064850192909252608484015290921660a482015260c481019190915260e40160408051808303816000875af115801561050f573d6000803e3d6000fd5b505050506040513d601f19601f820116820180604052508101906105339190612363565b9093509150505b60018055909590945092505050565b60006105556001611cf5565b9050801561056d576000805461ff0019166101001790555b603f80546001600160a01b038085166001600160a01b031992831617909255603880549286169290911682179055604080516372f702f360e01b815290516372f702f3916004808201926020929091908290030181865afa1580156105d6573d6000803e3d6000fd5b505050506040513d601f19601f820116820180604052508101906105fa9190612387565b603580546001600160a01b0319166001600160a01b03928316179055603854604080516317f4408360e21b815290519190921691635fd1020c9160048083019260209291908290030181865afa158015610658573d6000803e3d6000fd5b505050506040513d601f19601f8201168201806040525081019061067c9190612387565b603380546001600160a01b0319166001600160a01b0392831617905560385460408051634462633360e11b8152905191909216916388c4c6669160048083019260209291908290030181865afa1580156106da573d6000803e3d6000fd5b505050506040513d601f19601f820116820180604052508101906106fe9190612387565b603480546001600160a01b0319166001600160a01b0392831617905560355460408051630dfe168160e01b815290519190921691630dfe16819160048083019260209291908290030181865afa15801561075c573d6000803e3d6000fd5b505050506040513d601f19601f820116820180604052508101906107809190612387565b603680546001600160a01b0319166001600160a01b039283161790556035546040805163d21220a760e01b81529051919092169163d21220a79160048083019260209291908290030181865afa1580156107de573d6000803e3d6000fd5b505050506040513d601f19601f820116820180604052508101906108029190612387565b603780546001600160a01b0319166001600160a01b03928316179055604080516060810182524380825260006020808401828152848601838152928052603e90915292517f5f97c64b3c4bdfff50b5c8f505e633128432c6b07fc6c8abc77dce786c7317d45591517f5f97c64b3c4bdfff50b5c8f505e633128432c6b07fc6c8abc77dce786c7317d55590517f5f97c64b3c4bdfff50b5c8f505e633128432c6b07fc6c8abc77dce786c7317d655603c805463ffffffff19166001179055603b55603554905163095ea7b360e01b815285831660048201526000196024820181905292919091169063095ea7b3906044016020604051808303816000875af1158015610912573d6000803e3d6000fd5b505050506040513d601f19601f8201168201806040525081019061093691906123a4565b5060355460405163095ea7b360e01b815273a5e0829caced8ffdd4de3c43696c57f7d7a678ff6004820152602481018390526001600160a01b039091169063095ea7b3906044016020604051808303816000875af115801561099c573d6000803e3d6000fd5b505050506040513d601f19601f820116820180604052508101906109c091906123a4565b5060335460405163095ea7b360e01b815273a5e0829caced8ffdd4de3c43696c57f7d7a678ff6004820152602481018390526001600160a01b039091169063095ea7b3906044016020604051808303816000875af1158015610a26573d6000803e3d6000fd5b505050506040513d601f19601f82011682018060405250810190610a4a91906123a4565b5060345460405163095ea7b360e01b815273a5e0829caced8ffdd4de3c43696c57f7d7a678ff6004820152602481018390526001600160a01b039091169063095ea7b3906044016020604051808303816000875af1158015610ab0573d6000803e3d6000fd5b505050506040513d601f19601f82011682018060405250810190610ad491906123a4565b5060365460405163095ea7b360e01b815273a5e0829caced8ffdd4de3c43696c57f7d7a678ff6004820152602481018390526001600160a01b039091169063095ea7b3906044016020604051808303816000875af1158015610b3a573d6000803e3d6000fd5b505050506040513d601f19601f82011682018060405250810190610b5e91906123a4565b5060375460405163095ea7b360e01b815273a5e0829caced8ffdd4de3c43696c57f7d7a678ff6004820152602481018390526001600160a01b039091169063095ea7b3906044016020604051808303816000875af1158015610bc4573d6000803e3d6000fd5b505050506040513d601f19601f82011682018060405250810190610be891906123a4565b50508015610c30576000805461ff0019169055604051600181527f7f26b83ff96e1f2b6a682f133852f6798a09c465da95921460cefb38474024989060200160405180910390a15b505050565b603f546000906001600160a01b03163314610c625760405162461bcd60e51b81526004016102c690612315565b60026001541415610c855760405162461bcd60e51b81526004016102c6906122de565b6002600155603954610cc85760405162461bcd60e51b815260206004820152600c60248201526b4e4f5f4c495155494449545960a01b60448201526064016102c6565b6033546001600160a01b03168a8a600081610ce557610ce56123c1565b9050602002016020810190610cfa9190611fda565b6001600160a01b0316148015610d5357506036546001600160a01b03168a8a610d2460018261234c565b818110610d3357610d336123c1565b9050602002016020810190610d489190611fda565b6001600160a01b0316145b610d9f5760405162461bcd60e51b815260206004820152601a60248201527f4241445f5245574152445f415f544f4b454e5f415f524f55544500000000000060448201526064016102c6565b6033546001600160a01b03168888600081610dbc57610dbc6123c1565b9050602002016020810190610dd19190611fda565b6001600160a01b0316148015610e2a57506037546001600160a01b03168888610dfb60018261234c565b818110610e0a57610e0a6123c1565b9050602002016020810190610e1f9190611fda565b6001600160a01b0316145b610e765760405162461bcd60e51b815260206004820152601a60248201527f4241445f5245574152445f415f544f4b454e5f425f524f55544500000000000060448201526064016102c6565b6034546001600160a01b03168686600081610e9357610e936123c1565b9050602002016020810190610ea89190611fda565b6001600160a01b0316148015610f0157506036546001600160a01b03168686610ed260018261234c565b818110610ee157610ee16123c1565b9050602002016020810190610ef69190611fda565b6001600160a01b0316145b610f4d5760405162461bcd60e51b815260206004820152601a60248201527f4241445f5245574152445f425f544f4b454e5f415f524f55544500000000000060448201526064016102c6565b6034546001600160a01b03168484600081610f6a57610f6a6123c1565b9050602002016020810190610f7f9190611fda565b6001600160a01b0316148015610fd857506037546001600160a01b03168484610fa960018261234c565b818110610fb857610fb86123c1565b9050602002016020810190610fcd9190611fda565b6001600160a01b0316145b6110245760405162461bcd60e51b815260206004820152601a60248201527f4241445f5245574152445f425f544f4b454e5f425f524f55544500000000000060448201526064016102c6565b603860009054906101000a90046001600160a01b03166001600160a01b0316633d18b9126040518163ffffffff1660e01b8152600401600060405180830381600087803b15801561107457600080fd5b505af1158015611088573d6000803e3d6000fd5b5050505060004261025861109c91906122ad565b6033546040516370a0823160e01b81523060048201529192506000916002916001600160a01b0316906370a0823190602401602060405180830381865afa1580156110eb573d6000803e3d6000fd5b505050506040513d601f19601f8201168201806040525081019061110f91906122c5565b61111991906123d7565b6033546036549192506001600160a01b039182169116146111c55773a5e0829caced8ffdd4de3c43696c57f7d7a678ff6338ed17398286600060200201518f8f30886040518763ffffffff1660e01b815260040161117c969594939291906123f9565b6000604051808303816000875af115801561119b573d6000803e3d6000fd5b505050506040513d6000823e601f3d908101601f191682016040526111c3919081019061246c565b505b6033546037546001600160a01b0390811691161461126a5760208401516040516338ed173960e01b815273a5e0829caced8ffdd4de3c43696c57f7d7a678ff916338ed1739916112219185918f908f9030908a906004016123f9565b6000604051808303816000875af1158015611240573d6000803e3d6000fd5b505050506040513d6000823e601f3d908101601f19168201604052611268919081019061246c565b505b506034546040516370a0823160e01b81523060048201526000916002916001600160a01b03909116906370a0823190602401602060405180830381865afa1580156112b9573d6000803e3d6000fd5b505050506040513d601f19601f820116820180604052508101906112dd91906122c5565b6112e791906123d7565b6034546036549192506001600160a01b0391821691161461138f5760408085015190516338ed173960e01b815273a5e0829caced8ffdd4de3c43696c57f7d7a678ff916338ed1739916113469185918d908d9030908a906004016123f9565b6000604051808303816000875af1158015611365573d6000803e3d6000fd5b505050506040513d6000823e601f3d908101601f1916820160405261138d919081019061246c565b505b6034546037546001600160a01b039081169116146114345760608401516040516338ed173960e01b815273a5e0829caced8ffdd4de3c43696c57f7d7a678ff916338ed1739916113eb9185918b908b9030908a906004016123f9565b6000604051808303816000875af115801561140a573d6000803e3d6000fd5b505050506040513d6000823e601f3d908101601f19168201604052611432919081019061246c565b505b506036546037546040516370a0823160e01b815230600482015273a5e0829caced8ffdd4de3c43696c57f7d7a678ff9263e8e33700926001600160a01b039182169291169082906370a0823190602401602060405180830381865afa1580156114a1573d6000803e3d6000fd5b505050506040513d601f19601f820116820180604052508101906114c591906122c5565b6037546040516370a0823160e01b81523060048201526001600160a01b03909116906370a0823190602401602060405180830381865afa15801561150d573d6000803e3d6000fd5b505050506040513d601f19601f8201168201806040525081019061153191906122c5565b60018030896040518963ffffffff1660e01b8152600401611559989796959493929190612512565b6060604051808303816000875af1158015611578573d6000803e3d6000fd5b505050506040513d601f19601f8201168201806040525081019061159c919061255b565b603b54909450600092506115b191504361234c565b6039546115be9190612589565b603a546115cb91906122ad565b6115dd670de0b6b3a764000085612589565b6115e791906123d7565b603c54909150600090603e9082906116079060019063ffffffff166125a8565b63ffffffff168152602081019190915260400160002054611628904361234c565b6116329083612589565b603c54603e9060009061164d9060019063ffffffff166125a8565b63ffffffff1663ffffffff1681526020019081526020016000206002015461167591906122ad565b604080516060810182524381526020808201868152828401858152603c805463ffffffff9081166000908152603e909552958420945185559151600185810191909155905160029094019390935580549495509193919290916116da918591166125cd565b825463ffffffff9182166101009390930a92830291909202199091161790555043603b556000603a5560385460405163534a7e1d60e11b8152600481018690526001600160a01b039091169063a694fc3a90602401600060405180830381600087803b15801561174957600080fd5b505af115801561175d573d6000803e3d6000fd5b50506001805550939d9c50505050505050505050505050565b60008060006002600154141561179e5760405162461bcd60e51b81526004016102c6906122de565b6002600155603f546001600160a01b031633146117cd5760405162461bcd60e51b81526004016102c690612315565b600080881180156117de5750600087115b156118925760365460375473a5e0829caced8ffdd4de3c43696c57f7d7a678ff9163e8e33700916001600160a01b0391821691168b8b60008030611824426102586122ad565b6040518963ffffffff1660e01b8152600401611847989796959493929190612512565b6060604051808303816000875af1158015611866573d6000803e3d6000fd5b505050506040513d601f19601f8201168201806040525081019061188a919061255b565b919550935090505b61189c86826122ad565b9150600082116118e65760405162461bcd60e51b81526020600482015260156024820152741393d7d3125455525112551657d41493d592511151605a1b60448201526064016102c6565b6118ef85611b7e565b6001600160a01b0385166000908152603d6020526040812080548492906119179084906122ad565b92505081905550816039600082825461193091906122ad565b909155505060385460405163534a7e1d60e11b8152600481018490526001600160a01b039091169063a694fc3a90602401600060405180830381600087803b15801561197b57600080fd5b505af115801561198f573d6000803e3d6000fd5b505050506119b685858a6119a3919061234c565b6036546001600160a01b03169190611ca3565b6119d7856119c4858a61234c565b6037546001600160a01b03169190611ca3565b50600180819055509450945094915050565b6001600160a01b0381166000908152603d60209081526040808320815160a08101835281548152600182015493810193909352600281015491830191909152600381015463ffffffff908116606084018190526004909201546080840152603c54161415611a5b576040015192915050565b60608082015163ffffffff166000908152603e6020908152604080832081519485018252805480865260018201549386019390935260020154908401526080840151611aa69161234c565b8351611ab29190612589565b8360200151611ac191906122ad565b90506000670de0b6b3a7640000836020015183611ade9190612589565b611ae891906123d7565b6040840151603c54919250600091670de0b6b3a76400009190603e908490611b189060019063ffffffff166125a8565b63ffffffff1663ffffffff16815260200190815260200160002060020154611b40919061234c565b8651611b4c9190612589565b611b5691906123d7565b905080828660400151611b6991906122ad565b611b7391906122ad565b979650505050505050565b6001600160a01b0381166000908152603d60205260409020603c54600382015463ffffffff90811691161415611be7576004810154611bbd904361234c565b8154611bc99190612589565b816001016000828254611bdc91906122ad565b90915550611c439050565b611bf0826119e9565b6002820155603c54603e90600090611c109060019063ffffffff166125a8565b63ffffffff168152602081019190915260400160002054611c31904361234c565b8154611c3d9190612589565b60018201555b603c5460038201805463ffffffff191663ffffffff9092169190911790554360048201819055603954603b549091611c7b919061234c565b611c859190612589565b603a6000828254611c9691906122ad565b909155505043603b555050565b604080516001600160a01b038416602482015260448082018490528251808303909101815260649091019091526020810180516001600160e01b031663a9059cbb60e01b179052610c30908490611d7d565b60008054610100900460ff1615611d3c578160ff166001148015611d185750303b155b611d345760405162461bcd60e51b81526004016102c6906125f5565b506000919050565b60005460ff808416911610611d635760405162461bcd60e51b81526004016102c6906125f5565b506000805460ff191660ff92909216919091179055600190565b6000611dd2826040518060400160405280602081526020017f5361666545524332303a206c6f772d6c6576656c2063616c6c206661696c6564815250856001600160a01b0316611e4f9092919063ffffffff16565b805190915015610c305780806020019051810190611df091906123a4565b610c305760405162461bcd60e51b815260206004820152602a60248201527f5361666545524332303a204552433230206f7065726174696f6e20646964206e6044820152691bdd081cdd58d8d9595960b21b60648201526084016102c6565b6060611e5e8484600085611e68565b90505b9392505050565b606082471015611ec95760405162461bcd60e51b815260206004820152602660248201527f416464726573733a20696e73756666696369656e742062616c616e636520666f6044820152651c8818d85b1b60d21b60648201526084016102c6565b6001600160a01b0385163b611f205760405162461bcd60e51b815260206004820152601d60248201527f416464726573733a2063616c6c20746f206e6f6e2d636f6e747261637400000060448201526064016102c6565b600080866001600160a01b03168587604051611f3c9190612673565b60006040518083038185875af1925050503d8060008114611f79576040519150601f19603f3d011682016040523d82523d6000602084013e611f7e565b606091505b5091509150611b7382828660608315611f98575081611e61565b825115611fa85782518084602001fd5b8160405162461bcd60e51b81526004016102c6919061268f565b6001600160a01b0381168114611fd757600080fd5b50565b600060208284031215611fec57600080fd5b8135611e6181611fc2565b8015158114611fd757600080fd5b6000806000806080858703121561201b57600080fd5b843561202681611fc2565b935060208501359250604085013561203d81611ff7565b9150606085013561204d81611fc2565b939692955090935050565b6000806040838503121561206b57600080fd5b823561207681611fc2565b9150602083013561208681611fc2565b809150509250929050565b60008083601f8401126120a357600080fd5b50813567ffffffffffffffff8111156120bb57600080fd5b6020830191508360208260051b85010111156120d657600080fd5b9250929050565b634e487b7160e01b600052604160045260246000fd5b6040516080810167ffffffffffffffff81118282101715612116576121166120dd565b60405290565b604051601f8201601f1916810167ffffffffffffffff81118282101715612145576121456120dd565b604052919050565b6000806000806000806000806000610100808b8d03121561216d57600080fd5b8a3567ffffffffffffffff8082111561218557600080fd5b6121918e838f01612091565b909c509a5060208d01359150808211156121aa57600080fd5b6121b68e838f01612091565b909a50985060408d01359150808211156121cf57600080fd5b6121db8e838f01612091565b909850965060608d01359150808211156121f457600080fd5b506122018d828e01612091565b909550935050609f8b018c1361221657600080fd5b61221e6120f3565b908b0190808d83111561223057600080fd5b60808d015b8381101561224d578035835260209283019201612235565b508093505050509295985092959850929598565b6000806000806080858703121561227757600080fd5b843593506020850135925060408501359150606085013561204d81611fc2565b634e487b7160e01b600052601160045260246000fd5b600082198211156122c0576122c0612297565b500190565b6000602082840312156122d757600080fd5b5051919050565b6020808252601f908201527f5265656e7472616e637947756172643a207265656e7472616e742063616c6c00604082015260600190565b60208082526017908201527f43414c4c45525f4e4f545f41535345545f524f55544552000000000000000000604082015260600190565b60008282101561235e5761235e612297565b500390565b6000806040838503121561237657600080fd5b505080516020909101519092909150565b60006020828403121561239957600080fd5b8151611e6181611fc2565b6000602082840312156123b657600080fd5b8151611e6181611ff7565b634e487b7160e01b600052603260045260246000fd5b6000826123f457634e487b7160e01b600052601260045260246000fd5b500490565b868152602080820187905260a0604083018190528201859052600090869060c08401835b8881101561244b57833561243081611fc2565b6001600160a01b03168252928201929082019060010161241d565b506001600160a01b0396909616606085015250505060800152949350505050565b6000602080838503121561247f57600080fd5b825167ffffffffffffffff8082111561249757600080fd5b818501915085601f8301126124ab57600080fd5b8151818111156124bd576124bd6120dd565b8060051b91506124ce84830161211c565b81815291830184019184810190888411156124e857600080fd5b938501935b83851015612506578451825293850193908501906124ed565b98975050505050505050565b6001600160a01b039889168152968816602088015260408701959095526060860193909352608085019190915260a084015290921660c082015260e08101919091526101000190565b60008060006060848603121561257057600080fd5b8351925060208401519150604084015190509250925092565b60008160001904831182151516156125a3576125a3612297565b500290565b600063ffffffff838116908316818110156125c5576125c5612297565b039392505050565b600063ffffffff8083168185168083038211156125ec576125ec612297565b01949350505050565b6020808252602e908201527f496e697469616c697a61626c653a20636f6e747261637420697320616c72656160408201526d191e481a5b9a5d1a585b1a5e995960921b606082015260800190565b60005b8381101561265e578181015183820152602001612646565b8381111561266d576000848401525b50505050565b60008251612685818460208701612643565b9190910192915050565b60208152600082518060208401526126ae816040850160208701612643565b601f01601f1916919091016040019291505056fea2646970667358221220c96cd679b27df1b4a73d4ca3a211dee9ac1a4c0e0a51c04079bed6b75d2089ee64736f6c634300080a0033",
  "immutableReferences": {},
  "source": "// SPDX-License-Identifier: MIT\r\npragma solidity 0.8.10;\r\n \r\nimport '../../interfaces/IUniswapV2Pair.sol';\r\nimport '../../interfaces/IUniswapV2Router.sol';\r\nimport '../../interfaces/IStakingDualRewards.sol';\r\nimport '../../interfaces/IWMATIC.sol';\r\nimport '@openzeppelin/contracts-upgradeable/security/ReentrancyGuardUpgradeable.sol';\r\nimport '@openzeppelin/contracts-upgradeable/token/ERC20/utils/SafeERC20Upgradeable.sol';\r\nimport '@openzeppelin/contracts-upgradeable/token/ERC20/IERC20Upgradeable.sol';\r\nimport '@openzeppelin/contracts-upgradeable/proxy/utils/Initializable.sol';\r\n\r\ncontract UnoFarmQuickswapDual is Initializable, ReentrancyGuardUpgradeable {\r\n    using SafeERC20Upgradeable for IERC20Upgradeable;\r\n    /**\r\n     * @dev DistributionInfo:\r\n     * {_block} - Distribution block number.\r\n     * {rewardPerTotalDepositAge} - Distribution reward divided by {totalDepositAge}. \r\n     * {cumulativeRewardAgePerTotalDepositAge} - Sum of {rewardPerTotalDepositAge}s multiplied by distribution interval.\r\n     */\r\n    struct DistributionInfo {\r\n        uint256 _block;\r\n        uint256 rewardPerTotalDepositAge;\r\n        uint256 cumulativeRewardAgePerTotalDepositAge;\r\n    }\r\n    /**\r\n     * @dev UserInfo:\r\n     * {stake} - Amount of LP tokens deposited by the user.\r\n     * {depositAge} - User deposits multiplied by blocks the deposit has been in. \r\n     * {reward} - Amount of LP tokens entitled to the user.\r\n     * {lastDistribution} - Distribution ID before the last user deposit.\r\n     * {lastUpdate} - Deposit update block.\r\n     */\r\n    struct UserInfo {\r\n        uint256 stake;\r\n        uint256 depositAge;\r\n        uint256 reward;\r\n        uint32 lastDistribution;\r\n        uint256 lastUpdate;\r\n    }\r\n\r\n    /**\r\n     * @dev Tokens Used:\r\n     * {rewardTokenA, rewardTokenB} - Tokens generated by staking.\r\n     * {lpPair} - Token that the strategy maximizes. The same token that users deposit in the {lpStakingPool}.\r\n     * {tokenA, tokenB} - Tokens that the strategy maximizes.\r\n     */\r\n    address public rewardTokenA;\r\n    address public rewardTokenB;\r\n    address public lpPair;\r\n    address public tokenA;\r\n    address public tokenB;\r\n\r\n    /**\r\n     * @dev Third Party Contracts:\r\n     * {quickswapRouter} - Contract that executes swaps.\r\n     * {lpStakingPool} - Contract that distibutes {rewardTokenA, rewardTokenB}.\r\n     */\r\n    IUniswapV2Router01 private constant quickswapRouter = IUniswapV2Router01(0xa5E0829CaCEd8fFDD4De3c43696c57F7D7A678ff); \r\n    IStakingDualRewards private lpStakingPool;\r\n\r\n    /**\r\n     * @dev Contract Variables:\r\n     * {totalDeposits} - Total deposits made by users.\r\n     * {totalDepositAge} - Deposits multiplied by blocks the deposit has been in. Flushed every reward distribution.\r\n     * {totalDepositLastUpdate} - Last {totalDepositAge} update block.\r\n\r\n     * {distributionID} - Current distribution ID.\r\n     * {userInfo} - Info on each user.\r\n     * {distributionInfo} - Info on each distribution.\r\n\r\n     * {fractionMultiplier} - Used to store decimal values.\r\n     */\r\n    uint256 private totalDeposits;\r\n    uint256 private totalDepositAge;\r\n    uint256 private totalDepositLastUpdate;\r\n\r\n    uint32 private distributionID;\r\n    mapping(address => UserInfo) private userInfo;\r\n    mapping(uint32 => DistributionInfo) private distributionInfo;\r\n\r\n    uint256 private constant fractionMultiplier = uint256(1 ether);\r\n\r\n    /**\r\n     * @dev Contract Variables:\r\n     * {assetRouter} - The contract from which calls to this farm are made.\r\n     */\r\n    address public assetRouter;\r\n    modifier onlyAssetRouter(){\r\n        require(msg.sender == assetRouter, 'CALLER_NOT_ASSET_ROUTER');\r\n        _;\r\n    }\r\n\r\n    // ============ Methods ============\r\n\r\n    function initialize(address _lpStakingPool, address _assetRouter) external initializer {\r\n        assetRouter = _assetRouter;\r\n\r\n        lpStakingPool = IStakingDualRewards(_lpStakingPool);\r\n        lpPair = address(lpStakingPool.stakingToken());\r\n\r\n        rewardTokenA = lpStakingPool.rewardsTokenA();\r\n        rewardTokenB = lpStakingPool.rewardsTokenB();\r\n\r\n        tokenA = IUniswapV2Pair(lpPair).token0();\r\n        tokenB = IUniswapV2Pair(lpPair).token1();\r\n\r\n        distributionInfo[0] = DistributionInfo(block.number, 0, 0);\r\n        distributionID = 1;\r\n        totalDepositLastUpdate = block.number;\r\n\r\n        uint256 MAX_UINT = uint256(2**256 - 1);\r\n        IERC20(lpPair).approve(_lpStakingPool, MAX_UINT);\r\n        IERC20(lpPair).approve(address(quickswapRouter), MAX_UINT);\r\n        IERC20(rewardTokenA).approve(address(quickswapRouter), MAX_UINT);\r\n        IERC20(rewardTokenB).approve(address(quickswapRouter), MAX_UINT);\r\n        IERC20(tokenA).approve(address(quickswapRouter), MAX_UINT);\r\n        IERC20(tokenB).approve(address(quickswapRouter), MAX_UINT);\r\n    }\r\n\r\n    /**\r\n     * @dev Function that makes the deposits.\r\n     * Deposits provided tokens in the Liquidity Pool, then stakes generated LP tokens in the {lpStakingPool}.\r\n     */\r\n    function deposit(uint256 amountA, uint256 amountB, uint256 amountLP, address recipient) external nonReentrant onlyAssetRouter returns(uint256 sentA, uint256 sentB, uint256 liquidity){\r\n        uint256 addedLiquidity;\r\n        if(amountA > 0 && amountB > 0){\r\n            (sentA, sentB, addedLiquidity) = quickswapRouter.addLiquidity(tokenA, tokenB, amountA, amountB, 0, 0, address(this), block.timestamp + 600);\r\n        }\r\n        liquidity = addedLiquidity + amountLP;\r\n        require(liquidity > 0, 'NO_LIQUIDITY_PROVIDED');\r\n\r\n        _updateDeposit(recipient);\r\n        userInfo[recipient].stake += liquidity;\r\n        totalDeposits += liquidity;\r\n            \r\n        lpStakingPool.stake(liquidity);\r\n        IERC20Upgradeable(tokenA).safeTransfer(recipient, amountA - sentA);\r\n        IERC20Upgradeable(tokenB).safeTransfer(recipient, amountB - sentB);\r\n    }\r\n\r\n    /**\r\n     * @dev Withdraws funds from {origin} and sends them to the {recipient}.\r\n     */\r\n    function withdraw(address origin, uint256 amount, bool withdrawLP, address recipient) external nonReentrant onlyAssetRouter returns(uint256 amountA, uint256 amountB){\r\n        require(amount > 0, 'INSUFFICIENT_AMOUNT');\r\n\r\n        _updateDeposit(origin);\r\n        UserInfo storage user = userInfo[origin];\r\n        // Subtract amount from user.reward first, then subtract remainder from user.stake.\r\n        if(amount > user.reward){\r\n            user.stake = user.stake + user.reward - amount;\r\n            totalDeposits = totalDeposits + user.reward - amount;\r\n            user.reward = 0;\r\n        } else {\r\n            user.reward -= amount;\r\n        }\r\n\r\n        lpStakingPool.withdraw(amount);\r\n        if(withdrawLP){\r\n            IERC20Upgradeable(lpPair).safeTransfer(recipient, amount);\r\n            return (0, 0);\r\n        }\r\n        (amountA, amountB) = quickswapRouter.removeLiquidity(tokenA, tokenB, amount, 0, 0, recipient, block.timestamp + 600);\r\n    }\r\n\r\n    /**\r\n     * @dev Core function of the strat, in charge of updating, collecting and re-investing rewards.\r\n     * 1. It claims rewards from the {lpStakingPool}.\r\n     * 2. It swaps {rewardToken} token for {tokenA} & {tokenB}.\r\n     * 3. It deposits new LP tokens back to the {lpStakingPool}.\r\n     */\r\n    function distribute(address[] calldata rewardTokenAToTokenARoute, address[] calldata rewardTokenAToTokenBRoute, address[] calldata rewardTokenBToTokenARoute, address[] calldata rewardTokenBToTokenBRoute, uint256[4] memory amountsOutMin) external onlyAssetRouter nonReentrant returns(uint256 reward){\r\n        require(totalDeposits > 0, 'NO_LIQUIDITY');\r\n        require(rewardTokenAToTokenARoute[0] == rewardTokenA && rewardTokenAToTokenARoute[rewardTokenAToTokenARoute.length - 1] == tokenA, 'BAD_REWARD_A_TOKEN_A_ROUTE');\r\n        require(rewardTokenAToTokenBRoute[0] == rewardTokenA && rewardTokenAToTokenBRoute[rewardTokenAToTokenBRoute.length - 1] == tokenB, 'BAD_REWARD_A_TOKEN_B_ROUTE');\r\n        require(rewardTokenBToTokenARoute[0] == rewardTokenB && rewardTokenBToTokenARoute[rewardTokenBToTokenARoute.length - 1] == tokenA, 'BAD_REWARD_B_TOKEN_A_ROUTE');\r\n        require(rewardTokenBToTokenBRoute[0] == rewardTokenB && rewardTokenBToTokenBRoute[rewardTokenBToTokenBRoute.length - 1] == tokenB, 'BAD_REWARD_B_TOKEN_B_ROUTE');\r\n\r\n        lpStakingPool.getReward();\r\n        uint256 deadline = block.timestamp + 600;\r\n        { // scope to avoid stack too deep errors\r\n        uint256 rewardTokenAHalf = IERC20(rewardTokenA).balanceOf(address(this)) / 2;\r\n        if (tokenA != rewardTokenA) {\r\n            quickswapRouter.swapExactTokensForTokens(rewardTokenAHalf, amountsOutMin[0], rewardTokenAToTokenARoute, address(this), deadline);\r\n        }\r\n\r\n        if (tokenB != rewardTokenA) {\r\n            quickswapRouter.swapExactTokensForTokens(rewardTokenAHalf, amountsOutMin[1], rewardTokenAToTokenBRoute, address(this), deadline);\r\n        }\r\n        }\r\n\r\n        { // scope to avoid stack too deep errors\r\n        uint256 rewardTokenBHalf = IERC20(rewardTokenB).balanceOf(address(this)) / 2;\r\n        if (tokenA != rewardTokenB) {\r\n            quickswapRouter.swapExactTokensForTokens(rewardTokenBHalf, amountsOutMin[2], rewardTokenBToTokenARoute, address(this), deadline);\r\n        }\r\n\r\n        if (tokenB != rewardTokenB) {\r\n            quickswapRouter.swapExactTokensForTokens(rewardTokenBHalf, amountsOutMin[3], rewardTokenBToTokenBRoute, address(this), deadline);\r\n        }\r\n        }\r\n        \r\n        (,,reward) = quickswapRouter.addLiquidity(tokenA, tokenB, IERC20(tokenA).balanceOf(address(this)), IERC20(tokenB).balanceOf(address(this)), 1, 1, address(this), deadline);\r\n\r\n        uint256 rewardPerTotalDepositAge = reward * fractionMultiplier / (totalDepositAge + totalDeposits * (block.number - totalDepositLastUpdate));\r\n        uint256 cumulativeRewardAgePerTotalDepositAge = distributionInfo[distributionID - 1].cumulativeRewardAgePerTotalDepositAge + rewardPerTotalDepositAge * (block.number - distributionInfo[distributionID - 1]._block);\r\n\r\n        distributionInfo[distributionID] = DistributionInfo(\r\n            block.number,\r\n            rewardPerTotalDepositAge,\r\n            cumulativeRewardAgePerTotalDepositAge\r\n        );\r\n\r\n        distributionID += 1;\r\n        totalDepositLastUpdate = block.number;\r\n        totalDepositAge = 0;\r\n\r\n        lpStakingPool.stake(reward);\r\n    }\r\n\r\n    /**\r\n     * @dev Returns total funds staked by the {_address}.\r\n     */\r\n    function userBalance(address _address) external view returns (uint256) {\r\n        return userInfo[_address].stake + userReward(_address);\r\n    }\r\n\r\n    /**\r\n     * @dev Returns total funds locked in the farm.\r\n     */\r\n    function getTotalDeposits() external view returns (uint256 _totalDeposits) {\r\n        if(totalDeposits > 0){\r\n            _totalDeposits = lpStakingPool.balanceOf(address(this));\r\n        }\r\n    }\r\n\r\n    function _updateDeposit(address _address) internal {\r\n        UserInfo storage user = userInfo[_address];\r\n        // Accumulate deposit age within the current distribution period.\r\n        if (user.lastDistribution == distributionID) {\r\n            // Add deposit age from previous deposit age update to now.\r\n            user.depositAge += user.stake * (block.number - user.lastUpdate);\r\n        } else {\r\n            // A reward has been distributed, update user.reward.\r\n            user.reward = userReward(_address);\r\n            // Count fresh deposit age from previous reward distribution to now.\r\n            user.depositAge = user.stake * (block.number - distributionInfo[distributionID - 1]._block);\r\n        }\r\n\r\n        user.lastDistribution = distributionID;\r\n        user.lastUpdate = block.number;\r\n\r\n        // Same with total deposit age.\r\n        totalDepositAge += (block.number - totalDepositLastUpdate) * totalDeposits;\r\n        totalDepositLastUpdate = block.number;\r\n    }\r\n\r\n    function userReward(address _address) internal view returns (uint256) {\r\n        UserInfo memory user = userInfo[_address];\r\n        if (user.lastDistribution == distributionID) {\r\n            // Return user.reward if the distribution after the last user deposit did not happen yet.\r\n            return user.reward;\r\n        }\r\n        DistributionInfo memory lastUserDistributionInfo = distributionInfo[user.lastDistribution];\r\n        uint256 userDepositAge = user.depositAge + user.stake * (lastUserDistributionInfo._block - user.lastUpdate);\r\n        // Calculate reward between the last user deposit and the distribution after that.\r\n        uint256 rewardBeforeDistibution = userDepositAge * lastUserDistributionInfo.rewardPerTotalDepositAge / fractionMultiplier;\r\n        // Calculate reward from the distributions that have happened after the last user deposit.\r\n        uint256 rewardAfterDistribution = user.stake * (distributionInfo[distributionID - 1].cumulativeRewardAgePerTotalDepositAge - lastUserDistributionInfo.cumulativeRewardAgePerTotalDepositAge) / fractionMultiplier;\r\n        return user.reward + rewardBeforeDistibution + rewardAfterDistribution;\r\n    }\r\n}\r\n",
  "sourcePath": "C:\\Users\\jugli\\Desktop\\uno\\uno-contracts-branch\\contracts\\apps\\quickswapDual\\UnoFarmQuickswapDual.sol",
  "compiler": {
    "name": "solc",
    "version": "0.8.10+commit.fc410830.Emscripten.clang"
  },
  "schemaVersion": "3.4.7",
  "updatedAt": "2022-05-31T16:38:41.141Z",
  "networkType": "ethereum",
  "devdoc": {
    "kind": "dev",
    "methods": {
      "deposit(uint256,uint256,uint256,address)": {
        "details": "Function that makes the deposits. Deposits provided tokens in the Liquidity Pool, then stakes generated LP tokens in the {lpStakingPool}."
      },
      "distribute(address[],address[],address[],address[],uint256[4])": {
        "details": "Core function of the strat, in charge of updating, collecting and re-investing rewards. 1. It claims rewards from the {lpStakingPool}. 2. It swaps {rewardToken} token for {tokenA} & {tokenB}. 3. It deposits new LP tokens back to the {lpStakingPool}."
      },
      "getTotalDeposits()": {
        "details": "Returns total funds locked in the farm."
      },
      "userBalance(address)": {
        "details": "Returns total funds staked by the {_address}."
      },
      "withdraw(address,uint256,bool,address)": {
        "details": "Withdraws funds from {origin} and sends them to the {recipient}."
      }
    },
    "stateVariables": {
      "assetRouter": {
        "details": "Contract Variables: {assetRouter} - The contract from which calls to this farm are made."
      },
      "quickswapRouter": {
        "details": "Third Party Contracts: {quickswapRouter} - Contract that executes swaps. {lpStakingPool} - Contract that distibutes {rewardTokenA, rewardTokenB}."
      },
      "rewardTokenA": {
        "details": "Tokens Used: {rewardTokenA, rewardTokenB} - Tokens generated by staking. {lpPair} - Token that the strategy maximizes. The same token that users deposit in the {lpStakingPool}. {tokenA, tokenB} - Tokens that the strategy maximizes."
      },
      "totalDeposits": {
        "details": "Contract Variables: {totalDeposits} - Total deposits made by users. {totalDepositAge} - Deposits multiplied by blocks the deposit has been in. Flushed every reward distribution. {totalDepositLastUpdate} - Last {totalDepositAge} update block. {distributionID} - Current distribution ID. {userInfo} - Info on each user. {distributionInfo} - Info on each distribution. {fractionMultiplier} - Used to store decimal values."
      }
    },
    "version": 1
  },
  "userdoc": {
    "kind": "user",
    "methods": {},
    "version": 1
  }
}