{
  "contractName": "UnoFarmApeswap",
  "abi": [
    {
      "anonymous": false,
      "inputs": [
        {
          "indexed": false,
          "internalType": "uint8",
          "name": "version",
          "type": "uint8"
        }
      ],
      "name": "Initialized",
      "type": "event"
    },
    {
      "inputs": [],
      "name": "assetRouter",
      "outputs": [
        {
          "internalType": "address",
          "name": "",
          "type": "address"
        }
      ],
      "stateMutability": "view",
      "type": "function",
      "constant": true
    },
    {
      "inputs": [],
      "name": "lpPair",
      "outputs": [
        {
          "internalType": "address",
          "name": "",
          "type": "address"
        }
      ],
      "stateMutability": "view",
      "type": "function",
      "constant": true
    },
    {
      "inputs": [],
      "name": "pid",
      "outputs": [
        {
          "internalType": "uint256",
          "name": "",
          "type": "uint256"
        }
      ],
      "stateMutability": "view",
      "type": "function",
      "constant": true
    },
    {
      "inputs": [],
      "name": "rewardToken",
      "outputs": [
        {
          "internalType": "address",
          "name": "",
          "type": "address"
        }
      ],
      "stateMutability": "view",
      "type": "function",
      "constant": true
    },
    {
      "inputs": [],
      "name": "rewarderToken",
      "outputs": [
        {
          "internalType": "address",
          "name": "",
          "type": "address"
        }
      ],
      "stateMutability": "view",
      "type": "function",
      "constant": true
    },
    {
      "inputs": [],
      "name": "tokenA",
      "outputs": [
        {
          "internalType": "address",
          "name": "",
          "type": "address"
        }
      ],
      "stateMutability": "view",
      "type": "function",
      "constant": true
    },
    {
      "inputs": [],
      "name": "tokenB",
      "outputs": [
        {
          "internalType": "address",
          "name": "",
          "type": "address"
        }
      ],
      "stateMutability": "view",
      "type": "function",
      "constant": true
    },
    {
      "inputs": [
        {
          "internalType": "address",
          "name": "_lpPair",
          "type": "address"
        },
        {
          "internalType": "address",
          "name": "_assetRouter",
          "type": "address"
        }
      ],
      "name": "initialize",
      "outputs": [],
      "stateMutability": "nonpayable",
      "type": "function"
    },
    {
      "inputs": [
        {
          "internalType": "uint256",
          "name": "amountA",
          "type": "uint256"
        },
        {
          "internalType": "uint256",
          "name": "amountB",
          "type": "uint256"
        },
        {
          "internalType": "uint256",
          "name": "amountAMin",
          "type": "uint256"
        },
        {
          "internalType": "uint256",
          "name": "amountBMin",
          "type": "uint256"
        },
        {
          "internalType": "uint256",
          "name": "amountLP",
          "type": "uint256"
        },
        {
          "internalType": "address",
          "name": "origin",
          "type": "address"
        },
        {
          "internalType": "address",
          "name": "recipient",
          "type": "address"
        }
      ],
      "name": "deposit",
      "outputs": [
        {
          "internalType": "uint256",
          "name": "sentA",
          "type": "uint256"
        },
        {
          "internalType": "uint256",
          "name": "sentB",
          "type": "uint256"
        },
        {
          "internalType": "uint256",
          "name": "liquidity",
          "type": "uint256"
        }
      ],
      "stateMutability": "nonpayable",
      "type": "function"
    },
    {
      "inputs": [
        {
          "internalType": "uint256",
          "name": "amount",
          "type": "uint256"
        },
        {
          "internalType": "uint256",
          "name": "amountAMin",
          "type": "uint256"
        },
        {
          "internalType": "uint256",
          "name": "amountBMin",
          "type": "uint256"
        },
        {
          "internalType": "bool",
          "name": "withdrawLP",
          "type": "bool"
        },
        {
          "internalType": "address",
          "name": "origin",
          "type": "address"
        },
        {
          "internalType": "address",
          "name": "recipient",
          "type": "address"
        }
      ],
      "name": "withdraw",
      "outputs": [
        {
          "internalType": "uint256",
          "name": "amountA",
          "type": "uint256"
        },
        {
          "internalType": "uint256",
          "name": "amountB",
          "type": "uint256"
        }
      ],
      "stateMutability": "nonpayable",
      "type": "function"
    },
    {
      "inputs": [
        {
          "components": [
            {
              "internalType": "address[]",
              "name": "route",
              "type": "address[]"
            },
            {
              "internalType": "uint256",
              "name": "amountOutMin",
              "type": "uint256"
            }
          ],
          "internalType": "struct UnoFarmApeswap.SwapInfo[4]",
          "name": "swapInfos",
          "type": "tuple[4]"
        },
        {
          "components": [
            {
              "internalType": "address[]",
              "name": "route",
              "type": "address[]"
            },
            {
              "internalType": "uint256",
              "name": "amountOutMin",
              "type": "uint256"
            }
          ],
          "internalType": "struct UnoFarmApeswap.SwapInfo[2]",
          "name": "feeSwapInfos",
          "type": "tuple[2]"
        },
        {
          "components": [
            {
              "internalType": "address",
              "name": "feeTo",
              "type": "address"
            },
            {
              "internalType": "uint256",
              "name": "fee",
              "type": "uint256"
            }
          ],
          "internalType": "struct UnoFarmApeswap.FeeInfo",
          "name": "feeInfo",
          "type": "tuple"
        }
      ],
      "name": "distribute",
      "outputs": [
        {
          "internalType": "uint256",
          "name": "reward",
          "type": "uint256"
        }
      ],
      "stateMutability": "nonpayable",
      "type": "function"
    },
    {
      "inputs": [
        {
          "internalType": "address",
          "name": "_address",
          "type": "address"
        }
      ],
      "name": "userBalance",
      "outputs": [
        {
          "internalType": "uint256",
          "name": "",
          "type": "uint256"
        }
      ],
      "stateMutability": "view",
      "type": "function",
      "constant": true
    },
    {
      "inputs": [],
      "name": "getTotalDeposits",
      "outputs": [
        {
          "internalType": "uint256",
          "name": "_totalDeposits",
          "type": "uint256"
        }
      ],
      "stateMutability": "view",
      "type": "function",
      "constant": true
    }
  ],
  "bytecode": "0x608060405234801561001057600080fd5b50613055806100206000396000f3fe608060405234801561001057600080fd5b50600436106100cf5760003560e01c8063452ed4f11161008c578063bc0aac1011610066578063bc0aac10146101bc578063d5634683146101cf578063f1068454146101f7578063f7c618c11461020057600080fd5b8063452ed4f114610181578063485cc955146101945780635f64b55b146101a957600080fd5b80630103c92b146100d457806308fef24a146100fa5780630fc63d101461010d5780631666768a14610138578063168a4822146101665780632a8dc1311461016e575b600080fd5b6100e76100e23660046127c8565b610213565b6040519081526020015b60405180910390f35b6100e76101083660046127e5565b610247565b603654610120906001600160a01b031681565b6040516001600160a01b0390911681526020016100f1565b61014b610146366004612873565b610f75565b604080519384526020840192909252908201526060016100f1565b6100e7611211565b603454610120906001600160a01b031681565b603554610120906001600160a01b031681565b6101a76101a23660046128dc565b6112a0565b005b603754610120906001600160a01b031681565b603f54610120906001600160a01b031681565b6101e26101dd366004612923565b611a8f565b604080519283526020830191909152016100f1565b6100e760385481565b603354610120906001600160a01b031681565b600061021e82611d67565b6001600160a01b0383166000908152603d602052604090205461024191906129a0565b92915050565b603f546000906001600160a01b0316331461027d5760405162461bcd60e51b8152600401610274906129b8565b60405180910390fd5b600260015414156102a05760405162461bcd60e51b8152600401610274906129ef565b60026001556039546102e35760405162461bcd60e51b815260206004820152600c60248201526b4e4f5f4c495155494449545960a01b6044820152606401610274565b603c544390603e906000906103009060019063ffffffff16612a26565b63ffffffff16815260208101919091526040016000205414156103655760405162461bcd60e51b815260206004820152601b60248201527f43414e545f43414c4c5f4f4e5f5448455f53414d455f424c4f434b00000000006044820152606401610274565b603854604051630c7e663b60e11b815260048101919091523060248201527354aff400858dcac39797a81894d9920f16972d1d906318fccc7690604401600060405180830381600087803b1580156103bc57600080fd5b505af11580156103d0573d6000803e3d6000fd5b5050505061040d836000600281106103ea576103ea612a4b565b6020028101906103fa9190612a61565b60335484906001600160a01b0316611efc565b61043061041d6020850185612a61565b60345484906001600160a01b0316611efc565b6033546040516370a0823160e01b81523060048201526000916002916001600160a01b03909116906370a0823190602401602060405180830381865afa15801561047e573d6000803e3d6000fd5b505050506040513d601f19601f820116820180604052508101906104a29190612a81565b6104ac9190612a9a565b6034549091506000906001600160a01b03161561053d576034546040516370a0823160e01b81523060048201526002916001600160a01b0316906370a0823190602401602060405180830381865afa15801561050c573d6000803e3d6000fd5b505050506040513d601f19601f820116820180604052508101906105309190612a81565b61053a9190612a9a565b90505b8115610885576033546036546001600160a01b039081169116146106e1573660006105688880612a61565b6105729080612abc565b60335491935091506001600160a01b0316828260008161059457610594612a4b565b90506020020160208101906105a991906127c8565b6001600160a01b031614801561060257506036546001600160a01b031682826105d3600182612b0d565b8181106105e2576105e2612a4b565b90506020020160208101906105f791906127c8565b6001600160a01b0316145b61064e5760405162461bcd60e51b815260206004820152601860248201527f4241445f5245574152445f544f4b454e5f415f524f55544500000000000000006044820152606401610274565b6000805160206130008339815191526338ed17398561066d8b80612a61565b60200135858530426040518763ffffffff1660e01b815260040161069696959493929190612b24565b6000604051808303816000875af11580156106b5573d6000803e3d6000fd5b505050506040513d6000823e601f3d908101601f191682016040526106dd9190810190612c6d565b5050505b6033546037546001600160a01b03908116911614610885573660006107096020890189612a61565b6107139080612abc565b60335491935091506001600160a01b0316828260008161073557610735612a4b565b905060200201602081019061074a91906127c8565b6001600160a01b03161480156107a357506037546001600160a01b03168282610774600182612b0d565b81811061078357610783612a4b565b905060200201602081019061079891906127c8565b6001600160a01b0316145b6107ef5760405162461bcd60e51b815260206004820152601860248201527f4241445f5245574152445f544f4b454e5f425f524f55544500000000000000006044820152606401610274565b6000805160206130008339815191526338ed17398561081160208c018c612a61565b60200135858530426040518763ffffffff1660e01b815260040161083a96959493929190612b24565b6000604051808303816000875af1158015610859573d6000803e3d6000fd5b505050506040513d6000823e601f3d908101601f191682016040526108819190810190612c6d565b5050505b8015610bd3576034546036546001600160a01b03908116911614610a2f573660006108b36040890189612a61565b6108bd9080612abc565b60345491935091506001600160a01b031682826000816108df576108df612a4b565b90506020020160208101906108f491906127c8565b6001600160a01b031614801561094d57506036546001600160a01b0316828261091e600182612b0d565b81811061092d5761092d612a4b565b905060200201602081019061094291906127c8565b6001600160a01b0316145b6109995760405162461bcd60e51b815260206004820152601a60248201527f4241445f52455741524445525f544f4b454e5f415f524f5554450000000000006044820152606401610274565b6000805160206130008339815191526338ed1739846109bb60408c018c612a61565b60200135858530426040518763ffffffff1660e01b81526004016109e496959493929190612b24565b6000604051808303816000875af1158015610a03573d6000803e3d6000fd5b505050506040513d6000823e601f3d908101601f19168201604052610a2b9190810190612c6d565b5050505b6034546037546001600160a01b03908116911614610bd357366000610a576060890189612a61565b610a619080612abc565b60345491935091506001600160a01b03168282600081610a8357610a83612a4b565b9050602002016020810190610a9891906127c8565b6001600160a01b0316148015610af157506037546001600160a01b03168282610ac2600182612b0d565b818110610ad157610ad1612a4b565b9050602002016020810190610ae691906127c8565b6001600160a01b0316145b610b3d5760405162461bcd60e51b815260206004820152601a60248201527f4241445f52455741524445525f544f4b454e5f425f524f5554450000000000006044820152606401610274565b6000805160206130008339815191526338ed173984610b5f60608c018c612a61565b60200135858530426040518763ffffffff1660e01b8152600401610b8896959493929190612b24565b6000604051808303816000875af1158015610ba7573d6000803e3d6000fd5b505050506040513d6000823e601f3d908101601f19168201604052610bcf9190810190612c6d565b5050505b50506036546037546040516370a0823160e01b81523060048201526000805160206130008339815191529263e8e33700926001600160a01b039182169291169082906370a0823190602401602060405180830381865afa158015610c3b573d6000803e3d6000fd5b505050506040513d601f19601f82011682018060405250810190610c5f9190612a81565b6037546040516370a0823160e01b81523060048201526001600160a01b03909116906370a0823190602401602060405180830381865afa158015610ca7573d6000803e3d6000fd5b505050506040513d601f19601f82011682018060405250810190610ccb9190612a81565b610cd860408b018b612a61565b60200135610ce68b80612a61565b60200135610cf491906129a0565b610d0160608c018c612a61565b60209081013590610d14908d018d612a61565b60200135610d2291906129a0565b30426040518963ffffffff1660e01b8152600401610d47989796959493929190612caa565b6060604051808303816000875af1158015610d66573d6000803e3d6000fd5b505050506040513d601f19601f82011682018060405250810190610d8a9190612cf3565b603b5490935060009250610d9f915043612b0d565b603954610dac9190612d21565b603a54610db991906129a0565b610dcb670de0b6b3a764000084612d21565b610dd59190612a9a565b603c54909150600090603e908290610df59060019063ffffffff16612a26565b63ffffffff168152602081019190915260400160002054610e169043612b0d565b610e209083612d21565b603c54603e90600090610e3b9060019063ffffffff16612a26565b63ffffffff1663ffffffff16815260200190815260200160002060020154610e6391906129a0565b604080516060810182524381526020808201868152828401858152603c805463ffffffff9081166000908152603e90955295842094518555915160018581019190915590516002909401939093558054949550919391929091610ec891859116612d40565b825463ffffffff9182166101009390930a92830291909202199091161790555043603b556000603a55603854604051638dbdbe6d60e01b81526004810191909152602481018490523060448201527354aff400858dcac39797a81894d9920f16972d1d90638dbdbe6d90606401600060405180830381600087803b158015610f4f57600080fd5b505af1158015610f63573d6000803e3d6000fd5b50506001805550929695505050505050565b600080600060026001541415610f9d5760405162461bcd60e51b8152600401610274906129ef565b6002600155603f546001600160a01b03163314610fcc5760405162461bcd60e51b8152600401610274906129b8565b6000808b118015610fdd575060008a115b1561109f576000805160206130008339815191526001600160a01b031663e8e33700603660009054906101000a90046001600160a01b0316603760009054906101000a90046001600160a01b03168e8e8e8e30426040518963ffffffff1660e01b8152600401611054989796959493929190612caa565b6060604051808303816000875af1158015611073573d6000803e3d6000fd5b505050506040513d601f19601f820116820180604052508101906110979190612cf3565b919550935090505b6110a987826129a0565b9150600082116110f35760405162461bcd60e51b81526020600482015260156024820152741393d7d3125455525112551657d41493d592511151605a1b6044820152606401610274565b6110fc8561219b565b6001600160a01b0385166000908152603d6020526040812080548492906111249084906129a0565b92505081905550816039600082825461113d91906129a0565b9091555050603854604051638dbdbe6d60e01b81526004810191909152602481018390523060448201527354aff400858dcac39797a81894d9920f16972d1d90638dbdbe6d90606401600060405180830381600087803b1580156111a057600080fd5b505af11580156111b4573d6000803e3d6000fd5b505050506111db86858d6111c89190612b0d565b6036546001600160a01b031691906122c0565b6111fc866111e9858d612b0d565b6037546001600160a01b031691906122c0565b50600180819055509750975097945050505050565b6039546000901561129d576038546040516393f1a40b60e01b815260048101919091523060248201527354aff400858dcac39797a81894d9920f16972d1d906393f1a40b906044016040805180830381865afa158015611275573d6000803e3d6000fd5b505050506040513d601f19601f820116820180604052508101906112999190612d68565b5190505b90565b60006112ac6001612312565b905080156112c4576000805461ff0019166101001790555b6001600160a01b0383166113085760405162461bcd60e51b815260206004820152600b60248201526a10905117d31417d413d3d360aa1b6044820152606401610274565b6001600160a01b0382166113515760405162461bcd60e51b815260206004820152601060248201526f2120a22fa0a9a9a2aa2fa927aaaa22a960811b6044820152606401610274565b61135961239a565b603f80546001600160a01b0319166001600160a01b03841617905561137d836123cb565b603855603580546001600160a01b0319166001600160a01b03851617905560408051636459ae3d60e11b815290517354aff400858dcac39797a81894d9920f16972d1d9163c8b35c7a9160048083019260209291908290030181865afa1580156113eb573d6000803e3d6000fd5b505050506040513d601f19601f8201168201806040525081019061140f9190612db7565b603380546001600160a01b0319166001600160a01b039290921691909117905560385460405163c346253d60e01b815260048101919091526000907354aff400858dcac39797a81894d9920f16972d1d9063c346253d90602401602060405180830381865afa158015611486573d6000803e3d6000fd5b505050506040513d601f19601f820116820180604052508101906114aa9190612db7565b90506001600160a01b038116156115f45760385460405163d63b3c4960e01b8152600481019190915260006024820181905260448201819052906001600160a01b0383169063d63b3c4990606401600060405180830381865afa158015611515573d6000803e3d6000fd5b505050506040513d6000823e601f3d908101601f1916820160405261153d9190810190612dd4565b5090508060008151811061155357611553612a4b565b6020908102919091010151603480546001600160a01b0319166001600160a01b03909216918217905560405163095ea7b360e01b81526000805160206130008339815191526004820152600019602482015263095ea7b3906044016020604051808303816000875af11580156115cd573d6000803e3d6000fd5b505050506040513d601f19601f820116820180604052508101906115f19190612e99565b50505b603560009054906101000a90046001600160a01b03166001600160a01b0316630dfe16816040518163ffffffff1660e01b8152600401602060405180830381865afa158015611647573d6000803e3d6000fd5b505050506040513d601f19601f8201168201806040525081019061166b9190612db7565b603680546001600160a01b0319166001600160a01b039283161790556035546040805163d21220a760e01b81529051919092169163d21220a79160048083019260209291908290030181865afa1580156116c9573d6000803e3d6000fd5b505050506040513d601f19601f820116820180604052508101906116ed9190612db7565b603780546001600160a01b0319166001600160a01b03928316179055604080516060810182524380825260006020808401828152848601838152928052603e90915292517f5f97c64b3c4bdfff50b5c8f505e633128432c6b07fc6c8abc77dce786c7317d45591517f5f97c64b3c4bdfff50b5c8f505e633128432c6b07fc6c8abc77dce786c7317d55590517f5f97c64b3c4bdfff50b5c8f505e633128432c6b07fc6c8abc77dce786c7317d655603c805463ffffffff19166001179055603b55603554905163095ea7b360e01b81527354aff400858dcac39797a81894d9920f16972d1d6004820152600019602482015291169063095ea7b3906044016020604051808303816000875af115801561180a573d6000803e3d6000fd5b505050506040513d601f19601f8201168201806040525081019061182e9190612e99565b5060355460405163095ea7b360e01b8152600080516020613000833981519152600482015260001960248201526001600160a01b039091169063095ea7b3906044016020604051808303816000875af115801561188f573d6000803e3d6000fd5b505050506040513d601f19601f820116820180604052508101906118b39190612e99565b5060335460405163095ea7b360e01b8152600080516020613000833981519152600482015260001960248201526001600160a01b039091169063095ea7b3906044016020604051808303816000875af1158015611914573d6000803e3d6000fd5b505050506040513d601f19601f820116820180604052508101906119389190612e99565b5060365460405163095ea7b360e01b8152600080516020613000833981519152600482015260001960248201526001600160a01b039091169063095ea7b3906044016020604051808303816000875af1158015611999573d6000803e3d6000fd5b505050506040513d601f19601f820116820180604052508101906119bd9190612e99565b5060375460405163095ea7b360e01b8152600080516020613000833981519152600482015260001960248201526001600160a01b039091169063095ea7b3906044016020604051808303816000875af1158015611a1e573d6000803e3d6000fd5b505050506040513d601f19601f82011682018060405250810190611a429190612e99565b50508015611a8a576000805461ff0019169055604051600181527f7f26b83ff96e1f2b6a682f133852f6798a09c465da95921460cefb38474024989060200160405180910390a15b505050565b60008060026001541415611ab55760405162461bcd60e51b8152600401610274906129ef565b6002600155603f546001600160a01b03163314611ae45760405162461bcd60e51b8152600401610274906129b8565b60008811611b2a5760405162461bcd60e51b8152602060048201526013602482015272125394d551919250d251539517d05353d55395606a1b6044820152606401610274565b611b338461219b565b6001600160a01b0384166000908152603d602052604090206002810154891115611bec5760028101548154600091611b6a916129a0565b9050808a1115611bb35760405162461bcd60e51b8152602060048201526014602482015273494e53554646494349454e545f42414c414e434560601b6044820152606401610274565b611bbd8a82612b0d565b825560028201546039548b91611bd2916129a0565b611bdc9190612b0d565b6039555060006002820155611c06565b88816002016000828254611c009190612b0d565b90915550505b603854604051630ad58d2f60e01b81526004810191909152602481018a90523060448201527354aff400858dcac39797a81894d9920f16972d1d90630ad58d2f90606401600060405180830381600087803b158015611c6457600080fd5b505af1158015611c78573d6000803e3d6000fd5b505050508515611ca657603554611c99906001600160a01b0316858b6122c0565b6000809250925050611d56565b603654603754604051635d5155ef60e11b81526001600160a01b0392831660048201529082166024820152604481018b9052606481018a90526084810189905290851660a48201524260c48201526000805160206130008339815191529063baa2abde9060e40160408051808303816000875af1158015611d2b573d6000803e3d6000fd5b505050506040513d601f19601f82011682018060405250810190611d4f9190612eb6565b9093509150505b600180559097909650945050505050565b6001600160a01b0381166000908152603d60209081526040808320815160a08101835281548152600182015493810193909352600281015491830191909152600381015463ffffffff908116606084018190526004909201546080840152603c54161415611dd9576040015192915050565b60608082015163ffffffff166000908152603e6020908152604080832081519485018252805480865260018201549386019390935260020154908401526080840151611e2491612b0d565b8351611e309190612d21565b8360200151611e3f91906129a0565b90506000670de0b6b3a7640000836020015183611e5c9190612d21565b611e669190612a9a565b6040840151603c54919250600091670de0b6b3a76400009190603e908490611e969060019063ffffffff16612a26565b63ffffffff1663ffffffff16815260200190815260200160002060020154611ebe9190612b0d565b8651611eca9190612d21565b611ed49190612a9a565b905080828660400151611ee791906129a0565b611ef191906129a0565b979650505050505050565b6001600160a01b03811615801590611f2a57506000611f1e60208401846127c8565b6001600160a01b031614155b15611a8a576040516370a0823160e01b8152306004820152600090670de0b6b3a7640000906020850135906001600160a01b038516906370a0823190602401602060405180830381865afa158015611f86573d6000803e3d6000fd5b505050506040513d601f19601f82011682018060405250810190611faa9190612a81565b611fb49190612d21565b611fbe9190612a9a565b9050801561219557366000611fd38680612abc565b9092509050801580159061205057508181611fef600182612b0d565b818110611ffe57611ffe612a4b565b905060200201602081019061201391906127c8565b6001600160a01b03168282600081811061202f5761202f612a4b565b905060200201602081019061204491906127c8565b6001600160a01b031614155b1561217157836001600160a01b03168282600081811061207257612072612a4b565b905060200201602081019061208791906127c8565b6001600160a01b0316146120d35760405162461bcd60e51b81526020600482015260136024820152724241445f4645455f544f4b454e5f524f55544560681b6044820152606401610274565b6000805160206130008339815191526338ed1739846020808a013590869086906120ff908c018c6127c8565b426040518763ffffffff1660e01b815260040161212196959493929190612b24565b6000604051808303816000875af1158015612140573d6000803e3d6000fd5b505050506040513d6000823e601f3d908101601f191682016040526121689190810190612c6d565b50505050505050565b61219261218160208701876127c8565b6001600160a01b03861690856122c0565b50505b50505050565b6001600160a01b0381166000908152603d60205260409020603c54600382015463ffffffff908116911614156122045760048101546121da9043612b0d565b81546121e69190612d21565b8160010160008282546121f991906129a0565b909155506122609050565b61220d82611d67565b6002820155603c54603e9060009061222d9060019063ffffffff16612a26565b63ffffffff16815260208101919091526040016000205461224e9043612b0d565b815461225a9190612d21565b60018201555b603c5460038201805463ffffffff191663ffffffff9092169190911790554360048201819055603954603b5490916122989190612b0d565b6122a29190612d21565b603a60008282546122b391906129a0565b909155505043603b555050565b604080516001600160a01b038416602482015260448082018490528251808303909101815260649091019091526020810180516001600160e01b031663a9059cbb60e01b179052611a8a90849061253e565b60008054610100900460ff1615612359578160ff1660011480156123355750303b155b6123515760405162461bcd60e51b815260040161027490612eda565b506000919050565b60005460ff8084169116106123805760405162461bcd60e51b815260040161027490612eda565b506000805460ff191660ff92909216919091179055600190565b600054610100900460ff166123c15760405162461bcd60e51b815260040161027490612f28565b6123c9612610565b565b600080805b7354aff400858dcac39797a81894d9920f16972d1d6001600160a01b031663081e3eda6040518163ffffffff1660e01b8152600401602060405180830381865afa158015612422573d6000803e3d6000fd5b505050506040513d601f19601f820116820180604052508101906124469190612a81565b8110156124f9576040516378ed5d1f60e01b8152600481018290526001600160a01b038516907354aff400858dcac39797a81894d9920f16972d1d906378ed5d1f90602401602060405180830381865afa1580156124a8573d6000803e3d6000fd5b505050506040513d601f19601f820116820180604052508101906124cc9190612db7565b6001600160a01b031614156124e757809250600191506124f9565b806124f181612f73565b9150506123d0565b50806125385760405162461bcd60e51b815260206004820152600e60248201526d5049445f4e4f545f45584953545360901b6044820152606401610274565b50919050565b6000612593826040518060400160405280602081526020017f5361666545524332303a206c6f772d6c6576656c2063616c6c206661696c6564815250856001600160a01b031661263d9092919063ffffffff16565b805190915015611a8a57808060200190518101906125b19190612e99565b611a8a5760405162461bcd60e51b815260206004820152602a60248201527f5361666545524332303a204552433230206f7065726174696f6e20646964206e6044820152691bdd081cdd58d8d9595960b21b6064820152608401610274565b600054610100900460ff166126375760405162461bcd60e51b815260040161027490612f28565b60018055565b606061264c8484600085612656565b90505b9392505050565b6060824710156126b75760405162461bcd60e51b815260206004820152602660248201527f416464726573733a20696e73756666696369656e742062616c616e636520666f6044820152651c8818d85b1b60d21b6064820152608401610274565b6001600160a01b0385163b61270e5760405162461bcd60e51b815260206004820152601d60248201527f416464726573733a2063616c6c20746f206e6f6e2d636f6e74726163740000006044820152606401610274565b600080866001600160a01b0316858760405161272a9190612fba565b60006040518083038185875af1925050503d8060008114612767576040519150601f19603f3d011682016040523d82523d6000602084013e61276c565b606091505b5091509150611ef18282866060831561278657508161264f565b8251156127965782518084602001fd5b8160405162461bcd60e51b81526004016102749190612fcc565b6001600160a01b03811681146127c557600080fd5b50565b6000602082840312156127da57600080fd5b813561264f816127b0565b600080600083850360808112156127fb57600080fd5b843567ffffffffffffffff8082111561281357600080fd5b81870191508760808301111561282857600080fd5b9094506020860135908082111561283e57600080fd5b5085016040810187101561285157600080fd5b92506040603f198201121561286557600080fd5b506040840190509250925092565b600080600080600080600060e0888a03121561288e57600080fd5b873596506020880135955060408801359450606088013593506080880135925060a08801356128bc816127b0565b915060c08801356128cc816127b0565b8091505092959891949750929550565b600080604083850312156128ef57600080fd5b82356128fa816127b0565b9150602083013561290a816127b0565b809150509250929050565b80151581146127c557600080fd5b60008060008060008060c0878903121561293c57600080fd5b863595506020870135945060408701359350606087013561295c81612915565b9250608087013561296c816127b0565b915060a087013561297c816127b0565b809150509295509295509295565b634e487b7160e01b600052601160045260246000fd5b600082198211156129b3576129b361298a565b500190565b60208082526017908201527f43414c4c45525f4e4f545f41535345545f524f55544552000000000000000000604082015260600190565b6020808252601f908201527f5265656e7472616e637947756172643a207265656e7472616e742063616c6c00604082015260600190565b600063ffffffff83811690831681811015612a4357612a4361298a565b039392505050565b634e487b7160e01b600052603260045260246000fd5b60008235603e19833603018112612a7757600080fd5b9190910192915050565b600060208284031215612a9357600080fd5b5051919050565b600082612ab757634e487b7160e01b600052601260045260246000fd5b500490565b6000808335601e19843603018112612ad357600080fd5b83018035915067ffffffffffffffff821115612aee57600080fd5b6020019150600581901b3603821315612b0657600080fd5b9250929050565b600082821015612b1f57612b1f61298a565b500390565b868152602080820187905260a0604083018190528201859052600090869060c08401835b88811015612b76578335612b5b816127b0565b6001600160a01b031682529282019290820190600101612b48565b506001600160a01b0396909616606085015250505060800152949350505050565b634e487b7160e01b600052604160045260246000fd5b604051601f8201601f1916810167ffffffffffffffff81118282101715612bd657612bd6612b97565b604052919050565b600067ffffffffffffffff821115612bf857612bf8612b97565b5060051b60200190565b600082601f830112612c1357600080fd5b81516020612c28612c2383612bde565b612bad565b82815260059290921b84018101918181019086841115612c4757600080fd5b8286015b84811015612c625780518352918301918301612c4b565b509695505050505050565b600060208284031215612c7f57600080fd5b815167ffffffffffffffff811115612c9657600080fd5b612ca284828501612c02565b949350505050565b6001600160a01b039889168152968816602088015260408701959095526060860193909352608085019190915260a084015290921660c082015260e08101919091526101000190565b600080600060608486031215612d0857600080fd5b8351925060208401519150604084015190509250925092565b6000816000190483118215151615612d3b57612d3b61298a565b500290565b600063ffffffff808316818516808303821115612d5f57612d5f61298a565b01949350505050565b600060408284031215612d7a57600080fd5b6040516040810181811067ffffffffffffffff82111715612d9d57612d9d612b97565b604052825181526020928301519281019290925250919050565b600060208284031215612dc957600080fd5b815161264f816127b0565b60008060408385031215612de757600080fd5b825167ffffffffffffffff80821115612dff57600080fd5b818501915085601f830112612e1357600080fd5b81516020612e23612c2383612bde565b82815260059290921b84018101918181019089841115612e4257600080fd5b948201945b83861015612e69578551612e5a816127b0565b82529482019490820190612e47565b91880151919650909350505080821115612e8257600080fd5b50612e8f85828601612c02565b9150509250929050565b600060208284031215612eab57600080fd5b815161264f81612915565b60008060408385031215612ec957600080fd5b505080516020909101519092909150565b6020808252602e908201527f496e697469616c697a61626c653a20636f6e747261637420697320616c72656160408201526d191e481a5b9a5d1a585b1a5e995960921b606082015260800190565b6020808252602b908201527f496e697469616c697a61626c653a20636f6e7472616374206973206e6f74206960408201526a6e697469616c697a696e6760a81b606082015260800190565b6000600019821415612f8757612f8761298a565b5060010190565b60005b83811015612fa9578181015183820152602001612f91565b838111156121955750506000910152565b60008251612a77818460208701612f8e565b6020815260008251806020840152612feb816040850160208701612f8e565b601f01601f1916919091016040019291505056fe000000000000000000000000c0788a3ad43d79aa53b09c2eacc313a787d1d607a26469706673582212203d4c71e46b681e861f96ad547f3d822203edb8e0a1cbd0d2c93f747c4d5aaa4064736f6c634300080a0033",
  "immutableReferences": {},
  "source": "// SPDX-License-Identifier: MIT\npragma solidity 0.8.10;\n \nimport '../../interfaces/IUniswapV2Pair.sol';\nimport '../../interfaces/IApeRouter02.sol';\nimport '../../interfaces/IMiniApeV2.sol';\nimport '../../interfaces/IMiniComplexRewarderTime.sol';\nimport '@openzeppelin/contracts-upgradeable/security/ReentrancyGuardUpgradeable.sol';\nimport '@openzeppelin/contracts-upgradeable/token/ERC20/utils/SafeERC20Upgradeable.sol';\nimport '@openzeppelin/contracts-upgradeable/token/ERC20/IERC20Upgradeable.sol';\nimport '@openzeppelin/contracts-upgradeable/proxy/utils/Initializable.sol';\n\ncontract UnoFarmApeswap is Initializable, ReentrancyGuardUpgradeable {\n    using SafeERC20Upgradeable for IERC20Upgradeable;\n    /**\n     * @dev DistributionInfo:\n     * {block} - Distribution block number.\n     * {rewardPerDepositAge} - Distribution reward divided by {totalDepositAge}. \n     * {cumulativeRewardAgePerDepositAge} - Sum of {rewardPerDepositAge}s multiplied by distribution interval.\n     */\n    struct DistributionInfo {\n        uint256 block;\n        uint256 rewardPerDepositAge;\n        uint256 cumulativeRewardAgePerDepositAge;\n    }\n    /**\n     * @dev UserInfo:\n     * {stake} - Amount of LP tokens deposited by the user.\n     * {depositAge} - User deposits multiplied by blocks the deposit has been in. \n     * {reward} - Amount of LP tokens entitled to the user.\n     * {lastDistribution} - Distribution ID before the last user deposit.\n     * {lastUpdate} - Deposit update block.\n     */\n    struct UserInfo {\n        uint256 stake;\n        uint256 depositAge;\n        uint256 reward;\n        uint32 lastDistribution;\n        uint256 lastUpdate;\n    }\n    /**\n     * @dev SwapInfo:\n     * {route} - Array of token addresses describing swap routes.\n     * {amountOutMin} - The minimum amount of output token that must be received for the transaction not to revert.\n     */\n    struct SwapInfo{\n        address[] route;\n        uint256 amountOutMin;\n    }\n    /**\n     * @dev FeeInfo:\n     * {feeCollector} - Contract to transfer fees to.\n     * {fee} - Fee percentage to collect (10^18 == 100%). \n     */\n    struct FeeInfo {\n        address feeTo;\n        uint256 fee;\n    }\n\n    /**\n     * @dev Tokens Used:\n     * {rewardToken} - Token generated by staking (SUSHI).\n     * {rewarderToken} - Token generated by ComplexRewarderTime contract.\n     * {lpPair} - Token that the strategy maximizes. The same token that users deposit in the {MiniApe}.\n     * {tokenA, tokenB} - Tokens that the strategy maximizes.\n     */\n    address public rewardToken;\n    address public rewarderToken;\n    address public lpPair;\n    address public tokenA;\n    address public tokenB;\n\n    /**\n     * @dev Third Party Contracts:\n     * {apeswapRouter} - The contract that executes swaps.\n     * {MiniApe} -The contract that distibutes {rewardToken}.\n     */\n    IApeRouter02 private constant apeswapRouter = IApeRouter02(0xC0788A3aD43d79aa53B09c2EaCc313A787d1d607);\n    IMiniApeV2 private constant MiniApe = IMiniApeV2(0x54aff400858Dcac39797a81894D9920f16972D1D);\n\n    /**\n     * @dev Contract Variables:\n     * {pid} - Pool ID.\n\n     * {totalDeposits} - Total deposits made by users.\n     * {totalDepositAge} - Deposits multiplied by blocks the deposit has been in. Flushed every reward distribution.\n     * {totalDepositLastUpdate} - Last {totalDepositAge} update block.\n\n     * {distributionID} - Current distribution ID.\n     * {userInfo} - Info on each user.\n     * {distributionInfo} - Info on each distribution.\n\n     * {fractionMultiplier} - Used to store decimal values.\n     */\n    uint256 public pid;\n\n    uint256 private totalDeposits;\n    uint256 private totalDepositAge;\n    uint256 private totalDepositLastUpdate; \n\n    uint32 private distributionID;\n    mapping(address => UserInfo) private userInfo;\n    mapping(uint32 => DistributionInfo) private distributionInfo;\n\n    uint256 private constant fractionMultiplier = uint256(1 ether);\n\n    /**\n     * @dev Contract Variables:\n     * {assetRouter} - The contract from which calls to this farm are made.\n     */\n    address public assetRouter;\n    modifier onlyAssetRouter(){\n        require(msg.sender == assetRouter, 'CALLER_NOT_ASSET_ROUTER');\n        _;\n    }\n\n    // ============ Methods ============\n\n    function initialize(address _lpPair, address _assetRouter) external initializer {\n        require (_lpPair != address(0), 'BAD_LP_POOL');\n        require (_assetRouter != address(0), 'BAD_ASSET_ROUTER');\n\n        __ReentrancyGuard_init();\n        assetRouter = _assetRouter;\n\n        pid = getPid(_lpPair);\n        lpPair = _lpPair;\n\n        rewardToken = MiniApe.BANANA();\n\n        address Rewarder = MiniApe.rewarder(pid);\n        if (Rewarder != address(0)) {\n            (IERC20[] memory rewarderTokenArray, ) = IMiniComplexRewarderTime(Rewarder).pendingTokens(pid, address(0), 0);\n            rewarderToken = address(rewarderTokenArray[0]);\n            IERC20(rewarderToken).approve(address(apeswapRouter), type(uint256).max);\n        }\n\n        tokenA = IUniswapV2Pair(lpPair).token0();\n        tokenB = IUniswapV2Pair(lpPair).token1();\n\n        distributionInfo[0] = DistributionInfo({\n            block: block.number,\n            rewardPerDepositAge: 0,\n            cumulativeRewardAgePerDepositAge: 0\n        });\n        distributionID = 1;\n        totalDepositLastUpdate = block.number;\n\n        IERC20(lpPair).approve(address(MiniApe), type(uint256).max);\n        IERC20(lpPair).approve(address(apeswapRouter), type(uint256).max);\n        IERC20(rewardToken).approve(address(apeswapRouter), type(uint256).max);\n        IERC20(tokenA).approve(address(apeswapRouter), type(uint256).max);\n        IERC20(tokenB).approve(address(apeswapRouter), type(uint256).max);\n    }\n\n    /**\n     * @dev Function that makes the deposits.\n     * Deposits provided tokens in the Liquidity Pool, then stakes generated LP tokens in the {MiniApe}.\n     */\n    function deposit(uint256 amountA, uint256 amountB, uint256 amountAMin, uint256 amountBMin, uint256 amountLP, address origin, address recipient) external nonReentrant onlyAssetRouter returns(uint256 sentA, uint256 sentB, uint256 liquidity){\n        uint256 addedLiquidity;\n        if(amountA > 0 && amountB > 0){\n            (sentA, sentB, addedLiquidity) = apeswapRouter.addLiquidity(tokenA, tokenB, amountA, amountB, amountAMin, amountBMin, address(this), block.timestamp);\n        }\n        liquidity = addedLiquidity + amountLP;\n        require(liquidity > 0, 'NO_LIQUIDITY_PROVIDED');\n\n        _updateDeposit(recipient);\n        userInfo[recipient].stake += liquidity;\n        totalDeposits += liquidity;\n            \n        MiniApe.deposit(pid, liquidity, address(this));\n        IERC20Upgradeable(tokenA).safeTransfer(origin, amountA - sentA);\n        IERC20Upgradeable(tokenB).safeTransfer(origin, amountB - sentB);\n    }\n\n    /**\n     * @dev Withdraws funds from {origin} and sends them to the {recipient}.\n     */\n    function withdraw(uint256 amount, uint256 amountAMin, uint256 amountBMin, bool withdrawLP, address origin, address recipient) external nonReentrant onlyAssetRouter returns(uint256 amountA, uint256 amountB){\n        require(amount > 0, 'INSUFFICIENT_AMOUNT');\n\n        _updateDeposit(origin);\n        UserInfo storage user = userInfo[origin];\n        // Subtract amount from user.reward first, then subtract remainder from user.stake.\n        if(amount > user.reward){\n            uint256 balance = user.stake + user.reward;\n            require(amount <= balance, 'INSUFFICIENT_BALANCE');\n            user.stake = balance - amount;\n            totalDeposits = totalDeposits + user.reward - amount;\n            user.reward = 0;\n        } else {\n            user.reward -= amount;\n        }\n\n        MiniApe.withdraw(pid, amount, address(this));\n        if(withdrawLP){\n            IERC20Upgradeable(lpPair).safeTransfer(recipient, amount);\n            return (0, 0);\n        }\n        (amountA, amountB) = apeswapRouter.removeLiquidity(tokenA, tokenB, amount, amountAMin, amountBMin, recipient, block.timestamp);\n    }\n\n    /**\n     * @dev Core function of the strat, in charge of updating, collecting and re-investing rewards.\n     * 1. It claims rewards from the {MiniApe}.\n     * 2. It swaps {rewardToken} token for {tokenA} & {tokenB}.\n     * 3. It deposits new LP tokens back to the {MiniApe}.\n     */\n    function distribute(\n        SwapInfo[4] calldata swapInfos,\n        SwapInfo[2] calldata feeSwapInfos,\n        FeeInfo calldata feeInfo\n    ) external onlyAssetRouter nonReentrant returns(uint256 reward){\n        require(totalDeposits > 0, 'NO_LIQUIDITY');\n        require(distributionInfo[distributionID - 1].block != block.number, 'CANT_CALL_ON_THE_SAME_BLOCK');\n\n        MiniApe.harvest(pid, address(this));\n\n        collectFees(feeSwapInfos[0], feeInfo, IERC20Upgradeable(rewardToken));\n        collectFees(feeSwapInfos[1], feeInfo, IERC20Upgradeable(rewarderToken));\n        { // scope to avoid stack too deep errors\n        uint256 rewardTokenHalf = IERC20(rewardToken).balanceOf(address(this)) / 2;\n        uint256 rewarderTokenHalf;\n        if (rewarderToken != address(0)) {\n            rewarderTokenHalf = IERC20(rewarderToken).balanceOf(address(this)) / 2;\n        }\n        \n        if (rewardTokenHalf > 0) {\n            if (tokenA != rewardToken) {\n                address[] calldata route = swapInfos[0].route;\n                require(route[0] == rewardToken && route[route.length - 1] == tokenA, 'BAD_REWARD_TOKEN_A_ROUTE');\n                apeswapRouter.swapExactTokensForTokens(rewardTokenHalf, swapInfos[0].amountOutMin, route, address(this), block.timestamp);\n            }\n\n            if (tokenB != rewardToken) {\n                address[] calldata route = swapInfos[1].route;\n                require(route[0] == rewardToken && route[route.length - 1] == tokenB, 'BAD_REWARD_TOKEN_B_ROUTE');\n                apeswapRouter.swapExactTokensForTokens(rewardTokenHalf, swapInfos[1].amountOutMin, route, address(this), block.timestamp);\n            }\n        }\n        \n        if (rewarderTokenHalf > 0) {\n            if (tokenA != rewarderToken) {\n                address[] calldata route = swapInfos[2].route;\n                require(route[0] == rewarderToken && route[route.length - 1] == tokenA, 'BAD_REWARDER_TOKEN_A_ROUTE');\n                apeswapRouter.swapExactTokensForTokens(rewarderTokenHalf, swapInfos[2].amountOutMin, route, address(this), block.timestamp);\n            }\n\n            if (tokenB != rewarderToken) {\n                address[] calldata route = swapInfos[3].route;\n                require(route[0] == rewarderToken && route[route.length - 1] == tokenB, 'BAD_REWARDER_TOKEN_B_ROUTE');\n                apeswapRouter.swapExactTokensForTokens(rewarderTokenHalf, swapInfos[3].amountOutMin, route, address(this), block.timestamp);\n            }\n        }\n        }\n\n        (,,reward) = apeswapRouter.addLiquidity(tokenA, tokenB, IERC20(tokenA).balanceOf(address(this)), IERC20(tokenB).balanceOf(address(this)), swapInfos[0].amountOutMin + swapInfos[2].amountOutMin, swapInfos[1].amountOutMin + swapInfos[3].amountOutMin, address(this), block.timestamp);\n        \n        uint256 rewardPerDepositAge = reward * fractionMultiplier / (totalDepositAge + totalDeposits * (block.number - totalDepositLastUpdate));\n        uint256 cumulativeRewardAgePerDepositAge = distributionInfo[distributionID - 1].cumulativeRewardAgePerDepositAge + rewardPerDepositAge * (block.number - distributionInfo[distributionID - 1].block);\n\n        distributionInfo[distributionID] = DistributionInfo({\n            block: block.number,\n            rewardPerDepositAge: rewardPerDepositAge,\n            cumulativeRewardAgePerDepositAge: cumulativeRewardAgePerDepositAge\n        });\n\n        distributionID += 1;\n        totalDepositLastUpdate = block.number;\n        totalDepositAge = 0;\n            \n        MiniApe.deposit(pid, reward, address(this));\n    }\n    \n    /**\n     * @dev Swaps and sends fees to feeTo.\n     */\n    function collectFees(SwapInfo calldata feeSwapInfo, FeeInfo calldata feeInfo, IERC20Upgradeable token) internal {\n        if(address(token) != address(0) && feeInfo.feeTo != address(0)){\n            uint256 feeAmount = token.balanceOf(address(this)) * feeInfo.fee / fractionMultiplier;\n            if(feeAmount > 0){\n                address[] calldata route = feeSwapInfo.route;\n                if(route.length > 0 && route[0] != route[route.length - 1]){\n                    require(route[0] == address(token), 'BAD_FEE_TOKEN_ROUTE');\n                    apeswapRouter.swapExactTokensForTokens(feeAmount, feeSwapInfo.amountOutMin, route, feeInfo.feeTo, block.timestamp);\n                    return;\n                }\n                token.safeTransfer(feeInfo.feeTo, feeAmount);\n            }\n        }\n    }\n\n    /**\n     * @dev Returns total funds staked by the {_address}.\n     */\n    function userBalance(address _address) external view returns (uint256) {\n        return userInfo[_address].stake + userReward(_address);\n    }\n\n    /**\n     * @dev Returns total funds locked in the farm.\n     */\n    function getTotalDeposits() external view returns (uint256 _totalDeposits) {\n        if(totalDeposits > 0){\n            _totalDeposits = MiniApe.userInfo(pid, address(this)).amount;\n        }\n    }\n    \n    function _updateDeposit(address _address) internal {\n        UserInfo storage user = userInfo[_address];\n        // Accumulate deposit age within the current distribution period.\n        if (user.lastDistribution == distributionID) {\n            // Add deposit age from previous deposit age update to now.\n            user.depositAge += user.stake * (block.number - user.lastUpdate);\n        } else {\n            // A reward has been distributed, update user.reward.\n            user.reward = userReward(_address);\n            // Count fresh deposit age from previous reward distribution to now.\n            user.depositAge = user.stake * (block.number - distributionInfo[distributionID - 1].block);\n        }\n\n        user.lastDistribution = distributionID;\n        user.lastUpdate = block.number;\n\n        // Same with total deposit age.\n        totalDepositAge += (block.number - totalDepositLastUpdate) * totalDeposits;\n        totalDepositLastUpdate = block.number;\n    }\n\n    function userReward(address _address) internal view returns (uint256) {\n        UserInfo memory user = userInfo[_address];\n        if (user.lastDistribution == distributionID) {\n            // Return user.reward if the distribution after the last user deposit did not happen yet.\n            return user.reward;\n        }\n        DistributionInfo memory lastUserDistributionInfo = distributionInfo[user.lastDistribution];\n        uint256 userDepositAge = user.depositAge + user.stake * (lastUserDistributionInfo.block - user.lastUpdate);\n        // Calculate reward between the last user deposit and the distribution after that.\n        uint256 rewardBeforeDistibution = userDepositAge * lastUserDistributionInfo.rewardPerDepositAge / fractionMultiplier;\n        // Calculate reward from the distributions that have happened after the last user deposit.\n        uint256 rewardAfterDistribution = user.stake * (distributionInfo[distributionID - 1].cumulativeRewardAgePerDepositAge - lastUserDistributionInfo.cumulativeRewardAgePerDepositAge) / fractionMultiplier;\n        return user.reward + rewardBeforeDistibution + rewardAfterDistribution;\n    }\n\n    /**\n     * @dev Get pid by iterating over all pools and comparing pids.\n     */\n    function getPid(address _lpPair) internal view returns (uint256 _pid) {\n        bool poolExists = false;\n        for (uint256 i = 0; i < MiniApe.poolLength(); i++) {\n            if (MiniApe.lpToken(i) == _lpPair) {\n                _pid = i;\n                poolExists = true;\n                break;\n            }\n        }\n        require(poolExists, 'PID_NOT_EXISTS');\n        return _pid;\n    }\n}\n",
  "sourcePath": "/home/ilau/projectWork/uno-contracts/contracts/apps/apeswap/UnoFarmApeswap.sol",
  "compiler": {
    "name": "solc",
    "version": "0.8.10+commit.fc410830.Emscripten.clang"
  },
  "schemaVersion": "3.4.10",
  "updatedAt": "2022-11-01T11:45:09.631Z",
  "networkType": "ethereum",
  "devdoc": {
    "kind": "dev",
    "methods": {
      "deposit(uint256,uint256,uint256,uint256,uint256,address,address)": {
        "details": "Function that makes the deposits. Deposits provided tokens in the Liquidity Pool, then stakes generated LP tokens in the {MiniApe}."
      },
      "distribute((address[],uint256)[4],(address[],uint256)[2],(address,uint256))": {
        "details": "Core function of the strat, in charge of updating, collecting and re-investing rewards. 1. It claims rewards from the {MiniApe}. 2. It swaps {rewardToken} token for {tokenA} & {tokenB}. 3. It deposits new LP tokens back to the {MiniApe}."
      },
      "getTotalDeposits()": {
        "details": "Returns total funds locked in the farm."
      },
      "userBalance(address)": {
        "details": "Returns total funds staked by the {_address}."
      },
      "withdraw(uint256,uint256,uint256,bool,address,address)": {
        "details": "Withdraws funds from {origin} and sends them to the {recipient}."
      }
    },
    "stateVariables": {
      "apeswapRouter": {
        "details": "Third Party Contracts: {apeswapRouter} - The contract that executes swaps. {MiniApe} -The contract that distibutes {rewardToken}."
      },
      "assetRouter": {
        "details": "Contract Variables: {assetRouter} - The contract from which calls to this farm are made."
      },
      "pid": {
        "details": "Contract Variables: {pid} - Pool ID. {totalDeposits} - Total deposits made by users. {totalDepositAge} - Deposits multiplied by blocks the deposit has been in. Flushed every reward distribution. {totalDepositLastUpdate} - Last {totalDepositAge} update block. {distributionID} - Current distribution ID. {userInfo} - Info on each user. {distributionInfo} - Info on each distribution. {fractionMultiplier} - Used to store decimal values."
      },
      "rewardToken": {
        "details": "Tokens Used: {rewardToken} - Token generated by staking (SUSHI). {rewarderToken} - Token generated by ComplexRewarderTime contract. {lpPair} - Token that the strategy maximizes. The same token that users deposit in the {MiniApe}. {tokenA, tokenB} - Tokens that the strategy maximizes."
      }
    },
    "version": 1
  },
  "userdoc": {
    "kind": "user",
    "methods": {},
    "version": 1
  }
}