{
  "contractName": "UnoFarmApeswap",
  "abi": [
    {
      "anonymous": false,
      "inputs": [
        {
          "indexed": false,
          "internalType": "uint8",
          "name": "version",
          "type": "uint8"
        }
      ],
      "name": "Initialized",
      "type": "event"
    },
    {
      "inputs": [],
      "name": "assetRouter",
      "outputs": [
        {
          "internalType": "address",
          "name": "",
          "type": "address"
        }
      ],
      "stateMutability": "view",
      "type": "function"
    },
    {
      "inputs": [],
      "name": "lpPair",
      "outputs": [
        {
          "internalType": "address",
          "name": "",
          "type": "address"
        }
      ],
      "stateMutability": "view",
      "type": "function"
    },
    {
      "inputs": [],
      "name": "pid",
      "outputs": [
        {
          "internalType": "uint256",
          "name": "",
          "type": "uint256"
        }
      ],
      "stateMutability": "view",
      "type": "function"
    },
    {
      "inputs": [],
      "name": "rewardToken",
      "outputs": [
        {
          "internalType": "address",
          "name": "",
          "type": "address"
        }
      ],
      "stateMutability": "view",
      "type": "function"
    },
    {
      "inputs": [],
      "name": "rewarderToken",
      "outputs": [
        {
          "internalType": "address",
          "name": "",
          "type": "address"
        }
      ],
      "stateMutability": "view",
      "type": "function"
    },
    {
      "inputs": [],
      "name": "tokenA",
      "outputs": [
        {
          "internalType": "address",
          "name": "",
          "type": "address"
        }
      ],
      "stateMutability": "view",
      "type": "function"
    },
    {
      "inputs": [],
      "name": "tokenB",
      "outputs": [
        {
          "internalType": "address",
          "name": "",
          "type": "address"
        }
      ],
      "stateMutability": "view",
      "type": "function"
    },
    {
      "inputs": [
        {
          "internalType": "address",
          "name": "_lpPair",
          "type": "address"
        },
        {
          "internalType": "address",
          "name": "_assetRouter",
          "type": "address"
        }
      ],
      "name": "initialize",
      "outputs": [],
      "stateMutability": "nonpayable",
      "type": "function"
    },
    {
      "inputs": [
        {
          "internalType": "uint256",
          "name": "amount",
          "type": "uint256"
        },
        {
          "internalType": "address",
          "name": "recipient",
          "type": "address"
        }
      ],
      "name": "deposit",
      "outputs": [],
      "stateMutability": "nonpayable",
      "type": "function"
    },
    {
      "inputs": [
        {
          "internalType": "uint256",
          "name": "amount",
          "type": "uint256"
        },
        {
          "internalType": "uint256",
          "name": "amountAMin",
          "type": "uint256"
        },
        {
          "internalType": "uint256",
          "name": "amountBMin",
          "type": "uint256"
        },
        {
          "internalType": "bool",
          "name": "withdrawLP",
          "type": "bool"
        },
        {
          "internalType": "address",
          "name": "origin",
          "type": "address"
        },
        {
          "internalType": "address",
          "name": "recipient",
          "type": "address"
        }
      ],
      "name": "withdraw",
      "outputs": [
        {
          "internalType": "uint256",
          "name": "amountA",
          "type": "uint256"
        },
        {
          "internalType": "uint256",
          "name": "amountB",
          "type": "uint256"
        }
      ],
      "stateMutability": "nonpayable",
      "type": "function"
    },
    {
      "inputs": [
        {
          "components": [
            {
              "internalType": "address[]",
              "name": "route",
              "type": "address[]"
            },
            {
              "internalType": "uint256",
              "name": "amountOutMin",
              "type": "uint256"
            }
          ],
          "internalType": "struct UnoFarmApeswap.SwapInfo[4]",
          "name": "swapInfos",
          "type": "tuple[4]"
        },
        {
          "components": [
            {
              "internalType": "address[]",
              "name": "route",
              "type": "address[]"
            },
            {
              "internalType": "uint256",
              "name": "amountOutMin",
              "type": "uint256"
            }
          ],
          "internalType": "struct UnoFarmApeswap.SwapInfo[2]",
          "name": "feeSwapInfos",
          "type": "tuple[2]"
        },
        {
          "components": [
            {
              "internalType": "address",
              "name": "feeTo",
              "type": "address"
            },
            {
              "internalType": "uint256",
              "name": "fee",
              "type": "uint256"
            }
          ],
          "internalType": "struct UnoFarmApeswap.FeeInfo",
          "name": "feeInfo",
          "type": "tuple"
        }
      ],
      "name": "distribute",
      "outputs": [
        {
          "internalType": "uint256",
          "name": "reward",
          "type": "uint256"
        }
      ],
      "stateMutability": "nonpayable",
      "type": "function"
    },
    {
      "inputs": [
        {
          "internalType": "address",
          "name": "_address",
          "type": "address"
        }
      ],
      "name": "userBalance",
      "outputs": [
        {
          "internalType": "uint256",
          "name": "",
          "type": "uint256"
        }
      ],
      "stateMutability": "view",
      "type": "function"
    },
    {
      "inputs": [],
      "name": "getTotalDeposits",
      "outputs": [
        {
          "internalType": "uint256",
          "name": "_totalDeposits",
          "type": "uint256"
        }
      ],
      "stateMutability": "view",
      "type": "function"
    }
  ],
  "bytecode": "0x608060405234801561001057600080fd5b50612ecf806100206000396000f3fe608060405234801561001057600080fd5b50600436106100cf5760003560e01c8063485cc9551161008c578063bc0aac1011610066578063bc0aac10146101a1578063d5634683146101b4578063f1068454146101dc578063f7c618c1146101e557600080fd5b8063485cc955146101665780635f64b55b1461017b5780636e553f651461018e57600080fd5b80630103c92b146100d457806308fef24a146100fa5780630fc63d101461010d578063168a4822146101385780632a8dc13114610140578063452ed4f114610153575b600080fd5b6100e76100e23660046126ef565b6101f8565b6040519081526020015b60405180910390f35b6100e761010836600461270c565b61022c565b603654610120906001600160a01b031681565b6040516001600160a01b0390911681526020016100f1565b6100e7610fa7565b603454610120906001600160a01b031681565b603554610120906001600160a01b031681565b61017961017436600461279a565b611036565b005b603754610120906001600160a01b031681565b61017961019c3660046127d3565b611843565b603f54610120906001600160a01b031681565b6101c76101c2366004612806565b6119aa565b604080519283526020830191909152016100f1565b6100e760385481565b603354610120906001600160a01b031681565b600061020382611c88565b6001600160a01b0383166000908152603d60205260409020546102269190612883565b92915050565b603f546000906001600160a01b031633146102625760405162461bcd60e51b81526004016102599061289b565b60405180910390fd5b600260015414156102855760405162461bcd60e51b8152600401610259906128d2565b60026001556039546102c85760405162461bcd60e51b815260206004820152600c60248201526b4e4f5f4c495155494449545960a01b6044820152606401610259565b603c544390603e906000906102e59060019063ffffffff16612909565b63ffffffff168152602081019190915260400160002054141561034a5760405162461bcd60e51b815260206004820152601b60248201527f43414e545f43414c4c5f4f4e5f5448455f53414d455f424c4f434b00000000006044820152606401610259565b603854604051630c7e663b60e11b815260048101919091523060248201527354aff400858dcac39797a81894d9920f16972d1d906318fccc7690604401600060405180830381600087803b1580156103a157600080fd5b505af11580156103b5573d6000803e3d6000fd5b505050506103f2836000600281106103cf576103cf61292e565b6020028101906103df9190612944565b60335484906001600160a01b0316611e1d565b6104156104026020850185612944565b60345484906001600160a01b0316611e1d565b6033546040516370a0823160e01b81523060048201526000916002916001600160a01b03909116906370a0823190602401602060405180830381865afa158015610463573d6000803e3d6000fd5b505050506040513d601f19601f820116820180604052508101906104879190612964565b610491919061297d565b6034549091506000906001600160a01b031615610522576034546040516370a0823160e01b81523060048201526002916001600160a01b0316906370a0823190602401602060405180830381865afa1580156104f1573d6000803e3d6000fd5b505050506040513d601f19601f820116820180604052508101906105159190612964565b61051f919061297d565b90505b8115610876576033546036546001600160a01b039081169116146106cc5736600061054d8880612944565b610557908061299f565b60335491935091506001600160a01b031682826000816105795761057961292e565b905060200201602081019061058e91906126ef565b6001600160a01b03161480156105e757506036546001600160a01b031682826105b86001826129f0565b8181106105c7576105c761292e565b90506020020160208101906105dc91906126ef565b6001600160a01b0316145b6106335760405162461bcd60e51b815260206004820152601860248201527f4241445f5245574152445f544f4b454e5f415f524f55544500000000000000006044820152606401610259565b73c0788a3ad43d79aa53b09c2eacc313a787d1d6076338ed1739856106588b80612944565b60200135858530426040518763ffffffff1660e01b815260040161068196959493929190612a07565b6000604051808303816000875af11580156106a0573d6000803e3d6000fd5b505050506040513d6000823e601f3d908101601f191682016040526106c89190810190612b50565b5050505b6033546037546001600160a01b03908116911614610876573660006106f46020890189612944565b6106fe908061299f565b60335491935091506001600160a01b031682826000816107205761072061292e565b905060200201602081019061073591906126ef565b6001600160a01b031614801561078e57506037546001600160a01b0316828261075f6001826129f0565b81811061076e5761076e61292e565b905060200201602081019061078391906126ef565b6001600160a01b0316145b6107da5760405162461bcd60e51b815260206004820152601860248201527f4241445f5245574152445f544f4b454e5f425f524f55544500000000000000006044820152606401610259565b73c0788a3ad43d79aa53b09c2eacc313a787d1d6076338ed17398561080260208c018c612944565b60200135858530426040518763ffffffff1660e01b815260040161082b96959493929190612a07565b6000604051808303816000875af115801561084a573d6000803e3d6000fd5b505050506040513d6000823e601f3d908101601f191682016040526108729190810190612b50565b5050505b8015610bd0576034546036546001600160a01b03908116911614610a26573660006108a46040890189612944565b6108ae908061299f565b60345491935091506001600160a01b031682826000816108d0576108d061292e565b90506020020160208101906108e591906126ef565b6001600160a01b031614801561093e57506036546001600160a01b0316828261090f6001826129f0565b81811061091e5761091e61292e565b905060200201602081019061093391906126ef565b6001600160a01b0316145b61098a5760405162461bcd60e51b815260206004820152601a60248201527f4241445f52455741524445525f544f4b454e5f415f524f5554450000000000006044820152606401610259565b73c0788a3ad43d79aa53b09c2eacc313a787d1d6076338ed1739846109b260408c018c612944565b60200135858530426040518763ffffffff1660e01b81526004016109db96959493929190612a07565b6000604051808303816000875af11580156109fa573d6000803e3d6000fd5b505050506040513d6000823e601f3d908101601f19168201604052610a229190810190612b50565b5050505b6034546037546001600160a01b03908116911614610bd057366000610a4e6060890189612944565b610a58908061299f565b60345491935091506001600160a01b03168282600081610a7a57610a7a61292e565b9050602002016020810190610a8f91906126ef565b6001600160a01b0316148015610ae857506037546001600160a01b03168282610ab96001826129f0565b818110610ac857610ac861292e565b9050602002016020810190610add91906126ef565b6001600160a01b0316145b610b345760405162461bcd60e51b815260206004820152601a60248201527f4241445f52455741524445525f544f4b454e5f425f524f5554450000000000006044820152606401610259565b73c0788a3ad43d79aa53b09c2eacc313a787d1d6076338ed173984610b5c60608c018c612944565b60200135858530426040518763ffffffff1660e01b8152600401610b8596959493929190612a07565b6000604051808303816000875af1158015610ba4573d6000803e3d6000fd5b505050506040513d6000823e601f3d908101601f19168201604052610bcc9190810190612b50565b5050505b50506036546037546040516370a0823160e01b815230600482015273c0788a3ad43d79aa53b09c2eacc313a787d1d6079263e8e33700926001600160a01b039182169291169082906370a0823190602401602060405180830381865afa158015610c3e573d6000803e3d6000fd5b505050506040513d601f19601f82011682018060405250810190610c629190612964565b6037546040516370a0823160e01b81523060048201526001600160a01b03909116906370a0823190602401602060405180830381865afa158015610caa573d6000803e3d6000fd5b505050506040513d601f19601f82011682018060405250810190610cce9190612964565b610cdb60408b018b612944565b60200135610ce98b80612944565b60200135610cf79190612883565b610d0460608c018c612944565b60209081013590610d17908d018d612944565b60200135610d259190612883565b6040516001600160e01b031960e089901b1681526001600160a01b03968716600482015295909416602486015260448501929092526064840152608483015260a48201523060c48201524260e4820152610104016060604051808303816000875af1158015610d98573d6000803e3d6000fd5b505050506040513d601f19601f82011682018060405250810190610dbc9190612b8d565b603b5490935060009250610dd19150436129f0565b603954610dde9190612bbb565b603a54610deb9190612883565b610dfd670de0b6b3a764000084612bbb565b610e07919061297d565b603c54909150600090603e908290610e279060019063ffffffff16612909565b63ffffffff168152602081019190915260400160002054610e4890436129f0565b610e529083612bbb565b603c54603e90600090610e6d9060019063ffffffff16612909565b63ffffffff1663ffffffff16815260200190815260200160002060020154610e959190612883565b604080516060810182524381526020808201868152828401858152603c805463ffffffff9081166000908152603e90955295842094518555915160018581019190915590516002909401939093558054949550919391929091610efa91859116612bda565b825463ffffffff9182166101009390930a92830291909202199091161790555043603b556000603a55603854604051638dbdbe6d60e01b81526004810191909152602481018490523060448201527354aff400858dcac39797a81894d9920f16972d1d90638dbdbe6d90606401600060405180830381600087803b158015610f8157600080fd5b505af1158015610f95573d6000803e3d6000fd5b50506001805550929695505050505050565b60395460009015611033576038546040516393f1a40b60e01b815260048101919091523060248201527354aff400858dcac39797a81894d9920f16972d1d906393f1a40b906044016040805180830381865afa15801561100b573d6000803e3d6000fd5b505050506040513d601f19601f8201168201806040525081019061102f9190612c02565b5190505b90565b600061104260016120c2565b9050801561105a576000805461ff0019166101001790555b6001600160a01b03831661109e5760405162461bcd60e51b815260206004820152600b60248201526a10905117d31417d413d3d360aa1b6044820152606401610259565b6001600160a01b0382166110e75760405162461bcd60e51b815260206004820152601060248201526f2120a22fa0a9a9a2aa2fa927aaaa22a960811b6044820152606401610259565b6110ef61214a565b603f80546001600160a01b0319166001600160a01b0384161790556111138361217b565b603855603580546001600160a01b0319166001600160a01b03851617905560408051636459ae3d60e11b815290517354aff400858dcac39797a81894d9920f16972d1d9163c8b35c7a9160048083019260209291908290030181865afa158015611181573d6000803e3d6000fd5b505050506040513d601f19601f820116820180604052508101906111a59190612c51565b603380546001600160a01b0319166001600160a01b039290921691909117905560385460405163c346253d60e01b815260048101919091526000907354aff400858dcac39797a81894d9920f16972d1d9063c346253d90602401602060405180830381865afa15801561121c573d6000803e3d6000fd5b505050506040513d601f19601f820116820180604052508101906112409190612c51565b90506001600160a01b038116156113905760385460405163d63b3c4960e01b8152600481019190915260006024820181905260448201819052906001600160a01b0383169063d63b3c4990606401600060405180830381865afa1580156112ab573d6000803e3d6000fd5b505050506040513d6000823e601f3d908101601f191682016040526112d39190810190612c6e565b509050806000815181106112e9576112e961292e565b6020908102919091010151603480546001600160a01b0319166001600160a01b03909216918217905560405163095ea7b360e01b815273c0788a3ad43d79aa53b09c2eacc313a787d1d6076004820152600019602482015263095ea7b3906044016020604051808303816000875af1158015611369573d6000803e3d6000fd5b505050506040513d601f19601f8201168201806040525081019061138d9190612d33565b50505b603560009054906101000a90046001600160a01b03166001600160a01b0316630dfe16816040518163ffffffff1660e01b8152600401602060405180830381865afa1580156113e3573d6000803e3d6000fd5b505050506040513d601f19601f820116820180604052508101906114079190612c51565b603680546001600160a01b0319166001600160a01b039283161790556035546040805163d21220a760e01b81529051919092169163d21220a79160048083019260209291908290030181865afa158015611465573d6000803e3d6000fd5b505050506040513d601f19601f820116820180604052508101906114899190612c51565b603780546001600160a01b0319166001600160a01b03928316179055604080516060810182524380825260006020808401828152848601838152928052603e90915292517f5f97c64b3c4bdfff50b5c8f505e633128432c6b07fc6c8abc77dce786c7317d45591517f5f97c64b3c4bdfff50b5c8f505e633128432c6b07fc6c8abc77dce786c7317d55590517f5f97c64b3c4bdfff50b5c8f505e633128432c6b07fc6c8abc77dce786c7317d655603c805463ffffffff19166001179055603b55603554905163095ea7b360e01b81527354aff400858dcac39797a81894d9920f16972d1d6004820152600019602482015291169063095ea7b3906044016020604051808303816000875af11580156115a6573d6000803e3d6000fd5b505050506040513d601f19601f820116820180604052508101906115ca9190612d33565b5060355460405163095ea7b360e01b815273c0788a3ad43d79aa53b09c2eacc313a787d1d607600482015260001960248201526001600160a01b039091169063095ea7b3906044016020604051808303816000875af1158015611631573d6000803e3d6000fd5b505050506040513d601f19601f820116820180604052508101906116559190612d33565b5060335460405163095ea7b360e01b815273c0788a3ad43d79aa53b09c2eacc313a787d1d607600482015260001960248201526001600160a01b039091169063095ea7b3906044016020604051808303816000875af11580156116bc573d6000803e3d6000fd5b505050506040513d601f19601f820116820180604052508101906116e09190612d33565b5060365460405163095ea7b360e01b815273c0788a3ad43d79aa53b09c2eacc313a787d1d607600482015260001960248201526001600160a01b039091169063095ea7b3906044016020604051808303816000875af1158015611747573d6000803e3d6000fd5b505050506040513d601f19601f8201168201806040525081019061176b9190612d33565b5060375460405163095ea7b360e01b815273c0788a3ad43d79aa53b09c2eacc313a787d1d607600482015260001960248201526001600160a01b039091169063095ea7b3906044016020604051808303816000875af11580156117d2573d6000803e3d6000fd5b505050506040513d601f19601f820116820180604052508101906117f69190612d33565b5050801561183e576000805461ff0019169055604051600181527f7f26b83ff96e1f2b6a682f133852f6798a09c465da95921460cefb38474024989060200160405180910390a15b505050565b600260015414156118665760405162461bcd60e51b8152600401610259906128d2565b6002600155603f546001600160a01b031633146118955760405162461bcd60e51b81526004016102599061289b565b600082116118dd5760405162461bcd60e51b81526020600482015260156024820152741393d7d3125455525112551657d41493d592511151605a1b6044820152606401610259565b6118e6816122ee565b6001600160a01b0381166000908152603d60205260408120805484929061190e908490612883565b9250508190555081603960008282546119279190612883565b9091555050603854604051638dbdbe6d60e01b81526004810191909152602481018390523060448201527354aff400858dcac39797a81894d9920f16972d1d90638dbdbe6d90606401600060405180830381600087803b15801561198a57600080fd5b505af115801561199e573d6000803e3d6000fd5b50506001805550505050565b600080600260015414156119d05760405162461bcd60e51b8152600401610259906128d2565b6002600155603f546001600160a01b031633146119ff5760405162461bcd60e51b81526004016102599061289b565b60008811611a455760405162461bcd60e51b8152602060048201526013602482015272125394d551919250d251539517d05353d55395606a1b6044820152606401610259565b611a4e846122ee565b6001600160a01b0384166000908152603d602052604090206002810154891115611b075760028101548154600091611a8591612883565b9050808a1115611ace5760405162461bcd60e51b8152602060048201526014602482015273494e53554646494349454e545f42414c414e434560601b6044820152606401610259565b611ad88a826129f0565b825560028201546039548b91611aed91612883565b611af791906129f0565b6039555060006002820155611b21565b88816002016000828254611b1b91906129f0565b90915550505b603854604051630ad58d2f60e01b81526004810191909152602481018a90523060448201527354aff400858dcac39797a81894d9920f16972d1d90630ad58d2f90606401600060405180830381600087803b158015611b7f57600080fd5b505af1158015611b93573d6000803e3d6000fd5b505050508515611bc157603554611bb4906001600160a01b0316858b612413565b6000809250925050611c77565b603654603754604051635d5155ef60e11b81526001600160a01b0392831660048201529082166024820152604481018b9052606481018a90526084810189905290851660a48201524260c482015273c0788a3ad43d79aa53b09c2eacc313a787d1d6079063baa2abde9060e40160408051808303816000875af1158015611c4c573d6000803e3d6000fd5b505050506040513d601f19601f82011682018060405250810190611c709190612d50565b9093509150505b600180559097909650945050505050565b6001600160a01b0381166000908152603d60209081526040808320815160a08101835281548152600182015493810193909352600281015491830191909152600381015463ffffffff908116606084018190526004909201546080840152603c54161415611cfa576040015192915050565b60608082015163ffffffff166000908152603e6020908152604080832081519485018252805480865260018201549386019390935260020154908401526080840151611d45916129f0565b8351611d519190612bbb565b8360200151611d609190612883565b90506000670de0b6b3a7640000836020015183611d7d9190612bbb565b611d87919061297d565b6040840151603c54919250600091670de0b6b3a76400009190603e908490611db79060019063ffffffff16612909565b63ffffffff1663ffffffff16815260200190815260200160002060020154611ddf91906129f0565b8651611deb9190612bbb565b611df5919061297d565b905080828660400151611e089190612883565b611e129190612883565b979650505050505050565b6001600160a01b03811615801590611e4b57506000611e3f60208401846126ef565b6001600160a01b031614155b1561183e576040516370a0823160e01b8152306004820152600090670de0b6b3a7640000906020850135906001600160a01b038516906370a0823190602401602060405180830381865afa158015611ea7573d6000803e3d6000fd5b505050506040513d601f19601f82011682018060405250810190611ecb9190612964565b611ed59190612bbb565b611edf919061297d565b905080156120bc57366000611ef4868061299f565b90925090508015801590611f7157508181611f106001826129f0565b818110611f1f57611f1f61292e565b9050602002016020810190611f3491906126ef565b6001600160a01b031682826000818110611f5057611f5061292e565b9050602002016020810190611f6591906126ef565b6001600160a01b031614155b1561209857836001600160a01b031682826000818110611f9357611f9361292e565b9050602002016020810190611fa891906126ef565b6001600160a01b031614611ff45760405162461bcd60e51b81526020600482015260136024820152724241445f4645455f544f4b454e5f524f55544560681b6044820152606401610259565b73c0788a3ad43d79aa53b09c2eacc313a787d1d6076338ed1739846020808a01359086908690612026908c018c6126ef565b426040518763ffffffff1660e01b815260040161204896959493929190612a07565b6000604051808303816000875af1158015612067573d6000803e3d6000fd5b505050506040513d6000823e601f3d908101601f1916820160405261208f9190810190612b50565b50505050505050565b6120b96120a860208701876126ef565b6001600160a01b0386169085612413565b50505b50505050565b60008054610100900460ff1615612109578160ff1660011480156120e55750303b155b6121015760405162461bcd60e51b815260040161025990612d74565b506000919050565b60005460ff8084169116106121305760405162461bcd60e51b815260040161025990612d74565b506000805460ff191660ff92909216919091179055600190565b600054610100900460ff166121715760405162461bcd60e51b815260040161025990612dc2565b612179612465565b565b600080805b7354aff400858dcac39797a81894d9920f16972d1d6001600160a01b031663081e3eda6040518163ffffffff1660e01b8152600401602060405180830381865afa1580156121d2573d6000803e3d6000fd5b505050506040513d601f19601f820116820180604052508101906121f69190612964565b8110156122a9576040516378ed5d1f60e01b8152600481018290526001600160a01b038516907354aff400858dcac39797a81894d9920f16972d1d906378ed5d1f90602401602060405180830381865afa158015612258573d6000803e3d6000fd5b505050506040513d601f19601f8201168201806040525081019061227c9190612c51565b6001600160a01b0316141561229757809250600191506122a9565b806122a181612e0d565b915050612180565b50806122e85760405162461bcd60e51b815260206004820152600e60248201526d5049445f4e4f545f45584953545360901b6044820152606401610259565b50919050565b6001600160a01b0381166000908152603d60205260409020603c54600382015463ffffffff9081169116141561235757600481015461232d90436129f0565b81546123399190612bbb565b81600101600082825461234c9190612883565b909155506123b39050565b61236082611c88565b6002820155603c54603e906000906123809060019063ffffffff16612909565b63ffffffff1681526020810191909152604001600020546123a190436129f0565b81546123ad9190612bbb565b60018201555b603c5460038201805463ffffffff191663ffffffff9092169190911790554360048201819055603954603b5490916123eb91906129f0565b6123f59190612bbb565b603a60008282546124069190612883565b909155505043603b555050565b604080516001600160a01b038416602482015260448082018490528251808303909101815260649091019091526020810180516001600160e01b031663a9059cbb60e01b17905261183e908490612492565b600054610100900460ff1661248c5760405162461bcd60e51b815260040161025990612dc2565b60018055565b60006124e7826040518060400160405280602081526020017f5361666545524332303a206c6f772d6c6576656c2063616c6c206661696c6564815250856001600160a01b03166125649092919063ffffffff16565b80519091501561183e57808060200190518101906125059190612d33565b61183e5760405162461bcd60e51b815260206004820152602a60248201527f5361666545524332303a204552433230206f7065726174696f6e20646964206e6044820152691bdd081cdd58d8d9595960b21b6064820152608401610259565b6060612573848460008561257d565b90505b9392505050565b6060824710156125de5760405162461bcd60e51b815260206004820152602660248201527f416464726573733a20696e73756666696369656e742062616c616e636520666f6044820152651c8818d85b1b60d21b6064820152608401610259565b6001600160a01b0385163b6126355760405162461bcd60e51b815260206004820152601d60248201527f416464726573733a2063616c6c20746f206e6f6e2d636f6e74726163740000006044820152606401610259565b600080866001600160a01b031685876040516126519190612e54565b60006040518083038185875af1925050503d806000811461268e576040519150601f19603f3d011682016040523d82523d6000602084013e612693565b606091505b5091509150611e12828286606083156126ad575081612576565b8251156126bd5782518084602001fd5b8160405162461bcd60e51b81526004016102599190612e66565b6001600160a01b03811681146126ec57600080fd5b50565b60006020828403121561270157600080fd5b8135612576816126d7565b6000806000838503608081121561272257600080fd5b843567ffffffffffffffff8082111561273a57600080fd5b81870191508760808301111561274f57600080fd5b9094506020860135908082111561276557600080fd5b5085016040810187101561277857600080fd5b92506040603f198201121561278c57600080fd5b506040840190509250925092565b600080604083850312156127ad57600080fd5b82356127b8816126d7565b915060208301356127c8816126d7565b809150509250929050565b600080604083850312156127e657600080fd5b8235915060208301356127c8816126d7565b80151581146126ec57600080fd5b60008060008060008060c0878903121561281f57600080fd5b863595506020870135945060408701359350606087013561283f816127f8565b9250608087013561284f816126d7565b915060a087013561285f816126d7565b809150509295509295509295565b634e487b7160e01b600052601160045260246000fd5b600082198211156128965761289661286d565b500190565b60208082526017908201527f43414c4c45525f4e4f545f41535345545f524f55544552000000000000000000604082015260600190565b6020808252601f908201527f5265656e7472616e637947756172643a207265656e7472616e742063616c6c00604082015260600190565b600063ffffffff838116908316818110156129265761292661286d565b039392505050565b634e487b7160e01b600052603260045260246000fd5b60008235603e1983360301811261295a57600080fd5b9190910192915050565b60006020828403121561297657600080fd5b5051919050565b60008261299a57634e487b7160e01b600052601260045260246000fd5b500490565b6000808335601e198436030181126129b657600080fd5b83018035915067ffffffffffffffff8211156129d157600080fd5b6020019150600581901b36038213156129e957600080fd5b9250929050565b600082821015612a0257612a0261286d565b500390565b868152602080820187905260a0604083018190528201859052600090869060c08401835b88811015612a59578335612a3e816126d7565b6001600160a01b031682529282019290820190600101612a2b565b506001600160a01b0396909616606085015250505060800152949350505050565b634e487b7160e01b600052604160045260246000fd5b604051601f8201601f1916810167ffffffffffffffff81118282101715612ab957612ab9612a7a565b604052919050565b600067ffffffffffffffff821115612adb57612adb612a7a565b5060051b60200190565b600082601f830112612af657600080fd5b81516020612b0b612b0683612ac1565b612a90565b82815260059290921b84018101918181019086841115612b2a57600080fd5b8286015b84811015612b455780518352918301918301612b2e565b509695505050505050565b600060208284031215612b6257600080fd5b815167ffffffffffffffff811115612b7957600080fd5b612b8584828501612ae5565b949350505050565b600080600060608486031215612ba257600080fd5b8351925060208401519150604084015190509250925092565b6000816000190483118215151615612bd557612bd561286d565b500290565b600063ffffffff808316818516808303821115612bf957612bf961286d565b01949350505050565b600060408284031215612c1457600080fd5b6040516040810181811067ffffffffffffffff82111715612c3757612c37612a7a565b604052825181526020928301519281019290925250919050565b600060208284031215612c6357600080fd5b8151612576816126d7565b60008060408385031215612c8157600080fd5b825167ffffffffffffffff80821115612c9957600080fd5b818501915085601f830112612cad57600080fd5b81516020612cbd612b0683612ac1565b82815260059290921b84018101918181019089841115612cdc57600080fd5b948201945b83861015612d03578551612cf4816126d7565b82529482019490820190612ce1565b91880151919650909350505080821115612d1c57600080fd5b50612d2985828601612ae5565b9150509250929050565b600060208284031215612d4557600080fd5b8151612576816127f8565b60008060408385031215612d6357600080fd5b505080516020909101519092909150565b6020808252602e908201527f496e697469616c697a61626c653a20636f6e747261637420697320616c72656160408201526d191e481a5b9a5d1a585b1a5e995960921b606082015260800190565b6020808252602b908201527f496e697469616c697a61626c653a20636f6e7472616374206973206e6f74206960408201526a6e697469616c697a696e6760a81b606082015260800190565b6000600019821415612e2157612e2161286d565b5060010190565b60005b83811015612e43578181015183820152602001612e2b565b838111156120bc5750506000910152565b6000825161295a818460208701612e28565b6020815260008251806020840152612e85816040850160208701612e28565b601f01601f1916919091016040019291505056fea264697066735822122000df7017c3f720d9bb68ea934009a77ed57bd49f2614a125883572e8531cc94464736f6c634300080a0033",
  "immutableReferences": {},
  "source": "// SPDX-License-Identifier: MIT\r\npragma solidity 0.8.10;\r\n \r\nimport '../../interfaces/IUniswapV2Pair.sol';\r\nimport \"../../interfaces/IUniswapV2Router.sol\";\r\nimport '../../interfaces/IMiniApeV2.sol';\r\nimport '../../interfaces/IMiniComplexRewarderTime.sol';\r\nimport '@openzeppelin/contracts-upgradeable/security/ReentrancyGuardUpgradeable.sol';\r\nimport '@openzeppelin/contracts-upgradeable/token/ERC20/utils/SafeERC20Upgradeable.sol';\r\nimport '@openzeppelin/contracts-upgradeable/token/ERC20/IERC20Upgradeable.sol';\r\nimport '@openzeppelin/contracts-upgradeable/proxy/utils/Initializable.sol';\r\n\r\ncontract UnoFarmApeswap is Initializable, ReentrancyGuardUpgradeable {\r\n    using SafeERC20Upgradeable for IERC20Upgradeable;\r\n    /**\r\n     * @dev DistributionInfo:\r\n     * {block} - Distribution block number.\r\n     * {rewardPerDepositAge} - Distribution reward divided by {totalDepositAge}. \r\n     * {cumulativeRewardAgePerDepositAge} - Sum of {rewardPerDepositAge}s multiplied by distribution interval.\r\n     */\r\n    struct DistributionInfo {\r\n        uint256 block;\r\n        uint256 rewardPerDepositAge;\r\n        uint256 cumulativeRewardAgePerDepositAge;\r\n    }\r\n    /**\r\n     * @dev UserInfo:\r\n     * {stake} - Amount of LP tokens deposited by the user.\r\n     * {depositAge} - User deposits multiplied by blocks the deposit has been in. \r\n     * {reward} - Amount of LP tokens entitled to the user.\r\n     * {lastDistribution} - Distribution ID before the last user deposit.\r\n     * {lastUpdate} - Deposit update block.\r\n     */\r\n    struct UserInfo {\r\n        uint256 stake;\r\n        uint256 depositAge;\r\n        uint256 reward;\r\n        uint32 lastDistribution;\r\n        uint256 lastUpdate;\r\n    }\r\n    /**\r\n     * @dev SwapInfo:\r\n     * {route} - Array of token addresses describing swap routes.\r\n     * {amountOutMin} - The minimum amount of output token that must be received for the transaction not to revert.\r\n     */\r\n    struct SwapInfo{\r\n        address[] route;\r\n        uint256 amountOutMin;\r\n    }\r\n    /**\r\n     * @dev FeeInfo:\r\n     * {feeCollector} - Contract to transfer fees to.\r\n     * {fee} - Fee percentage to collect (10^18 == 100%). \r\n     */\r\n    struct FeeInfo {\r\n        address feeTo;\r\n        uint256 fee;\r\n    }\r\n\r\n    /**\r\n     * @dev Tokens Used:\r\n     * {rewardToken} - Token generated by staking (BANANA).\r\n     * {rewarderToken} - Token generated by ComplexRewarderTime contract.\r\n     * {lpPair} - Token that the strategy maximizes. The same token that users deposit in the {MiniApe}.\r\n     * {tokenA, tokenB} - Tokens that the strategy maximizes.\r\n     */\r\n    address public rewardToken;\r\n    address public rewarderToken;\r\n    address public lpPair;\r\n    address public tokenA;\r\n    address public tokenB;\r\n\r\n    /**\r\n     * @dev Third Party Contracts:\r\n     * {apeswapRouter} - The contract that executes swaps.\r\n     * {MiniApe} -The contract that distibutes {rewardToken}.\r\n     */\r\n    IUniswapV2Router01 private constant apeswapRouter = IUniswapV2Router01(0xC0788A3aD43d79aa53B09c2EaCc313A787d1d607);\r\n    IMiniApeV2 private constant MiniApe = IMiniApeV2(0x54aff400858Dcac39797a81894D9920f16972D1D);\r\n\r\n    /**\r\n     * @dev Contract Variables:\r\n     * {pid} - Pool ID.\r\n\r\n     * {totalDeposits} - Total deposits made by users.\r\n     * {totalDepositAge} - Deposits multiplied by blocks the deposit has been in. Flushed every reward distribution.\r\n     * {totalDepositLastUpdate} - Last {totalDepositAge} update block.\r\n\r\n     * {distributionID} - Current distribution ID.\r\n     * {userInfo} - Info on each user.\r\n     * {distributionInfo} - Info on each distribution.\r\n\r\n     * {fractionMultiplier} - Used to store decimal values.\r\n     */\r\n    uint256 public pid;\r\n\r\n    uint256 private totalDeposits;\r\n    uint256 private totalDepositAge;\r\n    uint256 private totalDepositLastUpdate;\r\n\r\n    uint32 private distributionID;\r\n    mapping(address => UserInfo) private userInfo;\r\n    mapping(uint32 => DistributionInfo) private distributionInfo;\r\n\r\n    uint256 private constant fractionMultiplier = uint256(1 ether);\r\n\r\n    /**\r\n     * @dev Contract Variables:\r\n     * {assetRouter} - The contract from which calls to this farm are made.\r\n     */\r\n    address public assetRouter;\r\n    modifier onlyAssetRouter(){\r\n        require(msg.sender == assetRouter, 'CALLER_NOT_ASSET_ROUTER');\r\n        _;\r\n    }\r\n\r\n    // ============ Methods ============\r\n\r\n    function initialize(address _lpPair, address _assetRouter) external initializer {\r\n        require (_lpPair != address(0), 'BAD_LP_POOL');\r\n        require (_assetRouter != address(0), 'BAD_ASSET_ROUTER');\r\n\r\n        __ReentrancyGuard_init();\r\n        assetRouter = _assetRouter;\r\n\r\n        pid = getPid(_lpPair);\r\n        lpPair = _lpPair;\r\n\r\n        rewardToken = MiniApe.BANANA();\r\n\r\n        address Rewarder = MiniApe.rewarder(pid);\r\n        if (Rewarder != address(0)) {\r\n            (IERC20[] memory rewarderTokenArray, ) = IMiniComplexRewarderTime(Rewarder).pendingTokens(pid, address(0), 0);\r\n            rewarderToken = address(rewarderTokenArray[0]);\r\n            IERC20(rewarderToken).approve(address(apeswapRouter), type(uint256).max);\r\n        }\r\n\r\n        tokenA = IUniswapV2Pair(lpPair).token0();\r\n        tokenB = IUniswapV2Pair(lpPair).token1();\r\n\r\n        distributionInfo[0] = DistributionInfo({\r\n            block: block.number,\r\n            rewardPerDepositAge: 0,\r\n            cumulativeRewardAgePerDepositAge: 0\r\n        });\r\n        distributionID = 1;\r\n        totalDepositLastUpdate = block.number;\r\n\r\n        IERC20(lpPair).approve(address(MiniApe), type(uint256).max);\r\n        IERC20(lpPair).approve(address(apeswapRouter), type(uint256).max);\r\n        IERC20(rewardToken).approve(address(apeswapRouter), type(uint256).max);\r\n        IERC20(tokenA).approve(address(apeswapRouter), type(uint256).max);\r\n        IERC20(tokenB).approve(address(apeswapRouter), type(uint256).max);\r\n    }\r\n\r\n    /**\r\n     * @dev Function that makes the deposits.\r\n     * Deposits provided tokens in the Liquidity Pool, then stakes generated LP tokens in the {MiniApe}.\r\n     */\r\n    function deposit(uint256 amount, address recipient) external nonReentrant onlyAssetRouter{\r\n        require(amount > 0, 'NO_LIQUIDITY_PROVIDED');\r\n\r\n        _updateDeposit(recipient);\r\n        userInfo[recipient].stake += amount;\r\n        totalDeposits += amount;\r\n            \r\n        MiniApe.deposit(pid, amount, address(this));\r\n    }\r\n\r\n    /**\r\n     * @dev Withdraws funds from {origin} and sends them to the {recipient}.\r\n     */\r\n    function withdraw(uint256 amount, uint256 amountAMin, uint256 amountBMin, bool withdrawLP, address origin, address recipient) external nonReentrant onlyAssetRouter returns(uint256 amountA, uint256 amountB){\r\n        require(amount > 0, 'INSUFFICIENT_AMOUNT');\r\n\r\n        _updateDeposit(origin);\r\n        UserInfo storage user = userInfo[origin];\r\n        // Subtract amount from user.reward first, then subtract remainder from user.stake.\r\n        if(amount > user.reward){\r\n            uint256 balance = user.stake + user.reward;\r\n            require(amount <= balance, 'INSUFFICIENT_BALANCE');\r\n            user.stake = balance - amount;\r\n            totalDeposits = totalDeposits + user.reward - amount;\r\n            user.reward = 0;\r\n        } else {\r\n            user.reward -= amount;\r\n        }\r\n\r\n        MiniApe.withdraw(pid, amount, address(this));\r\n        if(withdrawLP){\r\n            IERC20Upgradeable(lpPair).safeTransfer(recipient, amount);\r\n            return (0, 0);\r\n        }\r\n        (amountA, amountB) = apeswapRouter.removeLiquidity(tokenA, tokenB, amount, amountAMin, amountBMin, recipient, block.timestamp);\r\n    }\r\n\r\n    /**\r\n     * @dev Core function of the strat, in charge of updating, collecting and re-investing rewards.\r\n     * 1. It claims rewards from the {MiniApe}.\r\n     * 2. It swaps {rewardToken} token for {tokenA} & {tokenB}.\r\n     * 3. It deposits new LP tokens back to the {MiniApe}.\r\n     */\r\n    function distribute(\r\n        SwapInfo[4] calldata swapInfos,\r\n        SwapInfo[2] calldata feeSwapInfos,\r\n        FeeInfo calldata feeInfo\r\n    ) external onlyAssetRouter nonReentrant returns(uint256 reward){\r\n        require(totalDeposits > 0, 'NO_LIQUIDITY');\r\n        require(distributionInfo[distributionID - 1].block != block.number, 'CANT_CALL_ON_THE_SAME_BLOCK');\r\n\r\n        MiniApe.harvest(pid, address(this));\r\n\r\n        collectFees(feeSwapInfos[0], feeInfo, IERC20Upgradeable(rewardToken));\r\n        collectFees(feeSwapInfos[1], feeInfo, IERC20Upgradeable(rewarderToken));\r\n        { // scope to avoid stack too deep errors\r\n        uint256 rewardTokenHalf = IERC20(rewardToken).balanceOf(address(this)) / 2;\r\n        uint256 rewarderTokenHalf;\r\n        if (rewarderToken != address(0)) {\r\n            rewarderTokenHalf = IERC20(rewarderToken).balanceOf(address(this)) / 2;\r\n        }\r\n        \r\n        if (rewardTokenHalf > 0) {\r\n            if (tokenA != rewardToken) {\r\n                address[] calldata route = swapInfos[0].route;\r\n                require(route[0] == rewardToken && route[route.length - 1] == tokenA, 'BAD_REWARD_TOKEN_A_ROUTE');\r\n                apeswapRouter.swapExactTokensForTokens(rewardTokenHalf, swapInfos[0].amountOutMin, route, address(this), block.timestamp);\r\n            }\r\n\r\n            if (tokenB != rewardToken) {\r\n                address[] calldata route = swapInfos[1].route;\r\n                require(route[0] == rewardToken && route[route.length - 1] == tokenB, 'BAD_REWARD_TOKEN_B_ROUTE');\r\n                apeswapRouter.swapExactTokensForTokens(rewardTokenHalf, swapInfos[1].amountOutMin, route, address(this), block.timestamp);\r\n            }\r\n        }\r\n        \r\n        if (rewarderTokenHalf > 0) {\r\n            if (tokenA != rewarderToken) {\r\n                address[] calldata route = swapInfos[2].route;\r\n                require(route[0] == rewarderToken && route[route.length - 1] == tokenA, 'BAD_REWARDER_TOKEN_A_ROUTE');\r\n                apeswapRouter.swapExactTokensForTokens(rewarderTokenHalf, swapInfos[2].amountOutMin, route, address(this), block.timestamp);\r\n            }\r\n\r\n            if (tokenB != rewarderToken) {\r\n                address[] calldata route = swapInfos[3].route;\r\n                require(route[0] == rewarderToken && route[route.length - 1] == tokenB, 'BAD_REWARDER_TOKEN_B_ROUTE');\r\n                apeswapRouter.swapExactTokensForTokens(rewarderTokenHalf, swapInfos[3].amountOutMin, route, address(this), block.timestamp);\r\n            }\r\n        }\r\n        }\r\n\r\n        (,,reward) = apeswapRouter.addLiquidity(tokenA, tokenB, IERC20(tokenA).balanceOf(address(this)), IERC20(tokenB).balanceOf(address(this)), swapInfos[0].amountOutMin + swapInfos[2].amountOutMin, swapInfos[1].amountOutMin + swapInfos[3].amountOutMin, address(this), block.timestamp);\r\n        \r\n        uint256 rewardPerDepositAge = reward * fractionMultiplier / (totalDepositAge + totalDeposits * (block.number - totalDepositLastUpdate));\r\n        uint256 cumulativeRewardAgePerDepositAge = distributionInfo[distributionID - 1].cumulativeRewardAgePerDepositAge + rewardPerDepositAge * (block.number - distributionInfo[distributionID - 1].block);\r\n\r\n        distributionInfo[distributionID] = DistributionInfo({\r\n            block: block.number,\r\n            rewardPerDepositAge: rewardPerDepositAge,\r\n            cumulativeRewardAgePerDepositAge: cumulativeRewardAgePerDepositAge\r\n        });\r\n\r\n        distributionID += 1;\r\n        totalDepositLastUpdate = block.number;\r\n        totalDepositAge = 0;\r\n            \r\n        MiniApe.deposit(pid, reward, address(this));\r\n    }\r\n    \r\n    /**\r\n     * @dev Swaps and sends fees to feeTo.\r\n     */\r\n    function collectFees(SwapInfo calldata feeSwapInfo, FeeInfo calldata feeInfo, IERC20Upgradeable token) internal {\r\n        if(address(token) != address(0) && feeInfo.feeTo != address(0)){\r\n            uint256 feeAmount = token.balanceOf(address(this)) * feeInfo.fee / fractionMultiplier;\r\n            if(feeAmount > 0){\r\n                address[] calldata route = feeSwapInfo.route;\r\n                if(route.length > 0 && route[0] != route[route.length - 1]){\r\n                    require(route[0] == address(token), 'BAD_FEE_TOKEN_ROUTE');\r\n                    apeswapRouter.swapExactTokensForTokens(feeAmount, feeSwapInfo.amountOutMin, route, feeInfo.feeTo, block.timestamp);\r\n                    return;\r\n                }\r\n                token.safeTransfer(feeInfo.feeTo, feeAmount);\r\n            }\r\n        }\r\n    }\r\n\r\n    /**\r\n     * @dev Returns total funds staked by the {_address}.\r\n     */\r\n    function userBalance(address _address) external view returns (uint256) {\r\n        return userInfo[_address].stake + userReward(_address);\r\n    }\r\n\r\n    /**\r\n     * @dev Returns total funds locked in the farm.\r\n     */\r\n    function getTotalDeposits() external view returns (uint256 _totalDeposits) {\r\n        if(totalDeposits > 0){\r\n            _totalDeposits = MiniApe.userInfo(pid, address(this)).amount;\r\n        }\r\n    }\r\n    \r\n    function _updateDeposit(address _address) internal {\r\n        UserInfo storage user = userInfo[_address];\r\n        // Accumulate deposit age within the current distribution period.\r\n        if (user.lastDistribution == distributionID) {\r\n            // Add deposit age from previous deposit age update to now.\r\n            user.depositAge += user.stake * (block.number - user.lastUpdate);\r\n        } else {\r\n            // A reward has been distributed, update user.reward.\r\n            user.reward = userReward(_address);\r\n            // Count fresh deposit age from previous reward distribution to now.\r\n            user.depositAge = user.stake * (block.number - distributionInfo[distributionID - 1].block);\r\n        }\r\n\r\n        user.lastDistribution = distributionID;\r\n        user.lastUpdate = block.number;\r\n\r\n        // Same with total deposit age.\r\n        totalDepositAge += (block.number - totalDepositLastUpdate) * totalDeposits;\r\n        totalDepositLastUpdate = block.number;\r\n    }\r\n\r\n    function userReward(address _address) internal view returns (uint256) {\r\n        UserInfo memory user = userInfo[_address];\r\n        if (user.lastDistribution == distributionID) {\r\n            // Return user.reward if the distribution after the last user deposit did not happen yet.\r\n            return user.reward;\r\n        }\r\n        DistributionInfo memory lastUserDistributionInfo = distributionInfo[user.lastDistribution];\r\n        uint256 userDepositAge = user.depositAge + user.stake * (lastUserDistributionInfo.block - user.lastUpdate);\r\n        // Calculate reward between the last user deposit and the distribution after that.\r\n        uint256 rewardBeforeDistibution = userDepositAge * lastUserDistributionInfo.rewardPerDepositAge / fractionMultiplier;\r\n        // Calculate reward from the distributions that have happened after the last user deposit.\r\n        uint256 rewardAfterDistribution = user.stake * (distributionInfo[distributionID - 1].cumulativeRewardAgePerDepositAge - lastUserDistributionInfo.cumulativeRewardAgePerDepositAge) / fractionMultiplier;\r\n        return user.reward + rewardBeforeDistibution + rewardAfterDistribution;\r\n    }\r\n\r\n    /**\r\n     * @dev Get pid by iterating over all pools and comparing pids.\r\n     */\r\n    function getPid(address _lpPair) internal view returns (uint256 _pid) {\r\n        bool poolExists = false;\r\n        for (uint256 i = 0; i < MiniApe.poolLength(); i++) {\r\n            if (MiniApe.lpToken(i) == _lpPair) {\r\n                _pid = i;\r\n                poolExists = true;\r\n                break;\r\n            }\r\n        }\r\n        require(poolExists, 'PID_NOT_EXISTS');\r\n        return _pid;\r\n    }\r\n}\r\n",
  "sourcePath": "C:\\Users\\jugli\\Desktop\\uno\\uno-contracts\\contracts\\apps\\apeswap\\UnoFarmApeswap.sol",
  "compiler": {
    "name": "solc",
    "version": "0.8.10+commit.fc410830.Emscripten.clang"
  },
  "schemaVersion": "3.4.11",
  "updatedAt": "2023-01-30T09:13:47.181Z",
  "devdoc": {
    "kind": "dev",
    "methods": {
      "deposit(uint256,address)": {
        "details": "Function that makes the deposits. Deposits provided tokens in the Liquidity Pool, then stakes generated LP tokens in the {MiniApe}."
      },
      "distribute((address[],uint256)[4],(address[],uint256)[2],(address,uint256))": {
        "details": "Core function of the strat, in charge of updating, collecting and re-investing rewards. 1. It claims rewards from the {MiniApe}. 2. It swaps {rewardToken} token for {tokenA} & {tokenB}. 3. It deposits new LP tokens back to the {MiniApe}."
      },
      "getTotalDeposits()": {
        "details": "Returns total funds locked in the farm."
      },
      "userBalance(address)": {
        "details": "Returns total funds staked by the {_address}."
      },
      "withdraw(uint256,uint256,uint256,bool,address,address)": {
        "details": "Withdraws funds from {origin} and sends them to the {recipient}."
      }
    },
    "stateVariables": {
      "apeswapRouter": {
        "details": "Third Party Contracts: {apeswapRouter} - The contract that executes swaps. {MiniApe} -The contract that distibutes {rewardToken}."
      },
      "assetRouter": {
        "details": "Contract Variables: {assetRouter} - The contract from which calls to this farm are made."
      },
      "pid": {
        "details": "Contract Variables: {pid} - Pool ID. {totalDeposits} - Total deposits made by users. {totalDepositAge} - Deposits multiplied by blocks the deposit has been in. Flushed every reward distribution. {totalDepositLastUpdate} - Last {totalDepositAge} update block. {distributionID} - Current distribution ID. {userInfo} - Info on each user. {distributionInfo} - Info on each distribution. {fractionMultiplier} - Used to store decimal values."
      },
      "rewardToken": {
        "details": "Tokens Used: {rewardToken} - Token generated by staking (BANANA). {rewarderToken} - Token generated by ComplexRewarderTime contract. {lpPair} - Token that the strategy maximizes. The same token that users deposit in the {MiniApe}. {tokenA, tokenB} - Tokens that the strategy maximizes."
      }
    },
    "version": 1
  },
  "userdoc": {
    "kind": "user",
    "methods": {},
    "version": 1
  }
}