{
  "contractName": "UnoFarmQuickswap",
  "abi": [
    {
      "anonymous": false,
      "inputs": [
        {
          "indexed": false,
          "internalType": "uint8",
          "name": "version",
          "type": "uint8"
        }
      ],
      "name": "Initialized",
      "type": "event"
    },
    {
      "inputs": [],
      "name": "assetRouter",
      "outputs": [
        {
          "internalType": "address",
          "name": "",
          "type": "address"
        }
      ],
      "stateMutability": "view",
      "type": "function"
    },
    {
      "inputs": [],
      "name": "lpPair",
      "outputs": [
        {
          "internalType": "address",
          "name": "",
          "type": "address"
        }
      ],
      "stateMutability": "view",
      "type": "function"
    },
    {
      "inputs": [],
      "name": "rewardToken",
      "outputs": [
        {
          "internalType": "address",
          "name": "",
          "type": "address"
        }
      ],
      "stateMutability": "view",
      "type": "function"
    },
    {
      "inputs": [],
      "name": "tokenA",
      "outputs": [
        {
          "internalType": "address",
          "name": "",
          "type": "address"
        }
      ],
      "stateMutability": "view",
      "type": "function"
    },
    {
      "inputs": [],
      "name": "tokenB",
      "outputs": [
        {
          "internalType": "address",
          "name": "",
          "type": "address"
        }
      ],
      "stateMutability": "view",
      "type": "function"
    },
    {
      "inputs": [
        {
          "internalType": "address",
          "name": "_lpStakingPool",
          "type": "address"
        },
        {
          "internalType": "address",
          "name": "_assetRouter",
          "type": "address"
        }
      ],
      "name": "initialize",
      "outputs": [],
      "stateMutability": "nonpayable",
      "type": "function"
    },
    {
      "inputs": [
        {
          "internalType": "uint256",
          "name": "amountA",
          "type": "uint256"
        },
        {
          "internalType": "uint256",
          "name": "amountB",
          "type": "uint256"
        },
        {
          "internalType": "uint256",
          "name": "amountAMin",
          "type": "uint256"
        },
        {
          "internalType": "uint256",
          "name": "amountBMin",
          "type": "uint256"
        },
        {
          "internalType": "uint256",
          "name": "amountLP",
          "type": "uint256"
        },
        {
          "internalType": "address",
          "name": "origin",
          "type": "address"
        },
        {
          "internalType": "address",
          "name": "recipient",
          "type": "address"
        }
      ],
      "name": "deposit",
      "outputs": [
        {
          "internalType": "uint256",
          "name": "sentA",
          "type": "uint256"
        },
        {
          "internalType": "uint256",
          "name": "sentB",
          "type": "uint256"
        },
        {
          "internalType": "uint256",
          "name": "liquidity",
          "type": "uint256"
        }
      ],
      "stateMutability": "nonpayable",
      "type": "function"
    },
    {
      "inputs": [
        {
          "internalType": "uint256",
          "name": "amount",
          "type": "uint256"
        },
        {
          "internalType": "uint256",
          "name": "amountAMin",
          "type": "uint256"
        },
        {
          "internalType": "uint256",
          "name": "amountBMin",
          "type": "uint256"
        },
        {
          "internalType": "bool",
          "name": "withdrawLP",
          "type": "bool"
        },
        {
          "internalType": "address",
          "name": "origin",
          "type": "address"
        },
        {
          "internalType": "address",
          "name": "recipient",
          "type": "address"
        }
      ],
      "name": "withdraw",
      "outputs": [
        {
          "internalType": "uint256",
          "name": "amountA",
          "type": "uint256"
        },
        {
          "internalType": "uint256",
          "name": "amountB",
          "type": "uint256"
        }
      ],
      "stateMutability": "nonpayable",
      "type": "function"
    },
    {
      "inputs": [
        {
          "internalType": "address[][2]",
          "name": "swapRoutes",
          "type": "address[][2]"
        },
        {
          "internalType": "uint256[2]",
          "name": "amountsOutMin",
          "type": "uint256[2]"
        }
      ],
      "name": "distribute",
      "outputs": [
        {
          "internalType": "uint256",
          "name": "reward",
          "type": "uint256"
        }
      ],
      "stateMutability": "nonpayable",
      "type": "function"
    },
    {
      "inputs": [
        {
          "internalType": "address",
          "name": "_address",
          "type": "address"
        }
      ],
      "name": "userBalance",
      "outputs": [
        {
          "internalType": "uint256",
          "name": "",
          "type": "uint256"
        }
      ],
      "stateMutability": "view",
      "type": "function"
    },
    {
      "inputs": [],
      "name": "getTotalDeposits",
      "outputs": [
        {
          "internalType": "uint256",
          "name": "_totalDeposits",
          "type": "uint256"
        }
      ],
      "stateMutability": "view",
      "type": "function"
    }
  ],
  "bytecode": "0x608060405234801561001057600080fd5b506123eb806100206000396000f3fe608060405234801561001057600080fd5b50600436106100a95760003560e01c8063485cc95511610071578063485cc955146101485780635f64b55b1461015d57806394c323f714610170578063bc0aac1014610183578063d563468314610196578063f7c618c1146101be57600080fd5b80630103c92b146100ae5780630fc63d10146100d45780631666768a146100ff578063168a48221461012d578063452ed4f114610135575b600080fd5b6100c16100bc366004611d2c565b6101d1565b6040519081526020015b60405180910390f35b6035546100e7906001600160a01b031681565b6040516001600160a01b0390911681526020016100cb565b61011261010d366004611d49565b610205565b604080519384526020840192909252908201526060016100cb565b6100c1610498565b6034546100e7906001600160a01b031681565b61015b610156366004611db2565b610515565b005b6036546100e7906001600160a01b031681565b6100c161017e366004611dfc565b610b88565b603e546100e7906001600160a01b031681565b6101a96101a4366004611e59565b611417565b604080519283526020830191909152016100cb565b6033546100e7906001600160a01b031681565b60006101dc826116dd565b6001600160a01b0383166000908152603c60205260409020546101ff9190611ed6565b92915050565b6000806000600260015414156102365760405162461bcd60e51b815260040161022d90611eee565b60405180910390fd5b6002600155603e546001600160a01b031633146102655760405162461bcd60e51b815260040161022d90611f25565b6000808b118015610276575060008a115b1561033e5773a5e0829caced8ffdd4de3c43696c57f7d7a678ff6001600160a01b031663e8e33700603560009054906101000a90046001600160a01b0316603660009054906101000a90046001600160a01b03168e8e8e8e30426040518963ffffffff1660e01b81526004016102f3989796959493929190611f5c565b6060604051808303816000875af1158015610312573d6000803e3d6000fd5b505050506040513d601f19601f820116820180604052508101906103369190611fa5565b919550935090505b6103488782611ed6565b9150600082116103925760405162461bcd60e51b81526020600482015260156024820152741393d7d3125455525112551657d41493d592511151605a1b604482015260640161022d565b61039b85611872565b6001600160a01b0385166000908152603c6020526040812080548492906103c3908490611ed6565b9250508190555081603860008282546103dc9190611ed6565b909155505060375460405163534a7e1d60e11b8152600481018490526001600160a01b039091169063a694fc3a90602401600060405180830381600087803b15801561042757600080fd5b505af115801561043b573d6000803e3d6000fd5b5050505061046286858d61044f9190611fd3565b6035546001600160a01b03169190611997565b61048386610470858d611fd3565b6036546001600160a01b03169190611997565b50600180819055509750975097945050505050565b60385460009015610512576037546040516370a0823160e01b81523060048201526001600160a01b03909116906370a0823190602401602060405180830381865afa1580156104eb573d6000803e3d6000fd5b505050506040513d601f19601f8201168201806040525081019061050f9190611fea565b90505b90565b600061052160016119e9565b90508015610539576000805461ff0019166101001790555b6001600160a01b03831661057d5760405162461bcd60e51b815260206004820152600b60248201526a10905117d31417d413d3d360aa1b604482015260640161022d565b6001600160a01b0382166105c65760405162461bcd60e51b815260206004820152601060248201526f2120a22fa0a9a9a2aa2fa927aaaa22a960811b604482015260640161022d565b6105ce611a71565b603e80546001600160a01b038085166001600160a01b031992831617909255603780549286169290911682179055604080516372f702f360e01b815290516372f702f3916004808201926020929091908290030181865afa158015610637573d6000803e3d6000fd5b505050506040513d601f19601f8201168201806040525081019061065b9190612003565b603480546001600160a01b0319166001600160a01b039283161790556037546040805163d1af0c7d60e01b81529051919092169163d1af0c7d9160048083019260209291908290030181865afa1580156106b9573d6000803e3d6000fd5b505050506040513d601f19601f820116820180604052508101906106dd9190612003565b603380546001600160a01b0319166001600160a01b0392831617905560345460408051630dfe168160e01b815290519190921691630dfe16819160048083019260209291908290030181865afa15801561073b573d6000803e3d6000fd5b505050506040513d601f19601f8201168201806040525081019061075f9190612003565b603580546001600160a01b0319166001600160a01b039283161790556034546040805163d21220a760e01b81529051919092169163d21220a79160048083019260209291908290030181865afa1580156107bd573d6000803e3d6000fd5b505050506040513d601f19601f820116820180604052508101906107e19190612003565b603680546001600160a01b0319166001600160a01b03928316179055604080516060810182524380825260006020808401828152848601838152928052603d90915292517fb4447350905ade30fbbf16eb128316f54a45abd6b02d89811edf7bbf0bb1ba7c5591517fb4447350905ade30fbbf16eb128316f54a45abd6b02d89811edf7bbf0bb1ba7d5590517fb4447350905ade30fbbf16eb128316f54a45abd6b02d89811edf7bbf0bb1ba7e55603b805463ffffffff19166001179055603a55603454905163095ea7b360e01b81528583166004820152600019602482015291169063095ea7b3906044016020604051808303816000875af11580156108ec573d6000803e3d6000fd5b505050506040513d601f19601f820116820180604052508101906109109190612020565b5060345460405163095ea7b360e01b815273a5e0829caced8ffdd4de3c43696c57f7d7a678ff600482015260001960248201526001600160a01b039091169063095ea7b3906044016020604051808303816000875af1158015610977573d6000803e3d6000fd5b505050506040513d601f19601f8201168201806040525081019061099b9190612020565b5060335460405163095ea7b360e01b815273a5e0829caced8ffdd4de3c43696c57f7d7a678ff600482015260001960248201526001600160a01b039091169063095ea7b3906044016020604051808303816000875af1158015610a02573d6000803e3d6000fd5b505050506040513d601f19601f82011682018060405250810190610a269190612020565b5060355460405163095ea7b360e01b815273a5e0829caced8ffdd4de3c43696c57f7d7a678ff600482015260001960248201526001600160a01b039091169063095ea7b3906044016020604051808303816000875af1158015610a8d573d6000803e3d6000fd5b505050506040513d601f19601f82011682018060405250810190610ab19190612020565b5060365460405163095ea7b360e01b815273a5e0829caced8ffdd4de3c43696c57f7d7a678ff600482015260001960248201526001600160a01b039091169063095ea7b3906044016020604051808303816000875af1158015610b18573d6000803e3d6000fd5b505050506040513d601f19601f82011682018060405250810190610b3c9190612020565b508015610b83576000805461ff0019169055604051600181527f7f26b83ff96e1f2b6a682f133852f6798a09c465da95921460cefb38474024989060200160405180910390a15b505050565b603e546000906001600160a01b03163314610bb55760405162461bcd60e51b815260040161022d90611f25565b60026001541415610bd85760405162461bcd60e51b815260040161022d90611eee565b6002600155603854610c1b5760405162461bcd60e51b815260206004820152600c60248201526b4e4f5f4c495155494449545960a01b604482015260640161022d565b603b544390603d90600090610c389060019063ffffffff1661203d565b63ffffffff1681526020810191909152604001600020541415610c9d5760405162461bcd60e51b815260206004820152601b60248201527f43414e545f43414c4c5f4f4e5f5448455f53414d455f424c4f434b0000000000604482015260640161022d565b603760009054906101000a90046001600160a01b03166001600160a01b0316633d18b9126040518163ffffffff1660e01b8152600401600060405180830381600087803b158015610ced57600080fd5b505af1158015610d01573d6000803e3d6000fd5b50506033546040516370a0823160e01b815230600482015260009350600292506001600160a01b03909116906370a0823190602401602060405180830381865afa158015610d53573d6000803e3d6000fd5b505050506040513d601f19601f82011682018060405250810190610d779190611fea565b610d819190612062565b6033546035549192506001600160a01b03918216911614610f24576033546001600160a01b0316610db2858061209a565b6000818110610dc357610dc3612084565b9050602002016020810190610dd89190611d2c565b6001600160a01b0316148015610e4557506035546001600160a01b0316610dff858061209a565b6001610e0b888061209a565b610e16929150611fd3565b818110610e2557610e25612084565b9050602002016020810190610e3a9190611d2c565b6001600160a01b0316145b610e915760405162461bcd60e51b815260206004820152601860248201527f4241445f5245574152445f544f4b454e5f415f524f5554450000000000000000604482015260640161022d565b73a5e0829caced8ffdd4de3c43696c57f7d7a678ff6338ed1739828535610eb8888061209a565b30426040518763ffffffff1660e01b8152600401610edb969594939291906120eb565b6000604051808303816000875af1158015610efa573d6000803e3d6000fd5b505050506040513d6000823e601f3d908101601f19168201604052610f229190810190612174565b505b6033546036546001600160a01b039081169116146110d4576033546001600160a01b0316610f55602086018661209a565b6000818110610f6657610f66612084565b9050602002016020810190610f7b9190611d2c565b6001600160a01b0316148015610fee57506036546001600160a01b0316610fa5602086018661209a565b6001610fb4602089018961209a565b610fbf929150611fd3565b818110610fce57610fce612084565b9050602002016020810190610fe39190611d2c565b6001600160a01b0316145b61103a5760405162461bcd60e51b815260206004820152601860248201527f4241445f5245574152445f544f4b454e5f425f524f5554450000000000000000604482015260640161022d565b73a5e0829caced8ffdd4de3c43696c57f7d7a678ff6338ed173982602080870135906110689089018961209a565b30426040518763ffffffff1660e01b815260040161108b969594939291906120eb565b6000604051808303816000875af11580156110aa573d6000803e3d6000fd5b505050506040513d6000823e601f3d908101601f191682016040526110d29190810190612174565b505b6035546036546040516370a0823160e01b815230600482015273a5e0829caced8ffdd4de3c43696c57f7d7a678ff9263e8e33700926001600160a01b039182169291169082906370a0823190602401602060405180830381865afa158015611140573d6000803e3d6000fd5b505050506040513d601f19601f820116820180604052508101906111649190611fea565b6036546040516370a0823160e01b81523060048201526001600160a01b03909116906370a0823190602401602060405180830381865afa1580156111ac573d6000803e3d6000fd5b505050506040513d601f19601f820116820180604052508101906111d09190611fea565b6040516001600160e01b031960e087901b16815261120194939291908a359060208c01359030904290600401611f5c565b6060604051808303816000875af1158015611220573d6000803e3d6000fd5b505050506040513d601f19601f820116820180604052508101906112449190611fa5565b603a5490945060009250611259915043611fd3565b6038546112669190612232565b6039546112739190611ed6565b611285670de0b6b3a764000085612232565b61128f9190612062565b603b54909150600090603d9082906112af9060019063ffffffff1661203d565b63ffffffff1681526020810191909152604001600020546112d09043611fd3565b6112da9083612232565b603b54603d906000906112f59060019063ffffffff1661203d565b63ffffffff1663ffffffff1681526020019081526020016000206002015461131d9190611ed6565b604080516060810182524381526020808201868152828401858152603b805463ffffffff9081166000908152603d9095529584209451855591516001858101919091559051600290940193909355805494955091939192909161138291859116612251565b825463ffffffff9182166101009390930a92830291909202199091161790555043603a55600060395560375460405163534a7e1d60e11b8152600481018690526001600160a01b039091169063a694fc3a90602401600060405180830381600087803b1580156113f157600080fd5b505af1158015611405573d6000803e3d6000fd5b50506001805550939695505050505050565b6000806002600154141561143d5760405162461bcd60e51b815260040161022d90611eee565b6002600155603e546001600160a01b0316331461146c5760405162461bcd60e51b815260040161022d90611f25565b600088116114b25760405162461bcd60e51b8152602060048201526013602482015272125394d551919250d251539517d05353d55395606a1b604482015260640161022d565b6114bb84611872565b6001600160a01b0384166000908152603c60205260409020600281015489111561157457600281015481546000916114f291611ed6565b9050808a111561153b5760405162461bcd60e51b8152602060048201526014602482015273494e53554646494349454e545f42414c414e434560601b604482015260640161022d565b6115458a82611fd3565b825560028201546038548b9161155a91611ed6565b6115649190611fd3565b603855506000600282015561158e565b888160020160008282546115889190611fd3565b90915550505b603754604051632e1a7d4d60e01b8152600481018b90526001600160a01b0390911690632e1a7d4d90602401600060405180830381600087803b1580156115d457600080fd5b505af11580156115e8573d6000803e3d6000fd5b50505050851561161657603454611609906001600160a01b0316858b611997565b60008092509250506116cc565b603554603654604051635d5155ef60e11b81526001600160a01b0392831660048201529082166024820152604481018b9052606481018a90526084810189905290851660a48201524260c482015273a5e0829caced8ffdd4de3c43696c57f7d7a678ff9063baa2abde9060e40160408051808303816000875af11580156116a1573d6000803e3d6000fd5b505050506040513d601f19601f820116820180604052508101906116c59190612279565b9093509150505b600180559097909650945050505050565b6001600160a01b0381166000908152603c60209081526040808320815160a08101835281548152600182015493810193909352600281015491830191909152600381015463ffffffff908116606084018190526004909201546080840152603b5416141561174f576040015192915050565b60608082015163ffffffff166000908152603d602090815260408083208151948501825280548086526001820154938601939093526002015490840152608084015161179a91611fd3565b83516117a69190612232565b83602001516117b59190611ed6565b90506000670de0b6b3a76400008360200151836117d29190612232565b6117dc9190612062565b6040840151603b54919250600091670de0b6b3a76400009190603d90849061180c9060019063ffffffff1661203d565b63ffffffff1663ffffffff168152602001908152602001600020600201546118349190611fd3565b86516118409190612232565b61184a9190612062565b90508082866040015161185d9190611ed6565b6118679190611ed6565b979650505050505050565b6001600160a01b0381166000908152603c60205260409020603b54600382015463ffffffff908116911614156118db5760048101546118b19043611fd3565b81546118bd9190612232565b8160010160008282546118d09190611ed6565b909155506119379050565b6118e4826116dd565b6002820155603b54603d906000906119049060019063ffffffff1661203d565b63ffffffff1681526020810191909152604001600020546119259043611fd3565b81546119319190612232565b60018201555b603b5460038201805463ffffffff191663ffffffff9092169190911790554360048201819055603854603a54909161196f9190611fd3565b6119799190612232565b6039600082825461198a9190611ed6565b909155505043603a555050565b604080516001600160a01b038416602482015260448082018490528251808303909101815260649091019091526020810180516001600160e01b031663a9059cbb60e01b179052610b83908490611aa2565b60008054610100900460ff1615611a30578160ff166001148015611a0c5750303b155b611a285760405162461bcd60e51b815260040161022d9061229d565b506000919050565b60005460ff808416911610611a575760405162461bcd60e51b815260040161022d9061229d565b506000805460ff191660ff92909216919091179055600190565b600054610100900460ff16611a985760405162461bcd60e51b815260040161022d906122eb565b611aa0611b74565b565b6000611af7826040518060400160405280602081526020017f5361666545524332303a206c6f772d6c6576656c2063616c6c206661696c6564815250856001600160a01b0316611ba19092919063ffffffff16565b805190915015610b835780806020019051810190611b159190612020565b610b835760405162461bcd60e51b815260206004820152602a60248201527f5361666545524332303a204552433230206f7065726174696f6e20646964206e6044820152691bdd081cdd58d8d9595960b21b606482015260840161022d565b600054610100900460ff16611b9b5760405162461bcd60e51b815260040161022d906122eb565b60018055565b6060611bb08484600085611bba565b90505b9392505050565b606082471015611c1b5760405162461bcd60e51b815260206004820152602660248201527f416464726573733a20696e73756666696369656e742062616c616e636520666f6044820152651c8818d85b1b60d21b606482015260840161022d565b6001600160a01b0385163b611c725760405162461bcd60e51b815260206004820152601d60248201527f416464726573733a2063616c6c20746f206e6f6e2d636f6e7472616374000000604482015260640161022d565b600080866001600160a01b03168587604051611c8e9190612366565b60006040518083038185875af1925050503d8060008114611ccb576040519150601f19603f3d011682016040523d82523d6000602084013e611cd0565b606091505b509150915061186782828660608315611cea575081611bb3565b825115611cfa5782518084602001fd5b8160405162461bcd60e51b815260040161022d9190612382565b6001600160a01b0381168114611d2957600080fd5b50565b600060208284031215611d3e57600080fd5b8135611bb381611d14565b600080600080600080600060e0888a031215611d6457600080fd5b873596506020880135955060408801359450606088013593506080880135925060a0880135611d9281611d14565b915060c0880135611da281611d14565b8091505092959891949750929550565b60008060408385031215611dc557600080fd5b8235611dd081611d14565b91506020830135611de081611d14565b809150509250929050565b80604081018310156101ff57600080fd5b60008060608385031215611e0f57600080fd5b823567ffffffffffffffff811115611e2657600080fd5b611e3285828601611deb565b925050611e428460208501611deb565b90509250929050565b8015158114611d2957600080fd5b60008060008060008060c08789031215611e7257600080fd5b8635955060208701359450604087013593506060870135611e9281611e4b565b92506080870135611ea281611d14565b915060a0870135611eb281611d14565b809150509295509295509295565b634e487b7160e01b600052601160045260246000fd5b60008219821115611ee957611ee9611ec0565b500190565b6020808252601f908201527f5265656e7472616e637947756172643a207265656e7472616e742063616c6c00604082015260600190565b60208082526017908201527f43414c4c45525f4e4f545f41535345545f524f55544552000000000000000000604082015260600190565b6001600160a01b039889168152968816602088015260408701959095526060860193909352608085019190915260a084015290921660c082015260e08101919091526101000190565b600080600060608486031215611fba57600080fd5b8351925060208401519150604084015190509250925092565b600082821015611fe557611fe5611ec0565b500390565b600060208284031215611ffc57600080fd5b5051919050565b60006020828403121561201557600080fd5b8151611bb381611d14565b60006020828403121561203257600080fd5b8151611bb381611e4b565b600063ffffffff8381169083168181101561205a5761205a611ec0565b039392505050565b60008261207f57634e487b7160e01b600052601260045260246000fd5b500490565b634e487b7160e01b600052603260045260246000fd5b6000808335601e198436030181126120b157600080fd5b83018035915067ffffffffffffffff8211156120cc57600080fd5b6020019150600581901b36038213156120e457600080fd5b9250929050565b868152602080820187905260a0604083018190528201859052600090869060c08401835b8881101561213d57833561212281611d14565b6001600160a01b03168252928201929082019060010161210f565b506001600160a01b0396909616606085015250505060800152949350505050565b634e487b7160e01b600052604160045260246000fd5b6000602080838503121561218757600080fd5b825167ffffffffffffffff8082111561219f57600080fd5b818501915085601f8301126121b357600080fd5b8151818111156121c5576121c561215e565b8060051b604051601f19603f830116810181811085821117156121ea576121ea61215e565b60405291825284820192508381018501918883111561220857600080fd5b938501935b828510156122265784518452938501939285019261220d565b98975050505050505050565b600081600019048311821515161561224c5761224c611ec0565b500290565b600063ffffffff80831681851680830382111561227057612270611ec0565b01949350505050565b6000806040838503121561228c57600080fd5b505080516020909101519092909150565b6020808252602e908201527f496e697469616c697a61626c653a20636f6e747261637420697320616c72656160408201526d191e481a5b9a5d1a585b1a5e995960921b606082015260800190565b6020808252602b908201527f496e697469616c697a61626c653a20636f6e7472616374206973206e6f74206960408201526a6e697469616c697a696e6760a81b606082015260800190565b60005b83811015612351578181015183820152602001612339565b83811115612360576000848401525b50505050565b60008251612378818460208701612336565b9190910192915050565b60208152600082518060208401526123a1816040850160208701612336565b601f01601f1916919091016040019291505056fea26469706673582212200bbd6cc84166e629e82e2dcc78492686a0a2964fa6463e8260b2a198511d326564736f6c634300080a0033",
  "immutableReferences": {},
  "source": "// SPDX-License-Identifier: MIT\r\npragma solidity 0.8.10;\r\n \r\nimport '../../interfaces/IUniswapV2Pair.sol';\r\nimport '../../interfaces/IUniswapV2Router.sol';\r\nimport '../../interfaces/IStakingRewards.sol';\r\nimport '@openzeppelin/contracts-upgradeable/security/ReentrancyGuardUpgradeable.sol';\r\nimport '@openzeppelin/contracts-upgradeable/token/ERC20/utils/SafeERC20Upgradeable.sol';\r\nimport '@openzeppelin/contracts-upgradeable/token/ERC20/IERC20Upgradeable.sol';\r\nimport '@openzeppelin/contracts-upgradeable/proxy/utils/Initializable.sol';\r\n\r\ncontract UnoFarmQuickswap is Initializable, ReentrancyGuardUpgradeable {\r\n    using SafeERC20Upgradeable for IERC20Upgradeable;\r\n    /**\r\n     * @dev DistributionInfo:\r\n     * {block} - Distribution block number.\r\n     * {rewardPerDepositAge} - Distribution reward divided by {totalDepositAge}. \r\n     * {cumulativeRewardAgePerDepositAge} - Sum of {rewardPerDepositAge}s multiplied by distribution interval.\r\n     */\r\n    struct DistributionInfo {\r\n        uint256 block;\r\n        uint256 rewardPerDepositAge;\r\n        uint256 cumulativeRewardAgePerDepositAge;\r\n    }\r\n    /**\r\n     * @dev UserInfo:\r\n     * {stake} - Amount of LP tokens deposited by the user.\r\n     * {depositAge} - User deposits multiplied by blocks the deposit has been in. \r\n     * {reward} - Amount of LP tokens entitled to the user.\r\n     * {lastDistribution} - Distribution ID before the last user deposit.\r\n     * {lastUpdate} - Deposit update block.\r\n     */\r\n    struct UserInfo {\r\n        uint256 stake;\r\n        uint256 depositAge;\r\n        uint256 reward;\r\n        uint32 lastDistribution;\r\n        uint256 lastUpdate;\r\n    }\r\n\r\n    /**\r\n     * @dev Tokens Used:\r\n     * {rewardToken} - Token generated by staking.\r\n     * {lpPair} - Token that the strategy maximizes. The same token that users deposit in the {lpStakingPool}.\r\n     * {tokenA, tokenB} - Tokens that the strategy maximizes.\r\n     */\r\n    address public rewardToken;\r\n    address public lpPair;\r\n    address public tokenA;\r\n    address public tokenB;\r\n\r\n    /**\r\n     * @dev Third Party Contracts:\r\n     * {quickswapRouter} - Contract that executes swaps.\r\n     * {lpStakingPool} - Contract that distibutes {rewardToken}.\r\n     */\r\n    IUniswapV2Router01 private constant quickswapRouter = IUniswapV2Router01(0xa5E0829CaCEd8fFDD4De3c43696c57F7D7A678ff); \r\n    IStakingRewards private lpStakingPool;\r\n\r\n    /**\r\n     * @dev Contract Variables:\r\n     * {totalDeposits} - Total deposits made by users.\r\n     * {totalDepositAge} - Deposits multiplied by blocks the deposit has been in. Flushed every reward distribution.\r\n     * {totalDepositLastUpdate} - Last {totalDepositAge} update block.\r\n\r\n     * {distributionID} - Current distribution ID.\r\n     * {userInfo} - Info on each user.\r\n     * {distributionInfo} - Info on each distribution.\r\n\r\n     * {fractionMultiplier} - Used to store decimal values.\r\n     */\r\n    uint256 private totalDeposits;\r\n    uint256 private totalDepositAge;\r\n    uint256 private totalDepositLastUpdate;\r\n\r\n    uint32 private distributionID;\r\n    mapping(address => UserInfo) private userInfo;\r\n    mapping(uint32 => DistributionInfo) private distributionInfo;\r\n\r\n    uint256 private constant fractionMultiplier = uint256(1 ether);\r\n\r\n    /**\r\n     * @dev Contract Variables:\r\n     * {assetRouter} - The contract from which calls to this farm are made.\r\n     */\r\n    address public assetRouter;\r\n    modifier onlyAssetRouter(){\r\n        require(msg.sender == assetRouter, 'CALLER_NOT_ASSET_ROUTER');\r\n        _;\r\n    }\r\n\r\n    // ============ Methods ============\r\n\r\n    function initialize(address _lpStakingPool, address _assetRouter) external initializer {\r\n        require (_lpStakingPool != address(0), 'BAD_LP_POOL');\r\n        require (_assetRouter != address(0), 'BAD_ASSET_ROUTER');\r\n\r\n        __ReentrancyGuard_init();\r\n        assetRouter = _assetRouter;\r\n\r\n        lpStakingPool = IStakingRewards(_lpStakingPool);\r\n        lpPair = address(lpStakingPool.stakingToken());\r\n\r\n        rewardToken = lpStakingPool.rewardsToken();\r\n\r\n        tokenA = IUniswapV2Pair(lpPair).token0();\r\n        tokenB = IUniswapV2Pair(lpPair).token1();\r\n\r\n        distributionInfo[0] = DistributionInfo({\r\n            block: block.number,\r\n            rewardPerDepositAge: 0,\r\n            cumulativeRewardAgePerDepositAge: 0\r\n        });\r\n        distributionID = 1;\r\n        totalDepositLastUpdate = block.number;\r\n\r\n        IERC20(lpPair).approve(_lpStakingPool, type(uint256).max);\r\n        IERC20(lpPair).approve(address(quickswapRouter), type(uint256).max);\r\n        IERC20(rewardToken).approve(address(quickswapRouter), type(uint256).max);\r\n        IERC20(tokenA).approve(address(quickswapRouter), type(uint256).max);\r\n        IERC20(tokenB).approve(address(quickswapRouter), type(uint256).max);\r\n    }\r\n\r\n    /**\r\n     * @dev Function that makes the deposits.\r\n     * Deposits provided tokens in the Liquidity Pool, then stakes generated LP tokens in the {lpStakingPool}.\r\n     */\r\n    function deposit(uint256 amountA, uint256 amountB, uint256 amountAMin, uint256 amountBMin, uint256 amountLP, address origin, address recipient) external nonReentrant onlyAssetRouter returns(uint256 sentA, uint256 sentB, uint256 liquidity){\r\n        uint256 addedLiquidity;\r\n        if(amountA > 0 && amountB > 0){\r\n            (sentA, sentB, addedLiquidity) = quickswapRouter.addLiquidity(tokenA, tokenB, amountA, amountB, amountAMin, amountBMin, address(this), block.timestamp);\r\n        }\r\n        liquidity = addedLiquidity + amountLP;\r\n        require(liquidity > 0, 'NO_LIQUIDITY_PROVIDED');\r\n\r\n        _updateDeposit(recipient);\r\n        userInfo[recipient].stake += liquidity;\r\n        totalDeposits += liquidity;\r\n            \r\n        lpStakingPool.stake(liquidity);\r\n        IERC20Upgradeable(tokenA).safeTransfer(origin, amountA - sentA);\r\n        IERC20Upgradeable(tokenB).safeTransfer(origin, amountB - sentB);\r\n    }\r\n\r\n    /**\r\n     * @dev Withdraws funds from {origin} and sends them to the {recipient}.\r\n     */\r\n    function withdraw(uint256 amount, uint256 amountAMin, uint256 amountBMin, bool withdrawLP, address origin, address recipient) external nonReentrant onlyAssetRouter returns(uint256 amountA, uint256 amountB){\r\n        require(amount > 0, 'INSUFFICIENT_AMOUNT');\r\n\r\n        _updateDeposit(origin);\r\n        UserInfo storage user = userInfo[origin];\r\n        // Subtract amount from user.reward first, then subtract remainder from user.stake.\r\n        if(amount > user.reward){\r\n            uint256 balance = user.stake + user.reward;\r\n            require(amount <= balance, 'INSUFFICIENT_BALANCE');\r\n            user.stake = balance - amount;\r\n            totalDeposits = totalDeposits + user.reward - amount;\r\n            user.reward = 0;\r\n        } else {\r\n            user.reward -= amount;\r\n        }\r\n\r\n        lpStakingPool.withdraw(amount);\r\n        if(withdrawLP){\r\n            IERC20Upgradeable(lpPair).safeTransfer(recipient, amount);\r\n            return (0, 0);\r\n        }\r\n        (amountA, amountB) = quickswapRouter.removeLiquidity(tokenA, tokenB, amount, amountAMin, amountBMin, recipient, block.timestamp);\r\n    }\r\n\r\n    /**\r\n     * @dev Core function of the strat, in charge of updating, collecting and re-investing rewards.\r\n     * 1. It claims rewards from the {lpStakingPool}.\r\n     * 2. It swaps {rewardToken} token for {tokenA} & {tokenB}.\r\n     * 3. It deposits new LP tokens back to the {lpStakingPool}.\r\n     */\r\n    function distribute(\r\n        address[][2] calldata swapRoutes,\r\n        uint256[2] calldata amountsOutMin\r\n    ) external onlyAssetRouter nonReentrant returns(uint256 reward){\r\n        require(totalDeposits > 0, 'NO_LIQUIDITY');\r\n        require(distributionInfo[distributionID - 1].block != block.number, 'CANT_CALL_ON_THE_SAME_BLOCK');\r\n\r\n        lpStakingPool.getReward();\r\n        uint256 rewardTokenHalf = IERC20(rewardToken).balanceOf(address(this)) / 2;\r\n\r\n        if (tokenA != rewardToken) {\r\n            require(swapRoutes[0][0] == rewardToken && swapRoutes[0][swapRoutes[0].length - 1] == tokenA, 'BAD_REWARD_TOKEN_A_ROUTE');\r\n            quickswapRouter.swapExactTokensForTokens(rewardTokenHalf, amountsOutMin[0], swapRoutes[0], address(this), block.timestamp);\r\n        }\r\n        if (tokenB != rewardToken) {\r\n            require(swapRoutes[1][0] == rewardToken && swapRoutes[1][swapRoutes[1].length - 1] == tokenB, 'BAD_REWARD_TOKEN_B_ROUTE');\r\n            quickswapRouter.swapExactTokensForTokens(rewardTokenHalf, amountsOutMin[1], swapRoutes[1], address(this), block.timestamp);\r\n        }\r\n\r\n        (,,reward) = quickswapRouter.addLiquidity(tokenA, tokenB, IERC20(tokenA).balanceOf(address(this)), IERC20(tokenB).balanceOf(address(this)), amountsOutMin[0], amountsOutMin[1], address(this), block.timestamp);\r\n\r\n        uint256 rewardPerDepositAge = reward * fractionMultiplier / (totalDepositAge + totalDeposits * (block.number - totalDepositLastUpdate));\r\n        uint256 cumulativeRewardAgePerDepositAge = distributionInfo[distributionID - 1].cumulativeRewardAgePerDepositAge + rewardPerDepositAge * (block.number - distributionInfo[distributionID - 1].block);\r\n\r\n        distributionInfo[distributionID] = DistributionInfo({\r\n            block: block.number,\r\n            rewardPerDepositAge: rewardPerDepositAge,\r\n            cumulativeRewardAgePerDepositAge: cumulativeRewardAgePerDepositAge\r\n        });\r\n\r\n        distributionID += 1;\r\n        totalDepositLastUpdate = block.number;\r\n        totalDepositAge = 0;\r\n\r\n        lpStakingPool.stake(reward);\r\n    }\r\n\r\n    /**\r\n     * @dev Returns total funds staked by the {_address}.\r\n     */\r\n    function userBalance(address _address) external view returns (uint256) {\r\n        return userInfo[_address].stake + userReward(_address);\r\n    }\r\n\r\n    /**\r\n     * @dev Returns total funds locked in the farm.\r\n     */\r\n    function getTotalDeposits() external view returns (uint256 _totalDeposits) {\r\n        if(totalDeposits > 0){\r\n            _totalDeposits = lpStakingPool.balanceOf(address(this));\r\n        }\r\n    }\r\n\r\n    function _updateDeposit(address _address) internal {\r\n        UserInfo storage user = userInfo[_address];\r\n        // Accumulate deposit age within the current distribution period.\r\n        if (user.lastDistribution == distributionID) {\r\n            // Add deposit age from previous deposit age update to now.\r\n            user.depositAge += user.stake * (block.number - user.lastUpdate);\r\n        } else {\r\n            // A reward has been distributed, update user.reward.\r\n            user.reward = userReward(_address);\r\n            // Count fresh deposit age from previous reward distribution to now.\r\n            user.depositAge = user.stake * (block.number - distributionInfo[distributionID - 1].block);\r\n        }\r\n\r\n        user.lastDistribution = distributionID;\r\n        user.lastUpdate = block.number;\r\n\r\n        // Same with total deposit age.\r\n        totalDepositAge += (block.number - totalDepositLastUpdate) * totalDeposits;\r\n        totalDepositLastUpdate = block.number;\r\n    }\r\n\r\n    function userReward(address _address) internal view returns (uint256) {\r\n        UserInfo memory user = userInfo[_address];\r\n        if (user.lastDistribution == distributionID) {\r\n            // Return user.reward if the distribution after the last user deposit did not happen yet.\r\n            return user.reward;\r\n        }\r\n        DistributionInfo memory lastUserDistributionInfo = distributionInfo[user.lastDistribution];\r\n        uint256 userDepositAge = user.depositAge + user.stake * (lastUserDistributionInfo.block - user.lastUpdate);\r\n        // Calculate reward between the last user deposit and the distribution after that.\r\n        uint256 rewardBeforeDistibution = userDepositAge * lastUserDistributionInfo.rewardPerDepositAge / fractionMultiplier;\r\n        // Calculate reward from the distributions that have happened after the last user deposit.\r\n        uint256 rewardAfterDistribution = user.stake * (distributionInfo[distributionID - 1].cumulativeRewardAgePerDepositAge - lastUserDistributionInfo.cumulativeRewardAgePerDepositAge) / fractionMultiplier;\r\n        return user.reward + rewardBeforeDistibution + rewardAfterDistribution;\r\n    }\r\n}\r\n",
  "sourcePath": "C:\\Users\\nick_\\OneDrive\\\\UNO\\Solidity\\autostrats_balancer\\uno-contracts\\contracts\\apps\\quickswap\\UnoFarmQuickswap.sol",
  "compiler": {
    "name": "solc",
    "version": "0.8.10+commit.fc410830.Emscripten.clang"
  },
  "schemaVersion": "3.4.7",
  "updatedAt": "2022-09-22T13:23:55.334Z",
  "devdoc": {
    "kind": "dev",
    "methods": {
      "deposit(uint256,uint256,uint256,uint256,uint256,address,address)": {
        "details": "Function that makes the deposits. Deposits provided tokens in the Liquidity Pool, then stakes generated LP tokens in the {lpStakingPool}."
      },
      "distribute(address[][2],uint256[2])": {
        "details": "Core function of the strat, in charge of updating, collecting and re-investing rewards. 1. It claims rewards from the {lpStakingPool}. 2. It swaps {rewardToken} token for {tokenA} & {tokenB}. 3. It deposits new LP tokens back to the {lpStakingPool}."
      },
      "getTotalDeposits()": {
        "details": "Returns total funds locked in the farm."
      },
      "userBalance(address)": {
        "details": "Returns total funds staked by the {_address}."
      },
      "withdraw(uint256,uint256,uint256,bool,address,address)": {
        "details": "Withdraws funds from {origin} and sends them to the {recipient}."
      }
    },
    "stateVariables": {
      "assetRouter": {
        "details": "Contract Variables: {assetRouter} - The contract from which calls to this farm are made."
      },
      "quickswapRouter": {
        "details": "Third Party Contracts: {quickswapRouter} - Contract that executes swaps. {lpStakingPool} - Contract that distibutes {rewardToken}."
      },
      "rewardToken": {
        "details": "Tokens Used: {rewardToken} - Token generated by staking. {lpPair} - Token that the strategy maximizes. The same token that users deposit in the {lpStakingPool}. {tokenA, tokenB} - Tokens that the strategy maximizes."
      },
      "totalDeposits": {
        "details": "Contract Variables: {totalDeposits} - Total deposits made by users. {totalDepositAge} - Deposits multiplied by blocks the deposit has been in. Flushed every reward distribution. {totalDepositLastUpdate} - Last {totalDepositAge} update block. {distributionID} - Current distribution ID. {userInfo} - Info on each user. {distributionInfo} - Info on each distribution. {fractionMultiplier} - Used to store decimal values."
      }
    },
    "version": 1
  },
  "userdoc": {
    "kind": "user",
    "methods": {},
    "version": 1
  }
}