{
  "contractName": "UnoFarmQuickswapDual",
  "abi": [
    {
      "anonymous": false,
      "inputs": [
        {
          "indexed": false,
          "internalType": "uint8",
          "name": "version",
          "type": "uint8"
        }
      ],
      "name": "Initialized",
      "type": "event"
    },
    {
      "inputs": [],
      "name": "assetRouter",
      "outputs": [
        {
          "internalType": "address",
          "name": "",
          "type": "address"
        }
      ],
      "stateMutability": "view",
      "type": "function"
    },
    {
      "inputs": [],
      "name": "lpPair",
      "outputs": [
        {
          "internalType": "address",
          "name": "",
          "type": "address"
        }
      ],
      "stateMutability": "view",
      "type": "function"
    },
    {
      "inputs": [],
      "name": "rewardTokenA",
      "outputs": [
        {
          "internalType": "address",
          "name": "",
          "type": "address"
        }
      ],
      "stateMutability": "view",
      "type": "function"
    },
    {
      "inputs": [],
      "name": "rewardTokenB",
      "outputs": [
        {
          "internalType": "address",
          "name": "",
          "type": "address"
        }
      ],
      "stateMutability": "view",
      "type": "function"
    },
    {
      "inputs": [],
      "name": "tokenA",
      "outputs": [
        {
          "internalType": "address",
          "name": "",
          "type": "address"
        }
      ],
      "stateMutability": "view",
      "type": "function"
    },
    {
      "inputs": [],
      "name": "tokenB",
      "outputs": [
        {
          "internalType": "address",
          "name": "",
          "type": "address"
        }
      ],
      "stateMutability": "view",
      "type": "function"
    },
    {
      "inputs": [
        {
          "internalType": "address",
          "name": "_lpStakingPool",
          "type": "address"
        },
        {
          "internalType": "address",
          "name": "_assetRouter",
          "type": "address"
        }
      ],
      "name": "initialize",
      "outputs": [],
      "stateMutability": "nonpayable",
      "type": "function"
    },
    {
      "inputs": [
        {
          "internalType": "uint256",
          "name": "amount",
          "type": "uint256"
        },
        {
          "internalType": "address",
          "name": "recipient",
          "type": "address"
        }
      ],
      "name": "deposit",
      "outputs": [],
      "stateMutability": "nonpayable",
      "type": "function"
    },
    {
      "inputs": [
        {
          "internalType": "uint256",
          "name": "amount",
          "type": "uint256"
        },
        {
          "internalType": "uint256",
          "name": "amountAMin",
          "type": "uint256"
        },
        {
          "internalType": "uint256",
          "name": "amountBMin",
          "type": "uint256"
        },
        {
          "internalType": "bool",
          "name": "withdrawLP",
          "type": "bool"
        },
        {
          "internalType": "address",
          "name": "origin",
          "type": "address"
        },
        {
          "internalType": "address",
          "name": "recipient",
          "type": "address"
        }
      ],
      "name": "withdraw",
      "outputs": [
        {
          "internalType": "uint256",
          "name": "amountA",
          "type": "uint256"
        },
        {
          "internalType": "uint256",
          "name": "amountB",
          "type": "uint256"
        }
      ],
      "stateMutability": "nonpayable",
      "type": "function"
    },
    {
      "inputs": [
        {
          "components": [
            {
              "internalType": "address[]",
              "name": "route",
              "type": "address[]"
            },
            {
              "internalType": "uint256",
              "name": "amountOutMin",
              "type": "uint256"
            }
          ],
          "internalType": "struct UnoFarmQuickswapDual.SwapInfo[4]",
          "name": "swapInfos",
          "type": "tuple[4]"
        },
        {
          "components": [
            {
              "internalType": "address[]",
              "name": "route",
              "type": "address[]"
            },
            {
              "internalType": "uint256",
              "name": "amountOutMin",
              "type": "uint256"
            }
          ],
          "internalType": "struct UnoFarmQuickswapDual.SwapInfo[2]",
          "name": "feeSwapInfos",
          "type": "tuple[2]"
        },
        {
          "components": [
            {
              "internalType": "address",
              "name": "feeTo",
              "type": "address"
            },
            {
              "internalType": "uint256",
              "name": "fee",
              "type": "uint256"
            }
          ],
          "internalType": "struct UnoFarmQuickswapDual.FeeInfo",
          "name": "feeInfo",
          "type": "tuple"
        }
      ],
      "name": "distribute",
      "outputs": [
        {
          "internalType": "uint256",
          "name": "reward",
          "type": "uint256"
        }
      ],
      "stateMutability": "nonpayable",
      "type": "function"
    },
    {
      "inputs": [
        {
          "internalType": "address",
          "name": "_address",
          "type": "address"
        }
      ],
      "name": "userBalance",
      "outputs": [
        {
          "internalType": "uint256",
          "name": "",
          "type": "uint256"
        }
      ],
      "stateMutability": "view",
      "type": "function"
    },
    {
      "inputs": [],
      "name": "getTotalDeposits",
      "outputs": [
        {
          "internalType": "uint256",
          "name": "_totalDeposits",
          "type": "uint256"
        }
      ],
      "stateMutability": "view",
      "type": "function"
    }
  ],
  "bytecode": "0x608060405234801561001057600080fd5b50612ab4806100206000396000f3fe608060405234801561001057600080fd5b50600436106100b45760003560e01c80635f64b55b116100715780635f64b55b1461014d5780636b8ba92c146101605780636e553f6514610173578063aa7b83e314610186578063bc0aac1014610199578063d5634683146101ac57600080fd5b80630103c92b146100b957806308fef24a146100df5780630fc63d10146100f2578063168a48221461011d578063452ed4f114610125578063485cc95514610138575b600080fd5b6100cc6100c7366004612442565b6101d4565b6040519081526020015b60405180910390f35b6100cc6100ed36600461245f565b610208565b603654610105906001600160a01b031681565b6040516001600160a01b0390911681526020016100d6565b6100cc610f52565b603554610105906001600160a01b031681565b61014b6101463660046124ed565b610fcf565b005b603754610105906001600160a01b031681565b603354610105906001600160a01b031681565b61014b610181366004612526565b61174f565b603454610105906001600160a01b031681565b603f54610105906001600160a01b031681565b6101bf6101ba366004612559565b61189e565b604080519283526020830191909152016100d6565b60006101df82611b64565b6001600160a01b0383166000908152603d602052604090205461020291906125d6565b92915050565b603f546000906001600160a01b0316331461023e5760405162461bcd60e51b8152600401610235906125ee565b60405180910390fd5b600260015414156102615760405162461bcd60e51b815260040161023590612625565b60026001556039546102a45760405162461bcd60e51b815260206004820152600c60248201526b4e4f5f4c495155494449545960a01b6044820152606401610235565b603c544390603e906000906102c19060019063ffffffff1661265c565b63ffffffff16815260208101919091526040016000205414156103265760405162461bcd60e51b815260206004820152601b60248201527f43414e545f43414c4c5f4f4e5f5448455f53414d455f424c4f434b00000000006044820152606401610235565b603860009054906101000a90046001600160a01b03166001600160a01b0316633d18b9126040518163ffffffff1660e01b8152600401600060405180830381600087803b15801561037657600080fd5b505af115801561038a573d6000803e3d6000fd5b505050506103c7836000600281106103a4576103a4612681565b6020028101906103b49190612697565b60335484906001600160a01b0316611cf9565b6103ea6103d76020850185612697565b60345484906001600160a01b0316611cf9565b6033546040516370a0823160e01b81523060048201526000916002916001600160a01b03909116906370a0823190602401602060405180830381865afa158015610438573d6000803e3d6000fd5b505050506040513d601f19601f8201168201806040525081019061045c91906126b7565b61046691906126d0565b6034546040516370a0823160e01b81523060048201529192506000916002916001600160a01b0316906370a0823190602401602060405180830381865afa1580156104b5573d6000803e3d6000fd5b505050506040513d601f19601f820116820180604052508101906104d991906126b7565b6104e391906126d0565b90508115610839576033546036546001600160a01b0390811691161461068f573660006105108880612697565b61051a90806126f2565b60335491935091506001600160a01b0316828260008161053c5761053c612681565b90506020020160208101906105519190612442565b6001600160a01b03161480156105aa57506036546001600160a01b0316828261057b600182612743565b81811061058a5761058a612681565b905060200201602081019061059f9190612442565b6001600160a01b0316145b6105f65760405162461bcd60e51b815260206004820152601a60248201527f4241445f5245574152445f415f544f4b454e5f415f524f5554450000000000006044820152606401610235565b73a5e0829caced8ffdd4de3c43696c57f7d7a678ff6338ed17398561061b8b80612697565b60200135858530426040518763ffffffff1660e01b81526004016106449695949392919061275a565b6000604051808303816000875af1158015610663573d6000803e3d6000fd5b505050506040513d6000823e601f3d908101601f1916820160405261068b91908101906127e3565b5050505b6033546037546001600160a01b03908116911614610839573660006106b76020890189612697565b6106c190806126f2565b60335491935091506001600160a01b031682826000816106e3576106e3612681565b90506020020160208101906106f89190612442565b6001600160a01b031614801561075157506037546001600160a01b03168282610722600182612743565b81811061073157610731612681565b90506020020160208101906107469190612442565b6001600160a01b0316145b61079d5760405162461bcd60e51b815260206004820152601a60248201527f4241445f5245574152445f415f544f4b454e5f425f524f5554450000000000006044820152606401610235565b73a5e0829caced8ffdd4de3c43696c57f7d7a678ff6338ed1739856107c560208c018c612697565b60200135858530426040518763ffffffff1660e01b81526004016107ee9695949392919061275a565b6000604051808303816000875af115801561080d573d6000803e3d6000fd5b505050506040513d6000823e601f3d908101601f1916820160405261083591908101906127e3565b5050505b8015610b93576034546036546001600160a01b039081169116146109e9573660006108676040890189612697565b61087190806126f2565b60345491935091506001600160a01b0316828260008161089357610893612681565b90506020020160208101906108a89190612442565b6001600160a01b031614801561090157506036546001600160a01b031682826108d2600182612743565b8181106108e1576108e1612681565b90506020020160208101906108f69190612442565b6001600160a01b0316145b61094d5760405162461bcd60e51b815260206004820152601a60248201527f4241445f5245574152445f425f544f4b454e5f415f524f5554450000000000006044820152606401610235565b73a5e0829caced8ffdd4de3c43696c57f7d7a678ff6338ed17398461097560408c018c612697565b60200135858530426040518763ffffffff1660e01b815260040161099e9695949392919061275a565b6000604051808303816000875af11580156109bd573d6000803e3d6000fd5b505050506040513d6000823e601f3d908101601f191682016040526109e591908101906127e3565b5050505b6034546037546001600160a01b03908116911614610b9357366000610a116060890189612697565b610a1b90806126f2565b60345491935091506001600160a01b03168282600081610a3d57610a3d612681565b9050602002016020810190610a529190612442565b6001600160a01b0316148015610aab57506037546001600160a01b03168282610a7c600182612743565b818110610a8b57610a8b612681565b9050602002016020810190610aa09190612442565b6001600160a01b0316145b610af75760405162461bcd60e51b815260206004820152601a60248201527f4241445f5245574152445f425f544f4b454e5f425f524f5554450000000000006044820152606401610235565b73a5e0829caced8ffdd4de3c43696c57f7d7a678ff6338ed173984610b1f60608c018c612697565b60200135858530426040518763ffffffff1660e01b8152600401610b489695949392919061275a565b6000604051808303816000875af1158015610b67573d6000803e3d6000fd5b505050506040513d6000823e601f3d908101601f19168201604052610b8f91908101906127e3565b5050505b50506036546037546040516370a0823160e01b815230600482015273a5e0829caced8ffdd4de3c43696c57f7d7a678ff9263e8e33700926001600160a01b039182169291169082906370a0823190602401602060405180830381865afa158015610c01573d6000803e3d6000fd5b505050506040513d601f19601f82011682018060405250810190610c2591906126b7565b6037546040516370a0823160e01b81523060048201526001600160a01b03909116906370a0823190602401602060405180830381865afa158015610c6d573d6000803e3d6000fd5b505050506040513d601f19601f82011682018060405250810190610c9191906126b7565b610c9e60408b018b612697565b60200135610cac8b80612697565b60200135610cba91906125d6565b610cc760608c018c612697565b60209081013590610cda908d018d612697565b60200135610ce891906125d6565b6040516001600160e01b031960e089901b1681526001600160a01b03968716600482015295909416602486015260448501929092526064840152608483015260a48201523060c48201524260e4820152610104016060604051808303816000875af1158015610d5b573d6000803e3d6000fd5b505050506040513d601f19601f82011682018060405250810190610d7f91906128a1565b603b5490935060009250610d94915043612743565b603954610da191906128cf565b603a54610dae91906125d6565b610dc0670de0b6b3a7640000846128cf565b610dca91906126d0565b603c54909150600090603e908290610dea9060019063ffffffff1661265c565b63ffffffff168152602081019190915260400160002054610e0b9043612743565b610e1590836128cf565b603c54603e90600090610e309060019063ffffffff1661265c565b63ffffffff1663ffffffff16815260200190815260200160002060020154610e5891906125d6565b604080516060810182524381526020808201868152828401858152603c805463ffffffff9081166000908152603e90955295842094518555915160018581019190915590516002909401939093558054949550919391929091610ebd918591166128ee565b825463ffffffff9182166101009390930a92830291909202199091161790555043603b556000603a5560385460405163534a7e1d60e11b8152600481018590526001600160a01b039091169063a694fc3a90602401600060405180830381600087803b158015610f2c57600080fd5b505af1158015610f40573d6000803e3d6000fd5b50506001805550929695505050505050565b60395460009015610fcc576038546040516370a0823160e01b81523060048201526001600160a01b03909116906370a0823190602401602060405180830381865afa158015610fa5573d6000803e3d6000fd5b505050506040513d601f19601f82011682018060405250810190610fc991906126b7565b90505b90565b6000610fdb6001611f88565b90508015610ff3576000805461ff0019166101001790555b6001600160a01b0383166110375760405162461bcd60e51b815260206004820152600b60248201526a10905117d31417d413d3d360aa1b6044820152606401610235565b6001600160a01b0382166110805760405162461bcd60e51b815260206004820152601060248201526f2120a22fa0a9a9a2aa2fa927aaaa22a960811b6044820152606401610235565b611088612010565b603f80546001600160a01b038085166001600160a01b031992831617909255603880549286169290911682179055604080516372f702f360e01b815290516372f702f3916004808201926020929091908290030181865afa1580156110f1573d6000803e3d6000fd5b505050506040513d601f19601f820116820180604052508101906111159190612916565b603580546001600160a01b0319166001600160a01b03928316179055603854604080516317f4408360e21b815290519190921691635fd1020c9160048083019260209291908290030181865afa158015611173573d6000803e3d6000fd5b505050506040513d601f19601f820116820180604052508101906111979190612916565b603380546001600160a01b0319166001600160a01b0392831617905560385460408051634462633360e11b8152905191909216916388c4c6669160048083019260209291908290030181865afa1580156111f5573d6000803e3d6000fd5b505050506040513d601f19601f820116820180604052508101906112199190612916565b603480546001600160a01b0319166001600160a01b0392831617905560355460408051630dfe168160e01b815290519190921691630dfe16819160048083019260209291908290030181865afa158015611277573d6000803e3d6000fd5b505050506040513d601f19601f8201168201806040525081019061129b9190612916565b603680546001600160a01b0319166001600160a01b039283161790556035546040805163d21220a760e01b81529051919092169163d21220a79160048083019260209291908290030181865afa1580156112f9573d6000803e3d6000fd5b505050506040513d601f19601f8201168201806040525081019061131d9190612916565b603780546001600160a01b0319166001600160a01b03928316179055604080516060810182524380825260006020808401828152848601838152928052603e90915292517f5f97c64b3c4bdfff50b5c8f505e633128432c6b07fc6c8abc77dce786c7317d45591517f5f97c64b3c4bdfff50b5c8f505e633128432c6b07fc6c8abc77dce786c7317d55590517f5f97c64b3c4bdfff50b5c8f505e633128432c6b07fc6c8abc77dce786c7317d655603c805463ffffffff19166001179055603b55603554905163095ea7b360e01b81528583166004820152600019602482015291169063095ea7b3906044016020604051808303816000875af1158015611428573d6000803e3d6000fd5b505050506040513d601f19601f8201168201806040525081019061144c9190612933565b5060355460405163095ea7b360e01b815273a5e0829caced8ffdd4de3c43696c57f7d7a678ff600482015260001960248201526001600160a01b039091169063095ea7b3906044016020604051808303816000875af11580156114b3573d6000803e3d6000fd5b505050506040513d601f19601f820116820180604052508101906114d79190612933565b5060335460405163095ea7b360e01b815273a5e0829caced8ffdd4de3c43696c57f7d7a678ff600482015260001960248201526001600160a01b039091169063095ea7b3906044016020604051808303816000875af115801561153e573d6000803e3d6000fd5b505050506040513d601f19601f820116820180604052508101906115629190612933565b5060345460405163095ea7b360e01b815273a5e0829caced8ffdd4de3c43696c57f7d7a678ff600482015260001960248201526001600160a01b039091169063095ea7b3906044016020604051808303816000875af11580156115c9573d6000803e3d6000fd5b505050506040513d601f19601f820116820180604052508101906115ed9190612933565b5060365460405163095ea7b360e01b815273a5e0829caced8ffdd4de3c43696c57f7d7a678ff600482015260001960248201526001600160a01b039091169063095ea7b3906044016020604051808303816000875af1158015611654573d6000803e3d6000fd5b505050506040513d601f19601f820116820180604052508101906116789190612933565b5060375460405163095ea7b360e01b815273a5e0829caced8ffdd4de3c43696c57f7d7a678ff600482015260001960248201526001600160a01b039091169063095ea7b3906044016020604051808303816000875af11580156116df573d6000803e3d6000fd5b505050506040513d601f19601f820116820180604052508101906117039190612933565b50801561174a576000805461ff0019169055604051600181527f7f26b83ff96e1f2b6a682f133852f6798a09c465da95921460cefb38474024989060200160405180910390a15b505050565b600260015414156117725760405162461bcd60e51b815260040161023590612625565b6002600155603f546001600160a01b031633146117a15760405162461bcd60e51b8152600401610235906125ee565b600082116117e95760405162461bcd60e51b81526020600482015260156024820152741393d7d3125455525112551657d41493d592511151605a1b6044820152606401610235565b6117f281612041565b6001600160a01b0381166000908152603d60205260408120805484929061181a9084906125d6565b92505081905550816039600082825461183391906125d6565b909155505060385460405163534a7e1d60e11b8152600481018490526001600160a01b039091169063a694fc3a90602401600060405180830381600087803b15801561187e57600080fd5b505af1158015611892573d6000803e3d6000fd5b50506001805550505050565b600080600260015414156118c45760405162461bcd60e51b815260040161023590612625565b6002600155603f546001600160a01b031633146118f35760405162461bcd60e51b8152600401610235906125ee565b600088116119395760405162461bcd60e51b8152602060048201526013602482015272125394d551919250d251539517d05353d55395606a1b6044820152606401610235565b61194284612041565b6001600160a01b0384166000908152603d6020526040902060028101548911156119fb5760028101548154600091611979916125d6565b9050808a11156119c25760405162461bcd60e51b8152602060048201526014602482015273494e53554646494349454e545f42414c414e434560601b6044820152606401610235565b6119cc8a82612743565b825560028201546039548b916119e1916125d6565b6119eb9190612743565b6039555060006002820155611a15565b88816002016000828254611a0f9190612743565b90915550505b603854604051632e1a7d4d60e01b8152600481018b90526001600160a01b0390911690632e1a7d4d90602401600060405180830381600087803b158015611a5b57600080fd5b505af1158015611a6f573d6000803e3d6000fd5b505050508515611a9d57603554611a90906001600160a01b0316858b612166565b6000809250925050611b53565b603654603754604051635d5155ef60e11b81526001600160a01b0392831660048201529082166024820152604481018b9052606481018a90526084810189905290851660a48201524260c482015273a5e0829caced8ffdd4de3c43696c57f7d7a678ff9063baa2abde9060e40160408051808303816000875af1158015611b28573d6000803e3d6000fd5b505050506040513d601f19601f82011682018060405250810190611b4c9190612950565b9093509150505b600180559097909650945050505050565b6001600160a01b0381166000908152603d60209081526040808320815160a08101835281548152600182015493810193909352600281015491830191909152600381015463ffffffff908116606084018190526004909201546080840152603c54161415611bd6576040015192915050565b60608082015163ffffffff166000908152603e6020908152604080832081519485018252805480865260018201549386019390935260020154908401526080840151611c2191612743565b8351611c2d91906128cf565b8360200151611c3c91906125d6565b90506000670de0b6b3a7640000836020015183611c5991906128cf565b611c6391906126d0565b6040840151603c54919250600091670de0b6b3a76400009190603e908490611c939060019063ffffffff1661265c565b63ffffffff1663ffffffff16815260200190815260200160002060020154611cbb9190612743565b8651611cc791906128cf565b611cd191906126d0565b905080828660400151611ce491906125d6565b611cee91906125d6565b979650505050505050565b6000611d086020840184612442565b6001600160a01b03161461174a576040516370a0823160e01b8152306004820152600090670de0b6b3a7640000906020850135906001600160a01b038516906370a0823190602401602060405180830381865afa158015611d6d573d6000803e3d6000fd5b505050506040513d601f19601f82011682018060405250810190611d9191906126b7565b611d9b91906128cf565b611da591906126d0565b90508015611f8257366000611dba86806126f2565b90925090508015801590611e3757508181611dd6600182612743565b818110611de557611de5612681565b9050602002016020810190611dfa9190612442565b6001600160a01b031682826000818110611e1657611e16612681565b9050602002016020810190611e2b9190612442565b6001600160a01b031614155b15611f5e57836001600160a01b031682826000818110611e5957611e59612681565b9050602002016020810190611e6e9190612442565b6001600160a01b031614611eba5760405162461bcd60e51b81526020600482015260136024820152724241445f4645455f544f4b454e5f524f55544560681b6044820152606401610235565b73a5e0829caced8ffdd4de3c43696c57f7d7a678ff6338ed1739846020808a01359086908690611eec908c018c612442565b426040518763ffffffff1660e01b8152600401611f0e9695949392919061275a565b6000604051808303816000875af1158015611f2d573d6000803e3d6000fd5b505050506040513d6000823e601f3d908101601f19168201604052611f5591908101906127e3565b50505050505050565b611f7f611f6e6020870187612442565b6001600160a01b0386169085612166565b50505b50505050565b60008054610100900460ff1615611fcf578160ff166001148015611fab5750303b155b611fc75760405162461bcd60e51b815260040161023590612974565b506000919050565b60005460ff808416911610611ff65760405162461bcd60e51b815260040161023590612974565b506000805460ff191660ff92909216919091179055600190565b600054610100900460ff166120375760405162461bcd60e51b8152600401610235906129c2565b61203f6121b8565b565b6001600160a01b0381166000908152603d60205260409020603c54600382015463ffffffff908116911614156120aa5760048101546120809043612743565b815461208c91906128cf565b81600101600082825461209f91906125d6565b909155506121069050565b6120b382611b64565b6002820155603c54603e906000906120d39060019063ffffffff1661265c565b63ffffffff1681526020810191909152604001600020546120f49043612743565b815461210091906128cf565b60018201555b603c5460038201805463ffffffff191663ffffffff9092169190911790554360048201819055603954603b54909161213e9190612743565b61214891906128cf565b603a600082825461215991906125d6565b909155505043603b555050565b604080516001600160a01b038416602482015260448082018490528251808303909101815260649091019091526020810180516001600160e01b031663a9059cbb60e01b17905261174a9084906121e5565b600054610100900460ff166121df5760405162461bcd60e51b8152600401610235906129c2565b60018055565b600061223a826040518060400160405280602081526020017f5361666545524332303a206c6f772d6c6576656c2063616c6c206661696c6564815250856001600160a01b03166122b79092919063ffffffff16565b80519091501561174a57808060200190518101906122589190612933565b61174a5760405162461bcd60e51b815260206004820152602a60248201527f5361666545524332303a204552433230206f7065726174696f6e20646964206e6044820152691bdd081cdd58d8d9595960b21b6064820152608401610235565b60606122c684846000856122d0565b90505b9392505050565b6060824710156123315760405162461bcd60e51b815260206004820152602660248201527f416464726573733a20696e73756666696369656e742062616c616e636520666f6044820152651c8818d85b1b60d21b6064820152608401610235565b6001600160a01b0385163b6123885760405162461bcd60e51b815260206004820152601d60248201527f416464726573733a2063616c6c20746f206e6f6e2d636f6e74726163740000006044820152606401610235565b600080866001600160a01b031685876040516123a49190612a39565b60006040518083038185875af1925050503d80600081146123e1576040519150601f19603f3d011682016040523d82523d6000602084013e6123e6565b606091505b5091509150611cee828286606083156124005750816122c9565b8251156124105782518084602001fd5b8160405162461bcd60e51b81526004016102359190612a4b565b6001600160a01b038116811461243f57600080fd5b50565b60006020828403121561245457600080fd5b81356122c98161242a565b6000806000838503608081121561247557600080fd5b843567ffffffffffffffff8082111561248d57600080fd5b8187019150876080830111156124a257600080fd5b909450602086013590808211156124b857600080fd5b508501604081018710156124cb57600080fd5b92506040603f19820112156124df57600080fd5b506040840190509250925092565b6000806040838503121561250057600080fd5b823561250b8161242a565b9150602083013561251b8161242a565b809150509250929050565b6000806040838503121561253957600080fd5b82359150602083013561251b8161242a565b801515811461243f57600080fd5b60008060008060008060c0878903121561257257600080fd5b86359550602087013594506040870135935060608701356125928161254b565b925060808701356125a28161242a565b915060a08701356125b28161242a565b809150509295509295509295565b634e487b7160e01b600052601160045260246000fd5b600082198211156125e9576125e96125c0565b500190565b60208082526017908201527f43414c4c45525f4e4f545f41535345545f524f55544552000000000000000000604082015260600190565b6020808252601f908201527f5265656e7472616e637947756172643a207265656e7472616e742063616c6c00604082015260600190565b600063ffffffff83811690831681811015612679576126796125c0565b039392505050565b634e487b7160e01b600052603260045260246000fd5b60008235603e198336030181126126ad57600080fd5b9190910192915050565b6000602082840312156126c957600080fd5b5051919050565b6000826126ed57634e487b7160e01b600052601260045260246000fd5b500490565b6000808335601e1984360301811261270957600080fd5b83018035915067ffffffffffffffff82111561272457600080fd5b6020019150600581901b360382131561273c57600080fd5b9250929050565b600082821015612755576127556125c0565b500390565b868152602080820187905260a0604083018190528201859052600090869060c08401835b888110156127ac5783356127918161242a565b6001600160a01b03168252928201929082019060010161277e565b506001600160a01b0396909616606085015250505060800152949350505050565b634e487b7160e01b600052604160045260246000fd5b600060208083850312156127f657600080fd5b825167ffffffffffffffff8082111561280e57600080fd5b818501915085601f83011261282257600080fd5b815181811115612834576128346127cd565b8060051b604051601f19603f83011681018181108582111715612859576128596127cd565b60405291825284820192508381018501918883111561287757600080fd5b938501935b828510156128955784518452938501939285019261287c565b98975050505050505050565b6000806000606084860312156128b657600080fd5b8351925060208401519150604084015190509250925092565b60008160001904831182151516156128e9576128e96125c0565b500290565b600063ffffffff80831681851680830382111561290d5761290d6125c0565b01949350505050565b60006020828403121561292857600080fd5b81516122c98161242a565b60006020828403121561294557600080fd5b81516122c98161254b565b6000806040838503121561296357600080fd5b505080516020909101519092909150565b6020808252602e908201527f496e697469616c697a61626c653a20636f6e747261637420697320616c72656160408201526d191e481a5b9a5d1a585b1a5e995960921b606082015260800190565b6020808252602b908201527f496e697469616c697a61626c653a20636f6e7472616374206973206e6f74206960408201526a6e697469616c697a696e6760a81b606082015260800190565b60005b83811015612a28578181015183820152602001612a10565b83811115611f825750506000910152565b600082516126ad818460208701612a0d565b6020815260008251806020840152612a6a816040850160208701612a0d565b601f01601f1916919091016040019291505056fea2646970667358221220080f7e8b5e8e42dbc999a82352455248ab432a330c7bd65a6fc7f62df01f5cb764736f6c634300080a0033",
  "immutableReferences": {},
  "source": "// SPDX-License-Identifier: MIT\r\npragma solidity 0.8.10;\r\n \r\nimport '../../interfaces/IUniswapV2Pair.sol';\r\nimport '../../interfaces/IUniswapV2Router.sol';\r\nimport '../../interfaces/IStakingDualRewards.sol';\r\nimport '@openzeppelin/contracts-upgradeable/security/ReentrancyGuardUpgradeable.sol';\r\nimport '@openzeppelin/contracts-upgradeable/token/ERC20/utils/SafeERC20Upgradeable.sol';\r\nimport '@openzeppelin/contracts-upgradeable/token/ERC20/IERC20Upgradeable.sol';\r\nimport '@openzeppelin/contracts-upgradeable/proxy/utils/Initializable.sol';\r\n\r\ncontract UnoFarmQuickswapDual is Initializable, ReentrancyGuardUpgradeable {\r\n    using SafeERC20Upgradeable for IERC20Upgradeable;\r\n    /**\r\n     * @dev DistributionInfo:\r\n     * {block} - Distribution block number.\r\n     * {rewardPerDepositAge} - Distribution reward divided by {totalDepositAge}. \r\n     * {cumulativeRewardAgePerDepositAge} - Sum of {rewardPerDepositAge}s multiplied by distribution interval.\r\n     */\r\n    struct DistributionInfo {\r\n        uint256 block;\r\n        uint256 rewardPerDepositAge;\r\n        uint256 cumulativeRewardAgePerDepositAge;\r\n    }\r\n    /**\r\n     * @dev UserInfo:\r\n     * {stake} - Amount of LP tokens deposited by the user.\r\n     * {depositAge} - User deposits multiplied by blocks the deposit has been in. \r\n     * {reward} - Amount of LP tokens entitled to the user.\r\n     * {lastDistribution} - Distribution ID before the last user deposit.\r\n     * {lastUpdate} - Deposit update block.\r\n     */\r\n    struct UserInfo {\r\n        uint256 stake;\r\n        uint256 depositAge;\r\n        uint256 reward;\r\n        uint32 lastDistribution;\r\n        uint256 lastUpdate;\r\n    }\r\n    /**\r\n     * @dev SwapInfo:\r\n     * {route} - Array of token addresses describing swap routes.\r\n     * {amountOutMin} - The minimum amount of output token that must be received for the transaction not to revert.\r\n     */\r\n    struct SwapInfo{\r\n        address[] route;\r\n        uint256 amountOutMin;\r\n    }\r\n    /**\r\n     * @dev FeeInfo:\r\n     * {feeCollector} - Contract to transfer fees to.\r\n     * {fee} - Fee percentage to collect (10^18 == 100%). \r\n     */\r\n    struct FeeInfo {\r\n        address feeTo;\r\n        uint256 fee;\r\n    }\r\n\r\n    /**\r\n     * @dev Tokens Used:\r\n     * {rewardTokenA, rewardTokenB} - Tokens generated by staking.\r\n     * {lpPair} - Token that the strategy maximizes. The same token that users deposit in the {lpStakingPool}.\r\n     * {tokenA, tokenB} - Tokens that the strategy maximizes.\r\n     */\r\n    address public rewardTokenA;\r\n    address public rewardTokenB;\r\n    address public lpPair;\r\n    address public tokenA;\r\n    address public tokenB;\r\n\r\n    /**\r\n     * @dev Third Party Contracts:\r\n     * {quickswapRouter} - Contract that executes swaps.\r\n     * {lpStakingPool} - Contract that distibutes {rewardTokenA, rewardTokenB}.\r\n     */\r\n    IUniswapV2Router01 private constant quickswapRouter = IUniswapV2Router01(0xa5E0829CaCEd8fFDD4De3c43696c57F7D7A678ff); \r\n    IStakingDualRewards private lpStakingPool;\r\n\r\n    /**\r\n     * @dev Contract Variables:\r\n     * {totalDeposits} - Total deposits made by users.\r\n     * {totalDepositAge} - Deposits multiplied by blocks the deposit has been in. Flushed every reward distribution.\r\n     * {totalDepositLastUpdate} - Last {totalDepositAge} update block.\r\n\r\n     * {distributionID} - Current distribution ID.\r\n     * {userInfo} - Info on each user.\r\n     * {distributionInfo} - Info on each distribution.\r\n\r\n     * {fractionMultiplier} - Used to store decimal values.\r\n     */\r\n    uint256 private totalDeposits;\r\n    uint256 private totalDepositAge;\r\n    uint256 private totalDepositLastUpdate;\r\n\r\n    uint32 private distributionID;\r\n    mapping(address => UserInfo) private userInfo;\r\n    mapping(uint32 => DistributionInfo) private distributionInfo;\r\n\r\n    uint256 private constant fractionMultiplier = uint256(1 ether);\r\n\r\n    /**\r\n     * @dev Contract Variables:\r\n     * {assetRouter} - The contract from which calls to this farm are made.\r\n     */\r\n    address public assetRouter;\r\n    modifier onlyAssetRouter(){\r\n        require(msg.sender == assetRouter, 'CALLER_NOT_ASSET_ROUTER');\r\n        _;\r\n    }\r\n\r\n    // ============ Methods ============\r\n\r\n    function initialize(address _lpStakingPool, address _assetRouter) external initializer {\r\n        require (_lpStakingPool != address(0), 'BAD_LP_POOL');\r\n        require (_assetRouter != address(0), 'BAD_ASSET_ROUTER');\r\n\r\n        __ReentrancyGuard_init();\r\n        assetRouter = _assetRouter;\r\n\r\n        lpStakingPool = IStakingDualRewards(_lpStakingPool);\r\n        lpPair = address(lpStakingPool.stakingToken());\r\n\r\n        rewardTokenA = lpStakingPool.rewardsTokenA();\r\n        rewardTokenB = lpStakingPool.rewardsTokenB();\r\n\r\n        tokenA = IUniswapV2Pair(lpPair).token0();\r\n        tokenB = IUniswapV2Pair(lpPair).token1();\r\n\r\n        distributionInfo[0] = DistributionInfo({\r\n            block: block.number,\r\n            rewardPerDepositAge: 0,\r\n            cumulativeRewardAgePerDepositAge: 0\r\n        });\r\n        distributionID = 1;\r\n        totalDepositLastUpdate = block.number;\r\n\r\n        IERC20(lpPair).approve(_lpStakingPool, type(uint256).max);\r\n        IERC20(lpPair).approve(address(quickswapRouter), type(uint256).max);\r\n        IERC20(rewardTokenA).approve(address(quickswapRouter), type(uint256).max);\r\n        IERC20(rewardTokenB).approve(address(quickswapRouter), type(uint256).max);\r\n        IERC20(tokenA).approve(address(quickswapRouter), type(uint256).max);\r\n        IERC20(tokenB).approve(address(quickswapRouter), type(uint256).max);\r\n    }\r\n\r\n    /**\r\n     * @dev Function that makes the deposits.\r\n     * Deposits provided tokens in the Liquidity Pool, then stakes generated LP tokens in the {lpStakingPool}.\r\n     */\r\n    function deposit(uint256 amount, address recipient) external nonReentrant onlyAssetRouter{\r\n        require(amount > 0, 'NO_LIQUIDITY_PROVIDED');\r\n\r\n        _updateDeposit(recipient);\r\n        userInfo[recipient].stake += amount;\r\n        totalDeposits += amount;\r\n            \r\n        lpStakingPool.stake(amount);\r\n    }\r\n\r\n    /**\r\n     * @dev Withdraws funds from {origin} and sends them to the {recipient}.\r\n     */\r\n    function withdraw(uint256 amount, uint256 amountAMin, uint256 amountBMin, bool withdrawLP, address origin, address recipient) external nonReentrant onlyAssetRouter returns(uint256 amountA, uint256 amountB){\r\n        require(amount > 0, 'INSUFFICIENT_AMOUNT');\r\n\r\n        _updateDeposit(origin);\r\n        UserInfo storage user = userInfo[origin];\r\n        // Subtract amount from user.reward first, then subtract remainder from user.stake.\r\n        if(amount > user.reward){\r\n            uint256 balance = user.stake + user.reward;\r\n            require(amount <= balance, 'INSUFFICIENT_BALANCE');\r\n            user.stake = balance - amount;\r\n            totalDeposits = totalDeposits + user.reward - amount;\r\n            user.reward = 0;\r\n        } else {\r\n            user.reward -= amount;\r\n        }\r\n\r\n        lpStakingPool.withdraw(amount);\r\n        if(withdrawLP){\r\n            IERC20Upgradeable(lpPair).safeTransfer(recipient, amount);\r\n            return (0, 0);\r\n        }\r\n        (amountA, amountB) = quickswapRouter.removeLiquidity(tokenA, tokenB, amount, amountAMin, amountBMin, recipient, block.timestamp);\r\n    }\r\n\r\n    /**\r\n     * @dev Core function of the strat, in charge of updating, collecting and re-investing rewards.\r\n     * 1. It claims rewards from the {lpStakingPool}.\r\n     * 2. It swaps {rewardToken} token for {tokenA} & {tokenB}.\r\n     * 3. It deposits new LP tokens back to the {lpStakingPool}.\r\n     */\r\n    function distribute(\r\n        SwapInfo[4] calldata swapInfos,\r\n        SwapInfo[2] calldata feeSwapInfos,\r\n        FeeInfo calldata feeInfo\r\n    ) external onlyAssetRouter nonReentrant returns(uint256 reward){\r\n        require(totalDeposits > 0, 'NO_LIQUIDITY');\r\n        require(distributionInfo[distributionID - 1].block != block.number, 'CANT_CALL_ON_THE_SAME_BLOCK');\r\n\r\n        lpStakingPool.getReward();\r\n\r\n        collectFees(feeSwapInfos[0], feeInfo, IERC20Upgradeable(rewardTokenA));\r\n        collectFees(feeSwapInfos[1], feeInfo, IERC20Upgradeable(rewardTokenB));\r\n        { // scope to avoid stack too deep errors\r\n        uint256 rewardTokenAHalf = IERC20(rewardTokenA).balanceOf(address(this)) / 2;\r\n        uint256 rewardTokenBHalf = IERC20(rewardTokenB).balanceOf(address(this)) / 2;\r\n        if (rewardTokenAHalf > 0) {\r\n            if (tokenA != rewardTokenA) {\r\n                address[] calldata route = swapInfos[0].route;\r\n                require(route[0] == rewardTokenA && route[route.length - 1] == tokenA, 'BAD_REWARD_A_TOKEN_A_ROUTE');\r\n                quickswapRouter.swapExactTokensForTokens(rewardTokenAHalf, swapInfos[0].amountOutMin, route, address(this), block.timestamp);\r\n            }\r\n\r\n            if (tokenB != rewardTokenA) {\r\n                address[] calldata route = swapInfos[1].route;\r\n                require(route[0] == rewardTokenA && route[route.length - 1] == tokenB, 'BAD_REWARD_A_TOKEN_B_ROUTE');\r\n                quickswapRouter.swapExactTokensForTokens(rewardTokenAHalf, swapInfos[1].amountOutMin, route, address(this), block.timestamp);\r\n            }\r\n        }\r\n        if (rewardTokenBHalf > 0) {\r\n            if (tokenA != rewardTokenB) {\r\n                address[] calldata route = swapInfos[2].route;\r\n                require(route[0] == rewardTokenB && route[route.length - 1] == tokenA, 'BAD_REWARD_B_TOKEN_A_ROUTE');\r\n                quickswapRouter.swapExactTokensForTokens(rewardTokenBHalf, swapInfos[2].amountOutMin, route, address(this), block.timestamp);\r\n            }\r\n    \r\n            if (tokenB != rewardTokenB) {\r\n                address[] calldata route = swapInfos[3].route;\r\n                require(route[0] == rewardTokenB && route[route.length - 1] == tokenB, 'BAD_REWARD_B_TOKEN_B_ROUTE');\r\n                quickswapRouter.swapExactTokensForTokens(rewardTokenBHalf, swapInfos[3].amountOutMin, route, address(this), block.timestamp);\r\n            }\r\n        }\r\n        }\r\n        \r\n        (,,reward) = quickswapRouter.addLiquidity(tokenA, tokenB, IERC20(tokenA).balanceOf(address(this)), IERC20(tokenB).balanceOf(address(this)), swapInfos[0].amountOutMin + swapInfos[2].amountOutMin, swapInfos[1].amountOutMin + swapInfos[3].amountOutMin, address(this), block.timestamp);\r\n\r\n        uint256 rewardPerDepositAge = reward * fractionMultiplier / (totalDepositAge + totalDeposits * (block.number - totalDepositLastUpdate));\r\n        uint256 cumulativeRewardAgePerDepositAge = distributionInfo[distributionID - 1].cumulativeRewardAgePerDepositAge + rewardPerDepositAge * (block.number - distributionInfo[distributionID - 1].block);\r\n\r\n        distributionInfo[distributionID] = DistributionInfo({\r\n            block: block.number,\r\n            rewardPerDepositAge: rewardPerDepositAge,\r\n            cumulativeRewardAgePerDepositAge: cumulativeRewardAgePerDepositAge\r\n        });\r\n\r\n        distributionID += 1;\r\n        totalDepositLastUpdate = block.number;\r\n        totalDepositAge = 0;\r\n\r\n        lpStakingPool.stake(reward);\r\n    }\r\n\r\n    /**\r\n     * @dev Swaps and sends fees to feeTo.\r\n     */\r\n    function collectFees(SwapInfo calldata feeSwapInfo, FeeInfo calldata feeInfo, IERC20Upgradeable token) internal {\r\n        if(feeInfo.feeTo != address(0)){\r\n            uint256 feeAmount = token.balanceOf(address(this)) * feeInfo.fee / fractionMultiplier;\r\n            if(feeAmount > 0){\r\n                address[] calldata route = feeSwapInfo.route;\r\n                if(route.length > 0 && route[0] != route[route.length - 1]){\r\n                    require(route[0] == address(token), 'BAD_FEE_TOKEN_ROUTE');\r\n                    quickswapRouter.swapExactTokensForTokens(feeAmount, feeSwapInfo.amountOutMin, route, feeInfo.feeTo, block.timestamp);\r\n                    return;\r\n                }\r\n                token.safeTransfer(feeInfo.feeTo, feeAmount);\r\n            }\r\n        }\r\n    }\r\n\r\n    /**\r\n     * @dev Returns total funds staked by the {_address}.\r\n     */\r\n    function userBalance(address _address) external view returns (uint256) {\r\n        return userInfo[_address].stake + userReward(_address);\r\n    }\r\n\r\n    /**\r\n     * @dev Returns total funds locked in the farm.\r\n     */\r\n    function getTotalDeposits() external view returns (uint256 _totalDeposits) {\r\n        if(totalDeposits > 0){\r\n            _totalDeposits = lpStakingPool.balanceOf(address(this));\r\n        }\r\n    }\r\n\r\n    function _updateDeposit(address _address) internal {\r\n        UserInfo storage user = userInfo[_address];\r\n        // Accumulate deposit age within the current distribution period.\r\n        if (user.lastDistribution == distributionID) {\r\n            // Add deposit age from previous deposit age update to now.\r\n            user.depositAge += user.stake * (block.number - user.lastUpdate);\r\n        } else {\r\n            // A reward has been distributed, update user.reward.\r\n            user.reward = userReward(_address);\r\n            // Count fresh deposit age from previous reward distribution to now.\r\n            user.depositAge = user.stake * (block.number - distributionInfo[distributionID - 1].block);\r\n        }\r\n\r\n        user.lastDistribution = distributionID;\r\n        user.lastUpdate = block.number;\r\n\r\n        // Same with total deposit age.\r\n        totalDepositAge += (block.number - totalDepositLastUpdate) * totalDeposits;\r\n        totalDepositLastUpdate = block.number;\r\n    }\r\n\r\n    function userReward(address _address) internal view returns (uint256) {\r\n        UserInfo memory user = userInfo[_address];\r\n        if (user.lastDistribution == distributionID) {\r\n            // Return user.reward if the distribution after the last user deposit did not happen yet.\r\n            return user.reward;\r\n        }\r\n        DistributionInfo memory lastUserDistributionInfo = distributionInfo[user.lastDistribution];\r\n        uint256 userDepositAge = user.depositAge + user.stake * (lastUserDistributionInfo.block - user.lastUpdate);\r\n        // Calculate reward between the last user deposit and the distribution after that.\r\n        uint256 rewardBeforeDistibution = userDepositAge * lastUserDistributionInfo.rewardPerDepositAge / fractionMultiplier;\r\n        // Calculate reward from the distributions that have happened after the last user deposit.\r\n        uint256 rewardAfterDistribution = user.stake * (distributionInfo[distributionID - 1].cumulativeRewardAgePerDepositAge - lastUserDistributionInfo.cumulativeRewardAgePerDepositAge) / fractionMultiplier;\r\n        return user.reward + rewardBeforeDistibution + rewardAfterDistribution;\r\n    }\r\n}\r\n",
  "sourcePath": "C:\\Users\\jugli\\Desktop\\uno\\uno-contracts\\contracts\\apps\\quickswapDual\\UnoFarmQuickswapDual.sol",
  "compiler": {
    "name": "solc",
    "version": "0.8.10+commit.fc410830.Emscripten.clang"
  },
  "schemaVersion": "3.4.11",
  "updatedAt": "2023-01-30T09:13:47.589Z",
  "devdoc": {
    "kind": "dev",
    "methods": {
      "deposit(uint256,address)": {
        "details": "Function that makes the deposits. Deposits provided tokens in the Liquidity Pool, then stakes generated LP tokens in the {lpStakingPool}."
      },
      "distribute((address[],uint256)[4],(address[],uint256)[2],(address,uint256))": {
        "details": "Core function of the strat, in charge of updating, collecting and re-investing rewards. 1. It claims rewards from the {lpStakingPool}. 2. It swaps {rewardToken} token for {tokenA} & {tokenB}. 3. It deposits new LP tokens back to the {lpStakingPool}."
      },
      "getTotalDeposits()": {
        "details": "Returns total funds locked in the farm."
      },
      "userBalance(address)": {
        "details": "Returns total funds staked by the {_address}."
      },
      "withdraw(uint256,uint256,uint256,bool,address,address)": {
        "details": "Withdraws funds from {origin} and sends them to the {recipient}."
      }
    },
    "stateVariables": {
      "assetRouter": {
        "details": "Contract Variables: {assetRouter} - The contract from which calls to this farm are made."
      },
      "quickswapRouter": {
        "details": "Third Party Contracts: {quickswapRouter} - Contract that executes swaps. {lpStakingPool} - Contract that distibutes {rewardTokenA, rewardTokenB}."
      },
      "rewardTokenA": {
        "details": "Tokens Used: {rewardTokenA, rewardTokenB} - Tokens generated by staking. {lpPair} - Token that the strategy maximizes. The same token that users deposit in the {lpStakingPool}. {tokenA, tokenB} - Tokens that the strategy maximizes."
      },
      "totalDeposits": {
        "details": "Contract Variables: {totalDeposits} - Total deposits made by users. {totalDepositAge} - Deposits multiplied by blocks the deposit has been in. Flushed every reward distribution. {totalDepositLastUpdate} - Last {totalDepositAge} update block. {distributionID} - Current distribution ID. {userInfo} - Info on each user. {distributionInfo} - Info on each distribution. {fractionMultiplier} - Used to store decimal values."
      }
    },
    "version": 1
  },
  "userdoc": {
    "kind": "user",
    "methods": {},
    "version": 1
  }
}