{
  "contractName": "UnoFarmBalancer",
  "abi": [
    {
      "inputs": [],
      "name": "CALLER_NOT_ASSET_ROUTER",
      "type": "error"
    },
    {
      "inputs": [],
      "name": "CALL_ON_THE_SAME_BLOCK",
      "type": "error"
    },
    {
      "inputs": [],
      "name": "INSUFFICIENT_AMOUNT",
      "type": "error"
    },
    {
      "inputs": [],
      "name": "INSUFFICIENT_BALANCE",
      "type": "error"
    },
    {
      "inputs": [],
      "name": "INVALID_ASSET_ROUTER",
      "type": "error"
    },
    {
      "inputs": [],
      "name": "INVALID_LP_POOL",
      "type": "error"
    },
    {
      "inputs": [],
      "name": "INVALID_MIN_AMOUNTS_OUT_LENGTH",
      "type": "error"
    },
    {
      "inputs": [
        {
          "internalType": "address",
          "name": "fromToken",
          "type": "address"
        },
        {
          "internalType": "address",
          "name": "toToken",
          "type": "address"
        }
      ],
      "name": "INVALID_ROUTE",
      "type": "error"
    },
    {
      "inputs": [],
      "name": "NO_LIQUIDITY",
      "type": "error"
    },
    {
      "inputs": [],
      "name": "NO_LIQUIDITY_PROVIDED",
      "type": "error"
    },
    {
      "inputs": [],
      "name": "PARAMS_LENGTHS_NOT_MATCH_REWARD_COUNT",
      "type": "error"
    },
    {
      "anonymous": false,
      "inputs": [
        {
          "indexed": false,
          "internalType": "uint8",
          "name": "version",
          "type": "uint8"
        }
      ],
      "name": "Initialized",
      "type": "event"
    },
    {
      "inputs": [],
      "name": "assetRouter",
      "outputs": [
        {
          "internalType": "address",
          "name": "",
          "type": "address"
        }
      ],
      "stateMutability": "view",
      "type": "function",
      "constant": true
    },
    {
      "inputs": [],
      "name": "gauge",
      "outputs": [
        {
          "internalType": "contract IRewardsOnlyGauge",
          "name": "",
          "type": "address"
        }
      ],
      "stateMutability": "view",
      "type": "function",
      "constant": true
    },
    {
      "inputs": [],
      "name": "isComposable",
      "outputs": [
        {
          "internalType": "bool",
          "name": "",
          "type": "bool"
        }
      ],
      "stateMutability": "view",
      "type": "function",
      "constant": true
    },
    {
      "inputs": [],
      "name": "lpPool",
      "outputs": [
        {
          "internalType": "address",
          "name": "",
          "type": "address"
        }
      ],
      "stateMutability": "view",
      "type": "function",
      "constant": true
    },
    {
      "inputs": [],
      "name": "poolId",
      "outputs": [
        {
          "internalType": "bytes32",
          "name": "",
          "type": "bytes32"
        }
      ],
      "stateMutability": "view",
      "type": "function",
      "constant": true
    },
    {
      "inputs": [
        {
          "internalType": "address",
          "name": "_lpPool",
          "type": "address"
        },
        {
          "internalType": "address",
          "name": "_assetRouter",
          "type": "address"
        }
      ],
      "name": "initialize",
      "outputs": [],
      "stateMutability": "nonpayable",
      "type": "function"
    },
    {
      "inputs": [
        {
          "internalType": "uint256",
          "name": "amount",
          "type": "uint256"
        },
        {
          "internalType": "address",
          "name": "recipient",
          "type": "address"
        }
      ],
      "name": "deposit",
      "outputs": [],
      "stateMutability": "nonpayable",
      "type": "function"
    },
    {
      "inputs": [
        {
          "internalType": "uint256",
          "name": "amount",
          "type": "uint256"
        },
        {
          "internalType": "address",
          "name": "origin",
          "type": "address"
        },
        {
          "internalType": "address",
          "name": "recipient",
          "type": "address"
        }
      ],
      "name": "withdraw",
      "outputs": [],
      "stateMutability": "nonpayable",
      "type": "function"
    },
    {
      "inputs": [
        {
          "internalType": "bytes",
          "name": "userData",
          "type": "bytes"
        },
        {
          "internalType": "uint256[]",
          "name": "minAmountsOut",
          "type": "uint256[]"
        },
        {
          "internalType": "address",
          "name": "origin",
          "type": "address"
        },
        {
          "internalType": "address",
          "name": "recipient",
          "type": "address"
        }
      ],
      "name": "withdrawTokens",
      "outputs": [
        {
          "internalType": "uint256[]",
          "name": "amounts",
          "type": "uint256[]"
        },
        {
          "internalType": "uint256",
          "name": "liquidity",
          "type": "uint256"
        }
      ],
      "stateMutability": "nonpayable",
      "type": "function"
    },
    {
      "inputs": [
        {
          "components": [
            {
              "components": [
                {
                  "internalType": "bytes32",
                  "name": "poolId",
                  "type": "bytes32"
                },
                {
                  "internalType": "uint256",
                  "name": "assetInIndex",
                  "type": "uint256"
                },
                {
                  "internalType": "uint256",
                  "name": "assetOutIndex",
                  "type": "uint256"
                },
                {
                  "internalType": "uint256",
                  "name": "amount",
                  "type": "uint256"
                },
                {
                  "internalType": "bytes",
                  "name": "userData",
                  "type": "bytes"
                }
              ],
              "internalType": "struct IVault.BatchSwapStep[]",
              "name": "swaps",
              "type": "tuple[]"
            },
            {
              "internalType": "contract IERC20[]",
              "name": "assets",
              "type": "address[]"
            },
            {
              "internalType": "int256[]",
              "name": "limits",
              "type": "int256[]"
            }
          ],
          "internalType": "struct IUnoFarmBalancer.SwapInfo[]",
          "name": "swapInfos",
          "type": "tuple[]"
        },
        {
          "components": [
            {
              "internalType": "address",
              "name": "feeTo",
              "type": "address"
            },
            {
              "internalType": "uint256",
              "name": "fee",
              "type": "uint256"
            }
          ],
          "internalType": "struct IUnoFarm.FeeInfo",
          "name": "feeInfo",
          "type": "tuple"
        }
      ],
      "name": "distribute",
      "outputs": [
        {
          "internalType": "uint256",
          "name": "reward",
          "type": "uint256"
        }
      ],
      "stateMutability": "nonpayable",
      "type": "function"
    },
    {
      "inputs": [
        {
          "internalType": "address",
          "name": "_address",
          "type": "address"
        }
      ],
      "name": "userBalance",
      "outputs": [
        {
          "internalType": "uint256",
          "name": "",
          "type": "uint256"
        }
      ],
      "stateMutability": "view",
      "type": "function",
      "constant": true
    },
    {
      "inputs": [],
      "name": "getTotalDeposits",
      "outputs": [
        {
          "internalType": "uint256",
          "name": "_totalDeposits",
          "type": "uint256"
        }
      ],
      "stateMutability": "view",
      "type": "function",
      "constant": true
    }
  ],
  "bytecode": "0x608060405234801561001057600080fd5b506136cf806100206000396000f3fe608060405234801561001057600080fd5b50600436106100d45760003560e01c80636f0f68f211610081578063b460af941161005b578063b460af94146101be578063bc0aac10146101d1578063f1bcec30146101e457600080fd5b80636f0f68f2146101635780638cd7defd14610198578063a6f19c84146101ab57600080fd5b80633e0dc34e116100b25780633e0dc34e14610132578063485cc9551461013b5780636e553f651461015057600080fd5b80630103c92b146100d9578063168a4822146100ff5780633737bcb414610107575b600080fd5b6100ec6100e7366004612aad565b610205565b6040519081526020015b60405180910390f35b6100ec610239565b60355461011a906001600160a01b031681565b6040516001600160a01b0390911681526020016100f6565b6100ec60365481565b61014e610149366004612aca565b6102cf565b005b61014e61015e366004612b03565b610b0c565b603d546101889074010000000000000000000000000000000000000000900460ff1681565b60405190151581526020016100f6565b6100ec6101a6366004612b74565b610c54565b60335461011a906001600160a01b031681565b61014e6101cc366004612bd3565b6118a4565b603d5461011a906001600160a01b031681565b6101f76101f2366004612c15565b611981565b6040516100f6929190612d0b565b600061021082611ad0565b6001600160a01b0383166000908152603b60205260409020546102339190612d5c565b92915050565b603754600090156102cc576033546040517f70a082310000000000000000000000000000000000000000000000000000000081523060048201526001600160a01b03909116906370a0823190602401602060405180830381865afa1580156102a5573d6000803e3d6000fd5b505050506040513d601f19601f820116820180604052508101906102c99190612d6f565b90505b90565b600054610100900460ff16158080156102ef5750600054600160ff909116105b806103095750303b158015610309575060005460ff166001145b61039a576040517f08c379a000000000000000000000000000000000000000000000000000000000815260206004820152602e60248201527f496e697469616c697a61626c653a20636f6e747261637420697320616c72656160448201527f647920696e697469616c697a656400000000000000000000000000000000000060648201526084015b60405180910390fd5b600080547fffffffffffffffffffffffffffffffffffffffffffffffffffffffffffffff0016600117905580156103f857600080547fffffffffffffffffffffffffffffffffffffffffffffffffffffffffffff00ff166101001790555b6001600160a01b038316610438576040517f5309c5cf00000000000000000000000000000000000000000000000000000000815260040160405180910390fd5b6001600160a01b038216610478576040517fc17c115000000000000000000000000000000000000000000000000000000000815260040160405180910390fd5b610480611c65565b603d80546001600160a01b038085167fffffffffffffffffffffffff000000000000000000000000000000000000000092831617909255603580549286169290911682179055604080517f38fff2d000000000000000000000000000000000000000000000000000000000815290516338fff2d0916004808201926020929091908290030181865afa15801561051a573d6000803e3d6000fd5b505050506040513d601f19601f8201168201806040525081019061053e9190612d6f565b6036556040517fa8ea68750000000000000000000000000000000000000000000000000000000081526001600160a01b0384166004820152733b8ca519122cdd8efb272b0d3085453404b25bd09063a8ea687590602401602060405180830381865afa1580156105b2573d6000803e3d6000fd5b505050506040513d601f19601f820116820180604052508101906105d69190612d88565b603380547fffffffffffffffffffffffff0000000000000000000000000000000000000000166001600160a01b039290921691821790556106e1576040517f9ed933180000000000000000000000000000000000000000000000000000000081526001600160a01b0384166004820152733b8ca519122cdd8efb272b0d3085453404b25bd090639ed93318906024016020604051808303816000875af1158015610684573d6000803e3d6000fd5b505050506040513d601f19601f820116820180604052508101906106a89190612d88565b603380547fffffffffffffffffffffffff0000000000000000000000000000000000000000166001600160a01b03929092169190911790555b6040517f8a4ffeb00000000000000000000000000000000000000000000000000000000081526001600160a01b0384166004820152733b8ca519122cdd8efb272b0d3085453404b25bd090638a4ffeb090602401602060405180830381865afa158015610752573d6000803e3d6000fd5b505050506040513d601f19601f820116820180604052508101906107769190612d88565b603480547fffffffffffffffffffffffff0000000000000000000000000000000000000000166001600160a01b03928316179055604080516060810182524380825260006020808401828152848601838152928052603c90915292517f33d13c149959174817b07214f6faff3d4c1d39ff89c6e7f82e2df5f04c00a0ec5591517f33d13c149959174817b07214f6faff3d4c1d39ff89c6e7f82e2df5f04c00a0ed5590517f33d13c149959174817b07214f6faff3d4c1d39ff89c6e7f82e2df5f04c00a0ee55603a80547fffffffffffffffffffffffffffffffffffffffffffffffffffffffff00000000166001179055603955517f095ea7b300000000000000000000000000000000000000000000000000000000815273ba12222222228d8ba445958a75a0704d566bf2c860048201527fffffffffffffffffffffffffffffffffffffffffffffffffffffffffffffffff60248201529084169063095ea7b3906044016020604051808303816000875af11580156108fa573d6000803e3d6000fd5b505050506040513d601f19601f8201168201806040525081019061091e9190612da5565b506033546040517f095ea7b30000000000000000000000000000000000000000000000000000000081526001600160a01b0391821660048201527fffffffffffffffffffffffffffffffffffffffffffffffffffffffffffffffff60248201529084169063095ea7b3906044016020604051808303816000875af11580156109aa573d6000803e3d6000fd5b505050506040513d601f19601f820116820180604052508101906109ce9190612da5565b50826001600160a01b03166382687a566040518163ffffffff1660e01b8152600401602060405180830381865afa925050508015610a29575060408051601f3d908101601f19168201909252610a2691810190612d6f565b60015b610a63573d808015610a57576040519150601f19603f3d011682016040523d82523d6000602084013e610a5c565b606091505b5050610aa4565b50603d80547fffffffffffffffffffffff00ffffffffffffffffffffffffffffffffffffffff16740100000000000000000000000000000000000000001790555b8015610b0757600080547fffffffffffffffffffffffffffffffffffffffffffffffffffffffffffff00ff169055604051600181527f7f26b83ff96e1f2b6a682f133852f6798a09c465da95921460cefb38474024989060200160405180910390a15b505050565b603d546001600160a01b03163314610b50576040517ffa6f03ae00000000000000000000000000000000000000000000000000000000815260040160405180910390fd5b81600003610b8a576040517f78e321a500000000000000000000000000000000000000000000000000000000815260040160405180910390fd5b610b9381611d06565b6001600160a01b0381166000908152603b602052604081208054849290610bbb908490612d5c565b925050819055508160376000828254610bd49190612d5c565b90915550506033546040517fb6b55f25000000000000000000000000000000000000000000000000000000008152600481018490526001600160a01b039091169063b6b55f2590602401600060405180830381600087803b158015610c3857600080fd5b505af1158015610c4c573d6000803e3d6000fd5b505050505050565b603d546000906001600160a01b03163314610c9b576040517ffa6f03ae00000000000000000000000000000000000000000000000000000000815260040160405180910390fd5b603754600003610cd7576040517ff58c8f9100000000000000000000000000000000000000000000000000000000815260040160405180910390fd5b603a5463ffffffff1643603c6000610cf0600185612dc7565b63ffffffff16815260208101919091526040016000205403610d3e576040517ffa2a2d8700000000000000000000000000000000000000000000000000000000815260040160405180910390fd5b603454604080517f963c94b900000000000000000000000000000000000000000000000000000000815290516001600160a01b0390921691600091839163963c94b9916004808201926020929091908290030181865afa158015610da6573d6000803e3d6000fd5b505050506040513d601f19601f82011682018060405250810190610dca9190612d6f565b9050858114610e05576040517f793c7dde00000000000000000000000000000000000000000000000000000000815260040160405180910390fd5b603354603554604080517fe6f1daf200000000000000000000000000000000000000000000000000000000815290516001600160a01b039384169373ba12222222228d8ba445958a75a0704d566bf2c8931691849163e6f1daf29160048082019260009290919082900301818387803b158015610e8157600080fd5b505af1158015610e95573d6000803e3d6000fd5b5050505060005b848110156110d6576040517f54c49fe9000000000000000000000000000000000000000000000000000000008152600481018290526000906001600160a01b038816906354c49fe990602401602060405180830381865afa158015610f05573d6000803e3d6000fd5b505050506040513d601f19601f82011682018060405250810190610f299190612d88565b9050846001600160a01b0316816001600160a01b031614158015610f5f5750826001600160a01b0316816001600160a01b031614155b156110c3576040517f70a082310000000000000000000000000000000000000000000000000000000081523060048201526000906001600160a01b038316906370a0823190602401602060405180830381865afa158015610fc4573d6000803e3d6000fd5b505050506040513d601f19601f82011682018060405250810190610fe89190612d6f565b9050610ff582828d611e45565b610fff9082612deb565b905080156110c1576040517f095ea7b30000000000000000000000000000000000000000000000000000000081526001600160a01b0386811660048301526024820183905283169063095ea7b3906044016020604051808303816000875af115801561106f573d6000803e3d6000fd5b505050506040513d601f19601f820116820180604052508101906110939190612da5565b506110c18d8d858181106110a9576110a9612dfe565b90506020028101906110bb9190612e2d565b30611eb4565b505b50806110ce81612e6b565b915050610e9c565b506036546040517ff94d46680000000000000000000000000000000000000000000000000000000081526000916001600160a01b0385169163f94d4668916111249160040190815260200190565b600060405180830381865afa158015611141573d6000803e3d6000fd5b505050506040513d6000823e601f3d908101601f191682016040526111699190810190612f92565b505090506000815167ffffffffffffffff81111561118957611189612ea3565b6040519080825280602002602001820160405280156111b2578160200160208202803683370190505b5090506000825167ffffffffffffffff8111156111d1576111d1612ea3565b6040519080825280602002602001820160405280156111fa578160200160208202803683370190505b50905060005b83518110156114315783818151811061121b5761121b612dfe565b602002602001015183828151811061123557611235612dfe565b60200260200101906001600160a01b031690816001600160a01b031681525050846001600160a01b031684828151811061127157611271612dfe565b60200260200101516001600160a01b03161461141f5783818151811061129957611299612dfe565b60209081029190910101516040517f70a082310000000000000000000000000000000000000000000000000000000081523060048201526001600160a01b03909116906370a0823190602401602060405180830381865afa158015611302573d6000803e3d6000fd5b505050506040513d601f19601f820116820180604052508101906113269190612d6f565b82828151811061133857611338612dfe565b602002602001018181525050600082828151811061135857611358612dfe565b6020026020010151111561141f5783818151811061137857611378612dfe565b60200260200101516001600160a01b031663095ea7b3878484815181106113a1576113a1612dfe565b60200260200101516040518363ffffffff1660e01b81526004016113da9291906001600160a01b03929092168252602082015260400190565b6020604051808303816000875af11580156113f9573d6000803e3d6000fd5b505050506040513d601f19601f8201168201806040525081019061141d9190612da5565b505b8061142981612e6b565b915050611200565b50603d5460609074010000000000000000000000000000000000000000900460ff1615611572576000600183516114689190612deb565b67ffffffffffffffff81111561148057611480612ea3565b6040519080825280602002602001820160405280156114a9578160200160208202803683370190505b5090506000805b865181101561154257876001600160a01b03168782815181106114d5576114d5612dfe565b60200260200101516001600160a01b031614611530578481815181106114fd576114fd612dfe565b602002602001015183838151811061151757611517612dfe565b602090810291909101015261152d600183612d5c565b91505b8061153a81612e6b565b9150506114b0565b50600182600160405160200161155a93929190613060565b6040516020818303038152906040529250505061159b565b600182600160405160200161158993929190613060565b60405160208183030381529060405290505b60365460408051608081018252858152602081018590528082018490526000606082015290517fb95cac280000000000000000000000000000000000000000000000000000000081526001600160a01b0389169263b95cac289261160592309182916004016130df565b600060405180830381600087803b15801561161f57600080fd5b505af1158015611633573d6000803e3d6000fd5b50506040517f70a082310000000000000000000000000000000000000000000000000000000081523060048201526001600160a01b03881692506370a082319150602401602060405180830381865afa158015611694573d6000803e3d6000fd5b505050506040513d601f19601f820116820180604052508101906116b89190612d6f565b9a506000603954436116ca9190612deb565b6037546116d791906131bd565b6038546116e49190612d5c565b6116f6670de0b6b3a76400008e6131bd565b61170091906131d4565b90506000603c8161171260018f612dc7565b63ffffffff1681526020810191909152604001600020546117339043612deb565b61173d90836131bd565b603c600060018f61174e9190612dc7565b63ffffffff1663ffffffff168152602001908152602001600020600201546117769190612d5c565b9050604051806060016040528043815260200183815260200182815250603c60008e63ffffffff1663ffffffff1681526020019081526020016000206000820151816000015560208201518160010155604082015181600201559050508b60016117e0919061320f565b603a80547fffffffffffffffffffffffffffffffffffffffffffffffffffffffff000000001663ffffffff929092169190911790554360395560006038556040517fb6b55f25000000000000000000000000000000000000000000000000000000008152600481018e90526001600160a01b038a169063b6b55f2590602401600060405180830381600087803b15801561187957600080fd5b505af115801561188d573d6000803e3d6000fd5b505050505050505050505050505050509392505050565b603d546001600160a01b031633146118e8576040517ffa6f03ae00000000000000000000000000000000000000000000000000000000815260040160405180910390fd5b6118f28383611fa9565b6033546040517f2e1a7d4d000000000000000000000000000000000000000000000000000000008152600481018590526001600160a01b0390911690632e1a7d4d90602401600060405180830381600087803b15801561195157600080fd5b505af1158015611965573d6000803e3d6000fd5b5050603554610b0792506001600160a01b0316905082856120a9565b603d546060906000906001600160a01b031633146119cb576040517ffa6f03ae00000000000000000000000000000000000000000000000000000000815260040160405180910390fd5b6036546040517ff94d466800000000000000000000000000000000000000000000000000000000815260009173ba12222222228d8ba445958a75a0704d566bf2c89163f94d466891611a239160040190815260200190565b600060405180830381865afa158015611a40573d6000803e3d6000fd5b505050506040513d6000823e601f3d908101601f19168201604052611a689190810190612f92565b505080519091508614611aa7576040517f6a73dad900000000000000000000000000000000000000000000000000000000815260040160405180910390fd5b611ab5898989898589612129565b9093509150611ac48286611fa9565b50965096945050505050565b6001600160a01b0381166000908152603b60209081526040808320815160a08101835281548152600182015493810193909352600281015491830191909152600381015463ffffffff908116606084018190526004909201546080840152603a54169003611b42576040015192915050565b60608082015163ffffffff166000908152603c6020908152604080832081519485018252805480865260018201549386019390935260020154908401526080840151611b8d91612deb565b8351611b9991906131bd565b8360200151611ba89190612d5c565b90506000670de0b6b3a7640000836020015183611bc591906131bd565b611bcf91906131d4565b6040840151603a54919250600091670de0b6b3a76400009190603c908490611bff9060019063ffffffff16612dc7565b63ffffffff1663ffffffff16815260200190815260200160002060020154611c279190612deb565b8651611c3391906131bd565b611c3d91906131d4565b905080828660400151611c509190612d5c565b611c5a9190612d5c565b979650505050505050565b600054610100900460ff16611cfc576040517f08c379a000000000000000000000000000000000000000000000000000000000815260206004820152602b60248201527f496e697469616c697a61626c653a20636f6e7472616374206973206e6f74206960448201527f6e697469616c697a696e670000000000000000000000000000000000000000006064820152608401610391565b611d04612701565b565b6001600160a01b0381166000908152603b60205260409020603a54600382015463ffffffff918216911603611d6e576004810154611d449043612deb565b8154611d5091906131bd565b816001016000828254611d639190612d5c565b90915550611dca9050565b611d7782611ad0565b6002820155603a54603c90600090611d979060019063ffffffff16612dc7565b63ffffffff168152602081019190915260400160002054611db89043612deb565b8154611dc491906131bd565b60018201555b603a546003820180547fffffffffffffffffffffffffffffffffffffffffffffffffffffffff000000001663ffffffff90921691909117905543600482018190556037546039549091611e1d9190612deb565b611e2791906131bd565b60386000828254611e389190612d5c565b9091555050436039555050565b600080611e556020840184612aad565b6001600160a01b031614611ead57670de0b6b3a7640000611e7a6020840135856131bd565b611e8491906131d4565b90508015611ead57611ead611e9c6020840184612aad565b6001600160a01b03861690836120a9565b9392505050565b73ba12222222228d8ba445958a75a0704d566bf2c863945bcec96000611eda858061322c565b611ee7602088018861322c565b604080516080810182523081526000602082018190526001600160a01b038b1682840152606082015290611f1d908b018b61322c565b7fffffffffffffffffffffffffffffffffffffffffffffffffffffffffffffffff6040518a63ffffffff1660e01b8152600401611f6299989796959493929190613329565b6000604051808303816000875af1158015611f81573d6000803e3d6000fd5b505050506040513d6000823e601f3d908101601f19168201604052610b07919081019061351e565b81600003611fe3576040517f2cd294cf00000000000000000000000000000000000000000000000000000000815260040160405180910390fd5b611fec81611d06565b6001600160a01b0381166000908152603b60205260409020600281015480841115612093578154600090612021908390612d5c565b90508085111561205d576040517f50b1f35600000000000000000000000000000000000000000000000000000000815260040160405180910390fd5b6120678582612deb565b83556037548590612079908490612d5c565b6120839190612deb565b60375550600060028301556120a3565b61209d8482612deb565b60028301555b50505050565b604080516001600160a01b038416602482015260448082018490528251808303909101815260649091019091526020810180517bffffffffffffffffffffffffffffffffffffffffffffffffffffffff167fa9059cbb00000000000000000000000000000000000000000000000000000000179052610b0790849061279e565b6033546040517f70a082310000000000000000000000000000000000000000000000000000000081523060048201526060916000916001600160a01b0390911690632e1a7d4d9082906370a0823190602401602060405180830381865afa158015612198573d6000803e3d6000fd5b505050506040513d601f19601f820116820180604052508101906121bc9190612d6f565b6040518263ffffffff1660e01b81526004016121da91815260200190565b600060405180830381600087803b1580156121f457600080fd5b505af1158015612208573d6000803e3d6000fd5b50505050835167ffffffffffffffff81111561222657612226612ea3565b60405190808252806020026020018201604052801561224f578160200160208202803683370190505b50915060005b845181101561232e5784818151811061227057612270612dfe565b60209081029190910101516040517f70a082310000000000000000000000000000000000000000000000000000000081526001600160a01b038681166004830152909116906370a0823190602401602060405180830381865afa1580156122db573d6000803e3d6000fd5b505050506040513d601f19601f820116820180604052508101906122ff9190612d6f565b83828151811061231157612311612dfe565b60209081029190910101528061232681612e6b565b915050612255565b506035546040517f70a082310000000000000000000000000000000000000000000000000000000081523060048201526000916001600160a01b0316906370a0823190602401602060405180830381865afa158015612391573d6000803e3d6000fd5b505050506040513d601f19601f820116820180604052508101906123b59190612d6f565b905073ba12222222228d8ba445958a75a0704d566bf2c86001600160a01b0316638bdb3913603654308760405180608001604052808b81526020018d8d80806020026020016040519081016040528093929190818152602001838360200280828437600081840152601f19601f8201169050808301925050505050505081526020018f8f8080601f01602080910402602001604051908101604052809392919081815260200183838082843760009201829052509385525050506020909101526040517fffffffff0000000000000000000000000000000000000000000000000000000060e087901b1681526124b194939291906004016135a4565b600060405180830381600087803b1580156124cb57600080fd5b505af11580156124df573d6000803e3d6000fd5b5050505060005b85518110156125e957600086828151811061250357612503612dfe565b60209081029190910101516040517f70a082310000000000000000000000000000000000000000000000000000000081526001600160a01b038881166004830152909116906370a0823190602401602060405180830381865afa15801561256e573d6000803e3d6000fd5b505050506040513d601f19601f820116820180604052508101906125929190612d6f565b90508482815181106125a6576125a6612dfe565b6020026020010151816125b99190612deb565b8583815181106125cb576125cb612dfe565b602090810291909101015250806125e181612e6b565b9150506124e6565b506035546040517f70a082310000000000000000000000000000000000000000000000000000000081523060048201526000916001600160a01b0316906370a0823190602401602060405180830381865afa15801561264c573d6000803e3d6000fd5b505050506040513d601f19601f820116820180604052508101906126709190612d6f565b905061267c8183612deb565b6033546040517fb6b55f25000000000000000000000000000000000000000000000000000000008152600481018490529194506001600160a01b03169063b6b55f2590602401600060405180830381600087803b1580156126dc57600080fd5b505af11580156126f0573d6000803e3d6000fd5b505050505050965096945050505050565b600054610100900460ff16612798576040517f08c379a000000000000000000000000000000000000000000000000000000000815260206004820152602b60248201527f496e697469616c697a61626c653a20636f6e7472616374206973206e6f74206960448201527f6e697469616c697a696e670000000000000000000000000000000000000000006064820152608401610391565b60018055565b60006127f3826040518060400160405280602081526020017f5361666545524332303a206c6f772d6c6576656c2063616c6c206661696c6564815250856001600160a01b03166128a09092919063ffffffff16565b90508051600014806128145750808060200190518101906128149190612da5565b610b07576040517f08c379a000000000000000000000000000000000000000000000000000000000815260206004820152602a60248201527f5361666545524332303a204552433230206f7065726174696f6e20646964206e60448201527f6f742073756363656564000000000000000000000000000000000000000000006064820152608401610391565b60606128af84846000856128b7565b949350505050565b606082471015612949576040517f08c379a000000000000000000000000000000000000000000000000000000000815260206004820152602660248201527f416464726573733a20696e73756666696369656e742062616c616e636520666f60448201527f722063616c6c00000000000000000000000000000000000000000000000000006064820152608401610391565b600080866001600160a01b031685876040516129659190613674565b60006040518083038185875af1925050503d80600081146129a2576040519150601f19603f3d011682016040523d82523d6000602084013e6129a7565b606091505b5091509150611c5a8783838760608315612a3c578251600003612a35576001600160a01b0385163b612a35576040517f08c379a000000000000000000000000000000000000000000000000000000000815260206004820152601d60248201527f416464726573733a2063616c6c20746f206e6f6e2d636f6e74726163740000006044820152606401610391565b50816128af565b6128af8383815115612a515781518083602001fd5b806040517f08c379a00000000000000000000000000000000000000000000000000000000081526004016103919190613686565b6001600160a01b0381168114612a9a57600080fd5b50565b8035612aa881612a85565b919050565b600060208284031215612abf57600080fd5b8135611ead81612a85565b60008060408385031215612add57600080fd5b8235612ae881612a85565b91506020830135612af881612a85565b809150509250929050565b60008060408385031215612b1657600080fd5b823591506020830135612af881612a85565b60008083601f840112612b3a57600080fd5b50813567ffffffffffffffff811115612b5257600080fd5b6020830191508360208260051b8501011115612b6d57600080fd5b9250929050565b60008060008385036060811215612b8a57600080fd5b843567ffffffffffffffff811115612ba157600080fd5b612bad87828801612b28565b9095509350506040601f1982011215612bc557600080fd5b506020840190509250925092565b600080600060608486031215612be857600080fd5b833592506020840135612bfa81612a85565b91506040840135612c0a81612a85565b809150509250925092565b60008060008060008060808789031215612c2e57600080fd5b863567ffffffffffffffff80821115612c4657600080fd5b818901915089601f830112612c5a57600080fd5b813581811115612c6957600080fd5b8a6020828501011115612c7b57600080fd5b602092830198509650908801359080821115612c9657600080fd5b50612ca389828a01612b28565b9095509350612cb6905060408801612a9d565b9150612cc460608801612a9d565b90509295509295509295565b600081518084526020808501945080840160005b83811015612d0057815187529582019590820190600101612ce4565b509495945050505050565b604081526000612d1e6040830185612cd0565b90508260208301529392505050565b7f4e487b7100000000000000000000000000000000000000000000000000000000600052601160045260246000fd5b8082018082111561023357610233612d2d565b600060208284031215612d8157600080fd5b5051919050565b600060208284031215612d9a57600080fd5b8151611ead81612a85565b600060208284031215612db757600080fd5b81518015158114611ead57600080fd5b63ffffffff828116828216039080821115612de457612de4612d2d565b5092915050565b8181038181111561023357610233612d2d565b7f4e487b7100000000000000000000000000000000000000000000000000000000600052603260045260246000fd5b600082357fffffffffffffffffffffffffffffffffffffffffffffffffffffffffffffffa1833603018112612e6157600080fd5b9190910192915050565b60007fffffffffffffffffffffffffffffffffffffffffffffffffffffffffffffffff8203612e9c57612e9c612d2d565b5060010190565b7f4e487b7100000000000000000000000000000000000000000000000000000000600052604160045260246000fd5b604051601f8201601f1916810167ffffffffffffffff81118282101715612efb57612efb612ea3565b604052919050565b600067ffffffffffffffff821115612f1d57612f1d612ea3565b5060051b60200190565b600082601f830112612f3857600080fd5b81516020612f4d612f4883612f03565b612ed2565b82815260059290921b84018101918181019086841115612f6c57600080fd5b8286015b84811015612f875780518352918301918301612f70565b509695505050505050565b600080600060608486031215612fa757600080fd5b835167ffffffffffffffff80821115612fbf57600080fd5b818601915086601f830112612fd357600080fd5b81516020612fe3612f4883612f03565b82815260059290921b8401810191818101908a84111561300257600080fd5b948201945b8386101561302957855161301a81612a85565b82529482019490820190613007565b9189015191975090935050508082111561304257600080fd5b5061304f86828701612f27565b925050604084015190509250925092565b60ff8416815260606020820152600061307c6060830185612cd0565b905060ff83166040830152949350505050565b60005b838110156130aa578181015183820152602001613092565b50506000910152565b600081518084526130cb81602086016020860161308f565b601f01601f19169290920160200192915050565b848152600060206001600160a01b038087168285015280861660408501526080606085015261010084018551608080870152818151808452610120880191508583019350600092505b8083101561314a57835185168252928501926001929092019190850190613128565b508488015194507fffffffffffffffffffffffffffffffffffffffffffffffffffffffffffffff809350838782030160a08801526131888186612cd0565b94505050506040850151818584030160c08601526131a683826130b3565b925050506060840151612f8760e085018215159052565b808202811582820484141761023357610233612d2d565b60008261320a577f4e487b7100000000000000000000000000000000000000000000000000000000600052601260045260246000fd5b500490565b63ffffffff818116838216019080821115612de457612de4612d2d565b60008083357fffffffffffffffffffffffffffffffffffffffffffffffffffffffffffffffe184360301811261326157600080fd5b83018035915067ffffffffffffffff82111561327c57600080fd5b6020019150600581901b3603821315612b6d57600080fd5b818352818160208501375060006020828401015260006020601f19601f840116840101905092915050565b8183526000602080850194508260005b85811015612d005781356132e281612a85565b6001600160a01b0316875295820195908201906001016132cf565b8183526000602080850194508260005b85811015612d005781358752958201959082019060010161330d565b6000610120820160028c10613367577f4e487b7100000000000000000000000000000000000000000000000000000000600052602160045260246000fd5b8b8352610120602084015289905261014060058a901b830181019083018b60005b8c81101561349c577ffffffffffffffffffffffffffffffffffffffffffffffffffffffffffffffec086850301835281357fffffffffffffffffffffffffffffffffffffffffffffffffffffffffffffff618f36030181126133e957600080fd5b8e810190508035855260208101356020860152604081013560408601526060810135606086015260808101357fffffffffffffffffffffffffffffffffffffffffffffffffffffffffffffffe182360301811261344557600080fd5b0160208101903567ffffffffffffffff81111561346157600080fd5b80360382131561347057600080fd5b60a0608087015261348560a087018284613294565b955050506020928301929190910190600101613388565b50505082810360408401526134b281898b6132bf565b90506134f360608401886001600160a01b03808251168352602082015115156020840152806040830151166040840152506060810151151560608301525050565b82810360e08401526135068186886132fd565b915050826101008301529a9950505050505050505050565b6000602080838503121561353157600080fd5b825167ffffffffffffffff81111561354857600080fd5b8301601f8101851361355957600080fd5b8051613567612f4882612f03565b81815260059190911b8201830190838101908783111561358657600080fd5b928401925b82841015611c5a5783518252928401929084019061358b565b848152600060206001600160a01b03808716828501528086166040850152506080606084015261010083018451608080860152818151808452610120870191508483019350600092505b808310156136195783516001600160a01b0316825260208201915084840193506001830192506135ee565b508387015193507fffffffffffffffffffffffffffffffffffffffffffffffffffffffffffffff809250828682030160a08701526136578185612cd0565b935050506040850151818584030160c08601526131a683826130b3565b60008251612e6181846020870161308f565b602081526000611ead60208301846130b356fea2646970667358221220226e6e321cd0c5eeb21e4c071baf75622908d365e6dd5d46e4d19dcb448fa43264736f6c63430008130033",
  "immutableReferences": {},
  "source": "// SPDX-License-Identifier: MIT\r\npragma solidity 0.8.19;\r\n \r\n \r\nimport './interfaces/IUnoFarmBalancer.sol';\r\nimport \"../../interfaces/IBasePool.sol\";\r\nimport '../../interfaces/IChildChainLiquidityGaugeFactory.sol';\r\nimport \"../../interfaces/IChildChainStreamer.sol\"; \r\nimport '@openzeppelin/contracts-upgradeable/security/ReentrancyGuardUpgradeable.sol';\r\nimport '@openzeppelin/contracts/token/ERC20/utils/SafeERC20.sol';\r\nimport '@openzeppelin/contracts-upgradeable/proxy/utils/Initializable.sol';\r\n\r\ncontract UnoFarmBalancer is Initializable, ReentrancyGuardUpgradeable, IUnoFarmBalancer {\r\n    using SafeERC20 for IERC20;\r\n\r\n    /**\r\n     * @dev Third Party Contracts:\r\n     * {Vault} - Main Balancer contract used for pool exits/joins and swaps.\r\n     * {GaugeFactory} - Contract that deploys gauges.\r\n     * {gauge} - Contract that distributes reward tokens.\r\n     * {streamer} - Contract reward tokens get sent to from the bridge.\r\n     */   \r\n    IVault constant private Vault = IVault(0xBA12222222228d8Ba445958a75a0704d566BF2C8);\r\n    IChildChainLiquidityGaugeFactory constant private GaugeFactory = IChildChainLiquidityGaugeFactory(0x3b8cA519122CdD8efb272b0D3085453404B25bD0);\r\n    IRewardsOnlyGauge public gauge;\r\n    IChildChainStreamer private streamer;\r\n\r\n    /**\r\n     * @dev Contract Variables:\r\n     * {lpPool} - Pool.\r\n     * {poolId} - Bytes32 representation of the {lpPool}.\r\n\r\n     * {totalDeposits} - Total deposits made by users.\r\n     * {totalDepositAge} - Deposits multiplied by blocks the deposit has been in. Flushed every reward distribution.\r\n     * {totalDepositLastUpdate} - Last {totalDepositAge} update block.\r\n\r\n     * {distributionID} - Current distribution ID.\r\n     * {userInfo} - Info on each user.\r\n     * {distributionInfo} - Info on each distribution.\r\n\r\n     * {fractionMultiplier} - Used to store decimal values.\r\n     */\r\n    address public lpPool;\r\n    bytes32 public poolId;\r\n\r\n    uint256 private totalDeposits;\r\n    uint256 private totalDepositAge;\r\n    uint256 private totalDepositLastUpdate;\r\n\r\n    uint32 private distributionID;\r\n    mapping(address => UserInfo) private userInfo;\r\n    mapping(uint32 => DistributionInfo) private distributionInfo;\r\n\r\n    uint256 private constant fractionMultiplier = uint256(1 ether);\r\n\r\n    /**\r\n     * @dev Contract Variables:\r\n     * {assetRouter} - The contract from which calls to this farm are made.\r\n     */\r\n    address public assetRouter;\r\n    modifier onlyAssetRouter(){\r\n        if(msg.sender != assetRouter) revert CALLER_NOT_ASSET_ROUTER();\r\n        _;\r\n    }\r\n\r\n    // Some balancer pools are composable and have pre-minted bpt in them\r\n    bool public isComposable;\r\n\r\n    // ============ Methods ============\r\n\r\n    function initialize(address _lpPool, address _assetRouter) external initializer {\r\n        if(_lpPool == address(0)) revert INVALID_LP_POOL();\r\n        if(_assetRouter == address(0)) revert INVALID_ASSET_ROUTER();\r\n\r\n        __ReentrancyGuard_init();\r\n        assetRouter = _assetRouter;\r\n\r\n        lpPool = _lpPool;\r\n        poolId = IBasePool(_lpPool).getPoolId();\r\n\r\n        gauge = IRewardsOnlyGauge(GaugeFactory.getPoolGauge(_lpPool));\r\n        if(address(gauge) == address(0)){\r\n            gauge = IRewardsOnlyGauge(GaugeFactory.create(_lpPool));\r\n        }\r\n        streamer = IChildChainStreamer(GaugeFactory.getPoolStreamer(_lpPool));\r\n\r\n        distributionInfo[0] = DistributionInfo({\r\n            block: block.number,\r\n            rewardPerDepositAge: 0,\r\n            cumulativeRewardAgePerDepositAge: 0\r\n        });\r\n        distributionID = 1;\r\n        totalDepositLastUpdate = block.number;\r\n\r\n        IERC20(_lpPool).approve(address(Vault), type(uint256).max);\r\n        IERC20(_lpPool).approve(address(gauge), type(uint256).max);\r\n\r\n        // Only ComposableStable pools have this function\r\n        try IBasePool(_lpPool).getBptIndex() returns (uint256) {\r\n            isComposable = true;\r\n        } catch (bytes memory /*lowLevelData*/) {}\r\n    }\r\n\r\n    /**\r\n     * @dev Function that makes the deposits.\r\n     * Deposits {amount} of LP tokens from this contract's balance to the {Vault}.\r\n     */\r\n    function deposit(uint256 amount, address recipient) external onlyAssetRouter{\r\n        if(amount == 0) revert NO_LIQUIDITY_PROVIDED();\r\n        \r\n        _updateDeposit(recipient);\r\n        userInfo[recipient].stake += amount;\r\n        totalDeposits += amount;\r\n\r\n        gauge.deposit(amount);\r\n    }\r\n\r\n    /**\r\n     * @dev Withdraws funds from {origin} and sends them to the {recipient}.\r\n     */\r\n    function withdraw(uint256 amount, address origin, address recipient) external onlyAssetRouter{\r\n        _onWithdrawUpdate(amount, origin);\r\n        gauge.withdraw(amount);\r\n        IERC20(lpPool).safeTransfer(recipient, amount);\r\n    }\r\n\r\n    /**\r\n     * @dev Withdraws tokens from {origin} and sends them to the {recipient}. Saves gas compared to doing it in asset router.\r\n     */\r\n    function withdrawTokens(\r\n        bytes calldata userData, \r\n        uint256[] calldata minAmountsOut, \r\n        address origin, \r\n        address recipient\r\n    ) external onlyAssetRouter returns(uint256[] memory amounts, uint256 liquidity){\r\n        (IERC20[] memory tokens, , ) = Vault.getPoolTokens(poolId);\r\n        if(minAmountsOut.length != tokens.length) revert INVALID_MIN_AMOUNTS_OUT_LENGTH();\r\n\r\n        (amounts, liquidity) = _exitPool(userData, minAmountsOut, tokens, recipient);\r\n        _onWithdrawUpdate(liquidity, origin);\r\n    }\r\n\r\n    function _onWithdrawUpdate(uint256 amount, address origin) internal{\r\n        if(amount == 0) revert INSUFFICIENT_AMOUNT();\r\n\r\n        _updateDeposit(origin);\r\n\t\tUserInfo storage user = userInfo[origin];\r\n\t\t// Subtract amount from user.reward first, then subtract remainder from user.stake.\r\n\t\tuint256 reward = user.reward;\r\n\t\tif (amount > reward) {\r\n\t\t\tuint256 balance = user.stake + reward;\r\n            if(amount > balance) revert INSUFFICIENT_BALANCE();\r\n\r\n\t\t\tuser.stake = balance - amount;\r\n\t\t\ttotalDeposits = totalDeposits + reward - amount;\r\n\t\t\tuser.reward = 0;\r\n\t\t} else {\r\n\t\t\tuser.reward = reward - amount;\r\n\t\t}\r\n    }\r\n\r\n    // Move logic to separate function to avoid \"Stack too deep\" errors.\r\n    function _exitPool(bytes calldata userData, uint256[] calldata minAmountsOut, IERC20[] memory tokens, address recipient) internal returns(uint256[] memory amounts, uint256 liquidity){\r\n        gauge.withdraw(gauge.balanceOf(address(this)));\r\n\r\n        //Collect amounts before pool exit\r\n        amounts = new uint256[](tokens.length);\r\n        for (uint256 i = 0; i < tokens.length; i++) {\r\n            amounts[i] = tokens[i].balanceOf(recipient);\r\n        }\r\n        uint256 liquidityBefore = IERC20(lpPool).balanceOf(address(this));\r\n        Vault.exitPool(poolId, address(this), payable(recipient), IVault.ExitPoolRequest(tokens, minAmountsOut, userData, false));\r\n            \r\n        //Subtract amounts after pool exit\r\n        for (uint256 i = 0; i < tokens.length; i++) {\r\n            uint256 balanceAfter = tokens[i].balanceOf(recipient);\r\n            amounts[i] = balanceAfter - amounts[i];\r\n        }\r\n        uint256 liquidityAfter = IERC20(lpPool).balanceOf(address(this));\r\n        liquidity = liquidityBefore - liquidityAfter;\r\n\r\n        gauge.deposit(liquidityAfter);\r\n    }\r\n\r\n    /**\r\n     * @dev Core function of the strat, in charge of updating, collecting and re-investing rewards.\r\n     * 1. It claims rewards from the {gauge}.\r\n     * 2. It swaps reward tokens for {tokens}.\r\n     * 3. It deposits new tokens back to the {gauge}.\r\n     */\r\n    function distribute(\r\n        SwapInfo[] calldata swapInfos,\r\n        FeeInfo calldata feeInfo\r\n    ) external onlyAssetRouter returns(uint256 reward){\r\n        if(totalDeposits == 0) revert NO_LIQUIDITY();\r\n        uint32 _distributionID = distributionID;\r\n        if(distributionInfo[_distributionID - 1].block == block.number) revert CALL_ON_THE_SAME_BLOCK();\r\n\r\n        IChildChainStreamer _streamer = streamer;\r\n        uint256 rewardCount = _streamer.reward_count();\r\n        if(swapInfos.length != rewardCount) revert PARAMS_LENGTHS_NOT_MATCH_REWARD_COUNT();\r\n\r\n        IRewardsOnlyGauge _gauge = gauge;\r\n        IVault _Vault = Vault;\r\n        address _lpPool = lpPool;\r\n        _gauge.claim_rewards();\r\n        for (uint256 i = 0; i < rewardCount; i++) {\r\n            IERC20 rewardToken = _streamer.reward_tokens(i);\r\n            if (address(rewardToken) != address(_gauge) && address(rewardToken) != _lpPool) {  //can't use LP tokens in swap\r\n                uint256 balance = rewardToken.balanceOf(address(this));\r\n                balance -= _collectFees(rewardToken, balance, feeInfo);\r\n                if(balance > 0){\r\n                    rewardToken.approve(address(_Vault), balance);\r\n                    _batchSwap(swapInfos[i], payable(address(this)));\r\n                }\r\n            }\r\n        }\r\n\r\n        (IERC20[] memory tokens, , ) = _Vault.getPoolTokens(poolId);\r\n        address[] memory _tokens = new address[](tokens.length);\r\n        uint256[] memory joinAmounts = new uint256[](tokens.length);\r\n        for (uint256 i = 0; i < tokens.length; i++) {\r\n            _tokens[i] = address(tokens[i]);\r\n            if (address(tokens[i]) != _lpPool){\r\n                joinAmounts[i] = tokens[i].balanceOf(address(this));\r\n                if (joinAmounts[i] > 0){\r\n                    tokens[i].approve(address(_Vault), joinAmounts[i]);\r\n                }\r\n            }\r\n        }\r\n\r\n        bytes memory userData;\r\n        if(isComposable){\r\n            //If pool has pre-minted BPT then don't include those in userData.\r\n            uint256[] memory _joinAmounts = new uint256[](joinAmounts.length - 1);\r\n            uint256 _i = 0;\r\n            for (uint256 i = 0; i < tokens.length; i++) {\r\n                if(address(tokens[i]) != _lpPool){\r\n                    _joinAmounts[_i] = joinAmounts[i];\r\n                    _i += 1;\r\n                }\r\n            }\r\n            userData = abi.encode(1, _joinAmounts, 1);\r\n        } else {\r\n            userData = abi.encode(1, joinAmounts, 1);\r\n        }\r\n        _Vault.joinPool(poolId, address(this), address(this), IVault.JoinPoolRequest(_tokens, joinAmounts, userData, false));\r\n\r\n        reward = IERC20(_lpPool).balanceOf(address(this));\r\n\r\n        uint256 rewardPerDepositAge = reward * fractionMultiplier / (totalDepositAge + totalDeposits * (block.number - totalDepositLastUpdate));\r\n        uint256 cumulativeRewardAgePerDepositAge = distributionInfo[_distributionID - 1].cumulativeRewardAgePerDepositAge + rewardPerDepositAge * (block.number - distributionInfo[_distributionID - 1].block);\r\n\r\n        distributionInfo[_distributionID] = DistributionInfo({\r\n            block: block.number,\r\n            rewardPerDepositAge: rewardPerDepositAge,\r\n            cumulativeRewardAgePerDepositAge: cumulativeRewardAgePerDepositAge\r\n        });\r\n\r\n        distributionID = _distributionID + 1;\r\n        totalDepositLastUpdate = block.number;\r\n        totalDepositAge = 0;\r\n\r\n        _gauge.deposit(reward);\r\n    }\r\n\r\n    /**\r\n\t * @dev Sends fees to feeTo.\r\n\t */\r\n\tfunction _collectFees(IERC20 token, uint256 balance, FeeInfo calldata feeInfo) internal returns(uint256 feeAmount) {\r\n\t\tif (feeInfo.feeTo != address(0)) {\r\n\t\t\tfeeAmount = balance * feeInfo.fee / fractionMultiplier;\r\n\t\t\tif (feeAmount > 0) {\r\n\t\t\t\ttoken.safeTransfer(feeInfo.feeTo, feeAmount);\r\n\t\t\t}\r\n\t\t}\r\n\t}\r\n\r\n    /**\r\n     * @dev Performs balancer batch swap. Separate function to avoid Stack too deep errors.\r\n     */\r\n    function _batchSwap(SwapInfo calldata swapInfo, address payable recipient) internal {\r\n        Vault.batchSwap(\r\n            IVault.SwapKind.GIVEN_IN,\r\n            swapInfo.swaps,\r\n            swapInfo.assets,\r\n            IVault.FundManagement({sender: address(this), fromInternalBalance:false, recipient: recipient, toInternalBalance:false}),\r\n            swapInfo.limits,\r\n            type(uint256).max\r\n        );\r\n    }\r\n\r\n    /**\r\n     * @dev Returns total funds staked by the {_address}.\r\n     */\r\n    function userBalance(address _address) external view returns (uint256) {\r\n        return userInfo[_address].stake + _userReward(_address);\r\n    }\r\n\r\n    /**\r\n     * @dev Returns total funds locked in the farm.\r\n     */\r\n    function getTotalDeposits() external view returns (uint256 _totalDeposits) {\r\n        if(totalDeposits > 0){\r\n            _totalDeposits = gauge.balanceOf(address(this));\r\n        }\r\n    }\r\n    \r\n    function _updateDeposit(address _address) internal {\r\n        UserInfo storage user = userInfo[_address];\r\n        // Accumulate deposit age within the current distribution period.\r\n        if (user.lastDistribution == distributionID) {\r\n            // Add deposit age from previous deposit age update to now.\r\n            user.depositAge += user.stake * (block.number - user.lastUpdate);\r\n        } else {\r\n            // A reward has been distributed, update user.reward.\r\n            user.reward = _userReward(_address);\r\n            // Count fresh deposit age from previous reward distribution to now.\r\n            user.depositAge = user.stake * (block.number - distributionInfo[distributionID - 1].block);\r\n        }\r\n\r\n        user.lastDistribution = distributionID;\r\n        user.lastUpdate = block.number;\r\n\r\n        // Same with total deposit age.\r\n        totalDepositAge += (block.number - totalDepositLastUpdate) * totalDeposits;\r\n        totalDepositLastUpdate = block.number;\r\n    }\r\n\r\n    function _userReward(address _address) internal view returns (uint256) {\r\n        UserInfo memory user = userInfo[_address];\r\n        if (user.lastDistribution == distributionID) {\r\n            // Return user.reward if the distribution after the last user deposit did not happen yet.\r\n            return user.reward;\r\n        }\r\n        DistributionInfo memory lastUserDistributionInfo = distributionInfo[user.lastDistribution];\r\n        uint256 userDepositAge = user.depositAge + user.stake * (lastUserDistributionInfo.block - user.lastUpdate);\r\n        // Calculate reward between the last user deposit and the distribution after that.\r\n        uint256 rewardBeforeDistibution = userDepositAge * lastUserDistributionInfo.rewardPerDepositAge / fractionMultiplier;\r\n        // Calculate reward from the distributions that have happened after the last user deposit.\r\n        uint256 rewardAfterDistribution = user.stake * (distributionInfo[distributionID - 1].cumulativeRewardAgePerDepositAge - lastUserDistributionInfo.cumulativeRewardAgePerDepositAge) / fractionMultiplier;\r\n        return user.reward + rewardBeforeDistibution + rewardAfterDistribution;\r\n    }\r\n}\r\n",
  "sourcePath": "C:\\Users\\jugli\\Desktop\\uno\\uno-contracts\\contracts\\apps\\balancer\\UnoFarmBalancer.sol",
  "compiler": {
    "name": "solc",
    "version": "0.8.19+commit.7dd6d404.Emscripten.clang"
  },
  "schemaVersion": "3.4.16",
  "updatedAt": "2023-09-29T15:14:06.005Z",
  "networkType": "ethereum",
  "devdoc": {
    "events": {
      "Initialized(uint8)": {
        "details": "Triggered when the contract has been initialized or reinitialized."
      }
    },
    "kind": "dev",
    "methods": {
      "deposit(uint256,address)": {
        "details": "Function that makes the deposits. Deposits {amount} of LP tokens from this contract's balance to the {Vault}."
      },
      "distribute(((bytes32,uint256,uint256,uint256,bytes)[],address[],int256[])[],(address,uint256))": {
        "details": "Core function of the strat, in charge of updating, collecting and re-investing rewards. 1. It claims rewards from the {gauge}. 2. It swaps reward tokens for {tokens}. 3. It deposits new tokens back to the {gauge}."
      },
      "getTotalDeposits()": {
        "details": "Returns total funds locked in the farm."
      },
      "userBalance(address)": {
        "details": "Returns total funds staked by the {_address}."
      },
      "withdraw(uint256,address,address)": {
        "details": "Withdraws funds from {origin} and sends them to the {recipient}."
      },
      "withdrawTokens(bytes,uint256[],address,address)": {
        "details": "Withdraws tokens from {origin} and sends them to the {recipient}. Saves gas compared to doing it in asset router."
      }
    },
    "stateVariables": {
      "Vault": {
        "details": "Third Party Contracts: {Vault} - Main Balancer contract used for pool exits/joins and swaps. {GaugeFactory} - Contract that deploys gauges. {gauge} - Contract that distributes reward tokens. {streamer} - Contract reward tokens get sent to from the bridge."
      },
      "assetRouter": {
        "details": "Contract Variables: {assetRouter} - The contract from which calls to this farm are made."
      },
      "lpPool": {
        "details": "Contract Variables: {lpPool} - Pool. {poolId} - Bytes32 representation of the {lpPool}. {totalDeposits} - Total deposits made by users. {totalDepositAge} - Deposits multiplied by blocks the deposit has been in. Flushed every reward distribution. {totalDepositLastUpdate} - Last {totalDepositAge} update block. {distributionID} - Current distribution ID. {userInfo} - Info on each user. {distributionInfo} - Info on each distribution. {fractionMultiplier} - Used to store decimal values."
      }
    },
    "version": 1
  },
  "userdoc": {
    "kind": "user",
    "methods": {},
    "version": 1
  }
}