{
  "contractName": "UnoFarmSushiswap",
  "abi": [
    {
      "anonymous": false,
      "inputs": [
        {
          "indexed": false,
          "internalType": "uint8",
          "name": "version",
          "type": "uint8"
        }
      ],
      "name": "Initialized",
      "type": "event"
    },
    {
      "inputs": [],
      "name": "assetRouter",
      "outputs": [
        {
          "internalType": "address",
          "name": "",
          "type": "address"
        }
      ],
      "stateMutability": "view",
      "type": "function",
      "constant": true
    },
    {
      "inputs": [],
      "name": "lpPair",
      "outputs": [
        {
          "internalType": "address",
          "name": "",
          "type": "address"
        }
      ],
      "stateMutability": "view",
      "type": "function",
      "constant": true
    },
    {
      "inputs": [],
      "name": "pid",
      "outputs": [
        {
          "internalType": "uint256",
          "name": "",
          "type": "uint256"
        }
      ],
      "stateMutability": "view",
      "type": "function",
      "constant": true
    },
    {
      "inputs": [],
      "name": "rewardToken",
      "outputs": [
        {
          "internalType": "address",
          "name": "",
          "type": "address"
        }
      ],
      "stateMutability": "view",
      "type": "function",
      "constant": true
    },
    {
      "inputs": [],
      "name": "rewarderToken",
      "outputs": [
        {
          "internalType": "address",
          "name": "",
          "type": "address"
        }
      ],
      "stateMutability": "view",
      "type": "function",
      "constant": true
    },
    {
      "inputs": [],
      "name": "tokenA",
      "outputs": [
        {
          "internalType": "address",
          "name": "",
          "type": "address"
        }
      ],
      "stateMutability": "view",
      "type": "function",
      "constant": true
    },
    {
      "inputs": [],
      "name": "tokenB",
      "outputs": [
        {
          "internalType": "address",
          "name": "",
          "type": "address"
        }
      ],
      "stateMutability": "view",
      "type": "function",
      "constant": true
    },
    {
      "inputs": [
        {
          "internalType": "address",
          "name": "_lpPair",
          "type": "address"
        },
        {
          "internalType": "address",
          "name": "_assetRouter",
          "type": "address"
        }
      ],
      "name": "initialize",
      "outputs": [],
      "stateMutability": "nonpayable",
      "type": "function"
    },
    {
      "inputs": [
        {
          "internalType": "uint256",
          "name": "amountA",
          "type": "uint256"
        },
        {
          "internalType": "uint256",
          "name": "amountB",
          "type": "uint256"
        },
        {
          "internalType": "uint256",
          "name": "amountAMin",
          "type": "uint256"
        },
        {
          "internalType": "uint256",
          "name": "amountBMin",
          "type": "uint256"
        },
        {
          "internalType": "uint256",
          "name": "amountLP",
          "type": "uint256"
        },
        {
          "internalType": "address",
          "name": "origin",
          "type": "address"
        },
        {
          "internalType": "address",
          "name": "recipient",
          "type": "address"
        }
      ],
      "name": "deposit",
      "outputs": [
        {
          "internalType": "uint256",
          "name": "sentA",
          "type": "uint256"
        },
        {
          "internalType": "uint256",
          "name": "sentB",
          "type": "uint256"
        },
        {
          "internalType": "uint256",
          "name": "liquidity",
          "type": "uint256"
        }
      ],
      "stateMutability": "nonpayable",
      "type": "function"
    },
    {
      "inputs": [
        {
          "internalType": "uint256",
          "name": "amount",
          "type": "uint256"
        },
        {
          "internalType": "uint256",
          "name": "amountAMin",
          "type": "uint256"
        },
        {
          "internalType": "uint256",
          "name": "amountBMin",
          "type": "uint256"
        },
        {
          "internalType": "bool",
          "name": "withdrawLP",
          "type": "bool"
        },
        {
          "internalType": "address",
          "name": "origin",
          "type": "address"
        },
        {
          "internalType": "address",
          "name": "recipient",
          "type": "address"
        }
      ],
      "name": "withdraw",
      "outputs": [
        {
          "internalType": "uint256",
          "name": "amountA",
          "type": "uint256"
        },
        {
          "internalType": "uint256",
          "name": "amountB",
          "type": "uint256"
        }
      ],
      "stateMutability": "nonpayable",
      "type": "function"
    },
    {
      "inputs": [
        {
          "internalType": "address[]",
          "name": "rewardTokenToTokenARoute",
          "type": "address[]"
        },
        {
          "internalType": "address[]",
          "name": "rewardTokenToTokenBRoute",
          "type": "address[]"
        },
        {
          "internalType": "address[]",
          "name": "rewarderTokenToTokenARoute",
          "type": "address[]"
        },
        {
          "internalType": "address[]",
          "name": "rewarderTokenToTokenBRoute",
          "type": "address[]"
        },
        {
          "internalType": "uint256[4]",
          "name": "amountsOutMin",
          "type": "uint256[4]"
        }
      ],
      "name": "distribute",
      "outputs": [
        {
          "internalType": "uint256",
          "name": "reward",
          "type": "uint256"
        }
      ],
      "stateMutability": "nonpayable",
      "type": "function"
    },
    {
      "inputs": [
        {
          "internalType": "address",
          "name": "_address",
          "type": "address"
        }
      ],
      "name": "userBalance",
      "outputs": [
        {
          "internalType": "uint256",
          "name": "",
          "type": "uint256"
        }
      ],
      "stateMutability": "view",
      "type": "function",
      "constant": true
    },
    {
      "inputs": [],
      "name": "getTotalDeposits",
      "outputs": [
        {
          "internalType": "uint256",
          "name": "_totalDeposits",
          "type": "uint256"
        }
      ],
      "stateMutability": "view",
      "type": "function",
      "constant": true
    }
  ],
  "bytecode": "0x608060405234801561001057600080fd5b50612b10806100206000396000f3fe608060405234801561001057600080fd5b50600436106100cf5760003560e01c8063485cc9551161008c578063bc0aac1011610066578063bc0aac10146101bc578063d5634683146101cf578063f1068454146101f7578063f7c618c11461020057600080fd5b8063485cc955146101815780635f64b55b1461019657806384b96585146101a957600080fd5b80630103c92b146100d45780630fc63d10146100fa5780631666768a14610125578063168a4822146101535780632a8dc1311461015b578063452ed4f11461016e575b600080fd5b6100e76100e23660046122a5565b610213565b6040519081526020015b60405180910390f35b60365461010d906001600160a01b031681565b6040516001600160a01b0390911681526020016100f1565b6101386101333660046122c2565b610247565b604080519384526020840192909252908201526060016100f1565b6100e76104f2565b60345461010d906001600160a01b031681565b60355461010d906001600160a01b031681565b61019461018f36600461232b565b610581565b005b60375461010d906001600160a01b031681565b6100e76101b7366004612420565b610cde565b603f5461010d906001600160a01b031681565b6101e26101dd366004612542565b6118ae565b604080519283526020830191909152016100f1565b6100e760385481565b60335461010d906001600160a01b031681565b600061021e82611b41565b6001600160a01b0383166000908152603d602052604090205461024191906125bf565b92915050565b6000806000600260015414156102785760405162461bcd60e51b815260040161026f906125d7565b60405180910390fd5b6002600155603f546001600160a01b031633146102a75760405162461bcd60e51b815260040161026f9061260e565b6000808b1180156102b8575060008a115b1561038057731b02da8cb0d097eb8d57a175b88c7d8b479975066001600160a01b031663e8e33700603660009054906101000a90046001600160a01b0316603760009054906101000a90046001600160a01b03168e8e8e8e30426040518963ffffffff1660e01b8152600401610335989796959493929190612645565b6060604051808303816000875af1158015610354573d6000803e3d6000fd5b505050506040513d601f19601f82011682018060405250810190610378919061268e565b919550935090505b61038a87826125bf565b9150600082116103d45760405162461bcd60e51b81526020600482015260156024820152741393d7d3125455525112551657d41493d592511151605a1b604482015260640161026f565b6103dd85611cd6565b6001600160a01b0385166000908152603d6020526040812080548492906104059084906125bf565b92505081905550816039600082825461041e91906125bf565b9091555050603854604051638dbdbe6d60e01b8152600481019190915260248101839052306044820152730769fd68dfb93167989c6f7254cd0d766fb2841f90638dbdbe6d90606401600060405180830381600087803b15801561048157600080fd5b505af1158015610495573d6000803e3d6000fd5b505050506104bc86858d6104a991906126bc565b6036546001600160a01b03169190611dfb565b6104dd866104ca858d6126bc565b6037546001600160a01b03169190611dfb565b50600180819055509750975097945050505050565b6039546000901561057e576038546040516393f1a40b60e01b81526004810191909152306024820152730769fd68dfb93167989c6f7254cd0d766fb2841f906393f1a40b906044016040805180830381865afa158015610556573d6000803e3d6000fd5b505050506040513d601f19601f8201168201806040525081019061057a91906126d3565b5090505b90565b600061058d6001611e4d565b905080156105a5576000805461ff0019166101001790555b603f80546001600160a01b0319166001600160a01b0384161790556105c983611ed5565b603855603580546001600160a01b0319166001600160a01b03851617905560408051630ab560e160e41b81529051730769fd68dfb93167989c6f7254cd0d766fb2841f9163ab560e109160048083019260209291908290030181865afa158015610637573d6000803e3d6000fd5b505050506040513d601f19601f8201168201806040525081019061065b91906126f7565b603380546001600160a01b0319166001600160a01b039290921691909117905560385460405163c346253d60e01b81526004810191909152600090730769fd68dfb93167989c6f7254cd0d766fb2841f9063c346253d90602401602060405180830381865afa1580156106d2573d6000803e3d6000fd5b505050506040513d601f19601f820116820180604052508101906106f691906126f7565b60385460405163d63b3c4960e01b8152600481019190915260006024820181905260448201526001600160a01b03919091169063d63b3c4990606401600060405180830381865afa15801561074f573d6000803e3d6000fd5b505050506040513d6000823e601f3d908101601f1916820160405261077791908101906127a3565b5090508060008151811061078d5761078d612868565b602090810291909101810151603480546001600160a01b0319166001600160a01b0392831617905560355460408051630dfe168160e01b815290519190921692630dfe168192600480820193918290030181865afa1580156107f3573d6000803e3d6000fd5b505050506040513d601f19601f8201168201806040525081019061081791906126f7565b603680546001600160a01b0319166001600160a01b039283161790556035546040805163d21220a760e01b81529051919092169163d21220a79160048083019260209291908290030181865afa158015610875573d6000803e3d6000fd5b505050506040513d601f19601f8201168201806040525081019061089991906126f7565b603780546001600160a01b0319166001600160a01b03928316179055604080516060810182524380825260006020808401828152848601838152928052603e90915292517f5f97c64b3c4bdfff50b5c8f505e633128432c6b07fc6c8abc77dce786c7317d45591517f5f97c64b3c4bdfff50b5c8f505e633128432c6b07fc6c8abc77dce786c7317d55590517f5f97c64b3c4bdfff50b5c8f505e633128432c6b07fc6c8abc77dce786c7317d655603c805463ffffffff19166001179055603b55603554905163095ea7b360e01b8152730769fd68dfb93167989c6f7254cd0d766fb2841f6004820152600019602482015291169063095ea7b3906044016020604051808303816000875af11580156109b6573d6000803e3d6000fd5b505050506040513d601f19601f820116820180604052508101906109da919061287e565b5060355460405163095ea7b360e01b8152731b02da8cb0d097eb8d57a175b88c7d8b47997506600482015260001960248201526001600160a01b039091169063095ea7b3906044016020604051808303816000875af1158015610a41573d6000803e3d6000fd5b505050506040513d601f19601f82011682018060405250810190610a65919061287e565b5060335460405163095ea7b360e01b8152731b02da8cb0d097eb8d57a175b88c7d8b47997506600482015260001960248201526001600160a01b039091169063095ea7b3906044016020604051808303816000875af1158015610acc573d6000803e3d6000fd5b505050506040513d601f19601f82011682018060405250810190610af0919061287e565b5060345460405163095ea7b360e01b8152731b02da8cb0d097eb8d57a175b88c7d8b47997506600482015260001960248201526001600160a01b039091169063095ea7b3906044016020604051808303816000875af1158015610b57573d6000803e3d6000fd5b505050506040513d601f19601f82011682018060405250810190610b7b919061287e565b5060365460405163095ea7b360e01b8152731b02da8cb0d097eb8d57a175b88c7d8b47997506600482015260001960248201526001600160a01b039091169063095ea7b3906044016020604051808303816000875af1158015610be2573d6000803e3d6000fd5b505050506040513d601f19601f82011682018060405250810190610c06919061287e565b5060375460405163095ea7b360e01b8152731b02da8cb0d097eb8d57a175b88c7d8b47997506600482015260001960248201526001600160a01b039091169063095ea7b3906044016020604051808303816000875af1158015610c6d573d6000803e3d6000fd5b505050506040513d601f19601f82011682018060405250810190610c91919061287e565b50508015610cd9576000805461ff0019169055604051600181527f7f26b83ff96e1f2b6a682f133852f6798a09c465da95921460cefb38474024989060200160405180910390a15b505050565b603f546000906001600160a01b03163314610d0b5760405162461bcd60e51b815260040161026f9061260e565b60026001541415610d2e5760405162461bcd60e51b815260040161026f906125d7565b6002600155603954610d715760405162461bcd60e51b815260206004820152600c60248201526b4e4f5f4c495155494449545960a01b604482015260640161026f565b603c544390603e90600090610d8e9060019063ffffffff1661289b565b63ffffffff1681526020810191909152604001600020541415610df35760405162461bcd60e51b815260206004820152601b60248201527f43414e545f43414c4c5f4f4e5f5448455f53414d455f424c4f434b0000000000604482015260640161026f565b6033546001600160a01b03168a8a600081610e1057610e10612868565b9050602002016020810190610e2591906122a5565b6001600160a01b0316148015610e7e57506036546001600160a01b03168a8a610e4f6001826126bc565b818110610e5e57610e5e612868565b9050602002016020810190610e7391906122a5565b6001600160a01b0316145b610eca5760405162461bcd60e51b815260206004820152601860248201527f4241445f5245574152445f544f4b454e5f415f524f5554450000000000000000604482015260640161026f565b6033546001600160a01b03168888600081610ee757610ee7612868565b9050602002016020810190610efc91906122a5565b6001600160a01b0316148015610f5557506037546001600160a01b03168888610f266001826126bc565b818110610f3557610f35612868565b9050602002016020810190610f4a91906122a5565b6001600160a01b0316145b610fa15760405162461bcd60e51b815260206004820152601860248201527f4241445f5245574152445f544f4b454e5f425f524f5554450000000000000000604482015260640161026f565b6034546001600160a01b03168686600081610fbe57610fbe612868565b9050602002016020810190610fd391906122a5565b6001600160a01b031614801561102c57506036546001600160a01b03168686610ffd6001826126bc565b81811061100c5761100c612868565b905060200201602081019061102191906122a5565b6001600160a01b0316145b6110785760405162461bcd60e51b815260206004820152601a60248201527f4241445f52455741524445525f544f4b454e5f415f524f555445000000000000604482015260640161026f565b6034546001600160a01b0316848460008161109557611095612868565b90506020020160208101906110aa91906122a5565b6001600160a01b031614801561110357506037546001600160a01b031684846110d46001826126bc565b8181106110e3576110e3612868565b90506020020160208101906110f891906122a5565b6001600160a01b0316145b61114f5760405162461bcd60e51b815260206004820152601a60248201527f4241445f52455741524445525f544f4b454e5f425f524f555445000000000000604482015260640161026f565b603854604051630c7e663b60e11b81526004810191909152306024820152730769fd68dfb93167989c6f7254cd0d766fb2841f906318fccc7690604401600060405180830381600087803b1580156111a657600080fd5b505af11580156111ba573d6000803e3d6000fd5b50506033546040516370a0823160e01b815230600482015260009350600292506001600160a01b03909116906370a0823190602401602060405180830381865afa15801561120c573d6000803e3d6000fd5b505050506040513d601f19601f8201168201806040525081019061123091906128c0565b61123a91906128d9565b6033546036549192506001600160a01b039182169116146112e657731b02da8cb0d097eb8d57a175b88c7d8b479975066338ed17398285600060200201518e8e30426040518763ffffffff1660e01b815260040161129d969594939291906128fb565b6000604051808303816000875af11580156112bc573d6000803e3d6000fd5b505050506040513d6000823e601f3d908101601f191682016040526112e4919081019061296e565b505b6033546037546001600160a01b0390811691161461138b5760208301516040516338ed173960e01b8152731b02da8cb0d097eb8d57a175b88c7d8b47997506916338ed1739916113429185918e908e90309042906004016128fb565b6000604051808303816000875af1158015611361573d6000803e3d6000fd5b505050506040513d6000823e601f3d908101601f19168201604052611389919081019061296e565b505b506034546040516370a0823160e01b81523060048201526000916002916001600160a01b03909116906370a0823190602401602060405180830381865afa1580156113da573d6000803e3d6000fd5b505050506040513d601f19601f820116820180604052508101906113fe91906128c0565b61140891906128d9565b6034546036549192506001600160a01b039182169116146114b05760408084015190516338ed173960e01b8152731b02da8cb0d097eb8d57a175b88c7d8b47997506916338ed1739916114679185918c908c90309042906004016128fb565b6000604051808303816000875af1158015611486573d6000803e3d6000fd5b505050506040513d6000823e601f3d908101601f191682016040526114ae919081019061296e565b505b6034546037546001600160a01b039081169116146115555760608301516040516338ed173960e01b8152731b02da8cb0d097eb8d57a175b88c7d8b47997506916338ed17399161150c9185918a908a90309042906004016128fb565b6000604051808303816000875af115801561152b573d6000803e3d6000fd5b505050506040513d6000823e601f3d908101601f19168201604052611553919081019061296e565b505b506036546037546040516370a0823160e01b8152306004820152731b02da8cb0d097eb8d57a175b88c7d8b479975069263e8e33700926001600160a01b039182169291169082906370a0823190602401602060405180830381865afa1580156115c2573d6000803e3d6000fd5b505050506040513d601f19601f820116820180604052508101906115e691906128c0565b6037546040516370a0823160e01b81523060048201526001600160a01b03909116906370a0823190602401602060405180830381865afa15801561162e573d6000803e3d6000fd5b505050506040513d601f19601f8201168201806040525081019061165291906128c0565b60018030426040518963ffffffff1660e01b815260040161167a989796959493929190612645565b6060604051808303816000875af1158015611699573d6000803e3d6000fd5b505050506040513d601f19601f820116820180604052508101906116bd919061268e565b603b54909350600092506116d29150436126bc565b6039546116df91906129ab565b603a546116ec91906125bf565b6116fe670de0b6b3a7640000846129ab565b61170891906128d9565b603c54909150600090603e9082906117289060019063ffffffff1661289b565b63ffffffff16815260208101919091526040016000205461174990436126bc565b61175390836129ab565b603c54603e9060009061176e9060019063ffffffff1661289b565b63ffffffff1663ffffffff1681526020019081526020016000206002015461179691906125bf565b604080516060810182524381526020808201868152828401858152603c805463ffffffff9081166000908152603e909552958420945185559151600185810191909155905160029094019390935580549495509193919290916117fb918591166129ca565b825463ffffffff9182166101009390930a92830291909202199091161790555043603b556000603a55603854604051638dbdbe6d60e01b8152600481019190915260248101849052306044820152730769fd68dfb93167989c6f7254cd0d766fb2841f90638dbdbe6d90606401600060405180830381600087803b15801561188257600080fd5b505af1158015611896573d6000803e3d6000fd5b50506001805550929c9b505050505050505050505050565b600080600260015414156118d45760405162461bcd60e51b815260040161026f906125d7565b6002600155603f546001600160a01b031633146119035760405162461bcd60e51b815260040161026f9061260e565b600088116119495760405162461bcd60e51b8152602060048201526013602482015272125394d551919250d251539517d05353d55395606a1b604482015260640161026f565b61195284611cd6565b6001600160a01b0384166000908152603d6020526040902060028101548911156119c057600281015481548a91611988916125bf565b61199291906126bc565b815560028101546039548a916119a7916125bf565b6119b191906126bc565b603955600060028201556119da565b888160020160008282546119d491906126bc565b90915550505b603854604051630ad58d2f60e01b81526004810191909152602481018a9052306044820152730769fd68dfb93167989c6f7254cd0d766fb2841f90630ad58d2f90606401600060405180830381600087803b158015611a3857600080fd5b505af1158015611a4c573d6000803e3d6000fd5b505050508515611a7a57603554611a6d906001600160a01b0316858b611dfb565b6000809250925050611b30565b603654603754604051635d5155ef60e11b81526001600160a01b0392831660048201529082166024820152604481018b9052606481018a90526084810189905290851660a48201524260c4820152731b02da8cb0d097eb8d57a175b88c7d8b479975069063baa2abde9060e40160408051808303816000875af1158015611b05573d6000803e3d6000fd5b505050506040513d601f19601f82011682018060405250810190611b2991906126d3565b9093509150505b600180559097909650945050505050565b6001600160a01b0381166000908152603d60209081526040808320815160a08101835281548152600182015493810193909352600281015491830191909152600381015463ffffffff908116606084018190526004909201546080840152603c54161415611bb3576040015192915050565b60608082015163ffffffff166000908152603e6020908152604080832081519485018252805480865260018201549386019390935260020154908401526080840151611bfe916126bc565b8351611c0a91906129ab565b8360200151611c1991906125bf565b90506000670de0b6b3a7640000836020015183611c3691906129ab565b611c4091906128d9565b6040840151603c54919250600091670de0b6b3a76400009190603e908490611c709060019063ffffffff1661289b565b63ffffffff1663ffffffff16815260200190815260200160002060020154611c9891906126bc565b8651611ca491906129ab565b611cae91906128d9565b905080828660400151611cc191906125bf565b611ccb91906125bf565b979650505050505050565b6001600160a01b0381166000908152603d60205260409020603c54600382015463ffffffff90811691161415611d3f576004810154611d1590436126bc565b8154611d2191906129ab565b816001016000828254611d3491906125bf565b90915550611d9b9050565b611d4882611b41565b6002820155603c54603e90600090611d689060019063ffffffff1661289b565b63ffffffff168152602081019190915260400160002054611d8990436126bc565b8154611d9591906129ab565b60018201555b603c5460038201805463ffffffff191663ffffffff9092169190911790554360048201819055603954603b549091611dd391906126bc565b611ddd91906129ab565b603a6000828254611dee91906125bf565b909155505043603b555050565b604080516001600160a01b038416602482015260448082018490528251808303909101815260649091019091526020810180516001600160e01b031663a9059cbb60e01b179052610cd9908490612048565b60008054610100900460ff1615611e94578160ff166001148015611e705750303b155b611e8c5760405162461bcd60e51b815260040161026f906129f2565b506000919050565b60005460ff808416911610611ebb5760405162461bcd60e51b815260040161026f906129f2565b506000805460ff191660ff92909216919091179055600190565b600080805b730769fd68dfb93167989c6f7254cd0d766fb2841f6001600160a01b031663081e3eda6040518163ffffffff1660e01b8152600401602060405180830381865afa158015611f2c573d6000803e3d6000fd5b505050506040513d601f19601f82011682018060405250810190611f5091906128c0565b811015612003576040516378ed5d1f60e01b8152600481018290526001600160a01b03851690730769fd68dfb93167989c6f7254cd0d766fb2841f906378ed5d1f90602401602060405180830381865afa158015611fb2573d6000803e3d6000fd5b505050506040513d601f19601f82011682018060405250810190611fd691906126f7565b6001600160a01b03161415611ff15780925060019150612003565b80611ffb81612a40565b915050611eda565b50806120425760405162461bcd60e51b815260206004820152600e60248201526d5049445f4e4f545f45584953545360901b604482015260640161026f565b50919050565b600061209d826040518060400160405280602081526020017f5361666545524332303a206c6f772d6c6576656c2063616c6c206661696c6564815250856001600160a01b031661211a9092919063ffffffff16565b805190915015610cd957808060200190518101906120bb919061287e565b610cd95760405162461bcd60e51b815260206004820152602a60248201527f5361666545524332303a204552433230206f7065726174696f6e20646964206e6044820152691bdd081cdd58d8d9595960b21b606482015260840161026f565b60606121298484600085612133565b90505b9392505050565b6060824710156121945760405162461bcd60e51b815260206004820152602660248201527f416464726573733a20696e73756666696369656e742062616c616e636520666f6044820152651c8818d85b1b60d21b606482015260840161026f565b6001600160a01b0385163b6121eb5760405162461bcd60e51b815260206004820152601d60248201527f416464726573733a2063616c6c20746f206e6f6e2d636f6e7472616374000000604482015260640161026f565b600080866001600160a01b031685876040516122079190612a8b565b60006040518083038185875af1925050503d8060008114612244576040519150601f19603f3d011682016040523d82523d6000602084013e612249565b606091505b5091509150611ccb8282866060831561226357508161212c565b8251156122735782518084602001fd5b8160405162461bcd60e51b815260040161026f9190612aa7565b6001600160a01b03811681146122a257600080fd5b50565b6000602082840312156122b757600080fd5b813561212c8161228d565b600080600080600080600060e0888a0312156122dd57600080fd5b873596506020880135955060408801359450606088013593506080880135925060a088013561230b8161228d565b915060c088013561231b8161228d565b8091505092959891949750929550565b6000806040838503121561233e57600080fd5b82356123498161228d565b915060208301356123598161228d565b809150509250929050565b60008083601f84011261237657600080fd5b50813567ffffffffffffffff81111561238e57600080fd5b6020830191508360208260051b85010111156123a957600080fd5b9250929050565b634e487b7160e01b600052604160045260246000fd5b6040516080810167ffffffffffffffff811182821017156123e9576123e96123b0565b60405290565b604051601f8201601f1916810167ffffffffffffffff81118282101715612418576124186123b0565b604052919050565b6000806000806000806000806000610100808b8d03121561244057600080fd5b8a3567ffffffffffffffff8082111561245857600080fd5b6124648e838f01612364565b909c509a5060208d013591508082111561247d57600080fd5b6124898e838f01612364565b909a50985060408d01359150808211156124a257600080fd5b6124ae8e838f01612364565b909850965060608d01359150808211156124c757600080fd5b506124d48d828e01612364565b909550935050609f8b018c136124e957600080fd5b6124f16123c6565b908b0190808d83111561250357600080fd5b60808d015b83811015612520578035835260209283019201612508565b508093505050509295985092959850929598565b80151581146122a257600080fd5b60008060008060008060c0878903121561255b57600080fd5b863595506020870135945060408701359350606087013561257b81612534565b9250608087013561258b8161228d565b915060a087013561259b8161228d565b809150509295509295509295565b634e487b7160e01b600052601160045260246000fd5b600082198211156125d2576125d26125a9565b500190565b6020808252601f908201527f5265656e7472616e637947756172643a207265656e7472616e742063616c6c00604082015260600190565b60208082526017908201527f43414c4c45525f4e4f545f41535345545f524f55544552000000000000000000604082015260600190565b6001600160a01b039889168152968816602088015260408701959095526060860193909352608085019190915260a084015290921660c082015260e08101919091526101000190565b6000806000606084860312156126a357600080fd5b8351925060208401519150604084015190509250925092565b6000828210156126ce576126ce6125a9565b500390565b600080604083850312156126e657600080fd5b505080516020909101519092909150565b60006020828403121561270957600080fd5b815161212c8161228d565b600067ffffffffffffffff82111561272e5761272e6123b0565b5060051b60200190565b600082601f83011261274957600080fd5b8151602061275e61275983612714565b6123ef565b82815260059290921b8401810191818101908684111561277d57600080fd5b8286015b848110156127985780518352918301918301612781565b509695505050505050565b600080604083850312156127b657600080fd5b825167ffffffffffffffff808211156127ce57600080fd5b818501915085601f8301126127e257600080fd5b815160206127f261275983612714565b82815260059290921b8401810191818101908984111561281157600080fd5b948201945b838610156128385785516128298161228d565b82529482019490820190612816565b9188015191965090935050508082111561285157600080fd5b5061285e85828601612738565b9150509250929050565b634e487b7160e01b600052603260045260246000fd5b60006020828403121561289057600080fd5b815161212c81612534565b600063ffffffff838116908316818110156128b8576128b86125a9565b039392505050565b6000602082840312156128d257600080fd5b5051919050565b6000826128f657634e487b7160e01b600052601260045260246000fd5b500490565b868152602080820187905260a0604083018190528201859052600090869060c08401835b8881101561294d5783356129328161228d565b6001600160a01b03168252928201929082019060010161291f565b506001600160a01b0396909616606085015250505060800152949350505050565b60006020828403121561298057600080fd5b815167ffffffffffffffff81111561299757600080fd5b6129a384828501612738565b949350505050565b60008160001904831182151516156129c5576129c56125a9565b500290565b600063ffffffff8083168185168083038211156129e9576129e96125a9565b01949350505050565b6020808252602e908201527f496e697469616c697a61626c653a20636f6e747261637420697320616c72656160408201526d191e481a5b9a5d1a585b1a5e995960921b606082015260800190565b6000600019821415612a5457612a546125a9565b5060010190565b60005b83811015612a76578181015183820152602001612a5e565b83811115612a85576000848401525b50505050565b60008251612a9d818460208701612a5b565b9190910192915050565b6020815260008251806020840152612ac6816040850160208701612a5b565b601f01601f1916919091016040019291505056fea2646970667358221220429caa7015c4864898833de383372d2335de6de0a6ffc05db113e05e28a2d8ee64736f6c634300080a0033",
  "immutableReferences": {},
  "source": "// SPDX-License-Identifier: MIT\r\npragma solidity 0.8.10;\r\n \r\nimport '../../interfaces/IUniswapV2Pair.sol';\r\nimport '../../interfaces/IUniswapV2Router.sol';\r\nimport '../../interfaces/IMiniChefV2.sol';\r\nimport '../../interfaces/IRewarder.sol';\r\nimport '../../interfaces/IWMATIC.sol';\r\nimport '@openzeppelin/contracts-upgradeable/security/ReentrancyGuardUpgradeable.sol';\r\nimport '@openzeppelin/contracts-upgradeable/token/ERC20/utils/SafeERC20Upgradeable.sol';\r\nimport '@openzeppelin/contracts-upgradeable/token/ERC20/IERC20Upgradeable.sol';\r\nimport '@openzeppelin/contracts-upgradeable/proxy/utils/Initializable.sol';\r\n\r\ncontract UnoFarmSushiswap is Initializable, ReentrancyGuardUpgradeable {\r\n    using SafeERC20Upgradeable for IERC20Upgradeable;\r\n    /**\r\n     * @dev DistributionInfo:\r\n     * {_block} - Distribution block number.\r\n     * {rewardPerDepositAge} - Distribution reward divided by {totalDepositAge}. \r\n     * {cumulativeRewardAgePerDepositAge} - Sum of {rewardPerDepositAge}s multiplied by distribution interval.\r\n     */\r\n    struct DistributionInfo {\r\n        uint256 _block;\r\n        uint256 rewardPerDepositAge;\r\n        uint256 cumulativeRewardAgePerDepositAge;\r\n    }\r\n    /**\r\n     * @dev UserInfo:\r\n     * {stake} - Amount of LP tokens deposited by the user.\r\n     * {depositAge} - User deposits multiplied by blocks the deposit has been in. \r\n     * {reward} - Amount of LP tokens entitled to the user.\r\n     * {lastDistribution} - Distribution ID before the last user deposit.\r\n     * {lastUpdate} - Deposit update block.\r\n     */\r\n    struct UserInfo {\r\n        uint256 stake;\r\n        uint256 depositAge;\r\n        uint256 reward;\r\n        uint32 lastDistribution;\r\n        uint256 lastUpdate;\r\n    }\r\n\r\n    /**\r\n     * @dev Tokens Used:\r\n     * {rewardToken} - Token generated by staking (SUSHI).\r\n     * {rewarderToken} - Token generated by ComplexRewarderTime contract.\r\n     * {lpPair} - Token that the strategy maximizes. The same token that users deposit in the {MiniChef}.\r\n     * {tokenA, tokenB} - Tokens that the strategy maximizes.\r\n     */\r\n    address public rewardToken;\r\n    address public rewarderToken;\r\n    address public lpPair;\r\n    address public tokenA;\r\n    address public tokenB;\r\n\r\n    /**\r\n     * @dev Third Party Contracts:\r\n     * {sushiswapRouter} - The contract that executes swaps.\r\n     * {MiniChef} -The contract that distibutes {rewardToken}.\r\n     */\r\n    IUniswapV2Router01 private constant sushiswapRouter = IUniswapV2Router01(0x1b02dA8Cb0d097eB8D57A175b88c7D8b47997506);\r\n    IMiniChefV2 private constant MiniChef = IMiniChefV2(0x0769fd68dFb93167989C6f7254cd0D766Fb2841F);\r\n\r\n    /**\r\n     * @dev Contract Variables:\r\n     * {pid} - Pool ID.\r\n\r\n     * {totalDeposits} - Total deposits made by users.\r\n     * {totalDepositAge} - Deposits multiplied by blocks the deposit has been in. Flushed every reward distribution.\r\n     * {totalDepositLastUpdate} - Last {totalDepositAge} update block.\r\n\r\n     * {distributionID} - Current distribution ID.\r\n     * {userInfo} - Info on each user.\r\n     * {distributionInfo} - Info on each distribution.\r\n\r\n     * {fractionMultiplier} - Used to store decimal values.\r\n     */\r\n    uint256 public pid;\r\n\r\n    uint256 private totalDeposits;\r\n    uint256 private totalDepositAge;\r\n    uint256 private totalDepositLastUpdate;\r\n\r\n    uint32 private distributionID;\r\n    mapping(address => UserInfo) private userInfo;\r\n    mapping(uint32 => DistributionInfo) private distributionInfo;\r\n\r\n    uint256 private constant fractionMultiplier = uint256(1 ether);\r\n\r\n    /**\r\n     * @dev Contract Variables:\r\n     * {assetRouter} - The contract from which calls to this farm are made.\r\n     */\r\n    address public assetRouter;\r\n    modifier onlyAssetRouter(){\r\n        require(msg.sender == assetRouter, 'CALLER_NOT_ASSET_ROUTER');\r\n        _;\r\n    }\r\n\r\n    // ============ Methods ============\r\n\r\n    function initialize(address _lpPair, address _assetRouter) external initializer {\r\n        assetRouter = _assetRouter;\r\n\r\n        pid = getPid(_lpPair);\r\n        lpPair = _lpPair;\r\n\r\n        rewardToken = MiniChef.SUSHI();\r\n        (IERC20[] memory rewarderTokenArray, ) = IRewarder(MiniChef.rewarder(pid)).pendingTokens(pid, address(0), 0);\r\n        rewarderToken = address(rewarderTokenArray[0]);\r\n\r\n        tokenA = IUniswapV2Pair(lpPair).token0();\r\n        tokenB = IUniswapV2Pair(lpPair).token1();\r\n\r\n        distributionInfo[0] = DistributionInfo(block.number, 0, 0);\r\n        distributionID = 1;\r\n        totalDepositLastUpdate = block.number;\r\n\r\n        IERC20(lpPair).approve(address(MiniChef), type(uint256).max);\r\n        IERC20(lpPair).approve(address(sushiswapRouter), type(uint256).max);\r\n        IERC20(rewardToken).approve(address(sushiswapRouter), type(uint256).max);\r\n        IERC20(rewarderToken).approve(address(sushiswapRouter), type(uint256).max);\r\n        IERC20(tokenA).approve(address(sushiswapRouter), type(uint256).max);\r\n        IERC20(tokenB).approve(address(sushiswapRouter), type(uint256).max);\r\n\r\n    }\r\n\r\n    /**\r\n     * @dev Function that makes the deposits.\r\n     * Deposits provided tokens in the Liquidity Pool, then stakes generated LP tokens in the {MiniChef}.\r\n     */\r\n    function deposit(uint256 amountA, uint256 amountB, uint256 amountAMin, uint256 amountBMin, uint256 amountLP, address origin, address recipient) external nonReentrant onlyAssetRouter returns(uint256 sentA, uint256 sentB, uint256 liquidity){\r\n        uint256 addedLiquidity;\r\n        if(amountA > 0 && amountB > 0){\r\n            (sentA, sentB, addedLiquidity) = sushiswapRouter.addLiquidity(tokenA, tokenB, amountA, amountB, amountAMin, amountBMin, address(this), block.timestamp);\r\n        }\r\n        liquidity = addedLiquidity + amountLP;\r\n        require(liquidity > 0, 'NO_LIQUIDITY_PROVIDED');\r\n\r\n        _updateDeposit(recipient);\r\n        userInfo[recipient].stake += liquidity;\r\n        totalDeposits += liquidity;\r\n            \r\n        MiniChef.deposit(pid, liquidity, address(this));\r\n        IERC20Upgradeable(tokenA).safeTransfer(origin, amountA - sentA);\r\n        IERC20Upgradeable(tokenB).safeTransfer(origin, amountB - sentB);\r\n    }\r\n\r\n    /**\r\n     * @dev Withdraws funds from {origin} and sends them to the {recipient}.\r\n     */\r\n    function withdraw(uint256 amount, uint256 amountAMin, uint256 amountBMin, bool withdrawLP, address origin, address recipient) external nonReentrant onlyAssetRouter returns(uint256 amountA, uint256 amountB){\r\n        require(amount > 0, 'INSUFFICIENT_AMOUNT');\r\n\r\n        _updateDeposit(origin);\r\n        UserInfo storage user = userInfo[origin];\r\n        // Subtract amount from user.reward first, then subtract remainder from user.stake.\r\n        if(amount > user.reward){\r\n            user.stake = user.stake + user.reward - amount;\r\n            totalDeposits = totalDeposits + user.reward - amount;\r\n            user.reward = 0;\r\n        } else {\r\n            user.reward -= amount;\r\n        }\r\n\r\n        MiniChef.withdraw(pid, amount, address(this));\r\n        if(withdrawLP){\r\n            IERC20Upgradeable(lpPair).safeTransfer(recipient, amount);\r\n            return (0, 0);\r\n        }\r\n        (amountA, amountB) = sushiswapRouter.removeLiquidity(tokenA, tokenB, amount, amountAMin, amountBMin, recipient, block.timestamp);\r\n    }\r\n\r\n    /**\r\n     * @dev Core function of the strat, in charge of updating, collecting and re-investing rewards.\r\n     * 1. It claims rewards from the {MiniChef}.\r\n     * 2. It swaps {rewardToken} token for {tokenA} & {tokenB}.\r\n     * 3. It deposits new LP tokens back to the {MiniChef}.\r\n     */\r\n    function distribute(address[] calldata rewardTokenToTokenARoute, address[] calldata rewardTokenToTokenBRoute, address[] calldata rewarderTokenToTokenARoute, address[] calldata rewarderTokenToTokenBRoute, uint256[4] memory amountsOutMin) external onlyAssetRouter nonReentrant returns(uint256 reward){\r\n        require(totalDeposits > 0, 'NO_LIQUIDITY');\r\n        require(distributionInfo[distributionID - 1]._block != block.number, 'CANT_CALL_ON_THE_SAME_BLOCK');\r\n        require(rewardTokenToTokenARoute[0] == rewardToken && rewardTokenToTokenARoute[rewardTokenToTokenARoute.length - 1] == tokenA, 'BAD_REWARD_TOKEN_A_ROUTE');\r\n        require(rewardTokenToTokenBRoute[0] == rewardToken && rewardTokenToTokenBRoute[rewardTokenToTokenBRoute.length - 1] == tokenB, 'BAD_REWARD_TOKEN_B_ROUTE');\r\n        require(rewarderTokenToTokenARoute[0] == rewarderToken && rewarderTokenToTokenARoute[rewarderTokenToTokenARoute.length - 1] == tokenA, 'BAD_REWARDER_TOKEN_A_ROUTE');\r\n        require(rewarderTokenToTokenBRoute[0] == rewarderToken && rewarderTokenToTokenBRoute[rewarderTokenToTokenBRoute.length - 1] == tokenB, 'BAD_REWARDER_TOKEN_B_ROUTE');\r\n\r\n        MiniChef.harvest(pid, address(this));\r\n        { // scope to avoid stack too deep errors\r\n        uint256 rewardTokenHalf = IERC20(rewardToken).balanceOf(address(this)) / 2;\r\n        if (tokenA != rewardToken) {\r\n            sushiswapRouter.swapExactTokensForTokens(rewardTokenHalf, amountsOutMin[0], rewardTokenToTokenARoute, address(this), block.timestamp);\r\n        }\r\n\r\n        if (tokenB != rewardToken) {\r\n            sushiswapRouter.swapExactTokensForTokens(rewardTokenHalf, amountsOutMin[1], rewardTokenToTokenBRoute, address(this), block.timestamp);\r\n        }\r\n        }\r\n\r\n        { // scope to avoid stack too deep errors\r\n        uint256 rewarderTokenHalf = IERC20(rewarderToken).balanceOf(address(this)) / 2;\r\n        if (tokenA != rewarderToken) {\r\n            sushiswapRouter.swapExactTokensForTokens(rewarderTokenHalf, amountsOutMin[2], rewarderTokenToTokenARoute, address(this), block.timestamp);\r\n        }\r\n\r\n        if (tokenB != rewarderToken) {\r\n            sushiswapRouter.swapExactTokensForTokens(rewarderTokenHalf, amountsOutMin[3], rewarderTokenToTokenBRoute, address(this), block.timestamp);\r\n        }\r\n        }\r\n\r\n        (,,reward) = sushiswapRouter.addLiquidity(tokenA, tokenB, IERC20(tokenA).balanceOf(address(this)), IERC20(tokenB).balanceOf(address(this)), 1, 1, address(this), block.timestamp);\r\n        \r\n        uint256 rewardPerDepositAge = reward * fractionMultiplier / (totalDepositAge + totalDeposits * (block.number - totalDepositLastUpdate));\r\n        uint256 cumulativeRewardAgePerDepositAge = distributionInfo[distributionID - 1].cumulativeRewardAgePerDepositAge + rewardPerDepositAge * (block.number - distributionInfo[distributionID - 1]._block);\r\n\r\n        distributionInfo[distributionID] = DistributionInfo(\r\n            block.number,\r\n            rewardPerDepositAge,\r\n            cumulativeRewardAgePerDepositAge\r\n        );\r\n\r\n        distributionID += 1;\r\n        totalDepositLastUpdate = block.number;\r\n        totalDepositAge = 0;\r\n            \r\n        MiniChef.deposit(pid, reward, address(this));\r\n    }\r\n\r\n    /**\r\n     * @dev Returns total funds staked by the {_address}.\r\n     */\r\n    function userBalance(address _address) external view returns (uint256) {\r\n        return userInfo[_address].stake + userReward(_address);\r\n    }\r\n\r\n    /**\r\n     * @dev Returns total funds locked in the farm.\r\n     */\r\n    function getTotalDeposits() external view returns (uint256 _totalDeposits) {\r\n        if(totalDeposits > 0){\r\n            (_totalDeposits,) = MiniChef.userInfo(pid, address(this));\r\n        }\r\n    }\r\n    \r\n    function _updateDeposit(address _address) internal {\r\n        UserInfo storage user = userInfo[_address];\r\n        // Accumulate deposit age within the current distribution period.\r\n        if (user.lastDistribution == distributionID) {\r\n            // Add deposit age from previous deposit age update to now.\r\n            user.depositAge += user.stake * (block.number - user.lastUpdate);\r\n        } else {\r\n            // A reward has been distributed, update user.reward.\r\n            user.reward = userReward(_address);\r\n            // Count fresh deposit age from previous reward distribution to now.\r\n            user.depositAge = user.stake * (block.number - distributionInfo[distributionID - 1]._block);\r\n        }\r\n\r\n        user.lastDistribution = distributionID;\r\n        user.lastUpdate = block.number;\r\n\r\n        // Same with total deposit age.\r\n        totalDepositAge += (block.number - totalDepositLastUpdate) * totalDeposits;\r\n        totalDepositLastUpdate = block.number;\r\n    }\r\n\r\n    function userReward(address _address) internal view returns (uint256) {\r\n        UserInfo memory user = userInfo[_address];\r\n        if (user.lastDistribution == distributionID) {\r\n            // Return user.reward if the distribution after the last user deposit did not happen yet.\r\n            return user.reward;\r\n        }\r\n        DistributionInfo memory lastUserDistributionInfo = distributionInfo[user.lastDistribution];\r\n        uint256 userDepositAge = user.depositAge + user.stake * (lastUserDistributionInfo._block - user.lastUpdate);\r\n        // Calculate reward between the last user deposit and the distribution after that.\r\n        uint256 rewardBeforeDistibution = userDepositAge * lastUserDistributionInfo.rewardPerDepositAge / fractionMultiplier;\r\n        // Calculate reward from the distributions that have happened after the last user deposit.\r\n        uint256 rewardAfterDistribution = user.stake * (distributionInfo[distributionID - 1].cumulativeRewardAgePerDepositAge - lastUserDistributionInfo.cumulativeRewardAgePerDepositAge) / fractionMultiplier;\r\n        return user.reward + rewardBeforeDistibution + rewardAfterDistribution;\r\n    }\r\n\r\n    /**\r\n     * @dev Get pid by iterating over all pools and comparing pids.\r\n     */\r\n    function getPid(address _lpPair) internal view returns (uint256 _pid) {\r\n        bool poolExists = false;\r\n        for (uint256 i = 0; i < MiniChef.poolLength(); i++) {\r\n            if (MiniChef.lpToken(i) == _lpPair) {\r\n                _pid = i;\r\n                poolExists = true;\r\n                break;\r\n            }\r\n        }\r\n        require(poolExists, 'PID_NOT_EXISTS');\r\n        return _pid;\r\n    }\r\n}\r\n",
  "sourcePath": "C:\\Users\\jugli\\Desktop\\uno\\uno-contracts-branch\\contracts\\apps\\sushiswap\\UnoFarmSushiswap.sol",
  "compiler": {
    "name": "solc",
    "version": "0.8.10+commit.fc410830.Emscripten.clang"
  },
  "schemaVersion": "3.4.7",
  "updatedAt": "2022-06-14T07:10:13.645Z",
  "networkType": "ethereum",
  "devdoc": {
    "kind": "dev",
    "methods": {
      "deposit(uint256,uint256,uint256,uint256,uint256,address,address)": {
        "details": "Function that makes the deposits. Deposits provided tokens in the Liquidity Pool, then stakes generated LP tokens in the {MiniChef}."
      },
      "distribute(address[],address[],address[],address[],uint256[4])": {
        "details": "Core function of the strat, in charge of updating, collecting and re-investing rewards. 1. It claims rewards from the {MiniChef}. 2. It swaps {rewardToken} token for {tokenA} & {tokenB}. 3. It deposits new LP tokens back to the {MiniChef}."
      },
      "getTotalDeposits()": {
        "details": "Returns total funds locked in the farm."
      },
      "userBalance(address)": {
        "details": "Returns total funds staked by the {_address}."
      },
      "withdraw(uint256,uint256,uint256,bool,address,address)": {
        "details": "Withdraws funds from {origin} and sends them to the {recipient}."
      }
    },
    "stateVariables": {
      "assetRouter": {
        "details": "Contract Variables: {assetRouter} - The contract from which calls to this farm are made."
      },
      "pid": {
        "details": "Contract Variables: {pid} - Pool ID. {totalDeposits} - Total deposits made by users. {totalDepositAge} - Deposits multiplied by blocks the deposit has been in. Flushed every reward distribution. {totalDepositLastUpdate} - Last {totalDepositAge} update block. {distributionID} - Current distribution ID. {userInfo} - Info on each user. {distributionInfo} - Info on each distribution. {fractionMultiplier} - Used to store decimal values."
      },
      "rewardToken": {
        "details": "Tokens Used: {rewardToken} - Token generated by staking (SUSHI). {rewarderToken} - Token generated by ComplexRewarderTime contract. {lpPair} - Token that the strategy maximizes. The same token that users deposit in the {MiniChef}. {tokenA, tokenB} - Tokens that the strategy maximizes."
      },
      "sushiswapRouter": {
        "details": "Third Party Contracts: {sushiswapRouter} - The contract that executes swaps. {MiniChef} -The contract that distibutes {rewardToken}."
      }
    },
    "version": 1
  },
  "userdoc": {
    "kind": "user",
    "methods": {},
    "version": 1
  }
}