{
  "contractName": "UnoFarmQuickswap",
  "abi": [
    {
      "anonymous": false,
      "inputs": [
        {
          "indexed": false,
          "internalType": "uint8",
          "name": "version",
          "type": "uint8"
        }
      ],
      "name": "Initialized",
      "type": "event"
    },
    {
      "inputs": [],
      "name": "assetRouter",
      "outputs": [
        {
          "internalType": "address",
          "name": "",
          "type": "address"
        }
      ],
      "stateMutability": "view",
      "type": "function"
    },
    {
      "inputs": [],
      "name": "lpPair",
      "outputs": [
        {
          "internalType": "address",
          "name": "",
          "type": "address"
        }
      ],
      "stateMutability": "view",
      "type": "function"
    },
    {
      "inputs": [],
      "name": "rewardToken",
      "outputs": [
        {
          "internalType": "address",
          "name": "",
          "type": "address"
        }
      ],
      "stateMutability": "view",
      "type": "function"
    },
    {
      "inputs": [],
      "name": "tokenA",
      "outputs": [
        {
          "internalType": "address",
          "name": "",
          "type": "address"
        }
      ],
      "stateMutability": "view",
      "type": "function"
    },
    {
      "inputs": [],
      "name": "tokenB",
      "outputs": [
        {
          "internalType": "address",
          "name": "",
          "type": "address"
        }
      ],
      "stateMutability": "view",
      "type": "function"
    },
    {
      "inputs": [
        {
          "internalType": "address",
          "name": "_lpStakingPool",
          "type": "address"
        },
        {
          "internalType": "address",
          "name": "_assetRouter",
          "type": "address"
        }
      ],
      "name": "initialize",
      "outputs": [],
      "stateMutability": "nonpayable",
      "type": "function"
    },
    {
      "inputs": [
        {
          "internalType": "uint256",
          "name": "amountA",
          "type": "uint256"
        },
        {
          "internalType": "uint256",
          "name": "amountB",
          "type": "uint256"
        },
        {
          "internalType": "uint256",
          "name": "amountAMin",
          "type": "uint256"
        },
        {
          "internalType": "uint256",
          "name": "amountBMin",
          "type": "uint256"
        },
        {
          "internalType": "uint256",
          "name": "amountLP",
          "type": "uint256"
        },
        {
          "internalType": "address",
          "name": "origin",
          "type": "address"
        },
        {
          "internalType": "address",
          "name": "recipient",
          "type": "address"
        }
      ],
      "name": "deposit",
      "outputs": [
        {
          "internalType": "uint256",
          "name": "sentA",
          "type": "uint256"
        },
        {
          "internalType": "uint256",
          "name": "sentB",
          "type": "uint256"
        },
        {
          "internalType": "uint256",
          "name": "liquidity",
          "type": "uint256"
        }
      ],
      "stateMutability": "nonpayable",
      "type": "function"
    },
    {
      "inputs": [
        {
          "internalType": "uint256",
          "name": "amount",
          "type": "uint256"
        },
        {
          "internalType": "uint256",
          "name": "amountAMin",
          "type": "uint256"
        },
        {
          "internalType": "uint256",
          "name": "amountBMin",
          "type": "uint256"
        },
        {
          "internalType": "bool",
          "name": "withdrawLP",
          "type": "bool"
        },
        {
          "internalType": "address",
          "name": "origin",
          "type": "address"
        },
        {
          "internalType": "address",
          "name": "recipient",
          "type": "address"
        }
      ],
      "name": "withdraw",
      "outputs": [
        {
          "internalType": "uint256",
          "name": "amountA",
          "type": "uint256"
        },
        {
          "internalType": "uint256",
          "name": "amountB",
          "type": "uint256"
        }
      ],
      "stateMutability": "nonpayable",
      "type": "function"
    },
    {
      "inputs": [
        {
          "components": [
            {
              "internalType": "address[]",
              "name": "route",
              "type": "address[]"
            },
            {
              "internalType": "uint256",
              "name": "amountOutMin",
              "type": "uint256"
            }
          ],
          "internalType": "struct UnoFarmQuickswap.SwapInfo[2]",
          "name": "swapInfos",
          "type": "tuple[2]"
        },
        {
          "components": [
            {
              "internalType": "address[]",
              "name": "route",
              "type": "address[]"
            },
            {
              "internalType": "uint256",
              "name": "amountOutMin",
              "type": "uint256"
            }
          ],
          "internalType": "struct UnoFarmQuickswap.SwapInfo",
          "name": "feeSwapInfo",
          "type": "tuple"
        },
        {
          "components": [
            {
              "internalType": "address",
              "name": "feeTo",
              "type": "address"
            },
            {
              "internalType": "uint256",
              "name": "fee",
              "type": "uint256"
            }
          ],
          "internalType": "struct UnoFarmQuickswap.FeeInfo",
          "name": "feeInfo",
          "type": "tuple"
        }
      ],
      "name": "distribute",
      "outputs": [
        {
          "internalType": "uint256",
          "name": "reward",
          "type": "uint256"
        }
      ],
      "stateMutability": "nonpayable",
      "type": "function"
    },
    {
      "inputs": [
        {
          "internalType": "address",
          "name": "_address",
          "type": "address"
        }
      ],
      "name": "userBalance",
      "outputs": [
        {
          "internalType": "uint256",
          "name": "",
          "type": "uint256"
        }
      ],
      "stateMutability": "view",
      "type": "function"
    },
    {
      "inputs": [],
      "name": "getTotalDeposits",
      "outputs": [
        {
          "internalType": "uint256",
          "name": "_totalDeposits",
          "type": "uint256"
        }
      ],
      "stateMutability": "view",
      "type": "function"
    }
  ],
  "bytecode": "0x608060405234801561001057600080fd5b506126e6806100206000396000f3fe608060405234801561001057600080fd5b50600436106100a95760003560e01c8063452ed4f111610071578063452ed4f114610148578063485cc9551461015b5780635f64b55b14610170578063bc0aac1014610183578063d563468314610196578063f7c618c1146101be57600080fd5b80630103c92b146100ae5780630fc63d10146100d45780631666768a146100ff578063168a48221461012d57806336eeb1dd14610135575b600080fd5b6100c16100bc366004611fdb565b6101d1565b6040519081526020015b60405180910390f35b6035546100e7906001600160a01b031681565b6040516001600160a01b0390911681526020016100cb565b61011261010d366004611ff8565b610205565b604080519384526020840192909252908201526060016100cb565b6100c1610498565b6100c1610143366004612079565b610515565b6034546100e7906001600160a01b031681565b61016e6101693660046120f7565b610dc2565b005b6036546100e7906001600160a01b031681565b603e546100e7906001600160a01b031681565b6101a96101a436600461213e565b611435565b604080519283526020830191909152016100cb565b6033546100e7906001600160a01b031681565b60006101dc826116fb565b6001600160a01b0383166000908152603c60205260409020546101ff91906121bb565b92915050565b6000806000600260015414156102365760405162461bcd60e51b815260040161022d906121d3565b60405180910390fd5b6002600155603e546001600160a01b031633146102655760405162461bcd60e51b815260040161022d9061220a565b6000808b118015610276575060008a115b1561033e5773a5e0829caced8ffdd4de3c43696c57f7d7a678ff6001600160a01b031663e8e33700603560009054906101000a90046001600160a01b0316603660009054906101000a90046001600160a01b03168e8e8e8e30426040518963ffffffff1660e01b81526004016102f3989796959493929190612241565b6060604051808303816000875af1158015610312573d6000803e3d6000fd5b505050506040513d601f19601f82011682018060405250810190610336919061228a565b919550935090505b61034887826121bb565b9150600082116103925760405162461bcd60e51b81526020600482015260156024820152741393d7d3125455525112551657d41493d592511151605a1b604482015260640161022d565b61039b85611890565b6001600160a01b0385166000908152603c6020526040812080548492906103c39084906121bb565b9250508190555081603860008282546103dc91906121bb565b909155505060375460405163534a7e1d60e11b8152600481018490526001600160a01b039091169063a694fc3a90602401600060405180830381600087803b15801561042757600080fd5b505af115801561043b573d6000803e3d6000fd5b5050505061046286858d61044f91906122b8565b6035546001600160a01b031691906119b5565b61048386610470858d6122b8565b6036546001600160a01b031691906119b5565b50600180819055509750975097945050505050565b60385460009015610512576037546040516370a0823160e01b81523060048201526001600160a01b03909116906370a0823190602401602060405180830381865afa1580156104eb573d6000803e3d6000fd5b505050506040513d601f19601f8201168201806040525081019061050f91906122cf565b90505b90565b603e546000906001600160a01b031633146105425760405162461bcd60e51b815260040161022d9061220a565b600260015414156105655760405162461bcd60e51b815260040161022d906121d3565b60026001556038546105a85760405162461bcd60e51b815260206004820152600c60248201526b4e4f5f4c495155494449545960a01b604482015260640161022d565b603b544390603d906000906105c59060019063ffffffff166122e8565b63ffffffff168152602081019190915260400160002054141561062a5760405162461bcd60e51b815260206004820152601b60248201527f43414e545f43414c4c5f4f4e5f5448455f53414d455f424c4f434b0000000000604482015260640161022d565b603760009054906101000a90046001600160a01b03166001600160a01b0316633d18b9126040518163ffffffff1660e01b8152600401600060405180830381600087803b15801561067a57600080fd5b505af115801561068e573d6000803e3d6000fd5b5050505061069c8383611a07565b6033546040516370a0823160e01b81523060048201526000916002916001600160a01b03909116906370a0823190602401602060405180830381865afa1580156106ea573d6000803e3d6000fd5b505050506040513d601f19601f8201168201806040525081019061070e91906122cf565b610718919061230d565b6033546035549192506001600160a01b039182169116146108bf573660006107408780612345565b61074a9080612365565b60335491935091506001600160a01b0316828260008161076c5761076c61232f565b90506020020160208101906107819190611fdb565b6001600160a01b03161480156107da57506035546001600160a01b031682826107ab6001826122b8565b8181106107ba576107ba61232f565b90506020020160208101906107cf9190611fdb565b6001600160a01b0316145b6108265760405162461bcd60e51b815260206004820152601860248201527f4241445f5245574152445f544f4b454e5f415f524f5554450000000000000000604482015260640161022d565b73a5e0829caced8ffdd4de3c43696c57f7d7a678ff6338ed17398461084b8a80612345565b60200135858530426040518763ffffffff1660e01b8152600401610874969594939291906123b6565b6000604051808303816000875af1158015610893573d6000803e3d6000fd5b505050506040513d6000823e601f3d908101601f191682016040526108bb919081019061243f565b5050505b6033546036546001600160a01b03908116911614610a69573660006108e76020880188612345565b6108f19080612365565b60335491935091506001600160a01b031682826000816109135761091361232f565b90506020020160208101906109289190611fdb565b6001600160a01b031614801561098157506036546001600160a01b031682826109526001826122b8565b8181106109615761096161232f565b90506020020160208101906109769190611fdb565b6001600160a01b0316145b6109cd5760405162461bcd60e51b815260206004820152601860248201527f4241445f5245574152445f544f4b454e5f425f524f5554450000000000000000604482015260640161022d565b73a5e0829caced8ffdd4de3c43696c57f7d7a678ff6338ed1739846109f560208b018b612345565b60200135858530426040518763ffffffff1660e01b8152600401610a1e969594939291906123b6565b6000604051808303816000875af1158015610a3d573d6000803e3d6000fd5b505050506040513d6000823e601f3d908101601f19168201604052610a65919081019061243f565b5050505b6035546036546040516370a0823160e01b815230600482015273a5e0829caced8ffdd4de3c43696c57f7d7a678ff9263e8e33700926001600160a01b039182169291169082906370a0823190602401602060405180830381865afa158015610ad5573d6000803e3d6000fd5b505050506040513d601f19601f82011682018060405250810190610af991906122cf565b6036546040516370a0823160e01b81523060048201526001600160a01b03909116906370a0823190602401602060405180830381865afa158015610b41573d6000803e3d6000fd5b505050506040513d601f19601f82011682018060405250810190610b6591906122cf565b610b6f8b80612345565b60209081013590610b82908d018d612345565b6020013530426040518963ffffffff1660e01b8152600401610bab989796959493929190612241565b6060604051808303816000875af1158015610bca573d6000803e3d6000fd5b505050506040513d601f19601f82011682018060405250810190610bee919061228a565b603a5490945060009250610c039150436122b8565b603854610c1091906124fd565b603954610c1d91906121bb565b610c2f670de0b6b3a7640000856124fd565b610c39919061230d565b603b54909150600090603d908290610c599060019063ffffffff166122e8565b63ffffffff168152602081019190915260400160002054610c7a90436122b8565b610c8490836124fd565b603b54603d90600090610c9f9060019063ffffffff166122e8565b63ffffffff1663ffffffff16815260200190815260200160002060020154610cc791906121bb565b604080516060810182524381526020808201868152828401858152603b805463ffffffff9081166000908152603d90955295842094518555915160018581019190915590516002909401939093558054949550919391929091610d2c9185911661251c565b825463ffffffff9182166101009390930a92830291909202199091161790555043603a55600060395560375460405163534a7e1d60e11b8152600481018690526001600160a01b039091169063a694fc3a90602401600060405180830381600087803b158015610d9b57600080fd5b505af1158015610daf573d6000803e3d6000fd5b5050600180555093979650505050505050565b6000610dce6001611c98565b90508015610de6576000805461ff0019166101001790555b6001600160a01b038316610e2a5760405162461bcd60e51b815260206004820152600b60248201526a10905117d31417d413d3d360aa1b604482015260640161022d565b6001600160a01b038216610e735760405162461bcd60e51b815260206004820152601060248201526f2120a22fa0a9a9a2aa2fa927aaaa22a960811b604482015260640161022d565b610e7b611d20565b603e80546001600160a01b038085166001600160a01b031992831617909255603780549286169290911682179055604080516372f702f360e01b815290516372f702f3916004808201926020929091908290030181865afa158015610ee4573d6000803e3d6000fd5b505050506040513d601f19601f82011682018060405250810190610f089190612544565b603480546001600160a01b0319166001600160a01b039283161790556037546040805163d1af0c7d60e01b81529051919092169163d1af0c7d9160048083019260209291908290030181865afa158015610f66573d6000803e3d6000fd5b505050506040513d601f19601f82011682018060405250810190610f8a9190612544565b603380546001600160a01b0319166001600160a01b0392831617905560345460408051630dfe168160e01b815290519190921691630dfe16819160048083019260209291908290030181865afa158015610fe8573d6000803e3d6000fd5b505050506040513d601f19601f8201168201806040525081019061100c9190612544565b603580546001600160a01b0319166001600160a01b039283161790556034546040805163d21220a760e01b81529051919092169163d21220a79160048083019260209291908290030181865afa15801561106a573d6000803e3d6000fd5b505050506040513d601f19601f8201168201806040525081019061108e9190612544565b603680546001600160a01b0319166001600160a01b03928316179055604080516060810182524380825260006020808401828152848601838152928052603d90915292517fb4447350905ade30fbbf16eb128316f54a45abd6b02d89811edf7bbf0bb1ba7c5591517fb4447350905ade30fbbf16eb128316f54a45abd6b02d89811edf7bbf0bb1ba7d5590517fb4447350905ade30fbbf16eb128316f54a45abd6b02d89811edf7bbf0bb1ba7e55603b805463ffffffff19166001179055603a55603454905163095ea7b360e01b81528583166004820152600019602482015291169063095ea7b3906044016020604051808303816000875af1158015611199573d6000803e3d6000fd5b505050506040513d601f19601f820116820180604052508101906111bd9190612561565b5060345460405163095ea7b360e01b815273a5e0829caced8ffdd4de3c43696c57f7d7a678ff600482015260001960248201526001600160a01b039091169063095ea7b3906044016020604051808303816000875af1158015611224573d6000803e3d6000fd5b505050506040513d601f19601f820116820180604052508101906112489190612561565b5060335460405163095ea7b360e01b815273a5e0829caced8ffdd4de3c43696c57f7d7a678ff600482015260001960248201526001600160a01b039091169063095ea7b3906044016020604051808303816000875af11580156112af573d6000803e3d6000fd5b505050506040513d601f19601f820116820180604052508101906112d39190612561565b5060355460405163095ea7b360e01b815273a5e0829caced8ffdd4de3c43696c57f7d7a678ff600482015260001960248201526001600160a01b039091169063095ea7b3906044016020604051808303816000875af115801561133a573d6000803e3d6000fd5b505050506040513d601f19601f8201168201806040525081019061135e9190612561565b5060365460405163095ea7b360e01b815273a5e0829caced8ffdd4de3c43696c57f7d7a678ff600482015260001960248201526001600160a01b039091169063095ea7b3906044016020604051808303816000875af11580156113c5573d6000803e3d6000fd5b505050506040513d601f19601f820116820180604052508101906113e99190612561565b508015611430576000805461ff0019169055604051600181527f7f26b83ff96e1f2b6a682f133852f6798a09c465da95921460cefb38474024989060200160405180910390a15b505050565b6000806002600154141561145b5760405162461bcd60e51b815260040161022d906121d3565b6002600155603e546001600160a01b0316331461148a5760405162461bcd60e51b815260040161022d9061220a565b600088116114d05760405162461bcd60e51b8152602060048201526013602482015272125394d551919250d251539517d05353d55395606a1b604482015260640161022d565b6114d984611890565b6001600160a01b0384166000908152603c6020526040902060028101548911156115925760028101548154600091611510916121bb565b9050808a11156115595760405162461bcd60e51b8152602060048201526014602482015273494e53554646494349454e545f42414c414e434560601b604482015260640161022d565b6115638a826122b8565b825560028201546038548b91611578916121bb565b61158291906122b8565b60385550600060028201556115ac565b888160020160008282546115a691906122b8565b90915550505b603754604051632e1a7d4d60e01b8152600481018b90526001600160a01b0390911690632e1a7d4d90602401600060405180830381600087803b1580156115f257600080fd5b505af1158015611606573d6000803e3d6000fd5b50505050851561163457603454611627906001600160a01b0316858b6119b5565b60008092509250506116ea565b603554603654604051635d5155ef60e11b81526001600160a01b0392831660048201529082166024820152604481018b9052606481018a90526084810189905290851660a48201524260c482015273a5e0829caced8ffdd4de3c43696c57f7d7a678ff9063baa2abde9060e40160408051808303816000875af11580156116bf573d6000803e3d6000fd5b505050506040513d601f19601f820116820180604052508101906116e3919061257e565b9093509150505b600180559097909650945050505050565b6001600160a01b0381166000908152603c60209081526040808320815160a08101835281548152600182015493810193909352600281015491830191909152600381015463ffffffff908116606084018190526004909201546080840152603b5416141561176d576040015192915050565b60608082015163ffffffff166000908152603d60209081526040808320815194850182528054808652600182015493860193909352600201549084015260808401516117b8916122b8565b83516117c491906124fd565b83602001516117d391906121bb565b90506000670de0b6b3a76400008360200151836117f091906124fd565b6117fa919061230d565b6040840151603b54919250600091670de0b6b3a76400009190603d90849061182a9060019063ffffffff166122e8565b63ffffffff1663ffffffff1681526020019081526020016000206002015461185291906122b8565b865161185e91906124fd565b611868919061230d565b90508082866040015161187b91906121bb565b61188591906121bb565b979650505050505050565b6001600160a01b0381166000908152603c60205260409020603b54600382015463ffffffff908116911614156118f95760048101546118cf90436122b8565b81546118db91906124fd565b8160010160008282546118ee91906121bb565b909155506119559050565b611902826116fb565b6002820155603b54603d906000906119229060019063ffffffff166122e8565b63ffffffff16815260208101919091526040016000205461194390436122b8565b815461194f91906124fd565b60018201555b603b5460038201805463ffffffff191663ffffffff9092169190911790554360048201819055603854603a54909161198d91906122b8565b61199791906124fd565b603960008282546119a891906121bb565b909155505043603a555050565b604080516001600160a01b038416602482015260448082018490528251808303909101815260649091019091526020810180516001600160e01b031663a9059cbb60e01b179052611430908490611d51565b6000611a166020830183611fdb565b6001600160a01b031614611c94576033546040516370a0823160e01b8152306004820152600091670de0b6b3a7640000916020850135916001600160a01b0316906370a0823190602401602060405180830381865afa158015611a7d573d6000803e3d6000fd5b505050506040513d601f19601f82011682018060405250810190611aa191906122cf565b611aab91906124fd565b611ab5919061230d565b9050801561143057366000611aca8580612365565b90925090508015801590611b4757508181611ae66001826122b8565b818110611af557611af561232f565b9050602002016020810190611b0a9190611fdb565b6001600160a01b031682826000818110611b2657611b2661232f565b9050602002016020810190611b3b9190611fdb565b6001600160a01b031614155b15611c6d576033546001600160a01b03168282600081611b6957611b6961232f565b9050602002016020810190611b7e9190611fdb565b6001600160a01b031614611bca5760405162461bcd60e51b81526020600482015260136024820152724241445f4645455f544f4b454e5f524f55544560681b604482015260640161022d565b73a5e0829caced8ffdd4de3c43696c57f7d7a678ff6338ed1739846020808901359086908690611bfc908b018b611fdb565b426040518763ffffffff1660e01b8152600401611c1e969594939291906123b6565b6000604051808303816000875af1158015611c3d573d6000803e3d6000fd5b505050506040513d6000823e601f3d908101601f19168201604052611c65919081019061243f565b505050505050565b611c90611c7d6020860186611fdb565b6033546001600160a01b031690856119b5565b5050505b5050565b60008054610100900460ff1615611cdf578160ff166001148015611cbb5750303b155b611cd75760405162461bcd60e51b815260040161022d906125a2565b506000919050565b60005460ff808416911610611d065760405162461bcd60e51b815260040161022d906125a2565b506000805460ff191660ff92909216919091179055600190565b600054610100900460ff16611d475760405162461bcd60e51b815260040161022d906125f0565b611d4f611e23565b565b6000611da6826040518060400160405280602081526020017f5361666545524332303a206c6f772d6c6576656c2063616c6c206661696c6564815250856001600160a01b0316611e509092919063ffffffff16565b8051909150156114305780806020019051810190611dc49190612561565b6114305760405162461bcd60e51b815260206004820152602a60248201527f5361666545524332303a204552433230206f7065726174696f6e20646964206e6044820152691bdd081cdd58d8d9595960b21b606482015260840161022d565b600054610100900460ff16611e4a5760405162461bcd60e51b815260040161022d906125f0565b60018055565b6060611e5f8484600085611e69565b90505b9392505050565b606082471015611eca5760405162461bcd60e51b815260206004820152602660248201527f416464726573733a20696e73756666696369656e742062616c616e636520666f6044820152651c8818d85b1b60d21b606482015260840161022d565b6001600160a01b0385163b611f215760405162461bcd60e51b815260206004820152601d60248201527f416464726573733a2063616c6c20746f206e6f6e2d636f6e7472616374000000604482015260640161022d565b600080866001600160a01b03168587604051611f3d919061266b565b60006040518083038185875af1925050503d8060008114611f7a576040519150601f19603f3d011682016040523d82523d6000602084013e611f7f565b606091505b509150915061188582828660608315611f99575081611e62565b825115611fa95782518084602001fd5b8160405162461bcd60e51b815260040161022d919061267d565b6001600160a01b0381168114611fd857600080fd5b50565b600060208284031215611fed57600080fd5b8135611e6281611fc3565b600080600080600080600060e0888a03121561201357600080fd5b873596506020880135955060408801359450606088013593506080880135925060a088013561204181611fc3565b915060c088013561205181611fc3565b8091505092959891949750929550565b60006040828403121561207357600080fd5b50919050565b60008060006080848603121561208e57600080fd5b833567ffffffffffffffff808211156120a657600080fd5b8186019150866040830111156120bb57600080fd5b909350602085013590808211156120d157600080fd5b506120de86828701612061565b9250506120ee8560408601612061565b90509250925092565b6000806040838503121561210a57600080fd5b823561211581611fc3565b9150602083013561212581611fc3565b809150509250929050565b8015158114611fd857600080fd5b60008060008060008060c0878903121561215757600080fd5b863595506020870135945060408701359350606087013561217781612130565b9250608087013561218781611fc3565b915060a087013561219781611fc3565b809150509295509295509295565b634e487b7160e01b600052601160045260246000fd5b600082198211156121ce576121ce6121a5565b500190565b6020808252601f908201527f5265656e7472616e637947756172643a207265656e7472616e742063616c6c00604082015260600190565b60208082526017908201527f43414c4c45525f4e4f545f41535345545f524f55544552000000000000000000604082015260600190565b6001600160a01b039889168152968816602088015260408701959095526060860193909352608085019190915260a084015290921660c082015260e08101919091526101000190565b60008060006060848603121561229f57600080fd5b8351925060208401519150604084015190509250925092565b6000828210156122ca576122ca6121a5565b500390565b6000602082840312156122e157600080fd5b5051919050565b600063ffffffff83811690831681811015612305576123056121a5565b039392505050565b60008261232a57634e487b7160e01b600052601260045260246000fd5b500490565b634e487b7160e01b600052603260045260246000fd5b60008235603e1983360301811261235b57600080fd5b9190910192915050565b6000808335601e1984360301811261237c57600080fd5b83018035915067ffffffffffffffff82111561239757600080fd5b6020019150600581901b36038213156123af57600080fd5b9250929050565b868152602080820187905260a0604083018190528201859052600090869060c08401835b888110156124085783356123ed81611fc3565b6001600160a01b0316825292820192908201906001016123da565b506001600160a01b0396909616606085015250505060800152949350505050565b634e487b7160e01b600052604160045260246000fd5b6000602080838503121561245257600080fd5b825167ffffffffffffffff8082111561246a57600080fd5b818501915085601f83011261247e57600080fd5b81518181111561249057612490612429565b8060051b604051601f19603f830116810181811085821117156124b5576124b5612429565b6040529182528482019250838101850191888311156124d357600080fd5b938501935b828510156124f1578451845293850193928501926124d8565b98975050505050505050565b6000816000190483118215151615612517576125176121a5565b500290565b600063ffffffff80831681851680830382111561253b5761253b6121a5565b01949350505050565b60006020828403121561255657600080fd5b8151611e6281611fc3565b60006020828403121561257357600080fd5b8151611e6281612130565b6000806040838503121561259157600080fd5b505080516020909101519092909150565b6020808252602e908201527f496e697469616c697a61626c653a20636f6e747261637420697320616c72656160408201526d191e481a5b9a5d1a585b1a5e995960921b606082015260800190565b6020808252602b908201527f496e697469616c697a61626c653a20636f6e7472616374206973206e6f74206960408201526a6e697469616c697a696e6760a81b606082015260800190565b60005b8381101561265657818101518382015260200161263e565b83811115612665576000848401525b50505050565b6000825161235b81846020870161263b565b602081526000825180602084015261269c81604085016020870161263b565b601f01601f1916919091016040019291505056fea26469706673582212209d18f6b0c8c460cf5954117d8f35ac312158ef4eb903d91bae42a0be7101b26c64736f6c634300080a0033",
  "immutableReferences": {},
  "source": "// SPDX-License-Identifier: MIT\npragma solidity 0.8.10;\n \nimport '../../interfaces/IUniswapV2Pair.sol';\nimport '../../interfaces/IUniswapV2Router.sol';\nimport '../../interfaces/IStakingRewards.sol';\nimport '@openzeppelin/contracts-upgradeable/security/ReentrancyGuardUpgradeable.sol';\nimport '@openzeppelin/contracts-upgradeable/token/ERC20/utils/SafeERC20Upgradeable.sol';\nimport '@openzeppelin/contracts-upgradeable/token/ERC20/IERC20Upgradeable.sol';\nimport '@openzeppelin/contracts-upgradeable/proxy/utils/Initializable.sol';\n\ncontract UnoFarmQuickswap is Initializable, ReentrancyGuardUpgradeable {\n    using SafeERC20Upgradeable for IERC20Upgradeable;\n    /**\n     * @dev DistributionInfo:\n     * {block} - Distribution block number.\n     * {rewardPerDepositAge} - Distribution reward divided by {totalDepositAge}. \n     * {cumulativeRewardAgePerDepositAge} - Sum of {rewardPerDepositAge}s multiplied by distribution interval.\n     */\n    struct DistributionInfo {\n        uint256 block;\n        uint256 rewardPerDepositAge;\n        uint256 cumulativeRewardAgePerDepositAge;\n    }\n    /**\n     * @dev UserInfo:\n     * {stake} - Amount of LP tokens deposited by the user.\n     * {depositAge} - User deposits multiplied by blocks the deposit has been in. \n     * {reward} - Amount of LP tokens entitled to the user.\n     * {lastDistribution} - Distribution ID before the last user deposit.\n     * {lastUpdate} - Deposit update block.\n     */\n    struct UserInfo {\n        uint256 stake;\n        uint256 depositAge;\n        uint256 reward;\n        uint32 lastDistribution;\n        uint256 lastUpdate;\n    }\n    /**\n     * @dev SwapInfo:\n     * {route} - Array of token addresses describing swap routes.\n     * {amountOutMin} - The minimum amount of output token that must be received for the transaction not to revert.\n     */\n    struct SwapInfo{\n        address[] route;\n        uint256 amountOutMin;\n    }\n    /**\n     * @dev FeeInfo:\n     * {feeTo} - Address to transfer fees to.\n     * {fee} - Fee percentage to collect (10^18 == 100%). \n     */\n    struct FeeInfo {\n        address feeTo;\n        uint256 fee;\n    }\n\n    /**\n     * @dev Tokens Used:\n     * {rewardToken} - Token generated by staking.\n     * {lpPair} - Token that the strategy maximizes. The same token that users deposit in the {lpStakingPool}.\n     * {tokenA, tokenB} - Tokens that the strategy maximizes.\n     */\n    address public rewardToken;\n    address public lpPair;\n    address public tokenA;\n    address public tokenB;\n\n    /**\n     * @dev Third Party Contracts:\n     * {quickswapRouter} - Contract that executes swaps.\n     * {lpStakingPool} - Contract that distibutes {rewardToken}.\n     */\n    IUniswapV2Router01 private constant quickswapRouter = IUniswapV2Router01(0xa5E0829CaCEd8fFDD4De3c43696c57F7D7A678ff); \n    IStakingRewards private lpStakingPool;\n\n    /**\n     * @dev Contract Variables:\n     * {totalDeposits} - Total deposits made by users.\n     * {totalDepositAge} - Deposits multiplied by blocks the deposit has been in. Flushed every reward distribution.\n     * {totalDepositLastUpdate} - Last {totalDepositAge} update block.\n\n     * {distributionID} - Current distribution ID.\n     * {userInfo} - Info on each user.\n     * {distributionInfo} - Info on each distribution.\n\n     * {fractionMultiplier} - Used to store decimal values.\n     */\n    uint256 private totalDeposits;\n    uint256 private totalDepositAge;\n    uint256 private totalDepositLastUpdate;\n\n    uint32 private distributionID;\n    mapping(address => UserInfo) private userInfo;\n    mapping(uint32 => DistributionInfo) private distributionInfo;\n\n    uint256 private constant fractionMultiplier = uint256(1 ether);\n\n    /**\n     * @dev Contract Variables:\n     * {assetRouter} - The contract from which calls to this farm are made.\n     */\n    address public assetRouter;\n    modifier onlyAssetRouter(){\n        require(msg.sender == assetRouter, 'CALLER_NOT_ASSET_ROUTER');\n        _;\n    }\n\n    // ============ Methods ============\n\n    function initialize(address _lpStakingPool, address _assetRouter) external initializer {\n        require (_lpStakingPool != address(0), 'BAD_LP_POOL');\n        require (_assetRouter != address(0), 'BAD_ASSET_ROUTER');\n\n        __ReentrancyGuard_init();\n        assetRouter = _assetRouter;\n\n        lpStakingPool = IStakingRewards(_lpStakingPool);\n        lpPair = address(lpStakingPool.stakingToken());\n\n        rewardToken = lpStakingPool.rewardsToken();\n\n        tokenA = IUniswapV2Pair(lpPair).token0();\n        tokenB = IUniswapV2Pair(lpPair).token1();\n\n        distributionInfo[0] = DistributionInfo({\n            block: block.number,\n            rewardPerDepositAge: 0,\n            cumulativeRewardAgePerDepositAge: 0\n        });\n        distributionID = 1;\n        totalDepositLastUpdate = block.number;\n\n        IERC20(lpPair).approve(_lpStakingPool, type(uint256).max);\n        IERC20(lpPair).approve(address(quickswapRouter), type(uint256).max);\n        IERC20(rewardToken).approve(address(quickswapRouter), type(uint256).max);\n        IERC20(tokenA).approve(address(quickswapRouter), type(uint256).max);\n        IERC20(tokenB).approve(address(quickswapRouter), type(uint256).max);\n    }\n\n    /**\n     * @dev Function that makes the deposits.\n     * Deposits provided tokens in the Liquidity Pool, then stakes generated LP tokens in the {lpStakingPool}.\n     */\n    function deposit(uint256 amountA, uint256 amountB, uint256 amountAMin, uint256 amountBMin, uint256 amountLP, address origin, address recipient) external nonReentrant onlyAssetRouter returns(uint256 sentA, uint256 sentB, uint256 liquidity){\n        uint256 addedLiquidity;\n        if(amountA > 0 && amountB > 0){\n            (sentA, sentB, addedLiquidity) = quickswapRouter.addLiquidity(tokenA, tokenB, amountA, amountB, amountAMin, amountBMin, address(this), block.timestamp);\n        }\n        liquidity = addedLiquidity + amountLP;\n        require(liquidity > 0, 'NO_LIQUIDITY_PROVIDED');\n\n        _updateDeposit(recipient);\n        userInfo[recipient].stake += liquidity;\n        totalDeposits += liquidity;\n            \n        lpStakingPool.stake(liquidity);\n        IERC20Upgradeable(tokenA).safeTransfer(origin, amountA - sentA);\n        IERC20Upgradeable(tokenB).safeTransfer(origin, amountB - sentB);\n    }\n\n    /**\n     * @dev Withdraws funds from {origin} and sends them to the {recipient}.\n     */\n    function withdraw(uint256 amount, uint256 amountAMin, uint256 amountBMin, bool withdrawLP, address origin, address recipient) external nonReentrant onlyAssetRouter returns(uint256 amountA, uint256 amountB){\n        require(amount > 0, 'INSUFFICIENT_AMOUNT');\n\n        _updateDeposit(origin);\n        UserInfo storage user = userInfo[origin];\n        // Subtract amount from user.reward first, then subtract remainder from user.stake.\n        if(amount > user.reward){\n            uint256 balance = user.stake + user.reward;\n            require(amount <= balance, 'INSUFFICIENT_BALANCE');\n            user.stake = balance - amount;\n            totalDeposits = totalDeposits + user.reward - amount;\n            user.reward = 0;\n        } else {\n            user.reward -= amount;\n        }\n\n        lpStakingPool.withdraw(amount);\n        if(withdrawLP){\n            IERC20Upgradeable(lpPair).safeTransfer(recipient, amount);\n            return (0, 0);\n        }\n        (amountA, amountB) = quickswapRouter.removeLiquidity(tokenA, tokenB, amount, amountAMin, amountBMin, recipient, block.timestamp);\n    }\n\n    /**\n     * @dev Core function of the strat, in charge of updating, collecting and re-investing rewards.\n     * 1. It claims rewards from the {lpStakingPool}.\n     * 2. It swaps {rewardToken} token for {tokenA} & {tokenB}.\n     * 3. It deposits new LP tokens back to the {lpStakingPool}.\n     */\n    function distribute(\n        SwapInfo[2] calldata swapInfos,\n        SwapInfo calldata feeSwapInfo,\n        FeeInfo calldata feeInfo\n    ) external onlyAssetRouter nonReentrant returns(uint256 reward){\n        require(totalDeposits > 0, 'NO_LIQUIDITY');\n        require(distributionInfo[distributionID - 1].block != block.number, 'CANT_CALL_ON_THE_SAME_BLOCK');\n\n        lpStakingPool.getReward();\n        \n        collectFees(feeSwapInfo, feeInfo);\n        uint256 rewardTokenHalf = IERC20(rewardToken).balanceOf(address(this)) / 2;\n        if (tokenA != rewardToken) {\n            address[] calldata route = swapInfos[0].route;\n            require(route[0] == rewardToken && route[route.length - 1] == tokenA, 'BAD_REWARD_TOKEN_A_ROUTE');\n            quickswapRouter.swapExactTokensForTokens(rewardTokenHalf, swapInfos[0].amountOutMin, route, address(this), block.timestamp);\n        }\n        if (tokenB != rewardToken) {\n            address[] calldata route = swapInfos[1].route;\n            require(route[0] == rewardToken && route[route.length - 1] == tokenB, 'BAD_REWARD_TOKEN_B_ROUTE');\n            quickswapRouter.swapExactTokensForTokens(rewardTokenHalf, swapInfos[1].amountOutMin, route, address(this), block.timestamp);\n        }\n\n        (,,reward) = quickswapRouter.addLiquidity(tokenA, tokenB, IERC20(tokenA).balanceOf(address(this)), IERC20(tokenB).balanceOf(address(this)), swapInfos[0].amountOutMin, swapInfos[1].amountOutMin, address(this), block.timestamp);\n\n        uint256 rewardPerDepositAge = reward * fractionMultiplier / (totalDepositAge + totalDeposits * (block.number - totalDepositLastUpdate));\n        uint256 cumulativeRewardAgePerDepositAge = distributionInfo[distributionID - 1].cumulativeRewardAgePerDepositAge + rewardPerDepositAge * (block.number - distributionInfo[distributionID - 1].block);\n\n        distributionInfo[distributionID] = DistributionInfo({\n            block: block.number,\n            rewardPerDepositAge: rewardPerDepositAge,\n            cumulativeRewardAgePerDepositAge: cumulativeRewardAgePerDepositAge\n        });\n\n        distributionID += 1;\n        totalDepositLastUpdate = block.number;\n        totalDepositAge = 0;\n\n        lpStakingPool.stake(reward);\n    }\n\n    /**\n     * @dev Swaps and sends fees to feeTo.\n     */\n    function collectFees(SwapInfo calldata feeSwapInfo, FeeInfo calldata feeInfo) internal {\n        if(feeInfo.feeTo != address(0)){\n            uint256 feeAmount = IERC20Upgradeable(rewardToken).balanceOf(address(this)) * feeInfo.fee / fractionMultiplier;\n            if(feeAmount > 0){\n                address[] calldata route = feeSwapInfo.route;\n                if(route.length > 0 && route[0] != route[route.length - 1]){\n                    require(route[0] == rewardToken, 'BAD_FEE_TOKEN_ROUTE');\n                    quickswapRouter.swapExactTokensForTokens(feeAmount, feeSwapInfo.amountOutMin, route, feeInfo.feeTo, block.timestamp);\n                    return;\n                }\n                IERC20Upgradeable(rewardToken).safeTransfer(feeInfo.feeTo, feeAmount);\n            }\n        }\n    }\n\n    /**\n     * @dev Returns total funds staked by the {_address}.\n     */\n    function userBalance(address _address) external view returns (uint256) {\n        return userInfo[_address].stake + userReward(_address);\n    }\n\n    /**\n     * @dev Returns total funds locked in the farm.\n     */\n    function getTotalDeposits() external view returns (uint256 _totalDeposits) {\n        if(totalDeposits > 0){\n            _totalDeposits = lpStakingPool.balanceOf(address(this));\n        }\n    }\n\n    function _updateDeposit(address _address) internal {\n        UserInfo storage user = userInfo[_address];\n        // Accumulate deposit age within the current distribution period.\n        if (user.lastDistribution == distributionID) {\n            // Add deposit age from previous deposit age update to now.\n            user.depositAge += user.stake * (block.number - user.lastUpdate);\n        } else {\n            // A reward has been distributed, update user.reward.\n            user.reward = userReward(_address);\n            // Count fresh deposit age from previous reward distribution to now.\n            user.depositAge = user.stake * (block.number - distributionInfo[distributionID - 1].block);\n        }\n\n        user.lastDistribution = distributionID;\n        user.lastUpdate = block.number;\n\n        // Same with total deposit age.\n        totalDepositAge += (block.number - totalDepositLastUpdate) * totalDeposits;\n        totalDepositLastUpdate = block.number;\n    }\n\n    function userReward(address _address) internal view returns (uint256) {\n        UserInfo memory user = userInfo[_address];\n        if (user.lastDistribution == distributionID) {\n            // Return user.reward if the distribution after the last user deposit did not happen yet.\n            return user.reward;\n        }\n        DistributionInfo memory lastUserDistributionInfo = distributionInfo[user.lastDistribution];\n        uint256 userDepositAge = user.depositAge + user.stake * (lastUserDistributionInfo.block - user.lastUpdate);\n        // Calculate reward between the last user deposit and the distribution after that.\n        uint256 rewardBeforeDistibution = userDepositAge * lastUserDistributionInfo.rewardPerDepositAge / fractionMultiplier;\n        // Calculate reward from the distributions that have happened after the last user deposit.\n        uint256 rewardAfterDistribution = user.stake * (distributionInfo[distributionID - 1].cumulativeRewardAgePerDepositAge - lastUserDistributionInfo.cumulativeRewardAgePerDepositAge) / fractionMultiplier;\n        return user.reward + rewardBeforeDistibution + rewardAfterDistribution;\n    }\n}\n",
  "sourcePath": "/home/ilau/projectWork/uno-contracts/contracts/apps/quickswap/UnoFarmQuickswap.sol",
  "compiler": {
    "name": "solc",
    "version": "0.8.10+commit.fc410830.Emscripten.clang"
  },
  "schemaVersion": "3.4.10",
  "updatedAt": "2022-11-01T10:59:35.428Z",
  "devdoc": {
    "kind": "dev",
    "methods": {
      "deposit(uint256,uint256,uint256,uint256,uint256,address,address)": {
        "details": "Function that makes the deposits. Deposits provided tokens in the Liquidity Pool, then stakes generated LP tokens in the {lpStakingPool}."
      },
      "distribute((address[],uint256)[2],(address[],uint256),(address,uint256))": {
        "details": "Core function of the strat, in charge of updating, collecting and re-investing rewards. 1. It claims rewards from the {lpStakingPool}. 2. It swaps {rewardToken} token for {tokenA} & {tokenB}. 3. It deposits new LP tokens back to the {lpStakingPool}."
      },
      "getTotalDeposits()": {
        "details": "Returns total funds locked in the farm."
      },
      "userBalance(address)": {
        "details": "Returns total funds staked by the {_address}."
      },
      "withdraw(uint256,uint256,uint256,bool,address,address)": {
        "details": "Withdraws funds from {origin} and sends them to the {recipient}."
      }
    },
    "stateVariables": {
      "assetRouter": {
        "details": "Contract Variables: {assetRouter} - The contract from which calls to this farm are made."
      },
      "quickswapRouter": {
        "details": "Third Party Contracts: {quickswapRouter} - Contract that executes swaps. {lpStakingPool} - Contract that distibutes {rewardToken}."
      },
      "rewardToken": {
        "details": "Tokens Used: {rewardToken} - Token generated by staking. {lpPair} - Token that the strategy maximizes. The same token that users deposit in the {lpStakingPool}. {tokenA, tokenB} - Tokens that the strategy maximizes."
      },
      "totalDeposits": {
        "details": "Contract Variables: {totalDeposits} - Total deposits made by users. {totalDepositAge} - Deposits multiplied by blocks the deposit has been in. Flushed every reward distribution. {totalDepositLastUpdate} - Last {totalDepositAge} update block. {distributionID} - Current distribution ID. {userInfo} - Info on each user. {distributionInfo} - Info on each distribution. {fractionMultiplier} - Used to store decimal values."
      }
    },
    "version": 1
  },
  "userdoc": {
    "kind": "user",
    "methods": {},
    "version": 1
  }
}