{
  "contractName": "UnoFarmFactory",
  "abi": [
    {
      "inputs": [
        {
          "internalType": "address",
          "name": "_implementation",
          "type": "address"
        },
        {
          "internalType": "address",
          "name": "_accessManager",
          "type": "address"
        },
        {
          "internalType": "address",
          "name": "_assetRouter",
          "type": "address"
        }
      ],
      "stateMutability": "nonpayable",
      "type": "constructor"
    },
    {
      "anonymous": false,
      "inputs": [
        {
          "indexed": true,
          "internalType": "address",
          "name": "farmAddress",
          "type": "address"
        }
      ],
      "name": "FarmDeployed",
      "type": "event"
    },
    {
      "inputs": [
        {
          "internalType": "address",
          "name": "",
          "type": "address"
        }
      ],
      "name": "Farms",
      "outputs": [
        {
          "internalType": "address",
          "name": "",
          "type": "address"
        }
      ],
      "stateMutability": "view",
      "type": "function",
      "constant": true
    },
    {
      "inputs": [],
      "name": "accessManager",
      "outputs": [
        {
          "internalType": "contract IUnoAccessManager",
          "name": "",
          "type": "address"
        }
      ],
      "stateMutability": "view",
      "type": "function",
      "constant": true
    },
    {
      "inputs": [],
      "name": "assetRouter",
      "outputs": [
        {
          "internalType": "address",
          "name": "",
          "type": "address"
        }
      ],
      "stateMutability": "view",
      "type": "function",
      "constant": true
    },
    {
      "inputs": [],
      "name": "farmBeacon",
      "outputs": [
        {
          "internalType": "address",
          "name": "",
          "type": "address"
        }
      ],
      "stateMutability": "view",
      "type": "function",
      "constant": true
    },
    {
      "inputs": [
        {
          "internalType": "uint256",
          "name": "",
          "type": "uint256"
        }
      ],
      "name": "pools",
      "outputs": [
        {
          "internalType": "address",
          "name": "",
          "type": "address"
        }
      ],
      "stateMutability": "view",
      "type": "function",
      "constant": true
    },
    {
      "inputs": [
        {
          "internalType": "address",
          "name": "pool",
          "type": "address"
        }
      ],
      "name": "createFarm",
      "outputs": [
        {
          "internalType": "address",
          "name": "",
          "type": "address"
        }
      ],
      "stateMutability": "nonpayable",
      "type": "function"
    },
    {
      "inputs": [
        {
          "internalType": "address",
          "name": "newImplementation",
          "type": "address"
        }
      ],
      "name": "upgradeFarms",
      "outputs": [],
      "stateMutability": "nonpayable",
      "type": "function"
    },
    {
      "inputs": [],
      "name": "poolLength",
      "outputs": [
        {
          "internalType": "uint256",
          "name": "",
          "type": "uint256"
        }
      ],
      "stateMutability": "view",
      "type": "function",
      "constant": true
    }
  ],
  "bytecode": "0x60c060405234801561001057600080fd5b506040516117da3803806117da83398101604081905261002f91610202565b6001600160a01b03831661007f5760405162461bcd60e51b81526020600482015260126024820152712120a22fa4a6a82622a6a2a72a20aa24a7a760711b60448201526064015b60405180910390fd5b6001600160a01b0382166100ca5760405162461bcd60e51b81526020600482015260126024820152712120a22fa0a1a1a2a9a9afa6a0a720a3a2a960711b6044820152606401610076565b6001600160a01b0381166101135760405162461bcd60e51b815260206004820152601060248201526f2120a22fa0a9a9a2aa2fa927aaaa22a960811b6044820152606401610076565b82604051610120906101d9565b6001600160a01b039091168152602001604051809103906000f08015801561014c573d6000803e3d6000fd5b506001600160a01b0390811660a052600080546001600160a01b031916848316908117909155908216608081905260405163485cc95560e01b815260048101929092523060248301529063485cc95590604401600060405180830381600087803b1580156101b957600080fd5b505af11580156101cd573d6000803e3d6000fd5b50505050505050610245565b610529806112b183390190565b80516001600160a01b03811681146101fd57600080fd5b919050565b60008060006060848603121561021757600080fd5b610220846101e6565b925061022e602085016101e6565b915061023c604085016101e6565b90509250925092565b60805160a05161103261027f6000396000818161013c015281816103b90152610486015260008181610114015261045a01526110326000f3fe60806040523480156200001157600080fd5b5060043610620000935760003560e01c8063bc0aac101162000062578063bc0aac10146200010e578063d95a4d931462000136578063f9d9331d146200015e578063fdcb6068146200018a57600080fd5b8063061278c01462000098578063081e3eda14620000cc5780638158371914620000de578063ac4afa3814620000f7575b600080fd5b620000af620000a936600462000580565b6200019e565b6040516001600160a01b0390911681526020015b60405180910390f35b600254604051908152602001620000c3565b620000f5620000ef36600462000580565b62000277565b005b620000af62000108366004620005b2565b6200041a565b620000af7f000000000000000000000000000000000000000000000000000000000000000081565b620000af7f000000000000000000000000000000000000000000000000000000000000000081565b620000af6200016f36600462000580565b6001602052600090815260409020546001600160a01b031681565b600054620000af906001600160a01b031681565b6001600160a01b0381811660009081526001602052604081205490911615620001fc5760405162461bcd60e51b815260206004820152600b60248201526a4641524d5f45584953545360a81b60448201526064015b60405180910390fd5b620002078262000445565b6001600160a01b039283166000818152600160208190526040822080549487166001600160a01b03199586161781556002805492830190557f405787fa12a823e0f2b7631cc41b3ba8828b3321ca811111fa75cd3aa3bb5ace909101805490941683179093555254909116919050565b60005460408051631d6c8e3f60e21b815290516001600160a01b03909216916391d148549183916375b238fc916004808201926020929091908290030181865afa158015620002ca573d6000803e3d6000fd5b505050506040513d601f19601f82011682018060405250810190620002f09190620005cc565b6040516001600160e01b031960e084901b1681526004810191909152336024820152604401602060405180830381865afa15801562000333573d6000803e3d6000fd5b505050506040513d601f19601f82011682018060405250810190620003599190620005e6565b6200039a5760405162461bcd60e51b815260206004820152601060248201526f21a0a62622a92fa727aa2fa0a226a4a760811b6044820152606401620001f3565b604051631b2ce7f360e11b81526001600160a01b0382811660048301527f00000000000000000000000000000000000000000000000000000000000000001690633659cfe690602401600060405180830381600087803b158015620003fe57600080fd5b505af115801562000413573d6000803e3d6000fd5b5050505050565b600281815481106200042b57600080fd5b6000918252602090912001546001600160a01b0316905081565b6040516001600160a01b0380831660248301527f000000000000000000000000000000000000000000000000000000000000000016604482015260009081907f0000000000000000000000000000000000000000000000000000000000000000907f485cc955cd05f29985ce37d87ac35dcf2fdbc60b9106f66a532e31a2f1d5743b9060640160408051601f198184030181529181526020820180516001600160e01b03166001600160e01b03199094169390931790925290516200050a9062000572565b620005179291906200060a565b604051809103906000f08015801562000534573d6000803e3d6000fd5b506040519091506001600160a01b038216907f7fee2c251a158c3c3bcc28f8db26af3c4a0483735c8f254b9aa8a0b5e0b56d0890600090a292915050565b61098a806200067383390190565b6000602082840312156200059357600080fd5b81356001600160a01b0381168114620005ab57600080fd5b9392505050565b600060208284031215620005c557600080fd5b5035919050565b600060208284031215620005df57600080fd5b5051919050565b600060208284031215620005f957600080fd5b81518015158114620005ab57600080fd5b60018060a01b038316815260006020604081840152835180604085015260005b8181101562000648578581018301518582016060015282016200062a565b818111156200065b576000606083870101525b50601f01601f19169290920160600194935050505056fe608060405260405161098a38038061098a8339810160408190526100229161048b565b61004d60017fa3f0ad74e5423aebfd80d3ef4346578335a9a72aeaee59ff6cb3582b35133d5161054b565b6000805160206109438339815191521461006957610069610570565b6100758282600061007c565b50506105f0565b61008583610147565b6040516001600160a01b038416907f1cf3b03a6cf19fa2baba4df148e9dcabedea7f8a5c07840e207e5c089be95d3e90600090a26000825111806100c65750805b1561014257610140836001600160a01b0316635c60da1b6040518163ffffffff1660e01b8152600401602060405180830381865afa15801561010c573d6000803e3d6000fd5b505050506040513d601f19601f820116820180604052508101906101309190610586565b836102d860201b6100291760201c565b505b505050565b61015a8161030460201b6100551760201c565b6101b95760405162461bcd60e51b815260206004820152602560248201527f455243313936373a206e657720626561636f6e206973206e6f74206120636f6e6044820152641d1c9858dd60da1b60648201526084015b60405180910390fd5b61022d816001600160a01b0316635c60da1b6040518163ffffffff1660e01b8152600401602060405180830381865afa1580156101fa573d6000803e3d6000fd5b505050506040513d601f19601f8201168201806040525081019061021e9190610586565b61030460201b6100551760201c565b6102925760405162461bcd60e51b815260206004820152603060248201527f455243313936373a20626561636f6e20696d706c656d656e746174696f6e206960448201526f1cc81b9bdd08184818dbdb9d1c9858dd60821b60648201526084016101b0565b806102b760008051602061094383398151915260001b61031360201b6100641760201c565b80546001600160a01b0319166001600160a01b039290921691909117905550565b60606102fd838360405180606001604052806027815260200161096360279139610316565b9392505050565b6001600160a01b03163b151590565b90565b60606001600160a01b0384163b61037e5760405162461bcd60e51b815260206004820152602660248201527f416464726573733a2064656c65676174652063616c6c20746f206e6f6e2d636f6044820152651b9d1c9858dd60d21b60648201526084016101b0565b600080856001600160a01b03168560405161039991906105a1565b600060405180830381855af49150503d80600081146103d4576040519150601f19603f3d011682016040523d82523d6000602084013e6103d9565b606091505b5090925090506103ea8282866103f4565b9695505050505050565b606083156104035750816102fd565b8251156104135782518084602001fd5b8160405162461bcd60e51b81526004016101b091906105bd565b80516001600160a01b038116811461044457600080fd5b919050565b634e487b7160e01b600052604160045260246000fd5b60005b8381101561047a578181015183820152602001610462565b838111156101405750506000910152565b6000806040838503121561049e57600080fd5b6104a78361042d565b60208401519092506001600160401b03808211156104c457600080fd5b818501915085601f8301126104d857600080fd5b8151818111156104ea576104ea610449565b604051601f8201601f19908116603f0116810190838211818310171561051257610512610449565b8160405282815288602084870101111561052b57600080fd5b61053c83602083016020880161045f565b80955050505050509250929050565b60008282101561056b57634e487b7160e01b600052601160045260246000fd5b500390565b634e487b7160e01b600052600160045260246000fd5b60006020828403121561059857600080fd5b6102fd8261042d565b600082516105b381846020870161045f565b9190910192915050565b60208152600082518060208401526105dc81604085016020870161045f565b601f01601f19169190910160400192915050565b610344806105ff6000396000f3fe60806040523661001357610011610017565b005b6100115b610027610022610067565b610100565b565b606061004e83836040518060600160405280602781526020016102e860279139610124565b9392505050565b6001600160a01b03163b151590565b90565b600061009a7fa3f0ad74e5423aebfd80d3ef4346578335a9a72aeaee59ff6cb3582b35133d50546001600160a01b031690565b6001600160a01b0316635c60da1b6040518163ffffffff1660e01b8152600401602060405180830381865afa1580156100d7573d6000803e3d6000fd5b505050506040513d601f19601f820116820180604052508101906100fb919061023f565b905090565b3660008037600080366000845af43d6000803e80801561011f573d6000f35b3d6000fd5b60606001600160a01b0384163b6101915760405162461bcd60e51b815260206004820152602660248201527f416464726573733a2064656c65676174652063616c6c20746f206e6f6e2d636f6044820152651b9d1c9858dd60d21b60648201526084015b60405180910390fd5b600080856001600160a01b0316856040516101ac9190610298565b600060405180830381855af49150503d80600081146101e7576040519150601f19603f3d011682016040523d82523d6000602084013e6101ec565b606091505b50915091506101fc828286610206565b9695505050505050565b6060831561021557508161004e565b8251156102255782518084602001fd5b8160405162461bcd60e51b815260040161018891906102b4565b60006020828403121561025157600080fd5b81516001600160a01b038116811461004e57600080fd5b60005b8381101561028357818101518382015260200161026b565b83811115610292576000848401525b50505050565b600082516102aa818460208701610268565b9190910192915050565b60208152600082518060208401526102d3816040850160208701610268565b601f01601f1916919091016040019291505056fe416464726573733a206c6f772d6c6576656c2064656c65676174652063616c6c206661696c6564a26469706673582212208c4b9fb777f6b291c744ce49d232757100e584678da2cff79ce1ef98db3618ec64736f6c634300080a0033a3f0ad74e5423aebfd80d3ef4346578335a9a72aeaee59ff6cb3582b35133d50416464726573733a206c6f772d6c6576656c2064656c65676174652063616c6c206661696c6564a2646970667358221220391aa924e503b490c04b6eb34a62bc889a030495c78dbfe10465bb9ce342a55664736f6c634300080a0033608060405234801561001057600080fd5b5060405161052938038061052983398101604081905261002f91610151565b61003833610047565b61004181610097565b50610181565b600080546001600160a01b038381166001600160a01b0319831681178455604051919092169283917f8be0079c531659141344cd1fd0a4f28419497f9722a3daafe3b4186f6b6457e09190a35050565b6100aa8161014260201b61020a1760201c565b6101205760405162461bcd60e51b815260206004820152603360248201527f5570677261646561626c65426561636f6e3a20696d706c656d656e746174696f60448201527f6e206973206e6f74206120636f6e747261637400000000000000000000000000606482015260840160405180910390fd5b600180546001600160a01b0319166001600160a01b0392909216919091179055565b6001600160a01b03163b151590565b60006020828403121561016357600080fd5b81516001600160a01b038116811461017a57600080fd5b9392505050565b610399806101906000396000f3fe608060405234801561001057600080fd5b50600436106100575760003560e01c80633659cfe61461005c5780635c60da1b14610071578063715018a61461009a5780638da5cb5b146100a2578063f2fde38b146100b3575b600080fd5b61006f61006a3660046102fe565b6100c6565b005b6001546001600160a01b03165b6040516001600160a01b03909116815260200160405180910390f35b61006f610139565b6000546001600160a01b031661007e565b61006f6100c13660046102fe565b61016f565b6000546001600160a01b031633146100f95760405162461bcd60e51b81526004016100f09061032e565b60405180910390fd5b61010281610219565b6040516001600160a01b038216907fbc7cd75a20ee27fd9adebab32041f755214dbc6bffa90cc0225b39da2e5c2d3b90600090a250565b6000546001600160a01b031633146101635760405162461bcd60e51b81526004016100f09061032e565b61016d60006102ae565b565b6000546001600160a01b031633146101995760405162461bcd60e51b81526004016100f09061032e565b6001600160a01b0381166101fe5760405162461bcd60e51b815260206004820152602660248201527f4f776e61626c653a206e6577206f776e657220697320746865207a65726f206160448201526564647265737360d01b60648201526084016100f0565b610207816102ae565b50565b6001600160a01b03163b151590565b6001600160a01b0381163b61028c5760405162461bcd60e51b815260206004820152603360248201527f5570677261646561626c65426561636f6e3a20696d706c656d656e746174696f6044820152721b881a5cc81b9bdd08184818dbdb9d1c9858dd606a1b60648201526084016100f0565b600180546001600160a01b0319166001600160a01b0392909216919091179055565b600080546001600160a01b038381166001600160a01b0319831681178455604051919092169283917f8be0079c531659141344cd1fd0a4f28419497f9722a3daafe3b4186f6b6457e09190a35050565b60006020828403121561031057600080fd5b81356001600160a01b038116811461032757600080fd5b9392505050565b6020808252818101527f4f776e61626c653a2063616c6c6572206973206e6f7420746865206f776e657260408201526060019056fea2646970667358221220f0a243b52461696fadf05325e53c8019325f72ee91b3a6ba2f983ff13a83604364736f6c634300080a0033",
  "immutableReferences": {
    "2678": [
      {
        "length": 32,
        "start": 276
      },
      {
        "length": 32,
        "start": 1114
      }
    ],
    "2680": [
      {
        "length": 32,
        "start": 316
      },
      {
        "length": 32,
        "start": 953
      },
      {
        "length": 32,
        "start": 1158
      }
    ]
  },
  "source": "// SPDX-License-Identifier: MIT\r\npragma solidity 0.8.10;\r\npragma experimental ABIEncoderV2;\r\n\r\nimport \"@openzeppelin/contracts/proxy/beacon/UpgradeableBeacon.sol\";\r\nimport \"@openzeppelin/contracts/proxy/beacon/BeaconProxy.sol\";\r\nimport \"./interfaces/IUnoAccessManager.sol\";\r\nimport \"./interfaces/IUnoAssetRouter.sol\";\r\n\r\ncontract UnoFarmFactory {\r\n\t/**\r\n     * @dev Contract Variables:\r\n     * accessManager - Role manager contract.\r\n     * assetRouter -  UnoAssetRouter contract. Is given permission to call functions on farms. \r\n     \r\n     * farmBeacon - Farm contract implementation.\r\n     * Farms - links {lpPools} to the deployed Farm contract.\r\n     * lpPools - list of pools that have corresponding deployed Farm contract.\r\n     */\r\n\tIUnoAccessManager public accessManager;\r\n\taddress public immutable assetRouter;\r\n\r\n\taddress public immutable farmBeacon;\r\n\tmapping(address => address) public Farms;\r\n\taddress[] public pools;\r\n\r\n\tevent FarmDeployed(address indexed farmAddress);\r\n\r\n\t// ============ Methods ============\r\n\r\n\tconstructor(\r\n\t\taddress _implementation,\r\n\t\taddress _accessManager,\r\n\t\taddress _assetRouter\r\n\t) {\r\n\t\trequire(_implementation != address(0), \"BAD_IMPLEMENTATION\");\r\n\t\trequire(_accessManager != address(0), \"BAD_ACCESS_MANAGER\");\r\n\t\trequire(_assetRouter != address(0), \"BAD_ASSET_ROUTER\");\r\n\r\n\t\tfarmBeacon = address(new UpgradeableBeacon(_implementation));\r\n\t\taccessManager = IUnoAccessManager(_accessManager);\r\n\t\tassetRouter = _assetRouter;\r\n\t\tIUnoAssetRouter(_assetRouter).initialize(_accessManager, address(this));\r\n\t}\r\n\r\n\t/**\r\n\t * @dev Creates new farm.\r\n\t */\r\n\tfunction createFarm(address pool) external returns (address) {\r\n\t\trequire(Farms[pool] == address(0), \"FARM_EXISTS\");\r\n\t\tFarms[pool] = _createFarm(pool);\r\n\t\tpools.push(pool);\r\n\t\treturn Farms[pool];\r\n\t}\r\n\r\n\t/**\r\n\t * @dev Upgrades all farms deployed by this factory using beacon proxy. Only available to the admin.\r\n\t */\r\n\tfunction upgradeFarms(address newImplementation) external {\r\n\t\trequire(\r\n\t\t\taccessManager.hasRole(accessManager.ADMIN_ROLE(), msg.sender),\r\n\t\t\t\"CALLER_NOT_ADMIN\"\r\n\t\t);\r\n\t\tUpgradeableBeacon(farmBeacon).upgradeTo(newImplementation);\r\n\t}\r\n\r\n\t/**\r\n\t * @dev Deploys new Farm contract and calls initialize on it. Emits {FarmDeployed} event.\r\n\t */\r\n\tfunction _createFarm(address _pool) internal returns (address) {\r\n\t\tBeaconProxy proxy = new BeaconProxy(\r\n\t\t\tfarmBeacon,\r\n\t\t\tabi.encodeWithSelector(\r\n\t\t\t\tbytes4(keccak256(\"initialize(address,address)\")),\r\n\t\t\t\t_pool,\r\n\t\t\t\tassetRouter\r\n\t\t\t)\r\n\t\t);\r\n\t\temit FarmDeployed(address(proxy));\r\n\t\treturn address(proxy);\r\n\t}\r\n\r\n\tfunction poolLength() external view returns (uint256) {\r\n\t\treturn pools.length;\r\n\t}\r\n}\r\n",
  "sourcePath": "C:\\Users\\jugli\\Desktop\\uno\\uno-contracts-optimism\\contracts\\UnoFarmFactory.sol",
  "compiler": {
    "name": "solc",
    "version": "0.8.10+commit.fc410830.Emscripten.clang"
  },
  "schemaVersion": "3.4.13",
  "updatedAt": "2023-07-11T10:53:21.862Z",
  "networkType": "ethereum",
  "devdoc": {
    "kind": "dev",
    "methods": {
      "createFarm(address)": {
        "details": "Creates new farm."
      },
      "upgradeFarms(address)": {
        "details": "Upgrades all farms deployed by this factory using beacon proxy. Only available to the admin."
      }
    },
    "stateVariables": {
      "accessManager": {
        "details": "Contract Variables: accessManager - Role manager contract. assetRouter -  UnoAssetRouter contract. Is given permission to call functions on farms.  farmBeacon - Farm contract implementation. Farms - links {lpPools} to the deployed Farm contract. lpPools - list of pools that have corresponding deployed Farm contract."
      }
    },
    "version": 1
  },
  "userdoc": {
    "kind": "user",
    "methods": {},
    "version": 1
  }
}