{
  "contractName": "UnoFarmQuickswap",
  "abi": [
    {
      "anonymous": false,
      "inputs": [
        {
          "indexed": false,
          "internalType": "uint8",
          "name": "version",
          "type": "uint8"
        }
      ],
      "name": "Initialized",
      "type": "event"
    },
    {
      "inputs": [],
      "name": "assetRouter",
      "outputs": [
        {
          "internalType": "address",
          "name": "",
          "type": "address"
        }
      ],
      "stateMutability": "view",
      "type": "function"
    },
    {
      "inputs": [],
      "name": "lpPair",
      "outputs": [
        {
          "internalType": "address",
          "name": "",
          "type": "address"
        }
      ],
      "stateMutability": "view",
      "type": "function"
    },
    {
      "inputs": [],
      "name": "rewardToken",
      "outputs": [
        {
          "internalType": "address",
          "name": "",
          "type": "address"
        }
      ],
      "stateMutability": "view",
      "type": "function"
    },
    {
      "inputs": [],
      "name": "tokenA",
      "outputs": [
        {
          "internalType": "address",
          "name": "",
          "type": "address"
        }
      ],
      "stateMutability": "view",
      "type": "function"
    },
    {
      "inputs": [],
      "name": "tokenB",
      "outputs": [
        {
          "internalType": "address",
          "name": "",
          "type": "address"
        }
      ],
      "stateMutability": "view",
      "type": "function"
    },
    {
      "inputs": [],
      "name": "totalDeposits",
      "outputs": [
        {
          "internalType": "uint256",
          "name": "",
          "type": "uint256"
        }
      ],
      "stateMutability": "view",
      "type": "function"
    },
    {
      "inputs": [
        {
          "internalType": "address",
          "name": "_lpStakingPool",
          "type": "address"
        },
        {
          "internalType": "address",
          "name": "_assetRouter",
          "type": "address"
        }
      ],
      "name": "initialize",
      "outputs": [],
      "stateMutability": "nonpayable",
      "type": "function"
    },
    {
      "inputs": [
        {
          "internalType": "uint256",
          "name": "amountA",
          "type": "uint256"
        },
        {
          "internalType": "uint256",
          "name": "amountB",
          "type": "uint256"
        },
        {
          "internalType": "uint256",
          "name": "amountLP",
          "type": "uint256"
        },
        {
          "internalType": "address",
          "name": "recipient",
          "type": "address"
        }
      ],
      "name": "deposit",
      "outputs": [
        {
          "internalType": "uint256",
          "name": "sentA",
          "type": "uint256"
        },
        {
          "internalType": "uint256",
          "name": "sentB",
          "type": "uint256"
        },
        {
          "internalType": "uint256",
          "name": "liquidity",
          "type": "uint256"
        }
      ],
      "stateMutability": "nonpayable",
      "type": "function"
    },
    {
      "inputs": [
        {
          "internalType": "address",
          "name": "origin",
          "type": "address"
        },
        {
          "internalType": "uint256",
          "name": "amount",
          "type": "uint256"
        },
        {
          "internalType": "bool",
          "name": "withdrawLP",
          "type": "bool"
        },
        {
          "internalType": "address",
          "name": "recipient",
          "type": "address"
        }
      ],
      "name": "withdraw",
      "outputs": [
        {
          "internalType": "uint256",
          "name": "amountA",
          "type": "uint256"
        },
        {
          "internalType": "uint256",
          "name": "amountB",
          "type": "uint256"
        }
      ],
      "stateMutability": "nonpayable",
      "type": "function"
    },
    {
      "inputs": [
        {
          "internalType": "address[]",
          "name": "rewardTokenToTokenARoute",
          "type": "address[]"
        },
        {
          "internalType": "address[]",
          "name": "rewardTokenToTokenBRoute",
          "type": "address[]"
        }
      ],
      "name": "distribute",
      "outputs": [
        {
          "internalType": "uint256",
          "name": "reward",
          "type": "uint256"
        }
      ],
      "stateMutability": "nonpayable",
      "type": "function"
    },
    {
      "inputs": [
        {
          "internalType": "uint256",
          "name": "_amount",
          "type": "uint256"
        },
        {
          "internalType": "uint256",
          "name": "_block",
          "type": "uint256"
        }
      ],
      "name": "setExpectedReward",
      "outputs": [],
      "stateMutability": "nonpayable",
      "type": "function"
    },
    {
      "inputs": [
        {
          "internalType": "address",
          "name": "_address",
          "type": "address"
        }
      ],
      "name": "userBalance",
      "outputs": [
        {
          "internalType": "uint256",
          "name": "",
          "type": "uint256"
        }
      ],
      "stateMutability": "view",
      "type": "function"
    }
  ],
  "bytecode": "0x608060405234801561001057600080fd5b50612238806100206000396000f3fe608060405234801561001057600080fd5b50600436106100b45760003560e01c80637d882097116100715780637d8820971461016d578063bc0aac1014610176578063e8da9d4814610189578063f7c618c11461019c578063fad3cc4b146101af578063fd125300146101dd57600080fd5b80630103c92b146100b95780630fc63d10146100df578063430004c11461010a578063452ed4f114610132578063485cc955146101455780635f64b55b1461015a575b600080fd5b6100cc6100c7366004611c45565b6101f0565b6040519081526020015b60405180910390f35b6035546100f2906001600160a01b031681565b6040516001600160a01b0390911681526020016100d6565b61011d610118366004611c70565b610282565b604080519283526020830191909152016100d6565b6034546100f2906001600160a01b031681565b610158610153366004611cc3565b6104a1565b005b6036546100f2906001600160a01b031681565b6100cc60425481565b6045546100f2906001600160a01b031681565b610158610197366004611cfc565b6109e8565b6033546100f2906001600160a01b031681565b6101c26101bd366004611d1e565b610a5a565b604080519384526020840192909252908201526060016100d6565b6100cc6101eb366004611da0565b610c88565b6001600160a01b0381166000908152604160209081526040808320603c54845290915281205460ff161561023a57506001600160a01b03166000908152603e602052604090205490565b60385461024957506000919050565b6038546001600160a01b0383166000908152603960205260409020546042546102729190611e22565b61027c9190611e41565b92915050565b600080600260015414156102b15760405162461bcd60e51b81526004016102a890611e63565b60405180910390fd5b60026001556045546001600160a01b031633146102e05760405162461bcd60e51b81526004016102a890611e9a565b600085116103265760405162461bcd60e51b8152602060048201526013602482015272125394d551919250d251539517d05353d55395606a1b60448201526064016102a8565b61033085876111e0565b603754604051632e1a7d4d60e01b8152600481018790526001600160a01b0390911690632e1a7d4d90602401600060405180830381600087803b15801561037657600080fd5b505af115801561038a573d6000803e3d6000fd5b5050505083156103b6576034546103ab906001600160a01b03168487611495565b506000905080610492565b60355460365473a5e0829caced8ffdd4de3c43696c57f7d7a678ff9163baa2abde916001600160a01b03918216911688600080896103f642610258611ed1565b60405160e089901b6001600160e01b03191681526001600160a01b039788166004820152958716602487015260448601949094526064850192909252608484015290921660a482015260c481019190915260e40160408051808303816000875af1158015610468573d6000803e3d6000fd5b505050506040513d601f19601f8201168201806040525081019061048c9190611ee9565b90925090505b60018055909590945092505050565b60006104ad60016114e7565b905080156104c5576000805461ff0019166101001790555b604580546001600160a01b038085166001600160a01b031992831617909255603780549286169290911682179055604080516372f702f360e01b815290516372f702f3916004808201926020929091908290030181865afa15801561052e573d6000803e3d6000fd5b505050506040513d601f19601f820116820180604052508101906105529190611f0d565b603480546001600160a01b0319166001600160a01b039283161790556037546040805163d1af0c7d60e01b81529051919092169163d1af0c7d9160048083019260209291908290030181865afa1580156105b0573d6000803e3d6000fd5b505050506040513d601f19601f820116820180604052508101906105d49190611f0d565b603380546001600160a01b0319166001600160a01b0392831617905560345460408051630dfe168160e01b815290519190921691630dfe16819160048083019260209291908290030181865afa158015610632573d6000803e3d6000fd5b505050506040513d601f19601f820116820180604052508101906106569190611f0d565b603580546001600160a01b0319166001600160a01b039283161790556034546040805163d21220a760e01b81529051919092169163d21220a79160048083019260209291908290030181865afa1580156106b4573d6000803e3d6000fd5b505050506040513d601f19601f820116820180604052508101906106d89190611f0d565b603680546001600160a01b0319166001600160a01b0392831617905560345460405163095ea7b360e01b815285831660048201526000196024820181905292919091169063095ea7b3906044016020604051808303816000875af1158015610744573d6000803e3d6000fd5b505050506040513d601f19601f820116820180604052508101906107689190611f2a565b5060345460405163095ea7b360e01b815273a5e0829caced8ffdd4de3c43696c57f7d7a678ff6004820152602481018390526001600160a01b039091169063095ea7b3906044016020604051808303816000875af11580156107ce573d6000803e3d6000fd5b505050506040513d601f19601f820116820180604052508101906107f29190611f2a565b5060335460405163095ea7b360e01b815273a5e0829caced8ffdd4de3c43696c57f7d7a678ff6004820152602481018390526001600160a01b039091169063095ea7b3906044016020604051808303816000875af1158015610858573d6000803e3d6000fd5b505050506040513d601f19601f8201168201806040525081019061087c9190611f2a565b5060355460405163095ea7b360e01b815273a5e0829caced8ffdd4de3c43696c57f7d7a678ff6004820152602481018390526001600160a01b039091169063095ea7b3906044016020604051808303816000875af11580156108e2573d6000803e3d6000fd5b505050506040513d601f19601f820116820180604052508101906109069190611f2a565b5060365460405163095ea7b360e01b815273a5e0829caced8ffdd4de3c43696c57f7d7a678ff6004820152602481018390526001600160a01b039091169063095ea7b3906044016020604051808303816000875af115801561096c573d6000803e3d6000fd5b505050506040513d601f19601f820116820180604052508101906109909190611f2a565b505043603c5562124f80603d5580156109e3576000805461ff0019169055604051600181527f7f26b83ff96e1f2b6a682f133852f6798a09c465da95921460cefb38474024989060200160405180910390a15b505050565b6045546001600160a01b03163314610a125760405162461bcd60e51b81526004016102a890611e9a565b438111610a4f5760405162461bcd60e51b815260206004820152600b60248201526a57524f4e475f424c4f434b60a81b60448201526064016102a8565b603b91909155603a55565b600080600060026001541415610a825760405162461bcd60e51b81526004016102a890611e63565b60026001556045546001600160a01b03163314610ab15760405162461bcd60e51b81526004016102a890611e9a565b60008088118015610ac25750600087115b15610b765760355460365473a5e0829caced8ffdd4de3c43696c57f7d7a678ff9163e8e33700916001600160a01b0391821691168b8b60008030610b0842610258611ed1565b6040518963ffffffff1660e01b8152600401610b2b989796959493929190611f47565b6060604051808303816000875af1158015610b4a573d6000803e3d6000fd5b505050506040513d601f19601f82011682018060405250810190610b6e9190611f90565b919550935090505b610b808682611ed1565b915060008211610bca5760405162461bcd60e51b81526020600482015260156024820152741393d7d3125455525112551657d41493d592511151605a1b60448201526064016102a8565b610bd4828661156f565b60375460405163534a7e1d60e11b8152600481018490526001600160a01b039091169063a694fc3a90602401600060405180830381600087803b158015610c1a57600080fd5b505af1158015610c2e573d6000803e3d6000fd5b50505050610c5585858a610c429190611fbe565b6035546001600160a01b03169190611495565b610c7685610c63858a611fbe565b6036546001600160a01b03169190611495565b50600180819055509450945094915050565b6045546000906001600160a01b03163314610cb55760405162461bcd60e51b81526004016102a890611e9a565b60026001541415610cd85760405162461bcd60e51b81526004016102a890611e63565b6002600155604254610d1b5760405162461bcd60e51b815260206004820152600c60248201526b4e4f5f4c495155494449545960a01b60448201526064016102a8565b603760009054906101000a90046001600160a01b03166001600160a01b0316633d18b9126040518163ffffffff1660e01b8152600401600060405180830381600087803b158015610d6b57600080fd5b505af1158015610d7f573d6000803e3d6000fd5b50506033546040516370a0823160e01b815230600482015260009350600292506001600160a01b03909116906370a0823190602401602060405180830381865afa158015610dd1573d6000803e3d6000fd5b505050506040513d601f19601f82011682018060405250810190610df59190611fd5565b610dff9190611e41565b90506000610e0f42610258611ed1565b6033546035549192506001600160a01b03918216911614610eb5576040516338ed173960e01b815273a5e0829caced8ffdd4de3c43696c57f7d7a678ff906338ed173990610e6c9085906000908c908c9030908990600401611fee565b6000604051808303816000875af1158015610e8b573d6000803e3d6000fd5b505050506040513d6000823e601f3d908101601f19168201604052610eb39190810190612077565b505b6033546036546001600160a01b03908116911614610f58576040516338ed173960e01b815273a5e0829caced8ffdd4de3c43696c57f7d7a678ff906338ed173990610f0f9085906000908a908a9030908990600401611fee565b6000604051808303816000875af1158015610f2e573d6000803e3d6000fd5b505050506040513d6000823e601f3d908101601f19168201604052610f569190810190612077565b505b6035546036546040516370a0823160e01b815230600482015273a5e0829caced8ffdd4de3c43696c57f7d7a678ff9263e8e33700926001600160a01b039182169291169082906370a0823190602401602060405180830381865afa158015610fc4573d6000803e3d6000fd5b505050506040513d601f19601f82011682018060405250810190610fe89190611fd5565b6036546040516370a0823160e01b81523060048201526001600160a01b03909116906370a0823190602401602060405180830381865afa158015611030573d6000803e3d6000fd5b505050506040513d601f19601f820116820180604052508101906110549190611fd5565b60018030896040518963ffffffff1660e01b815260040161107c989796959493929190611f47565b6060604051808303816000875af115801561109b573d6000803e3d6000fd5b505050506040513d601f19601f820116820180604052508101906110bf9190611f90565b50506034546040516370a0823160e01b81523060048201526001600160a01b0390911691506370a0823190602401602060405180830381865afa15801561110a573d6000803e3d6000fd5b505050506040513d601f19601f8201168201806040525081019061112e9190611fd5565b925082156111ac5782604260008282546111489190611ed1565b909155505060375460405163534a7e1d60e11b8152600481018590526001600160a01b039091169063a694fc3a90602401600060405180830381600087803b15801561119357600080fd5b505af11580156111a7573d6000803e3d6000fd5b505050505b603c546111b99043611fbe565b603d8190556111ce908490610a4f9043611ed1565b505043603c5560018055949350505050565b6111e98161181b565b60006111f36119aa565b90506000604354826042546112089190611e22565b6112129190611ed1565b905060006112208386611e22565b61122a9083611fbe565b6001600160a01b0385166000908152603e6020526040812080549293508792909190611257908490611fbe565b9250508190555084604260008282546112709190611fbe565b9091555050603b548290611285908390611e22565b61128f9190611e41565b603b556001600160a01b0384166000908152603e60205260409020546112f6576001600160a01b0384166000908152603960205260409020546038546112d59190611fbe565b6038555050506001600160a01b031660009081526039602052604081205550565b6038546001600160a01b038516600090815260396020526040902054141561131f575050505050565b6001600160a01b0384166000908152603f6020908152604080832054603e90925282205461134e908690611e22565b6113589190611ed1565b905060008282603b5461136b9190611e22565b6113759190611e41565b90506000603b546042546113899190611ed1565b6001600160a01b0388166000908152603e60205260409020546113ad908490611ed1565b6113bf90670de0b6b3a7640000611e22565b6113c99190611e41565b905060006113df82670de0b6b3a7640000611fbe565b670de0b6b3a7640000603854846113f69190611e22565b6114009190611e41565b6001600160a01b038a166000908152603960205260409020546114239190611fbe565b61143590670de0b6b3a7640000611e22565b61143f9190611e41565b6001600160a01b03891660009081526039602052604081208054929350839290919061146c908490611fbe565b9250508190555080603860008282546114859190611fbe565b9091555050505050505050505050565b604080516001600160a01b038416602482015260448082018490528251808303909101815260649091019091526020810180516001600160e01b031663a9059cbb60e01b1790526109e39084906119d8565b60008054610100900460ff161561152e578160ff16600114801561150a5750303b155b6115265760405162461bcd60e51b81526004016102a890612135565b506000919050565b60005460ff8084169116106115555760405162461bcd60e51b81526004016102a890612135565b506000805460ff191660ff92909216919091179055600190565b6115788161181b565b60006115826119aa565b90506000604354826042546115979190611e22565b6115a19190611ed1565b90506000816115b08487611e22565b6115ba9190611ed1565b6001600160a01b0385166000908152603e60205260408120805492935087929091906115e7908490611ed1565b9250508190555084604260008282546116009190611ed1565b90915550508115611628578181603b5461161a9190611e22565b6116249190611e41565b603b555b60385461168c576001600160a01b03841660009081526039602052604081208054670de0b6b3a7640000929061165f908490611ed1565b92505081905550670de0b6b3a7640000603860008282546116809190611ed1565b90915550505050505050565b6038546001600160a01b03851660009081526039602052604090205414156116b5575050505050565b6001600160a01b0384166000908152603f6020908152604080832054603e9092528220546116e4908690611e22565b6116ee9190611ed1565b905060008282603b546117019190611e22565b61170b9190611e41565b90506000603b5460425461171f9190611ed1565b6001600160a01b0388166000908152603e6020526040902054611743908490611ed1565b61175590670de0b6b3a7640000611e22565b61175f9190611e41565b9050600061177582670de0b6b3a7640000611fbe565b6001600160a01b038916600090815260396020526040902054603854670de0b6b3a7640000906117a59086611e22565b6117af9190611e41565b6117b99190611fbe565b6117cb90670de0b6b3a7640000611e22565b6117d59190611e41565b6001600160a01b038916600090815260396020526040812080549293508392909190611802908490611ed1565b9250508190555080603860008282546114859190611ed1565b6001600160a01b0381166000908152604160209081526040808320603c54845290915290205460ff16156118b4576001600160a01b0381166000908152603e602090815260408083205491819052909120546118779043611fbe565b6118819190611e22565b6001600160a01b0382166000908152603f6020526040812080549091906118a9908490611ed1565b909155506119299050565b6118bd816101f0565b6001600160a01b0382166000908152603e60205260409020819055603c546118e59043611fbe565b6118ef9190611e22565b6001600160a01b0382166000908152603f602090815260408083209390935560418152828220603c548352905220805460ff191660011790555b603c54604454111561196b576042546044546119459043611fbe565b61194f9190611e22565b604360008282546119609190611ed1565b909155506119899050565b604254603c5461197b9043611fbe565b6119859190611e22565b6043555b6001600160a01b031660009081526040602081905290204390819055604455565b600043603a5411156119c95743603a546119c49190611fbe565b905090565b6002603d546119c49190611e41565b6000611a2d826040518060400160405280602081526020017f5361666545524332303a206c6f772d6c6576656c2063616c6c206661696c6564815250856001600160a01b0316611aaa9092919063ffffffff16565b8051909150156109e35780806020019051810190611a4b9190611f2a565b6109e35760405162461bcd60e51b815260206004820152602a60248201527f5361666545524332303a204552433230206f7065726174696f6e20646964206e6044820152691bdd081cdd58d8d9595960b21b60648201526084016102a8565b6060611ab98484600085611ac3565b90505b9392505050565b606082471015611b245760405162461bcd60e51b815260206004820152602660248201527f416464726573733a20696e73756666696369656e742062616c616e636520666f6044820152651c8818d85b1b60d21b60648201526084016102a8565b6001600160a01b0385163b611b7b5760405162461bcd60e51b815260206004820152601d60248201527f416464726573733a2063616c6c20746f206e6f6e2d636f6e747261637400000060448201526064016102a8565b600080866001600160a01b03168587604051611b9791906121b3565b60006040518083038185875af1925050503d8060008114611bd4576040519150601f19603f3d011682016040523d82523d6000602084013e611bd9565b606091505b5091509150611be9828286611bf4565b979650505050505050565b60608315611c03575081611abc565b825115611c135782518084602001fd5b8160405162461bcd60e51b81526004016102a891906121cf565b6001600160a01b0381168114611c4257600080fd5b50565b600060208284031215611c5757600080fd5b8135611abc81611c2d565b8015158114611c4257600080fd5b60008060008060808587031215611c8657600080fd5b8435611c9181611c2d565b9350602085013592506040850135611ca881611c62565b91506060850135611cb881611c2d565b939692955090935050565b60008060408385031215611cd657600080fd5b8235611ce181611c2d565b91506020830135611cf181611c2d565b809150509250929050565b60008060408385031215611d0f57600080fd5b50508035926020909101359150565b60008060008060808587031215611d3457600080fd5b8435935060208501359250604085013591506060850135611cb881611c2d565b60008083601f840112611d6657600080fd5b50813567ffffffffffffffff811115611d7e57600080fd5b6020830191508360208260051b8501011115611d9957600080fd5b9250929050565b60008060008060408587031215611db657600080fd5b843567ffffffffffffffff80821115611dce57600080fd5b611dda88838901611d54565b90965094506020870135915080821115611df357600080fd5b50611e0087828801611d54565b95989497509550505050565b634e487b7160e01b600052601160045260246000fd5b6000816000190483118215151615611e3c57611e3c611e0c565b500290565b600082611e5e57634e487b7160e01b600052601260045260246000fd5b500490565b6020808252601f908201527f5265656e7472616e637947756172643a207265656e7472616e742063616c6c00604082015260600190565b60208082526017908201527f43414c4c45525f4e4f545f41535345545f524f55544552000000000000000000604082015260600190565b60008219821115611ee457611ee4611e0c565b500190565b60008060408385031215611efc57600080fd5b505080516020909101519092909150565b600060208284031215611f1f57600080fd5b8151611abc81611c2d565b600060208284031215611f3c57600080fd5b8151611abc81611c62565b6001600160a01b039889168152968816602088015260408701959095526060860193909352608085019190915260a084015290921660c082015260e08101919091526101000190565b600080600060608486031215611fa557600080fd5b8351925060208401519150604084015190509250925092565b600082821015611fd057611fd0611e0c565b500390565b600060208284031215611fe757600080fd5b5051919050565b868152602080820187905260a0604083018190528201859052600090869060c08401835b8881101561204057833561202581611c2d565b6001600160a01b031682529282019290820190600101612012565b506001600160a01b0396909616606085015250505060800152949350505050565b634e487b7160e01b600052604160045260246000fd5b6000602080838503121561208a57600080fd5b825167ffffffffffffffff808211156120a257600080fd5b818501915085601f8301126120b657600080fd5b8151818111156120c8576120c8612061565b8060051b604051601f19603f830116810181811085821117156120ed576120ed612061565b60405291825284820192508381018501918883111561210b57600080fd5b938501935b8285101561212957845184529385019392850192612110565b98975050505050505050565b6020808252602e908201527f496e697469616c697a61626c653a20636f6e747261637420697320616c72656160408201526d191e481a5b9a5d1a585b1a5e995960921b606082015260800190565b60005b8381101561219e578181015183820152602001612186565b838111156121ad576000848401525b50505050565b600082516121c5818460208701612183565b9190910192915050565b60208152600082518060208401526121ee816040850160208701612183565b601f01601f1916919091016040019291505056fea26469706673582212206efb9899e45ae4f2f23d291498c25938cefab76c1105d0bf80561a33d4d83e2e64736f6c634300080a0033",
  "immutableReferences": {},
  "source": "// SPDX-License-Identifier: MIT\r\npragma solidity 0.8.10;\r\n \r\nimport '../../interfaces/IUniswapV2Pair.sol';\r\nimport '../../interfaces/IUniswapV2Router.sol';\r\nimport '../../interfaces/IStakingRewards.sol';\r\nimport '../../interfaces/IWMATIC.sol';\r\nimport '@openzeppelin/contracts-upgradeable/security/ReentrancyGuardUpgradeable.sol';\r\nimport '@openzeppelin/contracts-upgradeable/token/ERC20/utils/SafeERC20Upgradeable.sol';\r\nimport '@openzeppelin/contracts-upgradeable/token/ERC20/IERC20Upgradeable.sol';\r\nimport '@openzeppelin/contracts-upgradeable/proxy/utils/Initializable.sol';\r\n\r\ncontract UnoFarmQuickswap is Initializable, ReentrancyGuardUpgradeable {\r\n    using SafeERC20Upgradeable for IERC20Upgradeable;\r\n\r\n    /**\r\n     * @dev Tokens Used:\r\n     * {rewardToken} - Token generated by staking.\r\n     * {lpPair} - Token that the strategy maximizes. The same token that users deposit in the {lpStakingPool}.\r\n     * {tokenA, tokenB} - Tokens that the strategy maximizes.\r\n     */\r\n    address public rewardToken;\r\n    address public lpPair;\r\n    address public tokenA;\r\n    address public tokenB;\r\n\r\n    /**\r\n     * @dev Third Party Contracts:\r\n     * {quickswapRouter} - Contract that executes swaps.\r\n     * {lpStakingPool} - Contract that distibutes {rewardToken}.\r\n     */\r\n    IUniswapV2Router01 private constant quickswapRouter = IUniswapV2Router01(0xa5E0829CaCEd8fFDD4De3c43696c57F7D7A678ff); \r\n    IStakingRewards private lpStakingPool;\r\n\r\n    /**\r\n     * @dev Contract Variables:\r\n     * {totalShares} - Total shares.\r\n     * {sharesOf} - User shares. Represents what share of this pool the user owns.\r\n\r\n     * {expectedRewardBlock} - Block on which the next distribution is expected to be called.\r\n     * {expectedReward} - Expected reward which will be produced by the next distribution.\r\n     \r\n     * {lastRewardBlock} - Last reward block. Updates every distribution.\r\n     * {lastDistributionPeriod} - Last distribution period. Is used to approximate next reward block.\r\n\r\n     * {userDeposit} - Deposits made by users.\r\n     * {userDepositAge} - Deposit multiplied by blocks the deposit has been in. Flushes every reward distribution.\r\n     * {userDALastUpdated} - Last deposit age calculation block for user.\r\n     * {userDepositChanged} - 'true' if user has made deposit this distribution period. Flushes every reward distribution.\r\n     \r\n     * {totalDeposits} - Total deposits made by users.\r\n     * {totalDepositAge} - Deposits multiplied by blocks the deposit has been in. Flushes every reward distribution.\r\n     * {totalDALastUpdated} - Last deposit age calculation block.\r\n\r\n     * {fractionMultiplier} - Used as multiplier to store decimal values.\r\n     */\r\n    uint256 private totalShares;\r\n    mapping(address => uint256) private sharesOf;\r\n\r\n    uint256 private expectedRewardBlock;\r\n    uint256 private expectedReward;\r\n\r\n    uint256 private lastRewardBlock;\r\n    uint256 private lastDistributionPeriod;\r\n\r\n    mapping(address => uint256) private userDeposit;\r\n    mapping(address => uint256) private userDepositAge;\r\n    mapping(address => uint256) private userDALastUpdated;\r\n    mapping(address => mapping(uint256 => bool)) private userDepositChanged;\r\n\r\n    uint256 public totalDeposits;\r\n    uint256 private totalDepositAge;\r\n    uint256 private totalDALastUpdated;\r\n\r\n    uint256 private constant fractionMultiplier = 10**18;\r\n\r\n    /**\r\n     * @dev Contract Variables:\r\n     * {assetRouter} - The contract from which calls to this farm are made.\r\n     */\r\n    address public assetRouter;\r\n    modifier onlyAssetRouter(){\r\n        require(msg.sender == assetRouter, 'CALLER_NOT_ASSET_ROUTER');\r\n        _;\r\n    }\r\n\r\n    // ============ Methods ============\r\n\r\n    function initialize(address _lpStakingPool, address _assetRouter) external initializer {\r\n        assetRouter = _assetRouter;\r\n\r\n        lpStakingPool = IStakingRewards(_lpStakingPool);\r\n        lpPair = address(lpStakingPool.stakingToken());\r\n\r\n        rewardToken = lpStakingPool.rewardsToken();\r\n\r\n        tokenA = IUniswapV2Pair(lpPair).token0();\r\n        tokenB = IUniswapV2Pair(lpPair).token1();\r\n\r\n        uint256 MAX_UINT = uint256(2**256 - 1);\r\n        IERC20(lpPair).approve(_lpStakingPool, MAX_UINT);\r\n        IERC20(lpPair).approve(address(quickswapRouter), MAX_UINT);\r\n        IERC20(rewardToken).approve(address(quickswapRouter), MAX_UINT);\r\n        IERC20(tokenA).approve(address(quickswapRouter), MAX_UINT);\r\n        IERC20(tokenB).approve(address(quickswapRouter), MAX_UINT);\r\n\r\n        lastRewardBlock = block.number;\r\n        lastDistributionPeriod = 1200000; // This is somewhere around 1 month at the time of writing this contract.\r\n    }\r\n\r\n    /**\r\n     * @dev Function that makes the deposits.\r\n     * Deposits provided tokens in the Liquidity Pool, then stakes generated LP tokens in the {lpStakingPool}.\r\n     */\r\n    function deposit(uint256 amountA, uint256 amountB, uint256 amountLP, address recipient) external nonReentrant onlyAssetRouter returns(uint256 sentA, uint256 sentB, uint256 liquidity){\r\n        uint256 addedLiquidity;\r\n        if(amountA > 0 && amountB > 0){\r\n            (sentA, sentB, addedLiquidity) = quickswapRouter.addLiquidity(tokenA, tokenB, amountA, amountB, 0, 0, address(this), block.timestamp + 600);\r\n        }\r\n        liquidity = addedLiquidity + amountLP;\r\n        require(liquidity > 0, 'NO_LIQUIDITY_PROVIDED');\r\n\r\n        _mint(liquidity, recipient);\r\n            \r\n        lpStakingPool.stake(liquidity);\r\n        IERC20Upgradeable(tokenA).safeTransfer(recipient, amountA - sentA);\r\n        IERC20Upgradeable(tokenB).safeTransfer(recipient, amountB - sentB);\r\n    }\r\n\r\n    /**\r\n     * @dev Withdraws funds from {origin} and sends them to the {recipient}.\r\n     */\r\n    function withdraw(address origin, uint256 amount, bool withdrawLP, address recipient) external nonReentrant onlyAssetRouter returns(uint256 amountA, uint256 amountB){\r\n        require(amount > 0, 'INSUFFICIENT_AMOUNT');\r\n\r\n        _burn(amount, origin);\r\n\r\n        lpStakingPool.withdraw(amount);\r\n        if(withdrawLP){\r\n            IERC20Upgradeable(lpPair).safeTransfer(recipient, amount);\r\n            return (0, 0);\r\n        }\r\n        (amountA, amountB) = quickswapRouter.removeLiquidity(tokenA, tokenB, amount, 0, 0, recipient, block.timestamp + 600);\r\n    }\r\n\r\n    /**\r\n     * @dev Core function of the strat, in charge of updating, collecting and re-investing rewards.\r\n     * 1. It claims rewards from the {lpStakingPool}.\r\n     * 2. It swaps the {rewardToken} token for {tokenA} & {tokenB}.\r\n     * 3. It deposits the new LP tokens back to the {lpStakingPool}.\r\n     */\r\n    function distribute(address[] calldata rewardTokenToTokenARoute, address[] calldata rewardTokenToTokenBRoute) external onlyAssetRouter nonReentrant returns(uint256 reward){\r\n        require(totalDeposits > 0, 'NO_LIQUIDITY');\r\n\r\n        lpStakingPool.getReward();\r\n        uint256 rewardTokenHalf = IERC20(rewardToken).balanceOf(address(this))/2;\r\n        uint256 deadline = block.timestamp + 600;\r\n\r\n        if (tokenA != rewardToken) {\r\n            quickswapRouter.swapExactTokensForTokens(rewardTokenHalf, 0, rewardTokenToTokenARoute, address(this), deadline);\r\n        }\r\n        if (tokenB != rewardToken) {\r\n            quickswapRouter.swapExactTokensForTokens(rewardTokenHalf, 0, rewardTokenToTokenBRoute, address(this), deadline);\r\n        }\r\n\r\n        quickswapRouter.addLiquidity(tokenA, tokenB, IERC20(tokenA).balanceOf(address(this)), IERC20(tokenB).balanceOf(address(this)), 1, 1, address(this), deadline);\r\n\r\n        reward = IERC20(lpPair).balanceOf(address(this));\r\n        if (reward > 0) {\r\n            totalDeposits += reward;\r\n            lpStakingPool.stake(reward);\r\n        }\r\n\r\n        lastDistributionPeriod = block.number - lastRewardBlock;\r\n        _setExpectedReward(reward, block.number + lastDistributionPeriod);\r\n        lastRewardBlock = block.number;\r\n    }\r\n\r\n    /**\r\n     * @dev Sets {expectedReward} and {expectedRewardBlock} for token distribution calculation.\r\n     */\r\n    function setExpectedReward(uint256 _amount, uint256 _block) external onlyAssetRouter{\r\n        require(_block > block.number, 'WRONG_BLOCK');\r\n        _setExpectedReward(_amount, _block);\r\n    }\r\n\r\n    /**\r\n     * @dev Returns total funds staked by the {_address}.\r\n     */\r\n    function userBalance(address _address) public view returns (uint256) {\r\n        if (userDepositChanged[_address][lastRewardBlock]) {\r\n            return userDeposit[_address];\r\n        } else {\r\n            if (totalShares == 0) {\r\n                return 0;\r\n            }\r\n            return totalDeposits * sharesOf[_address] / totalShares;\r\n        }\r\n    }\r\n\r\n    function _mint(uint256 amount, address _address) internal {\r\n        _updateDeposit(_address);\r\n        uint256 blocksTillReward = getBlocksTillReward();\r\n        // Total deposit age we expected by the end of distribution period before this deposit.\r\n        uint256 totalExpectedDepositAgePrev = totalDeposits * blocksTillReward + totalDepositAge;\r\n        // New expected total deposit age.\r\n        uint256 totalExpectedDepositAge = amount * blocksTillReward + totalExpectedDepositAgePrev;\r\n        // Update deposit amounts.\r\n        userDeposit[_address] += amount;\r\n        totalDeposits += amount;\r\n        // Expected reward will increase proportionally to the increase of total expected deposit age.\r\n        if (totalExpectedDepositAgePrev > 0) {\r\n            expectedReward = expectedReward * totalExpectedDepositAge / totalExpectedDepositAgePrev;\r\n        }\r\n\r\n        if (totalShares == 0) {\r\n            sharesOf[_address] += fractionMultiplier;\r\n            totalShares += fractionMultiplier;\r\n            return;\r\n        }\r\n        if (sharesOf[_address] == totalShares) {\r\n            // Don't do anything if the user owns 100% of the pool.\r\n            return;\r\n        }\r\n        // User's new expected deposit age by the end of distribution period.\r\n        uint256 userExpectedDepositAge = userDeposit[_address] * blocksTillReward + userDepositAge[_address];\r\n        // User's expected reward by the end of distribution period.\r\n        uint256 userExpectedReward = expectedReward * userExpectedDepositAge / totalExpectedDepositAge;\r\n        // User's estimated share after the next reward.\r\n        uint256 userNewShare = fractionMultiplier * (userDeposit[_address] + userExpectedReward) / (totalDeposits + expectedReward);\r\n        // Amount of shares to mint.\r\n        uint256 mintAmount = fractionMultiplier * (userNewShare * totalShares / fractionMultiplier - sharesOf[_address]) / (fractionMultiplier - userNewShare);\r\n\r\n        sharesOf[_address] += mintAmount;\r\n        totalShares += mintAmount;\r\n    }\r\n\r\n    function _burn(uint256 amount, address _address) internal {\r\n        _updateDeposit(_address);\r\n        uint256 blocksTillReward = getBlocksTillReward();\r\n        // Total deposit age we expected by the end of distribution period before this withdrawal.\r\n        uint256 totalExpectedDepositAgePrev = totalDeposits * blocksTillReward + totalDepositAge;\r\n        // New expected total deposit age.\r\n        uint256 totalExpectedDepositAge = totalExpectedDepositAgePrev - amount * blocksTillReward;\r\n        // Update deposit amounts.\r\n        userDeposit[_address] -= amount;\r\n        totalDeposits -= amount;\r\n        // Expected reward will decrease proportionally to the decrease of total expected deposit age.\r\n        expectedReward = expectedReward * totalExpectedDepositAge / totalExpectedDepositAgePrev;\r\n\r\n        if(userDeposit[_address] == 0){\r\n            totalShares = totalShares - sharesOf[_address];\r\n            sharesOf[_address] = 0;\r\n            return;\r\n        }\r\n        if (sharesOf[_address] == totalShares) {\r\n            // Don't do anything if the user owns 100% of the pool.\r\n            return;\r\n        }\r\n        // User's new expected deposit age by the end of distribution period.\r\n        uint256 userExpectedDepositAge = userDeposit[_address] * blocksTillReward + userDepositAge[_address];\r\n        // User's expected reward by the end of distribution period.\r\n        uint256 userExpectedReward = expectedReward * userExpectedDepositAge / totalExpectedDepositAge;\r\n        // User's estimated share after the next reward.\r\n        uint256 userNewShare = fractionMultiplier * (userDeposit[_address] + userExpectedReward) / (totalDeposits + expectedReward);\r\n        // Amount of shares to burn.\r\n        uint256 burnAmount = fractionMultiplier * (sharesOf[_address] - userNewShare * totalShares / fractionMultiplier) / (fractionMultiplier - userNewShare);\r\n        \r\n        sharesOf[_address] -= burnAmount;\r\n        totalShares -= burnAmount;\r\n    }\r\n\r\n    function _updateDeposit(address _address) internal {\r\n        // Accumulate deposit age within the current distribution period.\r\n        if (userDepositChanged[_address][lastRewardBlock]) {\r\n            // Add deposit age from previous deposit age update to now.\r\n            userDepositAge[_address] += (block.number - userDALastUpdated[_address]) * userDeposit[_address];\r\n        } else {\r\n            // A reward has been distributed, update user deposit.\r\n            userDeposit[_address] = userBalance(_address);\r\n            // Count fresh deposit age from previous reward distribution to now.\r\n            userDepositAge[_address] = (block.number - lastRewardBlock) * userDeposit[_address];\r\n            userDepositChanged[_address][lastRewardBlock] = true;\r\n        }\r\n        // Same with total deposit age.\r\n        if (totalDALastUpdated > lastRewardBlock) {\r\n            totalDepositAge += (block.number - totalDALastUpdated) * totalDeposits;\r\n        } else {\r\n            totalDepositAge = (block.number - lastRewardBlock) * totalDeposits;\r\n        }\r\n\r\n        userDALastUpdated[_address] = block.number;\r\n        totalDALastUpdated = block.number;\r\n    }\r\n\r\n    function getBlocksTillReward() internal view returns(uint256 blocksTillReward) {\r\n        if(expectedRewardBlock > block.number){\r\n            blocksTillReward = expectedRewardBlock - block.number;\r\n        } else {\r\n            blocksTillReward = lastDistributionPeriod / 2;\r\n        }\r\n    }\r\n\r\n    function _setExpectedReward(uint256 _amount, uint256 _block) internal {\r\n        expectedReward = _amount;\r\n        expectedRewardBlock = _block;\r\n    }\r\n}\r\n",
  "sourcePath": "C:\\Users\\jugli\\Desktop\\uno\\uno-contracts-branch\\contracts\\apps\\quickswap\\UnoFarmQuickswap.sol",
  "compiler": {
    "name": "solc",
    "version": "0.8.10+commit.fc410830.Emscripten.clang"
  },
  "schemaVersion": "3.4.7",
  "updatedAt": "2022-05-24T09:52:41.420Z",
  "devdoc": {
    "kind": "dev",
    "methods": {
      "deposit(uint256,uint256,uint256,address)": {
        "details": "Function that makes the deposits. Deposits provided tokens in the Liquidity Pool, then stakes generated LP tokens in the {lpStakingPool}."
      },
      "distribute(address[],address[])": {
        "details": "Core function of the strat, in charge of updating, collecting and re-investing rewards. 1. It claims rewards from the {lpStakingPool}. 2. It swaps the {rewardToken} token for {tokenA} & {tokenB}. 3. It deposits the new LP tokens back to the {lpStakingPool}."
      },
      "setExpectedReward(uint256,uint256)": {
        "details": "Sets {expectedReward} and {expectedRewardBlock} for token distribution calculation."
      },
      "userBalance(address)": {
        "details": "Returns total funds staked by the {_address}."
      },
      "withdraw(address,uint256,bool,address)": {
        "details": "Withdraws funds from {origin} and sends them to the {recipient}."
      }
    },
    "stateVariables": {
      "assetRouter": {
        "details": "Contract Variables: {assetRouter} - The contract from which calls to this farm are made."
      },
      "quickswapRouter": {
        "details": "Third Party Contracts: {quickswapRouter} - Contract that executes swaps. {lpStakingPool} - Contract that distibutes {rewardToken}."
      },
      "rewardToken": {
        "details": "Tokens Used: {rewardToken} - Token generated by staking. {lpPair} - Token that the strategy maximizes. The same token that users deposit in the {lpStakingPool}. {tokenA, tokenB} - Tokens that the strategy maximizes."
      },
      "totalShares": {
        "details": "Contract Variables: {totalShares} - Total shares. {sharesOf} - User shares. Represents what share of this pool the user owns. {expectedRewardBlock} - Block on which the next distribution is expected to be called. {expectedReward} - Expected reward which will be produced by the next distribution. {lastRewardBlock} - Last reward block. Updates every distribution. {lastDistributionPeriod} - Last distribution period. Is used to approximate next reward block. {userDeposit} - Deposits made by users. {userDepositAge} - Deposit multiplied by blocks the deposit has been in. Flushes every reward distribution. {userDALastUpdated} - Last deposit age calculation block for user. {userDepositChanged} - 'true' if user has made deposit this distribution period. Flushes every reward distribution. {totalDeposits} - Total deposits made by users. {totalDepositAge} - Deposits multiplied by blocks the deposit has been in. Flushes every reward distribution. {totalDALastUpdated} - Last deposit age calculation block. {fractionMultiplier} - Used as multiplier to store decimal values."
      }
    },
    "version": 1
  },
  "userdoc": {
    "kind": "user",
    "methods": {},
    "version": 1
  }
}