{
  "contractName": "UnoFarmMeshswap",
  "abi": [
    {
      "inputs": [],
      "name": "CALLER_NOT_ASSET_ROUTER",
      "type": "error"
    },
    {
      "inputs": [],
      "name": "CALL_ON_THE_SAME_BLOCK",
      "type": "error"
    },
    {
      "inputs": [],
      "name": "INSUFFICIENT_AMOUNT",
      "type": "error"
    },
    {
      "inputs": [],
      "name": "INSUFFICIENT_BALANCE",
      "type": "error"
    },
    {
      "inputs": [],
      "name": "INVALID_ASSET_ROUTER",
      "type": "error"
    },
    {
      "inputs": [],
      "name": "INVALID_LP_POOL",
      "type": "error"
    },
    {
      "inputs": [
        {
          "internalType": "address",
          "name": "fromToken",
          "type": "address"
        },
        {
          "internalType": "address",
          "name": "toToken",
          "type": "address"
        }
      ],
      "name": "INVALID_ROUTE",
      "type": "error"
    },
    {
      "inputs": [],
      "name": "NO_LIQUIDITY",
      "type": "error"
    },
    {
      "inputs": [],
      "name": "NO_LIQUIDITY_PROVIDED",
      "type": "error"
    },
    {
      "anonymous": false,
      "inputs": [
        {
          "indexed": false,
          "internalType": "uint8",
          "name": "version",
          "type": "uint8"
        }
      ],
      "name": "Initialized",
      "type": "event"
    },
    {
      "inputs": [],
      "name": "assetRouter",
      "outputs": [
        {
          "internalType": "address",
          "name": "",
          "type": "address"
        }
      ],
      "stateMutability": "view",
      "type": "function"
    },
    {
      "inputs": [],
      "name": "lpPool",
      "outputs": [
        {
          "internalType": "address",
          "name": "",
          "type": "address"
        }
      ],
      "stateMutability": "view",
      "type": "function"
    },
    {
      "inputs": [],
      "name": "rewardToken",
      "outputs": [
        {
          "internalType": "address",
          "name": "",
          "type": "address"
        }
      ],
      "stateMutability": "view",
      "type": "function"
    },
    {
      "inputs": [],
      "name": "tokenA",
      "outputs": [
        {
          "internalType": "address",
          "name": "",
          "type": "address"
        }
      ],
      "stateMutability": "view",
      "type": "function"
    },
    {
      "inputs": [],
      "name": "tokenB",
      "outputs": [
        {
          "internalType": "address",
          "name": "",
          "type": "address"
        }
      ],
      "stateMutability": "view",
      "type": "function"
    },
    {
      "inputs": [
        {
          "internalType": "address",
          "name": "_lpPool",
          "type": "address"
        },
        {
          "internalType": "address",
          "name": "_assetRouter",
          "type": "address"
        }
      ],
      "name": "initialize",
      "outputs": [],
      "stateMutability": "nonpayable",
      "type": "function"
    },
    {
      "inputs": [
        {
          "internalType": "uint256",
          "name": "amount",
          "type": "uint256"
        },
        {
          "internalType": "address",
          "name": "recipient",
          "type": "address"
        }
      ],
      "name": "deposit",
      "outputs": [],
      "stateMutability": "nonpayable",
      "type": "function"
    },
    {
      "inputs": [
        {
          "internalType": "uint256",
          "name": "amount",
          "type": "uint256"
        },
        {
          "internalType": "address",
          "name": "origin",
          "type": "address"
        },
        {
          "internalType": "address",
          "name": "recipient",
          "type": "address"
        }
      ],
      "name": "withdraw",
      "outputs": [],
      "stateMutability": "nonpayable",
      "type": "function"
    },
    {
      "inputs": [
        {
          "components": [
            {
              "internalType": "address[]",
              "name": "route",
              "type": "address[]"
            },
            {
              "internalType": "uint256",
              "name": "amountOutMin",
              "type": "uint256"
            }
          ],
          "internalType": "struct IUnoFarmMeshswap.SwapInfo[2]",
          "name": "swapInfos",
          "type": "tuple[2]"
        },
        {
          "components": [
            {
              "internalType": "address",
              "name": "feeTo",
              "type": "address"
            },
            {
              "internalType": "uint256",
              "name": "fee",
              "type": "uint256"
            }
          ],
          "internalType": "struct IUnoFarm.FeeInfo",
          "name": "feeInfo",
          "type": "tuple"
        }
      ],
      "name": "distribute",
      "outputs": [
        {
          "internalType": "uint256",
          "name": "reward",
          "type": "uint256"
        }
      ],
      "stateMutability": "nonpayable",
      "type": "function"
    },
    {
      "inputs": [
        {
          "internalType": "address",
          "name": "_address",
          "type": "address"
        }
      ],
      "name": "userBalance",
      "outputs": [
        {
          "internalType": "uint256",
          "name": "",
          "type": "uint256"
        }
      ],
      "stateMutability": "view",
      "type": "function"
    },
    {
      "inputs": [],
      "name": "getTotalDeposits",
      "outputs": [
        {
          "internalType": "uint256",
          "name": "_totalDeposits",
          "type": "uint256"
        }
      ],
      "stateMutability": "view",
      "type": "function"
    }
  ],
  "bytecode": "0x608060405234801561001057600080fd5b50611e43806100206000396000f3fe608060405234801561001057600080fd5b50600436106100a95760003560e01c8063485cc95511610071578063485cc9551461012d5780635f64b55b146101425780636e553f6514610155578063b460af9414610168578063bc0aac101461017b578063f7c618c11461018e57600080fd5b80630103c92b146100ae57806309505567146100d45780630fc63d10146100e7578063168a4822146101125780633737bcb41461011a575b600080fd5b6100c16100bc366004611885565b6101a1565b6040519081526020015b60405180910390f35b6100c16100e23660046118a2565b6101d5565b6035546100fa906001600160a01b031681565b6040516001600160a01b0390911681526020016100cb565b6100c1610a03565b6034546100fa906001600160a01b031681565b61014061013b366004611901565b610a80565b005b6036546100fa906001600160a01b031681565b61014061016336600461193a565b610fb9565b61014061017636600461195f565b611081565b603d546100fa906001600160a01b031681565b6033546100fa906001600160a01b031681565b60006101ac826111c9565b6001600160a01b0383166000908152603b60205260409020546101cf91906119b7565b92915050565b603d546000906001600160a01b0316331461020357604051637d3781d760e11b815260040160405180910390fd5b6002600154141561022f5760405162461bcd60e51b8152600401610226906119cf565b60405180910390fd5b60026001556037546102545760405163f58c8f9160e01b815260040160405180910390fd5b603a544390603c906000906102719060019063ffffffff16611a06565b63ffffffff16815260208101919091526040016000205414156102a75760405163fa2a2d8760e01b815260040160405180910390fd5b603460009054906101000a90046001600160a01b03166001600160a01b031663b88a802f6040518163ffffffff1660e01b8152600401600060405180830381600087803b1580156102f757600080fd5b505af115801561030b573d6000803e3d6000fd5b50506033546040516370a0823160e01b8152306004820152600093506001600160a01b0390911691506370a0823190602401602060405180830381865afa15801561035a573d6000803e3d6000fd5b505050506040513d601f19601f8201168201806040525081019061037e9190611a2b565b603354909150610398906001600160a01b0316828561135e565b6103a29082611a44565b905060006103b1600283611a5b565b6033546035549192506001600160a01b03918216911614610544573660006103d98780611a93565b6103e39080611ab3565b60335491935091506001600160a01b0316828260008161040557610405611a7d565b905060200201602081019061041a9190611885565b6001600160a01b031614158061047457506035546001600160a01b03168282610444600182611a44565b81811061045357610453611a7d565b90506020020160208101906104689190611885565b6001600160a01b031614155b156104ab5760335460355460405163756cc24d60e11b81526001600160a01b03928316600482015291166024820152604401610226565b7310f4a785f458bc144e37065759248899549466396338ed1739846104d08a80611a93565b60200135858530426040518763ffffffff1660e01b81526004016104f996959493929190611b04565b6000604051808303816000875af1158015610518573d6000803e3d6000fd5b505050506040513d6000823e601f3d908101601f191682016040526105409190810190611b8d565b5050505b6033546036546001600160a01b039081169116146106da5736600061056c6020880188611a93565b6105769080611ab3565b60335491935091506001600160a01b0316828260008161059857610598611a7d565b90506020020160208101906105ad9190611885565b6001600160a01b031614158061060757506036546001600160a01b031682826105d7600182611a44565b8181106105e6576105e6611a7d565b90506020020160208101906105fb9190611885565b6001600160a01b031614155b1561063e5760335460365460405163756cc24d60e11b81526001600160a01b03928316600482015291166024820152604401610226565b7310f4a785f458bc144e37065759248899549466396338ed17398461066660208b018b611a93565b60200135858530426040518763ffffffff1660e01b815260040161068f96959493929190611b04565b6000604051808303816000875af11580156106ae573d6000803e3d6000fd5b505050506040513d6000823e601f3d908101601f191682016040526106d69190810190611b8d565b5050505b6035546036546040516370a0823160e01b81523060048201527310f4a785f458bc144e37065759248899549466399263e8e33700926001600160a01b039182169291169082906370a0823190602401602060405180830381865afa158015610746573d6000803e3d6000fd5b505050506040513d601f19601f8201168201806040525081019061076a9190611a2b565b6036546040516370a0823160e01b81523060048201526001600160a01b03909116906370a0823190602401602060405180830381865afa1580156107b2573d6000803e3d6000fd5b505050506040513d601f19601f820116820180604052508101906107d69190611a2b565b6107e08b80611a93565b602090810135906107f3908d018d611a93565b6040516001600160e01b031960e089901b1681526001600160a01b0396871660048201529590941660248601526044850192909252606484015260848301526020013560a48201523060c48201524260e4820152610104016060604051808303816000875af115801561086a573d6000803e3d6000fd5b505050506040513d601f19601f8201168201806040525081019061088e9190611c4b565b603954909550600092506108a3915043611a44565b6037546108b09190611c79565b6038546108bd91906119b7565b6108cf670de0b6b3a764000086611c79565b6108d99190611a5b565b603a54909150600090603c9082906108f99060019063ffffffff16611a06565b63ffffffff16815260208101919091526040016000205461091a9043611a44565b6109249083611c79565b603a54603c9060009061093f9060019063ffffffff16611a06565b63ffffffff1663ffffffff1681526020019081526020016000206002015461096791906119b7565b604080516060810182524381526020808201868152828401858152603a805463ffffffff9081166000908152603c909552958420945185559151600185810191909155905160029094019390935580549495509193919290916109cc91859116611c98565b825463ffffffff9182166101009390930a928302919092021990911617905550504360395550506000603855506001805592915050565b60375460009015610a7d576034546040516370a0823160e01b81523060048201526001600160a01b03909116906370a0823190602401602060405180830381865afa158015610a56573d6000803e3d6000fd5b505050506040513d601f19601f82011682018060405250810190610a7a9190611a2b565b90505b90565b6000610a8c60016113cd565b90508015610aa4576000805461ff0019166101001790555b6001600160a01b038316610acb57604051635309c5cf60e01b815260040160405180910390fd5b6001600160a01b038216610af257604051630c17c11560e41b815260040160405180910390fd5b610afa611455565b603d80546001600160a01b038085166001600160a01b031992831617909255603480549286169290911682179055604080516307bb5d7760e51b8152905163f76baee0916004808201926020929091908290030181865afa158015610b63573d6000803e3d6000fd5b505050506040513d601f19601f82011682018060405250810190610b879190611cc0565b603380546001600160a01b0319166001600160a01b0392831617905560345460408051630dfe168160e01b815290519190921691630dfe16819160048083019260209291908290030181865afa158015610be5573d6000803e3d6000fd5b505050506040513d601f19601f82011682018060405250810190610c099190611cc0565b603580546001600160a01b0319166001600160a01b039283161790556034546040805163d21220a760e01b81529051919092169163d21220a79160048083019260209291908290030181865afa158015610c67573d6000803e3d6000fd5b505050506040513d601f19601f82011682018060405250810190610c8b9190611cc0565b603680546001600160a01b0319166001600160a01b03928316179055604080516060810182524380825260006020808401828152848601838152928052603c90915292517f33d13c149959174817b07214f6faff3d4c1d39ff89c6e7f82e2df5f04c00a0ec5591517f33d13c149959174817b07214f6faff3d4c1d39ff89c6e7f82e2df5f04c00a0ed5590517f33d13c149959174817b07214f6faff3d4c1d39ff89c6e7f82e2df5f04c00a0ee55603a805463ffffffff19166001179055603955603454905163095ea7b360e01b81527310f4a785f458bc144e37065759248899549466396004820152600019602482015291169063095ea7b3906044016020604051808303816000875af1158015610da8573d6000803e3d6000fd5b505050506040513d601f19601f82011682018060405250810190610dcc9190611cdd565b5060335460405163095ea7b360e01b81527310f4a785f458bc144e3706575924889954946639600482015260001960248201526001600160a01b039091169063095ea7b3906044016020604051808303816000875af1158015610e33573d6000803e3d6000fd5b505050506040513d601f19601f82011682018060405250810190610e579190611cdd565b5060355460405163095ea7b360e01b81527310f4a785f458bc144e3706575924889954946639600482015260001960248201526001600160a01b039091169063095ea7b3906044016020604051808303816000875af1158015610ebe573d6000803e3d6000fd5b505050506040513d601f19601f82011682018060405250810190610ee29190611cdd565b5060365460405163095ea7b360e01b81527310f4a785f458bc144e3706575924889954946639600482015260001960248201526001600160a01b039091169063095ea7b3906044016020604051808303816000875af1158015610f49573d6000803e3d6000fd5b505050506040513d601f19601f82011682018060405250810190610f6d9190611cdd565b508015610fb4576000805461ff0019169055604051600181527f7f26b83ff96e1f2b6a682f133852f6798a09c465da95921460cefb38474024989060200160405180910390a15b505050565b60026001541415610fdc5760405162461bcd60e51b8152600401610226906119cf565b6002600155603d546001600160a01b0316331461100c57604051637d3781d760e11b815260040160405180910390fd5b8161102a576040516378e321a560e01b815260040160405180910390fd5b61103381611486565b6001600160a01b0381166000908152603b60205260408120805484929061105b9084906119b7565b92505081905550816037600082825461107491906119b7565b9091555050600180555050565b600260015414156110a45760405162461bcd60e51b8152600401610226906119cf565b6002600155603d546001600160a01b031633146110d457604051637d3781d760e11b815260040160405180910390fd5b826110f257604051632cd294cf60e01b815260040160405180910390fd5b6110fb82611486565b6001600160a01b0382166000908152603b60205260409020600281015484111561118e5760028101548154600091611132916119b7565b90508085111561115557604051632858f9ab60e11b815260040160405180910390fd5b61115f8582611a44565b825560028201546037548691611174916119b7565b61117e9190611a44565b60375550600060028201556111a8565b838160020160008282546111a29190611a44565b90915550505b6034546111bf906001600160a01b031683866115ab565b5050600180555050565b6001600160a01b0381166000908152603b60209081526040808320815160a08101835281548152600182015493810193909352600281015491830191909152600381015463ffffffff908116606084018190526004909201546080840152603a5416141561123b576040015192915050565b60608082015163ffffffff166000908152603c602090815260408083208151948501825280548086526001820154938601939093526002015490840152608084015161128691611a44565b83516112929190611c79565b83602001516112a191906119b7565b90506000670de0b6b3a76400008360200151836112be9190611c79565b6112c89190611a5b565b6040840151603a54919250600091670de0b6b3a76400009190603c9084906112f89060019063ffffffff16611a06565b63ffffffff1663ffffffff168152602001908152602001600020600201546113209190611a44565b865161132c9190611c79565b6113369190611a5b565b90508082866040015161134991906119b7565b61135391906119b7565b979650505050505050565b60008061136e6020840184611885565b6001600160a01b0316146113c657670de0b6b3a7640000611393602084013585611c79565b61139d9190611a5b565b905080156113c6576113c66113b56020840184611885565b6001600160a01b03861690836115ab565b9392505050565b60008054610100900460ff1615611414578160ff1660011480156113f05750303b155b61140c5760405162461bcd60e51b815260040161022690611cff565b506000919050565b60005460ff80841691161061143b5760405162461bcd60e51b815260040161022690611cff565b506000805460ff191660ff92909216919091179055600190565b600054610100900460ff1661147c5760405162461bcd60e51b815260040161022690611d4d565b6114846115fd565b565b6001600160a01b0381166000908152603b60205260409020603a54600382015463ffffffff908116911614156114ef5760048101546114c59043611a44565b81546114d19190611c79565b8160010160008282546114e491906119b7565b9091555061154b9050565b6114f8826111c9565b6002820155603a54603c906000906115189060019063ffffffff16611a06565b63ffffffff1681526020810191909152604001600020546115399043611a44565b81546115459190611c79565b60018201555b603a5460038201805463ffffffff191663ffffffff909216919091179055436004820181905560375460395490916115839190611a44565b61158d9190611c79565b6038600082825461159e91906119b7565b9091555050436039555050565b604080516001600160a01b038416602482015260448082018490528251808303909101815260649091019091526020810180516001600160e01b031663a9059cbb60e01b179052610fb490849061162a565b600054610100900460ff166116245760405162461bcd60e51b815260040161022690611d4d565b60018055565b600061167f826040518060400160405280602081526020017f5361666545524332303a206c6f772d6c6576656c2063616c6c206661696c6564815250856001600160a01b03166116fc9092919063ffffffff16565b805190915015610fb4578080602001905181019061169d9190611cdd565b610fb45760405162461bcd60e51b815260206004820152602a60248201527f5361666545524332303a204552433230206f7065726174696f6e20646964206e6044820152691bdd081cdd58d8d9595960b21b6064820152608401610226565b606061170b8484600085611713565b949350505050565b6060824710156117745760405162461bcd60e51b815260206004820152602660248201527f416464726573733a20696e73756666696369656e742062616c616e636520666f6044820152651c8818d85b1b60d21b6064820152608401610226565b6001600160a01b0385163b6117cb5760405162461bcd60e51b815260206004820152601d60248201527f416464726573733a2063616c6c20746f206e6f6e2d636f6e74726163740000006044820152606401610226565b600080866001600160a01b031685876040516117e79190611dc8565b60006040518083038185875af1925050503d8060008114611824576040519150601f19603f3d011682016040523d82523d6000602084013e611829565b606091505b5091509150611353828286606083156118435750816113c6565b8251156118535782518084602001fd5b8160405162461bcd60e51b81526004016102269190611dda565b6001600160a01b038116811461188257600080fd5b50565b60006020828403121561189757600080fd5b81356113c68161186d565b60008082840360608112156118b657600080fd5b833567ffffffffffffffff8111156118cd57600080fd5b8401604081018610156118df57600080fd5b92506040601f19820112156118f357600080fd5b506020830190509250929050565b6000806040838503121561191457600080fd5b823561191f8161186d565b9150602083013561192f8161186d565b809150509250929050565b6000806040838503121561194d57600080fd5b82359150602083013561192f8161186d565b60008060006060848603121561197457600080fd5b8335925060208401356119868161186d565b915060408401356119968161186d565b809150509250925092565b634e487b7160e01b600052601160045260246000fd5b600082198211156119ca576119ca6119a1565b500190565b6020808252601f908201527f5265656e7472616e637947756172643a207265656e7472616e742063616c6c00604082015260600190565b600063ffffffff83811690831681811015611a2357611a236119a1565b039392505050565b600060208284031215611a3d57600080fd5b5051919050565b600082821015611a5657611a566119a1565b500390565b600082611a7857634e487b7160e01b600052601260045260246000fd5b500490565b634e487b7160e01b600052603260045260246000fd5b60008235603e19833603018112611aa957600080fd5b9190910192915050565b6000808335601e19843603018112611aca57600080fd5b83018035915067ffffffffffffffff821115611ae557600080fd5b6020019150600581901b3603821315611afd57600080fd5b9250929050565b868152602080820187905260a0604083018190528201859052600090869060c08401835b88811015611b56578335611b3b8161186d565b6001600160a01b031682529282019290820190600101611b28565b506001600160a01b0396909616606085015250505060800152949350505050565b634e487b7160e01b600052604160045260246000fd5b60006020808385031215611ba057600080fd5b825167ffffffffffffffff80821115611bb857600080fd5b818501915085601f830112611bcc57600080fd5b815181811115611bde57611bde611b77565b8060051b604051601f19603f83011681018181108582111715611c0357611c03611b77565b604052918252848201925083810185019188831115611c2157600080fd5b938501935b82851015611c3f57845184529385019392850192611c26565b98975050505050505050565b600080600060608486031215611c6057600080fd5b8351925060208401519150604084015190509250925092565b6000816000190483118215151615611c9357611c936119a1565b500290565b600063ffffffff808316818516808303821115611cb757611cb76119a1565b01949350505050565b600060208284031215611cd257600080fd5b81516113c68161186d565b600060208284031215611cef57600080fd5b815180151581146113c657600080fd5b6020808252602e908201527f496e697469616c697a61626c653a20636f6e747261637420697320616c72656160408201526d191e481a5b9a5d1a585b1a5e995960921b606082015260800190565b6020808252602b908201527f496e697469616c697a61626c653a20636f6e7472616374206973206e6f74206960408201526a6e697469616c697a696e6760a81b606082015260800190565b60005b83811015611db3578181015183820152602001611d9b565b83811115611dc2576000848401525b50505050565b60008251611aa9818460208701611d98565b6020815260008251806020840152611df9816040850160208701611d98565b601f01601f1916919091016040019291505056fea26469706673582212206f12b814c3078641f0ecfebb52bdf14cb273c6a7d1a005cf576d37b0c564097964736f6c634300080a0033",
  "immutableReferences": {},
  "source": "// SPDX-License-Identifier: MIT\r\npragma solidity 0.8.10;\r\n\r\nimport './interfaces/IUnoFarmMeshswap.sol';\r\nimport \"../../interfaces/IUniswapV2Router.sol\";\r\nimport \"../../interfaces/IExchangeMeshwap.sol\";\r\nimport \"@openzeppelin/contracts-upgradeable/security/ReentrancyGuardUpgradeable.sol\";\r\nimport \"@openzeppelin/contracts/token/ERC20/utils/SafeERC20.sol\";\r\nimport \"@openzeppelin/contracts-upgradeable/token/ERC20/IERC20Upgradeable.sol\";\r\nimport \"@openzeppelin/contracts-upgradeable/proxy/utils/Initializable.sol\";\r\n\r\ncontract UnoFarmMeshswap is Initializable, ReentrancyGuardUpgradeable, IUnoFarmMeshswap  {\r\n    using SafeERC20 for IERC20;\r\n\t/**\r\n\t * @dev Tokens Used:\r\n\t * {rewardToken} - Token generated by staking (MESH).\r\n\t * {rewarderToken} - Token generated by ComplexRewarderTime contract.\r\n\t * {lpPool} - Token that the strategy maximizes.\r\n\t * {tokenA, tokenB} - Tokens that the strategy maximizes.\r\n\t */\r\n\taddress public rewardToken;\r\n\taddress public lpPool;\r\n\taddress public tokenA;\r\n\taddress public tokenB;\r\n\r\n\t/**\r\n\t * @dev Third Party Contracts:\r\n\t * {MeshswapRouter} - The contract that executes swaps.\r\n\t */\r\n\tIUniswapV2Router01 private constant MeshswapRouter = IUniswapV2Router01(0x10f4A785F458Bc144e3706575924889954946639);\r\n\r\n\t/**\r\n     * @dev Contract Variables:\r\n\r\n     * {totalDeposits} - Total deposits made by users.\r\n     * {totalDepositAge} - Deposits multiplied by blocks the deposit has been in. Flushed every reward distribution.\r\n     * {totalDepositLastUpdate} - Last {totalDepositAge} update block.\r\n\r\n     * {distributionID} - Current distribution ID.\r\n     * {userInfo} - Info on each user.\r\n     * {distributionInfo} - Info on each distribution.\r\n\r\n     * {fractionMultiplier} - Used to store decimal values.\r\n     */\r\n\tuint256 private totalDeposits;\r\n\tuint256 private totalDepositAge;\r\n\tuint256 private totalDepositLastUpdate;\r\n\r\n\tuint32 private distributionID;\r\n\tmapping(address => UserInfo) private userInfo;\r\n\tmapping(uint32 => DistributionInfo) private distributionInfo;\r\n\r\n\tuint256 private constant fractionMultiplier = uint256(1 ether);\r\n\r\n\t/**\r\n\t * @dev Contract Variables:\r\n\t * {assetRouter} - The contract from which calls to this farm are made.\r\n\t */\r\n\taddress public assetRouter;\r\n\tmodifier onlyAssetRouter() {\r\n\t\tif(msg.sender != assetRouter) revert CALLER_NOT_ASSET_ROUTER();\r\n\t\t_;\r\n\t}\r\n\r\n\t// ============ Methods ============\r\n\r\n\tfunction initialize(address _lpPool, address _assetRouter) external initializer {\r\n        if(_lpPool == address(0)) revert INVALID_LP_POOL();\r\n        if(_assetRouter == address(0)) revert INVALID_ASSET_ROUTER();\r\n\r\n\t\t__ReentrancyGuard_init();\r\n\t\tassetRouter = _assetRouter;\r\n\r\n\t\tlpPool = _lpPool;\r\n\r\n\t\trewardToken = IExchangeMeshwap(_lpPool).mesh();\r\n\t\ttokenA = IExchangeMeshwap(lpPool).token0();\r\n\t\ttokenB = IExchangeMeshwap(lpPool).token1();\r\n\r\n\t\tdistributionInfo[0] = DistributionInfo({\r\n\t\t\tblock: block.number,\r\n\t\t\trewardPerDepositAge: 0,\r\n\t\t\tcumulativeRewardAgePerDepositAge: 0\r\n\t\t});\r\n\t\tdistributionID = 1;\r\n\t\ttotalDepositLastUpdate = block.number;\r\n\r\n\t\tIERC20(lpPool).approve(address(MeshswapRouter), type(uint256).max);\r\n\t\tIERC20(rewardToken).approve(address(MeshswapRouter), type(uint256).max);\r\n\t\tIERC20(tokenA).approve(address(MeshswapRouter), type(uint256).max);\r\n\t\tIERC20(tokenB).approve(address(MeshswapRouter), type(uint256).max);\r\n\t}\r\n\r\n\t/**\r\n\t * @dev Function that makes the deposits.\r\n\t * Stakes {amount} of LP tokens from this contract's balance .\r\n\t */\r\n\tfunction deposit(uint256 amount, address recipient) external nonReentrant onlyAssetRouter{\r\n        if(amount == 0) revert NO_LIQUIDITY_PROVIDED();\r\n\r\n        _updateDeposit(recipient);\r\n        userInfo[recipient].stake += amount;\r\n        totalDeposits += amount;\r\n\t}\r\n\r\n\t/**\r\n     * @dev Withdraws funds from {origin} and sends them to the {recipient}.\r\n     */\r\n    function withdraw(uint256 amount, address origin, address recipient) external nonReentrant onlyAssetRouter{\r\n        if(amount == 0) revert INSUFFICIENT_AMOUNT();\r\n\r\n        _updateDeposit(origin);\r\n        UserInfo storage user = userInfo[origin];\r\n        // Subtract amount from user.reward first, then subtract remainder from user.stake.\r\n        if(amount > user.reward){\r\n            uint256 balance = user.stake + user.reward;\r\n            if(amount > balance) revert INSUFFICIENT_BALANCE();\r\n\t\t\t\r\n            user.stake = balance - amount;\r\n            totalDeposits = totalDeposits + user.reward - amount;\r\n            user.reward = 0;\r\n        } else {\r\n            user.reward -= amount;\r\n        }\r\n\r\n\t\tIERC20(lpPool).safeTransfer(recipient, amount);\r\n    }\r\n\r\n\t/**\r\n\t * @dev Core function of the strat, in charge of updating, collecting and re-investing rewards.\r\n\t * 1. It claims rewards from the {IExchangeMeshwap}.\r\n\t * 2. It swaps {rewardToken} token for {tokenA} & {tokenB}.\r\n\t * 3. It deposits new LP tokens back to the {IExchangeMeshwap}.\r\n\t */\r\n\tfunction distribute(\r\n\t\tSwapInfo[2] calldata swapInfos,\r\n\t\tFeeInfo calldata feeInfo\r\n\t) external onlyAssetRouter nonReentrant returns (uint256 reward) {\r\n        if(totalDeposits == 0) revert NO_LIQUIDITY();\r\n\t\tif(distributionInfo[distributionID - 1].block == block.number) revert CALL_ON_THE_SAME_BLOCK();\r\n\r\n\t\tIExchangeMeshwap(lpPool).claimReward();\r\n\r\n\t\tuint256 balance = IERC20(rewardToken).balanceOf(address(this));\r\n\t\tbalance -= _collectFees(IERC20(rewardToken), balance, feeInfo);\r\n\t\tuint256 rewardTokenHalf = balance / 2;\r\n\t\tif (tokenA != rewardToken) {\r\n\t\t\taddress[] calldata route = swapInfos[0].route;\r\n\t\t\tif(route[0] != rewardToken || route[route.length - 1] != tokenA) revert INVALID_ROUTE(rewardToken, tokenA);\r\n\t\t\tMeshswapRouter.swapExactTokensForTokens(rewardTokenHalf, swapInfos[0].amountOutMin, route, address(this), block.timestamp);\r\n\t\t}\r\n\r\n\t\tif (tokenB != rewardToken) {\r\n\t\t\taddress[] calldata route = swapInfos[1].route;\r\n \t\t\tif(route[0] != rewardToken || route[route.length - 1] != tokenB) revert INVALID_ROUTE(rewardToken, tokenB);\r\n\t\t\tMeshswapRouter.swapExactTokensForTokens(rewardTokenHalf, swapInfos[1].amountOutMin, route, address(this), block.timestamp);\r\n\t\t}\r\n\r\n\t\t(,,reward) = MeshswapRouter.addLiquidity(tokenA, tokenB, IERC20(tokenA).balanceOf(address(this)), IERC20(tokenB).balanceOf(address(this)), swapInfos[0].amountOutMin, swapInfos[1].amountOutMin, address(this), block.timestamp);\r\n\r\n\t\tuint256 rewardPerDepositAge = reward * fractionMultiplier / (totalDepositAge + totalDeposits * (block.number - totalDepositLastUpdate));\r\n\t\tuint256 cumulativeRewardAgePerDepositAge = distributionInfo[distributionID - 1].cumulativeRewardAgePerDepositAge + rewardPerDepositAge * (block.number - distributionInfo[distributionID - 1].block);\r\n\r\n\t\tdistributionInfo[distributionID] = DistributionInfo({\r\n\t\t\tblock: block.number,\r\n\t\t\trewardPerDepositAge: rewardPerDepositAge,\r\n\t\t\tcumulativeRewardAgePerDepositAge: cumulativeRewardAgePerDepositAge\r\n\t\t});\r\n\r\n\t\tdistributionID += 1;\r\n\t\ttotalDepositLastUpdate = block.number;\r\n\t\ttotalDepositAge = 0;\r\n\t}\r\n\r\n    /**\r\n\t * @dev Sends fees to feeTo.\r\n\t */\r\n\tfunction _collectFees(IERC20 token, uint256 balance, FeeInfo calldata feeInfo) internal returns(uint256 feeAmount) {\r\n\t\tif (feeInfo.feeTo != address(0)) {\r\n\t\t\tfeeAmount = balance * feeInfo.fee / fractionMultiplier;\r\n\t\t\tif (feeAmount > 0) {\r\n\t\t\t\ttoken.safeTransfer(feeInfo.feeTo, feeAmount);\r\n\t\t\t}\r\n\t\t}\r\n\t}\r\n\r\n\t/**\r\n\t * @dev Returns total funds staked by the {_address}.\r\n\t */\r\n\tfunction userBalance(address _address) external view returns (uint256) {\r\n\t\treturn userInfo[_address].stake + _userReward(_address);\r\n\t}\r\n\r\n\t/**\r\n\t * @dev Returns total funds locked in the farm.\r\n\t */\r\n\tfunction getTotalDeposits() external view returns (uint256 _totalDeposits) {\r\n\t\tif (totalDeposits > 0) {\r\n\t\t\t_totalDeposits = IExchangeMeshwap(lpPool).balanceOf(address(this));\r\n\t\t}\r\n\t}\r\n\r\n\tfunction _updateDeposit(address _address) internal {\r\n\t\tUserInfo storage user = userInfo[_address];\r\n\t\t// Accumulate deposit age within the current distribution period.\r\n\t\tif (user.lastDistribution == distributionID) {\r\n\t\t\t// Add deposit age from previous deposit age update to now.\r\n\t\t\tuser.depositAge += user.stake * (block.number - user.lastUpdate);\r\n\t\t} else {\r\n\t\t\t// A reward has been distributed, update user.reward.\r\n\t\t\tuser.reward = _userReward(_address);\r\n\t\t\t// Count fresh deposit age from previous reward distribution to now.\r\n\t\t\tuser.depositAge = user.stake * (block.number - distributionInfo[distributionID - 1].block);\r\n\t\t}\r\n\r\n\t\tuser.lastDistribution = distributionID;\r\n\t\tuser.lastUpdate = block.number;\r\n\r\n\t\t// Same with total deposit age.\r\n\t\ttotalDepositAge += (block.number - totalDepositLastUpdate) * totalDeposits;\r\n\t\ttotalDepositLastUpdate = block.number;\r\n\t}\r\n\r\n    function _userReward(address _address) internal view returns (uint256) {\r\n        UserInfo memory user = userInfo[_address];\r\n        if (user.lastDistribution == distributionID) {\r\n            // Return user.reward if the distribution after the last user deposit did not happen yet.\r\n            return user.reward;\r\n        }\r\n        DistributionInfo memory lastUserDistributionInfo = distributionInfo[user.lastDistribution];\r\n        uint256 userDepositAge = user.depositAge + user.stake * (lastUserDistributionInfo.block - user.lastUpdate);\r\n        // Calculate reward between the last user deposit and the distribution after that.\r\n        uint256 rewardBeforeDistibution = userDepositAge * lastUserDistributionInfo.rewardPerDepositAge / fractionMultiplier;\r\n        // Calculate reward from the distributions that have happened after the last user deposit.\r\n        uint256 rewardAfterDistribution = user.stake * (distributionInfo[distributionID - 1].cumulativeRewardAgePerDepositAge - lastUserDistributionInfo.cumulativeRewardAgePerDepositAge) / fractionMultiplier;\r\n        return user.reward + rewardBeforeDistibution + rewardAfterDistribution;\r\n    }\r\n}\r\n",
  "sourcePath": "C:\\Users\\jugli\\Desktop\\uno\\uno-contracts\\contracts\\apps\\meshswap\\UnoFarmMeshswap.sol",
  "compiler": {
    "name": "solc",
    "version": "0.8.10+commit.fc410830.Emscripten.clang"
  },
  "schemaVersion": "3.4.13",
  "updatedAt": "2023-06-19T11:50:06.205Z",
  "devdoc": {
    "kind": "dev",
    "methods": {
      "deposit(uint256,address)": {
        "details": "Function that makes the deposits. Stakes {amount} of LP tokens from this contract's balance ."
      },
      "distribute((address[],uint256)[2],(address,uint256))": {
        "details": "Core function of the strat, in charge of updating, collecting and re-investing rewards. 1. It claims rewards from the {IExchangeMeshwap}. 2. It swaps {rewardToken} token for {tokenA} & {tokenB}. 3. It deposits new LP tokens back to the {IExchangeMeshwap}."
      },
      "getTotalDeposits()": {
        "details": "Returns total funds locked in the farm."
      },
      "userBalance(address)": {
        "details": "Returns total funds staked by the {_address}."
      },
      "withdraw(uint256,address,address)": {
        "details": "Withdraws funds from {origin} and sends them to the {recipient}."
      }
    },
    "stateVariables": {
      "MeshswapRouter": {
        "details": "Third Party Contracts: {MeshswapRouter} - The contract that executes swaps."
      },
      "assetRouter": {
        "details": "Contract Variables: {assetRouter} - The contract from which calls to this farm are made."
      },
      "rewardToken": {
        "details": "Tokens Used: {rewardToken} - Token generated by staking (MESH). {rewarderToken} - Token generated by ComplexRewarderTime contract. {lpPool} - Token that the strategy maximizes. {tokenA, tokenB} - Tokens that the strategy maximizes."
      },
      "totalDeposits": {
        "details": "Contract Variables: {totalDeposits} - Total deposits made by users. {totalDepositAge} - Deposits multiplied by blocks the deposit has been in. Flushed every reward distribution. {totalDepositLastUpdate} - Last {totalDepositAge} update block. {distributionID} - Current distribution ID. {userInfo} - Info on each user. {distributionInfo} - Info on each distribution. {fractionMultiplier} - Used to store decimal values."
      }
    },
    "version": 1
  },
  "userdoc": {
    "kind": "user",
    "methods": {},
    "version": 1
  }
}