{
  "contractName": "UnoFarmPancakeswap",
  "abi": [
    {
      "inputs": [],
      "name": "CALLER_NOT_ASSET_ROUTER",
      "type": "error"
    },
    {
      "inputs": [],
      "name": "CALL_ON_THE_SAME_BLOCK",
      "type": "error"
    },
    {
      "inputs": [],
      "name": "INSUFFICIENT_AMOUNT",
      "type": "error"
    },
    {
      "inputs": [],
      "name": "INSUFFICIENT_BALANCE",
      "type": "error"
    },
    {
      "inputs": [],
      "name": "INVALID_ASSET_ROUTER",
      "type": "error"
    },
    {
      "inputs": [],
      "name": "INVALID_LP_POOL",
      "type": "error"
    },
    {
      "inputs": [
        {
          "internalType": "address",
          "name": "fromToken",
          "type": "address"
        },
        {
          "internalType": "address",
          "name": "toToken",
          "type": "address"
        }
      ],
      "name": "INVALID_ROUTE",
      "type": "error"
    },
    {
      "inputs": [],
      "name": "NO_LIQUIDITY",
      "type": "error"
    },
    {
      "inputs": [],
      "name": "NO_LIQUIDITY_PROVIDED",
      "type": "error"
    },
    {
      "inputs": [],
      "name": "PID_NOT_EXISTS",
      "type": "error"
    },
    {
      "anonymous": false,
      "inputs": [
        {
          "indexed": false,
          "internalType": "uint8",
          "name": "version",
          "type": "uint8"
        }
      ],
      "name": "Initialized",
      "type": "event"
    },
    {
      "inputs": [],
      "name": "assetRouter",
      "outputs": [
        {
          "internalType": "address",
          "name": "",
          "type": "address"
        }
      ],
      "stateMutability": "view",
      "type": "function"
    },
    {
      "inputs": [],
      "name": "lpPool",
      "outputs": [
        {
          "internalType": "address",
          "name": "",
          "type": "address"
        }
      ],
      "stateMutability": "view",
      "type": "function"
    },
    {
      "inputs": [],
      "name": "pid",
      "outputs": [
        {
          "internalType": "uint256",
          "name": "",
          "type": "uint256"
        }
      ],
      "stateMutability": "view",
      "type": "function"
    },
    {
      "inputs": [],
      "name": "rewardToken",
      "outputs": [
        {
          "internalType": "address",
          "name": "",
          "type": "address"
        }
      ],
      "stateMutability": "view",
      "type": "function"
    },
    {
      "inputs": [],
      "name": "tokenA",
      "outputs": [
        {
          "internalType": "address",
          "name": "",
          "type": "address"
        }
      ],
      "stateMutability": "view",
      "type": "function"
    },
    {
      "inputs": [],
      "name": "tokenB",
      "outputs": [
        {
          "internalType": "address",
          "name": "",
          "type": "address"
        }
      ],
      "stateMutability": "view",
      "type": "function"
    },
    {
      "inputs": [
        {
          "internalType": "address",
          "name": "_lpPool",
          "type": "address"
        },
        {
          "internalType": "address",
          "name": "_assetRouter",
          "type": "address"
        }
      ],
      "name": "initialize",
      "outputs": [],
      "stateMutability": "nonpayable",
      "type": "function"
    },
    {
      "inputs": [
        {
          "internalType": "uint256",
          "name": "amount",
          "type": "uint256"
        },
        {
          "internalType": "address",
          "name": "recipient",
          "type": "address"
        }
      ],
      "name": "deposit",
      "outputs": [],
      "stateMutability": "nonpayable",
      "type": "function"
    },
    {
      "inputs": [
        {
          "internalType": "uint256",
          "name": "amount",
          "type": "uint256"
        },
        {
          "internalType": "address",
          "name": "origin",
          "type": "address"
        },
        {
          "internalType": "address",
          "name": "recipient",
          "type": "address"
        }
      ],
      "name": "withdraw",
      "outputs": [],
      "stateMutability": "nonpayable",
      "type": "function"
    },
    {
      "inputs": [
        {
          "components": [
            {
              "internalType": "address[]",
              "name": "route",
              "type": "address[]"
            },
            {
              "internalType": "uint256",
              "name": "amountOutMin",
              "type": "uint256"
            }
          ],
          "internalType": "struct IUnoFarm.SwapInfo[2]",
          "name": "swapInfos",
          "type": "tuple[2]"
        },
        {
          "components": [
            {
              "internalType": "address",
              "name": "feeTo",
              "type": "address"
            },
            {
              "internalType": "uint256",
              "name": "fee",
              "type": "uint256"
            }
          ],
          "internalType": "struct IUnoFarm.FeeInfo",
          "name": "feeInfo",
          "type": "tuple"
        }
      ],
      "name": "distribute",
      "outputs": [
        {
          "internalType": "uint256",
          "name": "reward",
          "type": "uint256"
        }
      ],
      "stateMutability": "nonpayable",
      "type": "function"
    },
    {
      "inputs": [
        {
          "internalType": "address",
          "name": "_address",
          "type": "address"
        }
      ],
      "name": "userBalance",
      "outputs": [
        {
          "internalType": "uint256",
          "name": "",
          "type": "uint256"
        }
      ],
      "stateMutability": "view",
      "type": "function"
    },
    {
      "inputs": [],
      "name": "getTotalDeposits",
      "outputs": [
        {
          "internalType": "uint256",
          "name": "_totalDeposits",
          "type": "uint256"
        }
      ],
      "stateMutability": "view",
      "type": "function"
    }
  ],
  "bytecode": "0x608060405234801561001057600080fd5b50612261806100206000396000f3fe608060405234801561001057600080fd5b50600436106100b45760003560e01c80635f64b55b116100715780635f64b55b1461014d5780636e553f6514610160578063b460af9414610173578063bc0aac1014610186578063f106845414610199578063f7c618c1146101a257600080fd5b80630103c92b146100b957806309505567146100df5780630fc63d10146100f2578063168a48221461011d5780633737bcb414610125578063485cc95514610138575b600080fd5b6100cc6100c7366004611c13565b6101b5565b6040519081526020015b60405180910390f35b6100cc6100ed366004611c30565b6101e9565b603554610105906001600160a01b031681565b6040516001600160a01b0390911681526020016100d6565b6100cc610a96565b603454610105906001600160a01b031681565b61014b610146366004611c8f565b610b26565b005b603654610105906001600160a01b031681565b61014b61016e366004611cc8565b611113565b61014b610181366004611ced565b61124b565b603e54610105906001600160a01b031681565b6100cc60375481565b603354610105906001600160a01b031681565b60006101c082611404565b6001600160a01b0383166000908152603c60205260409020546101e39190611d45565b92915050565b603e546000906001600160a01b0316331461021757604051637d3781d760e11b815260040160405180910390fd5b600260015414156102435760405162461bcd60e51b815260040161023a90611d5d565b60405180910390fd5b60026001556038546102685760405163f58c8f9160e01b815260040160405180910390fd5b603b544390603d906000906102859060019063ffffffff16611d94565b63ffffffff16815260208101919091526040016000205414156102bb5760405163fa2a2d8760e01b815260040160405180910390fd5b603754604051630441a3e760e41b815260048101919091526000602482015273a5f8c5dbd5f286960b9d90548680ae5ebff076529063441a3e7090604401600060405180830381600087803b15801561031357600080fd5b505af1158015610327573d6000803e3d6000fd5b50506033546040516370a0823160e01b8152306004820152600093506001600160a01b0390911691506370a0823190602401602060405180830381865afa158015610376573d6000803e3d6000fd5b505050506040513d601f19601f8201168201806040525081019061039a9190611db9565b6033549091506103b4906001600160a01b03168285611599565b6103be9082611dd2565b905060006103cd600283611de9565b6033546035549192506001600160a01b03918216911614610560573660006103f58780611e21565b6103ff9080611e41565b60335491935091506001600160a01b0316828260008161042157610421611e0b565b90506020020160208101906104369190611c13565b6001600160a01b031614158061049057506035546001600160a01b03168282610460600182611dd2565b81811061046f5761046f611e0b565b90506020020160208101906104849190611c13565b6001600160a01b031614155b156104c75760335460355460405163756cc24d60e11b81526001600160a01b0392831660048201529116602482015260440161023a565b7310ed43c718714eb63d5aa57b78b54704e256024e6338ed1739846104ec8a80611e21565b60200135858530426040518763ffffffff1660e01b815260040161051596959493929190611e92565b6000604051808303816000875af1158015610534573d6000803e3d6000fd5b505050506040513d6000823e601f3d908101601f1916820160405261055c9190810190611f4c565b5050505b6033546036546001600160a01b039081169116146106f6573660006105886020880188611e21565b6105929080611e41565b60335491935091506001600160a01b031682826000816105b4576105b4611e0b565b90506020020160208101906105c99190611c13565b6001600160a01b031614158061062357506036546001600160a01b031682826105f3600182611dd2565b81811061060257610602611e0b565b90506020020160208101906106179190611c13565b6001600160a01b031614155b1561065a5760335460365460405163756cc24d60e11b81526001600160a01b0392831660048201529116602482015260440161023a565b7310ed43c718714eb63d5aa57b78b54704e256024e6338ed17398461068260208b018b611e21565b60200135858530426040518763ffffffff1660e01b81526004016106ab96959493929190611e92565b6000604051808303816000875af11580156106ca573d6000803e3d6000fd5b505050506040513d6000823e601f3d908101601f191682016040526106f29190810190611f4c565b5050505b6035546036546040516370a0823160e01b81523060048201527310ed43c718714eb63d5aa57b78b54704e256024e9263e8e33700926001600160a01b039182169291169082906370a0823190602401602060405180830381865afa158015610762573d6000803e3d6000fd5b505050506040513d601f19601f820116820180604052508101906107869190611db9565b6036546040516370a0823160e01b81523060048201526001600160a01b03909116906370a0823190602401602060405180830381865afa1580156107ce573d6000803e3d6000fd5b505050506040513d601f19601f820116820180604052508101906107f29190611db9565b6107fc8b80611e21565b6020908101359061080f908d018d611e21565b6040516001600160e01b031960e089901b1681526001600160a01b0396871660048201529590941660248601526044850192909252606484015260848301526020013560a48201523060c48201524260e4820152610104016060604051808303816000875af1158015610886573d6000803e3d6000fd5b505050506040513d601f19601f820116820180604052508101906108aa9190611ff2565b603a54909550600092506108bf915043611dd2565b6038546108cc9190612020565b6039546108d99190611d45565b6108eb670de0b6b3a764000086612020565b6108f59190611de9565b603b54909150600090603d9082906109159060019063ffffffff16611d94565b63ffffffff1681526020810191909152604001600020546109369043611dd2565b6109409083612020565b603b54603d9060009061095b9060019063ffffffff16611d94565b63ffffffff1663ffffffff168152602001908152602001600020600201546109839190611d45565b604080516060810182524381526020808201868152828401858152603b805463ffffffff9081166000908152603d909552958420945185559151600185810191909155905160029094019390935580549495509193919290916109e89185911661203f565b825463ffffffff9182166101009390930a92830291909202199091161790555043603a556000603955603754604051631c57762b60e31b815273a5f8c5dbd5f286960b9d90548680ae5ebff076529163e2bbb15891610a5591908990600401918252602082015260400190565b600060405180830381600087803b158015610a6f57600080fd5b505af1158015610a83573d6000803e3d6000fd5b5050600180555094979650505050505050565b60385460009015610b23576037546040516393f1a40b60e01b8152600481019190915230602482015273a5f8c5dbd5f286960b9d90548680ae5ebff07652906393f1a40b90604401606060405180830381865afa158015610afb573d6000803e3d6000fd5b505050506040513d601f19601f82011682018060405250810190610b1f9190612067565b5190505b90565b6000610b326001611608565b90508015610b4a576000805461ff0019166101001790555b6001600160a01b038316610b7157604051635309c5cf60e01b815260040160405180910390fd5b6001600160a01b038216610b9857604051630c17c11560e41b815260040160405180910390fd5b610ba0611690565b603e80546001600160a01b0319166001600160a01b038416179055610bc4836116c1565b603755603480546001600160a01b0319166001600160a01b03851617905560408051630994dde560e31b8152905173a5f8c5dbd5f286960b9d90548680ae5ebff0765291634ca6ef289160048083019260209291908290030181865afa158015610c32573d6000803e3d6000fd5b505050506040513d601f19601f82011682018060405250810190610c5691906120c3565b603380546001600160a01b0319166001600160a01b0392831617905560345460408051630dfe168160e01b815290519190921691630dfe16819160048083019260209291908290030181865afa158015610cb4573d6000803e3d6000fd5b505050506040513d601f19601f82011682018060405250810190610cd891906120c3565b603580546001600160a01b0319166001600160a01b039283161790556034546040805163d21220a760e01b81529051919092169163d21220a79160048083019260209291908290030181865afa158015610d36573d6000803e3d6000fd5b505050506040513d601f19601f82011682018060405250810190610d5a91906120c3565b603680546001600160a01b0319166001600160a01b03928316179055604080516060810182524380825260006020808401828152848601838152928052603d90915292517fb4447350905ade30fbbf16eb128316f54a45abd6b02d89811edf7bbf0bb1ba7c5591517fb4447350905ade30fbbf16eb128316f54a45abd6b02d89811edf7bbf0bb1ba7d5590517fb4447350905ade30fbbf16eb128316f54a45abd6b02d89811edf7bbf0bb1ba7e55603b805463ffffffff19166001179055603a55603454905163095ea7b360e01b815273a5f8c5dbd5f286960b9d90548680ae5ebff076526004820152600019602482015291169063095ea7b3906044016020604051808303816000875af1158015610e77573d6000803e3d6000fd5b505050506040513d601f19601f82011682018060405250810190610e9b91906120e0565b5060345460405163095ea7b360e01b81527310ed43c718714eb63d5aa57b78b54704e256024e600482015260001960248201526001600160a01b039091169063095ea7b3906044016020604051808303816000875af1158015610f02573d6000803e3d6000fd5b505050506040513d601f19601f82011682018060405250810190610f2691906120e0565b5060335460405163095ea7b360e01b81527310ed43c718714eb63d5aa57b78b54704e256024e600482015260001960248201526001600160a01b039091169063095ea7b3906044016020604051808303816000875af1158015610f8d573d6000803e3d6000fd5b505050506040513d601f19601f82011682018060405250810190610fb191906120e0565b5060355460405163095ea7b360e01b81527310ed43c718714eb63d5aa57b78b54704e256024e600482015260001960248201526001600160a01b039091169063095ea7b3906044016020604051808303816000875af1158015611018573d6000803e3d6000fd5b505050506040513d601f19601f8201168201806040525081019061103c91906120e0565b5060365460405163095ea7b360e01b81527310ed43c718714eb63d5aa57b78b54704e256024e600482015260001960248201526001600160a01b039091169063095ea7b3906044016020604051808303816000875af11580156110a3573d6000803e3d6000fd5b505050506040513d601f19601f820116820180604052508101906110c791906120e0565b50801561110e576000805461ff0019169055604051600181527f7f26b83ff96e1f2b6a682f133852f6798a09c465da95921460cefb38474024989060200160405180910390a15b505050565b600260015414156111365760405162461bcd60e51b815260040161023a90611d5d565b6002600155603e546001600160a01b0316331461116657604051637d3781d760e11b815260040160405180910390fd5b81611184576040516378e321a560e01b815260040160405180910390fd5b61118d81611814565b6001600160a01b0381166000908152603c6020526040812080548492906111b5908490611d45565b9250508190555081603860008282546111ce9190611d45565b9091555050603754604051631c57762b60e31b815260048101919091526024810183905273a5f8c5dbd5f286960b9d90548680ae5ebff076529063e2bbb15890604401600060405180830381600087803b15801561122b57600080fd5b505af115801561123f573d6000803e3d6000fd5b50506001805550505050565b6002600154141561126e5760405162461bcd60e51b815260040161023a90611d5d565b6002600155603e546001600160a01b0316331461129e57604051637d3781d760e11b815260040160405180910390fd5b826112bc57604051632cd294cf60e01b815260040160405180910390fd5b6112c582611814565b6001600160a01b0382166000908152603c60205260409020600281015484111561135857600281015481546000916112fc91611d45565b90508085111561131f57604051632858f9ab60e11b815260040160405180910390fd5b6113298582611dd2565b82556002820154603854869161133e91611d45565b6113489190611dd2565b6038555060006002820155611372565b8381600201600082825461136c9190611dd2565b90915550505b603754604051630441a3e760e41b815260048101919091526024810185905273a5f8c5dbd5f286960b9d90548680ae5ebff076529063441a3e7090604401600060405180830381600087803b1580156113ca57600080fd5b505af11580156113de573d6000803e3d6000fd5b50506034546113fa92506001600160a01b031690508386611939565b5050600180555050565b6001600160a01b0381166000908152603c60209081526040808320815160a08101835281548152600182015493810193909352600281015491830191909152600381015463ffffffff908116606084018190526004909201546080840152603b54161415611476576040015192915050565b60608082015163ffffffff166000908152603d60209081526040808320815194850182528054808652600182015493860193909352600201549084015260808401516114c191611dd2565b83516114cd9190612020565b83602001516114dc9190611d45565b90506000670de0b6b3a76400008360200151836114f99190612020565b6115039190611de9565b6040840151603b54919250600091670de0b6b3a76400009190603d9084906115339060019063ffffffff16611d94565b63ffffffff1663ffffffff1681526020019081526020016000206002015461155b9190611dd2565b86516115679190612020565b6115719190611de9565b9050808286604001516115849190611d45565b61158e9190611d45565b979650505050505050565b6000806115a96020840184611c13565b6001600160a01b03161461160157670de0b6b3a76400006115ce602084013585612020565b6115d89190611de9565b90508015611601576116016115f06020840184611c13565b6001600160a01b0386169083611939565b9392505050565b60008054610100900460ff161561164f578160ff16600114801561162b5750303b155b6116475760405162461bcd60e51b815260040161023a90612102565b506000919050565b60005460ff8084169116106116765760405162461bcd60e51b815260040161023a90612102565b506000805460ff191660ff92909216919091179055600190565b600054610100900460ff166116b75760405162461bcd60e51b815260040161023a90612150565b6116bf61198b565b565b600080805b73a5f8c5dbd5f286960b9d90548680ae5ebff076526001600160a01b031663081e3eda6040518163ffffffff1660e01b8152600401602060405180830381865afa158015611718573d6000803e3d6000fd5b505050506040513d601f19601f8201168201806040525081019061173c9190611db9565b8110156117ef576040516378ed5d1f60e01b8152600481018290526001600160a01b0385169073a5f8c5dbd5f286960b9d90548680ae5ebff07652906378ed5d1f90602401602060405180830381865afa15801561179e573d6000803e3d6000fd5b505050506040513d601f19601f820116820180604052508101906117c291906120c3565b6001600160a01b031614156117dd57809250600191506117ef565b806117e78161219b565b9150506116c6565b508061180e576040516316525c6160e31b815260040160405180910390fd5b50919050565b6001600160a01b0381166000908152603c60205260409020603b54600382015463ffffffff9081169116141561187d5760048101546118539043611dd2565b815461185f9190612020565b8160010160008282546118729190611d45565b909155506118d99050565b61188682611404565b6002820155603b54603d906000906118a69060019063ffffffff16611d94565b63ffffffff1681526020810191909152604001600020546118c79043611dd2565b81546118d39190612020565b60018201555b603b5460038201805463ffffffff191663ffffffff9092169190911790554360048201819055603854603a5490916119119190611dd2565b61191b9190612020565b6039600082825461192c9190611d45565b909155505043603a555050565b604080516001600160a01b038416602482015260448082018490528251808303909101815260649091019091526020810180516001600160e01b031663a9059cbb60e01b17905261110e9084906119b8565b600054610100900460ff166119b25760405162461bcd60e51b815260040161023a90612150565b60018055565b6000611a0d826040518060400160405280602081526020017f5361666545524332303a206c6f772d6c6576656c2063616c6c206661696c6564815250856001600160a01b0316611a8a9092919063ffffffff16565b80519091501561110e5780806020019051810190611a2b91906120e0565b61110e5760405162461bcd60e51b815260206004820152602a60248201527f5361666545524332303a204552433230206f7065726174696f6e20646964206e6044820152691bdd081cdd58d8d9595960b21b606482015260840161023a565b6060611a998484600085611aa1565b949350505050565b606082471015611b025760405162461bcd60e51b815260206004820152602660248201527f416464726573733a20696e73756666696369656e742062616c616e636520666f6044820152651c8818d85b1b60d21b606482015260840161023a565b6001600160a01b0385163b611b595760405162461bcd60e51b815260206004820152601d60248201527f416464726573733a2063616c6c20746f206e6f6e2d636f6e7472616374000000604482015260640161023a565b600080866001600160a01b03168587604051611b7591906121e6565b60006040518083038185875af1925050503d8060008114611bb2576040519150601f19603f3d011682016040523d82523d6000602084013e611bb7565b606091505b509150915061158e82828660608315611bd1575081611601565b825115611be15782518084602001fd5b8160405162461bcd60e51b815260040161023a91906121f8565b6001600160a01b0381168114611c1057600080fd5b50565b600060208284031215611c2557600080fd5b813561160181611bfb565b6000808284036060811215611c4457600080fd5b833567ffffffffffffffff811115611c5b57600080fd5b840160408101861015611c6d57600080fd5b92506040601f1982011215611c8157600080fd5b506020830190509250929050565b60008060408385031215611ca257600080fd5b8235611cad81611bfb565b91506020830135611cbd81611bfb565b809150509250929050565b60008060408385031215611cdb57600080fd5b823591506020830135611cbd81611bfb565b600080600060608486031215611d0257600080fd5b833592506020840135611d1481611bfb565b91506040840135611d2481611bfb565b809150509250925092565b634e487b7160e01b600052601160045260246000fd5b60008219821115611d5857611d58611d2f565b500190565b6020808252601f908201527f5265656e7472616e637947756172643a207265656e7472616e742063616c6c00604082015260600190565b600063ffffffff83811690831681811015611db157611db1611d2f565b039392505050565b600060208284031215611dcb57600080fd5b5051919050565b600082821015611de457611de4611d2f565b500390565b600082611e0657634e487b7160e01b600052601260045260246000fd5b500490565b634e487b7160e01b600052603260045260246000fd5b60008235603e19833603018112611e3757600080fd5b9190910192915050565b6000808335601e19843603018112611e5857600080fd5b83018035915067ffffffffffffffff821115611e7357600080fd5b6020019150600581901b3603821315611e8b57600080fd5b9250929050565b868152602080820187905260a0604083018190528201859052600090869060c08401835b88811015611ee4578335611ec981611bfb565b6001600160a01b031682529282019290820190600101611eb6565b506001600160a01b0396909616606085015250505060800152949350505050565b634e487b7160e01b600052604160045260246000fd5b604051601f8201601f1916810167ffffffffffffffff81118282101715611f4457611f44611f05565b604052919050565b60006020808385031215611f5f57600080fd5b825167ffffffffffffffff80821115611f7757600080fd5b818501915085601f830112611f8b57600080fd5b815181811115611f9d57611f9d611f05565b8060051b9150611fae848301611f1b565b8181529183018401918481019088841115611fc857600080fd5b938501935b83851015611fe657845182529385019390850190611fcd565b98975050505050505050565b60008060006060848603121561200757600080fd5b8351925060208401519150604084015190509250925092565b600081600019048311821515161561203a5761203a611d2f565b500290565b600063ffffffff80831681851680830382111561205e5761205e611d2f565b01949350505050565b60006060828403121561207957600080fd5b6040516060810181811067ffffffffffffffff8211171561209c5761209c611f05565b80604052508251815260208301516020820152604083015160408201528091505092915050565b6000602082840312156120d557600080fd5b815161160181611bfb565b6000602082840312156120f257600080fd5b8151801515811461160157600080fd5b6020808252602e908201527f496e697469616c697a61626c653a20636f6e747261637420697320616c72656160408201526d191e481a5b9a5d1a585b1a5e995960921b606082015260800190565b6020808252602b908201527f496e697469616c697a61626c653a20636f6e7472616374206973206e6f74206960408201526a6e697469616c697a696e6760a81b606082015260800190565b60006000198214156121af576121af611d2f565b5060010190565b60005b838110156121d15781810151838201526020016121b9565b838111156121e0576000848401525b50505050565b60008251611e378184602087016121b6565b60208152600082518060208401526122178160408501602087016121b6565b601f01601f1916919091016040019291505056fea264697066735822122047950926e9cce0e0f9afcf3c8515c90e5d0d3c729d242b8d425b75f0ef1d1bf264736f6c634300080a0033",
  "immutableReferences": {},
  "source": "// SPDX-License-Identifier: MIT\r\npragma solidity 0.8.10;\r\n \r\nimport './interfaces/IUnoFarmPancakeswap.sol';\r\nimport '../../interfaces/IUniswapV2Pair.sol';\r\nimport '../../interfaces/IUniswapV2Router.sol';\r\nimport '../../interfaces/IMasterChef.sol';\r\nimport '@openzeppelin/contracts-upgradeable/security/ReentrancyGuardUpgradeable.sol';\r\nimport '@openzeppelin/contracts/token/ERC20/utils/SafeERC20.sol';\r\nimport '@openzeppelin/contracts-upgradeable/proxy/utils/Initializable.sol';\r\n\r\ncontract UnoFarmPancakeswap is Initializable, ReentrancyGuardUpgradeable, IUnoFarmPancakeswap {\r\n    using SafeERC20 for IERC20;\r\n    /**\r\n     * @dev Tokens Used:\r\n     * {rewardToken} - Token generated by staking (CAKE).\r\n     * {rewarderToken} - Token generated by ComplexRewarderTime contract.\r\n     * {lpPool} - Token that the strategy maximizes. The same token that users deposit in the {MasterChef}.\r\n     * {tokenA, tokenB} - Tokens that the strategy maximizes.\r\n     */\r\n    address public rewardToken;\r\n    address public lpPool;\r\n    address public tokenA;\r\n    address public tokenB;\r\n\r\n    /**\r\n     * @dev Third Party Contracts:\r\n     * {pancakeswapRouter} - The contract that executes swaps.\r\n     * {MasterChef} -The contract that distibutes {rewardToken}.\r\n     */\r\n    IUniswapV2Router01 private constant pancakeswapRouter = IUniswapV2Router01(0x10ED43C718714eb63d5aA57B78B54704E256024E);\r\n    IMasterChef private constant MasterChef = IMasterChef(0xa5f8C5Dbd5F286960b9d90548680aE5ebFf07652);\r\n\r\n    /**\r\n     * @dev Contract Variables:\r\n     * {pid} - Pool ID.\r\n\r\n     * {totalDeposits} - Total deposits made by users.\r\n     * {totalDepositAge} - Deposits multiplied by blocks the deposit has been in. Flushed every reward distribution.\r\n     * {totalDepositLastUpdate} - Last {totalDepositAge} update block.\r\n\r\n     * {distributionID} - Current distribution ID.\r\n     * {userInfo} - Info on each user.\r\n     * {distributionInfo} - Info on each distribution.\r\n\r\n     * {fractionMultiplier} - Used to store decimal values.\r\n     */\r\n    uint256 public pid;\r\n\r\n    uint256 private totalDeposits;\r\n    uint256 private totalDepositAge;\r\n    uint256 private totalDepositLastUpdate;\r\n\r\n    uint32 private distributionID;\r\n    mapping(address => UserInfo) private userInfo;\r\n    mapping(uint32 => DistributionInfo) private distributionInfo;\r\n\r\n    uint256 private constant fractionMultiplier = uint256(1 ether);\r\n\r\n    /**\r\n     * @dev Contract Variables:\r\n     * {assetRouter} - The contract from which calls to this farm are made.\r\n     */\r\n    address public assetRouter;\r\n    modifier onlyAssetRouter(){\r\n        if(msg.sender != assetRouter) revert CALLER_NOT_ASSET_ROUTER();\r\n        _;\r\n    }\r\n\r\n    // ============ Methods ============\r\n\r\n    function initialize(address _lpPool, address _assetRouter) external initializer {\r\n        if(_lpPool == address(0)) revert INVALID_LP_POOL();\r\n        if(_assetRouter == address(0)) revert INVALID_ASSET_ROUTER();\r\n\r\n        __ReentrancyGuard_init();\r\n        assetRouter = _assetRouter;\r\n\r\n        pid = _getPid(_lpPool);\r\n        lpPool = _lpPool;\r\n\r\n        rewardToken = MasterChef.CAKE();\r\n\r\n        tokenA = IUniswapV2Pair(lpPool).token0();\r\n        tokenB = IUniswapV2Pair(lpPool).token1();\r\n\r\n        distributionInfo[0] = DistributionInfo({\r\n            block: block.number,\r\n            rewardPerDepositAge: 0,\r\n            cumulativeRewardAgePerDepositAge: 0\r\n        });\r\n        distributionID = 1;\r\n        totalDepositLastUpdate = block.number;\r\n\r\n        IERC20(lpPool).approve(address(MasterChef), type(uint256).max);\r\n        IERC20(lpPool).approve(address(pancakeswapRouter), type(uint256).max);\r\n        IERC20(rewardToken).approve(address(pancakeswapRouter), type(uint256).max);\r\n        IERC20(tokenA).approve(address(pancakeswapRouter), type(uint256).max);\r\n        IERC20(tokenB).approve(address(pancakeswapRouter), type(uint256).max);\r\n    }\r\n\r\n    /**\r\n     * @dev Function that makes the deposits.\r\n     * Stakes {amount} of LP tokens from this contract's balance in the {MasterChef}.\r\n     */\r\n    function deposit(uint256 amount, address recipient) external nonReentrant onlyAssetRouter {\r\n        if(amount == 0) revert NO_LIQUIDITY_PROVIDED();\r\n\r\n        _updateDeposit(recipient);\r\n        userInfo[recipient].stake += amount;\r\n        totalDeposits += amount;\r\n            \r\n        MasterChef.deposit(pid, amount);\r\n    }\r\n\r\n    /**\r\n     * @dev Withdraws funds from {origin} and sends them to the {recipient}.\r\n     */\r\n    function withdraw(uint256 amount, address origin, address recipient) external nonReentrant onlyAssetRouter{\r\n        if(amount == 0) revert INSUFFICIENT_AMOUNT();\r\n\r\n        _updateDeposit(origin);\r\n        UserInfo storage user = userInfo[origin];\r\n        // Subtract amount from user.reward first, then subtract remainder from user.stake.\r\n        if(amount > user.reward){\r\n            uint256 balance = user.stake + user.reward;\r\n            if(amount > balance) revert INSUFFICIENT_BALANCE();\r\n\r\n            user.stake = balance - amount;\r\n            totalDeposits = totalDeposits + user.reward - amount;\r\n            user.reward = 0;\r\n        } else {\r\n            user.reward -= amount;\r\n        }\r\n\r\n        MasterChef.withdraw(pid, amount);\r\n        IERC20(lpPool).safeTransfer(recipient, amount);\r\n    }\r\n\r\n    /**\r\n     * @dev Core function of the strat, in charge of updating, collecting and re-investing rewards.\r\n     * 1. It claims rewards from the {MasterChef}.\r\n     * 2. It swaps {rewardToken} token for {tokenA} & {tokenB}.\r\n     * 3. It deposits new LP tokens back to the {MasterChef}.\r\n     */\r\n    function distribute(\r\n        SwapInfo[2] calldata swapInfos,\r\n        FeeInfo calldata feeInfo\r\n    ) external onlyAssetRouter nonReentrant returns(uint256 reward){\r\n        if(totalDeposits == 0) revert NO_LIQUIDITY();\r\n        if(distributionInfo[distributionID - 1].block == block.number) revert CALL_ON_THE_SAME_BLOCK();\r\n\r\n        MasterChef.withdraw(pid, 0);\r\n\r\n        uint256 balance = IERC20(rewardToken).balanceOf(address(this));\r\n\t\tbalance -= _collectFees(IERC20(rewardToken), balance, feeInfo);\r\n\t\tuint256 rewardTokenHalf = balance / 2;\r\n        if (tokenA != rewardToken) {\r\n            address[] calldata route = swapInfos[0].route;\r\n            if(route[0] != rewardToken || route[route.length - 1] != tokenA) revert INVALID_ROUTE(rewardToken, tokenA);\r\n            pancakeswapRouter.swapExactTokensForTokens(rewardTokenHalf, swapInfos[0].amountOutMin, route, address(this), block.timestamp);\r\n        }\r\n\r\n        if (tokenB != rewardToken) {\r\n            address[] calldata route = swapInfos[1].route;\r\n            if(route[0] != rewardToken || route[route.length - 1] != tokenB) revert INVALID_ROUTE(rewardToken, tokenB);\r\n            pancakeswapRouter.swapExactTokensForTokens(rewardTokenHalf, swapInfos[1].amountOutMin, route, address(this), block.timestamp);\r\n        }\r\n\r\n        (,,reward) = pancakeswapRouter.addLiquidity(tokenA, tokenB, IERC20(tokenA).balanceOf(address(this)), IERC20(tokenB).balanceOf(address(this)), swapInfos[0].amountOutMin, swapInfos[1].amountOutMin, address(this), block.timestamp);\r\n        \r\n        uint256 rewardPerDepositAge = reward * fractionMultiplier / (totalDepositAge + totalDeposits * (block.number - totalDepositLastUpdate));\r\n        uint256 cumulativeRewardAgePerDepositAge = distributionInfo[distributionID - 1].cumulativeRewardAgePerDepositAge + rewardPerDepositAge * (block.number - distributionInfo[distributionID - 1].block);\r\n\r\n        distributionInfo[distributionID] = DistributionInfo({\r\n            block: block.number,\r\n            rewardPerDepositAge: rewardPerDepositAge,\r\n            cumulativeRewardAgePerDepositAge: cumulativeRewardAgePerDepositAge\r\n        });\r\n\r\n        distributionID += 1;\r\n        totalDepositLastUpdate = block.number;\r\n        totalDepositAge = 0;\r\n            \r\n        MasterChef.deposit(pid, reward);\r\n    }\r\n    \r\n    /**\r\n\t * @dev Sends fees to feeTo.\r\n\t */\r\n\tfunction _collectFees(IERC20 token, uint256 balance, FeeInfo calldata feeInfo) internal returns(uint256 feeAmount) {\r\n\t\tif (feeInfo.feeTo != address(0)) {\r\n\t\t\tfeeAmount = balance * feeInfo.fee / fractionMultiplier;\r\n\t\t\tif (feeAmount > 0) {\r\n\t\t\t\ttoken.safeTransfer(feeInfo.feeTo, feeAmount);\r\n\t\t\t}\r\n\t\t}\r\n\t}\r\n\r\n    /**\r\n     * @dev Returns total funds staked by the {_address}.\r\n     */\r\n    function userBalance(address _address) external view returns (uint256) {\r\n        return userInfo[_address].stake + _userReward(_address);\r\n    }\r\n\r\n    /**\r\n     * @dev Returns total funds locked in the farm.\r\n     */\r\n    function getTotalDeposits() external view returns (uint256 _totalDeposits) {\r\n        if(totalDeposits > 0){\r\n            _totalDeposits = MasterChef.userInfo(pid, address(this)).amount;\r\n        }\r\n    }\r\n    \r\n    function _updateDeposit(address _address) internal {\r\n        UserInfo storage user = userInfo[_address];\r\n        // Accumulate deposit age within the current distribution period.\r\n        if (user.lastDistribution == distributionID) {\r\n            // Add deposit age from previous deposit age update to now.\r\n            user.depositAge += user.stake * (block.number - user.lastUpdate);\r\n        } else {\r\n            // A reward has been distributed, update user.reward.\r\n            user.reward = _userReward(_address);\r\n            // Count fresh deposit age from previous reward distribution to now.\r\n            user.depositAge = user.stake * (block.number - distributionInfo[distributionID - 1].block);\r\n        }\r\n\r\n        user.lastDistribution = distributionID;\r\n        user.lastUpdate = block.number;\r\n\r\n        // Same with total deposit age.\r\n        totalDepositAge += (block.number - totalDepositLastUpdate) * totalDeposits;\r\n        totalDepositLastUpdate = block.number;\r\n    }\r\n\r\n    function _userReward(address _address) internal view returns (uint256) {\r\n        UserInfo memory user = userInfo[_address];\r\n        if (user.lastDistribution == distributionID) {\r\n            // Return user.reward if the distribution after the last user deposit did not happen yet.\r\n            return user.reward;\r\n        }\r\n        DistributionInfo memory lastUserDistributionInfo = distributionInfo[user.lastDistribution];\r\n        uint256 userDepositAge = user.depositAge + user.stake * (lastUserDistributionInfo.block - user.lastUpdate);\r\n        // Calculate reward between the last user deposit and the distribution after that.\r\n        uint256 rewardBeforeDistibution = userDepositAge * lastUserDistributionInfo.rewardPerDepositAge / fractionMultiplier;\r\n        // Calculate reward from the distributions that have happened after the last user deposit.\r\n        uint256 rewardAfterDistribution = user.stake * (distributionInfo[distributionID - 1].cumulativeRewardAgePerDepositAge - lastUserDistributionInfo.cumulativeRewardAgePerDepositAge) / fractionMultiplier;\r\n        return user.reward + rewardBeforeDistibution + rewardAfterDistribution;\r\n    }\r\n\r\n    /**\r\n     * @dev Get pid by iterating over all pools and comparing pids.\r\n     */\r\n    function _getPid(address _lpPool) internal view returns (uint256 _pid) {\r\n        bool poolExists = false;\r\n        for (uint256 i = 0; i < MasterChef.poolLength(); i++) {\r\n            if (MasterChef.lpToken(i) == _lpPool) {\r\n                _pid = i;\r\n                poolExists = true;\r\n                break;\r\n            }\r\n        }\r\n        if(!poolExists) revert PID_NOT_EXISTS();\r\n        return _pid;\r\n    }\r\n}\r\n",
  "sourcePath": "C:\\Users\\jugli\\Desktop\\uno\\uno-contracts-bsc\\contracts\\apps\\pancakeswap\\UnoFarmPancakeswap.sol",
  "compiler": {
    "name": "solc",
    "version": "0.8.10+commit.fc410830.Emscripten.clang"
  },
  "schemaVersion": "3.4.13",
  "updatedAt": "2023-06-21T07:51:51.220Z",
  "devdoc": {
    "kind": "dev",
    "methods": {
      "deposit(uint256,address)": {
        "details": "Function that makes the deposits. Stakes {amount} of LP tokens from this contract's balance in the {MasterChef}."
      },
      "distribute((address[],uint256)[2],(address,uint256))": {
        "details": "Core function of the strat, in charge of updating, collecting and re-investing rewards. 1. It claims rewards from the {MasterChef}. 2. It swaps {rewardToken} token for {tokenA} & {tokenB}. 3. It deposits new LP tokens back to the {MasterChef}."
      },
      "getTotalDeposits()": {
        "details": "Returns total funds locked in the farm."
      },
      "userBalance(address)": {
        "details": "Returns total funds staked by the {_address}."
      },
      "withdraw(uint256,address,address)": {
        "details": "Withdraws funds from {origin} and sends them to the {recipient}."
      }
    },
    "stateVariables": {
      "assetRouter": {
        "details": "Contract Variables: {assetRouter} - The contract from which calls to this farm are made."
      },
      "pancakeswapRouter": {
        "details": "Third Party Contracts: {pancakeswapRouter} - The contract that executes swaps. {MasterChef} -The contract that distibutes {rewardToken}."
      },
      "pid": {
        "details": "Contract Variables: {pid} - Pool ID. {totalDeposits} - Total deposits made by users. {totalDepositAge} - Deposits multiplied by blocks the deposit has been in. Flushed every reward distribution. {totalDepositLastUpdate} - Last {totalDepositAge} update block. {distributionID} - Current distribution ID. {userInfo} - Info on each user. {distributionInfo} - Info on each distribution. {fractionMultiplier} - Used to store decimal values."
      },
      "rewardToken": {
        "details": "Tokens Used: {rewardToken} - Token generated by staking (CAKE). {rewarderToken} - Token generated by ComplexRewarderTime contract. {lpPool} - Token that the strategy maximizes. The same token that users deposit in the {MasterChef}. {tokenA, tokenB} - Tokens that the strategy maximizes."
      }
    },
    "version": 1
  },
  "userdoc": {
    "kind": "user",
    "methods": {},
    "version": 1
  }
}