{
  "contractName": "UnoFarmQuickswap",
  "abi": [
    {
      "inputs": [],
      "name": "CALLER_NOT_ASSET_ROUTER",
      "type": "error"
    },
    {
      "inputs": [],
      "name": "CALL_ON_THE_SAME_BLOCK",
      "type": "error"
    },
    {
      "inputs": [],
      "name": "INSUFFICIENT_AMOUNT",
      "type": "error"
    },
    {
      "inputs": [],
      "name": "INSUFFICIENT_BALANCE",
      "type": "error"
    },
    {
      "inputs": [],
      "name": "INVALID_ASSET_ROUTER",
      "type": "error"
    },
    {
      "inputs": [
        {
          "internalType": "address",
          "name": "feeToken",
          "type": "address"
        }
      ],
      "name": "INVALID_FEE_ROUTE",
      "type": "error"
    },
    {
      "inputs": [],
      "name": "INVALID_LP_POOL",
      "type": "error"
    },
    {
      "inputs": [
        {
          "internalType": "address",
          "name": "fromToken",
          "type": "address"
        },
        {
          "internalType": "address",
          "name": "toToken",
          "type": "address"
        }
      ],
      "name": "INVALID_ROUTE",
      "type": "error"
    },
    {
      "inputs": [],
      "name": "NO_LIQUIDITY",
      "type": "error"
    },
    {
      "inputs": [],
      "name": "NO_LIQUIDITY_PROVIDED",
      "type": "error"
    },
    {
      "anonymous": false,
      "inputs": [
        {
          "indexed": false,
          "internalType": "uint8",
          "name": "version",
          "type": "uint8"
        }
      ],
      "name": "Initialized",
      "type": "event"
    },
    {
      "inputs": [],
      "name": "assetRouter",
      "outputs": [
        {
          "internalType": "address",
          "name": "",
          "type": "address"
        }
      ],
      "stateMutability": "view",
      "type": "function",
      "constant": true
    },
    {
      "inputs": [],
      "name": "lpPool",
      "outputs": [
        {
          "internalType": "address",
          "name": "",
          "type": "address"
        }
      ],
      "stateMutability": "view",
      "type": "function",
      "constant": true
    },
    {
      "inputs": [],
      "name": "rewardToken",
      "outputs": [
        {
          "internalType": "address",
          "name": "",
          "type": "address"
        }
      ],
      "stateMutability": "view",
      "type": "function",
      "constant": true
    },
    {
      "inputs": [],
      "name": "tokenA",
      "outputs": [
        {
          "internalType": "address",
          "name": "",
          "type": "address"
        }
      ],
      "stateMutability": "view",
      "type": "function",
      "constant": true
    },
    {
      "inputs": [],
      "name": "tokenB",
      "outputs": [
        {
          "internalType": "address",
          "name": "",
          "type": "address"
        }
      ],
      "stateMutability": "view",
      "type": "function",
      "constant": true
    },
    {
      "inputs": [
        {
          "internalType": "address",
          "name": "_lpStakingPool",
          "type": "address"
        },
        {
          "internalType": "address",
          "name": "_assetRouter",
          "type": "address"
        }
      ],
      "name": "initialize",
      "outputs": [],
      "stateMutability": "nonpayable",
      "type": "function"
    },
    {
      "inputs": [
        {
          "internalType": "uint256",
          "name": "amount",
          "type": "uint256"
        },
        {
          "internalType": "address",
          "name": "recipient",
          "type": "address"
        }
      ],
      "name": "deposit",
      "outputs": [],
      "stateMutability": "nonpayable",
      "type": "function"
    },
    {
      "inputs": [
        {
          "internalType": "uint256",
          "name": "amount",
          "type": "uint256"
        },
        {
          "internalType": "address",
          "name": "origin",
          "type": "address"
        },
        {
          "internalType": "address",
          "name": "recipient",
          "type": "address"
        }
      ],
      "name": "withdraw",
      "outputs": [],
      "stateMutability": "nonpayable",
      "type": "function"
    },
    {
      "inputs": [
        {
          "components": [
            {
              "internalType": "address[]",
              "name": "route",
              "type": "address[]"
            },
            {
              "internalType": "uint256",
              "name": "amountOutMin",
              "type": "uint256"
            }
          ],
          "internalType": "struct IUnoFarmQuickswap.SwapInfo[2]",
          "name": "swapInfos",
          "type": "tuple[2]"
        },
        {
          "components": [
            {
              "internalType": "address[]",
              "name": "route",
              "type": "address[]"
            },
            {
              "internalType": "uint256",
              "name": "amountOutMin",
              "type": "uint256"
            }
          ],
          "internalType": "struct IUnoFarmQuickswap.SwapInfo",
          "name": "feeSwapInfo",
          "type": "tuple"
        },
        {
          "components": [
            {
              "internalType": "address",
              "name": "feeTo",
              "type": "address"
            },
            {
              "internalType": "uint256",
              "name": "fee",
              "type": "uint256"
            }
          ],
          "internalType": "struct IUnoFarm.FeeInfo",
          "name": "feeInfo",
          "type": "tuple"
        }
      ],
      "name": "distribute",
      "outputs": [
        {
          "internalType": "uint256",
          "name": "reward",
          "type": "uint256"
        }
      ],
      "stateMutability": "nonpayable",
      "type": "function"
    },
    {
      "inputs": [
        {
          "internalType": "address",
          "name": "_address",
          "type": "address"
        }
      ],
      "name": "userBalance",
      "outputs": [
        {
          "internalType": "uint256",
          "name": "",
          "type": "uint256"
        }
      ],
      "stateMutability": "view",
      "type": "function",
      "constant": true
    },
    {
      "inputs": [],
      "name": "getTotalDeposits",
      "outputs": [
        {
          "internalType": "uint256",
          "name": "_totalDeposits",
          "type": "uint256"
        }
      ],
      "stateMutability": "view",
      "type": "function",
      "constant": true
    }
  ],
  "bytecode": "0x608060405234801561001057600080fd5b50612283806100206000396000f3fe608060405234801561001057600080fd5b50600436106100a95760003560e01c8063485cc95511610071578063485cc9551461012d5780635f64b55b146101425780636e553f6514610155578063b460af9414610168578063bc0aac101461017b578063f7c618c11461018e57600080fd5b80630103c92b146100ae5780630fc63d10146100d4578063168a4822146100ff57806336eeb1dd146101075780633737bcb41461011a575b600080fd5b6100c16100bc366004611c8e565b6101a1565b6040519081526020015b60405180910390f35b6035546100e7906001600160a01b031681565b6040516001600160a01b0390911681526020016100cb565b6100c16101d5565b6100c1610115366004611cc3565b610252565b6034546100e7906001600160a01b031681565b61014061013b366004611d41565b610ac3565b005b6036546100e7906001600160a01b031681565b610140610163366004611d7a565b6110f7565b610140610176366004611d9f565b61121d565b603e546100e7906001600160a01b031681565b6033546100e7906001600160a01b031681565b60006101ac826113c4565b6001600160a01b0383166000908152603c60205260409020546101cf9190611df7565b92915050565b6038546000901561024f576037546040516370a0823160e01b81523060048201526001600160a01b03909116906370a0823190602401602060405180830381865afa158015610228573d6000803e3d6000fd5b505050506040513d601f19601f8201168201806040525081019061024c9190611e0f565b90505b90565b603e546000906001600160a01b0316331461028057604051637d3781d760e11b815260040160405180910390fd5b600260015414156102ac5760405162461bcd60e51b81526004016102a390611e28565b60405180910390fd5b60026001556038546102d15760405163f58c8f9160e01b815260040160405180910390fd5b603b544390603d906000906102ee9060019063ffffffff16611e5f565b63ffffffff16815260208101919091526040016000205414156103245760405163fa2a2d8760e01b815260040160405180910390fd5b603760009054906101000a90046001600160a01b03166001600160a01b0316633d18b9126040518163ffffffff1660e01b8152600401600060405180830381600087803b15801561037457600080fd5b505af1158015610388573d6000803e3d6000fd5b505050506103968383611559565b6033546040516370a0823160e01b81523060048201526000916002916001600160a01b03909116906370a0823190602401602060405180830381865afa1580156103e4573d6000803e3d6000fd5b505050506040513d601f19601f820116820180604052508101906104089190611e0f565b6104129190611e84565b6033546035549192506001600160a01b039182169116146105a55736600061043a8780611ebc565b6104449080611edc565b60335491935091506001600160a01b0316828260008161046657610466611ea6565b905060200201602081019061047b9190611c8e565b6001600160a01b03161415806104d557506035546001600160a01b031682826104a5600182611f2d565b8181106104b4576104b4611ea6565b90506020020160208101906104c99190611c8e565b6001600160a01b031614155b1561050c5760335460355460405163756cc24d60e11b81526001600160a01b039283166004820152911660248201526044016102a3565b73a5e0829caced8ffdd4de3c43696c57f7d7a678ff6338ed1739846105318a80611ebc565b60200135858530426040518763ffffffff1660e01b815260040161055a96959493929190611f44565b6000604051808303816000875af1158015610579573d6000803e3d6000fd5b505050506040513d6000823e601f3d908101601f191682016040526105a19190810190611fcd565b5050505b6033546036546001600160a01b0390811691161461073b573660006105cd6020880188611ebc565b6105d79080611edc565b60335491935091506001600160a01b031682826000816105f9576105f9611ea6565b905060200201602081019061060e9190611c8e565b6001600160a01b031614158061066857506036546001600160a01b03168282610638600182611f2d565b81811061064757610647611ea6565b905060200201602081019061065c9190611c8e565b6001600160a01b031614155b1561069f5760335460365460405163756cc24d60e11b81526001600160a01b039283166004820152911660248201526044016102a3565b73a5e0829caced8ffdd4de3c43696c57f7d7a678ff6338ed1739846106c760208b018b611ebc565b60200135858530426040518763ffffffff1660e01b81526004016106f096959493929190611f44565b6000604051808303816000875af115801561070f573d6000803e3d6000fd5b505050506040513d6000823e601f3d908101601f191682016040526107379190810190611fcd565b5050505b6035546036546040516370a0823160e01b815230600482015273a5e0829caced8ffdd4de3c43696c57f7d7a678ff9263e8e33700926001600160a01b039182169291169082906370a0823190602401602060405180830381865afa1580156107a7573d6000803e3d6000fd5b505050506040513d601f19601f820116820180604052508101906107cb9190611e0f565b6036546040516370a0823160e01b81523060048201526001600160a01b03909116906370a0823190602401602060405180830381865afa158015610813573d6000803e3d6000fd5b505050506040513d601f19601f820116820180604052508101906108379190611e0f565b6108418b80611ebc565b60209081013590610854908d018d611ebc565b6040516001600160e01b031960e089901b1681526001600160a01b0396871660048201529590941660248601526044850192909252606484015260848301526020013560a48201523060c48201524260e4820152610104016060604051808303816000875af11580156108cb573d6000803e3d6000fd5b505050506040513d601f19601f820116820180604052508101906108ef919061208b565b603a5490945060009250610904915043611f2d565b60385461091191906120b9565b60395461091e9190611df7565b610930670de0b6b3a7640000856120b9565b61093a9190611e84565b603b54909150600090603d90829061095a9060019063ffffffff16611e5f565b63ffffffff16815260208101919091526040016000205461097b9043611f2d565b61098590836120b9565b603b54603d906000906109a09060019063ffffffff16611e5f565b63ffffffff1663ffffffff168152602001908152602001600020600201546109c89190611df7565b604080516060810182524381526020808201868152828401858152603b805463ffffffff9081166000908152603d90955295842094518555915160018581019190915590516002909401939093558054949550919391929091610a2d918591166120d8565b825463ffffffff9182166101009390930a92830291909202199091161790555043603a55600060395560375460405163534a7e1d60e11b8152600481018690526001600160a01b039091169063a694fc3a90602401600060405180830381600087803b158015610a9c57600080fd5b505af1158015610ab0573d6000803e3d6000fd5b5050600180555093979650505050505050565b6000610acf60016117d4565b90508015610ae7576000805461ff0019166101001790555b6001600160a01b038316610b0e57604051635309c5cf60e01b815260040160405180910390fd5b6001600160a01b038216610b3557604051630c17c11560e41b815260040160405180910390fd5b610b3d61185c565b603e80546001600160a01b038085166001600160a01b031992831617909255603780549286169290911682179055604080516372f702f360e01b815290516372f702f3916004808201926020929091908290030181865afa158015610ba6573d6000803e3d6000fd5b505050506040513d601f19601f82011682018060405250810190610bca9190612100565b603480546001600160a01b0319166001600160a01b039283161790556037546040805163d1af0c7d60e01b81529051919092169163d1af0c7d9160048083019260209291908290030181865afa158015610c28573d6000803e3d6000fd5b505050506040513d601f19601f82011682018060405250810190610c4c9190612100565b603380546001600160a01b0319166001600160a01b0392831617905560345460408051630dfe168160e01b815290519190921691630dfe16819160048083019260209291908290030181865afa158015610caa573d6000803e3d6000fd5b505050506040513d601f19601f82011682018060405250810190610cce9190612100565b603580546001600160a01b0319166001600160a01b039283161790556034546040805163d21220a760e01b81529051919092169163d21220a79160048083019260209291908290030181865afa158015610d2c573d6000803e3d6000fd5b505050506040513d601f19601f82011682018060405250810190610d509190612100565b603680546001600160a01b0319166001600160a01b03928316179055604080516060810182524380825260006020808401828152848601838152928052603d90915292517fb4447350905ade30fbbf16eb128316f54a45abd6b02d89811edf7bbf0bb1ba7c5591517fb4447350905ade30fbbf16eb128316f54a45abd6b02d89811edf7bbf0bb1ba7d5590517fb4447350905ade30fbbf16eb128316f54a45abd6b02d89811edf7bbf0bb1ba7e55603b805463ffffffff19166001179055603a55603454905163095ea7b360e01b81528583166004820152600019602482015291169063095ea7b3906044016020604051808303816000875af1158015610e5b573d6000803e3d6000fd5b505050506040513d601f19601f82011682018060405250810190610e7f919061211d565b5060345460405163095ea7b360e01b815273a5e0829caced8ffdd4de3c43696c57f7d7a678ff600482015260001960248201526001600160a01b039091169063095ea7b3906044016020604051808303816000875af1158015610ee6573d6000803e3d6000fd5b505050506040513d601f19601f82011682018060405250810190610f0a919061211d565b5060335460405163095ea7b360e01b815273a5e0829caced8ffdd4de3c43696c57f7d7a678ff600482015260001960248201526001600160a01b039091169063095ea7b3906044016020604051808303816000875af1158015610f71573d6000803e3d6000fd5b505050506040513d601f19601f82011682018060405250810190610f95919061211d565b5060355460405163095ea7b360e01b815273a5e0829caced8ffdd4de3c43696c57f7d7a678ff600482015260001960248201526001600160a01b039091169063095ea7b3906044016020604051808303816000875af1158015610ffc573d6000803e3d6000fd5b505050506040513d601f19601f82011682018060405250810190611020919061211d565b5060365460405163095ea7b360e01b815273a5e0829caced8ffdd4de3c43696c57f7d7a678ff600482015260001960248201526001600160a01b039091169063095ea7b3906044016020604051808303816000875af1158015611087573d6000803e3d6000fd5b505050506040513d601f19601f820116820180604052508101906110ab919061211d565b5080156110f2576000805461ff0019169055604051600181527f7f26b83ff96e1f2b6a682f133852f6798a09c465da95921460cefb38474024989060200160405180910390a15b505050565b6002600154141561111a5760405162461bcd60e51b81526004016102a390611e28565b6002600155603e546001600160a01b0316331461114a57604051637d3781d760e11b815260040160405180910390fd5b81611168576040516378e321a560e01b815260040160405180910390fd5b6111718161188d565b6001600160a01b0381166000908152603c602052604081208054849290611199908490611df7565b9250508190555081603860008282546111b29190611df7565b909155505060375460405163534a7e1d60e11b8152600481018490526001600160a01b039091169063a694fc3a90602401600060405180830381600087803b1580156111fd57600080fd5b505af1158015611211573d6000803e3d6000fd5b50506001805550505050565b600260015414156112405760405162461bcd60e51b81526004016102a390611e28565b6002600155603e546001600160a01b0316331461127057604051637d3781d760e11b815260040160405180910390fd5b8261128e57604051632cd294cf60e01b815260040160405180910390fd5b6112978261188d565b6001600160a01b0382166000908152603c60205260409020600281015484111561132a57600281015481546000916112ce91611df7565b9050808511156112f157604051632858f9ab60e11b815260040160405180910390fd5b6112fb8582611f2d565b82556002820154603854869161131091611df7565b61131a9190611f2d565b6038555060006002820155611344565b8381600201600082825461133e9190611f2d565b90915550505b603754604051632e1a7d4d60e01b8152600481018690526001600160a01b0390911690632e1a7d4d90602401600060405180830381600087803b15801561138a57600080fd5b505af115801561139e573d6000803e3d6000fd5b50506034546113ba92506001600160a01b0316905083866119b2565b5050600180555050565b6001600160a01b0381166000908152603c60209081526040808320815160a08101835281548152600182015493810193909352600281015491830191909152600381015463ffffffff908116606084018190526004909201546080840152603b54161415611436576040015192915050565b60608082015163ffffffff166000908152603d602090815260408083208151948501825280548086526001820154938601939093526002015490840152608084015161148191611f2d565b835161148d91906120b9565b836020015161149c9190611df7565b90506000670de0b6b3a76400008360200151836114b991906120b9565b6114c39190611e84565b6040840151603b54919250600091670de0b6b3a76400009190603d9084906114f39060019063ffffffff16611e5f565b63ffffffff1663ffffffff1681526020019081526020016000206002015461151b9190611f2d565b865161152791906120b9565b6115319190611e84565b9050808286604001516115449190611df7565b61154e9190611df7565b979650505050505050565b60006115686020830183611c8e565b6001600160a01b0316146117d0576033546040516370a0823160e01b8152306004820152600091670de0b6b3a7640000916020850135916001600160a01b0316906370a0823190602401602060405180830381865afa1580156115cf573d6000803e3d6000fd5b505050506040513d601f19601f820116820180604052508101906115f39190611e0f565b6115fd91906120b9565b6116079190611e84565b905080156110f25736600061161c8580611edc565b9092509050801580159061169957508181611638600182611f2d565b81811061164757611647611ea6565b905060200201602081019061165c9190611c8e565b6001600160a01b03168282600081811061167857611678611ea6565b905060200201602081019061168d9190611c8e565b6001600160a01b031614155b156117a9576033546001600160a01b031682826000816116bb576116bb611ea6565b90506020020160208101906116d09190611c8e565b6001600160a01b03161461170657603354604051630b65ba9d60e41b81526001600160a01b0390911660048201526024016102a3565b73a5e0829caced8ffdd4de3c43696c57f7d7a678ff6338ed1739846020808901359086908690611738908b018b611c8e565b426040518763ffffffff1660e01b815260040161175a96959493929190611f44565b6000604051808303816000875af1158015611779573d6000803e3d6000fd5b505050506040513d6000823e601f3d908101601f191682016040526117a19190810190611fcd565b505050505050565b6117cc6117b96020860186611c8e565b6033546001600160a01b031690856119b2565b5050505b5050565b60008054610100900460ff161561181b578160ff1660011480156117f75750303b155b6118135760405162461bcd60e51b81526004016102a39061213f565b506000919050565b60005460ff8084169116106118425760405162461bcd60e51b81526004016102a39061213f565b506000805460ff191660ff92909216919091179055600190565b600054610100900460ff166118835760405162461bcd60e51b81526004016102a39061218d565b61188b611a04565b565b6001600160a01b0381166000908152603c60205260409020603b54600382015463ffffffff908116911614156118f65760048101546118cc9043611f2d565b81546118d891906120b9565b8160010160008282546118eb9190611df7565b909155506119529050565b6118ff826113c4565b6002820155603b54603d9060009061191f9060019063ffffffff16611e5f565b63ffffffff1681526020810191909152604001600020546119409043611f2d565b815461194c91906120b9565b60018201555b603b5460038201805463ffffffff191663ffffffff9092169190911790554360048201819055603854603a54909161198a9190611f2d565b61199491906120b9565b603960008282546119a59190611df7565b909155505043603a555050565b604080516001600160a01b038416602482015260448082018490528251808303909101815260649091019091526020810180516001600160e01b031663a9059cbb60e01b1790526110f2908490611a31565b600054610100900460ff16611a2b5760405162461bcd60e51b81526004016102a39061218d565b60018055565b6000611a86826040518060400160405280602081526020017f5361666545524332303a206c6f772d6c6576656c2063616c6c206661696c6564815250856001600160a01b0316611b039092919063ffffffff16565b8051909150156110f25780806020019051810190611aa4919061211d565b6110f25760405162461bcd60e51b815260206004820152602a60248201527f5361666545524332303a204552433230206f7065726174696f6e20646964206e6044820152691bdd081cdd58d8d9595960b21b60648201526084016102a3565b6060611b128484600085611b1c565b90505b9392505050565b606082471015611b7d5760405162461bcd60e51b815260206004820152602660248201527f416464726573733a20696e73756666696369656e742062616c616e636520666f6044820152651c8818d85b1b60d21b60648201526084016102a3565b6001600160a01b0385163b611bd45760405162461bcd60e51b815260206004820152601d60248201527f416464726573733a2063616c6c20746f206e6f6e2d636f6e747261637400000060448201526064016102a3565b600080866001600160a01b03168587604051611bf09190612208565b60006040518083038185875af1925050503d8060008114611c2d576040519150601f19603f3d011682016040523d82523d6000602084013e611c32565b606091505b509150915061154e82828660608315611c4c575081611b15565b825115611c5c5782518084602001fd5b8160405162461bcd60e51b81526004016102a3919061221a565b6001600160a01b0381168114611c8b57600080fd5b50565b600060208284031215611ca057600080fd5b8135611b1581611c76565b600060408284031215611cbd57600080fd5b50919050565b600080600060808486031215611cd857600080fd5b833567ffffffffffffffff80821115611cf057600080fd5b818601915086604083011115611d0557600080fd5b90935060208501359080821115611d1b57600080fd5b50611d2886828701611cab565b925050611d388560408601611cab565b90509250925092565b60008060408385031215611d5457600080fd5b8235611d5f81611c76565b91506020830135611d6f81611c76565b809150509250929050565b60008060408385031215611d8d57600080fd5b823591506020830135611d6f81611c76565b600080600060608486031215611db457600080fd5b833592506020840135611dc681611c76565b91506040840135611dd681611c76565b809150509250925092565b634e487b7160e01b600052601160045260246000fd5b60008219821115611e0a57611e0a611de1565b500190565b600060208284031215611e2157600080fd5b5051919050565b6020808252601f908201527f5265656e7472616e637947756172643a207265656e7472616e742063616c6c00604082015260600190565b600063ffffffff83811690831681811015611e7c57611e7c611de1565b039392505050565b600082611ea157634e487b7160e01b600052601260045260246000fd5b500490565b634e487b7160e01b600052603260045260246000fd5b60008235603e19833603018112611ed257600080fd5b9190910192915050565b6000808335601e19843603018112611ef357600080fd5b83018035915067ffffffffffffffff821115611f0e57600080fd5b6020019150600581901b3603821315611f2657600080fd5b9250929050565b600082821015611f3f57611f3f611de1565b500390565b868152602080820187905260a0604083018190528201859052600090869060c08401835b88811015611f96578335611f7b81611c76565b6001600160a01b031682529282019290820190600101611f68565b506001600160a01b0396909616606085015250505060800152949350505050565b634e487b7160e01b600052604160045260246000fd5b60006020808385031215611fe057600080fd5b825167ffffffffffffffff80821115611ff857600080fd5b818501915085601f83011261200c57600080fd5b81518181111561201e5761201e611fb7565b8060051b604051601f19603f8301168101818110858211171561204357612043611fb7565b60405291825284820192508381018501918883111561206157600080fd5b938501935b8285101561207f57845184529385019392850192612066565b98975050505050505050565b6000806000606084860312156120a057600080fd5b8351925060208401519150604084015190509250925092565b60008160001904831182151516156120d3576120d3611de1565b500290565b600063ffffffff8083168185168083038211156120f7576120f7611de1565b01949350505050565b60006020828403121561211257600080fd5b8151611b1581611c76565b60006020828403121561212f57600080fd5b81518015158114611b1557600080fd5b6020808252602e908201527f496e697469616c697a61626c653a20636f6e747261637420697320616c72656160408201526d191e481a5b9a5d1a585b1a5e995960921b606082015260800190565b6020808252602b908201527f496e697469616c697a61626c653a20636f6e7472616374206973206e6f74206960408201526a6e697469616c697a696e6760a81b606082015260800190565b60005b838110156121f35781810151838201526020016121db565b83811115612202576000848401525b50505050565b60008251611ed28184602087016121d8565b60208152600082518060208401526122398160408501602087016121d8565b601f01601f1916919091016040019291505056fea2646970667358221220ae3098cd49d125b5584f70b713f1103e9217c57a0ad0af4d8529db76003657ee64736f6c634300080a0033",
  "immutableReferences": {},
  "source": "// SPDX-License-Identifier: MIT\r\npragma solidity 0.8.10;\r\n \r\nimport './interfaces/IUnoFarmQuickswap.sol';\r\nimport '../../interfaces/IUniswapV2Pair.sol';\r\nimport '../../interfaces/IUniswapV2Router.sol';\r\nimport '../../interfaces/IStakingRewards.sol';\r\nimport '@openzeppelin/contracts-upgradeable/security/ReentrancyGuardUpgradeable.sol';\r\nimport '@openzeppelin/contracts/token/ERC20/utils/SafeERC20.sol';\r\nimport '@openzeppelin/contracts-upgradeable/proxy/utils/Initializable.sol';\r\n\r\ncontract UnoFarmQuickswap is Initializable, ReentrancyGuardUpgradeable, IUnoFarmQuickswap {\r\n    using SafeERC20 for IERC20;\r\n    /**\r\n     * @dev Tokens Used:\r\n     * {rewardToken} - Token generated by staking.\r\n     * {lpPool} - Token that the strategy maximizes. The same token that users deposit in the {lpStakingPool}.\r\n     * {tokenA, tokenB} - Tokens that the strategy maximizes.\r\n     */\r\n    address public rewardToken;\r\n    address public lpPool;\r\n    address public tokenA;\r\n    address public tokenB;\r\n\r\n    /**\r\n     * @dev Third Party Contracts:\r\n     * {quickswapRouter} - Contract that executes swaps.\r\n     * {lpStakingPool} - Contract that distibutes {rewardToken}.\r\n     */\r\n    IUniswapV2Router01 private constant quickswapRouter = IUniswapV2Router01(0xa5E0829CaCEd8fFDD4De3c43696c57F7D7A678ff); \r\n    IStakingRewards private lpStakingPool;\r\n\r\n    /**\r\n     * @dev Contract Variables:\r\n     * {totalDeposits} - Total deposits made by users.\r\n     * {totalDepositAge} - Deposits multiplied by blocks the deposit has been in. Flushed every reward distribution.\r\n     * {totalDepositLastUpdate} - Last {totalDepositAge} update block.\r\n\r\n     * {distributionID} - Current distribution ID.\r\n     * {userInfo} - Info on each user.\r\n     * {distributionInfo} - Info on each distribution.\r\n\r\n     * {fractionMultiplier} - Used to store decimal values.\r\n     */\r\n    uint256 private totalDeposits;\r\n    uint256 private totalDepositAge;\r\n    uint256 private totalDepositLastUpdate;\r\n\r\n    uint32 private distributionID;\r\n    mapping(address => UserInfo) private userInfo;\r\n    mapping(uint32 => DistributionInfo) private distributionInfo;\r\n\r\n    uint256 private constant fractionMultiplier = uint256(1 ether);\r\n\r\n    /**\r\n     * @dev Contract Variables:\r\n     * {assetRouter} - The contract from which calls to this farm are made.\r\n     */\r\n    address public assetRouter;\r\n    modifier onlyAssetRouter(){\r\n        if(msg.sender != assetRouter) revert CALLER_NOT_ASSET_ROUTER();\r\n        _;\r\n    }\r\n\r\n    // ============ Methods ============\r\n\r\n    function initialize(address _lpStakingPool, address _assetRouter) external initializer {\r\n        if(_lpStakingPool == address(0)) revert INVALID_LP_POOL();\r\n        if(_assetRouter == address(0)) revert INVALID_ASSET_ROUTER();\r\n\r\n        __ReentrancyGuard_init();\r\n        assetRouter = _assetRouter;\r\n\r\n        lpStakingPool = IStakingRewards(_lpStakingPool);\r\n        lpPool = address(lpStakingPool.stakingToken());\r\n\r\n        rewardToken = lpStakingPool.rewardsToken();\r\n\r\n        tokenA = IUniswapV2Pair(lpPool).token0();\r\n        tokenB = IUniswapV2Pair(lpPool).token1();\r\n\r\n        distributionInfo[0] = DistributionInfo({\r\n            block: block.number,\r\n            rewardPerDepositAge: 0,\r\n            cumulativeRewardAgePerDepositAge: 0\r\n        });\r\n        distributionID = 1;\r\n        totalDepositLastUpdate = block.number;\r\n\r\n        IERC20(lpPool).approve(_lpStakingPool, type(uint256).max);\r\n        IERC20(lpPool).approve(address(quickswapRouter), type(uint256).max);\r\n        IERC20(rewardToken).approve(address(quickswapRouter), type(uint256).max);\r\n        IERC20(tokenA).approve(address(quickswapRouter), type(uint256).max);\r\n        IERC20(tokenB).approve(address(quickswapRouter), type(uint256).max);\r\n    }\r\n    \r\n    /**\r\n     * @dev Function that makes the deposits.\r\n     * Stakes {amount} of LP tokens from this contract's balance in the {lpStakingPool}.\r\n     */\r\n    function deposit(uint256 amount, address recipient) external nonReentrant onlyAssetRouter{\r\n        if(amount == 0) revert NO_LIQUIDITY_PROVIDED();\r\n\r\n        _updateDeposit(recipient);\r\n        userInfo[recipient].stake += amount;\r\n        totalDeposits += amount;\r\n            \r\n        lpStakingPool.stake(amount);\r\n    }\r\n\r\n    /**\r\n     * @dev Withdraws funds from {origin} and sends them to the {recipient}.\r\n     */\r\n    function withdraw(uint256 amount, address origin, address recipient) external nonReentrant onlyAssetRouter{\r\n        if(amount == 0) revert INSUFFICIENT_AMOUNT();\r\n\r\n        _updateDeposit(origin);\r\n        UserInfo storage user = userInfo[origin];\r\n        // Subtract amount from user.reward first, then subtract remainder from user.stake.\r\n        if(amount > user.reward){\r\n            uint256 balance = user.stake + user.reward;\r\n            if(amount > balance) revert INSUFFICIENT_BALANCE();\r\n\r\n            user.stake = balance - amount;\r\n            totalDeposits = totalDeposits + user.reward - amount;\r\n            user.reward = 0;\r\n        } else {\r\n            user.reward -= amount;\r\n        }\r\n\r\n        lpStakingPool.withdraw(amount);\r\n        IERC20(lpPool).safeTransfer(recipient, amount);\r\n    }\r\n\r\n    /**\r\n     * @dev Core function of the strat, in charge of updating, collecting and re-investing rewards.\r\n     * 1. It claims rewards from the {lpStakingPool}.\r\n     * 2. It swaps {rewardToken} token for {tokenA} & {tokenB}.\r\n     * 3. It deposits new LP tokens back to the {lpStakingPool}.\r\n     */\r\n    function distribute(\r\n        SwapInfo[2] calldata swapInfos,\r\n        SwapInfo calldata feeSwapInfo,\r\n        FeeInfo calldata feeInfo\r\n    ) external onlyAssetRouter nonReentrant returns(uint256 reward){\r\n        if(totalDeposits == 0) revert NO_LIQUIDITY();\r\n        if(distributionInfo[distributionID - 1].block == block.number) revert CALL_ON_THE_SAME_BLOCK();\r\n\r\n        lpStakingPool.getReward();\r\n        \r\n        _collectFees(feeSwapInfo, feeInfo);\r\n        uint256 rewardTokenHalf = IERC20(rewardToken).balanceOf(address(this)) / 2;\r\n        if (tokenA != rewardToken) {\r\n            address[] calldata route = swapInfos[0].route;\r\n            if(route[0] != rewardToken || route[route.length - 1] != tokenA) revert INVALID_ROUTE(rewardToken, tokenA);\r\n            quickswapRouter.swapExactTokensForTokens(rewardTokenHalf, swapInfos[0].amountOutMin, route, address(this), block.timestamp);\r\n        }\r\n        if (tokenB != rewardToken) {\r\n            address[] calldata route = swapInfos[1].route;\r\n            if(route[0] != rewardToken || route[route.length - 1] != tokenB) revert INVALID_ROUTE(rewardToken, tokenB);\r\n            quickswapRouter.swapExactTokensForTokens(rewardTokenHalf, swapInfos[1].amountOutMin, route, address(this), block.timestamp);\r\n        }\r\n\r\n        (,,reward) = quickswapRouter.addLiquidity(tokenA, tokenB, IERC20(tokenA).balanceOf(address(this)), IERC20(tokenB).balanceOf(address(this)), swapInfos[0].amountOutMin, swapInfos[1].amountOutMin, address(this), block.timestamp);\r\n\r\n        uint256 rewardPerDepositAge = reward * fractionMultiplier / (totalDepositAge + totalDeposits * (block.number - totalDepositLastUpdate));\r\n        uint256 cumulativeRewardAgePerDepositAge = distributionInfo[distributionID - 1].cumulativeRewardAgePerDepositAge + rewardPerDepositAge * (block.number - distributionInfo[distributionID - 1].block);\r\n\r\n        distributionInfo[distributionID] = DistributionInfo({\r\n            block: block.number,\r\n            rewardPerDepositAge: rewardPerDepositAge,\r\n            cumulativeRewardAgePerDepositAge: cumulativeRewardAgePerDepositAge\r\n        });\r\n\r\n        distributionID += 1;\r\n        totalDepositLastUpdate = block.number;\r\n        totalDepositAge = 0;\r\n\r\n        lpStakingPool.stake(reward);\r\n    }\r\n\r\n    /**\r\n     * @dev Swaps and sends fees to feeTo.\r\n     */\r\n    function _collectFees(SwapInfo calldata feeSwapInfo, FeeInfo calldata feeInfo) internal {\r\n        if(feeInfo.feeTo != address(0)){\r\n            uint256 feeAmount = IERC20(rewardToken).balanceOf(address(this)) * feeInfo.fee / fractionMultiplier;\r\n            if(feeAmount > 0){\r\n                address[] calldata route = feeSwapInfo.route;\r\n                if(route.length > 0 && route[0] != route[route.length - 1]){\r\n                    if(route[0] != rewardToken) revert INVALID_FEE_ROUTE(rewardToken);\r\n                    quickswapRouter.swapExactTokensForTokens(feeAmount, feeSwapInfo.amountOutMin, route, feeInfo.feeTo, block.timestamp);\r\n                    return;\r\n                }\r\n                IERC20(rewardToken).safeTransfer(feeInfo.feeTo, feeAmount);\r\n            }\r\n        }\r\n    }\r\n\r\n    /**\r\n     * @dev Returns total funds staked by the {_address}.\r\n     */\r\n    function userBalance(address _address) external view returns (uint256) {\r\n        return userInfo[_address].stake + _userReward(_address);\r\n    }\r\n\r\n    /**\r\n     * @dev Returns total funds locked in the farm.\r\n     */\r\n    function getTotalDeposits() external view returns (uint256 _totalDeposits) {\r\n        if(totalDeposits > 0){\r\n            _totalDeposits = lpStakingPool.balanceOf(address(this));\r\n        }\r\n    }\r\n\r\n    function _updateDeposit(address _address) internal {\r\n        UserInfo storage user = userInfo[_address];\r\n        // Accumulate deposit age within the current distribution period.\r\n        if (user.lastDistribution == distributionID) {\r\n            // Add deposit age from previous deposit age update to now.\r\n            user.depositAge += user.stake * (block.number - user.lastUpdate);\r\n        } else {\r\n            // A reward has been distributed, update user.reward.\r\n            user.reward = _userReward(_address);\r\n            // Count fresh deposit age from previous reward distribution to now.\r\n            user.depositAge = user.stake * (block.number - distributionInfo[distributionID - 1].block);\r\n        }\r\n\r\n        user.lastDistribution = distributionID;\r\n        user.lastUpdate = block.number;\r\n\r\n        // Same with total deposit age.\r\n        totalDepositAge += (block.number - totalDepositLastUpdate) * totalDeposits;\r\n        totalDepositLastUpdate = block.number;\r\n    }\r\n\r\n    function _userReward(address _address) internal view returns (uint256) {\r\n        UserInfo memory user = userInfo[_address];\r\n        if (user.lastDistribution == distributionID) {\r\n            // Return user.reward if the distribution after the last user deposit did not happen yet.\r\n            return user.reward;\r\n        }\r\n        DistributionInfo memory lastUserDistributionInfo = distributionInfo[user.lastDistribution];\r\n        uint256 userDepositAge = user.depositAge + user.stake * (lastUserDistributionInfo.block - user.lastUpdate);\r\n        // Calculate reward between the last user deposit and the distribution after that.\r\n        uint256 rewardBeforeDistibution = userDepositAge * lastUserDistributionInfo.rewardPerDepositAge / fractionMultiplier;\r\n        // Calculate reward from the distributions that have happened after the last user deposit.\r\n        uint256 rewardAfterDistribution = user.stake * (distributionInfo[distributionID - 1].cumulativeRewardAgePerDepositAge - lastUserDistributionInfo.cumulativeRewardAgePerDepositAge) / fractionMultiplier;\r\n        return user.reward + rewardBeforeDistibution + rewardAfterDistribution;\r\n    }\r\n}\r\n",
  "sourcePath": "C:\\Users\\jugli\\Desktop\\uno\\uno-contracts\\contracts\\apps\\quickswap\\UnoFarmQuickswap.sol",
  "compiler": {
    "name": "solc",
    "version": "0.8.10+commit.fc410830.Emscripten.clang"
  },
  "schemaVersion": "3.4.13",
  "updatedAt": "2023-06-12T06:54:40.633Z",
  "networkType": "ethereum",
  "devdoc": {
    "kind": "dev",
    "methods": {
      "deposit(uint256,address)": {
        "details": "Function that makes the deposits. Stakes {amount} of LP tokens from this contract's balance in the {lpStakingPool}."
      },
      "distribute((address[],uint256)[2],(address[],uint256),(address,uint256))": {
        "details": "Core function of the strat, in charge of updating, collecting and re-investing rewards. 1. It claims rewards from the {lpStakingPool}. 2. It swaps {rewardToken} token for {tokenA} & {tokenB}. 3. It deposits new LP tokens back to the {lpStakingPool}."
      },
      "getTotalDeposits()": {
        "details": "Returns total funds locked in the farm."
      },
      "userBalance(address)": {
        "details": "Returns total funds staked by the {_address}."
      },
      "withdraw(uint256,address,address)": {
        "details": "Withdraws funds from {origin} and sends them to the {recipient}."
      }
    },
    "stateVariables": {
      "assetRouter": {
        "details": "Contract Variables: {assetRouter} - The contract from which calls to this farm are made."
      },
      "quickswapRouter": {
        "details": "Third Party Contracts: {quickswapRouter} - Contract that executes swaps. {lpStakingPool} - Contract that distibutes {rewardToken}."
      },
      "rewardToken": {
        "details": "Tokens Used: {rewardToken} - Token generated by staking. {lpPool} - Token that the strategy maximizes. The same token that users deposit in the {lpStakingPool}. {tokenA, tokenB} - Tokens that the strategy maximizes."
      },
      "totalDeposits": {
        "details": "Contract Variables: {totalDeposits} - Total deposits made by users. {totalDepositAge} - Deposits multiplied by blocks the deposit has been in. Flushed every reward distribution. {totalDepositLastUpdate} - Last {totalDepositAge} update block. {distributionID} - Current distribution ID. {userInfo} - Info on each user. {distributionInfo} - Info on each distribution. {fractionMultiplier} - Used to store decimal values."
      }
    },
    "version": 1
  },
  "userdoc": {
    "kind": "user",
    "methods": {},
    "version": 1
  }
}