{
  "contractName": "UnoFarmApeswap",
  "abi": [
    {
      "inputs": [],
      "name": "CALLER_NOT_ASSET_ROUTER",
      "type": "error"
    },
    {
      "inputs": [],
      "name": "CALL_ON_THE_SAME_BLOCK",
      "type": "error"
    },
    {
      "inputs": [],
      "name": "INSUFFICIENT_AMOUNT",
      "type": "error"
    },
    {
      "inputs": [],
      "name": "INSUFFICIENT_BALANCE",
      "type": "error"
    },
    {
      "inputs": [],
      "name": "INVALID_ASSET_ROUTER",
      "type": "error"
    },
    {
      "inputs": [],
      "name": "INVALID_LP_POOL",
      "type": "error"
    },
    {
      "inputs": [
        {
          "internalType": "address",
          "name": "fromToken",
          "type": "address"
        },
        {
          "internalType": "address",
          "name": "toToken",
          "type": "address"
        }
      ],
      "name": "INVALID_ROUTE",
      "type": "error"
    },
    {
      "inputs": [],
      "name": "NO_LIQUIDITY",
      "type": "error"
    },
    {
      "inputs": [],
      "name": "NO_LIQUIDITY_PROVIDED",
      "type": "error"
    },
    {
      "inputs": [],
      "name": "PID_NOT_EXISTS",
      "type": "error"
    },
    {
      "anonymous": false,
      "inputs": [
        {
          "indexed": false,
          "internalType": "uint8",
          "name": "version",
          "type": "uint8"
        }
      ],
      "name": "Initialized",
      "type": "event"
    },
    {
      "inputs": [],
      "name": "assetRouter",
      "outputs": [
        {
          "internalType": "address",
          "name": "",
          "type": "address"
        }
      ],
      "stateMutability": "view",
      "type": "function"
    },
    {
      "inputs": [],
      "name": "lpPool",
      "outputs": [
        {
          "internalType": "address",
          "name": "",
          "type": "address"
        }
      ],
      "stateMutability": "view",
      "type": "function"
    },
    {
      "inputs": [],
      "name": "pid",
      "outputs": [
        {
          "internalType": "uint256",
          "name": "",
          "type": "uint256"
        }
      ],
      "stateMutability": "view",
      "type": "function"
    },
    {
      "inputs": [],
      "name": "rewardToken",
      "outputs": [
        {
          "internalType": "address",
          "name": "",
          "type": "address"
        }
      ],
      "stateMutability": "view",
      "type": "function"
    },
    {
      "inputs": [],
      "name": "tokenA",
      "outputs": [
        {
          "internalType": "address",
          "name": "",
          "type": "address"
        }
      ],
      "stateMutability": "view",
      "type": "function"
    },
    {
      "inputs": [],
      "name": "tokenB",
      "outputs": [
        {
          "internalType": "address",
          "name": "",
          "type": "address"
        }
      ],
      "stateMutability": "view",
      "type": "function"
    },
    {
      "inputs": [
        {
          "internalType": "address",
          "name": "_lpPool",
          "type": "address"
        },
        {
          "internalType": "address",
          "name": "_assetRouter",
          "type": "address"
        }
      ],
      "name": "initialize",
      "outputs": [],
      "stateMutability": "nonpayable",
      "type": "function"
    },
    {
      "inputs": [
        {
          "internalType": "uint256",
          "name": "amount",
          "type": "uint256"
        },
        {
          "internalType": "address",
          "name": "recipient",
          "type": "address"
        }
      ],
      "name": "deposit",
      "outputs": [],
      "stateMutability": "nonpayable",
      "type": "function"
    },
    {
      "inputs": [
        {
          "internalType": "uint256",
          "name": "amount",
          "type": "uint256"
        },
        {
          "internalType": "address",
          "name": "origin",
          "type": "address"
        },
        {
          "internalType": "address",
          "name": "recipient",
          "type": "address"
        }
      ],
      "name": "withdraw",
      "outputs": [],
      "stateMutability": "nonpayable",
      "type": "function"
    },
    {
      "inputs": [
        {
          "components": [
            {
              "internalType": "address[]",
              "name": "route",
              "type": "address[]"
            },
            {
              "internalType": "uint256",
              "name": "amountOutMin",
              "type": "uint256"
            }
          ],
          "internalType": "struct IUnoFarm.SwapInfo[2]",
          "name": "swapInfos",
          "type": "tuple[2]"
        },
        {
          "components": [
            {
              "internalType": "address",
              "name": "feeTo",
              "type": "address"
            },
            {
              "internalType": "uint256",
              "name": "fee",
              "type": "uint256"
            }
          ],
          "internalType": "struct IUnoFarm.FeeInfo",
          "name": "feeInfo",
          "type": "tuple"
        }
      ],
      "name": "distribute",
      "outputs": [
        {
          "internalType": "uint256",
          "name": "reward",
          "type": "uint256"
        }
      ],
      "stateMutability": "nonpayable",
      "type": "function"
    },
    {
      "inputs": [
        {
          "internalType": "address",
          "name": "_address",
          "type": "address"
        }
      ],
      "name": "userBalance",
      "outputs": [
        {
          "internalType": "uint256",
          "name": "",
          "type": "uint256"
        }
      ],
      "stateMutability": "view",
      "type": "function"
    },
    {
      "inputs": [],
      "name": "getTotalDeposits",
      "outputs": [
        {
          "internalType": "uint256",
          "name": "_totalDeposits",
          "type": "uint256"
        }
      ],
      "stateMutability": "view",
      "type": "function"
    }
  ],
  "bytecode": "0x608060405234801561001057600080fd5b506127b6806100206000396000f3fe608060405234801561001057600080fd5b50600436106100d45760003560e01c80635f64b55b11610081578063bc0aac101161005b578063bc0aac10146101a6578063f1068454146101b9578063f7c618c1146101c257600080fd5b80635f64b55b1461016d5780636e553f6514610180578063b460af941461019357600080fd5b8063168a4822116100b2578063168a48221461013d5780633737bcb414610145578063485cc9551461015857600080fd5b80630103c92b146100d957806309505567146100ff5780630fc63d1014610112575b600080fd5b6100ec6100e7366004612160565b6101d5565b6040519081526020015b60405180910390f35b6100ec61010d36600461217d565b610209565b603554610125906001600160a01b031681565b6040516001600160a01b0390911681526020016100f6565b6100ec610b5c565b603454610125906001600160a01b031681565b61016b6101663660046121dc565b610c04565b005b603654610125906001600160a01b031681565b61016b61018e366004612215565b61149b565b61016b6101a136600461223a565b6115f5565b603e54610125906001600160a01b031681565b6100ec60375481565b603354610125906001600160a01b031681565b60006101e0826117db565b6001600160a01b0383166000908152603c602052604090205461020391906122ab565b92915050565b603e546000906001600160a01b03163314610250576040517ffa6f03ae00000000000000000000000000000000000000000000000000000000815260040160405180910390fd5b60385460000361028c576040517ff58c8f9100000000000000000000000000000000000000000000000000000000815260040160405180910390fd5b603b5463ffffffff1643603d60006102a56001856122be565b63ffffffff168152602081019190915260400160002054036102f3576040517ffa2a2d8700000000000000000000000000000000000000000000000000000000815260040160405180910390fd5b6037546040517f441a3e70000000000000000000000000000000000000000000000000000000008152600481019190915260006024820152735c8d727b265dbafaba67e050f2f739caeeb4a6f990819063441a3e7090604401600060405180830381600087803b15801561036657600080fd5b505af115801561037a573d6000803e3d6000fd5b50506035546036546033546040517f70a082310000000000000000000000000000000000000000000000000000000081523060048201526001600160a01b039384169550918316935073cf0febd3f17cef5b47b0cd257acf6025c5bff3b792169060009082906370a0823190602401602060405180830381865afa158015610406573d6000803e3d6000fd5b505050506040513d601f19601f8201168201806040525081019061042a91906122e2565b905061043782828b611970565b61044190826122fb565b9050600061045060028361230e565b9050826001600160a01b0316866001600160a01b0316146105f6573660006104788d80612378565b61048290806123b6565b91509150846001600160a01b0316828260008181106104a3576104a3612349565b90506020020160208101906104b89190612160565b6001600160a01b031614158061051057506001600160a01b03881682826104e06001826122fb565b8181106104ef576104ef612349565b90506020020160208101906105049190612160565b6001600160a01b031614155b1561055f576040517fead9849a0000000000000000000000000000000000000000000000000000000081526001600160a01b038087166004830152891660248201526044015b60405180910390fd5b6001600160a01b0386166338ed1739848f60006020028101906105829190612378565b60200135858530426040518763ffffffff1660e01b81526004016105ab96959493929190612425565b6000604051808303816000875af11580156105ca573d6000803e3d6000fd5b505050506040513d6000823e601f3d908101601f191682016040526105f291908101906124f8565b5050505b826001600160a01b0316856001600160a01b0316146107985736600061061f60208e018e612378565b61062990806123b6565b91509150846001600160a01b03168282600081811061064a5761064a612349565b905060200201602081019061065f9190612160565b6001600160a01b03161415806106b757506001600160a01b03871682826106876001826122fb565b81811061069657610696612349565b90506020020160208101906106ab9190612160565b6001600160a01b031614155b15610701576040517fead9849a0000000000000000000000000000000000000000000000000000000081526001600160a01b03808716600483015288166024820152604401610556565b6001600160a01b0386166338ed1739848f60016020028101906107249190612378565b60200135858530426040518763ffffffff1660e01b815260040161074d96959493929190612425565b6000604051808303816000875af115801561076c573d6000803e3d6000fd5b505050506040513d6000823e601f3d908101601f1916820160405261079491908101906124f8565b5050505b50506040517f70a082310000000000000000000000000000000000000000000000000000000081523060048201526001600160a01b03808416925063e8e337009186918691908316906370a0823190602401602060405180830381865afa158015610807573d6000803e3d6000fd5b505050506040513d601f19601f8201168201806040525081019061082b91906122e2565b6040517f70a082310000000000000000000000000000000000000000000000000000000081523060048201526001600160a01b038816906370a0823190602401602060405180830381865afa158015610888573d6000803e3d6000fd5b505050506040513d601f19601f820116820180604052508101906108ac91906122e2565b6108b68e80612378565b602001358e60016020028101906108cd9190612378565b6040517fffffffff0000000000000000000000000000000000000000000000000000000060e089901b1681526001600160a01b0396871660048201529590941660248601526044850192909252606484015260848301526020013560a48201523060c48201524260e4820152610104016060604051808303816000875af115801561095c573d6000803e3d6000fd5b505050506040513d601f19601f82011682018060405250810190610980919061259e565b603a54909850600092506109959150436122fb565b6038546109a291906125cc565b6039546109af91906122ab565b6109c1670de0b6b3a7640000896125cc565b6109cb919061230e565b90506000603d816109dd60018a6122be565b63ffffffff1681526020810191909152604001600020546109fe90436122fb565b610a0890836125cc565b603d6000610a1760018b6122be565b63ffffffff1663ffffffff16815260200190815260200160002060020154610a3f91906122ab565b60408051606081018252438152602080820186815282840185815263ffffffff8d166000908152603d9093529390912091518255516001808301919091559151600290910155909150610a939088906125e3565b603b80547fffffffffffffffffffffffffffffffffffffffffffffffffffffffff000000001663ffffffff9290921691909117905543603a5560006039556037546040517fe2bbb1580000000000000000000000000000000000000000000000000000000081526004810191909152602481018990526001600160a01b0387169063e2bbb15890604401600060405180830381600087803b158015610b3757600080fd5b505af1158015610b4b573d6000803e3d6000fd5b505050505050505050505092915050565b60385460009015610c01576037546040517f93f1a40b0000000000000000000000000000000000000000000000000000000081526004810191909152306024820152735c8d727b265dbafaba67e050f2f739caeeb4a6f9906393f1a40b906044016040805180830381865afa158015610bd9573d6000803e3d6000fd5b505050506040513d601f19601f82011682018060405250810190610bfd9190612600565b5190505b90565b600054610100900460ff1615808015610c245750600054600160ff909116105b80610c3e5750303b158015610c3e575060005460ff166001145b610cca576040517f08c379a000000000000000000000000000000000000000000000000000000000815260206004820152602e60248201527f496e697469616c697a61626c653a20636f6e747261637420697320616c72656160448201527f647920696e697469616c697a65640000000000000000000000000000000000006064820152608401610556565b600080547fffffffffffffffffffffffffffffffffffffffffffffffffffffffffffffff001660011790558015610d2857600080547fffffffffffffffffffffffffffffffffffffffffffffffffffffffffffff00ff166101001790555b6001600160a01b038316610d68576040517f5309c5cf00000000000000000000000000000000000000000000000000000000815260040160405180910390fd5b6001600160a01b038216610da8576040517fc17c115000000000000000000000000000000000000000000000000000000000815260040160405180910390fd5b610db06119df565b603e80547fffffffffffffffffffffffff0000000000000000000000000000000000000000166001600160a01b038416179055610dec83611a80565b603755603480547fffffffffffffffffffffffff0000000000000000000000000000000000000000166001600160a01b038516179055604080517fdce174840000000000000000000000000000000000000000000000000000000081529051735c8d727b265dbafaba67e050f2f739caeeb4a6f99163dce174849160048083019260209291908290030181865afa158015610e8b573d6000803e3d6000fd5b505050506040513d601f19601f82011682018060405250810190610eaf919061264f565b603380547fffffffffffffffffffffffff0000000000000000000000000000000000000000166001600160a01b03928316179055603454604080517f0dfe168100000000000000000000000000000000000000000000000000000000815290519190921691630dfe16819160048083019260209291908290030181865afa158015610f3e573d6000803e3d6000fd5b505050506040513d601f19601f82011682018060405250810190610f62919061264f565b603580547fffffffffffffffffffffffff0000000000000000000000000000000000000000166001600160a01b03928316179055603454604080517fd21220a70000000000000000000000000000000000000000000000000000000081529051919092169163d21220a79160048083019260209291908290030181865afa158015610ff1573d6000803e3d6000fd5b505050506040513d601f19601f82011682018060405250810190611015919061264f565b603680547fffffffffffffffffffffffff0000000000000000000000000000000000000000166001600160a01b03928316179055604080516060810182524380825260006020808401828152848601838152928052603d90915292517fb4447350905ade30fbbf16eb128316f54a45abd6b02d89811edf7bbf0bb1ba7c5591517fb4447350905ade30fbbf16eb128316f54a45abd6b02d89811edf7bbf0bb1ba7d5590517fb4447350905ade30fbbf16eb128316f54a45abd6b02d89811edf7bbf0bb1ba7e55603b80547fffffffffffffffffffffffffffffffffffffffffffffffffffffffff00000000166001179055603a5560345490517f095ea7b3000000000000000000000000000000000000000000000000000000008152735c8d727b265dbafaba67e050f2f739caeeb4a6f96004820152600019602482015291169063095ea7b3906044016020604051808303816000875af115801561117e573d6000803e3d6000fd5b505050506040513d601f19601f820116820180604052508101906111a2919061266c565b506034546040517f095ea7b300000000000000000000000000000000000000000000000000000000815273cf0febd3f17cef5b47b0cd257acf6025c5bff3b7600482015260001960248201526001600160a01b039091169063095ea7b3906044016020604051808303816000875af1158015611222573d6000803e3d6000fd5b505050506040513d601f19601f82011682018060405250810190611246919061266c565b506033546040517f095ea7b300000000000000000000000000000000000000000000000000000000815273cf0febd3f17cef5b47b0cd257acf6025c5bff3b7600482015260001960248201526001600160a01b039091169063095ea7b3906044016020604051808303816000875af11580156112c6573d6000803e3d6000fd5b505050506040513d601f19601f820116820180604052508101906112ea919061266c565b506035546040517f095ea7b300000000000000000000000000000000000000000000000000000000815273cf0febd3f17cef5b47b0cd257acf6025c5bff3b7600482015260001960248201526001600160a01b039091169063095ea7b3906044016020604051808303816000875af115801561136a573d6000803e3d6000fd5b505050506040513d601f19601f8201168201806040525081019061138e919061266c565b506036546040517f095ea7b300000000000000000000000000000000000000000000000000000000815273cf0febd3f17cef5b47b0cd257acf6025c5bff3b7600482015260001960248201526001600160a01b039091169063095ea7b3906044016020604051808303816000875af115801561140e573d6000803e3d6000fd5b505050506040513d601f19601f82011682018060405250810190611432919061266c565b50801561149657600080547fffffffffffffffffffffffffffffffffffffffffffffffffffffffffffff00ff169055604051600181527f7f26b83ff96e1f2b6a682f133852f6798a09c465da95921460cefb38474024989060200160405180910390a15b505050565b603e546001600160a01b031633146114df576040517ffa6f03ae00000000000000000000000000000000000000000000000000000000815260040160405180910390fd5b81600003611519576040517f78e321a500000000000000000000000000000000000000000000000000000000815260040160405180910390fd5b61152281611c05565b6001600160a01b0381166000908152603c60205260408120805484929061154a9084906122ab565b92505081905550816038600082825461156391906122ab565b90915550506037546040517fe2bbb158000000000000000000000000000000000000000000000000000000008152600481019190915260248101839052735c8d727b265dbafaba67e050f2f739caeeb4a6f99063e2bbb15890604401600060405180830381600087803b1580156115d957600080fd5b505af11580156115ed573d6000803e3d6000fd5b505050505050565b603e546001600160a01b03163314611639576040517ffa6f03ae00000000000000000000000000000000000000000000000000000000815260040160405180910390fd5b82600003611673576040517f2cd294cf00000000000000000000000000000000000000000000000000000000815260040160405180910390fd5b61167c82611c05565b6001600160a01b0382166000908152603c602052604090206002810154808511156117235781546000906116b19083906122ab565b9050808611156116ed576040517f50b1f35600000000000000000000000000000000000000000000000000000000815260040160405180910390fd5b6116f786826122fb565b835560385486906117099084906122ab565b61171391906122fb565b6038555060006002830155611733565b61172d85826122fb565b60028301555b6037546040517f441a3e70000000000000000000000000000000000000000000000000000000008152600481019190915260248101869052735c8d727b265dbafaba67e050f2f739caeeb4a6f99063441a3e7090604401600060405180830381600087803b1580156117a457600080fd5b505af11580156117b8573d6000803e3d6000fd5b50506034546117d492506001600160a01b031690508487611d44565b5050505050565b6001600160a01b0381166000908152603c60209081526040808320815160a08101835281548152600182015493810193909352600281015491830191909152600381015463ffffffff908116606084018190526004909201546080840152603b5416900361184d576040015192915050565b60608082015163ffffffff166000908152603d6020908152604080832081519485018252805480865260018201549386019390935260020154908401526080840151611898916122fb565b83516118a491906125cc565b83602001516118b391906122ab565b90506000670de0b6b3a76400008360200151836118d091906125cc565b6118da919061230e565b6040840151603b54919250600091670de0b6b3a76400009190603d90849061190a9060019063ffffffff166122be565b63ffffffff1663ffffffff1681526020019081526020016000206002015461193291906122fb565b865161193e91906125cc565b611948919061230e565b90508082866040015161195b91906122ab565b61196591906122ab565b979650505050505050565b6000806119806020840184612160565b6001600160a01b0316146119d857670de0b6b3a76400006119a56020840135856125cc565b6119af919061230e565b905080156119d8576119d86119c76020840184612160565b6001600160a01b0386169083611d44565b9392505050565b600054610100900460ff16611a76576040517f08c379a000000000000000000000000000000000000000000000000000000000815260206004820152602b60248201527f496e697469616c697a61626c653a20636f6e7472616374206973206e6f74206960448201527f6e697469616c697a696e670000000000000000000000000000000000000000006064820152608401610556565b611a7e611dc4565b565b600080805b735c8d727b265dbafaba67e050f2f739caeeb4a6f96001600160a01b031663081e3eda6040518163ffffffff1660e01b8152600401602060405180830381865afa158015611ad7573d6000803e3d6000fd5b505050506040513d601f19601f82011682018060405250810190611afb91906122e2565b811015611bc7576040517f1526fe27000000000000000000000000000000000000000000000000000000008152600481018290526001600160a01b03851690735c8d727b265dbafaba67e050f2f739caeeb4a6f990631526fe2790602401608060405180830381865afa158015611b76573d6000803e3d6000fd5b505050506040513d601f19601f82011682018060405250810190611b9a919061268e565b516001600160a01b031603611bb55780925060019150611bc7565b80611bbf816126fd565b915050611a85565b5080611bff576040517fb292e30800000000000000000000000000000000000000000000000000000000815260040160405180910390fd5b50919050565b6001600160a01b0381166000908152603c60205260409020603b54600382015463ffffffff918216911603611c6d576004810154611c4390436122fb565b8154611c4f91906125cc565b816001016000828254611c6291906122ab565b90915550611cc99050565b611c76826117db565b6002820155603b54603d90600090611c969060019063ffffffff166122be565b63ffffffff168152602081019190915260400160002054611cb790436122fb565b8154611cc391906125cc565b60018201555b603b546003820180547fffffffffffffffffffffffffffffffffffffffffffffffffffffffff000000001663ffffffff9092169190911790554360048201819055603854603a549091611d1c91906122fb565b611d2691906125cc565b60396000828254611d3791906122ab565b909155505043603a555050565b604080516001600160a01b038416602482015260448082018490528251808303909101815260649091019091526020810180517bffffffffffffffffffffffffffffffffffffffffffffffffffffffff167fa9059cbb00000000000000000000000000000000000000000000000000000000179052611496908490611e61565b600054610100900460ff16611e5b576040517f08c379a000000000000000000000000000000000000000000000000000000000815260206004820152602b60248201527f496e697469616c697a61626c653a20636f6e7472616374206973206e6f74206960448201527f6e697469616c697a696e670000000000000000000000000000000000000000006064820152608401610556565b60018055565b6000611eb6826040518060400160405280602081526020017f5361666545524332303a206c6f772d6c6576656c2063616c6c206661696c6564815250856001600160a01b0316611f639092919063ffffffff16565b9050805160001480611ed7575080806020019051810190611ed7919061266c565b611496576040517f08c379a000000000000000000000000000000000000000000000000000000000815260206004820152602a60248201527f5361666545524332303a204552433230206f7065726174696f6e20646964206e60448201527f6f742073756363656564000000000000000000000000000000000000000000006064820152608401610556565b6060611f728484600085611f7a565b949350505050565b60608247101561200c576040517f08c379a000000000000000000000000000000000000000000000000000000000815260206004820152602660248201527f416464726573733a20696e73756666696369656e742062616c616e636520666f60448201527f722063616c6c00000000000000000000000000000000000000000000000000006064820152608401610556565b600080866001600160a01b03168587604051612028919061273b565b60006040518083038185875af1925050503d8060008114612065576040519150601f19603f3d011682016040523d82523d6000602084013e61206a565b606091505b509150915061196587838387606083156120ff5782516000036120f8576001600160a01b0385163b6120f8576040517f08c379a000000000000000000000000000000000000000000000000000000000815260206004820152601d60248201527f416464726573733a2063616c6c20746f206e6f6e2d636f6e74726163740000006044820152606401610556565b5081611f72565b611f7283838151156121145781518083602001fd5b806040517f08c379a0000000000000000000000000000000000000000000000000000000008152600401610556919061274d565b6001600160a01b038116811461215d57600080fd5b50565b60006020828403121561217257600080fd5b81356119d881612148565b600080828403606081121561219157600080fd5b833567ffffffffffffffff8111156121a857600080fd5b8401604081018610156121ba57600080fd5b92506040601f19820112156121ce57600080fd5b506020830190509250929050565b600080604083850312156121ef57600080fd5b82356121fa81612148565b9150602083013561220a81612148565b809150509250929050565b6000806040838503121561222857600080fd5b82359150602083013561220a81612148565b60008060006060848603121561224f57600080fd5b83359250602084013561226181612148565b9150604084013561227181612148565b809150509250925092565b7f4e487b7100000000000000000000000000000000000000000000000000000000600052601160045260246000fd5b808201808211156102035761020361227c565b63ffffffff8281168282160390808211156122db576122db61227c565b5092915050565b6000602082840312156122f457600080fd5b5051919050565b818103818111156102035761020361227c565b600082612344577f4e487b7100000000000000000000000000000000000000000000000000000000600052601260045260246000fd5b500490565b7f4e487b7100000000000000000000000000000000000000000000000000000000600052603260045260246000fd5b600082357fffffffffffffffffffffffffffffffffffffffffffffffffffffffffffffffc18336030181126123ac57600080fd5b9190910192915050565b60008083357fffffffffffffffffffffffffffffffffffffffffffffffffffffffffffffffe18436030181126123eb57600080fd5b83018035915067ffffffffffffffff82111561240657600080fd5b6020019150600581901b360382131561241e57600080fd5b9250929050565b868152602080820187905260a0604083018190528201859052600090869060c08401835b8881101561247757833561245c81612148565b6001600160a01b031682529282019290820190600101612449565b506001600160a01b0396909616606085015250505060800152949350505050565b7f4e487b7100000000000000000000000000000000000000000000000000000000600052604160045260246000fd5b604051601f8201601f1916810167ffffffffffffffff811182821017156124f0576124f0612498565b604052919050565b6000602080838503121561250b57600080fd5b825167ffffffffffffffff8082111561252357600080fd5b818501915085601f83011261253757600080fd5b81518181111561254957612549612498565b8060051b915061255a8483016124c7565b818152918301840191848101908884111561257457600080fd5b938501935b8385101561259257845182529385019390850190612579565b98975050505050505050565b6000806000606084860312156125b357600080fd5b8351925060208401519150604084015190509250925092565b80820281158282048414176102035761020361227c565b63ffffffff8181168382160190808211156122db576122db61227c565b60006040828403121561261257600080fd5b6040516040810181811067ffffffffffffffff8211171561263557612635612498565b604052825181526020928301519281019290925250919050565b60006020828403121561266157600080fd5b81516119d881612148565b60006020828403121561267e57600080fd5b815180151581146119d857600080fd5b6000608082840312156126a057600080fd5b6040516080810181811067ffffffffffffffff821117156126c3576126c3612498565b60405282516126d181612148565b808252506020830151602082015260408301516040820152606083015160608201528091505092915050565b600060001982036127105761271061227c565b5060010190565b60005b8381101561273257818101518382015260200161271a565b50506000910152565b600082516123ac818460208701612717565b602081526000825180602084015261276c816040850160208701612717565b601f01601f1916919091016040019291505056fea26469706673582212202bc99afa4b92736768bf8b2e936c5ba945fe9c92d70dfd0054f919bc8fe8722164736f6c63430008130033",
  "immutableReferences": {},
  "source": "// SPDX-License-Identifier: MIT\r\npragma solidity 0.8.19;\r\n\r\nimport './interfaces/IUnoFarmApeswap.sol';\r\nimport '../../interfaces/IUniswapV2Pair.sol';\r\nimport \"../../interfaces/IUniswapV2Router.sol\";\r\nimport '../../interfaces/IMasterApe.sol';\r\nimport '@openzeppelin/contracts-upgradeable/security/ReentrancyGuardUpgradeable.sol';\r\nimport '@openzeppelin/contracts/token/ERC20/utils/SafeERC20.sol';\r\nimport '@openzeppelin/contracts-upgradeable/proxy/utils/Initializable.sol';\r\n\r\ncontract UnoFarmApeswap is Initializable, ReentrancyGuardUpgradeable, IUnoFarmApeswap {\r\n    using SafeERC20 for IERC20;\r\n    /**\r\n     * @dev Tokens Used:\r\n     * {rewardToken} - Token generated by staking (BANANA).\r\n     * {lpPool} - Token that the strategy maximizes. The same token that users deposit in the {MasterApe}.\r\n     * {tokenA, tokenB} - Tokens that the strategy maximizes.\r\n     */\r\n    address public rewardToken;\r\n    address public lpPool;\r\n    address public tokenA;\r\n    address public tokenB;\r\n\r\n    /**\r\n     * @dev Third Party Contracts:\r\n     * {apeswapRouter} - The contract that executes swaps.\r\n     * {MasterApe} -The contract that distibutes {rewardToken}.\r\n     */\r\n    IUniswapV2Router01 private constant apeswapRouter = IUniswapV2Router01(0xcF0feBd3f17CEf5b47b0cD257aCf6025c5BFf3b7);\r\n    IMasterApe private constant MasterApe = IMasterApe(0x5c8D727b265DBAfaba67E050f2f739cAeEB4A6F9);\r\n\r\n    /**\r\n     * @dev Contract Variables:\r\n     * {pid} - Pool ID.\r\n\r\n     * {totalDeposits} - Total deposits made by users.\r\n     * {totalDepositAge} - Deposits multiplied by blocks the deposit has been in. Flushed every reward distribution.\r\n     * {totalDepositLastUpdate} - Last {totalDepositAge} update block.\r\n\r\n     * {distributionID} - Current distribution ID.\r\n     * {userInfo} - Info on each user.\r\n     * {distributionInfo} - Info on each distribution.\r\n\r\n     * {fractionMultiplier} - Used to store decimal values.\r\n     */\r\n    uint256 public pid;\r\n\r\n    uint256 private totalDeposits;\r\n    uint256 private totalDepositAge;\r\n    uint256 private totalDepositLastUpdate;\r\n\r\n    uint32 private distributionID;\r\n    mapping(address => UserInfo) private userInfo;\r\n    mapping(uint32 => DistributionInfo) private distributionInfo;\r\n\r\n    uint256 private constant fractionMultiplier = uint256(1 ether);\r\n\r\n    /**\r\n     * @dev Contract Variables:\r\n     * {assetRouter} - The contract from which calls to this farm are made.\r\n     */\r\n    address public assetRouter;\r\n    modifier onlyAssetRouter(){\r\n        if(msg.sender != assetRouter) revert CALLER_NOT_ASSET_ROUTER();\r\n        _;\r\n    }\r\n\r\n    // ============ Methods ============\r\n\r\n    function initialize(address _lpPool, address _assetRouter) external initializer {\r\n        if(_lpPool == address(0)) revert INVALID_LP_POOL();\r\n        if(_assetRouter == address(0)) revert INVALID_ASSET_ROUTER();\r\n\r\n        __ReentrancyGuard_init();\r\n        assetRouter = _assetRouter;\r\n\r\n        pid = _getPid(_lpPool);\r\n        lpPool = _lpPool;\r\n\r\n        rewardToken = MasterApe.cake();\r\n\r\n        tokenA = IUniswapV2Pair(lpPool).token0();\r\n        tokenB = IUniswapV2Pair(lpPool).token1();\r\n\r\n        distributionInfo[0] = DistributionInfo({\r\n            block: block.number,\r\n            rewardPerDepositAge: 0,\r\n            cumulativeRewardAgePerDepositAge: 0\r\n        });\r\n        distributionID = 1;\r\n        totalDepositLastUpdate = block.number;\r\n\r\n        IERC20(lpPool).approve(address(MasterApe), type(uint256).max);\r\n        IERC20(lpPool).approve(address(apeswapRouter), type(uint256).max);\r\n        IERC20(rewardToken).approve(address(apeswapRouter), type(uint256).max);\r\n        IERC20(tokenA).approve(address(apeswapRouter), type(uint256).max);\r\n        IERC20(tokenB).approve(address(apeswapRouter), type(uint256).max);\r\n    }\r\n\r\n    /**\r\n     * @dev Function that makes the deposits.\r\n     * Deposits provided tokens in the Liquidity Pool, then stakes generated LP tokens in the {MasterApe}.\r\n     */\r\n    function deposit(uint256 amount, address recipient) external onlyAssetRouter{\r\n        if(amount == 0) revert NO_LIQUIDITY_PROVIDED();\r\n\r\n        _updateDeposit(recipient);\r\n        userInfo[recipient].stake += amount;\r\n        totalDeposits += amount;\r\n            \r\n        MasterApe.deposit(pid, amount);\r\n    }\r\n\r\n    /**\r\n     * @dev Withdraws funds from {origin} and sends them to the {recipient}.\r\n     */\r\n    function withdraw(uint256 amount, address origin, address recipient) external onlyAssetRouter{\r\n        if(amount == 0) revert INSUFFICIENT_AMOUNT();\r\n\r\n        _updateDeposit(origin);\r\n\t\tUserInfo storage user = userInfo[origin];\r\n\t\t// Subtract amount from user.reward first, then subtract remainder from user.stake.\r\n\t\tuint256 reward = user.reward;\r\n\t\tif (amount > reward) {\r\n\t\t\tuint256 balance = user.stake + reward;\r\n            if(amount > balance) revert INSUFFICIENT_BALANCE();\r\n\r\n\t\t\tuser.stake = balance - amount;\r\n\t\t\ttotalDeposits = totalDeposits + reward - amount;\r\n\t\t\tuser.reward = 0;\r\n\t\t} else {\r\n\t\t\tuser.reward = reward - amount;\r\n\t\t}\r\n\r\n        MasterApe.withdraw(pid, amount);\r\n        IERC20(lpPool).safeTransfer(recipient, amount);\r\n    }\r\n\r\n    /**\r\n     * @dev Core function of the strat, in charge of updating, collecting and re-investing rewards.\r\n     * 1. It claims rewards from the {MasterApe}.\r\n     * 2. It swaps {rewardToken} token for {tokenA} & {tokenB}.\r\n     * 3. It deposits new LP tokens back to the {MasterApe}.\r\n     */\r\n    function distribute(\r\n        SwapInfo[2] calldata swapInfos,\r\n        FeeInfo calldata feeInfo\r\n    ) external onlyAssetRouter returns(uint256 reward){\r\n        if(totalDeposits == 0) revert NO_LIQUIDITY();\r\n        uint32 _distributionID = distributionID;\r\n        if(distributionInfo[_distributionID - 1].block == block.number) revert CALL_ON_THE_SAME_BLOCK();\r\n\r\n        IMasterApe _MasterApe = MasterApe;\r\n        _MasterApe.withdraw(pid, 0);\r\n\r\n        address _tokenA = tokenA;\r\n        address _tokenB = tokenB;\r\n        IUniswapV2Router01 _apeswapRouter = apeswapRouter;\r\n        {\r\n        address _rewardToken = rewardToken;\r\n        uint256 balance = IERC20(_rewardToken).balanceOf(address(this));\r\n\t\tbalance -= _collectFees(IERC20(_rewardToken), balance, feeInfo);\r\n\t\tuint256 rewardTokenHalf = balance / 2;\r\n\r\n        if (_tokenA != _rewardToken) {\r\n            address[] calldata route = swapInfos[0].route;\r\n            if(route[0] != _rewardToken || route[route.length - 1] != _tokenA) revert INVALID_ROUTE(_rewardToken, _tokenA);\r\n            _apeswapRouter.swapExactTokensForTokens(rewardTokenHalf, swapInfos[0].amountOutMin, route, address(this), block.timestamp);\r\n        }\r\n\r\n        if (_tokenB != _rewardToken) {\r\n            address[] calldata route = swapInfos[1].route;\r\n            if(route[0] != _rewardToken || route[route.length - 1] != _tokenB) revert INVALID_ROUTE(_rewardToken, _tokenB);\r\n            _apeswapRouter.swapExactTokensForTokens(rewardTokenHalf, swapInfos[1].amountOutMin, route, address(this), block.timestamp);\r\n        }\r\n        }\r\n\r\n        (,,reward) = _apeswapRouter.addLiquidity(_tokenA, _tokenB, IERC20(_tokenA).balanceOf(address(this)), IERC20(_tokenB).balanceOf(address(this)), swapInfos[0].amountOutMin, swapInfos[1].amountOutMin, address(this), block.timestamp);\r\n        \r\n        uint256 rewardPerDepositAge = reward * fractionMultiplier / (totalDepositAge + totalDeposits * (block.number - totalDepositLastUpdate));\r\n        uint256 cumulativeRewardAgePerDepositAge = distributionInfo[_distributionID - 1].cumulativeRewardAgePerDepositAge + rewardPerDepositAge * (block.number - distributionInfo[_distributionID - 1].block);\r\n\r\n        distributionInfo[_distributionID] = DistributionInfo({\r\n            block: block.number,\r\n            rewardPerDepositAge: rewardPerDepositAge,\r\n            cumulativeRewardAgePerDepositAge: cumulativeRewardAgePerDepositAge\r\n        });\r\n\r\n        distributionID = _distributionID + 1;\r\n        totalDepositLastUpdate = block.number;\r\n        totalDepositAge = 0;\r\n            \r\n        _MasterApe.deposit(pid, reward);\r\n    }\r\n    \r\n    /**\r\n\t * @dev Sends fees to feeTo.\r\n\t */\r\n\tfunction _collectFees(IERC20 token, uint256 balance, FeeInfo calldata feeInfo) internal returns(uint256 feeAmount) {\r\n\t\tif (feeInfo.feeTo != address(0)) {\r\n\t\t\tfeeAmount = balance * feeInfo.fee / fractionMultiplier;\r\n\t\t\tif (feeAmount > 0) {\r\n\t\t\t\ttoken.safeTransfer(feeInfo.feeTo, feeAmount);\r\n\t\t\t}\r\n\t\t}\r\n\t}\r\n\r\n    /**\r\n     * @dev Returns total funds staked by the {_address}.\r\n     */\r\n    function userBalance(address _address) external view returns (uint256) {\r\n        return userInfo[_address].stake + _userReward(_address);\r\n    }\r\n\r\n    /**\r\n     * @dev Returns total funds locked in the farm.\r\n     */\r\n    function getTotalDeposits() external view returns (uint256 _totalDeposits) {\r\n        if(totalDeposits > 0){\r\n            _totalDeposits = MasterApe.userInfo(pid, address(this)).amount;\r\n        }\r\n    }\r\n    \r\n    function _updateDeposit(address _address) internal {\r\n        UserInfo storage user = userInfo[_address];\r\n        // Accumulate deposit age within the current distribution period.\r\n        if (user.lastDistribution == distributionID) {\r\n            // Add deposit age from previous deposit age update to now.\r\n            user.depositAge += user.stake * (block.number - user.lastUpdate);\r\n        } else {\r\n            // A reward has been distributed, update user.reward.\r\n            user.reward = _userReward(_address);\r\n            // Count fresh deposit age from previous reward distribution to now.\r\n            user.depositAge = user.stake * (block.number - distributionInfo[distributionID - 1].block);\r\n        }\r\n\r\n        user.lastDistribution = distributionID;\r\n        user.lastUpdate = block.number;\r\n\r\n        // Same with total deposit age.\r\n        totalDepositAge += (block.number - totalDepositLastUpdate) * totalDeposits;\r\n        totalDepositLastUpdate = block.number;\r\n    }\r\n\r\n    function _userReward(address _address) internal view returns (uint256) {\r\n        UserInfo memory user = userInfo[_address];\r\n        if (user.lastDistribution == distributionID) {\r\n            // Return user.reward if the distribution after the last user deposit did not happen yet.\r\n            return user.reward;\r\n        }\r\n        DistributionInfo memory lastUserDistributionInfo = distributionInfo[user.lastDistribution];\r\n        uint256 userDepositAge = user.depositAge + user.stake * (lastUserDistributionInfo.block - user.lastUpdate);\r\n        // Calculate reward between the last user deposit and the distribution after that.\r\n        uint256 rewardBeforeDistibution = userDepositAge * lastUserDistributionInfo.rewardPerDepositAge / fractionMultiplier;\r\n        // Calculate reward from the distributions that have happened after the last user deposit.\r\n        uint256 rewardAfterDistribution = user.stake * (distributionInfo[distributionID - 1].cumulativeRewardAgePerDepositAge - lastUserDistributionInfo.cumulativeRewardAgePerDepositAge) / fractionMultiplier;\r\n        return user.reward + rewardBeforeDistibution + rewardAfterDistribution;\r\n    }\r\n\r\n    /**\r\n     * @dev Get pid by iterating over all pools and comparing pids.\r\n     */\r\n    function _getPid(address _lpPool) internal view returns (uint256 _pid) {\r\n        bool poolExists = false;\r\n        for (uint256 i = 0; i < MasterApe.poolLength(); i++) {\r\n            if (MasterApe.poolInfo(i).lpToken == _lpPool) {\r\n                _pid = i;\r\n                poolExists = true;\r\n                break;\r\n            }\r\n        }\r\n        if(!poolExists) revert PID_NOT_EXISTS();\r\n        return _pid;\r\n    }\r\n}\r\n",
  "sourcePath": "C:\\Users\\jugli\\Desktop\\uno\\uno-contracts-bsc\\contracts\\apps\\apeswap\\UnoFarmApeswap.sol",
  "compiler": {
    "name": "solc",
    "version": "0.8.19+commit.7dd6d404.Emscripten.clang"
  },
  "schemaVersion": "3.4.16",
  "updatedAt": "2023-09-27T14:31:20.897Z",
  "devdoc": {
    "events": {
      "Initialized(uint8)": {
        "details": "Triggered when the contract has been initialized or reinitialized."
      }
    },
    "kind": "dev",
    "methods": {
      "deposit(uint256,address)": {
        "details": "Function that makes the deposits. Deposits provided tokens in the Liquidity Pool, then stakes generated LP tokens in the {MasterApe}."
      },
      "distribute((address[],uint256)[2],(address,uint256))": {
        "details": "Core function of the strat, in charge of updating, collecting and re-investing rewards. 1. It claims rewards from the {MasterApe}. 2. It swaps {rewardToken} token for {tokenA} & {tokenB}. 3. It deposits new LP tokens back to the {MasterApe}."
      },
      "getTotalDeposits()": {
        "details": "Returns total funds locked in the farm."
      },
      "userBalance(address)": {
        "details": "Returns total funds staked by the {_address}."
      },
      "withdraw(uint256,address,address)": {
        "details": "Withdraws funds from {origin} and sends them to the {recipient}."
      }
    },
    "stateVariables": {
      "apeswapRouter": {
        "details": "Third Party Contracts: {apeswapRouter} - The contract that executes swaps. {MasterApe} -The contract that distibutes {rewardToken}."
      },
      "assetRouter": {
        "details": "Contract Variables: {assetRouter} - The contract from which calls to this farm are made."
      },
      "pid": {
        "details": "Contract Variables: {pid} - Pool ID. {totalDeposits} - Total deposits made by users. {totalDepositAge} - Deposits multiplied by blocks the deposit has been in. Flushed every reward distribution. {totalDepositLastUpdate} - Last {totalDepositAge} update block. {distributionID} - Current distribution ID. {userInfo} - Info on each user. {distributionInfo} - Info on each distribution. {fractionMultiplier} - Used to store decimal values."
      },
      "rewardToken": {
        "details": "Tokens Used: {rewardToken} - Token generated by staking (BANANA). {lpPool} - Token that the strategy maximizes. The same token that users deposit in the {MasterApe}. {tokenA, tokenB} - Tokens that the strategy maximizes."
      }
    },
    "version": 1
  },
  "userdoc": {
    "kind": "user",
    "methods": {},
    "version": 1
  }
}