{
  "contractName": "UnoFarmBalancer",
  "abi": [
    {
      "anonymous": false,
      "inputs": [
        {
          "indexed": false,
          "internalType": "uint8",
          "name": "version",
          "type": "uint8"
        }
      ],
      "name": "Initialized",
      "type": "event"
    },
    {
      "inputs": [],
      "name": "assetRouter",
      "outputs": [
        {
          "internalType": "address",
          "name": "",
          "type": "address"
        }
      ],
      "stateMutability": "view",
      "type": "function"
    },
    {
      "inputs": [],
      "name": "lpPool",
      "outputs": [
        {
          "internalType": "address",
          "name": "",
          "type": "address"
        }
      ],
      "stateMutability": "view",
      "type": "function"
    },
    {
      "inputs": [],
      "name": "poolId",
      "outputs": [
        {
          "internalType": "bytes32",
          "name": "",
          "type": "bytes32"
        }
      ],
      "stateMutability": "view",
      "type": "function"
    },
    {
      "inputs": [
        {
          "internalType": "address",
          "name": "_lpPool",
          "type": "address"
        },
        {
          "internalType": "address",
          "name": "_assetRouter",
          "type": "address"
        }
      ],
      "name": "initialize",
      "outputs": [],
      "stateMutability": "nonpayable",
      "type": "function"
    },
    {
      "inputs": [
        {
          "internalType": "uint256[]",
          "name": "amounts",
          "type": "uint256[]"
        },
        {
          "internalType": "address[]",
          "name": "tokens",
          "type": "address[]"
        },
        {
          "internalType": "uint256",
          "name": "minAmountLP",
          "type": "uint256"
        },
        {
          "internalType": "uint256",
          "name": "amountLP",
          "type": "uint256"
        },
        {
          "internalType": "address",
          "name": "recipient",
          "type": "address"
        }
      ],
      "name": "deposit",
      "outputs": [
        {
          "internalType": "uint256",
          "name": "liquidity",
          "type": "uint256"
        }
      ],
      "stateMutability": "nonpayable",
      "type": "function"
    },
    {
      "inputs": [
        {
          "internalType": "uint256",
          "name": "amount",
          "type": "uint256"
        },
        {
          "internalType": "uint256[]",
          "name": "minAmountsOut",
          "type": "uint256[]"
        },
        {
          "internalType": "bool",
          "name": "withdrawLP",
          "type": "bool"
        },
        {
          "internalType": "address",
          "name": "origin",
          "type": "address"
        },
        {
          "internalType": "address",
          "name": "recipient",
          "type": "address"
        }
      ],
      "name": "withdraw",
      "outputs": [],
      "stateMutability": "nonpayable",
      "type": "function"
    },
    {
      "inputs": [
        {
          "components": [
            {
              "internalType": "bytes32",
              "name": "poolId",
              "type": "bytes32"
            },
            {
              "internalType": "uint256",
              "name": "assetInIndex",
              "type": "uint256"
            },
            {
              "internalType": "uint256",
              "name": "assetOutIndex",
              "type": "uint256"
            },
            {
              "internalType": "uint256",
              "name": "amount",
              "type": "uint256"
            },
            {
              "internalType": "bytes",
              "name": "userData",
              "type": "bytes"
            }
          ],
          "internalType": "struct IVault.BatchSwapStep[][]",
          "name": "swaps",
          "type": "tuple[][]"
        },
        {
          "internalType": "contract IAsset[][]",
          "name": "assets",
          "type": "address[][]"
        },
        {
          "internalType": "int256[][]",
          "name": "limits",
          "type": "int256[][]"
        }
      ],
      "name": "distribute",
      "outputs": [
        {
          "internalType": "uint256",
          "name": "reward",
          "type": "uint256"
        }
      ],
      "stateMutability": "nonpayable",
      "type": "function"
    },
    {
      "inputs": [
        {
          "internalType": "address",
          "name": "_address",
          "type": "address"
        }
      ],
      "name": "userBalance",
      "outputs": [
        {
          "internalType": "uint256",
          "name": "",
          "type": "uint256"
        }
      ],
      "stateMutability": "view",
      "type": "function"
    },
    {
      "inputs": [],
      "name": "getTotalDeposits",
      "outputs": [
        {
          "internalType": "uint256",
          "name": "_totalDeposits",
          "type": "uint256"
        }
      ],
      "stateMutability": "view",
      "type": "function"
    }
  ],
  "bytecode": "0x608060405234801561001057600080fd5b50612ea2806100206000396000f3fe608060405234801561001057600080fd5b50600436106100935760003560e01c80633f3ce8d2116100665780633f3ce8d2146100fa57806344e4cb0a1461010f578063485cc95514610122578063bc0aac1014610135578063bedfe76f1461014857600080fd5b80630103c92b14610098578063168a4822146100be5780633737bcb4146100c65780633e0dc34e146100f1575b600080fd5b6100ab6100a6366004611ffd565b61015b565b6040519081526020015b60405180910390f35b6100ab61018f565b6035546100d9906001600160a01b031681565b6040516001600160a01b0390911681526020016100b5565b6100ab60365481565b61010d61010836600461203a565b61020c565b005b6100ab61011d3660046121ee565b6105e8565b61010d6101303660046122ca565b610ac3565b603d546100d9906001600160a01b031681565b6100ab6101563660046124c2565b610f3c565b600061016682611ab6565b6001600160a01b0383166000908152603b60205260409020546101899190612758565b92915050565b60375460009015610209576033546040516370a0823160e01b81523060048201526001600160a01b03909116906370a0823190602401602060405180830381865afa1580156101e2573d6000803e3d6000fd5b505050506040513d601f19601f820116820180604052508101906102069190612770565b90505b90565b600260015414156102385760405162461bcd60e51b815260040161022f90612789565b60405180910390fd5b6002600155603d546001600160a01b031633146102675760405162461bcd60e51b815260040161022f906127c0565b600086116102ad5760405162461bcd60e51b8152602060048201526013602482015272125394d551919250d251539517d05353d55395606a1b604482015260640161022f565b6102b682611c4b565b6001600160a01b0382166000908152603b60205260409020600281015487111561036f57600281015481546000916102ed91612758565b9050808811156103365760405162461bcd60e51b8152602060048201526014602482015273494e53554646494349454e545f42414c414e434560601b604482015260640161022f565b61034088826127f7565b82556002820154603754899161035591612758565b61035f91906127f7565b6037555060006002820155610389565b8681600201600082825461038391906127f7565b90915550505b603354604051632e1a7d4d60e01b8152600481018990526001600160a01b0390911690632e1a7d4d90602401600060405180830381600087803b1580156103cf57600080fd5b505af11580156103e3573d6000803e3d6000fd5b50505050831561046b5760355460405163a9059cbb60e01b81526001600160a01b038481166004830152602482018a90529091169063a9059cbb906044016020604051808303816000875af1158015610440573d6000803e3d6000fd5b505050506040513d601f19601f82011682018060405250810190610464919061280e565b50506105dc565b6000610475611d70565b508051909250871490506104cb5760405162461bcd60e51b815260206004820152601a60248201527f4d494e5f414d4f554e54535f4f55545f4241445f4c454e475448000000000000604482015260640161022f565b73ba12222222228d8ba445958a75a0704d566bf2c86001600160a01b0316638bdb3913603654308660405180608001604052808781526020018d8d80806020026020016040519081016040528093929190818152602001838360200280828437600081840152601f19601f82011690508083019250505050505050815260200160018f60405160200161056d92919060ff929092168252602082015260400190565b6040516020818303038152906040528152602001600015158152506040518563ffffffff1660e01b81526004016105a7949392919061294a565b600060405180830381600087803b1580156105c157600080fd5b505af11580156105d5573d6000803e3d6000fd5b5050505050505b50506001805550505050565b60006002600154141561060d5760405162461bcd60e51b815260040161022f90612789565b6002600155603d546001600160a01b0316331461063c5760405162461bcd60e51b815260040161022f906127c0565b600080610647611d70565b50915091506000805b83518110156107f75783818151811061066b5761066b612986565b60200260200101516001600160a01b031689828151811061068e5761068e612986565b60200260200101516001600160a01b0316146106ec5760405162461bcd60e51b815260206004820152601c60248201527f544f4b454e535f4e4f545f4d415443485f504f4f4c5f544f4b454e5300000000604482015260640161022f565b60008a828151811061070057610700612986565b602002602001015111156107e5578161071857600191505b83818151811061072a5761072a612986565b60200260200101516001600160a01b031663095ea7b373ba12222222228d8ba445958a75a0704d566bf2c88c848151811061076757610767612986565b60200260200101516040518363ffffffff1660e01b81526004016107a09291906001600160a01b03929092168252602082015260400190565b6020604051808303816000875af11580156107bf573d6000803e3d6000fd5b505050506040513d601f19601f820116820180604052508101906107e3919061280e565b505b806107ef8161299c565b915050610650565b506035546040516370a0823160e01b81523060048201526000916001600160a01b0316906370a0823190602401602060405180830381865afa158015610841573d6000803e3d6000fd5b505050506040513d601f19601f820116820180604052508101906108659190612770565b9050811561093557600060405180608001604052808581526020018c815260200160018d8c60405160200161089c939291906129b7565b604051602081830303815290604052815260200160001515815250905073ba12222222228d8ba445958a75a0704d566bf2c86001600160a01b031663b95cac286036543030856040518563ffffffff1660e01b8152600401610901949392919061294a565b600060405180830381600087803b15801561091b57600080fd5b505af115801561092f573d6000803e3d6000fd5b50505050505b6035546040516370a0823160e01b81523060048201526000916001600160a01b0316906370a0823190602401602060405180830381865afa15801561097e573d6000803e3d6000fd5b505050506040513d601f19601f820116820180604052508101906109a29190612770565b9050876109af83836127f7565b6109b99190612758565b955060008611610a035760405162461bcd60e51b81526020600482015260156024820152741393d7d3125455525112551657d41493d592511151605a1b604482015260640161022f565b610a0c87611c4b565b6001600160a01b0387166000908152603b602052604081208054889290610a34908490612758565b925050819055508560376000828254610a4d9190612758565b909155505060335460405163b6b55f2560e01b8152600481018890526001600160a01b039091169063b6b55f2590602401600060405180830381600087803b158015610a9857600080fd5b505af1158015610aac573d6000803e3d6000fd5b50506001805550959b9a5050505050505050505050565b6000610acf6001611eef565b90508015610ae7576000805461ff0019166101001790555b610aef611f7c565b603d80546001600160a01b038085166001600160a01b0319928316179092556035805492861692909116821790556040805163038fff2d60e41b815290516338fff2d0916004808201926020929091908290030181865afa158015610b58573d6000803e3d6000fd5b505050506040513d601f19601f82011682018060405250810190610b7c9190612770565b60365560405163a8ea687560e01b81526001600160a01b0384166004820152733b8ca519122cdd8efb272b0d3085453404b25bd09063a8ea687590602401602060405180830381865afa158015610bd7573d6000803e3d6000fd5b505050506040513d601f19601f82011682018060405250810190610bfb91906129e3565b603380546001600160a01b0319166001600160a01b03929092169182179055610cbd576040516313db266360e31b81526001600160a01b0384166004820152733b8ca519122cdd8efb272b0d3085453404b25bd090639ed93318906024016020604051808303816000875af1158015610c78573d6000803e3d6000fd5b505050506040513d601f19601f82011682018060405250810190610c9c91906129e3565b603380546001600160a01b0319166001600160a01b03929092169190911790555b6040516308a4ffeb60e41b81526001600160a01b0384166004820152733b8ca519122cdd8efb272b0d3085453404b25bd090638a4ffeb090602401602060405180830381865afa158015610d15573d6000803e3d6000fd5b505050506040513d601f19601f82011682018060405250810190610d3991906129e3565b603480546001600160a01b0319166001600160a01b03928316179055604080516060810182524380825260006020808401828152848601838152928052603c90915292517f33d13c149959174817b07214f6faff3d4c1d39ff89c6e7f82e2df5f04c00a0ec5591517f33d13c149959174817b07214f6faff3d4c1d39ff89c6e7f82e2df5f04c00a0ed5590517f33d13c149959174817b07214f6faff3d4c1d39ff89c6e7f82e2df5f04c00a0ee55603a805463ffffffff191660011790556039555163095ea7b360e01b815273ba12222222228d8ba445958a75a0704d566bf2c8600482015260001960248201529084169063095ea7b3906044016020604051808303816000875af1158015610e53573d6000803e3d6000fd5b505050506040513d601f19601f82011682018060405250810190610e77919061280e565b5060335460405163095ea7b360e01b81526001600160a01b03918216600482015260001960248201529084169063095ea7b3906044016020604051808303816000875af1158015610ecc573d6000803e3d6000fd5b505050506040513d601f19601f82011682018060405250810190610ef0919061280e565b508015610f37576000805461ff0019169055604051600181527f7f26b83ff96e1f2b6a682f133852f6798a09c465da95921460cefb38474024989060200160405180910390a15b505050565b603d546000906001600160a01b03163314610f695760405162461bcd60e51b815260040161022f906127c0565b60026001541415610f8c5760405162461bcd60e51b815260040161022f90612789565b6002600155603754610fcf5760405162461bcd60e51b815260206004820152600c60248201526b4e4f5f4c495155494449545960a01b604482015260640161022f565b603a544390603c90600090610fec9060019063ffffffff16612a00565b63ffffffff16815260208101919091526040016000205414156110515760405162461bcd60e51b815260206004820152601b60248201527f43414e545f43414c4c5f4f4e5f5448455f53414d455f424c4f434b0000000000604482015260640161022f565b603460009054906101000a90046001600160a01b03166001600160a01b031663963c94b96040518163ffffffff1660e01b8152600401602060405180830381865afa1580156110a4573d6000803e3d6000fd5b505050506040513d601f19601f820116820180604052508101906110c89190612770565b84511480156110d8575082518451145b80156110e5575081518451145b61113f5760405162461bcd60e51b815260206004820152602560248201527f504152414d535f4c454e475448535f4e4f545f4d415443485f5245574152445f60448201526410d3d5539560da1b606482015260840161022f565b603360009054906101000a90046001600160a01b03166001600160a01b031663e6f1daf26040518163ffffffff1660e01b8152600401600060405180830381600087803b15801561118f57600080fd5b505af11580156111a3573d6000803e3d6000fd5b5050505060005b84518110156115ef578481815181106111c5576111c5612986565b60200260200101516000815181106111df576111df612986565b60200260200101516020015160001461123a5760405162461bcd60e51b815260206004820152601860248201527f4241445f53574150535f544f4b454e5f4f52444552494e470000000000000000604482015260640161022f565b6034546040516354c49fe960e01b8152600481018390526000916001600160a01b0316906354c49fe990602401602060405180830381865afa158015611284573d6000803e3d6000fd5b505050506040513d601f19601f820116820180604052508101906112a891906129e3565b9050806001600160a01b03168583815181106112c6576112c6612986565b60200260200101516000815181106112e0576112e0612986565b60200260200101516001600160a01b0316146113315760405162461bcd60e51b815260206004820152601060248201526f1054d4d15517d393d517d49155d0549160821b604482015260640161022f565b6040516370a0823160e01b81523060048201526000906001600160a01b038316906370a0823190602401602060405180830381865afa158015611378573d6000803e3d6000fd5b505050506040513d601f19601f8201168201806040525081019061139c9190612770565b90506000811180156113fa575060335486516001600160a01b03909116908790859081106113cc576113cc612986565b60200260200101516000815181106113e6576113e6612986565b60200260200101516001600160a01b031614155b156115da578087848151811061141257611412612986565b602002602001015160008151811061142c5761142c612986565b60209081029190910101516060015260405163095ea7b360e01b815273ba12222222228d8ba445958a75a0704d566bf2c86004820152602481018290526001600160a01b0383169063095ea7b3906044016020604051808303816000875af115801561149c573d6000803e3d6000fd5b505050506040513d601f19601f820116820180604052508101906114c0919061280e565b5073ba12222222228d8ba445958a75a0704d566bf2c86001600160a01b031663945bcec960008986815181106114f8576114f8612986565b602002602001015189878151811061151257611512612986565b60200260200101516040518060800160405280306001600160a01b03168152602001600015158152602001306001600160a01b03168152602001600015158152508a898151811061156557611565612986565b60200260200101516000196040518763ffffffff1660e01b815260040161159196959493929190612a5e565b6000604051808303816000875af11580156115b0573d6000803e3d6000fd5b505050506040513d6000823e601f3d908101601f191682016040526115d89190810190612b8e565b505b505080806115e79061299c565b9150506111aa565b5060008060006115fd611d70565b92509250925060005b83518110156117b45783818151811061162157611621612986565b60209081029190910101516040516370a0823160e01b81523060048201526001600160a01b03909116906370a0823190602401602060405180830381865afa158015611671573d6000803e3d6000fd5b505050506040513d601f19601f820116820180604052508101906116959190612770565b8282815181106116a7576116a7612986565b60200260200101818152505060008282815181106116c7576116c7612986565b602002602001015111156117a2578381815181106116e7576116e7612986565b60200260200101516001600160a01b031663095ea7b373ba12222222228d8ba445958a75a0704d566bf2c884848151811061172457611724612986565b60200260200101516040518363ffffffff1660e01b815260040161175d9291906001600160a01b03929092168252602082015260400190565b6020604051808303816000875af115801561177c573d6000803e3d6000fd5b505050506040513d601f19601f820116820180604052508101906117a0919061280e565b505b806117ac8161299c565b915050611606565b5073ba12222222228d8ba445958a75a0704d566bf2c86001600160a01b031663b95cac2860365430306040518060800160405280888152602001878152602001600188600160405160200161180b93929190612c13565b6040516020818303038152906040528152602001600015158152506040518563ffffffff1660e01b8152600401611845949392919061294a565b600060405180830381600087803b15801561185f57600080fd5b505af1158015611873573d6000803e3d6000fd5b50506035546040516370a0823160e01b81523060048201526001600160a01b0390911692506370a082319150602401602060405180830381865afa1580156118bf573d6000803e3d6000fd5b505050506040513d601f19601f820116820180604052508101906118e39190612770565b93506000603954436118f591906127f7565b6037546119029190612c42565b60385461190f9190612758565b611921670de0b6b3a764000087612c42565b61192b9190612c61565b603a54909150600090603c90829061194b9060019063ffffffff16612a00565b63ffffffff16815260208101919091526040016000205461196c90436127f7565b6119769083612c42565b603a54603c906000906119919060019063ffffffff16612a00565b63ffffffff1663ffffffff168152602001908152602001600020600201546119b99190612758565b604080516060810182524381526020808201868152828401858152603a805463ffffffff9081166000908152603c90955295842094518555915160018581019190915590516002909401939093558054949550919391929091611a1e91859116612c83565b825463ffffffff9182166101009390930a92830291909202199091161790555043603955600060385560335460405163b6b55f2560e01b8152600481018890526001600160a01b039091169063b6b55f2590602401600060405180830381600087803b158015611a8d57600080fd5b505af1158015611aa1573d6000803e3d6000fd5b50506001805550959998505050505050505050565b6001600160a01b0381166000908152603b60209081526040808320815160a08101835281548152600182015493810193909352600281015491830191909152600381015463ffffffff908116606084018190526004909201546080840152603a54161415611b28576040015192915050565b60608082015163ffffffff166000908152603c6020908152604080832081519485018252805480865260018201549386019390935260020154908401526080840151611b73916127f7565b8351611b7f9190612c42565b8360200151611b8e9190612758565b90506000670de0b6b3a7640000836020015183611bab9190612c42565b611bb59190612c61565b6040840151603a54919250600091670de0b6b3a76400009190603c908490611be59060019063ffffffff16612a00565b63ffffffff1663ffffffff16815260200190815260200160002060020154611c0d91906127f7565b8651611c199190612c42565b611c239190612c61565b905080828660400151611c369190612758565b611c409190612758565b979650505050505050565b6001600160a01b0381166000908152603b60205260409020603a54600382015463ffffffff90811691161415611cb4576004810154611c8a90436127f7565b8154611c969190612c42565b816001016000828254611ca99190612758565b90915550611d109050565b611cbd82611ab6565b6002820155603a54603c90600090611cdd9060019063ffffffff16612a00565b63ffffffff168152602081019190915260400160002054611cfe90436127f7565b8154611d0a9190612c42565b60018201555b603a5460038201805463ffffffff191663ffffffff90921691909117905543600482018190556037546039549091611d4891906127f7565b611d529190612c42565b60386000828254611d639190612758565b9091555050436039555050565b603654604051631f29a8cd60e31b81526060918291829173ba12222222228d8ba445958a75a0704d566bf2c89163f94d466891611db39160040190815260200190565b600060405180830381865afa158015611dd0573d6000803e3d6000fd5b505050506040513d6000823e601f3d908101601f19168201604052611df89190810190612d06565b505080519093506001600160401b03811115611e1657611e166120e9565b604051908082528060200260200182016040528015611e3f578160200160208202803683370190505b50915082516001600160401b03811115611e5b57611e5b6120e9565b604051908082528060200260200182016040528015611e84578160200160208202803683370190505b50905060005b8351811015611ee957838181518110611ea557611ea5612986565b6020026020010151838281518110611ebf57611ebf612986565b6001600160a01b039092166020928302919091019091015280611ee18161299c565b915050611e8a565b50909192565b60008054610100900460ff1615611f36578160ff166001148015611f125750303b155b611f2e5760405162461bcd60e51b815260040161022f90612dd3565b506000919050565b60005460ff808416911610611f5d5760405162461bcd60e51b815260040161022f90612dd3565b506000805460ff191660ff92909216919091179055600190565b919050565b600054610100900460ff16611fa35760405162461bcd60e51b815260040161022f90612e21565b611fab611fad565b565b600054610100900460ff16611fd45760405162461bcd60e51b815260040161022f90612e21565b60018055565b6001600160a01b0381168114611fef57600080fd5b50565b8035611f7781611fda565b60006020828403121561200f57600080fd5b813561201a81611fda565b9392505050565b8015158114611fef57600080fd5b8035611f7781612021565b60008060008060008060a0878903121561205357600080fd5b8635955060208701356001600160401b038082111561207157600080fd5b818901915089601f83011261208557600080fd5b81358181111561209457600080fd5b8a60208260051b85010111156120a957600080fd5b6020830197508096505050506120c16040880161202f565b92506120cf60608801611ff2565b91506120dd60808801611ff2565b90509295509295509295565b634e487b7160e01b600052604160045260246000fd5b60405160a081016001600160401b0381118282101715612121576121216120e9565b60405290565b604051601f8201601f191681016001600160401b038111828210171561214f5761214f6120e9565b604052919050565b60006001600160401b03821115612170576121706120e9565b5060051b60200190565b600082601f83011261218b57600080fd5b813560206121a061219b83612157565b612127565b82815260059290921b840181019181810190868411156121bf57600080fd5b8286015b848110156121e35780356121d681611fda565b83529183019183016121c3565b509695505050505050565b600080600080600060a0868803121561220657600080fd5b85356001600160401b038082111561221d57600080fd5b818801915088601f83011261223157600080fd5b8135602061224161219b83612157565b82815260059290921b8401810191818101908c84111561226057600080fd5b948201945b8386101561227e57853582529482019490820190612265565b9950508901359250508082111561229457600080fd5b506122a18882890161217a565b94505060408601359250606086013591506122be60808701611ff2565b90509295509295909350565b600080604083850312156122dd57600080fd5b82356122e881611fda565b915060208301356122f881611fda565b809150509250929050565b600082601f83011261231457600080fd5b8135602061232461219b83612157565b828152600592831b850182019282820191908785111561234357600080fd5b8387015b858110156123e25780356001600160401b038111156123665760008081fd5b8801603f81018a136123785760008081fd5b85810135604061238a61219b83612157565b82815291851b8301810191888101908d8411156123a75760008081fd5b938201935b838510156123d157843592506123c183611fda565b82825293890193908901906123ac565b885250505093850193508401612347565b5090979650505050505050565b600082601f83011261240057600080fd5b8135602061241061219b83612157565b828152600592831b850182019282820191908785111561242f57600080fd5b8387015b858110156123e25780356001600160401b038111156124525760008081fd5b8801603f81018a136124645760008081fd5b85810135604061247661219b83612157565b82815291851b8301810191888101908d8411156124935760008081fd5b938201935b838510156124b157843582529389019390890190612498565b885250505093850193508401612433565b6000806000606084860312156124d757600080fd5b6001600160401b03843511156124ec57600080fd5b8335840185601f8201126124ff57600080fd5b61250c61219b8235612157565b81358082526020808301929160051b84010188101561252a57600080fd5b602083015b6020843560051b8501018110156126e2576001600160401b038135111561255557600080fd5b88603f82358601011261256757600080fd5b61257a61219b6020833587010135612157565b81358501602081810135808452908301929160059190911b016040018b10156125a257600080fd5b604083358701015b83358701602081013560051b016040018110156126d2576001600160401b03813511156125d657600080fd5b8335870181350160a0818e03603f190112156125f157600080fd5b6125f96120ff565b60408201358152606082013560208201526080820135604082015260a082013560608201526001600160401b0360c0830135111561263657600080fd5b8d605f60c08401358401011261264b57600080fd5b604060c0830135830101356001600160401b0381111561266d5761266d6120e9565b612680601f8201601f1916602001612127565b8181528f60608360c087013587010101111561269b57600080fd5b81606060c08601358601016020830137600060208383010152806080840152505080855250506020830192506020810190506125aa565b508452506020928301920161252f565b50945050506001600160401b03602085013511156126ff57600080fd5b61270f8560208601358601612303565b91506001600160401b036040850135111561272957600080fd5b61273985604086013586016123ef565b90509250925092565b634e487b7160e01b600052601160045260246000fd5b6000821982111561276b5761276b612742565b500190565b60006020828403121561278257600080fd5b5051919050565b6020808252601f908201527f5265656e7472616e637947756172643a207265656e7472616e742063616c6c00604082015260600190565b60208082526017908201527f43414c4c45525f4e4f545f41535345545f524f55544552000000000000000000604082015260600190565b60008282101561280957612809612742565b500390565b60006020828403121561282057600080fd5b815161201a81612021565b600081518084526020808501945080840160005b8381101561285b5781518752958201959082019060010161283f565b509495945050505050565b6000815180845260005b8181101561288c57602081850181015186830182015201612870565b8181111561289e576000602083870101525b50601f01601f19169290920160200192915050565b8051608080845281519084018190526000916020919082019060a0860190845b818110156128f85783516001600160a01b0316835292840192918401916001016128d3565b505082850151915085810383870152612911818361282b565b925050506040830151848203604086015261292c8282612866565b9150506060830151612942606086018215159052565b509392505050565b8481526001600160a01b0384811660208301528316604082015260806060820181905260009061297c908301846128b3565b9695505050505050565b634e487b7160e01b600052603260045260246000fd5b60006000198214156129b0576129b0612742565b5060010190565b60ff841681526060602082015260006129d3606083018561282b565b9050826040830152949350505050565b6000602082840312156129f557600080fd5b815161201a81611fda565b600063ffffffff83811690831681811015612a1d57612a1d612742565b039392505050565b600081518084526020808501945080840160005b8381101561285b5781516001600160a01b031687529582019590820190600101612a39565b600061012080830160028a10612a8457634e487b7160e01b600052602160045260246000fd5b89845260208085019290925288519081905261014080850192600583901b8601909101918a820160005b82811015612b115787850361013f190186528151805186528481015185870152604080820151908701526060808201519087015260809081015160a091870182905290612afd81880183612866565b978601979650505090830190600101612aae565b505050508381036040850152612b278189612a25565b915050612b67606084018780516001600160a01b039081168352602080830151151590840152604080830151909116908301526060908101511515910152565b82810360e0840152612b79818661282b565b91505082610100830152979650505050505050565b60006020808385031215612ba157600080fd5b82516001600160401b03811115612bb757600080fd5b8301601f81018513612bc857600080fd5b8051612bd661219b82612157565b81815260059190911b82018301908381019087831115612bf557600080fd5b928401925b82841015611c4057835182529284019290840190612bfa565b60ff84168152606060208201526000612c2f606083018561282b565b905060ff83166040830152949350505050565b6000816000190483118215151615612c5c57612c5c612742565b500290565b600082612c7e57634e487b7160e01b600052601260045260246000fd5b500490565b600063ffffffff808316818516808303821115612ca257612ca2612742565b01949350505050565b600082601f830112612cbc57600080fd5b81516020612ccc61219b83612157565b82815260059290921b84018101918181019086841115612ceb57600080fd5b8286015b848110156121e35780518352918301918301612cef565b600080600060608486031215612d1b57600080fd5b83516001600160401b0380821115612d3257600080fd5b818601915086601f830112612d4657600080fd5b81516020612d5661219b83612157565b82815260059290921b8401810191818101908a841115612d7557600080fd5b948201945b83861015612d9c578551612d8d81611fda565b82529482019490820190612d7a565b91890151919750909350505080821115612db557600080fd5b50612dc286828701612cab565b925050604084015190509250925092565b6020808252602e908201527f496e697469616c697a61626c653a20636f6e747261637420697320616c72656160408201526d191e481a5b9a5d1a585b1a5e995960921b606082015260800190565b6020808252602b908201527f496e697469616c697a61626c653a20636f6e7472616374206973206e6f74206960408201526a6e697469616c697a696e6760a81b60608201526080019056fea26469706673582212203dd9689fa9e26f03b1ecdad281697f0f5cdcf663d3d891b65dbace0da65352fd64736f6c634300080a0033",
  "immutableReferences": {},
  "source": "// SPDX-License-Identifier: MIT\r\npragma solidity 0.8.10;\r\n \r\nimport '../../interfaces/IWMATIC.sol';\r\nimport \"../../interfaces/IVault.sol\";\r\nimport \"../../interfaces/IBasePool.sol\";\r\nimport '../../interfaces/IChildChainLiquidityGaugeFactory.sol';\r\nimport \"../../interfaces/IRewardsOnlyGauge.sol\"; \r\nimport \"../../interfaces/IChildChainStreamer.sol\"; \r\nimport '@openzeppelin/contracts-upgradeable/security/ReentrancyGuardUpgradeable.sol';\r\nimport '@openzeppelin/contracts-upgradeable/proxy/utils/Initializable.sol';\r\n\r\ncontract UnoFarmBalancer is Initializable, ReentrancyGuardUpgradeable {\r\n    /**\r\n     * @dev DistributionInfo:\r\n     * {block} - Distribution block number.\r\n     * {rewardPerDepositAge} - Distribution reward divided by {totalDepositAge}. \r\n     * {cumulativeRewardAgePerDepositAge} - Sum of {rewardPerDepositAge}s multiplied by distribution interval.\r\n     */\r\n    struct DistributionInfo {\r\n        uint256 block;\r\n        uint256 rewardPerDepositAge;\r\n        uint256 cumulativeRewardAgePerDepositAge;\r\n    }\r\n    /**\r\n     * @dev UserInfo:\r\n     * {stake} - Amount of LP tokens deposited by the user.\r\n     * {depositAge} - User deposits multiplied by blocks the deposit has been in. \r\n     * {reward} - Amount of LP tokens entitled to the user.\r\n     * {lastDistribution} - Distribution ID before the last user deposit.\r\n     * {lastUpdate} - Deposit update block.\r\n     */\r\n    struct UserInfo {\r\n        uint256 stake;\r\n        uint256 depositAge;\r\n        uint256 reward;\r\n        uint32 lastDistribution;\r\n        uint256 lastUpdate;\r\n    }\r\n\r\n    /**\r\n     * @dev Third Party Contracts:\r\n     * {Vault} - Main Balancer contract used for pool exits/joins and swaps.\r\n     * {GaugeFactory} - Contract that deploys gauges.\r\n     * {gauge} - Contract that distributes reward tokens.\r\n     * {streamer} - Contract reward tokens get sent to from the bridge.\r\n     */   \r\n    IVault constant private Vault = IVault(0xBA12222222228d8Ba445958a75a0704d566BF2C8);\r\n    IChildChainLiquidityGaugeFactory constant private GaugeFactory = IChildChainLiquidityGaugeFactory(0x3b8cA519122CdD8efb272b0D3085453404B25bD0);\r\n    IRewardsOnlyGauge private gauge;\r\n    IChildChainStreamer private streamer;\r\n\r\n    /**\r\n     * @dev Contract Variables:\r\n     * {lpPool} - Pool.\r\n     * {poolId} - Bytes32 representation of the {lpPool}.\r\n\r\n     * {totalDeposits} - Total deposits made by users.\r\n     * {totalDepositAge} - Deposits multiplied by blocks the deposit has been in. Flushed every reward distribution.\r\n     * {totalDepositLastUpdate} - Last {totalDepositAge} update block.\r\n\r\n     * {distributionID} - Current distribution ID.\r\n     * {userInfo} - Info on each user.\r\n     * {distributionInfo} - Info on each distribution.\r\n\r\n     * {fractionMultiplier} - Used to store decimal values.\r\n     */\r\n    address public lpPool;\r\n    bytes32 public poolId;\r\n\r\n    uint256 private totalDeposits;\r\n    uint256 private totalDepositAge;\r\n    uint256 private totalDepositLastUpdate;\r\n\r\n    uint32 private distributionID;\r\n    mapping(address => UserInfo) private userInfo;\r\n    mapping(uint32 => DistributionInfo) private distributionInfo;\r\n\r\n    uint256 private constant fractionMultiplier = uint256(1 ether);\r\n\r\n    /**\r\n     * @dev Contract Variables:\r\n     * {assetRouter} - The contract from which calls to this farm are made.\r\n     */\r\n    address public assetRouter;\r\n    modifier onlyAssetRouter(){\r\n        require(msg.sender == assetRouter, 'CALLER_NOT_ASSET_ROUTER');\r\n        _;\r\n    }\r\n\r\n    // ============ Methods ============\r\n\r\n    function initialize(address _lpPool, address _assetRouter) external initializer {\r\n        __ReentrancyGuard_init();\r\n        assetRouter = _assetRouter;\r\n\r\n        lpPool = _lpPool;\r\n        poolId = IBasePool(_lpPool).getPoolId();\r\n\r\n        gauge = IRewardsOnlyGauge(GaugeFactory.getPoolGauge(_lpPool));\r\n        if(address(gauge) == address(0)){\r\n            gauge = IRewardsOnlyGauge(GaugeFactory.create(_lpPool));\r\n        }\r\n        streamer = IChildChainStreamer(GaugeFactory.getPoolStreamer(_lpPool));\r\n\r\n        distributionInfo[0] = DistributionInfo({\r\n            block: block.number,\r\n            rewardPerDepositAge: 0,\r\n            cumulativeRewardAgePerDepositAge: 0\r\n        });\r\n        distributionID = 1;\r\n        totalDepositLastUpdate = block.number;\r\n\r\n        IERC20(_lpPool).approve(address(Vault), type(uint256).max);\r\n        IERC20(_lpPool).approve(address(gauge), type(uint256).max);\r\n    }\r\n\r\n    /**\r\n     * @dev Function that makes the deposits.\r\n     * Deposits {amounts} of {tokens} from this contract's balance to the {Vault}.\r\n     */\r\n    function deposit(uint256[] memory amounts, address[] memory tokens, uint256 minAmountLP, uint256 amountLP,  address recipient) external nonReentrant onlyAssetRouter returns(uint256 liquidity){\r\n        (IERC20[] memory poolTokens, IAsset[] memory assets,) = getTokens();\r\n\r\n        bool joinPool = false;\r\n        for (uint256 i = 0; i < poolTokens.length; i++) {\r\n            require (IERC20(tokens[i]) == poolTokens[i], 'TOKENS_NOT_MATCH_POOL_TOKENS');\r\n            if(amounts[i] > 0){\r\n                if(!joinPool){\r\n                    joinPool = true;\r\n                }\r\n                poolTokens[i].approve(address(Vault), amounts[i]);\r\n            }\r\n        }\r\n\r\n        uint256 amountBefore = IERC20(lpPool).balanceOf(address(this));\r\n        if(joinPool){\r\n            IVault.JoinPoolRequest memory joinPoolRequest = IVault.JoinPoolRequest(assets, amounts, abi.encode(1, amounts, minAmountLP), false);\r\n            Vault.joinPool(poolId, address(this), address(this), joinPoolRequest);\r\n        }\r\n        uint256 amountAfter = IERC20(lpPool).balanceOf(address(this));\r\n\r\n        liquidity = amountAfter - amountBefore + amountLP;\r\n        require (liquidity > 0, 'NO_LIQUIDITY_PROVIDED');\r\n        \r\n        _updateDeposit(recipient);\r\n        userInfo[recipient].stake += liquidity;\r\n        totalDeposits += liquidity;\r\n\r\n        gauge.deposit(liquidity);\r\n    }\r\n\r\n    /**\r\n     * @dev Withdraws funds from {origin} and sends them to the {recipient}.\r\n     */\r\n    function withdraw(uint256 amount, uint256[] calldata minAmountsOut, bool withdrawLP, address origin, address recipient) external nonReentrant onlyAssetRouter{\r\n        require(amount > 0, 'INSUFFICIENT_AMOUNT');\r\n\r\n        _updateDeposit(origin);\r\n        UserInfo storage user = userInfo[origin];\r\n        // Subtract amount from user.reward first, then subtract remainder from user.stake.\r\n        if(amount > user.reward){\r\n            uint256 balance = user.stake + user.reward;\r\n            require(amount <= balance, 'INSUFFICIENT_BALANCE');\r\n            user.stake = balance - amount;\r\n            totalDeposits = totalDeposits + user.reward - amount;\r\n            user.reward = 0;\r\n        } else {\r\n            user.reward -= amount;\r\n        }\r\n\r\n        gauge.withdraw(amount);\r\n        if(withdrawLP){\r\n            IERC20(lpPool).transfer(recipient, amount);\r\n            return;\r\n        }\r\n\r\n        (, IAsset[] memory assets, ) = getTokens();\r\n        require (minAmountsOut.length == assets.length, 'MIN_AMOUNTS_OUT_BAD_LENGTH');\r\n        Vault.exitPool(poolId, address(this), payable(recipient), IVault.ExitPoolRequest(assets, minAmountsOut, abi.encode(1, amount), false));\r\n    }\r\n\r\n    /**\r\n     * @dev Core function of the strat, in charge of updating, collecting and re-investing rewards.\r\n     * 1. It claims rewards from the {gauge}.\r\n     * 2. It swaps reward tokens for {tokens}.\r\n     * 3. It deposits new tokens back to the {gauge}.\r\n     */\r\n    function distribute(\r\n        IVault.BatchSwapStep[][] memory swaps,\r\n        IAsset[][] memory assets,\r\n        int256[][] memory limits\r\n    ) external onlyAssetRouter nonReentrant returns(uint256 reward){\r\n        require(totalDeposits > 0, 'NO_LIQUIDITY');\r\n        require(distributionInfo[distributionID - 1].block != block.number, 'CANT_CALL_ON_THE_SAME_BLOCK');\r\n        require((swaps.length == streamer.reward_count()) && (swaps.length == assets.length) && (swaps.length == limits.length), 'PARAMS_LENGTHS_NOT_MATCH_REWARD_COUNT');\r\n\r\n        gauge.claim_rewards();\r\n        for (uint256 i = 0; i < swaps.length; i++) {\r\n            require(swaps[i][0].assetInIndex == 0, 'BAD_SWAPS_TOKEN_ORDERING');\r\n\r\n            IERC20 rewardToken = IERC20(streamer.reward_tokens(i));\r\n            require(address(assets[i][0]) == address(rewardToken), 'ASSET_NOT_REWARD');\r\n\r\n            uint256 rewardTokenBalance = rewardToken.balanceOf(address(this));\r\n            if (rewardTokenBalance > 0 && (address(assets[i][0]) != address(gauge))) {\r\n                swaps[i][0].amount = rewardTokenBalance;\r\n                rewardToken.approve(address(Vault), rewardTokenBalance);\r\n                Vault.batchSwap(\r\n                    IVault.SwapKind.GIVEN_IN,\r\n                    swaps[i],\r\n                    assets[i],\r\n                    IVault.FundManagement({sender: address(this), fromInternalBalance:false, recipient: payable(address(this)), toInternalBalance:false}),\r\n                    limits[i],\r\n                    type(uint256).max\r\n                );\r\n            }\r\n        }\r\n\r\n        (IERC20[] memory tokens, IAsset[] memory joinAssets, uint256[] memory joinAmounts) = getTokens();\r\n        for (uint256 i = 0; i < tokens.length; i++) {\r\n            joinAmounts[i] = tokens[i].balanceOf(address(this));\r\n            if (joinAmounts[i] > 0){\r\n                tokens[i].approve(address(Vault), joinAmounts[i]);\r\n            }\r\n        }\r\n        \r\n        Vault.joinPool(poolId, address(this), address(this), IVault.JoinPoolRequest(joinAssets, joinAmounts, abi.encode(1, joinAmounts, 1), false));\r\n        reward = IERC20(lpPool).balanceOf(address(this));\r\n\r\n        uint256 rewardPerDepositAge = reward * fractionMultiplier / (totalDepositAge + totalDeposits * (block.number - totalDepositLastUpdate));\r\n        uint256 cumulativeRewardAgePerDepositAge = distributionInfo[distributionID - 1].cumulativeRewardAgePerDepositAge + rewardPerDepositAge * (block.number - distributionInfo[distributionID - 1].block);\r\n\r\n        distributionInfo[distributionID] = DistributionInfo({\r\n            block: block.number,\r\n            rewardPerDepositAge: rewardPerDepositAge,\r\n            cumulativeRewardAgePerDepositAge: cumulativeRewardAgePerDepositAge\r\n        });\r\n\r\n        distributionID += 1;\r\n        totalDepositLastUpdate = block.number;\r\n        totalDepositAge = 0;\r\n\r\n        gauge.deposit(reward);\r\n    }\r\n\r\n    /**\r\n     * @dev Returns total funds staked by the {_address}.\r\n     */\r\n    function userBalance(address _address) external view returns (uint256) {\r\n        return userInfo[_address].stake + userReward(_address);\r\n    }\r\n\r\n    /**\r\n     * @dev Returns total funds locked in the farm.\r\n     */\r\n    function getTotalDeposits() external view returns (uint256 _totalDeposits) {\r\n        if(totalDeposits > 0){\r\n            _totalDeposits = gauge.balanceOf(address(this));\r\n        }\r\n    }\r\n    \r\n    function _updateDeposit(address _address) internal {\r\n        UserInfo storage user = userInfo[_address];\r\n        // Accumulate deposit age within the current distribution period.\r\n        if (user.lastDistribution == distributionID) {\r\n            // Add deposit age from previous deposit age update to now.\r\n            user.depositAge += user.stake * (block.number - user.lastUpdate);\r\n        } else {\r\n            // A reward has been distributed, update user.reward.\r\n            user.reward = userReward(_address);\r\n            // Count fresh deposit age from previous reward distribution to now.\r\n            user.depositAge = user.stake * (block.number - distributionInfo[distributionID - 1].block);\r\n        }\r\n\r\n        user.lastDistribution = distributionID;\r\n        user.lastUpdate = block.number;\r\n\r\n        // Same with total deposit age.\r\n        totalDepositAge += (block.number - totalDepositLastUpdate) * totalDeposits;\r\n        totalDepositLastUpdate = block.number;\r\n    }\r\n\r\n    function userReward(address _address) internal view returns (uint256) {\r\n        UserInfo memory user = userInfo[_address];\r\n        if (user.lastDistribution == distributionID) {\r\n            // Return user.reward if the distribution after the last user deposit did not happen yet.\r\n            return user.reward;\r\n        }\r\n        DistributionInfo memory lastUserDistributionInfo = distributionInfo[user.lastDistribution];\r\n        uint256 userDepositAge = user.depositAge + user.stake * (lastUserDistributionInfo.block - user.lastUpdate);\r\n        // Calculate reward between the last user deposit and the distribution after that.\r\n        uint256 rewardBeforeDistibution = userDepositAge * lastUserDistributionInfo.rewardPerDepositAge / fractionMultiplier;\r\n        // Calculate reward from the distributions that have happened after the last user deposit.\r\n        uint256 rewardAfterDistribution = user.stake * (distributionInfo[distributionID - 1].cumulativeRewardAgePerDepositAge - lastUserDistributionInfo.cumulativeRewardAgePerDepositAge) / fractionMultiplier;\r\n        return user.reward + rewardBeforeDistibution + rewardAfterDistribution;\r\n    }\r\n\r\n    /**\r\n     * @dev Utility function used to create IAsset array.\r\n     */ \r\n    function getTokens() internal view returns(IERC20[] memory tokens, IAsset[] memory assets, uint256[] memory amounts){\r\n        (tokens, , ) = Vault.getPoolTokens(poolId);\r\n        assets = new IAsset[](tokens.length);\r\n        amounts = new uint256[](tokens.length);\r\n        for (uint256 i = 0; i < tokens.length; i++) {\r\n            assets[i] = IAsset(address(tokens[i]));\r\n        }\r\n    }\r\n}\r\n",
  "sourcePath": "C:\\Users\\jugli\\Desktop\\uno\\uno-contracts\\contracts\\apps\\balancer\\UnoFarmBalancer.sol",
  "compiler": {
    "name": "solc",
    "version": "0.8.10+commit.fc410830.Emscripten.clang"
  },
  "schemaVersion": "3.4.7",
  "updatedAt": "2022-07-26T09:30:08.337Z",
  "devdoc": {
    "kind": "dev",
    "methods": {
      "deposit(uint256[],address[],uint256,uint256,address)": {
        "details": "Function that makes the deposits. Deposits {amounts} of {tokens} from this contract's balance to the {Vault}."
      },
      "distribute((bytes32,uint256,uint256,uint256,bytes)[][],address[][],int256[][])": {
        "details": "Core function of the strat, in charge of updating, collecting and re-investing rewards. 1. It claims rewards from the {gauge}. 2. It swaps reward tokens for {tokens}. 3. It deposits new tokens back to the {gauge}."
      },
      "getTotalDeposits()": {
        "details": "Returns total funds locked in the farm."
      },
      "userBalance(address)": {
        "details": "Returns total funds staked by the {_address}."
      },
      "withdraw(uint256,uint256[],bool,address,address)": {
        "details": "Withdraws funds from {origin} and sends them to the {recipient}."
      }
    },
    "stateVariables": {
      "Vault": {
        "details": "Third Party Contracts: {Vault} - Main Balancer contract used for pool exits/joins and swaps. {GaugeFactory} - Contract that deploys gauges. {gauge} - Contract that distributes reward tokens. {streamer} - Contract reward tokens get sent to from the bridge."
      },
      "assetRouter": {
        "details": "Contract Variables: {assetRouter} - The contract from which calls to this farm are made."
      },
      "lpPool": {
        "details": "Contract Variables: {lpPool} - Pool. {poolId} - Bytes32 representation of the {lpPool}. {totalDeposits} - Total deposits made by users. {totalDepositAge} - Deposits multiplied by blocks the deposit has been in. Flushed every reward distribution. {totalDepositLastUpdate} - Last {totalDepositAge} update block. {distributionID} - Current distribution ID. {userInfo} - Info on each user. {distributionInfo} - Info on each distribution. {fractionMultiplier} - Used to store decimal values."
      }
    },
    "version": 1
  },
  "userdoc": {
    "kind": "user",
    "methods": {},
    "version": 1
  }
}